{
  "_format": "hh-sol-artifact-1",
  "contractName": "HouseRegistry",
  "sourceName": "contracts/HouseRegistry.sol",
  "abi": [
    {
      "anonymous": false,
      "inputs": [
        {
          "indexed": false,
          "internalType": "uint256",
          "name": "houseId",
          "type": "uint256"
        },
        {
          "indexed": false,
          "internalType": "address",
          "name": "_sellerAddress",
          "type": "address"
        },
        {
          "indexed": false,
          "internalType": "uint256",
          "name": "price",
          "type": "uint256"
        },
        {
          "indexed": false,
          "internalType": "uint256",
          "name": "priceDai",
          "type": "uint256"
        },
        {
          "indexed": false,
          "internalType": "string",
          "name": "houseAddress",
          "type": "string"
        }
      ],
      "name": "AddNewHouse",
      "type": "event"
    },
    {
      "anonymous": false,
      "inputs": [
        {
          "indexed": false,
          "internalType": "uint8",
          "name": "version",
          "type": "uint8"
        }
      ],
      "name": "Initialized",
      "type": "event"
    },
    {
      "anonymous": false,
      "inputs": [
        {
          "indexed": false,
          "internalType": "string",
          "name": "message",
          "type": "string"
        }
      ],
      "name": "IsDelistedHouse",
      "type": "event"
    },
    {
      "inputs": [
        {
          "internalType": "address",
          "name": "",
          "type": "address"
        }
      ],
      "name": "cooldown",
      "outputs": [
        {
          "internalType": "uint256",
          "name": "",
          "type": "uint256"
        }
      ],
      "stateMutability": "view",
      "type": "function"
    },
    {
      "inputs": [],
      "name": "cooldownTime",
      "outputs": [
        {
          "internalType": "uint256",
          "name": "",
          "type": "uint256"
        }
      ],
      "stateMutability": "view",
      "type": "function"
    },
    {
      "inputs": [],
      "name": "countOfHouses",
      "outputs": [
        {
          "internalType": "uint256",
          "name": "",
          "type": "uint256"
        }
      ],
      "stateMutability": "view",
      "type": "function"
    },
    {
      "inputs": [
        {
          "internalType": "uint256",
          "name": "houseId",
          "type": "uint256"
        }
      ],
      "name": "delistHouse",
      "outputs": [
        {
          "internalType": "string",
          "name": "",
          "type": "string"
        }
      ],
      "stateMutability": "nonpayable",
      "type": "function"
    },
    {
      "inputs": [
        {
          "internalType": "uint256",
          "name": "cost",
          "type": "uint256"
        }
      ],
      "name": "getCheapHouseIds",
      "outputs": [
        {
          "internalType": "uint256[]",
          "name": "",
          "type": "uint256[]"
        }
      ],
      "stateMutability": "view",
      "type": "function"
    },
    {
      "inputs": [],
      "name": "houseFactoryAddress",
      "outputs": [
        {
          "internalType": "address",
          "name": "",
          "type": "address"
        }
      ],
      "stateMutability": "view",
      "type": "function"
    },
    {
      "inputs": [
        {
          "internalType": "uint256",
          "name": "",
          "type": "uint256"
        }
      ],
      "name": "houseIndex",
      "outputs": [
        {
          "internalType": "uint256",
          "name": "",
          "type": "uint256"
        }
      ],
      "stateMutability": "view",
      "type": "function"
    },
    {
      "inputs": [
        {
          "internalType": "uint256",
          "name": "",
          "type": "uint256"
        }
      ],
      "name": "houses",
      "outputs": [
        {
          "internalType": "address",
          "name": "",
          "type": "address"
        }
      ],
      "stateMutability": "view",
      "type": "function"
    },
    {
      "inputs": [
        {
          "internalType": "address",
          "name": "_houseFactoryAddress",
          "type": "address"
        }
      ],
      "name": "initialize",
      "outputs": [],
      "stateMutability": "nonpayable",
      "type": "function"
    },
    {
      "inputs": [
        {
          "internalType": "uint256",
          "name": "_price",
          "type": "uint256"
        },
        {
          "internalType": "uint256",
          "name": "_priceDai",
          "type": "uint256"
        },
        {
          "internalType": "uint256",
          "name": "_area",
          "type": "uint256"
        },
        {
          "internalType": "address",
          "name": "_sellerAddress",
          "type": "address"
        },
        {
          "internalType": "string",
          "name": "_houseAddress",
          "type": "string"
        }
      ],
      "name": "listHouse",
      "outputs": [
        {
          "internalType": "uint256",
          "name": "",
          "type": "uint256"
        }
      ],
      "stateMutability": "nonpayable",
      "type": "function"
    }
  ],
  "bytecode": "0x608060405234801561001057600080fd5b50611b92806100206000396000f3fe608060405234801561001057600080fd5b506004361061009e5760003560e01c8063aeda852f11610066578063aeda852f1461016f578063b222e0c21461019f578063b319c6b7146101cf578063c45e1b25146101ed578063c4d66de81461021d5761009e565b806319161161146100a35780633c3b0b4a146100d35780636e934095146101035780637f8d071314610121578063a4d4692e14610151575b600080fd5b6100bd60048036038101906100b89190611061565b610239565b6040516100ca919061143c565b60405180910390f35b6100ed60048036038101906100e8919061100f565b610514565b6040516100fa919061137a565b60405180910390f35b61010b610741565b6040516101189190611322565b60405180910390f35b61013b6004803603810190610136919061100f565b610767565b604051610148919061143c565b60405180910390f35b61015961078b565b604051610166919061143c565b60405180910390f35b6101896004803603810190610184919061100f565b610791565b6040516101969190611322565b60405180910390f35b6101b960048036038101906101b49190610fbd565b6107c4565b6040516101c6919061143c565b60405180910390f35b6101d76107dc565b6040516101e4919061143c565b60405180910390f35b6102076004803603810190610202919061100f565b6107e2565b604051610214919061133d565b60405180910390f35b61023760048036038101906102329190610fbd565b610bea565b005b600042600560003373ffffffffffffffffffffffffffffffffffffffff1673ffffffffffffffffffffffffffffffffffffffff1681526020019081526020016000205411156102bd576040517f08c379a00000000000000000000000000000000000000000000000000000000081526004016102b4906113bc565b60405180910390fd5b600084876102cb91906117b3565b1161030b576040517f08c379a00000000000000000000000000000000000000000000000000000000081526004016103029061139c565b60405180910390fd5b6000610318848685610cbf565b905061032381610d21565b610362576040517f08c379a00000000000000000000000000000000000000000000000000000000081526004016103599061141c565b60405180910390fd5b600060029054906101000a900473ffffffffffffffffffffffffffffffffffffffff1673ffffffffffffffffffffffffffffffffffffffff1663615687c7826002548a8a8a8a8b8b6040518963ffffffff1660e01b81526004016103cd9897969594939291906114b1565b602060405180830381600087803b1580156103e757600080fd5b505af11580156103fb573d6000803e3d6000fd5b505050506040513d601f19601f8201168201806040525081019061041f9190610fe6565b6004600083815260200190815260200160002060006101000a81548173ffffffffffffffffffffffffffffffffffffffff021916908373ffffffffffffffffffffffffffffffffffffffff1602179055506104876001544261048191906115ec565b33610da6565b6003819080600181540180825580915050600190039060005260206000200160009091909190915055600260008154809291906104c3906118db565b91905055507f3070c472a527c6fdf9d1d29d3f8de3f74a2de6ef97db5cc15b587188b278951f81858989876040516104ff959493929190611457565b60405180910390a18091505095945050505050565b60603373ffffffffffffffffffffffffffffffffffffffff166004600084815260200190815260200160002060009054906101000a900473ffffffffffffffffffffffffffffffffffffffff1673ffffffffffffffffffffffffffffffffffffffff16633d9b2ae66040518163ffffffff1660e01b815260040160206040518083038186803b1580156105a657600080fd5b505afa1580156105ba573d6000803e3d6000fd5b505050506040513d601f19601f820116820180604052508101906105de9190610fe6565b73ffffffffffffffffffffffffffffffffffffffff1614610634576040517f08c379a000000000000000000000000000000000000000000000000000000000815260040161062b906113fc565b60405180910390fd5b6004600083815260200190815260200160002060009054906101000a900473ffffffffffffffffffffffffffffffffffffffff1673ffffffffffffffffffffffffffffffffffffffff1663f844929b6040518163ffffffff1660e01b8152600401600060405180830381600087803b1580156106af57600080fd5b505af11580156106c3573d6000803e3d6000fd5b5050505060006040518060400160405280601781526020017f64656c697374656420776173207375636365737366756c00000000000000000081525090507f64c90c338c0e14186075b056a952f8ee18f15649b7eb53306843dc922185824281604051610730919061137a565b60405180910390a180915050919050565b600060029054906101000a900473ffffffffffffffffffffffffffffffffffffffff1681565b6003818154811061077757600080fd5b906000526020600020016000915090505481565b60025481565b60046020528060005260406000206000915054906101000a900473ffffffffffffffffffffffffffffffffffffffff1681565b60056020528060005260406000206000915090505481565b60015481565b60606000805b60038054905081101561091257836004600060038481548110610834577f4e487b7100000000000000000000000000000000000000000000000000000000600052603260045260246000fd5b9060005260206000200154815260200190815260200160002060009054906101000a900473ffffffffffffffffffffffffffffffffffffffff1673ffffffffffffffffffffffffffffffffffffffff1663a035b1fe6040518163ffffffff1660e01b815260040160206040518083038186803b1580156108b357600080fd5b505afa1580156108c7573d6000803e3d6000fd5b505050506040513d601f19601f820116820180604052508101906108eb9190611038565b116108ff5781806108fb906118db565b9250505b808061090a906118db565b9150506107e8565b5060008167ffffffffffffffff811115610955577f4e487b7100000000000000000000000000000000000000000000000000000000600052604160045260246000fd5b6040519080825280602002602001820160405280156109835781602001602082028036833780820191505090505b50905060005b600380549050811015610bdf578460046000600384815481106109d5577f4e487b7100000000000000000000000000000000000000000000000000000000600052603260045260246000fd5b9060005260206000200154815260200190815260200160002060009054906101000a900473ffffffffffffffffffffffffffffffffffffffff1673ffffffffffffffffffffffffffffffffffffffff1663a035b1fe6040518163ffffffff1660e01b815260040160206040518083038186803b158015610a5457600080fd5b505afa158015610a68573d6000803e3d6000fd5b505050506040513d601f19601f82011682018060405250810190610a8c9190611038565b11610bcc576004600060038381548110610acf577f4e487b7100000000000000000000000000000000000000000000000000000000600052603260045260246000fd5b9060005260206000200154815260200190815260200160002060009054906101000a900473ffffffffffffffffffffffffffffffffffffffff1673ffffffffffffffffffffffffffffffffffffffff1663af640d0f6040518163ffffffff1660e01b815260040160206040518083038186803b158015610b4e57600080fd5b505afa158015610b62573d6000803e3d6000fd5b505050506040513d601f19601f82011682018060405250810190610b869190611038565b828281518110610bbf577f4e487b7100000000000000000000000000000000000000000000000000000000600052603260045260246000fd5b6020026020010181815250505b8080610bd7906118db565b915050610989565b508092505050919050565b6000610bf66001610dee565b90508015610c1a576001600060016101000a81548160ff0219169083151502179055505b81600060026101000a81548173ffffffffffffffffffffffffffffffffffffffff021916908373ffffffffffffffffffffffffffffffffffffffff160217905550600180819055508015610cbb5760008060016101000a81548160ff0219169083151502179055507f7f26b83ff96e1f2b6a682f133852f6798a09c465da95921460cefb38474024986001604051610cb2919061135f565b60405180910390a15b5050565b60008060059050600081600a610cd59190611695565b90506000868686604051602001610cee939291906112e9565b6040516020818303038152906040528051906020012060001c90508181610d159190611952565b93505050509392505050565b6000806001905060005b600380549050811015610d9c578360038281548110610d73577f4e487b7100000000000000000000000000000000000000000000000000000000600052603260045260246000fd5b90600052602060002001541415610d8957600091505b8080610d94906118db565b915050610d2b565b5080915050919050565b81600560008373ffffffffffffffffffffffffffffffffffffffff1673ffffffffffffffffffffffffffffffffffffffff168152602001908152602001600020819055505050565b60008060019054906101000a900460ff1615610e655760018260ff16148015610e1d5750610e1b30610ede565b155b610e5c576040517f08c379a0000000000000000000000000000000000000000000000000000000008152600401610e53906113dc565b60405180910390fd5b60009050610ed9565b8160ff1660008054906101000a900460ff1660ff1610610eba576040517f08c379a0000000000000000000000000000000000000000000000000000000008152600401610eb1906113dc565b60405180910390fd5b816000806101000a81548160ff021916908360ff160217905550600190505b919050565b6000808273ffffffffffffffffffffffffffffffffffffffff163b119050919050565b6000610f14610f0f8461155b565b611536565b905082815260208101848484011115610f2c57600080fd5b610f37848285611868565b509392505050565b600081359050610f4e81611b2e565b92915050565b600081519050610f6381611b2e565b92915050565b600082601f830112610f7a57600080fd5b8135610f8a848260208601610f01565b91505092915050565b600081359050610fa281611b45565b92915050565b600081519050610fb781611b45565b92915050565b600060208284031215610fcf57600080fd5b6000610fdd84828501610f3f565b91505092915050565b600060208284031215610ff857600080fd5b600061100684828501610f54565b91505092915050565b60006020828403121561102157600080fd5b600061102f84828501610f93565b91505092915050565b60006020828403121561104a57600080fd5b600061105884828501610fa8565b91505092915050565b600080600080600060a0868803121561107957600080fd5b600061108788828901610f93565b955050602061109888828901610f93565b94505060406110a988828901610f93565b93505060606110ba88828901610f3f565b925050608086013567ffffffffffffffff8111156110d757600080fd5b6110e388828901610f69565b9150509295509295909350565b60006110fc83836112b4565b60208301905092915050565b6111118161180d565b82525050565b6111286111238261180d565b611924565b82525050565b60006111398261159c565b61114381856115bf565b935061114e8361158c565b8060005b8381101561117f57815161116688826110f0565b9750611171836115b2565b925050600181019050611152565b5085935050505092915050565b61119581611856565b82525050565b60006111a6826115a7565b6111b081856115d0565b93506111c0818560208601611877565b6111c981611a10565b840191505092915050565b60006111df826115a7565b6111e981856115e1565b93506111f9818560208601611877565b80840191505092915050565b60006112126014836115d0565b915061121d82611a3b565b602082019050919050565b6000611235601f836115d0565b915061124082611a64565b602082019050919050565b6000611258602e836115d0565b915061126382611a8d565b604082019050919050565b600061127b6016836115d0565b915061128682611adc565b602082019050919050565b600061129e601b836115d0565b91506112a982611b05565b602082019050919050565b6112bd8161183f565b82525050565b6112cc8161183f565b82525050565b6112e36112de8261183f565b611948565b82525050565b60006112f58286611117565b60148201915061130582856112d2565b60208201915061131582846111d4565b9150819050949350505050565b60006020820190506113376000830184611108565b92915050565b60006020820190508181036000830152611357818461112e565b905092915050565b6000602082019050611374600083018461118c565b92915050565b60006020820190508181036000830152611394818461119b565b905092915050565b600060208201905081810360008301526113b581611205565b9050919050565b600060208201905081810360008301526113d581611228565b9050919050565b600060208201905081810360008301526113f58161124b565b9050919050565b600060208201905081810360008301526114158161126e565b9050919050565b6000602082019050818103600083015261143581611291565b9050919050565b600060208201905061145160008301846112c3565b92915050565b600060a08201905061146c60008301886112c3565b6114796020830187611108565b61148660408301866112c3565b61149360608301856112c3565b81810360808301526114a5818461119b565b90509695505050505050565b6000610100820190506114c7600083018b6112c3565b6114d4602083018a6112c3565b6114e160408301896112c3565b6114ee60608301886112c3565b6114fb60808301876112c3565b61150860a0830186611108565b61151560c0830185611108565b81810360e0830152611527818461119b565b90509998505050505050505050565b6000611540611551565b905061154c82826118aa565b919050565b6000604051905090565b600067ffffffffffffffff821115611576576115756119e1565b5b61157f82611a10565b9050602081019050919050565b6000819050602082019050919050565b600081519050919050565b600081519050919050565b6000602082019050919050565b600082825260208201905092915050565b600082825260208201905092915050565b600081905092915050565b60006115f78261183f565b91506116028361183f565b9250827fffffffffffffffffffffffffffffffffffffffffffffffffffffffffffffffff0382111561163757611636611983565b5b828201905092915050565b6000808291508390505b600185111561168c5780860481111561166857611667611983565b5b60018516156116775780820291505b808102905061168585611a2e565b945061164c565b94509492505050565b60006116a08261183f565b91506116ab8361183f565b92506116d87fffffffffffffffffffffffffffffffffffffffffffffffffffffffffffffffff84846116e0565b905092915050565b6000826116f057600190506117ac565b816116fe57600090506117ac565b8160018114611714576002811461171e5761174d565b60019150506117ac565b60ff8411156117305761172f611983565b5b8360020a91508482111561174757611746611983565b5b506117ac565b5060208310610133831016604e8410600b84101617156117825782820a90508381111561177d5761177c611983565b5b6117ac565b61178f8484846001611642565b925090508184048111156117a6576117a5611983565b5b81810290505b9392505050565b60006117be8261183f565b91506117c98361183f565b9250817fffffffffffffffffffffffffffffffffffffffffffffffffffffffffffffffff048311821515161561180257611801611983565b5b828202905092915050565b60006118188261181f565b9050919050565b600073ffffffffffffffffffffffffffffffffffffffff82169050919050565b6000819050919050565b600060ff82169050919050565b600061186182611849565b9050919050565b82818337600083830152505050565b60005b8381101561189557808201518184015260208101905061187a565b838111156118a4576000848401525b50505050565b6118b382611a10565b810181811067ffffffffffffffff821117156118d2576118d16119e1565b5b80604052505050565b60006118e68261183f565b91507fffffffffffffffffffffffffffffffffffffffffffffffffffffffffffffffff82141561191957611918611983565b5b600182019050919050565b600061192f82611936565b9050919050565b600061194182611a21565b9050919050565b6000819050919050565b600061195d8261183f565b91506119688361183f565b925082611978576119776119b2565b5b828206905092915050565b7f4e487b7100000000000000000000000000000000000000000000000000000000600052601160045260246000fd5b7f4e487b7100000000000000000000000000000000000000000000000000000000600052601260045260246000fd5b7f4e487b7100000000000000000000000000000000000000000000000000000000600052604160045260246000fd5b6000601f19601f8301169050919050565b60008160601b9050919050565b60008160011c9050919050565b7f76616c75652063616e6e6f74206265206e756c6c000000000000000000000000600082015250565b7f546865206f776e65722063616e6e6f74206164642061206e657720686f6d6500600082015250565b7f496e697469616c697a61626c653a20636f6e747261637420697320616c72656160008201527f647920696e697469616c697a6564000000000000000000000000000000000000602082015250565b7f596f7520646f206e6f7420686176652061636365737300000000000000000000600082015250565b7f7468697320686f757365496420616c7265616479206578697374730000000000600082015250565b611b378161180d565b8114611b4257600080fd5b50565b611b4e8161183f565b8114611b5957600080fd5b5056fea264697066735822122001caf423d7eab40a96d3faa70e887625a8e163883fffcb372df71a3ac8b2e8cd64736f6c63430008020033",
  "linkReferences": {},
  "deployedLinkReferences": {}
}