{
  "_format": "hh-sol-artifact-1",
  "contractName": "HouseRegistryExt",
  "sourceName": "contracts/HouseRegistryExt.sol",
  "abi": [
    {
      "anonymous": false,
      "inputs": [
        {
          "indexed": false,
          "internalType": "uint256",
          "name": "houseId",
          "type": "uint256"
        },
        {
          "indexed": false,
          "internalType": "address",
          "name": "_sellerAddress",
          "type": "address"
        },
        {
          "indexed": false,
          "internalType": "uint256",
          "name": "price",
          "type": "uint256"
        },
        {
          "indexed": false,
          "internalType": "uint256",
          "name": "priceDai",
          "type": "uint256"
        },
        {
          "indexed": false,
          "internalType": "string",
          "name": "houseAddress",
          "type": "string"
        }
      ],
      "name": "AddNewHouse",
      "type": "event"
    },
    {
      "anonymous": false,
      "inputs": [
        {
          "indexed": false,
          "internalType": "uint8",
          "name": "version",
          "type": "uint8"
        }
      ],
      "name": "Initialized",
      "type": "event"
    },
    {
      "anonymous": false,
      "inputs": [
        {
          "indexed": false,
          "internalType": "string",
          "name": "message",
          "type": "string"
        }
      ],
      "name": "IsDelistedHouse",
      "type": "event"
    },
    {
      "anonymous": false,
      "inputs": [
        {
          "indexed": false,
          "internalType": "string",
          "name": "message",
          "type": "string"
        },
        {
          "indexed": false,
          "internalType": "address",
          "name": "buyerAddress",
          "type": "address"
        }
      ],
      "name": "IsTransactionSucces",
      "type": "event"
    },
    {
      "inputs": [
        {
          "internalType": "uint256",
          "name": "_houseId",
          "type": "uint256"
        }
      ],
      "name": "buyHouseWithDai",
      "outputs": [],
      "stateMutability": "nonpayable",
      "type": "function"
    },
    {
      "inputs": [
        {
          "internalType": "uint256",
          "name": "_houseId",
          "type": "uint256"
        }
      ],
      "name": "buyHouseWithETH",
      "outputs": [],
      "stateMutability": "payable",
      "type": "function"
    },
    {
      "inputs": [
        {
          "internalType": "address",
          "name": "",
          "type": "address"
        }
      ],
      "name": "cooldown",
      "outputs": [
        {
          "internalType": "uint256",
          "name": "",
          "type": "uint256"
        }
      ],
      "stateMutability": "view",
      "type": "function"
    },
    {
      "inputs": [],
      "name": "cooldownTime",
      "outputs": [
        {
          "internalType": "uint256",
          "name": "",
          "type": "uint256"
        }
      ],
      "stateMutability": "view",
      "type": "function"
    },
    {
      "inputs": [],
      "name": "countOfHouses",
      "outputs": [
        {
          "internalType": "uint256",
          "name": "",
          "type": "uint256"
        }
      ],
      "stateMutability": "view",
      "type": "function"
    },
    {
      "inputs": [],
      "name": "daiAddress",
      "outputs": [
        {
          "internalType": "address",
          "name": "",
          "type": "address"
        }
      ],
      "stateMutability": "view",
      "type": "function"
    },
    {
      "inputs": [
        {
          "internalType": "uint256",
          "name": "houseId",
          "type": "uint256"
        }
      ],
      "name": "delistHouse",
      "outputs": [
        {
          "internalType": "string",
          "name": "",
          "type": "string"
        }
      ],
      "stateMutability": "nonpayable",
      "type": "function"
    },
    {
      "inputs": [
        {
          "internalType": "uint256",
          "name": "cost",
          "type": "uint256"
        }
      ],
      "name": "getCheapHouseIds",
      "outputs": [
        {
          "internalType": "uint256[]",
          "name": "",
          "type": "uint256[]"
        }
      ],
      "stateMutability": "view",
      "type": "function"
    },
    {
      "inputs": [],
      "name": "houseFactoryAddress",
      "outputs": [
        {
          "internalType": "address",
          "name": "",
          "type": "address"
        }
      ],
      "stateMutability": "view",
      "type": "function"
    },
    {
      "inputs": [
        {
          "internalType": "uint256",
          "name": "",
          "type": "uint256"
        }
      ],
      "name": "houseIndex",
      "outputs": [
        {
          "internalType": "uint256",
          "name": "",
          "type": "uint256"
        }
      ],
      "stateMutability": "view",
      "type": "function"
    },
    {
      "inputs": [
        {
          "internalType": "uint256",
          "name": "",
          "type": "uint256"
        }
      ],
      "name": "houses",
      "outputs": [
        {
          "internalType": "address",
          "name": "",
          "type": "address"
        }
      ],
      "stateMutability": "view",
      "type": "function"
    },
    {
      "inputs": [
        {
          "internalType": "address",
          "name": "_daiAddress",
          "type": "address"
        },
        {
          "internalType": "address",
          "name": "_factoryAddress",
          "type": "address"
        }
      ],
      "name": "init",
      "outputs": [],
      "stateMutability": "nonpayable",
      "type": "function"
    },
    {
      "inputs": [
        {
          "internalType": "address",
          "name": "_houseFactoryAddress",
          "type": "address"
        }
      ],
      "name": "initialize",
      "outputs": [],
      "stateMutability": "nonpayable",
      "type": "function"
    },
    {
      "inputs": [
        {
          "internalType": "uint256",
          "name": "_price",
          "type": "uint256"
        },
        {
          "internalType": "uint256",
          "name": "_priceDai",
          "type": "uint256"
        },
        {
          "internalType": "uint256",
          "name": "_area",
          "type": "uint256"
        },
        {
          "internalType": "address",
          "name": "_sellerAddress",
          "type": "address"
        },
        {
          "internalType": "string",
          "name": "_houseAddress",
          "type": "string"
        }
      ],
      "name": "listHouse",
      "outputs": [
        {
          "internalType": "uint256",
          "name": "",
          "type": "uint256"
        }
      ],
      "stateMutability": "nonpayable",
      "type": "function"
    },
    {
      "inputs": [
        {
          "internalType": "uint256",
          "name": "_price",
          "type": "uint256"
        },
        {
          "internalType": "uint256",
          "name": "_priceDai",
          "type": "uint256"
        },
        {
          "internalType": "uint256",
          "name": "_area",
          "type": "uint256"
        },
        {
          "internalType": "string",
          "name": "_houseAddress",
          "type": "string"
        }
      ],
      "name": "listHouseSimple",
      "outputs": [],
      "stateMutability": "nonpayable",
      "type": "function"
    }
  ],
  "bytecode": "0x608060405234801561001057600080fd5b50612a94806100206000396000f3fe6080604052600436106100e85760003560e01c8063a4d4692e1161008a578063c45e1b2511610059578063c45e1b251461030f578063c4d66de81461034c578063f09a401614610375578063fdec9c9f1461039e576100e8565b8063a4d4692e1461023f578063aeda852f1461026a578063b222e0c2146102a7578063b319c6b7146102e4576100e8565b80633c3b0b4a116100c65780633c3b0b4a1461017e5780634d79658b146101bb5780636e934095146101d75780637f8d071314610202576100e8565b806306e361bd146100ed57806319161161146101165780632c38727514610153575b600080fd5b3480156100f957600080fd5b50610114600480360381019061010f9190611d22565b6103c7565b005b34801561012257600080fd5b5061013d60048036038101906101389190611d74565b610761565b60405161014a9190612295565b60405180910390f35b34801561015f57600080fd5b50610168610a3c565b60405161017591906120f6565b60405180910390f35b34801561018a57600080fd5b506101a560048036038101906101a09190611d22565b610a62565b6040516101b29190612185565b60405180910390f35b6101d560048036038101906101d09190611d22565b610c8f565b005b3480156101e357600080fd5b506101ec61126c565b6040516101f991906120f6565b60405180910390f35b34801561020e57600080fd5b5061022960048036038101906102249190611d22565b611292565b6040516102369190612295565b60405180910390f35b34801561024b57600080fd5b506102546112b6565b6040516102619190612295565b60405180910390f35b34801561027657600080fd5b50610291600480360381019061028c9190611d22565b6112bc565b60405161029e91906120f6565b60405180910390f35b3480156102b357600080fd5b506102ce60048036038101906102c99190611c6b565b6112ef565b6040516102db9190612295565b60405180910390f35b3480156102f057600080fd5b506102f9611307565b6040516103069190612295565b60405180910390f35b34801561031b57600080fd5b5061033660048036038101906103319190611d22565b61130d565b6040516103439190612148565b60405180910390f35b34801561035857600080fd5b50610373600480360381019061036e9190611c6b565b611715565b005b34801561038157600080fd5b5061039c60048036038101906103979190611cbd565b6117ea565b005b3480156103aa57600080fd5b506103c560048036038101906103c09190611e03565b6118c2565b005b600660009054906101000a900473ffffffffffffffffffffffffffffffffffffffff1673ffffffffffffffffffffffffffffffffffffffff166323b872dd336004600085815260200190815260200160002060009054906101000a900473ffffffffffffffffffffffffffffffffffffffff1673ffffffffffffffffffffffffffffffffffffffff16633d9b2ae66040518163ffffffff1660e01b815260040160206040518083038186803b15801561047f57600080fd5b505afa158015610493573d6000803e3d6000fd5b505050506040513d601f19601f820116820180604052508101906104b79190611c94565b6004600086815260200190815260200160002060009054906101000a900473ffffffffffffffffffffffffffffffffffffffff1673ffffffffffffffffffffffffffffffffffffffff1663a035b1fe6040518163ffffffff1660e01b815260040160206040518083038186803b15801561053057600080fd5b505afa158015610544573d6000803e3d6000fd5b505050506040513d601f19601f820116820180604052508101906105689190611d4b565b6040518463ffffffff1660e01b815260040161058693929190612111565b602060405180830381600087803b1580156105a057600080fd5b505af11580156105b4573d6000803e3d6000fd5b505050506040513d601f19601f820116820180604052508101906105d89190611cf9565b506004600082815260200190815260200160002060009054906101000a900473ffffffffffffffffffffffffffffffffffffffff1673ffffffffffffffffffffffffffffffffffffffff166309825661336040518263ffffffff1660e01b815260040161064591906120f6565b600060405180830381600087803b15801561065f57600080fd5b505af1158015610673573d6000803e3d6000fd5b505050507f66ac29cfa5101011ae1f78922cfb58d05d09444a26a20d02f3d1668c5d9758786004600083815260200190815260200160002060009054906101000a900473ffffffffffffffffffffffffffffffffffffffff1673ffffffffffffffffffffffffffffffffffffffff166344834aca6040518163ffffffff1660e01b815260040160206040518083038186803b15801561071157600080fd5b505afa158015610725573d6000803e3d6000fd5b505050506040513d601f19601f820116820180604052508101906107499190611c94565b60405161075691906121a7565b60405180910390a150565b600042600560003373ffffffffffffffffffffffffffffffffffffffff1673ffffffffffffffffffffffffffffffffffffffff1681526020019081526020016000205411156107e5576040517f08c379a00000000000000000000000000000000000000000000000000000000081526004016107dc906121f5565b60405180910390fd5b600084876107f3919061260c565b11610833576040517f08c379a000000000000000000000000000000000000000000000000000000000815260040161082a906121d5565b60405180910390fd5b6000610840848685611958565b905061084b816119ba565b61088a576040517f08c379a000000000000000000000000000000000000000000000000000000000815260040161088190612275565b60405180910390fd5b600060029054906101000a900473ffffffffffffffffffffffffffffffffffffffff1673ffffffffffffffffffffffffffffffffffffffff1663615687c7826002548a8a8a8a8b8b6040518963ffffffff1660e01b81526004016108f598979695949392919061230a565b602060405180830381600087803b15801561090f57600080fd5b505af1158015610923573d6000803e3d6000fd5b505050506040513d601f19601f820116820180604052508101906109479190611c94565b6004600083815260200190815260200160002060006101000a81548173ffffffffffffffffffffffffffffffffffffffff021916908373ffffffffffffffffffffffffffffffffffffffff1602179055506109af600154426109a99190612445565b33611a3f565b6003819080600181540180825580915050600190039060005260206000200160009091909190915055600260008154809291906109eb90612774565b91905055507f3070c472a527c6fdf9d1d29d3f8de3f74a2de6ef97db5cc15b587188b278951f8185898987604051610a279594939291906122b0565b60405180910390a18091505095945050505050565b600660009054906101000a900473ffffffffffffffffffffffffffffffffffffffff1681565b60603373ffffffffffffffffffffffffffffffffffffffff166004600084815260200190815260200160002060009054906101000a900473ffffffffffffffffffffffffffffffffffffffff1673ffffffffffffffffffffffffffffffffffffffff16633d9b2ae66040518163ffffffff1660e01b815260040160206040518083038186803b158015610af457600080fd5b505afa158015610b08573d6000803e3d6000fd5b505050506040513d601f19601f82011682018060405250810190610b2c9190611c94565b73ffffffffffffffffffffffffffffffffffffffff1614610b82576040517f08c379a0000000000000000000000000000000000000000000000000000000008152600401610b7990612255565b60405180910390fd5b6004600083815260200190815260200160002060009054906101000a900473ffffffffffffffffffffffffffffffffffffffff1673ffffffffffffffffffffffffffffffffffffffff1663f844929b6040518163ffffffff1660e01b8152600401600060405180830381600087803b158015610bfd57600080fd5b505af1158015610c11573d6000803e3d6000fd5b5050505060006040518060400160405280601781526020017f64656c697374656420776173207375636365737366756c00000000000000000081525090507f64c90c338c0e14186075b056a952f8ee18f15649b7eb53306843dc922185824281604051610c7e9190612185565b60405180910390a180915050919050565b6004600082815260200190815260200160002060009054906101000a900473ffffffffffffffffffffffffffffffffffffffff1673ffffffffffffffffffffffffffffffffffffffff1663a035b1fe6040518163ffffffff1660e01b815260040160206040518083038186803b158015610d0857600080fd5b505afa158015610d1c573d6000803e3d6000fd5b505050506040513d601f19601f82011682018060405250810190610d409190611d4b565b341015610d82576040517f08c379a0000000000000000000000000000000000000000000000000000000008152600401610d7990612215565b60405180910390fd5b6004600082815260200190815260200160002060009054906101000a900473ffffffffffffffffffffffffffffffffffffffff1673ffffffffffffffffffffffffffffffffffffffff1663a035b1fe6040518163ffffffff1660e01b815260040160206040518083038186803b158015610dfb57600080fd5b505afa158015610e0f573d6000803e3d6000fd5b505050506040513d601f19601f82011682018060405250810190610e339190611d4b565b341115610f3d573373ffffffffffffffffffffffffffffffffffffffff166108fc6004600084815260200190815260200160002060009054906101000a900473ffffffffffffffffffffffffffffffffffffffff1673ffffffffffffffffffffffffffffffffffffffff1663a035b1fe6040518163ffffffff1660e01b815260040160206040518083038186803b158015610ecd57600080fd5b505afa158015610ee1573d6000803e3d6000fd5b505050506040513d601f19601f82011682018060405250810190610f059190611d4b565b34610f109190612666565b9081150290604051600060405180830381858888f19350505050158015610f3b573d6000803e3d6000fd5b505b6004600082815260200190815260200160002060009054906101000a900473ffffffffffffffffffffffffffffffffffffffff1673ffffffffffffffffffffffffffffffffffffffff166309825661336040518263ffffffff1660e01b8152600401610fa991906120f6565b600060405180830381600087803b158015610fc357600080fd5b505af1158015610fd7573d6000803e3d6000fd5b505050506004600082815260200190815260200160002060009054906101000a900473ffffffffffffffffffffffffffffffffffffffff1673ffffffffffffffffffffffffffffffffffffffff16633d9b2ae66040518163ffffffff1660e01b815260040160206040518083038186803b15801561105457600080fd5b505afa158015611068573d6000803e3d6000fd5b505050506040513d601f19601f8201168201806040525081019061108c9190611c94565b73ffffffffffffffffffffffffffffffffffffffff166108fc6004600084815260200190815260200160002060009054906101000a900473ffffffffffffffffffffffffffffffffffffffff1673ffffffffffffffffffffffffffffffffffffffff1663a035b1fe6040518163ffffffff1660e01b815260040160206040518083038186803b15801561111e57600080fd5b505afa158015611132573d6000803e3d6000fd5b505050506040513d601f19601f820116820180604052508101906111569190611d4b565b9081150290604051600060405180830381858888f19350505050158015611181573d6000803e3d6000fd5b507f66ac29cfa5101011ae1f78922cfb58d05d09444a26a20d02f3d1668c5d9758786004600083815260200190815260200160002060009054906101000a900473ffffffffffffffffffffffffffffffffffffffff1673ffffffffffffffffffffffffffffffffffffffff166344834aca6040518163ffffffff1660e01b815260040160206040518083038186803b15801561121c57600080fd5b505afa158015611230573d6000803e3d6000fd5b505050506040513d601f19601f820116820180604052508101906112549190611c94565b60405161126191906121a7565b60405180910390a150565b600060029054906101000a900473ffffffffffffffffffffffffffffffffffffffff1681565b600381815481106112a257600080fd5b906000526020600020016000915090505481565b60025481565b60046020528060005260406000206000915054906101000a900473ffffffffffffffffffffffffffffffffffffffff1681565b60056020528060005260406000206000915090505481565b60015481565b60606000805b60038054905081101561143d5783600460006003848154811061135f577f4e487b7100000000000000000000000000000000000000000000000000000000600052603260045260246000fd5b9060005260206000200154815260200190815260200160002060009054906101000a900473ffffffffffffffffffffffffffffffffffffffff1673ffffffffffffffffffffffffffffffffffffffff1663a035b1fe6040518163ffffffff1660e01b815260040160206040518083038186803b1580156113de57600080fd5b505afa1580156113f2573d6000803e3d6000fd5b505050506040513d601f19601f820116820180604052508101906114169190611d4b565b1161142a57818061142690612774565b9250505b808061143590612774565b915050611313565b5060008167ffffffffffffffff811115611480577f4e487b7100000000000000000000000000000000000000000000000000000000600052604160045260246000fd5b6040519080825280602002602001820160405280156114ae5781602001602082028036833780820191505090505b50905060005b60038054905081101561170a57846004600060038481548110611500577f4e487b7100000000000000000000000000000000000000000000000000000000600052603260045260246000fd5b9060005260206000200154815260200190815260200160002060009054906101000a900473ffffffffffffffffffffffffffffffffffffffff1673ffffffffffffffffffffffffffffffffffffffff1663a035b1fe6040518163ffffffff1660e01b815260040160206040518083038186803b15801561157f57600080fd5b505afa158015611593573d6000803e3d6000fd5b505050506040513d601f19601f820116820180604052508101906115b79190611d4b565b116116f75760046000600383815481106115fa577f4e487b7100000000000000000000000000000000000000000000000000000000600052603260045260246000fd5b9060005260206000200154815260200190815260200160002060009054906101000a900473ffffffffffffffffffffffffffffffffffffffff1673ffffffffffffffffffffffffffffffffffffffff1663af640d0f6040518163ffffffff1660e01b815260040160206040518083038186803b15801561167957600080fd5b505afa15801561168d573d6000803e3d6000fd5b505050506040513d601f19601f820116820180604052508101906116b19190611d4b565b8282815181106116ea577f4e487b7100000000000000000000000000000000000000000000000000000000600052603260045260246000fd5b6020026020010181815250505b808061170290612774565b9150506114b4565b508092505050919050565b60006117216001611a87565b90508015611745576001600060016101000a81548160ff0219169083151502179055505b81600060026101000a81548173ffffffffffffffffffffffffffffffffffffffff021916908373ffffffffffffffffffffffffffffffffffffffff1602179055506001808190555080156117e65760008060016101000a81548160ff0219169083151502179055507f7f26b83ff96e1f2b6a682f133852f6798a09c465da95921460cefb384740249860016040516117dd919061216a565b60405180910390a15b5050565b60006117f66001611a87565b9050801561181a576001600060016101000a81548160ff0219169083151502179055505b82600660006101000a81548173ffffffffffffffffffffffffffffffffffffffff021916908373ffffffffffffffffffffffffffffffffffffffff16021790555061186482611715565b80156118bd5760008060016101000a81548160ff0219169083151502179055507f7f26b83ff96e1f2b6a682f133852f6798a09c465da95921460cefb384740249860016040516118b4919061216a565b60405180910390a15b505050565b42600560003373ffffffffffffffffffffffffffffffffffffffff1673ffffffffffffffffffffffffffffffffffffffff168152602001908152602001600020541115611944576040517f08c379a000000000000000000000000000000000000000000000000000000000815260040161193b906121f5565b60405180910390fd5b6119518484843385610761565b5050505050565b60008060059050600081600a61196e91906124ee565b90506000868686604051602001611987939291906120bd565b6040516020818303038152906040528051906020012060001c905081816119ae91906127eb565b93505050509392505050565b6000806001905060005b600380549050811015611a35578360038281548110611a0c577f4e487b7100000000000000000000000000000000000000000000000000000000600052603260045260246000fd5b90600052602060002001541415611a2257600091505b8080611a2d90612774565b9150506119c4565b5080915050919050565b81600560008373ffffffffffffffffffffffffffffffffffffffff1673ffffffffffffffffffffffffffffffffffffffff168152602001908152602001600020819055505050565b60008060019054906101000a900460ff1615611afe5760018260ff16148015611ab65750611ab430611b77565b155b611af5576040517f08c379a0000000000000000000000000000000000000000000000000000000008152600401611aec90612235565b60405180910390fd5b60009050611b72565b8160ff1660008054906101000a900460ff1660ff1610611b53576040517f08c379a0000000000000000000000000000000000000000000000000000000008152600401611b4a90612235565b60405180910390fd5b816000806101000a81548160ff021916908360ff160217905550600190505b919050565b6000808273ffffffffffffffffffffffffffffffffffffffff163b119050919050565b6000611bad611ba8846123b4565b61238f565b905082815260208101848484011115611bc557600080fd5b611bd0848285612701565b509392505050565b600081359050611be781612a19565b92915050565b600081519050611bfc81612a19565b92915050565b600081519050611c1181612a30565b92915050565b600082601f830112611c2857600080fd5b8135611c38848260208601611b9a565b91505092915050565b600081359050611c5081612a47565b92915050565b600081519050611c6581612a47565b92915050565b600060208284031215611c7d57600080fd5b6000611c8b84828501611bd8565b91505092915050565b600060208284031215611ca657600080fd5b6000611cb484828501611bed565b91505092915050565b60008060408385031215611cd057600080fd5b6000611cde85828601611bd8565b9250506020611cef85828601611bd8565b9150509250929050565b600060208284031215611d0b57600080fd5b6000611d1984828501611c02565b91505092915050565b600060208284031215611d3457600080fd5b6000611d4284828501611c41565b91505092915050565b600060208284031215611d5d57600080fd5b6000611d6b84828501611c56565b91505092915050565b600080600080600060a08688031215611d8c57600080fd5b6000611d9a88828901611c41565b9550506020611dab88828901611c41565b9450506040611dbc88828901611c41565b9350506060611dcd88828901611bd8565b925050608086013567ffffffffffffffff811115611dea57600080fd5b611df688828901611c17565b9150509295509295909350565b60008060008060808587031215611e1957600080fd5b6000611e2787828801611c41565b9450506020611e3887828801611c41565b9350506040611e4987828801611c41565b925050606085013567ffffffffffffffff811115611e6657600080fd5b611e7287828801611c17565b91505092959194509250565b6000611e8a8383612088565b60208301905092915050565b611e9f8161269a565b82525050565b611eb6611eb18261269a565b6127bd565b82525050565b6000611ec7826123f5565b611ed18185612418565b9350611edc836123e5565b8060005b83811015611f0d578151611ef48882611e7e565b9750611eff8361240b565b925050600181019050611ee0565b5085935050505092915050565b611f23816126ef565b82525050565b6000611f3482612400565b611f3e8185612429565b9350611f4e818560208601612710565b611f57816128a9565b840191505092915050565b6000611f6d82612400565b611f77818561243a565b9350611f87818560208601612710565b80840191505092915050565b6000611fa0601683612429565b9150611fab826128d4565b602082019050919050565b6000611fc3601483612429565b9150611fce826128fd565b602082019050919050565b6000611fe6601f83612429565b9150611ff182612926565b602082019050919050565b6000612009601483612429565b91506120148261294f565b602082019050919050565b600061202c602e83612429565b915061203782612978565b604082019050919050565b600061204f601683612429565b915061205a826129c7565b602082019050919050565b6000612072601b83612429565b915061207d826129f0565b602082019050919050565b612091816126d8565b82525050565b6120a0816126d8565b82525050565b6120b76120b2826126d8565b6127e1565b82525050565b60006120c98286611ea5565b6014820191506120d982856120a6565b6020820191506120e98284611f62565b9150819050949350505050565b600060208201905061210b6000830184611e96565b92915050565b60006060820190506121266000830186611e96565b6121336020830185611e96565b6121406040830184612097565b949350505050565b600060208201905081810360008301526121628184611ebc565b905092915050565b600060208201905061217f6000830184611f1a565b92915050565b6000602082019050818103600083015261219f8184611f29565b905092915050565b600060408201905081810360008301526121c081611f93565b90506121cf6020830184611e96565b92915050565b600060208201905081810360008301526121ee81611fb6565b9050919050565b6000602082019050818103600083015261220e81611fd9565b9050919050565b6000602082019050818103600083015261222e81611ffc565b9050919050565b6000602082019050818103600083015261224e8161201f565b9050919050565b6000602082019050818103600083015261226e81612042565b9050919050565b6000602082019050818103600083015261228e81612065565b9050919050565b60006020820190506122aa6000830184612097565b92915050565b600060a0820190506122c56000830188612097565b6122d26020830187611e96565b6122df6040830186612097565b6122ec6060830185612097565b81810360808301526122fe8184611f29565b90509695505050505050565b600061010082019050612320600083018b612097565b61232d602083018a612097565b61233a6040830189612097565b6123476060830188612097565b6123546080830187612097565b61236160a0830186611e96565b61236e60c0830185611e96565b81810360e08301526123808184611f29565b90509998505050505050505050565b60006123996123aa565b90506123a58282612743565b919050565b6000604051905090565b600067ffffffffffffffff8211156123cf576123ce61287a565b5b6123d8826128a9565b9050602081019050919050565b6000819050602082019050919050565b600081519050919050565b600081519050919050565b6000602082019050919050565b600082825260208201905092915050565b600082825260208201905092915050565b600081905092915050565b6000612450826126d8565b915061245b836126d8565b9250827fffffffffffffffffffffffffffffffffffffffffffffffffffffffffffffffff038211156124905761248f61281c565b5b828201905092915050565b6000808291508390505b60018511156124e5578086048111156124c1576124c061281c565b5b60018516156124d05780820291505b80810290506124de856128c7565b94506124a5565b94509492505050565b60006124f9826126d8565b9150612504836126d8565b92506125317fffffffffffffffffffffffffffffffffffffffffffffffffffffffffffffffff8484612539565b905092915050565b6000826125495760019050612605565b816125575760009050612605565b816001811461256d5760028114612577576125a6565b6001915050612605565b60ff8411156125895761258861281c565b5b8360020a9150848211156125a05761259f61281c565b5b50612605565b5060208310610133831016604e8410600b84101617156125db5782820a9050838111156125d6576125d561281c565b5b612605565b6125e8848484600161249b565b925090508184048111156125ff576125fe61281c565b5b81810290505b9392505050565b6000612617826126d8565b9150612622836126d8565b9250817fffffffffffffffffffffffffffffffffffffffffffffffffffffffffffffffff048311821515161561265b5761265a61281c565b5b828202905092915050565b6000612671826126d8565b915061267c836126d8565b92508282101561268f5761268e61281c565b5b828203905092915050565b60006126a5826126b8565b9050919050565b60008115159050919050565b600073ffffffffffffffffffffffffffffffffffffffff82169050919050565b6000819050919050565b600060ff82169050919050565b60006126fa826126e2565b9050919050565b82818337600083830152505050565b60005b8381101561272e578082015181840152602081019050612713565b8381111561273d576000848401525b50505050565b61274c826128a9565b810181811067ffffffffffffffff8211171561276b5761276a61287a565b5b80604052505050565b600061277f826126d8565b91507fffffffffffffffffffffffffffffffffffffffffffffffffffffffffffffffff8214156127b2576127b161281c565b5b600182019050919050565b60006127c8826127cf565b9050919050565b60006127da826128ba565b9050919050565b6000819050919050565b60006127f6826126d8565b9150612801836126d8565b9250826128115761281061284b565b5b828206905092915050565b7f4e487b7100000000000000000000000000000000000000000000000000000000600052601160045260246000fd5b7f4e487b7100000000000000000000000000000000000000000000000000000000600052601260045260246000fd5b7f4e487b7100000000000000000000000000000000000000000000000000000000600052604160045260246000fd5b6000601f19601f8301169050919050565b60008160601b9050919050565b60008160011c9050919050565b7f5472616e73616374696f6e732073756363657366756c00000000000000000000600082015250565b7f76616c75652063616e6e6f74206265206e756c6c000000000000000000000000600082015250565b7f546865206f776e65722063616e6e6f74206164642061206e657720686f6d6500600082015250565b7f76616c7565206c657373207468616e20636f7374000000000000000000000000600082015250565b7f496e697469616c697a61626c653a20636f6e747261637420697320616c72656160008201527f647920696e697469616c697a6564000000000000000000000000000000000000602082015250565b7f596f7520646f206e6f7420686176652061636365737300000000000000000000600082015250565b7f7468697320686f757365496420616c7265616479206578697374730000000000600082015250565b612a228161269a565b8114612a2d57600080fd5b50565b612a39816126ac565b8114612a4457600080fd5b50565b612a50816126d8565b8114612a5b57600080fd5b5056fea26469706673582212209acc04718805f12532554286868018a91caa6c45024ffdbe25e4a0f6a3475acd64736f6c63430008020033",
  "linkReferences": {},
  "deployedLinkReferences": {}
}