{
  "_format": "hh-sol-artifact-1",
  "contractName": "HouseFactory",
  "sourceName": "contracts/HouseFactory.sol",
  "abi": [
    {
      "inputs": [
        {
          "internalType": "uint256",
          "name": "id_",
          "type": "uint256"
        },
        {
          "internalType": "uint256",
          "name": "serialNumber_",
          "type": "uint256"
        },
        {
          "internalType": "uint256",
          "name": "price_",
          "type": "uint256"
        },
        {
          "internalType": "uint256",
          "name": "priceDai_",
          "type": "uint256"
        },
        {
          "internalType": "uint256",
          "name": "area_",
          "type": "uint256"
        },
        {
          "internalType": "address",
          "name": "sellerAddress_",
          "type": "address"
        },
        {
          "internalType": "address",
          "name": "buyerAddress_",
          "type": "address"
        },
        {
          "internalType": "string",
          "name": "houseAddress_",
          "type": "string"
        }
      ],
      "name": "createHouse",
      "outputs": [
        {
          "internalType": "address",
          "name": "",
          "type": "address"
        }
      ],
      "stateMutability": "nonpayable",
      "type": "function"
    },
    {
      "inputs": [],
      "name": "houseTokenAddress",
      "outputs": [
        {
          "internalType": "address",
          "name": "",
          "type": "address"
        }
      ],
      "stateMutability": "view",
      "type": "function"
    },
    {
      "inputs": [
        {
          "internalType": "address",
          "name": "",
          "type": "address"
        }
      ],
      "name": "houseTokens",
      "outputs": [
        {
          "internalType": "contract HouseToken",
          "name": "",
          "type": "address"
        }
      ],
      "stateMutability": "view",
      "type": "function"
    }
  ],
  "bytecode": "0x608060405234801561001057600080fd5b506134bd806100206000396000f3fe60806040523480156200001157600080fd5b5060043610620000465760003560e01c8063615687c7146200004b5780636d8f947514620000815780638c7aed8614620000b7575b600080fd5b6200006960048036038101906200006391906200034b565b620000d9565b604051620000789190620004ac565b60405180910390f35b6200009f60048036038101906200009991906200031f565b62000218565b604051620000ae9190620004c9565b60405180910390f35b620000c16200024b565b604051620000d09190620004ac565b60405180910390f35b60008089898989898989896000604051620000f49062000271565b6200010899989796959493929190620004e6565b604051809103906000f08015801562000125573d6000803e3d6000fd5b509050806000808373ffffffffffffffffffffffffffffffffffffffff1673ffffffffffffffffffffffffffffffffffffffff16815260200190815260200160002060006101000a81548173ffffffffffffffffffffffffffffffffffffffff021916908373ffffffffffffffffffffffffffffffffffffffff16021790555080600160006101000a81548173ffffffffffffffffffffffffffffffffffffffff021916908373ffffffffffffffffffffffffffffffffffffffff160217905550600160009054906101000a900473ffffffffffffffffffffffffffffffffffffffff1691505098975050505050505050565b60006020528060005260406000206000915054906101000a900473ffffffffffffffffffffffffffffffffffffffff1681565b600160009054906101000a900473ffffffffffffffffffffffffffffffffffffffff1681565b612d1f806200076983390190565b6000620002966200029084620005b5565b6200058c565b905082815260208101848484011115620002af57600080fd5b620002bc84828562000679565b509392505050565b600081359050620002d58162000734565b92915050565b600082601f830112620002ed57600080fd5b8135620002ff8482602086016200027f565b91505092915050565b60008135905062000319816200074e565b92915050565b6000602082840312156200033257600080fd5b60006200034284828501620002c4565b91505092915050565b600080600080600080600080610100898b0312156200036957600080fd5b6000620003798b828c0162000308565b98505060206200038c8b828c0162000308565b97505060406200039f8b828c0162000308565b9650506060620003b28b828c0162000308565b9550506080620003c58b828c0162000308565b94505060a0620003d88b828c01620002c4565b93505060c0620003eb8b828c01620002c4565b92505060e089013567ffffffffffffffff8111156200040957600080fd5b620004178b828c01620002db565b9150509295985092959890939650565b620004328162000607565b82525050565b62000443816200061b565b82525050565b620004548162000651565b82525050565b60006200046782620005eb565b620004738185620005f6565b93506200048581856020860162000688565b620004908162000723565b840191505092915050565b620004a68162000647565b82525050565b6000602082019050620004c3600083018462000427565b92915050565b6000602082019050620004e0600083018462000449565b92915050565b600061012082019050620004fe600083018c6200049b565b6200050d602083018b6200049b565b6200051c604083018a6200049b565b6200052b60608301896200049b565b6200053a60808301886200049b565b6200054960a083018762000427565b6200055860c083018662000427565b81810360e08301526200056c81856200045a565b90506200057e61010083018462000438565b9a9950505050505050505050565b600062000598620005ab565b9050620005a68282620006be565b919050565b6000604051905090565b600067ffffffffffffffff821115620005d357620005d2620006f4565b5b620005de8262000723565b9050602081019050919050565b600081519050919050565b600082825260208201905092915050565b6000620006148262000627565b9050919050565b60008115159050919050565b600073ffffffffffffffffffffffffffffffffffffffff82169050919050565b6000819050919050565b60006200065e8262000665565b9050919050565b6000620006728262000627565b9050919050565b82818337600083830152505050565b60005b83811015620006a85780820151818401526020810190506200068b565b83811115620006b8576000848401525b50505050565b620006c98262000723565b810181811067ffffffffffffffff82111715620006eb57620006ea620006f4565b5b80604052505050565b7f4e487b7100000000000000000000000000000000000000000000000000000000600052604160045260246000fd5b6000601f19601f8301169050919050565b6200073f8162000607565b81146200074b57600080fd5b50565b620007598162000647565b81146200076557600080fd5b5056fe60806040523480156200001157600080fd5b5060405162002d1f38038062002d1f833981810160405281019062000037919062000325565b6040518060400160405280600a81526020017f486f757365546f6b656e000000000000000000000000000000000000000000008152506040518060400160405280600281526020017f48540000000000000000000000000000000000000000000000000000000000008152508160009080519060200190620000bb929190620001be565b508060019080519060200190620000d4929190620001be565b5050508860068190555087600781905550866008819055508560098190555084600a8190555083600b60006101000a81548173ffffffffffffffffffffffffffffffffffffffff021916908373ffffffffffffffffffffffffffffffffffffffff16021790555082600c60006101000a81548173ffffffffffffffffffffffffffffffffffffffff021916908373ffffffffffffffffffffffffffffffffffffffff16021790555081600d908051906020019062000194929190620001be565b5080600e60006101000a81548160ff0219169083151502179055505050505050505050506200061f565b828054620001cc90620004f6565b90600052602060002090601f016020900481019282620001f057600085556200023c565b82601f106200020b57805160ff19168380011785556200023c565b828001600101855582156200023c579182015b828111156200023b5782518255916020019190600101906200021e565b5b5090506200024b91906200024f565b5090565b5b808211156200026a57600081600090555060010162000250565b5090565b6000620002856200027f8462000440565b62000417565b9050828152602081018484840111156200029e57600080fd5b620002ab848285620004c0565b509392505050565b600081519050620002c481620005d1565b92915050565b600081519050620002db81620005eb565b92915050565b600082601f830112620002f357600080fd5b8151620003058482602086016200026e565b91505092915050565b6000815190506200031f8162000605565b92915050565b60008060008060008060008060006101208a8c0312156200034557600080fd5b6000620003558c828d016200030e565b9950506020620003688c828d016200030e565b98505060406200037b8c828d016200030e565b97505060606200038e8c828d016200030e565b9650506080620003a18c828d016200030e565b95505060a0620003b48c828d01620002b3565b94505060c0620003c78c828d01620002b3565b93505060e08a015167ffffffffffffffff811115620003e557600080fd5b620003f38c828d01620002e1565b925050610100620004078c828d01620002ca565b9150509295985092959850929598565b60006200042362000436565b90506200043182826200052c565b919050565b6000604051905090565b600067ffffffffffffffff8211156200045e576200045d62000591565b5b6200046982620005c0565b9050602081019050919050565b6000620004838262000496565b9050919050565b60008115159050919050565b600073ffffffffffffffffffffffffffffffffffffffff82169050919050565b6000819050919050565b60005b83811015620004e0578082015181840152602081019050620004c3565b83811115620004f0576000848401525b50505050565b600060028204905060018216806200050f57607f821691505b6020821081141562000526576200052562000562565b5b50919050565b6200053782620005c0565b810181811067ffffffffffffffff8211171562000559576200055862000591565b5b80604052505050565b7f4e487b7100000000000000000000000000000000000000000000000000000000600052602260045260246000fd5b7f4e487b7100000000000000000000000000000000000000000000000000000000600052604160045260246000fd5b6000601f19601f8301169050919050565b620005dc8162000476565b8114620005e857600080fd5b50565b620005f6816200048a565b81146200060257600080fd5b50565b6200061081620004b6565b81146200061c57600080fd5b50565b6126f0806200062f6000396000f3fe608060405234801561001057600080fd5b50600436106101585760003560e01c806370a08231116100c3578063b88d4fde1161007c578063b88d4fde146103b7578063c87b56dd146103d3578063d7cee31e14610403578063e985e9c514610421578063f844929b14610451578063f92842d31461045b57610158565b806370a08231146102f35780639311b8071461032357806395d89b4114610341578063a035b1fe1461035f578063a22cb4651461037d578063af640d0f1461039957610158565b80632a0daeea116101155780632a0daeea1461022f5780633d9b2ae61461024d57806342842e0e1461026b57806344834aca146102875780634d41892f146102a55780636352211e146102c357610158565b806301ffc9a71461015d57806306fdde031461018d578063081812fc146101ab578063095ea7b3146101db57806309825661146101f757806323b872dd14610213575b600080fd5b610177600480360381019061017291906119ca565b610479565b6040516101849190611d44565b60405180910390f35b61019561055b565b6040516101a29190611d5f565b60405180910390f35b6101c560048036038101906101c09190611a1c565b6105ed565b6040516101d29190611cdd565b60405180910390f35b6101f560048036038101906101f0919061198e565b610672565b005b610211600480360381019061020c9190611823565b61078a565b005b61022d60048036038101906102289190611888565b6107ce565b005b61023761082e565b6040516102449190611f01565b60405180910390f35b610255610834565b6040516102629190611cdd565b60405180910390f35b61028560048036038101906102809190611888565b61085a565b005b61028f61087a565b60405161029c9190611cdd565b60405180910390f35b6102ad6108a0565b6040516102ba9190611f01565b60405180910390f35b6102dd60048036038101906102d89190611a1c565b6108a6565b6040516102ea9190611cdd565b60405180910390f35b61030d60048036038101906103089190611823565b610958565b60405161031a9190611f01565b60405180910390f35b61032b610a10565b6040516103389190611d44565b60405180910390f35b610349610a23565b6040516103569190611d5f565b60405180910390f35b610367610ab5565b6040516103749190611f01565b60405180910390f35b61039760048036038101906103929190611952565b610abb565b005b6103a1610ad1565b6040516103ae9190611f01565b60405180910390f35b6103d160048036038101906103cc91906118d7565b610ad7565b005b6103ed60048036038101906103e89190611a1c565b610b39565b6040516103fa9190611d5f565b60405180910390f35b61040b610be0565b6040516104189190611d5f565b60405180910390f35b61043b6004803603810190610436919061184c565b610c6e565b6040516104489190611d44565b60405180910390f35b610459610d02565b005b610463610d1f565b6040516104709190611f01565b60405180910390f35b60007f80ac58cd000000000000000000000000000000000000000000000000000000007bffffffffffffffffffffffffffffffffffffffffffffffffffffffff1916827bffffffffffffffffffffffffffffffffffffffffffffffffffffffff1916148061054457507f5b5e139f000000000000000000000000000000000000000000000000000000007bffffffffffffffffffffffffffffffffffffffffffffffffffffffff1916827bffffffffffffffffffffffffffffffffffffffffffffffffffffffff1916145b80610554575061055382610d25565b5b9050919050565b60606000805461056a90612126565b80601f016020809104026020016040519081016040528092919081815260200182805461059690612126565b80156105e35780601f106105b8576101008083540402835291602001916105e3565b820191906000526020600020905b8154815290600101906020018083116105c657829003601f168201915b5050505050905090565b60006105f882610d8f565b610637576040517f08c379a000000000000000000000000000000000000000000000000000000000815260040161062e90611e81565b60405180910390fd5b6004600083815260200190815260200160002060009054906101000a900473ffffffffffffffffffffffffffffffffffffffff169050919050565b600061067d826108a6565b90508073ffffffffffffffffffffffffffffffffffffffff168373ffffffffffffffffffffffffffffffffffffffff1614156106ee576040517f08c379a00000000000000000000000000000000000000000000000000000000081526004016106e590611ec1565b60405180910390fd5b8073ffffffffffffffffffffffffffffffffffffffff1661070d610dfb565b73ffffffffffffffffffffffffffffffffffffffff16148061073c575061073b81610736610dfb565b610c6e565b5b61077b576040517f08c379a000000000000000000000000000000000000000000000000000000000815260040161077290611e21565b60405180910390fd5b6107858383610e03565b505050565b80600c60006101000a81548173ffffffffffffffffffffffffffffffffffffffff021916908373ffffffffffffffffffffffffffffffffffffffff16021790555050565b6107df6107d9610dfb565b82610ebc565b61081e576040517f08c379a000000000000000000000000000000000000000000000000000000000815260040161081590611ee1565b60405180910390fd5b610829838383610f9a565b505050565b60075481565b600b60009054906101000a900473ffffffffffffffffffffffffffffffffffffffff1681565b61087583838360405180602001604052806000815250610ad7565b505050565b600c60009054906101000a900473ffffffffffffffffffffffffffffffffffffffff1681565b600a5481565b6000806002600084815260200190815260200160002060009054906101000a900473ffffffffffffffffffffffffffffffffffffffff169050600073ffffffffffffffffffffffffffffffffffffffff168173ffffffffffffffffffffffffffffffffffffffff16141561094f576040517f08c379a000000000000000000000000000000000000000000000000000000000815260040161094690611e61565b60405180910390fd5b80915050919050565b60008073ffffffffffffffffffffffffffffffffffffffff168273ffffffffffffffffffffffffffffffffffffffff1614156109c9576040517f08c379a00000000000000000000000000000000000000000000000000000000081526004016109c090611e41565b60405180910390fd5b600360008373ffffffffffffffffffffffffffffffffffffffff1673ffffffffffffffffffffffffffffffffffffffff168152602001908152602001600020549050919050565b600e60009054906101000a900460ff1681565b606060018054610a3290612126565b80601f0160208091040260200160405190810160405280929190818152602001828054610a5e90612126565b8015610aab5780601f10610a8057610100808354040283529160200191610aab565b820191906000526020600020905b815481529060010190602001808311610a8e57829003601f168201915b5050505050905090565b60085481565b610acd610ac6610dfb565b8383611201565b5050565b60065481565b610ae8610ae2610dfb565b83610ebc565b610b27576040517f08c379a0000000000000000000000000000000000000000000000000000000008152600401610b1e90611ee1565b60405180910390fd5b610b338484848461136e565b50505050565b6060610b4482610d8f565b610b83576040517f08c379a0000000000000000000000000000000000000000000000000000000008152600401610b7a90611ea1565b60405180910390fd5b6000610b8d6113ca565b90506000815111610bad5760405180602001604052806000815250610bd8565b80610bb7846113e1565b604051602001610bc8929190611cb9565b6040516020818303038152906040525b915050919050565b600d8054610bed90612126565b80601f0160208091040260200160405190810160405280929190818152602001828054610c1990612126565b8015610c665780601f10610c3b57610100808354040283529160200191610c66565b820191906000526020600020905b815481529060010190602001808311610c4957829003601f168201915b505050505081565b6000600560008473ffffffffffffffffffffffffffffffffffffffff1673ffffffffffffffffffffffffffffffffffffffff16815260200190815260200160002060008373ffffffffffffffffffffffffffffffffffffffff1673ffffffffffffffffffffffffffffffffffffffff16815260200190815260200160002060009054906101000a900460ff16905092915050565b6001600e60006101000a81548160ff021916908315150217905550565b60095481565b60007f01ffc9a7000000000000000000000000000000000000000000000000000000007bffffffffffffffffffffffffffffffffffffffffffffffffffffffff1916827bffffffffffffffffffffffffffffffffffffffffffffffffffffffff1916149050919050565b60008073ffffffffffffffffffffffffffffffffffffffff166002600084815260200190815260200160002060009054906101000a900473ffffffffffffffffffffffffffffffffffffffff1673ffffffffffffffffffffffffffffffffffffffff1614159050919050565b600033905090565b816004600083815260200190815260200160002060006101000a81548173ffffffffffffffffffffffffffffffffffffffff021916908373ffffffffffffffffffffffffffffffffffffffff160217905550808273ffffffffffffffffffffffffffffffffffffffff16610e76836108a6565b73ffffffffffffffffffffffffffffffffffffffff167f8c5be1e5ebec7d5bd14f71427d1e84f3dd0314c0f7b2291e5b200ac8c7c3b92560405160405180910390a45050565b6000610ec782610d8f565b610f06576040517f08c379a0000000000000000000000000000000000000000000000000000000008152600401610efd90611e01565b60405180910390fd5b6000610f11836108a6565b90508073ffffffffffffffffffffffffffffffffffffffff168473ffffffffffffffffffffffffffffffffffffffff161480610f535750610f528185610c6e565b5b80610f9157508373ffffffffffffffffffffffffffffffffffffffff16610f79846105ed565b73ffffffffffffffffffffffffffffffffffffffff16145b91505092915050565b8273ffffffffffffffffffffffffffffffffffffffff16610fba826108a6565b73ffffffffffffffffffffffffffffffffffffffff1614611010576040517f08c379a000000000000000000000000000000000000000000000000000000000815260040161100790611da1565b60405180910390fd5b600073ffffffffffffffffffffffffffffffffffffffff168273ffffffffffffffffffffffffffffffffffffffff161415611080576040517f08c379a000000000000000000000000000000000000000000000000000000000815260040161107790611dc1565b60405180910390fd5b61108b83838361158e565b611096600082610e03565b6001600360008573ffffffffffffffffffffffffffffffffffffffff1673ffffffffffffffffffffffffffffffffffffffff16815260200190815260200160002060008282546110e6919061203c565b925050819055506001600360008473ffffffffffffffffffffffffffffffffffffffff1673ffffffffffffffffffffffffffffffffffffffff168152602001908152602001600020600082825461113d9190611fb5565b92505081905550816002600083815260200190815260200160002060006101000a81548173ffffffffffffffffffffffffffffffffffffffff021916908373ffffffffffffffffffffffffffffffffffffffff160217905550808273ffffffffffffffffffffffffffffffffffffffff168473ffffffffffffffffffffffffffffffffffffffff167fddf252ad1be2c89b69c2b068fc378daa952ba7f163c4a11628f55a4df523b3ef60405160405180910390a46111fc838383611593565b505050565b8173ffffffffffffffffffffffffffffffffffffffff168373ffffffffffffffffffffffffffffffffffffffff161415611270576040517f08c379a000000000000000000000000000000000000000000000000000000000815260040161126790611de1565b60405180910390fd5b80600560008573ffffffffffffffffffffffffffffffffffffffff1673ffffffffffffffffffffffffffffffffffffffff16815260200190815260200160002060008473ffffffffffffffffffffffffffffffffffffffff1673ffffffffffffffffffffffffffffffffffffffff16815260200190815260200160002060006101000a81548160ff0219169083151502179055508173ffffffffffffffffffffffffffffffffffffffff168373ffffffffffffffffffffffffffffffffffffffff167f17307eab39ab6107e8899845ad3d59bd9653f200f220920489ca2b5937696c31836040516113619190611d44565b60405180910390a3505050565b611379848484610f9a565b61138584848484611598565b6113c4576040517f08c379a00000000000000000000000000000000000000000000000000000000081526004016113bb90611d81565b60405180910390fd5b50505050565b606060405180602001604052806000815250905090565b60606000821415611429576040518060400160405280600181526020017f30000000000000000000000000000000000000000000000000000000000000008152509050611589565b600082905060005b6000821461145b57808061144490612189565b915050600a82611454919061200b565b9150611431565b60008167ffffffffffffffff81111561149d577f4e487b7100000000000000000000000000000000000000000000000000000000600052604160045260246000fd5b6040519080825280601f01601f1916602001820160405280156114cf5781602001600182028036833780820191505090505b5090505b60008514611582576001826114e8919061203c565b9150600a856114f791906121d2565b60306115039190611fb5565b60f81b81838151811061153f577f4e487b7100000000000000000000000000000000000000000000000000000000600052603260045260246000fd5b60200101907effffffffffffffffffffffffffffffffffffffffffffffffffffffffffffff1916908160001a905350600a8561157b919061200b565b94506114d3565b8093505050505b919050565b505050565b505050565b60006115b98473ffffffffffffffffffffffffffffffffffffffff1661172f565b15611722578373ffffffffffffffffffffffffffffffffffffffff1663150b7a026115e2610dfb565b8786866040518563ffffffff1660e01b81526004016116049493929190611cf8565b602060405180830381600087803b15801561161e57600080fd5b505af192505050801561164f57506040513d601f19601f8201168201806040525081019061164c91906119f3565b60015b6116d2573d806000811461167f576040519150601f19603f3d011682016040523d82523d6000602084013e611684565b606091505b506000815114156116ca576040517f08c379a00000000000000000000000000000000000000000000000000000000081526004016116c190611d81565b60405180910390fd5b805181602001fd5b63150b7a0260e01b7bffffffffffffffffffffffffffffffffffffffffffffffffffffffff1916817bffffffffffffffffffffffffffffffffffffffffffffffffffffffff191614915050611727565b600190505b949350505050565b6000808273ffffffffffffffffffffffffffffffffffffffff163b119050919050565b600061176561176084611f41565b611f1c565b90508281526020810184848401111561177d57600080fd5b6117888482856120e4565b509392505050565b60008135905061179f8161265e565b92915050565b6000813590506117b481612675565b92915050565b6000813590506117c98161268c565b92915050565b6000815190506117de8161268c565b92915050565b600082601f8301126117f557600080fd5b8135611805848260208601611752565b91505092915050565b60008135905061181d816126a3565b92915050565b60006020828403121561183557600080fd5b600061184384828501611790565b91505092915050565b6000806040838503121561185f57600080fd5b600061186d85828601611790565b925050602061187e85828601611790565b9150509250929050565b60008060006060848603121561189d57600080fd5b60006118ab86828701611790565b93505060206118bc86828701611790565b92505060406118cd8682870161180e565b9150509250925092565b600080600080608085870312156118ed57600080fd5b60006118fb87828801611790565b945050602061190c87828801611790565b935050604061191d8782880161180e565b925050606085013567ffffffffffffffff81111561193a57600080fd5b611946878288016117e4565b91505092959194509250565b6000806040838503121561196557600080fd5b600061197385828601611790565b9250506020611984858286016117a5565b9150509250929050565b600080604083850312156119a157600080fd5b60006119af85828601611790565b92505060206119c08582860161180e565b9150509250929050565b6000602082840312156119dc57600080fd5b60006119ea848285016117ba565b91505092915050565b600060208284031215611a0557600080fd5b6000611a13848285016117cf565b91505092915050565b600060208284031215611a2e57600080fd5b6000611a3c8482850161180e565b91505092915050565b611a4e81612070565b82525050565b611a5d81612082565b82525050565b6000611a6e82611f72565b611a788185611f88565b9350611a888185602086016120f3565b611a91816122bf565b840191505092915050565b6000611aa782611f7d565b611ab18185611f99565b9350611ac18185602086016120f3565b611aca816122bf565b840191505092915050565b6000611ae082611f7d565b611aea8185611faa565b9350611afa8185602086016120f3565b80840191505092915050565b6000611b13603283611f99565b9150611b1e826122d0565b604082019050919050565b6000611b36602583611f99565b9150611b418261231f565b604082019050919050565b6000611b59602483611f99565b9150611b648261236e565b604082019050919050565b6000611b7c601983611f99565b9150611b87826123bd565b602082019050919050565b6000611b9f602c83611f99565b9150611baa826123e6565b604082019050919050565b6000611bc2603883611f99565b9150611bcd82612435565b604082019050919050565b6000611be5602a83611f99565b9150611bf082612484565b604082019050919050565b6000611c08602983611f99565b9150611c13826124d3565b604082019050919050565b6000611c2b602c83611f99565b9150611c3682612522565b604082019050919050565b6000611c4e602f83611f99565b9150611c5982612571565b604082019050919050565b6000611c71602183611f99565b9150611c7c826125c0565b604082019050919050565b6000611c94603183611f99565b9150611c9f8261260f565b604082019050919050565b611cb3816120da565b82525050565b6000611cc58285611ad5565b9150611cd18284611ad5565b91508190509392505050565b6000602082019050611cf26000830184611a45565b92915050565b6000608082019050611d0d6000830187611a45565b611d1a6020830186611a45565b611d276040830185611caa565b8181036060830152611d398184611a63565b905095945050505050565b6000602082019050611d596000830184611a54565b92915050565b60006020820190508181036000830152611d798184611a9c565b905092915050565b60006020820190508181036000830152611d9a81611b06565b9050919050565b60006020820190508181036000830152611dba81611b29565b9050919050565b60006020820190508181036000830152611dda81611b4c565b9050919050565b60006020820190508181036000830152611dfa81611b6f565b9050919050565b60006020820190508181036000830152611e1a81611b92565b9050919050565b60006020820190508181036000830152611e3a81611bb5565b9050919050565b60006020820190508181036000830152611e5a81611bd8565b9050919050565b60006020820190508181036000830152611e7a81611bfb565b9050919050565b60006020820190508181036000830152611e9a81611c1e565b9050919050565b60006020820190508181036000830152611eba81611c41565b9050919050565b60006020820190508181036000830152611eda81611c64565b9050919050565b60006020820190508181036000830152611efa81611c87565b9050919050565b6000602082019050611f166000830184611caa565b92915050565b6000611f26611f37565b9050611f328282612158565b919050565b6000604051905090565b600067ffffffffffffffff821115611f5c57611f5b612290565b5b611f65826122bf565b9050602081019050919050565b600081519050919050565b600081519050919050565b600082825260208201905092915050565b600082825260208201905092915050565b600081905092915050565b6000611fc0826120da565b9150611fcb836120da565b9250827fffffffffffffffffffffffffffffffffffffffffffffffffffffffffffffffff0382111561200057611fff612203565b5b828201905092915050565b6000612016826120da565b9150612021836120da565b92508261203157612030612232565b5b828204905092915050565b6000612047826120da565b9150612052836120da565b92508282101561206557612064612203565b5b828203905092915050565b600061207b826120ba565b9050919050565b60008115159050919050565b60007fffffffff0000000000000000000000000000000000000000000000000000000082169050919050565b600073ffffffffffffffffffffffffffffffffffffffff82169050919050565b6000819050919050565b82818337600083830152505050565b60005b838110156121115780820151818401526020810190506120f6565b83811115612120576000848401525b50505050565b6000600282049050600182168061213e57607f821691505b6020821081141561215257612151612261565b5b50919050565b612161826122bf565b810181811067ffffffffffffffff821117156121805761217f612290565b5b80604052505050565b6000612194826120da565b91507fffffffffffffffffffffffffffffffffffffffffffffffffffffffffffffffff8214156121c7576121c6612203565b5b600182019050919050565b60006121dd826120da565b91506121e8836120da565b9250826121f8576121f7612232565b5b828206905092915050565b7f4e487b7100000000000000000000000000000000000000000000000000000000600052601160045260246000fd5b7f4e487b7100000000000000000000000000000000000000000000000000000000600052601260045260246000fd5b7f4e487b7100000000000000000000000000000000000000000000000000000000600052602260045260246000fd5b7f4e487b7100000000000000000000000000000000000000000000000000000000600052604160045260246000fd5b6000601f19601f8301169050919050565b7f4552433732313a207472616e7366657220746f206e6f6e20455243373231526560008201527f63656976657220696d706c656d656e7465720000000000000000000000000000602082015250565b7f4552433732313a207472616e736665722066726f6d20696e636f72726563742060008201527f6f776e6572000000000000000000000000000000000000000000000000000000602082015250565b7f4552433732313a207472616e7366657220746f20746865207a65726f2061646460008201527f7265737300000000000000000000000000000000000000000000000000000000602082015250565b7f4552433732313a20617070726f766520746f2063616c6c657200000000000000600082015250565b7f4552433732313a206f70657261746f7220717565727920666f72206e6f6e657860008201527f697374656e7420746f6b656e0000000000000000000000000000000000000000602082015250565b7f4552433732313a20617070726f76652063616c6c6572206973206e6f74206f7760008201527f6e6572206e6f7220617070726f76656420666f7220616c6c0000000000000000602082015250565b7f4552433732313a2062616c616e636520717565727920666f7220746865207a6560008201527f726f206164647265737300000000000000000000000000000000000000000000602082015250565b7f4552433732313a206f776e657220717565727920666f72206e6f6e657869737460008201527f656e7420746f6b656e0000000000000000000000000000000000000000000000602082015250565b7f4552433732313a20617070726f76656420717565727920666f72206e6f6e657860008201527f697374656e7420746f6b656e0000000000000000000000000000000000000000602082015250565b7f4552433732314d657461646174613a2055524920717565727920666f72206e6f60008201527f6e6578697374656e7420746f6b656e0000000000000000000000000000000000602082015250565b7f4552433732313a20617070726f76616c20746f2063757272656e74206f776e6560008201527f7200000000000000000000000000000000000000000000000000000000000000602082015250565b7f4552433732313a207472616e736665722063616c6c6572206973206e6f74206f60008201527f776e6572206e6f7220617070726f766564000000000000000000000000000000602082015250565b61266781612070565b811461267257600080fd5b50565b61267e81612082565b811461268957600080fd5b50565b6126958161208e565b81146126a057600080fd5b50565b6126ac816120da565b81146126b757600080fd5b5056fea264697066735822122007d7bec79ba759140c22083b935f59a0fe9168dfa47e0534cc20e50bdcec3e6564736f6c63430008020033a2646970667358221220e4c1f376b4fd1d22703140a56d46d552f94b10ea9e202cc4c1ef0f99642a3a9164736f6c63430008020033",
  "linkReferences": {},
  "deployedLinkReferences": {}
}