{
	"contract/token/ERC721.sol": {
		"ERC721": {
			"abi": [
				{
					"inputs": [
						{
							"internalType": "string",
							"name": "name_",
							"type": "string"
						},
						{
							"internalType": "string",
							"name": "symbol_",
							"type": "string"
						}
					],
					"stateMutability": "nonpayable",
					"type": "constructor"
				},
				{
					"anonymous": false,
					"inputs": [
						{
							"indexed": false,
							"internalType": "uint256",
							"name": "_houseId",
							"type": "uint256"
						},
						{
							"indexed": false,
							"internalType": "uint256",
							"name": "_serialNumber",
							"type": "uint256"
						},
						{
							"indexed": false,
							"internalType": "uint256",
							"name": "_price",
							"type": "uint256"
						},
						{
							"indexed": false,
							"internalType": "uint256",
							"name": "_priceDai",
							"type": "uint256"
						},
						{
							"indexed": false,
							"internalType": "string",
							"name": "_houseAddress",
							"type": "string"
						}
					],
					"name": "AddNewTokenHouse",
					"type": "event"
				},
				{
					"anonymous": false,
					"inputs": [
						{
							"indexed": true,
							"internalType": "address",
							"name": "owner",
							"type": "address"
						},
						{
							"indexed": true,
							"internalType": "address",
							"name": "approved",
							"type": "address"
						},
						{
							"indexed": true,
							"internalType": "uint256",
							"name": "tokenId",
							"type": "uint256"
						}
					],
					"name": "Approval",
					"type": "event"
				},
				{
					"anonymous": false,
					"inputs": [
						{
							"indexed": true,
							"internalType": "address",
							"name": "owner",
							"type": "address"
						},
						{
							"indexed": true,
							"internalType": "address",
							"name": "operator",
							"type": "address"
						},
						{
							"indexed": false,
							"internalType": "bool",
							"name": "approved",
							"type": "bool"
						}
					],
					"name": "ApprovalForAll",
					"type": "event"
				},
				{
					"anonymous": false,
					"inputs": [
						{
							"indexed": false,
							"internalType": "uint256",
							"name": "_houseId",
							"type": "uint256"
						},
						{
							"indexed": false,
							"internalType": "uint256",
							"name": "_serialNumber",
							"type": "uint256"
						},
						{
							"indexed": false,
							"internalType": "uint256",
							"name": "_price",
							"type": "uint256"
						},
						{
							"indexed": false,
							"internalType": "uint256",
							"name": "_priceDai",
							"type": "uint256"
						},
						{
							"indexed": false,
							"internalType": "uint256",
							"name": "_area",
							"type": "uint256"
						},
						{
							"indexed": false,
							"internalType": "address",
							"name": "_sellerAddress",
							"type": "address"
						},
						{
							"indexed": false,
							"internalType": "string",
							"name": "_houseAddress",
							"type": "string"
						}
					],
					"name": "GetHouseTokenInfo",
					"type": "event"
				},
				{
					"anonymous": false,
					"inputs": [
						{
							"indexed": true,
							"internalType": "address",
							"name": "from",
							"type": "address"
						},
						{
							"indexed": true,
							"internalType": "address",
							"name": "to",
							"type": "address"
						},
						{
							"indexed": true,
							"internalType": "uint256",
							"name": "tokenId",
							"type": "uint256"
						}
					],
					"name": "Transfer",
					"type": "event"
				},
				{
					"inputs": [
						{
							"internalType": "uint256",
							"name": "_houseId",
							"type": "uint256"
						},
						{
							"internalType": "uint256",
							"name": "_serialNumber",
							"type": "uint256"
						},
						{
							"internalType": "uint256",
							"name": "_price",
							"type": "uint256"
						},
						{
							"internalType": "uint256",
							"name": "_priceDai",
							"type": "uint256"
						},
						{
							"internalType": "uint256",
							"name": "_area",
							"type": "uint256"
						},
						{
							"internalType": "address",
							"name": "_sellerAddress",
							"type": "address"
						},
						{
							"internalType": "string",
							"name": "_houseAddress",
							"type": "string"
						}
					],
					"name": "addHouse",
					"outputs": [],
					"stateMutability": "nonpayable",
					"type": "function"
				},
				{
					"inputs": [
						{
							"internalType": "address",
							"name": "to",
							"type": "address"
						},
						{
							"internalType": "uint256",
							"name": "tokenId",
							"type": "uint256"
						}
					],
					"name": "approve",
					"outputs": [],
					"stateMutability": "nonpayable",
					"type": "function"
				},
				{
					"inputs": [
						{
							"internalType": "address",
							"name": "owner",
							"type": "address"
						}
					],
					"name": "balanceOf",
					"outputs": [
						{
							"internalType": "uint256",
							"name": "",
							"type": "uint256"
						}
					],
					"stateMutability": "view",
					"type": "function"
				},
				{
					"inputs": [
						{
							"internalType": "uint256",
							"name": "tokenId",
							"type": "uint256"
						}
					],
					"name": "getApproved",
					"outputs": [
						{
							"internalType": "address",
							"name": "",
							"type": "address"
						}
					],
					"stateMutability": "view",
					"type": "function"
				},
				{
					"inputs": [
						{
							"internalType": "uint256",
							"name": "_houseId",
							"type": "uint256"
						}
					],
					"name": "getHouseInfo",
					"outputs": [
						{
							"components": [
								{
									"internalType": "uint256",
									"name": "id",
									"type": "uint256"
								},
								{
									"internalType": "uint256",
									"name": "serialNumber",
									"type": "uint256"
								},
								{
									"internalType": "uint256",
									"name": "price",
									"type": "uint256"
								},
								{
									"internalType": "uint256",
									"name": "priceDai",
									"type": "uint256"
								},
								{
									"internalType": "uint256",
									"name": "area",
									"type": "uint256"
								},
								{
									"internalType": "address",
									"name": "sellerAddress",
									"type": "address"
								},
								{
									"internalType": "address",
									"name": "buyerAddress",
									"type": "address"
								},
								{
									"internalType": "string",
									"name": "houseAddress",
									"type": "string"
								},
								{
									"internalType": "bool",
									"name": "isdelistedHouse",
									"type": "bool"
								}
							],
							"internalType": "struct ERC721.House",
							"name": "",
							"type": "tuple"
						}
					],
					"stateMutability": "view",
					"type": "function"
				},
				{
					"inputs": [
						{
							"internalType": "uint256",
							"name": "",
							"type": "uint256"
						}
					],
					"name": "houses",
					"outputs": [
						{
							"internalType": "uint256",
							"name": "id",
							"type": "uint256"
						},
						{
							"internalType": "uint256",
							"name": "serialNumber",
							"type": "uint256"
						},
						{
							"internalType": "uint256",
							"name": "price",
							"type": "uint256"
						},
						{
							"internalType": "uint256",
							"name": "priceDai",
							"type": "uint256"
						},
						{
							"internalType": "uint256",
							"name": "area",
							"type": "uint256"
						},
						{
							"internalType": "address",
							"name": "sellerAddress",
							"type": "address"
						},
						{
							"internalType": "address",
							"name": "buyerAddress",
							"type": "address"
						},
						{
							"internalType": "string",
							"name": "houseAddress",
							"type": "string"
						},
						{
							"internalType": "bool",
							"name": "isdelistedHouse",
							"type": "bool"
						}
					],
					"stateMutability": "view",
					"type": "function"
				},
				{
					"inputs": [
						{
							"internalType": "address",
							"name": "owner",
							"type": "address"
						},
						{
							"internalType": "address",
							"name": "operator",
							"type": "address"
						}
					],
					"name": "isApprovedForAll",
					"outputs": [
						{
							"internalType": "bool",
							"name": "",
							"type": "bool"
						}
					],
					"stateMutability": "view",
					"type": "function"
				},
				{
					"inputs": [],
					"name": "name",
					"outputs": [
						{
							"internalType": "string",
							"name": "",
							"type": "string"
						}
					],
					"stateMutability": "view",
					"type": "function"
				},
				{
					"inputs": [
						{
							"internalType": "uint256",
							"name": "tokenId",
							"type": "uint256"
						}
					],
					"name": "ownerOf",
					"outputs": [
						{
							"internalType": "address",
							"name": "",
							"type": "address"
						}
					],
					"stateMutability": "view",
					"type": "function"
				},
				{
					"inputs": [
						{
							"internalType": "address",
							"name": "from",
							"type": "address"
						},
						{
							"internalType": "address",
							"name": "to",
							"type": "address"
						},
						{
							"internalType": "uint256",
							"name": "tokenId",
							"type": "uint256"
						}
					],
					"name": "safeTransferFrom",
					"outputs": [],
					"stateMutability": "nonpayable",
					"type": "function"
				},
				{
					"inputs": [
						{
							"internalType": "address",
							"name": "from",
							"type": "address"
						},
						{
							"internalType": "address",
							"name": "to",
							"type": "address"
						},
						{
							"internalType": "uint256",
							"name": "tokenId",
							"type": "uint256"
						},
						{
							"internalType": "bytes",
							"name": "data",
							"type": "bytes"
						}
					],
					"name": "safeTransferFrom",
					"outputs": [],
					"stateMutability": "nonpayable",
					"type": "function"
				},
				{
					"inputs": [
						{
							"internalType": "address",
							"name": "operator",
							"type": "address"
						},
						{
							"internalType": "bool",
							"name": "approved",
							"type": "bool"
						}
					],
					"name": "setApprovalForAll",
					"outputs": [],
					"stateMutability": "nonpayable",
					"type": "function"
				},
				{
					"inputs": [
						{
							"internalType": "uint256",
							"name": "_houseId",
							"type": "uint256"
						}
					],
					"name": "setDelistHouse",
					"outputs": [],
					"stateMutability": "nonpayable",
					"type": "function"
				},
				{
					"inputs": [
						{
							"internalType": "uint256",
							"name": "_houseId",
							"type": "uint256"
						},
						{
							"internalType": "address",
							"name": "_buyerAddress",
							"type": "address"
						}
					],
					"name": "setbuyerAddress",
					"outputs": [],
					"stateMutability": "nonpayable",
					"type": "function"
				},
				{
					"inputs": [
						{
							"internalType": "bytes4",
							"name": "interfaceId",
							"type": "bytes4"
						}
					],
					"name": "supportsInterface",
					"outputs": [
						{
							"internalType": "bool",
							"name": "",
							"type": "bool"
						}
					],
					"stateMutability": "view",
					"type": "function"
				},
				{
					"inputs": [],
					"name": "symbol",
					"outputs": [
						{
							"internalType": "string",
							"name": "",
							"type": "string"
						}
					],
					"stateMutability": "view",
					"type": "function"
				},
				{
					"inputs": [
						{
							"internalType": "uint256",
							"name": "tokenId",
							"type": "uint256"
						}
					],
					"name": "tokenURI",
					"outputs": [
						{
							"internalType": "string",
							"name": "",
							"type": "string"
						}
					],
					"stateMutability": "view",
					"type": "function"
				},
				{
					"inputs": [
						{
							"internalType": "address",
							"name": "from",
							"type": "address"
						},
						{
							"internalType": "address",
							"name": "to",
							"type": "address"
						},
						{
							"internalType": "uint256",
							"name": "tokenId",
							"type": "uint256"
						}
					],
					"name": "transferFrom",
					"outputs": [],
					"stateMutability": "nonpayable",
					"type": "function"
				}
			],
			"devdoc": {
				"details": "Implementation of https://eips.ethereum.org/EIPS/eip-721[ERC721] Non-Fungible Token Standard, including the Metadata extension, but not including the Enumerable extension, which is available separately as {ERC721Enumerable}.",
				"kind": "dev",
				"methods": {
					"approve(address,uint256)": {
						"details": "See {IERC721-approve}."
					},
					"balanceOf(address)": {
						"details": "See {IERC721-balanceOf}."
					},
					"constructor": {
						"details": "Initializes the contract by setting a `name` and a `symbol` to the token collection."
					},
					"getApproved(uint256)": {
						"details": "See {IERC721-getApproved}."
					},
					"isApprovedForAll(address,address)": {
						"details": "See {IERC721-isApprovedForAll}."
					},
					"name()": {
						"details": "See {IERC721Metadata-name}."
					},
					"ownerOf(uint256)": {
						"details": "See {IERC721-ownerOf}."
					},
					"safeTransferFrom(address,address,uint256)": {
						"details": "See {IERC721-safeTransferFrom}."
					},
					"safeTransferFrom(address,address,uint256,bytes)": {
						"details": "See {IERC721-safeTransferFrom}."
					},
					"setApprovalForAll(address,bool)": {
						"details": "See {IERC721-setApprovalForAll}."
					},
					"supportsInterface(bytes4)": {
						"details": "See {IERC165-supportsInterface}."
					},
					"symbol()": {
						"details": "See {IERC721Metadata-symbol}."
					},
					"tokenURI(uint256)": {
						"details": "See {IERC721Metadata-tokenURI}."
					},
					"transferFrom(address,address,uint256)": {
						"details": "See {IERC721-transferFrom}."
					}
				},
				"version": 1
			},
			"evm": {
				"assembly": "    /* \"contract/token/ERC721.sol\":674:16074  contract ERC721 is Context, ERC165, IERC721, IERC721Metadata, HouseToken {\r... */\n  mstore(0x40, 0x80)\n    /* \"contract/token/ERC721.sol\":1036:1156  constructor(string memory name_, string memory symbol_) {\r... */\n  callvalue\n  dup1\n  iszero\n  tag_1\n  jumpi\n  0x00\n  dup1\n  revert\ntag_1:\n  pop\n  mload(0x40)\n  sub(codesize, bytecodeSize)\n  dup1\n  bytecodeSize\n  dup4\n  codecopy\n  dup2\n  dup2\n  add\n  0x40\n  mstore\n  dup2\n  add\n  swap1\n  tag_2\n  swap2\n  swap1\n  tag_3\n  jump\t// in\ntag_2:\n    /* \"contract/token/ERC721.sol\":1111:1116  name_ */\n  dup2\n    /* \"contract/token/ERC721.sol\":1103:1108  _name */\n  0x00\n    /* \"contract/token/ERC721.sol\":1103:1116  _name = name_ */\n  swap1\n  dup1\n  mload\n  swap1\n  0x20\n  add\n  swap1\n  tag_6\n  swap3\n  swap2\n  swap1\n  tag_7\n  jump\t// in\ntag_6:\n  pop\n    /* \"contract/token/ERC721.sol\":1137:1144  symbol_ */\n  dup1\n    /* \"contract/token/ERC721.sol\":1127:1134  _symbol */\n  0x01\n    /* \"contract/token/ERC721.sol\":1127:1144  _symbol = symbol_ */\n  swap1\n  dup1\n  mload\n  swap1\n  0x20\n  add\n  swap1\n  tag_8\n  swap3\n  swap2\n  swap1\n  tag_7\n  jump\t// in\ntag_8:\n  pop\n    /* \"contract/token/ERC721.sol\":1036:1156  constructor(string memory name_, string memory symbol_) {\r... */\n  pop\n  pop\n    /* \"contract/token/ERC721.sol\":674:16074  contract ERC721 is Context, ERC165, IERC721, IERC721Metadata, HouseToken {\r... */\n  jump(tag_9)\ntag_7:\n  dup3\n  dup1\n  sload\n  tag_10\n  swap1\n  tag_11\n  jump\t// in\ntag_10:\n  swap1\n  0x00\n  mstore\n  keccak256(0x00, 0x20)\n  swap1\n  0x1f\n  add\n  0x20\n  swap1\n  div\n  dup2\n  add\n  swap3\n  dup3\n  tag_13\n  jumpi\n  0x00\n  dup6\n  sstore\n  jump(tag_12)\ntag_13:\n  dup3\n  0x1f\n  lt\n  tag_14\n  jumpi\n  dup1\n  mload\n  not(0xff)\n  and\n  dup4\n  dup1\n  add\n  or\n  dup6\n  sstore\n  jump(tag_12)\ntag_14:\n  dup3\n  dup1\n  add\n  0x01\n  add\n  dup6\n  sstore\n  dup3\n  iszero\n  tag_12\n  jumpi\n  swap2\n  dup3\n  add\ntag_15:\n  dup3\n  dup2\n  gt\n  iszero\n  tag_16\n  jumpi\n  dup3\n  mload\n  dup3\n  sstore\n  swap2\n  0x20\n  add\n  swap2\n  swap1\n  0x01\n  add\n  swap1\n  jump(tag_15)\ntag_16:\ntag_12:\n  pop\n  swap1\n  pop\n  tag_17\n  swap2\n  swap1\n  tag_18\n  jump\t// in\ntag_17:\n  pop\n  swap1\n  jump\t// out\ntag_18:\ntag_19:\n  dup1\n  dup3\n  gt\n  iszero\n  tag_20\n  jumpi\n  0x00\n  dup2\n  0x00\n  swap1\n  sstore\n  pop\n  0x01\n  add\n  jump(tag_19)\ntag_20:\n  pop\n  swap1\n  jump\t// out\n    /* \"#utility.yul\":7:428   */\ntag_22:\n    /* \"#utility.yul\":96:101   */\n  0x00\n    /* \"#utility.yul\":121:187   */\n  tag_24\n    /* \"#utility.yul\":137:186   */\n  tag_25\n    /* \"#utility.yul\":179:185   */\n  dup5\n    /* \"#utility.yul\":137:186   */\n  tag_26\n  jump\t// in\ntag_25:\n    /* \"#utility.yul\":121:187   */\n  tag_27\n  jump\t// in\ntag_24:\n    /* \"#utility.yul\":112:187   */\n  swap1\n  pop\n    /* \"#utility.yul\":210:216   */\n  dup3\n    /* \"#utility.yul\":203:208   */\n  dup2\n    /* \"#utility.yul\":196:217   */\n  mstore\n    /* \"#utility.yul\":248:252   */\n  0x20\n    /* \"#utility.yul\":241:246   */\n  dup2\n    /* \"#utility.yul\":237:253   */\n  add\n    /* \"#utility.yul\":286:289   */\n  dup5\n    /* \"#utility.yul\":277:283   */\n  dup5\n    /* \"#utility.yul\":272:275   */\n  dup5\n    /* \"#utility.yul\":268:284   */\n  add\n    /* \"#utility.yul\":265:290   */\n  gt\n    /* \"#utility.yul\":262:374   */\n  iszero\n  tag_28\n  jumpi\n    /* \"#utility.yul\":293:372   */\n  tag_29\n  tag_30\n  jump\t// in\ntag_29:\n    /* \"#utility.yul\":262:374   */\ntag_28:\n    /* \"#utility.yul\":383:422   */\n  tag_31\n    /* \"#utility.yul\":415:421   */\n  dup5\n    /* \"#utility.yul\":410:413   */\n  dup3\n    /* \"#utility.yul\":405:408   */\n  dup6\n    /* \"#utility.yul\":383:422   */\n  tag_32\n  jump\t// in\ntag_31:\n    /* \"#utility.yul\":102:428   */\n  pop\n    /* \"#utility.yul\":7:428   */\n  swap4\n  swap3\n  pop\n  pop\n  pop\n  jump\t// out\n    /* \"#utility.yul\":448:803   */\ntag_33:\n    /* \"#utility.yul\":515:520   */\n  0x00\n    /* \"#utility.yul\":564:567   */\n  dup3\n    /* \"#utility.yul\":557:561   */\n  0x1f\n    /* \"#utility.yul\":549:555   */\n  dup4\n    /* \"#utility.yul\":545:562   */\n  add\n    /* \"#utility.yul\":541:568   */\n  slt\n    /* \"#utility.yul\":531:653   */\n  tag_35\n  jumpi\n    /* \"#utility.yul\":572:651   */\n  tag_36\n  tag_37\n  jump\t// in\ntag_36:\n    /* \"#utility.yul\":531:653   */\ntag_35:\n    /* \"#utility.yul\":682:688   */\n  dup2\n    /* \"#utility.yul\":676:689   */\n  mload\n    /* \"#utility.yul\":707:797   */\n  tag_38\n    /* \"#utility.yul\":793:796   */\n  dup5\n    /* \"#utility.yul\":785:791   */\n  dup3\n    /* \"#utility.yul\":778:782   */\n  0x20\n    /* \"#utility.yul\":770:776   */\n  dup7\n    /* \"#utility.yul\":766:783   */\n  add\n    /* \"#utility.yul\":707:797   */\n  tag_22\n  jump\t// in\ntag_38:\n    /* \"#utility.yul\":698:797   */\n  swap2\n  pop\n    /* \"#utility.yul\":521:803   */\n  pop\n    /* \"#utility.yul\":448:803   */\n  swap3\n  swap2\n  pop\n  pop\n  jump\t// out\n    /* \"#utility.yul\":809:1662   */\ntag_3:\n    /* \"#utility.yul\":908:914   */\n  0x00\n    /* \"#utility.yul\":916:922   */\n  dup1\n    /* \"#utility.yul\":965:967   */\n  0x40\n    /* \"#utility.yul\":953:962   */\n  dup4\n    /* \"#utility.yul\":944:951   */\n  dup6\n    /* \"#utility.yul\":940:963   */\n  sub\n    /* \"#utility.yul\":936:968   */\n  slt\n    /* \"#utility.yul\":933:1052   */\n  iszero\n  tag_40\n  jumpi\n    /* \"#utility.yul\":971:1050   */\n  tag_41\n  tag_42\n  jump\t// in\ntag_41:\n    /* \"#utility.yul\":933:1052   */\ntag_40:\n    /* \"#utility.yul\":1112:1113   */\n  0x00\n    /* \"#utility.yul\":1101:1110   */\n  dup4\n    /* \"#utility.yul\":1097:1114   */\n  add\n    /* \"#utility.yul\":1091:1115   */\n  mload\n    /* \"#utility.yul\":1142:1160   */\n  0xffffffffffffffff\n    /* \"#utility.yul\":1134:1140   */\n  dup2\n    /* \"#utility.yul\":1131:1161   */\n  gt\n    /* \"#utility.yul\":1128:1245   */\n  iszero\n  tag_43\n  jumpi\n    /* \"#utility.yul\":1164:1243   */\n  tag_44\n  tag_45\n  jump\t// in\ntag_44:\n    /* \"#utility.yul\":1128:1245   */\ntag_43:\n    /* \"#utility.yul\":1269:1343   */\n  tag_46\n    /* \"#utility.yul\":1335:1342   */\n  dup6\n    /* \"#utility.yul\":1326:1332   */\n  dup3\n    /* \"#utility.yul\":1315:1324   */\n  dup7\n    /* \"#utility.yul\":1311:1333   */\n  add\n    /* \"#utility.yul\":1269:1343   */\n  tag_33\n  jump\t// in\ntag_46:\n    /* \"#utility.yul\":1259:1343   */\n  swap3\n  pop\n    /* \"#utility.yul\":1062:1353   */\n  pop\n    /* \"#utility.yul\":1413:1415   */\n  0x20\n    /* \"#utility.yul\":1402:1411   */\n  dup4\n    /* \"#utility.yul\":1398:1416   */\n  add\n    /* \"#utility.yul\":1392:1417   */\n  mload\n    /* \"#utility.yul\":1444:1462   */\n  0xffffffffffffffff\n    /* \"#utility.yul\":1436:1442   */\n  dup2\n    /* \"#utility.yul\":1433:1463   */\n  gt\n    /* \"#utility.yul\":1430:1547   */\n  iszero\n  tag_47\n  jumpi\n    /* \"#utility.yul\":1466:1545   */\n  tag_48\n  tag_45\n  jump\t// in\ntag_48:\n    /* \"#utility.yul\":1430:1547   */\ntag_47:\n    /* \"#utility.yul\":1571:1645   */\n  tag_49\n    /* \"#utility.yul\":1637:1644   */\n  dup6\n    /* \"#utility.yul\":1628:1634   */\n  dup3\n    /* \"#utility.yul\":1617:1626   */\n  dup7\n    /* \"#utility.yul\":1613:1635   */\n  add\n    /* \"#utility.yul\":1571:1645   */\n  tag_33\n  jump\t// in\ntag_49:\n    /* \"#utility.yul\":1561:1645   */\n  swap2\n  pop\n    /* \"#utility.yul\":1363:1655   */\n  pop\n    /* \"#utility.yul\":809:1662   */\n  swap3\n  pop\n  swap3\n  swap1\n  pop\n  jump\t// out\n    /* \"#utility.yul\":1668:1797   */\ntag_27:\n    /* \"#utility.yul\":1702:1708   */\n  0x00\n    /* \"#utility.yul\":1729:1749   */\n  tag_51\n  tag_52\n  jump\t// in\ntag_51:\n    /* \"#utility.yul\":1719:1749   */\n  swap1\n  pop\n    /* \"#utility.yul\":1758:1791   */\n  tag_53\n    /* \"#utility.yul\":1786:1790   */\n  dup3\n    /* \"#utility.yul\":1778:1784   */\n  dup3\n    /* \"#utility.yul\":1758:1791   */\n  tag_54\n  jump\t// in\ntag_53:\n    /* \"#utility.yul\":1668:1797   */\n  swap2\n  swap1\n  pop\n  jump\t// out\n    /* \"#utility.yul\":1803:1878   */\ntag_52:\n    /* \"#utility.yul\":1836:1842   */\n  0x00\n    /* \"#utility.yul\":1869:1871   */\n  0x40\n    /* \"#utility.yul\":1863:1872   */\n  mload\n    /* \"#utility.yul\":1853:1872   */\n  swap1\n  pop\n    /* \"#utility.yul\":1803:1878   */\n  swap1\n  jump\t// out\n    /* \"#utility.yul\":1884:2192   */\ntag_26:\n    /* \"#utility.yul\":1946:1950   */\n  0x00\n    /* \"#utility.yul\":2036:2054   */\n  0xffffffffffffffff\n    /* \"#utility.yul\":2028:2034   */\n  dup3\n    /* \"#utility.yul\":2025:2055   */\n  gt\n    /* \"#utility.yul\":2022:2078   */\n  iszero\n  tag_57\n  jumpi\n    /* \"#utility.yul\":2058:2076   */\n  tag_58\n  tag_59\n  jump\t// in\ntag_58:\n    /* \"#utility.yul\":2022:2078   */\ntag_57:\n    /* \"#utility.yul\":2096:2125   */\n  tag_60\n    /* \"#utility.yul\":2118:2124   */\n  dup3\n    /* \"#utility.yul\":2096:2125   */\n  tag_61\n  jump\t// in\ntag_60:\n    /* \"#utility.yul\":2088:2125   */\n  swap1\n  pop\n    /* \"#utility.yul\":2180:2184   */\n  0x20\n    /* \"#utility.yul\":2174:2178   */\n  dup2\n    /* \"#utility.yul\":2170:2185   */\n  add\n    /* \"#utility.yul\":2162:2185   */\n  swap1\n  pop\n    /* \"#utility.yul\":1884:2192   */\n  swap2\n  swap1\n  pop\n  jump\t// out\n    /* \"#utility.yul\":2198:2505   */\ntag_32:\n    /* \"#utility.yul\":2266:2267   */\n  0x00\n    /* \"#utility.yul\":2276:2389   */\ntag_63:\n    /* \"#utility.yul\":2290:2296   */\n  dup4\n    /* \"#utility.yul\":2287:2288   */\n  dup2\n    /* \"#utility.yul\":2284:2297   */\n  lt\n    /* \"#utility.yul\":2276:2389   */\n  iszero\n  tag_65\n  jumpi\n    /* \"#utility.yul\":2375:2376   */\n  dup1\n    /* \"#utility.yul\":2370:2373   */\n  dup3\n    /* \"#utility.yul\":2366:2377   */\n  add\n    /* \"#utility.yul\":2360:2378   */\n  mload\n    /* \"#utility.yul\":2356:2357   */\n  dup2\n    /* \"#utility.yul\":2351:2354   */\n  dup5\n    /* \"#utility.yul\":2347:2358   */\n  add\n    /* \"#utility.yul\":2340:2379   */\n  mstore\n    /* \"#utility.yul\":2312:2314   */\n  0x20\n    /* \"#utility.yul\":2309:2310   */\n  dup2\n    /* \"#utility.yul\":2305:2315   */\n  add\n    /* \"#utility.yul\":2300:2315   */\n  swap1\n  pop\n    /* \"#utility.yul\":2276:2389   */\n  jump(tag_63)\ntag_65:\n    /* \"#utility.yul\":2407:2413   */\n  dup4\n    /* \"#utility.yul\":2404:2405   */\n  dup2\n    /* \"#utility.yul\":2401:2414   */\n  gt\n    /* \"#utility.yul\":2398:2499   */\n  iszero\n  tag_66\n  jumpi\n    /* \"#utility.yul\":2487:2488   */\n  0x00\n    /* \"#utility.yul\":2478:2484   */\n  dup5\n    /* \"#utility.yul\":2473:2476   */\n  dup5\n    /* \"#utility.yul\":2469:2485   */\n  add\n    /* \"#utility.yul\":2462:2489   */\n  mstore\n    /* \"#utility.yul\":2398:2499   */\ntag_66:\n    /* \"#utility.yul\":2247:2505   */\n  pop\n    /* \"#utility.yul\":2198:2505   */\n  pop\n  pop\n  pop\n  jump\t// out\n    /* \"#utility.yul\":2511:2831   */\ntag_11:\n    /* \"#utility.yul\":2555:2561   */\n  0x00\n    /* \"#utility.yul\":2592:2593   */\n  0x02\n    /* \"#utility.yul\":2586:2590   */\n  dup3\n    /* \"#utility.yul\":2582:2594   */\n  div\n    /* \"#utility.yul\":2572:2594   */\n  swap1\n  pop\n    /* \"#utility.yul\":2639:2640   */\n  0x01\n    /* \"#utility.yul\":2633:2637   */\n  dup3\n    /* \"#utility.yul\":2629:2641   */\n  and\n    /* \"#utility.yul\":2660:2678   */\n  dup1\n    /* \"#utility.yul\":2650:2731   */\n  tag_68\n  jumpi\n    /* \"#utility.yul\":2716:2720   */\n  0x7f\n    /* \"#utility.yul\":2708:2714   */\n  dup3\n    /* \"#utility.yul\":2704:2721   */\n  and\n    /* \"#utility.yul\":2694:2721   */\n  swap2\n  pop\n    /* \"#utility.yul\":2650:2731   */\ntag_68:\n    /* \"#utility.yul\":2778:2780   */\n  0x20\n    /* \"#utility.yul\":2770:2776   */\n  dup3\n    /* \"#utility.yul\":2767:2781   */\n  lt\n    /* \"#utility.yul\":2747:2765   */\n  dup2\n    /* \"#utility.yul\":2744:2782   */\n  eq\n    /* \"#utility.yul\":2741:2825   */\n  iszero\n  tag_69\n  jumpi\n    /* \"#utility.yul\":2797:2815   */\n  tag_70\n  tag_71\n  jump\t// in\ntag_70:\n    /* \"#utility.yul\":2741:2825   */\ntag_69:\n    /* \"#utility.yul\":2562:2831   */\n  pop\n    /* \"#utility.yul\":2511:2831   */\n  swap2\n  swap1\n  pop\n  jump\t// out\n    /* \"#utility.yul\":2837:3118   */\ntag_54:\n    /* \"#utility.yul\":2920:2947   */\n  tag_73\n    /* \"#utility.yul\":2942:2946   */\n  dup3\n    /* \"#utility.yul\":2920:2947   */\n  tag_61\n  jump\t// in\ntag_73:\n    /* \"#utility.yul\":2912:2918   */\n  dup2\n    /* \"#utility.yul\":2908:2948   */\n  add\n    /* \"#utility.yul\":3050:3056   */\n  dup2\n    /* \"#utility.yul\":3038:3048   */\n  dup2\n    /* \"#utility.yul\":3035:3057   */\n  lt\n    /* \"#utility.yul\":3014:3032   */\n  0xffffffffffffffff\n    /* \"#utility.yul\":3002:3012   */\n  dup3\n    /* \"#utility.yul\":2999:3033   */\n  gt\n    /* \"#utility.yul\":2996:3058   */\n  or\n    /* \"#utility.yul\":2993:3081   */\n  iszero\n  tag_74\n  jumpi\n    /* \"#utility.yul\":3061:3079   */\n  tag_75\n  tag_59\n  jump\t// in\ntag_75:\n    /* \"#utility.yul\":2993:3081   */\ntag_74:\n    /* \"#utility.yul\":3101:3111   */\n  dup1\n    /* \"#utility.yul\":3097:3099   */\n  0x40\n    /* \"#utility.yul\":3090:3112   */\n  mstore\n    /* \"#utility.yul\":2880:3118   */\n  pop\n    /* \"#utility.yul\":2837:3118   */\n  pop\n  pop\n  jump\t// out\n    /* \"#utility.yul\":3124:3304   */\ntag_71:\n    /* \"#utility.yul\":3172:3249   */\n  0x4e487b7100000000000000000000000000000000000000000000000000000000\n    /* \"#utility.yul\":3169:3170   */\n  0x00\n    /* \"#utility.yul\":3162:3250   */\n  mstore\n    /* \"#utility.yul\":3269:3273   */\n  0x22\n    /* \"#utility.yul\":3266:3267   */\n  0x04\n    /* \"#utility.yul\":3259:3274   */\n  mstore\n    /* \"#utility.yul\":3293:3297   */\n  0x24\n    /* \"#utility.yul\":3290:3291   */\n  0x00\n    /* \"#utility.yul\":3283:3298   */\n  revert\n    /* \"#utility.yul\":3310:3490   */\ntag_59:\n    /* \"#utility.yul\":3358:3435   */\n  0x4e487b7100000000000000000000000000000000000000000000000000000000\n    /* \"#utility.yul\":3355:3356   */\n  0x00\n    /* \"#utility.yul\":3348:3436   */\n  mstore\n    /* \"#utility.yul\":3455:3459   */\n  0x41\n    /* \"#utility.yul\":3452:3453   */\n  0x04\n    /* \"#utility.yul\":3445:3460   */\n  mstore\n    /* \"#utility.yul\":3479:3483   */\n  0x24\n    /* \"#utility.yul\":3476:3477   */\n  0x00\n    /* \"#utility.yul\":3469:3484   */\n  revert\n    /* \"#utility.yul\":3496:3613   */\ntag_37:\n    /* \"#utility.yul\":3605:3606   */\n  0x00\n    /* \"#utility.yul\":3602:3603   */\n  dup1\n    /* \"#utility.yul\":3595:3607   */\n  revert\n    /* \"#utility.yul\":3619:3736   */\ntag_30:\n    /* \"#utility.yul\":3728:3729   */\n  0x00\n    /* \"#utility.yul\":3725:3726   */\n  dup1\n    /* \"#utility.yul\":3718:3730   */\n  revert\n    /* \"#utility.yul\":3742:3859   */\ntag_45:\n    /* \"#utility.yul\":3851:3852   */\n  0x00\n    /* \"#utility.yul\":3848:3849   */\n  dup1\n    /* \"#utility.yul\":3841:3853   */\n  revert\n    /* \"#utility.yul\":3865:3982   */\ntag_42:\n    /* \"#utility.yul\":3974:3975   */\n  0x00\n    /* \"#utility.yul\":3971:3972   */\n  dup1\n    /* \"#utility.yul\":3964:3976   */\n  revert\n    /* \"#utility.yul\":3988:4090   */\ntag_61:\n    /* \"#utility.yul\":4029:4035   */\n  0x00\n    /* \"#utility.yul\":4080:4082   */\n  0x1f\n    /* \"#utility.yul\":4076:4083   */\n  not\n    /* \"#utility.yul\":4071:4073   */\n  0x1f\n    /* \"#utility.yul\":4064:4069   */\n  dup4\n    /* \"#utility.yul\":4060:4074   */\n  add\n    /* \"#utility.yul\":4056:4084   */\n  and\n    /* \"#utility.yul\":4046:4084   */\n  swap1\n  pop\n    /* \"#utility.yul\":3988:4090   */\n  swap2\n  swap1\n  pop\n  jump\t// out\n    /* \"contract/token/ERC721.sol\":674:16074  contract ERC721 is Context, ERC165, IERC721, IERC721Metadata, HouseToken {\r... */\ntag_9:\n  dataSize(sub_0)\n  dup1\n  dataOffset(sub_0)\n  0x00\n  codecopy\n  0x00\n  return\nstop\n\nsub_0: assembly {\n        /* \"contract/token/ERC721.sol\":674:16074  contract ERC721 is Context, ERC165, IERC721, IERC721Metadata, HouseToken {\r... */\n      mstore(0x40, 0x80)\n      callvalue\n      dup1\n      iszero\n      tag_1\n      jumpi\n      0x00\n      dup1\n      revert\n    tag_1:\n      pop\n      jumpi(tag_2, lt(calldatasize, 0x04))\n      shr(0xe0, calldataload(0x00))\n      dup1\n      0x95d89b41\n      gt\n      tag_21\n      jumpi\n      dup1\n      0xb88d4fde\n      gt\n      tag_22\n      jumpi\n      dup1\n      0xb88d4fde\n      eq\n      tag_16\n      jumpi\n      dup1\n      0xc87b56dd\n      eq\n      tag_17\n      jumpi\n      dup1\n      0xd231f142\n      eq\n      tag_18\n      jumpi\n      dup1\n      0xe6cde56a\n      eq\n      tag_19\n      jumpi\n      dup1\n      0xe985e9c5\n      eq\n      tag_20\n      jumpi\n      jump(tag_2)\n    tag_22:\n      dup1\n      0x95d89b41\n      eq\n      tag_12\n      jumpi\n      dup1\n      0xa22cb465\n      eq\n      tag_13\n      jumpi\n      dup1\n      0xad50f56d\n      eq\n      tag_14\n      jumpi\n      dup1\n      0xaeda852f\n      eq\n      tag_15\n      jumpi\n      jump(tag_2)\n    tag_21:\n      dup1\n      0x095ea7b3\n      gt\n      tag_23\n      jumpi\n      dup1\n      0x095ea7b3\n      eq\n      tag_7\n      jumpi\n      dup1\n      0x23b872dd\n      eq\n      tag_8\n      jumpi\n      dup1\n      0x42842e0e\n      eq\n      tag_9\n      jumpi\n      dup1\n      0x6352211e\n      eq\n      tag_10\n      jumpi\n      dup1\n      0x70a08231\n      eq\n      tag_11\n      jumpi\n      jump(tag_2)\n    tag_23:\n      dup1\n      0x01ffc9a7\n      eq\n      tag_3\n      jumpi\n      dup1\n      0x0548fa4f\n      eq\n      tag_4\n      jumpi\n      dup1\n      0x06fdde03\n      eq\n      tag_5\n      jumpi\n      dup1\n      0x081812fc\n      eq\n      tag_6\n      jumpi\n    tag_2:\n      0x00\n      dup1\n      revert\n        /* \"contract/token/ERC721.sol\":2974:3279  function supportsInterface(bytes4 interfaceId) public view virtual override(ERC165, IERC165) returns (bool) {\r... */\n    tag_3:\n      tag_24\n      0x04\n      dup1\n      calldatasize\n      sub\n      dup2\n      add\n      swap1\n      tag_25\n      swap2\n      swap1\n      tag_26\n      jump\t// in\n    tag_25:\n      tag_27\n      jump\t// in\n    tag_24:\n      mload(0x40)\n      tag_28\n      swap2\n      swap1\n      tag_29\n      jump\t// in\n    tag_28:\n      mload(0x40)\n      dup1\n      swap2\n      sub\n      swap1\n      return\n        /* \"contract/token/ERC721.sol\":1943:2429  function addHouse(uint _houseId, uint _serialNumber, uint _price, uint _priceDai, uint _area, address _sellerAddress, string memory _houseAddress) external override {\r... */\n    tag_4:\n      tag_30\n      0x04\n      dup1\n      calldatasize\n      sub\n      dup2\n      add\n      swap1\n      tag_31\n      swap2\n      swap1\n      tag_32\n      jump\t// in\n    tag_31:\n      tag_33\n      jump\t// in\n    tag_30:\n      stop\n        /* \"contract/token/ERC721.sol\":3918:4018  function name() public view virtual override returns (string memory) {\r... */\n    tag_5:\n      tag_34\n      tag_35\n      jump\t// in\n    tag_34:\n      mload(0x40)\n      tag_36\n      swap2\n      swap1\n      tag_37\n      jump\t// in\n    tag_36:\n      mload(0x40)\n      dup1\n      swap2\n      sub\n      swap1\n      return\n        /* \"contract/token/ERC721.sol\":5478:5699  function getApproved(uint256 tokenId) public view virtual override returns (address) {\r... */\n    tag_6:\n      tag_38\n      0x04\n      dup1\n      calldatasize\n      sub\n      dup2\n      add\n      swap1\n      tag_39\n      swap2\n      swap1\n      tag_40\n      jump\t// in\n    tag_39:\n      tag_41\n      jump\t// in\n    tag_38:\n      mload(0x40)\n      tag_42\n      swap2\n      swap1\n      tag_43\n      jump\t// in\n    tag_42:\n      mload(0x40)\n      dup1\n      swap2\n      sub\n      swap1\n      return\n        /* \"contract/token/ERC721.sol\":5001:5412  function approve(address to, uint256 tokenId) public virtual override {\r... */\n    tag_7:\n      tag_44\n      0x04\n      dup1\n      calldatasize\n      sub\n      dup2\n      add\n      swap1\n      tag_45\n      swap2\n      swap1\n      tag_46\n      jump\t// in\n    tag_45:\n      tag_47\n      jump\t// in\n    tag_44:\n      stop\n        /* \"contract/token/ERC721.sol\":6228:6567  function transferFrom(\r... */\n    tag_8:\n      tag_48\n      0x04\n      dup1\n      calldatasize\n      sub\n      dup2\n      add\n      swap1\n      tag_49\n      swap2\n      swap1\n      tag_50\n      jump\t// in\n    tag_49:\n      tag_51\n      jump\t// in\n    tag_48:\n      stop\n        /* \"contract/token/ERC721.sol\":6638:6823  function safeTransferFrom(\r... */\n    tag_9:\n      tag_52\n      0x04\n      dup1\n      calldatasize\n      sub\n      dup2\n      add\n      swap1\n      tag_53\n      swap2\n      swap1\n      tag_50\n      jump\t// in\n    tag_53:\n      tag_54\n      jump\t// in\n    tag_52:\n      stop\n        /* \"contract/token/ERC721.sol\":3612:3851  function ownerOf(uint256 tokenId) public view virtual override returns (address) {\r... */\n    tag_10:\n      tag_55\n      0x04\n      dup1\n      calldatasize\n      sub\n      dup2\n      add\n      swap1\n      tag_56\n      swap2\n      swap1\n      tag_40\n      jump\t// in\n    tag_56:\n      tag_57\n      jump\t// in\n    tag_55:\n      mload(0x40)\n      tag_58\n      swap2\n      swap1\n      tag_43\n      jump\t// in\n    tag_58:\n      mload(0x40)\n      dup1\n      swap2\n      sub\n      swap1\n      return\n        /* \"contract/token/ERC721.sol\":3343:3550  function balanceOf(address owner) public view virtual override returns (uint256) {\r... */\n    tag_11:\n      tag_59\n      0x04\n      dup1\n      calldatasize\n      sub\n      dup2\n      add\n      swap1\n      tag_60\n      swap2\n      swap1\n      tag_61\n      jump\t// in\n    tag_60:\n      tag_62\n      jump\t// in\n    tag_59:\n      mload(0x40)\n      tag_63\n      swap2\n      swap1\n      tag_64\n      jump\t// in\n    tag_63:\n      mload(0x40)\n      dup1\n      swap2\n      sub\n      swap1\n      return\n        /* \"contract/token/ERC721.sol\":4087:4191  function symbol() public view virtual override returns (string memory) {\r... */\n    tag_12:\n      tag_65\n      tag_66\n      jump\t// in\n    tag_65:\n      mload(0x40)\n      tag_67\n      swap2\n      swap1\n      tag_37\n      jump\t// in\n    tag_67:\n      mload(0x40)\n      dup1\n      swap2\n      sub\n      swap1\n      return\n        /* \"contract/token/ERC721.sol\":5771:5926  function setApprovalForAll(address operator, bool approved) public virtual override {\r... */\n    tag_13:\n      tag_68\n      0x04\n      dup1\n      calldatasize\n      sub\n      dup2\n      add\n      swap1\n      tag_69\n      swap2\n      swap1\n      tag_70\n      jump\t// in\n    tag_69:\n      tag_71\n      jump\t// in\n    tag_68:\n      stop\n        /* \"contract/token/ERC721.sol\":2437:2565  function getHouseInfo(uint _houseId) external view returns(House memory) {\r... */\n    tag_14:\n      tag_72\n      0x04\n      dup1\n      calldatasize\n      sub\n      dup2\n      add\n      swap1\n      tag_73\n      swap2\n      swap1\n      tag_40\n      jump\t// in\n    tag_73:\n      tag_74\n      jump\t// in\n    tag_72:\n      mload(0x40)\n      tag_75\n      swap2\n      swap1\n      tag_76\n      jump\t// in\n    tag_75:\n      mload(0x40)\n      dup1\n      swap2\n      sub\n      swap1\n      return\n        /* \"contract/token/ERC721.sol\":1864:1900  mapping(uint => House) public houses */\n    tag_15:\n      tag_77\n      0x04\n      dup1\n      calldatasize\n      sub\n      dup2\n      add\n      swap1\n      tag_78\n      swap2\n      swap1\n      tag_40\n      jump\t// in\n    tag_78:\n      tag_79\n      jump\t// in\n    tag_77:\n      mload(0x40)\n      tag_80\n      swap10\n      swap9\n      swap8\n      swap7\n      swap6\n      swap5\n      swap4\n      swap3\n      swap2\n      swap1\n      tag_81\n      jump\t// in\n    tag_80:\n      mload(0x40)\n      dup1\n      swap2\n      sub\n      swap1\n      return\n        /* \"contract/token/ERC721.sol\":6894:7220  function safeTransferFrom(\r... */\n    tag_16:\n      tag_82\n      0x04\n      dup1\n      calldatasize\n      sub\n      dup2\n      add\n      swap1\n      tag_83\n      swap2\n      swap1\n      tag_84\n      jump\t// in\n    tag_83:\n      tag_85\n      jump\t// in\n    tag_82:\n      stop\n        /* \"contract/token/ERC721.sol\":4262:4596  function tokenURI(uint256 tokenId) public view virtual override returns (string memory) {\r... */\n    tag_17:\n      tag_86\n      0x04\n      dup1\n      calldatasize\n      sub\n      dup2\n      add\n      swap1\n      tag_87\n      swap2\n      swap1\n      tag_40\n      jump\t// in\n    tag_87:\n      tag_88\n      jump\t// in\n    tag_86:\n      mload(0x40)\n      tag_89\n      swap2\n      swap1\n      tag_37\n      jump\t// in\n    tag_89:\n      mload(0x40)\n      dup1\n      swap2\n      sub\n      swap1\n      return\n        /* \"contract/token/ERC721.sol\":2573:2688  function setDelistHouse(uint _houseId) external override{\r... */\n    tag_18:\n      tag_90\n      0x04\n      dup1\n      calldatasize\n      sub\n      dup2\n      add\n      swap1\n      tag_91\n      swap2\n      swap1\n      tag_40\n      jump\t// in\n    tag_91:\n      tag_92\n      jump\t// in\n    tag_90:\n      stop\n        /* \"contract/token/ERC721.sol\":2696:2843  function setbuyerAddress(uint _houseId, address _buyerAddress ) external override {\r... */\n    tag_19:\n      tag_93\n      0x04\n      dup1\n      calldatasize\n      sub\n      dup2\n      add\n      swap1\n      tag_94\n      swap2\n      swap1\n      tag_95\n      jump\t// in\n    tag_94:\n      tag_96\n      jump\t// in\n    tag_93:\n      stop\n        /* \"contract/token/ERC721.sol\":5997:6161  function isApprovedForAll(address owner, address operator) public view virtual override returns (bool) {\r... */\n    tag_20:\n      tag_97\n      0x04\n      dup1\n      calldatasize\n      sub\n      dup2\n      add\n      swap1\n      tag_98\n      swap2\n      swap1\n      tag_99\n      jump\t// in\n    tag_98:\n      tag_100\n      jump\t// in\n    tag_97:\n      mload(0x40)\n      tag_101\n      swap2\n      swap1\n      tag_29\n      jump\t// in\n    tag_101:\n      mload(0x40)\n      dup1\n      swap2\n      sub\n      swap1\n      return\n        /* \"contract/token/ERC721.sol\":2974:3279  function supportsInterface(bytes4 interfaceId) public view virtual override(ERC165, IERC165) returns (bool) {\r... */\n    tag_27:\n        /* \"contract/token/ERC721.sol\":3076:3080  bool */\n      0x00\n        /* \"contract/token/ERC721.sol\":3128:3153  type(IERC721).interfaceId */\n      0x80ac58cd00000000000000000000000000000000000000000000000000000000\n        /* \"contract/token/ERC721.sol\":3113:3153  interfaceId == type(IERC721).interfaceId */\n      not(0xffffffffffffffffffffffffffffffffffffffffffffffffffffffff)\n      and\n        /* \"contract/token/ERC721.sol\":3113:3124  interfaceId */\n      dup3\n        /* \"contract/token/ERC721.sol\":3113:3153  interfaceId == type(IERC721).interfaceId */\n      not(0xffffffffffffffffffffffffffffffffffffffffffffffffffffffff)\n      and\n      eq\n        /* \"contract/token/ERC721.sol\":3113:3218  interfaceId == type(IERC721).interfaceId ||\r... */\n      dup1\n      tag_103\n      jumpi\n      pop\n        /* \"contract/token/ERC721.sol\":3185:3218  type(IERC721Metadata).interfaceId */\n      0x5b5e139f00000000000000000000000000000000000000000000000000000000\n        /* \"contract/token/ERC721.sol\":3170:3218  interfaceId == type(IERC721Metadata).interfaceId */\n      not(0xffffffffffffffffffffffffffffffffffffffffffffffffffffffff)\n      and\n        /* \"contract/token/ERC721.sol\":3170:3181  interfaceId */\n      dup3\n        /* \"contract/token/ERC721.sol\":3170:3218  interfaceId == type(IERC721Metadata).interfaceId */\n      not(0xffffffffffffffffffffffffffffffffffffffffffffffffffffffff)\n      and\n      eq\n        /* \"contract/token/ERC721.sol\":3113:3218  interfaceId == type(IERC721).interfaceId ||\r... */\n    tag_103:\n        /* \"contract/token/ERC721.sol\":3113:3271  interfaceId == type(IERC721).interfaceId ||\r... */\n      dup1\n      tag_104\n      jumpi\n      pop\n        /* \"contract/token/ERC721.sol\":3235:3271  super.supportsInterface(interfaceId) */\n      tag_105\n        /* \"contract/token/ERC721.sol\":3259:3270  interfaceId */\n      dup3\n        /* \"contract/token/ERC721.sol\":3235:3258  super.supportsInterface */\n      tag_106\n        /* \"contract/token/ERC721.sol\":3235:3271  super.supportsInterface(interfaceId) */\n      jump\t// in\n    tag_105:\n        /* \"contract/token/ERC721.sol\":3113:3271  interfaceId == type(IERC721).interfaceId ||\r... */\n    tag_104:\n        /* \"contract/token/ERC721.sol\":3093:3271  return\r... */\n      swap1\n      pop\n        /* \"contract/token/ERC721.sol\":2974:3279  function supportsInterface(bytes4 interfaceId) public view virtual override(ERC165, IERC165) returns (bool) {\r... */\n      swap2\n      swap1\n      pop\n      jump\t// out\n        /* \"contract/token/ERC721.sol\":1943:2429  function addHouse(uint _houseId, uint _serialNumber, uint _price, uint _priceDai, uint _area, address _sellerAddress, string memory _houseAddress) external override {\r... */\n    tag_33:\n        /* \"contract/token/ERC721.sol\":2139:2145  houses */\n      0x06\n        /* \"contract/token/ERC721.sol\":2139:2155  houses[_houseId] */\n      0x00\n        /* \"contract/token/ERC721.sol\":2146:2154  _houseId */\n      dup9\n        /* \"contract/token/ERC721.sol\":2139:2155  houses[_houseId] */\n      dup2\n      mstore\n      0x20\n      add\n      swap1\n      dup2\n      mstore\n      0x20\n      add\n      0x00\n      keccak256\n        /* \"contract/token/ERC721.sol\":2139:2158  houses[_houseId].id */\n      0x00\n      add\n      sload\n        /* \"contract/token/ERC721.sol\":2127:2135  _houseId */\n      dup8\n        /* \"contract/token/ERC721.sol\":2127:2158  _houseId != houses[_houseId].id */\n      eq\n      iszero\n        /* \"contract/token/ERC721.sol\":2119:2190  require(_houseId != houses[_houseId].id, \"this houseId already exists\") */\n      tag_108\n      jumpi\n      mload(0x40)\n      0x08c379a000000000000000000000000000000000000000000000000000000000\n      dup2\n      mstore\n      0x04\n      add\n      tag_109\n      swap1\n      tag_110\n      jump\t// in\n    tag_109:\n      mload(0x40)\n      dup1\n      swap2\n      sub\n      swap1\n      revert\n    tag_108:\n        /* \"contract/token/ERC721.sol\":2220:2330  House(_houseId, _serialNumber, _price, _priceDai, _area, _sellerAddress, _sellerAddress, _houseAddress, false) */\n      mload(0x40)\n      dup1\n      0x0120\n      add\n      0x40\n      mstore\n      dup1\n        /* \"contract/token/ERC721.sol\":2226:2234  _houseId */\n      dup9\n        /* \"contract/token/ERC721.sol\":2220:2330  House(_houseId, _serialNumber, _price, _priceDai, _area, _sellerAddress, _sellerAddress, _houseAddress, false) */\n      dup2\n      mstore\n      0x20\n      add\n        /* \"contract/token/ERC721.sol\":2236:2249  _serialNumber */\n      dup8\n        /* \"contract/token/ERC721.sol\":2220:2330  House(_houseId, _serialNumber, _price, _priceDai, _area, _sellerAddress, _sellerAddress, _houseAddress, false) */\n      dup2\n      mstore\n      0x20\n      add\n        /* \"contract/token/ERC721.sol\":2251:2257  _price */\n      dup7\n        /* \"contract/token/ERC721.sol\":2220:2330  House(_houseId, _serialNumber, _price, _priceDai, _area, _sellerAddress, _sellerAddress, _houseAddress, false) */\n      dup2\n      mstore\n      0x20\n      add\n        /* \"contract/token/ERC721.sol\":2259:2268  _priceDai */\n      dup6\n        /* \"contract/token/ERC721.sol\":2220:2330  House(_houseId, _serialNumber, _price, _priceDai, _area, _sellerAddress, _sellerAddress, _houseAddress, false) */\n      dup2\n      mstore\n      0x20\n      add\n        /* \"contract/token/ERC721.sol\":2270:2275  _area */\n      dup5\n        /* \"contract/token/ERC721.sol\":2220:2330  House(_houseId, _serialNumber, _price, _priceDai, _area, _sellerAddress, _sellerAddress, _houseAddress, false) */\n      dup2\n      mstore\n      0x20\n      add\n        /* \"contract/token/ERC721.sol\":2277:2291  _sellerAddress */\n      dup4\n        /* \"contract/token/ERC721.sol\":2220:2330  House(_houseId, _serialNumber, _price, _priceDai, _area, _sellerAddress, _sellerAddress, _houseAddress, false) */\n      0xffffffffffffffffffffffffffffffffffffffff\n      and\n      dup2\n      mstore\n      0x20\n      add\n        /* \"contract/token/ERC721.sol\":2293:2307  _sellerAddress */\n      dup4\n        /* \"contract/token/ERC721.sol\":2220:2330  House(_houseId, _serialNumber, _price, _priceDai, _area, _sellerAddress, _sellerAddress, _houseAddress, false) */\n      0xffffffffffffffffffffffffffffffffffffffff\n      and\n      dup2\n      mstore\n      0x20\n      add\n        /* \"contract/token/ERC721.sol\":2309:2322  _houseAddress */\n      dup3\n        /* \"contract/token/ERC721.sol\":2220:2330  House(_houseId, _serialNumber, _price, _priceDai, _area, _sellerAddress, _sellerAddress, _houseAddress, false) */\n      dup2\n      mstore\n      0x20\n      add\n        /* \"contract/token/ERC721.sol\":2324:2329  false */\n      0x00\n        /* \"contract/token/ERC721.sol\":2220:2330  House(_houseId, _serialNumber, _price, _priceDai, _area, _sellerAddress, _sellerAddress, _houseAddress, false) */\n      iszero\n      iszero\n      dup2\n      mstore\n      pop\n        /* \"contract/token/ERC721.sol\":2201:2207  houses */\n      0x06\n        /* \"contract/token/ERC721.sol\":2201:2217  houses[_houseId] */\n      0x00\n        /* \"contract/token/ERC721.sol\":2208:2216  _houseId */\n      dup10\n        /* \"contract/token/ERC721.sol\":2201:2217  houses[_houseId] */\n      dup2\n      mstore\n      0x20\n      add\n      swap1\n      dup2\n      mstore\n      0x20\n      add\n      0x00\n      keccak256\n        /* \"contract/token/ERC721.sol\":2201:2330  houses[_houseId] = House(_houseId, _serialNumber, _price, _priceDai, _area, _sellerAddress, _sellerAddress, _houseAddress, false) */\n      0x00\n      dup3\n      add\n      mload\n      dup2\n      0x00\n      add\n      sstore\n      0x20\n      dup3\n      add\n      mload\n      dup2\n      0x01\n      add\n      sstore\n      0x40\n      dup3\n      add\n      mload\n      dup2\n      0x02\n      add\n      sstore\n      0x60\n      dup3\n      add\n      mload\n      dup2\n      0x03\n      add\n      sstore\n      0x80\n      dup3\n      add\n      mload\n      dup2\n      0x04\n      add\n      sstore\n      0xa0\n      dup3\n      add\n      mload\n      dup2\n      0x05\n      add\n      exp(0x0100, 0x00)\n      dup2\n      sload\n      dup2\n      0xffffffffffffffffffffffffffffffffffffffff\n      mul\n      not\n      and\n      swap1\n      dup4\n      0xffffffffffffffffffffffffffffffffffffffff\n      and\n      mul\n      or\n      swap1\n      sstore\n      pop\n      0xc0\n      dup3\n      add\n      mload\n      dup2\n      0x06\n      add\n      exp(0x0100, 0x00)\n      dup2\n      sload\n      dup2\n      0xffffffffffffffffffffffffffffffffffffffff\n      mul\n      not\n      and\n      swap1\n      dup4\n      0xffffffffffffffffffffffffffffffffffffffff\n      and\n      mul\n      or\n      swap1\n      sstore\n      pop\n      0xe0\n      dup3\n      add\n      mload\n      dup2\n      0x07\n      add\n      swap1\n      dup1\n      mload\n      swap1\n      0x20\n      add\n      swap1\n      tag_111\n      swap3\n      swap2\n      swap1\n      tag_112\n      jump\t// in\n    tag_111:\n      pop\n      0x0100\n      dup3\n      add\n      mload\n      dup2\n      0x08\n      add\n      exp(0x0100, 0x00)\n      dup2\n      sload\n      dup2\n      0xff\n      mul\n      not\n      and\n      swap1\n      dup4\n      iszero\n      iszero\n      mul\n      or\n      swap1\n      sstore\n      pop\n      swap1\n      pop\n      pop\n        /* \"contract/token/ERC721.sol\":2346:2421  AddNewTokenHouse(_houseId, _serialNumber, _price, _priceDai, _houseAddress) */\n      0x6f71ac8c8036718cca9ada265dd47c000f08b90cc3b041c7c50fb5a940c75f9d\n        /* \"contract/token/ERC721.sol\":2363:2371  _houseId */\n      dup8\n        /* \"contract/token/ERC721.sol\":2373:2386  _serialNumber */\n      dup8\n        /* \"contract/token/ERC721.sol\":2388:2394  _price */\n      dup8\n        /* \"contract/token/ERC721.sol\":2396:2405  _priceDai */\n      dup8\n        /* \"contract/token/ERC721.sol\":2407:2420  _houseAddress */\n      dup6\n        /* \"contract/token/ERC721.sol\":2346:2421  AddNewTokenHouse(_houseId, _serialNumber, _price, _priceDai, _houseAddress) */\n      mload(0x40)\n      tag_113\n      swap6\n      swap5\n      swap4\n      swap3\n      swap2\n      swap1\n      tag_114\n      jump\t// in\n    tag_113:\n      mload(0x40)\n      dup1\n      swap2\n      sub\n      swap1\n      log1\n        /* \"contract/token/ERC721.sol\":1943:2429  function addHouse(uint _houseId, uint _serialNumber, uint _price, uint _priceDai, uint _area, address _sellerAddress, string memory _houseAddress) external override {\r... */\n      pop\n      pop\n      pop\n      pop\n      pop\n      pop\n      pop\n      jump\t// out\n        /* \"contract/token/ERC721.sol\":3918:4018  function name() public view virtual override returns (string memory) {\r... */\n    tag_35:\n        /* \"contract/token/ERC721.sol\":3972:3985  string memory */\n      0x60\n        /* \"contract/token/ERC721.sol\":4005:4010  _name */\n      0x00\n        /* \"contract/token/ERC721.sol\":3998:4010  return _name */\n      dup1\n      sload\n      tag_116\n      swap1\n      tag_117\n      jump\t// in\n    tag_116:\n      dup1\n      0x1f\n      add\n      0x20\n      dup1\n      swap2\n      div\n      mul\n      0x20\n      add\n      mload(0x40)\n      swap1\n      dup2\n      add\n      0x40\n      mstore\n      dup1\n      swap3\n      swap2\n      swap1\n      dup2\n      dup2\n      mstore\n      0x20\n      add\n      dup3\n      dup1\n      sload\n      tag_118\n      swap1\n      tag_117\n      jump\t// in\n    tag_118:\n      dup1\n      iszero\n      tag_119\n      jumpi\n      dup1\n      0x1f\n      lt\n      tag_120\n      jumpi\n      0x0100\n      dup1\n      dup4\n      sload\n      div\n      mul\n      dup4\n      mstore\n      swap2\n      0x20\n      add\n      swap2\n      jump(tag_119)\n    tag_120:\n      dup3\n      add\n      swap2\n      swap1\n      0x00\n      mstore\n      keccak256(0x00, 0x20)\n      swap1\n    tag_121:\n      dup2\n      sload\n      dup2\n      mstore\n      swap1\n      0x01\n      add\n      swap1\n      0x20\n      add\n      dup1\n      dup4\n      gt\n      tag_121\n      jumpi\n      dup3\n      swap1\n      sub\n      0x1f\n      and\n      dup3\n      add\n      swap2\n    tag_119:\n      pop\n      pop\n      pop\n      pop\n      pop\n      swap1\n      pop\n        /* \"contract/token/ERC721.sol\":3918:4018  function name() public view virtual override returns (string memory) {\r... */\n      swap1\n      jump\t// out\n        /* \"contract/token/ERC721.sol\":5478:5699  function getApproved(uint256 tokenId) public view virtual override returns (address) {\r... */\n    tag_41:\n        /* \"contract/token/ERC721.sol\":5554:5561  address */\n      0x00\n        /* \"contract/token/ERC721.sol\":5582:5598  _exists(tokenId) */\n      tag_123\n        /* \"contract/token/ERC721.sol\":5590:5597  tokenId */\n      dup3\n        /* \"contract/token/ERC721.sol\":5582:5589  _exists */\n      tag_124\n        /* \"contract/token/ERC721.sol\":5582:5598  _exists(tokenId) */\n      jump\t// in\n    tag_123:\n        /* \"contract/token/ERC721.sol\":5574:5647  require(_exists(tokenId), \"ERC721: approved query for nonexistent token\") */\n      tag_125\n      jumpi\n      mload(0x40)\n      0x08c379a000000000000000000000000000000000000000000000000000000000\n      dup2\n      mstore\n      0x04\n      add\n      tag_126\n      swap1\n      tag_127\n      jump\t// in\n    tag_126:\n      mload(0x40)\n      dup1\n      swap2\n      sub\n      swap1\n      revert\n    tag_125:\n        /* \"contract/token/ERC721.sol\":5667:5682  _tokenApprovals */\n      0x04\n        /* \"contract/token/ERC721.sol\":5667:5691  _tokenApprovals[tokenId] */\n      0x00\n        /* \"contract/token/ERC721.sol\":5683:5690  tokenId */\n      dup4\n        /* \"contract/token/ERC721.sol\":5667:5691  _tokenApprovals[tokenId] */\n      dup2\n      mstore\n      0x20\n      add\n      swap1\n      dup2\n      mstore\n      0x20\n      add\n      0x00\n      keccak256\n      0x00\n      swap1\n      sload\n      swap1\n      0x0100\n      exp\n      swap1\n      div\n      0xffffffffffffffffffffffffffffffffffffffff\n      and\n        /* \"contract/token/ERC721.sol\":5660:5691  return _tokenApprovals[tokenId] */\n      swap1\n      pop\n        /* \"contract/token/ERC721.sol\":5478:5699  function getApproved(uint256 tokenId) public view virtual override returns (address) {\r... */\n      swap2\n      swap1\n      pop\n      jump\t// out\n        /* \"contract/token/ERC721.sol\":5001:5412  function approve(address to, uint256 tokenId) public virtual override {\r... */\n    tag_47:\n        /* \"contract/token/ERC721.sol\":5082:5095  address owner */\n      0x00\n        /* \"contract/token/ERC721.sol\":5098:5121  ERC721.ownerOf(tokenId) */\n      tag_129\n        /* \"contract/token/ERC721.sol\":5113:5120  tokenId */\n      dup3\n        /* \"contract/token/ERC721.sol\":5098:5112  ERC721.ownerOf */\n      tag_57\n        /* \"contract/token/ERC721.sol\":5098:5121  ERC721.ownerOf(tokenId) */\n      jump\t// in\n    tag_129:\n        /* \"contract/token/ERC721.sol\":5082:5121  address owner = ERC721.ownerOf(tokenId) */\n      swap1\n      pop\n        /* \"contract/token/ERC721.sol\":5146:5151  owner */\n      dup1\n        /* \"contract/token/ERC721.sol\":5140:5151  to != owner */\n      0xffffffffffffffffffffffffffffffffffffffff\n      and\n        /* \"contract/token/ERC721.sol\":5140:5142  to */\n      dup4\n        /* \"contract/token/ERC721.sol\":5140:5151  to != owner */\n      0xffffffffffffffffffffffffffffffffffffffff\n      and\n      eq\n      iszero\n        /* \"contract/token/ERC721.sol\":5132:5189  require(to != owner, \"ERC721: approval to current owner\") */\n      tag_130\n      jumpi\n      mload(0x40)\n      0x08c379a000000000000000000000000000000000000000000000000000000000\n      dup2\n      mstore\n      0x04\n      add\n      tag_131\n      swap1\n      tag_132\n      jump\t// in\n    tag_131:\n      mload(0x40)\n      dup1\n      swap2\n      sub\n      swap1\n      revert\n    tag_130:\n        /* \"contract/token/ERC721.sol\":5240:5245  owner */\n      dup1\n        /* \"contract/token/ERC721.sol\":5224:5245  _msgSender() == owner */\n      0xffffffffffffffffffffffffffffffffffffffff\n      and\n        /* \"contract/token/ERC721.sol\":5224:5236  _msgSender() */\n      tag_133\n        /* \"contract/token/ERC721.sol\":5224:5234  _msgSender */\n      tag_134\n        /* \"contract/token/ERC721.sol\":5224:5236  _msgSender() */\n      jump\t// in\n    tag_133:\n        /* \"contract/token/ERC721.sol\":5224:5245  _msgSender() == owner */\n      0xffffffffffffffffffffffffffffffffffffffff\n      and\n      eq\n        /* \"contract/token/ERC721.sol\":5224:5286  _msgSender() == owner || isApprovedForAll(owner, _msgSender()) */\n      dup1\n      tag_135\n      jumpi\n      pop\n        /* \"contract/token/ERC721.sol\":5249:5286  isApprovedForAll(owner, _msgSender()) */\n      tag_136\n        /* \"contract/token/ERC721.sol\":5266:5271  owner */\n      dup2\n        /* \"contract/token/ERC721.sol\":5273:5285  _msgSender() */\n      tag_137\n        /* \"contract/token/ERC721.sol\":5273:5283  _msgSender */\n      tag_134\n        /* \"contract/token/ERC721.sol\":5273:5285  _msgSender() */\n      jump\t// in\n    tag_137:\n        /* \"contract/token/ERC721.sol\":5249:5265  isApprovedForAll */\n      tag_100\n        /* \"contract/token/ERC721.sol\":5249:5286  isApprovedForAll(owner, _msgSender()) */\n      jump\t// in\n    tag_136:\n        /* \"contract/token/ERC721.sol\":5224:5286  _msgSender() == owner || isApprovedForAll(owner, _msgSender()) */\n    tag_135:\n        /* \"contract/token/ERC721.sol\":5202:5370  require(\r... */\n      tag_138\n      jumpi\n      mload(0x40)\n      0x08c379a000000000000000000000000000000000000000000000000000000000\n      dup2\n      mstore\n      0x04\n      add\n      tag_139\n      swap1\n      tag_140\n      jump\t// in\n    tag_139:\n      mload(0x40)\n      dup1\n      swap2\n      sub\n      swap1\n      revert\n    tag_138:\n        /* \"contract/token/ERC721.sol\":5383:5404  _approve(to, tokenId) */\n      tag_141\n        /* \"contract/token/ERC721.sol\":5392:5394  to */\n      dup4\n        /* \"contract/token/ERC721.sol\":5396:5403  tokenId */\n      dup4\n        /* \"contract/token/ERC721.sol\":5383:5391  _approve */\n      tag_142\n        /* \"contract/token/ERC721.sol\":5383:5404  _approve(to, tokenId) */\n      jump\t// in\n    tag_141:\n        /* \"contract/token/ERC721.sol\":5071:5412  {\r... */\n      pop\n        /* \"contract/token/ERC721.sol\":5001:5412  function approve(address to, uint256 tokenId) public virtual override {\r... */\n      pop\n      pop\n      jump\t// out\n        /* \"contract/token/ERC721.sol\":6228:6567  function transferFrom(\r... */\n    tag_51:\n        /* \"contract/token/ERC721.sol\":6423:6464  _isApprovedOrOwner(_msgSender(), tokenId) */\n      tag_144\n        /* \"contract/token/ERC721.sol\":6442:6454  _msgSender() */\n      tag_145\n        /* \"contract/token/ERC721.sol\":6442:6452  _msgSender */\n      tag_134\n        /* \"contract/token/ERC721.sol\":6442:6454  _msgSender() */\n      jump\t// in\n    tag_145:\n        /* \"contract/token/ERC721.sol\":6456:6463  tokenId */\n      dup3\n        /* \"contract/token/ERC721.sol\":6423:6441  _isApprovedOrOwner */\n      tag_146\n        /* \"contract/token/ERC721.sol\":6423:6464  _isApprovedOrOwner(_msgSender(), tokenId) */\n      jump\t// in\n    tag_144:\n        /* \"contract/token/ERC721.sol\":6415:6518  require(_isApprovedOrOwner(_msgSender(), tokenId), \"ERC721: transfer caller is not owner nor approved\") */\n      tag_147\n      jumpi\n      mload(0x40)\n      0x08c379a000000000000000000000000000000000000000000000000000000000\n      dup2\n      mstore\n      0x04\n      add\n      tag_148\n      swap1\n      tag_149\n      jump\t// in\n    tag_148:\n      mload(0x40)\n      dup1\n      swap2\n      sub\n      swap1\n      revert\n    tag_147:\n        /* \"contract/token/ERC721.sol\":6531:6559  _transfer(from, to, tokenId) */\n      tag_150\n        /* \"contract/token/ERC721.sol\":6541:6545  from */\n      dup4\n        /* \"contract/token/ERC721.sol\":6547:6549  to */\n      dup4\n        /* \"contract/token/ERC721.sol\":6551:6558  tokenId */\n      dup4\n        /* \"contract/token/ERC721.sol\":6531:6540  _transfer */\n      tag_151\n        /* \"contract/token/ERC721.sol\":6531:6559  _transfer(from, to, tokenId) */\n      jump\t// in\n    tag_150:\n        /* \"contract/token/ERC721.sol\":6228:6567  function transferFrom(\r... */\n      pop\n      pop\n      pop\n      jump\t// out\n        /* \"contract/token/ERC721.sol\":6638:6823  function safeTransferFrom(\r... */\n    tag_54:\n        /* \"contract/token/ERC721.sol\":6776:6815  safeTransferFrom(from, to, tokenId, \"\") */\n      tag_153\n        /* \"contract/token/ERC721.sol\":6793:6797  from */\n      dup4\n        /* \"contract/token/ERC721.sol\":6799:6801  to */\n      dup4\n        /* \"contract/token/ERC721.sol\":6803:6810  tokenId */\n      dup4\n        /* \"contract/token/ERC721.sol\":6776:6815  safeTransferFrom(from, to, tokenId, \"\") */\n      mload(0x40)\n      dup1\n      0x20\n      add\n      0x40\n      mstore\n      dup1\n      0x00\n      dup2\n      mstore\n      pop\n        /* \"contract/token/ERC721.sol\":6776:6792  safeTransferFrom */\n      tag_85\n        /* \"contract/token/ERC721.sol\":6776:6815  safeTransferFrom(from, to, tokenId, \"\") */\n      jump\t// in\n    tag_153:\n        /* \"contract/token/ERC721.sol\":6638:6823  function safeTransferFrom(\r... */\n      pop\n      pop\n      pop\n      jump\t// out\n        /* \"contract/token/ERC721.sol\":3612:3851  function ownerOf(uint256 tokenId) public view virtual override returns (address) {\r... */\n    tag_57:\n        /* \"contract/token/ERC721.sol\":3684:3691  address */\n      0x00\n        /* \"contract/token/ERC721.sol\":3704:3717  address owner */\n      dup1\n        /* \"contract/token/ERC721.sol\":3720:3727  _owners */\n      0x02\n        /* \"contract/token/ERC721.sol\":3720:3736  _owners[tokenId] */\n      0x00\n        /* \"contract/token/ERC721.sol\":3728:3735  tokenId */\n      dup5\n        /* \"contract/token/ERC721.sol\":3720:3736  _owners[tokenId] */\n      dup2\n      mstore\n      0x20\n      add\n      swap1\n      dup2\n      mstore\n      0x20\n      add\n      0x00\n      keccak256\n      0x00\n      swap1\n      sload\n      swap1\n      0x0100\n      exp\n      swap1\n      div\n      0xffffffffffffffffffffffffffffffffffffffff\n      and\n        /* \"contract/token/ERC721.sol\":3704:3736  address owner = _owners[tokenId] */\n      swap1\n      pop\n        /* \"contract/token/ERC721.sol\":3772:3773  0 */\n      0x00\n        /* \"contract/token/ERC721.sol\":3755:3774  owner != address(0) */\n      0xffffffffffffffffffffffffffffffffffffffff\n      and\n        /* \"contract/token/ERC721.sol\":3755:3760  owner */\n      dup2\n        /* \"contract/token/ERC721.sol\":3755:3774  owner != address(0) */\n      0xffffffffffffffffffffffffffffffffffffffff\n      and\n      eq\n      iszero\n        /* \"contract/token/ERC721.sol\":3747:3820  require(owner != address(0), \"ERC721: owner query for nonexistent token\") */\n      tag_155\n      jumpi\n      mload(0x40)\n      0x08c379a000000000000000000000000000000000000000000000000000000000\n      dup2\n      mstore\n      0x04\n      add\n      tag_156\n      swap1\n      tag_157\n      jump\t// in\n    tag_156:\n      mload(0x40)\n      dup1\n      swap2\n      sub\n      swap1\n      revert\n    tag_155:\n        /* \"contract/token/ERC721.sol\":3838:3843  owner */\n      dup1\n        /* \"contract/token/ERC721.sol\":3831:3843  return owner */\n      swap2\n      pop\n      pop\n        /* \"contract/token/ERC721.sol\":3612:3851  function ownerOf(uint256 tokenId) public view virtual override returns (address) {\r... */\n      swap2\n      swap1\n      pop\n      jump\t// out\n        /* \"contract/token/ERC721.sol\":3343:3550  function balanceOf(address owner) public view virtual override returns (uint256) {\r... */\n    tag_62:\n        /* \"contract/token/ERC721.sol\":3415:3422  uint256 */\n      0x00\n        /* \"contract/token/ERC721.sol\":3460:3461  0 */\n      dup1\n        /* \"contract/token/ERC721.sol\":3443:3462  owner != address(0) */\n      0xffffffffffffffffffffffffffffffffffffffff\n      and\n        /* \"contract/token/ERC721.sol\":3443:3448  owner */\n      dup3\n        /* \"contract/token/ERC721.sol\":3443:3462  owner != address(0) */\n      0xffffffffffffffffffffffffffffffffffffffff\n      and\n      eq\n      iszero\n        /* \"contract/token/ERC721.sol\":3435:3508  require(owner != address(0), \"ERC721: address zero is not a valid owner\") */\n      tag_159\n      jumpi\n      mload(0x40)\n      0x08c379a000000000000000000000000000000000000000000000000000000000\n      dup2\n      mstore\n      0x04\n      add\n      tag_160\n      swap1\n      tag_161\n      jump\t// in\n    tag_160:\n      mload(0x40)\n      dup1\n      swap2\n      sub\n      swap1\n      revert\n    tag_159:\n        /* \"contract/token/ERC721.sol\":3526:3535  _balances */\n      0x03\n        /* \"contract/token/ERC721.sol\":3526:3542  _balances[owner] */\n      0x00\n        /* \"contract/token/ERC721.sol\":3536:3541  owner */\n      dup4\n        /* \"contract/token/ERC721.sol\":3526:3542  _balances[owner] */\n      0xffffffffffffffffffffffffffffffffffffffff\n      and\n      0xffffffffffffffffffffffffffffffffffffffff\n      and\n      dup2\n      mstore\n      0x20\n      add\n      swap1\n      dup2\n      mstore\n      0x20\n      add\n      0x00\n      keccak256\n      sload\n        /* \"contract/token/ERC721.sol\":3519:3542  return _balances[owner] */\n      swap1\n      pop\n        /* \"contract/token/ERC721.sol\":3343:3550  function balanceOf(address owner) public view virtual override returns (uint256) {\r... */\n      swap2\n      swap1\n      pop\n      jump\t// out\n        /* \"contract/token/ERC721.sol\":4087:4191  function symbol() public view virtual override returns (string memory) {\r... */\n    tag_66:\n        /* \"contract/token/ERC721.sol\":4143:4156  string memory */\n      0x60\n        /* \"contract/token/ERC721.sol\":4176:4183  _symbol */\n      0x01\n        /* \"contract/token/ERC721.sol\":4169:4183  return _symbol */\n      dup1\n      sload\n      tag_163\n      swap1\n      tag_117\n      jump\t// in\n    tag_163:\n      dup1\n      0x1f\n      add\n      0x20\n      dup1\n      swap2\n      div\n      mul\n      0x20\n      add\n      mload(0x40)\n      swap1\n      dup2\n      add\n      0x40\n      mstore\n      dup1\n      swap3\n      swap2\n      swap1\n      dup2\n      dup2\n      mstore\n      0x20\n      add\n      dup3\n      dup1\n      sload\n      tag_164\n      swap1\n      tag_117\n      jump\t// in\n    tag_164:\n      dup1\n      iszero\n      tag_165\n      jumpi\n      dup1\n      0x1f\n      lt\n      tag_166\n      jumpi\n      0x0100\n      dup1\n      dup4\n      sload\n      div\n      mul\n      dup4\n      mstore\n      swap2\n      0x20\n      add\n      swap2\n      jump(tag_165)\n    tag_166:\n      dup3\n      add\n      swap2\n      swap1\n      0x00\n      mstore\n      keccak256(0x00, 0x20)\n      swap1\n    tag_167:\n      dup2\n      sload\n      dup2\n      mstore\n      swap1\n      0x01\n      add\n      swap1\n      0x20\n      add\n      dup1\n      dup4\n      gt\n      tag_167\n      jumpi\n      dup3\n      swap1\n      sub\n      0x1f\n      and\n      dup3\n      add\n      swap2\n    tag_165:\n      pop\n      pop\n      pop\n      pop\n      pop\n      swap1\n      pop\n        /* \"contract/token/ERC721.sol\":4087:4191  function symbol() public view virtual override returns (string memory) {\r... */\n      swap1\n      jump\t// out\n        /* \"contract/token/ERC721.sol\":5771:5926  function setApprovalForAll(address operator, bool approved) public virtual override {\r... */\n    tag_71:\n        /* \"contract/token/ERC721.sol\":5866:5918  _setApprovalForAll(_msgSender(), operator, approved) */\n      tag_169\n        /* \"contract/token/ERC721.sol\":5885:5897  _msgSender() */\n      tag_170\n        /* \"contract/token/ERC721.sol\":5885:5895  _msgSender */\n      tag_134\n        /* \"contract/token/ERC721.sol\":5885:5897  _msgSender() */\n      jump\t// in\n    tag_170:\n        /* \"contract/token/ERC721.sol\":5899:5907  operator */\n      dup4\n        /* \"contract/token/ERC721.sol\":5909:5917  approved */\n      dup4\n        /* \"contract/token/ERC721.sol\":5866:5884  _setApprovalForAll */\n      tag_171\n        /* \"contract/token/ERC721.sol\":5866:5918  _setApprovalForAll(_msgSender(), operator, approved) */\n      jump\t// in\n    tag_169:\n        /* \"contract/token/ERC721.sol\":5771:5926  function setApprovalForAll(address operator, bool approved) public virtual override {\r... */\n      pop\n      pop\n      jump\t// out\n        /* \"contract/token/ERC721.sol\":2437:2565  function getHouseInfo(uint _houseId) external view returns(House memory) {\r... */\n    tag_74:\n        /* \"contract/token/ERC721.sol\":2496:2508  House memory */\n      tag_172\n      tag_173\n      jump\t// in\n    tag_172:\n        /* \"contract/token/ERC721.sol\":2541:2547  houses */\n      0x06\n        /* \"contract/token/ERC721.sol\":2541:2557  houses[_houseId] */\n      0x00\n        /* \"contract/token/ERC721.sol\":2548:2556  _houseId */\n      dup4\n        /* \"contract/token/ERC721.sol\":2541:2557  houses[_houseId] */\n      dup2\n      mstore\n      0x20\n      add\n      swap1\n      dup2\n      mstore\n      0x20\n      add\n      0x00\n      keccak256\n        /* \"contract/token/ERC721.sol\":2534:2557  return houses[_houseId] */\n      mload(0x40)\n      dup1\n      0x0120\n      add\n      0x40\n      mstore\n      swap1\n      dup2\n      0x00\n      dup3\n      add\n      sload\n      dup2\n      mstore\n      0x20\n      add\n      0x01\n      dup3\n      add\n      sload\n      dup2\n      mstore\n      0x20\n      add\n      0x02\n      dup3\n      add\n      sload\n      dup2\n      mstore\n      0x20\n      add\n      0x03\n      dup3\n      add\n      sload\n      dup2\n      mstore\n      0x20\n      add\n      0x04\n      dup3\n      add\n      sload\n      dup2\n      mstore\n      0x20\n      add\n      0x05\n      dup3\n      add\n      0x00\n      swap1\n      sload\n      swap1\n      0x0100\n      exp\n      swap1\n      div\n      0xffffffffffffffffffffffffffffffffffffffff\n      and\n      0xffffffffffffffffffffffffffffffffffffffff\n      and\n      0xffffffffffffffffffffffffffffffffffffffff\n      and\n      dup2\n      mstore\n      0x20\n      add\n      0x06\n      dup3\n      add\n      0x00\n      swap1\n      sload\n      swap1\n      0x0100\n      exp\n      swap1\n      div\n      0xffffffffffffffffffffffffffffffffffffffff\n      and\n      0xffffffffffffffffffffffffffffffffffffffff\n      and\n      0xffffffffffffffffffffffffffffffffffffffff\n      and\n      dup2\n      mstore\n      0x20\n      add\n      0x07\n      dup3\n      add\n      dup1\n      sload\n      tag_175\n      swap1\n      tag_117\n      jump\t// in\n    tag_175:\n      dup1\n      0x1f\n      add\n      0x20\n      dup1\n      swap2\n      div\n      mul\n      0x20\n      add\n      mload(0x40)\n      swap1\n      dup2\n      add\n      0x40\n      mstore\n      dup1\n      swap3\n      swap2\n      swap1\n      dup2\n      dup2\n      mstore\n      0x20\n      add\n      dup3\n      dup1\n      sload\n      tag_176\n      swap1\n      tag_117\n      jump\t// in\n    tag_176:\n      dup1\n      iszero\n      tag_177\n      jumpi\n      dup1\n      0x1f\n      lt\n      tag_178\n      jumpi\n      0x0100\n      dup1\n      dup4\n      sload\n      div\n      mul\n      dup4\n      mstore\n      swap2\n      0x20\n      add\n      swap2\n      jump(tag_177)\n    tag_178:\n      dup3\n      add\n      swap2\n      swap1\n      0x00\n      mstore\n      keccak256(0x00, 0x20)\n      swap1\n    tag_179:\n      dup2\n      sload\n      dup2\n      mstore\n      swap1\n      0x01\n      add\n      swap1\n      0x20\n      add\n      dup1\n      dup4\n      gt\n      tag_179\n      jumpi\n      dup3\n      swap1\n      sub\n      0x1f\n      and\n      dup3\n      add\n      swap2\n    tag_177:\n      pop\n      pop\n      pop\n      pop\n      pop\n      dup2\n      mstore\n      0x20\n      add\n      0x08\n      dup3\n      add\n      0x00\n      swap1\n      sload\n      swap1\n      0x0100\n      exp\n      swap1\n      div\n      0xff\n      and\n      iszero\n      iszero\n      iszero\n      iszero\n      dup2\n      mstore\n      pop\n      pop\n      swap1\n      pop\n        /* \"contract/token/ERC721.sol\":2437:2565  function getHouseInfo(uint _houseId) external view returns(House memory) {\r... */\n      swap2\n      swap1\n      pop\n      jump\t// out\n        /* \"contract/token/ERC721.sol\":1864:1900  mapping(uint => House) public houses */\n    tag_79:\n      mstore(0x20, 0x06)\n      dup1\n      0x00\n      mstore\n      keccak256(0x00, 0x40)\n      0x00\n      swap2\n      pop\n      swap1\n      pop\n      dup1\n      0x00\n      add\n      sload\n      swap1\n      dup1\n      0x01\n      add\n      sload\n      swap1\n      dup1\n      0x02\n      add\n      sload\n      swap1\n      dup1\n      0x03\n      add\n      sload\n      swap1\n      dup1\n      0x04\n      add\n      sload\n      swap1\n      dup1\n      0x05\n      add\n      0x00\n      swap1\n      sload\n      swap1\n      0x0100\n      exp\n      swap1\n      div\n      0xffffffffffffffffffffffffffffffffffffffff\n      and\n      swap1\n      dup1\n      0x06\n      add\n      0x00\n      swap1\n      sload\n      swap1\n      0x0100\n      exp\n      swap1\n      div\n      0xffffffffffffffffffffffffffffffffffffffff\n      and\n      swap1\n      dup1\n      0x07\n      add\n      dup1\n      sload\n      tag_180\n      swap1\n      tag_117\n      jump\t// in\n    tag_180:\n      dup1\n      0x1f\n      add\n      0x20\n      dup1\n      swap2\n      div\n      mul\n      0x20\n      add\n      mload(0x40)\n      swap1\n      dup2\n      add\n      0x40\n      mstore\n      dup1\n      swap3\n      swap2\n      swap1\n      dup2\n      dup2\n      mstore\n      0x20\n      add\n      dup3\n      dup1\n      sload\n      tag_181\n      swap1\n      tag_117\n      jump\t// in\n    tag_181:\n      dup1\n      iszero\n      tag_182\n      jumpi\n      dup1\n      0x1f\n      lt\n      tag_183\n      jumpi\n      0x0100\n      dup1\n      dup4\n      sload\n      div\n      mul\n      dup4\n      mstore\n      swap2\n      0x20\n      add\n      swap2\n      jump(tag_182)\n    tag_183:\n      dup3\n      add\n      swap2\n      swap1\n      0x00\n      mstore\n      keccak256(0x00, 0x20)\n      swap1\n    tag_184:\n      dup2\n      sload\n      dup2\n      mstore\n      swap1\n      0x01\n      add\n      swap1\n      0x20\n      add\n      dup1\n      dup4\n      gt\n      tag_184\n      jumpi\n      dup3\n      swap1\n      sub\n      0x1f\n      and\n      dup3\n      add\n      swap2\n    tag_182:\n      pop\n      pop\n      pop\n      pop\n      pop\n      swap1\n      dup1\n      0x08\n      add\n      0x00\n      swap1\n      sload\n      swap1\n      0x0100\n      exp\n      swap1\n      div\n      0xff\n      and\n      swap1\n      pop\n      dup10\n      jump\t// out\n        /* \"contract/token/ERC721.sol\":6894:7220  function safeTransferFrom(\r... */\n    tag_85:\n        /* \"contract/token/ERC721.sol\":7068:7109  _isApprovedOrOwner(_msgSender(), tokenId) */\n      tag_186\n        /* \"contract/token/ERC721.sol\":7087:7099  _msgSender() */\n      tag_187\n        /* \"contract/token/ERC721.sol\":7087:7097  _msgSender */\n      tag_134\n        /* \"contract/token/ERC721.sol\":7087:7099  _msgSender() */\n      jump\t// in\n    tag_187:\n        /* \"contract/token/ERC721.sol\":7101:7108  tokenId */\n      dup4\n        /* \"contract/token/ERC721.sol\":7068:7086  _isApprovedOrOwner */\n      tag_146\n        /* \"contract/token/ERC721.sol\":7068:7109  _isApprovedOrOwner(_msgSender(), tokenId) */\n      jump\t// in\n    tag_186:\n        /* \"contract/token/ERC721.sol\":7060:7163  require(_isApprovedOrOwner(_msgSender(), tokenId), \"ERC721: transfer caller is not owner nor approved\") */\n      tag_188\n      jumpi\n      mload(0x40)\n      0x08c379a000000000000000000000000000000000000000000000000000000000\n      dup2\n      mstore\n      0x04\n      add\n      tag_189\n      swap1\n      tag_149\n      jump\t// in\n    tag_189:\n      mload(0x40)\n      dup1\n      swap2\n      sub\n      swap1\n      revert\n    tag_188:\n        /* \"contract/token/ERC721.sol\":7174:7212  _safeTransfer(from, to, tokenId, data) */\n      tag_190\n        /* \"contract/token/ERC721.sol\":7188:7192  from */\n      dup5\n        /* \"contract/token/ERC721.sol\":7194:7196  to */\n      dup5\n        /* \"contract/token/ERC721.sol\":7198:7205  tokenId */\n      dup5\n        /* \"contract/token/ERC721.sol\":7207:7211  data */\n      dup5\n        /* \"contract/token/ERC721.sol\":7174:7187  _safeTransfer */\n      tag_191\n        /* \"contract/token/ERC721.sol\":7174:7212  _safeTransfer(from, to, tokenId, data) */\n      jump\t// in\n    tag_190:\n        /* \"contract/token/ERC721.sol\":6894:7220  function safeTransferFrom(\r... */\n      pop\n      pop\n      pop\n      pop\n      jump\t// out\n        /* \"contract/token/ERC721.sol\":4262:4596  function tokenURI(uint256 tokenId) public view virtual override returns (string memory) {\r... */\n    tag_88:\n        /* \"contract/token/ERC721.sol\":4335:4348  string memory */\n      0x60\n        /* \"contract/token/ERC721.sol\":4369:4385  _exists(tokenId) */\n      tag_193\n        /* \"contract/token/ERC721.sol\":4377:4384  tokenId */\n      dup3\n        /* \"contract/token/ERC721.sol\":4369:4376  _exists */\n      tag_124\n        /* \"contract/token/ERC721.sol\":4369:4385  _exists(tokenId) */\n      jump\t// in\n    tag_193:\n        /* \"contract/token/ERC721.sol\":4361:4437  require(_exists(tokenId), \"ERC721Metadata: URI query for nonexistent token\") */\n      tag_194\n      jumpi\n      mload(0x40)\n      0x08c379a000000000000000000000000000000000000000000000000000000000\n      dup2\n      mstore\n      0x04\n      add\n      tag_195\n      swap1\n      tag_196\n      jump\t// in\n    tag_195:\n      mload(0x40)\n      dup1\n      swap2\n      sub\n      swap1\n      revert\n    tag_194:\n        /* \"contract/token/ERC721.sol\":4450:4471  string memory baseURI */\n      0x00\n        /* \"contract/token/ERC721.sol\":4474:4484  _baseURI() */\n      tag_197\n        /* \"contract/token/ERC721.sol\":4474:4482  _baseURI */\n      tag_198\n        /* \"contract/token/ERC721.sol\":4474:4484  _baseURI() */\n      jump\t// in\n    tag_197:\n        /* \"contract/token/ERC721.sol\":4450:4484  string memory baseURI = _baseURI() */\n      swap1\n      pop\n        /* \"contract/token/ERC721.sol\":4526:4527  0 */\n      0x00\n        /* \"contract/token/ERC721.sol\":4508:4515  baseURI */\n      dup2\n        /* \"contract/token/ERC721.sol\":4502:4523  bytes(baseURI).length */\n      mload\n        /* \"contract/token/ERC721.sol\":4502:4527  bytes(baseURI).length > 0 */\n      gt\n        /* \"contract/token/ERC721.sol\":4502:4588  bytes(baseURI).length > 0 ? string(abi.encodePacked(baseURI, tokenId.toString())) : \"\" */\n      tag_199\n      jumpi\n      mload(0x40)\n      dup1\n      0x20\n      add\n      0x40\n      mstore\n      dup1\n      0x00\n      dup2\n      mstore\n      pop\n      jump(tag_200)\n    tag_199:\n        /* \"contract/token/ERC721.sol\":4554:4561  baseURI */\n      dup1\n        /* \"contract/token/ERC721.sol\":4563:4581  tokenId.toString() */\n      tag_201\n        /* \"contract/token/ERC721.sol\":4563:4570  tokenId */\n      dup5\n        /* \"contract/token/ERC721.sol\":4563:4579  tokenId.toString */\n      tag_202\n        /* \"contract/token/ERC721.sol\":4563:4581  tokenId.toString() */\n      jump\t// in\n    tag_201:\n        /* \"contract/token/ERC721.sol\":4537:4582  abi.encodePacked(baseURI, tokenId.toString()) */\n      add(0x20, mload(0x40))\n      tag_203\n      swap3\n      swap2\n      swap1\n      tag_204\n      jump\t// in\n    tag_203:\n      mload(0x40)\n      0x20\n      dup2\n      dup4\n      sub\n      sub\n      dup2\n      mstore\n      swap1\n      0x40\n      mstore\n        /* \"contract/token/ERC721.sol\":4502:4588  bytes(baseURI).length > 0 ? string(abi.encodePacked(baseURI, tokenId.toString())) : \"\" */\n    tag_200:\n        /* \"contract/token/ERC721.sol\":4495:4588  return bytes(baseURI).length > 0 ? string(abi.encodePacked(baseURI, tokenId.toString())) : \"\" */\n      swap2\n      pop\n      pop\n        /* \"contract/token/ERC721.sol\":4262:4596  function tokenURI(uint256 tokenId) public view virtual override returns (string memory) {\r... */\n      swap2\n      swap1\n      pop\n      jump\t// out\n        /* \"contract/token/ERC721.sol\":2573:2688  function setDelistHouse(uint _houseId) external override{\r... */\n    tag_92:\n        /* \"contract/token/ERC721.sol\":2676:2680  true */\n      0x01\n        /* \"contract/token/ERC721.sol\":2641:2647  houses */\n      0x06\n        /* \"contract/token/ERC721.sol\":2641:2657  houses[_houseId] */\n      0x00\n        /* \"contract/token/ERC721.sol\":2648:2656  _houseId */\n      dup4\n        /* \"contract/token/ERC721.sol\":2641:2657  houses[_houseId] */\n      dup2\n      mstore\n      0x20\n      add\n      swap1\n      dup2\n      mstore\n      0x20\n      add\n      0x00\n      keccak256\n        /* \"contract/token/ERC721.sol\":2641:2673  houses[_houseId].isdelistedHouse */\n      0x08\n      add\n      0x00\n        /* \"contract/token/ERC721.sol\":2641:2680  houses[_houseId].isdelistedHouse = true */\n      0x0100\n      exp\n      dup2\n      sload\n      dup2\n      0xff\n      mul\n      not\n      and\n      swap1\n      dup4\n      iszero\n      iszero\n      mul\n      or\n      swap1\n      sstore\n      pop\n        /* \"contract/token/ERC721.sol\":2573:2688  function setDelistHouse(uint _houseId) external override{\r... */\n      pop\n      jump\t// out\n        /* \"contract/token/ERC721.sol\":2696:2843  function setbuyerAddress(uint _houseId, address _buyerAddress ) external override {\r... */\n    tag_96:\n        /* \"contract/token/ERC721.sol\":2822:2835  _buyerAddress */\n      dup1\n        /* \"contract/token/ERC721.sol\":2790:2796  houses */\n      0x06\n        /* \"contract/token/ERC721.sol\":2790:2806  houses[_houseId] */\n      0x00\n        /* \"contract/token/ERC721.sol\":2797:2805  _houseId */\n      dup5\n        /* \"contract/token/ERC721.sol\":2790:2806  houses[_houseId] */\n      dup2\n      mstore\n      0x20\n      add\n      swap1\n      dup2\n      mstore\n      0x20\n      add\n      0x00\n      keccak256\n        /* \"contract/token/ERC721.sol\":2790:2819  houses[_houseId].buyerAddress */\n      0x06\n      add\n      0x00\n        /* \"contract/token/ERC721.sol\":2790:2835  houses[_houseId].buyerAddress = _buyerAddress */\n      0x0100\n      exp\n      dup2\n      sload\n      dup2\n      0xffffffffffffffffffffffffffffffffffffffff\n      mul\n      not\n      and\n      swap1\n      dup4\n      0xffffffffffffffffffffffffffffffffffffffff\n      and\n      mul\n      or\n      swap1\n      sstore\n      pop\n        /* \"contract/token/ERC721.sol\":2696:2843  function setbuyerAddress(uint _houseId, address _buyerAddress ) external override {\r... */\n      pop\n      pop\n      jump\t// out\n        /* \"contract/token/ERC721.sol\":5997:6161  function isApprovedForAll(address owner, address operator) public view virtual override returns (bool) {\r... */\n    tag_100:\n        /* \"contract/token/ERC721.sol\":6094:6098  bool */\n      0x00\n        /* \"contract/token/ERC721.sol\":6118:6136  _operatorApprovals */\n      0x05\n        /* \"contract/token/ERC721.sol\":6118:6143  _operatorApprovals[owner] */\n      0x00\n        /* \"contract/token/ERC721.sol\":6137:6142  owner */\n      dup5\n        /* \"contract/token/ERC721.sol\":6118:6143  _operatorApprovals[owner] */\n      0xffffffffffffffffffffffffffffffffffffffff\n      and\n      0xffffffffffffffffffffffffffffffffffffffff\n      and\n      dup2\n      mstore\n      0x20\n      add\n      swap1\n      dup2\n      mstore\n      0x20\n      add\n      0x00\n      keccak256\n        /* \"contract/token/ERC721.sol\":6118:6153  _operatorApprovals[owner][operator] */\n      0x00\n        /* \"contract/token/ERC721.sol\":6144:6152  operator */\n      dup4\n        /* \"contract/token/ERC721.sol\":6118:6153  _operatorApprovals[owner][operator] */\n      0xffffffffffffffffffffffffffffffffffffffff\n      and\n      0xffffffffffffffffffffffffffffffffffffffff\n      and\n      dup2\n      mstore\n      0x20\n      add\n      swap1\n      dup2\n      mstore\n      0x20\n      add\n      0x00\n      keccak256\n      0x00\n      swap1\n      sload\n      swap1\n      0x0100\n      exp\n      swap1\n      div\n      0xff\n      and\n        /* \"contract/token/ERC721.sol\":6111:6153  return _operatorApprovals[owner][operator] */\n      swap1\n      pop\n        /* \"contract/token/ERC721.sol\":5997:6161  function isApprovedForAll(address owner, address operator) public view virtual override returns (bool) {\r... */\n      swap3\n      swap2\n      pop\n      pop\n      jump\t// out\n        /* \"utils/introspection/ERC165.sol\":854:1011  function supportsInterface(bytes4 interfaceId) public view virtual override returns (bool) {\r... */\n    tag_106:\n        /* \"utils/introspection/ERC165.sol\":939:943  bool */\n      0x00\n        /* \"utils/introspection/ERC165.sol\":978:1003  type(IERC165).interfaceId */\n      0x01ffc9a700000000000000000000000000000000000000000000000000000000\n        /* \"utils/introspection/ERC165.sol\":963:1003  interfaceId == type(IERC165).interfaceId */\n      not(0xffffffffffffffffffffffffffffffffffffffffffffffffffffffff)\n      and\n        /* \"utils/introspection/ERC165.sol\":963:974  interfaceId */\n      dup3\n        /* \"utils/introspection/ERC165.sol\":963:1003  interfaceId == type(IERC165).interfaceId */\n      not(0xffffffffffffffffffffffffffffffffffffffffffffffffffffffff)\n      and\n      eq\n        /* \"utils/introspection/ERC165.sol\":956:1003  return interfaceId == type(IERC165).interfaceId */\n      swap1\n      pop\n        /* \"utils/introspection/ERC165.sol\":854:1011  function supportsInterface(bytes4 interfaceId) public view virtual override returns (bool) {\r... */\n      swap2\n      swap1\n      pop\n      jump\t// out\n        /* \"contract/token/ERC721.sol\":8727:8854  function _exists(uint256 tokenId) internal view virtual returns (bool) {\r... */\n    tag_124:\n        /* \"contract/token/ERC721.sol\":8792:8796  bool */\n      0x00\n        /* \"contract/token/ERC721.sol\":8844:8845  0 */\n      dup1\n        /* \"contract/token/ERC721.sol\":8816:8846  _owners[tokenId] != address(0) */\n      0xffffffffffffffffffffffffffffffffffffffff\n      and\n        /* \"contract/token/ERC721.sol\":8816:8823  _owners */\n      0x02\n        /* \"contract/token/ERC721.sol\":8816:8832  _owners[tokenId] */\n      0x00\n        /* \"contract/token/ERC721.sol\":8824:8831  tokenId */\n      dup5\n        /* \"contract/token/ERC721.sol\":8816:8832  _owners[tokenId] */\n      dup2\n      mstore\n      0x20\n      add\n      swap1\n      dup2\n      mstore\n      0x20\n      add\n      0x00\n      keccak256\n      0x00\n      swap1\n      sload\n      swap1\n      0x0100\n      exp\n      swap1\n      div\n      0xffffffffffffffffffffffffffffffffffffffff\n      and\n        /* \"contract/token/ERC721.sol\":8816:8846  _owners[tokenId] != address(0) */\n      0xffffffffffffffffffffffffffffffffffffffff\n      and\n      eq\n      iszero\n        /* \"contract/token/ERC721.sol\":8809:8846  return _owners[tokenId] != address(0) */\n      swap1\n      pop\n        /* \"contract/token/ERC721.sol\":8727:8854  function _exists(uint256 tokenId) internal view virtual returns (bool) {\r... */\n      swap2\n      swap1\n      pop\n      jump\t// out\n        /* \"utils/Context.sol\":601:699  function _msgSender() internal view virtual returns (address) {\r... */\n    tag_134:\n        /* \"utils/Context.sol\":654:661  address */\n      0x00\n        /* \"utils/Context.sol\":681:691  msg.sender */\n      caller\n        /* \"utils/Context.sol\":674:691  return msg.sender */\n      swap1\n      pop\n        /* \"utils/Context.sol\":601:699  function _msgSender() internal view virtual returns (address) {\r... */\n      swap1\n      jump\t// out\n        /* \"contract/token/ERC721.sol\":12871:13045  function _approve(address to, uint256 tokenId) internal virtual {\r... */\n    tag_142:\n        /* \"contract/token/ERC721.sol\":12973:12975  to */\n      dup2\n        /* \"contract/token/ERC721.sol\":12946:12961  _tokenApprovals */\n      0x04\n        /* \"contract/token/ERC721.sol\":12946:12970  _tokenApprovals[tokenId] */\n      0x00\n        /* \"contract/token/ERC721.sol\":12962:12969  tokenId */\n      dup4\n        /* \"contract/token/ERC721.sol\":12946:12970  _tokenApprovals[tokenId] */\n      dup2\n      mstore\n      0x20\n      add\n      swap1\n      dup2\n      mstore\n      0x20\n      add\n      0x00\n      keccak256\n      0x00\n        /* \"contract/token/ERC721.sol\":12946:12975  _tokenApprovals[tokenId] = to */\n      0x0100\n      exp\n      dup2\n      sload\n      dup2\n      0xffffffffffffffffffffffffffffffffffffffff\n      mul\n      not\n      and\n      swap1\n      dup4\n      0xffffffffffffffffffffffffffffffffffffffff\n      and\n      mul\n      or\n      swap1\n      sstore\n      pop\n        /* \"contract/token/ERC721.sol\":13029:13036  tokenId */\n      dup1\n        /* \"contract/token/ERC721.sol\":13025:13027  to */\n      dup3\n        /* \"contract/token/ERC721.sol\":12991:13037  Approval(ERC721.ownerOf(tokenId), to, tokenId) */\n      0xffffffffffffffffffffffffffffffffffffffff\n      and\n        /* \"contract/token/ERC721.sol\":13000:13023  ERC721.ownerOf(tokenId) */\n      tag_212\n        /* \"contract/token/ERC721.sol\":13015:13022  tokenId */\n      dup4\n        /* \"contract/token/ERC721.sol\":13000:13014  ERC721.ownerOf */\n      tag_57\n        /* \"contract/token/ERC721.sol\":13000:13023  ERC721.ownerOf(tokenId) */\n      jump\t// in\n    tag_212:\n        /* \"contract/token/ERC721.sol\":12991:13037  Approval(ERC721.ownerOf(tokenId), to, tokenId) */\n      0xffffffffffffffffffffffffffffffffffffffff\n      and\n      0x8c5be1e5ebec7d5bd14f71427d1e84f3dd0314c0f7b2291e5b200ac8c7c3b925\n      mload(0x40)\n      mload(0x40)\n      dup1\n      swap2\n      sub\n      swap1\n      log4\n        /* \"contract/token/ERC721.sol\":12871:13045  function _approve(address to, uint256 tokenId) internal virtual {\r... */\n      pop\n      pop\n      jump\t// out\n        /* \"contract/token/ERC721.sol\":9021:9369  function _isApprovedOrOwner(address spender, uint256 tokenId) internal view virtual returns (bool) {\r... */\n    tag_146:\n        /* \"contract/token/ERC721.sol\":9114:9118  bool */\n      0x00\n        /* \"contract/token/ERC721.sol\":9139:9155  _exists(tokenId) */\n      tag_214\n        /* \"contract/token/ERC721.sol\":9147:9154  tokenId */\n      dup3\n        /* \"contract/token/ERC721.sol\":9139:9146  _exists */\n      tag_124\n        /* \"contract/token/ERC721.sol\":9139:9155  _exists(tokenId) */\n      jump\t// in\n    tag_214:\n        /* \"contract/token/ERC721.sol\":9131:9204  require(_exists(tokenId), \"ERC721: operator query for nonexistent token\") */\n      tag_215\n      jumpi\n      mload(0x40)\n      0x08c379a000000000000000000000000000000000000000000000000000000000\n      dup2\n      mstore\n      0x04\n      add\n      tag_216\n      swap1\n      tag_217\n      jump\t// in\n    tag_216:\n      mload(0x40)\n      dup1\n      swap2\n      sub\n      swap1\n      revert\n    tag_215:\n        /* \"contract/token/ERC721.sol\":9215:9228  address owner */\n      0x00\n        /* \"contract/token/ERC721.sol\":9231:9254  ERC721.ownerOf(tokenId) */\n      tag_218\n        /* \"contract/token/ERC721.sol\":9246:9253  tokenId */\n      dup4\n        /* \"contract/token/ERC721.sol\":9231:9245  ERC721.ownerOf */\n      tag_57\n        /* \"contract/token/ERC721.sol\":9231:9254  ERC721.ownerOf(tokenId) */\n      jump\t// in\n    tag_218:\n        /* \"contract/token/ERC721.sol\":9215:9254  address owner = ERC721.ownerOf(tokenId) */\n      swap1\n      pop\n        /* \"contract/token/ERC721.sol\":9284:9289  owner */\n      dup1\n        /* \"contract/token/ERC721.sol\":9273:9289  spender == owner */\n      0xffffffffffffffffffffffffffffffffffffffff\n      and\n        /* \"contract/token/ERC721.sol\":9273:9280  spender */\n      dup5\n        /* \"contract/token/ERC721.sol\":9273:9289  spender == owner */\n      0xffffffffffffffffffffffffffffffffffffffff\n      and\n      eq\n        /* \"contract/token/ERC721.sol\":9273:9325  spender == owner || isApprovedForAll(owner, spender) */\n      dup1\n      tag_219\n      jumpi\n      pop\n        /* \"contract/token/ERC721.sol\":9293:9325  isApprovedForAll(owner, spender) */\n      tag_220\n        /* \"contract/token/ERC721.sol\":9310:9315  owner */\n      dup2\n        /* \"contract/token/ERC721.sol\":9317:9324  spender */\n      dup6\n        /* \"contract/token/ERC721.sol\":9293:9309  isApprovedForAll */\n      tag_100\n        /* \"contract/token/ERC721.sol\":9293:9325  isApprovedForAll(owner, spender) */\n      jump\t// in\n    tag_220:\n        /* \"contract/token/ERC721.sol\":9273:9325  spender == owner || isApprovedForAll(owner, spender) */\n    tag_219:\n        /* \"contract/token/ERC721.sol\":9273:9360  spender == owner || isApprovedForAll(owner, spender) || getApproved(tokenId) == spender */\n      dup1\n      tag_221\n      jumpi\n      pop\n        /* \"contract/token/ERC721.sol\":9353:9360  spender */\n      dup4\n        /* \"contract/token/ERC721.sol\":9329:9360  getApproved(tokenId) == spender */\n      0xffffffffffffffffffffffffffffffffffffffff\n      and\n        /* \"contract/token/ERC721.sol\":9329:9349  getApproved(tokenId) */\n      tag_222\n        /* \"contract/token/ERC721.sol\":9341:9348  tokenId */\n      dup5\n        /* \"contract/token/ERC721.sol\":9329:9340  getApproved */\n      tag_41\n        /* \"contract/token/ERC721.sol\":9329:9349  getApproved(tokenId) */\n      jump\t// in\n    tag_222:\n        /* \"contract/token/ERC721.sol\":9329:9360  getApproved(tokenId) == spender */\n      0xffffffffffffffffffffffffffffffffffffffff\n      and\n      eq\n        /* \"contract/token/ERC721.sol\":9273:9360  spender == owner || isApprovedForAll(owner, spender) || getApproved(tokenId) == spender */\n    tag_221:\n        /* \"contract/token/ERC721.sol\":9265:9361  return (spender == owner || isApprovedForAll(owner, spender) || getApproved(tokenId) == spender) */\n      swap2\n      pop\n      pop\n        /* \"contract/token/ERC721.sol\":9021:9369  function _isApprovedOrOwner(address spender, uint256 tokenId) internal view virtual returns (bool) {\r... */\n      swap3\n      swap2\n      pop\n      pop\n      jump\t// out\n        /* \"contract/token/ERC721.sol\":12128:12753  function _transfer(\r... */\n    tag_151:\n        /* \"contract/token/ERC721.sol\":12287:12291  from */\n      dup3\n        /* \"contract/token/ERC721.sol\":12260:12291  ERC721.ownerOf(tokenId) == from */\n      0xffffffffffffffffffffffffffffffffffffffff\n      and\n        /* \"contract/token/ERC721.sol\":12260:12283  ERC721.ownerOf(tokenId) */\n      tag_224\n        /* \"contract/token/ERC721.sol\":12275:12282  tokenId */\n      dup3\n        /* \"contract/token/ERC721.sol\":12260:12274  ERC721.ownerOf */\n      tag_57\n        /* \"contract/token/ERC721.sol\":12260:12283  ERC721.ownerOf(tokenId) */\n      jump\t// in\n    tag_224:\n        /* \"contract/token/ERC721.sol\":12260:12291  ERC721.ownerOf(tokenId) == from */\n      0xffffffffffffffffffffffffffffffffffffffff\n      and\n      eq\n        /* \"contract/token/ERC721.sol\":12252:12333  require(ERC721.ownerOf(tokenId) == from, \"ERC721: transfer from incorrect owner\") */\n      tag_225\n      jumpi\n      mload(0x40)\n      0x08c379a000000000000000000000000000000000000000000000000000000000\n      dup2\n      mstore\n      0x04\n      add\n      tag_226\n      swap1\n      tag_227\n      jump\t// in\n    tag_226:\n      mload(0x40)\n      dup1\n      swap2\n      sub\n      swap1\n      revert\n    tag_225:\n        /* \"contract/token/ERC721.sol\":12366:12367  0 */\n      0x00\n        /* \"contract/token/ERC721.sol\":12352:12368  to != address(0) */\n      0xffffffffffffffffffffffffffffffffffffffff\n      and\n        /* \"contract/token/ERC721.sol\":12352:12354  to */\n      dup3\n        /* \"contract/token/ERC721.sol\":12352:12368  to != address(0) */\n      0xffffffffffffffffffffffffffffffffffffffff\n      and\n      eq\n      iszero\n        /* \"contract/token/ERC721.sol\":12344:12409  require(to != address(0), \"ERC721: transfer to the zero address\") */\n      tag_228\n      jumpi\n      mload(0x40)\n      0x08c379a000000000000000000000000000000000000000000000000000000000\n      dup2\n      mstore\n      0x04\n      add\n      tag_229\n      swap1\n      tag_230\n      jump\t// in\n    tag_229:\n      mload(0x40)\n      dup1\n      swap2\n      sub\n      swap1\n      revert\n    tag_228:\n        /* \"contract/token/ERC721.sol\":12422:12461  _beforeTokenTransfer(from, to, tokenId) */\n      tag_231\n        /* \"contract/token/ERC721.sol\":12443:12447  from */\n      dup4\n        /* \"contract/token/ERC721.sol\":12449:12451  to */\n      dup4\n        /* \"contract/token/ERC721.sol\":12453:12460  tokenId */\n      dup4\n        /* \"contract/token/ERC721.sol\":12422:12442  _beforeTokenTransfer */\n      tag_232\n        /* \"contract/token/ERC721.sol\":12422:12461  _beforeTokenTransfer(from, to, tokenId) */\n      jump\t// in\n    tag_231:\n        /* \"contract/token/ERC721.sol\":12526:12555  _approve(address(0), tokenId) */\n      tag_233\n        /* \"contract/token/ERC721.sol\":12543:12544  0 */\n      0x00\n        /* \"contract/token/ERC721.sol\":12547:12554  tokenId */\n      dup3\n        /* \"contract/token/ERC721.sol\":12526:12534  _approve */\n      tag_142\n        /* \"contract/token/ERC721.sol\":12526:12555  _approve(address(0), tokenId) */\n      jump\t// in\n    tag_233:\n        /* \"contract/token/ERC721.sol\":12587:12588  1 */\n      0x01\n        /* \"contract/token/ERC721.sol\":12568:12577  _balances */\n      0x03\n        /* \"contract/token/ERC721.sol\":12568:12583  _balances[from] */\n      0x00\n        /* \"contract/token/ERC721.sol\":12578:12582  from */\n      dup6\n        /* \"contract/token/ERC721.sol\":12568:12583  _balances[from] */\n      0xffffffffffffffffffffffffffffffffffffffff\n      and\n      0xffffffffffffffffffffffffffffffffffffffff\n      and\n      dup2\n      mstore\n      0x20\n      add\n      swap1\n      dup2\n      mstore\n      0x20\n      add\n      0x00\n      keccak256\n      0x00\n        /* \"contract/token/ERC721.sol\":12568:12588  _balances[from] -= 1 */\n      dup3\n      dup3\n      sload\n      tag_234\n      swap2\n      swap1\n      tag_235\n      jump\t// in\n    tag_234:\n      swap3\n      pop\n      pop\n      dup2\n      swap1\n      sstore\n      pop\n        /* \"contract/token/ERC721.sol\":12616:12617  1 */\n      0x01\n        /* \"contract/token/ERC721.sol\":12599:12608  _balances */\n      0x03\n        /* \"contract/token/ERC721.sol\":12599:12612  _balances[to] */\n      0x00\n        /* \"contract/token/ERC721.sol\":12609:12611  to */\n      dup5\n        /* \"contract/token/ERC721.sol\":12599:12612  _balances[to] */\n      0xffffffffffffffffffffffffffffffffffffffff\n      and\n      0xffffffffffffffffffffffffffffffffffffffff\n      and\n      dup2\n      mstore\n      0x20\n      add\n      swap1\n      dup2\n      mstore\n      0x20\n      add\n      0x00\n      keccak256\n      0x00\n        /* \"contract/token/ERC721.sol\":12599:12617  _balances[to] += 1 */\n      dup3\n      dup3\n      sload\n      tag_236\n      swap2\n      swap1\n      tag_237\n      jump\t// in\n    tag_236:\n      swap3\n      pop\n      pop\n      dup2\n      swap1\n      sstore\n      pop\n        /* \"contract/token/ERC721.sol\":12647:12649  to */\n      dup2\n        /* \"contract/token/ERC721.sol\":12628:12635  _owners */\n      0x02\n        /* \"contract/token/ERC721.sol\":12628:12644  _owners[tokenId] */\n      0x00\n        /* \"contract/token/ERC721.sol\":12636:12643  tokenId */\n      dup4\n        /* \"contract/token/ERC721.sol\":12628:12644  _owners[tokenId] */\n      dup2\n      mstore\n      0x20\n      add\n      swap1\n      dup2\n      mstore\n      0x20\n      add\n      0x00\n      keccak256\n      0x00\n        /* \"contract/token/ERC721.sol\":12628:12649  _owners[tokenId] = to */\n      0x0100\n      exp\n      dup2\n      sload\n      dup2\n      0xffffffffffffffffffffffffffffffffffffffff\n      mul\n      not\n      and\n      swap1\n      dup4\n      0xffffffffffffffffffffffffffffffffffffffff\n      and\n      mul\n      or\n      swap1\n      sstore\n      pop\n        /* \"contract/token/ERC721.sol\":12686:12693  tokenId */\n      dup1\n        /* \"contract/token/ERC721.sol\":12682:12684  to */\n      dup3\n        /* \"contract/token/ERC721.sol\":12667:12694  Transfer(from, to, tokenId) */\n      0xffffffffffffffffffffffffffffffffffffffff\n      and\n        /* \"contract/token/ERC721.sol\":12676:12680  from */\n      dup5\n        /* \"contract/token/ERC721.sol\":12667:12694  Transfer(from, to, tokenId) */\n      0xffffffffffffffffffffffffffffffffffffffff\n      and\n      0xddf252ad1be2c89b69c2b068fc378daa952ba7f163c4a11628f55a4df523b3ef\n      mload(0x40)\n      mload(0x40)\n      dup1\n      swap2\n      sub\n      swap1\n      log4\n        /* \"contract/token/ERC721.sol\":12707:12745  _afterTokenTransfer(from, to, tokenId) */\n      tag_238\n        /* \"contract/token/ERC721.sol\":12727:12731  from */\n      dup4\n        /* \"contract/token/ERC721.sol\":12733:12735  to */\n      dup4\n        /* \"contract/token/ERC721.sol\":12737:12744  tokenId */\n      dup4\n        /* \"contract/token/ERC721.sol\":12707:12726  _afterTokenTransfer */\n      tag_239\n        /* \"contract/token/ERC721.sol\":12707:12745  _afterTokenTransfer(from, to, tokenId) */\n      jump\t// in\n    tag_238:\n        /* \"contract/token/ERC721.sol\":12128:12753  function _transfer(\r... */\n      pop\n      pop\n      pop\n      jump\t// out\n        /* \"contract/token/ERC721.sol\":13187:13502  function _setApprovalForAll(\r... */\n    tag_171:\n        /* \"contract/token/ERC721.sol\":13342:13350  operator */\n      dup2\n        /* \"contract/token/ERC721.sol\":13333:13350  owner != operator */\n      0xffffffffffffffffffffffffffffffffffffffff\n      and\n        /* \"contract/token/ERC721.sol\":13333:13338  owner */\n      dup4\n        /* \"contract/token/ERC721.sol\":13333:13350  owner != operator */\n      0xffffffffffffffffffffffffffffffffffffffff\n      and\n      eq\n      iszero\n        /* \"contract/token/ERC721.sol\":13325:13380  require(owner != operator, \"ERC721: approve to caller\") */\n      tag_241\n      jumpi\n      mload(0x40)\n      0x08c379a000000000000000000000000000000000000000000000000000000000\n      dup2\n      mstore\n      0x04\n      add\n      tag_242\n      swap1\n      tag_243\n      jump\t// in\n    tag_242:\n      mload(0x40)\n      dup1\n      swap2\n      sub\n      swap1\n      revert\n    tag_241:\n        /* \"contract/token/ERC721.sol\":13429:13437  approved */\n      dup1\n        /* \"contract/token/ERC721.sol\":13391:13409  _operatorApprovals */\n      0x05\n        /* \"contract/token/ERC721.sol\":13391:13416  _operatorApprovals[owner] */\n      0x00\n        /* \"contract/token/ERC721.sol\":13410:13415  owner */\n      dup6\n        /* \"contract/token/ERC721.sol\":13391:13416  _operatorApprovals[owner] */\n      0xffffffffffffffffffffffffffffffffffffffff\n      and\n      0xffffffffffffffffffffffffffffffffffffffff\n      and\n      dup2\n      mstore\n      0x20\n      add\n      swap1\n      dup2\n      mstore\n      0x20\n      add\n      0x00\n      keccak256\n        /* \"contract/token/ERC721.sol\":13391:13426  _operatorApprovals[owner][operator] */\n      0x00\n        /* \"contract/token/ERC721.sol\":13417:13425  operator */\n      dup5\n        /* \"contract/token/ERC721.sol\":13391:13426  _operatorApprovals[owner][operator] */\n      0xffffffffffffffffffffffffffffffffffffffff\n      and\n      0xffffffffffffffffffffffffffffffffffffffff\n      and\n      dup2\n      mstore\n      0x20\n      add\n      swap1\n      dup2\n      mstore\n      0x20\n      add\n      0x00\n      keccak256\n      0x00\n        /* \"contract/token/ERC721.sol\":13391:13437  _operatorApprovals[owner][operator] = approved */\n      0x0100\n      exp\n      dup2\n      sload\n      dup2\n      0xff\n      mul\n      not\n      and\n      swap1\n      dup4\n      iszero\n      iszero\n      mul\n      or\n      swap1\n      sstore\n      pop\n        /* \"contract/token/ERC721.sol\":13475:13483  operator */\n      dup2\n        /* \"contract/token/ERC721.sol\":13453:13494  ApprovalForAll(owner, operator, approved) */\n      0xffffffffffffffffffffffffffffffffffffffff\n      and\n        /* \"contract/token/ERC721.sol\":13468:13473  owner */\n      dup4\n        /* \"contract/token/ERC721.sol\":13453:13494  ApprovalForAll(owner, operator, approved) */\n      0xffffffffffffffffffffffffffffffffffffffff\n      and\n      0x17307eab39ab6107e8899845ad3d59bd9653f200f220920489ca2b5937696c31\n        /* \"contract/token/ERC721.sol\":13485:13493  approved */\n      dup4\n        /* \"contract/token/ERC721.sol\":13453:13494  ApprovalForAll(owner, operator, approved) */\n      mload(0x40)\n      tag_244\n      swap2\n      swap1\n      tag_29\n      jump\t// in\n    tag_244:\n      mload(0x40)\n      dup1\n      swap2\n      sub\n      swap1\n      log3\n        /* \"contract/token/ERC721.sol\":13187:13502  function _setApprovalForAll(\r... */\n      pop\n      pop\n      pop\n      jump\t// out\n        /* \"contract/token/ERC721.sol\":8101:8414  function _safeTransfer(\r... */\n    tag_191:\n        /* \"contract/token/ERC721.sol\":8257:8285  _transfer(from, to, tokenId) */\n      tag_246\n        /* \"contract/token/ERC721.sol\":8267:8271  from */\n      dup5\n        /* \"contract/token/ERC721.sol\":8273:8275  to */\n      dup5\n        /* \"contract/token/ERC721.sol\":8277:8284  tokenId */\n      dup5\n        /* \"contract/token/ERC721.sol\":8257:8266  _transfer */\n      tag_151\n        /* \"contract/token/ERC721.sol\":8257:8285  _transfer(from, to, tokenId) */\n      jump\t// in\n    tag_246:\n        /* \"contract/token/ERC721.sol\":8304:8351  _checkOnERC721Received(from, to, tokenId, data) */\n      tag_247\n        /* \"contract/token/ERC721.sol\":8327:8331  from */\n      dup5\n        /* \"contract/token/ERC721.sol\":8333:8335  to */\n      dup5\n        /* \"contract/token/ERC721.sol\":8337:8344  tokenId */\n      dup5\n        /* \"contract/token/ERC721.sol\":8346:8350  data */\n      dup5\n        /* \"contract/token/ERC721.sol\":8304:8326  _checkOnERC721Received */\n      tag_248\n        /* \"contract/token/ERC721.sol\":8304:8351  _checkOnERC721Received(from, to, tokenId, data) */\n      jump\t// in\n    tag_247:\n        /* \"contract/token/ERC721.sol\":8296:8406  require(_checkOnERC721Received(from, to, tokenId, data), \"ERC721: transfer to non ERC721Receiver implementer\") */\n      tag_249\n      jumpi\n      mload(0x40)\n      0x08c379a000000000000000000000000000000000000000000000000000000000\n      dup2\n      mstore\n      0x04\n      add\n      tag_250\n      swap1\n      tag_251\n      jump\t// in\n    tag_250:\n      mload(0x40)\n      dup1\n      swap2\n      sub\n      swap1\n      revert\n    tag_249:\n        /* \"contract/token/ERC721.sol\":8101:8414  function _safeTransfer(\r... */\n      pop\n      pop\n      pop\n      pop\n      jump\t// out\n        /* \"contract/token/ERC721.sol\":4845:4939  function _baseURI() internal view virtual returns (string memory) {\r... */\n    tag_198:\n        /* \"contract/token/ERC721.sol\":4896:4909  string memory */\n      0x60\n        /* \"contract/token/ERC721.sol\":4922:4931  return \"\" */\n      mload(0x40)\n      dup1\n      0x20\n      add\n      0x40\n      mstore\n      dup1\n      0x00\n      dup2\n      mstore\n      pop\n      swap1\n      pop\n        /* \"contract/token/ERC721.sol\":4845:4939  function _baseURI() internal view virtual returns (string memory) {\r... */\n      swap1\n      jump\t// out\n        /* \"utils/Strings.sol\":342:1065  function toString(uint256 value) internal pure returns (string memory) {\r... */\n    tag_202:\n        /* \"utils/Strings.sol\":398:411  string memory */\n      0x60\n        /* \"utils/Strings.sol\":628:629  0 */\n      0x00\n        /* \"utils/Strings.sol\":619:624  value */\n      dup3\n        /* \"utils/Strings.sol\":619:629  value == 0 */\n      eq\n        /* \"utils/Strings.sol\":615:668  if (value == 0) {\r... */\n      iszero\n      tag_254\n      jumpi\n        /* \"utils/Strings.sol\":646:656  return \"0\" */\n      mload(0x40)\n      dup1\n      0x40\n      add\n      0x40\n      mstore\n      dup1\n      0x01\n      dup2\n      mstore\n      0x20\n      add\n      0x3000000000000000000000000000000000000000000000000000000000000000\n      dup2\n      mstore\n      pop\n      swap1\n      pop\n      jump(tag_253)\n        /* \"utils/Strings.sol\":615:668  if (value == 0) {\r... */\n    tag_254:\n        /* \"utils/Strings.sol\":678:690  uint256 temp */\n      0x00\n        /* \"utils/Strings.sol\":693:698  value */\n      dup3\n        /* \"utils/Strings.sol\":678:698  uint256 temp = value */\n      swap1\n      pop\n        /* \"utils/Strings.sol\":709:723  uint256 digits */\n      0x00\n        /* \"utils/Strings.sol\":734:812  while (temp != 0) {\r... */\n    tag_255:\n        /* \"utils/Strings.sol\":749:750  0 */\n      0x00\n        /* \"utils/Strings.sol\":741:745  temp */\n      dup3\n        /* \"utils/Strings.sol\":741:750  temp != 0 */\n      eq\n        /* \"utils/Strings.sol\":734:812  while (temp != 0) {\r... */\n      tag_256\n      jumpi\n        /* \"utils/Strings.sol\":767:775  digits++ */\n      dup1\n      dup1\n      tag_257\n      swap1\n      tag_258\n      jump\t// in\n    tag_257:\n      swap2\n      pop\n      pop\n        /* \"utils/Strings.sol\":798:800  10 */\n      0x0a\n        /* \"utils/Strings.sol\":790:800  temp /= 10 */\n      dup3\n      tag_259\n      swap2\n      swap1\n      tag_260\n      jump\t// in\n    tag_259:\n      swap2\n      pop\n        /* \"utils/Strings.sol\":734:812  while (temp != 0) {\r... */\n      jump(tag_255)\n    tag_256:\n        /* \"utils/Strings.sol\":822:841  bytes memory buffer */\n      0x00\n        /* \"utils/Strings.sol\":854:860  digits */\n      dup2\n        /* \"utils/Strings.sol\":844:861  new bytes(digits) */\n      0xffffffffffffffff\n      dup2\n      gt\n      iszero\n      tag_261\n      jumpi\n      tag_262\n      tag_263\n      jump\t// in\n    tag_262:\n    tag_261:\n      mload(0x40)\n      swap1\n      dup1\n      dup3\n      mstore\n      dup1\n      0x1f\n      add\n      not(0x1f)\n      and\n      0x20\n      add\n      dup3\n      add\n      0x40\n      mstore\n      dup1\n      iszero\n      tag_264\n      jumpi\n      dup2\n      0x20\n      add\n      0x01\n      dup3\n      mul\n      dup1\n      calldatasize\n      dup4\n      calldatacopy\n      dup1\n      dup3\n      add\n      swap2\n      pop\n      pop\n      swap1\n      pop\n    tag_264:\n      pop\n        /* \"utils/Strings.sol\":822:861  bytes memory buffer = new bytes(digits) */\n      swap1\n      pop\n        /* \"utils/Strings.sol\":872:1026  while (value != 0) {\r... */\n    tag_265:\n        /* \"utils/Strings.sol\":888:889  0 */\n      0x00\n        /* \"utils/Strings.sol\":879:884  value */\n      dup6\n        /* \"utils/Strings.sol\":879:889  value != 0 */\n      eq\n        /* \"utils/Strings.sol\":872:1026  while (value != 0) {\r... */\n      tag_266\n      jumpi\n        /* \"utils/Strings.sol\":916:917  1 */\n      0x01\n        /* \"utils/Strings.sol\":906:917  digits -= 1 */\n      dup3\n      tag_267\n      swap2\n      swap1\n      tag_235\n      jump\t// in\n    tag_267:\n      swap2\n      pop\n        /* \"utils/Strings.sol\":983:985  10 */\n      0x0a\n        /* \"utils/Strings.sol\":975:980  value */\n      dup6\n        /* \"utils/Strings.sol\":975:985  value % 10 */\n      tag_268\n      swap2\n      swap1\n      tag_269\n      jump\t// in\n    tag_268:\n        /* \"utils/Strings.sol\":962:964  48 */\n      0x30\n        /* \"utils/Strings.sol\":962:986  48 + uint256(value % 10) */\n      tag_270\n      swap2\n      swap1\n      tag_237\n      jump\t// in\n    tag_270:\n        /* \"utils/Strings.sol\":949:988  bytes1(uint8(48 + uint256(value % 10))) */\n      0xf8\n      shl\n        /* \"utils/Strings.sol\":932:938  buffer */\n      dup2\n        /* \"utils/Strings.sol\":939:945  digits */\n      dup4\n        /* \"utils/Strings.sol\":932:946  buffer[digits] */\n      dup2\n      mload\n      dup2\n      lt\n      tag_271\n      jumpi\n      tag_272\n      tag_273\n      jump\t// in\n    tag_272:\n    tag_271:\n      0x20\n      add\n      add\n        /* \"utils/Strings.sol\":932:988  buffer[digits] = bytes1(uint8(48 + uint256(value % 10))) */\n      swap1\n      not(0xffffffffffffffffffffffffffffffffffffffffffffffffffffffffffffff)\n      and\n      swap1\n      dup2\n      0x00\n      byte\n      swap1\n      mstore8\n      pop\n        /* \"utils/Strings.sol\":1012:1014  10 */\n      0x0a\n        /* \"utils/Strings.sol\":1003:1014  value /= 10 */\n      dup6\n      tag_274\n      swap2\n      swap1\n      tag_260\n      jump\t// in\n    tag_274:\n      swap5\n      pop\n        /* \"utils/Strings.sol\":872:1026  while (value != 0) {\r... */\n      jump(tag_265)\n    tag_266:\n        /* \"utils/Strings.sol\":1050:1056  buffer */\n      dup1\n        /* \"utils/Strings.sol\":1036:1057  return string(buffer) */\n      swap4\n      pop\n      pop\n      pop\n      pop\n        /* \"utils/Strings.sol\":342:1065  function toString(uint256 value) internal pure returns (string memory) {\r... */\n    tag_253:\n      swap2\n      swap1\n      pop\n      jump\t// out\n        /* \"contract/token/ERC721.sol\":15435:15561  function _beforeTokenTransfer(\r... */\n    tag_232:\n      pop\n      pop\n      pop\n      jump\t// out\n        /* \"contract/token/ERC721.sol\":15946:16071  function _afterTokenTransfer(\r... */\n    tag_239:\n      pop\n      pop\n      pop\n      jump\t// out\n        /* \"contract/token/ERC721.sol\":14066:14863  function _checkOnERC721Received(\r... */\n    tag_248:\n        /* \"contract/token/ERC721.sol\":14220:14224  bool */\n      0x00\n        /* \"contract/token/ERC721.sol\":14241:14256  to.isContract() */\n      tag_278\n        /* \"contract/token/ERC721.sol\":14241:14243  to */\n      dup5\n        /* \"contract/token/ERC721.sol\":14241:14254  to.isContract */\n      0xffffffffffffffffffffffffffffffffffffffff\n      and\n      tag_279\n        /* \"contract/token/ERC721.sol\":14241:14256  to.isContract() */\n      jump\t// in\n    tag_278:\n        /* \"contract/token/ERC721.sol\":14237:14856  if (to.isContract()) {\r... */\n      iszero\n      tag_280\n      jumpi\n        /* \"contract/token/ERC721.sol\":14293:14295  to */\n      dup4\n        /* \"contract/token/ERC721.sol\":14277:14313  IERC721Receiver(to).onERC721Received */\n      0xffffffffffffffffffffffffffffffffffffffff\n      and\n      0x150b7a02\n        /* \"contract/token/ERC721.sol\":14314:14326  _msgSender() */\n      tag_281\n        /* \"contract/token/ERC721.sol\":14314:14324  _msgSender */\n      tag_134\n        /* \"contract/token/ERC721.sol\":14314:14326  _msgSender() */\n      jump\t// in\n    tag_281:\n        /* \"contract/token/ERC721.sol\":14328:14332  from */\n      dup8\n        /* \"contract/token/ERC721.sol\":14334:14341  tokenId */\n      dup7\n        /* \"contract/token/ERC721.sol\":14343:14347  data */\n      dup7\n        /* \"contract/token/ERC721.sol\":14277:14348  IERC721Receiver(to).onERC721Received(_msgSender(), from, tokenId, data) */\n      mload(0x40)\n      dup6\n      0xffffffff\n      and\n      0xe0\n      shl\n      dup2\n      mstore\n      0x04\n      add\n      tag_282\n      swap5\n      swap4\n      swap3\n      swap2\n      swap1\n      tag_283\n      jump\t// in\n    tag_282:\n      0x20\n      mload(0x40)\n      dup1\n      dup4\n      sub\n      dup2\n      0x00\n      dup8\n      dup1\n      extcodesize\n      iszero\n      dup1\n      iszero\n      tag_284\n      jumpi\n      0x00\n      dup1\n      revert\n    tag_284:\n      pop\n      gas\n      call\n      swap3\n      pop\n      pop\n      pop\n      dup1\n      iszero\n      tag_285\n      jumpi\n      pop\n      mload(0x40)\n      returndatasize\n      not(0x1f)\n      0x1f\n      dup3\n      add\n      and\n      dup3\n      add\n      dup1\n      0x40\n      mstore\n      pop\n      dup2\n      add\n      swap1\n      tag_286\n      swap2\n      swap1\n      tag_287\n      jump\t// in\n    tag_286:\n      0x01\n    tag_285:\n        /* \"contract/token/ERC721.sol\":14273:14801  try IERC721Receiver(to).onERC721Received(_msgSender(), from, tokenId, data) returns (bytes4 retval) {\r... */\n      tag_288\n      jumpi\n      returndatasize\n      dup1\n      0x00\n      dup2\n      eq\n      tag_293\n      jumpi\n      mload(0x40)\n      swap2\n      pop\n      and(add(returndatasize, 0x3f), not(0x1f))\n      dup3\n      add\n      0x40\n      mstore\n      returndatasize\n      dup3\n      mstore\n      returndatasize\n      0x00\n      0x20\n      dup5\n      add\n      returndatacopy\n      jump(tag_292)\n    tag_293:\n      0x60\n      swap2\n      pop\n    tag_292:\n      pop\n        /* \"contract/token/ERC721.sol\":14535:14536  0 */\n      0x00\n        /* \"contract/token/ERC721.sol\":14518:14524  reason */\n      dup2\n        /* \"contract/token/ERC721.sol\":14518:14531  reason.length */\n      mload\n        /* \"contract/token/ERC721.sol\":14518:14536  reason.length == 0 */\n      eq\n        /* \"contract/token/ERC721.sol\":14514:14786  if (reason.length == 0) {\r... */\n      iszero\n      tag_294\n      jumpi\n        /* \"contract/token/ERC721.sol\":14561:14621  revert(\"ERC721: transfer to non ERC721Receiver implementer\") */\n      mload(0x40)\n      0x08c379a000000000000000000000000000000000000000000000000000000000\n      dup2\n      mstore\n      0x04\n      add\n      tag_295\n      swap1\n      tag_251\n      jump\t// in\n    tag_295:\n      mload(0x40)\n      dup1\n      swap2\n      sub\n      swap1\n      revert\n        /* \"contract/token/ERC721.sol\":14514:14786  if (reason.length == 0) {\r... */\n    tag_294:\n        /* \"contract/token/ERC721.sol\":14736:14742  reason */\n      dup1\n        /* \"contract/token/ERC721.sol\":14730:14743  mload(reason) */\n      mload\n        /* \"contract/token/ERC721.sol\":14721:14727  reason */\n      dup2\n        /* \"contract/token/ERC721.sol\":14717:14719  32 */\n      0x20\n        /* \"contract/token/ERC721.sol\":14713:14728  add(32, reason) */\n      add\n        /* \"contract/token/ERC721.sol\":14706:14744  revert(add(32, reason), mload(reason)) */\n      revert\n        /* \"contract/token/ERC721.sol\":14273:14801  try IERC721Receiver(to).onERC721Received(_msgSender(), from, tokenId, data) returns (bytes4 retval) {\r... */\n    tag_288:\n        /* \"contract/token/ERC721.sol\":14409:14450  IERC721Receiver.onERC721Received.selector */\n      shl(0xe0, 0x150b7a02)\n        /* \"contract/token/ERC721.sol\":14399:14450  retval == IERC721Receiver.onERC721Received.selector */\n      not(0xffffffffffffffffffffffffffffffffffffffffffffffffffffffff)\n      and\n        /* \"contract/token/ERC721.sol\":14399:14405  retval */\n      dup2\n        /* \"contract/token/ERC721.sol\":14399:14450  retval == IERC721Receiver.onERC721Received.selector */\n      not(0xffffffffffffffffffffffffffffffffffffffffffffffffffffffff)\n      and\n      eq\n        /* \"contract/token/ERC721.sol\":14392:14450  return retval == IERC721Receiver.onERC721Received.selector */\n      swap2\n      pop\n      pop\n      jump(tag_277)\n        /* \"contract/token/ERC721.sol\":14237:14856  if (to.isContract()) {\r... */\n    tag_280:\n        /* \"contract/token/ERC721.sol\":14840:14844  true */\n      0x01\n        /* \"contract/token/ERC721.sol\":14833:14844  return true */\n      swap1\n      pop\n        /* \"contract/token/ERC721.sol\":14066:14863  function _checkOnERC721Received(\r... */\n    tag_277:\n      swap5\n      swap4\n      pop\n      pop\n      pop\n      pop\n      jump\t// out\n        /* \"utils/Address.sol\":1210:1536  function isContract(address account) internal view returns (bool) {\r... */\n    tag_279:\n        /* \"utils/Address.sol\":1270:1274  bool */\n      0x00\n        /* \"utils/Address.sol\":1527:1528  0 */\n      dup1\n        /* \"utils/Address.sol\":1505:1512  account */\n      dup3\n        /* \"utils/Address.sol\":1505:1524  account.code.length */\n      0xffffffffffffffffffffffffffffffffffffffff\n      and\n      extcodesize\n        /* \"utils/Address.sol\":1505:1528  account.code.length > 0 */\n      gt\n        /* \"utils/Address.sol\":1498:1528  return account.code.length > 0 */\n      swap1\n      pop\n        /* \"utils/Address.sol\":1210:1536  function isContract(address account) internal view returns (bool) {\r... */\n      swap2\n      swap1\n      pop\n      jump\t// out\n    tag_112:\n      dup3\n      dup1\n      sload\n      tag_300\n      swap1\n      tag_117\n      jump\t// in\n    tag_300:\n      swap1\n      0x00\n      mstore\n      keccak256(0x00, 0x20)\n      swap1\n      0x1f\n      add\n      0x20\n      swap1\n      div\n      dup2\n      add\n      swap3\n      dup3\n      tag_302\n      jumpi\n      0x00\n      dup6\n      sstore\n      jump(tag_301)\n    tag_302:\n      dup3\n      0x1f\n      lt\n      tag_303\n      jumpi\n      dup1\n      mload\n      not(0xff)\n      and\n      dup4\n      dup1\n      add\n      or\n      dup6\n      sstore\n      jump(tag_301)\n    tag_303:\n      dup3\n      dup1\n      add\n      0x01\n      add\n      dup6\n      sstore\n      dup3\n      iszero\n      tag_301\n      jumpi\n      swap2\n      dup3\n      add\n    tag_304:\n      dup3\n      dup2\n      gt\n      iszero\n      tag_305\n      jumpi\n      dup3\n      mload\n      dup3\n      sstore\n      swap2\n      0x20\n      add\n      swap2\n      swap1\n      0x01\n      add\n      swap1\n      jump(tag_304)\n    tag_305:\n    tag_301:\n      pop\n      swap1\n      pop\n      tag_306\n      swap2\n      swap1\n      tag_307\n      jump\t// in\n    tag_306:\n      pop\n      swap1\n      jump\t// out\n    tag_173:\n      mload(0x40)\n      dup1\n      0x0120\n      add\n      0x40\n      mstore\n      dup1\n      0x00\n      dup2\n      mstore\n      0x20\n      add\n      0x00\n      dup2\n      mstore\n      0x20\n      add\n      0x00\n      dup2\n      mstore\n      0x20\n      add\n      0x00\n      dup2\n      mstore\n      0x20\n      add\n      0x00\n      dup2\n      mstore\n      0x20\n      add\n      and(0xffffffffffffffffffffffffffffffffffffffff, 0x00)\n      dup2\n      mstore\n      0x20\n      add\n      and(0xffffffffffffffffffffffffffffffffffffffff, 0x00)\n      dup2\n      mstore\n      0x20\n      add\n      0x60\n      dup2\n      mstore\n      0x20\n      add\n      iszero(iszero(0x00))\n      dup2\n      mstore\n      pop\n      swap1\n      jump\t// out\n    tag_307:\n    tag_308:\n      dup1\n      dup3\n      gt\n      iszero\n      tag_309\n      jumpi\n      0x00\n      dup2\n      0x00\n      swap1\n      sstore\n      pop\n      0x01\n      add\n      jump(tag_308)\n    tag_309:\n      pop\n      swap1\n      jump\t// out\n        /* \"#utility.yul\":7:417   */\n    tag_311:\n        /* \"#utility.yul\":84:89   */\n      0x00\n        /* \"#utility.yul\":109:174   */\n      tag_313\n        /* \"#utility.yul\":125:173   */\n      tag_314\n        /* \"#utility.yul\":166:172   */\n      dup5\n        /* \"#utility.yul\":125:173   */\n      tag_315\n      jump\t// in\n    tag_314:\n        /* \"#utility.yul\":109:174   */\n      tag_316\n      jump\t// in\n    tag_313:\n        /* \"#utility.yul\":100:174   */\n      swap1\n      pop\n        /* \"#utility.yul\":197:203   */\n      dup3\n        /* \"#utility.yul\":190:195   */\n      dup2\n        /* \"#utility.yul\":183:204   */\n      mstore\n        /* \"#utility.yul\":235:239   */\n      0x20\n        /* \"#utility.yul\":228:233   */\n      dup2\n        /* \"#utility.yul\":224:240   */\n      add\n        /* \"#utility.yul\":273:276   */\n      dup5\n        /* \"#utility.yul\":264:270   */\n      dup5\n        /* \"#utility.yul\":259:262   */\n      dup5\n        /* \"#utility.yul\":255:271   */\n      add\n        /* \"#utility.yul\":252:277   */\n      gt\n        /* \"#utility.yul\":249:361   */\n      iszero\n      tag_317\n      jumpi\n        /* \"#utility.yul\":280:359   */\n      tag_318\n      tag_319\n      jump\t// in\n    tag_318:\n        /* \"#utility.yul\":249:361   */\n    tag_317:\n        /* \"#utility.yul\":370:411   */\n      tag_320\n        /* \"#utility.yul\":404:410   */\n      dup5\n        /* \"#utility.yul\":399:402   */\n      dup3\n        /* \"#utility.yul\":394:397   */\n      dup6\n        /* \"#utility.yul\":370:411   */\n      tag_321\n      jump\t// in\n    tag_320:\n        /* \"#utility.yul\":90:417   */\n      pop\n        /* \"#utility.yul\":7:417   */\n      swap4\n      swap3\n      pop\n      pop\n      pop\n      jump\t// out\n        /* \"#utility.yul\":423:835   */\n    tag_322:\n        /* \"#utility.yul\":501:506   */\n      0x00\n        /* \"#utility.yul\":526:592   */\n      tag_324\n        /* \"#utility.yul\":542:591   */\n      tag_325\n        /* \"#utility.yul\":584:590   */\n      dup5\n        /* \"#utility.yul\":542:591   */\n      tag_326\n      jump\t// in\n    tag_325:\n        /* \"#utility.yul\":526:592   */\n      tag_316\n      jump\t// in\n    tag_324:\n        /* \"#utility.yul\":517:592   */\n      swap1\n      pop\n        /* \"#utility.yul\":615:621   */\n      dup3\n        /* \"#utility.yul\":608:613   */\n      dup2\n        /* \"#utility.yul\":601:622   */\n      mstore\n        /* \"#utility.yul\":653:657   */\n      0x20\n        /* \"#utility.yul\":646:651   */\n      dup2\n        /* \"#utility.yul\":642:658   */\n      add\n        /* \"#utility.yul\":691:694   */\n      dup5\n        /* \"#utility.yul\":682:688   */\n      dup5\n        /* \"#utility.yul\":677:680   */\n      dup5\n        /* \"#utility.yul\":673:689   */\n      add\n        /* \"#utility.yul\":670:695   */\n      gt\n        /* \"#utility.yul\":667:779   */\n      iszero\n      tag_327\n      jumpi\n        /* \"#utility.yul\":698:777   */\n      tag_328\n      tag_319\n      jump\t// in\n    tag_328:\n        /* \"#utility.yul\":667:779   */\n    tag_327:\n        /* \"#utility.yul\":788:829   */\n      tag_329\n        /* \"#utility.yul\":822:828   */\n      dup5\n        /* \"#utility.yul\":817:820   */\n      dup3\n        /* \"#utility.yul\":812:815   */\n      dup6\n        /* \"#utility.yul\":788:829   */\n      tag_321\n      jump\t// in\n    tag_329:\n        /* \"#utility.yul\":507:835   */\n      pop\n        /* \"#utility.yul\":423:835   */\n      swap4\n      swap3\n      pop\n      pop\n      pop\n      jump\t// out\n        /* \"#utility.yul\":841:980   */\n    tag_330:\n        /* \"#utility.yul\":887:892   */\n      0x00\n        /* \"#utility.yul\":925:931   */\n      dup2\n        /* \"#utility.yul\":912:932   */\n      calldataload\n        /* \"#utility.yul\":903:932   */\n      swap1\n      pop\n        /* \"#utility.yul\":941:974   */\n      tag_332\n        /* \"#utility.yul\":968:973   */\n      dup2\n        /* \"#utility.yul\":941:974   */\n      tag_333\n      jump\t// in\n    tag_332:\n        /* \"#utility.yul\":841:980   */\n      swap3\n      swap2\n      pop\n      pop\n      jump\t// out\n        /* \"#utility.yul\":986:1119   */\n    tag_334:\n        /* \"#utility.yul\":1029:1034   */\n      0x00\n        /* \"#utility.yul\":1067:1073   */\n      dup2\n        /* \"#utility.yul\":1054:1074   */\n      calldataload\n        /* \"#utility.yul\":1045:1074   */\n      swap1\n      pop\n        /* \"#utility.yul\":1083:1113   */\n      tag_336\n        /* \"#utility.yul\":1107:1112   */\n      dup2\n        /* \"#utility.yul\":1083:1113   */\n      tag_337\n      jump\t// in\n    tag_336:\n        /* \"#utility.yul\":986:1119   */\n      swap3\n      swap2\n      pop\n      pop\n      jump\t// out\n        /* \"#utility.yul\":1125:1262   */\n    tag_338:\n        /* \"#utility.yul\":1170:1175   */\n      0x00\n        /* \"#utility.yul\":1208:1214   */\n      dup2\n        /* \"#utility.yul\":1195:1215   */\n      calldataload\n        /* \"#utility.yul\":1186:1215   */\n      swap1\n      pop\n        /* \"#utility.yul\":1224:1256   */\n      tag_340\n        /* \"#utility.yul\":1250:1255   */\n      dup2\n        /* \"#utility.yul\":1224:1256   */\n      tag_341\n      jump\t// in\n    tag_340:\n        /* \"#utility.yul\":1125:1262   */\n      swap3\n      swap2\n      pop\n      pop\n      jump\t// out\n        /* \"#utility.yul\":1268:1409   */\n    tag_342:\n        /* \"#utility.yul\":1324:1329   */\n      0x00\n        /* \"#utility.yul\":1355:1361   */\n      dup2\n        /* \"#utility.yul\":1349:1362   */\n      mload\n        /* \"#utility.yul\":1340:1362   */\n      swap1\n      pop\n        /* \"#utility.yul\":1371:1403   */\n      tag_344\n        /* \"#utility.yul\":1397:1402   */\n      dup2\n        /* \"#utility.yul\":1371:1403   */\n      tag_341\n      jump\t// in\n    tag_344:\n        /* \"#utility.yul\":1268:1409   */\n      swap3\n      swap2\n      pop\n      pop\n      jump\t// out\n        /* \"#utility.yul\":1428:1766   */\n    tag_345:\n        /* \"#utility.yul\":1483:1488   */\n      0x00\n        /* \"#utility.yul\":1532:1535   */\n      dup3\n        /* \"#utility.yul\":1525:1529   */\n      0x1f\n        /* \"#utility.yul\":1517:1523   */\n      dup4\n        /* \"#utility.yul\":1513:1530   */\n      add\n        /* \"#utility.yul\":1509:1536   */\n      slt\n        /* \"#utility.yul\":1499:1621   */\n      tag_347\n      jumpi\n        /* \"#utility.yul\":1540:1619   */\n      tag_348\n      tag_349\n      jump\t// in\n    tag_348:\n        /* \"#utility.yul\":1499:1621   */\n    tag_347:\n        /* \"#utility.yul\":1657:1663   */\n      dup2\n        /* \"#utility.yul\":1644:1664   */\n      calldataload\n        /* \"#utility.yul\":1682:1760   */\n      tag_350\n        /* \"#utility.yul\":1756:1759   */\n      dup5\n        /* \"#utility.yul\":1748:1754   */\n      dup3\n        /* \"#utility.yul\":1741:1745   */\n      0x20\n        /* \"#utility.yul\":1733:1739   */\n      dup7\n        /* \"#utility.yul\":1729:1746   */\n      add\n        /* \"#utility.yul\":1682:1760   */\n      tag_311\n      jump\t// in\n    tag_350:\n        /* \"#utility.yul\":1673:1760   */\n      swap2\n      pop\n        /* \"#utility.yul\":1489:1766   */\n      pop\n        /* \"#utility.yul\":1428:1766   */\n      swap3\n      swap2\n      pop\n      pop\n      jump\t// out\n        /* \"#utility.yul\":1786:2126   */\n    tag_351:\n        /* \"#utility.yul\":1842:1847   */\n      0x00\n        /* \"#utility.yul\":1891:1894   */\n      dup3\n        /* \"#utility.yul\":1884:1888   */\n      0x1f\n        /* \"#utility.yul\":1876:1882   */\n      dup4\n        /* \"#utility.yul\":1872:1889   */\n      add\n        /* \"#utility.yul\":1868:1895   */\n      slt\n        /* \"#utility.yul\":1858:1980   */\n      tag_353\n      jumpi\n        /* \"#utility.yul\":1899:1978   */\n      tag_354\n      tag_349\n      jump\t// in\n    tag_354:\n        /* \"#utility.yul\":1858:1980   */\n    tag_353:\n        /* \"#utility.yul\":2016:2022   */\n      dup2\n        /* \"#utility.yul\":2003:2023   */\n      calldataload\n        /* \"#utility.yul\":2041:2120   */\n      tag_355\n        /* \"#utility.yul\":2116:2119   */\n      dup5\n        /* \"#utility.yul\":2108:2114   */\n      dup3\n        /* \"#utility.yul\":2101:2105   */\n      0x20\n        /* \"#utility.yul\":2093:2099   */\n      dup7\n        /* \"#utility.yul\":2089:2106   */\n      add\n        /* \"#utility.yul\":2041:2120   */\n      tag_322\n      jump\t// in\n    tag_355:\n        /* \"#utility.yul\":2032:2120   */\n      swap2\n      pop\n        /* \"#utility.yul\":1848:2126   */\n      pop\n        /* \"#utility.yul\":1786:2126   */\n      swap3\n      swap2\n      pop\n      pop\n      jump\t// out\n        /* \"#utility.yul\":2132:2271   */\n    tag_356:\n        /* \"#utility.yul\":2178:2183   */\n      0x00\n        /* \"#utility.yul\":2216:2222   */\n      dup2\n        /* \"#utility.yul\":2203:2223   */\n      calldataload\n        /* \"#utility.yul\":2194:2223   */\n      swap1\n      pop\n        /* \"#utility.yul\":2232:2265   */\n      tag_358\n        /* \"#utility.yul\":2259:2264   */\n      dup2\n        /* \"#utility.yul\":2232:2265   */\n      tag_359\n      jump\t// in\n    tag_358:\n        /* \"#utility.yul\":2132:2271   */\n      swap3\n      swap2\n      pop\n      pop\n      jump\t// out\n        /* \"#utility.yul\":2277:2606   */\n    tag_61:\n        /* \"#utility.yul\":2336:2342   */\n      0x00\n        /* \"#utility.yul\":2385:2387   */\n      0x20\n        /* \"#utility.yul\":2373:2382   */\n      dup3\n        /* \"#utility.yul\":2364:2371   */\n      dup5\n        /* \"#utility.yul\":2360:2383   */\n      sub\n        /* \"#utility.yul\":2356:2388   */\n      slt\n        /* \"#utility.yul\":2353:2472   */\n      iszero\n      tag_361\n      jumpi\n        /* \"#utility.yul\":2391:2470   */\n      tag_362\n      tag_363\n      jump\t// in\n    tag_362:\n        /* \"#utility.yul\":2353:2472   */\n    tag_361:\n        /* \"#utility.yul\":2511:2512   */\n      0x00\n        /* \"#utility.yul\":2536:2589   */\n      tag_364\n        /* \"#utility.yul\":2581:2588   */\n      dup5\n        /* \"#utility.yul\":2572:2578   */\n      dup3\n        /* \"#utility.yul\":2561:2570   */\n      dup6\n        /* \"#utility.yul\":2557:2579   */\n      add\n        /* \"#utility.yul\":2536:2589   */\n      tag_330\n      jump\t// in\n    tag_364:\n        /* \"#utility.yul\":2526:2589   */\n      swap2\n      pop\n        /* \"#utility.yul\":2482:2599   */\n      pop\n        /* \"#utility.yul\":2277:2606   */\n      swap3\n      swap2\n      pop\n      pop\n      jump\t// out\n        /* \"#utility.yul\":2612:3086   */\n    tag_99:\n        /* \"#utility.yul\":2680:2686   */\n      0x00\n        /* \"#utility.yul\":2688:2694   */\n      dup1\n        /* \"#utility.yul\":2737:2739   */\n      0x40\n        /* \"#utility.yul\":2725:2734   */\n      dup4\n        /* \"#utility.yul\":2716:2723   */\n      dup6\n        /* \"#utility.yul\":2712:2735   */\n      sub\n        /* \"#utility.yul\":2708:2740   */\n      slt\n        /* \"#utility.yul\":2705:2824   */\n      iszero\n      tag_366\n      jumpi\n        /* \"#utility.yul\":2743:2822   */\n      tag_367\n      tag_363\n      jump\t// in\n    tag_367:\n        /* \"#utility.yul\":2705:2824   */\n    tag_366:\n        /* \"#utility.yul\":2863:2864   */\n      0x00\n        /* \"#utility.yul\":2888:2941   */\n      tag_368\n        /* \"#utility.yul\":2933:2940   */\n      dup6\n        /* \"#utility.yul\":2924:2930   */\n      dup3\n        /* \"#utility.yul\":2913:2922   */\n      dup7\n        /* \"#utility.yul\":2909:2931   */\n      add\n        /* \"#utility.yul\":2888:2941   */\n      tag_330\n      jump\t// in\n    tag_368:\n        /* \"#utility.yul\":2878:2941   */\n      swap3\n      pop\n        /* \"#utility.yul\":2834:2951   */\n      pop\n        /* \"#utility.yul\":2990:2992   */\n      0x20\n        /* \"#utility.yul\":3016:3069   */\n      tag_369\n        /* \"#utility.yul\":3061:3068   */\n      dup6\n        /* \"#utility.yul\":3052:3058   */\n      dup3\n        /* \"#utility.yul\":3041:3050   */\n      dup7\n        /* \"#utility.yul\":3037:3059   */\n      add\n        /* \"#utility.yul\":3016:3069   */\n      tag_330\n      jump\t// in\n    tag_369:\n        /* \"#utility.yul\":3006:3069   */\n      swap2\n      pop\n        /* \"#utility.yul\":2961:3079   */\n      pop\n        /* \"#utility.yul\":2612:3086   */\n      swap3\n      pop\n      swap3\n      swap1\n      pop\n      jump\t// out\n        /* \"#utility.yul\":3092:3711   */\n    tag_50:\n        /* \"#utility.yul\":3169:3175   */\n      0x00\n        /* \"#utility.yul\":3177:3183   */\n      dup1\n        /* \"#utility.yul\":3185:3191   */\n      0x00\n        /* \"#utility.yul\":3234:3236   */\n      0x60\n        /* \"#utility.yul\":3222:3231   */\n      dup5\n        /* \"#utility.yul\":3213:3220   */\n      dup7\n        /* \"#utility.yul\":3209:3232   */\n      sub\n        /* \"#utility.yul\":3205:3237   */\n      slt\n        /* \"#utility.yul\":3202:3321   */\n      iszero\n      tag_371\n      jumpi\n        /* \"#utility.yul\":3240:3319   */\n      tag_372\n      tag_363\n      jump\t// in\n    tag_372:\n        /* \"#utility.yul\":3202:3321   */\n    tag_371:\n        /* \"#utility.yul\":3360:3361   */\n      0x00\n        /* \"#utility.yul\":3385:3438   */\n      tag_373\n        /* \"#utility.yul\":3430:3437   */\n      dup7\n        /* \"#utility.yul\":3421:3427   */\n      dup3\n        /* \"#utility.yul\":3410:3419   */\n      dup8\n        /* \"#utility.yul\":3406:3428   */\n      add\n        /* \"#utility.yul\":3385:3438   */\n      tag_330\n      jump\t// in\n    tag_373:\n        /* \"#utility.yul\":3375:3438   */\n      swap4\n      pop\n        /* \"#utility.yul\":3331:3448   */\n      pop\n        /* \"#utility.yul\":3487:3489   */\n      0x20\n        /* \"#utility.yul\":3513:3566   */\n      tag_374\n        /* \"#utility.yul\":3558:3565   */\n      dup7\n        /* \"#utility.yul\":3549:3555   */\n      dup3\n        /* \"#utility.yul\":3538:3547   */\n      dup8\n        /* \"#utility.yul\":3534:3556   */\n      add\n        /* \"#utility.yul\":3513:3566   */\n      tag_330\n      jump\t// in\n    tag_374:\n        /* \"#utility.yul\":3503:3566   */\n      swap3\n      pop\n        /* \"#utility.yul\":3458:3576   */\n      pop\n        /* \"#utility.yul\":3615:3617   */\n      0x40\n        /* \"#utility.yul\":3641:3694   */\n      tag_375\n        /* \"#utility.yul\":3686:3693   */\n      dup7\n        /* \"#utility.yul\":3677:3683   */\n      dup3\n        /* \"#utility.yul\":3666:3675   */\n      dup8\n        /* \"#utility.yul\":3662:3684   */\n      add\n        /* \"#utility.yul\":3641:3694   */\n      tag_356\n      jump\t// in\n    tag_375:\n        /* \"#utility.yul\":3631:3694   */\n      swap2\n      pop\n        /* \"#utility.yul\":3586:3704   */\n      pop\n        /* \"#utility.yul\":3092:3711   */\n      swap3\n      pop\n      swap3\n      pop\n      swap3\n      jump\t// out\n        /* \"#utility.yul\":3717:4660   */\n    tag_84:\n        /* \"#utility.yul\":3812:3818   */\n      0x00\n        /* \"#utility.yul\":3820:3826   */\n      dup1\n        /* \"#utility.yul\":3828:3834   */\n      0x00\n        /* \"#utility.yul\":3836:3842   */\n      dup1\n        /* \"#utility.yul\":3885:3888   */\n      0x80\n        /* \"#utility.yul\":3873:3882   */\n      dup6\n        /* \"#utility.yul\":3864:3871   */\n      dup8\n        /* \"#utility.yul\":3860:3883   */\n      sub\n        /* \"#utility.yul\":3856:3889   */\n      slt\n        /* \"#utility.yul\":3853:3973   */\n      iszero\n      tag_377\n      jumpi\n        /* \"#utility.yul\":3892:3971   */\n      tag_378\n      tag_363\n      jump\t// in\n    tag_378:\n        /* \"#utility.yul\":3853:3973   */\n    tag_377:\n        /* \"#utility.yul\":4012:4013   */\n      0x00\n        /* \"#utility.yul\":4037:4090   */\n      tag_379\n        /* \"#utility.yul\":4082:4089   */\n      dup8\n        /* \"#utility.yul\":4073:4079   */\n      dup3\n        /* \"#utility.yul\":4062:4071   */\n      dup9\n        /* \"#utility.yul\":4058:4080   */\n      add\n        /* \"#utility.yul\":4037:4090   */\n      tag_330\n      jump\t// in\n    tag_379:\n        /* \"#utility.yul\":4027:4090   */\n      swap5\n      pop\n        /* \"#utility.yul\":3983:4100   */\n      pop\n        /* \"#utility.yul\":4139:4141   */\n      0x20\n        /* \"#utility.yul\":4165:4218   */\n      tag_380\n        /* \"#utility.yul\":4210:4217   */\n      dup8\n        /* \"#utility.yul\":4201:4207   */\n      dup3\n        /* \"#utility.yul\":4190:4199   */\n      dup9\n        /* \"#utility.yul\":4186:4208   */\n      add\n        /* \"#utility.yul\":4165:4218   */\n      tag_330\n      jump\t// in\n    tag_380:\n        /* \"#utility.yul\":4155:4218   */\n      swap4\n      pop\n        /* \"#utility.yul\":4110:4228   */\n      pop\n        /* \"#utility.yul\":4267:4269   */\n      0x40\n        /* \"#utility.yul\":4293:4346   */\n      tag_381\n        /* \"#utility.yul\":4338:4345   */\n      dup8\n        /* \"#utility.yul\":4329:4335   */\n      dup3\n        /* \"#utility.yul\":4318:4327   */\n      dup9\n        /* \"#utility.yul\":4314:4336   */\n      add\n        /* \"#utility.yul\":4293:4346   */\n      tag_356\n      jump\t// in\n    tag_381:\n        /* \"#utility.yul\":4283:4346   */\n      swap3\n      pop\n        /* \"#utility.yul\":4238:4356   */\n      pop\n        /* \"#utility.yul\":4423:4425   */\n      0x60\n        /* \"#utility.yul\":4412:4421   */\n      dup6\n        /* \"#utility.yul\":4408:4426   */\n      add\n        /* \"#utility.yul\":4395:4427   */\n      calldataload\n        /* \"#utility.yul\":4454:4472   */\n      0xffffffffffffffff\n        /* \"#utility.yul\":4446:4452   */\n      dup2\n        /* \"#utility.yul\":4443:4473   */\n      gt\n        /* \"#utility.yul\":4440:4557   */\n      iszero\n      tag_382\n      jumpi\n        /* \"#utility.yul\":4476:4555   */\n      tag_383\n      tag_384\n      jump\t// in\n    tag_383:\n        /* \"#utility.yul\":4440:4557   */\n    tag_382:\n        /* \"#utility.yul\":4581:4643   */\n      tag_385\n        /* \"#utility.yul\":4635:4642   */\n      dup8\n        /* \"#utility.yul\":4626:4632   */\n      dup3\n        /* \"#utility.yul\":4615:4624   */\n      dup9\n        /* \"#utility.yul\":4611:4633   */\n      add\n        /* \"#utility.yul\":4581:4643   */\n      tag_345\n      jump\t// in\n    tag_385:\n        /* \"#utility.yul\":4571:4643   */\n      swap2\n      pop\n        /* \"#utility.yul\":4366:4653   */\n      pop\n        /* \"#utility.yul\":3717:4660   */\n      swap3\n      swap6\n      swap2\n      swap5\n      pop\n      swap3\n      pop\n      jump\t// out\n        /* \"#utility.yul\":4666:5134   */\n    tag_70:\n        /* \"#utility.yul\":4731:4737   */\n      0x00\n        /* \"#utility.yul\":4739:4745   */\n      dup1\n        /* \"#utility.yul\":4788:4790   */\n      0x40\n        /* \"#utility.yul\":4776:4785   */\n      dup4\n        /* \"#utility.yul\":4767:4774   */\n      dup6\n        /* \"#utility.yul\":4763:4786   */\n      sub\n        /* \"#utility.yul\":4759:4791   */\n      slt\n        /* \"#utility.yul\":4756:4875   */\n      iszero\n      tag_387\n      jumpi\n        /* \"#utility.yul\":4794:4873   */\n      tag_388\n      tag_363\n      jump\t// in\n    tag_388:\n        /* \"#utility.yul\":4756:4875   */\n    tag_387:\n        /* \"#utility.yul\":4914:4915   */\n      0x00\n        /* \"#utility.yul\":4939:4992   */\n      tag_389\n        /* \"#utility.yul\":4984:4991   */\n      dup6\n        /* \"#utility.yul\":4975:4981   */\n      dup3\n        /* \"#utility.yul\":4964:4973   */\n      dup7\n        /* \"#utility.yul\":4960:4982   */\n      add\n        /* \"#utility.yul\":4939:4992   */\n      tag_330\n      jump\t// in\n    tag_389:\n        /* \"#utility.yul\":4929:4992   */\n      swap3\n      pop\n        /* \"#utility.yul\":4885:5002   */\n      pop\n        /* \"#utility.yul\":5041:5043   */\n      0x20\n        /* \"#utility.yul\":5067:5117   */\n      tag_390\n        /* \"#utility.yul\":5109:5116   */\n      dup6\n        /* \"#utility.yul\":5100:5106   */\n      dup3\n        /* \"#utility.yul\":5089:5098   */\n      dup7\n        /* \"#utility.yul\":5085:5107   */\n      add\n        /* \"#utility.yul\":5067:5117   */\n      tag_334\n      jump\t// in\n    tag_390:\n        /* \"#utility.yul\":5057:5117   */\n      swap2\n      pop\n        /* \"#utility.yul\":5012:5127   */\n      pop\n        /* \"#utility.yul\":4666:5134   */\n      swap3\n      pop\n      swap3\n      swap1\n      pop\n      jump\t// out\n        /* \"#utility.yul\":5140:5614   */\n    tag_46:\n        /* \"#utility.yul\":5208:5214   */\n      0x00\n        /* \"#utility.yul\":5216:5222   */\n      dup1\n        /* \"#utility.yul\":5265:5267   */\n      0x40\n        /* \"#utility.yul\":5253:5262   */\n      dup4\n        /* \"#utility.yul\":5244:5251   */\n      dup6\n        /* \"#utility.yul\":5240:5263   */\n      sub\n        /* \"#utility.yul\":5236:5268   */\n      slt\n        /* \"#utility.yul\":5233:5352   */\n      iszero\n      tag_392\n      jumpi\n        /* \"#utility.yul\":5271:5350   */\n      tag_393\n      tag_363\n      jump\t// in\n    tag_393:\n        /* \"#utility.yul\":5233:5352   */\n    tag_392:\n        /* \"#utility.yul\":5391:5392   */\n      0x00\n        /* \"#utility.yul\":5416:5469   */\n      tag_394\n        /* \"#utility.yul\":5461:5468   */\n      dup6\n        /* \"#utility.yul\":5452:5458   */\n      dup3\n        /* \"#utility.yul\":5441:5450   */\n      dup7\n        /* \"#utility.yul\":5437:5459   */\n      add\n        /* \"#utility.yul\":5416:5469   */\n      tag_330\n      jump\t// in\n    tag_394:\n        /* \"#utility.yul\":5406:5469   */\n      swap3\n      pop\n        /* \"#utility.yul\":5362:5479   */\n      pop\n        /* \"#utility.yul\":5518:5520   */\n      0x20\n        /* \"#utility.yul\":5544:5597   */\n      tag_395\n        /* \"#utility.yul\":5589:5596   */\n      dup6\n        /* \"#utility.yul\":5580:5586   */\n      dup3\n        /* \"#utility.yul\":5569:5578   */\n      dup7\n        /* \"#utility.yul\":5565:5587   */\n      add\n        /* \"#utility.yul\":5544:5597   */\n      tag_356\n      jump\t// in\n    tag_395:\n        /* \"#utility.yul\":5534:5597   */\n      swap2\n      pop\n        /* \"#utility.yul\":5489:5607   */\n      pop\n        /* \"#utility.yul\":5140:5614   */\n      swap3\n      pop\n      swap3\n      swap1\n      pop\n      jump\t// out\n        /* \"#utility.yul\":5620:5947   */\n    tag_26:\n        /* \"#utility.yul\":5678:5684   */\n      0x00\n        /* \"#utility.yul\":5727:5729   */\n      0x20\n        /* \"#utility.yul\":5715:5724   */\n      dup3\n        /* \"#utility.yul\":5706:5713   */\n      dup5\n        /* \"#utility.yul\":5702:5725   */\n      sub\n        /* \"#utility.yul\":5698:5730   */\n      slt\n        /* \"#utility.yul\":5695:5814   */\n      iszero\n      tag_397\n      jumpi\n        /* \"#utility.yul\":5733:5812   */\n      tag_398\n      tag_363\n      jump\t// in\n    tag_398:\n        /* \"#utility.yul\":5695:5814   */\n    tag_397:\n        /* \"#utility.yul\":5853:5854   */\n      0x00\n        /* \"#utility.yul\":5878:5930   */\n      tag_399\n        /* \"#utility.yul\":5922:5929   */\n      dup5\n        /* \"#utility.yul\":5913:5919   */\n      dup3\n        /* \"#utility.yul\":5902:5911   */\n      dup6\n        /* \"#utility.yul\":5898:5920   */\n      add\n        /* \"#utility.yul\":5878:5930   */\n      tag_338\n      jump\t// in\n    tag_399:\n        /* \"#utility.yul\":5868:5930   */\n      swap2\n      pop\n        /* \"#utility.yul\":5824:5940   */\n      pop\n        /* \"#utility.yul\":5620:5947   */\n      swap3\n      swap2\n      pop\n      pop\n      jump\t// out\n        /* \"#utility.yul\":5953:6302   */\n    tag_287:\n        /* \"#utility.yul\":6022:6028   */\n      0x00\n        /* \"#utility.yul\":6071:6073   */\n      0x20\n        /* \"#utility.yul\":6059:6068   */\n      dup3\n        /* \"#utility.yul\":6050:6057   */\n      dup5\n        /* \"#utility.yul\":6046:6069   */\n      sub\n        /* \"#utility.yul\":6042:6074   */\n      slt\n        /* \"#utility.yul\":6039:6158   */\n      iszero\n      tag_401\n      jumpi\n        /* \"#utility.yul\":6077:6156   */\n      tag_402\n      tag_363\n      jump\t// in\n    tag_402:\n        /* \"#utility.yul\":6039:6158   */\n    tag_401:\n        /* \"#utility.yul\":6197:6198   */\n      0x00\n        /* \"#utility.yul\":6222:6285   */\n      tag_403\n        /* \"#utility.yul\":6277:6284   */\n      dup5\n        /* \"#utility.yul\":6268:6274   */\n      dup3\n        /* \"#utility.yul\":6257:6266   */\n      dup6\n        /* \"#utility.yul\":6253:6275   */\n      add\n        /* \"#utility.yul\":6222:6285   */\n      tag_342\n      jump\t// in\n    tag_403:\n        /* \"#utility.yul\":6212:6285   */\n      swap2\n      pop\n        /* \"#utility.yul\":6168:6295   */\n      pop\n        /* \"#utility.yul\":5953:6302   */\n      swap3\n      swap2\n      pop\n      pop\n      jump\t// out\n        /* \"#utility.yul\":6308:6637   */\n    tag_40:\n        /* \"#utility.yul\":6367:6373   */\n      0x00\n        /* \"#utility.yul\":6416:6418   */\n      0x20\n        /* \"#utility.yul\":6404:6413   */\n      dup3\n        /* \"#utility.yul\":6395:6402   */\n      dup5\n        /* \"#utility.yul\":6391:6414   */\n      sub\n        /* \"#utility.yul\":6387:6419   */\n      slt\n        /* \"#utility.yul\":6384:6503   */\n      iszero\n      tag_405\n      jumpi\n        /* \"#utility.yul\":6422:6501   */\n      tag_406\n      tag_363\n      jump\t// in\n    tag_406:\n        /* \"#utility.yul\":6384:6503   */\n    tag_405:\n        /* \"#utility.yul\":6542:6543   */\n      0x00\n        /* \"#utility.yul\":6567:6620   */\n      tag_407\n        /* \"#utility.yul\":6612:6619   */\n      dup5\n        /* \"#utility.yul\":6603:6609   */\n      dup3\n        /* \"#utility.yul\":6592:6601   */\n      dup6\n        /* \"#utility.yul\":6588:6610   */\n      add\n        /* \"#utility.yul\":6567:6620   */\n      tag_356\n      jump\t// in\n    tag_407:\n        /* \"#utility.yul\":6557:6620   */\n      swap2\n      pop\n        /* \"#utility.yul\":6513:6630   */\n      pop\n        /* \"#utility.yul\":6308:6637   */\n      swap3\n      swap2\n      pop\n      pop\n      jump\t// out\n        /* \"#utility.yul\":6643:7117   */\n    tag_95:\n        /* \"#utility.yul\":6711:6717   */\n      0x00\n        /* \"#utility.yul\":6719:6725   */\n      dup1\n        /* \"#utility.yul\":6768:6770   */\n      0x40\n        /* \"#utility.yul\":6756:6765   */\n      dup4\n        /* \"#utility.yul\":6747:6754   */\n      dup6\n        /* \"#utility.yul\":6743:6766   */\n      sub\n        /* \"#utility.yul\":6739:6771   */\n      slt\n        /* \"#utility.yul\":6736:6855   */\n      iszero\n      tag_409\n      jumpi\n        /* \"#utility.yul\":6774:6853   */\n      tag_410\n      tag_363\n      jump\t// in\n    tag_410:\n        /* \"#utility.yul\":6736:6855   */\n    tag_409:\n        /* \"#utility.yul\":6894:6895   */\n      0x00\n        /* \"#utility.yul\":6919:6972   */\n      tag_411\n        /* \"#utility.yul\":6964:6971   */\n      dup6\n        /* \"#utility.yul\":6955:6961   */\n      dup3\n        /* \"#utility.yul\":6944:6953   */\n      dup7\n        /* \"#utility.yul\":6940:6962   */\n      add\n        /* \"#utility.yul\":6919:6972   */\n      tag_356\n      jump\t// in\n    tag_411:\n        /* \"#utility.yul\":6909:6972   */\n      swap3\n      pop\n        /* \"#utility.yul\":6865:6982   */\n      pop\n        /* \"#utility.yul\":7021:7023   */\n      0x20\n        /* \"#utility.yul\":7047:7100   */\n      tag_412\n        /* \"#utility.yul\":7092:7099   */\n      dup6\n        /* \"#utility.yul\":7083:7089   */\n      dup3\n        /* \"#utility.yul\":7072:7081   */\n      dup7\n        /* \"#utility.yul\":7068:7090   */\n      add\n        /* \"#utility.yul\":7047:7100   */\n      tag_330\n      jump\t// in\n    tag_412:\n        /* \"#utility.yul\":7037:7100   */\n      swap2\n      pop\n        /* \"#utility.yul\":6992:7110   */\n      pop\n        /* \"#utility.yul\":6643:7117   */\n      swap3\n      pop\n      swap3\n      swap1\n      pop\n      jump\t// out\n        /* \"#utility.yul\":7123:8506   */\n    tag_32:\n        /* \"#utility.yul\":7246:7252   */\n      0x00\n        /* \"#utility.yul\":7254:7260   */\n      dup1\n        /* \"#utility.yul\":7262:7268   */\n      0x00\n        /* \"#utility.yul\":7270:7276   */\n      dup1\n        /* \"#utility.yul\":7278:7284   */\n      0x00\n        /* \"#utility.yul\":7286:7292   */\n      dup1\n        /* \"#utility.yul\":7294:7300   */\n      0x00\n        /* \"#utility.yul\":7343:7346   */\n      0xe0\n        /* \"#utility.yul\":7331:7340   */\n      dup9\n        /* \"#utility.yul\":7322:7329   */\n      dup11\n        /* \"#utility.yul\":7318:7341   */\n      sub\n        /* \"#utility.yul\":7314:7347   */\n      slt\n        /* \"#utility.yul\":7311:7431   */\n      iszero\n      tag_414\n      jumpi\n        /* \"#utility.yul\":7350:7429   */\n      tag_415\n      tag_363\n      jump\t// in\n    tag_415:\n        /* \"#utility.yul\":7311:7431   */\n    tag_414:\n        /* \"#utility.yul\":7470:7471   */\n      0x00\n        /* \"#utility.yul\":7495:7548   */\n      tag_416\n        /* \"#utility.yul\":7540:7547   */\n      dup11\n        /* \"#utility.yul\":7531:7537   */\n      dup3\n        /* \"#utility.yul\":7520:7529   */\n      dup12\n        /* \"#utility.yul\":7516:7538   */\n      add\n        /* \"#utility.yul\":7495:7548   */\n      tag_356\n      jump\t// in\n    tag_416:\n        /* \"#utility.yul\":7485:7548   */\n      swap8\n      pop\n        /* \"#utility.yul\":7441:7558   */\n      pop\n        /* \"#utility.yul\":7597:7599   */\n      0x20\n        /* \"#utility.yul\":7623:7676   */\n      tag_417\n        /* \"#utility.yul\":7668:7675   */\n      dup11\n        /* \"#utility.yul\":7659:7665   */\n      dup3\n        /* \"#utility.yul\":7648:7657   */\n      dup12\n        /* \"#utility.yul\":7644:7666   */\n      add\n        /* \"#utility.yul\":7623:7676   */\n      tag_356\n      jump\t// in\n    tag_417:\n        /* \"#utility.yul\":7613:7676   */\n      swap7\n      pop\n        /* \"#utility.yul\":7568:7686   */\n      pop\n        /* \"#utility.yul\":7725:7727   */\n      0x40\n        /* \"#utility.yul\":7751:7804   */\n      tag_418\n        /* \"#utility.yul\":7796:7803   */\n      dup11\n        /* \"#utility.yul\":7787:7793   */\n      dup3\n        /* \"#utility.yul\":7776:7785   */\n      dup12\n        /* \"#utility.yul\":7772:7794   */\n      add\n        /* \"#utility.yul\":7751:7804   */\n      tag_356\n      jump\t// in\n    tag_418:\n        /* \"#utility.yul\":7741:7804   */\n      swap6\n      pop\n        /* \"#utility.yul\":7696:7814   */\n      pop\n        /* \"#utility.yul\":7853:7855   */\n      0x60\n        /* \"#utility.yul\":7879:7932   */\n      tag_419\n        /* \"#utility.yul\":7924:7931   */\n      dup11\n        /* \"#utility.yul\":7915:7921   */\n      dup3\n        /* \"#utility.yul\":7904:7913   */\n      dup12\n        /* \"#utility.yul\":7900:7922   */\n      add\n        /* \"#utility.yul\":7879:7932   */\n      tag_356\n      jump\t// in\n    tag_419:\n        /* \"#utility.yul\":7869:7932   */\n      swap5\n      pop\n        /* \"#utility.yul\":7824:7942   */\n      pop\n        /* \"#utility.yul\":7981:7984   */\n      0x80\n        /* \"#utility.yul\":8008:8061   */\n      tag_420\n        /* \"#utility.yul\":8053:8060   */\n      dup11\n        /* \"#utility.yul\":8044:8050   */\n      dup3\n        /* \"#utility.yul\":8033:8042   */\n      dup12\n        /* \"#utility.yul\":8029:8051   */\n      add\n        /* \"#utility.yul\":8008:8061   */\n      tag_356\n      jump\t// in\n    tag_420:\n        /* \"#utility.yul\":7998:8061   */\n      swap4\n      pop\n        /* \"#utility.yul\":7952:8071   */\n      pop\n        /* \"#utility.yul\":8110:8113   */\n      0xa0\n        /* \"#utility.yul\":8137:8190   */\n      tag_421\n        /* \"#utility.yul\":8182:8189   */\n      dup11\n        /* \"#utility.yul\":8173:8179   */\n      dup3\n        /* \"#utility.yul\":8162:8171   */\n      dup12\n        /* \"#utility.yul\":8158:8180   */\n      add\n        /* \"#utility.yul\":8137:8190   */\n      tag_330\n      jump\t// in\n    tag_421:\n        /* \"#utility.yul\":8127:8190   */\n      swap3\n      pop\n        /* \"#utility.yul\":8081:8200   */\n      pop\n        /* \"#utility.yul\":8267:8270   */\n      0xc0\n        /* \"#utility.yul\":8256:8265   */\n      dup9\n        /* \"#utility.yul\":8252:8271   */\n      add\n        /* \"#utility.yul\":8239:8272   */\n      calldataload\n        /* \"#utility.yul\":8299:8317   */\n      0xffffffffffffffff\n        /* \"#utility.yul\":8291:8297   */\n      dup2\n        /* \"#utility.yul\":8288:8318   */\n      gt\n        /* \"#utility.yul\":8285:8402   */\n      iszero\n      tag_422\n      jumpi\n        /* \"#utility.yul\":8321:8400   */\n      tag_423\n      tag_384\n      jump\t// in\n    tag_423:\n        /* \"#utility.yul\":8285:8402   */\n    tag_422:\n        /* \"#utility.yul\":8426:8489   */\n      tag_424\n        /* \"#utility.yul\":8481:8488   */\n      dup11\n        /* \"#utility.yul\":8472:8478   */\n      dup3\n        /* \"#utility.yul\":8461:8470   */\n      dup12\n        /* \"#utility.yul\":8457:8479   */\n      add\n        /* \"#utility.yul\":8426:8489   */\n      tag_351\n      jump\t// in\n    tag_424:\n        /* \"#utility.yul\":8416:8489   */\n      swap2\n      pop\n        /* \"#utility.yul\":8210:8499   */\n      pop\n        /* \"#utility.yul\":7123:8506   */\n      swap3\n      swap6\n      swap9\n      swap2\n      swap5\n      swap8\n      pop\n      swap3\n      swap6\n      pop\n      jump\t// out\n        /* \"#utility.yul\":8512:8620   */\n    tag_425:\n        /* \"#utility.yul\":8589:8613   */\n      tag_427\n        /* \"#utility.yul\":8607:8612   */\n      dup2\n        /* \"#utility.yul\":8589:8613   */\n      tag_428\n      jump\t// in\n    tag_427:\n        /* \"#utility.yul\":8584:8587   */\n      dup3\n        /* \"#utility.yul\":8577:8614   */\n      mstore\n        /* \"#utility.yul\":8512:8620   */\n      pop\n      pop\n      jump\t// out\n        /* \"#utility.yul\":8626:8744   */\n    tag_429:\n        /* \"#utility.yul\":8713:8737   */\n      tag_431\n        /* \"#utility.yul\":8731:8736   */\n      dup2\n        /* \"#utility.yul\":8713:8737   */\n      tag_428\n      jump\t// in\n    tag_431:\n        /* \"#utility.yul\":8708:8711   */\n      dup3\n        /* \"#utility.yul\":8701:8738   */\n      mstore\n        /* \"#utility.yul\":8626:8744   */\n      pop\n      pop\n      jump\t// out\n        /* \"#utility.yul\":8750:8849   */\n    tag_432:\n        /* \"#utility.yul\":8821:8842   */\n      tag_434\n        /* \"#utility.yul\":8836:8841   */\n      dup2\n        /* \"#utility.yul\":8821:8842   */\n      tag_435\n      jump\t// in\n    tag_434:\n        /* \"#utility.yul\":8816:8819   */\n      dup3\n        /* \"#utility.yul\":8809:8843   */\n      mstore\n        /* \"#utility.yul\":8750:8849   */\n      pop\n      pop\n      jump\t// out\n        /* \"#utility.yul\":8855:8964   */\n    tag_436:\n        /* \"#utility.yul\":8936:8957   */\n      tag_438\n        /* \"#utility.yul\":8951:8956   */\n      dup2\n        /* \"#utility.yul\":8936:8957   */\n      tag_435\n      jump\t// in\n    tag_438:\n        /* \"#utility.yul\":8931:8934   */\n      dup3\n        /* \"#utility.yul\":8924:8958   */\n      mstore\n        /* \"#utility.yul\":8855:8964   */\n      pop\n      pop\n      jump\t// out\n        /* \"#utility.yul\":8970:9330   */\n    tag_439:\n        /* \"#utility.yul\":9056:9059   */\n      0x00\n        /* \"#utility.yul\":9084:9122   */\n      tag_441\n        /* \"#utility.yul\":9116:9121   */\n      dup3\n        /* \"#utility.yul\":9084:9122   */\n      tag_442\n      jump\t// in\n    tag_441:\n        /* \"#utility.yul\":9138:9208   */\n      tag_443\n        /* \"#utility.yul\":9201:9207   */\n      dup2\n        /* \"#utility.yul\":9196:9199   */\n      dup6\n        /* \"#utility.yul\":9138:9208   */\n      tag_444\n      jump\t// in\n    tag_443:\n        /* \"#utility.yul\":9131:9208   */\n      swap4\n      pop\n        /* \"#utility.yul\":9217:9269   */\n      tag_445\n        /* \"#utility.yul\":9262:9268   */\n      dup2\n        /* \"#utility.yul\":9257:9260   */\n      dup6\n        /* \"#utility.yul\":9250:9254   */\n      0x20\n        /* \"#utility.yul\":9243:9248   */\n      dup7\n        /* \"#utility.yul\":9239:9255   */\n      add\n        /* \"#utility.yul\":9217:9269   */\n      tag_446\n      jump\t// in\n    tag_445:\n        /* \"#utility.yul\":9294:9323   */\n      tag_447\n        /* \"#utility.yul\":9316:9322   */\n      dup2\n        /* \"#utility.yul\":9294:9323   */\n      tag_448\n      jump\t// in\n    tag_447:\n        /* \"#utility.yul\":9289:9292   */\n      dup5\n        /* \"#utility.yul\":9285:9324   */\n      add\n        /* \"#utility.yul\":9278:9324   */\n      swap2\n      pop\n        /* \"#utility.yul\":9060:9330   */\n      pop\n        /* \"#utility.yul\":8970:9330   */\n      swap3\n      swap2\n      pop\n      pop\n      jump\t// out\n        /* \"#utility.yul\":9336:9680   */\n    tag_449:\n        /* \"#utility.yul\":9414:9417   */\n      0x00\n        /* \"#utility.yul\":9442:9481   */\n      tag_451\n        /* \"#utility.yul\":9475:9480   */\n      dup3\n        /* \"#utility.yul\":9442:9481   */\n      tag_452\n      jump\t// in\n    tag_451:\n        /* \"#utility.yul\":9497:9558   */\n      tag_453\n        /* \"#utility.yul\":9551:9557   */\n      dup2\n        /* \"#utility.yul\":9546:9549   */\n      dup6\n        /* \"#utility.yul\":9497:9558   */\n      tag_454\n      jump\t// in\n    tag_453:\n        /* \"#utility.yul\":9490:9558   */\n      swap4\n      pop\n        /* \"#utility.yul\":9567:9619   */\n      tag_455\n        /* \"#utility.yul\":9612:9618   */\n      dup2\n        /* \"#utility.yul\":9607:9610   */\n      dup6\n        /* \"#utility.yul\":9600:9604   */\n      0x20\n        /* \"#utility.yul\":9593:9598   */\n      dup7\n        /* \"#utility.yul\":9589:9605   */\n      add\n        /* \"#utility.yul\":9567:9619   */\n      tag_446\n      jump\t// in\n    tag_455:\n        /* \"#utility.yul\":9644:9673   */\n      tag_456\n        /* \"#utility.yul\":9666:9672   */\n      dup2\n        /* \"#utility.yul\":9644:9673   */\n      tag_448\n      jump\t// in\n    tag_456:\n        /* \"#utility.yul\":9639:9642   */\n      dup5\n        /* \"#utility.yul\":9635:9674   */\n      add\n        /* \"#utility.yul\":9628:9674   */\n      swap2\n      pop\n        /* \"#utility.yul\":9418:9680   */\n      pop\n        /* \"#utility.yul\":9336:9680   */\n      swap3\n      swap2\n      pop\n      pop\n      jump\t// out\n        /* \"#utility.yul\":9686:10050   */\n    tag_457:\n        /* \"#utility.yul\":9774:9777   */\n      0x00\n        /* \"#utility.yul\":9802:9841   */\n      tag_459\n        /* \"#utility.yul\":9835:9840   */\n      dup3\n        /* \"#utility.yul\":9802:9841   */\n      tag_452\n      jump\t// in\n    tag_459:\n        /* \"#utility.yul\":9857:9928   */\n      tag_460\n        /* \"#utility.yul\":9921:9927   */\n      dup2\n        /* \"#utility.yul\":9916:9919   */\n      dup6\n        /* \"#utility.yul\":9857:9928   */\n      tag_461\n      jump\t// in\n    tag_460:\n        /* \"#utility.yul\":9850:9928   */\n      swap4\n      pop\n        /* \"#utility.yul\":9937:9989   */\n      tag_462\n        /* \"#utility.yul\":9982:9988   */\n      dup2\n        /* \"#utility.yul\":9977:9980   */\n      dup6\n        /* \"#utility.yul\":9970:9974   */\n      0x20\n        /* \"#utility.yul\":9963:9968   */\n      dup7\n        /* \"#utility.yul\":9959:9975   */\n      add\n        /* \"#utility.yul\":9937:9989   */\n      tag_446\n      jump\t// in\n    tag_462:\n        /* \"#utility.yul\":10014:10043   */\n      tag_463\n        /* \"#utility.yul\":10036:10042   */\n      dup2\n        /* \"#utility.yul\":10014:10043   */\n      tag_448\n      jump\t// in\n    tag_463:\n        /* \"#utility.yul\":10009:10012   */\n      dup5\n        /* \"#utility.yul\":10005:10044   */\n      add\n        /* \"#utility.yul\":9998:10044   */\n      swap2\n      pop\n        /* \"#utility.yul\":9778:10050   */\n      pop\n        /* \"#utility.yul\":9686:10050   */\n      swap3\n      swap2\n      pop\n      pop\n      jump\t// out\n        /* \"#utility.yul\":10056:10433   */\n    tag_464:\n        /* \"#utility.yul\":10162:10165   */\n      0x00\n        /* \"#utility.yul\":10190:10229   */\n      tag_466\n        /* \"#utility.yul\":10223:10228   */\n      dup3\n        /* \"#utility.yul\":10190:10229   */\n      tag_452\n      jump\t// in\n    tag_466:\n        /* \"#utility.yul\":10245:10334   */\n      tag_467\n        /* \"#utility.yul\":10327:10333   */\n      dup2\n        /* \"#utility.yul\":10322:10325   */\n      dup6\n        /* \"#utility.yul\":10245:10334   */\n      tag_468\n      jump\t// in\n    tag_467:\n        /* \"#utility.yul\":10238:10334   */\n      swap4\n      pop\n        /* \"#utility.yul\":10343:10395   */\n      tag_469\n        /* \"#utility.yul\":10388:10394   */\n      dup2\n        /* \"#utility.yul\":10383:10386   */\n      dup6\n        /* \"#utility.yul\":10376:10380   */\n      0x20\n        /* \"#utility.yul\":10369:10374   */\n      dup7\n        /* \"#utility.yul\":10365:10381   */\n      add\n        /* \"#utility.yul\":10343:10395   */\n      tag_446\n      jump\t// in\n    tag_469:\n        /* \"#utility.yul\":10420:10426   */\n      dup1\n        /* \"#utility.yul\":10415:10418   */\n      dup5\n        /* \"#utility.yul\":10411:10427   */\n      add\n        /* \"#utility.yul\":10404:10427   */\n      swap2\n      pop\n        /* \"#utility.yul\":10166:10433   */\n      pop\n        /* \"#utility.yul\":10056:10433   */\n      swap3\n      swap2\n      pop\n      pop\n      jump\t// out\n        /* \"#utility.yul\":10439:10805   */\n    tag_470:\n        /* \"#utility.yul\":10581:10584   */\n      0x00\n        /* \"#utility.yul\":10602:10669   */\n      tag_472\n        /* \"#utility.yul\":10666:10668   */\n      0x32\n        /* \"#utility.yul\":10661:10664   */\n      dup4\n        /* \"#utility.yul\":10602:10669   */\n      tag_461\n      jump\t// in\n    tag_472:\n        /* \"#utility.yul\":10595:10669   */\n      swap2\n      pop\n        /* \"#utility.yul\":10678:10771   */\n      tag_473\n        /* \"#utility.yul\":10767:10770   */\n      dup3\n        /* \"#utility.yul\":10678:10771   */\n      tag_474\n      jump\t// in\n    tag_473:\n        /* \"#utility.yul\":10796:10798   */\n      0x40\n        /* \"#utility.yul\":10791:10794   */\n      dup3\n        /* \"#utility.yul\":10787:10799   */\n      add\n        /* \"#utility.yul\":10780:10799   */\n      swap1\n      pop\n        /* \"#utility.yul\":10439:10805   */\n      swap2\n      swap1\n      pop\n      jump\t// out\n        /* \"#utility.yul\":10811:11177   */\n    tag_475:\n        /* \"#utility.yul\":10953:10956   */\n      0x00\n        /* \"#utility.yul\":10974:11041   */\n      tag_477\n        /* \"#utility.yul\":11038:11040   */\n      0x25\n        /* \"#utility.yul\":11033:11036   */\n      dup4\n        /* \"#utility.yul\":10974:11041   */\n      tag_461\n      jump\t// in\n    tag_477:\n        /* \"#utility.yul\":10967:11041   */\n      swap2\n      pop\n        /* \"#utility.yul\":11050:11143   */\n      tag_478\n        /* \"#utility.yul\":11139:11142   */\n      dup3\n        /* \"#utility.yul\":11050:11143   */\n      tag_479\n      jump\t// in\n    tag_478:\n        /* \"#utility.yul\":11168:11170   */\n      0x40\n        /* \"#utility.yul\":11163:11166   */\n      dup3\n        /* \"#utility.yul\":11159:11171   */\n      add\n        /* \"#utility.yul\":11152:11171   */\n      swap1\n      pop\n        /* \"#utility.yul\":10811:11177   */\n      swap2\n      swap1\n      pop\n      jump\t// out\n        /* \"#utility.yul\":11183:11549   */\n    tag_480:\n        /* \"#utility.yul\":11325:11328   */\n      0x00\n        /* \"#utility.yul\":11346:11413   */\n      tag_482\n        /* \"#utility.yul\":11410:11412   */\n      0x24\n        /* \"#utility.yul\":11405:11408   */\n      dup4\n        /* \"#utility.yul\":11346:11413   */\n      tag_461\n      jump\t// in\n    tag_482:\n        /* \"#utility.yul\":11339:11413   */\n      swap2\n      pop\n        /* \"#utility.yul\":11422:11515   */\n      tag_483\n        /* \"#utility.yul\":11511:11514   */\n      dup3\n        /* \"#utility.yul\":11422:11515   */\n      tag_484\n      jump\t// in\n    tag_483:\n        /* \"#utility.yul\":11540:11542   */\n      0x40\n        /* \"#utility.yul\":11535:11538   */\n      dup3\n        /* \"#utility.yul\":11531:11543   */\n      add\n        /* \"#utility.yul\":11524:11543   */\n      swap1\n      pop\n        /* \"#utility.yul\":11183:11549   */\n      swap2\n      swap1\n      pop\n      jump\t// out\n        /* \"#utility.yul\":11555:11921   */\n    tag_485:\n        /* \"#utility.yul\":11697:11700   */\n      0x00\n        /* \"#utility.yul\":11718:11785   */\n      tag_487\n        /* \"#utility.yul\":11782:11784   */\n      0x19\n        /* \"#utility.yul\":11777:11780   */\n      dup4\n        /* \"#utility.yul\":11718:11785   */\n      tag_461\n      jump\t// in\n    tag_487:\n        /* \"#utility.yul\":11711:11785   */\n      swap2\n      pop\n        /* \"#utility.yul\":11794:11887   */\n      tag_488\n        /* \"#utility.yul\":11883:11886   */\n      dup3\n        /* \"#utility.yul\":11794:11887   */\n      tag_489\n      jump\t// in\n    tag_488:\n        /* \"#utility.yul\":11912:11914   */\n      0x20\n        /* \"#utility.yul\":11907:11910   */\n      dup3\n        /* \"#utility.yul\":11903:11915   */\n      add\n        /* \"#utility.yul\":11896:11915   */\n      swap1\n      pop\n        /* \"#utility.yul\":11555:11921   */\n      swap2\n      swap1\n      pop\n      jump\t// out\n        /* \"#utility.yul\":11927:12293   */\n    tag_490:\n        /* \"#utility.yul\":12069:12072   */\n      0x00\n        /* \"#utility.yul\":12090:12157   */\n      tag_492\n        /* \"#utility.yul\":12154:12156   */\n      0x2c\n        /* \"#utility.yul\":12149:12152   */\n      dup4\n        /* \"#utility.yul\":12090:12157   */\n      tag_461\n      jump\t// in\n    tag_492:\n        /* \"#utility.yul\":12083:12157   */\n      swap2\n      pop\n        /* \"#utility.yul\":12166:12259   */\n      tag_493\n        /* \"#utility.yul\":12255:12258   */\n      dup3\n        /* \"#utility.yul\":12166:12259   */\n      tag_494\n      jump\t// in\n    tag_493:\n        /* \"#utility.yul\":12284:12286   */\n      0x40\n        /* \"#utility.yul\":12279:12282   */\n      dup3\n        /* \"#utility.yul\":12275:12287   */\n      add\n        /* \"#utility.yul\":12268:12287   */\n      swap1\n      pop\n        /* \"#utility.yul\":11927:12293   */\n      swap2\n      swap1\n      pop\n      jump\t// out\n        /* \"#utility.yul\":12299:12665   */\n    tag_495:\n        /* \"#utility.yul\":12441:12444   */\n      0x00\n        /* \"#utility.yul\":12462:12529   */\n      tag_497\n        /* \"#utility.yul\":12526:12528   */\n      0x29\n        /* \"#utility.yul\":12521:12524   */\n      dup4\n        /* \"#utility.yul\":12462:12529   */\n      tag_461\n      jump\t// in\n    tag_497:\n        /* \"#utility.yul\":12455:12529   */\n      swap2\n      pop\n        /* \"#utility.yul\":12538:12631   */\n      tag_498\n        /* \"#utility.yul\":12627:12630   */\n      dup3\n        /* \"#utility.yul\":12538:12631   */\n      tag_499\n      jump\t// in\n    tag_498:\n        /* \"#utility.yul\":12656:12658   */\n      0x40\n        /* \"#utility.yul\":12651:12654   */\n      dup3\n        /* \"#utility.yul\":12647:12659   */\n      add\n        /* \"#utility.yul\":12640:12659   */\n      swap1\n      pop\n        /* \"#utility.yul\":12299:12665   */\n      swap2\n      swap1\n      pop\n      jump\t// out\n        /* \"#utility.yul\":12671:13037   */\n    tag_500:\n        /* \"#utility.yul\":12813:12816   */\n      0x00\n        /* \"#utility.yul\":12834:12901   */\n      tag_502\n        /* \"#utility.yul\":12898:12900   */\n      0x38\n        /* \"#utility.yul\":12893:12896   */\n      dup4\n        /* \"#utility.yul\":12834:12901   */\n      tag_461\n      jump\t// in\n    tag_502:\n        /* \"#utility.yul\":12827:12901   */\n      swap2\n      pop\n        /* \"#utility.yul\":12910:13003   */\n      tag_503\n        /* \"#utility.yul\":12999:13002   */\n      dup3\n        /* \"#utility.yul\":12910:13003   */\n      tag_504\n      jump\t// in\n    tag_503:\n        /* \"#utility.yul\":13028:13030   */\n      0x40\n        /* \"#utility.yul\":13023:13026   */\n      dup3\n        /* \"#utility.yul\":13019:13031   */\n      add\n        /* \"#utility.yul\":13012:13031   */\n      swap1\n      pop\n        /* \"#utility.yul\":12671:13037   */\n      swap2\n      swap1\n      pop\n      jump\t// out\n        /* \"#utility.yul\":13043:13409   */\n    tag_505:\n        /* \"#utility.yul\":13185:13188   */\n      0x00\n        /* \"#utility.yul\":13206:13273   */\n      tag_507\n        /* \"#utility.yul\":13270:13272   */\n      0x29\n        /* \"#utility.yul\":13265:13268   */\n      dup4\n        /* \"#utility.yul\":13206:13273   */\n      tag_461\n      jump\t// in\n    tag_507:\n        /* \"#utility.yul\":13199:13273   */\n      swap2\n      pop\n        /* \"#utility.yul\":13282:13375   */\n      tag_508\n        /* \"#utility.yul\":13371:13374   */\n      dup3\n        /* \"#utility.yul\":13282:13375   */\n      tag_509\n      jump\t// in\n    tag_508:\n        /* \"#utility.yul\":13400:13402   */\n      0x40\n        /* \"#utility.yul\":13395:13398   */\n      dup3\n        /* \"#utility.yul\":13391:13403   */\n      add\n        /* \"#utility.yul\":13384:13403   */\n      swap1\n      pop\n        /* \"#utility.yul\":13043:13409   */\n      swap2\n      swap1\n      pop\n      jump\t// out\n        /* \"#utility.yul\":13415:13781   */\n    tag_510:\n        /* \"#utility.yul\":13557:13560   */\n      0x00\n        /* \"#utility.yul\":13578:13645   */\n      tag_512\n        /* \"#utility.yul\":13642:13644   */\n      0x2c\n        /* \"#utility.yul\":13637:13640   */\n      dup4\n        /* \"#utility.yul\":13578:13645   */\n      tag_461\n      jump\t// in\n    tag_512:\n        /* \"#utility.yul\":13571:13645   */\n      swap2\n      pop\n        /* \"#utility.yul\":13654:13747   */\n      tag_513\n        /* \"#utility.yul\":13743:13746   */\n      dup3\n        /* \"#utility.yul\":13654:13747   */\n      tag_514\n      jump\t// in\n    tag_513:\n        /* \"#utility.yul\":13772:13774   */\n      0x40\n        /* \"#utility.yul\":13767:13770   */\n      dup3\n        /* \"#utility.yul\":13763:13775   */\n      add\n        /* \"#utility.yul\":13756:13775   */\n      swap1\n      pop\n        /* \"#utility.yul\":13415:13781   */\n      swap2\n      swap1\n      pop\n      jump\t// out\n        /* \"#utility.yul\":13787:14153   */\n    tag_515:\n        /* \"#utility.yul\":13929:13932   */\n      0x00\n        /* \"#utility.yul\":13950:14017   */\n      tag_517\n        /* \"#utility.yul\":14014:14016   */\n      0x2f\n        /* \"#utility.yul\":14009:14012   */\n      dup4\n        /* \"#utility.yul\":13950:14017   */\n      tag_461\n      jump\t// in\n    tag_517:\n        /* \"#utility.yul\":13943:14017   */\n      swap2\n      pop\n        /* \"#utility.yul\":14026:14119   */\n      tag_518\n        /* \"#utility.yul\":14115:14118   */\n      dup3\n        /* \"#utility.yul\":14026:14119   */\n      tag_519\n      jump\t// in\n    tag_518:\n        /* \"#utility.yul\":14144:14146   */\n      0x40\n        /* \"#utility.yul\":14139:14142   */\n      dup3\n        /* \"#utility.yul\":14135:14147   */\n      add\n        /* \"#utility.yul\":14128:14147   */\n      swap1\n      pop\n        /* \"#utility.yul\":13787:14153   */\n      swap2\n      swap1\n      pop\n      jump\t// out\n        /* \"#utility.yul\":14159:14525   */\n    tag_520:\n        /* \"#utility.yul\":14301:14304   */\n      0x00\n        /* \"#utility.yul\":14322:14389   */\n      tag_522\n        /* \"#utility.yul\":14386:14388   */\n      0x1b\n        /* \"#utility.yul\":14381:14384   */\n      dup4\n        /* \"#utility.yul\":14322:14389   */\n      tag_461\n      jump\t// in\n    tag_522:\n        /* \"#utility.yul\":14315:14389   */\n      swap2\n      pop\n        /* \"#utility.yul\":14398:14491   */\n      tag_523\n        /* \"#utility.yul\":14487:14490   */\n      dup3\n        /* \"#utility.yul\":14398:14491   */\n      tag_524\n      jump\t// in\n    tag_523:\n        /* \"#utility.yul\":14516:14518   */\n      0x20\n        /* \"#utility.yul\":14511:14514   */\n      dup3\n        /* \"#utility.yul\":14507:14519   */\n      add\n        /* \"#utility.yul\":14500:14519   */\n      swap1\n      pop\n        /* \"#utility.yul\":14159:14525   */\n      swap2\n      swap1\n      pop\n      jump\t// out\n        /* \"#utility.yul\":14531:14897   */\n    tag_525:\n        /* \"#utility.yul\":14673:14676   */\n      0x00\n        /* \"#utility.yul\":14694:14761   */\n      tag_527\n        /* \"#utility.yul\":14758:14760   */\n      0x21\n        /* \"#utility.yul\":14753:14756   */\n      dup4\n        /* \"#utility.yul\":14694:14761   */\n      tag_461\n      jump\t// in\n    tag_527:\n        /* \"#utility.yul\":14687:14761   */\n      swap2\n      pop\n        /* \"#utility.yul\":14770:14863   */\n      tag_528\n        /* \"#utility.yul\":14859:14862   */\n      dup3\n        /* \"#utility.yul\":14770:14863   */\n      tag_529\n      jump\t// in\n    tag_528:\n        /* \"#utility.yul\":14888:14890   */\n      0x40\n        /* \"#utility.yul\":14883:14886   */\n      dup3\n        /* \"#utility.yul\":14879:14891   */\n      add\n        /* \"#utility.yul\":14872:14891   */\n      swap1\n      pop\n        /* \"#utility.yul\":14531:14897   */\n      swap2\n      swap1\n      pop\n      jump\t// out\n        /* \"#utility.yul\":14903:15269   */\n    tag_530:\n        /* \"#utility.yul\":15045:15048   */\n      0x00\n        /* \"#utility.yul\":15066:15133   */\n      tag_532\n        /* \"#utility.yul\":15130:15132   */\n      0x31\n        /* \"#utility.yul\":15125:15128   */\n      dup4\n        /* \"#utility.yul\":15066:15133   */\n      tag_461\n      jump\t// in\n    tag_532:\n        /* \"#utility.yul\":15059:15133   */\n      swap2\n      pop\n        /* \"#utility.yul\":15142:15235   */\n      tag_533\n        /* \"#utility.yul\":15231:15234   */\n      dup3\n        /* \"#utility.yul\":15142:15235   */\n      tag_534\n      jump\t// in\n    tag_533:\n        /* \"#utility.yul\":15260:15262   */\n      0x40\n        /* \"#utility.yul\":15255:15258   */\n      dup3\n        /* \"#utility.yul\":15251:15263   */\n      add\n        /* \"#utility.yul\":15244:15263   */\n      swap1\n      pop\n        /* \"#utility.yul\":14903:15269   */\n      swap2\n      swap1\n      pop\n      jump\t// out\n        /* \"#utility.yul\":15325:17188   */\n    tag_535:\n        /* \"#utility.yul\":15436:15439   */\n      0x00\n        /* \"#utility.yul\":15472:15478   */\n      0x0120\n        /* \"#utility.yul\":15467:15470   */\n      dup4\n        /* \"#utility.yul\":15463:15479   */\n      add\n        /* \"#utility.yul\":15559:15563   */\n      0x00\n        /* \"#utility.yul\":15552:15557   */\n      dup4\n        /* \"#utility.yul\":15548:15564   */\n      add\n        /* \"#utility.yul\":15542:15565   */\n      mload\n        /* \"#utility.yul\":15578:15641   */\n      tag_537\n        /* \"#utility.yul\":15635:15639   */\n      0x00\n        /* \"#utility.yul\":15630:15633   */\n      dup7\n        /* \"#utility.yul\":15626:15640   */\n      add\n        /* \"#utility.yul\":15612:15624   */\n      dup3\n        /* \"#utility.yul\":15578:15641   */\n      tag_538\n      jump\t// in\n    tag_537:\n        /* \"#utility.yul\":15489:15651   */\n      pop\n        /* \"#utility.yul\":15741:15745   */\n      0x20\n        /* \"#utility.yul\":15734:15739   */\n      dup4\n        /* \"#utility.yul\":15730:15746   */\n      add\n        /* \"#utility.yul\":15724:15747   */\n      mload\n        /* \"#utility.yul\":15760:15823   */\n      tag_539\n        /* \"#utility.yul\":15817:15821   */\n      0x20\n        /* \"#utility.yul\":15812:15815   */\n      dup7\n        /* \"#utility.yul\":15808:15822   */\n      add\n        /* \"#utility.yul\":15794:15806   */\n      dup3\n        /* \"#utility.yul\":15760:15823   */\n      tag_538\n      jump\t// in\n    tag_539:\n        /* \"#utility.yul\":15661:15833   */\n      pop\n        /* \"#utility.yul\":15916:15920   */\n      0x40\n        /* \"#utility.yul\":15909:15914   */\n      dup4\n        /* \"#utility.yul\":15905:15921   */\n      add\n        /* \"#utility.yul\":15899:15922   */\n      mload\n        /* \"#utility.yul\":15935:15998   */\n      tag_540\n        /* \"#utility.yul\":15992:15996   */\n      0x40\n        /* \"#utility.yul\":15987:15990   */\n      dup7\n        /* \"#utility.yul\":15983:15997   */\n      add\n        /* \"#utility.yul\":15969:15981   */\n      dup3\n        /* \"#utility.yul\":15935:15998   */\n      tag_538\n      jump\t// in\n    tag_540:\n        /* \"#utility.yul\":15843:16008   */\n      pop\n        /* \"#utility.yul\":16094:16098   */\n      0x60\n        /* \"#utility.yul\":16087:16092   */\n      dup4\n        /* \"#utility.yul\":16083:16099   */\n      add\n        /* \"#utility.yul\":16077:16100   */\n      mload\n        /* \"#utility.yul\":16113:16176   */\n      tag_541\n        /* \"#utility.yul\":16170:16174   */\n      0x60\n        /* \"#utility.yul\":16165:16168   */\n      dup7\n        /* \"#utility.yul\":16161:16175   */\n      add\n        /* \"#utility.yul\":16147:16159   */\n      dup3\n        /* \"#utility.yul\":16113:16176   */\n      tag_538\n      jump\t// in\n    tag_541:\n        /* \"#utility.yul\":16018:16186   */\n      pop\n        /* \"#utility.yul\":16268:16272   */\n      0x80\n        /* \"#utility.yul\":16261:16266   */\n      dup4\n        /* \"#utility.yul\":16257:16273   */\n      add\n        /* \"#utility.yul\":16251:16274   */\n      mload\n        /* \"#utility.yul\":16287:16350   */\n      tag_542\n        /* \"#utility.yul\":16344:16348   */\n      0x80\n        /* \"#utility.yul\":16339:16342   */\n      dup7\n        /* \"#utility.yul\":16335:16349   */\n      add\n        /* \"#utility.yul\":16321:16333   */\n      dup3\n        /* \"#utility.yul\":16287:16350   */\n      tag_538\n      jump\t// in\n    tag_542:\n        /* \"#utility.yul\":16196:16360   */\n      pop\n        /* \"#utility.yul\":16451:16455   */\n      0xa0\n        /* \"#utility.yul\":16444:16449   */\n      dup4\n        /* \"#utility.yul\":16440:16456   */\n      add\n        /* \"#utility.yul\":16434:16457   */\n      mload\n        /* \"#utility.yul\":16470:16533   */\n      tag_543\n        /* \"#utility.yul\":16527:16531   */\n      0xa0\n        /* \"#utility.yul\":16522:16525   */\n      dup7\n        /* \"#utility.yul\":16518:16532   */\n      add\n        /* \"#utility.yul\":16504:16516   */\n      dup3\n        /* \"#utility.yul\":16470:16533   */\n      tag_425\n      jump\t// in\n    tag_543:\n        /* \"#utility.yul\":16370:16543   */\n      pop\n        /* \"#utility.yul\":16633:16637   */\n      0xc0\n        /* \"#utility.yul\":16626:16631   */\n      dup4\n        /* \"#utility.yul\":16622:16638   */\n      add\n        /* \"#utility.yul\":16616:16639   */\n      mload\n        /* \"#utility.yul\":16652:16715   */\n      tag_544\n        /* \"#utility.yul\":16709:16713   */\n      0xc0\n        /* \"#utility.yul\":16704:16707   */\n      dup7\n        /* \"#utility.yul\":16700:16714   */\n      add\n        /* \"#utility.yul\":16686:16698   */\n      dup3\n        /* \"#utility.yul\":16652:16715   */\n      tag_425\n      jump\t// in\n    tag_544:\n        /* \"#utility.yul\":16553:16725   */\n      pop\n        /* \"#utility.yul\":16815:16819   */\n      0xe0\n        /* \"#utility.yul\":16808:16813   */\n      dup4\n        /* \"#utility.yul\":16804:16820   */\n      add\n        /* \"#utility.yul\":16798:16821   */\n      mload\n        /* \"#utility.yul\":16868:16871   */\n      dup5\n        /* \"#utility.yul\":16862:16866   */\n      dup3\n        /* \"#utility.yul\":16858:16872   */\n      sub\n        /* \"#utility.yul\":16851:16855   */\n      0xe0\n        /* \"#utility.yul\":16846:16849   */\n      dup7\n        /* \"#utility.yul\":16842:16856   */\n      add\n        /* \"#utility.yul\":16835:16873   */\n      mstore\n        /* \"#utility.yul\":16894:16967   */\n      tag_545\n        /* \"#utility.yul\":16962:16966   */\n      dup3\n        /* \"#utility.yul\":16948:16960   */\n      dup3\n        /* \"#utility.yul\":16894:16967   */\n      tag_449\n      jump\t// in\n    tag_545:\n        /* \"#utility.yul\":16886:16967   */\n      swap2\n      pop\n        /* \"#utility.yul\":16735:16978   */\n      pop\n        /* \"#utility.yul\":17071:17077   */\n      0x0100\n        /* \"#utility.yul\":17064:17069   */\n      dup4\n        /* \"#utility.yul\":17060:17078   */\n      add\n        /* \"#utility.yul\":17054:17079   */\n      mload\n        /* \"#utility.yul\":17092:17151   */\n      tag_546\n        /* \"#utility.yul\":17143:17149   */\n      0x0100\n        /* \"#utility.yul\":17138:17141   */\n      dup7\n        /* \"#utility.yul\":17134:17150   */\n      add\n        /* \"#utility.yul\":17120:17132   */\n      dup3\n        /* \"#utility.yul\":17092:17151   */\n      tag_432\n      jump\t// in\n    tag_546:\n        /* \"#utility.yul\":16988:17161   */\n      pop\n        /* \"#utility.yul\":17178:17182   */\n      dup1\n        /* \"#utility.yul\":17171:17182   */\n      swap2\n      pop\n        /* \"#utility.yul\":15441:17188   */\n      pop\n        /* \"#utility.yul\":15325:17188   */\n      swap3\n      swap2\n      pop\n      pop\n      jump\t// out\n        /* \"#utility.yul\":17194:17302   */\n    tag_538:\n        /* \"#utility.yul\":17271:17295   */\n      tag_548\n        /* \"#utility.yul\":17289:17294   */\n      dup2\n        /* \"#utility.yul\":17271:17295   */\n      tag_549\n      jump\t// in\n    tag_548:\n        /* \"#utility.yul\":17266:17269   */\n      dup3\n        /* \"#utility.yul\":17259:17296   */\n      mstore\n        /* \"#utility.yul\":17194:17302   */\n      pop\n      pop\n      jump\t// out\n        /* \"#utility.yul\":17308:17426   */\n    tag_550:\n        /* \"#utility.yul\":17395:17419   */\n      tag_552\n        /* \"#utility.yul\":17413:17418   */\n      dup2\n        /* \"#utility.yul\":17395:17419   */\n      tag_549\n      jump\t// in\n    tag_552:\n        /* \"#utility.yul\":17390:17393   */\n      dup3\n        /* \"#utility.yul\":17383:17420   */\n      mstore\n        /* \"#utility.yul\":17308:17426   */\n      pop\n      pop\n      jump\t// out\n        /* \"#utility.yul\":17432:17867   */\n    tag_204:\n        /* \"#utility.yul\":17612:17615   */\n      0x00\n        /* \"#utility.yul\":17634:17729   */\n      tag_554\n        /* \"#utility.yul\":17725:17728   */\n      dup3\n        /* \"#utility.yul\":17716:17722   */\n      dup6\n        /* \"#utility.yul\":17634:17729   */\n      tag_464\n      jump\t// in\n    tag_554:\n        /* \"#utility.yul\":17627:17729   */\n      swap2\n      pop\n        /* \"#utility.yul\":17746:17841   */\n      tag_555\n        /* \"#utility.yul\":17837:17840   */\n      dup3\n        /* \"#utility.yul\":17828:17834   */\n      dup5\n        /* \"#utility.yul\":17746:17841   */\n      tag_464\n      jump\t// in\n    tag_555:\n        /* \"#utility.yul\":17739:17841   */\n      swap2\n      pop\n        /* \"#utility.yul\":17858:17861   */\n      dup2\n        /* \"#utility.yul\":17851:17861   */\n      swap1\n      pop\n        /* \"#utility.yul\":17432:17867   */\n      swap4\n      swap3\n      pop\n      pop\n      pop\n      jump\t// out\n        /* \"#utility.yul\":17873:18095   */\n    tag_43:\n        /* \"#utility.yul\":17966:17970   */\n      0x00\n        /* \"#utility.yul\":18004:18006   */\n      0x20\n        /* \"#utility.yul\":17993:18002   */\n      dup3\n        /* \"#utility.yul\":17989:18007   */\n      add\n        /* \"#utility.yul\":17981:18007   */\n      swap1\n      pop\n        /* \"#utility.yul\":18017:18088   */\n      tag_557\n        /* \"#utility.yul\":18085:18086   */\n      0x00\n        /* \"#utility.yul\":18074:18083   */\n      dup4\n        /* \"#utility.yul\":18070:18087   */\n      add\n        /* \"#utility.yul\":18061:18067   */\n      dup5\n        /* \"#utility.yul\":18017:18088   */\n      tag_429\n      jump\t// in\n    tag_557:\n        /* \"#utility.yul\":17873:18095   */\n      swap3\n      swap2\n      pop\n      pop\n      jump\t// out\n        /* \"#utility.yul\":18101:18741   */\n    tag_283:\n        /* \"#utility.yul\":18296:18300   */\n      0x00\n        /* \"#utility.yul\":18334:18337   */\n      0x80\n        /* \"#utility.yul\":18323:18332   */\n      dup3\n        /* \"#utility.yul\":18319:18338   */\n      add\n        /* \"#utility.yul\":18311:18338   */\n      swap1\n      pop\n        /* \"#utility.yul\":18348:18419   */\n      tag_559\n        /* \"#utility.yul\":18416:18417   */\n      0x00\n        /* \"#utility.yul\":18405:18414   */\n      dup4\n        /* \"#utility.yul\":18401:18418   */\n      add\n        /* \"#utility.yul\":18392:18398   */\n      dup8\n        /* \"#utility.yul\":18348:18419   */\n      tag_429\n      jump\t// in\n    tag_559:\n        /* \"#utility.yul\":18429:18501   */\n      tag_560\n        /* \"#utility.yul\":18497:18499   */\n      0x20\n        /* \"#utility.yul\":18486:18495   */\n      dup4\n        /* \"#utility.yul\":18482:18500   */\n      add\n        /* \"#utility.yul\":18473:18479   */\n      dup7\n        /* \"#utility.yul\":18429:18501   */\n      tag_429\n      jump\t// in\n    tag_560:\n        /* \"#utility.yul\":18511:18583   */\n      tag_561\n        /* \"#utility.yul\":18579:18581   */\n      0x40\n        /* \"#utility.yul\":18568:18577   */\n      dup4\n        /* \"#utility.yul\":18564:18582   */\n      add\n        /* \"#utility.yul\":18555:18561   */\n      dup6\n        /* \"#utility.yul\":18511:18583   */\n      tag_550\n      jump\t// in\n    tag_561:\n        /* \"#utility.yul\":18630:18639   */\n      dup2\n        /* \"#utility.yul\":18624:18628   */\n      dup2\n        /* \"#utility.yul\":18620:18640   */\n      sub\n        /* \"#utility.yul\":18615:18617   */\n      0x60\n        /* \"#utility.yul\":18604:18613   */\n      dup4\n        /* \"#utility.yul\":18600:18618   */\n      add\n        /* \"#utility.yul\":18593:18641   */\n      mstore\n        /* \"#utility.yul\":18658:18734   */\n      tag_562\n        /* \"#utility.yul\":18729:18733   */\n      dup2\n        /* \"#utility.yul\":18720:18726   */\n      dup5\n        /* \"#utility.yul\":18658:18734   */\n      tag_439\n      jump\t// in\n    tag_562:\n        /* \"#utility.yul\":18650:18734   */\n      swap1\n      pop\n        /* \"#utility.yul\":18101:18741   */\n      swap6\n      swap5\n      pop\n      pop\n      pop\n      pop\n      pop\n      jump\t// out\n        /* \"#utility.yul\":18747:18957   */\n    tag_29:\n        /* \"#utility.yul\":18834:18838   */\n      0x00\n        /* \"#utility.yul\":18872:18874   */\n      0x20\n        /* \"#utility.yul\":18861:18870   */\n      dup3\n        /* \"#utility.yul\":18857:18875   */\n      add\n        /* \"#utility.yul\":18849:18875   */\n      swap1\n      pop\n        /* \"#utility.yul\":18885:18950   */\n      tag_564\n        /* \"#utility.yul\":18947:18948   */\n      0x00\n        /* \"#utility.yul\":18936:18945   */\n      dup4\n        /* \"#utility.yul\":18932:18949   */\n      add\n        /* \"#utility.yul\":18923:18929   */\n      dup5\n        /* \"#utility.yul\":18885:18950   */\n      tag_436\n      jump\t// in\n    tag_564:\n        /* \"#utility.yul\":18747:18957   */\n      swap3\n      swap2\n      pop\n      pop\n      jump\t// out\n        /* \"#utility.yul\":18963:19276   */\n    tag_37:\n        /* \"#utility.yul\":19076:19080   */\n      0x00\n        /* \"#utility.yul\":19114:19116   */\n      0x20\n        /* \"#utility.yul\":19103:19112   */\n      dup3\n        /* \"#utility.yul\":19099:19117   */\n      add\n        /* \"#utility.yul\":19091:19117   */\n      swap1\n      pop\n        /* \"#utility.yul\":19163:19172   */\n      dup2\n        /* \"#utility.yul\":19157:19161   */\n      dup2\n        /* \"#utility.yul\":19153:19173   */\n      sub\n        /* \"#utility.yul\":19149:19150   */\n      0x00\n        /* \"#utility.yul\":19138:19147   */\n      dup4\n        /* \"#utility.yul\":19134:19151   */\n      add\n        /* \"#utility.yul\":19127:19174   */\n      mstore\n        /* \"#utility.yul\":19191:19269   */\n      tag_566\n        /* \"#utility.yul\":19264:19268   */\n      dup2\n        /* \"#utility.yul\":19255:19261   */\n      dup5\n        /* \"#utility.yul\":19191:19269   */\n      tag_457\n      jump\t// in\n    tag_566:\n        /* \"#utility.yul\":19183:19269   */\n      swap1\n      pop\n        /* \"#utility.yul\":18963:19276   */\n      swap3\n      swap2\n      pop\n      pop\n      jump\t// out\n        /* \"#utility.yul\":19282:19701   */\n    tag_251:\n        /* \"#utility.yul\":19448:19452   */\n      0x00\n        /* \"#utility.yul\":19486:19488   */\n      0x20\n        /* \"#utility.yul\":19475:19484   */\n      dup3\n        /* \"#utility.yul\":19471:19489   */\n      add\n        /* \"#utility.yul\":19463:19489   */\n      swap1\n      pop\n        /* \"#utility.yul\":19535:19544   */\n      dup2\n        /* \"#utility.yul\":19529:19533   */\n      dup2\n        /* \"#utility.yul\":19525:19545   */\n      sub\n        /* \"#utility.yul\":19521:19522   */\n      0x00\n        /* \"#utility.yul\":19510:19519   */\n      dup4\n        /* \"#utility.yul\":19506:19523   */\n      add\n        /* \"#utility.yul\":19499:19546   */\n      mstore\n        /* \"#utility.yul\":19563:19694   */\n      tag_568\n        /* \"#utility.yul\":19689:19693   */\n      dup2\n        /* \"#utility.yul\":19563:19694   */\n      tag_470\n      jump\t// in\n    tag_568:\n        /* \"#utility.yul\":19555:19694   */\n      swap1\n      pop\n        /* \"#utility.yul\":19282:19701   */\n      swap2\n      swap1\n      pop\n      jump\t// out\n        /* \"#utility.yul\":19707:20126   */\n    tag_227:\n        /* \"#utility.yul\":19873:19877   */\n      0x00\n        /* \"#utility.yul\":19911:19913   */\n      0x20\n        /* \"#utility.yul\":19900:19909   */\n      dup3\n        /* \"#utility.yul\":19896:19914   */\n      add\n        /* \"#utility.yul\":19888:19914   */\n      swap1\n      pop\n        /* \"#utility.yul\":19960:19969   */\n      dup2\n        /* \"#utility.yul\":19954:19958   */\n      dup2\n        /* \"#utility.yul\":19950:19970   */\n      sub\n        /* \"#utility.yul\":19946:19947   */\n      0x00\n        /* \"#utility.yul\":19935:19944   */\n      dup4\n        /* \"#utility.yul\":19931:19948   */\n      add\n        /* \"#utility.yul\":19924:19971   */\n      mstore\n        /* \"#utility.yul\":19988:20119   */\n      tag_570\n        /* \"#utility.yul\":20114:20118   */\n      dup2\n        /* \"#utility.yul\":19988:20119   */\n      tag_475\n      jump\t// in\n    tag_570:\n        /* \"#utility.yul\":19980:20119   */\n      swap1\n      pop\n        /* \"#utility.yul\":19707:20126   */\n      swap2\n      swap1\n      pop\n      jump\t// out\n        /* \"#utility.yul\":20132:20551   */\n    tag_230:\n        /* \"#utility.yul\":20298:20302   */\n      0x00\n        /* \"#utility.yul\":20336:20338   */\n      0x20\n        /* \"#utility.yul\":20325:20334   */\n      dup3\n        /* \"#utility.yul\":20321:20339   */\n      add\n        /* \"#utility.yul\":20313:20339   */\n      swap1\n      pop\n        /* \"#utility.yul\":20385:20394   */\n      dup2\n        /* \"#utility.yul\":20379:20383   */\n      dup2\n        /* \"#utility.yul\":20375:20395   */\n      sub\n        /* \"#utility.yul\":20371:20372   */\n      0x00\n        /* \"#utility.yul\":20360:20369   */\n      dup4\n        /* \"#utility.yul\":20356:20373   */\n      add\n        /* \"#utility.yul\":20349:20396   */\n      mstore\n        /* \"#utility.yul\":20413:20544   */\n      tag_572\n        /* \"#utility.yul\":20539:20543   */\n      dup2\n        /* \"#utility.yul\":20413:20544   */\n      tag_480\n      jump\t// in\n    tag_572:\n        /* \"#utility.yul\":20405:20544   */\n      swap1\n      pop\n        /* \"#utility.yul\":20132:20551   */\n      swap2\n      swap1\n      pop\n      jump\t// out\n        /* \"#utility.yul\":20557:20976   */\n    tag_243:\n        /* \"#utility.yul\":20723:20727   */\n      0x00\n        /* \"#utility.yul\":20761:20763   */\n      0x20\n        /* \"#utility.yul\":20750:20759   */\n      dup3\n        /* \"#utility.yul\":20746:20764   */\n      add\n        /* \"#utility.yul\":20738:20764   */\n      swap1\n      pop\n        /* \"#utility.yul\":20810:20819   */\n      dup2\n        /* \"#utility.yul\":20804:20808   */\n      dup2\n        /* \"#utility.yul\":20800:20820   */\n      sub\n        /* \"#utility.yul\":20796:20797   */\n      0x00\n        /* \"#utility.yul\":20785:20794   */\n      dup4\n        /* \"#utility.yul\":20781:20798   */\n      add\n        /* \"#utility.yul\":20774:20821   */\n      mstore\n        /* \"#utility.yul\":20838:20969   */\n      tag_574\n        /* \"#utility.yul\":20964:20968   */\n      dup2\n        /* \"#utility.yul\":20838:20969   */\n      tag_485\n      jump\t// in\n    tag_574:\n        /* \"#utility.yul\":20830:20969   */\n      swap1\n      pop\n        /* \"#utility.yul\":20557:20976   */\n      swap2\n      swap1\n      pop\n      jump\t// out\n        /* \"#utility.yul\":20982:21401   */\n    tag_217:\n        /* \"#utility.yul\":21148:21152   */\n      0x00\n        /* \"#utility.yul\":21186:21188   */\n      0x20\n        /* \"#utility.yul\":21175:21184   */\n      dup3\n        /* \"#utility.yul\":21171:21189   */\n      add\n        /* \"#utility.yul\":21163:21189   */\n      swap1\n      pop\n        /* \"#utility.yul\":21235:21244   */\n      dup2\n        /* \"#utility.yul\":21229:21233   */\n      dup2\n        /* \"#utility.yul\":21225:21245   */\n      sub\n        /* \"#utility.yul\":21221:21222   */\n      0x00\n        /* \"#utility.yul\":21210:21219   */\n      dup4\n        /* \"#utility.yul\":21206:21223   */\n      add\n        /* \"#utility.yul\":21199:21246   */\n      mstore\n        /* \"#utility.yul\":21263:21394   */\n      tag_576\n        /* \"#utility.yul\":21389:21393   */\n      dup2\n        /* \"#utility.yul\":21263:21394   */\n      tag_490\n      jump\t// in\n    tag_576:\n        /* \"#utility.yul\":21255:21394   */\n      swap1\n      pop\n        /* \"#utility.yul\":20982:21401   */\n      swap2\n      swap1\n      pop\n      jump\t// out\n        /* \"#utility.yul\":21407:21826   */\n    tag_161:\n        /* \"#utility.yul\":21573:21577   */\n      0x00\n        /* \"#utility.yul\":21611:21613   */\n      0x20\n        /* \"#utility.yul\":21600:21609   */\n      dup3\n        /* \"#utility.yul\":21596:21614   */\n      add\n        /* \"#utility.yul\":21588:21614   */\n      swap1\n      pop\n        /* \"#utility.yul\":21660:21669   */\n      dup2\n        /* \"#utility.yul\":21654:21658   */\n      dup2\n        /* \"#utility.yul\":21650:21670   */\n      sub\n        /* \"#utility.yul\":21646:21647   */\n      0x00\n        /* \"#utility.yul\":21635:21644   */\n      dup4\n        /* \"#utility.yul\":21631:21648   */\n      add\n        /* \"#utility.yul\":21624:21671   */\n      mstore\n        /* \"#utility.yul\":21688:21819   */\n      tag_578\n        /* \"#utility.yul\":21814:21818   */\n      dup2\n        /* \"#utility.yul\":21688:21819   */\n      tag_495\n      jump\t// in\n    tag_578:\n        /* \"#utility.yul\":21680:21819   */\n      swap1\n      pop\n        /* \"#utility.yul\":21407:21826   */\n      swap2\n      swap1\n      pop\n      jump\t// out\n        /* \"#utility.yul\":21832:22251   */\n    tag_140:\n        /* \"#utility.yul\":21998:22002   */\n      0x00\n        /* \"#utility.yul\":22036:22038   */\n      0x20\n        /* \"#utility.yul\":22025:22034   */\n      dup3\n        /* \"#utility.yul\":22021:22039   */\n      add\n        /* \"#utility.yul\":22013:22039   */\n      swap1\n      pop\n        /* \"#utility.yul\":22085:22094   */\n      dup2\n        /* \"#utility.yul\":22079:22083   */\n      dup2\n        /* \"#utility.yul\":22075:22095   */\n      sub\n        /* \"#utility.yul\":22071:22072   */\n      0x00\n        /* \"#utility.yul\":22060:22069   */\n      dup4\n        /* \"#utility.yul\":22056:22073   */\n      add\n        /* \"#utility.yul\":22049:22096   */\n      mstore\n        /* \"#utility.yul\":22113:22244   */\n      tag_580\n        /* \"#utility.yul\":22239:22243   */\n      dup2\n        /* \"#utility.yul\":22113:22244   */\n      tag_500\n      jump\t// in\n    tag_580:\n        /* \"#utility.yul\":22105:22244   */\n      swap1\n      pop\n        /* \"#utility.yul\":21832:22251   */\n      swap2\n      swap1\n      pop\n      jump\t// out\n        /* \"#utility.yul\":22257:22676   */\n    tag_157:\n        /* \"#utility.yul\":22423:22427   */\n      0x00\n        /* \"#utility.yul\":22461:22463   */\n      0x20\n        /* \"#utility.yul\":22450:22459   */\n      dup3\n        /* \"#utility.yul\":22446:22464   */\n      add\n        /* \"#utility.yul\":22438:22464   */\n      swap1\n      pop\n        /* \"#utility.yul\":22510:22519   */\n      dup2\n        /* \"#utility.yul\":22504:22508   */\n      dup2\n        /* \"#utility.yul\":22500:22520   */\n      sub\n        /* \"#utility.yul\":22496:22497   */\n      0x00\n        /* \"#utility.yul\":22485:22494   */\n      dup4\n        /* \"#utility.yul\":22481:22498   */\n      add\n        /* \"#utility.yul\":22474:22521   */\n      mstore\n        /* \"#utility.yul\":22538:22669   */\n      tag_582\n        /* \"#utility.yul\":22664:22668   */\n      dup2\n        /* \"#utility.yul\":22538:22669   */\n      tag_505\n      jump\t// in\n    tag_582:\n        /* \"#utility.yul\":22530:22669   */\n      swap1\n      pop\n        /* \"#utility.yul\":22257:22676   */\n      swap2\n      swap1\n      pop\n      jump\t// out\n        /* \"#utility.yul\":22682:23101   */\n    tag_127:\n        /* \"#utility.yul\":22848:22852   */\n      0x00\n        /* \"#utility.yul\":22886:22888   */\n      0x20\n        /* \"#utility.yul\":22875:22884   */\n      dup3\n        /* \"#utility.yul\":22871:22889   */\n      add\n        /* \"#utility.yul\":22863:22889   */\n      swap1\n      pop\n        /* \"#utility.yul\":22935:22944   */\n      dup2\n        /* \"#utility.yul\":22929:22933   */\n      dup2\n        /* \"#utility.yul\":22925:22945   */\n      sub\n        /* \"#utility.yul\":22921:22922   */\n      0x00\n        /* \"#utility.yul\":22910:22919   */\n      dup4\n        /* \"#utility.yul\":22906:22923   */\n      add\n        /* \"#utility.yul\":22899:22946   */\n      mstore\n        /* \"#utility.yul\":22963:23094   */\n      tag_584\n        /* \"#utility.yul\":23089:23093   */\n      dup2\n        /* \"#utility.yul\":22963:23094   */\n      tag_510\n      jump\t// in\n    tag_584:\n        /* \"#utility.yul\":22955:23094   */\n      swap1\n      pop\n        /* \"#utility.yul\":22682:23101   */\n      swap2\n      swap1\n      pop\n      jump\t// out\n        /* \"#utility.yul\":23107:23526   */\n    tag_196:\n        /* \"#utility.yul\":23273:23277   */\n      0x00\n        /* \"#utility.yul\":23311:23313   */\n      0x20\n        /* \"#utility.yul\":23300:23309   */\n      dup3\n        /* \"#utility.yul\":23296:23314   */\n      add\n        /* \"#utility.yul\":23288:23314   */\n      swap1\n      pop\n        /* \"#utility.yul\":23360:23369   */\n      dup2\n        /* \"#utility.yul\":23354:23358   */\n      dup2\n        /* \"#utility.yul\":23350:23370   */\n      sub\n        /* \"#utility.yul\":23346:23347   */\n      0x00\n        /* \"#utility.yul\":23335:23344   */\n      dup4\n        /* \"#utility.yul\":23331:23348   */\n      add\n        /* \"#utility.yul\":23324:23371   */\n      mstore\n        /* \"#utility.yul\":23388:23519   */\n      tag_586\n        /* \"#utility.yul\":23514:23518   */\n      dup2\n        /* \"#utility.yul\":23388:23519   */\n      tag_515\n      jump\t// in\n    tag_586:\n        /* \"#utility.yul\":23380:23519   */\n      swap1\n      pop\n        /* \"#utility.yul\":23107:23526   */\n      swap2\n      swap1\n      pop\n      jump\t// out\n        /* \"#utility.yul\":23532:23951   */\n    tag_110:\n        /* \"#utility.yul\":23698:23702   */\n      0x00\n        /* \"#utility.yul\":23736:23738   */\n      0x20\n        /* \"#utility.yul\":23725:23734   */\n      dup3\n        /* \"#utility.yul\":23721:23739   */\n      add\n        /* \"#utility.yul\":23713:23739   */\n      swap1\n      pop\n        /* \"#utility.yul\":23785:23794   */\n      dup2\n        /* \"#utility.yul\":23779:23783   */\n      dup2\n        /* \"#utility.yul\":23775:23795   */\n      sub\n        /* \"#utility.yul\":23771:23772   */\n      0x00\n        /* \"#utility.yul\":23760:23769   */\n      dup4\n        /* \"#utility.yul\":23756:23773   */\n      add\n        /* \"#utility.yul\":23749:23796   */\n      mstore\n        /* \"#utility.yul\":23813:23944   */\n      tag_588\n        /* \"#utility.yul\":23939:23943   */\n      dup2\n        /* \"#utility.yul\":23813:23944   */\n      tag_520\n      jump\t// in\n    tag_588:\n        /* \"#utility.yul\":23805:23944   */\n      swap1\n      pop\n        /* \"#utility.yul\":23532:23951   */\n      swap2\n      swap1\n      pop\n      jump\t// out\n        /* \"#utility.yul\":23957:24376   */\n    tag_132:\n        /* \"#utility.yul\":24123:24127   */\n      0x00\n        /* \"#utility.yul\":24161:24163   */\n      0x20\n        /* \"#utility.yul\":24150:24159   */\n      dup3\n        /* \"#utility.yul\":24146:24164   */\n      add\n        /* \"#utility.yul\":24138:24164   */\n      swap1\n      pop\n        /* \"#utility.yul\":24210:24219   */\n      dup2\n        /* \"#utility.yul\":24204:24208   */\n      dup2\n        /* \"#utility.yul\":24200:24220   */\n      sub\n        /* \"#utility.yul\":24196:24197   */\n      0x00\n        /* \"#utility.yul\":24185:24194   */\n      dup4\n        /* \"#utility.yul\":24181:24198   */\n      add\n        /* \"#utility.yul\":24174:24221   */\n      mstore\n        /* \"#utility.yul\":24238:24369   */\n      tag_590\n        /* \"#utility.yul\":24364:24368   */\n      dup2\n        /* \"#utility.yul\":24238:24369   */\n      tag_525\n      jump\t// in\n    tag_590:\n        /* \"#utility.yul\":24230:24369   */\n      swap1\n      pop\n        /* \"#utility.yul\":23957:24376   */\n      swap2\n      swap1\n      pop\n      jump\t// out\n        /* \"#utility.yul\":24382:24801   */\n    tag_149:\n        /* \"#utility.yul\":24548:24552   */\n      0x00\n        /* \"#utility.yul\":24586:24588   */\n      0x20\n        /* \"#utility.yul\":24575:24584   */\n      dup3\n        /* \"#utility.yul\":24571:24589   */\n      add\n        /* \"#utility.yul\":24563:24589   */\n      swap1\n      pop\n        /* \"#utility.yul\":24635:24644   */\n      dup2\n        /* \"#utility.yul\":24629:24633   */\n      dup2\n        /* \"#utility.yul\":24625:24645   */\n      sub\n        /* \"#utility.yul\":24621:24622   */\n      0x00\n        /* \"#utility.yul\":24610:24619   */\n      dup4\n        /* \"#utility.yul\":24606:24623   */\n      add\n        /* \"#utility.yul\":24599:24646   */\n      mstore\n        /* \"#utility.yul\":24663:24794   */\n      tag_592\n        /* \"#utility.yul\":24789:24793   */\n      dup2\n        /* \"#utility.yul\":24663:24794   */\n      tag_530\n      jump\t// in\n    tag_592:\n        /* \"#utility.yul\":24655:24794   */\n      swap1\n      pop\n        /* \"#utility.yul\":24382:24801   */\n      swap2\n      swap1\n      pop\n      jump\t// out\n        /* \"#utility.yul\":24807:25164   */\n    tag_76:\n        /* \"#utility.yul\":24942:24946   */\n      0x00\n        /* \"#utility.yul\":24980:24982   */\n      0x20\n        /* \"#utility.yul\":24969:24978   */\n      dup3\n        /* \"#utility.yul\":24965:24983   */\n      add\n        /* \"#utility.yul\":24957:24983   */\n      swap1\n      pop\n        /* \"#utility.yul\":25029:25038   */\n      dup2\n        /* \"#utility.yul\":25023:25027   */\n      dup2\n        /* \"#utility.yul\":25019:25039   */\n      sub\n        /* \"#utility.yul\":25015:25016   */\n      0x00\n        /* \"#utility.yul\":25004:25013   */\n      dup4\n        /* \"#utility.yul\":25000:25017   */\n      add\n        /* \"#utility.yul\":24993:25040   */\n      mstore\n        /* \"#utility.yul\":25057:25157   */\n      tag_594\n        /* \"#utility.yul\":25152:25156   */\n      dup2\n        /* \"#utility.yul\":25143:25149   */\n      dup5\n        /* \"#utility.yul\":25057:25157   */\n      tag_535\n      jump\t// in\n    tag_594:\n        /* \"#utility.yul\":25049:25157   */\n      swap1\n      pop\n        /* \"#utility.yul\":24807:25164   */\n      swap3\n      swap2\n      pop\n      pop\n      jump\t// out\n        /* \"#utility.yul\":25170:25392   */\n    tag_64:\n        /* \"#utility.yul\":25263:25267   */\n      0x00\n        /* \"#utility.yul\":25301:25303   */\n      0x20\n        /* \"#utility.yul\":25290:25299   */\n      dup3\n        /* \"#utility.yul\":25286:25304   */\n      add\n        /* \"#utility.yul\":25278:25304   */\n      swap1\n      pop\n        /* \"#utility.yul\":25314:25385   */\n      tag_596\n        /* \"#utility.yul\":25382:25383   */\n      0x00\n        /* \"#utility.yul\":25371:25380   */\n      dup4\n        /* \"#utility.yul\":25367:25384   */\n      add\n        /* \"#utility.yul\":25358:25364   */\n      dup5\n        /* \"#utility.yul\":25314:25385   */\n      tag_550\n      jump\t// in\n    tag_596:\n        /* \"#utility.yul\":25170:25392   */\n      swap3\n      swap2\n      pop\n      pop\n      jump\t// out\n        /* \"#utility.yul\":25398:26153   */\n    tag_114:\n        /* \"#utility.yul\":25623:25627   */\n      0x00\n        /* \"#utility.yul\":25661:25664   */\n      0xa0\n        /* \"#utility.yul\":25650:25659   */\n      dup3\n        /* \"#utility.yul\":25646:25665   */\n      add\n        /* \"#utility.yul\":25638:25665   */\n      swap1\n      pop\n        /* \"#utility.yul\":25675:25746   */\n      tag_598\n        /* \"#utility.yul\":25743:25744   */\n      0x00\n        /* \"#utility.yul\":25732:25741   */\n      dup4\n        /* \"#utility.yul\":25728:25745   */\n      add\n        /* \"#utility.yul\":25719:25725   */\n      dup9\n        /* \"#utility.yul\":25675:25746   */\n      tag_550\n      jump\t// in\n    tag_598:\n        /* \"#utility.yul\":25756:25828   */\n      tag_599\n        /* \"#utility.yul\":25824:25826   */\n      0x20\n        /* \"#utility.yul\":25813:25822   */\n      dup4\n        /* \"#utility.yul\":25809:25827   */\n      add\n        /* \"#utility.yul\":25800:25806   */\n      dup8\n        /* \"#utility.yul\":25756:25828   */\n      tag_550\n      jump\t// in\n    tag_599:\n        /* \"#utility.yul\":25838:25910   */\n      tag_600\n        /* \"#utility.yul\":25906:25908   */\n      0x40\n        /* \"#utility.yul\":25895:25904   */\n      dup4\n        /* \"#utility.yul\":25891:25909   */\n      add\n        /* \"#utility.yul\":25882:25888   */\n      dup7\n        /* \"#utility.yul\":25838:25910   */\n      tag_550\n      jump\t// in\n    tag_600:\n        /* \"#utility.yul\":25920:25992   */\n      tag_601\n        /* \"#utility.yul\":25988:25990   */\n      0x60\n        /* \"#utility.yul\":25977:25986   */\n      dup4\n        /* \"#utility.yul\":25973:25991   */\n      add\n        /* \"#utility.yul\":25964:25970   */\n      dup6\n        /* \"#utility.yul\":25920:25992   */\n      tag_550\n      jump\t// in\n    tag_601:\n        /* \"#utility.yul\":26040:26049   */\n      dup2\n        /* \"#utility.yul\":26034:26038   */\n      dup2\n        /* \"#utility.yul\":26030:26050   */\n      sub\n        /* \"#utility.yul\":26024:26027   */\n      0x80\n        /* \"#utility.yul\":26013:26022   */\n      dup4\n        /* \"#utility.yul\":26009:26028   */\n      add\n        /* \"#utility.yul\":26002:26051   */\n      mstore\n        /* \"#utility.yul\":26068:26146   */\n      tag_602\n        /* \"#utility.yul\":26141:26145   */\n      dup2\n        /* \"#utility.yul\":26132:26138   */\n      dup5\n        /* \"#utility.yul\":26068:26146   */\n      tag_457\n      jump\t// in\n    tag_602:\n        /* \"#utility.yul\":26060:26146   */\n      swap1\n      pop\n        /* \"#utility.yul\":25398:26153   */\n      swap7\n      swap6\n      pop\n      pop\n      pop\n      pop\n      pop\n      pop\n      jump\t// out\n        /* \"#utility.yul\":26159:27346   */\n    tag_81:\n        /* \"#utility.yul\":26490:26494   */\n      0x00\n        /* \"#utility.yul\":26528:26531   */\n      0x0120\n        /* \"#utility.yul\":26517:26526   */\n      dup3\n        /* \"#utility.yul\":26513:26532   */\n      add\n        /* \"#utility.yul\":26505:26532   */\n      swap1\n      pop\n        /* \"#utility.yul\":26542:26613   */\n      tag_604\n        /* \"#utility.yul\":26610:26611   */\n      0x00\n        /* \"#utility.yul\":26599:26608   */\n      dup4\n        /* \"#utility.yul\":26595:26612   */\n      add\n        /* \"#utility.yul\":26586:26592   */\n      dup13\n        /* \"#utility.yul\":26542:26613   */\n      tag_550\n      jump\t// in\n    tag_604:\n        /* \"#utility.yul\":26623:26695   */\n      tag_605\n        /* \"#utility.yul\":26691:26693   */\n      0x20\n        /* \"#utility.yul\":26680:26689   */\n      dup4\n        /* \"#utility.yul\":26676:26694   */\n      add\n        /* \"#utility.yul\":26667:26673   */\n      dup12\n        /* \"#utility.yul\":26623:26695   */\n      tag_550\n      jump\t// in\n    tag_605:\n        /* \"#utility.yul\":26705:26777   */\n      tag_606\n        /* \"#utility.yul\":26773:26775   */\n      0x40\n        /* \"#utility.yul\":26762:26771   */\n      dup4\n        /* \"#utility.yul\":26758:26776   */\n      add\n        /* \"#utility.yul\":26749:26755   */\n      dup11\n        /* \"#utility.yul\":26705:26777   */\n      tag_550\n      jump\t// in\n    tag_606:\n        /* \"#utility.yul\":26787:26859   */\n      tag_607\n        /* \"#utility.yul\":26855:26857   */\n      0x60\n        /* \"#utility.yul\":26844:26853   */\n      dup4\n        /* \"#utility.yul\":26840:26858   */\n      add\n        /* \"#utility.yul\":26831:26837   */\n      dup10\n        /* \"#utility.yul\":26787:26859   */\n      tag_550\n      jump\t// in\n    tag_607:\n        /* \"#utility.yul\":26869:26942   */\n      tag_608\n        /* \"#utility.yul\":26937:26940   */\n      0x80\n        /* \"#utility.yul\":26926:26935   */\n      dup4\n        /* \"#utility.yul\":26922:26941   */\n      add\n        /* \"#utility.yul\":26913:26919   */\n      dup9\n        /* \"#utility.yul\":26869:26942   */\n      tag_550\n      jump\t// in\n    tag_608:\n        /* \"#utility.yul\":26952:27025   */\n      tag_609\n        /* \"#utility.yul\":27020:27023   */\n      0xa0\n        /* \"#utility.yul\":27009:27018   */\n      dup4\n        /* \"#utility.yul\":27005:27024   */\n      add\n        /* \"#utility.yul\":26996:27002   */\n      dup8\n        /* \"#utility.yul\":26952:27025   */\n      tag_429\n      jump\t// in\n    tag_609:\n        /* \"#utility.yul\":27035:27108   */\n      tag_610\n        /* \"#utility.yul\":27103:27106   */\n      0xc0\n        /* \"#utility.yul\":27092:27101   */\n      dup4\n        /* \"#utility.yul\":27088:27107   */\n      add\n        /* \"#utility.yul\":27079:27085   */\n      dup7\n        /* \"#utility.yul\":27035:27108   */\n      tag_429\n      jump\t// in\n    tag_610:\n        /* \"#utility.yul\":27156:27165   */\n      dup2\n        /* \"#utility.yul\":27150:27154   */\n      dup2\n        /* \"#utility.yul\":27146:27166   */\n      sub\n        /* \"#utility.yul\":27140:27143   */\n      0xe0\n        /* \"#utility.yul\":27129:27138   */\n      dup4\n        /* \"#utility.yul\":27125:27144   */\n      add\n        /* \"#utility.yul\":27118:27167   */\n      mstore\n        /* \"#utility.yul\":27184:27262   */\n      tag_611\n        /* \"#utility.yul\":27257:27261   */\n      dup2\n        /* \"#utility.yul\":27248:27254   */\n      dup6\n        /* \"#utility.yul\":27184:27262   */\n      tag_457\n      jump\t// in\n    tag_611:\n        /* \"#utility.yul\":27176:27262   */\n      swap1\n      pop\n        /* \"#utility.yul\":27272:27339   */\n      tag_612\n        /* \"#utility.yul\":27334:27337   */\n      0x0100\n        /* \"#utility.yul\":27323:27332   */\n      dup4\n        /* \"#utility.yul\":27319:27338   */\n      add\n        /* \"#utility.yul\":27310:27316   */\n      dup5\n        /* \"#utility.yul\":27272:27339   */\n      tag_436\n      jump\t// in\n    tag_612:\n        /* \"#utility.yul\":26159:27346   */\n      swap11\n      swap10\n      pop\n      pop\n      pop\n      pop\n      pop\n      pop\n      pop\n      pop\n      pop\n      pop\n      jump\t// out\n        /* \"#utility.yul\":27352:27481   */\n    tag_316:\n        /* \"#utility.yul\":27386:27392   */\n      0x00\n        /* \"#utility.yul\":27413:27433   */\n      tag_614\n      tag_615\n      jump\t// in\n    tag_614:\n        /* \"#utility.yul\":27403:27433   */\n      swap1\n      pop\n        /* \"#utility.yul\":27442:27475   */\n      tag_616\n        /* \"#utility.yul\":27470:27474   */\n      dup3\n        /* \"#utility.yul\":27462:27468   */\n      dup3\n        /* \"#utility.yul\":27442:27475   */\n      tag_617\n      jump\t// in\n    tag_616:\n        /* \"#utility.yul\":27352:27481   */\n      swap2\n      swap1\n      pop\n      jump\t// out\n        /* \"#utility.yul\":27487:27562   */\n    tag_615:\n        /* \"#utility.yul\":27520:27526   */\n      0x00\n        /* \"#utility.yul\":27553:27555   */\n      0x40\n        /* \"#utility.yul\":27547:27556   */\n      mload\n        /* \"#utility.yul\":27537:27556   */\n      swap1\n      pop\n        /* \"#utility.yul\":27487:27562   */\n      swap1\n      jump\t// out\n        /* \"#utility.yul\":27568:27875   */\n    tag_315:\n        /* \"#utility.yul\":27629:27633   */\n      0x00\n        /* \"#utility.yul\":27719:27737   */\n      0xffffffffffffffff\n        /* \"#utility.yul\":27711:27717   */\n      dup3\n        /* \"#utility.yul\":27708:27738   */\n      gt\n        /* \"#utility.yul\":27705:27761   */\n      iszero\n      tag_620\n      jumpi\n        /* \"#utility.yul\":27741:27759   */\n      tag_621\n      tag_263\n      jump\t// in\n    tag_621:\n        /* \"#utility.yul\":27705:27761   */\n    tag_620:\n        /* \"#utility.yul\":27779:27808   */\n      tag_622\n        /* \"#utility.yul\":27801:27807   */\n      dup3\n        /* \"#utility.yul\":27779:27808   */\n      tag_448\n      jump\t// in\n    tag_622:\n        /* \"#utility.yul\":27771:27808   */\n      swap1\n      pop\n        /* \"#utility.yul\":27863:27867   */\n      0x20\n        /* \"#utility.yul\":27857:27861   */\n      dup2\n        /* \"#utility.yul\":27853:27868   */\n      add\n        /* \"#utility.yul\":27845:27868   */\n      swap1\n      pop\n        /* \"#utility.yul\":27568:27875   */\n      swap2\n      swap1\n      pop\n      jump\t// out\n        /* \"#utility.yul\":27881:28189   */\n    tag_326:\n        /* \"#utility.yul\":27943:27947   */\n      0x00\n        /* \"#utility.yul\":28033:28051   */\n      0xffffffffffffffff\n        /* \"#utility.yul\":28025:28031   */\n      dup3\n        /* \"#utility.yul\":28022:28052   */\n      gt\n        /* \"#utility.yul\":28019:28075   */\n      iszero\n      tag_624\n      jumpi\n        /* \"#utility.yul\":28055:28073   */\n      tag_625\n      tag_263\n      jump\t// in\n    tag_625:\n        /* \"#utility.yul\":28019:28075   */\n    tag_624:\n        /* \"#utility.yul\":28093:28122   */\n      tag_626\n        /* \"#utility.yul\":28115:28121   */\n      dup3\n        /* \"#utility.yul\":28093:28122   */\n      tag_448\n      jump\t// in\n    tag_626:\n        /* \"#utility.yul\":28085:28122   */\n      swap1\n      pop\n        /* \"#utility.yul\":28177:28181   */\n      0x20\n        /* \"#utility.yul\":28171:28175   */\n      dup2\n        /* \"#utility.yul\":28167:28182   */\n      add\n        /* \"#utility.yul\":28159:28182   */\n      swap1\n      pop\n        /* \"#utility.yul\":27881:28189   */\n      swap2\n      swap1\n      pop\n      jump\t// out\n        /* \"#utility.yul\":28195:28293   */\n    tag_442:\n        /* \"#utility.yul\":28246:28252   */\n      0x00\n        /* \"#utility.yul\":28280:28285   */\n      dup2\n        /* \"#utility.yul\":28274:28286   */\n      mload\n        /* \"#utility.yul\":28264:28286   */\n      swap1\n      pop\n        /* \"#utility.yul\":28195:28293   */\n      swap2\n      swap1\n      pop\n      jump\t// out\n        /* \"#utility.yul\":28299:28398   */\n    tag_452:\n        /* \"#utility.yul\":28351:28357   */\n      0x00\n        /* \"#utility.yul\":28385:28390   */\n      dup2\n        /* \"#utility.yul\":28379:28391   */\n      mload\n        /* \"#utility.yul\":28369:28391   */\n      swap1\n      pop\n        /* \"#utility.yul\":28299:28398   */\n      swap2\n      swap1\n      pop\n      jump\t// out\n        /* \"#utility.yul\":28404:28572   */\n    tag_444:\n        /* \"#utility.yul\":28487:28498   */\n      0x00\n        /* \"#utility.yul\":28521:28527   */\n      dup3\n        /* \"#utility.yul\":28516:28519   */\n      dup3\n        /* \"#utility.yul\":28509:28528   */\n      mstore\n        /* \"#utility.yul\":28561:28565   */\n      0x20\n        /* \"#utility.yul\":28556:28559   */\n      dup3\n        /* \"#utility.yul\":28552:28566   */\n      add\n        /* \"#utility.yul\":28537:28566   */\n      swap1\n      pop\n        /* \"#utility.yul\":28404:28572   */\n      swap3\n      swap2\n      pop\n      pop\n      jump\t// out\n        /* \"#utility.yul\":28578:28737   */\n    tag_454:\n        /* \"#utility.yul\":28652:28663   */\n      0x00\n        /* \"#utility.yul\":28686:28692   */\n      dup3\n        /* \"#utility.yul\":28681:28684   */\n      dup3\n        /* \"#utility.yul\":28674:28693   */\n      mstore\n        /* \"#utility.yul\":28726:28730   */\n      0x20\n        /* \"#utility.yul\":28721:28724   */\n      dup3\n        /* \"#utility.yul\":28717:28731   */\n      add\n        /* \"#utility.yul\":28702:28731   */\n      swap1\n      pop\n        /* \"#utility.yul\":28578:28737   */\n      swap3\n      swap2\n      pop\n      pop\n      jump\t// out\n        /* \"#utility.yul\":28743:28912   */\n    tag_461:\n        /* \"#utility.yul\":28827:28838   */\n      0x00\n        /* \"#utility.yul\":28861:28867   */\n      dup3\n        /* \"#utility.yul\":28856:28859   */\n      dup3\n        /* \"#utility.yul\":28849:28868   */\n      mstore\n        /* \"#utility.yul\":28901:28905   */\n      0x20\n        /* \"#utility.yul\":28896:28899   */\n      dup3\n        /* \"#utility.yul\":28892:28906   */\n      add\n        /* \"#utility.yul\":28877:28906   */\n      swap1\n      pop\n        /* \"#utility.yul\":28743:28912   */\n      swap3\n      swap2\n      pop\n      pop\n      jump\t// out\n        /* \"#utility.yul\":28918:29066   */\n    tag_468:\n        /* \"#utility.yul\":29020:29031   */\n      0x00\n        /* \"#utility.yul\":29057:29060   */\n      dup2\n        /* \"#utility.yul\":29042:29060   */\n      swap1\n      pop\n        /* \"#utility.yul\":28918:29066   */\n      swap3\n      swap2\n      pop\n      pop\n      jump\t// out\n        /* \"#utility.yul\":29072:29377   */\n    tag_237:\n        /* \"#utility.yul\":29112:29115   */\n      0x00\n        /* \"#utility.yul\":29131:29151   */\n      tag_634\n        /* \"#utility.yul\":29149:29150   */\n      dup3\n        /* \"#utility.yul\":29131:29151   */\n      tag_549\n      jump\t// in\n    tag_634:\n        /* \"#utility.yul\":29126:29151   */\n      swap2\n      pop\n        /* \"#utility.yul\":29165:29185   */\n      tag_635\n        /* \"#utility.yul\":29183:29184   */\n      dup4\n        /* \"#utility.yul\":29165:29185   */\n      tag_549\n      jump\t// in\n    tag_635:\n        /* \"#utility.yul\":29160:29185   */\n      swap3\n      pop\n        /* \"#utility.yul\":29319:29320   */\n      dup3\n        /* \"#utility.yul\":29251:29317   */\n      0xffffffffffffffffffffffffffffffffffffffffffffffffffffffffffffffff\n        /* \"#utility.yul\":29247:29321   */\n      sub\n        /* \"#utility.yul\":29244:29245   */\n      dup3\n        /* \"#utility.yul\":29241:29322   */\n      gt\n        /* \"#utility.yul\":29238:29345   */\n      iszero\n      tag_636\n      jumpi\n        /* \"#utility.yul\":29325:29343   */\n      tag_637\n      tag_638\n      jump\t// in\n    tag_637:\n        /* \"#utility.yul\":29238:29345   */\n    tag_636:\n        /* \"#utility.yul\":29369:29370   */\n      dup3\n        /* \"#utility.yul\":29366:29367   */\n      dup3\n        /* \"#utility.yul\":29362:29371   */\n      add\n        /* \"#utility.yul\":29355:29371   */\n      swap1\n      pop\n        /* \"#utility.yul\":29072:29377   */\n      swap3\n      swap2\n      pop\n      pop\n      jump\t// out\n        /* \"#utility.yul\":29383:29568   */\n    tag_260:\n        /* \"#utility.yul\":29423:29424   */\n      0x00\n        /* \"#utility.yul\":29440:29460   */\n      tag_640\n        /* \"#utility.yul\":29458:29459   */\n      dup3\n        /* \"#utility.yul\":29440:29460   */\n      tag_549\n      jump\t// in\n    tag_640:\n        /* \"#utility.yul\":29435:29460   */\n      swap2\n      pop\n        /* \"#utility.yul\":29474:29494   */\n      tag_641\n        /* \"#utility.yul\":29492:29493   */\n      dup4\n        /* \"#utility.yul\":29474:29494   */\n      tag_549\n      jump\t// in\n    tag_641:\n        /* \"#utility.yul\":29469:29494   */\n      swap3\n      pop\n        /* \"#utility.yul\":29513:29514   */\n      dup3\n        /* \"#utility.yul\":29503:29538   */\n      tag_642\n      jumpi\n        /* \"#utility.yul\":29518:29536   */\n      tag_643\n      tag_644\n      jump\t// in\n    tag_643:\n        /* \"#utility.yul\":29503:29538   */\n    tag_642:\n        /* \"#utility.yul\":29560:29561   */\n      dup3\n        /* \"#utility.yul\":29557:29558   */\n      dup3\n        /* \"#utility.yul\":29553:29562   */\n      div\n        /* \"#utility.yul\":29548:29562   */\n      swap1\n      pop\n        /* \"#utility.yul\":29383:29568   */\n      swap3\n      swap2\n      pop\n      pop\n      jump\t// out\n        /* \"#utility.yul\":29574:29765   */\n    tag_235:\n        /* \"#utility.yul\":29614:29618   */\n      0x00\n        /* \"#utility.yul\":29634:29654   */\n      tag_646\n        /* \"#utility.yul\":29652:29653   */\n      dup3\n        /* \"#utility.yul\":29634:29654   */\n      tag_549\n      jump\t// in\n    tag_646:\n        /* \"#utility.yul\":29629:29654   */\n      swap2\n      pop\n        /* \"#utility.yul\":29668:29688   */\n      tag_647\n        /* \"#utility.yul\":29686:29687   */\n      dup4\n        /* \"#utility.yul\":29668:29688   */\n      tag_549\n      jump\t// in\n    tag_647:\n        /* \"#utility.yul\":29663:29688   */\n      swap3\n      pop\n        /* \"#utility.yul\":29707:29708   */\n      dup3\n        /* \"#utility.yul\":29704:29705   */\n      dup3\n        /* \"#utility.yul\":29701:29709   */\n      lt\n        /* \"#utility.yul\":29698:29732   */\n      iszero\n      tag_648\n      jumpi\n        /* \"#utility.yul\":29712:29730   */\n      tag_649\n      tag_638\n      jump\t// in\n    tag_649:\n        /* \"#utility.yul\":29698:29732   */\n    tag_648:\n        /* \"#utility.yul\":29757:29758   */\n      dup3\n        /* \"#utility.yul\":29754:29755   */\n      dup3\n        /* \"#utility.yul\":29750:29759   */\n      sub\n        /* \"#utility.yul\":29742:29759   */\n      swap1\n      pop\n        /* \"#utility.yul\":29574:29765   */\n      swap3\n      swap2\n      pop\n      pop\n      jump\t// out\n        /* \"#utility.yul\":29771:29867   */\n    tag_428:\n        /* \"#utility.yul\":29808:29815   */\n      0x00\n        /* \"#utility.yul\":29837:29861   */\n      tag_651\n        /* \"#utility.yul\":29855:29860   */\n      dup3\n        /* \"#utility.yul\":29837:29861   */\n      tag_652\n      jump\t// in\n    tag_651:\n        /* \"#utility.yul\":29826:29861   */\n      swap1\n      pop\n        /* \"#utility.yul\":29771:29867   */\n      swap2\n      swap1\n      pop\n      jump\t// out\n        /* \"#utility.yul\":29873:29963   */\n    tag_435:\n        /* \"#utility.yul\":29907:29914   */\n      0x00\n        /* \"#utility.yul\":29950:29955   */\n      dup2\n        /* \"#utility.yul\":29943:29956   */\n      iszero\n        /* \"#utility.yul\":29936:29957   */\n      iszero\n        /* \"#utility.yul\":29925:29957   */\n      swap1\n      pop\n        /* \"#utility.yul\":29873:29963   */\n      swap2\n      swap1\n      pop\n      jump\t// out\n        /* \"#utility.yul\":29969:30118   */\n    tag_654:\n        /* \"#utility.yul\":30005:30012   */\n      0x00\n        /* \"#utility.yul\":30045:30111   */\n      0xffffffff00000000000000000000000000000000000000000000000000000000\n        /* \"#utility.yul\":30038:30043   */\n      dup3\n        /* \"#utility.yul\":30034:30112   */\n      and\n        /* \"#utility.yul\":30023:30112   */\n      swap1\n      pop\n        /* \"#utility.yul\":29969:30118   */\n      swap2\n      swap1\n      pop\n      jump\t// out\n        /* \"#utility.yul\":30124:30250   */\n    tag_652:\n        /* \"#utility.yul\":30161:30168   */\n      0x00\n        /* \"#utility.yul\":30201:30243   */\n      0xffffffffffffffffffffffffffffffffffffffff\n        /* \"#utility.yul\":30194:30199   */\n      dup3\n        /* \"#utility.yul\":30190:30244   */\n      and\n        /* \"#utility.yul\":30179:30244   */\n      swap1\n      pop\n        /* \"#utility.yul\":30124:30250   */\n      swap2\n      swap1\n      pop\n      jump\t// out\n        /* \"#utility.yul\":30256:30333   */\n    tag_549:\n        /* \"#utility.yul\":30293:30300   */\n      0x00\n        /* \"#utility.yul\":30322:30327   */\n      dup2\n        /* \"#utility.yul\":30311:30327   */\n      swap1\n      pop\n        /* \"#utility.yul\":30256:30333   */\n      swap2\n      swap1\n      pop\n      jump\t// out\n        /* \"#utility.yul\":30339:30493   */\n    tag_321:\n        /* \"#utility.yul\":30423:30429   */\n      dup3\n        /* \"#utility.yul\":30418:30421   */\n      dup2\n        /* \"#utility.yul\":30413:30416   */\n      dup4\n        /* \"#utility.yul\":30400:30430   */\n      calldatacopy\n        /* \"#utility.yul\":30485:30486   */\n      0x00\n        /* \"#utility.yul\":30476:30482   */\n      dup4\n        /* \"#utility.yul\":30471:30474   */\n      dup4\n        /* \"#utility.yul\":30467:30483   */\n      add\n        /* \"#utility.yul\":30460:30487   */\n      mstore\n        /* \"#utility.yul\":30339:30493   */\n      pop\n      pop\n      pop\n      jump\t// out\n        /* \"#utility.yul\":30499:30806   */\n    tag_446:\n        /* \"#utility.yul\":30567:30568   */\n      0x00\n        /* \"#utility.yul\":30577:30690   */\n    tag_660:\n        /* \"#utility.yul\":30591:30597   */\n      dup4\n        /* \"#utility.yul\":30588:30589   */\n      dup2\n        /* \"#utility.yul\":30585:30598   */\n      lt\n        /* \"#utility.yul\":30577:30690   */\n      iszero\n      tag_662\n      jumpi\n        /* \"#utility.yul\":30676:30677   */\n      dup1\n        /* \"#utility.yul\":30671:30674   */\n      dup3\n        /* \"#utility.yul\":30667:30678   */\n      add\n        /* \"#utility.yul\":30661:30679   */\n      mload\n        /* \"#utility.yul\":30657:30658   */\n      dup2\n        /* \"#utility.yul\":30652:30655   */\n      dup5\n        /* \"#utility.yul\":30648:30659   */\n      add\n        /* \"#utility.yul\":30641:30680   */\n      mstore\n        /* \"#utility.yul\":30613:30615   */\n      0x20\n        /* \"#utility.yul\":30610:30611   */\n      dup2\n        /* \"#utility.yul\":30606:30616   */\n      add\n        /* \"#utility.yul\":30601:30616   */\n      swap1\n      pop\n        /* \"#utility.yul\":30577:30690   */\n      jump(tag_660)\n    tag_662:\n        /* \"#utility.yul\":30708:30714   */\n      dup4\n        /* \"#utility.yul\":30705:30706   */\n      dup2\n        /* \"#utility.yul\":30702:30715   */\n      gt\n        /* \"#utility.yul\":30699:30800   */\n      iszero\n      tag_663\n      jumpi\n        /* \"#utility.yul\":30788:30789   */\n      0x00\n        /* \"#utility.yul\":30779:30785   */\n      dup5\n        /* \"#utility.yul\":30774:30777   */\n      dup5\n        /* \"#utility.yul\":30770:30786   */\n      add\n        /* \"#utility.yul\":30763:30790   */\n      mstore\n        /* \"#utility.yul\":30699:30800   */\n    tag_663:\n        /* \"#utility.yul\":30548:30806   */\n      pop\n        /* \"#utility.yul\":30499:30806   */\n      pop\n      pop\n      pop\n      jump\t// out\n        /* \"#utility.yul\":30812:31132   */\n    tag_117:\n        /* \"#utility.yul\":30856:30862   */\n      0x00\n        /* \"#utility.yul\":30893:30894   */\n      0x02\n        /* \"#utility.yul\":30887:30891   */\n      dup3\n        /* \"#utility.yul\":30883:30895   */\n      div\n        /* \"#utility.yul\":30873:30895   */\n      swap1\n      pop\n        /* \"#utility.yul\":30940:30941   */\n      0x01\n        /* \"#utility.yul\":30934:30938   */\n      dup3\n        /* \"#utility.yul\":30930:30942   */\n      and\n        /* \"#utility.yul\":30961:30979   */\n      dup1\n        /* \"#utility.yul\":30951:31032   */\n      tag_665\n      jumpi\n        /* \"#utility.yul\":31017:31021   */\n      0x7f\n        /* \"#utility.yul\":31009:31015   */\n      dup3\n        /* \"#utility.yul\":31005:31022   */\n      and\n        /* \"#utility.yul\":30995:31022   */\n      swap2\n      pop\n        /* \"#utility.yul\":30951:31032   */\n    tag_665:\n        /* \"#utility.yul\":31079:31081   */\n      0x20\n        /* \"#utility.yul\":31071:31077   */\n      dup3\n        /* \"#utility.yul\":31068:31082   */\n      lt\n        /* \"#utility.yul\":31048:31066   */\n      dup2\n        /* \"#utility.yul\":31045:31083   */\n      eq\n        /* \"#utility.yul\":31042:31126   */\n      iszero\n      tag_666\n      jumpi\n        /* \"#utility.yul\":31098:31116   */\n      tag_667\n      tag_668\n      jump\t// in\n    tag_667:\n        /* \"#utility.yul\":31042:31126   */\n    tag_666:\n        /* \"#utility.yul\":30863:31132   */\n      pop\n        /* \"#utility.yul\":30812:31132   */\n      swap2\n      swap1\n      pop\n      jump\t// out\n        /* \"#utility.yul\":31138:31419   */\n    tag_617:\n        /* \"#utility.yul\":31221:31248   */\n      tag_670\n        /* \"#utility.yul\":31243:31247   */\n      dup3\n        /* \"#utility.yul\":31221:31248   */\n      tag_448\n      jump\t// in\n    tag_670:\n        /* \"#utility.yul\":31213:31219   */\n      dup2\n        /* \"#utility.yul\":31209:31249   */\n      add\n        /* \"#utility.yul\":31351:31357   */\n      dup2\n        /* \"#utility.yul\":31339:31349   */\n      dup2\n        /* \"#utility.yul\":31336:31358   */\n      lt\n        /* \"#utility.yul\":31315:31333   */\n      0xffffffffffffffff\n        /* \"#utility.yul\":31303:31313   */\n      dup3\n        /* \"#utility.yul\":31300:31334   */\n      gt\n        /* \"#utility.yul\":31297:31359   */\n      or\n        /* \"#utility.yul\":31294:31382   */\n      iszero\n      tag_671\n      jumpi\n        /* \"#utility.yul\":31362:31380   */\n      tag_672\n      tag_263\n      jump\t// in\n    tag_672:\n        /* \"#utility.yul\":31294:31382   */\n    tag_671:\n        /* \"#utility.yul\":31402:31412   */\n      dup1\n        /* \"#utility.yul\":31398:31400   */\n      0x40\n        /* \"#utility.yul\":31391:31413   */\n      mstore\n        /* \"#utility.yul\":31181:31419   */\n      pop\n        /* \"#utility.yul\":31138:31419   */\n      pop\n      pop\n      jump\t// out\n        /* \"#utility.yul\":31425:31658   */\n    tag_258:\n        /* \"#utility.yul\":31464:31467   */\n      0x00\n        /* \"#utility.yul\":31487:31511   */\n      tag_674\n        /* \"#utility.yul\":31505:31510   */\n      dup3\n        /* \"#utility.yul\":31487:31511   */\n      tag_549\n      jump\t// in\n    tag_674:\n        /* \"#utility.yul\":31478:31511   */\n      swap2\n      pop\n        /* \"#utility.yul\":31533:31599   */\n      0xffffffffffffffffffffffffffffffffffffffffffffffffffffffffffffffff\n        /* \"#utility.yul\":31526:31531   */\n      dup3\n        /* \"#utility.yul\":31523:31600   */\n      eq\n        /* \"#utility.yul\":31520:31623   */\n      iszero\n      tag_675\n      jumpi\n        /* \"#utility.yul\":31603:31621   */\n      tag_676\n      tag_638\n      jump\t// in\n    tag_676:\n        /* \"#utility.yul\":31520:31623   */\n    tag_675:\n        /* \"#utility.yul\":31650:31651   */\n      0x01\n        /* \"#utility.yul\":31643:31648   */\n      dup3\n        /* \"#utility.yul\":31639:31652   */\n      add\n        /* \"#utility.yul\":31632:31652   */\n      swap1\n      pop\n        /* \"#utility.yul\":31425:31658   */\n      swap2\n      swap1\n      pop\n      jump\t// out\n        /* \"#utility.yul\":31664:31840   */\n    tag_269:\n        /* \"#utility.yul\":31696:31697   */\n      0x00\n        /* \"#utility.yul\":31713:31733   */\n      tag_678\n        /* \"#utility.yul\":31731:31732   */\n      dup3\n        /* \"#utility.yul\":31713:31733   */\n      tag_549\n      jump\t// in\n    tag_678:\n        /* \"#utility.yul\":31708:31733   */\n      swap2\n      pop\n        /* \"#utility.yul\":31747:31767   */\n      tag_679\n        /* \"#utility.yul\":31765:31766   */\n      dup4\n        /* \"#utility.yul\":31747:31767   */\n      tag_549\n      jump\t// in\n    tag_679:\n        /* \"#utility.yul\":31742:31767   */\n      swap3\n      pop\n        /* \"#utility.yul\":31786:31787   */\n      dup3\n        /* \"#utility.yul\":31776:31811   */\n      tag_680\n      jumpi\n        /* \"#utility.yul\":31791:31809   */\n      tag_681\n      tag_644\n      jump\t// in\n    tag_681:\n        /* \"#utility.yul\":31776:31811   */\n    tag_680:\n        /* \"#utility.yul\":31832:31833   */\n      dup3\n        /* \"#utility.yul\":31829:31830   */\n      dup3\n        /* \"#utility.yul\":31825:31834   */\n      mod\n        /* \"#utility.yul\":31820:31834   */\n      swap1\n      pop\n        /* \"#utility.yul\":31664:31840   */\n      swap3\n      swap2\n      pop\n      pop\n      jump\t// out\n        /* \"#utility.yul\":31846:32026   */\n    tag_638:\n        /* \"#utility.yul\":31894:31971   */\n      0x4e487b7100000000000000000000000000000000000000000000000000000000\n        /* \"#utility.yul\":31891:31892   */\n      0x00\n        /* \"#utility.yul\":31884:31972   */\n      mstore\n        /* \"#utility.yul\":31991:31995   */\n      0x11\n        /* \"#utility.yul\":31988:31989   */\n      0x04\n        /* \"#utility.yul\":31981:31996   */\n      mstore\n        /* \"#utility.yul\":32015:32019   */\n      0x24\n        /* \"#utility.yul\":32012:32013   */\n      0x00\n        /* \"#utility.yul\":32005:32020   */\n      revert\n        /* \"#utility.yul\":32032:32212   */\n    tag_644:\n        /* \"#utility.yul\":32080:32157   */\n      0x4e487b7100000000000000000000000000000000000000000000000000000000\n        /* \"#utility.yul\":32077:32078   */\n      0x00\n        /* \"#utility.yul\":32070:32158   */\n      mstore\n        /* \"#utility.yul\":32177:32181   */\n      0x12\n        /* \"#utility.yul\":32174:32175   */\n      0x04\n        /* \"#utility.yul\":32167:32182   */\n      mstore\n        /* \"#utility.yul\":32201:32205   */\n      0x24\n        /* \"#utility.yul\":32198:32199   */\n      0x00\n        /* \"#utility.yul\":32191:32206   */\n      revert\n        /* \"#utility.yul\":32218:32398   */\n    tag_668:\n        /* \"#utility.yul\":32266:32343   */\n      0x4e487b7100000000000000000000000000000000000000000000000000000000\n        /* \"#utility.yul\":32263:32264   */\n      0x00\n        /* \"#utility.yul\":32256:32344   */\n      mstore\n        /* \"#utility.yul\":32363:32367   */\n      0x22\n        /* \"#utility.yul\":32360:32361   */\n      0x04\n        /* \"#utility.yul\":32353:32368   */\n      mstore\n        /* \"#utility.yul\":32387:32391   */\n      0x24\n        /* \"#utility.yul\":32384:32385   */\n      0x00\n        /* \"#utility.yul\":32377:32392   */\n      revert\n        /* \"#utility.yul\":32404:32584   */\n    tag_273:\n        /* \"#utility.yul\":32452:32529   */\n      0x4e487b7100000000000000000000000000000000000000000000000000000000\n        /* \"#utility.yul\":32449:32450   */\n      0x00\n        /* \"#utility.yul\":32442:32530   */\n      mstore\n        /* \"#utility.yul\":32549:32553   */\n      0x32\n        /* \"#utility.yul\":32546:32547   */\n      0x04\n        /* \"#utility.yul\":32539:32554   */\n      mstore\n        /* \"#utility.yul\":32573:32577   */\n      0x24\n        /* \"#utility.yul\":32570:32571   */\n      0x00\n        /* \"#utility.yul\":32563:32578   */\n      revert\n        /* \"#utility.yul\":32590:32770   */\n    tag_263:\n        /* \"#utility.yul\":32638:32715   */\n      0x4e487b7100000000000000000000000000000000000000000000000000000000\n        /* \"#utility.yul\":32635:32636   */\n      0x00\n        /* \"#utility.yul\":32628:32716   */\n      mstore\n        /* \"#utility.yul\":32735:32739   */\n      0x41\n        /* \"#utility.yul\":32732:32733   */\n      0x04\n        /* \"#utility.yul\":32725:32740   */\n      mstore\n        /* \"#utility.yul\":32759:32763   */\n      0x24\n        /* \"#utility.yul\":32756:32757   */\n      0x00\n        /* \"#utility.yul\":32749:32764   */\n      revert\n        /* \"#utility.yul\":32776:32893   */\n    tag_349:\n        /* \"#utility.yul\":32885:32886   */\n      0x00\n        /* \"#utility.yul\":32882:32883   */\n      dup1\n        /* \"#utility.yul\":32875:32887   */\n      revert\n        /* \"#utility.yul\":32899:33016   */\n    tag_319:\n        /* \"#utility.yul\":33008:33009   */\n      0x00\n        /* \"#utility.yul\":33005:33006   */\n      dup1\n        /* \"#utility.yul\":32998:33010   */\n      revert\n        /* \"#utility.yul\":33022:33139   */\n    tag_384:\n        /* \"#utility.yul\":33131:33132   */\n      0x00\n        /* \"#utility.yul\":33128:33129   */\n      dup1\n        /* \"#utility.yul\":33121:33133   */\n      revert\n        /* \"#utility.yul\":33145:33262   */\n    tag_363:\n        /* \"#utility.yul\":33254:33255   */\n      0x00\n        /* \"#utility.yul\":33251:33252   */\n      dup1\n        /* \"#utility.yul\":33244:33256   */\n      revert\n        /* \"#utility.yul\":33268:33370   */\n    tag_448:\n        /* \"#utility.yul\":33309:33315   */\n      0x00\n        /* \"#utility.yul\":33360:33362   */\n      0x1f\n        /* \"#utility.yul\":33356:33363   */\n      not\n        /* \"#utility.yul\":33351:33353   */\n      0x1f\n        /* \"#utility.yul\":33344:33349   */\n      dup4\n        /* \"#utility.yul\":33340:33354   */\n      add\n        /* \"#utility.yul\":33336:33364   */\n      and\n        /* \"#utility.yul\":33326:33364   */\n      swap1\n      pop\n        /* \"#utility.yul\":33268:33370   */\n      swap2\n      swap1\n      pop\n      jump\t// out\n        /* \"#utility.yul\":33376:33613   */\n    tag_474:\n        /* \"#utility.yul\":33516:33550   */\n      0x4552433732313a207472616e7366657220746f206e6f6e204552433732315265\n        /* \"#utility.yul\":33512:33513   */\n      0x00\n        /* \"#utility.yul\":33504:33510   */\n      dup3\n        /* \"#utility.yul\":33500:33514   */\n      add\n        /* \"#utility.yul\":33493:33551   */\n      mstore\n        /* \"#utility.yul\":33585:33605   */\n      0x63656976657220696d706c656d656e7465720000000000000000000000000000\n        /* \"#utility.yul\":33580:33582   */\n      0x20\n        /* \"#utility.yul\":33572:33578   */\n      dup3\n        /* \"#utility.yul\":33568:33583   */\n      add\n        /* \"#utility.yul\":33561:33606   */\n      mstore\n        /* \"#utility.yul\":33376:33613   */\n      pop\n      jump\t// out\n        /* \"#utility.yul\":33619:33843   */\n    tag_479:\n        /* \"#utility.yul\":33759:33793   */\n      0x4552433732313a207472616e736665722066726f6d20696e636f727265637420\n        /* \"#utility.yul\":33755:33756   */\n      0x00\n        /* \"#utility.yul\":33747:33753   */\n      dup3\n        /* \"#utility.yul\":33743:33757   */\n      add\n        /* \"#utility.yul\":33736:33794   */\n      mstore\n        /* \"#utility.yul\":33828:33835   */\n      0x6f776e6572000000000000000000000000000000000000000000000000000000\n        /* \"#utility.yul\":33823:33825   */\n      0x20\n        /* \"#utility.yul\":33815:33821   */\n      dup3\n        /* \"#utility.yul\":33811:33826   */\n      add\n        /* \"#utility.yul\":33804:33836   */\n      mstore\n        /* \"#utility.yul\":33619:33843   */\n      pop\n      jump\t// out\n        /* \"#utility.yul\":33849:34072   */\n    tag_484:\n        /* \"#utility.yul\":33989:34023   */\n      0x4552433732313a207472616e7366657220746f20746865207a65726f20616464\n        /* \"#utility.yul\":33985:33986   */\n      0x00\n        /* \"#utility.yul\":33977:33983   */\n      dup3\n        /* \"#utility.yul\":33973:33987   */\n      add\n        /* \"#utility.yul\":33966:34024   */\n      mstore\n        /* \"#utility.yul\":34058:34064   */\n      0x7265737300000000000000000000000000000000000000000000000000000000\n        /* \"#utility.yul\":34053:34055   */\n      0x20\n        /* \"#utility.yul\":34045:34051   */\n      dup3\n        /* \"#utility.yul\":34041:34056   */\n      add\n        /* \"#utility.yul\":34034:34065   */\n      mstore\n        /* \"#utility.yul\":33849:34072   */\n      pop\n      jump\t// out\n        /* \"#utility.yul\":34078:34253   */\n    tag_489:\n        /* \"#utility.yul\":34218:34245   */\n      0x4552433732313a20617070726f766520746f2063616c6c657200000000000000\n        /* \"#utility.yul\":34214:34215   */\n      0x00\n        /* \"#utility.yul\":34206:34212   */\n      dup3\n        /* \"#utility.yul\":34202:34216   */\n      add\n        /* \"#utility.yul\":34195:34246   */\n      mstore\n        /* \"#utility.yul\":34078:34253   */\n      pop\n      jump\t// out\n        /* \"#utility.yul\":34259:34490   */\n    tag_494:\n        /* \"#utility.yul\":34399:34433   */\n      0x4552433732313a206f70657261746f7220717565727920666f72206e6f6e6578\n        /* \"#utility.yul\":34395:34396   */\n      0x00\n        /* \"#utility.yul\":34387:34393   */\n      dup3\n        /* \"#utility.yul\":34383:34397   */\n      add\n        /* \"#utility.yul\":34376:34434   */\n      mstore\n        /* \"#utility.yul\":34468:34482   */\n      0x697374656e7420746f6b656e0000000000000000000000000000000000000000\n        /* \"#utility.yul\":34463:34465   */\n      0x20\n        /* \"#utility.yul\":34455:34461   */\n      dup3\n        /* \"#utility.yul\":34451:34466   */\n      add\n        /* \"#utility.yul\":34444:34483   */\n      mstore\n        /* \"#utility.yul\":34259:34490   */\n      pop\n      jump\t// out\n        /* \"#utility.yul\":34496:34724   */\n    tag_499:\n        /* \"#utility.yul\":34636:34670   */\n      0x4552433732313a2061646472657373207a65726f206973206e6f742061207661\n        /* \"#utility.yul\":34632:34633   */\n      0x00\n        /* \"#utility.yul\":34624:34630   */\n      dup3\n        /* \"#utility.yul\":34620:34634   */\n      add\n        /* \"#utility.yul\":34613:34671   */\n      mstore\n        /* \"#utility.yul\":34705:34716   */\n      0x6c6964206f776e65720000000000000000000000000000000000000000000000\n        /* \"#utility.yul\":34700:34702   */\n      0x20\n        /* \"#utility.yul\":34692:34698   */\n      dup3\n        /* \"#utility.yul\":34688:34703   */\n      add\n        /* \"#utility.yul\":34681:34717   */\n      mstore\n        /* \"#utility.yul\":34496:34724   */\n      pop\n      jump\t// out\n        /* \"#utility.yul\":34730:34973   */\n    tag_504:\n        /* \"#utility.yul\":34870:34904   */\n      0x4552433732313a20617070726f76652063616c6c6572206973206e6f74206f77\n        /* \"#utility.yul\":34866:34867   */\n      0x00\n        /* \"#utility.yul\":34858:34864   */\n      dup3\n        /* \"#utility.yul\":34854:34868   */\n      add\n        /* \"#utility.yul\":34847:34905   */\n      mstore\n        /* \"#utility.yul\":34939:34965   */\n      0x6e6572206e6f7220617070726f76656420666f7220616c6c0000000000000000\n        /* \"#utility.yul\":34934:34936   */\n      0x20\n        /* \"#utility.yul\":34926:34932   */\n      dup3\n        /* \"#utility.yul\":34922:34937   */\n      add\n        /* \"#utility.yul\":34915:34966   */\n      mstore\n        /* \"#utility.yul\":34730:34973   */\n      pop\n      jump\t// out\n        /* \"#utility.yul\":34979:35207   */\n    tag_509:\n        /* \"#utility.yul\":35119:35153   */\n      0x4552433732313a206f776e657220717565727920666f72206e6f6e6578697374\n        /* \"#utility.yul\":35115:35116   */\n      0x00\n        /* \"#utility.yul\":35107:35113   */\n      dup3\n        /* \"#utility.yul\":35103:35117   */\n      add\n        /* \"#utility.yul\":35096:35154   */\n      mstore\n        /* \"#utility.yul\":35188:35199   */\n      0x656e7420746f6b656e0000000000000000000000000000000000000000000000\n        /* \"#utility.yul\":35183:35185   */\n      0x20\n        /* \"#utility.yul\":35175:35181   */\n      dup3\n        /* \"#utility.yul\":35171:35186   */\n      add\n        /* \"#utility.yul\":35164:35200   */\n      mstore\n        /* \"#utility.yul\":34979:35207   */\n      pop\n      jump\t// out\n        /* \"#utility.yul\":35213:35444   */\n    tag_514:\n        /* \"#utility.yul\":35353:35387   */\n      0x4552433732313a20617070726f76656420717565727920666f72206e6f6e6578\n        /* \"#utility.yul\":35349:35350   */\n      0x00\n        /* \"#utility.yul\":35341:35347   */\n      dup3\n        /* \"#utility.yul\":35337:35351   */\n      add\n        /* \"#utility.yul\":35330:35388   */\n      mstore\n        /* \"#utility.yul\":35422:35436   */\n      0x697374656e7420746f6b656e0000000000000000000000000000000000000000\n        /* \"#utility.yul\":35417:35419   */\n      0x20\n        /* \"#utility.yul\":35409:35415   */\n      dup3\n        /* \"#utility.yul\":35405:35420   */\n      add\n        /* \"#utility.yul\":35398:35437   */\n      mstore\n        /* \"#utility.yul\":35213:35444   */\n      pop\n      jump\t// out\n        /* \"#utility.yul\":35450:35684   */\n    tag_519:\n        /* \"#utility.yul\":35590:35624   */\n      0x4552433732314d657461646174613a2055524920717565727920666f72206e6f\n        /* \"#utility.yul\":35586:35587   */\n      0x00\n        /* \"#utility.yul\":35578:35584   */\n      dup3\n        /* \"#utility.yul\":35574:35588   */\n      add\n        /* \"#utility.yul\":35567:35625   */\n      mstore\n        /* \"#utility.yul\":35659:35676   */\n      0x6e6578697374656e7420746f6b656e0000000000000000000000000000000000\n        /* \"#utility.yul\":35654:35656   */\n      0x20\n        /* \"#utility.yul\":35646:35652   */\n      dup3\n        /* \"#utility.yul\":35642:35657   */\n      add\n        /* \"#utility.yul\":35635:35677   */\n      mstore\n        /* \"#utility.yul\":35450:35684   */\n      pop\n      jump\t// out\n        /* \"#utility.yul\":35690:35867   */\n    tag_524:\n        /* \"#utility.yul\":35830:35859   */\n      0x7468697320686f757365496420616c7265616479206578697374730000000000\n        /* \"#utility.yul\":35826:35827   */\n      0x00\n        /* \"#utility.yul\":35818:35824   */\n      dup3\n        /* \"#utility.yul\":35814:35828   */\n      add\n        /* \"#utility.yul\":35807:35860   */\n      mstore\n        /* \"#utility.yul\":35690:35867   */\n      pop\n      jump\t// out\n        /* \"#utility.yul\":35873:36093   */\n    tag_529:\n        /* \"#utility.yul\":36013:36047   */\n      0x4552433732313a20617070726f76616c20746f2063757272656e74206f776e65\n        /* \"#utility.yul\":36009:36010   */\n      0x00\n        /* \"#utility.yul\":36001:36007   */\n      dup3\n        /* \"#utility.yul\":35997:36011   */\n      add\n        /* \"#utility.yul\":35990:36048   */\n      mstore\n        /* \"#utility.yul\":36082:36085   */\n      0x7200000000000000000000000000000000000000000000000000000000000000\n        /* \"#utility.yul\":36077:36079   */\n      0x20\n        /* \"#utility.yul\":36069:36075   */\n      dup3\n        /* \"#utility.yul\":36065:36080   */\n      add\n        /* \"#utility.yul\":36058:36086   */\n      mstore\n        /* \"#utility.yul\":35873:36093   */\n      pop\n      jump\t// out\n        /* \"#utility.yul\":36099:36335   */\n    tag_534:\n        /* \"#utility.yul\":36239:36273   */\n      0x4552433732313a207472616e736665722063616c6c6572206973206e6f74206f\n        /* \"#utility.yul\":36235:36236   */\n      0x00\n        /* \"#utility.yul\":36227:36233   */\n      dup3\n        /* \"#utility.yul\":36223:36237   */\n      add\n        /* \"#utility.yul\":36216:36274   */\n      mstore\n        /* \"#utility.yul\":36308:36327   */\n      0x776e6572206e6f7220617070726f766564000000000000000000000000000000\n        /* \"#utility.yul\":36303:36305   */\n      0x20\n        /* \"#utility.yul\":36295:36301   */\n      dup3\n        /* \"#utility.yul\":36291:36306   */\n      add\n        /* \"#utility.yul\":36284:36328   */\n      mstore\n        /* \"#utility.yul\":36099:36335   */\n      pop\n      jump\t// out\n        /* \"#utility.yul\":36341:36463   */\n    tag_333:\n        /* \"#utility.yul\":36414:36438   */\n      tag_706\n        /* \"#utility.yul\":36432:36437   */\n      dup2\n        /* \"#utility.yul\":36414:36438   */\n      tag_428\n      jump\t// in\n    tag_706:\n        /* \"#utility.yul\":36407:36412   */\n      dup2\n        /* \"#utility.yul\":36404:36439   */\n      eq\n        /* \"#utility.yul\":36394:36457   */\n      tag_707\n      jumpi\n        /* \"#utility.yul\":36453:36454   */\n      0x00\n        /* \"#utility.yul\":36450:36451   */\n      dup1\n        /* \"#utility.yul\":36443:36455   */\n      revert\n        /* \"#utility.yul\":36394:36457   */\n    tag_707:\n        /* \"#utility.yul\":36341:36463   */\n      pop\n      jump\t// out\n        /* \"#utility.yul\":36469:36585   */\n    tag_337:\n        /* \"#utility.yul\":36539:36560   */\n      tag_709\n        /* \"#utility.yul\":36554:36559   */\n      dup2\n        /* \"#utility.yul\":36539:36560   */\n      tag_435\n      jump\t// in\n    tag_709:\n        /* \"#utility.yul\":36532:36537   */\n      dup2\n        /* \"#utility.yul\":36529:36561   */\n      eq\n        /* \"#utility.yul\":36519:36579   */\n      tag_710\n      jumpi\n        /* \"#utility.yul\":36575:36576   */\n      0x00\n        /* \"#utility.yul\":36572:36573   */\n      dup1\n        /* \"#utility.yul\":36565:36577   */\n      revert\n        /* \"#utility.yul\":36519:36579   */\n    tag_710:\n        /* \"#utility.yul\":36469:36585   */\n      pop\n      jump\t// out\n        /* \"#utility.yul\":36591:36711   */\n    tag_341:\n        /* \"#utility.yul\":36663:36686   */\n      tag_712\n        /* \"#utility.yul\":36680:36685   */\n      dup2\n        /* \"#utility.yul\":36663:36686   */\n      tag_654\n      jump\t// in\n    tag_712:\n        /* \"#utility.yul\":36656:36661   */\n      dup2\n        /* \"#utility.yul\":36653:36687   */\n      eq\n        /* \"#utility.yul\":36643:36705   */\n      tag_713\n      jumpi\n        /* \"#utility.yul\":36701:36702   */\n      0x00\n        /* \"#utility.yul\":36698:36699   */\n      dup1\n        /* \"#utility.yul\":36691:36703   */\n      revert\n        /* \"#utility.yul\":36643:36705   */\n    tag_713:\n        /* \"#utility.yul\":36591:36711   */\n      pop\n      jump\t// out\n        /* \"#utility.yul\":36717:36839   */\n    tag_359:\n        /* \"#utility.yul\":36790:36814   */\n      tag_715\n        /* \"#utility.yul\":36808:36813   */\n      dup2\n        /* \"#utility.yul\":36790:36814   */\n      tag_549\n      jump\t// in\n    tag_715:\n        /* \"#utility.yul\":36783:36788   */\n      dup2\n        /* \"#utility.yul\":36780:36815   */\n      eq\n        /* \"#utility.yul\":36770:36833   */\n      tag_716\n      jumpi\n        /* \"#utility.yul\":36829:36830   */\n      0x00\n        /* \"#utility.yul\":36826:36827   */\n      dup1\n        /* \"#utility.yul\":36819:36831   */\n      revert\n        /* \"#utility.yul\":36770:36833   */\n    tag_716:\n        /* \"#utility.yul\":36717:36839   */\n      pop\n      jump\t// out\n\n    auxdata: 0xa264697066735822122049fd1dda6801ee95b4e3da1003055d22756fb6d01e5c01cc24190022478b261a64736f6c63430008070033\n}\n",
				"bytecode": {
					"linkReferences": {},
					"object": "60806040523480156200001157600080fd5b50604051620033a8380380620033a883398181016040528101906200003791906200019f565b81600090805190602001906200004f92919062000071565b5080600190805190602001906200006892919062000071565b505050620003a8565b8280546200007f90620002b9565b90600052602060002090601f016020900481019282620000a35760008555620000ef565b82601f10620000be57805160ff1916838001178555620000ef565b82800160010185558215620000ef579182015b82811115620000ee578251825591602001919060010190620000d1565b5b509050620000fe919062000102565b5090565b5b808211156200011d57600081600090555060010162000103565b5090565b60006200013862000132846200024d565b62000224565b90508281526020810184848401111562000157576200015662000388565b5b6200016484828562000283565b509392505050565b600082601f83011262000184576200018362000383565b5b81516200019684826020860162000121565b91505092915050565b60008060408385031215620001b957620001b862000392565b5b600083015167ffffffffffffffff811115620001da57620001d96200038d565b5b620001e8858286016200016c565b925050602083015167ffffffffffffffff8111156200020c576200020b6200038d565b5b6200021a858286016200016c565b9150509250929050565b60006200023062000243565b90506200023e8282620002ef565b919050565b6000604051905090565b600067ffffffffffffffff8211156200026b576200026a62000354565b5b620002768262000397565b9050602081019050919050565b60005b83811015620002a357808201518184015260208101905062000286565b83811115620002b3576000848401525b50505050565b60006002820490506001821680620002d257607f821691505b60208210811415620002e957620002e862000325565b5b50919050565b620002fa8262000397565b810181811067ffffffffffffffff821117156200031c576200031b62000354565b5b80604052505050565b7f4e487b7100000000000000000000000000000000000000000000000000000000600052602260045260246000fd5b7f4e487b7100000000000000000000000000000000000000000000000000000000600052604160045260246000fd5b600080fd5b600080fd5b600080fd5b600080fd5b6000601f19601f8301169050919050565b612ff080620003b86000396000f3fe608060405234801561001057600080fd5b50600436106101165760003560e01c806395d89b41116100a2578063b88d4fde11610071578063b88d4fde1461030b578063c87b56dd14610327578063d231f14214610357578063e6cde56a14610373578063e985e9c51461038f57610116565b806395d89b4114610269578063a22cb46514610287578063ad50f56d146102a3578063aeda852f146102d357610116565b8063095ea7b3116100e9578063095ea7b3146101b557806323b872dd146101d157806342842e0e146101ed5780636352211e1461020957806370a082311461023957610116565b806301ffc9a71461011b5780630548fa4f1461014b57806306fdde0314610167578063081812fc14610185575b600080fd5b61013560048036038101906101309190611e94565b6103bf565b6040516101429190612466565b60405180910390f35b61016560048036038101906101609190611f5b565b6104a1565b005b61016f6106c5565b60405161017c9190612481565b60405180910390f35b61019f600480360381019061019a9190611eee565b610757565b6040516101ac91906123ff565b60405180910390f35b6101cf60048036038101906101ca9190611e54565b6107dc565b005b6101eb60048036038101906101e69190611d3e565b6108f4565b005b61020760048036038101906102029190611d3e565b610954565b005b610223600480360381019061021e9190611eee565b610974565b60405161023091906123ff565b60405180910390f35b610253600480360381019061024e9190611cd1565b610a26565b6040516102609190612665565b60405180910390f35b610271610ade565b60405161027e9190612481565b60405180910390f35b6102a1600480360381019061029c9190611e14565b610b70565b005b6102bd60048036038101906102b89190611eee565b610b86565b6040516102ca9190612643565b60405180910390f35b6102ed60048036038101906102e89190611eee565b610d3f565b604051610302999897969594939291906126da565b60405180910390f35b61032560048036038101906103209190611d91565b610e62565b005b610341600480360381019061033c9190611eee565b610ec4565b60405161034e9190612481565b60405180910390f35b610371600480360381019061036c9190611eee565b610f6b565b005b61038d60048036038101906103889190611f1b565b610f9d565b005b6103a960048036038101906103a49190611cfe565b610ff6565b6040516103b69190612466565b60405180910390f35b60007f80ac58cd000000000000000000000000000000000000000000000000000000007bffffffffffffffffffffffffffffffffffffffffffffffffffffffff1916827bffffffffffffffffffffffffffffffffffffffffffffffffffffffff1916148061048a57507f5b5e139f000000000000000000000000000000000000000000000000000000007bffffffffffffffffffffffffffffffffffffffffffffffffffffffff1916827bffffffffffffffffffffffffffffffffffffffffffffffffffffffff1916145b8061049a57506104998261108a565b5b9050919050565b60066000888152602001908152602001600020600001548714156104fa576040517f08c379a00000000000000000000000000000000000000000000000000000000081526004016104f1906125e3565b60405180910390fd5b6040518061012001604052808881526020018781526020018681526020018581526020018481526020018373ffffffffffffffffffffffffffffffffffffffff1681526020018373ffffffffffffffffffffffffffffffffffffffff1681526020018281526020016000151581525060066000898152602001908152602001600020600082015181600001556020820151816001015560408201518160020155606082015181600301556080820151816004015560a08201518160050160006101000a81548173ffffffffffffffffffffffffffffffffffffffff021916908373ffffffffffffffffffffffffffffffffffffffff16021790555060c08201518160060160006101000a81548173ffffffffffffffffffffffffffffffffffffffff021916908373ffffffffffffffffffffffffffffffffffffffff16021790555060e0820151816007019080519060200190610658929190611a6b565b506101008201518160080160006101000a81548160ff0219169083151502179055509050507f6f71ac8c8036718cca9ada265dd47c000f08b90cc3b041c7c50fb5a940c75f9d87878787856040516106b4959493929190612680565b60405180910390a150505050505050565b6060600080546106d4906129ba565b80601f0160208091040260200160405190810160405280929190818152602001828054610700906129ba565b801561074d5780601f106107225761010080835404028352916020019161074d565b820191906000526020600020905b81548152906001019060200180831161073057829003601f168201915b5050505050905090565b6000610762826110f4565b6107a1576040517f08c379a0000000000000000000000000000000000000000000000000000000008152600401610798906125a3565b60405180910390fd5b6004600083815260200190815260200160002060009054906101000a900473ffffffffffffffffffffffffffffffffffffffff169050919050565b60006107e782610974565b90508073ffffffffffffffffffffffffffffffffffffffff168373ffffffffffffffffffffffffffffffffffffffff161415610858576040517f08c379a000000000000000000000000000000000000000000000000000000000815260040161084f90612603565b60405180910390fd5b8073ffffffffffffffffffffffffffffffffffffffff16610877611160565b73ffffffffffffffffffffffffffffffffffffffff1614806108a657506108a5816108a0611160565b610ff6565b5b6108e5576040517f08c379a00000000000000000000000000000000000000000000000000000000081526004016108dc90612563565b60405180910390fd5b6108ef8383611168565b505050565b6109056108ff611160565b82611221565b610944576040517f08c379a000000000000000000000000000000000000000000000000000000000815260040161093b90612623565b60405180910390fd5b61094f8383836112ff565b505050565b61096f83838360405180602001604052806000815250610e62565b505050565b6000806002600084815260200190815260200160002060009054906101000a900473ffffffffffffffffffffffffffffffffffffffff169050600073ffffffffffffffffffffffffffffffffffffffff168173ffffffffffffffffffffffffffffffffffffffff161415610a1d576040517f08c379a0000000000000000000000000000000000000000000000000000000008152600401610a1490612583565b60405180910390fd5b80915050919050565b60008073ffffffffffffffffffffffffffffffffffffffff168273ffffffffffffffffffffffffffffffffffffffff161415610a97576040517f08c379a0000000000000000000000000000000000000000000000000000000008152600401610a8e90612543565b60405180910390fd5b600360008373ffffffffffffffffffffffffffffffffffffffff1673ffffffffffffffffffffffffffffffffffffffff168152602001908152602001600020549050919050565b606060018054610aed906129ba565b80601f0160208091040260200160405190810160405280929190818152602001828054610b19906129ba565b8015610b665780601f10610b3b57610100808354040283529160200191610b66565b820191906000526020600020905b815481529060010190602001808311610b4957829003601f168201915b5050505050905090565b610b82610b7b611160565b8383611566565b5050565b610b8e611af1565b600660008381526020019081526020016000206040518061012001604052908160008201548152602001600182015481526020016002820154815260200160038201548152602001600482015481526020016005820160009054906101000a900473ffffffffffffffffffffffffffffffffffffffff1673ffffffffffffffffffffffffffffffffffffffff1673ffffffffffffffffffffffffffffffffffffffff1681526020016006820160009054906101000a900473ffffffffffffffffffffffffffffffffffffffff1673ffffffffffffffffffffffffffffffffffffffff1673ffffffffffffffffffffffffffffffffffffffff168152602001600782018054610c9b906129ba565b80601f0160208091040260200160405190810160405280929190818152602001828054610cc7906129ba565b8015610d145780601f10610ce957610100808354040283529160200191610d14565b820191906000526020600020905b815481529060010190602001808311610cf757829003601f168201915b505050505081526020016008820160009054906101000a900460ff1615151515815250509050919050565b60066020528060005260406000206000915090508060000154908060010154908060020154908060030154908060040154908060050160009054906101000a900473ffffffffffffffffffffffffffffffffffffffff16908060060160009054906101000a900473ffffffffffffffffffffffffffffffffffffffff1690806007018054610dcc906129ba565b80601f0160208091040260200160405190810160405280929190818152602001828054610df8906129ba565b8015610e455780601f10610e1a57610100808354040283529160200191610e45565b820191906000526020600020905b815481529060010190602001808311610e2857829003601f168201915b5050505050908060080160009054906101000a900460ff16905089565b610e73610e6d611160565b83611221565b610eb2576040517f08c379a0000000000000000000000000000000000000000000000000000000008152600401610ea990612623565b60405180910390fd5b610ebe848484846116d3565b50505050565b6060610ecf826110f4565b610f0e576040517f08c379a0000000000000000000000000000000000000000000000000000000008152600401610f05906125c3565b60405180910390fd5b6000610f1861172f565b90506000815111610f385760405180602001604052806000815250610f63565b80610f4284611746565b604051602001610f539291906123db565b6040516020818303038152906040525b915050919050565b60016006600083815260200190815260200160002060080160006101000a81548160ff02191690831515021790555050565b806006600084815260200190815260200160002060060160006101000a81548173ffffffffffffffffffffffffffffffffffffffff021916908373ffffffffffffffffffffffffffffffffffffffff1602179055505050565b6000600560008473ffffffffffffffffffffffffffffffffffffffff1673ffffffffffffffffffffffffffffffffffffffff16815260200190815260200160002060008373ffffffffffffffffffffffffffffffffffffffff1673ffffffffffffffffffffffffffffffffffffffff16815260200190815260200160002060009054906101000a900460ff16905092915050565b60007f01ffc9a7000000000000000000000000000000000000000000000000000000007bffffffffffffffffffffffffffffffffffffffffffffffffffffffff1916827bffffffffffffffffffffffffffffffffffffffffffffffffffffffff1916149050919050565b60008073ffffffffffffffffffffffffffffffffffffffff166002600084815260200190815260200160002060009054906101000a900473ffffffffffffffffffffffffffffffffffffffff1673ffffffffffffffffffffffffffffffffffffffff1614159050919050565b600033905090565b816004600083815260200190815260200160002060006101000a81548173ffffffffffffffffffffffffffffffffffffffff021916908373ffffffffffffffffffffffffffffffffffffffff160217905550808273ffffffffffffffffffffffffffffffffffffffff166111db83610974565b73ffffffffffffffffffffffffffffffffffffffff167f8c5be1e5ebec7d5bd14f71427d1e84f3dd0314c0f7b2291e5b200ac8c7c3b92560405160405180910390a45050565b600061122c826110f4565b61126b576040517f08c379a000000000000000000000000000000000000000000000000000000000815260040161126290612523565b60405180910390fd5b600061127683610974565b90508073ffffffffffffffffffffffffffffffffffffffff168473ffffffffffffffffffffffffffffffffffffffff1614806112b857506112b78185610ff6565b5b806112f657508373ffffffffffffffffffffffffffffffffffffffff166112de84610757565b73ffffffffffffffffffffffffffffffffffffffff16145b91505092915050565b8273ffffffffffffffffffffffffffffffffffffffff1661131f82610974565b73ffffffffffffffffffffffffffffffffffffffff1614611375576040517f08c379a000000000000000000000000000000000000000000000000000000000815260040161136c906124c3565b60405180910390fd5b600073ffffffffffffffffffffffffffffffffffffffff168273ffffffffffffffffffffffffffffffffffffffff1614156113e5576040517f08c379a00000000000000000000000000000000000000000000000000000000081526004016113dc906124e3565b60405180910390fd5b6113f08383836118a7565b6113fb600082611168565b6001600360008573ffffffffffffffffffffffffffffffffffffffff1673ffffffffffffffffffffffffffffffffffffffff168152602001908152602001600020600082825461144b91906128d0565b925050819055506001600360008473ffffffffffffffffffffffffffffffffffffffff1673ffffffffffffffffffffffffffffffffffffffff16815260200190815260200160002060008282546114a29190612849565b92505081905550816002600083815260200190815260200160002060006101000a81548173ffffffffffffffffffffffffffffffffffffffff021916908373ffffffffffffffffffffffffffffffffffffffff160217905550808273ffffffffffffffffffffffffffffffffffffffff168473ffffffffffffffffffffffffffffffffffffffff167fddf252ad1be2c89b69c2b068fc378daa952ba7f163c4a11628f55a4df523b3ef60405160405180910390a46115618383836118ac565b505050565b8173ffffffffffffffffffffffffffffffffffffffff168373ffffffffffffffffffffffffffffffffffffffff1614156115d5576040517f08c379a00000000000000000000000000000000000000000000000000000000081526004016115cc90612503565b60405180910390fd5b80600560008573ffffffffffffffffffffffffffffffffffffffff1673ffffffffffffffffffffffffffffffffffffffff16815260200190815260200160002060008473ffffffffffffffffffffffffffffffffffffffff1673ffffffffffffffffffffffffffffffffffffffff16815260200190815260200160002060006101000a81548160ff0219169083151502179055508173ffffffffffffffffffffffffffffffffffffffff168373ffffffffffffffffffffffffffffffffffffffff167f17307eab39ab6107e8899845ad3d59bd9653f200f220920489ca2b5937696c31836040516116c69190612466565b60405180910390a3505050565b6116de8484846112ff565b6116ea848484846118b1565b611729576040517f08c379a0000000000000000000000000000000000000000000000000000000008152600401611720906124a3565b60405180910390fd5b50505050565b606060405180602001604052806000815250905090565b6060600082141561178e576040518060400160405280600181526020017f300000000000000000000000000000000000000000000000000000000000000081525090506118a2565b600082905060005b600082146117c05780806117a990612a1d565b915050600a826117b9919061289f565b9150611796565b60008167ffffffffffffffff8111156117dc576117db612b53565b5b6040519080825280601f01601f19166020018201604052801561180e5781602001600182028036833780820191505090505b5090505b6000851461189b5760018261182791906128d0565b9150600a856118369190612a66565b60306118429190612849565b60f81b81838151811061185857611857612b24565b5b60200101907effffffffffffffffffffffffffffffffffffffffffffffffffffffffffffff1916908160001a905350600a85611894919061289f565b9450611812565b8093505050505b919050565b505050565b505050565b60006118d28473ffffffffffffffffffffffffffffffffffffffff16611a48565b15611a3b578373ffffffffffffffffffffffffffffffffffffffff1663150b7a026118fb611160565b8786866040518563ffffffff1660e01b815260040161191d949392919061241a565b602060405180830381600087803b15801561193757600080fd5b505af192505050801561196857506040513d601f19601f820116820180604052508101906119659190611ec1565b60015b6119eb573d8060008114611998576040519150601f19603f3d011682016040523d82523d6000602084013e61199d565b606091505b506000815114156119e3576040517f08c379a00000000000000000000000000000000000000000000000000000000081526004016119da906124a3565b60405180910390fd5b805181602001fd5b63150b7a0260e01b7bffffffffffffffffffffffffffffffffffffffffffffffffffffffff1916817bffffffffffffffffffffffffffffffffffffffffffffffffffffffff191614915050611a40565b600190505b949350505050565b6000808273ffffffffffffffffffffffffffffffffffffffff163b119050919050565b828054611a77906129ba565b90600052602060002090601f016020900481019282611a995760008555611ae0565b82601f10611ab257805160ff1916838001178555611ae0565b82800160010185558215611ae0579182015b82811115611adf578251825591602001919060010190611ac4565b5b509050611aed9190611b6b565b5090565b6040518061012001604052806000815260200160008152602001600081526020016000815260200160008152602001600073ffffffffffffffffffffffffffffffffffffffff168152602001600073ffffffffffffffffffffffffffffffffffffffff168152602001606081526020016000151581525090565b5b80821115611b84576000816000905550600101611b6c565b5090565b6000611b9b611b9684612793565b61276e565b905082815260208101848484011115611bb757611bb6612b87565b5b611bc2848285612978565b509392505050565b6000611bdd611bd8846127c4565b61276e565b905082815260208101848484011115611bf957611bf8612b87565b5b611c04848285612978565b509392505050565b600081359050611c1b81612f5e565b92915050565b600081359050611c3081612f75565b92915050565b600081359050611c4581612f8c565b92915050565b600081519050611c5a81612f8c565b92915050565b600082601f830112611c7557611c74612b82565b5b8135611c85848260208601611b88565b91505092915050565b600082601f830112611ca357611ca2612b82565b5b8135611cb3848260208601611bca565b91505092915050565b600081359050611ccb81612fa3565b92915050565b600060208284031215611ce757611ce6612b91565b5b6000611cf584828501611c0c565b91505092915050565b60008060408385031215611d1557611d14612b91565b5b6000611d2385828601611c0c565b9250506020611d3485828601611c0c565b9150509250929050565b600080600060608486031215611d5757611d56612b91565b5b6000611d6586828701611c0c565b9350506020611d7686828701611c0c565b9250506040611d8786828701611cbc565b9150509250925092565b60008060008060808587031215611dab57611daa612b91565b5b6000611db987828801611c0c565b9450506020611dca87828801611c0c565b9350506040611ddb87828801611cbc565b925050606085013567ffffffffffffffff811115611dfc57611dfb612b8c565b5b611e0887828801611c60565b91505092959194509250565b60008060408385031215611e2b57611e2a612b91565b5b6000611e3985828601611c0c565b9250506020611e4a85828601611c21565b9150509250929050565b60008060408385031215611e6b57611e6a612b91565b5b6000611e7985828601611c0c565b9250506020611e8a85828601611cbc565b9150509250929050565b600060208284031215611eaa57611ea9612b91565b5b6000611eb884828501611c36565b91505092915050565b600060208284031215611ed757611ed6612b91565b5b6000611ee584828501611c4b565b91505092915050565b600060208284031215611f0457611f03612b91565b5b6000611f1284828501611cbc565b91505092915050565b60008060408385031215611f3257611f31612b91565b5b6000611f4085828601611cbc565b9250506020611f5185828601611c0c565b9150509250929050565b600080600080600080600060e0888a031215611f7a57611f79612b91565b5b6000611f888a828b01611cbc565b9750506020611f998a828b01611cbc565b9650506040611faa8a828b01611cbc565b9550506060611fbb8a828b01611cbc565b9450506080611fcc8a828b01611cbc565b93505060a0611fdd8a828b01611c0c565b92505060c088013567ffffffffffffffff811115611ffe57611ffd612b8c565b5b61200a8a828b01611c8e565b91505092959891949750929550565b61202281612904565b82525050565b61203181612904565b82525050565b61204081612916565b82525050565b61204f81612916565b82525050565b6000612060826127f5565b61206a818561280b565b935061207a818560208601612987565b61208381612b96565b840191505092915050565b600061209982612800565b6120a3818561281c565b93506120b3818560208601612987565b6120bc81612b96565b840191505092915050565b60006120d282612800565b6120dc818561282d565b93506120ec818560208601612987565b6120f581612b96565b840191505092915050565b600061210b82612800565b612115818561283e565b9350612125818560208601612987565b80840191505092915050565b600061213e60328361282d565b915061214982612ba7565b604082019050919050565b600061216160258361282d565b915061216c82612bf6565b604082019050919050565b600061218460248361282d565b915061218f82612c45565b604082019050919050565b60006121a760198361282d565b91506121b282612c94565b602082019050919050565b60006121ca602c8361282d565b91506121d582612cbd565b604082019050919050565b60006121ed60298361282d565b91506121f882612d0c565b604082019050919050565b600061221060388361282d565b915061221b82612d5b565b604082019050919050565b600061223360298361282d565b915061223e82612daa565b604082019050919050565b6000612256602c8361282d565b915061226182612df9565b604082019050919050565b6000612279602f8361282d565b915061228482612e48565b604082019050919050565b600061229c601b8361282d565b91506122a782612e97565b602082019050919050565b60006122bf60218361282d565b91506122ca82612ec0565b604082019050919050565b60006122e260318361282d565b91506122ed82612f0f565b604082019050919050565b60006101208301600083015161231160008601826123bd565b50602083015161232460208601826123bd565b50604083015161233760408601826123bd565b50606083015161234a60608601826123bd565b50608083015161235d60808601826123bd565b5060a083015161237060a0860182612019565b5060c083015161238360c0860182612019565b5060e083015184820360e086015261239b828261208e565b9150506101008301516123b2610100860182612037565b508091505092915050565b6123c68161296e565b82525050565b6123d58161296e565b82525050565b60006123e78285612100565b91506123f38284612100565b91508190509392505050565b60006020820190506124146000830184612028565b92915050565b600060808201905061242f6000830187612028565b61243c6020830186612028565b61244960408301856123cc565b818103606083015261245b8184612055565b905095945050505050565b600060208201905061247b6000830184612046565b92915050565b6000602082019050818103600083015261249b81846120c7565b905092915050565b600060208201905081810360008301526124bc81612131565b9050919050565b600060208201905081810360008301526124dc81612154565b9050919050565b600060208201905081810360008301526124fc81612177565b9050919050565b6000602082019050818103600083015261251c8161219a565b9050919050565b6000602082019050818103600083015261253c816121bd565b9050919050565b6000602082019050818103600083015261255c816121e0565b9050919050565b6000602082019050818103600083015261257c81612203565b9050919050565b6000602082019050818103600083015261259c81612226565b9050919050565b600060208201905081810360008301526125bc81612249565b9050919050565b600060208201905081810360008301526125dc8161226c565b9050919050565b600060208201905081810360008301526125fc8161228f565b9050919050565b6000602082019050818103600083015261261c816122b2565b9050919050565b6000602082019050818103600083015261263c816122d5565b9050919050565b6000602082019050818103600083015261265d81846122f8565b905092915050565b600060208201905061267a60008301846123cc565b92915050565b600060a08201905061269560008301886123cc565b6126a260208301876123cc565b6126af60408301866123cc565b6126bc60608301856123cc565b81810360808301526126ce81846120c7565b90509695505050505050565b6000610120820190506126f0600083018c6123cc565b6126fd602083018b6123cc565b61270a604083018a6123cc565b61271760608301896123cc565b61272460808301886123cc565b61273160a0830187612028565b61273e60c0830186612028565b81810360e083015261275081856120c7565b9050612760610100830184612046565b9a9950505050505050505050565b6000612778612789565b905061278482826129ec565b919050565b6000604051905090565b600067ffffffffffffffff8211156127ae576127ad612b53565b5b6127b782612b96565b9050602081019050919050565b600067ffffffffffffffff8211156127df576127de612b53565b5b6127e882612b96565b9050602081019050919050565b600081519050919050565b600081519050919050565b600082825260208201905092915050565b600082825260208201905092915050565b600082825260208201905092915050565b600081905092915050565b60006128548261296e565b915061285f8361296e565b9250827fffffffffffffffffffffffffffffffffffffffffffffffffffffffffffffffff0382111561289457612893612a97565b5b828201905092915050565b60006128aa8261296e565b91506128b58361296e565b9250826128c5576128c4612ac6565b5b828204905092915050565b60006128db8261296e565b91506128e68361296e565b9250828210156128f9576128f8612a97565b5b828203905092915050565b600061290f8261294e565b9050919050565b60008115159050919050565b60007fffffffff0000000000000000000000000000000000000000000000000000000082169050919050565b600073ffffffffffffffffffffffffffffffffffffffff82169050919050565b6000819050919050565b82818337600083830152505050565b60005b838110156129a557808201518184015260208101905061298a565b838111156129b4576000848401525b50505050565b600060028204905060018216806129d257607f821691505b602082108114156129e6576129e5612af5565b5b50919050565b6129f582612b96565b810181811067ffffffffffffffff82111715612a1457612a13612b53565b5b80604052505050565b6000612a288261296e565b91507fffffffffffffffffffffffffffffffffffffffffffffffffffffffffffffffff821415612a5b57612a5a612a97565b5b600182019050919050565b6000612a718261296e565b9150612a7c8361296e565b925082612a8c57612a8b612ac6565b5b828206905092915050565b7f4e487b7100000000000000000000000000000000000000000000000000000000600052601160045260246000fd5b7f4e487b7100000000000000000000000000000000000000000000000000000000600052601260045260246000fd5b7f4e487b7100000000000000000000000000000000000000000000000000000000600052602260045260246000fd5b7f4e487b7100000000000000000000000000000000000000000000000000000000600052603260045260246000fd5b7f4e487b7100000000000000000000000000000000000000000000000000000000600052604160045260246000fd5b600080fd5b600080fd5b600080fd5b600080fd5b6000601f19601f8301169050919050565b7f4552433732313a207472616e7366657220746f206e6f6e20455243373231526560008201527f63656976657220696d706c656d656e7465720000000000000000000000000000602082015250565b7f4552433732313a207472616e736665722066726f6d20696e636f72726563742060008201527f6f776e6572000000000000000000000000000000000000000000000000000000602082015250565b7f4552433732313a207472616e7366657220746f20746865207a65726f2061646460008201527f7265737300000000000000000000000000000000000000000000000000000000602082015250565b7f4552433732313a20617070726f766520746f2063616c6c657200000000000000600082015250565b7f4552433732313a206f70657261746f7220717565727920666f72206e6f6e657860008201527f697374656e7420746f6b656e0000000000000000000000000000000000000000602082015250565b7f4552433732313a2061646472657373207a65726f206973206e6f74206120766160008201527f6c6964206f776e65720000000000000000000000000000000000000000000000602082015250565b7f4552433732313a20617070726f76652063616c6c6572206973206e6f74206f7760008201527f6e6572206e6f7220617070726f76656420666f7220616c6c0000000000000000602082015250565b7f4552433732313a206f776e657220717565727920666f72206e6f6e657869737460008201527f656e7420746f6b656e0000000000000000000000000000000000000000000000602082015250565b7f4552433732313a20617070726f76656420717565727920666f72206e6f6e657860008201527f697374656e7420746f6b656e0000000000000000000000000000000000000000602082015250565b7f4552433732314d657461646174613a2055524920717565727920666f72206e6f60008201527f6e6578697374656e7420746f6b656e0000000000000000000000000000000000602082015250565b7f7468697320686f757365496420616c7265616479206578697374730000000000600082015250565b7f4552433732313a20617070726f76616c20746f2063757272656e74206f776e6560008201527f7200000000000000000000000000000000000000000000000000000000000000602082015250565b7f4552433732313a207472616e736665722063616c6c6572206973206e6f74206f60008201527f776e6572206e6f7220617070726f766564000000000000000000000000000000602082015250565b612f6781612904565b8114612f7257600080fd5b50565b612f7e81612916565b8114612f8957600080fd5b50565b612f9581612922565b8114612fa057600080fd5b50565b612fac8161296e565b8114612fb757600080fd5b5056fea264697066735822122049fd1dda6801ee95b4e3da1003055d22756fb6d01e5c01cc24190022478b261a64736f6c63430008070033",
					"opcodes": "PUSH1 0x80 PUSH1 0x40 MSTORE CALLVALUE DUP1 ISZERO PUSH3 0x11 JUMPI PUSH1 0x0 DUP1 REVERT JUMPDEST POP PUSH1 0x40 MLOAD PUSH3 0x33A8 CODESIZE SUB DUP1 PUSH3 0x33A8 DUP4 CODECOPY DUP2 DUP2 ADD PUSH1 0x40 MSTORE DUP2 ADD SWAP1 PUSH3 0x37 SWAP2 SWAP1 PUSH3 0x19F JUMP JUMPDEST DUP2 PUSH1 0x0 SWAP1 DUP1 MLOAD SWAP1 PUSH1 0x20 ADD SWAP1 PUSH3 0x4F SWAP3 SWAP2 SWAP1 PUSH3 0x71 JUMP JUMPDEST POP DUP1 PUSH1 0x1 SWAP1 DUP1 MLOAD SWAP1 PUSH1 0x20 ADD SWAP1 PUSH3 0x68 SWAP3 SWAP2 SWAP1 PUSH3 0x71 JUMP JUMPDEST POP POP POP PUSH3 0x3A8 JUMP JUMPDEST DUP3 DUP1 SLOAD PUSH3 0x7F SWAP1 PUSH3 0x2B9 JUMP JUMPDEST SWAP1 PUSH1 0x0 MSTORE PUSH1 0x20 PUSH1 0x0 KECCAK256 SWAP1 PUSH1 0x1F ADD PUSH1 0x20 SWAP1 DIV DUP2 ADD SWAP3 DUP3 PUSH3 0xA3 JUMPI PUSH1 0x0 DUP6 SSTORE PUSH3 0xEF JUMP JUMPDEST DUP3 PUSH1 0x1F LT PUSH3 0xBE JUMPI DUP1 MLOAD PUSH1 0xFF NOT AND DUP4 DUP1 ADD OR DUP6 SSTORE PUSH3 0xEF JUMP JUMPDEST DUP3 DUP1 ADD PUSH1 0x1 ADD DUP6 SSTORE DUP3 ISZERO PUSH3 0xEF JUMPI SWAP2 DUP3 ADD JUMPDEST DUP3 DUP2 GT ISZERO PUSH3 0xEE JUMPI DUP3 MLOAD DUP3 SSTORE SWAP2 PUSH1 0x20 ADD SWAP2 SWAP1 PUSH1 0x1 ADD SWAP1 PUSH3 0xD1 JUMP JUMPDEST JUMPDEST POP SWAP1 POP PUSH3 0xFE SWAP2 SWAP1 PUSH3 0x102 JUMP JUMPDEST POP SWAP1 JUMP JUMPDEST JUMPDEST DUP1 DUP3 GT ISZERO PUSH3 0x11D JUMPI PUSH1 0x0 DUP2 PUSH1 0x0 SWAP1 SSTORE POP PUSH1 0x1 ADD PUSH3 0x103 JUMP JUMPDEST POP SWAP1 JUMP JUMPDEST PUSH1 0x0 PUSH3 0x138 PUSH3 0x132 DUP5 PUSH3 0x24D JUMP JUMPDEST PUSH3 0x224 JUMP JUMPDEST SWAP1 POP DUP3 DUP2 MSTORE PUSH1 0x20 DUP2 ADD DUP5 DUP5 DUP5 ADD GT ISZERO PUSH3 0x157 JUMPI PUSH3 0x156 PUSH3 0x388 JUMP JUMPDEST JUMPDEST PUSH3 0x164 DUP5 DUP3 DUP6 PUSH3 0x283 JUMP JUMPDEST POP SWAP4 SWAP3 POP POP POP JUMP JUMPDEST PUSH1 0x0 DUP3 PUSH1 0x1F DUP4 ADD SLT PUSH3 0x184 JUMPI PUSH3 0x183 PUSH3 0x383 JUMP JUMPDEST JUMPDEST DUP2 MLOAD PUSH3 0x196 DUP5 DUP3 PUSH1 0x20 DUP7 ADD PUSH3 0x121 JUMP JUMPDEST SWAP2 POP POP SWAP3 SWAP2 POP POP JUMP JUMPDEST PUSH1 0x0 DUP1 PUSH1 0x40 DUP4 DUP6 SUB SLT ISZERO PUSH3 0x1B9 JUMPI PUSH3 0x1B8 PUSH3 0x392 JUMP JUMPDEST JUMPDEST PUSH1 0x0 DUP4 ADD MLOAD PUSH8 0xFFFFFFFFFFFFFFFF DUP2 GT ISZERO PUSH3 0x1DA JUMPI PUSH3 0x1D9 PUSH3 0x38D JUMP JUMPDEST JUMPDEST PUSH3 0x1E8 DUP6 DUP3 DUP7 ADD PUSH3 0x16C JUMP JUMPDEST SWAP3 POP POP PUSH1 0x20 DUP4 ADD MLOAD PUSH8 0xFFFFFFFFFFFFFFFF DUP2 GT ISZERO PUSH3 0x20C JUMPI PUSH3 0x20B PUSH3 0x38D JUMP JUMPDEST JUMPDEST PUSH3 0x21A DUP6 DUP3 DUP7 ADD PUSH3 0x16C JUMP JUMPDEST SWAP2 POP POP SWAP3 POP SWAP3 SWAP1 POP JUMP JUMPDEST PUSH1 0x0 PUSH3 0x230 PUSH3 0x243 JUMP JUMPDEST SWAP1 POP PUSH3 0x23E DUP3 DUP3 PUSH3 0x2EF JUMP JUMPDEST SWAP2 SWAP1 POP JUMP JUMPDEST PUSH1 0x0 PUSH1 0x40 MLOAD SWAP1 POP SWAP1 JUMP JUMPDEST PUSH1 0x0 PUSH8 0xFFFFFFFFFFFFFFFF DUP3 GT ISZERO PUSH3 0x26B JUMPI PUSH3 0x26A PUSH3 0x354 JUMP JUMPDEST JUMPDEST PUSH3 0x276 DUP3 PUSH3 0x397 JUMP JUMPDEST SWAP1 POP PUSH1 0x20 DUP2 ADD SWAP1 POP SWAP2 SWAP1 POP JUMP JUMPDEST PUSH1 0x0 JUMPDEST DUP4 DUP2 LT ISZERO PUSH3 0x2A3 JUMPI DUP1 DUP3 ADD MLOAD DUP2 DUP5 ADD MSTORE PUSH1 0x20 DUP2 ADD SWAP1 POP PUSH3 0x286 JUMP JUMPDEST DUP4 DUP2 GT ISZERO PUSH3 0x2B3 JUMPI PUSH1 0x0 DUP5 DUP5 ADD MSTORE JUMPDEST POP POP POP POP JUMP JUMPDEST PUSH1 0x0 PUSH1 0x2 DUP3 DIV SWAP1 POP PUSH1 0x1 DUP3 AND DUP1 PUSH3 0x2D2 JUMPI PUSH1 0x7F DUP3 AND SWAP2 POP JUMPDEST PUSH1 0x20 DUP3 LT DUP2 EQ ISZERO PUSH3 0x2E9 JUMPI PUSH3 0x2E8 PUSH3 0x325 JUMP JUMPDEST JUMPDEST POP SWAP2 SWAP1 POP JUMP JUMPDEST PUSH3 0x2FA DUP3 PUSH3 0x397 JUMP JUMPDEST DUP2 ADD DUP2 DUP2 LT PUSH8 0xFFFFFFFFFFFFFFFF DUP3 GT OR ISZERO PUSH3 0x31C JUMPI PUSH3 0x31B PUSH3 0x354 JUMP JUMPDEST JUMPDEST DUP1 PUSH1 0x40 MSTORE POP POP POP JUMP JUMPDEST PUSH32 0x4E487B7100000000000000000000000000000000000000000000000000000000 PUSH1 0x0 MSTORE PUSH1 0x22 PUSH1 0x4 MSTORE PUSH1 0x24 PUSH1 0x0 REVERT JUMPDEST PUSH32 0x4E487B7100000000000000000000000000000000000000000000000000000000 PUSH1 0x0 MSTORE PUSH1 0x41 PUSH1 0x4 MSTORE PUSH1 0x24 PUSH1 0x0 REVERT JUMPDEST PUSH1 0x0 DUP1 REVERT JUMPDEST PUSH1 0x0 DUP1 REVERT JUMPDEST PUSH1 0x0 DUP1 REVERT JUMPDEST PUSH1 0x0 DUP1 REVERT JUMPDEST PUSH1 0x0 PUSH1 0x1F NOT PUSH1 0x1F DUP4 ADD AND SWAP1 POP SWAP2 SWAP1 POP JUMP JUMPDEST PUSH2 0x2FF0 DUP1 PUSH3 0x3B8 PUSH1 0x0 CODECOPY PUSH1 0x0 RETURN INVALID PUSH1 0x80 PUSH1 0x40 MSTORE CALLVALUE DUP1 ISZERO PUSH2 0x10 JUMPI PUSH1 0x0 DUP1 REVERT JUMPDEST POP PUSH1 0x4 CALLDATASIZE LT PUSH2 0x116 JUMPI PUSH1 0x0 CALLDATALOAD PUSH1 0xE0 SHR DUP1 PUSH4 0x95D89B41 GT PUSH2 0xA2 JUMPI DUP1 PUSH4 0xB88D4FDE GT PUSH2 0x71 JUMPI DUP1 PUSH4 0xB88D4FDE EQ PUSH2 0x30B JUMPI DUP1 PUSH4 0xC87B56DD EQ PUSH2 0x327 JUMPI DUP1 PUSH4 0xD231F142 EQ PUSH2 0x357 JUMPI DUP1 PUSH4 0xE6CDE56A EQ PUSH2 0x373 JUMPI DUP1 PUSH4 0xE985E9C5 EQ PUSH2 0x38F JUMPI PUSH2 0x116 JUMP JUMPDEST DUP1 PUSH4 0x95D89B41 EQ PUSH2 0x269 JUMPI DUP1 PUSH4 0xA22CB465 EQ PUSH2 0x287 JUMPI DUP1 PUSH4 0xAD50F56D EQ PUSH2 0x2A3 JUMPI DUP1 PUSH4 0xAEDA852F EQ PUSH2 0x2D3 JUMPI PUSH2 0x116 JUMP JUMPDEST DUP1 PUSH4 0x95EA7B3 GT PUSH2 0xE9 JUMPI DUP1 PUSH4 0x95EA7B3 EQ PUSH2 0x1B5 JUMPI DUP1 PUSH4 0x23B872DD EQ PUSH2 0x1D1 JUMPI DUP1 PUSH4 0x42842E0E EQ PUSH2 0x1ED JUMPI DUP1 PUSH4 0x6352211E EQ PUSH2 0x209 JUMPI DUP1 PUSH4 0x70A08231 EQ PUSH2 0x239 JUMPI PUSH2 0x116 JUMP JUMPDEST DUP1 PUSH4 0x1FFC9A7 EQ PUSH2 0x11B JUMPI DUP1 PUSH4 0x548FA4F EQ PUSH2 0x14B JUMPI DUP1 PUSH4 0x6FDDE03 EQ PUSH2 0x167 JUMPI DUP1 PUSH4 0x81812FC EQ PUSH2 0x185 JUMPI JUMPDEST PUSH1 0x0 DUP1 REVERT JUMPDEST PUSH2 0x135 PUSH1 0x4 DUP1 CALLDATASIZE SUB DUP2 ADD SWAP1 PUSH2 0x130 SWAP2 SWAP1 PUSH2 0x1E94 JUMP JUMPDEST PUSH2 0x3BF JUMP JUMPDEST PUSH1 0x40 MLOAD PUSH2 0x142 SWAP2 SWAP1 PUSH2 0x2466 JUMP JUMPDEST PUSH1 0x40 MLOAD DUP1 SWAP2 SUB SWAP1 RETURN JUMPDEST PUSH2 0x165 PUSH1 0x4 DUP1 CALLDATASIZE SUB DUP2 ADD SWAP1 PUSH2 0x160 SWAP2 SWAP1 PUSH2 0x1F5B JUMP JUMPDEST PUSH2 0x4A1 JUMP JUMPDEST STOP JUMPDEST PUSH2 0x16F PUSH2 0x6C5 JUMP JUMPDEST PUSH1 0x40 MLOAD PUSH2 0x17C SWAP2 SWAP1 PUSH2 0x2481 JUMP JUMPDEST PUSH1 0x40 MLOAD DUP1 SWAP2 SUB SWAP1 RETURN JUMPDEST PUSH2 0x19F PUSH1 0x4 DUP1 CALLDATASIZE SUB DUP2 ADD SWAP1 PUSH2 0x19A SWAP2 SWAP1 PUSH2 0x1EEE JUMP JUMPDEST PUSH2 0x757 JUMP JUMPDEST PUSH1 0x40 MLOAD PUSH2 0x1AC SWAP2 SWAP1 PUSH2 0x23FF JUMP JUMPDEST PUSH1 0x40 MLOAD DUP1 SWAP2 SUB SWAP1 RETURN JUMPDEST PUSH2 0x1CF PUSH1 0x4 DUP1 CALLDATASIZE SUB DUP2 ADD SWAP1 PUSH2 0x1CA SWAP2 SWAP1 PUSH2 0x1E54 JUMP JUMPDEST PUSH2 0x7DC JUMP JUMPDEST STOP JUMPDEST PUSH2 0x1EB PUSH1 0x4 DUP1 CALLDATASIZE SUB DUP2 ADD SWAP1 PUSH2 0x1E6 SWAP2 SWAP1 PUSH2 0x1D3E JUMP JUMPDEST PUSH2 0x8F4 JUMP JUMPDEST STOP JUMPDEST PUSH2 0x207 PUSH1 0x4 DUP1 CALLDATASIZE SUB DUP2 ADD SWAP1 PUSH2 0x202 SWAP2 SWAP1 PUSH2 0x1D3E JUMP JUMPDEST PUSH2 0x954 JUMP JUMPDEST STOP JUMPDEST PUSH2 0x223 PUSH1 0x4 DUP1 CALLDATASIZE SUB DUP2 ADD SWAP1 PUSH2 0x21E SWAP2 SWAP1 PUSH2 0x1EEE JUMP JUMPDEST PUSH2 0x974 JUMP JUMPDEST PUSH1 0x40 MLOAD PUSH2 0x230 SWAP2 SWAP1 PUSH2 0x23FF JUMP JUMPDEST PUSH1 0x40 MLOAD DUP1 SWAP2 SUB SWAP1 RETURN JUMPDEST PUSH2 0x253 PUSH1 0x4 DUP1 CALLDATASIZE SUB DUP2 ADD SWAP1 PUSH2 0x24E SWAP2 SWAP1 PUSH2 0x1CD1 JUMP JUMPDEST PUSH2 0xA26 JUMP JUMPDEST PUSH1 0x40 MLOAD PUSH2 0x260 SWAP2 SWAP1 PUSH2 0x2665 JUMP JUMPDEST PUSH1 0x40 MLOAD DUP1 SWAP2 SUB SWAP1 RETURN JUMPDEST PUSH2 0x271 PUSH2 0xADE JUMP JUMPDEST PUSH1 0x40 MLOAD PUSH2 0x27E SWAP2 SWAP1 PUSH2 0x2481 JUMP JUMPDEST PUSH1 0x40 MLOAD DUP1 SWAP2 SUB SWAP1 RETURN JUMPDEST PUSH2 0x2A1 PUSH1 0x4 DUP1 CALLDATASIZE SUB DUP2 ADD SWAP1 PUSH2 0x29C SWAP2 SWAP1 PUSH2 0x1E14 JUMP JUMPDEST PUSH2 0xB70 JUMP JUMPDEST STOP JUMPDEST PUSH2 0x2BD PUSH1 0x4 DUP1 CALLDATASIZE SUB DUP2 ADD SWAP1 PUSH2 0x2B8 SWAP2 SWAP1 PUSH2 0x1EEE JUMP JUMPDEST PUSH2 0xB86 JUMP JUMPDEST PUSH1 0x40 MLOAD PUSH2 0x2CA SWAP2 SWAP1 PUSH2 0x2643 JUMP JUMPDEST PUSH1 0x40 MLOAD DUP1 SWAP2 SUB SWAP1 RETURN JUMPDEST PUSH2 0x2ED PUSH1 0x4 DUP1 CALLDATASIZE SUB DUP2 ADD SWAP1 PUSH2 0x2E8 SWAP2 SWAP1 PUSH2 0x1EEE JUMP JUMPDEST PUSH2 0xD3F JUMP JUMPDEST PUSH1 0x40 MLOAD PUSH2 0x302 SWAP10 SWAP9 SWAP8 SWAP7 SWAP6 SWAP5 SWAP4 SWAP3 SWAP2 SWAP1 PUSH2 0x26DA JUMP JUMPDEST PUSH1 0x40 MLOAD DUP1 SWAP2 SUB SWAP1 RETURN JUMPDEST PUSH2 0x325 PUSH1 0x4 DUP1 CALLDATASIZE SUB DUP2 ADD SWAP1 PUSH2 0x320 SWAP2 SWAP1 PUSH2 0x1D91 JUMP JUMPDEST PUSH2 0xE62 JUMP JUMPDEST STOP JUMPDEST PUSH2 0x341 PUSH1 0x4 DUP1 CALLDATASIZE SUB DUP2 ADD SWAP1 PUSH2 0x33C SWAP2 SWAP1 PUSH2 0x1EEE JUMP JUMPDEST PUSH2 0xEC4 JUMP JUMPDEST PUSH1 0x40 MLOAD PUSH2 0x34E SWAP2 SWAP1 PUSH2 0x2481 JUMP JUMPDEST PUSH1 0x40 MLOAD DUP1 SWAP2 SUB SWAP1 RETURN JUMPDEST PUSH2 0x371 PUSH1 0x4 DUP1 CALLDATASIZE SUB DUP2 ADD SWAP1 PUSH2 0x36C SWAP2 SWAP1 PUSH2 0x1EEE JUMP JUMPDEST PUSH2 0xF6B JUMP JUMPDEST STOP JUMPDEST PUSH2 0x38D PUSH1 0x4 DUP1 CALLDATASIZE SUB DUP2 ADD SWAP1 PUSH2 0x388 SWAP2 SWAP1 PUSH2 0x1F1B JUMP JUMPDEST PUSH2 0xF9D JUMP JUMPDEST STOP JUMPDEST PUSH2 0x3A9 PUSH1 0x4 DUP1 CALLDATASIZE SUB DUP2 ADD SWAP1 PUSH2 0x3A4 SWAP2 SWAP1 PUSH2 0x1CFE JUMP JUMPDEST PUSH2 0xFF6 JUMP JUMPDEST PUSH1 0x40 MLOAD PUSH2 0x3B6 SWAP2 SWAP1 PUSH2 0x2466 JUMP JUMPDEST PUSH1 0x40 MLOAD DUP1 SWAP2 SUB SWAP1 RETURN JUMPDEST PUSH1 0x0 PUSH32 0x80AC58CD00000000000000000000000000000000000000000000000000000000 PUSH28 0xFFFFFFFFFFFFFFFFFFFFFFFFFFFFFFFFFFFFFFFFFFFFFFFFFFFFFFFF NOT AND DUP3 PUSH28 0xFFFFFFFFFFFFFFFFFFFFFFFFFFFFFFFFFFFFFFFFFFFFFFFFFFFFFFFF NOT AND EQ DUP1 PUSH2 0x48A JUMPI POP PUSH32 0x5B5E139F00000000000000000000000000000000000000000000000000000000 PUSH28 0xFFFFFFFFFFFFFFFFFFFFFFFFFFFFFFFFFFFFFFFFFFFFFFFFFFFFFFFF NOT AND DUP3 PUSH28 0xFFFFFFFFFFFFFFFFFFFFFFFFFFFFFFFFFFFFFFFFFFFFFFFFFFFFFFFF NOT AND EQ JUMPDEST DUP1 PUSH2 0x49A JUMPI POP PUSH2 0x499 DUP3 PUSH2 0x108A JUMP JUMPDEST JUMPDEST SWAP1 POP SWAP2 SWAP1 POP JUMP JUMPDEST PUSH1 0x6 PUSH1 0x0 DUP9 DUP2 MSTORE PUSH1 0x20 ADD SWAP1 DUP2 MSTORE PUSH1 0x20 ADD PUSH1 0x0 KECCAK256 PUSH1 0x0 ADD SLOAD DUP8 EQ ISZERO PUSH2 0x4FA JUMPI PUSH1 0x40 MLOAD PUSH32 0x8C379A000000000000000000000000000000000000000000000000000000000 DUP2 MSTORE PUSH1 0x4 ADD PUSH2 0x4F1 SWAP1 PUSH2 0x25E3 JUMP JUMPDEST PUSH1 0x40 MLOAD DUP1 SWAP2 SUB SWAP1 REVERT JUMPDEST PUSH1 0x40 MLOAD DUP1 PUSH2 0x120 ADD PUSH1 0x40 MSTORE DUP1 DUP9 DUP2 MSTORE PUSH1 0x20 ADD DUP8 DUP2 MSTORE PUSH1 0x20 ADD DUP7 DUP2 MSTORE PUSH1 0x20 ADD DUP6 DUP2 MSTORE PUSH1 0x20 ADD DUP5 DUP2 MSTORE PUSH1 0x20 ADD DUP4 PUSH20 0xFFFFFFFFFFFFFFFFFFFFFFFFFFFFFFFFFFFFFFFF AND DUP2 MSTORE PUSH1 0x20 ADD DUP4 PUSH20 0xFFFFFFFFFFFFFFFFFFFFFFFFFFFFFFFFFFFFFFFF AND DUP2 MSTORE PUSH1 0x20 ADD DUP3 DUP2 MSTORE PUSH1 0x20 ADD PUSH1 0x0 ISZERO ISZERO DUP2 MSTORE POP PUSH1 0x6 PUSH1 0x0 DUP10 DUP2 MSTORE PUSH1 0x20 ADD SWAP1 DUP2 MSTORE PUSH1 0x20 ADD PUSH1 0x0 KECCAK256 PUSH1 0x0 DUP3 ADD MLOAD DUP2 PUSH1 0x0 ADD SSTORE PUSH1 0x20 DUP3 ADD MLOAD DUP2 PUSH1 0x1 ADD SSTORE PUSH1 0x40 DUP3 ADD MLOAD DUP2 PUSH1 0x2 ADD SSTORE PUSH1 0x60 DUP3 ADD MLOAD DUP2 PUSH1 0x3 ADD SSTORE PUSH1 0x80 DUP3 ADD MLOAD DUP2 PUSH1 0x4 ADD SSTORE PUSH1 0xA0 DUP3 ADD MLOAD DUP2 PUSH1 0x5 ADD PUSH1 0x0 PUSH2 0x100 EXP DUP2 SLOAD DUP2 PUSH20 0xFFFFFFFFFFFFFFFFFFFFFFFFFFFFFFFFFFFFFFFF MUL NOT AND SWAP1 DUP4 PUSH20 0xFFFFFFFFFFFFFFFFFFFFFFFFFFFFFFFFFFFFFFFF AND MUL OR SWAP1 SSTORE POP PUSH1 0xC0 DUP3 ADD MLOAD DUP2 PUSH1 0x6 ADD PUSH1 0x0 PUSH2 0x100 EXP DUP2 SLOAD DUP2 PUSH20 0xFFFFFFFFFFFFFFFFFFFFFFFFFFFFFFFFFFFFFFFF MUL NOT AND SWAP1 DUP4 PUSH20 0xFFFFFFFFFFFFFFFFFFFFFFFFFFFFFFFFFFFFFFFF AND MUL OR SWAP1 SSTORE POP PUSH1 0xE0 DUP3 ADD MLOAD DUP2 PUSH1 0x7 ADD SWAP1 DUP1 MLOAD SWAP1 PUSH1 0x20 ADD SWAP1 PUSH2 0x658 SWAP3 SWAP2 SWAP1 PUSH2 0x1A6B JUMP JUMPDEST POP PUSH2 0x100 DUP3 ADD MLOAD DUP2 PUSH1 0x8 ADD PUSH1 0x0 PUSH2 0x100 EXP DUP2 SLOAD DUP2 PUSH1 0xFF MUL NOT AND SWAP1 DUP4 ISZERO ISZERO MUL OR SWAP1 SSTORE POP SWAP1 POP POP PUSH32 0x6F71AC8C8036718CCA9ADA265DD47C000F08B90CC3B041C7C50FB5A940C75F9D DUP8 DUP8 DUP8 DUP8 DUP6 PUSH1 0x40 MLOAD PUSH2 0x6B4 SWAP6 SWAP5 SWAP4 SWAP3 SWAP2 SWAP1 PUSH2 0x2680 JUMP JUMPDEST PUSH1 0x40 MLOAD DUP1 SWAP2 SUB SWAP1 LOG1 POP POP POP POP POP POP POP JUMP JUMPDEST PUSH1 0x60 PUSH1 0x0 DUP1 SLOAD PUSH2 0x6D4 SWAP1 PUSH2 0x29BA JUMP JUMPDEST DUP1 PUSH1 0x1F ADD PUSH1 0x20 DUP1 SWAP2 DIV MUL PUSH1 0x20 ADD PUSH1 0x40 MLOAD SWAP1 DUP2 ADD PUSH1 0x40 MSTORE DUP1 SWAP3 SWAP2 SWAP1 DUP2 DUP2 MSTORE PUSH1 0x20 ADD DUP3 DUP1 SLOAD PUSH2 0x700 SWAP1 PUSH2 0x29BA JUMP JUMPDEST DUP1 ISZERO PUSH2 0x74D JUMPI DUP1 PUSH1 0x1F LT PUSH2 0x722 JUMPI PUSH2 0x100 DUP1 DUP4 SLOAD DIV MUL DUP4 MSTORE SWAP2 PUSH1 0x20 ADD SWAP2 PUSH2 0x74D JUMP JUMPDEST DUP3 ADD SWAP2 SWAP1 PUSH1 0x0 MSTORE PUSH1 0x20 PUSH1 0x0 KECCAK256 SWAP1 JUMPDEST DUP2 SLOAD DUP2 MSTORE SWAP1 PUSH1 0x1 ADD SWAP1 PUSH1 0x20 ADD DUP1 DUP4 GT PUSH2 0x730 JUMPI DUP3 SWAP1 SUB PUSH1 0x1F AND DUP3 ADD SWAP2 JUMPDEST POP POP POP POP POP SWAP1 POP SWAP1 JUMP JUMPDEST PUSH1 0x0 PUSH2 0x762 DUP3 PUSH2 0x10F4 JUMP JUMPDEST PUSH2 0x7A1 JUMPI PUSH1 0x40 MLOAD PUSH32 0x8C379A000000000000000000000000000000000000000000000000000000000 DUP2 MSTORE PUSH1 0x4 ADD PUSH2 0x798 SWAP1 PUSH2 0x25A3 JUMP JUMPDEST PUSH1 0x40 MLOAD DUP1 SWAP2 SUB SWAP1 REVERT JUMPDEST PUSH1 0x4 PUSH1 0x0 DUP4 DUP2 MSTORE PUSH1 0x20 ADD SWAP1 DUP2 MSTORE PUSH1 0x20 ADD PUSH1 0x0 KECCAK256 PUSH1 0x0 SWAP1 SLOAD SWAP1 PUSH2 0x100 EXP SWAP1 DIV PUSH20 0xFFFFFFFFFFFFFFFFFFFFFFFFFFFFFFFFFFFFFFFF AND SWAP1 POP SWAP2 SWAP1 POP JUMP JUMPDEST PUSH1 0x0 PUSH2 0x7E7 DUP3 PUSH2 0x974 JUMP JUMPDEST SWAP1 POP DUP1 PUSH20 0xFFFFFFFFFFFFFFFFFFFFFFFFFFFFFFFFFFFFFFFF AND DUP4 PUSH20 0xFFFFFFFFFFFFFFFFFFFFFFFFFFFFFFFFFFFFFFFF AND EQ ISZERO PUSH2 0x858 JUMPI PUSH1 0x40 MLOAD PUSH32 0x8C379A000000000000000000000000000000000000000000000000000000000 DUP2 MSTORE PUSH1 0x4 ADD PUSH2 0x84F SWAP1 PUSH2 0x2603 JUMP JUMPDEST PUSH1 0x40 MLOAD DUP1 SWAP2 SUB SWAP1 REVERT JUMPDEST DUP1 PUSH20 0xFFFFFFFFFFFFFFFFFFFFFFFFFFFFFFFFFFFFFFFF AND PUSH2 0x877 PUSH2 0x1160 JUMP JUMPDEST PUSH20 0xFFFFFFFFFFFFFFFFFFFFFFFFFFFFFFFFFFFFFFFF AND EQ DUP1 PUSH2 0x8A6 JUMPI POP PUSH2 0x8A5 DUP2 PUSH2 0x8A0 PUSH2 0x1160 JUMP JUMPDEST PUSH2 0xFF6 JUMP JUMPDEST JUMPDEST PUSH2 0x8E5 JUMPI PUSH1 0x40 MLOAD PUSH32 0x8C379A000000000000000000000000000000000000000000000000000000000 DUP2 MSTORE PUSH1 0x4 ADD PUSH2 0x8DC SWAP1 PUSH2 0x2563 JUMP JUMPDEST PUSH1 0x40 MLOAD DUP1 SWAP2 SUB SWAP1 REVERT JUMPDEST PUSH2 0x8EF DUP4 DUP4 PUSH2 0x1168 JUMP JUMPDEST POP POP POP JUMP JUMPDEST PUSH2 0x905 PUSH2 0x8FF PUSH2 0x1160 JUMP JUMPDEST DUP3 PUSH2 0x1221 JUMP JUMPDEST PUSH2 0x944 JUMPI PUSH1 0x40 MLOAD PUSH32 0x8C379A000000000000000000000000000000000000000000000000000000000 DUP2 MSTORE PUSH1 0x4 ADD PUSH2 0x93B SWAP1 PUSH2 0x2623 JUMP JUMPDEST PUSH1 0x40 MLOAD DUP1 SWAP2 SUB SWAP1 REVERT JUMPDEST PUSH2 0x94F DUP4 DUP4 DUP4 PUSH2 0x12FF JUMP JUMPDEST POP POP POP JUMP JUMPDEST PUSH2 0x96F DUP4 DUP4 DUP4 PUSH1 0x40 MLOAD DUP1 PUSH1 0x20 ADD PUSH1 0x40 MSTORE DUP1 PUSH1 0x0 DUP2 MSTORE POP PUSH2 0xE62 JUMP JUMPDEST POP POP POP JUMP JUMPDEST PUSH1 0x0 DUP1 PUSH1 0x2 PUSH1 0x0 DUP5 DUP2 MSTORE PUSH1 0x20 ADD SWAP1 DUP2 MSTORE PUSH1 0x20 ADD PUSH1 0x0 KECCAK256 PUSH1 0x0 SWAP1 SLOAD SWAP1 PUSH2 0x100 EXP SWAP1 DIV PUSH20 0xFFFFFFFFFFFFFFFFFFFFFFFFFFFFFFFFFFFFFFFF AND SWAP1 POP PUSH1 0x0 PUSH20 0xFFFFFFFFFFFFFFFFFFFFFFFFFFFFFFFFFFFFFFFF AND DUP2 PUSH20 0xFFFFFFFFFFFFFFFFFFFFFFFFFFFFFFFFFFFFFFFF AND EQ ISZERO PUSH2 0xA1D JUMPI PUSH1 0x40 MLOAD PUSH32 0x8C379A000000000000000000000000000000000000000000000000000000000 DUP2 MSTORE PUSH1 0x4 ADD PUSH2 0xA14 SWAP1 PUSH2 0x2583 JUMP JUMPDEST PUSH1 0x40 MLOAD DUP1 SWAP2 SUB SWAP1 REVERT JUMPDEST DUP1 SWAP2 POP POP SWAP2 SWAP1 POP JUMP JUMPDEST PUSH1 0x0 DUP1 PUSH20 0xFFFFFFFFFFFFFFFFFFFFFFFFFFFFFFFFFFFFFFFF AND DUP3 PUSH20 0xFFFFFFFFFFFFFFFFFFFFFFFFFFFFFFFFFFFFFFFF AND EQ ISZERO PUSH2 0xA97 JUMPI PUSH1 0x40 MLOAD PUSH32 0x8C379A000000000000000000000000000000000000000000000000000000000 DUP2 MSTORE PUSH1 0x4 ADD PUSH2 0xA8E SWAP1 PUSH2 0x2543 JUMP JUMPDEST PUSH1 0x40 MLOAD DUP1 SWAP2 SUB SWAP1 REVERT JUMPDEST PUSH1 0x3 PUSH1 0x0 DUP4 PUSH20 0xFFFFFFFFFFFFFFFFFFFFFFFFFFFFFFFFFFFFFFFF AND PUSH20 0xFFFFFFFFFFFFFFFFFFFFFFFFFFFFFFFFFFFFFFFF AND DUP2 MSTORE PUSH1 0x20 ADD SWAP1 DUP2 MSTORE PUSH1 0x20 ADD PUSH1 0x0 KECCAK256 SLOAD SWAP1 POP SWAP2 SWAP1 POP JUMP JUMPDEST PUSH1 0x60 PUSH1 0x1 DUP1 SLOAD PUSH2 0xAED SWAP1 PUSH2 0x29BA JUMP JUMPDEST DUP1 PUSH1 0x1F ADD PUSH1 0x20 DUP1 SWAP2 DIV MUL PUSH1 0x20 ADD PUSH1 0x40 MLOAD SWAP1 DUP2 ADD PUSH1 0x40 MSTORE DUP1 SWAP3 SWAP2 SWAP1 DUP2 DUP2 MSTORE PUSH1 0x20 ADD DUP3 DUP1 SLOAD PUSH2 0xB19 SWAP1 PUSH2 0x29BA JUMP JUMPDEST DUP1 ISZERO PUSH2 0xB66 JUMPI DUP1 PUSH1 0x1F LT PUSH2 0xB3B JUMPI PUSH2 0x100 DUP1 DUP4 SLOAD DIV MUL DUP4 MSTORE SWAP2 PUSH1 0x20 ADD SWAP2 PUSH2 0xB66 JUMP JUMPDEST DUP3 ADD SWAP2 SWAP1 PUSH1 0x0 MSTORE PUSH1 0x20 PUSH1 0x0 KECCAK256 SWAP1 JUMPDEST DUP2 SLOAD DUP2 MSTORE SWAP1 PUSH1 0x1 ADD SWAP1 PUSH1 0x20 ADD DUP1 DUP4 GT PUSH2 0xB49 JUMPI DUP3 SWAP1 SUB PUSH1 0x1F AND DUP3 ADD SWAP2 JUMPDEST POP POP POP POP POP SWAP1 POP SWAP1 JUMP JUMPDEST PUSH2 0xB82 PUSH2 0xB7B PUSH2 0x1160 JUMP JUMPDEST DUP4 DUP4 PUSH2 0x1566 JUMP JUMPDEST POP POP JUMP JUMPDEST PUSH2 0xB8E PUSH2 0x1AF1 JUMP JUMPDEST PUSH1 0x6 PUSH1 0x0 DUP4 DUP2 MSTORE PUSH1 0x20 ADD SWAP1 DUP2 MSTORE PUSH1 0x20 ADD PUSH1 0x0 KECCAK256 PUSH1 0x40 MLOAD DUP1 PUSH2 0x120 ADD PUSH1 0x40 MSTORE SWAP1 DUP2 PUSH1 0x0 DUP3 ADD SLOAD DUP2 MSTORE PUSH1 0x20 ADD PUSH1 0x1 DUP3 ADD SLOAD DUP2 MSTORE PUSH1 0x20 ADD PUSH1 0x2 DUP3 ADD SLOAD DUP2 MSTORE PUSH1 0x20 ADD PUSH1 0x3 DUP3 ADD SLOAD DUP2 MSTORE PUSH1 0x20 ADD PUSH1 0x4 DUP3 ADD SLOAD DUP2 MSTORE PUSH1 0x20 ADD PUSH1 0x5 DUP3 ADD PUSH1 0x0 SWAP1 SLOAD SWAP1 PUSH2 0x100 EXP SWAP1 DIV PUSH20 0xFFFFFFFFFFFFFFFFFFFFFFFFFFFFFFFFFFFFFFFF AND PUSH20 0xFFFFFFFFFFFFFFFFFFFFFFFFFFFFFFFFFFFFFFFF AND PUSH20 0xFFFFFFFFFFFFFFFFFFFFFFFFFFFFFFFFFFFFFFFF AND DUP2 MSTORE PUSH1 0x20 ADD PUSH1 0x6 DUP3 ADD PUSH1 0x0 SWAP1 SLOAD SWAP1 PUSH2 0x100 EXP SWAP1 DIV PUSH20 0xFFFFFFFFFFFFFFFFFFFFFFFFFFFFFFFFFFFFFFFF AND PUSH20 0xFFFFFFFFFFFFFFFFFFFFFFFFFFFFFFFFFFFFFFFF AND PUSH20 0xFFFFFFFFFFFFFFFFFFFFFFFFFFFFFFFFFFFFFFFF AND DUP2 MSTORE PUSH1 0x20 ADD PUSH1 0x7 DUP3 ADD DUP1 SLOAD PUSH2 0xC9B SWAP1 PUSH2 0x29BA JUMP JUMPDEST DUP1 PUSH1 0x1F ADD PUSH1 0x20 DUP1 SWAP2 DIV MUL PUSH1 0x20 ADD PUSH1 0x40 MLOAD SWAP1 DUP2 ADD PUSH1 0x40 MSTORE DUP1 SWAP3 SWAP2 SWAP1 DUP2 DUP2 MSTORE PUSH1 0x20 ADD DUP3 DUP1 SLOAD PUSH2 0xCC7 SWAP1 PUSH2 0x29BA JUMP JUMPDEST DUP1 ISZERO PUSH2 0xD14 JUMPI DUP1 PUSH1 0x1F LT PUSH2 0xCE9 JUMPI PUSH2 0x100 DUP1 DUP4 SLOAD DIV MUL DUP4 MSTORE SWAP2 PUSH1 0x20 ADD SWAP2 PUSH2 0xD14 JUMP JUMPDEST DUP3 ADD SWAP2 SWAP1 PUSH1 0x0 MSTORE PUSH1 0x20 PUSH1 0x0 KECCAK256 SWAP1 JUMPDEST DUP2 SLOAD DUP2 MSTORE SWAP1 PUSH1 0x1 ADD SWAP1 PUSH1 0x20 ADD DUP1 DUP4 GT PUSH2 0xCF7 JUMPI DUP3 SWAP1 SUB PUSH1 0x1F AND DUP3 ADD SWAP2 JUMPDEST POP POP POP POP POP DUP2 MSTORE PUSH1 0x20 ADD PUSH1 0x8 DUP3 ADD PUSH1 0x0 SWAP1 SLOAD SWAP1 PUSH2 0x100 EXP SWAP1 DIV PUSH1 0xFF AND ISZERO ISZERO ISZERO ISZERO DUP2 MSTORE POP POP SWAP1 POP SWAP2 SWAP1 POP JUMP JUMPDEST PUSH1 0x6 PUSH1 0x20 MSTORE DUP1 PUSH1 0x0 MSTORE PUSH1 0x40 PUSH1 0x0 KECCAK256 PUSH1 0x0 SWAP2 POP SWAP1 POP DUP1 PUSH1 0x0 ADD SLOAD SWAP1 DUP1 PUSH1 0x1 ADD SLOAD SWAP1 DUP1 PUSH1 0x2 ADD SLOAD SWAP1 DUP1 PUSH1 0x3 ADD SLOAD SWAP1 DUP1 PUSH1 0x4 ADD SLOAD SWAP1 DUP1 PUSH1 0x5 ADD PUSH1 0x0 SWAP1 SLOAD SWAP1 PUSH2 0x100 EXP SWAP1 DIV PUSH20 0xFFFFFFFFFFFFFFFFFFFFFFFFFFFFFFFFFFFFFFFF AND SWAP1 DUP1 PUSH1 0x6 ADD PUSH1 0x0 SWAP1 SLOAD SWAP1 PUSH2 0x100 EXP SWAP1 DIV PUSH20 0xFFFFFFFFFFFFFFFFFFFFFFFFFFFFFFFFFFFFFFFF AND SWAP1 DUP1 PUSH1 0x7 ADD DUP1 SLOAD PUSH2 0xDCC SWAP1 PUSH2 0x29BA JUMP JUMPDEST DUP1 PUSH1 0x1F ADD PUSH1 0x20 DUP1 SWAP2 DIV MUL PUSH1 0x20 ADD PUSH1 0x40 MLOAD SWAP1 DUP2 ADD PUSH1 0x40 MSTORE DUP1 SWAP3 SWAP2 SWAP1 DUP2 DUP2 MSTORE PUSH1 0x20 ADD DUP3 DUP1 SLOAD PUSH2 0xDF8 SWAP1 PUSH2 0x29BA JUMP JUMPDEST DUP1 ISZERO PUSH2 0xE45 JUMPI DUP1 PUSH1 0x1F LT PUSH2 0xE1A JUMPI PUSH2 0x100 DUP1 DUP4 SLOAD DIV MUL DUP4 MSTORE SWAP2 PUSH1 0x20 ADD SWAP2 PUSH2 0xE45 JUMP JUMPDEST DUP3 ADD SWAP2 SWAP1 PUSH1 0x0 MSTORE PUSH1 0x20 PUSH1 0x0 KECCAK256 SWAP1 JUMPDEST DUP2 SLOAD DUP2 MSTORE SWAP1 PUSH1 0x1 ADD SWAP1 PUSH1 0x20 ADD DUP1 DUP4 GT PUSH2 0xE28 JUMPI DUP3 SWAP1 SUB PUSH1 0x1F AND DUP3 ADD SWAP2 JUMPDEST POP POP POP POP POP SWAP1 DUP1 PUSH1 0x8 ADD PUSH1 0x0 SWAP1 SLOAD SWAP1 PUSH2 0x100 EXP SWAP1 DIV PUSH1 0xFF AND SWAP1 POP DUP10 JUMP JUMPDEST PUSH2 0xE73 PUSH2 0xE6D PUSH2 0x1160 JUMP JUMPDEST DUP4 PUSH2 0x1221 JUMP JUMPDEST PUSH2 0xEB2 JUMPI PUSH1 0x40 MLOAD PUSH32 0x8C379A000000000000000000000000000000000000000000000000000000000 DUP2 MSTORE PUSH1 0x4 ADD PUSH2 0xEA9 SWAP1 PUSH2 0x2623 JUMP JUMPDEST PUSH1 0x40 MLOAD DUP1 SWAP2 SUB SWAP1 REVERT JUMPDEST PUSH2 0xEBE DUP5 DUP5 DUP5 DUP5 PUSH2 0x16D3 JUMP JUMPDEST POP POP POP POP JUMP JUMPDEST PUSH1 0x60 PUSH2 0xECF DUP3 PUSH2 0x10F4 JUMP JUMPDEST PUSH2 0xF0E JUMPI PUSH1 0x40 MLOAD PUSH32 0x8C379A000000000000000000000000000000000000000000000000000000000 DUP2 MSTORE PUSH1 0x4 ADD PUSH2 0xF05 SWAP1 PUSH2 0x25C3 JUMP JUMPDEST PUSH1 0x40 MLOAD DUP1 SWAP2 SUB SWAP1 REVERT JUMPDEST PUSH1 0x0 PUSH2 0xF18 PUSH2 0x172F JUMP JUMPDEST SWAP1 POP PUSH1 0x0 DUP2 MLOAD GT PUSH2 0xF38 JUMPI PUSH1 0x40 MLOAD DUP1 PUSH1 0x20 ADD PUSH1 0x40 MSTORE DUP1 PUSH1 0x0 DUP2 MSTORE POP PUSH2 0xF63 JUMP JUMPDEST DUP1 PUSH2 0xF42 DUP5 PUSH2 0x1746 JUMP JUMPDEST PUSH1 0x40 MLOAD PUSH1 0x20 ADD PUSH2 0xF53 SWAP3 SWAP2 SWAP1 PUSH2 0x23DB JUMP JUMPDEST PUSH1 0x40 MLOAD PUSH1 0x20 DUP2 DUP4 SUB SUB DUP2 MSTORE SWAP1 PUSH1 0x40 MSTORE JUMPDEST SWAP2 POP POP SWAP2 SWAP1 POP JUMP JUMPDEST PUSH1 0x1 PUSH1 0x6 PUSH1 0x0 DUP4 DUP2 MSTORE PUSH1 0x20 ADD SWAP1 DUP2 MSTORE PUSH1 0x20 ADD PUSH1 0x0 KECCAK256 PUSH1 0x8 ADD PUSH1 0x0 PUSH2 0x100 EXP DUP2 SLOAD DUP2 PUSH1 0xFF MUL NOT AND SWAP1 DUP4 ISZERO ISZERO MUL OR SWAP1 SSTORE POP POP JUMP JUMPDEST DUP1 PUSH1 0x6 PUSH1 0x0 DUP5 DUP2 MSTORE PUSH1 0x20 ADD SWAP1 DUP2 MSTORE PUSH1 0x20 ADD PUSH1 0x0 KECCAK256 PUSH1 0x6 ADD PUSH1 0x0 PUSH2 0x100 EXP DUP2 SLOAD DUP2 PUSH20 0xFFFFFFFFFFFFFFFFFFFFFFFFFFFFFFFFFFFFFFFF MUL NOT AND SWAP1 DUP4 PUSH20 0xFFFFFFFFFFFFFFFFFFFFFFFFFFFFFFFFFFFFFFFF AND MUL OR SWAP1 SSTORE POP POP POP JUMP JUMPDEST PUSH1 0x0 PUSH1 0x5 PUSH1 0x0 DUP5 PUSH20 0xFFFFFFFFFFFFFFFFFFFFFFFFFFFFFFFFFFFFFFFF AND PUSH20 0xFFFFFFFFFFFFFFFFFFFFFFFFFFFFFFFFFFFFFFFF AND DUP2 MSTORE PUSH1 0x20 ADD SWAP1 DUP2 MSTORE PUSH1 0x20 ADD PUSH1 0x0 KECCAK256 PUSH1 0x0 DUP4 PUSH20 0xFFFFFFFFFFFFFFFFFFFFFFFFFFFFFFFFFFFFFFFF AND PUSH20 0xFFFFFFFFFFFFFFFFFFFFFFFFFFFFFFFFFFFFFFFF AND DUP2 MSTORE PUSH1 0x20 ADD SWAP1 DUP2 MSTORE PUSH1 0x20 ADD PUSH1 0x0 KECCAK256 PUSH1 0x0 SWAP1 SLOAD SWAP1 PUSH2 0x100 EXP SWAP1 DIV PUSH1 0xFF AND SWAP1 POP SWAP3 SWAP2 POP POP JUMP JUMPDEST PUSH1 0x0 PUSH32 0x1FFC9A700000000000000000000000000000000000000000000000000000000 PUSH28 0xFFFFFFFFFFFFFFFFFFFFFFFFFFFFFFFFFFFFFFFFFFFFFFFFFFFFFFFF NOT AND DUP3 PUSH28 0xFFFFFFFFFFFFFFFFFFFFFFFFFFFFFFFFFFFFFFFFFFFFFFFFFFFFFFFF NOT AND EQ SWAP1 POP SWAP2 SWAP1 POP JUMP JUMPDEST PUSH1 0x0 DUP1 PUSH20 0xFFFFFFFFFFFFFFFFFFFFFFFFFFFFFFFFFFFFFFFF AND PUSH1 0x2 PUSH1 0x0 DUP5 DUP2 MSTORE PUSH1 0x20 ADD SWAP1 DUP2 MSTORE PUSH1 0x20 ADD PUSH1 0x0 KECCAK256 PUSH1 0x0 SWAP1 SLOAD SWAP1 PUSH2 0x100 EXP SWAP1 DIV PUSH20 0xFFFFFFFFFFFFFFFFFFFFFFFFFFFFFFFFFFFFFFFF AND PUSH20 0xFFFFFFFFFFFFFFFFFFFFFFFFFFFFFFFFFFFFFFFF AND EQ ISZERO SWAP1 POP SWAP2 SWAP1 POP JUMP JUMPDEST PUSH1 0x0 CALLER SWAP1 POP SWAP1 JUMP JUMPDEST DUP2 PUSH1 0x4 PUSH1 0x0 DUP4 DUP2 MSTORE PUSH1 0x20 ADD SWAP1 DUP2 MSTORE PUSH1 0x20 ADD PUSH1 0x0 KECCAK256 PUSH1 0x0 PUSH2 0x100 EXP DUP2 SLOAD DUP2 PUSH20 0xFFFFFFFFFFFFFFFFFFFFFFFFFFFFFFFFFFFFFFFF MUL NOT AND SWAP1 DUP4 PUSH20 0xFFFFFFFFFFFFFFFFFFFFFFFFFFFFFFFFFFFFFFFF AND MUL OR SWAP1 SSTORE POP DUP1 DUP3 PUSH20 0xFFFFFFFFFFFFFFFFFFFFFFFFFFFFFFFFFFFFFFFF AND PUSH2 0x11DB DUP4 PUSH2 0x974 JUMP JUMPDEST PUSH20 0xFFFFFFFFFFFFFFFFFFFFFFFFFFFFFFFFFFFFFFFF AND PUSH32 0x8C5BE1E5EBEC7D5BD14F71427D1E84F3DD0314C0F7B2291E5B200AC8C7C3B925 PUSH1 0x40 MLOAD PUSH1 0x40 MLOAD DUP1 SWAP2 SUB SWAP1 LOG4 POP POP JUMP JUMPDEST PUSH1 0x0 PUSH2 0x122C DUP3 PUSH2 0x10F4 JUMP JUMPDEST PUSH2 0x126B JUMPI PUSH1 0x40 MLOAD PUSH32 0x8C379A000000000000000000000000000000000000000000000000000000000 DUP2 MSTORE PUSH1 0x4 ADD PUSH2 0x1262 SWAP1 PUSH2 0x2523 JUMP JUMPDEST PUSH1 0x40 MLOAD DUP1 SWAP2 SUB SWAP1 REVERT JUMPDEST PUSH1 0x0 PUSH2 0x1276 DUP4 PUSH2 0x974 JUMP JUMPDEST SWAP1 POP DUP1 PUSH20 0xFFFFFFFFFFFFFFFFFFFFFFFFFFFFFFFFFFFFFFFF AND DUP5 PUSH20 0xFFFFFFFFFFFFFFFFFFFFFFFFFFFFFFFFFFFFFFFF AND EQ DUP1 PUSH2 0x12B8 JUMPI POP PUSH2 0x12B7 DUP2 DUP6 PUSH2 0xFF6 JUMP JUMPDEST JUMPDEST DUP1 PUSH2 0x12F6 JUMPI POP DUP4 PUSH20 0xFFFFFFFFFFFFFFFFFFFFFFFFFFFFFFFFFFFFFFFF AND PUSH2 0x12DE DUP5 PUSH2 0x757 JUMP JUMPDEST PUSH20 0xFFFFFFFFFFFFFFFFFFFFFFFFFFFFFFFFFFFFFFFF AND EQ JUMPDEST SWAP2 POP POP SWAP3 SWAP2 POP POP JUMP JUMPDEST DUP3 PUSH20 0xFFFFFFFFFFFFFFFFFFFFFFFFFFFFFFFFFFFFFFFF AND PUSH2 0x131F DUP3 PUSH2 0x974 JUMP JUMPDEST PUSH20 0xFFFFFFFFFFFFFFFFFFFFFFFFFFFFFFFFFFFFFFFF AND EQ PUSH2 0x1375 JUMPI PUSH1 0x40 MLOAD PUSH32 0x8C379A000000000000000000000000000000000000000000000000000000000 DUP2 MSTORE PUSH1 0x4 ADD PUSH2 0x136C SWAP1 PUSH2 0x24C3 JUMP JUMPDEST PUSH1 0x40 MLOAD DUP1 SWAP2 SUB SWAP1 REVERT JUMPDEST PUSH1 0x0 PUSH20 0xFFFFFFFFFFFFFFFFFFFFFFFFFFFFFFFFFFFFFFFF AND DUP3 PUSH20 0xFFFFFFFFFFFFFFFFFFFFFFFFFFFFFFFFFFFFFFFF AND EQ ISZERO PUSH2 0x13E5 JUMPI PUSH1 0x40 MLOAD PUSH32 0x8C379A000000000000000000000000000000000000000000000000000000000 DUP2 MSTORE PUSH1 0x4 ADD PUSH2 0x13DC SWAP1 PUSH2 0x24E3 JUMP JUMPDEST PUSH1 0x40 MLOAD DUP1 SWAP2 SUB SWAP1 REVERT JUMPDEST PUSH2 0x13F0 DUP4 DUP4 DUP4 PUSH2 0x18A7 JUMP JUMPDEST PUSH2 0x13FB PUSH1 0x0 DUP3 PUSH2 0x1168 JUMP JUMPDEST PUSH1 0x1 PUSH1 0x3 PUSH1 0x0 DUP6 PUSH20 0xFFFFFFFFFFFFFFFFFFFFFFFFFFFFFFFFFFFFFFFF AND PUSH20 0xFFFFFFFFFFFFFFFFFFFFFFFFFFFFFFFFFFFFFFFF AND DUP2 MSTORE PUSH1 0x20 ADD SWAP1 DUP2 MSTORE PUSH1 0x20 ADD PUSH1 0x0 KECCAK256 PUSH1 0x0 DUP3 DUP3 SLOAD PUSH2 0x144B SWAP2 SWAP1 PUSH2 0x28D0 JUMP JUMPDEST SWAP3 POP POP DUP2 SWAP1 SSTORE POP PUSH1 0x1 PUSH1 0x3 PUSH1 0x0 DUP5 PUSH20 0xFFFFFFFFFFFFFFFFFFFFFFFFFFFFFFFFFFFFFFFF AND PUSH20 0xFFFFFFFFFFFFFFFFFFFFFFFFFFFFFFFFFFFFFFFF AND DUP2 MSTORE PUSH1 0x20 ADD SWAP1 DUP2 MSTORE PUSH1 0x20 ADD PUSH1 0x0 KECCAK256 PUSH1 0x0 DUP3 DUP3 SLOAD PUSH2 0x14A2 SWAP2 SWAP1 PUSH2 0x2849 JUMP JUMPDEST SWAP3 POP POP DUP2 SWAP1 SSTORE POP DUP2 PUSH1 0x2 PUSH1 0x0 DUP4 DUP2 MSTORE PUSH1 0x20 ADD SWAP1 DUP2 MSTORE PUSH1 0x20 ADD PUSH1 0x0 KECCAK256 PUSH1 0x0 PUSH2 0x100 EXP DUP2 SLOAD DUP2 PUSH20 0xFFFFFFFFFFFFFFFFFFFFFFFFFFFFFFFFFFFFFFFF MUL NOT AND SWAP1 DUP4 PUSH20 0xFFFFFFFFFFFFFFFFFFFFFFFFFFFFFFFFFFFFFFFF AND MUL OR SWAP1 SSTORE POP DUP1 DUP3 PUSH20 0xFFFFFFFFFFFFFFFFFFFFFFFFFFFFFFFFFFFFFFFF AND DUP5 PUSH20 0xFFFFFFFFFFFFFFFFFFFFFFFFFFFFFFFFFFFFFFFF AND PUSH32 0xDDF252AD1BE2C89B69C2B068FC378DAA952BA7F163C4A11628F55A4DF523B3EF PUSH1 0x40 MLOAD PUSH1 0x40 MLOAD DUP1 SWAP2 SUB SWAP1 LOG4 PUSH2 0x1561 DUP4 DUP4 DUP4 PUSH2 0x18AC JUMP JUMPDEST POP POP POP JUMP JUMPDEST DUP2 PUSH20 0xFFFFFFFFFFFFFFFFFFFFFFFFFFFFFFFFFFFFFFFF AND DUP4 PUSH20 0xFFFFFFFFFFFFFFFFFFFFFFFFFFFFFFFFFFFFFFFF AND EQ ISZERO PUSH2 0x15D5 JUMPI PUSH1 0x40 MLOAD PUSH32 0x8C379A000000000000000000000000000000000000000000000000000000000 DUP2 MSTORE PUSH1 0x4 ADD PUSH2 0x15CC SWAP1 PUSH2 0x2503 JUMP JUMPDEST PUSH1 0x40 MLOAD DUP1 SWAP2 SUB SWAP1 REVERT JUMPDEST DUP1 PUSH1 0x5 PUSH1 0x0 DUP6 PUSH20 0xFFFFFFFFFFFFFFFFFFFFFFFFFFFFFFFFFFFFFFFF AND PUSH20 0xFFFFFFFFFFFFFFFFFFFFFFFFFFFFFFFFFFFFFFFF AND DUP2 MSTORE PUSH1 0x20 ADD SWAP1 DUP2 MSTORE PUSH1 0x20 ADD PUSH1 0x0 KECCAK256 PUSH1 0x0 DUP5 PUSH20 0xFFFFFFFFFFFFFFFFFFFFFFFFFFFFFFFFFFFFFFFF AND PUSH20 0xFFFFFFFFFFFFFFFFFFFFFFFFFFFFFFFFFFFFFFFF AND DUP2 MSTORE PUSH1 0x20 ADD SWAP1 DUP2 MSTORE PUSH1 0x20 ADD PUSH1 0x0 KECCAK256 PUSH1 0x0 PUSH2 0x100 EXP DUP2 SLOAD DUP2 PUSH1 0xFF MUL NOT AND SWAP1 DUP4 ISZERO ISZERO MUL OR SWAP1 SSTORE POP DUP2 PUSH20 0xFFFFFFFFFFFFFFFFFFFFFFFFFFFFFFFFFFFFFFFF AND DUP4 PUSH20 0xFFFFFFFFFFFFFFFFFFFFFFFFFFFFFFFFFFFFFFFF AND PUSH32 0x17307EAB39AB6107E8899845AD3D59BD9653F200F220920489CA2B5937696C31 DUP4 PUSH1 0x40 MLOAD PUSH2 0x16C6 SWAP2 SWAP1 PUSH2 0x2466 JUMP JUMPDEST PUSH1 0x40 MLOAD DUP1 SWAP2 SUB SWAP1 LOG3 POP POP POP JUMP JUMPDEST PUSH2 0x16DE DUP5 DUP5 DUP5 PUSH2 0x12FF JUMP JUMPDEST PUSH2 0x16EA DUP5 DUP5 DUP5 DUP5 PUSH2 0x18B1 JUMP JUMPDEST PUSH2 0x1729 JUMPI PUSH1 0x40 MLOAD PUSH32 0x8C379A000000000000000000000000000000000000000000000000000000000 DUP2 MSTORE PUSH1 0x4 ADD PUSH2 0x1720 SWAP1 PUSH2 0x24A3 JUMP JUMPDEST PUSH1 0x40 MLOAD DUP1 SWAP2 SUB SWAP1 REVERT JUMPDEST POP POP POP POP JUMP JUMPDEST PUSH1 0x60 PUSH1 0x40 MLOAD DUP1 PUSH1 0x20 ADD PUSH1 0x40 MSTORE DUP1 PUSH1 0x0 DUP2 MSTORE POP SWAP1 POP SWAP1 JUMP JUMPDEST PUSH1 0x60 PUSH1 0x0 DUP3 EQ ISZERO PUSH2 0x178E JUMPI PUSH1 0x40 MLOAD DUP1 PUSH1 0x40 ADD PUSH1 0x40 MSTORE DUP1 PUSH1 0x1 DUP2 MSTORE PUSH1 0x20 ADD PUSH32 0x3000000000000000000000000000000000000000000000000000000000000000 DUP2 MSTORE POP SWAP1 POP PUSH2 0x18A2 JUMP JUMPDEST PUSH1 0x0 DUP3 SWAP1 POP PUSH1 0x0 JUMPDEST PUSH1 0x0 DUP3 EQ PUSH2 0x17C0 JUMPI DUP1 DUP1 PUSH2 0x17A9 SWAP1 PUSH2 0x2A1D JUMP JUMPDEST SWAP2 POP POP PUSH1 0xA DUP3 PUSH2 0x17B9 SWAP2 SWAP1 PUSH2 0x289F JUMP JUMPDEST SWAP2 POP PUSH2 0x1796 JUMP JUMPDEST PUSH1 0x0 DUP2 PUSH8 0xFFFFFFFFFFFFFFFF DUP2 GT ISZERO PUSH2 0x17DC JUMPI PUSH2 0x17DB PUSH2 0x2B53 JUMP JUMPDEST JUMPDEST PUSH1 0x40 MLOAD SWAP1 DUP1 DUP3 MSTORE DUP1 PUSH1 0x1F ADD PUSH1 0x1F NOT AND PUSH1 0x20 ADD DUP3 ADD PUSH1 0x40 MSTORE DUP1 ISZERO PUSH2 0x180E JUMPI DUP2 PUSH1 0x20 ADD PUSH1 0x1 DUP3 MUL DUP1 CALLDATASIZE DUP4 CALLDATACOPY DUP1 DUP3 ADD SWAP2 POP POP SWAP1 POP JUMPDEST POP SWAP1 POP JUMPDEST PUSH1 0x0 DUP6 EQ PUSH2 0x189B JUMPI PUSH1 0x1 DUP3 PUSH2 0x1827 SWAP2 SWAP1 PUSH2 0x28D0 JUMP JUMPDEST SWAP2 POP PUSH1 0xA DUP6 PUSH2 0x1836 SWAP2 SWAP1 PUSH2 0x2A66 JUMP JUMPDEST PUSH1 0x30 PUSH2 0x1842 SWAP2 SWAP1 PUSH2 0x2849 JUMP JUMPDEST PUSH1 0xF8 SHL DUP2 DUP4 DUP2 MLOAD DUP2 LT PUSH2 0x1858 JUMPI PUSH2 0x1857 PUSH2 0x2B24 JUMP JUMPDEST JUMPDEST PUSH1 0x20 ADD ADD SWAP1 PUSH31 0xFFFFFFFFFFFFFFFFFFFFFFFFFFFFFFFFFFFFFFFFFFFFFFFFFFFFFFFFFFFFFF NOT AND SWAP1 DUP2 PUSH1 0x0 BYTE SWAP1 MSTORE8 POP PUSH1 0xA DUP6 PUSH2 0x1894 SWAP2 SWAP1 PUSH2 0x289F JUMP JUMPDEST SWAP5 POP PUSH2 0x1812 JUMP JUMPDEST DUP1 SWAP4 POP POP POP POP JUMPDEST SWAP2 SWAP1 POP JUMP JUMPDEST POP POP POP JUMP JUMPDEST POP POP POP JUMP JUMPDEST PUSH1 0x0 PUSH2 0x18D2 DUP5 PUSH20 0xFFFFFFFFFFFFFFFFFFFFFFFFFFFFFFFFFFFFFFFF AND PUSH2 0x1A48 JUMP JUMPDEST ISZERO PUSH2 0x1A3B JUMPI DUP4 PUSH20 0xFFFFFFFFFFFFFFFFFFFFFFFFFFFFFFFFFFFFFFFF AND PUSH4 0x150B7A02 PUSH2 0x18FB PUSH2 0x1160 JUMP JUMPDEST DUP8 DUP7 DUP7 PUSH1 0x40 MLOAD DUP6 PUSH4 0xFFFFFFFF AND PUSH1 0xE0 SHL DUP2 MSTORE PUSH1 0x4 ADD PUSH2 0x191D SWAP5 SWAP4 SWAP3 SWAP2 SWAP1 PUSH2 0x241A JUMP JUMPDEST PUSH1 0x20 PUSH1 0x40 MLOAD DUP1 DUP4 SUB DUP2 PUSH1 0x0 DUP8 DUP1 EXTCODESIZE ISZERO DUP1 ISZERO PUSH2 0x1937 JUMPI PUSH1 0x0 DUP1 REVERT JUMPDEST POP GAS CALL SWAP3 POP POP POP DUP1 ISZERO PUSH2 0x1968 JUMPI POP PUSH1 0x40 MLOAD RETURNDATASIZE PUSH1 0x1F NOT PUSH1 0x1F DUP3 ADD AND DUP3 ADD DUP1 PUSH1 0x40 MSTORE POP DUP2 ADD SWAP1 PUSH2 0x1965 SWAP2 SWAP1 PUSH2 0x1EC1 JUMP JUMPDEST PUSH1 0x1 JUMPDEST PUSH2 0x19EB JUMPI RETURNDATASIZE DUP1 PUSH1 0x0 DUP2 EQ PUSH2 0x1998 JUMPI PUSH1 0x40 MLOAD SWAP2 POP PUSH1 0x1F NOT PUSH1 0x3F RETURNDATASIZE ADD AND DUP3 ADD PUSH1 0x40 MSTORE RETURNDATASIZE DUP3 MSTORE RETURNDATASIZE PUSH1 0x0 PUSH1 0x20 DUP5 ADD RETURNDATACOPY PUSH2 0x199D JUMP JUMPDEST PUSH1 0x60 SWAP2 POP JUMPDEST POP PUSH1 0x0 DUP2 MLOAD EQ ISZERO PUSH2 0x19E3 JUMPI PUSH1 0x40 MLOAD PUSH32 0x8C379A000000000000000000000000000000000000000000000000000000000 DUP2 MSTORE PUSH1 0x4 ADD PUSH2 0x19DA SWAP1 PUSH2 0x24A3 JUMP JUMPDEST PUSH1 0x40 MLOAD DUP1 SWAP2 SUB SWAP1 REVERT JUMPDEST DUP1 MLOAD DUP2 PUSH1 0x20 ADD REVERT JUMPDEST PUSH4 0x150B7A02 PUSH1 0xE0 SHL PUSH28 0xFFFFFFFFFFFFFFFFFFFFFFFFFFFFFFFFFFFFFFFFFFFFFFFFFFFFFFFF NOT AND DUP2 PUSH28 0xFFFFFFFFFFFFFFFFFFFFFFFFFFFFFFFFFFFFFFFFFFFFFFFFFFFFFFFF NOT AND EQ SWAP2 POP POP PUSH2 0x1A40 JUMP JUMPDEST PUSH1 0x1 SWAP1 POP JUMPDEST SWAP5 SWAP4 POP POP POP POP JUMP JUMPDEST PUSH1 0x0 DUP1 DUP3 PUSH20 0xFFFFFFFFFFFFFFFFFFFFFFFFFFFFFFFFFFFFFFFF AND EXTCODESIZE GT SWAP1 POP SWAP2 SWAP1 POP JUMP JUMPDEST DUP3 DUP1 SLOAD PUSH2 0x1A77 SWAP1 PUSH2 0x29BA JUMP JUMPDEST SWAP1 PUSH1 0x0 MSTORE PUSH1 0x20 PUSH1 0x0 KECCAK256 SWAP1 PUSH1 0x1F ADD PUSH1 0x20 SWAP1 DIV DUP2 ADD SWAP3 DUP3 PUSH2 0x1A99 JUMPI PUSH1 0x0 DUP6 SSTORE PUSH2 0x1AE0 JUMP JUMPDEST DUP3 PUSH1 0x1F LT PUSH2 0x1AB2 JUMPI DUP1 MLOAD PUSH1 0xFF NOT AND DUP4 DUP1 ADD OR DUP6 SSTORE PUSH2 0x1AE0 JUMP JUMPDEST DUP3 DUP1 ADD PUSH1 0x1 ADD DUP6 SSTORE DUP3 ISZERO PUSH2 0x1AE0 JUMPI SWAP2 DUP3 ADD JUMPDEST DUP3 DUP2 GT ISZERO PUSH2 0x1ADF JUMPI DUP3 MLOAD DUP3 SSTORE SWAP2 PUSH1 0x20 ADD SWAP2 SWAP1 PUSH1 0x1 ADD SWAP1 PUSH2 0x1AC4 JUMP JUMPDEST JUMPDEST POP SWAP1 POP PUSH2 0x1AED SWAP2 SWAP1 PUSH2 0x1B6B JUMP JUMPDEST POP SWAP1 JUMP JUMPDEST PUSH1 0x40 MLOAD DUP1 PUSH2 0x120 ADD PUSH1 0x40 MSTORE DUP1 PUSH1 0x0 DUP2 MSTORE PUSH1 0x20 ADD PUSH1 0x0 DUP2 MSTORE PUSH1 0x20 ADD PUSH1 0x0 DUP2 MSTORE PUSH1 0x20 ADD PUSH1 0x0 DUP2 MSTORE PUSH1 0x20 ADD PUSH1 0x0 DUP2 MSTORE PUSH1 0x20 ADD PUSH1 0x0 PUSH20 0xFFFFFFFFFFFFFFFFFFFFFFFFFFFFFFFFFFFFFFFF AND DUP2 MSTORE PUSH1 0x20 ADD PUSH1 0x0 PUSH20 0xFFFFFFFFFFFFFFFFFFFFFFFFFFFFFFFFFFFFFFFF AND DUP2 MSTORE PUSH1 0x20 ADD PUSH1 0x60 DUP2 MSTORE PUSH1 0x20 ADD PUSH1 0x0 ISZERO ISZERO DUP2 MSTORE POP SWAP1 JUMP JUMPDEST JUMPDEST DUP1 DUP3 GT ISZERO PUSH2 0x1B84 JUMPI PUSH1 0x0 DUP2 PUSH1 0x0 SWAP1 SSTORE POP PUSH1 0x1 ADD PUSH2 0x1B6C JUMP JUMPDEST POP SWAP1 JUMP JUMPDEST PUSH1 0x0 PUSH2 0x1B9B PUSH2 0x1B96 DUP5 PUSH2 0x2793 JUMP JUMPDEST PUSH2 0x276E JUMP JUMPDEST SWAP1 POP DUP3 DUP2 MSTORE PUSH1 0x20 DUP2 ADD DUP5 DUP5 DUP5 ADD GT ISZERO PUSH2 0x1BB7 JUMPI PUSH2 0x1BB6 PUSH2 0x2B87 JUMP JUMPDEST JUMPDEST PUSH2 0x1BC2 DUP5 DUP3 DUP6 PUSH2 0x2978 JUMP JUMPDEST POP SWAP4 SWAP3 POP POP POP JUMP JUMPDEST PUSH1 0x0 PUSH2 0x1BDD PUSH2 0x1BD8 DUP5 PUSH2 0x27C4 JUMP JUMPDEST PUSH2 0x276E JUMP JUMPDEST SWAP1 POP DUP3 DUP2 MSTORE PUSH1 0x20 DUP2 ADD DUP5 DUP5 DUP5 ADD GT ISZERO PUSH2 0x1BF9 JUMPI PUSH2 0x1BF8 PUSH2 0x2B87 JUMP JUMPDEST JUMPDEST PUSH2 0x1C04 DUP5 DUP3 DUP6 PUSH2 0x2978 JUMP JUMPDEST POP SWAP4 SWAP3 POP POP POP JUMP JUMPDEST PUSH1 0x0 DUP2 CALLDATALOAD SWAP1 POP PUSH2 0x1C1B DUP2 PUSH2 0x2F5E JUMP JUMPDEST SWAP3 SWAP2 POP POP JUMP JUMPDEST PUSH1 0x0 DUP2 CALLDATALOAD SWAP1 POP PUSH2 0x1C30 DUP2 PUSH2 0x2F75 JUMP JUMPDEST SWAP3 SWAP2 POP POP JUMP JUMPDEST PUSH1 0x0 DUP2 CALLDATALOAD SWAP1 POP PUSH2 0x1C45 DUP2 PUSH2 0x2F8C JUMP JUMPDEST SWAP3 SWAP2 POP POP JUMP JUMPDEST PUSH1 0x0 DUP2 MLOAD SWAP1 POP PUSH2 0x1C5A DUP2 PUSH2 0x2F8C JUMP JUMPDEST SWAP3 SWAP2 POP POP JUMP JUMPDEST PUSH1 0x0 DUP3 PUSH1 0x1F DUP4 ADD SLT PUSH2 0x1C75 JUMPI PUSH2 0x1C74 PUSH2 0x2B82 JUMP JUMPDEST JUMPDEST DUP2 CALLDATALOAD PUSH2 0x1C85 DUP5 DUP3 PUSH1 0x20 DUP7 ADD PUSH2 0x1B88 JUMP JUMPDEST SWAP2 POP POP SWAP3 SWAP2 POP POP JUMP JUMPDEST PUSH1 0x0 DUP3 PUSH1 0x1F DUP4 ADD SLT PUSH2 0x1CA3 JUMPI PUSH2 0x1CA2 PUSH2 0x2B82 JUMP JUMPDEST JUMPDEST DUP2 CALLDATALOAD PUSH2 0x1CB3 DUP5 DUP3 PUSH1 0x20 DUP7 ADD PUSH2 0x1BCA JUMP JUMPDEST SWAP2 POP POP SWAP3 SWAP2 POP POP JUMP JUMPDEST PUSH1 0x0 DUP2 CALLDATALOAD SWAP1 POP PUSH2 0x1CCB DUP2 PUSH2 0x2FA3 JUMP JUMPDEST SWAP3 SWAP2 POP POP JUMP JUMPDEST PUSH1 0x0 PUSH1 0x20 DUP3 DUP5 SUB SLT ISZERO PUSH2 0x1CE7 JUMPI PUSH2 0x1CE6 PUSH2 0x2B91 JUMP JUMPDEST JUMPDEST PUSH1 0x0 PUSH2 0x1CF5 DUP5 DUP3 DUP6 ADD PUSH2 0x1C0C JUMP JUMPDEST SWAP2 POP POP SWAP3 SWAP2 POP POP JUMP JUMPDEST PUSH1 0x0 DUP1 PUSH1 0x40 DUP4 DUP6 SUB SLT ISZERO PUSH2 0x1D15 JUMPI PUSH2 0x1D14 PUSH2 0x2B91 JUMP JUMPDEST JUMPDEST PUSH1 0x0 PUSH2 0x1D23 DUP6 DUP3 DUP7 ADD PUSH2 0x1C0C JUMP JUMPDEST SWAP3 POP POP PUSH1 0x20 PUSH2 0x1D34 DUP6 DUP3 DUP7 ADD PUSH2 0x1C0C JUMP JUMPDEST SWAP2 POP POP SWAP3 POP SWAP3 SWAP1 POP JUMP JUMPDEST PUSH1 0x0 DUP1 PUSH1 0x0 PUSH1 0x60 DUP5 DUP7 SUB SLT ISZERO PUSH2 0x1D57 JUMPI PUSH2 0x1D56 PUSH2 0x2B91 JUMP JUMPDEST JUMPDEST PUSH1 0x0 PUSH2 0x1D65 DUP7 DUP3 DUP8 ADD PUSH2 0x1C0C JUMP JUMPDEST SWAP4 POP POP PUSH1 0x20 PUSH2 0x1D76 DUP7 DUP3 DUP8 ADD PUSH2 0x1C0C JUMP JUMPDEST SWAP3 POP POP PUSH1 0x40 PUSH2 0x1D87 DUP7 DUP3 DUP8 ADD PUSH2 0x1CBC JUMP JUMPDEST SWAP2 POP POP SWAP3 POP SWAP3 POP SWAP3 JUMP JUMPDEST PUSH1 0x0 DUP1 PUSH1 0x0 DUP1 PUSH1 0x80 DUP6 DUP8 SUB SLT ISZERO PUSH2 0x1DAB JUMPI PUSH2 0x1DAA PUSH2 0x2B91 JUMP JUMPDEST JUMPDEST PUSH1 0x0 PUSH2 0x1DB9 DUP8 DUP3 DUP9 ADD PUSH2 0x1C0C JUMP JUMPDEST SWAP5 POP POP PUSH1 0x20 PUSH2 0x1DCA DUP8 DUP3 DUP9 ADD PUSH2 0x1C0C JUMP JUMPDEST SWAP4 POP POP PUSH1 0x40 PUSH2 0x1DDB DUP8 DUP3 DUP9 ADD PUSH2 0x1CBC JUMP JUMPDEST SWAP3 POP POP PUSH1 0x60 DUP6 ADD CALLDATALOAD PUSH8 0xFFFFFFFFFFFFFFFF DUP2 GT ISZERO PUSH2 0x1DFC JUMPI PUSH2 0x1DFB PUSH2 0x2B8C JUMP JUMPDEST JUMPDEST PUSH2 0x1E08 DUP8 DUP3 DUP9 ADD PUSH2 0x1C60 JUMP JUMPDEST SWAP2 POP POP SWAP3 SWAP6 SWAP2 SWAP5 POP SWAP3 POP JUMP JUMPDEST PUSH1 0x0 DUP1 PUSH1 0x40 DUP4 DUP6 SUB SLT ISZERO PUSH2 0x1E2B JUMPI PUSH2 0x1E2A PUSH2 0x2B91 JUMP JUMPDEST JUMPDEST PUSH1 0x0 PUSH2 0x1E39 DUP6 DUP3 DUP7 ADD PUSH2 0x1C0C JUMP JUMPDEST SWAP3 POP POP PUSH1 0x20 PUSH2 0x1E4A DUP6 DUP3 DUP7 ADD PUSH2 0x1C21 JUMP JUMPDEST SWAP2 POP POP SWAP3 POP SWAP3 SWAP1 POP JUMP JUMPDEST PUSH1 0x0 DUP1 PUSH1 0x40 DUP4 DUP6 SUB SLT ISZERO PUSH2 0x1E6B JUMPI PUSH2 0x1E6A PUSH2 0x2B91 JUMP JUMPDEST JUMPDEST PUSH1 0x0 PUSH2 0x1E79 DUP6 DUP3 DUP7 ADD PUSH2 0x1C0C JUMP JUMPDEST SWAP3 POP POP PUSH1 0x20 PUSH2 0x1E8A DUP6 DUP3 DUP7 ADD PUSH2 0x1CBC JUMP JUMPDEST SWAP2 POP POP SWAP3 POP SWAP3 SWAP1 POP JUMP JUMPDEST PUSH1 0x0 PUSH1 0x20 DUP3 DUP5 SUB SLT ISZERO PUSH2 0x1EAA JUMPI PUSH2 0x1EA9 PUSH2 0x2B91 JUMP JUMPDEST JUMPDEST PUSH1 0x0 PUSH2 0x1EB8 DUP5 DUP3 DUP6 ADD PUSH2 0x1C36 JUMP JUMPDEST SWAP2 POP POP SWAP3 SWAP2 POP POP JUMP JUMPDEST PUSH1 0x0 PUSH1 0x20 DUP3 DUP5 SUB SLT ISZERO PUSH2 0x1ED7 JUMPI PUSH2 0x1ED6 PUSH2 0x2B91 JUMP JUMPDEST JUMPDEST PUSH1 0x0 PUSH2 0x1EE5 DUP5 DUP3 DUP6 ADD PUSH2 0x1C4B JUMP JUMPDEST SWAP2 POP POP SWAP3 SWAP2 POP POP JUMP JUMPDEST PUSH1 0x0 PUSH1 0x20 DUP3 DUP5 SUB SLT ISZERO PUSH2 0x1F04 JUMPI PUSH2 0x1F03 PUSH2 0x2B91 JUMP JUMPDEST JUMPDEST PUSH1 0x0 PUSH2 0x1F12 DUP5 DUP3 DUP6 ADD PUSH2 0x1CBC JUMP JUMPDEST SWAP2 POP POP SWAP3 SWAP2 POP POP JUMP JUMPDEST PUSH1 0x0 DUP1 PUSH1 0x40 DUP4 DUP6 SUB SLT ISZERO PUSH2 0x1F32 JUMPI PUSH2 0x1F31 PUSH2 0x2B91 JUMP JUMPDEST JUMPDEST PUSH1 0x0 PUSH2 0x1F40 DUP6 DUP3 DUP7 ADD PUSH2 0x1CBC JUMP JUMPDEST SWAP3 POP POP PUSH1 0x20 PUSH2 0x1F51 DUP6 DUP3 DUP7 ADD PUSH2 0x1C0C JUMP JUMPDEST SWAP2 POP POP SWAP3 POP SWAP3 SWAP1 POP JUMP JUMPDEST PUSH1 0x0 DUP1 PUSH1 0x0 DUP1 PUSH1 0x0 DUP1 PUSH1 0x0 PUSH1 0xE0 DUP9 DUP11 SUB SLT ISZERO PUSH2 0x1F7A JUMPI PUSH2 0x1F79 PUSH2 0x2B91 JUMP JUMPDEST JUMPDEST PUSH1 0x0 PUSH2 0x1F88 DUP11 DUP3 DUP12 ADD PUSH2 0x1CBC JUMP JUMPDEST SWAP8 POP POP PUSH1 0x20 PUSH2 0x1F99 DUP11 DUP3 DUP12 ADD PUSH2 0x1CBC JUMP JUMPDEST SWAP7 POP POP PUSH1 0x40 PUSH2 0x1FAA DUP11 DUP3 DUP12 ADD PUSH2 0x1CBC JUMP JUMPDEST SWAP6 POP POP PUSH1 0x60 PUSH2 0x1FBB DUP11 DUP3 DUP12 ADD PUSH2 0x1CBC JUMP JUMPDEST SWAP5 POP POP PUSH1 0x80 PUSH2 0x1FCC DUP11 DUP3 DUP12 ADD PUSH2 0x1CBC JUMP JUMPDEST SWAP4 POP POP PUSH1 0xA0 PUSH2 0x1FDD DUP11 DUP3 DUP12 ADD PUSH2 0x1C0C JUMP JUMPDEST SWAP3 POP POP PUSH1 0xC0 DUP9 ADD CALLDATALOAD PUSH8 0xFFFFFFFFFFFFFFFF DUP2 GT ISZERO PUSH2 0x1FFE JUMPI PUSH2 0x1FFD PUSH2 0x2B8C JUMP JUMPDEST JUMPDEST PUSH2 0x200A DUP11 DUP3 DUP12 ADD PUSH2 0x1C8E JUMP JUMPDEST SWAP2 POP POP SWAP3 SWAP6 SWAP9 SWAP2 SWAP5 SWAP8 POP SWAP3 SWAP6 POP JUMP JUMPDEST PUSH2 0x2022 DUP2 PUSH2 0x2904 JUMP JUMPDEST DUP3 MSTORE POP POP JUMP JUMPDEST PUSH2 0x2031 DUP2 PUSH2 0x2904 JUMP JUMPDEST DUP3 MSTORE POP POP JUMP JUMPDEST PUSH2 0x2040 DUP2 PUSH2 0x2916 JUMP JUMPDEST DUP3 MSTORE POP POP JUMP JUMPDEST PUSH2 0x204F DUP2 PUSH2 0x2916 JUMP JUMPDEST DUP3 MSTORE POP POP JUMP JUMPDEST PUSH1 0x0 PUSH2 0x2060 DUP3 PUSH2 0x27F5 JUMP JUMPDEST PUSH2 0x206A DUP2 DUP6 PUSH2 0x280B JUMP JUMPDEST SWAP4 POP PUSH2 0x207A DUP2 DUP6 PUSH1 0x20 DUP7 ADD PUSH2 0x2987 JUMP JUMPDEST PUSH2 0x2083 DUP2 PUSH2 0x2B96 JUMP JUMPDEST DUP5 ADD SWAP2 POP POP SWAP3 SWAP2 POP POP JUMP JUMPDEST PUSH1 0x0 PUSH2 0x2099 DUP3 PUSH2 0x2800 JUMP JUMPDEST PUSH2 0x20A3 DUP2 DUP6 PUSH2 0x281C JUMP JUMPDEST SWAP4 POP PUSH2 0x20B3 DUP2 DUP6 PUSH1 0x20 DUP7 ADD PUSH2 0x2987 JUMP JUMPDEST PUSH2 0x20BC DUP2 PUSH2 0x2B96 JUMP JUMPDEST DUP5 ADD SWAP2 POP POP SWAP3 SWAP2 POP POP JUMP JUMPDEST PUSH1 0x0 PUSH2 0x20D2 DUP3 PUSH2 0x2800 JUMP JUMPDEST PUSH2 0x20DC DUP2 DUP6 PUSH2 0x282D JUMP JUMPDEST SWAP4 POP PUSH2 0x20EC DUP2 DUP6 PUSH1 0x20 DUP7 ADD PUSH2 0x2987 JUMP JUMPDEST PUSH2 0x20F5 DUP2 PUSH2 0x2B96 JUMP JUMPDEST DUP5 ADD SWAP2 POP POP SWAP3 SWAP2 POP POP JUMP JUMPDEST PUSH1 0x0 PUSH2 0x210B DUP3 PUSH2 0x2800 JUMP JUMPDEST PUSH2 0x2115 DUP2 DUP6 PUSH2 0x283E JUMP JUMPDEST SWAP4 POP PUSH2 0x2125 DUP2 DUP6 PUSH1 0x20 DUP7 ADD PUSH2 0x2987 JUMP JUMPDEST DUP1 DUP5 ADD SWAP2 POP POP SWAP3 SWAP2 POP POP JUMP JUMPDEST PUSH1 0x0 PUSH2 0x213E PUSH1 0x32 DUP4 PUSH2 0x282D JUMP JUMPDEST SWAP2 POP PUSH2 0x2149 DUP3 PUSH2 0x2BA7 JUMP JUMPDEST PUSH1 0x40 DUP3 ADD SWAP1 POP SWAP2 SWAP1 POP JUMP JUMPDEST PUSH1 0x0 PUSH2 0x2161 PUSH1 0x25 DUP4 PUSH2 0x282D JUMP JUMPDEST SWAP2 POP PUSH2 0x216C DUP3 PUSH2 0x2BF6 JUMP JUMPDEST PUSH1 0x40 DUP3 ADD SWAP1 POP SWAP2 SWAP1 POP JUMP JUMPDEST PUSH1 0x0 PUSH2 0x2184 PUSH1 0x24 DUP4 PUSH2 0x282D JUMP JUMPDEST SWAP2 POP PUSH2 0x218F DUP3 PUSH2 0x2C45 JUMP JUMPDEST PUSH1 0x40 DUP3 ADD SWAP1 POP SWAP2 SWAP1 POP JUMP JUMPDEST PUSH1 0x0 PUSH2 0x21A7 PUSH1 0x19 DUP4 PUSH2 0x282D JUMP JUMPDEST SWAP2 POP PUSH2 0x21B2 DUP3 PUSH2 0x2C94 JUMP JUMPDEST PUSH1 0x20 DUP3 ADD SWAP1 POP SWAP2 SWAP1 POP JUMP JUMPDEST PUSH1 0x0 PUSH2 0x21CA PUSH1 0x2C DUP4 PUSH2 0x282D JUMP JUMPDEST SWAP2 POP PUSH2 0x21D5 DUP3 PUSH2 0x2CBD JUMP JUMPDEST PUSH1 0x40 DUP3 ADD SWAP1 POP SWAP2 SWAP1 POP JUMP JUMPDEST PUSH1 0x0 PUSH2 0x21ED PUSH1 0x29 DUP4 PUSH2 0x282D JUMP JUMPDEST SWAP2 POP PUSH2 0x21F8 DUP3 PUSH2 0x2D0C JUMP JUMPDEST PUSH1 0x40 DUP3 ADD SWAP1 POP SWAP2 SWAP1 POP JUMP JUMPDEST PUSH1 0x0 PUSH2 0x2210 PUSH1 0x38 DUP4 PUSH2 0x282D JUMP JUMPDEST SWAP2 POP PUSH2 0x221B DUP3 PUSH2 0x2D5B JUMP JUMPDEST PUSH1 0x40 DUP3 ADD SWAP1 POP SWAP2 SWAP1 POP JUMP JUMPDEST PUSH1 0x0 PUSH2 0x2233 PUSH1 0x29 DUP4 PUSH2 0x282D JUMP JUMPDEST SWAP2 POP PUSH2 0x223E DUP3 PUSH2 0x2DAA JUMP JUMPDEST PUSH1 0x40 DUP3 ADD SWAP1 POP SWAP2 SWAP1 POP JUMP JUMPDEST PUSH1 0x0 PUSH2 0x2256 PUSH1 0x2C DUP4 PUSH2 0x282D JUMP JUMPDEST SWAP2 POP PUSH2 0x2261 DUP3 PUSH2 0x2DF9 JUMP JUMPDEST PUSH1 0x40 DUP3 ADD SWAP1 POP SWAP2 SWAP1 POP JUMP JUMPDEST PUSH1 0x0 PUSH2 0x2279 PUSH1 0x2F DUP4 PUSH2 0x282D JUMP JUMPDEST SWAP2 POP PUSH2 0x2284 DUP3 PUSH2 0x2E48 JUMP JUMPDEST PUSH1 0x40 DUP3 ADD SWAP1 POP SWAP2 SWAP1 POP JUMP JUMPDEST PUSH1 0x0 PUSH2 0x229C PUSH1 0x1B DUP4 PUSH2 0x282D JUMP JUMPDEST SWAP2 POP PUSH2 0x22A7 DUP3 PUSH2 0x2E97 JUMP JUMPDEST PUSH1 0x20 DUP3 ADD SWAP1 POP SWAP2 SWAP1 POP JUMP JUMPDEST PUSH1 0x0 PUSH2 0x22BF PUSH1 0x21 DUP4 PUSH2 0x282D JUMP JUMPDEST SWAP2 POP PUSH2 0x22CA DUP3 PUSH2 0x2EC0 JUMP JUMPDEST PUSH1 0x40 DUP3 ADD SWAP1 POP SWAP2 SWAP1 POP JUMP JUMPDEST PUSH1 0x0 PUSH2 0x22E2 PUSH1 0x31 DUP4 PUSH2 0x282D JUMP JUMPDEST SWAP2 POP PUSH2 0x22ED DUP3 PUSH2 0x2F0F JUMP JUMPDEST PUSH1 0x40 DUP3 ADD SWAP1 POP SWAP2 SWAP1 POP JUMP JUMPDEST PUSH1 0x0 PUSH2 0x120 DUP4 ADD PUSH1 0x0 DUP4 ADD MLOAD PUSH2 0x2311 PUSH1 0x0 DUP7 ADD DUP3 PUSH2 0x23BD JUMP JUMPDEST POP PUSH1 0x20 DUP4 ADD MLOAD PUSH2 0x2324 PUSH1 0x20 DUP7 ADD DUP3 PUSH2 0x23BD JUMP JUMPDEST POP PUSH1 0x40 DUP4 ADD MLOAD PUSH2 0x2337 PUSH1 0x40 DUP7 ADD DUP3 PUSH2 0x23BD JUMP JUMPDEST POP PUSH1 0x60 DUP4 ADD MLOAD PUSH2 0x234A PUSH1 0x60 DUP7 ADD DUP3 PUSH2 0x23BD JUMP JUMPDEST POP PUSH1 0x80 DUP4 ADD MLOAD PUSH2 0x235D PUSH1 0x80 DUP7 ADD DUP3 PUSH2 0x23BD JUMP JUMPDEST POP PUSH1 0xA0 DUP4 ADD MLOAD PUSH2 0x2370 PUSH1 0xA0 DUP7 ADD DUP3 PUSH2 0x2019 JUMP JUMPDEST POP PUSH1 0xC0 DUP4 ADD MLOAD PUSH2 0x2383 PUSH1 0xC0 DUP7 ADD DUP3 PUSH2 0x2019 JUMP JUMPDEST POP PUSH1 0xE0 DUP4 ADD MLOAD DUP5 DUP3 SUB PUSH1 0xE0 DUP7 ADD MSTORE PUSH2 0x239B DUP3 DUP3 PUSH2 0x208E JUMP JUMPDEST SWAP2 POP POP PUSH2 0x100 DUP4 ADD MLOAD PUSH2 0x23B2 PUSH2 0x100 DUP7 ADD DUP3 PUSH2 0x2037 JUMP JUMPDEST POP DUP1 SWAP2 POP POP SWAP3 SWAP2 POP POP JUMP JUMPDEST PUSH2 0x23C6 DUP2 PUSH2 0x296E JUMP JUMPDEST DUP3 MSTORE POP POP JUMP JUMPDEST PUSH2 0x23D5 DUP2 PUSH2 0x296E JUMP JUMPDEST DUP3 MSTORE POP POP JUMP JUMPDEST PUSH1 0x0 PUSH2 0x23E7 DUP3 DUP6 PUSH2 0x2100 JUMP JUMPDEST SWAP2 POP PUSH2 0x23F3 DUP3 DUP5 PUSH2 0x2100 JUMP JUMPDEST SWAP2 POP DUP2 SWAP1 POP SWAP4 SWAP3 POP POP POP JUMP JUMPDEST PUSH1 0x0 PUSH1 0x20 DUP3 ADD SWAP1 POP PUSH2 0x2414 PUSH1 0x0 DUP4 ADD DUP5 PUSH2 0x2028 JUMP JUMPDEST SWAP3 SWAP2 POP POP JUMP JUMPDEST PUSH1 0x0 PUSH1 0x80 DUP3 ADD SWAP1 POP PUSH2 0x242F PUSH1 0x0 DUP4 ADD DUP8 PUSH2 0x2028 JUMP JUMPDEST PUSH2 0x243C PUSH1 0x20 DUP4 ADD DUP7 PUSH2 0x2028 JUMP JUMPDEST PUSH2 0x2449 PUSH1 0x40 DUP4 ADD DUP6 PUSH2 0x23CC JUMP JUMPDEST DUP2 DUP2 SUB PUSH1 0x60 DUP4 ADD MSTORE PUSH2 0x245B DUP2 DUP5 PUSH2 0x2055 JUMP JUMPDEST SWAP1 POP SWAP6 SWAP5 POP POP POP POP POP JUMP JUMPDEST PUSH1 0x0 PUSH1 0x20 DUP3 ADD SWAP1 POP PUSH2 0x247B PUSH1 0x0 DUP4 ADD DUP5 PUSH2 0x2046 JUMP JUMPDEST SWAP3 SWAP2 POP POP JUMP JUMPDEST PUSH1 0x0 PUSH1 0x20 DUP3 ADD SWAP1 POP DUP2 DUP2 SUB PUSH1 0x0 DUP4 ADD MSTORE PUSH2 0x249B DUP2 DUP5 PUSH2 0x20C7 JUMP JUMPDEST SWAP1 POP SWAP3 SWAP2 POP POP JUMP JUMPDEST PUSH1 0x0 PUSH1 0x20 DUP3 ADD SWAP1 POP DUP2 DUP2 SUB PUSH1 0x0 DUP4 ADD MSTORE PUSH2 0x24BC DUP2 PUSH2 0x2131 JUMP JUMPDEST SWAP1 POP SWAP2 SWAP1 POP JUMP JUMPDEST PUSH1 0x0 PUSH1 0x20 DUP3 ADD SWAP1 POP DUP2 DUP2 SUB PUSH1 0x0 DUP4 ADD MSTORE PUSH2 0x24DC DUP2 PUSH2 0x2154 JUMP JUMPDEST SWAP1 POP SWAP2 SWAP1 POP JUMP JUMPDEST PUSH1 0x0 PUSH1 0x20 DUP3 ADD SWAP1 POP DUP2 DUP2 SUB PUSH1 0x0 DUP4 ADD MSTORE PUSH2 0x24FC DUP2 PUSH2 0x2177 JUMP JUMPDEST SWAP1 POP SWAP2 SWAP1 POP JUMP JUMPDEST PUSH1 0x0 PUSH1 0x20 DUP3 ADD SWAP1 POP DUP2 DUP2 SUB PUSH1 0x0 DUP4 ADD MSTORE PUSH2 0x251C DUP2 PUSH2 0x219A JUMP JUMPDEST SWAP1 POP SWAP2 SWAP1 POP JUMP JUMPDEST PUSH1 0x0 PUSH1 0x20 DUP3 ADD SWAP1 POP DUP2 DUP2 SUB PUSH1 0x0 DUP4 ADD MSTORE PUSH2 0x253C DUP2 PUSH2 0x21BD JUMP JUMPDEST SWAP1 POP SWAP2 SWAP1 POP JUMP JUMPDEST PUSH1 0x0 PUSH1 0x20 DUP3 ADD SWAP1 POP DUP2 DUP2 SUB PUSH1 0x0 DUP4 ADD MSTORE PUSH2 0x255C DUP2 PUSH2 0x21E0 JUMP JUMPDEST SWAP1 POP SWAP2 SWAP1 POP JUMP JUMPDEST PUSH1 0x0 PUSH1 0x20 DUP3 ADD SWAP1 POP DUP2 DUP2 SUB PUSH1 0x0 DUP4 ADD MSTORE PUSH2 0x257C DUP2 PUSH2 0x2203 JUMP JUMPDEST SWAP1 POP SWAP2 SWAP1 POP JUMP JUMPDEST PUSH1 0x0 PUSH1 0x20 DUP3 ADD SWAP1 POP DUP2 DUP2 SUB PUSH1 0x0 DUP4 ADD MSTORE PUSH2 0x259C DUP2 PUSH2 0x2226 JUMP JUMPDEST SWAP1 POP SWAP2 SWAP1 POP JUMP JUMPDEST PUSH1 0x0 PUSH1 0x20 DUP3 ADD SWAP1 POP DUP2 DUP2 SUB PUSH1 0x0 DUP4 ADD MSTORE PUSH2 0x25BC DUP2 PUSH2 0x2249 JUMP JUMPDEST SWAP1 POP SWAP2 SWAP1 POP JUMP JUMPDEST PUSH1 0x0 PUSH1 0x20 DUP3 ADD SWAP1 POP DUP2 DUP2 SUB PUSH1 0x0 DUP4 ADD MSTORE PUSH2 0x25DC DUP2 PUSH2 0x226C JUMP JUMPDEST SWAP1 POP SWAP2 SWAP1 POP JUMP JUMPDEST PUSH1 0x0 PUSH1 0x20 DUP3 ADD SWAP1 POP DUP2 DUP2 SUB PUSH1 0x0 DUP4 ADD MSTORE PUSH2 0x25FC DUP2 PUSH2 0x228F JUMP JUMPDEST SWAP1 POP SWAP2 SWAP1 POP JUMP JUMPDEST PUSH1 0x0 PUSH1 0x20 DUP3 ADD SWAP1 POP DUP2 DUP2 SUB PUSH1 0x0 DUP4 ADD MSTORE PUSH2 0x261C DUP2 PUSH2 0x22B2 JUMP JUMPDEST SWAP1 POP SWAP2 SWAP1 POP JUMP JUMPDEST PUSH1 0x0 PUSH1 0x20 DUP3 ADD SWAP1 POP DUP2 DUP2 SUB PUSH1 0x0 DUP4 ADD MSTORE PUSH2 0x263C DUP2 PUSH2 0x22D5 JUMP JUMPDEST SWAP1 POP SWAP2 SWAP1 POP JUMP JUMPDEST PUSH1 0x0 PUSH1 0x20 DUP3 ADD SWAP1 POP DUP2 DUP2 SUB PUSH1 0x0 DUP4 ADD MSTORE PUSH2 0x265D DUP2 DUP5 PUSH2 0x22F8 JUMP JUMPDEST SWAP1 POP SWAP3 SWAP2 POP POP JUMP JUMPDEST PUSH1 0x0 PUSH1 0x20 DUP3 ADD SWAP1 POP PUSH2 0x267A PUSH1 0x0 DUP4 ADD DUP5 PUSH2 0x23CC JUMP JUMPDEST SWAP3 SWAP2 POP POP JUMP JUMPDEST PUSH1 0x0 PUSH1 0xA0 DUP3 ADD SWAP1 POP PUSH2 0x2695 PUSH1 0x0 DUP4 ADD DUP9 PUSH2 0x23CC JUMP JUMPDEST PUSH2 0x26A2 PUSH1 0x20 DUP4 ADD DUP8 PUSH2 0x23CC JUMP JUMPDEST PUSH2 0x26AF PUSH1 0x40 DUP4 ADD DUP7 PUSH2 0x23CC JUMP JUMPDEST PUSH2 0x26BC PUSH1 0x60 DUP4 ADD DUP6 PUSH2 0x23CC JUMP JUMPDEST DUP2 DUP2 SUB PUSH1 0x80 DUP4 ADD MSTORE PUSH2 0x26CE DUP2 DUP5 PUSH2 0x20C7 JUMP JUMPDEST SWAP1 POP SWAP7 SWAP6 POP POP POP POP POP POP JUMP JUMPDEST PUSH1 0x0 PUSH2 0x120 DUP3 ADD SWAP1 POP PUSH2 0x26F0 PUSH1 0x0 DUP4 ADD DUP13 PUSH2 0x23CC JUMP JUMPDEST PUSH2 0x26FD PUSH1 0x20 DUP4 ADD DUP12 PUSH2 0x23CC JUMP JUMPDEST PUSH2 0x270A PUSH1 0x40 DUP4 ADD DUP11 PUSH2 0x23CC JUMP JUMPDEST PUSH2 0x2717 PUSH1 0x60 DUP4 ADD DUP10 PUSH2 0x23CC JUMP JUMPDEST PUSH2 0x2724 PUSH1 0x80 DUP4 ADD DUP9 PUSH2 0x23CC JUMP JUMPDEST PUSH2 0x2731 PUSH1 0xA0 DUP4 ADD DUP8 PUSH2 0x2028 JUMP JUMPDEST PUSH2 0x273E PUSH1 0xC0 DUP4 ADD DUP7 PUSH2 0x2028 JUMP JUMPDEST DUP2 DUP2 SUB PUSH1 0xE0 DUP4 ADD MSTORE PUSH2 0x2750 DUP2 DUP6 PUSH2 0x20C7 JUMP JUMPDEST SWAP1 POP PUSH2 0x2760 PUSH2 0x100 DUP4 ADD DUP5 PUSH2 0x2046 JUMP JUMPDEST SWAP11 SWAP10 POP POP POP POP POP POP POP POP POP POP JUMP JUMPDEST PUSH1 0x0 PUSH2 0x2778 PUSH2 0x2789 JUMP JUMPDEST SWAP1 POP PUSH2 0x2784 DUP3 DUP3 PUSH2 0x29EC JUMP JUMPDEST SWAP2 SWAP1 POP JUMP JUMPDEST PUSH1 0x0 PUSH1 0x40 MLOAD SWAP1 POP SWAP1 JUMP JUMPDEST PUSH1 0x0 PUSH8 0xFFFFFFFFFFFFFFFF DUP3 GT ISZERO PUSH2 0x27AE JUMPI PUSH2 0x27AD PUSH2 0x2B53 JUMP JUMPDEST JUMPDEST PUSH2 0x27B7 DUP3 PUSH2 0x2B96 JUMP JUMPDEST SWAP1 POP PUSH1 0x20 DUP2 ADD SWAP1 POP SWAP2 SWAP1 POP JUMP JUMPDEST PUSH1 0x0 PUSH8 0xFFFFFFFFFFFFFFFF DUP3 GT ISZERO PUSH2 0x27DF JUMPI PUSH2 0x27DE PUSH2 0x2B53 JUMP JUMPDEST JUMPDEST PUSH2 0x27E8 DUP3 PUSH2 0x2B96 JUMP JUMPDEST SWAP1 POP PUSH1 0x20 DUP2 ADD SWAP1 POP SWAP2 SWAP1 POP JUMP JUMPDEST PUSH1 0x0 DUP2 MLOAD SWAP1 POP SWAP2 SWAP1 POP JUMP JUMPDEST PUSH1 0x0 DUP2 MLOAD SWAP1 POP SWAP2 SWAP1 POP JUMP JUMPDEST PUSH1 0x0 DUP3 DUP3 MSTORE PUSH1 0x20 DUP3 ADD SWAP1 POP SWAP3 SWAP2 POP POP JUMP JUMPDEST PUSH1 0x0 DUP3 DUP3 MSTORE PUSH1 0x20 DUP3 ADD SWAP1 POP SWAP3 SWAP2 POP POP JUMP JUMPDEST PUSH1 0x0 DUP3 DUP3 MSTORE PUSH1 0x20 DUP3 ADD SWAP1 POP SWAP3 SWAP2 POP POP JUMP JUMPDEST PUSH1 0x0 DUP2 SWAP1 POP SWAP3 SWAP2 POP POP JUMP JUMPDEST PUSH1 0x0 PUSH2 0x2854 DUP3 PUSH2 0x296E JUMP JUMPDEST SWAP2 POP PUSH2 0x285F DUP4 PUSH2 0x296E JUMP JUMPDEST SWAP3 POP DUP3 PUSH32 0xFFFFFFFFFFFFFFFFFFFFFFFFFFFFFFFFFFFFFFFFFFFFFFFFFFFFFFFFFFFFFFFF SUB DUP3 GT ISZERO PUSH2 0x2894 JUMPI PUSH2 0x2893 PUSH2 0x2A97 JUMP JUMPDEST JUMPDEST DUP3 DUP3 ADD SWAP1 POP SWAP3 SWAP2 POP POP JUMP JUMPDEST PUSH1 0x0 PUSH2 0x28AA DUP3 PUSH2 0x296E JUMP JUMPDEST SWAP2 POP PUSH2 0x28B5 DUP4 PUSH2 0x296E JUMP JUMPDEST SWAP3 POP DUP3 PUSH2 0x28C5 JUMPI PUSH2 0x28C4 PUSH2 0x2AC6 JUMP JUMPDEST JUMPDEST DUP3 DUP3 DIV SWAP1 POP SWAP3 SWAP2 POP POP JUMP JUMPDEST PUSH1 0x0 PUSH2 0x28DB DUP3 PUSH2 0x296E JUMP JUMPDEST SWAP2 POP PUSH2 0x28E6 DUP4 PUSH2 0x296E JUMP JUMPDEST SWAP3 POP DUP3 DUP3 LT ISZERO PUSH2 0x28F9 JUMPI PUSH2 0x28F8 PUSH2 0x2A97 JUMP JUMPDEST JUMPDEST DUP3 DUP3 SUB SWAP1 POP SWAP3 SWAP2 POP POP JUMP JUMPDEST PUSH1 0x0 PUSH2 0x290F DUP3 PUSH2 0x294E JUMP JUMPDEST SWAP1 POP SWAP2 SWAP1 POP JUMP JUMPDEST PUSH1 0x0 DUP2 ISZERO ISZERO SWAP1 POP SWAP2 SWAP1 POP JUMP JUMPDEST PUSH1 0x0 PUSH32 0xFFFFFFFF00000000000000000000000000000000000000000000000000000000 DUP3 AND SWAP1 POP SWAP2 SWAP1 POP JUMP JUMPDEST PUSH1 0x0 PUSH20 0xFFFFFFFFFFFFFFFFFFFFFFFFFFFFFFFFFFFFFFFF DUP3 AND SWAP1 POP SWAP2 SWAP1 POP JUMP JUMPDEST PUSH1 0x0 DUP2 SWAP1 POP SWAP2 SWAP1 POP JUMP JUMPDEST DUP3 DUP2 DUP4 CALLDATACOPY PUSH1 0x0 DUP4 DUP4 ADD MSTORE POP POP POP JUMP JUMPDEST PUSH1 0x0 JUMPDEST DUP4 DUP2 LT ISZERO PUSH2 0x29A5 JUMPI DUP1 DUP3 ADD MLOAD DUP2 DUP5 ADD MSTORE PUSH1 0x20 DUP2 ADD SWAP1 POP PUSH2 0x298A JUMP JUMPDEST DUP4 DUP2 GT ISZERO PUSH2 0x29B4 JUMPI PUSH1 0x0 DUP5 DUP5 ADD MSTORE JUMPDEST POP POP POP POP JUMP JUMPDEST PUSH1 0x0 PUSH1 0x2 DUP3 DIV SWAP1 POP PUSH1 0x1 DUP3 AND DUP1 PUSH2 0x29D2 JUMPI PUSH1 0x7F DUP3 AND SWAP2 POP JUMPDEST PUSH1 0x20 DUP3 LT DUP2 EQ ISZERO PUSH2 0x29E6 JUMPI PUSH2 0x29E5 PUSH2 0x2AF5 JUMP JUMPDEST JUMPDEST POP SWAP2 SWAP1 POP JUMP JUMPDEST PUSH2 0x29F5 DUP3 PUSH2 0x2B96 JUMP JUMPDEST DUP2 ADD DUP2 DUP2 LT PUSH8 0xFFFFFFFFFFFFFFFF DUP3 GT OR ISZERO PUSH2 0x2A14 JUMPI PUSH2 0x2A13 PUSH2 0x2B53 JUMP JUMPDEST JUMPDEST DUP1 PUSH1 0x40 MSTORE POP POP POP JUMP JUMPDEST PUSH1 0x0 PUSH2 0x2A28 DUP3 PUSH2 0x296E JUMP JUMPDEST SWAP2 POP PUSH32 0xFFFFFFFFFFFFFFFFFFFFFFFFFFFFFFFFFFFFFFFFFFFFFFFFFFFFFFFFFFFFFFFF DUP3 EQ ISZERO PUSH2 0x2A5B JUMPI PUSH2 0x2A5A PUSH2 0x2A97 JUMP JUMPDEST JUMPDEST PUSH1 0x1 DUP3 ADD SWAP1 POP SWAP2 SWAP1 POP JUMP JUMPDEST PUSH1 0x0 PUSH2 0x2A71 DUP3 PUSH2 0x296E JUMP JUMPDEST SWAP2 POP PUSH2 0x2A7C DUP4 PUSH2 0x296E JUMP JUMPDEST SWAP3 POP DUP3 PUSH2 0x2A8C JUMPI PUSH2 0x2A8B PUSH2 0x2AC6 JUMP JUMPDEST JUMPDEST DUP3 DUP3 MOD SWAP1 POP SWAP3 SWAP2 POP POP JUMP JUMPDEST PUSH32 0x4E487B7100000000000000000000000000000000000000000000000000000000 PUSH1 0x0 MSTORE PUSH1 0x11 PUSH1 0x4 MSTORE PUSH1 0x24 PUSH1 0x0 REVERT JUMPDEST PUSH32 0x4E487B7100000000000000000000000000000000000000000000000000000000 PUSH1 0x0 MSTORE PUSH1 0x12 PUSH1 0x4 MSTORE PUSH1 0x24 PUSH1 0x0 REVERT JUMPDEST PUSH32 0x4E487B7100000000000000000000000000000000000000000000000000000000 PUSH1 0x0 MSTORE PUSH1 0x22 PUSH1 0x4 MSTORE PUSH1 0x24 PUSH1 0x0 REVERT JUMPDEST PUSH32 0x4E487B7100000000000000000000000000000000000000000000000000000000 PUSH1 0x0 MSTORE PUSH1 0x32 PUSH1 0x4 MSTORE PUSH1 0x24 PUSH1 0x0 REVERT JUMPDEST PUSH32 0x4E487B7100000000000000000000000000000000000000000000000000000000 PUSH1 0x0 MSTORE PUSH1 0x41 PUSH1 0x4 MSTORE PUSH1 0x24 PUSH1 0x0 REVERT JUMPDEST PUSH1 0x0 DUP1 REVERT JUMPDEST PUSH1 0x0 DUP1 REVERT JUMPDEST PUSH1 0x0 DUP1 REVERT JUMPDEST PUSH1 0x0 DUP1 REVERT JUMPDEST PUSH1 0x0 PUSH1 0x1F NOT PUSH1 0x1F DUP4 ADD AND SWAP1 POP SWAP2 SWAP1 POP JUMP JUMPDEST PUSH32 0x4552433732313A207472616E7366657220746F206E6F6E204552433732315265 PUSH1 0x0 DUP3 ADD MSTORE PUSH32 0x63656976657220696D706C656D656E7465720000000000000000000000000000 PUSH1 0x20 DUP3 ADD MSTORE POP JUMP JUMPDEST PUSH32 0x4552433732313A207472616E736665722066726F6D20696E636F727265637420 PUSH1 0x0 DUP3 ADD MSTORE PUSH32 0x6F776E6572000000000000000000000000000000000000000000000000000000 PUSH1 0x20 DUP3 ADD MSTORE POP JUMP JUMPDEST PUSH32 0x4552433732313A207472616E7366657220746F20746865207A65726F20616464 PUSH1 0x0 DUP3 ADD MSTORE PUSH32 0x7265737300000000000000000000000000000000000000000000000000000000 PUSH1 0x20 DUP3 ADD MSTORE POP JUMP JUMPDEST PUSH32 0x4552433732313A20617070726F766520746F2063616C6C657200000000000000 PUSH1 0x0 DUP3 ADD MSTORE POP JUMP JUMPDEST PUSH32 0x4552433732313A206F70657261746F7220717565727920666F72206E6F6E6578 PUSH1 0x0 DUP3 ADD MSTORE PUSH32 0x697374656E7420746F6B656E0000000000000000000000000000000000000000 PUSH1 0x20 DUP3 ADD MSTORE POP JUMP JUMPDEST PUSH32 0x4552433732313A2061646472657373207A65726F206973206E6F742061207661 PUSH1 0x0 DUP3 ADD MSTORE PUSH32 0x6C6964206F776E65720000000000000000000000000000000000000000000000 PUSH1 0x20 DUP3 ADD MSTORE POP JUMP JUMPDEST PUSH32 0x4552433732313A20617070726F76652063616C6C6572206973206E6F74206F77 PUSH1 0x0 DUP3 ADD MSTORE PUSH32 0x6E6572206E6F7220617070726F76656420666F7220616C6C0000000000000000 PUSH1 0x20 DUP3 ADD MSTORE POP JUMP JUMPDEST PUSH32 0x4552433732313A206F776E657220717565727920666F72206E6F6E6578697374 PUSH1 0x0 DUP3 ADD MSTORE PUSH32 0x656E7420746F6B656E0000000000000000000000000000000000000000000000 PUSH1 0x20 DUP3 ADD MSTORE POP JUMP JUMPDEST PUSH32 0x4552433732313A20617070726F76656420717565727920666F72206E6F6E6578 PUSH1 0x0 DUP3 ADD MSTORE PUSH32 0x697374656E7420746F6B656E0000000000000000000000000000000000000000 PUSH1 0x20 DUP3 ADD MSTORE POP JUMP JUMPDEST PUSH32 0x4552433732314D657461646174613A2055524920717565727920666F72206E6F PUSH1 0x0 DUP3 ADD MSTORE PUSH32 0x6E6578697374656E7420746F6B656E0000000000000000000000000000000000 PUSH1 0x20 DUP3 ADD MSTORE POP JUMP JUMPDEST PUSH32 0x7468697320686F757365496420616C7265616479206578697374730000000000 PUSH1 0x0 DUP3 ADD MSTORE POP JUMP JUMPDEST PUSH32 0x4552433732313A20617070726F76616C20746F2063757272656E74206F776E65 PUSH1 0x0 DUP3 ADD MSTORE PUSH32 0x7200000000000000000000000000000000000000000000000000000000000000 PUSH1 0x20 DUP3 ADD MSTORE POP JUMP JUMPDEST PUSH32 0x4552433732313A207472616E736665722063616C6C6572206973206E6F74206F PUSH1 0x0 DUP3 ADD MSTORE PUSH32 0x776E6572206E6F7220617070726F766564000000000000000000000000000000 PUSH1 0x20 DUP3 ADD MSTORE POP JUMP JUMPDEST PUSH2 0x2F67 DUP2 PUSH2 0x2904 JUMP JUMPDEST DUP2 EQ PUSH2 0x2F72 JUMPI PUSH1 0x0 DUP1 REVERT JUMPDEST POP JUMP JUMPDEST PUSH2 0x2F7E DUP2 PUSH2 0x2916 JUMP JUMPDEST DUP2 EQ PUSH2 0x2F89 JUMPI PUSH1 0x0 DUP1 REVERT JUMPDEST POP JUMP JUMPDEST PUSH2 0x2F95 DUP2 PUSH2 0x2922 JUMP JUMPDEST DUP2 EQ PUSH2 0x2FA0 JUMPI PUSH1 0x0 DUP1 REVERT JUMPDEST POP JUMP JUMPDEST PUSH2 0x2FAC DUP2 PUSH2 0x296E JUMP JUMPDEST DUP2 EQ PUSH2 0x2FB7 JUMPI PUSH1 0x0 DUP1 REVERT JUMPDEST POP JUMP INVALID LOG2 PUSH5 0x6970667358 0x22 SLT KECCAK256 0x49 REVERT SAR 0xDA PUSH9 0x1EE95B4E3DA100305 0x5D 0x22 PUSH22 0x6FB6D01E5C01CC24190022478B261A64736F6C634300 ADDMOD SMOD STOP CALLER "
				},
				"gasEstimates": {
					"creation": {
						"codeDepositCost": "2454400",
						"executionCost": "infinite",
						"totalCost": "infinite"
					},
					"external": {
						"addHouse(uint256,uint256,uint256,uint256,uint256,address,string)": "infinite",
						"approve(address,uint256)": "infinite",
						"balanceOf(address)": "2990",
						"getApproved(uint256)": "5250",
						"getHouseInfo(uint256)": "infinite",
						"houses(uint256)": "infinite",
						"isApprovedForAll(address,address)": "infinite",
						"name()": "infinite",
						"ownerOf(uint256)": "3066",
						"safeTransferFrom(address,address,uint256)": "infinite",
						"safeTransferFrom(address,address,uint256,bytes)": "infinite",
						"setApprovalForAll(address,bool)": "infinite",
						"setDelistHouse(uint256)": "24823",
						"setbuyerAddress(uint256,address)": "25067",
						"supportsInterface(bytes4)": "797",
						"symbol()": "infinite",
						"tokenURI(uint256)": "3373",
						"transferFrom(address,address,uint256)": "infinite"
					},
					"internal": {
						"_afterTokenTransfer(address,address,uint256)": "15",
						"_approve(address,uint256)": "infinite",
						"_baseURI()": "infinite",
						"_beforeTokenTransfer(address,address,uint256)": "15",
						"_burn(uint256)": "infinite",
						"_checkOnERC721Received(address,address,uint256,bytes memory)": "infinite",
						"_exists(uint256)": "2269",
						"_isApprovedOrOwner(address,uint256)": "infinite",
						"_mint(address,uint256)": "infinite",
						"_safeMint(address,uint256)": "infinite",
						"_safeMint(address,uint256,bytes memory)": "infinite",
						"_safeTransfer(address,address,uint256,bytes memory)": "infinite",
						"_setApprovalForAll(address,address,bool)": "infinite",
						"_transfer(address,address,uint256)": "infinite"
					}
				},
				"methodIdentifiers": {
					"addHouse(uint256,uint256,uint256,uint256,uint256,address,string)": "0548fa4f",
					"approve(address,uint256)": "095ea7b3",
					"balanceOf(address)": "70a08231",
					"getApproved(uint256)": "081812fc",
					"getHouseInfo(uint256)": "ad50f56d",
					"houses(uint256)": "aeda852f",
					"isApprovedForAll(address,address)": "e985e9c5",
					"name()": "06fdde03",
					"ownerOf(uint256)": "6352211e",
					"safeTransferFrom(address,address,uint256)": "42842e0e",
					"safeTransferFrom(address,address,uint256,bytes)": "b88d4fde",
					"setApprovalForAll(address,bool)": "a22cb465",
					"setDelistHouse(uint256)": "d231f142",
					"setbuyerAddress(uint256,address)": "e6cde56a",
					"supportsInterface(bytes4)": "01ffc9a7",
					"symbol()": "95d89b41",
					"tokenURI(uint256)": "c87b56dd",
					"transferFrom(address,address,uint256)": "23b872dd"
				}
			},
			"storageLayout": {
				"storage": [
					{
						"astId": 28,
						"contract": "contract/token/ERC721.sol:ERC721",
						"label": "_name",
						"offset": 0,
						"slot": "0",
						"type": "t_string_storage"
					},
					{
						"astId": 30,
						"contract": "contract/token/ERC721.sol:ERC721",
						"label": "_symbol",
						"offset": 0,
						"slot": "1",
						"type": "t_string_storage"
					},
					{
						"astId": 70,
						"contract": "contract/token/ERC721.sol:ERC721",
						"label": "_owners",
						"offset": 0,
						"slot": "2",
						"type": "t_mapping(t_uint256,t_address)"
					},
					{
						"astId": 74,
						"contract": "contract/token/ERC721.sol:ERC721",
						"label": "_balances",
						"offset": 0,
						"slot": "3",
						"type": "t_mapping(t_address,t_uint256)"
					},
					{
						"astId": 78,
						"contract": "contract/token/ERC721.sol:ERC721",
						"label": "_tokenApprovals",
						"offset": 0,
						"slot": "4",
						"type": "t_mapping(t_uint256,t_address)"
					},
					{
						"astId": 84,
						"contract": "contract/token/ERC721.sol:ERC721",
						"label": "_operatorApprovals",
						"offset": 0,
						"slot": "5",
						"type": "t_mapping(t_address,t_mapping(t_address,t_bool))"
					},
					{
						"astId": 89,
						"contract": "contract/token/ERC721.sol:ERC721",
						"label": "houses",
						"offset": 0,
						"slot": "6",
						"type": "t_mapping(t_uint256,t_struct(House)66_storage)"
					}
				],
				"types": {
					"t_address": {
						"encoding": "inplace",
						"label": "address",
						"numberOfBytes": "20"
					},
					"t_bool": {
						"encoding": "inplace",
						"label": "bool",
						"numberOfBytes": "1"
					},
					"t_mapping(t_address,t_bool)": {
						"encoding": "mapping",
						"key": "t_address",
						"label": "mapping(address => bool)",
						"numberOfBytes": "32",
						"value": "t_bool"
					},
					"t_mapping(t_address,t_mapping(t_address,t_bool))": {
						"encoding": "mapping",
						"key": "t_address",
						"label": "mapping(address => mapping(address => bool))",
						"numberOfBytes": "32",
						"value": "t_mapping(t_address,t_bool)"
					},
					"t_mapping(t_address,t_uint256)": {
						"encoding": "mapping",
						"key": "t_address",
						"label": "mapping(address => uint256)",
						"numberOfBytes": "32",
						"value": "t_uint256"
					},
					"t_mapping(t_uint256,t_address)": {
						"encoding": "mapping",
						"key": "t_uint256",
						"label": "mapping(uint256 => address)",
						"numberOfBytes": "32",
						"value": "t_address"
					},
					"t_mapping(t_uint256,t_struct(House)66_storage)": {
						"encoding": "mapping",
						"key": "t_uint256",
						"label": "mapping(uint256 => struct ERC721.House)",
						"numberOfBytes": "32",
						"value": "t_struct(House)66_storage"
					},
					"t_string_storage": {
						"encoding": "bytes",
						"label": "string",
						"numberOfBytes": "32"
					},
					"t_struct(House)66_storage": {
						"encoding": "inplace",
						"label": "struct ERC721.House",
						"members": [
							{
								"astId": 49,
								"contract": "contract/token/ERC721.sol:ERC721",
								"label": "id",
								"offset": 0,
								"slot": "0",
								"type": "t_uint256"
							},
							{
								"astId": 51,
								"contract": "contract/token/ERC721.sol:ERC721",
								"label": "serialNumber",
								"offset": 0,
								"slot": "1",
								"type": "t_uint256"
							},
							{
								"astId": 53,
								"contract": "contract/token/ERC721.sol:ERC721",
								"label": "price",
								"offset": 0,
								"slot": "2",
								"type": "t_uint256"
							},
							{
								"astId": 55,
								"contract": "contract/token/ERC721.sol:ERC721",
								"label": "priceDai",
								"offset": 0,
								"slot": "3",
								"type": "t_uint256"
							},
							{
								"astId": 57,
								"contract": "contract/token/ERC721.sol:ERC721",
								"label": "area",
								"offset": 0,
								"slot": "4",
								"type": "t_uint256"
							},
							{
								"astId": 59,
								"contract": "contract/token/ERC721.sol:ERC721",
								"label": "sellerAddress",
								"offset": 0,
								"slot": "5",
								"type": "t_address"
							},
							{
								"astId": 61,
								"contract": "contract/token/ERC721.sol:ERC721",
								"label": "buyerAddress",
								"offset": 0,
								"slot": "6",
								"type": "t_address"
							},
							{
								"astId": 63,
								"contract": "contract/token/ERC721.sol:ERC721",
								"label": "houseAddress",
								"offset": 0,
								"slot": "7",
								"type": "t_string_storage"
							},
							{
								"astId": 65,
								"contract": "contract/token/ERC721.sol:ERC721",
								"label": "isdelistedHouse",
								"offset": 0,
								"slot": "8",
								"type": "t_bool"
							}
						],
						"numberOfBytes": "288"
					},
					"t_uint256": {
						"encoding": "inplace",
						"label": "uint256",
						"numberOfBytes": "32"
					}
				}
			},
			"userdoc": {
				"kind": "user",
				"methods": {},
				"version": 1
			}
		}
	}
}