{
	"contract/token/ERC721.sol": {
		"ERC721": {
			"abi": [
				{
					"inputs": [
						{
							"internalType": "string",
							"name": "name_",
							"type": "string"
						},
						{
							"internalType": "string",
							"name": "symbol_",
							"type": "string"
						}
					],
					"stateMutability": "nonpayable",
					"type": "constructor"
				},
				{
					"anonymous": false,
					"inputs": [
						{
							"indexed": true,
							"internalType": "address",
							"name": "owner",
							"type": "address"
						},
						{
							"indexed": true,
							"internalType": "address",
							"name": "approved",
							"type": "address"
						},
						{
							"indexed": true,
							"internalType": "uint256",
							"name": "tokenId",
							"type": "uint256"
						}
					],
					"name": "Approval",
					"type": "event"
				},
				{
					"anonymous": false,
					"inputs": [
						{
							"indexed": true,
							"internalType": "address",
							"name": "owner",
							"type": "address"
						},
						{
							"indexed": true,
							"internalType": "address",
							"name": "operator",
							"type": "address"
						},
						{
							"indexed": false,
							"internalType": "bool",
							"name": "approved",
							"type": "bool"
						}
					],
					"name": "ApprovalForAll",
					"type": "event"
				},
				{
					"anonymous": false,
					"inputs": [
						{
							"indexed": true,
							"internalType": "address",
							"name": "from",
							"type": "address"
						},
						{
							"indexed": true,
							"internalType": "address",
							"name": "to",
							"type": "address"
						},
						{
							"indexed": true,
							"internalType": "uint256",
							"name": "tokenId",
							"type": "uint256"
						}
					],
					"name": "Transfer",
					"type": "event"
				},
				{
					"inputs": [
						{
							"internalType": "uint256",
							"name": "_houseId",
							"type": "uint256"
						},
						{
							"internalType": "uint256",
							"name": "_serialNumber",
							"type": "uint256"
						},
						{
							"internalType": "uint256",
							"name": "_price",
							"type": "uint256"
						},
						{
							"internalType": "uint256",
							"name": "_priceDai",
							"type": "uint256"
						},
						{
							"internalType": "uint256",
							"name": "_area",
							"type": "uint256"
						},
						{
							"internalType": "address",
							"name": "_sellerAddress",
							"type": "address"
						},
						{
							"internalType": "string",
							"name": "_houseAddress",
							"type": "string"
						}
					],
					"name": "addHouse",
					"outputs": [
						{
							"components": [
								{
									"internalType": "uint256",
									"name": "id",
									"type": "uint256"
								},
								{
									"internalType": "uint256",
									"name": "serialNumber",
									"type": "uint256"
								},
								{
									"internalType": "uint256",
									"name": "price",
									"type": "uint256"
								},
								{
									"internalType": "uint256",
									"name": "priceDai",
									"type": "uint256"
								},
								{
									"internalType": "uint256",
									"name": "area",
									"type": "uint256"
								},
								{
									"internalType": "address",
									"name": "sellerAddress",
									"type": "address"
								},
								{
									"internalType": "address",
									"name": "buyerAddress",
									"type": "address"
								},
								{
									"internalType": "string",
									"name": "houseAddress",
									"type": "string"
								},
								{
									"internalType": "bool",
									"name": "isdelistedHouse",
									"type": "bool"
								}
							],
							"internalType": "struct ERC721.House",
							"name": "",
							"type": "tuple"
						}
					],
					"stateMutability": "nonpayable",
					"type": "function"
				},
				{
					"inputs": [
						{
							"internalType": "address",
							"name": "to",
							"type": "address"
						},
						{
							"internalType": "uint256",
							"name": "tokenId",
							"type": "uint256"
						}
					],
					"name": "approve",
					"outputs": [],
					"stateMutability": "nonpayable",
					"type": "function"
				},
				{
					"inputs": [
						{
							"internalType": "address",
							"name": "owner",
							"type": "address"
						}
					],
					"name": "balanceOf",
					"outputs": [
						{
							"internalType": "uint256",
							"name": "",
							"type": "uint256"
						}
					],
					"stateMutability": "view",
					"type": "function"
				},
				{
					"inputs": [
						{
							"internalType": "uint256",
							"name": "tokenId",
							"type": "uint256"
						}
					],
					"name": "getApproved",
					"outputs": [
						{
							"internalType": "address",
							"name": "",
							"type": "address"
						}
					],
					"stateMutability": "view",
					"type": "function"
				},
				{
					"inputs": [
						{
							"internalType": "uint256",
							"name": "_houseId",
							"type": "uint256"
						}
					],
					"name": "getHouseInfo",
					"outputs": [
						{
							"components": [
								{
									"internalType": "uint256",
									"name": "id",
									"type": "uint256"
								},
								{
									"internalType": "uint256",
									"name": "serialNumber",
									"type": "uint256"
								},
								{
									"internalType": "uint256",
									"name": "price",
									"type": "uint256"
								},
								{
									"internalType": "uint256",
									"name": "priceDai",
									"type": "uint256"
								},
								{
									"internalType": "uint256",
									"name": "area",
									"type": "uint256"
								},
								{
									"internalType": "address",
									"name": "sellerAddress",
									"type": "address"
								},
								{
									"internalType": "address",
									"name": "buyerAddress",
									"type": "address"
								},
								{
									"internalType": "string",
									"name": "houseAddress",
									"type": "string"
								},
								{
									"internalType": "bool",
									"name": "isdelistedHouse",
									"type": "bool"
								}
							],
							"internalType": "struct ERC721.House",
							"name": "",
							"type": "tuple"
						}
					],
					"stateMutability": "view",
					"type": "function"
				},
				{
					"inputs": [
						{
							"internalType": "uint256",
							"name": "",
							"type": "uint256"
						}
					],
					"name": "houses",
					"outputs": [
						{
							"internalType": "uint256",
							"name": "id",
							"type": "uint256"
						},
						{
							"internalType": "uint256",
							"name": "serialNumber",
							"type": "uint256"
						},
						{
							"internalType": "uint256",
							"name": "price",
							"type": "uint256"
						},
						{
							"internalType": "uint256",
							"name": "priceDai",
							"type": "uint256"
						},
						{
							"internalType": "uint256",
							"name": "area",
							"type": "uint256"
						},
						{
							"internalType": "address",
							"name": "sellerAddress",
							"type": "address"
						},
						{
							"internalType": "address",
							"name": "buyerAddress",
							"type": "address"
						},
						{
							"internalType": "string",
							"name": "houseAddress",
							"type": "string"
						},
						{
							"internalType": "bool",
							"name": "isdelistedHouse",
							"type": "bool"
						}
					],
					"stateMutability": "view",
					"type": "function"
				},
				{
					"inputs": [
						{
							"internalType": "address",
							"name": "owner",
							"type": "address"
						},
						{
							"internalType": "address",
							"name": "operator",
							"type": "address"
						}
					],
					"name": "isApprovedForAll",
					"outputs": [
						{
							"internalType": "bool",
							"name": "",
							"type": "bool"
						}
					],
					"stateMutability": "view",
					"type": "function"
				},
				{
					"inputs": [],
					"name": "name",
					"outputs": [
						{
							"internalType": "string",
							"name": "",
							"type": "string"
						}
					],
					"stateMutability": "view",
					"type": "function"
				},
				{
					"inputs": [
						{
							"internalType": "uint256",
							"name": "tokenId",
							"type": "uint256"
						}
					],
					"name": "ownerOf",
					"outputs": [
						{
							"internalType": "address",
							"name": "",
							"type": "address"
						}
					],
					"stateMutability": "view",
					"type": "function"
				},
				{
					"inputs": [
						{
							"internalType": "address",
							"name": "from",
							"type": "address"
						},
						{
							"internalType": "address",
							"name": "to",
							"type": "address"
						},
						{
							"internalType": "uint256",
							"name": "tokenId",
							"type": "uint256"
						}
					],
					"name": "safeTransferFrom",
					"outputs": [],
					"stateMutability": "nonpayable",
					"type": "function"
				},
				{
					"inputs": [
						{
							"internalType": "address",
							"name": "from",
							"type": "address"
						},
						{
							"internalType": "address",
							"name": "to",
							"type": "address"
						},
						{
							"internalType": "uint256",
							"name": "tokenId",
							"type": "uint256"
						},
						{
							"internalType": "bytes",
							"name": "data",
							"type": "bytes"
						}
					],
					"name": "safeTransferFrom",
					"outputs": [],
					"stateMutability": "nonpayable",
					"type": "function"
				},
				{
					"inputs": [
						{
							"internalType": "address",
							"name": "operator",
							"type": "address"
						},
						{
							"internalType": "bool",
							"name": "approved",
							"type": "bool"
						}
					],
					"name": "setApprovalForAll",
					"outputs": [],
					"stateMutability": "nonpayable",
					"type": "function"
				},
				{
					"inputs": [
						{
							"internalType": "uint256",
							"name": "_houseId",
							"type": "uint256"
						}
					],
					"name": "setDelistHouse",
					"outputs": [],
					"stateMutability": "nonpayable",
					"type": "function"
				},
				{
					"inputs": [
						{
							"internalType": "uint256",
							"name": "_houseId",
							"type": "uint256"
						},
						{
							"internalType": "address",
							"name": "_buyerAddress",
							"type": "address"
						}
					],
					"name": "setbuyerAddress",
					"outputs": [],
					"stateMutability": "nonpayable",
					"type": "function"
				},
				{
					"inputs": [
						{
							"internalType": "bytes4",
							"name": "interfaceId",
							"type": "bytes4"
						}
					],
					"name": "supportsInterface",
					"outputs": [
						{
							"internalType": "bool",
							"name": "",
							"type": "bool"
						}
					],
					"stateMutability": "view",
					"type": "function"
				},
				{
					"inputs": [],
					"name": "symbol",
					"outputs": [
						{
							"internalType": "string",
							"name": "",
							"type": "string"
						}
					],
					"stateMutability": "view",
					"type": "function"
				},
				{
					"inputs": [
						{
							"internalType": "uint256",
							"name": "tokenId",
							"type": "uint256"
						}
					],
					"name": "tokenURI",
					"outputs": [
						{
							"internalType": "string",
							"name": "",
							"type": "string"
						}
					],
					"stateMutability": "view",
					"type": "function"
				},
				{
					"inputs": [
						{
							"internalType": "address",
							"name": "from",
							"type": "address"
						},
						{
							"internalType": "address",
							"name": "to",
							"type": "address"
						},
						{
							"internalType": "uint256",
							"name": "tokenId",
							"type": "uint256"
						}
					],
					"name": "transferFrom",
					"outputs": [],
					"stateMutability": "nonpayable",
					"type": "function"
				}
			],
			"devdoc": {
				"details": "Implementation of https://eips.ethereum.org/EIPS/eip-721[ERC721] Non-Fungible Token Standard, including the Metadata extension, but not including the Enumerable extension, which is available separately as {ERC721Enumerable}.",
				"kind": "dev",
				"methods": {
					"approve(address,uint256)": {
						"details": "See {IERC721-approve}."
					},
					"balanceOf(address)": {
						"details": "See {IERC721-balanceOf}."
					},
					"constructor": {
						"details": "Initializes the contract by setting a `name` and a `symbol` to the token collection."
					},
					"getApproved(uint256)": {
						"details": "See {IERC721-getApproved}."
					},
					"isApprovedForAll(address,address)": {
						"details": "See {IERC721-isApprovedForAll}."
					},
					"name()": {
						"details": "See {IERC721Metadata-name}."
					},
					"ownerOf(uint256)": {
						"details": "See {IERC721-ownerOf}."
					},
					"safeTransferFrom(address,address,uint256)": {
						"details": "See {IERC721-safeTransferFrom}."
					},
					"safeTransferFrom(address,address,uint256,bytes)": {
						"details": "See {IERC721-safeTransferFrom}."
					},
					"setApprovalForAll(address,bool)": {
						"details": "See {IERC721-setApprovalForAll}."
					},
					"supportsInterface(bytes4)": {
						"details": "See {IERC165-supportsInterface}."
					},
					"symbol()": {
						"details": "See {IERC721Metadata-symbol}."
					},
					"tokenURI(uint256)": {
						"details": "See {IERC721Metadata-tokenURI}."
					},
					"transferFrom(address,address,uint256)": {
						"details": "See {IERC721-transferFrom}."
					}
				},
				"version": 1
			},
			"evm": {
				"assembly": "    /* \"contract/token/ERC721.sol\":674:15984  contract ERC721 is Context, ERC165, IERC721, IERC721Metadata {\r... */\n  mstore(0x40, 0x80)\n    /* \"contract/token/ERC721.sol\":1769:1889  constructor(string memory name_, string memory symbol_) {\r... */\n  callvalue\n  dup1\n  iszero\n  tag_1\n  jumpi\n  0x00\n  dup1\n  revert\ntag_1:\n  pop\n  mload(0x40)\n  sub(codesize, bytecodeSize)\n  dup1\n  bytecodeSize\n  dup4\n  codecopy\n  dup2\n  dup2\n  add\n  0x40\n  mstore\n  dup2\n  add\n  swap1\n  tag_2\n  swap2\n  swap1\n  tag_3\n  jump\t// in\ntag_2:\n    /* \"contract/token/ERC721.sol\":1844:1849  name_ */\n  dup2\n    /* \"contract/token/ERC721.sol\":1836:1841  _name */\n  0x00\n    /* \"contract/token/ERC721.sol\":1836:1849  _name = name_ */\n  swap1\n  dup1\n  mload\n  swap1\n  0x20\n  add\n  swap1\n  tag_6\n  swap3\n  swap2\n  swap1\n  tag_7\n  jump\t// in\ntag_6:\n  pop\n    /* \"contract/token/ERC721.sol\":1870:1877  symbol_ */\n  dup1\n    /* \"contract/token/ERC721.sol\":1860:1867  _symbol */\n  0x01\n    /* \"contract/token/ERC721.sol\":1860:1877  _symbol = symbol_ */\n  swap1\n  dup1\n  mload\n  swap1\n  0x20\n  add\n  swap1\n  tag_8\n  swap3\n  swap2\n  swap1\n  tag_7\n  jump\t// in\ntag_8:\n  pop\n    /* \"contract/token/ERC721.sol\":1769:1889  constructor(string memory name_, string memory symbol_) {\r... */\n  pop\n  pop\n    /* \"contract/token/ERC721.sol\":674:15984  contract ERC721 is Context, ERC165, IERC721, IERC721Metadata {\r... */\n  jump(tag_9)\ntag_7:\n  dup3\n  dup1\n  sload\n  tag_10\n  swap1\n  tag_11\n  jump\t// in\ntag_10:\n  swap1\n  0x00\n  mstore\n  keccak256(0x00, 0x20)\n  swap1\n  0x1f\n  add\n  0x20\n  swap1\n  div\n  dup2\n  add\n  swap3\n  dup3\n  tag_13\n  jumpi\n  0x00\n  dup6\n  sstore\n  jump(tag_12)\ntag_13:\n  dup3\n  0x1f\n  lt\n  tag_14\n  jumpi\n  dup1\n  mload\n  not(0xff)\n  and\n  dup4\n  dup1\n  add\n  or\n  dup6\n  sstore\n  jump(tag_12)\ntag_14:\n  dup3\n  dup1\n  add\n  0x01\n  add\n  dup6\n  sstore\n  dup3\n  iszero\n  tag_12\n  jumpi\n  swap2\n  dup3\n  add\ntag_15:\n  dup3\n  dup2\n  gt\n  iszero\n  tag_16\n  jumpi\n  dup3\n  mload\n  dup3\n  sstore\n  swap2\n  0x20\n  add\n  swap2\n  swap1\n  0x01\n  add\n  swap1\n  jump(tag_15)\ntag_16:\ntag_12:\n  pop\n  swap1\n  pop\n  tag_17\n  swap2\n  swap1\n  tag_18\n  jump\t// in\ntag_17:\n  pop\n  swap1\n  jump\t// out\ntag_18:\ntag_19:\n  dup1\n  dup3\n  gt\n  iszero\n  tag_20\n  jumpi\n  0x00\n  dup2\n  0x00\n  swap1\n  sstore\n  pop\n  0x01\n  add\n  jump(tag_19)\ntag_20:\n  pop\n  swap1\n  jump\t// out\n    /* \"#utility.yul\":7:428   */\ntag_22:\n    /* \"#utility.yul\":96:101   */\n  0x00\n    /* \"#utility.yul\":121:187   */\n  tag_24\n    /* \"#utility.yul\":137:186   */\n  tag_25\n    /* \"#utility.yul\":179:185   */\n  dup5\n    /* \"#utility.yul\":137:186   */\n  tag_26\n  jump\t// in\ntag_25:\n    /* \"#utility.yul\":121:187   */\n  tag_27\n  jump\t// in\ntag_24:\n    /* \"#utility.yul\":112:187   */\n  swap1\n  pop\n    /* \"#utility.yul\":210:216   */\n  dup3\n    /* \"#utility.yul\":203:208   */\n  dup2\n    /* \"#utility.yul\":196:217   */\n  mstore\n    /* \"#utility.yul\":248:252   */\n  0x20\n    /* \"#utility.yul\":241:246   */\n  dup2\n    /* \"#utility.yul\":237:253   */\n  add\n    /* \"#utility.yul\":286:289   */\n  dup5\n    /* \"#utility.yul\":277:283   */\n  dup5\n    /* \"#utility.yul\":272:275   */\n  dup5\n    /* \"#utility.yul\":268:284   */\n  add\n    /* \"#utility.yul\":265:290   */\n  gt\n    /* \"#utility.yul\":262:374   */\n  iszero\n  tag_28\n  jumpi\n    /* \"#utility.yul\":293:372   */\n  tag_29\n  tag_30\n  jump\t// in\ntag_29:\n    /* \"#utility.yul\":262:374   */\ntag_28:\n    /* \"#utility.yul\":383:422   */\n  tag_31\n    /* \"#utility.yul\":415:421   */\n  dup5\n    /* \"#utility.yul\":410:413   */\n  dup3\n    /* \"#utility.yul\":405:408   */\n  dup6\n    /* \"#utility.yul\":383:422   */\n  tag_32\n  jump\t// in\ntag_31:\n    /* \"#utility.yul\":102:428   */\n  pop\n    /* \"#utility.yul\":7:428   */\n  swap4\n  swap3\n  pop\n  pop\n  pop\n  jump\t// out\n    /* \"#utility.yul\":448:803   */\ntag_33:\n    /* \"#utility.yul\":515:520   */\n  0x00\n    /* \"#utility.yul\":564:567   */\n  dup3\n    /* \"#utility.yul\":557:561   */\n  0x1f\n    /* \"#utility.yul\":549:555   */\n  dup4\n    /* \"#utility.yul\":545:562   */\n  add\n    /* \"#utility.yul\":541:568   */\n  slt\n    /* \"#utility.yul\":531:653   */\n  tag_35\n  jumpi\n    /* \"#utility.yul\":572:651   */\n  tag_36\n  tag_37\n  jump\t// in\ntag_36:\n    /* \"#utility.yul\":531:653   */\ntag_35:\n    /* \"#utility.yul\":682:688   */\n  dup2\n    /* \"#utility.yul\":676:689   */\n  mload\n    /* \"#utility.yul\":707:797   */\n  tag_38\n    /* \"#utility.yul\":793:796   */\n  dup5\n    /* \"#utility.yul\":785:791   */\n  dup3\n    /* \"#utility.yul\":778:782   */\n  0x20\n    /* \"#utility.yul\":770:776   */\n  dup7\n    /* \"#utility.yul\":766:783   */\n  add\n    /* \"#utility.yul\":707:797   */\n  tag_22\n  jump\t// in\ntag_38:\n    /* \"#utility.yul\":698:797   */\n  swap2\n  pop\n    /* \"#utility.yul\":521:803   */\n  pop\n    /* \"#utility.yul\":448:803   */\n  swap3\n  swap2\n  pop\n  pop\n  jump\t// out\n    /* \"#utility.yul\":809:1662   */\ntag_3:\n    /* \"#utility.yul\":908:914   */\n  0x00\n    /* \"#utility.yul\":916:922   */\n  dup1\n    /* \"#utility.yul\":965:967   */\n  0x40\n    /* \"#utility.yul\":953:962   */\n  dup4\n    /* \"#utility.yul\":944:951   */\n  dup6\n    /* \"#utility.yul\":940:963   */\n  sub\n    /* \"#utility.yul\":936:968   */\n  slt\n    /* \"#utility.yul\":933:1052   */\n  iszero\n  tag_40\n  jumpi\n    /* \"#utility.yul\":971:1050   */\n  tag_41\n  tag_42\n  jump\t// in\ntag_41:\n    /* \"#utility.yul\":933:1052   */\ntag_40:\n    /* \"#utility.yul\":1112:1113   */\n  0x00\n    /* \"#utility.yul\":1101:1110   */\n  dup4\n    /* \"#utility.yul\":1097:1114   */\n  add\n    /* \"#utility.yul\":1091:1115   */\n  mload\n    /* \"#utility.yul\":1142:1160   */\n  0xffffffffffffffff\n    /* \"#utility.yul\":1134:1140   */\n  dup2\n    /* \"#utility.yul\":1131:1161   */\n  gt\n    /* \"#utility.yul\":1128:1245   */\n  iszero\n  tag_43\n  jumpi\n    /* \"#utility.yul\":1164:1243   */\n  tag_44\n  tag_45\n  jump\t// in\ntag_44:\n    /* \"#utility.yul\":1128:1245   */\ntag_43:\n    /* \"#utility.yul\":1269:1343   */\n  tag_46\n    /* \"#utility.yul\":1335:1342   */\n  dup6\n    /* \"#utility.yul\":1326:1332   */\n  dup3\n    /* \"#utility.yul\":1315:1324   */\n  dup7\n    /* \"#utility.yul\":1311:1333   */\n  add\n    /* \"#utility.yul\":1269:1343   */\n  tag_33\n  jump\t// in\ntag_46:\n    /* \"#utility.yul\":1259:1343   */\n  swap3\n  pop\n    /* \"#utility.yul\":1062:1353   */\n  pop\n    /* \"#utility.yul\":1413:1415   */\n  0x20\n    /* \"#utility.yul\":1402:1411   */\n  dup4\n    /* \"#utility.yul\":1398:1416   */\n  add\n    /* \"#utility.yul\":1392:1417   */\n  mload\n    /* \"#utility.yul\":1444:1462   */\n  0xffffffffffffffff\n    /* \"#utility.yul\":1436:1442   */\n  dup2\n    /* \"#utility.yul\":1433:1463   */\n  gt\n    /* \"#utility.yul\":1430:1547   */\n  iszero\n  tag_47\n  jumpi\n    /* \"#utility.yul\":1466:1545   */\n  tag_48\n  tag_45\n  jump\t// in\ntag_48:\n    /* \"#utility.yul\":1430:1547   */\ntag_47:\n    /* \"#utility.yul\":1571:1645   */\n  tag_49\n    /* \"#utility.yul\":1637:1644   */\n  dup6\n    /* \"#utility.yul\":1628:1634   */\n  dup3\n    /* \"#utility.yul\":1617:1626   */\n  dup7\n    /* \"#utility.yul\":1613:1635   */\n  add\n    /* \"#utility.yul\":1571:1645   */\n  tag_33\n  jump\t// in\ntag_49:\n    /* \"#utility.yul\":1561:1645   */\n  swap2\n  pop\n    /* \"#utility.yul\":1363:1655   */\n  pop\n    /* \"#utility.yul\":809:1662   */\n  swap3\n  pop\n  swap3\n  swap1\n  pop\n  jump\t// out\n    /* \"#utility.yul\":1668:1797   */\ntag_27:\n    /* \"#utility.yul\":1702:1708   */\n  0x00\n    /* \"#utility.yul\":1729:1749   */\n  tag_51\n  tag_52\n  jump\t// in\ntag_51:\n    /* \"#utility.yul\":1719:1749   */\n  swap1\n  pop\n    /* \"#utility.yul\":1758:1791   */\n  tag_53\n    /* \"#utility.yul\":1786:1790   */\n  dup3\n    /* \"#utility.yul\":1778:1784   */\n  dup3\n    /* \"#utility.yul\":1758:1791   */\n  tag_54\n  jump\t// in\ntag_53:\n    /* \"#utility.yul\":1668:1797   */\n  swap2\n  swap1\n  pop\n  jump\t// out\n    /* \"#utility.yul\":1803:1878   */\ntag_52:\n    /* \"#utility.yul\":1836:1842   */\n  0x00\n    /* \"#utility.yul\":1869:1871   */\n  0x40\n    /* \"#utility.yul\":1863:1872   */\n  mload\n    /* \"#utility.yul\":1853:1872   */\n  swap1\n  pop\n    /* \"#utility.yul\":1803:1878   */\n  swap1\n  jump\t// out\n    /* \"#utility.yul\":1884:2192   */\ntag_26:\n    /* \"#utility.yul\":1946:1950   */\n  0x00\n    /* \"#utility.yul\":2036:2054   */\n  0xffffffffffffffff\n    /* \"#utility.yul\":2028:2034   */\n  dup3\n    /* \"#utility.yul\":2025:2055   */\n  gt\n    /* \"#utility.yul\":2022:2078   */\n  iszero\n  tag_57\n  jumpi\n    /* \"#utility.yul\":2058:2076   */\n  tag_58\n  tag_59\n  jump\t// in\ntag_58:\n    /* \"#utility.yul\":2022:2078   */\ntag_57:\n    /* \"#utility.yul\":2096:2125   */\n  tag_60\n    /* \"#utility.yul\":2118:2124   */\n  dup3\n    /* \"#utility.yul\":2096:2125   */\n  tag_61\n  jump\t// in\ntag_60:\n    /* \"#utility.yul\":2088:2125   */\n  swap1\n  pop\n    /* \"#utility.yul\":2180:2184   */\n  0x20\n    /* \"#utility.yul\":2174:2178   */\n  dup2\n    /* \"#utility.yul\":2170:2185   */\n  add\n    /* \"#utility.yul\":2162:2185   */\n  swap1\n  pop\n    /* \"#utility.yul\":1884:2192   */\n  swap2\n  swap1\n  pop\n  jump\t// out\n    /* \"#utility.yul\":2198:2505   */\ntag_32:\n    /* \"#utility.yul\":2266:2267   */\n  0x00\n    /* \"#utility.yul\":2276:2389   */\ntag_63:\n    /* \"#utility.yul\":2290:2296   */\n  dup4\n    /* \"#utility.yul\":2287:2288   */\n  dup2\n    /* \"#utility.yul\":2284:2297   */\n  lt\n    /* \"#utility.yul\":2276:2389   */\n  iszero\n  tag_65\n  jumpi\n    /* \"#utility.yul\":2375:2376   */\n  dup1\n    /* \"#utility.yul\":2370:2373   */\n  dup3\n    /* \"#utility.yul\":2366:2377   */\n  add\n    /* \"#utility.yul\":2360:2378   */\n  mload\n    /* \"#utility.yul\":2356:2357   */\n  dup2\n    /* \"#utility.yul\":2351:2354   */\n  dup5\n    /* \"#utility.yul\":2347:2358   */\n  add\n    /* \"#utility.yul\":2340:2379   */\n  mstore\n    /* \"#utility.yul\":2312:2314   */\n  0x20\n    /* \"#utility.yul\":2309:2310   */\n  dup2\n    /* \"#utility.yul\":2305:2315   */\n  add\n    /* \"#utility.yul\":2300:2315   */\n  swap1\n  pop\n    /* \"#utility.yul\":2276:2389   */\n  jump(tag_63)\ntag_65:\n    /* \"#utility.yul\":2407:2413   */\n  dup4\n    /* \"#utility.yul\":2404:2405   */\n  dup2\n    /* \"#utility.yul\":2401:2414   */\n  gt\n    /* \"#utility.yul\":2398:2499   */\n  iszero\n  tag_66\n  jumpi\n    /* \"#utility.yul\":2487:2488   */\n  0x00\n    /* \"#utility.yul\":2478:2484   */\n  dup5\n    /* \"#utility.yul\":2473:2476   */\n  dup5\n    /* \"#utility.yul\":2469:2485   */\n  add\n    /* \"#utility.yul\":2462:2489   */\n  mstore\n    /* \"#utility.yul\":2398:2499   */\ntag_66:\n    /* \"#utility.yul\":2247:2505   */\n  pop\n    /* \"#utility.yul\":2198:2505   */\n  pop\n  pop\n  pop\n  jump\t// out\n    /* \"#utility.yul\":2511:2831   */\ntag_11:\n    /* \"#utility.yul\":2555:2561   */\n  0x00\n    /* \"#utility.yul\":2592:2593   */\n  0x02\n    /* \"#utility.yul\":2586:2590   */\n  dup3\n    /* \"#utility.yul\":2582:2594   */\n  div\n    /* \"#utility.yul\":2572:2594   */\n  swap1\n  pop\n    /* \"#utility.yul\":2639:2640   */\n  0x01\n    /* \"#utility.yul\":2633:2637   */\n  dup3\n    /* \"#utility.yul\":2629:2641   */\n  and\n    /* \"#utility.yul\":2660:2678   */\n  dup1\n    /* \"#utility.yul\":2650:2731   */\n  tag_68\n  jumpi\n    /* \"#utility.yul\":2716:2720   */\n  0x7f\n    /* \"#utility.yul\":2708:2714   */\n  dup3\n    /* \"#utility.yul\":2704:2721   */\n  and\n    /* \"#utility.yul\":2694:2721   */\n  swap2\n  pop\n    /* \"#utility.yul\":2650:2731   */\ntag_68:\n    /* \"#utility.yul\":2778:2780   */\n  0x20\n    /* \"#utility.yul\":2770:2776   */\n  dup3\n    /* \"#utility.yul\":2767:2781   */\n  lt\n    /* \"#utility.yul\":2747:2765   */\n  dup2\n    /* \"#utility.yul\":2744:2782   */\n  eq\n    /* \"#utility.yul\":2741:2825   */\n  iszero\n  tag_69\n  jumpi\n    /* \"#utility.yul\":2797:2815   */\n  tag_70\n  tag_71\n  jump\t// in\ntag_70:\n    /* \"#utility.yul\":2741:2825   */\ntag_69:\n    /* \"#utility.yul\":2562:2831   */\n  pop\n    /* \"#utility.yul\":2511:2831   */\n  swap2\n  swap1\n  pop\n  jump\t// out\n    /* \"#utility.yul\":2837:3118   */\ntag_54:\n    /* \"#utility.yul\":2920:2947   */\n  tag_73\n    /* \"#utility.yul\":2942:2946   */\n  dup3\n    /* \"#utility.yul\":2920:2947   */\n  tag_61\n  jump\t// in\ntag_73:\n    /* \"#utility.yul\":2912:2918   */\n  dup2\n    /* \"#utility.yul\":2908:2948   */\n  add\n    /* \"#utility.yul\":3050:3056   */\n  dup2\n    /* \"#utility.yul\":3038:3048   */\n  dup2\n    /* \"#utility.yul\":3035:3057   */\n  lt\n    /* \"#utility.yul\":3014:3032   */\n  0xffffffffffffffff\n    /* \"#utility.yul\":3002:3012   */\n  dup3\n    /* \"#utility.yul\":2999:3033   */\n  gt\n    /* \"#utility.yul\":2996:3058   */\n  or\n    /* \"#utility.yul\":2993:3081   */\n  iszero\n  tag_74\n  jumpi\n    /* \"#utility.yul\":3061:3079   */\n  tag_75\n  tag_59\n  jump\t// in\ntag_75:\n    /* \"#utility.yul\":2993:3081   */\ntag_74:\n    /* \"#utility.yul\":3101:3111   */\n  dup1\n    /* \"#utility.yul\":3097:3099   */\n  0x40\n    /* \"#utility.yul\":3090:3112   */\n  mstore\n    /* \"#utility.yul\":2880:3118   */\n  pop\n    /* \"#utility.yul\":2837:3118   */\n  pop\n  pop\n  jump\t// out\n    /* \"#utility.yul\":3124:3304   */\ntag_71:\n    /* \"#utility.yul\":3172:3249   */\n  0x4e487b7100000000000000000000000000000000000000000000000000000000\n    /* \"#utility.yul\":3169:3170   */\n  0x00\n    /* \"#utility.yul\":3162:3250   */\n  mstore\n    /* \"#utility.yul\":3269:3273   */\n  0x22\n    /* \"#utility.yul\":3266:3267   */\n  0x04\n    /* \"#utility.yul\":3259:3274   */\n  mstore\n    /* \"#utility.yul\":3293:3297   */\n  0x24\n    /* \"#utility.yul\":3290:3291   */\n  0x00\n    /* \"#utility.yul\":3283:3298   */\n  revert\n    /* \"#utility.yul\":3310:3490   */\ntag_59:\n    /* \"#utility.yul\":3358:3435   */\n  0x4e487b7100000000000000000000000000000000000000000000000000000000\n    /* \"#utility.yul\":3355:3356   */\n  0x00\n    /* \"#utility.yul\":3348:3436   */\n  mstore\n    /* \"#utility.yul\":3455:3459   */\n  0x41\n    /* \"#utility.yul\":3452:3453   */\n  0x04\n    /* \"#utility.yul\":3445:3460   */\n  mstore\n    /* \"#utility.yul\":3479:3483   */\n  0x24\n    /* \"#utility.yul\":3476:3477   */\n  0x00\n    /* \"#utility.yul\":3469:3484   */\n  revert\n    /* \"#utility.yul\":3496:3613   */\ntag_37:\n    /* \"#utility.yul\":3605:3606   */\n  0x00\n    /* \"#utility.yul\":3602:3603   */\n  dup1\n    /* \"#utility.yul\":3595:3607   */\n  revert\n    /* \"#utility.yul\":3619:3736   */\ntag_30:\n    /* \"#utility.yul\":3728:3729   */\n  0x00\n    /* \"#utility.yul\":3725:3726   */\n  dup1\n    /* \"#utility.yul\":3718:3730   */\n  revert\n    /* \"#utility.yul\":3742:3859   */\ntag_45:\n    /* \"#utility.yul\":3851:3852   */\n  0x00\n    /* \"#utility.yul\":3848:3849   */\n  dup1\n    /* \"#utility.yul\":3841:3853   */\n  revert\n    /* \"#utility.yul\":3865:3982   */\ntag_42:\n    /* \"#utility.yul\":3974:3975   */\n  0x00\n    /* \"#utility.yul\":3971:3972   */\n  dup1\n    /* \"#utility.yul\":3964:3976   */\n  revert\n    /* \"#utility.yul\":3988:4090   */\ntag_61:\n    /* \"#utility.yul\":4029:4035   */\n  0x00\n    /* \"#utility.yul\":4080:4082   */\n  0x1f\n    /* \"#utility.yul\":4076:4083   */\n  not\n    /* \"#utility.yul\":4071:4073   */\n  0x1f\n    /* \"#utility.yul\":4064:4069   */\n  dup4\n    /* \"#utility.yul\":4060:4074   */\n  add\n    /* \"#utility.yul\":4056:4084   */\n  and\n    /* \"#utility.yul\":4046:4084   */\n  swap1\n  pop\n    /* \"#utility.yul\":3988:4090   */\n  swap2\n  swap1\n  pop\n  jump\t// out\n    /* \"contract/token/ERC721.sol\":674:15984  contract ERC721 is Context, ERC165, IERC721, IERC721Metadata {\r... */\ntag_9:\n  dataSize(sub_0)\n  dup1\n  dataOffset(sub_0)\n  0x00\n  codecopy\n  0x00\n  return\nstop\n\nsub_0: assembly {\n        /* \"contract/token/ERC721.sol\":674:15984  contract ERC721 is Context, ERC165, IERC721, IERC721Metadata {\r... */\n      mstore(0x40, 0x80)\n      callvalue\n      dup1\n      iszero\n      tag_1\n      jumpi\n      0x00\n      dup1\n      revert\n    tag_1:\n      pop\n      jumpi(tag_2, lt(calldatasize, 0x04))\n      shr(0xe0, calldataload(0x00))\n      dup1\n      0x95d89b41\n      gt\n      tag_21\n      jumpi\n      dup1\n      0xb88d4fde\n      gt\n      tag_22\n      jumpi\n      dup1\n      0xb88d4fde\n      eq\n      tag_16\n      jumpi\n      dup1\n      0xc87b56dd\n      eq\n      tag_17\n      jumpi\n      dup1\n      0xd231f142\n      eq\n      tag_18\n      jumpi\n      dup1\n      0xe6cde56a\n      eq\n      tag_19\n      jumpi\n      dup1\n      0xe985e9c5\n      eq\n      tag_20\n      jumpi\n      jump(tag_2)\n    tag_22:\n      dup1\n      0x95d89b41\n      eq\n      tag_12\n      jumpi\n      dup1\n      0xa22cb465\n      eq\n      tag_13\n      jumpi\n      dup1\n      0xad50f56d\n      eq\n      tag_14\n      jumpi\n      dup1\n      0xaeda852f\n      eq\n      tag_15\n      jumpi\n      jump(tag_2)\n    tag_21:\n      dup1\n      0x095ea7b3\n      gt\n      tag_23\n      jumpi\n      dup1\n      0x095ea7b3\n      eq\n      tag_7\n      jumpi\n      dup1\n      0x23b872dd\n      eq\n      tag_8\n      jumpi\n      dup1\n      0x42842e0e\n      eq\n      tag_9\n      jumpi\n      dup1\n      0x6352211e\n      eq\n      tag_10\n      jumpi\n      dup1\n      0x70a08231\n      eq\n      tag_11\n      jumpi\n      jump(tag_2)\n    tag_23:\n      dup1\n      0x01ffc9a7\n      eq\n      tag_3\n      jumpi\n      dup1\n      0x0548fa4f\n      eq\n      tag_4\n      jumpi\n      dup1\n      0x06fdde03\n      eq\n      tag_5\n      jumpi\n      dup1\n      0x081812fc\n      eq\n      tag_6\n      jumpi\n    tag_2:\n      0x00\n      dup1\n      revert\n        /* \"contract/token/ERC721.sol\":2884:3189  function supportsInterface(bytes4 interfaceId) public view virtual override(ERC165, IERC165) returns (bool) {\r... */\n    tag_3:\n      tag_24\n      0x04\n      dup1\n      calldatasize\n      sub\n      dup2\n      add\n      swap1\n      tag_25\n      swap2\n      swap1\n      tag_26\n      jump\t// in\n    tag_25:\n      tag_27\n      jump\t// in\n    tag_24:\n      mload(0x40)\n      tag_28\n      swap2\n      swap1\n      tag_29\n      jump\t// in\n    tag_28:\n      mload(0x40)\n      dup1\n      swap2\n      sub\n      swap1\n      return\n        /* \"contract/token/ERC721.sol\":1927:2368  function addHouse(uint _houseId, uint _serialNumber, uint _price, uint _priceDai, uint _area, address _sellerAddress, string memory _houseAddress) external returns(House memory){\r... */\n    tag_4:\n      tag_30\n      0x04\n      dup1\n      calldatasize\n      sub\n      dup2\n      add\n      swap1\n      tag_31\n      swap2\n      swap1\n      tag_32\n      jump\t// in\n    tag_31:\n      tag_33\n      jump\t// in\n    tag_30:\n      mload(0x40)\n      tag_34\n      swap2\n      swap1\n      tag_35\n      jump\t// in\n    tag_34:\n      mload(0x40)\n      dup1\n      swap2\n      sub\n      swap1\n      return\n        /* \"contract/token/ERC721.sol\":3828:3928  function name() public view virtual override returns (string memory) {\r... */\n    tag_5:\n      tag_36\n      tag_37\n      jump\t// in\n    tag_36:\n      mload(0x40)\n      tag_38\n      swap2\n      swap1\n      tag_39\n      jump\t// in\n    tag_38:\n      mload(0x40)\n      dup1\n      swap2\n      sub\n      swap1\n      return\n        /* \"contract/token/ERC721.sol\":5388:5609  function getApproved(uint256 tokenId) public view virtual override returns (address) {\r... */\n    tag_6:\n      tag_40\n      0x04\n      dup1\n      calldatasize\n      sub\n      dup2\n      add\n      swap1\n      tag_41\n      swap2\n      swap1\n      tag_42\n      jump\t// in\n    tag_41:\n      tag_43\n      jump\t// in\n    tag_40:\n      mload(0x40)\n      tag_44\n      swap2\n      swap1\n      tag_45\n      jump\t// in\n    tag_44:\n      mload(0x40)\n      dup1\n      swap2\n      sub\n      swap1\n      return\n        /* \"contract/token/ERC721.sol\":4911:5322  function approve(address to, uint256 tokenId) public virtual override {\r... */\n    tag_7:\n      tag_46\n      0x04\n      dup1\n      calldatasize\n      sub\n      dup2\n      add\n      swap1\n      tag_47\n      swap2\n      swap1\n      tag_48\n      jump\t// in\n    tag_47:\n      tag_49\n      jump\t// in\n    tag_46:\n      stop\n        /* \"contract/token/ERC721.sol\":6138:6477  function transferFrom(\r... */\n    tag_8:\n      tag_50\n      0x04\n      dup1\n      calldatasize\n      sub\n      dup2\n      add\n      swap1\n      tag_51\n      swap2\n      swap1\n      tag_52\n      jump\t// in\n    tag_51:\n      tag_53\n      jump\t// in\n    tag_50:\n      stop\n        /* \"contract/token/ERC721.sol\":6548:6733  function safeTransferFrom(\r... */\n    tag_9:\n      tag_54\n      0x04\n      dup1\n      calldatasize\n      sub\n      dup2\n      add\n      swap1\n      tag_55\n      swap2\n      swap1\n      tag_52\n      jump\t// in\n    tag_55:\n      tag_56\n      jump\t// in\n    tag_54:\n      stop\n        /* \"contract/token/ERC721.sol\":3522:3761  function ownerOf(uint256 tokenId) public view virtual override returns (address) {\r... */\n    tag_10:\n      tag_57\n      0x04\n      dup1\n      calldatasize\n      sub\n      dup2\n      add\n      swap1\n      tag_58\n      swap2\n      swap1\n      tag_42\n      jump\t// in\n    tag_58:\n      tag_59\n      jump\t// in\n    tag_57:\n      mload(0x40)\n      tag_60\n      swap2\n      swap1\n      tag_45\n      jump\t// in\n    tag_60:\n      mload(0x40)\n      dup1\n      swap2\n      sub\n      swap1\n      return\n        /* \"contract/token/ERC721.sol\":3253:3460  function balanceOf(address owner) public view virtual override returns (uint256) {\r... */\n    tag_11:\n      tag_61\n      0x04\n      dup1\n      calldatasize\n      sub\n      dup2\n      add\n      swap1\n      tag_62\n      swap2\n      swap1\n      tag_63\n      jump\t// in\n    tag_62:\n      tag_64\n      jump\t// in\n    tag_61:\n      mload(0x40)\n      tag_65\n      swap2\n      swap1\n      tag_66\n      jump\t// in\n    tag_65:\n      mload(0x40)\n      dup1\n      swap2\n      sub\n      swap1\n      return\n        /* \"contract/token/ERC721.sol\":3997:4101  function symbol() public view virtual override returns (string memory) {\r... */\n    tag_12:\n      tag_67\n      tag_68\n      jump\t// in\n    tag_67:\n      mload(0x40)\n      tag_69\n      swap2\n      swap1\n      tag_39\n      jump\t// in\n    tag_69:\n      mload(0x40)\n      dup1\n      swap2\n      sub\n      swap1\n      return\n        /* \"contract/token/ERC721.sol\":5681:5836  function setApprovalForAll(address operator, bool approved) public virtual override {\r... */\n    tag_13:\n      tag_70\n      0x04\n      dup1\n      calldatasize\n      sub\n      dup2\n      add\n      swap1\n      tag_71\n      swap2\n      swap1\n      tag_72\n      jump\t// in\n    tag_71:\n      tag_73\n      jump\t// in\n    tag_70:\n      stop\n        /* \"contract/token/ERC721.sol\":2376:2492  function getHouseInfo(uint _houseId) external view returns(House memory) {\r... */\n    tag_14:\n      tag_74\n      0x04\n      dup1\n      calldatasize\n      sub\n      dup2\n      add\n      swap1\n      tag_75\n      swap2\n      swap1\n      tag_42\n      jump\t// in\n    tag_75:\n      tag_76\n      jump\t// in\n    tag_74:\n      mload(0x40)\n      tag_77\n      swap2\n      swap1\n      tag_35\n      jump\t// in\n    tag_77:\n      mload(0x40)\n      dup1\n      swap2\n      sub\n      swap1\n      return\n        /* \"contract/token/ERC721.sol\":1608:1644  mapping(uint => House) public houses */\n    tag_15:\n      tag_78\n      0x04\n      dup1\n      calldatasize\n      sub\n      dup2\n      add\n      swap1\n      tag_79\n      swap2\n      swap1\n      tag_42\n      jump\t// in\n    tag_79:\n      tag_80\n      jump\t// in\n    tag_78:\n      mload(0x40)\n      tag_81\n      swap10\n      swap9\n      swap8\n      swap7\n      swap6\n      swap5\n      swap4\n      swap3\n      swap2\n      swap1\n      tag_82\n      jump\t// in\n    tag_81:\n      mload(0x40)\n      dup1\n      swap2\n      sub\n      swap1\n      return\n        /* \"contract/token/ERC721.sol\":6804:7130  function safeTransferFrom(\r... */\n    tag_16:\n      tag_83\n      0x04\n      dup1\n      calldatasize\n      sub\n      dup2\n      add\n      swap1\n      tag_84\n      swap2\n      swap1\n      tag_85\n      jump\t// in\n    tag_84:\n      tag_86\n      jump\t// in\n    tag_83:\n      stop\n        /* \"contract/token/ERC721.sol\":4172:4506  function tokenURI(uint256 tokenId) public view virtual override returns (string memory) {\r... */\n    tag_17:\n      tag_87\n      0x04\n      dup1\n      calldatasize\n      sub\n      dup2\n      add\n      swap1\n      tag_88\n      swap2\n      swap1\n      tag_42\n      jump\t// in\n    tag_88:\n      tag_89\n      jump\t// in\n    tag_87:\n      mload(0x40)\n      tag_90\n      swap2\n      swap1\n      tag_39\n      jump\t// in\n    tag_90:\n      mload(0x40)\n      dup1\n      swap2\n      sub\n      swap1\n      return\n        /* \"contract/token/ERC721.sol\":2500:2607  function setDelistHouse(uint _houseId) external {\r... */\n    tag_18:\n      tag_91\n      0x04\n      dup1\n      calldatasize\n      sub\n      dup2\n      add\n      swap1\n      tag_92\n      swap2\n      swap1\n      tag_42\n      jump\t// in\n    tag_92:\n      tag_93\n      jump\t// in\n    tag_91:\n      stop\n        /* \"contract/token/ERC721.sol\":2615:2753  function setbuyerAddress(uint _houseId, address _buyerAddress ) external {\r... */\n    tag_19:\n      tag_94\n      0x04\n      dup1\n      calldatasize\n      sub\n      dup2\n      add\n      swap1\n      tag_95\n      swap2\n      swap1\n      tag_96\n      jump\t// in\n    tag_95:\n      tag_97\n      jump\t// in\n    tag_94:\n      stop\n        /* \"contract/token/ERC721.sol\":5907:6071  function isApprovedForAll(address owner, address operator) public view virtual override returns (bool) {\r... */\n    tag_20:\n      tag_98\n      0x04\n      dup1\n      calldatasize\n      sub\n      dup2\n      add\n      swap1\n      tag_99\n      swap2\n      swap1\n      tag_100\n      jump\t// in\n    tag_99:\n      tag_101\n      jump\t// in\n    tag_98:\n      mload(0x40)\n      tag_102\n      swap2\n      swap1\n      tag_29\n      jump\t// in\n    tag_102:\n      mload(0x40)\n      dup1\n      swap2\n      sub\n      swap1\n      return\n        /* \"contract/token/ERC721.sol\":2884:3189  function supportsInterface(bytes4 interfaceId) public view virtual override(ERC165, IERC165) returns (bool) {\r... */\n    tag_27:\n        /* \"contract/token/ERC721.sol\":2986:2990  bool */\n      0x00\n        /* \"contract/token/ERC721.sol\":3038:3063  type(IERC721).interfaceId */\n      0x80ac58cd00000000000000000000000000000000000000000000000000000000\n        /* \"contract/token/ERC721.sol\":3023:3063  interfaceId == type(IERC721).interfaceId */\n      not(0xffffffffffffffffffffffffffffffffffffffffffffffffffffffff)\n      and\n        /* \"contract/token/ERC721.sol\":3023:3034  interfaceId */\n      dup3\n        /* \"contract/token/ERC721.sol\":3023:3063  interfaceId == type(IERC721).interfaceId */\n      not(0xffffffffffffffffffffffffffffffffffffffffffffffffffffffff)\n      and\n      eq\n        /* \"contract/token/ERC721.sol\":3023:3128  interfaceId == type(IERC721).interfaceId ||\r... */\n      dup1\n      tag_104\n      jumpi\n      pop\n        /* \"contract/token/ERC721.sol\":3095:3128  type(IERC721Metadata).interfaceId */\n      0x5b5e139f00000000000000000000000000000000000000000000000000000000\n        /* \"contract/token/ERC721.sol\":3080:3128  interfaceId == type(IERC721Metadata).interfaceId */\n      not(0xffffffffffffffffffffffffffffffffffffffffffffffffffffffff)\n      and\n        /* \"contract/token/ERC721.sol\":3080:3091  interfaceId */\n      dup3\n        /* \"contract/token/ERC721.sol\":3080:3128  interfaceId == type(IERC721Metadata).interfaceId */\n      not(0xffffffffffffffffffffffffffffffffffffffffffffffffffffffff)\n      and\n      eq\n        /* \"contract/token/ERC721.sol\":3023:3128  interfaceId == type(IERC721).interfaceId ||\r... */\n    tag_104:\n        /* \"contract/token/ERC721.sol\":3023:3181  interfaceId == type(IERC721).interfaceId ||\r... */\n      dup1\n      tag_105\n      jumpi\n      pop\n        /* \"contract/token/ERC721.sol\":3145:3181  super.supportsInterface(interfaceId) */\n      tag_106\n        /* \"contract/token/ERC721.sol\":3169:3180  interfaceId */\n      dup3\n        /* \"contract/token/ERC721.sol\":3145:3168  super.supportsInterface */\n      tag_107\n        /* \"contract/token/ERC721.sol\":3145:3181  super.supportsInterface(interfaceId) */\n      jump\t// in\n    tag_106:\n        /* \"contract/token/ERC721.sol\":3023:3181  interfaceId == type(IERC721).interfaceId ||\r... */\n    tag_105:\n        /* \"contract/token/ERC721.sol\":3003:3181  return\r... */\n      swap1\n      pop\n        /* \"contract/token/ERC721.sol\":2884:3189  function supportsInterface(bytes4 interfaceId) public view virtual override(ERC165, IERC165) returns (bool) {\r... */\n      swap2\n      swap1\n      pop\n      jump\t// out\n        /* \"contract/token/ERC721.sol\":1927:2368  function addHouse(uint _houseId, uint _serialNumber, uint _price, uint _priceDai, uint _area, address _sellerAddress, string memory _houseAddress) external returns(House memory){\r... */\n    tag_33:\n        /* \"contract/token/ERC721.sol\":2091:2103  House memory */\n      tag_108\n      tag_109\n      jump\t// in\n    tag_108:\n        /* \"contract/token/ERC721.sol\":2135:2141  houses */\n      0x06\n        /* \"contract/token/ERC721.sol\":2135:2151  houses[_houseId] */\n      0x00\n        /* \"contract/token/ERC721.sol\":2142:2150  _houseId */\n      dup10\n        /* \"contract/token/ERC721.sol\":2135:2151  houses[_houseId] */\n      dup2\n      mstore\n      0x20\n      add\n      swap1\n      dup2\n      mstore\n      0x20\n      add\n      0x00\n      keccak256\n        /* \"contract/token/ERC721.sol\":2135:2154  houses[_houseId].id */\n      0x00\n      add\n      sload\n        /* \"contract/token/ERC721.sol\":2123:2131  _houseId */\n      dup9\n        /* \"contract/token/ERC721.sol\":2123:2154  _houseId != houses[_houseId].id */\n      eq\n      iszero\n        /* \"contract/token/ERC721.sol\":2115:2186  require(_houseId != houses[_houseId].id, \"this houseId already exists\") */\n      tag_111\n      jumpi\n      mload(0x40)\n      0x08c379a000000000000000000000000000000000000000000000000000000000\n      dup2\n      mstore\n      0x04\n      add\n      tag_112\n      swap1\n      tag_113\n      jump\t// in\n    tag_112:\n      mload(0x40)\n      dup1\n      swap2\n      sub\n      swap1\n      revert\n    tag_111:\n        /* \"contract/token/ERC721.sol\":2216:2326  House(_houseId, _serialNumber, _price, _priceDai, _area, _sellerAddress, _sellerAddress, _houseAddress, false) */\n      mload(0x40)\n      dup1\n      0x0120\n      add\n      0x40\n      mstore\n      dup1\n        /* \"contract/token/ERC721.sol\":2222:2230  _houseId */\n      dup10\n        /* \"contract/token/ERC721.sol\":2216:2326  House(_houseId, _serialNumber, _price, _priceDai, _area, _sellerAddress, _sellerAddress, _houseAddress, false) */\n      dup2\n      mstore\n      0x20\n      add\n        /* \"contract/token/ERC721.sol\":2232:2245  _serialNumber */\n      dup9\n        /* \"contract/token/ERC721.sol\":2216:2326  House(_houseId, _serialNumber, _price, _priceDai, _area, _sellerAddress, _sellerAddress, _houseAddress, false) */\n      dup2\n      mstore\n      0x20\n      add\n        /* \"contract/token/ERC721.sol\":2247:2253  _price */\n      dup8\n        /* \"contract/token/ERC721.sol\":2216:2326  House(_houseId, _serialNumber, _price, _priceDai, _area, _sellerAddress, _sellerAddress, _houseAddress, false) */\n      dup2\n      mstore\n      0x20\n      add\n        /* \"contract/token/ERC721.sol\":2255:2264  _priceDai */\n      dup7\n        /* \"contract/token/ERC721.sol\":2216:2326  House(_houseId, _serialNumber, _price, _priceDai, _area, _sellerAddress, _sellerAddress, _houseAddress, false) */\n      dup2\n      mstore\n      0x20\n      add\n        /* \"contract/token/ERC721.sol\":2266:2271  _area */\n      dup6\n        /* \"contract/token/ERC721.sol\":2216:2326  House(_houseId, _serialNumber, _price, _priceDai, _area, _sellerAddress, _sellerAddress, _houseAddress, false) */\n      dup2\n      mstore\n      0x20\n      add\n        /* \"contract/token/ERC721.sol\":2273:2287  _sellerAddress */\n      dup5\n        /* \"contract/token/ERC721.sol\":2216:2326  House(_houseId, _serialNumber, _price, _priceDai, _area, _sellerAddress, _sellerAddress, _houseAddress, false) */\n      0xffffffffffffffffffffffffffffffffffffffff\n      and\n      dup2\n      mstore\n      0x20\n      add\n        /* \"contract/token/ERC721.sol\":2289:2303  _sellerAddress */\n      dup5\n        /* \"contract/token/ERC721.sol\":2216:2326  House(_houseId, _serialNumber, _price, _priceDai, _area, _sellerAddress, _sellerAddress, _houseAddress, false) */\n      0xffffffffffffffffffffffffffffffffffffffff\n      and\n      dup2\n      mstore\n      0x20\n      add\n        /* \"contract/token/ERC721.sol\":2305:2318  _houseAddress */\n      dup4\n        /* \"contract/token/ERC721.sol\":2216:2326  House(_houseId, _serialNumber, _price, _priceDai, _area, _sellerAddress, _sellerAddress, _houseAddress, false) */\n      dup2\n      mstore\n      0x20\n      add\n        /* \"contract/token/ERC721.sol\":2320:2325  false */\n      0x00\n        /* \"contract/token/ERC721.sol\":2216:2326  House(_houseId, _serialNumber, _price, _priceDai, _area, _sellerAddress, _sellerAddress, _houseAddress, false) */\n      iszero\n      iszero\n      dup2\n      mstore\n      pop\n        /* \"contract/token/ERC721.sol\":2197:2203  houses */\n      0x06\n        /* \"contract/token/ERC721.sol\":2197:2213  houses[_houseId] */\n      0x00\n        /* \"contract/token/ERC721.sol\":2204:2212  _houseId */\n      dup11\n        /* \"contract/token/ERC721.sol\":2197:2213  houses[_houseId] */\n      dup2\n      mstore\n      0x20\n      add\n      swap1\n      dup2\n      mstore\n      0x20\n      add\n      0x00\n      keccak256\n        /* \"contract/token/ERC721.sol\":2197:2326  houses[_houseId] = House(_houseId, _serialNumber, _price, _priceDai, _area, _sellerAddress, _sellerAddress, _houseAddress, false) */\n      0x00\n      dup3\n      add\n      mload\n      dup2\n      0x00\n      add\n      sstore\n      0x20\n      dup3\n      add\n      mload\n      dup2\n      0x01\n      add\n      sstore\n      0x40\n      dup3\n      add\n      mload\n      dup2\n      0x02\n      add\n      sstore\n      0x60\n      dup3\n      add\n      mload\n      dup2\n      0x03\n      add\n      sstore\n      0x80\n      dup3\n      add\n      mload\n      dup2\n      0x04\n      add\n      sstore\n      0xa0\n      dup3\n      add\n      mload\n      dup2\n      0x05\n      add\n      exp(0x0100, 0x00)\n      dup2\n      sload\n      dup2\n      0xffffffffffffffffffffffffffffffffffffffff\n      mul\n      not\n      and\n      swap1\n      dup4\n      0xffffffffffffffffffffffffffffffffffffffff\n      and\n      mul\n      or\n      swap1\n      sstore\n      pop\n      0xc0\n      dup3\n      add\n      mload\n      dup2\n      0x06\n      add\n      exp(0x0100, 0x00)\n      dup2\n      sload\n      dup2\n      0xffffffffffffffffffffffffffffffffffffffff\n      mul\n      not\n      and\n      swap1\n      dup4\n      0xffffffffffffffffffffffffffffffffffffffff\n      and\n      mul\n      or\n      swap1\n      sstore\n      pop\n      0xe0\n      dup3\n      add\n      mload\n      dup2\n      0x07\n      add\n      swap1\n      dup1\n      mload\n      swap1\n      0x20\n      add\n      swap1\n      tag_114\n      swap3\n      swap2\n      swap1\n      tag_115\n      jump\t// in\n    tag_114:\n      pop\n      0x0100\n      dup3\n      add\n      mload\n      dup2\n      0x08\n      add\n      exp(0x0100, 0x00)\n      dup2\n      sload\n      dup2\n      0xff\n      mul\n      not\n      and\n      swap1\n      dup4\n      iszero\n      iszero\n      mul\n      or\n      swap1\n      sstore\n      pop\n      swap1\n      pop\n      pop\n        /* \"contract/token/ERC721.sol\":2344:2350  houses */\n      0x06\n        /* \"contract/token/ERC721.sol\":2344:2360  houses[_houseId] */\n      0x00\n        /* \"contract/token/ERC721.sol\":2351:2359  _houseId */\n      dup10\n        /* \"contract/token/ERC721.sol\":2344:2360  houses[_houseId] */\n      dup2\n      mstore\n      0x20\n      add\n      swap1\n      dup2\n      mstore\n      0x20\n      add\n      0x00\n      keccak256\n        /* \"contract/token/ERC721.sol\":2337:2360  return houses[_houseId] */\n      mload(0x40)\n      dup1\n      0x0120\n      add\n      0x40\n      mstore\n      swap1\n      dup2\n      0x00\n      dup3\n      add\n      sload\n      dup2\n      mstore\n      0x20\n      add\n      0x01\n      dup3\n      add\n      sload\n      dup2\n      mstore\n      0x20\n      add\n      0x02\n      dup3\n      add\n      sload\n      dup2\n      mstore\n      0x20\n      add\n      0x03\n      dup3\n      add\n      sload\n      dup2\n      mstore\n      0x20\n      add\n      0x04\n      dup3\n      add\n      sload\n      dup2\n      mstore\n      0x20\n      add\n      0x05\n      dup3\n      add\n      0x00\n      swap1\n      sload\n      swap1\n      0x0100\n      exp\n      swap1\n      div\n      0xffffffffffffffffffffffffffffffffffffffff\n      and\n      0xffffffffffffffffffffffffffffffffffffffff\n      and\n      0xffffffffffffffffffffffffffffffffffffffff\n      and\n      dup2\n      mstore\n      0x20\n      add\n      0x06\n      dup3\n      add\n      0x00\n      swap1\n      sload\n      swap1\n      0x0100\n      exp\n      swap1\n      div\n      0xffffffffffffffffffffffffffffffffffffffff\n      and\n      0xffffffffffffffffffffffffffffffffffffffff\n      and\n      0xffffffffffffffffffffffffffffffffffffffff\n      and\n      dup2\n      mstore\n      0x20\n      add\n      0x07\n      dup3\n      add\n      dup1\n      sload\n      tag_116\n      swap1\n      tag_117\n      jump\t// in\n    tag_116:\n      dup1\n      0x1f\n      add\n      0x20\n      dup1\n      swap2\n      div\n      mul\n      0x20\n      add\n      mload(0x40)\n      swap1\n      dup2\n      add\n      0x40\n      mstore\n      dup1\n      swap3\n      swap2\n      swap1\n      dup2\n      dup2\n      mstore\n      0x20\n      add\n      dup3\n      dup1\n      sload\n      tag_118\n      swap1\n      tag_117\n      jump\t// in\n    tag_118:\n      dup1\n      iszero\n      tag_119\n      jumpi\n      dup1\n      0x1f\n      lt\n      tag_120\n      jumpi\n      0x0100\n      dup1\n      dup4\n      sload\n      div\n      mul\n      dup4\n      mstore\n      swap2\n      0x20\n      add\n      swap2\n      jump(tag_119)\n    tag_120:\n      dup3\n      add\n      swap2\n      swap1\n      0x00\n      mstore\n      keccak256(0x00, 0x20)\n      swap1\n    tag_121:\n      dup2\n      sload\n      dup2\n      mstore\n      swap1\n      0x01\n      add\n      swap1\n      0x20\n      add\n      dup1\n      dup4\n      gt\n      tag_121\n      jumpi\n      dup3\n      swap1\n      sub\n      0x1f\n      and\n      dup3\n      add\n      swap2\n    tag_119:\n      pop\n      pop\n      pop\n      pop\n      pop\n      dup2\n      mstore\n      0x20\n      add\n      0x08\n      dup3\n      add\n      0x00\n      swap1\n      sload\n      swap1\n      0x0100\n      exp\n      swap1\n      div\n      0xff\n      and\n      iszero\n      iszero\n      iszero\n      iszero\n      dup2\n      mstore\n      pop\n      pop\n      swap1\n      pop\n        /* \"contract/token/ERC721.sol\":1927:2368  function addHouse(uint _houseId, uint _serialNumber, uint _price, uint _priceDai, uint _area, address _sellerAddress, string memory _houseAddress) external returns(House memory){\r... */\n      swap8\n      swap7\n      pop\n      pop\n      pop\n      pop\n      pop\n      pop\n      pop\n      jump\t// out\n        /* \"contract/token/ERC721.sol\":3828:3928  function name() public view virtual override returns (string memory) {\r... */\n    tag_37:\n        /* \"contract/token/ERC721.sol\":3882:3895  string memory */\n      0x60\n        /* \"contract/token/ERC721.sol\":3915:3920  _name */\n      0x00\n        /* \"contract/token/ERC721.sol\":3908:3920  return _name */\n      dup1\n      sload\n      tag_123\n      swap1\n      tag_117\n      jump\t// in\n    tag_123:\n      dup1\n      0x1f\n      add\n      0x20\n      dup1\n      swap2\n      div\n      mul\n      0x20\n      add\n      mload(0x40)\n      swap1\n      dup2\n      add\n      0x40\n      mstore\n      dup1\n      swap3\n      swap2\n      swap1\n      dup2\n      dup2\n      mstore\n      0x20\n      add\n      dup3\n      dup1\n      sload\n      tag_124\n      swap1\n      tag_117\n      jump\t// in\n    tag_124:\n      dup1\n      iszero\n      tag_125\n      jumpi\n      dup1\n      0x1f\n      lt\n      tag_126\n      jumpi\n      0x0100\n      dup1\n      dup4\n      sload\n      div\n      mul\n      dup4\n      mstore\n      swap2\n      0x20\n      add\n      swap2\n      jump(tag_125)\n    tag_126:\n      dup3\n      add\n      swap2\n      swap1\n      0x00\n      mstore\n      keccak256(0x00, 0x20)\n      swap1\n    tag_127:\n      dup2\n      sload\n      dup2\n      mstore\n      swap1\n      0x01\n      add\n      swap1\n      0x20\n      add\n      dup1\n      dup4\n      gt\n      tag_127\n      jumpi\n      dup3\n      swap1\n      sub\n      0x1f\n      and\n      dup3\n      add\n      swap2\n    tag_125:\n      pop\n      pop\n      pop\n      pop\n      pop\n      swap1\n      pop\n        /* \"contract/token/ERC721.sol\":3828:3928  function name() public view virtual override returns (string memory) {\r... */\n      swap1\n      jump\t// out\n        /* \"contract/token/ERC721.sol\":5388:5609  function getApproved(uint256 tokenId) public view virtual override returns (address) {\r... */\n    tag_43:\n        /* \"contract/token/ERC721.sol\":5464:5471  address */\n      0x00\n        /* \"contract/token/ERC721.sol\":5492:5508  _exists(tokenId) */\n      tag_129\n        /* \"contract/token/ERC721.sol\":5500:5507  tokenId */\n      dup3\n        /* \"contract/token/ERC721.sol\":5492:5499  _exists */\n      tag_130\n        /* \"contract/token/ERC721.sol\":5492:5508  _exists(tokenId) */\n      jump\t// in\n    tag_129:\n        /* \"contract/token/ERC721.sol\":5484:5557  require(_exists(tokenId), \"ERC721: approved query for nonexistent token\") */\n      tag_131\n      jumpi\n      mload(0x40)\n      0x08c379a000000000000000000000000000000000000000000000000000000000\n      dup2\n      mstore\n      0x04\n      add\n      tag_132\n      swap1\n      tag_133\n      jump\t// in\n    tag_132:\n      mload(0x40)\n      dup1\n      swap2\n      sub\n      swap1\n      revert\n    tag_131:\n        /* \"contract/token/ERC721.sol\":5577:5592  _tokenApprovals */\n      0x04\n        /* \"contract/token/ERC721.sol\":5577:5601  _tokenApprovals[tokenId] */\n      0x00\n        /* \"contract/token/ERC721.sol\":5593:5600  tokenId */\n      dup4\n        /* \"contract/token/ERC721.sol\":5577:5601  _tokenApprovals[tokenId] */\n      dup2\n      mstore\n      0x20\n      add\n      swap1\n      dup2\n      mstore\n      0x20\n      add\n      0x00\n      keccak256\n      0x00\n      swap1\n      sload\n      swap1\n      0x0100\n      exp\n      swap1\n      div\n      0xffffffffffffffffffffffffffffffffffffffff\n      and\n        /* \"contract/token/ERC721.sol\":5570:5601  return _tokenApprovals[tokenId] */\n      swap1\n      pop\n        /* \"contract/token/ERC721.sol\":5388:5609  function getApproved(uint256 tokenId) public view virtual override returns (address) {\r... */\n      swap2\n      swap1\n      pop\n      jump\t// out\n        /* \"contract/token/ERC721.sol\":4911:5322  function approve(address to, uint256 tokenId) public virtual override {\r... */\n    tag_49:\n        /* \"contract/token/ERC721.sol\":4992:5005  address owner */\n      0x00\n        /* \"contract/token/ERC721.sol\":5008:5031  ERC721.ownerOf(tokenId) */\n      tag_135\n        /* \"contract/token/ERC721.sol\":5023:5030  tokenId */\n      dup3\n        /* \"contract/token/ERC721.sol\":5008:5022  ERC721.ownerOf */\n      tag_59\n        /* \"contract/token/ERC721.sol\":5008:5031  ERC721.ownerOf(tokenId) */\n      jump\t// in\n    tag_135:\n        /* \"contract/token/ERC721.sol\":4992:5031  address owner = ERC721.ownerOf(tokenId) */\n      swap1\n      pop\n        /* \"contract/token/ERC721.sol\":5056:5061  owner */\n      dup1\n        /* \"contract/token/ERC721.sol\":5050:5061  to != owner */\n      0xffffffffffffffffffffffffffffffffffffffff\n      and\n        /* \"contract/token/ERC721.sol\":5050:5052  to */\n      dup4\n        /* \"contract/token/ERC721.sol\":5050:5061  to != owner */\n      0xffffffffffffffffffffffffffffffffffffffff\n      and\n      eq\n      iszero\n        /* \"contract/token/ERC721.sol\":5042:5099  require(to != owner, \"ERC721: approval to current owner\") */\n      tag_136\n      jumpi\n      mload(0x40)\n      0x08c379a000000000000000000000000000000000000000000000000000000000\n      dup2\n      mstore\n      0x04\n      add\n      tag_137\n      swap1\n      tag_138\n      jump\t// in\n    tag_137:\n      mload(0x40)\n      dup1\n      swap2\n      sub\n      swap1\n      revert\n    tag_136:\n        /* \"contract/token/ERC721.sol\":5150:5155  owner */\n      dup1\n        /* \"contract/token/ERC721.sol\":5134:5155  _msgSender() == owner */\n      0xffffffffffffffffffffffffffffffffffffffff\n      and\n        /* \"contract/token/ERC721.sol\":5134:5146  _msgSender() */\n      tag_139\n        /* \"contract/token/ERC721.sol\":5134:5144  _msgSender */\n      tag_140\n        /* \"contract/token/ERC721.sol\":5134:5146  _msgSender() */\n      jump\t// in\n    tag_139:\n        /* \"contract/token/ERC721.sol\":5134:5155  _msgSender() == owner */\n      0xffffffffffffffffffffffffffffffffffffffff\n      and\n      eq\n        /* \"contract/token/ERC721.sol\":5134:5196  _msgSender() == owner || isApprovedForAll(owner, _msgSender()) */\n      dup1\n      tag_141\n      jumpi\n      pop\n        /* \"contract/token/ERC721.sol\":5159:5196  isApprovedForAll(owner, _msgSender()) */\n      tag_142\n        /* \"contract/token/ERC721.sol\":5176:5181  owner */\n      dup2\n        /* \"contract/token/ERC721.sol\":5183:5195  _msgSender() */\n      tag_143\n        /* \"contract/token/ERC721.sol\":5183:5193  _msgSender */\n      tag_140\n        /* \"contract/token/ERC721.sol\":5183:5195  _msgSender() */\n      jump\t// in\n    tag_143:\n        /* \"contract/token/ERC721.sol\":5159:5175  isApprovedForAll */\n      tag_101\n        /* \"contract/token/ERC721.sol\":5159:5196  isApprovedForAll(owner, _msgSender()) */\n      jump\t// in\n    tag_142:\n        /* \"contract/token/ERC721.sol\":5134:5196  _msgSender() == owner || isApprovedForAll(owner, _msgSender()) */\n    tag_141:\n        /* \"contract/token/ERC721.sol\":5112:5280  require(\r... */\n      tag_144\n      jumpi\n      mload(0x40)\n      0x08c379a000000000000000000000000000000000000000000000000000000000\n      dup2\n      mstore\n      0x04\n      add\n      tag_145\n      swap1\n      tag_146\n      jump\t// in\n    tag_145:\n      mload(0x40)\n      dup1\n      swap2\n      sub\n      swap1\n      revert\n    tag_144:\n        /* \"contract/token/ERC721.sol\":5293:5314  _approve(to, tokenId) */\n      tag_147\n        /* \"contract/token/ERC721.sol\":5302:5304  to */\n      dup4\n        /* \"contract/token/ERC721.sol\":5306:5313  tokenId */\n      dup4\n        /* \"contract/token/ERC721.sol\":5293:5301  _approve */\n      tag_148\n        /* \"contract/token/ERC721.sol\":5293:5314  _approve(to, tokenId) */\n      jump\t// in\n    tag_147:\n        /* \"contract/token/ERC721.sol\":4981:5322  {\r... */\n      pop\n        /* \"contract/token/ERC721.sol\":4911:5322  function approve(address to, uint256 tokenId) public virtual override {\r... */\n      pop\n      pop\n      jump\t// out\n        /* \"contract/token/ERC721.sol\":6138:6477  function transferFrom(\r... */\n    tag_53:\n        /* \"contract/token/ERC721.sol\":6333:6374  _isApprovedOrOwner(_msgSender(), tokenId) */\n      tag_150\n        /* \"contract/token/ERC721.sol\":6352:6364  _msgSender() */\n      tag_151\n        /* \"contract/token/ERC721.sol\":6352:6362  _msgSender */\n      tag_140\n        /* \"contract/token/ERC721.sol\":6352:6364  _msgSender() */\n      jump\t// in\n    tag_151:\n        /* \"contract/token/ERC721.sol\":6366:6373  tokenId */\n      dup3\n        /* \"contract/token/ERC721.sol\":6333:6351  _isApprovedOrOwner */\n      tag_152\n        /* \"contract/token/ERC721.sol\":6333:6374  _isApprovedOrOwner(_msgSender(), tokenId) */\n      jump\t// in\n    tag_150:\n        /* \"contract/token/ERC721.sol\":6325:6428  require(_isApprovedOrOwner(_msgSender(), tokenId), \"ERC721: transfer caller is not owner nor approved\") */\n      tag_153\n      jumpi\n      mload(0x40)\n      0x08c379a000000000000000000000000000000000000000000000000000000000\n      dup2\n      mstore\n      0x04\n      add\n      tag_154\n      swap1\n      tag_155\n      jump\t// in\n    tag_154:\n      mload(0x40)\n      dup1\n      swap2\n      sub\n      swap1\n      revert\n    tag_153:\n        /* \"contract/token/ERC721.sol\":6441:6469  _transfer(from, to, tokenId) */\n      tag_156\n        /* \"contract/token/ERC721.sol\":6451:6455  from */\n      dup4\n        /* \"contract/token/ERC721.sol\":6457:6459  to */\n      dup4\n        /* \"contract/token/ERC721.sol\":6461:6468  tokenId */\n      dup4\n        /* \"contract/token/ERC721.sol\":6441:6450  _transfer */\n      tag_157\n        /* \"contract/token/ERC721.sol\":6441:6469  _transfer(from, to, tokenId) */\n      jump\t// in\n    tag_156:\n        /* \"contract/token/ERC721.sol\":6138:6477  function transferFrom(\r... */\n      pop\n      pop\n      pop\n      jump\t// out\n        /* \"contract/token/ERC721.sol\":6548:6733  function safeTransferFrom(\r... */\n    tag_56:\n        /* \"contract/token/ERC721.sol\":6686:6725  safeTransferFrom(from, to, tokenId, \"\") */\n      tag_159\n        /* \"contract/token/ERC721.sol\":6703:6707  from */\n      dup4\n        /* \"contract/token/ERC721.sol\":6709:6711  to */\n      dup4\n        /* \"contract/token/ERC721.sol\":6713:6720  tokenId */\n      dup4\n        /* \"contract/token/ERC721.sol\":6686:6725  safeTransferFrom(from, to, tokenId, \"\") */\n      mload(0x40)\n      dup1\n      0x20\n      add\n      0x40\n      mstore\n      dup1\n      0x00\n      dup2\n      mstore\n      pop\n        /* \"contract/token/ERC721.sol\":6686:6702  safeTransferFrom */\n      tag_86\n        /* \"contract/token/ERC721.sol\":6686:6725  safeTransferFrom(from, to, tokenId, \"\") */\n      jump\t// in\n    tag_159:\n        /* \"contract/token/ERC721.sol\":6548:6733  function safeTransferFrom(\r... */\n      pop\n      pop\n      pop\n      jump\t// out\n        /* \"contract/token/ERC721.sol\":3522:3761  function ownerOf(uint256 tokenId) public view virtual override returns (address) {\r... */\n    tag_59:\n        /* \"contract/token/ERC721.sol\":3594:3601  address */\n      0x00\n        /* \"contract/token/ERC721.sol\":3614:3627  address owner */\n      dup1\n        /* \"contract/token/ERC721.sol\":3630:3637  _owners */\n      0x02\n        /* \"contract/token/ERC721.sol\":3630:3646  _owners[tokenId] */\n      0x00\n        /* \"contract/token/ERC721.sol\":3638:3645  tokenId */\n      dup5\n        /* \"contract/token/ERC721.sol\":3630:3646  _owners[tokenId] */\n      dup2\n      mstore\n      0x20\n      add\n      swap1\n      dup2\n      mstore\n      0x20\n      add\n      0x00\n      keccak256\n      0x00\n      swap1\n      sload\n      swap1\n      0x0100\n      exp\n      swap1\n      div\n      0xffffffffffffffffffffffffffffffffffffffff\n      and\n        /* \"contract/token/ERC721.sol\":3614:3646  address owner = _owners[tokenId] */\n      swap1\n      pop\n        /* \"contract/token/ERC721.sol\":3682:3683  0 */\n      0x00\n        /* \"contract/token/ERC721.sol\":3665:3684  owner != address(0) */\n      0xffffffffffffffffffffffffffffffffffffffff\n      and\n        /* \"contract/token/ERC721.sol\":3665:3670  owner */\n      dup2\n        /* \"contract/token/ERC721.sol\":3665:3684  owner != address(0) */\n      0xffffffffffffffffffffffffffffffffffffffff\n      and\n      eq\n      iszero\n        /* \"contract/token/ERC721.sol\":3657:3730  require(owner != address(0), \"ERC721: owner query for nonexistent token\") */\n      tag_161\n      jumpi\n      mload(0x40)\n      0x08c379a000000000000000000000000000000000000000000000000000000000\n      dup2\n      mstore\n      0x04\n      add\n      tag_162\n      swap1\n      tag_163\n      jump\t// in\n    tag_162:\n      mload(0x40)\n      dup1\n      swap2\n      sub\n      swap1\n      revert\n    tag_161:\n        /* \"contract/token/ERC721.sol\":3748:3753  owner */\n      dup1\n        /* \"contract/token/ERC721.sol\":3741:3753  return owner */\n      swap2\n      pop\n      pop\n        /* \"contract/token/ERC721.sol\":3522:3761  function ownerOf(uint256 tokenId) public view virtual override returns (address) {\r... */\n      swap2\n      swap1\n      pop\n      jump\t// out\n        /* \"contract/token/ERC721.sol\":3253:3460  function balanceOf(address owner) public view virtual override returns (uint256) {\r... */\n    tag_64:\n        /* \"contract/token/ERC721.sol\":3325:3332  uint256 */\n      0x00\n        /* \"contract/token/ERC721.sol\":3370:3371  0 */\n      dup1\n        /* \"contract/token/ERC721.sol\":3353:3372  owner != address(0) */\n      0xffffffffffffffffffffffffffffffffffffffff\n      and\n        /* \"contract/token/ERC721.sol\":3353:3358  owner */\n      dup3\n        /* \"contract/token/ERC721.sol\":3353:3372  owner != address(0) */\n      0xffffffffffffffffffffffffffffffffffffffff\n      and\n      eq\n      iszero\n        /* \"contract/token/ERC721.sol\":3345:3418  require(owner != address(0), \"ERC721: address zero is not a valid owner\") */\n      tag_165\n      jumpi\n      mload(0x40)\n      0x08c379a000000000000000000000000000000000000000000000000000000000\n      dup2\n      mstore\n      0x04\n      add\n      tag_166\n      swap1\n      tag_167\n      jump\t// in\n    tag_166:\n      mload(0x40)\n      dup1\n      swap2\n      sub\n      swap1\n      revert\n    tag_165:\n        /* \"contract/token/ERC721.sol\":3436:3445  _balances */\n      0x03\n        /* \"contract/token/ERC721.sol\":3436:3452  _balances[owner] */\n      0x00\n        /* \"contract/token/ERC721.sol\":3446:3451  owner */\n      dup4\n        /* \"contract/token/ERC721.sol\":3436:3452  _balances[owner] */\n      0xffffffffffffffffffffffffffffffffffffffff\n      and\n      0xffffffffffffffffffffffffffffffffffffffff\n      and\n      dup2\n      mstore\n      0x20\n      add\n      swap1\n      dup2\n      mstore\n      0x20\n      add\n      0x00\n      keccak256\n      sload\n        /* \"contract/token/ERC721.sol\":3429:3452  return _balances[owner] */\n      swap1\n      pop\n        /* \"contract/token/ERC721.sol\":3253:3460  function balanceOf(address owner) public view virtual override returns (uint256) {\r... */\n      swap2\n      swap1\n      pop\n      jump\t// out\n        /* \"contract/token/ERC721.sol\":3997:4101  function symbol() public view virtual override returns (string memory) {\r... */\n    tag_68:\n        /* \"contract/token/ERC721.sol\":4053:4066  string memory */\n      0x60\n        /* \"contract/token/ERC721.sol\":4086:4093  _symbol */\n      0x01\n        /* \"contract/token/ERC721.sol\":4079:4093  return _symbol */\n      dup1\n      sload\n      tag_169\n      swap1\n      tag_117\n      jump\t// in\n    tag_169:\n      dup1\n      0x1f\n      add\n      0x20\n      dup1\n      swap2\n      div\n      mul\n      0x20\n      add\n      mload(0x40)\n      swap1\n      dup2\n      add\n      0x40\n      mstore\n      dup1\n      swap3\n      swap2\n      swap1\n      dup2\n      dup2\n      mstore\n      0x20\n      add\n      dup3\n      dup1\n      sload\n      tag_170\n      swap1\n      tag_117\n      jump\t// in\n    tag_170:\n      dup1\n      iszero\n      tag_171\n      jumpi\n      dup1\n      0x1f\n      lt\n      tag_172\n      jumpi\n      0x0100\n      dup1\n      dup4\n      sload\n      div\n      mul\n      dup4\n      mstore\n      swap2\n      0x20\n      add\n      swap2\n      jump(tag_171)\n    tag_172:\n      dup3\n      add\n      swap2\n      swap1\n      0x00\n      mstore\n      keccak256(0x00, 0x20)\n      swap1\n    tag_173:\n      dup2\n      sload\n      dup2\n      mstore\n      swap1\n      0x01\n      add\n      swap1\n      0x20\n      add\n      dup1\n      dup4\n      gt\n      tag_173\n      jumpi\n      dup3\n      swap1\n      sub\n      0x1f\n      and\n      dup3\n      add\n      swap2\n    tag_171:\n      pop\n      pop\n      pop\n      pop\n      pop\n      swap1\n      pop\n        /* \"contract/token/ERC721.sol\":3997:4101  function symbol() public view virtual override returns (string memory) {\r... */\n      swap1\n      jump\t// out\n        /* \"contract/token/ERC721.sol\":5681:5836  function setApprovalForAll(address operator, bool approved) public virtual override {\r... */\n    tag_73:\n        /* \"contract/token/ERC721.sol\":5776:5828  _setApprovalForAll(_msgSender(), operator, approved) */\n      tag_175\n        /* \"contract/token/ERC721.sol\":5795:5807  _msgSender() */\n      tag_176\n        /* \"contract/token/ERC721.sol\":5795:5805  _msgSender */\n      tag_140\n        /* \"contract/token/ERC721.sol\":5795:5807  _msgSender() */\n      jump\t// in\n    tag_176:\n        /* \"contract/token/ERC721.sol\":5809:5817  operator */\n      dup4\n        /* \"contract/token/ERC721.sol\":5819:5827  approved */\n      dup4\n        /* \"contract/token/ERC721.sol\":5776:5794  _setApprovalForAll */\n      tag_177\n        /* \"contract/token/ERC721.sol\":5776:5828  _setApprovalForAll(_msgSender(), operator, approved) */\n      jump\t// in\n    tag_175:\n        /* \"contract/token/ERC721.sol\":5681:5836  function setApprovalForAll(address operator, bool approved) public virtual override {\r... */\n      pop\n      pop\n      jump\t// out\n        /* \"contract/token/ERC721.sol\":2376:2492  function getHouseInfo(uint _houseId) external view returns(House memory) {\r... */\n    tag_76:\n        /* \"contract/token/ERC721.sol\":2435:2447  House memory */\n      tag_178\n      tag_109\n      jump\t// in\n    tag_178:\n        /* \"contract/token/ERC721.sol\":2468:2474  houses */\n      0x06\n        /* \"contract/token/ERC721.sol\":2468:2484  houses[_houseId] */\n      0x00\n        /* \"contract/token/ERC721.sol\":2475:2483  _houseId */\n      dup4\n        /* \"contract/token/ERC721.sol\":2468:2484  houses[_houseId] */\n      dup2\n      mstore\n      0x20\n      add\n      swap1\n      dup2\n      mstore\n      0x20\n      add\n      0x00\n      keccak256\n        /* \"contract/token/ERC721.sol\":2461:2484  return houses[_houseId] */\n      mload(0x40)\n      dup1\n      0x0120\n      add\n      0x40\n      mstore\n      swap1\n      dup2\n      0x00\n      dup3\n      add\n      sload\n      dup2\n      mstore\n      0x20\n      add\n      0x01\n      dup3\n      add\n      sload\n      dup2\n      mstore\n      0x20\n      add\n      0x02\n      dup3\n      add\n      sload\n      dup2\n      mstore\n      0x20\n      add\n      0x03\n      dup3\n      add\n      sload\n      dup2\n      mstore\n      0x20\n      add\n      0x04\n      dup3\n      add\n      sload\n      dup2\n      mstore\n      0x20\n      add\n      0x05\n      dup3\n      add\n      0x00\n      swap1\n      sload\n      swap1\n      0x0100\n      exp\n      swap1\n      div\n      0xffffffffffffffffffffffffffffffffffffffff\n      and\n      0xffffffffffffffffffffffffffffffffffffffff\n      and\n      0xffffffffffffffffffffffffffffffffffffffff\n      and\n      dup2\n      mstore\n      0x20\n      add\n      0x06\n      dup3\n      add\n      0x00\n      swap1\n      sload\n      swap1\n      0x0100\n      exp\n      swap1\n      div\n      0xffffffffffffffffffffffffffffffffffffffff\n      and\n      0xffffffffffffffffffffffffffffffffffffffff\n      and\n      0xffffffffffffffffffffffffffffffffffffffff\n      and\n      dup2\n      mstore\n      0x20\n      add\n      0x07\n      dup3\n      add\n      dup1\n      sload\n      tag_180\n      swap1\n      tag_117\n      jump\t// in\n    tag_180:\n      dup1\n      0x1f\n      add\n      0x20\n      dup1\n      swap2\n      div\n      mul\n      0x20\n      add\n      mload(0x40)\n      swap1\n      dup2\n      add\n      0x40\n      mstore\n      dup1\n      swap3\n      swap2\n      swap1\n      dup2\n      dup2\n      mstore\n      0x20\n      add\n      dup3\n      dup1\n      sload\n      tag_181\n      swap1\n      tag_117\n      jump\t// in\n    tag_181:\n      dup1\n      iszero\n      tag_182\n      jumpi\n      dup1\n      0x1f\n      lt\n      tag_183\n      jumpi\n      0x0100\n      dup1\n      dup4\n      sload\n      div\n      mul\n      dup4\n      mstore\n      swap2\n      0x20\n      add\n      swap2\n      jump(tag_182)\n    tag_183:\n      dup3\n      add\n      swap2\n      swap1\n      0x00\n      mstore\n      keccak256(0x00, 0x20)\n      swap1\n    tag_184:\n      dup2\n      sload\n      dup2\n      mstore\n      swap1\n      0x01\n      add\n      swap1\n      0x20\n      add\n      dup1\n      dup4\n      gt\n      tag_184\n      jumpi\n      dup3\n      swap1\n      sub\n      0x1f\n      and\n      dup3\n      add\n      swap2\n    tag_182:\n      pop\n      pop\n      pop\n      pop\n      pop\n      dup2\n      mstore\n      0x20\n      add\n      0x08\n      dup3\n      add\n      0x00\n      swap1\n      sload\n      swap1\n      0x0100\n      exp\n      swap1\n      div\n      0xff\n      and\n      iszero\n      iszero\n      iszero\n      iszero\n      dup2\n      mstore\n      pop\n      pop\n      swap1\n      pop\n        /* \"contract/token/ERC721.sol\":2376:2492  function getHouseInfo(uint _houseId) external view returns(House memory) {\r... */\n      swap2\n      swap1\n      pop\n      jump\t// out\n        /* \"contract/token/ERC721.sol\":1608:1644  mapping(uint => House) public houses */\n    tag_80:\n      mstore(0x20, 0x06)\n      dup1\n      0x00\n      mstore\n      keccak256(0x00, 0x40)\n      0x00\n      swap2\n      pop\n      swap1\n      pop\n      dup1\n      0x00\n      add\n      sload\n      swap1\n      dup1\n      0x01\n      add\n      sload\n      swap1\n      dup1\n      0x02\n      add\n      sload\n      swap1\n      dup1\n      0x03\n      add\n      sload\n      swap1\n      dup1\n      0x04\n      add\n      sload\n      swap1\n      dup1\n      0x05\n      add\n      0x00\n      swap1\n      sload\n      swap1\n      0x0100\n      exp\n      swap1\n      div\n      0xffffffffffffffffffffffffffffffffffffffff\n      and\n      swap1\n      dup1\n      0x06\n      add\n      0x00\n      swap1\n      sload\n      swap1\n      0x0100\n      exp\n      swap1\n      div\n      0xffffffffffffffffffffffffffffffffffffffff\n      and\n      swap1\n      dup1\n      0x07\n      add\n      dup1\n      sload\n      tag_185\n      swap1\n      tag_117\n      jump\t// in\n    tag_185:\n      dup1\n      0x1f\n      add\n      0x20\n      dup1\n      swap2\n      div\n      mul\n      0x20\n      add\n      mload(0x40)\n      swap1\n      dup2\n      add\n      0x40\n      mstore\n      dup1\n      swap3\n      swap2\n      swap1\n      dup2\n      dup2\n      mstore\n      0x20\n      add\n      dup3\n      dup1\n      sload\n      tag_186\n      swap1\n      tag_117\n      jump\t// in\n    tag_186:\n      dup1\n      iszero\n      tag_187\n      jumpi\n      dup1\n      0x1f\n      lt\n      tag_188\n      jumpi\n      0x0100\n      dup1\n      dup4\n      sload\n      div\n      mul\n      dup4\n      mstore\n      swap2\n      0x20\n      add\n      swap2\n      jump(tag_187)\n    tag_188:\n      dup3\n      add\n      swap2\n      swap1\n      0x00\n      mstore\n      keccak256(0x00, 0x20)\n      swap1\n    tag_189:\n      dup2\n      sload\n      dup2\n      mstore\n      swap1\n      0x01\n      add\n      swap1\n      0x20\n      add\n      dup1\n      dup4\n      gt\n      tag_189\n      jumpi\n      dup3\n      swap1\n      sub\n      0x1f\n      and\n      dup3\n      add\n      swap2\n    tag_187:\n      pop\n      pop\n      pop\n      pop\n      pop\n      swap1\n      dup1\n      0x08\n      add\n      0x00\n      swap1\n      sload\n      swap1\n      0x0100\n      exp\n      swap1\n      div\n      0xff\n      and\n      swap1\n      pop\n      dup10\n      jump\t// out\n        /* \"contract/token/ERC721.sol\":6804:7130  function safeTransferFrom(\r... */\n    tag_86:\n        /* \"contract/token/ERC721.sol\":6978:7019  _isApprovedOrOwner(_msgSender(), tokenId) */\n      tag_191\n        /* \"contract/token/ERC721.sol\":6997:7009  _msgSender() */\n      tag_192\n        /* \"contract/token/ERC721.sol\":6997:7007  _msgSender */\n      tag_140\n        /* \"contract/token/ERC721.sol\":6997:7009  _msgSender() */\n      jump\t// in\n    tag_192:\n        /* \"contract/token/ERC721.sol\":7011:7018  tokenId */\n      dup4\n        /* \"contract/token/ERC721.sol\":6978:6996  _isApprovedOrOwner */\n      tag_152\n        /* \"contract/token/ERC721.sol\":6978:7019  _isApprovedOrOwner(_msgSender(), tokenId) */\n      jump\t// in\n    tag_191:\n        /* \"contract/token/ERC721.sol\":6970:7073  require(_isApprovedOrOwner(_msgSender(), tokenId), \"ERC721: transfer caller is not owner nor approved\") */\n      tag_193\n      jumpi\n      mload(0x40)\n      0x08c379a000000000000000000000000000000000000000000000000000000000\n      dup2\n      mstore\n      0x04\n      add\n      tag_194\n      swap1\n      tag_155\n      jump\t// in\n    tag_194:\n      mload(0x40)\n      dup1\n      swap2\n      sub\n      swap1\n      revert\n    tag_193:\n        /* \"contract/token/ERC721.sol\":7084:7122  _safeTransfer(from, to, tokenId, data) */\n      tag_195\n        /* \"contract/token/ERC721.sol\":7098:7102  from */\n      dup5\n        /* \"contract/token/ERC721.sol\":7104:7106  to */\n      dup5\n        /* \"contract/token/ERC721.sol\":7108:7115  tokenId */\n      dup5\n        /* \"contract/token/ERC721.sol\":7117:7121  data */\n      dup5\n        /* \"contract/token/ERC721.sol\":7084:7097  _safeTransfer */\n      tag_196\n        /* \"contract/token/ERC721.sol\":7084:7122  _safeTransfer(from, to, tokenId, data) */\n      jump\t// in\n    tag_195:\n        /* \"contract/token/ERC721.sol\":6804:7130  function safeTransferFrom(\r... */\n      pop\n      pop\n      pop\n      pop\n      jump\t// out\n        /* \"contract/token/ERC721.sol\":4172:4506  function tokenURI(uint256 tokenId) public view virtual override returns (string memory) {\r... */\n    tag_89:\n        /* \"contract/token/ERC721.sol\":4245:4258  string memory */\n      0x60\n        /* \"contract/token/ERC721.sol\":4279:4295  _exists(tokenId) */\n      tag_198\n        /* \"contract/token/ERC721.sol\":4287:4294  tokenId */\n      dup3\n        /* \"contract/token/ERC721.sol\":4279:4286  _exists */\n      tag_130\n        /* \"contract/token/ERC721.sol\":4279:4295  _exists(tokenId) */\n      jump\t// in\n    tag_198:\n        /* \"contract/token/ERC721.sol\":4271:4347  require(_exists(tokenId), \"ERC721Metadata: URI query for nonexistent token\") */\n      tag_199\n      jumpi\n      mload(0x40)\n      0x08c379a000000000000000000000000000000000000000000000000000000000\n      dup2\n      mstore\n      0x04\n      add\n      tag_200\n      swap1\n      tag_201\n      jump\t// in\n    tag_200:\n      mload(0x40)\n      dup1\n      swap2\n      sub\n      swap1\n      revert\n    tag_199:\n        /* \"contract/token/ERC721.sol\":4360:4381  string memory baseURI */\n      0x00\n        /* \"contract/token/ERC721.sol\":4384:4394  _baseURI() */\n      tag_202\n        /* \"contract/token/ERC721.sol\":4384:4392  _baseURI */\n      tag_203\n        /* \"contract/token/ERC721.sol\":4384:4394  _baseURI() */\n      jump\t// in\n    tag_202:\n        /* \"contract/token/ERC721.sol\":4360:4394  string memory baseURI = _baseURI() */\n      swap1\n      pop\n        /* \"contract/token/ERC721.sol\":4436:4437  0 */\n      0x00\n        /* \"contract/token/ERC721.sol\":4418:4425  baseURI */\n      dup2\n        /* \"contract/token/ERC721.sol\":4412:4433  bytes(baseURI).length */\n      mload\n        /* \"contract/token/ERC721.sol\":4412:4437  bytes(baseURI).length > 0 */\n      gt\n        /* \"contract/token/ERC721.sol\":4412:4498  bytes(baseURI).length > 0 ? string(abi.encodePacked(baseURI, tokenId.toString())) : \"\" */\n      tag_204\n      jumpi\n      mload(0x40)\n      dup1\n      0x20\n      add\n      0x40\n      mstore\n      dup1\n      0x00\n      dup2\n      mstore\n      pop\n      jump(tag_205)\n    tag_204:\n        /* \"contract/token/ERC721.sol\":4464:4471  baseURI */\n      dup1\n        /* \"contract/token/ERC721.sol\":4473:4491  tokenId.toString() */\n      tag_206\n        /* \"contract/token/ERC721.sol\":4473:4480  tokenId */\n      dup5\n        /* \"contract/token/ERC721.sol\":4473:4489  tokenId.toString */\n      tag_207\n        /* \"contract/token/ERC721.sol\":4473:4491  tokenId.toString() */\n      jump\t// in\n    tag_206:\n        /* \"contract/token/ERC721.sol\":4447:4492  abi.encodePacked(baseURI, tokenId.toString()) */\n      add(0x20, mload(0x40))\n      tag_208\n      swap3\n      swap2\n      swap1\n      tag_209\n      jump\t// in\n    tag_208:\n      mload(0x40)\n      0x20\n      dup2\n      dup4\n      sub\n      sub\n      dup2\n      mstore\n      swap1\n      0x40\n      mstore\n        /* \"contract/token/ERC721.sol\":4412:4498  bytes(baseURI).length > 0 ? string(abi.encodePacked(baseURI, tokenId.toString())) : \"\" */\n    tag_205:\n        /* \"contract/token/ERC721.sol\":4405:4498  return bytes(baseURI).length > 0 ? string(abi.encodePacked(baseURI, tokenId.toString())) : \"\" */\n      swap2\n      pop\n      pop\n        /* \"contract/token/ERC721.sol\":4172:4506  function tokenURI(uint256 tokenId) public view virtual override returns (string memory) {\r... */\n      swap2\n      swap1\n      pop\n      jump\t// out\n        /* \"contract/token/ERC721.sol\":2500:2607  function setDelistHouse(uint _houseId) external {\r... */\n    tag_93:\n        /* \"contract/token/ERC721.sol\":2595:2599  true */\n      0x01\n        /* \"contract/token/ERC721.sol\":2560:2566  houses */\n      0x06\n        /* \"contract/token/ERC721.sol\":2560:2576  houses[_houseId] */\n      0x00\n        /* \"contract/token/ERC721.sol\":2567:2575  _houseId */\n      dup4\n        /* \"contract/token/ERC721.sol\":2560:2576  houses[_houseId] */\n      dup2\n      mstore\n      0x20\n      add\n      swap1\n      dup2\n      mstore\n      0x20\n      add\n      0x00\n      keccak256\n        /* \"contract/token/ERC721.sol\":2560:2592  houses[_houseId].isdelistedHouse */\n      0x08\n      add\n      0x00\n        /* \"contract/token/ERC721.sol\":2560:2599  houses[_houseId].isdelistedHouse = true */\n      0x0100\n      exp\n      dup2\n      sload\n      dup2\n      0xff\n      mul\n      not\n      and\n      swap1\n      dup4\n      iszero\n      iszero\n      mul\n      or\n      swap1\n      sstore\n      pop\n        /* \"contract/token/ERC721.sol\":2500:2607  function setDelistHouse(uint _houseId) external {\r... */\n      pop\n      jump\t// out\n        /* \"contract/token/ERC721.sol\":2615:2753  function setbuyerAddress(uint _houseId, address _buyerAddress ) external {\r... */\n    tag_97:\n        /* \"contract/token/ERC721.sol\":2732:2745  _buyerAddress */\n      dup1\n        /* \"contract/token/ERC721.sol\":2700:2706  houses */\n      0x06\n        /* \"contract/token/ERC721.sol\":2700:2716  houses[_houseId] */\n      0x00\n        /* \"contract/token/ERC721.sol\":2707:2715  _houseId */\n      dup5\n        /* \"contract/token/ERC721.sol\":2700:2716  houses[_houseId] */\n      dup2\n      mstore\n      0x20\n      add\n      swap1\n      dup2\n      mstore\n      0x20\n      add\n      0x00\n      keccak256\n        /* \"contract/token/ERC721.sol\":2700:2729  houses[_houseId].buyerAddress */\n      0x06\n      add\n      0x00\n        /* \"contract/token/ERC721.sol\":2700:2745  houses[_houseId].buyerAddress = _buyerAddress */\n      0x0100\n      exp\n      dup2\n      sload\n      dup2\n      0xffffffffffffffffffffffffffffffffffffffff\n      mul\n      not\n      and\n      swap1\n      dup4\n      0xffffffffffffffffffffffffffffffffffffffff\n      and\n      mul\n      or\n      swap1\n      sstore\n      pop\n        /* \"contract/token/ERC721.sol\":2615:2753  function setbuyerAddress(uint _houseId, address _buyerAddress ) external {\r... */\n      pop\n      pop\n      jump\t// out\n        /* \"contract/token/ERC721.sol\":5907:6071  function isApprovedForAll(address owner, address operator) public view virtual override returns (bool) {\r... */\n    tag_101:\n        /* \"contract/token/ERC721.sol\":6004:6008  bool */\n      0x00\n        /* \"contract/token/ERC721.sol\":6028:6046  _operatorApprovals */\n      0x05\n        /* \"contract/token/ERC721.sol\":6028:6053  _operatorApprovals[owner] */\n      0x00\n        /* \"contract/token/ERC721.sol\":6047:6052  owner */\n      dup5\n        /* \"contract/token/ERC721.sol\":6028:6053  _operatorApprovals[owner] */\n      0xffffffffffffffffffffffffffffffffffffffff\n      and\n      0xffffffffffffffffffffffffffffffffffffffff\n      and\n      dup2\n      mstore\n      0x20\n      add\n      swap1\n      dup2\n      mstore\n      0x20\n      add\n      0x00\n      keccak256\n        /* \"contract/token/ERC721.sol\":6028:6063  _operatorApprovals[owner][operator] */\n      0x00\n        /* \"contract/token/ERC721.sol\":6054:6062  operator */\n      dup4\n        /* \"contract/token/ERC721.sol\":6028:6063  _operatorApprovals[owner][operator] */\n      0xffffffffffffffffffffffffffffffffffffffff\n      and\n      0xffffffffffffffffffffffffffffffffffffffff\n      and\n      dup2\n      mstore\n      0x20\n      add\n      swap1\n      dup2\n      mstore\n      0x20\n      add\n      0x00\n      keccak256\n      0x00\n      swap1\n      sload\n      swap1\n      0x0100\n      exp\n      swap1\n      div\n      0xff\n      and\n        /* \"contract/token/ERC721.sol\":6021:6063  return _operatorApprovals[owner][operator] */\n      swap1\n      pop\n        /* \"contract/token/ERC721.sol\":5907:6071  function isApprovedForAll(address owner, address operator) public view virtual override returns (bool) {\r... */\n      swap3\n      swap2\n      pop\n      pop\n      jump\t// out\n        /* \"utils/introspection/ERC165.sol\":854:1011  function supportsInterface(bytes4 interfaceId) public view virtual override returns (bool) {\r... */\n    tag_107:\n        /* \"utils/introspection/ERC165.sol\":939:943  bool */\n      0x00\n        /* \"utils/introspection/ERC165.sol\":978:1003  type(IERC165).interfaceId */\n      0x01ffc9a700000000000000000000000000000000000000000000000000000000\n        /* \"utils/introspection/ERC165.sol\":963:1003  interfaceId == type(IERC165).interfaceId */\n      not(0xffffffffffffffffffffffffffffffffffffffffffffffffffffffff)\n      and\n        /* \"utils/introspection/ERC165.sol\":963:974  interfaceId */\n      dup3\n        /* \"utils/introspection/ERC165.sol\":963:1003  interfaceId == type(IERC165).interfaceId */\n      not(0xffffffffffffffffffffffffffffffffffffffffffffffffffffffff)\n      and\n      eq\n        /* \"utils/introspection/ERC165.sol\":956:1003  return interfaceId == type(IERC165).interfaceId */\n      swap1\n      pop\n        /* \"utils/introspection/ERC165.sol\":854:1011  function supportsInterface(bytes4 interfaceId) public view virtual override returns (bool) {\r... */\n      swap2\n      swap1\n      pop\n      jump\t// out\n        /* \"contract/token/ERC721.sol\":8637:8764  function _exists(uint256 tokenId) internal view virtual returns (bool) {\r... */\n    tag_130:\n        /* \"contract/token/ERC721.sol\":8702:8706  bool */\n      0x00\n        /* \"contract/token/ERC721.sol\":8754:8755  0 */\n      dup1\n        /* \"contract/token/ERC721.sol\":8726:8756  _owners[tokenId] != address(0) */\n      0xffffffffffffffffffffffffffffffffffffffff\n      and\n        /* \"contract/token/ERC721.sol\":8726:8733  _owners */\n      0x02\n        /* \"contract/token/ERC721.sol\":8726:8742  _owners[tokenId] */\n      0x00\n        /* \"contract/token/ERC721.sol\":8734:8741  tokenId */\n      dup5\n        /* \"contract/token/ERC721.sol\":8726:8742  _owners[tokenId] */\n      dup2\n      mstore\n      0x20\n      add\n      swap1\n      dup2\n      mstore\n      0x20\n      add\n      0x00\n      keccak256\n      0x00\n      swap1\n      sload\n      swap1\n      0x0100\n      exp\n      swap1\n      div\n      0xffffffffffffffffffffffffffffffffffffffff\n      and\n        /* \"contract/token/ERC721.sol\":8726:8756  _owners[tokenId] != address(0) */\n      0xffffffffffffffffffffffffffffffffffffffff\n      and\n      eq\n      iszero\n        /* \"contract/token/ERC721.sol\":8719:8756  return _owners[tokenId] != address(0) */\n      swap1\n      pop\n        /* \"contract/token/ERC721.sol\":8637:8764  function _exists(uint256 tokenId) internal view virtual returns (bool) {\r... */\n      swap2\n      swap1\n      pop\n      jump\t// out\n        /* \"utils/Context.sol\":601:699  function _msgSender() internal view virtual returns (address) {\r... */\n    tag_140:\n        /* \"utils/Context.sol\":654:661  address */\n      0x00\n        /* \"utils/Context.sol\":681:691  msg.sender */\n      caller\n        /* \"utils/Context.sol\":674:691  return msg.sender */\n      swap1\n      pop\n        /* \"utils/Context.sol\":601:699  function _msgSender() internal view virtual returns (address) {\r... */\n      swap1\n      jump\t// out\n        /* \"contract/token/ERC721.sol\":12781:12955  function _approve(address to, uint256 tokenId) internal virtual {\r... */\n    tag_148:\n        /* \"contract/token/ERC721.sol\":12883:12885  to */\n      dup2\n        /* \"contract/token/ERC721.sol\":12856:12871  _tokenApprovals */\n      0x04\n        /* \"contract/token/ERC721.sol\":12856:12880  _tokenApprovals[tokenId] */\n      0x00\n        /* \"contract/token/ERC721.sol\":12872:12879  tokenId */\n      dup4\n        /* \"contract/token/ERC721.sol\":12856:12880  _tokenApprovals[tokenId] */\n      dup2\n      mstore\n      0x20\n      add\n      swap1\n      dup2\n      mstore\n      0x20\n      add\n      0x00\n      keccak256\n      0x00\n        /* \"contract/token/ERC721.sol\":12856:12885  _tokenApprovals[tokenId] = to */\n      0x0100\n      exp\n      dup2\n      sload\n      dup2\n      0xffffffffffffffffffffffffffffffffffffffff\n      mul\n      not\n      and\n      swap1\n      dup4\n      0xffffffffffffffffffffffffffffffffffffffff\n      and\n      mul\n      or\n      swap1\n      sstore\n      pop\n        /* \"contract/token/ERC721.sol\":12939:12946  tokenId */\n      dup1\n        /* \"contract/token/ERC721.sol\":12935:12937  to */\n      dup3\n        /* \"contract/token/ERC721.sol\":12901:12947  Approval(ERC721.ownerOf(tokenId), to, tokenId) */\n      0xffffffffffffffffffffffffffffffffffffffff\n      and\n        /* \"contract/token/ERC721.sol\":12910:12933  ERC721.ownerOf(tokenId) */\n      tag_217\n        /* \"contract/token/ERC721.sol\":12925:12932  tokenId */\n      dup4\n        /* \"contract/token/ERC721.sol\":12910:12924  ERC721.ownerOf */\n      tag_59\n        /* \"contract/token/ERC721.sol\":12910:12933  ERC721.ownerOf(tokenId) */\n      jump\t// in\n    tag_217:\n        /* \"contract/token/ERC721.sol\":12901:12947  Approval(ERC721.ownerOf(tokenId), to, tokenId) */\n      0xffffffffffffffffffffffffffffffffffffffff\n      and\n      0x8c5be1e5ebec7d5bd14f71427d1e84f3dd0314c0f7b2291e5b200ac8c7c3b925\n      mload(0x40)\n      mload(0x40)\n      dup1\n      swap2\n      sub\n      swap1\n      log4\n        /* \"contract/token/ERC721.sol\":12781:12955  function _approve(address to, uint256 tokenId) internal virtual {\r... */\n      pop\n      pop\n      jump\t// out\n        /* \"contract/token/ERC721.sol\":8931:9279  function _isApprovedOrOwner(address spender, uint256 tokenId) internal view virtual returns (bool) {\r... */\n    tag_152:\n        /* \"contract/token/ERC721.sol\":9024:9028  bool */\n      0x00\n        /* \"contract/token/ERC721.sol\":9049:9065  _exists(tokenId) */\n      tag_219\n        /* \"contract/token/ERC721.sol\":9057:9064  tokenId */\n      dup3\n        /* \"contract/token/ERC721.sol\":9049:9056  _exists */\n      tag_130\n        /* \"contract/token/ERC721.sol\":9049:9065  _exists(tokenId) */\n      jump\t// in\n    tag_219:\n        /* \"contract/token/ERC721.sol\":9041:9114  require(_exists(tokenId), \"ERC721: operator query for nonexistent token\") */\n      tag_220\n      jumpi\n      mload(0x40)\n      0x08c379a000000000000000000000000000000000000000000000000000000000\n      dup2\n      mstore\n      0x04\n      add\n      tag_221\n      swap1\n      tag_222\n      jump\t// in\n    tag_221:\n      mload(0x40)\n      dup1\n      swap2\n      sub\n      swap1\n      revert\n    tag_220:\n        /* \"contract/token/ERC721.sol\":9125:9138  address owner */\n      0x00\n        /* \"contract/token/ERC721.sol\":9141:9164  ERC721.ownerOf(tokenId) */\n      tag_223\n        /* \"contract/token/ERC721.sol\":9156:9163  tokenId */\n      dup4\n        /* \"contract/token/ERC721.sol\":9141:9155  ERC721.ownerOf */\n      tag_59\n        /* \"contract/token/ERC721.sol\":9141:9164  ERC721.ownerOf(tokenId) */\n      jump\t// in\n    tag_223:\n        /* \"contract/token/ERC721.sol\":9125:9164  address owner = ERC721.ownerOf(tokenId) */\n      swap1\n      pop\n        /* \"contract/token/ERC721.sol\":9194:9199  owner */\n      dup1\n        /* \"contract/token/ERC721.sol\":9183:9199  spender == owner */\n      0xffffffffffffffffffffffffffffffffffffffff\n      and\n        /* \"contract/token/ERC721.sol\":9183:9190  spender */\n      dup5\n        /* \"contract/token/ERC721.sol\":9183:9199  spender == owner */\n      0xffffffffffffffffffffffffffffffffffffffff\n      and\n      eq\n        /* \"contract/token/ERC721.sol\":9183:9235  spender == owner || isApprovedForAll(owner, spender) */\n      dup1\n      tag_224\n      jumpi\n      pop\n        /* \"contract/token/ERC721.sol\":9203:9235  isApprovedForAll(owner, spender) */\n      tag_225\n        /* \"contract/token/ERC721.sol\":9220:9225  owner */\n      dup2\n        /* \"contract/token/ERC721.sol\":9227:9234  spender */\n      dup6\n        /* \"contract/token/ERC721.sol\":9203:9219  isApprovedForAll */\n      tag_101\n        /* \"contract/token/ERC721.sol\":9203:9235  isApprovedForAll(owner, spender) */\n      jump\t// in\n    tag_225:\n        /* \"contract/token/ERC721.sol\":9183:9235  spender == owner || isApprovedForAll(owner, spender) */\n    tag_224:\n        /* \"contract/token/ERC721.sol\":9183:9270  spender == owner || isApprovedForAll(owner, spender) || getApproved(tokenId) == spender */\n      dup1\n      tag_226\n      jumpi\n      pop\n        /* \"contract/token/ERC721.sol\":9263:9270  spender */\n      dup4\n        /* \"contract/token/ERC721.sol\":9239:9270  getApproved(tokenId) == spender */\n      0xffffffffffffffffffffffffffffffffffffffff\n      and\n        /* \"contract/token/ERC721.sol\":9239:9259  getApproved(tokenId) */\n      tag_227\n        /* \"contract/token/ERC721.sol\":9251:9258  tokenId */\n      dup5\n        /* \"contract/token/ERC721.sol\":9239:9250  getApproved */\n      tag_43\n        /* \"contract/token/ERC721.sol\":9239:9259  getApproved(tokenId) */\n      jump\t// in\n    tag_227:\n        /* \"contract/token/ERC721.sol\":9239:9270  getApproved(tokenId) == spender */\n      0xffffffffffffffffffffffffffffffffffffffff\n      and\n      eq\n        /* \"contract/token/ERC721.sol\":9183:9270  spender == owner || isApprovedForAll(owner, spender) || getApproved(tokenId) == spender */\n    tag_226:\n        /* \"contract/token/ERC721.sol\":9175:9271  return (spender == owner || isApprovedForAll(owner, spender) || getApproved(tokenId) == spender) */\n      swap2\n      pop\n      pop\n        /* \"contract/token/ERC721.sol\":8931:9279  function _isApprovedOrOwner(address spender, uint256 tokenId) internal view virtual returns (bool) {\r... */\n      swap3\n      swap2\n      pop\n      pop\n      jump\t// out\n        /* \"contract/token/ERC721.sol\":12038:12663  function _transfer(\r... */\n    tag_157:\n        /* \"contract/token/ERC721.sol\":12197:12201  from */\n      dup3\n        /* \"contract/token/ERC721.sol\":12170:12201  ERC721.ownerOf(tokenId) == from */\n      0xffffffffffffffffffffffffffffffffffffffff\n      and\n        /* \"contract/token/ERC721.sol\":12170:12193  ERC721.ownerOf(tokenId) */\n      tag_229\n        /* \"contract/token/ERC721.sol\":12185:12192  tokenId */\n      dup3\n        /* \"contract/token/ERC721.sol\":12170:12184  ERC721.ownerOf */\n      tag_59\n        /* \"contract/token/ERC721.sol\":12170:12193  ERC721.ownerOf(tokenId) */\n      jump\t// in\n    tag_229:\n        /* \"contract/token/ERC721.sol\":12170:12201  ERC721.ownerOf(tokenId) == from */\n      0xffffffffffffffffffffffffffffffffffffffff\n      and\n      eq\n        /* \"contract/token/ERC721.sol\":12162:12243  require(ERC721.ownerOf(tokenId) == from, \"ERC721: transfer from incorrect owner\") */\n      tag_230\n      jumpi\n      mload(0x40)\n      0x08c379a000000000000000000000000000000000000000000000000000000000\n      dup2\n      mstore\n      0x04\n      add\n      tag_231\n      swap1\n      tag_232\n      jump\t// in\n    tag_231:\n      mload(0x40)\n      dup1\n      swap2\n      sub\n      swap1\n      revert\n    tag_230:\n        /* \"contract/token/ERC721.sol\":12276:12277  0 */\n      0x00\n        /* \"contract/token/ERC721.sol\":12262:12278  to != address(0) */\n      0xffffffffffffffffffffffffffffffffffffffff\n      and\n        /* \"contract/token/ERC721.sol\":12262:12264  to */\n      dup3\n        /* \"contract/token/ERC721.sol\":12262:12278  to != address(0) */\n      0xffffffffffffffffffffffffffffffffffffffff\n      and\n      eq\n      iszero\n        /* \"contract/token/ERC721.sol\":12254:12319  require(to != address(0), \"ERC721: transfer to the zero address\") */\n      tag_233\n      jumpi\n      mload(0x40)\n      0x08c379a000000000000000000000000000000000000000000000000000000000\n      dup2\n      mstore\n      0x04\n      add\n      tag_234\n      swap1\n      tag_235\n      jump\t// in\n    tag_234:\n      mload(0x40)\n      dup1\n      swap2\n      sub\n      swap1\n      revert\n    tag_233:\n        /* \"contract/token/ERC721.sol\":12332:12371  _beforeTokenTransfer(from, to, tokenId) */\n      tag_236\n        /* \"contract/token/ERC721.sol\":12353:12357  from */\n      dup4\n        /* \"contract/token/ERC721.sol\":12359:12361  to */\n      dup4\n        /* \"contract/token/ERC721.sol\":12363:12370  tokenId */\n      dup4\n        /* \"contract/token/ERC721.sol\":12332:12352  _beforeTokenTransfer */\n      tag_237\n        /* \"contract/token/ERC721.sol\":12332:12371  _beforeTokenTransfer(from, to, tokenId) */\n      jump\t// in\n    tag_236:\n        /* \"contract/token/ERC721.sol\":12436:12465  _approve(address(0), tokenId) */\n      tag_238\n        /* \"contract/token/ERC721.sol\":12453:12454  0 */\n      0x00\n        /* \"contract/token/ERC721.sol\":12457:12464  tokenId */\n      dup3\n        /* \"contract/token/ERC721.sol\":12436:12444  _approve */\n      tag_148\n        /* \"contract/token/ERC721.sol\":12436:12465  _approve(address(0), tokenId) */\n      jump\t// in\n    tag_238:\n        /* \"contract/token/ERC721.sol\":12497:12498  1 */\n      0x01\n        /* \"contract/token/ERC721.sol\":12478:12487  _balances */\n      0x03\n        /* \"contract/token/ERC721.sol\":12478:12493  _balances[from] */\n      0x00\n        /* \"contract/token/ERC721.sol\":12488:12492  from */\n      dup6\n        /* \"contract/token/ERC721.sol\":12478:12493  _balances[from] */\n      0xffffffffffffffffffffffffffffffffffffffff\n      and\n      0xffffffffffffffffffffffffffffffffffffffff\n      and\n      dup2\n      mstore\n      0x20\n      add\n      swap1\n      dup2\n      mstore\n      0x20\n      add\n      0x00\n      keccak256\n      0x00\n        /* \"contract/token/ERC721.sol\":12478:12498  _balances[from] -= 1 */\n      dup3\n      dup3\n      sload\n      tag_239\n      swap2\n      swap1\n      tag_240\n      jump\t// in\n    tag_239:\n      swap3\n      pop\n      pop\n      dup2\n      swap1\n      sstore\n      pop\n        /* \"contract/token/ERC721.sol\":12526:12527  1 */\n      0x01\n        /* \"contract/token/ERC721.sol\":12509:12518  _balances */\n      0x03\n        /* \"contract/token/ERC721.sol\":12509:12522  _balances[to] */\n      0x00\n        /* \"contract/token/ERC721.sol\":12519:12521  to */\n      dup5\n        /* \"contract/token/ERC721.sol\":12509:12522  _balances[to] */\n      0xffffffffffffffffffffffffffffffffffffffff\n      and\n      0xffffffffffffffffffffffffffffffffffffffff\n      and\n      dup2\n      mstore\n      0x20\n      add\n      swap1\n      dup2\n      mstore\n      0x20\n      add\n      0x00\n      keccak256\n      0x00\n        /* \"contract/token/ERC721.sol\":12509:12527  _balances[to] += 1 */\n      dup3\n      dup3\n      sload\n      tag_241\n      swap2\n      swap1\n      tag_242\n      jump\t// in\n    tag_241:\n      swap3\n      pop\n      pop\n      dup2\n      swap1\n      sstore\n      pop\n        /* \"contract/token/ERC721.sol\":12557:12559  to */\n      dup2\n        /* \"contract/token/ERC721.sol\":12538:12545  _owners */\n      0x02\n        /* \"contract/token/ERC721.sol\":12538:12554  _owners[tokenId] */\n      0x00\n        /* \"contract/token/ERC721.sol\":12546:12553  tokenId */\n      dup4\n        /* \"contract/token/ERC721.sol\":12538:12554  _owners[tokenId] */\n      dup2\n      mstore\n      0x20\n      add\n      swap1\n      dup2\n      mstore\n      0x20\n      add\n      0x00\n      keccak256\n      0x00\n        /* \"contract/token/ERC721.sol\":12538:12559  _owners[tokenId] = to */\n      0x0100\n      exp\n      dup2\n      sload\n      dup2\n      0xffffffffffffffffffffffffffffffffffffffff\n      mul\n      not\n      and\n      swap1\n      dup4\n      0xffffffffffffffffffffffffffffffffffffffff\n      and\n      mul\n      or\n      swap1\n      sstore\n      pop\n        /* \"contract/token/ERC721.sol\":12596:12603  tokenId */\n      dup1\n        /* \"contract/token/ERC721.sol\":12592:12594  to */\n      dup3\n        /* \"contract/token/ERC721.sol\":12577:12604  Transfer(from, to, tokenId) */\n      0xffffffffffffffffffffffffffffffffffffffff\n      and\n        /* \"contract/token/ERC721.sol\":12586:12590  from */\n      dup5\n        /* \"contract/token/ERC721.sol\":12577:12604  Transfer(from, to, tokenId) */\n      0xffffffffffffffffffffffffffffffffffffffff\n      and\n      0xddf252ad1be2c89b69c2b068fc378daa952ba7f163c4a11628f55a4df523b3ef\n      mload(0x40)\n      mload(0x40)\n      dup1\n      swap2\n      sub\n      swap1\n      log4\n        /* \"contract/token/ERC721.sol\":12617:12655  _afterTokenTransfer(from, to, tokenId) */\n      tag_243\n        /* \"contract/token/ERC721.sol\":12637:12641  from */\n      dup4\n        /* \"contract/token/ERC721.sol\":12643:12645  to */\n      dup4\n        /* \"contract/token/ERC721.sol\":12647:12654  tokenId */\n      dup4\n        /* \"contract/token/ERC721.sol\":12617:12636  _afterTokenTransfer */\n      tag_244\n        /* \"contract/token/ERC721.sol\":12617:12655  _afterTokenTransfer(from, to, tokenId) */\n      jump\t// in\n    tag_243:\n        /* \"contract/token/ERC721.sol\":12038:12663  function _transfer(\r... */\n      pop\n      pop\n      pop\n      jump\t// out\n        /* \"contract/token/ERC721.sol\":13097:13412  function _setApprovalForAll(\r... */\n    tag_177:\n        /* \"contract/token/ERC721.sol\":13252:13260  operator */\n      dup2\n        /* \"contract/token/ERC721.sol\":13243:13260  owner != operator */\n      0xffffffffffffffffffffffffffffffffffffffff\n      and\n        /* \"contract/token/ERC721.sol\":13243:13248  owner */\n      dup4\n        /* \"contract/token/ERC721.sol\":13243:13260  owner != operator */\n      0xffffffffffffffffffffffffffffffffffffffff\n      and\n      eq\n      iszero\n        /* \"contract/token/ERC721.sol\":13235:13290  require(owner != operator, \"ERC721: approve to caller\") */\n      tag_246\n      jumpi\n      mload(0x40)\n      0x08c379a000000000000000000000000000000000000000000000000000000000\n      dup2\n      mstore\n      0x04\n      add\n      tag_247\n      swap1\n      tag_248\n      jump\t// in\n    tag_247:\n      mload(0x40)\n      dup1\n      swap2\n      sub\n      swap1\n      revert\n    tag_246:\n        /* \"contract/token/ERC721.sol\":13339:13347  approved */\n      dup1\n        /* \"contract/token/ERC721.sol\":13301:13319  _operatorApprovals */\n      0x05\n        /* \"contract/token/ERC721.sol\":13301:13326  _operatorApprovals[owner] */\n      0x00\n        /* \"contract/token/ERC721.sol\":13320:13325  owner */\n      dup6\n        /* \"contract/token/ERC721.sol\":13301:13326  _operatorApprovals[owner] */\n      0xffffffffffffffffffffffffffffffffffffffff\n      and\n      0xffffffffffffffffffffffffffffffffffffffff\n      and\n      dup2\n      mstore\n      0x20\n      add\n      swap1\n      dup2\n      mstore\n      0x20\n      add\n      0x00\n      keccak256\n        /* \"contract/token/ERC721.sol\":13301:13336  _operatorApprovals[owner][operator] */\n      0x00\n        /* \"contract/token/ERC721.sol\":13327:13335  operator */\n      dup5\n        /* \"contract/token/ERC721.sol\":13301:13336  _operatorApprovals[owner][operator] */\n      0xffffffffffffffffffffffffffffffffffffffff\n      and\n      0xffffffffffffffffffffffffffffffffffffffff\n      and\n      dup2\n      mstore\n      0x20\n      add\n      swap1\n      dup2\n      mstore\n      0x20\n      add\n      0x00\n      keccak256\n      0x00\n        /* \"contract/token/ERC721.sol\":13301:13347  _operatorApprovals[owner][operator] = approved */\n      0x0100\n      exp\n      dup2\n      sload\n      dup2\n      0xff\n      mul\n      not\n      and\n      swap1\n      dup4\n      iszero\n      iszero\n      mul\n      or\n      swap1\n      sstore\n      pop\n        /* \"contract/token/ERC721.sol\":13385:13393  operator */\n      dup2\n        /* \"contract/token/ERC721.sol\":13363:13404  ApprovalForAll(owner, operator, approved) */\n      0xffffffffffffffffffffffffffffffffffffffff\n      and\n        /* \"contract/token/ERC721.sol\":13378:13383  owner */\n      dup4\n        /* \"contract/token/ERC721.sol\":13363:13404  ApprovalForAll(owner, operator, approved) */\n      0xffffffffffffffffffffffffffffffffffffffff\n      and\n      0x17307eab39ab6107e8899845ad3d59bd9653f200f220920489ca2b5937696c31\n        /* \"contract/token/ERC721.sol\":13395:13403  approved */\n      dup4\n        /* \"contract/token/ERC721.sol\":13363:13404  ApprovalForAll(owner, operator, approved) */\n      mload(0x40)\n      tag_249\n      swap2\n      swap1\n      tag_29\n      jump\t// in\n    tag_249:\n      mload(0x40)\n      dup1\n      swap2\n      sub\n      swap1\n      log3\n        /* \"contract/token/ERC721.sol\":13097:13412  function _setApprovalForAll(\r... */\n      pop\n      pop\n      pop\n      jump\t// out\n        /* \"contract/token/ERC721.sol\":8011:8324  function _safeTransfer(\r... */\n    tag_196:\n        /* \"contract/token/ERC721.sol\":8167:8195  _transfer(from, to, tokenId) */\n      tag_251\n        /* \"contract/token/ERC721.sol\":8177:8181  from */\n      dup5\n        /* \"contract/token/ERC721.sol\":8183:8185  to */\n      dup5\n        /* \"contract/token/ERC721.sol\":8187:8194  tokenId */\n      dup5\n        /* \"contract/token/ERC721.sol\":8167:8176  _transfer */\n      tag_157\n        /* \"contract/token/ERC721.sol\":8167:8195  _transfer(from, to, tokenId) */\n      jump\t// in\n    tag_251:\n        /* \"contract/token/ERC721.sol\":8214:8261  _checkOnERC721Received(from, to, tokenId, data) */\n      tag_252\n        /* \"contract/token/ERC721.sol\":8237:8241  from */\n      dup5\n        /* \"contract/token/ERC721.sol\":8243:8245  to */\n      dup5\n        /* \"contract/token/ERC721.sol\":8247:8254  tokenId */\n      dup5\n        /* \"contract/token/ERC721.sol\":8256:8260  data */\n      dup5\n        /* \"contract/token/ERC721.sol\":8214:8236  _checkOnERC721Received */\n      tag_253\n        /* \"contract/token/ERC721.sol\":8214:8261  _checkOnERC721Received(from, to, tokenId, data) */\n      jump\t// in\n    tag_252:\n        /* \"contract/token/ERC721.sol\":8206:8316  require(_checkOnERC721Received(from, to, tokenId, data), \"ERC721: transfer to non ERC721Receiver implementer\") */\n      tag_254\n      jumpi\n      mload(0x40)\n      0x08c379a000000000000000000000000000000000000000000000000000000000\n      dup2\n      mstore\n      0x04\n      add\n      tag_255\n      swap1\n      tag_256\n      jump\t// in\n    tag_255:\n      mload(0x40)\n      dup1\n      swap2\n      sub\n      swap1\n      revert\n    tag_254:\n        /* \"contract/token/ERC721.sol\":8011:8324  function _safeTransfer(\r... */\n      pop\n      pop\n      pop\n      pop\n      jump\t// out\n        /* \"contract/token/ERC721.sol\":4755:4849  function _baseURI() internal view virtual returns (string memory) {\r... */\n    tag_203:\n        /* \"contract/token/ERC721.sol\":4806:4819  string memory */\n      0x60\n        /* \"contract/token/ERC721.sol\":4832:4841  return \"\" */\n      mload(0x40)\n      dup1\n      0x20\n      add\n      0x40\n      mstore\n      dup1\n      0x00\n      dup2\n      mstore\n      pop\n      swap1\n      pop\n        /* \"contract/token/ERC721.sol\":4755:4849  function _baseURI() internal view virtual returns (string memory) {\r... */\n      swap1\n      jump\t// out\n        /* \"utils/Strings.sol\":342:1065  function toString(uint256 value) internal pure returns (string memory) {\r... */\n    tag_207:\n        /* \"utils/Strings.sol\":398:411  string memory */\n      0x60\n        /* \"utils/Strings.sol\":628:629  0 */\n      0x00\n        /* \"utils/Strings.sol\":619:624  value */\n      dup3\n        /* \"utils/Strings.sol\":619:629  value == 0 */\n      eq\n        /* \"utils/Strings.sol\":615:668  if (value == 0) {\r... */\n      iszero\n      tag_259\n      jumpi\n        /* \"utils/Strings.sol\":646:656  return \"0\" */\n      mload(0x40)\n      dup1\n      0x40\n      add\n      0x40\n      mstore\n      dup1\n      0x01\n      dup2\n      mstore\n      0x20\n      add\n      0x3000000000000000000000000000000000000000000000000000000000000000\n      dup2\n      mstore\n      pop\n      swap1\n      pop\n      jump(tag_258)\n        /* \"utils/Strings.sol\":615:668  if (value == 0) {\r... */\n    tag_259:\n        /* \"utils/Strings.sol\":678:690  uint256 temp */\n      0x00\n        /* \"utils/Strings.sol\":693:698  value */\n      dup3\n        /* \"utils/Strings.sol\":678:698  uint256 temp = value */\n      swap1\n      pop\n        /* \"utils/Strings.sol\":709:723  uint256 digits */\n      0x00\n        /* \"utils/Strings.sol\":734:812  while (temp != 0) {\r... */\n    tag_260:\n        /* \"utils/Strings.sol\":749:750  0 */\n      0x00\n        /* \"utils/Strings.sol\":741:745  temp */\n      dup3\n        /* \"utils/Strings.sol\":741:750  temp != 0 */\n      eq\n        /* \"utils/Strings.sol\":734:812  while (temp != 0) {\r... */\n      tag_261\n      jumpi\n        /* \"utils/Strings.sol\":767:775  digits++ */\n      dup1\n      dup1\n      tag_262\n      swap1\n      tag_263\n      jump\t// in\n    tag_262:\n      swap2\n      pop\n      pop\n        /* \"utils/Strings.sol\":798:800  10 */\n      0x0a\n        /* \"utils/Strings.sol\":790:800  temp /= 10 */\n      dup3\n      tag_264\n      swap2\n      swap1\n      tag_265\n      jump\t// in\n    tag_264:\n      swap2\n      pop\n        /* \"utils/Strings.sol\":734:812  while (temp != 0) {\r... */\n      jump(tag_260)\n    tag_261:\n        /* \"utils/Strings.sol\":822:841  bytes memory buffer */\n      0x00\n        /* \"utils/Strings.sol\":854:860  digits */\n      dup2\n        /* \"utils/Strings.sol\":844:861  new bytes(digits) */\n      0xffffffffffffffff\n      dup2\n      gt\n      iszero\n      tag_266\n      jumpi\n      tag_267\n      tag_268\n      jump\t// in\n    tag_267:\n    tag_266:\n      mload(0x40)\n      swap1\n      dup1\n      dup3\n      mstore\n      dup1\n      0x1f\n      add\n      not(0x1f)\n      and\n      0x20\n      add\n      dup3\n      add\n      0x40\n      mstore\n      dup1\n      iszero\n      tag_269\n      jumpi\n      dup2\n      0x20\n      add\n      0x01\n      dup3\n      mul\n      dup1\n      calldatasize\n      dup4\n      calldatacopy\n      dup1\n      dup3\n      add\n      swap2\n      pop\n      pop\n      swap1\n      pop\n    tag_269:\n      pop\n        /* \"utils/Strings.sol\":822:861  bytes memory buffer = new bytes(digits) */\n      swap1\n      pop\n        /* \"utils/Strings.sol\":872:1026  while (value != 0) {\r... */\n    tag_270:\n        /* \"utils/Strings.sol\":888:889  0 */\n      0x00\n        /* \"utils/Strings.sol\":879:884  value */\n      dup6\n        /* \"utils/Strings.sol\":879:889  value != 0 */\n      eq\n        /* \"utils/Strings.sol\":872:1026  while (value != 0) {\r... */\n      tag_271\n      jumpi\n        /* \"utils/Strings.sol\":916:917  1 */\n      0x01\n        /* \"utils/Strings.sol\":906:917  digits -= 1 */\n      dup3\n      tag_272\n      swap2\n      swap1\n      tag_240\n      jump\t// in\n    tag_272:\n      swap2\n      pop\n        /* \"utils/Strings.sol\":983:985  10 */\n      0x0a\n        /* \"utils/Strings.sol\":975:980  value */\n      dup6\n        /* \"utils/Strings.sol\":975:985  value % 10 */\n      tag_273\n      swap2\n      swap1\n      tag_274\n      jump\t// in\n    tag_273:\n        /* \"utils/Strings.sol\":962:964  48 */\n      0x30\n        /* \"utils/Strings.sol\":962:986  48 + uint256(value % 10) */\n      tag_275\n      swap2\n      swap1\n      tag_242\n      jump\t// in\n    tag_275:\n        /* \"utils/Strings.sol\":949:988  bytes1(uint8(48 + uint256(value % 10))) */\n      0xf8\n      shl\n        /* \"utils/Strings.sol\":932:938  buffer */\n      dup2\n        /* \"utils/Strings.sol\":939:945  digits */\n      dup4\n        /* \"utils/Strings.sol\":932:946  buffer[digits] */\n      dup2\n      mload\n      dup2\n      lt\n      tag_276\n      jumpi\n      tag_277\n      tag_278\n      jump\t// in\n    tag_277:\n    tag_276:\n      0x20\n      add\n      add\n        /* \"utils/Strings.sol\":932:988  buffer[digits] = bytes1(uint8(48 + uint256(value % 10))) */\n      swap1\n      not(0xffffffffffffffffffffffffffffffffffffffffffffffffffffffffffffff)\n      and\n      swap1\n      dup2\n      0x00\n      byte\n      swap1\n      mstore8\n      pop\n        /* \"utils/Strings.sol\":1012:1014  10 */\n      0x0a\n        /* \"utils/Strings.sol\":1003:1014  value /= 10 */\n      dup6\n      tag_279\n      swap2\n      swap1\n      tag_265\n      jump\t// in\n    tag_279:\n      swap5\n      pop\n        /* \"utils/Strings.sol\":872:1026  while (value != 0) {\r... */\n      jump(tag_270)\n    tag_271:\n        /* \"utils/Strings.sol\":1050:1056  buffer */\n      dup1\n        /* \"utils/Strings.sol\":1036:1057  return string(buffer) */\n      swap4\n      pop\n      pop\n      pop\n      pop\n        /* \"utils/Strings.sol\":342:1065  function toString(uint256 value) internal pure returns (string memory) {\r... */\n    tag_258:\n      swap2\n      swap1\n      pop\n      jump\t// out\n        /* \"contract/token/ERC721.sol\":15345:15471  function _beforeTokenTransfer(\r... */\n    tag_237:\n      pop\n      pop\n      pop\n      jump\t// out\n        /* \"contract/token/ERC721.sol\":15856:15981  function _afterTokenTransfer(\r... */\n    tag_244:\n      pop\n      pop\n      pop\n      jump\t// out\n        /* \"contract/token/ERC721.sol\":13976:14773  function _checkOnERC721Received(\r... */\n    tag_253:\n        /* \"contract/token/ERC721.sol\":14130:14134  bool */\n      0x00\n        /* \"contract/token/ERC721.sol\":14151:14166  to.isContract() */\n      tag_283\n        /* \"contract/token/ERC721.sol\":14151:14153  to */\n      dup5\n        /* \"contract/token/ERC721.sol\":14151:14164  to.isContract */\n      0xffffffffffffffffffffffffffffffffffffffff\n      and\n      tag_284\n        /* \"contract/token/ERC721.sol\":14151:14166  to.isContract() */\n      jump\t// in\n    tag_283:\n        /* \"contract/token/ERC721.sol\":14147:14766  if (to.isContract()) {\r... */\n      iszero\n      tag_285\n      jumpi\n        /* \"contract/token/ERC721.sol\":14203:14205  to */\n      dup4\n        /* \"contract/token/ERC721.sol\":14187:14223  IERC721Receiver(to).onERC721Received */\n      0xffffffffffffffffffffffffffffffffffffffff\n      and\n      0x150b7a02\n        /* \"contract/token/ERC721.sol\":14224:14236  _msgSender() */\n      tag_286\n        /* \"contract/token/ERC721.sol\":14224:14234  _msgSender */\n      tag_140\n        /* \"contract/token/ERC721.sol\":14224:14236  _msgSender() */\n      jump\t// in\n    tag_286:\n        /* \"contract/token/ERC721.sol\":14238:14242  from */\n      dup8\n        /* \"contract/token/ERC721.sol\":14244:14251  tokenId */\n      dup7\n        /* \"contract/token/ERC721.sol\":14253:14257  data */\n      dup7\n        /* \"contract/token/ERC721.sol\":14187:14258  IERC721Receiver(to).onERC721Received(_msgSender(), from, tokenId, data) */\n      mload(0x40)\n      dup6\n      0xffffffff\n      and\n      0xe0\n      shl\n      dup2\n      mstore\n      0x04\n      add\n      tag_287\n      swap5\n      swap4\n      swap3\n      swap2\n      swap1\n      tag_288\n      jump\t// in\n    tag_287:\n      0x20\n      mload(0x40)\n      dup1\n      dup4\n      sub\n      dup2\n      0x00\n      dup8\n      dup1\n      extcodesize\n      iszero\n      dup1\n      iszero\n      tag_289\n      jumpi\n      0x00\n      dup1\n      revert\n    tag_289:\n      pop\n      gas\n      call\n      swap3\n      pop\n      pop\n      pop\n      dup1\n      iszero\n      tag_290\n      jumpi\n      pop\n      mload(0x40)\n      returndatasize\n      not(0x1f)\n      0x1f\n      dup3\n      add\n      and\n      dup3\n      add\n      dup1\n      0x40\n      mstore\n      pop\n      dup2\n      add\n      swap1\n      tag_291\n      swap2\n      swap1\n      tag_292\n      jump\t// in\n    tag_291:\n      0x01\n    tag_290:\n        /* \"contract/token/ERC721.sol\":14183:14711  try IERC721Receiver(to).onERC721Received(_msgSender(), from, tokenId, data) returns (bytes4 retval) {\r... */\n      tag_293\n      jumpi\n      returndatasize\n      dup1\n      0x00\n      dup2\n      eq\n      tag_298\n      jumpi\n      mload(0x40)\n      swap2\n      pop\n      and(add(returndatasize, 0x3f), not(0x1f))\n      dup3\n      add\n      0x40\n      mstore\n      returndatasize\n      dup3\n      mstore\n      returndatasize\n      0x00\n      0x20\n      dup5\n      add\n      returndatacopy\n      jump(tag_297)\n    tag_298:\n      0x60\n      swap2\n      pop\n    tag_297:\n      pop\n        /* \"contract/token/ERC721.sol\":14445:14446  0 */\n      0x00\n        /* \"contract/token/ERC721.sol\":14428:14434  reason */\n      dup2\n        /* \"contract/token/ERC721.sol\":14428:14441  reason.length */\n      mload\n        /* \"contract/token/ERC721.sol\":14428:14446  reason.length == 0 */\n      eq\n        /* \"contract/token/ERC721.sol\":14424:14696  if (reason.length == 0) {\r... */\n      iszero\n      tag_299\n      jumpi\n        /* \"contract/token/ERC721.sol\":14471:14531  revert(\"ERC721: transfer to non ERC721Receiver implementer\") */\n      mload(0x40)\n      0x08c379a000000000000000000000000000000000000000000000000000000000\n      dup2\n      mstore\n      0x04\n      add\n      tag_300\n      swap1\n      tag_256\n      jump\t// in\n    tag_300:\n      mload(0x40)\n      dup1\n      swap2\n      sub\n      swap1\n      revert\n        /* \"contract/token/ERC721.sol\":14424:14696  if (reason.length == 0) {\r... */\n    tag_299:\n        /* \"contract/token/ERC721.sol\":14646:14652  reason */\n      dup1\n        /* \"contract/token/ERC721.sol\":14640:14653  mload(reason) */\n      mload\n        /* \"contract/token/ERC721.sol\":14631:14637  reason */\n      dup2\n        /* \"contract/token/ERC721.sol\":14627:14629  32 */\n      0x20\n        /* \"contract/token/ERC721.sol\":14623:14638  add(32, reason) */\n      add\n        /* \"contract/token/ERC721.sol\":14616:14654  revert(add(32, reason), mload(reason)) */\n      revert\n        /* \"contract/token/ERC721.sol\":14183:14711  try IERC721Receiver(to).onERC721Received(_msgSender(), from, tokenId, data) returns (bytes4 retval) {\r... */\n    tag_293:\n        /* \"contract/token/ERC721.sol\":14319:14360  IERC721Receiver.onERC721Received.selector */\n      shl(0xe0, 0x150b7a02)\n        /* \"contract/token/ERC721.sol\":14309:14360  retval == IERC721Receiver.onERC721Received.selector */\n      not(0xffffffffffffffffffffffffffffffffffffffffffffffffffffffff)\n      and\n        /* \"contract/token/ERC721.sol\":14309:14315  retval */\n      dup2\n        /* \"contract/token/ERC721.sol\":14309:14360  retval == IERC721Receiver.onERC721Received.selector */\n      not(0xffffffffffffffffffffffffffffffffffffffffffffffffffffffff)\n      and\n      eq\n        /* \"contract/token/ERC721.sol\":14302:14360  return retval == IERC721Receiver.onERC721Received.selector */\n      swap2\n      pop\n      pop\n      jump(tag_282)\n        /* \"contract/token/ERC721.sol\":14147:14766  if (to.isContract()) {\r... */\n    tag_285:\n        /* \"contract/token/ERC721.sol\":14750:14754  true */\n      0x01\n        /* \"contract/token/ERC721.sol\":14743:14754  return true */\n      swap1\n      pop\n        /* \"contract/token/ERC721.sol\":13976:14773  function _checkOnERC721Received(\r... */\n    tag_282:\n      swap5\n      swap4\n      pop\n      pop\n      pop\n      pop\n      jump\t// out\n        /* \"utils/Address.sol\":1210:1536  function isContract(address account) internal view returns (bool) {\r... */\n    tag_284:\n        /* \"utils/Address.sol\":1270:1274  bool */\n      0x00\n        /* \"utils/Address.sol\":1527:1528  0 */\n      dup1\n        /* \"utils/Address.sol\":1505:1512  account */\n      dup3\n        /* \"utils/Address.sol\":1505:1524  account.code.length */\n      0xffffffffffffffffffffffffffffffffffffffff\n      and\n      extcodesize\n        /* \"utils/Address.sol\":1505:1528  account.code.length > 0 */\n      gt\n        /* \"utils/Address.sol\":1498:1528  return account.code.length > 0 */\n      swap1\n      pop\n        /* \"utils/Address.sol\":1210:1536  function isContract(address account) internal view returns (bool) {\r... */\n      swap2\n      swap1\n      pop\n      jump\t// out\n    tag_109:\n      mload(0x40)\n      dup1\n      0x0120\n      add\n      0x40\n      mstore\n      dup1\n      0x00\n      dup2\n      mstore\n      0x20\n      add\n      0x00\n      dup2\n      mstore\n      0x20\n      add\n      0x00\n      dup2\n      mstore\n      0x20\n      add\n      0x00\n      dup2\n      mstore\n      0x20\n      add\n      0x00\n      dup2\n      mstore\n      0x20\n      add\n      and(0xffffffffffffffffffffffffffffffffffffffff, 0x00)\n      dup2\n      mstore\n      0x20\n      add\n      and(0xffffffffffffffffffffffffffffffffffffffff, 0x00)\n      dup2\n      mstore\n      0x20\n      add\n      0x60\n      dup2\n      mstore\n      0x20\n      add\n      iszero(iszero(0x00))\n      dup2\n      mstore\n      pop\n      swap1\n      jump\t// out\n    tag_115:\n      dup3\n      dup1\n      sload\n      tag_305\n      swap1\n      tag_117\n      jump\t// in\n    tag_305:\n      swap1\n      0x00\n      mstore\n      keccak256(0x00, 0x20)\n      swap1\n      0x1f\n      add\n      0x20\n      swap1\n      div\n      dup2\n      add\n      swap3\n      dup3\n      tag_307\n      jumpi\n      0x00\n      dup6\n      sstore\n      jump(tag_306)\n    tag_307:\n      dup3\n      0x1f\n      lt\n      tag_308\n      jumpi\n      dup1\n      mload\n      not(0xff)\n      and\n      dup4\n      dup1\n      add\n      or\n      dup6\n      sstore\n      jump(tag_306)\n    tag_308:\n      dup3\n      dup1\n      add\n      0x01\n      add\n      dup6\n      sstore\n      dup3\n      iszero\n      tag_306\n      jumpi\n      swap2\n      dup3\n      add\n    tag_309:\n      dup3\n      dup2\n      gt\n      iszero\n      tag_310\n      jumpi\n      dup3\n      mload\n      dup3\n      sstore\n      swap2\n      0x20\n      add\n      swap2\n      swap1\n      0x01\n      add\n      swap1\n      jump(tag_309)\n    tag_310:\n    tag_306:\n      pop\n      swap1\n      pop\n      tag_311\n      swap2\n      swap1\n      tag_312\n      jump\t// in\n    tag_311:\n      pop\n      swap1\n      jump\t// out\n    tag_312:\n    tag_313:\n      dup1\n      dup3\n      gt\n      iszero\n      tag_314\n      jumpi\n      0x00\n      dup2\n      0x00\n      swap1\n      sstore\n      pop\n      0x01\n      add\n      jump(tag_313)\n    tag_314:\n      pop\n      swap1\n      jump\t// out\n        /* \"#utility.yul\":7:417   */\n    tag_316:\n        /* \"#utility.yul\":84:89   */\n      0x00\n        /* \"#utility.yul\":109:174   */\n      tag_318\n        /* \"#utility.yul\":125:173   */\n      tag_319\n        /* \"#utility.yul\":166:172   */\n      dup5\n        /* \"#utility.yul\":125:173   */\n      tag_320\n      jump\t// in\n    tag_319:\n        /* \"#utility.yul\":109:174   */\n      tag_321\n      jump\t// in\n    tag_318:\n        /* \"#utility.yul\":100:174   */\n      swap1\n      pop\n        /* \"#utility.yul\":197:203   */\n      dup3\n        /* \"#utility.yul\":190:195   */\n      dup2\n        /* \"#utility.yul\":183:204   */\n      mstore\n        /* \"#utility.yul\":235:239   */\n      0x20\n        /* \"#utility.yul\":228:233   */\n      dup2\n        /* \"#utility.yul\":224:240   */\n      add\n        /* \"#utility.yul\":273:276   */\n      dup5\n        /* \"#utility.yul\":264:270   */\n      dup5\n        /* \"#utility.yul\":259:262   */\n      dup5\n        /* \"#utility.yul\":255:271   */\n      add\n        /* \"#utility.yul\":252:277   */\n      gt\n        /* \"#utility.yul\":249:361   */\n      iszero\n      tag_322\n      jumpi\n        /* \"#utility.yul\":280:359   */\n      tag_323\n      tag_324\n      jump\t// in\n    tag_323:\n        /* \"#utility.yul\":249:361   */\n    tag_322:\n        /* \"#utility.yul\":370:411   */\n      tag_325\n        /* \"#utility.yul\":404:410   */\n      dup5\n        /* \"#utility.yul\":399:402   */\n      dup3\n        /* \"#utility.yul\":394:397   */\n      dup6\n        /* \"#utility.yul\":370:411   */\n      tag_326\n      jump\t// in\n    tag_325:\n        /* \"#utility.yul\":90:417   */\n      pop\n        /* \"#utility.yul\":7:417   */\n      swap4\n      swap3\n      pop\n      pop\n      pop\n      jump\t// out\n        /* \"#utility.yul\":423:835   */\n    tag_327:\n        /* \"#utility.yul\":501:506   */\n      0x00\n        /* \"#utility.yul\":526:592   */\n      tag_329\n        /* \"#utility.yul\":542:591   */\n      tag_330\n        /* \"#utility.yul\":584:590   */\n      dup5\n        /* \"#utility.yul\":542:591   */\n      tag_331\n      jump\t// in\n    tag_330:\n        /* \"#utility.yul\":526:592   */\n      tag_321\n      jump\t// in\n    tag_329:\n        /* \"#utility.yul\":517:592   */\n      swap1\n      pop\n        /* \"#utility.yul\":615:621   */\n      dup3\n        /* \"#utility.yul\":608:613   */\n      dup2\n        /* \"#utility.yul\":601:622   */\n      mstore\n        /* \"#utility.yul\":653:657   */\n      0x20\n        /* \"#utility.yul\":646:651   */\n      dup2\n        /* \"#utility.yul\":642:658   */\n      add\n        /* \"#utility.yul\":691:694   */\n      dup5\n        /* \"#utility.yul\":682:688   */\n      dup5\n        /* \"#utility.yul\":677:680   */\n      dup5\n        /* \"#utility.yul\":673:689   */\n      add\n        /* \"#utility.yul\":670:695   */\n      gt\n        /* \"#utility.yul\":667:779   */\n      iszero\n      tag_332\n      jumpi\n        /* \"#utility.yul\":698:777   */\n      tag_333\n      tag_324\n      jump\t// in\n    tag_333:\n        /* \"#utility.yul\":667:779   */\n    tag_332:\n        /* \"#utility.yul\":788:829   */\n      tag_334\n        /* \"#utility.yul\":822:828   */\n      dup5\n        /* \"#utility.yul\":817:820   */\n      dup3\n        /* \"#utility.yul\":812:815   */\n      dup6\n        /* \"#utility.yul\":788:829   */\n      tag_326\n      jump\t// in\n    tag_334:\n        /* \"#utility.yul\":507:835   */\n      pop\n        /* \"#utility.yul\":423:835   */\n      swap4\n      swap3\n      pop\n      pop\n      pop\n      jump\t// out\n        /* \"#utility.yul\":841:980   */\n    tag_335:\n        /* \"#utility.yul\":887:892   */\n      0x00\n        /* \"#utility.yul\":925:931   */\n      dup2\n        /* \"#utility.yul\":912:932   */\n      calldataload\n        /* \"#utility.yul\":903:932   */\n      swap1\n      pop\n        /* \"#utility.yul\":941:974   */\n      tag_337\n        /* \"#utility.yul\":968:973   */\n      dup2\n        /* \"#utility.yul\":941:974   */\n      tag_338\n      jump\t// in\n    tag_337:\n        /* \"#utility.yul\":841:980   */\n      swap3\n      swap2\n      pop\n      pop\n      jump\t// out\n        /* \"#utility.yul\":986:1119   */\n    tag_339:\n        /* \"#utility.yul\":1029:1034   */\n      0x00\n        /* \"#utility.yul\":1067:1073   */\n      dup2\n        /* \"#utility.yul\":1054:1074   */\n      calldataload\n        /* \"#utility.yul\":1045:1074   */\n      swap1\n      pop\n        /* \"#utility.yul\":1083:1113   */\n      tag_341\n        /* \"#utility.yul\":1107:1112   */\n      dup2\n        /* \"#utility.yul\":1083:1113   */\n      tag_342\n      jump\t// in\n    tag_341:\n        /* \"#utility.yul\":986:1119   */\n      swap3\n      swap2\n      pop\n      pop\n      jump\t// out\n        /* \"#utility.yul\":1125:1262   */\n    tag_343:\n        /* \"#utility.yul\":1170:1175   */\n      0x00\n        /* \"#utility.yul\":1208:1214   */\n      dup2\n        /* \"#utility.yul\":1195:1215   */\n      calldataload\n        /* \"#utility.yul\":1186:1215   */\n      swap1\n      pop\n        /* \"#utility.yul\":1224:1256   */\n      tag_345\n        /* \"#utility.yul\":1250:1255   */\n      dup2\n        /* \"#utility.yul\":1224:1256   */\n      tag_346\n      jump\t// in\n    tag_345:\n        /* \"#utility.yul\":1125:1262   */\n      swap3\n      swap2\n      pop\n      pop\n      jump\t// out\n        /* \"#utility.yul\":1268:1409   */\n    tag_347:\n        /* \"#utility.yul\":1324:1329   */\n      0x00\n        /* \"#utility.yul\":1355:1361   */\n      dup2\n        /* \"#utility.yul\":1349:1362   */\n      mload\n        /* \"#utility.yul\":1340:1362   */\n      swap1\n      pop\n        /* \"#utility.yul\":1371:1403   */\n      tag_349\n        /* \"#utility.yul\":1397:1402   */\n      dup2\n        /* \"#utility.yul\":1371:1403   */\n      tag_346\n      jump\t// in\n    tag_349:\n        /* \"#utility.yul\":1268:1409   */\n      swap3\n      swap2\n      pop\n      pop\n      jump\t// out\n        /* \"#utility.yul\":1428:1766   */\n    tag_350:\n        /* \"#utility.yul\":1483:1488   */\n      0x00\n        /* \"#utility.yul\":1532:1535   */\n      dup3\n        /* \"#utility.yul\":1525:1529   */\n      0x1f\n        /* \"#utility.yul\":1517:1523   */\n      dup4\n        /* \"#utility.yul\":1513:1530   */\n      add\n        /* \"#utility.yul\":1509:1536   */\n      slt\n        /* \"#utility.yul\":1499:1621   */\n      tag_352\n      jumpi\n        /* \"#utility.yul\":1540:1619   */\n      tag_353\n      tag_354\n      jump\t// in\n    tag_353:\n        /* \"#utility.yul\":1499:1621   */\n    tag_352:\n        /* \"#utility.yul\":1657:1663   */\n      dup2\n        /* \"#utility.yul\":1644:1664   */\n      calldataload\n        /* \"#utility.yul\":1682:1760   */\n      tag_355\n        /* \"#utility.yul\":1756:1759   */\n      dup5\n        /* \"#utility.yul\":1748:1754   */\n      dup3\n        /* \"#utility.yul\":1741:1745   */\n      0x20\n        /* \"#utility.yul\":1733:1739   */\n      dup7\n        /* \"#utility.yul\":1729:1746   */\n      add\n        /* \"#utility.yul\":1682:1760   */\n      tag_316\n      jump\t// in\n    tag_355:\n        /* \"#utility.yul\":1673:1760   */\n      swap2\n      pop\n        /* \"#utility.yul\":1489:1766   */\n      pop\n        /* \"#utility.yul\":1428:1766   */\n      swap3\n      swap2\n      pop\n      pop\n      jump\t// out\n        /* \"#utility.yul\":1786:2126   */\n    tag_356:\n        /* \"#utility.yul\":1842:1847   */\n      0x00\n        /* \"#utility.yul\":1891:1894   */\n      dup3\n        /* \"#utility.yul\":1884:1888   */\n      0x1f\n        /* \"#utility.yul\":1876:1882   */\n      dup4\n        /* \"#utility.yul\":1872:1889   */\n      add\n        /* \"#utility.yul\":1868:1895   */\n      slt\n        /* \"#utility.yul\":1858:1980   */\n      tag_358\n      jumpi\n        /* \"#utility.yul\":1899:1978   */\n      tag_359\n      tag_354\n      jump\t// in\n    tag_359:\n        /* \"#utility.yul\":1858:1980   */\n    tag_358:\n        /* \"#utility.yul\":2016:2022   */\n      dup2\n        /* \"#utility.yul\":2003:2023   */\n      calldataload\n        /* \"#utility.yul\":2041:2120   */\n      tag_360\n        /* \"#utility.yul\":2116:2119   */\n      dup5\n        /* \"#utility.yul\":2108:2114   */\n      dup3\n        /* \"#utility.yul\":2101:2105   */\n      0x20\n        /* \"#utility.yul\":2093:2099   */\n      dup7\n        /* \"#utility.yul\":2089:2106   */\n      add\n        /* \"#utility.yul\":2041:2120   */\n      tag_327\n      jump\t// in\n    tag_360:\n        /* \"#utility.yul\":2032:2120   */\n      swap2\n      pop\n        /* \"#utility.yul\":1848:2126   */\n      pop\n        /* \"#utility.yul\":1786:2126   */\n      swap3\n      swap2\n      pop\n      pop\n      jump\t// out\n        /* \"#utility.yul\":2132:2271   */\n    tag_361:\n        /* \"#utility.yul\":2178:2183   */\n      0x00\n        /* \"#utility.yul\":2216:2222   */\n      dup2\n        /* \"#utility.yul\":2203:2223   */\n      calldataload\n        /* \"#utility.yul\":2194:2223   */\n      swap1\n      pop\n        /* \"#utility.yul\":2232:2265   */\n      tag_363\n        /* \"#utility.yul\":2259:2264   */\n      dup2\n        /* \"#utility.yul\":2232:2265   */\n      tag_364\n      jump\t// in\n    tag_363:\n        /* \"#utility.yul\":2132:2271   */\n      swap3\n      swap2\n      pop\n      pop\n      jump\t// out\n        /* \"#utility.yul\":2277:2606   */\n    tag_63:\n        /* \"#utility.yul\":2336:2342   */\n      0x00\n        /* \"#utility.yul\":2385:2387   */\n      0x20\n        /* \"#utility.yul\":2373:2382   */\n      dup3\n        /* \"#utility.yul\":2364:2371   */\n      dup5\n        /* \"#utility.yul\":2360:2383   */\n      sub\n        /* \"#utility.yul\":2356:2388   */\n      slt\n        /* \"#utility.yul\":2353:2472   */\n      iszero\n      tag_366\n      jumpi\n        /* \"#utility.yul\":2391:2470   */\n      tag_367\n      tag_368\n      jump\t// in\n    tag_367:\n        /* \"#utility.yul\":2353:2472   */\n    tag_366:\n        /* \"#utility.yul\":2511:2512   */\n      0x00\n        /* \"#utility.yul\":2536:2589   */\n      tag_369\n        /* \"#utility.yul\":2581:2588   */\n      dup5\n        /* \"#utility.yul\":2572:2578   */\n      dup3\n        /* \"#utility.yul\":2561:2570   */\n      dup6\n        /* \"#utility.yul\":2557:2579   */\n      add\n        /* \"#utility.yul\":2536:2589   */\n      tag_335\n      jump\t// in\n    tag_369:\n        /* \"#utility.yul\":2526:2589   */\n      swap2\n      pop\n        /* \"#utility.yul\":2482:2599   */\n      pop\n        /* \"#utility.yul\":2277:2606   */\n      swap3\n      swap2\n      pop\n      pop\n      jump\t// out\n        /* \"#utility.yul\":2612:3086   */\n    tag_100:\n        /* \"#utility.yul\":2680:2686   */\n      0x00\n        /* \"#utility.yul\":2688:2694   */\n      dup1\n        /* \"#utility.yul\":2737:2739   */\n      0x40\n        /* \"#utility.yul\":2725:2734   */\n      dup4\n        /* \"#utility.yul\":2716:2723   */\n      dup6\n        /* \"#utility.yul\":2712:2735   */\n      sub\n        /* \"#utility.yul\":2708:2740   */\n      slt\n        /* \"#utility.yul\":2705:2824   */\n      iszero\n      tag_371\n      jumpi\n        /* \"#utility.yul\":2743:2822   */\n      tag_372\n      tag_368\n      jump\t// in\n    tag_372:\n        /* \"#utility.yul\":2705:2824   */\n    tag_371:\n        /* \"#utility.yul\":2863:2864   */\n      0x00\n        /* \"#utility.yul\":2888:2941   */\n      tag_373\n        /* \"#utility.yul\":2933:2940   */\n      dup6\n        /* \"#utility.yul\":2924:2930   */\n      dup3\n        /* \"#utility.yul\":2913:2922   */\n      dup7\n        /* \"#utility.yul\":2909:2931   */\n      add\n        /* \"#utility.yul\":2888:2941   */\n      tag_335\n      jump\t// in\n    tag_373:\n        /* \"#utility.yul\":2878:2941   */\n      swap3\n      pop\n        /* \"#utility.yul\":2834:2951   */\n      pop\n        /* \"#utility.yul\":2990:2992   */\n      0x20\n        /* \"#utility.yul\":3016:3069   */\n      tag_374\n        /* \"#utility.yul\":3061:3068   */\n      dup6\n        /* \"#utility.yul\":3052:3058   */\n      dup3\n        /* \"#utility.yul\":3041:3050   */\n      dup7\n        /* \"#utility.yul\":3037:3059   */\n      add\n        /* \"#utility.yul\":3016:3069   */\n      tag_335\n      jump\t// in\n    tag_374:\n        /* \"#utility.yul\":3006:3069   */\n      swap2\n      pop\n        /* \"#utility.yul\":2961:3079   */\n      pop\n        /* \"#utility.yul\":2612:3086   */\n      swap3\n      pop\n      swap3\n      swap1\n      pop\n      jump\t// out\n        /* \"#utility.yul\":3092:3711   */\n    tag_52:\n        /* \"#utility.yul\":3169:3175   */\n      0x00\n        /* \"#utility.yul\":3177:3183   */\n      dup1\n        /* \"#utility.yul\":3185:3191   */\n      0x00\n        /* \"#utility.yul\":3234:3236   */\n      0x60\n        /* \"#utility.yul\":3222:3231   */\n      dup5\n        /* \"#utility.yul\":3213:3220   */\n      dup7\n        /* \"#utility.yul\":3209:3232   */\n      sub\n        /* \"#utility.yul\":3205:3237   */\n      slt\n        /* \"#utility.yul\":3202:3321   */\n      iszero\n      tag_376\n      jumpi\n        /* \"#utility.yul\":3240:3319   */\n      tag_377\n      tag_368\n      jump\t// in\n    tag_377:\n        /* \"#utility.yul\":3202:3321   */\n    tag_376:\n        /* \"#utility.yul\":3360:3361   */\n      0x00\n        /* \"#utility.yul\":3385:3438   */\n      tag_378\n        /* \"#utility.yul\":3430:3437   */\n      dup7\n        /* \"#utility.yul\":3421:3427   */\n      dup3\n        /* \"#utility.yul\":3410:3419   */\n      dup8\n        /* \"#utility.yul\":3406:3428   */\n      add\n        /* \"#utility.yul\":3385:3438   */\n      tag_335\n      jump\t// in\n    tag_378:\n        /* \"#utility.yul\":3375:3438   */\n      swap4\n      pop\n        /* \"#utility.yul\":3331:3448   */\n      pop\n        /* \"#utility.yul\":3487:3489   */\n      0x20\n        /* \"#utility.yul\":3513:3566   */\n      tag_379\n        /* \"#utility.yul\":3558:3565   */\n      dup7\n        /* \"#utility.yul\":3549:3555   */\n      dup3\n        /* \"#utility.yul\":3538:3547   */\n      dup8\n        /* \"#utility.yul\":3534:3556   */\n      add\n        /* \"#utility.yul\":3513:3566   */\n      tag_335\n      jump\t// in\n    tag_379:\n        /* \"#utility.yul\":3503:3566   */\n      swap3\n      pop\n        /* \"#utility.yul\":3458:3576   */\n      pop\n        /* \"#utility.yul\":3615:3617   */\n      0x40\n        /* \"#utility.yul\":3641:3694   */\n      tag_380\n        /* \"#utility.yul\":3686:3693   */\n      dup7\n        /* \"#utility.yul\":3677:3683   */\n      dup3\n        /* \"#utility.yul\":3666:3675   */\n      dup8\n        /* \"#utility.yul\":3662:3684   */\n      add\n        /* \"#utility.yul\":3641:3694   */\n      tag_361\n      jump\t// in\n    tag_380:\n        /* \"#utility.yul\":3631:3694   */\n      swap2\n      pop\n        /* \"#utility.yul\":3586:3704   */\n      pop\n        /* \"#utility.yul\":3092:3711   */\n      swap3\n      pop\n      swap3\n      pop\n      swap3\n      jump\t// out\n        /* \"#utility.yul\":3717:4660   */\n    tag_85:\n        /* \"#utility.yul\":3812:3818   */\n      0x00\n        /* \"#utility.yul\":3820:3826   */\n      dup1\n        /* \"#utility.yul\":3828:3834   */\n      0x00\n        /* \"#utility.yul\":3836:3842   */\n      dup1\n        /* \"#utility.yul\":3885:3888   */\n      0x80\n        /* \"#utility.yul\":3873:3882   */\n      dup6\n        /* \"#utility.yul\":3864:3871   */\n      dup8\n        /* \"#utility.yul\":3860:3883   */\n      sub\n        /* \"#utility.yul\":3856:3889   */\n      slt\n        /* \"#utility.yul\":3853:3973   */\n      iszero\n      tag_382\n      jumpi\n        /* \"#utility.yul\":3892:3971   */\n      tag_383\n      tag_368\n      jump\t// in\n    tag_383:\n        /* \"#utility.yul\":3853:3973   */\n    tag_382:\n        /* \"#utility.yul\":4012:4013   */\n      0x00\n        /* \"#utility.yul\":4037:4090   */\n      tag_384\n        /* \"#utility.yul\":4082:4089   */\n      dup8\n        /* \"#utility.yul\":4073:4079   */\n      dup3\n        /* \"#utility.yul\":4062:4071   */\n      dup9\n        /* \"#utility.yul\":4058:4080   */\n      add\n        /* \"#utility.yul\":4037:4090   */\n      tag_335\n      jump\t// in\n    tag_384:\n        /* \"#utility.yul\":4027:4090   */\n      swap5\n      pop\n        /* \"#utility.yul\":3983:4100   */\n      pop\n        /* \"#utility.yul\":4139:4141   */\n      0x20\n        /* \"#utility.yul\":4165:4218   */\n      tag_385\n        /* \"#utility.yul\":4210:4217   */\n      dup8\n        /* \"#utility.yul\":4201:4207   */\n      dup3\n        /* \"#utility.yul\":4190:4199   */\n      dup9\n        /* \"#utility.yul\":4186:4208   */\n      add\n        /* \"#utility.yul\":4165:4218   */\n      tag_335\n      jump\t// in\n    tag_385:\n        /* \"#utility.yul\":4155:4218   */\n      swap4\n      pop\n        /* \"#utility.yul\":4110:4228   */\n      pop\n        /* \"#utility.yul\":4267:4269   */\n      0x40\n        /* \"#utility.yul\":4293:4346   */\n      tag_386\n        /* \"#utility.yul\":4338:4345   */\n      dup8\n        /* \"#utility.yul\":4329:4335   */\n      dup3\n        /* \"#utility.yul\":4318:4327   */\n      dup9\n        /* \"#utility.yul\":4314:4336   */\n      add\n        /* \"#utility.yul\":4293:4346   */\n      tag_361\n      jump\t// in\n    tag_386:\n        /* \"#utility.yul\":4283:4346   */\n      swap3\n      pop\n        /* \"#utility.yul\":4238:4356   */\n      pop\n        /* \"#utility.yul\":4423:4425   */\n      0x60\n        /* \"#utility.yul\":4412:4421   */\n      dup6\n        /* \"#utility.yul\":4408:4426   */\n      add\n        /* \"#utility.yul\":4395:4427   */\n      calldataload\n        /* \"#utility.yul\":4454:4472   */\n      0xffffffffffffffff\n        /* \"#utility.yul\":4446:4452   */\n      dup2\n        /* \"#utility.yul\":4443:4473   */\n      gt\n        /* \"#utility.yul\":4440:4557   */\n      iszero\n      tag_387\n      jumpi\n        /* \"#utility.yul\":4476:4555   */\n      tag_388\n      tag_389\n      jump\t// in\n    tag_388:\n        /* \"#utility.yul\":4440:4557   */\n    tag_387:\n        /* \"#utility.yul\":4581:4643   */\n      tag_390\n        /* \"#utility.yul\":4635:4642   */\n      dup8\n        /* \"#utility.yul\":4626:4632   */\n      dup3\n        /* \"#utility.yul\":4615:4624   */\n      dup9\n        /* \"#utility.yul\":4611:4633   */\n      add\n        /* \"#utility.yul\":4581:4643   */\n      tag_350\n      jump\t// in\n    tag_390:\n        /* \"#utility.yul\":4571:4643   */\n      swap2\n      pop\n        /* \"#utility.yul\":4366:4653   */\n      pop\n        /* \"#utility.yul\":3717:4660   */\n      swap3\n      swap6\n      swap2\n      swap5\n      pop\n      swap3\n      pop\n      jump\t// out\n        /* \"#utility.yul\":4666:5134   */\n    tag_72:\n        /* \"#utility.yul\":4731:4737   */\n      0x00\n        /* \"#utility.yul\":4739:4745   */\n      dup1\n        /* \"#utility.yul\":4788:4790   */\n      0x40\n        /* \"#utility.yul\":4776:4785   */\n      dup4\n        /* \"#utility.yul\":4767:4774   */\n      dup6\n        /* \"#utility.yul\":4763:4786   */\n      sub\n        /* \"#utility.yul\":4759:4791   */\n      slt\n        /* \"#utility.yul\":4756:4875   */\n      iszero\n      tag_392\n      jumpi\n        /* \"#utility.yul\":4794:4873   */\n      tag_393\n      tag_368\n      jump\t// in\n    tag_393:\n        /* \"#utility.yul\":4756:4875   */\n    tag_392:\n        /* \"#utility.yul\":4914:4915   */\n      0x00\n        /* \"#utility.yul\":4939:4992   */\n      tag_394\n        /* \"#utility.yul\":4984:4991   */\n      dup6\n        /* \"#utility.yul\":4975:4981   */\n      dup3\n        /* \"#utility.yul\":4964:4973   */\n      dup7\n        /* \"#utility.yul\":4960:4982   */\n      add\n        /* \"#utility.yul\":4939:4992   */\n      tag_335\n      jump\t// in\n    tag_394:\n        /* \"#utility.yul\":4929:4992   */\n      swap3\n      pop\n        /* \"#utility.yul\":4885:5002   */\n      pop\n        /* \"#utility.yul\":5041:5043   */\n      0x20\n        /* \"#utility.yul\":5067:5117   */\n      tag_395\n        /* \"#utility.yul\":5109:5116   */\n      dup6\n        /* \"#utility.yul\":5100:5106   */\n      dup3\n        /* \"#utility.yul\":5089:5098   */\n      dup7\n        /* \"#utility.yul\":5085:5107   */\n      add\n        /* \"#utility.yul\":5067:5117   */\n      tag_339\n      jump\t// in\n    tag_395:\n        /* \"#utility.yul\":5057:5117   */\n      swap2\n      pop\n        /* \"#utility.yul\":5012:5127   */\n      pop\n        /* \"#utility.yul\":4666:5134   */\n      swap3\n      pop\n      swap3\n      swap1\n      pop\n      jump\t// out\n        /* \"#utility.yul\":5140:5614   */\n    tag_48:\n        /* \"#utility.yul\":5208:5214   */\n      0x00\n        /* \"#utility.yul\":5216:5222   */\n      dup1\n        /* \"#utility.yul\":5265:5267   */\n      0x40\n        /* \"#utility.yul\":5253:5262   */\n      dup4\n        /* \"#utility.yul\":5244:5251   */\n      dup6\n        /* \"#utility.yul\":5240:5263   */\n      sub\n        /* \"#utility.yul\":5236:5268   */\n      slt\n        /* \"#utility.yul\":5233:5352   */\n      iszero\n      tag_397\n      jumpi\n        /* \"#utility.yul\":5271:5350   */\n      tag_398\n      tag_368\n      jump\t// in\n    tag_398:\n        /* \"#utility.yul\":5233:5352   */\n    tag_397:\n        /* \"#utility.yul\":5391:5392   */\n      0x00\n        /* \"#utility.yul\":5416:5469   */\n      tag_399\n        /* \"#utility.yul\":5461:5468   */\n      dup6\n        /* \"#utility.yul\":5452:5458   */\n      dup3\n        /* \"#utility.yul\":5441:5450   */\n      dup7\n        /* \"#utility.yul\":5437:5459   */\n      add\n        /* \"#utility.yul\":5416:5469   */\n      tag_335\n      jump\t// in\n    tag_399:\n        /* \"#utility.yul\":5406:5469   */\n      swap3\n      pop\n        /* \"#utility.yul\":5362:5479   */\n      pop\n        /* \"#utility.yul\":5518:5520   */\n      0x20\n        /* \"#utility.yul\":5544:5597   */\n      tag_400\n        /* \"#utility.yul\":5589:5596   */\n      dup6\n        /* \"#utility.yul\":5580:5586   */\n      dup3\n        /* \"#utility.yul\":5569:5578   */\n      dup7\n        /* \"#utility.yul\":5565:5587   */\n      add\n        /* \"#utility.yul\":5544:5597   */\n      tag_361\n      jump\t// in\n    tag_400:\n        /* \"#utility.yul\":5534:5597   */\n      swap2\n      pop\n        /* \"#utility.yul\":5489:5607   */\n      pop\n        /* \"#utility.yul\":5140:5614   */\n      swap3\n      pop\n      swap3\n      swap1\n      pop\n      jump\t// out\n        /* \"#utility.yul\":5620:5947   */\n    tag_26:\n        /* \"#utility.yul\":5678:5684   */\n      0x00\n        /* \"#utility.yul\":5727:5729   */\n      0x20\n        /* \"#utility.yul\":5715:5724   */\n      dup3\n        /* \"#utility.yul\":5706:5713   */\n      dup5\n        /* \"#utility.yul\":5702:5725   */\n      sub\n        /* \"#utility.yul\":5698:5730   */\n      slt\n        /* \"#utility.yul\":5695:5814   */\n      iszero\n      tag_402\n      jumpi\n        /* \"#utility.yul\":5733:5812   */\n      tag_403\n      tag_368\n      jump\t// in\n    tag_403:\n        /* \"#utility.yul\":5695:5814   */\n    tag_402:\n        /* \"#utility.yul\":5853:5854   */\n      0x00\n        /* \"#utility.yul\":5878:5930   */\n      tag_404\n        /* \"#utility.yul\":5922:5929   */\n      dup5\n        /* \"#utility.yul\":5913:5919   */\n      dup3\n        /* \"#utility.yul\":5902:5911   */\n      dup6\n        /* \"#utility.yul\":5898:5920   */\n      add\n        /* \"#utility.yul\":5878:5930   */\n      tag_343\n      jump\t// in\n    tag_404:\n        /* \"#utility.yul\":5868:5930   */\n      swap2\n      pop\n        /* \"#utility.yul\":5824:5940   */\n      pop\n        /* \"#utility.yul\":5620:5947   */\n      swap3\n      swap2\n      pop\n      pop\n      jump\t// out\n        /* \"#utility.yul\":5953:6302   */\n    tag_292:\n        /* \"#utility.yul\":6022:6028   */\n      0x00\n        /* \"#utility.yul\":6071:6073   */\n      0x20\n        /* \"#utility.yul\":6059:6068   */\n      dup3\n        /* \"#utility.yul\":6050:6057   */\n      dup5\n        /* \"#utility.yul\":6046:6069   */\n      sub\n        /* \"#utility.yul\":6042:6074   */\n      slt\n        /* \"#utility.yul\":6039:6158   */\n      iszero\n      tag_406\n      jumpi\n        /* \"#utility.yul\":6077:6156   */\n      tag_407\n      tag_368\n      jump\t// in\n    tag_407:\n        /* \"#utility.yul\":6039:6158   */\n    tag_406:\n        /* \"#utility.yul\":6197:6198   */\n      0x00\n        /* \"#utility.yul\":6222:6285   */\n      tag_408\n        /* \"#utility.yul\":6277:6284   */\n      dup5\n        /* \"#utility.yul\":6268:6274   */\n      dup3\n        /* \"#utility.yul\":6257:6266   */\n      dup6\n        /* \"#utility.yul\":6253:6275   */\n      add\n        /* \"#utility.yul\":6222:6285   */\n      tag_347\n      jump\t// in\n    tag_408:\n        /* \"#utility.yul\":6212:6285   */\n      swap2\n      pop\n        /* \"#utility.yul\":6168:6295   */\n      pop\n        /* \"#utility.yul\":5953:6302   */\n      swap3\n      swap2\n      pop\n      pop\n      jump\t// out\n        /* \"#utility.yul\":6308:6637   */\n    tag_42:\n        /* \"#utility.yul\":6367:6373   */\n      0x00\n        /* \"#utility.yul\":6416:6418   */\n      0x20\n        /* \"#utility.yul\":6404:6413   */\n      dup3\n        /* \"#utility.yul\":6395:6402   */\n      dup5\n        /* \"#utility.yul\":6391:6414   */\n      sub\n        /* \"#utility.yul\":6387:6419   */\n      slt\n        /* \"#utility.yul\":6384:6503   */\n      iszero\n      tag_410\n      jumpi\n        /* \"#utility.yul\":6422:6501   */\n      tag_411\n      tag_368\n      jump\t// in\n    tag_411:\n        /* \"#utility.yul\":6384:6503   */\n    tag_410:\n        /* \"#utility.yul\":6542:6543   */\n      0x00\n        /* \"#utility.yul\":6567:6620   */\n      tag_412\n        /* \"#utility.yul\":6612:6619   */\n      dup5\n        /* \"#utility.yul\":6603:6609   */\n      dup3\n        /* \"#utility.yul\":6592:6601   */\n      dup6\n        /* \"#utility.yul\":6588:6610   */\n      add\n        /* \"#utility.yul\":6567:6620   */\n      tag_361\n      jump\t// in\n    tag_412:\n        /* \"#utility.yul\":6557:6620   */\n      swap2\n      pop\n        /* \"#utility.yul\":6513:6630   */\n      pop\n        /* \"#utility.yul\":6308:6637   */\n      swap3\n      swap2\n      pop\n      pop\n      jump\t// out\n        /* \"#utility.yul\":6643:7117   */\n    tag_96:\n        /* \"#utility.yul\":6711:6717   */\n      0x00\n        /* \"#utility.yul\":6719:6725   */\n      dup1\n        /* \"#utility.yul\":6768:6770   */\n      0x40\n        /* \"#utility.yul\":6756:6765   */\n      dup4\n        /* \"#utility.yul\":6747:6754   */\n      dup6\n        /* \"#utility.yul\":6743:6766   */\n      sub\n        /* \"#utility.yul\":6739:6771   */\n      slt\n        /* \"#utility.yul\":6736:6855   */\n      iszero\n      tag_414\n      jumpi\n        /* \"#utility.yul\":6774:6853   */\n      tag_415\n      tag_368\n      jump\t// in\n    tag_415:\n        /* \"#utility.yul\":6736:6855   */\n    tag_414:\n        /* \"#utility.yul\":6894:6895   */\n      0x00\n        /* \"#utility.yul\":6919:6972   */\n      tag_416\n        /* \"#utility.yul\":6964:6971   */\n      dup6\n        /* \"#utility.yul\":6955:6961   */\n      dup3\n        /* \"#utility.yul\":6944:6953   */\n      dup7\n        /* \"#utility.yul\":6940:6962   */\n      add\n        /* \"#utility.yul\":6919:6972   */\n      tag_361\n      jump\t// in\n    tag_416:\n        /* \"#utility.yul\":6909:6972   */\n      swap3\n      pop\n        /* \"#utility.yul\":6865:6982   */\n      pop\n        /* \"#utility.yul\":7021:7023   */\n      0x20\n        /* \"#utility.yul\":7047:7100   */\n      tag_417\n        /* \"#utility.yul\":7092:7099   */\n      dup6\n        /* \"#utility.yul\":7083:7089   */\n      dup3\n        /* \"#utility.yul\":7072:7081   */\n      dup7\n        /* \"#utility.yul\":7068:7090   */\n      add\n        /* \"#utility.yul\":7047:7100   */\n      tag_335\n      jump\t// in\n    tag_417:\n        /* \"#utility.yul\":7037:7100   */\n      swap2\n      pop\n        /* \"#utility.yul\":6992:7110   */\n      pop\n        /* \"#utility.yul\":6643:7117   */\n      swap3\n      pop\n      swap3\n      swap1\n      pop\n      jump\t// out\n        /* \"#utility.yul\":7123:8506   */\n    tag_32:\n        /* \"#utility.yul\":7246:7252   */\n      0x00\n        /* \"#utility.yul\":7254:7260   */\n      dup1\n        /* \"#utility.yul\":7262:7268   */\n      0x00\n        /* \"#utility.yul\":7270:7276   */\n      dup1\n        /* \"#utility.yul\":7278:7284   */\n      0x00\n        /* \"#utility.yul\":7286:7292   */\n      dup1\n        /* \"#utility.yul\":7294:7300   */\n      0x00\n        /* \"#utility.yul\":7343:7346   */\n      0xe0\n        /* \"#utility.yul\":7331:7340   */\n      dup9\n        /* \"#utility.yul\":7322:7329   */\n      dup11\n        /* \"#utility.yul\":7318:7341   */\n      sub\n        /* \"#utility.yul\":7314:7347   */\n      slt\n        /* \"#utility.yul\":7311:7431   */\n      iszero\n      tag_419\n      jumpi\n        /* \"#utility.yul\":7350:7429   */\n      tag_420\n      tag_368\n      jump\t// in\n    tag_420:\n        /* \"#utility.yul\":7311:7431   */\n    tag_419:\n        /* \"#utility.yul\":7470:7471   */\n      0x00\n        /* \"#utility.yul\":7495:7548   */\n      tag_421\n        /* \"#utility.yul\":7540:7547   */\n      dup11\n        /* \"#utility.yul\":7531:7537   */\n      dup3\n        /* \"#utility.yul\":7520:7529   */\n      dup12\n        /* \"#utility.yul\":7516:7538   */\n      add\n        /* \"#utility.yul\":7495:7548   */\n      tag_361\n      jump\t// in\n    tag_421:\n        /* \"#utility.yul\":7485:7548   */\n      swap8\n      pop\n        /* \"#utility.yul\":7441:7558   */\n      pop\n        /* \"#utility.yul\":7597:7599   */\n      0x20\n        /* \"#utility.yul\":7623:7676   */\n      tag_422\n        /* \"#utility.yul\":7668:7675   */\n      dup11\n        /* \"#utility.yul\":7659:7665   */\n      dup3\n        /* \"#utility.yul\":7648:7657   */\n      dup12\n        /* \"#utility.yul\":7644:7666   */\n      add\n        /* \"#utility.yul\":7623:7676   */\n      tag_361\n      jump\t// in\n    tag_422:\n        /* \"#utility.yul\":7613:7676   */\n      swap7\n      pop\n        /* \"#utility.yul\":7568:7686   */\n      pop\n        /* \"#utility.yul\":7725:7727   */\n      0x40\n        /* \"#utility.yul\":7751:7804   */\n      tag_423\n        /* \"#utility.yul\":7796:7803   */\n      dup11\n        /* \"#utility.yul\":7787:7793   */\n      dup3\n        /* \"#utility.yul\":7776:7785   */\n      dup12\n        /* \"#utility.yul\":7772:7794   */\n      add\n        /* \"#utility.yul\":7751:7804   */\n      tag_361\n      jump\t// in\n    tag_423:\n        /* \"#utility.yul\":7741:7804   */\n      swap6\n      pop\n        /* \"#utility.yul\":7696:7814   */\n      pop\n        /* \"#utility.yul\":7853:7855   */\n      0x60\n        /* \"#utility.yul\":7879:7932   */\n      tag_424\n        /* \"#utility.yul\":7924:7931   */\n      dup11\n        /* \"#utility.yul\":7915:7921   */\n      dup3\n        /* \"#utility.yul\":7904:7913   */\n      dup12\n        /* \"#utility.yul\":7900:7922   */\n      add\n        /* \"#utility.yul\":7879:7932   */\n      tag_361\n      jump\t// in\n    tag_424:\n        /* \"#utility.yul\":7869:7932   */\n      swap5\n      pop\n        /* \"#utility.yul\":7824:7942   */\n      pop\n        /* \"#utility.yul\":7981:7984   */\n      0x80\n        /* \"#utility.yul\":8008:8061   */\n      tag_425\n        /* \"#utility.yul\":8053:8060   */\n      dup11\n        /* \"#utility.yul\":8044:8050   */\n      dup3\n        /* \"#utility.yul\":8033:8042   */\n      dup12\n        /* \"#utility.yul\":8029:8051   */\n      add\n        /* \"#utility.yul\":8008:8061   */\n      tag_361\n      jump\t// in\n    tag_425:\n        /* \"#utility.yul\":7998:8061   */\n      swap4\n      pop\n        /* \"#utility.yul\":7952:8071   */\n      pop\n        /* \"#utility.yul\":8110:8113   */\n      0xa0\n        /* \"#utility.yul\":8137:8190   */\n      tag_426\n        /* \"#utility.yul\":8182:8189   */\n      dup11\n        /* \"#utility.yul\":8173:8179   */\n      dup3\n        /* \"#utility.yul\":8162:8171   */\n      dup12\n        /* \"#utility.yul\":8158:8180   */\n      add\n        /* \"#utility.yul\":8137:8190   */\n      tag_335\n      jump\t// in\n    tag_426:\n        /* \"#utility.yul\":8127:8190   */\n      swap3\n      pop\n        /* \"#utility.yul\":8081:8200   */\n      pop\n        /* \"#utility.yul\":8267:8270   */\n      0xc0\n        /* \"#utility.yul\":8256:8265   */\n      dup9\n        /* \"#utility.yul\":8252:8271   */\n      add\n        /* \"#utility.yul\":8239:8272   */\n      calldataload\n        /* \"#utility.yul\":8299:8317   */\n      0xffffffffffffffff\n        /* \"#utility.yul\":8291:8297   */\n      dup2\n        /* \"#utility.yul\":8288:8318   */\n      gt\n        /* \"#utility.yul\":8285:8402   */\n      iszero\n      tag_427\n      jumpi\n        /* \"#utility.yul\":8321:8400   */\n      tag_428\n      tag_389\n      jump\t// in\n    tag_428:\n        /* \"#utility.yul\":8285:8402   */\n    tag_427:\n        /* \"#utility.yul\":8426:8489   */\n      tag_429\n        /* \"#utility.yul\":8481:8488   */\n      dup11\n        /* \"#utility.yul\":8472:8478   */\n      dup3\n        /* \"#utility.yul\":8461:8470   */\n      dup12\n        /* \"#utility.yul\":8457:8479   */\n      add\n        /* \"#utility.yul\":8426:8489   */\n      tag_356\n      jump\t// in\n    tag_429:\n        /* \"#utility.yul\":8416:8489   */\n      swap2\n      pop\n        /* \"#utility.yul\":8210:8499   */\n      pop\n        /* \"#utility.yul\":7123:8506   */\n      swap3\n      swap6\n      swap9\n      swap2\n      swap5\n      swap8\n      pop\n      swap3\n      swap6\n      pop\n      jump\t// out\n        /* \"#utility.yul\":8512:8620   */\n    tag_430:\n        /* \"#utility.yul\":8589:8613   */\n      tag_432\n        /* \"#utility.yul\":8607:8612   */\n      dup2\n        /* \"#utility.yul\":8589:8613   */\n      tag_433\n      jump\t// in\n    tag_432:\n        /* \"#utility.yul\":8584:8587   */\n      dup3\n        /* \"#utility.yul\":8577:8614   */\n      mstore\n        /* \"#utility.yul\":8512:8620   */\n      pop\n      pop\n      jump\t// out\n        /* \"#utility.yul\":8626:8744   */\n    tag_434:\n        /* \"#utility.yul\":8713:8737   */\n      tag_436\n        /* \"#utility.yul\":8731:8736   */\n      dup2\n        /* \"#utility.yul\":8713:8737   */\n      tag_433\n      jump\t// in\n    tag_436:\n        /* \"#utility.yul\":8708:8711   */\n      dup3\n        /* \"#utility.yul\":8701:8738   */\n      mstore\n        /* \"#utility.yul\":8626:8744   */\n      pop\n      pop\n      jump\t// out\n        /* \"#utility.yul\":8750:8849   */\n    tag_437:\n        /* \"#utility.yul\":8821:8842   */\n      tag_439\n        /* \"#utility.yul\":8836:8841   */\n      dup2\n        /* \"#utility.yul\":8821:8842   */\n      tag_440\n      jump\t// in\n    tag_439:\n        /* \"#utility.yul\":8816:8819   */\n      dup3\n        /* \"#utility.yul\":8809:8843   */\n      mstore\n        /* \"#utility.yul\":8750:8849   */\n      pop\n      pop\n      jump\t// out\n        /* \"#utility.yul\":8855:8964   */\n    tag_441:\n        /* \"#utility.yul\":8936:8957   */\n      tag_443\n        /* \"#utility.yul\":8951:8956   */\n      dup2\n        /* \"#utility.yul\":8936:8957   */\n      tag_440\n      jump\t// in\n    tag_443:\n        /* \"#utility.yul\":8931:8934   */\n      dup3\n        /* \"#utility.yul\":8924:8958   */\n      mstore\n        /* \"#utility.yul\":8855:8964   */\n      pop\n      pop\n      jump\t// out\n        /* \"#utility.yul\":8970:9330   */\n    tag_444:\n        /* \"#utility.yul\":9056:9059   */\n      0x00\n        /* \"#utility.yul\":9084:9122   */\n      tag_446\n        /* \"#utility.yul\":9116:9121   */\n      dup3\n        /* \"#utility.yul\":9084:9122   */\n      tag_447\n      jump\t// in\n    tag_446:\n        /* \"#utility.yul\":9138:9208   */\n      tag_448\n        /* \"#utility.yul\":9201:9207   */\n      dup2\n        /* \"#utility.yul\":9196:9199   */\n      dup6\n        /* \"#utility.yul\":9138:9208   */\n      tag_449\n      jump\t// in\n    tag_448:\n        /* \"#utility.yul\":9131:9208   */\n      swap4\n      pop\n        /* \"#utility.yul\":9217:9269   */\n      tag_450\n        /* \"#utility.yul\":9262:9268   */\n      dup2\n        /* \"#utility.yul\":9257:9260   */\n      dup6\n        /* \"#utility.yul\":9250:9254   */\n      0x20\n        /* \"#utility.yul\":9243:9248   */\n      dup7\n        /* \"#utility.yul\":9239:9255   */\n      add\n        /* \"#utility.yul\":9217:9269   */\n      tag_451\n      jump\t// in\n    tag_450:\n        /* \"#utility.yul\":9294:9323   */\n      tag_452\n        /* \"#utility.yul\":9316:9322   */\n      dup2\n        /* \"#utility.yul\":9294:9323   */\n      tag_453\n      jump\t// in\n    tag_452:\n        /* \"#utility.yul\":9289:9292   */\n      dup5\n        /* \"#utility.yul\":9285:9324   */\n      add\n        /* \"#utility.yul\":9278:9324   */\n      swap2\n      pop\n        /* \"#utility.yul\":9060:9330   */\n      pop\n        /* \"#utility.yul\":8970:9330   */\n      swap3\n      swap2\n      pop\n      pop\n      jump\t// out\n        /* \"#utility.yul\":9336:9680   */\n    tag_454:\n        /* \"#utility.yul\":9414:9417   */\n      0x00\n        /* \"#utility.yul\":9442:9481   */\n      tag_456\n        /* \"#utility.yul\":9475:9480   */\n      dup3\n        /* \"#utility.yul\":9442:9481   */\n      tag_457\n      jump\t// in\n    tag_456:\n        /* \"#utility.yul\":9497:9558   */\n      tag_458\n        /* \"#utility.yul\":9551:9557   */\n      dup2\n        /* \"#utility.yul\":9546:9549   */\n      dup6\n        /* \"#utility.yul\":9497:9558   */\n      tag_459\n      jump\t// in\n    tag_458:\n        /* \"#utility.yul\":9490:9558   */\n      swap4\n      pop\n        /* \"#utility.yul\":9567:9619   */\n      tag_460\n        /* \"#utility.yul\":9612:9618   */\n      dup2\n        /* \"#utility.yul\":9607:9610   */\n      dup6\n        /* \"#utility.yul\":9600:9604   */\n      0x20\n        /* \"#utility.yul\":9593:9598   */\n      dup7\n        /* \"#utility.yul\":9589:9605   */\n      add\n        /* \"#utility.yul\":9567:9619   */\n      tag_451\n      jump\t// in\n    tag_460:\n        /* \"#utility.yul\":9644:9673   */\n      tag_461\n        /* \"#utility.yul\":9666:9672   */\n      dup2\n        /* \"#utility.yul\":9644:9673   */\n      tag_453\n      jump\t// in\n    tag_461:\n        /* \"#utility.yul\":9639:9642   */\n      dup5\n        /* \"#utility.yul\":9635:9674   */\n      add\n        /* \"#utility.yul\":9628:9674   */\n      swap2\n      pop\n        /* \"#utility.yul\":9418:9680   */\n      pop\n        /* \"#utility.yul\":9336:9680   */\n      swap3\n      swap2\n      pop\n      pop\n      jump\t// out\n        /* \"#utility.yul\":9686:10050   */\n    tag_462:\n        /* \"#utility.yul\":9774:9777   */\n      0x00\n        /* \"#utility.yul\":9802:9841   */\n      tag_464\n        /* \"#utility.yul\":9835:9840   */\n      dup3\n        /* \"#utility.yul\":9802:9841   */\n      tag_457\n      jump\t// in\n    tag_464:\n        /* \"#utility.yul\":9857:9928   */\n      tag_465\n        /* \"#utility.yul\":9921:9927   */\n      dup2\n        /* \"#utility.yul\":9916:9919   */\n      dup6\n        /* \"#utility.yul\":9857:9928   */\n      tag_466\n      jump\t// in\n    tag_465:\n        /* \"#utility.yul\":9850:9928   */\n      swap4\n      pop\n        /* \"#utility.yul\":9937:9989   */\n      tag_467\n        /* \"#utility.yul\":9982:9988   */\n      dup2\n        /* \"#utility.yul\":9977:9980   */\n      dup6\n        /* \"#utility.yul\":9970:9974   */\n      0x20\n        /* \"#utility.yul\":9963:9968   */\n      dup7\n        /* \"#utility.yul\":9959:9975   */\n      add\n        /* \"#utility.yul\":9937:9989   */\n      tag_451\n      jump\t// in\n    tag_467:\n        /* \"#utility.yul\":10014:10043   */\n      tag_468\n        /* \"#utility.yul\":10036:10042   */\n      dup2\n        /* \"#utility.yul\":10014:10043   */\n      tag_453\n      jump\t// in\n    tag_468:\n        /* \"#utility.yul\":10009:10012   */\n      dup5\n        /* \"#utility.yul\":10005:10044   */\n      add\n        /* \"#utility.yul\":9998:10044   */\n      swap2\n      pop\n        /* \"#utility.yul\":9778:10050   */\n      pop\n        /* \"#utility.yul\":9686:10050   */\n      swap3\n      swap2\n      pop\n      pop\n      jump\t// out\n        /* \"#utility.yul\":10056:10433   */\n    tag_469:\n        /* \"#utility.yul\":10162:10165   */\n      0x00\n        /* \"#utility.yul\":10190:10229   */\n      tag_471\n        /* \"#utility.yul\":10223:10228   */\n      dup3\n        /* \"#utility.yul\":10190:10229   */\n      tag_457\n      jump\t// in\n    tag_471:\n        /* \"#utility.yul\":10245:10334   */\n      tag_472\n        /* \"#utility.yul\":10327:10333   */\n      dup2\n        /* \"#utility.yul\":10322:10325   */\n      dup6\n        /* \"#utility.yul\":10245:10334   */\n      tag_473\n      jump\t// in\n    tag_472:\n        /* \"#utility.yul\":10238:10334   */\n      swap4\n      pop\n        /* \"#utility.yul\":10343:10395   */\n      tag_474\n        /* \"#utility.yul\":10388:10394   */\n      dup2\n        /* \"#utility.yul\":10383:10386   */\n      dup6\n        /* \"#utility.yul\":10376:10380   */\n      0x20\n        /* \"#utility.yul\":10369:10374   */\n      dup7\n        /* \"#utility.yul\":10365:10381   */\n      add\n        /* \"#utility.yul\":10343:10395   */\n      tag_451\n      jump\t// in\n    tag_474:\n        /* \"#utility.yul\":10420:10426   */\n      dup1\n        /* \"#utility.yul\":10415:10418   */\n      dup5\n        /* \"#utility.yul\":10411:10427   */\n      add\n        /* \"#utility.yul\":10404:10427   */\n      swap2\n      pop\n        /* \"#utility.yul\":10166:10433   */\n      pop\n        /* \"#utility.yul\":10056:10433   */\n      swap3\n      swap2\n      pop\n      pop\n      jump\t// out\n        /* \"#utility.yul\":10439:10805   */\n    tag_475:\n        /* \"#utility.yul\":10581:10584   */\n      0x00\n        /* \"#utility.yul\":10602:10669   */\n      tag_477\n        /* \"#utility.yul\":10666:10668   */\n      0x32\n        /* \"#utility.yul\":10661:10664   */\n      dup4\n        /* \"#utility.yul\":10602:10669   */\n      tag_466\n      jump\t// in\n    tag_477:\n        /* \"#utility.yul\":10595:10669   */\n      swap2\n      pop\n        /* \"#utility.yul\":10678:10771   */\n      tag_478\n        /* \"#utility.yul\":10767:10770   */\n      dup3\n        /* \"#utility.yul\":10678:10771   */\n      tag_479\n      jump\t// in\n    tag_478:\n        /* \"#utility.yul\":10796:10798   */\n      0x40\n        /* \"#utility.yul\":10791:10794   */\n      dup3\n        /* \"#utility.yul\":10787:10799   */\n      add\n        /* \"#utility.yul\":10780:10799   */\n      swap1\n      pop\n        /* \"#utility.yul\":10439:10805   */\n      swap2\n      swap1\n      pop\n      jump\t// out\n        /* \"#utility.yul\":10811:11177   */\n    tag_480:\n        /* \"#utility.yul\":10953:10956   */\n      0x00\n        /* \"#utility.yul\":10974:11041   */\n      tag_482\n        /* \"#utility.yul\":11038:11040   */\n      0x25\n        /* \"#utility.yul\":11033:11036   */\n      dup4\n        /* \"#utility.yul\":10974:11041   */\n      tag_466\n      jump\t// in\n    tag_482:\n        /* \"#utility.yul\":10967:11041   */\n      swap2\n      pop\n        /* \"#utility.yul\":11050:11143   */\n      tag_483\n        /* \"#utility.yul\":11139:11142   */\n      dup3\n        /* \"#utility.yul\":11050:11143   */\n      tag_484\n      jump\t// in\n    tag_483:\n        /* \"#utility.yul\":11168:11170   */\n      0x40\n        /* \"#utility.yul\":11163:11166   */\n      dup3\n        /* \"#utility.yul\":11159:11171   */\n      add\n        /* \"#utility.yul\":11152:11171   */\n      swap1\n      pop\n        /* \"#utility.yul\":10811:11177   */\n      swap2\n      swap1\n      pop\n      jump\t// out\n        /* \"#utility.yul\":11183:11549   */\n    tag_485:\n        /* \"#utility.yul\":11325:11328   */\n      0x00\n        /* \"#utility.yul\":11346:11413   */\n      tag_487\n        /* \"#utility.yul\":11410:11412   */\n      0x24\n        /* \"#utility.yul\":11405:11408   */\n      dup4\n        /* \"#utility.yul\":11346:11413   */\n      tag_466\n      jump\t// in\n    tag_487:\n        /* \"#utility.yul\":11339:11413   */\n      swap2\n      pop\n        /* \"#utility.yul\":11422:11515   */\n      tag_488\n        /* \"#utility.yul\":11511:11514   */\n      dup3\n        /* \"#utility.yul\":11422:11515   */\n      tag_489\n      jump\t// in\n    tag_488:\n        /* \"#utility.yul\":11540:11542   */\n      0x40\n        /* \"#utility.yul\":11535:11538   */\n      dup3\n        /* \"#utility.yul\":11531:11543   */\n      add\n        /* \"#utility.yul\":11524:11543   */\n      swap1\n      pop\n        /* \"#utility.yul\":11183:11549   */\n      swap2\n      swap1\n      pop\n      jump\t// out\n        /* \"#utility.yul\":11555:11921   */\n    tag_490:\n        /* \"#utility.yul\":11697:11700   */\n      0x00\n        /* \"#utility.yul\":11718:11785   */\n      tag_492\n        /* \"#utility.yul\":11782:11784   */\n      0x19\n        /* \"#utility.yul\":11777:11780   */\n      dup4\n        /* \"#utility.yul\":11718:11785   */\n      tag_466\n      jump\t// in\n    tag_492:\n        /* \"#utility.yul\":11711:11785   */\n      swap2\n      pop\n        /* \"#utility.yul\":11794:11887   */\n      tag_493\n        /* \"#utility.yul\":11883:11886   */\n      dup3\n        /* \"#utility.yul\":11794:11887   */\n      tag_494\n      jump\t// in\n    tag_493:\n        /* \"#utility.yul\":11912:11914   */\n      0x20\n        /* \"#utility.yul\":11907:11910   */\n      dup3\n        /* \"#utility.yul\":11903:11915   */\n      add\n        /* \"#utility.yul\":11896:11915   */\n      swap1\n      pop\n        /* \"#utility.yul\":11555:11921   */\n      swap2\n      swap1\n      pop\n      jump\t// out\n        /* \"#utility.yul\":11927:12293   */\n    tag_495:\n        /* \"#utility.yul\":12069:12072   */\n      0x00\n        /* \"#utility.yul\":12090:12157   */\n      tag_497\n        /* \"#utility.yul\":12154:12156   */\n      0x2c\n        /* \"#utility.yul\":12149:12152   */\n      dup4\n        /* \"#utility.yul\":12090:12157   */\n      tag_466\n      jump\t// in\n    tag_497:\n        /* \"#utility.yul\":12083:12157   */\n      swap2\n      pop\n        /* \"#utility.yul\":12166:12259   */\n      tag_498\n        /* \"#utility.yul\":12255:12258   */\n      dup3\n        /* \"#utility.yul\":12166:12259   */\n      tag_499\n      jump\t// in\n    tag_498:\n        /* \"#utility.yul\":12284:12286   */\n      0x40\n        /* \"#utility.yul\":12279:12282   */\n      dup3\n        /* \"#utility.yul\":12275:12287   */\n      add\n        /* \"#utility.yul\":12268:12287   */\n      swap1\n      pop\n        /* \"#utility.yul\":11927:12293   */\n      swap2\n      swap1\n      pop\n      jump\t// out\n        /* \"#utility.yul\":12299:12665   */\n    tag_500:\n        /* \"#utility.yul\":12441:12444   */\n      0x00\n        /* \"#utility.yul\":12462:12529   */\n      tag_502\n        /* \"#utility.yul\":12526:12528   */\n      0x29\n        /* \"#utility.yul\":12521:12524   */\n      dup4\n        /* \"#utility.yul\":12462:12529   */\n      tag_466\n      jump\t// in\n    tag_502:\n        /* \"#utility.yul\":12455:12529   */\n      swap2\n      pop\n        /* \"#utility.yul\":12538:12631   */\n      tag_503\n        /* \"#utility.yul\":12627:12630   */\n      dup3\n        /* \"#utility.yul\":12538:12631   */\n      tag_504\n      jump\t// in\n    tag_503:\n        /* \"#utility.yul\":12656:12658   */\n      0x40\n        /* \"#utility.yul\":12651:12654   */\n      dup3\n        /* \"#utility.yul\":12647:12659   */\n      add\n        /* \"#utility.yul\":12640:12659   */\n      swap1\n      pop\n        /* \"#utility.yul\":12299:12665   */\n      swap2\n      swap1\n      pop\n      jump\t// out\n        /* \"#utility.yul\":12671:13037   */\n    tag_505:\n        /* \"#utility.yul\":12813:12816   */\n      0x00\n        /* \"#utility.yul\":12834:12901   */\n      tag_507\n        /* \"#utility.yul\":12898:12900   */\n      0x38\n        /* \"#utility.yul\":12893:12896   */\n      dup4\n        /* \"#utility.yul\":12834:12901   */\n      tag_466\n      jump\t// in\n    tag_507:\n        /* \"#utility.yul\":12827:12901   */\n      swap2\n      pop\n        /* \"#utility.yul\":12910:13003   */\n      tag_508\n        /* \"#utility.yul\":12999:13002   */\n      dup3\n        /* \"#utility.yul\":12910:13003   */\n      tag_509\n      jump\t// in\n    tag_508:\n        /* \"#utility.yul\":13028:13030   */\n      0x40\n        /* \"#utility.yul\":13023:13026   */\n      dup3\n        /* \"#utility.yul\":13019:13031   */\n      add\n        /* \"#utility.yul\":13012:13031   */\n      swap1\n      pop\n        /* \"#utility.yul\":12671:13037   */\n      swap2\n      swap1\n      pop\n      jump\t// out\n        /* \"#utility.yul\":13043:13409   */\n    tag_510:\n        /* \"#utility.yul\":13185:13188   */\n      0x00\n        /* \"#utility.yul\":13206:13273   */\n      tag_512\n        /* \"#utility.yul\":13270:13272   */\n      0x29\n        /* \"#utility.yul\":13265:13268   */\n      dup4\n        /* \"#utility.yul\":13206:13273   */\n      tag_466\n      jump\t// in\n    tag_512:\n        /* \"#utility.yul\":13199:13273   */\n      swap2\n      pop\n        /* \"#utility.yul\":13282:13375   */\n      tag_513\n        /* \"#utility.yul\":13371:13374   */\n      dup3\n        /* \"#utility.yul\":13282:13375   */\n      tag_514\n      jump\t// in\n    tag_513:\n        /* \"#utility.yul\":13400:13402   */\n      0x40\n        /* \"#utility.yul\":13395:13398   */\n      dup3\n        /* \"#utility.yul\":13391:13403   */\n      add\n        /* \"#utility.yul\":13384:13403   */\n      swap1\n      pop\n        /* \"#utility.yul\":13043:13409   */\n      swap2\n      swap1\n      pop\n      jump\t// out\n        /* \"#utility.yul\":13415:13781   */\n    tag_515:\n        /* \"#utility.yul\":13557:13560   */\n      0x00\n        /* \"#utility.yul\":13578:13645   */\n      tag_517\n        /* \"#utility.yul\":13642:13644   */\n      0x2c\n        /* \"#utility.yul\":13637:13640   */\n      dup4\n        /* \"#utility.yul\":13578:13645   */\n      tag_466\n      jump\t// in\n    tag_517:\n        /* \"#utility.yul\":13571:13645   */\n      swap2\n      pop\n        /* \"#utility.yul\":13654:13747   */\n      tag_518\n        /* \"#utility.yul\":13743:13746   */\n      dup3\n        /* \"#utility.yul\":13654:13747   */\n      tag_519\n      jump\t// in\n    tag_518:\n        /* \"#utility.yul\":13772:13774   */\n      0x40\n        /* \"#utility.yul\":13767:13770   */\n      dup3\n        /* \"#utility.yul\":13763:13775   */\n      add\n        /* \"#utility.yul\":13756:13775   */\n      swap1\n      pop\n        /* \"#utility.yul\":13415:13781   */\n      swap2\n      swap1\n      pop\n      jump\t// out\n        /* \"#utility.yul\":13787:14153   */\n    tag_520:\n        /* \"#utility.yul\":13929:13932   */\n      0x00\n        /* \"#utility.yul\":13950:14017   */\n      tag_522\n        /* \"#utility.yul\":14014:14016   */\n      0x2f\n        /* \"#utility.yul\":14009:14012   */\n      dup4\n        /* \"#utility.yul\":13950:14017   */\n      tag_466\n      jump\t// in\n    tag_522:\n        /* \"#utility.yul\":13943:14017   */\n      swap2\n      pop\n        /* \"#utility.yul\":14026:14119   */\n      tag_523\n        /* \"#utility.yul\":14115:14118   */\n      dup3\n        /* \"#utility.yul\":14026:14119   */\n      tag_524\n      jump\t// in\n    tag_523:\n        /* \"#utility.yul\":14144:14146   */\n      0x40\n        /* \"#utility.yul\":14139:14142   */\n      dup3\n        /* \"#utility.yul\":14135:14147   */\n      add\n        /* \"#utility.yul\":14128:14147   */\n      swap1\n      pop\n        /* \"#utility.yul\":13787:14153   */\n      swap2\n      swap1\n      pop\n      jump\t// out\n        /* \"#utility.yul\":14159:14525   */\n    tag_525:\n        /* \"#utility.yul\":14301:14304   */\n      0x00\n        /* \"#utility.yul\":14322:14389   */\n      tag_527\n        /* \"#utility.yul\":14386:14388   */\n      0x1b\n        /* \"#utility.yul\":14381:14384   */\n      dup4\n        /* \"#utility.yul\":14322:14389   */\n      tag_466\n      jump\t// in\n    tag_527:\n        /* \"#utility.yul\":14315:14389   */\n      swap2\n      pop\n        /* \"#utility.yul\":14398:14491   */\n      tag_528\n        /* \"#utility.yul\":14487:14490   */\n      dup3\n        /* \"#utility.yul\":14398:14491   */\n      tag_529\n      jump\t// in\n    tag_528:\n        /* \"#utility.yul\":14516:14518   */\n      0x20\n        /* \"#utility.yul\":14511:14514   */\n      dup3\n        /* \"#utility.yul\":14507:14519   */\n      add\n        /* \"#utility.yul\":14500:14519   */\n      swap1\n      pop\n        /* \"#utility.yul\":14159:14525   */\n      swap2\n      swap1\n      pop\n      jump\t// out\n        /* \"#utility.yul\":14531:14897   */\n    tag_530:\n        /* \"#utility.yul\":14673:14676   */\n      0x00\n        /* \"#utility.yul\":14694:14761   */\n      tag_532\n        /* \"#utility.yul\":14758:14760   */\n      0x21\n        /* \"#utility.yul\":14753:14756   */\n      dup4\n        /* \"#utility.yul\":14694:14761   */\n      tag_466\n      jump\t// in\n    tag_532:\n        /* \"#utility.yul\":14687:14761   */\n      swap2\n      pop\n        /* \"#utility.yul\":14770:14863   */\n      tag_533\n        /* \"#utility.yul\":14859:14862   */\n      dup3\n        /* \"#utility.yul\":14770:14863   */\n      tag_534\n      jump\t// in\n    tag_533:\n        /* \"#utility.yul\":14888:14890   */\n      0x40\n        /* \"#utility.yul\":14883:14886   */\n      dup3\n        /* \"#utility.yul\":14879:14891   */\n      add\n        /* \"#utility.yul\":14872:14891   */\n      swap1\n      pop\n        /* \"#utility.yul\":14531:14897   */\n      swap2\n      swap1\n      pop\n      jump\t// out\n        /* \"#utility.yul\":14903:15269   */\n    tag_535:\n        /* \"#utility.yul\":15045:15048   */\n      0x00\n        /* \"#utility.yul\":15066:15133   */\n      tag_537\n        /* \"#utility.yul\":15130:15132   */\n      0x31\n        /* \"#utility.yul\":15125:15128   */\n      dup4\n        /* \"#utility.yul\":15066:15133   */\n      tag_466\n      jump\t// in\n    tag_537:\n        /* \"#utility.yul\":15059:15133   */\n      swap2\n      pop\n        /* \"#utility.yul\":15142:15235   */\n      tag_538\n        /* \"#utility.yul\":15231:15234   */\n      dup3\n        /* \"#utility.yul\":15142:15235   */\n      tag_539\n      jump\t// in\n    tag_538:\n        /* \"#utility.yul\":15260:15262   */\n      0x40\n        /* \"#utility.yul\":15255:15258   */\n      dup3\n        /* \"#utility.yul\":15251:15263   */\n      add\n        /* \"#utility.yul\":15244:15263   */\n      swap1\n      pop\n        /* \"#utility.yul\":14903:15269   */\n      swap2\n      swap1\n      pop\n      jump\t// out\n        /* \"#utility.yul\":15325:17188   */\n    tag_540:\n        /* \"#utility.yul\":15436:15439   */\n      0x00\n        /* \"#utility.yul\":15472:15478   */\n      0x0120\n        /* \"#utility.yul\":15467:15470   */\n      dup4\n        /* \"#utility.yul\":15463:15479   */\n      add\n        /* \"#utility.yul\":15559:15563   */\n      0x00\n        /* \"#utility.yul\":15552:15557   */\n      dup4\n        /* \"#utility.yul\":15548:15564   */\n      add\n        /* \"#utility.yul\":15542:15565   */\n      mload\n        /* \"#utility.yul\":15578:15641   */\n      tag_542\n        /* \"#utility.yul\":15635:15639   */\n      0x00\n        /* \"#utility.yul\":15630:15633   */\n      dup7\n        /* \"#utility.yul\":15626:15640   */\n      add\n        /* \"#utility.yul\":15612:15624   */\n      dup3\n        /* \"#utility.yul\":15578:15641   */\n      tag_543\n      jump\t// in\n    tag_542:\n        /* \"#utility.yul\":15489:15651   */\n      pop\n        /* \"#utility.yul\":15741:15745   */\n      0x20\n        /* \"#utility.yul\":15734:15739   */\n      dup4\n        /* \"#utility.yul\":15730:15746   */\n      add\n        /* \"#utility.yul\":15724:15747   */\n      mload\n        /* \"#utility.yul\":15760:15823   */\n      tag_544\n        /* \"#utility.yul\":15817:15821   */\n      0x20\n        /* \"#utility.yul\":15812:15815   */\n      dup7\n        /* \"#utility.yul\":15808:15822   */\n      add\n        /* \"#utility.yul\":15794:15806   */\n      dup3\n        /* \"#utility.yul\":15760:15823   */\n      tag_543\n      jump\t// in\n    tag_544:\n        /* \"#utility.yul\":15661:15833   */\n      pop\n        /* \"#utility.yul\":15916:15920   */\n      0x40\n        /* \"#utility.yul\":15909:15914   */\n      dup4\n        /* \"#utility.yul\":15905:15921   */\n      add\n        /* \"#utility.yul\":15899:15922   */\n      mload\n        /* \"#utility.yul\":15935:15998   */\n      tag_545\n        /* \"#utility.yul\":15992:15996   */\n      0x40\n        /* \"#utility.yul\":15987:15990   */\n      dup7\n        /* \"#utility.yul\":15983:15997   */\n      add\n        /* \"#utility.yul\":15969:15981   */\n      dup3\n        /* \"#utility.yul\":15935:15998   */\n      tag_543\n      jump\t// in\n    tag_545:\n        /* \"#utility.yul\":15843:16008   */\n      pop\n        /* \"#utility.yul\":16094:16098   */\n      0x60\n        /* \"#utility.yul\":16087:16092   */\n      dup4\n        /* \"#utility.yul\":16083:16099   */\n      add\n        /* \"#utility.yul\":16077:16100   */\n      mload\n        /* \"#utility.yul\":16113:16176   */\n      tag_546\n        /* \"#utility.yul\":16170:16174   */\n      0x60\n        /* \"#utility.yul\":16165:16168   */\n      dup7\n        /* \"#utility.yul\":16161:16175   */\n      add\n        /* \"#utility.yul\":16147:16159   */\n      dup3\n        /* \"#utility.yul\":16113:16176   */\n      tag_543\n      jump\t// in\n    tag_546:\n        /* \"#utility.yul\":16018:16186   */\n      pop\n        /* \"#utility.yul\":16268:16272   */\n      0x80\n        /* \"#utility.yul\":16261:16266   */\n      dup4\n        /* \"#utility.yul\":16257:16273   */\n      add\n        /* \"#utility.yul\":16251:16274   */\n      mload\n        /* \"#utility.yul\":16287:16350   */\n      tag_547\n        /* \"#utility.yul\":16344:16348   */\n      0x80\n        /* \"#utility.yul\":16339:16342   */\n      dup7\n        /* \"#utility.yul\":16335:16349   */\n      add\n        /* \"#utility.yul\":16321:16333   */\n      dup3\n        /* \"#utility.yul\":16287:16350   */\n      tag_543\n      jump\t// in\n    tag_547:\n        /* \"#utility.yul\":16196:16360   */\n      pop\n        /* \"#utility.yul\":16451:16455   */\n      0xa0\n        /* \"#utility.yul\":16444:16449   */\n      dup4\n        /* \"#utility.yul\":16440:16456   */\n      add\n        /* \"#utility.yul\":16434:16457   */\n      mload\n        /* \"#utility.yul\":16470:16533   */\n      tag_548\n        /* \"#utility.yul\":16527:16531   */\n      0xa0\n        /* \"#utility.yul\":16522:16525   */\n      dup7\n        /* \"#utility.yul\":16518:16532   */\n      add\n        /* \"#utility.yul\":16504:16516   */\n      dup3\n        /* \"#utility.yul\":16470:16533   */\n      tag_430\n      jump\t// in\n    tag_548:\n        /* \"#utility.yul\":16370:16543   */\n      pop\n        /* \"#utility.yul\":16633:16637   */\n      0xc0\n        /* \"#utility.yul\":16626:16631   */\n      dup4\n        /* \"#utility.yul\":16622:16638   */\n      add\n        /* \"#utility.yul\":16616:16639   */\n      mload\n        /* \"#utility.yul\":16652:16715   */\n      tag_549\n        /* \"#utility.yul\":16709:16713   */\n      0xc0\n        /* \"#utility.yul\":16704:16707   */\n      dup7\n        /* \"#utility.yul\":16700:16714   */\n      add\n        /* \"#utility.yul\":16686:16698   */\n      dup3\n        /* \"#utility.yul\":16652:16715   */\n      tag_430\n      jump\t// in\n    tag_549:\n        /* \"#utility.yul\":16553:16725   */\n      pop\n        /* \"#utility.yul\":16815:16819   */\n      0xe0\n        /* \"#utility.yul\":16808:16813   */\n      dup4\n        /* \"#utility.yul\":16804:16820   */\n      add\n        /* \"#utility.yul\":16798:16821   */\n      mload\n        /* \"#utility.yul\":16868:16871   */\n      dup5\n        /* \"#utility.yul\":16862:16866   */\n      dup3\n        /* \"#utility.yul\":16858:16872   */\n      sub\n        /* \"#utility.yul\":16851:16855   */\n      0xe0\n        /* \"#utility.yul\":16846:16849   */\n      dup7\n        /* \"#utility.yul\":16842:16856   */\n      add\n        /* \"#utility.yul\":16835:16873   */\n      mstore\n        /* \"#utility.yul\":16894:16967   */\n      tag_550\n        /* \"#utility.yul\":16962:16966   */\n      dup3\n        /* \"#utility.yul\":16948:16960   */\n      dup3\n        /* \"#utility.yul\":16894:16967   */\n      tag_454\n      jump\t// in\n    tag_550:\n        /* \"#utility.yul\":16886:16967   */\n      swap2\n      pop\n        /* \"#utility.yul\":16735:16978   */\n      pop\n        /* \"#utility.yul\":17071:17077   */\n      0x0100\n        /* \"#utility.yul\":17064:17069   */\n      dup4\n        /* \"#utility.yul\":17060:17078   */\n      add\n        /* \"#utility.yul\":17054:17079   */\n      mload\n        /* \"#utility.yul\":17092:17151   */\n      tag_551\n        /* \"#utility.yul\":17143:17149   */\n      0x0100\n        /* \"#utility.yul\":17138:17141   */\n      dup7\n        /* \"#utility.yul\":17134:17150   */\n      add\n        /* \"#utility.yul\":17120:17132   */\n      dup3\n        /* \"#utility.yul\":17092:17151   */\n      tag_437\n      jump\t// in\n    tag_551:\n        /* \"#utility.yul\":16988:17161   */\n      pop\n        /* \"#utility.yul\":17178:17182   */\n      dup1\n        /* \"#utility.yul\":17171:17182   */\n      swap2\n      pop\n        /* \"#utility.yul\":15441:17188   */\n      pop\n        /* \"#utility.yul\":15325:17188   */\n      swap3\n      swap2\n      pop\n      pop\n      jump\t// out\n        /* \"#utility.yul\":17194:17302   */\n    tag_543:\n        /* \"#utility.yul\":17271:17295   */\n      tag_553\n        /* \"#utility.yul\":17289:17294   */\n      dup2\n        /* \"#utility.yul\":17271:17295   */\n      tag_554\n      jump\t// in\n    tag_553:\n        /* \"#utility.yul\":17266:17269   */\n      dup3\n        /* \"#utility.yul\":17259:17296   */\n      mstore\n        /* \"#utility.yul\":17194:17302   */\n      pop\n      pop\n      jump\t// out\n        /* \"#utility.yul\":17308:17426   */\n    tag_555:\n        /* \"#utility.yul\":17395:17419   */\n      tag_557\n        /* \"#utility.yul\":17413:17418   */\n      dup2\n        /* \"#utility.yul\":17395:17419   */\n      tag_554\n      jump\t// in\n    tag_557:\n        /* \"#utility.yul\":17390:17393   */\n      dup3\n        /* \"#utility.yul\":17383:17420   */\n      mstore\n        /* \"#utility.yul\":17308:17426   */\n      pop\n      pop\n      jump\t// out\n        /* \"#utility.yul\":17432:17867   */\n    tag_209:\n        /* \"#utility.yul\":17612:17615   */\n      0x00\n        /* \"#utility.yul\":17634:17729   */\n      tag_559\n        /* \"#utility.yul\":17725:17728   */\n      dup3\n        /* \"#utility.yul\":17716:17722   */\n      dup6\n        /* \"#utility.yul\":17634:17729   */\n      tag_469\n      jump\t// in\n    tag_559:\n        /* \"#utility.yul\":17627:17729   */\n      swap2\n      pop\n        /* \"#utility.yul\":17746:17841   */\n      tag_560\n        /* \"#utility.yul\":17837:17840   */\n      dup3\n        /* \"#utility.yul\":17828:17834   */\n      dup5\n        /* \"#utility.yul\":17746:17841   */\n      tag_469\n      jump\t// in\n    tag_560:\n        /* \"#utility.yul\":17739:17841   */\n      swap2\n      pop\n        /* \"#utility.yul\":17858:17861   */\n      dup2\n        /* \"#utility.yul\":17851:17861   */\n      swap1\n      pop\n        /* \"#utility.yul\":17432:17867   */\n      swap4\n      swap3\n      pop\n      pop\n      pop\n      jump\t// out\n        /* \"#utility.yul\":17873:18095   */\n    tag_45:\n        /* \"#utility.yul\":17966:17970   */\n      0x00\n        /* \"#utility.yul\":18004:18006   */\n      0x20\n        /* \"#utility.yul\":17993:18002   */\n      dup3\n        /* \"#utility.yul\":17989:18007   */\n      add\n        /* \"#utility.yul\":17981:18007   */\n      swap1\n      pop\n        /* \"#utility.yul\":18017:18088   */\n      tag_562\n        /* \"#utility.yul\":18085:18086   */\n      0x00\n        /* \"#utility.yul\":18074:18083   */\n      dup4\n        /* \"#utility.yul\":18070:18087   */\n      add\n        /* \"#utility.yul\":18061:18067   */\n      dup5\n        /* \"#utility.yul\":18017:18088   */\n      tag_434\n      jump\t// in\n    tag_562:\n        /* \"#utility.yul\":17873:18095   */\n      swap3\n      swap2\n      pop\n      pop\n      jump\t// out\n        /* \"#utility.yul\":18101:18741   */\n    tag_288:\n        /* \"#utility.yul\":18296:18300   */\n      0x00\n        /* \"#utility.yul\":18334:18337   */\n      0x80\n        /* \"#utility.yul\":18323:18332   */\n      dup3\n        /* \"#utility.yul\":18319:18338   */\n      add\n        /* \"#utility.yul\":18311:18338   */\n      swap1\n      pop\n        /* \"#utility.yul\":18348:18419   */\n      tag_564\n        /* \"#utility.yul\":18416:18417   */\n      0x00\n        /* \"#utility.yul\":18405:18414   */\n      dup4\n        /* \"#utility.yul\":18401:18418   */\n      add\n        /* \"#utility.yul\":18392:18398   */\n      dup8\n        /* \"#utility.yul\":18348:18419   */\n      tag_434\n      jump\t// in\n    tag_564:\n        /* \"#utility.yul\":18429:18501   */\n      tag_565\n        /* \"#utility.yul\":18497:18499   */\n      0x20\n        /* \"#utility.yul\":18486:18495   */\n      dup4\n        /* \"#utility.yul\":18482:18500   */\n      add\n        /* \"#utility.yul\":18473:18479   */\n      dup7\n        /* \"#utility.yul\":18429:18501   */\n      tag_434\n      jump\t// in\n    tag_565:\n        /* \"#utility.yul\":18511:18583   */\n      tag_566\n        /* \"#utility.yul\":18579:18581   */\n      0x40\n        /* \"#utility.yul\":18568:18577   */\n      dup4\n        /* \"#utility.yul\":18564:18582   */\n      add\n        /* \"#utility.yul\":18555:18561   */\n      dup6\n        /* \"#utility.yul\":18511:18583   */\n      tag_555\n      jump\t// in\n    tag_566:\n        /* \"#utility.yul\":18630:18639   */\n      dup2\n        /* \"#utility.yul\":18624:18628   */\n      dup2\n        /* \"#utility.yul\":18620:18640   */\n      sub\n        /* \"#utility.yul\":18615:18617   */\n      0x60\n        /* \"#utility.yul\":18604:18613   */\n      dup4\n        /* \"#utility.yul\":18600:18618   */\n      add\n        /* \"#utility.yul\":18593:18641   */\n      mstore\n        /* \"#utility.yul\":18658:18734   */\n      tag_567\n        /* \"#utility.yul\":18729:18733   */\n      dup2\n        /* \"#utility.yul\":18720:18726   */\n      dup5\n        /* \"#utility.yul\":18658:18734   */\n      tag_444\n      jump\t// in\n    tag_567:\n        /* \"#utility.yul\":18650:18734   */\n      swap1\n      pop\n        /* \"#utility.yul\":18101:18741   */\n      swap6\n      swap5\n      pop\n      pop\n      pop\n      pop\n      pop\n      jump\t// out\n        /* \"#utility.yul\":18747:18957   */\n    tag_29:\n        /* \"#utility.yul\":18834:18838   */\n      0x00\n        /* \"#utility.yul\":18872:18874   */\n      0x20\n        /* \"#utility.yul\":18861:18870   */\n      dup3\n        /* \"#utility.yul\":18857:18875   */\n      add\n        /* \"#utility.yul\":18849:18875   */\n      swap1\n      pop\n        /* \"#utility.yul\":18885:18950   */\n      tag_569\n        /* \"#utility.yul\":18947:18948   */\n      0x00\n        /* \"#utility.yul\":18936:18945   */\n      dup4\n        /* \"#utility.yul\":18932:18949   */\n      add\n        /* \"#utility.yul\":18923:18929   */\n      dup5\n        /* \"#utility.yul\":18885:18950   */\n      tag_441\n      jump\t// in\n    tag_569:\n        /* \"#utility.yul\":18747:18957   */\n      swap3\n      swap2\n      pop\n      pop\n      jump\t// out\n        /* \"#utility.yul\":18963:19276   */\n    tag_39:\n        /* \"#utility.yul\":19076:19080   */\n      0x00\n        /* \"#utility.yul\":19114:19116   */\n      0x20\n        /* \"#utility.yul\":19103:19112   */\n      dup3\n        /* \"#utility.yul\":19099:19117   */\n      add\n        /* \"#utility.yul\":19091:19117   */\n      swap1\n      pop\n        /* \"#utility.yul\":19163:19172   */\n      dup2\n        /* \"#utility.yul\":19157:19161   */\n      dup2\n        /* \"#utility.yul\":19153:19173   */\n      sub\n        /* \"#utility.yul\":19149:19150   */\n      0x00\n        /* \"#utility.yul\":19138:19147   */\n      dup4\n        /* \"#utility.yul\":19134:19151   */\n      add\n        /* \"#utility.yul\":19127:19174   */\n      mstore\n        /* \"#utility.yul\":19191:19269   */\n      tag_571\n        /* \"#utility.yul\":19264:19268   */\n      dup2\n        /* \"#utility.yul\":19255:19261   */\n      dup5\n        /* \"#utility.yul\":19191:19269   */\n      tag_462\n      jump\t// in\n    tag_571:\n        /* \"#utility.yul\":19183:19269   */\n      swap1\n      pop\n        /* \"#utility.yul\":18963:19276   */\n      swap3\n      swap2\n      pop\n      pop\n      jump\t// out\n        /* \"#utility.yul\":19282:19701   */\n    tag_256:\n        /* \"#utility.yul\":19448:19452   */\n      0x00\n        /* \"#utility.yul\":19486:19488   */\n      0x20\n        /* \"#utility.yul\":19475:19484   */\n      dup3\n        /* \"#utility.yul\":19471:19489   */\n      add\n        /* \"#utility.yul\":19463:19489   */\n      swap1\n      pop\n        /* \"#utility.yul\":19535:19544   */\n      dup2\n        /* \"#utility.yul\":19529:19533   */\n      dup2\n        /* \"#utility.yul\":19525:19545   */\n      sub\n        /* \"#utility.yul\":19521:19522   */\n      0x00\n        /* \"#utility.yul\":19510:19519   */\n      dup4\n        /* \"#utility.yul\":19506:19523   */\n      add\n        /* \"#utility.yul\":19499:19546   */\n      mstore\n        /* \"#utility.yul\":19563:19694   */\n      tag_573\n        /* \"#utility.yul\":19689:19693   */\n      dup2\n        /* \"#utility.yul\":19563:19694   */\n      tag_475\n      jump\t// in\n    tag_573:\n        /* \"#utility.yul\":19555:19694   */\n      swap1\n      pop\n        /* \"#utility.yul\":19282:19701   */\n      swap2\n      swap1\n      pop\n      jump\t// out\n        /* \"#utility.yul\":19707:20126   */\n    tag_232:\n        /* \"#utility.yul\":19873:19877   */\n      0x00\n        /* \"#utility.yul\":19911:19913   */\n      0x20\n        /* \"#utility.yul\":19900:19909   */\n      dup3\n        /* \"#utility.yul\":19896:19914   */\n      add\n        /* \"#utility.yul\":19888:19914   */\n      swap1\n      pop\n        /* \"#utility.yul\":19960:19969   */\n      dup2\n        /* \"#utility.yul\":19954:19958   */\n      dup2\n        /* \"#utility.yul\":19950:19970   */\n      sub\n        /* \"#utility.yul\":19946:19947   */\n      0x00\n        /* \"#utility.yul\":19935:19944   */\n      dup4\n        /* \"#utility.yul\":19931:19948   */\n      add\n        /* \"#utility.yul\":19924:19971   */\n      mstore\n        /* \"#utility.yul\":19988:20119   */\n      tag_575\n        /* \"#utility.yul\":20114:20118   */\n      dup2\n        /* \"#utility.yul\":19988:20119   */\n      tag_480\n      jump\t// in\n    tag_575:\n        /* \"#utility.yul\":19980:20119   */\n      swap1\n      pop\n        /* \"#utility.yul\":19707:20126   */\n      swap2\n      swap1\n      pop\n      jump\t// out\n        /* \"#utility.yul\":20132:20551   */\n    tag_235:\n        /* \"#utility.yul\":20298:20302   */\n      0x00\n        /* \"#utility.yul\":20336:20338   */\n      0x20\n        /* \"#utility.yul\":20325:20334   */\n      dup3\n        /* \"#utility.yul\":20321:20339   */\n      add\n        /* \"#utility.yul\":20313:20339   */\n      swap1\n      pop\n        /* \"#utility.yul\":20385:20394   */\n      dup2\n        /* \"#utility.yul\":20379:20383   */\n      dup2\n        /* \"#utility.yul\":20375:20395   */\n      sub\n        /* \"#utility.yul\":20371:20372   */\n      0x00\n        /* \"#utility.yul\":20360:20369   */\n      dup4\n        /* \"#utility.yul\":20356:20373   */\n      add\n        /* \"#utility.yul\":20349:20396   */\n      mstore\n        /* \"#utility.yul\":20413:20544   */\n      tag_577\n        /* \"#utility.yul\":20539:20543   */\n      dup2\n        /* \"#utility.yul\":20413:20544   */\n      tag_485\n      jump\t// in\n    tag_577:\n        /* \"#utility.yul\":20405:20544   */\n      swap1\n      pop\n        /* \"#utility.yul\":20132:20551   */\n      swap2\n      swap1\n      pop\n      jump\t// out\n        /* \"#utility.yul\":20557:20976   */\n    tag_248:\n        /* \"#utility.yul\":20723:20727   */\n      0x00\n        /* \"#utility.yul\":20761:20763   */\n      0x20\n        /* \"#utility.yul\":20750:20759   */\n      dup3\n        /* \"#utility.yul\":20746:20764   */\n      add\n        /* \"#utility.yul\":20738:20764   */\n      swap1\n      pop\n        /* \"#utility.yul\":20810:20819   */\n      dup2\n        /* \"#utility.yul\":20804:20808   */\n      dup2\n        /* \"#utility.yul\":20800:20820   */\n      sub\n        /* \"#utility.yul\":20796:20797   */\n      0x00\n        /* \"#utility.yul\":20785:20794   */\n      dup4\n        /* \"#utility.yul\":20781:20798   */\n      add\n        /* \"#utility.yul\":20774:20821   */\n      mstore\n        /* \"#utility.yul\":20838:20969   */\n      tag_579\n        /* \"#utility.yul\":20964:20968   */\n      dup2\n        /* \"#utility.yul\":20838:20969   */\n      tag_490\n      jump\t// in\n    tag_579:\n        /* \"#utility.yul\":20830:20969   */\n      swap1\n      pop\n        /* \"#utility.yul\":20557:20976   */\n      swap2\n      swap1\n      pop\n      jump\t// out\n        /* \"#utility.yul\":20982:21401   */\n    tag_222:\n        /* \"#utility.yul\":21148:21152   */\n      0x00\n        /* \"#utility.yul\":21186:21188   */\n      0x20\n        /* \"#utility.yul\":21175:21184   */\n      dup3\n        /* \"#utility.yul\":21171:21189   */\n      add\n        /* \"#utility.yul\":21163:21189   */\n      swap1\n      pop\n        /* \"#utility.yul\":21235:21244   */\n      dup2\n        /* \"#utility.yul\":21229:21233   */\n      dup2\n        /* \"#utility.yul\":21225:21245   */\n      sub\n        /* \"#utility.yul\":21221:21222   */\n      0x00\n        /* \"#utility.yul\":21210:21219   */\n      dup4\n        /* \"#utility.yul\":21206:21223   */\n      add\n        /* \"#utility.yul\":21199:21246   */\n      mstore\n        /* \"#utility.yul\":21263:21394   */\n      tag_581\n        /* \"#utility.yul\":21389:21393   */\n      dup2\n        /* \"#utility.yul\":21263:21394   */\n      tag_495\n      jump\t// in\n    tag_581:\n        /* \"#utility.yul\":21255:21394   */\n      swap1\n      pop\n        /* \"#utility.yul\":20982:21401   */\n      swap2\n      swap1\n      pop\n      jump\t// out\n        /* \"#utility.yul\":21407:21826   */\n    tag_167:\n        /* \"#utility.yul\":21573:21577   */\n      0x00\n        /* \"#utility.yul\":21611:21613   */\n      0x20\n        /* \"#utility.yul\":21600:21609   */\n      dup3\n        /* \"#utility.yul\":21596:21614   */\n      add\n        /* \"#utility.yul\":21588:21614   */\n      swap1\n      pop\n        /* \"#utility.yul\":21660:21669   */\n      dup2\n        /* \"#utility.yul\":21654:21658   */\n      dup2\n        /* \"#utility.yul\":21650:21670   */\n      sub\n        /* \"#utility.yul\":21646:21647   */\n      0x00\n        /* \"#utility.yul\":21635:21644   */\n      dup4\n        /* \"#utility.yul\":21631:21648   */\n      add\n        /* \"#utility.yul\":21624:21671   */\n      mstore\n        /* \"#utility.yul\":21688:21819   */\n      tag_583\n        /* \"#utility.yul\":21814:21818   */\n      dup2\n        /* \"#utility.yul\":21688:21819   */\n      tag_500\n      jump\t// in\n    tag_583:\n        /* \"#utility.yul\":21680:21819   */\n      swap1\n      pop\n        /* \"#utility.yul\":21407:21826   */\n      swap2\n      swap1\n      pop\n      jump\t// out\n        /* \"#utility.yul\":21832:22251   */\n    tag_146:\n        /* \"#utility.yul\":21998:22002   */\n      0x00\n        /* \"#utility.yul\":22036:22038   */\n      0x20\n        /* \"#utility.yul\":22025:22034   */\n      dup3\n        /* \"#utility.yul\":22021:22039   */\n      add\n        /* \"#utility.yul\":22013:22039   */\n      swap1\n      pop\n        /* \"#utility.yul\":22085:22094   */\n      dup2\n        /* \"#utility.yul\":22079:22083   */\n      dup2\n        /* \"#utility.yul\":22075:22095   */\n      sub\n        /* \"#utility.yul\":22071:22072   */\n      0x00\n        /* \"#utility.yul\":22060:22069   */\n      dup4\n        /* \"#utility.yul\":22056:22073   */\n      add\n        /* \"#utility.yul\":22049:22096   */\n      mstore\n        /* \"#utility.yul\":22113:22244   */\n      tag_585\n        /* \"#utility.yul\":22239:22243   */\n      dup2\n        /* \"#utility.yul\":22113:22244   */\n      tag_505\n      jump\t// in\n    tag_585:\n        /* \"#utility.yul\":22105:22244   */\n      swap1\n      pop\n        /* \"#utility.yul\":21832:22251   */\n      swap2\n      swap1\n      pop\n      jump\t// out\n        /* \"#utility.yul\":22257:22676   */\n    tag_163:\n        /* \"#utility.yul\":22423:22427   */\n      0x00\n        /* \"#utility.yul\":22461:22463   */\n      0x20\n        /* \"#utility.yul\":22450:22459   */\n      dup3\n        /* \"#utility.yul\":22446:22464   */\n      add\n        /* \"#utility.yul\":22438:22464   */\n      swap1\n      pop\n        /* \"#utility.yul\":22510:22519   */\n      dup2\n        /* \"#utility.yul\":22504:22508   */\n      dup2\n        /* \"#utility.yul\":22500:22520   */\n      sub\n        /* \"#utility.yul\":22496:22497   */\n      0x00\n        /* \"#utility.yul\":22485:22494   */\n      dup4\n        /* \"#utility.yul\":22481:22498   */\n      add\n        /* \"#utility.yul\":22474:22521   */\n      mstore\n        /* \"#utility.yul\":22538:22669   */\n      tag_587\n        /* \"#utility.yul\":22664:22668   */\n      dup2\n        /* \"#utility.yul\":22538:22669   */\n      tag_510\n      jump\t// in\n    tag_587:\n        /* \"#utility.yul\":22530:22669   */\n      swap1\n      pop\n        /* \"#utility.yul\":22257:22676   */\n      swap2\n      swap1\n      pop\n      jump\t// out\n        /* \"#utility.yul\":22682:23101   */\n    tag_133:\n        /* \"#utility.yul\":22848:22852   */\n      0x00\n        /* \"#utility.yul\":22886:22888   */\n      0x20\n        /* \"#utility.yul\":22875:22884   */\n      dup3\n        /* \"#utility.yul\":22871:22889   */\n      add\n        /* \"#utility.yul\":22863:22889   */\n      swap1\n      pop\n        /* \"#utility.yul\":22935:22944   */\n      dup2\n        /* \"#utility.yul\":22929:22933   */\n      dup2\n        /* \"#utility.yul\":22925:22945   */\n      sub\n        /* \"#utility.yul\":22921:22922   */\n      0x00\n        /* \"#utility.yul\":22910:22919   */\n      dup4\n        /* \"#utility.yul\":22906:22923   */\n      add\n        /* \"#utility.yul\":22899:22946   */\n      mstore\n        /* \"#utility.yul\":22963:23094   */\n      tag_589\n        /* \"#utility.yul\":23089:23093   */\n      dup2\n        /* \"#utility.yul\":22963:23094   */\n      tag_515\n      jump\t// in\n    tag_589:\n        /* \"#utility.yul\":22955:23094   */\n      swap1\n      pop\n        /* \"#utility.yul\":22682:23101   */\n      swap2\n      swap1\n      pop\n      jump\t// out\n        /* \"#utility.yul\":23107:23526   */\n    tag_201:\n        /* \"#utility.yul\":23273:23277   */\n      0x00\n        /* \"#utility.yul\":23311:23313   */\n      0x20\n        /* \"#utility.yul\":23300:23309   */\n      dup3\n        /* \"#utility.yul\":23296:23314   */\n      add\n        /* \"#utility.yul\":23288:23314   */\n      swap1\n      pop\n        /* \"#utility.yul\":23360:23369   */\n      dup2\n        /* \"#utility.yul\":23354:23358   */\n      dup2\n        /* \"#utility.yul\":23350:23370   */\n      sub\n        /* \"#utility.yul\":23346:23347   */\n      0x00\n        /* \"#utility.yul\":23335:23344   */\n      dup4\n        /* \"#utility.yul\":23331:23348   */\n      add\n        /* \"#utility.yul\":23324:23371   */\n      mstore\n        /* \"#utility.yul\":23388:23519   */\n      tag_591\n        /* \"#utility.yul\":23514:23518   */\n      dup2\n        /* \"#utility.yul\":23388:23519   */\n      tag_520\n      jump\t// in\n    tag_591:\n        /* \"#utility.yul\":23380:23519   */\n      swap1\n      pop\n        /* \"#utility.yul\":23107:23526   */\n      swap2\n      swap1\n      pop\n      jump\t// out\n        /* \"#utility.yul\":23532:23951   */\n    tag_113:\n        /* \"#utility.yul\":23698:23702   */\n      0x00\n        /* \"#utility.yul\":23736:23738   */\n      0x20\n        /* \"#utility.yul\":23725:23734   */\n      dup3\n        /* \"#utility.yul\":23721:23739   */\n      add\n        /* \"#utility.yul\":23713:23739   */\n      swap1\n      pop\n        /* \"#utility.yul\":23785:23794   */\n      dup2\n        /* \"#utility.yul\":23779:23783   */\n      dup2\n        /* \"#utility.yul\":23775:23795   */\n      sub\n        /* \"#utility.yul\":23771:23772   */\n      0x00\n        /* \"#utility.yul\":23760:23769   */\n      dup4\n        /* \"#utility.yul\":23756:23773   */\n      add\n        /* \"#utility.yul\":23749:23796   */\n      mstore\n        /* \"#utility.yul\":23813:23944   */\n      tag_593\n        /* \"#utility.yul\":23939:23943   */\n      dup2\n        /* \"#utility.yul\":23813:23944   */\n      tag_525\n      jump\t// in\n    tag_593:\n        /* \"#utility.yul\":23805:23944   */\n      swap1\n      pop\n        /* \"#utility.yul\":23532:23951   */\n      swap2\n      swap1\n      pop\n      jump\t// out\n        /* \"#utility.yul\":23957:24376   */\n    tag_138:\n        /* \"#utility.yul\":24123:24127   */\n      0x00\n        /* \"#utility.yul\":24161:24163   */\n      0x20\n        /* \"#utility.yul\":24150:24159   */\n      dup3\n        /* \"#utility.yul\":24146:24164   */\n      add\n        /* \"#utility.yul\":24138:24164   */\n      swap1\n      pop\n        /* \"#utility.yul\":24210:24219   */\n      dup2\n        /* \"#utility.yul\":24204:24208   */\n      dup2\n        /* \"#utility.yul\":24200:24220   */\n      sub\n        /* \"#utility.yul\":24196:24197   */\n      0x00\n        /* \"#utility.yul\":24185:24194   */\n      dup4\n        /* \"#utility.yul\":24181:24198   */\n      add\n        /* \"#utility.yul\":24174:24221   */\n      mstore\n        /* \"#utility.yul\":24238:24369   */\n      tag_595\n        /* \"#utility.yul\":24364:24368   */\n      dup2\n        /* \"#utility.yul\":24238:24369   */\n      tag_530\n      jump\t// in\n    tag_595:\n        /* \"#utility.yul\":24230:24369   */\n      swap1\n      pop\n        /* \"#utility.yul\":23957:24376   */\n      swap2\n      swap1\n      pop\n      jump\t// out\n        /* \"#utility.yul\":24382:24801   */\n    tag_155:\n        /* \"#utility.yul\":24548:24552   */\n      0x00\n        /* \"#utility.yul\":24586:24588   */\n      0x20\n        /* \"#utility.yul\":24575:24584   */\n      dup3\n        /* \"#utility.yul\":24571:24589   */\n      add\n        /* \"#utility.yul\":24563:24589   */\n      swap1\n      pop\n        /* \"#utility.yul\":24635:24644   */\n      dup2\n        /* \"#utility.yul\":24629:24633   */\n      dup2\n        /* \"#utility.yul\":24625:24645   */\n      sub\n        /* \"#utility.yul\":24621:24622   */\n      0x00\n        /* \"#utility.yul\":24610:24619   */\n      dup4\n        /* \"#utility.yul\":24606:24623   */\n      add\n        /* \"#utility.yul\":24599:24646   */\n      mstore\n        /* \"#utility.yul\":24663:24794   */\n      tag_597\n        /* \"#utility.yul\":24789:24793   */\n      dup2\n        /* \"#utility.yul\":24663:24794   */\n      tag_535\n      jump\t// in\n    tag_597:\n        /* \"#utility.yul\":24655:24794   */\n      swap1\n      pop\n        /* \"#utility.yul\":24382:24801   */\n      swap2\n      swap1\n      pop\n      jump\t// out\n        /* \"#utility.yul\":24807:25164   */\n    tag_35:\n        /* \"#utility.yul\":24942:24946   */\n      0x00\n        /* \"#utility.yul\":24980:24982   */\n      0x20\n        /* \"#utility.yul\":24969:24978   */\n      dup3\n        /* \"#utility.yul\":24965:24983   */\n      add\n        /* \"#utility.yul\":24957:24983   */\n      swap1\n      pop\n        /* \"#utility.yul\":25029:25038   */\n      dup2\n        /* \"#utility.yul\":25023:25027   */\n      dup2\n        /* \"#utility.yul\":25019:25039   */\n      sub\n        /* \"#utility.yul\":25015:25016   */\n      0x00\n        /* \"#utility.yul\":25004:25013   */\n      dup4\n        /* \"#utility.yul\":25000:25017   */\n      add\n        /* \"#utility.yul\":24993:25040   */\n      mstore\n        /* \"#utility.yul\":25057:25157   */\n      tag_599\n        /* \"#utility.yul\":25152:25156   */\n      dup2\n        /* \"#utility.yul\":25143:25149   */\n      dup5\n        /* \"#utility.yul\":25057:25157   */\n      tag_540\n      jump\t// in\n    tag_599:\n        /* \"#utility.yul\":25049:25157   */\n      swap1\n      pop\n        /* \"#utility.yul\":24807:25164   */\n      swap3\n      swap2\n      pop\n      pop\n      jump\t// out\n        /* \"#utility.yul\":25170:25392   */\n    tag_66:\n        /* \"#utility.yul\":25263:25267   */\n      0x00\n        /* \"#utility.yul\":25301:25303   */\n      0x20\n        /* \"#utility.yul\":25290:25299   */\n      dup3\n        /* \"#utility.yul\":25286:25304   */\n      add\n        /* \"#utility.yul\":25278:25304   */\n      swap1\n      pop\n        /* \"#utility.yul\":25314:25385   */\n      tag_601\n        /* \"#utility.yul\":25382:25383   */\n      0x00\n        /* \"#utility.yul\":25371:25380   */\n      dup4\n        /* \"#utility.yul\":25367:25384   */\n      add\n        /* \"#utility.yul\":25358:25364   */\n      dup5\n        /* \"#utility.yul\":25314:25385   */\n      tag_555\n      jump\t// in\n    tag_601:\n        /* \"#utility.yul\":25170:25392   */\n      swap3\n      swap2\n      pop\n      pop\n      jump\t// out\n        /* \"#utility.yul\":25398:26585   */\n    tag_82:\n        /* \"#utility.yul\":25729:25733   */\n      0x00\n        /* \"#utility.yul\":25767:25770   */\n      0x0120\n        /* \"#utility.yul\":25756:25765   */\n      dup3\n        /* \"#utility.yul\":25752:25771   */\n      add\n        /* \"#utility.yul\":25744:25771   */\n      swap1\n      pop\n        /* \"#utility.yul\":25781:25852   */\n      tag_603\n        /* \"#utility.yul\":25849:25850   */\n      0x00\n        /* \"#utility.yul\":25838:25847   */\n      dup4\n        /* \"#utility.yul\":25834:25851   */\n      add\n        /* \"#utility.yul\":25825:25831   */\n      dup13\n        /* \"#utility.yul\":25781:25852   */\n      tag_555\n      jump\t// in\n    tag_603:\n        /* \"#utility.yul\":25862:25934   */\n      tag_604\n        /* \"#utility.yul\":25930:25932   */\n      0x20\n        /* \"#utility.yul\":25919:25928   */\n      dup4\n        /* \"#utility.yul\":25915:25933   */\n      add\n        /* \"#utility.yul\":25906:25912   */\n      dup12\n        /* \"#utility.yul\":25862:25934   */\n      tag_555\n      jump\t// in\n    tag_604:\n        /* \"#utility.yul\":25944:26016   */\n      tag_605\n        /* \"#utility.yul\":26012:26014   */\n      0x40\n        /* \"#utility.yul\":26001:26010   */\n      dup4\n        /* \"#utility.yul\":25997:26015   */\n      add\n        /* \"#utility.yul\":25988:25994   */\n      dup11\n        /* \"#utility.yul\":25944:26016   */\n      tag_555\n      jump\t// in\n    tag_605:\n        /* \"#utility.yul\":26026:26098   */\n      tag_606\n        /* \"#utility.yul\":26094:26096   */\n      0x60\n        /* \"#utility.yul\":26083:26092   */\n      dup4\n        /* \"#utility.yul\":26079:26097   */\n      add\n        /* \"#utility.yul\":26070:26076   */\n      dup10\n        /* \"#utility.yul\":26026:26098   */\n      tag_555\n      jump\t// in\n    tag_606:\n        /* \"#utility.yul\":26108:26181   */\n      tag_607\n        /* \"#utility.yul\":26176:26179   */\n      0x80\n        /* \"#utility.yul\":26165:26174   */\n      dup4\n        /* \"#utility.yul\":26161:26180   */\n      add\n        /* \"#utility.yul\":26152:26158   */\n      dup9\n        /* \"#utility.yul\":26108:26181   */\n      tag_555\n      jump\t// in\n    tag_607:\n        /* \"#utility.yul\":26191:26264   */\n      tag_608\n        /* \"#utility.yul\":26259:26262   */\n      0xa0\n        /* \"#utility.yul\":26248:26257   */\n      dup4\n        /* \"#utility.yul\":26244:26263   */\n      add\n        /* \"#utility.yul\":26235:26241   */\n      dup8\n        /* \"#utility.yul\":26191:26264   */\n      tag_434\n      jump\t// in\n    tag_608:\n        /* \"#utility.yul\":26274:26347   */\n      tag_609\n        /* \"#utility.yul\":26342:26345   */\n      0xc0\n        /* \"#utility.yul\":26331:26340   */\n      dup4\n        /* \"#utility.yul\":26327:26346   */\n      add\n        /* \"#utility.yul\":26318:26324   */\n      dup7\n        /* \"#utility.yul\":26274:26347   */\n      tag_434\n      jump\t// in\n    tag_609:\n        /* \"#utility.yul\":26395:26404   */\n      dup2\n        /* \"#utility.yul\":26389:26393   */\n      dup2\n        /* \"#utility.yul\":26385:26405   */\n      sub\n        /* \"#utility.yul\":26379:26382   */\n      0xe0\n        /* \"#utility.yul\":26368:26377   */\n      dup4\n        /* \"#utility.yul\":26364:26383   */\n      add\n        /* \"#utility.yul\":26357:26406   */\n      mstore\n        /* \"#utility.yul\":26423:26501   */\n      tag_610\n        /* \"#utility.yul\":26496:26500   */\n      dup2\n        /* \"#utility.yul\":26487:26493   */\n      dup6\n        /* \"#utility.yul\":26423:26501   */\n      tag_462\n      jump\t// in\n    tag_610:\n        /* \"#utility.yul\":26415:26501   */\n      swap1\n      pop\n        /* \"#utility.yul\":26511:26578   */\n      tag_611\n        /* \"#utility.yul\":26573:26576   */\n      0x0100\n        /* \"#utility.yul\":26562:26571   */\n      dup4\n        /* \"#utility.yul\":26558:26577   */\n      add\n        /* \"#utility.yul\":26549:26555   */\n      dup5\n        /* \"#utility.yul\":26511:26578   */\n      tag_441\n      jump\t// in\n    tag_611:\n        /* \"#utility.yul\":25398:26585   */\n      swap11\n      swap10\n      pop\n      pop\n      pop\n      pop\n      pop\n      pop\n      pop\n      pop\n      pop\n      pop\n      jump\t// out\n        /* \"#utility.yul\":26591:26720   */\n    tag_321:\n        /* \"#utility.yul\":26625:26631   */\n      0x00\n        /* \"#utility.yul\":26652:26672   */\n      tag_613\n      tag_614\n      jump\t// in\n    tag_613:\n        /* \"#utility.yul\":26642:26672   */\n      swap1\n      pop\n        /* \"#utility.yul\":26681:26714   */\n      tag_615\n        /* \"#utility.yul\":26709:26713   */\n      dup3\n        /* \"#utility.yul\":26701:26707   */\n      dup3\n        /* \"#utility.yul\":26681:26714   */\n      tag_616\n      jump\t// in\n    tag_615:\n        /* \"#utility.yul\":26591:26720   */\n      swap2\n      swap1\n      pop\n      jump\t// out\n        /* \"#utility.yul\":26726:26801   */\n    tag_614:\n        /* \"#utility.yul\":26759:26765   */\n      0x00\n        /* \"#utility.yul\":26792:26794   */\n      0x40\n        /* \"#utility.yul\":26786:26795   */\n      mload\n        /* \"#utility.yul\":26776:26795   */\n      swap1\n      pop\n        /* \"#utility.yul\":26726:26801   */\n      swap1\n      jump\t// out\n        /* \"#utility.yul\":26807:27114   */\n    tag_320:\n        /* \"#utility.yul\":26868:26872   */\n      0x00\n        /* \"#utility.yul\":26958:26976   */\n      0xffffffffffffffff\n        /* \"#utility.yul\":26950:26956   */\n      dup3\n        /* \"#utility.yul\":26947:26977   */\n      gt\n        /* \"#utility.yul\":26944:27000   */\n      iszero\n      tag_619\n      jumpi\n        /* \"#utility.yul\":26980:26998   */\n      tag_620\n      tag_268\n      jump\t// in\n    tag_620:\n        /* \"#utility.yul\":26944:27000   */\n    tag_619:\n        /* \"#utility.yul\":27018:27047   */\n      tag_621\n        /* \"#utility.yul\":27040:27046   */\n      dup3\n        /* \"#utility.yul\":27018:27047   */\n      tag_453\n      jump\t// in\n    tag_621:\n        /* \"#utility.yul\":27010:27047   */\n      swap1\n      pop\n        /* \"#utility.yul\":27102:27106   */\n      0x20\n        /* \"#utility.yul\":27096:27100   */\n      dup2\n        /* \"#utility.yul\":27092:27107   */\n      add\n        /* \"#utility.yul\":27084:27107   */\n      swap1\n      pop\n        /* \"#utility.yul\":26807:27114   */\n      swap2\n      swap1\n      pop\n      jump\t// out\n        /* \"#utility.yul\":27120:27428   */\n    tag_331:\n        /* \"#utility.yul\":27182:27186   */\n      0x00\n        /* \"#utility.yul\":27272:27290   */\n      0xffffffffffffffff\n        /* \"#utility.yul\":27264:27270   */\n      dup3\n        /* \"#utility.yul\":27261:27291   */\n      gt\n        /* \"#utility.yul\":27258:27314   */\n      iszero\n      tag_623\n      jumpi\n        /* \"#utility.yul\":27294:27312   */\n      tag_624\n      tag_268\n      jump\t// in\n    tag_624:\n        /* \"#utility.yul\":27258:27314   */\n    tag_623:\n        /* \"#utility.yul\":27332:27361   */\n      tag_625\n        /* \"#utility.yul\":27354:27360   */\n      dup3\n        /* \"#utility.yul\":27332:27361   */\n      tag_453\n      jump\t// in\n    tag_625:\n        /* \"#utility.yul\":27324:27361   */\n      swap1\n      pop\n        /* \"#utility.yul\":27416:27420   */\n      0x20\n        /* \"#utility.yul\":27410:27414   */\n      dup2\n        /* \"#utility.yul\":27406:27421   */\n      add\n        /* \"#utility.yul\":27398:27421   */\n      swap1\n      pop\n        /* \"#utility.yul\":27120:27428   */\n      swap2\n      swap1\n      pop\n      jump\t// out\n        /* \"#utility.yul\":27434:27532   */\n    tag_447:\n        /* \"#utility.yul\":27485:27491   */\n      0x00\n        /* \"#utility.yul\":27519:27524   */\n      dup2\n        /* \"#utility.yul\":27513:27525   */\n      mload\n        /* \"#utility.yul\":27503:27525   */\n      swap1\n      pop\n        /* \"#utility.yul\":27434:27532   */\n      swap2\n      swap1\n      pop\n      jump\t// out\n        /* \"#utility.yul\":27538:27637   */\n    tag_457:\n        /* \"#utility.yul\":27590:27596   */\n      0x00\n        /* \"#utility.yul\":27624:27629   */\n      dup2\n        /* \"#utility.yul\":27618:27630   */\n      mload\n        /* \"#utility.yul\":27608:27630   */\n      swap1\n      pop\n        /* \"#utility.yul\":27538:27637   */\n      swap2\n      swap1\n      pop\n      jump\t// out\n        /* \"#utility.yul\":27643:27811   */\n    tag_449:\n        /* \"#utility.yul\":27726:27737   */\n      0x00\n        /* \"#utility.yul\":27760:27766   */\n      dup3\n        /* \"#utility.yul\":27755:27758   */\n      dup3\n        /* \"#utility.yul\":27748:27767   */\n      mstore\n        /* \"#utility.yul\":27800:27804   */\n      0x20\n        /* \"#utility.yul\":27795:27798   */\n      dup3\n        /* \"#utility.yul\":27791:27805   */\n      add\n        /* \"#utility.yul\":27776:27805   */\n      swap1\n      pop\n        /* \"#utility.yul\":27643:27811   */\n      swap3\n      swap2\n      pop\n      pop\n      jump\t// out\n        /* \"#utility.yul\":27817:27976   */\n    tag_459:\n        /* \"#utility.yul\":27891:27902   */\n      0x00\n        /* \"#utility.yul\":27925:27931   */\n      dup3\n        /* \"#utility.yul\":27920:27923   */\n      dup3\n        /* \"#utility.yul\":27913:27932   */\n      mstore\n        /* \"#utility.yul\":27965:27969   */\n      0x20\n        /* \"#utility.yul\":27960:27963   */\n      dup3\n        /* \"#utility.yul\":27956:27970   */\n      add\n        /* \"#utility.yul\":27941:27970   */\n      swap1\n      pop\n        /* \"#utility.yul\":27817:27976   */\n      swap3\n      swap2\n      pop\n      pop\n      jump\t// out\n        /* \"#utility.yul\":27982:28151   */\n    tag_466:\n        /* \"#utility.yul\":28066:28077   */\n      0x00\n        /* \"#utility.yul\":28100:28106   */\n      dup3\n        /* \"#utility.yul\":28095:28098   */\n      dup3\n        /* \"#utility.yul\":28088:28107   */\n      mstore\n        /* \"#utility.yul\":28140:28144   */\n      0x20\n        /* \"#utility.yul\":28135:28138   */\n      dup3\n        /* \"#utility.yul\":28131:28145   */\n      add\n        /* \"#utility.yul\":28116:28145   */\n      swap1\n      pop\n        /* \"#utility.yul\":27982:28151   */\n      swap3\n      swap2\n      pop\n      pop\n      jump\t// out\n        /* \"#utility.yul\":28157:28305   */\n    tag_473:\n        /* \"#utility.yul\":28259:28270   */\n      0x00\n        /* \"#utility.yul\":28296:28299   */\n      dup2\n        /* \"#utility.yul\":28281:28299   */\n      swap1\n      pop\n        /* \"#utility.yul\":28157:28305   */\n      swap3\n      swap2\n      pop\n      pop\n      jump\t// out\n        /* \"#utility.yul\":28311:28616   */\n    tag_242:\n        /* \"#utility.yul\":28351:28354   */\n      0x00\n        /* \"#utility.yul\":28370:28390   */\n      tag_633\n        /* \"#utility.yul\":28388:28389   */\n      dup3\n        /* \"#utility.yul\":28370:28390   */\n      tag_554\n      jump\t// in\n    tag_633:\n        /* \"#utility.yul\":28365:28390   */\n      swap2\n      pop\n        /* \"#utility.yul\":28404:28424   */\n      tag_634\n        /* \"#utility.yul\":28422:28423   */\n      dup4\n        /* \"#utility.yul\":28404:28424   */\n      tag_554\n      jump\t// in\n    tag_634:\n        /* \"#utility.yul\":28399:28424   */\n      swap3\n      pop\n        /* \"#utility.yul\":28558:28559   */\n      dup3\n        /* \"#utility.yul\":28490:28556   */\n      0xffffffffffffffffffffffffffffffffffffffffffffffffffffffffffffffff\n        /* \"#utility.yul\":28486:28560   */\n      sub\n        /* \"#utility.yul\":28483:28484   */\n      dup3\n        /* \"#utility.yul\":28480:28561   */\n      gt\n        /* \"#utility.yul\":28477:28584   */\n      iszero\n      tag_635\n      jumpi\n        /* \"#utility.yul\":28564:28582   */\n      tag_636\n      tag_637\n      jump\t// in\n    tag_636:\n        /* \"#utility.yul\":28477:28584   */\n    tag_635:\n        /* \"#utility.yul\":28608:28609   */\n      dup3\n        /* \"#utility.yul\":28605:28606   */\n      dup3\n        /* \"#utility.yul\":28601:28610   */\n      add\n        /* \"#utility.yul\":28594:28610   */\n      swap1\n      pop\n        /* \"#utility.yul\":28311:28616   */\n      swap3\n      swap2\n      pop\n      pop\n      jump\t// out\n        /* \"#utility.yul\":28622:28807   */\n    tag_265:\n        /* \"#utility.yul\":28662:28663   */\n      0x00\n        /* \"#utility.yul\":28679:28699   */\n      tag_639\n        /* \"#utility.yul\":28697:28698   */\n      dup3\n        /* \"#utility.yul\":28679:28699   */\n      tag_554\n      jump\t// in\n    tag_639:\n        /* \"#utility.yul\":28674:28699   */\n      swap2\n      pop\n        /* \"#utility.yul\":28713:28733   */\n      tag_640\n        /* \"#utility.yul\":28731:28732   */\n      dup4\n        /* \"#utility.yul\":28713:28733   */\n      tag_554\n      jump\t// in\n    tag_640:\n        /* \"#utility.yul\":28708:28733   */\n      swap3\n      pop\n        /* \"#utility.yul\":28752:28753   */\n      dup3\n        /* \"#utility.yul\":28742:28777   */\n      tag_641\n      jumpi\n        /* \"#utility.yul\":28757:28775   */\n      tag_642\n      tag_643\n      jump\t// in\n    tag_642:\n        /* \"#utility.yul\":28742:28777   */\n    tag_641:\n        /* \"#utility.yul\":28799:28800   */\n      dup3\n        /* \"#utility.yul\":28796:28797   */\n      dup3\n        /* \"#utility.yul\":28792:28801   */\n      div\n        /* \"#utility.yul\":28787:28801   */\n      swap1\n      pop\n        /* \"#utility.yul\":28622:28807   */\n      swap3\n      swap2\n      pop\n      pop\n      jump\t// out\n        /* \"#utility.yul\":28813:29004   */\n    tag_240:\n        /* \"#utility.yul\":28853:28857   */\n      0x00\n        /* \"#utility.yul\":28873:28893   */\n      tag_645\n        /* \"#utility.yul\":28891:28892   */\n      dup3\n        /* \"#utility.yul\":28873:28893   */\n      tag_554\n      jump\t// in\n    tag_645:\n        /* \"#utility.yul\":28868:28893   */\n      swap2\n      pop\n        /* \"#utility.yul\":28907:28927   */\n      tag_646\n        /* \"#utility.yul\":28925:28926   */\n      dup4\n        /* \"#utility.yul\":28907:28927   */\n      tag_554\n      jump\t// in\n    tag_646:\n        /* \"#utility.yul\":28902:28927   */\n      swap3\n      pop\n        /* \"#utility.yul\":28946:28947   */\n      dup3\n        /* \"#utility.yul\":28943:28944   */\n      dup3\n        /* \"#utility.yul\":28940:28948   */\n      lt\n        /* \"#utility.yul\":28937:28971   */\n      iszero\n      tag_647\n      jumpi\n        /* \"#utility.yul\":28951:28969   */\n      tag_648\n      tag_637\n      jump\t// in\n    tag_648:\n        /* \"#utility.yul\":28937:28971   */\n    tag_647:\n        /* \"#utility.yul\":28996:28997   */\n      dup3\n        /* \"#utility.yul\":28993:28994   */\n      dup3\n        /* \"#utility.yul\":28989:28998   */\n      sub\n        /* \"#utility.yul\":28981:28998   */\n      swap1\n      pop\n        /* \"#utility.yul\":28813:29004   */\n      swap3\n      swap2\n      pop\n      pop\n      jump\t// out\n        /* \"#utility.yul\":29010:29106   */\n    tag_433:\n        /* \"#utility.yul\":29047:29054   */\n      0x00\n        /* \"#utility.yul\":29076:29100   */\n      tag_650\n        /* \"#utility.yul\":29094:29099   */\n      dup3\n        /* \"#utility.yul\":29076:29100   */\n      tag_651\n      jump\t// in\n    tag_650:\n        /* \"#utility.yul\":29065:29100   */\n      swap1\n      pop\n        /* \"#utility.yul\":29010:29106   */\n      swap2\n      swap1\n      pop\n      jump\t// out\n        /* \"#utility.yul\":29112:29202   */\n    tag_440:\n        /* \"#utility.yul\":29146:29153   */\n      0x00\n        /* \"#utility.yul\":29189:29194   */\n      dup2\n        /* \"#utility.yul\":29182:29195   */\n      iszero\n        /* \"#utility.yul\":29175:29196   */\n      iszero\n        /* \"#utility.yul\":29164:29196   */\n      swap1\n      pop\n        /* \"#utility.yul\":29112:29202   */\n      swap2\n      swap1\n      pop\n      jump\t// out\n        /* \"#utility.yul\":29208:29357   */\n    tag_653:\n        /* \"#utility.yul\":29244:29251   */\n      0x00\n        /* \"#utility.yul\":29284:29350   */\n      0xffffffff00000000000000000000000000000000000000000000000000000000\n        /* \"#utility.yul\":29277:29282   */\n      dup3\n        /* \"#utility.yul\":29273:29351   */\n      and\n        /* \"#utility.yul\":29262:29351   */\n      swap1\n      pop\n        /* \"#utility.yul\":29208:29357   */\n      swap2\n      swap1\n      pop\n      jump\t// out\n        /* \"#utility.yul\":29363:29489   */\n    tag_651:\n        /* \"#utility.yul\":29400:29407   */\n      0x00\n        /* \"#utility.yul\":29440:29482   */\n      0xffffffffffffffffffffffffffffffffffffffff\n        /* \"#utility.yul\":29433:29438   */\n      dup3\n        /* \"#utility.yul\":29429:29483   */\n      and\n        /* \"#utility.yul\":29418:29483   */\n      swap1\n      pop\n        /* \"#utility.yul\":29363:29489   */\n      swap2\n      swap1\n      pop\n      jump\t// out\n        /* \"#utility.yul\":29495:29572   */\n    tag_554:\n        /* \"#utility.yul\":29532:29539   */\n      0x00\n        /* \"#utility.yul\":29561:29566   */\n      dup2\n        /* \"#utility.yul\":29550:29566   */\n      swap1\n      pop\n        /* \"#utility.yul\":29495:29572   */\n      swap2\n      swap1\n      pop\n      jump\t// out\n        /* \"#utility.yul\":29578:29732   */\n    tag_326:\n        /* \"#utility.yul\":29662:29668   */\n      dup3\n        /* \"#utility.yul\":29657:29660   */\n      dup2\n        /* \"#utility.yul\":29652:29655   */\n      dup4\n        /* \"#utility.yul\":29639:29669   */\n      calldatacopy\n        /* \"#utility.yul\":29724:29725   */\n      0x00\n        /* \"#utility.yul\":29715:29721   */\n      dup4\n        /* \"#utility.yul\":29710:29713   */\n      dup4\n        /* \"#utility.yul\":29706:29722   */\n      add\n        /* \"#utility.yul\":29699:29726   */\n      mstore\n        /* \"#utility.yul\":29578:29732   */\n      pop\n      pop\n      pop\n      jump\t// out\n        /* \"#utility.yul\":29738:30045   */\n    tag_451:\n        /* \"#utility.yul\":29806:29807   */\n      0x00\n        /* \"#utility.yul\":29816:29929   */\n    tag_659:\n        /* \"#utility.yul\":29830:29836   */\n      dup4\n        /* \"#utility.yul\":29827:29828   */\n      dup2\n        /* \"#utility.yul\":29824:29837   */\n      lt\n        /* \"#utility.yul\":29816:29929   */\n      iszero\n      tag_661\n      jumpi\n        /* \"#utility.yul\":29915:29916   */\n      dup1\n        /* \"#utility.yul\":29910:29913   */\n      dup3\n        /* \"#utility.yul\":29906:29917   */\n      add\n        /* \"#utility.yul\":29900:29918   */\n      mload\n        /* \"#utility.yul\":29896:29897   */\n      dup2\n        /* \"#utility.yul\":29891:29894   */\n      dup5\n        /* \"#utility.yul\":29887:29898   */\n      add\n        /* \"#utility.yul\":29880:29919   */\n      mstore\n        /* \"#utility.yul\":29852:29854   */\n      0x20\n        /* \"#utility.yul\":29849:29850   */\n      dup2\n        /* \"#utility.yul\":29845:29855   */\n      add\n        /* \"#utility.yul\":29840:29855   */\n      swap1\n      pop\n        /* \"#utility.yul\":29816:29929   */\n      jump(tag_659)\n    tag_661:\n        /* \"#utility.yul\":29947:29953   */\n      dup4\n        /* \"#utility.yul\":29944:29945   */\n      dup2\n        /* \"#utility.yul\":29941:29954   */\n      gt\n        /* \"#utility.yul\":29938:30039   */\n      iszero\n      tag_662\n      jumpi\n        /* \"#utility.yul\":30027:30028   */\n      0x00\n        /* \"#utility.yul\":30018:30024   */\n      dup5\n        /* \"#utility.yul\":30013:30016   */\n      dup5\n        /* \"#utility.yul\":30009:30025   */\n      add\n        /* \"#utility.yul\":30002:30029   */\n      mstore\n        /* \"#utility.yul\":29938:30039   */\n    tag_662:\n        /* \"#utility.yul\":29787:30045   */\n      pop\n        /* \"#utility.yul\":29738:30045   */\n      pop\n      pop\n      pop\n      jump\t// out\n        /* \"#utility.yul\":30051:30371   */\n    tag_117:\n        /* \"#utility.yul\":30095:30101   */\n      0x00\n        /* \"#utility.yul\":30132:30133   */\n      0x02\n        /* \"#utility.yul\":30126:30130   */\n      dup3\n        /* \"#utility.yul\":30122:30134   */\n      div\n        /* \"#utility.yul\":30112:30134   */\n      swap1\n      pop\n        /* \"#utility.yul\":30179:30180   */\n      0x01\n        /* \"#utility.yul\":30173:30177   */\n      dup3\n        /* \"#utility.yul\":30169:30181   */\n      and\n        /* \"#utility.yul\":30200:30218   */\n      dup1\n        /* \"#utility.yul\":30190:30271   */\n      tag_664\n      jumpi\n        /* \"#utility.yul\":30256:30260   */\n      0x7f\n        /* \"#utility.yul\":30248:30254   */\n      dup3\n        /* \"#utility.yul\":30244:30261   */\n      and\n        /* \"#utility.yul\":30234:30261   */\n      swap2\n      pop\n        /* \"#utility.yul\":30190:30271   */\n    tag_664:\n        /* \"#utility.yul\":30318:30320   */\n      0x20\n        /* \"#utility.yul\":30310:30316   */\n      dup3\n        /* \"#utility.yul\":30307:30321   */\n      lt\n        /* \"#utility.yul\":30287:30305   */\n      dup2\n        /* \"#utility.yul\":30284:30322   */\n      eq\n        /* \"#utility.yul\":30281:30365   */\n      iszero\n      tag_665\n      jumpi\n        /* \"#utility.yul\":30337:30355   */\n      tag_666\n      tag_667\n      jump\t// in\n    tag_666:\n        /* \"#utility.yul\":30281:30365   */\n    tag_665:\n        /* \"#utility.yul\":30102:30371   */\n      pop\n        /* \"#utility.yul\":30051:30371   */\n      swap2\n      swap1\n      pop\n      jump\t// out\n        /* \"#utility.yul\":30377:30658   */\n    tag_616:\n        /* \"#utility.yul\":30460:30487   */\n      tag_669\n        /* \"#utility.yul\":30482:30486   */\n      dup3\n        /* \"#utility.yul\":30460:30487   */\n      tag_453\n      jump\t// in\n    tag_669:\n        /* \"#utility.yul\":30452:30458   */\n      dup2\n        /* \"#utility.yul\":30448:30488   */\n      add\n        /* \"#utility.yul\":30590:30596   */\n      dup2\n        /* \"#utility.yul\":30578:30588   */\n      dup2\n        /* \"#utility.yul\":30575:30597   */\n      lt\n        /* \"#utility.yul\":30554:30572   */\n      0xffffffffffffffff\n        /* \"#utility.yul\":30542:30552   */\n      dup3\n        /* \"#utility.yul\":30539:30573   */\n      gt\n        /* \"#utility.yul\":30536:30598   */\n      or\n        /* \"#utility.yul\":30533:30621   */\n      iszero\n      tag_670\n      jumpi\n        /* \"#utility.yul\":30601:30619   */\n      tag_671\n      tag_268\n      jump\t// in\n    tag_671:\n        /* \"#utility.yul\":30533:30621   */\n    tag_670:\n        /* \"#utility.yul\":30641:30651   */\n      dup1\n        /* \"#utility.yul\":30637:30639   */\n      0x40\n        /* \"#utility.yul\":30630:30652   */\n      mstore\n        /* \"#utility.yul\":30420:30658   */\n      pop\n        /* \"#utility.yul\":30377:30658   */\n      pop\n      pop\n      jump\t// out\n        /* \"#utility.yul\":30664:30897   */\n    tag_263:\n        /* \"#utility.yul\":30703:30706   */\n      0x00\n        /* \"#utility.yul\":30726:30750   */\n      tag_673\n        /* \"#utility.yul\":30744:30749   */\n      dup3\n        /* \"#utility.yul\":30726:30750   */\n      tag_554\n      jump\t// in\n    tag_673:\n        /* \"#utility.yul\":30717:30750   */\n      swap2\n      pop\n        /* \"#utility.yul\":30772:30838   */\n      0xffffffffffffffffffffffffffffffffffffffffffffffffffffffffffffffff\n        /* \"#utility.yul\":30765:30770   */\n      dup3\n        /* \"#utility.yul\":30762:30839   */\n      eq\n        /* \"#utility.yul\":30759:30862   */\n      iszero\n      tag_674\n      jumpi\n        /* \"#utility.yul\":30842:30860   */\n      tag_675\n      tag_637\n      jump\t// in\n    tag_675:\n        /* \"#utility.yul\":30759:30862   */\n    tag_674:\n        /* \"#utility.yul\":30889:30890   */\n      0x01\n        /* \"#utility.yul\":30882:30887   */\n      dup3\n        /* \"#utility.yul\":30878:30891   */\n      add\n        /* \"#utility.yul\":30871:30891   */\n      swap1\n      pop\n        /* \"#utility.yul\":30664:30897   */\n      swap2\n      swap1\n      pop\n      jump\t// out\n        /* \"#utility.yul\":30903:31079   */\n    tag_274:\n        /* \"#utility.yul\":30935:30936   */\n      0x00\n        /* \"#utility.yul\":30952:30972   */\n      tag_677\n        /* \"#utility.yul\":30970:30971   */\n      dup3\n        /* \"#utility.yul\":30952:30972   */\n      tag_554\n      jump\t// in\n    tag_677:\n        /* \"#utility.yul\":30947:30972   */\n      swap2\n      pop\n        /* \"#utility.yul\":30986:31006   */\n      tag_678\n        /* \"#utility.yul\":31004:31005   */\n      dup4\n        /* \"#utility.yul\":30986:31006   */\n      tag_554\n      jump\t// in\n    tag_678:\n        /* \"#utility.yul\":30981:31006   */\n      swap3\n      pop\n        /* \"#utility.yul\":31025:31026   */\n      dup3\n        /* \"#utility.yul\":31015:31050   */\n      tag_679\n      jumpi\n        /* \"#utility.yul\":31030:31048   */\n      tag_680\n      tag_643\n      jump\t// in\n    tag_680:\n        /* \"#utility.yul\":31015:31050   */\n    tag_679:\n        /* \"#utility.yul\":31071:31072   */\n      dup3\n        /* \"#utility.yul\":31068:31069   */\n      dup3\n        /* \"#utility.yul\":31064:31073   */\n      mod\n        /* \"#utility.yul\":31059:31073   */\n      swap1\n      pop\n        /* \"#utility.yul\":30903:31079   */\n      swap3\n      swap2\n      pop\n      pop\n      jump\t// out\n        /* \"#utility.yul\":31085:31265   */\n    tag_637:\n        /* \"#utility.yul\":31133:31210   */\n      0x4e487b7100000000000000000000000000000000000000000000000000000000\n        /* \"#utility.yul\":31130:31131   */\n      0x00\n        /* \"#utility.yul\":31123:31211   */\n      mstore\n        /* \"#utility.yul\":31230:31234   */\n      0x11\n        /* \"#utility.yul\":31227:31228   */\n      0x04\n        /* \"#utility.yul\":31220:31235   */\n      mstore\n        /* \"#utility.yul\":31254:31258   */\n      0x24\n        /* \"#utility.yul\":31251:31252   */\n      0x00\n        /* \"#utility.yul\":31244:31259   */\n      revert\n        /* \"#utility.yul\":31271:31451   */\n    tag_643:\n        /* \"#utility.yul\":31319:31396   */\n      0x4e487b7100000000000000000000000000000000000000000000000000000000\n        /* \"#utility.yul\":31316:31317   */\n      0x00\n        /* \"#utility.yul\":31309:31397   */\n      mstore\n        /* \"#utility.yul\":31416:31420   */\n      0x12\n        /* \"#utility.yul\":31413:31414   */\n      0x04\n        /* \"#utility.yul\":31406:31421   */\n      mstore\n        /* \"#utility.yul\":31440:31444   */\n      0x24\n        /* \"#utility.yul\":31437:31438   */\n      0x00\n        /* \"#utility.yul\":31430:31445   */\n      revert\n        /* \"#utility.yul\":31457:31637   */\n    tag_667:\n        /* \"#utility.yul\":31505:31582   */\n      0x4e487b7100000000000000000000000000000000000000000000000000000000\n        /* \"#utility.yul\":31502:31503   */\n      0x00\n        /* \"#utility.yul\":31495:31583   */\n      mstore\n        /* \"#utility.yul\":31602:31606   */\n      0x22\n        /* \"#utility.yul\":31599:31600   */\n      0x04\n        /* \"#utility.yul\":31592:31607   */\n      mstore\n        /* \"#utility.yul\":31626:31630   */\n      0x24\n        /* \"#utility.yul\":31623:31624   */\n      0x00\n        /* \"#utility.yul\":31616:31631   */\n      revert\n        /* \"#utility.yul\":31643:31823   */\n    tag_278:\n        /* \"#utility.yul\":31691:31768   */\n      0x4e487b7100000000000000000000000000000000000000000000000000000000\n        /* \"#utility.yul\":31688:31689   */\n      0x00\n        /* \"#utility.yul\":31681:31769   */\n      mstore\n        /* \"#utility.yul\":31788:31792   */\n      0x32\n        /* \"#utility.yul\":31785:31786   */\n      0x04\n        /* \"#utility.yul\":31778:31793   */\n      mstore\n        /* \"#utility.yul\":31812:31816   */\n      0x24\n        /* \"#utility.yul\":31809:31810   */\n      0x00\n        /* \"#utility.yul\":31802:31817   */\n      revert\n        /* \"#utility.yul\":31829:32009   */\n    tag_268:\n        /* \"#utility.yul\":31877:31954   */\n      0x4e487b7100000000000000000000000000000000000000000000000000000000\n        /* \"#utility.yul\":31874:31875   */\n      0x00\n        /* \"#utility.yul\":31867:31955   */\n      mstore\n        /* \"#utility.yul\":31974:31978   */\n      0x41\n        /* \"#utility.yul\":31971:31972   */\n      0x04\n        /* \"#utility.yul\":31964:31979   */\n      mstore\n        /* \"#utility.yul\":31998:32002   */\n      0x24\n        /* \"#utility.yul\":31995:31996   */\n      0x00\n        /* \"#utility.yul\":31988:32003   */\n      revert\n        /* \"#utility.yul\":32015:32132   */\n    tag_354:\n        /* \"#utility.yul\":32124:32125   */\n      0x00\n        /* \"#utility.yul\":32121:32122   */\n      dup1\n        /* \"#utility.yul\":32114:32126   */\n      revert\n        /* \"#utility.yul\":32138:32255   */\n    tag_324:\n        /* \"#utility.yul\":32247:32248   */\n      0x00\n        /* \"#utility.yul\":32244:32245   */\n      dup1\n        /* \"#utility.yul\":32237:32249   */\n      revert\n        /* \"#utility.yul\":32261:32378   */\n    tag_389:\n        /* \"#utility.yul\":32370:32371   */\n      0x00\n        /* \"#utility.yul\":32367:32368   */\n      dup1\n        /* \"#utility.yul\":32360:32372   */\n      revert\n        /* \"#utility.yul\":32384:32501   */\n    tag_368:\n        /* \"#utility.yul\":32493:32494   */\n      0x00\n        /* \"#utility.yul\":32490:32491   */\n      dup1\n        /* \"#utility.yul\":32483:32495   */\n      revert\n        /* \"#utility.yul\":32507:32609   */\n    tag_453:\n        /* \"#utility.yul\":32548:32554   */\n      0x00\n        /* \"#utility.yul\":32599:32601   */\n      0x1f\n        /* \"#utility.yul\":32595:32602   */\n      not\n        /* \"#utility.yul\":32590:32592   */\n      0x1f\n        /* \"#utility.yul\":32583:32588   */\n      dup4\n        /* \"#utility.yul\":32579:32593   */\n      add\n        /* \"#utility.yul\":32575:32603   */\n      and\n        /* \"#utility.yul\":32565:32603   */\n      swap1\n      pop\n        /* \"#utility.yul\":32507:32609   */\n      swap2\n      swap1\n      pop\n      jump\t// out\n        /* \"#utility.yul\":32615:32852   */\n    tag_479:\n        /* \"#utility.yul\":32755:32789   */\n      0x4552433732313a207472616e7366657220746f206e6f6e204552433732315265\n        /* \"#utility.yul\":32751:32752   */\n      0x00\n        /* \"#utility.yul\":32743:32749   */\n      dup3\n        /* \"#utility.yul\":32739:32753   */\n      add\n        /* \"#utility.yul\":32732:32790   */\n      mstore\n        /* \"#utility.yul\":32824:32844   */\n      0x63656976657220696d706c656d656e7465720000000000000000000000000000\n        /* \"#utility.yul\":32819:32821   */\n      0x20\n        /* \"#utility.yul\":32811:32817   */\n      dup3\n        /* \"#utility.yul\":32807:32822   */\n      add\n        /* \"#utility.yul\":32800:32845   */\n      mstore\n        /* \"#utility.yul\":32615:32852   */\n      pop\n      jump\t// out\n        /* \"#utility.yul\":32858:33082   */\n    tag_484:\n        /* \"#utility.yul\":32998:33032   */\n      0x4552433732313a207472616e736665722066726f6d20696e636f727265637420\n        /* \"#utility.yul\":32994:32995   */\n      0x00\n        /* \"#utility.yul\":32986:32992   */\n      dup3\n        /* \"#utility.yul\":32982:32996   */\n      add\n        /* \"#utility.yul\":32975:33033   */\n      mstore\n        /* \"#utility.yul\":33067:33074   */\n      0x6f776e6572000000000000000000000000000000000000000000000000000000\n        /* \"#utility.yul\":33062:33064   */\n      0x20\n        /* \"#utility.yul\":33054:33060   */\n      dup3\n        /* \"#utility.yul\":33050:33065   */\n      add\n        /* \"#utility.yul\":33043:33075   */\n      mstore\n        /* \"#utility.yul\":32858:33082   */\n      pop\n      jump\t// out\n        /* \"#utility.yul\":33088:33311   */\n    tag_489:\n        /* \"#utility.yul\":33228:33262   */\n      0x4552433732313a207472616e7366657220746f20746865207a65726f20616464\n        /* \"#utility.yul\":33224:33225   */\n      0x00\n        /* \"#utility.yul\":33216:33222   */\n      dup3\n        /* \"#utility.yul\":33212:33226   */\n      add\n        /* \"#utility.yul\":33205:33263   */\n      mstore\n        /* \"#utility.yul\":33297:33303   */\n      0x7265737300000000000000000000000000000000000000000000000000000000\n        /* \"#utility.yul\":33292:33294   */\n      0x20\n        /* \"#utility.yul\":33284:33290   */\n      dup3\n        /* \"#utility.yul\":33280:33295   */\n      add\n        /* \"#utility.yul\":33273:33304   */\n      mstore\n        /* \"#utility.yul\":33088:33311   */\n      pop\n      jump\t// out\n        /* \"#utility.yul\":33317:33492   */\n    tag_494:\n        /* \"#utility.yul\":33457:33484   */\n      0x4552433732313a20617070726f766520746f2063616c6c657200000000000000\n        /* \"#utility.yul\":33453:33454   */\n      0x00\n        /* \"#utility.yul\":33445:33451   */\n      dup3\n        /* \"#utility.yul\":33441:33455   */\n      add\n        /* \"#utility.yul\":33434:33485   */\n      mstore\n        /* \"#utility.yul\":33317:33492   */\n      pop\n      jump\t// out\n        /* \"#utility.yul\":33498:33729   */\n    tag_499:\n        /* \"#utility.yul\":33638:33672   */\n      0x4552433732313a206f70657261746f7220717565727920666f72206e6f6e6578\n        /* \"#utility.yul\":33634:33635   */\n      0x00\n        /* \"#utility.yul\":33626:33632   */\n      dup3\n        /* \"#utility.yul\":33622:33636   */\n      add\n        /* \"#utility.yul\":33615:33673   */\n      mstore\n        /* \"#utility.yul\":33707:33721   */\n      0x697374656e7420746f6b656e0000000000000000000000000000000000000000\n        /* \"#utility.yul\":33702:33704   */\n      0x20\n        /* \"#utility.yul\":33694:33700   */\n      dup3\n        /* \"#utility.yul\":33690:33705   */\n      add\n        /* \"#utility.yul\":33683:33722   */\n      mstore\n        /* \"#utility.yul\":33498:33729   */\n      pop\n      jump\t// out\n        /* \"#utility.yul\":33735:33963   */\n    tag_504:\n        /* \"#utility.yul\":33875:33909   */\n      0x4552433732313a2061646472657373207a65726f206973206e6f742061207661\n        /* \"#utility.yul\":33871:33872   */\n      0x00\n        /* \"#utility.yul\":33863:33869   */\n      dup3\n        /* \"#utility.yul\":33859:33873   */\n      add\n        /* \"#utility.yul\":33852:33910   */\n      mstore\n        /* \"#utility.yul\":33944:33955   */\n      0x6c6964206f776e65720000000000000000000000000000000000000000000000\n        /* \"#utility.yul\":33939:33941   */\n      0x20\n        /* \"#utility.yul\":33931:33937   */\n      dup3\n        /* \"#utility.yul\":33927:33942   */\n      add\n        /* \"#utility.yul\":33920:33956   */\n      mstore\n        /* \"#utility.yul\":33735:33963   */\n      pop\n      jump\t// out\n        /* \"#utility.yul\":33969:34212   */\n    tag_509:\n        /* \"#utility.yul\":34109:34143   */\n      0x4552433732313a20617070726f76652063616c6c6572206973206e6f74206f77\n        /* \"#utility.yul\":34105:34106   */\n      0x00\n        /* \"#utility.yul\":34097:34103   */\n      dup3\n        /* \"#utility.yul\":34093:34107   */\n      add\n        /* \"#utility.yul\":34086:34144   */\n      mstore\n        /* \"#utility.yul\":34178:34204   */\n      0x6e6572206e6f7220617070726f76656420666f7220616c6c0000000000000000\n        /* \"#utility.yul\":34173:34175   */\n      0x20\n        /* \"#utility.yul\":34165:34171   */\n      dup3\n        /* \"#utility.yul\":34161:34176   */\n      add\n        /* \"#utility.yul\":34154:34205   */\n      mstore\n        /* \"#utility.yul\":33969:34212   */\n      pop\n      jump\t// out\n        /* \"#utility.yul\":34218:34446   */\n    tag_514:\n        /* \"#utility.yul\":34358:34392   */\n      0x4552433732313a206f776e657220717565727920666f72206e6f6e6578697374\n        /* \"#utility.yul\":34354:34355   */\n      0x00\n        /* \"#utility.yul\":34346:34352   */\n      dup3\n        /* \"#utility.yul\":34342:34356   */\n      add\n        /* \"#utility.yul\":34335:34393   */\n      mstore\n        /* \"#utility.yul\":34427:34438   */\n      0x656e7420746f6b656e0000000000000000000000000000000000000000000000\n        /* \"#utility.yul\":34422:34424   */\n      0x20\n        /* \"#utility.yul\":34414:34420   */\n      dup3\n        /* \"#utility.yul\":34410:34425   */\n      add\n        /* \"#utility.yul\":34403:34439   */\n      mstore\n        /* \"#utility.yul\":34218:34446   */\n      pop\n      jump\t// out\n        /* \"#utility.yul\":34452:34683   */\n    tag_519:\n        /* \"#utility.yul\":34592:34626   */\n      0x4552433732313a20617070726f76656420717565727920666f72206e6f6e6578\n        /* \"#utility.yul\":34588:34589   */\n      0x00\n        /* \"#utility.yul\":34580:34586   */\n      dup3\n        /* \"#utility.yul\":34576:34590   */\n      add\n        /* \"#utility.yul\":34569:34627   */\n      mstore\n        /* \"#utility.yul\":34661:34675   */\n      0x697374656e7420746f6b656e0000000000000000000000000000000000000000\n        /* \"#utility.yul\":34656:34658   */\n      0x20\n        /* \"#utility.yul\":34648:34654   */\n      dup3\n        /* \"#utility.yul\":34644:34659   */\n      add\n        /* \"#utility.yul\":34637:34676   */\n      mstore\n        /* \"#utility.yul\":34452:34683   */\n      pop\n      jump\t// out\n        /* \"#utility.yul\":34689:34923   */\n    tag_524:\n        /* \"#utility.yul\":34829:34863   */\n      0x4552433732314d657461646174613a2055524920717565727920666f72206e6f\n        /* \"#utility.yul\":34825:34826   */\n      0x00\n        /* \"#utility.yul\":34817:34823   */\n      dup3\n        /* \"#utility.yul\":34813:34827   */\n      add\n        /* \"#utility.yul\":34806:34864   */\n      mstore\n        /* \"#utility.yul\":34898:34915   */\n      0x6e6578697374656e7420746f6b656e0000000000000000000000000000000000\n        /* \"#utility.yul\":34893:34895   */\n      0x20\n        /* \"#utility.yul\":34885:34891   */\n      dup3\n        /* \"#utility.yul\":34881:34896   */\n      add\n        /* \"#utility.yul\":34874:34916   */\n      mstore\n        /* \"#utility.yul\":34689:34923   */\n      pop\n      jump\t// out\n        /* \"#utility.yul\":34929:35106   */\n    tag_529:\n        /* \"#utility.yul\":35069:35098   */\n      0x7468697320686f757365496420616c7265616479206578697374730000000000\n        /* \"#utility.yul\":35065:35066   */\n      0x00\n        /* \"#utility.yul\":35057:35063   */\n      dup3\n        /* \"#utility.yul\":35053:35067   */\n      add\n        /* \"#utility.yul\":35046:35099   */\n      mstore\n        /* \"#utility.yul\":34929:35106   */\n      pop\n      jump\t// out\n        /* \"#utility.yul\":35112:35332   */\n    tag_534:\n        /* \"#utility.yul\":35252:35286   */\n      0x4552433732313a20617070726f76616c20746f2063757272656e74206f776e65\n        /* \"#utility.yul\":35248:35249   */\n      0x00\n        /* \"#utility.yul\":35240:35246   */\n      dup3\n        /* \"#utility.yul\":35236:35250   */\n      add\n        /* \"#utility.yul\":35229:35287   */\n      mstore\n        /* \"#utility.yul\":35321:35324   */\n      0x7200000000000000000000000000000000000000000000000000000000000000\n        /* \"#utility.yul\":35316:35318   */\n      0x20\n        /* \"#utility.yul\":35308:35314   */\n      dup3\n        /* \"#utility.yul\":35304:35319   */\n      add\n        /* \"#utility.yul\":35297:35325   */\n      mstore\n        /* \"#utility.yul\":35112:35332   */\n      pop\n      jump\t// out\n        /* \"#utility.yul\":35338:35574   */\n    tag_539:\n        /* \"#utility.yul\":35478:35512   */\n      0x4552433732313a207472616e736665722063616c6c6572206973206e6f74206f\n        /* \"#utility.yul\":35474:35475   */\n      0x00\n        /* \"#utility.yul\":35466:35472   */\n      dup3\n        /* \"#utility.yul\":35462:35476   */\n      add\n        /* \"#utility.yul\":35455:35513   */\n      mstore\n        /* \"#utility.yul\":35547:35566   */\n      0x776e6572206e6f7220617070726f766564000000000000000000000000000000\n        /* \"#utility.yul\":35542:35544   */\n      0x20\n        /* \"#utility.yul\":35534:35540   */\n      dup3\n        /* \"#utility.yul\":35530:35545   */\n      add\n        /* \"#utility.yul\":35523:35567   */\n      mstore\n        /* \"#utility.yul\":35338:35574   */\n      pop\n      jump\t// out\n        /* \"#utility.yul\":35580:35702   */\n    tag_338:\n        /* \"#utility.yul\":35653:35677   */\n      tag_705\n        /* \"#utility.yul\":35671:35676   */\n      dup2\n        /* \"#utility.yul\":35653:35677   */\n      tag_433\n      jump\t// in\n    tag_705:\n        /* \"#utility.yul\":35646:35651   */\n      dup2\n        /* \"#utility.yul\":35643:35678   */\n      eq\n        /* \"#utility.yul\":35633:35696   */\n      tag_706\n      jumpi\n        /* \"#utility.yul\":35692:35693   */\n      0x00\n        /* \"#utility.yul\":35689:35690   */\n      dup1\n        /* \"#utility.yul\":35682:35694   */\n      revert\n        /* \"#utility.yul\":35633:35696   */\n    tag_706:\n        /* \"#utility.yul\":35580:35702   */\n      pop\n      jump\t// out\n        /* \"#utility.yul\":35708:35824   */\n    tag_342:\n        /* \"#utility.yul\":35778:35799   */\n      tag_708\n        /* \"#utility.yul\":35793:35798   */\n      dup2\n        /* \"#utility.yul\":35778:35799   */\n      tag_440\n      jump\t// in\n    tag_708:\n        /* \"#utility.yul\":35771:35776   */\n      dup2\n        /* \"#utility.yul\":35768:35800   */\n      eq\n        /* \"#utility.yul\":35758:35818   */\n      tag_709\n      jumpi\n        /* \"#utility.yul\":35814:35815   */\n      0x00\n        /* \"#utility.yul\":35811:35812   */\n      dup1\n        /* \"#utility.yul\":35804:35816   */\n      revert\n        /* \"#utility.yul\":35758:35818   */\n    tag_709:\n        /* \"#utility.yul\":35708:35824   */\n      pop\n      jump\t// out\n        /* \"#utility.yul\":35830:35950   */\n    tag_346:\n        /* \"#utility.yul\":35902:35925   */\n      tag_711\n        /* \"#utility.yul\":35919:35924   */\n      dup2\n        /* \"#utility.yul\":35902:35925   */\n      tag_653\n      jump\t// in\n    tag_711:\n        /* \"#utility.yul\":35895:35900   */\n      dup2\n        /* \"#utility.yul\":35892:35926   */\n      eq\n        /* \"#utility.yul\":35882:35944   */\n      tag_712\n      jumpi\n        /* \"#utility.yul\":35940:35941   */\n      0x00\n        /* \"#utility.yul\":35937:35938   */\n      dup1\n        /* \"#utility.yul\":35930:35942   */\n      revert\n        /* \"#utility.yul\":35882:35944   */\n    tag_712:\n        /* \"#utility.yul\":35830:35950   */\n      pop\n      jump\t// out\n        /* \"#utility.yul\":35956:36078   */\n    tag_364:\n        /* \"#utility.yul\":36029:36053   */\n      tag_714\n        /* \"#utility.yul\":36047:36052   */\n      dup2\n        /* \"#utility.yul\":36029:36053   */\n      tag_554\n      jump\t// in\n    tag_714:\n        /* \"#utility.yul\":36022:36027   */\n      dup2\n        /* \"#utility.yul\":36019:36054   */\n      eq\n        /* \"#utility.yul\":36009:36072   */\n      tag_715\n      jumpi\n        /* \"#utility.yul\":36068:36069   */\n      0x00\n        /* \"#utility.yul\":36065:36066   */\n      dup1\n        /* \"#utility.yul\":36058:36070   */\n      revert\n        /* \"#utility.yul\":36009:36072   */\n    tag_715:\n        /* \"#utility.yul\":35956:36078   */\n      pop\n      jump\t// out\n\n    auxdata: 0xa264697066735822122097df16fec208457c44986ec67af6ba8a805c971653b4bc01a9ac3cedaa74ad1a64736f6c63430008070033\n}\n",
				"bytecode": {
					"linkReferences": {},
					"object": "60806040523480156200001157600080fd5b50604051620034d9380380620034d983398181016040528101906200003791906200019f565b81600090805190602001906200004f92919062000071565b5080600190805190602001906200006892919062000071565b505050620003a8565b8280546200007f90620002b9565b90600052602060002090601f016020900481019282620000a35760008555620000ef565b82601f10620000be57805160ff1916838001178555620000ef565b82800160010185558215620000ef579182015b82811115620000ee578251825591602001919060010190620000d1565b5b509050620000fe919062000102565b5090565b5b808211156200011d57600081600090555060010162000103565b5090565b60006200013862000132846200024d565b62000224565b90508281526020810184848401111562000157576200015662000388565b5b6200016484828562000283565b509392505050565b600082601f83011262000184576200018362000383565b5b81516200019684826020860162000121565b91505092915050565b60008060408385031215620001b957620001b862000392565b5b600083015167ffffffffffffffff811115620001da57620001d96200038d565b5b620001e8858286016200016c565b925050602083015167ffffffffffffffff8111156200020c576200020b6200038d565b5b6200021a858286016200016c565b9150509250929050565b60006200023062000243565b90506200023e8282620002ef565b919050565b6000604051905090565b600067ffffffffffffffff8211156200026b576200026a62000354565b5b620002768262000397565b9050602081019050919050565b60005b83811015620002a357808201518184015260208101905062000286565b83811115620002b3576000848401525b50505050565b60006002820490506001821680620002d257607f821691505b60208210811415620002e957620002e862000325565b5b50919050565b620002fa8262000397565b810181811067ffffffffffffffff821117156200031c576200031b62000354565b5b80604052505050565b7f4e487b7100000000000000000000000000000000000000000000000000000000600052602260045260246000fd5b7f4e487b7100000000000000000000000000000000000000000000000000000000600052604160045260246000fd5b600080fd5b600080fd5b600080fd5b600080fd5b6000601f19601f8301169050919050565b61312180620003b86000396000f3fe608060405234801561001057600080fd5b50600436106101165760003560e01c806395d89b41116100a2578063b88d4fde11610071578063b88d4fde1461031f578063c87b56dd1461033b578063d231f1421461036b578063e6cde56a14610387578063e985e9c5146103a357610116565b806395d89b411461027d578063a22cb4651461029b578063ad50f56d146102b7578063aeda852f146102e757610116565b8063095ea7b3116100e9578063095ea7b3146101c957806323b872dd146101e557806342842e0e146102015780636352211e1461021d57806370a082311461024d57610116565b806301ffc9a71461011b5780630548fa4f1461014b57806306fdde031461017b578063081812fc14610199575b600080fd5b6101356004803603810190610130919061201f565b6103d3565b60405161014291906125f1565b60405180910390f35b610165600480360381019061016091906120e6565b6104b5565b60405161017291906127ce565b60405180910390f35b610183610850565b604051610190919061260c565b60405180910390f35b6101b360048036038101906101ae9190612079565b6108e2565b6040516101c0919061258a565b60405180910390f35b6101e360048036038101906101de9190611fdf565b610967565b005b6101ff60048036038101906101fa9190611ec9565b610a7f565b005b61021b60048036038101906102169190611ec9565b610adf565b005b61023760048036038101906102329190612079565b610aff565b604051610244919061258a565b60405180910390f35b61026760048036038101906102629190611e5c565b610bb1565b60405161027491906127f0565b60405180910390f35b610285610c69565b604051610292919061260c565b60405180910390f35b6102b560048036038101906102b09190611f9f565b610cfb565b005b6102d160048036038101906102cc9190612079565b610d11565b6040516102de91906127ce565b60405180910390f35b61030160048036038101906102fc9190612079565b610eca565b6040516103169998979695949392919061280b565b60405180910390f35b61033960048036038101906103349190611f1c565b610fed565b005b61035560048036038101906103509190612079565b61104f565b604051610362919061260c565b60405180910390f35b61038560048036038101906103809190612079565b6110f6565b005b6103a1600480360381019061039c91906120a6565b611128565b005b6103bd60048036038101906103b89190611e89565b611181565b6040516103ca91906125f1565b60405180910390f35b60007f80ac58cd000000000000000000000000000000000000000000000000000000007bffffffffffffffffffffffffffffffffffffffffffffffffffffffff1916827bffffffffffffffffffffffffffffffffffffffffffffffffffffffff1916148061049e57507f5b5e139f000000000000000000000000000000000000000000000000000000007bffffffffffffffffffffffffffffffffffffffffffffffffffffffff1916827bffffffffffffffffffffffffffffffffffffffffffffffffffffffff1916145b806104ae57506104ad82611215565b5b9050919050565b6104bd611bf6565b6006600089815260200190815260200160002060000154881415610516576040517f08c379a000000000000000000000000000000000000000000000000000000000815260040161050d9061276e565b60405180910390fd5b6040518061012001604052808981526020018881526020018781526020018681526020018581526020018473ffffffffffffffffffffffffffffffffffffffff1681526020018473ffffffffffffffffffffffffffffffffffffffff16815260200183815260200160001515815250600660008a8152602001908152602001600020600082015181600001556020820151816001015560408201518160020155606082015181600301556080820151816004015560a08201518160050160006101000a81548173ffffffffffffffffffffffffffffffffffffffff021916908373ffffffffffffffffffffffffffffffffffffffff16021790555060c08201518160060160006101000a81548173ffffffffffffffffffffffffffffffffffffffff021916908373ffffffffffffffffffffffffffffffffffffffff16021790555060e0820151816007019080519060200190610674929190611c70565b506101008201518160080160006101000a81548160ff021916908315150217905550905050600660008981526020019081526020016000206040518061012001604052908160008201548152602001600182015481526020016002820154815260200160038201548152602001600482015481526020016005820160009054906101000a900473ffffffffffffffffffffffffffffffffffffffff1673ffffffffffffffffffffffffffffffffffffffff1673ffffffffffffffffffffffffffffffffffffffff1681526020016006820160009054906101000a900473ffffffffffffffffffffffffffffffffffffffff1673ffffffffffffffffffffffffffffffffffffffff1673ffffffffffffffffffffffffffffffffffffffff1681526020016007820180546107a690612aeb565b80601f01602080910402602001604051908101604052809291908181526020018280546107d290612aeb565b801561081f5780601f106107f45761010080835404028352916020019161081f565b820191906000526020600020905b81548152906001019060200180831161080257829003601f168201915b505050505081526020016008820160009054906101000a900460ff1615151515815250509050979650505050505050565b60606000805461085f90612aeb565b80601f016020809104026020016040519081016040528092919081815260200182805461088b90612aeb565b80156108d85780601f106108ad576101008083540402835291602001916108d8565b820191906000526020600020905b8154815290600101906020018083116108bb57829003601f168201915b5050505050905090565b60006108ed8261127f565b61092c576040517f08c379a00000000000000000000000000000000000000000000000000000000081526004016109239061272e565b60405180910390fd5b6004600083815260200190815260200160002060009054906101000a900473ffffffffffffffffffffffffffffffffffffffff169050919050565b600061097282610aff565b90508073ffffffffffffffffffffffffffffffffffffffff168373ffffffffffffffffffffffffffffffffffffffff1614156109e3576040517f08c379a00000000000000000000000000000000000000000000000000000000081526004016109da9061278e565b60405180910390fd5b8073ffffffffffffffffffffffffffffffffffffffff16610a026112eb565b73ffffffffffffffffffffffffffffffffffffffff161480610a315750610a3081610a2b6112eb565b611181565b5b610a70576040517f08c379a0000000000000000000000000000000000000000000000000000000008152600401610a67906126ee565b60405180910390fd5b610a7a83836112f3565b505050565b610a90610a8a6112eb565b826113ac565b610acf576040517f08c379a0000000000000000000000000000000000000000000000000000000008152600401610ac6906127ae565b60405180910390fd5b610ada83838361148a565b505050565b610afa83838360405180602001604052806000815250610fed565b505050565b6000806002600084815260200190815260200160002060009054906101000a900473ffffffffffffffffffffffffffffffffffffffff169050600073ffffffffffffffffffffffffffffffffffffffff168173ffffffffffffffffffffffffffffffffffffffff161415610ba8576040517f08c379a0000000000000000000000000000000000000000000000000000000008152600401610b9f9061270e565b60405180910390fd5b80915050919050565b60008073ffffffffffffffffffffffffffffffffffffffff168273ffffffffffffffffffffffffffffffffffffffff161415610c22576040517f08c379a0000000000000000000000000000000000000000000000000000000008152600401610c19906126ce565b60405180910390fd5b600360008373ffffffffffffffffffffffffffffffffffffffff1673ffffffffffffffffffffffffffffffffffffffff168152602001908152602001600020549050919050565b606060018054610c7890612aeb565b80601f0160208091040260200160405190810160405280929190818152602001828054610ca490612aeb565b8015610cf15780601f10610cc657610100808354040283529160200191610cf1565b820191906000526020600020905b815481529060010190602001808311610cd457829003601f168201915b5050505050905090565b610d0d610d066112eb565b83836116f1565b5050565b610d19611bf6565b600660008381526020019081526020016000206040518061012001604052908160008201548152602001600182015481526020016002820154815260200160038201548152602001600482015481526020016005820160009054906101000a900473ffffffffffffffffffffffffffffffffffffffff1673ffffffffffffffffffffffffffffffffffffffff1673ffffffffffffffffffffffffffffffffffffffff1681526020016006820160009054906101000a900473ffffffffffffffffffffffffffffffffffffffff1673ffffffffffffffffffffffffffffffffffffffff1673ffffffffffffffffffffffffffffffffffffffff168152602001600782018054610e2690612aeb565b80601f0160208091040260200160405190810160405280929190818152602001828054610e5290612aeb565b8015610e9f5780601f10610e7457610100808354040283529160200191610e9f565b820191906000526020600020905b815481529060010190602001808311610e8257829003601f168201915b505050505081526020016008820160009054906101000a900460ff1615151515815250509050919050565b60066020528060005260406000206000915090508060000154908060010154908060020154908060030154908060040154908060050160009054906101000a900473ffffffffffffffffffffffffffffffffffffffff16908060060160009054906101000a900473ffffffffffffffffffffffffffffffffffffffff1690806007018054610f5790612aeb565b80601f0160208091040260200160405190810160405280929190818152602001828054610f8390612aeb565b8015610fd05780601f10610fa557610100808354040283529160200191610fd0565b820191906000526020600020905b815481529060010190602001808311610fb357829003601f168201915b5050505050908060080160009054906101000a900460ff16905089565b610ffe610ff86112eb565b836113ac565b61103d576040517f08c379a0000000000000000000000000000000000000000000000000000000008152600401611034906127ae565b60405180910390fd5b6110498484848461185e565b50505050565b606061105a8261127f565b611099576040517f08c379a00000000000000000000000000000000000000000000000000000000081526004016110909061274e565b60405180910390fd5b60006110a36118ba565b905060008151116110c357604051806020016040528060008152506110ee565b806110cd846118d1565b6040516020016110de929190612566565b6040516020818303038152906040525b915050919050565b60016006600083815260200190815260200160002060080160006101000a81548160ff02191690831515021790555050565b806006600084815260200190815260200160002060060160006101000a81548173ffffffffffffffffffffffffffffffffffffffff021916908373ffffffffffffffffffffffffffffffffffffffff1602179055505050565b6000600560008473ffffffffffffffffffffffffffffffffffffffff1673ffffffffffffffffffffffffffffffffffffffff16815260200190815260200160002060008373ffffffffffffffffffffffffffffffffffffffff1673ffffffffffffffffffffffffffffffffffffffff16815260200190815260200160002060009054906101000a900460ff16905092915050565b60007f01ffc9a7000000000000000000000000000000000000000000000000000000007bffffffffffffffffffffffffffffffffffffffffffffffffffffffff1916827bffffffffffffffffffffffffffffffffffffffffffffffffffffffff1916149050919050565b60008073ffffffffffffffffffffffffffffffffffffffff166002600084815260200190815260200160002060009054906101000a900473ffffffffffffffffffffffffffffffffffffffff1673ffffffffffffffffffffffffffffffffffffffff1614159050919050565b600033905090565b816004600083815260200190815260200160002060006101000a81548173ffffffffffffffffffffffffffffffffffffffff021916908373ffffffffffffffffffffffffffffffffffffffff160217905550808273ffffffffffffffffffffffffffffffffffffffff1661136683610aff565b73ffffffffffffffffffffffffffffffffffffffff167f8c5be1e5ebec7d5bd14f71427d1e84f3dd0314c0f7b2291e5b200ac8c7c3b92560405160405180910390a45050565b60006113b78261127f565b6113f6576040517f08c379a00000000000000000000000000000000000000000000000000000000081526004016113ed906126ae565b60405180910390fd5b600061140183610aff565b90508073ffffffffffffffffffffffffffffffffffffffff168473ffffffffffffffffffffffffffffffffffffffff16148061144357506114428185611181565b5b8061148157508373ffffffffffffffffffffffffffffffffffffffff16611469846108e2565b73ffffffffffffffffffffffffffffffffffffffff16145b91505092915050565b8273ffffffffffffffffffffffffffffffffffffffff166114aa82610aff565b73ffffffffffffffffffffffffffffffffffffffff1614611500576040517f08c379a00000000000000000000000000000000000000000000000000000000081526004016114f79061264e565b60405180910390fd5b600073ffffffffffffffffffffffffffffffffffffffff168273ffffffffffffffffffffffffffffffffffffffff161415611570576040517f08c379a00000000000000000000000000000000000000000000000000000000081526004016115679061266e565b60405180910390fd5b61157b838383611a32565b6115866000826112f3565b6001600360008573ffffffffffffffffffffffffffffffffffffffff1673ffffffffffffffffffffffffffffffffffffffff16815260200190815260200160002060008282546115d69190612a01565b925050819055506001600360008473ffffffffffffffffffffffffffffffffffffffff1673ffffffffffffffffffffffffffffffffffffffff168152602001908152602001600020600082825461162d919061297a565b92505081905550816002600083815260200190815260200160002060006101000a81548173ffffffffffffffffffffffffffffffffffffffff021916908373ffffffffffffffffffffffffffffffffffffffff160217905550808273ffffffffffffffffffffffffffffffffffffffff168473ffffffffffffffffffffffffffffffffffffffff167fddf252ad1be2c89b69c2b068fc378daa952ba7f163c4a11628f55a4df523b3ef60405160405180910390a46116ec838383611a37565b505050565b8173ffffffffffffffffffffffffffffffffffffffff168373ffffffffffffffffffffffffffffffffffffffff161415611760576040517f08c379a00000000000000000000000000000000000000000000000000000000081526004016117579061268e565b60405180910390fd5b80600560008573ffffffffffffffffffffffffffffffffffffffff1673ffffffffffffffffffffffffffffffffffffffff16815260200190815260200160002060008473ffffffffffffffffffffffffffffffffffffffff1673ffffffffffffffffffffffffffffffffffffffff16815260200190815260200160002060006101000a81548160ff0219169083151502179055508173ffffffffffffffffffffffffffffffffffffffff168373ffffffffffffffffffffffffffffffffffffffff167f17307eab39ab6107e8899845ad3d59bd9653f200f220920489ca2b5937696c318360405161185191906125f1565b60405180910390a3505050565b61186984848461148a565b61187584848484611a3c565b6118b4576040517f08c379a00000000000000000000000000000000000000000000000000000000081526004016118ab9061262e565b60405180910390fd5b50505050565b606060405180602001604052806000815250905090565b60606000821415611919576040518060400160405280600181526020017f30000000000000000000000000000000000000000000000000000000000000008152509050611a2d565b600082905060005b6000821461194b57808061193490612b4e565b915050600a8261194491906129d0565b9150611921565b60008167ffffffffffffffff81111561196757611966612c84565b5b6040519080825280601f01601f1916602001820160405280156119995781602001600182028036833780820191505090505b5090505b60008514611a26576001826119b29190612a01565b9150600a856119c19190612b97565b60306119cd919061297a565b60f81b8183815181106119e3576119e2612c55565b5b60200101907effffffffffffffffffffffffffffffffffffffffffffffffffffffffffffff1916908160001a905350600a85611a1f91906129d0565b945061199d565b8093505050505b919050565b505050565b505050565b6000611a5d8473ffffffffffffffffffffffffffffffffffffffff16611bd3565b15611bc6578373ffffffffffffffffffffffffffffffffffffffff1663150b7a02611a866112eb565b8786866040518563ffffffff1660e01b8152600401611aa894939291906125a5565b602060405180830381600087803b158015611ac257600080fd5b505af1925050508015611af357506040513d601f19601f82011682018060405250810190611af0919061204c565b60015b611b76573d8060008114611b23576040519150601f19603f3d011682016040523d82523d6000602084013e611b28565b606091505b50600081511415611b6e576040517f08c379a0000000000000000000000000000000000000000000000000000000008152600401611b659061262e565b60405180910390fd5b805181602001fd5b63150b7a0260e01b7bffffffffffffffffffffffffffffffffffffffffffffffffffffffff1916817bffffffffffffffffffffffffffffffffffffffffffffffffffffffff191614915050611bcb565b600190505b949350505050565b6000808273ffffffffffffffffffffffffffffffffffffffff163b119050919050565b6040518061012001604052806000815260200160008152602001600081526020016000815260200160008152602001600073ffffffffffffffffffffffffffffffffffffffff168152602001600073ffffffffffffffffffffffffffffffffffffffff168152602001606081526020016000151581525090565b828054611c7c90612aeb565b90600052602060002090601f016020900481019282611c9e5760008555611ce5565b82601f10611cb757805160ff1916838001178555611ce5565b82800160010185558215611ce5579182015b82811115611ce4578251825591602001919060010190611cc9565b5b509050611cf29190611cf6565b5090565b5b80821115611d0f576000816000905550600101611cf7565b5090565b6000611d26611d21846128c4565b61289f565b905082815260208101848484011115611d4257611d41612cb8565b5b611d4d848285612aa9565b509392505050565b6000611d68611d63846128f5565b61289f565b905082815260208101848484011115611d8457611d83612cb8565b5b611d8f848285612aa9565b509392505050565b600081359050611da68161308f565b92915050565b600081359050611dbb816130a6565b92915050565b600081359050611dd0816130bd565b92915050565b600081519050611de5816130bd565b92915050565b600082601f830112611e0057611dff612cb3565b5b8135611e10848260208601611d13565b91505092915050565b600082601f830112611e2e57611e2d612cb3565b5b8135611e3e848260208601611d55565b91505092915050565b600081359050611e56816130d4565b92915050565b600060208284031215611e7257611e71612cc2565b5b6000611e8084828501611d97565b91505092915050565b60008060408385031215611ea057611e9f612cc2565b5b6000611eae85828601611d97565b9250506020611ebf85828601611d97565b9150509250929050565b600080600060608486031215611ee257611ee1612cc2565b5b6000611ef086828701611d97565b9350506020611f0186828701611d97565b9250506040611f1286828701611e47565b9150509250925092565b60008060008060808587031215611f3657611f35612cc2565b5b6000611f4487828801611d97565b9450506020611f5587828801611d97565b9350506040611f6687828801611e47565b925050606085013567ffffffffffffffff811115611f8757611f86612cbd565b5b611f9387828801611deb565b91505092959194509250565b60008060408385031215611fb657611fb5612cc2565b5b6000611fc485828601611d97565b9250506020611fd585828601611dac565b9150509250929050565b60008060408385031215611ff657611ff5612cc2565b5b600061200485828601611d97565b925050602061201585828601611e47565b9150509250929050565b60006020828403121561203557612034612cc2565b5b600061204384828501611dc1565b91505092915050565b60006020828403121561206257612061612cc2565b5b600061207084828501611dd6565b91505092915050565b60006020828403121561208f5761208e612cc2565b5b600061209d84828501611e47565b91505092915050565b600080604083850312156120bd576120bc612cc2565b5b60006120cb85828601611e47565b92505060206120dc85828601611d97565b9150509250929050565b600080600080600080600060e0888a03121561210557612104612cc2565b5b60006121138a828b01611e47565b97505060206121248a828b01611e47565b96505060406121358a828b01611e47565b95505060606121468a828b01611e47565b94505060806121578a828b01611e47565b93505060a06121688a828b01611d97565b92505060c088013567ffffffffffffffff81111561218957612188612cbd565b5b6121958a828b01611e19565b91505092959891949750929550565b6121ad81612a35565b82525050565b6121bc81612a35565b82525050565b6121cb81612a47565b82525050565b6121da81612a47565b82525050565b60006121eb82612926565b6121f5818561293c565b9350612205818560208601612ab8565b61220e81612cc7565b840191505092915050565b600061222482612931565b61222e818561294d565b935061223e818560208601612ab8565b61224781612cc7565b840191505092915050565b600061225d82612931565b612267818561295e565b9350612277818560208601612ab8565b61228081612cc7565b840191505092915050565b600061229682612931565b6122a0818561296f565b93506122b0818560208601612ab8565b80840191505092915050565b60006122c960328361295e565b91506122d482612cd8565b604082019050919050565b60006122ec60258361295e565b91506122f782612d27565b604082019050919050565b600061230f60248361295e565b915061231a82612d76565b604082019050919050565b600061233260198361295e565b915061233d82612dc5565b602082019050919050565b6000612355602c8361295e565b915061236082612dee565b604082019050919050565b600061237860298361295e565b915061238382612e3d565b604082019050919050565b600061239b60388361295e565b91506123a682612e8c565b604082019050919050565b60006123be60298361295e565b91506123c982612edb565b604082019050919050565b60006123e1602c8361295e565b91506123ec82612f2a565b604082019050919050565b6000612404602f8361295e565b915061240f82612f79565b604082019050919050565b6000612427601b8361295e565b915061243282612fc8565b602082019050919050565b600061244a60218361295e565b915061245582612ff1565b604082019050919050565b600061246d60318361295e565b915061247882613040565b604082019050919050565b60006101208301600083015161249c6000860182612548565b5060208301516124af6020860182612548565b5060408301516124c26040860182612548565b5060608301516124d56060860182612548565b5060808301516124e86080860182612548565b5060a08301516124fb60a08601826121a4565b5060c083015161250e60c08601826121a4565b5060e083015184820360e08601526125268282612219565b91505061010083015161253d6101008601826121c2565b508091505092915050565b61255181612a9f565b82525050565b61256081612a9f565b82525050565b6000612572828561228b565b915061257e828461228b565b91508190509392505050565b600060208201905061259f60008301846121b3565b92915050565b60006080820190506125ba60008301876121b3565b6125c760208301866121b3565b6125d46040830185612557565b81810360608301526125e681846121e0565b905095945050505050565b600060208201905061260660008301846121d1565b92915050565b600060208201905081810360008301526126268184612252565b905092915050565b60006020820190508181036000830152612647816122bc565b9050919050565b60006020820190508181036000830152612667816122df565b9050919050565b6000602082019050818103600083015261268781612302565b9050919050565b600060208201905081810360008301526126a781612325565b9050919050565b600060208201905081810360008301526126c781612348565b9050919050565b600060208201905081810360008301526126e78161236b565b9050919050565b600060208201905081810360008301526127078161238e565b9050919050565b60006020820190508181036000830152612727816123b1565b9050919050565b60006020820190508181036000830152612747816123d4565b9050919050565b60006020820190508181036000830152612767816123f7565b9050919050565b600060208201905081810360008301526127878161241a565b9050919050565b600060208201905081810360008301526127a78161243d565b9050919050565b600060208201905081810360008301526127c781612460565b9050919050565b600060208201905081810360008301526127e88184612483565b905092915050565b60006020820190506128056000830184612557565b92915050565b600061012082019050612821600083018c612557565b61282e602083018b612557565b61283b604083018a612557565b6128486060830189612557565b6128556080830188612557565b61286260a08301876121b3565b61286f60c08301866121b3565b81810360e08301526128818185612252565b90506128916101008301846121d1565b9a9950505050505050505050565b60006128a96128ba565b90506128b58282612b1d565b919050565b6000604051905090565b600067ffffffffffffffff8211156128df576128de612c84565b5b6128e882612cc7565b9050602081019050919050565b600067ffffffffffffffff8211156129105761290f612c84565b5b61291982612cc7565b9050602081019050919050565b600081519050919050565b600081519050919050565b600082825260208201905092915050565b600082825260208201905092915050565b600082825260208201905092915050565b600081905092915050565b600061298582612a9f565b915061299083612a9f565b9250827fffffffffffffffffffffffffffffffffffffffffffffffffffffffffffffffff038211156129c5576129c4612bc8565b5b828201905092915050565b60006129db82612a9f565b91506129e683612a9f565b9250826129f6576129f5612bf7565b5b828204905092915050565b6000612a0c82612a9f565b9150612a1783612a9f565b925082821015612a2a57612a29612bc8565b5b828203905092915050565b6000612a4082612a7f565b9050919050565b60008115159050919050565b60007fffffffff0000000000000000000000000000000000000000000000000000000082169050919050565b600073ffffffffffffffffffffffffffffffffffffffff82169050919050565b6000819050919050565b82818337600083830152505050565b60005b83811015612ad6578082015181840152602081019050612abb565b83811115612ae5576000848401525b50505050565b60006002820490506001821680612b0357607f821691505b60208210811415612b1757612b16612c26565b5b50919050565b612b2682612cc7565b810181811067ffffffffffffffff82111715612b4557612b44612c84565b5b80604052505050565b6000612b5982612a9f565b91507fffffffffffffffffffffffffffffffffffffffffffffffffffffffffffffffff821415612b8c57612b8b612bc8565b5b600182019050919050565b6000612ba282612a9f565b9150612bad83612a9f565b925082612bbd57612bbc612bf7565b5b828206905092915050565b7f4e487b7100000000000000000000000000000000000000000000000000000000600052601160045260246000fd5b7f4e487b7100000000000000000000000000000000000000000000000000000000600052601260045260246000fd5b7f4e487b7100000000000000000000000000000000000000000000000000000000600052602260045260246000fd5b7f4e487b7100000000000000000000000000000000000000000000000000000000600052603260045260246000fd5b7f4e487b7100000000000000000000000000000000000000000000000000000000600052604160045260246000fd5b600080fd5b600080fd5b600080fd5b600080fd5b6000601f19601f8301169050919050565b7f4552433732313a207472616e7366657220746f206e6f6e20455243373231526560008201527f63656976657220696d706c656d656e7465720000000000000000000000000000602082015250565b7f4552433732313a207472616e736665722066726f6d20696e636f72726563742060008201527f6f776e6572000000000000000000000000000000000000000000000000000000602082015250565b7f4552433732313a207472616e7366657220746f20746865207a65726f2061646460008201527f7265737300000000000000000000000000000000000000000000000000000000602082015250565b7f4552433732313a20617070726f766520746f2063616c6c657200000000000000600082015250565b7f4552433732313a206f70657261746f7220717565727920666f72206e6f6e657860008201527f697374656e7420746f6b656e0000000000000000000000000000000000000000602082015250565b7f4552433732313a2061646472657373207a65726f206973206e6f74206120766160008201527f6c6964206f776e65720000000000000000000000000000000000000000000000602082015250565b7f4552433732313a20617070726f76652063616c6c6572206973206e6f74206f7760008201527f6e6572206e6f7220617070726f76656420666f7220616c6c0000000000000000602082015250565b7f4552433732313a206f776e657220717565727920666f72206e6f6e657869737460008201527f656e7420746f6b656e0000000000000000000000000000000000000000000000602082015250565b7f4552433732313a20617070726f76656420717565727920666f72206e6f6e657860008201527f697374656e7420746f6b656e0000000000000000000000000000000000000000602082015250565b7f4552433732314d657461646174613a2055524920717565727920666f72206e6f60008201527f6e6578697374656e7420746f6b656e0000000000000000000000000000000000602082015250565b7f7468697320686f757365496420616c7265616479206578697374730000000000600082015250565b7f4552433732313a20617070726f76616c20746f2063757272656e74206f776e6560008201527f7200000000000000000000000000000000000000000000000000000000000000602082015250565b7f4552433732313a207472616e736665722063616c6c6572206973206e6f74206f60008201527f776e6572206e6f7220617070726f766564000000000000000000000000000000602082015250565b61309881612a35565b81146130a357600080fd5b50565b6130af81612a47565b81146130ba57600080fd5b50565b6130c681612a53565b81146130d157600080fd5b50565b6130dd81612a9f565b81146130e857600080fd5b5056fea264697066735822122097df16fec208457c44986ec67af6ba8a805c971653b4bc01a9ac3cedaa74ad1a64736f6c63430008070033",
					"opcodes": "PUSH1 0x80 PUSH1 0x40 MSTORE CALLVALUE DUP1 ISZERO PUSH3 0x11 JUMPI PUSH1 0x0 DUP1 REVERT JUMPDEST POP PUSH1 0x40 MLOAD PUSH3 0x34D9 CODESIZE SUB DUP1 PUSH3 0x34D9 DUP4 CODECOPY DUP2 DUP2 ADD PUSH1 0x40 MSTORE DUP2 ADD SWAP1 PUSH3 0x37 SWAP2 SWAP1 PUSH3 0x19F JUMP JUMPDEST DUP2 PUSH1 0x0 SWAP1 DUP1 MLOAD SWAP1 PUSH1 0x20 ADD SWAP1 PUSH3 0x4F SWAP3 SWAP2 SWAP1 PUSH3 0x71 JUMP JUMPDEST POP DUP1 PUSH1 0x1 SWAP1 DUP1 MLOAD SWAP1 PUSH1 0x20 ADD SWAP1 PUSH3 0x68 SWAP3 SWAP2 SWAP1 PUSH3 0x71 JUMP JUMPDEST POP POP POP PUSH3 0x3A8 JUMP JUMPDEST DUP3 DUP1 SLOAD PUSH3 0x7F SWAP1 PUSH3 0x2B9 JUMP JUMPDEST SWAP1 PUSH1 0x0 MSTORE PUSH1 0x20 PUSH1 0x0 KECCAK256 SWAP1 PUSH1 0x1F ADD PUSH1 0x20 SWAP1 DIV DUP2 ADD SWAP3 DUP3 PUSH3 0xA3 JUMPI PUSH1 0x0 DUP6 SSTORE PUSH3 0xEF JUMP JUMPDEST DUP3 PUSH1 0x1F LT PUSH3 0xBE JUMPI DUP1 MLOAD PUSH1 0xFF NOT AND DUP4 DUP1 ADD OR DUP6 SSTORE PUSH3 0xEF JUMP JUMPDEST DUP3 DUP1 ADD PUSH1 0x1 ADD DUP6 SSTORE DUP3 ISZERO PUSH3 0xEF JUMPI SWAP2 DUP3 ADD JUMPDEST DUP3 DUP2 GT ISZERO PUSH3 0xEE JUMPI DUP3 MLOAD DUP3 SSTORE SWAP2 PUSH1 0x20 ADD SWAP2 SWAP1 PUSH1 0x1 ADD SWAP1 PUSH3 0xD1 JUMP JUMPDEST JUMPDEST POP SWAP1 POP PUSH3 0xFE SWAP2 SWAP1 PUSH3 0x102 JUMP JUMPDEST POP SWAP1 JUMP JUMPDEST JUMPDEST DUP1 DUP3 GT ISZERO PUSH3 0x11D JUMPI PUSH1 0x0 DUP2 PUSH1 0x0 SWAP1 SSTORE POP PUSH1 0x1 ADD PUSH3 0x103 JUMP JUMPDEST POP SWAP1 JUMP JUMPDEST PUSH1 0x0 PUSH3 0x138 PUSH3 0x132 DUP5 PUSH3 0x24D JUMP JUMPDEST PUSH3 0x224 JUMP JUMPDEST SWAP1 POP DUP3 DUP2 MSTORE PUSH1 0x20 DUP2 ADD DUP5 DUP5 DUP5 ADD GT ISZERO PUSH3 0x157 JUMPI PUSH3 0x156 PUSH3 0x388 JUMP JUMPDEST JUMPDEST PUSH3 0x164 DUP5 DUP3 DUP6 PUSH3 0x283 JUMP JUMPDEST POP SWAP4 SWAP3 POP POP POP JUMP JUMPDEST PUSH1 0x0 DUP3 PUSH1 0x1F DUP4 ADD SLT PUSH3 0x184 JUMPI PUSH3 0x183 PUSH3 0x383 JUMP JUMPDEST JUMPDEST DUP2 MLOAD PUSH3 0x196 DUP5 DUP3 PUSH1 0x20 DUP7 ADD PUSH3 0x121 JUMP JUMPDEST SWAP2 POP POP SWAP3 SWAP2 POP POP JUMP JUMPDEST PUSH1 0x0 DUP1 PUSH1 0x40 DUP4 DUP6 SUB SLT ISZERO PUSH3 0x1B9 JUMPI PUSH3 0x1B8 PUSH3 0x392 JUMP JUMPDEST JUMPDEST PUSH1 0x0 DUP4 ADD MLOAD PUSH8 0xFFFFFFFFFFFFFFFF DUP2 GT ISZERO PUSH3 0x1DA JUMPI PUSH3 0x1D9 PUSH3 0x38D JUMP JUMPDEST JUMPDEST PUSH3 0x1E8 DUP6 DUP3 DUP7 ADD PUSH3 0x16C JUMP JUMPDEST SWAP3 POP POP PUSH1 0x20 DUP4 ADD MLOAD PUSH8 0xFFFFFFFFFFFFFFFF DUP2 GT ISZERO PUSH3 0x20C JUMPI PUSH3 0x20B PUSH3 0x38D JUMP JUMPDEST JUMPDEST PUSH3 0x21A DUP6 DUP3 DUP7 ADD PUSH3 0x16C JUMP JUMPDEST SWAP2 POP POP SWAP3 POP SWAP3 SWAP1 POP JUMP JUMPDEST PUSH1 0x0 PUSH3 0x230 PUSH3 0x243 JUMP JUMPDEST SWAP1 POP PUSH3 0x23E DUP3 DUP3 PUSH3 0x2EF JUMP JUMPDEST SWAP2 SWAP1 POP JUMP JUMPDEST PUSH1 0x0 PUSH1 0x40 MLOAD SWAP1 POP SWAP1 JUMP JUMPDEST PUSH1 0x0 PUSH8 0xFFFFFFFFFFFFFFFF DUP3 GT ISZERO PUSH3 0x26B JUMPI PUSH3 0x26A PUSH3 0x354 JUMP JUMPDEST JUMPDEST PUSH3 0x276 DUP3 PUSH3 0x397 JUMP JUMPDEST SWAP1 POP PUSH1 0x20 DUP2 ADD SWAP1 POP SWAP2 SWAP1 POP JUMP JUMPDEST PUSH1 0x0 JUMPDEST DUP4 DUP2 LT ISZERO PUSH3 0x2A3 JUMPI DUP1 DUP3 ADD MLOAD DUP2 DUP5 ADD MSTORE PUSH1 0x20 DUP2 ADD SWAP1 POP PUSH3 0x286 JUMP JUMPDEST DUP4 DUP2 GT ISZERO PUSH3 0x2B3 JUMPI PUSH1 0x0 DUP5 DUP5 ADD MSTORE JUMPDEST POP POP POP POP JUMP JUMPDEST PUSH1 0x0 PUSH1 0x2 DUP3 DIV SWAP1 POP PUSH1 0x1 DUP3 AND DUP1 PUSH3 0x2D2 JUMPI PUSH1 0x7F DUP3 AND SWAP2 POP JUMPDEST PUSH1 0x20 DUP3 LT DUP2 EQ ISZERO PUSH3 0x2E9 JUMPI PUSH3 0x2E8 PUSH3 0x325 JUMP JUMPDEST JUMPDEST POP SWAP2 SWAP1 POP JUMP JUMPDEST PUSH3 0x2FA DUP3 PUSH3 0x397 JUMP JUMPDEST DUP2 ADD DUP2 DUP2 LT PUSH8 0xFFFFFFFFFFFFFFFF DUP3 GT OR ISZERO PUSH3 0x31C JUMPI PUSH3 0x31B PUSH3 0x354 JUMP JUMPDEST JUMPDEST DUP1 PUSH1 0x40 MSTORE POP POP POP JUMP JUMPDEST PUSH32 0x4E487B7100000000000000000000000000000000000000000000000000000000 PUSH1 0x0 MSTORE PUSH1 0x22 PUSH1 0x4 MSTORE PUSH1 0x24 PUSH1 0x0 REVERT JUMPDEST PUSH32 0x4E487B7100000000000000000000000000000000000000000000000000000000 PUSH1 0x0 MSTORE PUSH1 0x41 PUSH1 0x4 MSTORE PUSH1 0x24 PUSH1 0x0 REVERT JUMPDEST PUSH1 0x0 DUP1 REVERT JUMPDEST PUSH1 0x0 DUP1 REVERT JUMPDEST PUSH1 0x0 DUP1 REVERT JUMPDEST PUSH1 0x0 DUP1 REVERT JUMPDEST PUSH1 0x0 PUSH1 0x1F NOT PUSH1 0x1F DUP4 ADD AND SWAP1 POP SWAP2 SWAP1 POP JUMP JUMPDEST PUSH2 0x3121 DUP1 PUSH3 0x3B8 PUSH1 0x0 CODECOPY PUSH1 0x0 RETURN INVALID PUSH1 0x80 PUSH1 0x40 MSTORE CALLVALUE DUP1 ISZERO PUSH2 0x10 JUMPI PUSH1 0x0 DUP1 REVERT JUMPDEST POP PUSH1 0x4 CALLDATASIZE LT PUSH2 0x116 JUMPI PUSH1 0x0 CALLDATALOAD PUSH1 0xE0 SHR DUP1 PUSH4 0x95D89B41 GT PUSH2 0xA2 JUMPI DUP1 PUSH4 0xB88D4FDE GT PUSH2 0x71 JUMPI DUP1 PUSH4 0xB88D4FDE EQ PUSH2 0x31F JUMPI DUP1 PUSH4 0xC87B56DD EQ PUSH2 0x33B JUMPI DUP1 PUSH4 0xD231F142 EQ PUSH2 0x36B JUMPI DUP1 PUSH4 0xE6CDE56A EQ PUSH2 0x387 JUMPI DUP1 PUSH4 0xE985E9C5 EQ PUSH2 0x3A3 JUMPI PUSH2 0x116 JUMP JUMPDEST DUP1 PUSH4 0x95D89B41 EQ PUSH2 0x27D JUMPI DUP1 PUSH4 0xA22CB465 EQ PUSH2 0x29B JUMPI DUP1 PUSH4 0xAD50F56D EQ PUSH2 0x2B7 JUMPI DUP1 PUSH4 0xAEDA852F EQ PUSH2 0x2E7 JUMPI PUSH2 0x116 JUMP JUMPDEST DUP1 PUSH4 0x95EA7B3 GT PUSH2 0xE9 JUMPI DUP1 PUSH4 0x95EA7B3 EQ PUSH2 0x1C9 JUMPI DUP1 PUSH4 0x23B872DD EQ PUSH2 0x1E5 JUMPI DUP1 PUSH4 0x42842E0E EQ PUSH2 0x201 JUMPI DUP1 PUSH4 0x6352211E EQ PUSH2 0x21D JUMPI DUP1 PUSH4 0x70A08231 EQ PUSH2 0x24D JUMPI PUSH2 0x116 JUMP JUMPDEST DUP1 PUSH4 0x1FFC9A7 EQ PUSH2 0x11B JUMPI DUP1 PUSH4 0x548FA4F EQ PUSH2 0x14B JUMPI DUP1 PUSH4 0x6FDDE03 EQ PUSH2 0x17B JUMPI DUP1 PUSH4 0x81812FC EQ PUSH2 0x199 JUMPI JUMPDEST PUSH1 0x0 DUP1 REVERT JUMPDEST PUSH2 0x135 PUSH1 0x4 DUP1 CALLDATASIZE SUB DUP2 ADD SWAP1 PUSH2 0x130 SWAP2 SWAP1 PUSH2 0x201F JUMP JUMPDEST PUSH2 0x3D3 JUMP JUMPDEST PUSH1 0x40 MLOAD PUSH2 0x142 SWAP2 SWAP1 PUSH2 0x25F1 JUMP JUMPDEST PUSH1 0x40 MLOAD DUP1 SWAP2 SUB SWAP1 RETURN JUMPDEST PUSH2 0x165 PUSH1 0x4 DUP1 CALLDATASIZE SUB DUP2 ADD SWAP1 PUSH2 0x160 SWAP2 SWAP1 PUSH2 0x20E6 JUMP JUMPDEST PUSH2 0x4B5 JUMP JUMPDEST PUSH1 0x40 MLOAD PUSH2 0x172 SWAP2 SWAP1 PUSH2 0x27CE JUMP JUMPDEST PUSH1 0x40 MLOAD DUP1 SWAP2 SUB SWAP1 RETURN JUMPDEST PUSH2 0x183 PUSH2 0x850 JUMP JUMPDEST PUSH1 0x40 MLOAD PUSH2 0x190 SWAP2 SWAP1 PUSH2 0x260C JUMP JUMPDEST PUSH1 0x40 MLOAD DUP1 SWAP2 SUB SWAP1 RETURN JUMPDEST PUSH2 0x1B3 PUSH1 0x4 DUP1 CALLDATASIZE SUB DUP2 ADD SWAP1 PUSH2 0x1AE SWAP2 SWAP1 PUSH2 0x2079 JUMP JUMPDEST PUSH2 0x8E2 JUMP JUMPDEST PUSH1 0x40 MLOAD PUSH2 0x1C0 SWAP2 SWAP1 PUSH2 0x258A JUMP JUMPDEST PUSH1 0x40 MLOAD DUP1 SWAP2 SUB SWAP1 RETURN JUMPDEST PUSH2 0x1E3 PUSH1 0x4 DUP1 CALLDATASIZE SUB DUP2 ADD SWAP1 PUSH2 0x1DE SWAP2 SWAP1 PUSH2 0x1FDF JUMP JUMPDEST PUSH2 0x967 JUMP JUMPDEST STOP JUMPDEST PUSH2 0x1FF PUSH1 0x4 DUP1 CALLDATASIZE SUB DUP2 ADD SWAP1 PUSH2 0x1FA SWAP2 SWAP1 PUSH2 0x1EC9 JUMP JUMPDEST PUSH2 0xA7F JUMP JUMPDEST STOP JUMPDEST PUSH2 0x21B PUSH1 0x4 DUP1 CALLDATASIZE SUB DUP2 ADD SWAP1 PUSH2 0x216 SWAP2 SWAP1 PUSH2 0x1EC9 JUMP JUMPDEST PUSH2 0xADF JUMP JUMPDEST STOP JUMPDEST PUSH2 0x237 PUSH1 0x4 DUP1 CALLDATASIZE SUB DUP2 ADD SWAP1 PUSH2 0x232 SWAP2 SWAP1 PUSH2 0x2079 JUMP JUMPDEST PUSH2 0xAFF JUMP JUMPDEST PUSH1 0x40 MLOAD PUSH2 0x244 SWAP2 SWAP1 PUSH2 0x258A JUMP JUMPDEST PUSH1 0x40 MLOAD DUP1 SWAP2 SUB SWAP1 RETURN JUMPDEST PUSH2 0x267 PUSH1 0x4 DUP1 CALLDATASIZE SUB DUP2 ADD SWAP1 PUSH2 0x262 SWAP2 SWAP1 PUSH2 0x1E5C JUMP JUMPDEST PUSH2 0xBB1 JUMP JUMPDEST PUSH1 0x40 MLOAD PUSH2 0x274 SWAP2 SWAP1 PUSH2 0x27F0 JUMP JUMPDEST PUSH1 0x40 MLOAD DUP1 SWAP2 SUB SWAP1 RETURN JUMPDEST PUSH2 0x285 PUSH2 0xC69 JUMP JUMPDEST PUSH1 0x40 MLOAD PUSH2 0x292 SWAP2 SWAP1 PUSH2 0x260C JUMP JUMPDEST PUSH1 0x40 MLOAD DUP1 SWAP2 SUB SWAP1 RETURN JUMPDEST PUSH2 0x2B5 PUSH1 0x4 DUP1 CALLDATASIZE SUB DUP2 ADD SWAP1 PUSH2 0x2B0 SWAP2 SWAP1 PUSH2 0x1F9F JUMP JUMPDEST PUSH2 0xCFB JUMP JUMPDEST STOP JUMPDEST PUSH2 0x2D1 PUSH1 0x4 DUP1 CALLDATASIZE SUB DUP2 ADD SWAP1 PUSH2 0x2CC SWAP2 SWAP1 PUSH2 0x2079 JUMP JUMPDEST PUSH2 0xD11 JUMP JUMPDEST PUSH1 0x40 MLOAD PUSH2 0x2DE SWAP2 SWAP1 PUSH2 0x27CE JUMP JUMPDEST PUSH1 0x40 MLOAD DUP1 SWAP2 SUB SWAP1 RETURN JUMPDEST PUSH2 0x301 PUSH1 0x4 DUP1 CALLDATASIZE SUB DUP2 ADD SWAP1 PUSH2 0x2FC SWAP2 SWAP1 PUSH2 0x2079 JUMP JUMPDEST PUSH2 0xECA JUMP JUMPDEST PUSH1 0x40 MLOAD PUSH2 0x316 SWAP10 SWAP9 SWAP8 SWAP7 SWAP6 SWAP5 SWAP4 SWAP3 SWAP2 SWAP1 PUSH2 0x280B JUMP JUMPDEST PUSH1 0x40 MLOAD DUP1 SWAP2 SUB SWAP1 RETURN JUMPDEST PUSH2 0x339 PUSH1 0x4 DUP1 CALLDATASIZE SUB DUP2 ADD SWAP1 PUSH2 0x334 SWAP2 SWAP1 PUSH2 0x1F1C JUMP JUMPDEST PUSH2 0xFED JUMP JUMPDEST STOP JUMPDEST PUSH2 0x355 PUSH1 0x4 DUP1 CALLDATASIZE SUB DUP2 ADD SWAP1 PUSH2 0x350 SWAP2 SWAP1 PUSH2 0x2079 JUMP JUMPDEST PUSH2 0x104F JUMP JUMPDEST PUSH1 0x40 MLOAD PUSH2 0x362 SWAP2 SWAP1 PUSH2 0x260C JUMP JUMPDEST PUSH1 0x40 MLOAD DUP1 SWAP2 SUB SWAP1 RETURN JUMPDEST PUSH2 0x385 PUSH1 0x4 DUP1 CALLDATASIZE SUB DUP2 ADD SWAP1 PUSH2 0x380 SWAP2 SWAP1 PUSH2 0x2079 JUMP JUMPDEST PUSH2 0x10F6 JUMP JUMPDEST STOP JUMPDEST PUSH2 0x3A1 PUSH1 0x4 DUP1 CALLDATASIZE SUB DUP2 ADD SWAP1 PUSH2 0x39C SWAP2 SWAP1 PUSH2 0x20A6 JUMP JUMPDEST PUSH2 0x1128 JUMP JUMPDEST STOP JUMPDEST PUSH2 0x3BD PUSH1 0x4 DUP1 CALLDATASIZE SUB DUP2 ADD SWAP1 PUSH2 0x3B8 SWAP2 SWAP1 PUSH2 0x1E89 JUMP JUMPDEST PUSH2 0x1181 JUMP JUMPDEST PUSH1 0x40 MLOAD PUSH2 0x3CA SWAP2 SWAP1 PUSH2 0x25F1 JUMP JUMPDEST PUSH1 0x40 MLOAD DUP1 SWAP2 SUB SWAP1 RETURN JUMPDEST PUSH1 0x0 PUSH32 0x80AC58CD00000000000000000000000000000000000000000000000000000000 PUSH28 0xFFFFFFFFFFFFFFFFFFFFFFFFFFFFFFFFFFFFFFFFFFFFFFFFFFFFFFFF NOT AND DUP3 PUSH28 0xFFFFFFFFFFFFFFFFFFFFFFFFFFFFFFFFFFFFFFFFFFFFFFFFFFFFFFFF NOT AND EQ DUP1 PUSH2 0x49E JUMPI POP PUSH32 0x5B5E139F00000000000000000000000000000000000000000000000000000000 PUSH28 0xFFFFFFFFFFFFFFFFFFFFFFFFFFFFFFFFFFFFFFFFFFFFFFFFFFFFFFFF NOT AND DUP3 PUSH28 0xFFFFFFFFFFFFFFFFFFFFFFFFFFFFFFFFFFFFFFFFFFFFFFFFFFFFFFFF NOT AND EQ JUMPDEST DUP1 PUSH2 0x4AE JUMPI POP PUSH2 0x4AD DUP3 PUSH2 0x1215 JUMP JUMPDEST JUMPDEST SWAP1 POP SWAP2 SWAP1 POP JUMP JUMPDEST PUSH2 0x4BD PUSH2 0x1BF6 JUMP JUMPDEST PUSH1 0x6 PUSH1 0x0 DUP10 DUP2 MSTORE PUSH1 0x20 ADD SWAP1 DUP2 MSTORE PUSH1 0x20 ADD PUSH1 0x0 KECCAK256 PUSH1 0x0 ADD SLOAD DUP9 EQ ISZERO PUSH2 0x516 JUMPI PUSH1 0x40 MLOAD PUSH32 0x8C379A000000000000000000000000000000000000000000000000000000000 DUP2 MSTORE PUSH1 0x4 ADD PUSH2 0x50D SWAP1 PUSH2 0x276E JUMP JUMPDEST PUSH1 0x40 MLOAD DUP1 SWAP2 SUB SWAP1 REVERT JUMPDEST PUSH1 0x40 MLOAD DUP1 PUSH2 0x120 ADD PUSH1 0x40 MSTORE DUP1 DUP10 DUP2 MSTORE PUSH1 0x20 ADD DUP9 DUP2 MSTORE PUSH1 0x20 ADD DUP8 DUP2 MSTORE PUSH1 0x20 ADD DUP7 DUP2 MSTORE PUSH1 0x20 ADD DUP6 DUP2 MSTORE PUSH1 0x20 ADD DUP5 PUSH20 0xFFFFFFFFFFFFFFFFFFFFFFFFFFFFFFFFFFFFFFFF AND DUP2 MSTORE PUSH1 0x20 ADD DUP5 PUSH20 0xFFFFFFFFFFFFFFFFFFFFFFFFFFFFFFFFFFFFFFFF AND DUP2 MSTORE PUSH1 0x20 ADD DUP4 DUP2 MSTORE PUSH1 0x20 ADD PUSH1 0x0 ISZERO ISZERO DUP2 MSTORE POP PUSH1 0x6 PUSH1 0x0 DUP11 DUP2 MSTORE PUSH1 0x20 ADD SWAP1 DUP2 MSTORE PUSH1 0x20 ADD PUSH1 0x0 KECCAK256 PUSH1 0x0 DUP3 ADD MLOAD DUP2 PUSH1 0x0 ADD SSTORE PUSH1 0x20 DUP3 ADD MLOAD DUP2 PUSH1 0x1 ADD SSTORE PUSH1 0x40 DUP3 ADD MLOAD DUP2 PUSH1 0x2 ADD SSTORE PUSH1 0x60 DUP3 ADD MLOAD DUP2 PUSH1 0x3 ADD SSTORE PUSH1 0x80 DUP3 ADD MLOAD DUP2 PUSH1 0x4 ADD SSTORE PUSH1 0xA0 DUP3 ADD MLOAD DUP2 PUSH1 0x5 ADD PUSH1 0x0 PUSH2 0x100 EXP DUP2 SLOAD DUP2 PUSH20 0xFFFFFFFFFFFFFFFFFFFFFFFFFFFFFFFFFFFFFFFF MUL NOT AND SWAP1 DUP4 PUSH20 0xFFFFFFFFFFFFFFFFFFFFFFFFFFFFFFFFFFFFFFFF AND MUL OR SWAP1 SSTORE POP PUSH1 0xC0 DUP3 ADD MLOAD DUP2 PUSH1 0x6 ADD PUSH1 0x0 PUSH2 0x100 EXP DUP2 SLOAD DUP2 PUSH20 0xFFFFFFFFFFFFFFFFFFFFFFFFFFFFFFFFFFFFFFFF MUL NOT AND SWAP1 DUP4 PUSH20 0xFFFFFFFFFFFFFFFFFFFFFFFFFFFFFFFFFFFFFFFF AND MUL OR SWAP1 SSTORE POP PUSH1 0xE0 DUP3 ADD MLOAD DUP2 PUSH1 0x7 ADD SWAP1 DUP1 MLOAD SWAP1 PUSH1 0x20 ADD SWAP1 PUSH2 0x674 SWAP3 SWAP2 SWAP1 PUSH2 0x1C70 JUMP JUMPDEST POP PUSH2 0x100 DUP3 ADD MLOAD DUP2 PUSH1 0x8 ADD PUSH1 0x0 PUSH2 0x100 EXP DUP2 SLOAD DUP2 PUSH1 0xFF MUL NOT AND SWAP1 DUP4 ISZERO ISZERO MUL OR SWAP1 SSTORE POP SWAP1 POP POP PUSH1 0x6 PUSH1 0x0 DUP10 DUP2 MSTORE PUSH1 0x20 ADD SWAP1 DUP2 MSTORE PUSH1 0x20 ADD PUSH1 0x0 KECCAK256 PUSH1 0x40 MLOAD DUP1 PUSH2 0x120 ADD PUSH1 0x40 MSTORE SWAP1 DUP2 PUSH1 0x0 DUP3 ADD SLOAD DUP2 MSTORE PUSH1 0x20 ADD PUSH1 0x1 DUP3 ADD SLOAD DUP2 MSTORE PUSH1 0x20 ADD PUSH1 0x2 DUP3 ADD SLOAD DUP2 MSTORE PUSH1 0x20 ADD PUSH1 0x3 DUP3 ADD SLOAD DUP2 MSTORE PUSH1 0x20 ADD PUSH1 0x4 DUP3 ADD SLOAD DUP2 MSTORE PUSH1 0x20 ADD PUSH1 0x5 DUP3 ADD PUSH1 0x0 SWAP1 SLOAD SWAP1 PUSH2 0x100 EXP SWAP1 DIV PUSH20 0xFFFFFFFFFFFFFFFFFFFFFFFFFFFFFFFFFFFFFFFF AND PUSH20 0xFFFFFFFFFFFFFFFFFFFFFFFFFFFFFFFFFFFFFFFF AND PUSH20 0xFFFFFFFFFFFFFFFFFFFFFFFFFFFFFFFFFFFFFFFF AND DUP2 MSTORE PUSH1 0x20 ADD PUSH1 0x6 DUP3 ADD PUSH1 0x0 SWAP1 SLOAD SWAP1 PUSH2 0x100 EXP SWAP1 DIV PUSH20 0xFFFFFFFFFFFFFFFFFFFFFFFFFFFFFFFFFFFFFFFF AND PUSH20 0xFFFFFFFFFFFFFFFFFFFFFFFFFFFFFFFFFFFFFFFF AND PUSH20 0xFFFFFFFFFFFFFFFFFFFFFFFFFFFFFFFFFFFFFFFF AND DUP2 MSTORE PUSH1 0x20 ADD PUSH1 0x7 DUP3 ADD DUP1 SLOAD PUSH2 0x7A6 SWAP1 PUSH2 0x2AEB JUMP JUMPDEST DUP1 PUSH1 0x1F ADD PUSH1 0x20 DUP1 SWAP2 DIV MUL PUSH1 0x20 ADD PUSH1 0x40 MLOAD SWAP1 DUP2 ADD PUSH1 0x40 MSTORE DUP1 SWAP3 SWAP2 SWAP1 DUP2 DUP2 MSTORE PUSH1 0x20 ADD DUP3 DUP1 SLOAD PUSH2 0x7D2 SWAP1 PUSH2 0x2AEB JUMP JUMPDEST DUP1 ISZERO PUSH2 0x81F JUMPI DUP1 PUSH1 0x1F LT PUSH2 0x7F4 JUMPI PUSH2 0x100 DUP1 DUP4 SLOAD DIV MUL DUP4 MSTORE SWAP2 PUSH1 0x20 ADD SWAP2 PUSH2 0x81F JUMP JUMPDEST DUP3 ADD SWAP2 SWAP1 PUSH1 0x0 MSTORE PUSH1 0x20 PUSH1 0x0 KECCAK256 SWAP1 JUMPDEST DUP2 SLOAD DUP2 MSTORE SWAP1 PUSH1 0x1 ADD SWAP1 PUSH1 0x20 ADD DUP1 DUP4 GT PUSH2 0x802 JUMPI DUP3 SWAP1 SUB PUSH1 0x1F AND DUP3 ADD SWAP2 JUMPDEST POP POP POP POP POP DUP2 MSTORE PUSH1 0x20 ADD PUSH1 0x8 DUP3 ADD PUSH1 0x0 SWAP1 SLOAD SWAP1 PUSH2 0x100 EXP SWAP1 DIV PUSH1 0xFF AND ISZERO ISZERO ISZERO ISZERO DUP2 MSTORE POP POP SWAP1 POP SWAP8 SWAP7 POP POP POP POP POP POP POP JUMP JUMPDEST PUSH1 0x60 PUSH1 0x0 DUP1 SLOAD PUSH2 0x85F SWAP1 PUSH2 0x2AEB JUMP JUMPDEST DUP1 PUSH1 0x1F ADD PUSH1 0x20 DUP1 SWAP2 DIV MUL PUSH1 0x20 ADD PUSH1 0x40 MLOAD SWAP1 DUP2 ADD PUSH1 0x40 MSTORE DUP1 SWAP3 SWAP2 SWAP1 DUP2 DUP2 MSTORE PUSH1 0x20 ADD DUP3 DUP1 SLOAD PUSH2 0x88B SWAP1 PUSH2 0x2AEB JUMP JUMPDEST DUP1 ISZERO PUSH2 0x8D8 JUMPI DUP1 PUSH1 0x1F LT PUSH2 0x8AD JUMPI PUSH2 0x100 DUP1 DUP4 SLOAD DIV MUL DUP4 MSTORE SWAP2 PUSH1 0x20 ADD SWAP2 PUSH2 0x8D8 JUMP JUMPDEST DUP3 ADD SWAP2 SWAP1 PUSH1 0x0 MSTORE PUSH1 0x20 PUSH1 0x0 KECCAK256 SWAP1 JUMPDEST DUP2 SLOAD DUP2 MSTORE SWAP1 PUSH1 0x1 ADD SWAP1 PUSH1 0x20 ADD DUP1 DUP4 GT PUSH2 0x8BB JUMPI DUP3 SWAP1 SUB PUSH1 0x1F AND DUP3 ADD SWAP2 JUMPDEST POP POP POP POP POP SWAP1 POP SWAP1 JUMP JUMPDEST PUSH1 0x0 PUSH2 0x8ED DUP3 PUSH2 0x127F JUMP JUMPDEST PUSH2 0x92C JUMPI PUSH1 0x40 MLOAD PUSH32 0x8C379A000000000000000000000000000000000000000000000000000000000 DUP2 MSTORE PUSH1 0x4 ADD PUSH2 0x923 SWAP1 PUSH2 0x272E JUMP JUMPDEST PUSH1 0x40 MLOAD DUP1 SWAP2 SUB SWAP1 REVERT JUMPDEST PUSH1 0x4 PUSH1 0x0 DUP4 DUP2 MSTORE PUSH1 0x20 ADD SWAP1 DUP2 MSTORE PUSH1 0x20 ADD PUSH1 0x0 KECCAK256 PUSH1 0x0 SWAP1 SLOAD SWAP1 PUSH2 0x100 EXP SWAP1 DIV PUSH20 0xFFFFFFFFFFFFFFFFFFFFFFFFFFFFFFFFFFFFFFFF AND SWAP1 POP SWAP2 SWAP1 POP JUMP JUMPDEST PUSH1 0x0 PUSH2 0x972 DUP3 PUSH2 0xAFF JUMP JUMPDEST SWAP1 POP DUP1 PUSH20 0xFFFFFFFFFFFFFFFFFFFFFFFFFFFFFFFFFFFFFFFF AND DUP4 PUSH20 0xFFFFFFFFFFFFFFFFFFFFFFFFFFFFFFFFFFFFFFFF AND EQ ISZERO PUSH2 0x9E3 JUMPI PUSH1 0x40 MLOAD PUSH32 0x8C379A000000000000000000000000000000000000000000000000000000000 DUP2 MSTORE PUSH1 0x4 ADD PUSH2 0x9DA SWAP1 PUSH2 0x278E JUMP JUMPDEST PUSH1 0x40 MLOAD DUP1 SWAP2 SUB SWAP1 REVERT JUMPDEST DUP1 PUSH20 0xFFFFFFFFFFFFFFFFFFFFFFFFFFFFFFFFFFFFFFFF AND PUSH2 0xA02 PUSH2 0x12EB JUMP JUMPDEST PUSH20 0xFFFFFFFFFFFFFFFFFFFFFFFFFFFFFFFFFFFFFFFF AND EQ DUP1 PUSH2 0xA31 JUMPI POP PUSH2 0xA30 DUP2 PUSH2 0xA2B PUSH2 0x12EB JUMP JUMPDEST PUSH2 0x1181 JUMP JUMPDEST JUMPDEST PUSH2 0xA70 JUMPI PUSH1 0x40 MLOAD PUSH32 0x8C379A000000000000000000000000000000000000000000000000000000000 DUP2 MSTORE PUSH1 0x4 ADD PUSH2 0xA67 SWAP1 PUSH2 0x26EE JUMP JUMPDEST PUSH1 0x40 MLOAD DUP1 SWAP2 SUB SWAP1 REVERT JUMPDEST PUSH2 0xA7A DUP4 DUP4 PUSH2 0x12F3 JUMP JUMPDEST POP POP POP JUMP JUMPDEST PUSH2 0xA90 PUSH2 0xA8A PUSH2 0x12EB JUMP JUMPDEST DUP3 PUSH2 0x13AC JUMP JUMPDEST PUSH2 0xACF JUMPI PUSH1 0x40 MLOAD PUSH32 0x8C379A000000000000000000000000000000000000000000000000000000000 DUP2 MSTORE PUSH1 0x4 ADD PUSH2 0xAC6 SWAP1 PUSH2 0x27AE JUMP JUMPDEST PUSH1 0x40 MLOAD DUP1 SWAP2 SUB SWAP1 REVERT JUMPDEST PUSH2 0xADA DUP4 DUP4 DUP4 PUSH2 0x148A JUMP JUMPDEST POP POP POP JUMP JUMPDEST PUSH2 0xAFA DUP4 DUP4 DUP4 PUSH1 0x40 MLOAD DUP1 PUSH1 0x20 ADD PUSH1 0x40 MSTORE DUP1 PUSH1 0x0 DUP2 MSTORE POP PUSH2 0xFED JUMP JUMPDEST POP POP POP JUMP JUMPDEST PUSH1 0x0 DUP1 PUSH1 0x2 PUSH1 0x0 DUP5 DUP2 MSTORE PUSH1 0x20 ADD SWAP1 DUP2 MSTORE PUSH1 0x20 ADD PUSH1 0x0 KECCAK256 PUSH1 0x0 SWAP1 SLOAD SWAP1 PUSH2 0x100 EXP SWAP1 DIV PUSH20 0xFFFFFFFFFFFFFFFFFFFFFFFFFFFFFFFFFFFFFFFF AND SWAP1 POP PUSH1 0x0 PUSH20 0xFFFFFFFFFFFFFFFFFFFFFFFFFFFFFFFFFFFFFFFF AND DUP2 PUSH20 0xFFFFFFFFFFFFFFFFFFFFFFFFFFFFFFFFFFFFFFFF AND EQ ISZERO PUSH2 0xBA8 JUMPI PUSH1 0x40 MLOAD PUSH32 0x8C379A000000000000000000000000000000000000000000000000000000000 DUP2 MSTORE PUSH1 0x4 ADD PUSH2 0xB9F SWAP1 PUSH2 0x270E JUMP JUMPDEST PUSH1 0x40 MLOAD DUP1 SWAP2 SUB SWAP1 REVERT JUMPDEST DUP1 SWAP2 POP POP SWAP2 SWAP1 POP JUMP JUMPDEST PUSH1 0x0 DUP1 PUSH20 0xFFFFFFFFFFFFFFFFFFFFFFFFFFFFFFFFFFFFFFFF AND DUP3 PUSH20 0xFFFFFFFFFFFFFFFFFFFFFFFFFFFFFFFFFFFFFFFF AND EQ ISZERO PUSH2 0xC22 JUMPI PUSH1 0x40 MLOAD PUSH32 0x8C379A000000000000000000000000000000000000000000000000000000000 DUP2 MSTORE PUSH1 0x4 ADD PUSH2 0xC19 SWAP1 PUSH2 0x26CE JUMP JUMPDEST PUSH1 0x40 MLOAD DUP1 SWAP2 SUB SWAP1 REVERT JUMPDEST PUSH1 0x3 PUSH1 0x0 DUP4 PUSH20 0xFFFFFFFFFFFFFFFFFFFFFFFFFFFFFFFFFFFFFFFF AND PUSH20 0xFFFFFFFFFFFFFFFFFFFFFFFFFFFFFFFFFFFFFFFF AND DUP2 MSTORE PUSH1 0x20 ADD SWAP1 DUP2 MSTORE PUSH1 0x20 ADD PUSH1 0x0 KECCAK256 SLOAD SWAP1 POP SWAP2 SWAP1 POP JUMP JUMPDEST PUSH1 0x60 PUSH1 0x1 DUP1 SLOAD PUSH2 0xC78 SWAP1 PUSH2 0x2AEB JUMP JUMPDEST DUP1 PUSH1 0x1F ADD PUSH1 0x20 DUP1 SWAP2 DIV MUL PUSH1 0x20 ADD PUSH1 0x40 MLOAD SWAP1 DUP2 ADD PUSH1 0x40 MSTORE DUP1 SWAP3 SWAP2 SWAP1 DUP2 DUP2 MSTORE PUSH1 0x20 ADD DUP3 DUP1 SLOAD PUSH2 0xCA4 SWAP1 PUSH2 0x2AEB JUMP JUMPDEST DUP1 ISZERO PUSH2 0xCF1 JUMPI DUP1 PUSH1 0x1F LT PUSH2 0xCC6 JUMPI PUSH2 0x100 DUP1 DUP4 SLOAD DIV MUL DUP4 MSTORE SWAP2 PUSH1 0x20 ADD SWAP2 PUSH2 0xCF1 JUMP JUMPDEST DUP3 ADD SWAP2 SWAP1 PUSH1 0x0 MSTORE PUSH1 0x20 PUSH1 0x0 KECCAK256 SWAP1 JUMPDEST DUP2 SLOAD DUP2 MSTORE SWAP1 PUSH1 0x1 ADD SWAP1 PUSH1 0x20 ADD DUP1 DUP4 GT PUSH2 0xCD4 JUMPI DUP3 SWAP1 SUB PUSH1 0x1F AND DUP3 ADD SWAP2 JUMPDEST POP POP POP POP POP SWAP1 POP SWAP1 JUMP JUMPDEST PUSH2 0xD0D PUSH2 0xD06 PUSH2 0x12EB JUMP JUMPDEST DUP4 DUP4 PUSH2 0x16F1 JUMP JUMPDEST POP POP JUMP JUMPDEST PUSH2 0xD19 PUSH2 0x1BF6 JUMP JUMPDEST PUSH1 0x6 PUSH1 0x0 DUP4 DUP2 MSTORE PUSH1 0x20 ADD SWAP1 DUP2 MSTORE PUSH1 0x20 ADD PUSH1 0x0 KECCAK256 PUSH1 0x40 MLOAD DUP1 PUSH2 0x120 ADD PUSH1 0x40 MSTORE SWAP1 DUP2 PUSH1 0x0 DUP3 ADD SLOAD DUP2 MSTORE PUSH1 0x20 ADD PUSH1 0x1 DUP3 ADD SLOAD DUP2 MSTORE PUSH1 0x20 ADD PUSH1 0x2 DUP3 ADD SLOAD DUP2 MSTORE PUSH1 0x20 ADD PUSH1 0x3 DUP3 ADD SLOAD DUP2 MSTORE PUSH1 0x20 ADD PUSH1 0x4 DUP3 ADD SLOAD DUP2 MSTORE PUSH1 0x20 ADD PUSH1 0x5 DUP3 ADD PUSH1 0x0 SWAP1 SLOAD SWAP1 PUSH2 0x100 EXP SWAP1 DIV PUSH20 0xFFFFFFFFFFFFFFFFFFFFFFFFFFFFFFFFFFFFFFFF AND PUSH20 0xFFFFFFFFFFFFFFFFFFFFFFFFFFFFFFFFFFFFFFFF AND PUSH20 0xFFFFFFFFFFFFFFFFFFFFFFFFFFFFFFFFFFFFFFFF AND DUP2 MSTORE PUSH1 0x20 ADD PUSH1 0x6 DUP3 ADD PUSH1 0x0 SWAP1 SLOAD SWAP1 PUSH2 0x100 EXP SWAP1 DIV PUSH20 0xFFFFFFFFFFFFFFFFFFFFFFFFFFFFFFFFFFFFFFFF AND PUSH20 0xFFFFFFFFFFFFFFFFFFFFFFFFFFFFFFFFFFFFFFFF AND PUSH20 0xFFFFFFFFFFFFFFFFFFFFFFFFFFFFFFFFFFFFFFFF AND DUP2 MSTORE PUSH1 0x20 ADD PUSH1 0x7 DUP3 ADD DUP1 SLOAD PUSH2 0xE26 SWAP1 PUSH2 0x2AEB JUMP JUMPDEST DUP1 PUSH1 0x1F ADD PUSH1 0x20 DUP1 SWAP2 DIV MUL PUSH1 0x20 ADD PUSH1 0x40 MLOAD SWAP1 DUP2 ADD PUSH1 0x40 MSTORE DUP1 SWAP3 SWAP2 SWAP1 DUP2 DUP2 MSTORE PUSH1 0x20 ADD DUP3 DUP1 SLOAD PUSH2 0xE52 SWAP1 PUSH2 0x2AEB JUMP JUMPDEST DUP1 ISZERO PUSH2 0xE9F JUMPI DUP1 PUSH1 0x1F LT PUSH2 0xE74 JUMPI PUSH2 0x100 DUP1 DUP4 SLOAD DIV MUL DUP4 MSTORE SWAP2 PUSH1 0x20 ADD SWAP2 PUSH2 0xE9F JUMP JUMPDEST DUP3 ADD SWAP2 SWAP1 PUSH1 0x0 MSTORE PUSH1 0x20 PUSH1 0x0 KECCAK256 SWAP1 JUMPDEST DUP2 SLOAD DUP2 MSTORE SWAP1 PUSH1 0x1 ADD SWAP1 PUSH1 0x20 ADD DUP1 DUP4 GT PUSH2 0xE82 JUMPI DUP3 SWAP1 SUB PUSH1 0x1F AND DUP3 ADD SWAP2 JUMPDEST POP POP POP POP POP DUP2 MSTORE PUSH1 0x20 ADD PUSH1 0x8 DUP3 ADD PUSH1 0x0 SWAP1 SLOAD SWAP1 PUSH2 0x100 EXP SWAP1 DIV PUSH1 0xFF AND ISZERO ISZERO ISZERO ISZERO DUP2 MSTORE POP POP SWAP1 POP SWAP2 SWAP1 POP JUMP JUMPDEST PUSH1 0x6 PUSH1 0x20 MSTORE DUP1 PUSH1 0x0 MSTORE PUSH1 0x40 PUSH1 0x0 KECCAK256 PUSH1 0x0 SWAP2 POP SWAP1 POP DUP1 PUSH1 0x0 ADD SLOAD SWAP1 DUP1 PUSH1 0x1 ADD SLOAD SWAP1 DUP1 PUSH1 0x2 ADD SLOAD SWAP1 DUP1 PUSH1 0x3 ADD SLOAD SWAP1 DUP1 PUSH1 0x4 ADD SLOAD SWAP1 DUP1 PUSH1 0x5 ADD PUSH1 0x0 SWAP1 SLOAD SWAP1 PUSH2 0x100 EXP SWAP1 DIV PUSH20 0xFFFFFFFFFFFFFFFFFFFFFFFFFFFFFFFFFFFFFFFF AND SWAP1 DUP1 PUSH1 0x6 ADD PUSH1 0x0 SWAP1 SLOAD SWAP1 PUSH2 0x100 EXP SWAP1 DIV PUSH20 0xFFFFFFFFFFFFFFFFFFFFFFFFFFFFFFFFFFFFFFFF AND SWAP1 DUP1 PUSH1 0x7 ADD DUP1 SLOAD PUSH2 0xF57 SWAP1 PUSH2 0x2AEB JUMP JUMPDEST DUP1 PUSH1 0x1F ADD PUSH1 0x20 DUP1 SWAP2 DIV MUL PUSH1 0x20 ADD PUSH1 0x40 MLOAD SWAP1 DUP2 ADD PUSH1 0x40 MSTORE DUP1 SWAP3 SWAP2 SWAP1 DUP2 DUP2 MSTORE PUSH1 0x20 ADD DUP3 DUP1 SLOAD PUSH2 0xF83 SWAP1 PUSH2 0x2AEB JUMP JUMPDEST DUP1 ISZERO PUSH2 0xFD0 JUMPI DUP1 PUSH1 0x1F LT PUSH2 0xFA5 JUMPI PUSH2 0x100 DUP1 DUP4 SLOAD DIV MUL DUP4 MSTORE SWAP2 PUSH1 0x20 ADD SWAP2 PUSH2 0xFD0 JUMP JUMPDEST DUP3 ADD SWAP2 SWAP1 PUSH1 0x0 MSTORE PUSH1 0x20 PUSH1 0x0 KECCAK256 SWAP1 JUMPDEST DUP2 SLOAD DUP2 MSTORE SWAP1 PUSH1 0x1 ADD SWAP1 PUSH1 0x20 ADD DUP1 DUP4 GT PUSH2 0xFB3 JUMPI DUP3 SWAP1 SUB PUSH1 0x1F AND DUP3 ADD SWAP2 JUMPDEST POP POP POP POP POP SWAP1 DUP1 PUSH1 0x8 ADD PUSH1 0x0 SWAP1 SLOAD SWAP1 PUSH2 0x100 EXP SWAP1 DIV PUSH1 0xFF AND SWAP1 POP DUP10 JUMP JUMPDEST PUSH2 0xFFE PUSH2 0xFF8 PUSH2 0x12EB JUMP JUMPDEST DUP4 PUSH2 0x13AC JUMP JUMPDEST PUSH2 0x103D JUMPI PUSH1 0x40 MLOAD PUSH32 0x8C379A000000000000000000000000000000000000000000000000000000000 DUP2 MSTORE PUSH1 0x4 ADD PUSH2 0x1034 SWAP1 PUSH2 0x27AE JUMP JUMPDEST PUSH1 0x40 MLOAD DUP1 SWAP2 SUB SWAP1 REVERT JUMPDEST PUSH2 0x1049 DUP5 DUP5 DUP5 DUP5 PUSH2 0x185E JUMP JUMPDEST POP POP POP POP JUMP JUMPDEST PUSH1 0x60 PUSH2 0x105A DUP3 PUSH2 0x127F JUMP JUMPDEST PUSH2 0x1099 JUMPI PUSH1 0x40 MLOAD PUSH32 0x8C379A000000000000000000000000000000000000000000000000000000000 DUP2 MSTORE PUSH1 0x4 ADD PUSH2 0x1090 SWAP1 PUSH2 0x274E JUMP JUMPDEST PUSH1 0x40 MLOAD DUP1 SWAP2 SUB SWAP1 REVERT JUMPDEST PUSH1 0x0 PUSH2 0x10A3 PUSH2 0x18BA JUMP JUMPDEST SWAP1 POP PUSH1 0x0 DUP2 MLOAD GT PUSH2 0x10C3 JUMPI PUSH1 0x40 MLOAD DUP1 PUSH1 0x20 ADD PUSH1 0x40 MSTORE DUP1 PUSH1 0x0 DUP2 MSTORE POP PUSH2 0x10EE JUMP JUMPDEST DUP1 PUSH2 0x10CD DUP5 PUSH2 0x18D1 JUMP JUMPDEST PUSH1 0x40 MLOAD PUSH1 0x20 ADD PUSH2 0x10DE SWAP3 SWAP2 SWAP1 PUSH2 0x2566 JUMP JUMPDEST PUSH1 0x40 MLOAD PUSH1 0x20 DUP2 DUP4 SUB SUB DUP2 MSTORE SWAP1 PUSH1 0x40 MSTORE JUMPDEST SWAP2 POP POP SWAP2 SWAP1 POP JUMP JUMPDEST PUSH1 0x1 PUSH1 0x6 PUSH1 0x0 DUP4 DUP2 MSTORE PUSH1 0x20 ADD SWAP1 DUP2 MSTORE PUSH1 0x20 ADD PUSH1 0x0 KECCAK256 PUSH1 0x8 ADD PUSH1 0x0 PUSH2 0x100 EXP DUP2 SLOAD DUP2 PUSH1 0xFF MUL NOT AND SWAP1 DUP4 ISZERO ISZERO MUL OR SWAP1 SSTORE POP POP JUMP JUMPDEST DUP1 PUSH1 0x6 PUSH1 0x0 DUP5 DUP2 MSTORE PUSH1 0x20 ADD SWAP1 DUP2 MSTORE PUSH1 0x20 ADD PUSH1 0x0 KECCAK256 PUSH1 0x6 ADD PUSH1 0x0 PUSH2 0x100 EXP DUP2 SLOAD DUP2 PUSH20 0xFFFFFFFFFFFFFFFFFFFFFFFFFFFFFFFFFFFFFFFF MUL NOT AND SWAP1 DUP4 PUSH20 0xFFFFFFFFFFFFFFFFFFFFFFFFFFFFFFFFFFFFFFFF AND MUL OR SWAP1 SSTORE POP POP POP JUMP JUMPDEST PUSH1 0x0 PUSH1 0x5 PUSH1 0x0 DUP5 PUSH20 0xFFFFFFFFFFFFFFFFFFFFFFFFFFFFFFFFFFFFFFFF AND PUSH20 0xFFFFFFFFFFFFFFFFFFFFFFFFFFFFFFFFFFFFFFFF AND DUP2 MSTORE PUSH1 0x20 ADD SWAP1 DUP2 MSTORE PUSH1 0x20 ADD PUSH1 0x0 KECCAK256 PUSH1 0x0 DUP4 PUSH20 0xFFFFFFFFFFFFFFFFFFFFFFFFFFFFFFFFFFFFFFFF AND PUSH20 0xFFFFFFFFFFFFFFFFFFFFFFFFFFFFFFFFFFFFFFFF AND DUP2 MSTORE PUSH1 0x20 ADD SWAP1 DUP2 MSTORE PUSH1 0x20 ADD PUSH1 0x0 KECCAK256 PUSH1 0x0 SWAP1 SLOAD SWAP1 PUSH2 0x100 EXP SWAP1 DIV PUSH1 0xFF AND SWAP1 POP SWAP3 SWAP2 POP POP JUMP JUMPDEST PUSH1 0x0 PUSH32 0x1FFC9A700000000000000000000000000000000000000000000000000000000 PUSH28 0xFFFFFFFFFFFFFFFFFFFFFFFFFFFFFFFFFFFFFFFFFFFFFFFFFFFFFFFF NOT AND DUP3 PUSH28 0xFFFFFFFFFFFFFFFFFFFFFFFFFFFFFFFFFFFFFFFFFFFFFFFFFFFFFFFF NOT AND EQ SWAP1 POP SWAP2 SWAP1 POP JUMP JUMPDEST PUSH1 0x0 DUP1 PUSH20 0xFFFFFFFFFFFFFFFFFFFFFFFFFFFFFFFFFFFFFFFF AND PUSH1 0x2 PUSH1 0x0 DUP5 DUP2 MSTORE PUSH1 0x20 ADD SWAP1 DUP2 MSTORE PUSH1 0x20 ADD PUSH1 0x0 KECCAK256 PUSH1 0x0 SWAP1 SLOAD SWAP1 PUSH2 0x100 EXP SWAP1 DIV PUSH20 0xFFFFFFFFFFFFFFFFFFFFFFFFFFFFFFFFFFFFFFFF AND PUSH20 0xFFFFFFFFFFFFFFFFFFFFFFFFFFFFFFFFFFFFFFFF AND EQ ISZERO SWAP1 POP SWAP2 SWAP1 POP JUMP JUMPDEST PUSH1 0x0 CALLER SWAP1 POP SWAP1 JUMP JUMPDEST DUP2 PUSH1 0x4 PUSH1 0x0 DUP4 DUP2 MSTORE PUSH1 0x20 ADD SWAP1 DUP2 MSTORE PUSH1 0x20 ADD PUSH1 0x0 KECCAK256 PUSH1 0x0 PUSH2 0x100 EXP DUP2 SLOAD DUP2 PUSH20 0xFFFFFFFFFFFFFFFFFFFFFFFFFFFFFFFFFFFFFFFF MUL NOT AND SWAP1 DUP4 PUSH20 0xFFFFFFFFFFFFFFFFFFFFFFFFFFFFFFFFFFFFFFFF AND MUL OR SWAP1 SSTORE POP DUP1 DUP3 PUSH20 0xFFFFFFFFFFFFFFFFFFFFFFFFFFFFFFFFFFFFFFFF AND PUSH2 0x1366 DUP4 PUSH2 0xAFF JUMP JUMPDEST PUSH20 0xFFFFFFFFFFFFFFFFFFFFFFFFFFFFFFFFFFFFFFFF AND PUSH32 0x8C5BE1E5EBEC7D5BD14F71427D1E84F3DD0314C0F7B2291E5B200AC8C7C3B925 PUSH1 0x40 MLOAD PUSH1 0x40 MLOAD DUP1 SWAP2 SUB SWAP1 LOG4 POP POP JUMP JUMPDEST PUSH1 0x0 PUSH2 0x13B7 DUP3 PUSH2 0x127F JUMP JUMPDEST PUSH2 0x13F6 JUMPI PUSH1 0x40 MLOAD PUSH32 0x8C379A000000000000000000000000000000000000000000000000000000000 DUP2 MSTORE PUSH1 0x4 ADD PUSH2 0x13ED SWAP1 PUSH2 0x26AE JUMP JUMPDEST PUSH1 0x40 MLOAD DUP1 SWAP2 SUB SWAP1 REVERT JUMPDEST PUSH1 0x0 PUSH2 0x1401 DUP4 PUSH2 0xAFF JUMP JUMPDEST SWAP1 POP DUP1 PUSH20 0xFFFFFFFFFFFFFFFFFFFFFFFFFFFFFFFFFFFFFFFF AND DUP5 PUSH20 0xFFFFFFFFFFFFFFFFFFFFFFFFFFFFFFFFFFFFFFFF AND EQ DUP1 PUSH2 0x1443 JUMPI POP PUSH2 0x1442 DUP2 DUP6 PUSH2 0x1181 JUMP JUMPDEST JUMPDEST DUP1 PUSH2 0x1481 JUMPI POP DUP4 PUSH20 0xFFFFFFFFFFFFFFFFFFFFFFFFFFFFFFFFFFFFFFFF AND PUSH2 0x1469 DUP5 PUSH2 0x8E2 JUMP JUMPDEST PUSH20 0xFFFFFFFFFFFFFFFFFFFFFFFFFFFFFFFFFFFFFFFF AND EQ JUMPDEST SWAP2 POP POP SWAP3 SWAP2 POP POP JUMP JUMPDEST DUP3 PUSH20 0xFFFFFFFFFFFFFFFFFFFFFFFFFFFFFFFFFFFFFFFF AND PUSH2 0x14AA DUP3 PUSH2 0xAFF JUMP JUMPDEST PUSH20 0xFFFFFFFFFFFFFFFFFFFFFFFFFFFFFFFFFFFFFFFF AND EQ PUSH2 0x1500 JUMPI PUSH1 0x40 MLOAD PUSH32 0x8C379A000000000000000000000000000000000000000000000000000000000 DUP2 MSTORE PUSH1 0x4 ADD PUSH2 0x14F7 SWAP1 PUSH2 0x264E JUMP JUMPDEST PUSH1 0x40 MLOAD DUP1 SWAP2 SUB SWAP1 REVERT JUMPDEST PUSH1 0x0 PUSH20 0xFFFFFFFFFFFFFFFFFFFFFFFFFFFFFFFFFFFFFFFF AND DUP3 PUSH20 0xFFFFFFFFFFFFFFFFFFFFFFFFFFFFFFFFFFFFFFFF AND EQ ISZERO PUSH2 0x1570 JUMPI PUSH1 0x40 MLOAD PUSH32 0x8C379A000000000000000000000000000000000000000000000000000000000 DUP2 MSTORE PUSH1 0x4 ADD PUSH2 0x1567 SWAP1 PUSH2 0x266E JUMP JUMPDEST PUSH1 0x40 MLOAD DUP1 SWAP2 SUB SWAP1 REVERT JUMPDEST PUSH2 0x157B DUP4 DUP4 DUP4 PUSH2 0x1A32 JUMP JUMPDEST PUSH2 0x1586 PUSH1 0x0 DUP3 PUSH2 0x12F3 JUMP JUMPDEST PUSH1 0x1 PUSH1 0x3 PUSH1 0x0 DUP6 PUSH20 0xFFFFFFFFFFFFFFFFFFFFFFFFFFFFFFFFFFFFFFFF AND PUSH20 0xFFFFFFFFFFFFFFFFFFFFFFFFFFFFFFFFFFFFFFFF AND DUP2 MSTORE PUSH1 0x20 ADD SWAP1 DUP2 MSTORE PUSH1 0x20 ADD PUSH1 0x0 KECCAK256 PUSH1 0x0 DUP3 DUP3 SLOAD PUSH2 0x15D6 SWAP2 SWAP1 PUSH2 0x2A01 JUMP JUMPDEST SWAP3 POP POP DUP2 SWAP1 SSTORE POP PUSH1 0x1 PUSH1 0x3 PUSH1 0x0 DUP5 PUSH20 0xFFFFFFFFFFFFFFFFFFFFFFFFFFFFFFFFFFFFFFFF AND PUSH20 0xFFFFFFFFFFFFFFFFFFFFFFFFFFFFFFFFFFFFFFFF AND DUP2 MSTORE PUSH1 0x20 ADD SWAP1 DUP2 MSTORE PUSH1 0x20 ADD PUSH1 0x0 KECCAK256 PUSH1 0x0 DUP3 DUP3 SLOAD PUSH2 0x162D SWAP2 SWAP1 PUSH2 0x297A JUMP JUMPDEST SWAP3 POP POP DUP2 SWAP1 SSTORE POP DUP2 PUSH1 0x2 PUSH1 0x0 DUP4 DUP2 MSTORE PUSH1 0x20 ADD SWAP1 DUP2 MSTORE PUSH1 0x20 ADD PUSH1 0x0 KECCAK256 PUSH1 0x0 PUSH2 0x100 EXP DUP2 SLOAD DUP2 PUSH20 0xFFFFFFFFFFFFFFFFFFFFFFFFFFFFFFFFFFFFFFFF MUL NOT AND SWAP1 DUP4 PUSH20 0xFFFFFFFFFFFFFFFFFFFFFFFFFFFFFFFFFFFFFFFF AND MUL OR SWAP1 SSTORE POP DUP1 DUP3 PUSH20 0xFFFFFFFFFFFFFFFFFFFFFFFFFFFFFFFFFFFFFFFF AND DUP5 PUSH20 0xFFFFFFFFFFFFFFFFFFFFFFFFFFFFFFFFFFFFFFFF AND PUSH32 0xDDF252AD1BE2C89B69C2B068FC378DAA952BA7F163C4A11628F55A4DF523B3EF PUSH1 0x40 MLOAD PUSH1 0x40 MLOAD DUP1 SWAP2 SUB SWAP1 LOG4 PUSH2 0x16EC DUP4 DUP4 DUP4 PUSH2 0x1A37 JUMP JUMPDEST POP POP POP JUMP JUMPDEST DUP2 PUSH20 0xFFFFFFFFFFFFFFFFFFFFFFFFFFFFFFFFFFFFFFFF AND DUP4 PUSH20 0xFFFFFFFFFFFFFFFFFFFFFFFFFFFFFFFFFFFFFFFF AND EQ ISZERO PUSH2 0x1760 JUMPI PUSH1 0x40 MLOAD PUSH32 0x8C379A000000000000000000000000000000000000000000000000000000000 DUP2 MSTORE PUSH1 0x4 ADD PUSH2 0x1757 SWAP1 PUSH2 0x268E JUMP JUMPDEST PUSH1 0x40 MLOAD DUP1 SWAP2 SUB SWAP1 REVERT JUMPDEST DUP1 PUSH1 0x5 PUSH1 0x0 DUP6 PUSH20 0xFFFFFFFFFFFFFFFFFFFFFFFFFFFFFFFFFFFFFFFF AND PUSH20 0xFFFFFFFFFFFFFFFFFFFFFFFFFFFFFFFFFFFFFFFF AND DUP2 MSTORE PUSH1 0x20 ADD SWAP1 DUP2 MSTORE PUSH1 0x20 ADD PUSH1 0x0 KECCAK256 PUSH1 0x0 DUP5 PUSH20 0xFFFFFFFFFFFFFFFFFFFFFFFFFFFFFFFFFFFFFFFF AND PUSH20 0xFFFFFFFFFFFFFFFFFFFFFFFFFFFFFFFFFFFFFFFF AND DUP2 MSTORE PUSH1 0x20 ADD SWAP1 DUP2 MSTORE PUSH1 0x20 ADD PUSH1 0x0 KECCAK256 PUSH1 0x0 PUSH2 0x100 EXP DUP2 SLOAD DUP2 PUSH1 0xFF MUL NOT AND SWAP1 DUP4 ISZERO ISZERO MUL OR SWAP1 SSTORE POP DUP2 PUSH20 0xFFFFFFFFFFFFFFFFFFFFFFFFFFFFFFFFFFFFFFFF AND DUP4 PUSH20 0xFFFFFFFFFFFFFFFFFFFFFFFFFFFFFFFFFFFFFFFF AND PUSH32 0x17307EAB39AB6107E8899845AD3D59BD9653F200F220920489CA2B5937696C31 DUP4 PUSH1 0x40 MLOAD PUSH2 0x1851 SWAP2 SWAP1 PUSH2 0x25F1 JUMP JUMPDEST PUSH1 0x40 MLOAD DUP1 SWAP2 SUB SWAP1 LOG3 POP POP POP JUMP JUMPDEST PUSH2 0x1869 DUP5 DUP5 DUP5 PUSH2 0x148A JUMP JUMPDEST PUSH2 0x1875 DUP5 DUP5 DUP5 DUP5 PUSH2 0x1A3C JUMP JUMPDEST PUSH2 0x18B4 JUMPI PUSH1 0x40 MLOAD PUSH32 0x8C379A000000000000000000000000000000000000000000000000000000000 DUP2 MSTORE PUSH1 0x4 ADD PUSH2 0x18AB SWAP1 PUSH2 0x262E JUMP JUMPDEST PUSH1 0x40 MLOAD DUP1 SWAP2 SUB SWAP1 REVERT JUMPDEST POP POP POP POP JUMP JUMPDEST PUSH1 0x60 PUSH1 0x40 MLOAD DUP1 PUSH1 0x20 ADD PUSH1 0x40 MSTORE DUP1 PUSH1 0x0 DUP2 MSTORE POP SWAP1 POP SWAP1 JUMP JUMPDEST PUSH1 0x60 PUSH1 0x0 DUP3 EQ ISZERO PUSH2 0x1919 JUMPI PUSH1 0x40 MLOAD DUP1 PUSH1 0x40 ADD PUSH1 0x40 MSTORE DUP1 PUSH1 0x1 DUP2 MSTORE PUSH1 0x20 ADD PUSH32 0x3000000000000000000000000000000000000000000000000000000000000000 DUP2 MSTORE POP SWAP1 POP PUSH2 0x1A2D JUMP JUMPDEST PUSH1 0x0 DUP3 SWAP1 POP PUSH1 0x0 JUMPDEST PUSH1 0x0 DUP3 EQ PUSH2 0x194B JUMPI DUP1 DUP1 PUSH2 0x1934 SWAP1 PUSH2 0x2B4E JUMP JUMPDEST SWAP2 POP POP PUSH1 0xA DUP3 PUSH2 0x1944 SWAP2 SWAP1 PUSH2 0x29D0 JUMP JUMPDEST SWAP2 POP PUSH2 0x1921 JUMP JUMPDEST PUSH1 0x0 DUP2 PUSH8 0xFFFFFFFFFFFFFFFF DUP2 GT ISZERO PUSH2 0x1967 JUMPI PUSH2 0x1966 PUSH2 0x2C84 JUMP JUMPDEST JUMPDEST PUSH1 0x40 MLOAD SWAP1 DUP1 DUP3 MSTORE DUP1 PUSH1 0x1F ADD PUSH1 0x1F NOT AND PUSH1 0x20 ADD DUP3 ADD PUSH1 0x40 MSTORE DUP1 ISZERO PUSH2 0x1999 JUMPI DUP2 PUSH1 0x20 ADD PUSH1 0x1 DUP3 MUL DUP1 CALLDATASIZE DUP4 CALLDATACOPY DUP1 DUP3 ADD SWAP2 POP POP SWAP1 POP JUMPDEST POP SWAP1 POP JUMPDEST PUSH1 0x0 DUP6 EQ PUSH2 0x1A26 JUMPI PUSH1 0x1 DUP3 PUSH2 0x19B2 SWAP2 SWAP1 PUSH2 0x2A01 JUMP JUMPDEST SWAP2 POP PUSH1 0xA DUP6 PUSH2 0x19C1 SWAP2 SWAP1 PUSH2 0x2B97 JUMP JUMPDEST PUSH1 0x30 PUSH2 0x19CD SWAP2 SWAP1 PUSH2 0x297A JUMP JUMPDEST PUSH1 0xF8 SHL DUP2 DUP4 DUP2 MLOAD DUP2 LT PUSH2 0x19E3 JUMPI PUSH2 0x19E2 PUSH2 0x2C55 JUMP JUMPDEST JUMPDEST PUSH1 0x20 ADD ADD SWAP1 PUSH31 0xFFFFFFFFFFFFFFFFFFFFFFFFFFFFFFFFFFFFFFFFFFFFFFFFFFFFFFFFFFFFFF NOT AND SWAP1 DUP2 PUSH1 0x0 BYTE SWAP1 MSTORE8 POP PUSH1 0xA DUP6 PUSH2 0x1A1F SWAP2 SWAP1 PUSH2 0x29D0 JUMP JUMPDEST SWAP5 POP PUSH2 0x199D JUMP JUMPDEST DUP1 SWAP4 POP POP POP POP JUMPDEST SWAP2 SWAP1 POP JUMP JUMPDEST POP POP POP JUMP JUMPDEST POP POP POP JUMP JUMPDEST PUSH1 0x0 PUSH2 0x1A5D DUP5 PUSH20 0xFFFFFFFFFFFFFFFFFFFFFFFFFFFFFFFFFFFFFFFF AND PUSH2 0x1BD3 JUMP JUMPDEST ISZERO PUSH2 0x1BC6 JUMPI DUP4 PUSH20 0xFFFFFFFFFFFFFFFFFFFFFFFFFFFFFFFFFFFFFFFF AND PUSH4 0x150B7A02 PUSH2 0x1A86 PUSH2 0x12EB JUMP JUMPDEST DUP8 DUP7 DUP7 PUSH1 0x40 MLOAD DUP6 PUSH4 0xFFFFFFFF AND PUSH1 0xE0 SHL DUP2 MSTORE PUSH1 0x4 ADD PUSH2 0x1AA8 SWAP5 SWAP4 SWAP3 SWAP2 SWAP1 PUSH2 0x25A5 JUMP JUMPDEST PUSH1 0x20 PUSH1 0x40 MLOAD DUP1 DUP4 SUB DUP2 PUSH1 0x0 DUP8 DUP1 EXTCODESIZE ISZERO DUP1 ISZERO PUSH2 0x1AC2 JUMPI PUSH1 0x0 DUP1 REVERT JUMPDEST POP GAS CALL SWAP3 POP POP POP DUP1 ISZERO PUSH2 0x1AF3 JUMPI POP PUSH1 0x40 MLOAD RETURNDATASIZE PUSH1 0x1F NOT PUSH1 0x1F DUP3 ADD AND DUP3 ADD DUP1 PUSH1 0x40 MSTORE POP DUP2 ADD SWAP1 PUSH2 0x1AF0 SWAP2 SWAP1 PUSH2 0x204C JUMP JUMPDEST PUSH1 0x1 JUMPDEST PUSH2 0x1B76 JUMPI RETURNDATASIZE DUP1 PUSH1 0x0 DUP2 EQ PUSH2 0x1B23 JUMPI PUSH1 0x40 MLOAD SWAP2 POP PUSH1 0x1F NOT PUSH1 0x3F RETURNDATASIZE ADD AND DUP3 ADD PUSH1 0x40 MSTORE RETURNDATASIZE DUP3 MSTORE RETURNDATASIZE PUSH1 0x0 PUSH1 0x20 DUP5 ADD RETURNDATACOPY PUSH2 0x1B28 JUMP JUMPDEST PUSH1 0x60 SWAP2 POP JUMPDEST POP PUSH1 0x0 DUP2 MLOAD EQ ISZERO PUSH2 0x1B6E JUMPI PUSH1 0x40 MLOAD PUSH32 0x8C379A000000000000000000000000000000000000000000000000000000000 DUP2 MSTORE PUSH1 0x4 ADD PUSH2 0x1B65 SWAP1 PUSH2 0x262E JUMP JUMPDEST PUSH1 0x40 MLOAD DUP1 SWAP2 SUB SWAP1 REVERT JUMPDEST DUP1 MLOAD DUP2 PUSH1 0x20 ADD REVERT JUMPDEST PUSH4 0x150B7A02 PUSH1 0xE0 SHL PUSH28 0xFFFFFFFFFFFFFFFFFFFFFFFFFFFFFFFFFFFFFFFFFFFFFFFFFFFFFFFF NOT AND DUP2 PUSH28 0xFFFFFFFFFFFFFFFFFFFFFFFFFFFFFFFFFFFFFFFFFFFFFFFFFFFFFFFF NOT AND EQ SWAP2 POP POP PUSH2 0x1BCB JUMP JUMPDEST PUSH1 0x1 SWAP1 POP JUMPDEST SWAP5 SWAP4 POP POP POP POP JUMP JUMPDEST PUSH1 0x0 DUP1 DUP3 PUSH20 0xFFFFFFFFFFFFFFFFFFFFFFFFFFFFFFFFFFFFFFFF AND EXTCODESIZE GT SWAP1 POP SWAP2 SWAP1 POP JUMP JUMPDEST PUSH1 0x40 MLOAD DUP1 PUSH2 0x120 ADD PUSH1 0x40 MSTORE DUP1 PUSH1 0x0 DUP2 MSTORE PUSH1 0x20 ADD PUSH1 0x0 DUP2 MSTORE PUSH1 0x20 ADD PUSH1 0x0 DUP2 MSTORE PUSH1 0x20 ADD PUSH1 0x0 DUP2 MSTORE PUSH1 0x20 ADD PUSH1 0x0 DUP2 MSTORE PUSH1 0x20 ADD PUSH1 0x0 PUSH20 0xFFFFFFFFFFFFFFFFFFFFFFFFFFFFFFFFFFFFFFFF AND DUP2 MSTORE PUSH1 0x20 ADD PUSH1 0x0 PUSH20 0xFFFFFFFFFFFFFFFFFFFFFFFFFFFFFFFFFFFFFFFF AND DUP2 MSTORE PUSH1 0x20 ADD PUSH1 0x60 DUP2 MSTORE PUSH1 0x20 ADD PUSH1 0x0 ISZERO ISZERO DUP2 MSTORE POP SWAP1 JUMP JUMPDEST DUP3 DUP1 SLOAD PUSH2 0x1C7C SWAP1 PUSH2 0x2AEB JUMP JUMPDEST SWAP1 PUSH1 0x0 MSTORE PUSH1 0x20 PUSH1 0x0 KECCAK256 SWAP1 PUSH1 0x1F ADD PUSH1 0x20 SWAP1 DIV DUP2 ADD SWAP3 DUP3 PUSH2 0x1C9E JUMPI PUSH1 0x0 DUP6 SSTORE PUSH2 0x1CE5 JUMP JUMPDEST DUP3 PUSH1 0x1F LT PUSH2 0x1CB7 JUMPI DUP1 MLOAD PUSH1 0xFF NOT AND DUP4 DUP1 ADD OR DUP6 SSTORE PUSH2 0x1CE5 JUMP JUMPDEST DUP3 DUP1 ADD PUSH1 0x1 ADD DUP6 SSTORE DUP3 ISZERO PUSH2 0x1CE5 JUMPI SWAP2 DUP3 ADD JUMPDEST DUP3 DUP2 GT ISZERO PUSH2 0x1CE4 JUMPI DUP3 MLOAD DUP3 SSTORE SWAP2 PUSH1 0x20 ADD SWAP2 SWAP1 PUSH1 0x1 ADD SWAP1 PUSH2 0x1CC9 JUMP JUMPDEST JUMPDEST POP SWAP1 POP PUSH2 0x1CF2 SWAP2 SWAP1 PUSH2 0x1CF6 JUMP JUMPDEST POP SWAP1 JUMP JUMPDEST JUMPDEST DUP1 DUP3 GT ISZERO PUSH2 0x1D0F JUMPI PUSH1 0x0 DUP2 PUSH1 0x0 SWAP1 SSTORE POP PUSH1 0x1 ADD PUSH2 0x1CF7 JUMP JUMPDEST POP SWAP1 JUMP JUMPDEST PUSH1 0x0 PUSH2 0x1D26 PUSH2 0x1D21 DUP5 PUSH2 0x28C4 JUMP JUMPDEST PUSH2 0x289F JUMP JUMPDEST SWAP1 POP DUP3 DUP2 MSTORE PUSH1 0x20 DUP2 ADD DUP5 DUP5 DUP5 ADD GT ISZERO PUSH2 0x1D42 JUMPI PUSH2 0x1D41 PUSH2 0x2CB8 JUMP JUMPDEST JUMPDEST PUSH2 0x1D4D DUP5 DUP3 DUP6 PUSH2 0x2AA9 JUMP JUMPDEST POP SWAP4 SWAP3 POP POP POP JUMP JUMPDEST PUSH1 0x0 PUSH2 0x1D68 PUSH2 0x1D63 DUP5 PUSH2 0x28F5 JUMP JUMPDEST PUSH2 0x289F JUMP JUMPDEST SWAP1 POP DUP3 DUP2 MSTORE PUSH1 0x20 DUP2 ADD DUP5 DUP5 DUP5 ADD GT ISZERO PUSH2 0x1D84 JUMPI PUSH2 0x1D83 PUSH2 0x2CB8 JUMP JUMPDEST JUMPDEST PUSH2 0x1D8F DUP5 DUP3 DUP6 PUSH2 0x2AA9 JUMP JUMPDEST POP SWAP4 SWAP3 POP POP POP JUMP JUMPDEST PUSH1 0x0 DUP2 CALLDATALOAD SWAP1 POP PUSH2 0x1DA6 DUP2 PUSH2 0x308F JUMP JUMPDEST SWAP3 SWAP2 POP POP JUMP JUMPDEST PUSH1 0x0 DUP2 CALLDATALOAD SWAP1 POP PUSH2 0x1DBB DUP2 PUSH2 0x30A6 JUMP JUMPDEST SWAP3 SWAP2 POP POP JUMP JUMPDEST PUSH1 0x0 DUP2 CALLDATALOAD SWAP1 POP PUSH2 0x1DD0 DUP2 PUSH2 0x30BD JUMP JUMPDEST SWAP3 SWAP2 POP POP JUMP JUMPDEST PUSH1 0x0 DUP2 MLOAD SWAP1 POP PUSH2 0x1DE5 DUP2 PUSH2 0x30BD JUMP JUMPDEST SWAP3 SWAP2 POP POP JUMP JUMPDEST PUSH1 0x0 DUP3 PUSH1 0x1F DUP4 ADD SLT PUSH2 0x1E00 JUMPI PUSH2 0x1DFF PUSH2 0x2CB3 JUMP JUMPDEST JUMPDEST DUP2 CALLDATALOAD PUSH2 0x1E10 DUP5 DUP3 PUSH1 0x20 DUP7 ADD PUSH2 0x1D13 JUMP JUMPDEST SWAP2 POP POP SWAP3 SWAP2 POP POP JUMP JUMPDEST PUSH1 0x0 DUP3 PUSH1 0x1F DUP4 ADD SLT PUSH2 0x1E2E JUMPI PUSH2 0x1E2D PUSH2 0x2CB3 JUMP JUMPDEST JUMPDEST DUP2 CALLDATALOAD PUSH2 0x1E3E DUP5 DUP3 PUSH1 0x20 DUP7 ADD PUSH2 0x1D55 JUMP JUMPDEST SWAP2 POP POP SWAP3 SWAP2 POP POP JUMP JUMPDEST PUSH1 0x0 DUP2 CALLDATALOAD SWAP1 POP PUSH2 0x1E56 DUP2 PUSH2 0x30D4 JUMP JUMPDEST SWAP3 SWAP2 POP POP JUMP JUMPDEST PUSH1 0x0 PUSH1 0x20 DUP3 DUP5 SUB SLT ISZERO PUSH2 0x1E72 JUMPI PUSH2 0x1E71 PUSH2 0x2CC2 JUMP JUMPDEST JUMPDEST PUSH1 0x0 PUSH2 0x1E80 DUP5 DUP3 DUP6 ADD PUSH2 0x1D97 JUMP JUMPDEST SWAP2 POP POP SWAP3 SWAP2 POP POP JUMP JUMPDEST PUSH1 0x0 DUP1 PUSH1 0x40 DUP4 DUP6 SUB SLT ISZERO PUSH2 0x1EA0 JUMPI PUSH2 0x1E9F PUSH2 0x2CC2 JUMP JUMPDEST JUMPDEST PUSH1 0x0 PUSH2 0x1EAE DUP6 DUP3 DUP7 ADD PUSH2 0x1D97 JUMP JUMPDEST SWAP3 POP POP PUSH1 0x20 PUSH2 0x1EBF DUP6 DUP3 DUP7 ADD PUSH2 0x1D97 JUMP JUMPDEST SWAP2 POP POP SWAP3 POP SWAP3 SWAP1 POP JUMP JUMPDEST PUSH1 0x0 DUP1 PUSH1 0x0 PUSH1 0x60 DUP5 DUP7 SUB SLT ISZERO PUSH2 0x1EE2 JUMPI PUSH2 0x1EE1 PUSH2 0x2CC2 JUMP JUMPDEST JUMPDEST PUSH1 0x0 PUSH2 0x1EF0 DUP7 DUP3 DUP8 ADD PUSH2 0x1D97 JUMP JUMPDEST SWAP4 POP POP PUSH1 0x20 PUSH2 0x1F01 DUP7 DUP3 DUP8 ADD PUSH2 0x1D97 JUMP JUMPDEST SWAP3 POP POP PUSH1 0x40 PUSH2 0x1F12 DUP7 DUP3 DUP8 ADD PUSH2 0x1E47 JUMP JUMPDEST SWAP2 POP POP SWAP3 POP SWAP3 POP SWAP3 JUMP JUMPDEST PUSH1 0x0 DUP1 PUSH1 0x0 DUP1 PUSH1 0x80 DUP6 DUP8 SUB SLT ISZERO PUSH2 0x1F36 JUMPI PUSH2 0x1F35 PUSH2 0x2CC2 JUMP JUMPDEST JUMPDEST PUSH1 0x0 PUSH2 0x1F44 DUP8 DUP3 DUP9 ADD PUSH2 0x1D97 JUMP JUMPDEST SWAP5 POP POP PUSH1 0x20 PUSH2 0x1F55 DUP8 DUP3 DUP9 ADD PUSH2 0x1D97 JUMP JUMPDEST SWAP4 POP POP PUSH1 0x40 PUSH2 0x1F66 DUP8 DUP3 DUP9 ADD PUSH2 0x1E47 JUMP JUMPDEST SWAP3 POP POP PUSH1 0x60 DUP6 ADD CALLDATALOAD PUSH8 0xFFFFFFFFFFFFFFFF DUP2 GT ISZERO PUSH2 0x1F87 JUMPI PUSH2 0x1F86 PUSH2 0x2CBD JUMP JUMPDEST JUMPDEST PUSH2 0x1F93 DUP8 DUP3 DUP9 ADD PUSH2 0x1DEB JUMP JUMPDEST SWAP2 POP POP SWAP3 SWAP6 SWAP2 SWAP5 POP SWAP3 POP JUMP JUMPDEST PUSH1 0x0 DUP1 PUSH1 0x40 DUP4 DUP6 SUB SLT ISZERO PUSH2 0x1FB6 JUMPI PUSH2 0x1FB5 PUSH2 0x2CC2 JUMP JUMPDEST JUMPDEST PUSH1 0x0 PUSH2 0x1FC4 DUP6 DUP3 DUP7 ADD PUSH2 0x1D97 JUMP JUMPDEST SWAP3 POP POP PUSH1 0x20 PUSH2 0x1FD5 DUP6 DUP3 DUP7 ADD PUSH2 0x1DAC JUMP JUMPDEST SWAP2 POP POP SWAP3 POP SWAP3 SWAP1 POP JUMP JUMPDEST PUSH1 0x0 DUP1 PUSH1 0x40 DUP4 DUP6 SUB SLT ISZERO PUSH2 0x1FF6 JUMPI PUSH2 0x1FF5 PUSH2 0x2CC2 JUMP JUMPDEST JUMPDEST PUSH1 0x0 PUSH2 0x2004 DUP6 DUP3 DUP7 ADD PUSH2 0x1D97 JUMP JUMPDEST SWAP3 POP POP PUSH1 0x20 PUSH2 0x2015 DUP6 DUP3 DUP7 ADD PUSH2 0x1E47 JUMP JUMPDEST SWAP2 POP POP SWAP3 POP SWAP3 SWAP1 POP JUMP JUMPDEST PUSH1 0x0 PUSH1 0x20 DUP3 DUP5 SUB SLT ISZERO PUSH2 0x2035 JUMPI PUSH2 0x2034 PUSH2 0x2CC2 JUMP JUMPDEST JUMPDEST PUSH1 0x0 PUSH2 0x2043 DUP5 DUP3 DUP6 ADD PUSH2 0x1DC1 JUMP JUMPDEST SWAP2 POP POP SWAP3 SWAP2 POP POP JUMP JUMPDEST PUSH1 0x0 PUSH1 0x20 DUP3 DUP5 SUB SLT ISZERO PUSH2 0x2062 JUMPI PUSH2 0x2061 PUSH2 0x2CC2 JUMP JUMPDEST JUMPDEST PUSH1 0x0 PUSH2 0x2070 DUP5 DUP3 DUP6 ADD PUSH2 0x1DD6 JUMP JUMPDEST SWAP2 POP POP SWAP3 SWAP2 POP POP JUMP JUMPDEST PUSH1 0x0 PUSH1 0x20 DUP3 DUP5 SUB SLT ISZERO PUSH2 0x208F JUMPI PUSH2 0x208E PUSH2 0x2CC2 JUMP JUMPDEST JUMPDEST PUSH1 0x0 PUSH2 0x209D DUP5 DUP3 DUP6 ADD PUSH2 0x1E47 JUMP JUMPDEST SWAP2 POP POP SWAP3 SWAP2 POP POP JUMP JUMPDEST PUSH1 0x0 DUP1 PUSH1 0x40 DUP4 DUP6 SUB SLT ISZERO PUSH2 0x20BD JUMPI PUSH2 0x20BC PUSH2 0x2CC2 JUMP JUMPDEST JUMPDEST PUSH1 0x0 PUSH2 0x20CB DUP6 DUP3 DUP7 ADD PUSH2 0x1E47 JUMP JUMPDEST SWAP3 POP POP PUSH1 0x20 PUSH2 0x20DC DUP6 DUP3 DUP7 ADD PUSH2 0x1D97 JUMP JUMPDEST SWAP2 POP POP SWAP3 POP SWAP3 SWAP1 POP JUMP JUMPDEST PUSH1 0x0 DUP1 PUSH1 0x0 DUP1 PUSH1 0x0 DUP1 PUSH1 0x0 PUSH1 0xE0 DUP9 DUP11 SUB SLT ISZERO PUSH2 0x2105 JUMPI PUSH2 0x2104 PUSH2 0x2CC2 JUMP JUMPDEST JUMPDEST PUSH1 0x0 PUSH2 0x2113 DUP11 DUP3 DUP12 ADD PUSH2 0x1E47 JUMP JUMPDEST SWAP8 POP POP PUSH1 0x20 PUSH2 0x2124 DUP11 DUP3 DUP12 ADD PUSH2 0x1E47 JUMP JUMPDEST SWAP7 POP POP PUSH1 0x40 PUSH2 0x2135 DUP11 DUP3 DUP12 ADD PUSH2 0x1E47 JUMP JUMPDEST SWAP6 POP POP PUSH1 0x60 PUSH2 0x2146 DUP11 DUP3 DUP12 ADD PUSH2 0x1E47 JUMP JUMPDEST SWAP5 POP POP PUSH1 0x80 PUSH2 0x2157 DUP11 DUP3 DUP12 ADD PUSH2 0x1E47 JUMP JUMPDEST SWAP4 POP POP PUSH1 0xA0 PUSH2 0x2168 DUP11 DUP3 DUP12 ADD PUSH2 0x1D97 JUMP JUMPDEST SWAP3 POP POP PUSH1 0xC0 DUP9 ADD CALLDATALOAD PUSH8 0xFFFFFFFFFFFFFFFF DUP2 GT ISZERO PUSH2 0x2189 JUMPI PUSH2 0x2188 PUSH2 0x2CBD JUMP JUMPDEST JUMPDEST PUSH2 0x2195 DUP11 DUP3 DUP12 ADD PUSH2 0x1E19 JUMP JUMPDEST SWAP2 POP POP SWAP3 SWAP6 SWAP9 SWAP2 SWAP5 SWAP8 POP SWAP3 SWAP6 POP JUMP JUMPDEST PUSH2 0x21AD DUP2 PUSH2 0x2A35 JUMP JUMPDEST DUP3 MSTORE POP POP JUMP JUMPDEST PUSH2 0x21BC DUP2 PUSH2 0x2A35 JUMP JUMPDEST DUP3 MSTORE POP POP JUMP JUMPDEST PUSH2 0x21CB DUP2 PUSH2 0x2A47 JUMP JUMPDEST DUP3 MSTORE POP POP JUMP JUMPDEST PUSH2 0x21DA DUP2 PUSH2 0x2A47 JUMP JUMPDEST DUP3 MSTORE POP POP JUMP JUMPDEST PUSH1 0x0 PUSH2 0x21EB DUP3 PUSH2 0x2926 JUMP JUMPDEST PUSH2 0x21F5 DUP2 DUP6 PUSH2 0x293C JUMP JUMPDEST SWAP4 POP PUSH2 0x2205 DUP2 DUP6 PUSH1 0x20 DUP7 ADD PUSH2 0x2AB8 JUMP JUMPDEST PUSH2 0x220E DUP2 PUSH2 0x2CC7 JUMP JUMPDEST DUP5 ADD SWAP2 POP POP SWAP3 SWAP2 POP POP JUMP JUMPDEST PUSH1 0x0 PUSH2 0x2224 DUP3 PUSH2 0x2931 JUMP JUMPDEST PUSH2 0x222E DUP2 DUP6 PUSH2 0x294D JUMP JUMPDEST SWAP4 POP PUSH2 0x223E DUP2 DUP6 PUSH1 0x20 DUP7 ADD PUSH2 0x2AB8 JUMP JUMPDEST PUSH2 0x2247 DUP2 PUSH2 0x2CC7 JUMP JUMPDEST DUP5 ADD SWAP2 POP POP SWAP3 SWAP2 POP POP JUMP JUMPDEST PUSH1 0x0 PUSH2 0x225D DUP3 PUSH2 0x2931 JUMP JUMPDEST PUSH2 0x2267 DUP2 DUP6 PUSH2 0x295E JUMP JUMPDEST SWAP4 POP PUSH2 0x2277 DUP2 DUP6 PUSH1 0x20 DUP7 ADD PUSH2 0x2AB8 JUMP JUMPDEST PUSH2 0x2280 DUP2 PUSH2 0x2CC7 JUMP JUMPDEST DUP5 ADD SWAP2 POP POP SWAP3 SWAP2 POP POP JUMP JUMPDEST PUSH1 0x0 PUSH2 0x2296 DUP3 PUSH2 0x2931 JUMP JUMPDEST PUSH2 0x22A0 DUP2 DUP6 PUSH2 0x296F JUMP JUMPDEST SWAP4 POP PUSH2 0x22B0 DUP2 DUP6 PUSH1 0x20 DUP7 ADD PUSH2 0x2AB8 JUMP JUMPDEST DUP1 DUP5 ADD SWAP2 POP POP SWAP3 SWAP2 POP POP JUMP JUMPDEST PUSH1 0x0 PUSH2 0x22C9 PUSH1 0x32 DUP4 PUSH2 0x295E JUMP JUMPDEST SWAP2 POP PUSH2 0x22D4 DUP3 PUSH2 0x2CD8 JUMP JUMPDEST PUSH1 0x40 DUP3 ADD SWAP1 POP SWAP2 SWAP1 POP JUMP JUMPDEST PUSH1 0x0 PUSH2 0x22EC PUSH1 0x25 DUP4 PUSH2 0x295E JUMP JUMPDEST SWAP2 POP PUSH2 0x22F7 DUP3 PUSH2 0x2D27 JUMP JUMPDEST PUSH1 0x40 DUP3 ADD SWAP1 POP SWAP2 SWAP1 POP JUMP JUMPDEST PUSH1 0x0 PUSH2 0x230F PUSH1 0x24 DUP4 PUSH2 0x295E JUMP JUMPDEST SWAP2 POP PUSH2 0x231A DUP3 PUSH2 0x2D76 JUMP JUMPDEST PUSH1 0x40 DUP3 ADD SWAP1 POP SWAP2 SWAP1 POP JUMP JUMPDEST PUSH1 0x0 PUSH2 0x2332 PUSH1 0x19 DUP4 PUSH2 0x295E JUMP JUMPDEST SWAP2 POP PUSH2 0x233D DUP3 PUSH2 0x2DC5 JUMP JUMPDEST PUSH1 0x20 DUP3 ADD SWAP1 POP SWAP2 SWAP1 POP JUMP JUMPDEST PUSH1 0x0 PUSH2 0x2355 PUSH1 0x2C DUP4 PUSH2 0x295E JUMP JUMPDEST SWAP2 POP PUSH2 0x2360 DUP3 PUSH2 0x2DEE JUMP JUMPDEST PUSH1 0x40 DUP3 ADD SWAP1 POP SWAP2 SWAP1 POP JUMP JUMPDEST PUSH1 0x0 PUSH2 0x2378 PUSH1 0x29 DUP4 PUSH2 0x295E JUMP JUMPDEST SWAP2 POP PUSH2 0x2383 DUP3 PUSH2 0x2E3D JUMP JUMPDEST PUSH1 0x40 DUP3 ADD SWAP1 POP SWAP2 SWAP1 POP JUMP JUMPDEST PUSH1 0x0 PUSH2 0x239B PUSH1 0x38 DUP4 PUSH2 0x295E JUMP JUMPDEST SWAP2 POP PUSH2 0x23A6 DUP3 PUSH2 0x2E8C JUMP JUMPDEST PUSH1 0x40 DUP3 ADD SWAP1 POP SWAP2 SWAP1 POP JUMP JUMPDEST PUSH1 0x0 PUSH2 0x23BE PUSH1 0x29 DUP4 PUSH2 0x295E JUMP JUMPDEST SWAP2 POP PUSH2 0x23C9 DUP3 PUSH2 0x2EDB JUMP JUMPDEST PUSH1 0x40 DUP3 ADD SWAP1 POP SWAP2 SWAP1 POP JUMP JUMPDEST PUSH1 0x0 PUSH2 0x23E1 PUSH1 0x2C DUP4 PUSH2 0x295E JUMP JUMPDEST SWAP2 POP PUSH2 0x23EC DUP3 PUSH2 0x2F2A JUMP JUMPDEST PUSH1 0x40 DUP3 ADD SWAP1 POP SWAP2 SWAP1 POP JUMP JUMPDEST PUSH1 0x0 PUSH2 0x2404 PUSH1 0x2F DUP4 PUSH2 0x295E JUMP JUMPDEST SWAP2 POP PUSH2 0x240F DUP3 PUSH2 0x2F79 JUMP JUMPDEST PUSH1 0x40 DUP3 ADD SWAP1 POP SWAP2 SWAP1 POP JUMP JUMPDEST PUSH1 0x0 PUSH2 0x2427 PUSH1 0x1B DUP4 PUSH2 0x295E JUMP JUMPDEST SWAP2 POP PUSH2 0x2432 DUP3 PUSH2 0x2FC8 JUMP JUMPDEST PUSH1 0x20 DUP3 ADD SWAP1 POP SWAP2 SWAP1 POP JUMP JUMPDEST PUSH1 0x0 PUSH2 0x244A PUSH1 0x21 DUP4 PUSH2 0x295E JUMP JUMPDEST SWAP2 POP PUSH2 0x2455 DUP3 PUSH2 0x2FF1 JUMP JUMPDEST PUSH1 0x40 DUP3 ADD SWAP1 POP SWAP2 SWAP1 POP JUMP JUMPDEST PUSH1 0x0 PUSH2 0x246D PUSH1 0x31 DUP4 PUSH2 0x295E JUMP JUMPDEST SWAP2 POP PUSH2 0x2478 DUP3 PUSH2 0x3040 JUMP JUMPDEST PUSH1 0x40 DUP3 ADD SWAP1 POP SWAP2 SWAP1 POP JUMP JUMPDEST PUSH1 0x0 PUSH2 0x120 DUP4 ADD PUSH1 0x0 DUP4 ADD MLOAD PUSH2 0x249C PUSH1 0x0 DUP7 ADD DUP3 PUSH2 0x2548 JUMP JUMPDEST POP PUSH1 0x20 DUP4 ADD MLOAD PUSH2 0x24AF PUSH1 0x20 DUP7 ADD DUP3 PUSH2 0x2548 JUMP JUMPDEST POP PUSH1 0x40 DUP4 ADD MLOAD PUSH2 0x24C2 PUSH1 0x40 DUP7 ADD DUP3 PUSH2 0x2548 JUMP JUMPDEST POP PUSH1 0x60 DUP4 ADD MLOAD PUSH2 0x24D5 PUSH1 0x60 DUP7 ADD DUP3 PUSH2 0x2548 JUMP JUMPDEST POP PUSH1 0x80 DUP4 ADD MLOAD PUSH2 0x24E8 PUSH1 0x80 DUP7 ADD DUP3 PUSH2 0x2548 JUMP JUMPDEST POP PUSH1 0xA0 DUP4 ADD MLOAD PUSH2 0x24FB PUSH1 0xA0 DUP7 ADD DUP3 PUSH2 0x21A4 JUMP JUMPDEST POP PUSH1 0xC0 DUP4 ADD MLOAD PUSH2 0x250E PUSH1 0xC0 DUP7 ADD DUP3 PUSH2 0x21A4 JUMP JUMPDEST POP PUSH1 0xE0 DUP4 ADD MLOAD DUP5 DUP3 SUB PUSH1 0xE0 DUP7 ADD MSTORE PUSH2 0x2526 DUP3 DUP3 PUSH2 0x2219 JUMP JUMPDEST SWAP2 POP POP PUSH2 0x100 DUP4 ADD MLOAD PUSH2 0x253D PUSH2 0x100 DUP7 ADD DUP3 PUSH2 0x21C2 JUMP JUMPDEST POP DUP1 SWAP2 POP POP SWAP3 SWAP2 POP POP JUMP JUMPDEST PUSH2 0x2551 DUP2 PUSH2 0x2A9F JUMP JUMPDEST DUP3 MSTORE POP POP JUMP JUMPDEST PUSH2 0x2560 DUP2 PUSH2 0x2A9F JUMP JUMPDEST DUP3 MSTORE POP POP JUMP JUMPDEST PUSH1 0x0 PUSH2 0x2572 DUP3 DUP6 PUSH2 0x228B JUMP JUMPDEST SWAP2 POP PUSH2 0x257E DUP3 DUP5 PUSH2 0x228B JUMP JUMPDEST SWAP2 POP DUP2 SWAP1 POP SWAP4 SWAP3 POP POP POP JUMP JUMPDEST PUSH1 0x0 PUSH1 0x20 DUP3 ADD SWAP1 POP PUSH2 0x259F PUSH1 0x0 DUP4 ADD DUP5 PUSH2 0x21B3 JUMP JUMPDEST SWAP3 SWAP2 POP POP JUMP JUMPDEST PUSH1 0x0 PUSH1 0x80 DUP3 ADD SWAP1 POP PUSH2 0x25BA PUSH1 0x0 DUP4 ADD DUP8 PUSH2 0x21B3 JUMP JUMPDEST PUSH2 0x25C7 PUSH1 0x20 DUP4 ADD DUP7 PUSH2 0x21B3 JUMP JUMPDEST PUSH2 0x25D4 PUSH1 0x40 DUP4 ADD DUP6 PUSH2 0x2557 JUMP JUMPDEST DUP2 DUP2 SUB PUSH1 0x60 DUP4 ADD MSTORE PUSH2 0x25E6 DUP2 DUP5 PUSH2 0x21E0 JUMP JUMPDEST SWAP1 POP SWAP6 SWAP5 POP POP POP POP POP JUMP JUMPDEST PUSH1 0x0 PUSH1 0x20 DUP3 ADD SWAP1 POP PUSH2 0x2606 PUSH1 0x0 DUP4 ADD DUP5 PUSH2 0x21D1 JUMP JUMPDEST SWAP3 SWAP2 POP POP JUMP JUMPDEST PUSH1 0x0 PUSH1 0x20 DUP3 ADD SWAP1 POP DUP2 DUP2 SUB PUSH1 0x0 DUP4 ADD MSTORE PUSH2 0x2626 DUP2 DUP5 PUSH2 0x2252 JUMP JUMPDEST SWAP1 POP SWAP3 SWAP2 POP POP JUMP JUMPDEST PUSH1 0x0 PUSH1 0x20 DUP3 ADD SWAP1 POP DUP2 DUP2 SUB PUSH1 0x0 DUP4 ADD MSTORE PUSH2 0x2647 DUP2 PUSH2 0x22BC JUMP JUMPDEST SWAP1 POP SWAP2 SWAP1 POP JUMP JUMPDEST PUSH1 0x0 PUSH1 0x20 DUP3 ADD SWAP1 POP DUP2 DUP2 SUB PUSH1 0x0 DUP4 ADD MSTORE PUSH2 0x2667 DUP2 PUSH2 0x22DF JUMP JUMPDEST SWAP1 POP SWAP2 SWAP1 POP JUMP JUMPDEST PUSH1 0x0 PUSH1 0x20 DUP3 ADD SWAP1 POP DUP2 DUP2 SUB PUSH1 0x0 DUP4 ADD MSTORE PUSH2 0x2687 DUP2 PUSH2 0x2302 JUMP JUMPDEST SWAP1 POP SWAP2 SWAP1 POP JUMP JUMPDEST PUSH1 0x0 PUSH1 0x20 DUP3 ADD SWAP1 POP DUP2 DUP2 SUB PUSH1 0x0 DUP4 ADD MSTORE PUSH2 0x26A7 DUP2 PUSH2 0x2325 JUMP JUMPDEST SWAP1 POP SWAP2 SWAP1 POP JUMP JUMPDEST PUSH1 0x0 PUSH1 0x20 DUP3 ADD SWAP1 POP DUP2 DUP2 SUB PUSH1 0x0 DUP4 ADD MSTORE PUSH2 0x26C7 DUP2 PUSH2 0x2348 JUMP JUMPDEST SWAP1 POP SWAP2 SWAP1 POP JUMP JUMPDEST PUSH1 0x0 PUSH1 0x20 DUP3 ADD SWAP1 POP DUP2 DUP2 SUB PUSH1 0x0 DUP4 ADD MSTORE PUSH2 0x26E7 DUP2 PUSH2 0x236B JUMP JUMPDEST SWAP1 POP SWAP2 SWAP1 POP JUMP JUMPDEST PUSH1 0x0 PUSH1 0x20 DUP3 ADD SWAP1 POP DUP2 DUP2 SUB PUSH1 0x0 DUP4 ADD MSTORE PUSH2 0x2707 DUP2 PUSH2 0x238E JUMP JUMPDEST SWAP1 POP SWAP2 SWAP1 POP JUMP JUMPDEST PUSH1 0x0 PUSH1 0x20 DUP3 ADD SWAP1 POP DUP2 DUP2 SUB PUSH1 0x0 DUP4 ADD MSTORE PUSH2 0x2727 DUP2 PUSH2 0x23B1 JUMP JUMPDEST SWAP1 POP SWAP2 SWAP1 POP JUMP JUMPDEST PUSH1 0x0 PUSH1 0x20 DUP3 ADD SWAP1 POP DUP2 DUP2 SUB PUSH1 0x0 DUP4 ADD MSTORE PUSH2 0x2747 DUP2 PUSH2 0x23D4 JUMP JUMPDEST SWAP1 POP SWAP2 SWAP1 POP JUMP JUMPDEST PUSH1 0x0 PUSH1 0x20 DUP3 ADD SWAP1 POP DUP2 DUP2 SUB PUSH1 0x0 DUP4 ADD MSTORE PUSH2 0x2767 DUP2 PUSH2 0x23F7 JUMP JUMPDEST SWAP1 POP SWAP2 SWAP1 POP JUMP JUMPDEST PUSH1 0x0 PUSH1 0x20 DUP3 ADD SWAP1 POP DUP2 DUP2 SUB PUSH1 0x0 DUP4 ADD MSTORE PUSH2 0x2787 DUP2 PUSH2 0x241A JUMP JUMPDEST SWAP1 POP SWAP2 SWAP1 POP JUMP JUMPDEST PUSH1 0x0 PUSH1 0x20 DUP3 ADD SWAP1 POP DUP2 DUP2 SUB PUSH1 0x0 DUP4 ADD MSTORE PUSH2 0x27A7 DUP2 PUSH2 0x243D JUMP JUMPDEST SWAP1 POP SWAP2 SWAP1 POP JUMP JUMPDEST PUSH1 0x0 PUSH1 0x20 DUP3 ADD SWAP1 POP DUP2 DUP2 SUB PUSH1 0x0 DUP4 ADD MSTORE PUSH2 0x27C7 DUP2 PUSH2 0x2460 JUMP JUMPDEST SWAP1 POP SWAP2 SWAP1 POP JUMP JUMPDEST PUSH1 0x0 PUSH1 0x20 DUP3 ADD SWAP1 POP DUP2 DUP2 SUB PUSH1 0x0 DUP4 ADD MSTORE PUSH2 0x27E8 DUP2 DUP5 PUSH2 0x2483 JUMP JUMPDEST SWAP1 POP SWAP3 SWAP2 POP POP JUMP JUMPDEST PUSH1 0x0 PUSH1 0x20 DUP3 ADD SWAP1 POP PUSH2 0x2805 PUSH1 0x0 DUP4 ADD DUP5 PUSH2 0x2557 JUMP JUMPDEST SWAP3 SWAP2 POP POP JUMP JUMPDEST PUSH1 0x0 PUSH2 0x120 DUP3 ADD SWAP1 POP PUSH2 0x2821 PUSH1 0x0 DUP4 ADD DUP13 PUSH2 0x2557 JUMP JUMPDEST PUSH2 0x282E PUSH1 0x20 DUP4 ADD DUP12 PUSH2 0x2557 JUMP JUMPDEST PUSH2 0x283B PUSH1 0x40 DUP4 ADD DUP11 PUSH2 0x2557 JUMP JUMPDEST PUSH2 0x2848 PUSH1 0x60 DUP4 ADD DUP10 PUSH2 0x2557 JUMP JUMPDEST PUSH2 0x2855 PUSH1 0x80 DUP4 ADD DUP9 PUSH2 0x2557 JUMP JUMPDEST PUSH2 0x2862 PUSH1 0xA0 DUP4 ADD DUP8 PUSH2 0x21B3 JUMP JUMPDEST PUSH2 0x286F PUSH1 0xC0 DUP4 ADD DUP7 PUSH2 0x21B3 JUMP JUMPDEST DUP2 DUP2 SUB PUSH1 0xE0 DUP4 ADD MSTORE PUSH2 0x2881 DUP2 DUP6 PUSH2 0x2252 JUMP JUMPDEST SWAP1 POP PUSH2 0x2891 PUSH2 0x100 DUP4 ADD DUP5 PUSH2 0x21D1 JUMP JUMPDEST SWAP11 SWAP10 POP POP POP POP POP POP POP POP POP POP JUMP JUMPDEST PUSH1 0x0 PUSH2 0x28A9 PUSH2 0x28BA JUMP JUMPDEST SWAP1 POP PUSH2 0x28B5 DUP3 DUP3 PUSH2 0x2B1D JUMP JUMPDEST SWAP2 SWAP1 POP JUMP JUMPDEST PUSH1 0x0 PUSH1 0x40 MLOAD SWAP1 POP SWAP1 JUMP JUMPDEST PUSH1 0x0 PUSH8 0xFFFFFFFFFFFFFFFF DUP3 GT ISZERO PUSH2 0x28DF JUMPI PUSH2 0x28DE PUSH2 0x2C84 JUMP JUMPDEST JUMPDEST PUSH2 0x28E8 DUP3 PUSH2 0x2CC7 JUMP JUMPDEST SWAP1 POP PUSH1 0x20 DUP2 ADD SWAP1 POP SWAP2 SWAP1 POP JUMP JUMPDEST PUSH1 0x0 PUSH8 0xFFFFFFFFFFFFFFFF DUP3 GT ISZERO PUSH2 0x2910 JUMPI PUSH2 0x290F PUSH2 0x2C84 JUMP JUMPDEST JUMPDEST PUSH2 0x2919 DUP3 PUSH2 0x2CC7 JUMP JUMPDEST SWAP1 POP PUSH1 0x20 DUP2 ADD SWAP1 POP SWAP2 SWAP1 POP JUMP JUMPDEST PUSH1 0x0 DUP2 MLOAD SWAP1 POP SWAP2 SWAP1 POP JUMP JUMPDEST PUSH1 0x0 DUP2 MLOAD SWAP1 POP SWAP2 SWAP1 POP JUMP JUMPDEST PUSH1 0x0 DUP3 DUP3 MSTORE PUSH1 0x20 DUP3 ADD SWAP1 POP SWAP3 SWAP2 POP POP JUMP JUMPDEST PUSH1 0x0 DUP3 DUP3 MSTORE PUSH1 0x20 DUP3 ADD SWAP1 POP SWAP3 SWAP2 POP POP JUMP JUMPDEST PUSH1 0x0 DUP3 DUP3 MSTORE PUSH1 0x20 DUP3 ADD SWAP1 POP SWAP3 SWAP2 POP POP JUMP JUMPDEST PUSH1 0x0 DUP2 SWAP1 POP SWAP3 SWAP2 POP POP JUMP JUMPDEST PUSH1 0x0 PUSH2 0x2985 DUP3 PUSH2 0x2A9F JUMP JUMPDEST SWAP2 POP PUSH2 0x2990 DUP4 PUSH2 0x2A9F JUMP JUMPDEST SWAP3 POP DUP3 PUSH32 0xFFFFFFFFFFFFFFFFFFFFFFFFFFFFFFFFFFFFFFFFFFFFFFFFFFFFFFFFFFFFFFFF SUB DUP3 GT ISZERO PUSH2 0x29C5 JUMPI PUSH2 0x29C4 PUSH2 0x2BC8 JUMP JUMPDEST JUMPDEST DUP3 DUP3 ADD SWAP1 POP SWAP3 SWAP2 POP POP JUMP JUMPDEST PUSH1 0x0 PUSH2 0x29DB DUP3 PUSH2 0x2A9F JUMP JUMPDEST SWAP2 POP PUSH2 0x29E6 DUP4 PUSH2 0x2A9F JUMP JUMPDEST SWAP3 POP DUP3 PUSH2 0x29F6 JUMPI PUSH2 0x29F5 PUSH2 0x2BF7 JUMP JUMPDEST JUMPDEST DUP3 DUP3 DIV SWAP1 POP SWAP3 SWAP2 POP POP JUMP JUMPDEST PUSH1 0x0 PUSH2 0x2A0C DUP3 PUSH2 0x2A9F JUMP JUMPDEST SWAP2 POP PUSH2 0x2A17 DUP4 PUSH2 0x2A9F JUMP JUMPDEST SWAP3 POP DUP3 DUP3 LT ISZERO PUSH2 0x2A2A JUMPI PUSH2 0x2A29 PUSH2 0x2BC8 JUMP JUMPDEST JUMPDEST DUP3 DUP3 SUB SWAP1 POP SWAP3 SWAP2 POP POP JUMP JUMPDEST PUSH1 0x0 PUSH2 0x2A40 DUP3 PUSH2 0x2A7F JUMP JUMPDEST SWAP1 POP SWAP2 SWAP1 POP JUMP JUMPDEST PUSH1 0x0 DUP2 ISZERO ISZERO SWAP1 POP SWAP2 SWAP1 POP JUMP JUMPDEST PUSH1 0x0 PUSH32 0xFFFFFFFF00000000000000000000000000000000000000000000000000000000 DUP3 AND SWAP1 POP SWAP2 SWAP1 POP JUMP JUMPDEST PUSH1 0x0 PUSH20 0xFFFFFFFFFFFFFFFFFFFFFFFFFFFFFFFFFFFFFFFF DUP3 AND SWAP1 POP SWAP2 SWAP1 POP JUMP JUMPDEST PUSH1 0x0 DUP2 SWAP1 POP SWAP2 SWAP1 POP JUMP JUMPDEST DUP3 DUP2 DUP4 CALLDATACOPY PUSH1 0x0 DUP4 DUP4 ADD MSTORE POP POP POP JUMP JUMPDEST PUSH1 0x0 JUMPDEST DUP4 DUP2 LT ISZERO PUSH2 0x2AD6 JUMPI DUP1 DUP3 ADD MLOAD DUP2 DUP5 ADD MSTORE PUSH1 0x20 DUP2 ADD SWAP1 POP PUSH2 0x2ABB JUMP JUMPDEST DUP4 DUP2 GT ISZERO PUSH2 0x2AE5 JUMPI PUSH1 0x0 DUP5 DUP5 ADD MSTORE JUMPDEST POP POP POP POP JUMP JUMPDEST PUSH1 0x0 PUSH1 0x2 DUP3 DIV SWAP1 POP PUSH1 0x1 DUP3 AND DUP1 PUSH2 0x2B03 JUMPI PUSH1 0x7F DUP3 AND SWAP2 POP JUMPDEST PUSH1 0x20 DUP3 LT DUP2 EQ ISZERO PUSH2 0x2B17 JUMPI PUSH2 0x2B16 PUSH2 0x2C26 JUMP JUMPDEST JUMPDEST POP SWAP2 SWAP1 POP JUMP JUMPDEST PUSH2 0x2B26 DUP3 PUSH2 0x2CC7 JUMP JUMPDEST DUP2 ADD DUP2 DUP2 LT PUSH8 0xFFFFFFFFFFFFFFFF DUP3 GT OR ISZERO PUSH2 0x2B45 JUMPI PUSH2 0x2B44 PUSH2 0x2C84 JUMP JUMPDEST JUMPDEST DUP1 PUSH1 0x40 MSTORE POP POP POP JUMP JUMPDEST PUSH1 0x0 PUSH2 0x2B59 DUP3 PUSH2 0x2A9F JUMP JUMPDEST SWAP2 POP PUSH32 0xFFFFFFFFFFFFFFFFFFFFFFFFFFFFFFFFFFFFFFFFFFFFFFFFFFFFFFFFFFFFFFFF DUP3 EQ ISZERO PUSH2 0x2B8C JUMPI PUSH2 0x2B8B PUSH2 0x2BC8 JUMP JUMPDEST JUMPDEST PUSH1 0x1 DUP3 ADD SWAP1 POP SWAP2 SWAP1 POP JUMP JUMPDEST PUSH1 0x0 PUSH2 0x2BA2 DUP3 PUSH2 0x2A9F JUMP JUMPDEST SWAP2 POP PUSH2 0x2BAD DUP4 PUSH2 0x2A9F JUMP JUMPDEST SWAP3 POP DUP3 PUSH2 0x2BBD JUMPI PUSH2 0x2BBC PUSH2 0x2BF7 JUMP JUMPDEST JUMPDEST DUP3 DUP3 MOD SWAP1 POP SWAP3 SWAP2 POP POP JUMP JUMPDEST PUSH32 0x4E487B7100000000000000000000000000000000000000000000000000000000 PUSH1 0x0 MSTORE PUSH1 0x11 PUSH1 0x4 MSTORE PUSH1 0x24 PUSH1 0x0 REVERT JUMPDEST PUSH32 0x4E487B7100000000000000000000000000000000000000000000000000000000 PUSH1 0x0 MSTORE PUSH1 0x12 PUSH1 0x4 MSTORE PUSH1 0x24 PUSH1 0x0 REVERT JUMPDEST PUSH32 0x4E487B7100000000000000000000000000000000000000000000000000000000 PUSH1 0x0 MSTORE PUSH1 0x22 PUSH1 0x4 MSTORE PUSH1 0x24 PUSH1 0x0 REVERT JUMPDEST PUSH32 0x4E487B7100000000000000000000000000000000000000000000000000000000 PUSH1 0x0 MSTORE PUSH1 0x32 PUSH1 0x4 MSTORE PUSH1 0x24 PUSH1 0x0 REVERT JUMPDEST PUSH32 0x4E487B7100000000000000000000000000000000000000000000000000000000 PUSH1 0x0 MSTORE PUSH1 0x41 PUSH1 0x4 MSTORE PUSH1 0x24 PUSH1 0x0 REVERT JUMPDEST PUSH1 0x0 DUP1 REVERT JUMPDEST PUSH1 0x0 DUP1 REVERT JUMPDEST PUSH1 0x0 DUP1 REVERT JUMPDEST PUSH1 0x0 DUP1 REVERT JUMPDEST PUSH1 0x0 PUSH1 0x1F NOT PUSH1 0x1F DUP4 ADD AND SWAP1 POP SWAP2 SWAP1 POP JUMP JUMPDEST PUSH32 0x4552433732313A207472616E7366657220746F206E6F6E204552433732315265 PUSH1 0x0 DUP3 ADD MSTORE PUSH32 0x63656976657220696D706C656D656E7465720000000000000000000000000000 PUSH1 0x20 DUP3 ADD MSTORE POP JUMP JUMPDEST PUSH32 0x4552433732313A207472616E736665722066726F6D20696E636F727265637420 PUSH1 0x0 DUP3 ADD MSTORE PUSH32 0x6F776E6572000000000000000000000000000000000000000000000000000000 PUSH1 0x20 DUP3 ADD MSTORE POP JUMP JUMPDEST PUSH32 0x4552433732313A207472616E7366657220746F20746865207A65726F20616464 PUSH1 0x0 DUP3 ADD MSTORE PUSH32 0x7265737300000000000000000000000000000000000000000000000000000000 PUSH1 0x20 DUP3 ADD MSTORE POP JUMP JUMPDEST PUSH32 0x4552433732313A20617070726F766520746F2063616C6C657200000000000000 PUSH1 0x0 DUP3 ADD MSTORE POP JUMP JUMPDEST PUSH32 0x4552433732313A206F70657261746F7220717565727920666F72206E6F6E6578 PUSH1 0x0 DUP3 ADD MSTORE PUSH32 0x697374656E7420746F6B656E0000000000000000000000000000000000000000 PUSH1 0x20 DUP3 ADD MSTORE POP JUMP JUMPDEST PUSH32 0x4552433732313A2061646472657373207A65726F206973206E6F742061207661 PUSH1 0x0 DUP3 ADD MSTORE PUSH32 0x6C6964206F776E65720000000000000000000000000000000000000000000000 PUSH1 0x20 DUP3 ADD MSTORE POP JUMP JUMPDEST PUSH32 0x4552433732313A20617070726F76652063616C6C6572206973206E6F74206F77 PUSH1 0x0 DUP3 ADD MSTORE PUSH32 0x6E6572206E6F7220617070726F76656420666F7220616C6C0000000000000000 PUSH1 0x20 DUP3 ADD MSTORE POP JUMP JUMPDEST PUSH32 0x4552433732313A206F776E657220717565727920666F72206E6F6E6578697374 PUSH1 0x0 DUP3 ADD MSTORE PUSH32 0x656E7420746F6B656E0000000000000000000000000000000000000000000000 PUSH1 0x20 DUP3 ADD MSTORE POP JUMP JUMPDEST PUSH32 0x4552433732313A20617070726F76656420717565727920666F72206E6F6E6578 PUSH1 0x0 DUP3 ADD MSTORE PUSH32 0x697374656E7420746F6B656E0000000000000000000000000000000000000000 PUSH1 0x20 DUP3 ADD MSTORE POP JUMP JUMPDEST PUSH32 0x4552433732314D657461646174613A2055524920717565727920666F72206E6F PUSH1 0x0 DUP3 ADD MSTORE PUSH32 0x6E6578697374656E7420746F6B656E0000000000000000000000000000000000 PUSH1 0x20 DUP3 ADD MSTORE POP JUMP JUMPDEST PUSH32 0x7468697320686F757365496420616C7265616479206578697374730000000000 PUSH1 0x0 DUP3 ADD MSTORE POP JUMP JUMPDEST PUSH32 0x4552433732313A20617070726F76616C20746F2063757272656E74206F776E65 PUSH1 0x0 DUP3 ADD MSTORE PUSH32 0x7200000000000000000000000000000000000000000000000000000000000000 PUSH1 0x20 DUP3 ADD MSTORE POP JUMP JUMPDEST PUSH32 0x4552433732313A207472616E736665722063616C6C6572206973206E6F74206F PUSH1 0x0 DUP3 ADD MSTORE PUSH32 0x776E6572206E6F7220617070726F766564000000000000000000000000000000 PUSH1 0x20 DUP3 ADD MSTORE POP JUMP JUMPDEST PUSH2 0x3098 DUP2 PUSH2 0x2A35 JUMP JUMPDEST DUP2 EQ PUSH2 0x30A3 JUMPI PUSH1 0x0 DUP1 REVERT JUMPDEST POP JUMP JUMPDEST PUSH2 0x30AF DUP2 PUSH2 0x2A47 JUMP JUMPDEST DUP2 EQ PUSH2 0x30BA JUMPI PUSH1 0x0 DUP1 REVERT JUMPDEST POP JUMP JUMPDEST PUSH2 0x30C6 DUP2 PUSH2 0x2A53 JUMP JUMPDEST DUP2 EQ PUSH2 0x30D1 JUMPI PUSH1 0x0 DUP1 REVERT JUMPDEST POP JUMP JUMPDEST PUSH2 0x30DD DUP2 PUSH2 0x2A9F JUMP JUMPDEST DUP2 EQ PUSH2 0x30E8 JUMPI PUSH1 0x0 DUP1 REVERT JUMPDEST POP JUMP INVALID LOG2 PUSH5 0x6970667358 0x22 SLT KECCAK256 SWAP8 0xDF AND INVALID 0xC2 ADDMOD GASLIMIT PUSH29 0x44986EC67AF6BA8A805C971653B4BC01A9AC3CEDAA74AD1A64736F6C63 NUMBER STOP ADDMOD SMOD STOP CALLER "
				},
				"gasEstimates": {
					"creation": {
						"codeDepositCost": "2515400",
						"executionCost": "infinite",
						"totalCost": "infinite"
					},
					"external": {
						"addHouse(uint256,uint256,uint256,uint256,uint256,address,string)": "infinite",
						"approve(address,uint256)": "infinite",
						"balanceOf(address)": "2990",
						"getApproved(uint256)": "5250",
						"getHouseInfo(uint256)": "infinite",
						"houses(uint256)": "infinite",
						"isApprovedForAll(address,address)": "infinite",
						"name()": "infinite",
						"ownerOf(uint256)": "3066",
						"safeTransferFrom(address,address,uint256)": "infinite",
						"safeTransferFrom(address,address,uint256,bytes)": "infinite",
						"setApprovalForAll(address,bool)": "infinite",
						"setDelistHouse(uint256)": "24823",
						"setbuyerAddress(uint256,address)": "25067",
						"supportsInterface(bytes4)": "797",
						"symbol()": "infinite",
						"tokenURI(uint256)": "3373",
						"transferFrom(address,address,uint256)": "infinite"
					},
					"internal": {
						"_afterTokenTransfer(address,address,uint256)": "15",
						"_approve(address,uint256)": "infinite",
						"_baseURI()": "infinite",
						"_beforeTokenTransfer(address,address,uint256)": "15",
						"_burn(uint256)": "infinite",
						"_checkOnERC721Received(address,address,uint256,bytes memory)": "infinite",
						"_exists(uint256)": "2269",
						"_isApprovedOrOwner(address,uint256)": "infinite",
						"_mint(address,uint256)": "infinite",
						"_safeMint(address,uint256)": "infinite",
						"_safeMint(address,uint256,bytes memory)": "infinite",
						"_safeTransfer(address,address,uint256,bytes memory)": "infinite",
						"_setApprovalForAll(address,address,bool)": "infinite",
						"_transfer(address,address,uint256)": "infinite"
					}
				},
				"methodIdentifiers": {
					"addHouse(uint256,uint256,uint256,uint256,uint256,address,string)": "0548fa4f",
					"approve(address,uint256)": "095ea7b3",
					"balanceOf(address)": "70a08231",
					"getApproved(uint256)": "081812fc",
					"getHouseInfo(uint256)": "ad50f56d",
					"houses(uint256)": "aeda852f",
					"isApprovedForAll(address,address)": "e985e9c5",
					"name()": "06fdde03",
					"ownerOf(uint256)": "6352211e",
					"safeTransferFrom(address,address,uint256)": "42842e0e",
					"safeTransferFrom(address,address,uint256,bytes)": "b88d4fde",
					"setApprovalForAll(address,bool)": "a22cb465",
					"setDelistHouse(uint256)": "d231f142",
					"setbuyerAddress(uint256,address)": "e6cde56a",
					"supportsInterface(bytes4)": "01ffc9a7",
					"symbol()": "95d89b41",
					"tokenURI(uint256)": "c87b56dd",
					"transferFrom(address,address,uint256)": "23b872dd"
				}
			},
			"storageLayout": {
				"storage": [
					{
						"astId": 26,
						"contract": "contract/token/ERC721.sol:ERC721",
						"label": "_name",
						"offset": 0,
						"slot": "0",
						"type": "t_string_storage"
					},
					{
						"astId": 28,
						"contract": "contract/token/ERC721.sol:ERC721",
						"label": "_symbol",
						"offset": 0,
						"slot": "1",
						"type": "t_string_storage"
					},
					{
						"astId": 51,
						"contract": "contract/token/ERC721.sol:ERC721",
						"label": "_owners",
						"offset": 0,
						"slot": "2",
						"type": "t_mapping(t_uint256,t_address)"
					},
					{
						"astId": 55,
						"contract": "contract/token/ERC721.sol:ERC721",
						"label": "_balances",
						"offset": 0,
						"slot": "3",
						"type": "t_mapping(t_address,t_uint256)"
					},
					{
						"astId": 59,
						"contract": "contract/token/ERC721.sol:ERC721",
						"label": "_tokenApprovals",
						"offset": 0,
						"slot": "4",
						"type": "t_mapping(t_uint256,t_address)"
					},
					{
						"astId": 65,
						"contract": "contract/token/ERC721.sol:ERC721",
						"label": "_operatorApprovals",
						"offset": 0,
						"slot": "5",
						"type": "t_mapping(t_address,t_mapping(t_address,t_bool))"
					},
					{
						"astId": 70,
						"contract": "contract/token/ERC721.sol:ERC721",
						"label": "houses",
						"offset": 0,
						"slot": "6",
						"type": "t_mapping(t_uint256,t_struct(House)47_storage)"
					}
				],
				"types": {
					"t_address": {
						"encoding": "inplace",
						"label": "address",
						"numberOfBytes": "20"
					},
					"t_bool": {
						"encoding": "inplace",
						"label": "bool",
						"numberOfBytes": "1"
					},
					"t_mapping(t_address,t_bool)": {
						"encoding": "mapping",
						"key": "t_address",
						"label": "mapping(address => bool)",
						"numberOfBytes": "32",
						"value": "t_bool"
					},
					"t_mapping(t_address,t_mapping(t_address,t_bool))": {
						"encoding": "mapping",
						"key": "t_address",
						"label": "mapping(address => mapping(address => bool))",
						"numberOfBytes": "32",
						"value": "t_mapping(t_address,t_bool)"
					},
					"t_mapping(t_address,t_uint256)": {
						"encoding": "mapping",
						"key": "t_address",
						"label": "mapping(address => uint256)",
						"numberOfBytes": "32",
						"value": "t_uint256"
					},
					"t_mapping(t_uint256,t_address)": {
						"encoding": "mapping",
						"key": "t_uint256",
						"label": "mapping(uint256 => address)",
						"numberOfBytes": "32",
						"value": "t_address"
					},
					"t_mapping(t_uint256,t_struct(House)47_storage)": {
						"encoding": "mapping",
						"key": "t_uint256",
						"label": "mapping(uint256 => struct ERC721.House)",
						"numberOfBytes": "32",
						"value": "t_struct(House)47_storage"
					},
					"t_string_storage": {
						"encoding": "bytes",
						"label": "string",
						"numberOfBytes": "32"
					},
					"t_struct(House)47_storage": {
						"encoding": "inplace",
						"label": "struct ERC721.House",
						"members": [
							{
								"astId": 30,
								"contract": "contract/token/ERC721.sol:ERC721",
								"label": "id",
								"offset": 0,
								"slot": "0",
								"type": "t_uint256"
							},
							{
								"astId": 32,
								"contract": "contract/token/ERC721.sol:ERC721",
								"label": "serialNumber",
								"offset": 0,
								"slot": "1",
								"type": "t_uint256"
							},
							{
								"astId": 34,
								"contract": "contract/token/ERC721.sol:ERC721",
								"label": "price",
								"offset": 0,
								"slot": "2",
								"type": "t_uint256"
							},
							{
								"astId": 36,
								"contract": "contract/token/ERC721.sol:ERC721",
								"label": "priceDai",
								"offset": 0,
								"slot": "3",
								"type": "t_uint256"
							},
							{
								"astId": 38,
								"contract": "contract/token/ERC721.sol:ERC721",
								"label": "area",
								"offset": 0,
								"slot": "4",
								"type": "t_uint256"
							},
							{
								"astId": 40,
								"contract": "contract/token/ERC721.sol:ERC721",
								"label": "sellerAddress",
								"offset": 0,
								"slot": "5",
								"type": "t_address"
							},
							{
								"astId": 42,
								"contract": "contract/token/ERC721.sol:ERC721",
								"label": "buyerAddress",
								"offset": 0,
								"slot": "6",
								"type": "t_address"
							},
							{
								"astId": 44,
								"contract": "contract/token/ERC721.sol:ERC721",
								"label": "houseAddress",
								"offset": 0,
								"slot": "7",
								"type": "t_string_storage"
							},
							{
								"astId": 46,
								"contract": "contract/token/ERC721.sol:ERC721",
								"label": "isdelistedHouse",
								"offset": 0,
								"slot": "8",
								"type": "t_bool"
							}
						],
						"numberOfBytes": "288"
					},
					"t_uint256": {
						"encoding": "inplace",
						"label": "uint256",
						"numberOfBytes": "32"
					}
				}
			},
			"userdoc": {
				"kind": "user",
				"methods": {},
				"version": 1
			}
		}
	}
}