{
	"contract/token/ERC721.sol": {
		"ERC721": {
			"abi": [
				{
					"inputs": [
						{
							"internalType": "string",
							"name": "name_",
							"type": "string"
						},
						{
							"internalType": "string",
							"name": "symbol_",
							"type": "string"
						}
					],
					"stateMutability": "nonpayable",
					"type": "constructor"
				},
				{
					"anonymous": false,
					"inputs": [
						{
							"indexed": true,
							"internalType": "address",
							"name": "owner",
							"type": "address"
						},
						{
							"indexed": true,
							"internalType": "address",
							"name": "approved",
							"type": "address"
						},
						{
							"indexed": true,
							"internalType": "uint256",
							"name": "tokenId",
							"type": "uint256"
						}
					],
					"name": "Approval",
					"type": "event"
				},
				{
					"anonymous": false,
					"inputs": [
						{
							"indexed": true,
							"internalType": "address",
							"name": "owner",
							"type": "address"
						},
						{
							"indexed": true,
							"internalType": "address",
							"name": "operator",
							"type": "address"
						},
						{
							"indexed": false,
							"internalType": "bool",
							"name": "approved",
							"type": "bool"
						}
					],
					"name": "ApprovalForAll",
					"type": "event"
				},
				{
					"anonymous": false,
					"inputs": [
						{
							"indexed": true,
							"internalType": "address",
							"name": "from",
							"type": "address"
						},
						{
							"indexed": true,
							"internalType": "address",
							"name": "to",
							"type": "address"
						},
						{
							"indexed": true,
							"internalType": "uint256",
							"name": "tokenId",
							"type": "uint256"
						}
					],
					"name": "Transfer",
					"type": "event"
				},
				{
					"inputs": [
						{
							"internalType": "uint256",
							"name": "_houseId",
							"type": "uint256"
						},
						{
							"internalType": "uint256",
							"name": "_serialNumber",
							"type": "uint256"
						},
						{
							"internalType": "uint256",
							"name": "_price",
							"type": "uint256"
						},
						{
							"internalType": "uint256",
							"name": "_priceDai",
							"type": "uint256"
						},
						{
							"internalType": "uint256",
							"name": "_area",
							"type": "uint256"
						},
						{
							"internalType": "address",
							"name": "_sellerAddress",
							"type": "address"
						},
						{
							"internalType": "string",
							"name": "_houseAddress",
							"type": "string"
						}
					],
					"name": "addHouse",
					"outputs": [
						{
							"components": [
								{
									"internalType": "uint256",
									"name": "id",
									"type": "uint256"
								},
								{
									"internalType": "uint256",
									"name": "serialNumber",
									"type": "uint256"
								},
								{
									"internalType": "uint256",
									"name": "price",
									"type": "uint256"
								},
								{
									"internalType": "uint256",
									"name": "priceDai",
									"type": "uint256"
								},
								{
									"internalType": "uint256",
									"name": "area",
									"type": "uint256"
								},
								{
									"internalType": "address",
									"name": "sellerAddress",
									"type": "address"
								},
								{
									"internalType": "address",
									"name": "buyerAddress",
									"type": "address"
								},
								{
									"internalType": "string",
									"name": "houseAddress",
									"type": "string"
								},
								{
									"internalType": "bool",
									"name": "isdelistedHouse",
									"type": "bool"
								}
							],
							"internalType": "struct ERC721.House",
							"name": "",
							"type": "tuple"
						}
					],
					"stateMutability": "nonpayable",
					"type": "function"
				},
				{
					"inputs": [
						{
							"internalType": "address",
							"name": "to",
							"type": "address"
						},
						{
							"internalType": "uint256",
							"name": "tokenId",
							"type": "uint256"
						}
					],
					"name": "approve",
					"outputs": [],
					"stateMutability": "nonpayable",
					"type": "function"
				},
				{
					"inputs": [
						{
							"internalType": "address",
							"name": "owner",
							"type": "address"
						}
					],
					"name": "balanceOf",
					"outputs": [
						{
							"internalType": "uint256",
							"name": "",
							"type": "uint256"
						}
					],
					"stateMutability": "view",
					"type": "function"
				},
				{
					"inputs": [
						{
							"internalType": "uint256",
							"name": "tokenId",
							"type": "uint256"
						}
					],
					"name": "getApproved",
					"outputs": [
						{
							"internalType": "address",
							"name": "",
							"type": "address"
						}
					],
					"stateMutability": "view",
					"type": "function"
				},
				{
					"inputs": [
						{
							"internalType": "uint256",
							"name": "",
							"type": "uint256"
						}
					],
					"name": "houses",
					"outputs": [
						{
							"internalType": "uint256",
							"name": "id",
							"type": "uint256"
						},
						{
							"internalType": "uint256",
							"name": "serialNumber",
							"type": "uint256"
						},
						{
							"internalType": "uint256",
							"name": "price",
							"type": "uint256"
						},
						{
							"internalType": "uint256",
							"name": "priceDai",
							"type": "uint256"
						},
						{
							"internalType": "uint256",
							"name": "area",
							"type": "uint256"
						},
						{
							"internalType": "address",
							"name": "sellerAddress",
							"type": "address"
						},
						{
							"internalType": "address",
							"name": "buyerAddress",
							"type": "address"
						},
						{
							"internalType": "string",
							"name": "houseAddress",
							"type": "string"
						},
						{
							"internalType": "bool",
							"name": "isdelistedHouse",
							"type": "bool"
						}
					],
					"stateMutability": "view",
					"type": "function"
				},
				{
					"inputs": [
						{
							"internalType": "address",
							"name": "owner",
							"type": "address"
						},
						{
							"internalType": "address",
							"name": "operator",
							"type": "address"
						}
					],
					"name": "isApprovedForAll",
					"outputs": [
						{
							"internalType": "bool",
							"name": "",
							"type": "bool"
						}
					],
					"stateMutability": "view",
					"type": "function"
				},
				{
					"inputs": [],
					"name": "name",
					"outputs": [
						{
							"internalType": "string",
							"name": "",
							"type": "string"
						}
					],
					"stateMutability": "view",
					"type": "function"
				},
				{
					"inputs": [
						{
							"internalType": "uint256",
							"name": "tokenId",
							"type": "uint256"
						}
					],
					"name": "ownerOf",
					"outputs": [
						{
							"internalType": "address",
							"name": "",
							"type": "address"
						}
					],
					"stateMutability": "view",
					"type": "function"
				},
				{
					"inputs": [
						{
							"internalType": "address",
							"name": "from",
							"type": "address"
						},
						{
							"internalType": "address",
							"name": "to",
							"type": "address"
						},
						{
							"internalType": "uint256",
							"name": "tokenId",
							"type": "uint256"
						}
					],
					"name": "safeTransferFrom",
					"outputs": [],
					"stateMutability": "nonpayable",
					"type": "function"
				},
				{
					"inputs": [
						{
							"internalType": "address",
							"name": "from",
							"type": "address"
						},
						{
							"internalType": "address",
							"name": "to",
							"type": "address"
						},
						{
							"internalType": "uint256",
							"name": "tokenId",
							"type": "uint256"
						},
						{
							"internalType": "bytes",
							"name": "data",
							"type": "bytes"
						}
					],
					"name": "safeTransferFrom",
					"outputs": [],
					"stateMutability": "nonpayable",
					"type": "function"
				},
				{
					"inputs": [
						{
							"internalType": "address",
							"name": "operator",
							"type": "address"
						},
						{
							"internalType": "bool",
							"name": "approved",
							"type": "bool"
						}
					],
					"name": "setApprovalForAll",
					"outputs": [],
					"stateMutability": "nonpayable",
					"type": "function"
				},
				{
					"inputs": [
						{
							"internalType": "bytes4",
							"name": "interfaceId",
							"type": "bytes4"
						}
					],
					"name": "supportsInterface",
					"outputs": [
						{
							"internalType": "bool",
							"name": "",
							"type": "bool"
						}
					],
					"stateMutability": "view",
					"type": "function"
				},
				{
					"inputs": [],
					"name": "symbol",
					"outputs": [
						{
							"internalType": "string",
							"name": "",
							"type": "string"
						}
					],
					"stateMutability": "view",
					"type": "function"
				},
				{
					"inputs": [
						{
							"internalType": "uint256",
							"name": "tokenId",
							"type": "uint256"
						}
					],
					"name": "tokenURI",
					"outputs": [
						{
							"internalType": "string",
							"name": "",
							"type": "string"
						}
					],
					"stateMutability": "view",
					"type": "function"
				},
				{
					"inputs": [
						{
							"internalType": "address",
							"name": "from",
							"type": "address"
						},
						{
							"internalType": "address",
							"name": "to",
							"type": "address"
						},
						{
							"internalType": "uint256",
							"name": "tokenId",
							"type": "uint256"
						}
					],
					"name": "transferFrom",
					"outputs": [],
					"stateMutability": "nonpayable",
					"type": "function"
				}
			],
			"devdoc": {
				"details": "Implementation of https://eips.ethereum.org/EIPS/eip-721[ERC721] Non-Fungible Token Standard, including the Metadata extension, but not including the Enumerable extension, which is available separately as {ERC721Enumerable}.",
				"kind": "dev",
				"methods": {
					"approve(address,uint256)": {
						"details": "See {IERC721-approve}."
					},
					"balanceOf(address)": {
						"details": "See {IERC721-balanceOf}."
					},
					"constructor": {
						"details": "Initializes the contract by setting a `name` and a `symbol` to the token collection."
					},
					"getApproved(uint256)": {
						"details": "See {IERC721-getApproved}."
					},
					"isApprovedForAll(address,address)": {
						"details": "See {IERC721-isApprovedForAll}."
					},
					"name()": {
						"details": "See {IERC721Metadata-name}."
					},
					"ownerOf(uint256)": {
						"details": "See {IERC721-ownerOf}."
					},
					"safeTransferFrom(address,address,uint256)": {
						"details": "See {IERC721-safeTransferFrom}."
					},
					"safeTransferFrom(address,address,uint256,bytes)": {
						"details": "See {IERC721-safeTransferFrom}."
					},
					"setApprovalForAll(address,bool)": {
						"details": "See {IERC721-setApprovalForAll}."
					},
					"supportsInterface(bytes4)": {
						"details": "See {IERC165-supportsInterface}."
					},
					"symbol()": {
						"details": "See {IERC721Metadata-symbol}."
					},
					"tokenURI(uint256)": {
						"details": "See {IERC721Metadata-tokenURI}."
					},
					"transferFrom(address,address,uint256)": {
						"details": "See {IERC721-transferFrom}."
					}
				},
				"version": 1
			},
			"evm": {
				"assembly": "    /* \"contract/token/ERC721.sol\":674:15512  contract ERC721 is Context, ERC165, IERC721, IERC721Metadata {\r... */\n  mstore(0x40, 0x80)\n    /* \"contract/token/ERC721.sol\":1769:1889  constructor(string memory name_, string memory symbol_) {\r... */\n  callvalue\n  dup1\n  iszero\n  tag_1\n  jumpi\n  0x00\n  dup1\n  revert\ntag_1:\n  pop\n  mload(0x40)\n  sub(codesize, bytecodeSize)\n  dup1\n  bytecodeSize\n  dup4\n  codecopy\n  dup2\n  dup2\n  add\n  0x40\n  mstore\n  dup2\n  add\n  swap1\n  tag_2\n  swap2\n  swap1\n  tag_3\n  jump\t// in\ntag_2:\n    /* \"contract/token/ERC721.sol\":1844:1849  name_ */\n  dup2\n    /* \"contract/token/ERC721.sol\":1836:1841  _name */\n  0x00\n    /* \"contract/token/ERC721.sol\":1836:1849  _name = name_ */\n  swap1\n  dup1\n  mload\n  swap1\n  0x20\n  add\n  swap1\n  tag_6\n  swap3\n  swap2\n  swap1\n  tag_7\n  jump\t// in\ntag_6:\n  pop\n    /* \"contract/token/ERC721.sol\":1870:1877  symbol_ */\n  dup1\n    /* \"contract/token/ERC721.sol\":1860:1867  _symbol */\n  0x01\n    /* \"contract/token/ERC721.sol\":1860:1877  _symbol = symbol_ */\n  swap1\n  dup1\n  mload\n  swap1\n  0x20\n  add\n  swap1\n  tag_8\n  swap3\n  swap2\n  swap1\n  tag_7\n  jump\t// in\ntag_8:\n  pop\n    /* \"contract/token/ERC721.sol\":1769:1889  constructor(string memory name_, string memory symbol_) {\r... */\n  pop\n  pop\n    /* \"contract/token/ERC721.sol\":674:15512  contract ERC721 is Context, ERC165, IERC721, IERC721Metadata {\r... */\n  jump(tag_9)\ntag_7:\n  dup3\n  dup1\n  sload\n  tag_10\n  swap1\n  tag_11\n  jump\t// in\ntag_10:\n  swap1\n  0x00\n  mstore\n  keccak256(0x00, 0x20)\n  swap1\n  0x1f\n  add\n  0x20\n  swap1\n  div\n  dup2\n  add\n  swap3\n  dup3\n  tag_13\n  jumpi\n  0x00\n  dup6\n  sstore\n  jump(tag_12)\ntag_13:\n  dup3\n  0x1f\n  lt\n  tag_14\n  jumpi\n  dup1\n  mload\n  not(0xff)\n  and\n  dup4\n  dup1\n  add\n  or\n  dup6\n  sstore\n  jump(tag_12)\ntag_14:\n  dup3\n  dup1\n  add\n  0x01\n  add\n  dup6\n  sstore\n  dup3\n  iszero\n  tag_12\n  jumpi\n  swap2\n  dup3\n  add\ntag_15:\n  dup3\n  dup2\n  gt\n  iszero\n  tag_16\n  jumpi\n  dup3\n  mload\n  dup3\n  sstore\n  swap2\n  0x20\n  add\n  swap2\n  swap1\n  0x01\n  add\n  swap1\n  jump(tag_15)\ntag_16:\ntag_12:\n  pop\n  swap1\n  pop\n  tag_17\n  swap2\n  swap1\n  tag_18\n  jump\t// in\ntag_17:\n  pop\n  swap1\n  jump\t// out\ntag_18:\ntag_19:\n  dup1\n  dup3\n  gt\n  iszero\n  tag_20\n  jumpi\n  0x00\n  dup2\n  0x00\n  swap1\n  sstore\n  pop\n  0x01\n  add\n  jump(tag_19)\ntag_20:\n  pop\n  swap1\n  jump\t// out\n    /* \"#utility.yul\":7:428   */\ntag_22:\n    /* \"#utility.yul\":96:101   */\n  0x00\n    /* \"#utility.yul\":121:187   */\n  tag_24\n    /* \"#utility.yul\":137:186   */\n  tag_25\n    /* \"#utility.yul\":179:185   */\n  dup5\n    /* \"#utility.yul\":137:186   */\n  tag_26\n  jump\t// in\ntag_25:\n    /* \"#utility.yul\":121:187   */\n  tag_27\n  jump\t// in\ntag_24:\n    /* \"#utility.yul\":112:187   */\n  swap1\n  pop\n    /* \"#utility.yul\":210:216   */\n  dup3\n    /* \"#utility.yul\":203:208   */\n  dup2\n    /* \"#utility.yul\":196:217   */\n  mstore\n    /* \"#utility.yul\":248:252   */\n  0x20\n    /* \"#utility.yul\":241:246   */\n  dup2\n    /* \"#utility.yul\":237:253   */\n  add\n    /* \"#utility.yul\":286:289   */\n  dup5\n    /* \"#utility.yul\":277:283   */\n  dup5\n    /* \"#utility.yul\":272:275   */\n  dup5\n    /* \"#utility.yul\":268:284   */\n  add\n    /* \"#utility.yul\":265:290   */\n  gt\n    /* \"#utility.yul\":262:374   */\n  iszero\n  tag_28\n  jumpi\n    /* \"#utility.yul\":293:372   */\n  tag_29\n  tag_30\n  jump\t// in\ntag_29:\n    /* \"#utility.yul\":262:374   */\ntag_28:\n    /* \"#utility.yul\":383:422   */\n  tag_31\n    /* \"#utility.yul\":415:421   */\n  dup5\n    /* \"#utility.yul\":410:413   */\n  dup3\n    /* \"#utility.yul\":405:408   */\n  dup6\n    /* \"#utility.yul\":383:422   */\n  tag_32\n  jump\t// in\ntag_31:\n    /* \"#utility.yul\":102:428   */\n  pop\n    /* \"#utility.yul\":7:428   */\n  swap4\n  swap3\n  pop\n  pop\n  pop\n  jump\t// out\n    /* \"#utility.yul\":448:803   */\ntag_33:\n    /* \"#utility.yul\":515:520   */\n  0x00\n    /* \"#utility.yul\":564:567   */\n  dup3\n    /* \"#utility.yul\":557:561   */\n  0x1f\n    /* \"#utility.yul\":549:555   */\n  dup4\n    /* \"#utility.yul\":545:562   */\n  add\n    /* \"#utility.yul\":541:568   */\n  slt\n    /* \"#utility.yul\":531:653   */\n  tag_35\n  jumpi\n    /* \"#utility.yul\":572:651   */\n  tag_36\n  tag_37\n  jump\t// in\ntag_36:\n    /* \"#utility.yul\":531:653   */\ntag_35:\n    /* \"#utility.yul\":682:688   */\n  dup2\n    /* \"#utility.yul\":676:689   */\n  mload\n    /* \"#utility.yul\":707:797   */\n  tag_38\n    /* \"#utility.yul\":793:796   */\n  dup5\n    /* \"#utility.yul\":785:791   */\n  dup3\n    /* \"#utility.yul\":778:782   */\n  0x20\n    /* \"#utility.yul\":770:776   */\n  dup7\n    /* \"#utility.yul\":766:783   */\n  add\n    /* \"#utility.yul\":707:797   */\n  tag_22\n  jump\t// in\ntag_38:\n    /* \"#utility.yul\":698:797   */\n  swap2\n  pop\n    /* \"#utility.yul\":521:803   */\n  pop\n    /* \"#utility.yul\":448:803   */\n  swap3\n  swap2\n  pop\n  pop\n  jump\t// out\n    /* \"#utility.yul\":809:1662   */\ntag_3:\n    /* \"#utility.yul\":908:914   */\n  0x00\n    /* \"#utility.yul\":916:922   */\n  dup1\n    /* \"#utility.yul\":965:967   */\n  0x40\n    /* \"#utility.yul\":953:962   */\n  dup4\n    /* \"#utility.yul\":944:951   */\n  dup6\n    /* \"#utility.yul\":940:963   */\n  sub\n    /* \"#utility.yul\":936:968   */\n  slt\n    /* \"#utility.yul\":933:1052   */\n  iszero\n  tag_40\n  jumpi\n    /* \"#utility.yul\":971:1050   */\n  tag_41\n  tag_42\n  jump\t// in\ntag_41:\n    /* \"#utility.yul\":933:1052   */\ntag_40:\n    /* \"#utility.yul\":1112:1113   */\n  0x00\n    /* \"#utility.yul\":1101:1110   */\n  dup4\n    /* \"#utility.yul\":1097:1114   */\n  add\n    /* \"#utility.yul\":1091:1115   */\n  mload\n    /* \"#utility.yul\":1142:1160   */\n  0xffffffffffffffff\n    /* \"#utility.yul\":1134:1140   */\n  dup2\n    /* \"#utility.yul\":1131:1161   */\n  gt\n    /* \"#utility.yul\":1128:1245   */\n  iszero\n  tag_43\n  jumpi\n    /* \"#utility.yul\":1164:1243   */\n  tag_44\n  tag_45\n  jump\t// in\ntag_44:\n    /* \"#utility.yul\":1128:1245   */\ntag_43:\n    /* \"#utility.yul\":1269:1343   */\n  tag_46\n    /* \"#utility.yul\":1335:1342   */\n  dup6\n    /* \"#utility.yul\":1326:1332   */\n  dup3\n    /* \"#utility.yul\":1315:1324   */\n  dup7\n    /* \"#utility.yul\":1311:1333   */\n  add\n    /* \"#utility.yul\":1269:1343   */\n  tag_33\n  jump\t// in\ntag_46:\n    /* \"#utility.yul\":1259:1343   */\n  swap3\n  pop\n    /* \"#utility.yul\":1062:1353   */\n  pop\n    /* \"#utility.yul\":1413:1415   */\n  0x20\n    /* \"#utility.yul\":1402:1411   */\n  dup4\n    /* \"#utility.yul\":1398:1416   */\n  add\n    /* \"#utility.yul\":1392:1417   */\n  mload\n    /* \"#utility.yul\":1444:1462   */\n  0xffffffffffffffff\n    /* \"#utility.yul\":1436:1442   */\n  dup2\n    /* \"#utility.yul\":1433:1463   */\n  gt\n    /* \"#utility.yul\":1430:1547   */\n  iszero\n  tag_47\n  jumpi\n    /* \"#utility.yul\":1466:1545   */\n  tag_48\n  tag_45\n  jump\t// in\ntag_48:\n    /* \"#utility.yul\":1430:1547   */\ntag_47:\n    /* \"#utility.yul\":1571:1645   */\n  tag_49\n    /* \"#utility.yul\":1637:1644   */\n  dup6\n    /* \"#utility.yul\":1628:1634   */\n  dup3\n    /* \"#utility.yul\":1617:1626   */\n  dup7\n    /* \"#utility.yul\":1613:1635   */\n  add\n    /* \"#utility.yul\":1571:1645   */\n  tag_33\n  jump\t// in\ntag_49:\n    /* \"#utility.yul\":1561:1645   */\n  swap2\n  pop\n    /* \"#utility.yul\":1363:1655   */\n  pop\n    /* \"#utility.yul\":809:1662   */\n  swap3\n  pop\n  swap3\n  swap1\n  pop\n  jump\t// out\n    /* \"#utility.yul\":1668:1797   */\ntag_27:\n    /* \"#utility.yul\":1702:1708   */\n  0x00\n    /* \"#utility.yul\":1729:1749   */\n  tag_51\n  tag_52\n  jump\t// in\ntag_51:\n    /* \"#utility.yul\":1719:1749   */\n  swap1\n  pop\n    /* \"#utility.yul\":1758:1791   */\n  tag_53\n    /* \"#utility.yul\":1786:1790   */\n  dup3\n    /* \"#utility.yul\":1778:1784   */\n  dup3\n    /* \"#utility.yul\":1758:1791   */\n  tag_54\n  jump\t// in\ntag_53:\n    /* \"#utility.yul\":1668:1797   */\n  swap2\n  swap1\n  pop\n  jump\t// out\n    /* \"#utility.yul\":1803:1878   */\ntag_52:\n    /* \"#utility.yul\":1836:1842   */\n  0x00\n    /* \"#utility.yul\":1869:1871   */\n  0x40\n    /* \"#utility.yul\":1863:1872   */\n  mload\n    /* \"#utility.yul\":1853:1872   */\n  swap1\n  pop\n    /* \"#utility.yul\":1803:1878   */\n  swap1\n  jump\t// out\n    /* \"#utility.yul\":1884:2192   */\ntag_26:\n    /* \"#utility.yul\":1946:1950   */\n  0x00\n    /* \"#utility.yul\":2036:2054   */\n  0xffffffffffffffff\n    /* \"#utility.yul\":2028:2034   */\n  dup3\n    /* \"#utility.yul\":2025:2055   */\n  gt\n    /* \"#utility.yul\":2022:2078   */\n  iszero\n  tag_57\n  jumpi\n    /* \"#utility.yul\":2058:2076   */\n  tag_58\n  tag_59\n  jump\t// in\ntag_58:\n    /* \"#utility.yul\":2022:2078   */\ntag_57:\n    /* \"#utility.yul\":2096:2125   */\n  tag_60\n    /* \"#utility.yul\":2118:2124   */\n  dup3\n    /* \"#utility.yul\":2096:2125   */\n  tag_61\n  jump\t// in\ntag_60:\n    /* \"#utility.yul\":2088:2125   */\n  swap1\n  pop\n    /* \"#utility.yul\":2180:2184   */\n  0x20\n    /* \"#utility.yul\":2174:2178   */\n  dup2\n    /* \"#utility.yul\":2170:2185   */\n  add\n    /* \"#utility.yul\":2162:2185   */\n  swap1\n  pop\n    /* \"#utility.yul\":1884:2192   */\n  swap2\n  swap1\n  pop\n  jump\t// out\n    /* \"#utility.yul\":2198:2505   */\ntag_32:\n    /* \"#utility.yul\":2266:2267   */\n  0x00\n    /* \"#utility.yul\":2276:2389   */\ntag_63:\n    /* \"#utility.yul\":2290:2296   */\n  dup4\n    /* \"#utility.yul\":2287:2288   */\n  dup2\n    /* \"#utility.yul\":2284:2297   */\n  lt\n    /* \"#utility.yul\":2276:2389   */\n  iszero\n  tag_65\n  jumpi\n    /* \"#utility.yul\":2375:2376   */\n  dup1\n    /* \"#utility.yul\":2370:2373   */\n  dup3\n    /* \"#utility.yul\":2366:2377   */\n  add\n    /* \"#utility.yul\":2360:2378   */\n  mload\n    /* \"#utility.yul\":2356:2357   */\n  dup2\n    /* \"#utility.yul\":2351:2354   */\n  dup5\n    /* \"#utility.yul\":2347:2358   */\n  add\n    /* \"#utility.yul\":2340:2379   */\n  mstore\n    /* \"#utility.yul\":2312:2314   */\n  0x20\n    /* \"#utility.yul\":2309:2310   */\n  dup2\n    /* \"#utility.yul\":2305:2315   */\n  add\n    /* \"#utility.yul\":2300:2315   */\n  swap1\n  pop\n    /* \"#utility.yul\":2276:2389   */\n  jump(tag_63)\ntag_65:\n    /* \"#utility.yul\":2407:2413   */\n  dup4\n    /* \"#utility.yul\":2404:2405   */\n  dup2\n    /* \"#utility.yul\":2401:2414   */\n  gt\n    /* \"#utility.yul\":2398:2499   */\n  iszero\n  tag_66\n  jumpi\n    /* \"#utility.yul\":2487:2488   */\n  0x00\n    /* \"#utility.yul\":2478:2484   */\n  dup5\n    /* \"#utility.yul\":2473:2476   */\n  dup5\n    /* \"#utility.yul\":2469:2485   */\n  add\n    /* \"#utility.yul\":2462:2489   */\n  mstore\n    /* \"#utility.yul\":2398:2499   */\ntag_66:\n    /* \"#utility.yul\":2247:2505   */\n  pop\n    /* \"#utility.yul\":2198:2505   */\n  pop\n  pop\n  pop\n  jump\t// out\n    /* \"#utility.yul\":2511:2831   */\ntag_11:\n    /* \"#utility.yul\":2555:2561   */\n  0x00\n    /* \"#utility.yul\":2592:2593   */\n  0x02\n    /* \"#utility.yul\":2586:2590   */\n  dup3\n    /* \"#utility.yul\":2582:2594   */\n  div\n    /* \"#utility.yul\":2572:2594   */\n  swap1\n  pop\n    /* \"#utility.yul\":2639:2640   */\n  0x01\n    /* \"#utility.yul\":2633:2637   */\n  dup3\n    /* \"#utility.yul\":2629:2641   */\n  and\n    /* \"#utility.yul\":2660:2678   */\n  dup1\n    /* \"#utility.yul\":2650:2731   */\n  tag_68\n  jumpi\n    /* \"#utility.yul\":2716:2720   */\n  0x7f\n    /* \"#utility.yul\":2708:2714   */\n  dup3\n    /* \"#utility.yul\":2704:2721   */\n  and\n    /* \"#utility.yul\":2694:2721   */\n  swap2\n  pop\n    /* \"#utility.yul\":2650:2731   */\ntag_68:\n    /* \"#utility.yul\":2778:2780   */\n  0x20\n    /* \"#utility.yul\":2770:2776   */\n  dup3\n    /* \"#utility.yul\":2767:2781   */\n  lt\n    /* \"#utility.yul\":2747:2765   */\n  dup2\n    /* \"#utility.yul\":2744:2782   */\n  eq\n    /* \"#utility.yul\":2741:2825   */\n  iszero\n  tag_69\n  jumpi\n    /* \"#utility.yul\":2797:2815   */\n  tag_70\n  tag_71\n  jump\t// in\ntag_70:\n    /* \"#utility.yul\":2741:2825   */\ntag_69:\n    /* \"#utility.yul\":2562:2831   */\n  pop\n    /* \"#utility.yul\":2511:2831   */\n  swap2\n  swap1\n  pop\n  jump\t// out\n    /* \"#utility.yul\":2837:3118   */\ntag_54:\n    /* \"#utility.yul\":2920:2947   */\n  tag_73\n    /* \"#utility.yul\":2942:2946   */\n  dup3\n    /* \"#utility.yul\":2920:2947   */\n  tag_61\n  jump\t// in\ntag_73:\n    /* \"#utility.yul\":2912:2918   */\n  dup2\n    /* \"#utility.yul\":2908:2948   */\n  add\n    /* \"#utility.yul\":3050:3056   */\n  dup2\n    /* \"#utility.yul\":3038:3048   */\n  dup2\n    /* \"#utility.yul\":3035:3057   */\n  lt\n    /* \"#utility.yul\":3014:3032   */\n  0xffffffffffffffff\n    /* \"#utility.yul\":3002:3012   */\n  dup3\n    /* \"#utility.yul\":2999:3033   */\n  gt\n    /* \"#utility.yul\":2996:3058   */\n  or\n    /* \"#utility.yul\":2993:3081   */\n  iszero\n  tag_74\n  jumpi\n    /* \"#utility.yul\":3061:3079   */\n  tag_75\n  tag_59\n  jump\t// in\ntag_75:\n    /* \"#utility.yul\":2993:3081   */\ntag_74:\n    /* \"#utility.yul\":3101:3111   */\n  dup1\n    /* \"#utility.yul\":3097:3099   */\n  0x40\n    /* \"#utility.yul\":3090:3112   */\n  mstore\n    /* \"#utility.yul\":2880:3118   */\n  pop\n    /* \"#utility.yul\":2837:3118   */\n  pop\n  pop\n  jump\t// out\n    /* \"#utility.yul\":3124:3304   */\ntag_71:\n    /* \"#utility.yul\":3172:3249   */\n  0x4e487b7100000000000000000000000000000000000000000000000000000000\n    /* \"#utility.yul\":3169:3170   */\n  0x00\n    /* \"#utility.yul\":3162:3250   */\n  mstore\n    /* \"#utility.yul\":3269:3273   */\n  0x22\n    /* \"#utility.yul\":3266:3267   */\n  0x04\n    /* \"#utility.yul\":3259:3274   */\n  mstore\n    /* \"#utility.yul\":3293:3297   */\n  0x24\n    /* \"#utility.yul\":3290:3291   */\n  0x00\n    /* \"#utility.yul\":3283:3298   */\n  revert\n    /* \"#utility.yul\":3310:3490   */\ntag_59:\n    /* \"#utility.yul\":3358:3435   */\n  0x4e487b7100000000000000000000000000000000000000000000000000000000\n    /* \"#utility.yul\":3355:3356   */\n  0x00\n    /* \"#utility.yul\":3348:3436   */\n  mstore\n    /* \"#utility.yul\":3455:3459   */\n  0x41\n    /* \"#utility.yul\":3452:3453   */\n  0x04\n    /* \"#utility.yul\":3445:3460   */\n  mstore\n    /* \"#utility.yul\":3479:3483   */\n  0x24\n    /* \"#utility.yul\":3476:3477   */\n  0x00\n    /* \"#utility.yul\":3469:3484   */\n  revert\n    /* \"#utility.yul\":3496:3613   */\ntag_37:\n    /* \"#utility.yul\":3605:3606   */\n  0x00\n    /* \"#utility.yul\":3602:3603   */\n  dup1\n    /* \"#utility.yul\":3595:3607   */\n  revert\n    /* \"#utility.yul\":3619:3736   */\ntag_30:\n    /* \"#utility.yul\":3728:3729   */\n  0x00\n    /* \"#utility.yul\":3725:3726   */\n  dup1\n    /* \"#utility.yul\":3718:3730   */\n  revert\n    /* \"#utility.yul\":3742:3859   */\ntag_45:\n    /* \"#utility.yul\":3851:3852   */\n  0x00\n    /* \"#utility.yul\":3848:3849   */\n  dup1\n    /* \"#utility.yul\":3841:3853   */\n  revert\n    /* \"#utility.yul\":3865:3982   */\ntag_42:\n    /* \"#utility.yul\":3974:3975   */\n  0x00\n    /* \"#utility.yul\":3971:3972   */\n  dup1\n    /* \"#utility.yul\":3964:3976   */\n  revert\n    /* \"#utility.yul\":3988:4090   */\ntag_61:\n    /* \"#utility.yul\":4029:4035   */\n  0x00\n    /* \"#utility.yul\":4080:4082   */\n  0x1f\n    /* \"#utility.yul\":4076:4083   */\n  not\n    /* \"#utility.yul\":4071:4073   */\n  0x1f\n    /* \"#utility.yul\":4064:4069   */\n  dup4\n    /* \"#utility.yul\":4060:4074   */\n  add\n    /* \"#utility.yul\":4056:4084   */\n  and\n    /* \"#utility.yul\":4046:4084   */\n  swap1\n  pop\n    /* \"#utility.yul\":3988:4090   */\n  swap2\n  swap1\n  pop\n  jump\t// out\n    /* \"contract/token/ERC721.sol\":674:15512  contract ERC721 is Context, ERC165, IERC721, IERC721Metadata {\r... */\ntag_9:\n  dataSize(sub_0)\n  dup1\n  dataOffset(sub_0)\n  0x00\n  codecopy\n  0x00\n  return\nstop\n\nsub_0: assembly {\n        /* \"contract/token/ERC721.sol\":674:15512  contract ERC721 is Context, ERC165, IERC721, IERC721Metadata {\r... */\n      mstore(0x40, 0x80)\n      callvalue\n      dup1\n      iszero\n      tag_1\n      jumpi\n      0x00\n      dup1\n      revert\n    tag_1:\n      pop\n      jumpi(tag_2, lt(calldatasize, 0x04))\n      shr(0xe0, calldataload(0x00))\n      dup1\n      0x6352211e\n      gt\n      tag_18\n      jumpi\n      dup1\n      0xaeda852f\n      gt\n      tag_19\n      jumpi\n      dup1\n      0xaeda852f\n      eq\n      tag_14\n      jumpi\n      dup1\n      0xb88d4fde\n      eq\n      tag_15\n      jumpi\n      dup1\n      0xc87b56dd\n      eq\n      tag_16\n      jumpi\n      dup1\n      0xe985e9c5\n      eq\n      tag_17\n      jumpi\n      jump(tag_2)\n    tag_19:\n      dup1\n      0x6352211e\n      eq\n      tag_10\n      jumpi\n      dup1\n      0x70a08231\n      eq\n      tag_11\n      jumpi\n      dup1\n      0x95d89b41\n      eq\n      tag_12\n      jumpi\n      dup1\n      0xa22cb465\n      eq\n      tag_13\n      jumpi\n      jump(tag_2)\n    tag_18:\n      dup1\n      0x081812fc\n      gt\n      tag_20\n      jumpi\n      dup1\n      0x081812fc\n      eq\n      tag_6\n      jumpi\n      dup1\n      0x095ea7b3\n      eq\n      tag_7\n      jumpi\n      dup1\n      0x23b872dd\n      eq\n      tag_8\n      jumpi\n      dup1\n      0x42842e0e\n      eq\n      tag_9\n      jumpi\n      jump(tag_2)\n    tag_20:\n      dup1\n      0x01ffc9a7\n      eq\n      tag_3\n      jumpi\n      dup1\n      0x0548fa4f\n      eq\n      tag_4\n      jumpi\n      dup1\n      0x06fdde03\n      eq\n      tag_5\n      jumpi\n    tag_2:\n      0x00\n      dup1\n      revert\n        /* \"contract/token/ERC721.sol\":2412:2717  function supportsInterface(bytes4 interfaceId) public view virtual override(ERC165, IERC165) returns (bool) {\r... */\n    tag_3:\n      tag_21\n      0x04\n      dup1\n      calldatasize\n      sub\n      dup2\n      add\n      swap1\n      tag_22\n      swap2\n      swap1\n      tag_23\n      jump\t// in\n    tag_22:\n      tag_24\n      jump\t// in\n    tag_21:\n      mload(0x40)\n      tag_25\n      swap2\n      swap1\n      tag_26\n      jump\t// in\n    tag_25:\n      mload(0x40)\n      dup1\n      swap2\n      sub\n      swap1\n      return\n        /* \"contract/token/ERC721.sol\":1899:2340  function addHouse(uint _houseId, uint _serialNumber, uint _price, uint _priceDai, uint _area, address _sellerAddress, string memory _houseAddress) external returns(House memory){\r... */\n    tag_4:\n      tag_27\n      0x04\n      dup1\n      calldatasize\n      sub\n      dup2\n      add\n      swap1\n      tag_28\n      swap2\n      swap1\n      tag_29\n      jump\t// in\n    tag_28:\n      tag_30\n      jump\t// in\n    tag_27:\n      mload(0x40)\n      tag_31\n      swap2\n      swap1\n      tag_32\n      jump\t// in\n    tag_31:\n      mload(0x40)\n      dup1\n      swap2\n      sub\n      swap1\n      return\n        /* \"contract/token/ERC721.sol\":3356:3456  function name() public view virtual override returns (string memory) {\r... */\n    tag_5:\n      tag_33\n      tag_34\n      jump\t// in\n    tag_33:\n      mload(0x40)\n      tag_35\n      swap2\n      swap1\n      tag_36\n      jump\t// in\n    tag_35:\n      mload(0x40)\n      dup1\n      swap2\n      sub\n      swap1\n      return\n        /* \"contract/token/ERC721.sol\":4916:5137  function getApproved(uint256 tokenId) public view virtual override returns (address) {\r... */\n    tag_6:\n      tag_37\n      0x04\n      dup1\n      calldatasize\n      sub\n      dup2\n      add\n      swap1\n      tag_38\n      swap2\n      swap1\n      tag_39\n      jump\t// in\n    tag_38:\n      tag_40\n      jump\t// in\n    tag_37:\n      mload(0x40)\n      tag_41\n      swap2\n      swap1\n      tag_42\n      jump\t// in\n    tag_41:\n      mload(0x40)\n      dup1\n      swap2\n      sub\n      swap1\n      return\n        /* \"contract/token/ERC721.sol\":4439:4850  function approve(address to, uint256 tokenId) public virtual override {\r... */\n    tag_7:\n      tag_43\n      0x04\n      dup1\n      calldatasize\n      sub\n      dup2\n      add\n      swap1\n      tag_44\n      swap2\n      swap1\n      tag_45\n      jump\t// in\n    tag_44:\n      tag_46\n      jump\t// in\n    tag_43:\n      stop\n        /* \"contract/token/ERC721.sol\":5666:6005  function transferFrom(\r... */\n    tag_8:\n      tag_47\n      0x04\n      dup1\n      calldatasize\n      sub\n      dup2\n      add\n      swap1\n      tag_48\n      swap2\n      swap1\n      tag_49\n      jump\t// in\n    tag_48:\n      tag_50\n      jump\t// in\n    tag_47:\n      stop\n        /* \"contract/token/ERC721.sol\":6076:6261  function safeTransferFrom(\r... */\n    tag_9:\n      tag_51\n      0x04\n      dup1\n      calldatasize\n      sub\n      dup2\n      add\n      swap1\n      tag_52\n      swap2\n      swap1\n      tag_49\n      jump\t// in\n    tag_52:\n      tag_53\n      jump\t// in\n    tag_51:\n      stop\n        /* \"contract/token/ERC721.sol\":3050:3289  function ownerOf(uint256 tokenId) public view virtual override returns (address) {\r... */\n    tag_10:\n      tag_54\n      0x04\n      dup1\n      calldatasize\n      sub\n      dup2\n      add\n      swap1\n      tag_55\n      swap2\n      swap1\n      tag_39\n      jump\t// in\n    tag_55:\n      tag_56\n      jump\t// in\n    tag_54:\n      mload(0x40)\n      tag_57\n      swap2\n      swap1\n      tag_42\n      jump\t// in\n    tag_57:\n      mload(0x40)\n      dup1\n      swap2\n      sub\n      swap1\n      return\n        /* \"contract/token/ERC721.sol\":2781:2988  function balanceOf(address owner) public view virtual override returns (uint256) {\r... */\n    tag_11:\n      tag_58\n      0x04\n      dup1\n      calldatasize\n      sub\n      dup2\n      add\n      swap1\n      tag_59\n      swap2\n      swap1\n      tag_60\n      jump\t// in\n    tag_59:\n      tag_61\n      jump\t// in\n    tag_58:\n      mload(0x40)\n      tag_62\n      swap2\n      swap1\n      tag_63\n      jump\t// in\n    tag_62:\n      mload(0x40)\n      dup1\n      swap2\n      sub\n      swap1\n      return\n        /* \"contract/token/ERC721.sol\":3525:3629  function symbol() public view virtual override returns (string memory) {\r... */\n    tag_12:\n      tag_64\n      tag_65\n      jump\t// in\n    tag_64:\n      mload(0x40)\n      tag_66\n      swap2\n      swap1\n      tag_36\n      jump\t// in\n    tag_66:\n      mload(0x40)\n      dup1\n      swap2\n      sub\n      swap1\n      return\n        /* \"contract/token/ERC721.sol\":5209:5364  function setApprovalForAll(address operator, bool approved) public virtual override {\r... */\n    tag_13:\n      tag_67\n      0x04\n      dup1\n      calldatasize\n      sub\n      dup2\n      add\n      swap1\n      tag_68\n      swap2\n      swap1\n      tag_69\n      jump\t// in\n    tag_68:\n      tag_70\n      jump\t// in\n    tag_67:\n      stop\n        /* \"contract/token/ERC721.sol\":1608:1644  mapping(uint => House) public houses */\n    tag_14:\n      tag_71\n      0x04\n      dup1\n      calldatasize\n      sub\n      dup2\n      add\n      swap1\n      tag_72\n      swap2\n      swap1\n      tag_39\n      jump\t// in\n    tag_72:\n      tag_73\n      jump\t// in\n    tag_71:\n      mload(0x40)\n      tag_74\n      swap10\n      swap9\n      swap8\n      swap7\n      swap6\n      swap5\n      swap4\n      swap3\n      swap2\n      swap1\n      tag_75\n      jump\t// in\n    tag_74:\n      mload(0x40)\n      dup1\n      swap2\n      sub\n      swap1\n      return\n        /* \"contract/token/ERC721.sol\":6332:6658  function safeTransferFrom(\r... */\n    tag_15:\n      tag_76\n      0x04\n      dup1\n      calldatasize\n      sub\n      dup2\n      add\n      swap1\n      tag_77\n      swap2\n      swap1\n      tag_78\n      jump\t// in\n    tag_77:\n      tag_79\n      jump\t// in\n    tag_76:\n      stop\n        /* \"contract/token/ERC721.sol\":3700:4034  function tokenURI(uint256 tokenId) public view virtual override returns (string memory) {\r... */\n    tag_16:\n      tag_80\n      0x04\n      dup1\n      calldatasize\n      sub\n      dup2\n      add\n      swap1\n      tag_81\n      swap2\n      swap1\n      tag_39\n      jump\t// in\n    tag_81:\n      tag_82\n      jump\t// in\n    tag_80:\n      mload(0x40)\n      tag_83\n      swap2\n      swap1\n      tag_36\n      jump\t// in\n    tag_83:\n      mload(0x40)\n      dup1\n      swap2\n      sub\n      swap1\n      return\n        /* \"contract/token/ERC721.sol\":5435:5599  function isApprovedForAll(address owner, address operator) public view virtual override returns (bool) {\r... */\n    tag_17:\n      tag_84\n      0x04\n      dup1\n      calldatasize\n      sub\n      dup2\n      add\n      swap1\n      tag_85\n      swap2\n      swap1\n      tag_86\n      jump\t// in\n    tag_85:\n      tag_87\n      jump\t// in\n    tag_84:\n      mload(0x40)\n      tag_88\n      swap2\n      swap1\n      tag_26\n      jump\t// in\n    tag_88:\n      mload(0x40)\n      dup1\n      swap2\n      sub\n      swap1\n      return\n        /* \"contract/token/ERC721.sol\":2412:2717  function supportsInterface(bytes4 interfaceId) public view virtual override(ERC165, IERC165) returns (bool) {\r... */\n    tag_24:\n        /* \"contract/token/ERC721.sol\":2514:2518  bool */\n      0x00\n        /* \"contract/token/ERC721.sol\":2566:2591  type(IERC721).interfaceId */\n      0x80ac58cd00000000000000000000000000000000000000000000000000000000\n        /* \"contract/token/ERC721.sol\":2551:2591  interfaceId == type(IERC721).interfaceId */\n      not(0xffffffffffffffffffffffffffffffffffffffffffffffffffffffff)\n      and\n        /* \"contract/token/ERC721.sol\":2551:2562  interfaceId */\n      dup3\n        /* \"contract/token/ERC721.sol\":2551:2591  interfaceId == type(IERC721).interfaceId */\n      not(0xffffffffffffffffffffffffffffffffffffffffffffffffffffffff)\n      and\n      eq\n        /* \"contract/token/ERC721.sol\":2551:2656  interfaceId == type(IERC721).interfaceId ||\r... */\n      dup1\n      tag_90\n      jumpi\n      pop\n        /* \"contract/token/ERC721.sol\":2623:2656  type(IERC721Metadata).interfaceId */\n      0x5b5e139f00000000000000000000000000000000000000000000000000000000\n        /* \"contract/token/ERC721.sol\":2608:2656  interfaceId == type(IERC721Metadata).interfaceId */\n      not(0xffffffffffffffffffffffffffffffffffffffffffffffffffffffff)\n      and\n        /* \"contract/token/ERC721.sol\":2608:2619  interfaceId */\n      dup3\n        /* \"contract/token/ERC721.sol\":2608:2656  interfaceId == type(IERC721Metadata).interfaceId */\n      not(0xffffffffffffffffffffffffffffffffffffffffffffffffffffffff)\n      and\n      eq\n        /* \"contract/token/ERC721.sol\":2551:2656  interfaceId == type(IERC721).interfaceId ||\r... */\n    tag_90:\n        /* \"contract/token/ERC721.sol\":2551:2709  interfaceId == type(IERC721).interfaceId ||\r... */\n      dup1\n      tag_91\n      jumpi\n      pop\n        /* \"contract/token/ERC721.sol\":2673:2709  super.supportsInterface(interfaceId) */\n      tag_92\n        /* \"contract/token/ERC721.sol\":2697:2708  interfaceId */\n      dup3\n        /* \"contract/token/ERC721.sol\":2673:2696  super.supportsInterface */\n      tag_93\n        /* \"contract/token/ERC721.sol\":2673:2709  super.supportsInterface(interfaceId) */\n      jump\t// in\n    tag_92:\n        /* \"contract/token/ERC721.sol\":2551:2709  interfaceId == type(IERC721).interfaceId ||\r... */\n    tag_91:\n        /* \"contract/token/ERC721.sol\":2531:2709  return\r... */\n      swap1\n      pop\n        /* \"contract/token/ERC721.sol\":2412:2717  function supportsInterface(bytes4 interfaceId) public view virtual override(ERC165, IERC165) returns (bool) {\r... */\n      swap2\n      swap1\n      pop\n      jump\t// out\n        /* \"contract/token/ERC721.sol\":1899:2340  function addHouse(uint _houseId, uint _serialNumber, uint _price, uint _priceDai, uint _area, address _sellerAddress, string memory _houseAddress) external returns(House memory){\r... */\n    tag_30:\n        /* \"contract/token/ERC721.sol\":2063:2075  House memory */\n      tag_94\n      tag_95\n      jump\t// in\n    tag_94:\n        /* \"contract/token/ERC721.sol\":2107:2113  houses */\n      0x06\n        /* \"contract/token/ERC721.sol\":2107:2123  houses[_houseId] */\n      0x00\n        /* \"contract/token/ERC721.sol\":2114:2122  _houseId */\n      dup10\n        /* \"contract/token/ERC721.sol\":2107:2123  houses[_houseId] */\n      dup2\n      mstore\n      0x20\n      add\n      swap1\n      dup2\n      mstore\n      0x20\n      add\n      0x00\n      keccak256\n        /* \"contract/token/ERC721.sol\":2107:2126  houses[_houseId].id */\n      0x00\n      add\n      sload\n        /* \"contract/token/ERC721.sol\":2095:2103  _houseId */\n      dup9\n        /* \"contract/token/ERC721.sol\":2095:2126  _houseId != houses[_houseId].id */\n      eq\n      iszero\n        /* \"contract/token/ERC721.sol\":2087:2158  require(_houseId != houses[_houseId].id, \"this houseId already exists\") */\n      tag_97\n      jumpi\n      mload(0x40)\n      0x08c379a000000000000000000000000000000000000000000000000000000000\n      dup2\n      mstore\n      0x04\n      add\n      tag_98\n      swap1\n      tag_99\n      jump\t// in\n    tag_98:\n      mload(0x40)\n      dup1\n      swap2\n      sub\n      swap1\n      revert\n    tag_97:\n        /* \"contract/token/ERC721.sol\":2188:2298  House(_houseId, _serialNumber, _price, _priceDai, _area, _sellerAddress, _sellerAddress, _houseAddress, false) */\n      mload(0x40)\n      dup1\n      0x0120\n      add\n      0x40\n      mstore\n      dup1\n        /* \"contract/token/ERC721.sol\":2194:2202  _houseId */\n      dup10\n        /* \"contract/token/ERC721.sol\":2188:2298  House(_houseId, _serialNumber, _price, _priceDai, _area, _sellerAddress, _sellerAddress, _houseAddress, false) */\n      dup2\n      mstore\n      0x20\n      add\n        /* \"contract/token/ERC721.sol\":2204:2217  _serialNumber */\n      dup9\n        /* \"contract/token/ERC721.sol\":2188:2298  House(_houseId, _serialNumber, _price, _priceDai, _area, _sellerAddress, _sellerAddress, _houseAddress, false) */\n      dup2\n      mstore\n      0x20\n      add\n        /* \"contract/token/ERC721.sol\":2219:2225  _price */\n      dup8\n        /* \"contract/token/ERC721.sol\":2188:2298  House(_houseId, _serialNumber, _price, _priceDai, _area, _sellerAddress, _sellerAddress, _houseAddress, false) */\n      dup2\n      mstore\n      0x20\n      add\n        /* \"contract/token/ERC721.sol\":2227:2236  _priceDai */\n      dup7\n        /* \"contract/token/ERC721.sol\":2188:2298  House(_houseId, _serialNumber, _price, _priceDai, _area, _sellerAddress, _sellerAddress, _houseAddress, false) */\n      dup2\n      mstore\n      0x20\n      add\n        /* \"contract/token/ERC721.sol\":2238:2243  _area */\n      dup6\n        /* \"contract/token/ERC721.sol\":2188:2298  House(_houseId, _serialNumber, _price, _priceDai, _area, _sellerAddress, _sellerAddress, _houseAddress, false) */\n      dup2\n      mstore\n      0x20\n      add\n        /* \"contract/token/ERC721.sol\":2245:2259  _sellerAddress */\n      dup5\n        /* \"contract/token/ERC721.sol\":2188:2298  House(_houseId, _serialNumber, _price, _priceDai, _area, _sellerAddress, _sellerAddress, _houseAddress, false) */\n      0xffffffffffffffffffffffffffffffffffffffff\n      and\n      dup2\n      mstore\n      0x20\n      add\n        /* \"contract/token/ERC721.sol\":2261:2275  _sellerAddress */\n      dup5\n        /* \"contract/token/ERC721.sol\":2188:2298  House(_houseId, _serialNumber, _price, _priceDai, _area, _sellerAddress, _sellerAddress, _houseAddress, false) */\n      0xffffffffffffffffffffffffffffffffffffffff\n      and\n      dup2\n      mstore\n      0x20\n      add\n        /* \"contract/token/ERC721.sol\":2277:2290  _houseAddress */\n      dup4\n        /* \"contract/token/ERC721.sol\":2188:2298  House(_houseId, _serialNumber, _price, _priceDai, _area, _sellerAddress, _sellerAddress, _houseAddress, false) */\n      dup2\n      mstore\n      0x20\n      add\n        /* \"contract/token/ERC721.sol\":2292:2297  false */\n      0x00\n        /* \"contract/token/ERC721.sol\":2188:2298  House(_houseId, _serialNumber, _price, _priceDai, _area, _sellerAddress, _sellerAddress, _houseAddress, false) */\n      iszero\n      iszero\n      dup2\n      mstore\n      pop\n        /* \"contract/token/ERC721.sol\":2169:2175  houses */\n      0x06\n        /* \"contract/token/ERC721.sol\":2169:2185  houses[_houseId] */\n      0x00\n        /* \"contract/token/ERC721.sol\":2176:2184  _houseId */\n      dup11\n        /* \"contract/token/ERC721.sol\":2169:2185  houses[_houseId] */\n      dup2\n      mstore\n      0x20\n      add\n      swap1\n      dup2\n      mstore\n      0x20\n      add\n      0x00\n      keccak256\n        /* \"contract/token/ERC721.sol\":2169:2298  houses[_houseId] = House(_houseId, _serialNumber, _price, _priceDai, _area, _sellerAddress, _sellerAddress, _houseAddress, false) */\n      0x00\n      dup3\n      add\n      mload\n      dup2\n      0x00\n      add\n      sstore\n      0x20\n      dup3\n      add\n      mload\n      dup2\n      0x01\n      add\n      sstore\n      0x40\n      dup3\n      add\n      mload\n      dup2\n      0x02\n      add\n      sstore\n      0x60\n      dup3\n      add\n      mload\n      dup2\n      0x03\n      add\n      sstore\n      0x80\n      dup3\n      add\n      mload\n      dup2\n      0x04\n      add\n      sstore\n      0xa0\n      dup3\n      add\n      mload\n      dup2\n      0x05\n      add\n      exp(0x0100, 0x00)\n      dup2\n      sload\n      dup2\n      0xffffffffffffffffffffffffffffffffffffffff\n      mul\n      not\n      and\n      swap1\n      dup4\n      0xffffffffffffffffffffffffffffffffffffffff\n      and\n      mul\n      or\n      swap1\n      sstore\n      pop\n      0xc0\n      dup3\n      add\n      mload\n      dup2\n      0x06\n      add\n      exp(0x0100, 0x00)\n      dup2\n      sload\n      dup2\n      0xffffffffffffffffffffffffffffffffffffffff\n      mul\n      not\n      and\n      swap1\n      dup4\n      0xffffffffffffffffffffffffffffffffffffffff\n      and\n      mul\n      or\n      swap1\n      sstore\n      pop\n      0xe0\n      dup3\n      add\n      mload\n      dup2\n      0x07\n      add\n      swap1\n      dup1\n      mload\n      swap1\n      0x20\n      add\n      swap1\n      tag_100\n      swap3\n      swap2\n      swap1\n      tag_101\n      jump\t// in\n    tag_100:\n      pop\n      0x0100\n      dup3\n      add\n      mload\n      dup2\n      0x08\n      add\n      exp(0x0100, 0x00)\n      dup2\n      sload\n      dup2\n      0xff\n      mul\n      not\n      and\n      swap1\n      dup4\n      iszero\n      iszero\n      mul\n      or\n      swap1\n      sstore\n      pop\n      swap1\n      pop\n      pop\n        /* \"contract/token/ERC721.sol\":2316:2322  houses */\n      0x06\n        /* \"contract/token/ERC721.sol\":2316:2332  houses[_houseId] */\n      0x00\n        /* \"contract/token/ERC721.sol\":2323:2331  _houseId */\n      dup10\n        /* \"contract/token/ERC721.sol\":2316:2332  houses[_houseId] */\n      dup2\n      mstore\n      0x20\n      add\n      swap1\n      dup2\n      mstore\n      0x20\n      add\n      0x00\n      keccak256\n        /* \"contract/token/ERC721.sol\":2309:2332  return houses[_houseId] */\n      mload(0x40)\n      dup1\n      0x0120\n      add\n      0x40\n      mstore\n      swap1\n      dup2\n      0x00\n      dup3\n      add\n      sload\n      dup2\n      mstore\n      0x20\n      add\n      0x01\n      dup3\n      add\n      sload\n      dup2\n      mstore\n      0x20\n      add\n      0x02\n      dup3\n      add\n      sload\n      dup2\n      mstore\n      0x20\n      add\n      0x03\n      dup3\n      add\n      sload\n      dup2\n      mstore\n      0x20\n      add\n      0x04\n      dup3\n      add\n      sload\n      dup2\n      mstore\n      0x20\n      add\n      0x05\n      dup3\n      add\n      0x00\n      swap1\n      sload\n      swap1\n      0x0100\n      exp\n      swap1\n      div\n      0xffffffffffffffffffffffffffffffffffffffff\n      and\n      0xffffffffffffffffffffffffffffffffffffffff\n      and\n      0xffffffffffffffffffffffffffffffffffffffff\n      and\n      dup2\n      mstore\n      0x20\n      add\n      0x06\n      dup3\n      add\n      0x00\n      swap1\n      sload\n      swap1\n      0x0100\n      exp\n      swap1\n      div\n      0xffffffffffffffffffffffffffffffffffffffff\n      and\n      0xffffffffffffffffffffffffffffffffffffffff\n      and\n      0xffffffffffffffffffffffffffffffffffffffff\n      and\n      dup2\n      mstore\n      0x20\n      add\n      0x07\n      dup3\n      add\n      dup1\n      sload\n      tag_102\n      swap1\n      tag_103\n      jump\t// in\n    tag_102:\n      dup1\n      0x1f\n      add\n      0x20\n      dup1\n      swap2\n      div\n      mul\n      0x20\n      add\n      mload(0x40)\n      swap1\n      dup2\n      add\n      0x40\n      mstore\n      dup1\n      swap3\n      swap2\n      swap1\n      dup2\n      dup2\n      mstore\n      0x20\n      add\n      dup3\n      dup1\n      sload\n      tag_104\n      swap1\n      tag_103\n      jump\t// in\n    tag_104:\n      dup1\n      iszero\n      tag_105\n      jumpi\n      dup1\n      0x1f\n      lt\n      tag_106\n      jumpi\n      0x0100\n      dup1\n      dup4\n      sload\n      div\n      mul\n      dup4\n      mstore\n      swap2\n      0x20\n      add\n      swap2\n      jump(tag_105)\n    tag_106:\n      dup3\n      add\n      swap2\n      swap1\n      0x00\n      mstore\n      keccak256(0x00, 0x20)\n      swap1\n    tag_107:\n      dup2\n      sload\n      dup2\n      mstore\n      swap1\n      0x01\n      add\n      swap1\n      0x20\n      add\n      dup1\n      dup4\n      gt\n      tag_107\n      jumpi\n      dup3\n      swap1\n      sub\n      0x1f\n      and\n      dup3\n      add\n      swap2\n    tag_105:\n      pop\n      pop\n      pop\n      pop\n      pop\n      dup2\n      mstore\n      0x20\n      add\n      0x08\n      dup3\n      add\n      0x00\n      swap1\n      sload\n      swap1\n      0x0100\n      exp\n      swap1\n      div\n      0xff\n      and\n      iszero\n      iszero\n      iszero\n      iszero\n      dup2\n      mstore\n      pop\n      pop\n      swap1\n      pop\n        /* \"contract/token/ERC721.sol\":1899:2340  function addHouse(uint _houseId, uint _serialNumber, uint _price, uint _priceDai, uint _area, address _sellerAddress, string memory _houseAddress) external returns(House memory){\r... */\n      swap8\n      swap7\n      pop\n      pop\n      pop\n      pop\n      pop\n      pop\n      pop\n      jump\t// out\n        /* \"contract/token/ERC721.sol\":3356:3456  function name() public view virtual override returns (string memory) {\r... */\n    tag_34:\n        /* \"contract/token/ERC721.sol\":3410:3423  string memory */\n      0x60\n        /* \"contract/token/ERC721.sol\":3443:3448  _name */\n      0x00\n        /* \"contract/token/ERC721.sol\":3436:3448  return _name */\n      dup1\n      sload\n      tag_109\n      swap1\n      tag_103\n      jump\t// in\n    tag_109:\n      dup1\n      0x1f\n      add\n      0x20\n      dup1\n      swap2\n      div\n      mul\n      0x20\n      add\n      mload(0x40)\n      swap1\n      dup2\n      add\n      0x40\n      mstore\n      dup1\n      swap3\n      swap2\n      swap1\n      dup2\n      dup2\n      mstore\n      0x20\n      add\n      dup3\n      dup1\n      sload\n      tag_110\n      swap1\n      tag_103\n      jump\t// in\n    tag_110:\n      dup1\n      iszero\n      tag_111\n      jumpi\n      dup1\n      0x1f\n      lt\n      tag_112\n      jumpi\n      0x0100\n      dup1\n      dup4\n      sload\n      div\n      mul\n      dup4\n      mstore\n      swap2\n      0x20\n      add\n      swap2\n      jump(tag_111)\n    tag_112:\n      dup3\n      add\n      swap2\n      swap1\n      0x00\n      mstore\n      keccak256(0x00, 0x20)\n      swap1\n    tag_113:\n      dup2\n      sload\n      dup2\n      mstore\n      swap1\n      0x01\n      add\n      swap1\n      0x20\n      add\n      dup1\n      dup4\n      gt\n      tag_113\n      jumpi\n      dup3\n      swap1\n      sub\n      0x1f\n      and\n      dup3\n      add\n      swap2\n    tag_111:\n      pop\n      pop\n      pop\n      pop\n      pop\n      swap1\n      pop\n        /* \"contract/token/ERC721.sol\":3356:3456  function name() public view virtual override returns (string memory) {\r... */\n      swap1\n      jump\t// out\n        /* \"contract/token/ERC721.sol\":4916:5137  function getApproved(uint256 tokenId) public view virtual override returns (address) {\r... */\n    tag_40:\n        /* \"contract/token/ERC721.sol\":4992:4999  address */\n      0x00\n        /* \"contract/token/ERC721.sol\":5020:5036  _exists(tokenId) */\n      tag_115\n        /* \"contract/token/ERC721.sol\":5028:5035  tokenId */\n      dup3\n        /* \"contract/token/ERC721.sol\":5020:5027  _exists */\n      tag_116\n        /* \"contract/token/ERC721.sol\":5020:5036  _exists(tokenId) */\n      jump\t// in\n    tag_115:\n        /* \"contract/token/ERC721.sol\":5012:5085  require(_exists(tokenId), \"ERC721: approved query for nonexistent token\") */\n      tag_117\n      jumpi\n      mload(0x40)\n      0x08c379a000000000000000000000000000000000000000000000000000000000\n      dup2\n      mstore\n      0x04\n      add\n      tag_118\n      swap1\n      tag_119\n      jump\t// in\n    tag_118:\n      mload(0x40)\n      dup1\n      swap2\n      sub\n      swap1\n      revert\n    tag_117:\n        /* \"contract/token/ERC721.sol\":5105:5120  _tokenApprovals */\n      0x04\n        /* \"contract/token/ERC721.sol\":5105:5129  _tokenApprovals[tokenId] */\n      0x00\n        /* \"contract/token/ERC721.sol\":5121:5128  tokenId */\n      dup4\n        /* \"contract/token/ERC721.sol\":5105:5129  _tokenApprovals[tokenId] */\n      dup2\n      mstore\n      0x20\n      add\n      swap1\n      dup2\n      mstore\n      0x20\n      add\n      0x00\n      keccak256\n      0x00\n      swap1\n      sload\n      swap1\n      0x0100\n      exp\n      swap1\n      div\n      0xffffffffffffffffffffffffffffffffffffffff\n      and\n        /* \"contract/token/ERC721.sol\":5098:5129  return _tokenApprovals[tokenId] */\n      swap1\n      pop\n        /* \"contract/token/ERC721.sol\":4916:5137  function getApproved(uint256 tokenId) public view virtual override returns (address) {\r... */\n      swap2\n      swap1\n      pop\n      jump\t// out\n        /* \"contract/token/ERC721.sol\":4439:4850  function approve(address to, uint256 tokenId) public virtual override {\r... */\n    tag_46:\n        /* \"contract/token/ERC721.sol\":4520:4533  address owner */\n      0x00\n        /* \"contract/token/ERC721.sol\":4536:4559  ERC721.ownerOf(tokenId) */\n      tag_121\n        /* \"contract/token/ERC721.sol\":4551:4558  tokenId */\n      dup3\n        /* \"contract/token/ERC721.sol\":4536:4550  ERC721.ownerOf */\n      tag_56\n        /* \"contract/token/ERC721.sol\":4536:4559  ERC721.ownerOf(tokenId) */\n      jump\t// in\n    tag_121:\n        /* \"contract/token/ERC721.sol\":4520:4559  address owner = ERC721.ownerOf(tokenId) */\n      swap1\n      pop\n        /* \"contract/token/ERC721.sol\":4584:4589  owner */\n      dup1\n        /* \"contract/token/ERC721.sol\":4578:4589  to != owner */\n      0xffffffffffffffffffffffffffffffffffffffff\n      and\n        /* \"contract/token/ERC721.sol\":4578:4580  to */\n      dup4\n        /* \"contract/token/ERC721.sol\":4578:4589  to != owner */\n      0xffffffffffffffffffffffffffffffffffffffff\n      and\n      eq\n      iszero\n        /* \"contract/token/ERC721.sol\":4570:4627  require(to != owner, \"ERC721: approval to current owner\") */\n      tag_122\n      jumpi\n      mload(0x40)\n      0x08c379a000000000000000000000000000000000000000000000000000000000\n      dup2\n      mstore\n      0x04\n      add\n      tag_123\n      swap1\n      tag_124\n      jump\t// in\n    tag_123:\n      mload(0x40)\n      dup1\n      swap2\n      sub\n      swap1\n      revert\n    tag_122:\n        /* \"contract/token/ERC721.sol\":4678:4683  owner */\n      dup1\n        /* \"contract/token/ERC721.sol\":4662:4683  _msgSender() == owner */\n      0xffffffffffffffffffffffffffffffffffffffff\n      and\n        /* \"contract/token/ERC721.sol\":4662:4674  _msgSender() */\n      tag_125\n        /* \"contract/token/ERC721.sol\":4662:4672  _msgSender */\n      tag_126\n        /* \"contract/token/ERC721.sol\":4662:4674  _msgSender() */\n      jump\t// in\n    tag_125:\n        /* \"contract/token/ERC721.sol\":4662:4683  _msgSender() == owner */\n      0xffffffffffffffffffffffffffffffffffffffff\n      and\n      eq\n        /* \"contract/token/ERC721.sol\":4662:4724  _msgSender() == owner || isApprovedForAll(owner, _msgSender()) */\n      dup1\n      tag_127\n      jumpi\n      pop\n        /* \"contract/token/ERC721.sol\":4687:4724  isApprovedForAll(owner, _msgSender()) */\n      tag_128\n        /* \"contract/token/ERC721.sol\":4704:4709  owner */\n      dup2\n        /* \"contract/token/ERC721.sol\":4711:4723  _msgSender() */\n      tag_129\n        /* \"contract/token/ERC721.sol\":4711:4721  _msgSender */\n      tag_126\n        /* \"contract/token/ERC721.sol\":4711:4723  _msgSender() */\n      jump\t// in\n    tag_129:\n        /* \"contract/token/ERC721.sol\":4687:4703  isApprovedForAll */\n      tag_87\n        /* \"contract/token/ERC721.sol\":4687:4724  isApprovedForAll(owner, _msgSender()) */\n      jump\t// in\n    tag_128:\n        /* \"contract/token/ERC721.sol\":4662:4724  _msgSender() == owner || isApprovedForAll(owner, _msgSender()) */\n    tag_127:\n        /* \"contract/token/ERC721.sol\":4640:4808  require(\r... */\n      tag_130\n      jumpi\n      mload(0x40)\n      0x08c379a000000000000000000000000000000000000000000000000000000000\n      dup2\n      mstore\n      0x04\n      add\n      tag_131\n      swap1\n      tag_132\n      jump\t// in\n    tag_131:\n      mload(0x40)\n      dup1\n      swap2\n      sub\n      swap1\n      revert\n    tag_130:\n        /* \"contract/token/ERC721.sol\":4821:4842  _approve(to, tokenId) */\n      tag_133\n        /* \"contract/token/ERC721.sol\":4830:4832  to */\n      dup4\n        /* \"contract/token/ERC721.sol\":4834:4841  tokenId */\n      dup4\n        /* \"contract/token/ERC721.sol\":4821:4829  _approve */\n      tag_134\n        /* \"contract/token/ERC721.sol\":4821:4842  _approve(to, tokenId) */\n      jump\t// in\n    tag_133:\n        /* \"contract/token/ERC721.sol\":4509:4850  {\r... */\n      pop\n        /* \"contract/token/ERC721.sol\":4439:4850  function approve(address to, uint256 tokenId) public virtual override {\r... */\n      pop\n      pop\n      jump\t// out\n        /* \"contract/token/ERC721.sol\":5666:6005  function transferFrom(\r... */\n    tag_50:\n        /* \"contract/token/ERC721.sol\":5861:5902  _isApprovedOrOwner(_msgSender(), tokenId) */\n      tag_136\n        /* \"contract/token/ERC721.sol\":5880:5892  _msgSender() */\n      tag_137\n        /* \"contract/token/ERC721.sol\":5880:5890  _msgSender */\n      tag_126\n        /* \"contract/token/ERC721.sol\":5880:5892  _msgSender() */\n      jump\t// in\n    tag_137:\n        /* \"contract/token/ERC721.sol\":5894:5901  tokenId */\n      dup3\n        /* \"contract/token/ERC721.sol\":5861:5879  _isApprovedOrOwner */\n      tag_138\n        /* \"contract/token/ERC721.sol\":5861:5902  _isApprovedOrOwner(_msgSender(), tokenId) */\n      jump\t// in\n    tag_136:\n        /* \"contract/token/ERC721.sol\":5853:5956  require(_isApprovedOrOwner(_msgSender(), tokenId), \"ERC721: transfer caller is not owner nor approved\") */\n      tag_139\n      jumpi\n      mload(0x40)\n      0x08c379a000000000000000000000000000000000000000000000000000000000\n      dup2\n      mstore\n      0x04\n      add\n      tag_140\n      swap1\n      tag_141\n      jump\t// in\n    tag_140:\n      mload(0x40)\n      dup1\n      swap2\n      sub\n      swap1\n      revert\n    tag_139:\n        /* \"contract/token/ERC721.sol\":5969:5997  _transfer(from, to, tokenId) */\n      tag_142\n        /* \"contract/token/ERC721.sol\":5979:5983  from */\n      dup4\n        /* \"contract/token/ERC721.sol\":5985:5987  to */\n      dup4\n        /* \"contract/token/ERC721.sol\":5989:5996  tokenId */\n      dup4\n        /* \"contract/token/ERC721.sol\":5969:5978  _transfer */\n      tag_143\n        /* \"contract/token/ERC721.sol\":5969:5997  _transfer(from, to, tokenId) */\n      jump\t// in\n    tag_142:\n        /* \"contract/token/ERC721.sol\":5666:6005  function transferFrom(\r... */\n      pop\n      pop\n      pop\n      jump\t// out\n        /* \"contract/token/ERC721.sol\":6076:6261  function safeTransferFrom(\r... */\n    tag_53:\n        /* \"contract/token/ERC721.sol\":6214:6253  safeTransferFrom(from, to, tokenId, \"\") */\n      tag_145\n        /* \"contract/token/ERC721.sol\":6231:6235  from */\n      dup4\n        /* \"contract/token/ERC721.sol\":6237:6239  to */\n      dup4\n        /* \"contract/token/ERC721.sol\":6241:6248  tokenId */\n      dup4\n        /* \"contract/token/ERC721.sol\":6214:6253  safeTransferFrom(from, to, tokenId, \"\") */\n      mload(0x40)\n      dup1\n      0x20\n      add\n      0x40\n      mstore\n      dup1\n      0x00\n      dup2\n      mstore\n      pop\n        /* \"contract/token/ERC721.sol\":6214:6230  safeTransferFrom */\n      tag_79\n        /* \"contract/token/ERC721.sol\":6214:6253  safeTransferFrom(from, to, tokenId, \"\") */\n      jump\t// in\n    tag_145:\n        /* \"contract/token/ERC721.sol\":6076:6261  function safeTransferFrom(\r... */\n      pop\n      pop\n      pop\n      jump\t// out\n        /* \"contract/token/ERC721.sol\":3050:3289  function ownerOf(uint256 tokenId) public view virtual override returns (address) {\r... */\n    tag_56:\n        /* \"contract/token/ERC721.sol\":3122:3129  address */\n      0x00\n        /* \"contract/token/ERC721.sol\":3142:3155  address owner */\n      dup1\n        /* \"contract/token/ERC721.sol\":3158:3165  _owners */\n      0x02\n        /* \"contract/token/ERC721.sol\":3158:3174  _owners[tokenId] */\n      0x00\n        /* \"contract/token/ERC721.sol\":3166:3173  tokenId */\n      dup5\n        /* \"contract/token/ERC721.sol\":3158:3174  _owners[tokenId] */\n      dup2\n      mstore\n      0x20\n      add\n      swap1\n      dup2\n      mstore\n      0x20\n      add\n      0x00\n      keccak256\n      0x00\n      swap1\n      sload\n      swap1\n      0x0100\n      exp\n      swap1\n      div\n      0xffffffffffffffffffffffffffffffffffffffff\n      and\n        /* \"contract/token/ERC721.sol\":3142:3174  address owner = _owners[tokenId] */\n      swap1\n      pop\n        /* \"contract/token/ERC721.sol\":3210:3211  0 */\n      0x00\n        /* \"contract/token/ERC721.sol\":3193:3212  owner != address(0) */\n      0xffffffffffffffffffffffffffffffffffffffff\n      and\n        /* \"contract/token/ERC721.sol\":3193:3198  owner */\n      dup2\n        /* \"contract/token/ERC721.sol\":3193:3212  owner != address(0) */\n      0xffffffffffffffffffffffffffffffffffffffff\n      and\n      eq\n      iszero\n        /* \"contract/token/ERC721.sol\":3185:3258  require(owner != address(0), \"ERC721: owner query for nonexistent token\") */\n      tag_147\n      jumpi\n      mload(0x40)\n      0x08c379a000000000000000000000000000000000000000000000000000000000\n      dup2\n      mstore\n      0x04\n      add\n      tag_148\n      swap1\n      tag_149\n      jump\t// in\n    tag_148:\n      mload(0x40)\n      dup1\n      swap2\n      sub\n      swap1\n      revert\n    tag_147:\n        /* \"contract/token/ERC721.sol\":3276:3281  owner */\n      dup1\n        /* \"contract/token/ERC721.sol\":3269:3281  return owner */\n      swap2\n      pop\n      pop\n        /* \"contract/token/ERC721.sol\":3050:3289  function ownerOf(uint256 tokenId) public view virtual override returns (address) {\r... */\n      swap2\n      swap1\n      pop\n      jump\t// out\n        /* \"contract/token/ERC721.sol\":2781:2988  function balanceOf(address owner) public view virtual override returns (uint256) {\r... */\n    tag_61:\n        /* \"contract/token/ERC721.sol\":2853:2860  uint256 */\n      0x00\n        /* \"contract/token/ERC721.sol\":2898:2899  0 */\n      dup1\n        /* \"contract/token/ERC721.sol\":2881:2900  owner != address(0) */\n      0xffffffffffffffffffffffffffffffffffffffff\n      and\n        /* \"contract/token/ERC721.sol\":2881:2886  owner */\n      dup3\n        /* \"contract/token/ERC721.sol\":2881:2900  owner != address(0) */\n      0xffffffffffffffffffffffffffffffffffffffff\n      and\n      eq\n      iszero\n        /* \"contract/token/ERC721.sol\":2873:2946  require(owner != address(0), \"ERC721: address zero is not a valid owner\") */\n      tag_151\n      jumpi\n      mload(0x40)\n      0x08c379a000000000000000000000000000000000000000000000000000000000\n      dup2\n      mstore\n      0x04\n      add\n      tag_152\n      swap1\n      tag_153\n      jump\t// in\n    tag_152:\n      mload(0x40)\n      dup1\n      swap2\n      sub\n      swap1\n      revert\n    tag_151:\n        /* \"contract/token/ERC721.sol\":2964:2973  _balances */\n      0x03\n        /* \"contract/token/ERC721.sol\":2964:2980  _balances[owner] */\n      0x00\n        /* \"contract/token/ERC721.sol\":2974:2979  owner */\n      dup4\n        /* \"contract/token/ERC721.sol\":2964:2980  _balances[owner] */\n      0xffffffffffffffffffffffffffffffffffffffff\n      and\n      0xffffffffffffffffffffffffffffffffffffffff\n      and\n      dup2\n      mstore\n      0x20\n      add\n      swap1\n      dup2\n      mstore\n      0x20\n      add\n      0x00\n      keccak256\n      sload\n        /* \"contract/token/ERC721.sol\":2957:2980  return _balances[owner] */\n      swap1\n      pop\n        /* \"contract/token/ERC721.sol\":2781:2988  function balanceOf(address owner) public view virtual override returns (uint256) {\r... */\n      swap2\n      swap1\n      pop\n      jump\t// out\n        /* \"contract/token/ERC721.sol\":3525:3629  function symbol() public view virtual override returns (string memory) {\r... */\n    tag_65:\n        /* \"contract/token/ERC721.sol\":3581:3594  string memory */\n      0x60\n        /* \"contract/token/ERC721.sol\":3614:3621  _symbol */\n      0x01\n        /* \"contract/token/ERC721.sol\":3607:3621  return _symbol */\n      dup1\n      sload\n      tag_155\n      swap1\n      tag_103\n      jump\t// in\n    tag_155:\n      dup1\n      0x1f\n      add\n      0x20\n      dup1\n      swap2\n      div\n      mul\n      0x20\n      add\n      mload(0x40)\n      swap1\n      dup2\n      add\n      0x40\n      mstore\n      dup1\n      swap3\n      swap2\n      swap1\n      dup2\n      dup2\n      mstore\n      0x20\n      add\n      dup3\n      dup1\n      sload\n      tag_156\n      swap1\n      tag_103\n      jump\t// in\n    tag_156:\n      dup1\n      iszero\n      tag_157\n      jumpi\n      dup1\n      0x1f\n      lt\n      tag_158\n      jumpi\n      0x0100\n      dup1\n      dup4\n      sload\n      div\n      mul\n      dup4\n      mstore\n      swap2\n      0x20\n      add\n      swap2\n      jump(tag_157)\n    tag_158:\n      dup3\n      add\n      swap2\n      swap1\n      0x00\n      mstore\n      keccak256(0x00, 0x20)\n      swap1\n    tag_159:\n      dup2\n      sload\n      dup2\n      mstore\n      swap1\n      0x01\n      add\n      swap1\n      0x20\n      add\n      dup1\n      dup4\n      gt\n      tag_159\n      jumpi\n      dup3\n      swap1\n      sub\n      0x1f\n      and\n      dup3\n      add\n      swap2\n    tag_157:\n      pop\n      pop\n      pop\n      pop\n      pop\n      swap1\n      pop\n        /* \"contract/token/ERC721.sol\":3525:3629  function symbol() public view virtual override returns (string memory) {\r... */\n      swap1\n      jump\t// out\n        /* \"contract/token/ERC721.sol\":5209:5364  function setApprovalForAll(address operator, bool approved) public virtual override {\r... */\n    tag_70:\n        /* \"contract/token/ERC721.sol\":5304:5356  _setApprovalForAll(_msgSender(), operator, approved) */\n      tag_161\n        /* \"contract/token/ERC721.sol\":5323:5335  _msgSender() */\n      tag_162\n        /* \"contract/token/ERC721.sol\":5323:5333  _msgSender */\n      tag_126\n        /* \"contract/token/ERC721.sol\":5323:5335  _msgSender() */\n      jump\t// in\n    tag_162:\n        /* \"contract/token/ERC721.sol\":5337:5345  operator */\n      dup4\n        /* \"contract/token/ERC721.sol\":5347:5355  approved */\n      dup4\n        /* \"contract/token/ERC721.sol\":5304:5322  _setApprovalForAll */\n      tag_163\n        /* \"contract/token/ERC721.sol\":5304:5356  _setApprovalForAll(_msgSender(), operator, approved) */\n      jump\t// in\n    tag_161:\n        /* \"contract/token/ERC721.sol\":5209:5364  function setApprovalForAll(address operator, bool approved) public virtual override {\r... */\n      pop\n      pop\n      jump\t// out\n        /* \"contract/token/ERC721.sol\":1608:1644  mapping(uint => House) public houses */\n    tag_73:\n      mstore(0x20, 0x06)\n      dup1\n      0x00\n      mstore\n      keccak256(0x00, 0x40)\n      0x00\n      swap2\n      pop\n      swap1\n      pop\n      dup1\n      0x00\n      add\n      sload\n      swap1\n      dup1\n      0x01\n      add\n      sload\n      swap1\n      dup1\n      0x02\n      add\n      sload\n      swap1\n      dup1\n      0x03\n      add\n      sload\n      swap1\n      dup1\n      0x04\n      add\n      sload\n      swap1\n      dup1\n      0x05\n      add\n      0x00\n      swap1\n      sload\n      swap1\n      0x0100\n      exp\n      swap1\n      div\n      0xffffffffffffffffffffffffffffffffffffffff\n      and\n      swap1\n      dup1\n      0x06\n      add\n      0x00\n      swap1\n      sload\n      swap1\n      0x0100\n      exp\n      swap1\n      div\n      0xffffffffffffffffffffffffffffffffffffffff\n      and\n      swap1\n      dup1\n      0x07\n      add\n      dup1\n      sload\n      tag_164\n      swap1\n      tag_103\n      jump\t// in\n    tag_164:\n      dup1\n      0x1f\n      add\n      0x20\n      dup1\n      swap2\n      div\n      mul\n      0x20\n      add\n      mload(0x40)\n      swap1\n      dup2\n      add\n      0x40\n      mstore\n      dup1\n      swap3\n      swap2\n      swap1\n      dup2\n      dup2\n      mstore\n      0x20\n      add\n      dup3\n      dup1\n      sload\n      tag_165\n      swap1\n      tag_103\n      jump\t// in\n    tag_165:\n      dup1\n      iszero\n      tag_166\n      jumpi\n      dup1\n      0x1f\n      lt\n      tag_167\n      jumpi\n      0x0100\n      dup1\n      dup4\n      sload\n      div\n      mul\n      dup4\n      mstore\n      swap2\n      0x20\n      add\n      swap2\n      jump(tag_166)\n    tag_167:\n      dup3\n      add\n      swap2\n      swap1\n      0x00\n      mstore\n      keccak256(0x00, 0x20)\n      swap1\n    tag_168:\n      dup2\n      sload\n      dup2\n      mstore\n      swap1\n      0x01\n      add\n      swap1\n      0x20\n      add\n      dup1\n      dup4\n      gt\n      tag_168\n      jumpi\n      dup3\n      swap1\n      sub\n      0x1f\n      and\n      dup3\n      add\n      swap2\n    tag_166:\n      pop\n      pop\n      pop\n      pop\n      pop\n      swap1\n      dup1\n      0x08\n      add\n      0x00\n      swap1\n      sload\n      swap1\n      0x0100\n      exp\n      swap1\n      div\n      0xff\n      and\n      swap1\n      pop\n      dup10\n      jump\t// out\n        /* \"contract/token/ERC721.sol\":6332:6658  function safeTransferFrom(\r... */\n    tag_79:\n        /* \"contract/token/ERC721.sol\":6506:6547  _isApprovedOrOwner(_msgSender(), tokenId) */\n      tag_170\n        /* \"contract/token/ERC721.sol\":6525:6537  _msgSender() */\n      tag_171\n        /* \"contract/token/ERC721.sol\":6525:6535  _msgSender */\n      tag_126\n        /* \"contract/token/ERC721.sol\":6525:6537  _msgSender() */\n      jump\t// in\n    tag_171:\n        /* \"contract/token/ERC721.sol\":6539:6546  tokenId */\n      dup4\n        /* \"contract/token/ERC721.sol\":6506:6524  _isApprovedOrOwner */\n      tag_138\n        /* \"contract/token/ERC721.sol\":6506:6547  _isApprovedOrOwner(_msgSender(), tokenId) */\n      jump\t// in\n    tag_170:\n        /* \"contract/token/ERC721.sol\":6498:6601  require(_isApprovedOrOwner(_msgSender(), tokenId), \"ERC721: transfer caller is not owner nor approved\") */\n      tag_172\n      jumpi\n      mload(0x40)\n      0x08c379a000000000000000000000000000000000000000000000000000000000\n      dup2\n      mstore\n      0x04\n      add\n      tag_173\n      swap1\n      tag_141\n      jump\t// in\n    tag_173:\n      mload(0x40)\n      dup1\n      swap2\n      sub\n      swap1\n      revert\n    tag_172:\n        /* \"contract/token/ERC721.sol\":6612:6650  _safeTransfer(from, to, tokenId, data) */\n      tag_174\n        /* \"contract/token/ERC721.sol\":6626:6630  from */\n      dup5\n        /* \"contract/token/ERC721.sol\":6632:6634  to */\n      dup5\n        /* \"contract/token/ERC721.sol\":6636:6643  tokenId */\n      dup5\n        /* \"contract/token/ERC721.sol\":6645:6649  data */\n      dup5\n        /* \"contract/token/ERC721.sol\":6612:6625  _safeTransfer */\n      tag_175\n        /* \"contract/token/ERC721.sol\":6612:6650  _safeTransfer(from, to, tokenId, data) */\n      jump\t// in\n    tag_174:\n        /* \"contract/token/ERC721.sol\":6332:6658  function safeTransferFrom(\r... */\n      pop\n      pop\n      pop\n      pop\n      jump\t// out\n        /* \"contract/token/ERC721.sol\":3700:4034  function tokenURI(uint256 tokenId) public view virtual override returns (string memory) {\r... */\n    tag_82:\n        /* \"contract/token/ERC721.sol\":3773:3786  string memory */\n      0x60\n        /* \"contract/token/ERC721.sol\":3807:3823  _exists(tokenId) */\n      tag_177\n        /* \"contract/token/ERC721.sol\":3815:3822  tokenId */\n      dup3\n        /* \"contract/token/ERC721.sol\":3807:3814  _exists */\n      tag_116\n        /* \"contract/token/ERC721.sol\":3807:3823  _exists(tokenId) */\n      jump\t// in\n    tag_177:\n        /* \"contract/token/ERC721.sol\":3799:3875  require(_exists(tokenId), \"ERC721Metadata: URI query for nonexistent token\") */\n      tag_178\n      jumpi\n      mload(0x40)\n      0x08c379a000000000000000000000000000000000000000000000000000000000\n      dup2\n      mstore\n      0x04\n      add\n      tag_179\n      swap1\n      tag_180\n      jump\t// in\n    tag_179:\n      mload(0x40)\n      dup1\n      swap2\n      sub\n      swap1\n      revert\n    tag_178:\n        /* \"contract/token/ERC721.sol\":3888:3909  string memory baseURI */\n      0x00\n        /* \"contract/token/ERC721.sol\":3912:3922  _baseURI() */\n      tag_181\n        /* \"contract/token/ERC721.sol\":3912:3920  _baseURI */\n      tag_182\n        /* \"contract/token/ERC721.sol\":3912:3922  _baseURI() */\n      jump\t// in\n    tag_181:\n        /* \"contract/token/ERC721.sol\":3888:3922  string memory baseURI = _baseURI() */\n      swap1\n      pop\n        /* \"contract/token/ERC721.sol\":3964:3965  0 */\n      0x00\n        /* \"contract/token/ERC721.sol\":3946:3953  baseURI */\n      dup2\n        /* \"contract/token/ERC721.sol\":3940:3961  bytes(baseURI).length */\n      mload\n        /* \"contract/token/ERC721.sol\":3940:3965  bytes(baseURI).length > 0 */\n      gt\n        /* \"contract/token/ERC721.sol\":3940:4026  bytes(baseURI).length > 0 ? string(abi.encodePacked(baseURI, tokenId.toString())) : \"\" */\n      tag_183\n      jumpi\n      mload(0x40)\n      dup1\n      0x20\n      add\n      0x40\n      mstore\n      dup1\n      0x00\n      dup2\n      mstore\n      pop\n      jump(tag_184)\n    tag_183:\n        /* \"contract/token/ERC721.sol\":3992:3999  baseURI */\n      dup1\n        /* \"contract/token/ERC721.sol\":4001:4019  tokenId.toString() */\n      tag_185\n        /* \"contract/token/ERC721.sol\":4001:4008  tokenId */\n      dup5\n        /* \"contract/token/ERC721.sol\":4001:4017  tokenId.toString */\n      tag_186\n        /* \"contract/token/ERC721.sol\":4001:4019  tokenId.toString() */\n      jump\t// in\n    tag_185:\n        /* \"contract/token/ERC721.sol\":3975:4020  abi.encodePacked(baseURI, tokenId.toString()) */\n      add(0x20, mload(0x40))\n      tag_187\n      swap3\n      swap2\n      swap1\n      tag_188\n      jump\t// in\n    tag_187:\n      mload(0x40)\n      0x20\n      dup2\n      dup4\n      sub\n      sub\n      dup2\n      mstore\n      swap1\n      0x40\n      mstore\n        /* \"contract/token/ERC721.sol\":3940:4026  bytes(baseURI).length > 0 ? string(abi.encodePacked(baseURI, tokenId.toString())) : \"\" */\n    tag_184:\n        /* \"contract/token/ERC721.sol\":3933:4026  return bytes(baseURI).length > 0 ? string(abi.encodePacked(baseURI, tokenId.toString())) : \"\" */\n      swap2\n      pop\n      pop\n        /* \"contract/token/ERC721.sol\":3700:4034  function tokenURI(uint256 tokenId) public view virtual override returns (string memory) {\r... */\n      swap2\n      swap1\n      pop\n      jump\t// out\n        /* \"contract/token/ERC721.sol\":5435:5599  function isApprovedForAll(address owner, address operator) public view virtual override returns (bool) {\r... */\n    tag_87:\n        /* \"contract/token/ERC721.sol\":5532:5536  bool */\n      0x00\n        /* \"contract/token/ERC721.sol\":5556:5574  _operatorApprovals */\n      0x05\n        /* \"contract/token/ERC721.sol\":5556:5581  _operatorApprovals[owner] */\n      0x00\n        /* \"contract/token/ERC721.sol\":5575:5580  owner */\n      dup5\n        /* \"contract/token/ERC721.sol\":5556:5581  _operatorApprovals[owner] */\n      0xffffffffffffffffffffffffffffffffffffffff\n      and\n      0xffffffffffffffffffffffffffffffffffffffff\n      and\n      dup2\n      mstore\n      0x20\n      add\n      swap1\n      dup2\n      mstore\n      0x20\n      add\n      0x00\n      keccak256\n        /* \"contract/token/ERC721.sol\":5556:5591  _operatorApprovals[owner][operator] */\n      0x00\n        /* \"contract/token/ERC721.sol\":5582:5590  operator */\n      dup4\n        /* \"contract/token/ERC721.sol\":5556:5591  _operatorApprovals[owner][operator] */\n      0xffffffffffffffffffffffffffffffffffffffff\n      and\n      0xffffffffffffffffffffffffffffffffffffffff\n      and\n      dup2\n      mstore\n      0x20\n      add\n      swap1\n      dup2\n      mstore\n      0x20\n      add\n      0x00\n      keccak256\n      0x00\n      swap1\n      sload\n      swap1\n      0x0100\n      exp\n      swap1\n      div\n      0xff\n      and\n        /* \"contract/token/ERC721.sol\":5549:5591  return _operatorApprovals[owner][operator] */\n      swap1\n      pop\n        /* \"contract/token/ERC721.sol\":5435:5599  function isApprovedForAll(address owner, address operator) public view virtual override returns (bool) {\r... */\n      swap3\n      swap2\n      pop\n      pop\n      jump\t// out\n        /* \"utils/introspection/ERC165.sol\":854:1011  function supportsInterface(bytes4 interfaceId) public view virtual override returns (bool) {\r... */\n    tag_93:\n        /* \"utils/introspection/ERC165.sol\":939:943  bool */\n      0x00\n        /* \"utils/introspection/ERC165.sol\":978:1003  type(IERC165).interfaceId */\n      0x01ffc9a700000000000000000000000000000000000000000000000000000000\n        /* \"utils/introspection/ERC165.sol\":963:1003  interfaceId == type(IERC165).interfaceId */\n      not(0xffffffffffffffffffffffffffffffffffffffffffffffffffffffff)\n      and\n        /* \"utils/introspection/ERC165.sol\":963:974  interfaceId */\n      dup3\n        /* \"utils/introspection/ERC165.sol\":963:1003  interfaceId == type(IERC165).interfaceId */\n      not(0xffffffffffffffffffffffffffffffffffffffffffffffffffffffff)\n      and\n      eq\n        /* \"utils/introspection/ERC165.sol\":956:1003  return interfaceId == type(IERC165).interfaceId */\n      swap1\n      pop\n        /* \"utils/introspection/ERC165.sol\":854:1011  function supportsInterface(bytes4 interfaceId) public view virtual override returns (bool) {\r... */\n      swap2\n      swap1\n      pop\n      jump\t// out\n        /* \"contract/token/ERC721.sol\":8165:8292  function _exists(uint256 tokenId) internal view virtual returns (bool) {\r... */\n    tag_116:\n        /* \"contract/token/ERC721.sol\":8230:8234  bool */\n      0x00\n        /* \"contract/token/ERC721.sol\":8282:8283  0 */\n      dup1\n        /* \"contract/token/ERC721.sol\":8254:8284  _owners[tokenId] != address(0) */\n      0xffffffffffffffffffffffffffffffffffffffff\n      and\n        /* \"contract/token/ERC721.sol\":8254:8261  _owners */\n      0x02\n        /* \"contract/token/ERC721.sol\":8254:8270  _owners[tokenId] */\n      0x00\n        /* \"contract/token/ERC721.sol\":8262:8269  tokenId */\n      dup5\n        /* \"contract/token/ERC721.sol\":8254:8270  _owners[tokenId] */\n      dup2\n      mstore\n      0x20\n      add\n      swap1\n      dup2\n      mstore\n      0x20\n      add\n      0x00\n      keccak256\n      0x00\n      swap1\n      sload\n      swap1\n      0x0100\n      exp\n      swap1\n      div\n      0xffffffffffffffffffffffffffffffffffffffff\n      and\n        /* \"contract/token/ERC721.sol\":8254:8284  _owners[tokenId] != address(0) */\n      0xffffffffffffffffffffffffffffffffffffffff\n      and\n      eq\n      iszero\n        /* \"contract/token/ERC721.sol\":8247:8284  return _owners[tokenId] != address(0) */\n      swap1\n      pop\n        /* \"contract/token/ERC721.sol\":8165:8292  function _exists(uint256 tokenId) internal view virtual returns (bool) {\r... */\n      swap2\n      swap1\n      pop\n      jump\t// out\n        /* \"utils/Context.sol\":601:699  function _msgSender() internal view virtual returns (address) {\r... */\n    tag_126:\n        /* \"utils/Context.sol\":654:661  address */\n      0x00\n        /* \"utils/Context.sol\":681:691  msg.sender */\n      caller\n        /* \"utils/Context.sol\":674:691  return msg.sender */\n      swap1\n      pop\n        /* \"utils/Context.sol\":601:699  function _msgSender() internal view virtual returns (address) {\r... */\n      swap1\n      jump\t// out\n        /* \"contract/token/ERC721.sol\":12309:12483  function _approve(address to, uint256 tokenId) internal virtual {\r... */\n    tag_134:\n        /* \"contract/token/ERC721.sol\":12411:12413  to */\n      dup2\n        /* \"contract/token/ERC721.sol\":12384:12399  _tokenApprovals */\n      0x04\n        /* \"contract/token/ERC721.sol\":12384:12408  _tokenApprovals[tokenId] */\n      0x00\n        /* \"contract/token/ERC721.sol\":12400:12407  tokenId */\n      dup4\n        /* \"contract/token/ERC721.sol\":12384:12408  _tokenApprovals[tokenId] */\n      dup2\n      mstore\n      0x20\n      add\n      swap1\n      dup2\n      mstore\n      0x20\n      add\n      0x00\n      keccak256\n      0x00\n        /* \"contract/token/ERC721.sol\":12384:12413  _tokenApprovals[tokenId] = to */\n      0x0100\n      exp\n      dup2\n      sload\n      dup2\n      0xffffffffffffffffffffffffffffffffffffffff\n      mul\n      not\n      and\n      swap1\n      dup4\n      0xffffffffffffffffffffffffffffffffffffffff\n      and\n      mul\n      or\n      swap1\n      sstore\n      pop\n        /* \"contract/token/ERC721.sol\":12467:12474  tokenId */\n      dup1\n        /* \"contract/token/ERC721.sol\":12463:12465  to */\n      dup3\n        /* \"contract/token/ERC721.sol\":12429:12475  Approval(ERC721.ownerOf(tokenId), to, tokenId) */\n      0xffffffffffffffffffffffffffffffffffffffff\n      and\n        /* \"contract/token/ERC721.sol\":12438:12461  ERC721.ownerOf(tokenId) */\n      tag_194\n        /* \"contract/token/ERC721.sol\":12453:12460  tokenId */\n      dup4\n        /* \"contract/token/ERC721.sol\":12438:12452  ERC721.ownerOf */\n      tag_56\n        /* \"contract/token/ERC721.sol\":12438:12461  ERC721.ownerOf(tokenId) */\n      jump\t// in\n    tag_194:\n        /* \"contract/token/ERC721.sol\":12429:12475  Approval(ERC721.ownerOf(tokenId), to, tokenId) */\n      0xffffffffffffffffffffffffffffffffffffffff\n      and\n      0x8c5be1e5ebec7d5bd14f71427d1e84f3dd0314c0f7b2291e5b200ac8c7c3b925\n      mload(0x40)\n      mload(0x40)\n      dup1\n      swap2\n      sub\n      swap1\n      log4\n        /* \"contract/token/ERC721.sol\":12309:12483  function _approve(address to, uint256 tokenId) internal virtual {\r... */\n      pop\n      pop\n      jump\t// out\n        /* \"contract/token/ERC721.sol\":8459:8807  function _isApprovedOrOwner(address spender, uint256 tokenId) internal view virtual returns (bool) {\r... */\n    tag_138:\n        /* \"contract/token/ERC721.sol\":8552:8556  bool */\n      0x00\n        /* \"contract/token/ERC721.sol\":8577:8593  _exists(tokenId) */\n      tag_196\n        /* \"contract/token/ERC721.sol\":8585:8592  tokenId */\n      dup3\n        /* \"contract/token/ERC721.sol\":8577:8584  _exists */\n      tag_116\n        /* \"contract/token/ERC721.sol\":8577:8593  _exists(tokenId) */\n      jump\t// in\n    tag_196:\n        /* \"contract/token/ERC721.sol\":8569:8642  require(_exists(tokenId), \"ERC721: operator query for nonexistent token\") */\n      tag_197\n      jumpi\n      mload(0x40)\n      0x08c379a000000000000000000000000000000000000000000000000000000000\n      dup2\n      mstore\n      0x04\n      add\n      tag_198\n      swap1\n      tag_199\n      jump\t// in\n    tag_198:\n      mload(0x40)\n      dup1\n      swap2\n      sub\n      swap1\n      revert\n    tag_197:\n        /* \"contract/token/ERC721.sol\":8653:8666  address owner */\n      0x00\n        /* \"contract/token/ERC721.sol\":8669:8692  ERC721.ownerOf(tokenId) */\n      tag_200\n        /* \"contract/token/ERC721.sol\":8684:8691  tokenId */\n      dup4\n        /* \"contract/token/ERC721.sol\":8669:8683  ERC721.ownerOf */\n      tag_56\n        /* \"contract/token/ERC721.sol\":8669:8692  ERC721.ownerOf(tokenId) */\n      jump\t// in\n    tag_200:\n        /* \"contract/token/ERC721.sol\":8653:8692  address owner = ERC721.ownerOf(tokenId) */\n      swap1\n      pop\n        /* \"contract/token/ERC721.sol\":8722:8727  owner */\n      dup1\n        /* \"contract/token/ERC721.sol\":8711:8727  spender == owner */\n      0xffffffffffffffffffffffffffffffffffffffff\n      and\n        /* \"contract/token/ERC721.sol\":8711:8718  spender */\n      dup5\n        /* \"contract/token/ERC721.sol\":8711:8727  spender == owner */\n      0xffffffffffffffffffffffffffffffffffffffff\n      and\n      eq\n        /* \"contract/token/ERC721.sol\":8711:8763  spender == owner || isApprovedForAll(owner, spender) */\n      dup1\n      tag_201\n      jumpi\n      pop\n        /* \"contract/token/ERC721.sol\":8731:8763  isApprovedForAll(owner, spender) */\n      tag_202\n        /* \"contract/token/ERC721.sol\":8748:8753  owner */\n      dup2\n        /* \"contract/token/ERC721.sol\":8755:8762  spender */\n      dup6\n        /* \"contract/token/ERC721.sol\":8731:8747  isApprovedForAll */\n      tag_87\n        /* \"contract/token/ERC721.sol\":8731:8763  isApprovedForAll(owner, spender) */\n      jump\t// in\n    tag_202:\n        /* \"contract/token/ERC721.sol\":8711:8763  spender == owner || isApprovedForAll(owner, spender) */\n    tag_201:\n        /* \"contract/token/ERC721.sol\":8711:8798  spender == owner || isApprovedForAll(owner, spender) || getApproved(tokenId) == spender */\n      dup1\n      tag_203\n      jumpi\n      pop\n        /* \"contract/token/ERC721.sol\":8791:8798  spender */\n      dup4\n        /* \"contract/token/ERC721.sol\":8767:8798  getApproved(tokenId) == spender */\n      0xffffffffffffffffffffffffffffffffffffffff\n      and\n        /* \"contract/token/ERC721.sol\":8767:8787  getApproved(tokenId) */\n      tag_204\n        /* \"contract/token/ERC721.sol\":8779:8786  tokenId */\n      dup5\n        /* \"contract/token/ERC721.sol\":8767:8778  getApproved */\n      tag_40\n        /* \"contract/token/ERC721.sol\":8767:8787  getApproved(tokenId) */\n      jump\t// in\n    tag_204:\n        /* \"contract/token/ERC721.sol\":8767:8798  getApproved(tokenId) == spender */\n      0xffffffffffffffffffffffffffffffffffffffff\n      and\n      eq\n        /* \"contract/token/ERC721.sol\":8711:8798  spender == owner || isApprovedForAll(owner, spender) || getApproved(tokenId) == spender */\n    tag_203:\n        /* \"contract/token/ERC721.sol\":8703:8799  return (spender == owner || isApprovedForAll(owner, spender) || getApproved(tokenId) == spender) */\n      swap2\n      pop\n      pop\n        /* \"contract/token/ERC721.sol\":8459:8807  function _isApprovedOrOwner(address spender, uint256 tokenId) internal view virtual returns (bool) {\r... */\n      swap3\n      swap2\n      pop\n      pop\n      jump\t// out\n        /* \"contract/token/ERC721.sol\":11566:12191  function _transfer(\r... */\n    tag_143:\n        /* \"contract/token/ERC721.sol\":11725:11729  from */\n      dup3\n        /* \"contract/token/ERC721.sol\":11698:11729  ERC721.ownerOf(tokenId) == from */\n      0xffffffffffffffffffffffffffffffffffffffff\n      and\n        /* \"contract/token/ERC721.sol\":11698:11721  ERC721.ownerOf(tokenId) */\n      tag_206\n        /* \"contract/token/ERC721.sol\":11713:11720  tokenId */\n      dup3\n        /* \"contract/token/ERC721.sol\":11698:11712  ERC721.ownerOf */\n      tag_56\n        /* \"contract/token/ERC721.sol\":11698:11721  ERC721.ownerOf(tokenId) */\n      jump\t// in\n    tag_206:\n        /* \"contract/token/ERC721.sol\":11698:11729  ERC721.ownerOf(tokenId) == from */\n      0xffffffffffffffffffffffffffffffffffffffff\n      and\n      eq\n        /* \"contract/token/ERC721.sol\":11690:11771  require(ERC721.ownerOf(tokenId) == from, \"ERC721: transfer from incorrect owner\") */\n      tag_207\n      jumpi\n      mload(0x40)\n      0x08c379a000000000000000000000000000000000000000000000000000000000\n      dup2\n      mstore\n      0x04\n      add\n      tag_208\n      swap1\n      tag_209\n      jump\t// in\n    tag_208:\n      mload(0x40)\n      dup1\n      swap2\n      sub\n      swap1\n      revert\n    tag_207:\n        /* \"contract/token/ERC721.sol\":11804:11805  0 */\n      0x00\n        /* \"contract/token/ERC721.sol\":11790:11806  to != address(0) */\n      0xffffffffffffffffffffffffffffffffffffffff\n      and\n        /* \"contract/token/ERC721.sol\":11790:11792  to */\n      dup3\n        /* \"contract/token/ERC721.sol\":11790:11806  to != address(0) */\n      0xffffffffffffffffffffffffffffffffffffffff\n      and\n      eq\n      iszero\n        /* \"contract/token/ERC721.sol\":11782:11847  require(to != address(0), \"ERC721: transfer to the zero address\") */\n      tag_210\n      jumpi\n      mload(0x40)\n      0x08c379a000000000000000000000000000000000000000000000000000000000\n      dup2\n      mstore\n      0x04\n      add\n      tag_211\n      swap1\n      tag_212\n      jump\t// in\n    tag_211:\n      mload(0x40)\n      dup1\n      swap2\n      sub\n      swap1\n      revert\n    tag_210:\n        /* \"contract/token/ERC721.sol\":11860:11899  _beforeTokenTransfer(from, to, tokenId) */\n      tag_213\n        /* \"contract/token/ERC721.sol\":11881:11885  from */\n      dup4\n        /* \"contract/token/ERC721.sol\":11887:11889  to */\n      dup4\n        /* \"contract/token/ERC721.sol\":11891:11898  tokenId */\n      dup4\n        /* \"contract/token/ERC721.sol\":11860:11880  _beforeTokenTransfer */\n      tag_214\n        /* \"contract/token/ERC721.sol\":11860:11899  _beforeTokenTransfer(from, to, tokenId) */\n      jump\t// in\n    tag_213:\n        /* \"contract/token/ERC721.sol\":11964:11993  _approve(address(0), tokenId) */\n      tag_215\n        /* \"contract/token/ERC721.sol\":11981:11982  0 */\n      0x00\n        /* \"contract/token/ERC721.sol\":11985:11992  tokenId */\n      dup3\n        /* \"contract/token/ERC721.sol\":11964:11972  _approve */\n      tag_134\n        /* \"contract/token/ERC721.sol\":11964:11993  _approve(address(0), tokenId) */\n      jump\t// in\n    tag_215:\n        /* \"contract/token/ERC721.sol\":12025:12026  1 */\n      0x01\n        /* \"contract/token/ERC721.sol\":12006:12015  _balances */\n      0x03\n        /* \"contract/token/ERC721.sol\":12006:12021  _balances[from] */\n      0x00\n        /* \"contract/token/ERC721.sol\":12016:12020  from */\n      dup6\n        /* \"contract/token/ERC721.sol\":12006:12021  _balances[from] */\n      0xffffffffffffffffffffffffffffffffffffffff\n      and\n      0xffffffffffffffffffffffffffffffffffffffff\n      and\n      dup2\n      mstore\n      0x20\n      add\n      swap1\n      dup2\n      mstore\n      0x20\n      add\n      0x00\n      keccak256\n      0x00\n        /* \"contract/token/ERC721.sol\":12006:12026  _balances[from] -= 1 */\n      dup3\n      dup3\n      sload\n      tag_216\n      swap2\n      swap1\n      tag_217\n      jump\t// in\n    tag_216:\n      swap3\n      pop\n      pop\n      dup2\n      swap1\n      sstore\n      pop\n        /* \"contract/token/ERC721.sol\":12054:12055  1 */\n      0x01\n        /* \"contract/token/ERC721.sol\":12037:12046  _balances */\n      0x03\n        /* \"contract/token/ERC721.sol\":12037:12050  _balances[to] */\n      0x00\n        /* \"contract/token/ERC721.sol\":12047:12049  to */\n      dup5\n        /* \"contract/token/ERC721.sol\":12037:12050  _balances[to] */\n      0xffffffffffffffffffffffffffffffffffffffff\n      and\n      0xffffffffffffffffffffffffffffffffffffffff\n      and\n      dup2\n      mstore\n      0x20\n      add\n      swap1\n      dup2\n      mstore\n      0x20\n      add\n      0x00\n      keccak256\n      0x00\n        /* \"contract/token/ERC721.sol\":12037:12055  _balances[to] += 1 */\n      dup3\n      dup3\n      sload\n      tag_218\n      swap2\n      swap1\n      tag_219\n      jump\t// in\n    tag_218:\n      swap3\n      pop\n      pop\n      dup2\n      swap1\n      sstore\n      pop\n        /* \"contract/token/ERC721.sol\":12085:12087  to */\n      dup2\n        /* \"contract/token/ERC721.sol\":12066:12073  _owners */\n      0x02\n        /* \"contract/token/ERC721.sol\":12066:12082  _owners[tokenId] */\n      0x00\n        /* \"contract/token/ERC721.sol\":12074:12081  tokenId */\n      dup4\n        /* \"contract/token/ERC721.sol\":12066:12082  _owners[tokenId] */\n      dup2\n      mstore\n      0x20\n      add\n      swap1\n      dup2\n      mstore\n      0x20\n      add\n      0x00\n      keccak256\n      0x00\n        /* \"contract/token/ERC721.sol\":12066:12087  _owners[tokenId] = to */\n      0x0100\n      exp\n      dup2\n      sload\n      dup2\n      0xffffffffffffffffffffffffffffffffffffffff\n      mul\n      not\n      and\n      swap1\n      dup4\n      0xffffffffffffffffffffffffffffffffffffffff\n      and\n      mul\n      or\n      swap1\n      sstore\n      pop\n        /* \"contract/token/ERC721.sol\":12124:12131  tokenId */\n      dup1\n        /* \"contract/token/ERC721.sol\":12120:12122  to */\n      dup3\n        /* \"contract/token/ERC721.sol\":12105:12132  Transfer(from, to, tokenId) */\n      0xffffffffffffffffffffffffffffffffffffffff\n      and\n        /* \"contract/token/ERC721.sol\":12114:12118  from */\n      dup5\n        /* \"contract/token/ERC721.sol\":12105:12132  Transfer(from, to, tokenId) */\n      0xffffffffffffffffffffffffffffffffffffffff\n      and\n      0xddf252ad1be2c89b69c2b068fc378daa952ba7f163c4a11628f55a4df523b3ef\n      mload(0x40)\n      mload(0x40)\n      dup1\n      swap2\n      sub\n      swap1\n      log4\n        /* \"contract/token/ERC721.sol\":12145:12183  _afterTokenTransfer(from, to, tokenId) */\n      tag_220\n        /* \"contract/token/ERC721.sol\":12165:12169  from */\n      dup4\n        /* \"contract/token/ERC721.sol\":12171:12173  to */\n      dup4\n        /* \"contract/token/ERC721.sol\":12175:12182  tokenId */\n      dup4\n        /* \"contract/token/ERC721.sol\":12145:12164  _afterTokenTransfer */\n      tag_221\n        /* \"contract/token/ERC721.sol\":12145:12183  _afterTokenTransfer(from, to, tokenId) */\n      jump\t// in\n    tag_220:\n        /* \"contract/token/ERC721.sol\":11566:12191  function _transfer(\r... */\n      pop\n      pop\n      pop\n      jump\t// out\n        /* \"contract/token/ERC721.sol\":12625:12940  function _setApprovalForAll(\r... */\n    tag_163:\n        /* \"contract/token/ERC721.sol\":12780:12788  operator */\n      dup2\n        /* \"contract/token/ERC721.sol\":12771:12788  owner != operator */\n      0xffffffffffffffffffffffffffffffffffffffff\n      and\n        /* \"contract/token/ERC721.sol\":12771:12776  owner */\n      dup4\n        /* \"contract/token/ERC721.sol\":12771:12788  owner != operator */\n      0xffffffffffffffffffffffffffffffffffffffff\n      and\n      eq\n      iszero\n        /* \"contract/token/ERC721.sol\":12763:12818  require(owner != operator, \"ERC721: approve to caller\") */\n      tag_223\n      jumpi\n      mload(0x40)\n      0x08c379a000000000000000000000000000000000000000000000000000000000\n      dup2\n      mstore\n      0x04\n      add\n      tag_224\n      swap1\n      tag_225\n      jump\t// in\n    tag_224:\n      mload(0x40)\n      dup1\n      swap2\n      sub\n      swap1\n      revert\n    tag_223:\n        /* \"contract/token/ERC721.sol\":12867:12875  approved */\n      dup1\n        /* \"contract/token/ERC721.sol\":12829:12847  _operatorApprovals */\n      0x05\n        /* \"contract/token/ERC721.sol\":12829:12854  _operatorApprovals[owner] */\n      0x00\n        /* \"contract/token/ERC721.sol\":12848:12853  owner */\n      dup6\n        /* \"contract/token/ERC721.sol\":12829:12854  _operatorApprovals[owner] */\n      0xffffffffffffffffffffffffffffffffffffffff\n      and\n      0xffffffffffffffffffffffffffffffffffffffff\n      and\n      dup2\n      mstore\n      0x20\n      add\n      swap1\n      dup2\n      mstore\n      0x20\n      add\n      0x00\n      keccak256\n        /* \"contract/token/ERC721.sol\":12829:12864  _operatorApprovals[owner][operator] */\n      0x00\n        /* \"contract/token/ERC721.sol\":12855:12863  operator */\n      dup5\n        /* \"contract/token/ERC721.sol\":12829:12864  _operatorApprovals[owner][operator] */\n      0xffffffffffffffffffffffffffffffffffffffff\n      and\n      0xffffffffffffffffffffffffffffffffffffffff\n      and\n      dup2\n      mstore\n      0x20\n      add\n      swap1\n      dup2\n      mstore\n      0x20\n      add\n      0x00\n      keccak256\n      0x00\n        /* \"contract/token/ERC721.sol\":12829:12875  _operatorApprovals[owner][operator] = approved */\n      0x0100\n      exp\n      dup2\n      sload\n      dup2\n      0xff\n      mul\n      not\n      and\n      swap1\n      dup4\n      iszero\n      iszero\n      mul\n      or\n      swap1\n      sstore\n      pop\n        /* \"contract/token/ERC721.sol\":12913:12921  operator */\n      dup2\n        /* \"contract/token/ERC721.sol\":12891:12932  ApprovalForAll(owner, operator, approved) */\n      0xffffffffffffffffffffffffffffffffffffffff\n      and\n        /* \"contract/token/ERC721.sol\":12906:12911  owner */\n      dup4\n        /* \"contract/token/ERC721.sol\":12891:12932  ApprovalForAll(owner, operator, approved) */\n      0xffffffffffffffffffffffffffffffffffffffff\n      and\n      0x17307eab39ab6107e8899845ad3d59bd9653f200f220920489ca2b5937696c31\n        /* \"contract/token/ERC721.sol\":12923:12931  approved */\n      dup4\n        /* \"contract/token/ERC721.sol\":12891:12932  ApprovalForAll(owner, operator, approved) */\n      mload(0x40)\n      tag_226\n      swap2\n      swap1\n      tag_26\n      jump\t// in\n    tag_226:\n      mload(0x40)\n      dup1\n      swap2\n      sub\n      swap1\n      log3\n        /* \"contract/token/ERC721.sol\":12625:12940  function _setApprovalForAll(\r... */\n      pop\n      pop\n      pop\n      jump\t// out\n        /* \"contract/token/ERC721.sol\":7539:7852  function _safeTransfer(\r... */\n    tag_175:\n        /* \"contract/token/ERC721.sol\":7695:7723  _transfer(from, to, tokenId) */\n      tag_228\n        /* \"contract/token/ERC721.sol\":7705:7709  from */\n      dup5\n        /* \"contract/token/ERC721.sol\":7711:7713  to */\n      dup5\n        /* \"contract/token/ERC721.sol\":7715:7722  tokenId */\n      dup5\n        /* \"contract/token/ERC721.sol\":7695:7704  _transfer */\n      tag_143\n        /* \"contract/token/ERC721.sol\":7695:7723  _transfer(from, to, tokenId) */\n      jump\t// in\n    tag_228:\n        /* \"contract/token/ERC721.sol\":7742:7789  _checkOnERC721Received(from, to, tokenId, data) */\n      tag_229\n        /* \"contract/token/ERC721.sol\":7765:7769  from */\n      dup5\n        /* \"contract/token/ERC721.sol\":7771:7773  to */\n      dup5\n        /* \"contract/token/ERC721.sol\":7775:7782  tokenId */\n      dup5\n        /* \"contract/token/ERC721.sol\":7784:7788  data */\n      dup5\n        /* \"contract/token/ERC721.sol\":7742:7764  _checkOnERC721Received */\n      tag_230\n        /* \"contract/token/ERC721.sol\":7742:7789  _checkOnERC721Received(from, to, tokenId, data) */\n      jump\t// in\n    tag_229:\n        /* \"contract/token/ERC721.sol\":7734:7844  require(_checkOnERC721Received(from, to, tokenId, data), \"ERC721: transfer to non ERC721Receiver implementer\") */\n      tag_231\n      jumpi\n      mload(0x40)\n      0x08c379a000000000000000000000000000000000000000000000000000000000\n      dup2\n      mstore\n      0x04\n      add\n      tag_232\n      swap1\n      tag_233\n      jump\t// in\n    tag_232:\n      mload(0x40)\n      dup1\n      swap2\n      sub\n      swap1\n      revert\n    tag_231:\n        /* \"contract/token/ERC721.sol\":7539:7852  function _safeTransfer(\r... */\n      pop\n      pop\n      pop\n      pop\n      jump\t// out\n        /* \"contract/token/ERC721.sol\":4283:4377  function _baseURI() internal view virtual returns (string memory) {\r... */\n    tag_182:\n        /* \"contract/token/ERC721.sol\":4334:4347  string memory */\n      0x60\n        /* \"contract/token/ERC721.sol\":4360:4369  return \"\" */\n      mload(0x40)\n      dup1\n      0x20\n      add\n      0x40\n      mstore\n      dup1\n      0x00\n      dup2\n      mstore\n      pop\n      swap1\n      pop\n        /* \"contract/token/ERC721.sol\":4283:4377  function _baseURI() internal view virtual returns (string memory) {\r... */\n      swap1\n      jump\t// out\n        /* \"utils/Strings.sol\":342:1065  function toString(uint256 value) internal pure returns (string memory) {\r... */\n    tag_186:\n        /* \"utils/Strings.sol\":398:411  string memory */\n      0x60\n        /* \"utils/Strings.sol\":628:629  0 */\n      0x00\n        /* \"utils/Strings.sol\":619:624  value */\n      dup3\n        /* \"utils/Strings.sol\":619:629  value == 0 */\n      eq\n        /* \"utils/Strings.sol\":615:668  if (value == 0) {\r... */\n      iszero\n      tag_236\n      jumpi\n        /* \"utils/Strings.sol\":646:656  return \"0\" */\n      mload(0x40)\n      dup1\n      0x40\n      add\n      0x40\n      mstore\n      dup1\n      0x01\n      dup2\n      mstore\n      0x20\n      add\n      0x3000000000000000000000000000000000000000000000000000000000000000\n      dup2\n      mstore\n      pop\n      swap1\n      pop\n      jump(tag_235)\n        /* \"utils/Strings.sol\":615:668  if (value == 0) {\r... */\n    tag_236:\n        /* \"utils/Strings.sol\":678:690  uint256 temp */\n      0x00\n        /* \"utils/Strings.sol\":693:698  value */\n      dup3\n        /* \"utils/Strings.sol\":678:698  uint256 temp = value */\n      swap1\n      pop\n        /* \"utils/Strings.sol\":709:723  uint256 digits */\n      0x00\n        /* \"utils/Strings.sol\":734:812  while (temp != 0) {\r... */\n    tag_237:\n        /* \"utils/Strings.sol\":749:750  0 */\n      0x00\n        /* \"utils/Strings.sol\":741:745  temp */\n      dup3\n        /* \"utils/Strings.sol\":741:750  temp != 0 */\n      eq\n        /* \"utils/Strings.sol\":734:812  while (temp != 0) {\r... */\n      tag_238\n      jumpi\n        /* \"utils/Strings.sol\":767:775  digits++ */\n      dup1\n      dup1\n      tag_239\n      swap1\n      tag_240\n      jump\t// in\n    tag_239:\n      swap2\n      pop\n      pop\n        /* \"utils/Strings.sol\":798:800  10 */\n      0x0a\n        /* \"utils/Strings.sol\":790:800  temp /= 10 */\n      dup3\n      tag_241\n      swap2\n      swap1\n      tag_242\n      jump\t// in\n    tag_241:\n      swap2\n      pop\n        /* \"utils/Strings.sol\":734:812  while (temp != 0) {\r... */\n      jump(tag_237)\n    tag_238:\n        /* \"utils/Strings.sol\":822:841  bytes memory buffer */\n      0x00\n        /* \"utils/Strings.sol\":854:860  digits */\n      dup2\n        /* \"utils/Strings.sol\":844:861  new bytes(digits) */\n      0xffffffffffffffff\n      dup2\n      gt\n      iszero\n      tag_243\n      jumpi\n      tag_244\n      tag_245\n      jump\t// in\n    tag_244:\n    tag_243:\n      mload(0x40)\n      swap1\n      dup1\n      dup3\n      mstore\n      dup1\n      0x1f\n      add\n      not(0x1f)\n      and\n      0x20\n      add\n      dup3\n      add\n      0x40\n      mstore\n      dup1\n      iszero\n      tag_246\n      jumpi\n      dup2\n      0x20\n      add\n      0x01\n      dup3\n      mul\n      dup1\n      calldatasize\n      dup4\n      calldatacopy\n      dup1\n      dup3\n      add\n      swap2\n      pop\n      pop\n      swap1\n      pop\n    tag_246:\n      pop\n        /* \"utils/Strings.sol\":822:861  bytes memory buffer = new bytes(digits) */\n      swap1\n      pop\n        /* \"utils/Strings.sol\":872:1026  while (value != 0) {\r... */\n    tag_247:\n        /* \"utils/Strings.sol\":888:889  0 */\n      0x00\n        /* \"utils/Strings.sol\":879:884  value */\n      dup6\n        /* \"utils/Strings.sol\":879:889  value != 0 */\n      eq\n        /* \"utils/Strings.sol\":872:1026  while (value != 0) {\r... */\n      tag_248\n      jumpi\n        /* \"utils/Strings.sol\":916:917  1 */\n      0x01\n        /* \"utils/Strings.sol\":906:917  digits -= 1 */\n      dup3\n      tag_249\n      swap2\n      swap1\n      tag_217\n      jump\t// in\n    tag_249:\n      swap2\n      pop\n        /* \"utils/Strings.sol\":983:985  10 */\n      0x0a\n        /* \"utils/Strings.sol\":975:980  value */\n      dup6\n        /* \"utils/Strings.sol\":975:985  value % 10 */\n      tag_250\n      swap2\n      swap1\n      tag_251\n      jump\t// in\n    tag_250:\n        /* \"utils/Strings.sol\":962:964  48 */\n      0x30\n        /* \"utils/Strings.sol\":962:986  48 + uint256(value % 10) */\n      tag_252\n      swap2\n      swap1\n      tag_219\n      jump\t// in\n    tag_252:\n        /* \"utils/Strings.sol\":949:988  bytes1(uint8(48 + uint256(value % 10))) */\n      0xf8\n      shl\n        /* \"utils/Strings.sol\":932:938  buffer */\n      dup2\n        /* \"utils/Strings.sol\":939:945  digits */\n      dup4\n        /* \"utils/Strings.sol\":932:946  buffer[digits] */\n      dup2\n      mload\n      dup2\n      lt\n      tag_253\n      jumpi\n      tag_254\n      tag_255\n      jump\t// in\n    tag_254:\n    tag_253:\n      0x20\n      add\n      add\n        /* \"utils/Strings.sol\":932:988  buffer[digits] = bytes1(uint8(48 + uint256(value % 10))) */\n      swap1\n      not(0xffffffffffffffffffffffffffffffffffffffffffffffffffffffffffffff)\n      and\n      swap1\n      dup2\n      0x00\n      byte\n      swap1\n      mstore8\n      pop\n        /* \"utils/Strings.sol\":1012:1014  10 */\n      0x0a\n        /* \"utils/Strings.sol\":1003:1014  value /= 10 */\n      dup6\n      tag_256\n      swap2\n      swap1\n      tag_242\n      jump\t// in\n    tag_256:\n      swap5\n      pop\n        /* \"utils/Strings.sol\":872:1026  while (value != 0) {\r... */\n      jump(tag_247)\n    tag_248:\n        /* \"utils/Strings.sol\":1050:1056  buffer */\n      dup1\n        /* \"utils/Strings.sol\":1036:1057  return string(buffer) */\n      swap4\n      pop\n      pop\n      pop\n      pop\n        /* \"utils/Strings.sol\":342:1065  function toString(uint256 value) internal pure returns (string memory) {\r... */\n    tag_235:\n      swap2\n      swap1\n      pop\n      jump\t// out\n        /* \"contract/token/ERC721.sol\":14873:14999  function _beforeTokenTransfer(\r... */\n    tag_214:\n      pop\n      pop\n      pop\n      jump\t// out\n        /* \"contract/token/ERC721.sol\":15384:15509  function _afterTokenTransfer(\r... */\n    tag_221:\n      pop\n      pop\n      pop\n      jump\t// out\n        /* \"contract/token/ERC721.sol\":13504:14301  function _checkOnERC721Received(\r... */\n    tag_230:\n        /* \"contract/token/ERC721.sol\":13658:13662  bool */\n      0x00\n        /* \"contract/token/ERC721.sol\":13679:13694  to.isContract() */\n      tag_260\n        /* \"contract/token/ERC721.sol\":13679:13681  to */\n      dup5\n        /* \"contract/token/ERC721.sol\":13679:13692  to.isContract */\n      0xffffffffffffffffffffffffffffffffffffffff\n      and\n      tag_261\n        /* \"contract/token/ERC721.sol\":13679:13694  to.isContract() */\n      jump\t// in\n    tag_260:\n        /* \"contract/token/ERC721.sol\":13675:14294  if (to.isContract()) {\r... */\n      iszero\n      tag_262\n      jumpi\n        /* \"contract/token/ERC721.sol\":13731:13733  to */\n      dup4\n        /* \"contract/token/ERC721.sol\":13715:13751  IERC721Receiver(to).onERC721Received */\n      0xffffffffffffffffffffffffffffffffffffffff\n      and\n      0x150b7a02\n        /* \"contract/token/ERC721.sol\":13752:13764  _msgSender() */\n      tag_263\n        /* \"contract/token/ERC721.sol\":13752:13762  _msgSender */\n      tag_126\n        /* \"contract/token/ERC721.sol\":13752:13764  _msgSender() */\n      jump\t// in\n    tag_263:\n        /* \"contract/token/ERC721.sol\":13766:13770  from */\n      dup8\n        /* \"contract/token/ERC721.sol\":13772:13779  tokenId */\n      dup7\n        /* \"contract/token/ERC721.sol\":13781:13785  data */\n      dup7\n        /* \"contract/token/ERC721.sol\":13715:13786  IERC721Receiver(to).onERC721Received(_msgSender(), from, tokenId, data) */\n      mload(0x40)\n      dup6\n      0xffffffff\n      and\n      0xe0\n      shl\n      dup2\n      mstore\n      0x04\n      add\n      tag_264\n      swap5\n      swap4\n      swap3\n      swap2\n      swap1\n      tag_265\n      jump\t// in\n    tag_264:\n      0x20\n      mload(0x40)\n      dup1\n      dup4\n      sub\n      dup2\n      0x00\n      dup8\n      dup1\n      extcodesize\n      iszero\n      dup1\n      iszero\n      tag_266\n      jumpi\n      0x00\n      dup1\n      revert\n    tag_266:\n      pop\n      gas\n      call\n      swap3\n      pop\n      pop\n      pop\n      dup1\n      iszero\n      tag_267\n      jumpi\n      pop\n      mload(0x40)\n      returndatasize\n      not(0x1f)\n      0x1f\n      dup3\n      add\n      and\n      dup3\n      add\n      dup1\n      0x40\n      mstore\n      pop\n      dup2\n      add\n      swap1\n      tag_268\n      swap2\n      swap1\n      tag_269\n      jump\t// in\n    tag_268:\n      0x01\n    tag_267:\n        /* \"contract/token/ERC721.sol\":13711:14239  try IERC721Receiver(to).onERC721Received(_msgSender(), from, tokenId, data) returns (bytes4 retval) {\r... */\n      tag_270\n      jumpi\n      returndatasize\n      dup1\n      0x00\n      dup2\n      eq\n      tag_275\n      jumpi\n      mload(0x40)\n      swap2\n      pop\n      and(add(returndatasize, 0x3f), not(0x1f))\n      dup3\n      add\n      0x40\n      mstore\n      returndatasize\n      dup3\n      mstore\n      returndatasize\n      0x00\n      0x20\n      dup5\n      add\n      returndatacopy\n      jump(tag_274)\n    tag_275:\n      0x60\n      swap2\n      pop\n    tag_274:\n      pop\n        /* \"contract/token/ERC721.sol\":13973:13974  0 */\n      0x00\n        /* \"contract/token/ERC721.sol\":13956:13962  reason */\n      dup2\n        /* \"contract/token/ERC721.sol\":13956:13969  reason.length */\n      mload\n        /* \"contract/token/ERC721.sol\":13956:13974  reason.length == 0 */\n      eq\n        /* \"contract/token/ERC721.sol\":13952:14224  if (reason.length == 0) {\r... */\n      iszero\n      tag_276\n      jumpi\n        /* \"contract/token/ERC721.sol\":13999:14059  revert(\"ERC721: transfer to non ERC721Receiver implementer\") */\n      mload(0x40)\n      0x08c379a000000000000000000000000000000000000000000000000000000000\n      dup2\n      mstore\n      0x04\n      add\n      tag_277\n      swap1\n      tag_233\n      jump\t// in\n    tag_277:\n      mload(0x40)\n      dup1\n      swap2\n      sub\n      swap1\n      revert\n        /* \"contract/token/ERC721.sol\":13952:14224  if (reason.length == 0) {\r... */\n    tag_276:\n        /* \"contract/token/ERC721.sol\":14174:14180  reason */\n      dup1\n        /* \"contract/token/ERC721.sol\":14168:14181  mload(reason) */\n      mload\n        /* \"contract/token/ERC721.sol\":14159:14165  reason */\n      dup2\n        /* \"contract/token/ERC721.sol\":14155:14157  32 */\n      0x20\n        /* \"contract/token/ERC721.sol\":14151:14166  add(32, reason) */\n      add\n        /* \"contract/token/ERC721.sol\":14144:14182  revert(add(32, reason), mload(reason)) */\n      revert\n        /* \"contract/token/ERC721.sol\":13711:14239  try IERC721Receiver(to).onERC721Received(_msgSender(), from, tokenId, data) returns (bytes4 retval) {\r... */\n    tag_270:\n        /* \"contract/token/ERC721.sol\":13847:13888  IERC721Receiver.onERC721Received.selector */\n      shl(0xe0, 0x150b7a02)\n        /* \"contract/token/ERC721.sol\":13837:13888  retval == IERC721Receiver.onERC721Received.selector */\n      not(0xffffffffffffffffffffffffffffffffffffffffffffffffffffffff)\n      and\n        /* \"contract/token/ERC721.sol\":13837:13843  retval */\n      dup2\n        /* \"contract/token/ERC721.sol\":13837:13888  retval == IERC721Receiver.onERC721Received.selector */\n      not(0xffffffffffffffffffffffffffffffffffffffffffffffffffffffff)\n      and\n      eq\n        /* \"contract/token/ERC721.sol\":13830:13888  return retval == IERC721Receiver.onERC721Received.selector */\n      swap2\n      pop\n      pop\n      jump(tag_259)\n        /* \"contract/token/ERC721.sol\":13675:14294  if (to.isContract()) {\r... */\n    tag_262:\n        /* \"contract/token/ERC721.sol\":14278:14282  true */\n      0x01\n        /* \"contract/token/ERC721.sol\":14271:14282  return true */\n      swap1\n      pop\n        /* \"contract/token/ERC721.sol\":13504:14301  function _checkOnERC721Received(\r... */\n    tag_259:\n      swap5\n      swap4\n      pop\n      pop\n      pop\n      pop\n      jump\t// out\n        /* \"utils/Address.sol\":1210:1536  function isContract(address account) internal view returns (bool) {\r... */\n    tag_261:\n        /* \"utils/Address.sol\":1270:1274  bool */\n      0x00\n        /* \"utils/Address.sol\":1527:1528  0 */\n      dup1\n        /* \"utils/Address.sol\":1505:1512  account */\n      dup3\n        /* \"utils/Address.sol\":1505:1524  account.code.length */\n      0xffffffffffffffffffffffffffffffffffffffff\n      and\n      extcodesize\n        /* \"utils/Address.sol\":1505:1528  account.code.length > 0 */\n      gt\n        /* \"utils/Address.sol\":1498:1528  return account.code.length > 0 */\n      swap1\n      pop\n        /* \"utils/Address.sol\":1210:1536  function isContract(address account) internal view returns (bool) {\r... */\n      swap2\n      swap1\n      pop\n      jump\t// out\n    tag_95:\n      mload(0x40)\n      dup1\n      0x0120\n      add\n      0x40\n      mstore\n      dup1\n      0x00\n      dup2\n      mstore\n      0x20\n      add\n      0x00\n      dup2\n      mstore\n      0x20\n      add\n      0x00\n      dup2\n      mstore\n      0x20\n      add\n      0x00\n      dup2\n      mstore\n      0x20\n      add\n      0x00\n      dup2\n      mstore\n      0x20\n      add\n      and(0xffffffffffffffffffffffffffffffffffffffff, 0x00)\n      dup2\n      mstore\n      0x20\n      add\n      and(0xffffffffffffffffffffffffffffffffffffffff, 0x00)\n      dup2\n      mstore\n      0x20\n      add\n      0x60\n      dup2\n      mstore\n      0x20\n      add\n      iszero(iszero(0x00))\n      dup2\n      mstore\n      pop\n      swap1\n      jump\t// out\n    tag_101:\n      dup3\n      dup1\n      sload\n      tag_282\n      swap1\n      tag_103\n      jump\t// in\n    tag_282:\n      swap1\n      0x00\n      mstore\n      keccak256(0x00, 0x20)\n      swap1\n      0x1f\n      add\n      0x20\n      swap1\n      div\n      dup2\n      add\n      swap3\n      dup3\n      tag_284\n      jumpi\n      0x00\n      dup6\n      sstore\n      jump(tag_283)\n    tag_284:\n      dup3\n      0x1f\n      lt\n      tag_285\n      jumpi\n      dup1\n      mload\n      not(0xff)\n      and\n      dup4\n      dup1\n      add\n      or\n      dup6\n      sstore\n      jump(tag_283)\n    tag_285:\n      dup3\n      dup1\n      add\n      0x01\n      add\n      dup6\n      sstore\n      dup3\n      iszero\n      tag_283\n      jumpi\n      swap2\n      dup3\n      add\n    tag_286:\n      dup3\n      dup2\n      gt\n      iszero\n      tag_287\n      jumpi\n      dup3\n      mload\n      dup3\n      sstore\n      swap2\n      0x20\n      add\n      swap2\n      swap1\n      0x01\n      add\n      swap1\n      jump(tag_286)\n    tag_287:\n    tag_283:\n      pop\n      swap1\n      pop\n      tag_288\n      swap2\n      swap1\n      tag_289\n      jump\t// in\n    tag_288:\n      pop\n      swap1\n      jump\t// out\n    tag_289:\n    tag_290:\n      dup1\n      dup3\n      gt\n      iszero\n      tag_291\n      jumpi\n      0x00\n      dup2\n      0x00\n      swap1\n      sstore\n      pop\n      0x01\n      add\n      jump(tag_290)\n    tag_291:\n      pop\n      swap1\n      jump\t// out\n        /* \"#utility.yul\":7:417   */\n    tag_293:\n        /* \"#utility.yul\":84:89   */\n      0x00\n        /* \"#utility.yul\":109:174   */\n      tag_295\n        /* \"#utility.yul\":125:173   */\n      tag_296\n        /* \"#utility.yul\":166:172   */\n      dup5\n        /* \"#utility.yul\":125:173   */\n      tag_297\n      jump\t// in\n    tag_296:\n        /* \"#utility.yul\":109:174   */\n      tag_298\n      jump\t// in\n    tag_295:\n        /* \"#utility.yul\":100:174   */\n      swap1\n      pop\n        /* \"#utility.yul\":197:203   */\n      dup3\n        /* \"#utility.yul\":190:195   */\n      dup2\n        /* \"#utility.yul\":183:204   */\n      mstore\n        /* \"#utility.yul\":235:239   */\n      0x20\n        /* \"#utility.yul\":228:233   */\n      dup2\n        /* \"#utility.yul\":224:240   */\n      add\n        /* \"#utility.yul\":273:276   */\n      dup5\n        /* \"#utility.yul\":264:270   */\n      dup5\n        /* \"#utility.yul\":259:262   */\n      dup5\n        /* \"#utility.yul\":255:271   */\n      add\n        /* \"#utility.yul\":252:277   */\n      gt\n        /* \"#utility.yul\":249:361   */\n      iszero\n      tag_299\n      jumpi\n        /* \"#utility.yul\":280:359   */\n      tag_300\n      tag_301\n      jump\t// in\n    tag_300:\n        /* \"#utility.yul\":249:361   */\n    tag_299:\n        /* \"#utility.yul\":370:411   */\n      tag_302\n        /* \"#utility.yul\":404:410   */\n      dup5\n        /* \"#utility.yul\":399:402   */\n      dup3\n        /* \"#utility.yul\":394:397   */\n      dup6\n        /* \"#utility.yul\":370:411   */\n      tag_303\n      jump\t// in\n    tag_302:\n        /* \"#utility.yul\":90:417   */\n      pop\n        /* \"#utility.yul\":7:417   */\n      swap4\n      swap3\n      pop\n      pop\n      pop\n      jump\t// out\n        /* \"#utility.yul\":423:835   */\n    tag_304:\n        /* \"#utility.yul\":501:506   */\n      0x00\n        /* \"#utility.yul\":526:592   */\n      tag_306\n        /* \"#utility.yul\":542:591   */\n      tag_307\n        /* \"#utility.yul\":584:590   */\n      dup5\n        /* \"#utility.yul\":542:591   */\n      tag_308\n      jump\t// in\n    tag_307:\n        /* \"#utility.yul\":526:592   */\n      tag_298\n      jump\t// in\n    tag_306:\n        /* \"#utility.yul\":517:592   */\n      swap1\n      pop\n        /* \"#utility.yul\":615:621   */\n      dup3\n        /* \"#utility.yul\":608:613   */\n      dup2\n        /* \"#utility.yul\":601:622   */\n      mstore\n        /* \"#utility.yul\":653:657   */\n      0x20\n        /* \"#utility.yul\":646:651   */\n      dup2\n        /* \"#utility.yul\":642:658   */\n      add\n        /* \"#utility.yul\":691:694   */\n      dup5\n        /* \"#utility.yul\":682:688   */\n      dup5\n        /* \"#utility.yul\":677:680   */\n      dup5\n        /* \"#utility.yul\":673:689   */\n      add\n        /* \"#utility.yul\":670:695   */\n      gt\n        /* \"#utility.yul\":667:779   */\n      iszero\n      tag_309\n      jumpi\n        /* \"#utility.yul\":698:777   */\n      tag_310\n      tag_301\n      jump\t// in\n    tag_310:\n        /* \"#utility.yul\":667:779   */\n    tag_309:\n        /* \"#utility.yul\":788:829   */\n      tag_311\n        /* \"#utility.yul\":822:828   */\n      dup5\n        /* \"#utility.yul\":817:820   */\n      dup3\n        /* \"#utility.yul\":812:815   */\n      dup6\n        /* \"#utility.yul\":788:829   */\n      tag_303\n      jump\t// in\n    tag_311:\n        /* \"#utility.yul\":507:835   */\n      pop\n        /* \"#utility.yul\":423:835   */\n      swap4\n      swap3\n      pop\n      pop\n      pop\n      jump\t// out\n        /* \"#utility.yul\":841:980   */\n    tag_312:\n        /* \"#utility.yul\":887:892   */\n      0x00\n        /* \"#utility.yul\":925:931   */\n      dup2\n        /* \"#utility.yul\":912:932   */\n      calldataload\n        /* \"#utility.yul\":903:932   */\n      swap1\n      pop\n        /* \"#utility.yul\":941:974   */\n      tag_314\n        /* \"#utility.yul\":968:973   */\n      dup2\n        /* \"#utility.yul\":941:974   */\n      tag_315\n      jump\t// in\n    tag_314:\n        /* \"#utility.yul\":841:980   */\n      swap3\n      swap2\n      pop\n      pop\n      jump\t// out\n        /* \"#utility.yul\":986:1119   */\n    tag_316:\n        /* \"#utility.yul\":1029:1034   */\n      0x00\n        /* \"#utility.yul\":1067:1073   */\n      dup2\n        /* \"#utility.yul\":1054:1074   */\n      calldataload\n        /* \"#utility.yul\":1045:1074   */\n      swap1\n      pop\n        /* \"#utility.yul\":1083:1113   */\n      tag_318\n        /* \"#utility.yul\":1107:1112   */\n      dup2\n        /* \"#utility.yul\":1083:1113   */\n      tag_319\n      jump\t// in\n    tag_318:\n        /* \"#utility.yul\":986:1119   */\n      swap3\n      swap2\n      pop\n      pop\n      jump\t// out\n        /* \"#utility.yul\":1125:1262   */\n    tag_320:\n        /* \"#utility.yul\":1170:1175   */\n      0x00\n        /* \"#utility.yul\":1208:1214   */\n      dup2\n        /* \"#utility.yul\":1195:1215   */\n      calldataload\n        /* \"#utility.yul\":1186:1215   */\n      swap1\n      pop\n        /* \"#utility.yul\":1224:1256   */\n      tag_322\n        /* \"#utility.yul\":1250:1255   */\n      dup2\n        /* \"#utility.yul\":1224:1256   */\n      tag_323\n      jump\t// in\n    tag_322:\n        /* \"#utility.yul\":1125:1262   */\n      swap3\n      swap2\n      pop\n      pop\n      jump\t// out\n        /* \"#utility.yul\":1268:1409   */\n    tag_324:\n        /* \"#utility.yul\":1324:1329   */\n      0x00\n        /* \"#utility.yul\":1355:1361   */\n      dup2\n        /* \"#utility.yul\":1349:1362   */\n      mload\n        /* \"#utility.yul\":1340:1362   */\n      swap1\n      pop\n        /* \"#utility.yul\":1371:1403   */\n      tag_326\n        /* \"#utility.yul\":1397:1402   */\n      dup2\n        /* \"#utility.yul\":1371:1403   */\n      tag_323\n      jump\t// in\n    tag_326:\n        /* \"#utility.yul\":1268:1409   */\n      swap3\n      swap2\n      pop\n      pop\n      jump\t// out\n        /* \"#utility.yul\":1428:1766   */\n    tag_327:\n        /* \"#utility.yul\":1483:1488   */\n      0x00\n        /* \"#utility.yul\":1532:1535   */\n      dup3\n        /* \"#utility.yul\":1525:1529   */\n      0x1f\n        /* \"#utility.yul\":1517:1523   */\n      dup4\n        /* \"#utility.yul\":1513:1530   */\n      add\n        /* \"#utility.yul\":1509:1536   */\n      slt\n        /* \"#utility.yul\":1499:1621   */\n      tag_329\n      jumpi\n        /* \"#utility.yul\":1540:1619   */\n      tag_330\n      tag_331\n      jump\t// in\n    tag_330:\n        /* \"#utility.yul\":1499:1621   */\n    tag_329:\n        /* \"#utility.yul\":1657:1663   */\n      dup2\n        /* \"#utility.yul\":1644:1664   */\n      calldataload\n        /* \"#utility.yul\":1682:1760   */\n      tag_332\n        /* \"#utility.yul\":1756:1759   */\n      dup5\n        /* \"#utility.yul\":1748:1754   */\n      dup3\n        /* \"#utility.yul\":1741:1745   */\n      0x20\n        /* \"#utility.yul\":1733:1739   */\n      dup7\n        /* \"#utility.yul\":1729:1746   */\n      add\n        /* \"#utility.yul\":1682:1760   */\n      tag_293\n      jump\t// in\n    tag_332:\n        /* \"#utility.yul\":1673:1760   */\n      swap2\n      pop\n        /* \"#utility.yul\":1489:1766   */\n      pop\n        /* \"#utility.yul\":1428:1766   */\n      swap3\n      swap2\n      pop\n      pop\n      jump\t// out\n        /* \"#utility.yul\":1786:2126   */\n    tag_333:\n        /* \"#utility.yul\":1842:1847   */\n      0x00\n        /* \"#utility.yul\":1891:1894   */\n      dup3\n        /* \"#utility.yul\":1884:1888   */\n      0x1f\n        /* \"#utility.yul\":1876:1882   */\n      dup4\n        /* \"#utility.yul\":1872:1889   */\n      add\n        /* \"#utility.yul\":1868:1895   */\n      slt\n        /* \"#utility.yul\":1858:1980   */\n      tag_335\n      jumpi\n        /* \"#utility.yul\":1899:1978   */\n      tag_336\n      tag_331\n      jump\t// in\n    tag_336:\n        /* \"#utility.yul\":1858:1980   */\n    tag_335:\n        /* \"#utility.yul\":2016:2022   */\n      dup2\n        /* \"#utility.yul\":2003:2023   */\n      calldataload\n        /* \"#utility.yul\":2041:2120   */\n      tag_337\n        /* \"#utility.yul\":2116:2119   */\n      dup5\n        /* \"#utility.yul\":2108:2114   */\n      dup3\n        /* \"#utility.yul\":2101:2105   */\n      0x20\n        /* \"#utility.yul\":2093:2099   */\n      dup7\n        /* \"#utility.yul\":2089:2106   */\n      add\n        /* \"#utility.yul\":2041:2120   */\n      tag_304\n      jump\t// in\n    tag_337:\n        /* \"#utility.yul\":2032:2120   */\n      swap2\n      pop\n        /* \"#utility.yul\":1848:2126   */\n      pop\n        /* \"#utility.yul\":1786:2126   */\n      swap3\n      swap2\n      pop\n      pop\n      jump\t// out\n        /* \"#utility.yul\":2132:2271   */\n    tag_338:\n        /* \"#utility.yul\":2178:2183   */\n      0x00\n        /* \"#utility.yul\":2216:2222   */\n      dup2\n        /* \"#utility.yul\":2203:2223   */\n      calldataload\n        /* \"#utility.yul\":2194:2223   */\n      swap1\n      pop\n        /* \"#utility.yul\":2232:2265   */\n      tag_340\n        /* \"#utility.yul\":2259:2264   */\n      dup2\n        /* \"#utility.yul\":2232:2265   */\n      tag_341\n      jump\t// in\n    tag_340:\n        /* \"#utility.yul\":2132:2271   */\n      swap3\n      swap2\n      pop\n      pop\n      jump\t// out\n        /* \"#utility.yul\":2277:2606   */\n    tag_60:\n        /* \"#utility.yul\":2336:2342   */\n      0x00\n        /* \"#utility.yul\":2385:2387   */\n      0x20\n        /* \"#utility.yul\":2373:2382   */\n      dup3\n        /* \"#utility.yul\":2364:2371   */\n      dup5\n        /* \"#utility.yul\":2360:2383   */\n      sub\n        /* \"#utility.yul\":2356:2388   */\n      slt\n        /* \"#utility.yul\":2353:2472   */\n      iszero\n      tag_343\n      jumpi\n        /* \"#utility.yul\":2391:2470   */\n      tag_344\n      tag_345\n      jump\t// in\n    tag_344:\n        /* \"#utility.yul\":2353:2472   */\n    tag_343:\n        /* \"#utility.yul\":2511:2512   */\n      0x00\n        /* \"#utility.yul\":2536:2589   */\n      tag_346\n        /* \"#utility.yul\":2581:2588   */\n      dup5\n        /* \"#utility.yul\":2572:2578   */\n      dup3\n        /* \"#utility.yul\":2561:2570   */\n      dup6\n        /* \"#utility.yul\":2557:2579   */\n      add\n        /* \"#utility.yul\":2536:2589   */\n      tag_312\n      jump\t// in\n    tag_346:\n        /* \"#utility.yul\":2526:2589   */\n      swap2\n      pop\n        /* \"#utility.yul\":2482:2599   */\n      pop\n        /* \"#utility.yul\":2277:2606   */\n      swap3\n      swap2\n      pop\n      pop\n      jump\t// out\n        /* \"#utility.yul\":2612:3086   */\n    tag_86:\n        /* \"#utility.yul\":2680:2686   */\n      0x00\n        /* \"#utility.yul\":2688:2694   */\n      dup1\n        /* \"#utility.yul\":2737:2739   */\n      0x40\n        /* \"#utility.yul\":2725:2734   */\n      dup4\n        /* \"#utility.yul\":2716:2723   */\n      dup6\n        /* \"#utility.yul\":2712:2735   */\n      sub\n        /* \"#utility.yul\":2708:2740   */\n      slt\n        /* \"#utility.yul\":2705:2824   */\n      iszero\n      tag_348\n      jumpi\n        /* \"#utility.yul\":2743:2822   */\n      tag_349\n      tag_345\n      jump\t// in\n    tag_349:\n        /* \"#utility.yul\":2705:2824   */\n    tag_348:\n        /* \"#utility.yul\":2863:2864   */\n      0x00\n        /* \"#utility.yul\":2888:2941   */\n      tag_350\n        /* \"#utility.yul\":2933:2940   */\n      dup6\n        /* \"#utility.yul\":2924:2930   */\n      dup3\n        /* \"#utility.yul\":2913:2922   */\n      dup7\n        /* \"#utility.yul\":2909:2931   */\n      add\n        /* \"#utility.yul\":2888:2941   */\n      tag_312\n      jump\t// in\n    tag_350:\n        /* \"#utility.yul\":2878:2941   */\n      swap3\n      pop\n        /* \"#utility.yul\":2834:2951   */\n      pop\n        /* \"#utility.yul\":2990:2992   */\n      0x20\n        /* \"#utility.yul\":3016:3069   */\n      tag_351\n        /* \"#utility.yul\":3061:3068   */\n      dup6\n        /* \"#utility.yul\":3052:3058   */\n      dup3\n        /* \"#utility.yul\":3041:3050   */\n      dup7\n        /* \"#utility.yul\":3037:3059   */\n      add\n        /* \"#utility.yul\":3016:3069   */\n      tag_312\n      jump\t// in\n    tag_351:\n        /* \"#utility.yul\":3006:3069   */\n      swap2\n      pop\n        /* \"#utility.yul\":2961:3079   */\n      pop\n        /* \"#utility.yul\":2612:3086   */\n      swap3\n      pop\n      swap3\n      swap1\n      pop\n      jump\t// out\n        /* \"#utility.yul\":3092:3711   */\n    tag_49:\n        /* \"#utility.yul\":3169:3175   */\n      0x00\n        /* \"#utility.yul\":3177:3183   */\n      dup1\n        /* \"#utility.yul\":3185:3191   */\n      0x00\n        /* \"#utility.yul\":3234:3236   */\n      0x60\n        /* \"#utility.yul\":3222:3231   */\n      dup5\n        /* \"#utility.yul\":3213:3220   */\n      dup7\n        /* \"#utility.yul\":3209:3232   */\n      sub\n        /* \"#utility.yul\":3205:3237   */\n      slt\n        /* \"#utility.yul\":3202:3321   */\n      iszero\n      tag_353\n      jumpi\n        /* \"#utility.yul\":3240:3319   */\n      tag_354\n      tag_345\n      jump\t// in\n    tag_354:\n        /* \"#utility.yul\":3202:3321   */\n    tag_353:\n        /* \"#utility.yul\":3360:3361   */\n      0x00\n        /* \"#utility.yul\":3385:3438   */\n      tag_355\n        /* \"#utility.yul\":3430:3437   */\n      dup7\n        /* \"#utility.yul\":3421:3427   */\n      dup3\n        /* \"#utility.yul\":3410:3419   */\n      dup8\n        /* \"#utility.yul\":3406:3428   */\n      add\n        /* \"#utility.yul\":3385:3438   */\n      tag_312\n      jump\t// in\n    tag_355:\n        /* \"#utility.yul\":3375:3438   */\n      swap4\n      pop\n        /* \"#utility.yul\":3331:3448   */\n      pop\n        /* \"#utility.yul\":3487:3489   */\n      0x20\n        /* \"#utility.yul\":3513:3566   */\n      tag_356\n        /* \"#utility.yul\":3558:3565   */\n      dup7\n        /* \"#utility.yul\":3549:3555   */\n      dup3\n        /* \"#utility.yul\":3538:3547   */\n      dup8\n        /* \"#utility.yul\":3534:3556   */\n      add\n        /* \"#utility.yul\":3513:3566   */\n      tag_312\n      jump\t// in\n    tag_356:\n        /* \"#utility.yul\":3503:3566   */\n      swap3\n      pop\n        /* \"#utility.yul\":3458:3576   */\n      pop\n        /* \"#utility.yul\":3615:3617   */\n      0x40\n        /* \"#utility.yul\":3641:3694   */\n      tag_357\n        /* \"#utility.yul\":3686:3693   */\n      dup7\n        /* \"#utility.yul\":3677:3683   */\n      dup3\n        /* \"#utility.yul\":3666:3675   */\n      dup8\n        /* \"#utility.yul\":3662:3684   */\n      add\n        /* \"#utility.yul\":3641:3694   */\n      tag_338\n      jump\t// in\n    tag_357:\n        /* \"#utility.yul\":3631:3694   */\n      swap2\n      pop\n        /* \"#utility.yul\":3586:3704   */\n      pop\n        /* \"#utility.yul\":3092:3711   */\n      swap3\n      pop\n      swap3\n      pop\n      swap3\n      jump\t// out\n        /* \"#utility.yul\":3717:4660   */\n    tag_78:\n        /* \"#utility.yul\":3812:3818   */\n      0x00\n        /* \"#utility.yul\":3820:3826   */\n      dup1\n        /* \"#utility.yul\":3828:3834   */\n      0x00\n        /* \"#utility.yul\":3836:3842   */\n      dup1\n        /* \"#utility.yul\":3885:3888   */\n      0x80\n        /* \"#utility.yul\":3873:3882   */\n      dup6\n        /* \"#utility.yul\":3864:3871   */\n      dup8\n        /* \"#utility.yul\":3860:3883   */\n      sub\n        /* \"#utility.yul\":3856:3889   */\n      slt\n        /* \"#utility.yul\":3853:3973   */\n      iszero\n      tag_359\n      jumpi\n        /* \"#utility.yul\":3892:3971   */\n      tag_360\n      tag_345\n      jump\t// in\n    tag_360:\n        /* \"#utility.yul\":3853:3973   */\n    tag_359:\n        /* \"#utility.yul\":4012:4013   */\n      0x00\n        /* \"#utility.yul\":4037:4090   */\n      tag_361\n        /* \"#utility.yul\":4082:4089   */\n      dup8\n        /* \"#utility.yul\":4073:4079   */\n      dup3\n        /* \"#utility.yul\":4062:4071   */\n      dup9\n        /* \"#utility.yul\":4058:4080   */\n      add\n        /* \"#utility.yul\":4037:4090   */\n      tag_312\n      jump\t// in\n    tag_361:\n        /* \"#utility.yul\":4027:4090   */\n      swap5\n      pop\n        /* \"#utility.yul\":3983:4100   */\n      pop\n        /* \"#utility.yul\":4139:4141   */\n      0x20\n        /* \"#utility.yul\":4165:4218   */\n      tag_362\n        /* \"#utility.yul\":4210:4217   */\n      dup8\n        /* \"#utility.yul\":4201:4207   */\n      dup3\n        /* \"#utility.yul\":4190:4199   */\n      dup9\n        /* \"#utility.yul\":4186:4208   */\n      add\n        /* \"#utility.yul\":4165:4218   */\n      tag_312\n      jump\t// in\n    tag_362:\n        /* \"#utility.yul\":4155:4218   */\n      swap4\n      pop\n        /* \"#utility.yul\":4110:4228   */\n      pop\n        /* \"#utility.yul\":4267:4269   */\n      0x40\n        /* \"#utility.yul\":4293:4346   */\n      tag_363\n        /* \"#utility.yul\":4338:4345   */\n      dup8\n        /* \"#utility.yul\":4329:4335   */\n      dup3\n        /* \"#utility.yul\":4318:4327   */\n      dup9\n        /* \"#utility.yul\":4314:4336   */\n      add\n        /* \"#utility.yul\":4293:4346   */\n      tag_338\n      jump\t// in\n    tag_363:\n        /* \"#utility.yul\":4283:4346   */\n      swap3\n      pop\n        /* \"#utility.yul\":4238:4356   */\n      pop\n        /* \"#utility.yul\":4423:4425   */\n      0x60\n        /* \"#utility.yul\":4412:4421   */\n      dup6\n        /* \"#utility.yul\":4408:4426   */\n      add\n        /* \"#utility.yul\":4395:4427   */\n      calldataload\n        /* \"#utility.yul\":4454:4472   */\n      0xffffffffffffffff\n        /* \"#utility.yul\":4446:4452   */\n      dup2\n        /* \"#utility.yul\":4443:4473   */\n      gt\n        /* \"#utility.yul\":4440:4557   */\n      iszero\n      tag_364\n      jumpi\n        /* \"#utility.yul\":4476:4555   */\n      tag_365\n      tag_366\n      jump\t// in\n    tag_365:\n        /* \"#utility.yul\":4440:4557   */\n    tag_364:\n        /* \"#utility.yul\":4581:4643   */\n      tag_367\n        /* \"#utility.yul\":4635:4642   */\n      dup8\n        /* \"#utility.yul\":4626:4632   */\n      dup3\n        /* \"#utility.yul\":4615:4624   */\n      dup9\n        /* \"#utility.yul\":4611:4633   */\n      add\n        /* \"#utility.yul\":4581:4643   */\n      tag_327\n      jump\t// in\n    tag_367:\n        /* \"#utility.yul\":4571:4643   */\n      swap2\n      pop\n        /* \"#utility.yul\":4366:4653   */\n      pop\n        /* \"#utility.yul\":3717:4660   */\n      swap3\n      swap6\n      swap2\n      swap5\n      pop\n      swap3\n      pop\n      jump\t// out\n        /* \"#utility.yul\":4666:5134   */\n    tag_69:\n        /* \"#utility.yul\":4731:4737   */\n      0x00\n        /* \"#utility.yul\":4739:4745   */\n      dup1\n        /* \"#utility.yul\":4788:4790   */\n      0x40\n        /* \"#utility.yul\":4776:4785   */\n      dup4\n        /* \"#utility.yul\":4767:4774   */\n      dup6\n        /* \"#utility.yul\":4763:4786   */\n      sub\n        /* \"#utility.yul\":4759:4791   */\n      slt\n        /* \"#utility.yul\":4756:4875   */\n      iszero\n      tag_369\n      jumpi\n        /* \"#utility.yul\":4794:4873   */\n      tag_370\n      tag_345\n      jump\t// in\n    tag_370:\n        /* \"#utility.yul\":4756:4875   */\n    tag_369:\n        /* \"#utility.yul\":4914:4915   */\n      0x00\n        /* \"#utility.yul\":4939:4992   */\n      tag_371\n        /* \"#utility.yul\":4984:4991   */\n      dup6\n        /* \"#utility.yul\":4975:4981   */\n      dup3\n        /* \"#utility.yul\":4964:4973   */\n      dup7\n        /* \"#utility.yul\":4960:4982   */\n      add\n        /* \"#utility.yul\":4939:4992   */\n      tag_312\n      jump\t// in\n    tag_371:\n        /* \"#utility.yul\":4929:4992   */\n      swap3\n      pop\n        /* \"#utility.yul\":4885:5002   */\n      pop\n        /* \"#utility.yul\":5041:5043   */\n      0x20\n        /* \"#utility.yul\":5067:5117   */\n      tag_372\n        /* \"#utility.yul\":5109:5116   */\n      dup6\n        /* \"#utility.yul\":5100:5106   */\n      dup3\n        /* \"#utility.yul\":5089:5098   */\n      dup7\n        /* \"#utility.yul\":5085:5107   */\n      add\n        /* \"#utility.yul\":5067:5117   */\n      tag_316\n      jump\t// in\n    tag_372:\n        /* \"#utility.yul\":5057:5117   */\n      swap2\n      pop\n        /* \"#utility.yul\":5012:5127   */\n      pop\n        /* \"#utility.yul\":4666:5134   */\n      swap3\n      pop\n      swap3\n      swap1\n      pop\n      jump\t// out\n        /* \"#utility.yul\":5140:5614   */\n    tag_45:\n        /* \"#utility.yul\":5208:5214   */\n      0x00\n        /* \"#utility.yul\":5216:5222   */\n      dup1\n        /* \"#utility.yul\":5265:5267   */\n      0x40\n        /* \"#utility.yul\":5253:5262   */\n      dup4\n        /* \"#utility.yul\":5244:5251   */\n      dup6\n        /* \"#utility.yul\":5240:5263   */\n      sub\n        /* \"#utility.yul\":5236:5268   */\n      slt\n        /* \"#utility.yul\":5233:5352   */\n      iszero\n      tag_374\n      jumpi\n        /* \"#utility.yul\":5271:5350   */\n      tag_375\n      tag_345\n      jump\t// in\n    tag_375:\n        /* \"#utility.yul\":5233:5352   */\n    tag_374:\n        /* \"#utility.yul\":5391:5392   */\n      0x00\n        /* \"#utility.yul\":5416:5469   */\n      tag_376\n        /* \"#utility.yul\":5461:5468   */\n      dup6\n        /* \"#utility.yul\":5452:5458   */\n      dup3\n        /* \"#utility.yul\":5441:5450   */\n      dup7\n        /* \"#utility.yul\":5437:5459   */\n      add\n        /* \"#utility.yul\":5416:5469   */\n      tag_312\n      jump\t// in\n    tag_376:\n        /* \"#utility.yul\":5406:5469   */\n      swap3\n      pop\n        /* \"#utility.yul\":5362:5479   */\n      pop\n        /* \"#utility.yul\":5518:5520   */\n      0x20\n        /* \"#utility.yul\":5544:5597   */\n      tag_377\n        /* \"#utility.yul\":5589:5596   */\n      dup6\n        /* \"#utility.yul\":5580:5586   */\n      dup3\n        /* \"#utility.yul\":5569:5578   */\n      dup7\n        /* \"#utility.yul\":5565:5587   */\n      add\n        /* \"#utility.yul\":5544:5597   */\n      tag_338\n      jump\t// in\n    tag_377:\n        /* \"#utility.yul\":5534:5597   */\n      swap2\n      pop\n        /* \"#utility.yul\":5489:5607   */\n      pop\n        /* \"#utility.yul\":5140:5614   */\n      swap3\n      pop\n      swap3\n      swap1\n      pop\n      jump\t// out\n        /* \"#utility.yul\":5620:5947   */\n    tag_23:\n        /* \"#utility.yul\":5678:5684   */\n      0x00\n        /* \"#utility.yul\":5727:5729   */\n      0x20\n        /* \"#utility.yul\":5715:5724   */\n      dup3\n        /* \"#utility.yul\":5706:5713   */\n      dup5\n        /* \"#utility.yul\":5702:5725   */\n      sub\n        /* \"#utility.yul\":5698:5730   */\n      slt\n        /* \"#utility.yul\":5695:5814   */\n      iszero\n      tag_379\n      jumpi\n        /* \"#utility.yul\":5733:5812   */\n      tag_380\n      tag_345\n      jump\t// in\n    tag_380:\n        /* \"#utility.yul\":5695:5814   */\n    tag_379:\n        /* \"#utility.yul\":5853:5854   */\n      0x00\n        /* \"#utility.yul\":5878:5930   */\n      tag_381\n        /* \"#utility.yul\":5922:5929   */\n      dup5\n        /* \"#utility.yul\":5913:5919   */\n      dup3\n        /* \"#utility.yul\":5902:5911   */\n      dup6\n        /* \"#utility.yul\":5898:5920   */\n      add\n        /* \"#utility.yul\":5878:5930   */\n      tag_320\n      jump\t// in\n    tag_381:\n        /* \"#utility.yul\":5868:5930   */\n      swap2\n      pop\n        /* \"#utility.yul\":5824:5940   */\n      pop\n        /* \"#utility.yul\":5620:5947   */\n      swap3\n      swap2\n      pop\n      pop\n      jump\t// out\n        /* \"#utility.yul\":5953:6302   */\n    tag_269:\n        /* \"#utility.yul\":6022:6028   */\n      0x00\n        /* \"#utility.yul\":6071:6073   */\n      0x20\n        /* \"#utility.yul\":6059:6068   */\n      dup3\n        /* \"#utility.yul\":6050:6057   */\n      dup5\n        /* \"#utility.yul\":6046:6069   */\n      sub\n        /* \"#utility.yul\":6042:6074   */\n      slt\n        /* \"#utility.yul\":6039:6158   */\n      iszero\n      tag_383\n      jumpi\n        /* \"#utility.yul\":6077:6156   */\n      tag_384\n      tag_345\n      jump\t// in\n    tag_384:\n        /* \"#utility.yul\":6039:6158   */\n    tag_383:\n        /* \"#utility.yul\":6197:6198   */\n      0x00\n        /* \"#utility.yul\":6222:6285   */\n      tag_385\n        /* \"#utility.yul\":6277:6284   */\n      dup5\n        /* \"#utility.yul\":6268:6274   */\n      dup3\n        /* \"#utility.yul\":6257:6266   */\n      dup6\n        /* \"#utility.yul\":6253:6275   */\n      add\n        /* \"#utility.yul\":6222:6285   */\n      tag_324\n      jump\t// in\n    tag_385:\n        /* \"#utility.yul\":6212:6285   */\n      swap2\n      pop\n        /* \"#utility.yul\":6168:6295   */\n      pop\n        /* \"#utility.yul\":5953:6302   */\n      swap3\n      swap2\n      pop\n      pop\n      jump\t// out\n        /* \"#utility.yul\":6308:6637   */\n    tag_39:\n        /* \"#utility.yul\":6367:6373   */\n      0x00\n        /* \"#utility.yul\":6416:6418   */\n      0x20\n        /* \"#utility.yul\":6404:6413   */\n      dup3\n        /* \"#utility.yul\":6395:6402   */\n      dup5\n        /* \"#utility.yul\":6391:6414   */\n      sub\n        /* \"#utility.yul\":6387:6419   */\n      slt\n        /* \"#utility.yul\":6384:6503   */\n      iszero\n      tag_387\n      jumpi\n        /* \"#utility.yul\":6422:6501   */\n      tag_388\n      tag_345\n      jump\t// in\n    tag_388:\n        /* \"#utility.yul\":6384:6503   */\n    tag_387:\n        /* \"#utility.yul\":6542:6543   */\n      0x00\n        /* \"#utility.yul\":6567:6620   */\n      tag_389\n        /* \"#utility.yul\":6612:6619   */\n      dup5\n        /* \"#utility.yul\":6603:6609   */\n      dup3\n        /* \"#utility.yul\":6592:6601   */\n      dup6\n        /* \"#utility.yul\":6588:6610   */\n      add\n        /* \"#utility.yul\":6567:6620   */\n      tag_338\n      jump\t// in\n    tag_389:\n        /* \"#utility.yul\":6557:6620   */\n      swap2\n      pop\n        /* \"#utility.yul\":6513:6630   */\n      pop\n        /* \"#utility.yul\":6308:6637   */\n      swap3\n      swap2\n      pop\n      pop\n      jump\t// out\n        /* \"#utility.yul\":6643:8026   */\n    tag_29:\n        /* \"#utility.yul\":6766:6772   */\n      0x00\n        /* \"#utility.yul\":6774:6780   */\n      dup1\n        /* \"#utility.yul\":6782:6788   */\n      0x00\n        /* \"#utility.yul\":6790:6796   */\n      dup1\n        /* \"#utility.yul\":6798:6804   */\n      0x00\n        /* \"#utility.yul\":6806:6812   */\n      dup1\n        /* \"#utility.yul\":6814:6820   */\n      0x00\n        /* \"#utility.yul\":6863:6866   */\n      0xe0\n        /* \"#utility.yul\":6851:6860   */\n      dup9\n        /* \"#utility.yul\":6842:6849   */\n      dup11\n        /* \"#utility.yul\":6838:6861   */\n      sub\n        /* \"#utility.yul\":6834:6867   */\n      slt\n        /* \"#utility.yul\":6831:6951   */\n      iszero\n      tag_391\n      jumpi\n        /* \"#utility.yul\":6870:6949   */\n      tag_392\n      tag_345\n      jump\t// in\n    tag_392:\n        /* \"#utility.yul\":6831:6951   */\n    tag_391:\n        /* \"#utility.yul\":6990:6991   */\n      0x00\n        /* \"#utility.yul\":7015:7068   */\n      tag_393\n        /* \"#utility.yul\":7060:7067   */\n      dup11\n        /* \"#utility.yul\":7051:7057   */\n      dup3\n        /* \"#utility.yul\":7040:7049   */\n      dup12\n        /* \"#utility.yul\":7036:7058   */\n      add\n        /* \"#utility.yul\":7015:7068   */\n      tag_338\n      jump\t// in\n    tag_393:\n        /* \"#utility.yul\":7005:7068   */\n      swap8\n      pop\n        /* \"#utility.yul\":6961:7078   */\n      pop\n        /* \"#utility.yul\":7117:7119   */\n      0x20\n        /* \"#utility.yul\":7143:7196   */\n      tag_394\n        /* \"#utility.yul\":7188:7195   */\n      dup11\n        /* \"#utility.yul\":7179:7185   */\n      dup3\n        /* \"#utility.yul\":7168:7177   */\n      dup12\n        /* \"#utility.yul\":7164:7186   */\n      add\n        /* \"#utility.yul\":7143:7196   */\n      tag_338\n      jump\t// in\n    tag_394:\n        /* \"#utility.yul\":7133:7196   */\n      swap7\n      pop\n        /* \"#utility.yul\":7088:7206   */\n      pop\n        /* \"#utility.yul\":7245:7247   */\n      0x40\n        /* \"#utility.yul\":7271:7324   */\n      tag_395\n        /* \"#utility.yul\":7316:7323   */\n      dup11\n        /* \"#utility.yul\":7307:7313   */\n      dup3\n        /* \"#utility.yul\":7296:7305   */\n      dup12\n        /* \"#utility.yul\":7292:7314   */\n      add\n        /* \"#utility.yul\":7271:7324   */\n      tag_338\n      jump\t// in\n    tag_395:\n        /* \"#utility.yul\":7261:7324   */\n      swap6\n      pop\n        /* \"#utility.yul\":7216:7334   */\n      pop\n        /* \"#utility.yul\":7373:7375   */\n      0x60\n        /* \"#utility.yul\":7399:7452   */\n      tag_396\n        /* \"#utility.yul\":7444:7451   */\n      dup11\n        /* \"#utility.yul\":7435:7441   */\n      dup3\n        /* \"#utility.yul\":7424:7433   */\n      dup12\n        /* \"#utility.yul\":7420:7442   */\n      add\n        /* \"#utility.yul\":7399:7452   */\n      tag_338\n      jump\t// in\n    tag_396:\n        /* \"#utility.yul\":7389:7452   */\n      swap5\n      pop\n        /* \"#utility.yul\":7344:7462   */\n      pop\n        /* \"#utility.yul\":7501:7504   */\n      0x80\n        /* \"#utility.yul\":7528:7581   */\n      tag_397\n        /* \"#utility.yul\":7573:7580   */\n      dup11\n        /* \"#utility.yul\":7564:7570   */\n      dup3\n        /* \"#utility.yul\":7553:7562   */\n      dup12\n        /* \"#utility.yul\":7549:7571   */\n      add\n        /* \"#utility.yul\":7528:7581   */\n      tag_338\n      jump\t// in\n    tag_397:\n        /* \"#utility.yul\":7518:7581   */\n      swap4\n      pop\n        /* \"#utility.yul\":7472:7591   */\n      pop\n        /* \"#utility.yul\":7630:7633   */\n      0xa0\n        /* \"#utility.yul\":7657:7710   */\n      tag_398\n        /* \"#utility.yul\":7702:7709   */\n      dup11\n        /* \"#utility.yul\":7693:7699   */\n      dup3\n        /* \"#utility.yul\":7682:7691   */\n      dup12\n        /* \"#utility.yul\":7678:7700   */\n      add\n        /* \"#utility.yul\":7657:7710   */\n      tag_312\n      jump\t// in\n    tag_398:\n        /* \"#utility.yul\":7647:7710   */\n      swap3\n      pop\n        /* \"#utility.yul\":7601:7720   */\n      pop\n        /* \"#utility.yul\":7787:7790   */\n      0xc0\n        /* \"#utility.yul\":7776:7785   */\n      dup9\n        /* \"#utility.yul\":7772:7791   */\n      add\n        /* \"#utility.yul\":7759:7792   */\n      calldataload\n        /* \"#utility.yul\":7819:7837   */\n      0xffffffffffffffff\n        /* \"#utility.yul\":7811:7817   */\n      dup2\n        /* \"#utility.yul\":7808:7838   */\n      gt\n        /* \"#utility.yul\":7805:7922   */\n      iszero\n      tag_399\n      jumpi\n        /* \"#utility.yul\":7841:7920   */\n      tag_400\n      tag_366\n      jump\t// in\n    tag_400:\n        /* \"#utility.yul\":7805:7922   */\n    tag_399:\n        /* \"#utility.yul\":7946:8009   */\n      tag_401\n        /* \"#utility.yul\":8001:8008   */\n      dup11\n        /* \"#utility.yul\":7992:7998   */\n      dup3\n        /* \"#utility.yul\":7981:7990   */\n      dup12\n        /* \"#utility.yul\":7977:7999   */\n      add\n        /* \"#utility.yul\":7946:8009   */\n      tag_333\n      jump\t// in\n    tag_401:\n        /* \"#utility.yul\":7936:8009   */\n      swap2\n      pop\n        /* \"#utility.yul\":7730:8019   */\n      pop\n        /* \"#utility.yul\":6643:8026   */\n      swap3\n      swap6\n      swap9\n      swap2\n      swap5\n      swap8\n      pop\n      swap3\n      swap6\n      pop\n      jump\t// out\n        /* \"#utility.yul\":8032:8140   */\n    tag_402:\n        /* \"#utility.yul\":8109:8133   */\n      tag_404\n        /* \"#utility.yul\":8127:8132   */\n      dup2\n        /* \"#utility.yul\":8109:8133   */\n      tag_405\n      jump\t// in\n    tag_404:\n        /* \"#utility.yul\":8104:8107   */\n      dup3\n        /* \"#utility.yul\":8097:8134   */\n      mstore\n        /* \"#utility.yul\":8032:8140   */\n      pop\n      pop\n      jump\t// out\n        /* \"#utility.yul\":8146:8264   */\n    tag_406:\n        /* \"#utility.yul\":8233:8257   */\n      tag_408\n        /* \"#utility.yul\":8251:8256   */\n      dup2\n        /* \"#utility.yul\":8233:8257   */\n      tag_405\n      jump\t// in\n    tag_408:\n        /* \"#utility.yul\":8228:8231   */\n      dup3\n        /* \"#utility.yul\":8221:8258   */\n      mstore\n        /* \"#utility.yul\":8146:8264   */\n      pop\n      pop\n      jump\t// out\n        /* \"#utility.yul\":8270:8369   */\n    tag_409:\n        /* \"#utility.yul\":8341:8362   */\n      tag_411\n        /* \"#utility.yul\":8356:8361   */\n      dup2\n        /* \"#utility.yul\":8341:8362   */\n      tag_412\n      jump\t// in\n    tag_411:\n        /* \"#utility.yul\":8336:8339   */\n      dup3\n        /* \"#utility.yul\":8329:8363   */\n      mstore\n        /* \"#utility.yul\":8270:8369   */\n      pop\n      pop\n      jump\t// out\n        /* \"#utility.yul\":8375:8484   */\n    tag_413:\n        /* \"#utility.yul\":8456:8477   */\n      tag_415\n        /* \"#utility.yul\":8471:8476   */\n      dup2\n        /* \"#utility.yul\":8456:8477   */\n      tag_412\n      jump\t// in\n    tag_415:\n        /* \"#utility.yul\":8451:8454   */\n      dup3\n        /* \"#utility.yul\":8444:8478   */\n      mstore\n        /* \"#utility.yul\":8375:8484   */\n      pop\n      pop\n      jump\t// out\n        /* \"#utility.yul\":8490:8850   */\n    tag_416:\n        /* \"#utility.yul\":8576:8579   */\n      0x00\n        /* \"#utility.yul\":8604:8642   */\n      tag_418\n        /* \"#utility.yul\":8636:8641   */\n      dup3\n        /* \"#utility.yul\":8604:8642   */\n      tag_419\n      jump\t// in\n    tag_418:\n        /* \"#utility.yul\":8658:8728   */\n      tag_420\n        /* \"#utility.yul\":8721:8727   */\n      dup2\n        /* \"#utility.yul\":8716:8719   */\n      dup6\n        /* \"#utility.yul\":8658:8728   */\n      tag_421\n      jump\t// in\n    tag_420:\n        /* \"#utility.yul\":8651:8728   */\n      swap4\n      pop\n        /* \"#utility.yul\":8737:8789   */\n      tag_422\n        /* \"#utility.yul\":8782:8788   */\n      dup2\n        /* \"#utility.yul\":8777:8780   */\n      dup6\n        /* \"#utility.yul\":8770:8774   */\n      0x20\n        /* \"#utility.yul\":8763:8768   */\n      dup7\n        /* \"#utility.yul\":8759:8775   */\n      add\n        /* \"#utility.yul\":8737:8789   */\n      tag_423\n      jump\t// in\n    tag_422:\n        /* \"#utility.yul\":8814:8843   */\n      tag_424\n        /* \"#utility.yul\":8836:8842   */\n      dup2\n        /* \"#utility.yul\":8814:8843   */\n      tag_425\n      jump\t// in\n    tag_424:\n        /* \"#utility.yul\":8809:8812   */\n      dup5\n        /* \"#utility.yul\":8805:8844   */\n      add\n        /* \"#utility.yul\":8798:8844   */\n      swap2\n      pop\n        /* \"#utility.yul\":8580:8850   */\n      pop\n        /* \"#utility.yul\":8490:8850   */\n      swap3\n      swap2\n      pop\n      pop\n      jump\t// out\n        /* \"#utility.yul\":8856:9200   */\n    tag_426:\n        /* \"#utility.yul\":8934:8937   */\n      0x00\n        /* \"#utility.yul\":8962:9001   */\n      tag_428\n        /* \"#utility.yul\":8995:9000   */\n      dup3\n        /* \"#utility.yul\":8962:9001   */\n      tag_429\n      jump\t// in\n    tag_428:\n        /* \"#utility.yul\":9017:9078   */\n      tag_430\n        /* \"#utility.yul\":9071:9077   */\n      dup2\n        /* \"#utility.yul\":9066:9069   */\n      dup6\n        /* \"#utility.yul\":9017:9078   */\n      tag_431\n      jump\t// in\n    tag_430:\n        /* \"#utility.yul\":9010:9078   */\n      swap4\n      pop\n        /* \"#utility.yul\":9087:9139   */\n      tag_432\n        /* \"#utility.yul\":9132:9138   */\n      dup2\n        /* \"#utility.yul\":9127:9130   */\n      dup6\n        /* \"#utility.yul\":9120:9124   */\n      0x20\n        /* \"#utility.yul\":9113:9118   */\n      dup7\n        /* \"#utility.yul\":9109:9125   */\n      add\n        /* \"#utility.yul\":9087:9139   */\n      tag_423\n      jump\t// in\n    tag_432:\n        /* \"#utility.yul\":9164:9193   */\n      tag_433\n        /* \"#utility.yul\":9186:9192   */\n      dup2\n        /* \"#utility.yul\":9164:9193   */\n      tag_425\n      jump\t// in\n    tag_433:\n        /* \"#utility.yul\":9159:9162   */\n      dup5\n        /* \"#utility.yul\":9155:9194   */\n      add\n        /* \"#utility.yul\":9148:9194   */\n      swap2\n      pop\n        /* \"#utility.yul\":8938:9200   */\n      pop\n        /* \"#utility.yul\":8856:9200   */\n      swap3\n      swap2\n      pop\n      pop\n      jump\t// out\n        /* \"#utility.yul\":9206:9570   */\n    tag_434:\n        /* \"#utility.yul\":9294:9297   */\n      0x00\n        /* \"#utility.yul\":9322:9361   */\n      tag_436\n        /* \"#utility.yul\":9355:9360   */\n      dup3\n        /* \"#utility.yul\":9322:9361   */\n      tag_429\n      jump\t// in\n    tag_436:\n        /* \"#utility.yul\":9377:9448   */\n      tag_437\n        /* \"#utility.yul\":9441:9447   */\n      dup2\n        /* \"#utility.yul\":9436:9439   */\n      dup6\n        /* \"#utility.yul\":9377:9448   */\n      tag_438\n      jump\t// in\n    tag_437:\n        /* \"#utility.yul\":9370:9448   */\n      swap4\n      pop\n        /* \"#utility.yul\":9457:9509   */\n      tag_439\n        /* \"#utility.yul\":9502:9508   */\n      dup2\n        /* \"#utility.yul\":9497:9500   */\n      dup6\n        /* \"#utility.yul\":9490:9494   */\n      0x20\n        /* \"#utility.yul\":9483:9488   */\n      dup7\n        /* \"#utility.yul\":9479:9495   */\n      add\n        /* \"#utility.yul\":9457:9509   */\n      tag_423\n      jump\t// in\n    tag_439:\n        /* \"#utility.yul\":9534:9563   */\n      tag_440\n        /* \"#utility.yul\":9556:9562   */\n      dup2\n        /* \"#utility.yul\":9534:9563   */\n      tag_425\n      jump\t// in\n    tag_440:\n        /* \"#utility.yul\":9529:9532   */\n      dup5\n        /* \"#utility.yul\":9525:9564   */\n      add\n        /* \"#utility.yul\":9518:9564   */\n      swap2\n      pop\n        /* \"#utility.yul\":9298:9570   */\n      pop\n        /* \"#utility.yul\":9206:9570   */\n      swap3\n      swap2\n      pop\n      pop\n      jump\t// out\n        /* \"#utility.yul\":9576:9953   */\n    tag_441:\n        /* \"#utility.yul\":9682:9685   */\n      0x00\n        /* \"#utility.yul\":9710:9749   */\n      tag_443\n        /* \"#utility.yul\":9743:9748   */\n      dup3\n        /* \"#utility.yul\":9710:9749   */\n      tag_429\n      jump\t// in\n    tag_443:\n        /* \"#utility.yul\":9765:9854   */\n      tag_444\n        /* \"#utility.yul\":9847:9853   */\n      dup2\n        /* \"#utility.yul\":9842:9845   */\n      dup6\n        /* \"#utility.yul\":9765:9854   */\n      tag_445\n      jump\t// in\n    tag_444:\n        /* \"#utility.yul\":9758:9854   */\n      swap4\n      pop\n        /* \"#utility.yul\":9863:9915   */\n      tag_446\n        /* \"#utility.yul\":9908:9914   */\n      dup2\n        /* \"#utility.yul\":9903:9906   */\n      dup6\n        /* \"#utility.yul\":9896:9900   */\n      0x20\n        /* \"#utility.yul\":9889:9894   */\n      dup7\n        /* \"#utility.yul\":9885:9901   */\n      add\n        /* \"#utility.yul\":9863:9915   */\n      tag_423\n      jump\t// in\n    tag_446:\n        /* \"#utility.yul\":9940:9946   */\n      dup1\n        /* \"#utility.yul\":9935:9938   */\n      dup5\n        /* \"#utility.yul\":9931:9947   */\n      add\n        /* \"#utility.yul\":9924:9947   */\n      swap2\n      pop\n        /* \"#utility.yul\":9686:9953   */\n      pop\n        /* \"#utility.yul\":9576:9953   */\n      swap3\n      swap2\n      pop\n      pop\n      jump\t// out\n        /* \"#utility.yul\":9959:10325   */\n    tag_447:\n        /* \"#utility.yul\":10101:10104   */\n      0x00\n        /* \"#utility.yul\":10122:10189   */\n      tag_449\n        /* \"#utility.yul\":10186:10188   */\n      0x32\n        /* \"#utility.yul\":10181:10184   */\n      dup4\n        /* \"#utility.yul\":10122:10189   */\n      tag_438\n      jump\t// in\n    tag_449:\n        /* \"#utility.yul\":10115:10189   */\n      swap2\n      pop\n        /* \"#utility.yul\":10198:10291   */\n      tag_450\n        /* \"#utility.yul\":10287:10290   */\n      dup3\n        /* \"#utility.yul\":10198:10291   */\n      tag_451\n      jump\t// in\n    tag_450:\n        /* \"#utility.yul\":10316:10318   */\n      0x40\n        /* \"#utility.yul\":10311:10314   */\n      dup3\n        /* \"#utility.yul\":10307:10319   */\n      add\n        /* \"#utility.yul\":10300:10319   */\n      swap1\n      pop\n        /* \"#utility.yul\":9959:10325   */\n      swap2\n      swap1\n      pop\n      jump\t// out\n        /* \"#utility.yul\":10331:10697   */\n    tag_452:\n        /* \"#utility.yul\":10473:10476   */\n      0x00\n        /* \"#utility.yul\":10494:10561   */\n      tag_454\n        /* \"#utility.yul\":10558:10560   */\n      0x25\n        /* \"#utility.yul\":10553:10556   */\n      dup4\n        /* \"#utility.yul\":10494:10561   */\n      tag_438\n      jump\t// in\n    tag_454:\n        /* \"#utility.yul\":10487:10561   */\n      swap2\n      pop\n        /* \"#utility.yul\":10570:10663   */\n      tag_455\n        /* \"#utility.yul\":10659:10662   */\n      dup3\n        /* \"#utility.yul\":10570:10663   */\n      tag_456\n      jump\t// in\n    tag_455:\n        /* \"#utility.yul\":10688:10690   */\n      0x40\n        /* \"#utility.yul\":10683:10686   */\n      dup3\n        /* \"#utility.yul\":10679:10691   */\n      add\n        /* \"#utility.yul\":10672:10691   */\n      swap1\n      pop\n        /* \"#utility.yul\":10331:10697   */\n      swap2\n      swap1\n      pop\n      jump\t// out\n        /* \"#utility.yul\":10703:11069   */\n    tag_457:\n        /* \"#utility.yul\":10845:10848   */\n      0x00\n        /* \"#utility.yul\":10866:10933   */\n      tag_459\n        /* \"#utility.yul\":10930:10932   */\n      0x24\n        /* \"#utility.yul\":10925:10928   */\n      dup4\n        /* \"#utility.yul\":10866:10933   */\n      tag_438\n      jump\t// in\n    tag_459:\n        /* \"#utility.yul\":10859:10933   */\n      swap2\n      pop\n        /* \"#utility.yul\":10942:11035   */\n      tag_460\n        /* \"#utility.yul\":11031:11034   */\n      dup3\n        /* \"#utility.yul\":10942:11035   */\n      tag_461\n      jump\t// in\n    tag_460:\n        /* \"#utility.yul\":11060:11062   */\n      0x40\n        /* \"#utility.yul\":11055:11058   */\n      dup3\n        /* \"#utility.yul\":11051:11063   */\n      add\n        /* \"#utility.yul\":11044:11063   */\n      swap1\n      pop\n        /* \"#utility.yul\":10703:11069   */\n      swap2\n      swap1\n      pop\n      jump\t// out\n        /* \"#utility.yul\":11075:11441   */\n    tag_462:\n        /* \"#utility.yul\":11217:11220   */\n      0x00\n        /* \"#utility.yul\":11238:11305   */\n      tag_464\n        /* \"#utility.yul\":11302:11304   */\n      0x19\n        /* \"#utility.yul\":11297:11300   */\n      dup4\n        /* \"#utility.yul\":11238:11305   */\n      tag_438\n      jump\t// in\n    tag_464:\n        /* \"#utility.yul\":11231:11305   */\n      swap2\n      pop\n        /* \"#utility.yul\":11314:11407   */\n      tag_465\n        /* \"#utility.yul\":11403:11406   */\n      dup3\n        /* \"#utility.yul\":11314:11407   */\n      tag_466\n      jump\t// in\n    tag_465:\n        /* \"#utility.yul\":11432:11434   */\n      0x20\n        /* \"#utility.yul\":11427:11430   */\n      dup3\n        /* \"#utility.yul\":11423:11435   */\n      add\n        /* \"#utility.yul\":11416:11435   */\n      swap1\n      pop\n        /* \"#utility.yul\":11075:11441   */\n      swap2\n      swap1\n      pop\n      jump\t// out\n        /* \"#utility.yul\":11447:11813   */\n    tag_467:\n        /* \"#utility.yul\":11589:11592   */\n      0x00\n        /* \"#utility.yul\":11610:11677   */\n      tag_469\n        /* \"#utility.yul\":11674:11676   */\n      0x2c\n        /* \"#utility.yul\":11669:11672   */\n      dup4\n        /* \"#utility.yul\":11610:11677   */\n      tag_438\n      jump\t// in\n    tag_469:\n        /* \"#utility.yul\":11603:11677   */\n      swap2\n      pop\n        /* \"#utility.yul\":11686:11779   */\n      tag_470\n        /* \"#utility.yul\":11775:11778   */\n      dup3\n        /* \"#utility.yul\":11686:11779   */\n      tag_471\n      jump\t// in\n    tag_470:\n        /* \"#utility.yul\":11804:11806   */\n      0x40\n        /* \"#utility.yul\":11799:11802   */\n      dup3\n        /* \"#utility.yul\":11795:11807   */\n      add\n        /* \"#utility.yul\":11788:11807   */\n      swap1\n      pop\n        /* \"#utility.yul\":11447:11813   */\n      swap2\n      swap1\n      pop\n      jump\t// out\n        /* \"#utility.yul\":11819:12185   */\n    tag_472:\n        /* \"#utility.yul\":11961:11964   */\n      0x00\n        /* \"#utility.yul\":11982:12049   */\n      tag_474\n        /* \"#utility.yul\":12046:12048   */\n      0x29\n        /* \"#utility.yul\":12041:12044   */\n      dup4\n        /* \"#utility.yul\":11982:12049   */\n      tag_438\n      jump\t// in\n    tag_474:\n        /* \"#utility.yul\":11975:12049   */\n      swap2\n      pop\n        /* \"#utility.yul\":12058:12151   */\n      tag_475\n        /* \"#utility.yul\":12147:12150   */\n      dup3\n        /* \"#utility.yul\":12058:12151   */\n      tag_476\n      jump\t// in\n    tag_475:\n        /* \"#utility.yul\":12176:12178   */\n      0x40\n        /* \"#utility.yul\":12171:12174   */\n      dup3\n        /* \"#utility.yul\":12167:12179   */\n      add\n        /* \"#utility.yul\":12160:12179   */\n      swap1\n      pop\n        /* \"#utility.yul\":11819:12185   */\n      swap2\n      swap1\n      pop\n      jump\t// out\n        /* \"#utility.yul\":12191:12557   */\n    tag_477:\n        /* \"#utility.yul\":12333:12336   */\n      0x00\n        /* \"#utility.yul\":12354:12421   */\n      tag_479\n        /* \"#utility.yul\":12418:12420   */\n      0x38\n        /* \"#utility.yul\":12413:12416   */\n      dup4\n        /* \"#utility.yul\":12354:12421   */\n      tag_438\n      jump\t// in\n    tag_479:\n        /* \"#utility.yul\":12347:12421   */\n      swap2\n      pop\n        /* \"#utility.yul\":12430:12523   */\n      tag_480\n        /* \"#utility.yul\":12519:12522   */\n      dup3\n        /* \"#utility.yul\":12430:12523   */\n      tag_481\n      jump\t// in\n    tag_480:\n        /* \"#utility.yul\":12548:12550   */\n      0x40\n        /* \"#utility.yul\":12543:12546   */\n      dup3\n        /* \"#utility.yul\":12539:12551   */\n      add\n        /* \"#utility.yul\":12532:12551   */\n      swap1\n      pop\n        /* \"#utility.yul\":12191:12557   */\n      swap2\n      swap1\n      pop\n      jump\t// out\n        /* \"#utility.yul\":12563:12929   */\n    tag_482:\n        /* \"#utility.yul\":12705:12708   */\n      0x00\n        /* \"#utility.yul\":12726:12793   */\n      tag_484\n        /* \"#utility.yul\":12790:12792   */\n      0x29\n        /* \"#utility.yul\":12785:12788   */\n      dup4\n        /* \"#utility.yul\":12726:12793   */\n      tag_438\n      jump\t// in\n    tag_484:\n        /* \"#utility.yul\":12719:12793   */\n      swap2\n      pop\n        /* \"#utility.yul\":12802:12895   */\n      tag_485\n        /* \"#utility.yul\":12891:12894   */\n      dup3\n        /* \"#utility.yul\":12802:12895   */\n      tag_486\n      jump\t// in\n    tag_485:\n        /* \"#utility.yul\":12920:12922   */\n      0x40\n        /* \"#utility.yul\":12915:12918   */\n      dup3\n        /* \"#utility.yul\":12911:12923   */\n      add\n        /* \"#utility.yul\":12904:12923   */\n      swap1\n      pop\n        /* \"#utility.yul\":12563:12929   */\n      swap2\n      swap1\n      pop\n      jump\t// out\n        /* \"#utility.yul\":12935:13301   */\n    tag_487:\n        /* \"#utility.yul\":13077:13080   */\n      0x00\n        /* \"#utility.yul\":13098:13165   */\n      tag_489\n        /* \"#utility.yul\":13162:13164   */\n      0x2c\n        /* \"#utility.yul\":13157:13160   */\n      dup4\n        /* \"#utility.yul\":13098:13165   */\n      tag_438\n      jump\t// in\n    tag_489:\n        /* \"#utility.yul\":13091:13165   */\n      swap2\n      pop\n        /* \"#utility.yul\":13174:13267   */\n      tag_490\n        /* \"#utility.yul\":13263:13266   */\n      dup3\n        /* \"#utility.yul\":13174:13267   */\n      tag_491\n      jump\t// in\n    tag_490:\n        /* \"#utility.yul\":13292:13294   */\n      0x40\n        /* \"#utility.yul\":13287:13290   */\n      dup3\n        /* \"#utility.yul\":13283:13295   */\n      add\n        /* \"#utility.yul\":13276:13295   */\n      swap1\n      pop\n        /* \"#utility.yul\":12935:13301   */\n      swap2\n      swap1\n      pop\n      jump\t// out\n        /* \"#utility.yul\":13307:13673   */\n    tag_492:\n        /* \"#utility.yul\":13449:13452   */\n      0x00\n        /* \"#utility.yul\":13470:13537   */\n      tag_494\n        /* \"#utility.yul\":13534:13536   */\n      0x2f\n        /* \"#utility.yul\":13529:13532   */\n      dup4\n        /* \"#utility.yul\":13470:13537   */\n      tag_438\n      jump\t// in\n    tag_494:\n        /* \"#utility.yul\":13463:13537   */\n      swap2\n      pop\n        /* \"#utility.yul\":13546:13639   */\n      tag_495\n        /* \"#utility.yul\":13635:13638   */\n      dup3\n        /* \"#utility.yul\":13546:13639   */\n      tag_496\n      jump\t// in\n    tag_495:\n        /* \"#utility.yul\":13664:13666   */\n      0x40\n        /* \"#utility.yul\":13659:13662   */\n      dup3\n        /* \"#utility.yul\":13655:13667   */\n      add\n        /* \"#utility.yul\":13648:13667   */\n      swap1\n      pop\n        /* \"#utility.yul\":13307:13673   */\n      swap2\n      swap1\n      pop\n      jump\t// out\n        /* \"#utility.yul\":13679:14045   */\n    tag_497:\n        /* \"#utility.yul\":13821:13824   */\n      0x00\n        /* \"#utility.yul\":13842:13909   */\n      tag_499\n        /* \"#utility.yul\":13906:13908   */\n      0x1b\n        /* \"#utility.yul\":13901:13904   */\n      dup4\n        /* \"#utility.yul\":13842:13909   */\n      tag_438\n      jump\t// in\n    tag_499:\n        /* \"#utility.yul\":13835:13909   */\n      swap2\n      pop\n        /* \"#utility.yul\":13918:14011   */\n      tag_500\n        /* \"#utility.yul\":14007:14010   */\n      dup3\n        /* \"#utility.yul\":13918:14011   */\n      tag_501\n      jump\t// in\n    tag_500:\n        /* \"#utility.yul\":14036:14038   */\n      0x20\n        /* \"#utility.yul\":14031:14034   */\n      dup3\n        /* \"#utility.yul\":14027:14039   */\n      add\n        /* \"#utility.yul\":14020:14039   */\n      swap1\n      pop\n        /* \"#utility.yul\":13679:14045   */\n      swap2\n      swap1\n      pop\n      jump\t// out\n        /* \"#utility.yul\":14051:14417   */\n    tag_502:\n        /* \"#utility.yul\":14193:14196   */\n      0x00\n        /* \"#utility.yul\":14214:14281   */\n      tag_504\n        /* \"#utility.yul\":14278:14280   */\n      0x21\n        /* \"#utility.yul\":14273:14276   */\n      dup4\n        /* \"#utility.yul\":14214:14281   */\n      tag_438\n      jump\t// in\n    tag_504:\n        /* \"#utility.yul\":14207:14281   */\n      swap2\n      pop\n        /* \"#utility.yul\":14290:14383   */\n      tag_505\n        /* \"#utility.yul\":14379:14382   */\n      dup3\n        /* \"#utility.yul\":14290:14383   */\n      tag_506\n      jump\t// in\n    tag_505:\n        /* \"#utility.yul\":14408:14410   */\n      0x40\n        /* \"#utility.yul\":14403:14406   */\n      dup3\n        /* \"#utility.yul\":14399:14411   */\n      add\n        /* \"#utility.yul\":14392:14411   */\n      swap1\n      pop\n        /* \"#utility.yul\":14051:14417   */\n      swap2\n      swap1\n      pop\n      jump\t// out\n        /* \"#utility.yul\":14423:14789   */\n    tag_507:\n        /* \"#utility.yul\":14565:14568   */\n      0x00\n        /* \"#utility.yul\":14586:14653   */\n      tag_509\n        /* \"#utility.yul\":14650:14652   */\n      0x31\n        /* \"#utility.yul\":14645:14648   */\n      dup4\n        /* \"#utility.yul\":14586:14653   */\n      tag_438\n      jump\t// in\n    tag_509:\n        /* \"#utility.yul\":14579:14653   */\n      swap2\n      pop\n        /* \"#utility.yul\":14662:14755   */\n      tag_510\n        /* \"#utility.yul\":14751:14754   */\n      dup3\n        /* \"#utility.yul\":14662:14755   */\n      tag_511\n      jump\t// in\n    tag_510:\n        /* \"#utility.yul\":14780:14782   */\n      0x40\n        /* \"#utility.yul\":14775:14778   */\n      dup3\n        /* \"#utility.yul\":14771:14783   */\n      add\n        /* \"#utility.yul\":14764:14783   */\n      swap1\n      pop\n        /* \"#utility.yul\":14423:14789   */\n      swap2\n      swap1\n      pop\n      jump\t// out\n        /* \"#utility.yul\":14845:16708   */\n    tag_512:\n        /* \"#utility.yul\":14956:14959   */\n      0x00\n        /* \"#utility.yul\":14992:14998   */\n      0x0120\n        /* \"#utility.yul\":14987:14990   */\n      dup4\n        /* \"#utility.yul\":14983:14999   */\n      add\n        /* \"#utility.yul\":15079:15083   */\n      0x00\n        /* \"#utility.yul\":15072:15077   */\n      dup4\n        /* \"#utility.yul\":15068:15084   */\n      add\n        /* \"#utility.yul\":15062:15085   */\n      mload\n        /* \"#utility.yul\":15098:15161   */\n      tag_514\n        /* \"#utility.yul\":15155:15159   */\n      0x00\n        /* \"#utility.yul\":15150:15153   */\n      dup7\n        /* \"#utility.yul\":15146:15160   */\n      add\n        /* \"#utility.yul\":15132:15144   */\n      dup3\n        /* \"#utility.yul\":15098:15161   */\n      tag_515\n      jump\t// in\n    tag_514:\n        /* \"#utility.yul\":15009:15171   */\n      pop\n        /* \"#utility.yul\":15261:15265   */\n      0x20\n        /* \"#utility.yul\":15254:15259   */\n      dup4\n        /* \"#utility.yul\":15250:15266   */\n      add\n        /* \"#utility.yul\":15244:15267   */\n      mload\n        /* \"#utility.yul\":15280:15343   */\n      tag_516\n        /* \"#utility.yul\":15337:15341   */\n      0x20\n        /* \"#utility.yul\":15332:15335   */\n      dup7\n        /* \"#utility.yul\":15328:15342   */\n      add\n        /* \"#utility.yul\":15314:15326   */\n      dup3\n        /* \"#utility.yul\":15280:15343   */\n      tag_515\n      jump\t// in\n    tag_516:\n        /* \"#utility.yul\":15181:15353   */\n      pop\n        /* \"#utility.yul\":15436:15440   */\n      0x40\n        /* \"#utility.yul\":15429:15434   */\n      dup4\n        /* \"#utility.yul\":15425:15441   */\n      add\n        /* \"#utility.yul\":15419:15442   */\n      mload\n        /* \"#utility.yul\":15455:15518   */\n      tag_517\n        /* \"#utility.yul\":15512:15516   */\n      0x40\n        /* \"#utility.yul\":15507:15510   */\n      dup7\n        /* \"#utility.yul\":15503:15517   */\n      add\n        /* \"#utility.yul\":15489:15501   */\n      dup3\n        /* \"#utility.yul\":15455:15518   */\n      tag_515\n      jump\t// in\n    tag_517:\n        /* \"#utility.yul\":15363:15528   */\n      pop\n        /* \"#utility.yul\":15614:15618   */\n      0x60\n        /* \"#utility.yul\":15607:15612   */\n      dup4\n        /* \"#utility.yul\":15603:15619   */\n      add\n        /* \"#utility.yul\":15597:15620   */\n      mload\n        /* \"#utility.yul\":15633:15696   */\n      tag_518\n        /* \"#utility.yul\":15690:15694   */\n      0x60\n        /* \"#utility.yul\":15685:15688   */\n      dup7\n        /* \"#utility.yul\":15681:15695   */\n      add\n        /* \"#utility.yul\":15667:15679   */\n      dup3\n        /* \"#utility.yul\":15633:15696   */\n      tag_515\n      jump\t// in\n    tag_518:\n        /* \"#utility.yul\":15538:15706   */\n      pop\n        /* \"#utility.yul\":15788:15792   */\n      0x80\n        /* \"#utility.yul\":15781:15786   */\n      dup4\n        /* \"#utility.yul\":15777:15793   */\n      add\n        /* \"#utility.yul\":15771:15794   */\n      mload\n        /* \"#utility.yul\":15807:15870   */\n      tag_519\n        /* \"#utility.yul\":15864:15868   */\n      0x80\n        /* \"#utility.yul\":15859:15862   */\n      dup7\n        /* \"#utility.yul\":15855:15869   */\n      add\n        /* \"#utility.yul\":15841:15853   */\n      dup3\n        /* \"#utility.yul\":15807:15870   */\n      tag_515\n      jump\t// in\n    tag_519:\n        /* \"#utility.yul\":15716:15880   */\n      pop\n        /* \"#utility.yul\":15971:15975   */\n      0xa0\n        /* \"#utility.yul\":15964:15969   */\n      dup4\n        /* \"#utility.yul\":15960:15976   */\n      add\n        /* \"#utility.yul\":15954:15977   */\n      mload\n        /* \"#utility.yul\":15990:16053   */\n      tag_520\n        /* \"#utility.yul\":16047:16051   */\n      0xa0\n        /* \"#utility.yul\":16042:16045   */\n      dup7\n        /* \"#utility.yul\":16038:16052   */\n      add\n        /* \"#utility.yul\":16024:16036   */\n      dup3\n        /* \"#utility.yul\":15990:16053   */\n      tag_402\n      jump\t// in\n    tag_520:\n        /* \"#utility.yul\":15890:16063   */\n      pop\n        /* \"#utility.yul\":16153:16157   */\n      0xc0\n        /* \"#utility.yul\":16146:16151   */\n      dup4\n        /* \"#utility.yul\":16142:16158   */\n      add\n        /* \"#utility.yul\":16136:16159   */\n      mload\n        /* \"#utility.yul\":16172:16235   */\n      tag_521\n        /* \"#utility.yul\":16229:16233   */\n      0xc0\n        /* \"#utility.yul\":16224:16227   */\n      dup7\n        /* \"#utility.yul\":16220:16234   */\n      add\n        /* \"#utility.yul\":16206:16218   */\n      dup3\n        /* \"#utility.yul\":16172:16235   */\n      tag_402\n      jump\t// in\n    tag_521:\n        /* \"#utility.yul\":16073:16245   */\n      pop\n        /* \"#utility.yul\":16335:16339   */\n      0xe0\n        /* \"#utility.yul\":16328:16333   */\n      dup4\n        /* \"#utility.yul\":16324:16340   */\n      add\n        /* \"#utility.yul\":16318:16341   */\n      mload\n        /* \"#utility.yul\":16388:16391   */\n      dup5\n        /* \"#utility.yul\":16382:16386   */\n      dup3\n        /* \"#utility.yul\":16378:16392   */\n      sub\n        /* \"#utility.yul\":16371:16375   */\n      0xe0\n        /* \"#utility.yul\":16366:16369   */\n      dup7\n        /* \"#utility.yul\":16362:16376   */\n      add\n        /* \"#utility.yul\":16355:16393   */\n      mstore\n        /* \"#utility.yul\":16414:16487   */\n      tag_522\n        /* \"#utility.yul\":16482:16486   */\n      dup3\n        /* \"#utility.yul\":16468:16480   */\n      dup3\n        /* \"#utility.yul\":16414:16487   */\n      tag_426\n      jump\t// in\n    tag_522:\n        /* \"#utility.yul\":16406:16487   */\n      swap2\n      pop\n        /* \"#utility.yul\":16255:16498   */\n      pop\n        /* \"#utility.yul\":16591:16597   */\n      0x0100\n        /* \"#utility.yul\":16584:16589   */\n      dup4\n        /* \"#utility.yul\":16580:16598   */\n      add\n        /* \"#utility.yul\":16574:16599   */\n      mload\n        /* \"#utility.yul\":16612:16671   */\n      tag_523\n        /* \"#utility.yul\":16663:16669   */\n      0x0100\n        /* \"#utility.yul\":16658:16661   */\n      dup7\n        /* \"#utility.yul\":16654:16670   */\n      add\n        /* \"#utility.yul\":16640:16652   */\n      dup3\n        /* \"#utility.yul\":16612:16671   */\n      tag_409\n      jump\t// in\n    tag_523:\n        /* \"#utility.yul\":16508:16681   */\n      pop\n        /* \"#utility.yul\":16698:16702   */\n      dup1\n        /* \"#utility.yul\":16691:16702   */\n      swap2\n      pop\n        /* \"#utility.yul\":14961:16708   */\n      pop\n        /* \"#utility.yul\":14845:16708   */\n      swap3\n      swap2\n      pop\n      pop\n      jump\t// out\n        /* \"#utility.yul\":16714:16822   */\n    tag_515:\n        /* \"#utility.yul\":16791:16815   */\n      tag_525\n        /* \"#utility.yul\":16809:16814   */\n      dup2\n        /* \"#utility.yul\":16791:16815   */\n      tag_526\n      jump\t// in\n    tag_525:\n        /* \"#utility.yul\":16786:16789   */\n      dup3\n        /* \"#utility.yul\":16779:16816   */\n      mstore\n        /* \"#utility.yul\":16714:16822   */\n      pop\n      pop\n      jump\t// out\n        /* \"#utility.yul\":16828:16946   */\n    tag_527:\n        /* \"#utility.yul\":16915:16939   */\n      tag_529\n        /* \"#utility.yul\":16933:16938   */\n      dup2\n        /* \"#utility.yul\":16915:16939   */\n      tag_526\n      jump\t// in\n    tag_529:\n        /* \"#utility.yul\":16910:16913   */\n      dup3\n        /* \"#utility.yul\":16903:16940   */\n      mstore\n        /* \"#utility.yul\":16828:16946   */\n      pop\n      pop\n      jump\t// out\n        /* \"#utility.yul\":16952:17387   */\n    tag_188:\n        /* \"#utility.yul\":17132:17135   */\n      0x00\n        /* \"#utility.yul\":17154:17249   */\n      tag_531\n        /* \"#utility.yul\":17245:17248   */\n      dup3\n        /* \"#utility.yul\":17236:17242   */\n      dup6\n        /* \"#utility.yul\":17154:17249   */\n      tag_441\n      jump\t// in\n    tag_531:\n        /* \"#utility.yul\":17147:17249   */\n      swap2\n      pop\n        /* \"#utility.yul\":17266:17361   */\n      tag_532\n        /* \"#utility.yul\":17357:17360   */\n      dup3\n        /* \"#utility.yul\":17348:17354   */\n      dup5\n        /* \"#utility.yul\":17266:17361   */\n      tag_441\n      jump\t// in\n    tag_532:\n        /* \"#utility.yul\":17259:17361   */\n      swap2\n      pop\n        /* \"#utility.yul\":17378:17381   */\n      dup2\n        /* \"#utility.yul\":17371:17381   */\n      swap1\n      pop\n        /* \"#utility.yul\":16952:17387   */\n      swap4\n      swap3\n      pop\n      pop\n      pop\n      jump\t// out\n        /* \"#utility.yul\":17393:17615   */\n    tag_42:\n        /* \"#utility.yul\":17486:17490   */\n      0x00\n        /* \"#utility.yul\":17524:17526   */\n      0x20\n        /* \"#utility.yul\":17513:17522   */\n      dup3\n        /* \"#utility.yul\":17509:17527   */\n      add\n        /* \"#utility.yul\":17501:17527   */\n      swap1\n      pop\n        /* \"#utility.yul\":17537:17608   */\n      tag_534\n        /* \"#utility.yul\":17605:17606   */\n      0x00\n        /* \"#utility.yul\":17594:17603   */\n      dup4\n        /* \"#utility.yul\":17590:17607   */\n      add\n        /* \"#utility.yul\":17581:17587   */\n      dup5\n        /* \"#utility.yul\":17537:17608   */\n      tag_406\n      jump\t// in\n    tag_534:\n        /* \"#utility.yul\":17393:17615   */\n      swap3\n      swap2\n      pop\n      pop\n      jump\t// out\n        /* \"#utility.yul\":17621:18261   */\n    tag_265:\n        /* \"#utility.yul\":17816:17820   */\n      0x00\n        /* \"#utility.yul\":17854:17857   */\n      0x80\n        /* \"#utility.yul\":17843:17852   */\n      dup3\n        /* \"#utility.yul\":17839:17858   */\n      add\n        /* \"#utility.yul\":17831:17858   */\n      swap1\n      pop\n        /* \"#utility.yul\":17868:17939   */\n      tag_536\n        /* \"#utility.yul\":17936:17937   */\n      0x00\n        /* \"#utility.yul\":17925:17934   */\n      dup4\n        /* \"#utility.yul\":17921:17938   */\n      add\n        /* \"#utility.yul\":17912:17918   */\n      dup8\n        /* \"#utility.yul\":17868:17939   */\n      tag_406\n      jump\t// in\n    tag_536:\n        /* \"#utility.yul\":17949:18021   */\n      tag_537\n        /* \"#utility.yul\":18017:18019   */\n      0x20\n        /* \"#utility.yul\":18006:18015   */\n      dup4\n        /* \"#utility.yul\":18002:18020   */\n      add\n        /* \"#utility.yul\":17993:17999   */\n      dup7\n        /* \"#utility.yul\":17949:18021   */\n      tag_406\n      jump\t// in\n    tag_537:\n        /* \"#utility.yul\":18031:18103   */\n      tag_538\n        /* \"#utility.yul\":18099:18101   */\n      0x40\n        /* \"#utility.yul\":18088:18097   */\n      dup4\n        /* \"#utility.yul\":18084:18102   */\n      add\n        /* \"#utility.yul\":18075:18081   */\n      dup6\n        /* \"#utility.yul\":18031:18103   */\n      tag_527\n      jump\t// in\n    tag_538:\n        /* \"#utility.yul\":18150:18159   */\n      dup2\n        /* \"#utility.yul\":18144:18148   */\n      dup2\n        /* \"#utility.yul\":18140:18160   */\n      sub\n        /* \"#utility.yul\":18135:18137   */\n      0x60\n        /* \"#utility.yul\":18124:18133   */\n      dup4\n        /* \"#utility.yul\":18120:18138   */\n      add\n        /* \"#utility.yul\":18113:18161   */\n      mstore\n        /* \"#utility.yul\":18178:18254   */\n      tag_539\n        /* \"#utility.yul\":18249:18253   */\n      dup2\n        /* \"#utility.yul\":18240:18246   */\n      dup5\n        /* \"#utility.yul\":18178:18254   */\n      tag_416\n      jump\t// in\n    tag_539:\n        /* \"#utility.yul\":18170:18254   */\n      swap1\n      pop\n        /* \"#utility.yul\":17621:18261   */\n      swap6\n      swap5\n      pop\n      pop\n      pop\n      pop\n      pop\n      jump\t// out\n        /* \"#utility.yul\":18267:18477   */\n    tag_26:\n        /* \"#utility.yul\":18354:18358   */\n      0x00\n        /* \"#utility.yul\":18392:18394   */\n      0x20\n        /* \"#utility.yul\":18381:18390   */\n      dup3\n        /* \"#utility.yul\":18377:18395   */\n      add\n        /* \"#utility.yul\":18369:18395   */\n      swap1\n      pop\n        /* \"#utility.yul\":18405:18470   */\n      tag_541\n        /* \"#utility.yul\":18467:18468   */\n      0x00\n        /* \"#utility.yul\":18456:18465   */\n      dup4\n        /* \"#utility.yul\":18452:18469   */\n      add\n        /* \"#utility.yul\":18443:18449   */\n      dup5\n        /* \"#utility.yul\":18405:18470   */\n      tag_413\n      jump\t// in\n    tag_541:\n        /* \"#utility.yul\":18267:18477   */\n      swap3\n      swap2\n      pop\n      pop\n      jump\t// out\n        /* \"#utility.yul\":18483:18796   */\n    tag_36:\n        /* \"#utility.yul\":18596:18600   */\n      0x00\n        /* \"#utility.yul\":18634:18636   */\n      0x20\n        /* \"#utility.yul\":18623:18632   */\n      dup3\n        /* \"#utility.yul\":18619:18637   */\n      add\n        /* \"#utility.yul\":18611:18637   */\n      swap1\n      pop\n        /* \"#utility.yul\":18683:18692   */\n      dup2\n        /* \"#utility.yul\":18677:18681   */\n      dup2\n        /* \"#utility.yul\":18673:18693   */\n      sub\n        /* \"#utility.yul\":18669:18670   */\n      0x00\n        /* \"#utility.yul\":18658:18667   */\n      dup4\n        /* \"#utility.yul\":18654:18671   */\n      add\n        /* \"#utility.yul\":18647:18694   */\n      mstore\n        /* \"#utility.yul\":18711:18789   */\n      tag_543\n        /* \"#utility.yul\":18784:18788   */\n      dup2\n        /* \"#utility.yul\":18775:18781   */\n      dup5\n        /* \"#utility.yul\":18711:18789   */\n      tag_434\n      jump\t// in\n    tag_543:\n        /* \"#utility.yul\":18703:18789   */\n      swap1\n      pop\n        /* \"#utility.yul\":18483:18796   */\n      swap3\n      swap2\n      pop\n      pop\n      jump\t// out\n        /* \"#utility.yul\":18802:19221   */\n    tag_233:\n        /* \"#utility.yul\":18968:18972   */\n      0x00\n        /* \"#utility.yul\":19006:19008   */\n      0x20\n        /* \"#utility.yul\":18995:19004   */\n      dup3\n        /* \"#utility.yul\":18991:19009   */\n      add\n        /* \"#utility.yul\":18983:19009   */\n      swap1\n      pop\n        /* \"#utility.yul\":19055:19064   */\n      dup2\n        /* \"#utility.yul\":19049:19053   */\n      dup2\n        /* \"#utility.yul\":19045:19065   */\n      sub\n        /* \"#utility.yul\":19041:19042   */\n      0x00\n        /* \"#utility.yul\":19030:19039   */\n      dup4\n        /* \"#utility.yul\":19026:19043   */\n      add\n        /* \"#utility.yul\":19019:19066   */\n      mstore\n        /* \"#utility.yul\":19083:19214   */\n      tag_545\n        /* \"#utility.yul\":19209:19213   */\n      dup2\n        /* \"#utility.yul\":19083:19214   */\n      tag_447\n      jump\t// in\n    tag_545:\n        /* \"#utility.yul\":19075:19214   */\n      swap1\n      pop\n        /* \"#utility.yul\":18802:19221   */\n      swap2\n      swap1\n      pop\n      jump\t// out\n        /* \"#utility.yul\":19227:19646   */\n    tag_209:\n        /* \"#utility.yul\":19393:19397   */\n      0x00\n        /* \"#utility.yul\":19431:19433   */\n      0x20\n        /* \"#utility.yul\":19420:19429   */\n      dup3\n        /* \"#utility.yul\":19416:19434   */\n      add\n        /* \"#utility.yul\":19408:19434   */\n      swap1\n      pop\n        /* \"#utility.yul\":19480:19489   */\n      dup2\n        /* \"#utility.yul\":19474:19478   */\n      dup2\n        /* \"#utility.yul\":19470:19490   */\n      sub\n        /* \"#utility.yul\":19466:19467   */\n      0x00\n        /* \"#utility.yul\":19455:19464   */\n      dup4\n        /* \"#utility.yul\":19451:19468   */\n      add\n        /* \"#utility.yul\":19444:19491   */\n      mstore\n        /* \"#utility.yul\":19508:19639   */\n      tag_547\n        /* \"#utility.yul\":19634:19638   */\n      dup2\n        /* \"#utility.yul\":19508:19639   */\n      tag_452\n      jump\t// in\n    tag_547:\n        /* \"#utility.yul\":19500:19639   */\n      swap1\n      pop\n        /* \"#utility.yul\":19227:19646   */\n      swap2\n      swap1\n      pop\n      jump\t// out\n        /* \"#utility.yul\":19652:20071   */\n    tag_212:\n        /* \"#utility.yul\":19818:19822   */\n      0x00\n        /* \"#utility.yul\":19856:19858   */\n      0x20\n        /* \"#utility.yul\":19845:19854   */\n      dup3\n        /* \"#utility.yul\":19841:19859   */\n      add\n        /* \"#utility.yul\":19833:19859   */\n      swap1\n      pop\n        /* \"#utility.yul\":19905:19914   */\n      dup2\n        /* \"#utility.yul\":19899:19903   */\n      dup2\n        /* \"#utility.yul\":19895:19915   */\n      sub\n        /* \"#utility.yul\":19891:19892   */\n      0x00\n        /* \"#utility.yul\":19880:19889   */\n      dup4\n        /* \"#utility.yul\":19876:19893   */\n      add\n        /* \"#utility.yul\":19869:19916   */\n      mstore\n        /* \"#utility.yul\":19933:20064   */\n      tag_549\n        /* \"#utility.yul\":20059:20063   */\n      dup2\n        /* \"#utility.yul\":19933:20064   */\n      tag_457\n      jump\t// in\n    tag_549:\n        /* \"#utility.yul\":19925:20064   */\n      swap1\n      pop\n        /* \"#utility.yul\":19652:20071   */\n      swap2\n      swap1\n      pop\n      jump\t// out\n        /* \"#utility.yul\":20077:20496   */\n    tag_225:\n        /* \"#utility.yul\":20243:20247   */\n      0x00\n        /* \"#utility.yul\":20281:20283   */\n      0x20\n        /* \"#utility.yul\":20270:20279   */\n      dup3\n        /* \"#utility.yul\":20266:20284   */\n      add\n        /* \"#utility.yul\":20258:20284   */\n      swap1\n      pop\n        /* \"#utility.yul\":20330:20339   */\n      dup2\n        /* \"#utility.yul\":20324:20328   */\n      dup2\n        /* \"#utility.yul\":20320:20340   */\n      sub\n        /* \"#utility.yul\":20316:20317   */\n      0x00\n        /* \"#utility.yul\":20305:20314   */\n      dup4\n        /* \"#utility.yul\":20301:20318   */\n      add\n        /* \"#utility.yul\":20294:20341   */\n      mstore\n        /* \"#utility.yul\":20358:20489   */\n      tag_551\n        /* \"#utility.yul\":20484:20488   */\n      dup2\n        /* \"#utility.yul\":20358:20489   */\n      tag_462\n      jump\t// in\n    tag_551:\n        /* \"#utility.yul\":20350:20489   */\n      swap1\n      pop\n        /* \"#utility.yul\":20077:20496   */\n      swap2\n      swap1\n      pop\n      jump\t// out\n        /* \"#utility.yul\":20502:20921   */\n    tag_199:\n        /* \"#utility.yul\":20668:20672   */\n      0x00\n        /* \"#utility.yul\":20706:20708   */\n      0x20\n        /* \"#utility.yul\":20695:20704   */\n      dup3\n        /* \"#utility.yul\":20691:20709   */\n      add\n        /* \"#utility.yul\":20683:20709   */\n      swap1\n      pop\n        /* \"#utility.yul\":20755:20764   */\n      dup2\n        /* \"#utility.yul\":20749:20753   */\n      dup2\n        /* \"#utility.yul\":20745:20765   */\n      sub\n        /* \"#utility.yul\":20741:20742   */\n      0x00\n        /* \"#utility.yul\":20730:20739   */\n      dup4\n        /* \"#utility.yul\":20726:20743   */\n      add\n        /* \"#utility.yul\":20719:20766   */\n      mstore\n        /* \"#utility.yul\":20783:20914   */\n      tag_553\n        /* \"#utility.yul\":20909:20913   */\n      dup2\n        /* \"#utility.yul\":20783:20914   */\n      tag_467\n      jump\t// in\n    tag_553:\n        /* \"#utility.yul\":20775:20914   */\n      swap1\n      pop\n        /* \"#utility.yul\":20502:20921   */\n      swap2\n      swap1\n      pop\n      jump\t// out\n        /* \"#utility.yul\":20927:21346   */\n    tag_153:\n        /* \"#utility.yul\":21093:21097   */\n      0x00\n        /* \"#utility.yul\":21131:21133   */\n      0x20\n        /* \"#utility.yul\":21120:21129   */\n      dup3\n        /* \"#utility.yul\":21116:21134   */\n      add\n        /* \"#utility.yul\":21108:21134   */\n      swap1\n      pop\n        /* \"#utility.yul\":21180:21189   */\n      dup2\n        /* \"#utility.yul\":21174:21178   */\n      dup2\n        /* \"#utility.yul\":21170:21190   */\n      sub\n        /* \"#utility.yul\":21166:21167   */\n      0x00\n        /* \"#utility.yul\":21155:21164   */\n      dup4\n        /* \"#utility.yul\":21151:21168   */\n      add\n        /* \"#utility.yul\":21144:21191   */\n      mstore\n        /* \"#utility.yul\":21208:21339   */\n      tag_555\n        /* \"#utility.yul\":21334:21338   */\n      dup2\n        /* \"#utility.yul\":21208:21339   */\n      tag_472\n      jump\t// in\n    tag_555:\n        /* \"#utility.yul\":21200:21339   */\n      swap1\n      pop\n        /* \"#utility.yul\":20927:21346   */\n      swap2\n      swap1\n      pop\n      jump\t// out\n        /* \"#utility.yul\":21352:21771   */\n    tag_132:\n        /* \"#utility.yul\":21518:21522   */\n      0x00\n        /* \"#utility.yul\":21556:21558   */\n      0x20\n        /* \"#utility.yul\":21545:21554   */\n      dup3\n        /* \"#utility.yul\":21541:21559   */\n      add\n        /* \"#utility.yul\":21533:21559   */\n      swap1\n      pop\n        /* \"#utility.yul\":21605:21614   */\n      dup2\n        /* \"#utility.yul\":21599:21603   */\n      dup2\n        /* \"#utility.yul\":21595:21615   */\n      sub\n        /* \"#utility.yul\":21591:21592   */\n      0x00\n        /* \"#utility.yul\":21580:21589   */\n      dup4\n        /* \"#utility.yul\":21576:21593   */\n      add\n        /* \"#utility.yul\":21569:21616   */\n      mstore\n        /* \"#utility.yul\":21633:21764   */\n      tag_557\n        /* \"#utility.yul\":21759:21763   */\n      dup2\n        /* \"#utility.yul\":21633:21764   */\n      tag_477\n      jump\t// in\n    tag_557:\n        /* \"#utility.yul\":21625:21764   */\n      swap1\n      pop\n        /* \"#utility.yul\":21352:21771   */\n      swap2\n      swap1\n      pop\n      jump\t// out\n        /* \"#utility.yul\":21777:22196   */\n    tag_149:\n        /* \"#utility.yul\":21943:21947   */\n      0x00\n        /* \"#utility.yul\":21981:21983   */\n      0x20\n        /* \"#utility.yul\":21970:21979   */\n      dup3\n        /* \"#utility.yul\":21966:21984   */\n      add\n        /* \"#utility.yul\":21958:21984   */\n      swap1\n      pop\n        /* \"#utility.yul\":22030:22039   */\n      dup2\n        /* \"#utility.yul\":22024:22028   */\n      dup2\n        /* \"#utility.yul\":22020:22040   */\n      sub\n        /* \"#utility.yul\":22016:22017   */\n      0x00\n        /* \"#utility.yul\":22005:22014   */\n      dup4\n        /* \"#utility.yul\":22001:22018   */\n      add\n        /* \"#utility.yul\":21994:22041   */\n      mstore\n        /* \"#utility.yul\":22058:22189   */\n      tag_559\n        /* \"#utility.yul\":22184:22188   */\n      dup2\n        /* \"#utility.yul\":22058:22189   */\n      tag_482\n      jump\t// in\n    tag_559:\n        /* \"#utility.yul\":22050:22189   */\n      swap1\n      pop\n        /* \"#utility.yul\":21777:22196   */\n      swap2\n      swap1\n      pop\n      jump\t// out\n        /* \"#utility.yul\":22202:22621   */\n    tag_119:\n        /* \"#utility.yul\":22368:22372   */\n      0x00\n        /* \"#utility.yul\":22406:22408   */\n      0x20\n        /* \"#utility.yul\":22395:22404   */\n      dup3\n        /* \"#utility.yul\":22391:22409   */\n      add\n        /* \"#utility.yul\":22383:22409   */\n      swap1\n      pop\n        /* \"#utility.yul\":22455:22464   */\n      dup2\n        /* \"#utility.yul\":22449:22453   */\n      dup2\n        /* \"#utility.yul\":22445:22465   */\n      sub\n        /* \"#utility.yul\":22441:22442   */\n      0x00\n        /* \"#utility.yul\":22430:22439   */\n      dup4\n        /* \"#utility.yul\":22426:22443   */\n      add\n        /* \"#utility.yul\":22419:22466   */\n      mstore\n        /* \"#utility.yul\":22483:22614   */\n      tag_561\n        /* \"#utility.yul\":22609:22613   */\n      dup2\n        /* \"#utility.yul\":22483:22614   */\n      tag_487\n      jump\t// in\n    tag_561:\n        /* \"#utility.yul\":22475:22614   */\n      swap1\n      pop\n        /* \"#utility.yul\":22202:22621   */\n      swap2\n      swap1\n      pop\n      jump\t// out\n        /* \"#utility.yul\":22627:23046   */\n    tag_180:\n        /* \"#utility.yul\":22793:22797   */\n      0x00\n        /* \"#utility.yul\":22831:22833   */\n      0x20\n        /* \"#utility.yul\":22820:22829   */\n      dup3\n        /* \"#utility.yul\":22816:22834   */\n      add\n        /* \"#utility.yul\":22808:22834   */\n      swap1\n      pop\n        /* \"#utility.yul\":22880:22889   */\n      dup2\n        /* \"#utility.yul\":22874:22878   */\n      dup2\n        /* \"#utility.yul\":22870:22890   */\n      sub\n        /* \"#utility.yul\":22866:22867   */\n      0x00\n        /* \"#utility.yul\":22855:22864   */\n      dup4\n        /* \"#utility.yul\":22851:22868   */\n      add\n        /* \"#utility.yul\":22844:22891   */\n      mstore\n        /* \"#utility.yul\":22908:23039   */\n      tag_563\n        /* \"#utility.yul\":23034:23038   */\n      dup2\n        /* \"#utility.yul\":22908:23039   */\n      tag_492\n      jump\t// in\n    tag_563:\n        /* \"#utility.yul\":22900:23039   */\n      swap1\n      pop\n        /* \"#utility.yul\":22627:23046   */\n      swap2\n      swap1\n      pop\n      jump\t// out\n        /* \"#utility.yul\":23052:23471   */\n    tag_99:\n        /* \"#utility.yul\":23218:23222   */\n      0x00\n        /* \"#utility.yul\":23256:23258   */\n      0x20\n        /* \"#utility.yul\":23245:23254   */\n      dup3\n        /* \"#utility.yul\":23241:23259   */\n      add\n        /* \"#utility.yul\":23233:23259   */\n      swap1\n      pop\n        /* \"#utility.yul\":23305:23314   */\n      dup2\n        /* \"#utility.yul\":23299:23303   */\n      dup2\n        /* \"#utility.yul\":23295:23315   */\n      sub\n        /* \"#utility.yul\":23291:23292   */\n      0x00\n        /* \"#utility.yul\":23280:23289   */\n      dup4\n        /* \"#utility.yul\":23276:23293   */\n      add\n        /* \"#utility.yul\":23269:23316   */\n      mstore\n        /* \"#utility.yul\":23333:23464   */\n      tag_565\n        /* \"#utility.yul\":23459:23463   */\n      dup2\n        /* \"#utility.yul\":23333:23464   */\n      tag_497\n      jump\t// in\n    tag_565:\n        /* \"#utility.yul\":23325:23464   */\n      swap1\n      pop\n        /* \"#utility.yul\":23052:23471   */\n      swap2\n      swap1\n      pop\n      jump\t// out\n        /* \"#utility.yul\":23477:23896   */\n    tag_124:\n        /* \"#utility.yul\":23643:23647   */\n      0x00\n        /* \"#utility.yul\":23681:23683   */\n      0x20\n        /* \"#utility.yul\":23670:23679   */\n      dup3\n        /* \"#utility.yul\":23666:23684   */\n      add\n        /* \"#utility.yul\":23658:23684   */\n      swap1\n      pop\n        /* \"#utility.yul\":23730:23739   */\n      dup2\n        /* \"#utility.yul\":23724:23728   */\n      dup2\n        /* \"#utility.yul\":23720:23740   */\n      sub\n        /* \"#utility.yul\":23716:23717   */\n      0x00\n        /* \"#utility.yul\":23705:23714   */\n      dup4\n        /* \"#utility.yul\":23701:23718   */\n      add\n        /* \"#utility.yul\":23694:23741   */\n      mstore\n        /* \"#utility.yul\":23758:23889   */\n      tag_567\n        /* \"#utility.yul\":23884:23888   */\n      dup2\n        /* \"#utility.yul\":23758:23889   */\n      tag_502\n      jump\t// in\n    tag_567:\n        /* \"#utility.yul\":23750:23889   */\n      swap1\n      pop\n        /* \"#utility.yul\":23477:23896   */\n      swap2\n      swap1\n      pop\n      jump\t// out\n        /* \"#utility.yul\":23902:24321   */\n    tag_141:\n        /* \"#utility.yul\":24068:24072   */\n      0x00\n        /* \"#utility.yul\":24106:24108   */\n      0x20\n        /* \"#utility.yul\":24095:24104   */\n      dup3\n        /* \"#utility.yul\":24091:24109   */\n      add\n        /* \"#utility.yul\":24083:24109   */\n      swap1\n      pop\n        /* \"#utility.yul\":24155:24164   */\n      dup2\n        /* \"#utility.yul\":24149:24153   */\n      dup2\n        /* \"#utility.yul\":24145:24165   */\n      sub\n        /* \"#utility.yul\":24141:24142   */\n      0x00\n        /* \"#utility.yul\":24130:24139   */\n      dup4\n        /* \"#utility.yul\":24126:24143   */\n      add\n        /* \"#utility.yul\":24119:24166   */\n      mstore\n        /* \"#utility.yul\":24183:24314   */\n      tag_569\n        /* \"#utility.yul\":24309:24313   */\n      dup2\n        /* \"#utility.yul\":24183:24314   */\n      tag_507\n      jump\t// in\n    tag_569:\n        /* \"#utility.yul\":24175:24314   */\n      swap1\n      pop\n        /* \"#utility.yul\":23902:24321   */\n      swap2\n      swap1\n      pop\n      jump\t// out\n        /* \"#utility.yul\":24327:24684   */\n    tag_32:\n        /* \"#utility.yul\":24462:24466   */\n      0x00\n        /* \"#utility.yul\":24500:24502   */\n      0x20\n        /* \"#utility.yul\":24489:24498   */\n      dup3\n        /* \"#utility.yul\":24485:24503   */\n      add\n        /* \"#utility.yul\":24477:24503   */\n      swap1\n      pop\n        /* \"#utility.yul\":24549:24558   */\n      dup2\n        /* \"#utility.yul\":24543:24547   */\n      dup2\n        /* \"#utility.yul\":24539:24559   */\n      sub\n        /* \"#utility.yul\":24535:24536   */\n      0x00\n        /* \"#utility.yul\":24524:24533   */\n      dup4\n        /* \"#utility.yul\":24520:24537   */\n      add\n        /* \"#utility.yul\":24513:24560   */\n      mstore\n        /* \"#utility.yul\":24577:24677   */\n      tag_571\n        /* \"#utility.yul\":24672:24676   */\n      dup2\n        /* \"#utility.yul\":24663:24669   */\n      dup5\n        /* \"#utility.yul\":24577:24677   */\n      tag_512\n      jump\t// in\n    tag_571:\n        /* \"#utility.yul\":24569:24677   */\n      swap1\n      pop\n        /* \"#utility.yul\":24327:24684   */\n      swap3\n      swap2\n      pop\n      pop\n      jump\t// out\n        /* \"#utility.yul\":24690:24912   */\n    tag_63:\n        /* \"#utility.yul\":24783:24787   */\n      0x00\n        /* \"#utility.yul\":24821:24823   */\n      0x20\n        /* \"#utility.yul\":24810:24819   */\n      dup3\n        /* \"#utility.yul\":24806:24824   */\n      add\n        /* \"#utility.yul\":24798:24824   */\n      swap1\n      pop\n        /* \"#utility.yul\":24834:24905   */\n      tag_573\n        /* \"#utility.yul\":24902:24903   */\n      0x00\n        /* \"#utility.yul\":24891:24900   */\n      dup4\n        /* \"#utility.yul\":24887:24904   */\n      add\n        /* \"#utility.yul\":24878:24884   */\n      dup5\n        /* \"#utility.yul\":24834:24905   */\n      tag_527\n      jump\t// in\n    tag_573:\n        /* \"#utility.yul\":24690:24912   */\n      swap3\n      swap2\n      pop\n      pop\n      jump\t// out\n        /* \"#utility.yul\":24918:26105   */\n    tag_75:\n        /* \"#utility.yul\":25249:25253   */\n      0x00\n        /* \"#utility.yul\":25287:25290   */\n      0x0120\n        /* \"#utility.yul\":25276:25285   */\n      dup3\n        /* \"#utility.yul\":25272:25291   */\n      add\n        /* \"#utility.yul\":25264:25291   */\n      swap1\n      pop\n        /* \"#utility.yul\":25301:25372   */\n      tag_575\n        /* \"#utility.yul\":25369:25370   */\n      0x00\n        /* \"#utility.yul\":25358:25367   */\n      dup4\n        /* \"#utility.yul\":25354:25371   */\n      add\n        /* \"#utility.yul\":25345:25351   */\n      dup13\n        /* \"#utility.yul\":25301:25372   */\n      tag_527\n      jump\t// in\n    tag_575:\n        /* \"#utility.yul\":25382:25454   */\n      tag_576\n        /* \"#utility.yul\":25450:25452   */\n      0x20\n        /* \"#utility.yul\":25439:25448   */\n      dup4\n        /* \"#utility.yul\":25435:25453   */\n      add\n        /* \"#utility.yul\":25426:25432   */\n      dup12\n        /* \"#utility.yul\":25382:25454   */\n      tag_527\n      jump\t// in\n    tag_576:\n        /* \"#utility.yul\":25464:25536   */\n      tag_577\n        /* \"#utility.yul\":25532:25534   */\n      0x40\n        /* \"#utility.yul\":25521:25530   */\n      dup4\n        /* \"#utility.yul\":25517:25535   */\n      add\n        /* \"#utility.yul\":25508:25514   */\n      dup11\n        /* \"#utility.yul\":25464:25536   */\n      tag_527\n      jump\t// in\n    tag_577:\n        /* \"#utility.yul\":25546:25618   */\n      tag_578\n        /* \"#utility.yul\":25614:25616   */\n      0x60\n        /* \"#utility.yul\":25603:25612   */\n      dup4\n        /* \"#utility.yul\":25599:25617   */\n      add\n        /* \"#utility.yul\":25590:25596   */\n      dup10\n        /* \"#utility.yul\":25546:25618   */\n      tag_527\n      jump\t// in\n    tag_578:\n        /* \"#utility.yul\":25628:25701   */\n      tag_579\n        /* \"#utility.yul\":25696:25699   */\n      0x80\n        /* \"#utility.yul\":25685:25694   */\n      dup4\n        /* \"#utility.yul\":25681:25700   */\n      add\n        /* \"#utility.yul\":25672:25678   */\n      dup9\n        /* \"#utility.yul\":25628:25701   */\n      tag_527\n      jump\t// in\n    tag_579:\n        /* \"#utility.yul\":25711:25784   */\n      tag_580\n        /* \"#utility.yul\":25779:25782   */\n      0xa0\n        /* \"#utility.yul\":25768:25777   */\n      dup4\n        /* \"#utility.yul\":25764:25783   */\n      add\n        /* \"#utility.yul\":25755:25761   */\n      dup8\n        /* \"#utility.yul\":25711:25784   */\n      tag_406\n      jump\t// in\n    tag_580:\n        /* \"#utility.yul\":25794:25867   */\n      tag_581\n        /* \"#utility.yul\":25862:25865   */\n      0xc0\n        /* \"#utility.yul\":25851:25860   */\n      dup4\n        /* \"#utility.yul\":25847:25866   */\n      add\n        /* \"#utility.yul\":25838:25844   */\n      dup7\n        /* \"#utility.yul\":25794:25867   */\n      tag_406\n      jump\t// in\n    tag_581:\n        /* \"#utility.yul\":25915:25924   */\n      dup2\n        /* \"#utility.yul\":25909:25913   */\n      dup2\n        /* \"#utility.yul\":25905:25925   */\n      sub\n        /* \"#utility.yul\":25899:25902   */\n      0xe0\n        /* \"#utility.yul\":25888:25897   */\n      dup4\n        /* \"#utility.yul\":25884:25903   */\n      add\n        /* \"#utility.yul\":25877:25926   */\n      mstore\n        /* \"#utility.yul\":25943:26021   */\n      tag_582\n        /* \"#utility.yul\":26016:26020   */\n      dup2\n        /* \"#utility.yul\":26007:26013   */\n      dup6\n        /* \"#utility.yul\":25943:26021   */\n      tag_434\n      jump\t// in\n    tag_582:\n        /* \"#utility.yul\":25935:26021   */\n      swap1\n      pop\n        /* \"#utility.yul\":26031:26098   */\n      tag_583\n        /* \"#utility.yul\":26093:26096   */\n      0x0100\n        /* \"#utility.yul\":26082:26091   */\n      dup4\n        /* \"#utility.yul\":26078:26097   */\n      add\n        /* \"#utility.yul\":26069:26075   */\n      dup5\n        /* \"#utility.yul\":26031:26098   */\n      tag_413\n      jump\t// in\n    tag_583:\n        /* \"#utility.yul\":24918:26105   */\n      swap11\n      swap10\n      pop\n      pop\n      pop\n      pop\n      pop\n      pop\n      pop\n      pop\n      pop\n      pop\n      jump\t// out\n        /* \"#utility.yul\":26111:26240   */\n    tag_298:\n        /* \"#utility.yul\":26145:26151   */\n      0x00\n        /* \"#utility.yul\":26172:26192   */\n      tag_585\n      tag_586\n      jump\t// in\n    tag_585:\n        /* \"#utility.yul\":26162:26192   */\n      swap1\n      pop\n        /* \"#utility.yul\":26201:26234   */\n      tag_587\n        /* \"#utility.yul\":26229:26233   */\n      dup3\n        /* \"#utility.yul\":26221:26227   */\n      dup3\n        /* \"#utility.yul\":26201:26234   */\n      tag_588\n      jump\t// in\n    tag_587:\n        /* \"#utility.yul\":26111:26240   */\n      swap2\n      swap1\n      pop\n      jump\t// out\n        /* \"#utility.yul\":26246:26321   */\n    tag_586:\n        /* \"#utility.yul\":26279:26285   */\n      0x00\n        /* \"#utility.yul\":26312:26314   */\n      0x40\n        /* \"#utility.yul\":26306:26315   */\n      mload\n        /* \"#utility.yul\":26296:26315   */\n      swap1\n      pop\n        /* \"#utility.yul\":26246:26321   */\n      swap1\n      jump\t// out\n        /* \"#utility.yul\":26327:26634   */\n    tag_297:\n        /* \"#utility.yul\":26388:26392   */\n      0x00\n        /* \"#utility.yul\":26478:26496   */\n      0xffffffffffffffff\n        /* \"#utility.yul\":26470:26476   */\n      dup3\n        /* \"#utility.yul\":26467:26497   */\n      gt\n        /* \"#utility.yul\":26464:26520   */\n      iszero\n      tag_591\n      jumpi\n        /* \"#utility.yul\":26500:26518   */\n      tag_592\n      tag_245\n      jump\t// in\n    tag_592:\n        /* \"#utility.yul\":26464:26520   */\n    tag_591:\n        /* \"#utility.yul\":26538:26567   */\n      tag_593\n        /* \"#utility.yul\":26560:26566   */\n      dup3\n        /* \"#utility.yul\":26538:26567   */\n      tag_425\n      jump\t// in\n    tag_593:\n        /* \"#utility.yul\":26530:26567   */\n      swap1\n      pop\n        /* \"#utility.yul\":26622:26626   */\n      0x20\n        /* \"#utility.yul\":26616:26620   */\n      dup2\n        /* \"#utility.yul\":26612:26627   */\n      add\n        /* \"#utility.yul\":26604:26627   */\n      swap1\n      pop\n        /* \"#utility.yul\":26327:26634   */\n      swap2\n      swap1\n      pop\n      jump\t// out\n        /* \"#utility.yul\":26640:26948   */\n    tag_308:\n        /* \"#utility.yul\":26702:26706   */\n      0x00\n        /* \"#utility.yul\":26792:26810   */\n      0xffffffffffffffff\n        /* \"#utility.yul\":26784:26790   */\n      dup3\n        /* \"#utility.yul\":26781:26811   */\n      gt\n        /* \"#utility.yul\":26778:26834   */\n      iszero\n      tag_595\n      jumpi\n        /* \"#utility.yul\":26814:26832   */\n      tag_596\n      tag_245\n      jump\t// in\n    tag_596:\n        /* \"#utility.yul\":26778:26834   */\n    tag_595:\n        /* \"#utility.yul\":26852:26881   */\n      tag_597\n        /* \"#utility.yul\":26874:26880   */\n      dup3\n        /* \"#utility.yul\":26852:26881   */\n      tag_425\n      jump\t// in\n    tag_597:\n        /* \"#utility.yul\":26844:26881   */\n      swap1\n      pop\n        /* \"#utility.yul\":26936:26940   */\n      0x20\n        /* \"#utility.yul\":26930:26934   */\n      dup2\n        /* \"#utility.yul\":26926:26941   */\n      add\n        /* \"#utility.yul\":26918:26941   */\n      swap1\n      pop\n        /* \"#utility.yul\":26640:26948   */\n      swap2\n      swap1\n      pop\n      jump\t// out\n        /* \"#utility.yul\":26954:27052   */\n    tag_419:\n        /* \"#utility.yul\":27005:27011   */\n      0x00\n        /* \"#utility.yul\":27039:27044   */\n      dup2\n        /* \"#utility.yul\":27033:27045   */\n      mload\n        /* \"#utility.yul\":27023:27045   */\n      swap1\n      pop\n        /* \"#utility.yul\":26954:27052   */\n      swap2\n      swap1\n      pop\n      jump\t// out\n        /* \"#utility.yul\":27058:27157   */\n    tag_429:\n        /* \"#utility.yul\":27110:27116   */\n      0x00\n        /* \"#utility.yul\":27144:27149   */\n      dup2\n        /* \"#utility.yul\":27138:27150   */\n      mload\n        /* \"#utility.yul\":27128:27150   */\n      swap1\n      pop\n        /* \"#utility.yul\":27058:27157   */\n      swap2\n      swap1\n      pop\n      jump\t// out\n        /* \"#utility.yul\":27163:27331   */\n    tag_421:\n        /* \"#utility.yul\":27246:27257   */\n      0x00\n        /* \"#utility.yul\":27280:27286   */\n      dup3\n        /* \"#utility.yul\":27275:27278   */\n      dup3\n        /* \"#utility.yul\":27268:27287   */\n      mstore\n        /* \"#utility.yul\":27320:27324   */\n      0x20\n        /* \"#utility.yul\":27315:27318   */\n      dup3\n        /* \"#utility.yul\":27311:27325   */\n      add\n        /* \"#utility.yul\":27296:27325   */\n      swap1\n      pop\n        /* \"#utility.yul\":27163:27331   */\n      swap3\n      swap2\n      pop\n      pop\n      jump\t// out\n        /* \"#utility.yul\":27337:27496   */\n    tag_431:\n        /* \"#utility.yul\":27411:27422   */\n      0x00\n        /* \"#utility.yul\":27445:27451   */\n      dup3\n        /* \"#utility.yul\":27440:27443   */\n      dup3\n        /* \"#utility.yul\":27433:27452   */\n      mstore\n        /* \"#utility.yul\":27485:27489   */\n      0x20\n        /* \"#utility.yul\":27480:27483   */\n      dup3\n        /* \"#utility.yul\":27476:27490   */\n      add\n        /* \"#utility.yul\":27461:27490   */\n      swap1\n      pop\n        /* \"#utility.yul\":27337:27496   */\n      swap3\n      swap2\n      pop\n      pop\n      jump\t// out\n        /* \"#utility.yul\":27502:27671   */\n    tag_438:\n        /* \"#utility.yul\":27586:27597   */\n      0x00\n        /* \"#utility.yul\":27620:27626   */\n      dup3\n        /* \"#utility.yul\":27615:27618   */\n      dup3\n        /* \"#utility.yul\":27608:27627   */\n      mstore\n        /* \"#utility.yul\":27660:27664   */\n      0x20\n        /* \"#utility.yul\":27655:27658   */\n      dup3\n        /* \"#utility.yul\":27651:27665   */\n      add\n        /* \"#utility.yul\":27636:27665   */\n      swap1\n      pop\n        /* \"#utility.yul\":27502:27671   */\n      swap3\n      swap2\n      pop\n      pop\n      jump\t// out\n        /* \"#utility.yul\":27677:27825   */\n    tag_445:\n        /* \"#utility.yul\":27779:27790   */\n      0x00\n        /* \"#utility.yul\":27816:27819   */\n      dup2\n        /* \"#utility.yul\":27801:27819   */\n      swap1\n      pop\n        /* \"#utility.yul\":27677:27825   */\n      swap3\n      swap2\n      pop\n      pop\n      jump\t// out\n        /* \"#utility.yul\":27831:28136   */\n    tag_219:\n        /* \"#utility.yul\":27871:27874   */\n      0x00\n        /* \"#utility.yul\":27890:27910   */\n      tag_605\n        /* \"#utility.yul\":27908:27909   */\n      dup3\n        /* \"#utility.yul\":27890:27910   */\n      tag_526\n      jump\t// in\n    tag_605:\n        /* \"#utility.yul\":27885:27910   */\n      swap2\n      pop\n        /* \"#utility.yul\":27924:27944   */\n      tag_606\n        /* \"#utility.yul\":27942:27943   */\n      dup4\n        /* \"#utility.yul\":27924:27944   */\n      tag_526\n      jump\t// in\n    tag_606:\n        /* \"#utility.yul\":27919:27944   */\n      swap3\n      pop\n        /* \"#utility.yul\":28078:28079   */\n      dup3\n        /* \"#utility.yul\":28010:28076   */\n      0xffffffffffffffffffffffffffffffffffffffffffffffffffffffffffffffff\n        /* \"#utility.yul\":28006:28080   */\n      sub\n        /* \"#utility.yul\":28003:28004   */\n      dup3\n        /* \"#utility.yul\":28000:28081   */\n      gt\n        /* \"#utility.yul\":27997:28104   */\n      iszero\n      tag_607\n      jumpi\n        /* \"#utility.yul\":28084:28102   */\n      tag_608\n      tag_609\n      jump\t// in\n    tag_608:\n        /* \"#utility.yul\":27997:28104   */\n    tag_607:\n        /* \"#utility.yul\":28128:28129   */\n      dup3\n        /* \"#utility.yul\":28125:28126   */\n      dup3\n        /* \"#utility.yul\":28121:28130   */\n      add\n        /* \"#utility.yul\":28114:28130   */\n      swap1\n      pop\n        /* \"#utility.yul\":27831:28136   */\n      swap3\n      swap2\n      pop\n      pop\n      jump\t// out\n        /* \"#utility.yul\":28142:28327   */\n    tag_242:\n        /* \"#utility.yul\":28182:28183   */\n      0x00\n        /* \"#utility.yul\":28199:28219   */\n      tag_611\n        /* \"#utility.yul\":28217:28218   */\n      dup3\n        /* \"#utility.yul\":28199:28219   */\n      tag_526\n      jump\t// in\n    tag_611:\n        /* \"#utility.yul\":28194:28219   */\n      swap2\n      pop\n        /* \"#utility.yul\":28233:28253   */\n      tag_612\n        /* \"#utility.yul\":28251:28252   */\n      dup4\n        /* \"#utility.yul\":28233:28253   */\n      tag_526\n      jump\t// in\n    tag_612:\n        /* \"#utility.yul\":28228:28253   */\n      swap3\n      pop\n        /* \"#utility.yul\":28272:28273   */\n      dup3\n        /* \"#utility.yul\":28262:28297   */\n      tag_613\n      jumpi\n        /* \"#utility.yul\":28277:28295   */\n      tag_614\n      tag_615\n      jump\t// in\n    tag_614:\n        /* \"#utility.yul\":28262:28297   */\n    tag_613:\n        /* \"#utility.yul\":28319:28320   */\n      dup3\n        /* \"#utility.yul\":28316:28317   */\n      dup3\n        /* \"#utility.yul\":28312:28321   */\n      div\n        /* \"#utility.yul\":28307:28321   */\n      swap1\n      pop\n        /* \"#utility.yul\":28142:28327   */\n      swap3\n      swap2\n      pop\n      pop\n      jump\t// out\n        /* \"#utility.yul\":28333:28524   */\n    tag_217:\n        /* \"#utility.yul\":28373:28377   */\n      0x00\n        /* \"#utility.yul\":28393:28413   */\n      tag_617\n        /* \"#utility.yul\":28411:28412   */\n      dup3\n        /* \"#utility.yul\":28393:28413   */\n      tag_526\n      jump\t// in\n    tag_617:\n        /* \"#utility.yul\":28388:28413   */\n      swap2\n      pop\n        /* \"#utility.yul\":28427:28447   */\n      tag_618\n        /* \"#utility.yul\":28445:28446   */\n      dup4\n        /* \"#utility.yul\":28427:28447   */\n      tag_526\n      jump\t// in\n    tag_618:\n        /* \"#utility.yul\":28422:28447   */\n      swap3\n      pop\n        /* \"#utility.yul\":28466:28467   */\n      dup3\n        /* \"#utility.yul\":28463:28464   */\n      dup3\n        /* \"#utility.yul\":28460:28468   */\n      lt\n        /* \"#utility.yul\":28457:28491   */\n      iszero\n      tag_619\n      jumpi\n        /* \"#utility.yul\":28471:28489   */\n      tag_620\n      tag_609\n      jump\t// in\n    tag_620:\n        /* \"#utility.yul\":28457:28491   */\n    tag_619:\n        /* \"#utility.yul\":28516:28517   */\n      dup3\n        /* \"#utility.yul\":28513:28514   */\n      dup3\n        /* \"#utility.yul\":28509:28518   */\n      sub\n        /* \"#utility.yul\":28501:28518   */\n      swap1\n      pop\n        /* \"#utility.yul\":28333:28524   */\n      swap3\n      swap2\n      pop\n      pop\n      jump\t// out\n        /* \"#utility.yul\":28530:28626   */\n    tag_405:\n        /* \"#utility.yul\":28567:28574   */\n      0x00\n        /* \"#utility.yul\":28596:28620   */\n      tag_622\n        /* \"#utility.yul\":28614:28619   */\n      dup3\n        /* \"#utility.yul\":28596:28620   */\n      tag_623\n      jump\t// in\n    tag_622:\n        /* \"#utility.yul\":28585:28620   */\n      swap1\n      pop\n        /* \"#utility.yul\":28530:28626   */\n      swap2\n      swap1\n      pop\n      jump\t// out\n        /* \"#utility.yul\":28632:28722   */\n    tag_412:\n        /* \"#utility.yul\":28666:28673   */\n      0x00\n        /* \"#utility.yul\":28709:28714   */\n      dup2\n        /* \"#utility.yul\":28702:28715   */\n      iszero\n        /* \"#utility.yul\":28695:28716   */\n      iszero\n        /* \"#utility.yul\":28684:28716   */\n      swap1\n      pop\n        /* \"#utility.yul\":28632:28722   */\n      swap2\n      swap1\n      pop\n      jump\t// out\n        /* \"#utility.yul\":28728:28877   */\n    tag_625:\n        /* \"#utility.yul\":28764:28771   */\n      0x00\n        /* \"#utility.yul\":28804:28870   */\n      0xffffffff00000000000000000000000000000000000000000000000000000000\n        /* \"#utility.yul\":28797:28802   */\n      dup3\n        /* \"#utility.yul\":28793:28871   */\n      and\n        /* \"#utility.yul\":28782:28871   */\n      swap1\n      pop\n        /* \"#utility.yul\":28728:28877   */\n      swap2\n      swap1\n      pop\n      jump\t// out\n        /* \"#utility.yul\":28883:29009   */\n    tag_623:\n        /* \"#utility.yul\":28920:28927   */\n      0x00\n        /* \"#utility.yul\":28960:29002   */\n      0xffffffffffffffffffffffffffffffffffffffff\n        /* \"#utility.yul\":28953:28958   */\n      dup3\n        /* \"#utility.yul\":28949:29003   */\n      and\n        /* \"#utility.yul\":28938:29003   */\n      swap1\n      pop\n        /* \"#utility.yul\":28883:29009   */\n      swap2\n      swap1\n      pop\n      jump\t// out\n        /* \"#utility.yul\":29015:29092   */\n    tag_526:\n        /* \"#utility.yul\":29052:29059   */\n      0x00\n        /* \"#utility.yul\":29081:29086   */\n      dup2\n        /* \"#utility.yul\":29070:29086   */\n      swap1\n      pop\n        /* \"#utility.yul\":29015:29092   */\n      swap2\n      swap1\n      pop\n      jump\t// out\n        /* \"#utility.yul\":29098:29252   */\n    tag_303:\n        /* \"#utility.yul\":29182:29188   */\n      dup3\n        /* \"#utility.yul\":29177:29180   */\n      dup2\n        /* \"#utility.yul\":29172:29175   */\n      dup4\n        /* \"#utility.yul\":29159:29189   */\n      calldatacopy\n        /* \"#utility.yul\":29244:29245   */\n      0x00\n        /* \"#utility.yul\":29235:29241   */\n      dup4\n        /* \"#utility.yul\":29230:29233   */\n      dup4\n        /* \"#utility.yul\":29226:29242   */\n      add\n        /* \"#utility.yul\":29219:29246   */\n      mstore\n        /* \"#utility.yul\":29098:29252   */\n      pop\n      pop\n      pop\n      jump\t// out\n        /* \"#utility.yul\":29258:29565   */\n    tag_423:\n        /* \"#utility.yul\":29326:29327   */\n      0x00\n        /* \"#utility.yul\":29336:29449   */\n    tag_631:\n        /* \"#utility.yul\":29350:29356   */\n      dup4\n        /* \"#utility.yul\":29347:29348   */\n      dup2\n        /* \"#utility.yul\":29344:29357   */\n      lt\n        /* \"#utility.yul\":29336:29449   */\n      iszero\n      tag_633\n      jumpi\n        /* \"#utility.yul\":29435:29436   */\n      dup1\n        /* \"#utility.yul\":29430:29433   */\n      dup3\n        /* \"#utility.yul\":29426:29437   */\n      add\n        /* \"#utility.yul\":29420:29438   */\n      mload\n        /* \"#utility.yul\":29416:29417   */\n      dup2\n        /* \"#utility.yul\":29411:29414   */\n      dup5\n        /* \"#utility.yul\":29407:29418   */\n      add\n        /* \"#utility.yul\":29400:29439   */\n      mstore\n        /* \"#utility.yul\":29372:29374   */\n      0x20\n        /* \"#utility.yul\":29369:29370   */\n      dup2\n        /* \"#utility.yul\":29365:29375   */\n      add\n        /* \"#utility.yul\":29360:29375   */\n      swap1\n      pop\n        /* \"#utility.yul\":29336:29449   */\n      jump(tag_631)\n    tag_633:\n        /* \"#utility.yul\":29467:29473   */\n      dup4\n        /* \"#utility.yul\":29464:29465   */\n      dup2\n        /* \"#utility.yul\":29461:29474   */\n      gt\n        /* \"#utility.yul\":29458:29559   */\n      iszero\n      tag_634\n      jumpi\n        /* \"#utility.yul\":29547:29548   */\n      0x00\n        /* \"#utility.yul\":29538:29544   */\n      dup5\n        /* \"#utility.yul\":29533:29536   */\n      dup5\n        /* \"#utility.yul\":29529:29545   */\n      add\n        /* \"#utility.yul\":29522:29549   */\n      mstore\n        /* \"#utility.yul\":29458:29559   */\n    tag_634:\n        /* \"#utility.yul\":29307:29565   */\n      pop\n        /* \"#utility.yul\":29258:29565   */\n      pop\n      pop\n      pop\n      jump\t// out\n        /* \"#utility.yul\":29571:29891   */\n    tag_103:\n        /* \"#utility.yul\":29615:29621   */\n      0x00\n        /* \"#utility.yul\":29652:29653   */\n      0x02\n        /* \"#utility.yul\":29646:29650   */\n      dup3\n        /* \"#utility.yul\":29642:29654   */\n      div\n        /* \"#utility.yul\":29632:29654   */\n      swap1\n      pop\n        /* \"#utility.yul\":29699:29700   */\n      0x01\n        /* \"#utility.yul\":29693:29697   */\n      dup3\n        /* \"#utility.yul\":29689:29701   */\n      and\n        /* \"#utility.yul\":29720:29738   */\n      dup1\n        /* \"#utility.yul\":29710:29791   */\n      tag_636\n      jumpi\n        /* \"#utility.yul\":29776:29780   */\n      0x7f\n        /* \"#utility.yul\":29768:29774   */\n      dup3\n        /* \"#utility.yul\":29764:29781   */\n      and\n        /* \"#utility.yul\":29754:29781   */\n      swap2\n      pop\n        /* \"#utility.yul\":29710:29791   */\n    tag_636:\n        /* \"#utility.yul\":29838:29840   */\n      0x20\n        /* \"#utility.yul\":29830:29836   */\n      dup3\n        /* \"#utility.yul\":29827:29841   */\n      lt\n        /* \"#utility.yul\":29807:29825   */\n      dup2\n        /* \"#utility.yul\":29804:29842   */\n      eq\n        /* \"#utility.yul\":29801:29885   */\n      iszero\n      tag_637\n      jumpi\n        /* \"#utility.yul\":29857:29875   */\n      tag_638\n      tag_639\n      jump\t// in\n    tag_638:\n        /* \"#utility.yul\":29801:29885   */\n    tag_637:\n        /* \"#utility.yul\":29622:29891   */\n      pop\n        /* \"#utility.yul\":29571:29891   */\n      swap2\n      swap1\n      pop\n      jump\t// out\n        /* \"#utility.yul\":29897:30178   */\n    tag_588:\n        /* \"#utility.yul\":29980:30007   */\n      tag_641\n        /* \"#utility.yul\":30002:30006   */\n      dup3\n        /* \"#utility.yul\":29980:30007   */\n      tag_425\n      jump\t// in\n    tag_641:\n        /* \"#utility.yul\":29972:29978   */\n      dup2\n        /* \"#utility.yul\":29968:30008   */\n      add\n        /* \"#utility.yul\":30110:30116   */\n      dup2\n        /* \"#utility.yul\":30098:30108   */\n      dup2\n        /* \"#utility.yul\":30095:30117   */\n      lt\n        /* \"#utility.yul\":30074:30092   */\n      0xffffffffffffffff\n        /* \"#utility.yul\":30062:30072   */\n      dup3\n        /* \"#utility.yul\":30059:30093   */\n      gt\n        /* \"#utility.yul\":30056:30118   */\n      or\n        /* \"#utility.yul\":30053:30141   */\n      iszero\n      tag_642\n      jumpi\n        /* \"#utility.yul\":30121:30139   */\n      tag_643\n      tag_245\n      jump\t// in\n    tag_643:\n        /* \"#utility.yul\":30053:30141   */\n    tag_642:\n        /* \"#utility.yul\":30161:30171   */\n      dup1\n        /* \"#utility.yul\":30157:30159   */\n      0x40\n        /* \"#utility.yul\":30150:30172   */\n      mstore\n        /* \"#utility.yul\":29940:30178   */\n      pop\n        /* \"#utility.yul\":29897:30178   */\n      pop\n      pop\n      jump\t// out\n        /* \"#utility.yul\":30184:30417   */\n    tag_240:\n        /* \"#utility.yul\":30223:30226   */\n      0x00\n        /* \"#utility.yul\":30246:30270   */\n      tag_645\n        /* \"#utility.yul\":30264:30269   */\n      dup3\n        /* \"#utility.yul\":30246:30270   */\n      tag_526\n      jump\t// in\n    tag_645:\n        /* \"#utility.yul\":30237:30270   */\n      swap2\n      pop\n        /* \"#utility.yul\":30292:30358   */\n      0xffffffffffffffffffffffffffffffffffffffffffffffffffffffffffffffff\n        /* \"#utility.yul\":30285:30290   */\n      dup3\n        /* \"#utility.yul\":30282:30359   */\n      eq\n        /* \"#utility.yul\":30279:30382   */\n      iszero\n      tag_646\n      jumpi\n        /* \"#utility.yul\":30362:30380   */\n      tag_647\n      tag_609\n      jump\t// in\n    tag_647:\n        /* \"#utility.yul\":30279:30382   */\n    tag_646:\n        /* \"#utility.yul\":30409:30410   */\n      0x01\n        /* \"#utility.yul\":30402:30407   */\n      dup3\n        /* \"#utility.yul\":30398:30411   */\n      add\n        /* \"#utility.yul\":30391:30411   */\n      swap1\n      pop\n        /* \"#utility.yul\":30184:30417   */\n      swap2\n      swap1\n      pop\n      jump\t// out\n        /* \"#utility.yul\":30423:30599   */\n    tag_251:\n        /* \"#utility.yul\":30455:30456   */\n      0x00\n        /* \"#utility.yul\":30472:30492   */\n      tag_649\n        /* \"#utility.yul\":30490:30491   */\n      dup3\n        /* \"#utility.yul\":30472:30492   */\n      tag_526\n      jump\t// in\n    tag_649:\n        /* \"#utility.yul\":30467:30492   */\n      swap2\n      pop\n        /* \"#utility.yul\":30506:30526   */\n      tag_650\n        /* \"#utility.yul\":30524:30525   */\n      dup4\n        /* \"#utility.yul\":30506:30526   */\n      tag_526\n      jump\t// in\n    tag_650:\n        /* \"#utility.yul\":30501:30526   */\n      swap3\n      pop\n        /* \"#utility.yul\":30545:30546   */\n      dup3\n        /* \"#utility.yul\":30535:30570   */\n      tag_651\n      jumpi\n        /* \"#utility.yul\":30550:30568   */\n      tag_652\n      tag_615\n      jump\t// in\n    tag_652:\n        /* \"#utility.yul\":30535:30570   */\n    tag_651:\n        /* \"#utility.yul\":30591:30592   */\n      dup3\n        /* \"#utility.yul\":30588:30589   */\n      dup3\n        /* \"#utility.yul\":30584:30593   */\n      mod\n        /* \"#utility.yul\":30579:30593   */\n      swap1\n      pop\n        /* \"#utility.yul\":30423:30599   */\n      swap3\n      swap2\n      pop\n      pop\n      jump\t// out\n        /* \"#utility.yul\":30605:30785   */\n    tag_609:\n        /* \"#utility.yul\":30653:30730   */\n      0x4e487b7100000000000000000000000000000000000000000000000000000000\n        /* \"#utility.yul\":30650:30651   */\n      0x00\n        /* \"#utility.yul\":30643:30731   */\n      mstore\n        /* \"#utility.yul\":30750:30754   */\n      0x11\n        /* \"#utility.yul\":30747:30748   */\n      0x04\n        /* \"#utility.yul\":30740:30755   */\n      mstore\n        /* \"#utility.yul\":30774:30778   */\n      0x24\n        /* \"#utility.yul\":30771:30772   */\n      0x00\n        /* \"#utility.yul\":30764:30779   */\n      revert\n        /* \"#utility.yul\":30791:30971   */\n    tag_615:\n        /* \"#utility.yul\":30839:30916   */\n      0x4e487b7100000000000000000000000000000000000000000000000000000000\n        /* \"#utility.yul\":30836:30837   */\n      0x00\n        /* \"#utility.yul\":30829:30917   */\n      mstore\n        /* \"#utility.yul\":30936:30940   */\n      0x12\n        /* \"#utility.yul\":30933:30934   */\n      0x04\n        /* \"#utility.yul\":30926:30941   */\n      mstore\n        /* \"#utility.yul\":30960:30964   */\n      0x24\n        /* \"#utility.yul\":30957:30958   */\n      0x00\n        /* \"#utility.yul\":30950:30965   */\n      revert\n        /* \"#utility.yul\":30977:31157   */\n    tag_639:\n        /* \"#utility.yul\":31025:31102   */\n      0x4e487b7100000000000000000000000000000000000000000000000000000000\n        /* \"#utility.yul\":31022:31023   */\n      0x00\n        /* \"#utility.yul\":31015:31103   */\n      mstore\n        /* \"#utility.yul\":31122:31126   */\n      0x22\n        /* \"#utility.yul\":31119:31120   */\n      0x04\n        /* \"#utility.yul\":31112:31127   */\n      mstore\n        /* \"#utility.yul\":31146:31150   */\n      0x24\n        /* \"#utility.yul\":31143:31144   */\n      0x00\n        /* \"#utility.yul\":31136:31151   */\n      revert\n        /* \"#utility.yul\":31163:31343   */\n    tag_255:\n        /* \"#utility.yul\":31211:31288   */\n      0x4e487b7100000000000000000000000000000000000000000000000000000000\n        /* \"#utility.yul\":31208:31209   */\n      0x00\n        /* \"#utility.yul\":31201:31289   */\n      mstore\n        /* \"#utility.yul\":31308:31312   */\n      0x32\n        /* \"#utility.yul\":31305:31306   */\n      0x04\n        /* \"#utility.yul\":31298:31313   */\n      mstore\n        /* \"#utility.yul\":31332:31336   */\n      0x24\n        /* \"#utility.yul\":31329:31330   */\n      0x00\n        /* \"#utility.yul\":31322:31337   */\n      revert\n        /* \"#utility.yul\":31349:31529   */\n    tag_245:\n        /* \"#utility.yul\":31397:31474   */\n      0x4e487b7100000000000000000000000000000000000000000000000000000000\n        /* \"#utility.yul\":31394:31395   */\n      0x00\n        /* \"#utility.yul\":31387:31475   */\n      mstore\n        /* \"#utility.yul\":31494:31498   */\n      0x41\n        /* \"#utility.yul\":31491:31492   */\n      0x04\n        /* \"#utility.yul\":31484:31499   */\n      mstore\n        /* \"#utility.yul\":31518:31522   */\n      0x24\n        /* \"#utility.yul\":31515:31516   */\n      0x00\n        /* \"#utility.yul\":31508:31523   */\n      revert\n        /* \"#utility.yul\":31535:31652   */\n    tag_331:\n        /* \"#utility.yul\":31644:31645   */\n      0x00\n        /* \"#utility.yul\":31641:31642   */\n      dup1\n        /* \"#utility.yul\":31634:31646   */\n      revert\n        /* \"#utility.yul\":31658:31775   */\n    tag_301:\n        /* \"#utility.yul\":31767:31768   */\n      0x00\n        /* \"#utility.yul\":31764:31765   */\n      dup1\n        /* \"#utility.yul\":31757:31769   */\n      revert\n        /* \"#utility.yul\":31781:31898   */\n    tag_366:\n        /* \"#utility.yul\":31890:31891   */\n      0x00\n        /* \"#utility.yul\":31887:31888   */\n      dup1\n        /* \"#utility.yul\":31880:31892   */\n      revert\n        /* \"#utility.yul\":31904:32021   */\n    tag_345:\n        /* \"#utility.yul\":32013:32014   */\n      0x00\n        /* \"#utility.yul\":32010:32011   */\n      dup1\n        /* \"#utility.yul\":32003:32015   */\n      revert\n        /* \"#utility.yul\":32027:32129   */\n    tag_425:\n        /* \"#utility.yul\":32068:32074   */\n      0x00\n        /* \"#utility.yul\":32119:32121   */\n      0x1f\n        /* \"#utility.yul\":32115:32122   */\n      not\n        /* \"#utility.yul\":32110:32112   */\n      0x1f\n        /* \"#utility.yul\":32103:32108   */\n      dup4\n        /* \"#utility.yul\":32099:32113   */\n      add\n        /* \"#utility.yul\":32095:32123   */\n      and\n        /* \"#utility.yul\":32085:32123   */\n      swap1\n      pop\n        /* \"#utility.yul\":32027:32129   */\n      swap2\n      swap1\n      pop\n      jump\t// out\n        /* \"#utility.yul\":32135:32372   */\n    tag_451:\n        /* \"#utility.yul\":32275:32309   */\n      0x4552433732313a207472616e7366657220746f206e6f6e204552433732315265\n        /* \"#utility.yul\":32271:32272   */\n      0x00\n        /* \"#utility.yul\":32263:32269   */\n      dup3\n        /* \"#utility.yul\":32259:32273   */\n      add\n        /* \"#utility.yul\":32252:32310   */\n      mstore\n        /* \"#utility.yul\":32344:32364   */\n      0x63656976657220696d706c656d656e7465720000000000000000000000000000\n        /* \"#utility.yul\":32339:32341   */\n      0x20\n        /* \"#utility.yul\":32331:32337   */\n      dup3\n        /* \"#utility.yul\":32327:32342   */\n      add\n        /* \"#utility.yul\":32320:32365   */\n      mstore\n        /* \"#utility.yul\":32135:32372   */\n      pop\n      jump\t// out\n        /* \"#utility.yul\":32378:32602   */\n    tag_456:\n        /* \"#utility.yul\":32518:32552   */\n      0x4552433732313a207472616e736665722066726f6d20696e636f727265637420\n        /* \"#utility.yul\":32514:32515   */\n      0x00\n        /* \"#utility.yul\":32506:32512   */\n      dup3\n        /* \"#utility.yul\":32502:32516   */\n      add\n        /* \"#utility.yul\":32495:32553   */\n      mstore\n        /* \"#utility.yul\":32587:32594   */\n      0x6f776e6572000000000000000000000000000000000000000000000000000000\n        /* \"#utility.yul\":32582:32584   */\n      0x20\n        /* \"#utility.yul\":32574:32580   */\n      dup3\n        /* \"#utility.yul\":32570:32585   */\n      add\n        /* \"#utility.yul\":32563:32595   */\n      mstore\n        /* \"#utility.yul\":32378:32602   */\n      pop\n      jump\t// out\n        /* \"#utility.yul\":32608:32831   */\n    tag_461:\n        /* \"#utility.yul\":32748:32782   */\n      0x4552433732313a207472616e7366657220746f20746865207a65726f20616464\n        /* \"#utility.yul\":32744:32745   */\n      0x00\n        /* \"#utility.yul\":32736:32742   */\n      dup3\n        /* \"#utility.yul\":32732:32746   */\n      add\n        /* \"#utility.yul\":32725:32783   */\n      mstore\n        /* \"#utility.yul\":32817:32823   */\n      0x7265737300000000000000000000000000000000000000000000000000000000\n        /* \"#utility.yul\":32812:32814   */\n      0x20\n        /* \"#utility.yul\":32804:32810   */\n      dup3\n        /* \"#utility.yul\":32800:32815   */\n      add\n        /* \"#utility.yul\":32793:32824   */\n      mstore\n        /* \"#utility.yul\":32608:32831   */\n      pop\n      jump\t// out\n        /* \"#utility.yul\":32837:33012   */\n    tag_466:\n        /* \"#utility.yul\":32977:33004   */\n      0x4552433732313a20617070726f766520746f2063616c6c657200000000000000\n        /* \"#utility.yul\":32973:32974   */\n      0x00\n        /* \"#utility.yul\":32965:32971   */\n      dup3\n        /* \"#utility.yul\":32961:32975   */\n      add\n        /* \"#utility.yul\":32954:33005   */\n      mstore\n        /* \"#utility.yul\":32837:33012   */\n      pop\n      jump\t// out\n        /* \"#utility.yul\":33018:33249   */\n    tag_471:\n        /* \"#utility.yul\":33158:33192   */\n      0x4552433732313a206f70657261746f7220717565727920666f72206e6f6e6578\n        /* \"#utility.yul\":33154:33155   */\n      0x00\n        /* \"#utility.yul\":33146:33152   */\n      dup3\n        /* \"#utility.yul\":33142:33156   */\n      add\n        /* \"#utility.yul\":33135:33193   */\n      mstore\n        /* \"#utility.yul\":33227:33241   */\n      0x697374656e7420746f6b656e0000000000000000000000000000000000000000\n        /* \"#utility.yul\":33222:33224   */\n      0x20\n        /* \"#utility.yul\":33214:33220   */\n      dup3\n        /* \"#utility.yul\":33210:33225   */\n      add\n        /* \"#utility.yul\":33203:33242   */\n      mstore\n        /* \"#utility.yul\":33018:33249   */\n      pop\n      jump\t// out\n        /* \"#utility.yul\":33255:33483   */\n    tag_476:\n        /* \"#utility.yul\":33395:33429   */\n      0x4552433732313a2061646472657373207a65726f206973206e6f742061207661\n        /* \"#utility.yul\":33391:33392   */\n      0x00\n        /* \"#utility.yul\":33383:33389   */\n      dup3\n        /* \"#utility.yul\":33379:33393   */\n      add\n        /* \"#utility.yul\":33372:33430   */\n      mstore\n        /* \"#utility.yul\":33464:33475   */\n      0x6c6964206f776e65720000000000000000000000000000000000000000000000\n        /* \"#utility.yul\":33459:33461   */\n      0x20\n        /* \"#utility.yul\":33451:33457   */\n      dup3\n        /* \"#utility.yul\":33447:33462   */\n      add\n        /* \"#utility.yul\":33440:33476   */\n      mstore\n        /* \"#utility.yul\":33255:33483   */\n      pop\n      jump\t// out\n        /* \"#utility.yul\":33489:33732   */\n    tag_481:\n        /* \"#utility.yul\":33629:33663   */\n      0x4552433732313a20617070726f76652063616c6c6572206973206e6f74206f77\n        /* \"#utility.yul\":33625:33626   */\n      0x00\n        /* \"#utility.yul\":33617:33623   */\n      dup3\n        /* \"#utility.yul\":33613:33627   */\n      add\n        /* \"#utility.yul\":33606:33664   */\n      mstore\n        /* \"#utility.yul\":33698:33724   */\n      0x6e6572206e6f7220617070726f76656420666f7220616c6c0000000000000000\n        /* \"#utility.yul\":33693:33695   */\n      0x20\n        /* \"#utility.yul\":33685:33691   */\n      dup3\n        /* \"#utility.yul\":33681:33696   */\n      add\n        /* \"#utility.yul\":33674:33725   */\n      mstore\n        /* \"#utility.yul\":33489:33732   */\n      pop\n      jump\t// out\n        /* \"#utility.yul\":33738:33966   */\n    tag_486:\n        /* \"#utility.yul\":33878:33912   */\n      0x4552433732313a206f776e657220717565727920666f72206e6f6e6578697374\n        /* \"#utility.yul\":33874:33875   */\n      0x00\n        /* \"#utility.yul\":33866:33872   */\n      dup3\n        /* \"#utility.yul\":33862:33876   */\n      add\n        /* \"#utility.yul\":33855:33913   */\n      mstore\n        /* \"#utility.yul\":33947:33958   */\n      0x656e7420746f6b656e0000000000000000000000000000000000000000000000\n        /* \"#utility.yul\":33942:33944   */\n      0x20\n        /* \"#utility.yul\":33934:33940   */\n      dup3\n        /* \"#utility.yul\":33930:33945   */\n      add\n        /* \"#utility.yul\":33923:33959   */\n      mstore\n        /* \"#utility.yul\":33738:33966   */\n      pop\n      jump\t// out\n        /* \"#utility.yul\":33972:34203   */\n    tag_491:\n        /* \"#utility.yul\":34112:34146   */\n      0x4552433732313a20617070726f76656420717565727920666f72206e6f6e6578\n        /* \"#utility.yul\":34108:34109   */\n      0x00\n        /* \"#utility.yul\":34100:34106   */\n      dup3\n        /* \"#utility.yul\":34096:34110   */\n      add\n        /* \"#utility.yul\":34089:34147   */\n      mstore\n        /* \"#utility.yul\":34181:34195   */\n      0x697374656e7420746f6b656e0000000000000000000000000000000000000000\n        /* \"#utility.yul\":34176:34178   */\n      0x20\n        /* \"#utility.yul\":34168:34174   */\n      dup3\n        /* \"#utility.yul\":34164:34179   */\n      add\n        /* \"#utility.yul\":34157:34196   */\n      mstore\n        /* \"#utility.yul\":33972:34203   */\n      pop\n      jump\t// out\n        /* \"#utility.yul\":34209:34443   */\n    tag_496:\n        /* \"#utility.yul\":34349:34383   */\n      0x4552433732314d657461646174613a2055524920717565727920666f72206e6f\n        /* \"#utility.yul\":34345:34346   */\n      0x00\n        /* \"#utility.yul\":34337:34343   */\n      dup3\n        /* \"#utility.yul\":34333:34347   */\n      add\n        /* \"#utility.yul\":34326:34384   */\n      mstore\n        /* \"#utility.yul\":34418:34435   */\n      0x6e6578697374656e7420746f6b656e0000000000000000000000000000000000\n        /* \"#utility.yul\":34413:34415   */\n      0x20\n        /* \"#utility.yul\":34405:34411   */\n      dup3\n        /* \"#utility.yul\":34401:34416   */\n      add\n        /* \"#utility.yul\":34394:34436   */\n      mstore\n        /* \"#utility.yul\":34209:34443   */\n      pop\n      jump\t// out\n        /* \"#utility.yul\":34449:34626   */\n    tag_501:\n        /* \"#utility.yul\":34589:34618   */\n      0x7468697320686f757365496420616c7265616479206578697374730000000000\n        /* \"#utility.yul\":34585:34586   */\n      0x00\n        /* \"#utility.yul\":34577:34583   */\n      dup3\n        /* \"#utility.yul\":34573:34587   */\n      add\n        /* \"#utility.yul\":34566:34619   */\n      mstore\n        /* \"#utility.yul\":34449:34626   */\n      pop\n      jump\t// out\n        /* \"#utility.yul\":34632:34852   */\n    tag_506:\n        /* \"#utility.yul\":34772:34806   */\n      0x4552433732313a20617070726f76616c20746f2063757272656e74206f776e65\n        /* \"#utility.yul\":34768:34769   */\n      0x00\n        /* \"#utility.yul\":34760:34766   */\n      dup3\n        /* \"#utility.yul\":34756:34770   */\n      add\n        /* \"#utility.yul\":34749:34807   */\n      mstore\n        /* \"#utility.yul\":34841:34844   */\n      0x7200000000000000000000000000000000000000000000000000000000000000\n        /* \"#utility.yul\":34836:34838   */\n      0x20\n        /* \"#utility.yul\":34828:34834   */\n      dup3\n        /* \"#utility.yul\":34824:34839   */\n      add\n        /* \"#utility.yul\":34817:34845   */\n      mstore\n        /* \"#utility.yul\":34632:34852   */\n      pop\n      jump\t// out\n        /* \"#utility.yul\":34858:35094   */\n    tag_511:\n        /* \"#utility.yul\":34998:35032   */\n      0x4552433732313a207472616e736665722063616c6c6572206973206e6f74206f\n        /* \"#utility.yul\":34994:34995   */\n      0x00\n        /* \"#utility.yul\":34986:34992   */\n      dup3\n        /* \"#utility.yul\":34982:34996   */\n      add\n        /* \"#utility.yul\":34975:35033   */\n      mstore\n        /* \"#utility.yul\":35067:35086   */\n      0x776e6572206e6f7220617070726f766564000000000000000000000000000000\n        /* \"#utility.yul\":35062:35064   */\n      0x20\n        /* \"#utility.yul\":35054:35060   */\n      dup3\n        /* \"#utility.yul\":35050:35065   */\n      add\n        /* \"#utility.yul\":35043:35087   */\n      mstore\n        /* \"#utility.yul\":34858:35094   */\n      pop\n      jump\t// out\n        /* \"#utility.yul\":35100:35222   */\n    tag_315:\n        /* \"#utility.yul\":35173:35197   */\n      tag_677\n        /* \"#utility.yul\":35191:35196   */\n      dup2\n        /* \"#utility.yul\":35173:35197   */\n      tag_405\n      jump\t// in\n    tag_677:\n        /* \"#utility.yul\":35166:35171   */\n      dup2\n        /* \"#utility.yul\":35163:35198   */\n      eq\n        /* \"#utility.yul\":35153:35216   */\n      tag_678\n      jumpi\n        /* \"#utility.yul\":35212:35213   */\n      0x00\n        /* \"#utility.yul\":35209:35210   */\n      dup1\n        /* \"#utility.yul\":35202:35214   */\n      revert\n        /* \"#utility.yul\":35153:35216   */\n    tag_678:\n        /* \"#utility.yul\":35100:35222   */\n      pop\n      jump\t// out\n        /* \"#utility.yul\":35228:35344   */\n    tag_319:\n        /* \"#utility.yul\":35298:35319   */\n      tag_680\n        /* \"#utility.yul\":35313:35318   */\n      dup2\n        /* \"#utility.yul\":35298:35319   */\n      tag_412\n      jump\t// in\n    tag_680:\n        /* \"#utility.yul\":35291:35296   */\n      dup2\n        /* \"#utility.yul\":35288:35320   */\n      eq\n        /* \"#utility.yul\":35278:35338   */\n      tag_681\n      jumpi\n        /* \"#utility.yul\":35334:35335   */\n      0x00\n        /* \"#utility.yul\":35331:35332   */\n      dup1\n        /* \"#utility.yul\":35324:35336   */\n      revert\n        /* \"#utility.yul\":35278:35338   */\n    tag_681:\n        /* \"#utility.yul\":35228:35344   */\n      pop\n      jump\t// out\n        /* \"#utility.yul\":35350:35470   */\n    tag_323:\n        /* \"#utility.yul\":35422:35445   */\n      tag_683\n        /* \"#utility.yul\":35439:35444   */\n      dup2\n        /* \"#utility.yul\":35422:35445   */\n      tag_625\n      jump\t// in\n    tag_683:\n        /* \"#utility.yul\":35415:35420   */\n      dup2\n        /* \"#utility.yul\":35412:35446   */\n      eq\n        /* \"#utility.yul\":35402:35464   */\n      tag_684\n      jumpi\n        /* \"#utility.yul\":35460:35461   */\n      0x00\n        /* \"#utility.yul\":35457:35458   */\n      dup1\n        /* \"#utility.yul\":35450:35462   */\n      revert\n        /* \"#utility.yul\":35402:35464   */\n    tag_684:\n        /* \"#utility.yul\":35350:35470   */\n      pop\n      jump\t// out\n        /* \"#utility.yul\":35476:35598   */\n    tag_341:\n        /* \"#utility.yul\":35549:35573   */\n      tag_686\n        /* \"#utility.yul\":35567:35572   */\n      dup2\n        /* \"#utility.yul\":35549:35573   */\n      tag_526\n      jump\t// in\n    tag_686:\n        /* \"#utility.yul\":35542:35547   */\n      dup2\n        /* \"#utility.yul\":35539:35574   */\n      eq\n        /* \"#utility.yul\":35529:35592   */\n      tag_687\n      jumpi\n        /* \"#utility.yul\":35588:35589   */\n      0x00\n        /* \"#utility.yul\":35585:35586   */\n      dup1\n        /* \"#utility.yul\":35578:35590   */\n      revert\n        /* \"#utility.yul\":35529:35592   */\n    tag_687:\n        /* \"#utility.yul\":35476:35598   */\n      pop\n      jump\t// out\n\n    auxdata: 0xa2646970667358221220cdc63b561c1d798a9f5501b8dd0d99cffe8e7e3dea8b107b465bb8a1c24a7a5e64736f6c63430008070033\n}\n",
				"bytecode": {
					"linkReferences": {},
					"object": "60806040523480156200001157600080fd5b50604051620031cc380380620031cc83398181016040528101906200003791906200019f565b81600090805190602001906200004f92919062000071565b5080600190805190602001906200006892919062000071565b505050620003a8565b8280546200007f90620002b9565b90600052602060002090601f016020900481019282620000a35760008555620000ef565b82601f10620000be57805160ff1916838001178555620000ef565b82800160010185558215620000ef579182015b82811115620000ee578251825591602001919060010190620000d1565b5b509050620000fe919062000102565b5090565b5b808211156200011d57600081600090555060010162000103565b5090565b60006200013862000132846200024d565b62000224565b90508281526020810184848401111562000157576200015662000388565b5b6200016484828562000283565b509392505050565b600082601f83011262000184576200018362000383565b5b81516200019684826020860162000121565b91505092915050565b60008060408385031215620001b957620001b862000392565b5b600083015167ffffffffffffffff811115620001da57620001d96200038d565b5b620001e8858286016200016c565b925050602083015167ffffffffffffffff8111156200020c576200020b6200038d565b5b6200021a858286016200016c565b9150509250929050565b60006200023062000243565b90506200023e8282620002ef565b919050565b6000604051905090565b600067ffffffffffffffff8211156200026b576200026a62000354565b5b620002768262000397565b9050602081019050919050565b60005b83811015620002a357808201518184015260208101905062000286565b83811115620002b3576000848401525b50505050565b60006002820490506001821680620002d257607f821691505b60208210811415620002e957620002e862000325565b5b50919050565b620002fa8262000397565b810181811067ffffffffffffffff821117156200031c576200031b62000354565b5b80604052505050565b7f4e487b7100000000000000000000000000000000000000000000000000000000600052602260045260246000fd5b7f4e487b7100000000000000000000000000000000000000000000000000000000600052604160045260246000fd5b600080fd5b600080fd5b600080fd5b600080fd5b6000601f19601f8301169050919050565b612e1480620003b86000396000f3fe608060405234801561001057600080fd5b50600436106100f55760003560e01c80636352211e11610097578063aeda852f11610066578063aeda852f14610296578063b88d4fde146102ce578063c87b56dd146102ea578063e985e9c51461031a576100f5565b80636352211e146101fc57806370a082311461022c57806395d89b411461025c578063a22cb4651461027a576100f5565b8063081812fc116100d3578063081812fc14610178578063095ea7b3146101a857806323b872dd146101c457806342842e0e146101e0576100f5565b806301ffc9a7146100fa5780630548fa4f1461012a57806306fdde031461015a575b600080fd5b610114600480360381019061010f9190611d52565b61034a565b60405161012191906122e4565b60405180910390f35b610144600480360381019061013f9190611dd9565b61042c565b60405161015191906124c1565b60405180910390f35b6101626107c7565b60405161016f91906122ff565b60405180910390f35b610192600480360381019061018d9190611dac565b610859565b60405161019f919061227d565b60405180910390f35b6101c260048036038101906101bd9190611d12565b6108de565b005b6101de60048036038101906101d99190611bfc565b6109f6565b005b6101fa60048036038101906101f59190611bfc565b610a56565b005b61021660048036038101906102119190611dac565b610a76565b604051610223919061227d565b60405180910390f35b61024660048036038101906102419190611b8f565b610b28565b60405161025391906124e3565b60405180910390f35b610264610be0565b60405161027191906122ff565b60405180910390f35b610294600480360381019061028f9190611cd2565b610c72565b005b6102b060048036038101906102ab9190611dac565b610c88565b6040516102c5999897969594939291906124fe565b60405180910390f35b6102e860048036038101906102e39190611c4f565b610dab565b005b61030460048036038101906102ff9190611dac565b610e0d565b60405161031191906122ff565b60405180910390f35b610334600480360381019061032f9190611bbc565b610eb4565b60405161034191906122e4565b60405180910390f35b60007f80ac58cd000000000000000000000000000000000000000000000000000000007bffffffffffffffffffffffffffffffffffffffffffffffffffffffff1916827bffffffffffffffffffffffffffffffffffffffffffffffffffffffff1916148061041557507f5b5e139f000000000000000000000000000000000000000000000000000000007bffffffffffffffffffffffffffffffffffffffffffffffffffffffff1916827bffffffffffffffffffffffffffffffffffffffffffffffffffffffff1916145b80610425575061042482610f48565b5b9050919050565b610434611929565b600660008981526020019081526020016000206000015488141561048d576040517f08c379a000000000000000000000000000000000000000000000000000000000815260040161048490612461565b60405180910390fd5b6040518061012001604052808981526020018881526020018781526020018681526020018581526020018473ffffffffffffffffffffffffffffffffffffffff1681526020018473ffffffffffffffffffffffffffffffffffffffff16815260200183815260200160001515815250600660008a8152602001908152602001600020600082015181600001556020820151816001015560408201518160020155606082015181600301556080820151816004015560a08201518160050160006101000a81548173ffffffffffffffffffffffffffffffffffffffff021916908373ffffffffffffffffffffffffffffffffffffffff16021790555060c08201518160060160006101000a81548173ffffffffffffffffffffffffffffffffffffffff021916908373ffffffffffffffffffffffffffffffffffffffff16021790555060e08201518160070190805190602001906105eb9291906119a3565b506101008201518160080160006101000a81548160ff021916908315150217905550905050600660008981526020019081526020016000206040518061012001604052908160008201548152602001600182015481526020016002820154815260200160038201548152602001600482015481526020016005820160009054906101000a900473ffffffffffffffffffffffffffffffffffffffff1673ffffffffffffffffffffffffffffffffffffffff1673ffffffffffffffffffffffffffffffffffffffff1681526020016006820160009054906101000a900473ffffffffffffffffffffffffffffffffffffffff1673ffffffffffffffffffffffffffffffffffffffff1673ffffffffffffffffffffffffffffffffffffffff16815260200160078201805461071d906127de565b80601f0160208091040260200160405190810160405280929190818152602001828054610749906127de565b80156107965780601f1061076b57610100808354040283529160200191610796565b820191906000526020600020905b81548152906001019060200180831161077957829003601f168201915b505050505081526020016008820160009054906101000a900460ff1615151515815250509050979650505050505050565b6060600080546107d6906127de565b80601f0160208091040260200160405190810160405280929190818152602001828054610802906127de565b801561084f5780601f106108245761010080835404028352916020019161084f565b820191906000526020600020905b81548152906001019060200180831161083257829003601f168201915b5050505050905090565b600061086482610fb2565b6108a3576040517f08c379a000000000000000000000000000000000000000000000000000000000815260040161089a90612421565b60405180910390fd5b6004600083815260200190815260200160002060009054906101000a900473ffffffffffffffffffffffffffffffffffffffff169050919050565b60006108e982610a76565b90508073ffffffffffffffffffffffffffffffffffffffff168373ffffffffffffffffffffffffffffffffffffffff16141561095a576040517f08c379a000000000000000000000000000000000000000000000000000000000815260040161095190612481565b60405180910390fd5b8073ffffffffffffffffffffffffffffffffffffffff1661097961101e565b73ffffffffffffffffffffffffffffffffffffffff1614806109a857506109a7816109a261101e565b610eb4565b5b6109e7576040517f08c379a00000000000000000000000000000000000000000000000000000000081526004016109de906123e1565b60405180910390fd5b6109f18383611026565b505050565b610a07610a0161101e565b826110df565b610a46576040517f08c379a0000000000000000000000000000000000000000000000000000000008152600401610a3d906124a1565b60405180910390fd5b610a518383836111bd565b505050565b610a7183838360405180602001604052806000815250610dab565b505050565b6000806002600084815260200190815260200160002060009054906101000a900473ffffffffffffffffffffffffffffffffffffffff169050600073ffffffffffffffffffffffffffffffffffffffff168173ffffffffffffffffffffffffffffffffffffffff161415610b1f576040517f08c379a0000000000000000000000000000000000000000000000000000000008152600401610b1690612401565b60405180910390fd5b80915050919050565b60008073ffffffffffffffffffffffffffffffffffffffff168273ffffffffffffffffffffffffffffffffffffffff161415610b99576040517f08c379a0000000000000000000000000000000000000000000000000000000008152600401610b90906123c1565b60405180910390fd5b600360008373ffffffffffffffffffffffffffffffffffffffff1673ffffffffffffffffffffffffffffffffffffffff168152602001908152602001600020549050919050565b606060018054610bef906127de565b80601f0160208091040260200160405190810160405280929190818152602001828054610c1b906127de565b8015610c685780601f10610c3d57610100808354040283529160200191610c68565b820191906000526020600020905b815481529060010190602001808311610c4b57829003601f168201915b5050505050905090565b610c84610c7d61101e565b8383611424565b5050565b60066020528060005260406000206000915090508060000154908060010154908060020154908060030154908060040154908060050160009054906101000a900473ffffffffffffffffffffffffffffffffffffffff16908060060160009054906101000a900473ffffffffffffffffffffffffffffffffffffffff1690806007018054610d15906127de565b80601f0160208091040260200160405190810160405280929190818152602001828054610d41906127de565b8015610d8e5780601f10610d6357610100808354040283529160200191610d8e565b820191906000526020600020905b815481529060010190602001808311610d7157829003601f168201915b5050505050908060080160009054906101000a900460ff16905089565b610dbc610db661101e565b836110df565b610dfb576040517f08c379a0000000000000000000000000000000000000000000000000000000008152600401610df2906124a1565b60405180910390fd5b610e0784848484611591565b50505050565b6060610e1882610fb2565b610e57576040517f08c379a0000000000000000000000000000000000000000000000000000000008152600401610e4e90612441565b60405180910390fd5b6000610e616115ed565b90506000815111610e815760405180602001604052806000815250610eac565b80610e8b84611604565b604051602001610e9c929190612259565b6040516020818303038152906040525b915050919050565b6000600560008473ffffffffffffffffffffffffffffffffffffffff1673ffffffffffffffffffffffffffffffffffffffff16815260200190815260200160002060008373ffffffffffffffffffffffffffffffffffffffff1673ffffffffffffffffffffffffffffffffffffffff16815260200190815260200160002060009054906101000a900460ff16905092915050565b60007f01ffc9a7000000000000000000000000000000000000000000000000000000007bffffffffffffffffffffffffffffffffffffffffffffffffffffffff1916827bffffffffffffffffffffffffffffffffffffffffffffffffffffffff1916149050919050565b60008073ffffffffffffffffffffffffffffffffffffffff166002600084815260200190815260200160002060009054906101000a900473ffffffffffffffffffffffffffffffffffffffff1673ffffffffffffffffffffffffffffffffffffffff1614159050919050565b600033905090565b816004600083815260200190815260200160002060006101000a81548173ffffffffffffffffffffffffffffffffffffffff021916908373ffffffffffffffffffffffffffffffffffffffff160217905550808273ffffffffffffffffffffffffffffffffffffffff1661109983610a76565b73ffffffffffffffffffffffffffffffffffffffff167f8c5be1e5ebec7d5bd14f71427d1e84f3dd0314c0f7b2291e5b200ac8c7c3b92560405160405180910390a45050565b60006110ea82610fb2565b611129576040517f08c379a0000000000000000000000000000000000000000000000000000000008152600401611120906123a1565b60405180910390fd5b600061113483610a76565b90508073ffffffffffffffffffffffffffffffffffffffff168473ffffffffffffffffffffffffffffffffffffffff16148061117657506111758185610eb4565b5b806111b457508373ffffffffffffffffffffffffffffffffffffffff1661119c84610859565b73ffffffffffffffffffffffffffffffffffffffff16145b91505092915050565b8273ffffffffffffffffffffffffffffffffffffffff166111dd82610a76565b73ffffffffffffffffffffffffffffffffffffffff1614611233576040517f08c379a000000000000000000000000000000000000000000000000000000000815260040161122a90612341565b60405180910390fd5b600073ffffffffffffffffffffffffffffffffffffffff168273ffffffffffffffffffffffffffffffffffffffff1614156112a3576040517f08c379a000000000000000000000000000000000000000000000000000000000815260040161129a90612361565b60405180910390fd5b6112ae838383611765565b6112b9600082611026565b6001600360008573ffffffffffffffffffffffffffffffffffffffff1673ffffffffffffffffffffffffffffffffffffffff168152602001908152602001600020600082825461130991906126f4565b925050819055506001600360008473ffffffffffffffffffffffffffffffffffffffff1673ffffffffffffffffffffffffffffffffffffffff1681526020019081526020016000206000828254611360919061266d565b92505081905550816002600083815260200190815260200160002060006101000a81548173ffffffffffffffffffffffffffffffffffffffff021916908373ffffffffffffffffffffffffffffffffffffffff160217905550808273ffffffffffffffffffffffffffffffffffffffff168473ffffffffffffffffffffffffffffffffffffffff167fddf252ad1be2c89b69c2b068fc378daa952ba7f163c4a11628f55a4df523b3ef60405160405180910390a461141f83838361176a565b505050565b8173ffffffffffffffffffffffffffffffffffffffff168373ffffffffffffffffffffffffffffffffffffffff161415611493576040517f08c379a000000000000000000000000000000000000000000000000000000000815260040161148a90612381565b60405180910390fd5b80600560008573ffffffffffffffffffffffffffffffffffffffff1673ffffffffffffffffffffffffffffffffffffffff16815260200190815260200160002060008473ffffffffffffffffffffffffffffffffffffffff1673ffffffffffffffffffffffffffffffffffffffff16815260200190815260200160002060006101000a81548160ff0219169083151502179055508173ffffffffffffffffffffffffffffffffffffffff168373ffffffffffffffffffffffffffffffffffffffff167f17307eab39ab6107e8899845ad3d59bd9653f200f220920489ca2b5937696c318360405161158491906122e4565b60405180910390a3505050565b61159c8484846111bd565b6115a88484848461176f565b6115e7576040517f08c379a00000000000000000000000000000000000000000000000000000000081526004016115de90612321565b60405180910390fd5b50505050565b606060405180602001604052806000815250905090565b6060600082141561164c576040518060400160405280600181526020017f30000000000000000000000000000000000000000000000000000000000000008152509050611760565b600082905060005b6000821461167e57808061166790612841565b915050600a8261167791906126c3565b9150611654565b60008167ffffffffffffffff81111561169a57611699612977565b5b6040519080825280601f01601f1916602001820160405280156116cc5781602001600182028036833780820191505090505b5090505b60008514611759576001826116e591906126f4565b9150600a856116f4919061288a565b6030611700919061266d565b60f81b81838151811061171657611715612948565b5b60200101907effffffffffffffffffffffffffffffffffffffffffffffffffffffffffffff1916908160001a905350600a8561175291906126c3565b94506116d0565b8093505050505b919050565b505050565b505050565b60006117908473ffffffffffffffffffffffffffffffffffffffff16611906565b156118f9578373ffffffffffffffffffffffffffffffffffffffff1663150b7a026117b961101e565b8786866040518563ffffffff1660e01b81526004016117db9493929190612298565b602060405180830381600087803b1580156117f557600080fd5b505af192505050801561182657506040513d601f19601f820116820180604052508101906118239190611d7f565b60015b6118a9573d8060008114611856576040519150601f19603f3d011682016040523d82523d6000602084013e61185b565b606091505b506000815114156118a1576040517f08c379a000000000000000000000000000000000000000000000000000000000815260040161189890612321565b60405180910390fd5b805181602001fd5b63150b7a0260e01b7bffffffffffffffffffffffffffffffffffffffffffffffffffffffff1916817bffffffffffffffffffffffffffffffffffffffffffffffffffffffff1916149150506118fe565b600190505b949350505050565b6000808273ffffffffffffffffffffffffffffffffffffffff163b119050919050565b6040518061012001604052806000815260200160008152602001600081526020016000815260200160008152602001600073ffffffffffffffffffffffffffffffffffffffff168152602001600073ffffffffffffffffffffffffffffffffffffffff168152602001606081526020016000151581525090565b8280546119af906127de565b90600052602060002090601f0160209004810192826119d15760008555611a18565b82601f106119ea57805160ff1916838001178555611a18565b82800160010185558215611a18579182015b82811115611a175782518255916020019190600101906119fc565b5b509050611a259190611a29565b5090565b5b80821115611a42576000816000905550600101611a2a565b5090565b6000611a59611a54846125b7565b612592565b905082815260208101848484011115611a7557611a746129ab565b5b611a8084828561279c565b509392505050565b6000611a9b611a96846125e8565b612592565b905082815260208101848484011115611ab757611ab66129ab565b5b611ac284828561279c565b509392505050565b600081359050611ad981612d82565b92915050565b600081359050611aee81612d99565b92915050565b600081359050611b0381612db0565b92915050565b600081519050611b1881612db0565b92915050565b600082601f830112611b3357611b326129a6565b5b8135611b43848260208601611a46565b91505092915050565b600082601f830112611b6157611b606129a6565b5b8135611b71848260208601611a88565b91505092915050565b600081359050611b8981612dc7565b92915050565b600060208284031215611ba557611ba46129b5565b5b6000611bb384828501611aca565b91505092915050565b60008060408385031215611bd357611bd26129b5565b5b6000611be185828601611aca565b9250506020611bf285828601611aca565b9150509250929050565b600080600060608486031215611c1557611c146129b5565b5b6000611c2386828701611aca565b9350506020611c3486828701611aca565b9250506040611c4586828701611b7a565b9150509250925092565b60008060008060808587031215611c6957611c686129b5565b5b6000611c7787828801611aca565b9450506020611c8887828801611aca565b9350506040611c9987828801611b7a565b925050606085013567ffffffffffffffff811115611cba57611cb96129b0565b5b611cc687828801611b1e565b91505092959194509250565b60008060408385031215611ce957611ce86129b5565b5b6000611cf785828601611aca565b9250506020611d0885828601611adf565b9150509250929050565b60008060408385031215611d2957611d286129b5565b5b6000611d3785828601611aca565b9250506020611d4885828601611b7a565b9150509250929050565b600060208284031215611d6857611d676129b5565b5b6000611d7684828501611af4565b91505092915050565b600060208284031215611d9557611d946129b5565b5b6000611da384828501611b09565b91505092915050565b600060208284031215611dc257611dc16129b5565b5b6000611dd084828501611b7a565b91505092915050565b600080600080600080600060e0888a031215611df857611df76129b5565b5b6000611e068a828b01611b7a565b9750506020611e178a828b01611b7a565b9650506040611e288a828b01611b7a565b9550506060611e398a828b01611b7a565b9450506080611e4a8a828b01611b7a565b93505060a0611e5b8a828b01611aca565b92505060c088013567ffffffffffffffff811115611e7c57611e7b6129b0565b5b611e888a828b01611b4c565b91505092959891949750929550565b611ea081612728565b82525050565b611eaf81612728565b82525050565b611ebe8161273a565b82525050565b611ecd8161273a565b82525050565b6000611ede82612619565b611ee8818561262f565b9350611ef88185602086016127ab565b611f01816129ba565b840191505092915050565b6000611f1782612624565b611f218185612640565b9350611f318185602086016127ab565b611f3a816129ba565b840191505092915050565b6000611f5082612624565b611f5a8185612651565b9350611f6a8185602086016127ab565b611f73816129ba565b840191505092915050565b6000611f8982612624565b611f938185612662565b9350611fa38185602086016127ab565b80840191505092915050565b6000611fbc603283612651565b9150611fc7826129cb565b604082019050919050565b6000611fdf602583612651565b9150611fea82612a1a565b604082019050919050565b6000612002602483612651565b915061200d82612a69565b604082019050919050565b6000612025601983612651565b915061203082612ab8565b602082019050919050565b6000612048602c83612651565b915061205382612ae1565b604082019050919050565b600061206b602983612651565b915061207682612b30565b604082019050919050565b600061208e603883612651565b915061209982612b7f565b604082019050919050565b60006120b1602983612651565b91506120bc82612bce565b604082019050919050565b60006120d4602c83612651565b91506120df82612c1d565b604082019050919050565b60006120f7602f83612651565b915061210282612c6c565b604082019050919050565b600061211a601b83612651565b915061212582612cbb565b602082019050919050565b600061213d602183612651565b915061214882612ce4565b604082019050919050565b6000612160603183612651565b915061216b82612d33565b604082019050919050565b60006101208301600083015161218f600086018261223b565b5060208301516121a2602086018261223b565b5060408301516121b5604086018261223b565b5060608301516121c8606086018261223b565b5060808301516121db608086018261223b565b5060a08301516121ee60a0860182611e97565b5060c083015161220160c0860182611e97565b5060e083015184820360e08601526122198282611f0c565b915050610100830151612230610100860182611eb5565b508091505092915050565b61224481612792565b82525050565b61225381612792565b82525050565b60006122658285611f7e565b91506122718284611f7e565b91508190509392505050565b60006020820190506122926000830184611ea6565b92915050565b60006080820190506122ad6000830187611ea6565b6122ba6020830186611ea6565b6122c7604083018561224a565b81810360608301526122d98184611ed3565b905095945050505050565b60006020820190506122f96000830184611ec4565b92915050565b600060208201905081810360008301526123198184611f45565b905092915050565b6000602082019050818103600083015261233a81611faf565b9050919050565b6000602082019050818103600083015261235a81611fd2565b9050919050565b6000602082019050818103600083015261237a81611ff5565b9050919050565b6000602082019050818103600083015261239a81612018565b9050919050565b600060208201905081810360008301526123ba8161203b565b9050919050565b600060208201905081810360008301526123da8161205e565b9050919050565b600060208201905081810360008301526123fa81612081565b9050919050565b6000602082019050818103600083015261241a816120a4565b9050919050565b6000602082019050818103600083015261243a816120c7565b9050919050565b6000602082019050818103600083015261245a816120ea565b9050919050565b6000602082019050818103600083015261247a8161210d565b9050919050565b6000602082019050818103600083015261249a81612130565b9050919050565b600060208201905081810360008301526124ba81612153565b9050919050565b600060208201905081810360008301526124db8184612176565b905092915050565b60006020820190506124f8600083018461224a565b92915050565b600061012082019050612514600083018c61224a565b612521602083018b61224a565b61252e604083018a61224a565b61253b606083018961224a565b612548608083018861224a565b61255560a0830187611ea6565b61256260c0830186611ea6565b81810360e08301526125748185611f45565b9050612584610100830184611ec4565b9a9950505050505050505050565b600061259c6125ad565b90506125a88282612810565b919050565b6000604051905090565b600067ffffffffffffffff8211156125d2576125d1612977565b5b6125db826129ba565b9050602081019050919050565b600067ffffffffffffffff82111561260357612602612977565b5b61260c826129ba565b9050602081019050919050565b600081519050919050565b600081519050919050565b600082825260208201905092915050565b600082825260208201905092915050565b600082825260208201905092915050565b600081905092915050565b600061267882612792565b915061268383612792565b9250827fffffffffffffffffffffffffffffffffffffffffffffffffffffffffffffffff038211156126b8576126b76128bb565b5b828201905092915050565b60006126ce82612792565b91506126d983612792565b9250826126e9576126e86128ea565b5b828204905092915050565b60006126ff82612792565b915061270a83612792565b92508282101561271d5761271c6128bb565b5b828203905092915050565b600061273382612772565b9050919050565b60008115159050919050565b60007fffffffff0000000000000000000000000000000000000000000000000000000082169050919050565b600073ffffffffffffffffffffffffffffffffffffffff82169050919050565b6000819050919050565b82818337600083830152505050565b60005b838110156127c95780820151818401526020810190506127ae565b838111156127d8576000848401525b50505050565b600060028204905060018216806127f657607f821691505b6020821081141561280a57612809612919565b5b50919050565b612819826129ba565b810181811067ffffffffffffffff8211171561283857612837612977565b5b80604052505050565b600061284c82612792565b91507fffffffffffffffffffffffffffffffffffffffffffffffffffffffffffffffff82141561287f5761287e6128bb565b5b600182019050919050565b600061289582612792565b91506128a083612792565b9250826128b0576128af6128ea565b5b828206905092915050565b7f4e487b7100000000000000000000000000000000000000000000000000000000600052601160045260246000fd5b7f4e487b7100000000000000000000000000000000000000000000000000000000600052601260045260246000fd5b7f4e487b7100000000000000000000000000000000000000000000000000000000600052602260045260246000fd5b7f4e487b7100000000000000000000000000000000000000000000000000000000600052603260045260246000fd5b7f4e487b7100000000000000000000000000000000000000000000000000000000600052604160045260246000fd5b600080fd5b600080fd5b600080fd5b600080fd5b6000601f19601f8301169050919050565b7f4552433732313a207472616e7366657220746f206e6f6e20455243373231526560008201527f63656976657220696d706c656d656e7465720000000000000000000000000000602082015250565b7f4552433732313a207472616e736665722066726f6d20696e636f72726563742060008201527f6f776e6572000000000000000000000000000000000000000000000000000000602082015250565b7f4552433732313a207472616e7366657220746f20746865207a65726f2061646460008201527f7265737300000000000000000000000000000000000000000000000000000000602082015250565b7f4552433732313a20617070726f766520746f2063616c6c657200000000000000600082015250565b7f4552433732313a206f70657261746f7220717565727920666f72206e6f6e657860008201527f697374656e7420746f6b656e0000000000000000000000000000000000000000602082015250565b7f4552433732313a2061646472657373207a65726f206973206e6f74206120766160008201527f6c6964206f776e65720000000000000000000000000000000000000000000000602082015250565b7f4552433732313a20617070726f76652063616c6c6572206973206e6f74206f7760008201527f6e6572206e6f7220617070726f76656420666f7220616c6c0000000000000000602082015250565b7f4552433732313a206f776e657220717565727920666f72206e6f6e657869737460008201527f656e7420746f6b656e0000000000000000000000000000000000000000000000602082015250565b7f4552433732313a20617070726f76656420717565727920666f72206e6f6e657860008201527f697374656e7420746f6b656e0000000000000000000000000000000000000000602082015250565b7f4552433732314d657461646174613a2055524920717565727920666f72206e6f60008201527f6e6578697374656e7420746f6b656e0000000000000000000000000000000000602082015250565b7f7468697320686f757365496420616c7265616479206578697374730000000000600082015250565b7f4552433732313a20617070726f76616c20746f2063757272656e74206f776e6560008201527f7200000000000000000000000000000000000000000000000000000000000000602082015250565b7f4552433732313a207472616e736665722063616c6c6572206973206e6f74206f60008201527f776e6572206e6f7220617070726f766564000000000000000000000000000000602082015250565b612d8b81612728565b8114612d9657600080fd5b50565b612da28161273a565b8114612dad57600080fd5b50565b612db981612746565b8114612dc457600080fd5b50565b612dd081612792565b8114612ddb57600080fd5b5056fea2646970667358221220cdc63b561c1d798a9f5501b8dd0d99cffe8e7e3dea8b107b465bb8a1c24a7a5e64736f6c63430008070033",
					"opcodes": "PUSH1 0x80 PUSH1 0x40 MSTORE CALLVALUE DUP1 ISZERO PUSH3 0x11 JUMPI PUSH1 0x0 DUP1 REVERT JUMPDEST POP PUSH1 0x40 MLOAD PUSH3 0x31CC CODESIZE SUB DUP1 PUSH3 0x31CC DUP4 CODECOPY DUP2 DUP2 ADD PUSH1 0x40 MSTORE DUP2 ADD SWAP1 PUSH3 0x37 SWAP2 SWAP1 PUSH3 0x19F JUMP JUMPDEST DUP2 PUSH1 0x0 SWAP1 DUP1 MLOAD SWAP1 PUSH1 0x20 ADD SWAP1 PUSH3 0x4F SWAP3 SWAP2 SWAP1 PUSH3 0x71 JUMP JUMPDEST POP DUP1 PUSH1 0x1 SWAP1 DUP1 MLOAD SWAP1 PUSH1 0x20 ADD SWAP1 PUSH3 0x68 SWAP3 SWAP2 SWAP1 PUSH3 0x71 JUMP JUMPDEST POP POP POP PUSH3 0x3A8 JUMP JUMPDEST DUP3 DUP1 SLOAD PUSH3 0x7F SWAP1 PUSH3 0x2B9 JUMP JUMPDEST SWAP1 PUSH1 0x0 MSTORE PUSH1 0x20 PUSH1 0x0 KECCAK256 SWAP1 PUSH1 0x1F ADD PUSH1 0x20 SWAP1 DIV DUP2 ADD SWAP3 DUP3 PUSH3 0xA3 JUMPI PUSH1 0x0 DUP6 SSTORE PUSH3 0xEF JUMP JUMPDEST DUP3 PUSH1 0x1F LT PUSH3 0xBE JUMPI DUP1 MLOAD PUSH1 0xFF NOT AND DUP4 DUP1 ADD OR DUP6 SSTORE PUSH3 0xEF JUMP JUMPDEST DUP3 DUP1 ADD PUSH1 0x1 ADD DUP6 SSTORE DUP3 ISZERO PUSH3 0xEF JUMPI SWAP2 DUP3 ADD JUMPDEST DUP3 DUP2 GT ISZERO PUSH3 0xEE JUMPI DUP3 MLOAD DUP3 SSTORE SWAP2 PUSH1 0x20 ADD SWAP2 SWAP1 PUSH1 0x1 ADD SWAP1 PUSH3 0xD1 JUMP JUMPDEST JUMPDEST POP SWAP1 POP PUSH3 0xFE SWAP2 SWAP1 PUSH3 0x102 JUMP JUMPDEST POP SWAP1 JUMP JUMPDEST JUMPDEST DUP1 DUP3 GT ISZERO PUSH3 0x11D JUMPI PUSH1 0x0 DUP2 PUSH1 0x0 SWAP1 SSTORE POP PUSH1 0x1 ADD PUSH3 0x103 JUMP JUMPDEST POP SWAP1 JUMP JUMPDEST PUSH1 0x0 PUSH3 0x138 PUSH3 0x132 DUP5 PUSH3 0x24D JUMP JUMPDEST PUSH3 0x224 JUMP JUMPDEST SWAP1 POP DUP3 DUP2 MSTORE PUSH1 0x20 DUP2 ADD DUP5 DUP5 DUP5 ADD GT ISZERO PUSH3 0x157 JUMPI PUSH3 0x156 PUSH3 0x388 JUMP JUMPDEST JUMPDEST PUSH3 0x164 DUP5 DUP3 DUP6 PUSH3 0x283 JUMP JUMPDEST POP SWAP4 SWAP3 POP POP POP JUMP JUMPDEST PUSH1 0x0 DUP3 PUSH1 0x1F DUP4 ADD SLT PUSH3 0x184 JUMPI PUSH3 0x183 PUSH3 0x383 JUMP JUMPDEST JUMPDEST DUP2 MLOAD PUSH3 0x196 DUP5 DUP3 PUSH1 0x20 DUP7 ADD PUSH3 0x121 JUMP JUMPDEST SWAP2 POP POP SWAP3 SWAP2 POP POP JUMP JUMPDEST PUSH1 0x0 DUP1 PUSH1 0x40 DUP4 DUP6 SUB SLT ISZERO PUSH3 0x1B9 JUMPI PUSH3 0x1B8 PUSH3 0x392 JUMP JUMPDEST JUMPDEST PUSH1 0x0 DUP4 ADD MLOAD PUSH8 0xFFFFFFFFFFFFFFFF DUP2 GT ISZERO PUSH3 0x1DA JUMPI PUSH3 0x1D9 PUSH3 0x38D JUMP JUMPDEST JUMPDEST PUSH3 0x1E8 DUP6 DUP3 DUP7 ADD PUSH3 0x16C JUMP JUMPDEST SWAP3 POP POP PUSH1 0x20 DUP4 ADD MLOAD PUSH8 0xFFFFFFFFFFFFFFFF DUP2 GT ISZERO PUSH3 0x20C JUMPI PUSH3 0x20B PUSH3 0x38D JUMP JUMPDEST JUMPDEST PUSH3 0x21A DUP6 DUP3 DUP7 ADD PUSH3 0x16C JUMP JUMPDEST SWAP2 POP POP SWAP3 POP SWAP3 SWAP1 POP JUMP JUMPDEST PUSH1 0x0 PUSH3 0x230 PUSH3 0x243 JUMP JUMPDEST SWAP1 POP PUSH3 0x23E DUP3 DUP3 PUSH3 0x2EF JUMP JUMPDEST SWAP2 SWAP1 POP JUMP JUMPDEST PUSH1 0x0 PUSH1 0x40 MLOAD SWAP1 POP SWAP1 JUMP JUMPDEST PUSH1 0x0 PUSH8 0xFFFFFFFFFFFFFFFF DUP3 GT ISZERO PUSH3 0x26B JUMPI PUSH3 0x26A PUSH3 0x354 JUMP JUMPDEST JUMPDEST PUSH3 0x276 DUP3 PUSH3 0x397 JUMP JUMPDEST SWAP1 POP PUSH1 0x20 DUP2 ADD SWAP1 POP SWAP2 SWAP1 POP JUMP JUMPDEST PUSH1 0x0 JUMPDEST DUP4 DUP2 LT ISZERO PUSH3 0x2A3 JUMPI DUP1 DUP3 ADD MLOAD DUP2 DUP5 ADD MSTORE PUSH1 0x20 DUP2 ADD SWAP1 POP PUSH3 0x286 JUMP JUMPDEST DUP4 DUP2 GT ISZERO PUSH3 0x2B3 JUMPI PUSH1 0x0 DUP5 DUP5 ADD MSTORE JUMPDEST POP POP POP POP JUMP JUMPDEST PUSH1 0x0 PUSH1 0x2 DUP3 DIV SWAP1 POP PUSH1 0x1 DUP3 AND DUP1 PUSH3 0x2D2 JUMPI PUSH1 0x7F DUP3 AND SWAP2 POP JUMPDEST PUSH1 0x20 DUP3 LT DUP2 EQ ISZERO PUSH3 0x2E9 JUMPI PUSH3 0x2E8 PUSH3 0x325 JUMP JUMPDEST JUMPDEST POP SWAP2 SWAP1 POP JUMP JUMPDEST PUSH3 0x2FA DUP3 PUSH3 0x397 JUMP JUMPDEST DUP2 ADD DUP2 DUP2 LT PUSH8 0xFFFFFFFFFFFFFFFF DUP3 GT OR ISZERO PUSH3 0x31C JUMPI PUSH3 0x31B PUSH3 0x354 JUMP JUMPDEST JUMPDEST DUP1 PUSH1 0x40 MSTORE POP POP POP JUMP JUMPDEST PUSH32 0x4E487B7100000000000000000000000000000000000000000000000000000000 PUSH1 0x0 MSTORE PUSH1 0x22 PUSH1 0x4 MSTORE PUSH1 0x24 PUSH1 0x0 REVERT JUMPDEST PUSH32 0x4E487B7100000000000000000000000000000000000000000000000000000000 PUSH1 0x0 MSTORE PUSH1 0x41 PUSH1 0x4 MSTORE PUSH1 0x24 PUSH1 0x0 REVERT JUMPDEST PUSH1 0x0 DUP1 REVERT JUMPDEST PUSH1 0x0 DUP1 REVERT JUMPDEST PUSH1 0x0 DUP1 REVERT JUMPDEST PUSH1 0x0 DUP1 REVERT JUMPDEST PUSH1 0x0 PUSH1 0x1F NOT PUSH1 0x1F DUP4 ADD AND SWAP1 POP SWAP2 SWAP1 POP JUMP JUMPDEST PUSH2 0x2E14 DUP1 PUSH3 0x3B8 PUSH1 0x0 CODECOPY PUSH1 0x0 RETURN INVALID PUSH1 0x80 PUSH1 0x40 MSTORE CALLVALUE DUP1 ISZERO PUSH2 0x10 JUMPI PUSH1 0x0 DUP1 REVERT JUMPDEST POP PUSH1 0x4 CALLDATASIZE LT PUSH2 0xF5 JUMPI PUSH1 0x0 CALLDATALOAD PUSH1 0xE0 SHR DUP1 PUSH4 0x6352211E GT PUSH2 0x97 JUMPI DUP1 PUSH4 0xAEDA852F GT PUSH2 0x66 JUMPI DUP1 PUSH4 0xAEDA852F EQ PUSH2 0x296 JUMPI DUP1 PUSH4 0xB88D4FDE EQ PUSH2 0x2CE JUMPI DUP1 PUSH4 0xC87B56DD EQ PUSH2 0x2EA JUMPI DUP1 PUSH4 0xE985E9C5 EQ PUSH2 0x31A JUMPI PUSH2 0xF5 JUMP JUMPDEST DUP1 PUSH4 0x6352211E EQ PUSH2 0x1FC JUMPI DUP1 PUSH4 0x70A08231 EQ PUSH2 0x22C JUMPI DUP1 PUSH4 0x95D89B41 EQ PUSH2 0x25C JUMPI DUP1 PUSH4 0xA22CB465 EQ PUSH2 0x27A JUMPI PUSH2 0xF5 JUMP JUMPDEST DUP1 PUSH4 0x81812FC GT PUSH2 0xD3 JUMPI DUP1 PUSH4 0x81812FC EQ PUSH2 0x178 JUMPI DUP1 PUSH4 0x95EA7B3 EQ PUSH2 0x1A8 JUMPI DUP1 PUSH4 0x23B872DD EQ PUSH2 0x1C4 JUMPI DUP1 PUSH4 0x42842E0E EQ PUSH2 0x1E0 JUMPI PUSH2 0xF5 JUMP JUMPDEST DUP1 PUSH4 0x1FFC9A7 EQ PUSH2 0xFA JUMPI DUP1 PUSH4 0x548FA4F EQ PUSH2 0x12A JUMPI DUP1 PUSH4 0x6FDDE03 EQ PUSH2 0x15A JUMPI JUMPDEST PUSH1 0x0 DUP1 REVERT JUMPDEST PUSH2 0x114 PUSH1 0x4 DUP1 CALLDATASIZE SUB DUP2 ADD SWAP1 PUSH2 0x10F SWAP2 SWAP1 PUSH2 0x1D52 JUMP JUMPDEST PUSH2 0x34A JUMP JUMPDEST PUSH1 0x40 MLOAD PUSH2 0x121 SWAP2 SWAP1 PUSH2 0x22E4 JUMP JUMPDEST PUSH1 0x40 MLOAD DUP1 SWAP2 SUB SWAP1 RETURN JUMPDEST PUSH2 0x144 PUSH1 0x4 DUP1 CALLDATASIZE SUB DUP2 ADD SWAP1 PUSH2 0x13F SWAP2 SWAP1 PUSH2 0x1DD9 JUMP JUMPDEST PUSH2 0x42C JUMP JUMPDEST PUSH1 0x40 MLOAD PUSH2 0x151 SWAP2 SWAP1 PUSH2 0x24C1 JUMP JUMPDEST PUSH1 0x40 MLOAD DUP1 SWAP2 SUB SWAP1 RETURN JUMPDEST PUSH2 0x162 PUSH2 0x7C7 JUMP JUMPDEST PUSH1 0x40 MLOAD PUSH2 0x16F SWAP2 SWAP1 PUSH2 0x22FF JUMP JUMPDEST PUSH1 0x40 MLOAD DUP1 SWAP2 SUB SWAP1 RETURN JUMPDEST PUSH2 0x192 PUSH1 0x4 DUP1 CALLDATASIZE SUB DUP2 ADD SWAP1 PUSH2 0x18D SWAP2 SWAP1 PUSH2 0x1DAC JUMP JUMPDEST PUSH2 0x859 JUMP JUMPDEST PUSH1 0x40 MLOAD PUSH2 0x19F SWAP2 SWAP1 PUSH2 0x227D JUMP JUMPDEST PUSH1 0x40 MLOAD DUP1 SWAP2 SUB SWAP1 RETURN JUMPDEST PUSH2 0x1C2 PUSH1 0x4 DUP1 CALLDATASIZE SUB DUP2 ADD SWAP1 PUSH2 0x1BD SWAP2 SWAP1 PUSH2 0x1D12 JUMP JUMPDEST PUSH2 0x8DE JUMP JUMPDEST STOP JUMPDEST PUSH2 0x1DE PUSH1 0x4 DUP1 CALLDATASIZE SUB DUP2 ADD SWAP1 PUSH2 0x1D9 SWAP2 SWAP1 PUSH2 0x1BFC JUMP JUMPDEST PUSH2 0x9F6 JUMP JUMPDEST STOP JUMPDEST PUSH2 0x1FA PUSH1 0x4 DUP1 CALLDATASIZE SUB DUP2 ADD SWAP1 PUSH2 0x1F5 SWAP2 SWAP1 PUSH2 0x1BFC JUMP JUMPDEST PUSH2 0xA56 JUMP JUMPDEST STOP JUMPDEST PUSH2 0x216 PUSH1 0x4 DUP1 CALLDATASIZE SUB DUP2 ADD SWAP1 PUSH2 0x211 SWAP2 SWAP1 PUSH2 0x1DAC JUMP JUMPDEST PUSH2 0xA76 JUMP JUMPDEST PUSH1 0x40 MLOAD PUSH2 0x223 SWAP2 SWAP1 PUSH2 0x227D JUMP JUMPDEST PUSH1 0x40 MLOAD DUP1 SWAP2 SUB SWAP1 RETURN JUMPDEST PUSH2 0x246 PUSH1 0x4 DUP1 CALLDATASIZE SUB DUP2 ADD SWAP1 PUSH2 0x241 SWAP2 SWAP1 PUSH2 0x1B8F JUMP JUMPDEST PUSH2 0xB28 JUMP JUMPDEST PUSH1 0x40 MLOAD PUSH2 0x253 SWAP2 SWAP1 PUSH2 0x24E3 JUMP JUMPDEST PUSH1 0x40 MLOAD DUP1 SWAP2 SUB SWAP1 RETURN JUMPDEST PUSH2 0x264 PUSH2 0xBE0 JUMP JUMPDEST PUSH1 0x40 MLOAD PUSH2 0x271 SWAP2 SWAP1 PUSH2 0x22FF JUMP JUMPDEST PUSH1 0x40 MLOAD DUP1 SWAP2 SUB SWAP1 RETURN JUMPDEST PUSH2 0x294 PUSH1 0x4 DUP1 CALLDATASIZE SUB DUP2 ADD SWAP1 PUSH2 0x28F SWAP2 SWAP1 PUSH2 0x1CD2 JUMP JUMPDEST PUSH2 0xC72 JUMP JUMPDEST STOP JUMPDEST PUSH2 0x2B0 PUSH1 0x4 DUP1 CALLDATASIZE SUB DUP2 ADD SWAP1 PUSH2 0x2AB SWAP2 SWAP1 PUSH2 0x1DAC JUMP JUMPDEST PUSH2 0xC88 JUMP JUMPDEST PUSH1 0x40 MLOAD PUSH2 0x2C5 SWAP10 SWAP9 SWAP8 SWAP7 SWAP6 SWAP5 SWAP4 SWAP3 SWAP2 SWAP1 PUSH2 0x24FE JUMP JUMPDEST PUSH1 0x40 MLOAD DUP1 SWAP2 SUB SWAP1 RETURN JUMPDEST PUSH2 0x2E8 PUSH1 0x4 DUP1 CALLDATASIZE SUB DUP2 ADD SWAP1 PUSH2 0x2E3 SWAP2 SWAP1 PUSH2 0x1C4F JUMP JUMPDEST PUSH2 0xDAB JUMP JUMPDEST STOP JUMPDEST PUSH2 0x304 PUSH1 0x4 DUP1 CALLDATASIZE SUB DUP2 ADD SWAP1 PUSH2 0x2FF SWAP2 SWAP1 PUSH2 0x1DAC JUMP JUMPDEST PUSH2 0xE0D JUMP JUMPDEST PUSH1 0x40 MLOAD PUSH2 0x311 SWAP2 SWAP1 PUSH2 0x22FF JUMP JUMPDEST PUSH1 0x40 MLOAD DUP1 SWAP2 SUB SWAP1 RETURN JUMPDEST PUSH2 0x334 PUSH1 0x4 DUP1 CALLDATASIZE SUB DUP2 ADD SWAP1 PUSH2 0x32F SWAP2 SWAP1 PUSH2 0x1BBC JUMP JUMPDEST PUSH2 0xEB4 JUMP JUMPDEST PUSH1 0x40 MLOAD PUSH2 0x341 SWAP2 SWAP1 PUSH2 0x22E4 JUMP JUMPDEST PUSH1 0x40 MLOAD DUP1 SWAP2 SUB SWAP1 RETURN JUMPDEST PUSH1 0x0 PUSH32 0x80AC58CD00000000000000000000000000000000000000000000000000000000 PUSH28 0xFFFFFFFFFFFFFFFFFFFFFFFFFFFFFFFFFFFFFFFFFFFFFFFFFFFFFFFF NOT AND DUP3 PUSH28 0xFFFFFFFFFFFFFFFFFFFFFFFFFFFFFFFFFFFFFFFFFFFFFFFFFFFFFFFF NOT AND EQ DUP1 PUSH2 0x415 JUMPI POP PUSH32 0x5B5E139F00000000000000000000000000000000000000000000000000000000 PUSH28 0xFFFFFFFFFFFFFFFFFFFFFFFFFFFFFFFFFFFFFFFFFFFFFFFFFFFFFFFF NOT AND DUP3 PUSH28 0xFFFFFFFFFFFFFFFFFFFFFFFFFFFFFFFFFFFFFFFFFFFFFFFFFFFFFFFF NOT AND EQ JUMPDEST DUP1 PUSH2 0x425 JUMPI POP PUSH2 0x424 DUP3 PUSH2 0xF48 JUMP JUMPDEST JUMPDEST SWAP1 POP SWAP2 SWAP1 POP JUMP JUMPDEST PUSH2 0x434 PUSH2 0x1929 JUMP JUMPDEST PUSH1 0x6 PUSH1 0x0 DUP10 DUP2 MSTORE PUSH1 0x20 ADD SWAP1 DUP2 MSTORE PUSH1 0x20 ADD PUSH1 0x0 KECCAK256 PUSH1 0x0 ADD SLOAD DUP9 EQ ISZERO PUSH2 0x48D JUMPI PUSH1 0x40 MLOAD PUSH32 0x8C379A000000000000000000000000000000000000000000000000000000000 DUP2 MSTORE PUSH1 0x4 ADD PUSH2 0x484 SWAP1 PUSH2 0x2461 JUMP JUMPDEST PUSH1 0x40 MLOAD DUP1 SWAP2 SUB SWAP1 REVERT JUMPDEST PUSH1 0x40 MLOAD DUP1 PUSH2 0x120 ADD PUSH1 0x40 MSTORE DUP1 DUP10 DUP2 MSTORE PUSH1 0x20 ADD DUP9 DUP2 MSTORE PUSH1 0x20 ADD DUP8 DUP2 MSTORE PUSH1 0x20 ADD DUP7 DUP2 MSTORE PUSH1 0x20 ADD DUP6 DUP2 MSTORE PUSH1 0x20 ADD DUP5 PUSH20 0xFFFFFFFFFFFFFFFFFFFFFFFFFFFFFFFFFFFFFFFF AND DUP2 MSTORE PUSH1 0x20 ADD DUP5 PUSH20 0xFFFFFFFFFFFFFFFFFFFFFFFFFFFFFFFFFFFFFFFF AND DUP2 MSTORE PUSH1 0x20 ADD DUP4 DUP2 MSTORE PUSH1 0x20 ADD PUSH1 0x0 ISZERO ISZERO DUP2 MSTORE POP PUSH1 0x6 PUSH1 0x0 DUP11 DUP2 MSTORE PUSH1 0x20 ADD SWAP1 DUP2 MSTORE PUSH1 0x20 ADD PUSH1 0x0 KECCAK256 PUSH1 0x0 DUP3 ADD MLOAD DUP2 PUSH1 0x0 ADD SSTORE PUSH1 0x20 DUP3 ADD MLOAD DUP2 PUSH1 0x1 ADD SSTORE PUSH1 0x40 DUP3 ADD MLOAD DUP2 PUSH1 0x2 ADD SSTORE PUSH1 0x60 DUP3 ADD MLOAD DUP2 PUSH1 0x3 ADD SSTORE PUSH1 0x80 DUP3 ADD MLOAD DUP2 PUSH1 0x4 ADD SSTORE PUSH1 0xA0 DUP3 ADD MLOAD DUP2 PUSH1 0x5 ADD PUSH1 0x0 PUSH2 0x100 EXP DUP2 SLOAD DUP2 PUSH20 0xFFFFFFFFFFFFFFFFFFFFFFFFFFFFFFFFFFFFFFFF MUL NOT AND SWAP1 DUP4 PUSH20 0xFFFFFFFFFFFFFFFFFFFFFFFFFFFFFFFFFFFFFFFF AND MUL OR SWAP1 SSTORE POP PUSH1 0xC0 DUP3 ADD MLOAD DUP2 PUSH1 0x6 ADD PUSH1 0x0 PUSH2 0x100 EXP DUP2 SLOAD DUP2 PUSH20 0xFFFFFFFFFFFFFFFFFFFFFFFFFFFFFFFFFFFFFFFF MUL NOT AND SWAP1 DUP4 PUSH20 0xFFFFFFFFFFFFFFFFFFFFFFFFFFFFFFFFFFFFFFFF AND MUL OR SWAP1 SSTORE POP PUSH1 0xE0 DUP3 ADD MLOAD DUP2 PUSH1 0x7 ADD SWAP1 DUP1 MLOAD SWAP1 PUSH1 0x20 ADD SWAP1 PUSH2 0x5EB SWAP3 SWAP2 SWAP1 PUSH2 0x19A3 JUMP JUMPDEST POP PUSH2 0x100 DUP3 ADD MLOAD DUP2 PUSH1 0x8 ADD PUSH1 0x0 PUSH2 0x100 EXP DUP2 SLOAD DUP2 PUSH1 0xFF MUL NOT AND SWAP1 DUP4 ISZERO ISZERO MUL OR SWAP1 SSTORE POP SWAP1 POP POP PUSH1 0x6 PUSH1 0x0 DUP10 DUP2 MSTORE PUSH1 0x20 ADD SWAP1 DUP2 MSTORE PUSH1 0x20 ADD PUSH1 0x0 KECCAK256 PUSH1 0x40 MLOAD DUP1 PUSH2 0x120 ADD PUSH1 0x40 MSTORE SWAP1 DUP2 PUSH1 0x0 DUP3 ADD SLOAD DUP2 MSTORE PUSH1 0x20 ADD PUSH1 0x1 DUP3 ADD SLOAD DUP2 MSTORE PUSH1 0x20 ADD PUSH1 0x2 DUP3 ADD SLOAD DUP2 MSTORE PUSH1 0x20 ADD PUSH1 0x3 DUP3 ADD SLOAD DUP2 MSTORE PUSH1 0x20 ADD PUSH1 0x4 DUP3 ADD SLOAD DUP2 MSTORE PUSH1 0x20 ADD PUSH1 0x5 DUP3 ADD PUSH1 0x0 SWAP1 SLOAD SWAP1 PUSH2 0x100 EXP SWAP1 DIV PUSH20 0xFFFFFFFFFFFFFFFFFFFFFFFFFFFFFFFFFFFFFFFF AND PUSH20 0xFFFFFFFFFFFFFFFFFFFFFFFFFFFFFFFFFFFFFFFF AND PUSH20 0xFFFFFFFFFFFFFFFFFFFFFFFFFFFFFFFFFFFFFFFF AND DUP2 MSTORE PUSH1 0x20 ADD PUSH1 0x6 DUP3 ADD PUSH1 0x0 SWAP1 SLOAD SWAP1 PUSH2 0x100 EXP SWAP1 DIV PUSH20 0xFFFFFFFFFFFFFFFFFFFFFFFFFFFFFFFFFFFFFFFF AND PUSH20 0xFFFFFFFFFFFFFFFFFFFFFFFFFFFFFFFFFFFFFFFF AND PUSH20 0xFFFFFFFFFFFFFFFFFFFFFFFFFFFFFFFFFFFFFFFF AND DUP2 MSTORE PUSH1 0x20 ADD PUSH1 0x7 DUP3 ADD DUP1 SLOAD PUSH2 0x71D SWAP1 PUSH2 0x27DE JUMP JUMPDEST DUP1 PUSH1 0x1F ADD PUSH1 0x20 DUP1 SWAP2 DIV MUL PUSH1 0x20 ADD PUSH1 0x40 MLOAD SWAP1 DUP2 ADD PUSH1 0x40 MSTORE DUP1 SWAP3 SWAP2 SWAP1 DUP2 DUP2 MSTORE PUSH1 0x20 ADD DUP3 DUP1 SLOAD PUSH2 0x749 SWAP1 PUSH2 0x27DE JUMP JUMPDEST DUP1 ISZERO PUSH2 0x796 JUMPI DUP1 PUSH1 0x1F LT PUSH2 0x76B JUMPI PUSH2 0x100 DUP1 DUP4 SLOAD DIV MUL DUP4 MSTORE SWAP2 PUSH1 0x20 ADD SWAP2 PUSH2 0x796 JUMP JUMPDEST DUP3 ADD SWAP2 SWAP1 PUSH1 0x0 MSTORE PUSH1 0x20 PUSH1 0x0 KECCAK256 SWAP1 JUMPDEST DUP2 SLOAD DUP2 MSTORE SWAP1 PUSH1 0x1 ADD SWAP1 PUSH1 0x20 ADD DUP1 DUP4 GT PUSH2 0x779 JUMPI DUP3 SWAP1 SUB PUSH1 0x1F AND DUP3 ADD SWAP2 JUMPDEST POP POP POP POP POP DUP2 MSTORE PUSH1 0x20 ADD PUSH1 0x8 DUP3 ADD PUSH1 0x0 SWAP1 SLOAD SWAP1 PUSH2 0x100 EXP SWAP1 DIV PUSH1 0xFF AND ISZERO ISZERO ISZERO ISZERO DUP2 MSTORE POP POP SWAP1 POP SWAP8 SWAP7 POP POP POP POP POP POP POP JUMP JUMPDEST PUSH1 0x60 PUSH1 0x0 DUP1 SLOAD PUSH2 0x7D6 SWAP1 PUSH2 0x27DE JUMP JUMPDEST DUP1 PUSH1 0x1F ADD PUSH1 0x20 DUP1 SWAP2 DIV MUL PUSH1 0x20 ADD PUSH1 0x40 MLOAD SWAP1 DUP2 ADD PUSH1 0x40 MSTORE DUP1 SWAP3 SWAP2 SWAP1 DUP2 DUP2 MSTORE PUSH1 0x20 ADD DUP3 DUP1 SLOAD PUSH2 0x802 SWAP1 PUSH2 0x27DE JUMP JUMPDEST DUP1 ISZERO PUSH2 0x84F JUMPI DUP1 PUSH1 0x1F LT PUSH2 0x824 JUMPI PUSH2 0x100 DUP1 DUP4 SLOAD DIV MUL DUP4 MSTORE SWAP2 PUSH1 0x20 ADD SWAP2 PUSH2 0x84F JUMP JUMPDEST DUP3 ADD SWAP2 SWAP1 PUSH1 0x0 MSTORE PUSH1 0x20 PUSH1 0x0 KECCAK256 SWAP1 JUMPDEST DUP2 SLOAD DUP2 MSTORE SWAP1 PUSH1 0x1 ADD SWAP1 PUSH1 0x20 ADD DUP1 DUP4 GT PUSH2 0x832 JUMPI DUP3 SWAP1 SUB PUSH1 0x1F AND DUP3 ADD SWAP2 JUMPDEST POP POP POP POP POP SWAP1 POP SWAP1 JUMP JUMPDEST PUSH1 0x0 PUSH2 0x864 DUP3 PUSH2 0xFB2 JUMP JUMPDEST PUSH2 0x8A3 JUMPI PUSH1 0x40 MLOAD PUSH32 0x8C379A000000000000000000000000000000000000000000000000000000000 DUP2 MSTORE PUSH1 0x4 ADD PUSH2 0x89A SWAP1 PUSH2 0x2421 JUMP JUMPDEST PUSH1 0x40 MLOAD DUP1 SWAP2 SUB SWAP1 REVERT JUMPDEST PUSH1 0x4 PUSH1 0x0 DUP4 DUP2 MSTORE PUSH1 0x20 ADD SWAP1 DUP2 MSTORE PUSH1 0x20 ADD PUSH1 0x0 KECCAK256 PUSH1 0x0 SWAP1 SLOAD SWAP1 PUSH2 0x100 EXP SWAP1 DIV PUSH20 0xFFFFFFFFFFFFFFFFFFFFFFFFFFFFFFFFFFFFFFFF AND SWAP1 POP SWAP2 SWAP1 POP JUMP JUMPDEST PUSH1 0x0 PUSH2 0x8E9 DUP3 PUSH2 0xA76 JUMP JUMPDEST SWAP1 POP DUP1 PUSH20 0xFFFFFFFFFFFFFFFFFFFFFFFFFFFFFFFFFFFFFFFF AND DUP4 PUSH20 0xFFFFFFFFFFFFFFFFFFFFFFFFFFFFFFFFFFFFFFFF AND EQ ISZERO PUSH2 0x95A JUMPI PUSH1 0x40 MLOAD PUSH32 0x8C379A000000000000000000000000000000000000000000000000000000000 DUP2 MSTORE PUSH1 0x4 ADD PUSH2 0x951 SWAP1 PUSH2 0x2481 JUMP JUMPDEST PUSH1 0x40 MLOAD DUP1 SWAP2 SUB SWAP1 REVERT JUMPDEST DUP1 PUSH20 0xFFFFFFFFFFFFFFFFFFFFFFFFFFFFFFFFFFFFFFFF AND PUSH2 0x979 PUSH2 0x101E JUMP JUMPDEST PUSH20 0xFFFFFFFFFFFFFFFFFFFFFFFFFFFFFFFFFFFFFFFF AND EQ DUP1 PUSH2 0x9A8 JUMPI POP PUSH2 0x9A7 DUP2 PUSH2 0x9A2 PUSH2 0x101E JUMP JUMPDEST PUSH2 0xEB4 JUMP JUMPDEST JUMPDEST PUSH2 0x9E7 JUMPI PUSH1 0x40 MLOAD PUSH32 0x8C379A000000000000000000000000000000000000000000000000000000000 DUP2 MSTORE PUSH1 0x4 ADD PUSH2 0x9DE SWAP1 PUSH2 0x23E1 JUMP JUMPDEST PUSH1 0x40 MLOAD DUP1 SWAP2 SUB SWAP1 REVERT JUMPDEST PUSH2 0x9F1 DUP4 DUP4 PUSH2 0x1026 JUMP JUMPDEST POP POP POP JUMP JUMPDEST PUSH2 0xA07 PUSH2 0xA01 PUSH2 0x101E JUMP JUMPDEST DUP3 PUSH2 0x10DF JUMP JUMPDEST PUSH2 0xA46 JUMPI PUSH1 0x40 MLOAD PUSH32 0x8C379A000000000000000000000000000000000000000000000000000000000 DUP2 MSTORE PUSH1 0x4 ADD PUSH2 0xA3D SWAP1 PUSH2 0x24A1 JUMP JUMPDEST PUSH1 0x40 MLOAD DUP1 SWAP2 SUB SWAP1 REVERT JUMPDEST PUSH2 0xA51 DUP4 DUP4 DUP4 PUSH2 0x11BD JUMP JUMPDEST POP POP POP JUMP JUMPDEST PUSH2 0xA71 DUP4 DUP4 DUP4 PUSH1 0x40 MLOAD DUP1 PUSH1 0x20 ADD PUSH1 0x40 MSTORE DUP1 PUSH1 0x0 DUP2 MSTORE POP PUSH2 0xDAB JUMP JUMPDEST POP POP POP JUMP JUMPDEST PUSH1 0x0 DUP1 PUSH1 0x2 PUSH1 0x0 DUP5 DUP2 MSTORE PUSH1 0x20 ADD SWAP1 DUP2 MSTORE PUSH1 0x20 ADD PUSH1 0x0 KECCAK256 PUSH1 0x0 SWAP1 SLOAD SWAP1 PUSH2 0x100 EXP SWAP1 DIV PUSH20 0xFFFFFFFFFFFFFFFFFFFFFFFFFFFFFFFFFFFFFFFF AND SWAP1 POP PUSH1 0x0 PUSH20 0xFFFFFFFFFFFFFFFFFFFFFFFFFFFFFFFFFFFFFFFF AND DUP2 PUSH20 0xFFFFFFFFFFFFFFFFFFFFFFFFFFFFFFFFFFFFFFFF AND EQ ISZERO PUSH2 0xB1F JUMPI PUSH1 0x40 MLOAD PUSH32 0x8C379A000000000000000000000000000000000000000000000000000000000 DUP2 MSTORE PUSH1 0x4 ADD PUSH2 0xB16 SWAP1 PUSH2 0x2401 JUMP JUMPDEST PUSH1 0x40 MLOAD DUP1 SWAP2 SUB SWAP1 REVERT JUMPDEST DUP1 SWAP2 POP POP SWAP2 SWAP1 POP JUMP JUMPDEST PUSH1 0x0 DUP1 PUSH20 0xFFFFFFFFFFFFFFFFFFFFFFFFFFFFFFFFFFFFFFFF AND DUP3 PUSH20 0xFFFFFFFFFFFFFFFFFFFFFFFFFFFFFFFFFFFFFFFF AND EQ ISZERO PUSH2 0xB99 JUMPI PUSH1 0x40 MLOAD PUSH32 0x8C379A000000000000000000000000000000000000000000000000000000000 DUP2 MSTORE PUSH1 0x4 ADD PUSH2 0xB90 SWAP1 PUSH2 0x23C1 JUMP JUMPDEST PUSH1 0x40 MLOAD DUP1 SWAP2 SUB SWAP1 REVERT JUMPDEST PUSH1 0x3 PUSH1 0x0 DUP4 PUSH20 0xFFFFFFFFFFFFFFFFFFFFFFFFFFFFFFFFFFFFFFFF AND PUSH20 0xFFFFFFFFFFFFFFFFFFFFFFFFFFFFFFFFFFFFFFFF AND DUP2 MSTORE PUSH1 0x20 ADD SWAP1 DUP2 MSTORE PUSH1 0x20 ADD PUSH1 0x0 KECCAK256 SLOAD SWAP1 POP SWAP2 SWAP1 POP JUMP JUMPDEST PUSH1 0x60 PUSH1 0x1 DUP1 SLOAD PUSH2 0xBEF SWAP1 PUSH2 0x27DE JUMP JUMPDEST DUP1 PUSH1 0x1F ADD PUSH1 0x20 DUP1 SWAP2 DIV MUL PUSH1 0x20 ADD PUSH1 0x40 MLOAD SWAP1 DUP2 ADD PUSH1 0x40 MSTORE DUP1 SWAP3 SWAP2 SWAP1 DUP2 DUP2 MSTORE PUSH1 0x20 ADD DUP3 DUP1 SLOAD PUSH2 0xC1B SWAP1 PUSH2 0x27DE JUMP JUMPDEST DUP1 ISZERO PUSH2 0xC68 JUMPI DUP1 PUSH1 0x1F LT PUSH2 0xC3D JUMPI PUSH2 0x100 DUP1 DUP4 SLOAD DIV MUL DUP4 MSTORE SWAP2 PUSH1 0x20 ADD SWAP2 PUSH2 0xC68 JUMP JUMPDEST DUP3 ADD SWAP2 SWAP1 PUSH1 0x0 MSTORE PUSH1 0x20 PUSH1 0x0 KECCAK256 SWAP1 JUMPDEST DUP2 SLOAD DUP2 MSTORE SWAP1 PUSH1 0x1 ADD SWAP1 PUSH1 0x20 ADD DUP1 DUP4 GT PUSH2 0xC4B JUMPI DUP3 SWAP1 SUB PUSH1 0x1F AND DUP3 ADD SWAP2 JUMPDEST POP POP POP POP POP SWAP1 POP SWAP1 JUMP JUMPDEST PUSH2 0xC84 PUSH2 0xC7D PUSH2 0x101E JUMP JUMPDEST DUP4 DUP4 PUSH2 0x1424 JUMP JUMPDEST POP POP JUMP JUMPDEST PUSH1 0x6 PUSH1 0x20 MSTORE DUP1 PUSH1 0x0 MSTORE PUSH1 0x40 PUSH1 0x0 KECCAK256 PUSH1 0x0 SWAP2 POP SWAP1 POP DUP1 PUSH1 0x0 ADD SLOAD SWAP1 DUP1 PUSH1 0x1 ADD SLOAD SWAP1 DUP1 PUSH1 0x2 ADD SLOAD SWAP1 DUP1 PUSH1 0x3 ADD SLOAD SWAP1 DUP1 PUSH1 0x4 ADD SLOAD SWAP1 DUP1 PUSH1 0x5 ADD PUSH1 0x0 SWAP1 SLOAD SWAP1 PUSH2 0x100 EXP SWAP1 DIV PUSH20 0xFFFFFFFFFFFFFFFFFFFFFFFFFFFFFFFFFFFFFFFF AND SWAP1 DUP1 PUSH1 0x6 ADD PUSH1 0x0 SWAP1 SLOAD SWAP1 PUSH2 0x100 EXP SWAP1 DIV PUSH20 0xFFFFFFFFFFFFFFFFFFFFFFFFFFFFFFFFFFFFFFFF AND SWAP1 DUP1 PUSH1 0x7 ADD DUP1 SLOAD PUSH2 0xD15 SWAP1 PUSH2 0x27DE JUMP JUMPDEST DUP1 PUSH1 0x1F ADD PUSH1 0x20 DUP1 SWAP2 DIV MUL PUSH1 0x20 ADD PUSH1 0x40 MLOAD SWAP1 DUP2 ADD PUSH1 0x40 MSTORE DUP1 SWAP3 SWAP2 SWAP1 DUP2 DUP2 MSTORE PUSH1 0x20 ADD DUP3 DUP1 SLOAD PUSH2 0xD41 SWAP1 PUSH2 0x27DE JUMP JUMPDEST DUP1 ISZERO PUSH2 0xD8E JUMPI DUP1 PUSH1 0x1F LT PUSH2 0xD63 JUMPI PUSH2 0x100 DUP1 DUP4 SLOAD DIV MUL DUP4 MSTORE SWAP2 PUSH1 0x20 ADD SWAP2 PUSH2 0xD8E JUMP JUMPDEST DUP3 ADD SWAP2 SWAP1 PUSH1 0x0 MSTORE PUSH1 0x20 PUSH1 0x0 KECCAK256 SWAP1 JUMPDEST DUP2 SLOAD DUP2 MSTORE SWAP1 PUSH1 0x1 ADD SWAP1 PUSH1 0x20 ADD DUP1 DUP4 GT PUSH2 0xD71 JUMPI DUP3 SWAP1 SUB PUSH1 0x1F AND DUP3 ADD SWAP2 JUMPDEST POP POP POP POP POP SWAP1 DUP1 PUSH1 0x8 ADD PUSH1 0x0 SWAP1 SLOAD SWAP1 PUSH2 0x100 EXP SWAP1 DIV PUSH1 0xFF AND SWAP1 POP DUP10 JUMP JUMPDEST PUSH2 0xDBC PUSH2 0xDB6 PUSH2 0x101E JUMP JUMPDEST DUP4 PUSH2 0x10DF JUMP JUMPDEST PUSH2 0xDFB JUMPI PUSH1 0x40 MLOAD PUSH32 0x8C379A000000000000000000000000000000000000000000000000000000000 DUP2 MSTORE PUSH1 0x4 ADD PUSH2 0xDF2 SWAP1 PUSH2 0x24A1 JUMP JUMPDEST PUSH1 0x40 MLOAD DUP1 SWAP2 SUB SWAP1 REVERT JUMPDEST PUSH2 0xE07 DUP5 DUP5 DUP5 DUP5 PUSH2 0x1591 JUMP JUMPDEST POP POP POP POP JUMP JUMPDEST PUSH1 0x60 PUSH2 0xE18 DUP3 PUSH2 0xFB2 JUMP JUMPDEST PUSH2 0xE57 JUMPI PUSH1 0x40 MLOAD PUSH32 0x8C379A000000000000000000000000000000000000000000000000000000000 DUP2 MSTORE PUSH1 0x4 ADD PUSH2 0xE4E SWAP1 PUSH2 0x2441 JUMP JUMPDEST PUSH1 0x40 MLOAD DUP1 SWAP2 SUB SWAP1 REVERT JUMPDEST PUSH1 0x0 PUSH2 0xE61 PUSH2 0x15ED JUMP JUMPDEST SWAP1 POP PUSH1 0x0 DUP2 MLOAD GT PUSH2 0xE81 JUMPI PUSH1 0x40 MLOAD DUP1 PUSH1 0x20 ADD PUSH1 0x40 MSTORE DUP1 PUSH1 0x0 DUP2 MSTORE POP PUSH2 0xEAC JUMP JUMPDEST DUP1 PUSH2 0xE8B DUP5 PUSH2 0x1604 JUMP JUMPDEST PUSH1 0x40 MLOAD PUSH1 0x20 ADD PUSH2 0xE9C SWAP3 SWAP2 SWAP1 PUSH2 0x2259 JUMP JUMPDEST PUSH1 0x40 MLOAD PUSH1 0x20 DUP2 DUP4 SUB SUB DUP2 MSTORE SWAP1 PUSH1 0x40 MSTORE JUMPDEST SWAP2 POP POP SWAP2 SWAP1 POP JUMP JUMPDEST PUSH1 0x0 PUSH1 0x5 PUSH1 0x0 DUP5 PUSH20 0xFFFFFFFFFFFFFFFFFFFFFFFFFFFFFFFFFFFFFFFF AND PUSH20 0xFFFFFFFFFFFFFFFFFFFFFFFFFFFFFFFFFFFFFFFF AND DUP2 MSTORE PUSH1 0x20 ADD SWAP1 DUP2 MSTORE PUSH1 0x20 ADD PUSH1 0x0 KECCAK256 PUSH1 0x0 DUP4 PUSH20 0xFFFFFFFFFFFFFFFFFFFFFFFFFFFFFFFFFFFFFFFF AND PUSH20 0xFFFFFFFFFFFFFFFFFFFFFFFFFFFFFFFFFFFFFFFF AND DUP2 MSTORE PUSH1 0x20 ADD SWAP1 DUP2 MSTORE PUSH1 0x20 ADD PUSH1 0x0 KECCAK256 PUSH1 0x0 SWAP1 SLOAD SWAP1 PUSH2 0x100 EXP SWAP1 DIV PUSH1 0xFF AND SWAP1 POP SWAP3 SWAP2 POP POP JUMP JUMPDEST PUSH1 0x0 PUSH32 0x1FFC9A700000000000000000000000000000000000000000000000000000000 PUSH28 0xFFFFFFFFFFFFFFFFFFFFFFFFFFFFFFFFFFFFFFFFFFFFFFFFFFFFFFFF NOT AND DUP3 PUSH28 0xFFFFFFFFFFFFFFFFFFFFFFFFFFFFFFFFFFFFFFFFFFFFFFFFFFFFFFFF NOT AND EQ SWAP1 POP SWAP2 SWAP1 POP JUMP JUMPDEST PUSH1 0x0 DUP1 PUSH20 0xFFFFFFFFFFFFFFFFFFFFFFFFFFFFFFFFFFFFFFFF AND PUSH1 0x2 PUSH1 0x0 DUP5 DUP2 MSTORE PUSH1 0x20 ADD SWAP1 DUP2 MSTORE PUSH1 0x20 ADD PUSH1 0x0 KECCAK256 PUSH1 0x0 SWAP1 SLOAD SWAP1 PUSH2 0x100 EXP SWAP1 DIV PUSH20 0xFFFFFFFFFFFFFFFFFFFFFFFFFFFFFFFFFFFFFFFF AND PUSH20 0xFFFFFFFFFFFFFFFFFFFFFFFFFFFFFFFFFFFFFFFF AND EQ ISZERO SWAP1 POP SWAP2 SWAP1 POP JUMP JUMPDEST PUSH1 0x0 CALLER SWAP1 POP SWAP1 JUMP JUMPDEST DUP2 PUSH1 0x4 PUSH1 0x0 DUP4 DUP2 MSTORE PUSH1 0x20 ADD SWAP1 DUP2 MSTORE PUSH1 0x20 ADD PUSH1 0x0 KECCAK256 PUSH1 0x0 PUSH2 0x100 EXP DUP2 SLOAD DUP2 PUSH20 0xFFFFFFFFFFFFFFFFFFFFFFFFFFFFFFFFFFFFFFFF MUL NOT AND SWAP1 DUP4 PUSH20 0xFFFFFFFFFFFFFFFFFFFFFFFFFFFFFFFFFFFFFFFF AND MUL OR SWAP1 SSTORE POP DUP1 DUP3 PUSH20 0xFFFFFFFFFFFFFFFFFFFFFFFFFFFFFFFFFFFFFFFF AND PUSH2 0x1099 DUP4 PUSH2 0xA76 JUMP JUMPDEST PUSH20 0xFFFFFFFFFFFFFFFFFFFFFFFFFFFFFFFFFFFFFFFF AND PUSH32 0x8C5BE1E5EBEC7D5BD14F71427D1E84F3DD0314C0F7B2291E5B200AC8C7C3B925 PUSH1 0x40 MLOAD PUSH1 0x40 MLOAD DUP1 SWAP2 SUB SWAP1 LOG4 POP POP JUMP JUMPDEST PUSH1 0x0 PUSH2 0x10EA DUP3 PUSH2 0xFB2 JUMP JUMPDEST PUSH2 0x1129 JUMPI PUSH1 0x40 MLOAD PUSH32 0x8C379A000000000000000000000000000000000000000000000000000000000 DUP2 MSTORE PUSH1 0x4 ADD PUSH2 0x1120 SWAP1 PUSH2 0x23A1 JUMP JUMPDEST PUSH1 0x40 MLOAD DUP1 SWAP2 SUB SWAP1 REVERT JUMPDEST PUSH1 0x0 PUSH2 0x1134 DUP4 PUSH2 0xA76 JUMP JUMPDEST SWAP1 POP DUP1 PUSH20 0xFFFFFFFFFFFFFFFFFFFFFFFFFFFFFFFFFFFFFFFF AND DUP5 PUSH20 0xFFFFFFFFFFFFFFFFFFFFFFFFFFFFFFFFFFFFFFFF AND EQ DUP1 PUSH2 0x1176 JUMPI POP PUSH2 0x1175 DUP2 DUP6 PUSH2 0xEB4 JUMP JUMPDEST JUMPDEST DUP1 PUSH2 0x11B4 JUMPI POP DUP4 PUSH20 0xFFFFFFFFFFFFFFFFFFFFFFFFFFFFFFFFFFFFFFFF AND PUSH2 0x119C DUP5 PUSH2 0x859 JUMP JUMPDEST PUSH20 0xFFFFFFFFFFFFFFFFFFFFFFFFFFFFFFFFFFFFFFFF AND EQ JUMPDEST SWAP2 POP POP SWAP3 SWAP2 POP POP JUMP JUMPDEST DUP3 PUSH20 0xFFFFFFFFFFFFFFFFFFFFFFFFFFFFFFFFFFFFFFFF AND PUSH2 0x11DD DUP3 PUSH2 0xA76 JUMP JUMPDEST PUSH20 0xFFFFFFFFFFFFFFFFFFFFFFFFFFFFFFFFFFFFFFFF AND EQ PUSH2 0x1233 JUMPI PUSH1 0x40 MLOAD PUSH32 0x8C379A000000000000000000000000000000000000000000000000000000000 DUP2 MSTORE PUSH1 0x4 ADD PUSH2 0x122A SWAP1 PUSH2 0x2341 JUMP JUMPDEST PUSH1 0x40 MLOAD DUP1 SWAP2 SUB SWAP1 REVERT JUMPDEST PUSH1 0x0 PUSH20 0xFFFFFFFFFFFFFFFFFFFFFFFFFFFFFFFFFFFFFFFF AND DUP3 PUSH20 0xFFFFFFFFFFFFFFFFFFFFFFFFFFFFFFFFFFFFFFFF AND EQ ISZERO PUSH2 0x12A3 JUMPI PUSH1 0x40 MLOAD PUSH32 0x8C379A000000000000000000000000000000000000000000000000000000000 DUP2 MSTORE PUSH1 0x4 ADD PUSH2 0x129A SWAP1 PUSH2 0x2361 JUMP JUMPDEST PUSH1 0x40 MLOAD DUP1 SWAP2 SUB SWAP1 REVERT JUMPDEST PUSH2 0x12AE DUP4 DUP4 DUP4 PUSH2 0x1765 JUMP JUMPDEST PUSH2 0x12B9 PUSH1 0x0 DUP3 PUSH2 0x1026 JUMP JUMPDEST PUSH1 0x1 PUSH1 0x3 PUSH1 0x0 DUP6 PUSH20 0xFFFFFFFFFFFFFFFFFFFFFFFFFFFFFFFFFFFFFFFF AND PUSH20 0xFFFFFFFFFFFFFFFFFFFFFFFFFFFFFFFFFFFFFFFF AND DUP2 MSTORE PUSH1 0x20 ADD SWAP1 DUP2 MSTORE PUSH1 0x20 ADD PUSH1 0x0 KECCAK256 PUSH1 0x0 DUP3 DUP3 SLOAD PUSH2 0x1309 SWAP2 SWAP1 PUSH2 0x26F4 JUMP JUMPDEST SWAP3 POP POP DUP2 SWAP1 SSTORE POP PUSH1 0x1 PUSH1 0x3 PUSH1 0x0 DUP5 PUSH20 0xFFFFFFFFFFFFFFFFFFFFFFFFFFFFFFFFFFFFFFFF AND PUSH20 0xFFFFFFFFFFFFFFFFFFFFFFFFFFFFFFFFFFFFFFFF AND DUP2 MSTORE PUSH1 0x20 ADD SWAP1 DUP2 MSTORE PUSH1 0x20 ADD PUSH1 0x0 KECCAK256 PUSH1 0x0 DUP3 DUP3 SLOAD PUSH2 0x1360 SWAP2 SWAP1 PUSH2 0x266D JUMP JUMPDEST SWAP3 POP POP DUP2 SWAP1 SSTORE POP DUP2 PUSH1 0x2 PUSH1 0x0 DUP4 DUP2 MSTORE PUSH1 0x20 ADD SWAP1 DUP2 MSTORE PUSH1 0x20 ADD PUSH1 0x0 KECCAK256 PUSH1 0x0 PUSH2 0x100 EXP DUP2 SLOAD DUP2 PUSH20 0xFFFFFFFFFFFFFFFFFFFFFFFFFFFFFFFFFFFFFFFF MUL NOT AND SWAP1 DUP4 PUSH20 0xFFFFFFFFFFFFFFFFFFFFFFFFFFFFFFFFFFFFFFFF AND MUL OR SWAP1 SSTORE POP DUP1 DUP3 PUSH20 0xFFFFFFFFFFFFFFFFFFFFFFFFFFFFFFFFFFFFFFFF AND DUP5 PUSH20 0xFFFFFFFFFFFFFFFFFFFFFFFFFFFFFFFFFFFFFFFF AND PUSH32 0xDDF252AD1BE2C89B69C2B068FC378DAA952BA7F163C4A11628F55A4DF523B3EF PUSH1 0x40 MLOAD PUSH1 0x40 MLOAD DUP1 SWAP2 SUB SWAP1 LOG4 PUSH2 0x141F DUP4 DUP4 DUP4 PUSH2 0x176A JUMP JUMPDEST POP POP POP JUMP JUMPDEST DUP2 PUSH20 0xFFFFFFFFFFFFFFFFFFFFFFFFFFFFFFFFFFFFFFFF AND DUP4 PUSH20 0xFFFFFFFFFFFFFFFFFFFFFFFFFFFFFFFFFFFFFFFF AND EQ ISZERO PUSH2 0x1493 JUMPI PUSH1 0x40 MLOAD PUSH32 0x8C379A000000000000000000000000000000000000000000000000000000000 DUP2 MSTORE PUSH1 0x4 ADD PUSH2 0x148A SWAP1 PUSH2 0x2381 JUMP JUMPDEST PUSH1 0x40 MLOAD DUP1 SWAP2 SUB SWAP1 REVERT JUMPDEST DUP1 PUSH1 0x5 PUSH1 0x0 DUP6 PUSH20 0xFFFFFFFFFFFFFFFFFFFFFFFFFFFFFFFFFFFFFFFF AND PUSH20 0xFFFFFFFFFFFFFFFFFFFFFFFFFFFFFFFFFFFFFFFF AND DUP2 MSTORE PUSH1 0x20 ADD SWAP1 DUP2 MSTORE PUSH1 0x20 ADD PUSH1 0x0 KECCAK256 PUSH1 0x0 DUP5 PUSH20 0xFFFFFFFFFFFFFFFFFFFFFFFFFFFFFFFFFFFFFFFF AND PUSH20 0xFFFFFFFFFFFFFFFFFFFFFFFFFFFFFFFFFFFFFFFF AND DUP2 MSTORE PUSH1 0x20 ADD SWAP1 DUP2 MSTORE PUSH1 0x20 ADD PUSH1 0x0 KECCAK256 PUSH1 0x0 PUSH2 0x100 EXP DUP2 SLOAD DUP2 PUSH1 0xFF MUL NOT AND SWAP1 DUP4 ISZERO ISZERO MUL OR SWAP1 SSTORE POP DUP2 PUSH20 0xFFFFFFFFFFFFFFFFFFFFFFFFFFFFFFFFFFFFFFFF AND DUP4 PUSH20 0xFFFFFFFFFFFFFFFFFFFFFFFFFFFFFFFFFFFFFFFF AND PUSH32 0x17307EAB39AB6107E8899845AD3D59BD9653F200F220920489CA2B5937696C31 DUP4 PUSH1 0x40 MLOAD PUSH2 0x1584 SWAP2 SWAP1 PUSH2 0x22E4 JUMP JUMPDEST PUSH1 0x40 MLOAD DUP1 SWAP2 SUB SWAP1 LOG3 POP POP POP JUMP JUMPDEST PUSH2 0x159C DUP5 DUP5 DUP5 PUSH2 0x11BD JUMP JUMPDEST PUSH2 0x15A8 DUP5 DUP5 DUP5 DUP5 PUSH2 0x176F JUMP JUMPDEST PUSH2 0x15E7 JUMPI PUSH1 0x40 MLOAD PUSH32 0x8C379A000000000000000000000000000000000000000000000000000000000 DUP2 MSTORE PUSH1 0x4 ADD PUSH2 0x15DE SWAP1 PUSH2 0x2321 JUMP JUMPDEST PUSH1 0x40 MLOAD DUP1 SWAP2 SUB SWAP1 REVERT JUMPDEST POP POP POP POP JUMP JUMPDEST PUSH1 0x60 PUSH1 0x40 MLOAD DUP1 PUSH1 0x20 ADD PUSH1 0x40 MSTORE DUP1 PUSH1 0x0 DUP2 MSTORE POP SWAP1 POP SWAP1 JUMP JUMPDEST PUSH1 0x60 PUSH1 0x0 DUP3 EQ ISZERO PUSH2 0x164C JUMPI PUSH1 0x40 MLOAD DUP1 PUSH1 0x40 ADD PUSH1 0x40 MSTORE DUP1 PUSH1 0x1 DUP2 MSTORE PUSH1 0x20 ADD PUSH32 0x3000000000000000000000000000000000000000000000000000000000000000 DUP2 MSTORE POP SWAP1 POP PUSH2 0x1760 JUMP JUMPDEST PUSH1 0x0 DUP3 SWAP1 POP PUSH1 0x0 JUMPDEST PUSH1 0x0 DUP3 EQ PUSH2 0x167E JUMPI DUP1 DUP1 PUSH2 0x1667 SWAP1 PUSH2 0x2841 JUMP JUMPDEST SWAP2 POP POP PUSH1 0xA DUP3 PUSH2 0x1677 SWAP2 SWAP1 PUSH2 0x26C3 JUMP JUMPDEST SWAP2 POP PUSH2 0x1654 JUMP JUMPDEST PUSH1 0x0 DUP2 PUSH8 0xFFFFFFFFFFFFFFFF DUP2 GT ISZERO PUSH2 0x169A JUMPI PUSH2 0x1699 PUSH2 0x2977 JUMP JUMPDEST JUMPDEST PUSH1 0x40 MLOAD SWAP1 DUP1 DUP3 MSTORE DUP1 PUSH1 0x1F ADD PUSH1 0x1F NOT AND PUSH1 0x20 ADD DUP3 ADD PUSH1 0x40 MSTORE DUP1 ISZERO PUSH2 0x16CC JUMPI DUP2 PUSH1 0x20 ADD PUSH1 0x1 DUP3 MUL DUP1 CALLDATASIZE DUP4 CALLDATACOPY DUP1 DUP3 ADD SWAP2 POP POP SWAP1 POP JUMPDEST POP SWAP1 POP JUMPDEST PUSH1 0x0 DUP6 EQ PUSH2 0x1759 JUMPI PUSH1 0x1 DUP3 PUSH2 0x16E5 SWAP2 SWAP1 PUSH2 0x26F4 JUMP JUMPDEST SWAP2 POP PUSH1 0xA DUP6 PUSH2 0x16F4 SWAP2 SWAP1 PUSH2 0x288A JUMP JUMPDEST PUSH1 0x30 PUSH2 0x1700 SWAP2 SWAP1 PUSH2 0x266D JUMP JUMPDEST PUSH1 0xF8 SHL DUP2 DUP4 DUP2 MLOAD DUP2 LT PUSH2 0x1716 JUMPI PUSH2 0x1715 PUSH2 0x2948 JUMP JUMPDEST JUMPDEST PUSH1 0x20 ADD ADD SWAP1 PUSH31 0xFFFFFFFFFFFFFFFFFFFFFFFFFFFFFFFFFFFFFFFFFFFFFFFFFFFFFFFFFFFFFF NOT AND SWAP1 DUP2 PUSH1 0x0 BYTE SWAP1 MSTORE8 POP PUSH1 0xA DUP6 PUSH2 0x1752 SWAP2 SWAP1 PUSH2 0x26C3 JUMP JUMPDEST SWAP5 POP PUSH2 0x16D0 JUMP JUMPDEST DUP1 SWAP4 POP POP POP POP JUMPDEST SWAP2 SWAP1 POP JUMP JUMPDEST POP POP POP JUMP JUMPDEST POP POP POP JUMP JUMPDEST PUSH1 0x0 PUSH2 0x1790 DUP5 PUSH20 0xFFFFFFFFFFFFFFFFFFFFFFFFFFFFFFFFFFFFFFFF AND PUSH2 0x1906 JUMP JUMPDEST ISZERO PUSH2 0x18F9 JUMPI DUP4 PUSH20 0xFFFFFFFFFFFFFFFFFFFFFFFFFFFFFFFFFFFFFFFF AND PUSH4 0x150B7A02 PUSH2 0x17B9 PUSH2 0x101E JUMP JUMPDEST DUP8 DUP7 DUP7 PUSH1 0x40 MLOAD DUP6 PUSH4 0xFFFFFFFF AND PUSH1 0xE0 SHL DUP2 MSTORE PUSH1 0x4 ADD PUSH2 0x17DB SWAP5 SWAP4 SWAP3 SWAP2 SWAP1 PUSH2 0x2298 JUMP JUMPDEST PUSH1 0x20 PUSH1 0x40 MLOAD DUP1 DUP4 SUB DUP2 PUSH1 0x0 DUP8 DUP1 EXTCODESIZE ISZERO DUP1 ISZERO PUSH2 0x17F5 JUMPI PUSH1 0x0 DUP1 REVERT JUMPDEST POP GAS CALL SWAP3 POP POP POP DUP1 ISZERO PUSH2 0x1826 JUMPI POP PUSH1 0x40 MLOAD RETURNDATASIZE PUSH1 0x1F NOT PUSH1 0x1F DUP3 ADD AND DUP3 ADD DUP1 PUSH1 0x40 MSTORE POP DUP2 ADD SWAP1 PUSH2 0x1823 SWAP2 SWAP1 PUSH2 0x1D7F JUMP JUMPDEST PUSH1 0x1 JUMPDEST PUSH2 0x18A9 JUMPI RETURNDATASIZE DUP1 PUSH1 0x0 DUP2 EQ PUSH2 0x1856 JUMPI PUSH1 0x40 MLOAD SWAP2 POP PUSH1 0x1F NOT PUSH1 0x3F RETURNDATASIZE ADD AND DUP3 ADD PUSH1 0x40 MSTORE RETURNDATASIZE DUP3 MSTORE RETURNDATASIZE PUSH1 0x0 PUSH1 0x20 DUP5 ADD RETURNDATACOPY PUSH2 0x185B JUMP JUMPDEST PUSH1 0x60 SWAP2 POP JUMPDEST POP PUSH1 0x0 DUP2 MLOAD EQ ISZERO PUSH2 0x18A1 JUMPI PUSH1 0x40 MLOAD PUSH32 0x8C379A000000000000000000000000000000000000000000000000000000000 DUP2 MSTORE PUSH1 0x4 ADD PUSH2 0x1898 SWAP1 PUSH2 0x2321 JUMP JUMPDEST PUSH1 0x40 MLOAD DUP1 SWAP2 SUB SWAP1 REVERT JUMPDEST DUP1 MLOAD DUP2 PUSH1 0x20 ADD REVERT JUMPDEST PUSH4 0x150B7A02 PUSH1 0xE0 SHL PUSH28 0xFFFFFFFFFFFFFFFFFFFFFFFFFFFFFFFFFFFFFFFFFFFFFFFFFFFFFFFF NOT AND DUP2 PUSH28 0xFFFFFFFFFFFFFFFFFFFFFFFFFFFFFFFFFFFFFFFFFFFFFFFFFFFFFFFF NOT AND EQ SWAP2 POP POP PUSH2 0x18FE JUMP JUMPDEST PUSH1 0x1 SWAP1 POP JUMPDEST SWAP5 SWAP4 POP POP POP POP JUMP JUMPDEST PUSH1 0x0 DUP1 DUP3 PUSH20 0xFFFFFFFFFFFFFFFFFFFFFFFFFFFFFFFFFFFFFFFF AND EXTCODESIZE GT SWAP1 POP SWAP2 SWAP1 POP JUMP JUMPDEST PUSH1 0x40 MLOAD DUP1 PUSH2 0x120 ADD PUSH1 0x40 MSTORE DUP1 PUSH1 0x0 DUP2 MSTORE PUSH1 0x20 ADD PUSH1 0x0 DUP2 MSTORE PUSH1 0x20 ADD PUSH1 0x0 DUP2 MSTORE PUSH1 0x20 ADD PUSH1 0x0 DUP2 MSTORE PUSH1 0x20 ADD PUSH1 0x0 DUP2 MSTORE PUSH1 0x20 ADD PUSH1 0x0 PUSH20 0xFFFFFFFFFFFFFFFFFFFFFFFFFFFFFFFFFFFFFFFF AND DUP2 MSTORE PUSH1 0x20 ADD PUSH1 0x0 PUSH20 0xFFFFFFFFFFFFFFFFFFFFFFFFFFFFFFFFFFFFFFFF AND DUP2 MSTORE PUSH1 0x20 ADD PUSH1 0x60 DUP2 MSTORE PUSH1 0x20 ADD PUSH1 0x0 ISZERO ISZERO DUP2 MSTORE POP SWAP1 JUMP JUMPDEST DUP3 DUP1 SLOAD PUSH2 0x19AF SWAP1 PUSH2 0x27DE JUMP JUMPDEST SWAP1 PUSH1 0x0 MSTORE PUSH1 0x20 PUSH1 0x0 KECCAK256 SWAP1 PUSH1 0x1F ADD PUSH1 0x20 SWAP1 DIV DUP2 ADD SWAP3 DUP3 PUSH2 0x19D1 JUMPI PUSH1 0x0 DUP6 SSTORE PUSH2 0x1A18 JUMP JUMPDEST DUP3 PUSH1 0x1F LT PUSH2 0x19EA JUMPI DUP1 MLOAD PUSH1 0xFF NOT AND DUP4 DUP1 ADD OR DUP6 SSTORE PUSH2 0x1A18 JUMP JUMPDEST DUP3 DUP1 ADD PUSH1 0x1 ADD DUP6 SSTORE DUP3 ISZERO PUSH2 0x1A18 JUMPI SWAP2 DUP3 ADD JUMPDEST DUP3 DUP2 GT ISZERO PUSH2 0x1A17 JUMPI DUP3 MLOAD DUP3 SSTORE SWAP2 PUSH1 0x20 ADD SWAP2 SWAP1 PUSH1 0x1 ADD SWAP1 PUSH2 0x19FC JUMP JUMPDEST JUMPDEST POP SWAP1 POP PUSH2 0x1A25 SWAP2 SWAP1 PUSH2 0x1A29 JUMP JUMPDEST POP SWAP1 JUMP JUMPDEST JUMPDEST DUP1 DUP3 GT ISZERO PUSH2 0x1A42 JUMPI PUSH1 0x0 DUP2 PUSH1 0x0 SWAP1 SSTORE POP PUSH1 0x1 ADD PUSH2 0x1A2A JUMP JUMPDEST POP SWAP1 JUMP JUMPDEST PUSH1 0x0 PUSH2 0x1A59 PUSH2 0x1A54 DUP5 PUSH2 0x25B7 JUMP JUMPDEST PUSH2 0x2592 JUMP JUMPDEST SWAP1 POP DUP3 DUP2 MSTORE PUSH1 0x20 DUP2 ADD DUP5 DUP5 DUP5 ADD GT ISZERO PUSH2 0x1A75 JUMPI PUSH2 0x1A74 PUSH2 0x29AB JUMP JUMPDEST JUMPDEST PUSH2 0x1A80 DUP5 DUP3 DUP6 PUSH2 0x279C JUMP JUMPDEST POP SWAP4 SWAP3 POP POP POP JUMP JUMPDEST PUSH1 0x0 PUSH2 0x1A9B PUSH2 0x1A96 DUP5 PUSH2 0x25E8 JUMP JUMPDEST PUSH2 0x2592 JUMP JUMPDEST SWAP1 POP DUP3 DUP2 MSTORE PUSH1 0x20 DUP2 ADD DUP5 DUP5 DUP5 ADD GT ISZERO PUSH2 0x1AB7 JUMPI PUSH2 0x1AB6 PUSH2 0x29AB JUMP JUMPDEST JUMPDEST PUSH2 0x1AC2 DUP5 DUP3 DUP6 PUSH2 0x279C JUMP JUMPDEST POP SWAP4 SWAP3 POP POP POP JUMP JUMPDEST PUSH1 0x0 DUP2 CALLDATALOAD SWAP1 POP PUSH2 0x1AD9 DUP2 PUSH2 0x2D82 JUMP JUMPDEST SWAP3 SWAP2 POP POP JUMP JUMPDEST PUSH1 0x0 DUP2 CALLDATALOAD SWAP1 POP PUSH2 0x1AEE DUP2 PUSH2 0x2D99 JUMP JUMPDEST SWAP3 SWAP2 POP POP JUMP JUMPDEST PUSH1 0x0 DUP2 CALLDATALOAD SWAP1 POP PUSH2 0x1B03 DUP2 PUSH2 0x2DB0 JUMP JUMPDEST SWAP3 SWAP2 POP POP JUMP JUMPDEST PUSH1 0x0 DUP2 MLOAD SWAP1 POP PUSH2 0x1B18 DUP2 PUSH2 0x2DB0 JUMP JUMPDEST SWAP3 SWAP2 POP POP JUMP JUMPDEST PUSH1 0x0 DUP3 PUSH1 0x1F DUP4 ADD SLT PUSH2 0x1B33 JUMPI PUSH2 0x1B32 PUSH2 0x29A6 JUMP JUMPDEST JUMPDEST DUP2 CALLDATALOAD PUSH2 0x1B43 DUP5 DUP3 PUSH1 0x20 DUP7 ADD PUSH2 0x1A46 JUMP JUMPDEST SWAP2 POP POP SWAP3 SWAP2 POP POP JUMP JUMPDEST PUSH1 0x0 DUP3 PUSH1 0x1F DUP4 ADD SLT PUSH2 0x1B61 JUMPI PUSH2 0x1B60 PUSH2 0x29A6 JUMP JUMPDEST JUMPDEST DUP2 CALLDATALOAD PUSH2 0x1B71 DUP5 DUP3 PUSH1 0x20 DUP7 ADD PUSH2 0x1A88 JUMP JUMPDEST SWAP2 POP POP SWAP3 SWAP2 POP POP JUMP JUMPDEST PUSH1 0x0 DUP2 CALLDATALOAD SWAP1 POP PUSH2 0x1B89 DUP2 PUSH2 0x2DC7 JUMP JUMPDEST SWAP3 SWAP2 POP POP JUMP JUMPDEST PUSH1 0x0 PUSH1 0x20 DUP3 DUP5 SUB SLT ISZERO PUSH2 0x1BA5 JUMPI PUSH2 0x1BA4 PUSH2 0x29B5 JUMP JUMPDEST JUMPDEST PUSH1 0x0 PUSH2 0x1BB3 DUP5 DUP3 DUP6 ADD PUSH2 0x1ACA JUMP JUMPDEST SWAP2 POP POP SWAP3 SWAP2 POP POP JUMP JUMPDEST PUSH1 0x0 DUP1 PUSH1 0x40 DUP4 DUP6 SUB SLT ISZERO PUSH2 0x1BD3 JUMPI PUSH2 0x1BD2 PUSH2 0x29B5 JUMP JUMPDEST JUMPDEST PUSH1 0x0 PUSH2 0x1BE1 DUP6 DUP3 DUP7 ADD PUSH2 0x1ACA JUMP JUMPDEST SWAP3 POP POP PUSH1 0x20 PUSH2 0x1BF2 DUP6 DUP3 DUP7 ADD PUSH2 0x1ACA JUMP JUMPDEST SWAP2 POP POP SWAP3 POP SWAP3 SWAP1 POP JUMP JUMPDEST PUSH1 0x0 DUP1 PUSH1 0x0 PUSH1 0x60 DUP5 DUP7 SUB SLT ISZERO PUSH2 0x1C15 JUMPI PUSH2 0x1C14 PUSH2 0x29B5 JUMP JUMPDEST JUMPDEST PUSH1 0x0 PUSH2 0x1C23 DUP7 DUP3 DUP8 ADD PUSH2 0x1ACA JUMP JUMPDEST SWAP4 POP POP PUSH1 0x20 PUSH2 0x1C34 DUP7 DUP3 DUP8 ADD PUSH2 0x1ACA JUMP JUMPDEST SWAP3 POP POP PUSH1 0x40 PUSH2 0x1C45 DUP7 DUP3 DUP8 ADD PUSH2 0x1B7A JUMP JUMPDEST SWAP2 POP POP SWAP3 POP SWAP3 POP SWAP3 JUMP JUMPDEST PUSH1 0x0 DUP1 PUSH1 0x0 DUP1 PUSH1 0x80 DUP6 DUP8 SUB SLT ISZERO PUSH2 0x1C69 JUMPI PUSH2 0x1C68 PUSH2 0x29B5 JUMP JUMPDEST JUMPDEST PUSH1 0x0 PUSH2 0x1C77 DUP8 DUP3 DUP9 ADD PUSH2 0x1ACA JUMP JUMPDEST SWAP5 POP POP PUSH1 0x20 PUSH2 0x1C88 DUP8 DUP3 DUP9 ADD PUSH2 0x1ACA JUMP JUMPDEST SWAP4 POP POP PUSH1 0x40 PUSH2 0x1C99 DUP8 DUP3 DUP9 ADD PUSH2 0x1B7A JUMP JUMPDEST SWAP3 POP POP PUSH1 0x60 DUP6 ADD CALLDATALOAD PUSH8 0xFFFFFFFFFFFFFFFF DUP2 GT ISZERO PUSH2 0x1CBA JUMPI PUSH2 0x1CB9 PUSH2 0x29B0 JUMP JUMPDEST JUMPDEST PUSH2 0x1CC6 DUP8 DUP3 DUP9 ADD PUSH2 0x1B1E JUMP JUMPDEST SWAP2 POP POP SWAP3 SWAP6 SWAP2 SWAP5 POP SWAP3 POP JUMP JUMPDEST PUSH1 0x0 DUP1 PUSH1 0x40 DUP4 DUP6 SUB SLT ISZERO PUSH2 0x1CE9 JUMPI PUSH2 0x1CE8 PUSH2 0x29B5 JUMP JUMPDEST JUMPDEST PUSH1 0x0 PUSH2 0x1CF7 DUP6 DUP3 DUP7 ADD PUSH2 0x1ACA JUMP JUMPDEST SWAP3 POP POP PUSH1 0x20 PUSH2 0x1D08 DUP6 DUP3 DUP7 ADD PUSH2 0x1ADF JUMP JUMPDEST SWAP2 POP POP SWAP3 POP SWAP3 SWAP1 POP JUMP JUMPDEST PUSH1 0x0 DUP1 PUSH1 0x40 DUP4 DUP6 SUB SLT ISZERO PUSH2 0x1D29 JUMPI PUSH2 0x1D28 PUSH2 0x29B5 JUMP JUMPDEST JUMPDEST PUSH1 0x0 PUSH2 0x1D37 DUP6 DUP3 DUP7 ADD PUSH2 0x1ACA JUMP JUMPDEST SWAP3 POP POP PUSH1 0x20 PUSH2 0x1D48 DUP6 DUP3 DUP7 ADD PUSH2 0x1B7A JUMP JUMPDEST SWAP2 POP POP SWAP3 POP SWAP3 SWAP1 POP JUMP JUMPDEST PUSH1 0x0 PUSH1 0x20 DUP3 DUP5 SUB SLT ISZERO PUSH2 0x1D68 JUMPI PUSH2 0x1D67 PUSH2 0x29B5 JUMP JUMPDEST JUMPDEST PUSH1 0x0 PUSH2 0x1D76 DUP5 DUP3 DUP6 ADD PUSH2 0x1AF4 JUMP JUMPDEST SWAP2 POP POP SWAP3 SWAP2 POP POP JUMP JUMPDEST PUSH1 0x0 PUSH1 0x20 DUP3 DUP5 SUB SLT ISZERO PUSH2 0x1D95 JUMPI PUSH2 0x1D94 PUSH2 0x29B5 JUMP JUMPDEST JUMPDEST PUSH1 0x0 PUSH2 0x1DA3 DUP5 DUP3 DUP6 ADD PUSH2 0x1B09 JUMP JUMPDEST SWAP2 POP POP SWAP3 SWAP2 POP POP JUMP JUMPDEST PUSH1 0x0 PUSH1 0x20 DUP3 DUP5 SUB SLT ISZERO PUSH2 0x1DC2 JUMPI PUSH2 0x1DC1 PUSH2 0x29B5 JUMP JUMPDEST JUMPDEST PUSH1 0x0 PUSH2 0x1DD0 DUP5 DUP3 DUP6 ADD PUSH2 0x1B7A JUMP JUMPDEST SWAP2 POP POP SWAP3 SWAP2 POP POP JUMP JUMPDEST PUSH1 0x0 DUP1 PUSH1 0x0 DUP1 PUSH1 0x0 DUP1 PUSH1 0x0 PUSH1 0xE0 DUP9 DUP11 SUB SLT ISZERO PUSH2 0x1DF8 JUMPI PUSH2 0x1DF7 PUSH2 0x29B5 JUMP JUMPDEST JUMPDEST PUSH1 0x0 PUSH2 0x1E06 DUP11 DUP3 DUP12 ADD PUSH2 0x1B7A JUMP JUMPDEST SWAP8 POP POP PUSH1 0x20 PUSH2 0x1E17 DUP11 DUP3 DUP12 ADD PUSH2 0x1B7A JUMP JUMPDEST SWAP7 POP POP PUSH1 0x40 PUSH2 0x1E28 DUP11 DUP3 DUP12 ADD PUSH2 0x1B7A JUMP JUMPDEST SWAP6 POP POP PUSH1 0x60 PUSH2 0x1E39 DUP11 DUP3 DUP12 ADD PUSH2 0x1B7A JUMP JUMPDEST SWAP5 POP POP PUSH1 0x80 PUSH2 0x1E4A DUP11 DUP3 DUP12 ADD PUSH2 0x1B7A JUMP JUMPDEST SWAP4 POP POP PUSH1 0xA0 PUSH2 0x1E5B DUP11 DUP3 DUP12 ADD PUSH2 0x1ACA JUMP JUMPDEST SWAP3 POP POP PUSH1 0xC0 DUP9 ADD CALLDATALOAD PUSH8 0xFFFFFFFFFFFFFFFF DUP2 GT ISZERO PUSH2 0x1E7C JUMPI PUSH2 0x1E7B PUSH2 0x29B0 JUMP JUMPDEST JUMPDEST PUSH2 0x1E88 DUP11 DUP3 DUP12 ADD PUSH2 0x1B4C JUMP JUMPDEST SWAP2 POP POP SWAP3 SWAP6 SWAP9 SWAP2 SWAP5 SWAP8 POP SWAP3 SWAP6 POP JUMP JUMPDEST PUSH2 0x1EA0 DUP2 PUSH2 0x2728 JUMP JUMPDEST DUP3 MSTORE POP POP JUMP JUMPDEST PUSH2 0x1EAF DUP2 PUSH2 0x2728 JUMP JUMPDEST DUP3 MSTORE POP POP JUMP JUMPDEST PUSH2 0x1EBE DUP2 PUSH2 0x273A JUMP JUMPDEST DUP3 MSTORE POP POP JUMP JUMPDEST PUSH2 0x1ECD DUP2 PUSH2 0x273A JUMP JUMPDEST DUP3 MSTORE POP POP JUMP JUMPDEST PUSH1 0x0 PUSH2 0x1EDE DUP3 PUSH2 0x2619 JUMP JUMPDEST PUSH2 0x1EE8 DUP2 DUP6 PUSH2 0x262F JUMP JUMPDEST SWAP4 POP PUSH2 0x1EF8 DUP2 DUP6 PUSH1 0x20 DUP7 ADD PUSH2 0x27AB JUMP JUMPDEST PUSH2 0x1F01 DUP2 PUSH2 0x29BA JUMP JUMPDEST DUP5 ADD SWAP2 POP POP SWAP3 SWAP2 POP POP JUMP JUMPDEST PUSH1 0x0 PUSH2 0x1F17 DUP3 PUSH2 0x2624 JUMP JUMPDEST PUSH2 0x1F21 DUP2 DUP6 PUSH2 0x2640 JUMP JUMPDEST SWAP4 POP PUSH2 0x1F31 DUP2 DUP6 PUSH1 0x20 DUP7 ADD PUSH2 0x27AB JUMP JUMPDEST PUSH2 0x1F3A DUP2 PUSH2 0x29BA JUMP JUMPDEST DUP5 ADD SWAP2 POP POP SWAP3 SWAP2 POP POP JUMP JUMPDEST PUSH1 0x0 PUSH2 0x1F50 DUP3 PUSH2 0x2624 JUMP JUMPDEST PUSH2 0x1F5A DUP2 DUP6 PUSH2 0x2651 JUMP JUMPDEST SWAP4 POP PUSH2 0x1F6A DUP2 DUP6 PUSH1 0x20 DUP7 ADD PUSH2 0x27AB JUMP JUMPDEST PUSH2 0x1F73 DUP2 PUSH2 0x29BA JUMP JUMPDEST DUP5 ADD SWAP2 POP POP SWAP3 SWAP2 POP POP JUMP JUMPDEST PUSH1 0x0 PUSH2 0x1F89 DUP3 PUSH2 0x2624 JUMP JUMPDEST PUSH2 0x1F93 DUP2 DUP6 PUSH2 0x2662 JUMP JUMPDEST SWAP4 POP PUSH2 0x1FA3 DUP2 DUP6 PUSH1 0x20 DUP7 ADD PUSH2 0x27AB JUMP JUMPDEST DUP1 DUP5 ADD SWAP2 POP POP SWAP3 SWAP2 POP POP JUMP JUMPDEST PUSH1 0x0 PUSH2 0x1FBC PUSH1 0x32 DUP4 PUSH2 0x2651 JUMP JUMPDEST SWAP2 POP PUSH2 0x1FC7 DUP3 PUSH2 0x29CB JUMP JUMPDEST PUSH1 0x40 DUP3 ADD SWAP1 POP SWAP2 SWAP1 POP JUMP JUMPDEST PUSH1 0x0 PUSH2 0x1FDF PUSH1 0x25 DUP4 PUSH2 0x2651 JUMP JUMPDEST SWAP2 POP PUSH2 0x1FEA DUP3 PUSH2 0x2A1A JUMP JUMPDEST PUSH1 0x40 DUP3 ADD SWAP1 POP SWAP2 SWAP1 POP JUMP JUMPDEST PUSH1 0x0 PUSH2 0x2002 PUSH1 0x24 DUP4 PUSH2 0x2651 JUMP JUMPDEST SWAP2 POP PUSH2 0x200D DUP3 PUSH2 0x2A69 JUMP JUMPDEST PUSH1 0x40 DUP3 ADD SWAP1 POP SWAP2 SWAP1 POP JUMP JUMPDEST PUSH1 0x0 PUSH2 0x2025 PUSH1 0x19 DUP4 PUSH2 0x2651 JUMP JUMPDEST SWAP2 POP PUSH2 0x2030 DUP3 PUSH2 0x2AB8 JUMP JUMPDEST PUSH1 0x20 DUP3 ADD SWAP1 POP SWAP2 SWAP1 POP JUMP JUMPDEST PUSH1 0x0 PUSH2 0x2048 PUSH1 0x2C DUP4 PUSH2 0x2651 JUMP JUMPDEST SWAP2 POP PUSH2 0x2053 DUP3 PUSH2 0x2AE1 JUMP JUMPDEST PUSH1 0x40 DUP3 ADD SWAP1 POP SWAP2 SWAP1 POP JUMP JUMPDEST PUSH1 0x0 PUSH2 0x206B PUSH1 0x29 DUP4 PUSH2 0x2651 JUMP JUMPDEST SWAP2 POP PUSH2 0x2076 DUP3 PUSH2 0x2B30 JUMP JUMPDEST PUSH1 0x40 DUP3 ADD SWAP1 POP SWAP2 SWAP1 POP JUMP JUMPDEST PUSH1 0x0 PUSH2 0x208E PUSH1 0x38 DUP4 PUSH2 0x2651 JUMP JUMPDEST SWAP2 POP PUSH2 0x2099 DUP3 PUSH2 0x2B7F JUMP JUMPDEST PUSH1 0x40 DUP3 ADD SWAP1 POP SWAP2 SWAP1 POP JUMP JUMPDEST PUSH1 0x0 PUSH2 0x20B1 PUSH1 0x29 DUP4 PUSH2 0x2651 JUMP JUMPDEST SWAP2 POP PUSH2 0x20BC DUP3 PUSH2 0x2BCE JUMP JUMPDEST PUSH1 0x40 DUP3 ADD SWAP1 POP SWAP2 SWAP1 POP JUMP JUMPDEST PUSH1 0x0 PUSH2 0x20D4 PUSH1 0x2C DUP4 PUSH2 0x2651 JUMP JUMPDEST SWAP2 POP PUSH2 0x20DF DUP3 PUSH2 0x2C1D JUMP JUMPDEST PUSH1 0x40 DUP3 ADD SWAP1 POP SWAP2 SWAP1 POP JUMP JUMPDEST PUSH1 0x0 PUSH2 0x20F7 PUSH1 0x2F DUP4 PUSH2 0x2651 JUMP JUMPDEST SWAP2 POP PUSH2 0x2102 DUP3 PUSH2 0x2C6C JUMP JUMPDEST PUSH1 0x40 DUP3 ADD SWAP1 POP SWAP2 SWAP1 POP JUMP JUMPDEST PUSH1 0x0 PUSH2 0x211A PUSH1 0x1B DUP4 PUSH2 0x2651 JUMP JUMPDEST SWAP2 POP PUSH2 0x2125 DUP3 PUSH2 0x2CBB JUMP JUMPDEST PUSH1 0x20 DUP3 ADD SWAP1 POP SWAP2 SWAP1 POP JUMP JUMPDEST PUSH1 0x0 PUSH2 0x213D PUSH1 0x21 DUP4 PUSH2 0x2651 JUMP JUMPDEST SWAP2 POP PUSH2 0x2148 DUP3 PUSH2 0x2CE4 JUMP JUMPDEST PUSH1 0x40 DUP3 ADD SWAP1 POP SWAP2 SWAP1 POP JUMP JUMPDEST PUSH1 0x0 PUSH2 0x2160 PUSH1 0x31 DUP4 PUSH2 0x2651 JUMP JUMPDEST SWAP2 POP PUSH2 0x216B DUP3 PUSH2 0x2D33 JUMP JUMPDEST PUSH1 0x40 DUP3 ADD SWAP1 POP SWAP2 SWAP1 POP JUMP JUMPDEST PUSH1 0x0 PUSH2 0x120 DUP4 ADD PUSH1 0x0 DUP4 ADD MLOAD PUSH2 0x218F PUSH1 0x0 DUP7 ADD DUP3 PUSH2 0x223B JUMP JUMPDEST POP PUSH1 0x20 DUP4 ADD MLOAD PUSH2 0x21A2 PUSH1 0x20 DUP7 ADD DUP3 PUSH2 0x223B JUMP JUMPDEST POP PUSH1 0x40 DUP4 ADD MLOAD PUSH2 0x21B5 PUSH1 0x40 DUP7 ADD DUP3 PUSH2 0x223B JUMP JUMPDEST POP PUSH1 0x60 DUP4 ADD MLOAD PUSH2 0x21C8 PUSH1 0x60 DUP7 ADD DUP3 PUSH2 0x223B JUMP JUMPDEST POP PUSH1 0x80 DUP4 ADD MLOAD PUSH2 0x21DB PUSH1 0x80 DUP7 ADD DUP3 PUSH2 0x223B JUMP JUMPDEST POP PUSH1 0xA0 DUP4 ADD MLOAD PUSH2 0x21EE PUSH1 0xA0 DUP7 ADD DUP3 PUSH2 0x1E97 JUMP JUMPDEST POP PUSH1 0xC0 DUP4 ADD MLOAD PUSH2 0x2201 PUSH1 0xC0 DUP7 ADD DUP3 PUSH2 0x1E97 JUMP JUMPDEST POP PUSH1 0xE0 DUP4 ADD MLOAD DUP5 DUP3 SUB PUSH1 0xE0 DUP7 ADD MSTORE PUSH2 0x2219 DUP3 DUP3 PUSH2 0x1F0C JUMP JUMPDEST SWAP2 POP POP PUSH2 0x100 DUP4 ADD MLOAD PUSH2 0x2230 PUSH2 0x100 DUP7 ADD DUP3 PUSH2 0x1EB5 JUMP JUMPDEST POP DUP1 SWAP2 POP POP SWAP3 SWAP2 POP POP JUMP JUMPDEST PUSH2 0x2244 DUP2 PUSH2 0x2792 JUMP JUMPDEST DUP3 MSTORE POP POP JUMP JUMPDEST PUSH2 0x2253 DUP2 PUSH2 0x2792 JUMP JUMPDEST DUP3 MSTORE POP POP JUMP JUMPDEST PUSH1 0x0 PUSH2 0x2265 DUP3 DUP6 PUSH2 0x1F7E JUMP JUMPDEST SWAP2 POP PUSH2 0x2271 DUP3 DUP5 PUSH2 0x1F7E JUMP JUMPDEST SWAP2 POP DUP2 SWAP1 POP SWAP4 SWAP3 POP POP POP JUMP JUMPDEST PUSH1 0x0 PUSH1 0x20 DUP3 ADD SWAP1 POP PUSH2 0x2292 PUSH1 0x0 DUP4 ADD DUP5 PUSH2 0x1EA6 JUMP JUMPDEST SWAP3 SWAP2 POP POP JUMP JUMPDEST PUSH1 0x0 PUSH1 0x80 DUP3 ADD SWAP1 POP PUSH2 0x22AD PUSH1 0x0 DUP4 ADD DUP8 PUSH2 0x1EA6 JUMP JUMPDEST PUSH2 0x22BA PUSH1 0x20 DUP4 ADD DUP7 PUSH2 0x1EA6 JUMP JUMPDEST PUSH2 0x22C7 PUSH1 0x40 DUP4 ADD DUP6 PUSH2 0x224A JUMP JUMPDEST DUP2 DUP2 SUB PUSH1 0x60 DUP4 ADD MSTORE PUSH2 0x22D9 DUP2 DUP5 PUSH2 0x1ED3 JUMP JUMPDEST SWAP1 POP SWAP6 SWAP5 POP POP POP POP POP JUMP JUMPDEST PUSH1 0x0 PUSH1 0x20 DUP3 ADD SWAP1 POP PUSH2 0x22F9 PUSH1 0x0 DUP4 ADD DUP5 PUSH2 0x1EC4 JUMP JUMPDEST SWAP3 SWAP2 POP POP JUMP JUMPDEST PUSH1 0x0 PUSH1 0x20 DUP3 ADD SWAP1 POP DUP2 DUP2 SUB PUSH1 0x0 DUP4 ADD MSTORE PUSH2 0x2319 DUP2 DUP5 PUSH2 0x1F45 JUMP JUMPDEST SWAP1 POP SWAP3 SWAP2 POP POP JUMP JUMPDEST PUSH1 0x0 PUSH1 0x20 DUP3 ADD SWAP1 POP DUP2 DUP2 SUB PUSH1 0x0 DUP4 ADD MSTORE PUSH2 0x233A DUP2 PUSH2 0x1FAF JUMP JUMPDEST SWAP1 POP SWAP2 SWAP1 POP JUMP JUMPDEST PUSH1 0x0 PUSH1 0x20 DUP3 ADD SWAP1 POP DUP2 DUP2 SUB PUSH1 0x0 DUP4 ADD MSTORE PUSH2 0x235A DUP2 PUSH2 0x1FD2 JUMP JUMPDEST SWAP1 POP SWAP2 SWAP1 POP JUMP JUMPDEST PUSH1 0x0 PUSH1 0x20 DUP3 ADD SWAP1 POP DUP2 DUP2 SUB PUSH1 0x0 DUP4 ADD MSTORE PUSH2 0x237A DUP2 PUSH2 0x1FF5 JUMP JUMPDEST SWAP1 POP SWAP2 SWAP1 POP JUMP JUMPDEST PUSH1 0x0 PUSH1 0x20 DUP3 ADD SWAP1 POP DUP2 DUP2 SUB PUSH1 0x0 DUP4 ADD MSTORE PUSH2 0x239A DUP2 PUSH2 0x2018 JUMP JUMPDEST SWAP1 POP SWAP2 SWAP1 POP JUMP JUMPDEST PUSH1 0x0 PUSH1 0x20 DUP3 ADD SWAP1 POP DUP2 DUP2 SUB PUSH1 0x0 DUP4 ADD MSTORE PUSH2 0x23BA DUP2 PUSH2 0x203B JUMP JUMPDEST SWAP1 POP SWAP2 SWAP1 POP JUMP JUMPDEST PUSH1 0x0 PUSH1 0x20 DUP3 ADD SWAP1 POP DUP2 DUP2 SUB PUSH1 0x0 DUP4 ADD MSTORE PUSH2 0x23DA DUP2 PUSH2 0x205E JUMP JUMPDEST SWAP1 POP SWAP2 SWAP1 POP JUMP JUMPDEST PUSH1 0x0 PUSH1 0x20 DUP3 ADD SWAP1 POP DUP2 DUP2 SUB PUSH1 0x0 DUP4 ADD MSTORE PUSH2 0x23FA DUP2 PUSH2 0x2081 JUMP JUMPDEST SWAP1 POP SWAP2 SWAP1 POP JUMP JUMPDEST PUSH1 0x0 PUSH1 0x20 DUP3 ADD SWAP1 POP DUP2 DUP2 SUB PUSH1 0x0 DUP4 ADD MSTORE PUSH2 0x241A DUP2 PUSH2 0x20A4 JUMP JUMPDEST SWAP1 POP SWAP2 SWAP1 POP JUMP JUMPDEST PUSH1 0x0 PUSH1 0x20 DUP3 ADD SWAP1 POP DUP2 DUP2 SUB PUSH1 0x0 DUP4 ADD MSTORE PUSH2 0x243A DUP2 PUSH2 0x20C7 JUMP JUMPDEST SWAP1 POP SWAP2 SWAP1 POP JUMP JUMPDEST PUSH1 0x0 PUSH1 0x20 DUP3 ADD SWAP1 POP DUP2 DUP2 SUB PUSH1 0x0 DUP4 ADD MSTORE PUSH2 0x245A DUP2 PUSH2 0x20EA JUMP JUMPDEST SWAP1 POP SWAP2 SWAP1 POP JUMP JUMPDEST PUSH1 0x0 PUSH1 0x20 DUP3 ADD SWAP1 POP DUP2 DUP2 SUB PUSH1 0x0 DUP4 ADD MSTORE PUSH2 0x247A DUP2 PUSH2 0x210D JUMP JUMPDEST SWAP1 POP SWAP2 SWAP1 POP JUMP JUMPDEST PUSH1 0x0 PUSH1 0x20 DUP3 ADD SWAP1 POP DUP2 DUP2 SUB PUSH1 0x0 DUP4 ADD MSTORE PUSH2 0x249A DUP2 PUSH2 0x2130 JUMP JUMPDEST SWAP1 POP SWAP2 SWAP1 POP JUMP JUMPDEST PUSH1 0x0 PUSH1 0x20 DUP3 ADD SWAP1 POP DUP2 DUP2 SUB PUSH1 0x0 DUP4 ADD MSTORE PUSH2 0x24BA DUP2 PUSH2 0x2153 JUMP JUMPDEST SWAP1 POP SWAP2 SWAP1 POP JUMP JUMPDEST PUSH1 0x0 PUSH1 0x20 DUP3 ADD SWAP1 POP DUP2 DUP2 SUB PUSH1 0x0 DUP4 ADD MSTORE PUSH2 0x24DB DUP2 DUP5 PUSH2 0x2176 JUMP JUMPDEST SWAP1 POP SWAP3 SWAP2 POP POP JUMP JUMPDEST PUSH1 0x0 PUSH1 0x20 DUP3 ADD SWAP1 POP PUSH2 0x24F8 PUSH1 0x0 DUP4 ADD DUP5 PUSH2 0x224A JUMP JUMPDEST SWAP3 SWAP2 POP POP JUMP JUMPDEST PUSH1 0x0 PUSH2 0x120 DUP3 ADD SWAP1 POP PUSH2 0x2514 PUSH1 0x0 DUP4 ADD DUP13 PUSH2 0x224A JUMP JUMPDEST PUSH2 0x2521 PUSH1 0x20 DUP4 ADD DUP12 PUSH2 0x224A JUMP JUMPDEST PUSH2 0x252E PUSH1 0x40 DUP4 ADD DUP11 PUSH2 0x224A JUMP JUMPDEST PUSH2 0x253B PUSH1 0x60 DUP4 ADD DUP10 PUSH2 0x224A JUMP JUMPDEST PUSH2 0x2548 PUSH1 0x80 DUP4 ADD DUP9 PUSH2 0x224A JUMP JUMPDEST PUSH2 0x2555 PUSH1 0xA0 DUP4 ADD DUP8 PUSH2 0x1EA6 JUMP JUMPDEST PUSH2 0x2562 PUSH1 0xC0 DUP4 ADD DUP7 PUSH2 0x1EA6 JUMP JUMPDEST DUP2 DUP2 SUB PUSH1 0xE0 DUP4 ADD MSTORE PUSH2 0x2574 DUP2 DUP6 PUSH2 0x1F45 JUMP JUMPDEST SWAP1 POP PUSH2 0x2584 PUSH2 0x100 DUP4 ADD DUP5 PUSH2 0x1EC4 JUMP JUMPDEST SWAP11 SWAP10 POP POP POP POP POP POP POP POP POP POP JUMP JUMPDEST PUSH1 0x0 PUSH2 0x259C PUSH2 0x25AD JUMP JUMPDEST SWAP1 POP PUSH2 0x25A8 DUP3 DUP3 PUSH2 0x2810 JUMP JUMPDEST SWAP2 SWAP1 POP JUMP JUMPDEST PUSH1 0x0 PUSH1 0x40 MLOAD SWAP1 POP SWAP1 JUMP JUMPDEST PUSH1 0x0 PUSH8 0xFFFFFFFFFFFFFFFF DUP3 GT ISZERO PUSH2 0x25D2 JUMPI PUSH2 0x25D1 PUSH2 0x2977 JUMP JUMPDEST JUMPDEST PUSH2 0x25DB DUP3 PUSH2 0x29BA JUMP JUMPDEST SWAP1 POP PUSH1 0x20 DUP2 ADD SWAP1 POP SWAP2 SWAP1 POP JUMP JUMPDEST PUSH1 0x0 PUSH8 0xFFFFFFFFFFFFFFFF DUP3 GT ISZERO PUSH2 0x2603 JUMPI PUSH2 0x2602 PUSH2 0x2977 JUMP JUMPDEST JUMPDEST PUSH2 0x260C DUP3 PUSH2 0x29BA JUMP JUMPDEST SWAP1 POP PUSH1 0x20 DUP2 ADD SWAP1 POP SWAP2 SWAP1 POP JUMP JUMPDEST PUSH1 0x0 DUP2 MLOAD SWAP1 POP SWAP2 SWAP1 POP JUMP JUMPDEST PUSH1 0x0 DUP2 MLOAD SWAP1 POP SWAP2 SWAP1 POP JUMP JUMPDEST PUSH1 0x0 DUP3 DUP3 MSTORE PUSH1 0x20 DUP3 ADD SWAP1 POP SWAP3 SWAP2 POP POP JUMP JUMPDEST PUSH1 0x0 DUP3 DUP3 MSTORE PUSH1 0x20 DUP3 ADD SWAP1 POP SWAP3 SWAP2 POP POP JUMP JUMPDEST PUSH1 0x0 DUP3 DUP3 MSTORE PUSH1 0x20 DUP3 ADD SWAP1 POP SWAP3 SWAP2 POP POP JUMP JUMPDEST PUSH1 0x0 DUP2 SWAP1 POP SWAP3 SWAP2 POP POP JUMP JUMPDEST PUSH1 0x0 PUSH2 0x2678 DUP3 PUSH2 0x2792 JUMP JUMPDEST SWAP2 POP PUSH2 0x2683 DUP4 PUSH2 0x2792 JUMP JUMPDEST SWAP3 POP DUP3 PUSH32 0xFFFFFFFFFFFFFFFFFFFFFFFFFFFFFFFFFFFFFFFFFFFFFFFFFFFFFFFFFFFFFFFF SUB DUP3 GT ISZERO PUSH2 0x26B8 JUMPI PUSH2 0x26B7 PUSH2 0x28BB JUMP JUMPDEST JUMPDEST DUP3 DUP3 ADD SWAP1 POP SWAP3 SWAP2 POP POP JUMP JUMPDEST PUSH1 0x0 PUSH2 0x26CE DUP3 PUSH2 0x2792 JUMP JUMPDEST SWAP2 POP PUSH2 0x26D9 DUP4 PUSH2 0x2792 JUMP JUMPDEST SWAP3 POP DUP3 PUSH2 0x26E9 JUMPI PUSH2 0x26E8 PUSH2 0x28EA JUMP JUMPDEST JUMPDEST DUP3 DUP3 DIV SWAP1 POP SWAP3 SWAP2 POP POP JUMP JUMPDEST PUSH1 0x0 PUSH2 0x26FF DUP3 PUSH2 0x2792 JUMP JUMPDEST SWAP2 POP PUSH2 0x270A DUP4 PUSH2 0x2792 JUMP JUMPDEST SWAP3 POP DUP3 DUP3 LT ISZERO PUSH2 0x271D JUMPI PUSH2 0x271C PUSH2 0x28BB JUMP JUMPDEST JUMPDEST DUP3 DUP3 SUB SWAP1 POP SWAP3 SWAP2 POP POP JUMP JUMPDEST PUSH1 0x0 PUSH2 0x2733 DUP3 PUSH2 0x2772 JUMP JUMPDEST SWAP1 POP SWAP2 SWAP1 POP JUMP JUMPDEST PUSH1 0x0 DUP2 ISZERO ISZERO SWAP1 POP SWAP2 SWAP1 POP JUMP JUMPDEST PUSH1 0x0 PUSH32 0xFFFFFFFF00000000000000000000000000000000000000000000000000000000 DUP3 AND SWAP1 POP SWAP2 SWAP1 POP JUMP JUMPDEST PUSH1 0x0 PUSH20 0xFFFFFFFFFFFFFFFFFFFFFFFFFFFFFFFFFFFFFFFF DUP3 AND SWAP1 POP SWAP2 SWAP1 POP JUMP JUMPDEST PUSH1 0x0 DUP2 SWAP1 POP SWAP2 SWAP1 POP JUMP JUMPDEST DUP3 DUP2 DUP4 CALLDATACOPY PUSH1 0x0 DUP4 DUP4 ADD MSTORE POP POP POP JUMP JUMPDEST PUSH1 0x0 JUMPDEST DUP4 DUP2 LT ISZERO PUSH2 0x27C9 JUMPI DUP1 DUP3 ADD MLOAD DUP2 DUP5 ADD MSTORE PUSH1 0x20 DUP2 ADD SWAP1 POP PUSH2 0x27AE JUMP JUMPDEST DUP4 DUP2 GT ISZERO PUSH2 0x27D8 JUMPI PUSH1 0x0 DUP5 DUP5 ADD MSTORE JUMPDEST POP POP POP POP JUMP JUMPDEST PUSH1 0x0 PUSH1 0x2 DUP3 DIV SWAP1 POP PUSH1 0x1 DUP3 AND DUP1 PUSH2 0x27F6 JUMPI PUSH1 0x7F DUP3 AND SWAP2 POP JUMPDEST PUSH1 0x20 DUP3 LT DUP2 EQ ISZERO PUSH2 0x280A JUMPI PUSH2 0x2809 PUSH2 0x2919 JUMP JUMPDEST JUMPDEST POP SWAP2 SWAP1 POP JUMP JUMPDEST PUSH2 0x2819 DUP3 PUSH2 0x29BA JUMP JUMPDEST DUP2 ADD DUP2 DUP2 LT PUSH8 0xFFFFFFFFFFFFFFFF DUP3 GT OR ISZERO PUSH2 0x2838 JUMPI PUSH2 0x2837 PUSH2 0x2977 JUMP JUMPDEST JUMPDEST DUP1 PUSH1 0x40 MSTORE POP POP POP JUMP JUMPDEST PUSH1 0x0 PUSH2 0x284C DUP3 PUSH2 0x2792 JUMP JUMPDEST SWAP2 POP PUSH32 0xFFFFFFFFFFFFFFFFFFFFFFFFFFFFFFFFFFFFFFFFFFFFFFFFFFFFFFFFFFFFFFFF DUP3 EQ ISZERO PUSH2 0x287F JUMPI PUSH2 0x287E PUSH2 0x28BB JUMP JUMPDEST JUMPDEST PUSH1 0x1 DUP3 ADD SWAP1 POP SWAP2 SWAP1 POP JUMP JUMPDEST PUSH1 0x0 PUSH2 0x2895 DUP3 PUSH2 0x2792 JUMP JUMPDEST SWAP2 POP PUSH2 0x28A0 DUP4 PUSH2 0x2792 JUMP JUMPDEST SWAP3 POP DUP3 PUSH2 0x28B0 JUMPI PUSH2 0x28AF PUSH2 0x28EA JUMP JUMPDEST JUMPDEST DUP3 DUP3 MOD SWAP1 POP SWAP3 SWAP2 POP POP JUMP JUMPDEST PUSH32 0x4E487B7100000000000000000000000000000000000000000000000000000000 PUSH1 0x0 MSTORE PUSH1 0x11 PUSH1 0x4 MSTORE PUSH1 0x24 PUSH1 0x0 REVERT JUMPDEST PUSH32 0x4E487B7100000000000000000000000000000000000000000000000000000000 PUSH1 0x0 MSTORE PUSH1 0x12 PUSH1 0x4 MSTORE PUSH1 0x24 PUSH1 0x0 REVERT JUMPDEST PUSH32 0x4E487B7100000000000000000000000000000000000000000000000000000000 PUSH1 0x0 MSTORE PUSH1 0x22 PUSH1 0x4 MSTORE PUSH1 0x24 PUSH1 0x0 REVERT JUMPDEST PUSH32 0x4E487B7100000000000000000000000000000000000000000000000000000000 PUSH1 0x0 MSTORE PUSH1 0x32 PUSH1 0x4 MSTORE PUSH1 0x24 PUSH1 0x0 REVERT JUMPDEST PUSH32 0x4E487B7100000000000000000000000000000000000000000000000000000000 PUSH1 0x0 MSTORE PUSH1 0x41 PUSH1 0x4 MSTORE PUSH1 0x24 PUSH1 0x0 REVERT JUMPDEST PUSH1 0x0 DUP1 REVERT JUMPDEST PUSH1 0x0 DUP1 REVERT JUMPDEST PUSH1 0x0 DUP1 REVERT JUMPDEST PUSH1 0x0 DUP1 REVERT JUMPDEST PUSH1 0x0 PUSH1 0x1F NOT PUSH1 0x1F DUP4 ADD AND SWAP1 POP SWAP2 SWAP1 POP JUMP JUMPDEST PUSH32 0x4552433732313A207472616E7366657220746F206E6F6E204552433732315265 PUSH1 0x0 DUP3 ADD MSTORE PUSH32 0x63656976657220696D706C656D656E7465720000000000000000000000000000 PUSH1 0x20 DUP3 ADD MSTORE POP JUMP JUMPDEST PUSH32 0x4552433732313A207472616E736665722066726F6D20696E636F727265637420 PUSH1 0x0 DUP3 ADD MSTORE PUSH32 0x6F776E6572000000000000000000000000000000000000000000000000000000 PUSH1 0x20 DUP3 ADD MSTORE POP JUMP JUMPDEST PUSH32 0x4552433732313A207472616E7366657220746F20746865207A65726F20616464 PUSH1 0x0 DUP3 ADD MSTORE PUSH32 0x7265737300000000000000000000000000000000000000000000000000000000 PUSH1 0x20 DUP3 ADD MSTORE POP JUMP JUMPDEST PUSH32 0x4552433732313A20617070726F766520746F2063616C6C657200000000000000 PUSH1 0x0 DUP3 ADD MSTORE POP JUMP JUMPDEST PUSH32 0x4552433732313A206F70657261746F7220717565727920666F72206E6F6E6578 PUSH1 0x0 DUP3 ADD MSTORE PUSH32 0x697374656E7420746F6B656E0000000000000000000000000000000000000000 PUSH1 0x20 DUP3 ADD MSTORE POP JUMP JUMPDEST PUSH32 0x4552433732313A2061646472657373207A65726F206973206E6F742061207661 PUSH1 0x0 DUP3 ADD MSTORE PUSH32 0x6C6964206F776E65720000000000000000000000000000000000000000000000 PUSH1 0x20 DUP3 ADD MSTORE POP JUMP JUMPDEST PUSH32 0x4552433732313A20617070726F76652063616C6C6572206973206E6F74206F77 PUSH1 0x0 DUP3 ADD MSTORE PUSH32 0x6E6572206E6F7220617070726F76656420666F7220616C6C0000000000000000 PUSH1 0x20 DUP3 ADD MSTORE POP JUMP JUMPDEST PUSH32 0x4552433732313A206F776E657220717565727920666F72206E6F6E6578697374 PUSH1 0x0 DUP3 ADD MSTORE PUSH32 0x656E7420746F6B656E0000000000000000000000000000000000000000000000 PUSH1 0x20 DUP3 ADD MSTORE POP JUMP JUMPDEST PUSH32 0x4552433732313A20617070726F76656420717565727920666F72206E6F6E6578 PUSH1 0x0 DUP3 ADD MSTORE PUSH32 0x697374656E7420746F6B656E0000000000000000000000000000000000000000 PUSH1 0x20 DUP3 ADD MSTORE POP JUMP JUMPDEST PUSH32 0x4552433732314D657461646174613A2055524920717565727920666F72206E6F PUSH1 0x0 DUP3 ADD MSTORE PUSH32 0x6E6578697374656E7420746F6B656E0000000000000000000000000000000000 PUSH1 0x20 DUP3 ADD MSTORE POP JUMP JUMPDEST PUSH32 0x7468697320686F757365496420616C7265616479206578697374730000000000 PUSH1 0x0 DUP3 ADD MSTORE POP JUMP JUMPDEST PUSH32 0x4552433732313A20617070726F76616C20746F2063757272656E74206F776E65 PUSH1 0x0 DUP3 ADD MSTORE PUSH32 0x7200000000000000000000000000000000000000000000000000000000000000 PUSH1 0x20 DUP3 ADD MSTORE POP JUMP JUMPDEST PUSH32 0x4552433732313A207472616E736665722063616C6C6572206973206E6F74206F PUSH1 0x0 DUP3 ADD MSTORE PUSH32 0x776E6572206E6F7220617070726F766564000000000000000000000000000000 PUSH1 0x20 DUP3 ADD MSTORE POP JUMP JUMPDEST PUSH2 0x2D8B DUP2 PUSH2 0x2728 JUMP JUMPDEST DUP2 EQ PUSH2 0x2D96 JUMPI PUSH1 0x0 DUP1 REVERT JUMPDEST POP JUMP JUMPDEST PUSH2 0x2DA2 DUP2 PUSH2 0x273A JUMP JUMPDEST DUP2 EQ PUSH2 0x2DAD JUMPI PUSH1 0x0 DUP1 REVERT JUMPDEST POP JUMP JUMPDEST PUSH2 0x2DB9 DUP2 PUSH2 0x2746 JUMP JUMPDEST DUP2 EQ PUSH2 0x2DC4 JUMPI PUSH1 0x0 DUP1 REVERT JUMPDEST POP JUMP JUMPDEST PUSH2 0x2DD0 DUP2 PUSH2 0x2792 JUMP JUMPDEST DUP2 EQ PUSH2 0x2DDB JUMPI PUSH1 0x0 DUP1 REVERT JUMPDEST POP JUMP INVALID LOG2 PUSH5 0x6970667358 0x22 SLT KECCAK256 0xCD 0xC6 EXTCODESIZE JUMP SHR SAR PUSH26 0x8A9F5501B8DD0D99CFFE8E7E3DEA8B107B465BB8A1C24A7A5E64 PUSH20 0x6F6C634300080700330000000000000000000000 "
				},
				"gasEstimates": {
					"creation": {
						"codeDepositCost": "2359200",
						"executionCost": "infinite",
						"totalCost": "infinite"
					},
					"external": {
						"addHouse(uint256,uint256,uint256,uint256,uint256,address,string)": "infinite",
						"approve(address,uint256)": "infinite",
						"balanceOf(address)": "2924",
						"getApproved(uint256)": "5183",
						"houses(uint256)": "infinite",
						"isApprovedForAll(address,address)": "infinite",
						"name()": "infinite",
						"ownerOf(uint256)": "3000",
						"safeTransferFrom(address,address,uint256)": "infinite",
						"safeTransferFrom(address,address,uint256,bytes)": "infinite",
						"setApprovalForAll(address,bool)": "infinite",
						"supportsInterface(bytes4)": "797",
						"symbol()": "infinite",
						"tokenURI(uint256)": "3395",
						"transferFrom(address,address,uint256)": "infinite"
					},
					"internal": {
						"_afterTokenTransfer(address,address,uint256)": "15",
						"_approve(address,uint256)": "infinite",
						"_baseURI()": "infinite",
						"_beforeTokenTransfer(address,address,uint256)": "15",
						"_burn(uint256)": "infinite",
						"_checkOnERC721Received(address,address,uint256,bytes memory)": "infinite",
						"_exists(uint256)": "2269",
						"_isApprovedOrOwner(address,uint256)": "infinite",
						"_mint(address,uint256)": "infinite",
						"_safeMint(address,uint256)": "infinite",
						"_safeMint(address,uint256,bytes memory)": "infinite",
						"_safeTransfer(address,address,uint256,bytes memory)": "infinite",
						"_setApprovalForAll(address,address,bool)": "infinite",
						"_transfer(address,address,uint256)": "infinite"
					}
				},
				"methodIdentifiers": {
					"addHouse(uint256,uint256,uint256,uint256,uint256,address,string)": "0548fa4f",
					"approve(address,uint256)": "095ea7b3",
					"balanceOf(address)": "70a08231",
					"getApproved(uint256)": "081812fc",
					"houses(uint256)": "aeda852f",
					"isApprovedForAll(address,address)": "e985e9c5",
					"name()": "06fdde03",
					"ownerOf(uint256)": "6352211e",
					"safeTransferFrom(address,address,uint256)": "42842e0e",
					"safeTransferFrom(address,address,uint256,bytes)": "b88d4fde",
					"setApprovalForAll(address,bool)": "a22cb465",
					"supportsInterface(bytes4)": "01ffc9a7",
					"symbol()": "95d89b41",
					"tokenURI(uint256)": "c87b56dd",
					"transferFrom(address,address,uint256)": "23b872dd"
				}
			},
			"storageLayout": {
				"storage": [
					{
						"astId": 26,
						"contract": "contract/token/ERC721.sol:ERC721",
						"label": "_name",
						"offset": 0,
						"slot": "0",
						"type": "t_string_storage"
					},
					{
						"astId": 28,
						"contract": "contract/token/ERC721.sol:ERC721",
						"label": "_symbol",
						"offset": 0,
						"slot": "1",
						"type": "t_string_storage"
					},
					{
						"astId": 51,
						"contract": "contract/token/ERC721.sol:ERC721",
						"label": "_owners",
						"offset": 0,
						"slot": "2",
						"type": "t_mapping(t_uint256,t_address)"
					},
					{
						"astId": 55,
						"contract": "contract/token/ERC721.sol:ERC721",
						"label": "_balances",
						"offset": 0,
						"slot": "3",
						"type": "t_mapping(t_address,t_uint256)"
					},
					{
						"astId": 59,
						"contract": "contract/token/ERC721.sol:ERC721",
						"label": "_tokenApprovals",
						"offset": 0,
						"slot": "4",
						"type": "t_mapping(t_uint256,t_address)"
					},
					{
						"astId": 65,
						"contract": "contract/token/ERC721.sol:ERC721",
						"label": "_operatorApprovals",
						"offset": 0,
						"slot": "5",
						"type": "t_mapping(t_address,t_mapping(t_address,t_bool))"
					},
					{
						"astId": 70,
						"contract": "contract/token/ERC721.sol:ERC721",
						"label": "houses",
						"offset": 0,
						"slot": "6",
						"type": "t_mapping(t_uint256,t_struct(House)47_storage)"
					}
				],
				"types": {
					"t_address": {
						"encoding": "inplace",
						"label": "address",
						"numberOfBytes": "20"
					},
					"t_bool": {
						"encoding": "inplace",
						"label": "bool",
						"numberOfBytes": "1"
					},
					"t_mapping(t_address,t_bool)": {
						"encoding": "mapping",
						"key": "t_address",
						"label": "mapping(address => bool)",
						"numberOfBytes": "32",
						"value": "t_bool"
					},
					"t_mapping(t_address,t_mapping(t_address,t_bool))": {
						"encoding": "mapping",
						"key": "t_address",
						"label": "mapping(address => mapping(address => bool))",
						"numberOfBytes": "32",
						"value": "t_mapping(t_address,t_bool)"
					},
					"t_mapping(t_address,t_uint256)": {
						"encoding": "mapping",
						"key": "t_address",
						"label": "mapping(address => uint256)",
						"numberOfBytes": "32",
						"value": "t_uint256"
					},
					"t_mapping(t_uint256,t_address)": {
						"encoding": "mapping",
						"key": "t_uint256",
						"label": "mapping(uint256 => address)",
						"numberOfBytes": "32",
						"value": "t_address"
					},
					"t_mapping(t_uint256,t_struct(House)47_storage)": {
						"encoding": "mapping",
						"key": "t_uint256",
						"label": "mapping(uint256 => struct ERC721.House)",
						"numberOfBytes": "32",
						"value": "t_struct(House)47_storage"
					},
					"t_string_storage": {
						"encoding": "bytes",
						"label": "string",
						"numberOfBytes": "32"
					},
					"t_struct(House)47_storage": {
						"encoding": "inplace",
						"label": "struct ERC721.House",
						"members": [
							{
								"astId": 30,
								"contract": "contract/token/ERC721.sol:ERC721",
								"label": "id",
								"offset": 0,
								"slot": "0",
								"type": "t_uint256"
							},
							{
								"astId": 32,
								"contract": "contract/token/ERC721.sol:ERC721",
								"label": "serialNumber",
								"offset": 0,
								"slot": "1",
								"type": "t_uint256"
							},
							{
								"astId": 34,
								"contract": "contract/token/ERC721.sol:ERC721",
								"label": "price",
								"offset": 0,
								"slot": "2",
								"type": "t_uint256"
							},
							{
								"astId": 36,
								"contract": "contract/token/ERC721.sol:ERC721",
								"label": "priceDai",
								"offset": 0,
								"slot": "3",
								"type": "t_uint256"
							},
							{
								"astId": 38,
								"contract": "contract/token/ERC721.sol:ERC721",
								"label": "area",
								"offset": 0,
								"slot": "4",
								"type": "t_uint256"
							},
							{
								"astId": 40,
								"contract": "contract/token/ERC721.sol:ERC721",
								"label": "sellerAddress",
								"offset": 0,
								"slot": "5",
								"type": "t_address"
							},
							{
								"astId": 42,
								"contract": "contract/token/ERC721.sol:ERC721",
								"label": "buyerAddress",
								"offset": 0,
								"slot": "6",
								"type": "t_address"
							},
							{
								"astId": 44,
								"contract": "contract/token/ERC721.sol:ERC721",
								"label": "houseAddress",
								"offset": 0,
								"slot": "7",
								"type": "t_string_storage"
							},
							{
								"astId": 46,
								"contract": "contract/token/ERC721.sol:ERC721",
								"label": "isdelistedHouse",
								"offset": 0,
								"slot": "8",
								"type": "t_bool"
							}
						],
						"numberOfBytes": "288"
					},
					"t_uint256": {
						"encoding": "inplace",
						"label": "uint256",
						"numberOfBytes": "32"
					}
				}
			},
			"userdoc": {
				"kind": "user",
				"methods": {},
				"version": 1
			}
		}
	}
}