{
	"contract/token/HouseToken.sol": {
		"HouseToken": {
			"abi": [
				{
					"inputs": [],
					"stateMutability": "nonpayable",
					"type": "constructor"
				},
				{
					"anonymous": false,
					"inputs": [
						{
							"indexed": true,
							"internalType": "address",
							"name": "owner",
							"type": "address"
						},
						{
							"indexed": true,
							"internalType": "address",
							"name": "approved",
							"type": "address"
						},
						{
							"indexed": true,
							"internalType": "uint256",
							"name": "tokenId",
							"type": "uint256"
						}
					],
					"name": "Approval",
					"type": "event"
				},
				{
					"anonymous": false,
					"inputs": [
						{
							"indexed": true,
							"internalType": "address",
							"name": "owner",
							"type": "address"
						},
						{
							"indexed": true,
							"internalType": "address",
							"name": "operator",
							"type": "address"
						},
						{
							"indexed": false,
							"internalType": "bool",
							"name": "approved",
							"type": "bool"
						}
					],
					"name": "ApprovalForAll",
					"type": "event"
				},
				{
					"anonymous": false,
					"inputs": [
						{
							"indexed": true,
							"internalType": "address",
							"name": "from",
							"type": "address"
						},
						{
							"indexed": true,
							"internalType": "address",
							"name": "to",
							"type": "address"
						},
						{
							"indexed": true,
							"internalType": "uint256",
							"name": "tokenId",
							"type": "uint256"
						}
					],
					"name": "Transfer",
					"type": "event"
				},
				{
					"inputs": [],
					"name": "_delistHouse",
					"outputs": [],
					"stateMutability": "nonpayable",
					"type": "function"
				},
				{
					"inputs": [],
					"name": "_getId",
					"outputs": [
						{
							"internalType": "uint256",
							"name": "",
							"type": "uint256"
						}
					],
					"stateMutability": "view",
					"type": "function"
				},
				{
					"inputs": [],
					"name": "_getPrice",
					"outputs": [
						{
							"internalType": "uint256",
							"name": "",
							"type": "uint256"
						}
					],
					"stateMutability": "view",
					"type": "function"
				},
				{
					"inputs": [
						{
							"internalType": "uint256",
							"name": "id_",
							"type": "uint256"
						},
						{
							"internalType": "uint256",
							"name": "serialNumber_",
							"type": "uint256"
						},
						{
							"internalType": "uint256",
							"name": "price_",
							"type": "uint256"
						},
						{
							"internalType": "uint256",
							"name": "priceDai_",
							"type": "uint256"
						},
						{
							"internalType": "uint256",
							"name": "area_",
							"type": "uint256"
						},
						{
							"internalType": "address",
							"name": "sellerAddress_",
							"type": "address"
						},
						{
							"internalType": "address",
							"name": "buyerAddress_",
							"type": "address"
						},
						{
							"internalType": "string",
							"name": "houseAddress_",
							"type": "string"
						},
						{
							"internalType": "bool",
							"name": "isdelistedHouse_",
							"type": "bool"
						}
					],
					"name": "_listHouse",
					"outputs": [
						{
							"internalType": "uint256",
							"name": "",
							"type": "uint256"
						}
					],
					"stateMutability": "nonpayable",
					"type": "function"
				},
				{
					"inputs": [
						{
							"internalType": "address",
							"name": "to",
							"type": "address"
						},
						{
							"internalType": "uint256",
							"name": "tokenId",
							"type": "uint256"
						}
					],
					"name": "approve",
					"outputs": [],
					"stateMutability": "nonpayable",
					"type": "function"
				},
				{
					"inputs": [
						{
							"internalType": "address",
							"name": "owner",
							"type": "address"
						}
					],
					"name": "balanceOf",
					"outputs": [
						{
							"internalType": "uint256",
							"name": "",
							"type": "uint256"
						}
					],
					"stateMutability": "view",
					"type": "function"
				},
				{
					"inputs": [
						{
							"internalType": "uint256",
							"name": "tokenId",
							"type": "uint256"
						}
					],
					"name": "getApproved",
					"outputs": [
						{
							"internalType": "address",
							"name": "",
							"type": "address"
						}
					],
					"stateMutability": "view",
					"type": "function"
				},
				{
					"inputs": [
						{
							"internalType": "address",
							"name": "owner",
							"type": "address"
						},
						{
							"internalType": "address",
							"name": "operator",
							"type": "address"
						}
					],
					"name": "isApprovedForAll",
					"outputs": [
						{
							"internalType": "bool",
							"name": "",
							"type": "bool"
						}
					],
					"stateMutability": "view",
					"type": "function"
				},
				{
					"inputs": [],
					"name": "name",
					"outputs": [
						{
							"internalType": "string",
							"name": "",
							"type": "string"
						}
					],
					"stateMutability": "view",
					"type": "function"
				},
				{
					"inputs": [
						{
							"internalType": "uint256",
							"name": "tokenId",
							"type": "uint256"
						}
					],
					"name": "ownerOf",
					"outputs": [
						{
							"internalType": "address",
							"name": "",
							"type": "address"
						}
					],
					"stateMutability": "view",
					"type": "function"
				},
				{
					"inputs": [
						{
							"internalType": "address",
							"name": "from",
							"type": "address"
						},
						{
							"internalType": "address",
							"name": "to",
							"type": "address"
						},
						{
							"internalType": "uint256",
							"name": "tokenId",
							"type": "uint256"
						}
					],
					"name": "safeTransferFrom",
					"outputs": [],
					"stateMutability": "nonpayable",
					"type": "function"
				},
				{
					"inputs": [
						{
							"internalType": "address",
							"name": "from",
							"type": "address"
						},
						{
							"internalType": "address",
							"name": "to",
							"type": "address"
						},
						{
							"internalType": "uint256",
							"name": "tokenId",
							"type": "uint256"
						},
						{
							"internalType": "bytes",
							"name": "data",
							"type": "bytes"
						}
					],
					"name": "safeTransferFrom",
					"outputs": [],
					"stateMutability": "nonpayable",
					"type": "function"
				},
				{
					"inputs": [
						{
							"internalType": "address",
							"name": "operator",
							"type": "address"
						},
						{
							"internalType": "bool",
							"name": "approved",
							"type": "bool"
						}
					],
					"name": "setApprovalForAll",
					"outputs": [],
					"stateMutability": "nonpayable",
					"type": "function"
				},
				{
					"inputs": [
						{
							"internalType": "bytes4",
							"name": "interfaceId",
							"type": "bytes4"
						}
					],
					"name": "supportsInterface",
					"outputs": [
						{
							"internalType": "bool",
							"name": "",
							"type": "bool"
						}
					],
					"stateMutability": "view",
					"type": "function"
				},
				{
					"inputs": [],
					"name": "symbol",
					"outputs": [
						{
							"internalType": "string",
							"name": "",
							"type": "string"
						}
					],
					"stateMutability": "view",
					"type": "function"
				},
				{
					"inputs": [
						{
							"internalType": "uint256",
							"name": "tokenId",
							"type": "uint256"
						}
					],
					"name": "tokenURI",
					"outputs": [
						{
							"internalType": "string",
							"name": "",
							"type": "string"
						}
					],
					"stateMutability": "view",
					"type": "function"
				},
				{
					"inputs": [
						{
							"internalType": "address",
							"name": "from",
							"type": "address"
						},
						{
							"internalType": "address",
							"name": "to",
							"type": "address"
						},
						{
							"internalType": "uint256",
							"name": "tokenId",
							"type": "uint256"
						}
					],
					"name": "transferFrom",
					"outputs": [],
					"stateMutability": "nonpayable",
					"type": "function"
				}
			],
			"devdoc": {
				"kind": "dev",
				"methods": {
					"approve(address,uint256)": {
						"details": "See {IERC721-approve}."
					},
					"balanceOf(address)": {
						"details": "See {IERC721-balanceOf}."
					},
					"getApproved(uint256)": {
						"details": "See {IERC721-getApproved}."
					},
					"isApprovedForAll(address,address)": {
						"details": "See {IERC721-isApprovedForAll}."
					},
					"name()": {
						"details": "See {IERC721Metadata-name}."
					},
					"ownerOf(uint256)": {
						"details": "See {IERC721-ownerOf}."
					},
					"safeTransferFrom(address,address,uint256)": {
						"details": "See {IERC721-safeTransferFrom}."
					},
					"safeTransferFrom(address,address,uint256,bytes)": {
						"details": "See {IERC721-safeTransferFrom}."
					},
					"setApprovalForAll(address,bool)": {
						"details": "See {IERC721-setApprovalForAll}."
					},
					"supportsInterface(bytes4)": {
						"details": "See {IERC165-supportsInterface}."
					},
					"symbol()": {
						"details": "See {IERC721Metadata-symbol}."
					},
					"tokenURI(uint256)": {
						"details": "See {IERC721Metadata-tokenURI}."
					},
					"transferFrom(address,address,uint256)": {
						"details": "See {IERC721-transferFrom}."
					}
				},
				"version": 1
			},
			"evm": {
				"assembly": "    /* \"contract/token/HouseToken.sol\":193:1036  contract HouseToken is ERC721, IHouseToken {\r... */\n  mstore(0x40, 0x80)\n    /* \"contract/token/HouseToken.sol\":455:511  constructor() ERC721(\"HouseToken\", \"HT\") {\r... */\n  callvalue\n  dup1\n  iszero\n  tag_1\n  jumpi\n  0x00\n  dup1\n  revert\ntag_1:\n  pop\n    /* \"contract/token/ERC721.sol\":1433:1549  constructor(string memory name_, string memory symbol_) {\r... */\n  mload(0x40)\n  dup1\n  0x40\n  add\n  0x40\n  mstore\n  dup1\n  0x0a\n  dup2\n  mstore\n  0x20\n  add\n  0x486f757365546f6b656e00000000000000000000000000000000000000000000\n  dup2\n  mstore\n  pop\n  mload(0x40)\n  dup1\n  0x40\n  add\n  0x40\n  mstore\n  dup1\n  0x02\n  dup2\n  mstore\n  0x20\n  add\n  0x4854000000000000000000000000000000000000000000000000000000000000\n  dup2\n  mstore\n  pop\n    /* \"contract/token/ERC721.sol\":1508:1513  name_ */\n  dup2\n    /* \"contract/token/ERC721.sol\":1500:1505  _name */\n  0x00\n    /* \"contract/token/ERC721.sol\":1500:1513  _name = name_ */\n  swap1\n  dup1\n  mload\n  swap1\n  0x20\n  add\n  swap1\n  tag_5\n  swap3\n  swap2\n  swap1\n  tag_6\n  jump\t// in\ntag_5:\n  pop\n    /* \"contract/token/ERC721.sol\":1534:1541  symbol_ */\n  dup1\n    /* \"contract/token/ERC721.sol\":1524:1531  _symbol */\n  0x01\n    /* \"contract/token/ERC721.sol\":1524:1541  _symbol = symbol_ */\n  swap1\n  dup1\n  mload\n  swap1\n  0x20\n  add\n  swap1\n  tag_7\n  swap3\n  swap2\n  swap1\n  tag_6\n  jump\t// in\ntag_7:\n  pop\n    /* \"contract/token/ERC721.sol\":1433:1549  constructor(string memory name_, string memory symbol_) {\r... */\n  pop\n  pop\n    /* \"contract/token/HouseToken.sol\":193:1036  contract HouseToken is ERC721, IHouseToken {\r... */\n  jump(tag_9)\ntag_6:\n  dup3\n  dup1\n  sload\n  tag_10\n  swap1\n  tag_11\n  jump\t// in\ntag_10:\n  swap1\n  0x00\n  mstore\n  keccak256(0x00, 0x20)\n  swap1\n  0x1f\n  add\n  0x20\n  swap1\n  div\n  dup2\n  add\n  swap3\n  dup3\n  tag_13\n  jumpi\n  0x00\n  dup6\n  sstore\n  jump(tag_12)\ntag_13:\n  dup3\n  0x1f\n  lt\n  tag_14\n  jumpi\n  dup1\n  mload\n  not(0xff)\n  and\n  dup4\n  dup1\n  add\n  or\n  dup6\n  sstore\n  jump(tag_12)\ntag_14:\n  dup3\n  dup1\n  add\n  0x01\n  add\n  dup6\n  sstore\n  dup3\n  iszero\n  tag_12\n  jumpi\n  swap2\n  dup3\n  add\ntag_15:\n  dup3\n  dup2\n  gt\n  iszero\n  tag_16\n  jumpi\n  dup3\n  mload\n  dup3\n  sstore\n  swap2\n  0x20\n  add\n  swap2\n  swap1\n  0x01\n  add\n  swap1\n  jump(tag_15)\ntag_16:\ntag_12:\n  pop\n  swap1\n  pop\n  tag_17\n  swap2\n  swap1\n  tag_18\n  jump\t// in\ntag_17:\n  pop\n  swap1\n  jump\t// out\ntag_18:\ntag_19:\n  dup1\n  dup3\n  gt\n  iszero\n  tag_20\n  jumpi\n  0x00\n  dup2\n  0x00\n  swap1\n  sstore\n  pop\n  0x01\n  add\n  jump(tag_19)\ntag_20:\n  pop\n  swap1\n  jump\t// out\n    /* \"#utility.yul\":7:327   */\ntag_11:\n    /* \"#utility.yul\":51:57   */\n  0x00\n    /* \"#utility.yul\":88:89   */\n  0x02\n    /* \"#utility.yul\":82:86   */\n  dup3\n    /* \"#utility.yul\":78:90   */\n  div\n    /* \"#utility.yul\":68:90   */\n  swap1\n  pop\n    /* \"#utility.yul\":135:136   */\n  0x01\n    /* \"#utility.yul\":129:133   */\n  dup3\n    /* \"#utility.yul\":125:137   */\n  and\n    /* \"#utility.yul\":156:174   */\n  dup1\n    /* \"#utility.yul\":146:227   */\n  tag_23\n  jumpi\n    /* \"#utility.yul\":212:216   */\n  0x7f\n    /* \"#utility.yul\":204:210   */\n  dup3\n    /* \"#utility.yul\":200:217   */\n  and\n    /* \"#utility.yul\":190:217   */\n  swap2\n  pop\n    /* \"#utility.yul\":146:227   */\ntag_23:\n    /* \"#utility.yul\":274:276   */\n  0x20\n    /* \"#utility.yul\":266:272   */\n  dup3\n    /* \"#utility.yul\":263:277   */\n  lt\n    /* \"#utility.yul\":243:261   */\n  dup2\n    /* \"#utility.yul\":240:278   */\n  eq\n    /* \"#utility.yul\":237:321   */\n  iszero\n  tag_24\n  jumpi\n    /* \"#utility.yul\":293:311   */\n  tag_25\n  tag_26\n  jump\t// in\ntag_25:\n    /* \"#utility.yul\":237:321   */\ntag_24:\n    /* \"#utility.yul\":58:327   */\n  pop\n    /* \"#utility.yul\":7:327   */\n  swap2\n  swap1\n  pop\n  jump\t// out\n    /* \"#utility.yul\":333:513   */\ntag_26:\n    /* \"#utility.yul\":381:458   */\n  0x4e487b7100000000000000000000000000000000000000000000000000000000\n    /* \"#utility.yul\":378:379   */\n  0x00\n    /* \"#utility.yul\":371:459   */\n  mstore\n    /* \"#utility.yul\":478:482   */\n  0x22\n    /* \"#utility.yul\":475:476   */\n  0x04\n    /* \"#utility.yul\":468:483   */\n  mstore\n    /* \"#utility.yul\":502:506   */\n  0x24\n    /* \"#utility.yul\":499:500   */\n  0x00\n    /* \"#utility.yul\":492:507   */\n  revert\n    /* \"contract/token/HouseToken.sol\":193:1036  contract HouseToken is ERC721, IHouseToken {\r... */\ntag_9:\n  dataSize(sub_0)\n  dup1\n  dataOffset(sub_0)\n  0x00\n  codecopy\n  0x00\n  return\nstop\n\nsub_0: assembly {\n        /* \"contract/token/HouseToken.sol\":193:1036  contract HouseToken is ERC721, IHouseToken {\r... */\n      mstore(0x40, 0x80)\n      callvalue\n      dup1\n      iszero\n      tag_1\n      jumpi\n      0x00\n      dup1\n      revert\n    tag_1:\n      pop\n      jumpi(tag_2, lt(calldatasize, 0x04))\n      shr(0xe0, calldataload(0x00))\n      dup1\n      0x6352211e\n      gt\n      tag_20\n      jumpi\n      dup1\n      0xa22cb465\n      gt\n      tag_21\n      jumpi\n      dup1\n      0xa22cb465\n      eq\n      tag_15\n      jumpi\n      dup1\n      0xb88d4fde\n      eq\n      tag_16\n      jumpi\n      dup1\n      0xc1e41307\n      eq\n      tag_17\n      jumpi\n      dup1\n      0xc87b56dd\n      eq\n      tag_18\n      jumpi\n      dup1\n      0xe985e9c5\n      eq\n      tag_19\n      jumpi\n      jump(tag_2)\n    tag_21:\n      dup1\n      0x6352211e\n      eq\n      tag_11\n      jumpi\n      dup1\n      0x70a08231\n      eq\n      tag_12\n      jumpi\n      dup1\n      0x95d89b41\n      eq\n      tag_13\n      jumpi\n      dup1\n      0xa19af1ad\n      eq\n      tag_14\n      jumpi\n      jump(tag_2)\n    tag_20:\n      dup1\n      0x23b872dd\n      gt\n      tag_22\n      jumpi\n      dup1\n      0x23b872dd\n      eq\n      tag_7\n      jumpi\n      dup1\n      0x36c8af5d\n      eq\n      tag_8\n      jumpi\n      dup1\n      0x42842e0e\n      eq\n      tag_9\n      jumpi\n      dup1\n      0x5ff27f13\n      eq\n      tag_10\n      jumpi\n      jump(tag_2)\n    tag_22:\n      dup1\n      0x01ffc9a7\n      eq\n      tag_3\n      jumpi\n      dup1\n      0x06fdde03\n      eq\n      tag_4\n      jumpi\n      dup1\n      0x081812fc\n      eq\n      tag_5\n      jumpi\n      dup1\n      0x095ea7b3\n      eq\n      tag_6\n      jumpi\n    tag_2:\n      0x00\n      dup1\n      revert\n        /* \"contract/token/ERC721.sol\":1621:1926  function supportsInterface(bytes4 interfaceId) public view virtual override(ERC165, IERC165) returns (bool) {\r... */\n    tag_3:\n      tag_23\n      0x04\n      dup1\n      calldatasize\n      sub\n      dup2\n      add\n      swap1\n      tag_24\n      swap2\n      swap1\n      tag_25\n      jump\t// in\n    tag_24:\n      tag_26\n      jump\t// in\n    tag_23:\n      mload(0x40)\n      tag_27\n      swap2\n      swap1\n      tag_28\n      jump\t// in\n    tag_27:\n      mload(0x40)\n      dup1\n      swap2\n      sub\n      swap1\n      return\n        /* \"contract/token/ERC721.sol\":2565:2665  function name() public view virtual override returns (string memory) {\r... */\n    tag_4:\n      tag_29\n      tag_30\n      jump\t// in\n    tag_29:\n      mload(0x40)\n      tag_31\n      swap2\n      swap1\n      tag_32\n      jump\t// in\n    tag_31:\n      mload(0x40)\n      dup1\n      swap2\n      sub\n      swap1\n      return\n        /* \"contract/token/ERC721.sol\":4125:4346  function getApproved(uint256 tokenId) public view virtual override returns (address) {\r... */\n    tag_5:\n      tag_33\n      0x04\n      dup1\n      calldatasize\n      sub\n      dup2\n      add\n      swap1\n      tag_34\n      swap2\n      swap1\n      tag_35\n      jump\t// in\n    tag_34:\n      tag_36\n      jump\t// in\n    tag_33:\n      mload(0x40)\n      tag_37\n      swap2\n      swap1\n      tag_38\n      jump\t// in\n    tag_37:\n      mload(0x40)\n      dup1\n      swap2\n      sub\n      swap1\n      return\n        /* \"contract/token/ERC721.sol\":3648:4059  function approve(address to, uint256 tokenId) public virtual override {\r... */\n    tag_6:\n      tag_39\n      0x04\n      dup1\n      calldatasize\n      sub\n      dup2\n      add\n      swap1\n      tag_40\n      swap2\n      swap1\n      tag_41\n      jump\t// in\n    tag_40:\n      tag_42\n      jump\t// in\n    tag_39:\n      stop\n        /* \"contract/token/ERC721.sol\":4875:5214  function transferFrom(\r... */\n    tag_7:\n      tag_43\n      0x04\n      dup1\n      calldatasize\n      sub\n      dup2\n      add\n      swap1\n      tag_44\n      swap2\n      swap1\n      tag_45\n      jump\t// in\n    tag_44:\n      tag_46\n      jump\t// in\n    tag_43:\n      stop\n        /* \"contract/token/HouseToken.sol\":704:787  function _getId() external view override returns(uint){\r... */\n    tag_8:\n      tag_47\n      tag_48\n      jump\t// in\n    tag_47:\n      mload(0x40)\n      tag_49\n      swap2\n      swap1\n      tag_50\n      jump\t// in\n    tag_49:\n      mload(0x40)\n      dup1\n      swap2\n      sub\n      swap1\n      return\n        /* \"contract/token/ERC721.sol\":5285:5470  function safeTransferFrom(\r... */\n    tag_9:\n      tag_51\n      0x04\n      dup1\n      calldatasize\n      sub\n      dup2\n      add\n      swap1\n      tag_52\n      swap2\n      swap1\n      tag_45\n      jump\t// in\n    tag_52:\n      tag_53\n      jump\t// in\n    tag_51:\n      stop\n        /* \"contract/token/HouseToken.sol\":519:603  function _delistHouse () external override {\r... */\n    tag_10:\n      tag_54\n      tag_55\n      jump\t// in\n    tag_54:\n      stop\n        /* \"contract/token/ERC721.sol\":2259:2498  function ownerOf(uint256 tokenId) public view virtual override returns (address) {\r... */\n    tag_11:\n      tag_56\n      0x04\n      dup1\n      calldatasize\n      sub\n      dup2\n      add\n      swap1\n      tag_57\n      swap2\n      swap1\n      tag_35\n      jump\t// in\n    tag_57:\n      tag_58\n      jump\t// in\n    tag_56:\n      mload(0x40)\n      tag_59\n      swap2\n      swap1\n      tag_38\n      jump\t// in\n    tag_59:\n      mload(0x40)\n      dup1\n      swap2\n      sub\n      swap1\n      return\n        /* \"contract/token/ERC721.sol\":1990:2197  function balanceOf(address owner) public view virtual override returns (uint256) {\r... */\n    tag_12:\n      tag_60\n      0x04\n      dup1\n      calldatasize\n      sub\n      dup2\n      add\n      swap1\n      tag_61\n      swap2\n      swap1\n      tag_62\n      jump\t// in\n    tag_61:\n      tag_63\n      jump\t// in\n    tag_60:\n      mload(0x40)\n      tag_64\n      swap2\n      swap1\n      tag_50\n      jump\t// in\n    tag_64:\n      mload(0x40)\n      dup1\n      swap2\n      sub\n      swap1\n      return\n        /* \"contract/token/ERC721.sol\":2734:2838  function symbol() public view virtual override returns (string memory) {\r... */\n    tag_13:\n      tag_65\n      tag_66\n      jump\t// in\n    tag_65:\n      mload(0x40)\n      tag_67\n      swap2\n      swap1\n      tag_32\n      jump\t// in\n    tag_67:\n      mload(0x40)\n      dup1\n      swap2\n      sub\n      swap1\n      return\n        /* \"contract/token/HouseToken.sol\":609:698  function _getPrice() external view override returns(uint){\r... */\n    tag_14:\n      tag_68\n      tag_69\n      jump\t// in\n    tag_68:\n      mload(0x40)\n      tag_70\n      swap2\n      swap1\n      tag_50\n      jump\t// in\n    tag_70:\n      mload(0x40)\n      dup1\n      swap2\n      sub\n      swap1\n      return\n        /* \"contract/token/ERC721.sol\":4418:4573  function setApprovalForAll(address operator, bool approved) public virtual override {\r... */\n    tag_15:\n      tag_71\n      0x04\n      dup1\n      calldatasize\n      sub\n      dup2\n      add\n      swap1\n      tag_72\n      swap2\n      swap1\n      tag_73\n      jump\t// in\n    tag_72:\n      tag_74\n      jump\t// in\n    tag_71:\n      stop\n        /* \"contract/token/ERC721.sol\":5541:5867  function safeTransferFrom(\r... */\n    tag_16:\n      tag_75\n      0x04\n      dup1\n      calldatasize\n      sub\n      dup2\n      add\n      swap1\n      tag_76\n      swap2\n      swap1\n      tag_77\n      jump\t// in\n    tag_76:\n      tag_78\n      jump\t// in\n    tag_75:\n      stop\n        /* \"contract/token/HouseToken.sol\":793:1025  function _listHouse(uint id_, uint serialNumber_, uint price_, uint priceDai_, uint area_, address sellerAddress_, address buyerAddress_, string  memory houseAddress_, bool isdelistedHouse_) external returns (uint){\r... */\n    tag_17:\n      tag_79\n      0x04\n      dup1\n      calldatasize\n      sub\n      dup2\n      add\n      swap1\n      tag_80\n      swap2\n      swap1\n      tag_81\n      jump\t// in\n    tag_80:\n      tag_82\n      jump\t// in\n    tag_79:\n      mload(0x40)\n      tag_83\n      swap2\n      swap1\n      tag_50\n      jump\t// in\n    tag_83:\n      mload(0x40)\n      dup1\n      swap2\n      sub\n      swap1\n      return\n        /* \"contract/token/ERC721.sol\":2909:3243  function tokenURI(uint256 tokenId) public view virtual override returns (string memory) {\r... */\n    tag_18:\n      tag_84\n      0x04\n      dup1\n      calldatasize\n      sub\n      dup2\n      add\n      swap1\n      tag_85\n      swap2\n      swap1\n      tag_35\n      jump\t// in\n    tag_85:\n      tag_86\n      jump\t// in\n    tag_84:\n      mload(0x40)\n      tag_87\n      swap2\n      swap1\n      tag_32\n      jump\t// in\n    tag_87:\n      mload(0x40)\n      dup1\n      swap2\n      sub\n      swap1\n      return\n        /* \"contract/token/ERC721.sol\":4644:4808  function isApprovedForAll(address owner, address operator) public view virtual override returns (bool) {\r... */\n    tag_19:\n      tag_88\n      0x04\n      dup1\n      calldatasize\n      sub\n      dup2\n      add\n      swap1\n      tag_89\n      swap2\n      swap1\n      tag_90\n      jump\t// in\n    tag_89:\n      tag_91\n      jump\t// in\n    tag_88:\n      mload(0x40)\n      tag_92\n      swap2\n      swap1\n      tag_28\n      jump\t// in\n    tag_92:\n      mload(0x40)\n      dup1\n      swap2\n      sub\n      swap1\n      return\n        /* \"contract/token/ERC721.sol\":1621:1926  function supportsInterface(bytes4 interfaceId) public view virtual override(ERC165, IERC165) returns (bool) {\r... */\n    tag_26:\n        /* \"contract/token/ERC721.sol\":1723:1727  bool */\n      0x00\n        /* \"contract/token/ERC721.sol\":1775:1800  type(IERC721).interfaceId */\n      0x80ac58cd00000000000000000000000000000000000000000000000000000000\n        /* \"contract/token/ERC721.sol\":1760:1800  interfaceId == type(IERC721).interfaceId */\n      not(0xffffffffffffffffffffffffffffffffffffffffffffffffffffffff)\n      and\n        /* \"contract/token/ERC721.sol\":1760:1771  interfaceId */\n      dup3\n        /* \"contract/token/ERC721.sol\":1760:1800  interfaceId == type(IERC721).interfaceId */\n      not(0xffffffffffffffffffffffffffffffffffffffffffffffffffffffff)\n      and\n      eq\n        /* \"contract/token/ERC721.sol\":1760:1865  interfaceId == type(IERC721).interfaceId ||\r... */\n      dup1\n      tag_94\n      jumpi\n      pop\n        /* \"contract/token/ERC721.sol\":1832:1865  type(IERC721Metadata).interfaceId */\n      0x5b5e139f00000000000000000000000000000000000000000000000000000000\n        /* \"contract/token/ERC721.sol\":1817:1865  interfaceId == type(IERC721Metadata).interfaceId */\n      not(0xffffffffffffffffffffffffffffffffffffffffffffffffffffffff)\n      and\n        /* \"contract/token/ERC721.sol\":1817:1828  interfaceId */\n      dup3\n        /* \"contract/token/ERC721.sol\":1817:1865  interfaceId == type(IERC721Metadata).interfaceId */\n      not(0xffffffffffffffffffffffffffffffffffffffffffffffffffffffff)\n      and\n      eq\n        /* \"contract/token/ERC721.sol\":1760:1865  interfaceId == type(IERC721).interfaceId ||\r... */\n    tag_94:\n        /* \"contract/token/ERC721.sol\":1760:1918  interfaceId == type(IERC721).interfaceId ||\r... */\n      dup1\n      tag_95\n      jumpi\n      pop\n        /* \"contract/token/ERC721.sol\":1882:1918  super.supportsInterface(interfaceId) */\n      tag_96\n        /* \"contract/token/ERC721.sol\":1906:1917  interfaceId */\n      dup3\n        /* \"contract/token/ERC721.sol\":1882:1905  super.supportsInterface */\n      tag_97\n        /* \"contract/token/ERC721.sol\":1882:1918  super.supportsInterface(interfaceId) */\n      jump\t// in\n    tag_96:\n        /* \"contract/token/ERC721.sol\":1760:1918  interfaceId == type(IERC721).interfaceId ||\r... */\n    tag_95:\n        /* \"contract/token/ERC721.sol\":1740:1918  return\r... */\n      swap1\n      pop\n        /* \"contract/token/ERC721.sol\":1621:1926  function supportsInterface(bytes4 interfaceId) public view virtual override(ERC165, IERC165) returns (bool) {\r... */\n      swap2\n      swap1\n      pop\n      jump\t// out\n        /* \"contract/token/ERC721.sol\":2565:2665  function name() public view virtual override returns (string memory) {\r... */\n    tag_30:\n        /* \"contract/token/ERC721.sol\":2619:2632  string memory */\n      0x60\n        /* \"contract/token/ERC721.sol\":2652:2657  _name */\n      0x00\n        /* \"contract/token/ERC721.sol\":2645:2657  return _name */\n      dup1\n      sload\n      tag_99\n      swap1\n      tag_100\n      jump\t// in\n    tag_99:\n      dup1\n      0x1f\n      add\n      0x20\n      dup1\n      swap2\n      div\n      mul\n      0x20\n      add\n      mload(0x40)\n      swap1\n      dup2\n      add\n      0x40\n      mstore\n      dup1\n      swap3\n      swap2\n      swap1\n      dup2\n      dup2\n      mstore\n      0x20\n      add\n      dup3\n      dup1\n      sload\n      tag_101\n      swap1\n      tag_100\n      jump\t// in\n    tag_101:\n      dup1\n      iszero\n      tag_102\n      jumpi\n      dup1\n      0x1f\n      lt\n      tag_103\n      jumpi\n      0x0100\n      dup1\n      dup4\n      sload\n      div\n      mul\n      dup4\n      mstore\n      swap2\n      0x20\n      add\n      swap2\n      jump(tag_102)\n    tag_103:\n      dup3\n      add\n      swap2\n      swap1\n      0x00\n      mstore\n      keccak256(0x00, 0x20)\n      swap1\n    tag_104:\n      dup2\n      sload\n      dup2\n      mstore\n      swap1\n      0x01\n      add\n      swap1\n      0x20\n      add\n      dup1\n      dup4\n      gt\n      tag_104\n      jumpi\n      dup3\n      swap1\n      sub\n      0x1f\n      and\n      dup3\n      add\n      swap2\n    tag_102:\n      pop\n      pop\n      pop\n      pop\n      pop\n      swap1\n      pop\n        /* \"contract/token/ERC721.sol\":2565:2665  function name() public view virtual override returns (string memory) {\r... */\n      swap1\n      jump\t// out\n        /* \"contract/token/ERC721.sol\":4125:4346  function getApproved(uint256 tokenId) public view virtual override returns (address) {\r... */\n    tag_36:\n        /* \"contract/token/ERC721.sol\":4201:4208  address */\n      0x00\n        /* \"contract/token/ERC721.sol\":4229:4245  _exists(tokenId) */\n      tag_106\n        /* \"contract/token/ERC721.sol\":4237:4244  tokenId */\n      dup3\n        /* \"contract/token/ERC721.sol\":4229:4236  _exists */\n      tag_107\n        /* \"contract/token/ERC721.sol\":4229:4245  _exists(tokenId) */\n      jump\t// in\n    tag_106:\n        /* \"contract/token/ERC721.sol\":4221:4294  require(_exists(tokenId), \"ERC721: approved query for nonexistent token\") */\n      tag_108\n      jumpi\n      mload(0x40)\n      0x08c379a000000000000000000000000000000000000000000000000000000000\n      dup2\n      mstore\n      0x04\n      add\n      tag_109\n      swap1\n      tag_110\n      jump\t// in\n    tag_109:\n      mload(0x40)\n      dup1\n      swap2\n      sub\n      swap1\n      revert\n    tag_108:\n        /* \"contract/token/ERC721.sol\":4314:4329  _tokenApprovals */\n      0x04\n        /* \"contract/token/ERC721.sol\":4314:4338  _tokenApprovals[tokenId] */\n      0x00\n        /* \"contract/token/ERC721.sol\":4330:4337  tokenId */\n      dup4\n        /* \"contract/token/ERC721.sol\":4314:4338  _tokenApprovals[tokenId] */\n      dup2\n      mstore\n      0x20\n      add\n      swap1\n      dup2\n      mstore\n      0x20\n      add\n      0x00\n      keccak256\n      0x00\n      swap1\n      sload\n      swap1\n      0x0100\n      exp\n      swap1\n      div\n      0xffffffffffffffffffffffffffffffffffffffff\n      and\n        /* \"contract/token/ERC721.sol\":4307:4338  return _tokenApprovals[tokenId] */\n      swap1\n      pop\n        /* \"contract/token/ERC721.sol\":4125:4346  function getApproved(uint256 tokenId) public view virtual override returns (address) {\r... */\n      swap2\n      swap1\n      pop\n      jump\t// out\n        /* \"contract/token/ERC721.sol\":3648:4059  function approve(address to, uint256 tokenId) public virtual override {\r... */\n    tag_42:\n        /* \"contract/token/ERC721.sol\":3729:3742  address owner */\n      0x00\n        /* \"contract/token/ERC721.sol\":3745:3768  ERC721.ownerOf(tokenId) */\n      tag_112\n        /* \"contract/token/ERC721.sol\":3760:3767  tokenId */\n      dup3\n        /* \"contract/token/ERC721.sol\":3745:3759  ERC721.ownerOf */\n      tag_58\n        /* \"contract/token/ERC721.sol\":3745:3768  ERC721.ownerOf(tokenId) */\n      jump\t// in\n    tag_112:\n        /* \"contract/token/ERC721.sol\":3729:3768  address owner = ERC721.ownerOf(tokenId) */\n      swap1\n      pop\n        /* \"contract/token/ERC721.sol\":3793:3798  owner */\n      dup1\n        /* \"contract/token/ERC721.sol\":3787:3798  to != owner */\n      0xffffffffffffffffffffffffffffffffffffffff\n      and\n        /* \"contract/token/ERC721.sol\":3787:3789  to */\n      dup4\n        /* \"contract/token/ERC721.sol\":3787:3798  to != owner */\n      0xffffffffffffffffffffffffffffffffffffffff\n      and\n      eq\n      iszero\n        /* \"contract/token/ERC721.sol\":3779:3836  require(to != owner, \"ERC721: approval to current owner\") */\n      tag_113\n      jumpi\n      mload(0x40)\n      0x08c379a000000000000000000000000000000000000000000000000000000000\n      dup2\n      mstore\n      0x04\n      add\n      tag_114\n      swap1\n      tag_115\n      jump\t// in\n    tag_114:\n      mload(0x40)\n      dup1\n      swap2\n      sub\n      swap1\n      revert\n    tag_113:\n        /* \"contract/token/ERC721.sol\":3887:3892  owner */\n      dup1\n        /* \"contract/token/ERC721.sol\":3871:3892  _msgSender() == owner */\n      0xffffffffffffffffffffffffffffffffffffffff\n      and\n        /* \"contract/token/ERC721.sol\":3871:3883  _msgSender() */\n      tag_116\n        /* \"contract/token/ERC721.sol\":3871:3881  _msgSender */\n      tag_117\n        /* \"contract/token/ERC721.sol\":3871:3883  _msgSender() */\n      jump\t// in\n    tag_116:\n        /* \"contract/token/ERC721.sol\":3871:3892  _msgSender() == owner */\n      0xffffffffffffffffffffffffffffffffffffffff\n      and\n      eq\n        /* \"contract/token/ERC721.sol\":3871:3933  _msgSender() == owner || isApprovedForAll(owner, _msgSender()) */\n      dup1\n      tag_118\n      jumpi\n      pop\n        /* \"contract/token/ERC721.sol\":3896:3933  isApprovedForAll(owner, _msgSender()) */\n      tag_119\n        /* \"contract/token/ERC721.sol\":3913:3918  owner */\n      dup2\n        /* \"contract/token/ERC721.sol\":3920:3932  _msgSender() */\n      tag_120\n        /* \"contract/token/ERC721.sol\":3920:3930  _msgSender */\n      tag_117\n        /* \"contract/token/ERC721.sol\":3920:3932  _msgSender() */\n      jump\t// in\n    tag_120:\n        /* \"contract/token/ERC721.sol\":3896:3912  isApprovedForAll */\n      tag_91\n        /* \"contract/token/ERC721.sol\":3896:3933  isApprovedForAll(owner, _msgSender()) */\n      jump\t// in\n    tag_119:\n        /* \"contract/token/ERC721.sol\":3871:3933  _msgSender() == owner || isApprovedForAll(owner, _msgSender()) */\n    tag_118:\n        /* \"contract/token/ERC721.sol\":3849:4017  require(\r... */\n      tag_121\n      jumpi\n      mload(0x40)\n      0x08c379a000000000000000000000000000000000000000000000000000000000\n      dup2\n      mstore\n      0x04\n      add\n      tag_122\n      swap1\n      tag_123\n      jump\t// in\n    tag_122:\n      mload(0x40)\n      dup1\n      swap2\n      sub\n      swap1\n      revert\n    tag_121:\n        /* \"contract/token/ERC721.sol\":4030:4051  _approve(to, tokenId) */\n      tag_124\n        /* \"contract/token/ERC721.sol\":4039:4041  to */\n      dup4\n        /* \"contract/token/ERC721.sol\":4043:4050  tokenId */\n      dup4\n        /* \"contract/token/ERC721.sol\":4030:4038  _approve */\n      tag_125\n        /* \"contract/token/ERC721.sol\":4030:4051  _approve(to, tokenId) */\n      jump\t// in\n    tag_124:\n        /* \"contract/token/ERC721.sol\":3718:4059  {\r... */\n      pop\n        /* \"contract/token/ERC721.sol\":3648:4059  function approve(address to, uint256 tokenId) public virtual override {\r... */\n      pop\n      pop\n      jump\t// out\n        /* \"contract/token/ERC721.sol\":4875:5214  function transferFrom(\r... */\n    tag_46:\n        /* \"contract/token/ERC721.sol\":5070:5111  _isApprovedOrOwner(_msgSender(), tokenId) */\n      tag_127\n        /* \"contract/token/ERC721.sol\":5089:5101  _msgSender() */\n      tag_128\n        /* \"contract/token/ERC721.sol\":5089:5099  _msgSender */\n      tag_117\n        /* \"contract/token/ERC721.sol\":5089:5101  _msgSender() */\n      jump\t// in\n    tag_128:\n        /* \"contract/token/ERC721.sol\":5103:5110  tokenId */\n      dup3\n        /* \"contract/token/ERC721.sol\":5070:5088  _isApprovedOrOwner */\n      tag_129\n        /* \"contract/token/ERC721.sol\":5070:5111  _isApprovedOrOwner(_msgSender(), tokenId) */\n      jump\t// in\n    tag_127:\n        /* \"contract/token/ERC721.sol\":5062:5165  require(_isApprovedOrOwner(_msgSender(), tokenId), \"ERC721: transfer caller is not owner nor approved\") */\n      tag_130\n      jumpi\n      mload(0x40)\n      0x08c379a000000000000000000000000000000000000000000000000000000000\n      dup2\n      mstore\n      0x04\n      add\n      tag_131\n      swap1\n      tag_132\n      jump\t// in\n    tag_131:\n      mload(0x40)\n      dup1\n      swap2\n      sub\n      swap1\n      revert\n    tag_130:\n        /* \"contract/token/ERC721.sol\":5178:5206  _transfer(from, to, tokenId) */\n      tag_133\n        /* \"contract/token/ERC721.sol\":5188:5192  from */\n      dup4\n        /* \"contract/token/ERC721.sol\":5194:5196  to */\n      dup4\n        /* \"contract/token/ERC721.sol\":5198:5205  tokenId */\n      dup4\n        /* \"contract/token/ERC721.sol\":5178:5187  _transfer */\n      tag_134\n        /* \"contract/token/ERC721.sol\":5178:5206  _transfer(from, to, tokenId) */\n      jump\t// in\n    tag_133:\n        /* \"contract/token/ERC721.sol\":4875:5214  function transferFrom(\r... */\n      pop\n      pop\n      pop\n      jump\t// out\n        /* \"contract/token/HouseToken.sol\":704:787  function _getId() external view override returns(uint){\r... */\n    tag_48:\n        /* \"contract/token/HouseToken.sol\":753:757  uint */\n      0x00\n        /* \"contract/token/HouseToken.sol\":776:779  _id */\n      sload(0x06)\n        /* \"contract/token/HouseToken.sol\":769:779  return _id */\n      swap1\n      pop\n        /* \"contract/token/HouseToken.sol\":704:787  function _getId() external view override returns(uint){\r... */\n      swap1\n      jump\t// out\n        /* \"contract/token/ERC721.sol\":5285:5470  function safeTransferFrom(\r... */\n    tag_53:\n        /* \"contract/token/ERC721.sol\":5423:5462  safeTransferFrom(from, to, tokenId, \"\") */\n      tag_137\n        /* \"contract/token/ERC721.sol\":5440:5444  from */\n      dup4\n        /* \"contract/token/ERC721.sol\":5446:5448  to */\n      dup4\n        /* \"contract/token/ERC721.sol\":5450:5457  tokenId */\n      dup4\n        /* \"contract/token/ERC721.sol\":5423:5462  safeTransferFrom(from, to, tokenId, \"\") */\n      mload(0x40)\n      dup1\n      0x20\n      add\n      0x40\n      mstore\n      dup1\n      0x00\n      dup2\n      mstore\n      pop\n        /* \"contract/token/ERC721.sol\":5423:5439  safeTransferFrom */\n      tag_78\n        /* \"contract/token/ERC721.sol\":5423:5462  safeTransferFrom(from, to, tokenId, \"\") */\n      jump\t// in\n    tag_137:\n        /* \"contract/token/ERC721.sol\":5285:5470  function safeTransferFrom(\r... */\n      pop\n      pop\n      pop\n      jump\t// out\n        /* \"contract/token/HouseToken.sol\":519:603  function _delistHouse () external override {\r... */\n    tag_55:\n        /* \"contract/token/HouseToken.sol\":591:595  true */\n      0x01\n        /* \"contract/token/HouseToken.sol\":572:588  _isdelistedHouse */\n      0x0e\n      0x00\n        /* \"contract/token/HouseToken.sol\":572:595  _isdelistedHouse = true */\n      0x0100\n      exp\n      dup2\n      sload\n      dup2\n      0xff\n      mul\n      not\n      and\n      swap1\n      dup4\n      iszero\n      iszero\n      mul\n      or\n      swap1\n      sstore\n      pop\n        /* \"contract/token/HouseToken.sol\":519:603  function _delistHouse () external override {\r... */\n      jump\t// out\n        /* \"contract/token/ERC721.sol\":2259:2498  function ownerOf(uint256 tokenId) public view virtual override returns (address) {\r... */\n    tag_58:\n        /* \"contract/token/ERC721.sol\":2331:2338  address */\n      0x00\n        /* \"contract/token/ERC721.sol\":2351:2364  address owner */\n      dup1\n        /* \"contract/token/ERC721.sol\":2367:2374  _owners */\n      0x02\n        /* \"contract/token/ERC721.sol\":2367:2383  _owners[tokenId] */\n      0x00\n        /* \"contract/token/ERC721.sol\":2375:2382  tokenId */\n      dup5\n        /* \"contract/token/ERC721.sol\":2367:2383  _owners[tokenId] */\n      dup2\n      mstore\n      0x20\n      add\n      swap1\n      dup2\n      mstore\n      0x20\n      add\n      0x00\n      keccak256\n      0x00\n      swap1\n      sload\n      swap1\n      0x0100\n      exp\n      swap1\n      div\n      0xffffffffffffffffffffffffffffffffffffffff\n      and\n        /* \"contract/token/ERC721.sol\":2351:2383  address owner = _owners[tokenId] */\n      swap1\n      pop\n        /* \"contract/token/ERC721.sol\":2419:2420  0 */\n      0x00\n        /* \"contract/token/ERC721.sol\":2402:2421  owner != address(0) */\n      0xffffffffffffffffffffffffffffffffffffffff\n      and\n        /* \"contract/token/ERC721.sol\":2402:2407  owner */\n      dup2\n        /* \"contract/token/ERC721.sol\":2402:2421  owner != address(0) */\n      0xffffffffffffffffffffffffffffffffffffffff\n      and\n      eq\n      iszero\n        /* \"contract/token/ERC721.sol\":2394:2467  require(owner != address(0), \"ERC721: owner query for nonexistent token\") */\n      tag_140\n      jumpi\n      mload(0x40)\n      0x08c379a000000000000000000000000000000000000000000000000000000000\n      dup2\n      mstore\n      0x04\n      add\n      tag_141\n      swap1\n      tag_142\n      jump\t// in\n    tag_141:\n      mload(0x40)\n      dup1\n      swap2\n      sub\n      swap1\n      revert\n    tag_140:\n        /* \"contract/token/ERC721.sol\":2485:2490  owner */\n      dup1\n        /* \"contract/token/ERC721.sol\":2478:2490  return owner */\n      swap2\n      pop\n      pop\n        /* \"contract/token/ERC721.sol\":2259:2498  function ownerOf(uint256 tokenId) public view virtual override returns (address) {\r... */\n      swap2\n      swap1\n      pop\n      jump\t// out\n        /* \"contract/token/ERC721.sol\":1990:2197  function balanceOf(address owner) public view virtual override returns (uint256) {\r... */\n    tag_63:\n        /* \"contract/token/ERC721.sol\":2062:2069  uint256 */\n      0x00\n        /* \"contract/token/ERC721.sol\":2107:2108  0 */\n      dup1\n        /* \"contract/token/ERC721.sol\":2090:2109  owner != address(0) */\n      0xffffffffffffffffffffffffffffffffffffffff\n      and\n        /* \"contract/token/ERC721.sol\":2090:2095  owner */\n      dup3\n        /* \"contract/token/ERC721.sol\":2090:2109  owner != address(0) */\n      0xffffffffffffffffffffffffffffffffffffffff\n      and\n      eq\n      iszero\n        /* \"contract/token/ERC721.sol\":2082:2155  require(owner != address(0), \"ERC721: address zero is not a valid owner\") */\n      tag_144\n      jumpi\n      mload(0x40)\n      0x08c379a000000000000000000000000000000000000000000000000000000000\n      dup2\n      mstore\n      0x04\n      add\n      tag_145\n      swap1\n      tag_146\n      jump\t// in\n    tag_145:\n      mload(0x40)\n      dup1\n      swap2\n      sub\n      swap1\n      revert\n    tag_144:\n        /* \"contract/token/ERC721.sol\":2173:2182  _balances */\n      0x03\n        /* \"contract/token/ERC721.sol\":2173:2189  _balances[owner] */\n      0x00\n        /* \"contract/token/ERC721.sol\":2183:2188  owner */\n      dup4\n        /* \"contract/token/ERC721.sol\":2173:2189  _balances[owner] */\n      0xffffffffffffffffffffffffffffffffffffffff\n      and\n      0xffffffffffffffffffffffffffffffffffffffff\n      and\n      dup2\n      mstore\n      0x20\n      add\n      swap1\n      dup2\n      mstore\n      0x20\n      add\n      0x00\n      keccak256\n      sload\n        /* \"contract/token/ERC721.sol\":2166:2189  return _balances[owner] */\n      swap1\n      pop\n        /* \"contract/token/ERC721.sol\":1990:2197  function balanceOf(address owner) public view virtual override returns (uint256) {\r... */\n      swap2\n      swap1\n      pop\n      jump\t// out\n        /* \"contract/token/ERC721.sol\":2734:2838  function symbol() public view virtual override returns (string memory) {\r... */\n    tag_66:\n        /* \"contract/token/ERC721.sol\":2790:2803  string memory */\n      0x60\n        /* \"contract/token/ERC721.sol\":2823:2830  _symbol */\n      0x01\n        /* \"contract/token/ERC721.sol\":2816:2830  return _symbol */\n      dup1\n      sload\n      tag_148\n      swap1\n      tag_100\n      jump\t// in\n    tag_148:\n      dup1\n      0x1f\n      add\n      0x20\n      dup1\n      swap2\n      div\n      mul\n      0x20\n      add\n      mload(0x40)\n      swap1\n      dup2\n      add\n      0x40\n      mstore\n      dup1\n      swap3\n      swap2\n      swap1\n      dup2\n      dup2\n      mstore\n      0x20\n      add\n      dup3\n      dup1\n      sload\n      tag_149\n      swap1\n      tag_100\n      jump\t// in\n    tag_149:\n      dup1\n      iszero\n      tag_150\n      jumpi\n      dup1\n      0x1f\n      lt\n      tag_151\n      jumpi\n      0x0100\n      dup1\n      dup4\n      sload\n      div\n      mul\n      dup4\n      mstore\n      swap2\n      0x20\n      add\n      swap2\n      jump(tag_150)\n    tag_151:\n      dup3\n      add\n      swap2\n      swap1\n      0x00\n      mstore\n      keccak256(0x00, 0x20)\n      swap1\n    tag_152:\n      dup2\n      sload\n      dup2\n      mstore\n      swap1\n      0x01\n      add\n      swap1\n      0x20\n      add\n      dup1\n      dup4\n      gt\n      tag_152\n      jumpi\n      dup3\n      swap1\n      sub\n      0x1f\n      and\n      dup3\n      add\n      swap2\n    tag_150:\n      pop\n      pop\n      pop\n      pop\n      pop\n      swap1\n      pop\n        /* \"contract/token/ERC721.sol\":2734:2838  function symbol() public view virtual override returns (string memory) {\r... */\n      swap1\n      jump\t// out\n        /* \"contract/token/HouseToken.sol\":609:698  function _getPrice() external view override returns(uint){\r... */\n    tag_69:\n        /* \"contract/token/HouseToken.sol\":661:665  uint */\n      0x00\n        /* \"contract/token/HouseToken.sol\":684:690  _price */\n      sload(0x08)\n        /* \"contract/token/HouseToken.sol\":677:690  return _price */\n      swap1\n      pop\n        /* \"contract/token/HouseToken.sol\":609:698  function _getPrice() external view override returns(uint){\r... */\n      swap1\n      jump\t// out\n        /* \"contract/token/ERC721.sol\":4418:4573  function setApprovalForAll(address operator, bool approved) public virtual override {\r... */\n    tag_74:\n        /* \"contract/token/ERC721.sol\":4513:4565  _setApprovalForAll(_msgSender(), operator, approved) */\n      tag_155\n        /* \"contract/token/ERC721.sol\":4532:4544  _msgSender() */\n      tag_156\n        /* \"contract/token/ERC721.sol\":4532:4542  _msgSender */\n      tag_117\n        /* \"contract/token/ERC721.sol\":4532:4544  _msgSender() */\n      jump\t// in\n    tag_156:\n        /* \"contract/token/ERC721.sol\":4546:4554  operator */\n      dup4\n        /* \"contract/token/ERC721.sol\":4556:4564  approved */\n      dup4\n        /* \"contract/token/ERC721.sol\":4513:4531  _setApprovalForAll */\n      tag_157\n        /* \"contract/token/ERC721.sol\":4513:4565  _setApprovalForAll(_msgSender(), operator, approved) */\n      jump\t// in\n    tag_155:\n        /* \"contract/token/ERC721.sol\":4418:4573  function setApprovalForAll(address operator, bool approved) public virtual override {\r... */\n      pop\n      pop\n      jump\t// out\n        /* \"contract/token/ERC721.sol\":5541:5867  function safeTransferFrom(\r... */\n    tag_78:\n        /* \"contract/token/ERC721.sol\":5715:5756  _isApprovedOrOwner(_msgSender(), tokenId) */\n      tag_159\n        /* \"contract/token/ERC721.sol\":5734:5746  _msgSender() */\n      tag_160\n        /* \"contract/token/ERC721.sol\":5734:5744  _msgSender */\n      tag_117\n        /* \"contract/token/ERC721.sol\":5734:5746  _msgSender() */\n      jump\t// in\n    tag_160:\n        /* \"contract/token/ERC721.sol\":5748:5755  tokenId */\n      dup4\n        /* \"contract/token/ERC721.sol\":5715:5733  _isApprovedOrOwner */\n      tag_129\n        /* \"contract/token/ERC721.sol\":5715:5756  _isApprovedOrOwner(_msgSender(), tokenId) */\n      jump\t// in\n    tag_159:\n        /* \"contract/token/ERC721.sol\":5707:5810  require(_isApprovedOrOwner(_msgSender(), tokenId), \"ERC721: transfer caller is not owner nor approved\") */\n      tag_161\n      jumpi\n      mload(0x40)\n      0x08c379a000000000000000000000000000000000000000000000000000000000\n      dup2\n      mstore\n      0x04\n      add\n      tag_162\n      swap1\n      tag_132\n      jump\t// in\n    tag_162:\n      mload(0x40)\n      dup1\n      swap2\n      sub\n      swap1\n      revert\n    tag_161:\n        /* \"contract/token/ERC721.sol\":5821:5859  _safeTransfer(from, to, tokenId, data) */\n      tag_163\n        /* \"contract/token/ERC721.sol\":5835:5839  from */\n      dup5\n        /* \"contract/token/ERC721.sol\":5841:5843  to */\n      dup5\n        /* \"contract/token/ERC721.sol\":5845:5852  tokenId */\n      dup5\n        /* \"contract/token/ERC721.sol\":5854:5858  data */\n      dup5\n        /* \"contract/token/ERC721.sol\":5821:5834  _safeTransfer */\n      tag_164\n        /* \"contract/token/ERC721.sol\":5821:5859  _safeTransfer(from, to, tokenId, data) */\n      jump\t// in\n    tag_163:\n        /* \"contract/token/ERC721.sol\":5541:5867  function safeTransferFrom(\r... */\n      pop\n      pop\n      pop\n      pop\n      jump\t// out\n        /* \"contract/token/HouseToken.sol\":793:1025  function _listHouse(uint id_, uint serialNumber_, uint price_, uint priceDai_, uint area_, address sellerAddress_, address buyerAddress_, string  memory houseAddress_, bool isdelistedHouse_) external returns (uint){\r... */\n    tag_82:\n        /* \"contract/token/HouseToken.sol\":1002:1006  uint */\n      0x00\n        /* \"contract/token/HouseToken.sol\":793:1025  function _listHouse(uint id_, uint serialNumber_, uint price_, uint priceDai_, uint area_, address sellerAddress_, address buyerAddress_, string  memory houseAddress_, bool isdelistedHouse_) external returns (uint){\r... */\n      swap10\n      swap9\n      pop\n      pop\n      pop\n      pop\n      pop\n      pop\n      pop\n      pop\n      pop\n      jump\t// out\n        /* \"contract/token/ERC721.sol\":2909:3243  function tokenURI(uint256 tokenId) public view virtual override returns (string memory) {\r... */\n    tag_86:\n        /* \"contract/token/ERC721.sol\":2982:2995  string memory */\n      0x60\n        /* \"contract/token/ERC721.sol\":3016:3032  _exists(tokenId) */\n      tag_167\n        /* \"contract/token/ERC721.sol\":3024:3031  tokenId */\n      dup3\n        /* \"contract/token/ERC721.sol\":3016:3023  _exists */\n      tag_107\n        /* \"contract/token/ERC721.sol\":3016:3032  _exists(tokenId) */\n      jump\t// in\n    tag_167:\n        /* \"contract/token/ERC721.sol\":3008:3084  require(_exists(tokenId), \"ERC721Metadata: URI query for nonexistent token\") */\n      tag_168\n      jumpi\n      mload(0x40)\n      0x08c379a000000000000000000000000000000000000000000000000000000000\n      dup2\n      mstore\n      0x04\n      add\n      tag_169\n      swap1\n      tag_170\n      jump\t// in\n    tag_169:\n      mload(0x40)\n      dup1\n      swap2\n      sub\n      swap1\n      revert\n    tag_168:\n        /* \"contract/token/ERC721.sol\":3097:3118  string memory baseURI */\n      0x00\n        /* \"contract/token/ERC721.sol\":3121:3131  _baseURI() */\n      tag_171\n        /* \"contract/token/ERC721.sol\":3121:3129  _baseURI */\n      tag_172\n        /* \"contract/token/ERC721.sol\":3121:3131  _baseURI() */\n      jump\t// in\n    tag_171:\n        /* \"contract/token/ERC721.sol\":3097:3131  string memory baseURI = _baseURI() */\n      swap1\n      pop\n        /* \"contract/token/ERC721.sol\":3173:3174  0 */\n      0x00\n        /* \"contract/token/ERC721.sol\":3155:3162  baseURI */\n      dup2\n        /* \"contract/token/ERC721.sol\":3149:3170  bytes(baseURI).length */\n      mload\n        /* \"contract/token/ERC721.sol\":3149:3174  bytes(baseURI).length > 0 */\n      gt\n        /* \"contract/token/ERC721.sol\":3149:3235  bytes(baseURI).length > 0 ? string(abi.encodePacked(baseURI, tokenId.toString())) : \"\" */\n      tag_173\n      jumpi\n      mload(0x40)\n      dup1\n      0x20\n      add\n      0x40\n      mstore\n      dup1\n      0x00\n      dup2\n      mstore\n      pop\n      jump(tag_174)\n    tag_173:\n        /* \"contract/token/ERC721.sol\":3201:3208  baseURI */\n      dup1\n        /* \"contract/token/ERC721.sol\":3210:3228  tokenId.toString() */\n      tag_175\n        /* \"contract/token/ERC721.sol\":3210:3217  tokenId */\n      dup5\n        /* \"contract/token/ERC721.sol\":3210:3226  tokenId.toString */\n      tag_176\n        /* \"contract/token/ERC721.sol\":3210:3228  tokenId.toString() */\n      jump\t// in\n    tag_175:\n        /* \"contract/token/ERC721.sol\":3184:3229  abi.encodePacked(baseURI, tokenId.toString()) */\n      add(0x20, mload(0x40))\n      tag_177\n      swap3\n      swap2\n      swap1\n      tag_178\n      jump\t// in\n    tag_177:\n      mload(0x40)\n      0x20\n      dup2\n      dup4\n      sub\n      sub\n      dup2\n      mstore\n      swap1\n      0x40\n      mstore\n        /* \"contract/token/ERC721.sol\":3149:3235  bytes(baseURI).length > 0 ? string(abi.encodePacked(baseURI, tokenId.toString())) : \"\" */\n    tag_174:\n        /* \"contract/token/ERC721.sol\":3142:3235  return bytes(baseURI).length > 0 ? string(abi.encodePacked(baseURI, tokenId.toString())) : \"\" */\n      swap2\n      pop\n      pop\n        /* \"contract/token/ERC721.sol\":2909:3243  function tokenURI(uint256 tokenId) public view virtual override returns (string memory) {\r... */\n      swap2\n      swap1\n      pop\n      jump\t// out\n        /* \"contract/token/ERC721.sol\":4644:4808  function isApprovedForAll(address owner, address operator) public view virtual override returns (bool) {\r... */\n    tag_91:\n        /* \"contract/token/ERC721.sol\":4741:4745  bool */\n      0x00\n        /* \"contract/token/ERC721.sol\":4765:4783  _operatorApprovals */\n      0x05\n        /* \"contract/token/ERC721.sol\":4765:4790  _operatorApprovals[owner] */\n      0x00\n        /* \"contract/token/ERC721.sol\":4784:4789  owner */\n      dup5\n        /* \"contract/token/ERC721.sol\":4765:4790  _operatorApprovals[owner] */\n      0xffffffffffffffffffffffffffffffffffffffff\n      and\n      0xffffffffffffffffffffffffffffffffffffffff\n      and\n      dup2\n      mstore\n      0x20\n      add\n      swap1\n      dup2\n      mstore\n      0x20\n      add\n      0x00\n      keccak256\n        /* \"contract/token/ERC721.sol\":4765:4800  _operatorApprovals[owner][operator] */\n      0x00\n        /* \"contract/token/ERC721.sol\":4791:4799  operator */\n      dup4\n        /* \"contract/token/ERC721.sol\":4765:4800  _operatorApprovals[owner][operator] */\n      0xffffffffffffffffffffffffffffffffffffffff\n      and\n      0xffffffffffffffffffffffffffffffffffffffff\n      and\n      dup2\n      mstore\n      0x20\n      add\n      swap1\n      dup2\n      mstore\n      0x20\n      add\n      0x00\n      keccak256\n      0x00\n      swap1\n      sload\n      swap1\n      0x0100\n      exp\n      swap1\n      div\n      0xff\n      and\n        /* \"contract/token/ERC721.sol\":4758:4800  return _operatorApprovals[owner][operator] */\n      swap1\n      pop\n        /* \"contract/token/ERC721.sol\":4644:4808  function isApprovedForAll(address owner, address operator) public view virtual override returns (bool) {\r... */\n      swap3\n      swap2\n      pop\n      pop\n      jump\t// out\n        /* \"utils/introspection/ERC165.sol\":854:1011  function supportsInterface(bytes4 interfaceId) public view virtual override returns (bool) {\r... */\n    tag_97:\n        /* \"utils/introspection/ERC165.sol\":939:943  bool */\n      0x00\n        /* \"utils/introspection/ERC165.sol\":978:1003  type(IERC165).interfaceId */\n      0x01ffc9a700000000000000000000000000000000000000000000000000000000\n        /* \"utils/introspection/ERC165.sol\":963:1003  interfaceId == type(IERC165).interfaceId */\n      not(0xffffffffffffffffffffffffffffffffffffffffffffffffffffffff)\n      and\n        /* \"utils/introspection/ERC165.sol\":963:974  interfaceId */\n      dup3\n        /* \"utils/introspection/ERC165.sol\":963:1003  interfaceId == type(IERC165).interfaceId */\n      not(0xffffffffffffffffffffffffffffffffffffffffffffffffffffffff)\n      and\n      eq\n        /* \"utils/introspection/ERC165.sol\":956:1003  return interfaceId == type(IERC165).interfaceId */\n      swap1\n      pop\n        /* \"utils/introspection/ERC165.sol\":854:1011  function supportsInterface(bytes4 interfaceId) public view virtual override returns (bool) {\r... */\n      swap2\n      swap1\n      pop\n      jump\t// out\n        /* \"contract/token/ERC721.sol\":7374:7501  function _exists(uint256 tokenId) internal view virtual returns (bool) {\r... */\n    tag_107:\n        /* \"contract/token/ERC721.sol\":7439:7443  bool */\n      0x00\n        /* \"contract/token/ERC721.sol\":7491:7492  0 */\n      dup1\n        /* \"contract/token/ERC721.sol\":7463:7493  _owners[tokenId] != address(0) */\n      0xffffffffffffffffffffffffffffffffffffffff\n      and\n        /* \"contract/token/ERC721.sol\":7463:7470  _owners */\n      0x02\n        /* \"contract/token/ERC721.sol\":7463:7479  _owners[tokenId] */\n      0x00\n        /* \"contract/token/ERC721.sol\":7471:7478  tokenId */\n      dup5\n        /* \"contract/token/ERC721.sol\":7463:7479  _owners[tokenId] */\n      dup2\n      mstore\n      0x20\n      add\n      swap1\n      dup2\n      mstore\n      0x20\n      add\n      0x00\n      keccak256\n      0x00\n      swap1\n      sload\n      swap1\n      0x0100\n      exp\n      swap1\n      div\n      0xffffffffffffffffffffffffffffffffffffffff\n      and\n        /* \"contract/token/ERC721.sol\":7463:7493  _owners[tokenId] != address(0) */\n      0xffffffffffffffffffffffffffffffffffffffff\n      and\n      eq\n      iszero\n        /* \"contract/token/ERC721.sol\":7456:7493  return _owners[tokenId] != address(0) */\n      swap1\n      pop\n        /* \"contract/token/ERC721.sol\":7374:7501  function _exists(uint256 tokenId) internal view virtual returns (bool) {\r... */\n      swap2\n      swap1\n      pop\n      jump\t// out\n        /* \"utils/Context.sol\":601:699  function _msgSender() internal view virtual returns (address) {\r... */\n    tag_117:\n        /* \"utils/Context.sol\":654:661  address */\n      0x00\n        /* \"utils/Context.sol\":681:691  msg.sender */\n      caller\n        /* \"utils/Context.sol\":674:691  return msg.sender */\n      swap1\n      pop\n        /* \"utils/Context.sol\":601:699  function _msgSender() internal view virtual returns (address) {\r... */\n      swap1\n      jump\t// out\n        /* \"contract/token/ERC721.sol\":11518:11692  function _approve(address to, uint256 tokenId) internal virtual {\r... */\n    tag_125:\n        /* \"contract/token/ERC721.sol\":11620:11622  to */\n      dup2\n        /* \"contract/token/ERC721.sol\":11593:11608  _tokenApprovals */\n      0x04\n        /* \"contract/token/ERC721.sol\":11593:11617  _tokenApprovals[tokenId] */\n      0x00\n        /* \"contract/token/ERC721.sol\":11609:11616  tokenId */\n      dup4\n        /* \"contract/token/ERC721.sol\":11593:11617  _tokenApprovals[tokenId] */\n      dup2\n      mstore\n      0x20\n      add\n      swap1\n      dup2\n      mstore\n      0x20\n      add\n      0x00\n      keccak256\n      0x00\n        /* \"contract/token/ERC721.sol\":11593:11622  _tokenApprovals[tokenId] = to */\n      0x0100\n      exp\n      dup2\n      sload\n      dup2\n      0xffffffffffffffffffffffffffffffffffffffff\n      mul\n      not\n      and\n      swap1\n      dup4\n      0xffffffffffffffffffffffffffffffffffffffff\n      and\n      mul\n      or\n      swap1\n      sstore\n      pop\n        /* \"contract/token/ERC721.sol\":11676:11683  tokenId */\n      dup1\n        /* \"contract/token/ERC721.sol\":11672:11674  to */\n      dup3\n        /* \"contract/token/ERC721.sol\":11638:11684  Approval(ERC721.ownerOf(tokenId), to, tokenId) */\n      0xffffffffffffffffffffffffffffffffffffffff\n      and\n        /* \"contract/token/ERC721.sol\":11647:11670  ERC721.ownerOf(tokenId) */\n      tag_184\n        /* \"contract/token/ERC721.sol\":11662:11669  tokenId */\n      dup4\n        /* \"contract/token/ERC721.sol\":11647:11661  ERC721.ownerOf */\n      tag_58\n        /* \"contract/token/ERC721.sol\":11647:11670  ERC721.ownerOf(tokenId) */\n      jump\t// in\n    tag_184:\n        /* \"contract/token/ERC721.sol\":11638:11684  Approval(ERC721.ownerOf(tokenId), to, tokenId) */\n      0xffffffffffffffffffffffffffffffffffffffff\n      and\n      0x8c5be1e5ebec7d5bd14f71427d1e84f3dd0314c0f7b2291e5b200ac8c7c3b925\n      mload(0x40)\n      mload(0x40)\n      dup1\n      swap2\n      sub\n      swap1\n      log4\n        /* \"contract/token/ERC721.sol\":11518:11692  function _approve(address to, uint256 tokenId) internal virtual {\r... */\n      pop\n      pop\n      jump\t// out\n        /* \"contract/token/ERC721.sol\":7668:8016  function _isApprovedOrOwner(address spender, uint256 tokenId) internal view virtual returns (bool) {\r... */\n    tag_129:\n        /* \"contract/token/ERC721.sol\":7761:7765  bool */\n      0x00\n        /* \"contract/token/ERC721.sol\":7786:7802  _exists(tokenId) */\n      tag_186\n        /* \"contract/token/ERC721.sol\":7794:7801  tokenId */\n      dup3\n        /* \"contract/token/ERC721.sol\":7786:7793  _exists */\n      tag_107\n        /* \"contract/token/ERC721.sol\":7786:7802  _exists(tokenId) */\n      jump\t// in\n    tag_186:\n        /* \"contract/token/ERC721.sol\":7778:7851  require(_exists(tokenId), \"ERC721: operator query for nonexistent token\") */\n      tag_187\n      jumpi\n      mload(0x40)\n      0x08c379a000000000000000000000000000000000000000000000000000000000\n      dup2\n      mstore\n      0x04\n      add\n      tag_188\n      swap1\n      tag_189\n      jump\t// in\n    tag_188:\n      mload(0x40)\n      dup1\n      swap2\n      sub\n      swap1\n      revert\n    tag_187:\n        /* \"contract/token/ERC721.sol\":7862:7875  address owner */\n      0x00\n        /* \"contract/token/ERC721.sol\":7878:7901  ERC721.ownerOf(tokenId) */\n      tag_190\n        /* \"contract/token/ERC721.sol\":7893:7900  tokenId */\n      dup4\n        /* \"contract/token/ERC721.sol\":7878:7892  ERC721.ownerOf */\n      tag_58\n        /* \"contract/token/ERC721.sol\":7878:7901  ERC721.ownerOf(tokenId) */\n      jump\t// in\n    tag_190:\n        /* \"contract/token/ERC721.sol\":7862:7901  address owner = ERC721.ownerOf(tokenId) */\n      swap1\n      pop\n        /* \"contract/token/ERC721.sol\":7931:7936  owner */\n      dup1\n        /* \"contract/token/ERC721.sol\":7920:7936  spender == owner */\n      0xffffffffffffffffffffffffffffffffffffffff\n      and\n        /* \"contract/token/ERC721.sol\":7920:7927  spender */\n      dup5\n        /* \"contract/token/ERC721.sol\":7920:7936  spender == owner */\n      0xffffffffffffffffffffffffffffffffffffffff\n      and\n      eq\n        /* \"contract/token/ERC721.sol\":7920:7972  spender == owner || isApprovedForAll(owner, spender) */\n      dup1\n      tag_191\n      jumpi\n      pop\n        /* \"contract/token/ERC721.sol\":7940:7972  isApprovedForAll(owner, spender) */\n      tag_192\n        /* \"contract/token/ERC721.sol\":7957:7962  owner */\n      dup2\n        /* \"contract/token/ERC721.sol\":7964:7971  spender */\n      dup6\n        /* \"contract/token/ERC721.sol\":7940:7956  isApprovedForAll */\n      tag_91\n        /* \"contract/token/ERC721.sol\":7940:7972  isApprovedForAll(owner, spender) */\n      jump\t// in\n    tag_192:\n        /* \"contract/token/ERC721.sol\":7920:7972  spender == owner || isApprovedForAll(owner, spender) */\n    tag_191:\n        /* \"contract/token/ERC721.sol\":7920:8007  spender == owner || isApprovedForAll(owner, spender) || getApproved(tokenId) == spender */\n      dup1\n      tag_193\n      jumpi\n      pop\n        /* \"contract/token/ERC721.sol\":8000:8007  spender */\n      dup4\n        /* \"contract/token/ERC721.sol\":7976:8007  getApproved(tokenId) == spender */\n      0xffffffffffffffffffffffffffffffffffffffff\n      and\n        /* \"contract/token/ERC721.sol\":7976:7996  getApproved(tokenId) */\n      tag_194\n        /* \"contract/token/ERC721.sol\":7988:7995  tokenId */\n      dup5\n        /* \"contract/token/ERC721.sol\":7976:7987  getApproved */\n      tag_36\n        /* \"contract/token/ERC721.sol\":7976:7996  getApproved(tokenId) */\n      jump\t// in\n    tag_194:\n        /* \"contract/token/ERC721.sol\":7976:8007  getApproved(tokenId) == spender */\n      0xffffffffffffffffffffffffffffffffffffffff\n      and\n      eq\n        /* \"contract/token/ERC721.sol\":7920:8007  spender == owner || isApprovedForAll(owner, spender) || getApproved(tokenId) == spender */\n    tag_193:\n        /* \"contract/token/ERC721.sol\":7912:8008  return (spender == owner || isApprovedForAll(owner, spender) || getApproved(tokenId) == spender) */\n      swap2\n      pop\n      pop\n        /* \"contract/token/ERC721.sol\":7668:8016  function _isApprovedOrOwner(address spender, uint256 tokenId) internal view virtual returns (bool) {\r... */\n      swap3\n      swap2\n      pop\n      pop\n      jump\t// out\n        /* \"contract/token/ERC721.sol\":10775:11400  function _transfer(\r... */\n    tag_134:\n        /* \"contract/token/ERC721.sol\":10934:10938  from */\n      dup3\n        /* \"contract/token/ERC721.sol\":10907:10938  ERC721.ownerOf(tokenId) == from */\n      0xffffffffffffffffffffffffffffffffffffffff\n      and\n        /* \"contract/token/ERC721.sol\":10907:10930  ERC721.ownerOf(tokenId) */\n      tag_196\n        /* \"contract/token/ERC721.sol\":10922:10929  tokenId */\n      dup3\n        /* \"contract/token/ERC721.sol\":10907:10921  ERC721.ownerOf */\n      tag_58\n        /* \"contract/token/ERC721.sol\":10907:10930  ERC721.ownerOf(tokenId) */\n      jump\t// in\n    tag_196:\n        /* \"contract/token/ERC721.sol\":10907:10938  ERC721.ownerOf(tokenId) == from */\n      0xffffffffffffffffffffffffffffffffffffffff\n      and\n      eq\n        /* \"contract/token/ERC721.sol\":10899:10980  require(ERC721.ownerOf(tokenId) == from, \"ERC721: transfer from incorrect owner\") */\n      tag_197\n      jumpi\n      mload(0x40)\n      0x08c379a000000000000000000000000000000000000000000000000000000000\n      dup2\n      mstore\n      0x04\n      add\n      tag_198\n      swap1\n      tag_199\n      jump\t// in\n    tag_198:\n      mload(0x40)\n      dup1\n      swap2\n      sub\n      swap1\n      revert\n    tag_197:\n        /* \"contract/token/ERC721.sol\":11013:11014  0 */\n      0x00\n        /* \"contract/token/ERC721.sol\":10999:11015  to != address(0) */\n      0xffffffffffffffffffffffffffffffffffffffff\n      and\n        /* \"contract/token/ERC721.sol\":10999:11001  to */\n      dup3\n        /* \"contract/token/ERC721.sol\":10999:11015  to != address(0) */\n      0xffffffffffffffffffffffffffffffffffffffff\n      and\n      eq\n      iszero\n        /* \"contract/token/ERC721.sol\":10991:11056  require(to != address(0), \"ERC721: transfer to the zero address\") */\n      tag_200\n      jumpi\n      mload(0x40)\n      0x08c379a000000000000000000000000000000000000000000000000000000000\n      dup2\n      mstore\n      0x04\n      add\n      tag_201\n      swap1\n      tag_202\n      jump\t// in\n    tag_201:\n      mload(0x40)\n      dup1\n      swap2\n      sub\n      swap1\n      revert\n    tag_200:\n        /* \"contract/token/ERC721.sol\":11069:11108  _beforeTokenTransfer(from, to, tokenId) */\n      tag_203\n        /* \"contract/token/ERC721.sol\":11090:11094  from */\n      dup4\n        /* \"contract/token/ERC721.sol\":11096:11098  to */\n      dup4\n        /* \"contract/token/ERC721.sol\":11100:11107  tokenId */\n      dup4\n        /* \"contract/token/ERC721.sol\":11069:11089  _beforeTokenTransfer */\n      tag_204\n        /* \"contract/token/ERC721.sol\":11069:11108  _beforeTokenTransfer(from, to, tokenId) */\n      jump\t// in\n    tag_203:\n        /* \"contract/token/ERC721.sol\":11173:11202  _approve(address(0), tokenId) */\n      tag_205\n        /* \"contract/token/ERC721.sol\":11190:11191  0 */\n      0x00\n        /* \"contract/token/ERC721.sol\":11194:11201  tokenId */\n      dup3\n        /* \"contract/token/ERC721.sol\":11173:11181  _approve */\n      tag_125\n        /* \"contract/token/ERC721.sol\":11173:11202  _approve(address(0), tokenId) */\n      jump\t// in\n    tag_205:\n        /* \"contract/token/ERC721.sol\":11234:11235  1 */\n      0x01\n        /* \"contract/token/ERC721.sol\":11215:11224  _balances */\n      0x03\n        /* \"contract/token/ERC721.sol\":11215:11230  _balances[from] */\n      0x00\n        /* \"contract/token/ERC721.sol\":11225:11229  from */\n      dup6\n        /* \"contract/token/ERC721.sol\":11215:11230  _balances[from] */\n      0xffffffffffffffffffffffffffffffffffffffff\n      and\n      0xffffffffffffffffffffffffffffffffffffffff\n      and\n      dup2\n      mstore\n      0x20\n      add\n      swap1\n      dup2\n      mstore\n      0x20\n      add\n      0x00\n      keccak256\n      0x00\n        /* \"contract/token/ERC721.sol\":11215:11235  _balances[from] -= 1 */\n      dup3\n      dup3\n      sload\n      tag_206\n      swap2\n      swap1\n      tag_207\n      jump\t// in\n    tag_206:\n      swap3\n      pop\n      pop\n      dup2\n      swap1\n      sstore\n      pop\n        /* \"contract/token/ERC721.sol\":11263:11264  1 */\n      0x01\n        /* \"contract/token/ERC721.sol\":11246:11255  _balances */\n      0x03\n        /* \"contract/token/ERC721.sol\":11246:11259  _balances[to] */\n      0x00\n        /* \"contract/token/ERC721.sol\":11256:11258  to */\n      dup5\n        /* \"contract/token/ERC721.sol\":11246:11259  _balances[to] */\n      0xffffffffffffffffffffffffffffffffffffffff\n      and\n      0xffffffffffffffffffffffffffffffffffffffff\n      and\n      dup2\n      mstore\n      0x20\n      add\n      swap1\n      dup2\n      mstore\n      0x20\n      add\n      0x00\n      keccak256\n      0x00\n        /* \"contract/token/ERC721.sol\":11246:11264  _balances[to] += 1 */\n      dup3\n      dup3\n      sload\n      tag_208\n      swap2\n      swap1\n      tag_209\n      jump\t// in\n    tag_208:\n      swap3\n      pop\n      pop\n      dup2\n      swap1\n      sstore\n      pop\n        /* \"contract/token/ERC721.sol\":11294:11296  to */\n      dup2\n        /* \"contract/token/ERC721.sol\":11275:11282  _owners */\n      0x02\n        /* \"contract/token/ERC721.sol\":11275:11291  _owners[tokenId] */\n      0x00\n        /* \"contract/token/ERC721.sol\":11283:11290  tokenId */\n      dup4\n        /* \"contract/token/ERC721.sol\":11275:11291  _owners[tokenId] */\n      dup2\n      mstore\n      0x20\n      add\n      swap1\n      dup2\n      mstore\n      0x20\n      add\n      0x00\n      keccak256\n      0x00\n        /* \"contract/token/ERC721.sol\":11275:11296  _owners[tokenId] = to */\n      0x0100\n      exp\n      dup2\n      sload\n      dup2\n      0xffffffffffffffffffffffffffffffffffffffff\n      mul\n      not\n      and\n      swap1\n      dup4\n      0xffffffffffffffffffffffffffffffffffffffff\n      and\n      mul\n      or\n      swap1\n      sstore\n      pop\n        /* \"contract/token/ERC721.sol\":11333:11340  tokenId */\n      dup1\n        /* \"contract/token/ERC721.sol\":11329:11331  to */\n      dup3\n        /* \"contract/token/ERC721.sol\":11314:11341  Transfer(from, to, tokenId) */\n      0xffffffffffffffffffffffffffffffffffffffff\n      and\n        /* \"contract/token/ERC721.sol\":11323:11327  from */\n      dup5\n        /* \"contract/token/ERC721.sol\":11314:11341  Transfer(from, to, tokenId) */\n      0xffffffffffffffffffffffffffffffffffffffff\n      and\n      0xddf252ad1be2c89b69c2b068fc378daa952ba7f163c4a11628f55a4df523b3ef\n      mload(0x40)\n      mload(0x40)\n      dup1\n      swap2\n      sub\n      swap1\n      log4\n        /* \"contract/token/ERC721.sol\":11354:11392  _afterTokenTransfer(from, to, tokenId) */\n      tag_210\n        /* \"contract/token/ERC721.sol\":11374:11378  from */\n      dup4\n        /* \"contract/token/ERC721.sol\":11380:11382  to */\n      dup4\n        /* \"contract/token/ERC721.sol\":11384:11391  tokenId */\n      dup4\n        /* \"contract/token/ERC721.sol\":11354:11373  _afterTokenTransfer */\n      tag_211\n        /* \"contract/token/ERC721.sol\":11354:11392  _afterTokenTransfer(from, to, tokenId) */\n      jump\t// in\n    tag_210:\n        /* \"contract/token/ERC721.sol\":10775:11400  function _transfer(\r... */\n      pop\n      pop\n      pop\n      jump\t// out\n        /* \"contract/token/ERC721.sol\":11834:12149  function _setApprovalForAll(\r... */\n    tag_157:\n        /* \"contract/token/ERC721.sol\":11989:11997  operator */\n      dup2\n        /* \"contract/token/ERC721.sol\":11980:11997  owner != operator */\n      0xffffffffffffffffffffffffffffffffffffffff\n      and\n        /* \"contract/token/ERC721.sol\":11980:11985  owner */\n      dup4\n        /* \"contract/token/ERC721.sol\":11980:11997  owner != operator */\n      0xffffffffffffffffffffffffffffffffffffffff\n      and\n      eq\n      iszero\n        /* \"contract/token/ERC721.sol\":11972:12027  require(owner != operator, \"ERC721: approve to caller\") */\n      tag_213\n      jumpi\n      mload(0x40)\n      0x08c379a000000000000000000000000000000000000000000000000000000000\n      dup2\n      mstore\n      0x04\n      add\n      tag_214\n      swap1\n      tag_215\n      jump\t// in\n    tag_214:\n      mload(0x40)\n      dup1\n      swap2\n      sub\n      swap1\n      revert\n    tag_213:\n        /* \"contract/token/ERC721.sol\":12076:12084  approved */\n      dup1\n        /* \"contract/token/ERC721.sol\":12038:12056  _operatorApprovals */\n      0x05\n        /* \"contract/token/ERC721.sol\":12038:12063  _operatorApprovals[owner] */\n      0x00\n        /* \"contract/token/ERC721.sol\":12057:12062  owner */\n      dup6\n        /* \"contract/token/ERC721.sol\":12038:12063  _operatorApprovals[owner] */\n      0xffffffffffffffffffffffffffffffffffffffff\n      and\n      0xffffffffffffffffffffffffffffffffffffffff\n      and\n      dup2\n      mstore\n      0x20\n      add\n      swap1\n      dup2\n      mstore\n      0x20\n      add\n      0x00\n      keccak256\n        /* \"contract/token/ERC721.sol\":12038:12073  _operatorApprovals[owner][operator] */\n      0x00\n        /* \"contract/token/ERC721.sol\":12064:12072  operator */\n      dup5\n        /* \"contract/token/ERC721.sol\":12038:12073  _operatorApprovals[owner][operator] */\n      0xffffffffffffffffffffffffffffffffffffffff\n      and\n      0xffffffffffffffffffffffffffffffffffffffff\n      and\n      dup2\n      mstore\n      0x20\n      add\n      swap1\n      dup2\n      mstore\n      0x20\n      add\n      0x00\n      keccak256\n      0x00\n        /* \"contract/token/ERC721.sol\":12038:12084  _operatorApprovals[owner][operator] = approved */\n      0x0100\n      exp\n      dup2\n      sload\n      dup2\n      0xff\n      mul\n      not\n      and\n      swap1\n      dup4\n      iszero\n      iszero\n      mul\n      or\n      swap1\n      sstore\n      pop\n        /* \"contract/token/ERC721.sol\":12122:12130  operator */\n      dup2\n        /* \"contract/token/ERC721.sol\":12100:12141  ApprovalForAll(owner, operator, approved) */\n      0xffffffffffffffffffffffffffffffffffffffff\n      and\n        /* \"contract/token/ERC721.sol\":12115:12120  owner */\n      dup4\n        /* \"contract/token/ERC721.sol\":12100:12141  ApprovalForAll(owner, operator, approved) */\n      0xffffffffffffffffffffffffffffffffffffffff\n      and\n      0x17307eab39ab6107e8899845ad3d59bd9653f200f220920489ca2b5937696c31\n        /* \"contract/token/ERC721.sol\":12132:12140  approved */\n      dup4\n        /* \"contract/token/ERC721.sol\":12100:12141  ApprovalForAll(owner, operator, approved) */\n      mload(0x40)\n      tag_216\n      swap2\n      swap1\n      tag_28\n      jump\t// in\n    tag_216:\n      mload(0x40)\n      dup1\n      swap2\n      sub\n      swap1\n      log3\n        /* \"contract/token/ERC721.sol\":11834:12149  function _setApprovalForAll(\r... */\n      pop\n      pop\n      pop\n      jump\t// out\n        /* \"contract/token/ERC721.sol\":6748:7061  function _safeTransfer(\r... */\n    tag_164:\n        /* \"contract/token/ERC721.sol\":6904:6932  _transfer(from, to, tokenId) */\n      tag_218\n        /* \"contract/token/ERC721.sol\":6914:6918  from */\n      dup5\n        /* \"contract/token/ERC721.sol\":6920:6922  to */\n      dup5\n        /* \"contract/token/ERC721.sol\":6924:6931  tokenId */\n      dup5\n        /* \"contract/token/ERC721.sol\":6904:6913  _transfer */\n      tag_134\n        /* \"contract/token/ERC721.sol\":6904:6932  _transfer(from, to, tokenId) */\n      jump\t// in\n    tag_218:\n        /* \"contract/token/ERC721.sol\":6951:6998  _checkOnERC721Received(from, to, tokenId, data) */\n      tag_219\n        /* \"contract/token/ERC721.sol\":6974:6978  from */\n      dup5\n        /* \"contract/token/ERC721.sol\":6980:6982  to */\n      dup5\n        /* \"contract/token/ERC721.sol\":6984:6991  tokenId */\n      dup5\n        /* \"contract/token/ERC721.sol\":6993:6997  data */\n      dup5\n        /* \"contract/token/ERC721.sol\":6951:6973  _checkOnERC721Received */\n      tag_220\n        /* \"contract/token/ERC721.sol\":6951:6998  _checkOnERC721Received(from, to, tokenId, data) */\n      jump\t// in\n    tag_219:\n        /* \"contract/token/ERC721.sol\":6943:7053  require(_checkOnERC721Received(from, to, tokenId, data), \"ERC721: transfer to non ERC721Receiver implementer\") */\n      tag_221\n      jumpi\n      mload(0x40)\n      0x08c379a000000000000000000000000000000000000000000000000000000000\n      dup2\n      mstore\n      0x04\n      add\n      tag_222\n      swap1\n      tag_223\n      jump\t// in\n    tag_222:\n      mload(0x40)\n      dup1\n      swap2\n      sub\n      swap1\n      revert\n    tag_221:\n        /* \"contract/token/ERC721.sol\":6748:7061  function _safeTransfer(\r... */\n      pop\n      pop\n      pop\n      pop\n      jump\t// out\n        /* \"contract/token/ERC721.sol\":3492:3586  function _baseURI() internal view virtual returns (string memory) {\r... */\n    tag_172:\n        /* \"contract/token/ERC721.sol\":3543:3556  string memory */\n      0x60\n        /* \"contract/token/ERC721.sol\":3569:3578  return \"\" */\n      mload(0x40)\n      dup1\n      0x20\n      add\n      0x40\n      mstore\n      dup1\n      0x00\n      dup2\n      mstore\n      pop\n      swap1\n      pop\n        /* \"contract/token/ERC721.sol\":3492:3586  function _baseURI() internal view virtual returns (string memory) {\r... */\n      swap1\n      jump\t// out\n        /* \"utils/Strings.sol\":342:1065  function toString(uint256 value) internal pure returns (string memory) {\r... */\n    tag_176:\n        /* \"utils/Strings.sol\":398:411  string memory */\n      0x60\n        /* \"utils/Strings.sol\":628:629  0 */\n      0x00\n        /* \"utils/Strings.sol\":619:624  value */\n      dup3\n        /* \"utils/Strings.sol\":619:629  value == 0 */\n      eq\n        /* \"utils/Strings.sol\":615:668  if (value == 0) {\r... */\n      iszero\n      tag_226\n      jumpi\n        /* \"utils/Strings.sol\":646:656  return \"0\" */\n      mload(0x40)\n      dup1\n      0x40\n      add\n      0x40\n      mstore\n      dup1\n      0x01\n      dup2\n      mstore\n      0x20\n      add\n      0x3000000000000000000000000000000000000000000000000000000000000000\n      dup2\n      mstore\n      pop\n      swap1\n      pop\n      jump(tag_225)\n        /* \"utils/Strings.sol\":615:668  if (value == 0) {\r... */\n    tag_226:\n        /* \"utils/Strings.sol\":678:690  uint256 temp */\n      0x00\n        /* \"utils/Strings.sol\":693:698  value */\n      dup3\n        /* \"utils/Strings.sol\":678:698  uint256 temp = value */\n      swap1\n      pop\n        /* \"utils/Strings.sol\":709:723  uint256 digits */\n      0x00\n        /* \"utils/Strings.sol\":734:812  while (temp != 0) {\r... */\n    tag_227:\n        /* \"utils/Strings.sol\":749:750  0 */\n      0x00\n        /* \"utils/Strings.sol\":741:745  temp */\n      dup3\n        /* \"utils/Strings.sol\":741:750  temp != 0 */\n      eq\n        /* \"utils/Strings.sol\":734:812  while (temp != 0) {\r... */\n      tag_228\n      jumpi\n        /* \"utils/Strings.sol\":767:775  digits++ */\n      dup1\n      dup1\n      tag_229\n      swap1\n      tag_230\n      jump\t// in\n    tag_229:\n      swap2\n      pop\n      pop\n        /* \"utils/Strings.sol\":798:800  10 */\n      0x0a\n        /* \"utils/Strings.sol\":790:800  temp /= 10 */\n      dup3\n      tag_231\n      swap2\n      swap1\n      tag_232\n      jump\t// in\n    tag_231:\n      swap2\n      pop\n        /* \"utils/Strings.sol\":734:812  while (temp != 0) {\r... */\n      jump(tag_227)\n    tag_228:\n        /* \"utils/Strings.sol\":822:841  bytes memory buffer */\n      0x00\n        /* \"utils/Strings.sol\":854:860  digits */\n      dup2\n        /* \"utils/Strings.sol\":844:861  new bytes(digits) */\n      0xffffffffffffffff\n      dup2\n      gt\n      iszero\n      tag_233\n      jumpi\n      tag_234\n      tag_235\n      jump\t// in\n    tag_234:\n    tag_233:\n      mload(0x40)\n      swap1\n      dup1\n      dup3\n      mstore\n      dup1\n      0x1f\n      add\n      not(0x1f)\n      and\n      0x20\n      add\n      dup3\n      add\n      0x40\n      mstore\n      dup1\n      iszero\n      tag_236\n      jumpi\n      dup2\n      0x20\n      add\n      0x01\n      dup3\n      mul\n      dup1\n      calldatasize\n      dup4\n      calldatacopy\n      dup1\n      dup3\n      add\n      swap2\n      pop\n      pop\n      swap1\n      pop\n    tag_236:\n      pop\n        /* \"utils/Strings.sol\":822:861  bytes memory buffer = new bytes(digits) */\n      swap1\n      pop\n        /* \"utils/Strings.sol\":872:1026  while (value != 0) {\r... */\n    tag_237:\n        /* \"utils/Strings.sol\":888:889  0 */\n      0x00\n        /* \"utils/Strings.sol\":879:884  value */\n      dup6\n        /* \"utils/Strings.sol\":879:889  value != 0 */\n      eq\n        /* \"utils/Strings.sol\":872:1026  while (value != 0) {\r... */\n      tag_238\n      jumpi\n        /* \"utils/Strings.sol\":916:917  1 */\n      0x01\n        /* \"utils/Strings.sol\":906:917  digits -= 1 */\n      dup3\n      tag_239\n      swap2\n      swap1\n      tag_207\n      jump\t// in\n    tag_239:\n      swap2\n      pop\n        /* \"utils/Strings.sol\":983:985  10 */\n      0x0a\n        /* \"utils/Strings.sol\":975:980  value */\n      dup6\n        /* \"utils/Strings.sol\":975:985  value % 10 */\n      tag_240\n      swap2\n      swap1\n      tag_241\n      jump\t// in\n    tag_240:\n        /* \"utils/Strings.sol\":962:964  48 */\n      0x30\n        /* \"utils/Strings.sol\":962:986  48 + uint256(value % 10) */\n      tag_242\n      swap2\n      swap1\n      tag_209\n      jump\t// in\n    tag_242:\n        /* \"utils/Strings.sol\":949:988  bytes1(uint8(48 + uint256(value % 10))) */\n      0xf8\n      shl\n        /* \"utils/Strings.sol\":932:938  buffer */\n      dup2\n        /* \"utils/Strings.sol\":939:945  digits */\n      dup4\n        /* \"utils/Strings.sol\":932:946  buffer[digits] */\n      dup2\n      mload\n      dup2\n      lt\n      tag_243\n      jumpi\n      tag_244\n      tag_245\n      jump\t// in\n    tag_244:\n    tag_243:\n      0x20\n      add\n      add\n        /* \"utils/Strings.sol\":932:988  buffer[digits] = bytes1(uint8(48 + uint256(value % 10))) */\n      swap1\n      not(0xffffffffffffffffffffffffffffffffffffffffffffffffffffffffffffff)\n      and\n      swap1\n      dup2\n      0x00\n      byte\n      swap1\n      mstore8\n      pop\n        /* \"utils/Strings.sol\":1012:1014  10 */\n      0x0a\n        /* \"utils/Strings.sol\":1003:1014  value /= 10 */\n      dup6\n      tag_246\n      swap2\n      swap1\n      tag_232\n      jump\t// in\n    tag_246:\n      swap5\n      pop\n        /* \"utils/Strings.sol\":872:1026  while (value != 0) {\r... */\n      jump(tag_237)\n    tag_238:\n        /* \"utils/Strings.sol\":1050:1056  buffer */\n      dup1\n        /* \"utils/Strings.sol\":1036:1057  return string(buffer) */\n      swap4\n      pop\n      pop\n      pop\n      pop\n        /* \"utils/Strings.sol\":342:1065  function toString(uint256 value) internal pure returns (string memory) {\r... */\n    tag_225:\n      swap2\n      swap1\n      pop\n      jump\t// out\n        /* \"contract/token/ERC721.sol\":14082:14208  function _beforeTokenTransfer(\r... */\n    tag_204:\n      pop\n      pop\n      pop\n      jump\t// out\n        /* \"contract/token/ERC721.sol\":14593:14718  function _afterTokenTransfer(\r... */\n    tag_211:\n      pop\n      pop\n      pop\n      jump\t// out\n        /* \"contract/token/ERC721.sol\":12713:13510  function _checkOnERC721Received(\r... */\n    tag_220:\n        /* \"contract/token/ERC721.sol\":12867:12871  bool */\n      0x00\n        /* \"contract/token/ERC721.sol\":12888:12903  to.isContract() */\n      tag_250\n        /* \"contract/token/ERC721.sol\":12888:12890  to */\n      dup5\n        /* \"contract/token/ERC721.sol\":12888:12901  to.isContract */\n      0xffffffffffffffffffffffffffffffffffffffff\n      and\n      tag_251\n        /* \"contract/token/ERC721.sol\":12888:12903  to.isContract() */\n      jump\t// in\n    tag_250:\n        /* \"contract/token/ERC721.sol\":12884:13503  if (to.isContract()) {\r... */\n      iszero\n      tag_252\n      jumpi\n        /* \"contract/token/ERC721.sol\":12940:12942  to */\n      dup4\n        /* \"contract/token/ERC721.sol\":12924:12960  IERC721Receiver(to).onERC721Received */\n      0xffffffffffffffffffffffffffffffffffffffff\n      and\n      0x150b7a02\n        /* \"contract/token/ERC721.sol\":12961:12973  _msgSender() */\n      tag_253\n        /* \"contract/token/ERC721.sol\":12961:12971  _msgSender */\n      tag_117\n        /* \"contract/token/ERC721.sol\":12961:12973  _msgSender() */\n      jump\t// in\n    tag_253:\n        /* \"contract/token/ERC721.sol\":12975:12979  from */\n      dup8\n        /* \"contract/token/ERC721.sol\":12981:12988  tokenId */\n      dup7\n        /* \"contract/token/ERC721.sol\":12990:12994  data */\n      dup7\n        /* \"contract/token/ERC721.sol\":12924:12995  IERC721Receiver(to).onERC721Received(_msgSender(), from, tokenId, data) */\n      mload(0x40)\n      dup6\n      0xffffffff\n      and\n      0xe0\n      shl\n      dup2\n      mstore\n      0x04\n      add\n      tag_254\n      swap5\n      swap4\n      swap3\n      swap2\n      swap1\n      tag_255\n      jump\t// in\n    tag_254:\n      0x20\n      mload(0x40)\n      dup1\n      dup4\n      sub\n      dup2\n      0x00\n      dup8\n      dup1\n      extcodesize\n      iszero\n      dup1\n      iszero\n      tag_256\n      jumpi\n      0x00\n      dup1\n      revert\n    tag_256:\n      pop\n      gas\n      call\n      swap3\n      pop\n      pop\n      pop\n      dup1\n      iszero\n      tag_257\n      jumpi\n      pop\n      mload(0x40)\n      returndatasize\n      not(0x1f)\n      0x1f\n      dup3\n      add\n      and\n      dup3\n      add\n      dup1\n      0x40\n      mstore\n      pop\n      dup2\n      add\n      swap1\n      tag_258\n      swap2\n      swap1\n      tag_259\n      jump\t// in\n    tag_258:\n      0x01\n    tag_257:\n        /* \"contract/token/ERC721.sol\":12920:13448  try IERC721Receiver(to).onERC721Received(_msgSender(), from, tokenId, data) returns (bytes4 retval) {\r... */\n      tag_260\n      jumpi\n      returndatasize\n      dup1\n      0x00\n      dup2\n      eq\n      tag_265\n      jumpi\n      mload(0x40)\n      swap2\n      pop\n      and(add(returndatasize, 0x3f), not(0x1f))\n      dup3\n      add\n      0x40\n      mstore\n      returndatasize\n      dup3\n      mstore\n      returndatasize\n      0x00\n      0x20\n      dup5\n      add\n      returndatacopy\n      jump(tag_264)\n    tag_265:\n      0x60\n      swap2\n      pop\n    tag_264:\n      pop\n        /* \"contract/token/ERC721.sol\":13182:13183  0 */\n      0x00\n        /* \"contract/token/ERC721.sol\":13165:13171  reason */\n      dup2\n        /* \"contract/token/ERC721.sol\":13165:13178  reason.length */\n      mload\n        /* \"contract/token/ERC721.sol\":13165:13183  reason.length == 0 */\n      eq\n        /* \"contract/token/ERC721.sol\":13161:13433  if (reason.length == 0) {\r... */\n      iszero\n      tag_266\n      jumpi\n        /* \"contract/token/ERC721.sol\":13208:13268  revert(\"ERC721: transfer to non ERC721Receiver implementer\") */\n      mload(0x40)\n      0x08c379a000000000000000000000000000000000000000000000000000000000\n      dup2\n      mstore\n      0x04\n      add\n      tag_267\n      swap1\n      tag_223\n      jump\t// in\n    tag_267:\n      mload(0x40)\n      dup1\n      swap2\n      sub\n      swap1\n      revert\n        /* \"contract/token/ERC721.sol\":13161:13433  if (reason.length == 0) {\r... */\n    tag_266:\n        /* \"contract/token/ERC721.sol\":13383:13389  reason */\n      dup1\n        /* \"contract/token/ERC721.sol\":13377:13390  mload(reason) */\n      mload\n        /* \"contract/token/ERC721.sol\":13368:13374  reason */\n      dup2\n        /* \"contract/token/ERC721.sol\":13364:13366  32 */\n      0x20\n        /* \"contract/token/ERC721.sol\":13360:13375  add(32, reason) */\n      add\n        /* \"contract/token/ERC721.sol\":13353:13391  revert(add(32, reason), mload(reason)) */\n      revert\n        /* \"contract/token/ERC721.sol\":12920:13448  try IERC721Receiver(to).onERC721Received(_msgSender(), from, tokenId, data) returns (bytes4 retval) {\r... */\n    tag_260:\n        /* \"contract/token/ERC721.sol\":13056:13097  IERC721Receiver.onERC721Received.selector */\n      shl(0xe0, 0x150b7a02)\n        /* \"contract/token/ERC721.sol\":13046:13097  retval == IERC721Receiver.onERC721Received.selector */\n      not(0xffffffffffffffffffffffffffffffffffffffffffffffffffffffff)\n      and\n        /* \"contract/token/ERC721.sol\":13046:13052  retval */\n      dup2\n        /* \"contract/token/ERC721.sol\":13046:13097  retval == IERC721Receiver.onERC721Received.selector */\n      not(0xffffffffffffffffffffffffffffffffffffffffffffffffffffffff)\n      and\n      eq\n        /* \"contract/token/ERC721.sol\":13039:13097  return retval == IERC721Receiver.onERC721Received.selector */\n      swap2\n      pop\n      pop\n      jump(tag_249)\n        /* \"contract/token/ERC721.sol\":12884:13503  if (to.isContract()) {\r... */\n    tag_252:\n        /* \"contract/token/ERC721.sol\":13487:13491  true */\n      0x01\n        /* \"contract/token/ERC721.sol\":13480:13491  return true */\n      swap1\n      pop\n        /* \"contract/token/ERC721.sol\":12713:13510  function _checkOnERC721Received(\r... */\n    tag_249:\n      swap5\n      swap4\n      pop\n      pop\n      pop\n      pop\n      jump\t// out\n        /* \"utils/Address.sol\":1210:1536  function isContract(address account) internal view returns (bool) {\r... */\n    tag_251:\n        /* \"utils/Address.sol\":1270:1274  bool */\n      0x00\n        /* \"utils/Address.sol\":1527:1528  0 */\n      dup1\n        /* \"utils/Address.sol\":1505:1512  account */\n      dup3\n        /* \"utils/Address.sol\":1505:1524  account.code.length */\n      0xffffffffffffffffffffffffffffffffffffffff\n      and\n      extcodesize\n        /* \"utils/Address.sol\":1505:1528  account.code.length > 0 */\n      gt\n        /* \"utils/Address.sol\":1498:1528  return account.code.length > 0 */\n      swap1\n      pop\n        /* \"utils/Address.sol\":1210:1536  function isContract(address account) internal view returns (bool) {\r... */\n      swap2\n      swap1\n      pop\n      jump\t// out\n        /* \"#utility.yul\":7:417   */\n    tag_273:\n        /* \"#utility.yul\":84:89   */\n      0x00\n        /* \"#utility.yul\":109:174   */\n      tag_275\n        /* \"#utility.yul\":125:173   */\n      tag_276\n        /* \"#utility.yul\":166:172   */\n      dup5\n        /* \"#utility.yul\":125:173   */\n      tag_277\n      jump\t// in\n    tag_276:\n        /* \"#utility.yul\":109:174   */\n      tag_278\n      jump\t// in\n    tag_275:\n        /* \"#utility.yul\":100:174   */\n      swap1\n      pop\n        /* \"#utility.yul\":197:203   */\n      dup3\n        /* \"#utility.yul\":190:195   */\n      dup2\n        /* \"#utility.yul\":183:204   */\n      mstore\n        /* \"#utility.yul\":235:239   */\n      0x20\n        /* \"#utility.yul\":228:233   */\n      dup2\n        /* \"#utility.yul\":224:240   */\n      add\n        /* \"#utility.yul\":273:276   */\n      dup5\n        /* \"#utility.yul\":264:270   */\n      dup5\n        /* \"#utility.yul\":259:262   */\n      dup5\n        /* \"#utility.yul\":255:271   */\n      add\n        /* \"#utility.yul\":252:277   */\n      gt\n        /* \"#utility.yul\":249:361   */\n      iszero\n      tag_279\n      jumpi\n        /* \"#utility.yul\":280:359   */\n      tag_280\n      tag_281\n      jump\t// in\n    tag_280:\n        /* \"#utility.yul\":249:361   */\n    tag_279:\n        /* \"#utility.yul\":370:411   */\n      tag_282\n        /* \"#utility.yul\":404:410   */\n      dup5\n        /* \"#utility.yul\":399:402   */\n      dup3\n        /* \"#utility.yul\":394:397   */\n      dup6\n        /* \"#utility.yul\":370:411   */\n      tag_283\n      jump\t// in\n    tag_282:\n        /* \"#utility.yul\":90:417   */\n      pop\n        /* \"#utility.yul\":7:417   */\n      swap4\n      swap3\n      pop\n      pop\n      pop\n      jump\t// out\n        /* \"#utility.yul\":423:835   */\n    tag_284:\n        /* \"#utility.yul\":501:506   */\n      0x00\n        /* \"#utility.yul\":526:592   */\n      tag_286\n        /* \"#utility.yul\":542:591   */\n      tag_287\n        /* \"#utility.yul\":584:590   */\n      dup5\n        /* \"#utility.yul\":542:591   */\n      tag_288\n      jump\t// in\n    tag_287:\n        /* \"#utility.yul\":526:592   */\n      tag_278\n      jump\t// in\n    tag_286:\n        /* \"#utility.yul\":517:592   */\n      swap1\n      pop\n        /* \"#utility.yul\":615:621   */\n      dup3\n        /* \"#utility.yul\":608:613   */\n      dup2\n        /* \"#utility.yul\":601:622   */\n      mstore\n        /* \"#utility.yul\":653:657   */\n      0x20\n        /* \"#utility.yul\":646:651   */\n      dup2\n        /* \"#utility.yul\":642:658   */\n      add\n        /* \"#utility.yul\":691:694   */\n      dup5\n        /* \"#utility.yul\":682:688   */\n      dup5\n        /* \"#utility.yul\":677:680   */\n      dup5\n        /* \"#utility.yul\":673:689   */\n      add\n        /* \"#utility.yul\":670:695   */\n      gt\n        /* \"#utility.yul\":667:779   */\n      iszero\n      tag_289\n      jumpi\n        /* \"#utility.yul\":698:777   */\n      tag_290\n      tag_281\n      jump\t// in\n    tag_290:\n        /* \"#utility.yul\":667:779   */\n    tag_289:\n        /* \"#utility.yul\":788:829   */\n      tag_291\n        /* \"#utility.yul\":822:828   */\n      dup5\n        /* \"#utility.yul\":817:820   */\n      dup3\n        /* \"#utility.yul\":812:815   */\n      dup6\n        /* \"#utility.yul\":788:829   */\n      tag_283\n      jump\t// in\n    tag_291:\n        /* \"#utility.yul\":507:835   */\n      pop\n        /* \"#utility.yul\":423:835   */\n      swap4\n      swap3\n      pop\n      pop\n      pop\n      jump\t// out\n        /* \"#utility.yul\":841:980   */\n    tag_292:\n        /* \"#utility.yul\":887:892   */\n      0x00\n        /* \"#utility.yul\":925:931   */\n      dup2\n        /* \"#utility.yul\":912:932   */\n      calldataload\n        /* \"#utility.yul\":903:932   */\n      swap1\n      pop\n        /* \"#utility.yul\":941:974   */\n      tag_294\n        /* \"#utility.yul\":968:973   */\n      dup2\n        /* \"#utility.yul\":941:974   */\n      tag_295\n      jump\t// in\n    tag_294:\n        /* \"#utility.yul\":841:980   */\n      swap3\n      swap2\n      pop\n      pop\n      jump\t// out\n        /* \"#utility.yul\":986:1119   */\n    tag_296:\n        /* \"#utility.yul\":1029:1034   */\n      0x00\n        /* \"#utility.yul\":1067:1073   */\n      dup2\n        /* \"#utility.yul\":1054:1074   */\n      calldataload\n        /* \"#utility.yul\":1045:1074   */\n      swap1\n      pop\n        /* \"#utility.yul\":1083:1113   */\n      tag_298\n        /* \"#utility.yul\":1107:1112   */\n      dup2\n        /* \"#utility.yul\":1083:1113   */\n      tag_299\n      jump\t// in\n    tag_298:\n        /* \"#utility.yul\":986:1119   */\n      swap3\n      swap2\n      pop\n      pop\n      jump\t// out\n        /* \"#utility.yul\":1125:1262   */\n    tag_300:\n        /* \"#utility.yul\":1170:1175   */\n      0x00\n        /* \"#utility.yul\":1208:1214   */\n      dup2\n        /* \"#utility.yul\":1195:1215   */\n      calldataload\n        /* \"#utility.yul\":1186:1215   */\n      swap1\n      pop\n        /* \"#utility.yul\":1224:1256   */\n      tag_302\n        /* \"#utility.yul\":1250:1255   */\n      dup2\n        /* \"#utility.yul\":1224:1256   */\n      tag_303\n      jump\t// in\n    tag_302:\n        /* \"#utility.yul\":1125:1262   */\n      swap3\n      swap2\n      pop\n      pop\n      jump\t// out\n        /* \"#utility.yul\":1268:1409   */\n    tag_304:\n        /* \"#utility.yul\":1324:1329   */\n      0x00\n        /* \"#utility.yul\":1355:1361   */\n      dup2\n        /* \"#utility.yul\":1349:1362   */\n      mload\n        /* \"#utility.yul\":1340:1362   */\n      swap1\n      pop\n        /* \"#utility.yul\":1371:1403   */\n      tag_306\n        /* \"#utility.yul\":1397:1402   */\n      dup2\n        /* \"#utility.yul\":1371:1403   */\n      tag_303\n      jump\t// in\n    tag_306:\n        /* \"#utility.yul\":1268:1409   */\n      swap3\n      swap2\n      pop\n      pop\n      jump\t// out\n        /* \"#utility.yul\":1428:1766   */\n    tag_307:\n        /* \"#utility.yul\":1483:1488   */\n      0x00\n        /* \"#utility.yul\":1532:1535   */\n      dup3\n        /* \"#utility.yul\":1525:1529   */\n      0x1f\n        /* \"#utility.yul\":1517:1523   */\n      dup4\n        /* \"#utility.yul\":1513:1530   */\n      add\n        /* \"#utility.yul\":1509:1536   */\n      slt\n        /* \"#utility.yul\":1499:1621   */\n      tag_309\n      jumpi\n        /* \"#utility.yul\":1540:1619   */\n      tag_310\n      tag_311\n      jump\t// in\n    tag_310:\n        /* \"#utility.yul\":1499:1621   */\n    tag_309:\n        /* \"#utility.yul\":1657:1663   */\n      dup2\n        /* \"#utility.yul\":1644:1664   */\n      calldataload\n        /* \"#utility.yul\":1682:1760   */\n      tag_312\n        /* \"#utility.yul\":1756:1759   */\n      dup5\n        /* \"#utility.yul\":1748:1754   */\n      dup3\n        /* \"#utility.yul\":1741:1745   */\n      0x20\n        /* \"#utility.yul\":1733:1739   */\n      dup7\n        /* \"#utility.yul\":1729:1746   */\n      add\n        /* \"#utility.yul\":1682:1760   */\n      tag_273\n      jump\t// in\n    tag_312:\n        /* \"#utility.yul\":1673:1760   */\n      swap2\n      pop\n        /* \"#utility.yul\":1489:1766   */\n      pop\n        /* \"#utility.yul\":1428:1766   */\n      swap3\n      swap2\n      pop\n      pop\n      jump\t// out\n        /* \"#utility.yul\":1786:2126   */\n    tag_313:\n        /* \"#utility.yul\":1842:1847   */\n      0x00\n        /* \"#utility.yul\":1891:1894   */\n      dup3\n        /* \"#utility.yul\":1884:1888   */\n      0x1f\n        /* \"#utility.yul\":1876:1882   */\n      dup4\n        /* \"#utility.yul\":1872:1889   */\n      add\n        /* \"#utility.yul\":1868:1895   */\n      slt\n        /* \"#utility.yul\":1858:1980   */\n      tag_315\n      jumpi\n        /* \"#utility.yul\":1899:1978   */\n      tag_316\n      tag_311\n      jump\t// in\n    tag_316:\n        /* \"#utility.yul\":1858:1980   */\n    tag_315:\n        /* \"#utility.yul\":2016:2022   */\n      dup2\n        /* \"#utility.yul\":2003:2023   */\n      calldataload\n        /* \"#utility.yul\":2041:2120   */\n      tag_317\n        /* \"#utility.yul\":2116:2119   */\n      dup5\n        /* \"#utility.yul\":2108:2114   */\n      dup3\n        /* \"#utility.yul\":2101:2105   */\n      0x20\n        /* \"#utility.yul\":2093:2099   */\n      dup7\n        /* \"#utility.yul\":2089:2106   */\n      add\n        /* \"#utility.yul\":2041:2120   */\n      tag_284\n      jump\t// in\n    tag_317:\n        /* \"#utility.yul\":2032:2120   */\n      swap2\n      pop\n        /* \"#utility.yul\":1848:2126   */\n      pop\n        /* \"#utility.yul\":1786:2126   */\n      swap3\n      swap2\n      pop\n      pop\n      jump\t// out\n        /* \"#utility.yul\":2132:2271   */\n    tag_318:\n        /* \"#utility.yul\":2178:2183   */\n      0x00\n        /* \"#utility.yul\":2216:2222   */\n      dup2\n        /* \"#utility.yul\":2203:2223   */\n      calldataload\n        /* \"#utility.yul\":2194:2223   */\n      swap1\n      pop\n        /* \"#utility.yul\":2232:2265   */\n      tag_320\n        /* \"#utility.yul\":2259:2264   */\n      dup2\n        /* \"#utility.yul\":2232:2265   */\n      tag_321\n      jump\t// in\n    tag_320:\n        /* \"#utility.yul\":2132:2271   */\n      swap3\n      swap2\n      pop\n      pop\n      jump\t// out\n        /* \"#utility.yul\":2277:2606   */\n    tag_62:\n        /* \"#utility.yul\":2336:2342   */\n      0x00\n        /* \"#utility.yul\":2385:2387   */\n      0x20\n        /* \"#utility.yul\":2373:2382   */\n      dup3\n        /* \"#utility.yul\":2364:2371   */\n      dup5\n        /* \"#utility.yul\":2360:2383   */\n      sub\n        /* \"#utility.yul\":2356:2388   */\n      slt\n        /* \"#utility.yul\":2353:2472   */\n      iszero\n      tag_323\n      jumpi\n        /* \"#utility.yul\":2391:2470   */\n      tag_324\n      tag_325\n      jump\t// in\n    tag_324:\n        /* \"#utility.yul\":2353:2472   */\n    tag_323:\n        /* \"#utility.yul\":2511:2512   */\n      0x00\n        /* \"#utility.yul\":2536:2589   */\n      tag_326\n        /* \"#utility.yul\":2581:2588   */\n      dup5\n        /* \"#utility.yul\":2572:2578   */\n      dup3\n        /* \"#utility.yul\":2561:2570   */\n      dup6\n        /* \"#utility.yul\":2557:2579   */\n      add\n        /* \"#utility.yul\":2536:2589   */\n      tag_292\n      jump\t// in\n    tag_326:\n        /* \"#utility.yul\":2526:2589   */\n      swap2\n      pop\n        /* \"#utility.yul\":2482:2599   */\n      pop\n        /* \"#utility.yul\":2277:2606   */\n      swap3\n      swap2\n      pop\n      pop\n      jump\t// out\n        /* \"#utility.yul\":2612:3086   */\n    tag_90:\n        /* \"#utility.yul\":2680:2686   */\n      0x00\n        /* \"#utility.yul\":2688:2694   */\n      dup1\n        /* \"#utility.yul\":2737:2739   */\n      0x40\n        /* \"#utility.yul\":2725:2734   */\n      dup4\n        /* \"#utility.yul\":2716:2723   */\n      dup6\n        /* \"#utility.yul\":2712:2735   */\n      sub\n        /* \"#utility.yul\":2708:2740   */\n      slt\n        /* \"#utility.yul\":2705:2824   */\n      iszero\n      tag_328\n      jumpi\n        /* \"#utility.yul\":2743:2822   */\n      tag_329\n      tag_325\n      jump\t// in\n    tag_329:\n        /* \"#utility.yul\":2705:2824   */\n    tag_328:\n        /* \"#utility.yul\":2863:2864   */\n      0x00\n        /* \"#utility.yul\":2888:2941   */\n      tag_330\n        /* \"#utility.yul\":2933:2940   */\n      dup6\n        /* \"#utility.yul\":2924:2930   */\n      dup3\n        /* \"#utility.yul\":2913:2922   */\n      dup7\n        /* \"#utility.yul\":2909:2931   */\n      add\n        /* \"#utility.yul\":2888:2941   */\n      tag_292\n      jump\t// in\n    tag_330:\n        /* \"#utility.yul\":2878:2941   */\n      swap3\n      pop\n        /* \"#utility.yul\":2834:2951   */\n      pop\n        /* \"#utility.yul\":2990:2992   */\n      0x20\n        /* \"#utility.yul\":3016:3069   */\n      tag_331\n        /* \"#utility.yul\":3061:3068   */\n      dup6\n        /* \"#utility.yul\":3052:3058   */\n      dup3\n        /* \"#utility.yul\":3041:3050   */\n      dup7\n        /* \"#utility.yul\":3037:3059   */\n      add\n        /* \"#utility.yul\":3016:3069   */\n      tag_292\n      jump\t// in\n    tag_331:\n        /* \"#utility.yul\":3006:3069   */\n      swap2\n      pop\n        /* \"#utility.yul\":2961:3079   */\n      pop\n        /* \"#utility.yul\":2612:3086   */\n      swap3\n      pop\n      swap3\n      swap1\n      pop\n      jump\t// out\n        /* \"#utility.yul\":3092:3711   */\n    tag_45:\n        /* \"#utility.yul\":3169:3175   */\n      0x00\n        /* \"#utility.yul\":3177:3183   */\n      dup1\n        /* \"#utility.yul\":3185:3191   */\n      0x00\n        /* \"#utility.yul\":3234:3236   */\n      0x60\n        /* \"#utility.yul\":3222:3231   */\n      dup5\n        /* \"#utility.yul\":3213:3220   */\n      dup7\n        /* \"#utility.yul\":3209:3232   */\n      sub\n        /* \"#utility.yul\":3205:3237   */\n      slt\n        /* \"#utility.yul\":3202:3321   */\n      iszero\n      tag_333\n      jumpi\n        /* \"#utility.yul\":3240:3319   */\n      tag_334\n      tag_325\n      jump\t// in\n    tag_334:\n        /* \"#utility.yul\":3202:3321   */\n    tag_333:\n        /* \"#utility.yul\":3360:3361   */\n      0x00\n        /* \"#utility.yul\":3385:3438   */\n      tag_335\n        /* \"#utility.yul\":3430:3437   */\n      dup7\n        /* \"#utility.yul\":3421:3427   */\n      dup3\n        /* \"#utility.yul\":3410:3419   */\n      dup8\n        /* \"#utility.yul\":3406:3428   */\n      add\n        /* \"#utility.yul\":3385:3438   */\n      tag_292\n      jump\t// in\n    tag_335:\n        /* \"#utility.yul\":3375:3438   */\n      swap4\n      pop\n        /* \"#utility.yul\":3331:3448   */\n      pop\n        /* \"#utility.yul\":3487:3489   */\n      0x20\n        /* \"#utility.yul\":3513:3566   */\n      tag_336\n        /* \"#utility.yul\":3558:3565   */\n      dup7\n        /* \"#utility.yul\":3549:3555   */\n      dup3\n        /* \"#utility.yul\":3538:3547   */\n      dup8\n        /* \"#utility.yul\":3534:3556   */\n      add\n        /* \"#utility.yul\":3513:3566   */\n      tag_292\n      jump\t// in\n    tag_336:\n        /* \"#utility.yul\":3503:3566   */\n      swap3\n      pop\n        /* \"#utility.yul\":3458:3576   */\n      pop\n        /* \"#utility.yul\":3615:3617   */\n      0x40\n        /* \"#utility.yul\":3641:3694   */\n      tag_337\n        /* \"#utility.yul\":3686:3693   */\n      dup7\n        /* \"#utility.yul\":3677:3683   */\n      dup3\n        /* \"#utility.yul\":3666:3675   */\n      dup8\n        /* \"#utility.yul\":3662:3684   */\n      add\n        /* \"#utility.yul\":3641:3694   */\n      tag_318\n      jump\t// in\n    tag_337:\n        /* \"#utility.yul\":3631:3694   */\n      swap2\n      pop\n        /* \"#utility.yul\":3586:3704   */\n      pop\n        /* \"#utility.yul\":3092:3711   */\n      swap3\n      pop\n      swap3\n      pop\n      swap3\n      jump\t// out\n        /* \"#utility.yul\":3717:4660   */\n    tag_77:\n        /* \"#utility.yul\":3812:3818   */\n      0x00\n        /* \"#utility.yul\":3820:3826   */\n      dup1\n        /* \"#utility.yul\":3828:3834   */\n      0x00\n        /* \"#utility.yul\":3836:3842   */\n      dup1\n        /* \"#utility.yul\":3885:3888   */\n      0x80\n        /* \"#utility.yul\":3873:3882   */\n      dup6\n        /* \"#utility.yul\":3864:3871   */\n      dup8\n        /* \"#utility.yul\":3860:3883   */\n      sub\n        /* \"#utility.yul\":3856:3889   */\n      slt\n        /* \"#utility.yul\":3853:3973   */\n      iszero\n      tag_339\n      jumpi\n        /* \"#utility.yul\":3892:3971   */\n      tag_340\n      tag_325\n      jump\t// in\n    tag_340:\n        /* \"#utility.yul\":3853:3973   */\n    tag_339:\n        /* \"#utility.yul\":4012:4013   */\n      0x00\n        /* \"#utility.yul\":4037:4090   */\n      tag_341\n        /* \"#utility.yul\":4082:4089   */\n      dup8\n        /* \"#utility.yul\":4073:4079   */\n      dup3\n        /* \"#utility.yul\":4062:4071   */\n      dup9\n        /* \"#utility.yul\":4058:4080   */\n      add\n        /* \"#utility.yul\":4037:4090   */\n      tag_292\n      jump\t// in\n    tag_341:\n        /* \"#utility.yul\":4027:4090   */\n      swap5\n      pop\n        /* \"#utility.yul\":3983:4100   */\n      pop\n        /* \"#utility.yul\":4139:4141   */\n      0x20\n        /* \"#utility.yul\":4165:4218   */\n      tag_342\n        /* \"#utility.yul\":4210:4217   */\n      dup8\n        /* \"#utility.yul\":4201:4207   */\n      dup3\n        /* \"#utility.yul\":4190:4199   */\n      dup9\n        /* \"#utility.yul\":4186:4208   */\n      add\n        /* \"#utility.yul\":4165:4218   */\n      tag_292\n      jump\t// in\n    tag_342:\n        /* \"#utility.yul\":4155:4218   */\n      swap4\n      pop\n        /* \"#utility.yul\":4110:4228   */\n      pop\n        /* \"#utility.yul\":4267:4269   */\n      0x40\n        /* \"#utility.yul\":4293:4346   */\n      tag_343\n        /* \"#utility.yul\":4338:4345   */\n      dup8\n        /* \"#utility.yul\":4329:4335   */\n      dup3\n        /* \"#utility.yul\":4318:4327   */\n      dup9\n        /* \"#utility.yul\":4314:4336   */\n      add\n        /* \"#utility.yul\":4293:4346   */\n      tag_318\n      jump\t// in\n    tag_343:\n        /* \"#utility.yul\":4283:4346   */\n      swap3\n      pop\n        /* \"#utility.yul\":4238:4356   */\n      pop\n        /* \"#utility.yul\":4423:4425   */\n      0x60\n        /* \"#utility.yul\":4412:4421   */\n      dup6\n        /* \"#utility.yul\":4408:4426   */\n      add\n        /* \"#utility.yul\":4395:4427   */\n      calldataload\n        /* \"#utility.yul\":4454:4472   */\n      0xffffffffffffffff\n        /* \"#utility.yul\":4446:4452   */\n      dup2\n        /* \"#utility.yul\":4443:4473   */\n      gt\n        /* \"#utility.yul\":4440:4557   */\n      iszero\n      tag_344\n      jumpi\n        /* \"#utility.yul\":4476:4555   */\n      tag_345\n      tag_346\n      jump\t// in\n    tag_345:\n        /* \"#utility.yul\":4440:4557   */\n    tag_344:\n        /* \"#utility.yul\":4581:4643   */\n      tag_347\n        /* \"#utility.yul\":4635:4642   */\n      dup8\n        /* \"#utility.yul\":4626:4632   */\n      dup3\n        /* \"#utility.yul\":4615:4624   */\n      dup9\n        /* \"#utility.yul\":4611:4633   */\n      add\n        /* \"#utility.yul\":4581:4643   */\n      tag_307\n      jump\t// in\n    tag_347:\n        /* \"#utility.yul\":4571:4643   */\n      swap2\n      pop\n        /* \"#utility.yul\":4366:4653   */\n      pop\n        /* \"#utility.yul\":3717:4660   */\n      swap3\n      swap6\n      swap2\n      swap5\n      pop\n      swap3\n      pop\n      jump\t// out\n        /* \"#utility.yul\":4666:5134   */\n    tag_73:\n        /* \"#utility.yul\":4731:4737   */\n      0x00\n        /* \"#utility.yul\":4739:4745   */\n      dup1\n        /* \"#utility.yul\":4788:4790   */\n      0x40\n        /* \"#utility.yul\":4776:4785   */\n      dup4\n        /* \"#utility.yul\":4767:4774   */\n      dup6\n        /* \"#utility.yul\":4763:4786   */\n      sub\n        /* \"#utility.yul\":4759:4791   */\n      slt\n        /* \"#utility.yul\":4756:4875   */\n      iszero\n      tag_349\n      jumpi\n        /* \"#utility.yul\":4794:4873   */\n      tag_350\n      tag_325\n      jump\t// in\n    tag_350:\n        /* \"#utility.yul\":4756:4875   */\n    tag_349:\n        /* \"#utility.yul\":4914:4915   */\n      0x00\n        /* \"#utility.yul\":4939:4992   */\n      tag_351\n        /* \"#utility.yul\":4984:4991   */\n      dup6\n        /* \"#utility.yul\":4975:4981   */\n      dup3\n        /* \"#utility.yul\":4964:4973   */\n      dup7\n        /* \"#utility.yul\":4960:4982   */\n      add\n        /* \"#utility.yul\":4939:4992   */\n      tag_292\n      jump\t// in\n    tag_351:\n        /* \"#utility.yul\":4929:4992   */\n      swap3\n      pop\n        /* \"#utility.yul\":4885:5002   */\n      pop\n        /* \"#utility.yul\":5041:5043   */\n      0x20\n        /* \"#utility.yul\":5067:5117   */\n      tag_352\n        /* \"#utility.yul\":5109:5116   */\n      dup6\n        /* \"#utility.yul\":5100:5106   */\n      dup3\n        /* \"#utility.yul\":5089:5098   */\n      dup7\n        /* \"#utility.yul\":5085:5107   */\n      add\n        /* \"#utility.yul\":5067:5117   */\n      tag_296\n      jump\t// in\n    tag_352:\n        /* \"#utility.yul\":5057:5117   */\n      swap2\n      pop\n        /* \"#utility.yul\":5012:5127   */\n      pop\n        /* \"#utility.yul\":4666:5134   */\n      swap3\n      pop\n      swap3\n      swap1\n      pop\n      jump\t// out\n        /* \"#utility.yul\":5140:5614   */\n    tag_41:\n        /* \"#utility.yul\":5208:5214   */\n      0x00\n        /* \"#utility.yul\":5216:5222   */\n      dup1\n        /* \"#utility.yul\":5265:5267   */\n      0x40\n        /* \"#utility.yul\":5253:5262   */\n      dup4\n        /* \"#utility.yul\":5244:5251   */\n      dup6\n        /* \"#utility.yul\":5240:5263   */\n      sub\n        /* \"#utility.yul\":5236:5268   */\n      slt\n        /* \"#utility.yul\":5233:5352   */\n      iszero\n      tag_354\n      jumpi\n        /* \"#utility.yul\":5271:5350   */\n      tag_355\n      tag_325\n      jump\t// in\n    tag_355:\n        /* \"#utility.yul\":5233:5352   */\n    tag_354:\n        /* \"#utility.yul\":5391:5392   */\n      0x00\n        /* \"#utility.yul\":5416:5469   */\n      tag_356\n        /* \"#utility.yul\":5461:5468   */\n      dup6\n        /* \"#utility.yul\":5452:5458   */\n      dup3\n        /* \"#utility.yul\":5441:5450   */\n      dup7\n        /* \"#utility.yul\":5437:5459   */\n      add\n        /* \"#utility.yul\":5416:5469   */\n      tag_292\n      jump\t// in\n    tag_356:\n        /* \"#utility.yul\":5406:5469   */\n      swap3\n      pop\n        /* \"#utility.yul\":5362:5479   */\n      pop\n        /* \"#utility.yul\":5518:5520   */\n      0x20\n        /* \"#utility.yul\":5544:5597   */\n      tag_357\n        /* \"#utility.yul\":5589:5596   */\n      dup6\n        /* \"#utility.yul\":5580:5586   */\n      dup3\n        /* \"#utility.yul\":5569:5578   */\n      dup7\n        /* \"#utility.yul\":5565:5587   */\n      add\n        /* \"#utility.yul\":5544:5597   */\n      tag_318\n      jump\t// in\n    tag_357:\n        /* \"#utility.yul\":5534:5597   */\n      swap2\n      pop\n        /* \"#utility.yul\":5489:5607   */\n      pop\n        /* \"#utility.yul\":5140:5614   */\n      swap3\n      pop\n      swap3\n      swap1\n      pop\n      jump\t// out\n        /* \"#utility.yul\":5620:5947   */\n    tag_25:\n        /* \"#utility.yul\":5678:5684   */\n      0x00\n        /* \"#utility.yul\":5727:5729   */\n      0x20\n        /* \"#utility.yul\":5715:5724   */\n      dup3\n        /* \"#utility.yul\":5706:5713   */\n      dup5\n        /* \"#utility.yul\":5702:5725   */\n      sub\n        /* \"#utility.yul\":5698:5730   */\n      slt\n        /* \"#utility.yul\":5695:5814   */\n      iszero\n      tag_359\n      jumpi\n        /* \"#utility.yul\":5733:5812   */\n      tag_360\n      tag_325\n      jump\t// in\n    tag_360:\n        /* \"#utility.yul\":5695:5814   */\n    tag_359:\n        /* \"#utility.yul\":5853:5854   */\n      0x00\n        /* \"#utility.yul\":5878:5930   */\n      tag_361\n        /* \"#utility.yul\":5922:5929   */\n      dup5\n        /* \"#utility.yul\":5913:5919   */\n      dup3\n        /* \"#utility.yul\":5902:5911   */\n      dup6\n        /* \"#utility.yul\":5898:5920   */\n      add\n        /* \"#utility.yul\":5878:5930   */\n      tag_300\n      jump\t// in\n    tag_361:\n        /* \"#utility.yul\":5868:5930   */\n      swap2\n      pop\n        /* \"#utility.yul\":5824:5940   */\n      pop\n        /* \"#utility.yul\":5620:5947   */\n      swap3\n      swap2\n      pop\n      pop\n      jump\t// out\n        /* \"#utility.yul\":5953:6302   */\n    tag_259:\n        /* \"#utility.yul\":6022:6028   */\n      0x00\n        /* \"#utility.yul\":6071:6073   */\n      0x20\n        /* \"#utility.yul\":6059:6068   */\n      dup3\n        /* \"#utility.yul\":6050:6057   */\n      dup5\n        /* \"#utility.yul\":6046:6069   */\n      sub\n        /* \"#utility.yul\":6042:6074   */\n      slt\n        /* \"#utility.yul\":6039:6158   */\n      iszero\n      tag_363\n      jumpi\n        /* \"#utility.yul\":6077:6156   */\n      tag_364\n      tag_325\n      jump\t// in\n    tag_364:\n        /* \"#utility.yul\":6039:6158   */\n    tag_363:\n        /* \"#utility.yul\":6197:6198   */\n      0x00\n        /* \"#utility.yul\":6222:6285   */\n      tag_365\n        /* \"#utility.yul\":6277:6284   */\n      dup5\n        /* \"#utility.yul\":6268:6274   */\n      dup3\n        /* \"#utility.yul\":6257:6266   */\n      dup6\n        /* \"#utility.yul\":6253:6275   */\n      add\n        /* \"#utility.yul\":6222:6285   */\n      tag_304\n      jump\t// in\n    tag_365:\n        /* \"#utility.yul\":6212:6285   */\n      swap2\n      pop\n        /* \"#utility.yul\":6168:6295   */\n      pop\n        /* \"#utility.yul\":5953:6302   */\n      swap3\n      swap2\n      pop\n      pop\n      jump\t// out\n        /* \"#utility.yul\":6308:6637   */\n    tag_35:\n        /* \"#utility.yul\":6367:6373   */\n      0x00\n        /* \"#utility.yul\":6416:6418   */\n      0x20\n        /* \"#utility.yul\":6404:6413   */\n      dup3\n        /* \"#utility.yul\":6395:6402   */\n      dup5\n        /* \"#utility.yul\":6391:6414   */\n      sub\n        /* \"#utility.yul\":6387:6419   */\n      slt\n        /* \"#utility.yul\":6384:6503   */\n      iszero\n      tag_367\n      jumpi\n        /* \"#utility.yul\":6422:6501   */\n      tag_368\n      tag_325\n      jump\t// in\n    tag_368:\n        /* \"#utility.yul\":6384:6503   */\n    tag_367:\n        /* \"#utility.yul\":6542:6543   */\n      0x00\n        /* \"#utility.yul\":6567:6620   */\n      tag_369\n        /* \"#utility.yul\":6612:6619   */\n      dup5\n        /* \"#utility.yul\":6603:6609   */\n      dup3\n        /* \"#utility.yul\":6592:6601   */\n      dup6\n        /* \"#utility.yul\":6588:6610   */\n      add\n        /* \"#utility.yul\":6567:6620   */\n      tag_318\n      jump\t// in\n    tag_369:\n        /* \"#utility.yul\":6557:6620   */\n      swap2\n      pop\n        /* \"#utility.yul\":6513:6630   */\n      pop\n        /* \"#utility.yul\":6308:6637   */\n      swap3\n      swap2\n      pop\n      pop\n      jump\t// out\n        /* \"#utility.yul\":6643:8312   */\n    tag_81:\n        /* \"#utility.yul\":6781:6787   */\n      0x00\n        /* \"#utility.yul\":6789:6795   */\n      dup1\n        /* \"#utility.yul\":6797:6803   */\n      0x00\n        /* \"#utility.yul\":6805:6811   */\n      dup1\n        /* \"#utility.yul\":6813:6819   */\n      0x00\n        /* \"#utility.yul\":6821:6827   */\n      dup1\n        /* \"#utility.yul\":6829:6835   */\n      0x00\n        /* \"#utility.yul\":6837:6843   */\n      dup1\n        /* \"#utility.yul\":6845:6851   */\n      0x00\n        /* \"#utility.yul\":6894:6897   */\n      0x0120\n        /* \"#utility.yul\":6882:6891   */\n      dup11\n        /* \"#utility.yul\":6873:6880   */\n      dup13\n        /* \"#utility.yul\":6869:6892   */\n      sub\n        /* \"#utility.yul\":6865:6898   */\n      slt\n        /* \"#utility.yul\":6862:6982   */\n      iszero\n      tag_371\n      jumpi\n        /* \"#utility.yul\":6901:6980   */\n      tag_372\n      tag_325\n      jump\t// in\n    tag_372:\n        /* \"#utility.yul\":6862:6982   */\n    tag_371:\n        /* \"#utility.yul\":7021:7022   */\n      0x00\n        /* \"#utility.yul\":7046:7099   */\n      tag_373\n        /* \"#utility.yul\":7091:7098   */\n      dup13\n        /* \"#utility.yul\":7082:7088   */\n      dup3\n        /* \"#utility.yul\":7071:7080   */\n      dup14\n        /* \"#utility.yul\":7067:7089   */\n      add\n        /* \"#utility.yul\":7046:7099   */\n      tag_318\n      jump\t// in\n    tag_373:\n        /* \"#utility.yul\":7036:7099   */\n      swap10\n      pop\n        /* \"#utility.yul\":6992:7109   */\n      pop\n        /* \"#utility.yul\":7148:7150   */\n      0x20\n        /* \"#utility.yul\":7174:7227   */\n      tag_374\n        /* \"#utility.yul\":7219:7226   */\n      dup13\n        /* \"#utility.yul\":7210:7216   */\n      dup3\n        /* \"#utility.yul\":7199:7208   */\n      dup14\n        /* \"#utility.yul\":7195:7217   */\n      add\n        /* \"#utility.yul\":7174:7227   */\n      tag_318\n      jump\t// in\n    tag_374:\n        /* \"#utility.yul\":7164:7227   */\n      swap9\n      pop\n        /* \"#utility.yul\":7119:7237   */\n      pop\n        /* \"#utility.yul\":7276:7278   */\n      0x40\n        /* \"#utility.yul\":7302:7355   */\n      tag_375\n        /* \"#utility.yul\":7347:7354   */\n      dup13\n        /* \"#utility.yul\":7338:7344   */\n      dup3\n        /* \"#utility.yul\":7327:7336   */\n      dup14\n        /* \"#utility.yul\":7323:7345   */\n      add\n        /* \"#utility.yul\":7302:7355   */\n      tag_318\n      jump\t// in\n    tag_375:\n        /* \"#utility.yul\":7292:7355   */\n      swap8\n      pop\n        /* \"#utility.yul\":7247:7365   */\n      pop\n        /* \"#utility.yul\":7404:7406   */\n      0x60\n        /* \"#utility.yul\":7430:7483   */\n      tag_376\n        /* \"#utility.yul\":7475:7482   */\n      dup13\n        /* \"#utility.yul\":7466:7472   */\n      dup3\n        /* \"#utility.yul\":7455:7464   */\n      dup14\n        /* \"#utility.yul\":7451:7473   */\n      add\n        /* \"#utility.yul\":7430:7483   */\n      tag_318\n      jump\t// in\n    tag_376:\n        /* \"#utility.yul\":7420:7483   */\n      swap7\n      pop\n        /* \"#utility.yul\":7375:7493   */\n      pop\n        /* \"#utility.yul\":7532:7535   */\n      0x80\n        /* \"#utility.yul\":7559:7612   */\n      tag_377\n        /* \"#utility.yul\":7604:7611   */\n      dup13\n        /* \"#utility.yul\":7595:7601   */\n      dup3\n        /* \"#utility.yul\":7584:7593   */\n      dup14\n        /* \"#utility.yul\":7580:7602   */\n      add\n        /* \"#utility.yul\":7559:7612   */\n      tag_318\n      jump\t// in\n    tag_377:\n        /* \"#utility.yul\":7549:7612   */\n      swap6\n      pop\n        /* \"#utility.yul\":7503:7622   */\n      pop\n        /* \"#utility.yul\":7661:7664   */\n      0xa0\n        /* \"#utility.yul\":7688:7741   */\n      tag_378\n        /* \"#utility.yul\":7733:7740   */\n      dup13\n        /* \"#utility.yul\":7724:7730   */\n      dup3\n        /* \"#utility.yul\":7713:7722   */\n      dup14\n        /* \"#utility.yul\":7709:7731   */\n      add\n        /* \"#utility.yul\":7688:7741   */\n      tag_292\n      jump\t// in\n    tag_378:\n        /* \"#utility.yul\":7678:7741   */\n      swap5\n      pop\n        /* \"#utility.yul\":7632:7751   */\n      pop\n        /* \"#utility.yul\":7790:7793   */\n      0xc0\n        /* \"#utility.yul\":7817:7870   */\n      tag_379\n        /* \"#utility.yul\":7862:7869   */\n      dup13\n        /* \"#utility.yul\":7853:7859   */\n      dup3\n        /* \"#utility.yul\":7842:7851   */\n      dup14\n        /* \"#utility.yul\":7838:7860   */\n      add\n        /* \"#utility.yul\":7817:7870   */\n      tag_292\n      jump\t// in\n    tag_379:\n        /* \"#utility.yul\":7807:7870   */\n      swap4\n      pop\n        /* \"#utility.yul\":7761:7880   */\n      pop\n        /* \"#utility.yul\":7947:7950   */\n      0xe0\n        /* \"#utility.yul\":7936:7945   */\n      dup11\n        /* \"#utility.yul\":7932:7951   */\n      add\n        /* \"#utility.yul\":7919:7952   */\n      calldataload\n        /* \"#utility.yul\":7979:7997   */\n      0xffffffffffffffff\n        /* \"#utility.yul\":7971:7977   */\n      dup2\n        /* \"#utility.yul\":7968:7998   */\n      gt\n        /* \"#utility.yul\":7965:8082   */\n      iszero\n      tag_380\n      jumpi\n        /* \"#utility.yul\":8001:8080   */\n      tag_381\n      tag_346\n      jump\t// in\n    tag_381:\n        /* \"#utility.yul\":7965:8082   */\n    tag_380:\n        /* \"#utility.yul\":8106:8169   */\n      tag_382\n        /* \"#utility.yul\":8161:8168   */\n      dup13\n        /* \"#utility.yul\":8152:8158   */\n      dup3\n        /* \"#utility.yul\":8141:8150   */\n      dup14\n        /* \"#utility.yul\":8137:8159   */\n      add\n        /* \"#utility.yul\":8106:8169   */\n      tag_313\n      jump\t// in\n    tag_382:\n        /* \"#utility.yul\":8096:8169   */\n      swap3\n      pop\n        /* \"#utility.yul\":7890:8179   */\n      pop\n        /* \"#utility.yul\":8218:8221   */\n      0x0100\n        /* \"#utility.yul\":8245:8295   */\n      tag_383\n        /* \"#utility.yul\":8287:8294   */\n      dup13\n        /* \"#utility.yul\":8278:8284   */\n      dup3\n        /* \"#utility.yul\":8267:8276   */\n      dup14\n        /* \"#utility.yul\":8263:8285   */\n      add\n        /* \"#utility.yul\":8245:8295   */\n      tag_296\n      jump\t// in\n    tag_383:\n        /* \"#utility.yul\":8235:8295   */\n      swap2\n      pop\n        /* \"#utility.yul\":8189:8305   */\n      pop\n        /* \"#utility.yul\":6643:8312   */\n      swap3\n      swap6\n      swap9\n      pop\n      swap3\n      swap6\n      swap9\n      pop\n      swap3\n      swap6\n      swap9\n      jump\t// out\n        /* \"#utility.yul\":8318:8436   */\n    tag_384:\n        /* \"#utility.yul\":8405:8429   */\n      tag_386\n        /* \"#utility.yul\":8423:8428   */\n      dup2\n        /* \"#utility.yul\":8405:8429   */\n      tag_387\n      jump\t// in\n    tag_386:\n        /* \"#utility.yul\":8400:8403   */\n      dup3\n        /* \"#utility.yul\":8393:8430   */\n      mstore\n        /* \"#utility.yul\":8318:8436   */\n      pop\n      pop\n      jump\t// out\n        /* \"#utility.yul\":8442:8551   */\n    tag_388:\n        /* \"#utility.yul\":8523:8544   */\n      tag_390\n        /* \"#utility.yul\":8538:8543   */\n      dup2\n        /* \"#utility.yul\":8523:8544   */\n      tag_391\n      jump\t// in\n    tag_390:\n        /* \"#utility.yul\":8518:8521   */\n      dup3\n        /* \"#utility.yul\":8511:8545   */\n      mstore\n        /* \"#utility.yul\":8442:8551   */\n      pop\n      pop\n      jump\t// out\n        /* \"#utility.yul\":8557:8917   */\n    tag_392:\n        /* \"#utility.yul\":8643:8646   */\n      0x00\n        /* \"#utility.yul\":8671:8709   */\n      tag_394\n        /* \"#utility.yul\":8703:8708   */\n      dup3\n        /* \"#utility.yul\":8671:8709   */\n      tag_395\n      jump\t// in\n    tag_394:\n        /* \"#utility.yul\":8725:8795   */\n      tag_396\n        /* \"#utility.yul\":8788:8794   */\n      dup2\n        /* \"#utility.yul\":8783:8786   */\n      dup6\n        /* \"#utility.yul\":8725:8795   */\n      tag_397\n      jump\t// in\n    tag_396:\n        /* \"#utility.yul\":8718:8795   */\n      swap4\n      pop\n        /* \"#utility.yul\":8804:8856   */\n      tag_398\n        /* \"#utility.yul\":8849:8855   */\n      dup2\n        /* \"#utility.yul\":8844:8847   */\n      dup6\n        /* \"#utility.yul\":8837:8841   */\n      0x20\n        /* \"#utility.yul\":8830:8835   */\n      dup7\n        /* \"#utility.yul\":8826:8842   */\n      add\n        /* \"#utility.yul\":8804:8856   */\n      tag_399\n      jump\t// in\n    tag_398:\n        /* \"#utility.yul\":8881:8910   */\n      tag_400\n        /* \"#utility.yul\":8903:8909   */\n      dup2\n        /* \"#utility.yul\":8881:8910   */\n      tag_401\n      jump\t// in\n    tag_400:\n        /* \"#utility.yul\":8876:8879   */\n      dup5\n        /* \"#utility.yul\":8872:8911   */\n      add\n        /* \"#utility.yul\":8865:8911   */\n      swap2\n      pop\n        /* \"#utility.yul\":8647:8917   */\n      pop\n        /* \"#utility.yul\":8557:8917   */\n      swap3\n      swap2\n      pop\n      pop\n      jump\t// out\n        /* \"#utility.yul\":8923:9287   */\n    tag_402:\n        /* \"#utility.yul\":9011:9014   */\n      0x00\n        /* \"#utility.yul\":9039:9078   */\n      tag_404\n        /* \"#utility.yul\":9072:9077   */\n      dup3\n        /* \"#utility.yul\":9039:9078   */\n      tag_405\n      jump\t// in\n    tag_404:\n        /* \"#utility.yul\":9094:9165   */\n      tag_406\n        /* \"#utility.yul\":9158:9164   */\n      dup2\n        /* \"#utility.yul\":9153:9156   */\n      dup6\n        /* \"#utility.yul\":9094:9165   */\n      tag_407\n      jump\t// in\n    tag_406:\n        /* \"#utility.yul\":9087:9165   */\n      swap4\n      pop\n        /* \"#utility.yul\":9174:9226   */\n      tag_408\n        /* \"#utility.yul\":9219:9225   */\n      dup2\n        /* \"#utility.yul\":9214:9217   */\n      dup6\n        /* \"#utility.yul\":9207:9211   */\n      0x20\n        /* \"#utility.yul\":9200:9205   */\n      dup7\n        /* \"#utility.yul\":9196:9212   */\n      add\n        /* \"#utility.yul\":9174:9226   */\n      tag_399\n      jump\t// in\n    tag_408:\n        /* \"#utility.yul\":9251:9280   */\n      tag_409\n        /* \"#utility.yul\":9273:9279   */\n      dup2\n        /* \"#utility.yul\":9251:9280   */\n      tag_401\n      jump\t// in\n    tag_409:\n        /* \"#utility.yul\":9246:9249   */\n      dup5\n        /* \"#utility.yul\":9242:9281   */\n      add\n        /* \"#utility.yul\":9235:9281   */\n      swap2\n      pop\n        /* \"#utility.yul\":9015:9287   */\n      pop\n        /* \"#utility.yul\":8923:9287   */\n      swap3\n      swap2\n      pop\n      pop\n      jump\t// out\n        /* \"#utility.yul\":9293:9670   */\n    tag_410:\n        /* \"#utility.yul\":9399:9402   */\n      0x00\n        /* \"#utility.yul\":9427:9466   */\n      tag_412\n        /* \"#utility.yul\":9460:9465   */\n      dup3\n        /* \"#utility.yul\":9427:9466   */\n      tag_405\n      jump\t// in\n    tag_412:\n        /* \"#utility.yul\":9482:9571   */\n      tag_413\n        /* \"#utility.yul\":9564:9570   */\n      dup2\n        /* \"#utility.yul\":9559:9562   */\n      dup6\n        /* \"#utility.yul\":9482:9571   */\n      tag_414\n      jump\t// in\n    tag_413:\n        /* \"#utility.yul\":9475:9571   */\n      swap4\n      pop\n        /* \"#utility.yul\":9580:9632   */\n      tag_415\n        /* \"#utility.yul\":9625:9631   */\n      dup2\n        /* \"#utility.yul\":9620:9623   */\n      dup6\n        /* \"#utility.yul\":9613:9617   */\n      0x20\n        /* \"#utility.yul\":9606:9611   */\n      dup7\n        /* \"#utility.yul\":9602:9618   */\n      add\n        /* \"#utility.yul\":9580:9632   */\n      tag_399\n      jump\t// in\n    tag_415:\n        /* \"#utility.yul\":9657:9663   */\n      dup1\n        /* \"#utility.yul\":9652:9655   */\n      dup5\n        /* \"#utility.yul\":9648:9664   */\n      add\n        /* \"#utility.yul\":9641:9664   */\n      swap2\n      pop\n        /* \"#utility.yul\":9403:9670   */\n      pop\n        /* \"#utility.yul\":9293:9670   */\n      swap3\n      swap2\n      pop\n      pop\n      jump\t// out\n        /* \"#utility.yul\":9676:10042   */\n    tag_416:\n        /* \"#utility.yul\":9818:9821   */\n      0x00\n        /* \"#utility.yul\":9839:9906   */\n      tag_418\n        /* \"#utility.yul\":9903:9905   */\n      0x32\n        /* \"#utility.yul\":9898:9901   */\n      dup4\n        /* \"#utility.yul\":9839:9906   */\n      tag_407\n      jump\t// in\n    tag_418:\n        /* \"#utility.yul\":9832:9906   */\n      swap2\n      pop\n        /* \"#utility.yul\":9915:10008   */\n      tag_419\n        /* \"#utility.yul\":10004:10007   */\n      dup3\n        /* \"#utility.yul\":9915:10008   */\n      tag_420\n      jump\t// in\n    tag_419:\n        /* \"#utility.yul\":10033:10035   */\n      0x40\n        /* \"#utility.yul\":10028:10031   */\n      dup3\n        /* \"#utility.yul\":10024:10036   */\n      add\n        /* \"#utility.yul\":10017:10036   */\n      swap1\n      pop\n        /* \"#utility.yul\":9676:10042   */\n      swap2\n      swap1\n      pop\n      jump\t// out\n        /* \"#utility.yul\":10048:10414   */\n    tag_421:\n        /* \"#utility.yul\":10190:10193   */\n      0x00\n        /* \"#utility.yul\":10211:10278   */\n      tag_423\n        /* \"#utility.yul\":10275:10277   */\n      0x25\n        /* \"#utility.yul\":10270:10273   */\n      dup4\n        /* \"#utility.yul\":10211:10278   */\n      tag_407\n      jump\t// in\n    tag_423:\n        /* \"#utility.yul\":10204:10278   */\n      swap2\n      pop\n        /* \"#utility.yul\":10287:10380   */\n      tag_424\n        /* \"#utility.yul\":10376:10379   */\n      dup3\n        /* \"#utility.yul\":10287:10380   */\n      tag_425\n      jump\t// in\n    tag_424:\n        /* \"#utility.yul\":10405:10407   */\n      0x40\n        /* \"#utility.yul\":10400:10403   */\n      dup3\n        /* \"#utility.yul\":10396:10408   */\n      add\n        /* \"#utility.yul\":10389:10408   */\n      swap1\n      pop\n        /* \"#utility.yul\":10048:10414   */\n      swap2\n      swap1\n      pop\n      jump\t// out\n        /* \"#utility.yul\":10420:10786   */\n    tag_426:\n        /* \"#utility.yul\":10562:10565   */\n      0x00\n        /* \"#utility.yul\":10583:10650   */\n      tag_428\n        /* \"#utility.yul\":10647:10649   */\n      0x24\n        /* \"#utility.yul\":10642:10645   */\n      dup4\n        /* \"#utility.yul\":10583:10650   */\n      tag_407\n      jump\t// in\n    tag_428:\n        /* \"#utility.yul\":10576:10650   */\n      swap2\n      pop\n        /* \"#utility.yul\":10659:10752   */\n      tag_429\n        /* \"#utility.yul\":10748:10751   */\n      dup3\n        /* \"#utility.yul\":10659:10752   */\n      tag_430\n      jump\t// in\n    tag_429:\n        /* \"#utility.yul\":10777:10779   */\n      0x40\n        /* \"#utility.yul\":10772:10775   */\n      dup3\n        /* \"#utility.yul\":10768:10780   */\n      add\n        /* \"#utility.yul\":10761:10780   */\n      swap1\n      pop\n        /* \"#utility.yul\":10420:10786   */\n      swap2\n      swap1\n      pop\n      jump\t// out\n        /* \"#utility.yul\":10792:11158   */\n    tag_431:\n        /* \"#utility.yul\":10934:10937   */\n      0x00\n        /* \"#utility.yul\":10955:11022   */\n      tag_433\n        /* \"#utility.yul\":11019:11021   */\n      0x19\n        /* \"#utility.yul\":11014:11017   */\n      dup4\n        /* \"#utility.yul\":10955:11022   */\n      tag_407\n      jump\t// in\n    tag_433:\n        /* \"#utility.yul\":10948:11022   */\n      swap2\n      pop\n        /* \"#utility.yul\":11031:11124   */\n      tag_434\n        /* \"#utility.yul\":11120:11123   */\n      dup3\n        /* \"#utility.yul\":11031:11124   */\n      tag_435\n      jump\t// in\n    tag_434:\n        /* \"#utility.yul\":11149:11151   */\n      0x20\n        /* \"#utility.yul\":11144:11147   */\n      dup3\n        /* \"#utility.yul\":11140:11152   */\n      add\n        /* \"#utility.yul\":11133:11152   */\n      swap1\n      pop\n        /* \"#utility.yul\":10792:11158   */\n      swap2\n      swap1\n      pop\n      jump\t// out\n        /* \"#utility.yul\":11164:11530   */\n    tag_436:\n        /* \"#utility.yul\":11306:11309   */\n      0x00\n        /* \"#utility.yul\":11327:11394   */\n      tag_438\n        /* \"#utility.yul\":11391:11393   */\n      0x2c\n        /* \"#utility.yul\":11386:11389   */\n      dup4\n        /* \"#utility.yul\":11327:11394   */\n      tag_407\n      jump\t// in\n    tag_438:\n        /* \"#utility.yul\":11320:11394   */\n      swap2\n      pop\n        /* \"#utility.yul\":11403:11496   */\n      tag_439\n        /* \"#utility.yul\":11492:11495   */\n      dup3\n        /* \"#utility.yul\":11403:11496   */\n      tag_440\n      jump\t// in\n    tag_439:\n        /* \"#utility.yul\":11521:11523   */\n      0x40\n        /* \"#utility.yul\":11516:11519   */\n      dup3\n        /* \"#utility.yul\":11512:11524   */\n      add\n        /* \"#utility.yul\":11505:11524   */\n      swap1\n      pop\n        /* \"#utility.yul\":11164:11530   */\n      swap2\n      swap1\n      pop\n      jump\t// out\n        /* \"#utility.yul\":11536:11902   */\n    tag_441:\n        /* \"#utility.yul\":11678:11681   */\n      0x00\n        /* \"#utility.yul\":11699:11766   */\n      tag_443\n        /* \"#utility.yul\":11763:11765   */\n      0x29\n        /* \"#utility.yul\":11758:11761   */\n      dup4\n        /* \"#utility.yul\":11699:11766   */\n      tag_407\n      jump\t// in\n    tag_443:\n        /* \"#utility.yul\":11692:11766   */\n      swap2\n      pop\n        /* \"#utility.yul\":11775:11868   */\n      tag_444\n        /* \"#utility.yul\":11864:11867   */\n      dup3\n        /* \"#utility.yul\":11775:11868   */\n      tag_445\n      jump\t// in\n    tag_444:\n        /* \"#utility.yul\":11893:11895   */\n      0x40\n        /* \"#utility.yul\":11888:11891   */\n      dup3\n        /* \"#utility.yul\":11884:11896   */\n      add\n        /* \"#utility.yul\":11877:11896   */\n      swap1\n      pop\n        /* \"#utility.yul\":11536:11902   */\n      swap2\n      swap1\n      pop\n      jump\t// out\n        /* \"#utility.yul\":11908:12274   */\n    tag_446:\n        /* \"#utility.yul\":12050:12053   */\n      0x00\n        /* \"#utility.yul\":12071:12138   */\n      tag_448\n        /* \"#utility.yul\":12135:12137   */\n      0x38\n        /* \"#utility.yul\":12130:12133   */\n      dup4\n        /* \"#utility.yul\":12071:12138   */\n      tag_407\n      jump\t// in\n    tag_448:\n        /* \"#utility.yul\":12064:12138   */\n      swap2\n      pop\n        /* \"#utility.yul\":12147:12240   */\n      tag_449\n        /* \"#utility.yul\":12236:12239   */\n      dup3\n        /* \"#utility.yul\":12147:12240   */\n      tag_450\n      jump\t// in\n    tag_449:\n        /* \"#utility.yul\":12265:12267   */\n      0x40\n        /* \"#utility.yul\":12260:12263   */\n      dup3\n        /* \"#utility.yul\":12256:12268   */\n      add\n        /* \"#utility.yul\":12249:12268   */\n      swap1\n      pop\n        /* \"#utility.yul\":11908:12274   */\n      swap2\n      swap1\n      pop\n      jump\t// out\n        /* \"#utility.yul\":12280:12646   */\n    tag_451:\n        /* \"#utility.yul\":12422:12425   */\n      0x00\n        /* \"#utility.yul\":12443:12510   */\n      tag_453\n        /* \"#utility.yul\":12507:12509   */\n      0x29\n        /* \"#utility.yul\":12502:12505   */\n      dup4\n        /* \"#utility.yul\":12443:12510   */\n      tag_407\n      jump\t// in\n    tag_453:\n        /* \"#utility.yul\":12436:12510   */\n      swap2\n      pop\n        /* \"#utility.yul\":12519:12612   */\n      tag_454\n        /* \"#utility.yul\":12608:12611   */\n      dup3\n        /* \"#utility.yul\":12519:12612   */\n      tag_455\n      jump\t// in\n    tag_454:\n        /* \"#utility.yul\":12637:12639   */\n      0x40\n        /* \"#utility.yul\":12632:12635   */\n      dup3\n        /* \"#utility.yul\":12628:12640   */\n      add\n        /* \"#utility.yul\":12621:12640   */\n      swap1\n      pop\n        /* \"#utility.yul\":12280:12646   */\n      swap2\n      swap1\n      pop\n      jump\t// out\n        /* \"#utility.yul\":12652:13018   */\n    tag_456:\n        /* \"#utility.yul\":12794:12797   */\n      0x00\n        /* \"#utility.yul\":12815:12882   */\n      tag_458\n        /* \"#utility.yul\":12879:12881   */\n      0x2c\n        /* \"#utility.yul\":12874:12877   */\n      dup4\n        /* \"#utility.yul\":12815:12882   */\n      tag_407\n      jump\t// in\n    tag_458:\n        /* \"#utility.yul\":12808:12882   */\n      swap2\n      pop\n        /* \"#utility.yul\":12891:12984   */\n      tag_459\n        /* \"#utility.yul\":12980:12983   */\n      dup3\n        /* \"#utility.yul\":12891:12984   */\n      tag_460\n      jump\t// in\n    tag_459:\n        /* \"#utility.yul\":13009:13011   */\n      0x40\n        /* \"#utility.yul\":13004:13007   */\n      dup3\n        /* \"#utility.yul\":13000:13012   */\n      add\n        /* \"#utility.yul\":12993:13012   */\n      swap1\n      pop\n        /* \"#utility.yul\":12652:13018   */\n      swap2\n      swap1\n      pop\n      jump\t// out\n        /* \"#utility.yul\":13024:13390   */\n    tag_461:\n        /* \"#utility.yul\":13166:13169   */\n      0x00\n        /* \"#utility.yul\":13187:13254   */\n      tag_463\n        /* \"#utility.yul\":13251:13253   */\n      0x2f\n        /* \"#utility.yul\":13246:13249   */\n      dup4\n        /* \"#utility.yul\":13187:13254   */\n      tag_407\n      jump\t// in\n    tag_463:\n        /* \"#utility.yul\":13180:13254   */\n      swap2\n      pop\n        /* \"#utility.yul\":13263:13356   */\n      tag_464\n        /* \"#utility.yul\":13352:13355   */\n      dup3\n        /* \"#utility.yul\":13263:13356   */\n      tag_465\n      jump\t// in\n    tag_464:\n        /* \"#utility.yul\":13381:13383   */\n      0x40\n        /* \"#utility.yul\":13376:13379   */\n      dup3\n        /* \"#utility.yul\":13372:13384   */\n      add\n        /* \"#utility.yul\":13365:13384   */\n      swap1\n      pop\n        /* \"#utility.yul\":13024:13390   */\n      swap2\n      swap1\n      pop\n      jump\t// out\n        /* \"#utility.yul\":13396:13762   */\n    tag_466:\n        /* \"#utility.yul\":13538:13541   */\n      0x00\n        /* \"#utility.yul\":13559:13626   */\n      tag_468\n        /* \"#utility.yul\":13623:13625   */\n      0x21\n        /* \"#utility.yul\":13618:13621   */\n      dup4\n        /* \"#utility.yul\":13559:13626   */\n      tag_407\n      jump\t// in\n    tag_468:\n        /* \"#utility.yul\":13552:13626   */\n      swap2\n      pop\n        /* \"#utility.yul\":13635:13728   */\n      tag_469\n        /* \"#utility.yul\":13724:13727   */\n      dup3\n        /* \"#utility.yul\":13635:13728   */\n      tag_470\n      jump\t// in\n    tag_469:\n        /* \"#utility.yul\":13753:13755   */\n      0x40\n        /* \"#utility.yul\":13748:13751   */\n      dup3\n        /* \"#utility.yul\":13744:13756   */\n      add\n        /* \"#utility.yul\":13737:13756   */\n      swap1\n      pop\n        /* \"#utility.yul\":13396:13762   */\n      swap2\n      swap1\n      pop\n      jump\t// out\n        /* \"#utility.yul\":13768:14134   */\n    tag_471:\n        /* \"#utility.yul\":13910:13913   */\n      0x00\n        /* \"#utility.yul\":13931:13998   */\n      tag_473\n        /* \"#utility.yul\":13995:13997   */\n      0x31\n        /* \"#utility.yul\":13990:13993   */\n      dup4\n        /* \"#utility.yul\":13931:13998   */\n      tag_407\n      jump\t// in\n    tag_473:\n        /* \"#utility.yul\":13924:13998   */\n      swap2\n      pop\n        /* \"#utility.yul\":14007:14100   */\n      tag_474\n        /* \"#utility.yul\":14096:14099   */\n      dup3\n        /* \"#utility.yul\":14007:14100   */\n      tag_475\n      jump\t// in\n    tag_474:\n        /* \"#utility.yul\":14125:14127   */\n      0x40\n        /* \"#utility.yul\":14120:14123   */\n      dup3\n        /* \"#utility.yul\":14116:14128   */\n      add\n        /* \"#utility.yul\":14109:14128   */\n      swap1\n      pop\n        /* \"#utility.yul\":13768:14134   */\n      swap2\n      swap1\n      pop\n      jump\t// out\n        /* \"#utility.yul\":14140:14258   */\n    tag_476:\n        /* \"#utility.yul\":14227:14251   */\n      tag_478\n        /* \"#utility.yul\":14245:14250   */\n      dup2\n        /* \"#utility.yul\":14227:14251   */\n      tag_479\n      jump\t// in\n    tag_478:\n        /* \"#utility.yul\":14222:14225   */\n      dup3\n        /* \"#utility.yul\":14215:14252   */\n      mstore\n        /* \"#utility.yul\":14140:14258   */\n      pop\n      pop\n      jump\t// out\n        /* \"#utility.yul\":14264:14699   */\n    tag_178:\n        /* \"#utility.yul\":14444:14447   */\n      0x00\n        /* \"#utility.yul\":14466:14561   */\n      tag_481\n        /* \"#utility.yul\":14557:14560   */\n      dup3\n        /* \"#utility.yul\":14548:14554   */\n      dup6\n        /* \"#utility.yul\":14466:14561   */\n      tag_410\n      jump\t// in\n    tag_481:\n        /* \"#utility.yul\":14459:14561   */\n      swap2\n      pop\n        /* \"#utility.yul\":14578:14673   */\n      tag_482\n        /* \"#utility.yul\":14669:14672   */\n      dup3\n        /* \"#utility.yul\":14660:14666   */\n      dup5\n        /* \"#utility.yul\":14578:14673   */\n      tag_410\n      jump\t// in\n    tag_482:\n        /* \"#utility.yul\":14571:14673   */\n      swap2\n      pop\n        /* \"#utility.yul\":14690:14693   */\n      dup2\n        /* \"#utility.yul\":14683:14693   */\n      swap1\n      pop\n        /* \"#utility.yul\":14264:14699   */\n      swap4\n      swap3\n      pop\n      pop\n      pop\n      jump\t// out\n        /* \"#utility.yul\":14705:14927   */\n    tag_38:\n        /* \"#utility.yul\":14798:14802   */\n      0x00\n        /* \"#utility.yul\":14836:14838   */\n      0x20\n        /* \"#utility.yul\":14825:14834   */\n      dup3\n        /* \"#utility.yul\":14821:14839   */\n      add\n        /* \"#utility.yul\":14813:14839   */\n      swap1\n      pop\n        /* \"#utility.yul\":14849:14920   */\n      tag_484\n        /* \"#utility.yul\":14917:14918   */\n      0x00\n        /* \"#utility.yul\":14906:14915   */\n      dup4\n        /* \"#utility.yul\":14902:14919   */\n      add\n        /* \"#utility.yul\":14893:14899   */\n      dup5\n        /* \"#utility.yul\":14849:14920   */\n      tag_384\n      jump\t// in\n    tag_484:\n        /* \"#utility.yul\":14705:14927   */\n      swap3\n      swap2\n      pop\n      pop\n      jump\t// out\n        /* \"#utility.yul\":14933:15573   */\n    tag_255:\n        /* \"#utility.yul\":15128:15132   */\n      0x00\n        /* \"#utility.yul\":15166:15169   */\n      0x80\n        /* \"#utility.yul\":15155:15164   */\n      dup3\n        /* \"#utility.yul\":15151:15170   */\n      add\n        /* \"#utility.yul\":15143:15170   */\n      swap1\n      pop\n        /* \"#utility.yul\":15180:15251   */\n      tag_486\n        /* \"#utility.yul\":15248:15249   */\n      0x00\n        /* \"#utility.yul\":15237:15246   */\n      dup4\n        /* \"#utility.yul\":15233:15250   */\n      add\n        /* \"#utility.yul\":15224:15230   */\n      dup8\n        /* \"#utility.yul\":15180:15251   */\n      tag_384\n      jump\t// in\n    tag_486:\n        /* \"#utility.yul\":15261:15333   */\n      tag_487\n        /* \"#utility.yul\":15329:15331   */\n      0x20\n        /* \"#utility.yul\":15318:15327   */\n      dup4\n        /* \"#utility.yul\":15314:15332   */\n      add\n        /* \"#utility.yul\":15305:15311   */\n      dup7\n        /* \"#utility.yul\":15261:15333   */\n      tag_384\n      jump\t// in\n    tag_487:\n        /* \"#utility.yul\":15343:15415   */\n      tag_488\n        /* \"#utility.yul\":15411:15413   */\n      0x40\n        /* \"#utility.yul\":15400:15409   */\n      dup4\n        /* \"#utility.yul\":15396:15414   */\n      add\n        /* \"#utility.yul\":15387:15393   */\n      dup6\n        /* \"#utility.yul\":15343:15415   */\n      tag_476\n      jump\t// in\n    tag_488:\n        /* \"#utility.yul\":15462:15471   */\n      dup2\n        /* \"#utility.yul\":15456:15460   */\n      dup2\n        /* \"#utility.yul\":15452:15472   */\n      sub\n        /* \"#utility.yul\":15447:15449   */\n      0x60\n        /* \"#utility.yul\":15436:15445   */\n      dup4\n        /* \"#utility.yul\":15432:15450   */\n      add\n        /* \"#utility.yul\":15425:15473   */\n      mstore\n        /* \"#utility.yul\":15490:15566   */\n      tag_489\n        /* \"#utility.yul\":15561:15565   */\n      dup2\n        /* \"#utility.yul\":15552:15558   */\n      dup5\n        /* \"#utility.yul\":15490:15566   */\n      tag_392\n      jump\t// in\n    tag_489:\n        /* \"#utility.yul\":15482:15566   */\n      swap1\n      pop\n        /* \"#utility.yul\":14933:15573   */\n      swap6\n      swap5\n      pop\n      pop\n      pop\n      pop\n      pop\n      jump\t// out\n        /* \"#utility.yul\":15579:15789   */\n    tag_28:\n        /* \"#utility.yul\":15666:15670   */\n      0x00\n        /* \"#utility.yul\":15704:15706   */\n      0x20\n        /* \"#utility.yul\":15693:15702   */\n      dup3\n        /* \"#utility.yul\":15689:15707   */\n      add\n        /* \"#utility.yul\":15681:15707   */\n      swap1\n      pop\n        /* \"#utility.yul\":15717:15782   */\n      tag_491\n        /* \"#utility.yul\":15779:15780   */\n      0x00\n        /* \"#utility.yul\":15768:15777   */\n      dup4\n        /* \"#utility.yul\":15764:15781   */\n      add\n        /* \"#utility.yul\":15755:15761   */\n      dup5\n        /* \"#utility.yul\":15717:15782   */\n      tag_388\n      jump\t// in\n    tag_491:\n        /* \"#utility.yul\":15579:15789   */\n      swap3\n      swap2\n      pop\n      pop\n      jump\t// out\n        /* \"#utility.yul\":15795:16108   */\n    tag_32:\n        /* \"#utility.yul\":15908:15912   */\n      0x00\n        /* \"#utility.yul\":15946:15948   */\n      0x20\n        /* \"#utility.yul\":15935:15944   */\n      dup3\n        /* \"#utility.yul\":15931:15949   */\n      add\n        /* \"#utility.yul\":15923:15949   */\n      swap1\n      pop\n        /* \"#utility.yul\":15995:16004   */\n      dup2\n        /* \"#utility.yul\":15989:15993   */\n      dup2\n        /* \"#utility.yul\":15985:16005   */\n      sub\n        /* \"#utility.yul\":15981:15982   */\n      0x00\n        /* \"#utility.yul\":15970:15979   */\n      dup4\n        /* \"#utility.yul\":15966:15983   */\n      add\n        /* \"#utility.yul\":15959:16006   */\n      mstore\n        /* \"#utility.yul\":16023:16101   */\n      tag_493\n        /* \"#utility.yul\":16096:16100   */\n      dup2\n        /* \"#utility.yul\":16087:16093   */\n      dup5\n        /* \"#utility.yul\":16023:16101   */\n      tag_402\n      jump\t// in\n    tag_493:\n        /* \"#utility.yul\":16015:16101   */\n      swap1\n      pop\n        /* \"#utility.yul\":15795:16108   */\n      swap3\n      swap2\n      pop\n      pop\n      jump\t// out\n        /* \"#utility.yul\":16114:16533   */\n    tag_223:\n        /* \"#utility.yul\":16280:16284   */\n      0x00\n        /* \"#utility.yul\":16318:16320   */\n      0x20\n        /* \"#utility.yul\":16307:16316   */\n      dup3\n        /* \"#utility.yul\":16303:16321   */\n      add\n        /* \"#utility.yul\":16295:16321   */\n      swap1\n      pop\n        /* \"#utility.yul\":16367:16376   */\n      dup2\n        /* \"#utility.yul\":16361:16365   */\n      dup2\n        /* \"#utility.yul\":16357:16377   */\n      sub\n        /* \"#utility.yul\":16353:16354   */\n      0x00\n        /* \"#utility.yul\":16342:16351   */\n      dup4\n        /* \"#utility.yul\":16338:16355   */\n      add\n        /* \"#utility.yul\":16331:16378   */\n      mstore\n        /* \"#utility.yul\":16395:16526   */\n      tag_495\n        /* \"#utility.yul\":16521:16525   */\n      dup2\n        /* \"#utility.yul\":16395:16526   */\n      tag_416\n      jump\t// in\n    tag_495:\n        /* \"#utility.yul\":16387:16526   */\n      swap1\n      pop\n        /* \"#utility.yul\":16114:16533   */\n      swap2\n      swap1\n      pop\n      jump\t// out\n        /* \"#utility.yul\":16539:16958   */\n    tag_199:\n        /* \"#utility.yul\":16705:16709   */\n      0x00\n        /* \"#utility.yul\":16743:16745   */\n      0x20\n        /* \"#utility.yul\":16732:16741   */\n      dup3\n        /* \"#utility.yul\":16728:16746   */\n      add\n        /* \"#utility.yul\":16720:16746   */\n      swap1\n      pop\n        /* \"#utility.yul\":16792:16801   */\n      dup2\n        /* \"#utility.yul\":16786:16790   */\n      dup2\n        /* \"#utility.yul\":16782:16802   */\n      sub\n        /* \"#utility.yul\":16778:16779   */\n      0x00\n        /* \"#utility.yul\":16767:16776   */\n      dup4\n        /* \"#utility.yul\":16763:16780   */\n      add\n        /* \"#utility.yul\":16756:16803   */\n      mstore\n        /* \"#utility.yul\":16820:16951   */\n      tag_497\n        /* \"#utility.yul\":16946:16950   */\n      dup2\n        /* \"#utility.yul\":16820:16951   */\n      tag_421\n      jump\t// in\n    tag_497:\n        /* \"#utility.yul\":16812:16951   */\n      swap1\n      pop\n        /* \"#utility.yul\":16539:16958   */\n      swap2\n      swap1\n      pop\n      jump\t// out\n        /* \"#utility.yul\":16964:17383   */\n    tag_202:\n        /* \"#utility.yul\":17130:17134   */\n      0x00\n        /* \"#utility.yul\":17168:17170   */\n      0x20\n        /* \"#utility.yul\":17157:17166   */\n      dup3\n        /* \"#utility.yul\":17153:17171   */\n      add\n        /* \"#utility.yul\":17145:17171   */\n      swap1\n      pop\n        /* \"#utility.yul\":17217:17226   */\n      dup2\n        /* \"#utility.yul\":17211:17215   */\n      dup2\n        /* \"#utility.yul\":17207:17227   */\n      sub\n        /* \"#utility.yul\":17203:17204   */\n      0x00\n        /* \"#utility.yul\":17192:17201   */\n      dup4\n        /* \"#utility.yul\":17188:17205   */\n      add\n        /* \"#utility.yul\":17181:17228   */\n      mstore\n        /* \"#utility.yul\":17245:17376   */\n      tag_499\n        /* \"#utility.yul\":17371:17375   */\n      dup2\n        /* \"#utility.yul\":17245:17376   */\n      tag_426\n      jump\t// in\n    tag_499:\n        /* \"#utility.yul\":17237:17376   */\n      swap1\n      pop\n        /* \"#utility.yul\":16964:17383   */\n      swap2\n      swap1\n      pop\n      jump\t// out\n        /* \"#utility.yul\":17389:17808   */\n    tag_215:\n        /* \"#utility.yul\":17555:17559   */\n      0x00\n        /* \"#utility.yul\":17593:17595   */\n      0x20\n        /* \"#utility.yul\":17582:17591   */\n      dup3\n        /* \"#utility.yul\":17578:17596   */\n      add\n        /* \"#utility.yul\":17570:17596   */\n      swap1\n      pop\n        /* \"#utility.yul\":17642:17651   */\n      dup2\n        /* \"#utility.yul\":17636:17640   */\n      dup2\n        /* \"#utility.yul\":17632:17652   */\n      sub\n        /* \"#utility.yul\":17628:17629   */\n      0x00\n        /* \"#utility.yul\":17617:17626   */\n      dup4\n        /* \"#utility.yul\":17613:17630   */\n      add\n        /* \"#utility.yul\":17606:17653   */\n      mstore\n        /* \"#utility.yul\":17670:17801   */\n      tag_501\n        /* \"#utility.yul\":17796:17800   */\n      dup2\n        /* \"#utility.yul\":17670:17801   */\n      tag_431\n      jump\t// in\n    tag_501:\n        /* \"#utility.yul\":17662:17801   */\n      swap1\n      pop\n        /* \"#utility.yul\":17389:17808   */\n      swap2\n      swap1\n      pop\n      jump\t// out\n        /* \"#utility.yul\":17814:18233   */\n    tag_189:\n        /* \"#utility.yul\":17980:17984   */\n      0x00\n        /* \"#utility.yul\":18018:18020   */\n      0x20\n        /* \"#utility.yul\":18007:18016   */\n      dup3\n        /* \"#utility.yul\":18003:18021   */\n      add\n        /* \"#utility.yul\":17995:18021   */\n      swap1\n      pop\n        /* \"#utility.yul\":18067:18076   */\n      dup2\n        /* \"#utility.yul\":18061:18065   */\n      dup2\n        /* \"#utility.yul\":18057:18077   */\n      sub\n        /* \"#utility.yul\":18053:18054   */\n      0x00\n        /* \"#utility.yul\":18042:18051   */\n      dup4\n        /* \"#utility.yul\":18038:18055   */\n      add\n        /* \"#utility.yul\":18031:18078   */\n      mstore\n        /* \"#utility.yul\":18095:18226   */\n      tag_503\n        /* \"#utility.yul\":18221:18225   */\n      dup2\n        /* \"#utility.yul\":18095:18226   */\n      tag_436\n      jump\t// in\n    tag_503:\n        /* \"#utility.yul\":18087:18226   */\n      swap1\n      pop\n        /* \"#utility.yul\":17814:18233   */\n      swap2\n      swap1\n      pop\n      jump\t// out\n        /* \"#utility.yul\":18239:18658   */\n    tag_146:\n        /* \"#utility.yul\":18405:18409   */\n      0x00\n        /* \"#utility.yul\":18443:18445   */\n      0x20\n        /* \"#utility.yul\":18432:18441   */\n      dup3\n        /* \"#utility.yul\":18428:18446   */\n      add\n        /* \"#utility.yul\":18420:18446   */\n      swap1\n      pop\n        /* \"#utility.yul\":18492:18501   */\n      dup2\n        /* \"#utility.yul\":18486:18490   */\n      dup2\n        /* \"#utility.yul\":18482:18502   */\n      sub\n        /* \"#utility.yul\":18478:18479   */\n      0x00\n        /* \"#utility.yul\":18467:18476   */\n      dup4\n        /* \"#utility.yul\":18463:18480   */\n      add\n        /* \"#utility.yul\":18456:18503   */\n      mstore\n        /* \"#utility.yul\":18520:18651   */\n      tag_505\n        /* \"#utility.yul\":18646:18650   */\n      dup2\n        /* \"#utility.yul\":18520:18651   */\n      tag_441\n      jump\t// in\n    tag_505:\n        /* \"#utility.yul\":18512:18651   */\n      swap1\n      pop\n        /* \"#utility.yul\":18239:18658   */\n      swap2\n      swap1\n      pop\n      jump\t// out\n        /* \"#utility.yul\":18664:19083   */\n    tag_123:\n        /* \"#utility.yul\":18830:18834   */\n      0x00\n        /* \"#utility.yul\":18868:18870   */\n      0x20\n        /* \"#utility.yul\":18857:18866   */\n      dup3\n        /* \"#utility.yul\":18853:18871   */\n      add\n        /* \"#utility.yul\":18845:18871   */\n      swap1\n      pop\n        /* \"#utility.yul\":18917:18926   */\n      dup2\n        /* \"#utility.yul\":18911:18915   */\n      dup2\n        /* \"#utility.yul\":18907:18927   */\n      sub\n        /* \"#utility.yul\":18903:18904   */\n      0x00\n        /* \"#utility.yul\":18892:18901   */\n      dup4\n        /* \"#utility.yul\":18888:18905   */\n      add\n        /* \"#utility.yul\":18881:18928   */\n      mstore\n        /* \"#utility.yul\":18945:19076   */\n      tag_507\n        /* \"#utility.yul\":19071:19075   */\n      dup2\n        /* \"#utility.yul\":18945:19076   */\n      tag_446\n      jump\t// in\n    tag_507:\n        /* \"#utility.yul\":18937:19076   */\n      swap1\n      pop\n        /* \"#utility.yul\":18664:19083   */\n      swap2\n      swap1\n      pop\n      jump\t// out\n        /* \"#utility.yul\":19089:19508   */\n    tag_142:\n        /* \"#utility.yul\":19255:19259   */\n      0x00\n        /* \"#utility.yul\":19293:19295   */\n      0x20\n        /* \"#utility.yul\":19282:19291   */\n      dup3\n        /* \"#utility.yul\":19278:19296   */\n      add\n        /* \"#utility.yul\":19270:19296   */\n      swap1\n      pop\n        /* \"#utility.yul\":19342:19351   */\n      dup2\n        /* \"#utility.yul\":19336:19340   */\n      dup2\n        /* \"#utility.yul\":19332:19352   */\n      sub\n        /* \"#utility.yul\":19328:19329   */\n      0x00\n        /* \"#utility.yul\":19317:19326   */\n      dup4\n        /* \"#utility.yul\":19313:19330   */\n      add\n        /* \"#utility.yul\":19306:19353   */\n      mstore\n        /* \"#utility.yul\":19370:19501   */\n      tag_509\n        /* \"#utility.yul\":19496:19500   */\n      dup2\n        /* \"#utility.yul\":19370:19501   */\n      tag_451\n      jump\t// in\n    tag_509:\n        /* \"#utility.yul\":19362:19501   */\n      swap1\n      pop\n        /* \"#utility.yul\":19089:19508   */\n      swap2\n      swap1\n      pop\n      jump\t// out\n        /* \"#utility.yul\":19514:19933   */\n    tag_110:\n        /* \"#utility.yul\":19680:19684   */\n      0x00\n        /* \"#utility.yul\":19718:19720   */\n      0x20\n        /* \"#utility.yul\":19707:19716   */\n      dup3\n        /* \"#utility.yul\":19703:19721   */\n      add\n        /* \"#utility.yul\":19695:19721   */\n      swap1\n      pop\n        /* \"#utility.yul\":19767:19776   */\n      dup2\n        /* \"#utility.yul\":19761:19765   */\n      dup2\n        /* \"#utility.yul\":19757:19777   */\n      sub\n        /* \"#utility.yul\":19753:19754   */\n      0x00\n        /* \"#utility.yul\":19742:19751   */\n      dup4\n        /* \"#utility.yul\":19738:19755   */\n      add\n        /* \"#utility.yul\":19731:19778   */\n      mstore\n        /* \"#utility.yul\":19795:19926   */\n      tag_511\n        /* \"#utility.yul\":19921:19925   */\n      dup2\n        /* \"#utility.yul\":19795:19926   */\n      tag_456\n      jump\t// in\n    tag_511:\n        /* \"#utility.yul\":19787:19926   */\n      swap1\n      pop\n        /* \"#utility.yul\":19514:19933   */\n      swap2\n      swap1\n      pop\n      jump\t// out\n        /* \"#utility.yul\":19939:20358   */\n    tag_170:\n        /* \"#utility.yul\":20105:20109   */\n      0x00\n        /* \"#utility.yul\":20143:20145   */\n      0x20\n        /* \"#utility.yul\":20132:20141   */\n      dup3\n        /* \"#utility.yul\":20128:20146   */\n      add\n        /* \"#utility.yul\":20120:20146   */\n      swap1\n      pop\n        /* \"#utility.yul\":20192:20201   */\n      dup2\n        /* \"#utility.yul\":20186:20190   */\n      dup2\n        /* \"#utility.yul\":20182:20202   */\n      sub\n        /* \"#utility.yul\":20178:20179   */\n      0x00\n        /* \"#utility.yul\":20167:20176   */\n      dup4\n        /* \"#utility.yul\":20163:20180   */\n      add\n        /* \"#utility.yul\":20156:20203   */\n      mstore\n        /* \"#utility.yul\":20220:20351   */\n      tag_513\n        /* \"#utility.yul\":20346:20350   */\n      dup2\n        /* \"#utility.yul\":20220:20351   */\n      tag_461\n      jump\t// in\n    tag_513:\n        /* \"#utility.yul\":20212:20351   */\n      swap1\n      pop\n        /* \"#utility.yul\":19939:20358   */\n      swap2\n      swap1\n      pop\n      jump\t// out\n        /* \"#utility.yul\":20364:20783   */\n    tag_115:\n        /* \"#utility.yul\":20530:20534   */\n      0x00\n        /* \"#utility.yul\":20568:20570   */\n      0x20\n        /* \"#utility.yul\":20557:20566   */\n      dup3\n        /* \"#utility.yul\":20553:20571   */\n      add\n        /* \"#utility.yul\":20545:20571   */\n      swap1\n      pop\n        /* \"#utility.yul\":20617:20626   */\n      dup2\n        /* \"#utility.yul\":20611:20615   */\n      dup2\n        /* \"#utility.yul\":20607:20627   */\n      sub\n        /* \"#utility.yul\":20603:20604   */\n      0x00\n        /* \"#utility.yul\":20592:20601   */\n      dup4\n        /* \"#utility.yul\":20588:20605   */\n      add\n        /* \"#utility.yul\":20581:20628   */\n      mstore\n        /* \"#utility.yul\":20645:20776   */\n      tag_515\n        /* \"#utility.yul\":20771:20775   */\n      dup2\n        /* \"#utility.yul\":20645:20776   */\n      tag_466\n      jump\t// in\n    tag_515:\n        /* \"#utility.yul\":20637:20776   */\n      swap1\n      pop\n        /* \"#utility.yul\":20364:20783   */\n      swap2\n      swap1\n      pop\n      jump\t// out\n        /* \"#utility.yul\":20789:21208   */\n    tag_132:\n        /* \"#utility.yul\":20955:20959   */\n      0x00\n        /* \"#utility.yul\":20993:20995   */\n      0x20\n        /* \"#utility.yul\":20982:20991   */\n      dup3\n        /* \"#utility.yul\":20978:20996   */\n      add\n        /* \"#utility.yul\":20970:20996   */\n      swap1\n      pop\n        /* \"#utility.yul\":21042:21051   */\n      dup2\n        /* \"#utility.yul\":21036:21040   */\n      dup2\n        /* \"#utility.yul\":21032:21052   */\n      sub\n        /* \"#utility.yul\":21028:21029   */\n      0x00\n        /* \"#utility.yul\":21017:21026   */\n      dup4\n        /* \"#utility.yul\":21013:21030   */\n      add\n        /* \"#utility.yul\":21006:21053   */\n      mstore\n        /* \"#utility.yul\":21070:21201   */\n      tag_517\n        /* \"#utility.yul\":21196:21200   */\n      dup2\n        /* \"#utility.yul\":21070:21201   */\n      tag_471\n      jump\t// in\n    tag_517:\n        /* \"#utility.yul\":21062:21201   */\n      swap1\n      pop\n        /* \"#utility.yul\":20789:21208   */\n      swap2\n      swap1\n      pop\n      jump\t// out\n        /* \"#utility.yul\":21214:21436   */\n    tag_50:\n        /* \"#utility.yul\":21307:21311   */\n      0x00\n        /* \"#utility.yul\":21345:21347   */\n      0x20\n        /* \"#utility.yul\":21334:21343   */\n      dup3\n        /* \"#utility.yul\":21330:21348   */\n      add\n        /* \"#utility.yul\":21322:21348   */\n      swap1\n      pop\n        /* \"#utility.yul\":21358:21429   */\n      tag_519\n        /* \"#utility.yul\":21426:21427   */\n      0x00\n        /* \"#utility.yul\":21415:21424   */\n      dup4\n        /* \"#utility.yul\":21411:21428   */\n      add\n        /* \"#utility.yul\":21402:21408   */\n      dup5\n        /* \"#utility.yul\":21358:21429   */\n      tag_476\n      jump\t// in\n    tag_519:\n        /* \"#utility.yul\":21214:21436   */\n      swap3\n      swap2\n      pop\n      pop\n      jump\t// out\n        /* \"#utility.yul\":21442:21571   */\n    tag_278:\n        /* \"#utility.yul\":21476:21482   */\n      0x00\n        /* \"#utility.yul\":21503:21523   */\n      tag_521\n      tag_522\n      jump\t// in\n    tag_521:\n        /* \"#utility.yul\":21493:21523   */\n      swap1\n      pop\n        /* \"#utility.yul\":21532:21565   */\n      tag_523\n        /* \"#utility.yul\":21560:21564   */\n      dup3\n        /* \"#utility.yul\":21552:21558   */\n      dup3\n        /* \"#utility.yul\":21532:21565   */\n      tag_524\n      jump\t// in\n    tag_523:\n        /* \"#utility.yul\":21442:21571   */\n      swap2\n      swap1\n      pop\n      jump\t// out\n        /* \"#utility.yul\":21577:21652   */\n    tag_522:\n        /* \"#utility.yul\":21610:21616   */\n      0x00\n        /* \"#utility.yul\":21643:21645   */\n      0x40\n        /* \"#utility.yul\":21637:21646   */\n      mload\n        /* \"#utility.yul\":21627:21646   */\n      swap1\n      pop\n        /* \"#utility.yul\":21577:21652   */\n      swap1\n      jump\t// out\n        /* \"#utility.yul\":21658:21965   */\n    tag_277:\n        /* \"#utility.yul\":21719:21723   */\n      0x00\n        /* \"#utility.yul\":21809:21827   */\n      0xffffffffffffffff\n        /* \"#utility.yul\":21801:21807   */\n      dup3\n        /* \"#utility.yul\":21798:21828   */\n      gt\n        /* \"#utility.yul\":21795:21851   */\n      iszero\n      tag_527\n      jumpi\n        /* \"#utility.yul\":21831:21849   */\n      tag_528\n      tag_235\n      jump\t// in\n    tag_528:\n        /* \"#utility.yul\":21795:21851   */\n    tag_527:\n        /* \"#utility.yul\":21869:21898   */\n      tag_529\n        /* \"#utility.yul\":21891:21897   */\n      dup3\n        /* \"#utility.yul\":21869:21898   */\n      tag_401\n      jump\t// in\n    tag_529:\n        /* \"#utility.yul\":21861:21898   */\n      swap1\n      pop\n        /* \"#utility.yul\":21953:21957   */\n      0x20\n        /* \"#utility.yul\":21947:21951   */\n      dup2\n        /* \"#utility.yul\":21943:21958   */\n      add\n        /* \"#utility.yul\":21935:21958   */\n      swap1\n      pop\n        /* \"#utility.yul\":21658:21965   */\n      swap2\n      swap1\n      pop\n      jump\t// out\n        /* \"#utility.yul\":21971:22279   */\n    tag_288:\n        /* \"#utility.yul\":22033:22037   */\n      0x00\n        /* \"#utility.yul\":22123:22141   */\n      0xffffffffffffffff\n        /* \"#utility.yul\":22115:22121   */\n      dup3\n        /* \"#utility.yul\":22112:22142   */\n      gt\n        /* \"#utility.yul\":22109:22165   */\n      iszero\n      tag_531\n      jumpi\n        /* \"#utility.yul\":22145:22163   */\n      tag_532\n      tag_235\n      jump\t// in\n    tag_532:\n        /* \"#utility.yul\":22109:22165   */\n    tag_531:\n        /* \"#utility.yul\":22183:22212   */\n      tag_533\n        /* \"#utility.yul\":22205:22211   */\n      dup3\n        /* \"#utility.yul\":22183:22212   */\n      tag_401\n      jump\t// in\n    tag_533:\n        /* \"#utility.yul\":22175:22212   */\n      swap1\n      pop\n        /* \"#utility.yul\":22267:22271   */\n      0x20\n        /* \"#utility.yul\":22261:22265   */\n      dup2\n        /* \"#utility.yul\":22257:22272   */\n      add\n        /* \"#utility.yul\":22249:22272   */\n      swap1\n      pop\n        /* \"#utility.yul\":21971:22279   */\n      swap2\n      swap1\n      pop\n      jump\t// out\n        /* \"#utility.yul\":22285:22383   */\n    tag_395:\n        /* \"#utility.yul\":22336:22342   */\n      0x00\n        /* \"#utility.yul\":22370:22375   */\n      dup2\n        /* \"#utility.yul\":22364:22376   */\n      mload\n        /* \"#utility.yul\":22354:22376   */\n      swap1\n      pop\n        /* \"#utility.yul\":22285:22383   */\n      swap2\n      swap1\n      pop\n      jump\t// out\n        /* \"#utility.yul\":22389:22488   */\n    tag_405:\n        /* \"#utility.yul\":22441:22447   */\n      0x00\n        /* \"#utility.yul\":22475:22480   */\n      dup2\n        /* \"#utility.yul\":22469:22481   */\n      mload\n        /* \"#utility.yul\":22459:22481   */\n      swap1\n      pop\n        /* \"#utility.yul\":22389:22488   */\n      swap2\n      swap1\n      pop\n      jump\t// out\n        /* \"#utility.yul\":22494:22662   */\n    tag_397:\n        /* \"#utility.yul\":22577:22588   */\n      0x00\n        /* \"#utility.yul\":22611:22617   */\n      dup3\n        /* \"#utility.yul\":22606:22609   */\n      dup3\n        /* \"#utility.yul\":22599:22618   */\n      mstore\n        /* \"#utility.yul\":22651:22655   */\n      0x20\n        /* \"#utility.yul\":22646:22649   */\n      dup3\n        /* \"#utility.yul\":22642:22656   */\n      add\n        /* \"#utility.yul\":22627:22656   */\n      swap1\n      pop\n        /* \"#utility.yul\":22494:22662   */\n      swap3\n      swap2\n      pop\n      pop\n      jump\t// out\n        /* \"#utility.yul\":22668:22837   */\n    tag_407:\n        /* \"#utility.yul\":22752:22763   */\n      0x00\n        /* \"#utility.yul\":22786:22792   */\n      dup3\n        /* \"#utility.yul\":22781:22784   */\n      dup3\n        /* \"#utility.yul\":22774:22793   */\n      mstore\n        /* \"#utility.yul\":22826:22830   */\n      0x20\n        /* \"#utility.yul\":22821:22824   */\n      dup3\n        /* \"#utility.yul\":22817:22831   */\n      add\n        /* \"#utility.yul\":22802:22831   */\n      swap1\n      pop\n        /* \"#utility.yul\":22668:22837   */\n      swap3\n      swap2\n      pop\n      pop\n      jump\t// out\n        /* \"#utility.yul\":22843:22991   */\n    tag_414:\n        /* \"#utility.yul\":22945:22956   */\n      0x00\n        /* \"#utility.yul\":22982:22985   */\n      dup2\n        /* \"#utility.yul\":22967:22985   */\n      swap1\n      pop\n        /* \"#utility.yul\":22843:22991   */\n      swap3\n      swap2\n      pop\n      pop\n      jump\t// out\n        /* \"#utility.yul\":22997:23302   */\n    tag_209:\n        /* \"#utility.yul\":23037:23040   */\n      0x00\n        /* \"#utility.yul\":23056:23076   */\n      tag_540\n        /* \"#utility.yul\":23074:23075   */\n      dup3\n        /* \"#utility.yul\":23056:23076   */\n      tag_479\n      jump\t// in\n    tag_540:\n        /* \"#utility.yul\":23051:23076   */\n      swap2\n      pop\n        /* \"#utility.yul\":23090:23110   */\n      tag_541\n        /* \"#utility.yul\":23108:23109   */\n      dup4\n        /* \"#utility.yul\":23090:23110   */\n      tag_479\n      jump\t// in\n    tag_541:\n        /* \"#utility.yul\":23085:23110   */\n      swap3\n      pop\n        /* \"#utility.yul\":23244:23245   */\n      dup3\n        /* \"#utility.yul\":23176:23242   */\n      0xffffffffffffffffffffffffffffffffffffffffffffffffffffffffffffffff\n        /* \"#utility.yul\":23172:23246   */\n      sub\n        /* \"#utility.yul\":23169:23170   */\n      dup3\n        /* \"#utility.yul\":23166:23247   */\n      gt\n        /* \"#utility.yul\":23163:23270   */\n      iszero\n      tag_542\n      jumpi\n        /* \"#utility.yul\":23250:23268   */\n      tag_543\n      tag_544\n      jump\t// in\n    tag_543:\n        /* \"#utility.yul\":23163:23270   */\n    tag_542:\n        /* \"#utility.yul\":23294:23295   */\n      dup3\n        /* \"#utility.yul\":23291:23292   */\n      dup3\n        /* \"#utility.yul\":23287:23296   */\n      add\n        /* \"#utility.yul\":23280:23296   */\n      swap1\n      pop\n        /* \"#utility.yul\":22997:23302   */\n      swap3\n      swap2\n      pop\n      pop\n      jump\t// out\n        /* \"#utility.yul\":23308:23493   */\n    tag_232:\n        /* \"#utility.yul\":23348:23349   */\n      0x00\n        /* \"#utility.yul\":23365:23385   */\n      tag_546\n        /* \"#utility.yul\":23383:23384   */\n      dup3\n        /* \"#utility.yul\":23365:23385   */\n      tag_479\n      jump\t// in\n    tag_546:\n        /* \"#utility.yul\":23360:23385   */\n      swap2\n      pop\n        /* \"#utility.yul\":23399:23419   */\n      tag_547\n        /* \"#utility.yul\":23417:23418   */\n      dup4\n        /* \"#utility.yul\":23399:23419   */\n      tag_479\n      jump\t// in\n    tag_547:\n        /* \"#utility.yul\":23394:23419   */\n      swap3\n      pop\n        /* \"#utility.yul\":23438:23439   */\n      dup3\n        /* \"#utility.yul\":23428:23463   */\n      tag_548\n      jumpi\n        /* \"#utility.yul\":23443:23461   */\n      tag_549\n      tag_550\n      jump\t// in\n    tag_549:\n        /* \"#utility.yul\":23428:23463   */\n    tag_548:\n        /* \"#utility.yul\":23485:23486   */\n      dup3\n        /* \"#utility.yul\":23482:23483   */\n      dup3\n        /* \"#utility.yul\":23478:23487   */\n      div\n        /* \"#utility.yul\":23473:23487   */\n      swap1\n      pop\n        /* \"#utility.yul\":23308:23493   */\n      swap3\n      swap2\n      pop\n      pop\n      jump\t// out\n        /* \"#utility.yul\":23499:23690   */\n    tag_207:\n        /* \"#utility.yul\":23539:23543   */\n      0x00\n        /* \"#utility.yul\":23559:23579   */\n      tag_552\n        /* \"#utility.yul\":23577:23578   */\n      dup3\n        /* \"#utility.yul\":23559:23579   */\n      tag_479\n      jump\t// in\n    tag_552:\n        /* \"#utility.yul\":23554:23579   */\n      swap2\n      pop\n        /* \"#utility.yul\":23593:23613   */\n      tag_553\n        /* \"#utility.yul\":23611:23612   */\n      dup4\n        /* \"#utility.yul\":23593:23613   */\n      tag_479\n      jump\t// in\n    tag_553:\n        /* \"#utility.yul\":23588:23613   */\n      swap3\n      pop\n        /* \"#utility.yul\":23632:23633   */\n      dup3\n        /* \"#utility.yul\":23629:23630   */\n      dup3\n        /* \"#utility.yul\":23626:23634   */\n      lt\n        /* \"#utility.yul\":23623:23657   */\n      iszero\n      tag_554\n      jumpi\n        /* \"#utility.yul\":23637:23655   */\n      tag_555\n      tag_544\n      jump\t// in\n    tag_555:\n        /* \"#utility.yul\":23623:23657   */\n    tag_554:\n        /* \"#utility.yul\":23682:23683   */\n      dup3\n        /* \"#utility.yul\":23679:23680   */\n      dup3\n        /* \"#utility.yul\":23675:23684   */\n      sub\n        /* \"#utility.yul\":23667:23684   */\n      swap1\n      pop\n        /* \"#utility.yul\":23499:23690   */\n      swap3\n      swap2\n      pop\n      pop\n      jump\t// out\n        /* \"#utility.yul\":23696:23792   */\n    tag_387:\n        /* \"#utility.yul\":23733:23740   */\n      0x00\n        /* \"#utility.yul\":23762:23786   */\n      tag_557\n        /* \"#utility.yul\":23780:23785   */\n      dup3\n        /* \"#utility.yul\":23762:23786   */\n      tag_558\n      jump\t// in\n    tag_557:\n        /* \"#utility.yul\":23751:23786   */\n      swap1\n      pop\n        /* \"#utility.yul\":23696:23792   */\n      swap2\n      swap1\n      pop\n      jump\t// out\n        /* \"#utility.yul\":23798:23888   */\n    tag_391:\n        /* \"#utility.yul\":23832:23839   */\n      0x00\n        /* \"#utility.yul\":23875:23880   */\n      dup2\n        /* \"#utility.yul\":23868:23881   */\n      iszero\n        /* \"#utility.yul\":23861:23882   */\n      iszero\n        /* \"#utility.yul\":23850:23882   */\n      swap1\n      pop\n        /* \"#utility.yul\":23798:23888   */\n      swap2\n      swap1\n      pop\n      jump\t// out\n        /* \"#utility.yul\":23894:24043   */\n    tag_560:\n        /* \"#utility.yul\":23930:23937   */\n      0x00\n        /* \"#utility.yul\":23970:24036   */\n      0xffffffff00000000000000000000000000000000000000000000000000000000\n        /* \"#utility.yul\":23963:23968   */\n      dup3\n        /* \"#utility.yul\":23959:24037   */\n      and\n        /* \"#utility.yul\":23948:24037   */\n      swap1\n      pop\n        /* \"#utility.yul\":23894:24043   */\n      swap2\n      swap1\n      pop\n      jump\t// out\n        /* \"#utility.yul\":24049:24175   */\n    tag_558:\n        /* \"#utility.yul\":24086:24093   */\n      0x00\n        /* \"#utility.yul\":24126:24168   */\n      0xffffffffffffffffffffffffffffffffffffffff\n        /* \"#utility.yul\":24119:24124   */\n      dup3\n        /* \"#utility.yul\":24115:24169   */\n      and\n        /* \"#utility.yul\":24104:24169   */\n      swap1\n      pop\n        /* \"#utility.yul\":24049:24175   */\n      swap2\n      swap1\n      pop\n      jump\t// out\n        /* \"#utility.yul\":24181:24258   */\n    tag_479:\n        /* \"#utility.yul\":24218:24225   */\n      0x00\n        /* \"#utility.yul\":24247:24252   */\n      dup2\n        /* \"#utility.yul\":24236:24252   */\n      swap1\n      pop\n        /* \"#utility.yul\":24181:24258   */\n      swap2\n      swap1\n      pop\n      jump\t// out\n        /* \"#utility.yul\":24264:24418   */\n    tag_283:\n        /* \"#utility.yul\":24348:24354   */\n      dup3\n        /* \"#utility.yul\":24343:24346   */\n      dup2\n        /* \"#utility.yul\":24338:24341   */\n      dup4\n        /* \"#utility.yul\":24325:24355   */\n      calldatacopy\n        /* \"#utility.yul\":24410:24411   */\n      0x00\n        /* \"#utility.yul\":24401:24407   */\n      dup4\n        /* \"#utility.yul\":24396:24399   */\n      dup4\n        /* \"#utility.yul\":24392:24408   */\n      add\n        /* \"#utility.yul\":24385:24412   */\n      mstore\n        /* \"#utility.yul\":24264:24418   */\n      pop\n      pop\n      pop\n      jump\t// out\n        /* \"#utility.yul\":24424:24731   */\n    tag_399:\n        /* \"#utility.yul\":24492:24493   */\n      0x00\n        /* \"#utility.yul\":24502:24615   */\n    tag_566:\n        /* \"#utility.yul\":24516:24522   */\n      dup4\n        /* \"#utility.yul\":24513:24514   */\n      dup2\n        /* \"#utility.yul\":24510:24523   */\n      lt\n        /* \"#utility.yul\":24502:24615   */\n      iszero\n      tag_568\n      jumpi\n        /* \"#utility.yul\":24601:24602   */\n      dup1\n        /* \"#utility.yul\":24596:24599   */\n      dup3\n        /* \"#utility.yul\":24592:24603   */\n      add\n        /* \"#utility.yul\":24586:24604   */\n      mload\n        /* \"#utility.yul\":24582:24583   */\n      dup2\n        /* \"#utility.yul\":24577:24580   */\n      dup5\n        /* \"#utility.yul\":24573:24584   */\n      add\n        /* \"#utility.yul\":24566:24605   */\n      mstore\n        /* \"#utility.yul\":24538:24540   */\n      0x20\n        /* \"#utility.yul\":24535:24536   */\n      dup2\n        /* \"#utility.yul\":24531:24541   */\n      add\n        /* \"#utility.yul\":24526:24541   */\n      swap1\n      pop\n        /* \"#utility.yul\":24502:24615   */\n      jump(tag_566)\n    tag_568:\n        /* \"#utility.yul\":24633:24639   */\n      dup4\n        /* \"#utility.yul\":24630:24631   */\n      dup2\n        /* \"#utility.yul\":24627:24640   */\n      gt\n        /* \"#utility.yul\":24624:24725   */\n      iszero\n      tag_569\n      jumpi\n        /* \"#utility.yul\":24713:24714   */\n      0x00\n        /* \"#utility.yul\":24704:24710   */\n      dup5\n        /* \"#utility.yul\":24699:24702   */\n      dup5\n        /* \"#utility.yul\":24695:24711   */\n      add\n        /* \"#utility.yul\":24688:24715   */\n      mstore\n        /* \"#utility.yul\":24624:24725   */\n    tag_569:\n        /* \"#utility.yul\":24473:24731   */\n      pop\n        /* \"#utility.yul\":24424:24731   */\n      pop\n      pop\n      pop\n      jump\t// out\n        /* \"#utility.yul\":24737:25057   */\n    tag_100:\n        /* \"#utility.yul\":24781:24787   */\n      0x00\n        /* \"#utility.yul\":24818:24819   */\n      0x02\n        /* \"#utility.yul\":24812:24816   */\n      dup3\n        /* \"#utility.yul\":24808:24820   */\n      div\n        /* \"#utility.yul\":24798:24820   */\n      swap1\n      pop\n        /* \"#utility.yul\":24865:24866   */\n      0x01\n        /* \"#utility.yul\":24859:24863   */\n      dup3\n        /* \"#utility.yul\":24855:24867   */\n      and\n        /* \"#utility.yul\":24886:24904   */\n      dup1\n        /* \"#utility.yul\":24876:24957   */\n      tag_571\n      jumpi\n        /* \"#utility.yul\":24942:24946   */\n      0x7f\n        /* \"#utility.yul\":24934:24940   */\n      dup3\n        /* \"#utility.yul\":24930:24947   */\n      and\n        /* \"#utility.yul\":24920:24947   */\n      swap2\n      pop\n        /* \"#utility.yul\":24876:24957   */\n    tag_571:\n        /* \"#utility.yul\":25004:25006   */\n      0x20\n        /* \"#utility.yul\":24996:25002   */\n      dup3\n        /* \"#utility.yul\":24993:25007   */\n      lt\n        /* \"#utility.yul\":24973:24991   */\n      dup2\n        /* \"#utility.yul\":24970:25008   */\n      eq\n        /* \"#utility.yul\":24967:25051   */\n      iszero\n      tag_572\n      jumpi\n        /* \"#utility.yul\":25023:25041   */\n      tag_573\n      tag_574\n      jump\t// in\n    tag_573:\n        /* \"#utility.yul\":24967:25051   */\n    tag_572:\n        /* \"#utility.yul\":24788:25057   */\n      pop\n        /* \"#utility.yul\":24737:25057   */\n      swap2\n      swap1\n      pop\n      jump\t// out\n        /* \"#utility.yul\":25063:25344   */\n    tag_524:\n        /* \"#utility.yul\":25146:25173   */\n      tag_576\n        /* \"#utility.yul\":25168:25172   */\n      dup3\n        /* \"#utility.yul\":25146:25173   */\n      tag_401\n      jump\t// in\n    tag_576:\n        /* \"#utility.yul\":25138:25144   */\n      dup2\n        /* \"#utility.yul\":25134:25174   */\n      add\n        /* \"#utility.yul\":25276:25282   */\n      dup2\n        /* \"#utility.yul\":25264:25274   */\n      dup2\n        /* \"#utility.yul\":25261:25283   */\n      lt\n        /* \"#utility.yul\":25240:25258   */\n      0xffffffffffffffff\n        /* \"#utility.yul\":25228:25238   */\n      dup3\n        /* \"#utility.yul\":25225:25259   */\n      gt\n        /* \"#utility.yul\":25222:25284   */\n      or\n        /* \"#utility.yul\":25219:25307   */\n      iszero\n      tag_577\n      jumpi\n        /* \"#utility.yul\":25287:25305   */\n      tag_578\n      tag_235\n      jump\t// in\n    tag_578:\n        /* \"#utility.yul\":25219:25307   */\n    tag_577:\n        /* \"#utility.yul\":25327:25337   */\n      dup1\n        /* \"#utility.yul\":25323:25325   */\n      0x40\n        /* \"#utility.yul\":25316:25338   */\n      mstore\n        /* \"#utility.yul\":25106:25344   */\n      pop\n        /* \"#utility.yul\":25063:25344   */\n      pop\n      pop\n      jump\t// out\n        /* \"#utility.yul\":25350:25583   */\n    tag_230:\n        /* \"#utility.yul\":25389:25392   */\n      0x00\n        /* \"#utility.yul\":25412:25436   */\n      tag_580\n        /* \"#utility.yul\":25430:25435   */\n      dup3\n        /* \"#utility.yul\":25412:25436   */\n      tag_479\n      jump\t// in\n    tag_580:\n        /* \"#utility.yul\":25403:25436   */\n      swap2\n      pop\n        /* \"#utility.yul\":25458:25524   */\n      0xffffffffffffffffffffffffffffffffffffffffffffffffffffffffffffffff\n        /* \"#utility.yul\":25451:25456   */\n      dup3\n        /* \"#utility.yul\":25448:25525   */\n      eq\n        /* \"#utility.yul\":25445:25548   */\n      iszero\n      tag_581\n      jumpi\n        /* \"#utility.yul\":25528:25546   */\n      tag_582\n      tag_544\n      jump\t// in\n    tag_582:\n        /* \"#utility.yul\":25445:25548   */\n    tag_581:\n        /* \"#utility.yul\":25575:25576   */\n      0x01\n        /* \"#utility.yul\":25568:25573   */\n      dup3\n        /* \"#utility.yul\":25564:25577   */\n      add\n        /* \"#utility.yul\":25557:25577   */\n      swap1\n      pop\n        /* \"#utility.yul\":25350:25583   */\n      swap2\n      swap1\n      pop\n      jump\t// out\n        /* \"#utility.yul\":25589:25765   */\n    tag_241:\n        /* \"#utility.yul\":25621:25622   */\n      0x00\n        /* \"#utility.yul\":25638:25658   */\n      tag_584\n        /* \"#utility.yul\":25656:25657   */\n      dup3\n        /* \"#utility.yul\":25638:25658   */\n      tag_479\n      jump\t// in\n    tag_584:\n        /* \"#utility.yul\":25633:25658   */\n      swap2\n      pop\n        /* \"#utility.yul\":25672:25692   */\n      tag_585\n        /* \"#utility.yul\":25690:25691   */\n      dup4\n        /* \"#utility.yul\":25672:25692   */\n      tag_479\n      jump\t// in\n    tag_585:\n        /* \"#utility.yul\":25667:25692   */\n      swap3\n      pop\n        /* \"#utility.yul\":25711:25712   */\n      dup3\n        /* \"#utility.yul\":25701:25736   */\n      tag_586\n      jumpi\n        /* \"#utility.yul\":25716:25734   */\n      tag_587\n      tag_550\n      jump\t// in\n    tag_587:\n        /* \"#utility.yul\":25701:25736   */\n    tag_586:\n        /* \"#utility.yul\":25757:25758   */\n      dup3\n        /* \"#utility.yul\":25754:25755   */\n      dup3\n        /* \"#utility.yul\":25750:25759   */\n      mod\n        /* \"#utility.yul\":25745:25759   */\n      swap1\n      pop\n        /* \"#utility.yul\":25589:25765   */\n      swap3\n      swap2\n      pop\n      pop\n      jump\t// out\n        /* \"#utility.yul\":25771:25951   */\n    tag_544:\n        /* \"#utility.yul\":25819:25896   */\n      0x4e487b7100000000000000000000000000000000000000000000000000000000\n        /* \"#utility.yul\":25816:25817   */\n      0x00\n        /* \"#utility.yul\":25809:25897   */\n      mstore\n        /* \"#utility.yul\":25916:25920   */\n      0x11\n        /* \"#utility.yul\":25913:25914   */\n      0x04\n        /* \"#utility.yul\":25906:25921   */\n      mstore\n        /* \"#utility.yul\":25940:25944   */\n      0x24\n        /* \"#utility.yul\":25937:25938   */\n      0x00\n        /* \"#utility.yul\":25930:25945   */\n      revert\n        /* \"#utility.yul\":25957:26137   */\n    tag_550:\n        /* \"#utility.yul\":26005:26082   */\n      0x4e487b7100000000000000000000000000000000000000000000000000000000\n        /* \"#utility.yul\":26002:26003   */\n      0x00\n        /* \"#utility.yul\":25995:26083   */\n      mstore\n        /* \"#utility.yul\":26102:26106   */\n      0x12\n        /* \"#utility.yul\":26099:26100   */\n      0x04\n        /* \"#utility.yul\":26092:26107   */\n      mstore\n        /* \"#utility.yul\":26126:26130   */\n      0x24\n        /* \"#utility.yul\":26123:26124   */\n      0x00\n        /* \"#utility.yul\":26116:26131   */\n      revert\n        /* \"#utility.yul\":26143:26323   */\n    tag_574:\n        /* \"#utility.yul\":26191:26268   */\n      0x4e487b7100000000000000000000000000000000000000000000000000000000\n        /* \"#utility.yul\":26188:26189   */\n      0x00\n        /* \"#utility.yul\":26181:26269   */\n      mstore\n        /* \"#utility.yul\":26288:26292   */\n      0x22\n        /* \"#utility.yul\":26285:26286   */\n      0x04\n        /* \"#utility.yul\":26278:26293   */\n      mstore\n        /* \"#utility.yul\":26312:26316   */\n      0x24\n        /* \"#utility.yul\":26309:26310   */\n      0x00\n        /* \"#utility.yul\":26302:26317   */\n      revert\n        /* \"#utility.yul\":26329:26509   */\n    tag_245:\n        /* \"#utility.yul\":26377:26454   */\n      0x4e487b7100000000000000000000000000000000000000000000000000000000\n        /* \"#utility.yul\":26374:26375   */\n      0x00\n        /* \"#utility.yul\":26367:26455   */\n      mstore\n        /* \"#utility.yul\":26474:26478   */\n      0x32\n        /* \"#utility.yul\":26471:26472   */\n      0x04\n        /* \"#utility.yul\":26464:26479   */\n      mstore\n        /* \"#utility.yul\":26498:26502   */\n      0x24\n        /* \"#utility.yul\":26495:26496   */\n      0x00\n        /* \"#utility.yul\":26488:26503   */\n      revert\n        /* \"#utility.yul\":26515:26695   */\n    tag_235:\n        /* \"#utility.yul\":26563:26640   */\n      0x4e487b7100000000000000000000000000000000000000000000000000000000\n        /* \"#utility.yul\":26560:26561   */\n      0x00\n        /* \"#utility.yul\":26553:26641   */\n      mstore\n        /* \"#utility.yul\":26660:26664   */\n      0x41\n        /* \"#utility.yul\":26657:26658   */\n      0x04\n        /* \"#utility.yul\":26650:26665   */\n      mstore\n        /* \"#utility.yul\":26684:26688   */\n      0x24\n        /* \"#utility.yul\":26681:26682   */\n      0x00\n        /* \"#utility.yul\":26674:26689   */\n      revert\n        /* \"#utility.yul\":26701:26818   */\n    tag_311:\n        /* \"#utility.yul\":26810:26811   */\n      0x00\n        /* \"#utility.yul\":26807:26808   */\n      dup1\n        /* \"#utility.yul\":26800:26812   */\n      revert\n        /* \"#utility.yul\":26824:26941   */\n    tag_281:\n        /* \"#utility.yul\":26933:26934   */\n      0x00\n        /* \"#utility.yul\":26930:26931   */\n      dup1\n        /* \"#utility.yul\":26923:26935   */\n      revert\n        /* \"#utility.yul\":26947:27064   */\n    tag_346:\n        /* \"#utility.yul\":27056:27057   */\n      0x00\n        /* \"#utility.yul\":27053:27054   */\n      dup1\n        /* \"#utility.yul\":27046:27058   */\n      revert\n        /* \"#utility.yul\":27070:27187   */\n    tag_325:\n        /* \"#utility.yul\":27179:27180   */\n      0x00\n        /* \"#utility.yul\":27176:27177   */\n      dup1\n        /* \"#utility.yul\":27169:27181   */\n      revert\n        /* \"#utility.yul\":27193:27295   */\n    tag_401:\n        /* \"#utility.yul\":27234:27240   */\n      0x00\n        /* \"#utility.yul\":27285:27287   */\n      0x1f\n        /* \"#utility.yul\":27281:27288   */\n      not\n        /* \"#utility.yul\":27276:27278   */\n      0x1f\n        /* \"#utility.yul\":27269:27274   */\n      dup4\n        /* \"#utility.yul\":27265:27279   */\n      add\n        /* \"#utility.yul\":27261:27289   */\n      and\n        /* \"#utility.yul\":27251:27289   */\n      swap1\n      pop\n        /* \"#utility.yul\":27193:27295   */\n      swap2\n      swap1\n      pop\n      jump\t// out\n        /* \"#utility.yul\":27301:27538   */\n    tag_420:\n        /* \"#utility.yul\":27441:27475   */\n      0x4552433732313a207472616e7366657220746f206e6f6e204552433732315265\n        /* \"#utility.yul\":27437:27438   */\n      0x00\n        /* \"#utility.yul\":27429:27435   */\n      dup3\n        /* \"#utility.yul\":27425:27439   */\n      add\n        /* \"#utility.yul\":27418:27476   */\n      mstore\n        /* \"#utility.yul\":27510:27530   */\n      0x63656976657220696d706c656d656e7465720000000000000000000000000000\n        /* \"#utility.yul\":27505:27507   */\n      0x20\n        /* \"#utility.yul\":27497:27503   */\n      dup3\n        /* \"#utility.yul\":27493:27508   */\n      add\n        /* \"#utility.yul\":27486:27531   */\n      mstore\n        /* \"#utility.yul\":27301:27538   */\n      pop\n      jump\t// out\n        /* \"#utility.yul\":27544:27768   */\n    tag_425:\n        /* \"#utility.yul\":27684:27718   */\n      0x4552433732313a207472616e736665722066726f6d20696e636f727265637420\n        /* \"#utility.yul\":27680:27681   */\n      0x00\n        /* \"#utility.yul\":27672:27678   */\n      dup3\n        /* \"#utility.yul\":27668:27682   */\n      add\n        /* \"#utility.yul\":27661:27719   */\n      mstore\n        /* \"#utility.yul\":27753:27760   */\n      0x6f776e6572000000000000000000000000000000000000000000000000000000\n        /* \"#utility.yul\":27748:27750   */\n      0x20\n        /* \"#utility.yul\":27740:27746   */\n      dup3\n        /* \"#utility.yul\":27736:27751   */\n      add\n        /* \"#utility.yul\":27729:27761   */\n      mstore\n        /* \"#utility.yul\":27544:27768   */\n      pop\n      jump\t// out\n        /* \"#utility.yul\":27774:27997   */\n    tag_430:\n        /* \"#utility.yul\":27914:27948   */\n      0x4552433732313a207472616e7366657220746f20746865207a65726f20616464\n        /* \"#utility.yul\":27910:27911   */\n      0x00\n        /* \"#utility.yul\":27902:27908   */\n      dup3\n        /* \"#utility.yul\":27898:27912   */\n      add\n        /* \"#utility.yul\":27891:27949   */\n      mstore\n        /* \"#utility.yul\":27983:27989   */\n      0x7265737300000000000000000000000000000000000000000000000000000000\n        /* \"#utility.yul\":27978:27980   */\n      0x20\n        /* \"#utility.yul\":27970:27976   */\n      dup3\n        /* \"#utility.yul\":27966:27981   */\n      add\n        /* \"#utility.yul\":27959:27990   */\n      mstore\n        /* \"#utility.yul\":27774:27997   */\n      pop\n      jump\t// out\n        /* \"#utility.yul\":28003:28178   */\n    tag_435:\n        /* \"#utility.yul\":28143:28170   */\n      0x4552433732313a20617070726f766520746f2063616c6c657200000000000000\n        /* \"#utility.yul\":28139:28140   */\n      0x00\n        /* \"#utility.yul\":28131:28137   */\n      dup3\n        /* \"#utility.yul\":28127:28141   */\n      add\n        /* \"#utility.yul\":28120:28171   */\n      mstore\n        /* \"#utility.yul\":28003:28178   */\n      pop\n      jump\t// out\n        /* \"#utility.yul\":28184:28415   */\n    tag_440:\n        /* \"#utility.yul\":28324:28358   */\n      0x4552433732313a206f70657261746f7220717565727920666f72206e6f6e6578\n        /* \"#utility.yul\":28320:28321   */\n      0x00\n        /* \"#utility.yul\":28312:28318   */\n      dup3\n        /* \"#utility.yul\":28308:28322   */\n      add\n        /* \"#utility.yul\":28301:28359   */\n      mstore\n        /* \"#utility.yul\":28393:28407   */\n      0x697374656e7420746f6b656e0000000000000000000000000000000000000000\n        /* \"#utility.yul\":28388:28390   */\n      0x20\n        /* \"#utility.yul\":28380:28386   */\n      dup3\n        /* \"#utility.yul\":28376:28391   */\n      add\n        /* \"#utility.yul\":28369:28408   */\n      mstore\n        /* \"#utility.yul\":28184:28415   */\n      pop\n      jump\t// out\n        /* \"#utility.yul\":28421:28649   */\n    tag_445:\n        /* \"#utility.yul\":28561:28595   */\n      0x4552433732313a2061646472657373207a65726f206973206e6f742061207661\n        /* \"#utility.yul\":28557:28558   */\n      0x00\n        /* \"#utility.yul\":28549:28555   */\n      dup3\n        /* \"#utility.yul\":28545:28559   */\n      add\n        /* \"#utility.yul\":28538:28596   */\n      mstore\n        /* \"#utility.yul\":28630:28641   */\n      0x6c6964206f776e65720000000000000000000000000000000000000000000000\n        /* \"#utility.yul\":28625:28627   */\n      0x20\n        /* \"#utility.yul\":28617:28623   */\n      dup3\n        /* \"#utility.yul\":28613:28628   */\n      add\n        /* \"#utility.yul\":28606:28642   */\n      mstore\n        /* \"#utility.yul\":28421:28649   */\n      pop\n      jump\t// out\n        /* \"#utility.yul\":28655:28898   */\n    tag_450:\n        /* \"#utility.yul\":28795:28829   */\n      0x4552433732313a20617070726f76652063616c6c6572206973206e6f74206f77\n        /* \"#utility.yul\":28791:28792   */\n      0x00\n        /* \"#utility.yul\":28783:28789   */\n      dup3\n        /* \"#utility.yul\":28779:28793   */\n      add\n        /* \"#utility.yul\":28772:28830   */\n      mstore\n        /* \"#utility.yul\":28864:28890   */\n      0x6e6572206e6f7220617070726f76656420666f7220616c6c0000000000000000\n        /* \"#utility.yul\":28859:28861   */\n      0x20\n        /* \"#utility.yul\":28851:28857   */\n      dup3\n        /* \"#utility.yul\":28847:28862   */\n      add\n        /* \"#utility.yul\":28840:28891   */\n      mstore\n        /* \"#utility.yul\":28655:28898   */\n      pop\n      jump\t// out\n        /* \"#utility.yul\":28904:29132   */\n    tag_455:\n        /* \"#utility.yul\":29044:29078   */\n      0x4552433732313a206f776e657220717565727920666f72206e6f6e6578697374\n        /* \"#utility.yul\":29040:29041   */\n      0x00\n        /* \"#utility.yul\":29032:29038   */\n      dup3\n        /* \"#utility.yul\":29028:29042   */\n      add\n        /* \"#utility.yul\":29021:29079   */\n      mstore\n        /* \"#utility.yul\":29113:29124   */\n      0x656e7420746f6b656e0000000000000000000000000000000000000000000000\n        /* \"#utility.yul\":29108:29110   */\n      0x20\n        /* \"#utility.yul\":29100:29106   */\n      dup3\n        /* \"#utility.yul\":29096:29111   */\n      add\n        /* \"#utility.yul\":29089:29125   */\n      mstore\n        /* \"#utility.yul\":28904:29132   */\n      pop\n      jump\t// out\n        /* \"#utility.yul\":29138:29369   */\n    tag_460:\n        /* \"#utility.yul\":29278:29312   */\n      0x4552433732313a20617070726f76656420717565727920666f72206e6f6e6578\n        /* \"#utility.yul\":29274:29275   */\n      0x00\n        /* \"#utility.yul\":29266:29272   */\n      dup3\n        /* \"#utility.yul\":29262:29276   */\n      add\n        /* \"#utility.yul\":29255:29313   */\n      mstore\n        /* \"#utility.yul\":29347:29361   */\n      0x697374656e7420746f6b656e0000000000000000000000000000000000000000\n        /* \"#utility.yul\":29342:29344   */\n      0x20\n        /* \"#utility.yul\":29334:29340   */\n      dup3\n        /* \"#utility.yul\":29330:29345   */\n      add\n        /* \"#utility.yul\":29323:29362   */\n      mstore\n        /* \"#utility.yul\":29138:29369   */\n      pop\n      jump\t// out\n        /* \"#utility.yul\":29375:29609   */\n    tag_465:\n        /* \"#utility.yul\":29515:29549   */\n      0x4552433732314d657461646174613a2055524920717565727920666f72206e6f\n        /* \"#utility.yul\":29511:29512   */\n      0x00\n        /* \"#utility.yul\":29503:29509   */\n      dup3\n        /* \"#utility.yul\":29499:29513   */\n      add\n        /* \"#utility.yul\":29492:29550   */\n      mstore\n        /* \"#utility.yul\":29584:29601   */\n      0x6e6578697374656e7420746f6b656e0000000000000000000000000000000000\n        /* \"#utility.yul\":29579:29581   */\n      0x20\n        /* \"#utility.yul\":29571:29577   */\n      dup3\n        /* \"#utility.yul\":29567:29582   */\n      add\n        /* \"#utility.yul\":29560:29602   */\n      mstore\n        /* \"#utility.yul\":29375:29609   */\n      pop\n      jump\t// out\n        /* \"#utility.yul\":29615:29835   */\n    tag_470:\n        /* \"#utility.yul\":29755:29789   */\n      0x4552433732313a20617070726f76616c20746f2063757272656e74206f776e65\n        /* \"#utility.yul\":29751:29752   */\n      0x00\n        /* \"#utility.yul\":29743:29749   */\n      dup3\n        /* \"#utility.yul\":29739:29753   */\n      add\n        /* \"#utility.yul\":29732:29790   */\n      mstore\n        /* \"#utility.yul\":29824:29827   */\n      0x7200000000000000000000000000000000000000000000000000000000000000\n        /* \"#utility.yul\":29819:29821   */\n      0x20\n        /* \"#utility.yul\":29811:29817   */\n      dup3\n        /* \"#utility.yul\":29807:29822   */\n      add\n        /* \"#utility.yul\":29800:29828   */\n      mstore\n        /* \"#utility.yul\":29615:29835   */\n      pop\n      jump\t// out\n        /* \"#utility.yul\":29841:30077   */\n    tag_475:\n        /* \"#utility.yul\":29981:30015   */\n      0x4552433732313a207472616e736665722063616c6c6572206973206e6f74206f\n        /* \"#utility.yul\":29977:29978   */\n      0x00\n        /* \"#utility.yul\":29969:29975   */\n      dup3\n        /* \"#utility.yul\":29965:29979   */\n      add\n        /* \"#utility.yul\":29958:30016   */\n      mstore\n        /* \"#utility.yul\":30050:30069   */\n      0x776e6572206e6f7220617070726f766564000000000000000000000000000000\n        /* \"#utility.yul\":30045:30047   */\n      0x20\n        /* \"#utility.yul\":30037:30043   */\n      dup3\n        /* \"#utility.yul\":30033:30048   */\n      add\n        /* \"#utility.yul\":30026:30070   */\n      mstore\n        /* \"#utility.yul\":29841:30077   */\n      pop\n      jump\t// out\n        /* \"#utility.yul\":30083:30205   */\n    tag_295:\n        /* \"#utility.yul\":30156:30180   */\n      tag_611\n        /* \"#utility.yul\":30174:30179   */\n      dup2\n        /* \"#utility.yul\":30156:30180   */\n      tag_387\n      jump\t// in\n    tag_611:\n        /* \"#utility.yul\":30149:30154   */\n      dup2\n        /* \"#utility.yul\":30146:30181   */\n      eq\n        /* \"#utility.yul\":30136:30199   */\n      tag_612\n      jumpi\n        /* \"#utility.yul\":30195:30196   */\n      0x00\n        /* \"#utility.yul\":30192:30193   */\n      dup1\n        /* \"#utility.yul\":30185:30197   */\n      revert\n        /* \"#utility.yul\":30136:30199   */\n    tag_612:\n        /* \"#utility.yul\":30083:30205   */\n      pop\n      jump\t// out\n        /* \"#utility.yul\":30211:30327   */\n    tag_299:\n        /* \"#utility.yul\":30281:30302   */\n      tag_614\n        /* \"#utility.yul\":30296:30301   */\n      dup2\n        /* \"#utility.yul\":30281:30302   */\n      tag_391\n      jump\t// in\n    tag_614:\n        /* \"#utility.yul\":30274:30279   */\n      dup2\n        /* \"#utility.yul\":30271:30303   */\n      eq\n        /* \"#utility.yul\":30261:30321   */\n      tag_615\n      jumpi\n        /* \"#utility.yul\":30317:30318   */\n      0x00\n        /* \"#utility.yul\":30314:30315   */\n      dup1\n        /* \"#utility.yul\":30307:30319   */\n      revert\n        /* \"#utility.yul\":30261:30321   */\n    tag_615:\n        /* \"#utility.yul\":30211:30327   */\n      pop\n      jump\t// out\n        /* \"#utility.yul\":30333:30453   */\n    tag_303:\n        /* \"#utility.yul\":30405:30428   */\n      tag_617\n        /* \"#utility.yul\":30422:30427   */\n      dup2\n        /* \"#utility.yul\":30405:30428   */\n      tag_560\n      jump\t// in\n    tag_617:\n        /* \"#utility.yul\":30398:30403   */\n      dup2\n        /* \"#utility.yul\":30395:30429   */\n      eq\n        /* \"#utility.yul\":30385:30447   */\n      tag_618\n      jumpi\n        /* \"#utility.yul\":30443:30444   */\n      0x00\n        /* \"#utility.yul\":30440:30441   */\n      dup1\n        /* \"#utility.yul\":30433:30445   */\n      revert\n        /* \"#utility.yul\":30385:30447   */\n    tag_618:\n        /* \"#utility.yul\":30333:30453   */\n      pop\n      jump\t// out\n        /* \"#utility.yul\":30459:30581   */\n    tag_321:\n        /* \"#utility.yul\":30532:30556   */\n      tag_620\n        /* \"#utility.yul\":30550:30555   */\n      dup2\n        /* \"#utility.yul\":30532:30556   */\n      tag_479\n      jump\t// in\n    tag_620:\n        /* \"#utility.yul\":30525:30530   */\n      dup2\n        /* \"#utility.yul\":30522:30557   */\n      eq\n        /* \"#utility.yul\":30512:30575   */\n      tag_621\n      jumpi\n        /* \"#utility.yul\":30571:30572   */\n      0x00\n        /* \"#utility.yul\":30568:30569   */\n      dup1\n        /* \"#utility.yul\":30561:30573   */\n      revert\n        /* \"#utility.yul\":30512:30575   */\n    tag_621:\n        /* \"#utility.yul\":30459:30581   */\n      pop\n      jump\t// out\n\n    auxdata: 0xa264697066735822122067a7ffa7da6a8c3ff8d28fb6e72dacf062f1b0d5d3eab8a312b6b7fc6cca2a7464736f6c63430008070033\n}\n",
				"bytecode": {
					"linkReferences": {},
					"object": "60806040523480156200001157600080fd5b506040518060400160405280600a81526020017f486f757365546f6b656e000000000000000000000000000000000000000000008152506040518060400160405280600281526020017f4854000000000000000000000000000000000000000000000000000000000000815250816000908051906020019062000096929190620000b8565b508060019080519060200190620000af929190620000b8565b505050620001cd565b828054620000c69062000168565b90600052602060002090601f016020900481019282620000ea576000855562000136565b82601f106200010557805160ff191683800117855562000136565b8280016001018555821562000136579182015b828111156200013557825182559160200191906001019062000118565b5b50905062000145919062000149565b5090565b5b80821115620001645760008160009055506001016200014a565b5090565b600060028204905060018216806200018157607f821691505b602082108114156200019857620001976200019e565b5b50919050565b7f4e487b7100000000000000000000000000000000000000000000000000000000600052602260045260246000fd5b61266780620001dd6000396000f3fe608060405234801561001057600080fd5b506004361061010b5760003560e01c80636352211e116100a2578063a22cb46511610071578063a22cb465146102a6578063b88d4fde146102c2578063c1e41307146102de578063c87b56dd1461030e578063e985e9c51461033e5761010b565b80636352211e1461020a57806370a082311461023a57806395d89b411461026a578063a19af1ad146102885761010b565b806323b872dd116100de57806323b872dd146101aa57806336c8af5d146101c657806342842e0e146101e45780635ff27f13146102005761010b565b806301ffc9a71461011057806306fdde0314610140578063081812fc1461015e578063095ea7b31461018e575b600080fd5b61012a600480360381019061012591906117db565b61036e565b6040516101379190611c47565b60405180910390f35b610148610450565b6040516101559190611c62565b60405180910390f35b61017860048036038101906101739190611835565b6104e2565b6040516101859190611be0565b60405180910390f35b6101a860048036038101906101a3919061179b565b610567565b005b6101c460048036038101906101bf9190611685565b61067f565b005b6101ce6106df565b6040516101db9190611e04565b60405180910390f35b6101fe60048036038101906101f99190611685565b6106e9565b005b610208610709565b005b610224600480360381019061021f9190611835565b610726565b6040516102319190611be0565b60405180910390f35b610254600480360381019061024f9190611618565b6107d8565b6040516102619190611e04565b60405180910390f35b610272610890565b60405161027f9190611c62565b60405180910390f35b610290610922565b60405161029d9190611e04565b60405180910390f35b6102c060048036038101906102bb919061175b565b61092c565b005b6102dc60048036038101906102d791906116d8565b610942565b005b6102f860048036038101906102f39190611862565b6109a4565b6040516103059190611e04565b60405180910390f35b61032860048036038101906103239190611835565b6109b3565b6040516103359190611c62565b60405180910390f35b61035860048036038101906103539190611645565b610a5a565b6040516103659190611c47565b60405180910390f35b60007f80ac58cd000000000000000000000000000000000000000000000000000000007bffffffffffffffffffffffffffffffffffffffffffffffffffffffff1916827bffffffffffffffffffffffffffffffffffffffffffffffffffffffff1916148061043957507f5b5e139f000000000000000000000000000000000000000000000000000000007bffffffffffffffffffffffffffffffffffffffffffffffffffffffff1916827bffffffffffffffffffffffffffffffffffffffffffffffffffffffff1916145b80610449575061044882610aee565b5b9050919050565b60606000805461045f9061205a565b80601f016020809104026020016040519081016040528092919081815260200182805461048b9061205a565b80156104d85780601f106104ad576101008083540402835291602001916104d8565b820191906000526020600020905b8154815290600101906020018083116104bb57829003601f168201915b5050505050905090565b60006104ed82610b58565b61052c576040517f08c379a000000000000000000000000000000000000000000000000000000000815260040161052390611d84565b60405180910390fd5b6004600083815260200190815260200160002060009054906101000a900473ffffffffffffffffffffffffffffffffffffffff169050919050565b600061057282610726565b90508073ffffffffffffffffffffffffffffffffffffffff168373ffffffffffffffffffffffffffffffffffffffff1614156105e3576040517f08c379a00000000000000000000000000000000000000000000000000000000081526004016105da90611dc4565b60405180910390fd5b8073ffffffffffffffffffffffffffffffffffffffff16610602610bc4565b73ffffffffffffffffffffffffffffffffffffffff16148061063157506106308161062b610bc4565b610a5a565b5b610670576040517f08c379a000000000000000000000000000000000000000000000000000000000815260040161066790611d44565b60405180910390fd5b61067a8383610bcc565b505050565b61069061068a610bc4565b82610c85565b6106cf576040517f08c379a00000000000000000000000000000000000000000000000000000000081526004016106c690611de4565b60405180910390fd5b6106da838383610d63565b505050565b6000600654905090565b61070483838360405180602001604052806000815250610942565b505050565b6001600e60006101000a81548160ff021916908315150217905550565b6000806002600084815260200190815260200160002060009054906101000a900473ffffffffffffffffffffffffffffffffffffffff169050600073ffffffffffffffffffffffffffffffffffffffff168173ffffffffffffffffffffffffffffffffffffffff1614156107cf576040517f08c379a00000000000000000000000000000000000000000000000000000000081526004016107c690611d64565b60405180910390fd5b80915050919050565b60008073ffffffffffffffffffffffffffffffffffffffff168273ffffffffffffffffffffffffffffffffffffffff161415610849576040517f08c379a000000000000000000000000000000000000000000000000000000000815260040161084090611d24565b60405180910390fd5b600360008373ffffffffffffffffffffffffffffffffffffffff1673ffffffffffffffffffffffffffffffffffffffff168152602001908152602001600020549050919050565b60606001805461089f9061205a565b80601f01602080910402602001604051908101604052809291908181526020018280546108cb9061205a565b80156109185780601f106108ed57610100808354040283529160200191610918565b820191906000526020600020905b8154815290600101906020018083116108fb57829003601f168201915b5050505050905090565b6000600854905090565b61093e610937610bc4565b8383610fca565b5050565b61095361094d610bc4565b83610c85565b610992576040517f08c379a000000000000000000000000000000000000000000000000000000000815260040161098990611de4565b60405180910390fd5b61099e84848484611137565b50505050565b60009998505050505050505050565b60606109be82610b58565b6109fd576040517f08c379a00000000000000000000000000000000000000000000000000000000081526004016109f490611da4565b60405180910390fd5b6000610a07611193565b90506000815111610a275760405180602001604052806000815250610a52565b80610a31846111aa565b604051602001610a42929190611bbc565b6040516020818303038152906040525b915050919050565b6000600560008473ffffffffffffffffffffffffffffffffffffffff1673ffffffffffffffffffffffffffffffffffffffff16815260200190815260200160002060008373ffffffffffffffffffffffffffffffffffffffff1673ffffffffffffffffffffffffffffffffffffffff16815260200190815260200160002060009054906101000a900460ff16905092915050565b60007f01ffc9a7000000000000000000000000000000000000000000000000000000007bffffffffffffffffffffffffffffffffffffffffffffffffffffffff1916827bffffffffffffffffffffffffffffffffffffffffffffffffffffffff1916149050919050565b60008073ffffffffffffffffffffffffffffffffffffffff166002600084815260200190815260200160002060009054906101000a900473ffffffffffffffffffffffffffffffffffffffff1673ffffffffffffffffffffffffffffffffffffffff1614159050919050565b600033905090565b816004600083815260200190815260200160002060006101000a81548173ffffffffffffffffffffffffffffffffffffffff021916908373ffffffffffffffffffffffffffffffffffffffff160217905550808273ffffffffffffffffffffffffffffffffffffffff16610c3f83610726565b73ffffffffffffffffffffffffffffffffffffffff167f8c5be1e5ebec7d5bd14f71427d1e84f3dd0314c0f7b2291e5b200ac8c7c3b92560405160405180910390a45050565b6000610c9082610b58565b610ccf576040517f08c379a0000000000000000000000000000000000000000000000000000000008152600401610cc690611d04565b60405180910390fd5b6000610cda83610726565b90508073ffffffffffffffffffffffffffffffffffffffff168473ffffffffffffffffffffffffffffffffffffffff161480610d1c5750610d1b8185610a5a565b5b80610d5a57508373ffffffffffffffffffffffffffffffffffffffff16610d42846104e2565b73ffffffffffffffffffffffffffffffffffffffff16145b91505092915050565b8273ffffffffffffffffffffffffffffffffffffffff16610d8382610726565b73ffffffffffffffffffffffffffffffffffffffff1614610dd9576040517f08c379a0000000000000000000000000000000000000000000000000000000008152600401610dd090611ca4565b60405180910390fd5b600073ffffffffffffffffffffffffffffffffffffffff168273ffffffffffffffffffffffffffffffffffffffff161415610e49576040517f08c379a0000000000000000000000000000000000000000000000000000000008152600401610e4090611cc4565b60405180910390fd5b610e5483838361130b565b610e5f600082610bcc565b6001600360008573ffffffffffffffffffffffffffffffffffffffff1673ffffffffffffffffffffffffffffffffffffffff1681526020019081526020016000206000828254610eaf9190611f70565b925050819055506001600360008473ffffffffffffffffffffffffffffffffffffffff1673ffffffffffffffffffffffffffffffffffffffff1681526020019081526020016000206000828254610f069190611ee9565b92505081905550816002600083815260200190815260200160002060006101000a81548173ffffffffffffffffffffffffffffffffffffffff021916908373ffffffffffffffffffffffffffffffffffffffff160217905550808273ffffffffffffffffffffffffffffffffffffffff168473ffffffffffffffffffffffffffffffffffffffff167fddf252ad1be2c89b69c2b068fc378daa952ba7f163c4a11628f55a4df523b3ef60405160405180910390a4610fc5838383611310565b505050565b8173ffffffffffffffffffffffffffffffffffffffff168373ffffffffffffffffffffffffffffffffffffffff161415611039576040517f08c379a000000000000000000000000000000000000000000000000000000000815260040161103090611ce4565b60405180910390fd5b80600560008573ffffffffffffffffffffffffffffffffffffffff1673ffffffffffffffffffffffffffffffffffffffff16815260200190815260200160002060008473ffffffffffffffffffffffffffffffffffffffff1673ffffffffffffffffffffffffffffffffffffffff16815260200190815260200160002060006101000a81548160ff0219169083151502179055508173ffffffffffffffffffffffffffffffffffffffff168373ffffffffffffffffffffffffffffffffffffffff167f17307eab39ab6107e8899845ad3d59bd9653f200f220920489ca2b5937696c318360405161112a9190611c47565b60405180910390a3505050565b611142848484610d63565b61114e84848484611315565b61118d576040517f08c379a000000000000000000000000000000000000000000000000000000000815260040161118490611c84565b60405180910390fd5b50505050565b606060405180602001604052806000815250905090565b606060008214156111f2576040518060400160405280600181526020017f30000000000000000000000000000000000000000000000000000000000000008152509050611306565b600082905060005b6000821461122457808061120d906120bd565b915050600a8261121d9190611f3f565b91506111fa565b60008167ffffffffffffffff8111156112405761123f6121f3565b5b6040519080825280601f01601f1916602001820160405280156112725781602001600182028036833780820191505090505b5090505b600085146112ff5760018261128b9190611f70565b9150600a8561129a9190612106565b60306112a69190611ee9565b60f81b8183815181106112bc576112bb6121c4565b5b60200101907effffffffffffffffffffffffffffffffffffffffffffffffffffffffffffff1916908160001a905350600a856112f89190611f3f565b9450611276565b8093505050505b919050565b505050565b505050565b60006113368473ffffffffffffffffffffffffffffffffffffffff166114ac565b1561149f578373ffffffffffffffffffffffffffffffffffffffff1663150b7a0261135f610bc4565b8786866040518563ffffffff1660e01b81526004016113819493929190611bfb565b602060405180830381600087803b15801561139b57600080fd5b505af19250505080156113cc57506040513d601f19601f820116820180604052508101906113c99190611808565b60015b61144f573d80600081146113fc576040519150601f19603f3d011682016040523d82523d6000602084013e611401565b606091505b50600081511415611447576040517f08c379a000000000000000000000000000000000000000000000000000000000815260040161143e90611c84565b60405180910390fd5b805181602001fd5b63150b7a0260e01b7bffffffffffffffffffffffffffffffffffffffffffffffffffffffff1916817bffffffffffffffffffffffffffffffffffffffffffffffffffffffff1916149150506114a4565b600190505b949350505050565b6000808273ffffffffffffffffffffffffffffffffffffffff163b119050919050565b60006114e26114dd84611e44565b611e1f565b9050828152602081018484840111156114fe576114fd612227565b5b611509848285612018565b509392505050565b600061152461151f84611e75565b611e1f565b9050828152602081018484840111156115405761153f612227565b5b61154b848285612018565b509392505050565b600081359050611562816125d5565b92915050565b600081359050611577816125ec565b92915050565b60008135905061158c81612603565b92915050565b6000815190506115a181612603565b92915050565b600082601f8301126115bc576115bb612222565b5b81356115cc8482602086016114cf565b91505092915050565b600082601f8301126115ea576115e9612222565b5b81356115fa848260208601611511565b91505092915050565b6000813590506116128161261a565b92915050565b60006020828403121561162e5761162d612231565b5b600061163c84828501611553565b91505092915050565b6000806040838503121561165c5761165b612231565b5b600061166a85828601611553565b925050602061167b85828601611553565b9150509250929050565b60008060006060848603121561169e5761169d612231565b5b60006116ac86828701611553565b93505060206116bd86828701611553565b92505060406116ce86828701611603565b9150509250925092565b600080600080608085870312156116f2576116f1612231565b5b600061170087828801611553565b945050602061171187828801611553565b935050604061172287828801611603565b925050606085013567ffffffffffffffff8111156117435761174261222c565b5b61174f878288016115a7565b91505092959194509250565b6000806040838503121561177257611771612231565b5b600061178085828601611553565b925050602061179185828601611568565b9150509250929050565b600080604083850312156117b2576117b1612231565b5b60006117c085828601611553565b92505060206117d185828601611603565b9150509250929050565b6000602082840312156117f1576117f0612231565b5b60006117ff8482850161157d565b91505092915050565b60006020828403121561181e5761181d612231565b5b600061182c84828501611592565b91505092915050565b60006020828403121561184b5761184a612231565b5b600061185984828501611603565b91505092915050565b60008060008060008060008060006101208a8c03121561188557611884612231565b5b60006118938c828d01611603565b99505060206118a48c828d01611603565b98505060406118b58c828d01611603565b97505060606118c68c828d01611603565b96505060806118d78c828d01611603565b95505060a06118e88c828d01611553565b94505060c06118f98c828d01611553565b93505060e08a013567ffffffffffffffff81111561191a5761191961222c565b5b6119268c828d016115d5565b9250506101006119388c828d01611568565b9150509295985092959850929598565b61195181611fa4565b82525050565b61196081611fb6565b82525050565b600061197182611ea6565b61197b8185611ebc565b935061198b818560208601612027565b61199481612236565b840191505092915050565b60006119aa82611eb1565b6119b48185611ecd565b93506119c4818560208601612027565b6119cd81612236565b840191505092915050565b60006119e382611eb1565b6119ed8185611ede565b93506119fd818560208601612027565b80840191505092915050565b6000611a16603283611ecd565b9150611a2182612247565b604082019050919050565b6000611a39602583611ecd565b9150611a4482612296565b604082019050919050565b6000611a5c602483611ecd565b9150611a67826122e5565b604082019050919050565b6000611a7f601983611ecd565b9150611a8a82612334565b602082019050919050565b6000611aa2602c83611ecd565b9150611aad8261235d565b604082019050919050565b6000611ac5602983611ecd565b9150611ad0826123ac565b604082019050919050565b6000611ae8603883611ecd565b9150611af3826123fb565b604082019050919050565b6000611b0b602983611ecd565b9150611b168261244a565b604082019050919050565b6000611b2e602c83611ecd565b9150611b3982612499565b604082019050919050565b6000611b51602f83611ecd565b9150611b5c826124e8565b604082019050919050565b6000611b74602183611ecd565b9150611b7f82612537565b604082019050919050565b6000611b97603183611ecd565b9150611ba282612586565b604082019050919050565b611bb68161200e565b82525050565b6000611bc882856119d8565b9150611bd482846119d8565b91508190509392505050565b6000602082019050611bf56000830184611948565b92915050565b6000608082019050611c106000830187611948565b611c1d6020830186611948565b611c2a6040830185611bad565b8181036060830152611c3c8184611966565b905095945050505050565b6000602082019050611c5c6000830184611957565b92915050565b60006020820190508181036000830152611c7c818461199f565b905092915050565b60006020820190508181036000830152611c9d81611a09565b9050919050565b60006020820190508181036000830152611cbd81611a2c565b9050919050565b60006020820190508181036000830152611cdd81611a4f565b9050919050565b60006020820190508181036000830152611cfd81611a72565b9050919050565b60006020820190508181036000830152611d1d81611a95565b9050919050565b60006020820190508181036000830152611d3d81611ab8565b9050919050565b60006020820190508181036000830152611d5d81611adb565b9050919050565b60006020820190508181036000830152611d7d81611afe565b9050919050565b60006020820190508181036000830152611d9d81611b21565b9050919050565b60006020820190508181036000830152611dbd81611b44565b9050919050565b60006020820190508181036000830152611ddd81611b67565b9050919050565b60006020820190508181036000830152611dfd81611b8a565b9050919050565b6000602082019050611e196000830184611bad565b92915050565b6000611e29611e3a565b9050611e35828261208c565b919050565b6000604051905090565b600067ffffffffffffffff821115611e5f57611e5e6121f3565b5b611e6882612236565b9050602081019050919050565b600067ffffffffffffffff821115611e9057611e8f6121f3565b5b611e9982612236565b9050602081019050919050565b600081519050919050565b600081519050919050565b600082825260208201905092915050565b600082825260208201905092915050565b600081905092915050565b6000611ef48261200e565b9150611eff8361200e565b9250827fffffffffffffffffffffffffffffffffffffffffffffffffffffffffffffffff03821115611f3457611f33612137565b5b828201905092915050565b6000611f4a8261200e565b9150611f558361200e565b925082611f6557611f64612166565b5b828204905092915050565b6000611f7b8261200e565b9150611f868361200e565b925082821015611f9957611f98612137565b5b828203905092915050565b6000611faf82611fee565b9050919050565b60008115159050919050565b60007fffffffff0000000000000000000000000000000000000000000000000000000082169050919050565b600073ffffffffffffffffffffffffffffffffffffffff82169050919050565b6000819050919050565b82818337600083830152505050565b60005b8381101561204557808201518184015260208101905061202a565b83811115612054576000848401525b50505050565b6000600282049050600182168061207257607f821691505b6020821081141561208657612085612195565b5b50919050565b61209582612236565b810181811067ffffffffffffffff821117156120b4576120b36121f3565b5b80604052505050565b60006120c88261200e565b91507fffffffffffffffffffffffffffffffffffffffffffffffffffffffffffffffff8214156120fb576120fa612137565b5b600182019050919050565b60006121118261200e565b915061211c8361200e565b92508261212c5761212b612166565b5b828206905092915050565b7f4e487b7100000000000000000000000000000000000000000000000000000000600052601160045260246000fd5b7f4e487b7100000000000000000000000000000000000000000000000000000000600052601260045260246000fd5b7f4e487b7100000000000000000000000000000000000000000000000000000000600052602260045260246000fd5b7f4e487b7100000000000000000000000000000000000000000000000000000000600052603260045260246000fd5b7f4e487b7100000000000000000000000000000000000000000000000000000000600052604160045260246000fd5b600080fd5b600080fd5b600080fd5b600080fd5b6000601f19601f8301169050919050565b7f4552433732313a207472616e7366657220746f206e6f6e20455243373231526560008201527f63656976657220696d706c656d656e7465720000000000000000000000000000602082015250565b7f4552433732313a207472616e736665722066726f6d20696e636f72726563742060008201527f6f776e6572000000000000000000000000000000000000000000000000000000602082015250565b7f4552433732313a207472616e7366657220746f20746865207a65726f2061646460008201527f7265737300000000000000000000000000000000000000000000000000000000602082015250565b7f4552433732313a20617070726f766520746f2063616c6c657200000000000000600082015250565b7f4552433732313a206f70657261746f7220717565727920666f72206e6f6e657860008201527f697374656e7420746f6b656e0000000000000000000000000000000000000000602082015250565b7f4552433732313a2061646472657373207a65726f206973206e6f74206120766160008201527f6c6964206f776e65720000000000000000000000000000000000000000000000602082015250565b7f4552433732313a20617070726f76652063616c6c6572206973206e6f74206f7760008201527f6e6572206e6f7220617070726f76656420666f7220616c6c0000000000000000602082015250565b7f4552433732313a206f776e657220717565727920666f72206e6f6e657869737460008201527f656e7420746f6b656e0000000000000000000000000000000000000000000000602082015250565b7f4552433732313a20617070726f76656420717565727920666f72206e6f6e657860008201527f697374656e7420746f6b656e0000000000000000000000000000000000000000602082015250565b7f4552433732314d657461646174613a2055524920717565727920666f72206e6f60008201527f6e6578697374656e7420746f6b656e0000000000000000000000000000000000602082015250565b7f4552433732313a20617070726f76616c20746f2063757272656e74206f776e6560008201527f7200000000000000000000000000000000000000000000000000000000000000602082015250565b7f4552433732313a207472616e736665722063616c6c6572206973206e6f74206f60008201527f776e6572206e6f7220617070726f766564000000000000000000000000000000602082015250565b6125de81611fa4565b81146125e957600080fd5b50565b6125f581611fb6565b811461260057600080fd5b50565b61260c81611fc2565b811461261757600080fd5b50565b6126238161200e565b811461262e57600080fd5b5056fea264697066735822122067a7ffa7da6a8c3ff8d28fb6e72dacf062f1b0d5d3eab8a312b6b7fc6cca2a7464736f6c63430008070033",
					"opcodes": "PUSH1 0x80 PUSH1 0x40 MSTORE CALLVALUE DUP1 ISZERO PUSH3 0x11 JUMPI PUSH1 0x0 DUP1 REVERT JUMPDEST POP PUSH1 0x40 MLOAD DUP1 PUSH1 0x40 ADD PUSH1 0x40 MSTORE DUP1 PUSH1 0xA DUP2 MSTORE PUSH1 0x20 ADD PUSH32 0x486F757365546F6B656E00000000000000000000000000000000000000000000 DUP2 MSTORE POP PUSH1 0x40 MLOAD DUP1 PUSH1 0x40 ADD PUSH1 0x40 MSTORE DUP1 PUSH1 0x2 DUP2 MSTORE PUSH1 0x20 ADD PUSH32 0x4854000000000000000000000000000000000000000000000000000000000000 DUP2 MSTORE POP DUP2 PUSH1 0x0 SWAP1 DUP1 MLOAD SWAP1 PUSH1 0x20 ADD SWAP1 PUSH3 0x96 SWAP3 SWAP2 SWAP1 PUSH3 0xB8 JUMP JUMPDEST POP DUP1 PUSH1 0x1 SWAP1 DUP1 MLOAD SWAP1 PUSH1 0x20 ADD SWAP1 PUSH3 0xAF SWAP3 SWAP2 SWAP1 PUSH3 0xB8 JUMP JUMPDEST POP POP POP PUSH3 0x1CD JUMP JUMPDEST DUP3 DUP1 SLOAD PUSH3 0xC6 SWAP1 PUSH3 0x168 JUMP JUMPDEST SWAP1 PUSH1 0x0 MSTORE PUSH1 0x20 PUSH1 0x0 KECCAK256 SWAP1 PUSH1 0x1F ADD PUSH1 0x20 SWAP1 DIV DUP2 ADD SWAP3 DUP3 PUSH3 0xEA JUMPI PUSH1 0x0 DUP6 SSTORE PUSH3 0x136 JUMP JUMPDEST DUP3 PUSH1 0x1F LT PUSH3 0x105 JUMPI DUP1 MLOAD PUSH1 0xFF NOT AND DUP4 DUP1 ADD OR DUP6 SSTORE PUSH3 0x136 JUMP JUMPDEST DUP3 DUP1 ADD PUSH1 0x1 ADD DUP6 SSTORE DUP3 ISZERO PUSH3 0x136 JUMPI SWAP2 DUP3 ADD JUMPDEST DUP3 DUP2 GT ISZERO PUSH3 0x135 JUMPI DUP3 MLOAD DUP3 SSTORE SWAP2 PUSH1 0x20 ADD SWAP2 SWAP1 PUSH1 0x1 ADD SWAP1 PUSH3 0x118 JUMP JUMPDEST JUMPDEST POP SWAP1 POP PUSH3 0x145 SWAP2 SWAP1 PUSH3 0x149 JUMP JUMPDEST POP SWAP1 JUMP JUMPDEST JUMPDEST DUP1 DUP3 GT ISZERO PUSH3 0x164 JUMPI PUSH1 0x0 DUP2 PUSH1 0x0 SWAP1 SSTORE POP PUSH1 0x1 ADD PUSH3 0x14A JUMP JUMPDEST POP SWAP1 JUMP JUMPDEST PUSH1 0x0 PUSH1 0x2 DUP3 DIV SWAP1 POP PUSH1 0x1 DUP3 AND DUP1 PUSH3 0x181 JUMPI PUSH1 0x7F DUP3 AND SWAP2 POP JUMPDEST PUSH1 0x20 DUP3 LT DUP2 EQ ISZERO PUSH3 0x198 JUMPI PUSH3 0x197 PUSH3 0x19E JUMP JUMPDEST JUMPDEST POP SWAP2 SWAP1 POP JUMP JUMPDEST PUSH32 0x4E487B7100000000000000000000000000000000000000000000000000000000 PUSH1 0x0 MSTORE PUSH1 0x22 PUSH1 0x4 MSTORE PUSH1 0x24 PUSH1 0x0 REVERT JUMPDEST PUSH2 0x2667 DUP1 PUSH3 0x1DD PUSH1 0x0 CODECOPY PUSH1 0x0 RETURN INVALID PUSH1 0x80 PUSH1 0x40 MSTORE CALLVALUE DUP1 ISZERO PUSH2 0x10 JUMPI PUSH1 0x0 DUP1 REVERT JUMPDEST POP PUSH1 0x4 CALLDATASIZE LT PUSH2 0x10B JUMPI PUSH1 0x0 CALLDATALOAD PUSH1 0xE0 SHR DUP1 PUSH4 0x6352211E GT PUSH2 0xA2 JUMPI DUP1 PUSH4 0xA22CB465 GT PUSH2 0x71 JUMPI DUP1 PUSH4 0xA22CB465 EQ PUSH2 0x2A6 JUMPI DUP1 PUSH4 0xB88D4FDE EQ PUSH2 0x2C2 JUMPI DUP1 PUSH4 0xC1E41307 EQ PUSH2 0x2DE JUMPI DUP1 PUSH4 0xC87B56DD EQ PUSH2 0x30E JUMPI DUP1 PUSH4 0xE985E9C5 EQ PUSH2 0x33E JUMPI PUSH2 0x10B JUMP JUMPDEST DUP1 PUSH4 0x6352211E EQ PUSH2 0x20A JUMPI DUP1 PUSH4 0x70A08231 EQ PUSH2 0x23A JUMPI DUP1 PUSH4 0x95D89B41 EQ PUSH2 0x26A JUMPI DUP1 PUSH4 0xA19AF1AD EQ PUSH2 0x288 JUMPI PUSH2 0x10B JUMP JUMPDEST DUP1 PUSH4 0x23B872DD GT PUSH2 0xDE JUMPI DUP1 PUSH4 0x23B872DD EQ PUSH2 0x1AA JUMPI DUP1 PUSH4 0x36C8AF5D EQ PUSH2 0x1C6 JUMPI DUP1 PUSH4 0x42842E0E EQ PUSH2 0x1E4 JUMPI DUP1 PUSH4 0x5FF27F13 EQ PUSH2 0x200 JUMPI PUSH2 0x10B JUMP JUMPDEST DUP1 PUSH4 0x1FFC9A7 EQ PUSH2 0x110 JUMPI DUP1 PUSH4 0x6FDDE03 EQ PUSH2 0x140 JUMPI DUP1 PUSH4 0x81812FC EQ PUSH2 0x15E JUMPI DUP1 PUSH4 0x95EA7B3 EQ PUSH2 0x18E JUMPI JUMPDEST PUSH1 0x0 DUP1 REVERT JUMPDEST PUSH2 0x12A PUSH1 0x4 DUP1 CALLDATASIZE SUB DUP2 ADD SWAP1 PUSH2 0x125 SWAP2 SWAP1 PUSH2 0x17DB JUMP JUMPDEST PUSH2 0x36E JUMP JUMPDEST PUSH1 0x40 MLOAD PUSH2 0x137 SWAP2 SWAP1 PUSH2 0x1C47 JUMP JUMPDEST PUSH1 0x40 MLOAD DUP1 SWAP2 SUB SWAP1 RETURN JUMPDEST PUSH2 0x148 PUSH2 0x450 JUMP JUMPDEST PUSH1 0x40 MLOAD PUSH2 0x155 SWAP2 SWAP1 PUSH2 0x1C62 JUMP JUMPDEST PUSH1 0x40 MLOAD DUP1 SWAP2 SUB SWAP1 RETURN JUMPDEST PUSH2 0x178 PUSH1 0x4 DUP1 CALLDATASIZE SUB DUP2 ADD SWAP1 PUSH2 0x173 SWAP2 SWAP1 PUSH2 0x1835 JUMP JUMPDEST PUSH2 0x4E2 JUMP JUMPDEST PUSH1 0x40 MLOAD PUSH2 0x185 SWAP2 SWAP1 PUSH2 0x1BE0 JUMP JUMPDEST PUSH1 0x40 MLOAD DUP1 SWAP2 SUB SWAP1 RETURN JUMPDEST PUSH2 0x1A8 PUSH1 0x4 DUP1 CALLDATASIZE SUB DUP2 ADD SWAP1 PUSH2 0x1A3 SWAP2 SWAP1 PUSH2 0x179B JUMP JUMPDEST PUSH2 0x567 JUMP JUMPDEST STOP JUMPDEST PUSH2 0x1C4 PUSH1 0x4 DUP1 CALLDATASIZE SUB DUP2 ADD SWAP1 PUSH2 0x1BF SWAP2 SWAP1 PUSH2 0x1685 JUMP JUMPDEST PUSH2 0x67F JUMP JUMPDEST STOP JUMPDEST PUSH2 0x1CE PUSH2 0x6DF JUMP JUMPDEST PUSH1 0x40 MLOAD PUSH2 0x1DB SWAP2 SWAP1 PUSH2 0x1E04 JUMP JUMPDEST PUSH1 0x40 MLOAD DUP1 SWAP2 SUB SWAP1 RETURN JUMPDEST PUSH2 0x1FE PUSH1 0x4 DUP1 CALLDATASIZE SUB DUP2 ADD SWAP1 PUSH2 0x1F9 SWAP2 SWAP1 PUSH2 0x1685 JUMP JUMPDEST PUSH2 0x6E9 JUMP JUMPDEST STOP JUMPDEST PUSH2 0x208 PUSH2 0x709 JUMP JUMPDEST STOP JUMPDEST PUSH2 0x224 PUSH1 0x4 DUP1 CALLDATASIZE SUB DUP2 ADD SWAP1 PUSH2 0x21F SWAP2 SWAP1 PUSH2 0x1835 JUMP JUMPDEST PUSH2 0x726 JUMP JUMPDEST PUSH1 0x40 MLOAD PUSH2 0x231 SWAP2 SWAP1 PUSH2 0x1BE0 JUMP JUMPDEST PUSH1 0x40 MLOAD DUP1 SWAP2 SUB SWAP1 RETURN JUMPDEST PUSH2 0x254 PUSH1 0x4 DUP1 CALLDATASIZE SUB DUP2 ADD SWAP1 PUSH2 0x24F SWAP2 SWAP1 PUSH2 0x1618 JUMP JUMPDEST PUSH2 0x7D8 JUMP JUMPDEST PUSH1 0x40 MLOAD PUSH2 0x261 SWAP2 SWAP1 PUSH2 0x1E04 JUMP JUMPDEST PUSH1 0x40 MLOAD DUP1 SWAP2 SUB SWAP1 RETURN JUMPDEST PUSH2 0x272 PUSH2 0x890 JUMP JUMPDEST PUSH1 0x40 MLOAD PUSH2 0x27F SWAP2 SWAP1 PUSH2 0x1C62 JUMP JUMPDEST PUSH1 0x40 MLOAD DUP1 SWAP2 SUB SWAP1 RETURN JUMPDEST PUSH2 0x290 PUSH2 0x922 JUMP JUMPDEST PUSH1 0x40 MLOAD PUSH2 0x29D SWAP2 SWAP1 PUSH2 0x1E04 JUMP JUMPDEST PUSH1 0x40 MLOAD DUP1 SWAP2 SUB SWAP1 RETURN JUMPDEST PUSH2 0x2C0 PUSH1 0x4 DUP1 CALLDATASIZE SUB DUP2 ADD SWAP1 PUSH2 0x2BB SWAP2 SWAP1 PUSH2 0x175B JUMP JUMPDEST PUSH2 0x92C JUMP JUMPDEST STOP JUMPDEST PUSH2 0x2DC PUSH1 0x4 DUP1 CALLDATASIZE SUB DUP2 ADD SWAP1 PUSH2 0x2D7 SWAP2 SWAP1 PUSH2 0x16D8 JUMP JUMPDEST PUSH2 0x942 JUMP JUMPDEST STOP JUMPDEST PUSH2 0x2F8 PUSH1 0x4 DUP1 CALLDATASIZE SUB DUP2 ADD SWAP1 PUSH2 0x2F3 SWAP2 SWAP1 PUSH2 0x1862 JUMP JUMPDEST PUSH2 0x9A4 JUMP JUMPDEST PUSH1 0x40 MLOAD PUSH2 0x305 SWAP2 SWAP1 PUSH2 0x1E04 JUMP JUMPDEST PUSH1 0x40 MLOAD DUP1 SWAP2 SUB SWAP1 RETURN JUMPDEST PUSH2 0x328 PUSH1 0x4 DUP1 CALLDATASIZE SUB DUP2 ADD SWAP1 PUSH2 0x323 SWAP2 SWAP1 PUSH2 0x1835 JUMP JUMPDEST PUSH2 0x9B3 JUMP JUMPDEST PUSH1 0x40 MLOAD PUSH2 0x335 SWAP2 SWAP1 PUSH2 0x1C62 JUMP JUMPDEST PUSH1 0x40 MLOAD DUP1 SWAP2 SUB SWAP1 RETURN JUMPDEST PUSH2 0x358 PUSH1 0x4 DUP1 CALLDATASIZE SUB DUP2 ADD SWAP1 PUSH2 0x353 SWAP2 SWAP1 PUSH2 0x1645 JUMP JUMPDEST PUSH2 0xA5A JUMP JUMPDEST PUSH1 0x40 MLOAD PUSH2 0x365 SWAP2 SWAP1 PUSH2 0x1C47 JUMP JUMPDEST PUSH1 0x40 MLOAD DUP1 SWAP2 SUB SWAP1 RETURN JUMPDEST PUSH1 0x0 PUSH32 0x80AC58CD00000000000000000000000000000000000000000000000000000000 PUSH28 0xFFFFFFFFFFFFFFFFFFFFFFFFFFFFFFFFFFFFFFFFFFFFFFFFFFFFFFFF NOT AND DUP3 PUSH28 0xFFFFFFFFFFFFFFFFFFFFFFFFFFFFFFFFFFFFFFFFFFFFFFFFFFFFFFFF NOT AND EQ DUP1 PUSH2 0x439 JUMPI POP PUSH32 0x5B5E139F00000000000000000000000000000000000000000000000000000000 PUSH28 0xFFFFFFFFFFFFFFFFFFFFFFFFFFFFFFFFFFFFFFFFFFFFFFFFFFFFFFFF NOT AND DUP3 PUSH28 0xFFFFFFFFFFFFFFFFFFFFFFFFFFFFFFFFFFFFFFFFFFFFFFFFFFFFFFFF NOT AND EQ JUMPDEST DUP1 PUSH2 0x449 JUMPI POP PUSH2 0x448 DUP3 PUSH2 0xAEE JUMP JUMPDEST JUMPDEST SWAP1 POP SWAP2 SWAP1 POP JUMP JUMPDEST PUSH1 0x60 PUSH1 0x0 DUP1 SLOAD PUSH2 0x45F SWAP1 PUSH2 0x205A JUMP JUMPDEST DUP1 PUSH1 0x1F ADD PUSH1 0x20 DUP1 SWAP2 DIV MUL PUSH1 0x20 ADD PUSH1 0x40 MLOAD SWAP1 DUP2 ADD PUSH1 0x40 MSTORE DUP1 SWAP3 SWAP2 SWAP1 DUP2 DUP2 MSTORE PUSH1 0x20 ADD DUP3 DUP1 SLOAD PUSH2 0x48B SWAP1 PUSH2 0x205A JUMP JUMPDEST DUP1 ISZERO PUSH2 0x4D8 JUMPI DUP1 PUSH1 0x1F LT PUSH2 0x4AD JUMPI PUSH2 0x100 DUP1 DUP4 SLOAD DIV MUL DUP4 MSTORE SWAP2 PUSH1 0x20 ADD SWAP2 PUSH2 0x4D8 JUMP JUMPDEST DUP3 ADD SWAP2 SWAP1 PUSH1 0x0 MSTORE PUSH1 0x20 PUSH1 0x0 KECCAK256 SWAP1 JUMPDEST DUP2 SLOAD DUP2 MSTORE SWAP1 PUSH1 0x1 ADD SWAP1 PUSH1 0x20 ADD DUP1 DUP4 GT PUSH2 0x4BB JUMPI DUP3 SWAP1 SUB PUSH1 0x1F AND DUP3 ADD SWAP2 JUMPDEST POP POP POP POP POP SWAP1 POP SWAP1 JUMP JUMPDEST PUSH1 0x0 PUSH2 0x4ED DUP3 PUSH2 0xB58 JUMP JUMPDEST PUSH2 0x52C JUMPI PUSH1 0x40 MLOAD PUSH32 0x8C379A000000000000000000000000000000000000000000000000000000000 DUP2 MSTORE PUSH1 0x4 ADD PUSH2 0x523 SWAP1 PUSH2 0x1D84 JUMP JUMPDEST PUSH1 0x40 MLOAD DUP1 SWAP2 SUB SWAP1 REVERT JUMPDEST PUSH1 0x4 PUSH1 0x0 DUP4 DUP2 MSTORE PUSH1 0x20 ADD SWAP1 DUP2 MSTORE PUSH1 0x20 ADD PUSH1 0x0 KECCAK256 PUSH1 0x0 SWAP1 SLOAD SWAP1 PUSH2 0x100 EXP SWAP1 DIV PUSH20 0xFFFFFFFFFFFFFFFFFFFFFFFFFFFFFFFFFFFFFFFF AND SWAP1 POP SWAP2 SWAP1 POP JUMP JUMPDEST PUSH1 0x0 PUSH2 0x572 DUP3 PUSH2 0x726 JUMP JUMPDEST SWAP1 POP DUP1 PUSH20 0xFFFFFFFFFFFFFFFFFFFFFFFFFFFFFFFFFFFFFFFF AND DUP4 PUSH20 0xFFFFFFFFFFFFFFFFFFFFFFFFFFFFFFFFFFFFFFFF AND EQ ISZERO PUSH2 0x5E3 JUMPI PUSH1 0x40 MLOAD PUSH32 0x8C379A000000000000000000000000000000000000000000000000000000000 DUP2 MSTORE PUSH1 0x4 ADD PUSH2 0x5DA SWAP1 PUSH2 0x1DC4 JUMP JUMPDEST PUSH1 0x40 MLOAD DUP1 SWAP2 SUB SWAP1 REVERT JUMPDEST DUP1 PUSH20 0xFFFFFFFFFFFFFFFFFFFFFFFFFFFFFFFFFFFFFFFF AND PUSH2 0x602 PUSH2 0xBC4 JUMP JUMPDEST PUSH20 0xFFFFFFFFFFFFFFFFFFFFFFFFFFFFFFFFFFFFFFFF AND EQ DUP1 PUSH2 0x631 JUMPI POP PUSH2 0x630 DUP2 PUSH2 0x62B PUSH2 0xBC4 JUMP JUMPDEST PUSH2 0xA5A JUMP JUMPDEST JUMPDEST PUSH2 0x670 JUMPI PUSH1 0x40 MLOAD PUSH32 0x8C379A000000000000000000000000000000000000000000000000000000000 DUP2 MSTORE PUSH1 0x4 ADD PUSH2 0x667 SWAP1 PUSH2 0x1D44 JUMP JUMPDEST PUSH1 0x40 MLOAD DUP1 SWAP2 SUB SWAP1 REVERT JUMPDEST PUSH2 0x67A DUP4 DUP4 PUSH2 0xBCC JUMP JUMPDEST POP POP POP JUMP JUMPDEST PUSH2 0x690 PUSH2 0x68A PUSH2 0xBC4 JUMP JUMPDEST DUP3 PUSH2 0xC85 JUMP JUMPDEST PUSH2 0x6CF JUMPI PUSH1 0x40 MLOAD PUSH32 0x8C379A000000000000000000000000000000000000000000000000000000000 DUP2 MSTORE PUSH1 0x4 ADD PUSH2 0x6C6 SWAP1 PUSH2 0x1DE4 JUMP JUMPDEST PUSH1 0x40 MLOAD DUP1 SWAP2 SUB SWAP1 REVERT JUMPDEST PUSH2 0x6DA DUP4 DUP4 DUP4 PUSH2 0xD63 JUMP JUMPDEST POP POP POP JUMP JUMPDEST PUSH1 0x0 PUSH1 0x6 SLOAD SWAP1 POP SWAP1 JUMP JUMPDEST PUSH2 0x704 DUP4 DUP4 DUP4 PUSH1 0x40 MLOAD DUP1 PUSH1 0x20 ADD PUSH1 0x40 MSTORE DUP1 PUSH1 0x0 DUP2 MSTORE POP PUSH2 0x942 JUMP JUMPDEST POP POP POP JUMP JUMPDEST PUSH1 0x1 PUSH1 0xE PUSH1 0x0 PUSH2 0x100 EXP DUP2 SLOAD DUP2 PUSH1 0xFF MUL NOT AND SWAP1 DUP4 ISZERO ISZERO MUL OR SWAP1 SSTORE POP JUMP JUMPDEST PUSH1 0x0 DUP1 PUSH1 0x2 PUSH1 0x0 DUP5 DUP2 MSTORE PUSH1 0x20 ADD SWAP1 DUP2 MSTORE PUSH1 0x20 ADD PUSH1 0x0 KECCAK256 PUSH1 0x0 SWAP1 SLOAD SWAP1 PUSH2 0x100 EXP SWAP1 DIV PUSH20 0xFFFFFFFFFFFFFFFFFFFFFFFFFFFFFFFFFFFFFFFF AND SWAP1 POP PUSH1 0x0 PUSH20 0xFFFFFFFFFFFFFFFFFFFFFFFFFFFFFFFFFFFFFFFF AND DUP2 PUSH20 0xFFFFFFFFFFFFFFFFFFFFFFFFFFFFFFFFFFFFFFFF AND EQ ISZERO PUSH2 0x7CF JUMPI PUSH1 0x40 MLOAD PUSH32 0x8C379A000000000000000000000000000000000000000000000000000000000 DUP2 MSTORE PUSH1 0x4 ADD PUSH2 0x7C6 SWAP1 PUSH2 0x1D64 JUMP JUMPDEST PUSH1 0x40 MLOAD DUP1 SWAP2 SUB SWAP1 REVERT JUMPDEST DUP1 SWAP2 POP POP SWAP2 SWAP1 POP JUMP JUMPDEST PUSH1 0x0 DUP1 PUSH20 0xFFFFFFFFFFFFFFFFFFFFFFFFFFFFFFFFFFFFFFFF AND DUP3 PUSH20 0xFFFFFFFFFFFFFFFFFFFFFFFFFFFFFFFFFFFFFFFF AND EQ ISZERO PUSH2 0x849 JUMPI PUSH1 0x40 MLOAD PUSH32 0x8C379A000000000000000000000000000000000000000000000000000000000 DUP2 MSTORE PUSH1 0x4 ADD PUSH2 0x840 SWAP1 PUSH2 0x1D24 JUMP JUMPDEST PUSH1 0x40 MLOAD DUP1 SWAP2 SUB SWAP1 REVERT JUMPDEST PUSH1 0x3 PUSH1 0x0 DUP4 PUSH20 0xFFFFFFFFFFFFFFFFFFFFFFFFFFFFFFFFFFFFFFFF AND PUSH20 0xFFFFFFFFFFFFFFFFFFFFFFFFFFFFFFFFFFFFFFFF AND DUP2 MSTORE PUSH1 0x20 ADD SWAP1 DUP2 MSTORE PUSH1 0x20 ADD PUSH1 0x0 KECCAK256 SLOAD SWAP1 POP SWAP2 SWAP1 POP JUMP JUMPDEST PUSH1 0x60 PUSH1 0x1 DUP1 SLOAD PUSH2 0x89F SWAP1 PUSH2 0x205A JUMP JUMPDEST DUP1 PUSH1 0x1F ADD PUSH1 0x20 DUP1 SWAP2 DIV MUL PUSH1 0x20 ADD PUSH1 0x40 MLOAD SWAP1 DUP2 ADD PUSH1 0x40 MSTORE DUP1 SWAP3 SWAP2 SWAP1 DUP2 DUP2 MSTORE PUSH1 0x20 ADD DUP3 DUP1 SLOAD PUSH2 0x8CB SWAP1 PUSH2 0x205A JUMP JUMPDEST DUP1 ISZERO PUSH2 0x918 JUMPI DUP1 PUSH1 0x1F LT PUSH2 0x8ED JUMPI PUSH2 0x100 DUP1 DUP4 SLOAD DIV MUL DUP4 MSTORE SWAP2 PUSH1 0x20 ADD SWAP2 PUSH2 0x918 JUMP JUMPDEST DUP3 ADD SWAP2 SWAP1 PUSH1 0x0 MSTORE PUSH1 0x20 PUSH1 0x0 KECCAK256 SWAP1 JUMPDEST DUP2 SLOAD DUP2 MSTORE SWAP1 PUSH1 0x1 ADD SWAP1 PUSH1 0x20 ADD DUP1 DUP4 GT PUSH2 0x8FB JUMPI DUP3 SWAP1 SUB PUSH1 0x1F AND DUP3 ADD SWAP2 JUMPDEST POP POP POP POP POP SWAP1 POP SWAP1 JUMP JUMPDEST PUSH1 0x0 PUSH1 0x8 SLOAD SWAP1 POP SWAP1 JUMP JUMPDEST PUSH2 0x93E PUSH2 0x937 PUSH2 0xBC4 JUMP JUMPDEST DUP4 DUP4 PUSH2 0xFCA JUMP JUMPDEST POP POP JUMP JUMPDEST PUSH2 0x953 PUSH2 0x94D PUSH2 0xBC4 JUMP JUMPDEST DUP4 PUSH2 0xC85 JUMP JUMPDEST PUSH2 0x992 JUMPI PUSH1 0x40 MLOAD PUSH32 0x8C379A000000000000000000000000000000000000000000000000000000000 DUP2 MSTORE PUSH1 0x4 ADD PUSH2 0x989 SWAP1 PUSH2 0x1DE4 JUMP JUMPDEST PUSH1 0x40 MLOAD DUP1 SWAP2 SUB SWAP1 REVERT JUMPDEST PUSH2 0x99E DUP5 DUP5 DUP5 DUP5 PUSH2 0x1137 JUMP JUMPDEST POP POP POP POP JUMP JUMPDEST PUSH1 0x0 SWAP10 SWAP9 POP POP POP POP POP POP POP POP POP JUMP JUMPDEST PUSH1 0x60 PUSH2 0x9BE DUP3 PUSH2 0xB58 JUMP JUMPDEST PUSH2 0x9FD JUMPI PUSH1 0x40 MLOAD PUSH32 0x8C379A000000000000000000000000000000000000000000000000000000000 DUP2 MSTORE PUSH1 0x4 ADD PUSH2 0x9F4 SWAP1 PUSH2 0x1DA4 JUMP JUMPDEST PUSH1 0x40 MLOAD DUP1 SWAP2 SUB SWAP1 REVERT JUMPDEST PUSH1 0x0 PUSH2 0xA07 PUSH2 0x1193 JUMP JUMPDEST SWAP1 POP PUSH1 0x0 DUP2 MLOAD GT PUSH2 0xA27 JUMPI PUSH1 0x40 MLOAD DUP1 PUSH1 0x20 ADD PUSH1 0x40 MSTORE DUP1 PUSH1 0x0 DUP2 MSTORE POP PUSH2 0xA52 JUMP JUMPDEST DUP1 PUSH2 0xA31 DUP5 PUSH2 0x11AA JUMP JUMPDEST PUSH1 0x40 MLOAD PUSH1 0x20 ADD PUSH2 0xA42 SWAP3 SWAP2 SWAP1 PUSH2 0x1BBC JUMP JUMPDEST PUSH1 0x40 MLOAD PUSH1 0x20 DUP2 DUP4 SUB SUB DUP2 MSTORE SWAP1 PUSH1 0x40 MSTORE JUMPDEST SWAP2 POP POP SWAP2 SWAP1 POP JUMP JUMPDEST PUSH1 0x0 PUSH1 0x5 PUSH1 0x0 DUP5 PUSH20 0xFFFFFFFFFFFFFFFFFFFFFFFFFFFFFFFFFFFFFFFF AND PUSH20 0xFFFFFFFFFFFFFFFFFFFFFFFFFFFFFFFFFFFFFFFF AND DUP2 MSTORE PUSH1 0x20 ADD SWAP1 DUP2 MSTORE PUSH1 0x20 ADD PUSH1 0x0 KECCAK256 PUSH1 0x0 DUP4 PUSH20 0xFFFFFFFFFFFFFFFFFFFFFFFFFFFFFFFFFFFFFFFF AND PUSH20 0xFFFFFFFFFFFFFFFFFFFFFFFFFFFFFFFFFFFFFFFF AND DUP2 MSTORE PUSH1 0x20 ADD SWAP1 DUP2 MSTORE PUSH1 0x20 ADD PUSH1 0x0 KECCAK256 PUSH1 0x0 SWAP1 SLOAD SWAP1 PUSH2 0x100 EXP SWAP1 DIV PUSH1 0xFF AND SWAP1 POP SWAP3 SWAP2 POP POP JUMP JUMPDEST PUSH1 0x0 PUSH32 0x1FFC9A700000000000000000000000000000000000000000000000000000000 PUSH28 0xFFFFFFFFFFFFFFFFFFFFFFFFFFFFFFFFFFFFFFFFFFFFFFFFFFFFFFFF NOT AND DUP3 PUSH28 0xFFFFFFFFFFFFFFFFFFFFFFFFFFFFFFFFFFFFFFFFFFFFFFFFFFFFFFFF NOT AND EQ SWAP1 POP SWAP2 SWAP1 POP JUMP JUMPDEST PUSH1 0x0 DUP1 PUSH20 0xFFFFFFFFFFFFFFFFFFFFFFFFFFFFFFFFFFFFFFFF AND PUSH1 0x2 PUSH1 0x0 DUP5 DUP2 MSTORE PUSH1 0x20 ADD SWAP1 DUP2 MSTORE PUSH1 0x20 ADD PUSH1 0x0 KECCAK256 PUSH1 0x0 SWAP1 SLOAD SWAP1 PUSH2 0x100 EXP SWAP1 DIV PUSH20 0xFFFFFFFFFFFFFFFFFFFFFFFFFFFFFFFFFFFFFFFF AND PUSH20 0xFFFFFFFFFFFFFFFFFFFFFFFFFFFFFFFFFFFFFFFF AND EQ ISZERO SWAP1 POP SWAP2 SWAP1 POP JUMP JUMPDEST PUSH1 0x0 CALLER SWAP1 POP SWAP1 JUMP JUMPDEST DUP2 PUSH1 0x4 PUSH1 0x0 DUP4 DUP2 MSTORE PUSH1 0x20 ADD SWAP1 DUP2 MSTORE PUSH1 0x20 ADD PUSH1 0x0 KECCAK256 PUSH1 0x0 PUSH2 0x100 EXP DUP2 SLOAD DUP2 PUSH20 0xFFFFFFFFFFFFFFFFFFFFFFFFFFFFFFFFFFFFFFFF MUL NOT AND SWAP1 DUP4 PUSH20 0xFFFFFFFFFFFFFFFFFFFFFFFFFFFFFFFFFFFFFFFF AND MUL OR SWAP1 SSTORE POP DUP1 DUP3 PUSH20 0xFFFFFFFFFFFFFFFFFFFFFFFFFFFFFFFFFFFFFFFF AND PUSH2 0xC3F DUP4 PUSH2 0x726 JUMP JUMPDEST PUSH20 0xFFFFFFFFFFFFFFFFFFFFFFFFFFFFFFFFFFFFFFFF AND PUSH32 0x8C5BE1E5EBEC7D5BD14F71427D1E84F3DD0314C0F7B2291E5B200AC8C7C3B925 PUSH1 0x40 MLOAD PUSH1 0x40 MLOAD DUP1 SWAP2 SUB SWAP1 LOG4 POP POP JUMP JUMPDEST PUSH1 0x0 PUSH2 0xC90 DUP3 PUSH2 0xB58 JUMP JUMPDEST PUSH2 0xCCF JUMPI PUSH1 0x40 MLOAD PUSH32 0x8C379A000000000000000000000000000000000000000000000000000000000 DUP2 MSTORE PUSH1 0x4 ADD PUSH2 0xCC6 SWAP1 PUSH2 0x1D04 JUMP JUMPDEST PUSH1 0x40 MLOAD DUP1 SWAP2 SUB SWAP1 REVERT JUMPDEST PUSH1 0x0 PUSH2 0xCDA DUP4 PUSH2 0x726 JUMP JUMPDEST SWAP1 POP DUP1 PUSH20 0xFFFFFFFFFFFFFFFFFFFFFFFFFFFFFFFFFFFFFFFF AND DUP5 PUSH20 0xFFFFFFFFFFFFFFFFFFFFFFFFFFFFFFFFFFFFFFFF AND EQ DUP1 PUSH2 0xD1C JUMPI POP PUSH2 0xD1B DUP2 DUP6 PUSH2 0xA5A JUMP JUMPDEST JUMPDEST DUP1 PUSH2 0xD5A JUMPI POP DUP4 PUSH20 0xFFFFFFFFFFFFFFFFFFFFFFFFFFFFFFFFFFFFFFFF AND PUSH2 0xD42 DUP5 PUSH2 0x4E2 JUMP JUMPDEST PUSH20 0xFFFFFFFFFFFFFFFFFFFFFFFFFFFFFFFFFFFFFFFF AND EQ JUMPDEST SWAP2 POP POP SWAP3 SWAP2 POP POP JUMP JUMPDEST DUP3 PUSH20 0xFFFFFFFFFFFFFFFFFFFFFFFFFFFFFFFFFFFFFFFF AND PUSH2 0xD83 DUP3 PUSH2 0x726 JUMP JUMPDEST PUSH20 0xFFFFFFFFFFFFFFFFFFFFFFFFFFFFFFFFFFFFFFFF AND EQ PUSH2 0xDD9 JUMPI PUSH1 0x40 MLOAD PUSH32 0x8C379A000000000000000000000000000000000000000000000000000000000 DUP2 MSTORE PUSH1 0x4 ADD PUSH2 0xDD0 SWAP1 PUSH2 0x1CA4 JUMP JUMPDEST PUSH1 0x40 MLOAD DUP1 SWAP2 SUB SWAP1 REVERT JUMPDEST PUSH1 0x0 PUSH20 0xFFFFFFFFFFFFFFFFFFFFFFFFFFFFFFFFFFFFFFFF AND DUP3 PUSH20 0xFFFFFFFFFFFFFFFFFFFFFFFFFFFFFFFFFFFFFFFF AND EQ ISZERO PUSH2 0xE49 JUMPI PUSH1 0x40 MLOAD PUSH32 0x8C379A000000000000000000000000000000000000000000000000000000000 DUP2 MSTORE PUSH1 0x4 ADD PUSH2 0xE40 SWAP1 PUSH2 0x1CC4 JUMP JUMPDEST PUSH1 0x40 MLOAD DUP1 SWAP2 SUB SWAP1 REVERT JUMPDEST PUSH2 0xE54 DUP4 DUP4 DUP4 PUSH2 0x130B JUMP JUMPDEST PUSH2 0xE5F PUSH1 0x0 DUP3 PUSH2 0xBCC JUMP JUMPDEST PUSH1 0x1 PUSH1 0x3 PUSH1 0x0 DUP6 PUSH20 0xFFFFFFFFFFFFFFFFFFFFFFFFFFFFFFFFFFFFFFFF AND PUSH20 0xFFFFFFFFFFFFFFFFFFFFFFFFFFFFFFFFFFFFFFFF AND DUP2 MSTORE PUSH1 0x20 ADD SWAP1 DUP2 MSTORE PUSH1 0x20 ADD PUSH1 0x0 KECCAK256 PUSH1 0x0 DUP3 DUP3 SLOAD PUSH2 0xEAF SWAP2 SWAP1 PUSH2 0x1F70 JUMP JUMPDEST SWAP3 POP POP DUP2 SWAP1 SSTORE POP PUSH1 0x1 PUSH1 0x3 PUSH1 0x0 DUP5 PUSH20 0xFFFFFFFFFFFFFFFFFFFFFFFFFFFFFFFFFFFFFFFF AND PUSH20 0xFFFFFFFFFFFFFFFFFFFFFFFFFFFFFFFFFFFFFFFF AND DUP2 MSTORE PUSH1 0x20 ADD SWAP1 DUP2 MSTORE PUSH1 0x20 ADD PUSH1 0x0 KECCAK256 PUSH1 0x0 DUP3 DUP3 SLOAD PUSH2 0xF06 SWAP2 SWAP1 PUSH2 0x1EE9 JUMP JUMPDEST SWAP3 POP POP DUP2 SWAP1 SSTORE POP DUP2 PUSH1 0x2 PUSH1 0x0 DUP4 DUP2 MSTORE PUSH1 0x20 ADD SWAP1 DUP2 MSTORE PUSH1 0x20 ADD PUSH1 0x0 KECCAK256 PUSH1 0x0 PUSH2 0x100 EXP DUP2 SLOAD DUP2 PUSH20 0xFFFFFFFFFFFFFFFFFFFFFFFFFFFFFFFFFFFFFFFF MUL NOT AND SWAP1 DUP4 PUSH20 0xFFFFFFFFFFFFFFFFFFFFFFFFFFFFFFFFFFFFFFFF AND MUL OR SWAP1 SSTORE POP DUP1 DUP3 PUSH20 0xFFFFFFFFFFFFFFFFFFFFFFFFFFFFFFFFFFFFFFFF AND DUP5 PUSH20 0xFFFFFFFFFFFFFFFFFFFFFFFFFFFFFFFFFFFFFFFF AND PUSH32 0xDDF252AD1BE2C89B69C2B068FC378DAA952BA7F163C4A11628F55A4DF523B3EF PUSH1 0x40 MLOAD PUSH1 0x40 MLOAD DUP1 SWAP2 SUB SWAP1 LOG4 PUSH2 0xFC5 DUP4 DUP4 DUP4 PUSH2 0x1310 JUMP JUMPDEST POP POP POP JUMP JUMPDEST DUP2 PUSH20 0xFFFFFFFFFFFFFFFFFFFFFFFFFFFFFFFFFFFFFFFF AND DUP4 PUSH20 0xFFFFFFFFFFFFFFFFFFFFFFFFFFFFFFFFFFFFFFFF AND EQ ISZERO PUSH2 0x1039 JUMPI PUSH1 0x40 MLOAD PUSH32 0x8C379A000000000000000000000000000000000000000000000000000000000 DUP2 MSTORE PUSH1 0x4 ADD PUSH2 0x1030 SWAP1 PUSH2 0x1CE4 JUMP JUMPDEST PUSH1 0x40 MLOAD DUP1 SWAP2 SUB SWAP1 REVERT JUMPDEST DUP1 PUSH1 0x5 PUSH1 0x0 DUP6 PUSH20 0xFFFFFFFFFFFFFFFFFFFFFFFFFFFFFFFFFFFFFFFF AND PUSH20 0xFFFFFFFFFFFFFFFFFFFFFFFFFFFFFFFFFFFFFFFF AND DUP2 MSTORE PUSH1 0x20 ADD SWAP1 DUP2 MSTORE PUSH1 0x20 ADD PUSH1 0x0 KECCAK256 PUSH1 0x0 DUP5 PUSH20 0xFFFFFFFFFFFFFFFFFFFFFFFFFFFFFFFFFFFFFFFF AND PUSH20 0xFFFFFFFFFFFFFFFFFFFFFFFFFFFFFFFFFFFFFFFF AND DUP2 MSTORE PUSH1 0x20 ADD SWAP1 DUP2 MSTORE PUSH1 0x20 ADD PUSH1 0x0 KECCAK256 PUSH1 0x0 PUSH2 0x100 EXP DUP2 SLOAD DUP2 PUSH1 0xFF MUL NOT AND SWAP1 DUP4 ISZERO ISZERO MUL OR SWAP1 SSTORE POP DUP2 PUSH20 0xFFFFFFFFFFFFFFFFFFFFFFFFFFFFFFFFFFFFFFFF AND DUP4 PUSH20 0xFFFFFFFFFFFFFFFFFFFFFFFFFFFFFFFFFFFFFFFF AND PUSH32 0x17307EAB39AB6107E8899845AD3D59BD9653F200F220920489CA2B5937696C31 DUP4 PUSH1 0x40 MLOAD PUSH2 0x112A SWAP2 SWAP1 PUSH2 0x1C47 JUMP JUMPDEST PUSH1 0x40 MLOAD DUP1 SWAP2 SUB SWAP1 LOG3 POP POP POP JUMP JUMPDEST PUSH2 0x1142 DUP5 DUP5 DUP5 PUSH2 0xD63 JUMP JUMPDEST PUSH2 0x114E DUP5 DUP5 DUP5 DUP5 PUSH2 0x1315 JUMP JUMPDEST PUSH2 0x118D JUMPI PUSH1 0x40 MLOAD PUSH32 0x8C379A000000000000000000000000000000000000000000000000000000000 DUP2 MSTORE PUSH1 0x4 ADD PUSH2 0x1184 SWAP1 PUSH2 0x1C84 JUMP JUMPDEST PUSH1 0x40 MLOAD DUP1 SWAP2 SUB SWAP1 REVERT JUMPDEST POP POP POP POP JUMP JUMPDEST PUSH1 0x60 PUSH1 0x40 MLOAD DUP1 PUSH1 0x20 ADD PUSH1 0x40 MSTORE DUP1 PUSH1 0x0 DUP2 MSTORE POP SWAP1 POP SWAP1 JUMP JUMPDEST PUSH1 0x60 PUSH1 0x0 DUP3 EQ ISZERO PUSH2 0x11F2 JUMPI PUSH1 0x40 MLOAD DUP1 PUSH1 0x40 ADD PUSH1 0x40 MSTORE DUP1 PUSH1 0x1 DUP2 MSTORE PUSH1 0x20 ADD PUSH32 0x3000000000000000000000000000000000000000000000000000000000000000 DUP2 MSTORE POP SWAP1 POP PUSH2 0x1306 JUMP JUMPDEST PUSH1 0x0 DUP3 SWAP1 POP PUSH1 0x0 JUMPDEST PUSH1 0x0 DUP3 EQ PUSH2 0x1224 JUMPI DUP1 DUP1 PUSH2 0x120D SWAP1 PUSH2 0x20BD JUMP JUMPDEST SWAP2 POP POP PUSH1 0xA DUP3 PUSH2 0x121D SWAP2 SWAP1 PUSH2 0x1F3F JUMP JUMPDEST SWAP2 POP PUSH2 0x11FA JUMP JUMPDEST PUSH1 0x0 DUP2 PUSH8 0xFFFFFFFFFFFFFFFF DUP2 GT ISZERO PUSH2 0x1240 JUMPI PUSH2 0x123F PUSH2 0x21F3 JUMP JUMPDEST JUMPDEST PUSH1 0x40 MLOAD SWAP1 DUP1 DUP3 MSTORE DUP1 PUSH1 0x1F ADD PUSH1 0x1F NOT AND PUSH1 0x20 ADD DUP3 ADD PUSH1 0x40 MSTORE DUP1 ISZERO PUSH2 0x1272 JUMPI DUP2 PUSH1 0x20 ADD PUSH1 0x1 DUP3 MUL DUP1 CALLDATASIZE DUP4 CALLDATACOPY DUP1 DUP3 ADD SWAP2 POP POP SWAP1 POP JUMPDEST POP SWAP1 POP JUMPDEST PUSH1 0x0 DUP6 EQ PUSH2 0x12FF JUMPI PUSH1 0x1 DUP3 PUSH2 0x128B SWAP2 SWAP1 PUSH2 0x1F70 JUMP JUMPDEST SWAP2 POP PUSH1 0xA DUP6 PUSH2 0x129A SWAP2 SWAP1 PUSH2 0x2106 JUMP JUMPDEST PUSH1 0x30 PUSH2 0x12A6 SWAP2 SWAP1 PUSH2 0x1EE9 JUMP JUMPDEST PUSH1 0xF8 SHL DUP2 DUP4 DUP2 MLOAD DUP2 LT PUSH2 0x12BC JUMPI PUSH2 0x12BB PUSH2 0x21C4 JUMP JUMPDEST JUMPDEST PUSH1 0x20 ADD ADD SWAP1 PUSH31 0xFFFFFFFFFFFFFFFFFFFFFFFFFFFFFFFFFFFFFFFFFFFFFFFFFFFFFFFFFFFFFF NOT AND SWAP1 DUP2 PUSH1 0x0 BYTE SWAP1 MSTORE8 POP PUSH1 0xA DUP6 PUSH2 0x12F8 SWAP2 SWAP1 PUSH2 0x1F3F JUMP JUMPDEST SWAP5 POP PUSH2 0x1276 JUMP JUMPDEST DUP1 SWAP4 POP POP POP POP JUMPDEST SWAP2 SWAP1 POP JUMP JUMPDEST POP POP POP JUMP JUMPDEST POP POP POP JUMP JUMPDEST PUSH1 0x0 PUSH2 0x1336 DUP5 PUSH20 0xFFFFFFFFFFFFFFFFFFFFFFFFFFFFFFFFFFFFFFFF AND PUSH2 0x14AC JUMP JUMPDEST ISZERO PUSH2 0x149F JUMPI DUP4 PUSH20 0xFFFFFFFFFFFFFFFFFFFFFFFFFFFFFFFFFFFFFFFF AND PUSH4 0x150B7A02 PUSH2 0x135F PUSH2 0xBC4 JUMP JUMPDEST DUP8 DUP7 DUP7 PUSH1 0x40 MLOAD DUP6 PUSH4 0xFFFFFFFF AND PUSH1 0xE0 SHL DUP2 MSTORE PUSH1 0x4 ADD PUSH2 0x1381 SWAP5 SWAP4 SWAP3 SWAP2 SWAP1 PUSH2 0x1BFB JUMP JUMPDEST PUSH1 0x20 PUSH1 0x40 MLOAD DUP1 DUP4 SUB DUP2 PUSH1 0x0 DUP8 DUP1 EXTCODESIZE ISZERO DUP1 ISZERO PUSH2 0x139B JUMPI PUSH1 0x0 DUP1 REVERT JUMPDEST POP GAS CALL SWAP3 POP POP POP DUP1 ISZERO PUSH2 0x13CC JUMPI POP PUSH1 0x40 MLOAD RETURNDATASIZE PUSH1 0x1F NOT PUSH1 0x1F DUP3 ADD AND DUP3 ADD DUP1 PUSH1 0x40 MSTORE POP DUP2 ADD SWAP1 PUSH2 0x13C9 SWAP2 SWAP1 PUSH2 0x1808 JUMP JUMPDEST PUSH1 0x1 JUMPDEST PUSH2 0x144F JUMPI RETURNDATASIZE DUP1 PUSH1 0x0 DUP2 EQ PUSH2 0x13FC JUMPI PUSH1 0x40 MLOAD SWAP2 POP PUSH1 0x1F NOT PUSH1 0x3F RETURNDATASIZE ADD AND DUP3 ADD PUSH1 0x40 MSTORE RETURNDATASIZE DUP3 MSTORE RETURNDATASIZE PUSH1 0x0 PUSH1 0x20 DUP5 ADD RETURNDATACOPY PUSH2 0x1401 JUMP JUMPDEST PUSH1 0x60 SWAP2 POP JUMPDEST POP PUSH1 0x0 DUP2 MLOAD EQ ISZERO PUSH2 0x1447 JUMPI PUSH1 0x40 MLOAD PUSH32 0x8C379A000000000000000000000000000000000000000000000000000000000 DUP2 MSTORE PUSH1 0x4 ADD PUSH2 0x143E SWAP1 PUSH2 0x1C84 JUMP JUMPDEST PUSH1 0x40 MLOAD DUP1 SWAP2 SUB SWAP1 REVERT JUMPDEST DUP1 MLOAD DUP2 PUSH1 0x20 ADD REVERT JUMPDEST PUSH4 0x150B7A02 PUSH1 0xE0 SHL PUSH28 0xFFFFFFFFFFFFFFFFFFFFFFFFFFFFFFFFFFFFFFFFFFFFFFFFFFFFFFFF NOT AND DUP2 PUSH28 0xFFFFFFFFFFFFFFFFFFFFFFFFFFFFFFFFFFFFFFFFFFFFFFFFFFFFFFFF NOT AND EQ SWAP2 POP POP PUSH2 0x14A4 JUMP JUMPDEST PUSH1 0x1 SWAP1 POP JUMPDEST SWAP5 SWAP4 POP POP POP POP JUMP JUMPDEST PUSH1 0x0 DUP1 DUP3 PUSH20 0xFFFFFFFFFFFFFFFFFFFFFFFFFFFFFFFFFFFFFFFF AND EXTCODESIZE GT SWAP1 POP SWAP2 SWAP1 POP JUMP JUMPDEST PUSH1 0x0 PUSH2 0x14E2 PUSH2 0x14DD DUP5 PUSH2 0x1E44 JUMP JUMPDEST PUSH2 0x1E1F JUMP JUMPDEST SWAP1 POP DUP3 DUP2 MSTORE PUSH1 0x20 DUP2 ADD DUP5 DUP5 DUP5 ADD GT ISZERO PUSH2 0x14FE JUMPI PUSH2 0x14FD PUSH2 0x2227 JUMP JUMPDEST JUMPDEST PUSH2 0x1509 DUP5 DUP3 DUP6 PUSH2 0x2018 JUMP JUMPDEST POP SWAP4 SWAP3 POP POP POP JUMP JUMPDEST PUSH1 0x0 PUSH2 0x1524 PUSH2 0x151F DUP5 PUSH2 0x1E75 JUMP JUMPDEST PUSH2 0x1E1F JUMP JUMPDEST SWAP1 POP DUP3 DUP2 MSTORE PUSH1 0x20 DUP2 ADD DUP5 DUP5 DUP5 ADD GT ISZERO PUSH2 0x1540 JUMPI PUSH2 0x153F PUSH2 0x2227 JUMP JUMPDEST JUMPDEST PUSH2 0x154B DUP5 DUP3 DUP6 PUSH2 0x2018 JUMP JUMPDEST POP SWAP4 SWAP3 POP POP POP JUMP JUMPDEST PUSH1 0x0 DUP2 CALLDATALOAD SWAP1 POP PUSH2 0x1562 DUP2 PUSH2 0x25D5 JUMP JUMPDEST SWAP3 SWAP2 POP POP JUMP JUMPDEST PUSH1 0x0 DUP2 CALLDATALOAD SWAP1 POP PUSH2 0x1577 DUP2 PUSH2 0x25EC JUMP JUMPDEST SWAP3 SWAP2 POP POP JUMP JUMPDEST PUSH1 0x0 DUP2 CALLDATALOAD SWAP1 POP PUSH2 0x158C DUP2 PUSH2 0x2603 JUMP JUMPDEST SWAP3 SWAP2 POP POP JUMP JUMPDEST PUSH1 0x0 DUP2 MLOAD SWAP1 POP PUSH2 0x15A1 DUP2 PUSH2 0x2603 JUMP JUMPDEST SWAP3 SWAP2 POP POP JUMP JUMPDEST PUSH1 0x0 DUP3 PUSH1 0x1F DUP4 ADD SLT PUSH2 0x15BC JUMPI PUSH2 0x15BB PUSH2 0x2222 JUMP JUMPDEST JUMPDEST DUP2 CALLDATALOAD PUSH2 0x15CC DUP5 DUP3 PUSH1 0x20 DUP7 ADD PUSH2 0x14CF JUMP JUMPDEST SWAP2 POP POP SWAP3 SWAP2 POP POP JUMP JUMPDEST PUSH1 0x0 DUP3 PUSH1 0x1F DUP4 ADD SLT PUSH2 0x15EA JUMPI PUSH2 0x15E9 PUSH2 0x2222 JUMP JUMPDEST JUMPDEST DUP2 CALLDATALOAD PUSH2 0x15FA DUP5 DUP3 PUSH1 0x20 DUP7 ADD PUSH2 0x1511 JUMP JUMPDEST SWAP2 POP POP SWAP3 SWAP2 POP POP JUMP JUMPDEST PUSH1 0x0 DUP2 CALLDATALOAD SWAP1 POP PUSH2 0x1612 DUP2 PUSH2 0x261A JUMP JUMPDEST SWAP3 SWAP2 POP POP JUMP JUMPDEST PUSH1 0x0 PUSH1 0x20 DUP3 DUP5 SUB SLT ISZERO PUSH2 0x162E JUMPI PUSH2 0x162D PUSH2 0x2231 JUMP JUMPDEST JUMPDEST PUSH1 0x0 PUSH2 0x163C DUP5 DUP3 DUP6 ADD PUSH2 0x1553 JUMP JUMPDEST SWAP2 POP POP SWAP3 SWAP2 POP POP JUMP JUMPDEST PUSH1 0x0 DUP1 PUSH1 0x40 DUP4 DUP6 SUB SLT ISZERO PUSH2 0x165C JUMPI PUSH2 0x165B PUSH2 0x2231 JUMP JUMPDEST JUMPDEST PUSH1 0x0 PUSH2 0x166A DUP6 DUP3 DUP7 ADD PUSH2 0x1553 JUMP JUMPDEST SWAP3 POP POP PUSH1 0x20 PUSH2 0x167B DUP6 DUP3 DUP7 ADD PUSH2 0x1553 JUMP JUMPDEST SWAP2 POP POP SWAP3 POP SWAP3 SWAP1 POP JUMP JUMPDEST PUSH1 0x0 DUP1 PUSH1 0x0 PUSH1 0x60 DUP5 DUP7 SUB SLT ISZERO PUSH2 0x169E JUMPI PUSH2 0x169D PUSH2 0x2231 JUMP JUMPDEST JUMPDEST PUSH1 0x0 PUSH2 0x16AC DUP7 DUP3 DUP8 ADD PUSH2 0x1553 JUMP JUMPDEST SWAP4 POP POP PUSH1 0x20 PUSH2 0x16BD DUP7 DUP3 DUP8 ADD PUSH2 0x1553 JUMP JUMPDEST SWAP3 POP POP PUSH1 0x40 PUSH2 0x16CE DUP7 DUP3 DUP8 ADD PUSH2 0x1603 JUMP JUMPDEST SWAP2 POP POP SWAP3 POP SWAP3 POP SWAP3 JUMP JUMPDEST PUSH1 0x0 DUP1 PUSH1 0x0 DUP1 PUSH1 0x80 DUP6 DUP8 SUB SLT ISZERO PUSH2 0x16F2 JUMPI PUSH2 0x16F1 PUSH2 0x2231 JUMP JUMPDEST JUMPDEST PUSH1 0x0 PUSH2 0x1700 DUP8 DUP3 DUP9 ADD PUSH2 0x1553 JUMP JUMPDEST SWAP5 POP POP PUSH1 0x20 PUSH2 0x1711 DUP8 DUP3 DUP9 ADD PUSH2 0x1553 JUMP JUMPDEST SWAP4 POP POP PUSH1 0x40 PUSH2 0x1722 DUP8 DUP3 DUP9 ADD PUSH2 0x1603 JUMP JUMPDEST SWAP3 POP POP PUSH1 0x60 DUP6 ADD CALLDATALOAD PUSH8 0xFFFFFFFFFFFFFFFF DUP2 GT ISZERO PUSH2 0x1743 JUMPI PUSH2 0x1742 PUSH2 0x222C JUMP JUMPDEST JUMPDEST PUSH2 0x174F DUP8 DUP3 DUP9 ADD PUSH2 0x15A7 JUMP JUMPDEST SWAP2 POP POP SWAP3 SWAP6 SWAP2 SWAP5 POP SWAP3 POP JUMP JUMPDEST PUSH1 0x0 DUP1 PUSH1 0x40 DUP4 DUP6 SUB SLT ISZERO PUSH2 0x1772 JUMPI PUSH2 0x1771 PUSH2 0x2231 JUMP JUMPDEST JUMPDEST PUSH1 0x0 PUSH2 0x1780 DUP6 DUP3 DUP7 ADD PUSH2 0x1553 JUMP JUMPDEST SWAP3 POP POP PUSH1 0x20 PUSH2 0x1791 DUP6 DUP3 DUP7 ADD PUSH2 0x1568 JUMP JUMPDEST SWAP2 POP POP SWAP3 POP SWAP3 SWAP1 POP JUMP JUMPDEST PUSH1 0x0 DUP1 PUSH1 0x40 DUP4 DUP6 SUB SLT ISZERO PUSH2 0x17B2 JUMPI PUSH2 0x17B1 PUSH2 0x2231 JUMP JUMPDEST JUMPDEST PUSH1 0x0 PUSH2 0x17C0 DUP6 DUP3 DUP7 ADD PUSH2 0x1553 JUMP JUMPDEST SWAP3 POP POP PUSH1 0x20 PUSH2 0x17D1 DUP6 DUP3 DUP7 ADD PUSH2 0x1603 JUMP JUMPDEST SWAP2 POP POP SWAP3 POP SWAP3 SWAP1 POP JUMP JUMPDEST PUSH1 0x0 PUSH1 0x20 DUP3 DUP5 SUB SLT ISZERO PUSH2 0x17F1 JUMPI PUSH2 0x17F0 PUSH2 0x2231 JUMP JUMPDEST JUMPDEST PUSH1 0x0 PUSH2 0x17FF DUP5 DUP3 DUP6 ADD PUSH2 0x157D JUMP JUMPDEST SWAP2 POP POP SWAP3 SWAP2 POP POP JUMP JUMPDEST PUSH1 0x0 PUSH1 0x20 DUP3 DUP5 SUB SLT ISZERO PUSH2 0x181E JUMPI PUSH2 0x181D PUSH2 0x2231 JUMP JUMPDEST JUMPDEST PUSH1 0x0 PUSH2 0x182C DUP5 DUP3 DUP6 ADD PUSH2 0x1592 JUMP JUMPDEST SWAP2 POP POP SWAP3 SWAP2 POP POP JUMP JUMPDEST PUSH1 0x0 PUSH1 0x20 DUP3 DUP5 SUB SLT ISZERO PUSH2 0x184B JUMPI PUSH2 0x184A PUSH2 0x2231 JUMP JUMPDEST JUMPDEST PUSH1 0x0 PUSH2 0x1859 DUP5 DUP3 DUP6 ADD PUSH2 0x1603 JUMP JUMPDEST SWAP2 POP POP SWAP3 SWAP2 POP POP JUMP JUMPDEST PUSH1 0x0 DUP1 PUSH1 0x0 DUP1 PUSH1 0x0 DUP1 PUSH1 0x0 DUP1 PUSH1 0x0 PUSH2 0x120 DUP11 DUP13 SUB SLT ISZERO PUSH2 0x1885 JUMPI PUSH2 0x1884 PUSH2 0x2231 JUMP JUMPDEST JUMPDEST PUSH1 0x0 PUSH2 0x1893 DUP13 DUP3 DUP14 ADD PUSH2 0x1603 JUMP JUMPDEST SWAP10 POP POP PUSH1 0x20 PUSH2 0x18A4 DUP13 DUP3 DUP14 ADD PUSH2 0x1603 JUMP JUMPDEST SWAP9 POP POP PUSH1 0x40 PUSH2 0x18B5 DUP13 DUP3 DUP14 ADD PUSH2 0x1603 JUMP JUMPDEST SWAP8 POP POP PUSH1 0x60 PUSH2 0x18C6 DUP13 DUP3 DUP14 ADD PUSH2 0x1603 JUMP JUMPDEST SWAP7 POP POP PUSH1 0x80 PUSH2 0x18D7 DUP13 DUP3 DUP14 ADD PUSH2 0x1603 JUMP JUMPDEST SWAP6 POP POP PUSH1 0xA0 PUSH2 0x18E8 DUP13 DUP3 DUP14 ADD PUSH2 0x1553 JUMP JUMPDEST SWAP5 POP POP PUSH1 0xC0 PUSH2 0x18F9 DUP13 DUP3 DUP14 ADD PUSH2 0x1553 JUMP JUMPDEST SWAP4 POP POP PUSH1 0xE0 DUP11 ADD CALLDATALOAD PUSH8 0xFFFFFFFFFFFFFFFF DUP2 GT ISZERO PUSH2 0x191A JUMPI PUSH2 0x1919 PUSH2 0x222C JUMP JUMPDEST JUMPDEST PUSH2 0x1926 DUP13 DUP3 DUP14 ADD PUSH2 0x15D5 JUMP JUMPDEST SWAP3 POP POP PUSH2 0x100 PUSH2 0x1938 DUP13 DUP3 DUP14 ADD PUSH2 0x1568 JUMP JUMPDEST SWAP2 POP POP SWAP3 SWAP6 SWAP9 POP SWAP3 SWAP6 SWAP9 POP SWAP3 SWAP6 SWAP9 JUMP JUMPDEST PUSH2 0x1951 DUP2 PUSH2 0x1FA4 JUMP JUMPDEST DUP3 MSTORE POP POP JUMP JUMPDEST PUSH2 0x1960 DUP2 PUSH2 0x1FB6 JUMP JUMPDEST DUP3 MSTORE POP POP JUMP JUMPDEST PUSH1 0x0 PUSH2 0x1971 DUP3 PUSH2 0x1EA6 JUMP JUMPDEST PUSH2 0x197B DUP2 DUP6 PUSH2 0x1EBC JUMP JUMPDEST SWAP4 POP PUSH2 0x198B DUP2 DUP6 PUSH1 0x20 DUP7 ADD PUSH2 0x2027 JUMP JUMPDEST PUSH2 0x1994 DUP2 PUSH2 0x2236 JUMP JUMPDEST DUP5 ADD SWAP2 POP POP SWAP3 SWAP2 POP POP JUMP JUMPDEST PUSH1 0x0 PUSH2 0x19AA DUP3 PUSH2 0x1EB1 JUMP JUMPDEST PUSH2 0x19B4 DUP2 DUP6 PUSH2 0x1ECD JUMP JUMPDEST SWAP4 POP PUSH2 0x19C4 DUP2 DUP6 PUSH1 0x20 DUP7 ADD PUSH2 0x2027 JUMP JUMPDEST PUSH2 0x19CD DUP2 PUSH2 0x2236 JUMP JUMPDEST DUP5 ADD SWAP2 POP POP SWAP3 SWAP2 POP POP JUMP JUMPDEST PUSH1 0x0 PUSH2 0x19E3 DUP3 PUSH2 0x1EB1 JUMP JUMPDEST PUSH2 0x19ED DUP2 DUP6 PUSH2 0x1EDE JUMP JUMPDEST SWAP4 POP PUSH2 0x19FD DUP2 DUP6 PUSH1 0x20 DUP7 ADD PUSH2 0x2027 JUMP JUMPDEST DUP1 DUP5 ADD SWAP2 POP POP SWAP3 SWAP2 POP POP JUMP JUMPDEST PUSH1 0x0 PUSH2 0x1A16 PUSH1 0x32 DUP4 PUSH2 0x1ECD JUMP JUMPDEST SWAP2 POP PUSH2 0x1A21 DUP3 PUSH2 0x2247 JUMP JUMPDEST PUSH1 0x40 DUP3 ADD SWAP1 POP SWAP2 SWAP1 POP JUMP JUMPDEST PUSH1 0x0 PUSH2 0x1A39 PUSH1 0x25 DUP4 PUSH2 0x1ECD JUMP JUMPDEST SWAP2 POP PUSH2 0x1A44 DUP3 PUSH2 0x2296 JUMP JUMPDEST PUSH1 0x40 DUP3 ADD SWAP1 POP SWAP2 SWAP1 POP JUMP JUMPDEST PUSH1 0x0 PUSH2 0x1A5C PUSH1 0x24 DUP4 PUSH2 0x1ECD JUMP JUMPDEST SWAP2 POP PUSH2 0x1A67 DUP3 PUSH2 0x22E5 JUMP JUMPDEST PUSH1 0x40 DUP3 ADD SWAP1 POP SWAP2 SWAP1 POP JUMP JUMPDEST PUSH1 0x0 PUSH2 0x1A7F PUSH1 0x19 DUP4 PUSH2 0x1ECD JUMP JUMPDEST SWAP2 POP PUSH2 0x1A8A DUP3 PUSH2 0x2334 JUMP JUMPDEST PUSH1 0x20 DUP3 ADD SWAP1 POP SWAP2 SWAP1 POP JUMP JUMPDEST PUSH1 0x0 PUSH2 0x1AA2 PUSH1 0x2C DUP4 PUSH2 0x1ECD JUMP JUMPDEST SWAP2 POP PUSH2 0x1AAD DUP3 PUSH2 0x235D JUMP JUMPDEST PUSH1 0x40 DUP3 ADD SWAP1 POP SWAP2 SWAP1 POP JUMP JUMPDEST PUSH1 0x0 PUSH2 0x1AC5 PUSH1 0x29 DUP4 PUSH2 0x1ECD JUMP JUMPDEST SWAP2 POP PUSH2 0x1AD0 DUP3 PUSH2 0x23AC JUMP JUMPDEST PUSH1 0x40 DUP3 ADD SWAP1 POP SWAP2 SWAP1 POP JUMP JUMPDEST PUSH1 0x0 PUSH2 0x1AE8 PUSH1 0x38 DUP4 PUSH2 0x1ECD JUMP JUMPDEST SWAP2 POP PUSH2 0x1AF3 DUP3 PUSH2 0x23FB JUMP JUMPDEST PUSH1 0x40 DUP3 ADD SWAP1 POP SWAP2 SWAP1 POP JUMP JUMPDEST PUSH1 0x0 PUSH2 0x1B0B PUSH1 0x29 DUP4 PUSH2 0x1ECD JUMP JUMPDEST SWAP2 POP PUSH2 0x1B16 DUP3 PUSH2 0x244A JUMP JUMPDEST PUSH1 0x40 DUP3 ADD SWAP1 POP SWAP2 SWAP1 POP JUMP JUMPDEST PUSH1 0x0 PUSH2 0x1B2E PUSH1 0x2C DUP4 PUSH2 0x1ECD JUMP JUMPDEST SWAP2 POP PUSH2 0x1B39 DUP3 PUSH2 0x2499 JUMP JUMPDEST PUSH1 0x40 DUP3 ADD SWAP1 POP SWAP2 SWAP1 POP JUMP JUMPDEST PUSH1 0x0 PUSH2 0x1B51 PUSH1 0x2F DUP4 PUSH2 0x1ECD JUMP JUMPDEST SWAP2 POP PUSH2 0x1B5C DUP3 PUSH2 0x24E8 JUMP JUMPDEST PUSH1 0x40 DUP3 ADD SWAP1 POP SWAP2 SWAP1 POP JUMP JUMPDEST PUSH1 0x0 PUSH2 0x1B74 PUSH1 0x21 DUP4 PUSH2 0x1ECD JUMP JUMPDEST SWAP2 POP PUSH2 0x1B7F DUP3 PUSH2 0x2537 JUMP JUMPDEST PUSH1 0x40 DUP3 ADD SWAP1 POP SWAP2 SWAP1 POP JUMP JUMPDEST PUSH1 0x0 PUSH2 0x1B97 PUSH1 0x31 DUP4 PUSH2 0x1ECD JUMP JUMPDEST SWAP2 POP PUSH2 0x1BA2 DUP3 PUSH2 0x2586 JUMP JUMPDEST PUSH1 0x40 DUP3 ADD SWAP1 POP SWAP2 SWAP1 POP JUMP JUMPDEST PUSH2 0x1BB6 DUP2 PUSH2 0x200E JUMP JUMPDEST DUP3 MSTORE POP POP JUMP JUMPDEST PUSH1 0x0 PUSH2 0x1BC8 DUP3 DUP6 PUSH2 0x19D8 JUMP JUMPDEST SWAP2 POP PUSH2 0x1BD4 DUP3 DUP5 PUSH2 0x19D8 JUMP JUMPDEST SWAP2 POP DUP2 SWAP1 POP SWAP4 SWAP3 POP POP POP JUMP JUMPDEST PUSH1 0x0 PUSH1 0x20 DUP3 ADD SWAP1 POP PUSH2 0x1BF5 PUSH1 0x0 DUP4 ADD DUP5 PUSH2 0x1948 JUMP JUMPDEST SWAP3 SWAP2 POP POP JUMP JUMPDEST PUSH1 0x0 PUSH1 0x80 DUP3 ADD SWAP1 POP PUSH2 0x1C10 PUSH1 0x0 DUP4 ADD DUP8 PUSH2 0x1948 JUMP JUMPDEST PUSH2 0x1C1D PUSH1 0x20 DUP4 ADD DUP7 PUSH2 0x1948 JUMP JUMPDEST PUSH2 0x1C2A PUSH1 0x40 DUP4 ADD DUP6 PUSH2 0x1BAD JUMP JUMPDEST DUP2 DUP2 SUB PUSH1 0x60 DUP4 ADD MSTORE PUSH2 0x1C3C DUP2 DUP5 PUSH2 0x1966 JUMP JUMPDEST SWAP1 POP SWAP6 SWAP5 POP POP POP POP POP JUMP JUMPDEST PUSH1 0x0 PUSH1 0x20 DUP3 ADD SWAP1 POP PUSH2 0x1C5C PUSH1 0x0 DUP4 ADD DUP5 PUSH2 0x1957 JUMP JUMPDEST SWAP3 SWAP2 POP POP JUMP JUMPDEST PUSH1 0x0 PUSH1 0x20 DUP3 ADD SWAP1 POP DUP2 DUP2 SUB PUSH1 0x0 DUP4 ADD MSTORE PUSH2 0x1C7C DUP2 DUP5 PUSH2 0x199F JUMP JUMPDEST SWAP1 POP SWAP3 SWAP2 POP POP JUMP JUMPDEST PUSH1 0x0 PUSH1 0x20 DUP3 ADD SWAP1 POP DUP2 DUP2 SUB PUSH1 0x0 DUP4 ADD MSTORE PUSH2 0x1C9D DUP2 PUSH2 0x1A09 JUMP JUMPDEST SWAP1 POP SWAP2 SWAP1 POP JUMP JUMPDEST PUSH1 0x0 PUSH1 0x20 DUP3 ADD SWAP1 POP DUP2 DUP2 SUB PUSH1 0x0 DUP4 ADD MSTORE PUSH2 0x1CBD DUP2 PUSH2 0x1A2C JUMP JUMPDEST SWAP1 POP SWAP2 SWAP1 POP JUMP JUMPDEST PUSH1 0x0 PUSH1 0x20 DUP3 ADD SWAP1 POP DUP2 DUP2 SUB PUSH1 0x0 DUP4 ADD MSTORE PUSH2 0x1CDD DUP2 PUSH2 0x1A4F JUMP JUMPDEST SWAP1 POP SWAP2 SWAP1 POP JUMP JUMPDEST PUSH1 0x0 PUSH1 0x20 DUP3 ADD SWAP1 POP DUP2 DUP2 SUB PUSH1 0x0 DUP4 ADD MSTORE PUSH2 0x1CFD DUP2 PUSH2 0x1A72 JUMP JUMPDEST SWAP1 POP SWAP2 SWAP1 POP JUMP JUMPDEST PUSH1 0x0 PUSH1 0x20 DUP3 ADD SWAP1 POP DUP2 DUP2 SUB PUSH1 0x0 DUP4 ADD MSTORE PUSH2 0x1D1D DUP2 PUSH2 0x1A95 JUMP JUMPDEST SWAP1 POP SWAP2 SWAP1 POP JUMP JUMPDEST PUSH1 0x0 PUSH1 0x20 DUP3 ADD SWAP1 POP DUP2 DUP2 SUB PUSH1 0x0 DUP4 ADD MSTORE PUSH2 0x1D3D DUP2 PUSH2 0x1AB8 JUMP JUMPDEST SWAP1 POP SWAP2 SWAP1 POP JUMP JUMPDEST PUSH1 0x0 PUSH1 0x20 DUP3 ADD SWAP1 POP DUP2 DUP2 SUB PUSH1 0x0 DUP4 ADD MSTORE PUSH2 0x1D5D DUP2 PUSH2 0x1ADB JUMP JUMPDEST SWAP1 POP SWAP2 SWAP1 POP JUMP JUMPDEST PUSH1 0x0 PUSH1 0x20 DUP3 ADD SWAP1 POP DUP2 DUP2 SUB PUSH1 0x0 DUP4 ADD MSTORE PUSH2 0x1D7D DUP2 PUSH2 0x1AFE JUMP JUMPDEST SWAP1 POP SWAP2 SWAP1 POP JUMP JUMPDEST PUSH1 0x0 PUSH1 0x20 DUP3 ADD SWAP1 POP DUP2 DUP2 SUB PUSH1 0x0 DUP4 ADD MSTORE PUSH2 0x1D9D DUP2 PUSH2 0x1B21 JUMP JUMPDEST SWAP1 POP SWAP2 SWAP1 POP JUMP JUMPDEST PUSH1 0x0 PUSH1 0x20 DUP3 ADD SWAP1 POP DUP2 DUP2 SUB PUSH1 0x0 DUP4 ADD MSTORE PUSH2 0x1DBD DUP2 PUSH2 0x1B44 JUMP JUMPDEST SWAP1 POP SWAP2 SWAP1 POP JUMP JUMPDEST PUSH1 0x0 PUSH1 0x20 DUP3 ADD SWAP1 POP DUP2 DUP2 SUB PUSH1 0x0 DUP4 ADD MSTORE PUSH2 0x1DDD DUP2 PUSH2 0x1B67 JUMP JUMPDEST SWAP1 POP SWAP2 SWAP1 POP JUMP JUMPDEST PUSH1 0x0 PUSH1 0x20 DUP3 ADD SWAP1 POP DUP2 DUP2 SUB PUSH1 0x0 DUP4 ADD MSTORE PUSH2 0x1DFD DUP2 PUSH2 0x1B8A JUMP JUMPDEST SWAP1 POP SWAP2 SWAP1 POP JUMP JUMPDEST PUSH1 0x0 PUSH1 0x20 DUP3 ADD SWAP1 POP PUSH2 0x1E19 PUSH1 0x0 DUP4 ADD DUP5 PUSH2 0x1BAD JUMP JUMPDEST SWAP3 SWAP2 POP POP JUMP JUMPDEST PUSH1 0x0 PUSH2 0x1E29 PUSH2 0x1E3A JUMP JUMPDEST SWAP1 POP PUSH2 0x1E35 DUP3 DUP3 PUSH2 0x208C JUMP JUMPDEST SWAP2 SWAP1 POP JUMP JUMPDEST PUSH1 0x0 PUSH1 0x40 MLOAD SWAP1 POP SWAP1 JUMP JUMPDEST PUSH1 0x0 PUSH8 0xFFFFFFFFFFFFFFFF DUP3 GT ISZERO PUSH2 0x1E5F JUMPI PUSH2 0x1E5E PUSH2 0x21F3 JUMP JUMPDEST JUMPDEST PUSH2 0x1E68 DUP3 PUSH2 0x2236 JUMP JUMPDEST SWAP1 POP PUSH1 0x20 DUP2 ADD SWAP1 POP SWAP2 SWAP1 POP JUMP JUMPDEST PUSH1 0x0 PUSH8 0xFFFFFFFFFFFFFFFF DUP3 GT ISZERO PUSH2 0x1E90 JUMPI PUSH2 0x1E8F PUSH2 0x21F3 JUMP JUMPDEST JUMPDEST PUSH2 0x1E99 DUP3 PUSH2 0x2236 JUMP JUMPDEST SWAP1 POP PUSH1 0x20 DUP2 ADD SWAP1 POP SWAP2 SWAP1 POP JUMP JUMPDEST PUSH1 0x0 DUP2 MLOAD SWAP1 POP SWAP2 SWAP1 POP JUMP JUMPDEST PUSH1 0x0 DUP2 MLOAD SWAP1 POP SWAP2 SWAP1 POP JUMP JUMPDEST PUSH1 0x0 DUP3 DUP3 MSTORE PUSH1 0x20 DUP3 ADD SWAP1 POP SWAP3 SWAP2 POP POP JUMP JUMPDEST PUSH1 0x0 DUP3 DUP3 MSTORE PUSH1 0x20 DUP3 ADD SWAP1 POP SWAP3 SWAP2 POP POP JUMP JUMPDEST PUSH1 0x0 DUP2 SWAP1 POP SWAP3 SWAP2 POP POP JUMP JUMPDEST PUSH1 0x0 PUSH2 0x1EF4 DUP3 PUSH2 0x200E JUMP JUMPDEST SWAP2 POP PUSH2 0x1EFF DUP4 PUSH2 0x200E JUMP JUMPDEST SWAP3 POP DUP3 PUSH32 0xFFFFFFFFFFFFFFFFFFFFFFFFFFFFFFFFFFFFFFFFFFFFFFFFFFFFFFFFFFFFFFFF SUB DUP3 GT ISZERO PUSH2 0x1F34 JUMPI PUSH2 0x1F33 PUSH2 0x2137 JUMP JUMPDEST JUMPDEST DUP3 DUP3 ADD SWAP1 POP SWAP3 SWAP2 POP POP JUMP JUMPDEST PUSH1 0x0 PUSH2 0x1F4A DUP3 PUSH2 0x200E JUMP JUMPDEST SWAP2 POP PUSH2 0x1F55 DUP4 PUSH2 0x200E JUMP JUMPDEST SWAP3 POP DUP3 PUSH2 0x1F65 JUMPI PUSH2 0x1F64 PUSH2 0x2166 JUMP JUMPDEST JUMPDEST DUP3 DUP3 DIV SWAP1 POP SWAP3 SWAP2 POP POP JUMP JUMPDEST PUSH1 0x0 PUSH2 0x1F7B DUP3 PUSH2 0x200E JUMP JUMPDEST SWAP2 POP PUSH2 0x1F86 DUP4 PUSH2 0x200E JUMP JUMPDEST SWAP3 POP DUP3 DUP3 LT ISZERO PUSH2 0x1F99 JUMPI PUSH2 0x1F98 PUSH2 0x2137 JUMP JUMPDEST JUMPDEST DUP3 DUP3 SUB SWAP1 POP SWAP3 SWAP2 POP POP JUMP JUMPDEST PUSH1 0x0 PUSH2 0x1FAF DUP3 PUSH2 0x1FEE JUMP JUMPDEST SWAP1 POP SWAP2 SWAP1 POP JUMP JUMPDEST PUSH1 0x0 DUP2 ISZERO ISZERO SWAP1 POP SWAP2 SWAP1 POP JUMP JUMPDEST PUSH1 0x0 PUSH32 0xFFFFFFFF00000000000000000000000000000000000000000000000000000000 DUP3 AND SWAP1 POP SWAP2 SWAP1 POP JUMP JUMPDEST PUSH1 0x0 PUSH20 0xFFFFFFFFFFFFFFFFFFFFFFFFFFFFFFFFFFFFFFFF DUP3 AND SWAP1 POP SWAP2 SWAP1 POP JUMP JUMPDEST PUSH1 0x0 DUP2 SWAP1 POP SWAP2 SWAP1 POP JUMP JUMPDEST DUP3 DUP2 DUP4 CALLDATACOPY PUSH1 0x0 DUP4 DUP4 ADD MSTORE POP POP POP JUMP JUMPDEST PUSH1 0x0 JUMPDEST DUP4 DUP2 LT ISZERO PUSH2 0x2045 JUMPI DUP1 DUP3 ADD MLOAD DUP2 DUP5 ADD MSTORE PUSH1 0x20 DUP2 ADD SWAP1 POP PUSH2 0x202A JUMP JUMPDEST DUP4 DUP2 GT ISZERO PUSH2 0x2054 JUMPI PUSH1 0x0 DUP5 DUP5 ADD MSTORE JUMPDEST POP POP POP POP JUMP JUMPDEST PUSH1 0x0 PUSH1 0x2 DUP3 DIV SWAP1 POP PUSH1 0x1 DUP3 AND DUP1 PUSH2 0x2072 JUMPI PUSH1 0x7F DUP3 AND SWAP2 POP JUMPDEST PUSH1 0x20 DUP3 LT DUP2 EQ ISZERO PUSH2 0x2086 JUMPI PUSH2 0x2085 PUSH2 0x2195 JUMP JUMPDEST JUMPDEST POP SWAP2 SWAP1 POP JUMP JUMPDEST PUSH2 0x2095 DUP3 PUSH2 0x2236 JUMP JUMPDEST DUP2 ADD DUP2 DUP2 LT PUSH8 0xFFFFFFFFFFFFFFFF DUP3 GT OR ISZERO PUSH2 0x20B4 JUMPI PUSH2 0x20B3 PUSH2 0x21F3 JUMP JUMPDEST JUMPDEST DUP1 PUSH1 0x40 MSTORE POP POP POP JUMP JUMPDEST PUSH1 0x0 PUSH2 0x20C8 DUP3 PUSH2 0x200E JUMP JUMPDEST SWAP2 POP PUSH32 0xFFFFFFFFFFFFFFFFFFFFFFFFFFFFFFFFFFFFFFFFFFFFFFFFFFFFFFFFFFFFFFFF DUP3 EQ ISZERO PUSH2 0x20FB JUMPI PUSH2 0x20FA PUSH2 0x2137 JUMP JUMPDEST JUMPDEST PUSH1 0x1 DUP3 ADD SWAP1 POP SWAP2 SWAP1 POP JUMP JUMPDEST PUSH1 0x0 PUSH2 0x2111 DUP3 PUSH2 0x200E JUMP JUMPDEST SWAP2 POP PUSH2 0x211C DUP4 PUSH2 0x200E JUMP JUMPDEST SWAP3 POP DUP3 PUSH2 0x212C JUMPI PUSH2 0x212B PUSH2 0x2166 JUMP JUMPDEST JUMPDEST DUP3 DUP3 MOD SWAP1 POP SWAP3 SWAP2 POP POP JUMP JUMPDEST PUSH32 0x4E487B7100000000000000000000000000000000000000000000000000000000 PUSH1 0x0 MSTORE PUSH1 0x11 PUSH1 0x4 MSTORE PUSH1 0x24 PUSH1 0x0 REVERT JUMPDEST PUSH32 0x4E487B7100000000000000000000000000000000000000000000000000000000 PUSH1 0x0 MSTORE PUSH1 0x12 PUSH1 0x4 MSTORE PUSH1 0x24 PUSH1 0x0 REVERT JUMPDEST PUSH32 0x4E487B7100000000000000000000000000000000000000000000000000000000 PUSH1 0x0 MSTORE PUSH1 0x22 PUSH1 0x4 MSTORE PUSH1 0x24 PUSH1 0x0 REVERT JUMPDEST PUSH32 0x4E487B7100000000000000000000000000000000000000000000000000000000 PUSH1 0x0 MSTORE PUSH1 0x32 PUSH1 0x4 MSTORE PUSH1 0x24 PUSH1 0x0 REVERT JUMPDEST PUSH32 0x4E487B7100000000000000000000000000000000000000000000000000000000 PUSH1 0x0 MSTORE PUSH1 0x41 PUSH1 0x4 MSTORE PUSH1 0x24 PUSH1 0x0 REVERT JUMPDEST PUSH1 0x0 DUP1 REVERT JUMPDEST PUSH1 0x0 DUP1 REVERT JUMPDEST PUSH1 0x0 DUP1 REVERT JUMPDEST PUSH1 0x0 DUP1 REVERT JUMPDEST PUSH1 0x0 PUSH1 0x1F NOT PUSH1 0x1F DUP4 ADD AND SWAP1 POP SWAP2 SWAP1 POP JUMP JUMPDEST PUSH32 0x4552433732313A207472616E7366657220746F206E6F6E204552433732315265 PUSH1 0x0 DUP3 ADD MSTORE PUSH32 0x63656976657220696D706C656D656E7465720000000000000000000000000000 PUSH1 0x20 DUP3 ADD MSTORE POP JUMP JUMPDEST PUSH32 0x4552433732313A207472616E736665722066726F6D20696E636F727265637420 PUSH1 0x0 DUP3 ADD MSTORE PUSH32 0x6F776E6572000000000000000000000000000000000000000000000000000000 PUSH1 0x20 DUP3 ADD MSTORE POP JUMP JUMPDEST PUSH32 0x4552433732313A207472616E7366657220746F20746865207A65726F20616464 PUSH1 0x0 DUP3 ADD MSTORE PUSH32 0x7265737300000000000000000000000000000000000000000000000000000000 PUSH1 0x20 DUP3 ADD MSTORE POP JUMP JUMPDEST PUSH32 0x4552433732313A20617070726F766520746F2063616C6C657200000000000000 PUSH1 0x0 DUP3 ADD MSTORE POP JUMP JUMPDEST PUSH32 0x4552433732313A206F70657261746F7220717565727920666F72206E6F6E6578 PUSH1 0x0 DUP3 ADD MSTORE PUSH32 0x697374656E7420746F6B656E0000000000000000000000000000000000000000 PUSH1 0x20 DUP3 ADD MSTORE POP JUMP JUMPDEST PUSH32 0x4552433732313A2061646472657373207A65726F206973206E6F742061207661 PUSH1 0x0 DUP3 ADD MSTORE PUSH32 0x6C6964206F776E65720000000000000000000000000000000000000000000000 PUSH1 0x20 DUP3 ADD MSTORE POP JUMP JUMPDEST PUSH32 0x4552433732313A20617070726F76652063616C6C6572206973206E6F74206F77 PUSH1 0x0 DUP3 ADD MSTORE PUSH32 0x6E6572206E6F7220617070726F76656420666F7220616C6C0000000000000000 PUSH1 0x20 DUP3 ADD MSTORE POP JUMP JUMPDEST PUSH32 0x4552433732313A206F776E657220717565727920666F72206E6F6E6578697374 PUSH1 0x0 DUP3 ADD MSTORE PUSH32 0x656E7420746F6B656E0000000000000000000000000000000000000000000000 PUSH1 0x20 DUP3 ADD MSTORE POP JUMP JUMPDEST PUSH32 0x4552433732313A20617070726F76656420717565727920666F72206E6F6E6578 PUSH1 0x0 DUP3 ADD MSTORE PUSH32 0x697374656E7420746F6B656E0000000000000000000000000000000000000000 PUSH1 0x20 DUP3 ADD MSTORE POP JUMP JUMPDEST PUSH32 0x4552433732314D657461646174613A2055524920717565727920666F72206E6F PUSH1 0x0 DUP3 ADD MSTORE PUSH32 0x6E6578697374656E7420746F6B656E0000000000000000000000000000000000 PUSH1 0x20 DUP3 ADD MSTORE POP JUMP JUMPDEST PUSH32 0x4552433732313A20617070726F76616C20746F2063757272656E74206F776E65 PUSH1 0x0 DUP3 ADD MSTORE PUSH32 0x7200000000000000000000000000000000000000000000000000000000000000 PUSH1 0x20 DUP3 ADD MSTORE POP JUMP JUMPDEST PUSH32 0x4552433732313A207472616E736665722063616C6C6572206973206E6F74206F PUSH1 0x0 DUP3 ADD MSTORE PUSH32 0x776E6572206E6F7220617070726F766564000000000000000000000000000000 PUSH1 0x20 DUP3 ADD MSTORE POP JUMP JUMPDEST PUSH2 0x25DE DUP2 PUSH2 0x1FA4 JUMP JUMPDEST DUP2 EQ PUSH2 0x25E9 JUMPI PUSH1 0x0 DUP1 REVERT JUMPDEST POP JUMP JUMPDEST PUSH2 0x25F5 DUP2 PUSH2 0x1FB6 JUMP JUMPDEST DUP2 EQ PUSH2 0x2600 JUMPI PUSH1 0x0 DUP1 REVERT JUMPDEST POP JUMP JUMPDEST PUSH2 0x260C DUP2 PUSH2 0x1FC2 JUMP JUMPDEST DUP2 EQ PUSH2 0x2617 JUMPI PUSH1 0x0 DUP1 REVERT JUMPDEST POP JUMP JUMPDEST PUSH2 0x2623 DUP2 PUSH2 0x200E JUMP JUMPDEST DUP2 EQ PUSH2 0x262E JUMPI PUSH1 0x0 DUP1 REVERT JUMPDEST POP JUMP INVALID LOG2 PUSH5 0x6970667358 0x22 SLT KECCAK256 PUSH8 0xA7FFA7DA6A8C3FF8 0xD2 DUP16 0xB6 0xE7 0x2D 0xAC CREATE PUSH3 0xF1B0D5 0xD3 0xEA 0xB8 LOG3 SLT 0xB6 0xB7 0xFC PUSH13 0xCA2A7464736F6C634300080700 CALLER "
				},
				"gasEstimates": {
					"creation": {
						"codeDepositCost": "1966200",
						"executionCost": "infinite",
						"totalCost": "infinite"
					},
					"external": {
						"_delistHouse()": "24500",
						"_getId()": "2482",
						"_getPrice()": "2526",
						"_listHouse(uint256,uint256,uint256,uint256,uint256,address,address,string,bool)": "infinite",
						"approve(address,uint256)": "infinite",
						"balanceOf(address)": "2924",
						"getApproved(uint256)": "5228",
						"isApprovedForAll(address,address)": "infinite",
						"name()": "infinite",
						"ownerOf(uint256)": "3000",
						"safeTransferFrom(address,address,uint256)": "infinite",
						"safeTransferFrom(address,address,uint256,bytes)": "infinite",
						"setApprovalForAll(address,bool)": "infinite",
						"supportsInterface(bytes4)": "797",
						"symbol()": "infinite",
						"tokenURI(uint256)": "3417",
						"transferFrom(address,address,uint256)": "infinite"
					}
				},
				"methodIdentifiers": {
					"_delistHouse()": "5ff27f13",
					"_getId()": "36c8af5d",
					"_getPrice()": "a19af1ad",
					"_listHouse(uint256,uint256,uint256,uint256,uint256,address,address,string,bool)": "c1e41307",
					"approve(address,uint256)": "095ea7b3",
					"balanceOf(address)": "70a08231",
					"getApproved(uint256)": "081812fc",
					"isApprovedForAll(address,address)": "e985e9c5",
					"name()": "06fdde03",
					"ownerOf(uint256)": "6352211e",
					"safeTransferFrom(address,address,uint256)": "42842e0e",
					"safeTransferFrom(address,address,uint256,bytes)": "b88d4fde",
					"setApprovalForAll(address,bool)": "a22cb465",
					"supportsInterface(bytes4)": "01ffc9a7",
					"symbol()": "95d89b41",
					"tokenURI(uint256)": "c87b56dd",
					"transferFrom(address,address,uint256)": "23b872dd"
				}
			},
			"storageLayout": {
				"storage": [
					{
						"astId": 25,
						"contract": "contract/token/HouseToken.sol:HouseToken",
						"label": "_name",
						"offset": 0,
						"slot": "0",
						"type": "t_string_storage"
					},
					{
						"astId": 27,
						"contract": "contract/token/HouseToken.sol:HouseToken",
						"label": "_symbol",
						"offset": 0,
						"slot": "1",
						"type": "t_string_storage"
					},
					{
						"astId": 31,
						"contract": "contract/token/HouseToken.sol:HouseToken",
						"label": "_owners",
						"offset": 0,
						"slot": "2",
						"type": "t_mapping(t_uint256,t_address)"
					},
					{
						"astId": 35,
						"contract": "contract/token/HouseToken.sol:HouseToken",
						"label": "_balances",
						"offset": 0,
						"slot": "3",
						"type": "t_mapping(t_address,t_uint256)"
					},
					{
						"astId": 39,
						"contract": "contract/token/HouseToken.sol:HouseToken",
						"label": "_tokenApprovals",
						"offset": 0,
						"slot": "4",
						"type": "t_mapping(t_uint256,t_address)"
					},
					{
						"astId": 45,
						"contract": "contract/token/HouseToken.sol:HouseToken",
						"label": "_operatorApprovals",
						"offset": 0,
						"slot": "5",
						"type": "t_mapping(t_address,t_mapping(t_address,t_bool))"
					},
					{
						"astId": 875,
						"contract": "contract/token/HouseToken.sol:HouseToken",
						"label": "_id",
						"offset": 0,
						"slot": "6",
						"type": "t_uint256"
					},
					{
						"astId": 877,
						"contract": "contract/token/HouseToken.sol:HouseToken",
						"label": "_serialNumber",
						"offset": 0,
						"slot": "7",
						"type": "t_uint256"
					},
					{
						"astId": 879,
						"contract": "contract/token/HouseToken.sol:HouseToken",
						"label": "_price",
						"offset": 0,
						"slot": "8",
						"type": "t_uint256"
					},
					{
						"astId": 881,
						"contract": "contract/token/HouseToken.sol:HouseToken",
						"label": "_priceDai",
						"offset": 0,
						"slot": "9",
						"type": "t_uint256"
					},
					{
						"astId": 883,
						"contract": "contract/token/HouseToken.sol:HouseToken",
						"label": "_area",
						"offset": 0,
						"slot": "10",
						"type": "t_uint256"
					},
					{
						"astId": 885,
						"contract": "contract/token/HouseToken.sol:HouseToken",
						"label": "_sellerAddress",
						"offset": 0,
						"slot": "11",
						"type": "t_address"
					},
					{
						"astId": 887,
						"contract": "contract/token/HouseToken.sol:HouseToken",
						"label": "_buyerAddress",
						"offset": 0,
						"slot": "12",
						"type": "t_address"
					},
					{
						"astId": 889,
						"contract": "contract/token/HouseToken.sol:HouseToken",
						"label": "_houseAddress",
						"offset": 0,
						"slot": "13",
						"type": "t_string_storage"
					},
					{
						"astId": 891,
						"contract": "contract/token/HouseToken.sol:HouseToken",
						"label": "_isdelistedHouse",
						"offset": 0,
						"slot": "14",
						"type": "t_bool"
					}
				],
				"types": {
					"t_address": {
						"encoding": "inplace",
						"label": "address",
						"numberOfBytes": "20"
					},
					"t_bool": {
						"encoding": "inplace",
						"label": "bool",
						"numberOfBytes": "1"
					},
					"t_mapping(t_address,t_bool)": {
						"encoding": "mapping",
						"key": "t_address",
						"label": "mapping(address => bool)",
						"numberOfBytes": "32",
						"value": "t_bool"
					},
					"t_mapping(t_address,t_mapping(t_address,t_bool))": {
						"encoding": "mapping",
						"key": "t_address",
						"label": "mapping(address => mapping(address => bool))",
						"numberOfBytes": "32",
						"value": "t_mapping(t_address,t_bool)"
					},
					"t_mapping(t_address,t_uint256)": {
						"encoding": "mapping",
						"key": "t_address",
						"label": "mapping(address => uint256)",
						"numberOfBytes": "32",
						"value": "t_uint256"
					},
					"t_mapping(t_uint256,t_address)": {
						"encoding": "mapping",
						"key": "t_uint256",
						"label": "mapping(uint256 => address)",
						"numberOfBytes": "32",
						"value": "t_address"
					},
					"t_string_storage": {
						"encoding": "bytes",
						"label": "string",
						"numberOfBytes": "32"
					},
					"t_uint256": {
						"encoding": "inplace",
						"label": "uint256",
						"numberOfBytes": "32"
					}
				}
			},
			"userdoc": {
				"kind": "user",
				"methods": {},
				"version": 1
			}
		}
	}
}