{
	"contract/token/ERC721.sol": {
		"ERC721": {
			"abi": [
				{
					"inputs": [
						{
							"internalType": "string",
							"name": "name_",
							"type": "string"
						},
						{
							"internalType": "string",
							"name": "symbol_",
							"type": "string"
						}
					],
					"stateMutability": "nonpayable",
					"type": "constructor"
				},
				{
					"anonymous": false,
					"inputs": [
						{
							"indexed": true,
							"internalType": "address",
							"name": "owner",
							"type": "address"
						},
						{
							"indexed": true,
							"internalType": "address",
							"name": "approved",
							"type": "address"
						},
						{
							"indexed": true,
							"internalType": "uint256",
							"name": "tokenId",
							"type": "uint256"
						}
					],
					"name": "Approval",
					"type": "event"
				},
				{
					"anonymous": false,
					"inputs": [
						{
							"indexed": true,
							"internalType": "address",
							"name": "owner",
							"type": "address"
						},
						{
							"indexed": true,
							"internalType": "address",
							"name": "operator",
							"type": "address"
						},
						{
							"indexed": false,
							"internalType": "bool",
							"name": "approved",
							"type": "bool"
						}
					],
					"name": "ApprovalForAll",
					"type": "event"
				},
				{
					"anonymous": false,
					"inputs": [
						{
							"indexed": true,
							"internalType": "address",
							"name": "from",
							"type": "address"
						},
						{
							"indexed": true,
							"internalType": "address",
							"name": "to",
							"type": "address"
						},
						{
							"indexed": true,
							"internalType": "uint256",
							"name": "tokenId",
							"type": "uint256"
						}
					],
					"name": "Transfer",
					"type": "event"
				},
				{
					"inputs": [
						{
							"internalType": "address",
							"name": "to",
							"type": "address"
						},
						{
							"internalType": "uint256",
							"name": "tokenId",
							"type": "uint256"
						}
					],
					"name": "approve",
					"outputs": [],
					"stateMutability": "nonpayable",
					"type": "function"
				},
				{
					"inputs": [
						{
							"internalType": "address",
							"name": "owner",
							"type": "address"
						}
					],
					"name": "balanceOf",
					"outputs": [
						{
							"internalType": "uint256",
							"name": "",
							"type": "uint256"
						}
					],
					"stateMutability": "view",
					"type": "function"
				},
				{
					"inputs": [
						{
							"internalType": "uint256",
							"name": "tokenId",
							"type": "uint256"
						}
					],
					"name": "getApproved",
					"outputs": [
						{
							"internalType": "address",
							"name": "",
							"type": "address"
						}
					],
					"stateMutability": "view",
					"type": "function"
				},
				{
					"inputs": [
						{
							"internalType": "uint256",
							"name": "",
							"type": "uint256"
						}
					],
					"name": "houses",
					"outputs": [
						{
							"internalType": "uint256",
							"name": "id",
							"type": "uint256"
						},
						{
							"internalType": "uint256",
							"name": "serialNumber",
							"type": "uint256"
						},
						{
							"internalType": "uint256",
							"name": "price",
							"type": "uint256"
						},
						{
							"internalType": "uint256",
							"name": "priceDai",
							"type": "uint256"
						},
						{
							"internalType": "uint256",
							"name": "area",
							"type": "uint256"
						},
						{
							"internalType": "address",
							"name": "sellerAddress",
							"type": "address"
						},
						{
							"internalType": "address",
							"name": "buyerAddress",
							"type": "address"
						},
						{
							"internalType": "string",
							"name": "houseAddress",
							"type": "string"
						},
						{
							"internalType": "bool",
							"name": "isdelistedHouse",
							"type": "bool"
						}
					],
					"stateMutability": "view",
					"type": "function"
				},
				{
					"inputs": [
						{
							"internalType": "address",
							"name": "owner",
							"type": "address"
						},
						{
							"internalType": "address",
							"name": "operator",
							"type": "address"
						}
					],
					"name": "isApprovedForAll",
					"outputs": [
						{
							"internalType": "bool",
							"name": "",
							"type": "bool"
						}
					],
					"stateMutability": "view",
					"type": "function"
				},
				{
					"inputs": [],
					"name": "name",
					"outputs": [
						{
							"internalType": "string",
							"name": "",
							"type": "string"
						}
					],
					"stateMutability": "view",
					"type": "function"
				},
				{
					"inputs": [
						{
							"internalType": "uint256",
							"name": "tokenId",
							"type": "uint256"
						}
					],
					"name": "ownerOf",
					"outputs": [
						{
							"internalType": "address",
							"name": "",
							"type": "address"
						}
					],
					"stateMutability": "view",
					"type": "function"
				},
				{
					"inputs": [
						{
							"internalType": "address",
							"name": "from",
							"type": "address"
						},
						{
							"internalType": "address",
							"name": "to",
							"type": "address"
						},
						{
							"internalType": "uint256",
							"name": "tokenId",
							"type": "uint256"
						}
					],
					"name": "safeTransferFrom",
					"outputs": [],
					"stateMutability": "nonpayable",
					"type": "function"
				},
				{
					"inputs": [
						{
							"internalType": "address",
							"name": "from",
							"type": "address"
						},
						{
							"internalType": "address",
							"name": "to",
							"type": "address"
						},
						{
							"internalType": "uint256",
							"name": "tokenId",
							"type": "uint256"
						},
						{
							"internalType": "bytes",
							"name": "data",
							"type": "bytes"
						}
					],
					"name": "safeTransferFrom",
					"outputs": [],
					"stateMutability": "nonpayable",
					"type": "function"
				},
				{
					"inputs": [
						{
							"internalType": "address",
							"name": "operator",
							"type": "address"
						},
						{
							"internalType": "bool",
							"name": "approved",
							"type": "bool"
						}
					],
					"name": "setApprovalForAll",
					"outputs": [],
					"stateMutability": "nonpayable",
					"type": "function"
				},
				{
					"inputs": [
						{
							"internalType": "bytes4",
							"name": "interfaceId",
							"type": "bytes4"
						}
					],
					"name": "supportsInterface",
					"outputs": [
						{
							"internalType": "bool",
							"name": "",
							"type": "bool"
						}
					],
					"stateMutability": "view",
					"type": "function"
				},
				{
					"inputs": [],
					"name": "symbol",
					"outputs": [
						{
							"internalType": "string",
							"name": "",
							"type": "string"
						}
					],
					"stateMutability": "view",
					"type": "function"
				},
				{
					"inputs": [
						{
							"internalType": "uint256",
							"name": "tokenId",
							"type": "uint256"
						}
					],
					"name": "tokenURI",
					"outputs": [
						{
							"internalType": "string",
							"name": "",
							"type": "string"
						}
					],
					"stateMutability": "view",
					"type": "function"
				},
				{
					"inputs": [
						{
							"internalType": "address",
							"name": "from",
							"type": "address"
						},
						{
							"internalType": "address",
							"name": "to",
							"type": "address"
						},
						{
							"internalType": "uint256",
							"name": "tokenId",
							"type": "uint256"
						}
					],
					"name": "transferFrom",
					"outputs": [],
					"stateMutability": "nonpayable",
					"type": "function"
				}
			],
			"devdoc": {
				"details": "Implementation of https://eips.ethereum.org/EIPS/eip-721[ERC721] Non-Fungible Token Standard, including the Metadata extension, but not including the Enumerable extension, which is available separately as {ERC721Enumerable}.",
				"kind": "dev",
				"methods": {
					"approve(address,uint256)": {
						"details": "See {IERC721-approve}."
					},
					"balanceOf(address)": {
						"details": "See {IERC721-balanceOf}."
					},
					"constructor": {
						"details": "Initializes the contract by setting a `name` and a `symbol` to the token collection."
					},
					"getApproved(uint256)": {
						"details": "See {IERC721-getApproved}."
					},
					"isApprovedForAll(address,address)": {
						"details": "See {IERC721-isApprovedForAll}."
					},
					"name()": {
						"details": "See {IERC721Metadata-name}."
					},
					"ownerOf(uint256)": {
						"details": "See {IERC721-ownerOf}."
					},
					"safeTransferFrom(address,address,uint256)": {
						"details": "See {IERC721-safeTransferFrom}."
					},
					"safeTransferFrom(address,address,uint256,bytes)": {
						"details": "See {IERC721-safeTransferFrom}."
					},
					"setApprovalForAll(address,bool)": {
						"details": "See {IERC721-setApprovalForAll}."
					},
					"supportsInterface(bytes4)": {
						"details": "See {IERC165-supportsInterface}."
					},
					"symbol()": {
						"details": "See {IERC721Metadata-symbol}."
					},
					"tokenURI(uint256)": {
						"details": "See {IERC721Metadata-tokenURI}."
					},
					"transferFrom(address,address,uint256)": {
						"details": "See {IERC721-transferFrom}."
					}
				},
				"version": 1
			},
			"evm": {
				"assembly": "    /* \"contract/token/ERC721.sol\":674:15057  contract ERC721 is Context, ERC165, IERC721, IERC721Metadata {\r... */\n  mstore(0x40, 0x80)\n    /* \"contract/token/ERC721.sol\":1769:1885  constructor(string memory name_, string memory symbol_) {\r... */\n  callvalue\n  dup1\n  iszero\n  tag_1\n  jumpi\n  0x00\n  dup1\n  revert\ntag_1:\n  pop\n  mload(0x40)\n  sub(codesize, bytecodeSize)\n  dup1\n  bytecodeSize\n  dup4\n  codecopy\n  dup2\n  dup2\n  add\n  0x40\n  mstore\n  dup2\n  add\n  swap1\n  tag_2\n  swap2\n  swap1\n  tag_3\n  jump\t// in\ntag_2:\n    /* \"contract/token/ERC721.sol\":1844:1849  name_ */\n  dup2\n    /* \"contract/token/ERC721.sol\":1836:1841  _name */\n  0x00\n    /* \"contract/token/ERC721.sol\":1836:1849  _name = name_ */\n  swap1\n  dup1\n  mload\n  swap1\n  0x20\n  add\n  swap1\n  tag_6\n  swap3\n  swap2\n  swap1\n  tag_7\n  jump\t// in\ntag_6:\n  pop\n    /* \"contract/token/ERC721.sol\":1870:1877  symbol_ */\n  dup1\n    /* \"contract/token/ERC721.sol\":1860:1867  _symbol */\n  0x01\n    /* \"contract/token/ERC721.sol\":1860:1877  _symbol = symbol_ */\n  swap1\n  dup1\n  mload\n  swap1\n  0x20\n  add\n  swap1\n  tag_8\n  swap3\n  swap2\n  swap1\n  tag_7\n  jump\t// in\ntag_8:\n  pop\n    /* \"contract/token/ERC721.sol\":1769:1885  constructor(string memory name_, string memory symbol_) {\r... */\n  pop\n  pop\n    /* \"contract/token/ERC721.sol\":674:15057  contract ERC721 is Context, ERC165, IERC721, IERC721Metadata {\r... */\n  jump(tag_9)\ntag_7:\n  dup3\n  dup1\n  sload\n  tag_10\n  swap1\n  tag_11\n  jump\t// in\ntag_10:\n  swap1\n  0x00\n  mstore\n  keccak256(0x00, 0x20)\n  swap1\n  0x1f\n  add\n  0x20\n  swap1\n  div\n  dup2\n  add\n  swap3\n  dup3\n  tag_13\n  jumpi\n  0x00\n  dup6\n  sstore\n  jump(tag_12)\ntag_13:\n  dup3\n  0x1f\n  lt\n  tag_14\n  jumpi\n  dup1\n  mload\n  not(0xff)\n  and\n  dup4\n  dup1\n  add\n  or\n  dup6\n  sstore\n  jump(tag_12)\ntag_14:\n  dup3\n  dup1\n  add\n  0x01\n  add\n  dup6\n  sstore\n  dup3\n  iszero\n  tag_12\n  jumpi\n  swap2\n  dup3\n  add\ntag_15:\n  dup3\n  dup2\n  gt\n  iszero\n  tag_16\n  jumpi\n  dup3\n  mload\n  dup3\n  sstore\n  swap2\n  0x20\n  add\n  swap2\n  swap1\n  0x01\n  add\n  swap1\n  jump(tag_15)\ntag_16:\ntag_12:\n  pop\n  swap1\n  pop\n  tag_17\n  swap2\n  swap1\n  tag_18\n  jump\t// in\ntag_17:\n  pop\n  swap1\n  jump\t// out\ntag_18:\ntag_19:\n  dup1\n  dup3\n  gt\n  iszero\n  tag_20\n  jumpi\n  0x00\n  dup2\n  0x00\n  swap1\n  sstore\n  pop\n  0x01\n  add\n  jump(tag_19)\ntag_20:\n  pop\n  swap1\n  jump\t// out\n    /* \"#utility.yul\":7:428   */\ntag_22:\n    /* \"#utility.yul\":96:101   */\n  0x00\n    /* \"#utility.yul\":121:187   */\n  tag_24\n    /* \"#utility.yul\":137:186   */\n  tag_25\n    /* \"#utility.yul\":179:185   */\n  dup5\n    /* \"#utility.yul\":137:186   */\n  tag_26\n  jump\t// in\ntag_25:\n    /* \"#utility.yul\":121:187   */\n  tag_27\n  jump\t// in\ntag_24:\n    /* \"#utility.yul\":112:187   */\n  swap1\n  pop\n    /* \"#utility.yul\":210:216   */\n  dup3\n    /* \"#utility.yul\":203:208   */\n  dup2\n    /* \"#utility.yul\":196:217   */\n  mstore\n    /* \"#utility.yul\":248:252   */\n  0x20\n    /* \"#utility.yul\":241:246   */\n  dup2\n    /* \"#utility.yul\":237:253   */\n  add\n    /* \"#utility.yul\":286:289   */\n  dup5\n    /* \"#utility.yul\":277:283   */\n  dup5\n    /* \"#utility.yul\":272:275   */\n  dup5\n    /* \"#utility.yul\":268:284   */\n  add\n    /* \"#utility.yul\":265:290   */\n  gt\n    /* \"#utility.yul\":262:374   */\n  iszero\n  tag_28\n  jumpi\n    /* \"#utility.yul\":293:372   */\n  tag_29\n  tag_30\n  jump\t// in\ntag_29:\n    /* \"#utility.yul\":262:374   */\ntag_28:\n    /* \"#utility.yul\":383:422   */\n  tag_31\n    /* \"#utility.yul\":415:421   */\n  dup5\n    /* \"#utility.yul\":410:413   */\n  dup3\n    /* \"#utility.yul\":405:408   */\n  dup6\n    /* \"#utility.yul\":383:422   */\n  tag_32\n  jump\t// in\ntag_31:\n    /* \"#utility.yul\":102:428   */\n  pop\n    /* \"#utility.yul\":7:428   */\n  swap4\n  swap3\n  pop\n  pop\n  pop\n  jump\t// out\n    /* \"#utility.yul\":448:803   */\ntag_33:\n    /* \"#utility.yul\":515:520   */\n  0x00\n    /* \"#utility.yul\":564:567   */\n  dup3\n    /* \"#utility.yul\":557:561   */\n  0x1f\n    /* \"#utility.yul\":549:555   */\n  dup4\n    /* \"#utility.yul\":545:562   */\n  add\n    /* \"#utility.yul\":541:568   */\n  slt\n    /* \"#utility.yul\":531:653   */\n  tag_35\n  jumpi\n    /* \"#utility.yul\":572:651   */\n  tag_36\n  tag_37\n  jump\t// in\ntag_36:\n    /* \"#utility.yul\":531:653   */\ntag_35:\n    /* \"#utility.yul\":682:688   */\n  dup2\n    /* \"#utility.yul\":676:689   */\n  mload\n    /* \"#utility.yul\":707:797   */\n  tag_38\n    /* \"#utility.yul\":793:796   */\n  dup5\n    /* \"#utility.yul\":785:791   */\n  dup3\n    /* \"#utility.yul\":778:782   */\n  0x20\n    /* \"#utility.yul\":770:776   */\n  dup7\n    /* \"#utility.yul\":766:783   */\n  add\n    /* \"#utility.yul\":707:797   */\n  tag_22\n  jump\t// in\ntag_38:\n    /* \"#utility.yul\":698:797   */\n  swap2\n  pop\n    /* \"#utility.yul\":521:803   */\n  pop\n    /* \"#utility.yul\":448:803   */\n  swap3\n  swap2\n  pop\n  pop\n  jump\t// out\n    /* \"#utility.yul\":809:1662   */\ntag_3:\n    /* \"#utility.yul\":908:914   */\n  0x00\n    /* \"#utility.yul\":916:922   */\n  dup1\n    /* \"#utility.yul\":965:967   */\n  0x40\n    /* \"#utility.yul\":953:962   */\n  dup4\n    /* \"#utility.yul\":944:951   */\n  dup6\n    /* \"#utility.yul\":940:963   */\n  sub\n    /* \"#utility.yul\":936:968   */\n  slt\n    /* \"#utility.yul\":933:1052   */\n  iszero\n  tag_40\n  jumpi\n    /* \"#utility.yul\":971:1050   */\n  tag_41\n  tag_42\n  jump\t// in\ntag_41:\n    /* \"#utility.yul\":933:1052   */\ntag_40:\n    /* \"#utility.yul\":1112:1113   */\n  0x00\n    /* \"#utility.yul\":1101:1110   */\n  dup4\n    /* \"#utility.yul\":1097:1114   */\n  add\n    /* \"#utility.yul\":1091:1115   */\n  mload\n    /* \"#utility.yul\":1142:1160   */\n  0xffffffffffffffff\n    /* \"#utility.yul\":1134:1140   */\n  dup2\n    /* \"#utility.yul\":1131:1161   */\n  gt\n    /* \"#utility.yul\":1128:1245   */\n  iszero\n  tag_43\n  jumpi\n    /* \"#utility.yul\":1164:1243   */\n  tag_44\n  tag_45\n  jump\t// in\ntag_44:\n    /* \"#utility.yul\":1128:1245   */\ntag_43:\n    /* \"#utility.yul\":1269:1343   */\n  tag_46\n    /* \"#utility.yul\":1335:1342   */\n  dup6\n    /* \"#utility.yul\":1326:1332   */\n  dup3\n    /* \"#utility.yul\":1315:1324   */\n  dup7\n    /* \"#utility.yul\":1311:1333   */\n  add\n    /* \"#utility.yul\":1269:1343   */\n  tag_33\n  jump\t// in\ntag_46:\n    /* \"#utility.yul\":1259:1343   */\n  swap3\n  pop\n    /* \"#utility.yul\":1062:1353   */\n  pop\n    /* \"#utility.yul\":1413:1415   */\n  0x20\n    /* \"#utility.yul\":1402:1411   */\n  dup4\n    /* \"#utility.yul\":1398:1416   */\n  add\n    /* \"#utility.yul\":1392:1417   */\n  mload\n    /* \"#utility.yul\":1444:1462   */\n  0xffffffffffffffff\n    /* \"#utility.yul\":1436:1442   */\n  dup2\n    /* \"#utility.yul\":1433:1463   */\n  gt\n    /* \"#utility.yul\":1430:1547   */\n  iszero\n  tag_47\n  jumpi\n    /* \"#utility.yul\":1466:1545   */\n  tag_48\n  tag_45\n  jump\t// in\ntag_48:\n    /* \"#utility.yul\":1430:1547   */\ntag_47:\n    /* \"#utility.yul\":1571:1645   */\n  tag_49\n    /* \"#utility.yul\":1637:1644   */\n  dup6\n    /* \"#utility.yul\":1628:1634   */\n  dup3\n    /* \"#utility.yul\":1617:1626   */\n  dup7\n    /* \"#utility.yul\":1613:1635   */\n  add\n    /* \"#utility.yul\":1571:1645   */\n  tag_33\n  jump\t// in\ntag_49:\n    /* \"#utility.yul\":1561:1645   */\n  swap2\n  pop\n    /* \"#utility.yul\":1363:1655   */\n  pop\n    /* \"#utility.yul\":809:1662   */\n  swap3\n  pop\n  swap3\n  swap1\n  pop\n  jump\t// out\n    /* \"#utility.yul\":1668:1797   */\ntag_27:\n    /* \"#utility.yul\":1702:1708   */\n  0x00\n    /* \"#utility.yul\":1729:1749   */\n  tag_51\n  tag_52\n  jump\t// in\ntag_51:\n    /* \"#utility.yul\":1719:1749   */\n  swap1\n  pop\n    /* \"#utility.yul\":1758:1791   */\n  tag_53\n    /* \"#utility.yul\":1786:1790   */\n  dup3\n    /* \"#utility.yul\":1778:1784   */\n  dup3\n    /* \"#utility.yul\":1758:1791   */\n  tag_54\n  jump\t// in\ntag_53:\n    /* \"#utility.yul\":1668:1797   */\n  swap2\n  swap1\n  pop\n  jump\t// out\n    /* \"#utility.yul\":1803:1878   */\ntag_52:\n    /* \"#utility.yul\":1836:1842   */\n  0x00\n    /* \"#utility.yul\":1869:1871   */\n  0x40\n    /* \"#utility.yul\":1863:1872   */\n  mload\n    /* \"#utility.yul\":1853:1872   */\n  swap1\n  pop\n    /* \"#utility.yul\":1803:1878   */\n  swap1\n  jump\t// out\n    /* \"#utility.yul\":1884:2192   */\ntag_26:\n    /* \"#utility.yul\":1946:1950   */\n  0x00\n    /* \"#utility.yul\":2036:2054   */\n  0xffffffffffffffff\n    /* \"#utility.yul\":2028:2034   */\n  dup3\n    /* \"#utility.yul\":2025:2055   */\n  gt\n    /* \"#utility.yul\":2022:2078   */\n  iszero\n  tag_57\n  jumpi\n    /* \"#utility.yul\":2058:2076   */\n  tag_58\n  tag_59\n  jump\t// in\ntag_58:\n    /* \"#utility.yul\":2022:2078   */\ntag_57:\n    /* \"#utility.yul\":2096:2125   */\n  tag_60\n    /* \"#utility.yul\":2118:2124   */\n  dup3\n    /* \"#utility.yul\":2096:2125   */\n  tag_61\n  jump\t// in\ntag_60:\n    /* \"#utility.yul\":2088:2125   */\n  swap1\n  pop\n    /* \"#utility.yul\":2180:2184   */\n  0x20\n    /* \"#utility.yul\":2174:2178   */\n  dup2\n    /* \"#utility.yul\":2170:2185   */\n  add\n    /* \"#utility.yul\":2162:2185   */\n  swap1\n  pop\n    /* \"#utility.yul\":1884:2192   */\n  swap2\n  swap1\n  pop\n  jump\t// out\n    /* \"#utility.yul\":2198:2505   */\ntag_32:\n    /* \"#utility.yul\":2266:2267   */\n  0x00\n    /* \"#utility.yul\":2276:2389   */\ntag_63:\n    /* \"#utility.yul\":2290:2296   */\n  dup4\n    /* \"#utility.yul\":2287:2288   */\n  dup2\n    /* \"#utility.yul\":2284:2297   */\n  lt\n    /* \"#utility.yul\":2276:2389   */\n  iszero\n  tag_65\n  jumpi\n    /* \"#utility.yul\":2375:2376   */\n  dup1\n    /* \"#utility.yul\":2370:2373   */\n  dup3\n    /* \"#utility.yul\":2366:2377   */\n  add\n    /* \"#utility.yul\":2360:2378   */\n  mload\n    /* \"#utility.yul\":2356:2357   */\n  dup2\n    /* \"#utility.yul\":2351:2354   */\n  dup5\n    /* \"#utility.yul\":2347:2358   */\n  add\n    /* \"#utility.yul\":2340:2379   */\n  mstore\n    /* \"#utility.yul\":2312:2314   */\n  0x20\n    /* \"#utility.yul\":2309:2310   */\n  dup2\n    /* \"#utility.yul\":2305:2315   */\n  add\n    /* \"#utility.yul\":2300:2315   */\n  swap1\n  pop\n    /* \"#utility.yul\":2276:2389   */\n  jump(tag_63)\ntag_65:\n    /* \"#utility.yul\":2407:2413   */\n  dup4\n    /* \"#utility.yul\":2404:2405   */\n  dup2\n    /* \"#utility.yul\":2401:2414   */\n  gt\n    /* \"#utility.yul\":2398:2499   */\n  iszero\n  tag_66\n  jumpi\n    /* \"#utility.yul\":2487:2488   */\n  0x00\n    /* \"#utility.yul\":2478:2484   */\n  dup5\n    /* \"#utility.yul\":2473:2476   */\n  dup5\n    /* \"#utility.yul\":2469:2485   */\n  add\n    /* \"#utility.yul\":2462:2489   */\n  mstore\n    /* \"#utility.yul\":2398:2499   */\ntag_66:\n    /* \"#utility.yul\":2247:2505   */\n  pop\n    /* \"#utility.yul\":2198:2505   */\n  pop\n  pop\n  pop\n  jump\t// out\n    /* \"#utility.yul\":2511:2831   */\ntag_11:\n    /* \"#utility.yul\":2555:2561   */\n  0x00\n    /* \"#utility.yul\":2592:2593   */\n  0x02\n    /* \"#utility.yul\":2586:2590   */\n  dup3\n    /* \"#utility.yul\":2582:2594   */\n  div\n    /* \"#utility.yul\":2572:2594   */\n  swap1\n  pop\n    /* \"#utility.yul\":2639:2640   */\n  0x01\n    /* \"#utility.yul\":2633:2637   */\n  dup3\n    /* \"#utility.yul\":2629:2641   */\n  and\n    /* \"#utility.yul\":2660:2678   */\n  dup1\n    /* \"#utility.yul\":2650:2731   */\n  tag_68\n  jumpi\n    /* \"#utility.yul\":2716:2720   */\n  0x7f\n    /* \"#utility.yul\":2708:2714   */\n  dup3\n    /* \"#utility.yul\":2704:2721   */\n  and\n    /* \"#utility.yul\":2694:2721   */\n  swap2\n  pop\n    /* \"#utility.yul\":2650:2731   */\ntag_68:\n    /* \"#utility.yul\":2778:2780   */\n  0x20\n    /* \"#utility.yul\":2770:2776   */\n  dup3\n    /* \"#utility.yul\":2767:2781   */\n  lt\n    /* \"#utility.yul\":2747:2765   */\n  dup2\n    /* \"#utility.yul\":2744:2782   */\n  eq\n    /* \"#utility.yul\":2741:2825   */\n  iszero\n  tag_69\n  jumpi\n    /* \"#utility.yul\":2797:2815   */\n  tag_70\n  tag_71\n  jump\t// in\ntag_70:\n    /* \"#utility.yul\":2741:2825   */\ntag_69:\n    /* \"#utility.yul\":2562:2831   */\n  pop\n    /* \"#utility.yul\":2511:2831   */\n  swap2\n  swap1\n  pop\n  jump\t// out\n    /* \"#utility.yul\":2837:3118   */\ntag_54:\n    /* \"#utility.yul\":2920:2947   */\n  tag_73\n    /* \"#utility.yul\":2942:2946   */\n  dup3\n    /* \"#utility.yul\":2920:2947   */\n  tag_61\n  jump\t// in\ntag_73:\n    /* \"#utility.yul\":2912:2918   */\n  dup2\n    /* \"#utility.yul\":2908:2948   */\n  add\n    /* \"#utility.yul\":3050:3056   */\n  dup2\n    /* \"#utility.yul\":3038:3048   */\n  dup2\n    /* \"#utility.yul\":3035:3057   */\n  lt\n    /* \"#utility.yul\":3014:3032   */\n  0xffffffffffffffff\n    /* \"#utility.yul\":3002:3012   */\n  dup3\n    /* \"#utility.yul\":2999:3033   */\n  gt\n    /* \"#utility.yul\":2996:3058   */\n  or\n    /* \"#utility.yul\":2993:3081   */\n  iszero\n  tag_74\n  jumpi\n    /* \"#utility.yul\":3061:3079   */\n  tag_75\n  tag_59\n  jump\t// in\ntag_75:\n    /* \"#utility.yul\":2993:3081   */\ntag_74:\n    /* \"#utility.yul\":3101:3111   */\n  dup1\n    /* \"#utility.yul\":3097:3099   */\n  0x40\n    /* \"#utility.yul\":3090:3112   */\n  mstore\n    /* \"#utility.yul\":2880:3118   */\n  pop\n    /* \"#utility.yul\":2837:3118   */\n  pop\n  pop\n  jump\t// out\n    /* \"#utility.yul\":3124:3304   */\ntag_71:\n    /* \"#utility.yul\":3172:3249   */\n  0x4e487b7100000000000000000000000000000000000000000000000000000000\n    /* \"#utility.yul\":3169:3170   */\n  0x00\n    /* \"#utility.yul\":3162:3250   */\n  mstore\n    /* \"#utility.yul\":3269:3273   */\n  0x22\n    /* \"#utility.yul\":3266:3267   */\n  0x04\n    /* \"#utility.yul\":3259:3274   */\n  mstore\n    /* \"#utility.yul\":3293:3297   */\n  0x24\n    /* \"#utility.yul\":3290:3291   */\n  0x00\n    /* \"#utility.yul\":3283:3298   */\n  revert\n    /* \"#utility.yul\":3310:3490   */\ntag_59:\n    /* \"#utility.yul\":3358:3435   */\n  0x4e487b7100000000000000000000000000000000000000000000000000000000\n    /* \"#utility.yul\":3355:3356   */\n  0x00\n    /* \"#utility.yul\":3348:3436   */\n  mstore\n    /* \"#utility.yul\":3455:3459   */\n  0x41\n    /* \"#utility.yul\":3452:3453   */\n  0x04\n    /* \"#utility.yul\":3445:3460   */\n  mstore\n    /* \"#utility.yul\":3479:3483   */\n  0x24\n    /* \"#utility.yul\":3476:3477   */\n  0x00\n    /* \"#utility.yul\":3469:3484   */\n  revert\n    /* \"#utility.yul\":3496:3613   */\ntag_37:\n    /* \"#utility.yul\":3605:3606   */\n  0x00\n    /* \"#utility.yul\":3602:3603   */\n  dup1\n    /* \"#utility.yul\":3595:3607   */\n  revert\n    /* \"#utility.yul\":3619:3736   */\ntag_30:\n    /* \"#utility.yul\":3728:3729   */\n  0x00\n    /* \"#utility.yul\":3725:3726   */\n  dup1\n    /* \"#utility.yul\":3718:3730   */\n  revert\n    /* \"#utility.yul\":3742:3859   */\ntag_45:\n    /* \"#utility.yul\":3851:3852   */\n  0x00\n    /* \"#utility.yul\":3848:3849   */\n  dup1\n    /* \"#utility.yul\":3841:3853   */\n  revert\n    /* \"#utility.yul\":3865:3982   */\ntag_42:\n    /* \"#utility.yul\":3974:3975   */\n  0x00\n    /* \"#utility.yul\":3971:3972   */\n  dup1\n    /* \"#utility.yul\":3964:3976   */\n  revert\n    /* \"#utility.yul\":3988:4090   */\ntag_61:\n    /* \"#utility.yul\":4029:4035   */\n  0x00\n    /* \"#utility.yul\":4080:4082   */\n  0x1f\n    /* \"#utility.yul\":4076:4083   */\n  not\n    /* \"#utility.yul\":4071:4073   */\n  0x1f\n    /* \"#utility.yul\":4064:4069   */\n  dup4\n    /* \"#utility.yul\":4060:4074   */\n  add\n    /* \"#utility.yul\":4056:4084   */\n  and\n    /* \"#utility.yul\":4046:4084   */\n  swap1\n  pop\n    /* \"#utility.yul\":3988:4090   */\n  swap2\n  swap1\n  pop\n  jump\t// out\n    /* \"contract/token/ERC721.sol\":674:15057  contract ERC721 is Context, ERC165, IERC721, IERC721Metadata {\r... */\ntag_9:\n  dataSize(sub_0)\n  dup1\n  dataOffset(sub_0)\n  0x00\n  codecopy\n  0x00\n  return\nstop\n\nsub_0: assembly {\n        /* \"contract/token/ERC721.sol\":674:15057  contract ERC721 is Context, ERC165, IERC721, IERC721Metadata {\r... */\n      mstore(0x40, 0x80)\n      callvalue\n      dup1\n      iszero\n      tag_1\n      jumpi\n      0x00\n      dup1\n      revert\n    tag_1:\n      pop\n      jumpi(tag_2, lt(calldatasize, 0x04))\n      shr(0xe0, calldataload(0x00))\n      dup1\n      0x70a08231\n      gt\n      tag_17\n      jumpi\n      dup1\n      0xaeda852f\n      gt\n      tag_18\n      jumpi\n      dup1\n      0xaeda852f\n      eq\n      tag_13\n      jumpi\n      dup1\n      0xb88d4fde\n      eq\n      tag_14\n      jumpi\n      dup1\n      0xc87b56dd\n      eq\n      tag_15\n      jumpi\n      dup1\n      0xe985e9c5\n      eq\n      tag_16\n      jumpi\n      jump(tag_2)\n    tag_18:\n      dup1\n      0x70a08231\n      eq\n      tag_10\n      jumpi\n      dup1\n      0x95d89b41\n      eq\n      tag_11\n      jumpi\n      dup1\n      0xa22cb465\n      eq\n      tag_12\n      jumpi\n      jump(tag_2)\n    tag_17:\n      dup1\n      0x095ea7b3\n      gt\n      tag_19\n      jumpi\n      dup1\n      0x095ea7b3\n      eq\n      tag_6\n      jumpi\n      dup1\n      0x23b872dd\n      eq\n      tag_7\n      jumpi\n      dup1\n      0x42842e0e\n      eq\n      tag_8\n      jumpi\n      dup1\n      0x6352211e\n      eq\n      tag_9\n      jumpi\n      jump(tag_2)\n    tag_19:\n      dup1\n      0x01ffc9a7\n      eq\n      tag_3\n      jumpi\n      dup1\n      0x06fdde03\n      eq\n      tag_4\n      jumpi\n      dup1\n      0x081812fc\n      eq\n      tag_5\n      jumpi\n    tag_2:\n      0x00\n      dup1\n      revert\n        /* \"contract/token/ERC721.sol\":1957:2262  function supportsInterface(bytes4 interfaceId) public view virtual override(ERC165, IERC165) returns (bool) {\r... */\n    tag_3:\n      tag_20\n      0x04\n      dup1\n      calldatasize\n      sub\n      dup2\n      add\n      swap1\n      tag_21\n      swap2\n      swap1\n      tag_22\n      jump\t// in\n    tag_21:\n      tag_23\n      jump\t// in\n    tag_20:\n      mload(0x40)\n      tag_24\n      swap2\n      swap1\n      tag_25\n      jump\t// in\n    tag_24:\n      mload(0x40)\n      dup1\n      swap2\n      sub\n      swap1\n      return\n        /* \"contract/token/ERC721.sol\":2901:3001  function name() public view virtual override returns (string memory) {\r... */\n    tag_4:\n      tag_26\n      tag_27\n      jump\t// in\n    tag_26:\n      mload(0x40)\n      tag_28\n      swap2\n      swap1\n      tag_29\n      jump\t// in\n    tag_28:\n      mload(0x40)\n      dup1\n      swap2\n      sub\n      swap1\n      return\n        /* \"contract/token/ERC721.sol\":4461:4682  function getApproved(uint256 tokenId) public view virtual override returns (address) {\r... */\n    tag_5:\n      tag_30\n      0x04\n      dup1\n      calldatasize\n      sub\n      dup2\n      add\n      swap1\n      tag_31\n      swap2\n      swap1\n      tag_32\n      jump\t// in\n    tag_31:\n      tag_33\n      jump\t// in\n    tag_30:\n      mload(0x40)\n      tag_34\n      swap2\n      swap1\n      tag_35\n      jump\t// in\n    tag_34:\n      mload(0x40)\n      dup1\n      swap2\n      sub\n      swap1\n      return\n        /* \"contract/token/ERC721.sol\":3984:4395  function approve(address to, uint256 tokenId) public virtual override {\r... */\n    tag_6:\n      tag_36\n      0x04\n      dup1\n      calldatasize\n      sub\n      dup2\n      add\n      swap1\n      tag_37\n      swap2\n      swap1\n      tag_38\n      jump\t// in\n    tag_37:\n      tag_39\n      jump\t// in\n    tag_36:\n      stop\n        /* \"contract/token/ERC721.sol\":5211:5550  function transferFrom(\r... */\n    tag_7:\n      tag_40\n      0x04\n      dup1\n      calldatasize\n      sub\n      dup2\n      add\n      swap1\n      tag_41\n      swap2\n      swap1\n      tag_42\n      jump\t// in\n    tag_41:\n      tag_43\n      jump\t// in\n    tag_40:\n      stop\n        /* \"contract/token/ERC721.sol\":5621:5806  function safeTransferFrom(\r... */\n    tag_8:\n      tag_44\n      0x04\n      dup1\n      calldatasize\n      sub\n      dup2\n      add\n      swap1\n      tag_45\n      swap2\n      swap1\n      tag_42\n      jump\t// in\n    tag_45:\n      tag_46\n      jump\t// in\n    tag_44:\n      stop\n        /* \"contract/token/ERC721.sol\":2595:2834  function ownerOf(uint256 tokenId) public view virtual override returns (address) {\r... */\n    tag_9:\n      tag_47\n      0x04\n      dup1\n      calldatasize\n      sub\n      dup2\n      add\n      swap1\n      tag_48\n      swap2\n      swap1\n      tag_32\n      jump\t// in\n    tag_48:\n      tag_49\n      jump\t// in\n    tag_47:\n      mload(0x40)\n      tag_50\n      swap2\n      swap1\n      tag_35\n      jump\t// in\n    tag_50:\n      mload(0x40)\n      dup1\n      swap2\n      sub\n      swap1\n      return\n        /* \"contract/token/ERC721.sol\":2326:2533  function balanceOf(address owner) public view virtual override returns (uint256) {\r... */\n    tag_10:\n      tag_51\n      0x04\n      dup1\n      calldatasize\n      sub\n      dup2\n      add\n      swap1\n      tag_52\n      swap2\n      swap1\n      tag_53\n      jump\t// in\n    tag_52:\n      tag_54\n      jump\t// in\n    tag_51:\n      mload(0x40)\n      tag_55\n      swap2\n      swap1\n      tag_56\n      jump\t// in\n    tag_55:\n      mload(0x40)\n      dup1\n      swap2\n      sub\n      swap1\n      return\n        /* \"contract/token/ERC721.sol\":3070:3174  function symbol() public view virtual override returns (string memory) {\r... */\n    tag_11:\n      tag_57\n      tag_58\n      jump\t// in\n    tag_57:\n      mload(0x40)\n      tag_59\n      swap2\n      swap1\n      tag_29\n      jump\t// in\n    tag_59:\n      mload(0x40)\n      dup1\n      swap2\n      sub\n      swap1\n      return\n        /* \"contract/token/ERC721.sol\":4754:4909  function setApprovalForAll(address operator, bool approved) public virtual override {\r... */\n    tag_12:\n      tag_60\n      0x04\n      dup1\n      calldatasize\n      sub\n      dup2\n      add\n      swap1\n      tag_61\n      swap2\n      swap1\n      tag_62\n      jump\t// in\n    tag_61:\n      tag_63\n      jump\t// in\n    tag_60:\n      stop\n        /* \"contract/token/ERC721.sol\":1608:1644  mapping(uint => House) public houses */\n    tag_13:\n      tag_64\n      0x04\n      dup1\n      calldatasize\n      sub\n      dup2\n      add\n      swap1\n      tag_65\n      swap2\n      swap1\n      tag_32\n      jump\t// in\n    tag_65:\n      tag_66\n      jump\t// in\n    tag_64:\n      mload(0x40)\n      tag_67\n      swap10\n      swap9\n      swap8\n      swap7\n      swap6\n      swap5\n      swap4\n      swap3\n      swap2\n      swap1\n      tag_68\n      jump\t// in\n    tag_67:\n      mload(0x40)\n      dup1\n      swap2\n      sub\n      swap1\n      return\n        /* \"contract/token/ERC721.sol\":5877:6203  function safeTransferFrom(\r... */\n    tag_14:\n      tag_69\n      0x04\n      dup1\n      calldatasize\n      sub\n      dup2\n      add\n      swap1\n      tag_70\n      swap2\n      swap1\n      tag_71\n      jump\t// in\n    tag_70:\n      tag_72\n      jump\t// in\n    tag_69:\n      stop\n        /* \"contract/token/ERC721.sol\":3245:3579  function tokenURI(uint256 tokenId) public view virtual override returns (string memory) {\r... */\n    tag_15:\n      tag_73\n      0x04\n      dup1\n      calldatasize\n      sub\n      dup2\n      add\n      swap1\n      tag_74\n      swap2\n      swap1\n      tag_32\n      jump\t// in\n    tag_74:\n      tag_75\n      jump\t// in\n    tag_73:\n      mload(0x40)\n      tag_76\n      swap2\n      swap1\n      tag_29\n      jump\t// in\n    tag_76:\n      mload(0x40)\n      dup1\n      swap2\n      sub\n      swap1\n      return\n        /* \"contract/token/ERC721.sol\":4980:5144  function isApprovedForAll(address owner, address operator) public view virtual override returns (bool) {\r... */\n    tag_16:\n      tag_77\n      0x04\n      dup1\n      calldatasize\n      sub\n      dup2\n      add\n      swap1\n      tag_78\n      swap2\n      swap1\n      tag_79\n      jump\t// in\n    tag_78:\n      tag_80\n      jump\t// in\n    tag_77:\n      mload(0x40)\n      tag_81\n      swap2\n      swap1\n      tag_25\n      jump\t// in\n    tag_81:\n      mload(0x40)\n      dup1\n      swap2\n      sub\n      swap1\n      return\n        /* \"contract/token/ERC721.sol\":1957:2262  function supportsInterface(bytes4 interfaceId) public view virtual override(ERC165, IERC165) returns (bool) {\r... */\n    tag_23:\n        /* \"contract/token/ERC721.sol\":2059:2063  bool */\n      0x00\n        /* \"contract/token/ERC721.sol\":2111:2136  type(IERC721).interfaceId */\n      0x80ac58cd00000000000000000000000000000000000000000000000000000000\n        /* \"contract/token/ERC721.sol\":2096:2136  interfaceId == type(IERC721).interfaceId */\n      not(0xffffffffffffffffffffffffffffffffffffffffffffffffffffffff)\n      and\n        /* \"contract/token/ERC721.sol\":2096:2107  interfaceId */\n      dup3\n        /* \"contract/token/ERC721.sol\":2096:2136  interfaceId == type(IERC721).interfaceId */\n      not(0xffffffffffffffffffffffffffffffffffffffffffffffffffffffff)\n      and\n      eq\n        /* \"contract/token/ERC721.sol\":2096:2201  interfaceId == type(IERC721).interfaceId ||\r... */\n      dup1\n      tag_83\n      jumpi\n      pop\n        /* \"contract/token/ERC721.sol\":2168:2201  type(IERC721Metadata).interfaceId */\n      0x5b5e139f00000000000000000000000000000000000000000000000000000000\n        /* \"contract/token/ERC721.sol\":2153:2201  interfaceId == type(IERC721Metadata).interfaceId */\n      not(0xffffffffffffffffffffffffffffffffffffffffffffffffffffffff)\n      and\n        /* \"contract/token/ERC721.sol\":2153:2164  interfaceId */\n      dup3\n        /* \"contract/token/ERC721.sol\":2153:2201  interfaceId == type(IERC721Metadata).interfaceId */\n      not(0xffffffffffffffffffffffffffffffffffffffffffffffffffffffff)\n      and\n      eq\n        /* \"contract/token/ERC721.sol\":2096:2201  interfaceId == type(IERC721).interfaceId ||\r... */\n    tag_83:\n        /* \"contract/token/ERC721.sol\":2096:2254  interfaceId == type(IERC721).interfaceId ||\r... */\n      dup1\n      tag_84\n      jumpi\n      pop\n        /* \"contract/token/ERC721.sol\":2218:2254  super.supportsInterface(interfaceId) */\n      tag_85\n        /* \"contract/token/ERC721.sol\":2242:2253  interfaceId */\n      dup3\n        /* \"contract/token/ERC721.sol\":2218:2241  super.supportsInterface */\n      tag_86\n        /* \"contract/token/ERC721.sol\":2218:2254  super.supportsInterface(interfaceId) */\n      jump\t// in\n    tag_85:\n        /* \"contract/token/ERC721.sol\":2096:2254  interfaceId == type(IERC721).interfaceId ||\r... */\n    tag_84:\n        /* \"contract/token/ERC721.sol\":2076:2254  return\r... */\n      swap1\n      pop\n        /* \"contract/token/ERC721.sol\":1957:2262  function supportsInterface(bytes4 interfaceId) public view virtual override(ERC165, IERC165) returns (bool) {\r... */\n      swap2\n      swap1\n      pop\n      jump\t// out\n        /* \"contract/token/ERC721.sol\":2901:3001  function name() public view virtual override returns (string memory) {\r... */\n    tag_27:\n        /* \"contract/token/ERC721.sol\":2955:2968  string memory */\n      0x60\n        /* \"contract/token/ERC721.sol\":2988:2993  _name */\n      0x00\n        /* \"contract/token/ERC721.sol\":2981:2993  return _name */\n      dup1\n      sload\n      tag_88\n      swap1\n      tag_89\n      jump\t// in\n    tag_88:\n      dup1\n      0x1f\n      add\n      0x20\n      dup1\n      swap2\n      div\n      mul\n      0x20\n      add\n      mload(0x40)\n      swap1\n      dup2\n      add\n      0x40\n      mstore\n      dup1\n      swap3\n      swap2\n      swap1\n      dup2\n      dup2\n      mstore\n      0x20\n      add\n      dup3\n      dup1\n      sload\n      tag_90\n      swap1\n      tag_89\n      jump\t// in\n    tag_90:\n      dup1\n      iszero\n      tag_91\n      jumpi\n      dup1\n      0x1f\n      lt\n      tag_92\n      jumpi\n      0x0100\n      dup1\n      dup4\n      sload\n      div\n      mul\n      dup4\n      mstore\n      swap2\n      0x20\n      add\n      swap2\n      jump(tag_91)\n    tag_92:\n      dup3\n      add\n      swap2\n      swap1\n      0x00\n      mstore\n      keccak256(0x00, 0x20)\n      swap1\n    tag_93:\n      dup2\n      sload\n      dup2\n      mstore\n      swap1\n      0x01\n      add\n      swap1\n      0x20\n      add\n      dup1\n      dup4\n      gt\n      tag_93\n      jumpi\n      dup3\n      swap1\n      sub\n      0x1f\n      and\n      dup3\n      add\n      swap2\n    tag_91:\n      pop\n      pop\n      pop\n      pop\n      pop\n      swap1\n      pop\n        /* \"contract/token/ERC721.sol\":2901:3001  function name() public view virtual override returns (string memory) {\r... */\n      swap1\n      jump\t// out\n        /* \"contract/token/ERC721.sol\":4461:4682  function getApproved(uint256 tokenId) public view virtual override returns (address) {\r... */\n    tag_33:\n        /* \"contract/token/ERC721.sol\":4537:4544  address */\n      0x00\n        /* \"contract/token/ERC721.sol\":4565:4581  _exists(tokenId) */\n      tag_95\n        /* \"contract/token/ERC721.sol\":4573:4580  tokenId */\n      dup3\n        /* \"contract/token/ERC721.sol\":4565:4572  _exists */\n      tag_96\n        /* \"contract/token/ERC721.sol\":4565:4581  _exists(tokenId) */\n      jump\t// in\n    tag_95:\n        /* \"contract/token/ERC721.sol\":4557:4630  require(_exists(tokenId), \"ERC721: approved query for nonexistent token\") */\n      tag_97\n      jumpi\n      mload(0x40)\n      0x08c379a000000000000000000000000000000000000000000000000000000000\n      dup2\n      mstore\n      0x04\n      add\n      tag_98\n      swap1\n      tag_99\n      jump\t// in\n    tag_98:\n      mload(0x40)\n      dup1\n      swap2\n      sub\n      swap1\n      revert\n    tag_97:\n        /* \"contract/token/ERC721.sol\":4650:4665  _tokenApprovals */\n      0x04\n        /* \"contract/token/ERC721.sol\":4650:4674  _tokenApprovals[tokenId] */\n      0x00\n        /* \"contract/token/ERC721.sol\":4666:4673  tokenId */\n      dup4\n        /* \"contract/token/ERC721.sol\":4650:4674  _tokenApprovals[tokenId] */\n      dup2\n      mstore\n      0x20\n      add\n      swap1\n      dup2\n      mstore\n      0x20\n      add\n      0x00\n      keccak256\n      0x00\n      swap1\n      sload\n      swap1\n      0x0100\n      exp\n      swap1\n      div\n      0xffffffffffffffffffffffffffffffffffffffff\n      and\n        /* \"contract/token/ERC721.sol\":4643:4674  return _tokenApprovals[tokenId] */\n      swap1\n      pop\n        /* \"contract/token/ERC721.sol\":4461:4682  function getApproved(uint256 tokenId) public view virtual override returns (address) {\r... */\n      swap2\n      swap1\n      pop\n      jump\t// out\n        /* \"contract/token/ERC721.sol\":3984:4395  function approve(address to, uint256 tokenId) public virtual override {\r... */\n    tag_39:\n        /* \"contract/token/ERC721.sol\":4065:4078  address owner */\n      0x00\n        /* \"contract/token/ERC721.sol\":4081:4104  ERC721.ownerOf(tokenId) */\n      tag_101\n        /* \"contract/token/ERC721.sol\":4096:4103  tokenId */\n      dup3\n        /* \"contract/token/ERC721.sol\":4081:4095  ERC721.ownerOf */\n      tag_49\n        /* \"contract/token/ERC721.sol\":4081:4104  ERC721.ownerOf(tokenId) */\n      jump\t// in\n    tag_101:\n        /* \"contract/token/ERC721.sol\":4065:4104  address owner = ERC721.ownerOf(tokenId) */\n      swap1\n      pop\n        /* \"contract/token/ERC721.sol\":4129:4134  owner */\n      dup1\n        /* \"contract/token/ERC721.sol\":4123:4134  to != owner */\n      0xffffffffffffffffffffffffffffffffffffffff\n      and\n        /* \"contract/token/ERC721.sol\":4123:4125  to */\n      dup4\n        /* \"contract/token/ERC721.sol\":4123:4134  to != owner */\n      0xffffffffffffffffffffffffffffffffffffffff\n      and\n      eq\n      iszero\n        /* \"contract/token/ERC721.sol\":4115:4172  require(to != owner, \"ERC721: approval to current owner\") */\n      tag_102\n      jumpi\n      mload(0x40)\n      0x08c379a000000000000000000000000000000000000000000000000000000000\n      dup2\n      mstore\n      0x04\n      add\n      tag_103\n      swap1\n      tag_104\n      jump\t// in\n    tag_103:\n      mload(0x40)\n      dup1\n      swap2\n      sub\n      swap1\n      revert\n    tag_102:\n        /* \"contract/token/ERC721.sol\":4223:4228  owner */\n      dup1\n        /* \"contract/token/ERC721.sol\":4207:4228  _msgSender() == owner */\n      0xffffffffffffffffffffffffffffffffffffffff\n      and\n        /* \"contract/token/ERC721.sol\":4207:4219  _msgSender() */\n      tag_105\n        /* \"contract/token/ERC721.sol\":4207:4217  _msgSender */\n      tag_106\n        /* \"contract/token/ERC721.sol\":4207:4219  _msgSender() */\n      jump\t// in\n    tag_105:\n        /* \"contract/token/ERC721.sol\":4207:4228  _msgSender() == owner */\n      0xffffffffffffffffffffffffffffffffffffffff\n      and\n      eq\n        /* \"contract/token/ERC721.sol\":4207:4269  _msgSender() == owner || isApprovedForAll(owner, _msgSender()) */\n      dup1\n      tag_107\n      jumpi\n      pop\n        /* \"contract/token/ERC721.sol\":4232:4269  isApprovedForAll(owner, _msgSender()) */\n      tag_108\n        /* \"contract/token/ERC721.sol\":4249:4254  owner */\n      dup2\n        /* \"contract/token/ERC721.sol\":4256:4268  _msgSender() */\n      tag_109\n        /* \"contract/token/ERC721.sol\":4256:4266  _msgSender */\n      tag_106\n        /* \"contract/token/ERC721.sol\":4256:4268  _msgSender() */\n      jump\t// in\n    tag_109:\n        /* \"contract/token/ERC721.sol\":4232:4248  isApprovedForAll */\n      tag_80\n        /* \"contract/token/ERC721.sol\":4232:4269  isApprovedForAll(owner, _msgSender()) */\n      jump\t// in\n    tag_108:\n        /* \"contract/token/ERC721.sol\":4207:4269  _msgSender() == owner || isApprovedForAll(owner, _msgSender()) */\n    tag_107:\n        /* \"contract/token/ERC721.sol\":4185:4353  require(\r... */\n      tag_110\n      jumpi\n      mload(0x40)\n      0x08c379a000000000000000000000000000000000000000000000000000000000\n      dup2\n      mstore\n      0x04\n      add\n      tag_111\n      swap1\n      tag_112\n      jump\t// in\n    tag_111:\n      mload(0x40)\n      dup1\n      swap2\n      sub\n      swap1\n      revert\n    tag_110:\n        /* \"contract/token/ERC721.sol\":4366:4387  _approve(to, tokenId) */\n      tag_113\n        /* \"contract/token/ERC721.sol\":4375:4377  to */\n      dup4\n        /* \"contract/token/ERC721.sol\":4379:4386  tokenId */\n      dup4\n        /* \"contract/token/ERC721.sol\":4366:4374  _approve */\n      tag_114\n        /* \"contract/token/ERC721.sol\":4366:4387  _approve(to, tokenId) */\n      jump\t// in\n    tag_113:\n        /* \"contract/token/ERC721.sol\":4054:4395  {\r... */\n      pop\n        /* \"contract/token/ERC721.sol\":3984:4395  function approve(address to, uint256 tokenId) public virtual override {\r... */\n      pop\n      pop\n      jump\t// out\n        /* \"contract/token/ERC721.sol\":5211:5550  function transferFrom(\r... */\n    tag_43:\n        /* \"contract/token/ERC721.sol\":5406:5447  _isApprovedOrOwner(_msgSender(), tokenId) */\n      tag_116\n        /* \"contract/token/ERC721.sol\":5425:5437  _msgSender() */\n      tag_117\n        /* \"contract/token/ERC721.sol\":5425:5435  _msgSender */\n      tag_106\n        /* \"contract/token/ERC721.sol\":5425:5437  _msgSender() */\n      jump\t// in\n    tag_117:\n        /* \"contract/token/ERC721.sol\":5439:5446  tokenId */\n      dup3\n        /* \"contract/token/ERC721.sol\":5406:5424  _isApprovedOrOwner */\n      tag_118\n        /* \"contract/token/ERC721.sol\":5406:5447  _isApprovedOrOwner(_msgSender(), tokenId) */\n      jump\t// in\n    tag_116:\n        /* \"contract/token/ERC721.sol\":5398:5501  require(_isApprovedOrOwner(_msgSender(), tokenId), \"ERC721: transfer caller is not owner nor approved\") */\n      tag_119\n      jumpi\n      mload(0x40)\n      0x08c379a000000000000000000000000000000000000000000000000000000000\n      dup2\n      mstore\n      0x04\n      add\n      tag_120\n      swap1\n      tag_121\n      jump\t// in\n    tag_120:\n      mload(0x40)\n      dup1\n      swap2\n      sub\n      swap1\n      revert\n    tag_119:\n        /* \"contract/token/ERC721.sol\":5514:5542  _transfer(from, to, tokenId) */\n      tag_122\n        /* \"contract/token/ERC721.sol\":5524:5528  from */\n      dup4\n        /* \"contract/token/ERC721.sol\":5530:5532  to */\n      dup4\n        /* \"contract/token/ERC721.sol\":5534:5541  tokenId */\n      dup4\n        /* \"contract/token/ERC721.sol\":5514:5523  _transfer */\n      tag_123\n        /* \"contract/token/ERC721.sol\":5514:5542  _transfer(from, to, tokenId) */\n      jump\t// in\n    tag_122:\n        /* \"contract/token/ERC721.sol\":5211:5550  function transferFrom(\r... */\n      pop\n      pop\n      pop\n      jump\t// out\n        /* \"contract/token/ERC721.sol\":5621:5806  function safeTransferFrom(\r... */\n    tag_46:\n        /* \"contract/token/ERC721.sol\":5759:5798  safeTransferFrom(from, to, tokenId, \"\") */\n      tag_125\n        /* \"contract/token/ERC721.sol\":5776:5780  from */\n      dup4\n        /* \"contract/token/ERC721.sol\":5782:5784  to */\n      dup4\n        /* \"contract/token/ERC721.sol\":5786:5793  tokenId */\n      dup4\n        /* \"contract/token/ERC721.sol\":5759:5798  safeTransferFrom(from, to, tokenId, \"\") */\n      mload(0x40)\n      dup1\n      0x20\n      add\n      0x40\n      mstore\n      dup1\n      0x00\n      dup2\n      mstore\n      pop\n        /* \"contract/token/ERC721.sol\":5759:5775  safeTransferFrom */\n      tag_72\n        /* \"contract/token/ERC721.sol\":5759:5798  safeTransferFrom(from, to, tokenId, \"\") */\n      jump\t// in\n    tag_125:\n        /* \"contract/token/ERC721.sol\":5621:5806  function safeTransferFrom(\r... */\n      pop\n      pop\n      pop\n      jump\t// out\n        /* \"contract/token/ERC721.sol\":2595:2834  function ownerOf(uint256 tokenId) public view virtual override returns (address) {\r... */\n    tag_49:\n        /* \"contract/token/ERC721.sol\":2667:2674  address */\n      0x00\n        /* \"contract/token/ERC721.sol\":2687:2700  address owner */\n      dup1\n        /* \"contract/token/ERC721.sol\":2703:2710  _owners */\n      0x02\n        /* \"contract/token/ERC721.sol\":2703:2719  _owners[tokenId] */\n      0x00\n        /* \"contract/token/ERC721.sol\":2711:2718  tokenId */\n      dup5\n        /* \"contract/token/ERC721.sol\":2703:2719  _owners[tokenId] */\n      dup2\n      mstore\n      0x20\n      add\n      swap1\n      dup2\n      mstore\n      0x20\n      add\n      0x00\n      keccak256\n      0x00\n      swap1\n      sload\n      swap1\n      0x0100\n      exp\n      swap1\n      div\n      0xffffffffffffffffffffffffffffffffffffffff\n      and\n        /* \"contract/token/ERC721.sol\":2687:2719  address owner = _owners[tokenId] */\n      swap1\n      pop\n        /* \"contract/token/ERC721.sol\":2755:2756  0 */\n      0x00\n        /* \"contract/token/ERC721.sol\":2738:2757  owner != address(0) */\n      0xffffffffffffffffffffffffffffffffffffffff\n      and\n        /* \"contract/token/ERC721.sol\":2738:2743  owner */\n      dup2\n        /* \"contract/token/ERC721.sol\":2738:2757  owner != address(0) */\n      0xffffffffffffffffffffffffffffffffffffffff\n      and\n      eq\n      iszero\n        /* \"contract/token/ERC721.sol\":2730:2803  require(owner != address(0), \"ERC721: owner query for nonexistent token\") */\n      tag_127\n      jumpi\n      mload(0x40)\n      0x08c379a000000000000000000000000000000000000000000000000000000000\n      dup2\n      mstore\n      0x04\n      add\n      tag_128\n      swap1\n      tag_129\n      jump\t// in\n    tag_128:\n      mload(0x40)\n      dup1\n      swap2\n      sub\n      swap1\n      revert\n    tag_127:\n        /* \"contract/token/ERC721.sol\":2821:2826  owner */\n      dup1\n        /* \"contract/token/ERC721.sol\":2814:2826  return owner */\n      swap2\n      pop\n      pop\n        /* \"contract/token/ERC721.sol\":2595:2834  function ownerOf(uint256 tokenId) public view virtual override returns (address) {\r... */\n      swap2\n      swap1\n      pop\n      jump\t// out\n        /* \"contract/token/ERC721.sol\":2326:2533  function balanceOf(address owner) public view virtual override returns (uint256) {\r... */\n    tag_54:\n        /* \"contract/token/ERC721.sol\":2398:2405  uint256 */\n      0x00\n        /* \"contract/token/ERC721.sol\":2443:2444  0 */\n      dup1\n        /* \"contract/token/ERC721.sol\":2426:2445  owner != address(0) */\n      0xffffffffffffffffffffffffffffffffffffffff\n      and\n        /* \"contract/token/ERC721.sol\":2426:2431  owner */\n      dup3\n        /* \"contract/token/ERC721.sol\":2426:2445  owner != address(0) */\n      0xffffffffffffffffffffffffffffffffffffffff\n      and\n      eq\n      iszero\n        /* \"contract/token/ERC721.sol\":2418:2491  require(owner != address(0), \"ERC721: address zero is not a valid owner\") */\n      tag_131\n      jumpi\n      mload(0x40)\n      0x08c379a000000000000000000000000000000000000000000000000000000000\n      dup2\n      mstore\n      0x04\n      add\n      tag_132\n      swap1\n      tag_133\n      jump\t// in\n    tag_132:\n      mload(0x40)\n      dup1\n      swap2\n      sub\n      swap1\n      revert\n    tag_131:\n        /* \"contract/token/ERC721.sol\":2509:2518  _balances */\n      0x03\n        /* \"contract/token/ERC721.sol\":2509:2525  _balances[owner] */\n      0x00\n        /* \"contract/token/ERC721.sol\":2519:2524  owner */\n      dup4\n        /* \"contract/token/ERC721.sol\":2509:2525  _balances[owner] */\n      0xffffffffffffffffffffffffffffffffffffffff\n      and\n      0xffffffffffffffffffffffffffffffffffffffff\n      and\n      dup2\n      mstore\n      0x20\n      add\n      swap1\n      dup2\n      mstore\n      0x20\n      add\n      0x00\n      keccak256\n      sload\n        /* \"contract/token/ERC721.sol\":2502:2525  return _balances[owner] */\n      swap1\n      pop\n        /* \"contract/token/ERC721.sol\":2326:2533  function balanceOf(address owner) public view virtual override returns (uint256) {\r... */\n      swap2\n      swap1\n      pop\n      jump\t// out\n        /* \"contract/token/ERC721.sol\":3070:3174  function symbol() public view virtual override returns (string memory) {\r... */\n    tag_58:\n        /* \"contract/token/ERC721.sol\":3126:3139  string memory */\n      0x60\n        /* \"contract/token/ERC721.sol\":3159:3166  _symbol */\n      0x01\n        /* \"contract/token/ERC721.sol\":3152:3166  return _symbol */\n      dup1\n      sload\n      tag_135\n      swap1\n      tag_89\n      jump\t// in\n    tag_135:\n      dup1\n      0x1f\n      add\n      0x20\n      dup1\n      swap2\n      div\n      mul\n      0x20\n      add\n      mload(0x40)\n      swap1\n      dup2\n      add\n      0x40\n      mstore\n      dup1\n      swap3\n      swap2\n      swap1\n      dup2\n      dup2\n      mstore\n      0x20\n      add\n      dup3\n      dup1\n      sload\n      tag_136\n      swap1\n      tag_89\n      jump\t// in\n    tag_136:\n      dup1\n      iszero\n      tag_137\n      jumpi\n      dup1\n      0x1f\n      lt\n      tag_138\n      jumpi\n      0x0100\n      dup1\n      dup4\n      sload\n      div\n      mul\n      dup4\n      mstore\n      swap2\n      0x20\n      add\n      swap2\n      jump(tag_137)\n    tag_138:\n      dup3\n      add\n      swap2\n      swap1\n      0x00\n      mstore\n      keccak256(0x00, 0x20)\n      swap1\n    tag_139:\n      dup2\n      sload\n      dup2\n      mstore\n      swap1\n      0x01\n      add\n      swap1\n      0x20\n      add\n      dup1\n      dup4\n      gt\n      tag_139\n      jumpi\n      dup3\n      swap1\n      sub\n      0x1f\n      and\n      dup3\n      add\n      swap2\n    tag_137:\n      pop\n      pop\n      pop\n      pop\n      pop\n      swap1\n      pop\n        /* \"contract/token/ERC721.sol\":3070:3174  function symbol() public view virtual override returns (string memory) {\r... */\n      swap1\n      jump\t// out\n        /* \"contract/token/ERC721.sol\":4754:4909  function setApprovalForAll(address operator, bool approved) public virtual override {\r... */\n    tag_63:\n        /* \"contract/token/ERC721.sol\":4849:4901  _setApprovalForAll(_msgSender(), operator, approved) */\n      tag_141\n        /* \"contract/token/ERC721.sol\":4868:4880  _msgSender() */\n      tag_142\n        /* \"contract/token/ERC721.sol\":4868:4878  _msgSender */\n      tag_106\n        /* \"contract/token/ERC721.sol\":4868:4880  _msgSender() */\n      jump\t// in\n    tag_142:\n        /* \"contract/token/ERC721.sol\":4882:4890  operator */\n      dup4\n        /* \"contract/token/ERC721.sol\":4892:4900  approved */\n      dup4\n        /* \"contract/token/ERC721.sol\":4849:4867  _setApprovalForAll */\n      tag_143\n        /* \"contract/token/ERC721.sol\":4849:4901  _setApprovalForAll(_msgSender(), operator, approved) */\n      jump\t// in\n    tag_141:\n        /* \"contract/token/ERC721.sol\":4754:4909  function setApprovalForAll(address operator, bool approved) public virtual override {\r... */\n      pop\n      pop\n      jump\t// out\n        /* \"contract/token/ERC721.sol\":1608:1644  mapping(uint => House) public houses */\n    tag_66:\n      mstore(0x20, 0x06)\n      dup1\n      0x00\n      mstore\n      keccak256(0x00, 0x40)\n      0x00\n      swap2\n      pop\n      swap1\n      pop\n      dup1\n      0x00\n      add\n      sload\n      swap1\n      dup1\n      0x01\n      add\n      sload\n      swap1\n      dup1\n      0x02\n      add\n      sload\n      swap1\n      dup1\n      0x03\n      add\n      sload\n      swap1\n      dup1\n      0x04\n      add\n      sload\n      swap1\n      dup1\n      0x05\n      add\n      0x00\n      swap1\n      sload\n      swap1\n      0x0100\n      exp\n      swap1\n      div\n      0xffffffffffffffffffffffffffffffffffffffff\n      and\n      swap1\n      dup1\n      0x06\n      add\n      0x00\n      swap1\n      sload\n      swap1\n      0x0100\n      exp\n      swap1\n      div\n      0xffffffffffffffffffffffffffffffffffffffff\n      and\n      swap1\n      dup1\n      0x07\n      add\n      dup1\n      sload\n      tag_144\n      swap1\n      tag_89\n      jump\t// in\n    tag_144:\n      dup1\n      0x1f\n      add\n      0x20\n      dup1\n      swap2\n      div\n      mul\n      0x20\n      add\n      mload(0x40)\n      swap1\n      dup2\n      add\n      0x40\n      mstore\n      dup1\n      swap3\n      swap2\n      swap1\n      dup2\n      dup2\n      mstore\n      0x20\n      add\n      dup3\n      dup1\n      sload\n      tag_145\n      swap1\n      tag_89\n      jump\t// in\n    tag_145:\n      dup1\n      iszero\n      tag_146\n      jumpi\n      dup1\n      0x1f\n      lt\n      tag_147\n      jumpi\n      0x0100\n      dup1\n      dup4\n      sload\n      div\n      mul\n      dup4\n      mstore\n      swap2\n      0x20\n      add\n      swap2\n      jump(tag_146)\n    tag_147:\n      dup3\n      add\n      swap2\n      swap1\n      0x00\n      mstore\n      keccak256(0x00, 0x20)\n      swap1\n    tag_148:\n      dup2\n      sload\n      dup2\n      mstore\n      swap1\n      0x01\n      add\n      swap1\n      0x20\n      add\n      dup1\n      dup4\n      gt\n      tag_148\n      jumpi\n      dup3\n      swap1\n      sub\n      0x1f\n      and\n      dup3\n      add\n      swap2\n    tag_146:\n      pop\n      pop\n      pop\n      pop\n      pop\n      swap1\n      dup1\n      0x08\n      add\n      0x00\n      swap1\n      sload\n      swap1\n      0x0100\n      exp\n      swap1\n      div\n      0xff\n      and\n      swap1\n      pop\n      dup10\n      jump\t// out\n        /* \"contract/token/ERC721.sol\":5877:6203  function safeTransferFrom(\r... */\n    tag_72:\n        /* \"contract/token/ERC721.sol\":6051:6092  _isApprovedOrOwner(_msgSender(), tokenId) */\n      tag_150\n        /* \"contract/token/ERC721.sol\":6070:6082  _msgSender() */\n      tag_151\n        /* \"contract/token/ERC721.sol\":6070:6080  _msgSender */\n      tag_106\n        /* \"contract/token/ERC721.sol\":6070:6082  _msgSender() */\n      jump\t// in\n    tag_151:\n        /* \"contract/token/ERC721.sol\":6084:6091  tokenId */\n      dup4\n        /* \"contract/token/ERC721.sol\":6051:6069  _isApprovedOrOwner */\n      tag_118\n        /* \"contract/token/ERC721.sol\":6051:6092  _isApprovedOrOwner(_msgSender(), tokenId) */\n      jump\t// in\n    tag_150:\n        /* \"contract/token/ERC721.sol\":6043:6146  require(_isApprovedOrOwner(_msgSender(), tokenId), \"ERC721: transfer caller is not owner nor approved\") */\n      tag_152\n      jumpi\n      mload(0x40)\n      0x08c379a000000000000000000000000000000000000000000000000000000000\n      dup2\n      mstore\n      0x04\n      add\n      tag_153\n      swap1\n      tag_121\n      jump\t// in\n    tag_153:\n      mload(0x40)\n      dup1\n      swap2\n      sub\n      swap1\n      revert\n    tag_152:\n        /* \"contract/token/ERC721.sol\":6157:6195  _safeTransfer(from, to, tokenId, data) */\n      tag_154\n        /* \"contract/token/ERC721.sol\":6171:6175  from */\n      dup5\n        /* \"contract/token/ERC721.sol\":6177:6179  to */\n      dup5\n        /* \"contract/token/ERC721.sol\":6181:6188  tokenId */\n      dup5\n        /* \"contract/token/ERC721.sol\":6190:6194  data */\n      dup5\n        /* \"contract/token/ERC721.sol\":6157:6170  _safeTransfer */\n      tag_155\n        /* \"contract/token/ERC721.sol\":6157:6195  _safeTransfer(from, to, tokenId, data) */\n      jump\t// in\n    tag_154:\n        /* \"contract/token/ERC721.sol\":5877:6203  function safeTransferFrom(\r... */\n      pop\n      pop\n      pop\n      pop\n      jump\t// out\n        /* \"contract/token/ERC721.sol\":3245:3579  function tokenURI(uint256 tokenId) public view virtual override returns (string memory) {\r... */\n    tag_75:\n        /* \"contract/token/ERC721.sol\":3318:3331  string memory */\n      0x60\n        /* \"contract/token/ERC721.sol\":3352:3368  _exists(tokenId) */\n      tag_157\n        /* \"contract/token/ERC721.sol\":3360:3367  tokenId */\n      dup3\n        /* \"contract/token/ERC721.sol\":3352:3359  _exists */\n      tag_96\n        /* \"contract/token/ERC721.sol\":3352:3368  _exists(tokenId) */\n      jump\t// in\n    tag_157:\n        /* \"contract/token/ERC721.sol\":3344:3420  require(_exists(tokenId), \"ERC721Metadata: URI query for nonexistent token\") */\n      tag_158\n      jumpi\n      mload(0x40)\n      0x08c379a000000000000000000000000000000000000000000000000000000000\n      dup2\n      mstore\n      0x04\n      add\n      tag_159\n      swap1\n      tag_160\n      jump\t// in\n    tag_159:\n      mload(0x40)\n      dup1\n      swap2\n      sub\n      swap1\n      revert\n    tag_158:\n        /* \"contract/token/ERC721.sol\":3433:3454  string memory baseURI */\n      0x00\n        /* \"contract/token/ERC721.sol\":3457:3467  _baseURI() */\n      tag_161\n        /* \"contract/token/ERC721.sol\":3457:3465  _baseURI */\n      tag_162\n        /* \"contract/token/ERC721.sol\":3457:3467  _baseURI() */\n      jump\t// in\n    tag_161:\n        /* \"contract/token/ERC721.sol\":3433:3467  string memory baseURI = _baseURI() */\n      swap1\n      pop\n        /* \"contract/token/ERC721.sol\":3509:3510  0 */\n      0x00\n        /* \"contract/token/ERC721.sol\":3491:3498  baseURI */\n      dup2\n        /* \"contract/token/ERC721.sol\":3485:3506  bytes(baseURI).length */\n      mload\n        /* \"contract/token/ERC721.sol\":3485:3510  bytes(baseURI).length > 0 */\n      gt\n        /* \"contract/token/ERC721.sol\":3485:3571  bytes(baseURI).length > 0 ? string(abi.encodePacked(baseURI, tokenId.toString())) : \"\" */\n      tag_163\n      jumpi\n      mload(0x40)\n      dup1\n      0x20\n      add\n      0x40\n      mstore\n      dup1\n      0x00\n      dup2\n      mstore\n      pop\n      jump(tag_164)\n    tag_163:\n        /* \"contract/token/ERC721.sol\":3537:3544  baseURI */\n      dup1\n        /* \"contract/token/ERC721.sol\":3546:3564  tokenId.toString() */\n      tag_165\n        /* \"contract/token/ERC721.sol\":3546:3553  tokenId */\n      dup5\n        /* \"contract/token/ERC721.sol\":3546:3562  tokenId.toString */\n      tag_166\n        /* \"contract/token/ERC721.sol\":3546:3564  tokenId.toString() */\n      jump\t// in\n    tag_165:\n        /* \"contract/token/ERC721.sol\":3520:3565  abi.encodePacked(baseURI, tokenId.toString()) */\n      add(0x20, mload(0x40))\n      tag_167\n      swap3\n      swap2\n      swap1\n      tag_168\n      jump\t// in\n    tag_167:\n      mload(0x40)\n      0x20\n      dup2\n      dup4\n      sub\n      sub\n      dup2\n      mstore\n      swap1\n      0x40\n      mstore\n        /* \"contract/token/ERC721.sol\":3485:3571  bytes(baseURI).length > 0 ? string(abi.encodePacked(baseURI, tokenId.toString())) : \"\" */\n    tag_164:\n        /* \"contract/token/ERC721.sol\":3478:3571  return bytes(baseURI).length > 0 ? string(abi.encodePacked(baseURI, tokenId.toString())) : \"\" */\n      swap2\n      pop\n      pop\n        /* \"contract/token/ERC721.sol\":3245:3579  function tokenURI(uint256 tokenId) public view virtual override returns (string memory) {\r... */\n      swap2\n      swap1\n      pop\n      jump\t// out\n        /* \"contract/token/ERC721.sol\":4980:5144  function isApprovedForAll(address owner, address operator) public view virtual override returns (bool) {\r... */\n    tag_80:\n        /* \"contract/token/ERC721.sol\":5077:5081  bool */\n      0x00\n        /* \"contract/token/ERC721.sol\":5101:5119  _operatorApprovals */\n      0x05\n        /* \"contract/token/ERC721.sol\":5101:5126  _operatorApprovals[owner] */\n      0x00\n        /* \"contract/token/ERC721.sol\":5120:5125  owner */\n      dup5\n        /* \"contract/token/ERC721.sol\":5101:5126  _operatorApprovals[owner] */\n      0xffffffffffffffffffffffffffffffffffffffff\n      and\n      0xffffffffffffffffffffffffffffffffffffffff\n      and\n      dup2\n      mstore\n      0x20\n      add\n      swap1\n      dup2\n      mstore\n      0x20\n      add\n      0x00\n      keccak256\n        /* \"contract/token/ERC721.sol\":5101:5136  _operatorApprovals[owner][operator] */\n      0x00\n        /* \"contract/token/ERC721.sol\":5127:5135  operator */\n      dup4\n        /* \"contract/token/ERC721.sol\":5101:5136  _operatorApprovals[owner][operator] */\n      0xffffffffffffffffffffffffffffffffffffffff\n      and\n      0xffffffffffffffffffffffffffffffffffffffff\n      and\n      dup2\n      mstore\n      0x20\n      add\n      swap1\n      dup2\n      mstore\n      0x20\n      add\n      0x00\n      keccak256\n      0x00\n      swap1\n      sload\n      swap1\n      0x0100\n      exp\n      swap1\n      div\n      0xff\n      and\n        /* \"contract/token/ERC721.sol\":5094:5136  return _operatorApprovals[owner][operator] */\n      swap1\n      pop\n        /* \"contract/token/ERC721.sol\":4980:5144  function isApprovedForAll(address owner, address operator) public view virtual override returns (bool) {\r... */\n      swap3\n      swap2\n      pop\n      pop\n      jump\t// out\n        /* \"utils/introspection/ERC165.sol\":854:1011  function supportsInterface(bytes4 interfaceId) public view virtual override returns (bool) {\r... */\n    tag_86:\n        /* \"utils/introspection/ERC165.sol\":939:943  bool */\n      0x00\n        /* \"utils/introspection/ERC165.sol\":978:1003  type(IERC165).interfaceId */\n      0x01ffc9a700000000000000000000000000000000000000000000000000000000\n        /* \"utils/introspection/ERC165.sol\":963:1003  interfaceId == type(IERC165).interfaceId */\n      not(0xffffffffffffffffffffffffffffffffffffffffffffffffffffffff)\n      and\n        /* \"utils/introspection/ERC165.sol\":963:974  interfaceId */\n      dup3\n        /* \"utils/introspection/ERC165.sol\":963:1003  interfaceId == type(IERC165).interfaceId */\n      not(0xffffffffffffffffffffffffffffffffffffffffffffffffffffffff)\n      and\n      eq\n        /* \"utils/introspection/ERC165.sol\":956:1003  return interfaceId == type(IERC165).interfaceId */\n      swap1\n      pop\n        /* \"utils/introspection/ERC165.sol\":854:1011  function supportsInterface(bytes4 interfaceId) public view virtual override returns (bool) {\r... */\n      swap2\n      swap1\n      pop\n      jump\t// out\n        /* \"contract/token/ERC721.sol\":7710:7837  function _exists(uint256 tokenId) internal view virtual returns (bool) {\r... */\n    tag_96:\n        /* \"contract/token/ERC721.sol\":7775:7779  bool */\n      0x00\n        /* \"contract/token/ERC721.sol\":7827:7828  0 */\n      dup1\n        /* \"contract/token/ERC721.sol\":7799:7829  _owners[tokenId] != address(0) */\n      0xffffffffffffffffffffffffffffffffffffffff\n      and\n        /* \"contract/token/ERC721.sol\":7799:7806  _owners */\n      0x02\n        /* \"contract/token/ERC721.sol\":7799:7815  _owners[tokenId] */\n      0x00\n        /* \"contract/token/ERC721.sol\":7807:7814  tokenId */\n      dup5\n        /* \"contract/token/ERC721.sol\":7799:7815  _owners[tokenId] */\n      dup2\n      mstore\n      0x20\n      add\n      swap1\n      dup2\n      mstore\n      0x20\n      add\n      0x00\n      keccak256\n      0x00\n      swap1\n      sload\n      swap1\n      0x0100\n      exp\n      swap1\n      div\n      0xffffffffffffffffffffffffffffffffffffffff\n      and\n        /* \"contract/token/ERC721.sol\":7799:7829  _owners[tokenId] != address(0) */\n      0xffffffffffffffffffffffffffffffffffffffff\n      and\n      eq\n      iszero\n        /* \"contract/token/ERC721.sol\":7792:7829  return _owners[tokenId] != address(0) */\n      swap1\n      pop\n        /* \"contract/token/ERC721.sol\":7710:7837  function _exists(uint256 tokenId) internal view virtual returns (bool) {\r... */\n      swap2\n      swap1\n      pop\n      jump\t// out\n        /* \"utils/Context.sol\":601:699  function _msgSender() internal view virtual returns (address) {\r... */\n    tag_106:\n        /* \"utils/Context.sol\":654:661  address */\n      0x00\n        /* \"utils/Context.sol\":681:691  msg.sender */\n      caller\n        /* \"utils/Context.sol\":674:691  return msg.sender */\n      swap1\n      pop\n        /* \"utils/Context.sol\":601:699  function _msgSender() internal view virtual returns (address) {\r... */\n      swap1\n      jump\t// out\n        /* \"contract/token/ERC721.sol\":11854:12028  function _approve(address to, uint256 tokenId) internal virtual {\r... */\n    tag_114:\n        /* \"contract/token/ERC721.sol\":11956:11958  to */\n      dup2\n        /* \"contract/token/ERC721.sol\":11929:11944  _tokenApprovals */\n      0x04\n        /* \"contract/token/ERC721.sol\":11929:11953  _tokenApprovals[tokenId] */\n      0x00\n        /* \"contract/token/ERC721.sol\":11945:11952  tokenId */\n      dup4\n        /* \"contract/token/ERC721.sol\":11929:11953  _tokenApprovals[tokenId] */\n      dup2\n      mstore\n      0x20\n      add\n      swap1\n      dup2\n      mstore\n      0x20\n      add\n      0x00\n      keccak256\n      0x00\n        /* \"contract/token/ERC721.sol\":11929:11958  _tokenApprovals[tokenId] = to */\n      0x0100\n      exp\n      dup2\n      sload\n      dup2\n      0xffffffffffffffffffffffffffffffffffffffff\n      mul\n      not\n      and\n      swap1\n      dup4\n      0xffffffffffffffffffffffffffffffffffffffff\n      and\n      mul\n      or\n      swap1\n      sstore\n      pop\n        /* \"contract/token/ERC721.sol\":12012:12019  tokenId */\n      dup1\n        /* \"contract/token/ERC721.sol\":12008:12010  to */\n      dup3\n        /* \"contract/token/ERC721.sol\":11974:12020  Approval(ERC721.ownerOf(tokenId), to, tokenId) */\n      0xffffffffffffffffffffffffffffffffffffffff\n      and\n        /* \"contract/token/ERC721.sol\":11983:12006  ERC721.ownerOf(tokenId) */\n      tag_174\n        /* \"contract/token/ERC721.sol\":11998:12005  tokenId */\n      dup4\n        /* \"contract/token/ERC721.sol\":11983:11997  ERC721.ownerOf */\n      tag_49\n        /* \"contract/token/ERC721.sol\":11983:12006  ERC721.ownerOf(tokenId) */\n      jump\t// in\n    tag_174:\n        /* \"contract/token/ERC721.sol\":11974:12020  Approval(ERC721.ownerOf(tokenId), to, tokenId) */\n      0xffffffffffffffffffffffffffffffffffffffff\n      and\n      0x8c5be1e5ebec7d5bd14f71427d1e84f3dd0314c0f7b2291e5b200ac8c7c3b925\n      mload(0x40)\n      mload(0x40)\n      dup1\n      swap2\n      sub\n      swap1\n      log4\n        /* \"contract/token/ERC721.sol\":11854:12028  function _approve(address to, uint256 tokenId) internal virtual {\r... */\n      pop\n      pop\n      jump\t// out\n        /* \"contract/token/ERC721.sol\":8004:8352  function _isApprovedOrOwner(address spender, uint256 tokenId) internal view virtual returns (bool) {\r... */\n    tag_118:\n        /* \"contract/token/ERC721.sol\":8097:8101  bool */\n      0x00\n        /* \"contract/token/ERC721.sol\":8122:8138  _exists(tokenId) */\n      tag_176\n        /* \"contract/token/ERC721.sol\":8130:8137  tokenId */\n      dup3\n        /* \"contract/token/ERC721.sol\":8122:8129  _exists */\n      tag_96\n        /* \"contract/token/ERC721.sol\":8122:8138  _exists(tokenId) */\n      jump\t// in\n    tag_176:\n        /* \"contract/token/ERC721.sol\":8114:8187  require(_exists(tokenId), \"ERC721: operator query for nonexistent token\") */\n      tag_177\n      jumpi\n      mload(0x40)\n      0x08c379a000000000000000000000000000000000000000000000000000000000\n      dup2\n      mstore\n      0x04\n      add\n      tag_178\n      swap1\n      tag_179\n      jump\t// in\n    tag_178:\n      mload(0x40)\n      dup1\n      swap2\n      sub\n      swap1\n      revert\n    tag_177:\n        /* \"contract/token/ERC721.sol\":8198:8211  address owner */\n      0x00\n        /* \"contract/token/ERC721.sol\":8214:8237  ERC721.ownerOf(tokenId) */\n      tag_180\n        /* \"contract/token/ERC721.sol\":8229:8236  tokenId */\n      dup4\n        /* \"contract/token/ERC721.sol\":8214:8228  ERC721.ownerOf */\n      tag_49\n        /* \"contract/token/ERC721.sol\":8214:8237  ERC721.ownerOf(tokenId) */\n      jump\t// in\n    tag_180:\n        /* \"contract/token/ERC721.sol\":8198:8237  address owner = ERC721.ownerOf(tokenId) */\n      swap1\n      pop\n        /* \"contract/token/ERC721.sol\":8267:8272  owner */\n      dup1\n        /* \"contract/token/ERC721.sol\":8256:8272  spender == owner */\n      0xffffffffffffffffffffffffffffffffffffffff\n      and\n        /* \"contract/token/ERC721.sol\":8256:8263  spender */\n      dup5\n        /* \"contract/token/ERC721.sol\":8256:8272  spender == owner */\n      0xffffffffffffffffffffffffffffffffffffffff\n      and\n      eq\n        /* \"contract/token/ERC721.sol\":8256:8308  spender == owner || isApprovedForAll(owner, spender) */\n      dup1\n      tag_181\n      jumpi\n      pop\n        /* \"contract/token/ERC721.sol\":8276:8308  isApprovedForAll(owner, spender) */\n      tag_182\n        /* \"contract/token/ERC721.sol\":8293:8298  owner */\n      dup2\n        /* \"contract/token/ERC721.sol\":8300:8307  spender */\n      dup6\n        /* \"contract/token/ERC721.sol\":8276:8292  isApprovedForAll */\n      tag_80\n        /* \"contract/token/ERC721.sol\":8276:8308  isApprovedForAll(owner, spender) */\n      jump\t// in\n    tag_182:\n        /* \"contract/token/ERC721.sol\":8256:8308  spender == owner || isApprovedForAll(owner, spender) */\n    tag_181:\n        /* \"contract/token/ERC721.sol\":8256:8343  spender == owner || isApprovedForAll(owner, spender) || getApproved(tokenId) == spender */\n      dup1\n      tag_183\n      jumpi\n      pop\n        /* \"contract/token/ERC721.sol\":8336:8343  spender */\n      dup4\n        /* \"contract/token/ERC721.sol\":8312:8343  getApproved(tokenId) == spender */\n      0xffffffffffffffffffffffffffffffffffffffff\n      and\n        /* \"contract/token/ERC721.sol\":8312:8332  getApproved(tokenId) */\n      tag_184\n        /* \"contract/token/ERC721.sol\":8324:8331  tokenId */\n      dup5\n        /* \"contract/token/ERC721.sol\":8312:8323  getApproved */\n      tag_33\n        /* \"contract/token/ERC721.sol\":8312:8332  getApproved(tokenId) */\n      jump\t// in\n    tag_184:\n        /* \"contract/token/ERC721.sol\":8312:8343  getApproved(tokenId) == spender */\n      0xffffffffffffffffffffffffffffffffffffffff\n      and\n      eq\n        /* \"contract/token/ERC721.sol\":8256:8343  spender == owner || isApprovedForAll(owner, spender) || getApproved(tokenId) == spender */\n    tag_183:\n        /* \"contract/token/ERC721.sol\":8248:8344  return (spender == owner || isApprovedForAll(owner, spender) || getApproved(tokenId) == spender) */\n      swap2\n      pop\n      pop\n        /* \"contract/token/ERC721.sol\":8004:8352  function _isApprovedOrOwner(address spender, uint256 tokenId) internal view virtual returns (bool) {\r... */\n      swap3\n      swap2\n      pop\n      pop\n      jump\t// out\n        /* \"contract/token/ERC721.sol\":11111:11736  function _transfer(\r... */\n    tag_123:\n        /* \"contract/token/ERC721.sol\":11270:11274  from */\n      dup3\n        /* \"contract/token/ERC721.sol\":11243:11274  ERC721.ownerOf(tokenId) == from */\n      0xffffffffffffffffffffffffffffffffffffffff\n      and\n        /* \"contract/token/ERC721.sol\":11243:11266  ERC721.ownerOf(tokenId) */\n      tag_186\n        /* \"contract/token/ERC721.sol\":11258:11265  tokenId */\n      dup3\n        /* \"contract/token/ERC721.sol\":11243:11257  ERC721.ownerOf */\n      tag_49\n        /* \"contract/token/ERC721.sol\":11243:11266  ERC721.ownerOf(tokenId) */\n      jump\t// in\n    tag_186:\n        /* \"contract/token/ERC721.sol\":11243:11274  ERC721.ownerOf(tokenId) == from */\n      0xffffffffffffffffffffffffffffffffffffffff\n      and\n      eq\n        /* \"contract/token/ERC721.sol\":11235:11316  require(ERC721.ownerOf(tokenId) == from, \"ERC721: transfer from incorrect owner\") */\n      tag_187\n      jumpi\n      mload(0x40)\n      0x08c379a000000000000000000000000000000000000000000000000000000000\n      dup2\n      mstore\n      0x04\n      add\n      tag_188\n      swap1\n      tag_189\n      jump\t// in\n    tag_188:\n      mload(0x40)\n      dup1\n      swap2\n      sub\n      swap1\n      revert\n    tag_187:\n        /* \"contract/token/ERC721.sol\":11349:11350  0 */\n      0x00\n        /* \"contract/token/ERC721.sol\":11335:11351  to != address(0) */\n      0xffffffffffffffffffffffffffffffffffffffff\n      and\n        /* \"contract/token/ERC721.sol\":11335:11337  to */\n      dup3\n        /* \"contract/token/ERC721.sol\":11335:11351  to != address(0) */\n      0xffffffffffffffffffffffffffffffffffffffff\n      and\n      eq\n      iszero\n        /* \"contract/token/ERC721.sol\":11327:11392  require(to != address(0), \"ERC721: transfer to the zero address\") */\n      tag_190\n      jumpi\n      mload(0x40)\n      0x08c379a000000000000000000000000000000000000000000000000000000000\n      dup2\n      mstore\n      0x04\n      add\n      tag_191\n      swap1\n      tag_192\n      jump\t// in\n    tag_191:\n      mload(0x40)\n      dup1\n      swap2\n      sub\n      swap1\n      revert\n    tag_190:\n        /* \"contract/token/ERC721.sol\":11405:11444  _beforeTokenTransfer(from, to, tokenId) */\n      tag_193\n        /* \"contract/token/ERC721.sol\":11426:11430  from */\n      dup4\n        /* \"contract/token/ERC721.sol\":11432:11434  to */\n      dup4\n        /* \"contract/token/ERC721.sol\":11436:11443  tokenId */\n      dup4\n        /* \"contract/token/ERC721.sol\":11405:11425  _beforeTokenTransfer */\n      tag_194\n        /* \"contract/token/ERC721.sol\":11405:11444  _beforeTokenTransfer(from, to, tokenId) */\n      jump\t// in\n    tag_193:\n        /* \"contract/token/ERC721.sol\":11509:11538  _approve(address(0), tokenId) */\n      tag_195\n        /* \"contract/token/ERC721.sol\":11526:11527  0 */\n      0x00\n        /* \"contract/token/ERC721.sol\":11530:11537  tokenId */\n      dup3\n        /* \"contract/token/ERC721.sol\":11509:11517  _approve */\n      tag_114\n        /* \"contract/token/ERC721.sol\":11509:11538  _approve(address(0), tokenId) */\n      jump\t// in\n    tag_195:\n        /* \"contract/token/ERC721.sol\":11570:11571  1 */\n      0x01\n        /* \"contract/token/ERC721.sol\":11551:11560  _balances */\n      0x03\n        /* \"contract/token/ERC721.sol\":11551:11566  _balances[from] */\n      0x00\n        /* \"contract/token/ERC721.sol\":11561:11565  from */\n      dup6\n        /* \"contract/token/ERC721.sol\":11551:11566  _balances[from] */\n      0xffffffffffffffffffffffffffffffffffffffff\n      and\n      0xffffffffffffffffffffffffffffffffffffffff\n      and\n      dup2\n      mstore\n      0x20\n      add\n      swap1\n      dup2\n      mstore\n      0x20\n      add\n      0x00\n      keccak256\n      0x00\n        /* \"contract/token/ERC721.sol\":11551:11571  _balances[from] -= 1 */\n      dup3\n      dup3\n      sload\n      tag_196\n      swap2\n      swap1\n      tag_197\n      jump\t// in\n    tag_196:\n      swap3\n      pop\n      pop\n      dup2\n      swap1\n      sstore\n      pop\n        /* \"contract/token/ERC721.sol\":11599:11600  1 */\n      0x01\n        /* \"contract/token/ERC721.sol\":11582:11591  _balances */\n      0x03\n        /* \"contract/token/ERC721.sol\":11582:11595  _balances[to] */\n      0x00\n        /* \"contract/token/ERC721.sol\":11592:11594  to */\n      dup5\n        /* \"contract/token/ERC721.sol\":11582:11595  _balances[to] */\n      0xffffffffffffffffffffffffffffffffffffffff\n      and\n      0xffffffffffffffffffffffffffffffffffffffff\n      and\n      dup2\n      mstore\n      0x20\n      add\n      swap1\n      dup2\n      mstore\n      0x20\n      add\n      0x00\n      keccak256\n      0x00\n        /* \"contract/token/ERC721.sol\":11582:11600  _balances[to] += 1 */\n      dup3\n      dup3\n      sload\n      tag_198\n      swap2\n      swap1\n      tag_199\n      jump\t// in\n    tag_198:\n      swap3\n      pop\n      pop\n      dup2\n      swap1\n      sstore\n      pop\n        /* \"contract/token/ERC721.sol\":11630:11632  to */\n      dup2\n        /* \"contract/token/ERC721.sol\":11611:11618  _owners */\n      0x02\n        /* \"contract/token/ERC721.sol\":11611:11627  _owners[tokenId] */\n      0x00\n        /* \"contract/token/ERC721.sol\":11619:11626  tokenId */\n      dup4\n        /* \"contract/token/ERC721.sol\":11611:11627  _owners[tokenId] */\n      dup2\n      mstore\n      0x20\n      add\n      swap1\n      dup2\n      mstore\n      0x20\n      add\n      0x00\n      keccak256\n      0x00\n        /* \"contract/token/ERC721.sol\":11611:11632  _owners[tokenId] = to */\n      0x0100\n      exp\n      dup2\n      sload\n      dup2\n      0xffffffffffffffffffffffffffffffffffffffff\n      mul\n      not\n      and\n      swap1\n      dup4\n      0xffffffffffffffffffffffffffffffffffffffff\n      and\n      mul\n      or\n      swap1\n      sstore\n      pop\n        /* \"contract/token/ERC721.sol\":11669:11676  tokenId */\n      dup1\n        /* \"contract/token/ERC721.sol\":11665:11667  to */\n      dup3\n        /* \"contract/token/ERC721.sol\":11650:11677  Transfer(from, to, tokenId) */\n      0xffffffffffffffffffffffffffffffffffffffff\n      and\n        /* \"contract/token/ERC721.sol\":11659:11663  from */\n      dup5\n        /* \"contract/token/ERC721.sol\":11650:11677  Transfer(from, to, tokenId) */\n      0xffffffffffffffffffffffffffffffffffffffff\n      and\n      0xddf252ad1be2c89b69c2b068fc378daa952ba7f163c4a11628f55a4df523b3ef\n      mload(0x40)\n      mload(0x40)\n      dup1\n      swap2\n      sub\n      swap1\n      log4\n        /* \"contract/token/ERC721.sol\":11690:11728  _afterTokenTransfer(from, to, tokenId) */\n      tag_200\n        /* \"contract/token/ERC721.sol\":11710:11714  from */\n      dup4\n        /* \"contract/token/ERC721.sol\":11716:11718  to */\n      dup4\n        /* \"contract/token/ERC721.sol\":11720:11727  tokenId */\n      dup4\n        /* \"contract/token/ERC721.sol\":11690:11709  _afterTokenTransfer */\n      tag_201\n        /* \"contract/token/ERC721.sol\":11690:11728  _afterTokenTransfer(from, to, tokenId) */\n      jump\t// in\n    tag_200:\n        /* \"contract/token/ERC721.sol\":11111:11736  function _transfer(\r... */\n      pop\n      pop\n      pop\n      jump\t// out\n        /* \"contract/token/ERC721.sol\":12170:12485  function _setApprovalForAll(\r... */\n    tag_143:\n        /* \"contract/token/ERC721.sol\":12325:12333  operator */\n      dup2\n        /* \"contract/token/ERC721.sol\":12316:12333  owner != operator */\n      0xffffffffffffffffffffffffffffffffffffffff\n      and\n        /* \"contract/token/ERC721.sol\":12316:12321  owner */\n      dup4\n        /* \"contract/token/ERC721.sol\":12316:12333  owner != operator */\n      0xffffffffffffffffffffffffffffffffffffffff\n      and\n      eq\n      iszero\n        /* \"contract/token/ERC721.sol\":12308:12363  require(owner != operator, \"ERC721: approve to caller\") */\n      tag_203\n      jumpi\n      mload(0x40)\n      0x08c379a000000000000000000000000000000000000000000000000000000000\n      dup2\n      mstore\n      0x04\n      add\n      tag_204\n      swap1\n      tag_205\n      jump\t// in\n    tag_204:\n      mload(0x40)\n      dup1\n      swap2\n      sub\n      swap1\n      revert\n    tag_203:\n        /* \"contract/token/ERC721.sol\":12412:12420  approved */\n      dup1\n        /* \"contract/token/ERC721.sol\":12374:12392  _operatorApprovals */\n      0x05\n        /* \"contract/token/ERC721.sol\":12374:12399  _operatorApprovals[owner] */\n      0x00\n        /* \"contract/token/ERC721.sol\":12393:12398  owner */\n      dup6\n        /* \"contract/token/ERC721.sol\":12374:12399  _operatorApprovals[owner] */\n      0xffffffffffffffffffffffffffffffffffffffff\n      and\n      0xffffffffffffffffffffffffffffffffffffffff\n      and\n      dup2\n      mstore\n      0x20\n      add\n      swap1\n      dup2\n      mstore\n      0x20\n      add\n      0x00\n      keccak256\n        /* \"contract/token/ERC721.sol\":12374:12409  _operatorApprovals[owner][operator] */\n      0x00\n        /* \"contract/token/ERC721.sol\":12400:12408  operator */\n      dup5\n        /* \"contract/token/ERC721.sol\":12374:12409  _operatorApprovals[owner][operator] */\n      0xffffffffffffffffffffffffffffffffffffffff\n      and\n      0xffffffffffffffffffffffffffffffffffffffff\n      and\n      dup2\n      mstore\n      0x20\n      add\n      swap1\n      dup2\n      mstore\n      0x20\n      add\n      0x00\n      keccak256\n      0x00\n        /* \"contract/token/ERC721.sol\":12374:12420  _operatorApprovals[owner][operator] = approved */\n      0x0100\n      exp\n      dup2\n      sload\n      dup2\n      0xff\n      mul\n      not\n      and\n      swap1\n      dup4\n      iszero\n      iszero\n      mul\n      or\n      swap1\n      sstore\n      pop\n        /* \"contract/token/ERC721.sol\":12458:12466  operator */\n      dup2\n        /* \"contract/token/ERC721.sol\":12436:12477  ApprovalForAll(owner, operator, approved) */\n      0xffffffffffffffffffffffffffffffffffffffff\n      and\n        /* \"contract/token/ERC721.sol\":12451:12456  owner */\n      dup4\n        /* \"contract/token/ERC721.sol\":12436:12477  ApprovalForAll(owner, operator, approved) */\n      0xffffffffffffffffffffffffffffffffffffffff\n      and\n      0x17307eab39ab6107e8899845ad3d59bd9653f200f220920489ca2b5937696c31\n        /* \"contract/token/ERC721.sol\":12468:12476  approved */\n      dup4\n        /* \"contract/token/ERC721.sol\":12436:12477  ApprovalForAll(owner, operator, approved) */\n      mload(0x40)\n      tag_206\n      swap2\n      swap1\n      tag_25\n      jump\t// in\n    tag_206:\n      mload(0x40)\n      dup1\n      swap2\n      sub\n      swap1\n      log3\n        /* \"contract/token/ERC721.sol\":12170:12485  function _setApprovalForAll(\r... */\n      pop\n      pop\n      pop\n      jump\t// out\n        /* \"contract/token/ERC721.sol\":7084:7397  function _safeTransfer(\r... */\n    tag_155:\n        /* \"contract/token/ERC721.sol\":7240:7268  _transfer(from, to, tokenId) */\n      tag_208\n        /* \"contract/token/ERC721.sol\":7250:7254  from */\n      dup5\n        /* \"contract/token/ERC721.sol\":7256:7258  to */\n      dup5\n        /* \"contract/token/ERC721.sol\":7260:7267  tokenId */\n      dup5\n        /* \"contract/token/ERC721.sol\":7240:7249  _transfer */\n      tag_123\n        /* \"contract/token/ERC721.sol\":7240:7268  _transfer(from, to, tokenId) */\n      jump\t// in\n    tag_208:\n        /* \"contract/token/ERC721.sol\":7287:7334  _checkOnERC721Received(from, to, tokenId, data) */\n      tag_209\n        /* \"contract/token/ERC721.sol\":7310:7314  from */\n      dup5\n        /* \"contract/token/ERC721.sol\":7316:7318  to */\n      dup5\n        /* \"contract/token/ERC721.sol\":7320:7327  tokenId */\n      dup5\n        /* \"contract/token/ERC721.sol\":7329:7333  data */\n      dup5\n        /* \"contract/token/ERC721.sol\":7287:7309  _checkOnERC721Received */\n      tag_210\n        /* \"contract/token/ERC721.sol\":7287:7334  _checkOnERC721Received(from, to, tokenId, data) */\n      jump\t// in\n    tag_209:\n        /* \"contract/token/ERC721.sol\":7279:7389  require(_checkOnERC721Received(from, to, tokenId, data), \"ERC721: transfer to non ERC721Receiver implementer\") */\n      tag_211\n      jumpi\n      mload(0x40)\n      0x08c379a000000000000000000000000000000000000000000000000000000000\n      dup2\n      mstore\n      0x04\n      add\n      tag_212\n      swap1\n      tag_213\n      jump\t// in\n    tag_212:\n      mload(0x40)\n      dup1\n      swap2\n      sub\n      swap1\n      revert\n    tag_211:\n        /* \"contract/token/ERC721.sol\":7084:7397  function _safeTransfer(\r... */\n      pop\n      pop\n      pop\n      pop\n      jump\t// out\n        /* \"contract/token/ERC721.sol\":3828:3922  function _baseURI() internal view virtual returns (string memory) {\r... */\n    tag_162:\n        /* \"contract/token/ERC721.sol\":3879:3892  string memory */\n      0x60\n        /* \"contract/token/ERC721.sol\":3905:3914  return \"\" */\n      mload(0x40)\n      dup1\n      0x20\n      add\n      0x40\n      mstore\n      dup1\n      0x00\n      dup2\n      mstore\n      pop\n      swap1\n      pop\n        /* \"contract/token/ERC721.sol\":3828:3922  function _baseURI() internal view virtual returns (string memory) {\r... */\n      swap1\n      jump\t// out\n        /* \"utils/Strings.sol\":342:1065  function toString(uint256 value) internal pure returns (string memory) {\r... */\n    tag_166:\n        /* \"utils/Strings.sol\":398:411  string memory */\n      0x60\n        /* \"utils/Strings.sol\":628:629  0 */\n      0x00\n        /* \"utils/Strings.sol\":619:624  value */\n      dup3\n        /* \"utils/Strings.sol\":619:629  value == 0 */\n      eq\n        /* \"utils/Strings.sol\":615:668  if (value == 0) {\r... */\n      iszero\n      tag_216\n      jumpi\n        /* \"utils/Strings.sol\":646:656  return \"0\" */\n      mload(0x40)\n      dup1\n      0x40\n      add\n      0x40\n      mstore\n      dup1\n      0x01\n      dup2\n      mstore\n      0x20\n      add\n      0x3000000000000000000000000000000000000000000000000000000000000000\n      dup2\n      mstore\n      pop\n      swap1\n      pop\n      jump(tag_215)\n        /* \"utils/Strings.sol\":615:668  if (value == 0) {\r... */\n    tag_216:\n        /* \"utils/Strings.sol\":678:690  uint256 temp */\n      0x00\n        /* \"utils/Strings.sol\":693:698  value */\n      dup3\n        /* \"utils/Strings.sol\":678:698  uint256 temp = value */\n      swap1\n      pop\n        /* \"utils/Strings.sol\":709:723  uint256 digits */\n      0x00\n        /* \"utils/Strings.sol\":734:812  while (temp != 0) {\r... */\n    tag_217:\n        /* \"utils/Strings.sol\":749:750  0 */\n      0x00\n        /* \"utils/Strings.sol\":741:745  temp */\n      dup3\n        /* \"utils/Strings.sol\":741:750  temp != 0 */\n      eq\n        /* \"utils/Strings.sol\":734:812  while (temp != 0) {\r... */\n      tag_218\n      jumpi\n        /* \"utils/Strings.sol\":767:775  digits++ */\n      dup1\n      dup1\n      tag_219\n      swap1\n      tag_220\n      jump\t// in\n    tag_219:\n      swap2\n      pop\n      pop\n        /* \"utils/Strings.sol\":798:800  10 */\n      0x0a\n        /* \"utils/Strings.sol\":790:800  temp /= 10 */\n      dup3\n      tag_221\n      swap2\n      swap1\n      tag_222\n      jump\t// in\n    tag_221:\n      swap2\n      pop\n        /* \"utils/Strings.sol\":734:812  while (temp != 0) {\r... */\n      jump(tag_217)\n    tag_218:\n        /* \"utils/Strings.sol\":822:841  bytes memory buffer */\n      0x00\n        /* \"utils/Strings.sol\":854:860  digits */\n      dup2\n        /* \"utils/Strings.sol\":844:861  new bytes(digits) */\n      0xffffffffffffffff\n      dup2\n      gt\n      iszero\n      tag_223\n      jumpi\n      tag_224\n      tag_225\n      jump\t// in\n    tag_224:\n    tag_223:\n      mload(0x40)\n      swap1\n      dup1\n      dup3\n      mstore\n      dup1\n      0x1f\n      add\n      not(0x1f)\n      and\n      0x20\n      add\n      dup3\n      add\n      0x40\n      mstore\n      dup1\n      iszero\n      tag_226\n      jumpi\n      dup2\n      0x20\n      add\n      0x01\n      dup3\n      mul\n      dup1\n      calldatasize\n      dup4\n      calldatacopy\n      dup1\n      dup3\n      add\n      swap2\n      pop\n      pop\n      swap1\n      pop\n    tag_226:\n      pop\n        /* \"utils/Strings.sol\":822:861  bytes memory buffer = new bytes(digits) */\n      swap1\n      pop\n        /* \"utils/Strings.sol\":872:1026  while (value != 0) {\r... */\n    tag_227:\n        /* \"utils/Strings.sol\":888:889  0 */\n      0x00\n        /* \"utils/Strings.sol\":879:884  value */\n      dup6\n        /* \"utils/Strings.sol\":879:889  value != 0 */\n      eq\n        /* \"utils/Strings.sol\":872:1026  while (value != 0) {\r... */\n      tag_228\n      jumpi\n        /* \"utils/Strings.sol\":916:917  1 */\n      0x01\n        /* \"utils/Strings.sol\":906:917  digits -= 1 */\n      dup3\n      tag_229\n      swap2\n      swap1\n      tag_197\n      jump\t// in\n    tag_229:\n      swap2\n      pop\n        /* \"utils/Strings.sol\":983:985  10 */\n      0x0a\n        /* \"utils/Strings.sol\":975:980  value */\n      dup6\n        /* \"utils/Strings.sol\":975:985  value % 10 */\n      tag_230\n      swap2\n      swap1\n      tag_231\n      jump\t// in\n    tag_230:\n        /* \"utils/Strings.sol\":962:964  48 */\n      0x30\n        /* \"utils/Strings.sol\":962:986  48 + uint256(value % 10) */\n      tag_232\n      swap2\n      swap1\n      tag_199\n      jump\t// in\n    tag_232:\n        /* \"utils/Strings.sol\":949:988  bytes1(uint8(48 + uint256(value % 10))) */\n      0xf8\n      shl\n        /* \"utils/Strings.sol\":932:938  buffer */\n      dup2\n        /* \"utils/Strings.sol\":939:945  digits */\n      dup4\n        /* \"utils/Strings.sol\":932:946  buffer[digits] */\n      dup2\n      mload\n      dup2\n      lt\n      tag_233\n      jumpi\n      tag_234\n      tag_235\n      jump\t// in\n    tag_234:\n    tag_233:\n      0x20\n      add\n      add\n        /* \"utils/Strings.sol\":932:988  buffer[digits] = bytes1(uint8(48 + uint256(value % 10))) */\n      swap1\n      not(0xffffffffffffffffffffffffffffffffffffffffffffffffffffffffffffff)\n      and\n      swap1\n      dup2\n      0x00\n      byte\n      swap1\n      mstore8\n      pop\n        /* \"utils/Strings.sol\":1012:1014  10 */\n      0x0a\n        /* \"utils/Strings.sol\":1003:1014  value /= 10 */\n      dup6\n      tag_236\n      swap2\n      swap1\n      tag_222\n      jump\t// in\n    tag_236:\n      swap5\n      pop\n        /* \"utils/Strings.sol\":872:1026  while (value != 0) {\r... */\n      jump(tag_227)\n    tag_228:\n        /* \"utils/Strings.sol\":1050:1056  buffer */\n      dup1\n        /* \"utils/Strings.sol\":1036:1057  return string(buffer) */\n      swap4\n      pop\n      pop\n      pop\n      pop\n        /* \"utils/Strings.sol\":342:1065  function toString(uint256 value) internal pure returns (string memory) {\r... */\n    tag_215:\n      swap2\n      swap1\n      pop\n      jump\t// out\n        /* \"contract/token/ERC721.sol\":14418:14544  function _beforeTokenTransfer(\r... */\n    tag_194:\n      pop\n      pop\n      pop\n      jump\t// out\n        /* \"contract/token/ERC721.sol\":14929:15054  function _afterTokenTransfer(\r... */\n    tag_201:\n      pop\n      pop\n      pop\n      jump\t// out\n        /* \"contract/token/ERC721.sol\":13049:13846  function _checkOnERC721Received(\r... */\n    tag_210:\n        /* \"contract/token/ERC721.sol\":13203:13207  bool */\n      0x00\n        /* \"contract/token/ERC721.sol\":13224:13239  to.isContract() */\n      tag_240\n        /* \"contract/token/ERC721.sol\":13224:13226  to */\n      dup5\n        /* \"contract/token/ERC721.sol\":13224:13237  to.isContract */\n      0xffffffffffffffffffffffffffffffffffffffff\n      and\n      tag_241\n        /* \"contract/token/ERC721.sol\":13224:13239  to.isContract() */\n      jump\t// in\n    tag_240:\n        /* \"contract/token/ERC721.sol\":13220:13839  if (to.isContract()) {\r... */\n      iszero\n      tag_242\n      jumpi\n        /* \"contract/token/ERC721.sol\":13276:13278  to */\n      dup4\n        /* \"contract/token/ERC721.sol\":13260:13296  IERC721Receiver(to).onERC721Received */\n      0xffffffffffffffffffffffffffffffffffffffff\n      and\n      0x150b7a02\n        /* \"contract/token/ERC721.sol\":13297:13309  _msgSender() */\n      tag_243\n        /* \"contract/token/ERC721.sol\":13297:13307  _msgSender */\n      tag_106\n        /* \"contract/token/ERC721.sol\":13297:13309  _msgSender() */\n      jump\t// in\n    tag_243:\n        /* \"contract/token/ERC721.sol\":13311:13315  from */\n      dup8\n        /* \"contract/token/ERC721.sol\":13317:13324  tokenId */\n      dup7\n        /* \"contract/token/ERC721.sol\":13326:13330  data */\n      dup7\n        /* \"contract/token/ERC721.sol\":13260:13331  IERC721Receiver(to).onERC721Received(_msgSender(), from, tokenId, data) */\n      mload(0x40)\n      dup6\n      0xffffffff\n      and\n      0xe0\n      shl\n      dup2\n      mstore\n      0x04\n      add\n      tag_244\n      swap5\n      swap4\n      swap3\n      swap2\n      swap1\n      tag_245\n      jump\t// in\n    tag_244:\n      0x20\n      mload(0x40)\n      dup1\n      dup4\n      sub\n      dup2\n      0x00\n      dup8\n      dup1\n      extcodesize\n      iszero\n      dup1\n      iszero\n      tag_246\n      jumpi\n      0x00\n      dup1\n      revert\n    tag_246:\n      pop\n      gas\n      call\n      swap3\n      pop\n      pop\n      pop\n      dup1\n      iszero\n      tag_247\n      jumpi\n      pop\n      mload(0x40)\n      returndatasize\n      not(0x1f)\n      0x1f\n      dup3\n      add\n      and\n      dup3\n      add\n      dup1\n      0x40\n      mstore\n      pop\n      dup2\n      add\n      swap1\n      tag_248\n      swap2\n      swap1\n      tag_249\n      jump\t// in\n    tag_248:\n      0x01\n    tag_247:\n        /* \"contract/token/ERC721.sol\":13256:13784  try IERC721Receiver(to).onERC721Received(_msgSender(), from, tokenId, data) returns (bytes4 retval) {\r... */\n      tag_250\n      jumpi\n      returndatasize\n      dup1\n      0x00\n      dup2\n      eq\n      tag_255\n      jumpi\n      mload(0x40)\n      swap2\n      pop\n      and(add(returndatasize, 0x3f), not(0x1f))\n      dup3\n      add\n      0x40\n      mstore\n      returndatasize\n      dup3\n      mstore\n      returndatasize\n      0x00\n      0x20\n      dup5\n      add\n      returndatacopy\n      jump(tag_254)\n    tag_255:\n      0x60\n      swap2\n      pop\n    tag_254:\n      pop\n        /* \"contract/token/ERC721.sol\":13518:13519  0 */\n      0x00\n        /* \"contract/token/ERC721.sol\":13501:13507  reason */\n      dup2\n        /* \"contract/token/ERC721.sol\":13501:13514  reason.length */\n      mload\n        /* \"contract/token/ERC721.sol\":13501:13519  reason.length == 0 */\n      eq\n        /* \"contract/token/ERC721.sol\":13497:13769  if (reason.length == 0) {\r... */\n      iszero\n      tag_256\n      jumpi\n        /* \"contract/token/ERC721.sol\":13544:13604  revert(\"ERC721: transfer to non ERC721Receiver implementer\") */\n      mload(0x40)\n      0x08c379a000000000000000000000000000000000000000000000000000000000\n      dup2\n      mstore\n      0x04\n      add\n      tag_257\n      swap1\n      tag_213\n      jump\t// in\n    tag_257:\n      mload(0x40)\n      dup1\n      swap2\n      sub\n      swap1\n      revert\n        /* \"contract/token/ERC721.sol\":13497:13769  if (reason.length == 0) {\r... */\n    tag_256:\n        /* \"contract/token/ERC721.sol\":13719:13725  reason */\n      dup1\n        /* \"contract/token/ERC721.sol\":13713:13726  mload(reason) */\n      mload\n        /* \"contract/token/ERC721.sol\":13704:13710  reason */\n      dup2\n        /* \"contract/token/ERC721.sol\":13700:13702  32 */\n      0x20\n        /* \"contract/token/ERC721.sol\":13696:13711  add(32, reason) */\n      add\n        /* \"contract/token/ERC721.sol\":13689:13727  revert(add(32, reason), mload(reason)) */\n      revert\n        /* \"contract/token/ERC721.sol\":13256:13784  try IERC721Receiver(to).onERC721Received(_msgSender(), from, tokenId, data) returns (bytes4 retval) {\r... */\n    tag_250:\n        /* \"contract/token/ERC721.sol\":13392:13433  IERC721Receiver.onERC721Received.selector */\n      shl(0xe0, 0x150b7a02)\n        /* \"contract/token/ERC721.sol\":13382:13433  retval == IERC721Receiver.onERC721Received.selector */\n      not(0xffffffffffffffffffffffffffffffffffffffffffffffffffffffff)\n      and\n        /* \"contract/token/ERC721.sol\":13382:13388  retval */\n      dup2\n        /* \"contract/token/ERC721.sol\":13382:13433  retval == IERC721Receiver.onERC721Received.selector */\n      not(0xffffffffffffffffffffffffffffffffffffffffffffffffffffffff)\n      and\n      eq\n        /* \"contract/token/ERC721.sol\":13375:13433  return retval == IERC721Receiver.onERC721Received.selector */\n      swap2\n      pop\n      pop\n      jump(tag_239)\n        /* \"contract/token/ERC721.sol\":13220:13839  if (to.isContract()) {\r... */\n    tag_242:\n        /* \"contract/token/ERC721.sol\":13823:13827  true */\n      0x01\n        /* \"contract/token/ERC721.sol\":13816:13827  return true */\n      swap1\n      pop\n        /* \"contract/token/ERC721.sol\":13049:13846  function _checkOnERC721Received(\r... */\n    tag_239:\n      swap5\n      swap4\n      pop\n      pop\n      pop\n      pop\n      jump\t// out\n        /* \"utils/Address.sol\":1210:1536  function isContract(address account) internal view returns (bool) {\r... */\n    tag_241:\n        /* \"utils/Address.sol\":1270:1274  bool */\n      0x00\n        /* \"utils/Address.sol\":1527:1528  0 */\n      dup1\n        /* \"utils/Address.sol\":1505:1512  account */\n      dup3\n        /* \"utils/Address.sol\":1505:1524  account.code.length */\n      0xffffffffffffffffffffffffffffffffffffffff\n      and\n      extcodesize\n        /* \"utils/Address.sol\":1505:1528  account.code.length > 0 */\n      gt\n        /* \"utils/Address.sol\":1498:1528  return account.code.length > 0 */\n      swap1\n      pop\n        /* \"utils/Address.sol\":1210:1536  function isContract(address account) internal view returns (bool) {\r... */\n      swap2\n      swap1\n      pop\n      jump\t// out\n        /* \"#utility.yul\":7:417   */\n    tag_263:\n        /* \"#utility.yul\":84:89   */\n      0x00\n        /* \"#utility.yul\":109:174   */\n      tag_265\n        /* \"#utility.yul\":125:173   */\n      tag_266\n        /* \"#utility.yul\":166:172   */\n      dup5\n        /* \"#utility.yul\":125:173   */\n      tag_267\n      jump\t// in\n    tag_266:\n        /* \"#utility.yul\":109:174   */\n      tag_268\n      jump\t// in\n    tag_265:\n        /* \"#utility.yul\":100:174   */\n      swap1\n      pop\n        /* \"#utility.yul\":197:203   */\n      dup3\n        /* \"#utility.yul\":190:195   */\n      dup2\n        /* \"#utility.yul\":183:204   */\n      mstore\n        /* \"#utility.yul\":235:239   */\n      0x20\n        /* \"#utility.yul\":228:233   */\n      dup2\n        /* \"#utility.yul\":224:240   */\n      add\n        /* \"#utility.yul\":273:276   */\n      dup5\n        /* \"#utility.yul\":264:270   */\n      dup5\n        /* \"#utility.yul\":259:262   */\n      dup5\n        /* \"#utility.yul\":255:271   */\n      add\n        /* \"#utility.yul\":252:277   */\n      gt\n        /* \"#utility.yul\":249:361   */\n      iszero\n      tag_269\n      jumpi\n        /* \"#utility.yul\":280:359   */\n      tag_270\n      tag_271\n      jump\t// in\n    tag_270:\n        /* \"#utility.yul\":249:361   */\n    tag_269:\n        /* \"#utility.yul\":370:411   */\n      tag_272\n        /* \"#utility.yul\":404:410   */\n      dup5\n        /* \"#utility.yul\":399:402   */\n      dup3\n        /* \"#utility.yul\":394:397   */\n      dup6\n        /* \"#utility.yul\":370:411   */\n      tag_273\n      jump\t// in\n    tag_272:\n        /* \"#utility.yul\":90:417   */\n      pop\n        /* \"#utility.yul\":7:417   */\n      swap4\n      swap3\n      pop\n      pop\n      pop\n      jump\t// out\n        /* \"#utility.yul\":423:562   */\n    tag_274:\n        /* \"#utility.yul\":469:474   */\n      0x00\n        /* \"#utility.yul\":507:513   */\n      dup2\n        /* \"#utility.yul\":494:514   */\n      calldataload\n        /* \"#utility.yul\":485:514   */\n      swap1\n      pop\n        /* \"#utility.yul\":523:556   */\n      tag_276\n        /* \"#utility.yul\":550:555   */\n      dup2\n        /* \"#utility.yul\":523:556   */\n      tag_277\n      jump\t// in\n    tag_276:\n        /* \"#utility.yul\":423:562   */\n      swap3\n      swap2\n      pop\n      pop\n      jump\t// out\n        /* \"#utility.yul\":568:701   */\n    tag_278:\n        /* \"#utility.yul\":611:616   */\n      0x00\n        /* \"#utility.yul\":649:655   */\n      dup2\n        /* \"#utility.yul\":636:656   */\n      calldataload\n        /* \"#utility.yul\":627:656   */\n      swap1\n      pop\n        /* \"#utility.yul\":665:695   */\n      tag_280\n        /* \"#utility.yul\":689:694   */\n      dup2\n        /* \"#utility.yul\":665:695   */\n      tag_281\n      jump\t// in\n    tag_280:\n        /* \"#utility.yul\":568:701   */\n      swap3\n      swap2\n      pop\n      pop\n      jump\t// out\n        /* \"#utility.yul\":707:844   */\n    tag_282:\n        /* \"#utility.yul\":752:757   */\n      0x00\n        /* \"#utility.yul\":790:796   */\n      dup2\n        /* \"#utility.yul\":777:797   */\n      calldataload\n        /* \"#utility.yul\":768:797   */\n      swap1\n      pop\n        /* \"#utility.yul\":806:838   */\n      tag_284\n        /* \"#utility.yul\":832:837   */\n      dup2\n        /* \"#utility.yul\":806:838   */\n      tag_285\n      jump\t// in\n    tag_284:\n        /* \"#utility.yul\":707:844   */\n      swap3\n      swap2\n      pop\n      pop\n      jump\t// out\n        /* \"#utility.yul\":850:991   */\n    tag_286:\n        /* \"#utility.yul\":906:911   */\n      0x00\n        /* \"#utility.yul\":937:943   */\n      dup2\n        /* \"#utility.yul\":931:944   */\n      mload\n        /* \"#utility.yul\":922:944   */\n      swap1\n      pop\n        /* \"#utility.yul\":953:985   */\n      tag_288\n        /* \"#utility.yul\":979:984   */\n      dup2\n        /* \"#utility.yul\":953:985   */\n      tag_285\n      jump\t// in\n    tag_288:\n        /* \"#utility.yul\":850:991   */\n      swap3\n      swap2\n      pop\n      pop\n      jump\t// out\n        /* \"#utility.yul\":1010:1348   */\n    tag_289:\n        /* \"#utility.yul\":1065:1070   */\n      0x00\n        /* \"#utility.yul\":1114:1117   */\n      dup3\n        /* \"#utility.yul\":1107:1111   */\n      0x1f\n        /* \"#utility.yul\":1099:1105   */\n      dup4\n        /* \"#utility.yul\":1095:1112   */\n      add\n        /* \"#utility.yul\":1091:1118   */\n      slt\n        /* \"#utility.yul\":1081:1203   */\n      tag_291\n      jumpi\n        /* \"#utility.yul\":1122:1201   */\n      tag_292\n      tag_293\n      jump\t// in\n    tag_292:\n        /* \"#utility.yul\":1081:1203   */\n    tag_291:\n        /* \"#utility.yul\":1239:1245   */\n      dup2\n        /* \"#utility.yul\":1226:1246   */\n      calldataload\n        /* \"#utility.yul\":1264:1342   */\n      tag_294\n        /* \"#utility.yul\":1338:1341   */\n      dup5\n        /* \"#utility.yul\":1330:1336   */\n      dup3\n        /* \"#utility.yul\":1323:1327   */\n      0x20\n        /* \"#utility.yul\":1315:1321   */\n      dup7\n        /* \"#utility.yul\":1311:1328   */\n      add\n        /* \"#utility.yul\":1264:1342   */\n      tag_263\n      jump\t// in\n    tag_294:\n        /* \"#utility.yul\":1255:1342   */\n      swap2\n      pop\n        /* \"#utility.yul\":1071:1348   */\n      pop\n        /* \"#utility.yul\":1010:1348   */\n      swap3\n      swap2\n      pop\n      pop\n      jump\t// out\n        /* \"#utility.yul\":1354:1493   */\n    tag_295:\n        /* \"#utility.yul\":1400:1405   */\n      0x00\n        /* \"#utility.yul\":1438:1444   */\n      dup2\n        /* \"#utility.yul\":1425:1445   */\n      calldataload\n        /* \"#utility.yul\":1416:1445   */\n      swap1\n      pop\n        /* \"#utility.yul\":1454:1487   */\n      tag_297\n        /* \"#utility.yul\":1481:1486   */\n      dup2\n        /* \"#utility.yul\":1454:1487   */\n      tag_298\n      jump\t// in\n    tag_297:\n        /* \"#utility.yul\":1354:1493   */\n      swap3\n      swap2\n      pop\n      pop\n      jump\t// out\n        /* \"#utility.yul\":1499:1828   */\n    tag_53:\n        /* \"#utility.yul\":1558:1564   */\n      0x00\n        /* \"#utility.yul\":1607:1609   */\n      0x20\n        /* \"#utility.yul\":1595:1604   */\n      dup3\n        /* \"#utility.yul\":1586:1593   */\n      dup5\n        /* \"#utility.yul\":1582:1605   */\n      sub\n        /* \"#utility.yul\":1578:1610   */\n      slt\n        /* \"#utility.yul\":1575:1694   */\n      iszero\n      tag_300\n      jumpi\n        /* \"#utility.yul\":1613:1692   */\n      tag_301\n      tag_302\n      jump\t// in\n    tag_301:\n        /* \"#utility.yul\":1575:1694   */\n    tag_300:\n        /* \"#utility.yul\":1733:1734   */\n      0x00\n        /* \"#utility.yul\":1758:1811   */\n      tag_303\n        /* \"#utility.yul\":1803:1810   */\n      dup5\n        /* \"#utility.yul\":1794:1800   */\n      dup3\n        /* \"#utility.yul\":1783:1792   */\n      dup6\n        /* \"#utility.yul\":1779:1801   */\n      add\n        /* \"#utility.yul\":1758:1811   */\n      tag_274\n      jump\t// in\n    tag_303:\n        /* \"#utility.yul\":1748:1811   */\n      swap2\n      pop\n        /* \"#utility.yul\":1704:1821   */\n      pop\n        /* \"#utility.yul\":1499:1828   */\n      swap3\n      swap2\n      pop\n      pop\n      jump\t// out\n        /* \"#utility.yul\":1834:2308   */\n    tag_79:\n        /* \"#utility.yul\":1902:1908   */\n      0x00\n        /* \"#utility.yul\":1910:1916   */\n      dup1\n        /* \"#utility.yul\":1959:1961   */\n      0x40\n        /* \"#utility.yul\":1947:1956   */\n      dup4\n        /* \"#utility.yul\":1938:1945   */\n      dup6\n        /* \"#utility.yul\":1934:1957   */\n      sub\n        /* \"#utility.yul\":1930:1962   */\n      slt\n        /* \"#utility.yul\":1927:2046   */\n      iszero\n      tag_305\n      jumpi\n        /* \"#utility.yul\":1965:2044   */\n      tag_306\n      tag_302\n      jump\t// in\n    tag_306:\n        /* \"#utility.yul\":1927:2046   */\n    tag_305:\n        /* \"#utility.yul\":2085:2086   */\n      0x00\n        /* \"#utility.yul\":2110:2163   */\n      tag_307\n        /* \"#utility.yul\":2155:2162   */\n      dup6\n        /* \"#utility.yul\":2146:2152   */\n      dup3\n        /* \"#utility.yul\":2135:2144   */\n      dup7\n        /* \"#utility.yul\":2131:2153   */\n      add\n        /* \"#utility.yul\":2110:2163   */\n      tag_274\n      jump\t// in\n    tag_307:\n        /* \"#utility.yul\":2100:2163   */\n      swap3\n      pop\n        /* \"#utility.yul\":2056:2173   */\n      pop\n        /* \"#utility.yul\":2212:2214   */\n      0x20\n        /* \"#utility.yul\":2238:2291   */\n      tag_308\n        /* \"#utility.yul\":2283:2290   */\n      dup6\n        /* \"#utility.yul\":2274:2280   */\n      dup3\n        /* \"#utility.yul\":2263:2272   */\n      dup7\n        /* \"#utility.yul\":2259:2281   */\n      add\n        /* \"#utility.yul\":2238:2291   */\n      tag_274\n      jump\t// in\n    tag_308:\n        /* \"#utility.yul\":2228:2291   */\n      swap2\n      pop\n        /* \"#utility.yul\":2183:2301   */\n      pop\n        /* \"#utility.yul\":1834:2308   */\n      swap3\n      pop\n      swap3\n      swap1\n      pop\n      jump\t// out\n        /* \"#utility.yul\":2314:2933   */\n    tag_42:\n        /* \"#utility.yul\":2391:2397   */\n      0x00\n        /* \"#utility.yul\":2399:2405   */\n      dup1\n        /* \"#utility.yul\":2407:2413   */\n      0x00\n        /* \"#utility.yul\":2456:2458   */\n      0x60\n        /* \"#utility.yul\":2444:2453   */\n      dup5\n        /* \"#utility.yul\":2435:2442   */\n      dup7\n        /* \"#utility.yul\":2431:2454   */\n      sub\n        /* \"#utility.yul\":2427:2459   */\n      slt\n        /* \"#utility.yul\":2424:2543   */\n      iszero\n      tag_310\n      jumpi\n        /* \"#utility.yul\":2462:2541   */\n      tag_311\n      tag_302\n      jump\t// in\n    tag_311:\n        /* \"#utility.yul\":2424:2543   */\n    tag_310:\n        /* \"#utility.yul\":2582:2583   */\n      0x00\n        /* \"#utility.yul\":2607:2660   */\n      tag_312\n        /* \"#utility.yul\":2652:2659   */\n      dup7\n        /* \"#utility.yul\":2643:2649   */\n      dup3\n        /* \"#utility.yul\":2632:2641   */\n      dup8\n        /* \"#utility.yul\":2628:2650   */\n      add\n        /* \"#utility.yul\":2607:2660   */\n      tag_274\n      jump\t// in\n    tag_312:\n        /* \"#utility.yul\":2597:2660   */\n      swap4\n      pop\n        /* \"#utility.yul\":2553:2670   */\n      pop\n        /* \"#utility.yul\":2709:2711   */\n      0x20\n        /* \"#utility.yul\":2735:2788   */\n      tag_313\n        /* \"#utility.yul\":2780:2787   */\n      dup7\n        /* \"#utility.yul\":2771:2777   */\n      dup3\n        /* \"#utility.yul\":2760:2769   */\n      dup8\n        /* \"#utility.yul\":2756:2778   */\n      add\n        /* \"#utility.yul\":2735:2788   */\n      tag_274\n      jump\t// in\n    tag_313:\n        /* \"#utility.yul\":2725:2788   */\n      swap3\n      pop\n        /* \"#utility.yul\":2680:2798   */\n      pop\n        /* \"#utility.yul\":2837:2839   */\n      0x40\n        /* \"#utility.yul\":2863:2916   */\n      tag_314\n        /* \"#utility.yul\":2908:2915   */\n      dup7\n        /* \"#utility.yul\":2899:2905   */\n      dup3\n        /* \"#utility.yul\":2888:2897   */\n      dup8\n        /* \"#utility.yul\":2884:2906   */\n      add\n        /* \"#utility.yul\":2863:2916   */\n      tag_295\n      jump\t// in\n    tag_314:\n        /* \"#utility.yul\":2853:2916   */\n      swap2\n      pop\n        /* \"#utility.yul\":2808:2926   */\n      pop\n        /* \"#utility.yul\":2314:2933   */\n      swap3\n      pop\n      swap3\n      pop\n      swap3\n      jump\t// out\n        /* \"#utility.yul\":2939:3882   */\n    tag_71:\n        /* \"#utility.yul\":3034:3040   */\n      0x00\n        /* \"#utility.yul\":3042:3048   */\n      dup1\n        /* \"#utility.yul\":3050:3056   */\n      0x00\n        /* \"#utility.yul\":3058:3064   */\n      dup1\n        /* \"#utility.yul\":3107:3110   */\n      0x80\n        /* \"#utility.yul\":3095:3104   */\n      dup6\n        /* \"#utility.yul\":3086:3093   */\n      dup8\n        /* \"#utility.yul\":3082:3105   */\n      sub\n        /* \"#utility.yul\":3078:3111   */\n      slt\n        /* \"#utility.yul\":3075:3195   */\n      iszero\n      tag_316\n      jumpi\n        /* \"#utility.yul\":3114:3193   */\n      tag_317\n      tag_302\n      jump\t// in\n    tag_317:\n        /* \"#utility.yul\":3075:3195   */\n    tag_316:\n        /* \"#utility.yul\":3234:3235   */\n      0x00\n        /* \"#utility.yul\":3259:3312   */\n      tag_318\n        /* \"#utility.yul\":3304:3311   */\n      dup8\n        /* \"#utility.yul\":3295:3301   */\n      dup3\n        /* \"#utility.yul\":3284:3293   */\n      dup9\n        /* \"#utility.yul\":3280:3302   */\n      add\n        /* \"#utility.yul\":3259:3312   */\n      tag_274\n      jump\t// in\n    tag_318:\n        /* \"#utility.yul\":3249:3312   */\n      swap5\n      pop\n        /* \"#utility.yul\":3205:3322   */\n      pop\n        /* \"#utility.yul\":3361:3363   */\n      0x20\n        /* \"#utility.yul\":3387:3440   */\n      tag_319\n        /* \"#utility.yul\":3432:3439   */\n      dup8\n        /* \"#utility.yul\":3423:3429   */\n      dup3\n        /* \"#utility.yul\":3412:3421   */\n      dup9\n        /* \"#utility.yul\":3408:3430   */\n      add\n        /* \"#utility.yul\":3387:3440   */\n      tag_274\n      jump\t// in\n    tag_319:\n        /* \"#utility.yul\":3377:3440   */\n      swap4\n      pop\n        /* \"#utility.yul\":3332:3450   */\n      pop\n        /* \"#utility.yul\":3489:3491   */\n      0x40\n        /* \"#utility.yul\":3515:3568   */\n      tag_320\n        /* \"#utility.yul\":3560:3567   */\n      dup8\n        /* \"#utility.yul\":3551:3557   */\n      dup3\n        /* \"#utility.yul\":3540:3549   */\n      dup9\n        /* \"#utility.yul\":3536:3558   */\n      add\n        /* \"#utility.yul\":3515:3568   */\n      tag_295\n      jump\t// in\n    tag_320:\n        /* \"#utility.yul\":3505:3568   */\n      swap3\n      pop\n        /* \"#utility.yul\":3460:3578   */\n      pop\n        /* \"#utility.yul\":3645:3647   */\n      0x60\n        /* \"#utility.yul\":3634:3643   */\n      dup6\n        /* \"#utility.yul\":3630:3648   */\n      add\n        /* \"#utility.yul\":3617:3649   */\n      calldataload\n        /* \"#utility.yul\":3676:3694   */\n      0xffffffffffffffff\n        /* \"#utility.yul\":3668:3674   */\n      dup2\n        /* \"#utility.yul\":3665:3695   */\n      gt\n        /* \"#utility.yul\":3662:3779   */\n      iszero\n      tag_321\n      jumpi\n        /* \"#utility.yul\":3698:3777   */\n      tag_322\n      tag_323\n      jump\t// in\n    tag_322:\n        /* \"#utility.yul\":3662:3779   */\n    tag_321:\n        /* \"#utility.yul\":3803:3865   */\n      tag_324\n        /* \"#utility.yul\":3857:3864   */\n      dup8\n        /* \"#utility.yul\":3848:3854   */\n      dup3\n        /* \"#utility.yul\":3837:3846   */\n      dup9\n        /* \"#utility.yul\":3833:3855   */\n      add\n        /* \"#utility.yul\":3803:3865   */\n      tag_289\n      jump\t// in\n    tag_324:\n        /* \"#utility.yul\":3793:3865   */\n      swap2\n      pop\n        /* \"#utility.yul\":3588:3875   */\n      pop\n        /* \"#utility.yul\":2939:3882   */\n      swap3\n      swap6\n      swap2\n      swap5\n      pop\n      swap3\n      pop\n      jump\t// out\n        /* \"#utility.yul\":3888:4356   */\n    tag_62:\n        /* \"#utility.yul\":3953:3959   */\n      0x00\n        /* \"#utility.yul\":3961:3967   */\n      dup1\n        /* \"#utility.yul\":4010:4012   */\n      0x40\n        /* \"#utility.yul\":3998:4007   */\n      dup4\n        /* \"#utility.yul\":3989:3996   */\n      dup6\n        /* \"#utility.yul\":3985:4008   */\n      sub\n        /* \"#utility.yul\":3981:4013   */\n      slt\n        /* \"#utility.yul\":3978:4097   */\n      iszero\n      tag_326\n      jumpi\n        /* \"#utility.yul\":4016:4095   */\n      tag_327\n      tag_302\n      jump\t// in\n    tag_327:\n        /* \"#utility.yul\":3978:4097   */\n    tag_326:\n        /* \"#utility.yul\":4136:4137   */\n      0x00\n        /* \"#utility.yul\":4161:4214   */\n      tag_328\n        /* \"#utility.yul\":4206:4213   */\n      dup6\n        /* \"#utility.yul\":4197:4203   */\n      dup3\n        /* \"#utility.yul\":4186:4195   */\n      dup7\n        /* \"#utility.yul\":4182:4204   */\n      add\n        /* \"#utility.yul\":4161:4214   */\n      tag_274\n      jump\t// in\n    tag_328:\n        /* \"#utility.yul\":4151:4214   */\n      swap3\n      pop\n        /* \"#utility.yul\":4107:4224   */\n      pop\n        /* \"#utility.yul\":4263:4265   */\n      0x20\n        /* \"#utility.yul\":4289:4339   */\n      tag_329\n        /* \"#utility.yul\":4331:4338   */\n      dup6\n        /* \"#utility.yul\":4322:4328   */\n      dup3\n        /* \"#utility.yul\":4311:4320   */\n      dup7\n        /* \"#utility.yul\":4307:4329   */\n      add\n        /* \"#utility.yul\":4289:4339   */\n      tag_278\n      jump\t// in\n    tag_329:\n        /* \"#utility.yul\":4279:4339   */\n      swap2\n      pop\n        /* \"#utility.yul\":4234:4349   */\n      pop\n        /* \"#utility.yul\":3888:4356   */\n      swap3\n      pop\n      swap3\n      swap1\n      pop\n      jump\t// out\n        /* \"#utility.yul\":4362:4836   */\n    tag_38:\n        /* \"#utility.yul\":4430:4436   */\n      0x00\n        /* \"#utility.yul\":4438:4444   */\n      dup1\n        /* \"#utility.yul\":4487:4489   */\n      0x40\n        /* \"#utility.yul\":4475:4484   */\n      dup4\n        /* \"#utility.yul\":4466:4473   */\n      dup6\n        /* \"#utility.yul\":4462:4485   */\n      sub\n        /* \"#utility.yul\":4458:4490   */\n      slt\n        /* \"#utility.yul\":4455:4574   */\n      iszero\n      tag_331\n      jumpi\n        /* \"#utility.yul\":4493:4572   */\n      tag_332\n      tag_302\n      jump\t// in\n    tag_332:\n        /* \"#utility.yul\":4455:4574   */\n    tag_331:\n        /* \"#utility.yul\":4613:4614   */\n      0x00\n        /* \"#utility.yul\":4638:4691   */\n      tag_333\n        /* \"#utility.yul\":4683:4690   */\n      dup6\n        /* \"#utility.yul\":4674:4680   */\n      dup3\n        /* \"#utility.yul\":4663:4672   */\n      dup7\n        /* \"#utility.yul\":4659:4681   */\n      add\n        /* \"#utility.yul\":4638:4691   */\n      tag_274\n      jump\t// in\n    tag_333:\n        /* \"#utility.yul\":4628:4691   */\n      swap3\n      pop\n        /* \"#utility.yul\":4584:4701   */\n      pop\n        /* \"#utility.yul\":4740:4742   */\n      0x20\n        /* \"#utility.yul\":4766:4819   */\n      tag_334\n        /* \"#utility.yul\":4811:4818   */\n      dup6\n        /* \"#utility.yul\":4802:4808   */\n      dup3\n        /* \"#utility.yul\":4791:4800   */\n      dup7\n        /* \"#utility.yul\":4787:4809   */\n      add\n        /* \"#utility.yul\":4766:4819   */\n      tag_295\n      jump\t// in\n    tag_334:\n        /* \"#utility.yul\":4756:4819   */\n      swap2\n      pop\n        /* \"#utility.yul\":4711:4829   */\n      pop\n        /* \"#utility.yul\":4362:4836   */\n      swap3\n      pop\n      swap3\n      swap1\n      pop\n      jump\t// out\n        /* \"#utility.yul\":4842:5169   */\n    tag_22:\n        /* \"#utility.yul\":4900:4906   */\n      0x00\n        /* \"#utility.yul\":4949:4951   */\n      0x20\n        /* \"#utility.yul\":4937:4946   */\n      dup3\n        /* \"#utility.yul\":4928:4935   */\n      dup5\n        /* \"#utility.yul\":4924:4947   */\n      sub\n        /* \"#utility.yul\":4920:4952   */\n      slt\n        /* \"#utility.yul\":4917:5036   */\n      iszero\n      tag_336\n      jumpi\n        /* \"#utility.yul\":4955:5034   */\n      tag_337\n      tag_302\n      jump\t// in\n    tag_337:\n        /* \"#utility.yul\":4917:5036   */\n    tag_336:\n        /* \"#utility.yul\":5075:5076   */\n      0x00\n        /* \"#utility.yul\":5100:5152   */\n      tag_338\n        /* \"#utility.yul\":5144:5151   */\n      dup5\n        /* \"#utility.yul\":5135:5141   */\n      dup3\n        /* \"#utility.yul\":5124:5133   */\n      dup6\n        /* \"#utility.yul\":5120:5142   */\n      add\n        /* \"#utility.yul\":5100:5152   */\n      tag_282\n      jump\t// in\n    tag_338:\n        /* \"#utility.yul\":5090:5152   */\n      swap2\n      pop\n        /* \"#utility.yul\":5046:5162   */\n      pop\n        /* \"#utility.yul\":4842:5169   */\n      swap3\n      swap2\n      pop\n      pop\n      jump\t// out\n        /* \"#utility.yul\":5175:5524   */\n    tag_249:\n        /* \"#utility.yul\":5244:5250   */\n      0x00\n        /* \"#utility.yul\":5293:5295   */\n      0x20\n        /* \"#utility.yul\":5281:5290   */\n      dup3\n        /* \"#utility.yul\":5272:5279   */\n      dup5\n        /* \"#utility.yul\":5268:5291   */\n      sub\n        /* \"#utility.yul\":5264:5296   */\n      slt\n        /* \"#utility.yul\":5261:5380   */\n      iszero\n      tag_340\n      jumpi\n        /* \"#utility.yul\":5299:5378   */\n      tag_341\n      tag_302\n      jump\t// in\n    tag_341:\n        /* \"#utility.yul\":5261:5380   */\n    tag_340:\n        /* \"#utility.yul\":5419:5420   */\n      0x00\n        /* \"#utility.yul\":5444:5507   */\n      tag_342\n        /* \"#utility.yul\":5499:5506   */\n      dup5\n        /* \"#utility.yul\":5490:5496   */\n      dup3\n        /* \"#utility.yul\":5479:5488   */\n      dup6\n        /* \"#utility.yul\":5475:5497   */\n      add\n        /* \"#utility.yul\":5444:5507   */\n      tag_286\n      jump\t// in\n    tag_342:\n        /* \"#utility.yul\":5434:5507   */\n      swap2\n      pop\n        /* \"#utility.yul\":5390:5517   */\n      pop\n        /* \"#utility.yul\":5175:5524   */\n      swap3\n      swap2\n      pop\n      pop\n      jump\t// out\n        /* \"#utility.yul\":5530:5859   */\n    tag_32:\n        /* \"#utility.yul\":5589:5595   */\n      0x00\n        /* \"#utility.yul\":5638:5640   */\n      0x20\n        /* \"#utility.yul\":5626:5635   */\n      dup3\n        /* \"#utility.yul\":5617:5624   */\n      dup5\n        /* \"#utility.yul\":5613:5636   */\n      sub\n        /* \"#utility.yul\":5609:5641   */\n      slt\n        /* \"#utility.yul\":5606:5725   */\n      iszero\n      tag_344\n      jumpi\n        /* \"#utility.yul\":5644:5723   */\n      tag_345\n      tag_302\n      jump\t// in\n    tag_345:\n        /* \"#utility.yul\":5606:5725   */\n    tag_344:\n        /* \"#utility.yul\":5764:5765   */\n      0x00\n        /* \"#utility.yul\":5789:5842   */\n      tag_346\n        /* \"#utility.yul\":5834:5841   */\n      dup5\n        /* \"#utility.yul\":5825:5831   */\n      dup3\n        /* \"#utility.yul\":5814:5823   */\n      dup6\n        /* \"#utility.yul\":5810:5832   */\n      add\n        /* \"#utility.yul\":5789:5842   */\n      tag_295\n      jump\t// in\n    tag_346:\n        /* \"#utility.yul\":5779:5842   */\n      swap2\n      pop\n        /* \"#utility.yul\":5735:5852   */\n      pop\n        /* \"#utility.yul\":5530:5859   */\n      swap3\n      swap2\n      pop\n      pop\n      jump\t// out\n        /* \"#utility.yul\":5865:5983   */\n    tag_347:\n        /* \"#utility.yul\":5952:5976   */\n      tag_349\n        /* \"#utility.yul\":5970:5975   */\n      dup2\n        /* \"#utility.yul\":5952:5976   */\n      tag_350\n      jump\t// in\n    tag_349:\n        /* \"#utility.yul\":5947:5950   */\n      dup3\n        /* \"#utility.yul\":5940:5977   */\n      mstore\n        /* \"#utility.yul\":5865:5983   */\n      pop\n      pop\n      jump\t// out\n        /* \"#utility.yul\":5989:6098   */\n    tag_351:\n        /* \"#utility.yul\":6070:6091   */\n      tag_353\n        /* \"#utility.yul\":6085:6090   */\n      dup2\n        /* \"#utility.yul\":6070:6091   */\n      tag_354\n      jump\t// in\n    tag_353:\n        /* \"#utility.yul\":6065:6068   */\n      dup3\n        /* \"#utility.yul\":6058:6092   */\n      mstore\n        /* \"#utility.yul\":5989:6098   */\n      pop\n      pop\n      jump\t// out\n        /* \"#utility.yul\":6104:6464   */\n    tag_355:\n        /* \"#utility.yul\":6190:6193   */\n      0x00\n        /* \"#utility.yul\":6218:6256   */\n      tag_357\n        /* \"#utility.yul\":6250:6255   */\n      dup3\n        /* \"#utility.yul\":6218:6256   */\n      tag_358\n      jump\t// in\n    tag_357:\n        /* \"#utility.yul\":6272:6342   */\n      tag_359\n        /* \"#utility.yul\":6335:6341   */\n      dup2\n        /* \"#utility.yul\":6330:6333   */\n      dup6\n        /* \"#utility.yul\":6272:6342   */\n      tag_360\n      jump\t// in\n    tag_359:\n        /* \"#utility.yul\":6265:6342   */\n      swap4\n      pop\n        /* \"#utility.yul\":6351:6403   */\n      tag_361\n        /* \"#utility.yul\":6396:6402   */\n      dup2\n        /* \"#utility.yul\":6391:6394   */\n      dup6\n        /* \"#utility.yul\":6384:6388   */\n      0x20\n        /* \"#utility.yul\":6377:6382   */\n      dup7\n        /* \"#utility.yul\":6373:6389   */\n      add\n        /* \"#utility.yul\":6351:6403   */\n      tag_362\n      jump\t// in\n    tag_361:\n        /* \"#utility.yul\":6428:6457   */\n      tag_363\n        /* \"#utility.yul\":6450:6456   */\n      dup2\n        /* \"#utility.yul\":6428:6457   */\n      tag_364\n      jump\t// in\n    tag_363:\n        /* \"#utility.yul\":6423:6426   */\n      dup5\n        /* \"#utility.yul\":6419:6458   */\n      add\n        /* \"#utility.yul\":6412:6458   */\n      swap2\n      pop\n        /* \"#utility.yul\":6194:6464   */\n      pop\n        /* \"#utility.yul\":6104:6464   */\n      swap3\n      swap2\n      pop\n      pop\n      jump\t// out\n        /* \"#utility.yul\":6470:6834   */\n    tag_365:\n        /* \"#utility.yul\":6558:6561   */\n      0x00\n        /* \"#utility.yul\":6586:6625   */\n      tag_367\n        /* \"#utility.yul\":6619:6624   */\n      dup3\n        /* \"#utility.yul\":6586:6625   */\n      tag_368\n      jump\t// in\n    tag_367:\n        /* \"#utility.yul\":6641:6712   */\n      tag_369\n        /* \"#utility.yul\":6705:6711   */\n      dup2\n        /* \"#utility.yul\":6700:6703   */\n      dup6\n        /* \"#utility.yul\":6641:6712   */\n      tag_370\n      jump\t// in\n    tag_369:\n        /* \"#utility.yul\":6634:6712   */\n      swap4\n      pop\n        /* \"#utility.yul\":6721:6773   */\n      tag_371\n        /* \"#utility.yul\":6766:6772   */\n      dup2\n        /* \"#utility.yul\":6761:6764   */\n      dup6\n        /* \"#utility.yul\":6754:6758   */\n      0x20\n        /* \"#utility.yul\":6747:6752   */\n      dup7\n        /* \"#utility.yul\":6743:6759   */\n      add\n        /* \"#utility.yul\":6721:6773   */\n      tag_362\n      jump\t// in\n    tag_371:\n        /* \"#utility.yul\":6798:6827   */\n      tag_372\n        /* \"#utility.yul\":6820:6826   */\n      dup2\n        /* \"#utility.yul\":6798:6827   */\n      tag_364\n      jump\t// in\n    tag_372:\n        /* \"#utility.yul\":6793:6796   */\n      dup5\n        /* \"#utility.yul\":6789:6828   */\n      add\n        /* \"#utility.yul\":6782:6828   */\n      swap2\n      pop\n        /* \"#utility.yul\":6562:6834   */\n      pop\n        /* \"#utility.yul\":6470:6834   */\n      swap3\n      swap2\n      pop\n      pop\n      jump\t// out\n        /* \"#utility.yul\":6840:7217   */\n    tag_373:\n        /* \"#utility.yul\":6946:6949   */\n      0x00\n        /* \"#utility.yul\":6974:7013   */\n      tag_375\n        /* \"#utility.yul\":7007:7012   */\n      dup3\n        /* \"#utility.yul\":6974:7013   */\n      tag_368\n      jump\t// in\n    tag_375:\n        /* \"#utility.yul\":7029:7118   */\n      tag_376\n        /* \"#utility.yul\":7111:7117   */\n      dup2\n        /* \"#utility.yul\":7106:7109   */\n      dup6\n        /* \"#utility.yul\":7029:7118   */\n      tag_377\n      jump\t// in\n    tag_376:\n        /* \"#utility.yul\":7022:7118   */\n      swap4\n      pop\n        /* \"#utility.yul\":7127:7179   */\n      tag_378\n        /* \"#utility.yul\":7172:7178   */\n      dup2\n        /* \"#utility.yul\":7167:7170   */\n      dup6\n        /* \"#utility.yul\":7160:7164   */\n      0x20\n        /* \"#utility.yul\":7153:7158   */\n      dup7\n        /* \"#utility.yul\":7149:7165   */\n      add\n        /* \"#utility.yul\":7127:7179   */\n      tag_362\n      jump\t// in\n    tag_378:\n        /* \"#utility.yul\":7204:7210   */\n      dup1\n        /* \"#utility.yul\":7199:7202   */\n      dup5\n        /* \"#utility.yul\":7195:7211   */\n      add\n        /* \"#utility.yul\":7188:7211   */\n      swap2\n      pop\n        /* \"#utility.yul\":6950:7217   */\n      pop\n        /* \"#utility.yul\":6840:7217   */\n      swap3\n      swap2\n      pop\n      pop\n      jump\t// out\n        /* \"#utility.yul\":7223:7589   */\n    tag_379:\n        /* \"#utility.yul\":7365:7368   */\n      0x00\n        /* \"#utility.yul\":7386:7453   */\n      tag_381\n        /* \"#utility.yul\":7450:7452   */\n      0x32\n        /* \"#utility.yul\":7445:7448   */\n      dup4\n        /* \"#utility.yul\":7386:7453   */\n      tag_370\n      jump\t// in\n    tag_381:\n        /* \"#utility.yul\":7379:7453   */\n      swap2\n      pop\n        /* \"#utility.yul\":7462:7555   */\n      tag_382\n        /* \"#utility.yul\":7551:7554   */\n      dup3\n        /* \"#utility.yul\":7462:7555   */\n      tag_383\n      jump\t// in\n    tag_382:\n        /* \"#utility.yul\":7580:7582   */\n      0x40\n        /* \"#utility.yul\":7575:7578   */\n      dup3\n        /* \"#utility.yul\":7571:7583   */\n      add\n        /* \"#utility.yul\":7564:7583   */\n      swap1\n      pop\n        /* \"#utility.yul\":7223:7589   */\n      swap2\n      swap1\n      pop\n      jump\t// out\n        /* \"#utility.yul\":7595:7961   */\n    tag_384:\n        /* \"#utility.yul\":7737:7740   */\n      0x00\n        /* \"#utility.yul\":7758:7825   */\n      tag_386\n        /* \"#utility.yul\":7822:7824   */\n      0x25\n        /* \"#utility.yul\":7817:7820   */\n      dup4\n        /* \"#utility.yul\":7758:7825   */\n      tag_370\n      jump\t// in\n    tag_386:\n        /* \"#utility.yul\":7751:7825   */\n      swap2\n      pop\n        /* \"#utility.yul\":7834:7927   */\n      tag_387\n        /* \"#utility.yul\":7923:7926   */\n      dup3\n        /* \"#utility.yul\":7834:7927   */\n      tag_388\n      jump\t// in\n    tag_387:\n        /* \"#utility.yul\":7952:7954   */\n      0x40\n        /* \"#utility.yul\":7947:7950   */\n      dup3\n        /* \"#utility.yul\":7943:7955   */\n      add\n        /* \"#utility.yul\":7936:7955   */\n      swap1\n      pop\n        /* \"#utility.yul\":7595:7961   */\n      swap2\n      swap1\n      pop\n      jump\t// out\n        /* \"#utility.yul\":7967:8333   */\n    tag_389:\n        /* \"#utility.yul\":8109:8112   */\n      0x00\n        /* \"#utility.yul\":8130:8197   */\n      tag_391\n        /* \"#utility.yul\":8194:8196   */\n      0x24\n        /* \"#utility.yul\":8189:8192   */\n      dup4\n        /* \"#utility.yul\":8130:8197   */\n      tag_370\n      jump\t// in\n    tag_391:\n        /* \"#utility.yul\":8123:8197   */\n      swap2\n      pop\n        /* \"#utility.yul\":8206:8299   */\n      tag_392\n        /* \"#utility.yul\":8295:8298   */\n      dup3\n        /* \"#utility.yul\":8206:8299   */\n      tag_393\n      jump\t// in\n    tag_392:\n        /* \"#utility.yul\":8324:8326   */\n      0x40\n        /* \"#utility.yul\":8319:8322   */\n      dup3\n        /* \"#utility.yul\":8315:8327   */\n      add\n        /* \"#utility.yul\":8308:8327   */\n      swap1\n      pop\n        /* \"#utility.yul\":7967:8333   */\n      swap2\n      swap1\n      pop\n      jump\t// out\n        /* \"#utility.yul\":8339:8705   */\n    tag_394:\n        /* \"#utility.yul\":8481:8484   */\n      0x00\n        /* \"#utility.yul\":8502:8569   */\n      tag_396\n        /* \"#utility.yul\":8566:8568   */\n      0x19\n        /* \"#utility.yul\":8561:8564   */\n      dup4\n        /* \"#utility.yul\":8502:8569   */\n      tag_370\n      jump\t// in\n    tag_396:\n        /* \"#utility.yul\":8495:8569   */\n      swap2\n      pop\n        /* \"#utility.yul\":8578:8671   */\n      tag_397\n        /* \"#utility.yul\":8667:8670   */\n      dup3\n        /* \"#utility.yul\":8578:8671   */\n      tag_398\n      jump\t// in\n    tag_397:\n        /* \"#utility.yul\":8696:8698   */\n      0x20\n        /* \"#utility.yul\":8691:8694   */\n      dup3\n        /* \"#utility.yul\":8687:8699   */\n      add\n        /* \"#utility.yul\":8680:8699   */\n      swap1\n      pop\n        /* \"#utility.yul\":8339:8705   */\n      swap2\n      swap1\n      pop\n      jump\t// out\n        /* \"#utility.yul\":8711:9077   */\n    tag_399:\n        /* \"#utility.yul\":8853:8856   */\n      0x00\n        /* \"#utility.yul\":8874:8941   */\n      tag_401\n        /* \"#utility.yul\":8938:8940   */\n      0x2c\n        /* \"#utility.yul\":8933:8936   */\n      dup4\n        /* \"#utility.yul\":8874:8941   */\n      tag_370\n      jump\t// in\n    tag_401:\n        /* \"#utility.yul\":8867:8941   */\n      swap2\n      pop\n        /* \"#utility.yul\":8950:9043   */\n      tag_402\n        /* \"#utility.yul\":9039:9042   */\n      dup3\n        /* \"#utility.yul\":8950:9043   */\n      tag_403\n      jump\t// in\n    tag_402:\n        /* \"#utility.yul\":9068:9070   */\n      0x40\n        /* \"#utility.yul\":9063:9066   */\n      dup3\n        /* \"#utility.yul\":9059:9071   */\n      add\n        /* \"#utility.yul\":9052:9071   */\n      swap1\n      pop\n        /* \"#utility.yul\":8711:9077   */\n      swap2\n      swap1\n      pop\n      jump\t// out\n        /* \"#utility.yul\":9083:9449   */\n    tag_404:\n        /* \"#utility.yul\":9225:9228   */\n      0x00\n        /* \"#utility.yul\":9246:9313   */\n      tag_406\n        /* \"#utility.yul\":9310:9312   */\n      0x29\n        /* \"#utility.yul\":9305:9308   */\n      dup4\n        /* \"#utility.yul\":9246:9313   */\n      tag_370\n      jump\t// in\n    tag_406:\n        /* \"#utility.yul\":9239:9313   */\n      swap2\n      pop\n        /* \"#utility.yul\":9322:9415   */\n      tag_407\n        /* \"#utility.yul\":9411:9414   */\n      dup3\n        /* \"#utility.yul\":9322:9415   */\n      tag_408\n      jump\t// in\n    tag_407:\n        /* \"#utility.yul\":9440:9442   */\n      0x40\n        /* \"#utility.yul\":9435:9438   */\n      dup3\n        /* \"#utility.yul\":9431:9443   */\n      add\n        /* \"#utility.yul\":9424:9443   */\n      swap1\n      pop\n        /* \"#utility.yul\":9083:9449   */\n      swap2\n      swap1\n      pop\n      jump\t// out\n        /* \"#utility.yul\":9455:9821   */\n    tag_409:\n        /* \"#utility.yul\":9597:9600   */\n      0x00\n        /* \"#utility.yul\":9618:9685   */\n      tag_411\n        /* \"#utility.yul\":9682:9684   */\n      0x38\n        /* \"#utility.yul\":9677:9680   */\n      dup4\n        /* \"#utility.yul\":9618:9685   */\n      tag_370\n      jump\t// in\n    tag_411:\n        /* \"#utility.yul\":9611:9685   */\n      swap2\n      pop\n        /* \"#utility.yul\":9694:9787   */\n      tag_412\n        /* \"#utility.yul\":9783:9786   */\n      dup3\n        /* \"#utility.yul\":9694:9787   */\n      tag_413\n      jump\t// in\n    tag_412:\n        /* \"#utility.yul\":9812:9814   */\n      0x40\n        /* \"#utility.yul\":9807:9810   */\n      dup3\n        /* \"#utility.yul\":9803:9815   */\n      add\n        /* \"#utility.yul\":9796:9815   */\n      swap1\n      pop\n        /* \"#utility.yul\":9455:9821   */\n      swap2\n      swap1\n      pop\n      jump\t// out\n        /* \"#utility.yul\":9827:10193   */\n    tag_414:\n        /* \"#utility.yul\":9969:9972   */\n      0x00\n        /* \"#utility.yul\":9990:10057   */\n      tag_416\n        /* \"#utility.yul\":10054:10056   */\n      0x29\n        /* \"#utility.yul\":10049:10052   */\n      dup4\n        /* \"#utility.yul\":9990:10057   */\n      tag_370\n      jump\t// in\n    tag_416:\n        /* \"#utility.yul\":9983:10057   */\n      swap2\n      pop\n        /* \"#utility.yul\":10066:10159   */\n      tag_417\n        /* \"#utility.yul\":10155:10158   */\n      dup3\n        /* \"#utility.yul\":10066:10159   */\n      tag_418\n      jump\t// in\n    tag_417:\n        /* \"#utility.yul\":10184:10186   */\n      0x40\n        /* \"#utility.yul\":10179:10182   */\n      dup3\n        /* \"#utility.yul\":10175:10187   */\n      add\n        /* \"#utility.yul\":10168:10187   */\n      swap1\n      pop\n        /* \"#utility.yul\":9827:10193   */\n      swap2\n      swap1\n      pop\n      jump\t// out\n        /* \"#utility.yul\":10199:10565   */\n    tag_419:\n        /* \"#utility.yul\":10341:10344   */\n      0x00\n        /* \"#utility.yul\":10362:10429   */\n      tag_421\n        /* \"#utility.yul\":10426:10428   */\n      0x2c\n        /* \"#utility.yul\":10421:10424   */\n      dup4\n        /* \"#utility.yul\":10362:10429   */\n      tag_370\n      jump\t// in\n    tag_421:\n        /* \"#utility.yul\":10355:10429   */\n      swap2\n      pop\n        /* \"#utility.yul\":10438:10531   */\n      tag_422\n        /* \"#utility.yul\":10527:10530   */\n      dup3\n        /* \"#utility.yul\":10438:10531   */\n      tag_423\n      jump\t// in\n    tag_422:\n        /* \"#utility.yul\":10556:10558   */\n      0x40\n        /* \"#utility.yul\":10551:10554   */\n      dup3\n        /* \"#utility.yul\":10547:10559   */\n      add\n        /* \"#utility.yul\":10540:10559   */\n      swap1\n      pop\n        /* \"#utility.yul\":10199:10565   */\n      swap2\n      swap1\n      pop\n      jump\t// out\n        /* \"#utility.yul\":10571:10937   */\n    tag_424:\n        /* \"#utility.yul\":10713:10716   */\n      0x00\n        /* \"#utility.yul\":10734:10801   */\n      tag_426\n        /* \"#utility.yul\":10798:10800   */\n      0x2f\n        /* \"#utility.yul\":10793:10796   */\n      dup4\n        /* \"#utility.yul\":10734:10801   */\n      tag_370\n      jump\t// in\n    tag_426:\n        /* \"#utility.yul\":10727:10801   */\n      swap2\n      pop\n        /* \"#utility.yul\":10810:10903   */\n      tag_427\n        /* \"#utility.yul\":10899:10902   */\n      dup3\n        /* \"#utility.yul\":10810:10903   */\n      tag_428\n      jump\t// in\n    tag_427:\n        /* \"#utility.yul\":10928:10930   */\n      0x40\n        /* \"#utility.yul\":10923:10926   */\n      dup3\n        /* \"#utility.yul\":10919:10931   */\n      add\n        /* \"#utility.yul\":10912:10931   */\n      swap1\n      pop\n        /* \"#utility.yul\":10571:10937   */\n      swap2\n      swap1\n      pop\n      jump\t// out\n        /* \"#utility.yul\":10943:11309   */\n    tag_429:\n        /* \"#utility.yul\":11085:11088   */\n      0x00\n        /* \"#utility.yul\":11106:11173   */\n      tag_431\n        /* \"#utility.yul\":11170:11172   */\n      0x21\n        /* \"#utility.yul\":11165:11168   */\n      dup4\n        /* \"#utility.yul\":11106:11173   */\n      tag_370\n      jump\t// in\n    tag_431:\n        /* \"#utility.yul\":11099:11173   */\n      swap2\n      pop\n        /* \"#utility.yul\":11182:11275   */\n      tag_432\n        /* \"#utility.yul\":11271:11274   */\n      dup3\n        /* \"#utility.yul\":11182:11275   */\n      tag_433\n      jump\t// in\n    tag_432:\n        /* \"#utility.yul\":11300:11302   */\n      0x40\n        /* \"#utility.yul\":11295:11298   */\n      dup3\n        /* \"#utility.yul\":11291:11303   */\n      add\n        /* \"#utility.yul\":11284:11303   */\n      swap1\n      pop\n        /* \"#utility.yul\":10943:11309   */\n      swap2\n      swap1\n      pop\n      jump\t// out\n        /* \"#utility.yul\":11315:11681   */\n    tag_434:\n        /* \"#utility.yul\":11457:11460   */\n      0x00\n        /* \"#utility.yul\":11478:11545   */\n      tag_436\n        /* \"#utility.yul\":11542:11544   */\n      0x31\n        /* \"#utility.yul\":11537:11540   */\n      dup4\n        /* \"#utility.yul\":11478:11545   */\n      tag_370\n      jump\t// in\n    tag_436:\n        /* \"#utility.yul\":11471:11545   */\n      swap2\n      pop\n        /* \"#utility.yul\":11554:11647   */\n      tag_437\n        /* \"#utility.yul\":11643:11646   */\n      dup3\n        /* \"#utility.yul\":11554:11647   */\n      tag_438\n      jump\t// in\n    tag_437:\n        /* \"#utility.yul\":11672:11674   */\n      0x40\n        /* \"#utility.yul\":11667:11670   */\n      dup3\n        /* \"#utility.yul\":11663:11675   */\n      add\n        /* \"#utility.yul\":11656:11675   */\n      swap1\n      pop\n        /* \"#utility.yul\":11315:11681   */\n      swap2\n      swap1\n      pop\n      jump\t// out\n        /* \"#utility.yul\":11687:11805   */\n    tag_439:\n        /* \"#utility.yul\":11774:11798   */\n      tag_441\n        /* \"#utility.yul\":11792:11797   */\n      dup2\n        /* \"#utility.yul\":11774:11798   */\n      tag_442\n      jump\t// in\n    tag_441:\n        /* \"#utility.yul\":11769:11772   */\n      dup3\n        /* \"#utility.yul\":11762:11799   */\n      mstore\n        /* \"#utility.yul\":11687:11805   */\n      pop\n      pop\n      jump\t// out\n        /* \"#utility.yul\":11811:12246   */\n    tag_168:\n        /* \"#utility.yul\":11991:11994   */\n      0x00\n        /* \"#utility.yul\":12013:12108   */\n      tag_444\n        /* \"#utility.yul\":12104:12107   */\n      dup3\n        /* \"#utility.yul\":12095:12101   */\n      dup6\n        /* \"#utility.yul\":12013:12108   */\n      tag_373\n      jump\t// in\n    tag_444:\n        /* \"#utility.yul\":12006:12108   */\n      swap2\n      pop\n        /* \"#utility.yul\":12125:12220   */\n      tag_445\n        /* \"#utility.yul\":12216:12219   */\n      dup3\n        /* \"#utility.yul\":12207:12213   */\n      dup5\n        /* \"#utility.yul\":12125:12220   */\n      tag_373\n      jump\t// in\n    tag_445:\n        /* \"#utility.yul\":12118:12220   */\n      swap2\n      pop\n        /* \"#utility.yul\":12237:12240   */\n      dup2\n        /* \"#utility.yul\":12230:12240   */\n      swap1\n      pop\n        /* \"#utility.yul\":11811:12246   */\n      swap4\n      swap3\n      pop\n      pop\n      pop\n      jump\t// out\n        /* \"#utility.yul\":12252:12474   */\n    tag_35:\n        /* \"#utility.yul\":12345:12349   */\n      0x00\n        /* \"#utility.yul\":12383:12385   */\n      0x20\n        /* \"#utility.yul\":12372:12381   */\n      dup3\n        /* \"#utility.yul\":12368:12386   */\n      add\n        /* \"#utility.yul\":12360:12386   */\n      swap1\n      pop\n        /* \"#utility.yul\":12396:12467   */\n      tag_447\n        /* \"#utility.yul\":12464:12465   */\n      0x00\n        /* \"#utility.yul\":12453:12462   */\n      dup4\n        /* \"#utility.yul\":12449:12466   */\n      add\n        /* \"#utility.yul\":12440:12446   */\n      dup5\n        /* \"#utility.yul\":12396:12467   */\n      tag_347\n      jump\t// in\n    tag_447:\n        /* \"#utility.yul\":12252:12474   */\n      swap3\n      swap2\n      pop\n      pop\n      jump\t// out\n        /* \"#utility.yul\":12480:13120   */\n    tag_245:\n        /* \"#utility.yul\":12675:12679   */\n      0x00\n        /* \"#utility.yul\":12713:12716   */\n      0x80\n        /* \"#utility.yul\":12702:12711   */\n      dup3\n        /* \"#utility.yul\":12698:12717   */\n      add\n        /* \"#utility.yul\":12690:12717   */\n      swap1\n      pop\n        /* \"#utility.yul\":12727:12798   */\n      tag_449\n        /* \"#utility.yul\":12795:12796   */\n      0x00\n        /* \"#utility.yul\":12784:12793   */\n      dup4\n        /* \"#utility.yul\":12780:12797   */\n      add\n        /* \"#utility.yul\":12771:12777   */\n      dup8\n        /* \"#utility.yul\":12727:12798   */\n      tag_347\n      jump\t// in\n    tag_449:\n        /* \"#utility.yul\":12808:12880   */\n      tag_450\n        /* \"#utility.yul\":12876:12878   */\n      0x20\n        /* \"#utility.yul\":12865:12874   */\n      dup4\n        /* \"#utility.yul\":12861:12879   */\n      add\n        /* \"#utility.yul\":12852:12858   */\n      dup7\n        /* \"#utility.yul\":12808:12880   */\n      tag_347\n      jump\t// in\n    tag_450:\n        /* \"#utility.yul\":12890:12962   */\n      tag_451\n        /* \"#utility.yul\":12958:12960   */\n      0x40\n        /* \"#utility.yul\":12947:12956   */\n      dup4\n        /* \"#utility.yul\":12943:12961   */\n      add\n        /* \"#utility.yul\":12934:12940   */\n      dup6\n        /* \"#utility.yul\":12890:12962   */\n      tag_439\n      jump\t// in\n    tag_451:\n        /* \"#utility.yul\":13009:13018   */\n      dup2\n        /* \"#utility.yul\":13003:13007   */\n      dup2\n        /* \"#utility.yul\":12999:13019   */\n      sub\n        /* \"#utility.yul\":12994:12996   */\n      0x60\n        /* \"#utility.yul\":12983:12992   */\n      dup4\n        /* \"#utility.yul\":12979:12997   */\n      add\n        /* \"#utility.yul\":12972:13020   */\n      mstore\n        /* \"#utility.yul\":13037:13113   */\n      tag_452\n        /* \"#utility.yul\":13108:13112   */\n      dup2\n        /* \"#utility.yul\":13099:13105   */\n      dup5\n        /* \"#utility.yul\":13037:13113   */\n      tag_355\n      jump\t// in\n    tag_452:\n        /* \"#utility.yul\":13029:13113   */\n      swap1\n      pop\n        /* \"#utility.yul\":12480:13120   */\n      swap6\n      swap5\n      pop\n      pop\n      pop\n      pop\n      pop\n      jump\t// out\n        /* \"#utility.yul\":13126:13336   */\n    tag_25:\n        /* \"#utility.yul\":13213:13217   */\n      0x00\n        /* \"#utility.yul\":13251:13253   */\n      0x20\n        /* \"#utility.yul\":13240:13249   */\n      dup3\n        /* \"#utility.yul\":13236:13254   */\n      add\n        /* \"#utility.yul\":13228:13254   */\n      swap1\n      pop\n        /* \"#utility.yul\":13264:13329   */\n      tag_454\n        /* \"#utility.yul\":13326:13327   */\n      0x00\n        /* \"#utility.yul\":13315:13324   */\n      dup4\n        /* \"#utility.yul\":13311:13328   */\n      add\n        /* \"#utility.yul\":13302:13308   */\n      dup5\n        /* \"#utility.yul\":13264:13329   */\n      tag_351\n      jump\t// in\n    tag_454:\n        /* \"#utility.yul\":13126:13336   */\n      swap3\n      swap2\n      pop\n      pop\n      jump\t// out\n        /* \"#utility.yul\":13342:13655   */\n    tag_29:\n        /* \"#utility.yul\":13455:13459   */\n      0x00\n        /* \"#utility.yul\":13493:13495   */\n      0x20\n        /* \"#utility.yul\":13482:13491   */\n      dup3\n        /* \"#utility.yul\":13478:13496   */\n      add\n        /* \"#utility.yul\":13470:13496   */\n      swap1\n      pop\n        /* \"#utility.yul\":13542:13551   */\n      dup2\n        /* \"#utility.yul\":13536:13540   */\n      dup2\n        /* \"#utility.yul\":13532:13552   */\n      sub\n        /* \"#utility.yul\":13528:13529   */\n      0x00\n        /* \"#utility.yul\":13517:13526   */\n      dup4\n        /* \"#utility.yul\":13513:13530   */\n      add\n        /* \"#utility.yul\":13506:13553   */\n      mstore\n        /* \"#utility.yul\":13570:13648   */\n      tag_456\n        /* \"#utility.yul\":13643:13647   */\n      dup2\n        /* \"#utility.yul\":13634:13640   */\n      dup5\n        /* \"#utility.yul\":13570:13648   */\n      tag_365\n      jump\t// in\n    tag_456:\n        /* \"#utility.yul\":13562:13648   */\n      swap1\n      pop\n        /* \"#utility.yul\":13342:13655   */\n      swap3\n      swap2\n      pop\n      pop\n      jump\t// out\n        /* \"#utility.yul\":13661:14080   */\n    tag_213:\n        /* \"#utility.yul\":13827:13831   */\n      0x00\n        /* \"#utility.yul\":13865:13867   */\n      0x20\n        /* \"#utility.yul\":13854:13863   */\n      dup3\n        /* \"#utility.yul\":13850:13868   */\n      add\n        /* \"#utility.yul\":13842:13868   */\n      swap1\n      pop\n        /* \"#utility.yul\":13914:13923   */\n      dup2\n        /* \"#utility.yul\":13908:13912   */\n      dup2\n        /* \"#utility.yul\":13904:13924   */\n      sub\n        /* \"#utility.yul\":13900:13901   */\n      0x00\n        /* \"#utility.yul\":13889:13898   */\n      dup4\n        /* \"#utility.yul\":13885:13902   */\n      add\n        /* \"#utility.yul\":13878:13925   */\n      mstore\n        /* \"#utility.yul\":13942:14073   */\n      tag_458\n        /* \"#utility.yul\":14068:14072   */\n      dup2\n        /* \"#utility.yul\":13942:14073   */\n      tag_379\n      jump\t// in\n    tag_458:\n        /* \"#utility.yul\":13934:14073   */\n      swap1\n      pop\n        /* \"#utility.yul\":13661:14080   */\n      swap2\n      swap1\n      pop\n      jump\t// out\n        /* \"#utility.yul\":14086:14505   */\n    tag_189:\n        /* \"#utility.yul\":14252:14256   */\n      0x00\n        /* \"#utility.yul\":14290:14292   */\n      0x20\n        /* \"#utility.yul\":14279:14288   */\n      dup3\n        /* \"#utility.yul\":14275:14293   */\n      add\n        /* \"#utility.yul\":14267:14293   */\n      swap1\n      pop\n        /* \"#utility.yul\":14339:14348   */\n      dup2\n        /* \"#utility.yul\":14333:14337   */\n      dup2\n        /* \"#utility.yul\":14329:14349   */\n      sub\n        /* \"#utility.yul\":14325:14326   */\n      0x00\n        /* \"#utility.yul\":14314:14323   */\n      dup4\n        /* \"#utility.yul\":14310:14327   */\n      add\n        /* \"#utility.yul\":14303:14350   */\n      mstore\n        /* \"#utility.yul\":14367:14498   */\n      tag_460\n        /* \"#utility.yul\":14493:14497   */\n      dup2\n        /* \"#utility.yul\":14367:14498   */\n      tag_384\n      jump\t// in\n    tag_460:\n        /* \"#utility.yul\":14359:14498   */\n      swap1\n      pop\n        /* \"#utility.yul\":14086:14505   */\n      swap2\n      swap1\n      pop\n      jump\t// out\n        /* \"#utility.yul\":14511:14930   */\n    tag_192:\n        /* \"#utility.yul\":14677:14681   */\n      0x00\n        /* \"#utility.yul\":14715:14717   */\n      0x20\n        /* \"#utility.yul\":14704:14713   */\n      dup3\n        /* \"#utility.yul\":14700:14718   */\n      add\n        /* \"#utility.yul\":14692:14718   */\n      swap1\n      pop\n        /* \"#utility.yul\":14764:14773   */\n      dup2\n        /* \"#utility.yul\":14758:14762   */\n      dup2\n        /* \"#utility.yul\":14754:14774   */\n      sub\n        /* \"#utility.yul\":14750:14751   */\n      0x00\n        /* \"#utility.yul\":14739:14748   */\n      dup4\n        /* \"#utility.yul\":14735:14752   */\n      add\n        /* \"#utility.yul\":14728:14775   */\n      mstore\n        /* \"#utility.yul\":14792:14923   */\n      tag_462\n        /* \"#utility.yul\":14918:14922   */\n      dup2\n        /* \"#utility.yul\":14792:14923   */\n      tag_389\n      jump\t// in\n    tag_462:\n        /* \"#utility.yul\":14784:14923   */\n      swap1\n      pop\n        /* \"#utility.yul\":14511:14930   */\n      swap2\n      swap1\n      pop\n      jump\t// out\n        /* \"#utility.yul\":14936:15355   */\n    tag_205:\n        /* \"#utility.yul\":15102:15106   */\n      0x00\n        /* \"#utility.yul\":15140:15142   */\n      0x20\n        /* \"#utility.yul\":15129:15138   */\n      dup3\n        /* \"#utility.yul\":15125:15143   */\n      add\n        /* \"#utility.yul\":15117:15143   */\n      swap1\n      pop\n        /* \"#utility.yul\":15189:15198   */\n      dup2\n        /* \"#utility.yul\":15183:15187   */\n      dup2\n        /* \"#utility.yul\":15179:15199   */\n      sub\n        /* \"#utility.yul\":15175:15176   */\n      0x00\n        /* \"#utility.yul\":15164:15173   */\n      dup4\n        /* \"#utility.yul\":15160:15177   */\n      add\n        /* \"#utility.yul\":15153:15200   */\n      mstore\n        /* \"#utility.yul\":15217:15348   */\n      tag_464\n        /* \"#utility.yul\":15343:15347   */\n      dup2\n        /* \"#utility.yul\":15217:15348   */\n      tag_394\n      jump\t// in\n    tag_464:\n        /* \"#utility.yul\":15209:15348   */\n      swap1\n      pop\n        /* \"#utility.yul\":14936:15355   */\n      swap2\n      swap1\n      pop\n      jump\t// out\n        /* \"#utility.yul\":15361:15780   */\n    tag_179:\n        /* \"#utility.yul\":15527:15531   */\n      0x00\n        /* \"#utility.yul\":15565:15567   */\n      0x20\n        /* \"#utility.yul\":15554:15563   */\n      dup3\n        /* \"#utility.yul\":15550:15568   */\n      add\n        /* \"#utility.yul\":15542:15568   */\n      swap1\n      pop\n        /* \"#utility.yul\":15614:15623   */\n      dup2\n        /* \"#utility.yul\":15608:15612   */\n      dup2\n        /* \"#utility.yul\":15604:15624   */\n      sub\n        /* \"#utility.yul\":15600:15601   */\n      0x00\n        /* \"#utility.yul\":15589:15598   */\n      dup4\n        /* \"#utility.yul\":15585:15602   */\n      add\n        /* \"#utility.yul\":15578:15625   */\n      mstore\n        /* \"#utility.yul\":15642:15773   */\n      tag_466\n        /* \"#utility.yul\":15768:15772   */\n      dup2\n        /* \"#utility.yul\":15642:15773   */\n      tag_399\n      jump\t// in\n    tag_466:\n        /* \"#utility.yul\":15634:15773   */\n      swap1\n      pop\n        /* \"#utility.yul\":15361:15780   */\n      swap2\n      swap1\n      pop\n      jump\t// out\n        /* \"#utility.yul\":15786:16205   */\n    tag_133:\n        /* \"#utility.yul\":15952:15956   */\n      0x00\n        /* \"#utility.yul\":15990:15992   */\n      0x20\n        /* \"#utility.yul\":15979:15988   */\n      dup3\n        /* \"#utility.yul\":15975:15993   */\n      add\n        /* \"#utility.yul\":15967:15993   */\n      swap1\n      pop\n        /* \"#utility.yul\":16039:16048   */\n      dup2\n        /* \"#utility.yul\":16033:16037   */\n      dup2\n        /* \"#utility.yul\":16029:16049   */\n      sub\n        /* \"#utility.yul\":16025:16026   */\n      0x00\n        /* \"#utility.yul\":16014:16023   */\n      dup4\n        /* \"#utility.yul\":16010:16027   */\n      add\n        /* \"#utility.yul\":16003:16050   */\n      mstore\n        /* \"#utility.yul\":16067:16198   */\n      tag_468\n        /* \"#utility.yul\":16193:16197   */\n      dup2\n        /* \"#utility.yul\":16067:16198   */\n      tag_404\n      jump\t// in\n    tag_468:\n        /* \"#utility.yul\":16059:16198   */\n      swap1\n      pop\n        /* \"#utility.yul\":15786:16205   */\n      swap2\n      swap1\n      pop\n      jump\t// out\n        /* \"#utility.yul\":16211:16630   */\n    tag_112:\n        /* \"#utility.yul\":16377:16381   */\n      0x00\n        /* \"#utility.yul\":16415:16417   */\n      0x20\n        /* \"#utility.yul\":16404:16413   */\n      dup3\n        /* \"#utility.yul\":16400:16418   */\n      add\n        /* \"#utility.yul\":16392:16418   */\n      swap1\n      pop\n        /* \"#utility.yul\":16464:16473   */\n      dup2\n        /* \"#utility.yul\":16458:16462   */\n      dup2\n        /* \"#utility.yul\":16454:16474   */\n      sub\n        /* \"#utility.yul\":16450:16451   */\n      0x00\n        /* \"#utility.yul\":16439:16448   */\n      dup4\n        /* \"#utility.yul\":16435:16452   */\n      add\n        /* \"#utility.yul\":16428:16475   */\n      mstore\n        /* \"#utility.yul\":16492:16623   */\n      tag_470\n        /* \"#utility.yul\":16618:16622   */\n      dup2\n        /* \"#utility.yul\":16492:16623   */\n      tag_409\n      jump\t// in\n    tag_470:\n        /* \"#utility.yul\":16484:16623   */\n      swap1\n      pop\n        /* \"#utility.yul\":16211:16630   */\n      swap2\n      swap1\n      pop\n      jump\t// out\n        /* \"#utility.yul\":16636:17055   */\n    tag_129:\n        /* \"#utility.yul\":16802:16806   */\n      0x00\n        /* \"#utility.yul\":16840:16842   */\n      0x20\n        /* \"#utility.yul\":16829:16838   */\n      dup3\n        /* \"#utility.yul\":16825:16843   */\n      add\n        /* \"#utility.yul\":16817:16843   */\n      swap1\n      pop\n        /* \"#utility.yul\":16889:16898   */\n      dup2\n        /* \"#utility.yul\":16883:16887   */\n      dup2\n        /* \"#utility.yul\":16879:16899   */\n      sub\n        /* \"#utility.yul\":16875:16876   */\n      0x00\n        /* \"#utility.yul\":16864:16873   */\n      dup4\n        /* \"#utility.yul\":16860:16877   */\n      add\n        /* \"#utility.yul\":16853:16900   */\n      mstore\n        /* \"#utility.yul\":16917:17048   */\n      tag_472\n        /* \"#utility.yul\":17043:17047   */\n      dup2\n        /* \"#utility.yul\":16917:17048   */\n      tag_414\n      jump\t// in\n    tag_472:\n        /* \"#utility.yul\":16909:17048   */\n      swap1\n      pop\n        /* \"#utility.yul\":16636:17055   */\n      swap2\n      swap1\n      pop\n      jump\t// out\n        /* \"#utility.yul\":17061:17480   */\n    tag_99:\n        /* \"#utility.yul\":17227:17231   */\n      0x00\n        /* \"#utility.yul\":17265:17267   */\n      0x20\n        /* \"#utility.yul\":17254:17263   */\n      dup3\n        /* \"#utility.yul\":17250:17268   */\n      add\n        /* \"#utility.yul\":17242:17268   */\n      swap1\n      pop\n        /* \"#utility.yul\":17314:17323   */\n      dup2\n        /* \"#utility.yul\":17308:17312   */\n      dup2\n        /* \"#utility.yul\":17304:17324   */\n      sub\n        /* \"#utility.yul\":17300:17301   */\n      0x00\n        /* \"#utility.yul\":17289:17298   */\n      dup4\n        /* \"#utility.yul\":17285:17302   */\n      add\n        /* \"#utility.yul\":17278:17325   */\n      mstore\n        /* \"#utility.yul\":17342:17473   */\n      tag_474\n        /* \"#utility.yul\":17468:17472   */\n      dup2\n        /* \"#utility.yul\":17342:17473   */\n      tag_419\n      jump\t// in\n    tag_474:\n        /* \"#utility.yul\":17334:17473   */\n      swap1\n      pop\n        /* \"#utility.yul\":17061:17480   */\n      swap2\n      swap1\n      pop\n      jump\t// out\n        /* \"#utility.yul\":17486:17905   */\n    tag_160:\n        /* \"#utility.yul\":17652:17656   */\n      0x00\n        /* \"#utility.yul\":17690:17692   */\n      0x20\n        /* \"#utility.yul\":17679:17688   */\n      dup3\n        /* \"#utility.yul\":17675:17693   */\n      add\n        /* \"#utility.yul\":17667:17693   */\n      swap1\n      pop\n        /* \"#utility.yul\":17739:17748   */\n      dup2\n        /* \"#utility.yul\":17733:17737   */\n      dup2\n        /* \"#utility.yul\":17729:17749   */\n      sub\n        /* \"#utility.yul\":17725:17726   */\n      0x00\n        /* \"#utility.yul\":17714:17723   */\n      dup4\n        /* \"#utility.yul\":17710:17727   */\n      add\n        /* \"#utility.yul\":17703:17750   */\n      mstore\n        /* \"#utility.yul\":17767:17898   */\n      tag_476\n        /* \"#utility.yul\":17893:17897   */\n      dup2\n        /* \"#utility.yul\":17767:17898   */\n      tag_424\n      jump\t// in\n    tag_476:\n        /* \"#utility.yul\":17759:17898   */\n      swap1\n      pop\n        /* \"#utility.yul\":17486:17905   */\n      swap2\n      swap1\n      pop\n      jump\t// out\n        /* \"#utility.yul\":17911:18330   */\n    tag_104:\n        /* \"#utility.yul\":18077:18081   */\n      0x00\n        /* \"#utility.yul\":18115:18117   */\n      0x20\n        /* \"#utility.yul\":18104:18113   */\n      dup3\n        /* \"#utility.yul\":18100:18118   */\n      add\n        /* \"#utility.yul\":18092:18118   */\n      swap1\n      pop\n        /* \"#utility.yul\":18164:18173   */\n      dup2\n        /* \"#utility.yul\":18158:18162   */\n      dup2\n        /* \"#utility.yul\":18154:18174   */\n      sub\n        /* \"#utility.yul\":18150:18151   */\n      0x00\n        /* \"#utility.yul\":18139:18148   */\n      dup4\n        /* \"#utility.yul\":18135:18152   */\n      add\n        /* \"#utility.yul\":18128:18175   */\n      mstore\n        /* \"#utility.yul\":18192:18323   */\n      tag_478\n        /* \"#utility.yul\":18318:18322   */\n      dup2\n        /* \"#utility.yul\":18192:18323   */\n      tag_429\n      jump\t// in\n    tag_478:\n        /* \"#utility.yul\":18184:18323   */\n      swap1\n      pop\n        /* \"#utility.yul\":17911:18330   */\n      swap2\n      swap1\n      pop\n      jump\t// out\n        /* \"#utility.yul\":18336:18755   */\n    tag_121:\n        /* \"#utility.yul\":18502:18506   */\n      0x00\n        /* \"#utility.yul\":18540:18542   */\n      0x20\n        /* \"#utility.yul\":18529:18538   */\n      dup3\n        /* \"#utility.yul\":18525:18543   */\n      add\n        /* \"#utility.yul\":18517:18543   */\n      swap1\n      pop\n        /* \"#utility.yul\":18589:18598   */\n      dup2\n        /* \"#utility.yul\":18583:18587   */\n      dup2\n        /* \"#utility.yul\":18579:18599   */\n      sub\n        /* \"#utility.yul\":18575:18576   */\n      0x00\n        /* \"#utility.yul\":18564:18573   */\n      dup4\n        /* \"#utility.yul\":18560:18577   */\n      add\n        /* \"#utility.yul\":18553:18600   */\n      mstore\n        /* \"#utility.yul\":18617:18748   */\n      tag_480\n        /* \"#utility.yul\":18743:18747   */\n      dup2\n        /* \"#utility.yul\":18617:18748   */\n      tag_434\n      jump\t// in\n    tag_480:\n        /* \"#utility.yul\":18609:18748   */\n      swap1\n      pop\n        /* \"#utility.yul\":18336:18755   */\n      swap2\n      swap1\n      pop\n      jump\t// out\n        /* \"#utility.yul\":18761:18983   */\n    tag_56:\n        /* \"#utility.yul\":18854:18858   */\n      0x00\n        /* \"#utility.yul\":18892:18894   */\n      0x20\n        /* \"#utility.yul\":18881:18890   */\n      dup3\n        /* \"#utility.yul\":18877:18895   */\n      add\n        /* \"#utility.yul\":18869:18895   */\n      swap1\n      pop\n        /* \"#utility.yul\":18905:18976   */\n      tag_482\n        /* \"#utility.yul\":18973:18974   */\n      0x00\n        /* \"#utility.yul\":18962:18971   */\n      dup4\n        /* \"#utility.yul\":18958:18975   */\n      add\n        /* \"#utility.yul\":18949:18955   */\n      dup5\n        /* \"#utility.yul\":18905:18976   */\n      tag_439\n      jump\t// in\n    tag_482:\n        /* \"#utility.yul\":18761:18983   */\n      swap3\n      swap2\n      pop\n      pop\n      jump\t// out\n        /* \"#utility.yul\":18989:20176   */\n    tag_68:\n        /* \"#utility.yul\":19320:19324   */\n      0x00\n        /* \"#utility.yul\":19358:19361   */\n      0x0120\n        /* \"#utility.yul\":19347:19356   */\n      dup3\n        /* \"#utility.yul\":19343:19362   */\n      add\n        /* \"#utility.yul\":19335:19362   */\n      swap1\n      pop\n        /* \"#utility.yul\":19372:19443   */\n      tag_484\n        /* \"#utility.yul\":19440:19441   */\n      0x00\n        /* \"#utility.yul\":19429:19438   */\n      dup4\n        /* \"#utility.yul\":19425:19442   */\n      add\n        /* \"#utility.yul\":19416:19422   */\n      dup13\n        /* \"#utility.yul\":19372:19443   */\n      tag_439\n      jump\t// in\n    tag_484:\n        /* \"#utility.yul\":19453:19525   */\n      tag_485\n        /* \"#utility.yul\":19521:19523   */\n      0x20\n        /* \"#utility.yul\":19510:19519   */\n      dup4\n        /* \"#utility.yul\":19506:19524   */\n      add\n        /* \"#utility.yul\":19497:19503   */\n      dup12\n        /* \"#utility.yul\":19453:19525   */\n      tag_439\n      jump\t// in\n    tag_485:\n        /* \"#utility.yul\":19535:19607   */\n      tag_486\n        /* \"#utility.yul\":19603:19605   */\n      0x40\n        /* \"#utility.yul\":19592:19601   */\n      dup4\n        /* \"#utility.yul\":19588:19606   */\n      add\n        /* \"#utility.yul\":19579:19585   */\n      dup11\n        /* \"#utility.yul\":19535:19607   */\n      tag_439\n      jump\t// in\n    tag_486:\n        /* \"#utility.yul\":19617:19689   */\n      tag_487\n        /* \"#utility.yul\":19685:19687   */\n      0x60\n        /* \"#utility.yul\":19674:19683   */\n      dup4\n        /* \"#utility.yul\":19670:19688   */\n      add\n        /* \"#utility.yul\":19661:19667   */\n      dup10\n        /* \"#utility.yul\":19617:19689   */\n      tag_439\n      jump\t// in\n    tag_487:\n        /* \"#utility.yul\":19699:19772   */\n      tag_488\n        /* \"#utility.yul\":19767:19770   */\n      0x80\n        /* \"#utility.yul\":19756:19765   */\n      dup4\n        /* \"#utility.yul\":19752:19771   */\n      add\n        /* \"#utility.yul\":19743:19749   */\n      dup9\n        /* \"#utility.yul\":19699:19772   */\n      tag_439\n      jump\t// in\n    tag_488:\n        /* \"#utility.yul\":19782:19855   */\n      tag_489\n        /* \"#utility.yul\":19850:19853   */\n      0xa0\n        /* \"#utility.yul\":19839:19848   */\n      dup4\n        /* \"#utility.yul\":19835:19854   */\n      add\n        /* \"#utility.yul\":19826:19832   */\n      dup8\n        /* \"#utility.yul\":19782:19855   */\n      tag_347\n      jump\t// in\n    tag_489:\n        /* \"#utility.yul\":19865:19938   */\n      tag_490\n        /* \"#utility.yul\":19933:19936   */\n      0xc0\n        /* \"#utility.yul\":19922:19931   */\n      dup4\n        /* \"#utility.yul\":19918:19937   */\n      add\n        /* \"#utility.yul\":19909:19915   */\n      dup7\n        /* \"#utility.yul\":19865:19938   */\n      tag_347\n      jump\t// in\n    tag_490:\n        /* \"#utility.yul\":19986:19995   */\n      dup2\n        /* \"#utility.yul\":19980:19984   */\n      dup2\n        /* \"#utility.yul\":19976:19996   */\n      sub\n        /* \"#utility.yul\":19970:19973   */\n      0xe0\n        /* \"#utility.yul\":19959:19968   */\n      dup4\n        /* \"#utility.yul\":19955:19974   */\n      add\n        /* \"#utility.yul\":19948:19997   */\n      mstore\n        /* \"#utility.yul\":20014:20092   */\n      tag_491\n        /* \"#utility.yul\":20087:20091   */\n      dup2\n        /* \"#utility.yul\":20078:20084   */\n      dup6\n        /* \"#utility.yul\":20014:20092   */\n      tag_365\n      jump\t// in\n    tag_491:\n        /* \"#utility.yul\":20006:20092   */\n      swap1\n      pop\n        /* \"#utility.yul\":20102:20169   */\n      tag_492\n        /* \"#utility.yul\":20164:20167   */\n      0x0100\n        /* \"#utility.yul\":20153:20162   */\n      dup4\n        /* \"#utility.yul\":20149:20168   */\n      add\n        /* \"#utility.yul\":20140:20146   */\n      dup5\n        /* \"#utility.yul\":20102:20169   */\n      tag_351\n      jump\t// in\n    tag_492:\n        /* \"#utility.yul\":18989:20176   */\n      swap11\n      swap10\n      pop\n      pop\n      pop\n      pop\n      pop\n      pop\n      pop\n      pop\n      pop\n      pop\n      jump\t// out\n        /* \"#utility.yul\":20182:20311   */\n    tag_268:\n        /* \"#utility.yul\":20216:20222   */\n      0x00\n        /* \"#utility.yul\":20243:20263   */\n      tag_494\n      tag_495\n      jump\t// in\n    tag_494:\n        /* \"#utility.yul\":20233:20263   */\n      swap1\n      pop\n        /* \"#utility.yul\":20272:20305   */\n      tag_496\n        /* \"#utility.yul\":20300:20304   */\n      dup3\n        /* \"#utility.yul\":20292:20298   */\n      dup3\n        /* \"#utility.yul\":20272:20305   */\n      tag_497\n      jump\t// in\n    tag_496:\n        /* \"#utility.yul\":20182:20311   */\n      swap2\n      swap1\n      pop\n      jump\t// out\n        /* \"#utility.yul\":20317:20392   */\n    tag_495:\n        /* \"#utility.yul\":20350:20356   */\n      0x00\n        /* \"#utility.yul\":20383:20385   */\n      0x40\n        /* \"#utility.yul\":20377:20386   */\n      mload\n        /* \"#utility.yul\":20367:20386   */\n      swap1\n      pop\n        /* \"#utility.yul\":20317:20392   */\n      swap1\n      jump\t// out\n        /* \"#utility.yul\":20398:20705   */\n    tag_267:\n        /* \"#utility.yul\":20459:20463   */\n      0x00\n        /* \"#utility.yul\":20549:20567   */\n      0xffffffffffffffff\n        /* \"#utility.yul\":20541:20547   */\n      dup3\n        /* \"#utility.yul\":20538:20568   */\n      gt\n        /* \"#utility.yul\":20535:20591   */\n      iszero\n      tag_500\n      jumpi\n        /* \"#utility.yul\":20571:20589   */\n      tag_501\n      tag_225\n      jump\t// in\n    tag_501:\n        /* \"#utility.yul\":20535:20591   */\n    tag_500:\n        /* \"#utility.yul\":20609:20638   */\n      tag_502\n        /* \"#utility.yul\":20631:20637   */\n      dup3\n        /* \"#utility.yul\":20609:20638   */\n      tag_364\n      jump\t// in\n    tag_502:\n        /* \"#utility.yul\":20601:20638   */\n      swap1\n      pop\n        /* \"#utility.yul\":20693:20697   */\n      0x20\n        /* \"#utility.yul\":20687:20691   */\n      dup2\n        /* \"#utility.yul\":20683:20698   */\n      add\n        /* \"#utility.yul\":20675:20698   */\n      swap1\n      pop\n        /* \"#utility.yul\":20398:20705   */\n      swap2\n      swap1\n      pop\n      jump\t// out\n        /* \"#utility.yul\":20711:20809   */\n    tag_358:\n        /* \"#utility.yul\":20762:20768   */\n      0x00\n        /* \"#utility.yul\":20796:20801   */\n      dup2\n        /* \"#utility.yul\":20790:20802   */\n      mload\n        /* \"#utility.yul\":20780:20802   */\n      swap1\n      pop\n        /* \"#utility.yul\":20711:20809   */\n      swap2\n      swap1\n      pop\n      jump\t// out\n        /* \"#utility.yul\":20815:20914   */\n    tag_368:\n        /* \"#utility.yul\":20867:20873   */\n      0x00\n        /* \"#utility.yul\":20901:20906   */\n      dup2\n        /* \"#utility.yul\":20895:20907   */\n      mload\n        /* \"#utility.yul\":20885:20907   */\n      swap1\n      pop\n        /* \"#utility.yul\":20815:20914   */\n      swap2\n      swap1\n      pop\n      jump\t// out\n        /* \"#utility.yul\":20920:21088   */\n    tag_360:\n        /* \"#utility.yul\":21003:21014   */\n      0x00\n        /* \"#utility.yul\":21037:21043   */\n      dup3\n        /* \"#utility.yul\":21032:21035   */\n      dup3\n        /* \"#utility.yul\":21025:21044   */\n      mstore\n        /* \"#utility.yul\":21077:21081   */\n      0x20\n        /* \"#utility.yul\":21072:21075   */\n      dup3\n        /* \"#utility.yul\":21068:21082   */\n      add\n        /* \"#utility.yul\":21053:21082   */\n      swap1\n      pop\n        /* \"#utility.yul\":20920:21088   */\n      swap3\n      swap2\n      pop\n      pop\n      jump\t// out\n        /* \"#utility.yul\":21094:21263   */\n    tag_370:\n        /* \"#utility.yul\":21178:21189   */\n      0x00\n        /* \"#utility.yul\":21212:21218   */\n      dup3\n        /* \"#utility.yul\":21207:21210   */\n      dup3\n        /* \"#utility.yul\":21200:21219   */\n      mstore\n        /* \"#utility.yul\":21252:21256   */\n      0x20\n        /* \"#utility.yul\":21247:21250   */\n      dup3\n        /* \"#utility.yul\":21243:21257   */\n      add\n        /* \"#utility.yul\":21228:21257   */\n      swap1\n      pop\n        /* \"#utility.yul\":21094:21263   */\n      swap3\n      swap2\n      pop\n      pop\n      jump\t// out\n        /* \"#utility.yul\":21269:21417   */\n    tag_377:\n        /* \"#utility.yul\":21371:21382   */\n      0x00\n        /* \"#utility.yul\":21408:21411   */\n      dup2\n        /* \"#utility.yul\":21393:21411   */\n      swap1\n      pop\n        /* \"#utility.yul\":21269:21417   */\n      swap3\n      swap2\n      pop\n      pop\n      jump\t// out\n        /* \"#utility.yul\":21423:21728   */\n    tag_199:\n        /* \"#utility.yul\":21463:21466   */\n      0x00\n        /* \"#utility.yul\":21482:21502   */\n      tag_509\n        /* \"#utility.yul\":21500:21501   */\n      dup3\n        /* \"#utility.yul\":21482:21502   */\n      tag_442\n      jump\t// in\n    tag_509:\n        /* \"#utility.yul\":21477:21502   */\n      swap2\n      pop\n        /* \"#utility.yul\":21516:21536   */\n      tag_510\n        /* \"#utility.yul\":21534:21535   */\n      dup4\n        /* \"#utility.yul\":21516:21536   */\n      tag_442\n      jump\t// in\n    tag_510:\n        /* \"#utility.yul\":21511:21536   */\n      swap3\n      pop\n        /* \"#utility.yul\":21670:21671   */\n      dup3\n        /* \"#utility.yul\":21602:21668   */\n      0xffffffffffffffffffffffffffffffffffffffffffffffffffffffffffffffff\n        /* \"#utility.yul\":21598:21672   */\n      sub\n        /* \"#utility.yul\":21595:21596   */\n      dup3\n        /* \"#utility.yul\":21592:21673   */\n      gt\n        /* \"#utility.yul\":21589:21696   */\n      iszero\n      tag_511\n      jumpi\n        /* \"#utility.yul\":21676:21694   */\n      tag_512\n      tag_513\n      jump\t// in\n    tag_512:\n        /* \"#utility.yul\":21589:21696   */\n    tag_511:\n        /* \"#utility.yul\":21720:21721   */\n      dup3\n        /* \"#utility.yul\":21717:21718   */\n      dup3\n        /* \"#utility.yul\":21713:21722   */\n      add\n        /* \"#utility.yul\":21706:21722   */\n      swap1\n      pop\n        /* \"#utility.yul\":21423:21728   */\n      swap3\n      swap2\n      pop\n      pop\n      jump\t// out\n        /* \"#utility.yul\":21734:21919   */\n    tag_222:\n        /* \"#utility.yul\":21774:21775   */\n      0x00\n        /* \"#utility.yul\":21791:21811   */\n      tag_515\n        /* \"#utility.yul\":21809:21810   */\n      dup3\n        /* \"#utility.yul\":21791:21811   */\n      tag_442\n      jump\t// in\n    tag_515:\n        /* \"#utility.yul\":21786:21811   */\n      swap2\n      pop\n        /* \"#utility.yul\":21825:21845   */\n      tag_516\n        /* \"#utility.yul\":21843:21844   */\n      dup4\n        /* \"#utility.yul\":21825:21845   */\n      tag_442\n      jump\t// in\n    tag_516:\n        /* \"#utility.yul\":21820:21845   */\n      swap3\n      pop\n        /* \"#utility.yul\":21864:21865   */\n      dup3\n        /* \"#utility.yul\":21854:21889   */\n      tag_517\n      jumpi\n        /* \"#utility.yul\":21869:21887   */\n      tag_518\n      tag_519\n      jump\t// in\n    tag_518:\n        /* \"#utility.yul\":21854:21889   */\n    tag_517:\n        /* \"#utility.yul\":21911:21912   */\n      dup3\n        /* \"#utility.yul\":21908:21909   */\n      dup3\n        /* \"#utility.yul\":21904:21913   */\n      div\n        /* \"#utility.yul\":21899:21913   */\n      swap1\n      pop\n        /* \"#utility.yul\":21734:21919   */\n      swap3\n      swap2\n      pop\n      pop\n      jump\t// out\n        /* \"#utility.yul\":21925:22116   */\n    tag_197:\n        /* \"#utility.yul\":21965:21969   */\n      0x00\n        /* \"#utility.yul\":21985:22005   */\n      tag_521\n        /* \"#utility.yul\":22003:22004   */\n      dup3\n        /* \"#utility.yul\":21985:22005   */\n      tag_442\n      jump\t// in\n    tag_521:\n        /* \"#utility.yul\":21980:22005   */\n      swap2\n      pop\n        /* \"#utility.yul\":22019:22039   */\n      tag_522\n        /* \"#utility.yul\":22037:22038   */\n      dup4\n        /* \"#utility.yul\":22019:22039   */\n      tag_442\n      jump\t// in\n    tag_522:\n        /* \"#utility.yul\":22014:22039   */\n      swap3\n      pop\n        /* \"#utility.yul\":22058:22059   */\n      dup3\n        /* \"#utility.yul\":22055:22056   */\n      dup3\n        /* \"#utility.yul\":22052:22060   */\n      lt\n        /* \"#utility.yul\":22049:22083   */\n      iszero\n      tag_523\n      jumpi\n        /* \"#utility.yul\":22063:22081   */\n      tag_524\n      tag_513\n      jump\t// in\n    tag_524:\n        /* \"#utility.yul\":22049:22083   */\n    tag_523:\n        /* \"#utility.yul\":22108:22109   */\n      dup3\n        /* \"#utility.yul\":22105:22106   */\n      dup3\n        /* \"#utility.yul\":22101:22110   */\n      sub\n        /* \"#utility.yul\":22093:22110   */\n      swap1\n      pop\n        /* \"#utility.yul\":21925:22116   */\n      swap3\n      swap2\n      pop\n      pop\n      jump\t// out\n        /* \"#utility.yul\":22122:22218   */\n    tag_350:\n        /* \"#utility.yul\":22159:22166   */\n      0x00\n        /* \"#utility.yul\":22188:22212   */\n      tag_526\n        /* \"#utility.yul\":22206:22211   */\n      dup3\n        /* \"#utility.yul\":22188:22212   */\n      tag_527\n      jump\t// in\n    tag_526:\n        /* \"#utility.yul\":22177:22212   */\n      swap1\n      pop\n        /* \"#utility.yul\":22122:22218   */\n      swap2\n      swap1\n      pop\n      jump\t// out\n        /* \"#utility.yul\":22224:22314   */\n    tag_354:\n        /* \"#utility.yul\":22258:22265   */\n      0x00\n        /* \"#utility.yul\":22301:22306   */\n      dup2\n        /* \"#utility.yul\":22294:22307   */\n      iszero\n        /* \"#utility.yul\":22287:22308   */\n      iszero\n        /* \"#utility.yul\":22276:22308   */\n      swap1\n      pop\n        /* \"#utility.yul\":22224:22314   */\n      swap2\n      swap1\n      pop\n      jump\t// out\n        /* \"#utility.yul\":22320:22469   */\n    tag_529:\n        /* \"#utility.yul\":22356:22363   */\n      0x00\n        /* \"#utility.yul\":22396:22462   */\n      0xffffffff00000000000000000000000000000000000000000000000000000000\n        /* \"#utility.yul\":22389:22394   */\n      dup3\n        /* \"#utility.yul\":22385:22463   */\n      and\n        /* \"#utility.yul\":22374:22463   */\n      swap1\n      pop\n        /* \"#utility.yul\":22320:22469   */\n      swap2\n      swap1\n      pop\n      jump\t// out\n        /* \"#utility.yul\":22475:22601   */\n    tag_527:\n        /* \"#utility.yul\":22512:22519   */\n      0x00\n        /* \"#utility.yul\":22552:22594   */\n      0xffffffffffffffffffffffffffffffffffffffff\n        /* \"#utility.yul\":22545:22550   */\n      dup3\n        /* \"#utility.yul\":22541:22595   */\n      and\n        /* \"#utility.yul\":22530:22595   */\n      swap1\n      pop\n        /* \"#utility.yul\":22475:22601   */\n      swap2\n      swap1\n      pop\n      jump\t// out\n        /* \"#utility.yul\":22607:22684   */\n    tag_442:\n        /* \"#utility.yul\":22644:22651   */\n      0x00\n        /* \"#utility.yul\":22673:22678   */\n      dup2\n        /* \"#utility.yul\":22662:22678   */\n      swap1\n      pop\n        /* \"#utility.yul\":22607:22684   */\n      swap2\n      swap1\n      pop\n      jump\t// out\n        /* \"#utility.yul\":22690:22844   */\n    tag_273:\n        /* \"#utility.yul\":22774:22780   */\n      dup3\n        /* \"#utility.yul\":22769:22772   */\n      dup2\n        /* \"#utility.yul\":22764:22767   */\n      dup4\n        /* \"#utility.yul\":22751:22781   */\n      calldatacopy\n        /* \"#utility.yul\":22836:22837   */\n      0x00\n        /* \"#utility.yul\":22827:22833   */\n      dup4\n        /* \"#utility.yul\":22822:22825   */\n      dup4\n        /* \"#utility.yul\":22818:22834   */\n      add\n        /* \"#utility.yul\":22811:22838   */\n      mstore\n        /* \"#utility.yul\":22690:22844   */\n      pop\n      pop\n      pop\n      jump\t// out\n        /* \"#utility.yul\":22850:23157   */\n    tag_362:\n        /* \"#utility.yul\":22918:22919   */\n      0x00\n        /* \"#utility.yul\":22928:23041   */\n    tag_535:\n        /* \"#utility.yul\":22942:22948   */\n      dup4\n        /* \"#utility.yul\":22939:22940   */\n      dup2\n        /* \"#utility.yul\":22936:22949   */\n      lt\n        /* \"#utility.yul\":22928:23041   */\n      iszero\n      tag_537\n      jumpi\n        /* \"#utility.yul\":23027:23028   */\n      dup1\n        /* \"#utility.yul\":23022:23025   */\n      dup3\n        /* \"#utility.yul\":23018:23029   */\n      add\n        /* \"#utility.yul\":23012:23030   */\n      mload\n        /* \"#utility.yul\":23008:23009   */\n      dup2\n        /* \"#utility.yul\":23003:23006   */\n      dup5\n        /* \"#utility.yul\":22999:23010   */\n      add\n        /* \"#utility.yul\":22992:23031   */\n      mstore\n        /* \"#utility.yul\":22964:22966   */\n      0x20\n        /* \"#utility.yul\":22961:22962   */\n      dup2\n        /* \"#utility.yul\":22957:22967   */\n      add\n        /* \"#utility.yul\":22952:22967   */\n      swap1\n      pop\n        /* \"#utility.yul\":22928:23041   */\n      jump(tag_535)\n    tag_537:\n        /* \"#utility.yul\":23059:23065   */\n      dup4\n        /* \"#utility.yul\":23056:23057   */\n      dup2\n        /* \"#utility.yul\":23053:23066   */\n      gt\n        /* \"#utility.yul\":23050:23151   */\n      iszero\n      tag_538\n      jumpi\n        /* \"#utility.yul\":23139:23140   */\n      0x00\n        /* \"#utility.yul\":23130:23136   */\n      dup5\n        /* \"#utility.yul\":23125:23128   */\n      dup5\n        /* \"#utility.yul\":23121:23137   */\n      add\n        /* \"#utility.yul\":23114:23141   */\n      mstore\n        /* \"#utility.yul\":23050:23151   */\n    tag_538:\n        /* \"#utility.yul\":22899:23157   */\n      pop\n        /* \"#utility.yul\":22850:23157   */\n      pop\n      pop\n      pop\n      jump\t// out\n        /* \"#utility.yul\":23163:23483   */\n    tag_89:\n        /* \"#utility.yul\":23207:23213   */\n      0x00\n        /* \"#utility.yul\":23244:23245   */\n      0x02\n        /* \"#utility.yul\":23238:23242   */\n      dup3\n        /* \"#utility.yul\":23234:23246   */\n      div\n        /* \"#utility.yul\":23224:23246   */\n      swap1\n      pop\n        /* \"#utility.yul\":23291:23292   */\n      0x01\n        /* \"#utility.yul\":23285:23289   */\n      dup3\n        /* \"#utility.yul\":23281:23293   */\n      and\n        /* \"#utility.yul\":23312:23330   */\n      dup1\n        /* \"#utility.yul\":23302:23383   */\n      tag_540\n      jumpi\n        /* \"#utility.yul\":23368:23372   */\n      0x7f\n        /* \"#utility.yul\":23360:23366   */\n      dup3\n        /* \"#utility.yul\":23356:23373   */\n      and\n        /* \"#utility.yul\":23346:23373   */\n      swap2\n      pop\n        /* \"#utility.yul\":23302:23383   */\n    tag_540:\n        /* \"#utility.yul\":23430:23432   */\n      0x20\n        /* \"#utility.yul\":23422:23428   */\n      dup3\n        /* \"#utility.yul\":23419:23433   */\n      lt\n        /* \"#utility.yul\":23399:23417   */\n      dup2\n        /* \"#utility.yul\":23396:23434   */\n      eq\n        /* \"#utility.yul\":23393:23477   */\n      iszero\n      tag_541\n      jumpi\n        /* \"#utility.yul\":23449:23467   */\n      tag_542\n      tag_543\n      jump\t// in\n    tag_542:\n        /* \"#utility.yul\":23393:23477   */\n    tag_541:\n        /* \"#utility.yul\":23214:23483   */\n      pop\n        /* \"#utility.yul\":23163:23483   */\n      swap2\n      swap1\n      pop\n      jump\t// out\n        /* \"#utility.yul\":23489:23770   */\n    tag_497:\n        /* \"#utility.yul\":23572:23599   */\n      tag_545\n        /* \"#utility.yul\":23594:23598   */\n      dup3\n        /* \"#utility.yul\":23572:23599   */\n      tag_364\n      jump\t// in\n    tag_545:\n        /* \"#utility.yul\":23564:23570   */\n      dup2\n        /* \"#utility.yul\":23560:23600   */\n      add\n        /* \"#utility.yul\":23702:23708   */\n      dup2\n        /* \"#utility.yul\":23690:23700   */\n      dup2\n        /* \"#utility.yul\":23687:23709   */\n      lt\n        /* \"#utility.yul\":23666:23684   */\n      0xffffffffffffffff\n        /* \"#utility.yul\":23654:23664   */\n      dup3\n        /* \"#utility.yul\":23651:23685   */\n      gt\n        /* \"#utility.yul\":23648:23710   */\n      or\n        /* \"#utility.yul\":23645:23733   */\n      iszero\n      tag_546\n      jumpi\n        /* \"#utility.yul\":23713:23731   */\n      tag_547\n      tag_225\n      jump\t// in\n    tag_547:\n        /* \"#utility.yul\":23645:23733   */\n    tag_546:\n        /* \"#utility.yul\":23753:23763   */\n      dup1\n        /* \"#utility.yul\":23749:23751   */\n      0x40\n        /* \"#utility.yul\":23742:23764   */\n      mstore\n        /* \"#utility.yul\":23532:23770   */\n      pop\n        /* \"#utility.yul\":23489:23770   */\n      pop\n      pop\n      jump\t// out\n        /* \"#utility.yul\":23776:24009   */\n    tag_220:\n        /* \"#utility.yul\":23815:23818   */\n      0x00\n        /* \"#utility.yul\":23838:23862   */\n      tag_549\n        /* \"#utility.yul\":23856:23861   */\n      dup3\n        /* \"#utility.yul\":23838:23862   */\n      tag_442\n      jump\t// in\n    tag_549:\n        /* \"#utility.yul\":23829:23862   */\n      swap2\n      pop\n        /* \"#utility.yul\":23884:23950   */\n      0xffffffffffffffffffffffffffffffffffffffffffffffffffffffffffffffff\n        /* \"#utility.yul\":23877:23882   */\n      dup3\n        /* \"#utility.yul\":23874:23951   */\n      eq\n        /* \"#utility.yul\":23871:23974   */\n      iszero\n      tag_550\n      jumpi\n        /* \"#utility.yul\":23954:23972   */\n      tag_551\n      tag_513\n      jump\t// in\n    tag_551:\n        /* \"#utility.yul\":23871:23974   */\n    tag_550:\n        /* \"#utility.yul\":24001:24002   */\n      0x01\n        /* \"#utility.yul\":23994:23999   */\n      dup3\n        /* \"#utility.yul\":23990:24003   */\n      add\n        /* \"#utility.yul\":23983:24003   */\n      swap1\n      pop\n        /* \"#utility.yul\":23776:24009   */\n      swap2\n      swap1\n      pop\n      jump\t// out\n        /* \"#utility.yul\":24015:24191   */\n    tag_231:\n        /* \"#utility.yul\":24047:24048   */\n      0x00\n        /* \"#utility.yul\":24064:24084   */\n      tag_553\n        /* \"#utility.yul\":24082:24083   */\n      dup3\n        /* \"#utility.yul\":24064:24084   */\n      tag_442\n      jump\t// in\n    tag_553:\n        /* \"#utility.yul\":24059:24084   */\n      swap2\n      pop\n        /* \"#utility.yul\":24098:24118   */\n      tag_554\n        /* \"#utility.yul\":24116:24117   */\n      dup4\n        /* \"#utility.yul\":24098:24118   */\n      tag_442\n      jump\t// in\n    tag_554:\n        /* \"#utility.yul\":24093:24118   */\n      swap3\n      pop\n        /* \"#utility.yul\":24137:24138   */\n      dup3\n        /* \"#utility.yul\":24127:24162   */\n      tag_555\n      jumpi\n        /* \"#utility.yul\":24142:24160   */\n      tag_556\n      tag_519\n      jump\t// in\n    tag_556:\n        /* \"#utility.yul\":24127:24162   */\n    tag_555:\n        /* \"#utility.yul\":24183:24184   */\n      dup3\n        /* \"#utility.yul\":24180:24181   */\n      dup3\n        /* \"#utility.yul\":24176:24185   */\n      mod\n        /* \"#utility.yul\":24171:24185   */\n      swap1\n      pop\n        /* \"#utility.yul\":24015:24191   */\n      swap3\n      swap2\n      pop\n      pop\n      jump\t// out\n        /* \"#utility.yul\":24197:24377   */\n    tag_513:\n        /* \"#utility.yul\":24245:24322   */\n      0x4e487b7100000000000000000000000000000000000000000000000000000000\n        /* \"#utility.yul\":24242:24243   */\n      0x00\n        /* \"#utility.yul\":24235:24323   */\n      mstore\n        /* \"#utility.yul\":24342:24346   */\n      0x11\n        /* \"#utility.yul\":24339:24340   */\n      0x04\n        /* \"#utility.yul\":24332:24347   */\n      mstore\n        /* \"#utility.yul\":24366:24370   */\n      0x24\n        /* \"#utility.yul\":24363:24364   */\n      0x00\n        /* \"#utility.yul\":24356:24371   */\n      revert\n        /* \"#utility.yul\":24383:24563   */\n    tag_519:\n        /* \"#utility.yul\":24431:24508   */\n      0x4e487b7100000000000000000000000000000000000000000000000000000000\n        /* \"#utility.yul\":24428:24429   */\n      0x00\n        /* \"#utility.yul\":24421:24509   */\n      mstore\n        /* \"#utility.yul\":24528:24532   */\n      0x12\n        /* \"#utility.yul\":24525:24526   */\n      0x04\n        /* \"#utility.yul\":24518:24533   */\n      mstore\n        /* \"#utility.yul\":24552:24556   */\n      0x24\n        /* \"#utility.yul\":24549:24550   */\n      0x00\n        /* \"#utility.yul\":24542:24557   */\n      revert\n        /* \"#utility.yul\":24569:24749   */\n    tag_543:\n        /* \"#utility.yul\":24617:24694   */\n      0x4e487b7100000000000000000000000000000000000000000000000000000000\n        /* \"#utility.yul\":24614:24615   */\n      0x00\n        /* \"#utility.yul\":24607:24695   */\n      mstore\n        /* \"#utility.yul\":24714:24718   */\n      0x22\n        /* \"#utility.yul\":24711:24712   */\n      0x04\n        /* \"#utility.yul\":24704:24719   */\n      mstore\n        /* \"#utility.yul\":24738:24742   */\n      0x24\n        /* \"#utility.yul\":24735:24736   */\n      0x00\n        /* \"#utility.yul\":24728:24743   */\n      revert\n        /* \"#utility.yul\":24755:24935   */\n    tag_235:\n        /* \"#utility.yul\":24803:24880   */\n      0x4e487b7100000000000000000000000000000000000000000000000000000000\n        /* \"#utility.yul\":24800:24801   */\n      0x00\n        /* \"#utility.yul\":24793:24881   */\n      mstore\n        /* \"#utility.yul\":24900:24904   */\n      0x32\n        /* \"#utility.yul\":24897:24898   */\n      0x04\n        /* \"#utility.yul\":24890:24905   */\n      mstore\n        /* \"#utility.yul\":24924:24928   */\n      0x24\n        /* \"#utility.yul\":24921:24922   */\n      0x00\n        /* \"#utility.yul\":24914:24929   */\n      revert\n        /* \"#utility.yul\":24941:25121   */\n    tag_225:\n        /* \"#utility.yul\":24989:25066   */\n      0x4e487b7100000000000000000000000000000000000000000000000000000000\n        /* \"#utility.yul\":24986:24987   */\n      0x00\n        /* \"#utility.yul\":24979:25067   */\n      mstore\n        /* \"#utility.yul\":25086:25090   */\n      0x41\n        /* \"#utility.yul\":25083:25084   */\n      0x04\n        /* \"#utility.yul\":25076:25091   */\n      mstore\n        /* \"#utility.yul\":25110:25114   */\n      0x24\n        /* \"#utility.yul\":25107:25108   */\n      0x00\n        /* \"#utility.yul\":25100:25115   */\n      revert\n        /* \"#utility.yul\":25127:25244   */\n    tag_293:\n        /* \"#utility.yul\":25236:25237   */\n      0x00\n        /* \"#utility.yul\":25233:25234   */\n      dup1\n        /* \"#utility.yul\":25226:25238   */\n      revert\n        /* \"#utility.yul\":25250:25367   */\n    tag_271:\n        /* \"#utility.yul\":25359:25360   */\n      0x00\n        /* \"#utility.yul\":25356:25357   */\n      dup1\n        /* \"#utility.yul\":25349:25361   */\n      revert\n        /* \"#utility.yul\":25373:25490   */\n    tag_323:\n        /* \"#utility.yul\":25482:25483   */\n      0x00\n        /* \"#utility.yul\":25479:25480   */\n      dup1\n        /* \"#utility.yul\":25472:25484   */\n      revert\n        /* \"#utility.yul\":25496:25613   */\n    tag_302:\n        /* \"#utility.yul\":25605:25606   */\n      0x00\n        /* \"#utility.yul\":25602:25603   */\n      dup1\n        /* \"#utility.yul\":25595:25607   */\n      revert\n        /* \"#utility.yul\":25619:25721   */\n    tag_364:\n        /* \"#utility.yul\":25660:25666   */\n      0x00\n        /* \"#utility.yul\":25711:25713   */\n      0x1f\n        /* \"#utility.yul\":25707:25714   */\n      not\n        /* \"#utility.yul\":25702:25704   */\n      0x1f\n        /* \"#utility.yul\":25695:25700   */\n      dup4\n        /* \"#utility.yul\":25691:25705   */\n      add\n        /* \"#utility.yul\":25687:25715   */\n      and\n        /* \"#utility.yul\":25677:25715   */\n      swap1\n      pop\n        /* \"#utility.yul\":25619:25721   */\n      swap2\n      swap1\n      pop\n      jump\t// out\n        /* \"#utility.yul\":25727:25964   */\n    tag_383:\n        /* \"#utility.yul\":25867:25901   */\n      0x4552433732313a207472616e7366657220746f206e6f6e204552433732315265\n        /* \"#utility.yul\":25863:25864   */\n      0x00\n        /* \"#utility.yul\":25855:25861   */\n      dup3\n        /* \"#utility.yul\":25851:25865   */\n      add\n        /* \"#utility.yul\":25844:25902   */\n      mstore\n        /* \"#utility.yul\":25936:25956   */\n      0x63656976657220696d706c656d656e7465720000000000000000000000000000\n        /* \"#utility.yul\":25931:25933   */\n      0x20\n        /* \"#utility.yul\":25923:25929   */\n      dup3\n        /* \"#utility.yul\":25919:25934   */\n      add\n        /* \"#utility.yul\":25912:25957   */\n      mstore\n        /* \"#utility.yul\":25727:25964   */\n      pop\n      jump\t// out\n        /* \"#utility.yul\":25970:26194   */\n    tag_388:\n        /* \"#utility.yul\":26110:26144   */\n      0x4552433732313a207472616e736665722066726f6d20696e636f727265637420\n        /* \"#utility.yul\":26106:26107   */\n      0x00\n        /* \"#utility.yul\":26098:26104   */\n      dup3\n        /* \"#utility.yul\":26094:26108   */\n      add\n        /* \"#utility.yul\":26087:26145   */\n      mstore\n        /* \"#utility.yul\":26179:26186   */\n      0x6f776e6572000000000000000000000000000000000000000000000000000000\n        /* \"#utility.yul\":26174:26176   */\n      0x20\n        /* \"#utility.yul\":26166:26172   */\n      dup3\n        /* \"#utility.yul\":26162:26177   */\n      add\n        /* \"#utility.yul\":26155:26187   */\n      mstore\n        /* \"#utility.yul\":25970:26194   */\n      pop\n      jump\t// out\n        /* \"#utility.yul\":26200:26423   */\n    tag_393:\n        /* \"#utility.yul\":26340:26374   */\n      0x4552433732313a207472616e7366657220746f20746865207a65726f20616464\n        /* \"#utility.yul\":26336:26337   */\n      0x00\n        /* \"#utility.yul\":26328:26334   */\n      dup3\n        /* \"#utility.yul\":26324:26338   */\n      add\n        /* \"#utility.yul\":26317:26375   */\n      mstore\n        /* \"#utility.yul\":26409:26415   */\n      0x7265737300000000000000000000000000000000000000000000000000000000\n        /* \"#utility.yul\":26404:26406   */\n      0x20\n        /* \"#utility.yul\":26396:26402   */\n      dup3\n        /* \"#utility.yul\":26392:26407   */\n      add\n        /* \"#utility.yul\":26385:26416   */\n      mstore\n        /* \"#utility.yul\":26200:26423   */\n      pop\n      jump\t// out\n        /* \"#utility.yul\":26429:26604   */\n    tag_398:\n        /* \"#utility.yul\":26569:26596   */\n      0x4552433732313a20617070726f766520746f2063616c6c657200000000000000\n        /* \"#utility.yul\":26565:26566   */\n      0x00\n        /* \"#utility.yul\":26557:26563   */\n      dup3\n        /* \"#utility.yul\":26553:26567   */\n      add\n        /* \"#utility.yul\":26546:26597   */\n      mstore\n        /* \"#utility.yul\":26429:26604   */\n      pop\n      jump\t// out\n        /* \"#utility.yul\":26610:26841   */\n    tag_403:\n        /* \"#utility.yul\":26750:26784   */\n      0x4552433732313a206f70657261746f7220717565727920666f72206e6f6e6578\n        /* \"#utility.yul\":26746:26747   */\n      0x00\n        /* \"#utility.yul\":26738:26744   */\n      dup3\n        /* \"#utility.yul\":26734:26748   */\n      add\n        /* \"#utility.yul\":26727:26785   */\n      mstore\n        /* \"#utility.yul\":26819:26833   */\n      0x697374656e7420746f6b656e0000000000000000000000000000000000000000\n        /* \"#utility.yul\":26814:26816   */\n      0x20\n        /* \"#utility.yul\":26806:26812   */\n      dup3\n        /* \"#utility.yul\":26802:26817   */\n      add\n        /* \"#utility.yul\":26795:26834   */\n      mstore\n        /* \"#utility.yul\":26610:26841   */\n      pop\n      jump\t// out\n        /* \"#utility.yul\":26847:27075   */\n    tag_408:\n        /* \"#utility.yul\":26987:27021   */\n      0x4552433732313a2061646472657373207a65726f206973206e6f742061207661\n        /* \"#utility.yul\":26983:26984   */\n      0x00\n        /* \"#utility.yul\":26975:26981   */\n      dup3\n        /* \"#utility.yul\":26971:26985   */\n      add\n        /* \"#utility.yul\":26964:27022   */\n      mstore\n        /* \"#utility.yul\":27056:27067   */\n      0x6c6964206f776e65720000000000000000000000000000000000000000000000\n        /* \"#utility.yul\":27051:27053   */\n      0x20\n        /* \"#utility.yul\":27043:27049   */\n      dup3\n        /* \"#utility.yul\":27039:27054   */\n      add\n        /* \"#utility.yul\":27032:27068   */\n      mstore\n        /* \"#utility.yul\":26847:27075   */\n      pop\n      jump\t// out\n        /* \"#utility.yul\":27081:27324   */\n    tag_413:\n        /* \"#utility.yul\":27221:27255   */\n      0x4552433732313a20617070726f76652063616c6c6572206973206e6f74206f77\n        /* \"#utility.yul\":27217:27218   */\n      0x00\n        /* \"#utility.yul\":27209:27215   */\n      dup3\n        /* \"#utility.yul\":27205:27219   */\n      add\n        /* \"#utility.yul\":27198:27256   */\n      mstore\n        /* \"#utility.yul\":27290:27316   */\n      0x6e6572206e6f7220617070726f76656420666f7220616c6c0000000000000000\n        /* \"#utility.yul\":27285:27287   */\n      0x20\n        /* \"#utility.yul\":27277:27283   */\n      dup3\n        /* \"#utility.yul\":27273:27288   */\n      add\n        /* \"#utility.yul\":27266:27317   */\n      mstore\n        /* \"#utility.yul\":27081:27324   */\n      pop\n      jump\t// out\n        /* \"#utility.yul\":27330:27558   */\n    tag_418:\n        /* \"#utility.yul\":27470:27504   */\n      0x4552433732313a206f776e657220717565727920666f72206e6f6e6578697374\n        /* \"#utility.yul\":27466:27467   */\n      0x00\n        /* \"#utility.yul\":27458:27464   */\n      dup3\n        /* \"#utility.yul\":27454:27468   */\n      add\n        /* \"#utility.yul\":27447:27505   */\n      mstore\n        /* \"#utility.yul\":27539:27550   */\n      0x656e7420746f6b656e0000000000000000000000000000000000000000000000\n        /* \"#utility.yul\":27534:27536   */\n      0x20\n        /* \"#utility.yul\":27526:27532   */\n      dup3\n        /* \"#utility.yul\":27522:27537   */\n      add\n        /* \"#utility.yul\":27515:27551   */\n      mstore\n        /* \"#utility.yul\":27330:27558   */\n      pop\n      jump\t// out\n        /* \"#utility.yul\":27564:27795   */\n    tag_423:\n        /* \"#utility.yul\":27704:27738   */\n      0x4552433732313a20617070726f76656420717565727920666f72206e6f6e6578\n        /* \"#utility.yul\":27700:27701   */\n      0x00\n        /* \"#utility.yul\":27692:27698   */\n      dup3\n        /* \"#utility.yul\":27688:27702   */\n      add\n        /* \"#utility.yul\":27681:27739   */\n      mstore\n        /* \"#utility.yul\":27773:27787   */\n      0x697374656e7420746f6b656e0000000000000000000000000000000000000000\n        /* \"#utility.yul\":27768:27770   */\n      0x20\n        /* \"#utility.yul\":27760:27766   */\n      dup3\n        /* \"#utility.yul\":27756:27771   */\n      add\n        /* \"#utility.yul\":27749:27788   */\n      mstore\n        /* \"#utility.yul\":27564:27795   */\n      pop\n      jump\t// out\n        /* \"#utility.yul\":27801:28035   */\n    tag_428:\n        /* \"#utility.yul\":27941:27975   */\n      0x4552433732314d657461646174613a2055524920717565727920666f72206e6f\n        /* \"#utility.yul\":27937:27938   */\n      0x00\n        /* \"#utility.yul\":27929:27935   */\n      dup3\n        /* \"#utility.yul\":27925:27939   */\n      add\n        /* \"#utility.yul\":27918:27976   */\n      mstore\n        /* \"#utility.yul\":28010:28027   */\n      0x6e6578697374656e7420746f6b656e0000000000000000000000000000000000\n        /* \"#utility.yul\":28005:28007   */\n      0x20\n        /* \"#utility.yul\":27997:28003   */\n      dup3\n        /* \"#utility.yul\":27993:28008   */\n      add\n        /* \"#utility.yul\":27986:28028   */\n      mstore\n        /* \"#utility.yul\":27801:28035   */\n      pop\n      jump\t// out\n        /* \"#utility.yul\":28041:28261   */\n    tag_433:\n        /* \"#utility.yul\":28181:28215   */\n      0x4552433732313a20617070726f76616c20746f2063757272656e74206f776e65\n        /* \"#utility.yul\":28177:28178   */\n      0x00\n        /* \"#utility.yul\":28169:28175   */\n      dup3\n        /* \"#utility.yul\":28165:28179   */\n      add\n        /* \"#utility.yul\":28158:28216   */\n      mstore\n        /* \"#utility.yul\":28250:28253   */\n      0x7200000000000000000000000000000000000000000000000000000000000000\n        /* \"#utility.yul\":28245:28247   */\n      0x20\n        /* \"#utility.yul\":28237:28243   */\n      dup3\n        /* \"#utility.yul\":28233:28248   */\n      add\n        /* \"#utility.yul\":28226:28254   */\n      mstore\n        /* \"#utility.yul\":28041:28261   */\n      pop\n      jump\t// out\n        /* \"#utility.yul\":28267:28503   */\n    tag_438:\n        /* \"#utility.yul\":28407:28441   */\n      0x4552433732313a207472616e736665722063616c6c6572206973206e6f74206f\n        /* \"#utility.yul\":28403:28404   */\n      0x00\n        /* \"#utility.yul\":28395:28401   */\n      dup3\n        /* \"#utility.yul\":28391:28405   */\n      add\n        /* \"#utility.yul\":28384:28442   */\n      mstore\n        /* \"#utility.yul\":28476:28495   */\n      0x776e6572206e6f7220617070726f766564000000000000000000000000000000\n        /* \"#utility.yul\":28471:28473   */\n      0x20\n        /* \"#utility.yul\":28463:28469   */\n      dup3\n        /* \"#utility.yul\":28459:28474   */\n      add\n        /* \"#utility.yul\":28452:28496   */\n      mstore\n        /* \"#utility.yul\":28267:28503   */\n      pop\n      jump\t// out\n        /* \"#utility.yul\":28509:28631   */\n    tag_277:\n        /* \"#utility.yul\":28582:28606   */\n      tag_580\n        /* \"#utility.yul\":28600:28605   */\n      dup2\n        /* \"#utility.yul\":28582:28606   */\n      tag_350\n      jump\t// in\n    tag_580:\n        /* \"#utility.yul\":28575:28580   */\n      dup2\n        /* \"#utility.yul\":28572:28607   */\n      eq\n        /* \"#utility.yul\":28562:28625   */\n      tag_581\n      jumpi\n        /* \"#utility.yul\":28621:28622   */\n      0x00\n        /* \"#utility.yul\":28618:28619   */\n      dup1\n        /* \"#utility.yul\":28611:28623   */\n      revert\n        /* \"#utility.yul\":28562:28625   */\n    tag_581:\n        /* \"#utility.yul\":28509:28631   */\n      pop\n      jump\t// out\n        /* \"#utility.yul\":28637:28753   */\n    tag_281:\n        /* \"#utility.yul\":28707:28728   */\n      tag_583\n        /* \"#utility.yul\":28722:28727   */\n      dup2\n        /* \"#utility.yul\":28707:28728   */\n      tag_354\n      jump\t// in\n    tag_583:\n        /* \"#utility.yul\":28700:28705   */\n      dup2\n        /* \"#utility.yul\":28697:28729   */\n      eq\n        /* \"#utility.yul\":28687:28747   */\n      tag_584\n      jumpi\n        /* \"#utility.yul\":28743:28744   */\n      0x00\n        /* \"#utility.yul\":28740:28741   */\n      dup1\n        /* \"#utility.yul\":28733:28745   */\n      revert\n        /* \"#utility.yul\":28687:28747   */\n    tag_584:\n        /* \"#utility.yul\":28637:28753   */\n      pop\n      jump\t// out\n        /* \"#utility.yul\":28759:28879   */\n    tag_285:\n        /* \"#utility.yul\":28831:28854   */\n      tag_586\n        /* \"#utility.yul\":28848:28853   */\n      dup2\n        /* \"#utility.yul\":28831:28854   */\n      tag_529\n      jump\t// in\n    tag_586:\n        /* \"#utility.yul\":28824:28829   */\n      dup2\n        /* \"#utility.yul\":28821:28855   */\n      eq\n        /* \"#utility.yul\":28811:28873   */\n      tag_587\n      jumpi\n        /* \"#utility.yul\":28869:28870   */\n      0x00\n        /* \"#utility.yul\":28866:28867   */\n      dup1\n        /* \"#utility.yul\":28859:28871   */\n      revert\n        /* \"#utility.yul\":28811:28873   */\n    tag_587:\n        /* \"#utility.yul\":28759:28879   */\n      pop\n      jump\t// out\n        /* \"#utility.yul\":28885:29007   */\n    tag_298:\n        /* \"#utility.yul\":28958:28982   */\n      tag_589\n        /* \"#utility.yul\":28976:28981   */\n      dup2\n        /* \"#utility.yul\":28958:28982   */\n      tag_442\n      jump\t// in\n    tag_589:\n        /* \"#utility.yul\":28951:28956   */\n      dup2\n        /* \"#utility.yul\":28948:28983   */\n      eq\n        /* \"#utility.yul\":28938:29001   */\n      tag_590\n      jumpi\n        /* \"#utility.yul\":28997:28998   */\n      0x00\n        /* \"#utility.yul\":28994:28995   */\n      dup1\n        /* \"#utility.yul\":28987:28999   */\n      revert\n        /* \"#utility.yul\":28938:29001   */\n    tag_590:\n        /* \"#utility.yul\":28885:29007   */\n      pop\n      jump\t// out\n\n    auxdata: 0xa264697066735822122051ed8c8d4e09d94156d3e9aecd67a0c040284cba007496b1c13385551c32545064736f6c63430008070033\n}\n",
				"bytecode": {
					"linkReferences": {},
					"object": "60806040523480156200001157600080fd5b50604051620029b0380380620029b083398181016040528101906200003791906200019f565b81600090805190602001906200004f92919062000071565b5080600190805190602001906200006892919062000071565b505050620003a8565b8280546200007f90620002b9565b90600052602060002090601f016020900481019282620000a35760008555620000ef565b82601f10620000be57805160ff1916838001178555620000ef565b82800160010185558215620000ef579182015b82811115620000ee578251825591602001919060010190620000d1565b5b509050620000fe919062000102565b5090565b5b808211156200011d57600081600090555060010162000103565b5090565b60006200013862000132846200024d565b62000224565b90508281526020810184848401111562000157576200015662000388565b5b6200016484828562000283565b509392505050565b600082601f83011262000184576200018362000383565b5b81516200019684826020860162000121565b91505092915050565b60008060408385031215620001b957620001b862000392565b5b600083015167ffffffffffffffff811115620001da57620001d96200038d565b5b620001e8858286016200016c565b925050602083015167ffffffffffffffff8111156200020c576200020b6200038d565b5b6200021a858286016200016c565b9150509250929050565b60006200023062000243565b90506200023e8282620002ef565b919050565b6000604051905090565b600067ffffffffffffffff8211156200026b576200026a62000354565b5b620002768262000397565b9050602081019050919050565b60005b83811015620002a357808201518184015260208101905062000286565b83811115620002b3576000848401525b50505050565b60006002820490506001821680620002d257607f821691505b60208210811415620002e957620002e862000325565b5b50919050565b620002fa8262000397565b810181811067ffffffffffffffff821117156200031c576200031b62000354565b5b80604052505050565b7f4e487b7100000000000000000000000000000000000000000000000000000000600052602260045260246000fd5b7f4e487b7100000000000000000000000000000000000000000000000000000000600052604160045260246000fd5b600080fd5b600080fd5b600080fd5b600080fd5b6000601f19601f8301169050919050565b6125f880620003b86000396000f3fe608060405234801561001057600080fd5b50600436106100ea5760003560e01c806370a082311161008c578063aeda852f11610066578063aeda852f1461025b578063b88d4fde14610293578063c87b56dd146102af578063e985e9c5146102df576100ea565b806370a08231146101f157806395d89b4114610221578063a22cb4651461023f576100ea565b8063095ea7b3116100c8578063095ea7b31461016d57806323b872dd1461018957806342842e0e146101a55780636352211e146101c1576100ea565b806301ffc9a7146100ef57806306fdde031461011f578063081812fc1461013d575b600080fd5b610109600480360381019061010491906117ef565b61030f565b6040516101169190611b75565b60405180910390f35b6101276103f1565b6040516101349190611b90565b60405180910390f35b61015760048036038101906101529190611849565b610483565b6040516101649190611b0e565b60405180910390f35b610187600480360381019061018291906117af565b610508565b005b6101a3600480360381019061019e9190611699565b610620565b005b6101bf60048036038101906101ba9190611699565b610680565b005b6101db60048036038101906101d69190611849565b6106a0565b6040516101e89190611b0e565b60405180910390f35b61020b6004803603810190610206919061162c565b610752565b6040516102189190611d32565b60405180910390f35b61022961080a565b6040516102369190611b90565b60405180910390f35b6102596004803603810190610254919061176f565b61089c565b005b61027560048036038101906102709190611849565b6108b2565b60405161028a99989796959493929190611d4d565b60405180910390f35b6102ad60048036038101906102a891906116ec565b6109d5565b005b6102c960048036038101906102c49190611849565b610a37565b6040516102d69190611b90565b60405180910390f35b6102f960048036038101906102f49190611659565b610ade565b6040516103069190611b75565b60405180910390f35b60007f80ac58cd000000000000000000000000000000000000000000000000000000007bffffffffffffffffffffffffffffffffffffffffffffffffffffffff1916827bffffffffffffffffffffffffffffffffffffffffffffffffffffffff191614806103da57507f5b5e139f000000000000000000000000000000000000000000000000000000007bffffffffffffffffffffffffffffffffffffffffffffffffffffffff1916827bffffffffffffffffffffffffffffffffffffffffffffffffffffffff1916145b806103ea57506103e982610b72565b5b9050919050565b60606000805461040090611feb565b80601f016020809104026020016040519081016040528092919081815260200182805461042c90611feb565b80156104795780601f1061044e57610100808354040283529160200191610479565b820191906000526020600020905b81548152906001019060200180831161045c57829003601f168201915b5050505050905090565b600061048e82610bdc565b6104cd576040517f08c379a00000000000000000000000000000000000000000000000000000000081526004016104c490611cb2565b60405180910390fd5b6004600083815260200190815260200160002060009054906101000a900473ffffffffffffffffffffffffffffffffffffffff169050919050565b6000610513826106a0565b90508073ffffffffffffffffffffffffffffffffffffffff168373ffffffffffffffffffffffffffffffffffffffff161415610584576040517f08c379a000000000000000000000000000000000000000000000000000000000815260040161057b90611cf2565b60405180910390fd5b8073ffffffffffffffffffffffffffffffffffffffff166105a3610c48565b73ffffffffffffffffffffffffffffffffffffffff1614806105d257506105d1816105cc610c48565b610ade565b5b610611576040517f08c379a000000000000000000000000000000000000000000000000000000000815260040161060890611c72565b60405180910390fd5b61061b8383610c50565b505050565b61063161062b610c48565b82610d09565b610670576040517f08c379a000000000000000000000000000000000000000000000000000000000815260040161066790611d12565b60405180910390fd5b61067b838383610de7565b505050565b61069b838383604051806020016040528060008152506109d5565b505050565b6000806002600084815260200190815260200160002060009054906101000a900473ffffffffffffffffffffffffffffffffffffffff169050600073ffffffffffffffffffffffffffffffffffffffff168173ffffffffffffffffffffffffffffffffffffffff161415610749576040517f08c379a000000000000000000000000000000000000000000000000000000000815260040161074090611c92565b60405180910390fd5b80915050919050565b60008073ffffffffffffffffffffffffffffffffffffffff168273ffffffffffffffffffffffffffffffffffffffff1614156107c3576040517f08c379a00000000000000000000000000000000000000000000000000000000081526004016107ba90611c52565b60405180910390fd5b600360008373ffffffffffffffffffffffffffffffffffffffff1673ffffffffffffffffffffffffffffffffffffffff168152602001908152602001600020549050919050565b60606001805461081990611feb565b80601f016020809104026020016040519081016040528092919081815260200182805461084590611feb565b80156108925780601f1061086757610100808354040283529160200191610892565b820191906000526020600020905b81548152906001019060200180831161087557829003601f168201915b5050505050905090565b6108ae6108a7610c48565b838361104e565b5050565b60066020528060005260406000206000915090508060000154908060010154908060020154908060030154908060040154908060050160009054906101000a900473ffffffffffffffffffffffffffffffffffffffff16908060060160009054906101000a900473ffffffffffffffffffffffffffffffffffffffff169080600701805461093f90611feb565b80601f016020809104026020016040519081016040528092919081815260200182805461096b90611feb565b80156109b85780601f1061098d576101008083540402835291602001916109b8565b820191906000526020600020905b81548152906001019060200180831161099b57829003601f168201915b5050505050908060080160009054906101000a900460ff16905089565b6109e66109e0610c48565b83610d09565b610a25576040517f08c379a0000000000000000000000000000000000000000000000000000000008152600401610a1c90611d12565b60405180910390fd5b610a31848484846111bb565b50505050565b6060610a4282610bdc565b610a81576040517f08c379a0000000000000000000000000000000000000000000000000000000008152600401610a7890611cd2565b60405180910390fd5b6000610a8b611217565b90506000815111610aab5760405180602001604052806000815250610ad6565b80610ab58461122e565b604051602001610ac6929190611aea565b6040516020818303038152906040525b915050919050565b6000600560008473ffffffffffffffffffffffffffffffffffffffff1673ffffffffffffffffffffffffffffffffffffffff16815260200190815260200160002060008373ffffffffffffffffffffffffffffffffffffffff1673ffffffffffffffffffffffffffffffffffffffff16815260200190815260200160002060009054906101000a900460ff16905092915050565b60007f01ffc9a7000000000000000000000000000000000000000000000000000000007bffffffffffffffffffffffffffffffffffffffffffffffffffffffff1916827bffffffffffffffffffffffffffffffffffffffffffffffffffffffff1916149050919050565b60008073ffffffffffffffffffffffffffffffffffffffff166002600084815260200190815260200160002060009054906101000a900473ffffffffffffffffffffffffffffffffffffffff1673ffffffffffffffffffffffffffffffffffffffff1614159050919050565b600033905090565b816004600083815260200190815260200160002060006101000a81548173ffffffffffffffffffffffffffffffffffffffff021916908373ffffffffffffffffffffffffffffffffffffffff160217905550808273ffffffffffffffffffffffffffffffffffffffff16610cc3836106a0565b73ffffffffffffffffffffffffffffffffffffffff167f8c5be1e5ebec7d5bd14f71427d1e84f3dd0314c0f7b2291e5b200ac8c7c3b92560405160405180910390a45050565b6000610d1482610bdc565b610d53576040517f08c379a0000000000000000000000000000000000000000000000000000000008152600401610d4a90611c32565b60405180910390fd5b6000610d5e836106a0565b90508073ffffffffffffffffffffffffffffffffffffffff168473ffffffffffffffffffffffffffffffffffffffff161480610da05750610d9f8185610ade565b5b80610dde57508373ffffffffffffffffffffffffffffffffffffffff16610dc684610483565b73ffffffffffffffffffffffffffffffffffffffff16145b91505092915050565b8273ffffffffffffffffffffffffffffffffffffffff16610e07826106a0565b73ffffffffffffffffffffffffffffffffffffffff1614610e5d576040517f08c379a0000000000000000000000000000000000000000000000000000000008152600401610e5490611bd2565b60405180910390fd5b600073ffffffffffffffffffffffffffffffffffffffff168273ffffffffffffffffffffffffffffffffffffffff161415610ecd576040517f08c379a0000000000000000000000000000000000000000000000000000000008152600401610ec490611bf2565b60405180910390fd5b610ed883838361138f565b610ee3600082610c50565b6001600360008573ffffffffffffffffffffffffffffffffffffffff1673ffffffffffffffffffffffffffffffffffffffff1681526020019081526020016000206000828254610f339190611f01565b925050819055506001600360008473ffffffffffffffffffffffffffffffffffffffff1673ffffffffffffffffffffffffffffffffffffffff1681526020019081526020016000206000828254610f8a9190611e7a565b92505081905550816002600083815260200190815260200160002060006101000a81548173ffffffffffffffffffffffffffffffffffffffff021916908373ffffffffffffffffffffffffffffffffffffffff160217905550808273ffffffffffffffffffffffffffffffffffffffff168473ffffffffffffffffffffffffffffffffffffffff167fddf252ad1be2c89b69c2b068fc378daa952ba7f163c4a11628f55a4df523b3ef60405160405180910390a4611049838383611394565b505050565b8173ffffffffffffffffffffffffffffffffffffffff168373ffffffffffffffffffffffffffffffffffffffff1614156110bd576040517f08c379a00000000000000000000000000000000000000000000000000000000081526004016110b490611c12565b60405180910390fd5b80600560008573ffffffffffffffffffffffffffffffffffffffff1673ffffffffffffffffffffffffffffffffffffffff16815260200190815260200160002060008473ffffffffffffffffffffffffffffffffffffffff1673ffffffffffffffffffffffffffffffffffffffff16815260200190815260200160002060006101000a81548160ff0219169083151502179055508173ffffffffffffffffffffffffffffffffffffffff168373ffffffffffffffffffffffffffffffffffffffff167f17307eab39ab6107e8899845ad3d59bd9653f200f220920489ca2b5937696c31836040516111ae9190611b75565b60405180910390a3505050565b6111c6848484610de7565b6111d284848484611399565b611211576040517f08c379a000000000000000000000000000000000000000000000000000000000815260040161120890611bb2565b60405180910390fd5b50505050565b606060405180602001604052806000815250905090565b60606000821415611276576040518060400160405280600181526020017f3000000000000000000000000000000000000000000000000000000000000000815250905061138a565b600082905060005b600082146112a85780806112919061204e565b915050600a826112a19190611ed0565b915061127e565b60008167ffffffffffffffff8111156112c4576112c3612184565b5b6040519080825280601f01601f1916602001820160405280156112f65781602001600182028036833780820191505090505b5090505b600085146113835760018261130f9190611f01565b9150600a8561131e9190612097565b603061132a9190611e7a565b60f81b8183815181106113405761133f612155565b5b60200101907effffffffffffffffffffffffffffffffffffffffffffffffffffffffffffff1916908160001a905350600a8561137c9190611ed0565b94506112fa565b8093505050505b919050565b505050565b505050565b60006113ba8473ffffffffffffffffffffffffffffffffffffffff16611530565b15611523578373ffffffffffffffffffffffffffffffffffffffff1663150b7a026113e3610c48565b8786866040518563ffffffff1660e01b81526004016114059493929190611b29565b602060405180830381600087803b15801561141f57600080fd5b505af192505050801561145057506040513d601f19601f8201168201806040525081019061144d919061181c565b60015b6114d3573d8060008114611480576040519150601f19603f3d011682016040523d82523d6000602084013e611485565b606091505b506000815114156114cb576040517f08c379a00000000000000000000000000000000000000000000000000000000081526004016114c290611bb2565b60405180910390fd5b805181602001fd5b63150b7a0260e01b7bffffffffffffffffffffffffffffffffffffffffffffffffffffffff1916817bffffffffffffffffffffffffffffffffffffffffffffffffffffffff191614915050611528565b600190505b949350505050565b6000808273ffffffffffffffffffffffffffffffffffffffff163b119050919050565b600061156661156184611e06565b611de1565b905082815260208101848484011115611582576115816121b8565b5b61158d848285611fa9565b509392505050565b6000813590506115a481612566565b92915050565b6000813590506115b98161257d565b92915050565b6000813590506115ce81612594565b92915050565b6000815190506115e381612594565b92915050565b600082601f8301126115fe576115fd6121b3565b5b813561160e848260208601611553565b91505092915050565b600081359050611626816125ab565b92915050565b600060208284031215611642576116416121c2565b5b600061165084828501611595565b91505092915050565b600080604083850312156116705761166f6121c2565b5b600061167e85828601611595565b925050602061168f85828601611595565b9150509250929050565b6000806000606084860312156116b2576116b16121c2565b5b60006116c086828701611595565b93505060206116d186828701611595565b92505060406116e286828701611617565b9150509250925092565b60008060008060808587031215611706576117056121c2565b5b600061171487828801611595565b945050602061172587828801611595565b935050604061173687828801611617565b925050606085013567ffffffffffffffff811115611757576117566121bd565b5b611763878288016115e9565b91505092959194509250565b60008060408385031215611786576117856121c2565b5b600061179485828601611595565b92505060206117a5858286016115aa565b9150509250929050565b600080604083850312156117c6576117c56121c2565b5b60006117d485828601611595565b92505060206117e585828601611617565b9150509250929050565b600060208284031215611805576118046121c2565b5b6000611813848285016115bf565b91505092915050565b600060208284031215611832576118316121c2565b5b6000611840848285016115d4565b91505092915050565b60006020828403121561185f5761185e6121c2565b5b600061186d84828501611617565b91505092915050565b61187f81611f35565b82525050565b61188e81611f47565b82525050565b600061189f82611e37565b6118a98185611e4d565b93506118b9818560208601611fb8565b6118c2816121c7565b840191505092915050565b60006118d882611e42565b6118e28185611e5e565b93506118f2818560208601611fb8565b6118fb816121c7565b840191505092915050565b600061191182611e42565b61191b8185611e6f565b935061192b818560208601611fb8565b80840191505092915050565b6000611944603283611e5e565b915061194f826121d8565b604082019050919050565b6000611967602583611e5e565b915061197282612227565b604082019050919050565b600061198a602483611e5e565b915061199582612276565b604082019050919050565b60006119ad601983611e5e565b91506119b8826122c5565b602082019050919050565b60006119d0602c83611e5e565b91506119db826122ee565b604082019050919050565b60006119f3602983611e5e565b91506119fe8261233d565b604082019050919050565b6000611a16603883611e5e565b9150611a218261238c565b604082019050919050565b6000611a39602983611e5e565b9150611a44826123db565b604082019050919050565b6000611a5c602c83611e5e565b9150611a678261242a565b604082019050919050565b6000611a7f602f83611e5e565b9150611a8a82612479565b604082019050919050565b6000611aa2602183611e5e565b9150611aad826124c8565b604082019050919050565b6000611ac5603183611e5e565b9150611ad082612517565b604082019050919050565b611ae481611f9f565b82525050565b6000611af68285611906565b9150611b028284611906565b91508190509392505050565b6000602082019050611b236000830184611876565b92915050565b6000608082019050611b3e6000830187611876565b611b4b6020830186611876565b611b586040830185611adb565b8181036060830152611b6a8184611894565b905095945050505050565b6000602082019050611b8a6000830184611885565b92915050565b60006020820190508181036000830152611baa81846118cd565b905092915050565b60006020820190508181036000830152611bcb81611937565b9050919050565b60006020820190508181036000830152611beb8161195a565b9050919050565b60006020820190508181036000830152611c0b8161197d565b9050919050565b60006020820190508181036000830152611c2b816119a0565b9050919050565b60006020820190508181036000830152611c4b816119c3565b9050919050565b60006020820190508181036000830152611c6b816119e6565b9050919050565b60006020820190508181036000830152611c8b81611a09565b9050919050565b60006020820190508181036000830152611cab81611a2c565b9050919050565b60006020820190508181036000830152611ccb81611a4f565b9050919050565b60006020820190508181036000830152611ceb81611a72565b9050919050565b60006020820190508181036000830152611d0b81611a95565b9050919050565b60006020820190508181036000830152611d2b81611ab8565b9050919050565b6000602082019050611d476000830184611adb565b92915050565b600061012082019050611d63600083018c611adb565b611d70602083018b611adb565b611d7d604083018a611adb565b611d8a6060830189611adb565b611d976080830188611adb565b611da460a0830187611876565b611db160c0830186611876565b81810360e0830152611dc381856118cd565b9050611dd3610100830184611885565b9a9950505050505050505050565b6000611deb611dfc565b9050611df7828261201d565b919050565b6000604051905090565b600067ffffffffffffffff821115611e2157611e20612184565b5b611e2a826121c7565b9050602081019050919050565b600081519050919050565b600081519050919050565b600082825260208201905092915050565b600082825260208201905092915050565b600081905092915050565b6000611e8582611f9f565b9150611e9083611f9f565b9250827fffffffffffffffffffffffffffffffffffffffffffffffffffffffffffffffff03821115611ec557611ec46120c8565b5b828201905092915050565b6000611edb82611f9f565b9150611ee683611f9f565b925082611ef657611ef56120f7565b5b828204905092915050565b6000611f0c82611f9f565b9150611f1783611f9f565b925082821015611f2a57611f296120c8565b5b828203905092915050565b6000611f4082611f7f565b9050919050565b60008115159050919050565b60007fffffffff0000000000000000000000000000000000000000000000000000000082169050919050565b600073ffffffffffffffffffffffffffffffffffffffff82169050919050565b6000819050919050565b82818337600083830152505050565b60005b83811015611fd6578082015181840152602081019050611fbb565b83811115611fe5576000848401525b50505050565b6000600282049050600182168061200357607f821691505b6020821081141561201757612016612126565b5b50919050565b612026826121c7565b810181811067ffffffffffffffff8211171561204557612044612184565b5b80604052505050565b600061205982611f9f565b91507fffffffffffffffffffffffffffffffffffffffffffffffffffffffffffffffff82141561208c5761208b6120c8565b5b600182019050919050565b60006120a282611f9f565b91506120ad83611f9f565b9250826120bd576120bc6120f7565b5b828206905092915050565b7f4e487b7100000000000000000000000000000000000000000000000000000000600052601160045260246000fd5b7f4e487b7100000000000000000000000000000000000000000000000000000000600052601260045260246000fd5b7f4e487b7100000000000000000000000000000000000000000000000000000000600052602260045260246000fd5b7f4e487b7100000000000000000000000000000000000000000000000000000000600052603260045260246000fd5b7f4e487b7100000000000000000000000000000000000000000000000000000000600052604160045260246000fd5b600080fd5b600080fd5b600080fd5b600080fd5b6000601f19601f8301169050919050565b7f4552433732313a207472616e7366657220746f206e6f6e20455243373231526560008201527f63656976657220696d706c656d656e7465720000000000000000000000000000602082015250565b7f4552433732313a207472616e736665722066726f6d20696e636f72726563742060008201527f6f776e6572000000000000000000000000000000000000000000000000000000602082015250565b7f4552433732313a207472616e7366657220746f20746865207a65726f2061646460008201527f7265737300000000000000000000000000000000000000000000000000000000602082015250565b7f4552433732313a20617070726f766520746f2063616c6c657200000000000000600082015250565b7f4552433732313a206f70657261746f7220717565727920666f72206e6f6e657860008201527f697374656e7420746f6b656e0000000000000000000000000000000000000000602082015250565b7f4552433732313a2061646472657373207a65726f206973206e6f74206120766160008201527f6c6964206f776e65720000000000000000000000000000000000000000000000602082015250565b7f4552433732313a20617070726f76652063616c6c6572206973206e6f74206f7760008201527f6e6572206e6f7220617070726f76656420666f7220616c6c0000000000000000602082015250565b7f4552433732313a206f776e657220717565727920666f72206e6f6e657869737460008201527f656e7420746f6b656e0000000000000000000000000000000000000000000000602082015250565b7f4552433732313a20617070726f76656420717565727920666f72206e6f6e657860008201527f697374656e7420746f6b656e0000000000000000000000000000000000000000602082015250565b7f4552433732314d657461646174613a2055524920717565727920666f72206e6f60008201527f6e6578697374656e7420746f6b656e0000000000000000000000000000000000602082015250565b7f4552433732313a20617070726f76616c20746f2063757272656e74206f776e6560008201527f7200000000000000000000000000000000000000000000000000000000000000602082015250565b7f4552433732313a207472616e736665722063616c6c6572206973206e6f74206f60008201527f776e6572206e6f7220617070726f766564000000000000000000000000000000602082015250565b61256f81611f35565b811461257a57600080fd5b50565b61258681611f47565b811461259157600080fd5b50565b61259d81611f53565b81146125a857600080fd5b50565b6125b481611f9f565b81146125bf57600080fd5b5056fea264697066735822122051ed8c8d4e09d94156d3e9aecd67a0c040284cba007496b1c13385551c32545064736f6c63430008070033",
					"opcodes": "PUSH1 0x80 PUSH1 0x40 MSTORE CALLVALUE DUP1 ISZERO PUSH3 0x11 JUMPI PUSH1 0x0 DUP1 REVERT JUMPDEST POP PUSH1 0x40 MLOAD PUSH3 0x29B0 CODESIZE SUB DUP1 PUSH3 0x29B0 DUP4 CODECOPY DUP2 DUP2 ADD PUSH1 0x40 MSTORE DUP2 ADD SWAP1 PUSH3 0x37 SWAP2 SWAP1 PUSH3 0x19F JUMP JUMPDEST DUP2 PUSH1 0x0 SWAP1 DUP1 MLOAD SWAP1 PUSH1 0x20 ADD SWAP1 PUSH3 0x4F SWAP3 SWAP2 SWAP1 PUSH3 0x71 JUMP JUMPDEST POP DUP1 PUSH1 0x1 SWAP1 DUP1 MLOAD SWAP1 PUSH1 0x20 ADD SWAP1 PUSH3 0x68 SWAP3 SWAP2 SWAP1 PUSH3 0x71 JUMP JUMPDEST POP POP POP PUSH3 0x3A8 JUMP JUMPDEST DUP3 DUP1 SLOAD PUSH3 0x7F SWAP1 PUSH3 0x2B9 JUMP JUMPDEST SWAP1 PUSH1 0x0 MSTORE PUSH1 0x20 PUSH1 0x0 KECCAK256 SWAP1 PUSH1 0x1F ADD PUSH1 0x20 SWAP1 DIV DUP2 ADD SWAP3 DUP3 PUSH3 0xA3 JUMPI PUSH1 0x0 DUP6 SSTORE PUSH3 0xEF JUMP JUMPDEST DUP3 PUSH1 0x1F LT PUSH3 0xBE JUMPI DUP1 MLOAD PUSH1 0xFF NOT AND DUP4 DUP1 ADD OR DUP6 SSTORE PUSH3 0xEF JUMP JUMPDEST DUP3 DUP1 ADD PUSH1 0x1 ADD DUP6 SSTORE DUP3 ISZERO PUSH3 0xEF JUMPI SWAP2 DUP3 ADD JUMPDEST DUP3 DUP2 GT ISZERO PUSH3 0xEE JUMPI DUP3 MLOAD DUP3 SSTORE SWAP2 PUSH1 0x20 ADD SWAP2 SWAP1 PUSH1 0x1 ADD SWAP1 PUSH3 0xD1 JUMP JUMPDEST JUMPDEST POP SWAP1 POP PUSH3 0xFE SWAP2 SWAP1 PUSH3 0x102 JUMP JUMPDEST POP SWAP1 JUMP JUMPDEST JUMPDEST DUP1 DUP3 GT ISZERO PUSH3 0x11D JUMPI PUSH1 0x0 DUP2 PUSH1 0x0 SWAP1 SSTORE POP PUSH1 0x1 ADD PUSH3 0x103 JUMP JUMPDEST POP SWAP1 JUMP JUMPDEST PUSH1 0x0 PUSH3 0x138 PUSH3 0x132 DUP5 PUSH3 0x24D JUMP JUMPDEST PUSH3 0x224 JUMP JUMPDEST SWAP1 POP DUP3 DUP2 MSTORE PUSH1 0x20 DUP2 ADD DUP5 DUP5 DUP5 ADD GT ISZERO PUSH3 0x157 JUMPI PUSH3 0x156 PUSH3 0x388 JUMP JUMPDEST JUMPDEST PUSH3 0x164 DUP5 DUP3 DUP6 PUSH3 0x283 JUMP JUMPDEST POP SWAP4 SWAP3 POP POP POP JUMP JUMPDEST PUSH1 0x0 DUP3 PUSH1 0x1F DUP4 ADD SLT PUSH3 0x184 JUMPI PUSH3 0x183 PUSH3 0x383 JUMP JUMPDEST JUMPDEST DUP2 MLOAD PUSH3 0x196 DUP5 DUP3 PUSH1 0x20 DUP7 ADD PUSH3 0x121 JUMP JUMPDEST SWAP2 POP POP SWAP3 SWAP2 POP POP JUMP JUMPDEST PUSH1 0x0 DUP1 PUSH1 0x40 DUP4 DUP6 SUB SLT ISZERO PUSH3 0x1B9 JUMPI PUSH3 0x1B8 PUSH3 0x392 JUMP JUMPDEST JUMPDEST PUSH1 0x0 DUP4 ADD MLOAD PUSH8 0xFFFFFFFFFFFFFFFF DUP2 GT ISZERO PUSH3 0x1DA JUMPI PUSH3 0x1D9 PUSH3 0x38D JUMP JUMPDEST JUMPDEST PUSH3 0x1E8 DUP6 DUP3 DUP7 ADD PUSH3 0x16C JUMP JUMPDEST SWAP3 POP POP PUSH1 0x20 DUP4 ADD MLOAD PUSH8 0xFFFFFFFFFFFFFFFF DUP2 GT ISZERO PUSH3 0x20C JUMPI PUSH3 0x20B PUSH3 0x38D JUMP JUMPDEST JUMPDEST PUSH3 0x21A DUP6 DUP3 DUP7 ADD PUSH3 0x16C JUMP JUMPDEST SWAP2 POP POP SWAP3 POP SWAP3 SWAP1 POP JUMP JUMPDEST PUSH1 0x0 PUSH3 0x230 PUSH3 0x243 JUMP JUMPDEST SWAP1 POP PUSH3 0x23E DUP3 DUP3 PUSH3 0x2EF JUMP JUMPDEST SWAP2 SWAP1 POP JUMP JUMPDEST PUSH1 0x0 PUSH1 0x40 MLOAD SWAP1 POP SWAP1 JUMP JUMPDEST PUSH1 0x0 PUSH8 0xFFFFFFFFFFFFFFFF DUP3 GT ISZERO PUSH3 0x26B JUMPI PUSH3 0x26A PUSH3 0x354 JUMP JUMPDEST JUMPDEST PUSH3 0x276 DUP3 PUSH3 0x397 JUMP JUMPDEST SWAP1 POP PUSH1 0x20 DUP2 ADD SWAP1 POP SWAP2 SWAP1 POP JUMP JUMPDEST PUSH1 0x0 JUMPDEST DUP4 DUP2 LT ISZERO PUSH3 0x2A3 JUMPI DUP1 DUP3 ADD MLOAD DUP2 DUP5 ADD MSTORE PUSH1 0x20 DUP2 ADD SWAP1 POP PUSH3 0x286 JUMP JUMPDEST DUP4 DUP2 GT ISZERO PUSH3 0x2B3 JUMPI PUSH1 0x0 DUP5 DUP5 ADD MSTORE JUMPDEST POP POP POP POP JUMP JUMPDEST PUSH1 0x0 PUSH1 0x2 DUP3 DIV SWAP1 POP PUSH1 0x1 DUP3 AND DUP1 PUSH3 0x2D2 JUMPI PUSH1 0x7F DUP3 AND SWAP2 POP JUMPDEST PUSH1 0x20 DUP3 LT DUP2 EQ ISZERO PUSH3 0x2E9 JUMPI PUSH3 0x2E8 PUSH3 0x325 JUMP JUMPDEST JUMPDEST POP SWAP2 SWAP1 POP JUMP JUMPDEST PUSH3 0x2FA DUP3 PUSH3 0x397 JUMP JUMPDEST DUP2 ADD DUP2 DUP2 LT PUSH8 0xFFFFFFFFFFFFFFFF DUP3 GT OR ISZERO PUSH3 0x31C JUMPI PUSH3 0x31B PUSH3 0x354 JUMP JUMPDEST JUMPDEST DUP1 PUSH1 0x40 MSTORE POP POP POP JUMP JUMPDEST PUSH32 0x4E487B7100000000000000000000000000000000000000000000000000000000 PUSH1 0x0 MSTORE PUSH1 0x22 PUSH1 0x4 MSTORE PUSH1 0x24 PUSH1 0x0 REVERT JUMPDEST PUSH32 0x4E487B7100000000000000000000000000000000000000000000000000000000 PUSH1 0x0 MSTORE PUSH1 0x41 PUSH1 0x4 MSTORE PUSH1 0x24 PUSH1 0x0 REVERT JUMPDEST PUSH1 0x0 DUP1 REVERT JUMPDEST PUSH1 0x0 DUP1 REVERT JUMPDEST PUSH1 0x0 DUP1 REVERT JUMPDEST PUSH1 0x0 DUP1 REVERT JUMPDEST PUSH1 0x0 PUSH1 0x1F NOT PUSH1 0x1F DUP4 ADD AND SWAP1 POP SWAP2 SWAP1 POP JUMP JUMPDEST PUSH2 0x25F8 DUP1 PUSH3 0x3B8 PUSH1 0x0 CODECOPY PUSH1 0x0 RETURN INVALID PUSH1 0x80 PUSH1 0x40 MSTORE CALLVALUE DUP1 ISZERO PUSH2 0x10 JUMPI PUSH1 0x0 DUP1 REVERT JUMPDEST POP PUSH1 0x4 CALLDATASIZE LT PUSH2 0xEA JUMPI PUSH1 0x0 CALLDATALOAD PUSH1 0xE0 SHR DUP1 PUSH4 0x70A08231 GT PUSH2 0x8C JUMPI DUP1 PUSH4 0xAEDA852F GT PUSH2 0x66 JUMPI DUP1 PUSH4 0xAEDA852F EQ PUSH2 0x25B JUMPI DUP1 PUSH4 0xB88D4FDE EQ PUSH2 0x293 JUMPI DUP1 PUSH4 0xC87B56DD EQ PUSH2 0x2AF JUMPI DUP1 PUSH4 0xE985E9C5 EQ PUSH2 0x2DF JUMPI PUSH2 0xEA JUMP JUMPDEST DUP1 PUSH4 0x70A08231 EQ PUSH2 0x1F1 JUMPI DUP1 PUSH4 0x95D89B41 EQ PUSH2 0x221 JUMPI DUP1 PUSH4 0xA22CB465 EQ PUSH2 0x23F JUMPI PUSH2 0xEA JUMP JUMPDEST DUP1 PUSH4 0x95EA7B3 GT PUSH2 0xC8 JUMPI DUP1 PUSH4 0x95EA7B3 EQ PUSH2 0x16D JUMPI DUP1 PUSH4 0x23B872DD EQ PUSH2 0x189 JUMPI DUP1 PUSH4 0x42842E0E EQ PUSH2 0x1A5 JUMPI DUP1 PUSH4 0x6352211E EQ PUSH2 0x1C1 JUMPI PUSH2 0xEA JUMP JUMPDEST DUP1 PUSH4 0x1FFC9A7 EQ PUSH2 0xEF JUMPI DUP1 PUSH4 0x6FDDE03 EQ PUSH2 0x11F JUMPI DUP1 PUSH4 0x81812FC EQ PUSH2 0x13D JUMPI JUMPDEST PUSH1 0x0 DUP1 REVERT JUMPDEST PUSH2 0x109 PUSH1 0x4 DUP1 CALLDATASIZE SUB DUP2 ADD SWAP1 PUSH2 0x104 SWAP2 SWAP1 PUSH2 0x17EF JUMP JUMPDEST PUSH2 0x30F JUMP JUMPDEST PUSH1 0x40 MLOAD PUSH2 0x116 SWAP2 SWAP1 PUSH2 0x1B75 JUMP JUMPDEST PUSH1 0x40 MLOAD DUP1 SWAP2 SUB SWAP1 RETURN JUMPDEST PUSH2 0x127 PUSH2 0x3F1 JUMP JUMPDEST PUSH1 0x40 MLOAD PUSH2 0x134 SWAP2 SWAP1 PUSH2 0x1B90 JUMP JUMPDEST PUSH1 0x40 MLOAD DUP1 SWAP2 SUB SWAP1 RETURN JUMPDEST PUSH2 0x157 PUSH1 0x4 DUP1 CALLDATASIZE SUB DUP2 ADD SWAP1 PUSH2 0x152 SWAP2 SWAP1 PUSH2 0x1849 JUMP JUMPDEST PUSH2 0x483 JUMP JUMPDEST PUSH1 0x40 MLOAD PUSH2 0x164 SWAP2 SWAP1 PUSH2 0x1B0E JUMP JUMPDEST PUSH1 0x40 MLOAD DUP1 SWAP2 SUB SWAP1 RETURN JUMPDEST PUSH2 0x187 PUSH1 0x4 DUP1 CALLDATASIZE SUB DUP2 ADD SWAP1 PUSH2 0x182 SWAP2 SWAP1 PUSH2 0x17AF JUMP JUMPDEST PUSH2 0x508 JUMP JUMPDEST STOP JUMPDEST PUSH2 0x1A3 PUSH1 0x4 DUP1 CALLDATASIZE SUB DUP2 ADD SWAP1 PUSH2 0x19E SWAP2 SWAP1 PUSH2 0x1699 JUMP JUMPDEST PUSH2 0x620 JUMP JUMPDEST STOP JUMPDEST PUSH2 0x1BF PUSH1 0x4 DUP1 CALLDATASIZE SUB DUP2 ADD SWAP1 PUSH2 0x1BA SWAP2 SWAP1 PUSH2 0x1699 JUMP JUMPDEST PUSH2 0x680 JUMP JUMPDEST STOP JUMPDEST PUSH2 0x1DB PUSH1 0x4 DUP1 CALLDATASIZE SUB DUP2 ADD SWAP1 PUSH2 0x1D6 SWAP2 SWAP1 PUSH2 0x1849 JUMP JUMPDEST PUSH2 0x6A0 JUMP JUMPDEST PUSH1 0x40 MLOAD PUSH2 0x1E8 SWAP2 SWAP1 PUSH2 0x1B0E JUMP JUMPDEST PUSH1 0x40 MLOAD DUP1 SWAP2 SUB SWAP1 RETURN JUMPDEST PUSH2 0x20B PUSH1 0x4 DUP1 CALLDATASIZE SUB DUP2 ADD SWAP1 PUSH2 0x206 SWAP2 SWAP1 PUSH2 0x162C JUMP JUMPDEST PUSH2 0x752 JUMP JUMPDEST PUSH1 0x40 MLOAD PUSH2 0x218 SWAP2 SWAP1 PUSH2 0x1D32 JUMP JUMPDEST PUSH1 0x40 MLOAD DUP1 SWAP2 SUB SWAP1 RETURN JUMPDEST PUSH2 0x229 PUSH2 0x80A JUMP JUMPDEST PUSH1 0x40 MLOAD PUSH2 0x236 SWAP2 SWAP1 PUSH2 0x1B90 JUMP JUMPDEST PUSH1 0x40 MLOAD DUP1 SWAP2 SUB SWAP1 RETURN JUMPDEST PUSH2 0x259 PUSH1 0x4 DUP1 CALLDATASIZE SUB DUP2 ADD SWAP1 PUSH2 0x254 SWAP2 SWAP1 PUSH2 0x176F JUMP JUMPDEST PUSH2 0x89C JUMP JUMPDEST STOP JUMPDEST PUSH2 0x275 PUSH1 0x4 DUP1 CALLDATASIZE SUB DUP2 ADD SWAP1 PUSH2 0x270 SWAP2 SWAP1 PUSH2 0x1849 JUMP JUMPDEST PUSH2 0x8B2 JUMP JUMPDEST PUSH1 0x40 MLOAD PUSH2 0x28A SWAP10 SWAP9 SWAP8 SWAP7 SWAP6 SWAP5 SWAP4 SWAP3 SWAP2 SWAP1 PUSH2 0x1D4D JUMP JUMPDEST PUSH1 0x40 MLOAD DUP1 SWAP2 SUB SWAP1 RETURN JUMPDEST PUSH2 0x2AD PUSH1 0x4 DUP1 CALLDATASIZE SUB DUP2 ADD SWAP1 PUSH2 0x2A8 SWAP2 SWAP1 PUSH2 0x16EC JUMP JUMPDEST PUSH2 0x9D5 JUMP JUMPDEST STOP JUMPDEST PUSH2 0x2C9 PUSH1 0x4 DUP1 CALLDATASIZE SUB DUP2 ADD SWAP1 PUSH2 0x2C4 SWAP2 SWAP1 PUSH2 0x1849 JUMP JUMPDEST PUSH2 0xA37 JUMP JUMPDEST PUSH1 0x40 MLOAD PUSH2 0x2D6 SWAP2 SWAP1 PUSH2 0x1B90 JUMP JUMPDEST PUSH1 0x40 MLOAD DUP1 SWAP2 SUB SWAP1 RETURN JUMPDEST PUSH2 0x2F9 PUSH1 0x4 DUP1 CALLDATASIZE SUB DUP2 ADD SWAP1 PUSH2 0x2F4 SWAP2 SWAP1 PUSH2 0x1659 JUMP JUMPDEST PUSH2 0xADE JUMP JUMPDEST PUSH1 0x40 MLOAD PUSH2 0x306 SWAP2 SWAP1 PUSH2 0x1B75 JUMP JUMPDEST PUSH1 0x40 MLOAD DUP1 SWAP2 SUB SWAP1 RETURN JUMPDEST PUSH1 0x0 PUSH32 0x80AC58CD00000000000000000000000000000000000000000000000000000000 PUSH28 0xFFFFFFFFFFFFFFFFFFFFFFFFFFFFFFFFFFFFFFFFFFFFFFFFFFFFFFFF NOT AND DUP3 PUSH28 0xFFFFFFFFFFFFFFFFFFFFFFFFFFFFFFFFFFFFFFFFFFFFFFFFFFFFFFFF NOT AND EQ DUP1 PUSH2 0x3DA JUMPI POP PUSH32 0x5B5E139F00000000000000000000000000000000000000000000000000000000 PUSH28 0xFFFFFFFFFFFFFFFFFFFFFFFFFFFFFFFFFFFFFFFFFFFFFFFFFFFFFFFF NOT AND DUP3 PUSH28 0xFFFFFFFFFFFFFFFFFFFFFFFFFFFFFFFFFFFFFFFFFFFFFFFFFFFFFFFF NOT AND EQ JUMPDEST DUP1 PUSH2 0x3EA JUMPI POP PUSH2 0x3E9 DUP3 PUSH2 0xB72 JUMP JUMPDEST JUMPDEST SWAP1 POP SWAP2 SWAP1 POP JUMP JUMPDEST PUSH1 0x60 PUSH1 0x0 DUP1 SLOAD PUSH2 0x400 SWAP1 PUSH2 0x1FEB JUMP JUMPDEST DUP1 PUSH1 0x1F ADD PUSH1 0x20 DUP1 SWAP2 DIV MUL PUSH1 0x20 ADD PUSH1 0x40 MLOAD SWAP1 DUP2 ADD PUSH1 0x40 MSTORE DUP1 SWAP3 SWAP2 SWAP1 DUP2 DUP2 MSTORE PUSH1 0x20 ADD DUP3 DUP1 SLOAD PUSH2 0x42C SWAP1 PUSH2 0x1FEB JUMP JUMPDEST DUP1 ISZERO PUSH2 0x479 JUMPI DUP1 PUSH1 0x1F LT PUSH2 0x44E JUMPI PUSH2 0x100 DUP1 DUP4 SLOAD DIV MUL DUP4 MSTORE SWAP2 PUSH1 0x20 ADD SWAP2 PUSH2 0x479 JUMP JUMPDEST DUP3 ADD SWAP2 SWAP1 PUSH1 0x0 MSTORE PUSH1 0x20 PUSH1 0x0 KECCAK256 SWAP1 JUMPDEST DUP2 SLOAD DUP2 MSTORE SWAP1 PUSH1 0x1 ADD SWAP1 PUSH1 0x20 ADD DUP1 DUP4 GT PUSH2 0x45C JUMPI DUP3 SWAP1 SUB PUSH1 0x1F AND DUP3 ADD SWAP2 JUMPDEST POP POP POP POP POP SWAP1 POP SWAP1 JUMP JUMPDEST PUSH1 0x0 PUSH2 0x48E DUP3 PUSH2 0xBDC JUMP JUMPDEST PUSH2 0x4CD JUMPI PUSH1 0x40 MLOAD PUSH32 0x8C379A000000000000000000000000000000000000000000000000000000000 DUP2 MSTORE PUSH1 0x4 ADD PUSH2 0x4C4 SWAP1 PUSH2 0x1CB2 JUMP JUMPDEST PUSH1 0x40 MLOAD DUP1 SWAP2 SUB SWAP1 REVERT JUMPDEST PUSH1 0x4 PUSH1 0x0 DUP4 DUP2 MSTORE PUSH1 0x20 ADD SWAP1 DUP2 MSTORE PUSH1 0x20 ADD PUSH1 0x0 KECCAK256 PUSH1 0x0 SWAP1 SLOAD SWAP1 PUSH2 0x100 EXP SWAP1 DIV PUSH20 0xFFFFFFFFFFFFFFFFFFFFFFFFFFFFFFFFFFFFFFFF AND SWAP1 POP SWAP2 SWAP1 POP JUMP JUMPDEST PUSH1 0x0 PUSH2 0x513 DUP3 PUSH2 0x6A0 JUMP JUMPDEST SWAP1 POP DUP1 PUSH20 0xFFFFFFFFFFFFFFFFFFFFFFFFFFFFFFFFFFFFFFFF AND DUP4 PUSH20 0xFFFFFFFFFFFFFFFFFFFFFFFFFFFFFFFFFFFFFFFF AND EQ ISZERO PUSH2 0x584 JUMPI PUSH1 0x40 MLOAD PUSH32 0x8C379A000000000000000000000000000000000000000000000000000000000 DUP2 MSTORE PUSH1 0x4 ADD PUSH2 0x57B SWAP1 PUSH2 0x1CF2 JUMP JUMPDEST PUSH1 0x40 MLOAD DUP1 SWAP2 SUB SWAP1 REVERT JUMPDEST DUP1 PUSH20 0xFFFFFFFFFFFFFFFFFFFFFFFFFFFFFFFFFFFFFFFF AND PUSH2 0x5A3 PUSH2 0xC48 JUMP JUMPDEST PUSH20 0xFFFFFFFFFFFFFFFFFFFFFFFFFFFFFFFFFFFFFFFF AND EQ DUP1 PUSH2 0x5D2 JUMPI POP PUSH2 0x5D1 DUP2 PUSH2 0x5CC PUSH2 0xC48 JUMP JUMPDEST PUSH2 0xADE JUMP JUMPDEST JUMPDEST PUSH2 0x611 JUMPI PUSH1 0x40 MLOAD PUSH32 0x8C379A000000000000000000000000000000000000000000000000000000000 DUP2 MSTORE PUSH1 0x4 ADD PUSH2 0x608 SWAP1 PUSH2 0x1C72 JUMP JUMPDEST PUSH1 0x40 MLOAD DUP1 SWAP2 SUB SWAP1 REVERT JUMPDEST PUSH2 0x61B DUP4 DUP4 PUSH2 0xC50 JUMP JUMPDEST POP POP POP JUMP JUMPDEST PUSH2 0x631 PUSH2 0x62B PUSH2 0xC48 JUMP JUMPDEST DUP3 PUSH2 0xD09 JUMP JUMPDEST PUSH2 0x670 JUMPI PUSH1 0x40 MLOAD PUSH32 0x8C379A000000000000000000000000000000000000000000000000000000000 DUP2 MSTORE PUSH1 0x4 ADD PUSH2 0x667 SWAP1 PUSH2 0x1D12 JUMP JUMPDEST PUSH1 0x40 MLOAD DUP1 SWAP2 SUB SWAP1 REVERT JUMPDEST PUSH2 0x67B DUP4 DUP4 DUP4 PUSH2 0xDE7 JUMP JUMPDEST POP POP POP JUMP JUMPDEST PUSH2 0x69B DUP4 DUP4 DUP4 PUSH1 0x40 MLOAD DUP1 PUSH1 0x20 ADD PUSH1 0x40 MSTORE DUP1 PUSH1 0x0 DUP2 MSTORE POP PUSH2 0x9D5 JUMP JUMPDEST POP POP POP JUMP JUMPDEST PUSH1 0x0 DUP1 PUSH1 0x2 PUSH1 0x0 DUP5 DUP2 MSTORE PUSH1 0x20 ADD SWAP1 DUP2 MSTORE PUSH1 0x20 ADD PUSH1 0x0 KECCAK256 PUSH1 0x0 SWAP1 SLOAD SWAP1 PUSH2 0x100 EXP SWAP1 DIV PUSH20 0xFFFFFFFFFFFFFFFFFFFFFFFFFFFFFFFFFFFFFFFF AND SWAP1 POP PUSH1 0x0 PUSH20 0xFFFFFFFFFFFFFFFFFFFFFFFFFFFFFFFFFFFFFFFF AND DUP2 PUSH20 0xFFFFFFFFFFFFFFFFFFFFFFFFFFFFFFFFFFFFFFFF AND EQ ISZERO PUSH2 0x749 JUMPI PUSH1 0x40 MLOAD PUSH32 0x8C379A000000000000000000000000000000000000000000000000000000000 DUP2 MSTORE PUSH1 0x4 ADD PUSH2 0x740 SWAP1 PUSH2 0x1C92 JUMP JUMPDEST PUSH1 0x40 MLOAD DUP1 SWAP2 SUB SWAP1 REVERT JUMPDEST DUP1 SWAP2 POP POP SWAP2 SWAP1 POP JUMP JUMPDEST PUSH1 0x0 DUP1 PUSH20 0xFFFFFFFFFFFFFFFFFFFFFFFFFFFFFFFFFFFFFFFF AND DUP3 PUSH20 0xFFFFFFFFFFFFFFFFFFFFFFFFFFFFFFFFFFFFFFFF AND EQ ISZERO PUSH2 0x7C3 JUMPI PUSH1 0x40 MLOAD PUSH32 0x8C379A000000000000000000000000000000000000000000000000000000000 DUP2 MSTORE PUSH1 0x4 ADD PUSH2 0x7BA SWAP1 PUSH2 0x1C52 JUMP JUMPDEST PUSH1 0x40 MLOAD DUP1 SWAP2 SUB SWAP1 REVERT JUMPDEST PUSH1 0x3 PUSH1 0x0 DUP4 PUSH20 0xFFFFFFFFFFFFFFFFFFFFFFFFFFFFFFFFFFFFFFFF AND PUSH20 0xFFFFFFFFFFFFFFFFFFFFFFFFFFFFFFFFFFFFFFFF AND DUP2 MSTORE PUSH1 0x20 ADD SWAP1 DUP2 MSTORE PUSH1 0x20 ADD PUSH1 0x0 KECCAK256 SLOAD SWAP1 POP SWAP2 SWAP1 POP JUMP JUMPDEST PUSH1 0x60 PUSH1 0x1 DUP1 SLOAD PUSH2 0x819 SWAP1 PUSH2 0x1FEB JUMP JUMPDEST DUP1 PUSH1 0x1F ADD PUSH1 0x20 DUP1 SWAP2 DIV MUL PUSH1 0x20 ADD PUSH1 0x40 MLOAD SWAP1 DUP2 ADD PUSH1 0x40 MSTORE DUP1 SWAP3 SWAP2 SWAP1 DUP2 DUP2 MSTORE PUSH1 0x20 ADD DUP3 DUP1 SLOAD PUSH2 0x845 SWAP1 PUSH2 0x1FEB JUMP JUMPDEST DUP1 ISZERO PUSH2 0x892 JUMPI DUP1 PUSH1 0x1F LT PUSH2 0x867 JUMPI PUSH2 0x100 DUP1 DUP4 SLOAD DIV MUL DUP4 MSTORE SWAP2 PUSH1 0x20 ADD SWAP2 PUSH2 0x892 JUMP JUMPDEST DUP3 ADD SWAP2 SWAP1 PUSH1 0x0 MSTORE PUSH1 0x20 PUSH1 0x0 KECCAK256 SWAP1 JUMPDEST DUP2 SLOAD DUP2 MSTORE SWAP1 PUSH1 0x1 ADD SWAP1 PUSH1 0x20 ADD DUP1 DUP4 GT PUSH2 0x875 JUMPI DUP3 SWAP1 SUB PUSH1 0x1F AND DUP3 ADD SWAP2 JUMPDEST POP POP POP POP POP SWAP1 POP SWAP1 JUMP JUMPDEST PUSH2 0x8AE PUSH2 0x8A7 PUSH2 0xC48 JUMP JUMPDEST DUP4 DUP4 PUSH2 0x104E JUMP JUMPDEST POP POP JUMP JUMPDEST PUSH1 0x6 PUSH1 0x20 MSTORE DUP1 PUSH1 0x0 MSTORE PUSH1 0x40 PUSH1 0x0 KECCAK256 PUSH1 0x0 SWAP2 POP SWAP1 POP DUP1 PUSH1 0x0 ADD SLOAD SWAP1 DUP1 PUSH1 0x1 ADD SLOAD SWAP1 DUP1 PUSH1 0x2 ADD SLOAD SWAP1 DUP1 PUSH1 0x3 ADD SLOAD SWAP1 DUP1 PUSH1 0x4 ADD SLOAD SWAP1 DUP1 PUSH1 0x5 ADD PUSH1 0x0 SWAP1 SLOAD SWAP1 PUSH2 0x100 EXP SWAP1 DIV PUSH20 0xFFFFFFFFFFFFFFFFFFFFFFFFFFFFFFFFFFFFFFFF AND SWAP1 DUP1 PUSH1 0x6 ADD PUSH1 0x0 SWAP1 SLOAD SWAP1 PUSH2 0x100 EXP SWAP1 DIV PUSH20 0xFFFFFFFFFFFFFFFFFFFFFFFFFFFFFFFFFFFFFFFF AND SWAP1 DUP1 PUSH1 0x7 ADD DUP1 SLOAD PUSH2 0x93F SWAP1 PUSH2 0x1FEB JUMP JUMPDEST DUP1 PUSH1 0x1F ADD PUSH1 0x20 DUP1 SWAP2 DIV MUL PUSH1 0x20 ADD PUSH1 0x40 MLOAD SWAP1 DUP2 ADD PUSH1 0x40 MSTORE DUP1 SWAP3 SWAP2 SWAP1 DUP2 DUP2 MSTORE PUSH1 0x20 ADD DUP3 DUP1 SLOAD PUSH2 0x96B SWAP1 PUSH2 0x1FEB JUMP JUMPDEST DUP1 ISZERO PUSH2 0x9B8 JUMPI DUP1 PUSH1 0x1F LT PUSH2 0x98D JUMPI PUSH2 0x100 DUP1 DUP4 SLOAD DIV MUL DUP4 MSTORE SWAP2 PUSH1 0x20 ADD SWAP2 PUSH2 0x9B8 JUMP JUMPDEST DUP3 ADD SWAP2 SWAP1 PUSH1 0x0 MSTORE PUSH1 0x20 PUSH1 0x0 KECCAK256 SWAP1 JUMPDEST DUP2 SLOAD DUP2 MSTORE SWAP1 PUSH1 0x1 ADD SWAP1 PUSH1 0x20 ADD DUP1 DUP4 GT PUSH2 0x99B JUMPI DUP3 SWAP1 SUB PUSH1 0x1F AND DUP3 ADD SWAP2 JUMPDEST POP POP POP POP POP SWAP1 DUP1 PUSH1 0x8 ADD PUSH1 0x0 SWAP1 SLOAD SWAP1 PUSH2 0x100 EXP SWAP1 DIV PUSH1 0xFF AND SWAP1 POP DUP10 JUMP JUMPDEST PUSH2 0x9E6 PUSH2 0x9E0 PUSH2 0xC48 JUMP JUMPDEST DUP4 PUSH2 0xD09 JUMP JUMPDEST PUSH2 0xA25 JUMPI PUSH1 0x40 MLOAD PUSH32 0x8C379A000000000000000000000000000000000000000000000000000000000 DUP2 MSTORE PUSH1 0x4 ADD PUSH2 0xA1C SWAP1 PUSH2 0x1D12 JUMP JUMPDEST PUSH1 0x40 MLOAD DUP1 SWAP2 SUB SWAP1 REVERT JUMPDEST PUSH2 0xA31 DUP5 DUP5 DUP5 DUP5 PUSH2 0x11BB JUMP JUMPDEST POP POP POP POP JUMP JUMPDEST PUSH1 0x60 PUSH2 0xA42 DUP3 PUSH2 0xBDC JUMP JUMPDEST PUSH2 0xA81 JUMPI PUSH1 0x40 MLOAD PUSH32 0x8C379A000000000000000000000000000000000000000000000000000000000 DUP2 MSTORE PUSH1 0x4 ADD PUSH2 0xA78 SWAP1 PUSH2 0x1CD2 JUMP JUMPDEST PUSH1 0x40 MLOAD DUP1 SWAP2 SUB SWAP1 REVERT JUMPDEST PUSH1 0x0 PUSH2 0xA8B PUSH2 0x1217 JUMP JUMPDEST SWAP1 POP PUSH1 0x0 DUP2 MLOAD GT PUSH2 0xAAB JUMPI PUSH1 0x40 MLOAD DUP1 PUSH1 0x20 ADD PUSH1 0x40 MSTORE DUP1 PUSH1 0x0 DUP2 MSTORE POP PUSH2 0xAD6 JUMP JUMPDEST DUP1 PUSH2 0xAB5 DUP5 PUSH2 0x122E JUMP JUMPDEST PUSH1 0x40 MLOAD PUSH1 0x20 ADD PUSH2 0xAC6 SWAP3 SWAP2 SWAP1 PUSH2 0x1AEA JUMP JUMPDEST PUSH1 0x40 MLOAD PUSH1 0x20 DUP2 DUP4 SUB SUB DUP2 MSTORE SWAP1 PUSH1 0x40 MSTORE JUMPDEST SWAP2 POP POP SWAP2 SWAP1 POP JUMP JUMPDEST PUSH1 0x0 PUSH1 0x5 PUSH1 0x0 DUP5 PUSH20 0xFFFFFFFFFFFFFFFFFFFFFFFFFFFFFFFFFFFFFFFF AND PUSH20 0xFFFFFFFFFFFFFFFFFFFFFFFFFFFFFFFFFFFFFFFF AND DUP2 MSTORE PUSH1 0x20 ADD SWAP1 DUP2 MSTORE PUSH1 0x20 ADD PUSH1 0x0 KECCAK256 PUSH1 0x0 DUP4 PUSH20 0xFFFFFFFFFFFFFFFFFFFFFFFFFFFFFFFFFFFFFFFF AND PUSH20 0xFFFFFFFFFFFFFFFFFFFFFFFFFFFFFFFFFFFFFFFF AND DUP2 MSTORE PUSH1 0x20 ADD SWAP1 DUP2 MSTORE PUSH1 0x20 ADD PUSH1 0x0 KECCAK256 PUSH1 0x0 SWAP1 SLOAD SWAP1 PUSH2 0x100 EXP SWAP1 DIV PUSH1 0xFF AND SWAP1 POP SWAP3 SWAP2 POP POP JUMP JUMPDEST PUSH1 0x0 PUSH32 0x1FFC9A700000000000000000000000000000000000000000000000000000000 PUSH28 0xFFFFFFFFFFFFFFFFFFFFFFFFFFFFFFFFFFFFFFFFFFFFFFFFFFFFFFFF NOT AND DUP3 PUSH28 0xFFFFFFFFFFFFFFFFFFFFFFFFFFFFFFFFFFFFFFFFFFFFFFFFFFFFFFFF NOT AND EQ SWAP1 POP SWAP2 SWAP1 POP JUMP JUMPDEST PUSH1 0x0 DUP1 PUSH20 0xFFFFFFFFFFFFFFFFFFFFFFFFFFFFFFFFFFFFFFFF AND PUSH1 0x2 PUSH1 0x0 DUP5 DUP2 MSTORE PUSH1 0x20 ADD SWAP1 DUP2 MSTORE PUSH1 0x20 ADD PUSH1 0x0 KECCAK256 PUSH1 0x0 SWAP1 SLOAD SWAP1 PUSH2 0x100 EXP SWAP1 DIV PUSH20 0xFFFFFFFFFFFFFFFFFFFFFFFFFFFFFFFFFFFFFFFF AND PUSH20 0xFFFFFFFFFFFFFFFFFFFFFFFFFFFFFFFFFFFFFFFF AND EQ ISZERO SWAP1 POP SWAP2 SWAP1 POP JUMP JUMPDEST PUSH1 0x0 CALLER SWAP1 POP SWAP1 JUMP JUMPDEST DUP2 PUSH1 0x4 PUSH1 0x0 DUP4 DUP2 MSTORE PUSH1 0x20 ADD SWAP1 DUP2 MSTORE PUSH1 0x20 ADD PUSH1 0x0 KECCAK256 PUSH1 0x0 PUSH2 0x100 EXP DUP2 SLOAD DUP2 PUSH20 0xFFFFFFFFFFFFFFFFFFFFFFFFFFFFFFFFFFFFFFFF MUL NOT AND SWAP1 DUP4 PUSH20 0xFFFFFFFFFFFFFFFFFFFFFFFFFFFFFFFFFFFFFFFF AND MUL OR SWAP1 SSTORE POP DUP1 DUP3 PUSH20 0xFFFFFFFFFFFFFFFFFFFFFFFFFFFFFFFFFFFFFFFF AND PUSH2 0xCC3 DUP4 PUSH2 0x6A0 JUMP JUMPDEST PUSH20 0xFFFFFFFFFFFFFFFFFFFFFFFFFFFFFFFFFFFFFFFF AND PUSH32 0x8C5BE1E5EBEC7D5BD14F71427D1E84F3DD0314C0F7B2291E5B200AC8C7C3B925 PUSH1 0x40 MLOAD PUSH1 0x40 MLOAD DUP1 SWAP2 SUB SWAP1 LOG4 POP POP JUMP JUMPDEST PUSH1 0x0 PUSH2 0xD14 DUP3 PUSH2 0xBDC JUMP JUMPDEST PUSH2 0xD53 JUMPI PUSH1 0x40 MLOAD PUSH32 0x8C379A000000000000000000000000000000000000000000000000000000000 DUP2 MSTORE PUSH1 0x4 ADD PUSH2 0xD4A SWAP1 PUSH2 0x1C32 JUMP JUMPDEST PUSH1 0x40 MLOAD DUP1 SWAP2 SUB SWAP1 REVERT JUMPDEST PUSH1 0x0 PUSH2 0xD5E DUP4 PUSH2 0x6A0 JUMP JUMPDEST SWAP1 POP DUP1 PUSH20 0xFFFFFFFFFFFFFFFFFFFFFFFFFFFFFFFFFFFFFFFF AND DUP5 PUSH20 0xFFFFFFFFFFFFFFFFFFFFFFFFFFFFFFFFFFFFFFFF AND EQ DUP1 PUSH2 0xDA0 JUMPI POP PUSH2 0xD9F DUP2 DUP6 PUSH2 0xADE JUMP JUMPDEST JUMPDEST DUP1 PUSH2 0xDDE JUMPI POP DUP4 PUSH20 0xFFFFFFFFFFFFFFFFFFFFFFFFFFFFFFFFFFFFFFFF AND PUSH2 0xDC6 DUP5 PUSH2 0x483 JUMP JUMPDEST PUSH20 0xFFFFFFFFFFFFFFFFFFFFFFFFFFFFFFFFFFFFFFFF AND EQ JUMPDEST SWAP2 POP POP SWAP3 SWAP2 POP POP JUMP JUMPDEST DUP3 PUSH20 0xFFFFFFFFFFFFFFFFFFFFFFFFFFFFFFFFFFFFFFFF AND PUSH2 0xE07 DUP3 PUSH2 0x6A0 JUMP JUMPDEST PUSH20 0xFFFFFFFFFFFFFFFFFFFFFFFFFFFFFFFFFFFFFFFF AND EQ PUSH2 0xE5D JUMPI PUSH1 0x40 MLOAD PUSH32 0x8C379A000000000000000000000000000000000000000000000000000000000 DUP2 MSTORE PUSH1 0x4 ADD PUSH2 0xE54 SWAP1 PUSH2 0x1BD2 JUMP JUMPDEST PUSH1 0x40 MLOAD DUP1 SWAP2 SUB SWAP1 REVERT JUMPDEST PUSH1 0x0 PUSH20 0xFFFFFFFFFFFFFFFFFFFFFFFFFFFFFFFFFFFFFFFF AND DUP3 PUSH20 0xFFFFFFFFFFFFFFFFFFFFFFFFFFFFFFFFFFFFFFFF AND EQ ISZERO PUSH2 0xECD JUMPI PUSH1 0x40 MLOAD PUSH32 0x8C379A000000000000000000000000000000000000000000000000000000000 DUP2 MSTORE PUSH1 0x4 ADD PUSH2 0xEC4 SWAP1 PUSH2 0x1BF2 JUMP JUMPDEST PUSH1 0x40 MLOAD DUP1 SWAP2 SUB SWAP1 REVERT JUMPDEST PUSH2 0xED8 DUP4 DUP4 DUP4 PUSH2 0x138F JUMP JUMPDEST PUSH2 0xEE3 PUSH1 0x0 DUP3 PUSH2 0xC50 JUMP JUMPDEST PUSH1 0x1 PUSH1 0x3 PUSH1 0x0 DUP6 PUSH20 0xFFFFFFFFFFFFFFFFFFFFFFFFFFFFFFFFFFFFFFFF AND PUSH20 0xFFFFFFFFFFFFFFFFFFFFFFFFFFFFFFFFFFFFFFFF AND DUP2 MSTORE PUSH1 0x20 ADD SWAP1 DUP2 MSTORE PUSH1 0x20 ADD PUSH1 0x0 KECCAK256 PUSH1 0x0 DUP3 DUP3 SLOAD PUSH2 0xF33 SWAP2 SWAP1 PUSH2 0x1F01 JUMP JUMPDEST SWAP3 POP POP DUP2 SWAP1 SSTORE POP PUSH1 0x1 PUSH1 0x3 PUSH1 0x0 DUP5 PUSH20 0xFFFFFFFFFFFFFFFFFFFFFFFFFFFFFFFFFFFFFFFF AND PUSH20 0xFFFFFFFFFFFFFFFFFFFFFFFFFFFFFFFFFFFFFFFF AND DUP2 MSTORE PUSH1 0x20 ADD SWAP1 DUP2 MSTORE PUSH1 0x20 ADD PUSH1 0x0 KECCAK256 PUSH1 0x0 DUP3 DUP3 SLOAD PUSH2 0xF8A SWAP2 SWAP1 PUSH2 0x1E7A JUMP JUMPDEST SWAP3 POP POP DUP2 SWAP1 SSTORE POP DUP2 PUSH1 0x2 PUSH1 0x0 DUP4 DUP2 MSTORE PUSH1 0x20 ADD SWAP1 DUP2 MSTORE PUSH1 0x20 ADD PUSH1 0x0 KECCAK256 PUSH1 0x0 PUSH2 0x100 EXP DUP2 SLOAD DUP2 PUSH20 0xFFFFFFFFFFFFFFFFFFFFFFFFFFFFFFFFFFFFFFFF MUL NOT AND SWAP1 DUP4 PUSH20 0xFFFFFFFFFFFFFFFFFFFFFFFFFFFFFFFFFFFFFFFF AND MUL OR SWAP1 SSTORE POP DUP1 DUP3 PUSH20 0xFFFFFFFFFFFFFFFFFFFFFFFFFFFFFFFFFFFFFFFF AND DUP5 PUSH20 0xFFFFFFFFFFFFFFFFFFFFFFFFFFFFFFFFFFFFFFFF AND PUSH32 0xDDF252AD1BE2C89B69C2B068FC378DAA952BA7F163C4A11628F55A4DF523B3EF PUSH1 0x40 MLOAD PUSH1 0x40 MLOAD DUP1 SWAP2 SUB SWAP1 LOG4 PUSH2 0x1049 DUP4 DUP4 DUP4 PUSH2 0x1394 JUMP JUMPDEST POP POP POP JUMP JUMPDEST DUP2 PUSH20 0xFFFFFFFFFFFFFFFFFFFFFFFFFFFFFFFFFFFFFFFF AND DUP4 PUSH20 0xFFFFFFFFFFFFFFFFFFFFFFFFFFFFFFFFFFFFFFFF AND EQ ISZERO PUSH2 0x10BD JUMPI PUSH1 0x40 MLOAD PUSH32 0x8C379A000000000000000000000000000000000000000000000000000000000 DUP2 MSTORE PUSH1 0x4 ADD PUSH2 0x10B4 SWAP1 PUSH2 0x1C12 JUMP JUMPDEST PUSH1 0x40 MLOAD DUP1 SWAP2 SUB SWAP1 REVERT JUMPDEST DUP1 PUSH1 0x5 PUSH1 0x0 DUP6 PUSH20 0xFFFFFFFFFFFFFFFFFFFFFFFFFFFFFFFFFFFFFFFF AND PUSH20 0xFFFFFFFFFFFFFFFFFFFFFFFFFFFFFFFFFFFFFFFF AND DUP2 MSTORE PUSH1 0x20 ADD SWAP1 DUP2 MSTORE PUSH1 0x20 ADD PUSH1 0x0 KECCAK256 PUSH1 0x0 DUP5 PUSH20 0xFFFFFFFFFFFFFFFFFFFFFFFFFFFFFFFFFFFFFFFF AND PUSH20 0xFFFFFFFFFFFFFFFFFFFFFFFFFFFFFFFFFFFFFFFF AND DUP2 MSTORE PUSH1 0x20 ADD SWAP1 DUP2 MSTORE PUSH1 0x20 ADD PUSH1 0x0 KECCAK256 PUSH1 0x0 PUSH2 0x100 EXP DUP2 SLOAD DUP2 PUSH1 0xFF MUL NOT AND SWAP1 DUP4 ISZERO ISZERO MUL OR SWAP1 SSTORE POP DUP2 PUSH20 0xFFFFFFFFFFFFFFFFFFFFFFFFFFFFFFFFFFFFFFFF AND DUP4 PUSH20 0xFFFFFFFFFFFFFFFFFFFFFFFFFFFFFFFFFFFFFFFF AND PUSH32 0x17307EAB39AB6107E8899845AD3D59BD9653F200F220920489CA2B5937696C31 DUP4 PUSH1 0x40 MLOAD PUSH2 0x11AE SWAP2 SWAP1 PUSH2 0x1B75 JUMP JUMPDEST PUSH1 0x40 MLOAD DUP1 SWAP2 SUB SWAP1 LOG3 POP POP POP JUMP JUMPDEST PUSH2 0x11C6 DUP5 DUP5 DUP5 PUSH2 0xDE7 JUMP JUMPDEST PUSH2 0x11D2 DUP5 DUP5 DUP5 DUP5 PUSH2 0x1399 JUMP JUMPDEST PUSH2 0x1211 JUMPI PUSH1 0x40 MLOAD PUSH32 0x8C379A000000000000000000000000000000000000000000000000000000000 DUP2 MSTORE PUSH1 0x4 ADD PUSH2 0x1208 SWAP1 PUSH2 0x1BB2 JUMP JUMPDEST PUSH1 0x40 MLOAD DUP1 SWAP2 SUB SWAP1 REVERT JUMPDEST POP POP POP POP JUMP JUMPDEST PUSH1 0x60 PUSH1 0x40 MLOAD DUP1 PUSH1 0x20 ADD PUSH1 0x40 MSTORE DUP1 PUSH1 0x0 DUP2 MSTORE POP SWAP1 POP SWAP1 JUMP JUMPDEST PUSH1 0x60 PUSH1 0x0 DUP3 EQ ISZERO PUSH2 0x1276 JUMPI PUSH1 0x40 MLOAD DUP1 PUSH1 0x40 ADD PUSH1 0x40 MSTORE DUP1 PUSH1 0x1 DUP2 MSTORE PUSH1 0x20 ADD PUSH32 0x3000000000000000000000000000000000000000000000000000000000000000 DUP2 MSTORE POP SWAP1 POP PUSH2 0x138A JUMP JUMPDEST PUSH1 0x0 DUP3 SWAP1 POP PUSH1 0x0 JUMPDEST PUSH1 0x0 DUP3 EQ PUSH2 0x12A8 JUMPI DUP1 DUP1 PUSH2 0x1291 SWAP1 PUSH2 0x204E JUMP JUMPDEST SWAP2 POP POP PUSH1 0xA DUP3 PUSH2 0x12A1 SWAP2 SWAP1 PUSH2 0x1ED0 JUMP JUMPDEST SWAP2 POP PUSH2 0x127E JUMP JUMPDEST PUSH1 0x0 DUP2 PUSH8 0xFFFFFFFFFFFFFFFF DUP2 GT ISZERO PUSH2 0x12C4 JUMPI PUSH2 0x12C3 PUSH2 0x2184 JUMP JUMPDEST JUMPDEST PUSH1 0x40 MLOAD SWAP1 DUP1 DUP3 MSTORE DUP1 PUSH1 0x1F ADD PUSH1 0x1F NOT AND PUSH1 0x20 ADD DUP3 ADD PUSH1 0x40 MSTORE DUP1 ISZERO PUSH2 0x12F6 JUMPI DUP2 PUSH1 0x20 ADD PUSH1 0x1 DUP3 MUL DUP1 CALLDATASIZE DUP4 CALLDATACOPY DUP1 DUP3 ADD SWAP2 POP POP SWAP1 POP JUMPDEST POP SWAP1 POP JUMPDEST PUSH1 0x0 DUP6 EQ PUSH2 0x1383 JUMPI PUSH1 0x1 DUP3 PUSH2 0x130F SWAP2 SWAP1 PUSH2 0x1F01 JUMP JUMPDEST SWAP2 POP PUSH1 0xA DUP6 PUSH2 0x131E SWAP2 SWAP1 PUSH2 0x2097 JUMP JUMPDEST PUSH1 0x30 PUSH2 0x132A SWAP2 SWAP1 PUSH2 0x1E7A JUMP JUMPDEST PUSH1 0xF8 SHL DUP2 DUP4 DUP2 MLOAD DUP2 LT PUSH2 0x1340 JUMPI PUSH2 0x133F PUSH2 0x2155 JUMP JUMPDEST JUMPDEST PUSH1 0x20 ADD ADD SWAP1 PUSH31 0xFFFFFFFFFFFFFFFFFFFFFFFFFFFFFFFFFFFFFFFFFFFFFFFFFFFFFFFFFFFFFF NOT AND SWAP1 DUP2 PUSH1 0x0 BYTE SWAP1 MSTORE8 POP PUSH1 0xA DUP6 PUSH2 0x137C SWAP2 SWAP1 PUSH2 0x1ED0 JUMP JUMPDEST SWAP5 POP PUSH2 0x12FA JUMP JUMPDEST DUP1 SWAP4 POP POP POP POP JUMPDEST SWAP2 SWAP1 POP JUMP JUMPDEST POP POP POP JUMP JUMPDEST POP POP POP JUMP JUMPDEST PUSH1 0x0 PUSH2 0x13BA DUP5 PUSH20 0xFFFFFFFFFFFFFFFFFFFFFFFFFFFFFFFFFFFFFFFF AND PUSH2 0x1530 JUMP JUMPDEST ISZERO PUSH2 0x1523 JUMPI DUP4 PUSH20 0xFFFFFFFFFFFFFFFFFFFFFFFFFFFFFFFFFFFFFFFF AND PUSH4 0x150B7A02 PUSH2 0x13E3 PUSH2 0xC48 JUMP JUMPDEST DUP8 DUP7 DUP7 PUSH1 0x40 MLOAD DUP6 PUSH4 0xFFFFFFFF AND PUSH1 0xE0 SHL DUP2 MSTORE PUSH1 0x4 ADD PUSH2 0x1405 SWAP5 SWAP4 SWAP3 SWAP2 SWAP1 PUSH2 0x1B29 JUMP JUMPDEST PUSH1 0x20 PUSH1 0x40 MLOAD DUP1 DUP4 SUB DUP2 PUSH1 0x0 DUP8 DUP1 EXTCODESIZE ISZERO DUP1 ISZERO PUSH2 0x141F JUMPI PUSH1 0x0 DUP1 REVERT JUMPDEST POP GAS CALL SWAP3 POP POP POP DUP1 ISZERO PUSH2 0x1450 JUMPI POP PUSH1 0x40 MLOAD RETURNDATASIZE PUSH1 0x1F NOT PUSH1 0x1F DUP3 ADD AND DUP3 ADD DUP1 PUSH1 0x40 MSTORE POP DUP2 ADD SWAP1 PUSH2 0x144D SWAP2 SWAP1 PUSH2 0x181C JUMP JUMPDEST PUSH1 0x1 JUMPDEST PUSH2 0x14D3 JUMPI RETURNDATASIZE DUP1 PUSH1 0x0 DUP2 EQ PUSH2 0x1480 JUMPI PUSH1 0x40 MLOAD SWAP2 POP PUSH1 0x1F NOT PUSH1 0x3F RETURNDATASIZE ADD AND DUP3 ADD PUSH1 0x40 MSTORE RETURNDATASIZE DUP3 MSTORE RETURNDATASIZE PUSH1 0x0 PUSH1 0x20 DUP5 ADD RETURNDATACOPY PUSH2 0x1485 JUMP JUMPDEST PUSH1 0x60 SWAP2 POP JUMPDEST POP PUSH1 0x0 DUP2 MLOAD EQ ISZERO PUSH2 0x14CB JUMPI PUSH1 0x40 MLOAD PUSH32 0x8C379A000000000000000000000000000000000000000000000000000000000 DUP2 MSTORE PUSH1 0x4 ADD PUSH2 0x14C2 SWAP1 PUSH2 0x1BB2 JUMP JUMPDEST PUSH1 0x40 MLOAD DUP1 SWAP2 SUB SWAP1 REVERT JUMPDEST DUP1 MLOAD DUP2 PUSH1 0x20 ADD REVERT JUMPDEST PUSH4 0x150B7A02 PUSH1 0xE0 SHL PUSH28 0xFFFFFFFFFFFFFFFFFFFFFFFFFFFFFFFFFFFFFFFFFFFFFFFFFFFFFFFF NOT AND DUP2 PUSH28 0xFFFFFFFFFFFFFFFFFFFFFFFFFFFFFFFFFFFFFFFFFFFFFFFFFFFFFFFF NOT AND EQ SWAP2 POP POP PUSH2 0x1528 JUMP JUMPDEST PUSH1 0x1 SWAP1 POP JUMPDEST SWAP5 SWAP4 POP POP POP POP JUMP JUMPDEST PUSH1 0x0 DUP1 DUP3 PUSH20 0xFFFFFFFFFFFFFFFFFFFFFFFFFFFFFFFFFFFFFFFF AND EXTCODESIZE GT SWAP1 POP SWAP2 SWAP1 POP JUMP JUMPDEST PUSH1 0x0 PUSH2 0x1566 PUSH2 0x1561 DUP5 PUSH2 0x1E06 JUMP JUMPDEST PUSH2 0x1DE1 JUMP JUMPDEST SWAP1 POP DUP3 DUP2 MSTORE PUSH1 0x20 DUP2 ADD DUP5 DUP5 DUP5 ADD GT ISZERO PUSH2 0x1582 JUMPI PUSH2 0x1581 PUSH2 0x21B8 JUMP JUMPDEST JUMPDEST PUSH2 0x158D DUP5 DUP3 DUP6 PUSH2 0x1FA9 JUMP JUMPDEST POP SWAP4 SWAP3 POP POP POP JUMP JUMPDEST PUSH1 0x0 DUP2 CALLDATALOAD SWAP1 POP PUSH2 0x15A4 DUP2 PUSH2 0x2566 JUMP JUMPDEST SWAP3 SWAP2 POP POP JUMP JUMPDEST PUSH1 0x0 DUP2 CALLDATALOAD SWAP1 POP PUSH2 0x15B9 DUP2 PUSH2 0x257D JUMP JUMPDEST SWAP3 SWAP2 POP POP JUMP JUMPDEST PUSH1 0x0 DUP2 CALLDATALOAD SWAP1 POP PUSH2 0x15CE DUP2 PUSH2 0x2594 JUMP JUMPDEST SWAP3 SWAP2 POP POP JUMP JUMPDEST PUSH1 0x0 DUP2 MLOAD SWAP1 POP PUSH2 0x15E3 DUP2 PUSH2 0x2594 JUMP JUMPDEST SWAP3 SWAP2 POP POP JUMP JUMPDEST PUSH1 0x0 DUP3 PUSH1 0x1F DUP4 ADD SLT PUSH2 0x15FE JUMPI PUSH2 0x15FD PUSH2 0x21B3 JUMP JUMPDEST JUMPDEST DUP2 CALLDATALOAD PUSH2 0x160E DUP5 DUP3 PUSH1 0x20 DUP7 ADD PUSH2 0x1553 JUMP JUMPDEST SWAP2 POP POP SWAP3 SWAP2 POP POP JUMP JUMPDEST PUSH1 0x0 DUP2 CALLDATALOAD SWAP1 POP PUSH2 0x1626 DUP2 PUSH2 0x25AB JUMP JUMPDEST SWAP3 SWAP2 POP POP JUMP JUMPDEST PUSH1 0x0 PUSH1 0x20 DUP3 DUP5 SUB SLT ISZERO PUSH2 0x1642 JUMPI PUSH2 0x1641 PUSH2 0x21C2 JUMP JUMPDEST JUMPDEST PUSH1 0x0 PUSH2 0x1650 DUP5 DUP3 DUP6 ADD PUSH2 0x1595 JUMP JUMPDEST SWAP2 POP POP SWAP3 SWAP2 POP POP JUMP JUMPDEST PUSH1 0x0 DUP1 PUSH1 0x40 DUP4 DUP6 SUB SLT ISZERO PUSH2 0x1670 JUMPI PUSH2 0x166F PUSH2 0x21C2 JUMP JUMPDEST JUMPDEST PUSH1 0x0 PUSH2 0x167E DUP6 DUP3 DUP7 ADD PUSH2 0x1595 JUMP JUMPDEST SWAP3 POP POP PUSH1 0x20 PUSH2 0x168F DUP6 DUP3 DUP7 ADD PUSH2 0x1595 JUMP JUMPDEST SWAP2 POP POP SWAP3 POP SWAP3 SWAP1 POP JUMP JUMPDEST PUSH1 0x0 DUP1 PUSH1 0x0 PUSH1 0x60 DUP5 DUP7 SUB SLT ISZERO PUSH2 0x16B2 JUMPI PUSH2 0x16B1 PUSH2 0x21C2 JUMP JUMPDEST JUMPDEST PUSH1 0x0 PUSH2 0x16C0 DUP7 DUP3 DUP8 ADD PUSH2 0x1595 JUMP JUMPDEST SWAP4 POP POP PUSH1 0x20 PUSH2 0x16D1 DUP7 DUP3 DUP8 ADD PUSH2 0x1595 JUMP JUMPDEST SWAP3 POP POP PUSH1 0x40 PUSH2 0x16E2 DUP7 DUP3 DUP8 ADD PUSH2 0x1617 JUMP JUMPDEST SWAP2 POP POP SWAP3 POP SWAP3 POP SWAP3 JUMP JUMPDEST PUSH1 0x0 DUP1 PUSH1 0x0 DUP1 PUSH1 0x80 DUP6 DUP8 SUB SLT ISZERO PUSH2 0x1706 JUMPI PUSH2 0x1705 PUSH2 0x21C2 JUMP JUMPDEST JUMPDEST PUSH1 0x0 PUSH2 0x1714 DUP8 DUP3 DUP9 ADD PUSH2 0x1595 JUMP JUMPDEST SWAP5 POP POP PUSH1 0x20 PUSH2 0x1725 DUP8 DUP3 DUP9 ADD PUSH2 0x1595 JUMP JUMPDEST SWAP4 POP POP PUSH1 0x40 PUSH2 0x1736 DUP8 DUP3 DUP9 ADD PUSH2 0x1617 JUMP JUMPDEST SWAP3 POP POP PUSH1 0x60 DUP6 ADD CALLDATALOAD PUSH8 0xFFFFFFFFFFFFFFFF DUP2 GT ISZERO PUSH2 0x1757 JUMPI PUSH2 0x1756 PUSH2 0x21BD JUMP JUMPDEST JUMPDEST PUSH2 0x1763 DUP8 DUP3 DUP9 ADD PUSH2 0x15E9 JUMP JUMPDEST SWAP2 POP POP SWAP3 SWAP6 SWAP2 SWAP5 POP SWAP3 POP JUMP JUMPDEST PUSH1 0x0 DUP1 PUSH1 0x40 DUP4 DUP6 SUB SLT ISZERO PUSH2 0x1786 JUMPI PUSH2 0x1785 PUSH2 0x21C2 JUMP JUMPDEST JUMPDEST PUSH1 0x0 PUSH2 0x1794 DUP6 DUP3 DUP7 ADD PUSH2 0x1595 JUMP JUMPDEST SWAP3 POP POP PUSH1 0x20 PUSH2 0x17A5 DUP6 DUP3 DUP7 ADD PUSH2 0x15AA JUMP JUMPDEST SWAP2 POP POP SWAP3 POP SWAP3 SWAP1 POP JUMP JUMPDEST PUSH1 0x0 DUP1 PUSH1 0x40 DUP4 DUP6 SUB SLT ISZERO PUSH2 0x17C6 JUMPI PUSH2 0x17C5 PUSH2 0x21C2 JUMP JUMPDEST JUMPDEST PUSH1 0x0 PUSH2 0x17D4 DUP6 DUP3 DUP7 ADD PUSH2 0x1595 JUMP JUMPDEST SWAP3 POP POP PUSH1 0x20 PUSH2 0x17E5 DUP6 DUP3 DUP7 ADD PUSH2 0x1617 JUMP JUMPDEST SWAP2 POP POP SWAP3 POP SWAP3 SWAP1 POP JUMP JUMPDEST PUSH1 0x0 PUSH1 0x20 DUP3 DUP5 SUB SLT ISZERO PUSH2 0x1805 JUMPI PUSH2 0x1804 PUSH2 0x21C2 JUMP JUMPDEST JUMPDEST PUSH1 0x0 PUSH2 0x1813 DUP5 DUP3 DUP6 ADD PUSH2 0x15BF JUMP JUMPDEST SWAP2 POP POP SWAP3 SWAP2 POP POP JUMP JUMPDEST PUSH1 0x0 PUSH1 0x20 DUP3 DUP5 SUB SLT ISZERO PUSH2 0x1832 JUMPI PUSH2 0x1831 PUSH2 0x21C2 JUMP JUMPDEST JUMPDEST PUSH1 0x0 PUSH2 0x1840 DUP5 DUP3 DUP6 ADD PUSH2 0x15D4 JUMP JUMPDEST SWAP2 POP POP SWAP3 SWAP2 POP POP JUMP JUMPDEST PUSH1 0x0 PUSH1 0x20 DUP3 DUP5 SUB SLT ISZERO PUSH2 0x185F JUMPI PUSH2 0x185E PUSH2 0x21C2 JUMP JUMPDEST JUMPDEST PUSH1 0x0 PUSH2 0x186D DUP5 DUP3 DUP6 ADD PUSH2 0x1617 JUMP JUMPDEST SWAP2 POP POP SWAP3 SWAP2 POP POP JUMP JUMPDEST PUSH2 0x187F DUP2 PUSH2 0x1F35 JUMP JUMPDEST DUP3 MSTORE POP POP JUMP JUMPDEST PUSH2 0x188E DUP2 PUSH2 0x1F47 JUMP JUMPDEST DUP3 MSTORE POP POP JUMP JUMPDEST PUSH1 0x0 PUSH2 0x189F DUP3 PUSH2 0x1E37 JUMP JUMPDEST PUSH2 0x18A9 DUP2 DUP6 PUSH2 0x1E4D JUMP JUMPDEST SWAP4 POP PUSH2 0x18B9 DUP2 DUP6 PUSH1 0x20 DUP7 ADD PUSH2 0x1FB8 JUMP JUMPDEST PUSH2 0x18C2 DUP2 PUSH2 0x21C7 JUMP JUMPDEST DUP5 ADD SWAP2 POP POP SWAP3 SWAP2 POP POP JUMP JUMPDEST PUSH1 0x0 PUSH2 0x18D8 DUP3 PUSH2 0x1E42 JUMP JUMPDEST PUSH2 0x18E2 DUP2 DUP6 PUSH2 0x1E5E JUMP JUMPDEST SWAP4 POP PUSH2 0x18F2 DUP2 DUP6 PUSH1 0x20 DUP7 ADD PUSH2 0x1FB8 JUMP JUMPDEST PUSH2 0x18FB DUP2 PUSH2 0x21C7 JUMP JUMPDEST DUP5 ADD SWAP2 POP POP SWAP3 SWAP2 POP POP JUMP JUMPDEST PUSH1 0x0 PUSH2 0x1911 DUP3 PUSH2 0x1E42 JUMP JUMPDEST PUSH2 0x191B DUP2 DUP6 PUSH2 0x1E6F JUMP JUMPDEST SWAP4 POP PUSH2 0x192B DUP2 DUP6 PUSH1 0x20 DUP7 ADD PUSH2 0x1FB8 JUMP JUMPDEST DUP1 DUP5 ADD SWAP2 POP POP SWAP3 SWAP2 POP POP JUMP JUMPDEST PUSH1 0x0 PUSH2 0x1944 PUSH1 0x32 DUP4 PUSH2 0x1E5E JUMP JUMPDEST SWAP2 POP PUSH2 0x194F DUP3 PUSH2 0x21D8 JUMP JUMPDEST PUSH1 0x40 DUP3 ADD SWAP1 POP SWAP2 SWAP1 POP JUMP JUMPDEST PUSH1 0x0 PUSH2 0x1967 PUSH1 0x25 DUP4 PUSH2 0x1E5E JUMP JUMPDEST SWAP2 POP PUSH2 0x1972 DUP3 PUSH2 0x2227 JUMP JUMPDEST PUSH1 0x40 DUP3 ADD SWAP1 POP SWAP2 SWAP1 POP JUMP JUMPDEST PUSH1 0x0 PUSH2 0x198A PUSH1 0x24 DUP4 PUSH2 0x1E5E JUMP JUMPDEST SWAP2 POP PUSH2 0x1995 DUP3 PUSH2 0x2276 JUMP JUMPDEST PUSH1 0x40 DUP3 ADD SWAP1 POP SWAP2 SWAP1 POP JUMP JUMPDEST PUSH1 0x0 PUSH2 0x19AD PUSH1 0x19 DUP4 PUSH2 0x1E5E JUMP JUMPDEST SWAP2 POP PUSH2 0x19B8 DUP3 PUSH2 0x22C5 JUMP JUMPDEST PUSH1 0x20 DUP3 ADD SWAP1 POP SWAP2 SWAP1 POP JUMP JUMPDEST PUSH1 0x0 PUSH2 0x19D0 PUSH1 0x2C DUP4 PUSH2 0x1E5E JUMP JUMPDEST SWAP2 POP PUSH2 0x19DB DUP3 PUSH2 0x22EE JUMP JUMPDEST PUSH1 0x40 DUP3 ADD SWAP1 POP SWAP2 SWAP1 POP JUMP JUMPDEST PUSH1 0x0 PUSH2 0x19F3 PUSH1 0x29 DUP4 PUSH2 0x1E5E JUMP JUMPDEST SWAP2 POP PUSH2 0x19FE DUP3 PUSH2 0x233D JUMP JUMPDEST PUSH1 0x40 DUP3 ADD SWAP1 POP SWAP2 SWAP1 POP JUMP JUMPDEST PUSH1 0x0 PUSH2 0x1A16 PUSH1 0x38 DUP4 PUSH2 0x1E5E JUMP JUMPDEST SWAP2 POP PUSH2 0x1A21 DUP3 PUSH2 0x238C JUMP JUMPDEST PUSH1 0x40 DUP3 ADD SWAP1 POP SWAP2 SWAP1 POP JUMP JUMPDEST PUSH1 0x0 PUSH2 0x1A39 PUSH1 0x29 DUP4 PUSH2 0x1E5E JUMP JUMPDEST SWAP2 POP PUSH2 0x1A44 DUP3 PUSH2 0x23DB JUMP JUMPDEST PUSH1 0x40 DUP3 ADD SWAP1 POP SWAP2 SWAP1 POP JUMP JUMPDEST PUSH1 0x0 PUSH2 0x1A5C PUSH1 0x2C DUP4 PUSH2 0x1E5E JUMP JUMPDEST SWAP2 POP PUSH2 0x1A67 DUP3 PUSH2 0x242A JUMP JUMPDEST PUSH1 0x40 DUP3 ADD SWAP1 POP SWAP2 SWAP1 POP JUMP JUMPDEST PUSH1 0x0 PUSH2 0x1A7F PUSH1 0x2F DUP4 PUSH2 0x1E5E JUMP JUMPDEST SWAP2 POP PUSH2 0x1A8A DUP3 PUSH2 0x2479 JUMP JUMPDEST PUSH1 0x40 DUP3 ADD SWAP1 POP SWAP2 SWAP1 POP JUMP JUMPDEST PUSH1 0x0 PUSH2 0x1AA2 PUSH1 0x21 DUP4 PUSH2 0x1E5E JUMP JUMPDEST SWAP2 POP PUSH2 0x1AAD DUP3 PUSH2 0x24C8 JUMP JUMPDEST PUSH1 0x40 DUP3 ADD SWAP1 POP SWAP2 SWAP1 POP JUMP JUMPDEST PUSH1 0x0 PUSH2 0x1AC5 PUSH1 0x31 DUP4 PUSH2 0x1E5E JUMP JUMPDEST SWAP2 POP PUSH2 0x1AD0 DUP3 PUSH2 0x2517 JUMP JUMPDEST PUSH1 0x40 DUP3 ADD SWAP1 POP SWAP2 SWAP1 POP JUMP JUMPDEST PUSH2 0x1AE4 DUP2 PUSH2 0x1F9F JUMP JUMPDEST DUP3 MSTORE POP POP JUMP JUMPDEST PUSH1 0x0 PUSH2 0x1AF6 DUP3 DUP6 PUSH2 0x1906 JUMP JUMPDEST SWAP2 POP PUSH2 0x1B02 DUP3 DUP5 PUSH2 0x1906 JUMP JUMPDEST SWAP2 POP DUP2 SWAP1 POP SWAP4 SWAP3 POP POP POP JUMP JUMPDEST PUSH1 0x0 PUSH1 0x20 DUP3 ADD SWAP1 POP PUSH2 0x1B23 PUSH1 0x0 DUP4 ADD DUP5 PUSH2 0x1876 JUMP JUMPDEST SWAP3 SWAP2 POP POP JUMP JUMPDEST PUSH1 0x0 PUSH1 0x80 DUP3 ADD SWAP1 POP PUSH2 0x1B3E PUSH1 0x0 DUP4 ADD DUP8 PUSH2 0x1876 JUMP JUMPDEST PUSH2 0x1B4B PUSH1 0x20 DUP4 ADD DUP7 PUSH2 0x1876 JUMP JUMPDEST PUSH2 0x1B58 PUSH1 0x40 DUP4 ADD DUP6 PUSH2 0x1ADB JUMP JUMPDEST DUP2 DUP2 SUB PUSH1 0x60 DUP4 ADD MSTORE PUSH2 0x1B6A DUP2 DUP5 PUSH2 0x1894 JUMP JUMPDEST SWAP1 POP SWAP6 SWAP5 POP POP POP POP POP JUMP JUMPDEST PUSH1 0x0 PUSH1 0x20 DUP3 ADD SWAP1 POP PUSH2 0x1B8A PUSH1 0x0 DUP4 ADD DUP5 PUSH2 0x1885 JUMP JUMPDEST SWAP3 SWAP2 POP POP JUMP JUMPDEST PUSH1 0x0 PUSH1 0x20 DUP3 ADD SWAP1 POP DUP2 DUP2 SUB PUSH1 0x0 DUP4 ADD MSTORE PUSH2 0x1BAA DUP2 DUP5 PUSH2 0x18CD JUMP JUMPDEST SWAP1 POP SWAP3 SWAP2 POP POP JUMP JUMPDEST PUSH1 0x0 PUSH1 0x20 DUP3 ADD SWAP1 POP DUP2 DUP2 SUB PUSH1 0x0 DUP4 ADD MSTORE PUSH2 0x1BCB DUP2 PUSH2 0x1937 JUMP JUMPDEST SWAP1 POP SWAP2 SWAP1 POP JUMP JUMPDEST PUSH1 0x0 PUSH1 0x20 DUP3 ADD SWAP1 POP DUP2 DUP2 SUB PUSH1 0x0 DUP4 ADD MSTORE PUSH2 0x1BEB DUP2 PUSH2 0x195A JUMP JUMPDEST SWAP1 POP SWAP2 SWAP1 POP JUMP JUMPDEST PUSH1 0x0 PUSH1 0x20 DUP3 ADD SWAP1 POP DUP2 DUP2 SUB PUSH1 0x0 DUP4 ADD MSTORE PUSH2 0x1C0B DUP2 PUSH2 0x197D JUMP JUMPDEST SWAP1 POP SWAP2 SWAP1 POP JUMP JUMPDEST PUSH1 0x0 PUSH1 0x20 DUP3 ADD SWAP1 POP DUP2 DUP2 SUB PUSH1 0x0 DUP4 ADD MSTORE PUSH2 0x1C2B DUP2 PUSH2 0x19A0 JUMP JUMPDEST SWAP1 POP SWAP2 SWAP1 POP JUMP JUMPDEST PUSH1 0x0 PUSH1 0x20 DUP3 ADD SWAP1 POP DUP2 DUP2 SUB PUSH1 0x0 DUP4 ADD MSTORE PUSH2 0x1C4B DUP2 PUSH2 0x19C3 JUMP JUMPDEST SWAP1 POP SWAP2 SWAP1 POP JUMP JUMPDEST PUSH1 0x0 PUSH1 0x20 DUP3 ADD SWAP1 POP DUP2 DUP2 SUB PUSH1 0x0 DUP4 ADD MSTORE PUSH2 0x1C6B DUP2 PUSH2 0x19E6 JUMP JUMPDEST SWAP1 POP SWAP2 SWAP1 POP JUMP JUMPDEST PUSH1 0x0 PUSH1 0x20 DUP3 ADD SWAP1 POP DUP2 DUP2 SUB PUSH1 0x0 DUP4 ADD MSTORE PUSH2 0x1C8B DUP2 PUSH2 0x1A09 JUMP JUMPDEST SWAP1 POP SWAP2 SWAP1 POP JUMP JUMPDEST PUSH1 0x0 PUSH1 0x20 DUP3 ADD SWAP1 POP DUP2 DUP2 SUB PUSH1 0x0 DUP4 ADD MSTORE PUSH2 0x1CAB DUP2 PUSH2 0x1A2C JUMP JUMPDEST SWAP1 POP SWAP2 SWAP1 POP JUMP JUMPDEST PUSH1 0x0 PUSH1 0x20 DUP3 ADD SWAP1 POP DUP2 DUP2 SUB PUSH1 0x0 DUP4 ADD MSTORE PUSH2 0x1CCB DUP2 PUSH2 0x1A4F JUMP JUMPDEST SWAP1 POP SWAP2 SWAP1 POP JUMP JUMPDEST PUSH1 0x0 PUSH1 0x20 DUP3 ADD SWAP1 POP DUP2 DUP2 SUB PUSH1 0x0 DUP4 ADD MSTORE PUSH2 0x1CEB DUP2 PUSH2 0x1A72 JUMP JUMPDEST SWAP1 POP SWAP2 SWAP1 POP JUMP JUMPDEST PUSH1 0x0 PUSH1 0x20 DUP3 ADD SWAP1 POP DUP2 DUP2 SUB PUSH1 0x0 DUP4 ADD MSTORE PUSH2 0x1D0B DUP2 PUSH2 0x1A95 JUMP JUMPDEST SWAP1 POP SWAP2 SWAP1 POP JUMP JUMPDEST PUSH1 0x0 PUSH1 0x20 DUP3 ADD SWAP1 POP DUP2 DUP2 SUB PUSH1 0x0 DUP4 ADD MSTORE PUSH2 0x1D2B DUP2 PUSH2 0x1AB8 JUMP JUMPDEST SWAP1 POP SWAP2 SWAP1 POP JUMP JUMPDEST PUSH1 0x0 PUSH1 0x20 DUP3 ADD SWAP1 POP PUSH2 0x1D47 PUSH1 0x0 DUP4 ADD DUP5 PUSH2 0x1ADB JUMP JUMPDEST SWAP3 SWAP2 POP POP JUMP JUMPDEST PUSH1 0x0 PUSH2 0x120 DUP3 ADD SWAP1 POP PUSH2 0x1D63 PUSH1 0x0 DUP4 ADD DUP13 PUSH2 0x1ADB JUMP JUMPDEST PUSH2 0x1D70 PUSH1 0x20 DUP4 ADD DUP12 PUSH2 0x1ADB JUMP JUMPDEST PUSH2 0x1D7D PUSH1 0x40 DUP4 ADD DUP11 PUSH2 0x1ADB JUMP JUMPDEST PUSH2 0x1D8A PUSH1 0x60 DUP4 ADD DUP10 PUSH2 0x1ADB JUMP JUMPDEST PUSH2 0x1D97 PUSH1 0x80 DUP4 ADD DUP9 PUSH2 0x1ADB JUMP JUMPDEST PUSH2 0x1DA4 PUSH1 0xA0 DUP4 ADD DUP8 PUSH2 0x1876 JUMP JUMPDEST PUSH2 0x1DB1 PUSH1 0xC0 DUP4 ADD DUP7 PUSH2 0x1876 JUMP JUMPDEST DUP2 DUP2 SUB PUSH1 0xE0 DUP4 ADD MSTORE PUSH2 0x1DC3 DUP2 DUP6 PUSH2 0x18CD JUMP JUMPDEST SWAP1 POP PUSH2 0x1DD3 PUSH2 0x100 DUP4 ADD DUP5 PUSH2 0x1885 JUMP JUMPDEST SWAP11 SWAP10 POP POP POP POP POP POP POP POP POP POP JUMP JUMPDEST PUSH1 0x0 PUSH2 0x1DEB PUSH2 0x1DFC JUMP JUMPDEST SWAP1 POP PUSH2 0x1DF7 DUP3 DUP3 PUSH2 0x201D JUMP JUMPDEST SWAP2 SWAP1 POP JUMP JUMPDEST PUSH1 0x0 PUSH1 0x40 MLOAD SWAP1 POP SWAP1 JUMP JUMPDEST PUSH1 0x0 PUSH8 0xFFFFFFFFFFFFFFFF DUP3 GT ISZERO PUSH2 0x1E21 JUMPI PUSH2 0x1E20 PUSH2 0x2184 JUMP JUMPDEST JUMPDEST PUSH2 0x1E2A DUP3 PUSH2 0x21C7 JUMP JUMPDEST SWAP1 POP PUSH1 0x20 DUP2 ADD SWAP1 POP SWAP2 SWAP1 POP JUMP JUMPDEST PUSH1 0x0 DUP2 MLOAD SWAP1 POP SWAP2 SWAP1 POP JUMP JUMPDEST PUSH1 0x0 DUP2 MLOAD SWAP1 POP SWAP2 SWAP1 POP JUMP JUMPDEST PUSH1 0x0 DUP3 DUP3 MSTORE PUSH1 0x20 DUP3 ADD SWAP1 POP SWAP3 SWAP2 POP POP JUMP JUMPDEST PUSH1 0x0 DUP3 DUP3 MSTORE PUSH1 0x20 DUP3 ADD SWAP1 POP SWAP3 SWAP2 POP POP JUMP JUMPDEST PUSH1 0x0 DUP2 SWAP1 POP SWAP3 SWAP2 POP POP JUMP JUMPDEST PUSH1 0x0 PUSH2 0x1E85 DUP3 PUSH2 0x1F9F JUMP JUMPDEST SWAP2 POP PUSH2 0x1E90 DUP4 PUSH2 0x1F9F JUMP JUMPDEST SWAP3 POP DUP3 PUSH32 0xFFFFFFFFFFFFFFFFFFFFFFFFFFFFFFFFFFFFFFFFFFFFFFFFFFFFFFFFFFFFFFFF SUB DUP3 GT ISZERO PUSH2 0x1EC5 JUMPI PUSH2 0x1EC4 PUSH2 0x20C8 JUMP JUMPDEST JUMPDEST DUP3 DUP3 ADD SWAP1 POP SWAP3 SWAP2 POP POP JUMP JUMPDEST PUSH1 0x0 PUSH2 0x1EDB DUP3 PUSH2 0x1F9F JUMP JUMPDEST SWAP2 POP PUSH2 0x1EE6 DUP4 PUSH2 0x1F9F JUMP JUMPDEST SWAP3 POP DUP3 PUSH2 0x1EF6 JUMPI PUSH2 0x1EF5 PUSH2 0x20F7 JUMP JUMPDEST JUMPDEST DUP3 DUP3 DIV SWAP1 POP SWAP3 SWAP2 POP POP JUMP JUMPDEST PUSH1 0x0 PUSH2 0x1F0C DUP3 PUSH2 0x1F9F JUMP JUMPDEST SWAP2 POP PUSH2 0x1F17 DUP4 PUSH2 0x1F9F JUMP JUMPDEST SWAP3 POP DUP3 DUP3 LT ISZERO PUSH2 0x1F2A JUMPI PUSH2 0x1F29 PUSH2 0x20C8 JUMP JUMPDEST JUMPDEST DUP3 DUP3 SUB SWAP1 POP SWAP3 SWAP2 POP POP JUMP JUMPDEST PUSH1 0x0 PUSH2 0x1F40 DUP3 PUSH2 0x1F7F JUMP JUMPDEST SWAP1 POP SWAP2 SWAP1 POP JUMP JUMPDEST PUSH1 0x0 DUP2 ISZERO ISZERO SWAP1 POP SWAP2 SWAP1 POP JUMP JUMPDEST PUSH1 0x0 PUSH32 0xFFFFFFFF00000000000000000000000000000000000000000000000000000000 DUP3 AND SWAP1 POP SWAP2 SWAP1 POP JUMP JUMPDEST PUSH1 0x0 PUSH20 0xFFFFFFFFFFFFFFFFFFFFFFFFFFFFFFFFFFFFFFFF DUP3 AND SWAP1 POP SWAP2 SWAP1 POP JUMP JUMPDEST PUSH1 0x0 DUP2 SWAP1 POP SWAP2 SWAP1 POP JUMP JUMPDEST DUP3 DUP2 DUP4 CALLDATACOPY PUSH1 0x0 DUP4 DUP4 ADD MSTORE POP POP POP JUMP JUMPDEST PUSH1 0x0 JUMPDEST DUP4 DUP2 LT ISZERO PUSH2 0x1FD6 JUMPI DUP1 DUP3 ADD MLOAD DUP2 DUP5 ADD MSTORE PUSH1 0x20 DUP2 ADD SWAP1 POP PUSH2 0x1FBB JUMP JUMPDEST DUP4 DUP2 GT ISZERO PUSH2 0x1FE5 JUMPI PUSH1 0x0 DUP5 DUP5 ADD MSTORE JUMPDEST POP POP POP POP JUMP JUMPDEST PUSH1 0x0 PUSH1 0x2 DUP3 DIV SWAP1 POP PUSH1 0x1 DUP3 AND DUP1 PUSH2 0x2003 JUMPI PUSH1 0x7F DUP3 AND SWAP2 POP JUMPDEST PUSH1 0x20 DUP3 LT DUP2 EQ ISZERO PUSH2 0x2017 JUMPI PUSH2 0x2016 PUSH2 0x2126 JUMP JUMPDEST JUMPDEST POP SWAP2 SWAP1 POP JUMP JUMPDEST PUSH2 0x2026 DUP3 PUSH2 0x21C7 JUMP JUMPDEST DUP2 ADD DUP2 DUP2 LT PUSH8 0xFFFFFFFFFFFFFFFF DUP3 GT OR ISZERO PUSH2 0x2045 JUMPI PUSH2 0x2044 PUSH2 0x2184 JUMP JUMPDEST JUMPDEST DUP1 PUSH1 0x40 MSTORE POP POP POP JUMP JUMPDEST PUSH1 0x0 PUSH2 0x2059 DUP3 PUSH2 0x1F9F JUMP JUMPDEST SWAP2 POP PUSH32 0xFFFFFFFFFFFFFFFFFFFFFFFFFFFFFFFFFFFFFFFFFFFFFFFFFFFFFFFFFFFFFFFF DUP3 EQ ISZERO PUSH2 0x208C JUMPI PUSH2 0x208B PUSH2 0x20C8 JUMP JUMPDEST JUMPDEST PUSH1 0x1 DUP3 ADD SWAP1 POP SWAP2 SWAP1 POP JUMP JUMPDEST PUSH1 0x0 PUSH2 0x20A2 DUP3 PUSH2 0x1F9F JUMP JUMPDEST SWAP2 POP PUSH2 0x20AD DUP4 PUSH2 0x1F9F JUMP JUMPDEST SWAP3 POP DUP3 PUSH2 0x20BD JUMPI PUSH2 0x20BC PUSH2 0x20F7 JUMP JUMPDEST JUMPDEST DUP3 DUP3 MOD SWAP1 POP SWAP3 SWAP2 POP POP JUMP JUMPDEST PUSH32 0x4E487B7100000000000000000000000000000000000000000000000000000000 PUSH1 0x0 MSTORE PUSH1 0x11 PUSH1 0x4 MSTORE PUSH1 0x24 PUSH1 0x0 REVERT JUMPDEST PUSH32 0x4E487B7100000000000000000000000000000000000000000000000000000000 PUSH1 0x0 MSTORE PUSH1 0x12 PUSH1 0x4 MSTORE PUSH1 0x24 PUSH1 0x0 REVERT JUMPDEST PUSH32 0x4E487B7100000000000000000000000000000000000000000000000000000000 PUSH1 0x0 MSTORE PUSH1 0x22 PUSH1 0x4 MSTORE PUSH1 0x24 PUSH1 0x0 REVERT JUMPDEST PUSH32 0x4E487B7100000000000000000000000000000000000000000000000000000000 PUSH1 0x0 MSTORE PUSH1 0x32 PUSH1 0x4 MSTORE PUSH1 0x24 PUSH1 0x0 REVERT JUMPDEST PUSH32 0x4E487B7100000000000000000000000000000000000000000000000000000000 PUSH1 0x0 MSTORE PUSH1 0x41 PUSH1 0x4 MSTORE PUSH1 0x24 PUSH1 0x0 REVERT JUMPDEST PUSH1 0x0 DUP1 REVERT JUMPDEST PUSH1 0x0 DUP1 REVERT JUMPDEST PUSH1 0x0 DUP1 REVERT JUMPDEST PUSH1 0x0 DUP1 REVERT JUMPDEST PUSH1 0x0 PUSH1 0x1F NOT PUSH1 0x1F DUP4 ADD AND SWAP1 POP SWAP2 SWAP1 POP JUMP JUMPDEST PUSH32 0x4552433732313A207472616E7366657220746F206E6F6E204552433732315265 PUSH1 0x0 DUP3 ADD MSTORE PUSH32 0x63656976657220696D706C656D656E7465720000000000000000000000000000 PUSH1 0x20 DUP3 ADD MSTORE POP JUMP JUMPDEST PUSH32 0x4552433732313A207472616E736665722066726F6D20696E636F727265637420 PUSH1 0x0 DUP3 ADD MSTORE PUSH32 0x6F776E6572000000000000000000000000000000000000000000000000000000 PUSH1 0x20 DUP3 ADD MSTORE POP JUMP JUMPDEST PUSH32 0x4552433732313A207472616E7366657220746F20746865207A65726F20616464 PUSH1 0x0 DUP3 ADD MSTORE PUSH32 0x7265737300000000000000000000000000000000000000000000000000000000 PUSH1 0x20 DUP3 ADD MSTORE POP JUMP JUMPDEST PUSH32 0x4552433732313A20617070726F766520746F2063616C6C657200000000000000 PUSH1 0x0 DUP3 ADD MSTORE POP JUMP JUMPDEST PUSH32 0x4552433732313A206F70657261746F7220717565727920666F72206E6F6E6578 PUSH1 0x0 DUP3 ADD MSTORE PUSH32 0x697374656E7420746F6B656E0000000000000000000000000000000000000000 PUSH1 0x20 DUP3 ADD MSTORE POP JUMP JUMPDEST PUSH32 0x4552433732313A2061646472657373207A65726F206973206E6F742061207661 PUSH1 0x0 DUP3 ADD MSTORE PUSH32 0x6C6964206F776E65720000000000000000000000000000000000000000000000 PUSH1 0x20 DUP3 ADD MSTORE POP JUMP JUMPDEST PUSH32 0x4552433732313A20617070726F76652063616C6C6572206973206E6F74206F77 PUSH1 0x0 DUP3 ADD MSTORE PUSH32 0x6E6572206E6F7220617070726F76656420666F7220616C6C0000000000000000 PUSH1 0x20 DUP3 ADD MSTORE POP JUMP JUMPDEST PUSH32 0x4552433732313A206F776E657220717565727920666F72206E6F6E6578697374 PUSH1 0x0 DUP3 ADD MSTORE PUSH32 0x656E7420746F6B656E0000000000000000000000000000000000000000000000 PUSH1 0x20 DUP3 ADD MSTORE POP JUMP JUMPDEST PUSH32 0x4552433732313A20617070726F76656420717565727920666F72206E6F6E6578 PUSH1 0x0 DUP3 ADD MSTORE PUSH32 0x697374656E7420746F6B656E0000000000000000000000000000000000000000 PUSH1 0x20 DUP3 ADD MSTORE POP JUMP JUMPDEST PUSH32 0x4552433732314D657461646174613A2055524920717565727920666F72206E6F PUSH1 0x0 DUP3 ADD MSTORE PUSH32 0x6E6578697374656E7420746F6B656E0000000000000000000000000000000000 PUSH1 0x20 DUP3 ADD MSTORE POP JUMP JUMPDEST PUSH32 0x4552433732313A20617070726F76616C20746F2063757272656E74206F776E65 PUSH1 0x0 DUP3 ADD MSTORE PUSH32 0x7200000000000000000000000000000000000000000000000000000000000000 PUSH1 0x20 DUP3 ADD MSTORE POP JUMP JUMPDEST PUSH32 0x4552433732313A207472616E736665722063616C6C6572206973206E6F74206F PUSH1 0x0 DUP3 ADD MSTORE PUSH32 0x776E6572206E6F7220617070726F766564000000000000000000000000000000 PUSH1 0x20 DUP3 ADD MSTORE POP JUMP JUMPDEST PUSH2 0x256F DUP2 PUSH2 0x1F35 JUMP JUMPDEST DUP2 EQ PUSH2 0x257A JUMPI PUSH1 0x0 DUP1 REVERT JUMPDEST POP JUMP JUMPDEST PUSH2 0x2586 DUP2 PUSH2 0x1F47 JUMP JUMPDEST DUP2 EQ PUSH2 0x2591 JUMPI PUSH1 0x0 DUP1 REVERT JUMPDEST POP JUMP JUMPDEST PUSH2 0x259D DUP2 PUSH2 0x1F53 JUMP JUMPDEST DUP2 EQ PUSH2 0x25A8 JUMPI PUSH1 0x0 DUP1 REVERT JUMPDEST POP JUMP JUMPDEST PUSH2 0x25B4 DUP2 PUSH2 0x1F9F JUMP JUMPDEST DUP2 EQ PUSH2 0x25BF JUMPI PUSH1 0x0 DUP1 REVERT JUMPDEST POP JUMP INVALID LOG2 PUSH5 0x6970667358 0x22 SLT KECCAK256 MLOAD 0xED DUP13 DUP14 0x4E MULMOD 0xD9 COINBASE JUMP 0xD3 0xE9 0xAE 0xCD PUSH8 0xA0C040284CBA0074 SWAP7 0xB1 0xC1 CALLER DUP6 SSTORE SHR ORIGIN SLOAD POP PUSH5 0x736F6C6343 STOP ADDMOD SMOD STOP CALLER "
				},
				"gasEstimates": {
					"creation": {
						"codeDepositCost": "1944000",
						"executionCost": "infinite",
						"totalCost": "infinite"
					},
					"external": {
						"approve(address,uint256)": "infinite",
						"balanceOf(address)": "2902",
						"getApproved(uint256)": "5228",
						"houses(uint256)": "infinite",
						"isApprovedForAll(address,address)": "infinite",
						"name()": "infinite",
						"ownerOf(uint256)": "3066",
						"safeTransferFrom(address,address,uint256)": "infinite",
						"safeTransferFrom(address,address,uint256,bytes)": "infinite",
						"setApprovalForAll(address,bool)": "infinite",
						"supportsInterface(bytes4)": "797",
						"symbol()": "infinite",
						"tokenURI(uint256)": "3395",
						"transferFrom(address,address,uint256)": "infinite"
					},
					"internal": {
						"_afterTokenTransfer(address,address,uint256)": "15",
						"_approve(address,uint256)": "infinite",
						"_baseURI()": "infinite",
						"_beforeTokenTransfer(address,address,uint256)": "15",
						"_burn(uint256)": "infinite",
						"_checkOnERC721Received(address,address,uint256,bytes memory)": "infinite",
						"_exists(uint256)": "2269",
						"_isApprovedOrOwner(address,uint256)": "infinite",
						"_mint(address,uint256)": "infinite",
						"_safeMint(address,uint256)": "infinite",
						"_safeMint(address,uint256,bytes memory)": "infinite",
						"_safeTransfer(address,address,uint256,bytes memory)": "infinite",
						"_setApprovalForAll(address,address,bool)": "infinite",
						"_transfer(address,address,uint256)": "infinite"
					}
				},
				"methodIdentifiers": {
					"approve(address,uint256)": "095ea7b3",
					"balanceOf(address)": "70a08231",
					"getApproved(uint256)": "081812fc",
					"houses(uint256)": "aeda852f",
					"isApprovedForAll(address,address)": "e985e9c5",
					"name()": "06fdde03",
					"ownerOf(uint256)": "6352211e",
					"safeTransferFrom(address,address,uint256)": "42842e0e",
					"safeTransferFrom(address,address,uint256,bytes)": "b88d4fde",
					"setApprovalForAll(address,bool)": "a22cb465",
					"supportsInterface(bytes4)": "01ffc9a7",
					"symbol()": "95d89b41",
					"tokenURI(uint256)": "c87b56dd",
					"transferFrom(address,address,uint256)": "23b872dd"
				}
			},
			"storageLayout": {
				"storage": [
					{
						"astId": 26,
						"contract": "contract/token/ERC721.sol:ERC721",
						"label": "_name",
						"offset": 0,
						"slot": "0",
						"type": "t_string_storage"
					},
					{
						"astId": 28,
						"contract": "contract/token/ERC721.sol:ERC721",
						"label": "_symbol",
						"offset": 0,
						"slot": "1",
						"type": "t_string_storage"
					},
					{
						"astId": 51,
						"contract": "contract/token/ERC721.sol:ERC721",
						"label": "_owners",
						"offset": 0,
						"slot": "2",
						"type": "t_mapping(t_uint256,t_address)"
					},
					{
						"astId": 55,
						"contract": "contract/token/ERC721.sol:ERC721",
						"label": "_balances",
						"offset": 0,
						"slot": "3",
						"type": "t_mapping(t_address,t_uint256)"
					},
					{
						"astId": 59,
						"contract": "contract/token/ERC721.sol:ERC721",
						"label": "_tokenApprovals",
						"offset": 0,
						"slot": "4",
						"type": "t_mapping(t_uint256,t_address)"
					},
					{
						"astId": 65,
						"contract": "contract/token/ERC721.sol:ERC721",
						"label": "_operatorApprovals",
						"offset": 0,
						"slot": "5",
						"type": "t_mapping(t_address,t_mapping(t_address,t_bool))"
					},
					{
						"astId": 70,
						"contract": "contract/token/ERC721.sol:ERC721",
						"label": "houses",
						"offset": 0,
						"slot": "6",
						"type": "t_mapping(t_uint256,t_struct(House)47_storage)"
					}
				],
				"types": {
					"t_address": {
						"encoding": "inplace",
						"label": "address",
						"numberOfBytes": "20"
					},
					"t_bool": {
						"encoding": "inplace",
						"label": "bool",
						"numberOfBytes": "1"
					},
					"t_mapping(t_address,t_bool)": {
						"encoding": "mapping",
						"key": "t_address",
						"label": "mapping(address => bool)",
						"numberOfBytes": "32",
						"value": "t_bool"
					},
					"t_mapping(t_address,t_mapping(t_address,t_bool))": {
						"encoding": "mapping",
						"key": "t_address",
						"label": "mapping(address => mapping(address => bool))",
						"numberOfBytes": "32",
						"value": "t_mapping(t_address,t_bool)"
					},
					"t_mapping(t_address,t_uint256)": {
						"encoding": "mapping",
						"key": "t_address",
						"label": "mapping(address => uint256)",
						"numberOfBytes": "32",
						"value": "t_uint256"
					},
					"t_mapping(t_uint256,t_address)": {
						"encoding": "mapping",
						"key": "t_uint256",
						"label": "mapping(uint256 => address)",
						"numberOfBytes": "32",
						"value": "t_address"
					},
					"t_mapping(t_uint256,t_struct(House)47_storage)": {
						"encoding": "mapping",
						"key": "t_uint256",
						"label": "mapping(uint256 => struct ERC721.House)",
						"numberOfBytes": "32",
						"value": "t_struct(House)47_storage"
					},
					"t_string_storage": {
						"encoding": "bytes",
						"label": "string",
						"numberOfBytes": "32"
					},
					"t_struct(House)47_storage": {
						"encoding": "inplace",
						"label": "struct ERC721.House",
						"members": [
							{
								"astId": 30,
								"contract": "contract/token/ERC721.sol:ERC721",
								"label": "id",
								"offset": 0,
								"slot": "0",
								"type": "t_uint256"
							},
							{
								"astId": 32,
								"contract": "contract/token/ERC721.sol:ERC721",
								"label": "serialNumber",
								"offset": 0,
								"slot": "1",
								"type": "t_uint256"
							},
							{
								"astId": 34,
								"contract": "contract/token/ERC721.sol:ERC721",
								"label": "price",
								"offset": 0,
								"slot": "2",
								"type": "t_uint256"
							},
							{
								"astId": 36,
								"contract": "contract/token/ERC721.sol:ERC721",
								"label": "priceDai",
								"offset": 0,
								"slot": "3",
								"type": "t_uint256"
							},
							{
								"astId": 38,
								"contract": "contract/token/ERC721.sol:ERC721",
								"label": "area",
								"offset": 0,
								"slot": "4",
								"type": "t_uint256"
							},
							{
								"astId": 40,
								"contract": "contract/token/ERC721.sol:ERC721",
								"label": "sellerAddress",
								"offset": 0,
								"slot": "5",
								"type": "t_address"
							},
							{
								"astId": 42,
								"contract": "contract/token/ERC721.sol:ERC721",
								"label": "buyerAddress",
								"offset": 0,
								"slot": "6",
								"type": "t_address"
							},
							{
								"astId": 44,
								"contract": "contract/token/ERC721.sol:ERC721",
								"label": "houseAddress",
								"offset": 0,
								"slot": "7",
								"type": "t_string_storage"
							},
							{
								"astId": 46,
								"contract": "contract/token/ERC721.sol:ERC721",
								"label": "isdelistedHouse",
								"offset": 0,
								"slot": "8",
								"type": "t_bool"
							}
						],
						"numberOfBytes": "288"
					},
					"t_uint256": {
						"encoding": "inplace",
						"label": "uint256",
						"numberOfBytes": "32"
					}
				}
			},
			"userdoc": {
				"kind": "user",
				"methods": {},
				"version": 1
			}
		}
	}
}