{
	"contract/token/ERC721.sol": {
		"ERC721": {
			"abi": [
				{
					"inputs": [
						{
							"internalType": "string",
							"name": "name_",
							"type": "string"
						},
						{
							"internalType": "string",
							"name": "symbol_",
							"type": "string"
						}
					],
					"stateMutability": "nonpayable",
					"type": "constructor"
				},
				{
					"anonymous": false,
					"inputs": [
						{
							"indexed": true,
							"internalType": "address",
							"name": "owner",
							"type": "address"
						},
						{
							"indexed": true,
							"internalType": "address",
							"name": "approved",
							"type": "address"
						},
						{
							"indexed": true,
							"internalType": "uint256",
							"name": "tokenId",
							"type": "uint256"
						}
					],
					"name": "Approval",
					"type": "event"
				},
				{
					"anonymous": false,
					"inputs": [
						{
							"indexed": true,
							"internalType": "address",
							"name": "owner",
							"type": "address"
						},
						{
							"indexed": true,
							"internalType": "address",
							"name": "operator",
							"type": "address"
						},
						{
							"indexed": false,
							"internalType": "bool",
							"name": "approved",
							"type": "bool"
						}
					],
					"name": "ApprovalForAll",
					"type": "event"
				},
				{
					"anonymous": false,
					"inputs": [
						{
							"indexed": true,
							"internalType": "address",
							"name": "from",
							"type": "address"
						},
						{
							"indexed": true,
							"internalType": "address",
							"name": "to",
							"type": "address"
						},
						{
							"indexed": true,
							"internalType": "uint256",
							"name": "tokenId",
							"type": "uint256"
						}
					],
					"name": "Transfer",
					"type": "event"
				},
				{
					"inputs": [
						{
							"internalType": "uint256",
							"name": "_houseId",
							"type": "uint256"
						},
						{
							"internalType": "uint256",
							"name": "_serialNumber",
							"type": "uint256"
						},
						{
							"internalType": "uint256",
							"name": "_price",
							"type": "uint256"
						},
						{
							"internalType": "uint256",
							"name": "_priceDai",
							"type": "uint256"
						},
						{
							"internalType": "uint256",
							"name": "_area",
							"type": "uint256"
						},
						{
							"internalType": "address",
							"name": "_sellerAddress",
							"type": "address"
						},
						{
							"internalType": "string",
							"name": "_houseAddress",
							"type": "string"
						}
					],
					"name": "addHouse",
					"outputs": [],
					"stateMutability": "nonpayable",
					"type": "function"
				},
				{
					"inputs": [
						{
							"internalType": "address",
							"name": "to",
							"type": "address"
						},
						{
							"internalType": "uint256",
							"name": "tokenId",
							"type": "uint256"
						}
					],
					"name": "approve",
					"outputs": [],
					"stateMutability": "nonpayable",
					"type": "function"
				},
				{
					"inputs": [
						{
							"internalType": "address",
							"name": "owner",
							"type": "address"
						}
					],
					"name": "balanceOf",
					"outputs": [
						{
							"internalType": "uint256",
							"name": "",
							"type": "uint256"
						}
					],
					"stateMutability": "view",
					"type": "function"
				},
				{
					"inputs": [
						{
							"internalType": "uint256",
							"name": "tokenId",
							"type": "uint256"
						}
					],
					"name": "getApproved",
					"outputs": [
						{
							"internalType": "address",
							"name": "",
							"type": "address"
						}
					],
					"stateMutability": "view",
					"type": "function"
				},
				{
					"inputs": [
						{
							"internalType": "uint256",
							"name": "",
							"type": "uint256"
						}
					],
					"name": "houses",
					"outputs": [
						{
							"internalType": "uint256",
							"name": "id",
							"type": "uint256"
						},
						{
							"internalType": "uint256",
							"name": "serialNumber",
							"type": "uint256"
						},
						{
							"internalType": "uint256",
							"name": "price",
							"type": "uint256"
						},
						{
							"internalType": "uint256",
							"name": "priceDai",
							"type": "uint256"
						},
						{
							"internalType": "uint256",
							"name": "area",
							"type": "uint256"
						},
						{
							"internalType": "address",
							"name": "sellerAddress",
							"type": "address"
						},
						{
							"internalType": "address",
							"name": "buyerAddress",
							"type": "address"
						},
						{
							"internalType": "string",
							"name": "houseAddress",
							"type": "string"
						},
						{
							"internalType": "bool",
							"name": "isdelistedHouse",
							"type": "bool"
						}
					],
					"stateMutability": "view",
					"type": "function"
				},
				{
					"inputs": [
						{
							"internalType": "address",
							"name": "owner",
							"type": "address"
						},
						{
							"internalType": "address",
							"name": "operator",
							"type": "address"
						}
					],
					"name": "isApprovedForAll",
					"outputs": [
						{
							"internalType": "bool",
							"name": "",
							"type": "bool"
						}
					],
					"stateMutability": "view",
					"type": "function"
				},
				{
					"inputs": [],
					"name": "name",
					"outputs": [
						{
							"internalType": "string",
							"name": "",
							"type": "string"
						}
					],
					"stateMutability": "view",
					"type": "function"
				},
				{
					"inputs": [
						{
							"internalType": "uint256",
							"name": "tokenId",
							"type": "uint256"
						}
					],
					"name": "ownerOf",
					"outputs": [
						{
							"internalType": "address",
							"name": "",
							"type": "address"
						}
					],
					"stateMutability": "view",
					"type": "function"
				},
				{
					"inputs": [
						{
							"internalType": "address",
							"name": "from",
							"type": "address"
						},
						{
							"internalType": "address",
							"name": "to",
							"type": "address"
						},
						{
							"internalType": "uint256",
							"name": "tokenId",
							"type": "uint256"
						}
					],
					"name": "safeTransferFrom",
					"outputs": [],
					"stateMutability": "nonpayable",
					"type": "function"
				},
				{
					"inputs": [
						{
							"internalType": "address",
							"name": "from",
							"type": "address"
						},
						{
							"internalType": "address",
							"name": "to",
							"type": "address"
						},
						{
							"internalType": "uint256",
							"name": "tokenId",
							"type": "uint256"
						},
						{
							"internalType": "bytes",
							"name": "data",
							"type": "bytes"
						}
					],
					"name": "safeTransferFrom",
					"outputs": [],
					"stateMutability": "nonpayable",
					"type": "function"
				},
				{
					"inputs": [
						{
							"internalType": "address",
							"name": "operator",
							"type": "address"
						},
						{
							"internalType": "bool",
							"name": "approved",
							"type": "bool"
						}
					],
					"name": "setApprovalForAll",
					"outputs": [],
					"stateMutability": "nonpayable",
					"type": "function"
				},
				{
					"inputs": [
						{
							"internalType": "bytes4",
							"name": "interfaceId",
							"type": "bytes4"
						}
					],
					"name": "supportsInterface",
					"outputs": [
						{
							"internalType": "bool",
							"name": "",
							"type": "bool"
						}
					],
					"stateMutability": "view",
					"type": "function"
				},
				{
					"inputs": [],
					"name": "symbol",
					"outputs": [
						{
							"internalType": "string",
							"name": "",
							"type": "string"
						}
					],
					"stateMutability": "view",
					"type": "function"
				},
				{
					"inputs": [
						{
							"internalType": "uint256",
							"name": "tokenId",
							"type": "uint256"
						}
					],
					"name": "tokenURI",
					"outputs": [
						{
							"internalType": "string",
							"name": "",
							"type": "string"
						}
					],
					"stateMutability": "view",
					"type": "function"
				},
				{
					"inputs": [
						{
							"internalType": "address",
							"name": "from",
							"type": "address"
						},
						{
							"internalType": "address",
							"name": "to",
							"type": "address"
						},
						{
							"internalType": "uint256",
							"name": "tokenId",
							"type": "uint256"
						}
					],
					"name": "transferFrom",
					"outputs": [],
					"stateMutability": "nonpayable",
					"type": "function"
				}
			],
			"devdoc": {
				"details": "Implementation of https://eips.ethereum.org/EIPS/eip-721[ERC721] Non-Fungible Token Standard, including the Metadata extension, but not including the Enumerable extension, which is available separately as {ERC721Enumerable}.",
				"kind": "dev",
				"methods": {
					"approve(address,uint256)": {
						"details": "See {IERC721-approve}."
					},
					"balanceOf(address)": {
						"details": "See {IERC721-balanceOf}."
					},
					"constructor": {
						"details": "Initializes the contract by setting a `name` and a `symbol` to the token collection."
					},
					"getApproved(uint256)": {
						"details": "See {IERC721-getApproved}."
					},
					"isApprovedForAll(address,address)": {
						"details": "See {IERC721-isApprovedForAll}."
					},
					"name()": {
						"details": "See {IERC721Metadata-name}."
					},
					"ownerOf(uint256)": {
						"details": "See {IERC721-ownerOf}."
					},
					"safeTransferFrom(address,address,uint256)": {
						"details": "See {IERC721-safeTransferFrom}."
					},
					"safeTransferFrom(address,address,uint256,bytes)": {
						"details": "See {IERC721-safeTransferFrom}."
					},
					"setApprovalForAll(address,bool)": {
						"details": "See {IERC721-setApprovalForAll}."
					},
					"supportsInterface(bytes4)": {
						"details": "See {IERC165-supportsInterface}."
					},
					"symbol()": {
						"details": "See {IERC721Metadata-symbol}."
					},
					"tokenURI(uint256)": {
						"details": "See {IERC721Metadata-tokenURI}."
					},
					"transferFrom(address,address,uint256)": {
						"details": "See {IERC721-transferFrom}."
					}
				},
				"version": 1
			},
			"evm": {
				"assembly": "    /* \"contract/token/ERC721.sol\":674:15454  contract ERC721 is Context, ERC165, IERC721, IERC721Metadata {\r... */\n  mstore(0x40, 0x80)\n    /* \"contract/token/ERC721.sol\":1769:1885  constructor(string memory name_, string memory symbol_) {\r... */\n  callvalue\n  dup1\n  iszero\n  tag_1\n  jumpi\n  0x00\n  dup1\n  revert\ntag_1:\n  pop\n  mload(0x40)\n  sub(codesize, bytecodeSize)\n  dup1\n  bytecodeSize\n  dup4\n  codecopy\n  dup2\n  dup2\n  add\n  0x40\n  mstore\n  dup2\n  add\n  swap1\n  tag_2\n  swap2\n  swap1\n  tag_3\n  jump\t// in\ntag_2:\n    /* \"contract/token/ERC721.sol\":1844:1849  name_ */\n  dup2\n    /* \"contract/token/ERC721.sol\":1836:1841  _name */\n  0x00\n    /* \"contract/token/ERC721.sol\":1836:1849  _name = name_ */\n  swap1\n  dup1\n  mload\n  swap1\n  0x20\n  add\n  swap1\n  tag_6\n  swap3\n  swap2\n  swap1\n  tag_7\n  jump\t// in\ntag_6:\n  pop\n    /* \"contract/token/ERC721.sol\":1870:1877  symbol_ */\n  dup1\n    /* \"contract/token/ERC721.sol\":1860:1867  _symbol */\n  0x01\n    /* \"contract/token/ERC721.sol\":1860:1877  _symbol = symbol_ */\n  swap1\n  dup1\n  mload\n  swap1\n  0x20\n  add\n  swap1\n  tag_8\n  swap3\n  swap2\n  swap1\n  tag_7\n  jump\t// in\ntag_8:\n  pop\n    /* \"contract/token/ERC721.sol\":1769:1885  constructor(string memory name_, string memory symbol_) {\r... */\n  pop\n  pop\n    /* \"contract/token/ERC721.sol\":674:15454  contract ERC721 is Context, ERC165, IERC721, IERC721Metadata {\r... */\n  jump(tag_9)\ntag_7:\n  dup3\n  dup1\n  sload\n  tag_10\n  swap1\n  tag_11\n  jump\t// in\ntag_10:\n  swap1\n  0x00\n  mstore\n  keccak256(0x00, 0x20)\n  swap1\n  0x1f\n  add\n  0x20\n  swap1\n  div\n  dup2\n  add\n  swap3\n  dup3\n  tag_13\n  jumpi\n  0x00\n  dup6\n  sstore\n  jump(tag_12)\ntag_13:\n  dup3\n  0x1f\n  lt\n  tag_14\n  jumpi\n  dup1\n  mload\n  not(0xff)\n  and\n  dup4\n  dup1\n  add\n  or\n  dup6\n  sstore\n  jump(tag_12)\ntag_14:\n  dup3\n  dup1\n  add\n  0x01\n  add\n  dup6\n  sstore\n  dup3\n  iszero\n  tag_12\n  jumpi\n  swap2\n  dup3\n  add\ntag_15:\n  dup3\n  dup2\n  gt\n  iszero\n  tag_16\n  jumpi\n  dup3\n  mload\n  dup3\n  sstore\n  swap2\n  0x20\n  add\n  swap2\n  swap1\n  0x01\n  add\n  swap1\n  jump(tag_15)\ntag_16:\ntag_12:\n  pop\n  swap1\n  pop\n  tag_17\n  swap2\n  swap1\n  tag_18\n  jump\t// in\ntag_17:\n  pop\n  swap1\n  jump\t// out\ntag_18:\ntag_19:\n  dup1\n  dup3\n  gt\n  iszero\n  tag_20\n  jumpi\n  0x00\n  dup2\n  0x00\n  swap1\n  sstore\n  pop\n  0x01\n  add\n  jump(tag_19)\ntag_20:\n  pop\n  swap1\n  jump\t// out\n    /* \"#utility.yul\":7:428   */\ntag_22:\n    /* \"#utility.yul\":96:101   */\n  0x00\n    /* \"#utility.yul\":121:187   */\n  tag_24\n    /* \"#utility.yul\":137:186   */\n  tag_25\n    /* \"#utility.yul\":179:185   */\n  dup5\n    /* \"#utility.yul\":137:186   */\n  tag_26\n  jump\t// in\ntag_25:\n    /* \"#utility.yul\":121:187   */\n  tag_27\n  jump\t// in\ntag_24:\n    /* \"#utility.yul\":112:187   */\n  swap1\n  pop\n    /* \"#utility.yul\":210:216   */\n  dup3\n    /* \"#utility.yul\":203:208   */\n  dup2\n    /* \"#utility.yul\":196:217   */\n  mstore\n    /* \"#utility.yul\":248:252   */\n  0x20\n    /* \"#utility.yul\":241:246   */\n  dup2\n    /* \"#utility.yul\":237:253   */\n  add\n    /* \"#utility.yul\":286:289   */\n  dup5\n    /* \"#utility.yul\":277:283   */\n  dup5\n    /* \"#utility.yul\":272:275   */\n  dup5\n    /* \"#utility.yul\":268:284   */\n  add\n    /* \"#utility.yul\":265:290   */\n  gt\n    /* \"#utility.yul\":262:374   */\n  iszero\n  tag_28\n  jumpi\n    /* \"#utility.yul\":293:372   */\n  tag_29\n  tag_30\n  jump\t// in\ntag_29:\n    /* \"#utility.yul\":262:374   */\ntag_28:\n    /* \"#utility.yul\":383:422   */\n  tag_31\n    /* \"#utility.yul\":415:421   */\n  dup5\n    /* \"#utility.yul\":410:413   */\n  dup3\n    /* \"#utility.yul\":405:408   */\n  dup6\n    /* \"#utility.yul\":383:422   */\n  tag_32\n  jump\t// in\ntag_31:\n    /* \"#utility.yul\":102:428   */\n  pop\n    /* \"#utility.yul\":7:428   */\n  swap4\n  swap3\n  pop\n  pop\n  pop\n  jump\t// out\n    /* \"#utility.yul\":448:803   */\ntag_33:\n    /* \"#utility.yul\":515:520   */\n  0x00\n    /* \"#utility.yul\":564:567   */\n  dup3\n    /* \"#utility.yul\":557:561   */\n  0x1f\n    /* \"#utility.yul\":549:555   */\n  dup4\n    /* \"#utility.yul\":545:562   */\n  add\n    /* \"#utility.yul\":541:568   */\n  slt\n    /* \"#utility.yul\":531:653   */\n  tag_35\n  jumpi\n    /* \"#utility.yul\":572:651   */\n  tag_36\n  tag_37\n  jump\t// in\ntag_36:\n    /* \"#utility.yul\":531:653   */\ntag_35:\n    /* \"#utility.yul\":682:688   */\n  dup2\n    /* \"#utility.yul\":676:689   */\n  mload\n    /* \"#utility.yul\":707:797   */\n  tag_38\n    /* \"#utility.yul\":793:796   */\n  dup5\n    /* \"#utility.yul\":785:791   */\n  dup3\n    /* \"#utility.yul\":778:782   */\n  0x20\n    /* \"#utility.yul\":770:776   */\n  dup7\n    /* \"#utility.yul\":766:783   */\n  add\n    /* \"#utility.yul\":707:797   */\n  tag_22\n  jump\t// in\ntag_38:\n    /* \"#utility.yul\":698:797   */\n  swap2\n  pop\n    /* \"#utility.yul\":521:803   */\n  pop\n    /* \"#utility.yul\":448:803   */\n  swap3\n  swap2\n  pop\n  pop\n  jump\t// out\n    /* \"#utility.yul\":809:1662   */\ntag_3:\n    /* \"#utility.yul\":908:914   */\n  0x00\n    /* \"#utility.yul\":916:922   */\n  dup1\n    /* \"#utility.yul\":965:967   */\n  0x40\n    /* \"#utility.yul\":953:962   */\n  dup4\n    /* \"#utility.yul\":944:951   */\n  dup6\n    /* \"#utility.yul\":940:963   */\n  sub\n    /* \"#utility.yul\":936:968   */\n  slt\n    /* \"#utility.yul\":933:1052   */\n  iszero\n  tag_40\n  jumpi\n    /* \"#utility.yul\":971:1050   */\n  tag_41\n  tag_42\n  jump\t// in\ntag_41:\n    /* \"#utility.yul\":933:1052   */\ntag_40:\n    /* \"#utility.yul\":1112:1113   */\n  0x00\n    /* \"#utility.yul\":1101:1110   */\n  dup4\n    /* \"#utility.yul\":1097:1114   */\n  add\n    /* \"#utility.yul\":1091:1115   */\n  mload\n    /* \"#utility.yul\":1142:1160   */\n  0xffffffffffffffff\n    /* \"#utility.yul\":1134:1140   */\n  dup2\n    /* \"#utility.yul\":1131:1161   */\n  gt\n    /* \"#utility.yul\":1128:1245   */\n  iszero\n  tag_43\n  jumpi\n    /* \"#utility.yul\":1164:1243   */\n  tag_44\n  tag_45\n  jump\t// in\ntag_44:\n    /* \"#utility.yul\":1128:1245   */\ntag_43:\n    /* \"#utility.yul\":1269:1343   */\n  tag_46\n    /* \"#utility.yul\":1335:1342   */\n  dup6\n    /* \"#utility.yul\":1326:1332   */\n  dup3\n    /* \"#utility.yul\":1315:1324   */\n  dup7\n    /* \"#utility.yul\":1311:1333   */\n  add\n    /* \"#utility.yul\":1269:1343   */\n  tag_33\n  jump\t// in\ntag_46:\n    /* \"#utility.yul\":1259:1343   */\n  swap3\n  pop\n    /* \"#utility.yul\":1062:1353   */\n  pop\n    /* \"#utility.yul\":1413:1415   */\n  0x20\n    /* \"#utility.yul\":1402:1411   */\n  dup4\n    /* \"#utility.yul\":1398:1416   */\n  add\n    /* \"#utility.yul\":1392:1417   */\n  mload\n    /* \"#utility.yul\":1444:1462   */\n  0xffffffffffffffff\n    /* \"#utility.yul\":1436:1442   */\n  dup2\n    /* \"#utility.yul\":1433:1463   */\n  gt\n    /* \"#utility.yul\":1430:1547   */\n  iszero\n  tag_47\n  jumpi\n    /* \"#utility.yul\":1466:1545   */\n  tag_48\n  tag_45\n  jump\t// in\ntag_48:\n    /* \"#utility.yul\":1430:1547   */\ntag_47:\n    /* \"#utility.yul\":1571:1645   */\n  tag_49\n    /* \"#utility.yul\":1637:1644   */\n  dup6\n    /* \"#utility.yul\":1628:1634   */\n  dup3\n    /* \"#utility.yul\":1617:1626   */\n  dup7\n    /* \"#utility.yul\":1613:1635   */\n  add\n    /* \"#utility.yul\":1571:1645   */\n  tag_33\n  jump\t// in\ntag_49:\n    /* \"#utility.yul\":1561:1645   */\n  swap2\n  pop\n    /* \"#utility.yul\":1363:1655   */\n  pop\n    /* \"#utility.yul\":809:1662   */\n  swap3\n  pop\n  swap3\n  swap1\n  pop\n  jump\t// out\n    /* \"#utility.yul\":1668:1797   */\ntag_27:\n    /* \"#utility.yul\":1702:1708   */\n  0x00\n    /* \"#utility.yul\":1729:1749   */\n  tag_51\n  tag_52\n  jump\t// in\ntag_51:\n    /* \"#utility.yul\":1719:1749   */\n  swap1\n  pop\n    /* \"#utility.yul\":1758:1791   */\n  tag_53\n    /* \"#utility.yul\":1786:1790   */\n  dup3\n    /* \"#utility.yul\":1778:1784   */\n  dup3\n    /* \"#utility.yul\":1758:1791   */\n  tag_54\n  jump\t// in\ntag_53:\n    /* \"#utility.yul\":1668:1797   */\n  swap2\n  swap1\n  pop\n  jump\t// out\n    /* \"#utility.yul\":1803:1878   */\ntag_52:\n    /* \"#utility.yul\":1836:1842   */\n  0x00\n    /* \"#utility.yul\":1869:1871   */\n  0x40\n    /* \"#utility.yul\":1863:1872   */\n  mload\n    /* \"#utility.yul\":1853:1872   */\n  swap1\n  pop\n    /* \"#utility.yul\":1803:1878   */\n  swap1\n  jump\t// out\n    /* \"#utility.yul\":1884:2192   */\ntag_26:\n    /* \"#utility.yul\":1946:1950   */\n  0x00\n    /* \"#utility.yul\":2036:2054   */\n  0xffffffffffffffff\n    /* \"#utility.yul\":2028:2034   */\n  dup3\n    /* \"#utility.yul\":2025:2055   */\n  gt\n    /* \"#utility.yul\":2022:2078   */\n  iszero\n  tag_57\n  jumpi\n    /* \"#utility.yul\":2058:2076   */\n  tag_58\n  tag_59\n  jump\t// in\ntag_58:\n    /* \"#utility.yul\":2022:2078   */\ntag_57:\n    /* \"#utility.yul\":2096:2125   */\n  tag_60\n    /* \"#utility.yul\":2118:2124   */\n  dup3\n    /* \"#utility.yul\":2096:2125   */\n  tag_61\n  jump\t// in\ntag_60:\n    /* \"#utility.yul\":2088:2125   */\n  swap1\n  pop\n    /* \"#utility.yul\":2180:2184   */\n  0x20\n    /* \"#utility.yul\":2174:2178   */\n  dup2\n    /* \"#utility.yul\":2170:2185   */\n  add\n    /* \"#utility.yul\":2162:2185   */\n  swap1\n  pop\n    /* \"#utility.yul\":1884:2192   */\n  swap2\n  swap1\n  pop\n  jump\t// out\n    /* \"#utility.yul\":2198:2505   */\ntag_32:\n    /* \"#utility.yul\":2266:2267   */\n  0x00\n    /* \"#utility.yul\":2276:2389   */\ntag_63:\n    /* \"#utility.yul\":2290:2296   */\n  dup4\n    /* \"#utility.yul\":2287:2288   */\n  dup2\n    /* \"#utility.yul\":2284:2297   */\n  lt\n    /* \"#utility.yul\":2276:2389   */\n  iszero\n  tag_65\n  jumpi\n    /* \"#utility.yul\":2375:2376   */\n  dup1\n    /* \"#utility.yul\":2370:2373   */\n  dup3\n    /* \"#utility.yul\":2366:2377   */\n  add\n    /* \"#utility.yul\":2360:2378   */\n  mload\n    /* \"#utility.yul\":2356:2357   */\n  dup2\n    /* \"#utility.yul\":2351:2354   */\n  dup5\n    /* \"#utility.yul\":2347:2358   */\n  add\n    /* \"#utility.yul\":2340:2379   */\n  mstore\n    /* \"#utility.yul\":2312:2314   */\n  0x20\n    /* \"#utility.yul\":2309:2310   */\n  dup2\n    /* \"#utility.yul\":2305:2315   */\n  add\n    /* \"#utility.yul\":2300:2315   */\n  swap1\n  pop\n    /* \"#utility.yul\":2276:2389   */\n  jump(tag_63)\ntag_65:\n    /* \"#utility.yul\":2407:2413   */\n  dup4\n    /* \"#utility.yul\":2404:2405   */\n  dup2\n    /* \"#utility.yul\":2401:2414   */\n  gt\n    /* \"#utility.yul\":2398:2499   */\n  iszero\n  tag_66\n  jumpi\n    /* \"#utility.yul\":2487:2488   */\n  0x00\n    /* \"#utility.yul\":2478:2484   */\n  dup5\n    /* \"#utility.yul\":2473:2476   */\n  dup5\n    /* \"#utility.yul\":2469:2485   */\n  add\n    /* \"#utility.yul\":2462:2489   */\n  mstore\n    /* \"#utility.yul\":2398:2499   */\ntag_66:\n    /* \"#utility.yul\":2247:2505   */\n  pop\n    /* \"#utility.yul\":2198:2505   */\n  pop\n  pop\n  pop\n  jump\t// out\n    /* \"#utility.yul\":2511:2831   */\ntag_11:\n    /* \"#utility.yul\":2555:2561   */\n  0x00\n    /* \"#utility.yul\":2592:2593   */\n  0x02\n    /* \"#utility.yul\":2586:2590   */\n  dup3\n    /* \"#utility.yul\":2582:2594   */\n  div\n    /* \"#utility.yul\":2572:2594   */\n  swap1\n  pop\n    /* \"#utility.yul\":2639:2640   */\n  0x01\n    /* \"#utility.yul\":2633:2637   */\n  dup3\n    /* \"#utility.yul\":2629:2641   */\n  and\n    /* \"#utility.yul\":2660:2678   */\n  dup1\n    /* \"#utility.yul\":2650:2731   */\n  tag_68\n  jumpi\n    /* \"#utility.yul\":2716:2720   */\n  0x7f\n    /* \"#utility.yul\":2708:2714   */\n  dup3\n    /* \"#utility.yul\":2704:2721   */\n  and\n    /* \"#utility.yul\":2694:2721   */\n  swap2\n  pop\n    /* \"#utility.yul\":2650:2731   */\ntag_68:\n    /* \"#utility.yul\":2778:2780   */\n  0x20\n    /* \"#utility.yul\":2770:2776   */\n  dup3\n    /* \"#utility.yul\":2767:2781   */\n  lt\n    /* \"#utility.yul\":2747:2765   */\n  dup2\n    /* \"#utility.yul\":2744:2782   */\n  eq\n    /* \"#utility.yul\":2741:2825   */\n  iszero\n  tag_69\n  jumpi\n    /* \"#utility.yul\":2797:2815   */\n  tag_70\n  tag_71\n  jump\t// in\ntag_70:\n    /* \"#utility.yul\":2741:2825   */\ntag_69:\n    /* \"#utility.yul\":2562:2831   */\n  pop\n    /* \"#utility.yul\":2511:2831   */\n  swap2\n  swap1\n  pop\n  jump\t// out\n    /* \"#utility.yul\":2837:3118   */\ntag_54:\n    /* \"#utility.yul\":2920:2947   */\n  tag_73\n    /* \"#utility.yul\":2942:2946   */\n  dup3\n    /* \"#utility.yul\":2920:2947   */\n  tag_61\n  jump\t// in\ntag_73:\n    /* \"#utility.yul\":2912:2918   */\n  dup2\n    /* \"#utility.yul\":2908:2948   */\n  add\n    /* \"#utility.yul\":3050:3056   */\n  dup2\n    /* \"#utility.yul\":3038:3048   */\n  dup2\n    /* \"#utility.yul\":3035:3057   */\n  lt\n    /* \"#utility.yul\":3014:3032   */\n  0xffffffffffffffff\n    /* \"#utility.yul\":3002:3012   */\n  dup3\n    /* \"#utility.yul\":2999:3033   */\n  gt\n    /* \"#utility.yul\":2996:3058   */\n  or\n    /* \"#utility.yul\":2993:3081   */\n  iszero\n  tag_74\n  jumpi\n    /* \"#utility.yul\":3061:3079   */\n  tag_75\n  tag_59\n  jump\t// in\ntag_75:\n    /* \"#utility.yul\":2993:3081   */\ntag_74:\n    /* \"#utility.yul\":3101:3111   */\n  dup1\n    /* \"#utility.yul\":3097:3099   */\n  0x40\n    /* \"#utility.yul\":3090:3112   */\n  mstore\n    /* \"#utility.yul\":2880:3118   */\n  pop\n    /* \"#utility.yul\":2837:3118   */\n  pop\n  pop\n  jump\t// out\n    /* \"#utility.yul\":3124:3304   */\ntag_71:\n    /* \"#utility.yul\":3172:3249   */\n  0x4e487b7100000000000000000000000000000000000000000000000000000000\n    /* \"#utility.yul\":3169:3170   */\n  0x00\n    /* \"#utility.yul\":3162:3250   */\n  mstore\n    /* \"#utility.yul\":3269:3273   */\n  0x22\n    /* \"#utility.yul\":3266:3267   */\n  0x04\n    /* \"#utility.yul\":3259:3274   */\n  mstore\n    /* \"#utility.yul\":3293:3297   */\n  0x24\n    /* \"#utility.yul\":3290:3291   */\n  0x00\n    /* \"#utility.yul\":3283:3298   */\n  revert\n    /* \"#utility.yul\":3310:3490   */\ntag_59:\n    /* \"#utility.yul\":3358:3435   */\n  0x4e487b7100000000000000000000000000000000000000000000000000000000\n    /* \"#utility.yul\":3355:3356   */\n  0x00\n    /* \"#utility.yul\":3348:3436   */\n  mstore\n    /* \"#utility.yul\":3455:3459   */\n  0x41\n    /* \"#utility.yul\":3452:3453   */\n  0x04\n    /* \"#utility.yul\":3445:3460   */\n  mstore\n    /* \"#utility.yul\":3479:3483   */\n  0x24\n    /* \"#utility.yul\":3476:3477   */\n  0x00\n    /* \"#utility.yul\":3469:3484   */\n  revert\n    /* \"#utility.yul\":3496:3613   */\ntag_37:\n    /* \"#utility.yul\":3605:3606   */\n  0x00\n    /* \"#utility.yul\":3602:3603   */\n  dup1\n    /* \"#utility.yul\":3595:3607   */\n  revert\n    /* \"#utility.yul\":3619:3736   */\ntag_30:\n    /* \"#utility.yul\":3728:3729   */\n  0x00\n    /* \"#utility.yul\":3725:3726   */\n  dup1\n    /* \"#utility.yul\":3718:3730   */\n  revert\n    /* \"#utility.yul\":3742:3859   */\ntag_45:\n    /* \"#utility.yul\":3851:3852   */\n  0x00\n    /* \"#utility.yul\":3848:3849   */\n  dup1\n    /* \"#utility.yul\":3841:3853   */\n  revert\n    /* \"#utility.yul\":3865:3982   */\ntag_42:\n    /* \"#utility.yul\":3974:3975   */\n  0x00\n    /* \"#utility.yul\":3971:3972   */\n  dup1\n    /* \"#utility.yul\":3964:3976   */\n  revert\n    /* \"#utility.yul\":3988:4090   */\ntag_61:\n    /* \"#utility.yul\":4029:4035   */\n  0x00\n    /* \"#utility.yul\":4080:4082   */\n  0x1f\n    /* \"#utility.yul\":4076:4083   */\n  not\n    /* \"#utility.yul\":4071:4073   */\n  0x1f\n    /* \"#utility.yul\":4064:4069   */\n  dup4\n    /* \"#utility.yul\":4060:4074   */\n  add\n    /* \"#utility.yul\":4056:4084   */\n  and\n    /* \"#utility.yul\":4046:4084   */\n  swap1\n  pop\n    /* \"#utility.yul\":3988:4090   */\n  swap2\n  swap1\n  pop\n  jump\t// out\n    /* \"contract/token/ERC721.sol\":674:15454  contract ERC721 is Context, ERC165, IERC721, IERC721Metadata {\r... */\ntag_9:\n  dataSize(sub_0)\n  dup1\n  dataOffset(sub_0)\n  0x00\n  codecopy\n  0x00\n  return\nstop\n\nsub_0: assembly {\n        /* \"contract/token/ERC721.sol\":674:15454  contract ERC721 is Context, ERC165, IERC721, IERC721Metadata {\r... */\n      mstore(0x40, 0x80)\n      callvalue\n      dup1\n      iszero\n      tag_1\n      jumpi\n      0x00\n      dup1\n      revert\n    tag_1:\n      pop\n      jumpi(tag_2, lt(calldatasize, 0x04))\n      shr(0xe0, calldataload(0x00))\n      dup1\n      0x6352211e\n      gt\n      tag_18\n      jumpi\n      dup1\n      0xaeda852f\n      gt\n      tag_19\n      jumpi\n      dup1\n      0xaeda852f\n      eq\n      tag_14\n      jumpi\n      dup1\n      0xb88d4fde\n      eq\n      tag_15\n      jumpi\n      dup1\n      0xc87b56dd\n      eq\n      tag_16\n      jumpi\n      dup1\n      0xe985e9c5\n      eq\n      tag_17\n      jumpi\n      jump(tag_2)\n    tag_19:\n      dup1\n      0x6352211e\n      eq\n      tag_10\n      jumpi\n      dup1\n      0x70a08231\n      eq\n      tag_11\n      jumpi\n      dup1\n      0x95d89b41\n      eq\n      tag_12\n      jumpi\n      dup1\n      0xa22cb465\n      eq\n      tag_13\n      jumpi\n      jump(tag_2)\n    tag_18:\n      dup1\n      0x081812fc\n      gt\n      tag_20\n      jumpi\n      dup1\n      0x081812fc\n      eq\n      tag_6\n      jumpi\n      dup1\n      0x095ea7b3\n      eq\n      tag_7\n      jumpi\n      dup1\n      0x23b872dd\n      eq\n      tag_8\n      jumpi\n      dup1\n      0x42842e0e\n      eq\n      tag_9\n      jumpi\n      jump(tag_2)\n    tag_20:\n      dup1\n      0x01ffc9a7\n      eq\n      tag_3\n      jumpi\n      dup1\n      0x0548fa4f\n      eq\n      tag_4\n      jumpi\n      dup1\n      0x06fdde03\n      eq\n      tag_5\n      jumpi\n    tag_2:\n      0x00\n      dup1\n      revert\n        /* \"contract/token/ERC721.sol\":2354:2659  function supportsInterface(bytes4 interfaceId) public view virtual override(ERC165, IERC165) returns (bool) {\r... */\n    tag_3:\n      tag_21\n      0x04\n      dup1\n      calldatasize\n      sub\n      dup2\n      add\n      swap1\n      tag_22\n      swap2\n      swap1\n      tag_23\n      jump\t// in\n    tag_22:\n      tag_24\n      jump\t// in\n    tag_21:\n      mload(0x40)\n      tag_25\n      swap2\n      swap1\n      tag_26\n      jump\t// in\n    tag_25:\n      mload(0x40)\n      dup1\n      swap2\n      sub\n      swap1\n      return\n        /* \"contract/token/ERC721.sol\":1895:2282  function addHouse (uint _houseId, uint _serialNumber, uint _price, uint _priceDai, uint _area, address _sellerAddress, string memory _houseAddress) external {\r... */\n    tag_4:\n      tag_27\n      0x04\n      dup1\n      calldatasize\n      sub\n      dup2\n      add\n      swap1\n      tag_28\n      swap2\n      swap1\n      tag_29\n      jump\t// in\n    tag_28:\n      tag_30\n      jump\t// in\n    tag_27:\n      stop\n        /* \"contract/token/ERC721.sol\":3298:3398  function name() public view virtual override returns (string memory) {\r... */\n    tag_5:\n      tag_31\n      tag_32\n      jump\t// in\n    tag_31:\n      mload(0x40)\n      tag_33\n      swap2\n      swap1\n      tag_34\n      jump\t// in\n    tag_33:\n      mload(0x40)\n      dup1\n      swap2\n      sub\n      swap1\n      return\n        /* \"contract/token/ERC721.sol\":4858:5079  function getApproved(uint256 tokenId) public view virtual override returns (address) {\r... */\n    tag_6:\n      tag_35\n      0x04\n      dup1\n      calldatasize\n      sub\n      dup2\n      add\n      swap1\n      tag_36\n      swap2\n      swap1\n      tag_37\n      jump\t// in\n    tag_36:\n      tag_38\n      jump\t// in\n    tag_35:\n      mload(0x40)\n      tag_39\n      swap2\n      swap1\n      tag_40\n      jump\t// in\n    tag_39:\n      mload(0x40)\n      dup1\n      swap2\n      sub\n      swap1\n      return\n        /* \"contract/token/ERC721.sol\":4381:4792  function approve(address to, uint256 tokenId) public virtual override {\r... */\n    tag_7:\n      tag_41\n      0x04\n      dup1\n      calldatasize\n      sub\n      dup2\n      add\n      swap1\n      tag_42\n      swap2\n      swap1\n      tag_43\n      jump\t// in\n    tag_42:\n      tag_44\n      jump\t// in\n    tag_41:\n      stop\n        /* \"contract/token/ERC721.sol\":5608:5947  function transferFrom(\r... */\n    tag_8:\n      tag_45\n      0x04\n      dup1\n      calldatasize\n      sub\n      dup2\n      add\n      swap1\n      tag_46\n      swap2\n      swap1\n      tag_47\n      jump\t// in\n    tag_46:\n      tag_48\n      jump\t// in\n    tag_45:\n      stop\n        /* \"contract/token/ERC721.sol\":6018:6203  function safeTransferFrom(\r... */\n    tag_9:\n      tag_49\n      0x04\n      dup1\n      calldatasize\n      sub\n      dup2\n      add\n      swap1\n      tag_50\n      swap2\n      swap1\n      tag_47\n      jump\t// in\n    tag_50:\n      tag_51\n      jump\t// in\n    tag_49:\n      stop\n        /* \"contract/token/ERC721.sol\":2992:3231  function ownerOf(uint256 tokenId) public view virtual override returns (address) {\r... */\n    tag_10:\n      tag_52\n      0x04\n      dup1\n      calldatasize\n      sub\n      dup2\n      add\n      swap1\n      tag_53\n      swap2\n      swap1\n      tag_37\n      jump\t// in\n    tag_53:\n      tag_54\n      jump\t// in\n    tag_52:\n      mload(0x40)\n      tag_55\n      swap2\n      swap1\n      tag_40\n      jump\t// in\n    tag_55:\n      mload(0x40)\n      dup1\n      swap2\n      sub\n      swap1\n      return\n        /* \"contract/token/ERC721.sol\":2723:2930  function balanceOf(address owner) public view virtual override returns (uint256) {\r... */\n    tag_11:\n      tag_56\n      0x04\n      dup1\n      calldatasize\n      sub\n      dup2\n      add\n      swap1\n      tag_57\n      swap2\n      swap1\n      tag_58\n      jump\t// in\n    tag_57:\n      tag_59\n      jump\t// in\n    tag_56:\n      mload(0x40)\n      tag_60\n      swap2\n      swap1\n      tag_61\n      jump\t// in\n    tag_60:\n      mload(0x40)\n      dup1\n      swap2\n      sub\n      swap1\n      return\n        /* \"contract/token/ERC721.sol\":3467:3571  function symbol() public view virtual override returns (string memory) {\r... */\n    tag_12:\n      tag_62\n      tag_63\n      jump\t// in\n    tag_62:\n      mload(0x40)\n      tag_64\n      swap2\n      swap1\n      tag_34\n      jump\t// in\n    tag_64:\n      mload(0x40)\n      dup1\n      swap2\n      sub\n      swap1\n      return\n        /* \"contract/token/ERC721.sol\":5151:5306  function setApprovalForAll(address operator, bool approved) public virtual override {\r... */\n    tag_13:\n      tag_65\n      0x04\n      dup1\n      calldatasize\n      sub\n      dup2\n      add\n      swap1\n      tag_66\n      swap2\n      swap1\n      tag_67\n      jump\t// in\n    tag_66:\n      tag_68\n      jump\t// in\n    tag_65:\n      stop\n        /* \"contract/token/ERC721.sol\":1608:1644  mapping(uint => House) public houses */\n    tag_14:\n      tag_69\n      0x04\n      dup1\n      calldatasize\n      sub\n      dup2\n      add\n      swap1\n      tag_70\n      swap2\n      swap1\n      tag_37\n      jump\t// in\n    tag_70:\n      tag_71\n      jump\t// in\n    tag_69:\n      mload(0x40)\n      tag_72\n      swap10\n      swap9\n      swap8\n      swap7\n      swap6\n      swap5\n      swap4\n      swap3\n      swap2\n      swap1\n      tag_73\n      jump\t// in\n    tag_72:\n      mload(0x40)\n      dup1\n      swap2\n      sub\n      swap1\n      return\n        /* \"contract/token/ERC721.sol\":6274:6600  function safeTransferFrom(\r... */\n    tag_15:\n      tag_74\n      0x04\n      dup1\n      calldatasize\n      sub\n      dup2\n      add\n      swap1\n      tag_75\n      swap2\n      swap1\n      tag_76\n      jump\t// in\n    tag_75:\n      tag_77\n      jump\t// in\n    tag_74:\n      stop\n        /* \"contract/token/ERC721.sol\":3642:3976  function tokenURI(uint256 tokenId) public view virtual override returns (string memory) {\r... */\n    tag_16:\n      tag_78\n      0x04\n      dup1\n      calldatasize\n      sub\n      dup2\n      add\n      swap1\n      tag_79\n      swap2\n      swap1\n      tag_37\n      jump\t// in\n    tag_79:\n      tag_80\n      jump\t// in\n    tag_78:\n      mload(0x40)\n      tag_81\n      swap2\n      swap1\n      tag_34\n      jump\t// in\n    tag_81:\n      mload(0x40)\n      dup1\n      swap2\n      sub\n      swap1\n      return\n        /* \"contract/token/ERC721.sol\":5377:5541  function isApprovedForAll(address owner, address operator) public view virtual override returns (bool) {\r... */\n    tag_17:\n      tag_82\n      0x04\n      dup1\n      calldatasize\n      sub\n      dup2\n      add\n      swap1\n      tag_83\n      swap2\n      swap1\n      tag_84\n      jump\t// in\n    tag_83:\n      tag_85\n      jump\t// in\n    tag_82:\n      mload(0x40)\n      tag_86\n      swap2\n      swap1\n      tag_26\n      jump\t// in\n    tag_86:\n      mload(0x40)\n      dup1\n      swap2\n      sub\n      swap1\n      return\n        /* \"contract/token/ERC721.sol\":2354:2659  function supportsInterface(bytes4 interfaceId) public view virtual override(ERC165, IERC165) returns (bool) {\r... */\n    tag_24:\n        /* \"contract/token/ERC721.sol\":2456:2460  bool */\n      0x00\n        /* \"contract/token/ERC721.sol\":2508:2533  type(IERC721).interfaceId */\n      0x80ac58cd00000000000000000000000000000000000000000000000000000000\n        /* \"contract/token/ERC721.sol\":2493:2533  interfaceId == type(IERC721).interfaceId */\n      not(0xffffffffffffffffffffffffffffffffffffffffffffffffffffffff)\n      and\n        /* \"contract/token/ERC721.sol\":2493:2504  interfaceId */\n      dup3\n        /* \"contract/token/ERC721.sol\":2493:2533  interfaceId == type(IERC721).interfaceId */\n      not(0xffffffffffffffffffffffffffffffffffffffffffffffffffffffff)\n      and\n      eq\n        /* \"contract/token/ERC721.sol\":2493:2598  interfaceId == type(IERC721).interfaceId ||\r... */\n      dup1\n      tag_88\n      jumpi\n      pop\n        /* \"contract/token/ERC721.sol\":2565:2598  type(IERC721Metadata).interfaceId */\n      0x5b5e139f00000000000000000000000000000000000000000000000000000000\n        /* \"contract/token/ERC721.sol\":2550:2598  interfaceId == type(IERC721Metadata).interfaceId */\n      not(0xffffffffffffffffffffffffffffffffffffffffffffffffffffffff)\n      and\n        /* \"contract/token/ERC721.sol\":2550:2561  interfaceId */\n      dup3\n        /* \"contract/token/ERC721.sol\":2550:2598  interfaceId == type(IERC721Metadata).interfaceId */\n      not(0xffffffffffffffffffffffffffffffffffffffffffffffffffffffff)\n      and\n      eq\n        /* \"contract/token/ERC721.sol\":2493:2598  interfaceId == type(IERC721).interfaceId ||\r... */\n    tag_88:\n        /* \"contract/token/ERC721.sol\":2493:2651  interfaceId == type(IERC721).interfaceId ||\r... */\n      dup1\n      tag_89\n      jumpi\n      pop\n        /* \"contract/token/ERC721.sol\":2615:2651  super.supportsInterface(interfaceId) */\n      tag_90\n        /* \"contract/token/ERC721.sol\":2639:2650  interfaceId */\n      dup3\n        /* \"contract/token/ERC721.sol\":2615:2638  super.supportsInterface */\n      tag_91\n        /* \"contract/token/ERC721.sol\":2615:2651  super.supportsInterface(interfaceId) */\n      jump\t// in\n    tag_90:\n        /* \"contract/token/ERC721.sol\":2493:2651  interfaceId == type(IERC721).interfaceId ||\r... */\n    tag_89:\n        /* \"contract/token/ERC721.sol\":2473:2651  return\r... */\n      swap1\n      pop\n        /* \"contract/token/ERC721.sol\":2354:2659  function supportsInterface(bytes4 interfaceId) public view virtual override(ERC165, IERC165) returns (bool) {\r... */\n      swap2\n      swap1\n      pop\n      jump\t// out\n        /* \"contract/token/ERC721.sol\":1895:2282  function addHouse (uint _houseId, uint _serialNumber, uint _price, uint _priceDai, uint _area, address _sellerAddress, string memory _houseAddress) external {\r... */\n    tag_30:\n        /* \"contract/token/ERC721.sol\":2083:2089  houses */\n      0x06\n        /* \"contract/token/ERC721.sol\":2083:2099  houses[_houseId] */\n      0x00\n        /* \"contract/token/ERC721.sol\":2090:2098  _houseId */\n      dup9\n        /* \"contract/token/ERC721.sol\":2083:2099  houses[_houseId] */\n      dup2\n      mstore\n      0x20\n      add\n      swap1\n      dup2\n      mstore\n      0x20\n      add\n      0x00\n      keccak256\n        /* \"contract/token/ERC721.sol\":2083:2102  houses[_houseId].id */\n      0x00\n      add\n      sload\n        /* \"contract/token/ERC721.sol\":2071:2079  _houseId */\n      dup8\n        /* \"contract/token/ERC721.sol\":2071:2102  _houseId != houses[_houseId].id */\n      eq\n      iszero\n        /* \"contract/token/ERC721.sol\":2063:2134  require(_houseId != houses[_houseId].id, \"this houseId already exists\") */\n      tag_93\n      jumpi\n      mload(0x40)\n      0x08c379a000000000000000000000000000000000000000000000000000000000\n      dup2\n      mstore\n      0x04\n      add\n      tag_94\n      swap1\n      tag_95\n      jump\t// in\n    tag_94:\n      mload(0x40)\n      dup1\n      swap2\n      sub\n      swap1\n      revert\n    tag_93:\n        /* \"contract/token/ERC721.sol\":2164:2274  House(_houseId, _serialNumber, _price, _priceDai, _area, _sellerAddress, _sellerAddress, _houseAddress, false) */\n      mload(0x40)\n      dup1\n      0x0120\n      add\n      0x40\n      mstore\n      dup1\n        /* \"contract/token/ERC721.sol\":2170:2178  _houseId */\n      dup9\n        /* \"contract/token/ERC721.sol\":2164:2274  House(_houseId, _serialNumber, _price, _priceDai, _area, _sellerAddress, _sellerAddress, _houseAddress, false) */\n      dup2\n      mstore\n      0x20\n      add\n        /* \"contract/token/ERC721.sol\":2180:2193  _serialNumber */\n      dup8\n        /* \"contract/token/ERC721.sol\":2164:2274  House(_houseId, _serialNumber, _price, _priceDai, _area, _sellerAddress, _sellerAddress, _houseAddress, false) */\n      dup2\n      mstore\n      0x20\n      add\n        /* \"contract/token/ERC721.sol\":2195:2201  _price */\n      dup7\n        /* \"contract/token/ERC721.sol\":2164:2274  House(_houseId, _serialNumber, _price, _priceDai, _area, _sellerAddress, _sellerAddress, _houseAddress, false) */\n      dup2\n      mstore\n      0x20\n      add\n        /* \"contract/token/ERC721.sol\":2203:2212  _priceDai */\n      dup6\n        /* \"contract/token/ERC721.sol\":2164:2274  House(_houseId, _serialNumber, _price, _priceDai, _area, _sellerAddress, _sellerAddress, _houseAddress, false) */\n      dup2\n      mstore\n      0x20\n      add\n        /* \"contract/token/ERC721.sol\":2214:2219  _area */\n      dup5\n        /* \"contract/token/ERC721.sol\":2164:2274  House(_houseId, _serialNumber, _price, _priceDai, _area, _sellerAddress, _sellerAddress, _houseAddress, false) */\n      dup2\n      mstore\n      0x20\n      add\n        /* \"contract/token/ERC721.sol\":2221:2235  _sellerAddress */\n      dup4\n        /* \"contract/token/ERC721.sol\":2164:2274  House(_houseId, _serialNumber, _price, _priceDai, _area, _sellerAddress, _sellerAddress, _houseAddress, false) */\n      0xffffffffffffffffffffffffffffffffffffffff\n      and\n      dup2\n      mstore\n      0x20\n      add\n        /* \"contract/token/ERC721.sol\":2237:2251  _sellerAddress */\n      dup4\n        /* \"contract/token/ERC721.sol\":2164:2274  House(_houseId, _serialNumber, _price, _priceDai, _area, _sellerAddress, _sellerAddress, _houseAddress, false) */\n      0xffffffffffffffffffffffffffffffffffffffff\n      and\n      dup2\n      mstore\n      0x20\n      add\n        /* \"contract/token/ERC721.sol\":2253:2266  _houseAddress */\n      dup3\n        /* \"contract/token/ERC721.sol\":2164:2274  House(_houseId, _serialNumber, _price, _priceDai, _area, _sellerAddress, _sellerAddress, _houseAddress, false) */\n      dup2\n      mstore\n      0x20\n      add\n        /* \"contract/token/ERC721.sol\":2268:2273  false */\n      0x00\n        /* \"contract/token/ERC721.sol\":2164:2274  House(_houseId, _serialNumber, _price, _priceDai, _area, _sellerAddress, _sellerAddress, _houseAddress, false) */\n      iszero\n      iszero\n      dup2\n      mstore\n      pop\n        /* \"contract/token/ERC721.sol\":2145:2151  houses */\n      0x06\n        /* \"contract/token/ERC721.sol\":2145:2161  houses[_houseId] */\n      0x00\n        /* \"contract/token/ERC721.sol\":2152:2160  _houseId */\n      dup10\n        /* \"contract/token/ERC721.sol\":2145:2161  houses[_houseId] */\n      dup2\n      mstore\n      0x20\n      add\n      swap1\n      dup2\n      mstore\n      0x20\n      add\n      0x00\n      keccak256\n        /* \"contract/token/ERC721.sol\":2145:2274  houses[_houseId] = House(_houseId, _serialNumber, _price, _priceDai, _area, _sellerAddress, _sellerAddress, _houseAddress, false) */\n      0x00\n      dup3\n      add\n      mload\n      dup2\n      0x00\n      add\n      sstore\n      0x20\n      dup3\n      add\n      mload\n      dup2\n      0x01\n      add\n      sstore\n      0x40\n      dup3\n      add\n      mload\n      dup2\n      0x02\n      add\n      sstore\n      0x60\n      dup3\n      add\n      mload\n      dup2\n      0x03\n      add\n      sstore\n      0x80\n      dup3\n      add\n      mload\n      dup2\n      0x04\n      add\n      sstore\n      0xa0\n      dup3\n      add\n      mload\n      dup2\n      0x05\n      add\n      exp(0x0100, 0x00)\n      dup2\n      sload\n      dup2\n      0xffffffffffffffffffffffffffffffffffffffff\n      mul\n      not\n      and\n      swap1\n      dup4\n      0xffffffffffffffffffffffffffffffffffffffff\n      and\n      mul\n      or\n      swap1\n      sstore\n      pop\n      0xc0\n      dup3\n      add\n      mload\n      dup2\n      0x06\n      add\n      exp(0x0100, 0x00)\n      dup2\n      sload\n      dup2\n      0xffffffffffffffffffffffffffffffffffffffff\n      mul\n      not\n      and\n      swap1\n      dup4\n      0xffffffffffffffffffffffffffffffffffffffff\n      and\n      mul\n      or\n      swap1\n      sstore\n      pop\n      0xe0\n      dup3\n      add\n      mload\n      dup2\n      0x07\n      add\n      swap1\n      dup1\n      mload\n      swap1\n      0x20\n      add\n      swap1\n      tag_96\n      swap3\n      swap2\n      swap1\n      tag_97\n      jump\t// in\n    tag_96:\n      pop\n      0x0100\n      dup3\n      add\n      mload\n      dup2\n      0x08\n      add\n      exp(0x0100, 0x00)\n      dup2\n      sload\n      dup2\n      0xff\n      mul\n      not\n      and\n      swap1\n      dup4\n      iszero\n      iszero\n      mul\n      or\n      swap1\n      sstore\n      pop\n      swap1\n      pop\n      pop\n        /* \"contract/token/ERC721.sol\":1895:2282  function addHouse (uint _houseId, uint _serialNumber, uint _price, uint _priceDai, uint _area, address _sellerAddress, string memory _houseAddress) external {\r... */\n      pop\n      pop\n      pop\n      pop\n      pop\n      pop\n      pop\n      jump\t// out\n        /* \"contract/token/ERC721.sol\":3298:3398  function name() public view virtual override returns (string memory) {\r... */\n    tag_32:\n        /* \"contract/token/ERC721.sol\":3352:3365  string memory */\n      0x60\n        /* \"contract/token/ERC721.sol\":3385:3390  _name */\n      0x00\n        /* \"contract/token/ERC721.sol\":3378:3390  return _name */\n      dup1\n      sload\n      tag_99\n      swap1\n      tag_100\n      jump\t// in\n    tag_99:\n      dup1\n      0x1f\n      add\n      0x20\n      dup1\n      swap2\n      div\n      mul\n      0x20\n      add\n      mload(0x40)\n      swap1\n      dup2\n      add\n      0x40\n      mstore\n      dup1\n      swap3\n      swap2\n      swap1\n      dup2\n      dup2\n      mstore\n      0x20\n      add\n      dup3\n      dup1\n      sload\n      tag_101\n      swap1\n      tag_100\n      jump\t// in\n    tag_101:\n      dup1\n      iszero\n      tag_102\n      jumpi\n      dup1\n      0x1f\n      lt\n      tag_103\n      jumpi\n      0x0100\n      dup1\n      dup4\n      sload\n      div\n      mul\n      dup4\n      mstore\n      swap2\n      0x20\n      add\n      swap2\n      jump(tag_102)\n    tag_103:\n      dup3\n      add\n      swap2\n      swap1\n      0x00\n      mstore\n      keccak256(0x00, 0x20)\n      swap1\n    tag_104:\n      dup2\n      sload\n      dup2\n      mstore\n      swap1\n      0x01\n      add\n      swap1\n      0x20\n      add\n      dup1\n      dup4\n      gt\n      tag_104\n      jumpi\n      dup3\n      swap1\n      sub\n      0x1f\n      and\n      dup3\n      add\n      swap2\n    tag_102:\n      pop\n      pop\n      pop\n      pop\n      pop\n      swap1\n      pop\n        /* \"contract/token/ERC721.sol\":3298:3398  function name() public view virtual override returns (string memory) {\r... */\n      swap1\n      jump\t// out\n        /* \"contract/token/ERC721.sol\":4858:5079  function getApproved(uint256 tokenId) public view virtual override returns (address) {\r... */\n    tag_38:\n        /* \"contract/token/ERC721.sol\":4934:4941  address */\n      0x00\n        /* \"contract/token/ERC721.sol\":4962:4978  _exists(tokenId) */\n      tag_106\n        /* \"contract/token/ERC721.sol\":4970:4977  tokenId */\n      dup3\n        /* \"contract/token/ERC721.sol\":4962:4969  _exists */\n      tag_107\n        /* \"contract/token/ERC721.sol\":4962:4978  _exists(tokenId) */\n      jump\t// in\n    tag_106:\n        /* \"contract/token/ERC721.sol\":4954:5027  require(_exists(tokenId), \"ERC721: approved query for nonexistent token\") */\n      tag_108\n      jumpi\n      mload(0x40)\n      0x08c379a000000000000000000000000000000000000000000000000000000000\n      dup2\n      mstore\n      0x04\n      add\n      tag_109\n      swap1\n      tag_110\n      jump\t// in\n    tag_109:\n      mload(0x40)\n      dup1\n      swap2\n      sub\n      swap1\n      revert\n    tag_108:\n        /* \"contract/token/ERC721.sol\":5047:5062  _tokenApprovals */\n      0x04\n        /* \"contract/token/ERC721.sol\":5047:5071  _tokenApprovals[tokenId] */\n      0x00\n        /* \"contract/token/ERC721.sol\":5063:5070  tokenId */\n      dup4\n        /* \"contract/token/ERC721.sol\":5047:5071  _tokenApprovals[tokenId] */\n      dup2\n      mstore\n      0x20\n      add\n      swap1\n      dup2\n      mstore\n      0x20\n      add\n      0x00\n      keccak256\n      0x00\n      swap1\n      sload\n      swap1\n      0x0100\n      exp\n      swap1\n      div\n      0xffffffffffffffffffffffffffffffffffffffff\n      and\n        /* \"contract/token/ERC721.sol\":5040:5071  return _tokenApprovals[tokenId] */\n      swap1\n      pop\n        /* \"contract/token/ERC721.sol\":4858:5079  function getApproved(uint256 tokenId) public view virtual override returns (address) {\r... */\n      swap2\n      swap1\n      pop\n      jump\t// out\n        /* \"contract/token/ERC721.sol\":4381:4792  function approve(address to, uint256 tokenId) public virtual override {\r... */\n    tag_44:\n        /* \"contract/token/ERC721.sol\":4462:4475  address owner */\n      0x00\n        /* \"contract/token/ERC721.sol\":4478:4501  ERC721.ownerOf(tokenId) */\n      tag_112\n        /* \"contract/token/ERC721.sol\":4493:4500  tokenId */\n      dup3\n        /* \"contract/token/ERC721.sol\":4478:4492  ERC721.ownerOf */\n      tag_54\n        /* \"contract/token/ERC721.sol\":4478:4501  ERC721.ownerOf(tokenId) */\n      jump\t// in\n    tag_112:\n        /* \"contract/token/ERC721.sol\":4462:4501  address owner = ERC721.ownerOf(tokenId) */\n      swap1\n      pop\n        /* \"contract/token/ERC721.sol\":4526:4531  owner */\n      dup1\n        /* \"contract/token/ERC721.sol\":4520:4531  to != owner */\n      0xffffffffffffffffffffffffffffffffffffffff\n      and\n        /* \"contract/token/ERC721.sol\":4520:4522  to */\n      dup4\n        /* \"contract/token/ERC721.sol\":4520:4531  to != owner */\n      0xffffffffffffffffffffffffffffffffffffffff\n      and\n      eq\n      iszero\n        /* \"contract/token/ERC721.sol\":4512:4569  require(to != owner, \"ERC721: approval to current owner\") */\n      tag_113\n      jumpi\n      mload(0x40)\n      0x08c379a000000000000000000000000000000000000000000000000000000000\n      dup2\n      mstore\n      0x04\n      add\n      tag_114\n      swap1\n      tag_115\n      jump\t// in\n    tag_114:\n      mload(0x40)\n      dup1\n      swap2\n      sub\n      swap1\n      revert\n    tag_113:\n        /* \"contract/token/ERC721.sol\":4620:4625  owner */\n      dup1\n        /* \"contract/token/ERC721.sol\":4604:4625  _msgSender() == owner */\n      0xffffffffffffffffffffffffffffffffffffffff\n      and\n        /* \"contract/token/ERC721.sol\":4604:4616  _msgSender() */\n      tag_116\n        /* \"contract/token/ERC721.sol\":4604:4614  _msgSender */\n      tag_117\n        /* \"contract/token/ERC721.sol\":4604:4616  _msgSender() */\n      jump\t// in\n    tag_116:\n        /* \"contract/token/ERC721.sol\":4604:4625  _msgSender() == owner */\n      0xffffffffffffffffffffffffffffffffffffffff\n      and\n      eq\n        /* \"contract/token/ERC721.sol\":4604:4666  _msgSender() == owner || isApprovedForAll(owner, _msgSender()) */\n      dup1\n      tag_118\n      jumpi\n      pop\n        /* \"contract/token/ERC721.sol\":4629:4666  isApprovedForAll(owner, _msgSender()) */\n      tag_119\n        /* \"contract/token/ERC721.sol\":4646:4651  owner */\n      dup2\n        /* \"contract/token/ERC721.sol\":4653:4665  _msgSender() */\n      tag_120\n        /* \"contract/token/ERC721.sol\":4653:4663  _msgSender */\n      tag_117\n        /* \"contract/token/ERC721.sol\":4653:4665  _msgSender() */\n      jump\t// in\n    tag_120:\n        /* \"contract/token/ERC721.sol\":4629:4645  isApprovedForAll */\n      tag_85\n        /* \"contract/token/ERC721.sol\":4629:4666  isApprovedForAll(owner, _msgSender()) */\n      jump\t// in\n    tag_119:\n        /* \"contract/token/ERC721.sol\":4604:4666  _msgSender() == owner || isApprovedForAll(owner, _msgSender()) */\n    tag_118:\n        /* \"contract/token/ERC721.sol\":4582:4750  require(\r... */\n      tag_121\n      jumpi\n      mload(0x40)\n      0x08c379a000000000000000000000000000000000000000000000000000000000\n      dup2\n      mstore\n      0x04\n      add\n      tag_122\n      swap1\n      tag_123\n      jump\t// in\n    tag_122:\n      mload(0x40)\n      dup1\n      swap2\n      sub\n      swap1\n      revert\n    tag_121:\n        /* \"contract/token/ERC721.sol\":4763:4784  _approve(to, tokenId) */\n      tag_124\n        /* \"contract/token/ERC721.sol\":4772:4774  to */\n      dup4\n        /* \"contract/token/ERC721.sol\":4776:4783  tokenId */\n      dup4\n        /* \"contract/token/ERC721.sol\":4763:4771  _approve */\n      tag_125\n        /* \"contract/token/ERC721.sol\":4763:4784  _approve(to, tokenId) */\n      jump\t// in\n    tag_124:\n        /* \"contract/token/ERC721.sol\":4451:4792  {\r... */\n      pop\n        /* \"contract/token/ERC721.sol\":4381:4792  function approve(address to, uint256 tokenId) public virtual override {\r... */\n      pop\n      pop\n      jump\t// out\n        /* \"contract/token/ERC721.sol\":5608:5947  function transferFrom(\r... */\n    tag_48:\n        /* \"contract/token/ERC721.sol\":5803:5844  _isApprovedOrOwner(_msgSender(), tokenId) */\n      tag_127\n        /* \"contract/token/ERC721.sol\":5822:5834  _msgSender() */\n      tag_128\n        /* \"contract/token/ERC721.sol\":5822:5832  _msgSender */\n      tag_117\n        /* \"contract/token/ERC721.sol\":5822:5834  _msgSender() */\n      jump\t// in\n    tag_128:\n        /* \"contract/token/ERC721.sol\":5836:5843  tokenId */\n      dup3\n        /* \"contract/token/ERC721.sol\":5803:5821  _isApprovedOrOwner */\n      tag_129\n        /* \"contract/token/ERC721.sol\":5803:5844  _isApprovedOrOwner(_msgSender(), tokenId) */\n      jump\t// in\n    tag_127:\n        /* \"contract/token/ERC721.sol\":5795:5898  require(_isApprovedOrOwner(_msgSender(), tokenId), \"ERC721: transfer caller is not owner nor approved\") */\n      tag_130\n      jumpi\n      mload(0x40)\n      0x08c379a000000000000000000000000000000000000000000000000000000000\n      dup2\n      mstore\n      0x04\n      add\n      tag_131\n      swap1\n      tag_132\n      jump\t// in\n    tag_131:\n      mload(0x40)\n      dup1\n      swap2\n      sub\n      swap1\n      revert\n    tag_130:\n        /* \"contract/token/ERC721.sol\":5911:5939  _transfer(from, to, tokenId) */\n      tag_133\n        /* \"contract/token/ERC721.sol\":5921:5925  from */\n      dup4\n        /* \"contract/token/ERC721.sol\":5927:5929  to */\n      dup4\n        /* \"contract/token/ERC721.sol\":5931:5938  tokenId */\n      dup4\n        /* \"contract/token/ERC721.sol\":5911:5920  _transfer */\n      tag_134\n        /* \"contract/token/ERC721.sol\":5911:5939  _transfer(from, to, tokenId) */\n      jump\t// in\n    tag_133:\n        /* \"contract/token/ERC721.sol\":5608:5947  function transferFrom(\r... */\n      pop\n      pop\n      pop\n      jump\t// out\n        /* \"contract/token/ERC721.sol\":6018:6203  function safeTransferFrom(\r... */\n    tag_51:\n        /* \"contract/token/ERC721.sol\":6156:6195  safeTransferFrom(from, to, tokenId, \"\") */\n      tag_136\n        /* \"contract/token/ERC721.sol\":6173:6177  from */\n      dup4\n        /* \"contract/token/ERC721.sol\":6179:6181  to */\n      dup4\n        /* \"contract/token/ERC721.sol\":6183:6190  tokenId */\n      dup4\n        /* \"contract/token/ERC721.sol\":6156:6195  safeTransferFrom(from, to, tokenId, \"\") */\n      mload(0x40)\n      dup1\n      0x20\n      add\n      0x40\n      mstore\n      dup1\n      0x00\n      dup2\n      mstore\n      pop\n        /* \"contract/token/ERC721.sol\":6156:6172  safeTransferFrom */\n      tag_77\n        /* \"contract/token/ERC721.sol\":6156:6195  safeTransferFrom(from, to, tokenId, \"\") */\n      jump\t// in\n    tag_136:\n        /* \"contract/token/ERC721.sol\":6018:6203  function safeTransferFrom(\r... */\n      pop\n      pop\n      pop\n      jump\t// out\n        /* \"contract/token/ERC721.sol\":2992:3231  function ownerOf(uint256 tokenId) public view virtual override returns (address) {\r... */\n    tag_54:\n        /* \"contract/token/ERC721.sol\":3064:3071  address */\n      0x00\n        /* \"contract/token/ERC721.sol\":3084:3097  address owner */\n      dup1\n        /* \"contract/token/ERC721.sol\":3100:3107  _owners */\n      0x02\n        /* \"contract/token/ERC721.sol\":3100:3116  _owners[tokenId] */\n      0x00\n        /* \"contract/token/ERC721.sol\":3108:3115  tokenId */\n      dup5\n        /* \"contract/token/ERC721.sol\":3100:3116  _owners[tokenId] */\n      dup2\n      mstore\n      0x20\n      add\n      swap1\n      dup2\n      mstore\n      0x20\n      add\n      0x00\n      keccak256\n      0x00\n      swap1\n      sload\n      swap1\n      0x0100\n      exp\n      swap1\n      div\n      0xffffffffffffffffffffffffffffffffffffffff\n      and\n        /* \"contract/token/ERC721.sol\":3084:3116  address owner = _owners[tokenId] */\n      swap1\n      pop\n        /* \"contract/token/ERC721.sol\":3152:3153  0 */\n      0x00\n        /* \"contract/token/ERC721.sol\":3135:3154  owner != address(0) */\n      0xffffffffffffffffffffffffffffffffffffffff\n      and\n        /* \"contract/token/ERC721.sol\":3135:3140  owner */\n      dup2\n        /* \"contract/token/ERC721.sol\":3135:3154  owner != address(0) */\n      0xffffffffffffffffffffffffffffffffffffffff\n      and\n      eq\n      iszero\n        /* \"contract/token/ERC721.sol\":3127:3200  require(owner != address(0), \"ERC721: owner query for nonexistent token\") */\n      tag_138\n      jumpi\n      mload(0x40)\n      0x08c379a000000000000000000000000000000000000000000000000000000000\n      dup2\n      mstore\n      0x04\n      add\n      tag_139\n      swap1\n      tag_140\n      jump\t// in\n    tag_139:\n      mload(0x40)\n      dup1\n      swap2\n      sub\n      swap1\n      revert\n    tag_138:\n        /* \"contract/token/ERC721.sol\":3218:3223  owner */\n      dup1\n        /* \"contract/token/ERC721.sol\":3211:3223  return owner */\n      swap2\n      pop\n      pop\n        /* \"contract/token/ERC721.sol\":2992:3231  function ownerOf(uint256 tokenId) public view virtual override returns (address) {\r... */\n      swap2\n      swap1\n      pop\n      jump\t// out\n        /* \"contract/token/ERC721.sol\":2723:2930  function balanceOf(address owner) public view virtual override returns (uint256) {\r... */\n    tag_59:\n        /* \"contract/token/ERC721.sol\":2795:2802  uint256 */\n      0x00\n        /* \"contract/token/ERC721.sol\":2840:2841  0 */\n      dup1\n        /* \"contract/token/ERC721.sol\":2823:2842  owner != address(0) */\n      0xffffffffffffffffffffffffffffffffffffffff\n      and\n        /* \"contract/token/ERC721.sol\":2823:2828  owner */\n      dup3\n        /* \"contract/token/ERC721.sol\":2823:2842  owner != address(0) */\n      0xffffffffffffffffffffffffffffffffffffffff\n      and\n      eq\n      iszero\n        /* \"contract/token/ERC721.sol\":2815:2888  require(owner != address(0), \"ERC721: address zero is not a valid owner\") */\n      tag_142\n      jumpi\n      mload(0x40)\n      0x08c379a000000000000000000000000000000000000000000000000000000000\n      dup2\n      mstore\n      0x04\n      add\n      tag_143\n      swap1\n      tag_144\n      jump\t// in\n    tag_143:\n      mload(0x40)\n      dup1\n      swap2\n      sub\n      swap1\n      revert\n    tag_142:\n        /* \"contract/token/ERC721.sol\":2906:2915  _balances */\n      0x03\n        /* \"contract/token/ERC721.sol\":2906:2922  _balances[owner] */\n      0x00\n        /* \"contract/token/ERC721.sol\":2916:2921  owner */\n      dup4\n        /* \"contract/token/ERC721.sol\":2906:2922  _balances[owner] */\n      0xffffffffffffffffffffffffffffffffffffffff\n      and\n      0xffffffffffffffffffffffffffffffffffffffff\n      and\n      dup2\n      mstore\n      0x20\n      add\n      swap1\n      dup2\n      mstore\n      0x20\n      add\n      0x00\n      keccak256\n      sload\n        /* \"contract/token/ERC721.sol\":2899:2922  return _balances[owner] */\n      swap1\n      pop\n        /* \"contract/token/ERC721.sol\":2723:2930  function balanceOf(address owner) public view virtual override returns (uint256) {\r... */\n      swap2\n      swap1\n      pop\n      jump\t// out\n        /* \"contract/token/ERC721.sol\":3467:3571  function symbol() public view virtual override returns (string memory) {\r... */\n    tag_63:\n        /* \"contract/token/ERC721.sol\":3523:3536  string memory */\n      0x60\n        /* \"contract/token/ERC721.sol\":3556:3563  _symbol */\n      0x01\n        /* \"contract/token/ERC721.sol\":3549:3563  return _symbol */\n      dup1\n      sload\n      tag_146\n      swap1\n      tag_100\n      jump\t// in\n    tag_146:\n      dup1\n      0x1f\n      add\n      0x20\n      dup1\n      swap2\n      div\n      mul\n      0x20\n      add\n      mload(0x40)\n      swap1\n      dup2\n      add\n      0x40\n      mstore\n      dup1\n      swap3\n      swap2\n      swap1\n      dup2\n      dup2\n      mstore\n      0x20\n      add\n      dup3\n      dup1\n      sload\n      tag_147\n      swap1\n      tag_100\n      jump\t// in\n    tag_147:\n      dup1\n      iszero\n      tag_148\n      jumpi\n      dup1\n      0x1f\n      lt\n      tag_149\n      jumpi\n      0x0100\n      dup1\n      dup4\n      sload\n      div\n      mul\n      dup4\n      mstore\n      swap2\n      0x20\n      add\n      swap2\n      jump(tag_148)\n    tag_149:\n      dup3\n      add\n      swap2\n      swap1\n      0x00\n      mstore\n      keccak256(0x00, 0x20)\n      swap1\n    tag_150:\n      dup2\n      sload\n      dup2\n      mstore\n      swap1\n      0x01\n      add\n      swap1\n      0x20\n      add\n      dup1\n      dup4\n      gt\n      tag_150\n      jumpi\n      dup3\n      swap1\n      sub\n      0x1f\n      and\n      dup3\n      add\n      swap2\n    tag_148:\n      pop\n      pop\n      pop\n      pop\n      pop\n      swap1\n      pop\n        /* \"contract/token/ERC721.sol\":3467:3571  function symbol() public view virtual override returns (string memory) {\r... */\n      swap1\n      jump\t// out\n        /* \"contract/token/ERC721.sol\":5151:5306  function setApprovalForAll(address operator, bool approved) public virtual override {\r... */\n    tag_68:\n        /* \"contract/token/ERC721.sol\":5246:5298  _setApprovalForAll(_msgSender(), operator, approved) */\n      tag_152\n        /* \"contract/token/ERC721.sol\":5265:5277  _msgSender() */\n      tag_153\n        /* \"contract/token/ERC721.sol\":5265:5275  _msgSender */\n      tag_117\n        /* \"contract/token/ERC721.sol\":5265:5277  _msgSender() */\n      jump\t// in\n    tag_153:\n        /* \"contract/token/ERC721.sol\":5279:5287  operator */\n      dup4\n        /* \"contract/token/ERC721.sol\":5289:5297  approved */\n      dup4\n        /* \"contract/token/ERC721.sol\":5246:5264  _setApprovalForAll */\n      tag_154\n        /* \"contract/token/ERC721.sol\":5246:5298  _setApprovalForAll(_msgSender(), operator, approved) */\n      jump\t// in\n    tag_152:\n        /* \"contract/token/ERC721.sol\":5151:5306  function setApprovalForAll(address operator, bool approved) public virtual override {\r... */\n      pop\n      pop\n      jump\t// out\n        /* \"contract/token/ERC721.sol\":1608:1644  mapping(uint => House) public houses */\n    tag_71:\n      mstore(0x20, 0x06)\n      dup1\n      0x00\n      mstore\n      keccak256(0x00, 0x40)\n      0x00\n      swap2\n      pop\n      swap1\n      pop\n      dup1\n      0x00\n      add\n      sload\n      swap1\n      dup1\n      0x01\n      add\n      sload\n      swap1\n      dup1\n      0x02\n      add\n      sload\n      swap1\n      dup1\n      0x03\n      add\n      sload\n      swap1\n      dup1\n      0x04\n      add\n      sload\n      swap1\n      dup1\n      0x05\n      add\n      0x00\n      swap1\n      sload\n      swap1\n      0x0100\n      exp\n      swap1\n      div\n      0xffffffffffffffffffffffffffffffffffffffff\n      and\n      swap1\n      dup1\n      0x06\n      add\n      0x00\n      swap1\n      sload\n      swap1\n      0x0100\n      exp\n      swap1\n      div\n      0xffffffffffffffffffffffffffffffffffffffff\n      and\n      swap1\n      dup1\n      0x07\n      add\n      dup1\n      sload\n      tag_155\n      swap1\n      tag_100\n      jump\t// in\n    tag_155:\n      dup1\n      0x1f\n      add\n      0x20\n      dup1\n      swap2\n      div\n      mul\n      0x20\n      add\n      mload(0x40)\n      swap1\n      dup2\n      add\n      0x40\n      mstore\n      dup1\n      swap3\n      swap2\n      swap1\n      dup2\n      dup2\n      mstore\n      0x20\n      add\n      dup3\n      dup1\n      sload\n      tag_156\n      swap1\n      tag_100\n      jump\t// in\n    tag_156:\n      dup1\n      iszero\n      tag_157\n      jumpi\n      dup1\n      0x1f\n      lt\n      tag_158\n      jumpi\n      0x0100\n      dup1\n      dup4\n      sload\n      div\n      mul\n      dup4\n      mstore\n      swap2\n      0x20\n      add\n      swap2\n      jump(tag_157)\n    tag_158:\n      dup3\n      add\n      swap2\n      swap1\n      0x00\n      mstore\n      keccak256(0x00, 0x20)\n      swap1\n    tag_159:\n      dup2\n      sload\n      dup2\n      mstore\n      swap1\n      0x01\n      add\n      swap1\n      0x20\n      add\n      dup1\n      dup4\n      gt\n      tag_159\n      jumpi\n      dup3\n      swap1\n      sub\n      0x1f\n      and\n      dup3\n      add\n      swap2\n    tag_157:\n      pop\n      pop\n      pop\n      pop\n      pop\n      swap1\n      dup1\n      0x08\n      add\n      0x00\n      swap1\n      sload\n      swap1\n      0x0100\n      exp\n      swap1\n      div\n      0xff\n      and\n      swap1\n      pop\n      dup10\n      jump\t// out\n        /* \"contract/token/ERC721.sol\":6274:6600  function safeTransferFrom(\r... */\n    tag_77:\n        /* \"contract/token/ERC721.sol\":6448:6489  _isApprovedOrOwner(_msgSender(), tokenId) */\n      tag_161\n        /* \"contract/token/ERC721.sol\":6467:6479  _msgSender() */\n      tag_162\n        /* \"contract/token/ERC721.sol\":6467:6477  _msgSender */\n      tag_117\n        /* \"contract/token/ERC721.sol\":6467:6479  _msgSender() */\n      jump\t// in\n    tag_162:\n        /* \"contract/token/ERC721.sol\":6481:6488  tokenId */\n      dup4\n        /* \"contract/token/ERC721.sol\":6448:6466  _isApprovedOrOwner */\n      tag_129\n        /* \"contract/token/ERC721.sol\":6448:6489  _isApprovedOrOwner(_msgSender(), tokenId) */\n      jump\t// in\n    tag_161:\n        /* \"contract/token/ERC721.sol\":6440:6543  require(_isApprovedOrOwner(_msgSender(), tokenId), \"ERC721: transfer caller is not owner nor approved\") */\n      tag_163\n      jumpi\n      mload(0x40)\n      0x08c379a000000000000000000000000000000000000000000000000000000000\n      dup2\n      mstore\n      0x04\n      add\n      tag_164\n      swap1\n      tag_132\n      jump\t// in\n    tag_164:\n      mload(0x40)\n      dup1\n      swap2\n      sub\n      swap1\n      revert\n    tag_163:\n        /* \"contract/token/ERC721.sol\":6554:6592  _safeTransfer(from, to, tokenId, data) */\n      tag_165\n        /* \"contract/token/ERC721.sol\":6568:6572  from */\n      dup5\n        /* \"contract/token/ERC721.sol\":6574:6576  to */\n      dup5\n        /* \"contract/token/ERC721.sol\":6578:6585  tokenId */\n      dup5\n        /* \"contract/token/ERC721.sol\":6587:6591  data */\n      dup5\n        /* \"contract/token/ERC721.sol\":6554:6567  _safeTransfer */\n      tag_166\n        /* \"contract/token/ERC721.sol\":6554:6592  _safeTransfer(from, to, tokenId, data) */\n      jump\t// in\n    tag_165:\n        /* \"contract/token/ERC721.sol\":6274:6600  function safeTransferFrom(\r... */\n      pop\n      pop\n      pop\n      pop\n      jump\t// out\n        /* \"contract/token/ERC721.sol\":3642:3976  function tokenURI(uint256 tokenId) public view virtual override returns (string memory) {\r... */\n    tag_80:\n        /* \"contract/token/ERC721.sol\":3715:3728  string memory */\n      0x60\n        /* \"contract/token/ERC721.sol\":3749:3765  _exists(tokenId) */\n      tag_168\n        /* \"contract/token/ERC721.sol\":3757:3764  tokenId */\n      dup3\n        /* \"contract/token/ERC721.sol\":3749:3756  _exists */\n      tag_107\n        /* \"contract/token/ERC721.sol\":3749:3765  _exists(tokenId) */\n      jump\t// in\n    tag_168:\n        /* \"contract/token/ERC721.sol\":3741:3817  require(_exists(tokenId), \"ERC721Metadata: URI query for nonexistent token\") */\n      tag_169\n      jumpi\n      mload(0x40)\n      0x08c379a000000000000000000000000000000000000000000000000000000000\n      dup2\n      mstore\n      0x04\n      add\n      tag_170\n      swap1\n      tag_171\n      jump\t// in\n    tag_170:\n      mload(0x40)\n      dup1\n      swap2\n      sub\n      swap1\n      revert\n    tag_169:\n        /* \"contract/token/ERC721.sol\":3830:3851  string memory baseURI */\n      0x00\n        /* \"contract/token/ERC721.sol\":3854:3864  _baseURI() */\n      tag_172\n        /* \"contract/token/ERC721.sol\":3854:3862  _baseURI */\n      tag_173\n        /* \"contract/token/ERC721.sol\":3854:3864  _baseURI() */\n      jump\t// in\n    tag_172:\n        /* \"contract/token/ERC721.sol\":3830:3864  string memory baseURI = _baseURI() */\n      swap1\n      pop\n        /* \"contract/token/ERC721.sol\":3906:3907  0 */\n      0x00\n        /* \"contract/token/ERC721.sol\":3888:3895  baseURI */\n      dup2\n        /* \"contract/token/ERC721.sol\":3882:3903  bytes(baseURI).length */\n      mload\n        /* \"contract/token/ERC721.sol\":3882:3907  bytes(baseURI).length > 0 */\n      gt\n        /* \"contract/token/ERC721.sol\":3882:3968  bytes(baseURI).length > 0 ? string(abi.encodePacked(baseURI, tokenId.toString())) : \"\" */\n      tag_174\n      jumpi\n      mload(0x40)\n      dup1\n      0x20\n      add\n      0x40\n      mstore\n      dup1\n      0x00\n      dup2\n      mstore\n      pop\n      jump(tag_175)\n    tag_174:\n        /* \"contract/token/ERC721.sol\":3934:3941  baseURI */\n      dup1\n        /* \"contract/token/ERC721.sol\":3943:3961  tokenId.toString() */\n      tag_176\n        /* \"contract/token/ERC721.sol\":3943:3950  tokenId */\n      dup5\n        /* \"contract/token/ERC721.sol\":3943:3959  tokenId.toString */\n      tag_177\n        /* \"contract/token/ERC721.sol\":3943:3961  tokenId.toString() */\n      jump\t// in\n    tag_176:\n        /* \"contract/token/ERC721.sol\":3917:3962  abi.encodePacked(baseURI, tokenId.toString()) */\n      add(0x20, mload(0x40))\n      tag_178\n      swap3\n      swap2\n      swap1\n      tag_179\n      jump\t// in\n    tag_178:\n      mload(0x40)\n      0x20\n      dup2\n      dup4\n      sub\n      sub\n      dup2\n      mstore\n      swap1\n      0x40\n      mstore\n        /* \"contract/token/ERC721.sol\":3882:3968  bytes(baseURI).length > 0 ? string(abi.encodePacked(baseURI, tokenId.toString())) : \"\" */\n    tag_175:\n        /* \"contract/token/ERC721.sol\":3875:3968  return bytes(baseURI).length > 0 ? string(abi.encodePacked(baseURI, tokenId.toString())) : \"\" */\n      swap2\n      pop\n      pop\n        /* \"contract/token/ERC721.sol\":3642:3976  function tokenURI(uint256 tokenId) public view virtual override returns (string memory) {\r... */\n      swap2\n      swap1\n      pop\n      jump\t// out\n        /* \"contract/token/ERC721.sol\":5377:5541  function isApprovedForAll(address owner, address operator) public view virtual override returns (bool) {\r... */\n    tag_85:\n        /* \"contract/token/ERC721.sol\":5474:5478  bool */\n      0x00\n        /* \"contract/token/ERC721.sol\":5498:5516  _operatorApprovals */\n      0x05\n        /* \"contract/token/ERC721.sol\":5498:5523  _operatorApprovals[owner] */\n      0x00\n        /* \"contract/token/ERC721.sol\":5517:5522  owner */\n      dup5\n        /* \"contract/token/ERC721.sol\":5498:5523  _operatorApprovals[owner] */\n      0xffffffffffffffffffffffffffffffffffffffff\n      and\n      0xffffffffffffffffffffffffffffffffffffffff\n      and\n      dup2\n      mstore\n      0x20\n      add\n      swap1\n      dup2\n      mstore\n      0x20\n      add\n      0x00\n      keccak256\n        /* \"contract/token/ERC721.sol\":5498:5533  _operatorApprovals[owner][operator] */\n      0x00\n        /* \"contract/token/ERC721.sol\":5524:5532  operator */\n      dup4\n        /* \"contract/token/ERC721.sol\":5498:5533  _operatorApprovals[owner][operator] */\n      0xffffffffffffffffffffffffffffffffffffffff\n      and\n      0xffffffffffffffffffffffffffffffffffffffff\n      and\n      dup2\n      mstore\n      0x20\n      add\n      swap1\n      dup2\n      mstore\n      0x20\n      add\n      0x00\n      keccak256\n      0x00\n      swap1\n      sload\n      swap1\n      0x0100\n      exp\n      swap1\n      div\n      0xff\n      and\n        /* \"contract/token/ERC721.sol\":5491:5533  return _operatorApprovals[owner][operator] */\n      swap1\n      pop\n        /* \"contract/token/ERC721.sol\":5377:5541  function isApprovedForAll(address owner, address operator) public view virtual override returns (bool) {\r... */\n      swap3\n      swap2\n      pop\n      pop\n      jump\t// out\n        /* \"utils/introspection/ERC165.sol\":854:1011  function supportsInterface(bytes4 interfaceId) public view virtual override returns (bool) {\r... */\n    tag_91:\n        /* \"utils/introspection/ERC165.sol\":939:943  bool */\n      0x00\n        /* \"utils/introspection/ERC165.sol\":978:1003  type(IERC165).interfaceId */\n      0x01ffc9a700000000000000000000000000000000000000000000000000000000\n        /* \"utils/introspection/ERC165.sol\":963:1003  interfaceId == type(IERC165).interfaceId */\n      not(0xffffffffffffffffffffffffffffffffffffffffffffffffffffffff)\n      and\n        /* \"utils/introspection/ERC165.sol\":963:974  interfaceId */\n      dup3\n        /* \"utils/introspection/ERC165.sol\":963:1003  interfaceId == type(IERC165).interfaceId */\n      not(0xffffffffffffffffffffffffffffffffffffffffffffffffffffffff)\n      and\n      eq\n        /* \"utils/introspection/ERC165.sol\":956:1003  return interfaceId == type(IERC165).interfaceId */\n      swap1\n      pop\n        /* \"utils/introspection/ERC165.sol\":854:1011  function supportsInterface(bytes4 interfaceId) public view virtual override returns (bool) {\r... */\n      swap2\n      swap1\n      pop\n      jump\t// out\n        /* \"contract/token/ERC721.sol\":8107:8234  function _exists(uint256 tokenId) internal view virtual returns (bool) {\r... */\n    tag_107:\n        /* \"contract/token/ERC721.sol\":8172:8176  bool */\n      0x00\n        /* \"contract/token/ERC721.sol\":8224:8225  0 */\n      dup1\n        /* \"contract/token/ERC721.sol\":8196:8226  _owners[tokenId] != address(0) */\n      0xffffffffffffffffffffffffffffffffffffffff\n      and\n        /* \"contract/token/ERC721.sol\":8196:8203  _owners */\n      0x02\n        /* \"contract/token/ERC721.sol\":8196:8212  _owners[tokenId] */\n      0x00\n        /* \"contract/token/ERC721.sol\":8204:8211  tokenId */\n      dup5\n        /* \"contract/token/ERC721.sol\":8196:8212  _owners[tokenId] */\n      dup2\n      mstore\n      0x20\n      add\n      swap1\n      dup2\n      mstore\n      0x20\n      add\n      0x00\n      keccak256\n      0x00\n      swap1\n      sload\n      swap1\n      0x0100\n      exp\n      swap1\n      div\n      0xffffffffffffffffffffffffffffffffffffffff\n      and\n        /* \"contract/token/ERC721.sol\":8196:8226  _owners[tokenId] != address(0) */\n      0xffffffffffffffffffffffffffffffffffffffff\n      and\n      eq\n      iszero\n        /* \"contract/token/ERC721.sol\":8189:8226  return _owners[tokenId] != address(0) */\n      swap1\n      pop\n        /* \"contract/token/ERC721.sol\":8107:8234  function _exists(uint256 tokenId) internal view virtual returns (bool) {\r... */\n      swap2\n      swap1\n      pop\n      jump\t// out\n        /* \"utils/Context.sol\":601:699  function _msgSender() internal view virtual returns (address) {\r... */\n    tag_117:\n        /* \"utils/Context.sol\":654:661  address */\n      0x00\n        /* \"utils/Context.sol\":681:691  msg.sender */\n      caller\n        /* \"utils/Context.sol\":674:691  return msg.sender */\n      swap1\n      pop\n        /* \"utils/Context.sol\":601:699  function _msgSender() internal view virtual returns (address) {\r... */\n      swap1\n      jump\t// out\n        /* \"contract/token/ERC721.sol\":12251:12425  function _approve(address to, uint256 tokenId) internal virtual {\r... */\n    tag_125:\n        /* \"contract/token/ERC721.sol\":12353:12355  to */\n      dup2\n        /* \"contract/token/ERC721.sol\":12326:12341  _tokenApprovals */\n      0x04\n        /* \"contract/token/ERC721.sol\":12326:12350  _tokenApprovals[tokenId] */\n      0x00\n        /* \"contract/token/ERC721.sol\":12342:12349  tokenId */\n      dup4\n        /* \"contract/token/ERC721.sol\":12326:12350  _tokenApprovals[tokenId] */\n      dup2\n      mstore\n      0x20\n      add\n      swap1\n      dup2\n      mstore\n      0x20\n      add\n      0x00\n      keccak256\n      0x00\n        /* \"contract/token/ERC721.sol\":12326:12355  _tokenApprovals[tokenId] = to */\n      0x0100\n      exp\n      dup2\n      sload\n      dup2\n      0xffffffffffffffffffffffffffffffffffffffff\n      mul\n      not\n      and\n      swap1\n      dup4\n      0xffffffffffffffffffffffffffffffffffffffff\n      and\n      mul\n      or\n      swap1\n      sstore\n      pop\n        /* \"contract/token/ERC721.sol\":12409:12416  tokenId */\n      dup1\n        /* \"contract/token/ERC721.sol\":12405:12407  to */\n      dup3\n        /* \"contract/token/ERC721.sol\":12371:12417  Approval(ERC721.ownerOf(tokenId), to, tokenId) */\n      0xffffffffffffffffffffffffffffffffffffffff\n      and\n        /* \"contract/token/ERC721.sol\":12380:12403  ERC721.ownerOf(tokenId) */\n      tag_185\n        /* \"contract/token/ERC721.sol\":12395:12402  tokenId */\n      dup4\n        /* \"contract/token/ERC721.sol\":12380:12394  ERC721.ownerOf */\n      tag_54\n        /* \"contract/token/ERC721.sol\":12380:12403  ERC721.ownerOf(tokenId) */\n      jump\t// in\n    tag_185:\n        /* \"contract/token/ERC721.sol\":12371:12417  Approval(ERC721.ownerOf(tokenId), to, tokenId) */\n      0xffffffffffffffffffffffffffffffffffffffff\n      and\n      0x8c5be1e5ebec7d5bd14f71427d1e84f3dd0314c0f7b2291e5b200ac8c7c3b925\n      mload(0x40)\n      mload(0x40)\n      dup1\n      swap2\n      sub\n      swap1\n      log4\n        /* \"contract/token/ERC721.sol\":12251:12425  function _approve(address to, uint256 tokenId) internal virtual {\r... */\n      pop\n      pop\n      jump\t// out\n        /* \"contract/token/ERC721.sol\":8401:8749  function _isApprovedOrOwner(address spender, uint256 tokenId) internal view virtual returns (bool) {\r... */\n    tag_129:\n        /* \"contract/token/ERC721.sol\":8494:8498  bool */\n      0x00\n        /* \"contract/token/ERC721.sol\":8519:8535  _exists(tokenId) */\n      tag_187\n        /* \"contract/token/ERC721.sol\":8527:8534  tokenId */\n      dup3\n        /* \"contract/token/ERC721.sol\":8519:8526  _exists */\n      tag_107\n        /* \"contract/token/ERC721.sol\":8519:8535  _exists(tokenId) */\n      jump\t// in\n    tag_187:\n        /* \"contract/token/ERC721.sol\":8511:8584  require(_exists(tokenId), \"ERC721: operator query for nonexistent token\") */\n      tag_188\n      jumpi\n      mload(0x40)\n      0x08c379a000000000000000000000000000000000000000000000000000000000\n      dup2\n      mstore\n      0x04\n      add\n      tag_189\n      swap1\n      tag_190\n      jump\t// in\n    tag_189:\n      mload(0x40)\n      dup1\n      swap2\n      sub\n      swap1\n      revert\n    tag_188:\n        /* \"contract/token/ERC721.sol\":8595:8608  address owner */\n      0x00\n        /* \"contract/token/ERC721.sol\":8611:8634  ERC721.ownerOf(tokenId) */\n      tag_191\n        /* \"contract/token/ERC721.sol\":8626:8633  tokenId */\n      dup4\n        /* \"contract/token/ERC721.sol\":8611:8625  ERC721.ownerOf */\n      tag_54\n        /* \"contract/token/ERC721.sol\":8611:8634  ERC721.ownerOf(tokenId) */\n      jump\t// in\n    tag_191:\n        /* \"contract/token/ERC721.sol\":8595:8634  address owner = ERC721.ownerOf(tokenId) */\n      swap1\n      pop\n        /* \"contract/token/ERC721.sol\":8664:8669  owner */\n      dup1\n        /* \"contract/token/ERC721.sol\":8653:8669  spender == owner */\n      0xffffffffffffffffffffffffffffffffffffffff\n      and\n        /* \"contract/token/ERC721.sol\":8653:8660  spender */\n      dup5\n        /* \"contract/token/ERC721.sol\":8653:8669  spender == owner */\n      0xffffffffffffffffffffffffffffffffffffffff\n      and\n      eq\n        /* \"contract/token/ERC721.sol\":8653:8705  spender == owner || isApprovedForAll(owner, spender) */\n      dup1\n      tag_192\n      jumpi\n      pop\n        /* \"contract/token/ERC721.sol\":8673:8705  isApprovedForAll(owner, spender) */\n      tag_193\n        /* \"contract/token/ERC721.sol\":8690:8695  owner */\n      dup2\n        /* \"contract/token/ERC721.sol\":8697:8704  spender */\n      dup6\n        /* \"contract/token/ERC721.sol\":8673:8689  isApprovedForAll */\n      tag_85\n        /* \"contract/token/ERC721.sol\":8673:8705  isApprovedForAll(owner, spender) */\n      jump\t// in\n    tag_193:\n        /* \"contract/token/ERC721.sol\":8653:8705  spender == owner || isApprovedForAll(owner, spender) */\n    tag_192:\n        /* \"contract/token/ERC721.sol\":8653:8740  spender == owner || isApprovedForAll(owner, spender) || getApproved(tokenId) == spender */\n      dup1\n      tag_194\n      jumpi\n      pop\n        /* \"contract/token/ERC721.sol\":8733:8740  spender */\n      dup4\n        /* \"contract/token/ERC721.sol\":8709:8740  getApproved(tokenId) == spender */\n      0xffffffffffffffffffffffffffffffffffffffff\n      and\n        /* \"contract/token/ERC721.sol\":8709:8729  getApproved(tokenId) */\n      tag_195\n        /* \"contract/token/ERC721.sol\":8721:8728  tokenId */\n      dup5\n        /* \"contract/token/ERC721.sol\":8709:8720  getApproved */\n      tag_38\n        /* \"contract/token/ERC721.sol\":8709:8729  getApproved(tokenId) */\n      jump\t// in\n    tag_195:\n        /* \"contract/token/ERC721.sol\":8709:8740  getApproved(tokenId) == spender */\n      0xffffffffffffffffffffffffffffffffffffffff\n      and\n      eq\n        /* \"contract/token/ERC721.sol\":8653:8740  spender == owner || isApprovedForAll(owner, spender) || getApproved(tokenId) == spender */\n    tag_194:\n        /* \"contract/token/ERC721.sol\":8645:8741  return (spender == owner || isApprovedForAll(owner, spender) || getApproved(tokenId) == spender) */\n      swap2\n      pop\n      pop\n        /* \"contract/token/ERC721.sol\":8401:8749  function _isApprovedOrOwner(address spender, uint256 tokenId) internal view virtual returns (bool) {\r... */\n      swap3\n      swap2\n      pop\n      pop\n      jump\t// out\n        /* \"contract/token/ERC721.sol\":11508:12133  function _transfer(\r... */\n    tag_134:\n        /* \"contract/token/ERC721.sol\":11667:11671  from */\n      dup3\n        /* \"contract/token/ERC721.sol\":11640:11671  ERC721.ownerOf(tokenId) == from */\n      0xffffffffffffffffffffffffffffffffffffffff\n      and\n        /* \"contract/token/ERC721.sol\":11640:11663  ERC721.ownerOf(tokenId) */\n      tag_197\n        /* \"contract/token/ERC721.sol\":11655:11662  tokenId */\n      dup3\n        /* \"contract/token/ERC721.sol\":11640:11654  ERC721.ownerOf */\n      tag_54\n        /* \"contract/token/ERC721.sol\":11640:11663  ERC721.ownerOf(tokenId) */\n      jump\t// in\n    tag_197:\n        /* \"contract/token/ERC721.sol\":11640:11671  ERC721.ownerOf(tokenId) == from */\n      0xffffffffffffffffffffffffffffffffffffffff\n      and\n      eq\n        /* \"contract/token/ERC721.sol\":11632:11713  require(ERC721.ownerOf(tokenId) == from, \"ERC721: transfer from incorrect owner\") */\n      tag_198\n      jumpi\n      mload(0x40)\n      0x08c379a000000000000000000000000000000000000000000000000000000000\n      dup2\n      mstore\n      0x04\n      add\n      tag_199\n      swap1\n      tag_200\n      jump\t// in\n    tag_199:\n      mload(0x40)\n      dup1\n      swap2\n      sub\n      swap1\n      revert\n    tag_198:\n        /* \"contract/token/ERC721.sol\":11746:11747  0 */\n      0x00\n        /* \"contract/token/ERC721.sol\":11732:11748  to != address(0) */\n      0xffffffffffffffffffffffffffffffffffffffff\n      and\n        /* \"contract/token/ERC721.sol\":11732:11734  to */\n      dup3\n        /* \"contract/token/ERC721.sol\":11732:11748  to != address(0) */\n      0xffffffffffffffffffffffffffffffffffffffff\n      and\n      eq\n      iszero\n        /* \"contract/token/ERC721.sol\":11724:11789  require(to != address(0), \"ERC721: transfer to the zero address\") */\n      tag_201\n      jumpi\n      mload(0x40)\n      0x08c379a000000000000000000000000000000000000000000000000000000000\n      dup2\n      mstore\n      0x04\n      add\n      tag_202\n      swap1\n      tag_203\n      jump\t// in\n    tag_202:\n      mload(0x40)\n      dup1\n      swap2\n      sub\n      swap1\n      revert\n    tag_201:\n        /* \"contract/token/ERC721.sol\":11802:11841  _beforeTokenTransfer(from, to, tokenId) */\n      tag_204\n        /* \"contract/token/ERC721.sol\":11823:11827  from */\n      dup4\n        /* \"contract/token/ERC721.sol\":11829:11831  to */\n      dup4\n        /* \"contract/token/ERC721.sol\":11833:11840  tokenId */\n      dup4\n        /* \"contract/token/ERC721.sol\":11802:11822  _beforeTokenTransfer */\n      tag_205\n        /* \"contract/token/ERC721.sol\":11802:11841  _beforeTokenTransfer(from, to, tokenId) */\n      jump\t// in\n    tag_204:\n        /* \"contract/token/ERC721.sol\":11906:11935  _approve(address(0), tokenId) */\n      tag_206\n        /* \"contract/token/ERC721.sol\":11923:11924  0 */\n      0x00\n        /* \"contract/token/ERC721.sol\":11927:11934  tokenId */\n      dup3\n        /* \"contract/token/ERC721.sol\":11906:11914  _approve */\n      tag_125\n        /* \"contract/token/ERC721.sol\":11906:11935  _approve(address(0), tokenId) */\n      jump\t// in\n    tag_206:\n        /* \"contract/token/ERC721.sol\":11967:11968  1 */\n      0x01\n        /* \"contract/token/ERC721.sol\":11948:11957  _balances */\n      0x03\n        /* \"contract/token/ERC721.sol\":11948:11963  _balances[from] */\n      0x00\n        /* \"contract/token/ERC721.sol\":11958:11962  from */\n      dup6\n        /* \"contract/token/ERC721.sol\":11948:11963  _balances[from] */\n      0xffffffffffffffffffffffffffffffffffffffff\n      and\n      0xffffffffffffffffffffffffffffffffffffffff\n      and\n      dup2\n      mstore\n      0x20\n      add\n      swap1\n      dup2\n      mstore\n      0x20\n      add\n      0x00\n      keccak256\n      0x00\n        /* \"contract/token/ERC721.sol\":11948:11968  _balances[from] -= 1 */\n      dup3\n      dup3\n      sload\n      tag_207\n      swap2\n      swap1\n      tag_208\n      jump\t// in\n    tag_207:\n      swap3\n      pop\n      pop\n      dup2\n      swap1\n      sstore\n      pop\n        /* \"contract/token/ERC721.sol\":11996:11997  1 */\n      0x01\n        /* \"contract/token/ERC721.sol\":11979:11988  _balances */\n      0x03\n        /* \"contract/token/ERC721.sol\":11979:11992  _balances[to] */\n      0x00\n        /* \"contract/token/ERC721.sol\":11989:11991  to */\n      dup5\n        /* \"contract/token/ERC721.sol\":11979:11992  _balances[to] */\n      0xffffffffffffffffffffffffffffffffffffffff\n      and\n      0xffffffffffffffffffffffffffffffffffffffff\n      and\n      dup2\n      mstore\n      0x20\n      add\n      swap1\n      dup2\n      mstore\n      0x20\n      add\n      0x00\n      keccak256\n      0x00\n        /* \"contract/token/ERC721.sol\":11979:11997  _balances[to] += 1 */\n      dup3\n      dup3\n      sload\n      tag_209\n      swap2\n      swap1\n      tag_210\n      jump\t// in\n    tag_209:\n      swap3\n      pop\n      pop\n      dup2\n      swap1\n      sstore\n      pop\n        /* \"contract/token/ERC721.sol\":12027:12029  to */\n      dup2\n        /* \"contract/token/ERC721.sol\":12008:12015  _owners */\n      0x02\n        /* \"contract/token/ERC721.sol\":12008:12024  _owners[tokenId] */\n      0x00\n        /* \"contract/token/ERC721.sol\":12016:12023  tokenId */\n      dup4\n        /* \"contract/token/ERC721.sol\":12008:12024  _owners[tokenId] */\n      dup2\n      mstore\n      0x20\n      add\n      swap1\n      dup2\n      mstore\n      0x20\n      add\n      0x00\n      keccak256\n      0x00\n        /* \"contract/token/ERC721.sol\":12008:12029  _owners[tokenId] = to */\n      0x0100\n      exp\n      dup2\n      sload\n      dup2\n      0xffffffffffffffffffffffffffffffffffffffff\n      mul\n      not\n      and\n      swap1\n      dup4\n      0xffffffffffffffffffffffffffffffffffffffff\n      and\n      mul\n      or\n      swap1\n      sstore\n      pop\n        /* \"contract/token/ERC721.sol\":12066:12073  tokenId */\n      dup1\n        /* \"contract/token/ERC721.sol\":12062:12064  to */\n      dup3\n        /* \"contract/token/ERC721.sol\":12047:12074  Transfer(from, to, tokenId) */\n      0xffffffffffffffffffffffffffffffffffffffff\n      and\n        /* \"contract/token/ERC721.sol\":12056:12060  from */\n      dup5\n        /* \"contract/token/ERC721.sol\":12047:12074  Transfer(from, to, tokenId) */\n      0xffffffffffffffffffffffffffffffffffffffff\n      and\n      0xddf252ad1be2c89b69c2b068fc378daa952ba7f163c4a11628f55a4df523b3ef\n      mload(0x40)\n      mload(0x40)\n      dup1\n      swap2\n      sub\n      swap1\n      log4\n        /* \"contract/token/ERC721.sol\":12087:12125  _afterTokenTransfer(from, to, tokenId) */\n      tag_211\n        /* \"contract/token/ERC721.sol\":12107:12111  from */\n      dup4\n        /* \"contract/token/ERC721.sol\":12113:12115  to */\n      dup4\n        /* \"contract/token/ERC721.sol\":12117:12124  tokenId */\n      dup4\n        /* \"contract/token/ERC721.sol\":12087:12106  _afterTokenTransfer */\n      tag_212\n        /* \"contract/token/ERC721.sol\":12087:12125  _afterTokenTransfer(from, to, tokenId) */\n      jump\t// in\n    tag_211:\n        /* \"contract/token/ERC721.sol\":11508:12133  function _transfer(\r... */\n      pop\n      pop\n      pop\n      jump\t// out\n        /* \"contract/token/ERC721.sol\":12567:12882  function _setApprovalForAll(\r... */\n    tag_154:\n        /* \"contract/token/ERC721.sol\":12722:12730  operator */\n      dup2\n        /* \"contract/token/ERC721.sol\":12713:12730  owner != operator */\n      0xffffffffffffffffffffffffffffffffffffffff\n      and\n        /* \"contract/token/ERC721.sol\":12713:12718  owner */\n      dup4\n        /* \"contract/token/ERC721.sol\":12713:12730  owner != operator */\n      0xffffffffffffffffffffffffffffffffffffffff\n      and\n      eq\n      iszero\n        /* \"contract/token/ERC721.sol\":12705:12760  require(owner != operator, \"ERC721: approve to caller\") */\n      tag_214\n      jumpi\n      mload(0x40)\n      0x08c379a000000000000000000000000000000000000000000000000000000000\n      dup2\n      mstore\n      0x04\n      add\n      tag_215\n      swap1\n      tag_216\n      jump\t// in\n    tag_215:\n      mload(0x40)\n      dup1\n      swap2\n      sub\n      swap1\n      revert\n    tag_214:\n        /* \"contract/token/ERC721.sol\":12809:12817  approved */\n      dup1\n        /* \"contract/token/ERC721.sol\":12771:12789  _operatorApprovals */\n      0x05\n        /* \"contract/token/ERC721.sol\":12771:12796  _operatorApprovals[owner] */\n      0x00\n        /* \"contract/token/ERC721.sol\":12790:12795  owner */\n      dup6\n        /* \"contract/token/ERC721.sol\":12771:12796  _operatorApprovals[owner] */\n      0xffffffffffffffffffffffffffffffffffffffff\n      and\n      0xffffffffffffffffffffffffffffffffffffffff\n      and\n      dup2\n      mstore\n      0x20\n      add\n      swap1\n      dup2\n      mstore\n      0x20\n      add\n      0x00\n      keccak256\n        /* \"contract/token/ERC721.sol\":12771:12806  _operatorApprovals[owner][operator] */\n      0x00\n        /* \"contract/token/ERC721.sol\":12797:12805  operator */\n      dup5\n        /* \"contract/token/ERC721.sol\":12771:12806  _operatorApprovals[owner][operator] */\n      0xffffffffffffffffffffffffffffffffffffffff\n      and\n      0xffffffffffffffffffffffffffffffffffffffff\n      and\n      dup2\n      mstore\n      0x20\n      add\n      swap1\n      dup2\n      mstore\n      0x20\n      add\n      0x00\n      keccak256\n      0x00\n        /* \"contract/token/ERC721.sol\":12771:12817  _operatorApprovals[owner][operator] = approved */\n      0x0100\n      exp\n      dup2\n      sload\n      dup2\n      0xff\n      mul\n      not\n      and\n      swap1\n      dup4\n      iszero\n      iszero\n      mul\n      or\n      swap1\n      sstore\n      pop\n        /* \"contract/token/ERC721.sol\":12855:12863  operator */\n      dup2\n        /* \"contract/token/ERC721.sol\":12833:12874  ApprovalForAll(owner, operator, approved) */\n      0xffffffffffffffffffffffffffffffffffffffff\n      and\n        /* \"contract/token/ERC721.sol\":12848:12853  owner */\n      dup4\n        /* \"contract/token/ERC721.sol\":12833:12874  ApprovalForAll(owner, operator, approved) */\n      0xffffffffffffffffffffffffffffffffffffffff\n      and\n      0x17307eab39ab6107e8899845ad3d59bd9653f200f220920489ca2b5937696c31\n        /* \"contract/token/ERC721.sol\":12865:12873  approved */\n      dup4\n        /* \"contract/token/ERC721.sol\":12833:12874  ApprovalForAll(owner, operator, approved) */\n      mload(0x40)\n      tag_217\n      swap2\n      swap1\n      tag_26\n      jump\t// in\n    tag_217:\n      mload(0x40)\n      dup1\n      swap2\n      sub\n      swap1\n      log3\n        /* \"contract/token/ERC721.sol\":12567:12882  function _setApprovalForAll(\r... */\n      pop\n      pop\n      pop\n      jump\t// out\n        /* \"contract/token/ERC721.sol\":7481:7794  function _safeTransfer(\r... */\n    tag_166:\n        /* \"contract/token/ERC721.sol\":7637:7665  _transfer(from, to, tokenId) */\n      tag_219\n        /* \"contract/token/ERC721.sol\":7647:7651  from */\n      dup5\n        /* \"contract/token/ERC721.sol\":7653:7655  to */\n      dup5\n        /* \"contract/token/ERC721.sol\":7657:7664  tokenId */\n      dup5\n        /* \"contract/token/ERC721.sol\":7637:7646  _transfer */\n      tag_134\n        /* \"contract/token/ERC721.sol\":7637:7665  _transfer(from, to, tokenId) */\n      jump\t// in\n    tag_219:\n        /* \"contract/token/ERC721.sol\":7684:7731  _checkOnERC721Received(from, to, tokenId, data) */\n      tag_220\n        /* \"contract/token/ERC721.sol\":7707:7711  from */\n      dup5\n        /* \"contract/token/ERC721.sol\":7713:7715  to */\n      dup5\n        /* \"contract/token/ERC721.sol\":7717:7724  tokenId */\n      dup5\n        /* \"contract/token/ERC721.sol\":7726:7730  data */\n      dup5\n        /* \"contract/token/ERC721.sol\":7684:7706  _checkOnERC721Received */\n      tag_221\n        /* \"contract/token/ERC721.sol\":7684:7731  _checkOnERC721Received(from, to, tokenId, data) */\n      jump\t// in\n    tag_220:\n        /* \"contract/token/ERC721.sol\":7676:7786  require(_checkOnERC721Received(from, to, tokenId, data), \"ERC721: transfer to non ERC721Receiver implementer\") */\n      tag_222\n      jumpi\n      mload(0x40)\n      0x08c379a000000000000000000000000000000000000000000000000000000000\n      dup2\n      mstore\n      0x04\n      add\n      tag_223\n      swap1\n      tag_224\n      jump\t// in\n    tag_223:\n      mload(0x40)\n      dup1\n      swap2\n      sub\n      swap1\n      revert\n    tag_222:\n        /* \"contract/token/ERC721.sol\":7481:7794  function _safeTransfer(\r... */\n      pop\n      pop\n      pop\n      pop\n      jump\t// out\n        /* \"contract/token/ERC721.sol\":4225:4319  function _baseURI() internal view virtual returns (string memory) {\r... */\n    tag_173:\n        /* \"contract/token/ERC721.sol\":4276:4289  string memory */\n      0x60\n        /* \"contract/token/ERC721.sol\":4302:4311  return \"\" */\n      mload(0x40)\n      dup1\n      0x20\n      add\n      0x40\n      mstore\n      dup1\n      0x00\n      dup2\n      mstore\n      pop\n      swap1\n      pop\n        /* \"contract/token/ERC721.sol\":4225:4319  function _baseURI() internal view virtual returns (string memory) {\r... */\n      swap1\n      jump\t// out\n        /* \"utils/Strings.sol\":342:1065  function toString(uint256 value) internal pure returns (string memory) {\r... */\n    tag_177:\n        /* \"utils/Strings.sol\":398:411  string memory */\n      0x60\n        /* \"utils/Strings.sol\":628:629  0 */\n      0x00\n        /* \"utils/Strings.sol\":619:624  value */\n      dup3\n        /* \"utils/Strings.sol\":619:629  value == 0 */\n      eq\n        /* \"utils/Strings.sol\":615:668  if (value == 0) {\r... */\n      iszero\n      tag_227\n      jumpi\n        /* \"utils/Strings.sol\":646:656  return \"0\" */\n      mload(0x40)\n      dup1\n      0x40\n      add\n      0x40\n      mstore\n      dup1\n      0x01\n      dup2\n      mstore\n      0x20\n      add\n      0x3000000000000000000000000000000000000000000000000000000000000000\n      dup2\n      mstore\n      pop\n      swap1\n      pop\n      jump(tag_226)\n        /* \"utils/Strings.sol\":615:668  if (value == 0) {\r... */\n    tag_227:\n        /* \"utils/Strings.sol\":678:690  uint256 temp */\n      0x00\n        /* \"utils/Strings.sol\":693:698  value */\n      dup3\n        /* \"utils/Strings.sol\":678:698  uint256 temp = value */\n      swap1\n      pop\n        /* \"utils/Strings.sol\":709:723  uint256 digits */\n      0x00\n        /* \"utils/Strings.sol\":734:812  while (temp != 0) {\r... */\n    tag_228:\n        /* \"utils/Strings.sol\":749:750  0 */\n      0x00\n        /* \"utils/Strings.sol\":741:745  temp */\n      dup3\n        /* \"utils/Strings.sol\":741:750  temp != 0 */\n      eq\n        /* \"utils/Strings.sol\":734:812  while (temp != 0) {\r... */\n      tag_229\n      jumpi\n        /* \"utils/Strings.sol\":767:775  digits++ */\n      dup1\n      dup1\n      tag_230\n      swap1\n      tag_231\n      jump\t// in\n    tag_230:\n      swap2\n      pop\n      pop\n        /* \"utils/Strings.sol\":798:800  10 */\n      0x0a\n        /* \"utils/Strings.sol\":790:800  temp /= 10 */\n      dup3\n      tag_232\n      swap2\n      swap1\n      tag_233\n      jump\t// in\n    tag_232:\n      swap2\n      pop\n        /* \"utils/Strings.sol\":734:812  while (temp != 0) {\r... */\n      jump(tag_228)\n    tag_229:\n        /* \"utils/Strings.sol\":822:841  bytes memory buffer */\n      0x00\n        /* \"utils/Strings.sol\":854:860  digits */\n      dup2\n        /* \"utils/Strings.sol\":844:861  new bytes(digits) */\n      0xffffffffffffffff\n      dup2\n      gt\n      iszero\n      tag_234\n      jumpi\n      tag_235\n      tag_236\n      jump\t// in\n    tag_235:\n    tag_234:\n      mload(0x40)\n      swap1\n      dup1\n      dup3\n      mstore\n      dup1\n      0x1f\n      add\n      not(0x1f)\n      and\n      0x20\n      add\n      dup3\n      add\n      0x40\n      mstore\n      dup1\n      iszero\n      tag_237\n      jumpi\n      dup2\n      0x20\n      add\n      0x01\n      dup3\n      mul\n      dup1\n      calldatasize\n      dup4\n      calldatacopy\n      dup1\n      dup3\n      add\n      swap2\n      pop\n      pop\n      swap1\n      pop\n    tag_237:\n      pop\n        /* \"utils/Strings.sol\":822:861  bytes memory buffer = new bytes(digits) */\n      swap1\n      pop\n        /* \"utils/Strings.sol\":872:1026  while (value != 0) {\r... */\n    tag_238:\n        /* \"utils/Strings.sol\":888:889  0 */\n      0x00\n        /* \"utils/Strings.sol\":879:884  value */\n      dup6\n        /* \"utils/Strings.sol\":879:889  value != 0 */\n      eq\n        /* \"utils/Strings.sol\":872:1026  while (value != 0) {\r... */\n      tag_239\n      jumpi\n        /* \"utils/Strings.sol\":916:917  1 */\n      0x01\n        /* \"utils/Strings.sol\":906:917  digits -= 1 */\n      dup3\n      tag_240\n      swap2\n      swap1\n      tag_208\n      jump\t// in\n    tag_240:\n      swap2\n      pop\n        /* \"utils/Strings.sol\":983:985  10 */\n      0x0a\n        /* \"utils/Strings.sol\":975:980  value */\n      dup6\n        /* \"utils/Strings.sol\":975:985  value % 10 */\n      tag_241\n      swap2\n      swap1\n      tag_242\n      jump\t// in\n    tag_241:\n        /* \"utils/Strings.sol\":962:964  48 */\n      0x30\n        /* \"utils/Strings.sol\":962:986  48 + uint256(value % 10) */\n      tag_243\n      swap2\n      swap1\n      tag_210\n      jump\t// in\n    tag_243:\n        /* \"utils/Strings.sol\":949:988  bytes1(uint8(48 + uint256(value % 10))) */\n      0xf8\n      shl\n        /* \"utils/Strings.sol\":932:938  buffer */\n      dup2\n        /* \"utils/Strings.sol\":939:945  digits */\n      dup4\n        /* \"utils/Strings.sol\":932:946  buffer[digits] */\n      dup2\n      mload\n      dup2\n      lt\n      tag_244\n      jumpi\n      tag_245\n      tag_246\n      jump\t// in\n    tag_245:\n    tag_244:\n      0x20\n      add\n      add\n        /* \"utils/Strings.sol\":932:988  buffer[digits] = bytes1(uint8(48 + uint256(value % 10))) */\n      swap1\n      not(0xffffffffffffffffffffffffffffffffffffffffffffffffffffffffffffff)\n      and\n      swap1\n      dup2\n      0x00\n      byte\n      swap1\n      mstore8\n      pop\n        /* \"utils/Strings.sol\":1012:1014  10 */\n      0x0a\n        /* \"utils/Strings.sol\":1003:1014  value /= 10 */\n      dup6\n      tag_247\n      swap2\n      swap1\n      tag_233\n      jump\t// in\n    tag_247:\n      swap5\n      pop\n        /* \"utils/Strings.sol\":872:1026  while (value != 0) {\r... */\n      jump(tag_238)\n    tag_239:\n        /* \"utils/Strings.sol\":1050:1056  buffer */\n      dup1\n        /* \"utils/Strings.sol\":1036:1057  return string(buffer) */\n      swap4\n      pop\n      pop\n      pop\n      pop\n        /* \"utils/Strings.sol\":342:1065  function toString(uint256 value) internal pure returns (string memory) {\r... */\n    tag_226:\n      swap2\n      swap1\n      pop\n      jump\t// out\n        /* \"contract/token/ERC721.sol\":14815:14941  function _beforeTokenTransfer(\r... */\n    tag_205:\n      pop\n      pop\n      pop\n      jump\t// out\n        /* \"contract/token/ERC721.sol\":15326:15451  function _afterTokenTransfer(\r... */\n    tag_212:\n      pop\n      pop\n      pop\n      jump\t// out\n        /* \"contract/token/ERC721.sol\":13446:14243  function _checkOnERC721Received(\r... */\n    tag_221:\n        /* \"contract/token/ERC721.sol\":13600:13604  bool */\n      0x00\n        /* \"contract/token/ERC721.sol\":13621:13636  to.isContract() */\n      tag_251\n        /* \"contract/token/ERC721.sol\":13621:13623  to */\n      dup5\n        /* \"contract/token/ERC721.sol\":13621:13634  to.isContract */\n      0xffffffffffffffffffffffffffffffffffffffff\n      and\n      tag_252\n        /* \"contract/token/ERC721.sol\":13621:13636  to.isContract() */\n      jump\t// in\n    tag_251:\n        /* \"contract/token/ERC721.sol\":13617:14236  if (to.isContract()) {\r... */\n      iszero\n      tag_253\n      jumpi\n        /* \"contract/token/ERC721.sol\":13673:13675  to */\n      dup4\n        /* \"contract/token/ERC721.sol\":13657:13693  IERC721Receiver(to).onERC721Received */\n      0xffffffffffffffffffffffffffffffffffffffff\n      and\n      0x150b7a02\n        /* \"contract/token/ERC721.sol\":13694:13706  _msgSender() */\n      tag_254\n        /* \"contract/token/ERC721.sol\":13694:13704  _msgSender */\n      tag_117\n        /* \"contract/token/ERC721.sol\":13694:13706  _msgSender() */\n      jump\t// in\n    tag_254:\n        /* \"contract/token/ERC721.sol\":13708:13712  from */\n      dup8\n        /* \"contract/token/ERC721.sol\":13714:13721  tokenId */\n      dup7\n        /* \"contract/token/ERC721.sol\":13723:13727  data */\n      dup7\n        /* \"contract/token/ERC721.sol\":13657:13728  IERC721Receiver(to).onERC721Received(_msgSender(), from, tokenId, data) */\n      mload(0x40)\n      dup6\n      0xffffffff\n      and\n      0xe0\n      shl\n      dup2\n      mstore\n      0x04\n      add\n      tag_255\n      swap5\n      swap4\n      swap3\n      swap2\n      swap1\n      tag_256\n      jump\t// in\n    tag_255:\n      0x20\n      mload(0x40)\n      dup1\n      dup4\n      sub\n      dup2\n      0x00\n      dup8\n      dup1\n      extcodesize\n      iszero\n      dup1\n      iszero\n      tag_257\n      jumpi\n      0x00\n      dup1\n      revert\n    tag_257:\n      pop\n      gas\n      call\n      swap3\n      pop\n      pop\n      pop\n      dup1\n      iszero\n      tag_258\n      jumpi\n      pop\n      mload(0x40)\n      returndatasize\n      not(0x1f)\n      0x1f\n      dup3\n      add\n      and\n      dup3\n      add\n      dup1\n      0x40\n      mstore\n      pop\n      dup2\n      add\n      swap1\n      tag_259\n      swap2\n      swap1\n      tag_260\n      jump\t// in\n    tag_259:\n      0x01\n    tag_258:\n        /* \"contract/token/ERC721.sol\":13653:14181  try IERC721Receiver(to).onERC721Received(_msgSender(), from, tokenId, data) returns (bytes4 retval) {\r... */\n      tag_261\n      jumpi\n      returndatasize\n      dup1\n      0x00\n      dup2\n      eq\n      tag_266\n      jumpi\n      mload(0x40)\n      swap2\n      pop\n      and(add(returndatasize, 0x3f), not(0x1f))\n      dup3\n      add\n      0x40\n      mstore\n      returndatasize\n      dup3\n      mstore\n      returndatasize\n      0x00\n      0x20\n      dup5\n      add\n      returndatacopy\n      jump(tag_265)\n    tag_266:\n      0x60\n      swap2\n      pop\n    tag_265:\n      pop\n        /* \"contract/token/ERC721.sol\":13915:13916  0 */\n      0x00\n        /* \"contract/token/ERC721.sol\":13898:13904  reason */\n      dup2\n        /* \"contract/token/ERC721.sol\":13898:13911  reason.length */\n      mload\n        /* \"contract/token/ERC721.sol\":13898:13916  reason.length == 0 */\n      eq\n        /* \"contract/token/ERC721.sol\":13894:14166  if (reason.length == 0) {\r... */\n      iszero\n      tag_267\n      jumpi\n        /* \"contract/token/ERC721.sol\":13941:14001  revert(\"ERC721: transfer to non ERC721Receiver implementer\") */\n      mload(0x40)\n      0x08c379a000000000000000000000000000000000000000000000000000000000\n      dup2\n      mstore\n      0x04\n      add\n      tag_268\n      swap1\n      tag_224\n      jump\t// in\n    tag_268:\n      mload(0x40)\n      dup1\n      swap2\n      sub\n      swap1\n      revert\n        /* \"contract/token/ERC721.sol\":13894:14166  if (reason.length == 0) {\r... */\n    tag_267:\n        /* \"contract/token/ERC721.sol\":14116:14122  reason */\n      dup1\n        /* \"contract/token/ERC721.sol\":14110:14123  mload(reason) */\n      mload\n        /* \"contract/token/ERC721.sol\":14101:14107  reason */\n      dup2\n        /* \"contract/token/ERC721.sol\":14097:14099  32 */\n      0x20\n        /* \"contract/token/ERC721.sol\":14093:14108  add(32, reason) */\n      add\n        /* \"contract/token/ERC721.sol\":14086:14124  revert(add(32, reason), mload(reason)) */\n      revert\n        /* \"contract/token/ERC721.sol\":13653:14181  try IERC721Receiver(to).onERC721Received(_msgSender(), from, tokenId, data) returns (bytes4 retval) {\r... */\n    tag_261:\n        /* \"contract/token/ERC721.sol\":13789:13830  IERC721Receiver.onERC721Received.selector */\n      shl(0xe0, 0x150b7a02)\n        /* \"contract/token/ERC721.sol\":13779:13830  retval == IERC721Receiver.onERC721Received.selector */\n      not(0xffffffffffffffffffffffffffffffffffffffffffffffffffffffff)\n      and\n        /* \"contract/token/ERC721.sol\":13779:13785  retval */\n      dup2\n        /* \"contract/token/ERC721.sol\":13779:13830  retval == IERC721Receiver.onERC721Received.selector */\n      not(0xffffffffffffffffffffffffffffffffffffffffffffffffffffffff)\n      and\n      eq\n        /* \"contract/token/ERC721.sol\":13772:13830  return retval == IERC721Receiver.onERC721Received.selector */\n      swap2\n      pop\n      pop\n      jump(tag_250)\n        /* \"contract/token/ERC721.sol\":13617:14236  if (to.isContract()) {\r... */\n    tag_253:\n        /* \"contract/token/ERC721.sol\":14220:14224  true */\n      0x01\n        /* \"contract/token/ERC721.sol\":14213:14224  return true */\n      swap1\n      pop\n        /* \"contract/token/ERC721.sol\":13446:14243  function _checkOnERC721Received(\r... */\n    tag_250:\n      swap5\n      swap4\n      pop\n      pop\n      pop\n      pop\n      jump\t// out\n        /* \"utils/Address.sol\":1210:1536  function isContract(address account) internal view returns (bool) {\r... */\n    tag_252:\n        /* \"utils/Address.sol\":1270:1274  bool */\n      0x00\n        /* \"utils/Address.sol\":1527:1528  0 */\n      dup1\n        /* \"utils/Address.sol\":1505:1512  account */\n      dup3\n        /* \"utils/Address.sol\":1505:1524  account.code.length */\n      0xffffffffffffffffffffffffffffffffffffffff\n      and\n      extcodesize\n        /* \"utils/Address.sol\":1505:1528  account.code.length > 0 */\n      gt\n        /* \"utils/Address.sol\":1498:1528  return account.code.length > 0 */\n      swap1\n      pop\n        /* \"utils/Address.sol\":1210:1536  function isContract(address account) internal view returns (bool) {\r... */\n      swap2\n      swap1\n      pop\n      jump\t// out\n    tag_97:\n      dup3\n      dup1\n      sload\n      tag_273\n      swap1\n      tag_100\n      jump\t// in\n    tag_273:\n      swap1\n      0x00\n      mstore\n      keccak256(0x00, 0x20)\n      swap1\n      0x1f\n      add\n      0x20\n      swap1\n      div\n      dup2\n      add\n      swap3\n      dup3\n      tag_275\n      jumpi\n      0x00\n      dup6\n      sstore\n      jump(tag_274)\n    tag_275:\n      dup3\n      0x1f\n      lt\n      tag_276\n      jumpi\n      dup1\n      mload\n      not(0xff)\n      and\n      dup4\n      dup1\n      add\n      or\n      dup6\n      sstore\n      jump(tag_274)\n    tag_276:\n      dup3\n      dup1\n      add\n      0x01\n      add\n      dup6\n      sstore\n      dup3\n      iszero\n      tag_274\n      jumpi\n      swap2\n      dup3\n      add\n    tag_277:\n      dup3\n      dup2\n      gt\n      iszero\n      tag_278\n      jumpi\n      dup3\n      mload\n      dup3\n      sstore\n      swap2\n      0x20\n      add\n      swap2\n      swap1\n      0x01\n      add\n      swap1\n      jump(tag_277)\n    tag_278:\n    tag_274:\n      pop\n      swap1\n      pop\n      tag_279\n      swap2\n      swap1\n      tag_280\n      jump\t// in\n    tag_279:\n      pop\n      swap1\n      jump\t// out\n    tag_280:\n    tag_281:\n      dup1\n      dup3\n      gt\n      iszero\n      tag_282\n      jumpi\n      0x00\n      dup2\n      0x00\n      swap1\n      sstore\n      pop\n      0x01\n      add\n      jump(tag_281)\n    tag_282:\n      pop\n      swap1\n      jump\t// out\n        /* \"#utility.yul\":7:417   */\n    tag_284:\n        /* \"#utility.yul\":84:89   */\n      0x00\n        /* \"#utility.yul\":109:174   */\n      tag_286\n        /* \"#utility.yul\":125:173   */\n      tag_287\n        /* \"#utility.yul\":166:172   */\n      dup5\n        /* \"#utility.yul\":125:173   */\n      tag_288\n      jump\t// in\n    tag_287:\n        /* \"#utility.yul\":109:174   */\n      tag_289\n      jump\t// in\n    tag_286:\n        /* \"#utility.yul\":100:174   */\n      swap1\n      pop\n        /* \"#utility.yul\":197:203   */\n      dup3\n        /* \"#utility.yul\":190:195   */\n      dup2\n        /* \"#utility.yul\":183:204   */\n      mstore\n        /* \"#utility.yul\":235:239   */\n      0x20\n        /* \"#utility.yul\":228:233   */\n      dup2\n        /* \"#utility.yul\":224:240   */\n      add\n        /* \"#utility.yul\":273:276   */\n      dup5\n        /* \"#utility.yul\":264:270   */\n      dup5\n        /* \"#utility.yul\":259:262   */\n      dup5\n        /* \"#utility.yul\":255:271   */\n      add\n        /* \"#utility.yul\":252:277   */\n      gt\n        /* \"#utility.yul\":249:361   */\n      iszero\n      tag_290\n      jumpi\n        /* \"#utility.yul\":280:359   */\n      tag_291\n      tag_292\n      jump\t// in\n    tag_291:\n        /* \"#utility.yul\":249:361   */\n    tag_290:\n        /* \"#utility.yul\":370:411   */\n      tag_293\n        /* \"#utility.yul\":404:410   */\n      dup5\n        /* \"#utility.yul\":399:402   */\n      dup3\n        /* \"#utility.yul\":394:397   */\n      dup6\n        /* \"#utility.yul\":370:411   */\n      tag_294\n      jump\t// in\n    tag_293:\n        /* \"#utility.yul\":90:417   */\n      pop\n        /* \"#utility.yul\":7:417   */\n      swap4\n      swap3\n      pop\n      pop\n      pop\n      jump\t// out\n        /* \"#utility.yul\":423:835   */\n    tag_295:\n        /* \"#utility.yul\":501:506   */\n      0x00\n        /* \"#utility.yul\":526:592   */\n      tag_297\n        /* \"#utility.yul\":542:591   */\n      tag_298\n        /* \"#utility.yul\":584:590   */\n      dup5\n        /* \"#utility.yul\":542:591   */\n      tag_299\n      jump\t// in\n    tag_298:\n        /* \"#utility.yul\":526:592   */\n      tag_289\n      jump\t// in\n    tag_297:\n        /* \"#utility.yul\":517:592   */\n      swap1\n      pop\n        /* \"#utility.yul\":615:621   */\n      dup3\n        /* \"#utility.yul\":608:613   */\n      dup2\n        /* \"#utility.yul\":601:622   */\n      mstore\n        /* \"#utility.yul\":653:657   */\n      0x20\n        /* \"#utility.yul\":646:651   */\n      dup2\n        /* \"#utility.yul\":642:658   */\n      add\n        /* \"#utility.yul\":691:694   */\n      dup5\n        /* \"#utility.yul\":682:688   */\n      dup5\n        /* \"#utility.yul\":677:680   */\n      dup5\n        /* \"#utility.yul\":673:689   */\n      add\n        /* \"#utility.yul\":670:695   */\n      gt\n        /* \"#utility.yul\":667:779   */\n      iszero\n      tag_300\n      jumpi\n        /* \"#utility.yul\":698:777   */\n      tag_301\n      tag_292\n      jump\t// in\n    tag_301:\n        /* \"#utility.yul\":667:779   */\n    tag_300:\n        /* \"#utility.yul\":788:829   */\n      tag_302\n        /* \"#utility.yul\":822:828   */\n      dup5\n        /* \"#utility.yul\":817:820   */\n      dup3\n        /* \"#utility.yul\":812:815   */\n      dup6\n        /* \"#utility.yul\":788:829   */\n      tag_294\n      jump\t// in\n    tag_302:\n        /* \"#utility.yul\":507:835   */\n      pop\n        /* \"#utility.yul\":423:835   */\n      swap4\n      swap3\n      pop\n      pop\n      pop\n      jump\t// out\n        /* \"#utility.yul\":841:980   */\n    tag_303:\n        /* \"#utility.yul\":887:892   */\n      0x00\n        /* \"#utility.yul\":925:931   */\n      dup2\n        /* \"#utility.yul\":912:932   */\n      calldataload\n        /* \"#utility.yul\":903:932   */\n      swap1\n      pop\n        /* \"#utility.yul\":941:974   */\n      tag_305\n        /* \"#utility.yul\":968:973   */\n      dup2\n        /* \"#utility.yul\":941:974   */\n      tag_306\n      jump\t// in\n    tag_305:\n        /* \"#utility.yul\":841:980   */\n      swap3\n      swap2\n      pop\n      pop\n      jump\t// out\n        /* \"#utility.yul\":986:1119   */\n    tag_307:\n        /* \"#utility.yul\":1029:1034   */\n      0x00\n        /* \"#utility.yul\":1067:1073   */\n      dup2\n        /* \"#utility.yul\":1054:1074   */\n      calldataload\n        /* \"#utility.yul\":1045:1074   */\n      swap1\n      pop\n        /* \"#utility.yul\":1083:1113   */\n      tag_309\n        /* \"#utility.yul\":1107:1112   */\n      dup2\n        /* \"#utility.yul\":1083:1113   */\n      tag_310\n      jump\t// in\n    tag_309:\n        /* \"#utility.yul\":986:1119   */\n      swap3\n      swap2\n      pop\n      pop\n      jump\t// out\n        /* \"#utility.yul\":1125:1262   */\n    tag_311:\n        /* \"#utility.yul\":1170:1175   */\n      0x00\n        /* \"#utility.yul\":1208:1214   */\n      dup2\n        /* \"#utility.yul\":1195:1215   */\n      calldataload\n        /* \"#utility.yul\":1186:1215   */\n      swap1\n      pop\n        /* \"#utility.yul\":1224:1256   */\n      tag_313\n        /* \"#utility.yul\":1250:1255   */\n      dup2\n        /* \"#utility.yul\":1224:1256   */\n      tag_314\n      jump\t// in\n    tag_313:\n        /* \"#utility.yul\":1125:1262   */\n      swap3\n      swap2\n      pop\n      pop\n      jump\t// out\n        /* \"#utility.yul\":1268:1409   */\n    tag_315:\n        /* \"#utility.yul\":1324:1329   */\n      0x00\n        /* \"#utility.yul\":1355:1361   */\n      dup2\n        /* \"#utility.yul\":1349:1362   */\n      mload\n        /* \"#utility.yul\":1340:1362   */\n      swap1\n      pop\n        /* \"#utility.yul\":1371:1403   */\n      tag_317\n        /* \"#utility.yul\":1397:1402   */\n      dup2\n        /* \"#utility.yul\":1371:1403   */\n      tag_314\n      jump\t// in\n    tag_317:\n        /* \"#utility.yul\":1268:1409   */\n      swap3\n      swap2\n      pop\n      pop\n      jump\t// out\n        /* \"#utility.yul\":1428:1766   */\n    tag_318:\n        /* \"#utility.yul\":1483:1488   */\n      0x00\n        /* \"#utility.yul\":1532:1535   */\n      dup3\n        /* \"#utility.yul\":1525:1529   */\n      0x1f\n        /* \"#utility.yul\":1517:1523   */\n      dup4\n        /* \"#utility.yul\":1513:1530   */\n      add\n        /* \"#utility.yul\":1509:1536   */\n      slt\n        /* \"#utility.yul\":1499:1621   */\n      tag_320\n      jumpi\n        /* \"#utility.yul\":1540:1619   */\n      tag_321\n      tag_322\n      jump\t// in\n    tag_321:\n        /* \"#utility.yul\":1499:1621   */\n    tag_320:\n        /* \"#utility.yul\":1657:1663   */\n      dup2\n        /* \"#utility.yul\":1644:1664   */\n      calldataload\n        /* \"#utility.yul\":1682:1760   */\n      tag_323\n        /* \"#utility.yul\":1756:1759   */\n      dup5\n        /* \"#utility.yul\":1748:1754   */\n      dup3\n        /* \"#utility.yul\":1741:1745   */\n      0x20\n        /* \"#utility.yul\":1733:1739   */\n      dup7\n        /* \"#utility.yul\":1729:1746   */\n      add\n        /* \"#utility.yul\":1682:1760   */\n      tag_284\n      jump\t// in\n    tag_323:\n        /* \"#utility.yul\":1673:1760   */\n      swap2\n      pop\n        /* \"#utility.yul\":1489:1766   */\n      pop\n        /* \"#utility.yul\":1428:1766   */\n      swap3\n      swap2\n      pop\n      pop\n      jump\t// out\n        /* \"#utility.yul\":1786:2126   */\n    tag_324:\n        /* \"#utility.yul\":1842:1847   */\n      0x00\n        /* \"#utility.yul\":1891:1894   */\n      dup3\n        /* \"#utility.yul\":1884:1888   */\n      0x1f\n        /* \"#utility.yul\":1876:1882   */\n      dup4\n        /* \"#utility.yul\":1872:1889   */\n      add\n        /* \"#utility.yul\":1868:1895   */\n      slt\n        /* \"#utility.yul\":1858:1980   */\n      tag_326\n      jumpi\n        /* \"#utility.yul\":1899:1978   */\n      tag_327\n      tag_322\n      jump\t// in\n    tag_327:\n        /* \"#utility.yul\":1858:1980   */\n    tag_326:\n        /* \"#utility.yul\":2016:2022   */\n      dup2\n        /* \"#utility.yul\":2003:2023   */\n      calldataload\n        /* \"#utility.yul\":2041:2120   */\n      tag_328\n        /* \"#utility.yul\":2116:2119   */\n      dup5\n        /* \"#utility.yul\":2108:2114   */\n      dup3\n        /* \"#utility.yul\":2101:2105   */\n      0x20\n        /* \"#utility.yul\":2093:2099   */\n      dup7\n        /* \"#utility.yul\":2089:2106   */\n      add\n        /* \"#utility.yul\":2041:2120   */\n      tag_295\n      jump\t// in\n    tag_328:\n        /* \"#utility.yul\":2032:2120   */\n      swap2\n      pop\n        /* \"#utility.yul\":1848:2126   */\n      pop\n        /* \"#utility.yul\":1786:2126   */\n      swap3\n      swap2\n      pop\n      pop\n      jump\t// out\n        /* \"#utility.yul\":2132:2271   */\n    tag_329:\n        /* \"#utility.yul\":2178:2183   */\n      0x00\n        /* \"#utility.yul\":2216:2222   */\n      dup2\n        /* \"#utility.yul\":2203:2223   */\n      calldataload\n        /* \"#utility.yul\":2194:2223   */\n      swap1\n      pop\n        /* \"#utility.yul\":2232:2265   */\n      tag_331\n        /* \"#utility.yul\":2259:2264   */\n      dup2\n        /* \"#utility.yul\":2232:2265   */\n      tag_332\n      jump\t// in\n    tag_331:\n        /* \"#utility.yul\":2132:2271   */\n      swap3\n      swap2\n      pop\n      pop\n      jump\t// out\n        /* \"#utility.yul\":2277:2606   */\n    tag_58:\n        /* \"#utility.yul\":2336:2342   */\n      0x00\n        /* \"#utility.yul\":2385:2387   */\n      0x20\n        /* \"#utility.yul\":2373:2382   */\n      dup3\n        /* \"#utility.yul\":2364:2371   */\n      dup5\n        /* \"#utility.yul\":2360:2383   */\n      sub\n        /* \"#utility.yul\":2356:2388   */\n      slt\n        /* \"#utility.yul\":2353:2472   */\n      iszero\n      tag_334\n      jumpi\n        /* \"#utility.yul\":2391:2470   */\n      tag_335\n      tag_336\n      jump\t// in\n    tag_335:\n        /* \"#utility.yul\":2353:2472   */\n    tag_334:\n        /* \"#utility.yul\":2511:2512   */\n      0x00\n        /* \"#utility.yul\":2536:2589   */\n      tag_337\n        /* \"#utility.yul\":2581:2588   */\n      dup5\n        /* \"#utility.yul\":2572:2578   */\n      dup3\n        /* \"#utility.yul\":2561:2570   */\n      dup6\n        /* \"#utility.yul\":2557:2579   */\n      add\n        /* \"#utility.yul\":2536:2589   */\n      tag_303\n      jump\t// in\n    tag_337:\n        /* \"#utility.yul\":2526:2589   */\n      swap2\n      pop\n        /* \"#utility.yul\":2482:2599   */\n      pop\n        /* \"#utility.yul\":2277:2606   */\n      swap3\n      swap2\n      pop\n      pop\n      jump\t// out\n        /* \"#utility.yul\":2612:3086   */\n    tag_84:\n        /* \"#utility.yul\":2680:2686   */\n      0x00\n        /* \"#utility.yul\":2688:2694   */\n      dup1\n        /* \"#utility.yul\":2737:2739   */\n      0x40\n        /* \"#utility.yul\":2725:2734   */\n      dup4\n        /* \"#utility.yul\":2716:2723   */\n      dup6\n        /* \"#utility.yul\":2712:2735   */\n      sub\n        /* \"#utility.yul\":2708:2740   */\n      slt\n        /* \"#utility.yul\":2705:2824   */\n      iszero\n      tag_339\n      jumpi\n        /* \"#utility.yul\":2743:2822   */\n      tag_340\n      tag_336\n      jump\t// in\n    tag_340:\n        /* \"#utility.yul\":2705:2824   */\n    tag_339:\n        /* \"#utility.yul\":2863:2864   */\n      0x00\n        /* \"#utility.yul\":2888:2941   */\n      tag_341\n        /* \"#utility.yul\":2933:2940   */\n      dup6\n        /* \"#utility.yul\":2924:2930   */\n      dup3\n        /* \"#utility.yul\":2913:2922   */\n      dup7\n        /* \"#utility.yul\":2909:2931   */\n      add\n        /* \"#utility.yul\":2888:2941   */\n      tag_303\n      jump\t// in\n    tag_341:\n        /* \"#utility.yul\":2878:2941   */\n      swap3\n      pop\n        /* \"#utility.yul\":2834:2951   */\n      pop\n        /* \"#utility.yul\":2990:2992   */\n      0x20\n        /* \"#utility.yul\":3016:3069   */\n      tag_342\n        /* \"#utility.yul\":3061:3068   */\n      dup6\n        /* \"#utility.yul\":3052:3058   */\n      dup3\n        /* \"#utility.yul\":3041:3050   */\n      dup7\n        /* \"#utility.yul\":3037:3059   */\n      add\n        /* \"#utility.yul\":3016:3069   */\n      tag_303\n      jump\t// in\n    tag_342:\n        /* \"#utility.yul\":3006:3069   */\n      swap2\n      pop\n        /* \"#utility.yul\":2961:3079   */\n      pop\n        /* \"#utility.yul\":2612:3086   */\n      swap3\n      pop\n      swap3\n      swap1\n      pop\n      jump\t// out\n        /* \"#utility.yul\":3092:3711   */\n    tag_47:\n        /* \"#utility.yul\":3169:3175   */\n      0x00\n        /* \"#utility.yul\":3177:3183   */\n      dup1\n        /* \"#utility.yul\":3185:3191   */\n      0x00\n        /* \"#utility.yul\":3234:3236   */\n      0x60\n        /* \"#utility.yul\":3222:3231   */\n      dup5\n        /* \"#utility.yul\":3213:3220   */\n      dup7\n        /* \"#utility.yul\":3209:3232   */\n      sub\n        /* \"#utility.yul\":3205:3237   */\n      slt\n        /* \"#utility.yul\":3202:3321   */\n      iszero\n      tag_344\n      jumpi\n        /* \"#utility.yul\":3240:3319   */\n      tag_345\n      tag_336\n      jump\t// in\n    tag_345:\n        /* \"#utility.yul\":3202:3321   */\n    tag_344:\n        /* \"#utility.yul\":3360:3361   */\n      0x00\n        /* \"#utility.yul\":3385:3438   */\n      tag_346\n        /* \"#utility.yul\":3430:3437   */\n      dup7\n        /* \"#utility.yul\":3421:3427   */\n      dup3\n        /* \"#utility.yul\":3410:3419   */\n      dup8\n        /* \"#utility.yul\":3406:3428   */\n      add\n        /* \"#utility.yul\":3385:3438   */\n      tag_303\n      jump\t// in\n    tag_346:\n        /* \"#utility.yul\":3375:3438   */\n      swap4\n      pop\n        /* \"#utility.yul\":3331:3448   */\n      pop\n        /* \"#utility.yul\":3487:3489   */\n      0x20\n        /* \"#utility.yul\":3513:3566   */\n      tag_347\n        /* \"#utility.yul\":3558:3565   */\n      dup7\n        /* \"#utility.yul\":3549:3555   */\n      dup3\n        /* \"#utility.yul\":3538:3547   */\n      dup8\n        /* \"#utility.yul\":3534:3556   */\n      add\n        /* \"#utility.yul\":3513:3566   */\n      tag_303\n      jump\t// in\n    tag_347:\n        /* \"#utility.yul\":3503:3566   */\n      swap3\n      pop\n        /* \"#utility.yul\":3458:3576   */\n      pop\n        /* \"#utility.yul\":3615:3617   */\n      0x40\n        /* \"#utility.yul\":3641:3694   */\n      tag_348\n        /* \"#utility.yul\":3686:3693   */\n      dup7\n        /* \"#utility.yul\":3677:3683   */\n      dup3\n        /* \"#utility.yul\":3666:3675   */\n      dup8\n        /* \"#utility.yul\":3662:3684   */\n      add\n        /* \"#utility.yul\":3641:3694   */\n      tag_329\n      jump\t// in\n    tag_348:\n        /* \"#utility.yul\":3631:3694   */\n      swap2\n      pop\n        /* \"#utility.yul\":3586:3704   */\n      pop\n        /* \"#utility.yul\":3092:3711   */\n      swap3\n      pop\n      swap3\n      pop\n      swap3\n      jump\t// out\n        /* \"#utility.yul\":3717:4660   */\n    tag_76:\n        /* \"#utility.yul\":3812:3818   */\n      0x00\n        /* \"#utility.yul\":3820:3826   */\n      dup1\n        /* \"#utility.yul\":3828:3834   */\n      0x00\n        /* \"#utility.yul\":3836:3842   */\n      dup1\n        /* \"#utility.yul\":3885:3888   */\n      0x80\n        /* \"#utility.yul\":3873:3882   */\n      dup6\n        /* \"#utility.yul\":3864:3871   */\n      dup8\n        /* \"#utility.yul\":3860:3883   */\n      sub\n        /* \"#utility.yul\":3856:3889   */\n      slt\n        /* \"#utility.yul\":3853:3973   */\n      iszero\n      tag_350\n      jumpi\n        /* \"#utility.yul\":3892:3971   */\n      tag_351\n      tag_336\n      jump\t// in\n    tag_351:\n        /* \"#utility.yul\":3853:3973   */\n    tag_350:\n        /* \"#utility.yul\":4012:4013   */\n      0x00\n        /* \"#utility.yul\":4037:4090   */\n      tag_352\n        /* \"#utility.yul\":4082:4089   */\n      dup8\n        /* \"#utility.yul\":4073:4079   */\n      dup3\n        /* \"#utility.yul\":4062:4071   */\n      dup9\n        /* \"#utility.yul\":4058:4080   */\n      add\n        /* \"#utility.yul\":4037:4090   */\n      tag_303\n      jump\t// in\n    tag_352:\n        /* \"#utility.yul\":4027:4090   */\n      swap5\n      pop\n        /* \"#utility.yul\":3983:4100   */\n      pop\n        /* \"#utility.yul\":4139:4141   */\n      0x20\n        /* \"#utility.yul\":4165:4218   */\n      tag_353\n        /* \"#utility.yul\":4210:4217   */\n      dup8\n        /* \"#utility.yul\":4201:4207   */\n      dup3\n        /* \"#utility.yul\":4190:4199   */\n      dup9\n        /* \"#utility.yul\":4186:4208   */\n      add\n        /* \"#utility.yul\":4165:4218   */\n      tag_303\n      jump\t// in\n    tag_353:\n        /* \"#utility.yul\":4155:4218   */\n      swap4\n      pop\n        /* \"#utility.yul\":4110:4228   */\n      pop\n        /* \"#utility.yul\":4267:4269   */\n      0x40\n        /* \"#utility.yul\":4293:4346   */\n      tag_354\n        /* \"#utility.yul\":4338:4345   */\n      dup8\n        /* \"#utility.yul\":4329:4335   */\n      dup3\n        /* \"#utility.yul\":4318:4327   */\n      dup9\n        /* \"#utility.yul\":4314:4336   */\n      add\n        /* \"#utility.yul\":4293:4346   */\n      tag_329\n      jump\t// in\n    tag_354:\n        /* \"#utility.yul\":4283:4346   */\n      swap3\n      pop\n        /* \"#utility.yul\":4238:4356   */\n      pop\n        /* \"#utility.yul\":4423:4425   */\n      0x60\n        /* \"#utility.yul\":4412:4421   */\n      dup6\n        /* \"#utility.yul\":4408:4426   */\n      add\n        /* \"#utility.yul\":4395:4427   */\n      calldataload\n        /* \"#utility.yul\":4454:4472   */\n      0xffffffffffffffff\n        /* \"#utility.yul\":4446:4452   */\n      dup2\n        /* \"#utility.yul\":4443:4473   */\n      gt\n        /* \"#utility.yul\":4440:4557   */\n      iszero\n      tag_355\n      jumpi\n        /* \"#utility.yul\":4476:4555   */\n      tag_356\n      tag_357\n      jump\t// in\n    tag_356:\n        /* \"#utility.yul\":4440:4557   */\n    tag_355:\n        /* \"#utility.yul\":4581:4643   */\n      tag_358\n        /* \"#utility.yul\":4635:4642   */\n      dup8\n        /* \"#utility.yul\":4626:4632   */\n      dup3\n        /* \"#utility.yul\":4615:4624   */\n      dup9\n        /* \"#utility.yul\":4611:4633   */\n      add\n        /* \"#utility.yul\":4581:4643   */\n      tag_318\n      jump\t// in\n    tag_358:\n        /* \"#utility.yul\":4571:4643   */\n      swap2\n      pop\n        /* \"#utility.yul\":4366:4653   */\n      pop\n        /* \"#utility.yul\":3717:4660   */\n      swap3\n      swap6\n      swap2\n      swap5\n      pop\n      swap3\n      pop\n      jump\t// out\n        /* \"#utility.yul\":4666:5134   */\n    tag_67:\n        /* \"#utility.yul\":4731:4737   */\n      0x00\n        /* \"#utility.yul\":4739:4745   */\n      dup1\n        /* \"#utility.yul\":4788:4790   */\n      0x40\n        /* \"#utility.yul\":4776:4785   */\n      dup4\n        /* \"#utility.yul\":4767:4774   */\n      dup6\n        /* \"#utility.yul\":4763:4786   */\n      sub\n        /* \"#utility.yul\":4759:4791   */\n      slt\n        /* \"#utility.yul\":4756:4875   */\n      iszero\n      tag_360\n      jumpi\n        /* \"#utility.yul\":4794:4873   */\n      tag_361\n      tag_336\n      jump\t// in\n    tag_361:\n        /* \"#utility.yul\":4756:4875   */\n    tag_360:\n        /* \"#utility.yul\":4914:4915   */\n      0x00\n        /* \"#utility.yul\":4939:4992   */\n      tag_362\n        /* \"#utility.yul\":4984:4991   */\n      dup6\n        /* \"#utility.yul\":4975:4981   */\n      dup3\n        /* \"#utility.yul\":4964:4973   */\n      dup7\n        /* \"#utility.yul\":4960:4982   */\n      add\n        /* \"#utility.yul\":4939:4992   */\n      tag_303\n      jump\t// in\n    tag_362:\n        /* \"#utility.yul\":4929:4992   */\n      swap3\n      pop\n        /* \"#utility.yul\":4885:5002   */\n      pop\n        /* \"#utility.yul\":5041:5043   */\n      0x20\n        /* \"#utility.yul\":5067:5117   */\n      tag_363\n        /* \"#utility.yul\":5109:5116   */\n      dup6\n        /* \"#utility.yul\":5100:5106   */\n      dup3\n        /* \"#utility.yul\":5089:5098   */\n      dup7\n        /* \"#utility.yul\":5085:5107   */\n      add\n        /* \"#utility.yul\":5067:5117   */\n      tag_307\n      jump\t// in\n    tag_363:\n        /* \"#utility.yul\":5057:5117   */\n      swap2\n      pop\n        /* \"#utility.yul\":5012:5127   */\n      pop\n        /* \"#utility.yul\":4666:5134   */\n      swap3\n      pop\n      swap3\n      swap1\n      pop\n      jump\t// out\n        /* \"#utility.yul\":5140:5614   */\n    tag_43:\n        /* \"#utility.yul\":5208:5214   */\n      0x00\n        /* \"#utility.yul\":5216:5222   */\n      dup1\n        /* \"#utility.yul\":5265:5267   */\n      0x40\n        /* \"#utility.yul\":5253:5262   */\n      dup4\n        /* \"#utility.yul\":5244:5251   */\n      dup6\n        /* \"#utility.yul\":5240:5263   */\n      sub\n        /* \"#utility.yul\":5236:5268   */\n      slt\n        /* \"#utility.yul\":5233:5352   */\n      iszero\n      tag_365\n      jumpi\n        /* \"#utility.yul\":5271:5350   */\n      tag_366\n      tag_336\n      jump\t// in\n    tag_366:\n        /* \"#utility.yul\":5233:5352   */\n    tag_365:\n        /* \"#utility.yul\":5391:5392   */\n      0x00\n        /* \"#utility.yul\":5416:5469   */\n      tag_367\n        /* \"#utility.yul\":5461:5468   */\n      dup6\n        /* \"#utility.yul\":5452:5458   */\n      dup3\n        /* \"#utility.yul\":5441:5450   */\n      dup7\n        /* \"#utility.yul\":5437:5459   */\n      add\n        /* \"#utility.yul\":5416:5469   */\n      tag_303\n      jump\t// in\n    tag_367:\n        /* \"#utility.yul\":5406:5469   */\n      swap3\n      pop\n        /* \"#utility.yul\":5362:5479   */\n      pop\n        /* \"#utility.yul\":5518:5520   */\n      0x20\n        /* \"#utility.yul\":5544:5597   */\n      tag_368\n        /* \"#utility.yul\":5589:5596   */\n      dup6\n        /* \"#utility.yul\":5580:5586   */\n      dup3\n        /* \"#utility.yul\":5569:5578   */\n      dup7\n        /* \"#utility.yul\":5565:5587   */\n      add\n        /* \"#utility.yul\":5544:5597   */\n      tag_329\n      jump\t// in\n    tag_368:\n        /* \"#utility.yul\":5534:5597   */\n      swap2\n      pop\n        /* \"#utility.yul\":5489:5607   */\n      pop\n        /* \"#utility.yul\":5140:5614   */\n      swap3\n      pop\n      swap3\n      swap1\n      pop\n      jump\t// out\n        /* \"#utility.yul\":5620:5947   */\n    tag_23:\n        /* \"#utility.yul\":5678:5684   */\n      0x00\n        /* \"#utility.yul\":5727:5729   */\n      0x20\n        /* \"#utility.yul\":5715:5724   */\n      dup3\n        /* \"#utility.yul\":5706:5713   */\n      dup5\n        /* \"#utility.yul\":5702:5725   */\n      sub\n        /* \"#utility.yul\":5698:5730   */\n      slt\n        /* \"#utility.yul\":5695:5814   */\n      iszero\n      tag_370\n      jumpi\n        /* \"#utility.yul\":5733:5812   */\n      tag_371\n      tag_336\n      jump\t// in\n    tag_371:\n        /* \"#utility.yul\":5695:5814   */\n    tag_370:\n        /* \"#utility.yul\":5853:5854   */\n      0x00\n        /* \"#utility.yul\":5878:5930   */\n      tag_372\n        /* \"#utility.yul\":5922:5929   */\n      dup5\n        /* \"#utility.yul\":5913:5919   */\n      dup3\n        /* \"#utility.yul\":5902:5911   */\n      dup6\n        /* \"#utility.yul\":5898:5920   */\n      add\n        /* \"#utility.yul\":5878:5930   */\n      tag_311\n      jump\t// in\n    tag_372:\n        /* \"#utility.yul\":5868:5930   */\n      swap2\n      pop\n        /* \"#utility.yul\":5824:5940   */\n      pop\n        /* \"#utility.yul\":5620:5947   */\n      swap3\n      swap2\n      pop\n      pop\n      jump\t// out\n        /* \"#utility.yul\":5953:6302   */\n    tag_260:\n        /* \"#utility.yul\":6022:6028   */\n      0x00\n        /* \"#utility.yul\":6071:6073   */\n      0x20\n        /* \"#utility.yul\":6059:6068   */\n      dup3\n        /* \"#utility.yul\":6050:6057   */\n      dup5\n        /* \"#utility.yul\":6046:6069   */\n      sub\n        /* \"#utility.yul\":6042:6074   */\n      slt\n        /* \"#utility.yul\":6039:6158   */\n      iszero\n      tag_374\n      jumpi\n        /* \"#utility.yul\":6077:6156   */\n      tag_375\n      tag_336\n      jump\t// in\n    tag_375:\n        /* \"#utility.yul\":6039:6158   */\n    tag_374:\n        /* \"#utility.yul\":6197:6198   */\n      0x00\n        /* \"#utility.yul\":6222:6285   */\n      tag_376\n        /* \"#utility.yul\":6277:6284   */\n      dup5\n        /* \"#utility.yul\":6268:6274   */\n      dup3\n        /* \"#utility.yul\":6257:6266   */\n      dup6\n        /* \"#utility.yul\":6253:6275   */\n      add\n        /* \"#utility.yul\":6222:6285   */\n      tag_315\n      jump\t// in\n    tag_376:\n        /* \"#utility.yul\":6212:6285   */\n      swap2\n      pop\n        /* \"#utility.yul\":6168:6295   */\n      pop\n        /* \"#utility.yul\":5953:6302   */\n      swap3\n      swap2\n      pop\n      pop\n      jump\t// out\n        /* \"#utility.yul\":6308:6637   */\n    tag_37:\n        /* \"#utility.yul\":6367:6373   */\n      0x00\n        /* \"#utility.yul\":6416:6418   */\n      0x20\n        /* \"#utility.yul\":6404:6413   */\n      dup3\n        /* \"#utility.yul\":6395:6402   */\n      dup5\n        /* \"#utility.yul\":6391:6414   */\n      sub\n        /* \"#utility.yul\":6387:6419   */\n      slt\n        /* \"#utility.yul\":6384:6503   */\n      iszero\n      tag_378\n      jumpi\n        /* \"#utility.yul\":6422:6501   */\n      tag_379\n      tag_336\n      jump\t// in\n    tag_379:\n        /* \"#utility.yul\":6384:6503   */\n    tag_378:\n        /* \"#utility.yul\":6542:6543   */\n      0x00\n        /* \"#utility.yul\":6567:6620   */\n      tag_380\n        /* \"#utility.yul\":6612:6619   */\n      dup5\n        /* \"#utility.yul\":6603:6609   */\n      dup3\n        /* \"#utility.yul\":6592:6601   */\n      dup6\n        /* \"#utility.yul\":6588:6610   */\n      add\n        /* \"#utility.yul\":6567:6620   */\n      tag_329\n      jump\t// in\n    tag_380:\n        /* \"#utility.yul\":6557:6620   */\n      swap2\n      pop\n        /* \"#utility.yul\":6513:6630   */\n      pop\n        /* \"#utility.yul\":6308:6637   */\n      swap3\n      swap2\n      pop\n      pop\n      jump\t// out\n        /* \"#utility.yul\":6643:8026   */\n    tag_29:\n        /* \"#utility.yul\":6766:6772   */\n      0x00\n        /* \"#utility.yul\":6774:6780   */\n      dup1\n        /* \"#utility.yul\":6782:6788   */\n      0x00\n        /* \"#utility.yul\":6790:6796   */\n      dup1\n        /* \"#utility.yul\":6798:6804   */\n      0x00\n        /* \"#utility.yul\":6806:6812   */\n      dup1\n        /* \"#utility.yul\":6814:6820   */\n      0x00\n        /* \"#utility.yul\":6863:6866   */\n      0xe0\n        /* \"#utility.yul\":6851:6860   */\n      dup9\n        /* \"#utility.yul\":6842:6849   */\n      dup11\n        /* \"#utility.yul\":6838:6861   */\n      sub\n        /* \"#utility.yul\":6834:6867   */\n      slt\n        /* \"#utility.yul\":6831:6951   */\n      iszero\n      tag_382\n      jumpi\n        /* \"#utility.yul\":6870:6949   */\n      tag_383\n      tag_336\n      jump\t// in\n    tag_383:\n        /* \"#utility.yul\":6831:6951   */\n    tag_382:\n        /* \"#utility.yul\":6990:6991   */\n      0x00\n        /* \"#utility.yul\":7015:7068   */\n      tag_384\n        /* \"#utility.yul\":7060:7067   */\n      dup11\n        /* \"#utility.yul\":7051:7057   */\n      dup3\n        /* \"#utility.yul\":7040:7049   */\n      dup12\n        /* \"#utility.yul\":7036:7058   */\n      add\n        /* \"#utility.yul\":7015:7068   */\n      tag_329\n      jump\t// in\n    tag_384:\n        /* \"#utility.yul\":7005:7068   */\n      swap8\n      pop\n        /* \"#utility.yul\":6961:7078   */\n      pop\n        /* \"#utility.yul\":7117:7119   */\n      0x20\n        /* \"#utility.yul\":7143:7196   */\n      tag_385\n        /* \"#utility.yul\":7188:7195   */\n      dup11\n        /* \"#utility.yul\":7179:7185   */\n      dup3\n        /* \"#utility.yul\":7168:7177   */\n      dup12\n        /* \"#utility.yul\":7164:7186   */\n      add\n        /* \"#utility.yul\":7143:7196   */\n      tag_329\n      jump\t// in\n    tag_385:\n        /* \"#utility.yul\":7133:7196   */\n      swap7\n      pop\n        /* \"#utility.yul\":7088:7206   */\n      pop\n        /* \"#utility.yul\":7245:7247   */\n      0x40\n        /* \"#utility.yul\":7271:7324   */\n      tag_386\n        /* \"#utility.yul\":7316:7323   */\n      dup11\n        /* \"#utility.yul\":7307:7313   */\n      dup3\n        /* \"#utility.yul\":7296:7305   */\n      dup12\n        /* \"#utility.yul\":7292:7314   */\n      add\n        /* \"#utility.yul\":7271:7324   */\n      tag_329\n      jump\t// in\n    tag_386:\n        /* \"#utility.yul\":7261:7324   */\n      swap6\n      pop\n        /* \"#utility.yul\":7216:7334   */\n      pop\n        /* \"#utility.yul\":7373:7375   */\n      0x60\n        /* \"#utility.yul\":7399:7452   */\n      tag_387\n        /* \"#utility.yul\":7444:7451   */\n      dup11\n        /* \"#utility.yul\":7435:7441   */\n      dup3\n        /* \"#utility.yul\":7424:7433   */\n      dup12\n        /* \"#utility.yul\":7420:7442   */\n      add\n        /* \"#utility.yul\":7399:7452   */\n      tag_329\n      jump\t// in\n    tag_387:\n        /* \"#utility.yul\":7389:7452   */\n      swap5\n      pop\n        /* \"#utility.yul\":7344:7462   */\n      pop\n        /* \"#utility.yul\":7501:7504   */\n      0x80\n        /* \"#utility.yul\":7528:7581   */\n      tag_388\n        /* \"#utility.yul\":7573:7580   */\n      dup11\n        /* \"#utility.yul\":7564:7570   */\n      dup3\n        /* \"#utility.yul\":7553:7562   */\n      dup12\n        /* \"#utility.yul\":7549:7571   */\n      add\n        /* \"#utility.yul\":7528:7581   */\n      tag_329\n      jump\t// in\n    tag_388:\n        /* \"#utility.yul\":7518:7581   */\n      swap4\n      pop\n        /* \"#utility.yul\":7472:7591   */\n      pop\n        /* \"#utility.yul\":7630:7633   */\n      0xa0\n        /* \"#utility.yul\":7657:7710   */\n      tag_389\n        /* \"#utility.yul\":7702:7709   */\n      dup11\n        /* \"#utility.yul\":7693:7699   */\n      dup3\n        /* \"#utility.yul\":7682:7691   */\n      dup12\n        /* \"#utility.yul\":7678:7700   */\n      add\n        /* \"#utility.yul\":7657:7710   */\n      tag_303\n      jump\t// in\n    tag_389:\n        /* \"#utility.yul\":7647:7710   */\n      swap3\n      pop\n        /* \"#utility.yul\":7601:7720   */\n      pop\n        /* \"#utility.yul\":7787:7790   */\n      0xc0\n        /* \"#utility.yul\":7776:7785   */\n      dup9\n        /* \"#utility.yul\":7772:7791   */\n      add\n        /* \"#utility.yul\":7759:7792   */\n      calldataload\n        /* \"#utility.yul\":7819:7837   */\n      0xffffffffffffffff\n        /* \"#utility.yul\":7811:7817   */\n      dup2\n        /* \"#utility.yul\":7808:7838   */\n      gt\n        /* \"#utility.yul\":7805:7922   */\n      iszero\n      tag_390\n      jumpi\n        /* \"#utility.yul\":7841:7920   */\n      tag_391\n      tag_357\n      jump\t// in\n    tag_391:\n        /* \"#utility.yul\":7805:7922   */\n    tag_390:\n        /* \"#utility.yul\":7946:8009   */\n      tag_392\n        /* \"#utility.yul\":8001:8008   */\n      dup11\n        /* \"#utility.yul\":7992:7998   */\n      dup3\n        /* \"#utility.yul\":7981:7990   */\n      dup12\n        /* \"#utility.yul\":7977:7999   */\n      add\n        /* \"#utility.yul\":7946:8009   */\n      tag_324\n      jump\t// in\n    tag_392:\n        /* \"#utility.yul\":7936:8009   */\n      swap2\n      pop\n        /* \"#utility.yul\":7730:8019   */\n      pop\n        /* \"#utility.yul\":6643:8026   */\n      swap3\n      swap6\n      swap9\n      swap2\n      swap5\n      swap8\n      pop\n      swap3\n      swap6\n      pop\n      jump\t// out\n        /* \"#utility.yul\":8032:8150   */\n    tag_393:\n        /* \"#utility.yul\":8119:8143   */\n      tag_395\n        /* \"#utility.yul\":8137:8142   */\n      dup2\n        /* \"#utility.yul\":8119:8143   */\n      tag_396\n      jump\t// in\n    tag_395:\n        /* \"#utility.yul\":8114:8117   */\n      dup3\n        /* \"#utility.yul\":8107:8144   */\n      mstore\n        /* \"#utility.yul\":8032:8150   */\n      pop\n      pop\n      jump\t// out\n        /* \"#utility.yul\":8156:8265   */\n    tag_397:\n        /* \"#utility.yul\":8237:8258   */\n      tag_399\n        /* \"#utility.yul\":8252:8257   */\n      dup2\n        /* \"#utility.yul\":8237:8258   */\n      tag_400\n      jump\t// in\n    tag_399:\n        /* \"#utility.yul\":8232:8235   */\n      dup3\n        /* \"#utility.yul\":8225:8259   */\n      mstore\n        /* \"#utility.yul\":8156:8265   */\n      pop\n      pop\n      jump\t// out\n        /* \"#utility.yul\":8271:8631   */\n    tag_401:\n        /* \"#utility.yul\":8357:8360   */\n      0x00\n        /* \"#utility.yul\":8385:8423   */\n      tag_403\n        /* \"#utility.yul\":8417:8422   */\n      dup3\n        /* \"#utility.yul\":8385:8423   */\n      tag_404\n      jump\t// in\n    tag_403:\n        /* \"#utility.yul\":8439:8509   */\n      tag_405\n        /* \"#utility.yul\":8502:8508   */\n      dup2\n        /* \"#utility.yul\":8497:8500   */\n      dup6\n        /* \"#utility.yul\":8439:8509   */\n      tag_406\n      jump\t// in\n    tag_405:\n        /* \"#utility.yul\":8432:8509   */\n      swap4\n      pop\n        /* \"#utility.yul\":8518:8570   */\n      tag_407\n        /* \"#utility.yul\":8563:8569   */\n      dup2\n        /* \"#utility.yul\":8558:8561   */\n      dup6\n        /* \"#utility.yul\":8551:8555   */\n      0x20\n        /* \"#utility.yul\":8544:8549   */\n      dup7\n        /* \"#utility.yul\":8540:8556   */\n      add\n        /* \"#utility.yul\":8518:8570   */\n      tag_408\n      jump\t// in\n    tag_407:\n        /* \"#utility.yul\":8595:8624   */\n      tag_409\n        /* \"#utility.yul\":8617:8623   */\n      dup2\n        /* \"#utility.yul\":8595:8624   */\n      tag_410\n      jump\t// in\n    tag_409:\n        /* \"#utility.yul\":8590:8593   */\n      dup5\n        /* \"#utility.yul\":8586:8625   */\n      add\n        /* \"#utility.yul\":8579:8625   */\n      swap2\n      pop\n        /* \"#utility.yul\":8361:8631   */\n      pop\n        /* \"#utility.yul\":8271:8631   */\n      swap3\n      swap2\n      pop\n      pop\n      jump\t// out\n        /* \"#utility.yul\":8637:9001   */\n    tag_411:\n        /* \"#utility.yul\":8725:8728   */\n      0x00\n        /* \"#utility.yul\":8753:8792   */\n      tag_413\n        /* \"#utility.yul\":8786:8791   */\n      dup3\n        /* \"#utility.yul\":8753:8792   */\n      tag_414\n      jump\t// in\n    tag_413:\n        /* \"#utility.yul\":8808:8879   */\n      tag_415\n        /* \"#utility.yul\":8872:8878   */\n      dup2\n        /* \"#utility.yul\":8867:8870   */\n      dup6\n        /* \"#utility.yul\":8808:8879   */\n      tag_416\n      jump\t// in\n    tag_415:\n        /* \"#utility.yul\":8801:8879   */\n      swap4\n      pop\n        /* \"#utility.yul\":8888:8940   */\n      tag_417\n        /* \"#utility.yul\":8933:8939   */\n      dup2\n        /* \"#utility.yul\":8928:8931   */\n      dup6\n        /* \"#utility.yul\":8921:8925   */\n      0x20\n        /* \"#utility.yul\":8914:8919   */\n      dup7\n        /* \"#utility.yul\":8910:8926   */\n      add\n        /* \"#utility.yul\":8888:8940   */\n      tag_408\n      jump\t// in\n    tag_417:\n        /* \"#utility.yul\":8965:8994   */\n      tag_418\n        /* \"#utility.yul\":8987:8993   */\n      dup2\n        /* \"#utility.yul\":8965:8994   */\n      tag_410\n      jump\t// in\n    tag_418:\n        /* \"#utility.yul\":8960:8963   */\n      dup5\n        /* \"#utility.yul\":8956:8995   */\n      add\n        /* \"#utility.yul\":8949:8995   */\n      swap2\n      pop\n        /* \"#utility.yul\":8729:9001   */\n      pop\n        /* \"#utility.yul\":8637:9001   */\n      swap3\n      swap2\n      pop\n      pop\n      jump\t// out\n        /* \"#utility.yul\":9007:9384   */\n    tag_419:\n        /* \"#utility.yul\":9113:9116   */\n      0x00\n        /* \"#utility.yul\":9141:9180   */\n      tag_421\n        /* \"#utility.yul\":9174:9179   */\n      dup3\n        /* \"#utility.yul\":9141:9180   */\n      tag_414\n      jump\t// in\n    tag_421:\n        /* \"#utility.yul\":9196:9285   */\n      tag_422\n        /* \"#utility.yul\":9278:9284   */\n      dup2\n        /* \"#utility.yul\":9273:9276   */\n      dup6\n        /* \"#utility.yul\":9196:9285   */\n      tag_423\n      jump\t// in\n    tag_422:\n        /* \"#utility.yul\":9189:9285   */\n      swap4\n      pop\n        /* \"#utility.yul\":9294:9346   */\n      tag_424\n        /* \"#utility.yul\":9339:9345   */\n      dup2\n        /* \"#utility.yul\":9334:9337   */\n      dup6\n        /* \"#utility.yul\":9327:9331   */\n      0x20\n        /* \"#utility.yul\":9320:9325   */\n      dup7\n        /* \"#utility.yul\":9316:9332   */\n      add\n        /* \"#utility.yul\":9294:9346   */\n      tag_408\n      jump\t// in\n    tag_424:\n        /* \"#utility.yul\":9371:9377   */\n      dup1\n        /* \"#utility.yul\":9366:9369   */\n      dup5\n        /* \"#utility.yul\":9362:9378   */\n      add\n        /* \"#utility.yul\":9355:9378   */\n      swap2\n      pop\n        /* \"#utility.yul\":9117:9384   */\n      pop\n        /* \"#utility.yul\":9007:9384   */\n      swap3\n      swap2\n      pop\n      pop\n      jump\t// out\n        /* \"#utility.yul\":9390:9756   */\n    tag_425:\n        /* \"#utility.yul\":9532:9535   */\n      0x00\n        /* \"#utility.yul\":9553:9620   */\n      tag_427\n        /* \"#utility.yul\":9617:9619   */\n      0x32\n        /* \"#utility.yul\":9612:9615   */\n      dup4\n        /* \"#utility.yul\":9553:9620   */\n      tag_416\n      jump\t// in\n    tag_427:\n        /* \"#utility.yul\":9546:9620   */\n      swap2\n      pop\n        /* \"#utility.yul\":9629:9722   */\n      tag_428\n        /* \"#utility.yul\":9718:9721   */\n      dup3\n        /* \"#utility.yul\":9629:9722   */\n      tag_429\n      jump\t// in\n    tag_428:\n        /* \"#utility.yul\":9747:9749   */\n      0x40\n        /* \"#utility.yul\":9742:9745   */\n      dup3\n        /* \"#utility.yul\":9738:9750   */\n      add\n        /* \"#utility.yul\":9731:9750   */\n      swap1\n      pop\n        /* \"#utility.yul\":9390:9756   */\n      swap2\n      swap1\n      pop\n      jump\t// out\n        /* \"#utility.yul\":9762:10128   */\n    tag_430:\n        /* \"#utility.yul\":9904:9907   */\n      0x00\n        /* \"#utility.yul\":9925:9992   */\n      tag_432\n        /* \"#utility.yul\":9989:9991   */\n      0x25\n        /* \"#utility.yul\":9984:9987   */\n      dup4\n        /* \"#utility.yul\":9925:9992   */\n      tag_416\n      jump\t// in\n    tag_432:\n        /* \"#utility.yul\":9918:9992   */\n      swap2\n      pop\n        /* \"#utility.yul\":10001:10094   */\n      tag_433\n        /* \"#utility.yul\":10090:10093   */\n      dup3\n        /* \"#utility.yul\":10001:10094   */\n      tag_434\n      jump\t// in\n    tag_433:\n        /* \"#utility.yul\":10119:10121   */\n      0x40\n        /* \"#utility.yul\":10114:10117   */\n      dup3\n        /* \"#utility.yul\":10110:10122   */\n      add\n        /* \"#utility.yul\":10103:10122   */\n      swap1\n      pop\n        /* \"#utility.yul\":9762:10128   */\n      swap2\n      swap1\n      pop\n      jump\t// out\n        /* \"#utility.yul\":10134:10500   */\n    tag_435:\n        /* \"#utility.yul\":10276:10279   */\n      0x00\n        /* \"#utility.yul\":10297:10364   */\n      tag_437\n        /* \"#utility.yul\":10361:10363   */\n      0x24\n        /* \"#utility.yul\":10356:10359   */\n      dup4\n        /* \"#utility.yul\":10297:10364   */\n      tag_416\n      jump\t// in\n    tag_437:\n        /* \"#utility.yul\":10290:10364   */\n      swap2\n      pop\n        /* \"#utility.yul\":10373:10466   */\n      tag_438\n        /* \"#utility.yul\":10462:10465   */\n      dup3\n        /* \"#utility.yul\":10373:10466   */\n      tag_439\n      jump\t// in\n    tag_438:\n        /* \"#utility.yul\":10491:10493   */\n      0x40\n        /* \"#utility.yul\":10486:10489   */\n      dup3\n        /* \"#utility.yul\":10482:10494   */\n      add\n        /* \"#utility.yul\":10475:10494   */\n      swap1\n      pop\n        /* \"#utility.yul\":10134:10500   */\n      swap2\n      swap1\n      pop\n      jump\t// out\n        /* \"#utility.yul\":10506:10872   */\n    tag_440:\n        /* \"#utility.yul\":10648:10651   */\n      0x00\n        /* \"#utility.yul\":10669:10736   */\n      tag_442\n        /* \"#utility.yul\":10733:10735   */\n      0x19\n        /* \"#utility.yul\":10728:10731   */\n      dup4\n        /* \"#utility.yul\":10669:10736   */\n      tag_416\n      jump\t// in\n    tag_442:\n        /* \"#utility.yul\":10662:10736   */\n      swap2\n      pop\n        /* \"#utility.yul\":10745:10838   */\n      tag_443\n        /* \"#utility.yul\":10834:10837   */\n      dup3\n        /* \"#utility.yul\":10745:10838   */\n      tag_444\n      jump\t// in\n    tag_443:\n        /* \"#utility.yul\":10863:10865   */\n      0x20\n        /* \"#utility.yul\":10858:10861   */\n      dup3\n        /* \"#utility.yul\":10854:10866   */\n      add\n        /* \"#utility.yul\":10847:10866   */\n      swap1\n      pop\n        /* \"#utility.yul\":10506:10872   */\n      swap2\n      swap1\n      pop\n      jump\t// out\n        /* \"#utility.yul\":10878:11244   */\n    tag_445:\n        /* \"#utility.yul\":11020:11023   */\n      0x00\n        /* \"#utility.yul\":11041:11108   */\n      tag_447\n        /* \"#utility.yul\":11105:11107   */\n      0x2c\n        /* \"#utility.yul\":11100:11103   */\n      dup4\n        /* \"#utility.yul\":11041:11108   */\n      tag_416\n      jump\t// in\n    tag_447:\n        /* \"#utility.yul\":11034:11108   */\n      swap2\n      pop\n        /* \"#utility.yul\":11117:11210   */\n      tag_448\n        /* \"#utility.yul\":11206:11209   */\n      dup3\n        /* \"#utility.yul\":11117:11210   */\n      tag_449\n      jump\t// in\n    tag_448:\n        /* \"#utility.yul\":11235:11237   */\n      0x40\n        /* \"#utility.yul\":11230:11233   */\n      dup3\n        /* \"#utility.yul\":11226:11238   */\n      add\n        /* \"#utility.yul\":11219:11238   */\n      swap1\n      pop\n        /* \"#utility.yul\":10878:11244   */\n      swap2\n      swap1\n      pop\n      jump\t// out\n        /* \"#utility.yul\":11250:11616   */\n    tag_450:\n        /* \"#utility.yul\":11392:11395   */\n      0x00\n        /* \"#utility.yul\":11413:11480   */\n      tag_452\n        /* \"#utility.yul\":11477:11479   */\n      0x29\n        /* \"#utility.yul\":11472:11475   */\n      dup4\n        /* \"#utility.yul\":11413:11480   */\n      tag_416\n      jump\t// in\n    tag_452:\n        /* \"#utility.yul\":11406:11480   */\n      swap2\n      pop\n        /* \"#utility.yul\":11489:11582   */\n      tag_453\n        /* \"#utility.yul\":11578:11581   */\n      dup3\n        /* \"#utility.yul\":11489:11582   */\n      tag_454\n      jump\t// in\n    tag_453:\n        /* \"#utility.yul\":11607:11609   */\n      0x40\n        /* \"#utility.yul\":11602:11605   */\n      dup3\n        /* \"#utility.yul\":11598:11610   */\n      add\n        /* \"#utility.yul\":11591:11610   */\n      swap1\n      pop\n        /* \"#utility.yul\":11250:11616   */\n      swap2\n      swap1\n      pop\n      jump\t// out\n        /* \"#utility.yul\":11622:11988   */\n    tag_455:\n        /* \"#utility.yul\":11764:11767   */\n      0x00\n        /* \"#utility.yul\":11785:11852   */\n      tag_457\n        /* \"#utility.yul\":11849:11851   */\n      0x38\n        /* \"#utility.yul\":11844:11847   */\n      dup4\n        /* \"#utility.yul\":11785:11852   */\n      tag_416\n      jump\t// in\n    tag_457:\n        /* \"#utility.yul\":11778:11852   */\n      swap2\n      pop\n        /* \"#utility.yul\":11861:11954   */\n      tag_458\n        /* \"#utility.yul\":11950:11953   */\n      dup3\n        /* \"#utility.yul\":11861:11954   */\n      tag_459\n      jump\t// in\n    tag_458:\n        /* \"#utility.yul\":11979:11981   */\n      0x40\n        /* \"#utility.yul\":11974:11977   */\n      dup3\n        /* \"#utility.yul\":11970:11982   */\n      add\n        /* \"#utility.yul\":11963:11982   */\n      swap1\n      pop\n        /* \"#utility.yul\":11622:11988   */\n      swap2\n      swap1\n      pop\n      jump\t// out\n        /* \"#utility.yul\":11994:12360   */\n    tag_460:\n        /* \"#utility.yul\":12136:12139   */\n      0x00\n        /* \"#utility.yul\":12157:12224   */\n      tag_462\n        /* \"#utility.yul\":12221:12223   */\n      0x29\n        /* \"#utility.yul\":12216:12219   */\n      dup4\n        /* \"#utility.yul\":12157:12224   */\n      tag_416\n      jump\t// in\n    tag_462:\n        /* \"#utility.yul\":12150:12224   */\n      swap2\n      pop\n        /* \"#utility.yul\":12233:12326   */\n      tag_463\n        /* \"#utility.yul\":12322:12325   */\n      dup3\n        /* \"#utility.yul\":12233:12326   */\n      tag_464\n      jump\t// in\n    tag_463:\n        /* \"#utility.yul\":12351:12353   */\n      0x40\n        /* \"#utility.yul\":12346:12349   */\n      dup3\n        /* \"#utility.yul\":12342:12354   */\n      add\n        /* \"#utility.yul\":12335:12354   */\n      swap1\n      pop\n        /* \"#utility.yul\":11994:12360   */\n      swap2\n      swap1\n      pop\n      jump\t// out\n        /* \"#utility.yul\":12366:12732   */\n    tag_465:\n        /* \"#utility.yul\":12508:12511   */\n      0x00\n        /* \"#utility.yul\":12529:12596   */\n      tag_467\n        /* \"#utility.yul\":12593:12595   */\n      0x2c\n        /* \"#utility.yul\":12588:12591   */\n      dup4\n        /* \"#utility.yul\":12529:12596   */\n      tag_416\n      jump\t// in\n    tag_467:\n        /* \"#utility.yul\":12522:12596   */\n      swap2\n      pop\n        /* \"#utility.yul\":12605:12698   */\n      tag_468\n        /* \"#utility.yul\":12694:12697   */\n      dup3\n        /* \"#utility.yul\":12605:12698   */\n      tag_469\n      jump\t// in\n    tag_468:\n        /* \"#utility.yul\":12723:12725   */\n      0x40\n        /* \"#utility.yul\":12718:12721   */\n      dup3\n        /* \"#utility.yul\":12714:12726   */\n      add\n        /* \"#utility.yul\":12707:12726   */\n      swap1\n      pop\n        /* \"#utility.yul\":12366:12732   */\n      swap2\n      swap1\n      pop\n      jump\t// out\n        /* \"#utility.yul\":12738:13104   */\n    tag_470:\n        /* \"#utility.yul\":12880:12883   */\n      0x00\n        /* \"#utility.yul\":12901:12968   */\n      tag_472\n        /* \"#utility.yul\":12965:12967   */\n      0x2f\n        /* \"#utility.yul\":12960:12963   */\n      dup4\n        /* \"#utility.yul\":12901:12968   */\n      tag_416\n      jump\t// in\n    tag_472:\n        /* \"#utility.yul\":12894:12968   */\n      swap2\n      pop\n        /* \"#utility.yul\":12977:13070   */\n      tag_473\n        /* \"#utility.yul\":13066:13069   */\n      dup3\n        /* \"#utility.yul\":12977:13070   */\n      tag_474\n      jump\t// in\n    tag_473:\n        /* \"#utility.yul\":13095:13097   */\n      0x40\n        /* \"#utility.yul\":13090:13093   */\n      dup3\n        /* \"#utility.yul\":13086:13098   */\n      add\n        /* \"#utility.yul\":13079:13098   */\n      swap1\n      pop\n        /* \"#utility.yul\":12738:13104   */\n      swap2\n      swap1\n      pop\n      jump\t// out\n        /* \"#utility.yul\":13110:13476   */\n    tag_475:\n        /* \"#utility.yul\":13252:13255   */\n      0x00\n        /* \"#utility.yul\":13273:13340   */\n      tag_477\n        /* \"#utility.yul\":13337:13339   */\n      0x1b\n        /* \"#utility.yul\":13332:13335   */\n      dup4\n        /* \"#utility.yul\":13273:13340   */\n      tag_416\n      jump\t// in\n    tag_477:\n        /* \"#utility.yul\":13266:13340   */\n      swap2\n      pop\n        /* \"#utility.yul\":13349:13442   */\n      tag_478\n        /* \"#utility.yul\":13438:13441   */\n      dup3\n        /* \"#utility.yul\":13349:13442   */\n      tag_479\n      jump\t// in\n    tag_478:\n        /* \"#utility.yul\":13467:13469   */\n      0x20\n        /* \"#utility.yul\":13462:13465   */\n      dup3\n        /* \"#utility.yul\":13458:13470   */\n      add\n        /* \"#utility.yul\":13451:13470   */\n      swap1\n      pop\n        /* \"#utility.yul\":13110:13476   */\n      swap2\n      swap1\n      pop\n      jump\t// out\n        /* \"#utility.yul\":13482:13848   */\n    tag_480:\n        /* \"#utility.yul\":13624:13627   */\n      0x00\n        /* \"#utility.yul\":13645:13712   */\n      tag_482\n        /* \"#utility.yul\":13709:13711   */\n      0x21\n        /* \"#utility.yul\":13704:13707   */\n      dup4\n        /* \"#utility.yul\":13645:13712   */\n      tag_416\n      jump\t// in\n    tag_482:\n        /* \"#utility.yul\":13638:13712   */\n      swap2\n      pop\n        /* \"#utility.yul\":13721:13814   */\n      tag_483\n        /* \"#utility.yul\":13810:13813   */\n      dup3\n        /* \"#utility.yul\":13721:13814   */\n      tag_484\n      jump\t// in\n    tag_483:\n        /* \"#utility.yul\":13839:13841   */\n      0x40\n        /* \"#utility.yul\":13834:13837   */\n      dup3\n        /* \"#utility.yul\":13830:13842   */\n      add\n        /* \"#utility.yul\":13823:13842   */\n      swap1\n      pop\n        /* \"#utility.yul\":13482:13848   */\n      swap2\n      swap1\n      pop\n      jump\t// out\n        /* \"#utility.yul\":13854:14220   */\n    tag_485:\n        /* \"#utility.yul\":13996:13999   */\n      0x00\n        /* \"#utility.yul\":14017:14084   */\n      tag_487\n        /* \"#utility.yul\":14081:14083   */\n      0x31\n        /* \"#utility.yul\":14076:14079   */\n      dup4\n        /* \"#utility.yul\":14017:14084   */\n      tag_416\n      jump\t// in\n    tag_487:\n        /* \"#utility.yul\":14010:14084   */\n      swap2\n      pop\n        /* \"#utility.yul\":14093:14186   */\n      tag_488\n        /* \"#utility.yul\":14182:14185   */\n      dup3\n        /* \"#utility.yul\":14093:14186   */\n      tag_489\n      jump\t// in\n    tag_488:\n        /* \"#utility.yul\":14211:14213   */\n      0x40\n        /* \"#utility.yul\":14206:14209   */\n      dup3\n        /* \"#utility.yul\":14202:14214   */\n      add\n        /* \"#utility.yul\":14195:14214   */\n      swap1\n      pop\n        /* \"#utility.yul\":13854:14220   */\n      swap2\n      swap1\n      pop\n      jump\t// out\n        /* \"#utility.yul\":14226:14344   */\n    tag_490:\n        /* \"#utility.yul\":14313:14337   */\n      tag_492\n        /* \"#utility.yul\":14331:14336   */\n      dup2\n        /* \"#utility.yul\":14313:14337   */\n      tag_493\n      jump\t// in\n    tag_492:\n        /* \"#utility.yul\":14308:14311   */\n      dup3\n        /* \"#utility.yul\":14301:14338   */\n      mstore\n        /* \"#utility.yul\":14226:14344   */\n      pop\n      pop\n      jump\t// out\n        /* \"#utility.yul\":14350:14785   */\n    tag_179:\n        /* \"#utility.yul\":14530:14533   */\n      0x00\n        /* \"#utility.yul\":14552:14647   */\n      tag_495\n        /* \"#utility.yul\":14643:14646   */\n      dup3\n        /* \"#utility.yul\":14634:14640   */\n      dup6\n        /* \"#utility.yul\":14552:14647   */\n      tag_419\n      jump\t// in\n    tag_495:\n        /* \"#utility.yul\":14545:14647   */\n      swap2\n      pop\n        /* \"#utility.yul\":14664:14759   */\n      tag_496\n        /* \"#utility.yul\":14755:14758   */\n      dup3\n        /* \"#utility.yul\":14746:14752   */\n      dup5\n        /* \"#utility.yul\":14664:14759   */\n      tag_419\n      jump\t// in\n    tag_496:\n        /* \"#utility.yul\":14657:14759   */\n      swap2\n      pop\n        /* \"#utility.yul\":14776:14779   */\n      dup2\n        /* \"#utility.yul\":14769:14779   */\n      swap1\n      pop\n        /* \"#utility.yul\":14350:14785   */\n      swap4\n      swap3\n      pop\n      pop\n      pop\n      jump\t// out\n        /* \"#utility.yul\":14791:15013   */\n    tag_40:\n        /* \"#utility.yul\":14884:14888   */\n      0x00\n        /* \"#utility.yul\":14922:14924   */\n      0x20\n        /* \"#utility.yul\":14911:14920   */\n      dup3\n        /* \"#utility.yul\":14907:14925   */\n      add\n        /* \"#utility.yul\":14899:14925   */\n      swap1\n      pop\n        /* \"#utility.yul\":14935:15006   */\n      tag_498\n        /* \"#utility.yul\":15003:15004   */\n      0x00\n        /* \"#utility.yul\":14992:15001   */\n      dup4\n        /* \"#utility.yul\":14988:15005   */\n      add\n        /* \"#utility.yul\":14979:14985   */\n      dup5\n        /* \"#utility.yul\":14935:15006   */\n      tag_393\n      jump\t// in\n    tag_498:\n        /* \"#utility.yul\":14791:15013   */\n      swap3\n      swap2\n      pop\n      pop\n      jump\t// out\n        /* \"#utility.yul\":15019:15659   */\n    tag_256:\n        /* \"#utility.yul\":15214:15218   */\n      0x00\n        /* \"#utility.yul\":15252:15255   */\n      0x80\n        /* \"#utility.yul\":15241:15250   */\n      dup3\n        /* \"#utility.yul\":15237:15256   */\n      add\n        /* \"#utility.yul\":15229:15256   */\n      swap1\n      pop\n        /* \"#utility.yul\":15266:15337   */\n      tag_500\n        /* \"#utility.yul\":15334:15335   */\n      0x00\n        /* \"#utility.yul\":15323:15332   */\n      dup4\n        /* \"#utility.yul\":15319:15336   */\n      add\n        /* \"#utility.yul\":15310:15316   */\n      dup8\n        /* \"#utility.yul\":15266:15337   */\n      tag_393\n      jump\t// in\n    tag_500:\n        /* \"#utility.yul\":15347:15419   */\n      tag_501\n        /* \"#utility.yul\":15415:15417   */\n      0x20\n        /* \"#utility.yul\":15404:15413   */\n      dup4\n        /* \"#utility.yul\":15400:15418   */\n      add\n        /* \"#utility.yul\":15391:15397   */\n      dup7\n        /* \"#utility.yul\":15347:15419   */\n      tag_393\n      jump\t// in\n    tag_501:\n        /* \"#utility.yul\":15429:15501   */\n      tag_502\n        /* \"#utility.yul\":15497:15499   */\n      0x40\n        /* \"#utility.yul\":15486:15495   */\n      dup4\n        /* \"#utility.yul\":15482:15500   */\n      add\n        /* \"#utility.yul\":15473:15479   */\n      dup6\n        /* \"#utility.yul\":15429:15501   */\n      tag_490\n      jump\t// in\n    tag_502:\n        /* \"#utility.yul\":15548:15557   */\n      dup2\n        /* \"#utility.yul\":15542:15546   */\n      dup2\n        /* \"#utility.yul\":15538:15558   */\n      sub\n        /* \"#utility.yul\":15533:15535   */\n      0x60\n        /* \"#utility.yul\":15522:15531   */\n      dup4\n        /* \"#utility.yul\":15518:15536   */\n      add\n        /* \"#utility.yul\":15511:15559   */\n      mstore\n        /* \"#utility.yul\":15576:15652   */\n      tag_503\n        /* \"#utility.yul\":15647:15651   */\n      dup2\n        /* \"#utility.yul\":15638:15644   */\n      dup5\n        /* \"#utility.yul\":15576:15652   */\n      tag_401\n      jump\t// in\n    tag_503:\n        /* \"#utility.yul\":15568:15652   */\n      swap1\n      pop\n        /* \"#utility.yul\":15019:15659   */\n      swap6\n      swap5\n      pop\n      pop\n      pop\n      pop\n      pop\n      jump\t// out\n        /* \"#utility.yul\":15665:15875   */\n    tag_26:\n        /* \"#utility.yul\":15752:15756   */\n      0x00\n        /* \"#utility.yul\":15790:15792   */\n      0x20\n        /* \"#utility.yul\":15779:15788   */\n      dup3\n        /* \"#utility.yul\":15775:15793   */\n      add\n        /* \"#utility.yul\":15767:15793   */\n      swap1\n      pop\n        /* \"#utility.yul\":15803:15868   */\n      tag_505\n        /* \"#utility.yul\":15865:15866   */\n      0x00\n        /* \"#utility.yul\":15854:15863   */\n      dup4\n        /* \"#utility.yul\":15850:15867   */\n      add\n        /* \"#utility.yul\":15841:15847   */\n      dup5\n        /* \"#utility.yul\":15803:15868   */\n      tag_397\n      jump\t// in\n    tag_505:\n        /* \"#utility.yul\":15665:15875   */\n      swap3\n      swap2\n      pop\n      pop\n      jump\t// out\n        /* \"#utility.yul\":15881:16194   */\n    tag_34:\n        /* \"#utility.yul\":15994:15998   */\n      0x00\n        /* \"#utility.yul\":16032:16034   */\n      0x20\n        /* \"#utility.yul\":16021:16030   */\n      dup3\n        /* \"#utility.yul\":16017:16035   */\n      add\n        /* \"#utility.yul\":16009:16035   */\n      swap1\n      pop\n        /* \"#utility.yul\":16081:16090   */\n      dup2\n        /* \"#utility.yul\":16075:16079   */\n      dup2\n        /* \"#utility.yul\":16071:16091   */\n      sub\n        /* \"#utility.yul\":16067:16068   */\n      0x00\n        /* \"#utility.yul\":16056:16065   */\n      dup4\n        /* \"#utility.yul\":16052:16069   */\n      add\n        /* \"#utility.yul\":16045:16092   */\n      mstore\n        /* \"#utility.yul\":16109:16187   */\n      tag_507\n        /* \"#utility.yul\":16182:16186   */\n      dup2\n        /* \"#utility.yul\":16173:16179   */\n      dup5\n        /* \"#utility.yul\":16109:16187   */\n      tag_411\n      jump\t// in\n    tag_507:\n        /* \"#utility.yul\":16101:16187   */\n      swap1\n      pop\n        /* \"#utility.yul\":15881:16194   */\n      swap3\n      swap2\n      pop\n      pop\n      jump\t// out\n        /* \"#utility.yul\":16200:16619   */\n    tag_224:\n        /* \"#utility.yul\":16366:16370   */\n      0x00\n        /* \"#utility.yul\":16404:16406   */\n      0x20\n        /* \"#utility.yul\":16393:16402   */\n      dup3\n        /* \"#utility.yul\":16389:16407   */\n      add\n        /* \"#utility.yul\":16381:16407   */\n      swap1\n      pop\n        /* \"#utility.yul\":16453:16462   */\n      dup2\n        /* \"#utility.yul\":16447:16451   */\n      dup2\n        /* \"#utility.yul\":16443:16463   */\n      sub\n        /* \"#utility.yul\":16439:16440   */\n      0x00\n        /* \"#utility.yul\":16428:16437   */\n      dup4\n        /* \"#utility.yul\":16424:16441   */\n      add\n        /* \"#utility.yul\":16417:16464   */\n      mstore\n        /* \"#utility.yul\":16481:16612   */\n      tag_509\n        /* \"#utility.yul\":16607:16611   */\n      dup2\n        /* \"#utility.yul\":16481:16612   */\n      tag_425\n      jump\t// in\n    tag_509:\n        /* \"#utility.yul\":16473:16612   */\n      swap1\n      pop\n        /* \"#utility.yul\":16200:16619   */\n      swap2\n      swap1\n      pop\n      jump\t// out\n        /* \"#utility.yul\":16625:17044   */\n    tag_200:\n        /* \"#utility.yul\":16791:16795   */\n      0x00\n        /* \"#utility.yul\":16829:16831   */\n      0x20\n        /* \"#utility.yul\":16818:16827   */\n      dup3\n        /* \"#utility.yul\":16814:16832   */\n      add\n        /* \"#utility.yul\":16806:16832   */\n      swap1\n      pop\n        /* \"#utility.yul\":16878:16887   */\n      dup2\n        /* \"#utility.yul\":16872:16876   */\n      dup2\n        /* \"#utility.yul\":16868:16888   */\n      sub\n        /* \"#utility.yul\":16864:16865   */\n      0x00\n        /* \"#utility.yul\":16853:16862   */\n      dup4\n        /* \"#utility.yul\":16849:16866   */\n      add\n        /* \"#utility.yul\":16842:16889   */\n      mstore\n        /* \"#utility.yul\":16906:17037   */\n      tag_511\n        /* \"#utility.yul\":17032:17036   */\n      dup2\n        /* \"#utility.yul\":16906:17037   */\n      tag_430\n      jump\t// in\n    tag_511:\n        /* \"#utility.yul\":16898:17037   */\n      swap1\n      pop\n        /* \"#utility.yul\":16625:17044   */\n      swap2\n      swap1\n      pop\n      jump\t// out\n        /* \"#utility.yul\":17050:17469   */\n    tag_203:\n        /* \"#utility.yul\":17216:17220   */\n      0x00\n        /* \"#utility.yul\":17254:17256   */\n      0x20\n        /* \"#utility.yul\":17243:17252   */\n      dup3\n        /* \"#utility.yul\":17239:17257   */\n      add\n        /* \"#utility.yul\":17231:17257   */\n      swap1\n      pop\n        /* \"#utility.yul\":17303:17312   */\n      dup2\n        /* \"#utility.yul\":17297:17301   */\n      dup2\n        /* \"#utility.yul\":17293:17313   */\n      sub\n        /* \"#utility.yul\":17289:17290   */\n      0x00\n        /* \"#utility.yul\":17278:17287   */\n      dup4\n        /* \"#utility.yul\":17274:17291   */\n      add\n        /* \"#utility.yul\":17267:17314   */\n      mstore\n        /* \"#utility.yul\":17331:17462   */\n      tag_513\n        /* \"#utility.yul\":17457:17461   */\n      dup2\n        /* \"#utility.yul\":17331:17462   */\n      tag_435\n      jump\t// in\n    tag_513:\n        /* \"#utility.yul\":17323:17462   */\n      swap1\n      pop\n        /* \"#utility.yul\":17050:17469   */\n      swap2\n      swap1\n      pop\n      jump\t// out\n        /* \"#utility.yul\":17475:17894   */\n    tag_216:\n        /* \"#utility.yul\":17641:17645   */\n      0x00\n        /* \"#utility.yul\":17679:17681   */\n      0x20\n        /* \"#utility.yul\":17668:17677   */\n      dup3\n        /* \"#utility.yul\":17664:17682   */\n      add\n        /* \"#utility.yul\":17656:17682   */\n      swap1\n      pop\n        /* \"#utility.yul\":17728:17737   */\n      dup2\n        /* \"#utility.yul\":17722:17726   */\n      dup2\n        /* \"#utility.yul\":17718:17738   */\n      sub\n        /* \"#utility.yul\":17714:17715   */\n      0x00\n        /* \"#utility.yul\":17703:17712   */\n      dup4\n        /* \"#utility.yul\":17699:17716   */\n      add\n        /* \"#utility.yul\":17692:17739   */\n      mstore\n        /* \"#utility.yul\":17756:17887   */\n      tag_515\n        /* \"#utility.yul\":17882:17886   */\n      dup2\n        /* \"#utility.yul\":17756:17887   */\n      tag_440\n      jump\t// in\n    tag_515:\n        /* \"#utility.yul\":17748:17887   */\n      swap1\n      pop\n        /* \"#utility.yul\":17475:17894   */\n      swap2\n      swap1\n      pop\n      jump\t// out\n        /* \"#utility.yul\":17900:18319   */\n    tag_190:\n        /* \"#utility.yul\":18066:18070   */\n      0x00\n        /* \"#utility.yul\":18104:18106   */\n      0x20\n        /* \"#utility.yul\":18093:18102   */\n      dup3\n        /* \"#utility.yul\":18089:18107   */\n      add\n        /* \"#utility.yul\":18081:18107   */\n      swap1\n      pop\n        /* \"#utility.yul\":18153:18162   */\n      dup2\n        /* \"#utility.yul\":18147:18151   */\n      dup2\n        /* \"#utility.yul\":18143:18163   */\n      sub\n        /* \"#utility.yul\":18139:18140   */\n      0x00\n        /* \"#utility.yul\":18128:18137   */\n      dup4\n        /* \"#utility.yul\":18124:18141   */\n      add\n        /* \"#utility.yul\":18117:18164   */\n      mstore\n        /* \"#utility.yul\":18181:18312   */\n      tag_517\n        /* \"#utility.yul\":18307:18311   */\n      dup2\n        /* \"#utility.yul\":18181:18312   */\n      tag_445\n      jump\t// in\n    tag_517:\n        /* \"#utility.yul\":18173:18312   */\n      swap1\n      pop\n        /* \"#utility.yul\":17900:18319   */\n      swap2\n      swap1\n      pop\n      jump\t// out\n        /* \"#utility.yul\":18325:18744   */\n    tag_144:\n        /* \"#utility.yul\":18491:18495   */\n      0x00\n        /* \"#utility.yul\":18529:18531   */\n      0x20\n        /* \"#utility.yul\":18518:18527   */\n      dup3\n        /* \"#utility.yul\":18514:18532   */\n      add\n        /* \"#utility.yul\":18506:18532   */\n      swap1\n      pop\n        /* \"#utility.yul\":18578:18587   */\n      dup2\n        /* \"#utility.yul\":18572:18576   */\n      dup2\n        /* \"#utility.yul\":18568:18588   */\n      sub\n        /* \"#utility.yul\":18564:18565   */\n      0x00\n        /* \"#utility.yul\":18553:18562   */\n      dup4\n        /* \"#utility.yul\":18549:18566   */\n      add\n        /* \"#utility.yul\":18542:18589   */\n      mstore\n        /* \"#utility.yul\":18606:18737   */\n      tag_519\n        /* \"#utility.yul\":18732:18736   */\n      dup2\n        /* \"#utility.yul\":18606:18737   */\n      tag_450\n      jump\t// in\n    tag_519:\n        /* \"#utility.yul\":18598:18737   */\n      swap1\n      pop\n        /* \"#utility.yul\":18325:18744   */\n      swap2\n      swap1\n      pop\n      jump\t// out\n        /* \"#utility.yul\":18750:19169   */\n    tag_123:\n        /* \"#utility.yul\":18916:18920   */\n      0x00\n        /* \"#utility.yul\":18954:18956   */\n      0x20\n        /* \"#utility.yul\":18943:18952   */\n      dup3\n        /* \"#utility.yul\":18939:18957   */\n      add\n        /* \"#utility.yul\":18931:18957   */\n      swap1\n      pop\n        /* \"#utility.yul\":19003:19012   */\n      dup2\n        /* \"#utility.yul\":18997:19001   */\n      dup2\n        /* \"#utility.yul\":18993:19013   */\n      sub\n        /* \"#utility.yul\":18989:18990   */\n      0x00\n        /* \"#utility.yul\":18978:18987   */\n      dup4\n        /* \"#utility.yul\":18974:18991   */\n      add\n        /* \"#utility.yul\":18967:19014   */\n      mstore\n        /* \"#utility.yul\":19031:19162   */\n      tag_521\n        /* \"#utility.yul\":19157:19161   */\n      dup2\n        /* \"#utility.yul\":19031:19162   */\n      tag_455\n      jump\t// in\n    tag_521:\n        /* \"#utility.yul\":19023:19162   */\n      swap1\n      pop\n        /* \"#utility.yul\":18750:19169   */\n      swap2\n      swap1\n      pop\n      jump\t// out\n        /* \"#utility.yul\":19175:19594   */\n    tag_140:\n        /* \"#utility.yul\":19341:19345   */\n      0x00\n        /* \"#utility.yul\":19379:19381   */\n      0x20\n        /* \"#utility.yul\":19368:19377   */\n      dup3\n        /* \"#utility.yul\":19364:19382   */\n      add\n        /* \"#utility.yul\":19356:19382   */\n      swap1\n      pop\n        /* \"#utility.yul\":19428:19437   */\n      dup2\n        /* \"#utility.yul\":19422:19426   */\n      dup2\n        /* \"#utility.yul\":19418:19438   */\n      sub\n        /* \"#utility.yul\":19414:19415   */\n      0x00\n        /* \"#utility.yul\":19403:19412   */\n      dup4\n        /* \"#utility.yul\":19399:19416   */\n      add\n        /* \"#utility.yul\":19392:19439   */\n      mstore\n        /* \"#utility.yul\":19456:19587   */\n      tag_523\n        /* \"#utility.yul\":19582:19586   */\n      dup2\n        /* \"#utility.yul\":19456:19587   */\n      tag_460\n      jump\t// in\n    tag_523:\n        /* \"#utility.yul\":19448:19587   */\n      swap1\n      pop\n        /* \"#utility.yul\":19175:19594   */\n      swap2\n      swap1\n      pop\n      jump\t// out\n        /* \"#utility.yul\":19600:20019   */\n    tag_110:\n        /* \"#utility.yul\":19766:19770   */\n      0x00\n        /* \"#utility.yul\":19804:19806   */\n      0x20\n        /* \"#utility.yul\":19793:19802   */\n      dup3\n        /* \"#utility.yul\":19789:19807   */\n      add\n        /* \"#utility.yul\":19781:19807   */\n      swap1\n      pop\n        /* \"#utility.yul\":19853:19862   */\n      dup2\n        /* \"#utility.yul\":19847:19851   */\n      dup2\n        /* \"#utility.yul\":19843:19863   */\n      sub\n        /* \"#utility.yul\":19839:19840   */\n      0x00\n        /* \"#utility.yul\":19828:19837   */\n      dup4\n        /* \"#utility.yul\":19824:19841   */\n      add\n        /* \"#utility.yul\":19817:19864   */\n      mstore\n        /* \"#utility.yul\":19881:20012   */\n      tag_525\n        /* \"#utility.yul\":20007:20011   */\n      dup2\n        /* \"#utility.yul\":19881:20012   */\n      tag_465\n      jump\t// in\n    tag_525:\n        /* \"#utility.yul\":19873:20012   */\n      swap1\n      pop\n        /* \"#utility.yul\":19600:20019   */\n      swap2\n      swap1\n      pop\n      jump\t// out\n        /* \"#utility.yul\":20025:20444   */\n    tag_171:\n        /* \"#utility.yul\":20191:20195   */\n      0x00\n        /* \"#utility.yul\":20229:20231   */\n      0x20\n        /* \"#utility.yul\":20218:20227   */\n      dup3\n        /* \"#utility.yul\":20214:20232   */\n      add\n        /* \"#utility.yul\":20206:20232   */\n      swap1\n      pop\n        /* \"#utility.yul\":20278:20287   */\n      dup2\n        /* \"#utility.yul\":20272:20276   */\n      dup2\n        /* \"#utility.yul\":20268:20288   */\n      sub\n        /* \"#utility.yul\":20264:20265   */\n      0x00\n        /* \"#utility.yul\":20253:20262   */\n      dup4\n        /* \"#utility.yul\":20249:20266   */\n      add\n        /* \"#utility.yul\":20242:20289   */\n      mstore\n        /* \"#utility.yul\":20306:20437   */\n      tag_527\n        /* \"#utility.yul\":20432:20436   */\n      dup2\n        /* \"#utility.yul\":20306:20437   */\n      tag_470\n      jump\t// in\n    tag_527:\n        /* \"#utility.yul\":20298:20437   */\n      swap1\n      pop\n        /* \"#utility.yul\":20025:20444   */\n      swap2\n      swap1\n      pop\n      jump\t// out\n        /* \"#utility.yul\":20450:20869   */\n    tag_95:\n        /* \"#utility.yul\":20616:20620   */\n      0x00\n        /* \"#utility.yul\":20654:20656   */\n      0x20\n        /* \"#utility.yul\":20643:20652   */\n      dup3\n        /* \"#utility.yul\":20639:20657   */\n      add\n        /* \"#utility.yul\":20631:20657   */\n      swap1\n      pop\n        /* \"#utility.yul\":20703:20712   */\n      dup2\n        /* \"#utility.yul\":20697:20701   */\n      dup2\n        /* \"#utility.yul\":20693:20713   */\n      sub\n        /* \"#utility.yul\":20689:20690   */\n      0x00\n        /* \"#utility.yul\":20678:20687   */\n      dup4\n        /* \"#utility.yul\":20674:20691   */\n      add\n        /* \"#utility.yul\":20667:20714   */\n      mstore\n        /* \"#utility.yul\":20731:20862   */\n      tag_529\n        /* \"#utility.yul\":20857:20861   */\n      dup2\n        /* \"#utility.yul\":20731:20862   */\n      tag_475\n      jump\t// in\n    tag_529:\n        /* \"#utility.yul\":20723:20862   */\n      swap1\n      pop\n        /* \"#utility.yul\":20450:20869   */\n      swap2\n      swap1\n      pop\n      jump\t// out\n        /* \"#utility.yul\":20875:21294   */\n    tag_115:\n        /* \"#utility.yul\":21041:21045   */\n      0x00\n        /* \"#utility.yul\":21079:21081   */\n      0x20\n        /* \"#utility.yul\":21068:21077   */\n      dup3\n        /* \"#utility.yul\":21064:21082   */\n      add\n        /* \"#utility.yul\":21056:21082   */\n      swap1\n      pop\n        /* \"#utility.yul\":21128:21137   */\n      dup2\n        /* \"#utility.yul\":21122:21126   */\n      dup2\n        /* \"#utility.yul\":21118:21138   */\n      sub\n        /* \"#utility.yul\":21114:21115   */\n      0x00\n        /* \"#utility.yul\":21103:21112   */\n      dup4\n        /* \"#utility.yul\":21099:21116   */\n      add\n        /* \"#utility.yul\":21092:21139   */\n      mstore\n        /* \"#utility.yul\":21156:21287   */\n      tag_531\n        /* \"#utility.yul\":21282:21286   */\n      dup2\n        /* \"#utility.yul\":21156:21287   */\n      tag_480\n      jump\t// in\n    tag_531:\n        /* \"#utility.yul\":21148:21287   */\n      swap1\n      pop\n        /* \"#utility.yul\":20875:21294   */\n      swap2\n      swap1\n      pop\n      jump\t// out\n        /* \"#utility.yul\":21300:21719   */\n    tag_132:\n        /* \"#utility.yul\":21466:21470   */\n      0x00\n        /* \"#utility.yul\":21504:21506   */\n      0x20\n        /* \"#utility.yul\":21493:21502   */\n      dup3\n        /* \"#utility.yul\":21489:21507   */\n      add\n        /* \"#utility.yul\":21481:21507   */\n      swap1\n      pop\n        /* \"#utility.yul\":21553:21562   */\n      dup2\n        /* \"#utility.yul\":21547:21551   */\n      dup2\n        /* \"#utility.yul\":21543:21563   */\n      sub\n        /* \"#utility.yul\":21539:21540   */\n      0x00\n        /* \"#utility.yul\":21528:21537   */\n      dup4\n        /* \"#utility.yul\":21524:21541   */\n      add\n        /* \"#utility.yul\":21517:21564   */\n      mstore\n        /* \"#utility.yul\":21581:21712   */\n      tag_533\n        /* \"#utility.yul\":21707:21711   */\n      dup2\n        /* \"#utility.yul\":21581:21712   */\n      tag_485\n      jump\t// in\n    tag_533:\n        /* \"#utility.yul\":21573:21712   */\n      swap1\n      pop\n        /* \"#utility.yul\":21300:21719   */\n      swap2\n      swap1\n      pop\n      jump\t// out\n        /* \"#utility.yul\":21725:21947   */\n    tag_61:\n        /* \"#utility.yul\":21818:21822   */\n      0x00\n        /* \"#utility.yul\":21856:21858   */\n      0x20\n        /* \"#utility.yul\":21845:21854   */\n      dup3\n        /* \"#utility.yul\":21841:21859   */\n      add\n        /* \"#utility.yul\":21833:21859   */\n      swap1\n      pop\n        /* \"#utility.yul\":21869:21940   */\n      tag_535\n        /* \"#utility.yul\":21937:21938   */\n      0x00\n        /* \"#utility.yul\":21926:21935   */\n      dup4\n        /* \"#utility.yul\":21922:21939   */\n      add\n        /* \"#utility.yul\":21913:21919   */\n      dup5\n        /* \"#utility.yul\":21869:21940   */\n      tag_490\n      jump\t// in\n    tag_535:\n        /* \"#utility.yul\":21725:21947   */\n      swap3\n      swap2\n      pop\n      pop\n      jump\t// out\n        /* \"#utility.yul\":21953:23140   */\n    tag_73:\n        /* \"#utility.yul\":22284:22288   */\n      0x00\n        /* \"#utility.yul\":22322:22325   */\n      0x0120\n        /* \"#utility.yul\":22311:22320   */\n      dup3\n        /* \"#utility.yul\":22307:22326   */\n      add\n        /* \"#utility.yul\":22299:22326   */\n      swap1\n      pop\n        /* \"#utility.yul\":22336:22407   */\n      tag_537\n        /* \"#utility.yul\":22404:22405   */\n      0x00\n        /* \"#utility.yul\":22393:22402   */\n      dup4\n        /* \"#utility.yul\":22389:22406   */\n      add\n        /* \"#utility.yul\":22380:22386   */\n      dup13\n        /* \"#utility.yul\":22336:22407   */\n      tag_490\n      jump\t// in\n    tag_537:\n        /* \"#utility.yul\":22417:22489   */\n      tag_538\n        /* \"#utility.yul\":22485:22487   */\n      0x20\n        /* \"#utility.yul\":22474:22483   */\n      dup4\n        /* \"#utility.yul\":22470:22488   */\n      add\n        /* \"#utility.yul\":22461:22467   */\n      dup12\n        /* \"#utility.yul\":22417:22489   */\n      tag_490\n      jump\t// in\n    tag_538:\n        /* \"#utility.yul\":22499:22571   */\n      tag_539\n        /* \"#utility.yul\":22567:22569   */\n      0x40\n        /* \"#utility.yul\":22556:22565   */\n      dup4\n        /* \"#utility.yul\":22552:22570   */\n      add\n        /* \"#utility.yul\":22543:22549   */\n      dup11\n        /* \"#utility.yul\":22499:22571   */\n      tag_490\n      jump\t// in\n    tag_539:\n        /* \"#utility.yul\":22581:22653   */\n      tag_540\n        /* \"#utility.yul\":22649:22651   */\n      0x60\n        /* \"#utility.yul\":22638:22647   */\n      dup4\n        /* \"#utility.yul\":22634:22652   */\n      add\n        /* \"#utility.yul\":22625:22631   */\n      dup10\n        /* \"#utility.yul\":22581:22653   */\n      tag_490\n      jump\t// in\n    tag_540:\n        /* \"#utility.yul\":22663:22736   */\n      tag_541\n        /* \"#utility.yul\":22731:22734   */\n      0x80\n        /* \"#utility.yul\":22720:22729   */\n      dup4\n        /* \"#utility.yul\":22716:22735   */\n      add\n        /* \"#utility.yul\":22707:22713   */\n      dup9\n        /* \"#utility.yul\":22663:22736   */\n      tag_490\n      jump\t// in\n    tag_541:\n        /* \"#utility.yul\":22746:22819   */\n      tag_542\n        /* \"#utility.yul\":22814:22817   */\n      0xa0\n        /* \"#utility.yul\":22803:22812   */\n      dup4\n        /* \"#utility.yul\":22799:22818   */\n      add\n        /* \"#utility.yul\":22790:22796   */\n      dup8\n        /* \"#utility.yul\":22746:22819   */\n      tag_393\n      jump\t// in\n    tag_542:\n        /* \"#utility.yul\":22829:22902   */\n      tag_543\n        /* \"#utility.yul\":22897:22900   */\n      0xc0\n        /* \"#utility.yul\":22886:22895   */\n      dup4\n        /* \"#utility.yul\":22882:22901   */\n      add\n        /* \"#utility.yul\":22873:22879   */\n      dup7\n        /* \"#utility.yul\":22829:22902   */\n      tag_393\n      jump\t// in\n    tag_543:\n        /* \"#utility.yul\":22950:22959   */\n      dup2\n        /* \"#utility.yul\":22944:22948   */\n      dup2\n        /* \"#utility.yul\":22940:22960   */\n      sub\n        /* \"#utility.yul\":22934:22937   */\n      0xe0\n        /* \"#utility.yul\":22923:22932   */\n      dup4\n        /* \"#utility.yul\":22919:22938   */\n      add\n        /* \"#utility.yul\":22912:22961   */\n      mstore\n        /* \"#utility.yul\":22978:23056   */\n      tag_544\n        /* \"#utility.yul\":23051:23055   */\n      dup2\n        /* \"#utility.yul\":23042:23048   */\n      dup6\n        /* \"#utility.yul\":22978:23056   */\n      tag_411\n      jump\t// in\n    tag_544:\n        /* \"#utility.yul\":22970:23056   */\n      swap1\n      pop\n        /* \"#utility.yul\":23066:23133   */\n      tag_545\n        /* \"#utility.yul\":23128:23131   */\n      0x0100\n        /* \"#utility.yul\":23117:23126   */\n      dup4\n        /* \"#utility.yul\":23113:23132   */\n      add\n        /* \"#utility.yul\":23104:23110   */\n      dup5\n        /* \"#utility.yul\":23066:23133   */\n      tag_397\n      jump\t// in\n    tag_545:\n        /* \"#utility.yul\":21953:23140   */\n      swap11\n      swap10\n      pop\n      pop\n      pop\n      pop\n      pop\n      pop\n      pop\n      pop\n      pop\n      pop\n      jump\t// out\n        /* \"#utility.yul\":23146:23275   */\n    tag_289:\n        /* \"#utility.yul\":23180:23186   */\n      0x00\n        /* \"#utility.yul\":23207:23227   */\n      tag_547\n      tag_548\n      jump\t// in\n    tag_547:\n        /* \"#utility.yul\":23197:23227   */\n      swap1\n      pop\n        /* \"#utility.yul\":23236:23269   */\n      tag_549\n        /* \"#utility.yul\":23264:23268   */\n      dup3\n        /* \"#utility.yul\":23256:23262   */\n      dup3\n        /* \"#utility.yul\":23236:23269   */\n      tag_550\n      jump\t// in\n    tag_549:\n        /* \"#utility.yul\":23146:23275   */\n      swap2\n      swap1\n      pop\n      jump\t// out\n        /* \"#utility.yul\":23281:23356   */\n    tag_548:\n        /* \"#utility.yul\":23314:23320   */\n      0x00\n        /* \"#utility.yul\":23347:23349   */\n      0x40\n        /* \"#utility.yul\":23341:23350   */\n      mload\n        /* \"#utility.yul\":23331:23350   */\n      swap1\n      pop\n        /* \"#utility.yul\":23281:23356   */\n      swap1\n      jump\t// out\n        /* \"#utility.yul\":23362:23669   */\n    tag_288:\n        /* \"#utility.yul\":23423:23427   */\n      0x00\n        /* \"#utility.yul\":23513:23531   */\n      0xffffffffffffffff\n        /* \"#utility.yul\":23505:23511   */\n      dup3\n        /* \"#utility.yul\":23502:23532   */\n      gt\n        /* \"#utility.yul\":23499:23555   */\n      iszero\n      tag_553\n      jumpi\n        /* \"#utility.yul\":23535:23553   */\n      tag_554\n      tag_236\n      jump\t// in\n    tag_554:\n        /* \"#utility.yul\":23499:23555   */\n    tag_553:\n        /* \"#utility.yul\":23573:23602   */\n      tag_555\n        /* \"#utility.yul\":23595:23601   */\n      dup3\n        /* \"#utility.yul\":23573:23602   */\n      tag_410\n      jump\t// in\n    tag_555:\n        /* \"#utility.yul\":23565:23602   */\n      swap1\n      pop\n        /* \"#utility.yul\":23657:23661   */\n      0x20\n        /* \"#utility.yul\":23651:23655   */\n      dup2\n        /* \"#utility.yul\":23647:23662   */\n      add\n        /* \"#utility.yul\":23639:23662   */\n      swap1\n      pop\n        /* \"#utility.yul\":23362:23669   */\n      swap2\n      swap1\n      pop\n      jump\t// out\n        /* \"#utility.yul\":23675:23983   */\n    tag_299:\n        /* \"#utility.yul\":23737:23741   */\n      0x00\n        /* \"#utility.yul\":23827:23845   */\n      0xffffffffffffffff\n        /* \"#utility.yul\":23819:23825   */\n      dup3\n        /* \"#utility.yul\":23816:23846   */\n      gt\n        /* \"#utility.yul\":23813:23869   */\n      iszero\n      tag_557\n      jumpi\n        /* \"#utility.yul\":23849:23867   */\n      tag_558\n      tag_236\n      jump\t// in\n    tag_558:\n        /* \"#utility.yul\":23813:23869   */\n    tag_557:\n        /* \"#utility.yul\":23887:23916   */\n      tag_559\n        /* \"#utility.yul\":23909:23915   */\n      dup3\n        /* \"#utility.yul\":23887:23916   */\n      tag_410\n      jump\t// in\n    tag_559:\n        /* \"#utility.yul\":23879:23916   */\n      swap1\n      pop\n        /* \"#utility.yul\":23971:23975   */\n      0x20\n        /* \"#utility.yul\":23965:23969   */\n      dup2\n        /* \"#utility.yul\":23961:23976   */\n      add\n        /* \"#utility.yul\":23953:23976   */\n      swap1\n      pop\n        /* \"#utility.yul\":23675:23983   */\n      swap2\n      swap1\n      pop\n      jump\t// out\n        /* \"#utility.yul\":23989:24087   */\n    tag_404:\n        /* \"#utility.yul\":24040:24046   */\n      0x00\n        /* \"#utility.yul\":24074:24079   */\n      dup2\n        /* \"#utility.yul\":24068:24080   */\n      mload\n        /* \"#utility.yul\":24058:24080   */\n      swap1\n      pop\n        /* \"#utility.yul\":23989:24087   */\n      swap2\n      swap1\n      pop\n      jump\t// out\n        /* \"#utility.yul\":24093:24192   */\n    tag_414:\n        /* \"#utility.yul\":24145:24151   */\n      0x00\n        /* \"#utility.yul\":24179:24184   */\n      dup2\n        /* \"#utility.yul\":24173:24185   */\n      mload\n        /* \"#utility.yul\":24163:24185   */\n      swap1\n      pop\n        /* \"#utility.yul\":24093:24192   */\n      swap2\n      swap1\n      pop\n      jump\t// out\n        /* \"#utility.yul\":24198:24366   */\n    tag_406:\n        /* \"#utility.yul\":24281:24292   */\n      0x00\n        /* \"#utility.yul\":24315:24321   */\n      dup3\n        /* \"#utility.yul\":24310:24313   */\n      dup3\n        /* \"#utility.yul\":24303:24322   */\n      mstore\n        /* \"#utility.yul\":24355:24359   */\n      0x20\n        /* \"#utility.yul\":24350:24353   */\n      dup3\n        /* \"#utility.yul\":24346:24360   */\n      add\n        /* \"#utility.yul\":24331:24360   */\n      swap1\n      pop\n        /* \"#utility.yul\":24198:24366   */\n      swap3\n      swap2\n      pop\n      pop\n      jump\t// out\n        /* \"#utility.yul\":24372:24541   */\n    tag_416:\n        /* \"#utility.yul\":24456:24467   */\n      0x00\n        /* \"#utility.yul\":24490:24496   */\n      dup3\n        /* \"#utility.yul\":24485:24488   */\n      dup3\n        /* \"#utility.yul\":24478:24497   */\n      mstore\n        /* \"#utility.yul\":24530:24534   */\n      0x20\n        /* \"#utility.yul\":24525:24528   */\n      dup3\n        /* \"#utility.yul\":24521:24535   */\n      add\n        /* \"#utility.yul\":24506:24535   */\n      swap1\n      pop\n        /* \"#utility.yul\":24372:24541   */\n      swap3\n      swap2\n      pop\n      pop\n      jump\t// out\n        /* \"#utility.yul\":24547:24695   */\n    tag_423:\n        /* \"#utility.yul\":24649:24660   */\n      0x00\n        /* \"#utility.yul\":24686:24689   */\n      dup2\n        /* \"#utility.yul\":24671:24689   */\n      swap1\n      pop\n        /* \"#utility.yul\":24547:24695   */\n      swap3\n      swap2\n      pop\n      pop\n      jump\t// out\n        /* \"#utility.yul\":24701:25006   */\n    tag_210:\n        /* \"#utility.yul\":24741:24744   */\n      0x00\n        /* \"#utility.yul\":24760:24780   */\n      tag_566\n        /* \"#utility.yul\":24778:24779   */\n      dup3\n        /* \"#utility.yul\":24760:24780   */\n      tag_493\n      jump\t// in\n    tag_566:\n        /* \"#utility.yul\":24755:24780   */\n      swap2\n      pop\n        /* \"#utility.yul\":24794:24814   */\n      tag_567\n        /* \"#utility.yul\":24812:24813   */\n      dup4\n        /* \"#utility.yul\":24794:24814   */\n      tag_493\n      jump\t// in\n    tag_567:\n        /* \"#utility.yul\":24789:24814   */\n      swap3\n      pop\n        /* \"#utility.yul\":24948:24949   */\n      dup3\n        /* \"#utility.yul\":24880:24946   */\n      0xffffffffffffffffffffffffffffffffffffffffffffffffffffffffffffffff\n        /* \"#utility.yul\":24876:24950   */\n      sub\n        /* \"#utility.yul\":24873:24874   */\n      dup3\n        /* \"#utility.yul\":24870:24951   */\n      gt\n        /* \"#utility.yul\":24867:24974   */\n      iszero\n      tag_568\n      jumpi\n        /* \"#utility.yul\":24954:24972   */\n      tag_569\n      tag_570\n      jump\t// in\n    tag_569:\n        /* \"#utility.yul\":24867:24974   */\n    tag_568:\n        /* \"#utility.yul\":24998:24999   */\n      dup3\n        /* \"#utility.yul\":24995:24996   */\n      dup3\n        /* \"#utility.yul\":24991:25000   */\n      add\n        /* \"#utility.yul\":24984:25000   */\n      swap1\n      pop\n        /* \"#utility.yul\":24701:25006   */\n      swap3\n      swap2\n      pop\n      pop\n      jump\t// out\n        /* \"#utility.yul\":25012:25197   */\n    tag_233:\n        /* \"#utility.yul\":25052:25053   */\n      0x00\n        /* \"#utility.yul\":25069:25089   */\n      tag_572\n        /* \"#utility.yul\":25087:25088   */\n      dup3\n        /* \"#utility.yul\":25069:25089   */\n      tag_493\n      jump\t// in\n    tag_572:\n        /* \"#utility.yul\":25064:25089   */\n      swap2\n      pop\n        /* \"#utility.yul\":25103:25123   */\n      tag_573\n        /* \"#utility.yul\":25121:25122   */\n      dup4\n        /* \"#utility.yul\":25103:25123   */\n      tag_493\n      jump\t// in\n    tag_573:\n        /* \"#utility.yul\":25098:25123   */\n      swap3\n      pop\n        /* \"#utility.yul\":25142:25143   */\n      dup3\n        /* \"#utility.yul\":25132:25167   */\n      tag_574\n      jumpi\n        /* \"#utility.yul\":25147:25165   */\n      tag_575\n      tag_576\n      jump\t// in\n    tag_575:\n        /* \"#utility.yul\":25132:25167   */\n    tag_574:\n        /* \"#utility.yul\":25189:25190   */\n      dup3\n        /* \"#utility.yul\":25186:25187   */\n      dup3\n        /* \"#utility.yul\":25182:25191   */\n      div\n        /* \"#utility.yul\":25177:25191   */\n      swap1\n      pop\n        /* \"#utility.yul\":25012:25197   */\n      swap3\n      swap2\n      pop\n      pop\n      jump\t// out\n        /* \"#utility.yul\":25203:25394   */\n    tag_208:\n        /* \"#utility.yul\":25243:25247   */\n      0x00\n        /* \"#utility.yul\":25263:25283   */\n      tag_578\n        /* \"#utility.yul\":25281:25282   */\n      dup3\n        /* \"#utility.yul\":25263:25283   */\n      tag_493\n      jump\t// in\n    tag_578:\n        /* \"#utility.yul\":25258:25283   */\n      swap2\n      pop\n        /* \"#utility.yul\":25297:25317   */\n      tag_579\n        /* \"#utility.yul\":25315:25316   */\n      dup4\n        /* \"#utility.yul\":25297:25317   */\n      tag_493\n      jump\t// in\n    tag_579:\n        /* \"#utility.yul\":25292:25317   */\n      swap3\n      pop\n        /* \"#utility.yul\":25336:25337   */\n      dup3\n        /* \"#utility.yul\":25333:25334   */\n      dup3\n        /* \"#utility.yul\":25330:25338   */\n      lt\n        /* \"#utility.yul\":25327:25361   */\n      iszero\n      tag_580\n      jumpi\n        /* \"#utility.yul\":25341:25359   */\n      tag_581\n      tag_570\n      jump\t// in\n    tag_581:\n        /* \"#utility.yul\":25327:25361   */\n    tag_580:\n        /* \"#utility.yul\":25386:25387   */\n      dup3\n        /* \"#utility.yul\":25383:25384   */\n      dup3\n        /* \"#utility.yul\":25379:25388   */\n      sub\n        /* \"#utility.yul\":25371:25388   */\n      swap1\n      pop\n        /* \"#utility.yul\":25203:25394   */\n      swap3\n      swap2\n      pop\n      pop\n      jump\t// out\n        /* \"#utility.yul\":25400:25496   */\n    tag_396:\n        /* \"#utility.yul\":25437:25444   */\n      0x00\n        /* \"#utility.yul\":25466:25490   */\n      tag_583\n        /* \"#utility.yul\":25484:25489   */\n      dup3\n        /* \"#utility.yul\":25466:25490   */\n      tag_584\n      jump\t// in\n    tag_583:\n        /* \"#utility.yul\":25455:25490   */\n      swap1\n      pop\n        /* \"#utility.yul\":25400:25496   */\n      swap2\n      swap1\n      pop\n      jump\t// out\n        /* \"#utility.yul\":25502:25592   */\n    tag_400:\n        /* \"#utility.yul\":25536:25543   */\n      0x00\n        /* \"#utility.yul\":25579:25584   */\n      dup2\n        /* \"#utility.yul\":25572:25585   */\n      iszero\n        /* \"#utility.yul\":25565:25586   */\n      iszero\n        /* \"#utility.yul\":25554:25586   */\n      swap1\n      pop\n        /* \"#utility.yul\":25502:25592   */\n      swap2\n      swap1\n      pop\n      jump\t// out\n        /* \"#utility.yul\":25598:25747   */\n    tag_586:\n        /* \"#utility.yul\":25634:25641   */\n      0x00\n        /* \"#utility.yul\":25674:25740   */\n      0xffffffff00000000000000000000000000000000000000000000000000000000\n        /* \"#utility.yul\":25667:25672   */\n      dup3\n        /* \"#utility.yul\":25663:25741   */\n      and\n        /* \"#utility.yul\":25652:25741   */\n      swap1\n      pop\n        /* \"#utility.yul\":25598:25747   */\n      swap2\n      swap1\n      pop\n      jump\t// out\n        /* \"#utility.yul\":25753:25879   */\n    tag_584:\n        /* \"#utility.yul\":25790:25797   */\n      0x00\n        /* \"#utility.yul\":25830:25872   */\n      0xffffffffffffffffffffffffffffffffffffffff\n        /* \"#utility.yul\":25823:25828   */\n      dup3\n        /* \"#utility.yul\":25819:25873   */\n      and\n        /* \"#utility.yul\":25808:25873   */\n      swap1\n      pop\n        /* \"#utility.yul\":25753:25879   */\n      swap2\n      swap1\n      pop\n      jump\t// out\n        /* \"#utility.yul\":25885:25962   */\n    tag_493:\n        /* \"#utility.yul\":25922:25929   */\n      0x00\n        /* \"#utility.yul\":25951:25956   */\n      dup2\n        /* \"#utility.yul\":25940:25956   */\n      swap1\n      pop\n        /* \"#utility.yul\":25885:25962   */\n      swap2\n      swap1\n      pop\n      jump\t// out\n        /* \"#utility.yul\":25968:26122   */\n    tag_294:\n        /* \"#utility.yul\":26052:26058   */\n      dup3\n        /* \"#utility.yul\":26047:26050   */\n      dup2\n        /* \"#utility.yul\":26042:26045   */\n      dup4\n        /* \"#utility.yul\":26029:26059   */\n      calldatacopy\n        /* \"#utility.yul\":26114:26115   */\n      0x00\n        /* \"#utility.yul\":26105:26111   */\n      dup4\n        /* \"#utility.yul\":26100:26103   */\n      dup4\n        /* \"#utility.yul\":26096:26112   */\n      add\n        /* \"#utility.yul\":26089:26116   */\n      mstore\n        /* \"#utility.yul\":25968:26122   */\n      pop\n      pop\n      pop\n      jump\t// out\n        /* \"#utility.yul\":26128:26435   */\n    tag_408:\n        /* \"#utility.yul\":26196:26197   */\n      0x00\n        /* \"#utility.yul\":26206:26319   */\n    tag_592:\n        /* \"#utility.yul\":26220:26226   */\n      dup4\n        /* \"#utility.yul\":26217:26218   */\n      dup2\n        /* \"#utility.yul\":26214:26227   */\n      lt\n        /* \"#utility.yul\":26206:26319   */\n      iszero\n      tag_594\n      jumpi\n        /* \"#utility.yul\":26305:26306   */\n      dup1\n        /* \"#utility.yul\":26300:26303   */\n      dup3\n        /* \"#utility.yul\":26296:26307   */\n      add\n        /* \"#utility.yul\":26290:26308   */\n      mload\n        /* \"#utility.yul\":26286:26287   */\n      dup2\n        /* \"#utility.yul\":26281:26284   */\n      dup5\n        /* \"#utility.yul\":26277:26288   */\n      add\n        /* \"#utility.yul\":26270:26309   */\n      mstore\n        /* \"#utility.yul\":26242:26244   */\n      0x20\n        /* \"#utility.yul\":26239:26240   */\n      dup2\n        /* \"#utility.yul\":26235:26245   */\n      add\n        /* \"#utility.yul\":26230:26245   */\n      swap1\n      pop\n        /* \"#utility.yul\":26206:26319   */\n      jump(tag_592)\n    tag_594:\n        /* \"#utility.yul\":26337:26343   */\n      dup4\n        /* \"#utility.yul\":26334:26335   */\n      dup2\n        /* \"#utility.yul\":26331:26344   */\n      gt\n        /* \"#utility.yul\":26328:26429   */\n      iszero\n      tag_595\n      jumpi\n        /* \"#utility.yul\":26417:26418   */\n      0x00\n        /* \"#utility.yul\":26408:26414   */\n      dup5\n        /* \"#utility.yul\":26403:26406   */\n      dup5\n        /* \"#utility.yul\":26399:26415   */\n      add\n        /* \"#utility.yul\":26392:26419   */\n      mstore\n        /* \"#utility.yul\":26328:26429   */\n    tag_595:\n        /* \"#utility.yul\":26177:26435   */\n      pop\n        /* \"#utility.yul\":26128:26435   */\n      pop\n      pop\n      pop\n      jump\t// out\n        /* \"#utility.yul\":26441:26761   */\n    tag_100:\n        /* \"#utility.yul\":26485:26491   */\n      0x00\n        /* \"#utility.yul\":26522:26523   */\n      0x02\n        /* \"#utility.yul\":26516:26520   */\n      dup3\n        /* \"#utility.yul\":26512:26524   */\n      div\n        /* \"#utility.yul\":26502:26524   */\n      swap1\n      pop\n        /* \"#utility.yul\":26569:26570   */\n      0x01\n        /* \"#utility.yul\":26563:26567   */\n      dup3\n        /* \"#utility.yul\":26559:26571   */\n      and\n        /* \"#utility.yul\":26590:26608   */\n      dup1\n        /* \"#utility.yul\":26580:26661   */\n      tag_597\n      jumpi\n        /* \"#utility.yul\":26646:26650   */\n      0x7f\n        /* \"#utility.yul\":26638:26644   */\n      dup3\n        /* \"#utility.yul\":26634:26651   */\n      and\n        /* \"#utility.yul\":26624:26651   */\n      swap2\n      pop\n        /* \"#utility.yul\":26580:26661   */\n    tag_597:\n        /* \"#utility.yul\":26708:26710   */\n      0x20\n        /* \"#utility.yul\":26700:26706   */\n      dup3\n        /* \"#utility.yul\":26697:26711   */\n      lt\n        /* \"#utility.yul\":26677:26695   */\n      dup2\n        /* \"#utility.yul\":26674:26712   */\n      eq\n        /* \"#utility.yul\":26671:26755   */\n      iszero\n      tag_598\n      jumpi\n        /* \"#utility.yul\":26727:26745   */\n      tag_599\n      tag_600\n      jump\t// in\n    tag_599:\n        /* \"#utility.yul\":26671:26755   */\n    tag_598:\n        /* \"#utility.yul\":26492:26761   */\n      pop\n        /* \"#utility.yul\":26441:26761   */\n      swap2\n      swap1\n      pop\n      jump\t// out\n        /* \"#utility.yul\":26767:27048   */\n    tag_550:\n        /* \"#utility.yul\":26850:26877   */\n      tag_602\n        /* \"#utility.yul\":26872:26876   */\n      dup3\n        /* \"#utility.yul\":26850:26877   */\n      tag_410\n      jump\t// in\n    tag_602:\n        /* \"#utility.yul\":26842:26848   */\n      dup2\n        /* \"#utility.yul\":26838:26878   */\n      add\n        /* \"#utility.yul\":26980:26986   */\n      dup2\n        /* \"#utility.yul\":26968:26978   */\n      dup2\n        /* \"#utility.yul\":26965:26987   */\n      lt\n        /* \"#utility.yul\":26944:26962   */\n      0xffffffffffffffff\n        /* \"#utility.yul\":26932:26942   */\n      dup3\n        /* \"#utility.yul\":26929:26963   */\n      gt\n        /* \"#utility.yul\":26926:26988   */\n      or\n        /* \"#utility.yul\":26923:27011   */\n      iszero\n      tag_603\n      jumpi\n        /* \"#utility.yul\":26991:27009   */\n      tag_604\n      tag_236\n      jump\t// in\n    tag_604:\n        /* \"#utility.yul\":26923:27011   */\n    tag_603:\n        /* \"#utility.yul\":27031:27041   */\n      dup1\n        /* \"#utility.yul\":27027:27029   */\n      0x40\n        /* \"#utility.yul\":27020:27042   */\n      mstore\n        /* \"#utility.yul\":26810:27048   */\n      pop\n        /* \"#utility.yul\":26767:27048   */\n      pop\n      pop\n      jump\t// out\n        /* \"#utility.yul\":27054:27287   */\n    tag_231:\n        /* \"#utility.yul\":27093:27096   */\n      0x00\n        /* \"#utility.yul\":27116:27140   */\n      tag_606\n        /* \"#utility.yul\":27134:27139   */\n      dup3\n        /* \"#utility.yul\":27116:27140   */\n      tag_493\n      jump\t// in\n    tag_606:\n        /* \"#utility.yul\":27107:27140   */\n      swap2\n      pop\n        /* \"#utility.yul\":27162:27228   */\n      0xffffffffffffffffffffffffffffffffffffffffffffffffffffffffffffffff\n        /* \"#utility.yul\":27155:27160   */\n      dup3\n        /* \"#utility.yul\":27152:27229   */\n      eq\n        /* \"#utility.yul\":27149:27252   */\n      iszero\n      tag_607\n      jumpi\n        /* \"#utility.yul\":27232:27250   */\n      tag_608\n      tag_570\n      jump\t// in\n    tag_608:\n        /* \"#utility.yul\":27149:27252   */\n    tag_607:\n        /* \"#utility.yul\":27279:27280   */\n      0x01\n        /* \"#utility.yul\":27272:27277   */\n      dup3\n        /* \"#utility.yul\":27268:27281   */\n      add\n        /* \"#utility.yul\":27261:27281   */\n      swap1\n      pop\n        /* \"#utility.yul\":27054:27287   */\n      swap2\n      swap1\n      pop\n      jump\t// out\n        /* \"#utility.yul\":27293:27469   */\n    tag_242:\n        /* \"#utility.yul\":27325:27326   */\n      0x00\n        /* \"#utility.yul\":27342:27362   */\n      tag_610\n        /* \"#utility.yul\":27360:27361   */\n      dup3\n        /* \"#utility.yul\":27342:27362   */\n      tag_493\n      jump\t// in\n    tag_610:\n        /* \"#utility.yul\":27337:27362   */\n      swap2\n      pop\n        /* \"#utility.yul\":27376:27396   */\n      tag_611\n        /* \"#utility.yul\":27394:27395   */\n      dup4\n        /* \"#utility.yul\":27376:27396   */\n      tag_493\n      jump\t// in\n    tag_611:\n        /* \"#utility.yul\":27371:27396   */\n      swap3\n      pop\n        /* \"#utility.yul\":27415:27416   */\n      dup3\n        /* \"#utility.yul\":27405:27440   */\n      tag_612\n      jumpi\n        /* \"#utility.yul\":27420:27438   */\n      tag_613\n      tag_576\n      jump\t// in\n    tag_613:\n        /* \"#utility.yul\":27405:27440   */\n    tag_612:\n        /* \"#utility.yul\":27461:27462   */\n      dup3\n        /* \"#utility.yul\":27458:27459   */\n      dup3\n        /* \"#utility.yul\":27454:27463   */\n      mod\n        /* \"#utility.yul\":27449:27463   */\n      swap1\n      pop\n        /* \"#utility.yul\":27293:27469   */\n      swap3\n      swap2\n      pop\n      pop\n      jump\t// out\n        /* \"#utility.yul\":27475:27655   */\n    tag_570:\n        /* \"#utility.yul\":27523:27600   */\n      0x4e487b7100000000000000000000000000000000000000000000000000000000\n        /* \"#utility.yul\":27520:27521   */\n      0x00\n        /* \"#utility.yul\":27513:27601   */\n      mstore\n        /* \"#utility.yul\":27620:27624   */\n      0x11\n        /* \"#utility.yul\":27617:27618   */\n      0x04\n        /* \"#utility.yul\":27610:27625   */\n      mstore\n        /* \"#utility.yul\":27644:27648   */\n      0x24\n        /* \"#utility.yul\":27641:27642   */\n      0x00\n        /* \"#utility.yul\":27634:27649   */\n      revert\n        /* \"#utility.yul\":27661:27841   */\n    tag_576:\n        /* \"#utility.yul\":27709:27786   */\n      0x4e487b7100000000000000000000000000000000000000000000000000000000\n        /* \"#utility.yul\":27706:27707   */\n      0x00\n        /* \"#utility.yul\":27699:27787   */\n      mstore\n        /* \"#utility.yul\":27806:27810   */\n      0x12\n        /* \"#utility.yul\":27803:27804   */\n      0x04\n        /* \"#utility.yul\":27796:27811   */\n      mstore\n        /* \"#utility.yul\":27830:27834   */\n      0x24\n        /* \"#utility.yul\":27827:27828   */\n      0x00\n        /* \"#utility.yul\":27820:27835   */\n      revert\n        /* \"#utility.yul\":27847:28027   */\n    tag_600:\n        /* \"#utility.yul\":27895:27972   */\n      0x4e487b7100000000000000000000000000000000000000000000000000000000\n        /* \"#utility.yul\":27892:27893   */\n      0x00\n        /* \"#utility.yul\":27885:27973   */\n      mstore\n        /* \"#utility.yul\":27992:27996   */\n      0x22\n        /* \"#utility.yul\":27989:27990   */\n      0x04\n        /* \"#utility.yul\":27982:27997   */\n      mstore\n        /* \"#utility.yul\":28016:28020   */\n      0x24\n        /* \"#utility.yul\":28013:28014   */\n      0x00\n        /* \"#utility.yul\":28006:28021   */\n      revert\n        /* \"#utility.yul\":28033:28213   */\n    tag_246:\n        /* \"#utility.yul\":28081:28158   */\n      0x4e487b7100000000000000000000000000000000000000000000000000000000\n        /* \"#utility.yul\":28078:28079   */\n      0x00\n        /* \"#utility.yul\":28071:28159   */\n      mstore\n        /* \"#utility.yul\":28178:28182   */\n      0x32\n        /* \"#utility.yul\":28175:28176   */\n      0x04\n        /* \"#utility.yul\":28168:28183   */\n      mstore\n        /* \"#utility.yul\":28202:28206   */\n      0x24\n        /* \"#utility.yul\":28199:28200   */\n      0x00\n        /* \"#utility.yul\":28192:28207   */\n      revert\n        /* \"#utility.yul\":28219:28399   */\n    tag_236:\n        /* \"#utility.yul\":28267:28344   */\n      0x4e487b7100000000000000000000000000000000000000000000000000000000\n        /* \"#utility.yul\":28264:28265   */\n      0x00\n        /* \"#utility.yul\":28257:28345   */\n      mstore\n        /* \"#utility.yul\":28364:28368   */\n      0x41\n        /* \"#utility.yul\":28361:28362   */\n      0x04\n        /* \"#utility.yul\":28354:28369   */\n      mstore\n        /* \"#utility.yul\":28388:28392   */\n      0x24\n        /* \"#utility.yul\":28385:28386   */\n      0x00\n        /* \"#utility.yul\":28378:28393   */\n      revert\n        /* \"#utility.yul\":28405:28522   */\n    tag_322:\n        /* \"#utility.yul\":28514:28515   */\n      0x00\n        /* \"#utility.yul\":28511:28512   */\n      dup1\n        /* \"#utility.yul\":28504:28516   */\n      revert\n        /* \"#utility.yul\":28528:28645   */\n    tag_292:\n        /* \"#utility.yul\":28637:28638   */\n      0x00\n        /* \"#utility.yul\":28634:28635   */\n      dup1\n        /* \"#utility.yul\":28627:28639   */\n      revert\n        /* \"#utility.yul\":28651:28768   */\n    tag_357:\n        /* \"#utility.yul\":28760:28761   */\n      0x00\n        /* \"#utility.yul\":28757:28758   */\n      dup1\n        /* \"#utility.yul\":28750:28762   */\n      revert\n        /* \"#utility.yul\":28774:28891   */\n    tag_336:\n        /* \"#utility.yul\":28883:28884   */\n      0x00\n        /* \"#utility.yul\":28880:28881   */\n      dup1\n        /* \"#utility.yul\":28873:28885   */\n      revert\n        /* \"#utility.yul\":28897:28999   */\n    tag_410:\n        /* \"#utility.yul\":28938:28944   */\n      0x00\n        /* \"#utility.yul\":28989:28991   */\n      0x1f\n        /* \"#utility.yul\":28985:28992   */\n      not\n        /* \"#utility.yul\":28980:28982   */\n      0x1f\n        /* \"#utility.yul\":28973:28978   */\n      dup4\n        /* \"#utility.yul\":28969:28983   */\n      add\n        /* \"#utility.yul\":28965:28993   */\n      and\n        /* \"#utility.yul\":28955:28993   */\n      swap1\n      pop\n        /* \"#utility.yul\":28897:28999   */\n      swap2\n      swap1\n      pop\n      jump\t// out\n        /* \"#utility.yul\":29005:29242   */\n    tag_429:\n        /* \"#utility.yul\":29145:29179   */\n      0x4552433732313a207472616e7366657220746f206e6f6e204552433732315265\n        /* \"#utility.yul\":29141:29142   */\n      0x00\n        /* \"#utility.yul\":29133:29139   */\n      dup3\n        /* \"#utility.yul\":29129:29143   */\n      add\n        /* \"#utility.yul\":29122:29180   */\n      mstore\n        /* \"#utility.yul\":29214:29234   */\n      0x63656976657220696d706c656d656e7465720000000000000000000000000000\n        /* \"#utility.yul\":29209:29211   */\n      0x20\n        /* \"#utility.yul\":29201:29207   */\n      dup3\n        /* \"#utility.yul\":29197:29212   */\n      add\n        /* \"#utility.yul\":29190:29235   */\n      mstore\n        /* \"#utility.yul\":29005:29242   */\n      pop\n      jump\t// out\n        /* \"#utility.yul\":29248:29472   */\n    tag_434:\n        /* \"#utility.yul\":29388:29422   */\n      0x4552433732313a207472616e736665722066726f6d20696e636f727265637420\n        /* \"#utility.yul\":29384:29385   */\n      0x00\n        /* \"#utility.yul\":29376:29382   */\n      dup3\n        /* \"#utility.yul\":29372:29386   */\n      add\n        /* \"#utility.yul\":29365:29423   */\n      mstore\n        /* \"#utility.yul\":29457:29464   */\n      0x6f776e6572000000000000000000000000000000000000000000000000000000\n        /* \"#utility.yul\":29452:29454   */\n      0x20\n        /* \"#utility.yul\":29444:29450   */\n      dup3\n        /* \"#utility.yul\":29440:29455   */\n      add\n        /* \"#utility.yul\":29433:29465   */\n      mstore\n        /* \"#utility.yul\":29248:29472   */\n      pop\n      jump\t// out\n        /* \"#utility.yul\":29478:29701   */\n    tag_439:\n        /* \"#utility.yul\":29618:29652   */\n      0x4552433732313a207472616e7366657220746f20746865207a65726f20616464\n        /* \"#utility.yul\":29614:29615   */\n      0x00\n        /* \"#utility.yul\":29606:29612   */\n      dup3\n        /* \"#utility.yul\":29602:29616   */\n      add\n        /* \"#utility.yul\":29595:29653   */\n      mstore\n        /* \"#utility.yul\":29687:29693   */\n      0x7265737300000000000000000000000000000000000000000000000000000000\n        /* \"#utility.yul\":29682:29684   */\n      0x20\n        /* \"#utility.yul\":29674:29680   */\n      dup3\n        /* \"#utility.yul\":29670:29685   */\n      add\n        /* \"#utility.yul\":29663:29694   */\n      mstore\n        /* \"#utility.yul\":29478:29701   */\n      pop\n      jump\t// out\n        /* \"#utility.yul\":29707:29882   */\n    tag_444:\n        /* \"#utility.yul\":29847:29874   */\n      0x4552433732313a20617070726f766520746f2063616c6c657200000000000000\n        /* \"#utility.yul\":29843:29844   */\n      0x00\n        /* \"#utility.yul\":29835:29841   */\n      dup3\n        /* \"#utility.yul\":29831:29845   */\n      add\n        /* \"#utility.yul\":29824:29875   */\n      mstore\n        /* \"#utility.yul\":29707:29882   */\n      pop\n      jump\t// out\n        /* \"#utility.yul\":29888:30119   */\n    tag_449:\n        /* \"#utility.yul\":30028:30062   */\n      0x4552433732313a206f70657261746f7220717565727920666f72206e6f6e6578\n        /* \"#utility.yul\":30024:30025   */\n      0x00\n        /* \"#utility.yul\":30016:30022   */\n      dup3\n        /* \"#utility.yul\":30012:30026   */\n      add\n        /* \"#utility.yul\":30005:30063   */\n      mstore\n        /* \"#utility.yul\":30097:30111   */\n      0x697374656e7420746f6b656e0000000000000000000000000000000000000000\n        /* \"#utility.yul\":30092:30094   */\n      0x20\n        /* \"#utility.yul\":30084:30090   */\n      dup3\n        /* \"#utility.yul\":30080:30095   */\n      add\n        /* \"#utility.yul\":30073:30112   */\n      mstore\n        /* \"#utility.yul\":29888:30119   */\n      pop\n      jump\t// out\n        /* \"#utility.yul\":30125:30353   */\n    tag_454:\n        /* \"#utility.yul\":30265:30299   */\n      0x4552433732313a2061646472657373207a65726f206973206e6f742061207661\n        /* \"#utility.yul\":30261:30262   */\n      0x00\n        /* \"#utility.yul\":30253:30259   */\n      dup3\n        /* \"#utility.yul\":30249:30263   */\n      add\n        /* \"#utility.yul\":30242:30300   */\n      mstore\n        /* \"#utility.yul\":30334:30345   */\n      0x6c6964206f776e65720000000000000000000000000000000000000000000000\n        /* \"#utility.yul\":30329:30331   */\n      0x20\n        /* \"#utility.yul\":30321:30327   */\n      dup3\n        /* \"#utility.yul\":30317:30332   */\n      add\n        /* \"#utility.yul\":30310:30346   */\n      mstore\n        /* \"#utility.yul\":30125:30353   */\n      pop\n      jump\t// out\n        /* \"#utility.yul\":30359:30602   */\n    tag_459:\n        /* \"#utility.yul\":30499:30533   */\n      0x4552433732313a20617070726f76652063616c6c6572206973206e6f74206f77\n        /* \"#utility.yul\":30495:30496   */\n      0x00\n        /* \"#utility.yul\":30487:30493   */\n      dup3\n        /* \"#utility.yul\":30483:30497   */\n      add\n        /* \"#utility.yul\":30476:30534   */\n      mstore\n        /* \"#utility.yul\":30568:30594   */\n      0x6e6572206e6f7220617070726f76656420666f7220616c6c0000000000000000\n        /* \"#utility.yul\":30563:30565   */\n      0x20\n        /* \"#utility.yul\":30555:30561   */\n      dup3\n        /* \"#utility.yul\":30551:30566   */\n      add\n        /* \"#utility.yul\":30544:30595   */\n      mstore\n        /* \"#utility.yul\":30359:30602   */\n      pop\n      jump\t// out\n        /* \"#utility.yul\":30608:30836   */\n    tag_464:\n        /* \"#utility.yul\":30748:30782   */\n      0x4552433732313a206f776e657220717565727920666f72206e6f6e6578697374\n        /* \"#utility.yul\":30744:30745   */\n      0x00\n        /* \"#utility.yul\":30736:30742   */\n      dup3\n        /* \"#utility.yul\":30732:30746   */\n      add\n        /* \"#utility.yul\":30725:30783   */\n      mstore\n        /* \"#utility.yul\":30817:30828   */\n      0x656e7420746f6b656e0000000000000000000000000000000000000000000000\n        /* \"#utility.yul\":30812:30814   */\n      0x20\n        /* \"#utility.yul\":30804:30810   */\n      dup3\n        /* \"#utility.yul\":30800:30815   */\n      add\n        /* \"#utility.yul\":30793:30829   */\n      mstore\n        /* \"#utility.yul\":30608:30836   */\n      pop\n      jump\t// out\n        /* \"#utility.yul\":30842:31073   */\n    tag_469:\n        /* \"#utility.yul\":30982:31016   */\n      0x4552433732313a20617070726f76656420717565727920666f72206e6f6e6578\n        /* \"#utility.yul\":30978:30979   */\n      0x00\n        /* \"#utility.yul\":30970:30976   */\n      dup3\n        /* \"#utility.yul\":30966:30980   */\n      add\n        /* \"#utility.yul\":30959:31017   */\n      mstore\n        /* \"#utility.yul\":31051:31065   */\n      0x697374656e7420746f6b656e0000000000000000000000000000000000000000\n        /* \"#utility.yul\":31046:31048   */\n      0x20\n        /* \"#utility.yul\":31038:31044   */\n      dup3\n        /* \"#utility.yul\":31034:31049   */\n      add\n        /* \"#utility.yul\":31027:31066   */\n      mstore\n        /* \"#utility.yul\":30842:31073   */\n      pop\n      jump\t// out\n        /* \"#utility.yul\":31079:31313   */\n    tag_474:\n        /* \"#utility.yul\":31219:31253   */\n      0x4552433732314d657461646174613a2055524920717565727920666f72206e6f\n        /* \"#utility.yul\":31215:31216   */\n      0x00\n        /* \"#utility.yul\":31207:31213   */\n      dup3\n        /* \"#utility.yul\":31203:31217   */\n      add\n        /* \"#utility.yul\":31196:31254   */\n      mstore\n        /* \"#utility.yul\":31288:31305   */\n      0x6e6578697374656e7420746f6b656e0000000000000000000000000000000000\n        /* \"#utility.yul\":31283:31285   */\n      0x20\n        /* \"#utility.yul\":31275:31281   */\n      dup3\n        /* \"#utility.yul\":31271:31286   */\n      add\n        /* \"#utility.yul\":31264:31306   */\n      mstore\n        /* \"#utility.yul\":31079:31313   */\n      pop\n      jump\t// out\n        /* \"#utility.yul\":31319:31496   */\n    tag_479:\n        /* \"#utility.yul\":31459:31488   */\n      0x7468697320686f757365496420616c7265616479206578697374730000000000\n        /* \"#utility.yul\":31455:31456   */\n      0x00\n        /* \"#utility.yul\":31447:31453   */\n      dup3\n        /* \"#utility.yul\":31443:31457   */\n      add\n        /* \"#utility.yul\":31436:31489   */\n      mstore\n        /* \"#utility.yul\":31319:31496   */\n      pop\n      jump\t// out\n        /* \"#utility.yul\":31502:31722   */\n    tag_484:\n        /* \"#utility.yul\":31642:31676   */\n      0x4552433732313a20617070726f76616c20746f2063757272656e74206f776e65\n        /* \"#utility.yul\":31638:31639   */\n      0x00\n        /* \"#utility.yul\":31630:31636   */\n      dup3\n        /* \"#utility.yul\":31626:31640   */\n      add\n        /* \"#utility.yul\":31619:31677   */\n      mstore\n        /* \"#utility.yul\":31711:31714   */\n      0x7200000000000000000000000000000000000000000000000000000000000000\n        /* \"#utility.yul\":31706:31708   */\n      0x20\n        /* \"#utility.yul\":31698:31704   */\n      dup3\n        /* \"#utility.yul\":31694:31709   */\n      add\n        /* \"#utility.yul\":31687:31715   */\n      mstore\n        /* \"#utility.yul\":31502:31722   */\n      pop\n      jump\t// out\n        /* \"#utility.yul\":31728:31964   */\n    tag_489:\n        /* \"#utility.yul\":31868:31902   */\n      0x4552433732313a207472616e736665722063616c6c6572206973206e6f74206f\n        /* \"#utility.yul\":31864:31865   */\n      0x00\n        /* \"#utility.yul\":31856:31862   */\n      dup3\n        /* \"#utility.yul\":31852:31866   */\n      add\n        /* \"#utility.yul\":31845:31903   */\n      mstore\n        /* \"#utility.yul\":31937:31956   */\n      0x776e6572206e6f7220617070726f766564000000000000000000000000000000\n        /* \"#utility.yul\":31932:31934   */\n      0x20\n        /* \"#utility.yul\":31924:31930   */\n      dup3\n        /* \"#utility.yul\":31920:31935   */\n      add\n        /* \"#utility.yul\":31913:31957   */\n      mstore\n        /* \"#utility.yul\":31728:31964   */\n      pop\n      jump\t// out\n        /* \"#utility.yul\":31970:32092   */\n    tag_306:\n        /* \"#utility.yul\":32043:32067   */\n      tag_638\n        /* \"#utility.yul\":32061:32066   */\n      dup2\n        /* \"#utility.yul\":32043:32067   */\n      tag_396\n      jump\t// in\n    tag_638:\n        /* \"#utility.yul\":32036:32041   */\n      dup2\n        /* \"#utility.yul\":32033:32068   */\n      eq\n        /* \"#utility.yul\":32023:32086   */\n      tag_639\n      jumpi\n        /* \"#utility.yul\":32082:32083   */\n      0x00\n        /* \"#utility.yul\":32079:32080   */\n      dup1\n        /* \"#utility.yul\":32072:32084   */\n      revert\n        /* \"#utility.yul\":32023:32086   */\n    tag_639:\n        /* \"#utility.yul\":31970:32092   */\n      pop\n      jump\t// out\n        /* \"#utility.yul\":32098:32214   */\n    tag_310:\n        /* \"#utility.yul\":32168:32189   */\n      tag_641\n        /* \"#utility.yul\":32183:32188   */\n      dup2\n        /* \"#utility.yul\":32168:32189   */\n      tag_400\n      jump\t// in\n    tag_641:\n        /* \"#utility.yul\":32161:32166   */\n      dup2\n        /* \"#utility.yul\":32158:32190   */\n      eq\n        /* \"#utility.yul\":32148:32208   */\n      tag_642\n      jumpi\n        /* \"#utility.yul\":32204:32205   */\n      0x00\n        /* \"#utility.yul\":32201:32202   */\n      dup1\n        /* \"#utility.yul\":32194:32206   */\n      revert\n        /* \"#utility.yul\":32148:32208   */\n    tag_642:\n        /* \"#utility.yul\":32098:32214   */\n      pop\n      jump\t// out\n        /* \"#utility.yul\":32220:32340   */\n    tag_314:\n        /* \"#utility.yul\":32292:32315   */\n      tag_644\n        /* \"#utility.yul\":32309:32314   */\n      dup2\n        /* \"#utility.yul\":32292:32315   */\n      tag_586\n      jump\t// in\n    tag_644:\n        /* \"#utility.yul\":32285:32290   */\n      dup2\n        /* \"#utility.yul\":32282:32316   */\n      eq\n        /* \"#utility.yul\":32272:32334   */\n      tag_645\n      jumpi\n        /* \"#utility.yul\":32330:32331   */\n      0x00\n        /* \"#utility.yul\":32327:32328   */\n      dup1\n        /* \"#utility.yul\":32320:32332   */\n      revert\n        /* \"#utility.yul\":32272:32334   */\n    tag_645:\n        /* \"#utility.yul\":32220:32340   */\n      pop\n      jump\t// out\n        /* \"#utility.yul\":32346:32468   */\n    tag_332:\n        /* \"#utility.yul\":32419:32443   */\n      tag_647\n        /* \"#utility.yul\":32437:32442   */\n      dup2\n        /* \"#utility.yul\":32419:32443   */\n      tag_493\n      jump\t// in\n    tag_647:\n        /* \"#utility.yul\":32412:32417   */\n      dup2\n        /* \"#utility.yul\":32409:32444   */\n      eq\n        /* \"#utility.yul\":32399:32462   */\n      tag_648\n      jumpi\n        /* \"#utility.yul\":32458:32459   */\n      0x00\n        /* \"#utility.yul\":32455:32456   */\n      dup1\n        /* \"#utility.yul\":32448:32460   */\n      revert\n        /* \"#utility.yul\":32399:32462   */\n    tag_648:\n        /* \"#utility.yul\":32346:32468   */\n      pop\n      jump\t// out\n\n    auxdata: 0xa2646970667358221220873073abb226eae72afcbc767cfe50cb34fa1d78c7b6bad0ce2ea965e4bca32864736f6c63430008070033\n}\n",
				"bytecode": {
					"linkReferences": {},
					"object": "60806040523480156200001157600080fd5b5060405162002e2a38038062002e2a83398181016040528101906200003791906200019f565b81600090805190602001906200004f92919062000071565b5080600190805190602001906200006892919062000071565b505050620003a8565b8280546200007f90620002b9565b90600052602060002090601f016020900481019282620000a35760008555620000ef565b82601f10620000be57805160ff1916838001178555620000ef565b82800160010185558215620000ef579182015b82811115620000ee578251825591602001919060010190620000d1565b5b509050620000fe919062000102565b5090565b5b808211156200011d57600081600090555060010162000103565b5090565b60006200013862000132846200024d565b62000224565b90508281526020810184848401111562000157576200015662000388565b5b6200016484828562000283565b509392505050565b600082601f83011262000184576200018362000383565b5b81516200019684826020860162000121565b91505092915050565b60008060408385031215620001b957620001b862000392565b5b600083015167ffffffffffffffff811115620001da57620001d96200038d565b5b620001e8858286016200016c565b925050602083015167ffffffffffffffff8111156200020c576200020b6200038d565b5b6200021a858286016200016c565b9150509250929050565b60006200023062000243565b90506200023e8282620002ef565b919050565b6000604051905090565b600067ffffffffffffffff8211156200026b576200026a62000354565b5b620002768262000397565b9050602081019050919050565b60005b83811015620002a357808201518184015260208101905062000286565b83811115620002b3576000848401525b50505050565b60006002820490506001821680620002d257607f821691505b60208210811415620002e957620002e862000325565b5b50919050565b620002fa8262000397565b810181811067ffffffffffffffff821117156200031c576200031b62000354565b5b80604052505050565b7f4e487b7100000000000000000000000000000000000000000000000000000000600052602260045260246000fd5b7f4e487b7100000000000000000000000000000000000000000000000000000000600052604160045260246000fd5b600080fd5b600080fd5b600080fd5b600080fd5b6000601f19601f8301169050919050565b612a7280620003b86000396000f3fe608060405234801561001057600080fd5b50600436106100f55760003560e01c80636352211e11610097578063aeda852f11610066578063aeda852f14610282578063b88d4fde146102ba578063c87b56dd146102d6578063e985e9c514610306576100f5565b80636352211e146101e857806370a082311461021857806395d89b4114610248578063a22cb46514610266576100f5565b8063081812fc116100d3578063081812fc14610164578063095ea7b31461019457806323b872dd146101b057806342842e0e146101cc576100f5565b806301ffc9a7146100fa5780630548fa4f1461012a57806306fdde0314610146575b600080fd5b610114600480360381019061010f9190611b0e565b610336565b6040516101219190611f75565b60405180910390f35b610144600480360381019061013f9190611b95565b610418565b005b61014e6105fd565b60405161015b9190611f90565b60405180910390f35b61017e60048036038101906101799190611b68565b61068f565b60405161018b9190611f0e565b60405180910390f35b6101ae60048036038101906101a99190611ace565b610714565b005b6101ca60048036038101906101c591906119b8565b61082c565b005b6101e660048036038101906101e191906119b8565b61088c565b005b61020260048036038101906101fd9190611b68565b6108ac565b60405161020f9190611f0e565b60405180910390f35b610232600480360381019061022d919061194b565b61095e565b60405161023f9190612152565b60405180910390f35b610250610a16565b60405161025d9190611f90565b60405180910390f35b610280600480360381019061027b9190611a8e565b610aa8565b005b61029c60048036038101906102979190611b68565b610abe565b6040516102b19998979695949392919061216d565b60405180910390f35b6102d460048036038101906102cf9190611a0b565b610be1565b005b6102f060048036038101906102eb9190611b68565b610c43565b6040516102fd9190611f90565b60405180910390f35b610320600480360381019061031b9190611978565b610cea565b60405161032d9190611f75565b60405180910390f35b60007f80ac58cd000000000000000000000000000000000000000000000000000000007bffffffffffffffffffffffffffffffffffffffffffffffffffffffff1916827bffffffffffffffffffffffffffffffffffffffffffffffffffffffff1916148061040157507f5b5e139f000000000000000000000000000000000000000000000000000000007bffffffffffffffffffffffffffffffffffffffffffffffffffffffff1916827bffffffffffffffffffffffffffffffffffffffffffffffffffffffff1916145b80610411575061041082610d7e565b5b9050919050565b6006600088815260200190815260200160002060000154871415610471576040517f08c379a0000000000000000000000000000000000000000000000000000000008152600401610468906120f2565b60405180910390fd5b6040518061012001604052808881526020018781526020018681526020018581526020018481526020018373ffffffffffffffffffffffffffffffffffffffff1681526020018373ffffffffffffffffffffffffffffffffffffffff1681526020018281526020016000151581525060066000898152602001908152602001600020600082015181600001556020820151816001015560408201518160020155606082015181600301556080820151816004015560a08201518160050160006101000a81548173ffffffffffffffffffffffffffffffffffffffff021916908373ffffffffffffffffffffffffffffffffffffffff16021790555060c08201518160060160006101000a81548173ffffffffffffffffffffffffffffffffffffffff021916908373ffffffffffffffffffffffffffffffffffffffff16021790555060e08201518160070190805190602001906105cf92919061175f565b506101008201518160080160006101000a81548160ff02191690831515021790555090505050505050505050565b60606000805461060c9061243c565b80601f01602080910402602001604051908101604052809291908181526020018280546106389061243c565b80156106855780601f1061065a57610100808354040283529160200191610685565b820191906000526020600020905b81548152906001019060200180831161066857829003601f168201915b5050505050905090565b600061069a82610de8565b6106d9576040517f08c379a00000000000000000000000000000000000000000000000000000000081526004016106d0906120b2565b60405180910390fd5b6004600083815260200190815260200160002060009054906101000a900473ffffffffffffffffffffffffffffffffffffffff169050919050565b600061071f826108ac565b90508073ffffffffffffffffffffffffffffffffffffffff168373ffffffffffffffffffffffffffffffffffffffff161415610790576040517f08c379a000000000000000000000000000000000000000000000000000000000815260040161078790612112565b60405180910390fd5b8073ffffffffffffffffffffffffffffffffffffffff166107af610e54565b73ffffffffffffffffffffffffffffffffffffffff1614806107de57506107dd816107d8610e54565b610cea565b5b61081d576040517f08c379a000000000000000000000000000000000000000000000000000000000815260040161081490612072565b60405180910390fd5b6108278383610e5c565b505050565b61083d610837610e54565b82610f15565b61087c576040517f08c379a000000000000000000000000000000000000000000000000000000000815260040161087390612132565b60405180910390fd5b610887838383610ff3565b505050565b6108a783838360405180602001604052806000815250610be1565b505050565b6000806002600084815260200190815260200160002060009054906101000a900473ffffffffffffffffffffffffffffffffffffffff169050600073ffffffffffffffffffffffffffffffffffffffff168173ffffffffffffffffffffffffffffffffffffffff161415610955576040517f08c379a000000000000000000000000000000000000000000000000000000000815260040161094c90612092565b60405180910390fd5b80915050919050565b60008073ffffffffffffffffffffffffffffffffffffffff168273ffffffffffffffffffffffffffffffffffffffff1614156109cf576040517f08c379a00000000000000000000000000000000000000000000000000000000081526004016109c690612052565b60405180910390fd5b600360008373ffffffffffffffffffffffffffffffffffffffff1673ffffffffffffffffffffffffffffffffffffffff168152602001908152602001600020549050919050565b606060018054610a259061243c565b80601f0160208091040260200160405190810160405280929190818152602001828054610a519061243c565b8015610a9e5780601f10610a7357610100808354040283529160200191610a9e565b820191906000526020600020905b815481529060010190602001808311610a8157829003601f168201915b5050505050905090565b610aba610ab3610e54565b838361125a565b5050565b60066020528060005260406000206000915090508060000154908060010154908060020154908060030154908060040154908060050160009054906101000a900473ffffffffffffffffffffffffffffffffffffffff16908060060160009054906101000a900473ffffffffffffffffffffffffffffffffffffffff1690806007018054610b4b9061243c565b80601f0160208091040260200160405190810160405280929190818152602001828054610b779061243c565b8015610bc45780601f10610b9957610100808354040283529160200191610bc4565b820191906000526020600020905b815481529060010190602001808311610ba757829003601f168201915b5050505050908060080160009054906101000a900460ff16905089565b610bf2610bec610e54565b83610f15565b610c31576040517f08c379a0000000000000000000000000000000000000000000000000000000008152600401610c2890612132565b60405180910390fd5b610c3d848484846113c7565b50505050565b6060610c4e82610de8565b610c8d576040517f08c379a0000000000000000000000000000000000000000000000000000000008152600401610c84906120d2565b60405180910390fd5b6000610c97611423565b90506000815111610cb75760405180602001604052806000815250610ce2565b80610cc18461143a565b604051602001610cd2929190611eea565b6040516020818303038152906040525b915050919050565b6000600560008473ffffffffffffffffffffffffffffffffffffffff1673ffffffffffffffffffffffffffffffffffffffff16815260200190815260200160002060008373ffffffffffffffffffffffffffffffffffffffff1673ffffffffffffffffffffffffffffffffffffffff16815260200190815260200160002060009054906101000a900460ff16905092915050565b60007f01ffc9a7000000000000000000000000000000000000000000000000000000007bffffffffffffffffffffffffffffffffffffffffffffffffffffffff1916827bffffffffffffffffffffffffffffffffffffffffffffffffffffffff1916149050919050565b60008073ffffffffffffffffffffffffffffffffffffffff166002600084815260200190815260200160002060009054906101000a900473ffffffffffffffffffffffffffffffffffffffff1673ffffffffffffffffffffffffffffffffffffffff1614159050919050565b600033905090565b816004600083815260200190815260200160002060006101000a81548173ffffffffffffffffffffffffffffffffffffffff021916908373ffffffffffffffffffffffffffffffffffffffff160217905550808273ffffffffffffffffffffffffffffffffffffffff16610ecf836108ac565b73ffffffffffffffffffffffffffffffffffffffff167f8c5be1e5ebec7d5bd14f71427d1e84f3dd0314c0f7b2291e5b200ac8c7c3b92560405160405180910390a45050565b6000610f2082610de8565b610f5f576040517f08c379a0000000000000000000000000000000000000000000000000000000008152600401610f5690612032565b60405180910390fd5b6000610f6a836108ac565b90508073ffffffffffffffffffffffffffffffffffffffff168473ffffffffffffffffffffffffffffffffffffffff161480610fac5750610fab8185610cea565b5b80610fea57508373ffffffffffffffffffffffffffffffffffffffff16610fd28461068f565b73ffffffffffffffffffffffffffffffffffffffff16145b91505092915050565b8273ffffffffffffffffffffffffffffffffffffffff16611013826108ac565b73ffffffffffffffffffffffffffffffffffffffff1614611069576040517f08c379a000000000000000000000000000000000000000000000000000000000815260040161106090611fd2565b60405180910390fd5b600073ffffffffffffffffffffffffffffffffffffffff168273ffffffffffffffffffffffffffffffffffffffff1614156110d9576040517f08c379a00000000000000000000000000000000000000000000000000000000081526004016110d090611ff2565b60405180910390fd5b6110e483838361159b565b6110ef600082610e5c565b6001600360008573ffffffffffffffffffffffffffffffffffffffff1673ffffffffffffffffffffffffffffffffffffffff168152602001908152602001600020600082825461113f9190612352565b925050819055506001600360008473ffffffffffffffffffffffffffffffffffffffff1673ffffffffffffffffffffffffffffffffffffffff168152602001908152602001600020600082825461119691906122cb565b92505081905550816002600083815260200190815260200160002060006101000a81548173ffffffffffffffffffffffffffffffffffffffff021916908373ffffffffffffffffffffffffffffffffffffffff160217905550808273ffffffffffffffffffffffffffffffffffffffff168473ffffffffffffffffffffffffffffffffffffffff167fddf252ad1be2c89b69c2b068fc378daa952ba7f163c4a11628f55a4df523b3ef60405160405180910390a46112558383836115a0565b505050565b8173ffffffffffffffffffffffffffffffffffffffff168373ffffffffffffffffffffffffffffffffffffffff1614156112c9576040517f08c379a00000000000000000000000000000000000000000000000000000000081526004016112c090612012565b60405180910390fd5b80600560008573ffffffffffffffffffffffffffffffffffffffff1673ffffffffffffffffffffffffffffffffffffffff16815260200190815260200160002060008473ffffffffffffffffffffffffffffffffffffffff1673ffffffffffffffffffffffffffffffffffffffff16815260200190815260200160002060006101000a81548160ff0219169083151502179055508173ffffffffffffffffffffffffffffffffffffffff168373ffffffffffffffffffffffffffffffffffffffff167f17307eab39ab6107e8899845ad3d59bd9653f200f220920489ca2b5937696c31836040516113ba9190611f75565b60405180910390a3505050565b6113d2848484610ff3565b6113de848484846115a5565b61141d576040517f08c379a000000000000000000000000000000000000000000000000000000000815260040161141490611fb2565b60405180910390fd5b50505050565b606060405180602001604052806000815250905090565b60606000821415611482576040518060400160405280600181526020017f30000000000000000000000000000000000000000000000000000000000000008152509050611596565b600082905060005b600082146114b457808061149d9061249f565b915050600a826114ad9190612321565b915061148a565b60008167ffffffffffffffff8111156114d0576114cf6125d5565b5b6040519080825280601f01601f1916602001820160405280156115025781602001600182028036833780820191505090505b5090505b6000851461158f5760018261151b9190612352565b9150600a8561152a91906124e8565b603061153691906122cb565b60f81b81838151811061154c5761154b6125a6565b5b60200101907effffffffffffffffffffffffffffffffffffffffffffffffffffffffffffff1916908160001a905350600a856115889190612321565b9450611506565b8093505050505b919050565b505050565b505050565b60006115c68473ffffffffffffffffffffffffffffffffffffffff1661173c565b1561172f578373ffffffffffffffffffffffffffffffffffffffff1663150b7a026115ef610e54565b8786866040518563ffffffff1660e01b81526004016116119493929190611f29565b602060405180830381600087803b15801561162b57600080fd5b505af192505050801561165c57506040513d601f19601f820116820180604052508101906116599190611b3b565b60015b6116df573d806000811461168c576040519150601f19603f3d011682016040523d82523d6000602084013e611691565b606091505b506000815114156116d7576040517f08c379a00000000000000000000000000000000000000000000000000000000081526004016116ce90611fb2565b60405180910390fd5b805181602001fd5b63150b7a0260e01b7bffffffffffffffffffffffffffffffffffffffffffffffffffffffff1916817bffffffffffffffffffffffffffffffffffffffffffffffffffffffff191614915050611734565b600190505b949350505050565b6000808273ffffffffffffffffffffffffffffffffffffffff163b119050919050565b82805461176b9061243c565b90600052602060002090601f01602090048101928261178d57600085556117d4565b82601f106117a657805160ff19168380011785556117d4565b828001600101855582156117d4579182015b828111156117d35782518255916020019190600101906117b8565b5b5090506117e191906117e5565b5090565b5b808211156117fe5760008160009055506001016117e6565b5090565b600061181561181084612226565b612201565b90508281526020810184848401111561183157611830612609565b5b61183c8482856123fa565b509392505050565b600061185761185284612257565b612201565b90508281526020810184848401111561187357611872612609565b5b61187e8482856123fa565b509392505050565b600081359050611895816129e0565b92915050565b6000813590506118aa816129f7565b92915050565b6000813590506118bf81612a0e565b92915050565b6000815190506118d481612a0e565b92915050565b600082601f8301126118ef576118ee612604565b5b81356118ff848260208601611802565b91505092915050565b600082601f83011261191d5761191c612604565b5b813561192d848260208601611844565b91505092915050565b60008135905061194581612a25565b92915050565b60006020828403121561196157611960612613565b5b600061196f84828501611886565b91505092915050565b6000806040838503121561198f5761198e612613565b5b600061199d85828601611886565b92505060206119ae85828601611886565b9150509250929050565b6000806000606084860312156119d1576119d0612613565b5b60006119df86828701611886565b93505060206119f086828701611886565b9250506040611a0186828701611936565b9150509250925092565b60008060008060808587031215611a2557611a24612613565b5b6000611a3387828801611886565b9450506020611a4487828801611886565b9350506040611a5587828801611936565b925050606085013567ffffffffffffffff811115611a7657611a7561260e565b5b611a82878288016118da565b91505092959194509250565b60008060408385031215611aa557611aa4612613565b5b6000611ab385828601611886565b9250506020611ac48582860161189b565b9150509250929050565b60008060408385031215611ae557611ae4612613565b5b6000611af385828601611886565b9250506020611b0485828601611936565b9150509250929050565b600060208284031215611b2457611b23612613565b5b6000611b32848285016118b0565b91505092915050565b600060208284031215611b5157611b50612613565b5b6000611b5f848285016118c5565b91505092915050565b600060208284031215611b7e57611b7d612613565b5b6000611b8c84828501611936565b91505092915050565b600080600080600080600060e0888a031215611bb457611bb3612613565b5b6000611bc28a828b01611936565b9750506020611bd38a828b01611936565b9650506040611be48a828b01611936565b9550506060611bf58a828b01611936565b9450506080611c068a828b01611936565b93505060a0611c178a828b01611886565b92505060c088013567ffffffffffffffff811115611c3857611c3761260e565b5b611c448a828b01611908565b91505092959891949750929550565b611c5c81612386565b82525050565b611c6b81612398565b82525050565b6000611c7c82612288565b611c86818561229e565b9350611c96818560208601612409565b611c9f81612618565b840191505092915050565b6000611cb582612293565b611cbf81856122af565b9350611ccf818560208601612409565b611cd881612618565b840191505092915050565b6000611cee82612293565b611cf881856122c0565b9350611d08818560208601612409565b80840191505092915050565b6000611d216032836122af565b9150611d2c82612629565b604082019050919050565b6000611d446025836122af565b9150611d4f82612678565b604082019050919050565b6000611d676024836122af565b9150611d72826126c7565b604082019050919050565b6000611d8a6019836122af565b9150611d9582612716565b602082019050919050565b6000611dad602c836122af565b9150611db88261273f565b604082019050919050565b6000611dd06029836122af565b9150611ddb8261278e565b604082019050919050565b6000611df36038836122af565b9150611dfe826127dd565b604082019050919050565b6000611e166029836122af565b9150611e218261282c565b604082019050919050565b6000611e39602c836122af565b9150611e448261287b565b604082019050919050565b6000611e5c602f836122af565b9150611e67826128ca565b604082019050919050565b6000611e7f601b836122af565b9150611e8a82612919565b602082019050919050565b6000611ea26021836122af565b9150611ead82612942565b604082019050919050565b6000611ec56031836122af565b9150611ed082612991565b604082019050919050565b611ee4816123f0565b82525050565b6000611ef68285611ce3565b9150611f028284611ce3565b91508190509392505050565b6000602082019050611f236000830184611c53565b92915050565b6000608082019050611f3e6000830187611c53565b611f4b6020830186611c53565b611f586040830185611edb565b8181036060830152611f6a8184611c71565b905095945050505050565b6000602082019050611f8a6000830184611c62565b92915050565b60006020820190508181036000830152611faa8184611caa565b905092915050565b60006020820190508181036000830152611fcb81611d14565b9050919050565b60006020820190508181036000830152611feb81611d37565b9050919050565b6000602082019050818103600083015261200b81611d5a565b9050919050565b6000602082019050818103600083015261202b81611d7d565b9050919050565b6000602082019050818103600083015261204b81611da0565b9050919050565b6000602082019050818103600083015261206b81611dc3565b9050919050565b6000602082019050818103600083015261208b81611de6565b9050919050565b600060208201905081810360008301526120ab81611e09565b9050919050565b600060208201905081810360008301526120cb81611e2c565b9050919050565b600060208201905081810360008301526120eb81611e4f565b9050919050565b6000602082019050818103600083015261210b81611e72565b9050919050565b6000602082019050818103600083015261212b81611e95565b9050919050565b6000602082019050818103600083015261214b81611eb8565b9050919050565b60006020820190506121676000830184611edb565b92915050565b600061012082019050612183600083018c611edb565b612190602083018b611edb565b61219d604083018a611edb565b6121aa6060830189611edb565b6121b76080830188611edb565b6121c460a0830187611c53565b6121d160c0830186611c53565b81810360e08301526121e38185611caa565b90506121f3610100830184611c62565b9a9950505050505050505050565b600061220b61221c565b9050612217828261246e565b919050565b6000604051905090565b600067ffffffffffffffff821115612241576122406125d5565b5b61224a82612618565b9050602081019050919050565b600067ffffffffffffffff821115612272576122716125d5565b5b61227b82612618565b9050602081019050919050565b600081519050919050565b600081519050919050565b600082825260208201905092915050565b600082825260208201905092915050565b600081905092915050565b60006122d6826123f0565b91506122e1836123f0565b9250827fffffffffffffffffffffffffffffffffffffffffffffffffffffffffffffffff0382111561231657612315612519565b5b828201905092915050565b600061232c826123f0565b9150612337836123f0565b92508261234757612346612548565b5b828204905092915050565b600061235d826123f0565b9150612368836123f0565b92508282101561237b5761237a612519565b5b828203905092915050565b6000612391826123d0565b9050919050565b60008115159050919050565b60007fffffffff0000000000000000000000000000000000000000000000000000000082169050919050565b600073ffffffffffffffffffffffffffffffffffffffff82169050919050565b6000819050919050565b82818337600083830152505050565b60005b8381101561242757808201518184015260208101905061240c565b83811115612436576000848401525b50505050565b6000600282049050600182168061245457607f821691505b6020821081141561246857612467612577565b5b50919050565b61247782612618565b810181811067ffffffffffffffff82111715612496576124956125d5565b5b80604052505050565b60006124aa826123f0565b91507fffffffffffffffffffffffffffffffffffffffffffffffffffffffffffffffff8214156124dd576124dc612519565b5b600182019050919050565b60006124f3826123f0565b91506124fe836123f0565b92508261250e5761250d612548565b5b828206905092915050565b7f4e487b7100000000000000000000000000000000000000000000000000000000600052601160045260246000fd5b7f4e487b7100000000000000000000000000000000000000000000000000000000600052601260045260246000fd5b7f4e487b7100000000000000000000000000000000000000000000000000000000600052602260045260246000fd5b7f4e487b7100000000000000000000000000000000000000000000000000000000600052603260045260246000fd5b7f4e487b7100000000000000000000000000000000000000000000000000000000600052604160045260246000fd5b600080fd5b600080fd5b600080fd5b600080fd5b6000601f19601f8301169050919050565b7f4552433732313a207472616e7366657220746f206e6f6e20455243373231526560008201527f63656976657220696d706c656d656e7465720000000000000000000000000000602082015250565b7f4552433732313a207472616e736665722066726f6d20696e636f72726563742060008201527f6f776e6572000000000000000000000000000000000000000000000000000000602082015250565b7f4552433732313a207472616e7366657220746f20746865207a65726f2061646460008201527f7265737300000000000000000000000000000000000000000000000000000000602082015250565b7f4552433732313a20617070726f766520746f2063616c6c657200000000000000600082015250565b7f4552433732313a206f70657261746f7220717565727920666f72206e6f6e657860008201527f697374656e7420746f6b656e0000000000000000000000000000000000000000602082015250565b7f4552433732313a2061646472657373207a65726f206973206e6f74206120766160008201527f6c6964206f776e65720000000000000000000000000000000000000000000000602082015250565b7f4552433732313a20617070726f76652063616c6c6572206973206e6f74206f7760008201527f6e6572206e6f7220617070726f76656420666f7220616c6c0000000000000000602082015250565b7f4552433732313a206f776e657220717565727920666f72206e6f6e657869737460008201527f656e7420746f6b656e0000000000000000000000000000000000000000000000602082015250565b7f4552433732313a20617070726f76656420717565727920666f72206e6f6e657860008201527f697374656e7420746f6b656e0000000000000000000000000000000000000000602082015250565b7f4552433732314d657461646174613a2055524920717565727920666f72206e6f60008201527f6e6578697374656e7420746f6b656e0000000000000000000000000000000000602082015250565b7f7468697320686f757365496420616c7265616479206578697374730000000000600082015250565b7f4552433732313a20617070726f76616c20746f2063757272656e74206f776e6560008201527f7200000000000000000000000000000000000000000000000000000000000000602082015250565b7f4552433732313a207472616e736665722063616c6c6572206973206e6f74206f60008201527f776e6572206e6f7220617070726f766564000000000000000000000000000000602082015250565b6129e981612386565b81146129f457600080fd5b50565b612a0081612398565b8114612a0b57600080fd5b50565b612a17816123a4565b8114612a2257600080fd5b50565b612a2e816123f0565b8114612a3957600080fd5b5056fea2646970667358221220873073abb226eae72afcbc767cfe50cb34fa1d78c7b6bad0ce2ea965e4bca32864736f6c63430008070033",
					"opcodes": "PUSH1 0x80 PUSH1 0x40 MSTORE CALLVALUE DUP1 ISZERO PUSH3 0x11 JUMPI PUSH1 0x0 DUP1 REVERT JUMPDEST POP PUSH1 0x40 MLOAD PUSH3 0x2E2A CODESIZE SUB DUP1 PUSH3 0x2E2A DUP4 CODECOPY DUP2 DUP2 ADD PUSH1 0x40 MSTORE DUP2 ADD SWAP1 PUSH3 0x37 SWAP2 SWAP1 PUSH3 0x19F JUMP JUMPDEST DUP2 PUSH1 0x0 SWAP1 DUP1 MLOAD SWAP1 PUSH1 0x20 ADD SWAP1 PUSH3 0x4F SWAP3 SWAP2 SWAP1 PUSH3 0x71 JUMP JUMPDEST POP DUP1 PUSH1 0x1 SWAP1 DUP1 MLOAD SWAP1 PUSH1 0x20 ADD SWAP1 PUSH3 0x68 SWAP3 SWAP2 SWAP1 PUSH3 0x71 JUMP JUMPDEST POP POP POP PUSH3 0x3A8 JUMP JUMPDEST DUP3 DUP1 SLOAD PUSH3 0x7F SWAP1 PUSH3 0x2B9 JUMP JUMPDEST SWAP1 PUSH1 0x0 MSTORE PUSH1 0x20 PUSH1 0x0 KECCAK256 SWAP1 PUSH1 0x1F ADD PUSH1 0x20 SWAP1 DIV DUP2 ADD SWAP3 DUP3 PUSH3 0xA3 JUMPI PUSH1 0x0 DUP6 SSTORE PUSH3 0xEF JUMP JUMPDEST DUP3 PUSH1 0x1F LT PUSH3 0xBE JUMPI DUP1 MLOAD PUSH1 0xFF NOT AND DUP4 DUP1 ADD OR DUP6 SSTORE PUSH3 0xEF JUMP JUMPDEST DUP3 DUP1 ADD PUSH1 0x1 ADD DUP6 SSTORE DUP3 ISZERO PUSH3 0xEF JUMPI SWAP2 DUP3 ADD JUMPDEST DUP3 DUP2 GT ISZERO PUSH3 0xEE JUMPI DUP3 MLOAD DUP3 SSTORE SWAP2 PUSH1 0x20 ADD SWAP2 SWAP1 PUSH1 0x1 ADD SWAP1 PUSH3 0xD1 JUMP JUMPDEST JUMPDEST POP SWAP1 POP PUSH3 0xFE SWAP2 SWAP1 PUSH3 0x102 JUMP JUMPDEST POP SWAP1 JUMP JUMPDEST JUMPDEST DUP1 DUP3 GT ISZERO PUSH3 0x11D JUMPI PUSH1 0x0 DUP2 PUSH1 0x0 SWAP1 SSTORE POP PUSH1 0x1 ADD PUSH3 0x103 JUMP JUMPDEST POP SWAP1 JUMP JUMPDEST PUSH1 0x0 PUSH3 0x138 PUSH3 0x132 DUP5 PUSH3 0x24D JUMP JUMPDEST PUSH3 0x224 JUMP JUMPDEST SWAP1 POP DUP3 DUP2 MSTORE PUSH1 0x20 DUP2 ADD DUP5 DUP5 DUP5 ADD GT ISZERO PUSH3 0x157 JUMPI PUSH3 0x156 PUSH3 0x388 JUMP JUMPDEST JUMPDEST PUSH3 0x164 DUP5 DUP3 DUP6 PUSH3 0x283 JUMP JUMPDEST POP SWAP4 SWAP3 POP POP POP JUMP JUMPDEST PUSH1 0x0 DUP3 PUSH1 0x1F DUP4 ADD SLT PUSH3 0x184 JUMPI PUSH3 0x183 PUSH3 0x383 JUMP JUMPDEST JUMPDEST DUP2 MLOAD PUSH3 0x196 DUP5 DUP3 PUSH1 0x20 DUP7 ADD PUSH3 0x121 JUMP JUMPDEST SWAP2 POP POP SWAP3 SWAP2 POP POP JUMP JUMPDEST PUSH1 0x0 DUP1 PUSH1 0x40 DUP4 DUP6 SUB SLT ISZERO PUSH3 0x1B9 JUMPI PUSH3 0x1B8 PUSH3 0x392 JUMP JUMPDEST JUMPDEST PUSH1 0x0 DUP4 ADD MLOAD PUSH8 0xFFFFFFFFFFFFFFFF DUP2 GT ISZERO PUSH3 0x1DA JUMPI PUSH3 0x1D9 PUSH3 0x38D JUMP JUMPDEST JUMPDEST PUSH3 0x1E8 DUP6 DUP3 DUP7 ADD PUSH3 0x16C JUMP JUMPDEST SWAP3 POP POP PUSH1 0x20 DUP4 ADD MLOAD PUSH8 0xFFFFFFFFFFFFFFFF DUP2 GT ISZERO PUSH3 0x20C JUMPI PUSH3 0x20B PUSH3 0x38D JUMP JUMPDEST JUMPDEST PUSH3 0x21A DUP6 DUP3 DUP7 ADD PUSH3 0x16C JUMP JUMPDEST SWAP2 POP POP SWAP3 POP SWAP3 SWAP1 POP JUMP JUMPDEST PUSH1 0x0 PUSH3 0x230 PUSH3 0x243 JUMP JUMPDEST SWAP1 POP PUSH3 0x23E DUP3 DUP3 PUSH3 0x2EF JUMP JUMPDEST SWAP2 SWAP1 POP JUMP JUMPDEST PUSH1 0x0 PUSH1 0x40 MLOAD SWAP1 POP SWAP1 JUMP JUMPDEST PUSH1 0x0 PUSH8 0xFFFFFFFFFFFFFFFF DUP3 GT ISZERO PUSH3 0x26B JUMPI PUSH3 0x26A PUSH3 0x354 JUMP JUMPDEST JUMPDEST PUSH3 0x276 DUP3 PUSH3 0x397 JUMP JUMPDEST SWAP1 POP PUSH1 0x20 DUP2 ADD SWAP1 POP SWAP2 SWAP1 POP JUMP JUMPDEST PUSH1 0x0 JUMPDEST DUP4 DUP2 LT ISZERO PUSH3 0x2A3 JUMPI DUP1 DUP3 ADD MLOAD DUP2 DUP5 ADD MSTORE PUSH1 0x20 DUP2 ADD SWAP1 POP PUSH3 0x286 JUMP JUMPDEST DUP4 DUP2 GT ISZERO PUSH3 0x2B3 JUMPI PUSH1 0x0 DUP5 DUP5 ADD MSTORE JUMPDEST POP POP POP POP JUMP JUMPDEST PUSH1 0x0 PUSH1 0x2 DUP3 DIV SWAP1 POP PUSH1 0x1 DUP3 AND DUP1 PUSH3 0x2D2 JUMPI PUSH1 0x7F DUP3 AND SWAP2 POP JUMPDEST PUSH1 0x20 DUP3 LT DUP2 EQ ISZERO PUSH3 0x2E9 JUMPI PUSH3 0x2E8 PUSH3 0x325 JUMP JUMPDEST JUMPDEST POP SWAP2 SWAP1 POP JUMP JUMPDEST PUSH3 0x2FA DUP3 PUSH3 0x397 JUMP JUMPDEST DUP2 ADD DUP2 DUP2 LT PUSH8 0xFFFFFFFFFFFFFFFF DUP3 GT OR ISZERO PUSH3 0x31C JUMPI PUSH3 0x31B PUSH3 0x354 JUMP JUMPDEST JUMPDEST DUP1 PUSH1 0x40 MSTORE POP POP POP JUMP JUMPDEST PUSH32 0x4E487B7100000000000000000000000000000000000000000000000000000000 PUSH1 0x0 MSTORE PUSH1 0x22 PUSH1 0x4 MSTORE PUSH1 0x24 PUSH1 0x0 REVERT JUMPDEST PUSH32 0x4E487B7100000000000000000000000000000000000000000000000000000000 PUSH1 0x0 MSTORE PUSH1 0x41 PUSH1 0x4 MSTORE PUSH1 0x24 PUSH1 0x0 REVERT JUMPDEST PUSH1 0x0 DUP1 REVERT JUMPDEST PUSH1 0x0 DUP1 REVERT JUMPDEST PUSH1 0x0 DUP1 REVERT JUMPDEST PUSH1 0x0 DUP1 REVERT JUMPDEST PUSH1 0x0 PUSH1 0x1F NOT PUSH1 0x1F DUP4 ADD AND SWAP1 POP SWAP2 SWAP1 POP JUMP JUMPDEST PUSH2 0x2A72 DUP1 PUSH3 0x3B8 PUSH1 0x0 CODECOPY PUSH1 0x0 RETURN INVALID PUSH1 0x80 PUSH1 0x40 MSTORE CALLVALUE DUP1 ISZERO PUSH2 0x10 JUMPI PUSH1 0x0 DUP1 REVERT JUMPDEST POP PUSH1 0x4 CALLDATASIZE LT PUSH2 0xF5 JUMPI PUSH1 0x0 CALLDATALOAD PUSH1 0xE0 SHR DUP1 PUSH4 0x6352211E GT PUSH2 0x97 JUMPI DUP1 PUSH4 0xAEDA852F GT PUSH2 0x66 JUMPI DUP1 PUSH4 0xAEDA852F EQ PUSH2 0x282 JUMPI DUP1 PUSH4 0xB88D4FDE EQ PUSH2 0x2BA JUMPI DUP1 PUSH4 0xC87B56DD EQ PUSH2 0x2D6 JUMPI DUP1 PUSH4 0xE985E9C5 EQ PUSH2 0x306 JUMPI PUSH2 0xF5 JUMP JUMPDEST DUP1 PUSH4 0x6352211E EQ PUSH2 0x1E8 JUMPI DUP1 PUSH4 0x70A08231 EQ PUSH2 0x218 JUMPI DUP1 PUSH4 0x95D89B41 EQ PUSH2 0x248 JUMPI DUP1 PUSH4 0xA22CB465 EQ PUSH2 0x266 JUMPI PUSH2 0xF5 JUMP JUMPDEST DUP1 PUSH4 0x81812FC GT PUSH2 0xD3 JUMPI DUP1 PUSH4 0x81812FC EQ PUSH2 0x164 JUMPI DUP1 PUSH4 0x95EA7B3 EQ PUSH2 0x194 JUMPI DUP1 PUSH4 0x23B872DD EQ PUSH2 0x1B0 JUMPI DUP1 PUSH4 0x42842E0E EQ PUSH2 0x1CC JUMPI PUSH2 0xF5 JUMP JUMPDEST DUP1 PUSH4 0x1FFC9A7 EQ PUSH2 0xFA JUMPI DUP1 PUSH4 0x548FA4F EQ PUSH2 0x12A JUMPI DUP1 PUSH4 0x6FDDE03 EQ PUSH2 0x146 JUMPI JUMPDEST PUSH1 0x0 DUP1 REVERT JUMPDEST PUSH2 0x114 PUSH1 0x4 DUP1 CALLDATASIZE SUB DUP2 ADD SWAP1 PUSH2 0x10F SWAP2 SWAP1 PUSH2 0x1B0E JUMP JUMPDEST PUSH2 0x336 JUMP JUMPDEST PUSH1 0x40 MLOAD PUSH2 0x121 SWAP2 SWAP1 PUSH2 0x1F75 JUMP JUMPDEST PUSH1 0x40 MLOAD DUP1 SWAP2 SUB SWAP1 RETURN JUMPDEST PUSH2 0x144 PUSH1 0x4 DUP1 CALLDATASIZE SUB DUP2 ADD SWAP1 PUSH2 0x13F SWAP2 SWAP1 PUSH2 0x1B95 JUMP JUMPDEST PUSH2 0x418 JUMP JUMPDEST STOP JUMPDEST PUSH2 0x14E PUSH2 0x5FD JUMP JUMPDEST PUSH1 0x40 MLOAD PUSH2 0x15B SWAP2 SWAP1 PUSH2 0x1F90 JUMP JUMPDEST PUSH1 0x40 MLOAD DUP1 SWAP2 SUB SWAP1 RETURN JUMPDEST PUSH2 0x17E PUSH1 0x4 DUP1 CALLDATASIZE SUB DUP2 ADD SWAP1 PUSH2 0x179 SWAP2 SWAP1 PUSH2 0x1B68 JUMP JUMPDEST PUSH2 0x68F JUMP JUMPDEST PUSH1 0x40 MLOAD PUSH2 0x18B SWAP2 SWAP1 PUSH2 0x1F0E JUMP JUMPDEST PUSH1 0x40 MLOAD DUP1 SWAP2 SUB SWAP1 RETURN JUMPDEST PUSH2 0x1AE PUSH1 0x4 DUP1 CALLDATASIZE SUB DUP2 ADD SWAP1 PUSH2 0x1A9 SWAP2 SWAP1 PUSH2 0x1ACE JUMP JUMPDEST PUSH2 0x714 JUMP JUMPDEST STOP JUMPDEST PUSH2 0x1CA PUSH1 0x4 DUP1 CALLDATASIZE SUB DUP2 ADD SWAP1 PUSH2 0x1C5 SWAP2 SWAP1 PUSH2 0x19B8 JUMP JUMPDEST PUSH2 0x82C JUMP JUMPDEST STOP JUMPDEST PUSH2 0x1E6 PUSH1 0x4 DUP1 CALLDATASIZE SUB DUP2 ADD SWAP1 PUSH2 0x1E1 SWAP2 SWAP1 PUSH2 0x19B8 JUMP JUMPDEST PUSH2 0x88C JUMP JUMPDEST STOP JUMPDEST PUSH2 0x202 PUSH1 0x4 DUP1 CALLDATASIZE SUB DUP2 ADD SWAP1 PUSH2 0x1FD SWAP2 SWAP1 PUSH2 0x1B68 JUMP JUMPDEST PUSH2 0x8AC JUMP JUMPDEST PUSH1 0x40 MLOAD PUSH2 0x20F SWAP2 SWAP1 PUSH2 0x1F0E JUMP JUMPDEST PUSH1 0x40 MLOAD DUP1 SWAP2 SUB SWAP1 RETURN JUMPDEST PUSH2 0x232 PUSH1 0x4 DUP1 CALLDATASIZE SUB DUP2 ADD SWAP1 PUSH2 0x22D SWAP2 SWAP1 PUSH2 0x194B JUMP JUMPDEST PUSH2 0x95E JUMP JUMPDEST PUSH1 0x40 MLOAD PUSH2 0x23F SWAP2 SWAP1 PUSH2 0x2152 JUMP JUMPDEST PUSH1 0x40 MLOAD DUP1 SWAP2 SUB SWAP1 RETURN JUMPDEST PUSH2 0x250 PUSH2 0xA16 JUMP JUMPDEST PUSH1 0x40 MLOAD PUSH2 0x25D SWAP2 SWAP1 PUSH2 0x1F90 JUMP JUMPDEST PUSH1 0x40 MLOAD DUP1 SWAP2 SUB SWAP1 RETURN JUMPDEST PUSH2 0x280 PUSH1 0x4 DUP1 CALLDATASIZE SUB DUP2 ADD SWAP1 PUSH2 0x27B SWAP2 SWAP1 PUSH2 0x1A8E JUMP JUMPDEST PUSH2 0xAA8 JUMP JUMPDEST STOP JUMPDEST PUSH2 0x29C PUSH1 0x4 DUP1 CALLDATASIZE SUB DUP2 ADD SWAP1 PUSH2 0x297 SWAP2 SWAP1 PUSH2 0x1B68 JUMP JUMPDEST PUSH2 0xABE JUMP JUMPDEST PUSH1 0x40 MLOAD PUSH2 0x2B1 SWAP10 SWAP9 SWAP8 SWAP7 SWAP6 SWAP5 SWAP4 SWAP3 SWAP2 SWAP1 PUSH2 0x216D JUMP JUMPDEST PUSH1 0x40 MLOAD DUP1 SWAP2 SUB SWAP1 RETURN JUMPDEST PUSH2 0x2D4 PUSH1 0x4 DUP1 CALLDATASIZE SUB DUP2 ADD SWAP1 PUSH2 0x2CF SWAP2 SWAP1 PUSH2 0x1A0B JUMP JUMPDEST PUSH2 0xBE1 JUMP JUMPDEST STOP JUMPDEST PUSH2 0x2F0 PUSH1 0x4 DUP1 CALLDATASIZE SUB DUP2 ADD SWAP1 PUSH2 0x2EB SWAP2 SWAP1 PUSH2 0x1B68 JUMP JUMPDEST PUSH2 0xC43 JUMP JUMPDEST PUSH1 0x40 MLOAD PUSH2 0x2FD SWAP2 SWAP1 PUSH2 0x1F90 JUMP JUMPDEST PUSH1 0x40 MLOAD DUP1 SWAP2 SUB SWAP1 RETURN JUMPDEST PUSH2 0x320 PUSH1 0x4 DUP1 CALLDATASIZE SUB DUP2 ADD SWAP1 PUSH2 0x31B SWAP2 SWAP1 PUSH2 0x1978 JUMP JUMPDEST PUSH2 0xCEA JUMP JUMPDEST PUSH1 0x40 MLOAD PUSH2 0x32D SWAP2 SWAP1 PUSH2 0x1F75 JUMP JUMPDEST PUSH1 0x40 MLOAD DUP1 SWAP2 SUB SWAP1 RETURN JUMPDEST PUSH1 0x0 PUSH32 0x80AC58CD00000000000000000000000000000000000000000000000000000000 PUSH28 0xFFFFFFFFFFFFFFFFFFFFFFFFFFFFFFFFFFFFFFFFFFFFFFFFFFFFFFFF NOT AND DUP3 PUSH28 0xFFFFFFFFFFFFFFFFFFFFFFFFFFFFFFFFFFFFFFFFFFFFFFFFFFFFFFFF NOT AND EQ DUP1 PUSH2 0x401 JUMPI POP PUSH32 0x5B5E139F00000000000000000000000000000000000000000000000000000000 PUSH28 0xFFFFFFFFFFFFFFFFFFFFFFFFFFFFFFFFFFFFFFFFFFFFFFFFFFFFFFFF NOT AND DUP3 PUSH28 0xFFFFFFFFFFFFFFFFFFFFFFFFFFFFFFFFFFFFFFFFFFFFFFFFFFFFFFFF NOT AND EQ JUMPDEST DUP1 PUSH2 0x411 JUMPI POP PUSH2 0x410 DUP3 PUSH2 0xD7E JUMP JUMPDEST JUMPDEST SWAP1 POP SWAP2 SWAP1 POP JUMP JUMPDEST PUSH1 0x6 PUSH1 0x0 DUP9 DUP2 MSTORE PUSH1 0x20 ADD SWAP1 DUP2 MSTORE PUSH1 0x20 ADD PUSH1 0x0 KECCAK256 PUSH1 0x0 ADD SLOAD DUP8 EQ ISZERO PUSH2 0x471 JUMPI PUSH1 0x40 MLOAD PUSH32 0x8C379A000000000000000000000000000000000000000000000000000000000 DUP2 MSTORE PUSH1 0x4 ADD PUSH2 0x468 SWAP1 PUSH2 0x20F2 JUMP JUMPDEST PUSH1 0x40 MLOAD DUP1 SWAP2 SUB SWAP1 REVERT JUMPDEST PUSH1 0x40 MLOAD DUP1 PUSH2 0x120 ADD PUSH1 0x40 MSTORE DUP1 DUP9 DUP2 MSTORE PUSH1 0x20 ADD DUP8 DUP2 MSTORE PUSH1 0x20 ADD DUP7 DUP2 MSTORE PUSH1 0x20 ADD DUP6 DUP2 MSTORE PUSH1 0x20 ADD DUP5 DUP2 MSTORE PUSH1 0x20 ADD DUP4 PUSH20 0xFFFFFFFFFFFFFFFFFFFFFFFFFFFFFFFFFFFFFFFF AND DUP2 MSTORE PUSH1 0x20 ADD DUP4 PUSH20 0xFFFFFFFFFFFFFFFFFFFFFFFFFFFFFFFFFFFFFFFF AND DUP2 MSTORE PUSH1 0x20 ADD DUP3 DUP2 MSTORE PUSH1 0x20 ADD PUSH1 0x0 ISZERO ISZERO DUP2 MSTORE POP PUSH1 0x6 PUSH1 0x0 DUP10 DUP2 MSTORE PUSH1 0x20 ADD SWAP1 DUP2 MSTORE PUSH1 0x20 ADD PUSH1 0x0 KECCAK256 PUSH1 0x0 DUP3 ADD MLOAD DUP2 PUSH1 0x0 ADD SSTORE PUSH1 0x20 DUP3 ADD MLOAD DUP2 PUSH1 0x1 ADD SSTORE PUSH1 0x40 DUP3 ADD MLOAD DUP2 PUSH1 0x2 ADD SSTORE PUSH1 0x60 DUP3 ADD MLOAD DUP2 PUSH1 0x3 ADD SSTORE PUSH1 0x80 DUP3 ADD MLOAD DUP2 PUSH1 0x4 ADD SSTORE PUSH1 0xA0 DUP3 ADD MLOAD DUP2 PUSH1 0x5 ADD PUSH1 0x0 PUSH2 0x100 EXP DUP2 SLOAD DUP2 PUSH20 0xFFFFFFFFFFFFFFFFFFFFFFFFFFFFFFFFFFFFFFFF MUL NOT AND SWAP1 DUP4 PUSH20 0xFFFFFFFFFFFFFFFFFFFFFFFFFFFFFFFFFFFFFFFF AND MUL OR SWAP1 SSTORE POP PUSH1 0xC0 DUP3 ADD MLOAD DUP2 PUSH1 0x6 ADD PUSH1 0x0 PUSH2 0x100 EXP DUP2 SLOAD DUP2 PUSH20 0xFFFFFFFFFFFFFFFFFFFFFFFFFFFFFFFFFFFFFFFF MUL NOT AND SWAP1 DUP4 PUSH20 0xFFFFFFFFFFFFFFFFFFFFFFFFFFFFFFFFFFFFFFFF AND MUL OR SWAP1 SSTORE POP PUSH1 0xE0 DUP3 ADD MLOAD DUP2 PUSH1 0x7 ADD SWAP1 DUP1 MLOAD SWAP1 PUSH1 0x20 ADD SWAP1 PUSH2 0x5CF SWAP3 SWAP2 SWAP1 PUSH2 0x175F JUMP JUMPDEST POP PUSH2 0x100 DUP3 ADD MLOAD DUP2 PUSH1 0x8 ADD PUSH1 0x0 PUSH2 0x100 EXP DUP2 SLOAD DUP2 PUSH1 0xFF MUL NOT AND SWAP1 DUP4 ISZERO ISZERO MUL OR SWAP1 SSTORE POP SWAP1 POP POP POP POP POP POP POP POP POP JUMP JUMPDEST PUSH1 0x60 PUSH1 0x0 DUP1 SLOAD PUSH2 0x60C SWAP1 PUSH2 0x243C JUMP JUMPDEST DUP1 PUSH1 0x1F ADD PUSH1 0x20 DUP1 SWAP2 DIV MUL PUSH1 0x20 ADD PUSH1 0x40 MLOAD SWAP1 DUP2 ADD PUSH1 0x40 MSTORE DUP1 SWAP3 SWAP2 SWAP1 DUP2 DUP2 MSTORE PUSH1 0x20 ADD DUP3 DUP1 SLOAD PUSH2 0x638 SWAP1 PUSH2 0x243C JUMP JUMPDEST DUP1 ISZERO PUSH2 0x685 JUMPI DUP1 PUSH1 0x1F LT PUSH2 0x65A JUMPI PUSH2 0x100 DUP1 DUP4 SLOAD DIV MUL DUP4 MSTORE SWAP2 PUSH1 0x20 ADD SWAP2 PUSH2 0x685 JUMP JUMPDEST DUP3 ADD SWAP2 SWAP1 PUSH1 0x0 MSTORE PUSH1 0x20 PUSH1 0x0 KECCAK256 SWAP1 JUMPDEST DUP2 SLOAD DUP2 MSTORE SWAP1 PUSH1 0x1 ADD SWAP1 PUSH1 0x20 ADD DUP1 DUP4 GT PUSH2 0x668 JUMPI DUP3 SWAP1 SUB PUSH1 0x1F AND DUP3 ADD SWAP2 JUMPDEST POP POP POP POP POP SWAP1 POP SWAP1 JUMP JUMPDEST PUSH1 0x0 PUSH2 0x69A DUP3 PUSH2 0xDE8 JUMP JUMPDEST PUSH2 0x6D9 JUMPI PUSH1 0x40 MLOAD PUSH32 0x8C379A000000000000000000000000000000000000000000000000000000000 DUP2 MSTORE PUSH1 0x4 ADD PUSH2 0x6D0 SWAP1 PUSH2 0x20B2 JUMP JUMPDEST PUSH1 0x40 MLOAD DUP1 SWAP2 SUB SWAP1 REVERT JUMPDEST PUSH1 0x4 PUSH1 0x0 DUP4 DUP2 MSTORE PUSH1 0x20 ADD SWAP1 DUP2 MSTORE PUSH1 0x20 ADD PUSH1 0x0 KECCAK256 PUSH1 0x0 SWAP1 SLOAD SWAP1 PUSH2 0x100 EXP SWAP1 DIV PUSH20 0xFFFFFFFFFFFFFFFFFFFFFFFFFFFFFFFFFFFFFFFF AND SWAP1 POP SWAP2 SWAP1 POP JUMP JUMPDEST PUSH1 0x0 PUSH2 0x71F DUP3 PUSH2 0x8AC JUMP JUMPDEST SWAP1 POP DUP1 PUSH20 0xFFFFFFFFFFFFFFFFFFFFFFFFFFFFFFFFFFFFFFFF AND DUP4 PUSH20 0xFFFFFFFFFFFFFFFFFFFFFFFFFFFFFFFFFFFFFFFF AND EQ ISZERO PUSH2 0x790 JUMPI PUSH1 0x40 MLOAD PUSH32 0x8C379A000000000000000000000000000000000000000000000000000000000 DUP2 MSTORE PUSH1 0x4 ADD PUSH2 0x787 SWAP1 PUSH2 0x2112 JUMP JUMPDEST PUSH1 0x40 MLOAD DUP1 SWAP2 SUB SWAP1 REVERT JUMPDEST DUP1 PUSH20 0xFFFFFFFFFFFFFFFFFFFFFFFFFFFFFFFFFFFFFFFF AND PUSH2 0x7AF PUSH2 0xE54 JUMP JUMPDEST PUSH20 0xFFFFFFFFFFFFFFFFFFFFFFFFFFFFFFFFFFFFFFFF AND EQ DUP1 PUSH2 0x7DE JUMPI POP PUSH2 0x7DD DUP2 PUSH2 0x7D8 PUSH2 0xE54 JUMP JUMPDEST PUSH2 0xCEA JUMP JUMPDEST JUMPDEST PUSH2 0x81D JUMPI PUSH1 0x40 MLOAD PUSH32 0x8C379A000000000000000000000000000000000000000000000000000000000 DUP2 MSTORE PUSH1 0x4 ADD PUSH2 0x814 SWAP1 PUSH2 0x2072 JUMP JUMPDEST PUSH1 0x40 MLOAD DUP1 SWAP2 SUB SWAP1 REVERT JUMPDEST PUSH2 0x827 DUP4 DUP4 PUSH2 0xE5C JUMP JUMPDEST POP POP POP JUMP JUMPDEST PUSH2 0x83D PUSH2 0x837 PUSH2 0xE54 JUMP JUMPDEST DUP3 PUSH2 0xF15 JUMP JUMPDEST PUSH2 0x87C JUMPI PUSH1 0x40 MLOAD PUSH32 0x8C379A000000000000000000000000000000000000000000000000000000000 DUP2 MSTORE PUSH1 0x4 ADD PUSH2 0x873 SWAP1 PUSH2 0x2132 JUMP JUMPDEST PUSH1 0x40 MLOAD DUP1 SWAP2 SUB SWAP1 REVERT JUMPDEST PUSH2 0x887 DUP4 DUP4 DUP4 PUSH2 0xFF3 JUMP JUMPDEST POP POP POP JUMP JUMPDEST PUSH2 0x8A7 DUP4 DUP4 DUP4 PUSH1 0x40 MLOAD DUP1 PUSH1 0x20 ADD PUSH1 0x40 MSTORE DUP1 PUSH1 0x0 DUP2 MSTORE POP PUSH2 0xBE1 JUMP JUMPDEST POP POP POP JUMP JUMPDEST PUSH1 0x0 DUP1 PUSH1 0x2 PUSH1 0x0 DUP5 DUP2 MSTORE PUSH1 0x20 ADD SWAP1 DUP2 MSTORE PUSH1 0x20 ADD PUSH1 0x0 KECCAK256 PUSH1 0x0 SWAP1 SLOAD SWAP1 PUSH2 0x100 EXP SWAP1 DIV PUSH20 0xFFFFFFFFFFFFFFFFFFFFFFFFFFFFFFFFFFFFFFFF AND SWAP1 POP PUSH1 0x0 PUSH20 0xFFFFFFFFFFFFFFFFFFFFFFFFFFFFFFFFFFFFFFFF AND DUP2 PUSH20 0xFFFFFFFFFFFFFFFFFFFFFFFFFFFFFFFFFFFFFFFF AND EQ ISZERO PUSH2 0x955 JUMPI PUSH1 0x40 MLOAD PUSH32 0x8C379A000000000000000000000000000000000000000000000000000000000 DUP2 MSTORE PUSH1 0x4 ADD PUSH2 0x94C SWAP1 PUSH2 0x2092 JUMP JUMPDEST PUSH1 0x40 MLOAD DUP1 SWAP2 SUB SWAP1 REVERT JUMPDEST DUP1 SWAP2 POP POP SWAP2 SWAP1 POP JUMP JUMPDEST PUSH1 0x0 DUP1 PUSH20 0xFFFFFFFFFFFFFFFFFFFFFFFFFFFFFFFFFFFFFFFF AND DUP3 PUSH20 0xFFFFFFFFFFFFFFFFFFFFFFFFFFFFFFFFFFFFFFFF AND EQ ISZERO PUSH2 0x9CF JUMPI PUSH1 0x40 MLOAD PUSH32 0x8C379A000000000000000000000000000000000000000000000000000000000 DUP2 MSTORE PUSH1 0x4 ADD PUSH2 0x9C6 SWAP1 PUSH2 0x2052 JUMP JUMPDEST PUSH1 0x40 MLOAD DUP1 SWAP2 SUB SWAP1 REVERT JUMPDEST PUSH1 0x3 PUSH1 0x0 DUP4 PUSH20 0xFFFFFFFFFFFFFFFFFFFFFFFFFFFFFFFFFFFFFFFF AND PUSH20 0xFFFFFFFFFFFFFFFFFFFFFFFFFFFFFFFFFFFFFFFF AND DUP2 MSTORE PUSH1 0x20 ADD SWAP1 DUP2 MSTORE PUSH1 0x20 ADD PUSH1 0x0 KECCAK256 SLOAD SWAP1 POP SWAP2 SWAP1 POP JUMP JUMPDEST PUSH1 0x60 PUSH1 0x1 DUP1 SLOAD PUSH2 0xA25 SWAP1 PUSH2 0x243C JUMP JUMPDEST DUP1 PUSH1 0x1F ADD PUSH1 0x20 DUP1 SWAP2 DIV MUL PUSH1 0x20 ADD PUSH1 0x40 MLOAD SWAP1 DUP2 ADD PUSH1 0x40 MSTORE DUP1 SWAP3 SWAP2 SWAP1 DUP2 DUP2 MSTORE PUSH1 0x20 ADD DUP3 DUP1 SLOAD PUSH2 0xA51 SWAP1 PUSH2 0x243C JUMP JUMPDEST DUP1 ISZERO PUSH2 0xA9E JUMPI DUP1 PUSH1 0x1F LT PUSH2 0xA73 JUMPI PUSH2 0x100 DUP1 DUP4 SLOAD DIV MUL DUP4 MSTORE SWAP2 PUSH1 0x20 ADD SWAP2 PUSH2 0xA9E JUMP JUMPDEST DUP3 ADD SWAP2 SWAP1 PUSH1 0x0 MSTORE PUSH1 0x20 PUSH1 0x0 KECCAK256 SWAP1 JUMPDEST DUP2 SLOAD DUP2 MSTORE SWAP1 PUSH1 0x1 ADD SWAP1 PUSH1 0x20 ADD DUP1 DUP4 GT PUSH2 0xA81 JUMPI DUP3 SWAP1 SUB PUSH1 0x1F AND DUP3 ADD SWAP2 JUMPDEST POP POP POP POP POP SWAP1 POP SWAP1 JUMP JUMPDEST PUSH2 0xABA PUSH2 0xAB3 PUSH2 0xE54 JUMP JUMPDEST DUP4 DUP4 PUSH2 0x125A JUMP JUMPDEST POP POP JUMP JUMPDEST PUSH1 0x6 PUSH1 0x20 MSTORE DUP1 PUSH1 0x0 MSTORE PUSH1 0x40 PUSH1 0x0 KECCAK256 PUSH1 0x0 SWAP2 POP SWAP1 POP DUP1 PUSH1 0x0 ADD SLOAD SWAP1 DUP1 PUSH1 0x1 ADD SLOAD SWAP1 DUP1 PUSH1 0x2 ADD SLOAD SWAP1 DUP1 PUSH1 0x3 ADD SLOAD SWAP1 DUP1 PUSH1 0x4 ADD SLOAD SWAP1 DUP1 PUSH1 0x5 ADD PUSH1 0x0 SWAP1 SLOAD SWAP1 PUSH2 0x100 EXP SWAP1 DIV PUSH20 0xFFFFFFFFFFFFFFFFFFFFFFFFFFFFFFFFFFFFFFFF AND SWAP1 DUP1 PUSH1 0x6 ADD PUSH1 0x0 SWAP1 SLOAD SWAP1 PUSH2 0x100 EXP SWAP1 DIV PUSH20 0xFFFFFFFFFFFFFFFFFFFFFFFFFFFFFFFFFFFFFFFF AND SWAP1 DUP1 PUSH1 0x7 ADD DUP1 SLOAD PUSH2 0xB4B SWAP1 PUSH2 0x243C JUMP JUMPDEST DUP1 PUSH1 0x1F ADD PUSH1 0x20 DUP1 SWAP2 DIV MUL PUSH1 0x20 ADD PUSH1 0x40 MLOAD SWAP1 DUP2 ADD PUSH1 0x40 MSTORE DUP1 SWAP3 SWAP2 SWAP1 DUP2 DUP2 MSTORE PUSH1 0x20 ADD DUP3 DUP1 SLOAD PUSH2 0xB77 SWAP1 PUSH2 0x243C JUMP JUMPDEST DUP1 ISZERO PUSH2 0xBC4 JUMPI DUP1 PUSH1 0x1F LT PUSH2 0xB99 JUMPI PUSH2 0x100 DUP1 DUP4 SLOAD DIV MUL DUP4 MSTORE SWAP2 PUSH1 0x20 ADD SWAP2 PUSH2 0xBC4 JUMP JUMPDEST DUP3 ADD SWAP2 SWAP1 PUSH1 0x0 MSTORE PUSH1 0x20 PUSH1 0x0 KECCAK256 SWAP1 JUMPDEST DUP2 SLOAD DUP2 MSTORE SWAP1 PUSH1 0x1 ADD SWAP1 PUSH1 0x20 ADD DUP1 DUP4 GT PUSH2 0xBA7 JUMPI DUP3 SWAP1 SUB PUSH1 0x1F AND DUP3 ADD SWAP2 JUMPDEST POP POP POP POP POP SWAP1 DUP1 PUSH1 0x8 ADD PUSH1 0x0 SWAP1 SLOAD SWAP1 PUSH2 0x100 EXP SWAP1 DIV PUSH1 0xFF AND SWAP1 POP DUP10 JUMP JUMPDEST PUSH2 0xBF2 PUSH2 0xBEC PUSH2 0xE54 JUMP JUMPDEST DUP4 PUSH2 0xF15 JUMP JUMPDEST PUSH2 0xC31 JUMPI PUSH1 0x40 MLOAD PUSH32 0x8C379A000000000000000000000000000000000000000000000000000000000 DUP2 MSTORE PUSH1 0x4 ADD PUSH2 0xC28 SWAP1 PUSH2 0x2132 JUMP JUMPDEST PUSH1 0x40 MLOAD DUP1 SWAP2 SUB SWAP1 REVERT JUMPDEST PUSH2 0xC3D DUP5 DUP5 DUP5 DUP5 PUSH2 0x13C7 JUMP JUMPDEST POP POP POP POP JUMP JUMPDEST PUSH1 0x60 PUSH2 0xC4E DUP3 PUSH2 0xDE8 JUMP JUMPDEST PUSH2 0xC8D JUMPI PUSH1 0x40 MLOAD PUSH32 0x8C379A000000000000000000000000000000000000000000000000000000000 DUP2 MSTORE PUSH1 0x4 ADD PUSH2 0xC84 SWAP1 PUSH2 0x20D2 JUMP JUMPDEST PUSH1 0x40 MLOAD DUP1 SWAP2 SUB SWAP1 REVERT JUMPDEST PUSH1 0x0 PUSH2 0xC97 PUSH2 0x1423 JUMP JUMPDEST SWAP1 POP PUSH1 0x0 DUP2 MLOAD GT PUSH2 0xCB7 JUMPI PUSH1 0x40 MLOAD DUP1 PUSH1 0x20 ADD PUSH1 0x40 MSTORE DUP1 PUSH1 0x0 DUP2 MSTORE POP PUSH2 0xCE2 JUMP JUMPDEST DUP1 PUSH2 0xCC1 DUP5 PUSH2 0x143A JUMP JUMPDEST PUSH1 0x40 MLOAD PUSH1 0x20 ADD PUSH2 0xCD2 SWAP3 SWAP2 SWAP1 PUSH2 0x1EEA JUMP JUMPDEST PUSH1 0x40 MLOAD PUSH1 0x20 DUP2 DUP4 SUB SUB DUP2 MSTORE SWAP1 PUSH1 0x40 MSTORE JUMPDEST SWAP2 POP POP SWAP2 SWAP1 POP JUMP JUMPDEST PUSH1 0x0 PUSH1 0x5 PUSH1 0x0 DUP5 PUSH20 0xFFFFFFFFFFFFFFFFFFFFFFFFFFFFFFFFFFFFFFFF AND PUSH20 0xFFFFFFFFFFFFFFFFFFFFFFFFFFFFFFFFFFFFFFFF AND DUP2 MSTORE PUSH1 0x20 ADD SWAP1 DUP2 MSTORE PUSH1 0x20 ADD PUSH1 0x0 KECCAK256 PUSH1 0x0 DUP4 PUSH20 0xFFFFFFFFFFFFFFFFFFFFFFFFFFFFFFFFFFFFFFFF AND PUSH20 0xFFFFFFFFFFFFFFFFFFFFFFFFFFFFFFFFFFFFFFFF AND DUP2 MSTORE PUSH1 0x20 ADD SWAP1 DUP2 MSTORE PUSH1 0x20 ADD PUSH1 0x0 KECCAK256 PUSH1 0x0 SWAP1 SLOAD SWAP1 PUSH2 0x100 EXP SWAP1 DIV PUSH1 0xFF AND SWAP1 POP SWAP3 SWAP2 POP POP JUMP JUMPDEST PUSH1 0x0 PUSH32 0x1FFC9A700000000000000000000000000000000000000000000000000000000 PUSH28 0xFFFFFFFFFFFFFFFFFFFFFFFFFFFFFFFFFFFFFFFFFFFFFFFFFFFFFFFF NOT AND DUP3 PUSH28 0xFFFFFFFFFFFFFFFFFFFFFFFFFFFFFFFFFFFFFFFFFFFFFFFFFFFFFFFF NOT AND EQ SWAP1 POP SWAP2 SWAP1 POP JUMP JUMPDEST PUSH1 0x0 DUP1 PUSH20 0xFFFFFFFFFFFFFFFFFFFFFFFFFFFFFFFFFFFFFFFF AND PUSH1 0x2 PUSH1 0x0 DUP5 DUP2 MSTORE PUSH1 0x20 ADD SWAP1 DUP2 MSTORE PUSH1 0x20 ADD PUSH1 0x0 KECCAK256 PUSH1 0x0 SWAP1 SLOAD SWAP1 PUSH2 0x100 EXP SWAP1 DIV PUSH20 0xFFFFFFFFFFFFFFFFFFFFFFFFFFFFFFFFFFFFFFFF AND PUSH20 0xFFFFFFFFFFFFFFFFFFFFFFFFFFFFFFFFFFFFFFFF AND EQ ISZERO SWAP1 POP SWAP2 SWAP1 POP JUMP JUMPDEST PUSH1 0x0 CALLER SWAP1 POP SWAP1 JUMP JUMPDEST DUP2 PUSH1 0x4 PUSH1 0x0 DUP4 DUP2 MSTORE PUSH1 0x20 ADD SWAP1 DUP2 MSTORE PUSH1 0x20 ADD PUSH1 0x0 KECCAK256 PUSH1 0x0 PUSH2 0x100 EXP DUP2 SLOAD DUP2 PUSH20 0xFFFFFFFFFFFFFFFFFFFFFFFFFFFFFFFFFFFFFFFF MUL NOT AND SWAP1 DUP4 PUSH20 0xFFFFFFFFFFFFFFFFFFFFFFFFFFFFFFFFFFFFFFFF AND MUL OR SWAP1 SSTORE POP DUP1 DUP3 PUSH20 0xFFFFFFFFFFFFFFFFFFFFFFFFFFFFFFFFFFFFFFFF AND PUSH2 0xECF DUP4 PUSH2 0x8AC JUMP JUMPDEST PUSH20 0xFFFFFFFFFFFFFFFFFFFFFFFFFFFFFFFFFFFFFFFF AND PUSH32 0x8C5BE1E5EBEC7D5BD14F71427D1E84F3DD0314C0F7B2291E5B200AC8C7C3B925 PUSH1 0x40 MLOAD PUSH1 0x40 MLOAD DUP1 SWAP2 SUB SWAP1 LOG4 POP POP JUMP JUMPDEST PUSH1 0x0 PUSH2 0xF20 DUP3 PUSH2 0xDE8 JUMP JUMPDEST PUSH2 0xF5F JUMPI PUSH1 0x40 MLOAD PUSH32 0x8C379A000000000000000000000000000000000000000000000000000000000 DUP2 MSTORE PUSH1 0x4 ADD PUSH2 0xF56 SWAP1 PUSH2 0x2032 JUMP JUMPDEST PUSH1 0x40 MLOAD DUP1 SWAP2 SUB SWAP1 REVERT JUMPDEST PUSH1 0x0 PUSH2 0xF6A DUP4 PUSH2 0x8AC JUMP JUMPDEST SWAP1 POP DUP1 PUSH20 0xFFFFFFFFFFFFFFFFFFFFFFFFFFFFFFFFFFFFFFFF AND DUP5 PUSH20 0xFFFFFFFFFFFFFFFFFFFFFFFFFFFFFFFFFFFFFFFF AND EQ DUP1 PUSH2 0xFAC JUMPI POP PUSH2 0xFAB DUP2 DUP6 PUSH2 0xCEA JUMP JUMPDEST JUMPDEST DUP1 PUSH2 0xFEA JUMPI POP DUP4 PUSH20 0xFFFFFFFFFFFFFFFFFFFFFFFFFFFFFFFFFFFFFFFF AND PUSH2 0xFD2 DUP5 PUSH2 0x68F JUMP JUMPDEST PUSH20 0xFFFFFFFFFFFFFFFFFFFFFFFFFFFFFFFFFFFFFFFF AND EQ JUMPDEST SWAP2 POP POP SWAP3 SWAP2 POP POP JUMP JUMPDEST DUP3 PUSH20 0xFFFFFFFFFFFFFFFFFFFFFFFFFFFFFFFFFFFFFFFF AND PUSH2 0x1013 DUP3 PUSH2 0x8AC JUMP JUMPDEST PUSH20 0xFFFFFFFFFFFFFFFFFFFFFFFFFFFFFFFFFFFFFFFF AND EQ PUSH2 0x1069 JUMPI PUSH1 0x40 MLOAD PUSH32 0x8C379A000000000000000000000000000000000000000000000000000000000 DUP2 MSTORE PUSH1 0x4 ADD PUSH2 0x1060 SWAP1 PUSH2 0x1FD2 JUMP JUMPDEST PUSH1 0x40 MLOAD DUP1 SWAP2 SUB SWAP1 REVERT JUMPDEST PUSH1 0x0 PUSH20 0xFFFFFFFFFFFFFFFFFFFFFFFFFFFFFFFFFFFFFFFF AND DUP3 PUSH20 0xFFFFFFFFFFFFFFFFFFFFFFFFFFFFFFFFFFFFFFFF AND EQ ISZERO PUSH2 0x10D9 JUMPI PUSH1 0x40 MLOAD PUSH32 0x8C379A000000000000000000000000000000000000000000000000000000000 DUP2 MSTORE PUSH1 0x4 ADD PUSH2 0x10D0 SWAP1 PUSH2 0x1FF2 JUMP JUMPDEST PUSH1 0x40 MLOAD DUP1 SWAP2 SUB SWAP1 REVERT JUMPDEST PUSH2 0x10E4 DUP4 DUP4 DUP4 PUSH2 0x159B JUMP JUMPDEST PUSH2 0x10EF PUSH1 0x0 DUP3 PUSH2 0xE5C JUMP JUMPDEST PUSH1 0x1 PUSH1 0x3 PUSH1 0x0 DUP6 PUSH20 0xFFFFFFFFFFFFFFFFFFFFFFFFFFFFFFFFFFFFFFFF AND PUSH20 0xFFFFFFFFFFFFFFFFFFFFFFFFFFFFFFFFFFFFFFFF AND DUP2 MSTORE PUSH1 0x20 ADD SWAP1 DUP2 MSTORE PUSH1 0x20 ADD PUSH1 0x0 KECCAK256 PUSH1 0x0 DUP3 DUP3 SLOAD PUSH2 0x113F SWAP2 SWAP1 PUSH2 0x2352 JUMP JUMPDEST SWAP3 POP POP DUP2 SWAP1 SSTORE POP PUSH1 0x1 PUSH1 0x3 PUSH1 0x0 DUP5 PUSH20 0xFFFFFFFFFFFFFFFFFFFFFFFFFFFFFFFFFFFFFFFF AND PUSH20 0xFFFFFFFFFFFFFFFFFFFFFFFFFFFFFFFFFFFFFFFF AND DUP2 MSTORE PUSH1 0x20 ADD SWAP1 DUP2 MSTORE PUSH1 0x20 ADD PUSH1 0x0 KECCAK256 PUSH1 0x0 DUP3 DUP3 SLOAD PUSH2 0x1196 SWAP2 SWAP1 PUSH2 0x22CB JUMP JUMPDEST SWAP3 POP POP DUP2 SWAP1 SSTORE POP DUP2 PUSH1 0x2 PUSH1 0x0 DUP4 DUP2 MSTORE PUSH1 0x20 ADD SWAP1 DUP2 MSTORE PUSH1 0x20 ADD PUSH1 0x0 KECCAK256 PUSH1 0x0 PUSH2 0x100 EXP DUP2 SLOAD DUP2 PUSH20 0xFFFFFFFFFFFFFFFFFFFFFFFFFFFFFFFFFFFFFFFF MUL NOT AND SWAP1 DUP4 PUSH20 0xFFFFFFFFFFFFFFFFFFFFFFFFFFFFFFFFFFFFFFFF AND MUL OR SWAP1 SSTORE POP DUP1 DUP3 PUSH20 0xFFFFFFFFFFFFFFFFFFFFFFFFFFFFFFFFFFFFFFFF AND DUP5 PUSH20 0xFFFFFFFFFFFFFFFFFFFFFFFFFFFFFFFFFFFFFFFF AND PUSH32 0xDDF252AD1BE2C89B69C2B068FC378DAA952BA7F163C4A11628F55A4DF523B3EF PUSH1 0x40 MLOAD PUSH1 0x40 MLOAD DUP1 SWAP2 SUB SWAP1 LOG4 PUSH2 0x1255 DUP4 DUP4 DUP4 PUSH2 0x15A0 JUMP JUMPDEST POP POP POP JUMP JUMPDEST DUP2 PUSH20 0xFFFFFFFFFFFFFFFFFFFFFFFFFFFFFFFFFFFFFFFF AND DUP4 PUSH20 0xFFFFFFFFFFFFFFFFFFFFFFFFFFFFFFFFFFFFFFFF AND EQ ISZERO PUSH2 0x12C9 JUMPI PUSH1 0x40 MLOAD PUSH32 0x8C379A000000000000000000000000000000000000000000000000000000000 DUP2 MSTORE PUSH1 0x4 ADD PUSH2 0x12C0 SWAP1 PUSH2 0x2012 JUMP JUMPDEST PUSH1 0x40 MLOAD DUP1 SWAP2 SUB SWAP1 REVERT JUMPDEST DUP1 PUSH1 0x5 PUSH1 0x0 DUP6 PUSH20 0xFFFFFFFFFFFFFFFFFFFFFFFFFFFFFFFFFFFFFFFF AND PUSH20 0xFFFFFFFFFFFFFFFFFFFFFFFFFFFFFFFFFFFFFFFF AND DUP2 MSTORE PUSH1 0x20 ADD SWAP1 DUP2 MSTORE PUSH1 0x20 ADD PUSH1 0x0 KECCAK256 PUSH1 0x0 DUP5 PUSH20 0xFFFFFFFFFFFFFFFFFFFFFFFFFFFFFFFFFFFFFFFF AND PUSH20 0xFFFFFFFFFFFFFFFFFFFFFFFFFFFFFFFFFFFFFFFF AND DUP2 MSTORE PUSH1 0x20 ADD SWAP1 DUP2 MSTORE PUSH1 0x20 ADD PUSH1 0x0 KECCAK256 PUSH1 0x0 PUSH2 0x100 EXP DUP2 SLOAD DUP2 PUSH1 0xFF MUL NOT AND SWAP1 DUP4 ISZERO ISZERO MUL OR SWAP1 SSTORE POP DUP2 PUSH20 0xFFFFFFFFFFFFFFFFFFFFFFFFFFFFFFFFFFFFFFFF AND DUP4 PUSH20 0xFFFFFFFFFFFFFFFFFFFFFFFFFFFFFFFFFFFFFFFF AND PUSH32 0x17307EAB39AB6107E8899845AD3D59BD9653F200F220920489CA2B5937696C31 DUP4 PUSH1 0x40 MLOAD PUSH2 0x13BA SWAP2 SWAP1 PUSH2 0x1F75 JUMP JUMPDEST PUSH1 0x40 MLOAD DUP1 SWAP2 SUB SWAP1 LOG3 POP POP POP JUMP JUMPDEST PUSH2 0x13D2 DUP5 DUP5 DUP5 PUSH2 0xFF3 JUMP JUMPDEST PUSH2 0x13DE DUP5 DUP5 DUP5 DUP5 PUSH2 0x15A5 JUMP JUMPDEST PUSH2 0x141D JUMPI PUSH1 0x40 MLOAD PUSH32 0x8C379A000000000000000000000000000000000000000000000000000000000 DUP2 MSTORE PUSH1 0x4 ADD PUSH2 0x1414 SWAP1 PUSH2 0x1FB2 JUMP JUMPDEST PUSH1 0x40 MLOAD DUP1 SWAP2 SUB SWAP1 REVERT JUMPDEST POP POP POP POP JUMP JUMPDEST PUSH1 0x60 PUSH1 0x40 MLOAD DUP1 PUSH1 0x20 ADD PUSH1 0x40 MSTORE DUP1 PUSH1 0x0 DUP2 MSTORE POP SWAP1 POP SWAP1 JUMP JUMPDEST PUSH1 0x60 PUSH1 0x0 DUP3 EQ ISZERO PUSH2 0x1482 JUMPI PUSH1 0x40 MLOAD DUP1 PUSH1 0x40 ADD PUSH1 0x40 MSTORE DUP1 PUSH1 0x1 DUP2 MSTORE PUSH1 0x20 ADD PUSH32 0x3000000000000000000000000000000000000000000000000000000000000000 DUP2 MSTORE POP SWAP1 POP PUSH2 0x1596 JUMP JUMPDEST PUSH1 0x0 DUP3 SWAP1 POP PUSH1 0x0 JUMPDEST PUSH1 0x0 DUP3 EQ PUSH2 0x14B4 JUMPI DUP1 DUP1 PUSH2 0x149D SWAP1 PUSH2 0x249F JUMP JUMPDEST SWAP2 POP POP PUSH1 0xA DUP3 PUSH2 0x14AD SWAP2 SWAP1 PUSH2 0x2321 JUMP JUMPDEST SWAP2 POP PUSH2 0x148A JUMP JUMPDEST PUSH1 0x0 DUP2 PUSH8 0xFFFFFFFFFFFFFFFF DUP2 GT ISZERO PUSH2 0x14D0 JUMPI PUSH2 0x14CF PUSH2 0x25D5 JUMP JUMPDEST JUMPDEST PUSH1 0x40 MLOAD SWAP1 DUP1 DUP3 MSTORE DUP1 PUSH1 0x1F ADD PUSH1 0x1F NOT AND PUSH1 0x20 ADD DUP3 ADD PUSH1 0x40 MSTORE DUP1 ISZERO PUSH2 0x1502 JUMPI DUP2 PUSH1 0x20 ADD PUSH1 0x1 DUP3 MUL DUP1 CALLDATASIZE DUP4 CALLDATACOPY DUP1 DUP3 ADD SWAP2 POP POP SWAP1 POP JUMPDEST POP SWAP1 POP JUMPDEST PUSH1 0x0 DUP6 EQ PUSH2 0x158F JUMPI PUSH1 0x1 DUP3 PUSH2 0x151B SWAP2 SWAP1 PUSH2 0x2352 JUMP JUMPDEST SWAP2 POP PUSH1 0xA DUP6 PUSH2 0x152A SWAP2 SWAP1 PUSH2 0x24E8 JUMP JUMPDEST PUSH1 0x30 PUSH2 0x1536 SWAP2 SWAP1 PUSH2 0x22CB JUMP JUMPDEST PUSH1 0xF8 SHL DUP2 DUP4 DUP2 MLOAD DUP2 LT PUSH2 0x154C JUMPI PUSH2 0x154B PUSH2 0x25A6 JUMP JUMPDEST JUMPDEST PUSH1 0x20 ADD ADD SWAP1 PUSH31 0xFFFFFFFFFFFFFFFFFFFFFFFFFFFFFFFFFFFFFFFFFFFFFFFFFFFFFFFFFFFFFF NOT AND SWAP1 DUP2 PUSH1 0x0 BYTE SWAP1 MSTORE8 POP PUSH1 0xA DUP6 PUSH2 0x1588 SWAP2 SWAP1 PUSH2 0x2321 JUMP JUMPDEST SWAP5 POP PUSH2 0x1506 JUMP JUMPDEST DUP1 SWAP4 POP POP POP POP JUMPDEST SWAP2 SWAP1 POP JUMP JUMPDEST POP POP POP JUMP JUMPDEST POP POP POP JUMP JUMPDEST PUSH1 0x0 PUSH2 0x15C6 DUP5 PUSH20 0xFFFFFFFFFFFFFFFFFFFFFFFFFFFFFFFFFFFFFFFF AND PUSH2 0x173C JUMP JUMPDEST ISZERO PUSH2 0x172F JUMPI DUP4 PUSH20 0xFFFFFFFFFFFFFFFFFFFFFFFFFFFFFFFFFFFFFFFF AND PUSH4 0x150B7A02 PUSH2 0x15EF PUSH2 0xE54 JUMP JUMPDEST DUP8 DUP7 DUP7 PUSH1 0x40 MLOAD DUP6 PUSH4 0xFFFFFFFF AND PUSH1 0xE0 SHL DUP2 MSTORE PUSH1 0x4 ADD PUSH2 0x1611 SWAP5 SWAP4 SWAP3 SWAP2 SWAP1 PUSH2 0x1F29 JUMP JUMPDEST PUSH1 0x20 PUSH1 0x40 MLOAD DUP1 DUP4 SUB DUP2 PUSH1 0x0 DUP8 DUP1 EXTCODESIZE ISZERO DUP1 ISZERO PUSH2 0x162B JUMPI PUSH1 0x0 DUP1 REVERT JUMPDEST POP GAS CALL SWAP3 POP POP POP DUP1 ISZERO PUSH2 0x165C JUMPI POP PUSH1 0x40 MLOAD RETURNDATASIZE PUSH1 0x1F NOT PUSH1 0x1F DUP3 ADD AND DUP3 ADD DUP1 PUSH1 0x40 MSTORE POP DUP2 ADD SWAP1 PUSH2 0x1659 SWAP2 SWAP1 PUSH2 0x1B3B JUMP JUMPDEST PUSH1 0x1 JUMPDEST PUSH2 0x16DF JUMPI RETURNDATASIZE DUP1 PUSH1 0x0 DUP2 EQ PUSH2 0x168C JUMPI PUSH1 0x40 MLOAD SWAP2 POP PUSH1 0x1F NOT PUSH1 0x3F RETURNDATASIZE ADD AND DUP3 ADD PUSH1 0x40 MSTORE RETURNDATASIZE DUP3 MSTORE RETURNDATASIZE PUSH1 0x0 PUSH1 0x20 DUP5 ADD RETURNDATACOPY PUSH2 0x1691 JUMP JUMPDEST PUSH1 0x60 SWAP2 POP JUMPDEST POP PUSH1 0x0 DUP2 MLOAD EQ ISZERO PUSH2 0x16D7 JUMPI PUSH1 0x40 MLOAD PUSH32 0x8C379A000000000000000000000000000000000000000000000000000000000 DUP2 MSTORE PUSH1 0x4 ADD PUSH2 0x16CE SWAP1 PUSH2 0x1FB2 JUMP JUMPDEST PUSH1 0x40 MLOAD DUP1 SWAP2 SUB SWAP1 REVERT JUMPDEST DUP1 MLOAD DUP2 PUSH1 0x20 ADD REVERT JUMPDEST PUSH4 0x150B7A02 PUSH1 0xE0 SHL PUSH28 0xFFFFFFFFFFFFFFFFFFFFFFFFFFFFFFFFFFFFFFFFFFFFFFFFFFFFFFFF NOT AND DUP2 PUSH28 0xFFFFFFFFFFFFFFFFFFFFFFFFFFFFFFFFFFFFFFFFFFFFFFFFFFFFFFFF NOT AND EQ SWAP2 POP POP PUSH2 0x1734 JUMP JUMPDEST PUSH1 0x1 SWAP1 POP JUMPDEST SWAP5 SWAP4 POP POP POP POP JUMP JUMPDEST PUSH1 0x0 DUP1 DUP3 PUSH20 0xFFFFFFFFFFFFFFFFFFFFFFFFFFFFFFFFFFFFFFFF AND EXTCODESIZE GT SWAP1 POP SWAP2 SWAP1 POP JUMP JUMPDEST DUP3 DUP1 SLOAD PUSH2 0x176B SWAP1 PUSH2 0x243C JUMP JUMPDEST SWAP1 PUSH1 0x0 MSTORE PUSH1 0x20 PUSH1 0x0 KECCAK256 SWAP1 PUSH1 0x1F ADD PUSH1 0x20 SWAP1 DIV DUP2 ADD SWAP3 DUP3 PUSH2 0x178D JUMPI PUSH1 0x0 DUP6 SSTORE PUSH2 0x17D4 JUMP JUMPDEST DUP3 PUSH1 0x1F LT PUSH2 0x17A6 JUMPI DUP1 MLOAD PUSH1 0xFF NOT AND DUP4 DUP1 ADD OR DUP6 SSTORE PUSH2 0x17D4 JUMP JUMPDEST DUP3 DUP1 ADD PUSH1 0x1 ADD DUP6 SSTORE DUP3 ISZERO PUSH2 0x17D4 JUMPI SWAP2 DUP3 ADD JUMPDEST DUP3 DUP2 GT ISZERO PUSH2 0x17D3 JUMPI DUP3 MLOAD DUP3 SSTORE SWAP2 PUSH1 0x20 ADD SWAP2 SWAP1 PUSH1 0x1 ADD SWAP1 PUSH2 0x17B8 JUMP JUMPDEST JUMPDEST POP SWAP1 POP PUSH2 0x17E1 SWAP2 SWAP1 PUSH2 0x17E5 JUMP JUMPDEST POP SWAP1 JUMP JUMPDEST JUMPDEST DUP1 DUP3 GT ISZERO PUSH2 0x17FE JUMPI PUSH1 0x0 DUP2 PUSH1 0x0 SWAP1 SSTORE POP PUSH1 0x1 ADD PUSH2 0x17E6 JUMP JUMPDEST POP SWAP1 JUMP JUMPDEST PUSH1 0x0 PUSH2 0x1815 PUSH2 0x1810 DUP5 PUSH2 0x2226 JUMP JUMPDEST PUSH2 0x2201 JUMP JUMPDEST SWAP1 POP DUP3 DUP2 MSTORE PUSH1 0x20 DUP2 ADD DUP5 DUP5 DUP5 ADD GT ISZERO PUSH2 0x1831 JUMPI PUSH2 0x1830 PUSH2 0x2609 JUMP JUMPDEST JUMPDEST PUSH2 0x183C DUP5 DUP3 DUP6 PUSH2 0x23FA JUMP JUMPDEST POP SWAP4 SWAP3 POP POP POP JUMP JUMPDEST PUSH1 0x0 PUSH2 0x1857 PUSH2 0x1852 DUP5 PUSH2 0x2257 JUMP JUMPDEST PUSH2 0x2201 JUMP JUMPDEST SWAP1 POP DUP3 DUP2 MSTORE PUSH1 0x20 DUP2 ADD DUP5 DUP5 DUP5 ADD GT ISZERO PUSH2 0x1873 JUMPI PUSH2 0x1872 PUSH2 0x2609 JUMP JUMPDEST JUMPDEST PUSH2 0x187E DUP5 DUP3 DUP6 PUSH2 0x23FA JUMP JUMPDEST POP SWAP4 SWAP3 POP POP POP JUMP JUMPDEST PUSH1 0x0 DUP2 CALLDATALOAD SWAP1 POP PUSH2 0x1895 DUP2 PUSH2 0x29E0 JUMP JUMPDEST SWAP3 SWAP2 POP POP JUMP JUMPDEST PUSH1 0x0 DUP2 CALLDATALOAD SWAP1 POP PUSH2 0x18AA DUP2 PUSH2 0x29F7 JUMP JUMPDEST SWAP3 SWAP2 POP POP JUMP JUMPDEST PUSH1 0x0 DUP2 CALLDATALOAD SWAP1 POP PUSH2 0x18BF DUP2 PUSH2 0x2A0E JUMP JUMPDEST SWAP3 SWAP2 POP POP JUMP JUMPDEST PUSH1 0x0 DUP2 MLOAD SWAP1 POP PUSH2 0x18D4 DUP2 PUSH2 0x2A0E JUMP JUMPDEST SWAP3 SWAP2 POP POP JUMP JUMPDEST PUSH1 0x0 DUP3 PUSH1 0x1F DUP4 ADD SLT PUSH2 0x18EF JUMPI PUSH2 0x18EE PUSH2 0x2604 JUMP JUMPDEST JUMPDEST DUP2 CALLDATALOAD PUSH2 0x18FF DUP5 DUP3 PUSH1 0x20 DUP7 ADD PUSH2 0x1802 JUMP JUMPDEST SWAP2 POP POP SWAP3 SWAP2 POP POP JUMP JUMPDEST PUSH1 0x0 DUP3 PUSH1 0x1F DUP4 ADD SLT PUSH2 0x191D JUMPI PUSH2 0x191C PUSH2 0x2604 JUMP JUMPDEST JUMPDEST DUP2 CALLDATALOAD PUSH2 0x192D DUP5 DUP3 PUSH1 0x20 DUP7 ADD PUSH2 0x1844 JUMP JUMPDEST SWAP2 POP POP SWAP3 SWAP2 POP POP JUMP JUMPDEST PUSH1 0x0 DUP2 CALLDATALOAD SWAP1 POP PUSH2 0x1945 DUP2 PUSH2 0x2A25 JUMP JUMPDEST SWAP3 SWAP2 POP POP JUMP JUMPDEST PUSH1 0x0 PUSH1 0x20 DUP3 DUP5 SUB SLT ISZERO PUSH2 0x1961 JUMPI PUSH2 0x1960 PUSH2 0x2613 JUMP JUMPDEST JUMPDEST PUSH1 0x0 PUSH2 0x196F DUP5 DUP3 DUP6 ADD PUSH2 0x1886 JUMP JUMPDEST SWAP2 POP POP SWAP3 SWAP2 POP POP JUMP JUMPDEST PUSH1 0x0 DUP1 PUSH1 0x40 DUP4 DUP6 SUB SLT ISZERO PUSH2 0x198F JUMPI PUSH2 0x198E PUSH2 0x2613 JUMP JUMPDEST JUMPDEST PUSH1 0x0 PUSH2 0x199D DUP6 DUP3 DUP7 ADD PUSH2 0x1886 JUMP JUMPDEST SWAP3 POP POP PUSH1 0x20 PUSH2 0x19AE DUP6 DUP3 DUP7 ADD PUSH2 0x1886 JUMP JUMPDEST SWAP2 POP POP SWAP3 POP SWAP3 SWAP1 POP JUMP JUMPDEST PUSH1 0x0 DUP1 PUSH1 0x0 PUSH1 0x60 DUP5 DUP7 SUB SLT ISZERO PUSH2 0x19D1 JUMPI PUSH2 0x19D0 PUSH2 0x2613 JUMP JUMPDEST JUMPDEST PUSH1 0x0 PUSH2 0x19DF DUP7 DUP3 DUP8 ADD PUSH2 0x1886 JUMP JUMPDEST SWAP4 POP POP PUSH1 0x20 PUSH2 0x19F0 DUP7 DUP3 DUP8 ADD PUSH2 0x1886 JUMP JUMPDEST SWAP3 POP POP PUSH1 0x40 PUSH2 0x1A01 DUP7 DUP3 DUP8 ADD PUSH2 0x1936 JUMP JUMPDEST SWAP2 POP POP SWAP3 POP SWAP3 POP SWAP3 JUMP JUMPDEST PUSH1 0x0 DUP1 PUSH1 0x0 DUP1 PUSH1 0x80 DUP6 DUP8 SUB SLT ISZERO PUSH2 0x1A25 JUMPI PUSH2 0x1A24 PUSH2 0x2613 JUMP JUMPDEST JUMPDEST PUSH1 0x0 PUSH2 0x1A33 DUP8 DUP3 DUP9 ADD PUSH2 0x1886 JUMP JUMPDEST SWAP5 POP POP PUSH1 0x20 PUSH2 0x1A44 DUP8 DUP3 DUP9 ADD PUSH2 0x1886 JUMP JUMPDEST SWAP4 POP POP PUSH1 0x40 PUSH2 0x1A55 DUP8 DUP3 DUP9 ADD PUSH2 0x1936 JUMP JUMPDEST SWAP3 POP POP PUSH1 0x60 DUP6 ADD CALLDATALOAD PUSH8 0xFFFFFFFFFFFFFFFF DUP2 GT ISZERO PUSH2 0x1A76 JUMPI PUSH2 0x1A75 PUSH2 0x260E JUMP JUMPDEST JUMPDEST PUSH2 0x1A82 DUP8 DUP3 DUP9 ADD PUSH2 0x18DA JUMP JUMPDEST SWAP2 POP POP SWAP3 SWAP6 SWAP2 SWAP5 POP SWAP3 POP JUMP JUMPDEST PUSH1 0x0 DUP1 PUSH1 0x40 DUP4 DUP6 SUB SLT ISZERO PUSH2 0x1AA5 JUMPI PUSH2 0x1AA4 PUSH2 0x2613 JUMP JUMPDEST JUMPDEST PUSH1 0x0 PUSH2 0x1AB3 DUP6 DUP3 DUP7 ADD PUSH2 0x1886 JUMP JUMPDEST SWAP3 POP POP PUSH1 0x20 PUSH2 0x1AC4 DUP6 DUP3 DUP7 ADD PUSH2 0x189B JUMP JUMPDEST SWAP2 POP POP SWAP3 POP SWAP3 SWAP1 POP JUMP JUMPDEST PUSH1 0x0 DUP1 PUSH1 0x40 DUP4 DUP6 SUB SLT ISZERO PUSH2 0x1AE5 JUMPI PUSH2 0x1AE4 PUSH2 0x2613 JUMP JUMPDEST JUMPDEST PUSH1 0x0 PUSH2 0x1AF3 DUP6 DUP3 DUP7 ADD PUSH2 0x1886 JUMP JUMPDEST SWAP3 POP POP PUSH1 0x20 PUSH2 0x1B04 DUP6 DUP3 DUP7 ADD PUSH2 0x1936 JUMP JUMPDEST SWAP2 POP POP SWAP3 POP SWAP3 SWAP1 POP JUMP JUMPDEST PUSH1 0x0 PUSH1 0x20 DUP3 DUP5 SUB SLT ISZERO PUSH2 0x1B24 JUMPI PUSH2 0x1B23 PUSH2 0x2613 JUMP JUMPDEST JUMPDEST PUSH1 0x0 PUSH2 0x1B32 DUP5 DUP3 DUP6 ADD PUSH2 0x18B0 JUMP JUMPDEST SWAP2 POP POP SWAP3 SWAP2 POP POP JUMP JUMPDEST PUSH1 0x0 PUSH1 0x20 DUP3 DUP5 SUB SLT ISZERO PUSH2 0x1B51 JUMPI PUSH2 0x1B50 PUSH2 0x2613 JUMP JUMPDEST JUMPDEST PUSH1 0x0 PUSH2 0x1B5F DUP5 DUP3 DUP6 ADD PUSH2 0x18C5 JUMP JUMPDEST SWAP2 POP POP SWAP3 SWAP2 POP POP JUMP JUMPDEST PUSH1 0x0 PUSH1 0x20 DUP3 DUP5 SUB SLT ISZERO PUSH2 0x1B7E JUMPI PUSH2 0x1B7D PUSH2 0x2613 JUMP JUMPDEST JUMPDEST PUSH1 0x0 PUSH2 0x1B8C DUP5 DUP3 DUP6 ADD PUSH2 0x1936 JUMP JUMPDEST SWAP2 POP POP SWAP3 SWAP2 POP POP JUMP JUMPDEST PUSH1 0x0 DUP1 PUSH1 0x0 DUP1 PUSH1 0x0 DUP1 PUSH1 0x0 PUSH1 0xE0 DUP9 DUP11 SUB SLT ISZERO PUSH2 0x1BB4 JUMPI PUSH2 0x1BB3 PUSH2 0x2613 JUMP JUMPDEST JUMPDEST PUSH1 0x0 PUSH2 0x1BC2 DUP11 DUP3 DUP12 ADD PUSH2 0x1936 JUMP JUMPDEST SWAP8 POP POP PUSH1 0x20 PUSH2 0x1BD3 DUP11 DUP3 DUP12 ADD PUSH2 0x1936 JUMP JUMPDEST SWAP7 POP POP PUSH1 0x40 PUSH2 0x1BE4 DUP11 DUP3 DUP12 ADD PUSH2 0x1936 JUMP JUMPDEST SWAP6 POP POP PUSH1 0x60 PUSH2 0x1BF5 DUP11 DUP3 DUP12 ADD PUSH2 0x1936 JUMP JUMPDEST SWAP5 POP POP PUSH1 0x80 PUSH2 0x1C06 DUP11 DUP3 DUP12 ADD PUSH2 0x1936 JUMP JUMPDEST SWAP4 POP POP PUSH1 0xA0 PUSH2 0x1C17 DUP11 DUP3 DUP12 ADD PUSH2 0x1886 JUMP JUMPDEST SWAP3 POP POP PUSH1 0xC0 DUP9 ADD CALLDATALOAD PUSH8 0xFFFFFFFFFFFFFFFF DUP2 GT ISZERO PUSH2 0x1C38 JUMPI PUSH2 0x1C37 PUSH2 0x260E JUMP JUMPDEST JUMPDEST PUSH2 0x1C44 DUP11 DUP3 DUP12 ADD PUSH2 0x1908 JUMP JUMPDEST SWAP2 POP POP SWAP3 SWAP6 SWAP9 SWAP2 SWAP5 SWAP8 POP SWAP3 SWAP6 POP JUMP JUMPDEST PUSH2 0x1C5C DUP2 PUSH2 0x2386 JUMP JUMPDEST DUP3 MSTORE POP POP JUMP JUMPDEST PUSH2 0x1C6B DUP2 PUSH2 0x2398 JUMP JUMPDEST DUP3 MSTORE POP POP JUMP JUMPDEST PUSH1 0x0 PUSH2 0x1C7C DUP3 PUSH2 0x2288 JUMP JUMPDEST PUSH2 0x1C86 DUP2 DUP6 PUSH2 0x229E JUMP JUMPDEST SWAP4 POP PUSH2 0x1C96 DUP2 DUP6 PUSH1 0x20 DUP7 ADD PUSH2 0x2409 JUMP JUMPDEST PUSH2 0x1C9F DUP2 PUSH2 0x2618 JUMP JUMPDEST DUP5 ADD SWAP2 POP POP SWAP3 SWAP2 POP POP JUMP JUMPDEST PUSH1 0x0 PUSH2 0x1CB5 DUP3 PUSH2 0x2293 JUMP JUMPDEST PUSH2 0x1CBF DUP2 DUP6 PUSH2 0x22AF JUMP JUMPDEST SWAP4 POP PUSH2 0x1CCF DUP2 DUP6 PUSH1 0x20 DUP7 ADD PUSH2 0x2409 JUMP JUMPDEST PUSH2 0x1CD8 DUP2 PUSH2 0x2618 JUMP JUMPDEST DUP5 ADD SWAP2 POP POP SWAP3 SWAP2 POP POP JUMP JUMPDEST PUSH1 0x0 PUSH2 0x1CEE DUP3 PUSH2 0x2293 JUMP JUMPDEST PUSH2 0x1CF8 DUP2 DUP6 PUSH2 0x22C0 JUMP JUMPDEST SWAP4 POP PUSH2 0x1D08 DUP2 DUP6 PUSH1 0x20 DUP7 ADD PUSH2 0x2409 JUMP JUMPDEST DUP1 DUP5 ADD SWAP2 POP POP SWAP3 SWAP2 POP POP JUMP JUMPDEST PUSH1 0x0 PUSH2 0x1D21 PUSH1 0x32 DUP4 PUSH2 0x22AF JUMP JUMPDEST SWAP2 POP PUSH2 0x1D2C DUP3 PUSH2 0x2629 JUMP JUMPDEST PUSH1 0x40 DUP3 ADD SWAP1 POP SWAP2 SWAP1 POP JUMP JUMPDEST PUSH1 0x0 PUSH2 0x1D44 PUSH1 0x25 DUP4 PUSH2 0x22AF JUMP JUMPDEST SWAP2 POP PUSH2 0x1D4F DUP3 PUSH2 0x2678 JUMP JUMPDEST PUSH1 0x40 DUP3 ADD SWAP1 POP SWAP2 SWAP1 POP JUMP JUMPDEST PUSH1 0x0 PUSH2 0x1D67 PUSH1 0x24 DUP4 PUSH2 0x22AF JUMP JUMPDEST SWAP2 POP PUSH2 0x1D72 DUP3 PUSH2 0x26C7 JUMP JUMPDEST PUSH1 0x40 DUP3 ADD SWAP1 POP SWAP2 SWAP1 POP JUMP JUMPDEST PUSH1 0x0 PUSH2 0x1D8A PUSH1 0x19 DUP4 PUSH2 0x22AF JUMP JUMPDEST SWAP2 POP PUSH2 0x1D95 DUP3 PUSH2 0x2716 JUMP JUMPDEST PUSH1 0x20 DUP3 ADD SWAP1 POP SWAP2 SWAP1 POP JUMP JUMPDEST PUSH1 0x0 PUSH2 0x1DAD PUSH1 0x2C DUP4 PUSH2 0x22AF JUMP JUMPDEST SWAP2 POP PUSH2 0x1DB8 DUP3 PUSH2 0x273F JUMP JUMPDEST PUSH1 0x40 DUP3 ADD SWAP1 POP SWAP2 SWAP1 POP JUMP JUMPDEST PUSH1 0x0 PUSH2 0x1DD0 PUSH1 0x29 DUP4 PUSH2 0x22AF JUMP JUMPDEST SWAP2 POP PUSH2 0x1DDB DUP3 PUSH2 0x278E JUMP JUMPDEST PUSH1 0x40 DUP3 ADD SWAP1 POP SWAP2 SWAP1 POP JUMP JUMPDEST PUSH1 0x0 PUSH2 0x1DF3 PUSH1 0x38 DUP4 PUSH2 0x22AF JUMP JUMPDEST SWAP2 POP PUSH2 0x1DFE DUP3 PUSH2 0x27DD JUMP JUMPDEST PUSH1 0x40 DUP3 ADD SWAP1 POP SWAP2 SWAP1 POP JUMP JUMPDEST PUSH1 0x0 PUSH2 0x1E16 PUSH1 0x29 DUP4 PUSH2 0x22AF JUMP JUMPDEST SWAP2 POP PUSH2 0x1E21 DUP3 PUSH2 0x282C JUMP JUMPDEST PUSH1 0x40 DUP3 ADD SWAP1 POP SWAP2 SWAP1 POP JUMP JUMPDEST PUSH1 0x0 PUSH2 0x1E39 PUSH1 0x2C DUP4 PUSH2 0x22AF JUMP JUMPDEST SWAP2 POP PUSH2 0x1E44 DUP3 PUSH2 0x287B JUMP JUMPDEST PUSH1 0x40 DUP3 ADD SWAP1 POP SWAP2 SWAP1 POP JUMP JUMPDEST PUSH1 0x0 PUSH2 0x1E5C PUSH1 0x2F DUP4 PUSH2 0x22AF JUMP JUMPDEST SWAP2 POP PUSH2 0x1E67 DUP3 PUSH2 0x28CA JUMP JUMPDEST PUSH1 0x40 DUP3 ADD SWAP1 POP SWAP2 SWAP1 POP JUMP JUMPDEST PUSH1 0x0 PUSH2 0x1E7F PUSH1 0x1B DUP4 PUSH2 0x22AF JUMP JUMPDEST SWAP2 POP PUSH2 0x1E8A DUP3 PUSH2 0x2919 JUMP JUMPDEST PUSH1 0x20 DUP3 ADD SWAP1 POP SWAP2 SWAP1 POP JUMP JUMPDEST PUSH1 0x0 PUSH2 0x1EA2 PUSH1 0x21 DUP4 PUSH2 0x22AF JUMP JUMPDEST SWAP2 POP PUSH2 0x1EAD DUP3 PUSH2 0x2942 JUMP JUMPDEST PUSH1 0x40 DUP3 ADD SWAP1 POP SWAP2 SWAP1 POP JUMP JUMPDEST PUSH1 0x0 PUSH2 0x1EC5 PUSH1 0x31 DUP4 PUSH2 0x22AF JUMP JUMPDEST SWAP2 POP PUSH2 0x1ED0 DUP3 PUSH2 0x2991 JUMP JUMPDEST PUSH1 0x40 DUP3 ADD SWAP1 POP SWAP2 SWAP1 POP JUMP JUMPDEST PUSH2 0x1EE4 DUP2 PUSH2 0x23F0 JUMP JUMPDEST DUP3 MSTORE POP POP JUMP JUMPDEST PUSH1 0x0 PUSH2 0x1EF6 DUP3 DUP6 PUSH2 0x1CE3 JUMP JUMPDEST SWAP2 POP PUSH2 0x1F02 DUP3 DUP5 PUSH2 0x1CE3 JUMP JUMPDEST SWAP2 POP DUP2 SWAP1 POP SWAP4 SWAP3 POP POP POP JUMP JUMPDEST PUSH1 0x0 PUSH1 0x20 DUP3 ADD SWAP1 POP PUSH2 0x1F23 PUSH1 0x0 DUP4 ADD DUP5 PUSH2 0x1C53 JUMP JUMPDEST SWAP3 SWAP2 POP POP JUMP JUMPDEST PUSH1 0x0 PUSH1 0x80 DUP3 ADD SWAP1 POP PUSH2 0x1F3E PUSH1 0x0 DUP4 ADD DUP8 PUSH2 0x1C53 JUMP JUMPDEST PUSH2 0x1F4B PUSH1 0x20 DUP4 ADD DUP7 PUSH2 0x1C53 JUMP JUMPDEST PUSH2 0x1F58 PUSH1 0x40 DUP4 ADD DUP6 PUSH2 0x1EDB JUMP JUMPDEST DUP2 DUP2 SUB PUSH1 0x60 DUP4 ADD MSTORE PUSH2 0x1F6A DUP2 DUP5 PUSH2 0x1C71 JUMP JUMPDEST SWAP1 POP SWAP6 SWAP5 POP POP POP POP POP JUMP JUMPDEST PUSH1 0x0 PUSH1 0x20 DUP3 ADD SWAP1 POP PUSH2 0x1F8A PUSH1 0x0 DUP4 ADD DUP5 PUSH2 0x1C62 JUMP JUMPDEST SWAP3 SWAP2 POP POP JUMP JUMPDEST PUSH1 0x0 PUSH1 0x20 DUP3 ADD SWAP1 POP DUP2 DUP2 SUB PUSH1 0x0 DUP4 ADD MSTORE PUSH2 0x1FAA DUP2 DUP5 PUSH2 0x1CAA JUMP JUMPDEST SWAP1 POP SWAP3 SWAP2 POP POP JUMP JUMPDEST PUSH1 0x0 PUSH1 0x20 DUP3 ADD SWAP1 POP DUP2 DUP2 SUB PUSH1 0x0 DUP4 ADD MSTORE PUSH2 0x1FCB DUP2 PUSH2 0x1D14 JUMP JUMPDEST SWAP1 POP SWAP2 SWAP1 POP JUMP JUMPDEST PUSH1 0x0 PUSH1 0x20 DUP3 ADD SWAP1 POP DUP2 DUP2 SUB PUSH1 0x0 DUP4 ADD MSTORE PUSH2 0x1FEB DUP2 PUSH2 0x1D37 JUMP JUMPDEST SWAP1 POP SWAP2 SWAP1 POP JUMP JUMPDEST PUSH1 0x0 PUSH1 0x20 DUP3 ADD SWAP1 POP DUP2 DUP2 SUB PUSH1 0x0 DUP4 ADD MSTORE PUSH2 0x200B DUP2 PUSH2 0x1D5A JUMP JUMPDEST SWAP1 POP SWAP2 SWAP1 POP JUMP JUMPDEST PUSH1 0x0 PUSH1 0x20 DUP3 ADD SWAP1 POP DUP2 DUP2 SUB PUSH1 0x0 DUP4 ADD MSTORE PUSH2 0x202B DUP2 PUSH2 0x1D7D JUMP JUMPDEST SWAP1 POP SWAP2 SWAP1 POP JUMP JUMPDEST PUSH1 0x0 PUSH1 0x20 DUP3 ADD SWAP1 POP DUP2 DUP2 SUB PUSH1 0x0 DUP4 ADD MSTORE PUSH2 0x204B DUP2 PUSH2 0x1DA0 JUMP JUMPDEST SWAP1 POP SWAP2 SWAP1 POP JUMP JUMPDEST PUSH1 0x0 PUSH1 0x20 DUP3 ADD SWAP1 POP DUP2 DUP2 SUB PUSH1 0x0 DUP4 ADD MSTORE PUSH2 0x206B DUP2 PUSH2 0x1DC3 JUMP JUMPDEST SWAP1 POP SWAP2 SWAP1 POP JUMP JUMPDEST PUSH1 0x0 PUSH1 0x20 DUP3 ADD SWAP1 POP DUP2 DUP2 SUB PUSH1 0x0 DUP4 ADD MSTORE PUSH2 0x208B DUP2 PUSH2 0x1DE6 JUMP JUMPDEST SWAP1 POP SWAP2 SWAP1 POP JUMP JUMPDEST PUSH1 0x0 PUSH1 0x20 DUP3 ADD SWAP1 POP DUP2 DUP2 SUB PUSH1 0x0 DUP4 ADD MSTORE PUSH2 0x20AB DUP2 PUSH2 0x1E09 JUMP JUMPDEST SWAP1 POP SWAP2 SWAP1 POP JUMP JUMPDEST PUSH1 0x0 PUSH1 0x20 DUP3 ADD SWAP1 POP DUP2 DUP2 SUB PUSH1 0x0 DUP4 ADD MSTORE PUSH2 0x20CB DUP2 PUSH2 0x1E2C JUMP JUMPDEST SWAP1 POP SWAP2 SWAP1 POP JUMP JUMPDEST PUSH1 0x0 PUSH1 0x20 DUP3 ADD SWAP1 POP DUP2 DUP2 SUB PUSH1 0x0 DUP4 ADD MSTORE PUSH2 0x20EB DUP2 PUSH2 0x1E4F JUMP JUMPDEST SWAP1 POP SWAP2 SWAP1 POP JUMP JUMPDEST PUSH1 0x0 PUSH1 0x20 DUP3 ADD SWAP1 POP DUP2 DUP2 SUB PUSH1 0x0 DUP4 ADD MSTORE PUSH2 0x210B DUP2 PUSH2 0x1E72 JUMP JUMPDEST SWAP1 POP SWAP2 SWAP1 POP JUMP JUMPDEST PUSH1 0x0 PUSH1 0x20 DUP3 ADD SWAP1 POP DUP2 DUP2 SUB PUSH1 0x0 DUP4 ADD MSTORE PUSH2 0x212B DUP2 PUSH2 0x1E95 JUMP JUMPDEST SWAP1 POP SWAP2 SWAP1 POP JUMP JUMPDEST PUSH1 0x0 PUSH1 0x20 DUP3 ADD SWAP1 POP DUP2 DUP2 SUB PUSH1 0x0 DUP4 ADD MSTORE PUSH2 0x214B DUP2 PUSH2 0x1EB8 JUMP JUMPDEST SWAP1 POP SWAP2 SWAP1 POP JUMP JUMPDEST PUSH1 0x0 PUSH1 0x20 DUP3 ADD SWAP1 POP PUSH2 0x2167 PUSH1 0x0 DUP4 ADD DUP5 PUSH2 0x1EDB JUMP JUMPDEST SWAP3 SWAP2 POP POP JUMP JUMPDEST PUSH1 0x0 PUSH2 0x120 DUP3 ADD SWAP1 POP PUSH2 0x2183 PUSH1 0x0 DUP4 ADD DUP13 PUSH2 0x1EDB JUMP JUMPDEST PUSH2 0x2190 PUSH1 0x20 DUP4 ADD DUP12 PUSH2 0x1EDB JUMP JUMPDEST PUSH2 0x219D PUSH1 0x40 DUP4 ADD DUP11 PUSH2 0x1EDB JUMP JUMPDEST PUSH2 0x21AA PUSH1 0x60 DUP4 ADD DUP10 PUSH2 0x1EDB JUMP JUMPDEST PUSH2 0x21B7 PUSH1 0x80 DUP4 ADD DUP9 PUSH2 0x1EDB JUMP JUMPDEST PUSH2 0x21C4 PUSH1 0xA0 DUP4 ADD DUP8 PUSH2 0x1C53 JUMP JUMPDEST PUSH2 0x21D1 PUSH1 0xC0 DUP4 ADD DUP7 PUSH2 0x1C53 JUMP JUMPDEST DUP2 DUP2 SUB PUSH1 0xE0 DUP4 ADD MSTORE PUSH2 0x21E3 DUP2 DUP6 PUSH2 0x1CAA JUMP JUMPDEST SWAP1 POP PUSH2 0x21F3 PUSH2 0x100 DUP4 ADD DUP5 PUSH2 0x1C62 JUMP JUMPDEST SWAP11 SWAP10 POP POP POP POP POP POP POP POP POP POP JUMP JUMPDEST PUSH1 0x0 PUSH2 0x220B PUSH2 0x221C JUMP JUMPDEST SWAP1 POP PUSH2 0x2217 DUP3 DUP3 PUSH2 0x246E JUMP JUMPDEST SWAP2 SWAP1 POP JUMP JUMPDEST PUSH1 0x0 PUSH1 0x40 MLOAD SWAP1 POP SWAP1 JUMP JUMPDEST PUSH1 0x0 PUSH8 0xFFFFFFFFFFFFFFFF DUP3 GT ISZERO PUSH2 0x2241 JUMPI PUSH2 0x2240 PUSH2 0x25D5 JUMP JUMPDEST JUMPDEST PUSH2 0x224A DUP3 PUSH2 0x2618 JUMP JUMPDEST SWAP1 POP PUSH1 0x20 DUP2 ADD SWAP1 POP SWAP2 SWAP1 POP JUMP JUMPDEST PUSH1 0x0 PUSH8 0xFFFFFFFFFFFFFFFF DUP3 GT ISZERO PUSH2 0x2272 JUMPI PUSH2 0x2271 PUSH2 0x25D5 JUMP JUMPDEST JUMPDEST PUSH2 0x227B DUP3 PUSH2 0x2618 JUMP JUMPDEST SWAP1 POP PUSH1 0x20 DUP2 ADD SWAP1 POP SWAP2 SWAP1 POP JUMP JUMPDEST PUSH1 0x0 DUP2 MLOAD SWAP1 POP SWAP2 SWAP1 POP JUMP JUMPDEST PUSH1 0x0 DUP2 MLOAD SWAP1 POP SWAP2 SWAP1 POP JUMP JUMPDEST PUSH1 0x0 DUP3 DUP3 MSTORE PUSH1 0x20 DUP3 ADD SWAP1 POP SWAP3 SWAP2 POP POP JUMP JUMPDEST PUSH1 0x0 DUP3 DUP3 MSTORE PUSH1 0x20 DUP3 ADD SWAP1 POP SWAP3 SWAP2 POP POP JUMP JUMPDEST PUSH1 0x0 DUP2 SWAP1 POP SWAP3 SWAP2 POP POP JUMP JUMPDEST PUSH1 0x0 PUSH2 0x22D6 DUP3 PUSH2 0x23F0 JUMP JUMPDEST SWAP2 POP PUSH2 0x22E1 DUP4 PUSH2 0x23F0 JUMP JUMPDEST SWAP3 POP DUP3 PUSH32 0xFFFFFFFFFFFFFFFFFFFFFFFFFFFFFFFFFFFFFFFFFFFFFFFFFFFFFFFFFFFFFFFF SUB DUP3 GT ISZERO PUSH2 0x2316 JUMPI PUSH2 0x2315 PUSH2 0x2519 JUMP JUMPDEST JUMPDEST DUP3 DUP3 ADD SWAP1 POP SWAP3 SWAP2 POP POP JUMP JUMPDEST PUSH1 0x0 PUSH2 0x232C DUP3 PUSH2 0x23F0 JUMP JUMPDEST SWAP2 POP PUSH2 0x2337 DUP4 PUSH2 0x23F0 JUMP JUMPDEST SWAP3 POP DUP3 PUSH2 0x2347 JUMPI PUSH2 0x2346 PUSH2 0x2548 JUMP JUMPDEST JUMPDEST DUP3 DUP3 DIV SWAP1 POP SWAP3 SWAP2 POP POP JUMP JUMPDEST PUSH1 0x0 PUSH2 0x235D DUP3 PUSH2 0x23F0 JUMP JUMPDEST SWAP2 POP PUSH2 0x2368 DUP4 PUSH2 0x23F0 JUMP JUMPDEST SWAP3 POP DUP3 DUP3 LT ISZERO PUSH2 0x237B JUMPI PUSH2 0x237A PUSH2 0x2519 JUMP JUMPDEST JUMPDEST DUP3 DUP3 SUB SWAP1 POP SWAP3 SWAP2 POP POP JUMP JUMPDEST PUSH1 0x0 PUSH2 0x2391 DUP3 PUSH2 0x23D0 JUMP JUMPDEST SWAP1 POP SWAP2 SWAP1 POP JUMP JUMPDEST PUSH1 0x0 DUP2 ISZERO ISZERO SWAP1 POP SWAP2 SWAP1 POP JUMP JUMPDEST PUSH1 0x0 PUSH32 0xFFFFFFFF00000000000000000000000000000000000000000000000000000000 DUP3 AND SWAP1 POP SWAP2 SWAP1 POP JUMP JUMPDEST PUSH1 0x0 PUSH20 0xFFFFFFFFFFFFFFFFFFFFFFFFFFFFFFFFFFFFFFFF DUP3 AND SWAP1 POP SWAP2 SWAP1 POP JUMP JUMPDEST PUSH1 0x0 DUP2 SWAP1 POP SWAP2 SWAP1 POP JUMP JUMPDEST DUP3 DUP2 DUP4 CALLDATACOPY PUSH1 0x0 DUP4 DUP4 ADD MSTORE POP POP POP JUMP JUMPDEST PUSH1 0x0 JUMPDEST DUP4 DUP2 LT ISZERO PUSH2 0x2427 JUMPI DUP1 DUP3 ADD MLOAD DUP2 DUP5 ADD MSTORE PUSH1 0x20 DUP2 ADD SWAP1 POP PUSH2 0x240C JUMP JUMPDEST DUP4 DUP2 GT ISZERO PUSH2 0x2436 JUMPI PUSH1 0x0 DUP5 DUP5 ADD MSTORE JUMPDEST POP POP POP POP JUMP JUMPDEST PUSH1 0x0 PUSH1 0x2 DUP3 DIV SWAP1 POP PUSH1 0x1 DUP3 AND DUP1 PUSH2 0x2454 JUMPI PUSH1 0x7F DUP3 AND SWAP2 POP JUMPDEST PUSH1 0x20 DUP3 LT DUP2 EQ ISZERO PUSH2 0x2468 JUMPI PUSH2 0x2467 PUSH2 0x2577 JUMP JUMPDEST JUMPDEST POP SWAP2 SWAP1 POP JUMP JUMPDEST PUSH2 0x2477 DUP3 PUSH2 0x2618 JUMP JUMPDEST DUP2 ADD DUP2 DUP2 LT PUSH8 0xFFFFFFFFFFFFFFFF DUP3 GT OR ISZERO PUSH2 0x2496 JUMPI PUSH2 0x2495 PUSH2 0x25D5 JUMP JUMPDEST JUMPDEST DUP1 PUSH1 0x40 MSTORE POP POP POP JUMP JUMPDEST PUSH1 0x0 PUSH2 0x24AA DUP3 PUSH2 0x23F0 JUMP JUMPDEST SWAP2 POP PUSH32 0xFFFFFFFFFFFFFFFFFFFFFFFFFFFFFFFFFFFFFFFFFFFFFFFFFFFFFFFFFFFFFFFF DUP3 EQ ISZERO PUSH2 0x24DD JUMPI PUSH2 0x24DC PUSH2 0x2519 JUMP JUMPDEST JUMPDEST PUSH1 0x1 DUP3 ADD SWAP1 POP SWAP2 SWAP1 POP JUMP JUMPDEST PUSH1 0x0 PUSH2 0x24F3 DUP3 PUSH2 0x23F0 JUMP JUMPDEST SWAP2 POP PUSH2 0x24FE DUP4 PUSH2 0x23F0 JUMP JUMPDEST SWAP3 POP DUP3 PUSH2 0x250E JUMPI PUSH2 0x250D PUSH2 0x2548 JUMP JUMPDEST JUMPDEST DUP3 DUP3 MOD SWAP1 POP SWAP3 SWAP2 POP POP JUMP JUMPDEST PUSH32 0x4E487B7100000000000000000000000000000000000000000000000000000000 PUSH1 0x0 MSTORE PUSH1 0x11 PUSH1 0x4 MSTORE PUSH1 0x24 PUSH1 0x0 REVERT JUMPDEST PUSH32 0x4E487B7100000000000000000000000000000000000000000000000000000000 PUSH1 0x0 MSTORE PUSH1 0x12 PUSH1 0x4 MSTORE PUSH1 0x24 PUSH1 0x0 REVERT JUMPDEST PUSH32 0x4E487B7100000000000000000000000000000000000000000000000000000000 PUSH1 0x0 MSTORE PUSH1 0x22 PUSH1 0x4 MSTORE PUSH1 0x24 PUSH1 0x0 REVERT JUMPDEST PUSH32 0x4E487B7100000000000000000000000000000000000000000000000000000000 PUSH1 0x0 MSTORE PUSH1 0x32 PUSH1 0x4 MSTORE PUSH1 0x24 PUSH1 0x0 REVERT JUMPDEST PUSH32 0x4E487B7100000000000000000000000000000000000000000000000000000000 PUSH1 0x0 MSTORE PUSH1 0x41 PUSH1 0x4 MSTORE PUSH1 0x24 PUSH1 0x0 REVERT JUMPDEST PUSH1 0x0 DUP1 REVERT JUMPDEST PUSH1 0x0 DUP1 REVERT JUMPDEST PUSH1 0x0 DUP1 REVERT JUMPDEST PUSH1 0x0 DUP1 REVERT JUMPDEST PUSH1 0x0 PUSH1 0x1F NOT PUSH1 0x1F DUP4 ADD AND SWAP1 POP SWAP2 SWAP1 POP JUMP JUMPDEST PUSH32 0x4552433732313A207472616E7366657220746F206E6F6E204552433732315265 PUSH1 0x0 DUP3 ADD MSTORE PUSH32 0x63656976657220696D706C656D656E7465720000000000000000000000000000 PUSH1 0x20 DUP3 ADD MSTORE POP JUMP JUMPDEST PUSH32 0x4552433732313A207472616E736665722066726F6D20696E636F727265637420 PUSH1 0x0 DUP3 ADD MSTORE PUSH32 0x6F776E6572000000000000000000000000000000000000000000000000000000 PUSH1 0x20 DUP3 ADD MSTORE POP JUMP JUMPDEST PUSH32 0x4552433732313A207472616E7366657220746F20746865207A65726F20616464 PUSH1 0x0 DUP3 ADD MSTORE PUSH32 0x7265737300000000000000000000000000000000000000000000000000000000 PUSH1 0x20 DUP3 ADD MSTORE POP JUMP JUMPDEST PUSH32 0x4552433732313A20617070726F766520746F2063616C6C657200000000000000 PUSH1 0x0 DUP3 ADD MSTORE POP JUMP JUMPDEST PUSH32 0x4552433732313A206F70657261746F7220717565727920666F72206E6F6E6578 PUSH1 0x0 DUP3 ADD MSTORE PUSH32 0x697374656E7420746F6B656E0000000000000000000000000000000000000000 PUSH1 0x20 DUP3 ADD MSTORE POP JUMP JUMPDEST PUSH32 0x4552433732313A2061646472657373207A65726F206973206E6F742061207661 PUSH1 0x0 DUP3 ADD MSTORE PUSH32 0x6C6964206F776E65720000000000000000000000000000000000000000000000 PUSH1 0x20 DUP3 ADD MSTORE POP JUMP JUMPDEST PUSH32 0x4552433732313A20617070726F76652063616C6C6572206973206E6F74206F77 PUSH1 0x0 DUP3 ADD MSTORE PUSH32 0x6E6572206E6F7220617070726F76656420666F7220616C6C0000000000000000 PUSH1 0x20 DUP3 ADD MSTORE POP JUMP JUMPDEST PUSH32 0x4552433732313A206F776E657220717565727920666F72206E6F6E6578697374 PUSH1 0x0 DUP3 ADD MSTORE PUSH32 0x656E7420746F6B656E0000000000000000000000000000000000000000000000 PUSH1 0x20 DUP3 ADD MSTORE POP JUMP JUMPDEST PUSH32 0x4552433732313A20617070726F76656420717565727920666F72206E6F6E6578 PUSH1 0x0 DUP3 ADD MSTORE PUSH32 0x697374656E7420746F6B656E0000000000000000000000000000000000000000 PUSH1 0x20 DUP3 ADD MSTORE POP JUMP JUMPDEST PUSH32 0x4552433732314D657461646174613A2055524920717565727920666F72206E6F PUSH1 0x0 DUP3 ADD MSTORE PUSH32 0x6E6578697374656E7420746F6B656E0000000000000000000000000000000000 PUSH1 0x20 DUP3 ADD MSTORE POP JUMP JUMPDEST PUSH32 0x7468697320686F757365496420616C7265616479206578697374730000000000 PUSH1 0x0 DUP3 ADD MSTORE POP JUMP JUMPDEST PUSH32 0x4552433732313A20617070726F76616C20746F2063757272656E74206F776E65 PUSH1 0x0 DUP3 ADD MSTORE PUSH32 0x7200000000000000000000000000000000000000000000000000000000000000 PUSH1 0x20 DUP3 ADD MSTORE POP JUMP JUMPDEST PUSH32 0x4552433732313A207472616E736665722063616C6C6572206973206E6F74206F PUSH1 0x0 DUP3 ADD MSTORE PUSH32 0x776E6572206E6F7220617070726F766564000000000000000000000000000000 PUSH1 0x20 DUP3 ADD MSTORE POP JUMP JUMPDEST PUSH2 0x29E9 DUP2 PUSH2 0x2386 JUMP JUMPDEST DUP2 EQ PUSH2 0x29F4 JUMPI PUSH1 0x0 DUP1 REVERT JUMPDEST POP JUMP JUMPDEST PUSH2 0x2A00 DUP2 PUSH2 0x2398 JUMP JUMPDEST DUP2 EQ PUSH2 0x2A0B JUMPI PUSH1 0x0 DUP1 REVERT JUMPDEST POP JUMP JUMPDEST PUSH2 0x2A17 DUP2 PUSH2 0x23A4 JUMP JUMPDEST DUP2 EQ PUSH2 0x2A22 JUMPI PUSH1 0x0 DUP1 REVERT JUMPDEST POP JUMP JUMPDEST PUSH2 0x2A2E DUP2 PUSH2 0x23F0 JUMP JUMPDEST DUP2 EQ PUSH2 0x2A39 JUMPI PUSH1 0x0 DUP1 REVERT JUMPDEST POP JUMP INVALID LOG2 PUSH5 0x6970667358 0x22 SLT KECCAK256 DUP8 ADDRESS PUSH20 0xABB226EAE72AFCBC767CFE50CB34FA1D78C7B6BA 0xD0 0xCE 0x2E 0xA9 PUSH6 0xE4BCA3286473 PUSH16 0x6C634300080700330000000000000000 "
				},
				"gasEstimates": {
					"creation": {
						"codeDepositCost": "2173200",
						"executionCost": "infinite",
						"totalCost": "infinite"
					},
					"external": {
						"addHouse(uint256,uint256,uint256,uint256,uint256,address,string)": "infinite",
						"approve(address,uint256)": "infinite",
						"balanceOf(address)": "2924",
						"getApproved(uint256)": "5183",
						"houses(uint256)": "infinite",
						"isApprovedForAll(address,address)": "infinite",
						"name()": "infinite",
						"ownerOf(uint256)": "3000",
						"safeTransferFrom(address,address,uint256)": "infinite",
						"safeTransferFrom(address,address,uint256,bytes)": "infinite",
						"setApprovalForAll(address,bool)": "infinite",
						"supportsInterface(bytes4)": "797",
						"symbol()": "infinite",
						"tokenURI(uint256)": "3395",
						"transferFrom(address,address,uint256)": "infinite"
					},
					"internal": {
						"_afterTokenTransfer(address,address,uint256)": "15",
						"_approve(address,uint256)": "infinite",
						"_baseURI()": "infinite",
						"_beforeTokenTransfer(address,address,uint256)": "15",
						"_burn(uint256)": "infinite",
						"_checkOnERC721Received(address,address,uint256,bytes memory)": "infinite",
						"_exists(uint256)": "2269",
						"_isApprovedOrOwner(address,uint256)": "infinite",
						"_mint(address,uint256)": "infinite",
						"_safeMint(address,uint256)": "infinite",
						"_safeMint(address,uint256,bytes memory)": "infinite",
						"_safeTransfer(address,address,uint256,bytes memory)": "infinite",
						"_setApprovalForAll(address,address,bool)": "infinite",
						"_transfer(address,address,uint256)": "infinite"
					}
				},
				"methodIdentifiers": {
					"addHouse(uint256,uint256,uint256,uint256,uint256,address,string)": "0548fa4f",
					"approve(address,uint256)": "095ea7b3",
					"balanceOf(address)": "70a08231",
					"getApproved(uint256)": "081812fc",
					"houses(uint256)": "aeda852f",
					"isApprovedForAll(address,address)": "e985e9c5",
					"name()": "06fdde03",
					"ownerOf(uint256)": "6352211e",
					"safeTransferFrom(address,address,uint256)": "42842e0e",
					"safeTransferFrom(address,address,uint256,bytes)": "b88d4fde",
					"setApprovalForAll(address,bool)": "a22cb465",
					"supportsInterface(bytes4)": "01ffc9a7",
					"symbol()": "95d89b41",
					"tokenURI(uint256)": "c87b56dd",
					"transferFrom(address,address,uint256)": "23b872dd"
				}
			},
			"storageLayout": {
				"storage": [
					{
						"astId": 26,
						"contract": "contract/token/ERC721.sol:ERC721",
						"label": "_name",
						"offset": 0,
						"slot": "0",
						"type": "t_string_storage"
					},
					{
						"astId": 28,
						"contract": "contract/token/ERC721.sol:ERC721",
						"label": "_symbol",
						"offset": 0,
						"slot": "1",
						"type": "t_string_storage"
					},
					{
						"astId": 51,
						"contract": "contract/token/ERC721.sol:ERC721",
						"label": "_owners",
						"offset": 0,
						"slot": "2",
						"type": "t_mapping(t_uint256,t_address)"
					},
					{
						"astId": 55,
						"contract": "contract/token/ERC721.sol:ERC721",
						"label": "_balances",
						"offset": 0,
						"slot": "3",
						"type": "t_mapping(t_address,t_uint256)"
					},
					{
						"astId": 59,
						"contract": "contract/token/ERC721.sol:ERC721",
						"label": "_tokenApprovals",
						"offset": 0,
						"slot": "4",
						"type": "t_mapping(t_uint256,t_address)"
					},
					{
						"astId": 65,
						"contract": "contract/token/ERC721.sol:ERC721",
						"label": "_operatorApprovals",
						"offset": 0,
						"slot": "5",
						"type": "t_mapping(t_address,t_mapping(t_address,t_bool))"
					},
					{
						"astId": 70,
						"contract": "contract/token/ERC721.sol:ERC721",
						"label": "houses",
						"offset": 0,
						"slot": "6",
						"type": "t_mapping(t_uint256,t_struct(House)47_storage)"
					}
				],
				"types": {
					"t_address": {
						"encoding": "inplace",
						"label": "address",
						"numberOfBytes": "20"
					},
					"t_bool": {
						"encoding": "inplace",
						"label": "bool",
						"numberOfBytes": "1"
					},
					"t_mapping(t_address,t_bool)": {
						"encoding": "mapping",
						"key": "t_address",
						"label": "mapping(address => bool)",
						"numberOfBytes": "32",
						"value": "t_bool"
					},
					"t_mapping(t_address,t_mapping(t_address,t_bool))": {
						"encoding": "mapping",
						"key": "t_address",
						"label": "mapping(address => mapping(address => bool))",
						"numberOfBytes": "32",
						"value": "t_mapping(t_address,t_bool)"
					},
					"t_mapping(t_address,t_uint256)": {
						"encoding": "mapping",
						"key": "t_address",
						"label": "mapping(address => uint256)",
						"numberOfBytes": "32",
						"value": "t_uint256"
					},
					"t_mapping(t_uint256,t_address)": {
						"encoding": "mapping",
						"key": "t_uint256",
						"label": "mapping(uint256 => address)",
						"numberOfBytes": "32",
						"value": "t_address"
					},
					"t_mapping(t_uint256,t_struct(House)47_storage)": {
						"encoding": "mapping",
						"key": "t_uint256",
						"label": "mapping(uint256 => struct ERC721.House)",
						"numberOfBytes": "32",
						"value": "t_struct(House)47_storage"
					},
					"t_string_storage": {
						"encoding": "bytes",
						"label": "string",
						"numberOfBytes": "32"
					},
					"t_struct(House)47_storage": {
						"encoding": "inplace",
						"label": "struct ERC721.House",
						"members": [
							{
								"astId": 30,
								"contract": "contract/token/ERC721.sol:ERC721",
								"label": "id",
								"offset": 0,
								"slot": "0",
								"type": "t_uint256"
							},
							{
								"astId": 32,
								"contract": "contract/token/ERC721.sol:ERC721",
								"label": "serialNumber",
								"offset": 0,
								"slot": "1",
								"type": "t_uint256"
							},
							{
								"astId": 34,
								"contract": "contract/token/ERC721.sol:ERC721",
								"label": "price",
								"offset": 0,
								"slot": "2",
								"type": "t_uint256"
							},
							{
								"astId": 36,
								"contract": "contract/token/ERC721.sol:ERC721",
								"label": "priceDai",
								"offset": 0,
								"slot": "3",
								"type": "t_uint256"
							},
							{
								"astId": 38,
								"contract": "contract/token/ERC721.sol:ERC721",
								"label": "area",
								"offset": 0,
								"slot": "4",
								"type": "t_uint256"
							},
							{
								"astId": 40,
								"contract": "contract/token/ERC721.sol:ERC721",
								"label": "sellerAddress",
								"offset": 0,
								"slot": "5",
								"type": "t_address"
							},
							{
								"astId": 42,
								"contract": "contract/token/ERC721.sol:ERC721",
								"label": "buyerAddress",
								"offset": 0,
								"slot": "6",
								"type": "t_address"
							},
							{
								"astId": 44,
								"contract": "contract/token/ERC721.sol:ERC721",
								"label": "houseAddress",
								"offset": 0,
								"slot": "7",
								"type": "t_string_storage"
							},
							{
								"astId": 46,
								"contract": "contract/token/ERC721.sol:ERC721",
								"label": "isdelistedHouse",
								"offset": 0,
								"slot": "8",
								"type": "t_bool"
							}
						],
						"numberOfBytes": "288"
					},
					"t_uint256": {
						"encoding": "inplace",
						"label": "uint256",
						"numberOfBytes": "32"
					}
				}
			},
			"userdoc": {
				"kind": "user",
				"methods": {},
				"version": 1
			}
		}
	}
}