{
	"data": {
		"bytecode": {
			"linkReferences": {},
			"object": "60806040526005600055600054600a6200001a91906200008c565b6001553480156200002a57600080fd5b506200020f565b6000808291508390505b600185111562000083578086048111156200005b576200005a620001d3565b5b60018516156200006b5780820291505b80810290506200007b8562000202565b94506200003b565b94509492505050565b60006200009982620001c9565b9150620000a683620001c9565b9250620000d57fffffffffffffffffffffffffffffffffffffffffffffffffffffffffffffffff8484620000dd565b905092915050565b600082620000ef5760019050620001c2565b81620000ff5760009050620001c2565b8160018114620001185760028114620001235762000159565b6001915050620001c2565b60ff841115620001385762000137620001d3565b5b8360020a915084821115620001525762000151620001d3565b5b50620001c2565b5060208310610133831016604e8410600b8410161715620001935782820a9050838111156200018d576200018c620001d3565b5b620001c2565b620001a2848484600162000031565b92509050818404811115620001bc57620001bb620001d3565b5b81810290505b9392505050565b6000819050919050565b7f4e487b7100000000000000000000000000000000000000000000000000000000600052601160045260246000fd5b60008160011c9050919050565b610933806200021f6000396000f3fe608060405234801561001057600080fd5b50600436106100365760003560e01c8063aeda852f1461003b578063c6e4870a1461006f575b600080fd5b6100556004803603810190610050919061046d565b61009f565b60405161006695949392919061066c565b60405180910390f35b6100896004803603810190610084919061049a565b6101f5565b60405161009691906105fe565b60405180910390f35b600281815481106100af57600080fd5b90600052602060002090600502016000915090508060000154908060010154908060020154908060030180546100e490610796565b80601f016020809104026020016040519081016040528092919081815260200182805461011090610796565b801561015d5780601f106101325761010080835404028352916020019161015d565b820191906000526020600020905b81548152906001019060200180831161014057829003601f168201915b50505050509080600401805461017290610796565b80601f016020809104026020016040519081016040528092919081815260200182805461019e90610796565b80156101eb5780601f106101c0576101008083540402835291602001916101eb565b820191906000526020600020905b8154815290600101906020018083116101ce57829003601f168201915b5050505050905085565b6000806102038486856102fa565b905060026040518060a001604052808381526020018881526020018781526020018681526020018581525090806001815401808255809150506001900390600052602060002090600502016000909190919091506000820151816000015560208201518160010155604082015181600201556060820151816003019080519060200190610291929190610345565b5060808201518160040190805190602001906102ae929190610345565b5050507fd04c8c253ac3fcea53e14f8c28c08f26b0e4df95c5ca5cbdba6f1b049adbf653818588866040516102e69493929190610619565b60405180910390a180915050949350505050565b600080848484604051602001610312939291906105c9565b6040516020818303038152906040528051906020012060001c90506001548161033b9190610803565b9150509392505050565b82805461035190610796565b90600052602060002090601f01602090048101928261037357600085556103ba565b82601f1061038c57805160ff19168380011785556103ba565b828001600101855582156103ba579182015b828111156103b957825182559160200191906001019061039e565b5b5090506103c791906103cb565b5090565b5b808211156103e45760008160009055506001016103cc565b5090565b60006103fb6103f6846106f2565b6106cd565b905082815260208101848484011115610417576104166108c6565b5b610422848285610754565b509392505050565b600082601f83011261043f5761043e6108c1565b5b813561044f8482602086016103e8565b91505092915050565b600081359050610467816108e6565b92915050565b600060208284031215610483576104826108d0565b5b600061049184828501610458565b91505092915050565b600080600080608085870312156104b4576104b36108d0565b5b60006104c287828801610458565b94505060206104d387828801610458565b935050604085013567ffffffffffffffff8111156104f4576104f36108cb565b5b6105008782880161042a565b925050606085013567ffffffffffffffff811115610521576105206108cb565b5b61052d8782880161042a565b91505092959194509250565b600061054482610723565b61054e818561072e565b935061055e818560208601610763565b610567816108d5565b840191505092915050565b600061057d82610723565b610587818561073f565b9350610597818560208601610763565b80840191505092915050565b6105ac8161074a565b82525050565b6105c36105be8261074a565b6107f9565b82525050565b60006105d58286610572565b91506105e182856105b2565b6020820191506105f18284610572565b9150819050949350505050565b600060208201905061061360008301846105a3565b92915050565b600060808201905061062e60008301876105a3565b81810360208301526106408186610539565b905061064f60408301856105a3565b81810360608301526106618184610539565b905095945050505050565b600060a08201905061068160008301886105a3565b61068e60208301876105a3565b61069b60408301866105a3565b81810360608301526106ad8185610539565b905081810360808301526106c18184610539565b90509695505050505050565b60006106d76106e8565b90506106e382826107c8565b919050565b6000604051905090565b600067ffffffffffffffff82111561070d5761070c610892565b5b610716826108d5565b9050602081019050919050565b600081519050919050565b600082825260208201905092915050565b600081905092915050565b6000819050919050565b82818337600083830152505050565b60005b83811015610781578082015181840152602081019050610766565b83811115610790576000848401525b50505050565b600060028204905060018216806107ae57607f821691505b602082108114156107c2576107c1610863565b5b50919050565b6107d1826108d5565b810181811067ffffffffffffffff821117156107f0576107ef610892565b5b80604052505050565b6000819050919050565b600061080e8261074a565b91506108198361074a565b92508261082957610828610834565b5b828206905092915050565b7f4e487b7100000000000000000000000000000000000000000000000000000000600052601260045260246000fd5b7f4e487b7100000000000000000000000000000000000000000000000000000000600052602260045260246000fd5b7f4e487b7100000000000000000000000000000000000000000000000000000000600052604160045260246000fd5b600080fd5b600080fd5b600080fd5b600080fd5b6000601f19601f8301169050919050565b6108ef8161074a565b81146108fa57600080fd5b5056fea2646970667358221220da03270d250b9d3e57dce266d269a69459fbe317046e33655f4f5bbaa47f263b64736f6c63430008070033",
			"opcodes": "PUSH1 0x80 PUSH1 0x40 MSTORE PUSH1 0x5 PUSH1 0x0 SSTORE PUSH1 0x0 SLOAD PUSH1 0xA PUSH3 0x1A SWAP2 SWAP1 PUSH3 0x8C JUMP JUMPDEST PUSH1 0x1 SSTORE CALLVALUE DUP1 ISZERO PUSH3 0x2A JUMPI PUSH1 0x0 DUP1 REVERT JUMPDEST POP PUSH3 0x20F JUMP JUMPDEST PUSH1 0x0 DUP1 DUP3 SWAP2 POP DUP4 SWAP1 POP JUMPDEST PUSH1 0x1 DUP6 GT ISZERO PUSH3 0x83 JUMPI DUP1 DUP7 DIV DUP2 GT ISZERO PUSH3 0x5B JUMPI PUSH3 0x5A PUSH3 0x1D3 JUMP JUMPDEST JUMPDEST PUSH1 0x1 DUP6 AND ISZERO PUSH3 0x6B JUMPI DUP1 DUP3 MUL SWAP2 POP JUMPDEST DUP1 DUP2 MUL SWAP1 POP PUSH3 0x7B DUP6 PUSH3 0x202 JUMP JUMPDEST SWAP5 POP PUSH3 0x3B JUMP JUMPDEST SWAP5 POP SWAP5 SWAP3 POP POP POP JUMP JUMPDEST PUSH1 0x0 PUSH3 0x99 DUP3 PUSH3 0x1C9 JUMP JUMPDEST SWAP2 POP PUSH3 0xA6 DUP4 PUSH3 0x1C9 JUMP JUMPDEST SWAP3 POP PUSH3 0xD5 PUSH32 0xFFFFFFFFFFFFFFFFFFFFFFFFFFFFFFFFFFFFFFFFFFFFFFFFFFFFFFFFFFFFFFFF DUP5 DUP5 PUSH3 0xDD JUMP JUMPDEST SWAP1 POP SWAP3 SWAP2 POP POP JUMP JUMPDEST PUSH1 0x0 DUP3 PUSH3 0xEF JUMPI PUSH1 0x1 SWAP1 POP PUSH3 0x1C2 JUMP JUMPDEST DUP2 PUSH3 0xFF JUMPI PUSH1 0x0 SWAP1 POP PUSH3 0x1C2 JUMP JUMPDEST DUP2 PUSH1 0x1 DUP2 EQ PUSH3 0x118 JUMPI PUSH1 0x2 DUP2 EQ PUSH3 0x123 JUMPI PUSH3 0x159 JUMP JUMPDEST PUSH1 0x1 SWAP2 POP POP PUSH3 0x1C2 JUMP JUMPDEST PUSH1 0xFF DUP5 GT ISZERO PUSH3 0x138 JUMPI PUSH3 0x137 PUSH3 0x1D3 JUMP JUMPDEST JUMPDEST DUP4 PUSH1 0x2 EXP SWAP2 POP DUP5 DUP3 GT ISZERO PUSH3 0x152 JUMPI PUSH3 0x151 PUSH3 0x1D3 JUMP JUMPDEST JUMPDEST POP PUSH3 0x1C2 JUMP JUMPDEST POP PUSH1 0x20 DUP4 LT PUSH2 0x133 DUP4 LT AND PUSH1 0x4E DUP5 LT PUSH1 0xB DUP5 LT AND OR ISZERO PUSH3 0x193 JUMPI DUP3 DUP3 EXP SWAP1 POP DUP4 DUP2 GT ISZERO PUSH3 0x18D JUMPI PUSH3 0x18C PUSH3 0x1D3 JUMP JUMPDEST JUMPDEST PUSH3 0x1C2 JUMP JUMPDEST PUSH3 0x1A2 DUP5 DUP5 DUP5 PUSH1 0x1 PUSH3 0x31 JUMP JUMPDEST SWAP3 POP SWAP1 POP DUP2 DUP5 DIV DUP2 GT ISZERO PUSH3 0x1BC JUMPI PUSH3 0x1BB PUSH3 0x1D3 JUMP JUMPDEST JUMPDEST DUP2 DUP2 MUL SWAP1 POP JUMPDEST SWAP4 SWAP3 POP POP POP JUMP JUMPDEST PUSH1 0x0 DUP2 SWAP1 POP SWAP2 SWAP1 POP JUMP JUMPDEST PUSH32 0x4E487B7100000000000000000000000000000000000000000000000000000000 PUSH1 0x0 MSTORE PUSH1 0x11 PUSH1 0x4 MSTORE PUSH1 0x24 PUSH1 0x0 REVERT JUMPDEST PUSH1 0x0 DUP2 PUSH1 0x1 SHR SWAP1 POP SWAP2 SWAP1 POP JUMP JUMPDEST PUSH2 0x933 DUP1 PUSH3 0x21F PUSH1 0x0 CODECOPY PUSH1 0x0 RETURN INVALID PUSH1 0x80 PUSH1 0x40 MSTORE CALLVALUE DUP1 ISZERO PUSH2 0x10 JUMPI PUSH1 0x0 DUP1 REVERT JUMPDEST POP PUSH1 0x4 CALLDATASIZE LT PUSH2 0x36 JUMPI PUSH1 0x0 CALLDATALOAD PUSH1 0xE0 SHR DUP1 PUSH4 0xAEDA852F EQ PUSH2 0x3B JUMPI DUP1 PUSH4 0xC6E4870A EQ PUSH2 0x6F JUMPI JUMPDEST PUSH1 0x0 DUP1 REVERT JUMPDEST PUSH2 0x55 PUSH1 0x4 DUP1 CALLDATASIZE SUB DUP2 ADD SWAP1 PUSH2 0x50 SWAP2 SWAP1 PUSH2 0x46D JUMP JUMPDEST PUSH2 0x9F JUMP JUMPDEST PUSH1 0x40 MLOAD PUSH2 0x66 SWAP6 SWAP5 SWAP4 SWAP3 SWAP2 SWAP1 PUSH2 0x66C JUMP JUMPDEST PUSH1 0x40 MLOAD DUP1 SWAP2 SUB SWAP1 RETURN JUMPDEST PUSH2 0x89 PUSH1 0x4 DUP1 CALLDATASIZE SUB DUP2 ADD SWAP1 PUSH2 0x84 SWAP2 SWAP1 PUSH2 0x49A JUMP JUMPDEST PUSH2 0x1F5 JUMP JUMPDEST PUSH1 0x40 MLOAD PUSH2 0x96 SWAP2 SWAP1 PUSH2 0x5FE JUMP JUMPDEST PUSH1 0x40 MLOAD DUP1 SWAP2 SUB SWAP1 RETURN JUMPDEST PUSH1 0x2 DUP2 DUP2 SLOAD DUP2 LT PUSH2 0xAF JUMPI PUSH1 0x0 DUP1 REVERT JUMPDEST SWAP1 PUSH1 0x0 MSTORE PUSH1 0x20 PUSH1 0x0 KECCAK256 SWAP1 PUSH1 0x5 MUL ADD PUSH1 0x0 SWAP2 POP SWAP1 POP DUP1 PUSH1 0x0 ADD SLOAD SWAP1 DUP1 PUSH1 0x1 ADD SLOAD SWAP1 DUP1 PUSH1 0x2 ADD SLOAD SWAP1 DUP1 PUSH1 0x3 ADD DUP1 SLOAD PUSH2 0xE4 SWAP1 PUSH2 0x796 JUMP JUMPDEST DUP1 PUSH1 0x1F ADD PUSH1 0x20 DUP1 SWAP2 DIV MUL PUSH1 0x20 ADD PUSH1 0x40 MLOAD SWAP1 DUP2 ADD PUSH1 0x40 MSTORE DUP1 SWAP3 SWAP2 SWAP1 DUP2 DUP2 MSTORE PUSH1 0x20 ADD DUP3 DUP1 SLOAD PUSH2 0x110 SWAP1 PUSH2 0x796 JUMP JUMPDEST DUP1 ISZERO PUSH2 0x15D JUMPI DUP1 PUSH1 0x1F LT PUSH2 0x132 JUMPI PUSH2 0x100 DUP1 DUP4 SLOAD DIV MUL DUP4 MSTORE SWAP2 PUSH1 0x20 ADD SWAP2 PUSH2 0x15D JUMP JUMPDEST DUP3 ADD SWAP2 SWAP1 PUSH1 0x0 MSTORE PUSH1 0x20 PUSH1 0x0 KECCAK256 SWAP1 JUMPDEST DUP2 SLOAD DUP2 MSTORE SWAP1 PUSH1 0x1 ADD SWAP1 PUSH1 0x20 ADD DUP1 DUP4 GT PUSH2 0x140 JUMPI DUP3 SWAP1 SUB PUSH1 0x1F AND DUP3 ADD SWAP2 JUMPDEST POP POP POP POP POP SWAP1 DUP1 PUSH1 0x4 ADD DUP1 SLOAD PUSH2 0x172 SWAP1 PUSH2 0x796 JUMP JUMPDEST DUP1 PUSH1 0x1F ADD PUSH1 0x20 DUP1 SWAP2 DIV MUL PUSH1 0x20 ADD PUSH1 0x40 MLOAD SWAP1 DUP2 ADD PUSH1 0x40 MSTORE DUP1 SWAP3 SWAP2 SWAP1 DUP2 DUP2 MSTORE PUSH1 0x20 ADD DUP3 DUP1 SLOAD PUSH2 0x19E SWAP1 PUSH2 0x796 JUMP JUMPDEST DUP1 ISZERO PUSH2 0x1EB JUMPI DUP1 PUSH1 0x1F LT PUSH2 0x1C0 JUMPI PUSH2 0x100 DUP1 DUP4 SLOAD DIV MUL DUP4 MSTORE SWAP2 PUSH1 0x20 ADD SWAP2 PUSH2 0x1EB JUMP JUMPDEST DUP3 ADD SWAP2 SWAP1 PUSH1 0x0 MSTORE PUSH1 0x20 PUSH1 0x0 KECCAK256 SWAP1 JUMPDEST DUP2 SLOAD DUP2 MSTORE SWAP1 PUSH1 0x1 ADD SWAP1 PUSH1 0x20 ADD DUP1 DUP4 GT PUSH2 0x1CE JUMPI DUP3 SWAP1 SUB PUSH1 0x1F AND DUP3 ADD SWAP2 JUMPDEST POP POP POP POP POP SWAP1 POP DUP6 JUMP JUMPDEST PUSH1 0x0 DUP1 PUSH2 0x203 DUP5 DUP7 DUP6 PUSH2 0x2FA JUMP JUMPDEST SWAP1 POP PUSH1 0x2 PUSH1 0x40 MLOAD DUP1 PUSH1 0xA0 ADD PUSH1 0x40 MSTORE DUP1 DUP4 DUP2 MSTORE PUSH1 0x20 ADD DUP9 DUP2 MSTORE PUSH1 0x20 ADD DUP8 DUP2 MSTORE PUSH1 0x20 ADD DUP7 DUP2 MSTORE PUSH1 0x20 ADD DUP6 DUP2 MSTORE POP SWAP1 DUP1 PUSH1 0x1 DUP2 SLOAD ADD DUP1 DUP3 SSTORE DUP1 SWAP2 POP POP PUSH1 0x1 SWAP1 SUB SWAP1 PUSH1 0x0 MSTORE PUSH1 0x20 PUSH1 0x0 KECCAK256 SWAP1 PUSH1 0x5 MUL ADD PUSH1 0x0 SWAP1 SWAP2 SWAP1 SWAP2 SWAP1 SWAP2 POP PUSH1 0x0 DUP3 ADD MLOAD DUP2 PUSH1 0x0 ADD SSTORE PUSH1 0x20 DUP3 ADD MLOAD DUP2 PUSH1 0x1 ADD SSTORE PUSH1 0x40 DUP3 ADD MLOAD DUP2 PUSH1 0x2 ADD SSTORE PUSH1 0x60 DUP3 ADD MLOAD DUP2 PUSH1 0x3 ADD SWAP1 DUP1 MLOAD SWAP1 PUSH1 0x20 ADD SWAP1 PUSH2 0x291 SWAP3 SWAP2 SWAP1 PUSH2 0x345 JUMP JUMPDEST POP PUSH1 0x80 DUP3 ADD MLOAD DUP2 PUSH1 0x4 ADD SWAP1 DUP1 MLOAD SWAP1 PUSH1 0x20 ADD SWAP1 PUSH2 0x2AE SWAP3 SWAP2 SWAP1 PUSH2 0x345 JUMP JUMPDEST POP POP POP PUSH32 0xD04C8C253AC3FCEA53E14F8C28C08F26B0E4DF95C5CA5CBDBA6F1B049ADBF653 DUP2 DUP6 DUP9 DUP7 PUSH1 0x40 MLOAD PUSH2 0x2E6 SWAP5 SWAP4 SWAP3 SWAP2 SWAP1 PUSH2 0x619 JUMP JUMPDEST PUSH1 0x40 MLOAD DUP1 SWAP2 SUB SWAP1 LOG1 DUP1 SWAP2 POP POP SWAP5 SWAP4 POP POP POP POP JUMP JUMPDEST PUSH1 0x0 DUP1 DUP5 DUP5 DUP5 PUSH1 0x40 MLOAD PUSH1 0x20 ADD PUSH2 0x312 SWAP4 SWAP3 SWAP2 SWAP1 PUSH2 0x5C9 JUMP JUMPDEST PUSH1 0x40 MLOAD PUSH1 0x20 DUP2 DUP4 SUB SUB DUP2 MSTORE SWAP1 PUSH1 0x40 MSTORE DUP1 MLOAD SWAP1 PUSH1 0x20 ADD KECCAK256 PUSH1 0x0 SHR SWAP1 POP PUSH1 0x1 SLOAD DUP2 PUSH2 0x33B SWAP2 SWAP1 PUSH2 0x803 JUMP JUMPDEST SWAP2 POP POP SWAP4 SWAP3 POP POP POP JUMP JUMPDEST DUP3 DUP1 SLOAD PUSH2 0x351 SWAP1 PUSH2 0x796 JUMP JUMPDEST SWAP1 PUSH1 0x0 MSTORE PUSH1 0x20 PUSH1 0x0 KECCAK256 SWAP1 PUSH1 0x1F ADD PUSH1 0x20 SWAP1 DIV DUP2 ADD SWAP3 DUP3 PUSH2 0x373 JUMPI PUSH1 0x0 DUP6 SSTORE PUSH2 0x3BA JUMP JUMPDEST DUP3 PUSH1 0x1F LT PUSH2 0x38C JUMPI DUP1 MLOAD PUSH1 0xFF NOT AND DUP4 DUP1 ADD OR DUP6 SSTORE PUSH2 0x3BA JUMP JUMPDEST DUP3 DUP1 ADD PUSH1 0x1 ADD DUP6 SSTORE DUP3 ISZERO PUSH2 0x3BA JUMPI SWAP2 DUP3 ADD JUMPDEST DUP3 DUP2 GT ISZERO PUSH2 0x3B9 JUMPI DUP3 MLOAD DUP3 SSTORE SWAP2 PUSH1 0x20 ADD SWAP2 SWAP1 PUSH1 0x1 ADD SWAP1 PUSH2 0x39E JUMP JUMPDEST JUMPDEST POP SWAP1 POP PUSH2 0x3C7 SWAP2 SWAP1 PUSH2 0x3CB JUMP JUMPDEST POP SWAP1 JUMP JUMPDEST JUMPDEST DUP1 DUP3 GT ISZERO PUSH2 0x3E4 JUMPI PUSH1 0x0 DUP2 PUSH1 0x0 SWAP1 SSTORE POP PUSH1 0x1 ADD PUSH2 0x3CC JUMP JUMPDEST POP SWAP1 JUMP JUMPDEST PUSH1 0x0 PUSH2 0x3FB PUSH2 0x3F6 DUP5 PUSH2 0x6F2 JUMP JUMPDEST PUSH2 0x6CD JUMP JUMPDEST SWAP1 POP DUP3 DUP2 MSTORE PUSH1 0x20 DUP2 ADD DUP5 DUP5 DUP5 ADD GT ISZERO PUSH2 0x417 JUMPI PUSH2 0x416 PUSH2 0x8C6 JUMP JUMPDEST JUMPDEST PUSH2 0x422 DUP5 DUP3 DUP6 PUSH2 0x754 JUMP JUMPDEST POP SWAP4 SWAP3 POP POP POP JUMP JUMPDEST PUSH1 0x0 DUP3 PUSH1 0x1F DUP4 ADD SLT PUSH2 0x43F JUMPI PUSH2 0x43E PUSH2 0x8C1 JUMP JUMPDEST JUMPDEST DUP2 CALLDATALOAD PUSH2 0x44F DUP5 DUP3 PUSH1 0x20 DUP7 ADD PUSH2 0x3E8 JUMP JUMPDEST SWAP2 POP POP SWAP3 SWAP2 POP POP JUMP JUMPDEST PUSH1 0x0 DUP2 CALLDATALOAD SWAP1 POP PUSH2 0x467 DUP2 PUSH2 0x8E6 JUMP JUMPDEST SWAP3 SWAP2 POP POP JUMP JUMPDEST PUSH1 0x0 PUSH1 0x20 DUP3 DUP5 SUB SLT ISZERO PUSH2 0x483 JUMPI PUSH2 0x482 PUSH2 0x8D0 JUMP JUMPDEST JUMPDEST PUSH1 0x0 PUSH2 0x491 DUP5 DUP3 DUP6 ADD PUSH2 0x458 JUMP JUMPDEST SWAP2 POP POP SWAP3 SWAP2 POP POP JUMP JUMPDEST PUSH1 0x0 DUP1 PUSH1 0x0 DUP1 PUSH1 0x80 DUP6 DUP8 SUB SLT ISZERO PUSH2 0x4B4 JUMPI PUSH2 0x4B3 PUSH2 0x8D0 JUMP JUMPDEST JUMPDEST PUSH1 0x0 PUSH2 0x4C2 DUP8 DUP3 DUP9 ADD PUSH2 0x458 JUMP JUMPDEST SWAP5 POP POP PUSH1 0x20 PUSH2 0x4D3 DUP8 DUP3 DUP9 ADD PUSH2 0x458 JUMP JUMPDEST SWAP4 POP POP PUSH1 0x40 DUP6 ADD CALLDATALOAD PUSH8 0xFFFFFFFFFFFFFFFF DUP2 GT ISZERO PUSH2 0x4F4 JUMPI PUSH2 0x4F3 PUSH2 0x8CB JUMP JUMPDEST JUMPDEST PUSH2 0x500 DUP8 DUP3 DUP9 ADD PUSH2 0x42A JUMP JUMPDEST SWAP3 POP POP PUSH1 0x60 DUP6 ADD CALLDATALOAD PUSH8 0xFFFFFFFFFFFFFFFF DUP2 GT ISZERO PUSH2 0x521 JUMPI PUSH2 0x520 PUSH2 0x8CB JUMP JUMPDEST JUMPDEST PUSH2 0x52D DUP8 DUP3 DUP9 ADD PUSH2 0x42A JUMP JUMPDEST SWAP2 POP POP SWAP3 SWAP6 SWAP2 SWAP5 POP SWAP3 POP JUMP JUMPDEST PUSH1 0x0 PUSH2 0x544 DUP3 PUSH2 0x723 JUMP JUMPDEST PUSH2 0x54E DUP2 DUP6 PUSH2 0x72E JUMP JUMPDEST SWAP4 POP PUSH2 0x55E DUP2 DUP6 PUSH1 0x20 DUP7 ADD PUSH2 0x763 JUMP JUMPDEST PUSH2 0x567 DUP2 PUSH2 0x8D5 JUMP JUMPDEST DUP5 ADD SWAP2 POP POP SWAP3 SWAP2 POP POP JUMP JUMPDEST PUSH1 0x0 PUSH2 0x57D DUP3 PUSH2 0x723 JUMP JUMPDEST PUSH2 0x587 DUP2 DUP6 PUSH2 0x73F JUMP JUMPDEST SWAP4 POP PUSH2 0x597 DUP2 DUP6 PUSH1 0x20 DUP7 ADD PUSH2 0x763 JUMP JUMPDEST DUP1 DUP5 ADD SWAP2 POP POP SWAP3 SWAP2 POP POP JUMP JUMPDEST PUSH2 0x5AC DUP2 PUSH2 0x74A JUMP JUMPDEST DUP3 MSTORE POP POP JUMP JUMPDEST PUSH2 0x5C3 PUSH2 0x5BE DUP3 PUSH2 0x74A JUMP JUMPDEST PUSH2 0x7F9 JUMP JUMPDEST DUP3 MSTORE POP POP JUMP JUMPDEST PUSH1 0x0 PUSH2 0x5D5 DUP3 DUP7 PUSH2 0x572 JUMP JUMPDEST SWAP2 POP PUSH2 0x5E1 DUP3 DUP6 PUSH2 0x5B2 JUMP JUMPDEST PUSH1 0x20 DUP3 ADD SWAP2 POP PUSH2 0x5F1 DUP3 DUP5 PUSH2 0x572 JUMP JUMPDEST SWAP2 POP DUP2 SWAP1 POP SWAP5 SWAP4 POP POP POP POP JUMP JUMPDEST PUSH1 0x0 PUSH1 0x20 DUP3 ADD SWAP1 POP PUSH2 0x613 PUSH1 0x0 DUP4 ADD DUP5 PUSH2 0x5A3 JUMP JUMPDEST SWAP3 SWAP2 POP POP JUMP JUMPDEST PUSH1 0x0 PUSH1 0x80 DUP3 ADD SWAP1 POP PUSH2 0x62E PUSH1 0x0 DUP4 ADD DUP8 PUSH2 0x5A3 JUMP JUMPDEST DUP2 DUP2 SUB PUSH1 0x20 DUP4 ADD MSTORE PUSH2 0x640 DUP2 DUP7 PUSH2 0x539 JUMP JUMPDEST SWAP1 POP PUSH2 0x64F PUSH1 0x40 DUP4 ADD DUP6 PUSH2 0x5A3 JUMP JUMPDEST DUP2 DUP2 SUB PUSH1 0x60 DUP4 ADD MSTORE PUSH2 0x661 DUP2 DUP5 PUSH2 0x539 JUMP JUMPDEST SWAP1 POP SWAP6 SWAP5 POP POP POP POP POP JUMP JUMPDEST PUSH1 0x0 PUSH1 0xA0 DUP3 ADD SWAP1 POP PUSH2 0x681 PUSH1 0x0 DUP4 ADD DUP9 PUSH2 0x5A3 JUMP JUMPDEST PUSH2 0x68E PUSH1 0x20 DUP4 ADD DUP8 PUSH2 0x5A3 JUMP JUMPDEST PUSH2 0x69B PUSH1 0x40 DUP4 ADD DUP7 PUSH2 0x5A3 JUMP JUMPDEST DUP2 DUP2 SUB PUSH1 0x60 DUP4 ADD MSTORE PUSH2 0x6AD DUP2 DUP6 PUSH2 0x539 JUMP JUMPDEST SWAP1 POP DUP2 DUP2 SUB PUSH1 0x80 DUP4 ADD MSTORE PUSH2 0x6C1 DUP2 DUP5 PUSH2 0x539 JUMP JUMPDEST SWAP1 POP SWAP7 SWAP6 POP POP POP POP POP POP JUMP JUMPDEST PUSH1 0x0 PUSH2 0x6D7 PUSH2 0x6E8 JUMP JUMPDEST SWAP1 POP PUSH2 0x6E3 DUP3 DUP3 PUSH2 0x7C8 JUMP JUMPDEST SWAP2 SWAP1 POP JUMP JUMPDEST PUSH1 0x0 PUSH1 0x40 MLOAD SWAP1 POP SWAP1 JUMP JUMPDEST PUSH1 0x0 PUSH8 0xFFFFFFFFFFFFFFFF DUP3 GT ISZERO PUSH2 0x70D JUMPI PUSH2 0x70C PUSH2 0x892 JUMP JUMPDEST JUMPDEST PUSH2 0x716 DUP3 PUSH2 0x8D5 JUMP JUMPDEST SWAP1 POP PUSH1 0x20 DUP2 ADD SWAP1 POP SWAP2 SWAP1 POP JUMP JUMPDEST PUSH1 0x0 DUP2 MLOAD SWAP1 POP SWAP2 SWAP1 POP JUMP JUMPDEST PUSH1 0x0 DUP3 DUP3 MSTORE PUSH1 0x20 DUP3 ADD SWAP1 POP SWAP3 SWAP2 POP POP JUMP JUMPDEST PUSH1 0x0 DUP2 SWAP1 POP SWAP3 SWAP2 POP POP JUMP JUMPDEST PUSH1 0x0 DUP2 SWAP1 POP SWAP2 SWAP1 POP JUMP JUMPDEST DUP3 DUP2 DUP4 CALLDATACOPY PUSH1 0x0 DUP4 DUP4 ADD MSTORE POP POP POP JUMP JUMPDEST PUSH1 0x0 JUMPDEST DUP4 DUP2 LT ISZERO PUSH2 0x781 JUMPI DUP1 DUP3 ADD MLOAD DUP2 DUP5 ADD MSTORE PUSH1 0x20 DUP2 ADD SWAP1 POP PUSH2 0x766 JUMP JUMPDEST DUP4 DUP2 GT ISZERO PUSH2 0x790 JUMPI PUSH1 0x0 DUP5 DUP5 ADD MSTORE JUMPDEST POP POP POP POP JUMP JUMPDEST PUSH1 0x0 PUSH1 0x2 DUP3 DIV SWAP1 POP PUSH1 0x1 DUP3 AND DUP1 PUSH2 0x7AE JUMPI PUSH1 0x7F DUP3 AND SWAP2 POP JUMPDEST PUSH1 0x20 DUP3 LT DUP2 EQ ISZERO PUSH2 0x7C2 JUMPI PUSH2 0x7C1 PUSH2 0x863 JUMP JUMPDEST JUMPDEST POP SWAP2 SWAP1 POP JUMP JUMPDEST PUSH2 0x7D1 DUP3 PUSH2 0x8D5 JUMP JUMPDEST DUP2 ADD DUP2 DUP2 LT PUSH8 0xFFFFFFFFFFFFFFFF DUP3 GT OR ISZERO PUSH2 0x7F0 JUMPI PUSH2 0x7EF PUSH2 0x892 JUMP JUMPDEST JUMPDEST DUP1 PUSH1 0x40 MSTORE POP POP POP JUMP JUMPDEST PUSH1 0x0 DUP2 SWAP1 POP SWAP2 SWAP1 POP JUMP JUMPDEST PUSH1 0x0 PUSH2 0x80E DUP3 PUSH2 0x74A JUMP JUMPDEST SWAP2 POP PUSH2 0x819 DUP4 PUSH2 0x74A JUMP JUMPDEST SWAP3 POP DUP3 PUSH2 0x829 JUMPI PUSH2 0x828 PUSH2 0x834 JUMP JUMPDEST JUMPDEST DUP3 DUP3 MOD SWAP1 POP SWAP3 SWAP2 POP POP JUMP JUMPDEST PUSH32 0x4E487B7100000000000000000000000000000000000000000000000000000000 PUSH1 0x0 MSTORE PUSH1 0x12 PUSH1 0x4 MSTORE PUSH1 0x24 PUSH1 0x0 REVERT JUMPDEST PUSH32 0x4E487B7100000000000000000000000000000000000000000000000000000000 PUSH1 0x0 MSTORE PUSH1 0x22 PUSH1 0x4 MSTORE PUSH1 0x24 PUSH1 0x0 REVERT JUMPDEST PUSH32 0x4E487B7100000000000000000000000000000000000000000000000000000000 PUSH1 0x0 MSTORE PUSH1 0x41 PUSH1 0x4 MSTORE PUSH1 0x24 PUSH1 0x0 REVERT JUMPDEST PUSH1 0x0 DUP1 REVERT JUMPDEST PUSH1 0x0 DUP1 REVERT JUMPDEST PUSH1 0x0 DUP1 REVERT JUMPDEST PUSH1 0x0 DUP1 REVERT JUMPDEST PUSH1 0x0 PUSH1 0x1F NOT PUSH1 0x1F DUP4 ADD AND SWAP1 POP SWAP2 SWAP1 POP JUMP JUMPDEST PUSH2 0x8EF DUP2 PUSH2 0x74A JUMP JUMPDEST DUP2 EQ PUSH2 0x8FA JUMPI PUSH1 0x0 DUP1 REVERT JUMPDEST POP JUMP INVALID LOG2 PUSH5 0x6970667358 0x22 SLT KECCAK256 0xDA SUB 0x27 0xD 0x25 SIGNEXTEND SWAP14 RETURNDATACOPY JUMPI 0xDC 0xE2 PUSH7 0xD269A69459FBE3 OR DIV PUSH15 0x33655F4F5BBAA47F263B64736F6C63 NUMBER STOP ADDMOD SMOD STOP CALLER "
		},
		"gasEstimates": {
			"creation": {
				"codeDepositCost": "471000",
				"executionCost": "infinite",
				"totalCost": "infinite"
			},
			"external": {
				"houses(uint256)": "infinite",
				"listHouse(uint256,uint256,string,string)": "infinite"
			},
			"internal": {
				"_generateHouseId(string memory,uint256,string memory)": "infinite"
			}
		},
		"methodIdentifiers": {
			"houses(uint256)": "aeda852f",
			"listHouse(uint256,uint256,string,string)": "c6e4870a"
		}
	},
	"abi": [
		{
			"anonymous": false,
			"inputs": [
				{
					"indexed": false,
					"internalType": "uint256",
					"name": "houseId",
					"type": "uint256"
				},
				{
					"indexed": false,
					"internalType": "string",
					"name": "sellerAddress",
					"type": "string"
				},
				{
					"indexed": false,
					"internalType": "uint256",
					"name": "price",
					"type": "uint256"
				},
				{
					"indexed": false,
					"internalType": "string",
					"name": "houseAddress",
					"type": "string"
				}
			],
			"name": "AddNewHouse",
			"type": "event"
		},
		{
			"inputs": [
				{
					"internalType": "uint256",
					"name": "",
					"type": "uint256"
				}
			],
			"name": "houses",
			"outputs": [
				{
					"internalType": "uint256",
					"name": "id",
					"type": "uint256"
				},
				{
					"internalType": "uint256",
					"name": "price",
					"type": "uint256"
				},
				{
					"internalType": "uint256",
					"name": "area",
					"type": "uint256"
				},
				{
					"internalType": "string",
					"name": "sellerAddress",
					"type": "string"
				},
				{
					"internalType": "string",
					"name": "houseAddress",
					"type": "string"
				}
			],
			"stateMutability": "view",
			"type": "function"
		},
		{
			"inputs": [
				{
					"internalType": "uint256",
					"name": "_price",
					"type": "uint256"
				},
				{
					"internalType": "uint256",
					"name": "_area",
					"type": "uint256"
				},
				{
					"internalType": "string",
					"name": "_sellerAddress",
					"type": "string"
				},
				{
					"internalType": "string",
					"name": "_houseAddress",
					"type": "string"
				}
			],
			"name": "listHouse",
			"outputs": [
				{
					"internalType": "uint256",
					"name": "",
					"type": "uint256"
				}
			],
			"stateMutability": "nonpayable",
			"type": "function"
		}
	]
}