{
	"data": {
		"bytecode": {
			"linkReferences": {},
			"object": "60806040526005600055600054600a6200001a919062000098565b6001556201518060025560016003553480156200003657600080fd5b506200021b565b6000808291508390505b60018511156200008f57808604811115620000675762000066620001df565b5b6001851615620000775780820291505b808102905062000087856200020e565b945062000047565b94509492505050565b6000620000a582620001d5565b9150620000b283620001d5565b9250620000e17fffffffffffffffffffffffffffffffffffffffffffffffffffffffffffffffff8484620000e9565b905092915050565b600082620000fb5760019050620001ce565b816200010b5760009050620001ce565b81600181146200012457600281146200012f5762000165565b6001915050620001ce565b60ff841115620001445762000143620001df565b5b8360020a9150848211156200015e576200015d620001df565b5b50620001ce565b5060208310610133831016604e8410600b84101617156200019f5782820a905083811115620001995762000198620001df565b5b620001ce565b620001ae84848460016200003d565b92509050818404811115620001c857620001c7620001df565b5b81810290505b9392505050565b6000819050919050565b7f4e487b7100000000000000000000000000000000000000000000000000000000600052601160045260246000fd5b60008160011c9050919050565b613f32806200022b6000396000f3fe60806040523480156200001157600080fd5b5060043610620000525760003560e01c80631916116114620000575780633c3b0b4a146200008d578063aeda852f14620000c3578063c45e1b2514620000f9575b600080fd5b6200007560048036038101906200006f9190620009cd565b6200012f565b60405162000084919062000d69565b60405180910390f35b620000ab6004803603810190620000a5919062000969565b6200032f565b604051620000ba919062000cdf565b60405180910390f35b620000e16004803603810190620000db919062000969565b62000431565b604051620000f0919062000c9e565b60405180910390f35b62000117600480360381019062000111919062000969565b62000464565b60405162000126919062000cbb565b60405180910390f35b600080848762000140919062000fac565b1162000183576040517f08c379a00000000000000000000000000000000000000000000000000000000081526004016200017a9062000d03565b60405180910390fd5b600062000192848685620007d8565b90506200019f8162000827565b620001e1576040517f08c379a0000000000000000000000000000000000000000000000000000000008152600401620001d89062000d25565b60405180910390fd5b600081600354898989898a8a6000604051620001fd9062000898565b620002119998979695949392919062000dea565b604051809103906000f0801580156200022e573d6000803e3d6000fd5b509050806006600084815260200190815260200160002060006101000a81548173ffffffffffffffffffffffffffffffffffffffff021916908373ffffffffffffffffffffffffffffffffffffffff1602179055506200029d6002544262000297919062000f4f565b6200088e565b600582908060018154018082558091505060019003906000526020600020016000909190919091505560036000815480929190620002db90620010d2565b91905055507f3070c472a527c6fdf9d1d29d3f8de3f74a2de6ef97db5cc15b587188b278951f82868a8a886040516200031995949392919062000d86565b60405180910390a1819250505095945050505050565b60603373ffffffffffffffffffffffffffffffffffffffff166006600084815260200190815260200160002060009054906101000a900473ffffffffffffffffffffffffffffffffffffffff1673ffffffffffffffffffffffffffffffffffffffff1614620003d5576040517f08c379a0000000000000000000000000000000000000000000000000000000008152600401620003cc9062000d47565b60405180910390fd5b6006600083815260200190815260200160002060009054906101000a9050506040518060400160405280601581526020017f64656c69737420776173207375636365737366756c00000000000000000000008152509050919050565b60066020528060005260406000206000915054906101000a900473ffffffffffffffffffffffffffffffffffffffff1681565b60606000805b6005805490508110156200057d57836006600060058481548110620004945762000493620011e8565b5b9060005260206000200154815260200190815260200160002060009054906101000a900473ffffffffffffffffffffffffffffffffffffffff1673ffffffffffffffffffffffffffffffffffffffff1663a19af1ad6040518163ffffffff1660e01b815260040160206040518083038186803b1580156200051457600080fd5b505afa15801562000529573d6000803e3d6000fd5b505050506040513d601f19601f820116820180604052508101906200054f91906200099b565b1015620005675781806200056390620010d2565b9250505b80806200057490620010d2565b9150506200046a565b5060008167ffffffffffffffff8111156200059d576200059c62001217565b5b604051908082528060200260200182016040528015620005cc5781602001602082028036833780820191505090505b50905060005b600580549050811015620007cd57846006600060058481548110620005fc57620005fb620011e8565b5b9060005260206000200154815260200190815260200160002060009054906101000a900473ffffffffffffffffffffffffffffffffffffffff1673ffffffffffffffffffffffffffffffffffffffff1663a19af1ad6040518163ffffffff1660e01b815260040160206040518083038186803b1580156200067c57600080fd5b505afa15801562000691573d6000803e3d6000fd5b505050506040513d601f19601f82011682018060405250810190620006b791906200099b565b1015620007b7576006600060058381548110620006d957620006d8620011e8565b5b9060005260206000200154815260200190815260200160002060009054906101000a900473ffffffffffffffffffffffffffffffffffffffff1673ffffffffffffffffffffffffffffffffffffffff166336c8af5d6040518163ffffffff1660e01b815260040160206040518083038186803b1580156200075957600080fd5b505afa1580156200076e573d6000803e3d6000fd5b505050506040513d601f19601f820116820180604052508101906200079491906200099b565b828281518110620007aa57620007a9620011e8565b5b6020026020010181815250505b8080620007c490620010d2565b915050620005d2565b508092505050919050565b600080848484604051602001620007f29392919062000c5f565b6040516020818303038152906040528051906020012060001c9050600154816200081d919062001152565b9150509392505050565b6000806001905060005b60058054905081101562000884578360058281548110620008575762000856620011e8565b5b906000526020600020015414156200086e57600091505b80806200087b90620010d2565b91505062000831565b5080915050919050565b8060048190555050565b612baf806200134e83390190565b6000620008bd620008b78462000eb9565b62000e90565b905082815260208101848484011115620008dc57620008db6200124b565b5b620008e984828562001057565b509392505050565b600081359050620009028162001319565b92915050565b600082601f83011262000920576200091f62001246565b5b813562000932848260208601620008a6565b91505092915050565b6000813590506200094c8162001333565b92915050565b600081519050620009638162001333565b92915050565b60006020828403121562000982576200098162001255565b5b600062000992848285016200093b565b91505092915050565b600060208284031215620009b457620009b362001255565b5b6000620009c48482850162000952565b91505092915050565b600080600080600060a08688031215620009ec57620009eb62001255565b5b6000620009fc888289016200093b565b955050602062000a0f888289016200093b565b945050604062000a22888289016200093b565b935050606062000a3588828901620008f1565b925050608086013567ffffffffffffffff81111562000a595762000a5862001250565b5b62000a678882890162000908565b9150509295509295909350565b600062000a82838362000c22565b60208301905092915050565b62000a99816200100d565b82525050565b62000ab462000aae826200100d565b62001120565b82525050565b600062000ac78262000eff565b62000ad3818562000f22565b935062000ae08362000eef565b8060005b8381101562000b1757815162000afb888262000a74565b975062000b088362000f15565b92505060018101905062000ae4565b5085935050505092915050565b62000b2f8162001021565b82525050565b600062000b428262000f0a565b62000b4e818562000f33565b935062000b6081856020860162001066565b62000b6b816200125a565b840191505092915050565b600062000b838262000f0a565b62000b8f818562000f44565b935062000ba181856020860162001066565b80840191505092915050565b600062000bbc60148362000f33565b915062000bc98262001278565b602082019050919050565b600062000be3601b8362000f33565b915062000bf082620012a1565b602082019050919050565b600062000c0a602b8362000f33565b915062000c1782620012ca565b604082019050919050565b62000c2d816200104d565b82525050565b62000c3e816200104d565b82525050565b62000c5962000c53826200104d565b62001148565b82525050565b600062000c6d828662000a9f565b60148201915062000c7f828562000c44565b60208201915062000c91828462000b76565b9150819050949350505050565b600060208201905062000cb5600083018462000a8e565b92915050565b6000602082019050818103600083015262000cd7818462000aba565b905092915050565b6000602082019050818103600083015262000cfb818462000b35565b905092915050565b6000602082019050818103600083015262000d1e8162000bad565b9050919050565b6000602082019050818103600083015262000d408162000bd4565b9050919050565b6000602082019050818103600083015262000d628162000bfb565b9050919050565b600060208201905062000d80600083018462000c33565b92915050565b600060a08201905062000d9d600083018862000c33565b62000dac602083018762000a8e565b62000dbb604083018662000c33565b62000dca606083018562000c33565b818103608083015262000dde818462000b35565b90509695505050505050565b60006101208201905062000e02600083018c62000c33565b62000e11602083018b62000c33565b62000e20604083018a62000c33565b62000e2f606083018962000c33565b62000e3e608083018862000c33565b62000e4d60a083018762000a8e565b62000e5c60c083018662000a8e565b81810360e083015262000e70818562000b35565b905062000e8261010083018462000b24565b9a9950505050505050505050565b600062000e9c62000eaf565b905062000eaa82826200109c565b919050565b6000604051905090565b600067ffffffffffffffff82111562000ed75762000ed662001217565b5b62000ee2826200125a565b9050602081019050919050565b6000819050602082019050919050565b600081519050919050565b600081519050919050565b6000602082019050919050565b600082825260208201905092915050565b600082825260208201905092915050565b600081905092915050565b600062000f5c826200104d565b915062000f69836200104d565b9250827fffffffffffffffffffffffffffffffffffffffffffffffffffffffffffffffff0382111562000fa15762000fa06200118a565b5b828201905092915050565b600062000fb9826200104d565b915062000fc6836200104d565b9250817fffffffffffffffffffffffffffffffffffffffffffffffffffffffffffffffff04831182151516156200100257620010016200118a565b5b828202905092915050565b60006200101a826200102d565b9050919050565b60008115159050919050565b600073ffffffffffffffffffffffffffffffffffffffff82169050919050565b6000819050919050565b82818337600083830152505050565b60005b838110156200108657808201518184015260208101905062001069565b8381111562001096576000848401525b50505050565b620010a7826200125a565b810181811067ffffffffffffffff82111715620010c957620010c862001217565b5b80604052505050565b6000620010df826200104d565b91507fffffffffffffffffffffffffffffffffffffffffffffffffffffffffffffffff8214156200111557620011146200118a565b5b600182019050919050565b60006200112d8262001134565b9050919050565b600062001141826200126b565b9050919050565b6000819050919050565b60006200115f826200104d565b91506200116c836200104d565b9250826200117f576200117e620011b9565b5b828206905092915050565b7f4e487b7100000000000000000000000000000000000000000000000000000000600052601160045260246000fd5b7f4e487b7100000000000000000000000000000000000000000000000000000000600052601260045260246000fd5b7f4e487b7100000000000000000000000000000000000000000000000000000000600052603260045260246000fd5b7f4e487b7100000000000000000000000000000000000000000000000000000000600052604160045260246000fd5b600080fd5b600080fd5b600080fd5b600080fd5b6000601f19601f8301169050919050565b60008160601b9050919050565b7f76616c75652063616e6e6f74206265206e756c6c000000000000000000000000600082015250565b7f7468697320686f757365496420616c7265616479206578697374730000000000600082015250565b7f596f7520646f206e6f7420686176652061636365737320746f2064656c65746560008201527f207468697320686f757365000000000000000000000000000000000000000000602082015250565b62001324816200100d565b81146200133057600080fd5b50565b6200133e816200104d565b81146200134a57600080fd5b5056fe60806040523480156200001157600080fd5b5060405162002baf38038062002baf833981810160405281019062000037919062000331565b6040518060400160405280600a81526020017f486f757365546f6b656e000000000000000000000000000000000000000000008152506040518060400160405280600281526020017f48540000000000000000000000000000000000000000000000000000000000008152508160009080519060200190620000bb929190620001be565b508060019080519060200190620000d4929190620001be565b5050508860068190555087600781905550866008819055508560098190555084600a8190555083600b60006101000a81548173ffffffffffffffffffffffffffffffffffffffff021916908373ffffffffffffffffffffffffffffffffffffffff16021790555082600c60006101000a81548173ffffffffffffffffffffffffffffffffffffffff021916908373ffffffffffffffffffffffffffffffffffffffff16021790555081600d908051906020019062000194929190620001be565b5080600e60006101000a81548160ff0219169083151502179055505050505050505050506200064b565b828054620001cc906200050e565b90600052602060002090601f016020900481019282620001f057600085556200023c565b82601f106200020b57805160ff19168380011785556200023c565b828001600101855582156200023c579182015b828111156200023b5782518255916020019190600101906200021e565b5b5090506200024b91906200024f565b5090565b5b808211156200026a57600081600090555060010162000250565b5090565b6000620002856200027f8462000458565b6200042f565b905082815260208101848484011115620002a457620002a3620005dd565b5b620002b1848285620004d8565b509392505050565b600081519050620002ca81620005fd565b92915050565b600081519050620002e18162000617565b92915050565b600082601f830112620002ff57620002fe620005d8565b5b8151620003118482602086016200026e565b91505092915050565b6000815190506200032b8162000631565b92915050565b60008060008060008060008060006101208a8c031215620003575762000356620005e7565b5b6000620003678c828d016200031a565b99505060206200037a8c828d016200031a565b98505060406200038d8c828d016200031a565b9750506060620003a08c828d016200031a565b9650506080620003b38c828d016200031a565b95505060a0620003c68c828d01620002b9565b94505060c0620003d98c828d01620002b9565b93505060e08a015167ffffffffffffffff811115620003fd57620003fc620005e2565b5b6200040b8c828d01620002e7565b9250506101006200041f8c828d01620002d0565b9150509295985092959850929598565b60006200043b6200044e565b905062000449828262000544565b919050565b6000604051905090565b600067ffffffffffffffff821115620004765762000475620005a9565b5b6200048182620005ec565b9050602081019050919050565b60006200049b82620004ae565b9050919050565b60008115159050919050565b600073ffffffffffffffffffffffffffffffffffffffff82169050919050565b6000819050919050565b60005b83811015620004f8578082015181840152602081019050620004db565b8381111562000508576000848401525b50505050565b600060028204905060018216806200052757607f821691505b602082108114156200053e576200053d6200057a565b5b50919050565b6200054f82620005ec565b810181811067ffffffffffffffff82111715620005715762000570620005a9565b5b80604052505050565b7f4e487b7100000000000000000000000000000000000000000000000000000000600052602260045260246000fd5b7f4e487b7100000000000000000000000000000000000000000000000000000000600052604160045260246000fd5b600080fd5b600080fd5b600080fd5b600080fd5b6000601f19601f8301169050919050565b62000608816200048e565b81146200061457600080fd5b50565b6200062281620004a2565b81146200062e57600080fd5b50565b6200063c81620004ce565b81146200064857600080fd5b50565b612554806200065b6000396000f3fe608060405234801561001057600080fd5b50600436106101165760003560e01c806370a08231116100a2578063a8a0991a11610071578063a8a0991a146102cd578063b88d4fde146102eb578063c87b56dd14610307578063d847c19a14610337578063e985e9c51461035357610116565b806370a082311461024557806395d89b4114610275578063a19af1ad14610293578063a22cb465146102b157610116565b806323b872dd116100e957806323b872dd146101b557806336c8af5d146101d157806342842e0e146101ef5780635ff27f131461020b5780636352211e1461021557610116565b806301ffc9a71461011b57806306fdde031461014b578063081812fc14610169578063095ea7b314610199575b600080fd5b610135600480360381019061013091906117df565b610383565b6040516101429190611b65565b60405180910390f35b610153610465565b6040516101609190611b80565b60405180910390f35b610183600480360381019061017e9190611839565b6104f7565b6040516101909190611afe565b60405180910390f35b6101b360048036038101906101ae919061179f565b61057c565b005b6101cf60048036038101906101ca9190611689565b610694565b005b6101d96106f4565b6040516101e69190611d22565b60405180910390f35b61020960048036038101906102049190611689565b6106fe565b005b61021361071e565b005b61022f600480360381019061022a9190611839565b61073b565b60405161023c9190611afe565b60405180910390f35b61025f600480360381019061025a919061161c565b6107ed565b60405161026c9190611d22565b60405180910390f35b61027d6108a5565b60405161028a9190611b80565b60405180910390f35b61029b610937565b6040516102a89190611d22565b60405180910390f35b6102cb60048036038101906102c6919061175f565b610941565b005b6102d5610957565b6040516102e29190611afe565b60405180910390f35b610305600480360381019061030091906116dc565b610981565b005b610321600480360381019061031c9190611839565b6109e3565b60405161032e9190611b80565b60405180910390f35b610351600480360381019061034c919061161c565b610a8a565b005b61036d60048036038101906103689190611649565b610ace565b60405161037a9190611b65565b60405180910390f35b60007f80ac58cd000000000000000000000000000000000000000000000000000000007bffffffffffffffffffffffffffffffffffffffffffffffffffffffff1916827bffffffffffffffffffffffffffffffffffffffffffffffffffffffff1916148061044e57507f5b5e139f000000000000000000000000000000000000000000000000000000007bffffffffffffffffffffffffffffffffffffffffffffffffffffffff1916827bffffffffffffffffffffffffffffffffffffffffffffffffffffffff1916145b8061045e575061045d82610b62565b5b9050919050565b60606000805461047490611f47565b80601f01602080910402602001604051908101604052809291908181526020018280546104a090611f47565b80156104ed5780601f106104c2576101008083540402835291602001916104ed565b820191906000526020600020905b8154815290600101906020018083116104d057829003601f168201915b5050505050905090565b600061050282610bcc565b610541576040517f08c379a000000000000000000000000000000000000000000000000000000000815260040161053890611ca2565b60405180910390fd5b6004600083815260200190815260200160002060009054906101000a900473ffffffffffffffffffffffffffffffffffffffff169050919050565b60006105878261073b565b90508073ffffffffffffffffffffffffffffffffffffffff168373ffffffffffffffffffffffffffffffffffffffff1614156105f8576040517f08c379a00000000000000000000000000000000000000000000000000000000081526004016105ef90611ce2565b60405180910390fd5b8073ffffffffffffffffffffffffffffffffffffffff16610617610c38565b73ffffffffffffffffffffffffffffffffffffffff161480610646575061064581610640610c38565b610ace565b5b610685576040517f08c379a000000000000000000000000000000000000000000000000000000000815260040161067c90611c62565b60405180910390fd5b61068f8383610c40565b505050565b6106a561069f610c38565b82610cf9565b6106e4576040517f08c379a00000000000000000000000000000000000000000000000000000000081526004016106db90611d02565b60405180910390fd5b6106ef838383610dd7565b505050565b6000600654905090565b61071983838360405180602001604052806000815250610981565b505050565b6001600e60006101000a81548160ff021916908315150217905550565b6000806002600084815260200190815260200160002060009054906101000a900473ffffffffffffffffffffffffffffffffffffffff169050600073ffffffffffffffffffffffffffffffffffffffff168173ffffffffffffffffffffffffffffffffffffffff1614156107e4576040517f08c379a00000000000000000000000000000000000000000000000000000000081526004016107db90611c82565b60405180910390fd5b80915050919050565b60008073ffffffffffffffffffffffffffffffffffffffff168273ffffffffffffffffffffffffffffffffffffffff16141561085e576040517f08c379a000000000000000000000000000000000000000000000000000000000815260040161085590611c42565b60405180910390fd5b600360008373ffffffffffffffffffffffffffffffffffffffff1673ffffffffffffffffffffffffffffffffffffffff168152602001908152602001600020549050919050565b6060600180546108b490611f47565b80601f01602080910402602001604051908101604052809291908181526020018280546108e090611f47565b801561092d5780601f106109025761010080835404028352916020019161092d565b820191906000526020600020905b81548152906001019060200180831161091057829003601f168201915b5050505050905090565b6000600854905090565b61095361094c610c38565b838361103e565b5050565b6000600b60009054906101000a900473ffffffffffffffffffffffffffffffffffffffff16905090565b61099261098c610c38565b83610cf9565b6109d1576040517f08c379a00000000000000000000000000000000000000000000000000000000081526004016109c890611d02565b60405180910390fd5b6109dd848484846111ab565b50505050565b60606109ee82610bcc565b610a2d576040517f08c379a0000000000000000000000000000000000000000000000000000000008152600401610a2490611cc2565b60405180910390fd5b6000610a37611207565b90506000815111610a575760405180602001604052806000815250610a82565b80610a618461121e565b604051602001610a72929190611ada565b6040516020818303038152906040525b915050919050565b80600c60006101000a81548173ffffffffffffffffffffffffffffffffffffffff021916908373ffffffffffffffffffffffffffffffffffffffff16021790555050565b6000600560008473ffffffffffffffffffffffffffffffffffffffff1673ffffffffffffffffffffffffffffffffffffffff16815260200190815260200160002060008373ffffffffffffffffffffffffffffffffffffffff1673ffffffffffffffffffffffffffffffffffffffff16815260200190815260200160002060009054906101000a900460ff16905092915050565b60007f01ffc9a7000000000000000000000000000000000000000000000000000000007bffffffffffffffffffffffffffffffffffffffffffffffffffffffff1916827bffffffffffffffffffffffffffffffffffffffffffffffffffffffff1916149050919050565b60008073ffffffffffffffffffffffffffffffffffffffff166002600084815260200190815260200160002060009054906101000a900473ffffffffffffffffffffffffffffffffffffffff1673ffffffffffffffffffffffffffffffffffffffff1614159050919050565b600033905090565b816004600083815260200190815260200160002060006101000a81548173ffffffffffffffffffffffffffffffffffffffff021916908373ffffffffffffffffffffffffffffffffffffffff160217905550808273ffffffffffffffffffffffffffffffffffffffff16610cb38361073b565b73ffffffffffffffffffffffffffffffffffffffff167f8c5be1e5ebec7d5bd14f71427d1e84f3dd0314c0f7b2291e5b200ac8c7c3b92560405160405180910390a45050565b6000610d0482610bcc565b610d43576040517f08c379a0000000000000000000000000000000000000000000000000000000008152600401610d3a90611c22565b60405180910390fd5b6000610d4e8361073b565b90508073ffffffffffffffffffffffffffffffffffffffff168473ffffffffffffffffffffffffffffffffffffffff161480610d905750610d8f8185610ace565b5b80610dce57508373ffffffffffffffffffffffffffffffffffffffff16610db6846104f7565b73ffffffffffffffffffffffffffffffffffffffff16145b91505092915050565b8273ffffffffffffffffffffffffffffffffffffffff16610df78261073b565b73ffffffffffffffffffffffffffffffffffffffff1614610e4d576040517f08c379a0000000000000000000000000000000000000000000000000000000008152600401610e4490611bc2565b60405180910390fd5b600073ffffffffffffffffffffffffffffffffffffffff168273ffffffffffffffffffffffffffffffffffffffff161415610ebd576040517f08c379a0000000000000000000000000000000000000000000000000000000008152600401610eb490611be2565b60405180910390fd5b610ec883838361137f565b610ed3600082610c40565b6001600360008573ffffffffffffffffffffffffffffffffffffffff1673ffffffffffffffffffffffffffffffffffffffff1681526020019081526020016000206000828254610f239190611e5d565b925050819055506001600360008473ffffffffffffffffffffffffffffffffffffffff1673ffffffffffffffffffffffffffffffffffffffff1681526020019081526020016000206000828254610f7a9190611dd6565b92505081905550816002600083815260200190815260200160002060006101000a81548173ffffffffffffffffffffffffffffffffffffffff021916908373ffffffffffffffffffffffffffffffffffffffff160217905550808273ffffffffffffffffffffffffffffffffffffffff168473ffffffffffffffffffffffffffffffffffffffff167fddf252ad1be2c89b69c2b068fc378daa952ba7f163c4a11628f55a4df523b3ef60405160405180910390a4611039838383611384565b505050565b8173ffffffffffffffffffffffffffffffffffffffff168373ffffffffffffffffffffffffffffffffffffffff1614156110ad576040517f08c379a00000000000000000000000000000000000000000000000000000000081526004016110a490611c02565b60405180910390fd5b80600560008573ffffffffffffffffffffffffffffffffffffffff1673ffffffffffffffffffffffffffffffffffffffff16815260200190815260200160002060008473ffffffffffffffffffffffffffffffffffffffff1673ffffffffffffffffffffffffffffffffffffffff16815260200190815260200160002060006101000a81548160ff0219169083151502179055508173ffffffffffffffffffffffffffffffffffffffff168373ffffffffffffffffffffffffffffffffffffffff167f17307eab39ab6107e8899845ad3d59bd9653f200f220920489ca2b5937696c318360405161119e9190611b65565b60405180910390a3505050565b6111b6848484610dd7565b6111c284848484611389565b611201576040517f08c379a00000000000000000000000000000000000000000000000000000000081526004016111f890611ba2565b60405180910390fd5b50505050565b606060405180602001604052806000815250905090565b60606000821415611266576040518060400160405280600181526020017f3000000000000000000000000000000000000000000000000000000000000000815250905061137a565b600082905060005b6000821461129857808061128190611faa565b915050600a826112919190611e2c565b915061126e565b60008167ffffffffffffffff8111156112b4576112b36120e0565b5b6040519080825280601f01601f1916602001820160405280156112e65781602001600182028036833780820191505090505b5090505b60008514611373576001826112ff9190611e5d565b9150600a8561130e9190611ff3565b603061131a9190611dd6565b60f81b8183815181106113305761132f6120b1565b5b60200101907effffffffffffffffffffffffffffffffffffffffffffffffffffffffffffff1916908160001a905350600a8561136c9190611e2c565b94506112ea565b8093505050505b919050565b505050565b505050565b60006113aa8473ffffffffffffffffffffffffffffffffffffffff16611520565b15611513578373ffffffffffffffffffffffffffffffffffffffff1663150b7a026113d3610c38565b8786866040518563ffffffff1660e01b81526004016113f59493929190611b19565b602060405180830381600087803b15801561140f57600080fd5b505af192505050801561144057506040513d601f19601f8201168201806040525081019061143d919061180c565b60015b6114c3573d8060008114611470576040519150601f19603f3d011682016040523d82523d6000602084013e611475565b606091505b506000815114156114bb576040517f08c379a00000000000000000000000000000000000000000000000000000000081526004016114b290611ba2565b60405180910390fd5b805181602001fd5b63150b7a0260e01b7bffffffffffffffffffffffffffffffffffffffffffffffffffffffff1916817bffffffffffffffffffffffffffffffffffffffffffffffffffffffff191614915050611518565b600190505b949350505050565b6000808273ffffffffffffffffffffffffffffffffffffffff163b119050919050565b600061155661155184611d62565b611d3d565b90508281526020810184848401111561157257611571612114565b5b61157d848285611f05565b509392505050565b600081359050611594816124c2565b92915050565b6000813590506115a9816124d9565b92915050565b6000813590506115be816124f0565b92915050565b6000815190506115d3816124f0565b92915050565b600082601f8301126115ee576115ed61210f565b5b81356115fe848260208601611543565b91505092915050565b60008135905061161681612507565b92915050565b6000602082840312156116325761163161211e565b5b600061164084828501611585565b91505092915050565b600080604083850312156116605761165f61211e565b5b600061166e85828601611585565b925050602061167f85828601611585565b9150509250929050565b6000806000606084860312156116a2576116a161211e565b5b60006116b086828701611585565b93505060206116c186828701611585565b92505060406116d286828701611607565b9150509250925092565b600080600080608085870312156116f6576116f561211e565b5b600061170487828801611585565b945050602061171587828801611585565b935050604061172687828801611607565b925050606085013567ffffffffffffffff81111561174757611746612119565b5b611753878288016115d9565b91505092959194509250565b600080604083850312156117765761177561211e565b5b600061178485828601611585565b92505060206117958582860161159a565b9150509250929050565b600080604083850312156117b6576117b561211e565b5b60006117c485828601611585565b92505060206117d585828601611607565b9150509250929050565b6000602082840312156117f5576117f461211e565b5b6000611803848285016115af565b91505092915050565b6000602082840312156118225761182161211e565b5b6000611830848285016115c4565b91505092915050565b60006020828403121561184f5761184e61211e565b5b600061185d84828501611607565b91505092915050565b61186f81611e91565b82525050565b61187e81611ea3565b82525050565b600061188f82611d93565b6118998185611da9565b93506118a9818560208601611f14565b6118b281612123565b840191505092915050565b60006118c882611d9e565b6118d28185611dba565b93506118e2818560208601611f14565b6118eb81612123565b840191505092915050565b600061190182611d9e565b61190b8185611dcb565b935061191b818560208601611f14565b80840191505092915050565b6000611934603283611dba565b915061193f82612134565b604082019050919050565b6000611957602583611dba565b915061196282612183565b604082019050919050565b600061197a602483611dba565b9150611985826121d2565b604082019050919050565b600061199d601983611dba565b91506119a882612221565b602082019050919050565b60006119c0602c83611dba565b91506119cb8261224a565b604082019050919050565b60006119e3602983611dba565b91506119ee82612299565b604082019050919050565b6000611a06603883611dba565b9150611a11826122e8565b604082019050919050565b6000611a29602983611dba565b9150611a3482612337565b604082019050919050565b6000611a4c602c83611dba565b9150611a5782612386565b604082019050919050565b6000611a6f602f83611dba565b9150611a7a826123d5565b604082019050919050565b6000611a92602183611dba565b9150611a9d82612424565b604082019050919050565b6000611ab5603183611dba565b9150611ac082612473565b604082019050919050565b611ad481611efb565b82525050565b6000611ae682856118f6565b9150611af282846118f6565b91508190509392505050565b6000602082019050611b136000830184611866565b92915050565b6000608082019050611b2e6000830187611866565b611b3b6020830186611866565b611b486040830185611acb565b8181036060830152611b5a8184611884565b905095945050505050565b6000602082019050611b7a6000830184611875565b92915050565b60006020820190508181036000830152611b9a81846118bd565b905092915050565b60006020820190508181036000830152611bbb81611927565b9050919050565b60006020820190508181036000830152611bdb8161194a565b9050919050565b60006020820190508181036000830152611bfb8161196d565b9050919050565b60006020820190508181036000830152611c1b81611990565b9050919050565b60006020820190508181036000830152611c3b816119b3565b9050919050565b60006020820190508181036000830152611c5b816119d6565b9050919050565b60006020820190508181036000830152611c7b816119f9565b9050919050565b60006020820190508181036000830152611c9b81611a1c565b9050919050565b60006020820190508181036000830152611cbb81611a3f565b9050919050565b60006020820190508181036000830152611cdb81611a62565b9050919050565b60006020820190508181036000830152611cfb81611a85565b9050919050565b60006020820190508181036000830152611d1b81611aa8565b9050919050565b6000602082019050611d376000830184611acb565b92915050565b6000611d47611d58565b9050611d538282611f79565b919050565b6000604051905090565b600067ffffffffffffffff821115611d7d57611d7c6120e0565b5b611d8682612123565b9050602081019050919050565b600081519050919050565b600081519050919050565b600082825260208201905092915050565b600082825260208201905092915050565b600081905092915050565b6000611de182611efb565b9150611dec83611efb565b9250827fffffffffffffffffffffffffffffffffffffffffffffffffffffffffffffffff03821115611e2157611e20612024565b5b828201905092915050565b6000611e3782611efb565b9150611e4283611efb565b925082611e5257611e51612053565b5b828204905092915050565b6000611e6882611efb565b9150611e7383611efb565b925082821015611e8657611e85612024565b5b828203905092915050565b6000611e9c82611edb565b9050919050565b60008115159050919050565b60007fffffffff0000000000000000000000000000000000000000000000000000000082169050919050565b600073ffffffffffffffffffffffffffffffffffffffff82169050919050565b6000819050919050565b82818337600083830152505050565b60005b83811015611f32578082015181840152602081019050611f17565b83811115611f41576000848401525b50505050565b60006002820490506001821680611f5f57607f821691505b60208210811415611f7357611f72612082565b5b50919050565b611f8282612123565b810181811067ffffffffffffffff82111715611fa157611fa06120e0565b5b80604052505050565b6000611fb582611efb565b91507fffffffffffffffffffffffffffffffffffffffffffffffffffffffffffffffff821415611fe857611fe7612024565b5b600182019050919050565b6000611ffe82611efb565b915061200983611efb565b92508261201957612018612053565b5b828206905092915050565b7f4e487b7100000000000000000000000000000000000000000000000000000000600052601160045260246000fd5b7f4e487b7100000000000000000000000000000000000000000000000000000000600052601260045260246000fd5b7f4e487b7100000000000000000000000000000000000000000000000000000000600052602260045260246000fd5b7f4e487b7100000000000000000000000000000000000000000000000000000000600052603260045260246000fd5b7f4e487b7100000000000000000000000000000000000000000000000000000000600052604160045260246000fd5b600080fd5b600080fd5b600080fd5b600080fd5b6000601f19601f8301169050919050565b7f4552433732313a207472616e7366657220746f206e6f6e20455243373231526560008201527f63656976657220696d706c656d656e7465720000000000000000000000000000602082015250565b7f4552433732313a207472616e736665722066726f6d20696e636f72726563742060008201527f6f776e6572000000000000000000000000000000000000000000000000000000602082015250565b7f4552433732313a207472616e7366657220746f20746865207a65726f2061646460008201527f7265737300000000000000000000000000000000000000000000000000000000602082015250565b7f4552433732313a20617070726f766520746f2063616c6c657200000000000000600082015250565b7f4552433732313a206f70657261746f7220717565727920666f72206e6f6e657860008201527f697374656e7420746f6b656e0000000000000000000000000000000000000000602082015250565b7f4552433732313a2061646472657373207a65726f206973206e6f74206120766160008201527f6c6964206f776e65720000000000000000000000000000000000000000000000602082015250565b7f4552433732313a20617070726f76652063616c6c6572206973206e6f74206f7760008201527f6e6572206e6f7220617070726f76656420666f7220616c6c0000000000000000602082015250565b7f4552433732313a206f776e657220717565727920666f72206e6f6e657869737460008201527f656e7420746f6b656e0000000000000000000000000000000000000000000000602082015250565b7f4552433732313a20617070726f76656420717565727920666f72206e6f6e657860008201527f697374656e7420746f6b656e0000000000000000000000000000000000000000602082015250565b7f4552433732314d657461646174613a2055524920717565727920666f72206e6f60008201527f6e6578697374656e7420746f6b656e0000000000000000000000000000000000602082015250565b7f4552433732313a20617070726f76616c20746f2063757272656e74206f776e6560008201527f7200000000000000000000000000000000000000000000000000000000000000602082015250565b7f4552433732313a207472616e736665722063616c6c6572206973206e6f74206f60008201527f776e6572206e6f7220617070726f766564000000000000000000000000000000602082015250565b6124cb81611e91565b81146124d657600080fd5b50565b6124e281611ea3565b81146124ed57600080fd5b50565b6124f981611eaf565b811461250457600080fd5b50565b61251081611efb565b811461251b57600080fd5b5056fea264697066735822122041945e9410a78cbd4b5722a8f35f1e7d212da50f1f47ab4ef174243a8dd7645664736f6c63430008070033a2646970667358221220bab6f5a15a24c10e4a21825606afc487a6cd7f7c614b2d62f88679260d7b334a64736f6c63430008070033",
			"opcodes": "PUSH1 0x80 PUSH1 0x40 MSTORE PUSH1 0x5 PUSH1 0x0 SSTORE PUSH1 0x0 SLOAD PUSH1 0xA PUSH3 0x1A SWAP2 SWAP1 PUSH3 0x98 JUMP JUMPDEST PUSH1 0x1 SSTORE PUSH3 0x15180 PUSH1 0x2 SSTORE PUSH1 0x1 PUSH1 0x3 SSTORE CALLVALUE DUP1 ISZERO PUSH3 0x36 JUMPI PUSH1 0x0 DUP1 REVERT JUMPDEST POP PUSH3 0x21B JUMP JUMPDEST PUSH1 0x0 DUP1 DUP3 SWAP2 POP DUP4 SWAP1 POP JUMPDEST PUSH1 0x1 DUP6 GT ISZERO PUSH3 0x8F JUMPI DUP1 DUP7 DIV DUP2 GT ISZERO PUSH3 0x67 JUMPI PUSH3 0x66 PUSH3 0x1DF JUMP JUMPDEST JUMPDEST PUSH1 0x1 DUP6 AND ISZERO PUSH3 0x77 JUMPI DUP1 DUP3 MUL SWAP2 POP JUMPDEST DUP1 DUP2 MUL SWAP1 POP PUSH3 0x87 DUP6 PUSH3 0x20E JUMP JUMPDEST SWAP5 POP PUSH3 0x47 JUMP JUMPDEST SWAP5 POP SWAP5 SWAP3 POP POP POP JUMP JUMPDEST PUSH1 0x0 PUSH3 0xA5 DUP3 PUSH3 0x1D5 JUMP JUMPDEST SWAP2 POP PUSH3 0xB2 DUP4 PUSH3 0x1D5 JUMP JUMPDEST SWAP3 POP PUSH3 0xE1 PUSH32 0xFFFFFFFFFFFFFFFFFFFFFFFFFFFFFFFFFFFFFFFFFFFFFFFFFFFFFFFFFFFFFFFF DUP5 DUP5 PUSH3 0xE9 JUMP JUMPDEST SWAP1 POP SWAP3 SWAP2 POP POP JUMP JUMPDEST PUSH1 0x0 DUP3 PUSH3 0xFB JUMPI PUSH1 0x1 SWAP1 POP PUSH3 0x1CE JUMP JUMPDEST DUP2 PUSH3 0x10B JUMPI PUSH1 0x0 SWAP1 POP PUSH3 0x1CE JUMP JUMPDEST DUP2 PUSH1 0x1 DUP2 EQ PUSH3 0x124 JUMPI PUSH1 0x2 DUP2 EQ PUSH3 0x12F JUMPI PUSH3 0x165 JUMP JUMPDEST PUSH1 0x1 SWAP2 POP POP PUSH3 0x1CE JUMP JUMPDEST PUSH1 0xFF DUP5 GT ISZERO PUSH3 0x144 JUMPI PUSH3 0x143 PUSH3 0x1DF JUMP JUMPDEST JUMPDEST DUP4 PUSH1 0x2 EXP SWAP2 POP DUP5 DUP3 GT ISZERO PUSH3 0x15E JUMPI PUSH3 0x15D PUSH3 0x1DF JUMP JUMPDEST JUMPDEST POP PUSH3 0x1CE JUMP JUMPDEST POP PUSH1 0x20 DUP4 LT PUSH2 0x133 DUP4 LT AND PUSH1 0x4E DUP5 LT PUSH1 0xB DUP5 LT AND OR ISZERO PUSH3 0x19F JUMPI DUP3 DUP3 EXP SWAP1 POP DUP4 DUP2 GT ISZERO PUSH3 0x199 JUMPI PUSH3 0x198 PUSH3 0x1DF JUMP JUMPDEST JUMPDEST PUSH3 0x1CE JUMP JUMPDEST PUSH3 0x1AE DUP5 DUP5 DUP5 PUSH1 0x1 PUSH3 0x3D JUMP JUMPDEST SWAP3 POP SWAP1 POP DUP2 DUP5 DIV DUP2 GT ISZERO PUSH3 0x1C8 JUMPI PUSH3 0x1C7 PUSH3 0x1DF JUMP JUMPDEST JUMPDEST DUP2 DUP2 MUL SWAP1 POP JUMPDEST SWAP4 SWAP3 POP POP POP JUMP JUMPDEST PUSH1 0x0 DUP2 SWAP1 POP SWAP2 SWAP1 POP JUMP JUMPDEST PUSH32 0x4E487B7100000000000000000000000000000000000000000000000000000000 PUSH1 0x0 MSTORE PUSH1 0x11 PUSH1 0x4 MSTORE PUSH1 0x24 PUSH1 0x0 REVERT JUMPDEST PUSH1 0x0 DUP2 PUSH1 0x1 SHR SWAP1 POP SWAP2 SWAP1 POP JUMP JUMPDEST PUSH2 0x3F32 DUP1 PUSH3 0x22B PUSH1 0x0 CODECOPY PUSH1 0x0 RETURN INVALID PUSH1 0x80 PUSH1 0x40 MSTORE CALLVALUE DUP1 ISZERO PUSH3 0x11 JUMPI PUSH1 0x0 DUP1 REVERT JUMPDEST POP PUSH1 0x4 CALLDATASIZE LT PUSH3 0x52 JUMPI PUSH1 0x0 CALLDATALOAD PUSH1 0xE0 SHR DUP1 PUSH4 0x19161161 EQ PUSH3 0x57 JUMPI DUP1 PUSH4 0x3C3B0B4A EQ PUSH3 0x8D JUMPI DUP1 PUSH4 0xAEDA852F EQ PUSH3 0xC3 JUMPI DUP1 PUSH4 0xC45E1B25 EQ PUSH3 0xF9 JUMPI JUMPDEST PUSH1 0x0 DUP1 REVERT JUMPDEST PUSH3 0x75 PUSH1 0x4 DUP1 CALLDATASIZE SUB DUP2 ADD SWAP1 PUSH3 0x6F SWAP2 SWAP1 PUSH3 0x9CD JUMP JUMPDEST PUSH3 0x12F JUMP JUMPDEST PUSH1 0x40 MLOAD PUSH3 0x84 SWAP2 SWAP1 PUSH3 0xD69 JUMP JUMPDEST PUSH1 0x40 MLOAD DUP1 SWAP2 SUB SWAP1 RETURN JUMPDEST PUSH3 0xAB PUSH1 0x4 DUP1 CALLDATASIZE SUB DUP2 ADD SWAP1 PUSH3 0xA5 SWAP2 SWAP1 PUSH3 0x969 JUMP JUMPDEST PUSH3 0x32F JUMP JUMPDEST PUSH1 0x40 MLOAD PUSH3 0xBA SWAP2 SWAP1 PUSH3 0xCDF JUMP JUMPDEST PUSH1 0x40 MLOAD DUP1 SWAP2 SUB SWAP1 RETURN JUMPDEST PUSH3 0xE1 PUSH1 0x4 DUP1 CALLDATASIZE SUB DUP2 ADD SWAP1 PUSH3 0xDB SWAP2 SWAP1 PUSH3 0x969 JUMP JUMPDEST PUSH3 0x431 JUMP JUMPDEST PUSH1 0x40 MLOAD PUSH3 0xF0 SWAP2 SWAP1 PUSH3 0xC9E JUMP JUMPDEST PUSH1 0x40 MLOAD DUP1 SWAP2 SUB SWAP1 RETURN JUMPDEST PUSH3 0x117 PUSH1 0x4 DUP1 CALLDATASIZE SUB DUP2 ADD SWAP1 PUSH3 0x111 SWAP2 SWAP1 PUSH3 0x969 JUMP JUMPDEST PUSH3 0x464 JUMP JUMPDEST PUSH1 0x40 MLOAD PUSH3 0x126 SWAP2 SWAP1 PUSH3 0xCBB JUMP JUMPDEST PUSH1 0x40 MLOAD DUP1 SWAP2 SUB SWAP1 RETURN JUMPDEST PUSH1 0x0 DUP1 DUP5 DUP8 PUSH3 0x140 SWAP2 SWAP1 PUSH3 0xFAC JUMP JUMPDEST GT PUSH3 0x183 JUMPI PUSH1 0x40 MLOAD PUSH32 0x8C379A000000000000000000000000000000000000000000000000000000000 DUP2 MSTORE PUSH1 0x4 ADD PUSH3 0x17A SWAP1 PUSH3 0xD03 JUMP JUMPDEST PUSH1 0x40 MLOAD DUP1 SWAP2 SUB SWAP1 REVERT JUMPDEST PUSH1 0x0 PUSH3 0x192 DUP5 DUP7 DUP6 PUSH3 0x7D8 JUMP JUMPDEST SWAP1 POP PUSH3 0x19F DUP2 PUSH3 0x827 JUMP JUMPDEST PUSH3 0x1E1 JUMPI PUSH1 0x40 MLOAD PUSH32 0x8C379A000000000000000000000000000000000000000000000000000000000 DUP2 MSTORE PUSH1 0x4 ADD PUSH3 0x1D8 SWAP1 PUSH3 0xD25 JUMP JUMPDEST PUSH1 0x40 MLOAD DUP1 SWAP2 SUB SWAP1 REVERT JUMPDEST PUSH1 0x0 DUP2 PUSH1 0x3 SLOAD DUP10 DUP10 DUP10 DUP10 DUP11 DUP11 PUSH1 0x0 PUSH1 0x40 MLOAD PUSH3 0x1FD SWAP1 PUSH3 0x898 JUMP JUMPDEST PUSH3 0x211 SWAP10 SWAP9 SWAP8 SWAP7 SWAP6 SWAP5 SWAP4 SWAP3 SWAP2 SWAP1 PUSH3 0xDEA JUMP JUMPDEST PUSH1 0x40 MLOAD DUP1 SWAP2 SUB SWAP1 PUSH1 0x0 CREATE DUP1 ISZERO DUP1 ISZERO PUSH3 0x22E JUMPI RETURNDATASIZE PUSH1 0x0 DUP1 RETURNDATACOPY RETURNDATASIZE PUSH1 0x0 REVERT JUMPDEST POP SWAP1 POP DUP1 PUSH1 0x6 PUSH1 0x0 DUP5 DUP2 MSTORE PUSH1 0x20 ADD SWAP1 DUP2 MSTORE PUSH1 0x20 ADD PUSH1 0x0 KECCAK256 PUSH1 0x0 PUSH2 0x100 EXP DUP2 SLOAD DUP2 PUSH20 0xFFFFFFFFFFFFFFFFFFFFFFFFFFFFFFFFFFFFFFFF MUL NOT AND SWAP1 DUP4 PUSH20 0xFFFFFFFFFFFFFFFFFFFFFFFFFFFFFFFFFFFFFFFF AND MUL OR SWAP1 SSTORE POP PUSH3 0x29D PUSH1 0x2 SLOAD TIMESTAMP PUSH3 0x297 SWAP2 SWAP1 PUSH3 0xF4F JUMP JUMPDEST PUSH3 0x88E JUMP JUMPDEST PUSH1 0x5 DUP3 SWAP1 DUP1 PUSH1 0x1 DUP2 SLOAD ADD DUP1 DUP3 SSTORE DUP1 SWAP2 POP POP PUSH1 0x1 SWAP1 SUB SWAP1 PUSH1 0x0 MSTORE PUSH1 0x20 PUSH1 0x0 KECCAK256 ADD PUSH1 0x0 SWAP1 SWAP2 SWAP1 SWAP2 SWAP1 SWAP2 POP SSTORE PUSH1 0x3 PUSH1 0x0 DUP2 SLOAD DUP1 SWAP3 SWAP2 SWAP1 PUSH3 0x2DB SWAP1 PUSH3 0x10D2 JUMP JUMPDEST SWAP2 SWAP1 POP SSTORE POP PUSH32 0x3070C472A527C6FDF9D1D29D3F8DE3F74A2DE6EF97DB5CC15B587188B278951F DUP3 DUP7 DUP11 DUP11 DUP9 PUSH1 0x40 MLOAD PUSH3 0x319 SWAP6 SWAP5 SWAP4 SWAP3 SWAP2 SWAP1 PUSH3 0xD86 JUMP JUMPDEST PUSH1 0x40 MLOAD DUP1 SWAP2 SUB SWAP1 LOG1 DUP2 SWAP3 POP POP POP SWAP6 SWAP5 POP POP POP POP POP JUMP JUMPDEST PUSH1 0x60 CALLER PUSH20 0xFFFFFFFFFFFFFFFFFFFFFFFFFFFFFFFFFFFFFFFF AND PUSH1 0x6 PUSH1 0x0 DUP5 DUP2 MSTORE PUSH1 0x20 ADD SWAP1 DUP2 MSTORE PUSH1 0x20 ADD PUSH1 0x0 KECCAK256 PUSH1 0x0 SWAP1 SLOAD SWAP1 PUSH2 0x100 EXP SWAP1 DIV PUSH20 0xFFFFFFFFFFFFFFFFFFFFFFFFFFFFFFFFFFFFFFFF AND PUSH20 0xFFFFFFFFFFFFFFFFFFFFFFFFFFFFFFFFFFFFFFFF AND EQ PUSH3 0x3D5 JUMPI PUSH1 0x40 MLOAD PUSH32 0x8C379A000000000000000000000000000000000000000000000000000000000 DUP2 MSTORE PUSH1 0x4 ADD PUSH3 0x3CC SWAP1 PUSH3 0xD47 JUMP JUMPDEST PUSH1 0x40 MLOAD DUP1 SWAP2 SUB SWAP1 REVERT JUMPDEST PUSH1 0x6 PUSH1 0x0 DUP4 DUP2 MSTORE PUSH1 0x20 ADD SWAP1 DUP2 MSTORE PUSH1 0x20 ADD PUSH1 0x0 KECCAK256 PUSH1 0x0 SWAP1 SLOAD SWAP1 PUSH2 0x100 EXP SWAP1 POP POP PUSH1 0x40 MLOAD DUP1 PUSH1 0x40 ADD PUSH1 0x40 MSTORE DUP1 PUSH1 0x15 DUP2 MSTORE PUSH1 0x20 ADD PUSH32 0x64656C69737420776173207375636365737366756C0000000000000000000000 DUP2 MSTORE POP SWAP1 POP SWAP2 SWAP1 POP JUMP JUMPDEST PUSH1 0x6 PUSH1 0x20 MSTORE DUP1 PUSH1 0x0 MSTORE PUSH1 0x40 PUSH1 0x0 KECCAK256 PUSH1 0x0 SWAP2 POP SLOAD SWAP1 PUSH2 0x100 EXP SWAP1 DIV PUSH20 0xFFFFFFFFFFFFFFFFFFFFFFFFFFFFFFFFFFFFFFFF AND DUP2 JUMP JUMPDEST PUSH1 0x60 PUSH1 0x0 DUP1 JUMPDEST PUSH1 0x5 DUP1 SLOAD SWAP1 POP DUP2 LT ISZERO PUSH3 0x57D JUMPI DUP4 PUSH1 0x6 PUSH1 0x0 PUSH1 0x5 DUP5 DUP2 SLOAD DUP2 LT PUSH3 0x494 JUMPI PUSH3 0x493 PUSH3 0x11E8 JUMP JUMPDEST JUMPDEST SWAP1 PUSH1 0x0 MSTORE PUSH1 0x20 PUSH1 0x0 KECCAK256 ADD SLOAD DUP2 MSTORE PUSH1 0x20 ADD SWAP1 DUP2 MSTORE PUSH1 0x20 ADD PUSH1 0x0 KECCAK256 PUSH1 0x0 SWAP1 SLOAD SWAP1 PUSH2 0x100 EXP SWAP1 DIV PUSH20 0xFFFFFFFFFFFFFFFFFFFFFFFFFFFFFFFFFFFFFFFF AND PUSH20 0xFFFFFFFFFFFFFFFFFFFFFFFFFFFFFFFFFFFFFFFF AND PUSH4 0xA19AF1AD PUSH1 0x40 MLOAD DUP2 PUSH4 0xFFFFFFFF AND PUSH1 0xE0 SHL DUP2 MSTORE PUSH1 0x4 ADD PUSH1 0x20 PUSH1 0x40 MLOAD DUP1 DUP4 SUB DUP2 DUP7 DUP1 EXTCODESIZE ISZERO DUP1 ISZERO PUSH3 0x514 JUMPI PUSH1 0x0 DUP1 REVERT JUMPDEST POP GAS STATICCALL ISZERO DUP1 ISZERO PUSH3 0x529 JUMPI RETURNDATASIZE PUSH1 0x0 DUP1 RETURNDATACOPY RETURNDATASIZE PUSH1 0x0 REVERT JUMPDEST POP POP POP POP PUSH1 0x40 MLOAD RETURNDATASIZE PUSH1 0x1F NOT PUSH1 0x1F DUP3 ADD AND DUP3 ADD DUP1 PUSH1 0x40 MSTORE POP DUP2 ADD SWAP1 PUSH3 0x54F SWAP2 SWAP1 PUSH3 0x99B JUMP JUMPDEST LT ISZERO PUSH3 0x567 JUMPI DUP2 DUP1 PUSH3 0x563 SWAP1 PUSH3 0x10D2 JUMP JUMPDEST SWAP3 POP POP JUMPDEST DUP1 DUP1 PUSH3 0x574 SWAP1 PUSH3 0x10D2 JUMP JUMPDEST SWAP2 POP POP PUSH3 0x46A JUMP JUMPDEST POP PUSH1 0x0 DUP2 PUSH8 0xFFFFFFFFFFFFFFFF DUP2 GT ISZERO PUSH3 0x59D JUMPI PUSH3 0x59C PUSH3 0x1217 JUMP JUMPDEST JUMPDEST PUSH1 0x40 MLOAD SWAP1 DUP1 DUP3 MSTORE DUP1 PUSH1 0x20 MUL PUSH1 0x20 ADD DUP3 ADD PUSH1 0x40 MSTORE DUP1 ISZERO PUSH3 0x5CC JUMPI DUP2 PUSH1 0x20 ADD PUSH1 0x20 DUP3 MUL DUP1 CALLDATASIZE DUP4 CALLDATACOPY DUP1 DUP3 ADD SWAP2 POP POP SWAP1 POP JUMPDEST POP SWAP1 POP PUSH1 0x0 JUMPDEST PUSH1 0x5 DUP1 SLOAD SWAP1 POP DUP2 LT ISZERO PUSH3 0x7CD JUMPI DUP5 PUSH1 0x6 PUSH1 0x0 PUSH1 0x5 DUP5 DUP2 SLOAD DUP2 LT PUSH3 0x5FC JUMPI PUSH3 0x5FB PUSH3 0x11E8 JUMP JUMPDEST JUMPDEST SWAP1 PUSH1 0x0 MSTORE PUSH1 0x20 PUSH1 0x0 KECCAK256 ADD SLOAD DUP2 MSTORE PUSH1 0x20 ADD SWAP1 DUP2 MSTORE PUSH1 0x20 ADD PUSH1 0x0 KECCAK256 PUSH1 0x0 SWAP1 SLOAD SWAP1 PUSH2 0x100 EXP SWAP1 DIV PUSH20 0xFFFFFFFFFFFFFFFFFFFFFFFFFFFFFFFFFFFFFFFF AND PUSH20 0xFFFFFFFFFFFFFFFFFFFFFFFFFFFFFFFFFFFFFFFF AND PUSH4 0xA19AF1AD PUSH1 0x40 MLOAD DUP2 PUSH4 0xFFFFFFFF AND PUSH1 0xE0 SHL DUP2 MSTORE PUSH1 0x4 ADD PUSH1 0x20 PUSH1 0x40 MLOAD DUP1 DUP4 SUB DUP2 DUP7 DUP1 EXTCODESIZE ISZERO DUP1 ISZERO PUSH3 0x67C JUMPI PUSH1 0x0 DUP1 REVERT JUMPDEST POP GAS STATICCALL ISZERO DUP1 ISZERO PUSH3 0x691 JUMPI RETURNDATASIZE PUSH1 0x0 DUP1 RETURNDATACOPY RETURNDATASIZE PUSH1 0x0 REVERT JUMPDEST POP POP POP POP PUSH1 0x40 MLOAD RETURNDATASIZE PUSH1 0x1F NOT PUSH1 0x1F DUP3 ADD AND DUP3 ADD DUP1 PUSH1 0x40 MSTORE POP DUP2 ADD SWAP1 PUSH3 0x6B7 SWAP2 SWAP1 PUSH3 0x99B JUMP JUMPDEST LT ISZERO PUSH3 0x7B7 JUMPI PUSH1 0x6 PUSH1 0x0 PUSH1 0x5 DUP4 DUP2 SLOAD DUP2 LT PUSH3 0x6D9 JUMPI PUSH3 0x6D8 PUSH3 0x11E8 JUMP JUMPDEST JUMPDEST SWAP1 PUSH1 0x0 MSTORE PUSH1 0x20 PUSH1 0x0 KECCAK256 ADD SLOAD DUP2 MSTORE PUSH1 0x20 ADD SWAP1 DUP2 MSTORE PUSH1 0x20 ADD PUSH1 0x0 KECCAK256 PUSH1 0x0 SWAP1 SLOAD SWAP1 PUSH2 0x100 EXP SWAP1 DIV PUSH20 0xFFFFFFFFFFFFFFFFFFFFFFFFFFFFFFFFFFFFFFFF AND PUSH20 0xFFFFFFFFFFFFFFFFFFFFFFFFFFFFFFFFFFFFFFFF AND PUSH4 0x36C8AF5D PUSH1 0x40 MLOAD DUP2 PUSH4 0xFFFFFFFF AND PUSH1 0xE0 SHL DUP2 MSTORE PUSH1 0x4 ADD PUSH1 0x20 PUSH1 0x40 MLOAD DUP1 DUP4 SUB DUP2 DUP7 DUP1 EXTCODESIZE ISZERO DUP1 ISZERO PUSH3 0x759 JUMPI PUSH1 0x0 DUP1 REVERT JUMPDEST POP GAS STATICCALL ISZERO DUP1 ISZERO PUSH3 0x76E JUMPI RETURNDATASIZE PUSH1 0x0 DUP1 RETURNDATACOPY RETURNDATASIZE PUSH1 0x0 REVERT JUMPDEST POP POP POP POP PUSH1 0x40 MLOAD RETURNDATASIZE PUSH1 0x1F NOT PUSH1 0x1F DUP3 ADD AND DUP3 ADD DUP1 PUSH1 0x40 MSTORE POP DUP2 ADD SWAP1 PUSH3 0x794 SWAP2 SWAP1 PUSH3 0x99B JUMP JUMPDEST DUP3 DUP3 DUP2 MLOAD DUP2 LT PUSH3 0x7AA JUMPI PUSH3 0x7A9 PUSH3 0x11E8 JUMP JUMPDEST JUMPDEST PUSH1 0x20 MUL PUSH1 0x20 ADD ADD DUP2 DUP2 MSTORE POP POP JUMPDEST DUP1 DUP1 PUSH3 0x7C4 SWAP1 PUSH3 0x10D2 JUMP JUMPDEST SWAP2 POP POP PUSH3 0x5D2 JUMP JUMPDEST POP DUP1 SWAP3 POP POP POP SWAP2 SWAP1 POP JUMP JUMPDEST PUSH1 0x0 DUP1 DUP5 DUP5 DUP5 PUSH1 0x40 MLOAD PUSH1 0x20 ADD PUSH3 0x7F2 SWAP4 SWAP3 SWAP2 SWAP1 PUSH3 0xC5F JUMP JUMPDEST PUSH1 0x40 MLOAD PUSH1 0x20 DUP2 DUP4 SUB SUB DUP2 MSTORE SWAP1 PUSH1 0x40 MSTORE DUP1 MLOAD SWAP1 PUSH1 0x20 ADD KECCAK256 PUSH1 0x0 SHR SWAP1 POP PUSH1 0x1 SLOAD DUP2 PUSH3 0x81D SWAP2 SWAP1 PUSH3 0x1152 JUMP JUMPDEST SWAP2 POP POP SWAP4 SWAP3 POP POP POP JUMP JUMPDEST PUSH1 0x0 DUP1 PUSH1 0x1 SWAP1 POP PUSH1 0x0 JUMPDEST PUSH1 0x5 DUP1 SLOAD SWAP1 POP DUP2 LT ISZERO PUSH3 0x884 JUMPI DUP4 PUSH1 0x5 DUP3 DUP2 SLOAD DUP2 LT PUSH3 0x857 JUMPI PUSH3 0x856 PUSH3 0x11E8 JUMP JUMPDEST JUMPDEST SWAP1 PUSH1 0x0 MSTORE PUSH1 0x20 PUSH1 0x0 KECCAK256 ADD SLOAD EQ ISZERO PUSH3 0x86E JUMPI PUSH1 0x0 SWAP2 POP JUMPDEST DUP1 DUP1 PUSH3 0x87B SWAP1 PUSH3 0x10D2 JUMP JUMPDEST SWAP2 POP POP PUSH3 0x831 JUMP JUMPDEST POP DUP1 SWAP2 POP POP SWAP2 SWAP1 POP JUMP JUMPDEST DUP1 PUSH1 0x4 DUP2 SWAP1 SSTORE POP POP JUMP JUMPDEST PUSH2 0x2BAF DUP1 PUSH3 0x134E DUP4 CODECOPY ADD SWAP1 JUMP JUMPDEST PUSH1 0x0 PUSH3 0x8BD PUSH3 0x8B7 DUP5 PUSH3 0xEB9 JUMP JUMPDEST PUSH3 0xE90 JUMP JUMPDEST SWAP1 POP DUP3 DUP2 MSTORE PUSH1 0x20 DUP2 ADD DUP5 DUP5 DUP5 ADD GT ISZERO PUSH3 0x8DC JUMPI PUSH3 0x8DB PUSH3 0x124B JUMP JUMPDEST JUMPDEST PUSH3 0x8E9 DUP5 DUP3 DUP6 PUSH3 0x1057 JUMP JUMPDEST POP SWAP4 SWAP3 POP POP POP JUMP JUMPDEST PUSH1 0x0 DUP2 CALLDATALOAD SWAP1 POP PUSH3 0x902 DUP2 PUSH3 0x1319 JUMP JUMPDEST SWAP3 SWAP2 POP POP JUMP JUMPDEST PUSH1 0x0 DUP3 PUSH1 0x1F DUP4 ADD SLT PUSH3 0x920 JUMPI PUSH3 0x91F PUSH3 0x1246 JUMP JUMPDEST JUMPDEST DUP2 CALLDATALOAD PUSH3 0x932 DUP5 DUP3 PUSH1 0x20 DUP7 ADD PUSH3 0x8A6 JUMP JUMPDEST SWAP2 POP POP SWAP3 SWAP2 POP POP JUMP JUMPDEST PUSH1 0x0 DUP2 CALLDATALOAD SWAP1 POP PUSH3 0x94C DUP2 PUSH3 0x1333 JUMP JUMPDEST SWAP3 SWAP2 POP POP JUMP JUMPDEST PUSH1 0x0 DUP2 MLOAD SWAP1 POP PUSH3 0x963 DUP2 PUSH3 0x1333 JUMP JUMPDEST SWAP3 SWAP2 POP POP JUMP JUMPDEST PUSH1 0x0 PUSH1 0x20 DUP3 DUP5 SUB SLT ISZERO PUSH3 0x982 JUMPI PUSH3 0x981 PUSH3 0x1255 JUMP JUMPDEST JUMPDEST PUSH1 0x0 PUSH3 0x992 DUP5 DUP3 DUP6 ADD PUSH3 0x93B JUMP JUMPDEST SWAP2 POP POP SWAP3 SWAP2 POP POP JUMP JUMPDEST PUSH1 0x0 PUSH1 0x20 DUP3 DUP5 SUB SLT ISZERO PUSH3 0x9B4 JUMPI PUSH3 0x9B3 PUSH3 0x1255 JUMP JUMPDEST JUMPDEST PUSH1 0x0 PUSH3 0x9C4 DUP5 DUP3 DUP6 ADD PUSH3 0x952 JUMP JUMPDEST SWAP2 POP POP SWAP3 SWAP2 POP POP JUMP JUMPDEST PUSH1 0x0 DUP1 PUSH1 0x0 DUP1 PUSH1 0x0 PUSH1 0xA0 DUP7 DUP9 SUB SLT ISZERO PUSH3 0x9EC JUMPI PUSH3 0x9EB PUSH3 0x1255 JUMP JUMPDEST JUMPDEST PUSH1 0x0 PUSH3 0x9FC DUP9 DUP3 DUP10 ADD PUSH3 0x93B JUMP JUMPDEST SWAP6 POP POP PUSH1 0x20 PUSH3 0xA0F DUP9 DUP3 DUP10 ADD PUSH3 0x93B JUMP JUMPDEST SWAP5 POP POP PUSH1 0x40 PUSH3 0xA22 DUP9 DUP3 DUP10 ADD PUSH3 0x93B JUMP JUMPDEST SWAP4 POP POP PUSH1 0x60 PUSH3 0xA35 DUP9 DUP3 DUP10 ADD PUSH3 0x8F1 JUMP JUMPDEST SWAP3 POP POP PUSH1 0x80 DUP7 ADD CALLDATALOAD PUSH8 0xFFFFFFFFFFFFFFFF DUP2 GT ISZERO PUSH3 0xA59 JUMPI PUSH3 0xA58 PUSH3 0x1250 JUMP JUMPDEST JUMPDEST PUSH3 0xA67 DUP9 DUP3 DUP10 ADD PUSH3 0x908 JUMP JUMPDEST SWAP2 POP POP SWAP3 SWAP6 POP SWAP3 SWAP6 SWAP1 SWAP4 POP JUMP JUMPDEST PUSH1 0x0 PUSH3 0xA82 DUP4 DUP4 PUSH3 0xC22 JUMP JUMPDEST PUSH1 0x20 DUP4 ADD SWAP1 POP SWAP3 SWAP2 POP POP JUMP JUMPDEST PUSH3 0xA99 DUP2 PUSH3 0x100D JUMP JUMPDEST DUP3 MSTORE POP POP JUMP JUMPDEST PUSH3 0xAB4 PUSH3 0xAAE DUP3 PUSH3 0x100D JUMP JUMPDEST PUSH3 0x1120 JUMP JUMPDEST DUP3 MSTORE POP POP JUMP JUMPDEST PUSH1 0x0 PUSH3 0xAC7 DUP3 PUSH3 0xEFF JUMP JUMPDEST PUSH3 0xAD3 DUP2 DUP6 PUSH3 0xF22 JUMP JUMPDEST SWAP4 POP PUSH3 0xAE0 DUP4 PUSH3 0xEEF JUMP JUMPDEST DUP1 PUSH1 0x0 JUMPDEST DUP4 DUP2 LT ISZERO PUSH3 0xB17 JUMPI DUP2 MLOAD PUSH3 0xAFB DUP9 DUP3 PUSH3 0xA74 JUMP JUMPDEST SWAP8 POP PUSH3 0xB08 DUP4 PUSH3 0xF15 JUMP JUMPDEST SWAP3 POP POP PUSH1 0x1 DUP2 ADD SWAP1 POP PUSH3 0xAE4 JUMP JUMPDEST POP DUP6 SWAP4 POP POP POP POP SWAP3 SWAP2 POP POP JUMP JUMPDEST PUSH3 0xB2F DUP2 PUSH3 0x1021 JUMP JUMPDEST DUP3 MSTORE POP POP JUMP JUMPDEST PUSH1 0x0 PUSH3 0xB42 DUP3 PUSH3 0xF0A JUMP JUMPDEST PUSH3 0xB4E DUP2 DUP6 PUSH3 0xF33 JUMP JUMPDEST SWAP4 POP PUSH3 0xB60 DUP2 DUP6 PUSH1 0x20 DUP7 ADD PUSH3 0x1066 JUMP JUMPDEST PUSH3 0xB6B DUP2 PUSH3 0x125A JUMP JUMPDEST DUP5 ADD SWAP2 POP POP SWAP3 SWAP2 POP POP JUMP JUMPDEST PUSH1 0x0 PUSH3 0xB83 DUP3 PUSH3 0xF0A JUMP JUMPDEST PUSH3 0xB8F DUP2 DUP6 PUSH3 0xF44 JUMP JUMPDEST SWAP4 POP PUSH3 0xBA1 DUP2 DUP6 PUSH1 0x20 DUP7 ADD PUSH3 0x1066 JUMP JUMPDEST DUP1 DUP5 ADD SWAP2 POP POP SWAP3 SWAP2 POP POP JUMP JUMPDEST PUSH1 0x0 PUSH3 0xBBC PUSH1 0x14 DUP4 PUSH3 0xF33 JUMP JUMPDEST SWAP2 POP PUSH3 0xBC9 DUP3 PUSH3 0x1278 JUMP JUMPDEST PUSH1 0x20 DUP3 ADD SWAP1 POP SWAP2 SWAP1 POP JUMP JUMPDEST PUSH1 0x0 PUSH3 0xBE3 PUSH1 0x1B DUP4 PUSH3 0xF33 JUMP JUMPDEST SWAP2 POP PUSH3 0xBF0 DUP3 PUSH3 0x12A1 JUMP JUMPDEST PUSH1 0x20 DUP3 ADD SWAP1 POP SWAP2 SWAP1 POP JUMP JUMPDEST PUSH1 0x0 PUSH3 0xC0A PUSH1 0x2B DUP4 PUSH3 0xF33 JUMP JUMPDEST SWAP2 POP PUSH3 0xC17 DUP3 PUSH3 0x12CA JUMP JUMPDEST PUSH1 0x40 DUP3 ADD SWAP1 POP SWAP2 SWAP1 POP JUMP JUMPDEST PUSH3 0xC2D DUP2 PUSH3 0x104D JUMP JUMPDEST DUP3 MSTORE POP POP JUMP JUMPDEST PUSH3 0xC3E DUP2 PUSH3 0x104D JUMP JUMPDEST DUP3 MSTORE POP POP JUMP JUMPDEST PUSH3 0xC59 PUSH3 0xC53 DUP3 PUSH3 0x104D JUMP JUMPDEST PUSH3 0x1148 JUMP JUMPDEST DUP3 MSTORE POP POP JUMP JUMPDEST PUSH1 0x0 PUSH3 0xC6D DUP3 DUP7 PUSH3 0xA9F JUMP JUMPDEST PUSH1 0x14 DUP3 ADD SWAP2 POP PUSH3 0xC7F DUP3 DUP6 PUSH3 0xC44 JUMP JUMPDEST PUSH1 0x20 DUP3 ADD SWAP2 POP PUSH3 0xC91 DUP3 DUP5 PUSH3 0xB76 JUMP JUMPDEST SWAP2 POP DUP2 SWAP1 POP SWAP5 SWAP4 POP POP POP POP JUMP JUMPDEST PUSH1 0x0 PUSH1 0x20 DUP3 ADD SWAP1 POP PUSH3 0xCB5 PUSH1 0x0 DUP4 ADD DUP5 PUSH3 0xA8E JUMP JUMPDEST SWAP3 SWAP2 POP POP JUMP JUMPDEST PUSH1 0x0 PUSH1 0x20 DUP3 ADD SWAP1 POP DUP2 DUP2 SUB PUSH1 0x0 DUP4 ADD MSTORE PUSH3 0xCD7 DUP2 DUP5 PUSH3 0xABA JUMP JUMPDEST SWAP1 POP SWAP3 SWAP2 POP POP JUMP JUMPDEST PUSH1 0x0 PUSH1 0x20 DUP3 ADD SWAP1 POP DUP2 DUP2 SUB PUSH1 0x0 DUP4 ADD MSTORE PUSH3 0xCFB DUP2 DUP5 PUSH3 0xB35 JUMP JUMPDEST SWAP1 POP SWAP3 SWAP2 POP POP JUMP JUMPDEST PUSH1 0x0 PUSH1 0x20 DUP3 ADD SWAP1 POP DUP2 DUP2 SUB PUSH1 0x0 DUP4 ADD MSTORE PUSH3 0xD1E DUP2 PUSH3 0xBAD JUMP JUMPDEST SWAP1 POP SWAP2 SWAP1 POP JUMP JUMPDEST PUSH1 0x0 PUSH1 0x20 DUP3 ADD SWAP1 POP DUP2 DUP2 SUB PUSH1 0x0 DUP4 ADD MSTORE PUSH3 0xD40 DUP2 PUSH3 0xBD4 JUMP JUMPDEST SWAP1 POP SWAP2 SWAP1 POP JUMP JUMPDEST PUSH1 0x0 PUSH1 0x20 DUP3 ADD SWAP1 POP DUP2 DUP2 SUB PUSH1 0x0 DUP4 ADD MSTORE PUSH3 0xD62 DUP2 PUSH3 0xBFB JUMP JUMPDEST SWAP1 POP SWAP2 SWAP1 POP JUMP JUMPDEST PUSH1 0x0 PUSH1 0x20 DUP3 ADD SWAP1 POP PUSH3 0xD80 PUSH1 0x0 DUP4 ADD DUP5 PUSH3 0xC33 JUMP JUMPDEST SWAP3 SWAP2 POP POP JUMP JUMPDEST PUSH1 0x0 PUSH1 0xA0 DUP3 ADD SWAP1 POP PUSH3 0xD9D PUSH1 0x0 DUP4 ADD DUP9 PUSH3 0xC33 JUMP JUMPDEST PUSH3 0xDAC PUSH1 0x20 DUP4 ADD DUP8 PUSH3 0xA8E JUMP JUMPDEST PUSH3 0xDBB PUSH1 0x40 DUP4 ADD DUP7 PUSH3 0xC33 JUMP JUMPDEST PUSH3 0xDCA PUSH1 0x60 DUP4 ADD DUP6 PUSH3 0xC33 JUMP JUMPDEST DUP2 DUP2 SUB PUSH1 0x80 DUP4 ADD MSTORE PUSH3 0xDDE DUP2 DUP5 PUSH3 0xB35 JUMP JUMPDEST SWAP1 POP SWAP7 SWAP6 POP POP POP POP POP POP JUMP JUMPDEST PUSH1 0x0 PUSH2 0x120 DUP3 ADD SWAP1 POP PUSH3 0xE02 PUSH1 0x0 DUP4 ADD DUP13 PUSH3 0xC33 JUMP JUMPDEST PUSH3 0xE11 PUSH1 0x20 DUP4 ADD DUP12 PUSH3 0xC33 JUMP JUMPDEST PUSH3 0xE20 PUSH1 0x40 DUP4 ADD DUP11 PUSH3 0xC33 JUMP JUMPDEST PUSH3 0xE2F PUSH1 0x60 DUP4 ADD DUP10 PUSH3 0xC33 JUMP JUMPDEST PUSH3 0xE3E PUSH1 0x80 DUP4 ADD DUP9 PUSH3 0xC33 JUMP JUMPDEST PUSH3 0xE4D PUSH1 0xA0 DUP4 ADD DUP8 PUSH3 0xA8E JUMP JUMPDEST PUSH3 0xE5C PUSH1 0xC0 DUP4 ADD DUP7 PUSH3 0xA8E JUMP JUMPDEST DUP2 DUP2 SUB PUSH1 0xE0 DUP4 ADD MSTORE PUSH3 0xE70 DUP2 DUP6 PUSH3 0xB35 JUMP JUMPDEST SWAP1 POP PUSH3 0xE82 PUSH2 0x100 DUP4 ADD DUP5 PUSH3 0xB24 JUMP JUMPDEST SWAP11 SWAP10 POP POP POP POP POP POP POP POP POP POP JUMP JUMPDEST PUSH1 0x0 PUSH3 0xE9C PUSH3 0xEAF JUMP JUMPDEST SWAP1 POP PUSH3 0xEAA DUP3 DUP3 PUSH3 0x109C JUMP JUMPDEST SWAP2 SWAP1 POP JUMP JUMPDEST PUSH1 0x0 PUSH1 0x40 MLOAD SWAP1 POP SWAP1 JUMP JUMPDEST PUSH1 0x0 PUSH8 0xFFFFFFFFFFFFFFFF DUP3 GT ISZERO PUSH3 0xED7 JUMPI PUSH3 0xED6 PUSH3 0x1217 JUMP JUMPDEST JUMPDEST PUSH3 0xEE2 DUP3 PUSH3 0x125A JUMP JUMPDEST SWAP1 POP PUSH1 0x20 DUP2 ADD SWAP1 POP SWAP2 SWAP1 POP JUMP JUMPDEST PUSH1 0x0 DUP2 SWAP1 POP PUSH1 0x20 DUP3 ADD SWAP1 POP SWAP2 SWAP1 POP JUMP JUMPDEST PUSH1 0x0 DUP2 MLOAD SWAP1 POP SWAP2 SWAP1 POP JUMP JUMPDEST PUSH1 0x0 DUP2 MLOAD SWAP1 POP SWAP2 SWAP1 POP JUMP JUMPDEST PUSH1 0x0 PUSH1 0x20 DUP3 ADD SWAP1 POP SWAP2 SWAP1 POP JUMP JUMPDEST PUSH1 0x0 DUP3 DUP3 MSTORE PUSH1 0x20 DUP3 ADD SWAP1 POP SWAP3 SWAP2 POP POP JUMP JUMPDEST PUSH1 0x0 DUP3 DUP3 MSTORE PUSH1 0x20 DUP3 ADD SWAP1 POP SWAP3 SWAP2 POP POP JUMP JUMPDEST PUSH1 0x0 DUP2 SWAP1 POP SWAP3 SWAP2 POP POP JUMP JUMPDEST PUSH1 0x0 PUSH3 0xF5C DUP3 PUSH3 0x104D JUMP JUMPDEST SWAP2 POP PUSH3 0xF69 DUP4 PUSH3 0x104D JUMP JUMPDEST SWAP3 POP DUP3 PUSH32 0xFFFFFFFFFFFFFFFFFFFFFFFFFFFFFFFFFFFFFFFFFFFFFFFFFFFFFFFFFFFFFFFF SUB DUP3 GT ISZERO PUSH3 0xFA1 JUMPI PUSH3 0xFA0 PUSH3 0x118A JUMP JUMPDEST JUMPDEST DUP3 DUP3 ADD SWAP1 POP SWAP3 SWAP2 POP POP JUMP JUMPDEST PUSH1 0x0 PUSH3 0xFB9 DUP3 PUSH3 0x104D JUMP JUMPDEST SWAP2 POP PUSH3 0xFC6 DUP4 PUSH3 0x104D JUMP JUMPDEST SWAP3 POP DUP2 PUSH32 0xFFFFFFFFFFFFFFFFFFFFFFFFFFFFFFFFFFFFFFFFFFFFFFFFFFFFFFFFFFFFFFFF DIV DUP4 GT DUP3 ISZERO ISZERO AND ISZERO PUSH3 0x1002 JUMPI PUSH3 0x1001 PUSH3 0x118A JUMP JUMPDEST JUMPDEST DUP3 DUP3 MUL SWAP1 POP SWAP3 SWAP2 POP POP JUMP JUMPDEST PUSH1 0x0 PUSH3 0x101A DUP3 PUSH3 0x102D JUMP JUMPDEST SWAP1 POP SWAP2 SWAP1 POP JUMP JUMPDEST PUSH1 0x0 DUP2 ISZERO ISZERO SWAP1 POP SWAP2 SWAP1 POP JUMP JUMPDEST PUSH1 0x0 PUSH20 0xFFFFFFFFFFFFFFFFFFFFFFFFFFFFFFFFFFFFFFFF DUP3 AND SWAP1 POP SWAP2 SWAP1 POP JUMP JUMPDEST PUSH1 0x0 DUP2 SWAP1 POP SWAP2 SWAP1 POP JUMP JUMPDEST DUP3 DUP2 DUP4 CALLDATACOPY PUSH1 0x0 DUP4 DUP4 ADD MSTORE POP POP POP JUMP JUMPDEST PUSH1 0x0 JUMPDEST DUP4 DUP2 LT ISZERO PUSH3 0x1086 JUMPI DUP1 DUP3 ADD MLOAD DUP2 DUP5 ADD MSTORE PUSH1 0x20 DUP2 ADD SWAP1 POP PUSH3 0x1069 JUMP JUMPDEST DUP4 DUP2 GT ISZERO PUSH3 0x1096 JUMPI PUSH1 0x0 DUP5 DUP5 ADD MSTORE JUMPDEST POP POP POP POP JUMP JUMPDEST PUSH3 0x10A7 DUP3 PUSH3 0x125A JUMP JUMPDEST DUP2 ADD DUP2 DUP2 LT PUSH8 0xFFFFFFFFFFFFFFFF DUP3 GT OR ISZERO PUSH3 0x10C9 JUMPI PUSH3 0x10C8 PUSH3 0x1217 JUMP JUMPDEST JUMPDEST DUP1 PUSH1 0x40 MSTORE POP POP POP JUMP JUMPDEST PUSH1 0x0 PUSH3 0x10DF DUP3 PUSH3 0x104D JUMP JUMPDEST SWAP2 POP PUSH32 0xFFFFFFFFFFFFFFFFFFFFFFFFFFFFFFFFFFFFFFFFFFFFFFFFFFFFFFFFFFFFFFFF DUP3 EQ ISZERO PUSH3 0x1115 JUMPI PUSH3 0x1114 PUSH3 0x118A JUMP JUMPDEST JUMPDEST PUSH1 0x1 DUP3 ADD SWAP1 POP SWAP2 SWAP1 POP JUMP JUMPDEST PUSH1 0x0 PUSH3 0x112D DUP3 PUSH3 0x1134 JUMP JUMPDEST SWAP1 POP SWAP2 SWAP1 POP JUMP JUMPDEST PUSH1 0x0 PUSH3 0x1141 DUP3 PUSH3 0x126B JUMP JUMPDEST SWAP1 POP SWAP2 SWAP1 POP JUMP JUMPDEST PUSH1 0x0 DUP2 SWAP1 POP SWAP2 SWAP1 POP JUMP JUMPDEST PUSH1 0x0 PUSH3 0x115F DUP3 PUSH3 0x104D JUMP JUMPDEST SWAP2 POP PUSH3 0x116C DUP4 PUSH3 0x104D JUMP JUMPDEST SWAP3 POP DUP3 PUSH3 0x117F JUMPI PUSH3 0x117E PUSH3 0x11B9 JUMP JUMPDEST JUMPDEST DUP3 DUP3 MOD SWAP1 POP SWAP3 SWAP2 POP POP JUMP JUMPDEST PUSH32 0x4E487B7100000000000000000000000000000000000000000000000000000000 PUSH1 0x0 MSTORE PUSH1 0x11 PUSH1 0x4 MSTORE PUSH1 0x24 PUSH1 0x0 REVERT JUMPDEST PUSH32 0x4E487B7100000000000000000000000000000000000000000000000000000000 PUSH1 0x0 MSTORE PUSH1 0x12 PUSH1 0x4 MSTORE PUSH1 0x24 PUSH1 0x0 REVERT JUMPDEST PUSH32 0x4E487B7100000000000000000000000000000000000000000000000000000000 PUSH1 0x0 MSTORE PUSH1 0x32 PUSH1 0x4 MSTORE PUSH1 0x24 PUSH1 0x0 REVERT JUMPDEST PUSH32 0x4E487B7100000000000000000000000000000000000000000000000000000000 PUSH1 0x0 MSTORE PUSH1 0x41 PUSH1 0x4 MSTORE PUSH1 0x24 PUSH1 0x0 REVERT JUMPDEST PUSH1 0x0 DUP1 REVERT JUMPDEST PUSH1 0x0 DUP1 REVERT JUMPDEST PUSH1 0x0 DUP1 REVERT JUMPDEST PUSH1 0x0 DUP1 REVERT JUMPDEST PUSH1 0x0 PUSH1 0x1F NOT PUSH1 0x1F DUP4 ADD AND SWAP1 POP SWAP2 SWAP1 POP JUMP JUMPDEST PUSH1 0x0 DUP2 PUSH1 0x60 SHL SWAP1 POP SWAP2 SWAP1 POP JUMP JUMPDEST PUSH32 0x76616C75652063616E6E6F74206265206E756C6C000000000000000000000000 PUSH1 0x0 DUP3 ADD MSTORE POP JUMP JUMPDEST PUSH32 0x7468697320686F757365496420616C7265616479206578697374730000000000 PUSH1 0x0 DUP3 ADD MSTORE POP JUMP JUMPDEST PUSH32 0x596F7520646F206E6F7420686176652061636365737320746F2064656C657465 PUSH1 0x0 DUP3 ADD MSTORE PUSH32 0x207468697320686F757365000000000000000000000000000000000000000000 PUSH1 0x20 DUP3 ADD MSTORE POP JUMP JUMPDEST PUSH3 0x1324 DUP2 PUSH3 0x100D JUMP JUMPDEST DUP2 EQ PUSH3 0x1330 JUMPI PUSH1 0x0 DUP1 REVERT JUMPDEST POP JUMP JUMPDEST PUSH3 0x133E DUP2 PUSH3 0x104D JUMP JUMPDEST DUP2 EQ PUSH3 0x134A JUMPI PUSH1 0x0 DUP1 REVERT JUMPDEST POP JUMP INVALID PUSH1 0x80 PUSH1 0x40 MSTORE CALLVALUE DUP1 ISZERO PUSH3 0x11 JUMPI PUSH1 0x0 DUP1 REVERT JUMPDEST POP PUSH1 0x40 MLOAD PUSH3 0x2BAF CODESIZE SUB DUP1 PUSH3 0x2BAF DUP4 CODECOPY DUP2 DUP2 ADD PUSH1 0x40 MSTORE DUP2 ADD SWAP1 PUSH3 0x37 SWAP2 SWAP1 PUSH3 0x331 JUMP JUMPDEST PUSH1 0x40 MLOAD DUP1 PUSH1 0x40 ADD PUSH1 0x40 MSTORE DUP1 PUSH1 0xA DUP2 MSTORE PUSH1 0x20 ADD PUSH32 0x486F757365546F6B656E00000000000000000000000000000000000000000000 DUP2 MSTORE POP PUSH1 0x40 MLOAD DUP1 PUSH1 0x40 ADD PUSH1 0x40 MSTORE DUP1 PUSH1 0x2 DUP2 MSTORE PUSH1 0x20 ADD PUSH32 0x4854000000000000000000000000000000000000000000000000000000000000 DUP2 MSTORE POP DUP2 PUSH1 0x0 SWAP1 DUP1 MLOAD SWAP1 PUSH1 0x20 ADD SWAP1 PUSH3 0xBB SWAP3 SWAP2 SWAP1 PUSH3 0x1BE JUMP JUMPDEST POP DUP1 PUSH1 0x1 SWAP1 DUP1 MLOAD SWAP1 PUSH1 0x20 ADD SWAP1 PUSH3 0xD4 SWAP3 SWAP2 SWAP1 PUSH3 0x1BE JUMP JUMPDEST POP POP POP DUP9 PUSH1 0x6 DUP2 SWAP1 SSTORE POP DUP8 PUSH1 0x7 DUP2 SWAP1 SSTORE POP DUP7 PUSH1 0x8 DUP2 SWAP1 SSTORE POP DUP6 PUSH1 0x9 DUP2 SWAP1 SSTORE POP DUP5 PUSH1 0xA DUP2 SWAP1 SSTORE POP DUP4 PUSH1 0xB PUSH1 0x0 PUSH2 0x100 EXP DUP2 SLOAD DUP2 PUSH20 0xFFFFFFFFFFFFFFFFFFFFFFFFFFFFFFFFFFFFFFFF MUL NOT AND SWAP1 DUP4 PUSH20 0xFFFFFFFFFFFFFFFFFFFFFFFFFFFFFFFFFFFFFFFF AND MUL OR SWAP1 SSTORE POP DUP3 PUSH1 0xC PUSH1 0x0 PUSH2 0x100 EXP DUP2 SLOAD DUP2 PUSH20 0xFFFFFFFFFFFFFFFFFFFFFFFFFFFFFFFFFFFFFFFF MUL NOT AND SWAP1 DUP4 PUSH20 0xFFFFFFFFFFFFFFFFFFFFFFFFFFFFFFFFFFFFFFFF AND MUL OR SWAP1 SSTORE POP DUP2 PUSH1 0xD SWAP1 DUP1 MLOAD SWAP1 PUSH1 0x20 ADD SWAP1 PUSH3 0x194 SWAP3 SWAP2 SWAP1 PUSH3 0x1BE JUMP JUMPDEST POP DUP1 PUSH1 0xE PUSH1 0x0 PUSH2 0x100 EXP DUP2 SLOAD DUP2 PUSH1 0xFF MUL NOT AND SWAP1 DUP4 ISZERO ISZERO MUL OR SWAP1 SSTORE POP POP POP POP POP POP POP POP POP POP PUSH3 0x64B JUMP JUMPDEST DUP3 DUP1 SLOAD PUSH3 0x1CC SWAP1 PUSH3 0x50E JUMP JUMPDEST SWAP1 PUSH1 0x0 MSTORE PUSH1 0x20 PUSH1 0x0 KECCAK256 SWAP1 PUSH1 0x1F ADD PUSH1 0x20 SWAP1 DIV DUP2 ADD SWAP3 DUP3 PUSH3 0x1F0 JUMPI PUSH1 0x0 DUP6 SSTORE PUSH3 0x23C JUMP JUMPDEST DUP3 PUSH1 0x1F LT PUSH3 0x20B JUMPI DUP1 MLOAD PUSH1 0xFF NOT AND DUP4 DUP1 ADD OR DUP6 SSTORE PUSH3 0x23C JUMP JUMPDEST DUP3 DUP1 ADD PUSH1 0x1 ADD DUP6 SSTORE DUP3 ISZERO PUSH3 0x23C JUMPI SWAP2 DUP3 ADD JUMPDEST DUP3 DUP2 GT ISZERO PUSH3 0x23B JUMPI DUP3 MLOAD DUP3 SSTORE SWAP2 PUSH1 0x20 ADD SWAP2 SWAP1 PUSH1 0x1 ADD SWAP1 PUSH3 0x21E JUMP JUMPDEST JUMPDEST POP SWAP1 POP PUSH3 0x24B SWAP2 SWAP1 PUSH3 0x24F JUMP JUMPDEST POP SWAP1 JUMP JUMPDEST JUMPDEST DUP1 DUP3 GT ISZERO PUSH3 0x26A JUMPI PUSH1 0x0 DUP2 PUSH1 0x0 SWAP1 SSTORE POP PUSH1 0x1 ADD PUSH3 0x250 JUMP JUMPDEST POP SWAP1 JUMP JUMPDEST PUSH1 0x0 PUSH3 0x285 PUSH3 0x27F DUP5 PUSH3 0x458 JUMP JUMPDEST PUSH3 0x42F JUMP JUMPDEST SWAP1 POP DUP3 DUP2 MSTORE PUSH1 0x20 DUP2 ADD DUP5 DUP5 DUP5 ADD GT ISZERO PUSH3 0x2A4 JUMPI PUSH3 0x2A3 PUSH3 0x5DD JUMP JUMPDEST JUMPDEST PUSH3 0x2B1 DUP5 DUP3 DUP6 PUSH3 0x4D8 JUMP JUMPDEST POP SWAP4 SWAP3 POP POP POP JUMP JUMPDEST PUSH1 0x0 DUP2 MLOAD SWAP1 POP PUSH3 0x2CA DUP2 PUSH3 0x5FD JUMP JUMPDEST SWAP3 SWAP2 POP POP JUMP JUMPDEST PUSH1 0x0 DUP2 MLOAD SWAP1 POP PUSH3 0x2E1 DUP2 PUSH3 0x617 JUMP JUMPDEST SWAP3 SWAP2 POP POP JUMP JUMPDEST PUSH1 0x0 DUP3 PUSH1 0x1F DUP4 ADD SLT PUSH3 0x2FF JUMPI PUSH3 0x2FE PUSH3 0x5D8 JUMP JUMPDEST JUMPDEST DUP2 MLOAD PUSH3 0x311 DUP5 DUP3 PUSH1 0x20 DUP7 ADD PUSH3 0x26E JUMP JUMPDEST SWAP2 POP POP SWAP3 SWAP2 POP POP JUMP JUMPDEST PUSH1 0x0 DUP2 MLOAD SWAP1 POP PUSH3 0x32B DUP2 PUSH3 0x631 JUMP JUMPDEST SWAP3 SWAP2 POP POP JUMP JUMPDEST PUSH1 0x0 DUP1 PUSH1 0x0 DUP1 PUSH1 0x0 DUP1 PUSH1 0x0 DUP1 PUSH1 0x0 PUSH2 0x120 DUP11 DUP13 SUB SLT ISZERO PUSH3 0x357 JUMPI PUSH3 0x356 PUSH3 0x5E7 JUMP JUMPDEST JUMPDEST PUSH1 0x0 PUSH3 0x367 DUP13 DUP3 DUP14 ADD PUSH3 0x31A JUMP JUMPDEST SWAP10 POP POP PUSH1 0x20 PUSH3 0x37A DUP13 DUP3 DUP14 ADD PUSH3 0x31A JUMP JUMPDEST SWAP9 POP POP PUSH1 0x40 PUSH3 0x38D DUP13 DUP3 DUP14 ADD PUSH3 0x31A JUMP JUMPDEST SWAP8 POP POP PUSH1 0x60 PUSH3 0x3A0 DUP13 DUP3 DUP14 ADD PUSH3 0x31A JUMP JUMPDEST SWAP7 POP POP PUSH1 0x80 PUSH3 0x3B3 DUP13 DUP3 DUP14 ADD PUSH3 0x31A JUMP JUMPDEST SWAP6 POP POP PUSH1 0xA0 PUSH3 0x3C6 DUP13 DUP3 DUP14 ADD PUSH3 0x2B9 JUMP JUMPDEST SWAP5 POP POP PUSH1 0xC0 PUSH3 0x3D9 DUP13 DUP3 DUP14 ADD PUSH3 0x2B9 JUMP JUMPDEST SWAP4 POP POP PUSH1 0xE0 DUP11 ADD MLOAD PUSH8 0xFFFFFFFFFFFFFFFF DUP2 GT ISZERO PUSH3 0x3FD JUMPI PUSH3 0x3FC PUSH3 0x5E2 JUMP JUMPDEST JUMPDEST PUSH3 0x40B DUP13 DUP3 DUP14 ADD PUSH3 0x2E7 JUMP JUMPDEST SWAP3 POP POP PUSH2 0x100 PUSH3 0x41F DUP13 DUP3 DUP14 ADD PUSH3 0x2D0 JUMP JUMPDEST SWAP2 POP POP SWAP3 SWAP6 SWAP9 POP SWAP3 SWAP6 SWAP9 POP SWAP3 SWAP6 SWAP9 JUMP JUMPDEST PUSH1 0x0 PUSH3 0x43B PUSH3 0x44E JUMP JUMPDEST SWAP1 POP PUSH3 0x449 DUP3 DUP3 PUSH3 0x544 JUMP JUMPDEST SWAP2 SWAP1 POP JUMP JUMPDEST PUSH1 0x0 PUSH1 0x40 MLOAD SWAP1 POP SWAP1 JUMP JUMPDEST PUSH1 0x0 PUSH8 0xFFFFFFFFFFFFFFFF DUP3 GT ISZERO PUSH3 0x476 JUMPI PUSH3 0x475 PUSH3 0x5A9 JUMP JUMPDEST JUMPDEST PUSH3 0x481 DUP3 PUSH3 0x5EC JUMP JUMPDEST SWAP1 POP PUSH1 0x20 DUP2 ADD SWAP1 POP SWAP2 SWAP1 POP JUMP JUMPDEST PUSH1 0x0 PUSH3 0x49B DUP3 PUSH3 0x4AE JUMP JUMPDEST SWAP1 POP SWAP2 SWAP1 POP JUMP JUMPDEST PUSH1 0x0 DUP2 ISZERO ISZERO SWAP1 POP SWAP2 SWAP1 POP JUMP JUMPDEST PUSH1 0x0 PUSH20 0xFFFFFFFFFFFFFFFFFFFFFFFFFFFFFFFFFFFFFFFF DUP3 AND SWAP1 POP SWAP2 SWAP1 POP JUMP JUMPDEST PUSH1 0x0 DUP2 SWAP1 POP SWAP2 SWAP1 POP JUMP JUMPDEST PUSH1 0x0 JUMPDEST DUP4 DUP2 LT ISZERO PUSH3 0x4F8 JUMPI DUP1 DUP3 ADD MLOAD DUP2 DUP5 ADD MSTORE PUSH1 0x20 DUP2 ADD SWAP1 POP PUSH3 0x4DB JUMP JUMPDEST DUP4 DUP2 GT ISZERO PUSH3 0x508 JUMPI PUSH1 0x0 DUP5 DUP5 ADD MSTORE JUMPDEST POP POP POP POP JUMP JUMPDEST PUSH1 0x0 PUSH1 0x2 DUP3 DIV SWAP1 POP PUSH1 0x1 DUP3 AND DUP1 PUSH3 0x527 JUMPI PUSH1 0x7F DUP3 AND SWAP2 POP JUMPDEST PUSH1 0x20 DUP3 LT DUP2 EQ ISZERO PUSH3 0x53E JUMPI PUSH3 0x53D PUSH3 0x57A JUMP JUMPDEST JUMPDEST POP SWAP2 SWAP1 POP JUMP JUMPDEST PUSH3 0x54F DUP3 PUSH3 0x5EC JUMP JUMPDEST DUP2 ADD DUP2 DUP2 LT PUSH8 0xFFFFFFFFFFFFFFFF DUP3 GT OR ISZERO PUSH3 0x571 JUMPI PUSH3 0x570 PUSH3 0x5A9 JUMP JUMPDEST JUMPDEST DUP1 PUSH1 0x40 MSTORE POP POP POP JUMP JUMPDEST PUSH32 0x4E487B7100000000000000000000000000000000000000000000000000000000 PUSH1 0x0 MSTORE PUSH1 0x22 PUSH1 0x4 MSTORE PUSH1 0x24 PUSH1 0x0 REVERT JUMPDEST PUSH32 0x4E487B7100000000000000000000000000000000000000000000000000000000 PUSH1 0x0 MSTORE PUSH1 0x41 PUSH1 0x4 MSTORE PUSH1 0x24 PUSH1 0x0 REVERT JUMPDEST PUSH1 0x0 DUP1 REVERT JUMPDEST PUSH1 0x0 DUP1 REVERT JUMPDEST PUSH1 0x0 DUP1 REVERT JUMPDEST PUSH1 0x0 DUP1 REVERT JUMPDEST PUSH1 0x0 PUSH1 0x1F NOT PUSH1 0x1F DUP4 ADD AND SWAP1 POP SWAP2 SWAP1 POP JUMP JUMPDEST PUSH3 0x608 DUP2 PUSH3 0x48E JUMP JUMPDEST DUP2 EQ PUSH3 0x614 JUMPI PUSH1 0x0 DUP1 REVERT JUMPDEST POP JUMP JUMPDEST PUSH3 0x622 DUP2 PUSH3 0x4A2 JUMP JUMPDEST DUP2 EQ PUSH3 0x62E JUMPI PUSH1 0x0 DUP1 REVERT JUMPDEST POP JUMP JUMPDEST PUSH3 0x63C DUP2 PUSH3 0x4CE JUMP JUMPDEST DUP2 EQ PUSH3 0x648 JUMPI PUSH1 0x0 DUP1 REVERT JUMPDEST POP JUMP JUMPDEST PUSH2 0x2554 DUP1 PUSH3 0x65B PUSH1 0x0 CODECOPY PUSH1 0x0 RETURN INVALID PUSH1 0x80 PUSH1 0x40 MSTORE CALLVALUE DUP1 ISZERO PUSH2 0x10 JUMPI PUSH1 0x0 DUP1 REVERT JUMPDEST POP PUSH1 0x4 CALLDATASIZE LT PUSH2 0x116 JUMPI PUSH1 0x0 CALLDATALOAD PUSH1 0xE0 SHR DUP1 PUSH4 0x70A08231 GT PUSH2 0xA2 JUMPI DUP1 PUSH4 0xA8A0991A GT PUSH2 0x71 JUMPI DUP1 PUSH4 0xA8A0991A EQ PUSH2 0x2CD JUMPI DUP1 PUSH4 0xB88D4FDE EQ PUSH2 0x2EB JUMPI DUP1 PUSH4 0xC87B56DD EQ PUSH2 0x307 JUMPI DUP1 PUSH4 0xD847C19A EQ PUSH2 0x337 JUMPI DUP1 PUSH4 0xE985E9C5 EQ PUSH2 0x353 JUMPI PUSH2 0x116 JUMP JUMPDEST DUP1 PUSH4 0x70A08231 EQ PUSH2 0x245 JUMPI DUP1 PUSH4 0x95D89B41 EQ PUSH2 0x275 JUMPI DUP1 PUSH4 0xA19AF1AD EQ PUSH2 0x293 JUMPI DUP1 PUSH4 0xA22CB465 EQ PUSH2 0x2B1 JUMPI PUSH2 0x116 JUMP JUMPDEST DUP1 PUSH4 0x23B872DD GT PUSH2 0xE9 JUMPI DUP1 PUSH4 0x23B872DD EQ PUSH2 0x1B5 JUMPI DUP1 PUSH4 0x36C8AF5D EQ PUSH2 0x1D1 JUMPI DUP1 PUSH4 0x42842E0E EQ PUSH2 0x1EF JUMPI DUP1 PUSH4 0x5FF27F13 EQ PUSH2 0x20B JUMPI DUP1 PUSH4 0x6352211E EQ PUSH2 0x215 JUMPI PUSH2 0x116 JUMP JUMPDEST DUP1 PUSH4 0x1FFC9A7 EQ PUSH2 0x11B JUMPI DUP1 PUSH4 0x6FDDE03 EQ PUSH2 0x14B JUMPI DUP1 PUSH4 0x81812FC EQ PUSH2 0x169 JUMPI DUP1 PUSH4 0x95EA7B3 EQ PUSH2 0x199 JUMPI JUMPDEST PUSH1 0x0 DUP1 REVERT JUMPDEST PUSH2 0x135 PUSH1 0x4 DUP1 CALLDATASIZE SUB DUP2 ADD SWAP1 PUSH2 0x130 SWAP2 SWAP1 PUSH2 0x17DF JUMP JUMPDEST PUSH2 0x383 JUMP JUMPDEST PUSH1 0x40 MLOAD PUSH2 0x142 SWAP2 SWAP1 PUSH2 0x1B65 JUMP JUMPDEST PUSH1 0x40 MLOAD DUP1 SWAP2 SUB SWAP1 RETURN JUMPDEST PUSH2 0x153 PUSH2 0x465 JUMP JUMPDEST PUSH1 0x40 MLOAD PUSH2 0x160 SWAP2 SWAP1 PUSH2 0x1B80 JUMP JUMPDEST PUSH1 0x40 MLOAD DUP1 SWAP2 SUB SWAP1 RETURN JUMPDEST PUSH2 0x183 PUSH1 0x4 DUP1 CALLDATASIZE SUB DUP2 ADD SWAP1 PUSH2 0x17E SWAP2 SWAP1 PUSH2 0x1839 JUMP JUMPDEST PUSH2 0x4F7 JUMP JUMPDEST PUSH1 0x40 MLOAD PUSH2 0x190 SWAP2 SWAP1 PUSH2 0x1AFE JUMP JUMPDEST PUSH1 0x40 MLOAD DUP1 SWAP2 SUB SWAP1 RETURN JUMPDEST PUSH2 0x1B3 PUSH1 0x4 DUP1 CALLDATASIZE SUB DUP2 ADD SWAP1 PUSH2 0x1AE SWAP2 SWAP1 PUSH2 0x179F JUMP JUMPDEST PUSH2 0x57C JUMP JUMPDEST STOP JUMPDEST PUSH2 0x1CF PUSH1 0x4 DUP1 CALLDATASIZE SUB DUP2 ADD SWAP1 PUSH2 0x1CA SWAP2 SWAP1 PUSH2 0x1689 JUMP JUMPDEST PUSH2 0x694 JUMP JUMPDEST STOP JUMPDEST PUSH2 0x1D9 PUSH2 0x6F4 JUMP JUMPDEST PUSH1 0x40 MLOAD PUSH2 0x1E6 SWAP2 SWAP1 PUSH2 0x1D22 JUMP JUMPDEST PUSH1 0x40 MLOAD DUP1 SWAP2 SUB SWAP1 RETURN JUMPDEST PUSH2 0x209 PUSH1 0x4 DUP1 CALLDATASIZE SUB DUP2 ADD SWAP1 PUSH2 0x204 SWAP2 SWAP1 PUSH2 0x1689 JUMP JUMPDEST PUSH2 0x6FE JUMP JUMPDEST STOP JUMPDEST PUSH2 0x213 PUSH2 0x71E JUMP JUMPDEST STOP JUMPDEST PUSH2 0x22F PUSH1 0x4 DUP1 CALLDATASIZE SUB DUP2 ADD SWAP1 PUSH2 0x22A SWAP2 SWAP1 PUSH2 0x1839 JUMP JUMPDEST PUSH2 0x73B JUMP JUMPDEST PUSH1 0x40 MLOAD PUSH2 0x23C SWAP2 SWAP1 PUSH2 0x1AFE JUMP JUMPDEST PUSH1 0x40 MLOAD DUP1 SWAP2 SUB SWAP1 RETURN JUMPDEST PUSH2 0x25F PUSH1 0x4 DUP1 CALLDATASIZE SUB DUP2 ADD SWAP1 PUSH2 0x25A SWAP2 SWAP1 PUSH2 0x161C JUMP JUMPDEST PUSH2 0x7ED JUMP JUMPDEST PUSH1 0x40 MLOAD PUSH2 0x26C SWAP2 SWAP1 PUSH2 0x1D22 JUMP JUMPDEST PUSH1 0x40 MLOAD DUP1 SWAP2 SUB SWAP1 RETURN JUMPDEST PUSH2 0x27D PUSH2 0x8A5 JUMP JUMPDEST PUSH1 0x40 MLOAD PUSH2 0x28A SWAP2 SWAP1 PUSH2 0x1B80 JUMP JUMPDEST PUSH1 0x40 MLOAD DUP1 SWAP2 SUB SWAP1 RETURN JUMPDEST PUSH2 0x29B PUSH2 0x937 JUMP JUMPDEST PUSH1 0x40 MLOAD PUSH2 0x2A8 SWAP2 SWAP1 PUSH2 0x1D22 JUMP JUMPDEST PUSH1 0x40 MLOAD DUP1 SWAP2 SUB SWAP1 RETURN JUMPDEST PUSH2 0x2CB PUSH1 0x4 DUP1 CALLDATASIZE SUB DUP2 ADD SWAP1 PUSH2 0x2C6 SWAP2 SWAP1 PUSH2 0x175F JUMP JUMPDEST PUSH2 0x941 JUMP JUMPDEST STOP JUMPDEST PUSH2 0x2D5 PUSH2 0x957 JUMP JUMPDEST PUSH1 0x40 MLOAD PUSH2 0x2E2 SWAP2 SWAP1 PUSH2 0x1AFE JUMP JUMPDEST PUSH1 0x40 MLOAD DUP1 SWAP2 SUB SWAP1 RETURN JUMPDEST PUSH2 0x305 PUSH1 0x4 DUP1 CALLDATASIZE SUB DUP2 ADD SWAP1 PUSH2 0x300 SWAP2 SWAP1 PUSH2 0x16DC JUMP JUMPDEST PUSH2 0x981 JUMP JUMPDEST STOP JUMPDEST PUSH2 0x321 PUSH1 0x4 DUP1 CALLDATASIZE SUB DUP2 ADD SWAP1 PUSH2 0x31C SWAP2 SWAP1 PUSH2 0x1839 JUMP JUMPDEST PUSH2 0x9E3 JUMP JUMPDEST PUSH1 0x40 MLOAD PUSH2 0x32E SWAP2 SWAP1 PUSH2 0x1B80 JUMP JUMPDEST PUSH1 0x40 MLOAD DUP1 SWAP2 SUB SWAP1 RETURN JUMPDEST PUSH2 0x351 PUSH1 0x4 DUP1 CALLDATASIZE SUB DUP2 ADD SWAP1 PUSH2 0x34C SWAP2 SWAP1 PUSH2 0x161C JUMP JUMPDEST PUSH2 0xA8A JUMP JUMPDEST STOP JUMPDEST PUSH2 0x36D PUSH1 0x4 DUP1 CALLDATASIZE SUB DUP2 ADD SWAP1 PUSH2 0x368 SWAP2 SWAP1 PUSH2 0x1649 JUMP JUMPDEST PUSH2 0xACE JUMP JUMPDEST PUSH1 0x40 MLOAD PUSH2 0x37A SWAP2 SWAP1 PUSH2 0x1B65 JUMP JUMPDEST PUSH1 0x40 MLOAD DUP1 SWAP2 SUB SWAP1 RETURN JUMPDEST PUSH1 0x0 PUSH32 0x80AC58CD00000000000000000000000000000000000000000000000000000000 PUSH28 0xFFFFFFFFFFFFFFFFFFFFFFFFFFFFFFFFFFFFFFFFFFFFFFFFFFFFFFFF NOT AND DUP3 PUSH28 0xFFFFFFFFFFFFFFFFFFFFFFFFFFFFFFFFFFFFFFFFFFFFFFFFFFFFFFFF NOT AND EQ DUP1 PUSH2 0x44E JUMPI POP PUSH32 0x5B5E139F00000000000000000000000000000000000000000000000000000000 PUSH28 0xFFFFFFFFFFFFFFFFFFFFFFFFFFFFFFFFFFFFFFFFFFFFFFFFFFFFFFFF NOT AND DUP3 PUSH28 0xFFFFFFFFFFFFFFFFFFFFFFFFFFFFFFFFFFFFFFFFFFFFFFFFFFFFFFFF NOT AND EQ JUMPDEST DUP1 PUSH2 0x45E JUMPI POP PUSH2 0x45D DUP3 PUSH2 0xB62 JUMP JUMPDEST JUMPDEST SWAP1 POP SWAP2 SWAP1 POP JUMP JUMPDEST PUSH1 0x60 PUSH1 0x0 DUP1 SLOAD PUSH2 0x474 SWAP1 PUSH2 0x1F47 JUMP JUMPDEST DUP1 PUSH1 0x1F ADD PUSH1 0x20 DUP1 SWAP2 DIV MUL PUSH1 0x20 ADD PUSH1 0x40 MLOAD SWAP1 DUP2 ADD PUSH1 0x40 MSTORE DUP1 SWAP3 SWAP2 SWAP1 DUP2 DUP2 MSTORE PUSH1 0x20 ADD DUP3 DUP1 SLOAD PUSH2 0x4A0 SWAP1 PUSH2 0x1F47 JUMP JUMPDEST DUP1 ISZERO PUSH2 0x4ED JUMPI DUP1 PUSH1 0x1F LT PUSH2 0x4C2 JUMPI PUSH2 0x100 DUP1 DUP4 SLOAD DIV MUL DUP4 MSTORE SWAP2 PUSH1 0x20 ADD SWAP2 PUSH2 0x4ED JUMP JUMPDEST DUP3 ADD SWAP2 SWAP1 PUSH1 0x0 MSTORE PUSH1 0x20 PUSH1 0x0 KECCAK256 SWAP1 JUMPDEST DUP2 SLOAD DUP2 MSTORE SWAP1 PUSH1 0x1 ADD SWAP1 PUSH1 0x20 ADD DUP1 DUP4 GT PUSH2 0x4D0 JUMPI DUP3 SWAP1 SUB PUSH1 0x1F AND DUP3 ADD SWAP2 JUMPDEST POP POP POP POP POP SWAP1 POP SWAP1 JUMP JUMPDEST PUSH1 0x0 PUSH2 0x502 DUP3 PUSH2 0xBCC JUMP JUMPDEST PUSH2 0x541 JUMPI PUSH1 0x40 MLOAD PUSH32 0x8C379A000000000000000000000000000000000000000000000000000000000 DUP2 MSTORE PUSH1 0x4 ADD PUSH2 0x538 SWAP1 PUSH2 0x1CA2 JUMP JUMPDEST PUSH1 0x40 MLOAD DUP1 SWAP2 SUB SWAP1 REVERT JUMPDEST PUSH1 0x4 PUSH1 0x0 DUP4 DUP2 MSTORE PUSH1 0x20 ADD SWAP1 DUP2 MSTORE PUSH1 0x20 ADD PUSH1 0x0 KECCAK256 PUSH1 0x0 SWAP1 SLOAD SWAP1 PUSH2 0x100 EXP SWAP1 DIV PUSH20 0xFFFFFFFFFFFFFFFFFFFFFFFFFFFFFFFFFFFFFFFF AND SWAP1 POP SWAP2 SWAP1 POP JUMP JUMPDEST PUSH1 0x0 PUSH2 0x587 DUP3 PUSH2 0x73B JUMP JUMPDEST SWAP1 POP DUP1 PUSH20 0xFFFFFFFFFFFFFFFFFFFFFFFFFFFFFFFFFFFFFFFF AND DUP4 PUSH20 0xFFFFFFFFFFFFFFFFFFFFFFFFFFFFFFFFFFFFFFFF AND EQ ISZERO PUSH2 0x5F8 JUMPI PUSH1 0x40 MLOAD PUSH32 0x8C379A000000000000000000000000000000000000000000000000000000000 DUP2 MSTORE PUSH1 0x4 ADD PUSH2 0x5EF SWAP1 PUSH2 0x1CE2 JUMP JUMPDEST PUSH1 0x40 MLOAD DUP1 SWAP2 SUB SWAP1 REVERT JUMPDEST DUP1 PUSH20 0xFFFFFFFFFFFFFFFFFFFFFFFFFFFFFFFFFFFFFFFF AND PUSH2 0x617 PUSH2 0xC38 JUMP JUMPDEST PUSH20 0xFFFFFFFFFFFFFFFFFFFFFFFFFFFFFFFFFFFFFFFF AND EQ DUP1 PUSH2 0x646 JUMPI POP PUSH2 0x645 DUP2 PUSH2 0x640 PUSH2 0xC38 JUMP JUMPDEST PUSH2 0xACE JUMP JUMPDEST JUMPDEST PUSH2 0x685 JUMPI PUSH1 0x40 MLOAD PUSH32 0x8C379A000000000000000000000000000000000000000000000000000000000 DUP2 MSTORE PUSH1 0x4 ADD PUSH2 0x67C SWAP1 PUSH2 0x1C62 JUMP JUMPDEST PUSH1 0x40 MLOAD DUP1 SWAP2 SUB SWAP1 REVERT JUMPDEST PUSH2 0x68F DUP4 DUP4 PUSH2 0xC40 JUMP JUMPDEST POP POP POP JUMP JUMPDEST PUSH2 0x6A5 PUSH2 0x69F PUSH2 0xC38 JUMP JUMPDEST DUP3 PUSH2 0xCF9 JUMP JUMPDEST PUSH2 0x6E4 JUMPI PUSH1 0x40 MLOAD PUSH32 0x8C379A000000000000000000000000000000000000000000000000000000000 DUP2 MSTORE PUSH1 0x4 ADD PUSH2 0x6DB SWAP1 PUSH2 0x1D02 JUMP JUMPDEST PUSH1 0x40 MLOAD DUP1 SWAP2 SUB SWAP1 REVERT JUMPDEST PUSH2 0x6EF DUP4 DUP4 DUP4 PUSH2 0xDD7 JUMP JUMPDEST POP POP POP JUMP JUMPDEST PUSH1 0x0 PUSH1 0x6 SLOAD SWAP1 POP SWAP1 JUMP JUMPDEST PUSH2 0x719 DUP4 DUP4 DUP4 PUSH1 0x40 MLOAD DUP1 PUSH1 0x20 ADD PUSH1 0x40 MSTORE DUP1 PUSH1 0x0 DUP2 MSTORE POP PUSH2 0x981 JUMP JUMPDEST POP POP POP JUMP JUMPDEST PUSH1 0x1 PUSH1 0xE PUSH1 0x0 PUSH2 0x100 EXP DUP2 SLOAD DUP2 PUSH1 0xFF MUL NOT AND SWAP1 DUP4 ISZERO ISZERO MUL OR SWAP1 SSTORE POP JUMP JUMPDEST PUSH1 0x0 DUP1 PUSH1 0x2 PUSH1 0x0 DUP5 DUP2 MSTORE PUSH1 0x20 ADD SWAP1 DUP2 MSTORE PUSH1 0x20 ADD PUSH1 0x0 KECCAK256 PUSH1 0x0 SWAP1 SLOAD SWAP1 PUSH2 0x100 EXP SWAP1 DIV PUSH20 0xFFFFFFFFFFFFFFFFFFFFFFFFFFFFFFFFFFFFFFFF AND SWAP1 POP PUSH1 0x0 PUSH20 0xFFFFFFFFFFFFFFFFFFFFFFFFFFFFFFFFFFFFFFFF AND DUP2 PUSH20 0xFFFFFFFFFFFFFFFFFFFFFFFFFFFFFFFFFFFFFFFF AND EQ ISZERO PUSH2 0x7E4 JUMPI PUSH1 0x40 MLOAD PUSH32 0x8C379A000000000000000000000000000000000000000000000000000000000 DUP2 MSTORE PUSH1 0x4 ADD PUSH2 0x7DB SWAP1 PUSH2 0x1C82 JUMP JUMPDEST PUSH1 0x40 MLOAD DUP1 SWAP2 SUB SWAP1 REVERT JUMPDEST DUP1 SWAP2 POP POP SWAP2 SWAP1 POP JUMP JUMPDEST PUSH1 0x0 DUP1 PUSH20 0xFFFFFFFFFFFFFFFFFFFFFFFFFFFFFFFFFFFFFFFF AND DUP3 PUSH20 0xFFFFFFFFFFFFFFFFFFFFFFFFFFFFFFFFFFFFFFFF AND EQ ISZERO PUSH2 0x85E JUMPI PUSH1 0x40 MLOAD PUSH32 0x8C379A000000000000000000000000000000000000000000000000000000000 DUP2 MSTORE PUSH1 0x4 ADD PUSH2 0x855 SWAP1 PUSH2 0x1C42 JUMP JUMPDEST PUSH1 0x40 MLOAD DUP1 SWAP2 SUB SWAP1 REVERT JUMPDEST PUSH1 0x3 PUSH1 0x0 DUP4 PUSH20 0xFFFFFFFFFFFFFFFFFFFFFFFFFFFFFFFFFFFFFFFF AND PUSH20 0xFFFFFFFFFFFFFFFFFFFFFFFFFFFFFFFFFFFFFFFF AND DUP2 MSTORE PUSH1 0x20 ADD SWAP1 DUP2 MSTORE PUSH1 0x20 ADD PUSH1 0x0 KECCAK256 SLOAD SWAP1 POP SWAP2 SWAP1 POP JUMP JUMPDEST PUSH1 0x60 PUSH1 0x1 DUP1 SLOAD PUSH2 0x8B4 SWAP1 PUSH2 0x1F47 JUMP JUMPDEST DUP1 PUSH1 0x1F ADD PUSH1 0x20 DUP1 SWAP2 DIV MUL PUSH1 0x20 ADD PUSH1 0x40 MLOAD SWAP1 DUP2 ADD PUSH1 0x40 MSTORE DUP1 SWAP3 SWAP2 SWAP1 DUP2 DUP2 MSTORE PUSH1 0x20 ADD DUP3 DUP1 SLOAD PUSH2 0x8E0 SWAP1 PUSH2 0x1F47 JUMP JUMPDEST DUP1 ISZERO PUSH2 0x92D JUMPI DUP1 PUSH1 0x1F LT PUSH2 0x902 JUMPI PUSH2 0x100 DUP1 DUP4 SLOAD DIV MUL DUP4 MSTORE SWAP2 PUSH1 0x20 ADD SWAP2 PUSH2 0x92D JUMP JUMPDEST DUP3 ADD SWAP2 SWAP1 PUSH1 0x0 MSTORE PUSH1 0x20 PUSH1 0x0 KECCAK256 SWAP1 JUMPDEST DUP2 SLOAD DUP2 MSTORE SWAP1 PUSH1 0x1 ADD SWAP1 PUSH1 0x20 ADD DUP1 DUP4 GT PUSH2 0x910 JUMPI DUP3 SWAP1 SUB PUSH1 0x1F AND DUP3 ADD SWAP2 JUMPDEST POP POP POP POP POP SWAP1 POP SWAP1 JUMP JUMPDEST PUSH1 0x0 PUSH1 0x8 SLOAD SWAP1 POP SWAP1 JUMP JUMPDEST PUSH2 0x953 PUSH2 0x94C PUSH2 0xC38 JUMP JUMPDEST DUP4 DUP4 PUSH2 0x103E JUMP JUMPDEST POP POP JUMP JUMPDEST PUSH1 0x0 PUSH1 0xB PUSH1 0x0 SWAP1 SLOAD SWAP1 PUSH2 0x100 EXP SWAP1 DIV PUSH20 0xFFFFFFFFFFFFFFFFFFFFFFFFFFFFFFFFFFFFFFFF AND SWAP1 POP SWAP1 JUMP JUMPDEST PUSH2 0x992 PUSH2 0x98C PUSH2 0xC38 JUMP JUMPDEST DUP4 PUSH2 0xCF9 JUMP JUMPDEST PUSH2 0x9D1 JUMPI PUSH1 0x40 MLOAD PUSH32 0x8C379A000000000000000000000000000000000000000000000000000000000 DUP2 MSTORE PUSH1 0x4 ADD PUSH2 0x9C8 SWAP1 PUSH2 0x1D02 JUMP JUMPDEST PUSH1 0x40 MLOAD DUP1 SWAP2 SUB SWAP1 REVERT JUMPDEST PUSH2 0x9DD DUP5 DUP5 DUP5 DUP5 PUSH2 0x11AB JUMP JUMPDEST POP POP POP POP JUMP JUMPDEST PUSH1 0x60 PUSH2 0x9EE DUP3 PUSH2 0xBCC JUMP JUMPDEST PUSH2 0xA2D JUMPI PUSH1 0x40 MLOAD PUSH32 0x8C379A000000000000000000000000000000000000000000000000000000000 DUP2 MSTORE PUSH1 0x4 ADD PUSH2 0xA24 SWAP1 PUSH2 0x1CC2 JUMP JUMPDEST PUSH1 0x40 MLOAD DUP1 SWAP2 SUB SWAP1 REVERT JUMPDEST PUSH1 0x0 PUSH2 0xA37 PUSH2 0x1207 JUMP JUMPDEST SWAP1 POP PUSH1 0x0 DUP2 MLOAD GT PUSH2 0xA57 JUMPI PUSH1 0x40 MLOAD DUP1 PUSH1 0x20 ADD PUSH1 0x40 MSTORE DUP1 PUSH1 0x0 DUP2 MSTORE POP PUSH2 0xA82 JUMP JUMPDEST DUP1 PUSH2 0xA61 DUP5 PUSH2 0x121E JUMP JUMPDEST PUSH1 0x40 MLOAD PUSH1 0x20 ADD PUSH2 0xA72 SWAP3 SWAP2 SWAP1 PUSH2 0x1ADA JUMP JUMPDEST PUSH1 0x40 MLOAD PUSH1 0x20 DUP2 DUP4 SUB SUB DUP2 MSTORE SWAP1 PUSH1 0x40 MSTORE JUMPDEST SWAP2 POP POP SWAP2 SWAP1 POP JUMP JUMPDEST DUP1 PUSH1 0xC PUSH1 0x0 PUSH2 0x100 EXP DUP2 SLOAD DUP2 PUSH20 0xFFFFFFFFFFFFFFFFFFFFFFFFFFFFFFFFFFFFFFFF MUL NOT AND SWAP1 DUP4 PUSH20 0xFFFFFFFFFFFFFFFFFFFFFFFFFFFFFFFFFFFFFFFF AND MUL OR SWAP1 SSTORE POP POP JUMP JUMPDEST PUSH1 0x0 PUSH1 0x5 PUSH1 0x0 DUP5 PUSH20 0xFFFFFFFFFFFFFFFFFFFFFFFFFFFFFFFFFFFFFFFF AND PUSH20 0xFFFFFFFFFFFFFFFFFFFFFFFFFFFFFFFFFFFFFFFF AND DUP2 MSTORE PUSH1 0x20 ADD SWAP1 DUP2 MSTORE PUSH1 0x20 ADD PUSH1 0x0 KECCAK256 PUSH1 0x0 DUP4 PUSH20 0xFFFFFFFFFFFFFFFFFFFFFFFFFFFFFFFFFFFFFFFF AND PUSH20 0xFFFFFFFFFFFFFFFFFFFFFFFFFFFFFFFFFFFFFFFF AND DUP2 MSTORE PUSH1 0x20 ADD SWAP1 DUP2 MSTORE PUSH1 0x20 ADD PUSH1 0x0 KECCAK256 PUSH1 0x0 SWAP1 SLOAD SWAP1 PUSH2 0x100 EXP SWAP1 DIV PUSH1 0xFF AND SWAP1 POP SWAP3 SWAP2 POP POP JUMP JUMPDEST PUSH1 0x0 PUSH32 0x1FFC9A700000000000000000000000000000000000000000000000000000000 PUSH28 0xFFFFFFFFFFFFFFFFFFFFFFFFFFFFFFFFFFFFFFFFFFFFFFFFFFFFFFFF NOT AND DUP3 PUSH28 0xFFFFFFFFFFFFFFFFFFFFFFFFFFFFFFFFFFFFFFFFFFFFFFFFFFFFFFFF NOT AND EQ SWAP1 POP SWAP2 SWAP1 POP JUMP JUMPDEST PUSH1 0x0 DUP1 PUSH20 0xFFFFFFFFFFFFFFFFFFFFFFFFFFFFFFFFFFFFFFFF AND PUSH1 0x2 PUSH1 0x0 DUP5 DUP2 MSTORE PUSH1 0x20 ADD SWAP1 DUP2 MSTORE PUSH1 0x20 ADD PUSH1 0x0 KECCAK256 PUSH1 0x0 SWAP1 SLOAD SWAP1 PUSH2 0x100 EXP SWAP1 DIV PUSH20 0xFFFFFFFFFFFFFFFFFFFFFFFFFFFFFFFFFFFFFFFF AND PUSH20 0xFFFFFFFFFFFFFFFFFFFFFFFFFFFFFFFFFFFFFFFF AND EQ ISZERO SWAP1 POP SWAP2 SWAP1 POP JUMP JUMPDEST PUSH1 0x0 CALLER SWAP1 POP SWAP1 JUMP JUMPDEST DUP2 PUSH1 0x4 PUSH1 0x0 DUP4 DUP2 MSTORE PUSH1 0x20 ADD SWAP1 DUP2 MSTORE PUSH1 0x20 ADD PUSH1 0x0 KECCAK256 PUSH1 0x0 PUSH2 0x100 EXP DUP2 SLOAD DUP2 PUSH20 0xFFFFFFFFFFFFFFFFFFFFFFFFFFFFFFFFFFFFFFFF MUL NOT AND SWAP1 DUP4 PUSH20 0xFFFFFFFFFFFFFFFFFFFFFFFFFFFFFFFFFFFFFFFF AND MUL OR SWAP1 SSTORE POP DUP1 DUP3 PUSH20 0xFFFFFFFFFFFFFFFFFFFFFFFFFFFFFFFFFFFFFFFF AND PUSH2 0xCB3 DUP4 PUSH2 0x73B JUMP JUMPDEST PUSH20 0xFFFFFFFFFFFFFFFFFFFFFFFFFFFFFFFFFFFFFFFF AND PUSH32 0x8C5BE1E5EBEC7D5BD14F71427D1E84F3DD0314C0F7B2291E5B200AC8C7C3B925 PUSH1 0x40 MLOAD PUSH1 0x40 MLOAD DUP1 SWAP2 SUB SWAP1 LOG4 POP POP JUMP JUMPDEST PUSH1 0x0 PUSH2 0xD04 DUP3 PUSH2 0xBCC JUMP JUMPDEST PUSH2 0xD43 JUMPI PUSH1 0x40 MLOAD PUSH32 0x8C379A000000000000000000000000000000000000000000000000000000000 DUP2 MSTORE PUSH1 0x4 ADD PUSH2 0xD3A SWAP1 PUSH2 0x1C22 JUMP JUMPDEST PUSH1 0x40 MLOAD DUP1 SWAP2 SUB SWAP1 REVERT JUMPDEST PUSH1 0x0 PUSH2 0xD4E DUP4 PUSH2 0x73B JUMP JUMPDEST SWAP1 POP DUP1 PUSH20 0xFFFFFFFFFFFFFFFFFFFFFFFFFFFFFFFFFFFFFFFF AND DUP5 PUSH20 0xFFFFFFFFFFFFFFFFFFFFFFFFFFFFFFFFFFFFFFFF AND EQ DUP1 PUSH2 0xD90 JUMPI POP PUSH2 0xD8F DUP2 DUP6 PUSH2 0xACE JUMP JUMPDEST JUMPDEST DUP1 PUSH2 0xDCE JUMPI POP DUP4 PUSH20 0xFFFFFFFFFFFFFFFFFFFFFFFFFFFFFFFFFFFFFFFF AND PUSH2 0xDB6 DUP5 PUSH2 0x4F7 JUMP JUMPDEST PUSH20 0xFFFFFFFFFFFFFFFFFFFFFFFFFFFFFFFFFFFFFFFF AND EQ JUMPDEST SWAP2 POP POP SWAP3 SWAP2 POP POP JUMP JUMPDEST DUP3 PUSH20 0xFFFFFFFFFFFFFFFFFFFFFFFFFFFFFFFFFFFFFFFF AND PUSH2 0xDF7 DUP3 PUSH2 0x73B JUMP JUMPDEST PUSH20 0xFFFFFFFFFFFFFFFFFFFFFFFFFFFFFFFFFFFFFFFF AND EQ PUSH2 0xE4D JUMPI PUSH1 0x40 MLOAD PUSH32 0x8C379A000000000000000000000000000000000000000000000000000000000 DUP2 MSTORE PUSH1 0x4 ADD PUSH2 0xE44 SWAP1 PUSH2 0x1BC2 JUMP JUMPDEST PUSH1 0x40 MLOAD DUP1 SWAP2 SUB SWAP1 REVERT JUMPDEST PUSH1 0x0 PUSH20 0xFFFFFFFFFFFFFFFFFFFFFFFFFFFFFFFFFFFFFFFF AND DUP3 PUSH20 0xFFFFFFFFFFFFFFFFFFFFFFFFFFFFFFFFFFFFFFFF AND EQ ISZERO PUSH2 0xEBD JUMPI PUSH1 0x40 MLOAD PUSH32 0x8C379A000000000000000000000000000000000000000000000000000000000 DUP2 MSTORE PUSH1 0x4 ADD PUSH2 0xEB4 SWAP1 PUSH2 0x1BE2 JUMP JUMPDEST PUSH1 0x40 MLOAD DUP1 SWAP2 SUB SWAP1 REVERT JUMPDEST PUSH2 0xEC8 DUP4 DUP4 DUP4 PUSH2 0x137F JUMP JUMPDEST PUSH2 0xED3 PUSH1 0x0 DUP3 PUSH2 0xC40 JUMP JUMPDEST PUSH1 0x1 PUSH1 0x3 PUSH1 0x0 DUP6 PUSH20 0xFFFFFFFFFFFFFFFFFFFFFFFFFFFFFFFFFFFFFFFF AND PUSH20 0xFFFFFFFFFFFFFFFFFFFFFFFFFFFFFFFFFFFFFFFF AND DUP2 MSTORE PUSH1 0x20 ADD SWAP1 DUP2 MSTORE PUSH1 0x20 ADD PUSH1 0x0 KECCAK256 PUSH1 0x0 DUP3 DUP3 SLOAD PUSH2 0xF23 SWAP2 SWAP1 PUSH2 0x1E5D JUMP JUMPDEST SWAP3 POP POP DUP2 SWAP1 SSTORE POP PUSH1 0x1 PUSH1 0x3 PUSH1 0x0 DUP5 PUSH20 0xFFFFFFFFFFFFFFFFFFFFFFFFFFFFFFFFFFFFFFFF AND PUSH20 0xFFFFFFFFFFFFFFFFFFFFFFFFFFFFFFFFFFFFFFFF AND DUP2 MSTORE PUSH1 0x20 ADD SWAP1 DUP2 MSTORE PUSH1 0x20 ADD PUSH1 0x0 KECCAK256 PUSH1 0x0 DUP3 DUP3 SLOAD PUSH2 0xF7A SWAP2 SWAP1 PUSH2 0x1DD6 JUMP JUMPDEST SWAP3 POP POP DUP2 SWAP1 SSTORE POP DUP2 PUSH1 0x2 PUSH1 0x0 DUP4 DUP2 MSTORE PUSH1 0x20 ADD SWAP1 DUP2 MSTORE PUSH1 0x20 ADD PUSH1 0x0 KECCAK256 PUSH1 0x0 PUSH2 0x100 EXP DUP2 SLOAD DUP2 PUSH20 0xFFFFFFFFFFFFFFFFFFFFFFFFFFFFFFFFFFFFFFFF MUL NOT AND SWAP1 DUP4 PUSH20 0xFFFFFFFFFFFFFFFFFFFFFFFFFFFFFFFFFFFFFFFF AND MUL OR SWAP1 SSTORE POP DUP1 DUP3 PUSH20 0xFFFFFFFFFFFFFFFFFFFFFFFFFFFFFFFFFFFFFFFF AND DUP5 PUSH20 0xFFFFFFFFFFFFFFFFFFFFFFFFFFFFFFFFFFFFFFFF AND PUSH32 0xDDF252AD1BE2C89B69C2B068FC378DAA952BA7F163C4A11628F55A4DF523B3EF PUSH1 0x40 MLOAD PUSH1 0x40 MLOAD DUP1 SWAP2 SUB SWAP1 LOG4 PUSH2 0x1039 DUP4 DUP4 DUP4 PUSH2 0x1384 JUMP JUMPDEST POP POP POP JUMP JUMPDEST DUP2 PUSH20 0xFFFFFFFFFFFFFFFFFFFFFFFFFFFFFFFFFFFFFFFF AND DUP4 PUSH20 0xFFFFFFFFFFFFFFFFFFFFFFFFFFFFFFFFFFFFFFFF AND EQ ISZERO PUSH2 0x10AD JUMPI PUSH1 0x40 MLOAD PUSH32 0x8C379A000000000000000000000000000000000000000000000000000000000 DUP2 MSTORE PUSH1 0x4 ADD PUSH2 0x10A4 SWAP1 PUSH2 0x1C02 JUMP JUMPDEST PUSH1 0x40 MLOAD DUP1 SWAP2 SUB SWAP1 REVERT JUMPDEST DUP1 PUSH1 0x5 PUSH1 0x0 DUP6 PUSH20 0xFFFFFFFFFFFFFFFFFFFFFFFFFFFFFFFFFFFFFFFF AND PUSH20 0xFFFFFFFFFFFFFFFFFFFFFFFFFFFFFFFFFFFFFFFF AND DUP2 MSTORE PUSH1 0x20 ADD SWAP1 DUP2 MSTORE PUSH1 0x20 ADD PUSH1 0x0 KECCAK256 PUSH1 0x0 DUP5 PUSH20 0xFFFFFFFFFFFFFFFFFFFFFFFFFFFFFFFFFFFFFFFF AND PUSH20 0xFFFFFFFFFFFFFFFFFFFFFFFFFFFFFFFFFFFFFFFF AND DUP2 MSTORE PUSH1 0x20 ADD SWAP1 DUP2 MSTORE PUSH1 0x20 ADD PUSH1 0x0 KECCAK256 PUSH1 0x0 PUSH2 0x100 EXP DUP2 SLOAD DUP2 PUSH1 0xFF MUL NOT AND SWAP1 DUP4 ISZERO ISZERO MUL OR SWAP1 SSTORE POP DUP2 PUSH20 0xFFFFFFFFFFFFFFFFFFFFFFFFFFFFFFFFFFFFFFFF AND DUP4 PUSH20 0xFFFFFFFFFFFFFFFFFFFFFFFFFFFFFFFFFFFFFFFF AND PUSH32 0x17307EAB39AB6107E8899845AD3D59BD9653F200F220920489CA2B5937696C31 DUP4 PUSH1 0x40 MLOAD PUSH2 0x119E SWAP2 SWAP1 PUSH2 0x1B65 JUMP JUMPDEST PUSH1 0x40 MLOAD DUP1 SWAP2 SUB SWAP1 LOG3 POP POP POP JUMP JUMPDEST PUSH2 0x11B6 DUP5 DUP5 DUP5 PUSH2 0xDD7 JUMP JUMPDEST PUSH2 0x11C2 DUP5 DUP5 DUP5 DUP5 PUSH2 0x1389 JUMP JUMPDEST PUSH2 0x1201 JUMPI PUSH1 0x40 MLOAD PUSH32 0x8C379A000000000000000000000000000000000000000000000000000000000 DUP2 MSTORE PUSH1 0x4 ADD PUSH2 0x11F8 SWAP1 PUSH2 0x1BA2 JUMP JUMPDEST PUSH1 0x40 MLOAD DUP1 SWAP2 SUB SWAP1 REVERT JUMPDEST POP POP POP POP JUMP JUMPDEST PUSH1 0x60 PUSH1 0x40 MLOAD DUP1 PUSH1 0x20 ADD PUSH1 0x40 MSTORE DUP1 PUSH1 0x0 DUP2 MSTORE POP SWAP1 POP SWAP1 JUMP JUMPDEST PUSH1 0x60 PUSH1 0x0 DUP3 EQ ISZERO PUSH2 0x1266 JUMPI PUSH1 0x40 MLOAD DUP1 PUSH1 0x40 ADD PUSH1 0x40 MSTORE DUP1 PUSH1 0x1 DUP2 MSTORE PUSH1 0x20 ADD PUSH32 0x3000000000000000000000000000000000000000000000000000000000000000 DUP2 MSTORE POP SWAP1 POP PUSH2 0x137A JUMP JUMPDEST PUSH1 0x0 DUP3 SWAP1 POP PUSH1 0x0 JUMPDEST PUSH1 0x0 DUP3 EQ PUSH2 0x1298 JUMPI DUP1 DUP1 PUSH2 0x1281 SWAP1 PUSH2 0x1FAA JUMP JUMPDEST SWAP2 POP POP PUSH1 0xA DUP3 PUSH2 0x1291 SWAP2 SWAP1 PUSH2 0x1E2C JUMP JUMPDEST SWAP2 POP PUSH2 0x126E JUMP JUMPDEST PUSH1 0x0 DUP2 PUSH8 0xFFFFFFFFFFFFFFFF DUP2 GT ISZERO PUSH2 0x12B4 JUMPI PUSH2 0x12B3 PUSH2 0x20E0 JUMP JUMPDEST JUMPDEST PUSH1 0x40 MLOAD SWAP1 DUP1 DUP3 MSTORE DUP1 PUSH1 0x1F ADD PUSH1 0x1F NOT AND PUSH1 0x20 ADD DUP3 ADD PUSH1 0x40 MSTORE DUP1 ISZERO PUSH2 0x12E6 JUMPI DUP2 PUSH1 0x20 ADD PUSH1 0x1 DUP3 MUL DUP1 CALLDATASIZE DUP4 CALLDATACOPY DUP1 DUP3 ADD SWAP2 POP POP SWAP1 POP JUMPDEST POP SWAP1 POP JUMPDEST PUSH1 0x0 DUP6 EQ PUSH2 0x1373 JUMPI PUSH1 0x1 DUP3 PUSH2 0x12FF SWAP2 SWAP1 PUSH2 0x1E5D JUMP JUMPDEST SWAP2 POP PUSH1 0xA DUP6 PUSH2 0x130E SWAP2 SWAP1 PUSH2 0x1FF3 JUMP JUMPDEST PUSH1 0x30 PUSH2 0x131A SWAP2 SWAP1 PUSH2 0x1DD6 JUMP JUMPDEST PUSH1 0xF8 SHL DUP2 DUP4 DUP2 MLOAD DUP2 LT PUSH2 0x1330 JUMPI PUSH2 0x132F PUSH2 0x20B1 JUMP JUMPDEST JUMPDEST PUSH1 0x20 ADD ADD SWAP1 PUSH31 0xFFFFFFFFFFFFFFFFFFFFFFFFFFFFFFFFFFFFFFFFFFFFFFFFFFFFFFFFFFFFFF NOT AND SWAP1 DUP2 PUSH1 0x0 BYTE SWAP1 MSTORE8 POP PUSH1 0xA DUP6 PUSH2 0x136C SWAP2 SWAP1 PUSH2 0x1E2C JUMP JUMPDEST SWAP5 POP PUSH2 0x12EA JUMP JUMPDEST DUP1 SWAP4 POP POP POP POP JUMPDEST SWAP2 SWAP1 POP JUMP JUMPDEST POP POP POP JUMP JUMPDEST POP POP POP JUMP JUMPDEST PUSH1 0x0 PUSH2 0x13AA DUP5 PUSH20 0xFFFFFFFFFFFFFFFFFFFFFFFFFFFFFFFFFFFFFFFF AND PUSH2 0x1520 JUMP JUMPDEST ISZERO PUSH2 0x1513 JUMPI DUP4 PUSH20 0xFFFFFFFFFFFFFFFFFFFFFFFFFFFFFFFFFFFFFFFF AND PUSH4 0x150B7A02 PUSH2 0x13D3 PUSH2 0xC38 JUMP JUMPDEST DUP8 DUP7 DUP7 PUSH1 0x40 MLOAD DUP6 PUSH4 0xFFFFFFFF AND PUSH1 0xE0 SHL DUP2 MSTORE PUSH1 0x4 ADD PUSH2 0x13F5 SWAP5 SWAP4 SWAP3 SWAP2 SWAP1 PUSH2 0x1B19 JUMP JUMPDEST PUSH1 0x20 PUSH1 0x40 MLOAD DUP1 DUP4 SUB DUP2 PUSH1 0x0 DUP8 DUP1 EXTCODESIZE ISZERO DUP1 ISZERO PUSH2 0x140F JUMPI PUSH1 0x0 DUP1 REVERT JUMPDEST POP GAS CALL SWAP3 POP POP POP DUP1 ISZERO PUSH2 0x1440 JUMPI POP PUSH1 0x40 MLOAD RETURNDATASIZE PUSH1 0x1F NOT PUSH1 0x1F DUP3 ADD AND DUP3 ADD DUP1 PUSH1 0x40 MSTORE POP DUP2 ADD SWAP1 PUSH2 0x143D SWAP2 SWAP1 PUSH2 0x180C JUMP JUMPDEST PUSH1 0x1 JUMPDEST PUSH2 0x14C3 JUMPI RETURNDATASIZE DUP1 PUSH1 0x0 DUP2 EQ PUSH2 0x1470 JUMPI PUSH1 0x40 MLOAD SWAP2 POP PUSH1 0x1F NOT PUSH1 0x3F RETURNDATASIZE ADD AND DUP3 ADD PUSH1 0x40 MSTORE RETURNDATASIZE DUP3 MSTORE RETURNDATASIZE PUSH1 0x0 PUSH1 0x20 DUP5 ADD RETURNDATACOPY PUSH2 0x1475 JUMP JUMPDEST PUSH1 0x60 SWAP2 POP JUMPDEST POP PUSH1 0x0 DUP2 MLOAD EQ ISZERO PUSH2 0x14BB JUMPI PUSH1 0x40 MLOAD PUSH32 0x8C379A000000000000000000000000000000000000000000000000000000000 DUP2 MSTORE PUSH1 0x4 ADD PUSH2 0x14B2 SWAP1 PUSH2 0x1BA2 JUMP JUMPDEST PUSH1 0x40 MLOAD DUP1 SWAP2 SUB SWAP1 REVERT JUMPDEST DUP1 MLOAD DUP2 PUSH1 0x20 ADD REVERT JUMPDEST PUSH4 0x150B7A02 PUSH1 0xE0 SHL PUSH28 0xFFFFFFFFFFFFFFFFFFFFFFFFFFFFFFFFFFFFFFFFFFFFFFFFFFFFFFFF NOT AND DUP2 PUSH28 0xFFFFFFFFFFFFFFFFFFFFFFFFFFFFFFFFFFFFFFFFFFFFFFFFFFFFFFFF NOT AND EQ SWAP2 POP POP PUSH2 0x1518 JUMP JUMPDEST PUSH1 0x1 SWAP1 POP JUMPDEST SWAP5 SWAP4 POP POP POP POP JUMP JUMPDEST PUSH1 0x0 DUP1 DUP3 PUSH20 0xFFFFFFFFFFFFFFFFFFFFFFFFFFFFFFFFFFFFFFFF AND EXTCODESIZE GT SWAP1 POP SWAP2 SWAP1 POP JUMP JUMPDEST PUSH1 0x0 PUSH2 0x1556 PUSH2 0x1551 DUP5 PUSH2 0x1D62 JUMP JUMPDEST PUSH2 0x1D3D JUMP JUMPDEST SWAP1 POP DUP3 DUP2 MSTORE PUSH1 0x20 DUP2 ADD DUP5 DUP5 DUP5 ADD GT ISZERO PUSH2 0x1572 JUMPI PUSH2 0x1571 PUSH2 0x2114 JUMP JUMPDEST JUMPDEST PUSH2 0x157D DUP5 DUP3 DUP6 PUSH2 0x1F05 JUMP JUMPDEST POP SWAP4 SWAP3 POP POP POP JUMP JUMPDEST PUSH1 0x0 DUP2 CALLDATALOAD SWAP1 POP PUSH2 0x1594 DUP2 PUSH2 0x24C2 JUMP JUMPDEST SWAP3 SWAP2 POP POP JUMP JUMPDEST PUSH1 0x0 DUP2 CALLDATALOAD SWAP1 POP PUSH2 0x15A9 DUP2 PUSH2 0x24D9 JUMP JUMPDEST SWAP3 SWAP2 POP POP JUMP JUMPDEST PUSH1 0x0 DUP2 CALLDATALOAD SWAP1 POP PUSH2 0x15BE DUP2 PUSH2 0x24F0 JUMP JUMPDEST SWAP3 SWAP2 POP POP JUMP JUMPDEST PUSH1 0x0 DUP2 MLOAD SWAP1 POP PUSH2 0x15D3 DUP2 PUSH2 0x24F0 JUMP JUMPDEST SWAP3 SWAP2 POP POP JUMP JUMPDEST PUSH1 0x0 DUP3 PUSH1 0x1F DUP4 ADD SLT PUSH2 0x15EE JUMPI PUSH2 0x15ED PUSH2 0x210F JUMP JUMPDEST JUMPDEST DUP2 CALLDATALOAD PUSH2 0x15FE DUP5 DUP3 PUSH1 0x20 DUP7 ADD PUSH2 0x1543 JUMP JUMPDEST SWAP2 POP POP SWAP3 SWAP2 POP POP JUMP JUMPDEST PUSH1 0x0 DUP2 CALLDATALOAD SWAP1 POP PUSH2 0x1616 DUP2 PUSH2 0x2507 JUMP JUMPDEST SWAP3 SWAP2 POP POP JUMP JUMPDEST PUSH1 0x0 PUSH1 0x20 DUP3 DUP5 SUB SLT ISZERO PUSH2 0x1632 JUMPI PUSH2 0x1631 PUSH2 0x211E JUMP JUMPDEST JUMPDEST PUSH1 0x0 PUSH2 0x1640 DUP5 DUP3 DUP6 ADD PUSH2 0x1585 JUMP JUMPDEST SWAP2 POP POP SWAP3 SWAP2 POP POP JUMP JUMPDEST PUSH1 0x0 DUP1 PUSH1 0x40 DUP4 DUP6 SUB SLT ISZERO PUSH2 0x1660 JUMPI PUSH2 0x165F PUSH2 0x211E JUMP JUMPDEST JUMPDEST PUSH1 0x0 PUSH2 0x166E DUP6 DUP3 DUP7 ADD PUSH2 0x1585 JUMP JUMPDEST SWAP3 POP POP PUSH1 0x20 PUSH2 0x167F DUP6 DUP3 DUP7 ADD PUSH2 0x1585 JUMP JUMPDEST SWAP2 POP POP SWAP3 POP SWAP3 SWAP1 POP JUMP JUMPDEST PUSH1 0x0 DUP1 PUSH1 0x0 PUSH1 0x60 DUP5 DUP7 SUB SLT ISZERO PUSH2 0x16A2 JUMPI PUSH2 0x16A1 PUSH2 0x211E JUMP JUMPDEST JUMPDEST PUSH1 0x0 PUSH2 0x16B0 DUP7 DUP3 DUP8 ADD PUSH2 0x1585 JUMP JUMPDEST SWAP4 POP POP PUSH1 0x20 PUSH2 0x16C1 DUP7 DUP3 DUP8 ADD PUSH2 0x1585 JUMP JUMPDEST SWAP3 POP POP PUSH1 0x40 PUSH2 0x16D2 DUP7 DUP3 DUP8 ADD PUSH2 0x1607 JUMP JUMPDEST SWAP2 POP POP SWAP3 POP SWAP3 POP SWAP3 JUMP JUMPDEST PUSH1 0x0 DUP1 PUSH1 0x0 DUP1 PUSH1 0x80 DUP6 DUP8 SUB SLT ISZERO PUSH2 0x16F6 JUMPI PUSH2 0x16F5 PUSH2 0x211E JUMP JUMPDEST JUMPDEST PUSH1 0x0 PUSH2 0x1704 DUP8 DUP3 DUP9 ADD PUSH2 0x1585 JUMP JUMPDEST SWAP5 POP POP PUSH1 0x20 PUSH2 0x1715 DUP8 DUP3 DUP9 ADD PUSH2 0x1585 JUMP JUMPDEST SWAP4 POP POP PUSH1 0x40 PUSH2 0x1726 DUP8 DUP3 DUP9 ADD PUSH2 0x1607 JUMP JUMPDEST SWAP3 POP POP PUSH1 0x60 DUP6 ADD CALLDATALOAD PUSH8 0xFFFFFFFFFFFFFFFF DUP2 GT ISZERO PUSH2 0x1747 JUMPI PUSH2 0x1746 PUSH2 0x2119 JUMP JUMPDEST JUMPDEST PUSH2 0x1753 DUP8 DUP3 DUP9 ADD PUSH2 0x15D9 JUMP JUMPDEST SWAP2 POP POP SWAP3 SWAP6 SWAP2 SWAP5 POP SWAP3 POP JUMP JUMPDEST PUSH1 0x0 DUP1 PUSH1 0x40 DUP4 DUP6 SUB SLT ISZERO PUSH2 0x1776 JUMPI PUSH2 0x1775 PUSH2 0x211E JUMP JUMPDEST JUMPDEST PUSH1 0x0 PUSH2 0x1784 DUP6 DUP3 DUP7 ADD PUSH2 0x1585 JUMP JUMPDEST SWAP3 POP POP PUSH1 0x20 PUSH2 0x1795 DUP6 DUP3 DUP7 ADD PUSH2 0x159A JUMP JUMPDEST SWAP2 POP POP SWAP3 POP SWAP3 SWAP1 POP JUMP JUMPDEST PUSH1 0x0 DUP1 PUSH1 0x40 DUP4 DUP6 SUB SLT ISZERO PUSH2 0x17B6 JUMPI PUSH2 0x17B5 PUSH2 0x211E JUMP JUMPDEST JUMPDEST PUSH1 0x0 PUSH2 0x17C4 DUP6 DUP3 DUP7 ADD PUSH2 0x1585 JUMP JUMPDEST SWAP3 POP POP PUSH1 0x20 PUSH2 0x17D5 DUP6 DUP3 DUP7 ADD PUSH2 0x1607 JUMP JUMPDEST SWAP2 POP POP SWAP3 POP SWAP3 SWAP1 POP JUMP JUMPDEST PUSH1 0x0 PUSH1 0x20 DUP3 DUP5 SUB SLT ISZERO PUSH2 0x17F5 JUMPI PUSH2 0x17F4 PUSH2 0x211E JUMP JUMPDEST JUMPDEST PUSH1 0x0 PUSH2 0x1803 DUP5 DUP3 DUP6 ADD PUSH2 0x15AF JUMP JUMPDEST SWAP2 POP POP SWAP3 SWAP2 POP POP JUMP JUMPDEST PUSH1 0x0 PUSH1 0x20 DUP3 DUP5 SUB SLT ISZERO PUSH2 0x1822 JUMPI PUSH2 0x1821 PUSH2 0x211E JUMP JUMPDEST JUMPDEST PUSH1 0x0 PUSH2 0x1830 DUP5 DUP3 DUP6 ADD PUSH2 0x15C4 JUMP JUMPDEST SWAP2 POP POP SWAP3 SWAP2 POP POP JUMP JUMPDEST PUSH1 0x0 PUSH1 0x20 DUP3 DUP5 SUB SLT ISZERO PUSH2 0x184F JUMPI PUSH2 0x184E PUSH2 0x211E JUMP JUMPDEST JUMPDEST PUSH1 0x0 PUSH2 0x185D DUP5 DUP3 DUP6 ADD PUSH2 0x1607 JUMP JUMPDEST SWAP2 POP POP SWAP3 SWAP2 POP POP JUMP JUMPDEST PUSH2 0x186F DUP2 PUSH2 0x1E91 JUMP JUMPDEST DUP3 MSTORE POP POP JUMP JUMPDEST PUSH2 0x187E DUP2 PUSH2 0x1EA3 JUMP JUMPDEST DUP3 MSTORE POP POP JUMP JUMPDEST PUSH1 0x0 PUSH2 0x188F DUP3 PUSH2 0x1D93 JUMP JUMPDEST PUSH2 0x1899 DUP2 DUP6 PUSH2 0x1DA9 JUMP JUMPDEST SWAP4 POP PUSH2 0x18A9 DUP2 DUP6 PUSH1 0x20 DUP7 ADD PUSH2 0x1F14 JUMP JUMPDEST PUSH2 0x18B2 DUP2 PUSH2 0x2123 JUMP JUMPDEST DUP5 ADD SWAP2 POP POP SWAP3 SWAP2 POP POP JUMP JUMPDEST PUSH1 0x0 PUSH2 0x18C8 DUP3 PUSH2 0x1D9E JUMP JUMPDEST PUSH2 0x18D2 DUP2 DUP6 PUSH2 0x1DBA JUMP JUMPDEST SWAP4 POP PUSH2 0x18E2 DUP2 DUP6 PUSH1 0x20 DUP7 ADD PUSH2 0x1F14 JUMP JUMPDEST PUSH2 0x18EB DUP2 PUSH2 0x2123 JUMP JUMPDEST DUP5 ADD SWAP2 POP POP SWAP3 SWAP2 POP POP JUMP JUMPDEST PUSH1 0x0 PUSH2 0x1901 DUP3 PUSH2 0x1D9E JUMP JUMPDEST PUSH2 0x190B DUP2 DUP6 PUSH2 0x1DCB JUMP JUMPDEST SWAP4 POP PUSH2 0x191B DUP2 DUP6 PUSH1 0x20 DUP7 ADD PUSH2 0x1F14 JUMP JUMPDEST DUP1 DUP5 ADD SWAP2 POP POP SWAP3 SWAP2 POP POP JUMP JUMPDEST PUSH1 0x0 PUSH2 0x1934 PUSH1 0x32 DUP4 PUSH2 0x1DBA JUMP JUMPDEST SWAP2 POP PUSH2 0x193F DUP3 PUSH2 0x2134 JUMP JUMPDEST PUSH1 0x40 DUP3 ADD SWAP1 POP SWAP2 SWAP1 POP JUMP JUMPDEST PUSH1 0x0 PUSH2 0x1957 PUSH1 0x25 DUP4 PUSH2 0x1DBA JUMP JUMPDEST SWAP2 POP PUSH2 0x1962 DUP3 PUSH2 0x2183 JUMP JUMPDEST PUSH1 0x40 DUP3 ADD SWAP1 POP SWAP2 SWAP1 POP JUMP JUMPDEST PUSH1 0x0 PUSH2 0x197A PUSH1 0x24 DUP4 PUSH2 0x1DBA JUMP JUMPDEST SWAP2 POP PUSH2 0x1985 DUP3 PUSH2 0x21D2 JUMP JUMPDEST PUSH1 0x40 DUP3 ADD SWAP1 POP SWAP2 SWAP1 POP JUMP JUMPDEST PUSH1 0x0 PUSH2 0x199D PUSH1 0x19 DUP4 PUSH2 0x1DBA JUMP JUMPDEST SWAP2 POP PUSH2 0x19A8 DUP3 PUSH2 0x2221 JUMP JUMPDEST PUSH1 0x20 DUP3 ADD SWAP1 POP SWAP2 SWAP1 POP JUMP JUMPDEST PUSH1 0x0 PUSH2 0x19C0 PUSH1 0x2C DUP4 PUSH2 0x1DBA JUMP JUMPDEST SWAP2 POP PUSH2 0x19CB DUP3 PUSH2 0x224A JUMP JUMPDEST PUSH1 0x40 DUP3 ADD SWAP1 POP SWAP2 SWAP1 POP JUMP JUMPDEST PUSH1 0x0 PUSH2 0x19E3 PUSH1 0x29 DUP4 PUSH2 0x1DBA JUMP JUMPDEST SWAP2 POP PUSH2 0x19EE DUP3 PUSH2 0x2299 JUMP JUMPDEST PUSH1 0x40 DUP3 ADD SWAP1 POP SWAP2 SWAP1 POP JUMP JUMPDEST PUSH1 0x0 PUSH2 0x1A06 PUSH1 0x38 DUP4 PUSH2 0x1DBA JUMP JUMPDEST SWAP2 POP PUSH2 0x1A11 DUP3 PUSH2 0x22E8 JUMP JUMPDEST PUSH1 0x40 DUP3 ADD SWAP1 POP SWAP2 SWAP1 POP JUMP JUMPDEST PUSH1 0x0 PUSH2 0x1A29 PUSH1 0x29 DUP4 PUSH2 0x1DBA JUMP JUMPDEST SWAP2 POP PUSH2 0x1A34 DUP3 PUSH2 0x2337 JUMP JUMPDEST PUSH1 0x40 DUP3 ADD SWAP1 POP SWAP2 SWAP1 POP JUMP JUMPDEST PUSH1 0x0 PUSH2 0x1A4C PUSH1 0x2C DUP4 PUSH2 0x1DBA JUMP JUMPDEST SWAP2 POP PUSH2 0x1A57 DUP3 PUSH2 0x2386 JUMP JUMPDEST PUSH1 0x40 DUP3 ADD SWAP1 POP SWAP2 SWAP1 POP JUMP JUMPDEST PUSH1 0x0 PUSH2 0x1A6F PUSH1 0x2F DUP4 PUSH2 0x1DBA JUMP JUMPDEST SWAP2 POP PUSH2 0x1A7A DUP3 PUSH2 0x23D5 JUMP JUMPDEST PUSH1 0x40 DUP3 ADD SWAP1 POP SWAP2 SWAP1 POP JUMP JUMPDEST PUSH1 0x0 PUSH2 0x1A92 PUSH1 0x21 DUP4 PUSH2 0x1DBA JUMP JUMPDEST SWAP2 POP PUSH2 0x1A9D DUP3 PUSH2 0x2424 JUMP JUMPDEST PUSH1 0x40 DUP3 ADD SWAP1 POP SWAP2 SWAP1 POP JUMP JUMPDEST PUSH1 0x0 PUSH2 0x1AB5 PUSH1 0x31 DUP4 PUSH2 0x1DBA JUMP JUMPDEST SWAP2 POP PUSH2 0x1AC0 DUP3 PUSH2 0x2473 JUMP JUMPDEST PUSH1 0x40 DUP3 ADD SWAP1 POP SWAP2 SWAP1 POP JUMP JUMPDEST PUSH2 0x1AD4 DUP2 PUSH2 0x1EFB JUMP JUMPDEST DUP3 MSTORE POP POP JUMP JUMPDEST PUSH1 0x0 PUSH2 0x1AE6 DUP3 DUP6 PUSH2 0x18F6 JUMP JUMPDEST SWAP2 POP PUSH2 0x1AF2 DUP3 DUP5 PUSH2 0x18F6 JUMP JUMPDEST SWAP2 POP DUP2 SWAP1 POP SWAP4 SWAP3 POP POP POP JUMP JUMPDEST PUSH1 0x0 PUSH1 0x20 DUP3 ADD SWAP1 POP PUSH2 0x1B13 PUSH1 0x0 DUP4 ADD DUP5 PUSH2 0x1866 JUMP JUMPDEST SWAP3 SWAP2 POP POP JUMP JUMPDEST PUSH1 0x0 PUSH1 0x80 DUP3 ADD SWAP1 POP PUSH2 0x1B2E PUSH1 0x0 DUP4 ADD DUP8 PUSH2 0x1866 JUMP JUMPDEST PUSH2 0x1B3B PUSH1 0x20 DUP4 ADD DUP7 PUSH2 0x1866 JUMP JUMPDEST PUSH2 0x1B48 PUSH1 0x40 DUP4 ADD DUP6 PUSH2 0x1ACB JUMP JUMPDEST DUP2 DUP2 SUB PUSH1 0x60 DUP4 ADD MSTORE PUSH2 0x1B5A DUP2 DUP5 PUSH2 0x1884 JUMP JUMPDEST SWAP1 POP SWAP6 SWAP5 POP POP POP POP POP JUMP JUMPDEST PUSH1 0x0 PUSH1 0x20 DUP3 ADD SWAP1 POP PUSH2 0x1B7A PUSH1 0x0 DUP4 ADD DUP5 PUSH2 0x1875 JUMP JUMPDEST SWAP3 SWAP2 POP POP JUMP JUMPDEST PUSH1 0x0 PUSH1 0x20 DUP3 ADD SWAP1 POP DUP2 DUP2 SUB PUSH1 0x0 DUP4 ADD MSTORE PUSH2 0x1B9A DUP2 DUP5 PUSH2 0x18BD JUMP JUMPDEST SWAP1 POP SWAP3 SWAP2 POP POP JUMP JUMPDEST PUSH1 0x0 PUSH1 0x20 DUP3 ADD SWAP1 POP DUP2 DUP2 SUB PUSH1 0x0 DUP4 ADD MSTORE PUSH2 0x1BBB DUP2 PUSH2 0x1927 JUMP JUMPDEST SWAP1 POP SWAP2 SWAP1 POP JUMP JUMPDEST PUSH1 0x0 PUSH1 0x20 DUP3 ADD SWAP1 POP DUP2 DUP2 SUB PUSH1 0x0 DUP4 ADD MSTORE PUSH2 0x1BDB DUP2 PUSH2 0x194A JUMP JUMPDEST SWAP1 POP SWAP2 SWAP1 POP JUMP JUMPDEST PUSH1 0x0 PUSH1 0x20 DUP3 ADD SWAP1 POP DUP2 DUP2 SUB PUSH1 0x0 DUP4 ADD MSTORE PUSH2 0x1BFB DUP2 PUSH2 0x196D JUMP JUMPDEST SWAP1 POP SWAP2 SWAP1 POP JUMP JUMPDEST PUSH1 0x0 PUSH1 0x20 DUP3 ADD SWAP1 POP DUP2 DUP2 SUB PUSH1 0x0 DUP4 ADD MSTORE PUSH2 0x1C1B DUP2 PUSH2 0x1990 JUMP JUMPDEST SWAP1 POP SWAP2 SWAP1 POP JUMP JUMPDEST PUSH1 0x0 PUSH1 0x20 DUP3 ADD SWAP1 POP DUP2 DUP2 SUB PUSH1 0x0 DUP4 ADD MSTORE PUSH2 0x1C3B DUP2 PUSH2 0x19B3 JUMP JUMPDEST SWAP1 POP SWAP2 SWAP1 POP JUMP JUMPDEST PUSH1 0x0 PUSH1 0x20 DUP3 ADD SWAP1 POP DUP2 DUP2 SUB PUSH1 0x0 DUP4 ADD MSTORE PUSH2 0x1C5B DUP2 PUSH2 0x19D6 JUMP JUMPDEST SWAP1 POP SWAP2 SWAP1 POP JUMP JUMPDEST PUSH1 0x0 PUSH1 0x20 DUP3 ADD SWAP1 POP DUP2 DUP2 SUB PUSH1 0x0 DUP4 ADD MSTORE PUSH2 0x1C7B DUP2 PUSH2 0x19F9 JUMP JUMPDEST SWAP1 POP SWAP2 SWAP1 POP JUMP JUMPDEST PUSH1 0x0 PUSH1 0x20 DUP3 ADD SWAP1 POP DUP2 DUP2 SUB PUSH1 0x0 DUP4 ADD MSTORE PUSH2 0x1C9B DUP2 PUSH2 0x1A1C JUMP JUMPDEST SWAP1 POP SWAP2 SWAP1 POP JUMP JUMPDEST PUSH1 0x0 PUSH1 0x20 DUP3 ADD SWAP1 POP DUP2 DUP2 SUB PUSH1 0x0 DUP4 ADD MSTORE PUSH2 0x1CBB DUP2 PUSH2 0x1A3F JUMP JUMPDEST SWAP1 POP SWAP2 SWAP1 POP JUMP JUMPDEST PUSH1 0x0 PUSH1 0x20 DUP3 ADD SWAP1 POP DUP2 DUP2 SUB PUSH1 0x0 DUP4 ADD MSTORE PUSH2 0x1CDB DUP2 PUSH2 0x1A62 JUMP JUMPDEST SWAP1 POP SWAP2 SWAP1 POP JUMP JUMPDEST PUSH1 0x0 PUSH1 0x20 DUP3 ADD SWAP1 POP DUP2 DUP2 SUB PUSH1 0x0 DUP4 ADD MSTORE PUSH2 0x1CFB DUP2 PUSH2 0x1A85 JUMP JUMPDEST SWAP1 POP SWAP2 SWAP1 POP JUMP JUMPDEST PUSH1 0x0 PUSH1 0x20 DUP3 ADD SWAP1 POP DUP2 DUP2 SUB PUSH1 0x0 DUP4 ADD MSTORE PUSH2 0x1D1B DUP2 PUSH2 0x1AA8 JUMP JUMPDEST SWAP1 POP SWAP2 SWAP1 POP JUMP JUMPDEST PUSH1 0x0 PUSH1 0x20 DUP3 ADD SWAP1 POP PUSH2 0x1D37 PUSH1 0x0 DUP4 ADD DUP5 PUSH2 0x1ACB JUMP JUMPDEST SWAP3 SWAP2 POP POP JUMP JUMPDEST PUSH1 0x0 PUSH2 0x1D47 PUSH2 0x1D58 JUMP JUMPDEST SWAP1 POP PUSH2 0x1D53 DUP3 DUP3 PUSH2 0x1F79 JUMP JUMPDEST SWAP2 SWAP1 POP JUMP JUMPDEST PUSH1 0x0 PUSH1 0x40 MLOAD SWAP1 POP SWAP1 JUMP JUMPDEST PUSH1 0x0 PUSH8 0xFFFFFFFFFFFFFFFF DUP3 GT ISZERO PUSH2 0x1D7D JUMPI PUSH2 0x1D7C PUSH2 0x20E0 JUMP JUMPDEST JUMPDEST PUSH2 0x1D86 DUP3 PUSH2 0x2123 JUMP JUMPDEST SWAP1 POP PUSH1 0x20 DUP2 ADD SWAP1 POP SWAP2 SWAP1 POP JUMP JUMPDEST PUSH1 0x0 DUP2 MLOAD SWAP1 POP SWAP2 SWAP1 POP JUMP JUMPDEST PUSH1 0x0 DUP2 MLOAD SWAP1 POP SWAP2 SWAP1 POP JUMP JUMPDEST PUSH1 0x0 DUP3 DUP3 MSTORE PUSH1 0x20 DUP3 ADD SWAP1 POP SWAP3 SWAP2 POP POP JUMP JUMPDEST PUSH1 0x0 DUP3 DUP3 MSTORE PUSH1 0x20 DUP3 ADD SWAP1 POP SWAP3 SWAP2 POP POP JUMP JUMPDEST PUSH1 0x0 DUP2 SWAP1 POP SWAP3 SWAP2 POP POP JUMP JUMPDEST PUSH1 0x0 PUSH2 0x1DE1 DUP3 PUSH2 0x1EFB JUMP JUMPDEST SWAP2 POP PUSH2 0x1DEC DUP4 PUSH2 0x1EFB JUMP JUMPDEST SWAP3 POP DUP3 PUSH32 0xFFFFFFFFFFFFFFFFFFFFFFFFFFFFFFFFFFFFFFFFFFFFFFFFFFFFFFFFFFFFFFFF SUB DUP3 GT ISZERO PUSH2 0x1E21 JUMPI PUSH2 0x1E20 PUSH2 0x2024 JUMP JUMPDEST JUMPDEST DUP3 DUP3 ADD SWAP1 POP SWAP3 SWAP2 POP POP JUMP JUMPDEST PUSH1 0x0 PUSH2 0x1E37 DUP3 PUSH2 0x1EFB JUMP JUMPDEST SWAP2 POP PUSH2 0x1E42 DUP4 PUSH2 0x1EFB JUMP JUMPDEST SWAP3 POP DUP3 PUSH2 0x1E52 JUMPI PUSH2 0x1E51 PUSH2 0x2053 JUMP JUMPDEST JUMPDEST DUP3 DUP3 DIV SWAP1 POP SWAP3 SWAP2 POP POP JUMP JUMPDEST PUSH1 0x0 PUSH2 0x1E68 DUP3 PUSH2 0x1EFB JUMP JUMPDEST SWAP2 POP PUSH2 0x1E73 DUP4 PUSH2 0x1EFB JUMP JUMPDEST SWAP3 POP DUP3 DUP3 LT ISZERO PUSH2 0x1E86 JUMPI PUSH2 0x1E85 PUSH2 0x2024 JUMP JUMPDEST JUMPDEST DUP3 DUP3 SUB SWAP1 POP SWAP3 SWAP2 POP POP JUMP JUMPDEST PUSH1 0x0 PUSH2 0x1E9C DUP3 PUSH2 0x1EDB JUMP JUMPDEST SWAP1 POP SWAP2 SWAP1 POP JUMP JUMPDEST PUSH1 0x0 DUP2 ISZERO ISZERO SWAP1 POP SWAP2 SWAP1 POP JUMP JUMPDEST PUSH1 0x0 PUSH32 0xFFFFFFFF00000000000000000000000000000000000000000000000000000000 DUP3 AND SWAP1 POP SWAP2 SWAP1 POP JUMP JUMPDEST PUSH1 0x0 PUSH20 0xFFFFFFFFFFFFFFFFFFFFFFFFFFFFFFFFFFFFFFFF DUP3 AND SWAP1 POP SWAP2 SWAP1 POP JUMP JUMPDEST PUSH1 0x0 DUP2 SWAP1 POP SWAP2 SWAP1 POP JUMP JUMPDEST DUP3 DUP2 DUP4 CALLDATACOPY PUSH1 0x0 DUP4 DUP4 ADD MSTORE POP POP POP JUMP JUMPDEST PUSH1 0x0 JUMPDEST DUP4 DUP2 LT ISZERO PUSH2 0x1F32 JUMPI DUP1 DUP3 ADD MLOAD DUP2 DUP5 ADD MSTORE PUSH1 0x20 DUP2 ADD SWAP1 POP PUSH2 0x1F17 JUMP JUMPDEST DUP4 DUP2 GT ISZERO PUSH2 0x1F41 JUMPI PUSH1 0x0 DUP5 DUP5 ADD MSTORE JUMPDEST POP POP POP POP JUMP JUMPDEST PUSH1 0x0 PUSH1 0x2 DUP3 DIV SWAP1 POP PUSH1 0x1 DUP3 AND DUP1 PUSH2 0x1F5F JUMPI PUSH1 0x7F DUP3 AND SWAP2 POP JUMPDEST PUSH1 0x20 DUP3 LT DUP2 EQ ISZERO PUSH2 0x1F73 JUMPI PUSH2 0x1F72 PUSH2 0x2082 JUMP JUMPDEST JUMPDEST POP SWAP2 SWAP1 POP JUMP JUMPDEST PUSH2 0x1F82 DUP3 PUSH2 0x2123 JUMP JUMPDEST DUP2 ADD DUP2 DUP2 LT PUSH8 0xFFFFFFFFFFFFFFFF DUP3 GT OR ISZERO PUSH2 0x1FA1 JUMPI PUSH2 0x1FA0 PUSH2 0x20E0 JUMP JUMPDEST JUMPDEST DUP1 PUSH1 0x40 MSTORE POP POP POP JUMP JUMPDEST PUSH1 0x0 PUSH2 0x1FB5 DUP3 PUSH2 0x1EFB JUMP JUMPDEST SWAP2 POP PUSH32 0xFFFFFFFFFFFFFFFFFFFFFFFFFFFFFFFFFFFFFFFFFFFFFFFFFFFFFFFFFFFFFFFF DUP3 EQ ISZERO PUSH2 0x1FE8 JUMPI PUSH2 0x1FE7 PUSH2 0x2024 JUMP JUMPDEST JUMPDEST PUSH1 0x1 DUP3 ADD SWAP1 POP SWAP2 SWAP1 POP JUMP JUMPDEST PUSH1 0x0 PUSH2 0x1FFE DUP3 PUSH2 0x1EFB JUMP JUMPDEST SWAP2 POP PUSH2 0x2009 DUP4 PUSH2 0x1EFB JUMP JUMPDEST SWAP3 POP DUP3 PUSH2 0x2019 JUMPI PUSH2 0x2018 PUSH2 0x2053 JUMP JUMPDEST JUMPDEST DUP3 DUP3 MOD SWAP1 POP SWAP3 SWAP2 POP POP JUMP JUMPDEST PUSH32 0x4E487B7100000000000000000000000000000000000000000000000000000000 PUSH1 0x0 MSTORE PUSH1 0x11 PUSH1 0x4 MSTORE PUSH1 0x24 PUSH1 0x0 REVERT JUMPDEST PUSH32 0x4E487B7100000000000000000000000000000000000000000000000000000000 PUSH1 0x0 MSTORE PUSH1 0x12 PUSH1 0x4 MSTORE PUSH1 0x24 PUSH1 0x0 REVERT JUMPDEST PUSH32 0x4E487B7100000000000000000000000000000000000000000000000000000000 PUSH1 0x0 MSTORE PUSH1 0x22 PUSH1 0x4 MSTORE PUSH1 0x24 PUSH1 0x0 REVERT JUMPDEST PUSH32 0x4E487B7100000000000000000000000000000000000000000000000000000000 PUSH1 0x0 MSTORE PUSH1 0x32 PUSH1 0x4 MSTORE PUSH1 0x24 PUSH1 0x0 REVERT JUMPDEST PUSH32 0x4E487B7100000000000000000000000000000000000000000000000000000000 PUSH1 0x0 MSTORE PUSH1 0x41 PUSH1 0x4 MSTORE PUSH1 0x24 PUSH1 0x0 REVERT JUMPDEST PUSH1 0x0 DUP1 REVERT JUMPDEST PUSH1 0x0 DUP1 REVERT JUMPDEST PUSH1 0x0 DUP1 REVERT JUMPDEST PUSH1 0x0 DUP1 REVERT JUMPDEST PUSH1 0x0 PUSH1 0x1F NOT PUSH1 0x1F DUP4 ADD AND SWAP1 POP SWAP2 SWAP1 POP JUMP JUMPDEST PUSH32 0x4552433732313A207472616E7366657220746F206E6F6E204552433732315265 PUSH1 0x0 DUP3 ADD MSTORE PUSH32 0x63656976657220696D706C656D656E7465720000000000000000000000000000 PUSH1 0x20 DUP3 ADD MSTORE POP JUMP JUMPDEST PUSH32 0x4552433732313A207472616E736665722066726F6D20696E636F727265637420 PUSH1 0x0 DUP3 ADD MSTORE PUSH32 0x6F776E6572000000000000000000000000000000000000000000000000000000 PUSH1 0x20 DUP3 ADD MSTORE POP JUMP JUMPDEST PUSH32 0x4552433732313A207472616E7366657220746F20746865207A65726F20616464 PUSH1 0x0 DUP3 ADD MSTORE PUSH32 0x7265737300000000000000000000000000000000000000000000000000000000 PUSH1 0x20 DUP3 ADD MSTORE POP JUMP JUMPDEST PUSH32 0x4552433732313A20617070726F766520746F2063616C6C657200000000000000 PUSH1 0x0 DUP3 ADD MSTORE POP JUMP JUMPDEST PUSH32 0x4552433732313A206F70657261746F7220717565727920666F72206E6F6E6578 PUSH1 0x0 DUP3 ADD MSTORE PUSH32 0x697374656E7420746F6B656E0000000000000000000000000000000000000000 PUSH1 0x20 DUP3 ADD MSTORE POP JUMP JUMPDEST PUSH32 0x4552433732313A2061646472657373207A65726F206973206E6F742061207661 PUSH1 0x0 DUP3 ADD MSTORE PUSH32 0x6C6964206F776E65720000000000000000000000000000000000000000000000 PUSH1 0x20 DUP3 ADD MSTORE POP JUMP JUMPDEST PUSH32 0x4552433732313A20617070726F76652063616C6C6572206973206E6F74206F77 PUSH1 0x0 DUP3 ADD MSTORE PUSH32 0x6E6572206E6F7220617070726F76656420666F7220616C6C0000000000000000 PUSH1 0x20 DUP3 ADD MSTORE POP JUMP JUMPDEST PUSH32 0x4552433732313A206F776E657220717565727920666F72206E6F6E6578697374 PUSH1 0x0 DUP3 ADD MSTORE PUSH32 0x656E7420746F6B656E0000000000000000000000000000000000000000000000 PUSH1 0x20 DUP3 ADD MSTORE POP JUMP JUMPDEST PUSH32 0x4552433732313A20617070726F76656420717565727920666F72206E6F6E6578 PUSH1 0x0 DUP3 ADD MSTORE PUSH32 0x697374656E7420746F6B656E0000000000000000000000000000000000000000 PUSH1 0x20 DUP3 ADD MSTORE POP JUMP JUMPDEST PUSH32 0x4552433732314D657461646174613A2055524920717565727920666F72206E6F PUSH1 0x0 DUP3 ADD MSTORE PUSH32 0x6E6578697374656E7420746F6B656E0000000000000000000000000000000000 PUSH1 0x20 DUP3 ADD MSTORE POP JUMP JUMPDEST PUSH32 0x4552433732313A20617070726F76616C20746F2063757272656E74206F776E65 PUSH1 0x0 DUP3 ADD MSTORE PUSH32 0x7200000000000000000000000000000000000000000000000000000000000000 PUSH1 0x20 DUP3 ADD MSTORE POP JUMP JUMPDEST PUSH32 0x4552433732313A207472616E736665722063616C6C6572206973206E6F74206F PUSH1 0x0 DUP3 ADD MSTORE PUSH32 0x776E6572206E6F7220617070726F766564000000000000000000000000000000 PUSH1 0x20 DUP3 ADD MSTORE POP JUMP JUMPDEST PUSH2 0x24CB DUP2 PUSH2 0x1E91 JUMP JUMPDEST DUP2 EQ PUSH2 0x24D6 JUMPI PUSH1 0x0 DUP1 REVERT JUMPDEST POP JUMP JUMPDEST PUSH2 0x24E2 DUP2 PUSH2 0x1EA3 JUMP JUMPDEST DUP2 EQ PUSH2 0x24ED JUMPI PUSH1 0x0 DUP1 REVERT JUMPDEST POP JUMP JUMPDEST PUSH2 0x24F9 DUP2 PUSH2 0x1EAF JUMP JUMPDEST DUP2 EQ PUSH2 0x2504 JUMPI PUSH1 0x0 DUP1 REVERT JUMPDEST POP JUMP JUMPDEST PUSH2 0x2510 DUP2 PUSH2 0x1EFB JUMP JUMPDEST DUP2 EQ PUSH2 0x251B JUMPI PUSH1 0x0 DUP1 REVERT JUMPDEST POP JUMP INVALID LOG2 PUSH5 0x6970667358 0x22 SLT KECCAK256 COINBASE SWAP5 0x5E SWAP5 LT 0xA7 DUP13 0xBD 0x4B JUMPI 0x22 0xA8 RETURN 0x5F 0x1E PUSH30 0x212DA50F1F47AB4EF174243A8DD7645664736F6C63430008070033A26469 PUSH17 0x667358221220BAB6F5A15A24C10E4A2182 JUMP MOD 0xAF 0xC4 DUP8 0xA6 0xCD PUSH32 0x7C614B2D62F88679260D7B334A64736F6C634300080700330000000000000000 "
		},
		"gasEstimates": {
			"creation": {
				"codeDepositCost": "3235600",
				"executionCost": "infinite",
				"totalCost": "infinite"
			},
			"external": {
				"delistHouse(uint256)": "infinite",
				"getCheapHouseIds(uint256)": "infinite",
				"houses(uint256)": "2861",
				"listHouse(uint256,uint256,uint256,address,string)": "infinite"
			},
			"internal": {
				"_generateHouseId(address,uint256,string memory)": "infinite",
				"_ownerCooldown(uint256)": "22125",
				"finHouseId(uint256)": "infinite"
			}
		},
		"methodIdentifiers": {
			"delistHouse(uint256)": "3c3b0b4a",
			"getCheapHouseIds(uint256)": "c45e1b25",
			"houses(uint256)": "aeda852f",
			"listHouse(uint256,uint256,uint256,address,string)": "19161161"
		}
	},
	"abi": [
		{
			"anonymous": false,
			"inputs": [
				{
					"indexed": false,
					"internalType": "uint256",
					"name": "houseId",
					"type": "uint256"
				},
				{
					"indexed": false,
					"internalType": "address",
					"name": "_sellerAddress",
					"type": "address"
				},
				{
					"indexed": false,
					"internalType": "uint256",
					"name": "price",
					"type": "uint256"
				},
				{
					"indexed": false,
					"internalType": "uint256",
					"name": "priceDai",
					"type": "uint256"
				},
				{
					"indexed": false,
					"internalType": "string",
					"name": "houseAddress",
					"type": "string"
				}
			],
			"name": "AddNewHouse",
			"type": "event"
		},
		{
			"inputs": [
				{
					"internalType": "uint256",
					"name": "houseId",
					"type": "uint256"
				}
			],
			"name": "delistHouse",
			"outputs": [
				{
					"internalType": "string",
					"name": "",
					"type": "string"
				}
			],
			"stateMutability": "view",
			"type": "function"
		},
		{
			"inputs": [
				{
					"internalType": "uint256",
					"name": "cost",
					"type": "uint256"
				}
			],
			"name": "getCheapHouseIds",
			"outputs": [
				{
					"internalType": "uint256[]",
					"name": "",
					"type": "uint256[]"
				}
			],
			"stateMutability": "view",
			"type": "function"
		},
		{
			"inputs": [
				{
					"internalType": "uint256",
					"name": "",
					"type": "uint256"
				}
			],
			"name": "houses",
			"outputs": [
				{
					"internalType": "address",
					"name": "",
					"type": "address"
				}
			],
			"stateMutability": "view",
			"type": "function"
		},
		{
			"inputs": [
				{
					"internalType": "uint256",
					"name": "_price",
					"type": "uint256"
				},
				{
					"internalType": "uint256",
					"name": "_priceDai",
					"type": "uint256"
				},
				{
					"internalType": "uint256",
					"name": "_area",
					"type": "uint256"
				},
				{
					"internalType": "address",
					"name": "_sellerAddress",
					"type": "address"
				},
				{
					"internalType": "string",
					"name": "_houseAddress",
					"type": "string"
				}
			],
			"name": "listHouse",
			"outputs": [
				{
					"internalType": "uint256",
					"name": "",
					"type": "uint256"
				}
			],
			"stateMutability": "nonpayable",
			"type": "function"
		}
	]
}