{
	"contract/HouseRegistryExt.sol": {
		"HouseRegistryExt": {
			"abi": [
				{
					"anonymous": false,
					"inputs": [
						{
							"indexed": false,
							"internalType": "uint256",
							"name": "houseId",
							"type": "uint256"
						},
						{
							"indexed": false,
							"internalType": "address",
							"name": "_sellerAddress",
							"type": "address"
						},
						{
							"indexed": false,
							"internalType": "uint256",
							"name": "price",
							"type": "uint256"
						},
						{
							"indexed": false,
							"internalType": "string",
							"name": "houseAddress",
							"type": "string"
						}
					],
					"name": "AddNewHouse",
					"type": "event"
				},
				{
					"anonymous": false,
					"inputs": [
						{
							"indexed": true,
							"internalType": "address",
							"name": "previousOwner",
							"type": "address"
						},
						{
							"indexed": true,
							"internalType": "address",
							"name": "newOwner",
							"type": "address"
						}
					],
					"name": "OwnershipTransferred",
					"type": "event"
				},
				{
					"inputs": [
						{
							"internalType": "uint256",
							"name": "houseId",
							"type": "uint256"
						}
					],
					"name": "delistHouse",
					"outputs": [
						{
							"internalType": "string",
							"name": "",
							"type": "string"
						}
					],
					"stateMutability": "nonpayable",
					"type": "function"
				},
				{
					"inputs": [
						{
							"internalType": "uint256",
							"name": "cost",
							"type": "uint256"
						}
					],
					"name": "getCheapHouseIds",
					"outputs": [
						{
							"internalType": "uint256[]",
							"name": "",
							"type": "uint256[]"
						}
					],
					"stateMutability": "view",
					"type": "function"
				},
				{
					"inputs": [
						{
							"internalType": "uint256",
							"name": "",
							"type": "uint256"
						}
					],
					"name": "houses",
					"outputs": [
						{
							"internalType": "uint256",
							"name": "id",
							"type": "uint256"
						},
						{
							"internalType": "uint256",
							"name": "serialNumber",
							"type": "uint256"
						},
						{
							"internalType": "uint256",
							"name": "price",
							"type": "uint256"
						},
						{
							"internalType": "uint256",
							"name": "area",
							"type": "uint256"
						},
						{
							"internalType": "address",
							"name": "sellerAddress",
							"type": "address"
						},
						{
							"internalType": "string",
							"name": "houseAddress",
							"type": "string"
						},
						{
							"internalType": "bool",
							"name": "isdelistedHouse",
							"type": "bool"
						}
					],
					"stateMutability": "view",
					"type": "function"
				},
				{
					"inputs": [
						{
							"internalType": "uint256",
							"name": "_price",
							"type": "uint256"
						},
						{
							"internalType": "uint256",
							"name": "_area",
							"type": "uint256"
						},
						{
							"internalType": "address",
							"name": "_sellerAddress",
							"type": "address"
						},
						{
							"internalType": "string",
							"name": "_houseAddress",
							"type": "string"
						}
					],
					"name": "listHouse",
					"outputs": [
						{
							"internalType": "uint256",
							"name": "",
							"type": "uint256"
						}
					],
					"stateMutability": "nonpayable",
					"type": "function"
				},
				{
					"inputs": [
						{
							"internalType": "uint256",
							"name": "_price",
							"type": "uint256"
						},
						{
							"internalType": "uint256",
							"name": "_area",
							"type": "uint256"
						},
						{
							"internalType": "string",
							"name": "_houseAddress",
							"type": "string"
						}
					],
					"name": "listHouseSimple",
					"outputs": [],
					"stateMutability": "nonpayable",
					"type": "function"
				},
				{
					"inputs": [],
					"name": "owner",
					"outputs": [
						{
							"internalType": "address",
							"name": "",
							"type": "address"
						}
					],
					"stateMutability": "view",
					"type": "function"
				},
				{
					"inputs": [],
					"name": "renounceOwnership",
					"outputs": [],
					"stateMutability": "nonpayable",
					"type": "function"
				},
				{
					"inputs": [
						{
							"internalType": "address",
							"name": "newOwner",
							"type": "address"
						}
					],
					"name": "transferOwnership",
					"outputs": [],
					"stateMutability": "nonpayable",
					"type": "function"
				}
			],
			"devdoc": {
				"kind": "dev",
				"methods": {
					"owner()": {
						"details": "Returns the address of the current owner."
					},
					"renounceOwnership()": {
						"details": "Leaves the contract without owner. It will not be possible to call `onlyOwner` functions anymore. Can only be called by the current owner. NOTE: Renouncing ownership will leave the contract without an owner, thereby removing any functionality that is only available to the owner."
					},
					"transferOwnership(address)": {
						"details": "Transfers ownership of the contract to a new account (`newOwner`). Can only be called by the current owner."
					}
				},
				"version": 1
			},
			"evm": {
				"assembly": "    /* \"contract/HouseRegistryExt.sol\":99:321  contract HouseRegistryExt is HouseRegistry {\r... */\n  mstore(0x40, 0x80)\n    /* \"contract/HouseRegistry.sol\":142:143  5 */\n  0x05\n    /* \"contract/HouseRegistry.sol\":128:143  uint digits = 5 */\n  0x02\n  sstore\n    /* \"contract/HouseRegistry.sol\":170:176  digits */\n  sload(0x02)\n    /* \"contract/HouseRegistry.sol\":164:166  10 */\n  0x0a\n    /* \"contract/HouseRegistry.sol\":164:176  10 ** digits */\n  tag_1\n  swap2\n  swap1\n  tag_2\n  jump\t// in\ntag_1:\n    /* \"contract/HouseRegistry.sol\":149:176  uint modulus = 10 ** digits */\n  0x03\n  sstore\n    /* \"contract/HouseRegistry.sol\":202:211  1 seconds */\n  0x01\n    /* \"contract/HouseRegistry.sol\":182:211  uint cooldownTime = 1 seconds */\n  0x04\n  sstore\n    /* \"contract/HouseRegistry.sol\":238:239  1 */\n  0x01\n    /* \"contract/HouseRegistry.sol\":217:239  uint countOfHouses = 1 */\n  0x05\n  sstore\n    /* \"contract/HouseRegistryExt.sol\":99:321  contract HouseRegistryExt is HouseRegistry {\r... */\n  callvalue\n  dup1\n  iszero\n  tag_3\n  jumpi\n  0x00\n  dup1\n  revert\ntag_3:\n  pop\n    /* \"contract/Ownable.sol\":984:1016  _transferOwnership(_msgSender()) */\n  tag_6\n    /* \"contract/Ownable.sol\":1003:1015  _msgSender() */\n  tag_7\n    /* \"contract/Ownable.sol\":1003:1013  _msgSender */\n  shl(0x20, tag_8)\n    /* \"contract/Ownable.sol\":1003:1015  _msgSender() */\n  0x20\n  shr\n  jump\t// in\ntag_7:\n    /* \"contract/Ownable.sol\":984:1002  _transferOwnership */\n  shl(0x20, tag_9)\n    /* \"contract/Ownable.sol\":984:1016  _transferOwnership(_msgSender()) */\n  0x20\n  shr\n  jump\t// in\ntag_6:\n    /* \"contract/HouseRegistryExt.sol\":99:321  contract HouseRegistryExt is HouseRegistry {\r... */\n  jump(tag_10)\n    /* \"contract/utils/Context.sol\":656:754  function _msgSender() internal view virtual returns (address) {\r... */\ntag_8:\n    /* \"contract/utils/Context.sol\":709:716  address */\n  0x00\n    /* \"contract/utils/Context.sol\":736:746  msg.sender */\n  caller\n    /* \"contract/utils/Context.sol\":729:746  return msg.sender */\n  swap1\n  pop\n    /* \"contract/utils/Context.sol\":656:754  function _msgSender() internal view virtual returns (address) {\r... */\n  swap1\n  jump\t// out\n    /* \"contract/Ownable.sol\":2520:2711  function _transferOwnership(address newOwner) internal virtual {\r... */\ntag_9:\n    /* \"contract/Ownable.sol\":2594:2610  address oldOwner */\n  0x00\n    /* \"contract/Ownable.sol\":2613:2619  _owner */\n  dup1\n  0x00\n  swap1\n  sload\n  swap1\n  0x0100\n  exp\n  swap1\n  div\n  0xffffffffffffffffffffffffffffffffffffffff\n  and\n    /* \"contract/Ownable.sol\":2594:2619  address oldOwner = _owner */\n  swap1\n  pop\n    /* \"contract/Ownable.sol\":2639:2647  newOwner */\n  dup2\n    /* \"contract/Ownable.sol\":2630:2636  _owner */\n  0x00\n  dup1\n    /* \"contract/Ownable.sol\":2630:2647  _owner = newOwner */\n  0x0100\n  exp\n  dup2\n  sload\n  dup2\n  0xffffffffffffffffffffffffffffffffffffffff\n  mul\n  not\n  and\n  swap1\n  dup4\n  0xffffffffffffffffffffffffffffffffffffffff\n  and\n  mul\n  or\n  swap1\n  sstore\n  pop\n    /* \"contract/Ownable.sol\":2694:2702  newOwner */\n  dup2\n    /* \"contract/Ownable.sol\":2663:2703  OwnershipTransferred(oldOwner, newOwner) */\n  0xffffffffffffffffffffffffffffffffffffffff\n  and\n    /* \"contract/Ownable.sol\":2684:2692  oldOwner */\n  dup2\n    /* \"contract/Ownable.sol\":2663:2703  OwnershipTransferred(oldOwner, newOwner) */\n  0xffffffffffffffffffffffffffffffffffffffff\n  and\n  0x8be0079c531659141344cd1fd0a4f28419497f9722a3daafe3b4186f6b6457e0\n  mload(0x40)\n  mload(0x40)\n  dup1\n  swap2\n  sub\n  swap1\n  log3\n    /* \"contract/Ownable.sol\":2583:2711  {\r... */\n  pop\n    /* \"contract/Ownable.sol\":2520:2711  function _transferOwnership(address newOwner) internal virtual {\r... */\n  pop\n  jump\t// out\n    /* \"#utility.yul\":7:855   */\ntag_14:\n    /* \"#utility.yul\":68:73   */\n  0x00\n    /* \"#utility.yul\":75:79   */\n  dup1\n    /* \"#utility.yul\":99:105   */\n  dup3\n    /* \"#utility.yul\":90:105   */\n  swap2\n  pop\n    /* \"#utility.yul\":123:128   */\n  dup4\n    /* \"#utility.yul\":114:128   */\n  swap1\n  pop\n    /* \"#utility.yul\":137:849   */\ntag_16:\n    /* \"#utility.yul\":158:159   */\n  0x01\n    /* \"#utility.yul\":148:156   */\n  dup6\n    /* \"#utility.yul\":145:160   */\n  gt\n    /* \"#utility.yul\":137:849   */\n  iszero\n  tag_18\n  jumpi\n    /* \"#utility.yul\":253:257   */\n  dup1\n    /* \"#utility.yul\":248:251   */\n  dup7\n    /* \"#utility.yul\":244:258   */\n  div\n    /* \"#utility.yul\":238:242   */\n  dup2\n    /* \"#utility.yul\":235:259   */\n  gt\n    /* \"#utility.yul\":232:282   */\n  iszero\n  tag_19\n  jumpi\n    /* \"#utility.yul\":262:280   */\n  tag_20\n  tag_21\n  jump\t// in\ntag_20:\n    /* \"#utility.yul\":232:282   */\ntag_19:\n    /* \"#utility.yul\":312:313   */\n  0x01\n    /* \"#utility.yul\":302:310   */\n  dup6\n    /* \"#utility.yul\":298:314   */\n  and\n    /* \"#utility.yul\":295:746   */\n  iszero\n  tag_22\n  jumpi\n    /* \"#utility.yul\":727:731   */\n  dup1\n    /* \"#utility.yul\":720:725   */\n  dup3\n    /* \"#utility.yul\":716:732   */\n  mul\n    /* \"#utility.yul\":707:732   */\n  swap2\n  pop\n    /* \"#utility.yul\":295:746   */\ntag_22:\n    /* \"#utility.yul\":777:781   */\n  dup1\n    /* \"#utility.yul\":771:775   */\n  dup2\n    /* \"#utility.yul\":767:782   */\n  mul\n    /* \"#utility.yul\":759:782   */\n  swap1\n  pop\n    /* \"#utility.yul\":807:839   */\n  tag_23\n    /* \"#utility.yul\":830:838   */\n  dup6\n    /* \"#utility.yul\":807:839   */\n  tag_24\n  jump\t// in\ntag_23:\n    /* \"#utility.yul\":795:839   */\n  swap5\n  pop\n    /* \"#utility.yul\":137:849   */\n  jump(tag_16)\ntag_18:\n    /* \"#utility.yul\":7:855   */\n  swap5\n  pop\n  swap5\n  swap3\n  pop\n  pop\n  pop\n  jump\t// out\n    /* \"#utility.yul\":861:1146   */\ntag_2:\n    /* \"#utility.yul\":921:926   */\n  0x00\n    /* \"#utility.yul\":945:968   */\n  tag_26\n    /* \"#utility.yul\":963:967   */\n  dup3\n    /* \"#utility.yul\":945:968   */\n  tag_27\n  jump\t// in\ntag_26:\n    /* \"#utility.yul\":937:968   */\n  swap2\n  pop\n    /* \"#utility.yul\":989:1016   */\n  tag_28\n    /* \"#utility.yul\":1007:1015   */\n  dup4\n    /* \"#utility.yul\":989:1016   */\n  tag_27\n  jump\t// in\ntag_28:\n    /* \"#utility.yul\":977:1016   */\n  swap3\n  pop\n    /* \"#utility.yul\":1035:1139   */\n  tag_29\n    /* \"#utility.yul\":1072:1138   */\n  0xffffffffffffffffffffffffffffffffffffffffffffffffffffffffffffffff\n    /* \"#utility.yul\":1062:1070   */\n  dup5\n    /* \"#utility.yul\":1056:1060   */\n  dup5\n    /* \"#utility.yul\":1035:1139   */\n  tag_30\n  jump\t// in\ntag_29:\n    /* \"#utility.yul\":1026:1139   */\n  swap1\n  pop\n    /* \"#utility.yul\":861:1146   */\n  swap3\n  swap2\n  pop\n  pop\n  jump\t// out\n    /* \"#utility.yul\":1152:2225   */\ntag_30:\n    /* \"#utility.yul\":1206:1211   */\n  0x00\n    /* \"#utility.yul\":1397:1405   */\n  dup3\n    /* \"#utility.yul\":1387:1427   */\n  tag_32\n  jumpi\n    /* \"#utility.yul\":1418:1419   */\n  0x01\n    /* \"#utility.yul\":1409:1419   */\n  swap1\n  pop\n    /* \"#utility.yul\":1420:1425   */\n  jump(tag_31)\n    /* \"#utility.yul\":1387:1427   */\ntag_32:\n    /* \"#utility.yul\":1446:1450   */\n  dup2\n    /* \"#utility.yul\":1436:1472   */\n  tag_33\n  jumpi\n    /* \"#utility.yul\":1463:1464   */\n  0x00\n    /* \"#utility.yul\":1454:1464   */\n  swap1\n  pop\n    /* \"#utility.yul\":1465:1470   */\n  jump(tag_31)\n    /* \"#utility.yul\":1436:1472   */\ntag_33:\n    /* \"#utility.yul\":1532:1536   */\n  dup2\n    /* \"#utility.yul\":1580:1581   */\n  0x01\n    /* \"#utility.yul\":1575:1602   */\n  dup2\n  eq\n  tag_35\n  jumpi\n    /* \"#utility.yul\":1616:1617   */\n  0x02\n    /* \"#utility.yul\":1611:1802   */\n  dup2\n  eq\n  tag_36\n  jumpi\n    /* \"#utility.yul\":1525:1802   */\n  jump(tag_34)\n    /* \"#utility.yul\":1575:1602   */\ntag_35:\n    /* \"#utility.yul\":1593:1594   */\n  0x01\n    /* \"#utility.yul\":1584:1594   */\n  swap2\n  pop\n    /* \"#utility.yul\":1595:1600   */\n  pop\n  jump(tag_31)\n    /* \"#utility.yul\":1611:1802   */\ntag_36:\n    /* \"#utility.yul\":1656:1659   */\n  0xff\n    /* \"#utility.yul\":1646:1654   */\n  dup5\n    /* \"#utility.yul\":1643:1660   */\n  gt\n    /* \"#utility.yul\":1640:1683   */\n  iszero\n  tag_37\n  jumpi\n    /* \"#utility.yul\":1663:1681   */\n  tag_38\n  tag_21\n  jump\t// in\ntag_38:\n    /* \"#utility.yul\":1640:1683   */\ntag_37:\n    /* \"#utility.yul\":1712:1720   */\n  dup4\n    /* \"#utility.yul\":1709:1710   */\n  0x02\n    /* \"#utility.yul\":1705:1721   */\n  exp\n    /* \"#utility.yul\":1696:1721   */\n  swap2\n  pop\n    /* \"#utility.yul\":1747:1750   */\n  dup5\n    /* \"#utility.yul\":1740:1745   */\n  dup3\n    /* \"#utility.yul\":1737:1751   */\n  gt\n    /* \"#utility.yul\":1734:1774   */\n  iszero\n  tag_39\n  jumpi\n    /* \"#utility.yul\":1754:1772   */\n  tag_40\n  tag_21\n  jump\t// in\ntag_40:\n    /* \"#utility.yul\":1734:1774   */\ntag_39:\n    /* \"#utility.yul\":1787:1792   */\n  pop\n  jump(tag_31)\n    /* \"#utility.yul\":1525:1802   */\ntag_34:\n  pop\n    /* \"#utility.yul\":1911:1913   */\n  0x20\n    /* \"#utility.yul\":1901:1909   */\n  dup4\n    /* \"#utility.yul\":1898:1914   */\n  lt\n    /* \"#utility.yul\":1892:1895   */\n  0x0133\n    /* \"#utility.yul\":1886:1890   */\n  dup4\n    /* \"#utility.yul\":1883:1896   */\n  lt\n    /* \"#utility.yul\":1879:1915   */\n  and\n    /* \"#utility.yul\":1861:1863   */\n  0x4e\n    /* \"#utility.yul\":1851:1859   */\n  dup5\n    /* \"#utility.yul\":1848:1864   */\n  lt\n    /* \"#utility.yul\":1843:1845   */\n  0x0b\n    /* \"#utility.yul\":1837:1841   */\n  dup5\n    /* \"#utility.yul\":1834:1846   */\n  lt\n    /* \"#utility.yul\":1830:1865   */\n  and\n    /* \"#utility.yul\":1814:1925   */\n  or\n    /* \"#utility.yul\":1811:2057   */\n  iszero\n  tag_41\n  jumpi\n    /* \"#utility.yul\":1967:1975   */\n  dup3\n    /* \"#utility.yul\":1961:1965   */\n  dup3\n    /* \"#utility.yul\":1957:1976   */\n  exp\n    /* \"#utility.yul\":1948:1976   */\n  swap1\n  pop\n    /* \"#utility.yul\":2002:2005   */\n  dup4\n    /* \"#utility.yul\":1995:2000   */\n  dup2\n    /* \"#utility.yul\":1992:2006   */\n  gt\n    /* \"#utility.yul\":1989:2029   */\n  iszero\n  tag_42\n  jumpi\n    /* \"#utility.yul\":2009:2027   */\n  tag_43\n  tag_21\n  jump\t// in\ntag_43:\n    /* \"#utility.yul\":1989:2029   */\ntag_42:\n    /* \"#utility.yul\":2042:2047   */\n  jump(tag_31)\n    /* \"#utility.yul\":1811:2057   */\ntag_41:\n    /* \"#utility.yul\":2082:2124   */\n  tag_44\n    /* \"#utility.yul\":2120:2123   */\n  dup5\n    /* \"#utility.yul\":2110:2118   */\n  dup5\n    /* \"#utility.yul\":2104:2108   */\n  dup5\n    /* \"#utility.yul\":2101:2102   */\n  0x01\n    /* \"#utility.yul\":2082:2124   */\n  tag_14\n  jump\t// in\ntag_44:\n    /* \"#utility.yul\":2067:2124   */\n  swap3\n  pop\n  swap1\n  pop\n    /* \"#utility.yul\":2156:2160   */\n  dup2\n    /* \"#utility.yul\":2151:2154   */\n  dup5\n    /* \"#utility.yul\":2147:2161   */\n  div\n    /* \"#utility.yul\":2140:2145   */\n  dup2\n    /* \"#utility.yul\":2137:2162   */\n  gt\n    /* \"#utility.yul\":2134:2185   */\n  iszero\n  tag_45\n  jumpi\n    /* \"#utility.yul\":2165:2183   */\n  tag_46\n  tag_21\n  jump\t// in\ntag_46:\n    /* \"#utility.yul\":2134:2185   */\ntag_45:\n    /* \"#utility.yul\":2214:2218   */\n  dup2\n    /* \"#utility.yul\":2207:2212   */\n  dup2\n    /* \"#utility.yul\":2203:2219   */\n  mul\n    /* \"#utility.yul\":2194:2219   */\n  swap1\n  pop\n    /* \"#utility.yul\":1152:2225   */\ntag_31:\n  swap4\n  swap3\n  pop\n  pop\n  pop\n  jump\t// out\n    /* \"#utility.yul\":2231:2308   */\ntag_27:\n    /* \"#utility.yul\":2268:2275   */\n  0x00\n    /* \"#utility.yul\":2297:2302   */\n  dup2\n    /* \"#utility.yul\":2286:2302   */\n  swap1\n  pop\n    /* \"#utility.yul\":2231:2308   */\n  swap2\n  swap1\n  pop\n  jump\t// out\n    /* \"#utility.yul\":2314:2494   */\ntag_21:\n    /* \"#utility.yul\":2362:2439   */\n  0x4e487b7100000000000000000000000000000000000000000000000000000000\n    /* \"#utility.yul\":2359:2360   */\n  0x00\n    /* \"#utility.yul\":2352:2440   */\n  mstore\n    /* \"#utility.yul\":2459:2463   */\n  0x11\n    /* \"#utility.yul\":2456:2457   */\n  0x04\n    /* \"#utility.yul\":2449:2464   */\n  mstore\n    /* \"#utility.yul\":2483:2487   */\n  0x24\n    /* \"#utility.yul\":2480:2481   */\n  0x00\n    /* \"#utility.yul\":2473:2488   */\n  revert\n    /* \"#utility.yul\":2500:2602   */\ntag_24:\n    /* \"#utility.yul\":2542:2550   */\n  0x00\n    /* \"#utility.yul\":2589:2594   */\n  dup2\n    /* \"#utility.yul\":2586:2587   */\n  0x01\n    /* \"#utility.yul\":2582:2595   */\n  shr\n    /* \"#utility.yul\":2561:2595   */\n  swap1\n  pop\n    /* \"#utility.yul\":2500:2602   */\n  swap2\n  swap1\n  pop\n  jump\t// out\n    /* \"contract/HouseRegistryExt.sol\":99:321  contract HouseRegistryExt is HouseRegistry {\r... */\ntag_10:\n  dataSize(sub_0)\n  dup1\n  dataOffset(sub_0)\n  0x00\n  codecopy\n  0x00\n  return\nstop\n\nsub_0: assembly {\n        /* \"contract/HouseRegistryExt.sol\":99:321  contract HouseRegistryExt is HouseRegistry {\r... */\n      mstore(0x40, 0x80)\n      callvalue\n      dup1\n      iszero\n      tag_1\n      jumpi\n      0x00\n      dup1\n      revert\n    tag_1:\n      pop\n      jumpi(tag_2, lt(calldatasize, 0x04))\n      shr(0xe0, calldataload(0x00))\n      dup1\n      0xaeda852f\n      gt\n      tag_11\n      jumpi\n      dup1\n      0xaeda852f\n      eq\n      tag_7\n      jumpi\n      dup1\n      0xbe40a73e\n      eq\n      tag_8\n      jumpi\n      dup1\n      0xc45e1b25\n      eq\n      tag_9\n      jumpi\n      dup1\n      0xf2fde38b\n      eq\n      tag_10\n      jumpi\n      jump(tag_2)\n    tag_11:\n      dup1\n      0x3c3b0b4a\n      eq\n      tag_3\n      jumpi\n      dup1\n      0x715018a6\n      eq\n      tag_4\n      jumpi\n      dup1\n      0x8da5cb5b\n      eq\n      tag_5\n      jumpi\n      dup1\n      0x91bfe0d4\n      eq\n      tag_6\n      jumpi\n    tag_2:\n      0x00\n      dup1\n      revert\n        /* \"contract/HouseRegistry.sol\":1229:1498  function delistHouse(uint houseId) public returns (string memory){... */\n    tag_3:\n      tag_12\n      0x04\n      dup1\n      calldatasize\n      sub\n      dup2\n      add\n      swap1\n      tag_13\n      swap2\n      swap1\n      tag_14\n      jump\t// in\n    tag_13:\n      tag_15\n      jump\t// in\n    tag_12:\n      mload(0x40)\n      tag_16\n      swap2\n      swap1\n      tag_17\n      jump\t// in\n    tag_16:\n      mload(0x40)\n      dup1\n      swap2\n      sub\n      swap1\n      return\n        /* \"contract/Ownable.sol\":1901:2004  function renounceOwnership() public virtual onlyOwner {\r... */\n    tag_4:\n      tag_18\n      tag_19\n      jump\t// in\n    tag_18:\n      stop\n        /* \"contract/Ownable.sol\":1105:1192  function owner() public view virtual returns (address) {\r... */\n    tag_5:\n      tag_20\n      tag_21\n      jump\t// in\n    tag_20:\n      mload(0x40)\n      tag_22\n      swap2\n      swap1\n      tag_23\n      jump\t// in\n    tag_22:\n      mload(0x40)\n      dup1\n      swap2\n      sub\n      swap1\n      return\n        /* \"contract/HouseRegistry.sol\":584:1219  function listHouse (uint _price, uint _area, address _sellerAddress, string memory _houseAddress) public returns (uint) {... */\n    tag_6:\n      tag_24\n      0x04\n      dup1\n      calldatasize\n      sub\n      dup2\n      add\n      swap1\n      tag_25\n      swap2\n      swap1\n      tag_26\n      jump\t// in\n    tag_25:\n      tag_27\n      jump\t// in\n    tag_24:\n      mload(0x40)\n      tag_28\n      swap2\n      swap1\n      tag_29\n      jump\t// in\n    tag_28:\n      mload(0x40)\n      dup1\n      swap2\n      sub\n      swap1\n      return\n        /* \"contract/HouseRegistry.sol\":541:577  mapping(uint => House) public houses */\n    tag_7:\n      tag_30\n      0x04\n      dup1\n      calldatasize\n      sub\n      dup2\n      add\n      swap1\n      tag_31\n      swap2\n      swap1\n      tag_14\n      jump\t// in\n    tag_31:\n      tag_32\n      jump\t// in\n    tag_30:\n      mload(0x40)\n      tag_33\n      swap8\n      swap7\n      swap6\n      swap5\n      swap4\n      swap3\n      swap2\n      swap1\n      tag_34\n      jump\t// in\n    tag_33:\n      mload(0x40)\n      dup1\n      swap2\n      sub\n      swap1\n      return\n        /* \"contract/HouseRegistryExt.sol\":151:318  function listHouseSimple(uint _price, uint _area, string memory _houseAddress) public canOwnerAdd{\r... */\n    tag_8:\n      tag_35\n      0x04\n      dup1\n      calldatasize\n      sub\n      dup2\n      add\n      swap1\n      tag_36\n      swap2\n      swap1\n      tag_37\n      jump\t// in\n    tag_36:\n      tag_38\n      jump\t// in\n    tag_35:\n      stop\n        /* \"contract/HouseRegistry.sol\":1508:1884  function getCheapHouseIds(uint cost) external view returns (uint[] memory ){... */\n    tag_9:\n      tag_39\n      0x04\n      dup1\n      calldatasize\n      sub\n      dup2\n      add\n      swap1\n      tag_40\n      swap2\n      swap1\n      tag_14\n      jump\t// in\n    tag_40:\n      tag_41\n      jump\t// in\n    tag_39:\n      mload(0x40)\n      tag_42\n      swap2\n      swap1\n      tag_43\n      jump\t// in\n    tag_42:\n      mload(0x40)\n      dup1\n      swap2\n      sub\n      swap1\n      return\n        /* \"contract/Ownable.sol\":2159:2360  function transferOwnership(address newOwner) public virtual onlyOwner {\r... */\n    tag_10:\n      tag_44\n      0x04\n      dup1\n      calldatasize\n      sub\n      dup2\n      add\n      swap1\n      tag_45\n      swap2\n      swap1\n      tag_46\n      jump\t// in\n    tag_45:\n      tag_47\n      jump\t// in\n    tag_44:\n      stop\n        /* \"contract/HouseRegistry.sol\":1229:1498  function delistHouse(uint houseId) public returns (string memory){... */\n    tag_15:\n        /* \"contract/HouseRegistry.sol\":1280:1293  string memory */\n      0x60\n        /* \"contract/HouseRegistry.sol\":1345:1355  msg.sender */\n      caller\n        /* \"contract/HouseRegistry.sol\":1312:1355  houses[houseId].sellerAddress == msg.sender */\n      0xffffffffffffffffffffffffffffffffffffffff\n      and\n        /* \"contract/HouseRegistry.sol\":1312:1318  houses */\n      0x06\n        /* \"contract/HouseRegistry.sol\":1312:1327  houses[houseId] */\n      0x00\n        /* \"contract/HouseRegistry.sol\":1319:1326  houseId */\n      dup5\n        /* \"contract/HouseRegistry.sol\":1312:1327  houses[houseId] */\n      dup2\n      mstore\n      0x20\n      add\n      swap1\n      dup2\n      mstore\n      0x20\n      add\n      0x00\n      keccak256\n        /* \"contract/HouseRegistry.sol\":1312:1341  houses[houseId].sellerAddress */\n      0x04\n      add\n      0x00\n      swap1\n      sload\n      swap1\n      0x0100\n      exp\n      swap1\n      div\n      0xffffffffffffffffffffffffffffffffffffffff\n      and\n        /* \"contract/HouseRegistry.sol\":1312:1355  houses[houseId].sellerAddress == msg.sender */\n      0xffffffffffffffffffffffffffffffffffffffff\n      and\n      eq\n        /* \"contract/HouseRegistry.sol\":1304:1403  require(houses[houseId].sellerAddress == msg.sender, \"You do not have access to delete this house\") */\n      tag_49\n      jumpi\n      mload(0x40)\n      0x08c379a000000000000000000000000000000000000000000000000000000000\n      dup2\n      mstore\n      0x04\n      add\n      tag_50\n      swap1\n      tag_51\n      jump\t// in\n    tag_50:\n      mload(0x40)\n      dup1\n      swap2\n      sub\n      swap1\n      revert\n    tag_49:\n        /* \"contract/HouseRegistry.sol\":1447:1451  true */\n      0x01\n        /* \"contract/HouseRegistry.sol\":1413:1419  houses */\n      0x06\n        /* \"contract/HouseRegistry.sol\":1413:1428  houses[houseId] */\n      0x00\n        /* \"contract/HouseRegistry.sol\":1420:1427  houseId */\n      dup5\n        /* \"contract/HouseRegistry.sol\":1413:1428  houses[houseId] */\n      dup2\n      mstore\n      0x20\n      add\n      swap1\n      dup2\n      mstore\n      0x20\n      add\n      0x00\n      keccak256\n        /* \"contract/HouseRegistry.sol\":1413:1444  houses[houseId].isdelistedHouse */\n      0x06\n      add\n      0x00\n        /* \"contract/HouseRegistry.sol\":1413:1451  houses[houseId].isdelistedHouse = true */\n      0x0100\n      exp\n      dup2\n      sload\n      dup2\n      0xff\n      mul\n      not\n      and\n      swap1\n      dup4\n      iszero\n      iszero\n      mul\n      or\n      swap1\n      sstore\n      pop\n        /* \"contract/HouseRegistry.sol\":1461:1491  return \"delist was successful\" */\n      mload(0x40)\n      dup1\n      0x40\n      add\n      0x40\n      mstore\n      dup1\n      0x15\n      dup2\n      mstore\n      0x20\n      add\n      0x64656c69737420776173207375636365737366756c0000000000000000000000\n      dup2\n      mstore\n      pop\n      swap1\n      pop\n        /* \"contract/HouseRegistry.sol\":1229:1498  function delistHouse(uint houseId) public returns (string memory){... */\n      swap2\n      swap1\n      pop\n      jump\t// out\n        /* \"contract/Ownable.sol\":1901:2004  function renounceOwnership() public virtual onlyOwner {\r... */\n    tag_19:\n        /* \"contract/Ownable.sol\":1336:1348  _msgSender() */\n      tag_53\n        /* \"contract/Ownable.sol\":1336:1346  _msgSender */\n      tag_54\n        /* \"contract/Ownable.sol\":1336:1348  _msgSender() */\n      jump\t// in\n    tag_53:\n        /* \"contract/Ownable.sol\":1325:1348  owner() == _msgSender() */\n      0xffffffffffffffffffffffffffffffffffffffff\n      and\n        /* \"contract/Ownable.sol\":1325:1332  owner() */\n      tag_55\n        /* \"contract/Ownable.sol\":1325:1330  owner */\n      tag_21\n        /* \"contract/Ownable.sol\":1325:1332  owner() */\n      jump\t// in\n    tag_55:\n        /* \"contract/Ownable.sol\":1325:1348  owner() == _msgSender() */\n      0xffffffffffffffffffffffffffffffffffffffff\n      and\n      eq\n        /* \"contract/Ownable.sol\":1317:1385  require(owner() == _msgSender(), \"Ownable: caller is not the owner\") */\n      tag_56\n      jumpi\n      mload(0x40)\n      0x08c379a000000000000000000000000000000000000000000000000000000000\n      dup2\n      mstore\n      0x04\n      add\n      tag_57\n      swap1\n      tag_58\n      jump\t// in\n    tag_57:\n      mload(0x40)\n      dup1\n      swap2\n      sub\n      swap1\n      revert\n    tag_56:\n        /* \"contract/Ownable.sol\":1966:1996  _transferOwnership(address(0)) */\n      tag_60\n        /* \"contract/Ownable.sol\":1993:1994  0 */\n      0x00\n        /* \"contract/Ownable.sol\":1966:1984  _transferOwnership */\n      tag_61\n        /* \"contract/Ownable.sol\":1966:1996  _transferOwnership(address(0)) */\n      jump\t// in\n    tag_60:\n        /* \"contract/Ownable.sol\":1901:2004  function renounceOwnership() public virtual onlyOwner {\r... */\n      jump\t// out\n        /* \"contract/Ownable.sol\":1105:1192  function owner() public view virtual returns (address) {\r... */\n    tag_21:\n        /* \"contract/Ownable.sol\":1151:1158  address */\n      0x00\n        /* \"contract/Ownable.sol\":1178:1184  _owner */\n      dup1\n      0x00\n      swap1\n      sload\n      swap1\n      0x0100\n      exp\n      swap1\n      div\n      0xffffffffffffffffffffffffffffffffffffffff\n      and\n        /* \"contract/Ownable.sol\":1171:1184  return _owner */\n      swap1\n      pop\n        /* \"contract/Ownable.sol\":1105:1192  function owner() public view virtual returns (address) {\r... */\n      swap1\n      jump\t// out\n        /* \"contract/HouseRegistry.sol\":584:1219  function listHouse (uint _price, uint _area, address _sellerAddress, string memory _houseAddress) public returns (uint) {... */\n    tag_27:\n        /* \"contract/HouseRegistry.sol\":698:702  uint */\n      0x00\n        /* \"contract/HouseRegistry.sol\":739:740  0 */\n      dup1\n        /* \"contract/HouseRegistry.sol\":731:736  _area */\n      dup5\n        /* \"contract/HouseRegistry.sol\":722:728  _price */\n      dup7\n        /* \"contract/HouseRegistry.sol\":722:736  _price * _area */\n      tag_64\n      swap2\n      swap1\n      tag_65\n      jump\t// in\n    tag_64:\n        /* \"contract/HouseRegistry.sol\":722:740  _price * _area > 0 */\n      gt\n        /* \"contract/HouseRegistry.sol\":714:765  require(_price * _area > 0, \"value cannot be null\") */\n      tag_66\n      jumpi\n      mload(0x40)\n      0x08c379a000000000000000000000000000000000000000000000000000000000\n      dup2\n      mstore\n      0x04\n      add\n      tag_67\n      swap1\n      tag_68\n      jump\t// in\n    tag_67:\n      mload(0x40)\n      dup1\n      swap2\n      sub\n      swap1\n      revert\n    tag_66:\n        /* \"contract/HouseRegistry.sol\":775:787  uint houseId */\n      0x00\n        /* \"contract/HouseRegistry.sol\":790:844  _generateHouseId(_sellerAddress, _area, _houseAddress) */\n      tag_69\n        /* \"contract/HouseRegistry.sol\":807:821  _sellerAddress */\n      dup5\n        /* \"contract/HouseRegistry.sol\":823:828  _area */\n      dup7\n        /* \"contract/HouseRegistry.sol\":830:843  _houseAddress */\n      dup6\n        /* \"contract/HouseRegistry.sol\":790:806  _generateHouseId */\n      tag_70\n        /* \"contract/HouseRegistry.sol\":790:844  _generateHouseId(_sellerAddress, _area, _houseAddress) */\n      jump\t// in\n    tag_69:\n        /* \"contract/HouseRegistry.sol\":775:844  uint houseId = _generateHouseId(_sellerAddress, _area, _houseAddress) */\n      swap1\n      pop\n        /* \"contract/HouseRegistry.sol\":873:879  houses */\n      0x06\n        /* \"contract/HouseRegistry.sol\":873:888  houses[houseId] */\n      0x00\n        /* \"contract/HouseRegistry.sol\":880:887  houseId */\n      dup3\n        /* \"contract/HouseRegistry.sol\":873:888  houses[houseId] */\n      dup2\n      mstore\n      0x20\n      add\n      swap1\n      dup2\n      mstore\n      0x20\n      add\n      0x00\n      keccak256\n        /* \"contract/HouseRegistry.sol\":873:891  houses[houseId].id */\n      0x00\n      add\n      sload\n        /* \"contract/HouseRegistry.sol\":862:869  houseId */\n      dup2\n        /* \"contract/HouseRegistry.sol\":862:891  houseId != houses[houseId].id */\n      eq\n      iszero\n        /* \"contract/HouseRegistry.sol\":854:923  require(houseId != houses[houseId].id, \"this houseId already exists\") */\n      tag_71\n      jumpi\n      mload(0x40)\n      0x08c379a000000000000000000000000000000000000000000000000000000000\n      dup2\n      mstore\n      0x04\n      add\n      tag_72\n      swap1\n      tag_73\n      jump\t// in\n    tag_72:\n      mload(0x40)\n      dup1\n      swap2\n      sub\n      swap1\n      revert\n    tag_71:\n        /* \"contract/HouseRegistry.sol\":951:1033  House(houseId, countOfHouses, _price, _area, _sellerAddress, _houseAddress, false) */\n      mload(0x40)\n      dup1\n      0xe0\n      add\n      0x40\n      mstore\n      dup1\n        /* \"contract/HouseRegistry.sol\":957:964  houseId */\n      dup3\n        /* \"contract/HouseRegistry.sol\":951:1033  House(houseId, countOfHouses, _price, _area, _sellerAddress, _houseAddress, false) */\n      dup2\n      mstore\n      0x20\n      add\n        /* \"contract/HouseRegistry.sol\":966:979  countOfHouses */\n      sload(0x05)\n        /* \"contract/HouseRegistry.sol\":951:1033  House(houseId, countOfHouses, _price, _area, _sellerAddress, _houseAddress, false) */\n      dup2\n      mstore\n      0x20\n      add\n        /* \"contract/HouseRegistry.sol\":981:987  _price */\n      dup8\n        /* \"contract/HouseRegistry.sol\":951:1033  House(houseId, countOfHouses, _price, _area, _sellerAddress, _houseAddress, false) */\n      dup2\n      mstore\n      0x20\n      add\n        /* \"contract/HouseRegistry.sol\":989:994  _area */\n      dup7\n        /* \"contract/HouseRegistry.sol\":951:1033  House(houseId, countOfHouses, _price, _area, _sellerAddress, _houseAddress, false) */\n      dup2\n      mstore\n      0x20\n      add\n        /* \"contract/HouseRegistry.sol\":996:1010  _sellerAddress */\n      dup6\n        /* \"contract/HouseRegistry.sol\":951:1033  House(houseId, countOfHouses, _price, _area, _sellerAddress, _houseAddress, false) */\n      0xffffffffffffffffffffffffffffffffffffffff\n      and\n      dup2\n      mstore\n      0x20\n      add\n        /* \"contract/HouseRegistry.sol\":1012:1025  _houseAddress */\n      dup5\n        /* \"contract/HouseRegistry.sol\":951:1033  House(houseId, countOfHouses, _price, _area, _sellerAddress, _houseAddress, false) */\n      dup2\n      mstore\n      0x20\n      add\n        /* \"contract/HouseRegistry.sol\":1027:1032  false */\n      0x00\n        /* \"contract/HouseRegistry.sol\":951:1033  House(houseId, countOfHouses, _price, _area, _sellerAddress, _houseAddress, false) */\n      iszero\n      iszero\n      dup2\n      mstore\n      pop\n        /* \"contract/HouseRegistry.sol\":933:939  houses */\n      0x06\n        /* \"contract/HouseRegistry.sol\":933:948  houses[houseId] */\n      0x00\n        /* \"contract/HouseRegistry.sol\":940:947  houseId */\n      dup4\n        /* \"contract/HouseRegistry.sol\":933:948  houses[houseId] */\n      dup2\n      mstore\n      0x20\n      add\n      swap1\n      dup2\n      mstore\n      0x20\n      add\n      0x00\n      keccak256\n        /* \"contract/HouseRegistry.sol\":933:1033  houses[houseId] = House(houseId, countOfHouses, _price, _area, _sellerAddress, _houseAddress, false) */\n      0x00\n      dup3\n      add\n      mload\n      dup2\n      0x00\n      add\n      sstore\n      0x20\n      dup3\n      add\n      mload\n      dup2\n      0x01\n      add\n      sstore\n      0x40\n      dup3\n      add\n      mload\n      dup2\n      0x02\n      add\n      sstore\n      0x60\n      dup3\n      add\n      mload\n      dup2\n      0x03\n      add\n      sstore\n      0x80\n      dup3\n      add\n      mload\n      dup2\n      0x04\n      add\n      exp(0x0100, 0x00)\n      dup2\n      sload\n      dup2\n      0xffffffffffffffffffffffffffffffffffffffff\n      mul\n      not\n      and\n      swap1\n      dup4\n      0xffffffffffffffffffffffffffffffffffffffff\n      and\n      mul\n      or\n      swap1\n      sstore\n      pop\n      0xa0\n      dup3\n      add\n      mload\n      dup2\n      0x05\n      add\n      swap1\n      dup1\n      mload\n      swap1\n      0x20\n      add\n      swap1\n      tag_74\n      swap3\n      swap2\n      swap1\n      tag_75\n      jump\t// in\n    tag_74:\n      pop\n      0xc0\n      dup3\n      add\n      mload\n      dup2\n      0x06\n      add\n      exp(0x0100, 0x00)\n      dup2\n      sload\n      dup2\n      0xff\n      mul\n      not\n      and\n      swap1\n      dup4\n      iszero\n      iszero\n      mul\n      or\n      swap1\n      sstore\n      pop\n      swap1\n      pop\n      pop\n        /* \"contract/HouseRegistry.sol\":1043:1089  _ownerCooldown(block.timestamp + cooldownTime) */\n      tag_76\n        /* \"contract/HouseRegistry.sol\":1076:1088  cooldownTime */\n      sload(0x04)\n        /* \"contract/HouseRegistry.sol\":1058:1073  block.timestamp */\n      timestamp\n        /* \"contract/HouseRegistry.sol\":1058:1088  block.timestamp + cooldownTime */\n      tag_77\n      swap2\n      swap1\n      tag_78\n      jump\t// in\n    tag_77:\n        /* \"contract/HouseRegistry.sol\":1043:1057  _ownerCooldown */\n      tag_79\n        /* \"contract/HouseRegistry.sol\":1043:1089  _ownerCooldown(block.timestamp + cooldownTime) */\n      jump\t// in\n    tag_76:\n        /* \"contract/HouseRegistry.sol\":1099:1112  countOfHouses */\n      0x05\n      0x00\n        /* \"contract/HouseRegistry.sol\":1099:1114  countOfHouses++ */\n      dup2\n      sload\n      dup1\n      swap3\n      swap2\n      swap1\n      tag_80\n      swap1\n      tag_81\n      jump\t// in\n    tag_80:\n      swap2\n      swap1\n      pop\n      sstore\n      pop\n        /* \"contract/HouseRegistry.sol\":1129:1188  AddNewHouse(houseId, _sellerAddress, _price, _houseAddress) */\n      0x8f5afd88eb4be0ac287d87970052ce9a2b453448408e3c91a695ad7509ab7194\n        /* \"contract/HouseRegistry.sol\":1141:1148  houseId */\n      dup2\n        /* \"contract/HouseRegistry.sol\":1150:1164  _sellerAddress */\n      dup6\n        /* \"contract/HouseRegistry.sol\":1166:1172  _price */\n      dup9\n        /* \"contract/HouseRegistry.sol\":1174:1187  _houseAddress */\n      dup7\n        /* \"contract/HouseRegistry.sol\":1129:1188  AddNewHouse(houseId, _sellerAddress, _price, _houseAddress) */\n      mload(0x40)\n      tag_82\n      swap5\n      swap4\n      swap3\n      swap2\n      swap1\n      tag_83\n      jump\t// in\n    tag_82:\n      mload(0x40)\n      dup1\n      swap2\n      sub\n      swap1\n      log1\n        /* \"contract/HouseRegistry.sol\":1205:1212  houseId */\n      dup1\n        /* \"contract/HouseRegistry.sol\":1198:1212  return houseId */\n      swap2\n      pop\n      pop\n        /* \"contract/HouseRegistry.sol\":584:1219  function listHouse (uint _price, uint _area, address _sellerAddress, string memory _houseAddress) public returns (uint) {... */\n      swap5\n      swap4\n      pop\n      pop\n      pop\n      pop\n      jump\t// out\n        /* \"contract/HouseRegistry.sol\":541:577  mapping(uint => House) public houses */\n    tag_32:\n      mstore(0x20, 0x06)\n      dup1\n      0x00\n      mstore\n      keccak256(0x00, 0x40)\n      0x00\n      swap2\n      pop\n      swap1\n      pop\n      dup1\n      0x00\n      add\n      sload\n      swap1\n      dup1\n      0x01\n      add\n      sload\n      swap1\n      dup1\n      0x02\n      add\n      sload\n      swap1\n      dup1\n      0x03\n      add\n      sload\n      swap1\n      dup1\n      0x04\n      add\n      0x00\n      swap1\n      sload\n      swap1\n      0x0100\n      exp\n      swap1\n      div\n      0xffffffffffffffffffffffffffffffffffffffff\n      and\n      swap1\n      dup1\n      0x05\n      add\n      dup1\n      sload\n      tag_84\n      swap1\n      tag_85\n      jump\t// in\n    tag_84:\n      dup1\n      0x1f\n      add\n      0x20\n      dup1\n      swap2\n      div\n      mul\n      0x20\n      add\n      mload(0x40)\n      swap1\n      dup2\n      add\n      0x40\n      mstore\n      dup1\n      swap3\n      swap2\n      swap1\n      dup2\n      dup2\n      mstore\n      0x20\n      add\n      dup3\n      dup1\n      sload\n      tag_86\n      swap1\n      tag_85\n      jump\t// in\n    tag_86:\n      dup1\n      iszero\n      tag_87\n      jumpi\n      dup1\n      0x1f\n      lt\n      tag_88\n      jumpi\n      0x0100\n      dup1\n      dup4\n      sload\n      div\n      mul\n      dup4\n      mstore\n      swap2\n      0x20\n      add\n      swap2\n      jump(tag_87)\n    tag_88:\n      dup3\n      add\n      swap2\n      swap1\n      0x00\n      mstore\n      keccak256(0x00, 0x20)\n      swap1\n    tag_89:\n      dup2\n      sload\n      dup2\n      mstore\n      swap1\n      0x01\n      add\n      swap1\n      0x20\n      add\n      dup1\n      dup4\n      gt\n      tag_89\n      jumpi\n      dup3\n      swap1\n      sub\n      0x1f\n      and\n      dup3\n      add\n      swap2\n    tag_87:\n      pop\n      pop\n      pop\n      pop\n      pop\n      swap1\n      dup1\n      0x06\n      add\n      0x00\n      swap1\n      sload\n      swap1\n      0x0100\n      exp\n      swap1\n      div\n      0xff\n      and\n      swap1\n      pop\n      dup8\n      jump\t// out\n        /* \"contract/HouseRegistryExt.sol\":151:318  function listHouseSimple(uint _price, uint _area, string memory _houseAddress) public canOwnerAdd{\r... */\n    tag_38:\n        /* \"contract/Ownable.sol\":1475:1490  block.timestamp */\n      timestamp\n        /* \"contract/Ownable.sol\":1455:1471  ownerAddCooldown */\n      sload(0x01)\n        /* \"contract/Ownable.sol\":1455:1490  ownerAddCooldown <= block.timestamp */\n      gt\n      iszero\n        /* \"contract/Ownable.sol\":1447:1530  require(ownerAddCooldown <= block.timestamp, \"The owner cannot yet add a new home\") */\n      tag_91\n      jumpi\n      mload(0x40)\n      0x08c379a000000000000000000000000000000000000000000000000000000000\n      dup2\n      mstore\n      0x04\n      add\n      tag_92\n      swap1\n      tag_93\n      jump\t// in\n    tag_92:\n      mload(0x40)\n      dup1\n      swap2\n      sub\n      swap1\n      revert\n    tag_91:\n        /* \"contract/HouseRegistryExt.sol\":259:310  listHouse(_price, _area, msg.sender, _houseAddress) */\n      tag_95\n        /* \"contract/HouseRegistryExt.sol\":269:275  _price */\n      dup4\n        /* \"contract/HouseRegistryExt.sol\":277:282  _area */\n      dup4\n        /* \"contract/HouseRegistryExt.sol\":284:294  msg.sender */\n      caller\n        /* \"contract/HouseRegistryExt.sol\":296:309  _houseAddress */\n      dup5\n        /* \"contract/HouseRegistryExt.sol\":259:268  listHouse */\n      tag_27\n        /* \"contract/HouseRegistryExt.sol\":259:310  listHouse(_price, _area, msg.sender, _houseAddress) */\n      jump\t// in\n    tag_95:\n      pop\n        /* \"contract/HouseRegistryExt.sol\":151:318  function listHouseSimple(uint _price, uint _area, string memory _houseAddress) public canOwnerAdd{\r... */\n      pop\n      pop\n      pop\n      jump\t// out\n        /* \"contract/HouseRegistry.sol\":1508:1884  function getCheapHouseIds(uint cost) external view returns (uint[] memory ){... */\n    tag_41:\n        /* \"contract/HouseRegistry.sol\":1568:1581  uint[] memory */\n      0x60\n        /* \"contract/HouseRegistry.sol\":1597:1625  uint[] memory filteredHouses */\n      dup1\n        /* \"contract/HouseRegistry.sol\":1639:1649  uint count */\n      0x00\n        /* \"contract/HouseRegistry.sol\":1667:1673  uint i */\n      dup1\n        /* \"contract/HouseRegistry.sol\":1676:1677  1 */\n      0x01\n        /* \"contract/HouseRegistry.sol\":1667:1677  uint i = 1 */\n      swap1\n      pop\n        /* \"contract/HouseRegistry.sol\":1663:1847  for(uint i = 1; i <= countOfHouses; i++){... */\n    tag_97:\n        /* \"contract/HouseRegistry.sol\":1684:1697  countOfHouses */\n      sload(0x05)\n        /* \"contract/HouseRegistry.sol\":1679:1680  i */\n      dup2\n        /* \"contract/HouseRegistry.sol\":1679:1697  i <= countOfHouses */\n      gt\n        /* \"contract/HouseRegistry.sol\":1663:1847  for(uint i = 1; i <= countOfHouses; i++){... */\n      tag_98\n      jumpi\n        /* \"contract/HouseRegistry.sol\":1738:1742  cost */\n      dup5\n        /* \"contract/HouseRegistry.sol\":1720:1726  houses */\n      0x06\n        /* \"contract/HouseRegistry.sol\":1720:1729  houses[i] */\n      0x00\n        /* \"contract/HouseRegistry.sol\":1727:1728  i */\n      dup4\n        /* \"contract/HouseRegistry.sol\":1720:1729  houses[i] */\n      dup2\n      mstore\n      0x20\n      add\n      swap1\n      dup2\n      mstore\n      0x20\n      add\n      0x00\n      keccak256\n        /* \"contract/HouseRegistry.sol\":1720:1735  houses[i].price */\n      0x02\n      add\n      sload\n        /* \"contract/HouseRegistry.sol\":1720:1742  houses[i].price<= cost */\n      gt\n        /* \"contract/HouseRegistry.sol\":1717:1837  if(houses[i].price<= cost){... */\n      tag_100\n      jumpi\n        /* \"contract/HouseRegistry.sol\":1785:1791  houses */\n      0x06\n        /* \"contract/HouseRegistry.sol\":1785:1794  houses[i] */\n      0x00\n        /* \"contract/HouseRegistry.sol\":1792:1793  i */\n      dup3\n        /* \"contract/HouseRegistry.sol\":1785:1794  houses[i] */\n      dup2\n      mstore\n      0x20\n      add\n      swap1\n      dup2\n      mstore\n      0x20\n      add\n      0x00\n      keccak256\n        /* \"contract/HouseRegistry.sol\":1785:1797  houses[i].id */\n      0x00\n      add\n      sload\n        /* \"contract/HouseRegistry.sol\":1761:1775  filteredHouses */\n      dup4\n        /* \"contract/HouseRegistry.sol\":1776:1781  count */\n      dup4\n        /* \"contract/HouseRegistry.sol\":1761:1782  filteredHouses[count] */\n      dup2\n      mload\n      dup2\n      lt\n      tag_101\n      jumpi\n      tag_102\n      tag_103\n      jump\t// in\n    tag_102:\n    tag_101:\n      0x20\n      mul\n      0x20\n      add\n      add\n        /* \"contract/HouseRegistry.sol\":1761:1797  filteredHouses[count] = houses[i].id */\n      dup2\n      dup2\n      mstore\n      pop\n      pop\n        /* \"contract/HouseRegistry.sol\":1815:1822  count++ */\n      dup2\n      dup1\n      tag_104\n      swap1\n      tag_81\n      jump\t// in\n    tag_104:\n      swap3\n      pop\n      pop\n        /* \"contract/HouseRegistry.sol\":1717:1837  if(houses[i].price<= cost){... */\n    tag_100:\n        /* \"contract/HouseRegistry.sol\":1699:1702  i++ */\n      dup1\n      dup1\n      tag_105\n      swap1\n      tag_81\n      jump\t// in\n    tag_105:\n      swap2\n      pop\n      pop\n        /* \"contract/HouseRegistry.sol\":1663:1847  for(uint i = 1; i <= countOfHouses; i++){... */\n      jump(tag_97)\n    tag_98:\n      pop\n        /* \"contract/HouseRegistry.sol\":1863:1877  filteredHouses */\n      dup2\n        /* \"contract/HouseRegistry.sol\":1856:1877  return filteredHouses */\n      swap3\n      pop\n      pop\n      pop\n        /* \"contract/HouseRegistry.sol\":1508:1884  function getCheapHouseIds(uint cost) external view returns (uint[] memory ){... */\n      swap2\n      swap1\n      pop\n      jump\t// out\n        /* \"contract/Ownable.sol\":2159:2360  function transferOwnership(address newOwner) public virtual onlyOwner {\r... */\n    tag_47:\n        /* \"contract/Ownable.sol\":1336:1348  _msgSender() */\n      tag_107\n        /* \"contract/Ownable.sol\":1336:1346  _msgSender */\n      tag_54\n        /* \"contract/Ownable.sol\":1336:1348  _msgSender() */\n      jump\t// in\n    tag_107:\n        /* \"contract/Ownable.sol\":1325:1348  owner() == _msgSender() */\n      0xffffffffffffffffffffffffffffffffffffffff\n      and\n        /* \"contract/Ownable.sol\":1325:1332  owner() */\n      tag_108\n        /* \"contract/Ownable.sol\":1325:1330  owner */\n      tag_21\n        /* \"contract/Ownable.sol\":1325:1332  owner() */\n      jump\t// in\n    tag_108:\n        /* \"contract/Ownable.sol\":1325:1348  owner() == _msgSender() */\n      0xffffffffffffffffffffffffffffffffffffffff\n      and\n      eq\n        /* \"contract/Ownable.sol\":1317:1385  require(owner() == _msgSender(), \"Ownable: caller is not the owner\") */\n      tag_109\n      jumpi\n      mload(0x40)\n      0x08c379a000000000000000000000000000000000000000000000000000000000\n      dup2\n      mstore\n      0x04\n      add\n      tag_110\n      swap1\n      tag_58\n      jump\t// in\n    tag_110:\n      mload(0x40)\n      dup1\n      swap2\n      sub\n      swap1\n      revert\n    tag_109:\n        /* \"contract/Ownable.sol\":2268:2269  0 */\n      0x00\n        /* \"contract/Ownable.sol\":2248:2270  newOwner != address(0) */\n      0xffffffffffffffffffffffffffffffffffffffff\n      and\n        /* \"contract/Ownable.sol\":2248:2256  newOwner */\n      dup2\n        /* \"contract/Ownable.sol\":2248:2270  newOwner != address(0) */\n      0xffffffffffffffffffffffffffffffffffffffff\n      and\n      eq\n      iszero\n        /* \"contract/Ownable.sol\":2240:2313  require(newOwner != address(0), \"Ownable: new owner is the zero address\") */\n      tag_112\n      jumpi\n      mload(0x40)\n      0x08c379a000000000000000000000000000000000000000000000000000000000\n      dup2\n      mstore\n      0x04\n      add\n      tag_113\n      swap1\n      tag_114\n      jump\t// in\n    tag_113:\n      mload(0x40)\n      dup1\n      swap2\n      sub\n      swap1\n      revert\n    tag_112:\n        /* \"contract/Ownable.sol\":2324:2352  _transferOwnership(newOwner) */\n      tag_115\n        /* \"contract/Ownable.sol\":2343:2351  newOwner */\n      dup2\n        /* \"contract/Ownable.sol\":2324:2342  _transferOwnership */\n      tag_61\n        /* \"contract/Ownable.sol\":2324:2352  _transferOwnership(newOwner) */\n      jump\t// in\n    tag_115:\n        /* \"contract/Ownable.sol\":2159:2360  function transferOwnership(address newOwner) public virtual onlyOwner {\r... */\n      pop\n      jump\t// out\n        /* \"contract/utils/Context.sol\":656:754  function _msgSender() internal view virtual returns (address) {\r... */\n    tag_54:\n        /* \"contract/utils/Context.sol\":709:716  address */\n      0x00\n        /* \"contract/utils/Context.sol\":736:746  msg.sender */\n      caller\n        /* \"contract/utils/Context.sol\":729:746  return msg.sender */\n      swap1\n      pop\n        /* \"contract/utils/Context.sol\":656:754  function _msgSender() internal view virtual returns (address) {\r... */\n      swap1\n      jump\t// out\n        /* \"contract/Ownable.sol\":2520:2711  function _transferOwnership(address newOwner) internal virtual {\r... */\n    tag_61:\n        /* \"contract/Ownable.sol\":2594:2610  address oldOwner */\n      0x00\n        /* \"contract/Ownable.sol\":2613:2619  _owner */\n      dup1\n      0x00\n      swap1\n      sload\n      swap1\n      0x0100\n      exp\n      swap1\n      div\n      0xffffffffffffffffffffffffffffffffffffffff\n      and\n        /* \"contract/Ownable.sol\":2594:2619  address oldOwner = _owner */\n      swap1\n      pop\n        /* \"contract/Ownable.sol\":2639:2647  newOwner */\n      dup2\n        /* \"contract/Ownable.sol\":2630:2636  _owner */\n      0x00\n      dup1\n        /* \"contract/Ownable.sol\":2630:2647  _owner = newOwner */\n      0x0100\n      exp\n      dup2\n      sload\n      dup2\n      0xffffffffffffffffffffffffffffffffffffffff\n      mul\n      not\n      and\n      swap1\n      dup4\n      0xffffffffffffffffffffffffffffffffffffffff\n      and\n      mul\n      or\n      swap1\n      sstore\n      pop\n        /* \"contract/Ownable.sol\":2694:2702  newOwner */\n      dup2\n        /* \"contract/Ownable.sol\":2663:2703  OwnershipTransferred(oldOwner, newOwner) */\n      0xffffffffffffffffffffffffffffffffffffffff\n      and\n        /* \"contract/Ownable.sol\":2684:2692  oldOwner */\n      dup2\n        /* \"contract/Ownable.sol\":2663:2703  OwnershipTransferred(oldOwner, newOwner) */\n      0xffffffffffffffffffffffffffffffffffffffff\n      and\n      0x8be0079c531659141344cd1fd0a4f28419497f9722a3daafe3b4186f6b6457e0\n      mload(0x40)\n      mload(0x40)\n      dup1\n      swap2\n      sub\n      swap1\n      log3\n        /* \"contract/Ownable.sol\":2583:2711  {\r... */\n      pop\n        /* \"contract/Ownable.sol\":2520:2711  function _transferOwnership(address newOwner) internal virtual {\r... */\n      pop\n      jump\t// out\n        /* \"contract/HouseRegistry.sol\":1890:2144  function _generateHouseId(address _sellerAddress, uint _area, string memory _houseAddress) private view returns(uint){... */\n    tag_70:\n        /* \"contract/HouseRegistry.sol\":2002:2006  uint */\n      0x00\n        /* \"contract/HouseRegistry.sol\":2017:2029  uint houseId */\n      dup1\n        /* \"contract/HouseRegistry.sol\":2064:2078  _sellerAddress */\n      dup5\n        /* \"contract/HouseRegistry.sol\":2080:2085  _area */\n      dup5\n        /* \"contract/HouseRegistry.sol\":2087:2100  _houseAddress */\n      dup5\n        /* \"contract/HouseRegistry.sol\":2047:2101  abi.encodePacked(_sellerAddress, _area, _houseAddress) */\n      add(0x20, mload(0x40))\n      tag_119\n      swap4\n      swap3\n      swap2\n      swap1\n      tag_120\n      jump\t// in\n    tag_119:\n      mload(0x40)\n      0x20\n      dup2\n      dup4\n      sub\n      sub\n      dup2\n      mstore\n      swap1\n      0x40\n      mstore\n        /* \"contract/HouseRegistry.sol\":2037:2102  keccak256(abi.encodePacked(_sellerAddress, _area, _houseAddress)) */\n      dup1\n      mload\n      swap1\n      0x20\n      add\n      keccak256\n        /* \"contract/HouseRegistry.sol\":2032:2103  uint(keccak256(abi.encodePacked(_sellerAddress, _area, _houseAddress))) */\n      0x00\n      shr\n        /* \"contract/HouseRegistry.sol\":2017:2103  uint houseId = uint(keccak256(abi.encodePacked(_sellerAddress, _area, _houseAddress))) */\n      swap1\n      pop\n        /* \"contract/HouseRegistry.sol\":2130:2137  modulus */\n      sload(0x03)\n        /* \"contract/HouseRegistry.sol\":2120:2127  houseId */\n      dup2\n        /* \"contract/HouseRegistry.sol\":2120:2137  houseId % modulus */\n      tag_121\n      swap2\n      swap1\n      tag_122\n      jump\t// in\n    tag_121:\n        /* \"contract/HouseRegistry.sol\":2113:2137  return houseId % modulus */\n      swap2\n      pop\n      pop\n        /* \"contract/HouseRegistry.sol\":1890:2144  function _generateHouseId(address _sellerAddress, uint _area, string memory _houseAddress) private view returns(uint){... */\n      swap4\n      swap3\n      pop\n      pop\n      pop\n      jump\t// out\n        /* \"contract/Ownable.sol\":2719:2813  function _ownerCooldown(uint _newTime) internal {\r... */\n    tag_79:\n        /* \"contract/Ownable.sol\":2797:2805  _newTime */\n      dup1\n        /* \"contract/Ownable.sol\":2778:2794  ownerAddCooldown */\n      0x01\n        /* \"contract/Ownable.sol\":2778:2805  ownerAddCooldown = _newTime */\n      dup2\n      swap1\n      sstore\n      pop\n        /* \"contract/Ownable.sol\":2719:2813  function _ownerCooldown(uint _newTime) internal {\r... */\n      pop\n      jump\t// out\n    tag_75:\n      dup3\n      dup1\n      sload\n      tag_124\n      swap1\n      tag_85\n      jump\t// in\n    tag_124:\n      swap1\n      0x00\n      mstore\n      keccak256(0x00, 0x20)\n      swap1\n      0x1f\n      add\n      0x20\n      swap1\n      div\n      dup2\n      add\n      swap3\n      dup3\n      tag_126\n      jumpi\n      0x00\n      dup6\n      sstore\n      jump(tag_125)\n    tag_126:\n      dup3\n      0x1f\n      lt\n      tag_127\n      jumpi\n      dup1\n      mload\n      not(0xff)\n      and\n      dup4\n      dup1\n      add\n      or\n      dup6\n      sstore\n      jump(tag_125)\n    tag_127:\n      dup3\n      dup1\n      add\n      0x01\n      add\n      dup6\n      sstore\n      dup3\n      iszero\n      tag_125\n      jumpi\n      swap2\n      dup3\n      add\n    tag_128:\n      dup3\n      dup2\n      gt\n      iszero\n      tag_129\n      jumpi\n      dup3\n      mload\n      dup3\n      sstore\n      swap2\n      0x20\n      add\n      swap2\n      swap1\n      0x01\n      add\n      swap1\n      jump(tag_128)\n    tag_129:\n    tag_125:\n      pop\n      swap1\n      pop\n      tag_130\n      swap2\n      swap1\n      tag_131\n      jump\t// in\n    tag_130:\n      pop\n      swap1\n      jump\t// out\n    tag_131:\n    tag_132:\n      dup1\n      dup3\n      gt\n      iszero\n      tag_133\n      jumpi\n      0x00\n      dup2\n      0x00\n      swap1\n      sstore\n      pop\n      0x01\n      add\n      jump(tag_132)\n    tag_133:\n      pop\n      swap1\n      jump\t// out\n        /* \"#utility.yul\":7:419   */\n    tag_135:\n        /* \"#utility.yul\":85:90   */\n      0x00\n        /* \"#utility.yul\":110:176   */\n      tag_137\n        /* \"#utility.yul\":126:175   */\n      tag_138\n        /* \"#utility.yul\":168:174   */\n      dup5\n        /* \"#utility.yul\":126:175   */\n      tag_139\n      jump\t// in\n    tag_138:\n        /* \"#utility.yul\":110:176   */\n      tag_140\n      jump\t// in\n    tag_137:\n        /* \"#utility.yul\":101:176   */\n      swap1\n      pop\n        /* \"#utility.yul\":199:205   */\n      dup3\n        /* \"#utility.yul\":192:197   */\n      dup2\n        /* \"#utility.yul\":185:206   */\n      mstore\n        /* \"#utility.yul\":237:241   */\n      0x20\n        /* \"#utility.yul\":230:235   */\n      dup2\n        /* \"#utility.yul\":226:242   */\n      add\n        /* \"#utility.yul\":275:278   */\n      dup5\n        /* \"#utility.yul\":266:272   */\n      dup5\n        /* \"#utility.yul\":261:264   */\n      dup5\n        /* \"#utility.yul\":257:273   */\n      add\n        /* \"#utility.yul\":254:279   */\n      gt\n        /* \"#utility.yul\":251:363   */\n      iszero\n      tag_141\n      jumpi\n        /* \"#utility.yul\":282:361   */\n      tag_142\n      tag_143\n      jump\t// in\n    tag_142:\n        /* \"#utility.yul\":251:363   */\n    tag_141:\n        /* \"#utility.yul\":372:413   */\n      tag_144\n        /* \"#utility.yul\":406:412   */\n      dup5\n        /* \"#utility.yul\":401:404   */\n      dup3\n        /* \"#utility.yul\":396:399   */\n      dup6\n        /* \"#utility.yul\":372:413   */\n      tag_145\n      jump\t// in\n    tag_144:\n        /* \"#utility.yul\":91:419   */\n      pop\n        /* \"#utility.yul\":7:419   */\n      swap4\n      swap3\n      pop\n      pop\n      pop\n      jump\t// out\n        /* \"#utility.yul\":425:564   */\n    tag_146:\n        /* \"#utility.yul\":471:476   */\n      0x00\n        /* \"#utility.yul\":509:515   */\n      dup2\n        /* \"#utility.yul\":496:516   */\n      calldataload\n        /* \"#utility.yul\":487:516   */\n      swap1\n      pop\n        /* \"#utility.yul\":525:558   */\n      tag_148\n        /* \"#utility.yul\":552:557   */\n      dup2\n        /* \"#utility.yul\":525:558   */\n      tag_149\n      jump\t// in\n    tag_148:\n        /* \"#utility.yul\":425:564   */\n      swap3\n      swap2\n      pop\n      pop\n      jump\t// out\n        /* \"#utility.yul\":584:924   */\n    tag_150:\n        /* \"#utility.yul\":640:645   */\n      0x00\n        /* \"#utility.yul\":689:692   */\n      dup3\n        /* \"#utility.yul\":682:686   */\n      0x1f\n        /* \"#utility.yul\":674:680   */\n      dup4\n        /* \"#utility.yul\":670:687   */\n      add\n        /* \"#utility.yul\":666:693   */\n      slt\n        /* \"#utility.yul\":656:778   */\n      tag_152\n      jumpi\n        /* \"#utility.yul\":697:776   */\n      tag_153\n      tag_154\n      jump\t// in\n    tag_153:\n        /* \"#utility.yul\":656:778   */\n    tag_152:\n        /* \"#utility.yul\":814:820   */\n      dup2\n        /* \"#utility.yul\":801:821   */\n      calldataload\n        /* \"#utility.yul\":839:918   */\n      tag_155\n        /* \"#utility.yul\":914:917   */\n      dup5\n        /* \"#utility.yul\":906:912   */\n      dup3\n        /* \"#utility.yul\":899:903   */\n      0x20\n        /* \"#utility.yul\":891:897   */\n      dup7\n        /* \"#utility.yul\":887:904   */\n      add\n        /* \"#utility.yul\":839:918   */\n      tag_135\n      jump\t// in\n    tag_155:\n        /* \"#utility.yul\":830:918   */\n      swap2\n      pop\n        /* \"#utility.yul\":646:924   */\n      pop\n        /* \"#utility.yul\":584:924   */\n      swap3\n      swap2\n      pop\n      pop\n      jump\t// out\n        /* \"#utility.yul\":930:1069   */\n    tag_156:\n        /* \"#utility.yul\":976:981   */\n      0x00\n        /* \"#utility.yul\":1014:1020   */\n      dup2\n        /* \"#utility.yul\":1001:1021   */\n      calldataload\n        /* \"#utility.yul\":992:1021   */\n      swap1\n      pop\n        /* \"#utility.yul\":1030:1063   */\n      tag_158\n        /* \"#utility.yul\":1057:1062   */\n      dup2\n        /* \"#utility.yul\":1030:1063   */\n      tag_159\n      jump\t// in\n    tag_158:\n        /* \"#utility.yul\":930:1069   */\n      swap3\n      swap2\n      pop\n      pop\n      jump\t// out\n        /* \"#utility.yul\":1075:1404   */\n    tag_46:\n        /* \"#utility.yul\":1134:1140   */\n      0x00\n        /* \"#utility.yul\":1183:1185   */\n      0x20\n        /* \"#utility.yul\":1171:1180   */\n      dup3\n        /* \"#utility.yul\":1162:1169   */\n      dup5\n        /* \"#utility.yul\":1158:1181   */\n      sub\n        /* \"#utility.yul\":1154:1186   */\n      slt\n        /* \"#utility.yul\":1151:1270   */\n      iszero\n      tag_161\n      jumpi\n        /* \"#utility.yul\":1189:1268   */\n      tag_162\n      tag_163\n      jump\t// in\n    tag_162:\n        /* \"#utility.yul\":1151:1270   */\n    tag_161:\n        /* \"#utility.yul\":1309:1310   */\n      0x00\n        /* \"#utility.yul\":1334:1387   */\n      tag_164\n        /* \"#utility.yul\":1379:1386   */\n      dup5\n        /* \"#utility.yul\":1370:1376   */\n      dup3\n        /* \"#utility.yul\":1359:1368   */\n      dup6\n        /* \"#utility.yul\":1355:1377   */\n      add\n        /* \"#utility.yul\":1334:1387   */\n      tag_146\n      jump\t// in\n    tag_164:\n        /* \"#utility.yul\":1324:1387   */\n      swap2\n      pop\n        /* \"#utility.yul\":1280:1397   */\n      pop\n        /* \"#utility.yul\":1075:1404   */\n      swap3\n      swap2\n      pop\n      pop\n      jump\t// out\n        /* \"#utility.yul\":1410:1739   */\n    tag_14:\n        /* \"#utility.yul\":1469:1475   */\n      0x00\n        /* \"#utility.yul\":1518:1520   */\n      0x20\n        /* \"#utility.yul\":1506:1515   */\n      dup3\n        /* \"#utility.yul\":1497:1504   */\n      dup5\n        /* \"#utility.yul\":1493:1516   */\n      sub\n        /* \"#utility.yul\":1489:1521   */\n      slt\n        /* \"#utility.yul\":1486:1605   */\n      iszero\n      tag_166\n      jumpi\n        /* \"#utility.yul\":1524:1603   */\n      tag_167\n      tag_163\n      jump\t// in\n    tag_167:\n        /* \"#utility.yul\":1486:1605   */\n    tag_166:\n        /* \"#utility.yul\":1644:1645   */\n      0x00\n        /* \"#utility.yul\":1669:1722   */\n      tag_168\n        /* \"#utility.yul\":1714:1721   */\n      dup5\n        /* \"#utility.yul\":1705:1711   */\n      dup3\n        /* \"#utility.yul\":1694:1703   */\n      dup6\n        /* \"#utility.yul\":1690:1712   */\n      add\n        /* \"#utility.yul\":1669:1722   */\n      tag_156\n      jump\t// in\n    tag_168:\n        /* \"#utility.yul\":1659:1722   */\n      swap2\n      pop\n        /* \"#utility.yul\":1615:1732   */\n      pop\n        /* \"#utility.yul\":1410:1739   */\n      swap3\n      swap2\n      pop\n      pop\n      jump\t// out\n        /* \"#utility.yul\":1745:2690   */\n    tag_26:\n        /* \"#utility.yul\":1841:1847   */\n      0x00\n        /* \"#utility.yul\":1849:1855   */\n      dup1\n        /* \"#utility.yul\":1857:1863   */\n      0x00\n        /* \"#utility.yul\":1865:1871   */\n      dup1\n        /* \"#utility.yul\":1914:1917   */\n      0x80\n        /* \"#utility.yul\":1902:1911   */\n      dup6\n        /* \"#utility.yul\":1893:1900   */\n      dup8\n        /* \"#utility.yul\":1889:1912   */\n      sub\n        /* \"#utility.yul\":1885:1918   */\n      slt\n        /* \"#utility.yul\":1882:2002   */\n      iszero\n      tag_170\n      jumpi\n        /* \"#utility.yul\":1921:2000   */\n      tag_171\n      tag_163\n      jump\t// in\n    tag_171:\n        /* \"#utility.yul\":1882:2002   */\n    tag_170:\n        /* \"#utility.yul\":2041:2042   */\n      0x00\n        /* \"#utility.yul\":2066:2119   */\n      tag_172\n        /* \"#utility.yul\":2111:2118   */\n      dup8\n        /* \"#utility.yul\":2102:2108   */\n      dup3\n        /* \"#utility.yul\":2091:2100   */\n      dup9\n        /* \"#utility.yul\":2087:2109   */\n      add\n        /* \"#utility.yul\":2066:2119   */\n      tag_156\n      jump\t// in\n    tag_172:\n        /* \"#utility.yul\":2056:2119   */\n      swap5\n      pop\n        /* \"#utility.yul\":2012:2129   */\n      pop\n        /* \"#utility.yul\":2168:2170   */\n      0x20\n        /* \"#utility.yul\":2194:2247   */\n      tag_173\n        /* \"#utility.yul\":2239:2246   */\n      dup8\n        /* \"#utility.yul\":2230:2236   */\n      dup3\n        /* \"#utility.yul\":2219:2228   */\n      dup9\n        /* \"#utility.yul\":2215:2237   */\n      add\n        /* \"#utility.yul\":2194:2247   */\n      tag_156\n      jump\t// in\n    tag_173:\n        /* \"#utility.yul\":2184:2247   */\n      swap4\n      pop\n        /* \"#utility.yul\":2139:2257   */\n      pop\n        /* \"#utility.yul\":2296:2298   */\n      0x40\n        /* \"#utility.yul\":2322:2375   */\n      tag_174\n        /* \"#utility.yul\":2367:2374   */\n      dup8\n        /* \"#utility.yul\":2358:2364   */\n      dup3\n        /* \"#utility.yul\":2347:2356   */\n      dup9\n        /* \"#utility.yul\":2343:2365   */\n      add\n        /* \"#utility.yul\":2322:2375   */\n      tag_146\n      jump\t// in\n    tag_174:\n        /* \"#utility.yul\":2312:2375   */\n      swap3\n      pop\n        /* \"#utility.yul\":2267:2385   */\n      pop\n        /* \"#utility.yul\":2452:2454   */\n      0x60\n        /* \"#utility.yul\":2441:2450   */\n      dup6\n        /* \"#utility.yul\":2437:2455   */\n      add\n        /* \"#utility.yul\":2424:2456   */\n      calldataload\n        /* \"#utility.yul\":2483:2501   */\n      0xffffffffffffffff\n        /* \"#utility.yul\":2475:2481   */\n      dup2\n        /* \"#utility.yul\":2472:2502   */\n      gt\n        /* \"#utility.yul\":2469:2586   */\n      iszero\n      tag_175\n      jumpi\n        /* \"#utility.yul\":2505:2584   */\n      tag_176\n      tag_177\n      jump\t// in\n    tag_176:\n        /* \"#utility.yul\":2469:2586   */\n    tag_175:\n        /* \"#utility.yul\":2610:2673   */\n      tag_178\n        /* \"#utility.yul\":2665:2672   */\n      dup8\n        /* \"#utility.yul\":2656:2662   */\n      dup3\n        /* \"#utility.yul\":2645:2654   */\n      dup9\n        /* \"#utility.yul\":2641:2663   */\n      add\n        /* \"#utility.yul\":2610:2673   */\n      tag_150\n      jump\t// in\n    tag_178:\n        /* \"#utility.yul\":2600:2673   */\n      swap2\n      pop\n        /* \"#utility.yul\":2395:2683   */\n      pop\n        /* \"#utility.yul\":1745:2690   */\n      swap3\n      swap6\n      swap2\n      swap5\n      pop\n      swap3\n      pop\n      jump\t// out\n        /* \"#utility.yul\":2696:3495   */\n    tag_37:\n        /* \"#utility.yul\":2783:2789   */\n      0x00\n        /* \"#utility.yul\":2791:2797   */\n      dup1\n        /* \"#utility.yul\":2799:2805   */\n      0x00\n        /* \"#utility.yul\":2848:2850   */\n      0x60\n        /* \"#utility.yul\":2836:2845   */\n      dup5\n        /* \"#utility.yul\":2827:2834   */\n      dup7\n        /* \"#utility.yul\":2823:2846   */\n      sub\n        /* \"#utility.yul\":2819:2851   */\n      slt\n        /* \"#utility.yul\":2816:2935   */\n      iszero\n      tag_180\n      jumpi\n        /* \"#utility.yul\":2854:2933   */\n      tag_181\n      tag_163\n      jump\t// in\n    tag_181:\n        /* \"#utility.yul\":2816:2935   */\n    tag_180:\n        /* \"#utility.yul\":2974:2975   */\n      0x00\n        /* \"#utility.yul\":2999:3052   */\n      tag_182\n        /* \"#utility.yul\":3044:3051   */\n      dup7\n        /* \"#utility.yul\":3035:3041   */\n      dup3\n        /* \"#utility.yul\":3024:3033   */\n      dup8\n        /* \"#utility.yul\":3020:3042   */\n      add\n        /* \"#utility.yul\":2999:3052   */\n      tag_156\n      jump\t// in\n    tag_182:\n        /* \"#utility.yul\":2989:3052   */\n      swap4\n      pop\n        /* \"#utility.yul\":2945:3062   */\n      pop\n        /* \"#utility.yul\":3101:3103   */\n      0x20\n        /* \"#utility.yul\":3127:3180   */\n      tag_183\n        /* \"#utility.yul\":3172:3179   */\n      dup7\n        /* \"#utility.yul\":3163:3169   */\n      dup3\n        /* \"#utility.yul\":3152:3161   */\n      dup8\n        /* \"#utility.yul\":3148:3170   */\n      add\n        /* \"#utility.yul\":3127:3180   */\n      tag_156\n      jump\t// in\n    tag_183:\n        /* \"#utility.yul\":3117:3180   */\n      swap3\n      pop\n        /* \"#utility.yul\":3072:3190   */\n      pop\n        /* \"#utility.yul\":3257:3259   */\n      0x40\n        /* \"#utility.yul\":3246:3255   */\n      dup5\n        /* \"#utility.yul\":3242:3260   */\n      add\n        /* \"#utility.yul\":3229:3261   */\n      calldataload\n        /* \"#utility.yul\":3288:3306   */\n      0xffffffffffffffff\n        /* \"#utility.yul\":3280:3286   */\n      dup2\n        /* \"#utility.yul\":3277:3307   */\n      gt\n        /* \"#utility.yul\":3274:3391   */\n      iszero\n      tag_184\n      jumpi\n        /* \"#utility.yul\":3310:3389   */\n      tag_185\n      tag_177\n      jump\t// in\n    tag_185:\n        /* \"#utility.yul\":3274:3391   */\n    tag_184:\n        /* \"#utility.yul\":3415:3478   */\n      tag_186\n        /* \"#utility.yul\":3470:3477   */\n      dup7\n        /* \"#utility.yul\":3461:3467   */\n      dup3\n        /* \"#utility.yul\":3450:3459   */\n      dup8\n        /* \"#utility.yul\":3446:3468   */\n      add\n        /* \"#utility.yul\":3415:3478   */\n      tag_150\n      jump\t// in\n    tag_186:\n        /* \"#utility.yul\":3405:3478   */\n      swap2\n      pop\n        /* \"#utility.yul\":3200:3488   */\n      pop\n        /* \"#utility.yul\":2696:3495   */\n      swap3\n      pop\n      swap3\n      pop\n      swap3\n      jump\t// out\n        /* \"#utility.yul\":3501:3680   */\n    tag_187:\n        /* \"#utility.yul\":3570:3580   */\n      0x00\n        /* \"#utility.yul\":3591:3637   */\n      tag_189\n        /* \"#utility.yul\":3633:3636   */\n      dup4\n        /* \"#utility.yul\":3625:3631   */\n      dup4\n        /* \"#utility.yul\":3591:3637   */\n      tag_190\n      jump\t// in\n    tag_189:\n        /* \"#utility.yul\":3669:3673   */\n      0x20\n        /* \"#utility.yul\":3664:3667   */\n      dup4\n        /* \"#utility.yul\":3660:3674   */\n      add\n        /* \"#utility.yul\":3646:3674   */\n      swap1\n      pop\n        /* \"#utility.yul\":3501:3680   */\n      swap3\n      swap2\n      pop\n      pop\n      jump\t// out\n        /* \"#utility.yul\":3686:3804   */\n    tag_191:\n        /* \"#utility.yul\":3773:3797   */\n      tag_193\n        /* \"#utility.yul\":3791:3796   */\n      dup2\n        /* \"#utility.yul\":3773:3797   */\n      tag_194\n      jump\t// in\n    tag_193:\n        /* \"#utility.yul\":3768:3771   */\n      dup3\n        /* \"#utility.yul\":3761:3798   */\n      mstore\n        /* \"#utility.yul\":3686:3804   */\n      pop\n      pop\n      jump\t// out\n        /* \"#utility.yul\":3810:3967   */\n    tag_195:\n        /* \"#utility.yul\":3915:3960   */\n      tag_197\n        /* \"#utility.yul\":3935:3959   */\n      tag_198\n        /* \"#utility.yul\":3953:3958   */\n      dup3\n        /* \"#utility.yul\":3935:3959   */\n      tag_194\n      jump\t// in\n    tag_198:\n        /* \"#utility.yul\":3915:3960   */\n      tag_199\n      jump\t// in\n    tag_197:\n        /* \"#utility.yul\":3910:3913   */\n      dup3\n        /* \"#utility.yul\":3903:3961   */\n      mstore\n        /* \"#utility.yul\":3810:3967   */\n      pop\n      pop\n      jump\t// out\n        /* \"#utility.yul\":4003:4735   */\n    tag_200:\n        /* \"#utility.yul\":4122:4125   */\n      0x00\n        /* \"#utility.yul\":4151:4205   */\n      tag_202\n        /* \"#utility.yul\":4199:4204   */\n      dup3\n        /* \"#utility.yul\":4151:4205   */\n      tag_203\n      jump\t// in\n    tag_202:\n        /* \"#utility.yul\":4221:4307   */\n      tag_204\n        /* \"#utility.yul\":4300:4306   */\n      dup2\n        /* \"#utility.yul\":4295:4298   */\n      dup6\n        /* \"#utility.yul\":4221:4307   */\n      tag_205\n      jump\t// in\n    tag_204:\n        /* \"#utility.yul\":4214:4307   */\n      swap4\n      pop\n        /* \"#utility.yul\":4331:4387   */\n      tag_206\n        /* \"#utility.yul\":4381:4386   */\n      dup4\n        /* \"#utility.yul\":4331:4387   */\n      tag_207\n      jump\t// in\n    tag_206:\n        /* \"#utility.yul\":4410:4417   */\n      dup1\n        /* \"#utility.yul\":4441:4442   */\n      0x00\n        /* \"#utility.yul\":4426:4710   */\n    tag_208:\n        /* \"#utility.yul\":4451:4457   */\n      dup4\n        /* \"#utility.yul\":4448:4449   */\n      dup2\n        /* \"#utility.yul\":4445:4458   */\n      lt\n        /* \"#utility.yul\":4426:4710   */\n      iszero\n      tag_210\n      jumpi\n        /* \"#utility.yul\":4527:4533   */\n      dup2\n        /* \"#utility.yul\":4521:4534   */\n      mload\n        /* \"#utility.yul\":4554:4617   */\n      tag_211\n        /* \"#utility.yul\":4613:4616   */\n      dup9\n        /* \"#utility.yul\":4598:4611   */\n      dup3\n        /* \"#utility.yul\":4554:4617   */\n      tag_187\n      jump\t// in\n    tag_211:\n        /* \"#utility.yul\":4547:4617   */\n      swap8\n      pop\n        /* \"#utility.yul\":4640:4700   */\n      tag_212\n        /* \"#utility.yul\":4693:4699   */\n      dup4\n        /* \"#utility.yul\":4640:4700   */\n      tag_213\n      jump\t// in\n    tag_212:\n        /* \"#utility.yul\":4630:4700   */\n      swap3\n      pop\n        /* \"#utility.yul\":4486:4710   */\n      pop\n        /* \"#utility.yul\":4473:4474   */\n      0x01\n        /* \"#utility.yul\":4470:4471   */\n      dup2\n        /* \"#utility.yul\":4466:4475   */\n      add\n        /* \"#utility.yul\":4461:4475   */\n      swap1\n      pop\n        /* \"#utility.yul\":4426:4710   */\n      jump(tag_208)\n    tag_210:\n        /* \"#utility.yul\":4430:4444   */\n      pop\n        /* \"#utility.yul\":4726:4729   */\n      dup6\n        /* \"#utility.yul\":4719:4729   */\n      swap4\n      pop\n        /* \"#utility.yul\":4127:4735   */\n      pop\n      pop\n      pop\n        /* \"#utility.yul\":4003:4735   */\n      swap3\n      swap2\n      pop\n      pop\n      jump\t// out\n        /* \"#utility.yul\":4741:4850   */\n    tag_214:\n        /* \"#utility.yul\":4822:4843   */\n      tag_216\n        /* \"#utility.yul\":4837:4842   */\n      dup2\n        /* \"#utility.yul\":4822:4843   */\n      tag_217\n      jump\t// in\n    tag_216:\n        /* \"#utility.yul\":4817:4820   */\n      dup3\n        /* \"#utility.yul\":4810:4844   */\n      mstore\n        /* \"#utility.yul\":4741:4850   */\n      pop\n      pop\n      jump\t// out\n        /* \"#utility.yul\":4856:5220   */\n    tag_218:\n        /* \"#utility.yul\":4944:4947   */\n      0x00\n        /* \"#utility.yul\":4972:5011   */\n      tag_220\n        /* \"#utility.yul\":5005:5010   */\n      dup3\n        /* \"#utility.yul\":4972:5011   */\n      tag_221\n      jump\t// in\n    tag_220:\n        /* \"#utility.yul\":5027:5098   */\n      tag_222\n        /* \"#utility.yul\":5091:5097   */\n      dup2\n        /* \"#utility.yul\":5086:5089   */\n      dup6\n        /* \"#utility.yul\":5027:5098   */\n      tag_223\n      jump\t// in\n    tag_222:\n        /* \"#utility.yul\":5020:5098   */\n      swap4\n      pop\n        /* \"#utility.yul\":5107:5159   */\n      tag_224\n        /* \"#utility.yul\":5152:5158   */\n      dup2\n        /* \"#utility.yul\":5147:5150   */\n      dup6\n        /* \"#utility.yul\":5140:5144   */\n      0x20\n        /* \"#utility.yul\":5133:5138   */\n      dup7\n        /* \"#utility.yul\":5129:5145   */\n      add\n        /* \"#utility.yul\":5107:5159   */\n      tag_225\n      jump\t// in\n    tag_224:\n        /* \"#utility.yul\":5184:5213   */\n      tag_226\n        /* \"#utility.yul\":5206:5212   */\n      dup2\n        /* \"#utility.yul\":5184:5213   */\n      tag_227\n      jump\t// in\n    tag_226:\n        /* \"#utility.yul\":5179:5182   */\n      dup5\n        /* \"#utility.yul\":5175:5214   */\n      add\n        /* \"#utility.yul\":5168:5214   */\n      swap2\n      pop\n        /* \"#utility.yul\":4948:5220   */\n      pop\n        /* \"#utility.yul\":4856:5220   */\n      swap3\n      swap2\n      pop\n      pop\n      jump\t// out\n        /* \"#utility.yul\":5226:5603   */\n    tag_228:\n        /* \"#utility.yul\":5332:5335   */\n      0x00\n        /* \"#utility.yul\":5360:5399   */\n      tag_230\n        /* \"#utility.yul\":5393:5398   */\n      dup3\n        /* \"#utility.yul\":5360:5399   */\n      tag_221\n      jump\t// in\n    tag_230:\n        /* \"#utility.yul\":5415:5504   */\n      tag_231\n        /* \"#utility.yul\":5497:5503   */\n      dup2\n        /* \"#utility.yul\":5492:5495   */\n      dup6\n        /* \"#utility.yul\":5415:5504   */\n      tag_232\n      jump\t// in\n    tag_231:\n        /* \"#utility.yul\":5408:5504   */\n      swap4\n      pop\n        /* \"#utility.yul\":5513:5565   */\n      tag_233\n        /* \"#utility.yul\":5558:5564   */\n      dup2\n        /* \"#utility.yul\":5553:5556   */\n      dup6\n        /* \"#utility.yul\":5546:5550   */\n      0x20\n        /* \"#utility.yul\":5539:5544   */\n      dup7\n        /* \"#utility.yul\":5535:5551   */\n      add\n        /* \"#utility.yul\":5513:5565   */\n      tag_225\n      jump\t// in\n    tag_233:\n        /* \"#utility.yul\":5590:5596   */\n      dup1\n        /* \"#utility.yul\":5585:5588   */\n      dup5\n        /* \"#utility.yul\":5581:5597   */\n      add\n        /* \"#utility.yul\":5574:5597   */\n      swap2\n      pop\n        /* \"#utility.yul\":5336:5603   */\n      pop\n        /* \"#utility.yul\":5226:5603   */\n      swap3\n      swap2\n      pop\n      pop\n      jump\t// out\n        /* \"#utility.yul\":5609:5975   */\n    tag_234:\n        /* \"#utility.yul\":5751:5754   */\n      0x00\n        /* \"#utility.yul\":5772:5839   */\n      tag_236\n        /* \"#utility.yul\":5836:5838   */\n      0x26\n        /* \"#utility.yul\":5831:5834   */\n      dup4\n        /* \"#utility.yul\":5772:5839   */\n      tag_223\n      jump\t// in\n    tag_236:\n        /* \"#utility.yul\":5765:5839   */\n      swap2\n      pop\n        /* \"#utility.yul\":5848:5941   */\n      tag_237\n        /* \"#utility.yul\":5937:5940   */\n      dup3\n        /* \"#utility.yul\":5848:5941   */\n      tag_238\n      jump\t// in\n    tag_237:\n        /* \"#utility.yul\":5966:5968   */\n      0x40\n        /* \"#utility.yul\":5961:5964   */\n      dup3\n        /* \"#utility.yul\":5957:5969   */\n      add\n        /* \"#utility.yul\":5950:5969   */\n      swap1\n      pop\n        /* \"#utility.yul\":5609:5975   */\n      swap2\n      swap1\n      pop\n      jump\t// out\n        /* \"#utility.yul\":5981:6347   */\n    tag_239:\n        /* \"#utility.yul\":6123:6126   */\n      0x00\n        /* \"#utility.yul\":6144:6211   */\n      tag_241\n        /* \"#utility.yul\":6208:6210   */\n      0x14\n        /* \"#utility.yul\":6203:6206   */\n      dup4\n        /* \"#utility.yul\":6144:6211   */\n      tag_223\n      jump\t// in\n    tag_241:\n        /* \"#utility.yul\":6137:6211   */\n      swap2\n      pop\n        /* \"#utility.yul\":6220:6313   */\n      tag_242\n        /* \"#utility.yul\":6309:6312   */\n      dup3\n        /* \"#utility.yul\":6220:6313   */\n      tag_243\n      jump\t// in\n    tag_242:\n        /* \"#utility.yul\":6338:6340   */\n      0x20\n        /* \"#utility.yul\":6333:6336   */\n      dup3\n        /* \"#utility.yul\":6329:6341   */\n      add\n        /* \"#utility.yul\":6322:6341   */\n      swap1\n      pop\n        /* \"#utility.yul\":5981:6347   */\n      swap2\n      swap1\n      pop\n      jump\t// out\n        /* \"#utility.yul\":6353:6719   */\n    tag_244:\n        /* \"#utility.yul\":6495:6498   */\n      0x00\n        /* \"#utility.yul\":6516:6583   */\n      tag_246\n        /* \"#utility.yul\":6580:6582   */\n      0x23\n        /* \"#utility.yul\":6575:6578   */\n      dup4\n        /* \"#utility.yul\":6516:6583   */\n      tag_223\n      jump\t// in\n    tag_246:\n        /* \"#utility.yul\":6509:6583   */\n      swap2\n      pop\n        /* \"#utility.yul\":6592:6685   */\n      tag_247\n        /* \"#utility.yul\":6681:6684   */\n      dup3\n        /* \"#utility.yul\":6592:6685   */\n      tag_248\n      jump\t// in\n    tag_247:\n        /* \"#utility.yul\":6710:6712   */\n      0x40\n        /* \"#utility.yul\":6705:6708   */\n      dup3\n        /* \"#utility.yul\":6701:6713   */\n      add\n        /* \"#utility.yul\":6694:6713   */\n      swap1\n      pop\n        /* \"#utility.yul\":6353:6719   */\n      swap2\n      swap1\n      pop\n      jump\t// out\n        /* \"#utility.yul\":6725:7091   */\n    tag_249:\n        /* \"#utility.yul\":6867:6870   */\n      0x00\n        /* \"#utility.yul\":6888:6955   */\n      tag_251\n        /* \"#utility.yul\":6952:6954   */\n      0x20\n        /* \"#utility.yul\":6947:6950   */\n      dup4\n        /* \"#utility.yul\":6888:6955   */\n      tag_223\n      jump\t// in\n    tag_251:\n        /* \"#utility.yul\":6881:6955   */\n      swap2\n      pop\n        /* \"#utility.yul\":6964:7057   */\n      tag_252\n        /* \"#utility.yul\":7053:7056   */\n      dup3\n        /* \"#utility.yul\":6964:7057   */\n      tag_253\n      jump\t// in\n    tag_252:\n        /* \"#utility.yul\":7082:7084   */\n      0x20\n        /* \"#utility.yul\":7077:7080   */\n      dup3\n        /* \"#utility.yul\":7073:7085   */\n      add\n        /* \"#utility.yul\":7066:7085   */\n      swap1\n      pop\n        /* \"#utility.yul\":6725:7091   */\n      swap2\n      swap1\n      pop\n      jump\t// out\n        /* \"#utility.yul\":7097:7463   */\n    tag_254:\n        /* \"#utility.yul\":7239:7242   */\n      0x00\n        /* \"#utility.yul\":7260:7327   */\n      tag_256\n        /* \"#utility.yul\":7324:7326   */\n      0x1b\n        /* \"#utility.yul\":7319:7322   */\n      dup4\n        /* \"#utility.yul\":7260:7327   */\n      tag_223\n      jump\t// in\n    tag_256:\n        /* \"#utility.yul\":7253:7327   */\n      swap2\n      pop\n        /* \"#utility.yul\":7336:7429   */\n      tag_257\n        /* \"#utility.yul\":7425:7428   */\n      dup3\n        /* \"#utility.yul\":7336:7429   */\n      tag_258\n      jump\t// in\n    tag_257:\n        /* \"#utility.yul\":7454:7456   */\n      0x20\n        /* \"#utility.yul\":7449:7452   */\n      dup3\n        /* \"#utility.yul\":7445:7457   */\n      add\n        /* \"#utility.yul\":7438:7457   */\n      swap1\n      pop\n        /* \"#utility.yul\":7097:7463   */\n      swap2\n      swap1\n      pop\n      jump\t// out\n        /* \"#utility.yul\":7469:7835   */\n    tag_259:\n        /* \"#utility.yul\":7611:7614   */\n      0x00\n        /* \"#utility.yul\":7632:7699   */\n      tag_261\n        /* \"#utility.yul\":7696:7698   */\n      0x2b\n        /* \"#utility.yul\":7691:7694   */\n      dup4\n        /* \"#utility.yul\":7632:7699   */\n      tag_223\n      jump\t// in\n    tag_261:\n        /* \"#utility.yul\":7625:7699   */\n      swap2\n      pop\n        /* \"#utility.yul\":7708:7801   */\n      tag_262\n        /* \"#utility.yul\":7797:7800   */\n      dup3\n        /* \"#utility.yul\":7708:7801   */\n      tag_263\n      jump\t// in\n    tag_262:\n        /* \"#utility.yul\":7826:7828   */\n      0x40\n        /* \"#utility.yul\":7821:7824   */\n      dup3\n        /* \"#utility.yul\":7817:7829   */\n      add\n        /* \"#utility.yul\":7810:7829   */\n      swap1\n      pop\n        /* \"#utility.yul\":7469:7835   */\n      swap2\n      swap1\n      pop\n      jump\t// out\n        /* \"#utility.yul\":7841:7949   */\n    tag_190:\n        /* \"#utility.yul\":7918:7942   */\n      tag_265\n        /* \"#utility.yul\":7936:7941   */\n      dup2\n        /* \"#utility.yul\":7918:7942   */\n      tag_266\n      jump\t// in\n    tag_265:\n        /* \"#utility.yul\":7913:7916   */\n      dup3\n        /* \"#utility.yul\":7906:7943   */\n      mstore\n        /* \"#utility.yul\":7841:7949   */\n      pop\n      pop\n      jump\t// out\n        /* \"#utility.yul\":7955:8073   */\n    tag_267:\n        /* \"#utility.yul\":8042:8066   */\n      tag_269\n        /* \"#utility.yul\":8060:8065   */\n      dup2\n        /* \"#utility.yul\":8042:8066   */\n      tag_266\n      jump\t// in\n    tag_269:\n        /* \"#utility.yul\":8037:8040   */\n      dup3\n        /* \"#utility.yul\":8030:8067   */\n      mstore\n        /* \"#utility.yul\":7955:8073   */\n      pop\n      pop\n      jump\t// out\n        /* \"#utility.yul\":8079:8236   */\n    tag_270:\n        /* \"#utility.yul\":8184:8229   */\n      tag_272\n        /* \"#utility.yul\":8204:8228   */\n      tag_273\n        /* \"#utility.yul\":8222:8227   */\n      dup3\n        /* \"#utility.yul\":8204:8228   */\n      tag_266\n      jump\t// in\n    tag_273:\n        /* \"#utility.yul\":8184:8229   */\n      tag_274\n      jump\t// in\n    tag_272:\n        /* \"#utility.yul\":8179:8182   */\n      dup3\n        /* \"#utility.yul\":8172:8230   */\n      mstore\n        /* \"#utility.yul\":8079:8236   */\n      pop\n      pop\n      jump\t// out\n        /* \"#utility.yul\":8242:8799   */\n    tag_120:\n        /* \"#utility.yul\":8430:8433   */\n      0x00\n        /* \"#utility.yul\":8445:8520   */\n      tag_276\n        /* \"#utility.yul\":8516:8519   */\n      dup3\n        /* \"#utility.yul\":8507:8513   */\n      dup7\n        /* \"#utility.yul\":8445:8520   */\n      tag_195\n      jump\t// in\n    tag_276:\n        /* \"#utility.yul\":8545:8547   */\n      0x14\n        /* \"#utility.yul\":8540:8543   */\n      dup3\n        /* \"#utility.yul\":8536:8548   */\n      add\n        /* \"#utility.yul\":8529:8548   */\n      swap2\n      pop\n        /* \"#utility.yul\":8558:8633   */\n      tag_277\n        /* \"#utility.yul\":8629:8632   */\n      dup3\n        /* \"#utility.yul\":8620:8626   */\n      dup6\n        /* \"#utility.yul\":8558:8633   */\n      tag_270\n      jump\t// in\n    tag_277:\n        /* \"#utility.yul\":8658:8660   */\n      0x20\n        /* \"#utility.yul\":8653:8656   */\n      dup3\n        /* \"#utility.yul\":8649:8661   */\n      add\n        /* \"#utility.yul\":8642:8661   */\n      swap2\n      pop\n        /* \"#utility.yul\":8678:8773   */\n      tag_278\n        /* \"#utility.yul\":8769:8772   */\n      dup3\n        /* \"#utility.yul\":8760:8766   */\n      dup5\n        /* \"#utility.yul\":8678:8773   */\n      tag_228\n      jump\t// in\n    tag_278:\n        /* \"#utility.yul\":8671:8773   */\n      swap2\n      pop\n        /* \"#utility.yul\":8790:8793   */\n      dup2\n        /* \"#utility.yul\":8783:8793   */\n      swap1\n      pop\n        /* \"#utility.yul\":8242:8799   */\n      swap5\n      swap4\n      pop\n      pop\n      pop\n      pop\n      jump\t// out\n        /* \"#utility.yul\":8805:9027   */\n    tag_23:\n        /* \"#utility.yul\":8898:8902   */\n      0x00\n        /* \"#utility.yul\":8936:8938   */\n      0x20\n        /* \"#utility.yul\":8925:8934   */\n      dup3\n        /* \"#utility.yul\":8921:8939   */\n      add\n        /* \"#utility.yul\":8913:8939   */\n      swap1\n      pop\n        /* \"#utility.yul\":8949:9020   */\n      tag_280\n        /* \"#utility.yul\":9017:9018   */\n      0x00\n        /* \"#utility.yul\":9006:9015   */\n      dup4\n        /* \"#utility.yul\":9002:9019   */\n      add\n        /* \"#utility.yul\":8993:8999   */\n      dup5\n        /* \"#utility.yul\":8949:9020   */\n      tag_191\n      jump\t// in\n    tag_280:\n        /* \"#utility.yul\":8805:9027   */\n      swap3\n      swap2\n      pop\n      pop\n      jump\t// out\n        /* \"#utility.yul\":9033:9406   */\n    tag_43:\n        /* \"#utility.yul\":9176:9180   */\n      0x00\n        /* \"#utility.yul\":9214:9216   */\n      0x20\n        /* \"#utility.yul\":9203:9212   */\n      dup3\n        /* \"#utility.yul\":9199:9217   */\n      add\n        /* \"#utility.yul\":9191:9217   */\n      swap1\n      pop\n        /* \"#utility.yul\":9263:9272   */\n      dup2\n        /* \"#utility.yul\":9257:9261   */\n      dup2\n        /* \"#utility.yul\":9253:9273   */\n      sub\n        /* \"#utility.yul\":9249:9250   */\n      0x00\n        /* \"#utility.yul\":9238:9247   */\n      dup4\n        /* \"#utility.yul\":9234:9251   */\n      add\n        /* \"#utility.yul\":9227:9274   */\n      mstore\n        /* \"#utility.yul\":9291:9399   */\n      tag_282\n        /* \"#utility.yul\":9394:9398   */\n      dup2\n        /* \"#utility.yul\":9385:9391   */\n      dup5\n        /* \"#utility.yul\":9291:9399   */\n      tag_200\n      jump\t// in\n    tag_282:\n        /* \"#utility.yul\":9283:9399   */\n      swap1\n      pop\n        /* \"#utility.yul\":9033:9406   */\n      swap3\n      swap2\n      pop\n      pop\n      jump\t// out\n        /* \"#utility.yul\":9412:9725   */\n    tag_17:\n        /* \"#utility.yul\":9525:9529   */\n      0x00\n        /* \"#utility.yul\":9563:9565   */\n      0x20\n        /* \"#utility.yul\":9552:9561   */\n      dup3\n        /* \"#utility.yul\":9548:9566   */\n      add\n        /* \"#utility.yul\":9540:9566   */\n      swap1\n      pop\n        /* \"#utility.yul\":9612:9621   */\n      dup2\n        /* \"#utility.yul\":9606:9610   */\n      dup2\n        /* \"#utility.yul\":9602:9622   */\n      sub\n        /* \"#utility.yul\":9598:9599   */\n      0x00\n        /* \"#utility.yul\":9587:9596   */\n      dup4\n        /* \"#utility.yul\":9583:9600   */\n      add\n        /* \"#utility.yul\":9576:9623   */\n      mstore\n        /* \"#utility.yul\":9640:9718   */\n      tag_284\n        /* \"#utility.yul\":9713:9717   */\n      dup2\n        /* \"#utility.yul\":9704:9710   */\n      dup5\n        /* \"#utility.yul\":9640:9718   */\n      tag_218\n      jump\t// in\n    tag_284:\n        /* \"#utility.yul\":9632:9718   */\n      swap1\n      pop\n        /* \"#utility.yul\":9412:9725   */\n      swap3\n      swap2\n      pop\n      pop\n      jump\t// out\n        /* \"#utility.yul\":9731:10150   */\n    tag_114:\n        /* \"#utility.yul\":9897:9901   */\n      0x00\n        /* \"#utility.yul\":9935:9937   */\n      0x20\n        /* \"#utility.yul\":9924:9933   */\n      dup3\n        /* \"#utility.yul\":9920:9938   */\n      add\n        /* \"#utility.yul\":9912:9938   */\n      swap1\n      pop\n        /* \"#utility.yul\":9984:9993   */\n      dup2\n        /* \"#utility.yul\":9978:9982   */\n      dup2\n        /* \"#utility.yul\":9974:9994   */\n      sub\n        /* \"#utility.yul\":9970:9971   */\n      0x00\n        /* \"#utility.yul\":9959:9968   */\n      dup4\n        /* \"#utility.yul\":9955:9972   */\n      add\n        /* \"#utility.yul\":9948:9995   */\n      mstore\n        /* \"#utility.yul\":10012:10143   */\n      tag_286\n        /* \"#utility.yul\":10138:10142   */\n      dup2\n        /* \"#utility.yul\":10012:10143   */\n      tag_234\n      jump\t// in\n    tag_286:\n        /* \"#utility.yul\":10004:10143   */\n      swap1\n      pop\n        /* \"#utility.yul\":9731:10150   */\n      swap2\n      swap1\n      pop\n      jump\t// out\n        /* \"#utility.yul\":10156:10575   */\n    tag_68:\n        /* \"#utility.yul\":10322:10326   */\n      0x00\n        /* \"#utility.yul\":10360:10362   */\n      0x20\n        /* \"#utility.yul\":10349:10358   */\n      dup3\n        /* \"#utility.yul\":10345:10363   */\n      add\n        /* \"#utility.yul\":10337:10363   */\n      swap1\n      pop\n        /* \"#utility.yul\":10409:10418   */\n      dup2\n        /* \"#utility.yul\":10403:10407   */\n      dup2\n        /* \"#utility.yul\":10399:10419   */\n      sub\n        /* \"#utility.yul\":10395:10396   */\n      0x00\n        /* \"#utility.yul\":10384:10393   */\n      dup4\n        /* \"#utility.yul\":10380:10397   */\n      add\n        /* \"#utility.yul\":10373:10420   */\n      mstore\n        /* \"#utility.yul\":10437:10568   */\n      tag_288\n        /* \"#utility.yul\":10563:10567   */\n      dup2\n        /* \"#utility.yul\":10437:10568   */\n      tag_239\n      jump\t// in\n    tag_288:\n        /* \"#utility.yul\":10429:10568   */\n      swap1\n      pop\n        /* \"#utility.yul\":10156:10575   */\n      swap2\n      swap1\n      pop\n      jump\t// out\n        /* \"#utility.yul\":10581:11000   */\n    tag_93:\n        /* \"#utility.yul\":10747:10751   */\n      0x00\n        /* \"#utility.yul\":10785:10787   */\n      0x20\n        /* \"#utility.yul\":10774:10783   */\n      dup3\n        /* \"#utility.yul\":10770:10788   */\n      add\n        /* \"#utility.yul\":10762:10788   */\n      swap1\n      pop\n        /* \"#utility.yul\":10834:10843   */\n      dup2\n        /* \"#utility.yul\":10828:10832   */\n      dup2\n        /* \"#utility.yul\":10824:10844   */\n      sub\n        /* \"#utility.yul\":10820:10821   */\n      0x00\n        /* \"#utility.yul\":10809:10818   */\n      dup4\n        /* \"#utility.yul\":10805:10822   */\n      add\n        /* \"#utility.yul\":10798:10845   */\n      mstore\n        /* \"#utility.yul\":10862:10993   */\n      tag_290\n        /* \"#utility.yul\":10988:10992   */\n      dup2\n        /* \"#utility.yul\":10862:10993   */\n      tag_244\n      jump\t// in\n    tag_290:\n        /* \"#utility.yul\":10854:10993   */\n      swap1\n      pop\n        /* \"#utility.yul\":10581:11000   */\n      swap2\n      swap1\n      pop\n      jump\t// out\n        /* \"#utility.yul\":11006:11425   */\n    tag_58:\n        /* \"#utility.yul\":11172:11176   */\n      0x00\n        /* \"#utility.yul\":11210:11212   */\n      0x20\n        /* \"#utility.yul\":11199:11208   */\n      dup3\n        /* \"#utility.yul\":11195:11213   */\n      add\n        /* \"#utility.yul\":11187:11213   */\n      swap1\n      pop\n        /* \"#utility.yul\":11259:11268   */\n      dup2\n        /* \"#utility.yul\":11253:11257   */\n      dup2\n        /* \"#utility.yul\":11249:11269   */\n      sub\n        /* \"#utility.yul\":11245:11246   */\n      0x00\n        /* \"#utility.yul\":11234:11243   */\n      dup4\n        /* \"#utility.yul\":11230:11247   */\n      add\n        /* \"#utility.yul\":11223:11270   */\n      mstore\n        /* \"#utility.yul\":11287:11418   */\n      tag_292\n        /* \"#utility.yul\":11413:11417   */\n      dup2\n        /* \"#utility.yul\":11287:11418   */\n      tag_249\n      jump\t// in\n    tag_292:\n        /* \"#utility.yul\":11279:11418   */\n      swap1\n      pop\n        /* \"#utility.yul\":11006:11425   */\n      swap2\n      swap1\n      pop\n      jump\t// out\n        /* \"#utility.yul\":11431:11850   */\n    tag_73:\n        /* \"#utility.yul\":11597:11601   */\n      0x00\n        /* \"#utility.yul\":11635:11637   */\n      0x20\n        /* \"#utility.yul\":11624:11633   */\n      dup3\n        /* \"#utility.yul\":11620:11638   */\n      add\n        /* \"#utility.yul\":11612:11638   */\n      swap1\n      pop\n        /* \"#utility.yul\":11684:11693   */\n      dup2\n        /* \"#utility.yul\":11678:11682   */\n      dup2\n        /* \"#utility.yul\":11674:11694   */\n      sub\n        /* \"#utility.yul\":11670:11671   */\n      0x00\n        /* \"#utility.yul\":11659:11668   */\n      dup4\n        /* \"#utility.yul\":11655:11672   */\n      add\n        /* \"#utility.yul\":11648:11695   */\n      mstore\n        /* \"#utility.yul\":11712:11843   */\n      tag_294\n        /* \"#utility.yul\":11838:11842   */\n      dup2\n        /* \"#utility.yul\":11712:11843   */\n      tag_254\n      jump\t// in\n    tag_294:\n        /* \"#utility.yul\":11704:11843   */\n      swap1\n      pop\n        /* \"#utility.yul\":11431:11850   */\n      swap2\n      swap1\n      pop\n      jump\t// out\n        /* \"#utility.yul\":11856:12275   */\n    tag_51:\n        /* \"#utility.yul\":12022:12026   */\n      0x00\n        /* \"#utility.yul\":12060:12062   */\n      0x20\n        /* \"#utility.yul\":12049:12058   */\n      dup3\n        /* \"#utility.yul\":12045:12063   */\n      add\n        /* \"#utility.yul\":12037:12063   */\n      swap1\n      pop\n        /* \"#utility.yul\":12109:12118   */\n      dup2\n        /* \"#utility.yul\":12103:12107   */\n      dup2\n        /* \"#utility.yul\":12099:12119   */\n      sub\n        /* \"#utility.yul\":12095:12096   */\n      0x00\n        /* \"#utility.yul\":12084:12093   */\n      dup4\n        /* \"#utility.yul\":12080:12097   */\n      add\n        /* \"#utility.yul\":12073:12120   */\n      mstore\n        /* \"#utility.yul\":12137:12268   */\n      tag_296\n        /* \"#utility.yul\":12263:12267   */\n      dup2\n        /* \"#utility.yul\":12137:12268   */\n      tag_259\n      jump\t// in\n    tag_296:\n        /* \"#utility.yul\":12129:12268   */\n      swap1\n      pop\n        /* \"#utility.yul\":11856:12275   */\n      swap2\n      swap1\n      pop\n      jump\t// out\n        /* \"#utility.yul\":12281:12503   */\n    tag_29:\n        /* \"#utility.yul\":12374:12378   */\n      0x00\n        /* \"#utility.yul\":12412:12414   */\n      0x20\n        /* \"#utility.yul\":12401:12410   */\n      dup3\n        /* \"#utility.yul\":12397:12415   */\n      add\n        /* \"#utility.yul\":12389:12415   */\n      swap1\n      pop\n        /* \"#utility.yul\":12425:12496   */\n      tag_298\n        /* \"#utility.yul\":12493:12494   */\n      0x00\n        /* \"#utility.yul\":12482:12491   */\n      dup4\n        /* \"#utility.yul\":12478:12495   */\n      add\n        /* \"#utility.yul\":12469:12475   */\n      dup5\n        /* \"#utility.yul\":12425:12496   */\n      tag_267\n      jump\t// in\n    tag_298:\n        /* \"#utility.yul\":12281:12503   */\n      swap3\n      swap2\n      pop\n      pop\n      jump\t// out\n        /* \"#utility.yul\":12509:13153   */\n    tag_83:\n        /* \"#utility.yul\":12706:12710   */\n      0x00\n        /* \"#utility.yul\":12744:12747   */\n      0x80\n        /* \"#utility.yul\":12733:12742   */\n      dup3\n        /* \"#utility.yul\":12729:12748   */\n      add\n        /* \"#utility.yul\":12721:12748   */\n      swap1\n      pop\n        /* \"#utility.yul\":12758:12829   */\n      tag_300\n        /* \"#utility.yul\":12826:12827   */\n      0x00\n        /* \"#utility.yul\":12815:12824   */\n      dup4\n        /* \"#utility.yul\":12811:12828   */\n      add\n        /* \"#utility.yul\":12802:12808   */\n      dup8\n        /* \"#utility.yul\":12758:12829   */\n      tag_267\n      jump\t// in\n    tag_300:\n        /* \"#utility.yul\":12839:12911   */\n      tag_301\n        /* \"#utility.yul\":12907:12909   */\n      0x20\n        /* \"#utility.yul\":12896:12905   */\n      dup4\n        /* \"#utility.yul\":12892:12910   */\n      add\n        /* \"#utility.yul\":12883:12889   */\n      dup7\n        /* \"#utility.yul\":12839:12911   */\n      tag_191\n      jump\t// in\n    tag_301:\n        /* \"#utility.yul\":12921:12993   */\n      tag_302\n        /* \"#utility.yul\":12989:12991   */\n      0x40\n        /* \"#utility.yul\":12978:12987   */\n      dup4\n        /* \"#utility.yul\":12974:12992   */\n      add\n        /* \"#utility.yul\":12965:12971   */\n      dup6\n        /* \"#utility.yul\":12921:12993   */\n      tag_267\n      jump\t// in\n    tag_302:\n        /* \"#utility.yul\":13040:13049   */\n      dup2\n        /* \"#utility.yul\":13034:13038   */\n      dup2\n        /* \"#utility.yul\":13030:13050   */\n      sub\n        /* \"#utility.yul\":13025:13027   */\n      0x60\n        /* \"#utility.yul\":13014:13023   */\n      dup4\n        /* \"#utility.yul\":13010:13028   */\n      add\n        /* \"#utility.yul\":13003:13051   */\n      mstore\n        /* \"#utility.yul\":13068:13146   */\n      tag_303\n        /* \"#utility.yul\":13141:13145   */\n      dup2\n        /* \"#utility.yul\":13132:13138   */\n      dup5\n        /* \"#utility.yul\":13068:13146   */\n      tag_218\n      jump\t// in\n    tag_303:\n        /* \"#utility.yul\":13060:13146   */\n      swap1\n      pop\n        /* \"#utility.yul\":12509:13153   */\n      swap6\n      swap5\n      pop\n      pop\n      pop\n      pop\n      pop\n      jump\t// out\n        /* \"#utility.yul\":13159:14124   */\n    tag_34:\n        /* \"#utility.yul\":13434:13438   */\n      0x00\n        /* \"#utility.yul\":13472:13475   */\n      0xe0\n        /* \"#utility.yul\":13461:13470   */\n      dup3\n        /* \"#utility.yul\":13457:13476   */\n      add\n        /* \"#utility.yul\":13449:13476   */\n      swap1\n      pop\n        /* \"#utility.yul\":13486:13557   */\n      tag_305\n        /* \"#utility.yul\":13554:13555   */\n      0x00\n        /* \"#utility.yul\":13543:13552   */\n      dup4\n        /* \"#utility.yul\":13539:13556   */\n      add\n        /* \"#utility.yul\":13530:13536   */\n      dup11\n        /* \"#utility.yul\":13486:13557   */\n      tag_267\n      jump\t// in\n    tag_305:\n        /* \"#utility.yul\":13567:13639   */\n      tag_306\n        /* \"#utility.yul\":13635:13637   */\n      0x20\n        /* \"#utility.yul\":13624:13633   */\n      dup4\n        /* \"#utility.yul\":13620:13638   */\n      add\n        /* \"#utility.yul\":13611:13617   */\n      dup10\n        /* \"#utility.yul\":13567:13639   */\n      tag_267\n      jump\t// in\n    tag_306:\n        /* \"#utility.yul\":13649:13721   */\n      tag_307\n        /* \"#utility.yul\":13717:13719   */\n      0x40\n        /* \"#utility.yul\":13706:13715   */\n      dup4\n        /* \"#utility.yul\":13702:13720   */\n      add\n        /* \"#utility.yul\":13693:13699   */\n      dup9\n        /* \"#utility.yul\":13649:13721   */\n      tag_267\n      jump\t// in\n    tag_307:\n        /* \"#utility.yul\":13731:13803   */\n      tag_308\n        /* \"#utility.yul\":13799:13801   */\n      0x60\n        /* \"#utility.yul\":13788:13797   */\n      dup4\n        /* \"#utility.yul\":13784:13802   */\n      add\n        /* \"#utility.yul\":13775:13781   */\n      dup8\n        /* \"#utility.yul\":13731:13803   */\n      tag_267\n      jump\t// in\n    tag_308:\n        /* \"#utility.yul\":13813:13886   */\n      tag_309\n        /* \"#utility.yul\":13881:13884   */\n      0x80\n        /* \"#utility.yul\":13870:13879   */\n      dup4\n        /* \"#utility.yul\":13866:13885   */\n      add\n        /* \"#utility.yul\":13857:13863   */\n      dup7\n        /* \"#utility.yul\":13813:13886   */\n      tag_191\n      jump\t// in\n    tag_309:\n        /* \"#utility.yul\":13934:13943   */\n      dup2\n        /* \"#utility.yul\":13928:13932   */\n      dup2\n        /* \"#utility.yul\":13924:13944   */\n      sub\n        /* \"#utility.yul\":13918:13921   */\n      0xa0\n        /* \"#utility.yul\":13907:13916   */\n      dup4\n        /* \"#utility.yul\":13903:13922   */\n      add\n        /* \"#utility.yul\":13896:13945   */\n      mstore\n        /* \"#utility.yul\":13962:14040   */\n      tag_310\n        /* \"#utility.yul\":14035:14039   */\n      dup2\n        /* \"#utility.yul\":14026:14032   */\n      dup6\n        /* \"#utility.yul\":13962:14040   */\n      tag_218\n      jump\t// in\n    tag_310:\n        /* \"#utility.yul\":13954:14040   */\n      swap1\n      pop\n        /* \"#utility.yul\":14050:14117   */\n      tag_311\n        /* \"#utility.yul\":14112:14115   */\n      0xc0\n        /* \"#utility.yul\":14101:14110   */\n      dup4\n        /* \"#utility.yul\":14097:14116   */\n      add\n        /* \"#utility.yul\":14088:14094   */\n      dup5\n        /* \"#utility.yul\":14050:14117   */\n      tag_214\n      jump\t// in\n    tag_311:\n        /* \"#utility.yul\":13159:14124   */\n      swap9\n      swap8\n      pop\n      pop\n      pop\n      pop\n      pop\n      pop\n      pop\n      pop\n      jump\t// out\n        /* \"#utility.yul\":14130:14259   */\n    tag_140:\n        /* \"#utility.yul\":14164:14170   */\n      0x00\n        /* \"#utility.yul\":14191:14211   */\n      tag_313\n      tag_314\n      jump\t// in\n    tag_313:\n        /* \"#utility.yul\":14181:14211   */\n      swap1\n      pop\n        /* \"#utility.yul\":14220:14253   */\n      tag_315\n        /* \"#utility.yul\":14248:14252   */\n      dup3\n        /* \"#utility.yul\":14240:14246   */\n      dup3\n        /* \"#utility.yul\":14220:14253   */\n      tag_316\n      jump\t// in\n    tag_315:\n        /* \"#utility.yul\":14130:14259   */\n      swap2\n      swap1\n      pop\n      jump\t// out\n        /* \"#utility.yul\":14265:14340   */\n    tag_314:\n        /* \"#utility.yul\":14298:14304   */\n      0x00\n        /* \"#utility.yul\":14331:14333   */\n      0x40\n        /* \"#utility.yul\":14325:14334   */\n      mload\n        /* \"#utility.yul\":14315:14334   */\n      swap1\n      pop\n        /* \"#utility.yul\":14265:14340   */\n      swap1\n      jump\t// out\n        /* \"#utility.yul\":14346:14654   */\n    tag_139:\n        /* \"#utility.yul\":14408:14412   */\n      0x00\n        /* \"#utility.yul\":14498:14516   */\n      0xffffffffffffffff\n        /* \"#utility.yul\":14490:14496   */\n      dup3\n        /* \"#utility.yul\":14487:14517   */\n      gt\n        /* \"#utility.yul\":14484:14540   */\n      iszero\n      tag_319\n      jumpi\n        /* \"#utility.yul\":14520:14538   */\n      tag_320\n      tag_321\n      jump\t// in\n    tag_320:\n        /* \"#utility.yul\":14484:14540   */\n    tag_319:\n        /* \"#utility.yul\":14558:14587   */\n      tag_322\n        /* \"#utility.yul\":14580:14586   */\n      dup3\n        /* \"#utility.yul\":14558:14587   */\n      tag_227\n      jump\t// in\n    tag_322:\n        /* \"#utility.yul\":14550:14587   */\n      swap1\n      pop\n        /* \"#utility.yul\":14642:14646   */\n      0x20\n        /* \"#utility.yul\":14636:14640   */\n      dup2\n        /* \"#utility.yul\":14632:14647   */\n      add\n        /* \"#utility.yul\":14624:14647   */\n      swap1\n      pop\n        /* \"#utility.yul\":14346:14654   */\n      swap2\n      swap1\n      pop\n      jump\t// out\n        /* \"#utility.yul\":14660:14792   */\n    tag_207:\n        /* \"#utility.yul\":14727:14731   */\n      0x00\n        /* \"#utility.yul\":14750:14753   */\n      dup2\n        /* \"#utility.yul\":14742:14753   */\n      swap1\n      pop\n        /* \"#utility.yul\":14780:14784   */\n      0x20\n        /* \"#utility.yul\":14775:14778   */\n      dup3\n        /* \"#utility.yul\":14771:14785   */\n      add\n        /* \"#utility.yul\":14763:14785   */\n      swap1\n      pop\n        /* \"#utility.yul\":14660:14792   */\n      swap2\n      swap1\n      pop\n      jump\t// out\n        /* \"#utility.yul\":14798:14912   */\n    tag_203:\n        /* \"#utility.yul\":14865:14871   */\n      0x00\n        /* \"#utility.yul\":14899:14904   */\n      dup2\n        /* \"#utility.yul\":14893:14905   */\n      mload\n        /* \"#utility.yul\":14883:14905   */\n      swap1\n      pop\n        /* \"#utility.yul\":14798:14912   */\n      swap2\n      swap1\n      pop\n      jump\t// out\n        /* \"#utility.yul\":14918:15017   */\n    tag_221:\n        /* \"#utility.yul\":14970:14976   */\n      0x00\n        /* \"#utility.yul\":15004:15009   */\n      dup2\n        /* \"#utility.yul\":14998:15010   */\n      mload\n        /* \"#utility.yul\":14988:15010   */\n      swap1\n      pop\n        /* \"#utility.yul\":14918:15017   */\n      swap2\n      swap1\n      pop\n      jump\t// out\n        /* \"#utility.yul\":15023:15136   */\n    tag_213:\n        /* \"#utility.yul\":15093:15097   */\n      0x00\n        /* \"#utility.yul\":15125:15129   */\n      0x20\n        /* \"#utility.yul\":15120:15123   */\n      dup3\n        /* \"#utility.yul\":15116:15130   */\n      add\n        /* \"#utility.yul\":15108:15130   */\n      swap1\n      pop\n        /* \"#utility.yul\":15023:15136   */\n      swap2\n      swap1\n      pop\n      jump\t// out\n        /* \"#utility.yul\":15142:15326   */\n    tag_205:\n        /* \"#utility.yul\":15241:15252   */\n      0x00\n        /* \"#utility.yul\":15275:15281   */\n      dup3\n        /* \"#utility.yul\":15270:15273   */\n      dup3\n        /* \"#utility.yul\":15263:15282   */\n      mstore\n        /* \"#utility.yul\":15315:15319   */\n      0x20\n        /* \"#utility.yul\":15310:15313   */\n      dup3\n        /* \"#utility.yul\":15306:15320   */\n      add\n        /* \"#utility.yul\":15291:15320   */\n      swap1\n      pop\n        /* \"#utility.yul\":15142:15326   */\n      swap3\n      swap2\n      pop\n      pop\n      jump\t// out\n        /* \"#utility.yul\":15332:15501   */\n    tag_223:\n        /* \"#utility.yul\":15416:15427   */\n      0x00\n        /* \"#utility.yul\":15450:15456   */\n      dup3\n        /* \"#utility.yul\":15445:15448   */\n      dup3\n        /* \"#utility.yul\":15438:15457   */\n      mstore\n        /* \"#utility.yul\":15490:15494   */\n      0x20\n        /* \"#utility.yul\":15485:15488   */\n      dup3\n        /* \"#utility.yul\":15481:15495   */\n      add\n        /* \"#utility.yul\":15466:15495   */\n      swap1\n      pop\n        /* \"#utility.yul\":15332:15501   */\n      swap3\n      swap2\n      pop\n      pop\n      jump\t// out\n        /* \"#utility.yul\":15507:15655   */\n    tag_232:\n        /* \"#utility.yul\":15609:15620   */\n      0x00\n        /* \"#utility.yul\":15646:15649   */\n      dup2\n        /* \"#utility.yul\":15631:15649   */\n      swap1\n      pop\n        /* \"#utility.yul\":15507:15655   */\n      swap3\n      swap2\n      pop\n      pop\n      jump\t// out\n        /* \"#utility.yul\":15661:15966   */\n    tag_78:\n        /* \"#utility.yul\":15701:15704   */\n      0x00\n        /* \"#utility.yul\":15720:15740   */\n      tag_331\n        /* \"#utility.yul\":15738:15739   */\n      dup3\n        /* \"#utility.yul\":15720:15740   */\n      tag_266\n      jump\t// in\n    tag_331:\n        /* \"#utility.yul\":15715:15740   */\n      swap2\n      pop\n        /* \"#utility.yul\":15754:15774   */\n      tag_332\n        /* \"#utility.yul\":15772:15773   */\n      dup4\n        /* \"#utility.yul\":15754:15774   */\n      tag_266\n      jump\t// in\n    tag_332:\n        /* \"#utility.yul\":15749:15774   */\n      swap3\n      pop\n        /* \"#utility.yul\":15908:15909   */\n      dup3\n        /* \"#utility.yul\":15840:15906   */\n      0xffffffffffffffffffffffffffffffffffffffffffffffffffffffffffffffff\n        /* \"#utility.yul\":15836:15910   */\n      sub\n        /* \"#utility.yul\":15833:15834   */\n      dup3\n        /* \"#utility.yul\":15830:15911   */\n      gt\n        /* \"#utility.yul\":15827:15934   */\n      iszero\n      tag_333\n      jumpi\n        /* \"#utility.yul\":15914:15932   */\n      tag_334\n      tag_335\n      jump\t// in\n    tag_334:\n        /* \"#utility.yul\":15827:15934   */\n    tag_333:\n        /* \"#utility.yul\":15958:15959   */\n      dup3\n        /* \"#utility.yul\":15955:15956   */\n      dup3\n        /* \"#utility.yul\":15951:15960   */\n      add\n        /* \"#utility.yul\":15944:15960   */\n      swap1\n      pop\n        /* \"#utility.yul\":15661:15966   */\n      swap3\n      swap2\n      pop\n      pop\n      jump\t// out\n        /* \"#utility.yul\":15972:16320   */\n    tag_65:\n        /* \"#utility.yul\":16012:16019   */\n      0x00\n        /* \"#utility.yul\":16035:16055   */\n      tag_337\n        /* \"#utility.yul\":16053:16054   */\n      dup3\n        /* \"#utility.yul\":16035:16055   */\n      tag_266\n      jump\t// in\n    tag_337:\n        /* \"#utility.yul\":16030:16055   */\n      swap2\n      pop\n        /* \"#utility.yul\":16069:16089   */\n      tag_338\n        /* \"#utility.yul\":16087:16088   */\n      dup4\n        /* \"#utility.yul\":16069:16089   */\n      tag_266\n      jump\t// in\n    tag_338:\n        /* \"#utility.yul\":16064:16089   */\n      swap3\n      pop\n        /* \"#utility.yul\":16257:16258   */\n      dup2\n        /* \"#utility.yul\":16189:16255   */\n      0xffffffffffffffffffffffffffffffffffffffffffffffffffffffffffffffff\n        /* \"#utility.yul\":16185:16259   */\n      div\n        /* \"#utility.yul\":16182:16183   */\n      dup4\n        /* \"#utility.yul\":16179:16260   */\n      gt\n        /* \"#utility.yul\":16174:16175   */\n      dup3\n        /* \"#utility.yul\":16167:16176   */\n      iszero\n        /* \"#utility.yul\":16160:16177   */\n      iszero\n        /* \"#utility.yul\":16156:16261   */\n      and\n        /* \"#utility.yul\":16153:16284   */\n      iszero\n      tag_339\n      jumpi\n        /* \"#utility.yul\":16264:16282   */\n      tag_340\n      tag_335\n      jump\t// in\n    tag_340:\n        /* \"#utility.yul\":16153:16284   */\n    tag_339:\n        /* \"#utility.yul\":16312:16313   */\n      dup3\n        /* \"#utility.yul\":16309:16310   */\n      dup3\n        /* \"#utility.yul\":16305:16314   */\n      mul\n        /* \"#utility.yul\":16294:16314   */\n      swap1\n      pop\n        /* \"#utility.yul\":15972:16320   */\n      swap3\n      swap2\n      pop\n      pop\n      jump\t// out\n        /* \"#utility.yul\":16326:16422   */\n    tag_194:\n        /* \"#utility.yul\":16363:16370   */\n      0x00\n        /* \"#utility.yul\":16392:16416   */\n      tag_342\n        /* \"#utility.yul\":16410:16415   */\n      dup3\n        /* \"#utility.yul\":16392:16416   */\n      tag_343\n      jump\t// in\n    tag_342:\n        /* \"#utility.yul\":16381:16416   */\n      swap1\n      pop\n        /* \"#utility.yul\":16326:16422   */\n      swap2\n      swap1\n      pop\n      jump\t// out\n        /* \"#utility.yul\":16428:16518   */\n    tag_217:\n        /* \"#utility.yul\":16462:16469   */\n      0x00\n        /* \"#utility.yul\":16505:16510   */\n      dup2\n        /* \"#utility.yul\":16498:16511   */\n      iszero\n        /* \"#utility.yul\":16491:16512   */\n      iszero\n        /* \"#utility.yul\":16480:16512   */\n      swap1\n      pop\n        /* \"#utility.yul\":16428:16518   */\n      swap2\n      swap1\n      pop\n      jump\t// out\n        /* \"#utility.yul\":16524:16650   */\n    tag_343:\n        /* \"#utility.yul\":16561:16568   */\n      0x00\n        /* \"#utility.yul\":16601:16643   */\n      0xffffffffffffffffffffffffffffffffffffffff\n        /* \"#utility.yul\":16594:16599   */\n      dup3\n        /* \"#utility.yul\":16590:16644   */\n      and\n        /* \"#utility.yul\":16579:16644   */\n      swap1\n      pop\n        /* \"#utility.yul\":16524:16650   */\n      swap2\n      swap1\n      pop\n      jump\t// out\n        /* \"#utility.yul\":16656:16733   */\n    tag_266:\n        /* \"#utility.yul\":16693:16700   */\n      0x00\n        /* \"#utility.yul\":16722:16727   */\n      dup2\n        /* \"#utility.yul\":16711:16727   */\n      swap1\n      pop\n        /* \"#utility.yul\":16656:16733   */\n      swap2\n      swap1\n      pop\n      jump\t// out\n        /* \"#utility.yul\":16739:16893   */\n    tag_145:\n        /* \"#utility.yul\":16823:16829   */\n      dup3\n        /* \"#utility.yul\":16818:16821   */\n      dup2\n        /* \"#utility.yul\":16813:16816   */\n      dup4\n        /* \"#utility.yul\":16800:16830   */\n      calldatacopy\n        /* \"#utility.yul\":16885:16886   */\n      0x00\n        /* \"#utility.yul\":16876:16882   */\n      dup4\n        /* \"#utility.yul\":16871:16874   */\n      dup4\n        /* \"#utility.yul\":16867:16883   */\n      add\n        /* \"#utility.yul\":16860:16887   */\n      mstore\n        /* \"#utility.yul\":16739:16893   */\n      pop\n      pop\n      pop\n      jump\t// out\n        /* \"#utility.yul\":16899:17206   */\n    tag_225:\n        /* \"#utility.yul\":16967:16968   */\n      0x00\n        /* \"#utility.yul\":16977:17090   */\n    tag_349:\n        /* \"#utility.yul\":16991:16997   */\n      dup4\n        /* \"#utility.yul\":16988:16989   */\n      dup2\n        /* \"#utility.yul\":16985:16998   */\n      lt\n        /* \"#utility.yul\":16977:17090   */\n      iszero\n      tag_351\n      jumpi\n        /* \"#utility.yul\":17076:17077   */\n      dup1\n        /* \"#utility.yul\":17071:17074   */\n      dup3\n        /* \"#utility.yul\":17067:17078   */\n      add\n        /* \"#utility.yul\":17061:17079   */\n      mload\n        /* \"#utility.yul\":17057:17058   */\n      dup2\n        /* \"#utility.yul\":17052:17055   */\n      dup5\n        /* \"#utility.yul\":17048:17059   */\n      add\n        /* \"#utility.yul\":17041:17080   */\n      mstore\n        /* \"#utility.yul\":17013:17015   */\n      0x20\n        /* \"#utility.yul\":17010:17011   */\n      dup2\n        /* \"#utility.yul\":17006:17016   */\n      add\n        /* \"#utility.yul\":17001:17016   */\n      swap1\n      pop\n        /* \"#utility.yul\":16977:17090   */\n      jump(tag_349)\n    tag_351:\n        /* \"#utility.yul\":17108:17114   */\n      dup4\n        /* \"#utility.yul\":17105:17106   */\n      dup2\n        /* \"#utility.yul\":17102:17115   */\n      gt\n        /* \"#utility.yul\":17099:17200   */\n      iszero\n      tag_352\n      jumpi\n        /* \"#utility.yul\":17188:17189   */\n      0x00\n        /* \"#utility.yul\":17179:17185   */\n      dup5\n        /* \"#utility.yul\":17174:17177   */\n      dup5\n        /* \"#utility.yul\":17170:17186   */\n      add\n        /* \"#utility.yul\":17163:17190   */\n      mstore\n        /* \"#utility.yul\":17099:17200   */\n    tag_352:\n        /* \"#utility.yul\":16948:17206   */\n      pop\n        /* \"#utility.yul\":16899:17206   */\n      pop\n      pop\n      pop\n      jump\t// out\n        /* \"#utility.yul\":17212:17532   */\n    tag_85:\n        /* \"#utility.yul\":17256:17262   */\n      0x00\n        /* \"#utility.yul\":17293:17294   */\n      0x02\n        /* \"#utility.yul\":17287:17291   */\n      dup3\n        /* \"#utility.yul\":17283:17295   */\n      div\n        /* \"#utility.yul\":17273:17295   */\n      swap1\n      pop\n        /* \"#utility.yul\":17340:17341   */\n      0x01\n        /* \"#utility.yul\":17334:17338   */\n      dup3\n        /* \"#utility.yul\":17330:17342   */\n      and\n        /* \"#utility.yul\":17361:17379   */\n      dup1\n        /* \"#utility.yul\":17351:17432   */\n      tag_354\n      jumpi\n        /* \"#utility.yul\":17417:17421   */\n      0x7f\n        /* \"#utility.yul\":17409:17415   */\n      dup3\n        /* \"#utility.yul\":17405:17422   */\n      and\n        /* \"#utility.yul\":17395:17422   */\n      swap2\n      pop\n        /* \"#utility.yul\":17351:17432   */\n    tag_354:\n        /* \"#utility.yul\":17479:17481   */\n      0x20\n        /* \"#utility.yul\":17471:17477   */\n      dup3\n        /* \"#utility.yul\":17468:17482   */\n      lt\n        /* \"#utility.yul\":17448:17466   */\n      dup2\n        /* \"#utility.yul\":17445:17483   */\n      eq\n        /* \"#utility.yul\":17442:17526   */\n      iszero\n      tag_355\n      jumpi\n        /* \"#utility.yul\":17498:17516   */\n      tag_356\n      tag_357\n      jump\t// in\n    tag_356:\n        /* \"#utility.yul\":17442:17526   */\n    tag_355:\n        /* \"#utility.yul\":17263:17532   */\n      pop\n        /* \"#utility.yul\":17212:17532   */\n      swap2\n      swap1\n      pop\n      jump\t// out\n        /* \"#utility.yul\":17538:17819   */\n    tag_316:\n        /* \"#utility.yul\":17621:17648   */\n      tag_359\n        /* \"#utility.yul\":17643:17647   */\n      dup3\n        /* \"#utility.yul\":17621:17648   */\n      tag_227\n      jump\t// in\n    tag_359:\n        /* \"#utility.yul\":17613:17619   */\n      dup2\n        /* \"#utility.yul\":17609:17649   */\n      add\n        /* \"#utility.yul\":17751:17757   */\n      dup2\n        /* \"#utility.yul\":17739:17749   */\n      dup2\n        /* \"#utility.yul\":17736:17758   */\n      lt\n        /* \"#utility.yul\":17715:17733   */\n      0xffffffffffffffff\n        /* \"#utility.yul\":17703:17713   */\n      dup3\n        /* \"#utility.yul\":17700:17734   */\n      gt\n        /* \"#utility.yul\":17697:17759   */\n      or\n        /* \"#utility.yul\":17694:17782   */\n      iszero\n      tag_360\n      jumpi\n        /* \"#utility.yul\":17762:17780   */\n      tag_361\n      tag_321\n      jump\t// in\n    tag_361:\n        /* \"#utility.yul\":17694:17782   */\n    tag_360:\n        /* \"#utility.yul\":17802:17812   */\n      dup1\n        /* \"#utility.yul\":17798:17800   */\n      0x40\n        /* \"#utility.yul\":17791:17813   */\n      mstore\n        /* \"#utility.yul\":17581:17819   */\n      pop\n        /* \"#utility.yul\":17538:17819   */\n      pop\n      pop\n      jump\t// out\n        /* \"#utility.yul\":17825:18058   */\n    tag_81:\n        /* \"#utility.yul\":17864:17867   */\n      0x00\n        /* \"#utility.yul\":17887:17911   */\n      tag_363\n        /* \"#utility.yul\":17905:17910   */\n      dup3\n        /* \"#utility.yul\":17887:17911   */\n      tag_266\n      jump\t// in\n    tag_363:\n        /* \"#utility.yul\":17878:17911   */\n      swap2\n      pop\n        /* \"#utility.yul\":17933:17999   */\n      0xffffffffffffffffffffffffffffffffffffffffffffffffffffffffffffffff\n        /* \"#utility.yul\":17926:17931   */\n      dup3\n        /* \"#utility.yul\":17923:18000   */\n      eq\n        /* \"#utility.yul\":17920:18023   */\n      iszero\n      tag_364\n      jumpi\n        /* \"#utility.yul\":18003:18021   */\n      tag_365\n      tag_335\n      jump\t// in\n    tag_365:\n        /* \"#utility.yul\":17920:18023   */\n    tag_364:\n        /* \"#utility.yul\":18050:18051   */\n      0x01\n        /* \"#utility.yul\":18043:18048   */\n      dup3\n        /* \"#utility.yul\":18039:18052   */\n      add\n        /* \"#utility.yul\":18032:18052   */\n      swap1\n      pop\n        /* \"#utility.yul\":17825:18058   */\n      swap2\n      swap1\n      pop\n      jump\t// out\n        /* \"#utility.yul\":18064:18164   */\n    tag_199:\n        /* \"#utility.yul\":18103:18110   */\n      0x00\n        /* \"#utility.yul\":18132:18158   */\n      tag_367\n        /* \"#utility.yul\":18152:18157   */\n      dup3\n        /* \"#utility.yul\":18132:18158   */\n      tag_368\n      jump\t// in\n    tag_367:\n        /* \"#utility.yul\":18121:18158   */\n      swap1\n      pop\n        /* \"#utility.yul\":18064:18164   */\n      swap2\n      swap1\n      pop\n      jump\t// out\n        /* \"#utility.yul\":18170:18264   */\n    tag_368:\n        /* \"#utility.yul\":18209:18216   */\n      0x00\n        /* \"#utility.yul\":18238:18258   */\n      tag_370\n        /* \"#utility.yul\":18252:18257   */\n      dup3\n        /* \"#utility.yul\":18238:18258   */\n      tag_371\n      jump\t// in\n    tag_370:\n        /* \"#utility.yul\":18227:18258   */\n      swap1\n      pop\n        /* \"#utility.yul\":18170:18264   */\n      swap2\n      swap1\n      pop\n      jump\t// out\n        /* \"#utility.yul\":18270:18349   */\n    tag_274:\n        /* \"#utility.yul\":18309:18316   */\n      0x00\n        /* \"#utility.yul\":18338:18343   */\n      dup2\n        /* \"#utility.yul\":18327:18343   */\n      swap1\n      pop\n        /* \"#utility.yul\":18270:18349   */\n      swap2\n      swap1\n      pop\n      jump\t// out\n        /* \"#utility.yul\":18355:18531   */\n    tag_122:\n        /* \"#utility.yul\":18387:18388   */\n      0x00\n        /* \"#utility.yul\":18404:18424   */\n      tag_374\n        /* \"#utility.yul\":18422:18423   */\n      dup3\n        /* \"#utility.yul\":18404:18424   */\n      tag_266\n      jump\t// in\n    tag_374:\n        /* \"#utility.yul\":18399:18424   */\n      swap2\n      pop\n        /* \"#utility.yul\":18438:18458   */\n      tag_375\n        /* \"#utility.yul\":18456:18457   */\n      dup4\n        /* \"#utility.yul\":18438:18458   */\n      tag_266\n      jump\t// in\n    tag_375:\n        /* \"#utility.yul\":18433:18458   */\n      swap3\n      pop\n        /* \"#utility.yul\":18477:18478   */\n      dup3\n        /* \"#utility.yul\":18467:18502   */\n      tag_376\n      jumpi\n        /* \"#utility.yul\":18482:18500   */\n      tag_377\n      tag_378\n      jump\t// in\n    tag_377:\n        /* \"#utility.yul\":18467:18502   */\n    tag_376:\n        /* \"#utility.yul\":18523:18524   */\n      dup3\n        /* \"#utility.yul\":18520:18521   */\n      dup3\n        /* \"#utility.yul\":18516:18525   */\n      mod\n        /* \"#utility.yul\":18511:18525   */\n      swap1\n      pop\n        /* \"#utility.yul\":18355:18531   */\n      swap3\n      swap2\n      pop\n      pop\n      jump\t// out\n        /* \"#utility.yul\":18537:18717   */\n    tag_335:\n        /* \"#utility.yul\":18585:18662   */\n      0x4e487b7100000000000000000000000000000000000000000000000000000000\n        /* \"#utility.yul\":18582:18583   */\n      0x00\n        /* \"#utility.yul\":18575:18663   */\n      mstore\n        /* \"#utility.yul\":18682:18686   */\n      0x11\n        /* \"#utility.yul\":18679:18680   */\n      0x04\n        /* \"#utility.yul\":18672:18687   */\n      mstore\n        /* \"#utility.yul\":18706:18710   */\n      0x24\n        /* \"#utility.yul\":18703:18704   */\n      0x00\n        /* \"#utility.yul\":18696:18711   */\n      revert\n        /* \"#utility.yul\":18723:18903   */\n    tag_378:\n        /* \"#utility.yul\":18771:18848   */\n      0x4e487b7100000000000000000000000000000000000000000000000000000000\n        /* \"#utility.yul\":18768:18769   */\n      0x00\n        /* \"#utility.yul\":18761:18849   */\n      mstore\n        /* \"#utility.yul\":18868:18872   */\n      0x12\n        /* \"#utility.yul\":18865:18866   */\n      0x04\n        /* \"#utility.yul\":18858:18873   */\n      mstore\n        /* \"#utility.yul\":18892:18896   */\n      0x24\n        /* \"#utility.yul\":18889:18890   */\n      0x00\n        /* \"#utility.yul\":18882:18897   */\n      revert\n        /* \"#utility.yul\":18909:19089   */\n    tag_357:\n        /* \"#utility.yul\":18957:19034   */\n      0x4e487b7100000000000000000000000000000000000000000000000000000000\n        /* \"#utility.yul\":18954:18955   */\n      0x00\n        /* \"#utility.yul\":18947:19035   */\n      mstore\n        /* \"#utility.yul\":19054:19058   */\n      0x22\n        /* \"#utility.yul\":19051:19052   */\n      0x04\n        /* \"#utility.yul\":19044:19059   */\n      mstore\n        /* \"#utility.yul\":19078:19082   */\n      0x24\n        /* \"#utility.yul\":19075:19076   */\n      0x00\n        /* \"#utility.yul\":19068:19083   */\n      revert\n        /* \"#utility.yul\":19095:19275   */\n    tag_103:\n        /* \"#utility.yul\":19143:19220   */\n      0x4e487b7100000000000000000000000000000000000000000000000000000000\n        /* \"#utility.yul\":19140:19141   */\n      0x00\n        /* \"#utility.yul\":19133:19221   */\n      mstore\n        /* \"#utility.yul\":19240:19244   */\n      0x32\n        /* \"#utility.yul\":19237:19238   */\n      0x04\n        /* \"#utility.yul\":19230:19245   */\n      mstore\n        /* \"#utility.yul\":19264:19268   */\n      0x24\n        /* \"#utility.yul\":19261:19262   */\n      0x00\n        /* \"#utility.yul\":19254:19269   */\n      revert\n        /* \"#utility.yul\":19281:19461   */\n    tag_321:\n        /* \"#utility.yul\":19329:19406   */\n      0x4e487b7100000000000000000000000000000000000000000000000000000000\n        /* \"#utility.yul\":19326:19327   */\n      0x00\n        /* \"#utility.yul\":19319:19407   */\n      mstore\n        /* \"#utility.yul\":19426:19430   */\n      0x41\n        /* \"#utility.yul\":19423:19424   */\n      0x04\n        /* \"#utility.yul\":19416:19431   */\n      mstore\n        /* \"#utility.yul\":19450:19454   */\n      0x24\n        /* \"#utility.yul\":19447:19448   */\n      0x00\n        /* \"#utility.yul\":19440:19455   */\n      revert\n        /* \"#utility.yul\":19467:19584   */\n    tag_154:\n        /* \"#utility.yul\":19576:19577   */\n      0x00\n        /* \"#utility.yul\":19573:19574   */\n      dup1\n        /* \"#utility.yul\":19566:19578   */\n      revert\n        /* \"#utility.yul\":19590:19707   */\n    tag_143:\n        /* \"#utility.yul\":19699:19700   */\n      0x00\n        /* \"#utility.yul\":19696:19697   */\n      dup1\n        /* \"#utility.yul\":19689:19701   */\n      revert\n        /* \"#utility.yul\":19713:19830   */\n    tag_177:\n        /* \"#utility.yul\":19822:19823   */\n      0x00\n        /* \"#utility.yul\":19819:19820   */\n      dup1\n        /* \"#utility.yul\":19812:19824   */\n      revert\n        /* \"#utility.yul\":19836:19953   */\n    tag_163:\n        /* \"#utility.yul\":19945:19946   */\n      0x00\n        /* \"#utility.yul\":19942:19943   */\n      dup1\n        /* \"#utility.yul\":19935:19947   */\n      revert\n        /* \"#utility.yul\":19959:20061   */\n    tag_227:\n        /* \"#utility.yul\":20000:20006   */\n      0x00\n        /* \"#utility.yul\":20051:20053   */\n      0x1f\n        /* \"#utility.yul\":20047:20054   */\n      not\n        /* \"#utility.yul\":20042:20044   */\n      0x1f\n        /* \"#utility.yul\":20035:20040   */\n      dup4\n        /* \"#utility.yul\":20031:20045   */\n      add\n        /* \"#utility.yul\":20027:20055   */\n      and\n        /* \"#utility.yul\":20017:20055   */\n      swap1\n      pop\n        /* \"#utility.yul\":19959:20061   */\n      swap2\n      swap1\n      pop\n      jump\t// out\n        /* \"#utility.yul\":20067:20161   */\n    tag_371:\n        /* \"#utility.yul\":20100:20108   */\n      0x00\n        /* \"#utility.yul\":20148:20153   */\n      dup2\n        /* \"#utility.yul\":20144:20146   */\n      0x60\n        /* \"#utility.yul\":20140:20154   */\n      shl\n        /* \"#utility.yul\":20119:20154   */\n      swap1\n      pop\n        /* \"#utility.yul\":20067:20161   */\n      swap2\n      swap1\n      pop\n      jump\t// out\n        /* \"#utility.yul\":20167:20392   */\n    tag_238:\n        /* \"#utility.yul\":20307:20341   */\n      0x4f776e61626c653a206e6577206f776e657220697320746865207a65726f2061\n        /* \"#utility.yul\":20303:20304   */\n      0x00\n        /* \"#utility.yul\":20295:20301   */\n      dup3\n        /* \"#utility.yul\":20291:20305   */\n      add\n        /* \"#utility.yul\":20284:20342   */\n      mstore\n        /* \"#utility.yul\":20376:20384   */\n      0x6464726573730000000000000000000000000000000000000000000000000000\n        /* \"#utility.yul\":20371:20373   */\n      0x20\n        /* \"#utility.yul\":20363:20369   */\n      dup3\n        /* \"#utility.yul\":20359:20374   */\n      add\n        /* \"#utility.yul\":20352:20385   */\n      mstore\n        /* \"#utility.yul\":20167:20392   */\n      pop\n      jump\t// out\n        /* \"#utility.yul\":20398:20568   */\n    tag_243:\n        /* \"#utility.yul\":20538:20560   */\n      0x76616c75652063616e6e6f74206265206e756c6c000000000000000000000000\n        /* \"#utility.yul\":20534:20535   */\n      0x00\n        /* \"#utility.yul\":20526:20532   */\n      dup3\n        /* \"#utility.yul\":20522:20536   */\n      add\n        /* \"#utility.yul\":20515:20561   */\n      mstore\n        /* \"#utility.yul\":20398:20568   */\n      pop\n      jump\t// out\n        /* \"#utility.yul\":20574:20796   */\n    tag_248:\n        /* \"#utility.yul\":20714:20748   */\n      0x546865206f776e65722063616e6e6f7420796574206164642061206e65772068\n        /* \"#utility.yul\":20710:20711   */\n      0x00\n        /* \"#utility.yul\":20702:20708   */\n      dup3\n        /* \"#utility.yul\":20698:20712   */\n      add\n        /* \"#utility.yul\":20691:20749   */\n      mstore\n        /* \"#utility.yul\":20783:20788   */\n      0x6f6d650000000000000000000000000000000000000000000000000000000000\n        /* \"#utility.yul\":20778:20780   */\n      0x20\n        /* \"#utility.yul\":20770:20776   */\n      dup3\n        /* \"#utility.yul\":20766:20781   */\n      add\n        /* \"#utility.yul\":20759:20789   */\n      mstore\n        /* \"#utility.yul\":20574:20796   */\n      pop\n      jump\t// out\n        /* \"#utility.yul\":20802:20984   */\n    tag_253:\n        /* \"#utility.yul\":20942:20976   */\n      0x4f776e61626c653a2063616c6c6572206973206e6f7420746865206f776e6572\n        /* \"#utility.yul\":20938:20939   */\n      0x00\n        /* \"#utility.yul\":20930:20936   */\n      dup3\n        /* \"#utility.yul\":20926:20940   */\n      add\n        /* \"#utility.yul\":20919:20977   */\n      mstore\n        /* \"#utility.yul\":20802:20984   */\n      pop\n      jump\t// out\n        /* \"#utility.yul\":20990:21167   */\n    tag_258:\n        /* \"#utility.yul\":21130:21159   */\n      0x7468697320686f757365496420616c7265616479206578697374730000000000\n        /* \"#utility.yul\":21126:21127   */\n      0x00\n        /* \"#utility.yul\":21118:21124   */\n      dup3\n        /* \"#utility.yul\":21114:21128   */\n      add\n        /* \"#utility.yul\":21107:21160   */\n      mstore\n        /* \"#utility.yul\":20990:21167   */\n      pop\n      jump\t// out\n        /* \"#utility.yul\":21173:21403   */\n    tag_263:\n        /* \"#utility.yul\":21313:21347   */\n      0x596f7520646f206e6f7420686176652061636365737320746f2064656c657465\n        /* \"#utility.yul\":21309:21310   */\n      0x00\n        /* \"#utility.yul\":21301:21307   */\n      dup3\n        /* \"#utility.yul\":21297:21311   */\n      add\n        /* \"#utility.yul\":21290:21348   */\n      mstore\n        /* \"#utility.yul\":21382:21395   */\n      0x207468697320686f757365000000000000000000000000000000000000000000\n        /* \"#utility.yul\":21377:21379   */\n      0x20\n        /* \"#utility.yul\":21369:21375   */\n      dup3\n        /* \"#utility.yul\":21365:21380   */\n      add\n        /* \"#utility.yul\":21358:21396   */\n      mstore\n        /* \"#utility.yul\":21173:21403   */\n      pop\n      jump\t// out\n        /* \"#utility.yul\":21409:21531   */\n    tag_149:\n        /* \"#utility.yul\":21482:21506   */\n      tag_397\n        /* \"#utility.yul\":21500:21505   */\n      dup2\n        /* \"#utility.yul\":21482:21506   */\n      tag_194\n      jump\t// in\n    tag_397:\n        /* \"#utility.yul\":21475:21480   */\n      dup2\n        /* \"#utility.yul\":21472:21507   */\n      eq\n        /* \"#utility.yul\":21462:21525   */\n      tag_398\n      jumpi\n        /* \"#utility.yul\":21521:21522   */\n      0x00\n        /* \"#utility.yul\":21518:21519   */\n      dup1\n        /* \"#utility.yul\":21511:21523   */\n      revert\n        /* \"#utility.yul\":21462:21525   */\n    tag_398:\n        /* \"#utility.yul\":21409:21531   */\n      pop\n      jump\t// out\n        /* \"#utility.yul\":21537:21659   */\n    tag_159:\n        /* \"#utility.yul\":21610:21634   */\n      tag_400\n        /* \"#utility.yul\":21628:21633   */\n      dup2\n        /* \"#utility.yul\":21610:21634   */\n      tag_266\n      jump\t// in\n    tag_400:\n        /* \"#utility.yul\":21603:21608   */\n      dup2\n        /* \"#utility.yul\":21600:21635   */\n      eq\n        /* \"#utility.yul\":21590:21653   */\n      tag_401\n      jumpi\n        /* \"#utility.yul\":21649:21650   */\n      0x00\n        /* \"#utility.yul\":21646:21647   */\n      dup1\n        /* \"#utility.yul\":21639:21651   */\n      revert\n        /* \"#utility.yul\":21590:21653   */\n    tag_401:\n        /* \"#utility.yul\":21537:21659   */\n      pop\n      jump\t// out\n\n    auxdata: 0xa26469706673582212209ceea5c5fa485903ccb1b31c0a806683f7c8b1a81f4b276aa969dfd389a7042964736f6c63430008070033\n}\n",
				"bytecode": {
					"linkReferences": {},
					"object": "60806040526005600255600254600a6200001a919062000182565b600355600160045560016005553480156200003457600080fd5b5062000055620000496200005b60201b60201c565b6200006360201b60201c565b62000305565b600033905090565b60008060009054906101000a900473ffffffffffffffffffffffffffffffffffffffff169050816000806101000a81548173ffffffffffffffffffffffffffffffffffffffff021916908373ffffffffffffffffffffffffffffffffffffffff1602179055508173ffffffffffffffffffffffffffffffffffffffff168173ffffffffffffffffffffffffffffffffffffffff167f8be0079c531659141344cd1fd0a4f28419497f9722a3daafe3b4186f6b6457e060405160405180910390a35050565b6000808291508390505b60018511156200017957808604811115620001515762000150620002c9565b5b6001851615620001615780820291505b80810290506200017185620002f8565b945062000131565b94509492505050565b60006200018f82620002bf565b91506200019c83620002bf565b9250620001cb7fffffffffffffffffffffffffffffffffffffffffffffffffffffffffffffffff8484620001d3565b905092915050565b600082620001e55760019050620002b8565b81620001f55760009050620002b8565b81600181146200020e576002811462000219576200024f565b6001915050620002b8565b60ff8411156200022e576200022d620002c9565b5b8360020a915084821115620002485762000247620002c9565b5b50620002b8565b5060208310610133831016604e8410600b8410161715620002895782820a905083811115620002835762000282620002c9565b5b620002b8565b62000298848484600162000127565b92509050818404811115620002b257620002b1620002c9565b5b81810290505b9392505050565b6000819050919050565b7f4e487b7100000000000000000000000000000000000000000000000000000000600052601160045260246000fd5b60008160011c9050919050565b61166d80620003156000396000f3fe608060405234801561001057600080fd5b50600436106100885760003560e01c8063aeda852f1161005b578063aeda852f14610115578063be40a73e1461014b578063c45e1b2514610167578063f2fde38b1461019757610088565b80633c3b0b4a1461008d578063715018a6146100bd5780638da5cb5b146100c757806391bfe0d4146100e5575b600080fd5b6100a760048036038101906100a29190610b19565b6101b3565b6040516100b49190610eca565b60405180910390f35b6100c56102c5565b005b6100cf61034d565b6040516100dc9190610e8d565b60405180910390f35b6100ff60048036038101906100fa9190610b46565b610376565b60405161010c9190610fac565b60405180910390f35b61012f600480360381019061012a9190610b19565b6105b4565b6040516101429796959493929190611013565b60405180910390f35b61016560048036038101906101609190610bc9565b6106ab565b005b610181600480360381019061017c9190610b19565b610702565b60405161018e9190610ea8565b60405180910390f35b6101b160048036038101906101ac9190610aec565b610796565b005b60603373ffffffffffffffffffffffffffffffffffffffff166006600084815260200190815260200160002060040160009054906101000a900473ffffffffffffffffffffffffffffffffffffffff1673ffffffffffffffffffffffffffffffffffffffff1614610259576040517f08c379a000000000000000000000000000000000000000000000000000000000815260040161025090610f8c565b60405180910390fd5b60016006600084815260200190815260200160002060060160006101000a81548160ff0219169083151502179055506040518060400160405280601581526020017f64656c69737420776173207375636365737366756c00000000000000000000008152509050919050565b6102cd61088e565b73ffffffffffffffffffffffffffffffffffffffff166102eb61034d565b73ffffffffffffffffffffffffffffffffffffffff1614610341576040517f08c379a000000000000000000000000000000000000000000000000000000000815260040161033890610f4c565b60405180910390fd5b61034b6000610896565b565b60008060009054906101000a900473ffffffffffffffffffffffffffffffffffffffff16905090565b60008084866103859190611195565b116103c5576040517f08c379a00000000000000000000000000000000000000000000000000000000081526004016103bc90610f0c565b60405180910390fd5b60006103d284868561095a565b9050600660008281526020019081526020016000206000015481141561042d576040517f08c379a000000000000000000000000000000000000000000000000000000000815260040161042490610f6c565b60405180910390fd5b6040518060e0016040528082815260200160055481526020018781526020018681526020018573ffffffffffffffffffffffffffffffffffffffff16815260200184815260200160001515815250600660008381526020019081526020016000206000820151816000015560208201518160010155604082015181600201556060820151816003015560808201518160040160006101000a81548173ffffffffffffffffffffffffffffffffffffffff021916908373ffffffffffffffffffffffffffffffffffffffff16021790555060a08201518160050190805190602001906105199291906109af565b5060c08201518160060160006101000a81548160ff0219169083151502179055509050506105536004544261054e919061113f565b6109a5565b60056000815480929190610566906112dc565b91905055507f8f5afd88eb4be0ac287d87970052ce9a2b453448408e3c91a695ad7509ab7194818588866040516105a09493929190610fc7565b60405180910390a180915050949350505050565b60066020528060005260406000206000915090508060000154908060010154908060020154908060030154908060040160009054906101000a900473ffffffffffffffffffffffffffffffffffffffff169080600501805461061590611279565b80601f016020809104026020016040519081016040528092919081815260200182805461064190611279565b801561068e5780601f106106635761010080835404028352916020019161068e565b820191906000526020600020905b81548152906001019060200180831161067157829003601f168201915b5050505050908060060160009054906101000a900460ff16905087565b4260015411156106f0576040517f08c379a00000000000000000000000000000000000000000000000000000000081526004016106e790610f2c565b60405180910390fd5b6106fc83833384610376565b50505050565b606080600080600190505b600554811161078b578460066000838152602001908152602001600020600201541161077857600660008281526020019081526020016000206000015483838151811061075d5761075c611411565b5b6020026020010181815250508180610774906112dc565b9250505b8080610783906112dc565b91505061070d565b508192505050919050565b61079e61088e565b73ffffffffffffffffffffffffffffffffffffffff166107bc61034d565b73ffffffffffffffffffffffffffffffffffffffff1614610812576040517f08c379a000000000000000000000000000000000000000000000000000000000815260040161080990610f4c565b60405180910390fd5b600073ffffffffffffffffffffffffffffffffffffffff168173ffffffffffffffffffffffffffffffffffffffff161415610882576040517f08c379a000000000000000000000000000000000000000000000000000000000815260040161087990610eec565b60405180910390fd5b61088b81610896565b50565b600033905090565b60008060009054906101000a900473ffffffffffffffffffffffffffffffffffffffff169050816000806101000a81548173ffffffffffffffffffffffffffffffffffffffff021916908373ffffffffffffffffffffffffffffffffffffffff1602179055508173ffffffffffffffffffffffffffffffffffffffff168173ffffffffffffffffffffffffffffffffffffffff167f8be0079c531659141344cd1fd0a4f28419497f9722a3daafe3b4186f6b6457e060405160405180910390a35050565b60008084848460405160200161097293929190610e54565b6040516020818303038152906040528051906020012060001c90506003548161099b9190611353565b9150509392505050565b8060018190555050565b8280546109bb90611279565b90600052602060002090601f0160209004810192826109dd5760008555610a24565b82601f106109f657805160ff1916838001178555610a24565b82800160010185558215610a24579182015b82811115610a23578251825591602001919060010190610a08565b5b509050610a319190610a35565b5090565b5b80821115610a4e576000816000905550600101610a36565b5090565b6000610a65610a60846110ae565b611089565b905082815260208101848484011115610a8157610a80611474565b5b610a8c848285611237565b509392505050565b600081359050610aa381611609565b92915050565b600082601f830112610abe57610abd61146f565b5b8135610ace848260208601610a52565b91505092915050565b600081359050610ae681611620565b92915050565b600060208284031215610b0257610b0161147e565b5b6000610b1084828501610a94565b91505092915050565b600060208284031215610b2f57610b2e61147e565b5b6000610b3d84828501610ad7565b91505092915050565b60008060008060808587031215610b6057610b5f61147e565b5b6000610b6e87828801610ad7565b9450506020610b7f87828801610ad7565b9350506040610b9087828801610a94565b925050606085013567ffffffffffffffff811115610bb157610bb0611479565b5b610bbd87828801610aa9565b91505092959194509250565b600080600060608486031215610be257610be161147e565b5b6000610bf086828701610ad7565b9350506020610c0186828701610ad7565b925050604084013567ffffffffffffffff811115610c2257610c21611479565b5b610c2e86828701610aa9565b9150509250925092565b6000610c448383610e1f565b60208301905092915050565b610c59816111ef565b82525050565b610c70610c6b826111ef565b611325565b82525050565b6000610c81826110ef565b610c8b8185611112565b9350610c96836110df565b8060005b83811015610cc7578151610cae8882610c38565b9750610cb983611105565b925050600181019050610c9a565b5085935050505092915050565b610cdd81611201565b82525050565b6000610cee826110fa565b610cf88185611123565b9350610d08818560208601611246565b610d1181611483565b840191505092915050565b6000610d27826110fa565b610d318185611134565b9350610d41818560208601611246565b80840191505092915050565b6000610d5a602683611123565b9150610d65826114a1565b604082019050919050565b6000610d7d601483611123565b9150610d88826114f0565b602082019050919050565b6000610da0602383611123565b9150610dab82611519565b604082019050919050565b6000610dc3602083611123565b9150610dce82611568565b602082019050919050565b6000610de6601b83611123565b9150610df182611591565b602082019050919050565b6000610e09602b83611123565b9150610e14826115ba565b604082019050919050565b610e288161122d565b82525050565b610e378161122d565b82525050565b610e4e610e498261122d565b611349565b82525050565b6000610e608286610c5f565b601482019150610e708285610e3d565b602082019150610e808284610d1c565b9150819050949350505050565b6000602082019050610ea26000830184610c50565b92915050565b60006020820190508181036000830152610ec28184610c76565b905092915050565b60006020820190508181036000830152610ee48184610ce3565b905092915050565b60006020820190508181036000830152610f0581610d4d565b9050919050565b60006020820190508181036000830152610f2581610d70565b9050919050565b60006020820190508181036000830152610f4581610d93565b9050919050565b60006020820190508181036000830152610f6581610db6565b9050919050565b60006020820190508181036000830152610f8581610dd9565b9050919050565b60006020820190508181036000830152610fa581610dfc565b9050919050565b6000602082019050610fc16000830184610e2e565b92915050565b6000608082019050610fdc6000830187610e2e565b610fe96020830186610c50565b610ff66040830185610e2e565b81810360608301526110088184610ce3565b905095945050505050565b600060e082019050611028600083018a610e2e565b6110356020830189610e2e565b6110426040830188610e2e565b61104f6060830187610e2e565b61105c6080830186610c50565b81810360a083015261106e8185610ce3565b905061107d60c0830184610cd4565b98975050505050505050565b60006110936110a4565b905061109f82826112ab565b919050565b6000604051905090565b600067ffffffffffffffff8211156110c9576110c8611440565b5b6110d282611483565b9050602081019050919050565b6000819050602082019050919050565b600081519050919050565b600081519050919050565b6000602082019050919050565b600082825260208201905092915050565b600082825260208201905092915050565b600081905092915050565b600061114a8261122d565b91506111558361122d565b9250827fffffffffffffffffffffffffffffffffffffffffffffffffffffffffffffffff0382111561118a57611189611384565b5b828201905092915050565b60006111a08261122d565b91506111ab8361122d565b9250817fffffffffffffffffffffffffffffffffffffffffffffffffffffffffffffffff04831182151516156111e4576111e3611384565b5b828202905092915050565b60006111fa8261120d565b9050919050565b60008115159050919050565b600073ffffffffffffffffffffffffffffffffffffffff82169050919050565b6000819050919050565b82818337600083830152505050565b60005b83811015611264578082015181840152602081019050611249565b83811115611273576000848401525b50505050565b6000600282049050600182168061129157607f821691505b602082108114156112a5576112a46113e2565b5b50919050565b6112b482611483565b810181811067ffffffffffffffff821117156112d3576112d2611440565b5b80604052505050565b60006112e78261122d565b91507fffffffffffffffffffffffffffffffffffffffffffffffffffffffffffffffff82141561131a57611319611384565b5b600182019050919050565b600061133082611337565b9050919050565b600061134282611494565b9050919050565b6000819050919050565b600061135e8261122d565b91506113698361122d565b925082611379576113786113b3565b5b828206905092915050565b7f4e487b7100000000000000000000000000000000000000000000000000000000600052601160045260246000fd5b7f4e487b7100000000000000000000000000000000000000000000000000000000600052601260045260246000fd5b7f4e487b7100000000000000000000000000000000000000000000000000000000600052602260045260246000fd5b7f4e487b7100000000000000000000000000000000000000000000000000000000600052603260045260246000fd5b7f4e487b7100000000000000000000000000000000000000000000000000000000600052604160045260246000fd5b600080fd5b600080fd5b600080fd5b600080fd5b6000601f19601f8301169050919050565b60008160601b9050919050565b7f4f776e61626c653a206e6577206f776e657220697320746865207a65726f206160008201527f6464726573730000000000000000000000000000000000000000000000000000602082015250565b7f76616c75652063616e6e6f74206265206e756c6c000000000000000000000000600082015250565b7f546865206f776e65722063616e6e6f7420796574206164642061206e6577206860008201527f6f6d650000000000000000000000000000000000000000000000000000000000602082015250565b7f4f776e61626c653a2063616c6c6572206973206e6f7420746865206f776e6572600082015250565b7f7468697320686f757365496420616c7265616479206578697374730000000000600082015250565b7f596f7520646f206e6f7420686176652061636365737320746f2064656c65746560008201527f207468697320686f757365000000000000000000000000000000000000000000602082015250565b611612816111ef565b811461161d57600080fd5b50565b6116298161122d565b811461163457600080fd5b5056fea26469706673582212209ceea5c5fa485903ccb1b31c0a806683f7c8b1a81f4b276aa969dfd389a7042964736f6c63430008070033",
					"opcodes": "PUSH1 0x80 PUSH1 0x40 MSTORE PUSH1 0x5 PUSH1 0x2 SSTORE PUSH1 0x2 SLOAD PUSH1 0xA PUSH3 0x1A SWAP2 SWAP1 PUSH3 0x182 JUMP JUMPDEST PUSH1 0x3 SSTORE PUSH1 0x1 PUSH1 0x4 SSTORE PUSH1 0x1 PUSH1 0x5 SSTORE CALLVALUE DUP1 ISZERO PUSH3 0x34 JUMPI PUSH1 0x0 DUP1 REVERT JUMPDEST POP PUSH3 0x55 PUSH3 0x49 PUSH3 0x5B PUSH1 0x20 SHL PUSH1 0x20 SHR JUMP JUMPDEST PUSH3 0x63 PUSH1 0x20 SHL PUSH1 0x20 SHR JUMP JUMPDEST PUSH3 0x305 JUMP JUMPDEST PUSH1 0x0 CALLER SWAP1 POP SWAP1 JUMP JUMPDEST PUSH1 0x0 DUP1 PUSH1 0x0 SWAP1 SLOAD SWAP1 PUSH2 0x100 EXP SWAP1 DIV PUSH20 0xFFFFFFFFFFFFFFFFFFFFFFFFFFFFFFFFFFFFFFFF AND SWAP1 POP DUP2 PUSH1 0x0 DUP1 PUSH2 0x100 EXP DUP2 SLOAD DUP2 PUSH20 0xFFFFFFFFFFFFFFFFFFFFFFFFFFFFFFFFFFFFFFFF MUL NOT AND SWAP1 DUP4 PUSH20 0xFFFFFFFFFFFFFFFFFFFFFFFFFFFFFFFFFFFFFFFF AND MUL OR SWAP1 SSTORE POP DUP2 PUSH20 0xFFFFFFFFFFFFFFFFFFFFFFFFFFFFFFFFFFFFFFFF AND DUP2 PUSH20 0xFFFFFFFFFFFFFFFFFFFFFFFFFFFFFFFFFFFFFFFF AND PUSH32 0x8BE0079C531659141344CD1FD0A4F28419497F9722A3DAAFE3B4186F6B6457E0 PUSH1 0x40 MLOAD PUSH1 0x40 MLOAD DUP1 SWAP2 SUB SWAP1 LOG3 POP POP JUMP JUMPDEST PUSH1 0x0 DUP1 DUP3 SWAP2 POP DUP4 SWAP1 POP JUMPDEST PUSH1 0x1 DUP6 GT ISZERO PUSH3 0x179 JUMPI DUP1 DUP7 DIV DUP2 GT ISZERO PUSH3 0x151 JUMPI PUSH3 0x150 PUSH3 0x2C9 JUMP JUMPDEST JUMPDEST PUSH1 0x1 DUP6 AND ISZERO PUSH3 0x161 JUMPI DUP1 DUP3 MUL SWAP2 POP JUMPDEST DUP1 DUP2 MUL SWAP1 POP PUSH3 0x171 DUP6 PUSH3 0x2F8 JUMP JUMPDEST SWAP5 POP PUSH3 0x131 JUMP JUMPDEST SWAP5 POP SWAP5 SWAP3 POP POP POP JUMP JUMPDEST PUSH1 0x0 PUSH3 0x18F DUP3 PUSH3 0x2BF JUMP JUMPDEST SWAP2 POP PUSH3 0x19C DUP4 PUSH3 0x2BF JUMP JUMPDEST SWAP3 POP PUSH3 0x1CB PUSH32 0xFFFFFFFFFFFFFFFFFFFFFFFFFFFFFFFFFFFFFFFFFFFFFFFFFFFFFFFFFFFFFFFF DUP5 DUP5 PUSH3 0x1D3 JUMP JUMPDEST SWAP1 POP SWAP3 SWAP2 POP POP JUMP JUMPDEST PUSH1 0x0 DUP3 PUSH3 0x1E5 JUMPI PUSH1 0x1 SWAP1 POP PUSH3 0x2B8 JUMP JUMPDEST DUP2 PUSH3 0x1F5 JUMPI PUSH1 0x0 SWAP1 POP PUSH3 0x2B8 JUMP JUMPDEST DUP2 PUSH1 0x1 DUP2 EQ PUSH3 0x20E JUMPI PUSH1 0x2 DUP2 EQ PUSH3 0x219 JUMPI PUSH3 0x24F JUMP JUMPDEST PUSH1 0x1 SWAP2 POP POP PUSH3 0x2B8 JUMP JUMPDEST PUSH1 0xFF DUP5 GT ISZERO PUSH3 0x22E JUMPI PUSH3 0x22D PUSH3 0x2C9 JUMP JUMPDEST JUMPDEST DUP4 PUSH1 0x2 EXP SWAP2 POP DUP5 DUP3 GT ISZERO PUSH3 0x248 JUMPI PUSH3 0x247 PUSH3 0x2C9 JUMP JUMPDEST JUMPDEST POP PUSH3 0x2B8 JUMP JUMPDEST POP PUSH1 0x20 DUP4 LT PUSH2 0x133 DUP4 LT AND PUSH1 0x4E DUP5 LT PUSH1 0xB DUP5 LT AND OR ISZERO PUSH3 0x289 JUMPI DUP3 DUP3 EXP SWAP1 POP DUP4 DUP2 GT ISZERO PUSH3 0x283 JUMPI PUSH3 0x282 PUSH3 0x2C9 JUMP JUMPDEST JUMPDEST PUSH3 0x2B8 JUMP JUMPDEST PUSH3 0x298 DUP5 DUP5 DUP5 PUSH1 0x1 PUSH3 0x127 JUMP JUMPDEST SWAP3 POP SWAP1 POP DUP2 DUP5 DIV DUP2 GT ISZERO PUSH3 0x2B2 JUMPI PUSH3 0x2B1 PUSH3 0x2C9 JUMP JUMPDEST JUMPDEST DUP2 DUP2 MUL SWAP1 POP JUMPDEST SWAP4 SWAP3 POP POP POP JUMP JUMPDEST PUSH1 0x0 DUP2 SWAP1 POP SWAP2 SWAP1 POP JUMP JUMPDEST PUSH32 0x4E487B7100000000000000000000000000000000000000000000000000000000 PUSH1 0x0 MSTORE PUSH1 0x11 PUSH1 0x4 MSTORE PUSH1 0x24 PUSH1 0x0 REVERT JUMPDEST PUSH1 0x0 DUP2 PUSH1 0x1 SHR SWAP1 POP SWAP2 SWAP1 POP JUMP JUMPDEST PUSH2 0x166D DUP1 PUSH3 0x315 PUSH1 0x0 CODECOPY PUSH1 0x0 RETURN INVALID PUSH1 0x80 PUSH1 0x40 MSTORE CALLVALUE DUP1 ISZERO PUSH2 0x10 JUMPI PUSH1 0x0 DUP1 REVERT JUMPDEST POP PUSH1 0x4 CALLDATASIZE LT PUSH2 0x88 JUMPI PUSH1 0x0 CALLDATALOAD PUSH1 0xE0 SHR DUP1 PUSH4 0xAEDA852F GT PUSH2 0x5B JUMPI DUP1 PUSH4 0xAEDA852F EQ PUSH2 0x115 JUMPI DUP1 PUSH4 0xBE40A73E EQ PUSH2 0x14B JUMPI DUP1 PUSH4 0xC45E1B25 EQ PUSH2 0x167 JUMPI DUP1 PUSH4 0xF2FDE38B EQ PUSH2 0x197 JUMPI PUSH2 0x88 JUMP JUMPDEST DUP1 PUSH4 0x3C3B0B4A EQ PUSH2 0x8D JUMPI DUP1 PUSH4 0x715018A6 EQ PUSH2 0xBD JUMPI DUP1 PUSH4 0x8DA5CB5B EQ PUSH2 0xC7 JUMPI DUP1 PUSH4 0x91BFE0D4 EQ PUSH2 0xE5 JUMPI JUMPDEST PUSH1 0x0 DUP1 REVERT JUMPDEST PUSH2 0xA7 PUSH1 0x4 DUP1 CALLDATASIZE SUB DUP2 ADD SWAP1 PUSH2 0xA2 SWAP2 SWAP1 PUSH2 0xB19 JUMP JUMPDEST PUSH2 0x1B3 JUMP JUMPDEST PUSH1 0x40 MLOAD PUSH2 0xB4 SWAP2 SWAP1 PUSH2 0xECA JUMP JUMPDEST PUSH1 0x40 MLOAD DUP1 SWAP2 SUB SWAP1 RETURN JUMPDEST PUSH2 0xC5 PUSH2 0x2C5 JUMP JUMPDEST STOP JUMPDEST PUSH2 0xCF PUSH2 0x34D JUMP JUMPDEST PUSH1 0x40 MLOAD PUSH2 0xDC SWAP2 SWAP1 PUSH2 0xE8D JUMP JUMPDEST PUSH1 0x40 MLOAD DUP1 SWAP2 SUB SWAP1 RETURN JUMPDEST PUSH2 0xFF PUSH1 0x4 DUP1 CALLDATASIZE SUB DUP2 ADD SWAP1 PUSH2 0xFA SWAP2 SWAP1 PUSH2 0xB46 JUMP JUMPDEST PUSH2 0x376 JUMP JUMPDEST PUSH1 0x40 MLOAD PUSH2 0x10C SWAP2 SWAP1 PUSH2 0xFAC JUMP JUMPDEST PUSH1 0x40 MLOAD DUP1 SWAP2 SUB SWAP1 RETURN JUMPDEST PUSH2 0x12F PUSH1 0x4 DUP1 CALLDATASIZE SUB DUP2 ADD SWAP1 PUSH2 0x12A SWAP2 SWAP1 PUSH2 0xB19 JUMP JUMPDEST PUSH2 0x5B4 JUMP JUMPDEST PUSH1 0x40 MLOAD PUSH2 0x142 SWAP8 SWAP7 SWAP6 SWAP5 SWAP4 SWAP3 SWAP2 SWAP1 PUSH2 0x1013 JUMP JUMPDEST PUSH1 0x40 MLOAD DUP1 SWAP2 SUB SWAP1 RETURN JUMPDEST PUSH2 0x165 PUSH1 0x4 DUP1 CALLDATASIZE SUB DUP2 ADD SWAP1 PUSH2 0x160 SWAP2 SWAP1 PUSH2 0xBC9 JUMP JUMPDEST PUSH2 0x6AB JUMP JUMPDEST STOP JUMPDEST PUSH2 0x181 PUSH1 0x4 DUP1 CALLDATASIZE SUB DUP2 ADD SWAP1 PUSH2 0x17C SWAP2 SWAP1 PUSH2 0xB19 JUMP JUMPDEST PUSH2 0x702 JUMP JUMPDEST PUSH1 0x40 MLOAD PUSH2 0x18E SWAP2 SWAP1 PUSH2 0xEA8 JUMP JUMPDEST PUSH1 0x40 MLOAD DUP1 SWAP2 SUB SWAP1 RETURN JUMPDEST PUSH2 0x1B1 PUSH1 0x4 DUP1 CALLDATASIZE SUB DUP2 ADD SWAP1 PUSH2 0x1AC SWAP2 SWAP1 PUSH2 0xAEC JUMP JUMPDEST PUSH2 0x796 JUMP JUMPDEST STOP JUMPDEST PUSH1 0x60 CALLER PUSH20 0xFFFFFFFFFFFFFFFFFFFFFFFFFFFFFFFFFFFFFFFF AND PUSH1 0x6 PUSH1 0x0 DUP5 DUP2 MSTORE PUSH1 0x20 ADD SWAP1 DUP2 MSTORE PUSH1 0x20 ADD PUSH1 0x0 KECCAK256 PUSH1 0x4 ADD PUSH1 0x0 SWAP1 SLOAD SWAP1 PUSH2 0x100 EXP SWAP1 DIV PUSH20 0xFFFFFFFFFFFFFFFFFFFFFFFFFFFFFFFFFFFFFFFF AND PUSH20 0xFFFFFFFFFFFFFFFFFFFFFFFFFFFFFFFFFFFFFFFF AND EQ PUSH2 0x259 JUMPI PUSH1 0x40 MLOAD PUSH32 0x8C379A000000000000000000000000000000000000000000000000000000000 DUP2 MSTORE PUSH1 0x4 ADD PUSH2 0x250 SWAP1 PUSH2 0xF8C JUMP JUMPDEST PUSH1 0x40 MLOAD DUP1 SWAP2 SUB SWAP1 REVERT JUMPDEST PUSH1 0x1 PUSH1 0x6 PUSH1 0x0 DUP5 DUP2 MSTORE PUSH1 0x20 ADD SWAP1 DUP2 MSTORE PUSH1 0x20 ADD PUSH1 0x0 KECCAK256 PUSH1 0x6 ADD PUSH1 0x0 PUSH2 0x100 EXP DUP2 SLOAD DUP2 PUSH1 0xFF MUL NOT AND SWAP1 DUP4 ISZERO ISZERO MUL OR SWAP1 SSTORE POP PUSH1 0x40 MLOAD DUP1 PUSH1 0x40 ADD PUSH1 0x40 MSTORE DUP1 PUSH1 0x15 DUP2 MSTORE PUSH1 0x20 ADD PUSH32 0x64656C69737420776173207375636365737366756C0000000000000000000000 DUP2 MSTORE POP SWAP1 POP SWAP2 SWAP1 POP JUMP JUMPDEST PUSH2 0x2CD PUSH2 0x88E JUMP JUMPDEST PUSH20 0xFFFFFFFFFFFFFFFFFFFFFFFFFFFFFFFFFFFFFFFF AND PUSH2 0x2EB PUSH2 0x34D JUMP JUMPDEST PUSH20 0xFFFFFFFFFFFFFFFFFFFFFFFFFFFFFFFFFFFFFFFF AND EQ PUSH2 0x341 JUMPI PUSH1 0x40 MLOAD PUSH32 0x8C379A000000000000000000000000000000000000000000000000000000000 DUP2 MSTORE PUSH1 0x4 ADD PUSH2 0x338 SWAP1 PUSH2 0xF4C JUMP JUMPDEST PUSH1 0x40 MLOAD DUP1 SWAP2 SUB SWAP1 REVERT JUMPDEST PUSH2 0x34B PUSH1 0x0 PUSH2 0x896 JUMP JUMPDEST JUMP JUMPDEST PUSH1 0x0 DUP1 PUSH1 0x0 SWAP1 SLOAD SWAP1 PUSH2 0x100 EXP SWAP1 DIV PUSH20 0xFFFFFFFFFFFFFFFFFFFFFFFFFFFFFFFFFFFFFFFF AND SWAP1 POP SWAP1 JUMP JUMPDEST PUSH1 0x0 DUP1 DUP5 DUP7 PUSH2 0x385 SWAP2 SWAP1 PUSH2 0x1195 JUMP JUMPDEST GT PUSH2 0x3C5 JUMPI PUSH1 0x40 MLOAD PUSH32 0x8C379A000000000000000000000000000000000000000000000000000000000 DUP2 MSTORE PUSH1 0x4 ADD PUSH2 0x3BC SWAP1 PUSH2 0xF0C JUMP JUMPDEST PUSH1 0x40 MLOAD DUP1 SWAP2 SUB SWAP1 REVERT JUMPDEST PUSH1 0x0 PUSH2 0x3D2 DUP5 DUP7 DUP6 PUSH2 0x95A JUMP JUMPDEST SWAP1 POP PUSH1 0x6 PUSH1 0x0 DUP3 DUP2 MSTORE PUSH1 0x20 ADD SWAP1 DUP2 MSTORE PUSH1 0x20 ADD PUSH1 0x0 KECCAK256 PUSH1 0x0 ADD SLOAD DUP2 EQ ISZERO PUSH2 0x42D JUMPI PUSH1 0x40 MLOAD PUSH32 0x8C379A000000000000000000000000000000000000000000000000000000000 DUP2 MSTORE PUSH1 0x4 ADD PUSH2 0x424 SWAP1 PUSH2 0xF6C JUMP JUMPDEST PUSH1 0x40 MLOAD DUP1 SWAP2 SUB SWAP1 REVERT JUMPDEST PUSH1 0x40 MLOAD DUP1 PUSH1 0xE0 ADD PUSH1 0x40 MSTORE DUP1 DUP3 DUP2 MSTORE PUSH1 0x20 ADD PUSH1 0x5 SLOAD DUP2 MSTORE PUSH1 0x20 ADD DUP8 DUP2 MSTORE PUSH1 0x20 ADD DUP7 DUP2 MSTORE PUSH1 0x20 ADD DUP6 PUSH20 0xFFFFFFFFFFFFFFFFFFFFFFFFFFFFFFFFFFFFFFFF AND DUP2 MSTORE PUSH1 0x20 ADD DUP5 DUP2 MSTORE PUSH1 0x20 ADD PUSH1 0x0 ISZERO ISZERO DUP2 MSTORE POP PUSH1 0x6 PUSH1 0x0 DUP4 DUP2 MSTORE PUSH1 0x20 ADD SWAP1 DUP2 MSTORE PUSH1 0x20 ADD PUSH1 0x0 KECCAK256 PUSH1 0x0 DUP3 ADD MLOAD DUP2 PUSH1 0x0 ADD SSTORE PUSH1 0x20 DUP3 ADD MLOAD DUP2 PUSH1 0x1 ADD SSTORE PUSH1 0x40 DUP3 ADD MLOAD DUP2 PUSH1 0x2 ADD SSTORE PUSH1 0x60 DUP3 ADD MLOAD DUP2 PUSH1 0x3 ADD SSTORE PUSH1 0x80 DUP3 ADD MLOAD DUP2 PUSH1 0x4 ADD PUSH1 0x0 PUSH2 0x100 EXP DUP2 SLOAD DUP2 PUSH20 0xFFFFFFFFFFFFFFFFFFFFFFFFFFFFFFFFFFFFFFFF MUL NOT AND SWAP1 DUP4 PUSH20 0xFFFFFFFFFFFFFFFFFFFFFFFFFFFFFFFFFFFFFFFF AND MUL OR SWAP1 SSTORE POP PUSH1 0xA0 DUP3 ADD MLOAD DUP2 PUSH1 0x5 ADD SWAP1 DUP1 MLOAD SWAP1 PUSH1 0x20 ADD SWAP1 PUSH2 0x519 SWAP3 SWAP2 SWAP1 PUSH2 0x9AF JUMP JUMPDEST POP PUSH1 0xC0 DUP3 ADD MLOAD DUP2 PUSH1 0x6 ADD PUSH1 0x0 PUSH2 0x100 EXP DUP2 SLOAD DUP2 PUSH1 0xFF MUL NOT AND SWAP1 DUP4 ISZERO ISZERO MUL OR SWAP1 SSTORE POP SWAP1 POP POP PUSH2 0x553 PUSH1 0x4 SLOAD TIMESTAMP PUSH2 0x54E SWAP2 SWAP1 PUSH2 0x113F JUMP JUMPDEST PUSH2 0x9A5 JUMP JUMPDEST PUSH1 0x5 PUSH1 0x0 DUP2 SLOAD DUP1 SWAP3 SWAP2 SWAP1 PUSH2 0x566 SWAP1 PUSH2 0x12DC JUMP JUMPDEST SWAP2 SWAP1 POP SSTORE POP PUSH32 0x8F5AFD88EB4BE0AC287D87970052CE9A2B453448408E3C91A695AD7509AB7194 DUP2 DUP6 DUP9 DUP7 PUSH1 0x40 MLOAD PUSH2 0x5A0 SWAP5 SWAP4 SWAP3 SWAP2 SWAP1 PUSH2 0xFC7 JUMP JUMPDEST PUSH1 0x40 MLOAD DUP1 SWAP2 SUB SWAP1 LOG1 DUP1 SWAP2 POP POP SWAP5 SWAP4 POP POP POP POP JUMP JUMPDEST PUSH1 0x6 PUSH1 0x20 MSTORE DUP1 PUSH1 0x0 MSTORE PUSH1 0x40 PUSH1 0x0 KECCAK256 PUSH1 0x0 SWAP2 POP SWAP1 POP DUP1 PUSH1 0x0 ADD SLOAD SWAP1 DUP1 PUSH1 0x1 ADD SLOAD SWAP1 DUP1 PUSH1 0x2 ADD SLOAD SWAP1 DUP1 PUSH1 0x3 ADD SLOAD SWAP1 DUP1 PUSH1 0x4 ADD PUSH1 0x0 SWAP1 SLOAD SWAP1 PUSH2 0x100 EXP SWAP1 DIV PUSH20 0xFFFFFFFFFFFFFFFFFFFFFFFFFFFFFFFFFFFFFFFF AND SWAP1 DUP1 PUSH1 0x5 ADD DUP1 SLOAD PUSH2 0x615 SWAP1 PUSH2 0x1279 JUMP JUMPDEST DUP1 PUSH1 0x1F ADD PUSH1 0x20 DUP1 SWAP2 DIV MUL PUSH1 0x20 ADD PUSH1 0x40 MLOAD SWAP1 DUP2 ADD PUSH1 0x40 MSTORE DUP1 SWAP3 SWAP2 SWAP1 DUP2 DUP2 MSTORE PUSH1 0x20 ADD DUP3 DUP1 SLOAD PUSH2 0x641 SWAP1 PUSH2 0x1279 JUMP JUMPDEST DUP1 ISZERO PUSH2 0x68E JUMPI DUP1 PUSH1 0x1F LT PUSH2 0x663 JUMPI PUSH2 0x100 DUP1 DUP4 SLOAD DIV MUL DUP4 MSTORE SWAP2 PUSH1 0x20 ADD SWAP2 PUSH2 0x68E JUMP JUMPDEST DUP3 ADD SWAP2 SWAP1 PUSH1 0x0 MSTORE PUSH1 0x20 PUSH1 0x0 KECCAK256 SWAP1 JUMPDEST DUP2 SLOAD DUP2 MSTORE SWAP1 PUSH1 0x1 ADD SWAP1 PUSH1 0x20 ADD DUP1 DUP4 GT PUSH2 0x671 JUMPI DUP3 SWAP1 SUB PUSH1 0x1F AND DUP3 ADD SWAP2 JUMPDEST POP POP POP POP POP SWAP1 DUP1 PUSH1 0x6 ADD PUSH1 0x0 SWAP1 SLOAD SWAP1 PUSH2 0x100 EXP SWAP1 DIV PUSH1 0xFF AND SWAP1 POP DUP8 JUMP JUMPDEST TIMESTAMP PUSH1 0x1 SLOAD GT ISZERO PUSH2 0x6F0 JUMPI PUSH1 0x40 MLOAD PUSH32 0x8C379A000000000000000000000000000000000000000000000000000000000 DUP2 MSTORE PUSH1 0x4 ADD PUSH2 0x6E7 SWAP1 PUSH2 0xF2C JUMP JUMPDEST PUSH1 0x40 MLOAD DUP1 SWAP2 SUB SWAP1 REVERT JUMPDEST PUSH2 0x6FC DUP4 DUP4 CALLER DUP5 PUSH2 0x376 JUMP JUMPDEST POP POP POP POP JUMP JUMPDEST PUSH1 0x60 DUP1 PUSH1 0x0 DUP1 PUSH1 0x1 SWAP1 POP JUMPDEST PUSH1 0x5 SLOAD DUP2 GT PUSH2 0x78B JUMPI DUP5 PUSH1 0x6 PUSH1 0x0 DUP4 DUP2 MSTORE PUSH1 0x20 ADD SWAP1 DUP2 MSTORE PUSH1 0x20 ADD PUSH1 0x0 KECCAK256 PUSH1 0x2 ADD SLOAD GT PUSH2 0x778 JUMPI PUSH1 0x6 PUSH1 0x0 DUP3 DUP2 MSTORE PUSH1 0x20 ADD SWAP1 DUP2 MSTORE PUSH1 0x20 ADD PUSH1 0x0 KECCAK256 PUSH1 0x0 ADD SLOAD DUP4 DUP4 DUP2 MLOAD DUP2 LT PUSH2 0x75D JUMPI PUSH2 0x75C PUSH2 0x1411 JUMP JUMPDEST JUMPDEST PUSH1 0x20 MUL PUSH1 0x20 ADD ADD DUP2 DUP2 MSTORE POP POP DUP2 DUP1 PUSH2 0x774 SWAP1 PUSH2 0x12DC JUMP JUMPDEST SWAP3 POP POP JUMPDEST DUP1 DUP1 PUSH2 0x783 SWAP1 PUSH2 0x12DC JUMP JUMPDEST SWAP2 POP POP PUSH2 0x70D JUMP JUMPDEST POP DUP2 SWAP3 POP POP POP SWAP2 SWAP1 POP JUMP JUMPDEST PUSH2 0x79E PUSH2 0x88E JUMP JUMPDEST PUSH20 0xFFFFFFFFFFFFFFFFFFFFFFFFFFFFFFFFFFFFFFFF AND PUSH2 0x7BC PUSH2 0x34D JUMP JUMPDEST PUSH20 0xFFFFFFFFFFFFFFFFFFFFFFFFFFFFFFFFFFFFFFFF AND EQ PUSH2 0x812 JUMPI PUSH1 0x40 MLOAD PUSH32 0x8C379A000000000000000000000000000000000000000000000000000000000 DUP2 MSTORE PUSH1 0x4 ADD PUSH2 0x809 SWAP1 PUSH2 0xF4C JUMP JUMPDEST PUSH1 0x40 MLOAD DUP1 SWAP2 SUB SWAP1 REVERT JUMPDEST PUSH1 0x0 PUSH20 0xFFFFFFFFFFFFFFFFFFFFFFFFFFFFFFFFFFFFFFFF AND DUP2 PUSH20 0xFFFFFFFFFFFFFFFFFFFFFFFFFFFFFFFFFFFFFFFF AND EQ ISZERO PUSH2 0x882 JUMPI PUSH1 0x40 MLOAD PUSH32 0x8C379A000000000000000000000000000000000000000000000000000000000 DUP2 MSTORE PUSH1 0x4 ADD PUSH2 0x879 SWAP1 PUSH2 0xEEC JUMP JUMPDEST PUSH1 0x40 MLOAD DUP1 SWAP2 SUB SWAP1 REVERT JUMPDEST PUSH2 0x88B DUP2 PUSH2 0x896 JUMP JUMPDEST POP JUMP JUMPDEST PUSH1 0x0 CALLER SWAP1 POP SWAP1 JUMP JUMPDEST PUSH1 0x0 DUP1 PUSH1 0x0 SWAP1 SLOAD SWAP1 PUSH2 0x100 EXP SWAP1 DIV PUSH20 0xFFFFFFFFFFFFFFFFFFFFFFFFFFFFFFFFFFFFFFFF AND SWAP1 POP DUP2 PUSH1 0x0 DUP1 PUSH2 0x100 EXP DUP2 SLOAD DUP2 PUSH20 0xFFFFFFFFFFFFFFFFFFFFFFFFFFFFFFFFFFFFFFFF MUL NOT AND SWAP1 DUP4 PUSH20 0xFFFFFFFFFFFFFFFFFFFFFFFFFFFFFFFFFFFFFFFF AND MUL OR SWAP1 SSTORE POP DUP2 PUSH20 0xFFFFFFFFFFFFFFFFFFFFFFFFFFFFFFFFFFFFFFFF AND DUP2 PUSH20 0xFFFFFFFFFFFFFFFFFFFFFFFFFFFFFFFFFFFFFFFF AND PUSH32 0x8BE0079C531659141344CD1FD0A4F28419497F9722A3DAAFE3B4186F6B6457E0 PUSH1 0x40 MLOAD PUSH1 0x40 MLOAD DUP1 SWAP2 SUB SWAP1 LOG3 POP POP JUMP JUMPDEST PUSH1 0x0 DUP1 DUP5 DUP5 DUP5 PUSH1 0x40 MLOAD PUSH1 0x20 ADD PUSH2 0x972 SWAP4 SWAP3 SWAP2 SWAP1 PUSH2 0xE54 JUMP JUMPDEST PUSH1 0x40 MLOAD PUSH1 0x20 DUP2 DUP4 SUB SUB DUP2 MSTORE SWAP1 PUSH1 0x40 MSTORE DUP1 MLOAD SWAP1 PUSH1 0x20 ADD KECCAK256 PUSH1 0x0 SHR SWAP1 POP PUSH1 0x3 SLOAD DUP2 PUSH2 0x99B SWAP2 SWAP1 PUSH2 0x1353 JUMP JUMPDEST SWAP2 POP POP SWAP4 SWAP3 POP POP POP JUMP JUMPDEST DUP1 PUSH1 0x1 DUP2 SWAP1 SSTORE POP POP JUMP JUMPDEST DUP3 DUP1 SLOAD PUSH2 0x9BB SWAP1 PUSH2 0x1279 JUMP JUMPDEST SWAP1 PUSH1 0x0 MSTORE PUSH1 0x20 PUSH1 0x0 KECCAK256 SWAP1 PUSH1 0x1F ADD PUSH1 0x20 SWAP1 DIV DUP2 ADD SWAP3 DUP3 PUSH2 0x9DD JUMPI PUSH1 0x0 DUP6 SSTORE PUSH2 0xA24 JUMP JUMPDEST DUP3 PUSH1 0x1F LT PUSH2 0x9F6 JUMPI DUP1 MLOAD PUSH1 0xFF NOT AND DUP4 DUP1 ADD OR DUP6 SSTORE PUSH2 0xA24 JUMP JUMPDEST DUP3 DUP1 ADD PUSH1 0x1 ADD DUP6 SSTORE DUP3 ISZERO PUSH2 0xA24 JUMPI SWAP2 DUP3 ADD JUMPDEST DUP3 DUP2 GT ISZERO PUSH2 0xA23 JUMPI DUP3 MLOAD DUP3 SSTORE SWAP2 PUSH1 0x20 ADD SWAP2 SWAP1 PUSH1 0x1 ADD SWAP1 PUSH2 0xA08 JUMP JUMPDEST JUMPDEST POP SWAP1 POP PUSH2 0xA31 SWAP2 SWAP1 PUSH2 0xA35 JUMP JUMPDEST POP SWAP1 JUMP JUMPDEST JUMPDEST DUP1 DUP3 GT ISZERO PUSH2 0xA4E JUMPI PUSH1 0x0 DUP2 PUSH1 0x0 SWAP1 SSTORE POP PUSH1 0x1 ADD PUSH2 0xA36 JUMP JUMPDEST POP SWAP1 JUMP JUMPDEST PUSH1 0x0 PUSH2 0xA65 PUSH2 0xA60 DUP5 PUSH2 0x10AE JUMP JUMPDEST PUSH2 0x1089 JUMP JUMPDEST SWAP1 POP DUP3 DUP2 MSTORE PUSH1 0x20 DUP2 ADD DUP5 DUP5 DUP5 ADD GT ISZERO PUSH2 0xA81 JUMPI PUSH2 0xA80 PUSH2 0x1474 JUMP JUMPDEST JUMPDEST PUSH2 0xA8C DUP5 DUP3 DUP6 PUSH2 0x1237 JUMP JUMPDEST POP SWAP4 SWAP3 POP POP POP JUMP JUMPDEST PUSH1 0x0 DUP2 CALLDATALOAD SWAP1 POP PUSH2 0xAA3 DUP2 PUSH2 0x1609 JUMP JUMPDEST SWAP3 SWAP2 POP POP JUMP JUMPDEST PUSH1 0x0 DUP3 PUSH1 0x1F DUP4 ADD SLT PUSH2 0xABE JUMPI PUSH2 0xABD PUSH2 0x146F JUMP JUMPDEST JUMPDEST DUP2 CALLDATALOAD PUSH2 0xACE DUP5 DUP3 PUSH1 0x20 DUP7 ADD PUSH2 0xA52 JUMP JUMPDEST SWAP2 POP POP SWAP3 SWAP2 POP POP JUMP JUMPDEST PUSH1 0x0 DUP2 CALLDATALOAD SWAP1 POP PUSH2 0xAE6 DUP2 PUSH2 0x1620 JUMP JUMPDEST SWAP3 SWAP2 POP POP JUMP JUMPDEST PUSH1 0x0 PUSH1 0x20 DUP3 DUP5 SUB SLT ISZERO PUSH2 0xB02 JUMPI PUSH2 0xB01 PUSH2 0x147E JUMP JUMPDEST JUMPDEST PUSH1 0x0 PUSH2 0xB10 DUP5 DUP3 DUP6 ADD PUSH2 0xA94 JUMP JUMPDEST SWAP2 POP POP SWAP3 SWAP2 POP POP JUMP JUMPDEST PUSH1 0x0 PUSH1 0x20 DUP3 DUP5 SUB SLT ISZERO PUSH2 0xB2F JUMPI PUSH2 0xB2E PUSH2 0x147E JUMP JUMPDEST JUMPDEST PUSH1 0x0 PUSH2 0xB3D DUP5 DUP3 DUP6 ADD PUSH2 0xAD7 JUMP JUMPDEST SWAP2 POP POP SWAP3 SWAP2 POP POP JUMP JUMPDEST PUSH1 0x0 DUP1 PUSH1 0x0 DUP1 PUSH1 0x80 DUP6 DUP8 SUB SLT ISZERO PUSH2 0xB60 JUMPI PUSH2 0xB5F PUSH2 0x147E JUMP JUMPDEST JUMPDEST PUSH1 0x0 PUSH2 0xB6E DUP8 DUP3 DUP9 ADD PUSH2 0xAD7 JUMP JUMPDEST SWAP5 POP POP PUSH1 0x20 PUSH2 0xB7F DUP8 DUP3 DUP9 ADD PUSH2 0xAD7 JUMP JUMPDEST SWAP4 POP POP PUSH1 0x40 PUSH2 0xB90 DUP8 DUP3 DUP9 ADD PUSH2 0xA94 JUMP JUMPDEST SWAP3 POP POP PUSH1 0x60 DUP6 ADD CALLDATALOAD PUSH8 0xFFFFFFFFFFFFFFFF DUP2 GT ISZERO PUSH2 0xBB1 JUMPI PUSH2 0xBB0 PUSH2 0x1479 JUMP JUMPDEST JUMPDEST PUSH2 0xBBD DUP8 DUP3 DUP9 ADD PUSH2 0xAA9 JUMP JUMPDEST SWAP2 POP POP SWAP3 SWAP6 SWAP2 SWAP5 POP SWAP3 POP JUMP JUMPDEST PUSH1 0x0 DUP1 PUSH1 0x0 PUSH1 0x60 DUP5 DUP7 SUB SLT ISZERO PUSH2 0xBE2 JUMPI PUSH2 0xBE1 PUSH2 0x147E JUMP JUMPDEST JUMPDEST PUSH1 0x0 PUSH2 0xBF0 DUP7 DUP3 DUP8 ADD PUSH2 0xAD7 JUMP JUMPDEST SWAP4 POP POP PUSH1 0x20 PUSH2 0xC01 DUP7 DUP3 DUP8 ADD PUSH2 0xAD7 JUMP JUMPDEST SWAP3 POP POP PUSH1 0x40 DUP5 ADD CALLDATALOAD PUSH8 0xFFFFFFFFFFFFFFFF DUP2 GT ISZERO PUSH2 0xC22 JUMPI PUSH2 0xC21 PUSH2 0x1479 JUMP JUMPDEST JUMPDEST PUSH2 0xC2E DUP7 DUP3 DUP8 ADD PUSH2 0xAA9 JUMP JUMPDEST SWAP2 POP POP SWAP3 POP SWAP3 POP SWAP3 JUMP JUMPDEST PUSH1 0x0 PUSH2 0xC44 DUP4 DUP4 PUSH2 0xE1F JUMP JUMPDEST PUSH1 0x20 DUP4 ADD SWAP1 POP SWAP3 SWAP2 POP POP JUMP JUMPDEST PUSH2 0xC59 DUP2 PUSH2 0x11EF JUMP JUMPDEST DUP3 MSTORE POP POP JUMP JUMPDEST PUSH2 0xC70 PUSH2 0xC6B DUP3 PUSH2 0x11EF JUMP JUMPDEST PUSH2 0x1325 JUMP JUMPDEST DUP3 MSTORE POP POP JUMP JUMPDEST PUSH1 0x0 PUSH2 0xC81 DUP3 PUSH2 0x10EF JUMP JUMPDEST PUSH2 0xC8B DUP2 DUP6 PUSH2 0x1112 JUMP JUMPDEST SWAP4 POP PUSH2 0xC96 DUP4 PUSH2 0x10DF JUMP JUMPDEST DUP1 PUSH1 0x0 JUMPDEST DUP4 DUP2 LT ISZERO PUSH2 0xCC7 JUMPI DUP2 MLOAD PUSH2 0xCAE DUP9 DUP3 PUSH2 0xC38 JUMP JUMPDEST SWAP8 POP PUSH2 0xCB9 DUP4 PUSH2 0x1105 JUMP JUMPDEST SWAP3 POP POP PUSH1 0x1 DUP2 ADD SWAP1 POP PUSH2 0xC9A JUMP JUMPDEST POP DUP6 SWAP4 POP POP POP POP SWAP3 SWAP2 POP POP JUMP JUMPDEST PUSH2 0xCDD DUP2 PUSH2 0x1201 JUMP JUMPDEST DUP3 MSTORE POP POP JUMP JUMPDEST PUSH1 0x0 PUSH2 0xCEE DUP3 PUSH2 0x10FA JUMP JUMPDEST PUSH2 0xCF8 DUP2 DUP6 PUSH2 0x1123 JUMP JUMPDEST SWAP4 POP PUSH2 0xD08 DUP2 DUP6 PUSH1 0x20 DUP7 ADD PUSH2 0x1246 JUMP JUMPDEST PUSH2 0xD11 DUP2 PUSH2 0x1483 JUMP JUMPDEST DUP5 ADD SWAP2 POP POP SWAP3 SWAP2 POP POP JUMP JUMPDEST PUSH1 0x0 PUSH2 0xD27 DUP3 PUSH2 0x10FA JUMP JUMPDEST PUSH2 0xD31 DUP2 DUP6 PUSH2 0x1134 JUMP JUMPDEST SWAP4 POP PUSH2 0xD41 DUP2 DUP6 PUSH1 0x20 DUP7 ADD PUSH2 0x1246 JUMP JUMPDEST DUP1 DUP5 ADD SWAP2 POP POP SWAP3 SWAP2 POP POP JUMP JUMPDEST PUSH1 0x0 PUSH2 0xD5A PUSH1 0x26 DUP4 PUSH2 0x1123 JUMP JUMPDEST SWAP2 POP PUSH2 0xD65 DUP3 PUSH2 0x14A1 JUMP JUMPDEST PUSH1 0x40 DUP3 ADD SWAP1 POP SWAP2 SWAP1 POP JUMP JUMPDEST PUSH1 0x0 PUSH2 0xD7D PUSH1 0x14 DUP4 PUSH2 0x1123 JUMP JUMPDEST SWAP2 POP PUSH2 0xD88 DUP3 PUSH2 0x14F0 JUMP JUMPDEST PUSH1 0x20 DUP3 ADD SWAP1 POP SWAP2 SWAP1 POP JUMP JUMPDEST PUSH1 0x0 PUSH2 0xDA0 PUSH1 0x23 DUP4 PUSH2 0x1123 JUMP JUMPDEST SWAP2 POP PUSH2 0xDAB DUP3 PUSH2 0x1519 JUMP JUMPDEST PUSH1 0x40 DUP3 ADD SWAP1 POP SWAP2 SWAP1 POP JUMP JUMPDEST PUSH1 0x0 PUSH2 0xDC3 PUSH1 0x20 DUP4 PUSH2 0x1123 JUMP JUMPDEST SWAP2 POP PUSH2 0xDCE DUP3 PUSH2 0x1568 JUMP JUMPDEST PUSH1 0x20 DUP3 ADD SWAP1 POP SWAP2 SWAP1 POP JUMP JUMPDEST PUSH1 0x0 PUSH2 0xDE6 PUSH1 0x1B DUP4 PUSH2 0x1123 JUMP JUMPDEST SWAP2 POP PUSH2 0xDF1 DUP3 PUSH2 0x1591 JUMP JUMPDEST PUSH1 0x20 DUP3 ADD SWAP1 POP SWAP2 SWAP1 POP JUMP JUMPDEST PUSH1 0x0 PUSH2 0xE09 PUSH1 0x2B DUP4 PUSH2 0x1123 JUMP JUMPDEST SWAP2 POP PUSH2 0xE14 DUP3 PUSH2 0x15BA JUMP JUMPDEST PUSH1 0x40 DUP3 ADD SWAP1 POP SWAP2 SWAP1 POP JUMP JUMPDEST PUSH2 0xE28 DUP2 PUSH2 0x122D JUMP JUMPDEST DUP3 MSTORE POP POP JUMP JUMPDEST PUSH2 0xE37 DUP2 PUSH2 0x122D JUMP JUMPDEST DUP3 MSTORE POP POP JUMP JUMPDEST PUSH2 0xE4E PUSH2 0xE49 DUP3 PUSH2 0x122D JUMP JUMPDEST PUSH2 0x1349 JUMP JUMPDEST DUP3 MSTORE POP POP JUMP JUMPDEST PUSH1 0x0 PUSH2 0xE60 DUP3 DUP7 PUSH2 0xC5F JUMP JUMPDEST PUSH1 0x14 DUP3 ADD SWAP2 POP PUSH2 0xE70 DUP3 DUP6 PUSH2 0xE3D JUMP JUMPDEST PUSH1 0x20 DUP3 ADD SWAP2 POP PUSH2 0xE80 DUP3 DUP5 PUSH2 0xD1C JUMP JUMPDEST SWAP2 POP DUP2 SWAP1 POP SWAP5 SWAP4 POP POP POP POP JUMP JUMPDEST PUSH1 0x0 PUSH1 0x20 DUP3 ADD SWAP1 POP PUSH2 0xEA2 PUSH1 0x0 DUP4 ADD DUP5 PUSH2 0xC50 JUMP JUMPDEST SWAP3 SWAP2 POP POP JUMP JUMPDEST PUSH1 0x0 PUSH1 0x20 DUP3 ADD SWAP1 POP DUP2 DUP2 SUB PUSH1 0x0 DUP4 ADD MSTORE PUSH2 0xEC2 DUP2 DUP5 PUSH2 0xC76 JUMP JUMPDEST SWAP1 POP SWAP3 SWAP2 POP POP JUMP JUMPDEST PUSH1 0x0 PUSH1 0x20 DUP3 ADD SWAP1 POP DUP2 DUP2 SUB PUSH1 0x0 DUP4 ADD MSTORE PUSH2 0xEE4 DUP2 DUP5 PUSH2 0xCE3 JUMP JUMPDEST SWAP1 POP SWAP3 SWAP2 POP POP JUMP JUMPDEST PUSH1 0x0 PUSH1 0x20 DUP3 ADD SWAP1 POP DUP2 DUP2 SUB PUSH1 0x0 DUP4 ADD MSTORE PUSH2 0xF05 DUP2 PUSH2 0xD4D JUMP JUMPDEST SWAP1 POP SWAP2 SWAP1 POP JUMP JUMPDEST PUSH1 0x0 PUSH1 0x20 DUP3 ADD SWAP1 POP DUP2 DUP2 SUB PUSH1 0x0 DUP4 ADD MSTORE PUSH2 0xF25 DUP2 PUSH2 0xD70 JUMP JUMPDEST SWAP1 POP SWAP2 SWAP1 POP JUMP JUMPDEST PUSH1 0x0 PUSH1 0x20 DUP3 ADD SWAP1 POP DUP2 DUP2 SUB PUSH1 0x0 DUP4 ADD MSTORE PUSH2 0xF45 DUP2 PUSH2 0xD93 JUMP JUMPDEST SWAP1 POP SWAP2 SWAP1 POP JUMP JUMPDEST PUSH1 0x0 PUSH1 0x20 DUP3 ADD SWAP1 POP DUP2 DUP2 SUB PUSH1 0x0 DUP4 ADD MSTORE PUSH2 0xF65 DUP2 PUSH2 0xDB6 JUMP JUMPDEST SWAP1 POP SWAP2 SWAP1 POP JUMP JUMPDEST PUSH1 0x0 PUSH1 0x20 DUP3 ADD SWAP1 POP DUP2 DUP2 SUB PUSH1 0x0 DUP4 ADD MSTORE PUSH2 0xF85 DUP2 PUSH2 0xDD9 JUMP JUMPDEST SWAP1 POP SWAP2 SWAP1 POP JUMP JUMPDEST PUSH1 0x0 PUSH1 0x20 DUP3 ADD SWAP1 POP DUP2 DUP2 SUB PUSH1 0x0 DUP4 ADD MSTORE PUSH2 0xFA5 DUP2 PUSH2 0xDFC JUMP JUMPDEST SWAP1 POP SWAP2 SWAP1 POP JUMP JUMPDEST PUSH1 0x0 PUSH1 0x20 DUP3 ADD SWAP1 POP PUSH2 0xFC1 PUSH1 0x0 DUP4 ADD DUP5 PUSH2 0xE2E JUMP JUMPDEST SWAP3 SWAP2 POP POP JUMP JUMPDEST PUSH1 0x0 PUSH1 0x80 DUP3 ADD SWAP1 POP PUSH2 0xFDC PUSH1 0x0 DUP4 ADD DUP8 PUSH2 0xE2E JUMP JUMPDEST PUSH2 0xFE9 PUSH1 0x20 DUP4 ADD DUP7 PUSH2 0xC50 JUMP JUMPDEST PUSH2 0xFF6 PUSH1 0x40 DUP4 ADD DUP6 PUSH2 0xE2E JUMP JUMPDEST DUP2 DUP2 SUB PUSH1 0x60 DUP4 ADD MSTORE PUSH2 0x1008 DUP2 DUP5 PUSH2 0xCE3 JUMP JUMPDEST SWAP1 POP SWAP6 SWAP5 POP POP POP POP POP JUMP JUMPDEST PUSH1 0x0 PUSH1 0xE0 DUP3 ADD SWAP1 POP PUSH2 0x1028 PUSH1 0x0 DUP4 ADD DUP11 PUSH2 0xE2E JUMP JUMPDEST PUSH2 0x1035 PUSH1 0x20 DUP4 ADD DUP10 PUSH2 0xE2E JUMP JUMPDEST PUSH2 0x1042 PUSH1 0x40 DUP4 ADD DUP9 PUSH2 0xE2E JUMP JUMPDEST PUSH2 0x104F PUSH1 0x60 DUP4 ADD DUP8 PUSH2 0xE2E JUMP JUMPDEST PUSH2 0x105C PUSH1 0x80 DUP4 ADD DUP7 PUSH2 0xC50 JUMP JUMPDEST DUP2 DUP2 SUB PUSH1 0xA0 DUP4 ADD MSTORE PUSH2 0x106E DUP2 DUP6 PUSH2 0xCE3 JUMP JUMPDEST SWAP1 POP PUSH2 0x107D PUSH1 0xC0 DUP4 ADD DUP5 PUSH2 0xCD4 JUMP JUMPDEST SWAP9 SWAP8 POP POP POP POP POP POP POP POP JUMP JUMPDEST PUSH1 0x0 PUSH2 0x1093 PUSH2 0x10A4 JUMP JUMPDEST SWAP1 POP PUSH2 0x109F DUP3 DUP3 PUSH2 0x12AB JUMP JUMPDEST SWAP2 SWAP1 POP JUMP JUMPDEST PUSH1 0x0 PUSH1 0x40 MLOAD SWAP1 POP SWAP1 JUMP JUMPDEST PUSH1 0x0 PUSH8 0xFFFFFFFFFFFFFFFF DUP3 GT ISZERO PUSH2 0x10C9 JUMPI PUSH2 0x10C8 PUSH2 0x1440 JUMP JUMPDEST JUMPDEST PUSH2 0x10D2 DUP3 PUSH2 0x1483 JUMP JUMPDEST SWAP1 POP PUSH1 0x20 DUP2 ADD SWAP1 POP SWAP2 SWAP1 POP JUMP JUMPDEST PUSH1 0x0 DUP2 SWAP1 POP PUSH1 0x20 DUP3 ADD SWAP1 POP SWAP2 SWAP1 POP JUMP JUMPDEST PUSH1 0x0 DUP2 MLOAD SWAP1 POP SWAP2 SWAP1 POP JUMP JUMPDEST PUSH1 0x0 DUP2 MLOAD SWAP1 POP SWAP2 SWAP1 POP JUMP JUMPDEST PUSH1 0x0 PUSH1 0x20 DUP3 ADD SWAP1 POP SWAP2 SWAP1 POP JUMP JUMPDEST PUSH1 0x0 DUP3 DUP3 MSTORE PUSH1 0x20 DUP3 ADD SWAP1 POP SWAP3 SWAP2 POP POP JUMP JUMPDEST PUSH1 0x0 DUP3 DUP3 MSTORE PUSH1 0x20 DUP3 ADD SWAP1 POP SWAP3 SWAP2 POP POP JUMP JUMPDEST PUSH1 0x0 DUP2 SWAP1 POP SWAP3 SWAP2 POP POP JUMP JUMPDEST PUSH1 0x0 PUSH2 0x114A DUP3 PUSH2 0x122D JUMP JUMPDEST SWAP2 POP PUSH2 0x1155 DUP4 PUSH2 0x122D JUMP JUMPDEST SWAP3 POP DUP3 PUSH32 0xFFFFFFFFFFFFFFFFFFFFFFFFFFFFFFFFFFFFFFFFFFFFFFFFFFFFFFFFFFFFFFFF SUB DUP3 GT ISZERO PUSH2 0x118A JUMPI PUSH2 0x1189 PUSH2 0x1384 JUMP JUMPDEST JUMPDEST DUP3 DUP3 ADD SWAP1 POP SWAP3 SWAP2 POP POP JUMP JUMPDEST PUSH1 0x0 PUSH2 0x11A0 DUP3 PUSH2 0x122D JUMP JUMPDEST SWAP2 POP PUSH2 0x11AB DUP4 PUSH2 0x122D JUMP JUMPDEST SWAP3 POP DUP2 PUSH32 0xFFFFFFFFFFFFFFFFFFFFFFFFFFFFFFFFFFFFFFFFFFFFFFFFFFFFFFFFFFFFFFFF DIV DUP4 GT DUP3 ISZERO ISZERO AND ISZERO PUSH2 0x11E4 JUMPI PUSH2 0x11E3 PUSH2 0x1384 JUMP JUMPDEST JUMPDEST DUP3 DUP3 MUL SWAP1 POP SWAP3 SWAP2 POP POP JUMP JUMPDEST PUSH1 0x0 PUSH2 0x11FA DUP3 PUSH2 0x120D JUMP JUMPDEST SWAP1 POP SWAP2 SWAP1 POP JUMP JUMPDEST PUSH1 0x0 DUP2 ISZERO ISZERO SWAP1 POP SWAP2 SWAP1 POP JUMP JUMPDEST PUSH1 0x0 PUSH20 0xFFFFFFFFFFFFFFFFFFFFFFFFFFFFFFFFFFFFFFFF DUP3 AND SWAP1 POP SWAP2 SWAP1 POP JUMP JUMPDEST PUSH1 0x0 DUP2 SWAP1 POP SWAP2 SWAP1 POP JUMP JUMPDEST DUP3 DUP2 DUP4 CALLDATACOPY PUSH1 0x0 DUP4 DUP4 ADD MSTORE POP POP POP JUMP JUMPDEST PUSH1 0x0 JUMPDEST DUP4 DUP2 LT ISZERO PUSH2 0x1264 JUMPI DUP1 DUP3 ADD MLOAD DUP2 DUP5 ADD MSTORE PUSH1 0x20 DUP2 ADD SWAP1 POP PUSH2 0x1249 JUMP JUMPDEST DUP4 DUP2 GT ISZERO PUSH2 0x1273 JUMPI PUSH1 0x0 DUP5 DUP5 ADD MSTORE JUMPDEST POP POP POP POP JUMP JUMPDEST PUSH1 0x0 PUSH1 0x2 DUP3 DIV SWAP1 POP PUSH1 0x1 DUP3 AND DUP1 PUSH2 0x1291 JUMPI PUSH1 0x7F DUP3 AND SWAP2 POP JUMPDEST PUSH1 0x20 DUP3 LT DUP2 EQ ISZERO PUSH2 0x12A5 JUMPI PUSH2 0x12A4 PUSH2 0x13E2 JUMP JUMPDEST JUMPDEST POP SWAP2 SWAP1 POP JUMP JUMPDEST PUSH2 0x12B4 DUP3 PUSH2 0x1483 JUMP JUMPDEST DUP2 ADD DUP2 DUP2 LT PUSH8 0xFFFFFFFFFFFFFFFF DUP3 GT OR ISZERO PUSH2 0x12D3 JUMPI PUSH2 0x12D2 PUSH2 0x1440 JUMP JUMPDEST JUMPDEST DUP1 PUSH1 0x40 MSTORE POP POP POP JUMP JUMPDEST PUSH1 0x0 PUSH2 0x12E7 DUP3 PUSH2 0x122D JUMP JUMPDEST SWAP2 POP PUSH32 0xFFFFFFFFFFFFFFFFFFFFFFFFFFFFFFFFFFFFFFFFFFFFFFFFFFFFFFFFFFFFFFFF DUP3 EQ ISZERO PUSH2 0x131A JUMPI PUSH2 0x1319 PUSH2 0x1384 JUMP JUMPDEST JUMPDEST PUSH1 0x1 DUP3 ADD SWAP1 POP SWAP2 SWAP1 POP JUMP JUMPDEST PUSH1 0x0 PUSH2 0x1330 DUP3 PUSH2 0x1337 JUMP JUMPDEST SWAP1 POP SWAP2 SWAP1 POP JUMP JUMPDEST PUSH1 0x0 PUSH2 0x1342 DUP3 PUSH2 0x1494 JUMP JUMPDEST SWAP1 POP SWAP2 SWAP1 POP JUMP JUMPDEST PUSH1 0x0 DUP2 SWAP1 POP SWAP2 SWAP1 POP JUMP JUMPDEST PUSH1 0x0 PUSH2 0x135E DUP3 PUSH2 0x122D JUMP JUMPDEST SWAP2 POP PUSH2 0x1369 DUP4 PUSH2 0x122D JUMP JUMPDEST SWAP3 POP DUP3 PUSH2 0x1379 JUMPI PUSH2 0x1378 PUSH2 0x13B3 JUMP JUMPDEST JUMPDEST DUP3 DUP3 MOD SWAP1 POP SWAP3 SWAP2 POP POP JUMP JUMPDEST PUSH32 0x4E487B7100000000000000000000000000000000000000000000000000000000 PUSH1 0x0 MSTORE PUSH1 0x11 PUSH1 0x4 MSTORE PUSH1 0x24 PUSH1 0x0 REVERT JUMPDEST PUSH32 0x4E487B7100000000000000000000000000000000000000000000000000000000 PUSH1 0x0 MSTORE PUSH1 0x12 PUSH1 0x4 MSTORE PUSH1 0x24 PUSH1 0x0 REVERT JUMPDEST PUSH32 0x4E487B7100000000000000000000000000000000000000000000000000000000 PUSH1 0x0 MSTORE PUSH1 0x22 PUSH1 0x4 MSTORE PUSH1 0x24 PUSH1 0x0 REVERT JUMPDEST PUSH32 0x4E487B7100000000000000000000000000000000000000000000000000000000 PUSH1 0x0 MSTORE PUSH1 0x32 PUSH1 0x4 MSTORE PUSH1 0x24 PUSH1 0x0 REVERT JUMPDEST PUSH32 0x4E487B7100000000000000000000000000000000000000000000000000000000 PUSH1 0x0 MSTORE PUSH1 0x41 PUSH1 0x4 MSTORE PUSH1 0x24 PUSH1 0x0 REVERT JUMPDEST PUSH1 0x0 DUP1 REVERT JUMPDEST PUSH1 0x0 DUP1 REVERT JUMPDEST PUSH1 0x0 DUP1 REVERT JUMPDEST PUSH1 0x0 DUP1 REVERT JUMPDEST PUSH1 0x0 PUSH1 0x1F NOT PUSH1 0x1F DUP4 ADD AND SWAP1 POP SWAP2 SWAP1 POP JUMP JUMPDEST PUSH1 0x0 DUP2 PUSH1 0x60 SHL SWAP1 POP SWAP2 SWAP1 POP JUMP JUMPDEST PUSH32 0x4F776E61626C653A206E6577206F776E657220697320746865207A65726F2061 PUSH1 0x0 DUP3 ADD MSTORE PUSH32 0x6464726573730000000000000000000000000000000000000000000000000000 PUSH1 0x20 DUP3 ADD MSTORE POP JUMP JUMPDEST PUSH32 0x76616C75652063616E6E6F74206265206E756C6C000000000000000000000000 PUSH1 0x0 DUP3 ADD MSTORE POP JUMP JUMPDEST PUSH32 0x546865206F776E65722063616E6E6F7420796574206164642061206E65772068 PUSH1 0x0 DUP3 ADD MSTORE PUSH32 0x6F6D650000000000000000000000000000000000000000000000000000000000 PUSH1 0x20 DUP3 ADD MSTORE POP JUMP JUMPDEST PUSH32 0x4F776E61626C653A2063616C6C6572206973206E6F7420746865206F776E6572 PUSH1 0x0 DUP3 ADD MSTORE POP JUMP JUMPDEST PUSH32 0x7468697320686F757365496420616C7265616479206578697374730000000000 PUSH1 0x0 DUP3 ADD MSTORE POP JUMP JUMPDEST PUSH32 0x596F7520646F206E6F7420686176652061636365737320746F2064656C657465 PUSH1 0x0 DUP3 ADD MSTORE PUSH32 0x207468697320686F757365000000000000000000000000000000000000000000 PUSH1 0x20 DUP3 ADD MSTORE POP JUMP JUMPDEST PUSH2 0x1612 DUP2 PUSH2 0x11EF JUMP JUMPDEST DUP2 EQ PUSH2 0x161D JUMPI PUSH1 0x0 DUP1 REVERT JUMPDEST POP JUMP JUMPDEST PUSH2 0x1629 DUP2 PUSH2 0x122D JUMP JUMPDEST DUP2 EQ PUSH2 0x1634 JUMPI PUSH1 0x0 DUP1 REVERT JUMPDEST POP JUMP INVALID LOG2 PUSH5 0x6970667358 0x22 SLT KECCAK256 SWAP13 0xEE 0xA5 0xC5 STATICCALL BASEFEE MSIZE SUB 0xCC 0xB1 0xB3 SHR EXP DUP1 PUSH7 0x83F7C8B1A81F4B 0x27 PUSH11 0xA969DFD389A7042964736F PUSH13 0x63430008070033000000000000 "
				},
				"gasEstimates": {
					"creation": {
						"codeDepositCost": "1148200",
						"executionCost": "infinite",
						"totalCost": "infinite"
					},
					"external": {
						"delistHouse(uint256)": "infinite",
						"getCheapHouseIds(uint256)": "infinite",
						"houses(uint256)": "infinite",
						"listHouse(uint256,uint256,address,string)": "infinite",
						"listHouseSimple(uint256,uint256,string)": "infinite",
						"owner()": "2567",
						"renounceOwnership()": "30397",
						"transferOwnership(address)": "30789"
					}
				},
				"methodIdentifiers": {
					"delistHouse(uint256)": "3c3b0b4a",
					"getCheapHouseIds(uint256)": "c45e1b25",
					"houses(uint256)": "aeda852f",
					"listHouse(uint256,uint256,address,string)": "91bfe0d4",
					"listHouseSimple(uint256,uint256,string)": "be40a73e",
					"owner()": "8da5cb5b",
					"renounceOwnership()": "715018a6",
					"transferOwnership(address)": "f2fde38b"
				}
			},
			"storageLayout": {
				"storage": [
					{
						"astId": 268,
						"contract": "contract/HouseRegistryExt.sol:HouseRegistryExt",
						"label": "_owner",
						"offset": 0,
						"slot": "0",
						"type": "t_address"
					},
					{
						"astId": 270,
						"contract": "contract/HouseRegistryExt.sol:HouseRegistryExt",
						"label": "ownerAddCooldown",
						"offset": 0,
						"slot": "1",
						"type": "t_uint256"
					},
					{
						"astId": 7,
						"contract": "contract/HouseRegistryExt.sol:HouseRegistryExt",
						"label": "digits",
						"offset": 0,
						"slot": "2",
						"type": "t_uint256"
					},
					{
						"astId": 12,
						"contract": "contract/HouseRegistryExt.sol:HouseRegistryExt",
						"label": "modulus",
						"offset": 0,
						"slot": "3",
						"type": "t_uint256"
					},
					{
						"astId": 15,
						"contract": "contract/HouseRegistryExt.sol:HouseRegistryExt",
						"label": "cooldownTime",
						"offset": 0,
						"slot": "4",
						"type": "t_uint256"
					},
					{
						"astId": 18,
						"contract": "contract/HouseRegistryExt.sol:HouseRegistryExt",
						"label": "countOfHouses",
						"offset": 0,
						"slot": "5",
						"type": "t_uint256"
					},
					{
						"astId": 48,
						"contract": "contract/HouseRegistryExt.sol:HouseRegistryExt",
						"label": "houses",
						"offset": 0,
						"slot": "6",
						"type": "t_mapping(t_uint256,t_struct(House)33_storage)"
					}
				],
				"types": {
					"t_address": {
						"encoding": "inplace",
						"label": "address",
						"numberOfBytes": "20"
					},
					"t_bool": {
						"encoding": "inplace",
						"label": "bool",
						"numberOfBytes": "1"
					},
					"t_mapping(t_uint256,t_struct(House)33_storage)": {
						"encoding": "mapping",
						"key": "t_uint256",
						"label": "mapping(uint256 => struct HouseRegistry.House)",
						"numberOfBytes": "32",
						"value": "t_struct(House)33_storage"
					},
					"t_string_storage": {
						"encoding": "bytes",
						"label": "string",
						"numberOfBytes": "32"
					},
					"t_struct(House)33_storage": {
						"encoding": "inplace",
						"label": "struct HouseRegistry.House",
						"members": [
							{
								"astId": 20,
								"contract": "contract/HouseRegistryExt.sol:HouseRegistryExt",
								"label": "id",
								"offset": 0,
								"slot": "0",
								"type": "t_uint256"
							},
							{
								"astId": 22,
								"contract": "contract/HouseRegistryExt.sol:HouseRegistryExt",
								"label": "serialNumber",
								"offset": 0,
								"slot": "1",
								"type": "t_uint256"
							},
							{
								"astId": 24,
								"contract": "contract/HouseRegistryExt.sol:HouseRegistryExt",
								"label": "price",
								"offset": 0,
								"slot": "2",
								"type": "t_uint256"
							},
							{
								"astId": 26,
								"contract": "contract/HouseRegistryExt.sol:HouseRegistryExt",
								"label": "area",
								"offset": 0,
								"slot": "3",
								"type": "t_uint256"
							},
							{
								"astId": 28,
								"contract": "contract/HouseRegistryExt.sol:HouseRegistryExt",
								"label": "sellerAddress",
								"offset": 0,
								"slot": "4",
								"type": "t_address"
							},
							{
								"astId": 30,
								"contract": "contract/HouseRegistryExt.sol:HouseRegistryExt",
								"label": "houseAddress",
								"offset": 0,
								"slot": "5",
								"type": "t_string_storage"
							},
							{
								"astId": 32,
								"contract": "contract/HouseRegistryExt.sol:HouseRegistryExt",
								"label": "isdelistedHouse",
								"offset": 0,
								"slot": "6",
								"type": "t_bool"
							}
						],
						"numberOfBytes": "224"
					},
					"t_uint256": {
						"encoding": "inplace",
						"label": "uint256",
						"numberOfBytes": "32"
					}
				}
			},
			"userdoc": {
				"kind": "user",
				"methods": {},
				"version": 1
			}
		}
	}
}