{
	"contract/HouseRegistry.sol": {
		"HouseRegistry": {
			"abi": [
				{
					"anonymous": false,
					"inputs": [
						{
							"indexed": false,
							"internalType": "uint256",
							"name": "houseId",
							"type": "uint256"
						},
						{
							"indexed": false,
							"internalType": "address",
							"name": "_sellerAddress",
							"type": "address"
						},
						{
							"indexed": false,
							"internalType": "uint256",
							"name": "price",
							"type": "uint256"
						},
						{
							"indexed": false,
							"internalType": "string",
							"name": "houseAddress",
							"type": "string"
						}
					],
					"name": "AddNewHouse",
					"type": "event"
				},
				{
					"anonymous": false,
					"inputs": [
						{
							"indexed": true,
							"internalType": "address",
							"name": "previousOwner",
							"type": "address"
						},
						{
							"indexed": true,
							"internalType": "address",
							"name": "newOwner",
							"type": "address"
						}
					],
					"name": "OwnershipTransferred",
					"type": "event"
				},
				{
					"inputs": [
						{
							"internalType": "uint256",
							"name": "houseId",
							"type": "uint256"
						}
					],
					"name": "delistHouse",
					"outputs": [
						{
							"internalType": "string",
							"name": "",
							"type": "string"
						}
					],
					"stateMutability": "nonpayable",
					"type": "function"
				},
				{
					"inputs": [
						{
							"internalType": "uint256",
							"name": "cost",
							"type": "uint256"
						}
					],
					"name": "getCheapHouseIds",
					"outputs": [
						{
							"internalType": "uint256[]",
							"name": "",
							"type": "uint256[]"
						}
					],
					"stateMutability": "view",
					"type": "function"
				},
				{
					"inputs": [
						{
							"internalType": "uint256",
							"name": "",
							"type": "uint256"
						}
					],
					"name": "houses",
					"outputs": [
						{
							"internalType": "uint256",
							"name": "id",
							"type": "uint256"
						},
						{
							"internalType": "uint256",
							"name": "serialNumber",
							"type": "uint256"
						},
						{
							"internalType": "uint256",
							"name": "price",
							"type": "uint256"
						},
						{
							"internalType": "uint256",
							"name": "area",
							"type": "uint256"
						},
						{
							"internalType": "address",
							"name": "sellerAddress",
							"type": "address"
						},
						{
							"internalType": "string",
							"name": "houseAddress",
							"type": "string"
						},
						{
							"internalType": "bool",
							"name": "isdelistedHouse",
							"type": "bool"
						}
					],
					"stateMutability": "view",
					"type": "function"
				},
				{
					"inputs": [
						{
							"internalType": "uint256",
							"name": "_price",
							"type": "uint256"
						},
						{
							"internalType": "uint256",
							"name": "_area",
							"type": "uint256"
						},
						{
							"internalType": "address",
							"name": "_sellerAddress",
							"type": "address"
						},
						{
							"internalType": "string",
							"name": "_houseAddress",
							"type": "string"
						}
					],
					"name": "listHouse",
					"outputs": [
						{
							"internalType": "uint256",
							"name": "",
							"type": "uint256"
						}
					],
					"stateMutability": "nonpayable",
					"type": "function"
				},
				{
					"inputs": [],
					"name": "owner",
					"outputs": [
						{
							"internalType": "address",
							"name": "",
							"type": "address"
						}
					],
					"stateMutability": "view",
					"type": "function"
				},
				{
					"inputs": [],
					"name": "renounceOwnership",
					"outputs": [],
					"stateMutability": "nonpayable",
					"type": "function"
				},
				{
					"inputs": [
						{
							"internalType": "address",
							"name": "newOwner",
							"type": "address"
						}
					],
					"name": "transferOwnership",
					"outputs": [],
					"stateMutability": "nonpayable",
					"type": "function"
				}
			],
			"devdoc": {
				"kind": "dev",
				"methods": {
					"owner()": {
						"details": "Returns the address of the current owner."
					},
					"renounceOwnership()": {
						"details": "Leaves the contract without owner. It will not be possible to call `onlyOwner` functions anymore. Can only be called by the current owner. NOTE: Renouncing ownership will leave the contract without an owner, thereby removing any functionality that is only available to the owner."
					},
					"transferOwnership(address)": {
						"details": "Transfers ownership of the contract to a new account (`newOwner`). Can only be called by the current owner."
					}
				},
				"version": 1
			},
			"evm": {
				"assembly": "    /* \"contract/HouseRegistry.sol\":87:2149  contract HouseRegistry is Ownable {... */\n  mstore(0x40, 0x80)\n    /* \"contract/HouseRegistry.sol\":142:143  5 */\n  0x05\n    /* \"contract/HouseRegistry.sol\":128:143  uint digits = 5 */\n  0x02\n  sstore\n    /* \"contract/HouseRegistry.sol\":170:176  digits */\n  sload(0x02)\n    /* \"contract/HouseRegistry.sol\":164:166  10 */\n  0x0a\n    /* \"contract/HouseRegistry.sol\":164:176  10 ** digits */\n  tag_1\n  swap2\n  swap1\n  tag_2\n  jump\t// in\ntag_1:\n    /* \"contract/HouseRegistry.sol\":149:176  uint modulus = 10 ** digits */\n  0x03\n  sstore\n    /* \"contract/HouseRegistry.sol\":202:211  1 seconds */\n  0x01\n    /* \"contract/HouseRegistry.sol\":182:211  uint cooldownTime = 1 seconds */\n  0x04\n  sstore\n    /* \"contract/HouseRegistry.sol\":238:239  1 */\n  0x01\n    /* \"contract/HouseRegistry.sol\":217:239  uint countOfHouses = 1 */\n  0x05\n  sstore\n    /* \"contract/HouseRegistry.sol\":87:2149  contract HouseRegistry is Ownable {... */\n  callvalue\n  dup1\n  iszero\n  tag_3\n  jumpi\n  0x00\n  dup1\n  revert\ntag_3:\n  pop\n    /* \"contract/Ownable.sol\":984:1016  _transferOwnership(_msgSender()) */\n  tag_6\n    /* \"contract/Ownable.sol\":1003:1015  _msgSender() */\n  tag_7\n    /* \"contract/Ownable.sol\":1003:1013  _msgSender */\n  shl(0x20, tag_8)\n    /* \"contract/Ownable.sol\":1003:1015  _msgSender() */\n  0x20\n  shr\n  jump\t// in\ntag_7:\n    /* \"contract/Ownable.sol\":984:1002  _transferOwnership */\n  shl(0x20, tag_9)\n    /* \"contract/Ownable.sol\":984:1016  _transferOwnership(_msgSender()) */\n  0x20\n  shr\n  jump\t// in\ntag_6:\n    /* \"contract/HouseRegistry.sol\":87:2149  contract HouseRegistry is Ownable {... */\n  jump(tag_10)\n    /* \"contract/utils/Context.sol\":656:754  function _msgSender() internal view virtual returns (address) {\r... */\ntag_8:\n    /* \"contract/utils/Context.sol\":709:716  address */\n  0x00\n    /* \"contract/utils/Context.sol\":736:746  msg.sender */\n  caller\n    /* \"contract/utils/Context.sol\":729:746  return msg.sender */\n  swap1\n  pop\n    /* \"contract/utils/Context.sol\":656:754  function _msgSender() internal view virtual returns (address) {\r... */\n  swap1\n  jump\t// out\n    /* \"contract/Ownable.sol\":2520:2711  function _transferOwnership(address newOwner) internal virtual {\r... */\ntag_9:\n    /* \"contract/Ownable.sol\":2594:2610  address oldOwner */\n  0x00\n    /* \"contract/Ownable.sol\":2613:2619  _owner */\n  dup1\n  0x00\n  swap1\n  sload\n  swap1\n  0x0100\n  exp\n  swap1\n  div\n  0xffffffffffffffffffffffffffffffffffffffff\n  and\n    /* \"contract/Ownable.sol\":2594:2619  address oldOwner = _owner */\n  swap1\n  pop\n    /* \"contract/Ownable.sol\":2639:2647  newOwner */\n  dup2\n    /* \"contract/Ownable.sol\":2630:2636  _owner */\n  0x00\n  dup1\n    /* \"contract/Ownable.sol\":2630:2647  _owner = newOwner */\n  0x0100\n  exp\n  dup2\n  sload\n  dup2\n  0xffffffffffffffffffffffffffffffffffffffff\n  mul\n  not\n  and\n  swap1\n  dup4\n  0xffffffffffffffffffffffffffffffffffffffff\n  and\n  mul\n  or\n  swap1\n  sstore\n  pop\n    /* \"contract/Ownable.sol\":2694:2702  newOwner */\n  dup2\n    /* \"contract/Ownable.sol\":2663:2703  OwnershipTransferred(oldOwner, newOwner) */\n  0xffffffffffffffffffffffffffffffffffffffff\n  and\n    /* \"contract/Ownable.sol\":2684:2692  oldOwner */\n  dup2\n    /* \"contract/Ownable.sol\":2663:2703  OwnershipTransferred(oldOwner, newOwner) */\n  0xffffffffffffffffffffffffffffffffffffffff\n  and\n  0x8be0079c531659141344cd1fd0a4f28419497f9722a3daafe3b4186f6b6457e0\n  mload(0x40)\n  mload(0x40)\n  dup1\n  swap2\n  sub\n  swap1\n  log3\n    /* \"contract/Ownable.sol\":2583:2711  {\r... */\n  pop\n    /* \"contract/Ownable.sol\":2520:2711  function _transferOwnership(address newOwner) internal virtual {\r... */\n  pop\n  jump\t// out\n    /* \"#utility.yul\":7:855   */\ntag_14:\n    /* \"#utility.yul\":68:73   */\n  0x00\n    /* \"#utility.yul\":75:79   */\n  dup1\n    /* \"#utility.yul\":99:105   */\n  dup3\n    /* \"#utility.yul\":90:105   */\n  swap2\n  pop\n    /* \"#utility.yul\":123:128   */\n  dup4\n    /* \"#utility.yul\":114:128   */\n  swap1\n  pop\n    /* \"#utility.yul\":137:849   */\ntag_16:\n    /* \"#utility.yul\":158:159   */\n  0x01\n    /* \"#utility.yul\":148:156   */\n  dup6\n    /* \"#utility.yul\":145:160   */\n  gt\n    /* \"#utility.yul\":137:849   */\n  iszero\n  tag_18\n  jumpi\n    /* \"#utility.yul\":253:257   */\n  dup1\n    /* \"#utility.yul\":248:251   */\n  dup7\n    /* \"#utility.yul\":244:258   */\n  div\n    /* \"#utility.yul\":238:242   */\n  dup2\n    /* \"#utility.yul\":235:259   */\n  gt\n    /* \"#utility.yul\":232:282   */\n  iszero\n  tag_19\n  jumpi\n    /* \"#utility.yul\":262:280   */\n  tag_20\n  tag_21\n  jump\t// in\ntag_20:\n    /* \"#utility.yul\":232:282   */\ntag_19:\n    /* \"#utility.yul\":312:313   */\n  0x01\n    /* \"#utility.yul\":302:310   */\n  dup6\n    /* \"#utility.yul\":298:314   */\n  and\n    /* \"#utility.yul\":295:746   */\n  iszero\n  tag_22\n  jumpi\n    /* \"#utility.yul\":727:731   */\n  dup1\n    /* \"#utility.yul\":720:725   */\n  dup3\n    /* \"#utility.yul\":716:732   */\n  mul\n    /* \"#utility.yul\":707:732   */\n  swap2\n  pop\n    /* \"#utility.yul\":295:746   */\ntag_22:\n    /* \"#utility.yul\":777:781   */\n  dup1\n    /* \"#utility.yul\":771:775   */\n  dup2\n    /* \"#utility.yul\":767:782   */\n  mul\n    /* \"#utility.yul\":759:782   */\n  swap1\n  pop\n    /* \"#utility.yul\":807:839   */\n  tag_23\n    /* \"#utility.yul\":830:838   */\n  dup6\n    /* \"#utility.yul\":807:839   */\n  tag_24\n  jump\t// in\ntag_23:\n    /* \"#utility.yul\":795:839   */\n  swap5\n  pop\n    /* \"#utility.yul\":137:849   */\n  jump(tag_16)\ntag_18:\n    /* \"#utility.yul\":7:855   */\n  swap5\n  pop\n  swap5\n  swap3\n  pop\n  pop\n  pop\n  jump\t// out\n    /* \"#utility.yul\":861:1146   */\ntag_2:\n    /* \"#utility.yul\":921:926   */\n  0x00\n    /* \"#utility.yul\":945:968   */\n  tag_26\n    /* \"#utility.yul\":963:967   */\n  dup3\n    /* \"#utility.yul\":945:968   */\n  tag_27\n  jump\t// in\ntag_26:\n    /* \"#utility.yul\":937:968   */\n  swap2\n  pop\n    /* \"#utility.yul\":989:1016   */\n  tag_28\n    /* \"#utility.yul\":1007:1015   */\n  dup4\n    /* \"#utility.yul\":989:1016   */\n  tag_27\n  jump\t// in\ntag_28:\n    /* \"#utility.yul\":977:1016   */\n  swap3\n  pop\n    /* \"#utility.yul\":1035:1139   */\n  tag_29\n    /* \"#utility.yul\":1072:1138   */\n  0xffffffffffffffffffffffffffffffffffffffffffffffffffffffffffffffff\n    /* \"#utility.yul\":1062:1070   */\n  dup5\n    /* \"#utility.yul\":1056:1060   */\n  dup5\n    /* \"#utility.yul\":1035:1139   */\n  tag_30\n  jump\t// in\ntag_29:\n    /* \"#utility.yul\":1026:1139   */\n  swap1\n  pop\n    /* \"#utility.yul\":861:1146   */\n  swap3\n  swap2\n  pop\n  pop\n  jump\t// out\n    /* \"#utility.yul\":1152:2225   */\ntag_30:\n    /* \"#utility.yul\":1206:1211   */\n  0x00\n    /* \"#utility.yul\":1397:1405   */\n  dup3\n    /* \"#utility.yul\":1387:1427   */\n  tag_32\n  jumpi\n    /* \"#utility.yul\":1418:1419   */\n  0x01\n    /* \"#utility.yul\":1409:1419   */\n  swap1\n  pop\n    /* \"#utility.yul\":1420:1425   */\n  jump(tag_31)\n    /* \"#utility.yul\":1387:1427   */\ntag_32:\n    /* \"#utility.yul\":1446:1450   */\n  dup2\n    /* \"#utility.yul\":1436:1472   */\n  tag_33\n  jumpi\n    /* \"#utility.yul\":1463:1464   */\n  0x00\n    /* \"#utility.yul\":1454:1464   */\n  swap1\n  pop\n    /* \"#utility.yul\":1465:1470   */\n  jump(tag_31)\n    /* \"#utility.yul\":1436:1472   */\ntag_33:\n    /* \"#utility.yul\":1532:1536   */\n  dup2\n    /* \"#utility.yul\":1580:1581   */\n  0x01\n    /* \"#utility.yul\":1575:1602   */\n  dup2\n  eq\n  tag_35\n  jumpi\n    /* \"#utility.yul\":1616:1617   */\n  0x02\n    /* \"#utility.yul\":1611:1802   */\n  dup2\n  eq\n  tag_36\n  jumpi\n    /* \"#utility.yul\":1525:1802   */\n  jump(tag_34)\n    /* \"#utility.yul\":1575:1602   */\ntag_35:\n    /* \"#utility.yul\":1593:1594   */\n  0x01\n    /* \"#utility.yul\":1584:1594   */\n  swap2\n  pop\n    /* \"#utility.yul\":1595:1600   */\n  pop\n  jump(tag_31)\n    /* \"#utility.yul\":1611:1802   */\ntag_36:\n    /* \"#utility.yul\":1656:1659   */\n  0xff\n    /* \"#utility.yul\":1646:1654   */\n  dup5\n    /* \"#utility.yul\":1643:1660   */\n  gt\n    /* \"#utility.yul\":1640:1683   */\n  iszero\n  tag_37\n  jumpi\n    /* \"#utility.yul\":1663:1681   */\n  tag_38\n  tag_21\n  jump\t// in\ntag_38:\n    /* \"#utility.yul\":1640:1683   */\ntag_37:\n    /* \"#utility.yul\":1712:1720   */\n  dup4\n    /* \"#utility.yul\":1709:1710   */\n  0x02\n    /* \"#utility.yul\":1705:1721   */\n  exp\n    /* \"#utility.yul\":1696:1721   */\n  swap2\n  pop\n    /* \"#utility.yul\":1747:1750   */\n  dup5\n    /* \"#utility.yul\":1740:1745   */\n  dup3\n    /* \"#utility.yul\":1737:1751   */\n  gt\n    /* \"#utility.yul\":1734:1774   */\n  iszero\n  tag_39\n  jumpi\n    /* \"#utility.yul\":1754:1772   */\n  tag_40\n  tag_21\n  jump\t// in\ntag_40:\n    /* \"#utility.yul\":1734:1774   */\ntag_39:\n    /* \"#utility.yul\":1787:1792   */\n  pop\n  jump(tag_31)\n    /* \"#utility.yul\":1525:1802   */\ntag_34:\n  pop\n    /* \"#utility.yul\":1911:1913   */\n  0x20\n    /* \"#utility.yul\":1901:1909   */\n  dup4\n    /* \"#utility.yul\":1898:1914   */\n  lt\n    /* \"#utility.yul\":1892:1895   */\n  0x0133\n    /* \"#utility.yul\":1886:1890   */\n  dup4\n    /* \"#utility.yul\":1883:1896   */\n  lt\n    /* \"#utility.yul\":1879:1915   */\n  and\n    /* \"#utility.yul\":1861:1863   */\n  0x4e\n    /* \"#utility.yul\":1851:1859   */\n  dup5\n    /* \"#utility.yul\":1848:1864   */\n  lt\n    /* \"#utility.yul\":1843:1845   */\n  0x0b\n    /* \"#utility.yul\":1837:1841   */\n  dup5\n    /* \"#utility.yul\":1834:1846   */\n  lt\n    /* \"#utility.yul\":1830:1865   */\n  and\n    /* \"#utility.yul\":1814:1925   */\n  or\n    /* \"#utility.yul\":1811:2057   */\n  iszero\n  tag_41\n  jumpi\n    /* \"#utility.yul\":1967:1975   */\n  dup3\n    /* \"#utility.yul\":1961:1965   */\n  dup3\n    /* \"#utility.yul\":1957:1976   */\n  exp\n    /* \"#utility.yul\":1948:1976   */\n  swap1\n  pop\n    /* \"#utility.yul\":2002:2005   */\n  dup4\n    /* \"#utility.yul\":1995:2000   */\n  dup2\n    /* \"#utility.yul\":1992:2006   */\n  gt\n    /* \"#utility.yul\":1989:2029   */\n  iszero\n  tag_42\n  jumpi\n    /* \"#utility.yul\":2009:2027   */\n  tag_43\n  tag_21\n  jump\t// in\ntag_43:\n    /* \"#utility.yul\":1989:2029   */\ntag_42:\n    /* \"#utility.yul\":2042:2047   */\n  jump(tag_31)\n    /* \"#utility.yul\":1811:2057   */\ntag_41:\n    /* \"#utility.yul\":2082:2124   */\n  tag_44\n    /* \"#utility.yul\":2120:2123   */\n  dup5\n    /* \"#utility.yul\":2110:2118   */\n  dup5\n    /* \"#utility.yul\":2104:2108   */\n  dup5\n    /* \"#utility.yul\":2101:2102   */\n  0x01\n    /* \"#utility.yul\":2082:2124   */\n  tag_14\n  jump\t// in\ntag_44:\n    /* \"#utility.yul\":2067:2124   */\n  swap3\n  pop\n  swap1\n  pop\n    /* \"#utility.yul\":2156:2160   */\n  dup2\n    /* \"#utility.yul\":2151:2154   */\n  dup5\n    /* \"#utility.yul\":2147:2161   */\n  div\n    /* \"#utility.yul\":2140:2145   */\n  dup2\n    /* \"#utility.yul\":2137:2162   */\n  gt\n    /* \"#utility.yul\":2134:2185   */\n  iszero\n  tag_45\n  jumpi\n    /* \"#utility.yul\":2165:2183   */\n  tag_46\n  tag_21\n  jump\t// in\ntag_46:\n    /* \"#utility.yul\":2134:2185   */\ntag_45:\n    /* \"#utility.yul\":2214:2218   */\n  dup2\n    /* \"#utility.yul\":2207:2212   */\n  dup2\n    /* \"#utility.yul\":2203:2219   */\n  mul\n    /* \"#utility.yul\":2194:2219   */\n  swap1\n  pop\n    /* \"#utility.yul\":1152:2225   */\ntag_31:\n  swap4\n  swap3\n  pop\n  pop\n  pop\n  jump\t// out\n    /* \"#utility.yul\":2231:2308   */\ntag_27:\n    /* \"#utility.yul\":2268:2275   */\n  0x00\n    /* \"#utility.yul\":2297:2302   */\n  dup2\n    /* \"#utility.yul\":2286:2302   */\n  swap1\n  pop\n    /* \"#utility.yul\":2231:2308   */\n  swap2\n  swap1\n  pop\n  jump\t// out\n    /* \"#utility.yul\":2314:2494   */\ntag_21:\n    /* \"#utility.yul\":2362:2439   */\n  0x4e487b7100000000000000000000000000000000000000000000000000000000\n    /* \"#utility.yul\":2359:2360   */\n  0x00\n    /* \"#utility.yul\":2352:2440   */\n  mstore\n    /* \"#utility.yul\":2459:2463   */\n  0x11\n    /* \"#utility.yul\":2456:2457   */\n  0x04\n    /* \"#utility.yul\":2449:2464   */\n  mstore\n    /* \"#utility.yul\":2483:2487   */\n  0x24\n    /* \"#utility.yul\":2480:2481   */\n  0x00\n    /* \"#utility.yul\":2473:2488   */\n  revert\n    /* \"#utility.yul\":2500:2602   */\ntag_24:\n    /* \"#utility.yul\":2542:2550   */\n  0x00\n    /* \"#utility.yul\":2589:2594   */\n  dup2\n    /* \"#utility.yul\":2586:2587   */\n  0x01\n    /* \"#utility.yul\":2582:2595   */\n  shr\n    /* \"#utility.yul\":2561:2595   */\n  swap1\n  pop\n    /* \"#utility.yul\":2500:2602   */\n  swap2\n  swap1\n  pop\n  jump\t// out\n    /* \"contract/HouseRegistry.sol\":87:2149  contract HouseRegistry is Ownable {... */\ntag_10:\n  dataSize(sub_0)\n  dup1\n  dataOffset(sub_0)\n  0x00\n  codecopy\n  0x00\n  return\nstop\n\nsub_0: assembly {\n        /* \"contract/HouseRegistry.sol\":87:2149  contract HouseRegistry is Ownable {... */\n      mstore(0x40, 0x80)\n      callvalue\n      dup1\n      iszero\n      tag_1\n      jumpi\n      0x00\n      dup1\n      revert\n    tag_1:\n      pop\n      jumpi(tag_2, lt(calldatasize, 0x04))\n      shr(0xe0, calldataload(0x00))\n      dup1\n      0x91bfe0d4\n      gt\n      tag_10\n      jumpi\n      dup1\n      0x91bfe0d4\n      eq\n      tag_6\n      jumpi\n      dup1\n      0xaeda852f\n      eq\n      tag_7\n      jumpi\n      dup1\n      0xc45e1b25\n      eq\n      tag_8\n      jumpi\n      dup1\n      0xf2fde38b\n      eq\n      tag_9\n      jumpi\n      jump(tag_2)\n    tag_10:\n      dup1\n      0x3c3b0b4a\n      eq\n      tag_3\n      jumpi\n      dup1\n      0x715018a6\n      eq\n      tag_4\n      jumpi\n      dup1\n      0x8da5cb5b\n      eq\n      tag_5\n      jumpi\n    tag_2:\n      0x00\n      dup1\n      revert\n        /* \"contract/HouseRegistry.sol\":1229:1498  function delistHouse(uint houseId) public returns (string memory){... */\n    tag_3:\n      tag_11\n      0x04\n      dup1\n      calldatasize\n      sub\n      dup2\n      add\n      swap1\n      tag_12\n      swap2\n      swap1\n      tag_13\n      jump\t// in\n    tag_12:\n      tag_14\n      jump\t// in\n    tag_11:\n      mload(0x40)\n      tag_15\n      swap2\n      swap1\n      tag_16\n      jump\t// in\n    tag_15:\n      mload(0x40)\n      dup1\n      swap2\n      sub\n      swap1\n      return\n        /* \"contract/Ownable.sol\":1901:2004  function renounceOwnership() public virtual onlyOwner {\r... */\n    tag_4:\n      tag_17\n      tag_18\n      jump\t// in\n    tag_17:\n      stop\n        /* \"contract/Ownable.sol\":1105:1192  function owner() public view virtual returns (address) {\r... */\n    tag_5:\n      tag_19\n      tag_20\n      jump\t// in\n    tag_19:\n      mload(0x40)\n      tag_21\n      swap2\n      swap1\n      tag_22\n      jump\t// in\n    tag_21:\n      mload(0x40)\n      dup1\n      swap2\n      sub\n      swap1\n      return\n        /* \"contract/HouseRegistry.sol\":584:1219  function listHouse (uint _price, uint _area, address _sellerAddress, string memory _houseAddress) public returns (uint) {... */\n    tag_6:\n      tag_23\n      0x04\n      dup1\n      calldatasize\n      sub\n      dup2\n      add\n      swap1\n      tag_24\n      swap2\n      swap1\n      tag_25\n      jump\t// in\n    tag_24:\n      tag_26\n      jump\t// in\n    tag_23:\n      mload(0x40)\n      tag_27\n      swap2\n      swap1\n      tag_28\n      jump\t// in\n    tag_27:\n      mload(0x40)\n      dup1\n      swap2\n      sub\n      swap1\n      return\n        /* \"contract/HouseRegistry.sol\":541:577  mapping(uint => House) public houses */\n    tag_7:\n      tag_29\n      0x04\n      dup1\n      calldatasize\n      sub\n      dup2\n      add\n      swap1\n      tag_30\n      swap2\n      swap1\n      tag_13\n      jump\t// in\n    tag_30:\n      tag_31\n      jump\t// in\n    tag_29:\n      mload(0x40)\n      tag_32\n      swap8\n      swap7\n      swap6\n      swap5\n      swap4\n      swap3\n      swap2\n      swap1\n      tag_33\n      jump\t// in\n    tag_32:\n      mload(0x40)\n      dup1\n      swap2\n      sub\n      swap1\n      return\n        /* \"contract/HouseRegistry.sol\":1508:1884  function getCheapHouseIds(uint cost) external view returns (uint[] memory ){... */\n    tag_8:\n      tag_34\n      0x04\n      dup1\n      calldatasize\n      sub\n      dup2\n      add\n      swap1\n      tag_35\n      swap2\n      swap1\n      tag_13\n      jump\t// in\n    tag_35:\n      tag_36\n      jump\t// in\n    tag_34:\n      mload(0x40)\n      tag_37\n      swap2\n      swap1\n      tag_38\n      jump\t// in\n    tag_37:\n      mload(0x40)\n      dup1\n      swap2\n      sub\n      swap1\n      return\n        /* \"contract/Ownable.sol\":2159:2360  function transferOwnership(address newOwner) public virtual onlyOwner {\r... */\n    tag_9:\n      tag_39\n      0x04\n      dup1\n      calldatasize\n      sub\n      dup2\n      add\n      swap1\n      tag_40\n      swap2\n      swap1\n      tag_41\n      jump\t// in\n    tag_40:\n      tag_42\n      jump\t// in\n    tag_39:\n      stop\n        /* \"contract/HouseRegistry.sol\":1229:1498  function delistHouse(uint houseId) public returns (string memory){... */\n    tag_14:\n        /* \"contract/HouseRegistry.sol\":1280:1293  string memory */\n      0x60\n        /* \"contract/HouseRegistry.sol\":1345:1355  msg.sender */\n      caller\n        /* \"contract/HouseRegistry.sol\":1312:1355  houses[houseId].sellerAddress == msg.sender */\n      0xffffffffffffffffffffffffffffffffffffffff\n      and\n        /* \"contract/HouseRegistry.sol\":1312:1318  houses */\n      0x06\n        /* \"contract/HouseRegistry.sol\":1312:1327  houses[houseId] */\n      0x00\n        /* \"contract/HouseRegistry.sol\":1319:1326  houseId */\n      dup5\n        /* \"contract/HouseRegistry.sol\":1312:1327  houses[houseId] */\n      dup2\n      mstore\n      0x20\n      add\n      swap1\n      dup2\n      mstore\n      0x20\n      add\n      0x00\n      keccak256\n        /* \"contract/HouseRegistry.sol\":1312:1341  houses[houseId].sellerAddress */\n      0x04\n      add\n      0x00\n      swap1\n      sload\n      swap1\n      0x0100\n      exp\n      swap1\n      div\n      0xffffffffffffffffffffffffffffffffffffffff\n      and\n        /* \"contract/HouseRegistry.sol\":1312:1355  houses[houseId].sellerAddress == msg.sender */\n      0xffffffffffffffffffffffffffffffffffffffff\n      and\n      eq\n        /* \"contract/HouseRegistry.sol\":1304:1403  require(houses[houseId].sellerAddress == msg.sender, \"You do not have access to delete this house\") */\n      tag_44\n      jumpi\n      mload(0x40)\n      0x08c379a000000000000000000000000000000000000000000000000000000000\n      dup2\n      mstore\n      0x04\n      add\n      tag_45\n      swap1\n      tag_46\n      jump\t// in\n    tag_45:\n      mload(0x40)\n      dup1\n      swap2\n      sub\n      swap1\n      revert\n    tag_44:\n        /* \"contract/HouseRegistry.sol\":1447:1451  true */\n      0x01\n        /* \"contract/HouseRegistry.sol\":1413:1419  houses */\n      0x06\n        /* \"contract/HouseRegistry.sol\":1413:1428  houses[houseId] */\n      0x00\n        /* \"contract/HouseRegistry.sol\":1420:1427  houseId */\n      dup5\n        /* \"contract/HouseRegistry.sol\":1413:1428  houses[houseId] */\n      dup2\n      mstore\n      0x20\n      add\n      swap1\n      dup2\n      mstore\n      0x20\n      add\n      0x00\n      keccak256\n        /* \"contract/HouseRegistry.sol\":1413:1444  houses[houseId].isdelistedHouse */\n      0x06\n      add\n      0x00\n        /* \"contract/HouseRegistry.sol\":1413:1451  houses[houseId].isdelistedHouse = true */\n      0x0100\n      exp\n      dup2\n      sload\n      dup2\n      0xff\n      mul\n      not\n      and\n      swap1\n      dup4\n      iszero\n      iszero\n      mul\n      or\n      swap1\n      sstore\n      pop\n        /* \"contract/HouseRegistry.sol\":1461:1491  return \"delist was successful\" */\n      mload(0x40)\n      dup1\n      0x40\n      add\n      0x40\n      mstore\n      dup1\n      0x15\n      dup2\n      mstore\n      0x20\n      add\n      0x64656c69737420776173207375636365737366756c0000000000000000000000\n      dup2\n      mstore\n      pop\n      swap1\n      pop\n        /* \"contract/HouseRegistry.sol\":1229:1498  function delistHouse(uint houseId) public returns (string memory){... */\n      swap2\n      swap1\n      pop\n      jump\t// out\n        /* \"contract/Ownable.sol\":1901:2004  function renounceOwnership() public virtual onlyOwner {\r... */\n    tag_18:\n        /* \"contract/Ownable.sol\":1336:1348  _msgSender() */\n      tag_48\n        /* \"contract/Ownable.sol\":1336:1346  _msgSender */\n      tag_49\n        /* \"contract/Ownable.sol\":1336:1348  _msgSender() */\n      jump\t// in\n    tag_48:\n        /* \"contract/Ownable.sol\":1325:1348  owner() == _msgSender() */\n      0xffffffffffffffffffffffffffffffffffffffff\n      and\n        /* \"contract/Ownable.sol\":1325:1332  owner() */\n      tag_50\n        /* \"contract/Ownable.sol\":1325:1330  owner */\n      tag_20\n        /* \"contract/Ownable.sol\":1325:1332  owner() */\n      jump\t// in\n    tag_50:\n        /* \"contract/Ownable.sol\":1325:1348  owner() == _msgSender() */\n      0xffffffffffffffffffffffffffffffffffffffff\n      and\n      eq\n        /* \"contract/Ownable.sol\":1317:1385  require(owner() == _msgSender(), \"Ownable: caller is not the owner\") */\n      tag_51\n      jumpi\n      mload(0x40)\n      0x08c379a000000000000000000000000000000000000000000000000000000000\n      dup2\n      mstore\n      0x04\n      add\n      tag_52\n      swap1\n      tag_53\n      jump\t// in\n    tag_52:\n      mload(0x40)\n      dup1\n      swap2\n      sub\n      swap1\n      revert\n    tag_51:\n        /* \"contract/Ownable.sol\":1966:1996  _transferOwnership(address(0)) */\n      tag_55\n        /* \"contract/Ownable.sol\":1993:1994  0 */\n      0x00\n        /* \"contract/Ownable.sol\":1966:1984  _transferOwnership */\n      tag_56\n        /* \"contract/Ownable.sol\":1966:1996  _transferOwnership(address(0)) */\n      jump\t// in\n    tag_55:\n        /* \"contract/Ownable.sol\":1901:2004  function renounceOwnership() public virtual onlyOwner {\r... */\n      jump\t// out\n        /* \"contract/Ownable.sol\":1105:1192  function owner() public view virtual returns (address) {\r... */\n    tag_20:\n        /* \"contract/Ownable.sol\":1151:1158  address */\n      0x00\n        /* \"contract/Ownable.sol\":1178:1184  _owner */\n      dup1\n      0x00\n      swap1\n      sload\n      swap1\n      0x0100\n      exp\n      swap1\n      div\n      0xffffffffffffffffffffffffffffffffffffffff\n      and\n        /* \"contract/Ownable.sol\":1171:1184  return _owner */\n      swap1\n      pop\n        /* \"contract/Ownable.sol\":1105:1192  function owner() public view virtual returns (address) {\r... */\n      swap1\n      jump\t// out\n        /* \"contract/HouseRegistry.sol\":584:1219  function listHouse (uint _price, uint _area, address _sellerAddress, string memory _houseAddress) public returns (uint) {... */\n    tag_26:\n        /* \"contract/HouseRegistry.sol\":698:702  uint */\n      0x00\n        /* \"contract/HouseRegistry.sol\":739:740  0 */\n      dup1\n        /* \"contract/HouseRegistry.sol\":731:736  _area */\n      dup5\n        /* \"contract/HouseRegistry.sol\":722:728  _price */\n      dup7\n        /* \"contract/HouseRegistry.sol\":722:736  _price * _area */\n      tag_59\n      swap2\n      swap1\n      tag_60\n      jump\t// in\n    tag_59:\n        /* \"contract/HouseRegistry.sol\":722:740  _price * _area > 0 */\n      gt\n        /* \"contract/HouseRegistry.sol\":714:765  require(_price * _area > 0, \"value cannot be null\") */\n      tag_61\n      jumpi\n      mload(0x40)\n      0x08c379a000000000000000000000000000000000000000000000000000000000\n      dup2\n      mstore\n      0x04\n      add\n      tag_62\n      swap1\n      tag_63\n      jump\t// in\n    tag_62:\n      mload(0x40)\n      dup1\n      swap2\n      sub\n      swap1\n      revert\n    tag_61:\n        /* \"contract/HouseRegistry.sol\":775:787  uint houseId */\n      0x00\n        /* \"contract/HouseRegistry.sol\":790:844  _generateHouseId(_sellerAddress, _area, _houseAddress) */\n      tag_64\n        /* \"contract/HouseRegistry.sol\":807:821  _sellerAddress */\n      dup5\n        /* \"contract/HouseRegistry.sol\":823:828  _area */\n      dup7\n        /* \"contract/HouseRegistry.sol\":830:843  _houseAddress */\n      dup6\n        /* \"contract/HouseRegistry.sol\":790:806  _generateHouseId */\n      tag_65\n        /* \"contract/HouseRegistry.sol\":790:844  _generateHouseId(_sellerAddress, _area, _houseAddress) */\n      jump\t// in\n    tag_64:\n        /* \"contract/HouseRegistry.sol\":775:844  uint houseId = _generateHouseId(_sellerAddress, _area, _houseAddress) */\n      swap1\n      pop\n        /* \"contract/HouseRegistry.sol\":873:879  houses */\n      0x06\n        /* \"contract/HouseRegistry.sol\":873:888  houses[houseId] */\n      0x00\n        /* \"contract/HouseRegistry.sol\":880:887  houseId */\n      dup3\n        /* \"contract/HouseRegistry.sol\":873:888  houses[houseId] */\n      dup2\n      mstore\n      0x20\n      add\n      swap1\n      dup2\n      mstore\n      0x20\n      add\n      0x00\n      keccak256\n        /* \"contract/HouseRegistry.sol\":873:891  houses[houseId].id */\n      0x00\n      add\n      sload\n        /* \"contract/HouseRegistry.sol\":862:869  houseId */\n      dup2\n        /* \"contract/HouseRegistry.sol\":862:891  houseId != houses[houseId].id */\n      eq\n      iszero\n        /* \"contract/HouseRegistry.sol\":854:923  require(houseId != houses[houseId].id, \"this houseId already exists\") */\n      tag_66\n      jumpi\n      mload(0x40)\n      0x08c379a000000000000000000000000000000000000000000000000000000000\n      dup2\n      mstore\n      0x04\n      add\n      tag_67\n      swap1\n      tag_68\n      jump\t// in\n    tag_67:\n      mload(0x40)\n      dup1\n      swap2\n      sub\n      swap1\n      revert\n    tag_66:\n        /* \"contract/HouseRegistry.sol\":951:1033  House(houseId, countOfHouses, _price, _area, _sellerAddress, _houseAddress, false) */\n      mload(0x40)\n      dup1\n      0xe0\n      add\n      0x40\n      mstore\n      dup1\n        /* \"contract/HouseRegistry.sol\":957:964  houseId */\n      dup3\n        /* \"contract/HouseRegistry.sol\":951:1033  House(houseId, countOfHouses, _price, _area, _sellerAddress, _houseAddress, false) */\n      dup2\n      mstore\n      0x20\n      add\n        /* \"contract/HouseRegistry.sol\":966:979  countOfHouses */\n      sload(0x05)\n        /* \"contract/HouseRegistry.sol\":951:1033  House(houseId, countOfHouses, _price, _area, _sellerAddress, _houseAddress, false) */\n      dup2\n      mstore\n      0x20\n      add\n        /* \"contract/HouseRegistry.sol\":981:987  _price */\n      dup8\n        /* \"contract/HouseRegistry.sol\":951:1033  House(houseId, countOfHouses, _price, _area, _sellerAddress, _houseAddress, false) */\n      dup2\n      mstore\n      0x20\n      add\n        /* \"contract/HouseRegistry.sol\":989:994  _area */\n      dup7\n        /* \"contract/HouseRegistry.sol\":951:1033  House(houseId, countOfHouses, _price, _area, _sellerAddress, _houseAddress, false) */\n      dup2\n      mstore\n      0x20\n      add\n        /* \"contract/HouseRegistry.sol\":996:1010  _sellerAddress */\n      dup6\n        /* \"contract/HouseRegistry.sol\":951:1033  House(houseId, countOfHouses, _price, _area, _sellerAddress, _houseAddress, false) */\n      0xffffffffffffffffffffffffffffffffffffffff\n      and\n      dup2\n      mstore\n      0x20\n      add\n        /* \"contract/HouseRegistry.sol\":1012:1025  _houseAddress */\n      dup5\n        /* \"contract/HouseRegistry.sol\":951:1033  House(houseId, countOfHouses, _price, _area, _sellerAddress, _houseAddress, false) */\n      dup2\n      mstore\n      0x20\n      add\n        /* \"contract/HouseRegistry.sol\":1027:1032  false */\n      0x00\n        /* \"contract/HouseRegistry.sol\":951:1033  House(houseId, countOfHouses, _price, _area, _sellerAddress, _houseAddress, false) */\n      iszero\n      iszero\n      dup2\n      mstore\n      pop\n        /* \"contract/HouseRegistry.sol\":933:939  houses */\n      0x06\n        /* \"contract/HouseRegistry.sol\":933:948  houses[houseId] */\n      0x00\n        /* \"contract/HouseRegistry.sol\":940:947  houseId */\n      dup4\n        /* \"contract/HouseRegistry.sol\":933:948  houses[houseId] */\n      dup2\n      mstore\n      0x20\n      add\n      swap1\n      dup2\n      mstore\n      0x20\n      add\n      0x00\n      keccak256\n        /* \"contract/HouseRegistry.sol\":933:1033  houses[houseId] = House(houseId, countOfHouses, _price, _area, _sellerAddress, _houseAddress, false) */\n      0x00\n      dup3\n      add\n      mload\n      dup2\n      0x00\n      add\n      sstore\n      0x20\n      dup3\n      add\n      mload\n      dup2\n      0x01\n      add\n      sstore\n      0x40\n      dup3\n      add\n      mload\n      dup2\n      0x02\n      add\n      sstore\n      0x60\n      dup3\n      add\n      mload\n      dup2\n      0x03\n      add\n      sstore\n      0x80\n      dup3\n      add\n      mload\n      dup2\n      0x04\n      add\n      exp(0x0100, 0x00)\n      dup2\n      sload\n      dup2\n      0xffffffffffffffffffffffffffffffffffffffff\n      mul\n      not\n      and\n      swap1\n      dup4\n      0xffffffffffffffffffffffffffffffffffffffff\n      and\n      mul\n      or\n      swap1\n      sstore\n      pop\n      0xa0\n      dup3\n      add\n      mload\n      dup2\n      0x05\n      add\n      swap1\n      dup1\n      mload\n      swap1\n      0x20\n      add\n      swap1\n      tag_69\n      swap3\n      swap2\n      swap1\n      tag_70\n      jump\t// in\n    tag_69:\n      pop\n      0xc0\n      dup3\n      add\n      mload\n      dup2\n      0x06\n      add\n      exp(0x0100, 0x00)\n      dup2\n      sload\n      dup2\n      0xff\n      mul\n      not\n      and\n      swap1\n      dup4\n      iszero\n      iszero\n      mul\n      or\n      swap1\n      sstore\n      pop\n      swap1\n      pop\n      pop\n        /* \"contract/HouseRegistry.sol\":1043:1089  _ownerCooldown(block.timestamp + cooldownTime) */\n      tag_71\n        /* \"contract/HouseRegistry.sol\":1076:1088  cooldownTime */\n      sload(0x04)\n        /* \"contract/HouseRegistry.sol\":1058:1073  block.timestamp */\n      timestamp\n        /* \"contract/HouseRegistry.sol\":1058:1088  block.timestamp + cooldownTime */\n      tag_72\n      swap2\n      swap1\n      tag_73\n      jump\t// in\n    tag_72:\n        /* \"contract/HouseRegistry.sol\":1043:1057  _ownerCooldown */\n      tag_74\n        /* \"contract/HouseRegistry.sol\":1043:1089  _ownerCooldown(block.timestamp + cooldownTime) */\n      jump\t// in\n    tag_71:\n        /* \"contract/HouseRegistry.sol\":1099:1112  countOfHouses */\n      0x05\n      0x00\n        /* \"contract/HouseRegistry.sol\":1099:1114  countOfHouses++ */\n      dup2\n      sload\n      dup1\n      swap3\n      swap2\n      swap1\n      tag_75\n      swap1\n      tag_76\n      jump\t// in\n    tag_75:\n      swap2\n      swap1\n      pop\n      sstore\n      pop\n        /* \"contract/HouseRegistry.sol\":1129:1188  AddNewHouse(houseId, _sellerAddress, _price, _houseAddress) */\n      0x8f5afd88eb4be0ac287d87970052ce9a2b453448408e3c91a695ad7509ab7194\n        /* \"contract/HouseRegistry.sol\":1141:1148  houseId */\n      dup2\n        /* \"contract/HouseRegistry.sol\":1150:1164  _sellerAddress */\n      dup6\n        /* \"contract/HouseRegistry.sol\":1166:1172  _price */\n      dup9\n        /* \"contract/HouseRegistry.sol\":1174:1187  _houseAddress */\n      dup7\n        /* \"contract/HouseRegistry.sol\":1129:1188  AddNewHouse(houseId, _sellerAddress, _price, _houseAddress) */\n      mload(0x40)\n      tag_77\n      swap5\n      swap4\n      swap3\n      swap2\n      swap1\n      tag_78\n      jump\t// in\n    tag_77:\n      mload(0x40)\n      dup1\n      swap2\n      sub\n      swap1\n      log1\n        /* \"contract/HouseRegistry.sol\":1205:1212  houseId */\n      dup1\n        /* \"contract/HouseRegistry.sol\":1198:1212  return houseId */\n      swap2\n      pop\n      pop\n        /* \"contract/HouseRegistry.sol\":584:1219  function listHouse (uint _price, uint _area, address _sellerAddress, string memory _houseAddress) public returns (uint) {... */\n      swap5\n      swap4\n      pop\n      pop\n      pop\n      pop\n      jump\t// out\n        /* \"contract/HouseRegistry.sol\":541:577  mapping(uint => House) public houses */\n    tag_31:\n      mstore(0x20, 0x06)\n      dup1\n      0x00\n      mstore\n      keccak256(0x00, 0x40)\n      0x00\n      swap2\n      pop\n      swap1\n      pop\n      dup1\n      0x00\n      add\n      sload\n      swap1\n      dup1\n      0x01\n      add\n      sload\n      swap1\n      dup1\n      0x02\n      add\n      sload\n      swap1\n      dup1\n      0x03\n      add\n      sload\n      swap1\n      dup1\n      0x04\n      add\n      0x00\n      swap1\n      sload\n      swap1\n      0x0100\n      exp\n      swap1\n      div\n      0xffffffffffffffffffffffffffffffffffffffff\n      and\n      swap1\n      dup1\n      0x05\n      add\n      dup1\n      sload\n      tag_79\n      swap1\n      tag_80\n      jump\t// in\n    tag_79:\n      dup1\n      0x1f\n      add\n      0x20\n      dup1\n      swap2\n      div\n      mul\n      0x20\n      add\n      mload(0x40)\n      swap1\n      dup2\n      add\n      0x40\n      mstore\n      dup1\n      swap3\n      swap2\n      swap1\n      dup2\n      dup2\n      mstore\n      0x20\n      add\n      dup3\n      dup1\n      sload\n      tag_81\n      swap1\n      tag_80\n      jump\t// in\n    tag_81:\n      dup1\n      iszero\n      tag_82\n      jumpi\n      dup1\n      0x1f\n      lt\n      tag_83\n      jumpi\n      0x0100\n      dup1\n      dup4\n      sload\n      div\n      mul\n      dup4\n      mstore\n      swap2\n      0x20\n      add\n      swap2\n      jump(tag_82)\n    tag_83:\n      dup3\n      add\n      swap2\n      swap1\n      0x00\n      mstore\n      keccak256(0x00, 0x20)\n      swap1\n    tag_84:\n      dup2\n      sload\n      dup2\n      mstore\n      swap1\n      0x01\n      add\n      swap1\n      0x20\n      add\n      dup1\n      dup4\n      gt\n      tag_84\n      jumpi\n      dup3\n      swap1\n      sub\n      0x1f\n      and\n      dup3\n      add\n      swap2\n    tag_82:\n      pop\n      pop\n      pop\n      pop\n      pop\n      swap1\n      dup1\n      0x06\n      add\n      0x00\n      swap1\n      sload\n      swap1\n      0x0100\n      exp\n      swap1\n      div\n      0xff\n      and\n      swap1\n      pop\n      dup8\n      jump\t// out\n        /* \"contract/HouseRegistry.sol\":1508:1884  function getCheapHouseIds(uint cost) external view returns (uint[] memory ){... */\n    tag_36:\n        /* \"contract/HouseRegistry.sol\":1568:1581  uint[] memory */\n      0x60\n        /* \"contract/HouseRegistry.sol\":1597:1625  uint[] memory filteredHouses */\n      dup1\n        /* \"contract/HouseRegistry.sol\":1639:1649  uint count */\n      0x00\n        /* \"contract/HouseRegistry.sol\":1667:1673  uint i */\n      dup1\n        /* \"contract/HouseRegistry.sol\":1676:1677  1 */\n      0x01\n        /* \"contract/HouseRegistry.sol\":1667:1677  uint i = 1 */\n      swap1\n      pop\n        /* \"contract/HouseRegistry.sol\":1663:1847  for(uint i = 1; i <= countOfHouses; i++){... */\n    tag_86:\n        /* \"contract/HouseRegistry.sol\":1684:1697  countOfHouses */\n      sload(0x05)\n        /* \"contract/HouseRegistry.sol\":1679:1680  i */\n      dup2\n        /* \"contract/HouseRegistry.sol\":1679:1697  i <= countOfHouses */\n      gt\n        /* \"contract/HouseRegistry.sol\":1663:1847  for(uint i = 1; i <= countOfHouses; i++){... */\n      tag_87\n      jumpi\n        /* \"contract/HouseRegistry.sol\":1738:1742  cost */\n      dup5\n        /* \"contract/HouseRegistry.sol\":1720:1726  houses */\n      0x06\n        /* \"contract/HouseRegistry.sol\":1720:1729  houses[i] */\n      0x00\n        /* \"contract/HouseRegistry.sol\":1727:1728  i */\n      dup4\n        /* \"contract/HouseRegistry.sol\":1720:1729  houses[i] */\n      dup2\n      mstore\n      0x20\n      add\n      swap1\n      dup2\n      mstore\n      0x20\n      add\n      0x00\n      keccak256\n        /* \"contract/HouseRegistry.sol\":1720:1735  houses[i].price */\n      0x02\n      add\n      sload\n        /* \"contract/HouseRegistry.sol\":1720:1742  houses[i].price<= cost */\n      gt\n        /* \"contract/HouseRegistry.sol\":1717:1837  if(houses[i].price<= cost){... */\n      tag_89\n      jumpi\n        /* \"contract/HouseRegistry.sol\":1785:1791  houses */\n      0x06\n        /* \"contract/HouseRegistry.sol\":1785:1794  houses[i] */\n      0x00\n        /* \"contract/HouseRegistry.sol\":1792:1793  i */\n      dup3\n        /* \"contract/HouseRegistry.sol\":1785:1794  houses[i] */\n      dup2\n      mstore\n      0x20\n      add\n      swap1\n      dup2\n      mstore\n      0x20\n      add\n      0x00\n      keccak256\n        /* \"contract/HouseRegistry.sol\":1785:1797  houses[i].id */\n      0x00\n      add\n      sload\n        /* \"contract/HouseRegistry.sol\":1761:1775  filteredHouses */\n      dup4\n        /* \"contract/HouseRegistry.sol\":1776:1781  count */\n      dup4\n        /* \"contract/HouseRegistry.sol\":1761:1782  filteredHouses[count] */\n      dup2\n      mload\n      dup2\n      lt\n      tag_90\n      jumpi\n      tag_91\n      tag_92\n      jump\t// in\n    tag_91:\n    tag_90:\n      0x20\n      mul\n      0x20\n      add\n      add\n        /* \"contract/HouseRegistry.sol\":1761:1797  filteredHouses[count] = houses[i].id */\n      dup2\n      dup2\n      mstore\n      pop\n      pop\n        /* \"contract/HouseRegistry.sol\":1815:1822  count++ */\n      dup2\n      dup1\n      tag_93\n      swap1\n      tag_76\n      jump\t// in\n    tag_93:\n      swap3\n      pop\n      pop\n        /* \"contract/HouseRegistry.sol\":1717:1837  if(houses[i].price<= cost){... */\n    tag_89:\n        /* \"contract/HouseRegistry.sol\":1699:1702  i++ */\n      dup1\n      dup1\n      tag_94\n      swap1\n      tag_76\n      jump\t// in\n    tag_94:\n      swap2\n      pop\n      pop\n        /* \"contract/HouseRegistry.sol\":1663:1847  for(uint i = 1; i <= countOfHouses; i++){... */\n      jump(tag_86)\n    tag_87:\n      pop\n        /* \"contract/HouseRegistry.sol\":1863:1877  filteredHouses */\n      dup2\n        /* \"contract/HouseRegistry.sol\":1856:1877  return filteredHouses */\n      swap3\n      pop\n      pop\n      pop\n        /* \"contract/HouseRegistry.sol\":1508:1884  function getCheapHouseIds(uint cost) external view returns (uint[] memory ){... */\n      swap2\n      swap1\n      pop\n      jump\t// out\n        /* \"contract/Ownable.sol\":2159:2360  function transferOwnership(address newOwner) public virtual onlyOwner {\r... */\n    tag_42:\n        /* \"contract/Ownable.sol\":1336:1348  _msgSender() */\n      tag_96\n        /* \"contract/Ownable.sol\":1336:1346  _msgSender */\n      tag_49\n        /* \"contract/Ownable.sol\":1336:1348  _msgSender() */\n      jump\t// in\n    tag_96:\n        /* \"contract/Ownable.sol\":1325:1348  owner() == _msgSender() */\n      0xffffffffffffffffffffffffffffffffffffffff\n      and\n        /* \"contract/Ownable.sol\":1325:1332  owner() */\n      tag_97\n        /* \"contract/Ownable.sol\":1325:1330  owner */\n      tag_20\n        /* \"contract/Ownable.sol\":1325:1332  owner() */\n      jump\t// in\n    tag_97:\n        /* \"contract/Ownable.sol\":1325:1348  owner() == _msgSender() */\n      0xffffffffffffffffffffffffffffffffffffffff\n      and\n      eq\n        /* \"contract/Ownable.sol\":1317:1385  require(owner() == _msgSender(), \"Ownable: caller is not the owner\") */\n      tag_98\n      jumpi\n      mload(0x40)\n      0x08c379a000000000000000000000000000000000000000000000000000000000\n      dup2\n      mstore\n      0x04\n      add\n      tag_99\n      swap1\n      tag_53\n      jump\t// in\n    tag_99:\n      mload(0x40)\n      dup1\n      swap2\n      sub\n      swap1\n      revert\n    tag_98:\n        /* \"contract/Ownable.sol\":2268:2269  0 */\n      0x00\n        /* \"contract/Ownable.sol\":2248:2270  newOwner != address(0) */\n      0xffffffffffffffffffffffffffffffffffffffff\n      and\n        /* \"contract/Ownable.sol\":2248:2256  newOwner */\n      dup2\n        /* \"contract/Ownable.sol\":2248:2270  newOwner != address(0) */\n      0xffffffffffffffffffffffffffffffffffffffff\n      and\n      eq\n      iszero\n        /* \"contract/Ownable.sol\":2240:2313  require(newOwner != address(0), \"Ownable: new owner is the zero address\") */\n      tag_101\n      jumpi\n      mload(0x40)\n      0x08c379a000000000000000000000000000000000000000000000000000000000\n      dup2\n      mstore\n      0x04\n      add\n      tag_102\n      swap1\n      tag_103\n      jump\t// in\n    tag_102:\n      mload(0x40)\n      dup1\n      swap2\n      sub\n      swap1\n      revert\n    tag_101:\n        /* \"contract/Ownable.sol\":2324:2352  _transferOwnership(newOwner) */\n      tag_104\n        /* \"contract/Ownable.sol\":2343:2351  newOwner */\n      dup2\n        /* \"contract/Ownable.sol\":2324:2342  _transferOwnership */\n      tag_56\n        /* \"contract/Ownable.sol\":2324:2352  _transferOwnership(newOwner) */\n      jump\t// in\n    tag_104:\n        /* \"contract/Ownable.sol\":2159:2360  function transferOwnership(address newOwner) public virtual onlyOwner {\r... */\n      pop\n      jump\t// out\n        /* \"contract/utils/Context.sol\":656:754  function _msgSender() internal view virtual returns (address) {\r... */\n    tag_49:\n        /* \"contract/utils/Context.sol\":709:716  address */\n      0x00\n        /* \"contract/utils/Context.sol\":736:746  msg.sender */\n      caller\n        /* \"contract/utils/Context.sol\":729:746  return msg.sender */\n      swap1\n      pop\n        /* \"contract/utils/Context.sol\":656:754  function _msgSender() internal view virtual returns (address) {\r... */\n      swap1\n      jump\t// out\n        /* \"contract/Ownable.sol\":2520:2711  function _transferOwnership(address newOwner) internal virtual {\r... */\n    tag_56:\n        /* \"contract/Ownable.sol\":2594:2610  address oldOwner */\n      0x00\n        /* \"contract/Ownable.sol\":2613:2619  _owner */\n      dup1\n      0x00\n      swap1\n      sload\n      swap1\n      0x0100\n      exp\n      swap1\n      div\n      0xffffffffffffffffffffffffffffffffffffffff\n      and\n        /* \"contract/Ownable.sol\":2594:2619  address oldOwner = _owner */\n      swap1\n      pop\n        /* \"contract/Ownable.sol\":2639:2647  newOwner */\n      dup2\n        /* \"contract/Ownable.sol\":2630:2636  _owner */\n      0x00\n      dup1\n        /* \"contract/Ownable.sol\":2630:2647  _owner = newOwner */\n      0x0100\n      exp\n      dup2\n      sload\n      dup2\n      0xffffffffffffffffffffffffffffffffffffffff\n      mul\n      not\n      and\n      swap1\n      dup4\n      0xffffffffffffffffffffffffffffffffffffffff\n      and\n      mul\n      or\n      swap1\n      sstore\n      pop\n        /* \"contract/Ownable.sol\":2694:2702  newOwner */\n      dup2\n        /* \"contract/Ownable.sol\":2663:2703  OwnershipTransferred(oldOwner, newOwner) */\n      0xffffffffffffffffffffffffffffffffffffffff\n      and\n        /* \"contract/Ownable.sol\":2684:2692  oldOwner */\n      dup2\n        /* \"contract/Ownable.sol\":2663:2703  OwnershipTransferred(oldOwner, newOwner) */\n      0xffffffffffffffffffffffffffffffffffffffff\n      and\n      0x8be0079c531659141344cd1fd0a4f28419497f9722a3daafe3b4186f6b6457e0\n      mload(0x40)\n      mload(0x40)\n      dup1\n      swap2\n      sub\n      swap1\n      log3\n        /* \"contract/Ownable.sol\":2583:2711  {\r... */\n      pop\n        /* \"contract/Ownable.sol\":2520:2711  function _transferOwnership(address newOwner) internal virtual {\r... */\n      pop\n      jump\t// out\n        /* \"contract/HouseRegistry.sol\":1890:2144  function _generateHouseId(address _sellerAddress, uint _area, string memory _houseAddress) private view returns(uint){... */\n    tag_65:\n        /* \"contract/HouseRegistry.sol\":2002:2006  uint */\n      0x00\n        /* \"contract/HouseRegistry.sol\":2017:2029  uint houseId */\n      dup1\n        /* \"contract/HouseRegistry.sol\":2064:2078  _sellerAddress */\n      dup5\n        /* \"contract/HouseRegistry.sol\":2080:2085  _area */\n      dup5\n        /* \"contract/HouseRegistry.sol\":2087:2100  _houseAddress */\n      dup5\n        /* \"contract/HouseRegistry.sol\":2047:2101  abi.encodePacked(_sellerAddress, _area, _houseAddress) */\n      add(0x20, mload(0x40))\n      tag_108\n      swap4\n      swap3\n      swap2\n      swap1\n      tag_109\n      jump\t// in\n    tag_108:\n      mload(0x40)\n      0x20\n      dup2\n      dup4\n      sub\n      sub\n      dup2\n      mstore\n      swap1\n      0x40\n      mstore\n        /* \"contract/HouseRegistry.sol\":2037:2102  keccak256(abi.encodePacked(_sellerAddress, _area, _houseAddress)) */\n      dup1\n      mload\n      swap1\n      0x20\n      add\n      keccak256\n        /* \"contract/HouseRegistry.sol\":2032:2103  uint(keccak256(abi.encodePacked(_sellerAddress, _area, _houseAddress))) */\n      0x00\n      shr\n        /* \"contract/HouseRegistry.sol\":2017:2103  uint houseId = uint(keccak256(abi.encodePacked(_sellerAddress, _area, _houseAddress))) */\n      swap1\n      pop\n        /* \"contract/HouseRegistry.sol\":2130:2137  modulus */\n      sload(0x03)\n        /* \"contract/HouseRegistry.sol\":2120:2127  houseId */\n      dup2\n        /* \"contract/HouseRegistry.sol\":2120:2137  houseId % modulus */\n      tag_110\n      swap2\n      swap1\n      tag_111\n      jump\t// in\n    tag_110:\n        /* \"contract/HouseRegistry.sol\":2113:2137  return houseId % modulus */\n      swap2\n      pop\n      pop\n        /* \"contract/HouseRegistry.sol\":1890:2144  function _generateHouseId(address _sellerAddress, uint _area, string memory _houseAddress) private view returns(uint){... */\n      swap4\n      swap3\n      pop\n      pop\n      pop\n      jump\t// out\n        /* \"contract/Ownable.sol\":2719:2813  function _ownerCooldown(uint _newTime) internal {\r... */\n    tag_74:\n        /* \"contract/Ownable.sol\":2797:2805  _newTime */\n      dup1\n        /* \"contract/Ownable.sol\":2778:2794  ownerAddCooldown */\n      0x01\n        /* \"contract/Ownable.sol\":2778:2805  ownerAddCooldown = _newTime */\n      dup2\n      swap1\n      sstore\n      pop\n        /* \"contract/Ownable.sol\":2719:2813  function _ownerCooldown(uint _newTime) internal {\r... */\n      pop\n      jump\t// out\n    tag_70:\n      dup3\n      dup1\n      sload\n      tag_113\n      swap1\n      tag_80\n      jump\t// in\n    tag_113:\n      swap1\n      0x00\n      mstore\n      keccak256(0x00, 0x20)\n      swap1\n      0x1f\n      add\n      0x20\n      swap1\n      div\n      dup2\n      add\n      swap3\n      dup3\n      tag_115\n      jumpi\n      0x00\n      dup6\n      sstore\n      jump(tag_114)\n    tag_115:\n      dup3\n      0x1f\n      lt\n      tag_116\n      jumpi\n      dup1\n      mload\n      not(0xff)\n      and\n      dup4\n      dup1\n      add\n      or\n      dup6\n      sstore\n      jump(tag_114)\n    tag_116:\n      dup3\n      dup1\n      add\n      0x01\n      add\n      dup6\n      sstore\n      dup3\n      iszero\n      tag_114\n      jumpi\n      swap2\n      dup3\n      add\n    tag_117:\n      dup3\n      dup2\n      gt\n      iszero\n      tag_118\n      jumpi\n      dup3\n      mload\n      dup3\n      sstore\n      swap2\n      0x20\n      add\n      swap2\n      swap1\n      0x01\n      add\n      swap1\n      jump(tag_117)\n    tag_118:\n    tag_114:\n      pop\n      swap1\n      pop\n      tag_119\n      swap2\n      swap1\n      tag_120\n      jump\t// in\n    tag_119:\n      pop\n      swap1\n      jump\t// out\n    tag_120:\n    tag_121:\n      dup1\n      dup3\n      gt\n      iszero\n      tag_122\n      jumpi\n      0x00\n      dup2\n      0x00\n      swap1\n      sstore\n      pop\n      0x01\n      add\n      jump(tag_121)\n    tag_122:\n      pop\n      swap1\n      jump\t// out\n        /* \"#utility.yul\":7:419   */\n    tag_124:\n        /* \"#utility.yul\":85:90   */\n      0x00\n        /* \"#utility.yul\":110:176   */\n      tag_126\n        /* \"#utility.yul\":126:175   */\n      tag_127\n        /* \"#utility.yul\":168:174   */\n      dup5\n        /* \"#utility.yul\":126:175   */\n      tag_128\n      jump\t// in\n    tag_127:\n        /* \"#utility.yul\":110:176   */\n      tag_129\n      jump\t// in\n    tag_126:\n        /* \"#utility.yul\":101:176   */\n      swap1\n      pop\n        /* \"#utility.yul\":199:205   */\n      dup3\n        /* \"#utility.yul\":192:197   */\n      dup2\n        /* \"#utility.yul\":185:206   */\n      mstore\n        /* \"#utility.yul\":237:241   */\n      0x20\n        /* \"#utility.yul\":230:235   */\n      dup2\n        /* \"#utility.yul\":226:242   */\n      add\n        /* \"#utility.yul\":275:278   */\n      dup5\n        /* \"#utility.yul\":266:272   */\n      dup5\n        /* \"#utility.yul\":261:264   */\n      dup5\n        /* \"#utility.yul\":257:273   */\n      add\n        /* \"#utility.yul\":254:279   */\n      gt\n        /* \"#utility.yul\":251:363   */\n      iszero\n      tag_130\n      jumpi\n        /* \"#utility.yul\":282:361   */\n      tag_131\n      tag_132\n      jump\t// in\n    tag_131:\n        /* \"#utility.yul\":251:363   */\n    tag_130:\n        /* \"#utility.yul\":372:413   */\n      tag_133\n        /* \"#utility.yul\":406:412   */\n      dup5\n        /* \"#utility.yul\":401:404   */\n      dup3\n        /* \"#utility.yul\":396:399   */\n      dup6\n        /* \"#utility.yul\":372:413   */\n      tag_134\n      jump\t// in\n    tag_133:\n        /* \"#utility.yul\":91:419   */\n      pop\n        /* \"#utility.yul\":7:419   */\n      swap4\n      swap3\n      pop\n      pop\n      pop\n      jump\t// out\n        /* \"#utility.yul\":425:564   */\n    tag_135:\n        /* \"#utility.yul\":471:476   */\n      0x00\n        /* \"#utility.yul\":509:515   */\n      dup2\n        /* \"#utility.yul\":496:516   */\n      calldataload\n        /* \"#utility.yul\":487:516   */\n      swap1\n      pop\n        /* \"#utility.yul\":525:558   */\n      tag_137\n        /* \"#utility.yul\":552:557   */\n      dup2\n        /* \"#utility.yul\":525:558   */\n      tag_138\n      jump\t// in\n    tag_137:\n        /* \"#utility.yul\":425:564   */\n      swap3\n      swap2\n      pop\n      pop\n      jump\t// out\n        /* \"#utility.yul\":584:924   */\n    tag_139:\n        /* \"#utility.yul\":640:645   */\n      0x00\n        /* \"#utility.yul\":689:692   */\n      dup3\n        /* \"#utility.yul\":682:686   */\n      0x1f\n        /* \"#utility.yul\":674:680   */\n      dup4\n        /* \"#utility.yul\":670:687   */\n      add\n        /* \"#utility.yul\":666:693   */\n      slt\n        /* \"#utility.yul\":656:778   */\n      tag_141\n      jumpi\n        /* \"#utility.yul\":697:776   */\n      tag_142\n      tag_143\n      jump\t// in\n    tag_142:\n        /* \"#utility.yul\":656:778   */\n    tag_141:\n        /* \"#utility.yul\":814:820   */\n      dup2\n        /* \"#utility.yul\":801:821   */\n      calldataload\n        /* \"#utility.yul\":839:918   */\n      tag_144\n        /* \"#utility.yul\":914:917   */\n      dup5\n        /* \"#utility.yul\":906:912   */\n      dup3\n        /* \"#utility.yul\":899:903   */\n      0x20\n        /* \"#utility.yul\":891:897   */\n      dup7\n        /* \"#utility.yul\":887:904   */\n      add\n        /* \"#utility.yul\":839:918   */\n      tag_124\n      jump\t// in\n    tag_144:\n        /* \"#utility.yul\":830:918   */\n      swap2\n      pop\n        /* \"#utility.yul\":646:924   */\n      pop\n        /* \"#utility.yul\":584:924   */\n      swap3\n      swap2\n      pop\n      pop\n      jump\t// out\n        /* \"#utility.yul\":930:1069   */\n    tag_145:\n        /* \"#utility.yul\":976:981   */\n      0x00\n        /* \"#utility.yul\":1014:1020   */\n      dup2\n        /* \"#utility.yul\":1001:1021   */\n      calldataload\n        /* \"#utility.yul\":992:1021   */\n      swap1\n      pop\n        /* \"#utility.yul\":1030:1063   */\n      tag_147\n        /* \"#utility.yul\":1057:1062   */\n      dup2\n        /* \"#utility.yul\":1030:1063   */\n      tag_148\n      jump\t// in\n    tag_147:\n        /* \"#utility.yul\":930:1069   */\n      swap3\n      swap2\n      pop\n      pop\n      jump\t// out\n        /* \"#utility.yul\":1075:1404   */\n    tag_41:\n        /* \"#utility.yul\":1134:1140   */\n      0x00\n        /* \"#utility.yul\":1183:1185   */\n      0x20\n        /* \"#utility.yul\":1171:1180   */\n      dup3\n        /* \"#utility.yul\":1162:1169   */\n      dup5\n        /* \"#utility.yul\":1158:1181   */\n      sub\n        /* \"#utility.yul\":1154:1186   */\n      slt\n        /* \"#utility.yul\":1151:1270   */\n      iszero\n      tag_150\n      jumpi\n        /* \"#utility.yul\":1189:1268   */\n      tag_151\n      tag_152\n      jump\t// in\n    tag_151:\n        /* \"#utility.yul\":1151:1270   */\n    tag_150:\n        /* \"#utility.yul\":1309:1310   */\n      0x00\n        /* \"#utility.yul\":1334:1387   */\n      tag_153\n        /* \"#utility.yul\":1379:1386   */\n      dup5\n        /* \"#utility.yul\":1370:1376   */\n      dup3\n        /* \"#utility.yul\":1359:1368   */\n      dup6\n        /* \"#utility.yul\":1355:1377   */\n      add\n        /* \"#utility.yul\":1334:1387   */\n      tag_135\n      jump\t// in\n    tag_153:\n        /* \"#utility.yul\":1324:1387   */\n      swap2\n      pop\n        /* \"#utility.yul\":1280:1397   */\n      pop\n        /* \"#utility.yul\":1075:1404   */\n      swap3\n      swap2\n      pop\n      pop\n      jump\t// out\n        /* \"#utility.yul\":1410:1739   */\n    tag_13:\n        /* \"#utility.yul\":1469:1475   */\n      0x00\n        /* \"#utility.yul\":1518:1520   */\n      0x20\n        /* \"#utility.yul\":1506:1515   */\n      dup3\n        /* \"#utility.yul\":1497:1504   */\n      dup5\n        /* \"#utility.yul\":1493:1516   */\n      sub\n        /* \"#utility.yul\":1489:1521   */\n      slt\n        /* \"#utility.yul\":1486:1605   */\n      iszero\n      tag_155\n      jumpi\n        /* \"#utility.yul\":1524:1603   */\n      tag_156\n      tag_152\n      jump\t// in\n    tag_156:\n        /* \"#utility.yul\":1486:1605   */\n    tag_155:\n        /* \"#utility.yul\":1644:1645   */\n      0x00\n        /* \"#utility.yul\":1669:1722   */\n      tag_157\n        /* \"#utility.yul\":1714:1721   */\n      dup5\n        /* \"#utility.yul\":1705:1711   */\n      dup3\n        /* \"#utility.yul\":1694:1703   */\n      dup6\n        /* \"#utility.yul\":1690:1712   */\n      add\n        /* \"#utility.yul\":1669:1722   */\n      tag_145\n      jump\t// in\n    tag_157:\n        /* \"#utility.yul\":1659:1722   */\n      swap2\n      pop\n        /* \"#utility.yul\":1615:1732   */\n      pop\n        /* \"#utility.yul\":1410:1739   */\n      swap3\n      swap2\n      pop\n      pop\n      jump\t// out\n        /* \"#utility.yul\":1745:2690   */\n    tag_25:\n        /* \"#utility.yul\":1841:1847   */\n      0x00\n        /* \"#utility.yul\":1849:1855   */\n      dup1\n        /* \"#utility.yul\":1857:1863   */\n      0x00\n        /* \"#utility.yul\":1865:1871   */\n      dup1\n        /* \"#utility.yul\":1914:1917   */\n      0x80\n        /* \"#utility.yul\":1902:1911   */\n      dup6\n        /* \"#utility.yul\":1893:1900   */\n      dup8\n        /* \"#utility.yul\":1889:1912   */\n      sub\n        /* \"#utility.yul\":1885:1918   */\n      slt\n        /* \"#utility.yul\":1882:2002   */\n      iszero\n      tag_159\n      jumpi\n        /* \"#utility.yul\":1921:2000   */\n      tag_160\n      tag_152\n      jump\t// in\n    tag_160:\n        /* \"#utility.yul\":1882:2002   */\n    tag_159:\n        /* \"#utility.yul\":2041:2042   */\n      0x00\n        /* \"#utility.yul\":2066:2119   */\n      tag_161\n        /* \"#utility.yul\":2111:2118   */\n      dup8\n        /* \"#utility.yul\":2102:2108   */\n      dup3\n        /* \"#utility.yul\":2091:2100   */\n      dup9\n        /* \"#utility.yul\":2087:2109   */\n      add\n        /* \"#utility.yul\":2066:2119   */\n      tag_145\n      jump\t// in\n    tag_161:\n        /* \"#utility.yul\":2056:2119   */\n      swap5\n      pop\n        /* \"#utility.yul\":2012:2129   */\n      pop\n        /* \"#utility.yul\":2168:2170   */\n      0x20\n        /* \"#utility.yul\":2194:2247   */\n      tag_162\n        /* \"#utility.yul\":2239:2246   */\n      dup8\n        /* \"#utility.yul\":2230:2236   */\n      dup3\n        /* \"#utility.yul\":2219:2228   */\n      dup9\n        /* \"#utility.yul\":2215:2237   */\n      add\n        /* \"#utility.yul\":2194:2247   */\n      tag_145\n      jump\t// in\n    tag_162:\n        /* \"#utility.yul\":2184:2247   */\n      swap4\n      pop\n        /* \"#utility.yul\":2139:2257   */\n      pop\n        /* \"#utility.yul\":2296:2298   */\n      0x40\n        /* \"#utility.yul\":2322:2375   */\n      tag_163\n        /* \"#utility.yul\":2367:2374   */\n      dup8\n        /* \"#utility.yul\":2358:2364   */\n      dup3\n        /* \"#utility.yul\":2347:2356   */\n      dup9\n        /* \"#utility.yul\":2343:2365   */\n      add\n        /* \"#utility.yul\":2322:2375   */\n      tag_135\n      jump\t// in\n    tag_163:\n        /* \"#utility.yul\":2312:2375   */\n      swap3\n      pop\n        /* \"#utility.yul\":2267:2385   */\n      pop\n        /* \"#utility.yul\":2452:2454   */\n      0x60\n        /* \"#utility.yul\":2441:2450   */\n      dup6\n        /* \"#utility.yul\":2437:2455   */\n      add\n        /* \"#utility.yul\":2424:2456   */\n      calldataload\n        /* \"#utility.yul\":2483:2501   */\n      0xffffffffffffffff\n        /* \"#utility.yul\":2475:2481   */\n      dup2\n        /* \"#utility.yul\":2472:2502   */\n      gt\n        /* \"#utility.yul\":2469:2586   */\n      iszero\n      tag_164\n      jumpi\n        /* \"#utility.yul\":2505:2584   */\n      tag_165\n      tag_166\n      jump\t// in\n    tag_165:\n        /* \"#utility.yul\":2469:2586   */\n    tag_164:\n        /* \"#utility.yul\":2610:2673   */\n      tag_167\n        /* \"#utility.yul\":2665:2672   */\n      dup8\n        /* \"#utility.yul\":2656:2662   */\n      dup3\n        /* \"#utility.yul\":2645:2654   */\n      dup9\n        /* \"#utility.yul\":2641:2663   */\n      add\n        /* \"#utility.yul\":2610:2673   */\n      tag_139\n      jump\t// in\n    tag_167:\n        /* \"#utility.yul\":2600:2673   */\n      swap2\n      pop\n        /* \"#utility.yul\":2395:2683   */\n      pop\n        /* \"#utility.yul\":1745:2690   */\n      swap3\n      swap6\n      swap2\n      swap5\n      pop\n      swap3\n      pop\n      jump\t// out\n        /* \"#utility.yul\":2696:2875   */\n    tag_168:\n        /* \"#utility.yul\":2765:2775   */\n      0x00\n        /* \"#utility.yul\":2786:2832   */\n      tag_170\n        /* \"#utility.yul\":2828:2831   */\n      dup4\n        /* \"#utility.yul\":2820:2826   */\n      dup4\n        /* \"#utility.yul\":2786:2832   */\n      tag_171\n      jump\t// in\n    tag_170:\n        /* \"#utility.yul\":2864:2868   */\n      0x20\n        /* \"#utility.yul\":2859:2862   */\n      dup4\n        /* \"#utility.yul\":2855:2869   */\n      add\n        /* \"#utility.yul\":2841:2869   */\n      swap1\n      pop\n        /* \"#utility.yul\":2696:2875   */\n      swap3\n      swap2\n      pop\n      pop\n      jump\t// out\n        /* \"#utility.yul\":2881:2999   */\n    tag_172:\n        /* \"#utility.yul\":2968:2992   */\n      tag_174\n        /* \"#utility.yul\":2986:2991   */\n      dup2\n        /* \"#utility.yul\":2968:2992   */\n      tag_175\n      jump\t// in\n    tag_174:\n        /* \"#utility.yul\":2963:2966   */\n      dup3\n        /* \"#utility.yul\":2956:2993   */\n      mstore\n        /* \"#utility.yul\":2881:2999   */\n      pop\n      pop\n      jump\t// out\n        /* \"#utility.yul\":3005:3162   */\n    tag_176:\n        /* \"#utility.yul\":3110:3155   */\n      tag_178\n        /* \"#utility.yul\":3130:3154   */\n      tag_179\n        /* \"#utility.yul\":3148:3153   */\n      dup3\n        /* \"#utility.yul\":3130:3154   */\n      tag_175\n      jump\t// in\n    tag_179:\n        /* \"#utility.yul\":3110:3155   */\n      tag_180\n      jump\t// in\n    tag_178:\n        /* \"#utility.yul\":3105:3108   */\n      dup3\n        /* \"#utility.yul\":3098:3156   */\n      mstore\n        /* \"#utility.yul\":3005:3162   */\n      pop\n      pop\n      jump\t// out\n        /* \"#utility.yul\":3198:3930   */\n    tag_181:\n        /* \"#utility.yul\":3317:3320   */\n      0x00\n        /* \"#utility.yul\":3346:3400   */\n      tag_183\n        /* \"#utility.yul\":3394:3399   */\n      dup3\n        /* \"#utility.yul\":3346:3400   */\n      tag_184\n      jump\t// in\n    tag_183:\n        /* \"#utility.yul\":3416:3502   */\n      tag_185\n        /* \"#utility.yul\":3495:3501   */\n      dup2\n        /* \"#utility.yul\":3490:3493   */\n      dup6\n        /* \"#utility.yul\":3416:3502   */\n      tag_186\n      jump\t// in\n    tag_185:\n        /* \"#utility.yul\":3409:3502   */\n      swap4\n      pop\n        /* \"#utility.yul\":3526:3582   */\n      tag_187\n        /* \"#utility.yul\":3576:3581   */\n      dup4\n        /* \"#utility.yul\":3526:3582   */\n      tag_188\n      jump\t// in\n    tag_187:\n        /* \"#utility.yul\":3605:3612   */\n      dup1\n        /* \"#utility.yul\":3636:3637   */\n      0x00\n        /* \"#utility.yul\":3621:3905   */\n    tag_189:\n        /* \"#utility.yul\":3646:3652   */\n      dup4\n        /* \"#utility.yul\":3643:3644   */\n      dup2\n        /* \"#utility.yul\":3640:3653   */\n      lt\n        /* \"#utility.yul\":3621:3905   */\n      iszero\n      tag_191\n      jumpi\n        /* \"#utility.yul\":3722:3728   */\n      dup2\n        /* \"#utility.yul\":3716:3729   */\n      mload\n        /* \"#utility.yul\":3749:3812   */\n      tag_192\n        /* \"#utility.yul\":3808:3811   */\n      dup9\n        /* \"#utility.yul\":3793:3806   */\n      dup3\n        /* \"#utility.yul\":3749:3812   */\n      tag_168\n      jump\t// in\n    tag_192:\n        /* \"#utility.yul\":3742:3812   */\n      swap8\n      pop\n        /* \"#utility.yul\":3835:3895   */\n      tag_193\n        /* \"#utility.yul\":3888:3894   */\n      dup4\n        /* \"#utility.yul\":3835:3895   */\n      tag_194\n      jump\t// in\n    tag_193:\n        /* \"#utility.yul\":3825:3895   */\n      swap3\n      pop\n        /* \"#utility.yul\":3681:3905   */\n      pop\n        /* \"#utility.yul\":3668:3669   */\n      0x01\n        /* \"#utility.yul\":3665:3666   */\n      dup2\n        /* \"#utility.yul\":3661:3670   */\n      add\n        /* \"#utility.yul\":3656:3670   */\n      swap1\n      pop\n        /* \"#utility.yul\":3621:3905   */\n      jump(tag_189)\n    tag_191:\n        /* \"#utility.yul\":3625:3639   */\n      pop\n        /* \"#utility.yul\":3921:3924   */\n      dup6\n        /* \"#utility.yul\":3914:3924   */\n      swap4\n      pop\n        /* \"#utility.yul\":3322:3930   */\n      pop\n      pop\n      pop\n        /* \"#utility.yul\":3198:3930   */\n      swap3\n      swap2\n      pop\n      pop\n      jump\t// out\n        /* \"#utility.yul\":3936:4045   */\n    tag_195:\n        /* \"#utility.yul\":4017:4038   */\n      tag_197\n        /* \"#utility.yul\":4032:4037   */\n      dup2\n        /* \"#utility.yul\":4017:4038   */\n      tag_198\n      jump\t// in\n    tag_197:\n        /* \"#utility.yul\":4012:4015   */\n      dup3\n        /* \"#utility.yul\":4005:4039   */\n      mstore\n        /* \"#utility.yul\":3936:4045   */\n      pop\n      pop\n      jump\t// out\n        /* \"#utility.yul\":4051:4415   */\n    tag_199:\n        /* \"#utility.yul\":4139:4142   */\n      0x00\n        /* \"#utility.yul\":4167:4206   */\n      tag_201\n        /* \"#utility.yul\":4200:4205   */\n      dup3\n        /* \"#utility.yul\":4167:4206   */\n      tag_202\n      jump\t// in\n    tag_201:\n        /* \"#utility.yul\":4222:4293   */\n      tag_203\n        /* \"#utility.yul\":4286:4292   */\n      dup2\n        /* \"#utility.yul\":4281:4284   */\n      dup6\n        /* \"#utility.yul\":4222:4293   */\n      tag_204\n      jump\t// in\n    tag_203:\n        /* \"#utility.yul\":4215:4293   */\n      swap4\n      pop\n        /* \"#utility.yul\":4302:4354   */\n      tag_205\n        /* \"#utility.yul\":4347:4353   */\n      dup2\n        /* \"#utility.yul\":4342:4345   */\n      dup6\n        /* \"#utility.yul\":4335:4339   */\n      0x20\n        /* \"#utility.yul\":4328:4333   */\n      dup7\n        /* \"#utility.yul\":4324:4340   */\n      add\n        /* \"#utility.yul\":4302:4354   */\n      tag_206\n      jump\t// in\n    tag_205:\n        /* \"#utility.yul\":4379:4408   */\n      tag_207\n        /* \"#utility.yul\":4401:4407   */\n      dup2\n        /* \"#utility.yul\":4379:4408   */\n      tag_208\n      jump\t// in\n    tag_207:\n        /* \"#utility.yul\":4374:4377   */\n      dup5\n        /* \"#utility.yul\":4370:4409   */\n      add\n        /* \"#utility.yul\":4363:4409   */\n      swap2\n      pop\n        /* \"#utility.yul\":4143:4415   */\n      pop\n        /* \"#utility.yul\":4051:4415   */\n      swap3\n      swap2\n      pop\n      pop\n      jump\t// out\n        /* \"#utility.yul\":4421:4798   */\n    tag_209:\n        /* \"#utility.yul\":4527:4530   */\n      0x00\n        /* \"#utility.yul\":4555:4594   */\n      tag_211\n        /* \"#utility.yul\":4588:4593   */\n      dup3\n        /* \"#utility.yul\":4555:4594   */\n      tag_202\n      jump\t// in\n    tag_211:\n        /* \"#utility.yul\":4610:4699   */\n      tag_212\n        /* \"#utility.yul\":4692:4698   */\n      dup2\n        /* \"#utility.yul\":4687:4690   */\n      dup6\n        /* \"#utility.yul\":4610:4699   */\n      tag_213\n      jump\t// in\n    tag_212:\n        /* \"#utility.yul\":4603:4699   */\n      swap4\n      pop\n        /* \"#utility.yul\":4708:4760   */\n      tag_214\n        /* \"#utility.yul\":4753:4759   */\n      dup2\n        /* \"#utility.yul\":4748:4751   */\n      dup6\n        /* \"#utility.yul\":4741:4745   */\n      0x20\n        /* \"#utility.yul\":4734:4739   */\n      dup7\n        /* \"#utility.yul\":4730:4746   */\n      add\n        /* \"#utility.yul\":4708:4760   */\n      tag_206\n      jump\t// in\n    tag_214:\n        /* \"#utility.yul\":4785:4791   */\n      dup1\n        /* \"#utility.yul\":4780:4783   */\n      dup5\n        /* \"#utility.yul\":4776:4792   */\n      add\n        /* \"#utility.yul\":4769:4792   */\n      swap2\n      pop\n        /* \"#utility.yul\":4531:4798   */\n      pop\n        /* \"#utility.yul\":4421:4798   */\n      swap3\n      swap2\n      pop\n      pop\n      jump\t// out\n        /* \"#utility.yul\":4804:5170   */\n    tag_215:\n        /* \"#utility.yul\":4946:4949   */\n      0x00\n        /* \"#utility.yul\":4967:5034   */\n      tag_217\n        /* \"#utility.yul\":5031:5033   */\n      0x26\n        /* \"#utility.yul\":5026:5029   */\n      dup4\n        /* \"#utility.yul\":4967:5034   */\n      tag_204\n      jump\t// in\n    tag_217:\n        /* \"#utility.yul\":4960:5034   */\n      swap2\n      pop\n        /* \"#utility.yul\":5043:5136   */\n      tag_218\n        /* \"#utility.yul\":5132:5135   */\n      dup3\n        /* \"#utility.yul\":5043:5136   */\n      tag_219\n      jump\t// in\n    tag_218:\n        /* \"#utility.yul\":5161:5163   */\n      0x40\n        /* \"#utility.yul\":5156:5159   */\n      dup3\n        /* \"#utility.yul\":5152:5164   */\n      add\n        /* \"#utility.yul\":5145:5164   */\n      swap1\n      pop\n        /* \"#utility.yul\":4804:5170   */\n      swap2\n      swap1\n      pop\n      jump\t// out\n        /* \"#utility.yul\":5176:5542   */\n    tag_220:\n        /* \"#utility.yul\":5318:5321   */\n      0x00\n        /* \"#utility.yul\":5339:5406   */\n      tag_222\n        /* \"#utility.yul\":5403:5405   */\n      0x14\n        /* \"#utility.yul\":5398:5401   */\n      dup4\n        /* \"#utility.yul\":5339:5406   */\n      tag_204\n      jump\t// in\n    tag_222:\n        /* \"#utility.yul\":5332:5406   */\n      swap2\n      pop\n        /* \"#utility.yul\":5415:5508   */\n      tag_223\n        /* \"#utility.yul\":5504:5507   */\n      dup3\n        /* \"#utility.yul\":5415:5508   */\n      tag_224\n      jump\t// in\n    tag_223:\n        /* \"#utility.yul\":5533:5535   */\n      0x20\n        /* \"#utility.yul\":5528:5531   */\n      dup3\n        /* \"#utility.yul\":5524:5536   */\n      add\n        /* \"#utility.yul\":5517:5536   */\n      swap1\n      pop\n        /* \"#utility.yul\":5176:5542   */\n      swap2\n      swap1\n      pop\n      jump\t// out\n        /* \"#utility.yul\":5548:5914   */\n    tag_225:\n        /* \"#utility.yul\":5690:5693   */\n      0x00\n        /* \"#utility.yul\":5711:5778   */\n      tag_227\n        /* \"#utility.yul\":5775:5777   */\n      0x20\n        /* \"#utility.yul\":5770:5773   */\n      dup4\n        /* \"#utility.yul\":5711:5778   */\n      tag_204\n      jump\t// in\n    tag_227:\n        /* \"#utility.yul\":5704:5778   */\n      swap2\n      pop\n        /* \"#utility.yul\":5787:5880   */\n      tag_228\n        /* \"#utility.yul\":5876:5879   */\n      dup3\n        /* \"#utility.yul\":5787:5880   */\n      tag_229\n      jump\t// in\n    tag_228:\n        /* \"#utility.yul\":5905:5907   */\n      0x20\n        /* \"#utility.yul\":5900:5903   */\n      dup3\n        /* \"#utility.yul\":5896:5908   */\n      add\n        /* \"#utility.yul\":5889:5908   */\n      swap1\n      pop\n        /* \"#utility.yul\":5548:5914   */\n      swap2\n      swap1\n      pop\n      jump\t// out\n        /* \"#utility.yul\":5920:6286   */\n    tag_230:\n        /* \"#utility.yul\":6062:6065   */\n      0x00\n        /* \"#utility.yul\":6083:6150   */\n      tag_232\n        /* \"#utility.yul\":6147:6149   */\n      0x1b\n        /* \"#utility.yul\":6142:6145   */\n      dup4\n        /* \"#utility.yul\":6083:6150   */\n      tag_204\n      jump\t// in\n    tag_232:\n        /* \"#utility.yul\":6076:6150   */\n      swap2\n      pop\n        /* \"#utility.yul\":6159:6252   */\n      tag_233\n        /* \"#utility.yul\":6248:6251   */\n      dup3\n        /* \"#utility.yul\":6159:6252   */\n      tag_234\n      jump\t// in\n    tag_233:\n        /* \"#utility.yul\":6277:6279   */\n      0x20\n        /* \"#utility.yul\":6272:6275   */\n      dup3\n        /* \"#utility.yul\":6268:6280   */\n      add\n        /* \"#utility.yul\":6261:6280   */\n      swap1\n      pop\n        /* \"#utility.yul\":5920:6286   */\n      swap2\n      swap1\n      pop\n      jump\t// out\n        /* \"#utility.yul\":6292:6658   */\n    tag_235:\n        /* \"#utility.yul\":6434:6437   */\n      0x00\n        /* \"#utility.yul\":6455:6522   */\n      tag_237\n        /* \"#utility.yul\":6519:6521   */\n      0x2b\n        /* \"#utility.yul\":6514:6517   */\n      dup4\n        /* \"#utility.yul\":6455:6522   */\n      tag_204\n      jump\t// in\n    tag_237:\n        /* \"#utility.yul\":6448:6522   */\n      swap2\n      pop\n        /* \"#utility.yul\":6531:6624   */\n      tag_238\n        /* \"#utility.yul\":6620:6623   */\n      dup3\n        /* \"#utility.yul\":6531:6624   */\n      tag_239\n      jump\t// in\n    tag_238:\n        /* \"#utility.yul\":6649:6651   */\n      0x40\n        /* \"#utility.yul\":6644:6647   */\n      dup3\n        /* \"#utility.yul\":6640:6652   */\n      add\n        /* \"#utility.yul\":6633:6652   */\n      swap1\n      pop\n        /* \"#utility.yul\":6292:6658   */\n      swap2\n      swap1\n      pop\n      jump\t// out\n        /* \"#utility.yul\":6664:6772   */\n    tag_171:\n        /* \"#utility.yul\":6741:6765   */\n      tag_241\n        /* \"#utility.yul\":6759:6764   */\n      dup2\n        /* \"#utility.yul\":6741:6765   */\n      tag_242\n      jump\t// in\n    tag_241:\n        /* \"#utility.yul\":6736:6739   */\n      dup3\n        /* \"#utility.yul\":6729:6766   */\n      mstore\n        /* \"#utility.yul\":6664:6772   */\n      pop\n      pop\n      jump\t// out\n        /* \"#utility.yul\":6778:6896   */\n    tag_243:\n        /* \"#utility.yul\":6865:6889   */\n      tag_245\n        /* \"#utility.yul\":6883:6888   */\n      dup2\n        /* \"#utility.yul\":6865:6889   */\n      tag_242\n      jump\t// in\n    tag_245:\n        /* \"#utility.yul\":6860:6863   */\n      dup3\n        /* \"#utility.yul\":6853:6890   */\n      mstore\n        /* \"#utility.yul\":6778:6896   */\n      pop\n      pop\n      jump\t// out\n        /* \"#utility.yul\":6902:7059   */\n    tag_246:\n        /* \"#utility.yul\":7007:7052   */\n      tag_248\n        /* \"#utility.yul\":7027:7051   */\n      tag_249\n        /* \"#utility.yul\":7045:7050   */\n      dup3\n        /* \"#utility.yul\":7027:7051   */\n      tag_242\n      jump\t// in\n    tag_249:\n        /* \"#utility.yul\":7007:7052   */\n      tag_250\n      jump\t// in\n    tag_248:\n        /* \"#utility.yul\":7002:7005   */\n      dup3\n        /* \"#utility.yul\":6995:7053   */\n      mstore\n        /* \"#utility.yul\":6902:7059   */\n      pop\n      pop\n      jump\t// out\n        /* \"#utility.yul\":7065:7622   */\n    tag_109:\n        /* \"#utility.yul\":7253:7256   */\n      0x00\n        /* \"#utility.yul\":7268:7343   */\n      tag_252\n        /* \"#utility.yul\":7339:7342   */\n      dup3\n        /* \"#utility.yul\":7330:7336   */\n      dup7\n        /* \"#utility.yul\":7268:7343   */\n      tag_176\n      jump\t// in\n    tag_252:\n        /* \"#utility.yul\":7368:7370   */\n      0x14\n        /* \"#utility.yul\":7363:7366   */\n      dup3\n        /* \"#utility.yul\":7359:7371   */\n      add\n        /* \"#utility.yul\":7352:7371   */\n      swap2\n      pop\n        /* \"#utility.yul\":7381:7456   */\n      tag_253\n        /* \"#utility.yul\":7452:7455   */\n      dup3\n        /* \"#utility.yul\":7443:7449   */\n      dup6\n        /* \"#utility.yul\":7381:7456   */\n      tag_246\n      jump\t// in\n    tag_253:\n        /* \"#utility.yul\":7481:7483   */\n      0x20\n        /* \"#utility.yul\":7476:7479   */\n      dup3\n        /* \"#utility.yul\":7472:7484   */\n      add\n        /* \"#utility.yul\":7465:7484   */\n      swap2\n      pop\n        /* \"#utility.yul\":7501:7596   */\n      tag_254\n        /* \"#utility.yul\":7592:7595   */\n      dup3\n        /* \"#utility.yul\":7583:7589   */\n      dup5\n        /* \"#utility.yul\":7501:7596   */\n      tag_209\n      jump\t// in\n    tag_254:\n        /* \"#utility.yul\":7494:7596   */\n      swap2\n      pop\n        /* \"#utility.yul\":7613:7616   */\n      dup2\n        /* \"#utility.yul\":7606:7616   */\n      swap1\n      pop\n        /* \"#utility.yul\":7065:7622   */\n      swap5\n      swap4\n      pop\n      pop\n      pop\n      pop\n      jump\t// out\n        /* \"#utility.yul\":7628:7850   */\n    tag_22:\n        /* \"#utility.yul\":7721:7725   */\n      0x00\n        /* \"#utility.yul\":7759:7761   */\n      0x20\n        /* \"#utility.yul\":7748:7757   */\n      dup3\n        /* \"#utility.yul\":7744:7762   */\n      add\n        /* \"#utility.yul\":7736:7762   */\n      swap1\n      pop\n        /* \"#utility.yul\":7772:7843   */\n      tag_256\n        /* \"#utility.yul\":7840:7841   */\n      0x00\n        /* \"#utility.yul\":7829:7838   */\n      dup4\n        /* \"#utility.yul\":7825:7842   */\n      add\n        /* \"#utility.yul\":7816:7822   */\n      dup5\n        /* \"#utility.yul\":7772:7843   */\n      tag_172\n      jump\t// in\n    tag_256:\n        /* \"#utility.yul\":7628:7850   */\n      swap3\n      swap2\n      pop\n      pop\n      jump\t// out\n        /* \"#utility.yul\":7856:8229   */\n    tag_38:\n        /* \"#utility.yul\":7999:8003   */\n      0x00\n        /* \"#utility.yul\":8037:8039   */\n      0x20\n        /* \"#utility.yul\":8026:8035   */\n      dup3\n        /* \"#utility.yul\":8022:8040   */\n      add\n        /* \"#utility.yul\":8014:8040   */\n      swap1\n      pop\n        /* \"#utility.yul\":8086:8095   */\n      dup2\n        /* \"#utility.yul\":8080:8084   */\n      dup2\n        /* \"#utility.yul\":8076:8096   */\n      sub\n        /* \"#utility.yul\":8072:8073   */\n      0x00\n        /* \"#utility.yul\":8061:8070   */\n      dup4\n        /* \"#utility.yul\":8057:8074   */\n      add\n        /* \"#utility.yul\":8050:8097   */\n      mstore\n        /* \"#utility.yul\":8114:8222   */\n      tag_258\n        /* \"#utility.yul\":8217:8221   */\n      dup2\n        /* \"#utility.yul\":8208:8214   */\n      dup5\n        /* \"#utility.yul\":8114:8222   */\n      tag_181\n      jump\t// in\n    tag_258:\n        /* \"#utility.yul\":8106:8222   */\n      swap1\n      pop\n        /* \"#utility.yul\":7856:8229   */\n      swap3\n      swap2\n      pop\n      pop\n      jump\t// out\n        /* \"#utility.yul\":8235:8548   */\n    tag_16:\n        /* \"#utility.yul\":8348:8352   */\n      0x00\n        /* \"#utility.yul\":8386:8388   */\n      0x20\n        /* \"#utility.yul\":8375:8384   */\n      dup3\n        /* \"#utility.yul\":8371:8389   */\n      add\n        /* \"#utility.yul\":8363:8389   */\n      swap1\n      pop\n        /* \"#utility.yul\":8435:8444   */\n      dup2\n        /* \"#utility.yul\":8429:8433   */\n      dup2\n        /* \"#utility.yul\":8425:8445   */\n      sub\n        /* \"#utility.yul\":8421:8422   */\n      0x00\n        /* \"#utility.yul\":8410:8419   */\n      dup4\n        /* \"#utility.yul\":8406:8423   */\n      add\n        /* \"#utility.yul\":8399:8446   */\n      mstore\n        /* \"#utility.yul\":8463:8541   */\n      tag_260\n        /* \"#utility.yul\":8536:8540   */\n      dup2\n        /* \"#utility.yul\":8527:8533   */\n      dup5\n        /* \"#utility.yul\":8463:8541   */\n      tag_199\n      jump\t// in\n    tag_260:\n        /* \"#utility.yul\":8455:8541   */\n      swap1\n      pop\n        /* \"#utility.yul\":8235:8548   */\n      swap3\n      swap2\n      pop\n      pop\n      jump\t// out\n        /* \"#utility.yul\":8554:8973   */\n    tag_103:\n        /* \"#utility.yul\":8720:8724   */\n      0x00\n        /* \"#utility.yul\":8758:8760   */\n      0x20\n        /* \"#utility.yul\":8747:8756   */\n      dup3\n        /* \"#utility.yul\":8743:8761   */\n      add\n        /* \"#utility.yul\":8735:8761   */\n      swap1\n      pop\n        /* \"#utility.yul\":8807:8816   */\n      dup2\n        /* \"#utility.yul\":8801:8805   */\n      dup2\n        /* \"#utility.yul\":8797:8817   */\n      sub\n        /* \"#utility.yul\":8793:8794   */\n      0x00\n        /* \"#utility.yul\":8782:8791   */\n      dup4\n        /* \"#utility.yul\":8778:8795   */\n      add\n        /* \"#utility.yul\":8771:8818   */\n      mstore\n        /* \"#utility.yul\":8835:8966   */\n      tag_262\n        /* \"#utility.yul\":8961:8965   */\n      dup2\n        /* \"#utility.yul\":8835:8966   */\n      tag_215\n      jump\t// in\n    tag_262:\n        /* \"#utility.yul\":8827:8966   */\n      swap1\n      pop\n        /* \"#utility.yul\":8554:8973   */\n      swap2\n      swap1\n      pop\n      jump\t// out\n        /* \"#utility.yul\":8979:9398   */\n    tag_63:\n        /* \"#utility.yul\":9145:9149   */\n      0x00\n        /* \"#utility.yul\":9183:9185   */\n      0x20\n        /* \"#utility.yul\":9172:9181   */\n      dup3\n        /* \"#utility.yul\":9168:9186   */\n      add\n        /* \"#utility.yul\":9160:9186   */\n      swap1\n      pop\n        /* \"#utility.yul\":9232:9241   */\n      dup2\n        /* \"#utility.yul\":9226:9230   */\n      dup2\n        /* \"#utility.yul\":9222:9242   */\n      sub\n        /* \"#utility.yul\":9218:9219   */\n      0x00\n        /* \"#utility.yul\":9207:9216   */\n      dup4\n        /* \"#utility.yul\":9203:9220   */\n      add\n        /* \"#utility.yul\":9196:9243   */\n      mstore\n        /* \"#utility.yul\":9260:9391   */\n      tag_264\n        /* \"#utility.yul\":9386:9390   */\n      dup2\n        /* \"#utility.yul\":9260:9391   */\n      tag_220\n      jump\t// in\n    tag_264:\n        /* \"#utility.yul\":9252:9391   */\n      swap1\n      pop\n        /* \"#utility.yul\":8979:9398   */\n      swap2\n      swap1\n      pop\n      jump\t// out\n        /* \"#utility.yul\":9404:9823   */\n    tag_53:\n        /* \"#utility.yul\":9570:9574   */\n      0x00\n        /* \"#utility.yul\":9608:9610   */\n      0x20\n        /* \"#utility.yul\":9597:9606   */\n      dup3\n        /* \"#utility.yul\":9593:9611   */\n      add\n        /* \"#utility.yul\":9585:9611   */\n      swap1\n      pop\n        /* \"#utility.yul\":9657:9666   */\n      dup2\n        /* \"#utility.yul\":9651:9655   */\n      dup2\n        /* \"#utility.yul\":9647:9667   */\n      sub\n        /* \"#utility.yul\":9643:9644   */\n      0x00\n        /* \"#utility.yul\":9632:9641   */\n      dup4\n        /* \"#utility.yul\":9628:9645   */\n      add\n        /* \"#utility.yul\":9621:9668   */\n      mstore\n        /* \"#utility.yul\":9685:9816   */\n      tag_266\n        /* \"#utility.yul\":9811:9815   */\n      dup2\n        /* \"#utility.yul\":9685:9816   */\n      tag_225\n      jump\t// in\n    tag_266:\n        /* \"#utility.yul\":9677:9816   */\n      swap1\n      pop\n        /* \"#utility.yul\":9404:9823   */\n      swap2\n      swap1\n      pop\n      jump\t// out\n        /* \"#utility.yul\":9829:10248   */\n    tag_68:\n        /* \"#utility.yul\":9995:9999   */\n      0x00\n        /* \"#utility.yul\":10033:10035   */\n      0x20\n        /* \"#utility.yul\":10022:10031   */\n      dup3\n        /* \"#utility.yul\":10018:10036   */\n      add\n        /* \"#utility.yul\":10010:10036   */\n      swap1\n      pop\n        /* \"#utility.yul\":10082:10091   */\n      dup2\n        /* \"#utility.yul\":10076:10080   */\n      dup2\n        /* \"#utility.yul\":10072:10092   */\n      sub\n        /* \"#utility.yul\":10068:10069   */\n      0x00\n        /* \"#utility.yul\":10057:10066   */\n      dup4\n        /* \"#utility.yul\":10053:10070   */\n      add\n        /* \"#utility.yul\":10046:10093   */\n      mstore\n        /* \"#utility.yul\":10110:10241   */\n      tag_268\n        /* \"#utility.yul\":10236:10240   */\n      dup2\n        /* \"#utility.yul\":10110:10241   */\n      tag_230\n      jump\t// in\n    tag_268:\n        /* \"#utility.yul\":10102:10241   */\n      swap1\n      pop\n        /* \"#utility.yul\":9829:10248   */\n      swap2\n      swap1\n      pop\n      jump\t// out\n        /* \"#utility.yul\":10254:10673   */\n    tag_46:\n        /* \"#utility.yul\":10420:10424   */\n      0x00\n        /* \"#utility.yul\":10458:10460   */\n      0x20\n        /* \"#utility.yul\":10447:10456   */\n      dup3\n        /* \"#utility.yul\":10443:10461   */\n      add\n        /* \"#utility.yul\":10435:10461   */\n      swap1\n      pop\n        /* \"#utility.yul\":10507:10516   */\n      dup2\n        /* \"#utility.yul\":10501:10505   */\n      dup2\n        /* \"#utility.yul\":10497:10517   */\n      sub\n        /* \"#utility.yul\":10493:10494   */\n      0x00\n        /* \"#utility.yul\":10482:10491   */\n      dup4\n        /* \"#utility.yul\":10478:10495   */\n      add\n        /* \"#utility.yul\":10471:10518   */\n      mstore\n        /* \"#utility.yul\":10535:10666   */\n      tag_270\n        /* \"#utility.yul\":10661:10665   */\n      dup2\n        /* \"#utility.yul\":10535:10666   */\n      tag_235\n      jump\t// in\n    tag_270:\n        /* \"#utility.yul\":10527:10666   */\n      swap1\n      pop\n        /* \"#utility.yul\":10254:10673   */\n      swap2\n      swap1\n      pop\n      jump\t// out\n        /* \"#utility.yul\":10679:10901   */\n    tag_28:\n        /* \"#utility.yul\":10772:10776   */\n      0x00\n        /* \"#utility.yul\":10810:10812   */\n      0x20\n        /* \"#utility.yul\":10799:10808   */\n      dup3\n        /* \"#utility.yul\":10795:10813   */\n      add\n        /* \"#utility.yul\":10787:10813   */\n      swap1\n      pop\n        /* \"#utility.yul\":10823:10894   */\n      tag_272\n        /* \"#utility.yul\":10891:10892   */\n      0x00\n        /* \"#utility.yul\":10880:10889   */\n      dup4\n        /* \"#utility.yul\":10876:10893   */\n      add\n        /* \"#utility.yul\":10867:10873   */\n      dup5\n        /* \"#utility.yul\":10823:10894   */\n      tag_243\n      jump\t// in\n    tag_272:\n        /* \"#utility.yul\":10679:10901   */\n      swap3\n      swap2\n      pop\n      pop\n      jump\t// out\n        /* \"#utility.yul\":10907:11551   */\n    tag_78:\n        /* \"#utility.yul\":11104:11108   */\n      0x00\n        /* \"#utility.yul\":11142:11145   */\n      0x80\n        /* \"#utility.yul\":11131:11140   */\n      dup3\n        /* \"#utility.yul\":11127:11146   */\n      add\n        /* \"#utility.yul\":11119:11146   */\n      swap1\n      pop\n        /* \"#utility.yul\":11156:11227   */\n      tag_274\n        /* \"#utility.yul\":11224:11225   */\n      0x00\n        /* \"#utility.yul\":11213:11222   */\n      dup4\n        /* \"#utility.yul\":11209:11226   */\n      add\n        /* \"#utility.yul\":11200:11206   */\n      dup8\n        /* \"#utility.yul\":11156:11227   */\n      tag_243\n      jump\t// in\n    tag_274:\n        /* \"#utility.yul\":11237:11309   */\n      tag_275\n        /* \"#utility.yul\":11305:11307   */\n      0x20\n        /* \"#utility.yul\":11294:11303   */\n      dup4\n        /* \"#utility.yul\":11290:11308   */\n      add\n        /* \"#utility.yul\":11281:11287   */\n      dup7\n        /* \"#utility.yul\":11237:11309   */\n      tag_172\n      jump\t// in\n    tag_275:\n        /* \"#utility.yul\":11319:11391   */\n      tag_276\n        /* \"#utility.yul\":11387:11389   */\n      0x40\n        /* \"#utility.yul\":11376:11385   */\n      dup4\n        /* \"#utility.yul\":11372:11390   */\n      add\n        /* \"#utility.yul\":11363:11369   */\n      dup6\n        /* \"#utility.yul\":11319:11391   */\n      tag_243\n      jump\t// in\n    tag_276:\n        /* \"#utility.yul\":11438:11447   */\n      dup2\n        /* \"#utility.yul\":11432:11436   */\n      dup2\n        /* \"#utility.yul\":11428:11448   */\n      sub\n        /* \"#utility.yul\":11423:11425   */\n      0x60\n        /* \"#utility.yul\":11412:11421   */\n      dup4\n        /* \"#utility.yul\":11408:11426   */\n      add\n        /* \"#utility.yul\":11401:11449   */\n      mstore\n        /* \"#utility.yul\":11466:11544   */\n      tag_277\n        /* \"#utility.yul\":11539:11543   */\n      dup2\n        /* \"#utility.yul\":11530:11536   */\n      dup5\n        /* \"#utility.yul\":11466:11544   */\n      tag_199\n      jump\t// in\n    tag_277:\n        /* \"#utility.yul\":11458:11544   */\n      swap1\n      pop\n        /* \"#utility.yul\":10907:11551   */\n      swap6\n      swap5\n      pop\n      pop\n      pop\n      pop\n      pop\n      jump\t// out\n        /* \"#utility.yul\":11557:12522   */\n    tag_33:\n        /* \"#utility.yul\":11832:11836   */\n      0x00\n        /* \"#utility.yul\":11870:11873   */\n      0xe0\n        /* \"#utility.yul\":11859:11868   */\n      dup3\n        /* \"#utility.yul\":11855:11874   */\n      add\n        /* \"#utility.yul\":11847:11874   */\n      swap1\n      pop\n        /* \"#utility.yul\":11884:11955   */\n      tag_279\n        /* \"#utility.yul\":11952:11953   */\n      0x00\n        /* \"#utility.yul\":11941:11950   */\n      dup4\n        /* \"#utility.yul\":11937:11954   */\n      add\n        /* \"#utility.yul\":11928:11934   */\n      dup11\n        /* \"#utility.yul\":11884:11955   */\n      tag_243\n      jump\t// in\n    tag_279:\n        /* \"#utility.yul\":11965:12037   */\n      tag_280\n        /* \"#utility.yul\":12033:12035   */\n      0x20\n        /* \"#utility.yul\":12022:12031   */\n      dup4\n        /* \"#utility.yul\":12018:12036   */\n      add\n        /* \"#utility.yul\":12009:12015   */\n      dup10\n        /* \"#utility.yul\":11965:12037   */\n      tag_243\n      jump\t// in\n    tag_280:\n        /* \"#utility.yul\":12047:12119   */\n      tag_281\n        /* \"#utility.yul\":12115:12117   */\n      0x40\n        /* \"#utility.yul\":12104:12113   */\n      dup4\n        /* \"#utility.yul\":12100:12118   */\n      add\n        /* \"#utility.yul\":12091:12097   */\n      dup9\n        /* \"#utility.yul\":12047:12119   */\n      tag_243\n      jump\t// in\n    tag_281:\n        /* \"#utility.yul\":12129:12201   */\n      tag_282\n        /* \"#utility.yul\":12197:12199   */\n      0x60\n        /* \"#utility.yul\":12186:12195   */\n      dup4\n        /* \"#utility.yul\":12182:12200   */\n      add\n        /* \"#utility.yul\":12173:12179   */\n      dup8\n        /* \"#utility.yul\":12129:12201   */\n      tag_243\n      jump\t// in\n    tag_282:\n        /* \"#utility.yul\":12211:12284   */\n      tag_283\n        /* \"#utility.yul\":12279:12282   */\n      0x80\n        /* \"#utility.yul\":12268:12277   */\n      dup4\n        /* \"#utility.yul\":12264:12283   */\n      add\n        /* \"#utility.yul\":12255:12261   */\n      dup7\n        /* \"#utility.yul\":12211:12284   */\n      tag_172\n      jump\t// in\n    tag_283:\n        /* \"#utility.yul\":12332:12341   */\n      dup2\n        /* \"#utility.yul\":12326:12330   */\n      dup2\n        /* \"#utility.yul\":12322:12342   */\n      sub\n        /* \"#utility.yul\":12316:12319   */\n      0xa0\n        /* \"#utility.yul\":12305:12314   */\n      dup4\n        /* \"#utility.yul\":12301:12320   */\n      add\n        /* \"#utility.yul\":12294:12343   */\n      mstore\n        /* \"#utility.yul\":12360:12438   */\n      tag_284\n        /* \"#utility.yul\":12433:12437   */\n      dup2\n        /* \"#utility.yul\":12424:12430   */\n      dup6\n        /* \"#utility.yul\":12360:12438   */\n      tag_199\n      jump\t// in\n    tag_284:\n        /* \"#utility.yul\":12352:12438   */\n      swap1\n      pop\n        /* \"#utility.yul\":12448:12515   */\n      tag_285\n        /* \"#utility.yul\":12510:12513   */\n      0xc0\n        /* \"#utility.yul\":12499:12508   */\n      dup4\n        /* \"#utility.yul\":12495:12514   */\n      add\n        /* \"#utility.yul\":12486:12492   */\n      dup5\n        /* \"#utility.yul\":12448:12515   */\n      tag_195\n      jump\t// in\n    tag_285:\n        /* \"#utility.yul\":11557:12522   */\n      swap9\n      swap8\n      pop\n      pop\n      pop\n      pop\n      pop\n      pop\n      pop\n      pop\n      jump\t// out\n        /* \"#utility.yul\":12528:12657   */\n    tag_129:\n        /* \"#utility.yul\":12562:12568   */\n      0x00\n        /* \"#utility.yul\":12589:12609   */\n      tag_287\n      tag_288\n      jump\t// in\n    tag_287:\n        /* \"#utility.yul\":12579:12609   */\n      swap1\n      pop\n        /* \"#utility.yul\":12618:12651   */\n      tag_289\n        /* \"#utility.yul\":12646:12650   */\n      dup3\n        /* \"#utility.yul\":12638:12644   */\n      dup3\n        /* \"#utility.yul\":12618:12651   */\n      tag_290\n      jump\t// in\n    tag_289:\n        /* \"#utility.yul\":12528:12657   */\n      swap2\n      swap1\n      pop\n      jump\t// out\n        /* \"#utility.yul\":12663:12738   */\n    tag_288:\n        /* \"#utility.yul\":12696:12702   */\n      0x00\n        /* \"#utility.yul\":12729:12731   */\n      0x40\n        /* \"#utility.yul\":12723:12732   */\n      mload\n        /* \"#utility.yul\":12713:12732   */\n      swap1\n      pop\n        /* \"#utility.yul\":12663:12738   */\n      swap1\n      jump\t// out\n        /* \"#utility.yul\":12744:13052   */\n    tag_128:\n        /* \"#utility.yul\":12806:12810   */\n      0x00\n        /* \"#utility.yul\":12896:12914   */\n      0xffffffffffffffff\n        /* \"#utility.yul\":12888:12894   */\n      dup3\n        /* \"#utility.yul\":12885:12915   */\n      gt\n        /* \"#utility.yul\":12882:12938   */\n      iszero\n      tag_293\n      jumpi\n        /* \"#utility.yul\":12918:12936   */\n      tag_294\n      tag_295\n      jump\t// in\n    tag_294:\n        /* \"#utility.yul\":12882:12938   */\n    tag_293:\n        /* \"#utility.yul\":12956:12985   */\n      tag_296\n        /* \"#utility.yul\":12978:12984   */\n      dup3\n        /* \"#utility.yul\":12956:12985   */\n      tag_208\n      jump\t// in\n    tag_296:\n        /* \"#utility.yul\":12948:12985   */\n      swap1\n      pop\n        /* \"#utility.yul\":13040:13044   */\n      0x20\n        /* \"#utility.yul\":13034:13038   */\n      dup2\n        /* \"#utility.yul\":13030:13045   */\n      add\n        /* \"#utility.yul\":13022:13045   */\n      swap1\n      pop\n        /* \"#utility.yul\":12744:13052   */\n      swap2\n      swap1\n      pop\n      jump\t// out\n        /* \"#utility.yul\":13058:13190   */\n    tag_188:\n        /* \"#utility.yul\":13125:13129   */\n      0x00\n        /* \"#utility.yul\":13148:13151   */\n      dup2\n        /* \"#utility.yul\":13140:13151   */\n      swap1\n      pop\n        /* \"#utility.yul\":13178:13182   */\n      0x20\n        /* \"#utility.yul\":13173:13176   */\n      dup3\n        /* \"#utility.yul\":13169:13183   */\n      add\n        /* \"#utility.yul\":13161:13183   */\n      swap1\n      pop\n        /* \"#utility.yul\":13058:13190   */\n      swap2\n      swap1\n      pop\n      jump\t// out\n        /* \"#utility.yul\":13196:13310   */\n    tag_184:\n        /* \"#utility.yul\":13263:13269   */\n      0x00\n        /* \"#utility.yul\":13297:13302   */\n      dup2\n        /* \"#utility.yul\":13291:13303   */\n      mload\n        /* \"#utility.yul\":13281:13303   */\n      swap1\n      pop\n        /* \"#utility.yul\":13196:13310   */\n      swap2\n      swap1\n      pop\n      jump\t// out\n        /* \"#utility.yul\":13316:13415   */\n    tag_202:\n        /* \"#utility.yul\":13368:13374   */\n      0x00\n        /* \"#utility.yul\":13402:13407   */\n      dup2\n        /* \"#utility.yul\":13396:13408   */\n      mload\n        /* \"#utility.yul\":13386:13408   */\n      swap1\n      pop\n        /* \"#utility.yul\":13316:13415   */\n      swap2\n      swap1\n      pop\n      jump\t// out\n        /* \"#utility.yul\":13421:13534   */\n    tag_194:\n        /* \"#utility.yul\":13491:13495   */\n      0x00\n        /* \"#utility.yul\":13523:13527   */\n      0x20\n        /* \"#utility.yul\":13518:13521   */\n      dup3\n        /* \"#utility.yul\":13514:13528   */\n      add\n        /* \"#utility.yul\":13506:13528   */\n      swap1\n      pop\n        /* \"#utility.yul\":13421:13534   */\n      swap2\n      swap1\n      pop\n      jump\t// out\n        /* \"#utility.yul\":13540:13724   */\n    tag_186:\n        /* \"#utility.yul\":13639:13650   */\n      0x00\n        /* \"#utility.yul\":13673:13679   */\n      dup3\n        /* \"#utility.yul\":13668:13671   */\n      dup3\n        /* \"#utility.yul\":13661:13680   */\n      mstore\n        /* \"#utility.yul\":13713:13717   */\n      0x20\n        /* \"#utility.yul\":13708:13711   */\n      dup3\n        /* \"#utility.yul\":13704:13718   */\n      add\n        /* \"#utility.yul\":13689:13718   */\n      swap1\n      pop\n        /* \"#utility.yul\":13540:13724   */\n      swap3\n      swap2\n      pop\n      pop\n      jump\t// out\n        /* \"#utility.yul\":13730:13899   */\n    tag_204:\n        /* \"#utility.yul\":13814:13825   */\n      0x00\n        /* \"#utility.yul\":13848:13854   */\n      dup3\n        /* \"#utility.yul\":13843:13846   */\n      dup3\n        /* \"#utility.yul\":13836:13855   */\n      mstore\n        /* \"#utility.yul\":13888:13892   */\n      0x20\n        /* \"#utility.yul\":13883:13886   */\n      dup3\n        /* \"#utility.yul\":13879:13893   */\n      add\n        /* \"#utility.yul\":13864:13893   */\n      swap1\n      pop\n        /* \"#utility.yul\":13730:13899   */\n      swap3\n      swap2\n      pop\n      pop\n      jump\t// out\n        /* \"#utility.yul\":13905:14053   */\n    tag_213:\n        /* \"#utility.yul\":14007:14018   */\n      0x00\n        /* \"#utility.yul\":14044:14047   */\n      dup2\n        /* \"#utility.yul\":14029:14047   */\n      swap1\n      pop\n        /* \"#utility.yul\":13905:14053   */\n      swap3\n      swap2\n      pop\n      pop\n      jump\t// out\n        /* \"#utility.yul\":14059:14364   */\n    tag_73:\n        /* \"#utility.yul\":14099:14102   */\n      0x00\n        /* \"#utility.yul\":14118:14138   */\n      tag_305\n        /* \"#utility.yul\":14136:14137   */\n      dup3\n        /* \"#utility.yul\":14118:14138   */\n      tag_242\n      jump\t// in\n    tag_305:\n        /* \"#utility.yul\":14113:14138   */\n      swap2\n      pop\n        /* \"#utility.yul\":14152:14172   */\n      tag_306\n        /* \"#utility.yul\":14170:14171   */\n      dup4\n        /* \"#utility.yul\":14152:14172   */\n      tag_242\n      jump\t// in\n    tag_306:\n        /* \"#utility.yul\":14147:14172   */\n      swap3\n      pop\n        /* \"#utility.yul\":14306:14307   */\n      dup3\n        /* \"#utility.yul\":14238:14304   */\n      0xffffffffffffffffffffffffffffffffffffffffffffffffffffffffffffffff\n        /* \"#utility.yul\":14234:14308   */\n      sub\n        /* \"#utility.yul\":14231:14232   */\n      dup3\n        /* \"#utility.yul\":14228:14309   */\n      gt\n        /* \"#utility.yul\":14225:14332   */\n      iszero\n      tag_307\n      jumpi\n        /* \"#utility.yul\":14312:14330   */\n      tag_308\n      tag_309\n      jump\t// in\n    tag_308:\n        /* \"#utility.yul\":14225:14332   */\n    tag_307:\n        /* \"#utility.yul\":14356:14357   */\n      dup3\n        /* \"#utility.yul\":14353:14354   */\n      dup3\n        /* \"#utility.yul\":14349:14358   */\n      add\n        /* \"#utility.yul\":14342:14358   */\n      swap1\n      pop\n        /* \"#utility.yul\":14059:14364   */\n      swap3\n      swap2\n      pop\n      pop\n      jump\t// out\n        /* \"#utility.yul\":14370:14718   */\n    tag_60:\n        /* \"#utility.yul\":14410:14417   */\n      0x00\n        /* \"#utility.yul\":14433:14453   */\n      tag_311\n        /* \"#utility.yul\":14451:14452   */\n      dup3\n        /* \"#utility.yul\":14433:14453   */\n      tag_242\n      jump\t// in\n    tag_311:\n        /* \"#utility.yul\":14428:14453   */\n      swap2\n      pop\n        /* \"#utility.yul\":14467:14487   */\n      tag_312\n        /* \"#utility.yul\":14485:14486   */\n      dup4\n        /* \"#utility.yul\":14467:14487   */\n      tag_242\n      jump\t// in\n    tag_312:\n        /* \"#utility.yul\":14462:14487   */\n      swap3\n      pop\n        /* \"#utility.yul\":14655:14656   */\n      dup2\n        /* \"#utility.yul\":14587:14653   */\n      0xffffffffffffffffffffffffffffffffffffffffffffffffffffffffffffffff\n        /* \"#utility.yul\":14583:14657   */\n      div\n        /* \"#utility.yul\":14580:14581   */\n      dup4\n        /* \"#utility.yul\":14577:14658   */\n      gt\n        /* \"#utility.yul\":14572:14573   */\n      dup3\n        /* \"#utility.yul\":14565:14574   */\n      iszero\n        /* \"#utility.yul\":14558:14575   */\n      iszero\n        /* \"#utility.yul\":14554:14659   */\n      and\n        /* \"#utility.yul\":14551:14682   */\n      iszero\n      tag_313\n      jumpi\n        /* \"#utility.yul\":14662:14680   */\n      tag_314\n      tag_309\n      jump\t// in\n    tag_314:\n        /* \"#utility.yul\":14551:14682   */\n    tag_313:\n        /* \"#utility.yul\":14710:14711   */\n      dup3\n        /* \"#utility.yul\":14707:14708   */\n      dup3\n        /* \"#utility.yul\":14703:14712   */\n      mul\n        /* \"#utility.yul\":14692:14712   */\n      swap1\n      pop\n        /* \"#utility.yul\":14370:14718   */\n      swap3\n      swap2\n      pop\n      pop\n      jump\t// out\n        /* \"#utility.yul\":14724:14820   */\n    tag_175:\n        /* \"#utility.yul\":14761:14768   */\n      0x00\n        /* \"#utility.yul\":14790:14814   */\n      tag_316\n        /* \"#utility.yul\":14808:14813   */\n      dup3\n        /* \"#utility.yul\":14790:14814   */\n      tag_317\n      jump\t// in\n    tag_316:\n        /* \"#utility.yul\":14779:14814   */\n      swap1\n      pop\n        /* \"#utility.yul\":14724:14820   */\n      swap2\n      swap1\n      pop\n      jump\t// out\n        /* \"#utility.yul\":14826:14916   */\n    tag_198:\n        /* \"#utility.yul\":14860:14867   */\n      0x00\n        /* \"#utility.yul\":14903:14908   */\n      dup2\n        /* \"#utility.yul\":14896:14909   */\n      iszero\n        /* \"#utility.yul\":14889:14910   */\n      iszero\n        /* \"#utility.yul\":14878:14910   */\n      swap1\n      pop\n        /* \"#utility.yul\":14826:14916   */\n      swap2\n      swap1\n      pop\n      jump\t// out\n        /* \"#utility.yul\":14922:15048   */\n    tag_317:\n        /* \"#utility.yul\":14959:14966   */\n      0x00\n        /* \"#utility.yul\":14999:15041   */\n      0xffffffffffffffffffffffffffffffffffffffff\n        /* \"#utility.yul\":14992:14997   */\n      dup3\n        /* \"#utility.yul\":14988:15042   */\n      and\n        /* \"#utility.yul\":14977:15042   */\n      swap1\n      pop\n        /* \"#utility.yul\":14922:15048   */\n      swap2\n      swap1\n      pop\n      jump\t// out\n        /* \"#utility.yul\":15054:15131   */\n    tag_242:\n        /* \"#utility.yul\":15091:15098   */\n      0x00\n        /* \"#utility.yul\":15120:15125   */\n      dup2\n        /* \"#utility.yul\":15109:15125   */\n      swap1\n      pop\n        /* \"#utility.yul\":15054:15131   */\n      swap2\n      swap1\n      pop\n      jump\t// out\n        /* \"#utility.yul\":15137:15291   */\n    tag_134:\n        /* \"#utility.yul\":15221:15227   */\n      dup3\n        /* \"#utility.yul\":15216:15219   */\n      dup2\n        /* \"#utility.yul\":15211:15214   */\n      dup4\n        /* \"#utility.yul\":15198:15228   */\n      calldatacopy\n        /* \"#utility.yul\":15283:15284   */\n      0x00\n        /* \"#utility.yul\":15274:15280   */\n      dup4\n        /* \"#utility.yul\":15269:15272   */\n      dup4\n        /* \"#utility.yul\":15265:15281   */\n      add\n        /* \"#utility.yul\":15258:15285   */\n      mstore\n        /* \"#utility.yul\":15137:15291   */\n      pop\n      pop\n      pop\n      jump\t// out\n        /* \"#utility.yul\":15297:15604   */\n    tag_206:\n        /* \"#utility.yul\":15365:15366   */\n      0x00\n        /* \"#utility.yul\":15375:15488   */\n    tag_323:\n        /* \"#utility.yul\":15389:15395   */\n      dup4\n        /* \"#utility.yul\":15386:15387   */\n      dup2\n        /* \"#utility.yul\":15383:15396   */\n      lt\n        /* \"#utility.yul\":15375:15488   */\n      iszero\n      tag_325\n      jumpi\n        /* \"#utility.yul\":15474:15475   */\n      dup1\n        /* \"#utility.yul\":15469:15472   */\n      dup3\n        /* \"#utility.yul\":15465:15476   */\n      add\n        /* \"#utility.yul\":15459:15477   */\n      mload\n        /* \"#utility.yul\":15455:15456   */\n      dup2\n        /* \"#utility.yul\":15450:15453   */\n      dup5\n        /* \"#utility.yul\":15446:15457   */\n      add\n        /* \"#utility.yul\":15439:15478   */\n      mstore\n        /* \"#utility.yul\":15411:15413   */\n      0x20\n        /* \"#utility.yul\":15408:15409   */\n      dup2\n        /* \"#utility.yul\":15404:15414   */\n      add\n        /* \"#utility.yul\":15399:15414   */\n      swap1\n      pop\n        /* \"#utility.yul\":15375:15488   */\n      jump(tag_323)\n    tag_325:\n        /* \"#utility.yul\":15506:15512   */\n      dup4\n        /* \"#utility.yul\":15503:15504   */\n      dup2\n        /* \"#utility.yul\":15500:15513   */\n      gt\n        /* \"#utility.yul\":15497:15598   */\n      iszero\n      tag_326\n      jumpi\n        /* \"#utility.yul\":15586:15587   */\n      0x00\n        /* \"#utility.yul\":15577:15583   */\n      dup5\n        /* \"#utility.yul\":15572:15575   */\n      dup5\n        /* \"#utility.yul\":15568:15584   */\n      add\n        /* \"#utility.yul\":15561:15588   */\n      mstore\n        /* \"#utility.yul\":15497:15598   */\n    tag_326:\n        /* \"#utility.yul\":15346:15604   */\n      pop\n        /* \"#utility.yul\":15297:15604   */\n      pop\n      pop\n      pop\n      jump\t// out\n        /* \"#utility.yul\":15610:15930   */\n    tag_80:\n        /* \"#utility.yul\":15654:15660   */\n      0x00\n        /* \"#utility.yul\":15691:15692   */\n      0x02\n        /* \"#utility.yul\":15685:15689   */\n      dup3\n        /* \"#utility.yul\":15681:15693   */\n      div\n        /* \"#utility.yul\":15671:15693   */\n      swap1\n      pop\n        /* \"#utility.yul\":15738:15739   */\n      0x01\n        /* \"#utility.yul\":15732:15736   */\n      dup3\n        /* \"#utility.yul\":15728:15740   */\n      and\n        /* \"#utility.yul\":15759:15777   */\n      dup1\n        /* \"#utility.yul\":15749:15830   */\n      tag_328\n      jumpi\n        /* \"#utility.yul\":15815:15819   */\n      0x7f\n        /* \"#utility.yul\":15807:15813   */\n      dup3\n        /* \"#utility.yul\":15803:15820   */\n      and\n        /* \"#utility.yul\":15793:15820   */\n      swap2\n      pop\n        /* \"#utility.yul\":15749:15830   */\n    tag_328:\n        /* \"#utility.yul\":15877:15879   */\n      0x20\n        /* \"#utility.yul\":15869:15875   */\n      dup3\n        /* \"#utility.yul\":15866:15880   */\n      lt\n        /* \"#utility.yul\":15846:15864   */\n      dup2\n        /* \"#utility.yul\":15843:15881   */\n      eq\n        /* \"#utility.yul\":15840:15924   */\n      iszero\n      tag_329\n      jumpi\n        /* \"#utility.yul\":15896:15914   */\n      tag_330\n      tag_331\n      jump\t// in\n    tag_330:\n        /* \"#utility.yul\":15840:15924   */\n    tag_329:\n        /* \"#utility.yul\":15661:15930   */\n      pop\n        /* \"#utility.yul\":15610:15930   */\n      swap2\n      swap1\n      pop\n      jump\t// out\n        /* \"#utility.yul\":15936:16217   */\n    tag_290:\n        /* \"#utility.yul\":16019:16046   */\n      tag_333\n        /* \"#utility.yul\":16041:16045   */\n      dup3\n        /* \"#utility.yul\":16019:16046   */\n      tag_208\n      jump\t// in\n    tag_333:\n        /* \"#utility.yul\":16011:16017   */\n      dup2\n        /* \"#utility.yul\":16007:16047   */\n      add\n        /* \"#utility.yul\":16149:16155   */\n      dup2\n        /* \"#utility.yul\":16137:16147   */\n      dup2\n        /* \"#utility.yul\":16134:16156   */\n      lt\n        /* \"#utility.yul\":16113:16131   */\n      0xffffffffffffffff\n        /* \"#utility.yul\":16101:16111   */\n      dup3\n        /* \"#utility.yul\":16098:16132   */\n      gt\n        /* \"#utility.yul\":16095:16157   */\n      or\n        /* \"#utility.yul\":16092:16180   */\n      iszero\n      tag_334\n      jumpi\n        /* \"#utility.yul\":16160:16178   */\n      tag_335\n      tag_295\n      jump\t// in\n    tag_335:\n        /* \"#utility.yul\":16092:16180   */\n    tag_334:\n        /* \"#utility.yul\":16200:16210   */\n      dup1\n        /* \"#utility.yul\":16196:16198   */\n      0x40\n        /* \"#utility.yul\":16189:16211   */\n      mstore\n        /* \"#utility.yul\":15979:16217   */\n      pop\n        /* \"#utility.yul\":15936:16217   */\n      pop\n      pop\n      jump\t// out\n        /* \"#utility.yul\":16223:16456   */\n    tag_76:\n        /* \"#utility.yul\":16262:16265   */\n      0x00\n        /* \"#utility.yul\":16285:16309   */\n      tag_337\n        /* \"#utility.yul\":16303:16308   */\n      dup3\n        /* \"#utility.yul\":16285:16309   */\n      tag_242\n      jump\t// in\n    tag_337:\n        /* \"#utility.yul\":16276:16309   */\n      swap2\n      pop\n        /* \"#utility.yul\":16331:16397   */\n      0xffffffffffffffffffffffffffffffffffffffffffffffffffffffffffffffff\n        /* \"#utility.yul\":16324:16329   */\n      dup3\n        /* \"#utility.yul\":16321:16398   */\n      eq\n        /* \"#utility.yul\":16318:16421   */\n      iszero\n      tag_338\n      jumpi\n        /* \"#utility.yul\":16401:16419   */\n      tag_339\n      tag_309\n      jump\t// in\n    tag_339:\n        /* \"#utility.yul\":16318:16421   */\n    tag_338:\n        /* \"#utility.yul\":16448:16449   */\n      0x01\n        /* \"#utility.yul\":16441:16446   */\n      dup3\n        /* \"#utility.yul\":16437:16450   */\n      add\n        /* \"#utility.yul\":16430:16450   */\n      swap1\n      pop\n        /* \"#utility.yul\":16223:16456   */\n      swap2\n      swap1\n      pop\n      jump\t// out\n        /* \"#utility.yul\":16462:16562   */\n    tag_180:\n        /* \"#utility.yul\":16501:16508   */\n      0x00\n        /* \"#utility.yul\":16530:16556   */\n      tag_341\n        /* \"#utility.yul\":16550:16555   */\n      dup3\n        /* \"#utility.yul\":16530:16556   */\n      tag_342\n      jump\t// in\n    tag_341:\n        /* \"#utility.yul\":16519:16556   */\n      swap1\n      pop\n        /* \"#utility.yul\":16462:16562   */\n      swap2\n      swap1\n      pop\n      jump\t// out\n        /* \"#utility.yul\":16568:16662   */\n    tag_342:\n        /* \"#utility.yul\":16607:16614   */\n      0x00\n        /* \"#utility.yul\":16636:16656   */\n      tag_344\n        /* \"#utility.yul\":16650:16655   */\n      dup3\n        /* \"#utility.yul\":16636:16656   */\n      tag_345\n      jump\t// in\n    tag_344:\n        /* \"#utility.yul\":16625:16656   */\n      swap1\n      pop\n        /* \"#utility.yul\":16568:16662   */\n      swap2\n      swap1\n      pop\n      jump\t// out\n        /* \"#utility.yul\":16668:16747   */\n    tag_250:\n        /* \"#utility.yul\":16707:16714   */\n      0x00\n        /* \"#utility.yul\":16736:16741   */\n      dup2\n        /* \"#utility.yul\":16725:16741   */\n      swap1\n      pop\n        /* \"#utility.yul\":16668:16747   */\n      swap2\n      swap1\n      pop\n      jump\t// out\n        /* \"#utility.yul\":16753:16929   */\n    tag_111:\n        /* \"#utility.yul\":16785:16786   */\n      0x00\n        /* \"#utility.yul\":16802:16822   */\n      tag_348\n        /* \"#utility.yul\":16820:16821   */\n      dup3\n        /* \"#utility.yul\":16802:16822   */\n      tag_242\n      jump\t// in\n    tag_348:\n        /* \"#utility.yul\":16797:16822   */\n      swap2\n      pop\n        /* \"#utility.yul\":16836:16856   */\n      tag_349\n        /* \"#utility.yul\":16854:16855   */\n      dup4\n        /* \"#utility.yul\":16836:16856   */\n      tag_242\n      jump\t// in\n    tag_349:\n        /* \"#utility.yul\":16831:16856   */\n      swap3\n      pop\n        /* \"#utility.yul\":16875:16876   */\n      dup3\n        /* \"#utility.yul\":16865:16900   */\n      tag_350\n      jumpi\n        /* \"#utility.yul\":16880:16898   */\n      tag_351\n      tag_352\n      jump\t// in\n    tag_351:\n        /* \"#utility.yul\":16865:16900   */\n    tag_350:\n        /* \"#utility.yul\":16921:16922   */\n      dup3\n        /* \"#utility.yul\":16918:16919   */\n      dup3\n        /* \"#utility.yul\":16914:16923   */\n      mod\n        /* \"#utility.yul\":16909:16923   */\n      swap1\n      pop\n        /* \"#utility.yul\":16753:16929   */\n      swap3\n      swap2\n      pop\n      pop\n      jump\t// out\n        /* \"#utility.yul\":16935:17115   */\n    tag_309:\n        /* \"#utility.yul\":16983:17060   */\n      0x4e487b7100000000000000000000000000000000000000000000000000000000\n        /* \"#utility.yul\":16980:16981   */\n      0x00\n        /* \"#utility.yul\":16973:17061   */\n      mstore\n        /* \"#utility.yul\":17080:17084   */\n      0x11\n        /* \"#utility.yul\":17077:17078   */\n      0x04\n        /* \"#utility.yul\":17070:17085   */\n      mstore\n        /* \"#utility.yul\":17104:17108   */\n      0x24\n        /* \"#utility.yul\":17101:17102   */\n      0x00\n        /* \"#utility.yul\":17094:17109   */\n      revert\n        /* \"#utility.yul\":17121:17301   */\n    tag_352:\n        /* \"#utility.yul\":17169:17246   */\n      0x4e487b7100000000000000000000000000000000000000000000000000000000\n        /* \"#utility.yul\":17166:17167   */\n      0x00\n        /* \"#utility.yul\":17159:17247   */\n      mstore\n        /* \"#utility.yul\":17266:17270   */\n      0x12\n        /* \"#utility.yul\":17263:17264   */\n      0x04\n        /* \"#utility.yul\":17256:17271   */\n      mstore\n        /* \"#utility.yul\":17290:17294   */\n      0x24\n        /* \"#utility.yul\":17287:17288   */\n      0x00\n        /* \"#utility.yul\":17280:17295   */\n      revert\n        /* \"#utility.yul\":17307:17487   */\n    tag_331:\n        /* \"#utility.yul\":17355:17432   */\n      0x4e487b7100000000000000000000000000000000000000000000000000000000\n        /* \"#utility.yul\":17352:17353   */\n      0x00\n        /* \"#utility.yul\":17345:17433   */\n      mstore\n        /* \"#utility.yul\":17452:17456   */\n      0x22\n        /* \"#utility.yul\":17449:17450   */\n      0x04\n        /* \"#utility.yul\":17442:17457   */\n      mstore\n        /* \"#utility.yul\":17476:17480   */\n      0x24\n        /* \"#utility.yul\":17473:17474   */\n      0x00\n        /* \"#utility.yul\":17466:17481   */\n      revert\n        /* \"#utility.yul\":17493:17673   */\n    tag_92:\n        /* \"#utility.yul\":17541:17618   */\n      0x4e487b7100000000000000000000000000000000000000000000000000000000\n        /* \"#utility.yul\":17538:17539   */\n      0x00\n        /* \"#utility.yul\":17531:17619   */\n      mstore\n        /* \"#utility.yul\":17638:17642   */\n      0x32\n        /* \"#utility.yul\":17635:17636   */\n      0x04\n        /* \"#utility.yul\":17628:17643   */\n      mstore\n        /* \"#utility.yul\":17662:17666   */\n      0x24\n        /* \"#utility.yul\":17659:17660   */\n      0x00\n        /* \"#utility.yul\":17652:17667   */\n      revert\n        /* \"#utility.yul\":17679:17859   */\n    tag_295:\n        /* \"#utility.yul\":17727:17804   */\n      0x4e487b7100000000000000000000000000000000000000000000000000000000\n        /* \"#utility.yul\":17724:17725   */\n      0x00\n        /* \"#utility.yul\":17717:17805   */\n      mstore\n        /* \"#utility.yul\":17824:17828   */\n      0x41\n        /* \"#utility.yul\":17821:17822   */\n      0x04\n        /* \"#utility.yul\":17814:17829   */\n      mstore\n        /* \"#utility.yul\":17848:17852   */\n      0x24\n        /* \"#utility.yul\":17845:17846   */\n      0x00\n        /* \"#utility.yul\":17838:17853   */\n      revert\n        /* \"#utility.yul\":17865:17982   */\n    tag_143:\n        /* \"#utility.yul\":17974:17975   */\n      0x00\n        /* \"#utility.yul\":17971:17972   */\n      dup1\n        /* \"#utility.yul\":17964:17976   */\n      revert\n        /* \"#utility.yul\":17988:18105   */\n    tag_132:\n        /* \"#utility.yul\":18097:18098   */\n      0x00\n        /* \"#utility.yul\":18094:18095   */\n      dup1\n        /* \"#utility.yul\":18087:18099   */\n      revert\n        /* \"#utility.yul\":18111:18228   */\n    tag_166:\n        /* \"#utility.yul\":18220:18221   */\n      0x00\n        /* \"#utility.yul\":18217:18218   */\n      dup1\n        /* \"#utility.yul\":18210:18222   */\n      revert\n        /* \"#utility.yul\":18234:18351   */\n    tag_152:\n        /* \"#utility.yul\":18343:18344   */\n      0x00\n        /* \"#utility.yul\":18340:18341   */\n      dup1\n        /* \"#utility.yul\":18333:18345   */\n      revert\n        /* \"#utility.yul\":18357:18459   */\n    tag_208:\n        /* \"#utility.yul\":18398:18404   */\n      0x00\n        /* \"#utility.yul\":18449:18451   */\n      0x1f\n        /* \"#utility.yul\":18445:18452   */\n      not\n        /* \"#utility.yul\":18440:18442   */\n      0x1f\n        /* \"#utility.yul\":18433:18438   */\n      dup4\n        /* \"#utility.yul\":18429:18443   */\n      add\n        /* \"#utility.yul\":18425:18453   */\n      and\n        /* \"#utility.yul\":18415:18453   */\n      swap1\n      pop\n        /* \"#utility.yul\":18357:18459   */\n      swap2\n      swap1\n      pop\n      jump\t// out\n        /* \"#utility.yul\":18465:18559   */\n    tag_345:\n        /* \"#utility.yul\":18498:18506   */\n      0x00\n        /* \"#utility.yul\":18546:18551   */\n      dup2\n        /* \"#utility.yul\":18542:18544   */\n      0x60\n        /* \"#utility.yul\":18538:18552   */\n      shl\n        /* \"#utility.yul\":18517:18552   */\n      swap1\n      pop\n        /* \"#utility.yul\":18465:18559   */\n      swap2\n      swap1\n      pop\n      jump\t// out\n        /* \"#utility.yul\":18565:18790   */\n    tag_219:\n        /* \"#utility.yul\":18705:18739   */\n      0x4f776e61626c653a206e6577206f776e657220697320746865207a65726f2061\n        /* \"#utility.yul\":18701:18702   */\n      0x00\n        /* \"#utility.yul\":18693:18699   */\n      dup3\n        /* \"#utility.yul\":18689:18703   */\n      add\n        /* \"#utility.yul\":18682:18740   */\n      mstore\n        /* \"#utility.yul\":18774:18782   */\n      0x6464726573730000000000000000000000000000000000000000000000000000\n        /* \"#utility.yul\":18769:18771   */\n      0x20\n        /* \"#utility.yul\":18761:18767   */\n      dup3\n        /* \"#utility.yul\":18757:18772   */\n      add\n        /* \"#utility.yul\":18750:18783   */\n      mstore\n        /* \"#utility.yul\":18565:18790   */\n      pop\n      jump\t// out\n        /* \"#utility.yul\":18796:18966   */\n    tag_224:\n        /* \"#utility.yul\":18936:18958   */\n      0x76616c75652063616e6e6f74206265206e756c6c000000000000000000000000\n        /* \"#utility.yul\":18932:18933   */\n      0x00\n        /* \"#utility.yul\":18924:18930   */\n      dup3\n        /* \"#utility.yul\":18920:18934   */\n      add\n        /* \"#utility.yul\":18913:18959   */\n      mstore\n        /* \"#utility.yul\":18796:18966   */\n      pop\n      jump\t// out\n        /* \"#utility.yul\":18972:19154   */\n    tag_229:\n        /* \"#utility.yul\":19112:19146   */\n      0x4f776e61626c653a2063616c6c6572206973206e6f7420746865206f776e6572\n        /* \"#utility.yul\":19108:19109   */\n      0x00\n        /* \"#utility.yul\":19100:19106   */\n      dup3\n        /* \"#utility.yul\":19096:19110   */\n      add\n        /* \"#utility.yul\":19089:19147   */\n      mstore\n        /* \"#utility.yul\":18972:19154   */\n      pop\n      jump\t// out\n        /* \"#utility.yul\":19160:19337   */\n    tag_234:\n        /* \"#utility.yul\":19300:19329   */\n      0x7468697320686f757365496420616c7265616479206578697374730000000000\n        /* \"#utility.yul\":19296:19297   */\n      0x00\n        /* \"#utility.yul\":19288:19294   */\n      dup3\n        /* \"#utility.yul\":19284:19298   */\n      add\n        /* \"#utility.yul\":19277:19330   */\n      mstore\n        /* \"#utility.yul\":19160:19337   */\n      pop\n      jump\t// out\n        /* \"#utility.yul\":19343:19573   */\n    tag_239:\n        /* \"#utility.yul\":19483:19517   */\n      0x596f7520646f206e6f7420686176652061636365737320746f2064656c657465\n        /* \"#utility.yul\":19479:19480   */\n      0x00\n        /* \"#utility.yul\":19471:19477   */\n      dup3\n        /* \"#utility.yul\":19467:19481   */\n      add\n        /* \"#utility.yul\":19460:19518   */\n      mstore\n        /* \"#utility.yul\":19552:19565   */\n      0x207468697320686f757365000000000000000000000000000000000000000000\n        /* \"#utility.yul\":19547:19549   */\n      0x20\n        /* \"#utility.yul\":19539:19545   */\n      dup3\n        /* \"#utility.yul\":19535:19550   */\n      add\n        /* \"#utility.yul\":19528:19566   */\n      mstore\n        /* \"#utility.yul\":19343:19573   */\n      pop\n      jump\t// out\n        /* \"#utility.yul\":19579:19701   */\n    tag_138:\n        /* \"#utility.yul\":19652:19676   */\n      tag_370\n        /* \"#utility.yul\":19670:19675   */\n      dup2\n        /* \"#utility.yul\":19652:19676   */\n      tag_175\n      jump\t// in\n    tag_370:\n        /* \"#utility.yul\":19645:19650   */\n      dup2\n        /* \"#utility.yul\":19642:19677   */\n      eq\n        /* \"#utility.yul\":19632:19695   */\n      tag_371\n      jumpi\n        /* \"#utility.yul\":19691:19692   */\n      0x00\n        /* \"#utility.yul\":19688:19689   */\n      dup1\n        /* \"#utility.yul\":19681:19693   */\n      revert\n        /* \"#utility.yul\":19632:19695   */\n    tag_371:\n        /* \"#utility.yul\":19579:19701   */\n      pop\n      jump\t// out\n        /* \"#utility.yul\":19707:19829   */\n    tag_148:\n        /* \"#utility.yul\":19780:19804   */\n      tag_373\n        /* \"#utility.yul\":19798:19803   */\n      dup2\n        /* \"#utility.yul\":19780:19804   */\n      tag_242\n      jump\t// in\n    tag_373:\n        /* \"#utility.yul\":19773:19778   */\n      dup2\n        /* \"#utility.yul\":19770:19805   */\n      eq\n        /* \"#utility.yul\":19760:19823   */\n      tag_374\n      jumpi\n        /* \"#utility.yul\":19819:19820   */\n      0x00\n        /* \"#utility.yul\":19816:19817   */\n      dup1\n        /* \"#utility.yul\":19809:19821   */\n      revert\n        /* \"#utility.yul\":19760:19823   */\n    tag_374:\n        /* \"#utility.yul\":19707:19829   */\n      pop\n      jump\t// out\n\n    auxdata: 0xa26469706673582212207073bc3896e562d8e0dcb6bd139ea500f1c146c418f473ad4b5429a6746664c964736f6c63430008070033\n}\n",
				"bytecode": {
					"linkReferences": {},
					"object": "60806040526005600255600254600a6200001a919062000182565b600355600160045560016005553480156200003457600080fd5b5062000055620000496200005b60201b60201c565b6200006360201b60201c565b62000305565b600033905090565b60008060009054906101000a900473ffffffffffffffffffffffffffffffffffffffff169050816000806101000a81548173ffffffffffffffffffffffffffffffffffffffff021916908373ffffffffffffffffffffffffffffffffffffffff1602179055508173ffffffffffffffffffffffffffffffffffffffff168173ffffffffffffffffffffffffffffffffffffffff167f8be0079c531659141344cd1fd0a4f28419497f9722a3daafe3b4186f6b6457e060405160405180910390a35050565b6000808291508390505b60018511156200017957808604811115620001515762000150620002c9565b5b6001851615620001615780820291505b80810290506200017185620002f8565b945062000131565b94509492505050565b60006200018f82620002bf565b91506200019c83620002bf565b9250620001cb7fffffffffffffffffffffffffffffffffffffffffffffffffffffffffffffffff8484620001d3565b905092915050565b600082620001e55760019050620002b8565b81620001f55760009050620002b8565b81600181146200020e576002811462000219576200024f565b6001915050620002b8565b60ff8411156200022e576200022d620002c9565b5b8360020a915084821115620002485762000247620002c9565b5b50620002b8565b5060208310610133831016604e8410600b8410161715620002895782820a905083811115620002835762000282620002c9565b5b620002b8565b62000298848484600162000127565b92509050818404811115620002b257620002b1620002c9565b5b81810290505b9392505050565b6000819050919050565b7f4e487b7100000000000000000000000000000000000000000000000000000000600052601160045260246000fd5b60008160011c9050919050565b6114ee80620003156000396000f3fe608060405234801561001057600080fd5b506004361061007d5760003560e01c806391bfe0d41161005b57806391bfe0d4146100da578063aeda852f1461010a578063c45e1b2514610140578063f2fde38b146101705761007d565b80633c3b0b4a14610082578063715018a6146100b25780638da5cb5b146100bc575b600080fd5b61009c60048036038101906100979190610a9b565b61018c565b6040516100a99190610dba565b60405180910390f35b6100ba61029e565b005b6100c4610326565b6040516100d19190610d7d565b60405180910390f35b6100f460048036038101906100ef9190610ac8565b61034f565b6040516101019190610e7c565b60405180910390f35b610124600480360381019061011f9190610a9b565b61058d565b6040516101379796959493929190610ee3565b60405180910390f35b61015a60048036038101906101559190610a9b565b610684565b6040516101679190610d98565b60405180910390f35b61018a60048036038101906101859190610a6e565b610718565b005b60603373ffffffffffffffffffffffffffffffffffffffff166006600084815260200190815260200160002060040160009054906101000a900473ffffffffffffffffffffffffffffffffffffffff1673ffffffffffffffffffffffffffffffffffffffff1614610232576040517f08c379a000000000000000000000000000000000000000000000000000000000815260040161022990610e5c565b60405180910390fd5b60016006600084815260200190815260200160002060060160006101000a81548160ff0219169083151502179055506040518060400160405280601581526020017f64656c69737420776173207375636365737366756c00000000000000000000008152509050919050565b6102a6610810565b73ffffffffffffffffffffffffffffffffffffffff166102c4610326565b73ffffffffffffffffffffffffffffffffffffffff161461031a576040517f08c379a000000000000000000000000000000000000000000000000000000000815260040161031190610e1c565b60405180910390fd5b6103246000610818565b565b60008060009054906101000a900473ffffffffffffffffffffffffffffffffffffffff16905090565b600080848661035e9190611065565b1161039e576040517f08c379a000000000000000000000000000000000000000000000000000000000815260040161039590610dfc565b60405180910390fd5b60006103ab8486856108dc565b90506006600082815260200190815260200160002060000154811415610406576040517f08c379a00000000000000000000000000000000000000000000000000000000081526004016103fd90610e3c565b60405180910390fd5b6040518060e0016040528082815260200160055481526020018781526020018681526020018573ffffffffffffffffffffffffffffffffffffffff16815260200184815260200160001515815250600660008381526020019081526020016000206000820151816000015560208201518160010155604082015181600201556060820151816003015560808201518160040160006101000a81548173ffffffffffffffffffffffffffffffffffffffff021916908373ffffffffffffffffffffffffffffffffffffffff16021790555060a08201518160050190805190602001906104f2929190610931565b5060c08201518160060160006101000a81548160ff02191690831515021790555090505061052c60045442610527919061100f565b610927565b6005600081548092919061053f906111ac565b91905055507f8f5afd88eb4be0ac287d87970052ce9a2b453448408e3c91a695ad7509ab7194818588866040516105799493929190610e97565b60405180910390a180915050949350505050565b60066020528060005260406000206000915090508060000154908060010154908060020154908060030154908060040160009054906101000a900473ffffffffffffffffffffffffffffffffffffffff16908060050180546105ee90611149565b80601f016020809104026020016040519081016040528092919081815260200182805461061a90611149565b80156106675780601f1061063c57610100808354040283529160200191610667565b820191906000526020600020905b81548152906001019060200180831161064a57829003601f168201915b5050505050908060060160009054906101000a900460ff16905087565b606080600080600190505b600554811161070d57846006600083815260200190815260200160002060020154116106fa5760066000828152602001908152602001600020600001548383815181106106df576106de6112e1565b5b60200260200101818152505081806106f6906111ac565b9250505b8080610705906111ac565b91505061068f565b508192505050919050565b610720610810565b73ffffffffffffffffffffffffffffffffffffffff1661073e610326565b73ffffffffffffffffffffffffffffffffffffffff1614610794576040517f08c379a000000000000000000000000000000000000000000000000000000000815260040161078b90610e1c565b60405180910390fd5b600073ffffffffffffffffffffffffffffffffffffffff168173ffffffffffffffffffffffffffffffffffffffff161415610804576040517f08c379a00000000000000000000000000000000000000000000000000000000081526004016107fb90610ddc565b60405180910390fd5b61080d81610818565b50565b600033905090565b60008060009054906101000a900473ffffffffffffffffffffffffffffffffffffffff169050816000806101000a81548173ffffffffffffffffffffffffffffffffffffffff021916908373ffffffffffffffffffffffffffffffffffffffff1602179055508173ffffffffffffffffffffffffffffffffffffffff168173ffffffffffffffffffffffffffffffffffffffff167f8be0079c531659141344cd1fd0a4f28419497f9722a3daafe3b4186f6b6457e060405160405180910390a35050565b6000808484846040516020016108f493929190610d44565b6040516020818303038152906040528051906020012060001c90506003548161091d9190611223565b9150509392505050565b8060018190555050565b82805461093d90611149565b90600052602060002090601f01602090048101928261095f57600085556109a6565b82601f1061097857805160ff19168380011785556109a6565b828001600101855582156109a6579182015b828111156109a557825182559160200191906001019061098a565b5b5090506109b391906109b7565b5090565b5b808211156109d05760008160009055506001016109b8565b5090565b60006109e76109e284610f7e565b610f59565b905082815260208101848484011115610a0357610a02611344565b5b610a0e848285611107565b509392505050565b600081359050610a258161148a565b92915050565b600082601f830112610a4057610a3f61133f565b5b8135610a508482602086016109d4565b91505092915050565b600081359050610a68816114a1565b92915050565b600060208284031215610a8457610a8361134e565b5b6000610a9284828501610a16565b91505092915050565b600060208284031215610ab157610ab061134e565b5b6000610abf84828501610a59565b91505092915050565b60008060008060808587031215610ae257610ae161134e565b5b6000610af087828801610a59565b9450506020610b0187828801610a59565b9350506040610b1287828801610a16565b925050606085013567ffffffffffffffff811115610b3357610b32611349565b5b610b3f87828801610a2b565b91505092959194509250565b6000610b578383610d0f565b60208301905092915050565b610b6c816110bf565b82525050565b610b83610b7e826110bf565b6111f5565b82525050565b6000610b9482610fbf565b610b9e8185610fe2565b9350610ba983610faf565b8060005b83811015610bda578151610bc18882610b4b565b9750610bcc83610fd5565b925050600181019050610bad565b5085935050505092915050565b610bf0816110d1565b82525050565b6000610c0182610fca565b610c0b8185610ff3565b9350610c1b818560208601611116565b610c2481611353565b840191505092915050565b6000610c3a82610fca565b610c448185611004565b9350610c54818560208601611116565b80840191505092915050565b6000610c6d602683610ff3565b9150610c7882611371565b604082019050919050565b6000610c90601483610ff3565b9150610c9b826113c0565b602082019050919050565b6000610cb3602083610ff3565b9150610cbe826113e9565b602082019050919050565b6000610cd6601b83610ff3565b9150610ce182611412565b602082019050919050565b6000610cf9602b83610ff3565b9150610d048261143b565b604082019050919050565b610d18816110fd565b82525050565b610d27816110fd565b82525050565b610d3e610d39826110fd565b611219565b82525050565b6000610d508286610b72565b601482019150610d608285610d2d565b602082019150610d708284610c2f565b9150819050949350505050565b6000602082019050610d926000830184610b63565b92915050565b60006020820190508181036000830152610db28184610b89565b905092915050565b60006020820190508181036000830152610dd48184610bf6565b905092915050565b60006020820190508181036000830152610df581610c60565b9050919050565b60006020820190508181036000830152610e1581610c83565b9050919050565b60006020820190508181036000830152610e3581610ca6565b9050919050565b60006020820190508181036000830152610e5581610cc9565b9050919050565b60006020820190508181036000830152610e7581610cec565b9050919050565b6000602082019050610e916000830184610d1e565b92915050565b6000608082019050610eac6000830187610d1e565b610eb96020830186610b63565b610ec66040830185610d1e565b8181036060830152610ed88184610bf6565b905095945050505050565b600060e082019050610ef8600083018a610d1e565b610f056020830189610d1e565b610f126040830188610d1e565b610f1f6060830187610d1e565b610f2c6080830186610b63565b81810360a0830152610f3e8185610bf6565b9050610f4d60c0830184610be7565b98975050505050505050565b6000610f63610f74565b9050610f6f828261117b565b919050565b6000604051905090565b600067ffffffffffffffff821115610f9957610f98611310565b5b610fa282611353565b9050602081019050919050565b6000819050602082019050919050565b600081519050919050565b600081519050919050565b6000602082019050919050565b600082825260208201905092915050565b600082825260208201905092915050565b600081905092915050565b600061101a826110fd565b9150611025836110fd565b9250827fffffffffffffffffffffffffffffffffffffffffffffffffffffffffffffffff0382111561105a57611059611254565b5b828201905092915050565b6000611070826110fd565b915061107b836110fd565b9250817fffffffffffffffffffffffffffffffffffffffffffffffffffffffffffffffff04831182151516156110b4576110b3611254565b5b828202905092915050565b60006110ca826110dd565b9050919050565b60008115159050919050565b600073ffffffffffffffffffffffffffffffffffffffff82169050919050565b6000819050919050565b82818337600083830152505050565b60005b83811015611134578082015181840152602081019050611119565b83811115611143576000848401525b50505050565b6000600282049050600182168061116157607f821691505b60208210811415611175576111746112b2565b5b50919050565b61118482611353565b810181811067ffffffffffffffff821117156111a3576111a2611310565b5b80604052505050565b60006111b7826110fd565b91507fffffffffffffffffffffffffffffffffffffffffffffffffffffffffffffffff8214156111ea576111e9611254565b5b600182019050919050565b600061120082611207565b9050919050565b600061121282611364565b9050919050565b6000819050919050565b600061122e826110fd565b9150611239836110fd565b92508261124957611248611283565b5b828206905092915050565b7f4e487b7100000000000000000000000000000000000000000000000000000000600052601160045260246000fd5b7f4e487b7100000000000000000000000000000000000000000000000000000000600052601260045260246000fd5b7f4e487b7100000000000000000000000000000000000000000000000000000000600052602260045260246000fd5b7f4e487b7100000000000000000000000000000000000000000000000000000000600052603260045260246000fd5b7f4e487b7100000000000000000000000000000000000000000000000000000000600052604160045260246000fd5b600080fd5b600080fd5b600080fd5b600080fd5b6000601f19601f8301169050919050565b60008160601b9050919050565b7f4f776e61626c653a206e6577206f776e657220697320746865207a65726f206160008201527f6464726573730000000000000000000000000000000000000000000000000000602082015250565b7f76616c75652063616e6e6f74206265206e756c6c000000000000000000000000600082015250565b7f4f776e61626c653a2063616c6c6572206973206e6f7420746865206f776e6572600082015250565b7f7468697320686f757365496420616c7265616479206578697374730000000000600082015250565b7f596f7520646f206e6f7420686176652061636365737320746f2064656c65746560008201527f207468697320686f757365000000000000000000000000000000000000000000602082015250565b611493816110bf565b811461149e57600080fd5b50565b6114aa816110fd565b81146114b557600080fd5b5056fea26469706673582212207073bc3896e562d8e0dcb6bd139ea500f1c146c418f473ad4b5429a6746664c964736f6c63430008070033",
					"opcodes": "PUSH1 0x80 PUSH1 0x40 MSTORE PUSH1 0x5 PUSH1 0x2 SSTORE PUSH1 0x2 SLOAD PUSH1 0xA PUSH3 0x1A SWAP2 SWAP1 PUSH3 0x182 JUMP JUMPDEST PUSH1 0x3 SSTORE PUSH1 0x1 PUSH1 0x4 SSTORE PUSH1 0x1 PUSH1 0x5 SSTORE CALLVALUE DUP1 ISZERO PUSH3 0x34 JUMPI PUSH1 0x0 DUP1 REVERT JUMPDEST POP PUSH3 0x55 PUSH3 0x49 PUSH3 0x5B PUSH1 0x20 SHL PUSH1 0x20 SHR JUMP JUMPDEST PUSH3 0x63 PUSH1 0x20 SHL PUSH1 0x20 SHR JUMP JUMPDEST PUSH3 0x305 JUMP JUMPDEST PUSH1 0x0 CALLER SWAP1 POP SWAP1 JUMP JUMPDEST PUSH1 0x0 DUP1 PUSH1 0x0 SWAP1 SLOAD SWAP1 PUSH2 0x100 EXP SWAP1 DIV PUSH20 0xFFFFFFFFFFFFFFFFFFFFFFFFFFFFFFFFFFFFFFFF AND SWAP1 POP DUP2 PUSH1 0x0 DUP1 PUSH2 0x100 EXP DUP2 SLOAD DUP2 PUSH20 0xFFFFFFFFFFFFFFFFFFFFFFFFFFFFFFFFFFFFFFFF MUL NOT AND SWAP1 DUP4 PUSH20 0xFFFFFFFFFFFFFFFFFFFFFFFFFFFFFFFFFFFFFFFF AND MUL OR SWAP1 SSTORE POP DUP2 PUSH20 0xFFFFFFFFFFFFFFFFFFFFFFFFFFFFFFFFFFFFFFFF AND DUP2 PUSH20 0xFFFFFFFFFFFFFFFFFFFFFFFFFFFFFFFFFFFFFFFF AND PUSH32 0x8BE0079C531659141344CD1FD0A4F28419497F9722A3DAAFE3B4186F6B6457E0 PUSH1 0x40 MLOAD PUSH1 0x40 MLOAD DUP1 SWAP2 SUB SWAP1 LOG3 POP POP JUMP JUMPDEST PUSH1 0x0 DUP1 DUP3 SWAP2 POP DUP4 SWAP1 POP JUMPDEST PUSH1 0x1 DUP6 GT ISZERO PUSH3 0x179 JUMPI DUP1 DUP7 DIV DUP2 GT ISZERO PUSH3 0x151 JUMPI PUSH3 0x150 PUSH3 0x2C9 JUMP JUMPDEST JUMPDEST PUSH1 0x1 DUP6 AND ISZERO PUSH3 0x161 JUMPI DUP1 DUP3 MUL SWAP2 POP JUMPDEST DUP1 DUP2 MUL SWAP1 POP PUSH3 0x171 DUP6 PUSH3 0x2F8 JUMP JUMPDEST SWAP5 POP PUSH3 0x131 JUMP JUMPDEST SWAP5 POP SWAP5 SWAP3 POP POP POP JUMP JUMPDEST PUSH1 0x0 PUSH3 0x18F DUP3 PUSH3 0x2BF JUMP JUMPDEST SWAP2 POP PUSH3 0x19C DUP4 PUSH3 0x2BF JUMP JUMPDEST SWAP3 POP PUSH3 0x1CB PUSH32 0xFFFFFFFFFFFFFFFFFFFFFFFFFFFFFFFFFFFFFFFFFFFFFFFFFFFFFFFFFFFFFFFF DUP5 DUP5 PUSH3 0x1D3 JUMP JUMPDEST SWAP1 POP SWAP3 SWAP2 POP POP JUMP JUMPDEST PUSH1 0x0 DUP3 PUSH3 0x1E5 JUMPI PUSH1 0x1 SWAP1 POP PUSH3 0x2B8 JUMP JUMPDEST DUP2 PUSH3 0x1F5 JUMPI PUSH1 0x0 SWAP1 POP PUSH3 0x2B8 JUMP JUMPDEST DUP2 PUSH1 0x1 DUP2 EQ PUSH3 0x20E JUMPI PUSH1 0x2 DUP2 EQ PUSH3 0x219 JUMPI PUSH3 0x24F JUMP JUMPDEST PUSH1 0x1 SWAP2 POP POP PUSH3 0x2B8 JUMP JUMPDEST PUSH1 0xFF DUP5 GT ISZERO PUSH3 0x22E JUMPI PUSH3 0x22D PUSH3 0x2C9 JUMP JUMPDEST JUMPDEST DUP4 PUSH1 0x2 EXP SWAP2 POP DUP5 DUP3 GT ISZERO PUSH3 0x248 JUMPI PUSH3 0x247 PUSH3 0x2C9 JUMP JUMPDEST JUMPDEST POP PUSH3 0x2B8 JUMP JUMPDEST POP PUSH1 0x20 DUP4 LT PUSH2 0x133 DUP4 LT AND PUSH1 0x4E DUP5 LT PUSH1 0xB DUP5 LT AND OR ISZERO PUSH3 0x289 JUMPI DUP3 DUP3 EXP SWAP1 POP DUP4 DUP2 GT ISZERO PUSH3 0x283 JUMPI PUSH3 0x282 PUSH3 0x2C9 JUMP JUMPDEST JUMPDEST PUSH3 0x2B8 JUMP JUMPDEST PUSH3 0x298 DUP5 DUP5 DUP5 PUSH1 0x1 PUSH3 0x127 JUMP JUMPDEST SWAP3 POP SWAP1 POP DUP2 DUP5 DIV DUP2 GT ISZERO PUSH3 0x2B2 JUMPI PUSH3 0x2B1 PUSH3 0x2C9 JUMP JUMPDEST JUMPDEST DUP2 DUP2 MUL SWAP1 POP JUMPDEST SWAP4 SWAP3 POP POP POP JUMP JUMPDEST PUSH1 0x0 DUP2 SWAP1 POP SWAP2 SWAP1 POP JUMP JUMPDEST PUSH32 0x4E487B7100000000000000000000000000000000000000000000000000000000 PUSH1 0x0 MSTORE PUSH1 0x11 PUSH1 0x4 MSTORE PUSH1 0x24 PUSH1 0x0 REVERT JUMPDEST PUSH1 0x0 DUP2 PUSH1 0x1 SHR SWAP1 POP SWAP2 SWAP1 POP JUMP JUMPDEST PUSH2 0x14EE DUP1 PUSH3 0x315 PUSH1 0x0 CODECOPY PUSH1 0x0 RETURN INVALID PUSH1 0x80 PUSH1 0x40 MSTORE CALLVALUE DUP1 ISZERO PUSH2 0x10 JUMPI PUSH1 0x0 DUP1 REVERT JUMPDEST POP PUSH1 0x4 CALLDATASIZE LT PUSH2 0x7D JUMPI PUSH1 0x0 CALLDATALOAD PUSH1 0xE0 SHR DUP1 PUSH4 0x91BFE0D4 GT PUSH2 0x5B JUMPI DUP1 PUSH4 0x91BFE0D4 EQ PUSH2 0xDA JUMPI DUP1 PUSH4 0xAEDA852F EQ PUSH2 0x10A JUMPI DUP1 PUSH4 0xC45E1B25 EQ PUSH2 0x140 JUMPI DUP1 PUSH4 0xF2FDE38B EQ PUSH2 0x170 JUMPI PUSH2 0x7D JUMP JUMPDEST DUP1 PUSH4 0x3C3B0B4A EQ PUSH2 0x82 JUMPI DUP1 PUSH4 0x715018A6 EQ PUSH2 0xB2 JUMPI DUP1 PUSH4 0x8DA5CB5B EQ PUSH2 0xBC JUMPI JUMPDEST PUSH1 0x0 DUP1 REVERT JUMPDEST PUSH2 0x9C PUSH1 0x4 DUP1 CALLDATASIZE SUB DUP2 ADD SWAP1 PUSH2 0x97 SWAP2 SWAP1 PUSH2 0xA9B JUMP JUMPDEST PUSH2 0x18C JUMP JUMPDEST PUSH1 0x40 MLOAD PUSH2 0xA9 SWAP2 SWAP1 PUSH2 0xDBA JUMP JUMPDEST PUSH1 0x40 MLOAD DUP1 SWAP2 SUB SWAP1 RETURN JUMPDEST PUSH2 0xBA PUSH2 0x29E JUMP JUMPDEST STOP JUMPDEST PUSH2 0xC4 PUSH2 0x326 JUMP JUMPDEST PUSH1 0x40 MLOAD PUSH2 0xD1 SWAP2 SWAP1 PUSH2 0xD7D JUMP JUMPDEST PUSH1 0x40 MLOAD DUP1 SWAP2 SUB SWAP1 RETURN JUMPDEST PUSH2 0xF4 PUSH1 0x4 DUP1 CALLDATASIZE SUB DUP2 ADD SWAP1 PUSH2 0xEF SWAP2 SWAP1 PUSH2 0xAC8 JUMP JUMPDEST PUSH2 0x34F JUMP JUMPDEST PUSH1 0x40 MLOAD PUSH2 0x101 SWAP2 SWAP1 PUSH2 0xE7C JUMP JUMPDEST PUSH1 0x40 MLOAD DUP1 SWAP2 SUB SWAP1 RETURN JUMPDEST PUSH2 0x124 PUSH1 0x4 DUP1 CALLDATASIZE SUB DUP2 ADD SWAP1 PUSH2 0x11F SWAP2 SWAP1 PUSH2 0xA9B JUMP JUMPDEST PUSH2 0x58D JUMP JUMPDEST PUSH1 0x40 MLOAD PUSH2 0x137 SWAP8 SWAP7 SWAP6 SWAP5 SWAP4 SWAP3 SWAP2 SWAP1 PUSH2 0xEE3 JUMP JUMPDEST PUSH1 0x40 MLOAD DUP1 SWAP2 SUB SWAP1 RETURN JUMPDEST PUSH2 0x15A PUSH1 0x4 DUP1 CALLDATASIZE SUB DUP2 ADD SWAP1 PUSH2 0x155 SWAP2 SWAP1 PUSH2 0xA9B JUMP JUMPDEST PUSH2 0x684 JUMP JUMPDEST PUSH1 0x40 MLOAD PUSH2 0x167 SWAP2 SWAP1 PUSH2 0xD98 JUMP JUMPDEST PUSH1 0x40 MLOAD DUP1 SWAP2 SUB SWAP1 RETURN JUMPDEST PUSH2 0x18A PUSH1 0x4 DUP1 CALLDATASIZE SUB DUP2 ADD SWAP1 PUSH2 0x185 SWAP2 SWAP1 PUSH2 0xA6E JUMP JUMPDEST PUSH2 0x718 JUMP JUMPDEST STOP JUMPDEST PUSH1 0x60 CALLER PUSH20 0xFFFFFFFFFFFFFFFFFFFFFFFFFFFFFFFFFFFFFFFF AND PUSH1 0x6 PUSH1 0x0 DUP5 DUP2 MSTORE PUSH1 0x20 ADD SWAP1 DUP2 MSTORE PUSH1 0x20 ADD PUSH1 0x0 KECCAK256 PUSH1 0x4 ADD PUSH1 0x0 SWAP1 SLOAD SWAP1 PUSH2 0x100 EXP SWAP1 DIV PUSH20 0xFFFFFFFFFFFFFFFFFFFFFFFFFFFFFFFFFFFFFFFF AND PUSH20 0xFFFFFFFFFFFFFFFFFFFFFFFFFFFFFFFFFFFFFFFF AND EQ PUSH2 0x232 JUMPI PUSH1 0x40 MLOAD PUSH32 0x8C379A000000000000000000000000000000000000000000000000000000000 DUP2 MSTORE PUSH1 0x4 ADD PUSH2 0x229 SWAP1 PUSH2 0xE5C JUMP JUMPDEST PUSH1 0x40 MLOAD DUP1 SWAP2 SUB SWAP1 REVERT JUMPDEST PUSH1 0x1 PUSH1 0x6 PUSH1 0x0 DUP5 DUP2 MSTORE PUSH1 0x20 ADD SWAP1 DUP2 MSTORE PUSH1 0x20 ADD PUSH1 0x0 KECCAK256 PUSH1 0x6 ADD PUSH1 0x0 PUSH2 0x100 EXP DUP2 SLOAD DUP2 PUSH1 0xFF MUL NOT AND SWAP1 DUP4 ISZERO ISZERO MUL OR SWAP1 SSTORE POP PUSH1 0x40 MLOAD DUP1 PUSH1 0x40 ADD PUSH1 0x40 MSTORE DUP1 PUSH1 0x15 DUP2 MSTORE PUSH1 0x20 ADD PUSH32 0x64656C69737420776173207375636365737366756C0000000000000000000000 DUP2 MSTORE POP SWAP1 POP SWAP2 SWAP1 POP JUMP JUMPDEST PUSH2 0x2A6 PUSH2 0x810 JUMP JUMPDEST PUSH20 0xFFFFFFFFFFFFFFFFFFFFFFFFFFFFFFFFFFFFFFFF AND PUSH2 0x2C4 PUSH2 0x326 JUMP JUMPDEST PUSH20 0xFFFFFFFFFFFFFFFFFFFFFFFFFFFFFFFFFFFFFFFF AND EQ PUSH2 0x31A JUMPI PUSH1 0x40 MLOAD PUSH32 0x8C379A000000000000000000000000000000000000000000000000000000000 DUP2 MSTORE PUSH1 0x4 ADD PUSH2 0x311 SWAP1 PUSH2 0xE1C JUMP JUMPDEST PUSH1 0x40 MLOAD DUP1 SWAP2 SUB SWAP1 REVERT JUMPDEST PUSH2 0x324 PUSH1 0x0 PUSH2 0x818 JUMP JUMPDEST JUMP JUMPDEST PUSH1 0x0 DUP1 PUSH1 0x0 SWAP1 SLOAD SWAP1 PUSH2 0x100 EXP SWAP1 DIV PUSH20 0xFFFFFFFFFFFFFFFFFFFFFFFFFFFFFFFFFFFFFFFF AND SWAP1 POP SWAP1 JUMP JUMPDEST PUSH1 0x0 DUP1 DUP5 DUP7 PUSH2 0x35E SWAP2 SWAP1 PUSH2 0x1065 JUMP JUMPDEST GT PUSH2 0x39E JUMPI PUSH1 0x40 MLOAD PUSH32 0x8C379A000000000000000000000000000000000000000000000000000000000 DUP2 MSTORE PUSH1 0x4 ADD PUSH2 0x395 SWAP1 PUSH2 0xDFC JUMP JUMPDEST PUSH1 0x40 MLOAD DUP1 SWAP2 SUB SWAP1 REVERT JUMPDEST PUSH1 0x0 PUSH2 0x3AB DUP5 DUP7 DUP6 PUSH2 0x8DC JUMP JUMPDEST SWAP1 POP PUSH1 0x6 PUSH1 0x0 DUP3 DUP2 MSTORE PUSH1 0x20 ADD SWAP1 DUP2 MSTORE PUSH1 0x20 ADD PUSH1 0x0 KECCAK256 PUSH1 0x0 ADD SLOAD DUP2 EQ ISZERO PUSH2 0x406 JUMPI PUSH1 0x40 MLOAD PUSH32 0x8C379A000000000000000000000000000000000000000000000000000000000 DUP2 MSTORE PUSH1 0x4 ADD PUSH2 0x3FD SWAP1 PUSH2 0xE3C JUMP JUMPDEST PUSH1 0x40 MLOAD DUP1 SWAP2 SUB SWAP1 REVERT JUMPDEST PUSH1 0x40 MLOAD DUP1 PUSH1 0xE0 ADD PUSH1 0x40 MSTORE DUP1 DUP3 DUP2 MSTORE PUSH1 0x20 ADD PUSH1 0x5 SLOAD DUP2 MSTORE PUSH1 0x20 ADD DUP8 DUP2 MSTORE PUSH1 0x20 ADD DUP7 DUP2 MSTORE PUSH1 0x20 ADD DUP6 PUSH20 0xFFFFFFFFFFFFFFFFFFFFFFFFFFFFFFFFFFFFFFFF AND DUP2 MSTORE PUSH1 0x20 ADD DUP5 DUP2 MSTORE PUSH1 0x20 ADD PUSH1 0x0 ISZERO ISZERO DUP2 MSTORE POP PUSH1 0x6 PUSH1 0x0 DUP4 DUP2 MSTORE PUSH1 0x20 ADD SWAP1 DUP2 MSTORE PUSH1 0x20 ADD PUSH1 0x0 KECCAK256 PUSH1 0x0 DUP3 ADD MLOAD DUP2 PUSH1 0x0 ADD SSTORE PUSH1 0x20 DUP3 ADD MLOAD DUP2 PUSH1 0x1 ADD SSTORE PUSH1 0x40 DUP3 ADD MLOAD DUP2 PUSH1 0x2 ADD SSTORE PUSH1 0x60 DUP3 ADD MLOAD DUP2 PUSH1 0x3 ADD SSTORE PUSH1 0x80 DUP3 ADD MLOAD DUP2 PUSH1 0x4 ADD PUSH1 0x0 PUSH2 0x100 EXP DUP2 SLOAD DUP2 PUSH20 0xFFFFFFFFFFFFFFFFFFFFFFFFFFFFFFFFFFFFFFFF MUL NOT AND SWAP1 DUP4 PUSH20 0xFFFFFFFFFFFFFFFFFFFFFFFFFFFFFFFFFFFFFFFF AND MUL OR SWAP1 SSTORE POP PUSH1 0xA0 DUP3 ADD MLOAD DUP2 PUSH1 0x5 ADD SWAP1 DUP1 MLOAD SWAP1 PUSH1 0x20 ADD SWAP1 PUSH2 0x4F2 SWAP3 SWAP2 SWAP1 PUSH2 0x931 JUMP JUMPDEST POP PUSH1 0xC0 DUP3 ADD MLOAD DUP2 PUSH1 0x6 ADD PUSH1 0x0 PUSH2 0x100 EXP DUP2 SLOAD DUP2 PUSH1 0xFF MUL NOT AND SWAP1 DUP4 ISZERO ISZERO MUL OR SWAP1 SSTORE POP SWAP1 POP POP PUSH2 0x52C PUSH1 0x4 SLOAD TIMESTAMP PUSH2 0x527 SWAP2 SWAP1 PUSH2 0x100F JUMP JUMPDEST PUSH2 0x927 JUMP JUMPDEST PUSH1 0x5 PUSH1 0x0 DUP2 SLOAD DUP1 SWAP3 SWAP2 SWAP1 PUSH2 0x53F SWAP1 PUSH2 0x11AC JUMP JUMPDEST SWAP2 SWAP1 POP SSTORE POP PUSH32 0x8F5AFD88EB4BE0AC287D87970052CE9A2B453448408E3C91A695AD7509AB7194 DUP2 DUP6 DUP9 DUP7 PUSH1 0x40 MLOAD PUSH2 0x579 SWAP5 SWAP4 SWAP3 SWAP2 SWAP1 PUSH2 0xE97 JUMP JUMPDEST PUSH1 0x40 MLOAD DUP1 SWAP2 SUB SWAP1 LOG1 DUP1 SWAP2 POP POP SWAP5 SWAP4 POP POP POP POP JUMP JUMPDEST PUSH1 0x6 PUSH1 0x20 MSTORE DUP1 PUSH1 0x0 MSTORE PUSH1 0x40 PUSH1 0x0 KECCAK256 PUSH1 0x0 SWAP2 POP SWAP1 POP DUP1 PUSH1 0x0 ADD SLOAD SWAP1 DUP1 PUSH1 0x1 ADD SLOAD SWAP1 DUP1 PUSH1 0x2 ADD SLOAD SWAP1 DUP1 PUSH1 0x3 ADD SLOAD SWAP1 DUP1 PUSH1 0x4 ADD PUSH1 0x0 SWAP1 SLOAD SWAP1 PUSH2 0x100 EXP SWAP1 DIV PUSH20 0xFFFFFFFFFFFFFFFFFFFFFFFFFFFFFFFFFFFFFFFF AND SWAP1 DUP1 PUSH1 0x5 ADD DUP1 SLOAD PUSH2 0x5EE SWAP1 PUSH2 0x1149 JUMP JUMPDEST DUP1 PUSH1 0x1F ADD PUSH1 0x20 DUP1 SWAP2 DIV MUL PUSH1 0x20 ADD PUSH1 0x40 MLOAD SWAP1 DUP2 ADD PUSH1 0x40 MSTORE DUP1 SWAP3 SWAP2 SWAP1 DUP2 DUP2 MSTORE PUSH1 0x20 ADD DUP3 DUP1 SLOAD PUSH2 0x61A SWAP1 PUSH2 0x1149 JUMP JUMPDEST DUP1 ISZERO PUSH2 0x667 JUMPI DUP1 PUSH1 0x1F LT PUSH2 0x63C JUMPI PUSH2 0x100 DUP1 DUP4 SLOAD DIV MUL DUP4 MSTORE SWAP2 PUSH1 0x20 ADD SWAP2 PUSH2 0x667 JUMP JUMPDEST DUP3 ADD SWAP2 SWAP1 PUSH1 0x0 MSTORE PUSH1 0x20 PUSH1 0x0 KECCAK256 SWAP1 JUMPDEST DUP2 SLOAD DUP2 MSTORE SWAP1 PUSH1 0x1 ADD SWAP1 PUSH1 0x20 ADD DUP1 DUP4 GT PUSH2 0x64A JUMPI DUP3 SWAP1 SUB PUSH1 0x1F AND DUP3 ADD SWAP2 JUMPDEST POP POP POP POP POP SWAP1 DUP1 PUSH1 0x6 ADD PUSH1 0x0 SWAP1 SLOAD SWAP1 PUSH2 0x100 EXP SWAP1 DIV PUSH1 0xFF AND SWAP1 POP DUP8 JUMP JUMPDEST PUSH1 0x60 DUP1 PUSH1 0x0 DUP1 PUSH1 0x1 SWAP1 POP JUMPDEST PUSH1 0x5 SLOAD DUP2 GT PUSH2 0x70D JUMPI DUP5 PUSH1 0x6 PUSH1 0x0 DUP4 DUP2 MSTORE PUSH1 0x20 ADD SWAP1 DUP2 MSTORE PUSH1 0x20 ADD PUSH1 0x0 KECCAK256 PUSH1 0x2 ADD SLOAD GT PUSH2 0x6FA JUMPI PUSH1 0x6 PUSH1 0x0 DUP3 DUP2 MSTORE PUSH1 0x20 ADD SWAP1 DUP2 MSTORE PUSH1 0x20 ADD PUSH1 0x0 KECCAK256 PUSH1 0x0 ADD SLOAD DUP4 DUP4 DUP2 MLOAD DUP2 LT PUSH2 0x6DF JUMPI PUSH2 0x6DE PUSH2 0x12E1 JUMP JUMPDEST JUMPDEST PUSH1 0x20 MUL PUSH1 0x20 ADD ADD DUP2 DUP2 MSTORE POP POP DUP2 DUP1 PUSH2 0x6F6 SWAP1 PUSH2 0x11AC JUMP JUMPDEST SWAP3 POP POP JUMPDEST DUP1 DUP1 PUSH2 0x705 SWAP1 PUSH2 0x11AC JUMP JUMPDEST SWAP2 POP POP PUSH2 0x68F JUMP JUMPDEST POP DUP2 SWAP3 POP POP POP SWAP2 SWAP1 POP JUMP JUMPDEST PUSH2 0x720 PUSH2 0x810 JUMP JUMPDEST PUSH20 0xFFFFFFFFFFFFFFFFFFFFFFFFFFFFFFFFFFFFFFFF AND PUSH2 0x73E PUSH2 0x326 JUMP JUMPDEST PUSH20 0xFFFFFFFFFFFFFFFFFFFFFFFFFFFFFFFFFFFFFFFF AND EQ PUSH2 0x794 JUMPI PUSH1 0x40 MLOAD PUSH32 0x8C379A000000000000000000000000000000000000000000000000000000000 DUP2 MSTORE PUSH1 0x4 ADD PUSH2 0x78B SWAP1 PUSH2 0xE1C JUMP JUMPDEST PUSH1 0x40 MLOAD DUP1 SWAP2 SUB SWAP1 REVERT JUMPDEST PUSH1 0x0 PUSH20 0xFFFFFFFFFFFFFFFFFFFFFFFFFFFFFFFFFFFFFFFF AND DUP2 PUSH20 0xFFFFFFFFFFFFFFFFFFFFFFFFFFFFFFFFFFFFFFFF AND EQ ISZERO PUSH2 0x804 JUMPI PUSH1 0x40 MLOAD PUSH32 0x8C379A000000000000000000000000000000000000000000000000000000000 DUP2 MSTORE PUSH1 0x4 ADD PUSH2 0x7FB SWAP1 PUSH2 0xDDC JUMP JUMPDEST PUSH1 0x40 MLOAD DUP1 SWAP2 SUB SWAP1 REVERT JUMPDEST PUSH2 0x80D DUP2 PUSH2 0x818 JUMP JUMPDEST POP JUMP JUMPDEST PUSH1 0x0 CALLER SWAP1 POP SWAP1 JUMP JUMPDEST PUSH1 0x0 DUP1 PUSH1 0x0 SWAP1 SLOAD SWAP1 PUSH2 0x100 EXP SWAP1 DIV PUSH20 0xFFFFFFFFFFFFFFFFFFFFFFFFFFFFFFFFFFFFFFFF AND SWAP1 POP DUP2 PUSH1 0x0 DUP1 PUSH2 0x100 EXP DUP2 SLOAD DUP2 PUSH20 0xFFFFFFFFFFFFFFFFFFFFFFFFFFFFFFFFFFFFFFFF MUL NOT AND SWAP1 DUP4 PUSH20 0xFFFFFFFFFFFFFFFFFFFFFFFFFFFFFFFFFFFFFFFF AND MUL OR SWAP1 SSTORE POP DUP2 PUSH20 0xFFFFFFFFFFFFFFFFFFFFFFFFFFFFFFFFFFFFFFFF AND DUP2 PUSH20 0xFFFFFFFFFFFFFFFFFFFFFFFFFFFFFFFFFFFFFFFF AND PUSH32 0x8BE0079C531659141344CD1FD0A4F28419497F9722A3DAAFE3B4186F6B6457E0 PUSH1 0x40 MLOAD PUSH1 0x40 MLOAD DUP1 SWAP2 SUB SWAP1 LOG3 POP POP JUMP JUMPDEST PUSH1 0x0 DUP1 DUP5 DUP5 DUP5 PUSH1 0x40 MLOAD PUSH1 0x20 ADD PUSH2 0x8F4 SWAP4 SWAP3 SWAP2 SWAP1 PUSH2 0xD44 JUMP JUMPDEST PUSH1 0x40 MLOAD PUSH1 0x20 DUP2 DUP4 SUB SUB DUP2 MSTORE SWAP1 PUSH1 0x40 MSTORE DUP1 MLOAD SWAP1 PUSH1 0x20 ADD KECCAK256 PUSH1 0x0 SHR SWAP1 POP PUSH1 0x3 SLOAD DUP2 PUSH2 0x91D SWAP2 SWAP1 PUSH2 0x1223 JUMP JUMPDEST SWAP2 POP POP SWAP4 SWAP3 POP POP POP JUMP JUMPDEST DUP1 PUSH1 0x1 DUP2 SWAP1 SSTORE POP POP JUMP JUMPDEST DUP3 DUP1 SLOAD PUSH2 0x93D SWAP1 PUSH2 0x1149 JUMP JUMPDEST SWAP1 PUSH1 0x0 MSTORE PUSH1 0x20 PUSH1 0x0 KECCAK256 SWAP1 PUSH1 0x1F ADD PUSH1 0x20 SWAP1 DIV DUP2 ADD SWAP3 DUP3 PUSH2 0x95F JUMPI PUSH1 0x0 DUP6 SSTORE PUSH2 0x9A6 JUMP JUMPDEST DUP3 PUSH1 0x1F LT PUSH2 0x978 JUMPI DUP1 MLOAD PUSH1 0xFF NOT AND DUP4 DUP1 ADD OR DUP6 SSTORE PUSH2 0x9A6 JUMP JUMPDEST DUP3 DUP1 ADD PUSH1 0x1 ADD DUP6 SSTORE DUP3 ISZERO PUSH2 0x9A6 JUMPI SWAP2 DUP3 ADD JUMPDEST DUP3 DUP2 GT ISZERO PUSH2 0x9A5 JUMPI DUP3 MLOAD DUP3 SSTORE SWAP2 PUSH1 0x20 ADD SWAP2 SWAP1 PUSH1 0x1 ADD SWAP1 PUSH2 0x98A JUMP JUMPDEST JUMPDEST POP SWAP1 POP PUSH2 0x9B3 SWAP2 SWAP1 PUSH2 0x9B7 JUMP JUMPDEST POP SWAP1 JUMP JUMPDEST JUMPDEST DUP1 DUP3 GT ISZERO PUSH2 0x9D0 JUMPI PUSH1 0x0 DUP2 PUSH1 0x0 SWAP1 SSTORE POP PUSH1 0x1 ADD PUSH2 0x9B8 JUMP JUMPDEST POP SWAP1 JUMP JUMPDEST PUSH1 0x0 PUSH2 0x9E7 PUSH2 0x9E2 DUP5 PUSH2 0xF7E JUMP JUMPDEST PUSH2 0xF59 JUMP JUMPDEST SWAP1 POP DUP3 DUP2 MSTORE PUSH1 0x20 DUP2 ADD DUP5 DUP5 DUP5 ADD GT ISZERO PUSH2 0xA03 JUMPI PUSH2 0xA02 PUSH2 0x1344 JUMP JUMPDEST JUMPDEST PUSH2 0xA0E DUP5 DUP3 DUP6 PUSH2 0x1107 JUMP JUMPDEST POP SWAP4 SWAP3 POP POP POP JUMP JUMPDEST PUSH1 0x0 DUP2 CALLDATALOAD SWAP1 POP PUSH2 0xA25 DUP2 PUSH2 0x148A JUMP JUMPDEST SWAP3 SWAP2 POP POP JUMP JUMPDEST PUSH1 0x0 DUP3 PUSH1 0x1F DUP4 ADD SLT PUSH2 0xA40 JUMPI PUSH2 0xA3F PUSH2 0x133F JUMP JUMPDEST JUMPDEST DUP2 CALLDATALOAD PUSH2 0xA50 DUP5 DUP3 PUSH1 0x20 DUP7 ADD PUSH2 0x9D4 JUMP JUMPDEST SWAP2 POP POP SWAP3 SWAP2 POP POP JUMP JUMPDEST PUSH1 0x0 DUP2 CALLDATALOAD SWAP1 POP PUSH2 0xA68 DUP2 PUSH2 0x14A1 JUMP JUMPDEST SWAP3 SWAP2 POP POP JUMP JUMPDEST PUSH1 0x0 PUSH1 0x20 DUP3 DUP5 SUB SLT ISZERO PUSH2 0xA84 JUMPI PUSH2 0xA83 PUSH2 0x134E JUMP JUMPDEST JUMPDEST PUSH1 0x0 PUSH2 0xA92 DUP5 DUP3 DUP6 ADD PUSH2 0xA16 JUMP JUMPDEST SWAP2 POP POP SWAP3 SWAP2 POP POP JUMP JUMPDEST PUSH1 0x0 PUSH1 0x20 DUP3 DUP5 SUB SLT ISZERO PUSH2 0xAB1 JUMPI PUSH2 0xAB0 PUSH2 0x134E JUMP JUMPDEST JUMPDEST PUSH1 0x0 PUSH2 0xABF DUP5 DUP3 DUP6 ADD PUSH2 0xA59 JUMP JUMPDEST SWAP2 POP POP SWAP3 SWAP2 POP POP JUMP JUMPDEST PUSH1 0x0 DUP1 PUSH1 0x0 DUP1 PUSH1 0x80 DUP6 DUP8 SUB SLT ISZERO PUSH2 0xAE2 JUMPI PUSH2 0xAE1 PUSH2 0x134E JUMP JUMPDEST JUMPDEST PUSH1 0x0 PUSH2 0xAF0 DUP8 DUP3 DUP9 ADD PUSH2 0xA59 JUMP JUMPDEST SWAP5 POP POP PUSH1 0x20 PUSH2 0xB01 DUP8 DUP3 DUP9 ADD PUSH2 0xA59 JUMP JUMPDEST SWAP4 POP POP PUSH1 0x40 PUSH2 0xB12 DUP8 DUP3 DUP9 ADD PUSH2 0xA16 JUMP JUMPDEST SWAP3 POP POP PUSH1 0x60 DUP6 ADD CALLDATALOAD PUSH8 0xFFFFFFFFFFFFFFFF DUP2 GT ISZERO PUSH2 0xB33 JUMPI PUSH2 0xB32 PUSH2 0x1349 JUMP JUMPDEST JUMPDEST PUSH2 0xB3F DUP8 DUP3 DUP9 ADD PUSH2 0xA2B JUMP JUMPDEST SWAP2 POP POP SWAP3 SWAP6 SWAP2 SWAP5 POP SWAP3 POP JUMP JUMPDEST PUSH1 0x0 PUSH2 0xB57 DUP4 DUP4 PUSH2 0xD0F JUMP JUMPDEST PUSH1 0x20 DUP4 ADD SWAP1 POP SWAP3 SWAP2 POP POP JUMP JUMPDEST PUSH2 0xB6C DUP2 PUSH2 0x10BF JUMP JUMPDEST DUP3 MSTORE POP POP JUMP JUMPDEST PUSH2 0xB83 PUSH2 0xB7E DUP3 PUSH2 0x10BF JUMP JUMPDEST PUSH2 0x11F5 JUMP JUMPDEST DUP3 MSTORE POP POP JUMP JUMPDEST PUSH1 0x0 PUSH2 0xB94 DUP3 PUSH2 0xFBF JUMP JUMPDEST PUSH2 0xB9E DUP2 DUP6 PUSH2 0xFE2 JUMP JUMPDEST SWAP4 POP PUSH2 0xBA9 DUP4 PUSH2 0xFAF JUMP JUMPDEST DUP1 PUSH1 0x0 JUMPDEST DUP4 DUP2 LT ISZERO PUSH2 0xBDA JUMPI DUP2 MLOAD PUSH2 0xBC1 DUP9 DUP3 PUSH2 0xB4B JUMP JUMPDEST SWAP8 POP PUSH2 0xBCC DUP4 PUSH2 0xFD5 JUMP JUMPDEST SWAP3 POP POP PUSH1 0x1 DUP2 ADD SWAP1 POP PUSH2 0xBAD JUMP JUMPDEST POP DUP6 SWAP4 POP POP POP POP SWAP3 SWAP2 POP POP JUMP JUMPDEST PUSH2 0xBF0 DUP2 PUSH2 0x10D1 JUMP JUMPDEST DUP3 MSTORE POP POP JUMP JUMPDEST PUSH1 0x0 PUSH2 0xC01 DUP3 PUSH2 0xFCA JUMP JUMPDEST PUSH2 0xC0B DUP2 DUP6 PUSH2 0xFF3 JUMP JUMPDEST SWAP4 POP PUSH2 0xC1B DUP2 DUP6 PUSH1 0x20 DUP7 ADD PUSH2 0x1116 JUMP JUMPDEST PUSH2 0xC24 DUP2 PUSH2 0x1353 JUMP JUMPDEST DUP5 ADD SWAP2 POP POP SWAP3 SWAP2 POP POP JUMP JUMPDEST PUSH1 0x0 PUSH2 0xC3A DUP3 PUSH2 0xFCA JUMP JUMPDEST PUSH2 0xC44 DUP2 DUP6 PUSH2 0x1004 JUMP JUMPDEST SWAP4 POP PUSH2 0xC54 DUP2 DUP6 PUSH1 0x20 DUP7 ADD PUSH2 0x1116 JUMP JUMPDEST DUP1 DUP5 ADD SWAP2 POP POP SWAP3 SWAP2 POP POP JUMP JUMPDEST PUSH1 0x0 PUSH2 0xC6D PUSH1 0x26 DUP4 PUSH2 0xFF3 JUMP JUMPDEST SWAP2 POP PUSH2 0xC78 DUP3 PUSH2 0x1371 JUMP JUMPDEST PUSH1 0x40 DUP3 ADD SWAP1 POP SWAP2 SWAP1 POP JUMP JUMPDEST PUSH1 0x0 PUSH2 0xC90 PUSH1 0x14 DUP4 PUSH2 0xFF3 JUMP JUMPDEST SWAP2 POP PUSH2 0xC9B DUP3 PUSH2 0x13C0 JUMP JUMPDEST PUSH1 0x20 DUP3 ADD SWAP1 POP SWAP2 SWAP1 POP JUMP JUMPDEST PUSH1 0x0 PUSH2 0xCB3 PUSH1 0x20 DUP4 PUSH2 0xFF3 JUMP JUMPDEST SWAP2 POP PUSH2 0xCBE DUP3 PUSH2 0x13E9 JUMP JUMPDEST PUSH1 0x20 DUP3 ADD SWAP1 POP SWAP2 SWAP1 POP JUMP JUMPDEST PUSH1 0x0 PUSH2 0xCD6 PUSH1 0x1B DUP4 PUSH2 0xFF3 JUMP JUMPDEST SWAP2 POP PUSH2 0xCE1 DUP3 PUSH2 0x1412 JUMP JUMPDEST PUSH1 0x20 DUP3 ADD SWAP1 POP SWAP2 SWAP1 POP JUMP JUMPDEST PUSH1 0x0 PUSH2 0xCF9 PUSH1 0x2B DUP4 PUSH2 0xFF3 JUMP JUMPDEST SWAP2 POP PUSH2 0xD04 DUP3 PUSH2 0x143B JUMP JUMPDEST PUSH1 0x40 DUP3 ADD SWAP1 POP SWAP2 SWAP1 POP JUMP JUMPDEST PUSH2 0xD18 DUP2 PUSH2 0x10FD JUMP JUMPDEST DUP3 MSTORE POP POP JUMP JUMPDEST PUSH2 0xD27 DUP2 PUSH2 0x10FD JUMP JUMPDEST DUP3 MSTORE POP POP JUMP JUMPDEST PUSH2 0xD3E PUSH2 0xD39 DUP3 PUSH2 0x10FD JUMP JUMPDEST PUSH2 0x1219 JUMP JUMPDEST DUP3 MSTORE POP POP JUMP JUMPDEST PUSH1 0x0 PUSH2 0xD50 DUP3 DUP7 PUSH2 0xB72 JUMP JUMPDEST PUSH1 0x14 DUP3 ADD SWAP2 POP PUSH2 0xD60 DUP3 DUP6 PUSH2 0xD2D JUMP JUMPDEST PUSH1 0x20 DUP3 ADD SWAP2 POP PUSH2 0xD70 DUP3 DUP5 PUSH2 0xC2F JUMP JUMPDEST SWAP2 POP DUP2 SWAP1 POP SWAP5 SWAP4 POP POP POP POP JUMP JUMPDEST PUSH1 0x0 PUSH1 0x20 DUP3 ADD SWAP1 POP PUSH2 0xD92 PUSH1 0x0 DUP4 ADD DUP5 PUSH2 0xB63 JUMP JUMPDEST SWAP3 SWAP2 POP POP JUMP JUMPDEST PUSH1 0x0 PUSH1 0x20 DUP3 ADD SWAP1 POP DUP2 DUP2 SUB PUSH1 0x0 DUP4 ADD MSTORE PUSH2 0xDB2 DUP2 DUP5 PUSH2 0xB89 JUMP JUMPDEST SWAP1 POP SWAP3 SWAP2 POP POP JUMP JUMPDEST PUSH1 0x0 PUSH1 0x20 DUP3 ADD SWAP1 POP DUP2 DUP2 SUB PUSH1 0x0 DUP4 ADD MSTORE PUSH2 0xDD4 DUP2 DUP5 PUSH2 0xBF6 JUMP JUMPDEST SWAP1 POP SWAP3 SWAP2 POP POP JUMP JUMPDEST PUSH1 0x0 PUSH1 0x20 DUP3 ADD SWAP1 POP DUP2 DUP2 SUB PUSH1 0x0 DUP4 ADD MSTORE PUSH2 0xDF5 DUP2 PUSH2 0xC60 JUMP JUMPDEST SWAP1 POP SWAP2 SWAP1 POP JUMP JUMPDEST PUSH1 0x0 PUSH1 0x20 DUP3 ADD SWAP1 POP DUP2 DUP2 SUB PUSH1 0x0 DUP4 ADD MSTORE PUSH2 0xE15 DUP2 PUSH2 0xC83 JUMP JUMPDEST SWAP1 POP SWAP2 SWAP1 POP JUMP JUMPDEST PUSH1 0x0 PUSH1 0x20 DUP3 ADD SWAP1 POP DUP2 DUP2 SUB PUSH1 0x0 DUP4 ADD MSTORE PUSH2 0xE35 DUP2 PUSH2 0xCA6 JUMP JUMPDEST SWAP1 POP SWAP2 SWAP1 POP JUMP JUMPDEST PUSH1 0x0 PUSH1 0x20 DUP3 ADD SWAP1 POP DUP2 DUP2 SUB PUSH1 0x0 DUP4 ADD MSTORE PUSH2 0xE55 DUP2 PUSH2 0xCC9 JUMP JUMPDEST SWAP1 POP SWAP2 SWAP1 POP JUMP JUMPDEST PUSH1 0x0 PUSH1 0x20 DUP3 ADD SWAP1 POP DUP2 DUP2 SUB PUSH1 0x0 DUP4 ADD MSTORE PUSH2 0xE75 DUP2 PUSH2 0xCEC JUMP JUMPDEST SWAP1 POP SWAP2 SWAP1 POP JUMP JUMPDEST PUSH1 0x0 PUSH1 0x20 DUP3 ADD SWAP1 POP PUSH2 0xE91 PUSH1 0x0 DUP4 ADD DUP5 PUSH2 0xD1E JUMP JUMPDEST SWAP3 SWAP2 POP POP JUMP JUMPDEST PUSH1 0x0 PUSH1 0x80 DUP3 ADD SWAP1 POP PUSH2 0xEAC PUSH1 0x0 DUP4 ADD DUP8 PUSH2 0xD1E JUMP JUMPDEST PUSH2 0xEB9 PUSH1 0x20 DUP4 ADD DUP7 PUSH2 0xB63 JUMP JUMPDEST PUSH2 0xEC6 PUSH1 0x40 DUP4 ADD DUP6 PUSH2 0xD1E JUMP JUMPDEST DUP2 DUP2 SUB PUSH1 0x60 DUP4 ADD MSTORE PUSH2 0xED8 DUP2 DUP5 PUSH2 0xBF6 JUMP JUMPDEST SWAP1 POP SWAP6 SWAP5 POP POP POP POP POP JUMP JUMPDEST PUSH1 0x0 PUSH1 0xE0 DUP3 ADD SWAP1 POP PUSH2 0xEF8 PUSH1 0x0 DUP4 ADD DUP11 PUSH2 0xD1E JUMP JUMPDEST PUSH2 0xF05 PUSH1 0x20 DUP4 ADD DUP10 PUSH2 0xD1E JUMP JUMPDEST PUSH2 0xF12 PUSH1 0x40 DUP4 ADD DUP9 PUSH2 0xD1E JUMP JUMPDEST PUSH2 0xF1F PUSH1 0x60 DUP4 ADD DUP8 PUSH2 0xD1E JUMP JUMPDEST PUSH2 0xF2C PUSH1 0x80 DUP4 ADD DUP7 PUSH2 0xB63 JUMP JUMPDEST DUP2 DUP2 SUB PUSH1 0xA0 DUP4 ADD MSTORE PUSH2 0xF3E DUP2 DUP6 PUSH2 0xBF6 JUMP JUMPDEST SWAP1 POP PUSH2 0xF4D PUSH1 0xC0 DUP4 ADD DUP5 PUSH2 0xBE7 JUMP JUMPDEST SWAP9 SWAP8 POP POP POP POP POP POP POP POP JUMP JUMPDEST PUSH1 0x0 PUSH2 0xF63 PUSH2 0xF74 JUMP JUMPDEST SWAP1 POP PUSH2 0xF6F DUP3 DUP3 PUSH2 0x117B JUMP JUMPDEST SWAP2 SWAP1 POP JUMP JUMPDEST PUSH1 0x0 PUSH1 0x40 MLOAD SWAP1 POP SWAP1 JUMP JUMPDEST PUSH1 0x0 PUSH8 0xFFFFFFFFFFFFFFFF DUP3 GT ISZERO PUSH2 0xF99 JUMPI PUSH2 0xF98 PUSH2 0x1310 JUMP JUMPDEST JUMPDEST PUSH2 0xFA2 DUP3 PUSH2 0x1353 JUMP JUMPDEST SWAP1 POP PUSH1 0x20 DUP2 ADD SWAP1 POP SWAP2 SWAP1 POP JUMP JUMPDEST PUSH1 0x0 DUP2 SWAP1 POP PUSH1 0x20 DUP3 ADD SWAP1 POP SWAP2 SWAP1 POP JUMP JUMPDEST PUSH1 0x0 DUP2 MLOAD SWAP1 POP SWAP2 SWAP1 POP JUMP JUMPDEST PUSH1 0x0 DUP2 MLOAD SWAP1 POP SWAP2 SWAP1 POP JUMP JUMPDEST PUSH1 0x0 PUSH1 0x20 DUP3 ADD SWAP1 POP SWAP2 SWAP1 POP JUMP JUMPDEST PUSH1 0x0 DUP3 DUP3 MSTORE PUSH1 0x20 DUP3 ADD SWAP1 POP SWAP3 SWAP2 POP POP JUMP JUMPDEST PUSH1 0x0 DUP3 DUP3 MSTORE PUSH1 0x20 DUP3 ADD SWAP1 POP SWAP3 SWAP2 POP POP JUMP JUMPDEST PUSH1 0x0 DUP2 SWAP1 POP SWAP3 SWAP2 POP POP JUMP JUMPDEST PUSH1 0x0 PUSH2 0x101A DUP3 PUSH2 0x10FD JUMP JUMPDEST SWAP2 POP PUSH2 0x1025 DUP4 PUSH2 0x10FD JUMP JUMPDEST SWAP3 POP DUP3 PUSH32 0xFFFFFFFFFFFFFFFFFFFFFFFFFFFFFFFFFFFFFFFFFFFFFFFFFFFFFFFFFFFFFFFF SUB DUP3 GT ISZERO PUSH2 0x105A JUMPI PUSH2 0x1059 PUSH2 0x1254 JUMP JUMPDEST JUMPDEST DUP3 DUP3 ADD SWAP1 POP SWAP3 SWAP2 POP POP JUMP JUMPDEST PUSH1 0x0 PUSH2 0x1070 DUP3 PUSH2 0x10FD JUMP JUMPDEST SWAP2 POP PUSH2 0x107B DUP4 PUSH2 0x10FD JUMP JUMPDEST SWAP3 POP DUP2 PUSH32 0xFFFFFFFFFFFFFFFFFFFFFFFFFFFFFFFFFFFFFFFFFFFFFFFFFFFFFFFFFFFFFFFF DIV DUP4 GT DUP3 ISZERO ISZERO AND ISZERO PUSH2 0x10B4 JUMPI PUSH2 0x10B3 PUSH2 0x1254 JUMP JUMPDEST JUMPDEST DUP3 DUP3 MUL SWAP1 POP SWAP3 SWAP2 POP POP JUMP JUMPDEST PUSH1 0x0 PUSH2 0x10CA DUP3 PUSH2 0x10DD JUMP JUMPDEST SWAP1 POP SWAP2 SWAP1 POP JUMP JUMPDEST PUSH1 0x0 DUP2 ISZERO ISZERO SWAP1 POP SWAP2 SWAP1 POP JUMP JUMPDEST PUSH1 0x0 PUSH20 0xFFFFFFFFFFFFFFFFFFFFFFFFFFFFFFFFFFFFFFFF DUP3 AND SWAP1 POP SWAP2 SWAP1 POP JUMP JUMPDEST PUSH1 0x0 DUP2 SWAP1 POP SWAP2 SWAP1 POP JUMP JUMPDEST DUP3 DUP2 DUP4 CALLDATACOPY PUSH1 0x0 DUP4 DUP4 ADD MSTORE POP POP POP JUMP JUMPDEST PUSH1 0x0 JUMPDEST DUP4 DUP2 LT ISZERO PUSH2 0x1134 JUMPI DUP1 DUP3 ADD MLOAD DUP2 DUP5 ADD MSTORE PUSH1 0x20 DUP2 ADD SWAP1 POP PUSH2 0x1119 JUMP JUMPDEST DUP4 DUP2 GT ISZERO PUSH2 0x1143 JUMPI PUSH1 0x0 DUP5 DUP5 ADD MSTORE JUMPDEST POP POP POP POP JUMP JUMPDEST PUSH1 0x0 PUSH1 0x2 DUP3 DIV SWAP1 POP PUSH1 0x1 DUP3 AND DUP1 PUSH2 0x1161 JUMPI PUSH1 0x7F DUP3 AND SWAP2 POP JUMPDEST PUSH1 0x20 DUP3 LT DUP2 EQ ISZERO PUSH2 0x1175 JUMPI PUSH2 0x1174 PUSH2 0x12B2 JUMP JUMPDEST JUMPDEST POP SWAP2 SWAP1 POP JUMP JUMPDEST PUSH2 0x1184 DUP3 PUSH2 0x1353 JUMP JUMPDEST DUP2 ADD DUP2 DUP2 LT PUSH8 0xFFFFFFFFFFFFFFFF DUP3 GT OR ISZERO PUSH2 0x11A3 JUMPI PUSH2 0x11A2 PUSH2 0x1310 JUMP JUMPDEST JUMPDEST DUP1 PUSH1 0x40 MSTORE POP POP POP JUMP JUMPDEST PUSH1 0x0 PUSH2 0x11B7 DUP3 PUSH2 0x10FD JUMP JUMPDEST SWAP2 POP PUSH32 0xFFFFFFFFFFFFFFFFFFFFFFFFFFFFFFFFFFFFFFFFFFFFFFFFFFFFFFFFFFFFFFFF DUP3 EQ ISZERO PUSH2 0x11EA JUMPI PUSH2 0x11E9 PUSH2 0x1254 JUMP JUMPDEST JUMPDEST PUSH1 0x1 DUP3 ADD SWAP1 POP SWAP2 SWAP1 POP JUMP JUMPDEST PUSH1 0x0 PUSH2 0x1200 DUP3 PUSH2 0x1207 JUMP JUMPDEST SWAP1 POP SWAP2 SWAP1 POP JUMP JUMPDEST PUSH1 0x0 PUSH2 0x1212 DUP3 PUSH2 0x1364 JUMP JUMPDEST SWAP1 POP SWAP2 SWAP1 POP JUMP JUMPDEST PUSH1 0x0 DUP2 SWAP1 POP SWAP2 SWAP1 POP JUMP JUMPDEST PUSH1 0x0 PUSH2 0x122E DUP3 PUSH2 0x10FD JUMP JUMPDEST SWAP2 POP PUSH2 0x1239 DUP4 PUSH2 0x10FD JUMP JUMPDEST SWAP3 POP DUP3 PUSH2 0x1249 JUMPI PUSH2 0x1248 PUSH2 0x1283 JUMP JUMPDEST JUMPDEST DUP3 DUP3 MOD SWAP1 POP SWAP3 SWAP2 POP POP JUMP JUMPDEST PUSH32 0x4E487B7100000000000000000000000000000000000000000000000000000000 PUSH1 0x0 MSTORE PUSH1 0x11 PUSH1 0x4 MSTORE PUSH1 0x24 PUSH1 0x0 REVERT JUMPDEST PUSH32 0x4E487B7100000000000000000000000000000000000000000000000000000000 PUSH1 0x0 MSTORE PUSH1 0x12 PUSH1 0x4 MSTORE PUSH1 0x24 PUSH1 0x0 REVERT JUMPDEST PUSH32 0x4E487B7100000000000000000000000000000000000000000000000000000000 PUSH1 0x0 MSTORE PUSH1 0x22 PUSH1 0x4 MSTORE PUSH1 0x24 PUSH1 0x0 REVERT JUMPDEST PUSH32 0x4E487B7100000000000000000000000000000000000000000000000000000000 PUSH1 0x0 MSTORE PUSH1 0x32 PUSH1 0x4 MSTORE PUSH1 0x24 PUSH1 0x0 REVERT JUMPDEST PUSH32 0x4E487B7100000000000000000000000000000000000000000000000000000000 PUSH1 0x0 MSTORE PUSH1 0x41 PUSH1 0x4 MSTORE PUSH1 0x24 PUSH1 0x0 REVERT JUMPDEST PUSH1 0x0 DUP1 REVERT JUMPDEST PUSH1 0x0 DUP1 REVERT JUMPDEST PUSH1 0x0 DUP1 REVERT JUMPDEST PUSH1 0x0 DUP1 REVERT JUMPDEST PUSH1 0x0 PUSH1 0x1F NOT PUSH1 0x1F DUP4 ADD AND SWAP1 POP SWAP2 SWAP1 POP JUMP JUMPDEST PUSH1 0x0 DUP2 PUSH1 0x60 SHL SWAP1 POP SWAP2 SWAP1 POP JUMP JUMPDEST PUSH32 0x4F776E61626C653A206E6577206F776E657220697320746865207A65726F2061 PUSH1 0x0 DUP3 ADD MSTORE PUSH32 0x6464726573730000000000000000000000000000000000000000000000000000 PUSH1 0x20 DUP3 ADD MSTORE POP JUMP JUMPDEST PUSH32 0x76616C75652063616E6E6F74206265206E756C6C000000000000000000000000 PUSH1 0x0 DUP3 ADD MSTORE POP JUMP JUMPDEST PUSH32 0x4F776E61626C653A2063616C6C6572206973206E6F7420746865206F776E6572 PUSH1 0x0 DUP3 ADD MSTORE POP JUMP JUMPDEST PUSH32 0x7468697320686F757365496420616C7265616479206578697374730000000000 PUSH1 0x0 DUP3 ADD MSTORE POP JUMP JUMPDEST PUSH32 0x596F7520646F206E6F7420686176652061636365737320746F2064656C657465 PUSH1 0x0 DUP3 ADD MSTORE PUSH32 0x207468697320686F757365000000000000000000000000000000000000000000 PUSH1 0x20 DUP3 ADD MSTORE POP JUMP JUMPDEST PUSH2 0x1493 DUP2 PUSH2 0x10BF JUMP JUMPDEST DUP2 EQ PUSH2 0x149E JUMPI PUSH1 0x0 DUP1 REVERT JUMPDEST POP JUMP JUMPDEST PUSH2 0x14AA DUP2 PUSH2 0x10FD JUMP JUMPDEST DUP2 EQ PUSH2 0x14B5 JUMPI PUSH1 0x0 DUP1 REVERT JUMPDEST POP JUMP INVALID LOG2 PUSH5 0x6970667358 0x22 SLT KECCAK256 PUSH17 0x73BC3896E562D8E0DCB6BD139EA500F1C1 CHAINID 0xC4 XOR DELEGATECALL PUSH20 0xAD4B5429A6746664C964736F6C63430008070033 "
				},
				"gasEstimates": {
					"creation": {
						"codeDepositCost": "1071600",
						"executionCost": "infinite",
						"totalCost": "infinite"
					},
					"external": {
						"delistHouse(uint256)": "infinite",
						"getCheapHouseIds(uint256)": "infinite",
						"houses(uint256)": "infinite",
						"listHouse(uint256,uint256,address,string)": "infinite",
						"owner()": "2567",
						"renounceOwnership()": "30397",
						"transferOwnership(address)": "30789"
					},
					"internal": {
						"_generateHouseId(address,uint256,string memory)": "infinite"
					}
				},
				"methodIdentifiers": {
					"delistHouse(uint256)": "3c3b0b4a",
					"getCheapHouseIds(uint256)": "c45e1b25",
					"houses(uint256)": "aeda852f",
					"listHouse(uint256,uint256,address,string)": "91bfe0d4",
					"owner()": "8da5cb5b",
					"renounceOwnership()": "715018a6",
					"transferOwnership(address)": "f2fde38b"
				}
			},
			"storageLayout": {
				"storage": [
					{
						"astId": 268,
						"contract": "contract/HouseRegistry.sol:HouseRegistry",
						"label": "_owner",
						"offset": 0,
						"slot": "0",
						"type": "t_address"
					},
					{
						"astId": 270,
						"contract": "contract/HouseRegistry.sol:HouseRegistry",
						"label": "ownerAddCooldown",
						"offset": 0,
						"slot": "1",
						"type": "t_uint256"
					},
					{
						"astId": 7,
						"contract": "contract/HouseRegistry.sol:HouseRegistry",
						"label": "digits",
						"offset": 0,
						"slot": "2",
						"type": "t_uint256"
					},
					{
						"astId": 12,
						"contract": "contract/HouseRegistry.sol:HouseRegistry",
						"label": "modulus",
						"offset": 0,
						"slot": "3",
						"type": "t_uint256"
					},
					{
						"astId": 15,
						"contract": "contract/HouseRegistry.sol:HouseRegistry",
						"label": "cooldownTime",
						"offset": 0,
						"slot": "4",
						"type": "t_uint256"
					},
					{
						"astId": 18,
						"contract": "contract/HouseRegistry.sol:HouseRegistry",
						"label": "countOfHouses",
						"offset": 0,
						"slot": "5",
						"type": "t_uint256"
					},
					{
						"astId": 48,
						"contract": "contract/HouseRegistry.sol:HouseRegistry",
						"label": "houses",
						"offset": 0,
						"slot": "6",
						"type": "t_mapping(t_uint256,t_struct(House)33_storage)"
					}
				],
				"types": {
					"t_address": {
						"encoding": "inplace",
						"label": "address",
						"numberOfBytes": "20"
					},
					"t_bool": {
						"encoding": "inplace",
						"label": "bool",
						"numberOfBytes": "1"
					},
					"t_mapping(t_uint256,t_struct(House)33_storage)": {
						"encoding": "mapping",
						"key": "t_uint256",
						"label": "mapping(uint256 => struct HouseRegistry.House)",
						"numberOfBytes": "32",
						"value": "t_struct(House)33_storage"
					},
					"t_string_storage": {
						"encoding": "bytes",
						"label": "string",
						"numberOfBytes": "32"
					},
					"t_struct(House)33_storage": {
						"encoding": "inplace",
						"label": "struct HouseRegistry.House",
						"members": [
							{
								"astId": 20,
								"contract": "contract/HouseRegistry.sol:HouseRegistry",
								"label": "id",
								"offset": 0,
								"slot": "0",
								"type": "t_uint256"
							},
							{
								"astId": 22,
								"contract": "contract/HouseRegistry.sol:HouseRegistry",
								"label": "serialNumber",
								"offset": 0,
								"slot": "1",
								"type": "t_uint256"
							},
							{
								"astId": 24,
								"contract": "contract/HouseRegistry.sol:HouseRegistry",
								"label": "price",
								"offset": 0,
								"slot": "2",
								"type": "t_uint256"
							},
							{
								"astId": 26,
								"contract": "contract/HouseRegistry.sol:HouseRegistry",
								"label": "area",
								"offset": 0,
								"slot": "3",
								"type": "t_uint256"
							},
							{
								"astId": 28,
								"contract": "contract/HouseRegistry.sol:HouseRegistry",
								"label": "sellerAddress",
								"offset": 0,
								"slot": "4",
								"type": "t_address"
							},
							{
								"astId": 30,
								"contract": "contract/HouseRegistry.sol:HouseRegistry",
								"label": "houseAddress",
								"offset": 0,
								"slot": "5",
								"type": "t_string_storage"
							},
							{
								"astId": 32,
								"contract": "contract/HouseRegistry.sol:HouseRegistry",
								"label": "isdelistedHouse",
								"offset": 0,
								"slot": "6",
								"type": "t_bool"
							}
						],
						"numberOfBytes": "224"
					},
					"t_uint256": {
						"encoding": "inplace",
						"label": "uint256",
						"numberOfBytes": "32"
					}
				}
			},
			"userdoc": {
				"kind": "user",
				"methods": {},
				"version": 1
			}
		}
	}
}