{
	"contract/HouseRegistryExt.sol": {
		"HouseRegistryExt": {
			"abi": [
				{
					"anonymous": false,
					"inputs": [
						{
							"indexed": false,
							"internalType": "uint256",
							"name": "houseId",
							"type": "uint256"
						},
						{
							"indexed": false,
							"internalType": "address",
							"name": "_sellerAddress",
							"type": "address"
						},
						{
							"indexed": false,
							"internalType": "uint256",
							"name": "price",
							"type": "uint256"
						},
						{
							"indexed": false,
							"internalType": "string",
							"name": "houseAddress",
							"type": "string"
						}
					],
					"name": "AddNewHouse",
					"type": "event"
				},
				{
					"inputs": [
						{
							"internalType": "uint256",
							"name": "_houseId",
							"type": "uint256"
						}
					],
					"name": "buyHouseWithETH",
					"outputs": [],
					"stateMutability": "payable",
					"type": "function"
				},
				{
					"inputs": [
						{
							"internalType": "uint256",
							"name": "houseId",
							"type": "uint256"
						}
					],
					"name": "delistHouse",
					"outputs": [
						{
							"internalType": "string",
							"name": "",
							"type": "string"
						}
					],
					"stateMutability": "nonpayable",
					"type": "function"
				},
				{
					"inputs": [
						{
							"internalType": "uint256",
							"name": "cost",
							"type": "uint256"
						}
					],
					"name": "getCheapHouseIds",
					"outputs": [
						{
							"internalType": "uint256[]",
							"name": "",
							"type": "uint256[]"
						}
					],
					"stateMutability": "view",
					"type": "function"
				},
				{
					"inputs": [
						{
							"internalType": "uint256",
							"name": "",
							"type": "uint256"
						}
					],
					"name": "houses",
					"outputs": [
						{
							"internalType": "uint256",
							"name": "id",
							"type": "uint256"
						},
						{
							"internalType": "uint256",
							"name": "serialNumber",
							"type": "uint256"
						},
						{
							"internalType": "uint256",
							"name": "price",
							"type": "uint256"
						},
						{
							"internalType": "uint256",
							"name": "area",
							"type": "uint256"
						},
						{
							"internalType": "address",
							"name": "sellerAddress",
							"type": "address"
						},
						{
							"internalType": "address",
							"name": "bayerAddress",
							"type": "address"
						},
						{
							"internalType": "string",
							"name": "houseAddress",
							"type": "string"
						},
						{
							"internalType": "bool",
							"name": "isdelistedHouse",
							"type": "bool"
						}
					],
					"stateMutability": "view",
					"type": "function"
				},
				{
					"inputs": [
						{
							"internalType": "uint256",
							"name": "_price",
							"type": "uint256"
						},
						{
							"internalType": "uint256",
							"name": "_area",
							"type": "uint256"
						},
						{
							"internalType": "address",
							"name": "_sellerAddress",
							"type": "address"
						},
						{
							"internalType": "string",
							"name": "_houseAddress",
							"type": "string"
						}
					],
					"name": "listHouse",
					"outputs": [
						{
							"internalType": "uint256",
							"name": "",
							"type": "uint256"
						}
					],
					"stateMutability": "nonpayable",
					"type": "function"
				},
				{
					"inputs": [
						{
							"internalType": "uint256",
							"name": "_price",
							"type": "uint256"
						},
						{
							"internalType": "uint256",
							"name": "_area",
							"type": "uint256"
						},
						{
							"internalType": "string",
							"name": "_houseAddress",
							"type": "string"
						}
					],
					"name": "listHouseSimple",
					"outputs": [],
					"stateMutability": "nonpayable",
					"type": "function"
				}
			],
			"devdoc": {
				"kind": "dev",
				"methods": {},
				"version": 1
			},
			"evm": {
				"assembly": "    /* \"contract/HouseRegistryExt.sol\":99:500  contract HouseRegistryExt is HouseRegistry {\r... */\n  mstore(0x40, 0x80)\n    /* \"contract/HouseRegistry.sol\":106:107  5 */\n  0x05\n    /* \"contract/HouseRegistry.sol\":92:107  uint digits = 5 */\n  0x00\n  sstore\n    /* \"contract/HouseRegistry.sol\":134:140  digits */\n  sload(0x00)\n    /* \"contract/HouseRegistry.sol\":128:130  10 */\n  0x0a\n    /* \"contract/HouseRegistry.sol\":128:140  10 ** digits */\n  tag_1\n  swap2\n  swap1\n  tag_2\n  jump\t// in\ntag_1:\n    /* \"contract/HouseRegistry.sol\":113:140  uint modulus = 10 ** digits */\n  0x01\n  sstore\n    /* \"contract/HouseRegistry.sol\":166:172  1 days */\n  0x015180\n    /* \"contract/HouseRegistry.sol\":146:172  uint cooldownTime = 1 days */\n  0x02\n  sstore\n    /* \"contract/HouseRegistry.sol\":199:200  1 */\n  0x01\n    /* \"contract/HouseRegistry.sol\":178:200  uint countOfHouses = 1 */\n  0x03\n  sstore\n    /* \"contract/HouseRegistryExt.sol\":99:500  contract HouseRegistryExt is HouseRegistry {\r... */\n  callvalue\n  dup1\n  iszero\n  tag_3\n  jumpi\n  0x00\n  dup1\n  revert\ntag_3:\n  pop\n  jump(tag_4)\n    /* \"#utility.yul\":7:855   */\ntag_6:\n    /* \"#utility.yul\":68:73   */\n  0x00\n    /* \"#utility.yul\":75:79   */\n  dup1\n    /* \"#utility.yul\":99:105   */\n  dup3\n    /* \"#utility.yul\":90:105   */\n  swap2\n  pop\n    /* \"#utility.yul\":123:128   */\n  dup4\n    /* \"#utility.yul\":114:128   */\n  swap1\n  pop\n    /* \"#utility.yul\":137:849   */\ntag_8:\n    /* \"#utility.yul\":158:159   */\n  0x01\n    /* \"#utility.yul\":148:156   */\n  dup6\n    /* \"#utility.yul\":145:160   */\n  gt\n    /* \"#utility.yul\":137:849   */\n  iszero\n  tag_10\n  jumpi\n    /* \"#utility.yul\":253:257   */\n  dup1\n    /* \"#utility.yul\":248:251   */\n  dup7\n    /* \"#utility.yul\":244:258   */\n  div\n    /* \"#utility.yul\":238:242   */\n  dup2\n    /* \"#utility.yul\":235:259   */\n  gt\n    /* \"#utility.yul\":232:282   */\n  iszero\n  tag_11\n  jumpi\n    /* \"#utility.yul\":262:280   */\n  tag_12\n  tag_13\n  jump\t// in\ntag_12:\n    /* \"#utility.yul\":232:282   */\ntag_11:\n    /* \"#utility.yul\":312:313   */\n  0x01\n    /* \"#utility.yul\":302:310   */\n  dup6\n    /* \"#utility.yul\":298:314   */\n  and\n    /* \"#utility.yul\":295:746   */\n  iszero\n  tag_14\n  jumpi\n    /* \"#utility.yul\":727:731   */\n  dup1\n    /* \"#utility.yul\":720:725   */\n  dup3\n    /* \"#utility.yul\":716:732   */\n  mul\n    /* \"#utility.yul\":707:732   */\n  swap2\n  pop\n    /* \"#utility.yul\":295:746   */\ntag_14:\n    /* \"#utility.yul\":777:781   */\n  dup1\n    /* \"#utility.yul\":771:775   */\n  dup2\n    /* \"#utility.yul\":767:782   */\n  mul\n    /* \"#utility.yul\":759:782   */\n  swap1\n  pop\n    /* \"#utility.yul\":807:839   */\n  tag_15\n    /* \"#utility.yul\":830:838   */\n  dup6\n    /* \"#utility.yul\":807:839   */\n  tag_16\n  jump\t// in\ntag_15:\n    /* \"#utility.yul\":795:839   */\n  swap5\n  pop\n    /* \"#utility.yul\":137:849   */\n  jump(tag_8)\ntag_10:\n    /* \"#utility.yul\":7:855   */\n  swap5\n  pop\n  swap5\n  swap3\n  pop\n  pop\n  pop\n  jump\t// out\n    /* \"#utility.yul\":861:1146   */\ntag_2:\n    /* \"#utility.yul\":921:926   */\n  0x00\n    /* \"#utility.yul\":945:968   */\n  tag_18\n    /* \"#utility.yul\":963:967   */\n  dup3\n    /* \"#utility.yul\":945:968   */\n  tag_19\n  jump\t// in\ntag_18:\n    /* \"#utility.yul\":937:968   */\n  swap2\n  pop\n    /* \"#utility.yul\":989:1016   */\n  tag_20\n    /* \"#utility.yul\":1007:1015   */\n  dup4\n    /* \"#utility.yul\":989:1016   */\n  tag_19\n  jump\t// in\ntag_20:\n    /* \"#utility.yul\":977:1016   */\n  swap3\n  pop\n    /* \"#utility.yul\":1035:1139   */\n  tag_21\n    /* \"#utility.yul\":1072:1138   */\n  0xffffffffffffffffffffffffffffffffffffffffffffffffffffffffffffffff\n    /* \"#utility.yul\":1062:1070   */\n  dup5\n    /* \"#utility.yul\":1056:1060   */\n  dup5\n    /* \"#utility.yul\":1035:1139   */\n  tag_22\n  jump\t// in\ntag_21:\n    /* \"#utility.yul\":1026:1139   */\n  swap1\n  pop\n    /* \"#utility.yul\":861:1146   */\n  swap3\n  swap2\n  pop\n  pop\n  jump\t// out\n    /* \"#utility.yul\":1152:2225   */\ntag_22:\n    /* \"#utility.yul\":1206:1211   */\n  0x00\n    /* \"#utility.yul\":1397:1405   */\n  dup3\n    /* \"#utility.yul\":1387:1427   */\n  tag_24\n  jumpi\n    /* \"#utility.yul\":1418:1419   */\n  0x01\n    /* \"#utility.yul\":1409:1419   */\n  swap1\n  pop\n    /* \"#utility.yul\":1420:1425   */\n  jump(tag_23)\n    /* \"#utility.yul\":1387:1427   */\ntag_24:\n    /* \"#utility.yul\":1446:1450   */\n  dup2\n    /* \"#utility.yul\":1436:1472   */\n  tag_25\n  jumpi\n    /* \"#utility.yul\":1463:1464   */\n  0x00\n    /* \"#utility.yul\":1454:1464   */\n  swap1\n  pop\n    /* \"#utility.yul\":1465:1470   */\n  jump(tag_23)\n    /* \"#utility.yul\":1436:1472   */\ntag_25:\n    /* \"#utility.yul\":1532:1536   */\n  dup2\n    /* \"#utility.yul\":1580:1581   */\n  0x01\n    /* \"#utility.yul\":1575:1602   */\n  dup2\n  eq\n  tag_27\n  jumpi\n    /* \"#utility.yul\":1616:1617   */\n  0x02\n    /* \"#utility.yul\":1611:1802   */\n  dup2\n  eq\n  tag_28\n  jumpi\n    /* \"#utility.yul\":1525:1802   */\n  jump(tag_26)\n    /* \"#utility.yul\":1575:1602   */\ntag_27:\n    /* \"#utility.yul\":1593:1594   */\n  0x01\n    /* \"#utility.yul\":1584:1594   */\n  swap2\n  pop\n    /* \"#utility.yul\":1595:1600   */\n  pop\n  jump(tag_23)\n    /* \"#utility.yul\":1611:1802   */\ntag_28:\n    /* \"#utility.yul\":1656:1659   */\n  0xff\n    /* \"#utility.yul\":1646:1654   */\n  dup5\n    /* \"#utility.yul\":1643:1660   */\n  gt\n    /* \"#utility.yul\":1640:1683   */\n  iszero\n  tag_29\n  jumpi\n    /* \"#utility.yul\":1663:1681   */\n  tag_30\n  tag_13\n  jump\t// in\ntag_30:\n    /* \"#utility.yul\":1640:1683   */\ntag_29:\n    /* \"#utility.yul\":1712:1720   */\n  dup4\n    /* \"#utility.yul\":1709:1710   */\n  0x02\n    /* \"#utility.yul\":1705:1721   */\n  exp\n    /* \"#utility.yul\":1696:1721   */\n  swap2\n  pop\n    /* \"#utility.yul\":1747:1750   */\n  dup5\n    /* \"#utility.yul\":1740:1745   */\n  dup3\n    /* \"#utility.yul\":1737:1751   */\n  gt\n    /* \"#utility.yul\":1734:1774   */\n  iszero\n  tag_31\n  jumpi\n    /* \"#utility.yul\":1754:1772   */\n  tag_32\n  tag_13\n  jump\t// in\ntag_32:\n    /* \"#utility.yul\":1734:1774   */\ntag_31:\n    /* \"#utility.yul\":1787:1792   */\n  pop\n  jump(tag_23)\n    /* \"#utility.yul\":1525:1802   */\ntag_26:\n  pop\n    /* \"#utility.yul\":1911:1913   */\n  0x20\n    /* \"#utility.yul\":1901:1909   */\n  dup4\n    /* \"#utility.yul\":1898:1914   */\n  lt\n    /* \"#utility.yul\":1892:1895   */\n  0x0133\n    /* \"#utility.yul\":1886:1890   */\n  dup4\n    /* \"#utility.yul\":1883:1896   */\n  lt\n    /* \"#utility.yul\":1879:1915   */\n  and\n    /* \"#utility.yul\":1861:1863   */\n  0x4e\n    /* \"#utility.yul\":1851:1859   */\n  dup5\n    /* \"#utility.yul\":1848:1864   */\n  lt\n    /* \"#utility.yul\":1843:1845   */\n  0x0b\n    /* \"#utility.yul\":1837:1841   */\n  dup5\n    /* \"#utility.yul\":1834:1846   */\n  lt\n    /* \"#utility.yul\":1830:1865   */\n  and\n    /* \"#utility.yul\":1814:1925   */\n  or\n    /* \"#utility.yul\":1811:2057   */\n  iszero\n  tag_33\n  jumpi\n    /* \"#utility.yul\":1967:1975   */\n  dup3\n    /* \"#utility.yul\":1961:1965   */\n  dup3\n    /* \"#utility.yul\":1957:1976   */\n  exp\n    /* \"#utility.yul\":1948:1976   */\n  swap1\n  pop\n    /* \"#utility.yul\":2002:2005   */\n  dup4\n    /* \"#utility.yul\":1995:2000   */\n  dup2\n    /* \"#utility.yul\":1992:2006   */\n  gt\n    /* \"#utility.yul\":1989:2029   */\n  iszero\n  tag_34\n  jumpi\n    /* \"#utility.yul\":2009:2027   */\n  tag_35\n  tag_13\n  jump\t// in\ntag_35:\n    /* \"#utility.yul\":1989:2029   */\ntag_34:\n    /* \"#utility.yul\":2042:2047   */\n  jump(tag_23)\n    /* \"#utility.yul\":1811:2057   */\ntag_33:\n    /* \"#utility.yul\":2082:2124   */\n  tag_36\n    /* \"#utility.yul\":2120:2123   */\n  dup5\n    /* \"#utility.yul\":2110:2118   */\n  dup5\n    /* \"#utility.yul\":2104:2108   */\n  dup5\n    /* \"#utility.yul\":2101:2102   */\n  0x01\n    /* \"#utility.yul\":2082:2124   */\n  tag_6\n  jump\t// in\ntag_36:\n    /* \"#utility.yul\":2067:2124   */\n  swap3\n  pop\n  swap1\n  pop\n    /* \"#utility.yul\":2156:2160   */\n  dup2\n    /* \"#utility.yul\":2151:2154   */\n  dup5\n    /* \"#utility.yul\":2147:2161   */\n  div\n    /* \"#utility.yul\":2140:2145   */\n  dup2\n    /* \"#utility.yul\":2137:2162   */\n  gt\n    /* \"#utility.yul\":2134:2185   */\n  iszero\n  tag_37\n  jumpi\n    /* \"#utility.yul\":2165:2183   */\n  tag_38\n  tag_13\n  jump\t// in\ntag_38:\n    /* \"#utility.yul\":2134:2185   */\ntag_37:\n    /* \"#utility.yul\":2214:2218   */\n  dup2\n    /* \"#utility.yul\":2207:2212   */\n  dup2\n    /* \"#utility.yul\":2203:2219   */\n  mul\n    /* \"#utility.yul\":2194:2219   */\n  swap1\n  pop\n    /* \"#utility.yul\":1152:2225   */\ntag_23:\n  swap4\n  swap3\n  pop\n  pop\n  pop\n  jump\t// out\n    /* \"#utility.yul\":2231:2308   */\ntag_19:\n    /* \"#utility.yul\":2268:2275   */\n  0x00\n    /* \"#utility.yul\":2297:2302   */\n  dup2\n    /* \"#utility.yul\":2286:2302   */\n  swap1\n  pop\n    /* \"#utility.yul\":2231:2308   */\n  swap2\n  swap1\n  pop\n  jump\t// out\n    /* \"#utility.yul\":2314:2494   */\ntag_13:\n    /* \"#utility.yul\":2362:2439   */\n  0x4e487b7100000000000000000000000000000000000000000000000000000000\n    /* \"#utility.yul\":2359:2360   */\n  0x00\n    /* \"#utility.yul\":2352:2440   */\n  mstore\n    /* \"#utility.yul\":2459:2463   */\n  0x11\n    /* \"#utility.yul\":2456:2457   */\n  0x04\n    /* \"#utility.yul\":2449:2464   */\n  mstore\n    /* \"#utility.yul\":2483:2487   */\n  0x24\n    /* \"#utility.yul\":2480:2481   */\n  0x00\n    /* \"#utility.yul\":2473:2488   */\n  revert\n    /* \"#utility.yul\":2500:2602   */\ntag_16:\n    /* \"#utility.yul\":2542:2550   */\n  0x00\n    /* \"#utility.yul\":2589:2594   */\n  dup2\n    /* \"#utility.yul\":2586:2587   */\n  0x01\n    /* \"#utility.yul\":2582:2595   */\n  shr\n    /* \"#utility.yul\":2561:2595   */\n  swap1\n  pop\n    /* \"#utility.yul\":2500:2602   */\n  swap2\n  swap1\n  pop\n  jump\t// out\n    /* \"contract/HouseRegistryExt.sol\":99:500  contract HouseRegistryExt is HouseRegistry {\r... */\ntag_4:\n  dataSize(sub_0)\n  dup1\n  dataOffset(sub_0)\n  0x00\n  codecopy\n  0x00\n  return\nstop\n\nsub_0: assembly {\n        /* \"contract/HouseRegistryExt.sol\":99:500  contract HouseRegistryExt is HouseRegistry {\r... */\n      mstore(0x40, 0x80)\n      jumpi(tag_1, lt(calldatasize, 0x04))\n      shr(0xe0, calldataload(0x00))\n      dup1\n      0x3c3b0b4a\n      eq\n      tag_2\n      jumpi\n      dup1\n      0x4d79658b\n      eq\n      tag_3\n      jumpi\n      dup1\n      0x91bfe0d4\n      eq\n      tag_4\n      jumpi\n      dup1\n      0xaeda852f\n      eq\n      tag_5\n      jumpi\n      dup1\n      0xbe40a73e\n      eq\n      tag_6\n      jumpi\n      dup1\n      0xc45e1b25\n      eq\n      tag_7\n      jumpi\n    tag_1:\n      0x00\n      dup1\n      revert\n        /* \"contract/HouseRegistry.sol\":1572:1841  function delistHouse(uint houseId) public returns (string memory){... */\n    tag_2:\n      callvalue\n      dup1\n      iszero\n      tag_8\n      jumpi\n      0x00\n      dup1\n      revert\n    tag_8:\n      pop\n      tag_9\n      0x04\n      dup1\n      calldatasize\n      sub\n      dup2\n      add\n      swap1\n      tag_10\n      swap2\n      swap1\n      tag_11\n      jump\t// in\n    tag_10:\n      tag_12\n      jump\t// in\n    tag_9:\n      mload(0x40)\n      tag_13\n      swap2\n      swap1\n      tag_14\n      jump\t// in\n    tag_13:\n      mload(0x40)\n      dup1\n      swap2\n      sub\n      swap1\n      return\n        /* \"contract/HouseRegistryExt.sol\":324:497  function buyHouseWithETH(uint _houseId) external payable{\r... */\n    tag_3:\n      tag_15\n      0x04\n      dup1\n      calldatasize\n      sub\n      dup2\n      add\n      swap1\n      tag_16\n      swap2\n      swap1\n      tag_11\n      jump\t// in\n    tag_16:\n      tag_17\n      jump\t// in\n    tag_15:\n      stop\n        /* \"contract/HouseRegistry.sol\":880:1566  function listHouse (uint _price, uint _area, address _sellerAddress, string memory _houseAddress) public returns (uint) {... */\n    tag_4:\n      callvalue\n      dup1\n      iszero\n      tag_18\n      jumpi\n      0x00\n      dup1\n      revert\n    tag_18:\n      pop\n      tag_19\n      0x04\n      dup1\n      calldatasize\n      sub\n      dup2\n      add\n      swap1\n      tag_20\n      swap2\n      swap1\n      tag_21\n      jump\t// in\n    tag_20:\n      tag_22\n      jump\t// in\n    tag_19:\n      mload(0x40)\n      tag_23\n      swap2\n      swap1\n      tag_24\n      jump\t// in\n    tag_23:\n      mload(0x40)\n      dup1\n      swap2\n      sub\n      swap1\n      return\n        /* \"contract/HouseRegistry.sol\":739:775  mapping(uint => House) public houses */\n    tag_5:\n      callvalue\n      dup1\n      iszero\n      tag_25\n      jumpi\n      0x00\n      dup1\n      revert\n    tag_25:\n      pop\n      tag_26\n      0x04\n      dup1\n      calldatasize\n      sub\n      dup2\n      add\n      swap1\n      tag_27\n      swap2\n      swap1\n      tag_11\n      jump\t// in\n    tag_27:\n      tag_28\n      jump\t// in\n    tag_26:\n      mload(0x40)\n      tag_29\n      swap9\n      swap8\n      swap7\n      swap6\n      swap5\n      swap4\n      swap3\n      swap2\n      swap1\n      tag_30\n      jump\t// in\n    tag_29:\n      mload(0x40)\n      dup1\n      swap2\n      sub\n      swap1\n      return\n        /* \"contract/HouseRegistryExt.sol\":151:318  function listHouseSimple(uint _price, uint _area, string memory _houseAddress) public canOwnerAdd{\r... */\n    tag_6:\n      callvalue\n      dup1\n      iszero\n      tag_31\n      jumpi\n      0x00\n      dup1\n      revert\n    tag_31:\n      pop\n      tag_32\n      0x04\n      dup1\n      calldatasize\n      sub\n      dup2\n      add\n      swap1\n      tag_33\n      swap2\n      swap1\n      tag_34\n      jump\t// in\n    tag_33:\n      tag_35\n      jump\t// in\n    tag_32:\n      stop\n        /* \"contract/HouseRegistry.sol\":1847:2385  function getCheapHouseIds(uint cost) external view returns (uint[]memory){... */\n    tag_7:\n      callvalue\n      dup1\n      iszero\n      tag_36\n      jumpi\n      0x00\n      dup1\n      revert\n    tag_36:\n      pop\n      tag_37\n      0x04\n      dup1\n      calldatasize\n      sub\n      dup2\n      add\n      swap1\n      tag_38\n      swap2\n      swap1\n      tag_11\n      jump\t// in\n    tag_38:\n      tag_39\n      jump\t// in\n    tag_37:\n      mload(0x40)\n      tag_40\n      swap2\n      swap1\n      tag_41\n      jump\t// in\n    tag_40:\n      mload(0x40)\n      dup1\n      swap2\n      sub\n      swap1\n      return\n        /* \"contract/HouseRegistry.sol\":1572:1841  function delistHouse(uint houseId) public returns (string memory){... */\n    tag_12:\n        /* \"contract/HouseRegistry.sol\":1623:1636  string memory */\n      0x60\n        /* \"contract/HouseRegistry.sol\":1688:1698  msg.sender */\n      caller\n        /* \"contract/HouseRegistry.sol\":1655:1698  houses[houseId].sellerAddress == msg.sender */\n      0xffffffffffffffffffffffffffffffffffffffff\n      and\n        /* \"contract/HouseRegistry.sol\":1655:1661  houses */\n      0x06\n        /* \"contract/HouseRegistry.sol\":1655:1670  houses[houseId] */\n      0x00\n        /* \"contract/HouseRegistry.sol\":1662:1669  houseId */\n      dup5\n        /* \"contract/HouseRegistry.sol\":1655:1670  houses[houseId] */\n      dup2\n      mstore\n      0x20\n      add\n      swap1\n      dup2\n      mstore\n      0x20\n      add\n      0x00\n      keccak256\n        /* \"contract/HouseRegistry.sol\":1655:1684  houses[houseId].sellerAddress */\n      0x04\n      add\n      0x00\n      swap1\n      sload\n      swap1\n      0x0100\n      exp\n      swap1\n      div\n      0xffffffffffffffffffffffffffffffffffffffff\n      and\n        /* \"contract/HouseRegistry.sol\":1655:1698  houses[houseId].sellerAddress == msg.sender */\n      0xffffffffffffffffffffffffffffffffffffffff\n      and\n      eq\n        /* \"contract/HouseRegistry.sol\":1647:1746  require(houses[houseId].sellerAddress == msg.sender, \"You do not have access to delete this house\") */\n      tag_43\n      jumpi\n      mload(0x40)\n      0x08c379a000000000000000000000000000000000000000000000000000000000\n      dup2\n      mstore\n      0x04\n      add\n      tag_44\n      swap1\n      tag_45\n      jump\t// in\n    tag_44:\n      mload(0x40)\n      dup1\n      swap2\n      sub\n      swap1\n      revert\n    tag_43:\n        /* \"contract/HouseRegistry.sol\":1790:1794  true */\n      0x01\n        /* \"contract/HouseRegistry.sol\":1756:1762  houses */\n      0x06\n        /* \"contract/HouseRegistry.sol\":1756:1771  houses[houseId] */\n      0x00\n        /* \"contract/HouseRegistry.sol\":1763:1770  houseId */\n      dup5\n        /* \"contract/HouseRegistry.sol\":1756:1771  houses[houseId] */\n      dup2\n      mstore\n      0x20\n      add\n      swap1\n      dup2\n      mstore\n      0x20\n      add\n      0x00\n      keccak256\n        /* \"contract/HouseRegistry.sol\":1756:1787  houses[houseId].isdelistedHouse */\n      0x07\n      add\n      0x00\n        /* \"contract/HouseRegistry.sol\":1756:1794  houses[houseId].isdelistedHouse = true */\n      0x0100\n      exp\n      dup2\n      sload\n      dup2\n      0xff\n      mul\n      not\n      and\n      swap1\n      dup4\n      iszero\n      iszero\n      mul\n      or\n      swap1\n      sstore\n      pop\n        /* \"contract/HouseRegistry.sol\":1804:1834  return \"delist was successful\" */\n      mload(0x40)\n      dup1\n      0x40\n      add\n      0x40\n      mstore\n      dup1\n      0x15\n      dup2\n      mstore\n      0x20\n      add\n      0x64656c69737420776173207375636365737366756c0000000000000000000000\n      dup2\n      mstore\n      pop\n      swap1\n      pop\n        /* \"contract/HouseRegistry.sol\":1572:1841  function delistHouse(uint houseId) public returns (string memory){... */\n      swap2\n      swap1\n      pop\n      jump\t// out\n        /* \"contract/HouseRegistryExt.sol\":324:497  function buyHouseWithETH(uint _houseId) external payable{\r... */\n    tag_17:\n        /* \"contract/HouseRegistryExt.sol\":411:417  houses */\n      0x06\n        /* \"contract/HouseRegistryExt.sol\":411:427  houses[_houseId] */\n      0x00\n        /* \"contract/HouseRegistryExt.sol\":418:426  _houseId */\n      dup3\n        /* \"contract/HouseRegistryExt.sol\":411:427  houses[_houseId] */\n      dup2\n      mstore\n      0x20\n      add\n      swap1\n      dup2\n      mstore\n      0x20\n      add\n      0x00\n      keccak256\n        /* \"contract/HouseRegistryExt.sol\":411:433  houses[_houseId].price */\n      0x02\n      add\n      sload\n        /* \"contract/HouseRegistryExt.sol\":399:408  msg.value */\n      callvalue\n        /* \"contract/HouseRegistryExt.sol\":399:433  msg.value > houses[_houseId].price */\n      gt\n        /* \"contract/HouseRegistryExt.sol\":391:434  require(msg.value > houses[_houseId].price) */\n      tag_47\n      jumpi\n      0x00\n      dup1\n      revert\n    tag_47:\n        /* \"contract/HouseRegistryExt.sol\":477:487  msg.sender */\n      caller\n        /* \"contract/HouseRegistryExt.sol\":445:451  houses */\n      0x06\n        /* \"contract/HouseRegistryExt.sol\":445:461  houses[_houseId] */\n      0x00\n        /* \"contract/HouseRegistryExt.sol\":452:460  _houseId */\n      dup4\n        /* \"contract/HouseRegistryExt.sol\":445:461  houses[_houseId] */\n      dup2\n      mstore\n      0x20\n      add\n      swap1\n      dup2\n      mstore\n      0x20\n      add\n      0x00\n      keccak256\n        /* \"contract/HouseRegistryExt.sol\":445:474  houses[_houseId].bayerAddress */\n      0x05\n      add\n      0x00\n        /* \"contract/HouseRegistryExt.sol\":445:487  houses[_houseId].bayerAddress = msg.sender */\n      0x0100\n      exp\n      dup2\n      sload\n      dup2\n      0xffffffffffffffffffffffffffffffffffffffff\n      mul\n      not\n      and\n      swap1\n      dup4\n      0xffffffffffffffffffffffffffffffffffffffff\n      and\n      mul\n      or\n      swap1\n      sstore\n      pop\n        /* \"contract/HouseRegistryExt.sol\":324:497  function buyHouseWithETH(uint _houseId) external payable{\r... */\n      pop\n      jump\t// out\n        /* \"contract/HouseRegistry.sol\":880:1566  function listHouse (uint _price, uint _area, address _sellerAddress, string memory _houseAddress) public returns (uint) {... */\n    tag_22:\n        /* \"contract/HouseRegistry.sol\":994:998  uint */\n      0x00\n        /* \"contract/HouseRegistry.sol\":1035:1036  0 */\n      dup1\n        /* \"contract/HouseRegistry.sol\":1027:1032  _area */\n      dup5\n        /* \"contract/HouseRegistry.sol\":1018:1024  _price */\n      dup7\n        /* \"contract/HouseRegistry.sol\":1018:1032  _price * _area */\n      tag_49\n      swap2\n      swap1\n      tag_50\n      jump\t// in\n    tag_49:\n        /* \"contract/HouseRegistry.sol\":1018:1036  _price * _area > 0 */\n      gt\n        /* \"contract/HouseRegistry.sol\":1010:1061  require(_price * _area > 0, \"value cannot be null\") */\n      tag_51\n      jumpi\n      mload(0x40)\n      0x08c379a000000000000000000000000000000000000000000000000000000000\n      dup2\n      mstore\n      0x04\n      add\n      tag_52\n      swap1\n      tag_53\n      jump\t// in\n    tag_52:\n      mload(0x40)\n      dup1\n      swap2\n      sub\n      swap1\n      revert\n    tag_51:\n        /* \"contract/HouseRegistry.sol\":1071:1083  uint houseId */\n      0x00\n        /* \"contract/HouseRegistry.sol\":1086:1140  _generateHouseId(_sellerAddress, _area, _houseAddress) */\n      tag_54\n        /* \"contract/HouseRegistry.sol\":1103:1117  _sellerAddress */\n      dup5\n        /* \"contract/HouseRegistry.sol\":1119:1124  _area */\n      dup7\n        /* \"contract/HouseRegistry.sol\":1126:1139  _houseAddress */\n      dup6\n        /* \"contract/HouseRegistry.sol\":1086:1102  _generateHouseId */\n      tag_55\n        /* \"contract/HouseRegistry.sol\":1086:1140  _generateHouseId(_sellerAddress, _area, _houseAddress) */\n      jump\t// in\n    tag_54:\n        /* \"contract/HouseRegistry.sol\":1071:1140  uint houseId = _generateHouseId(_sellerAddress, _area, _houseAddress) */\n      swap1\n      pop\n        /* \"contract/HouseRegistry.sol\":1169:1175  houses */\n      0x06\n        /* \"contract/HouseRegistry.sol\":1169:1184  houses[houseId] */\n      0x00\n        /* \"contract/HouseRegistry.sol\":1176:1183  houseId */\n      dup3\n        /* \"contract/HouseRegistry.sol\":1169:1184  houses[houseId] */\n      dup2\n      mstore\n      0x20\n      add\n      swap1\n      dup2\n      mstore\n      0x20\n      add\n      0x00\n      keccak256\n        /* \"contract/HouseRegistry.sol\":1169:1187  houses[houseId].id */\n      0x00\n      add\n      sload\n        /* \"contract/HouseRegistry.sol\":1158:1165  houseId */\n      dup2\n        /* \"contract/HouseRegistry.sol\":1158:1187  houseId != houses[houseId].id */\n      eq\n      iszero\n        /* \"contract/HouseRegistry.sol\":1150:1219  require(houseId != houses[houseId].id, \"this houseId already exists\") */\n      tag_56\n      jumpi\n      mload(0x40)\n      0x08c379a000000000000000000000000000000000000000000000000000000000\n      dup2\n      mstore\n      0x04\n      add\n      tag_57\n      swap1\n      tag_58\n      jump\t// in\n    tag_57:\n      mload(0x40)\n      dup1\n      swap2\n      sub\n      swap1\n      revert\n    tag_56:\n        /* \"contract/HouseRegistry.sol\":1247:1345  House(houseId, countOfHouses, _price, _area, _sellerAddress, _sellerAddress, _houseAddress, false) */\n      mload(0x40)\n      dup1\n      0x0100\n      add\n      0x40\n      mstore\n      dup1\n        /* \"contract/HouseRegistry.sol\":1253:1260  houseId */\n      dup3\n        /* \"contract/HouseRegistry.sol\":1247:1345  House(houseId, countOfHouses, _price, _area, _sellerAddress, _sellerAddress, _houseAddress, false) */\n      dup2\n      mstore\n      0x20\n      add\n        /* \"contract/HouseRegistry.sol\":1262:1275  countOfHouses */\n      sload(0x03)\n        /* \"contract/HouseRegistry.sol\":1247:1345  House(houseId, countOfHouses, _price, _area, _sellerAddress, _sellerAddress, _houseAddress, false) */\n      dup2\n      mstore\n      0x20\n      add\n        /* \"contract/HouseRegistry.sol\":1277:1283  _price */\n      dup8\n        /* \"contract/HouseRegistry.sol\":1247:1345  House(houseId, countOfHouses, _price, _area, _sellerAddress, _sellerAddress, _houseAddress, false) */\n      dup2\n      mstore\n      0x20\n      add\n        /* \"contract/HouseRegistry.sol\":1285:1290  _area */\n      dup7\n        /* \"contract/HouseRegistry.sol\":1247:1345  House(houseId, countOfHouses, _price, _area, _sellerAddress, _sellerAddress, _houseAddress, false) */\n      dup2\n      mstore\n      0x20\n      add\n        /* \"contract/HouseRegistry.sol\":1292:1306  _sellerAddress */\n      dup6\n        /* \"contract/HouseRegistry.sol\":1247:1345  House(houseId, countOfHouses, _price, _area, _sellerAddress, _sellerAddress, _houseAddress, false) */\n      0xffffffffffffffffffffffffffffffffffffffff\n      and\n      dup2\n      mstore\n      0x20\n      add\n        /* \"contract/HouseRegistry.sol\":1308:1322  _sellerAddress */\n      dup6\n        /* \"contract/HouseRegistry.sol\":1247:1345  House(houseId, countOfHouses, _price, _area, _sellerAddress, _sellerAddress, _houseAddress, false) */\n      0xffffffffffffffffffffffffffffffffffffffff\n      and\n      dup2\n      mstore\n      0x20\n      add\n        /* \"contract/HouseRegistry.sol\":1324:1337  _houseAddress */\n      dup5\n        /* \"contract/HouseRegistry.sol\":1247:1345  House(houseId, countOfHouses, _price, _area, _sellerAddress, _sellerAddress, _houseAddress, false) */\n      dup2\n      mstore\n      0x20\n      add\n        /* \"contract/HouseRegistry.sol\":1339:1344  false */\n      0x00\n        /* \"contract/HouseRegistry.sol\":1247:1345  House(houseId, countOfHouses, _price, _area, _sellerAddress, _sellerAddress, _houseAddress, false) */\n      iszero\n      iszero\n      dup2\n      mstore\n      pop\n        /* \"contract/HouseRegistry.sol\":1229:1235  houses */\n      0x06\n        /* \"contract/HouseRegistry.sol\":1229:1244  houses[houseId] */\n      0x00\n        /* \"contract/HouseRegistry.sol\":1236:1243  houseId */\n      dup4\n        /* \"contract/HouseRegistry.sol\":1229:1244  houses[houseId] */\n      dup2\n      mstore\n      0x20\n      add\n      swap1\n      dup2\n      mstore\n      0x20\n      add\n      0x00\n      keccak256\n        /* \"contract/HouseRegistry.sol\":1229:1345  houses[houseId] = House(houseId, countOfHouses, _price, _area, _sellerAddress, _sellerAddress, _houseAddress, false) */\n      0x00\n      dup3\n      add\n      mload\n      dup2\n      0x00\n      add\n      sstore\n      0x20\n      dup3\n      add\n      mload\n      dup2\n      0x01\n      add\n      sstore\n      0x40\n      dup3\n      add\n      mload\n      dup2\n      0x02\n      add\n      sstore\n      0x60\n      dup3\n      add\n      mload\n      dup2\n      0x03\n      add\n      sstore\n      0x80\n      dup3\n      add\n      mload\n      dup2\n      0x04\n      add\n      exp(0x0100, 0x00)\n      dup2\n      sload\n      dup2\n      0xffffffffffffffffffffffffffffffffffffffff\n      mul\n      not\n      and\n      swap1\n      dup4\n      0xffffffffffffffffffffffffffffffffffffffff\n      and\n      mul\n      or\n      swap1\n      sstore\n      pop\n      0xa0\n      dup3\n      add\n      mload\n      dup2\n      0x05\n      add\n      exp(0x0100, 0x00)\n      dup2\n      sload\n      dup2\n      0xffffffffffffffffffffffffffffffffffffffff\n      mul\n      not\n      and\n      swap1\n      dup4\n      0xffffffffffffffffffffffffffffffffffffffff\n      and\n      mul\n      or\n      swap1\n      sstore\n      pop\n      0xc0\n      dup3\n      add\n      mload\n      dup2\n      0x06\n      add\n      swap1\n      dup1\n      mload\n      swap1\n      0x20\n      add\n      swap1\n      tag_59\n      swap3\n      swap2\n      swap1\n      tag_60\n      jump\t// in\n    tag_59:\n      pop\n      0xe0\n      dup3\n      add\n      mload\n      dup2\n      0x07\n      add\n      exp(0x0100, 0x00)\n      dup2\n      sload\n      dup2\n      0xff\n      mul\n      not\n      and\n      swap1\n      dup4\n      iszero\n      iszero\n      mul\n      or\n      swap1\n      sstore\n      pop\n      swap1\n      pop\n      pop\n        /* \"contract/HouseRegistry.sol\":1356:1402  _ownerCooldown(block.timestamp + cooldownTime) */\n      tag_61\n        /* \"contract/HouseRegistry.sol\":1389:1401  cooldownTime */\n      sload(0x02)\n        /* \"contract/HouseRegistry.sol\":1371:1386  block.timestamp */\n      timestamp\n        /* \"contract/HouseRegistry.sol\":1371:1401  block.timestamp + cooldownTime */\n      tag_62\n      swap2\n      swap1\n      tag_63\n      jump\t// in\n    tag_62:\n        /* \"contract/HouseRegistry.sol\":1356:1370  _ownerCooldown */\n      tag_64\n        /* \"contract/HouseRegistry.sol\":1356:1402  _ownerCooldown(block.timestamp + cooldownTime) */\n      jump\t// in\n    tag_61:\n        /* \"contract/HouseRegistry.sol\":1412:1422  houseIndex */\n      0x05\n        /* \"contract/HouseRegistry.sol\":1428:1435  houseId */\n      dup2\n        /* \"contract/HouseRegistry.sol\":1412:1436  houseIndex.push(houseId) */\n      swap1\n      dup1\n      0x01\n      dup2\n      sload\n      add\n      dup1\n      dup3\n      sstore\n      dup1\n      swap2\n      pop\n      pop\n      0x01\n      swap1\n      sub\n      swap1\n      0x00\n      mstore\n      keccak256(0x00, 0x20)\n      add\n      0x00\n      swap1\n      swap2\n      swap1\n      swap2\n      swap1\n      swap2\n      pop\n      sstore\n        /* \"contract/HouseRegistry.sol\":1446:1459  countOfHouses */\n      0x03\n      0x00\n        /* \"contract/HouseRegistry.sol\":1446:1461  countOfHouses++ */\n      dup2\n      sload\n      dup1\n      swap3\n      swap2\n      swap1\n      tag_66\n      swap1\n      tag_67\n      jump\t// in\n    tag_66:\n      swap2\n      swap1\n      pop\n      sstore\n      pop\n        /* \"contract/HouseRegistry.sol\":1476:1535  AddNewHouse(houseId, _sellerAddress, _price, _houseAddress) */\n      0x8f5afd88eb4be0ac287d87970052ce9a2b453448408e3c91a695ad7509ab7194\n        /* \"contract/HouseRegistry.sol\":1488:1495  houseId */\n      dup2\n        /* \"contract/HouseRegistry.sol\":1497:1511  _sellerAddress */\n      dup6\n        /* \"contract/HouseRegistry.sol\":1513:1519  _price */\n      dup9\n        /* \"contract/HouseRegistry.sol\":1521:1534  _houseAddress */\n      dup7\n        /* \"contract/HouseRegistry.sol\":1476:1535  AddNewHouse(houseId, _sellerAddress, _price, _houseAddress) */\n      mload(0x40)\n      tag_68\n      swap5\n      swap4\n      swap3\n      swap2\n      swap1\n      tag_69\n      jump\t// in\n    tag_68:\n      mload(0x40)\n      dup1\n      swap2\n      sub\n      swap1\n      log1\n        /* \"contract/HouseRegistry.sol\":1552:1559  houseId */\n      dup1\n        /* \"contract/HouseRegistry.sol\":1545:1559  return houseId */\n      swap2\n      pop\n      pop\n        /* \"contract/HouseRegistry.sol\":880:1566  function listHouse (uint _price, uint _area, address _sellerAddress, string memory _houseAddress) public returns (uint) {... */\n      swap5\n      swap4\n      pop\n      pop\n      pop\n      pop\n      jump\t// out\n        /* \"contract/HouseRegistry.sol\":739:775  mapping(uint => House) public houses */\n    tag_28:\n      mstore(0x20, 0x06)\n      dup1\n      0x00\n      mstore\n      keccak256(0x00, 0x40)\n      0x00\n      swap2\n      pop\n      swap1\n      pop\n      dup1\n      0x00\n      add\n      sload\n      swap1\n      dup1\n      0x01\n      add\n      sload\n      swap1\n      dup1\n      0x02\n      add\n      sload\n      swap1\n      dup1\n      0x03\n      add\n      sload\n      swap1\n      dup1\n      0x04\n      add\n      0x00\n      swap1\n      sload\n      swap1\n      0x0100\n      exp\n      swap1\n      div\n      0xffffffffffffffffffffffffffffffffffffffff\n      and\n      swap1\n      dup1\n      0x05\n      add\n      0x00\n      swap1\n      sload\n      swap1\n      0x0100\n      exp\n      swap1\n      div\n      0xffffffffffffffffffffffffffffffffffffffff\n      and\n      swap1\n      dup1\n      0x06\n      add\n      dup1\n      sload\n      tag_70\n      swap1\n      tag_71\n      jump\t// in\n    tag_70:\n      dup1\n      0x1f\n      add\n      0x20\n      dup1\n      swap2\n      div\n      mul\n      0x20\n      add\n      mload(0x40)\n      swap1\n      dup2\n      add\n      0x40\n      mstore\n      dup1\n      swap3\n      swap2\n      swap1\n      dup2\n      dup2\n      mstore\n      0x20\n      add\n      dup3\n      dup1\n      sload\n      tag_72\n      swap1\n      tag_71\n      jump\t// in\n    tag_72:\n      dup1\n      iszero\n      tag_73\n      jumpi\n      dup1\n      0x1f\n      lt\n      tag_74\n      jumpi\n      0x0100\n      dup1\n      dup4\n      sload\n      div\n      mul\n      dup4\n      mstore\n      swap2\n      0x20\n      add\n      swap2\n      jump(tag_73)\n    tag_74:\n      dup3\n      add\n      swap2\n      swap1\n      0x00\n      mstore\n      keccak256(0x00, 0x20)\n      swap1\n    tag_75:\n      dup2\n      sload\n      dup2\n      mstore\n      swap1\n      0x01\n      add\n      swap1\n      0x20\n      add\n      dup1\n      dup4\n      gt\n      tag_75\n      jumpi\n      dup3\n      swap1\n      sub\n      0x1f\n      and\n      dup3\n      add\n      swap2\n    tag_73:\n      pop\n      pop\n      pop\n      pop\n      pop\n      swap1\n      dup1\n      0x07\n      add\n      0x00\n      swap1\n      sload\n      swap1\n      0x0100\n      exp\n      swap1\n      div\n      0xff\n      and\n      swap1\n      pop\n      dup9\n      jump\t// out\n        /* \"contract/HouseRegistryExt.sol\":151:318  function listHouseSimple(uint _price, uint _area, string memory _houseAddress) public canOwnerAdd{\r... */\n    tag_35:\n        /* \"contract/HouseRegistry.sol\":531:546  block.timestamp */\n      timestamp\n        /* \"contract/HouseRegistry.sol\":511:527  ownerAddCooldown */\n      sload(0x04)\n        /* \"contract/HouseRegistry.sol\":511:546  ownerAddCooldown <= block.timestamp */\n      gt\n      iszero\n        /* \"contract/HouseRegistry.sol\":503:586  require(ownerAddCooldown <= block.timestamp, \"The owner cannot yet add a new home\") */\n      tag_77\n      jumpi\n      mload(0x40)\n      0x08c379a000000000000000000000000000000000000000000000000000000000\n      dup2\n      mstore\n      0x04\n      add\n      tag_78\n      swap1\n      tag_79\n      jump\t// in\n    tag_78:\n      mload(0x40)\n      dup1\n      swap2\n      sub\n      swap1\n      revert\n    tag_77:\n        /* \"contract/HouseRegistryExt.sol\":259:310  listHouse(_price, _area, msg.sender, _houseAddress) */\n      tag_81\n        /* \"contract/HouseRegistryExt.sol\":269:275  _price */\n      dup4\n        /* \"contract/HouseRegistryExt.sol\":277:282  _area */\n      dup4\n        /* \"contract/HouseRegistryExt.sol\":284:294  msg.sender */\n      caller\n        /* \"contract/HouseRegistryExt.sol\":296:309  _houseAddress */\n      dup5\n        /* \"contract/HouseRegistryExt.sol\":259:268  listHouse */\n      tag_22\n        /* \"contract/HouseRegistryExt.sol\":259:310  listHouse(_price, _area, msg.sender, _houseAddress) */\n      jump\t// in\n    tag_81:\n      pop\n        /* \"contract/HouseRegistryExt.sol\":151:318  function listHouseSimple(uint _price, uint _area, string memory _houseAddress) public canOwnerAdd{\r... */\n      pop\n      pop\n      pop\n      jump\t// out\n        /* \"contract/HouseRegistry.sol\":1847:2385  function getCheapHouseIds(uint cost) external view returns (uint[]memory){... */\n    tag_39:\n        /* \"contract/HouseRegistry.sol\":1907:1919  uint[]memory */\n      0x60\n        /* \"contract/HouseRegistry.sol\":1930:1940  uint count */\n      0x00\n        /* \"contract/HouseRegistry.sol\":1958:1964  uint i */\n      dup1\n        /* \"contract/HouseRegistry.sol\":1954:2099  for(uint i = 0; i < houseIndex.length; i++){... */\n    tag_83:\n        /* \"contract/HouseRegistry.sol\":1974:1984  houseIndex */\n      0x05\n        /* \"contract/HouseRegistry.sol\":1974:1991  houseIndex.length */\n      dup1\n      sload\n      swap1\n      pop\n        /* \"contract/HouseRegistry.sol\":1970:1971  i */\n      dup2\n        /* \"contract/HouseRegistry.sol\":1970:1991  i < houseIndex.length */\n      lt\n        /* \"contract/HouseRegistry.sol\":1954:2099  for(uint i = 0; i < houseIndex.length; i++){... */\n      iszero\n      tag_84\n      jumpi\n        /* \"contract/HouseRegistry.sol\":2044:2048  cost */\n      dup4\n        /* \"contract/HouseRegistry.sol\":2014:2020  houses */\n      0x06\n        /* \"contract/HouseRegistry.sol\":2014:2035  houses[houseIndex[i]] */\n      0x00\n        /* \"contract/HouseRegistry.sol\":2021:2031  houseIndex */\n      0x05\n        /* \"contract/HouseRegistry.sol\":2032:2033  i */\n      dup5\n        /* \"contract/HouseRegistry.sol\":2021:2034  houseIndex[i] */\n      dup2\n      sload\n      dup2\n      lt\n      tag_86\n      jumpi\n      tag_87\n      tag_88\n      jump\t// in\n    tag_87:\n    tag_86:\n      swap1\n      0x00\n      mstore\n      keccak256(0x00, 0x20)\n      add\n      sload\n        /* \"contract/HouseRegistry.sol\":2014:2035  houses[houseIndex[i]] */\n      dup2\n      mstore\n      0x20\n      add\n      swap1\n      dup2\n      mstore\n      0x20\n      add\n      0x00\n      keccak256\n        /* \"contract/HouseRegistry.sol\":2014:2041  houses[houseIndex[i]].price */\n      0x02\n      add\n      sload\n        /* \"contract/HouseRegistry.sol\":2014:2048  houses[houseIndex[i]].price < cost */\n      lt\n        /* \"contract/HouseRegistry.sol\":2011:2089  if(houses[houseIndex[i]].price < cost){... */\n      iszero\n      tag_90\n      jumpi\n        /* \"contract/HouseRegistry.sol\":2067:2074  count++ */\n      dup2\n      dup1\n      tag_91\n      swap1\n      tag_67\n      jump\t// in\n    tag_91:\n      swap3\n      pop\n      pop\n        /* \"contract/HouseRegistry.sol\":2011:2089  if(houses[houseIndex[i]].price < cost){... */\n    tag_90:\n        /* \"contract/HouseRegistry.sol\":1993:1996  i++ */\n      dup1\n      dup1\n      tag_92\n      swap1\n      tag_67\n      jump\t// in\n    tag_92:\n      swap2\n      pop\n      pop\n        /* \"contract/HouseRegistry.sol\":1954:2099  for(uint i = 0; i < houseIndex.length; i++){... */\n      jump(tag_83)\n    tag_84:\n      pop\n        /* \"contract/HouseRegistry.sol\":2108:2136  uint[] memory filteredHouses */\n      0x00\n        /* \"contract/HouseRegistry.sol\":2150:2155  count */\n      dup2\n        /* \"contract/HouseRegistry.sol\":2139:2156  new uint[](count) */\n      0xffffffffffffffff\n      dup2\n      gt\n      iszero\n      tag_93\n      jumpi\n      tag_94\n      tag_95\n      jump\t// in\n    tag_94:\n    tag_93:\n      mload(0x40)\n      swap1\n      dup1\n      dup3\n      mstore\n      dup1\n      0x20\n      mul\n      0x20\n      add\n      dup3\n      add\n      0x40\n      mstore\n      dup1\n      iszero\n      tag_96\n      jumpi\n      dup2\n      0x20\n      add\n      0x20\n      dup3\n      mul\n      dup1\n      calldatasize\n      dup4\n      calldatacopy\n      dup1\n      dup3\n      add\n      swap2\n      pop\n      pop\n      swap1\n      pop\n    tag_96:\n      pop\n        /* \"contract/HouseRegistry.sol\":2108:2156  uint[] memory filteredHouses = new uint[](count) */\n      swap1\n      pop\n        /* \"contract/HouseRegistry.sol\":2170:2176  uint i */\n      0x00\n        /* \"contract/HouseRegistry.sol\":2166:2348  for(uint i = 0; i < houseIndex.length; i++){... */\n    tag_97:\n        /* \"contract/HouseRegistry.sol\":2186:2196  houseIndex */\n      0x05\n        /* \"contract/HouseRegistry.sol\":2186:2203  houseIndex.length */\n      dup1\n      sload\n      swap1\n      pop\n        /* \"contract/HouseRegistry.sol\":2182:2183  i */\n      dup2\n        /* \"contract/HouseRegistry.sol\":2182:2203  i < houseIndex.length */\n      lt\n        /* \"contract/HouseRegistry.sol\":2166:2348  for(uint i = 0; i < houseIndex.length; i++){... */\n      iszero\n      tag_98\n      jumpi\n        /* \"contract/HouseRegistry.sol\":2256:2260  cost */\n      dup5\n        /* \"contract/HouseRegistry.sol\":2226:2232  houses */\n      0x06\n        /* \"contract/HouseRegistry.sol\":2226:2247  houses[houseIndex[i]] */\n      0x00\n        /* \"contract/HouseRegistry.sol\":2233:2243  houseIndex */\n      0x05\n        /* \"contract/HouseRegistry.sol\":2244:2245  i */\n      dup5\n        /* \"contract/HouseRegistry.sol\":2233:2246  houseIndex[i] */\n      dup2\n      sload\n      dup2\n      lt\n      tag_100\n      jumpi\n      tag_101\n      tag_88\n      jump\t// in\n    tag_101:\n    tag_100:\n      swap1\n      0x00\n      mstore\n      keccak256(0x00, 0x20)\n      add\n      sload\n        /* \"contract/HouseRegistry.sol\":2226:2247  houses[houseIndex[i]] */\n      dup2\n      mstore\n      0x20\n      add\n      swap1\n      dup2\n      mstore\n      0x20\n      add\n      0x00\n      keccak256\n        /* \"contract/HouseRegistry.sol\":2226:2253  houses[houseIndex[i]].price */\n      0x02\n      add\n      sload\n        /* \"contract/HouseRegistry.sol\":2226:2260  houses[houseIndex[i]].price < cost */\n      lt\n        /* \"contract/HouseRegistry.sol\":2223:2338  if(houses[houseIndex[i]].price < cost){... */\n      iszero\n      tag_103\n      jumpi\n        /* \"contract/HouseRegistry.sol\":2299:2305  houses */\n      0x06\n        /* \"contract/HouseRegistry.sol\":2299:2320  houses[houseIndex[i]] */\n      0x00\n        /* \"contract/HouseRegistry.sol\":2306:2316  houseIndex */\n      0x05\n        /* \"contract/HouseRegistry.sol\":2317:2318  i */\n      dup4\n        /* \"contract/HouseRegistry.sol\":2306:2319  houseIndex[i] */\n      dup2\n      sload\n      dup2\n      lt\n      tag_104\n      jumpi\n      tag_105\n      tag_88\n      jump\t// in\n    tag_105:\n    tag_104:\n      swap1\n      0x00\n      mstore\n      keccak256(0x00, 0x20)\n      add\n      sload\n        /* \"contract/HouseRegistry.sol\":2299:2320  houses[houseIndex[i]] */\n      dup2\n      mstore\n      0x20\n      add\n      swap1\n      dup2\n      mstore\n      0x20\n      add\n      0x00\n      keccak256\n        /* \"contract/HouseRegistry.sol\":2299:2323  houses[houseIndex[i]].id */\n      0x00\n      add\n      sload\n        /* \"contract/HouseRegistry.sol\":2279:2293  filteredHouses */\n      dup3\n        /* \"contract/HouseRegistry.sol\":2294:2295  i */\n      dup3\n        /* \"contract/HouseRegistry.sol\":2279:2296  filteredHouses[i] */\n      dup2\n      mload\n      dup2\n      lt\n      tag_107\n      jumpi\n      tag_108\n      tag_88\n      jump\t// in\n    tag_108:\n    tag_107:\n      0x20\n      mul\n      0x20\n      add\n      add\n        /* \"contract/HouseRegistry.sol\":2279:2323  filteredHouses[i] = houses[houseIndex[i]].id */\n      dup2\n      dup2\n      mstore\n      pop\n      pop\n        /* \"contract/HouseRegistry.sol\":2223:2338  if(houses[houseIndex[i]].price < cost){... */\n    tag_103:\n        /* \"contract/HouseRegistry.sol\":2205:2208  i++ */\n      dup1\n      dup1\n      tag_109\n      swap1\n      tag_67\n      jump\t// in\n    tag_109:\n      swap2\n      pop\n      pop\n        /* \"contract/HouseRegistry.sol\":2166:2348  for(uint i = 0; i < houseIndex.length; i++){... */\n      jump(tag_97)\n    tag_98:\n      pop\n        /* \"contract/HouseRegistry.sol\":2364:2378  filteredHouses */\n      dup1\n        /* \"contract/HouseRegistry.sol\":2357:2378  return filteredHouses */\n      swap3\n      pop\n      pop\n      pop\n        /* \"contract/HouseRegistry.sol\":1847:2385  function getCheapHouseIds(uint cost) external view returns (uint[]memory){... */\n      swap2\n      swap1\n      pop\n      jump\t// out\n        /* \"contract/HouseRegistry.sol\":2391:2645  function _generateHouseId(address _sellerAddress, uint _area, string memory _houseAddress) private view returns(uint){... */\n    tag_55:\n        /* \"contract/HouseRegistry.sol\":2503:2507  uint */\n      0x00\n        /* \"contract/HouseRegistry.sol\":2518:2530  uint houseId */\n      dup1\n        /* \"contract/HouseRegistry.sol\":2565:2579  _sellerAddress */\n      dup5\n        /* \"contract/HouseRegistry.sol\":2581:2586  _area */\n      dup5\n        /* \"contract/HouseRegistry.sol\":2588:2601  _houseAddress */\n      dup5\n        /* \"contract/HouseRegistry.sol\":2548:2602  abi.encodePacked(_sellerAddress, _area, _houseAddress) */\n      add(0x20, mload(0x40))\n      tag_111\n      swap4\n      swap3\n      swap2\n      swap1\n      tag_112\n      jump\t// in\n    tag_111:\n      mload(0x40)\n      0x20\n      dup2\n      dup4\n      sub\n      sub\n      dup2\n      mstore\n      swap1\n      0x40\n      mstore\n        /* \"contract/HouseRegistry.sol\":2538:2603  keccak256(abi.encodePacked(_sellerAddress, _area, _houseAddress)) */\n      dup1\n      mload\n      swap1\n      0x20\n      add\n      keccak256\n        /* \"contract/HouseRegistry.sol\":2533:2604  uint(keccak256(abi.encodePacked(_sellerAddress, _area, _houseAddress))) */\n      0x00\n      shr\n        /* \"contract/HouseRegistry.sol\":2518:2604  uint houseId = uint(keccak256(abi.encodePacked(_sellerAddress, _area, _houseAddress))) */\n      swap1\n      pop\n        /* \"contract/HouseRegistry.sol\":2631:2638  modulus */\n      sload(0x01)\n        /* \"contract/HouseRegistry.sol\":2621:2628  houseId */\n      dup2\n        /* \"contract/HouseRegistry.sol\":2621:2638  houseId % modulus */\n      tag_113\n      swap2\n      swap1\n      tag_114\n      jump\t// in\n    tag_113:\n        /* \"contract/HouseRegistry.sol\":2614:2638  return houseId % modulus */\n      swap2\n      pop\n      pop\n        /* \"contract/HouseRegistry.sol\":2391:2645  function _generateHouseId(address _sellerAddress, uint _area, string memory _houseAddress) private view returns(uint){... */\n      swap4\n      swap3\n      pop\n      pop\n      pop\n      jump\t// out\n        /* \"contract/HouseRegistry.sol\":782:874  function _ownerCooldown(uint _newTime) internal {... */\n    tag_64:\n        /* \"contract/HouseRegistry.sol\":859:867  _newTime */\n      dup1\n        /* \"contract/HouseRegistry.sol\":840:856  ownerAddCooldown */\n      0x04\n        /* \"contract/HouseRegistry.sol\":840:867  ownerAddCooldown = _newTime */\n      dup2\n      swap1\n      sstore\n      pop\n        /* \"contract/HouseRegistry.sol\":782:874  function _ownerCooldown(uint _newTime) internal {... */\n      pop\n      jump\t// out\n    tag_60:\n      dup3\n      dup1\n      sload\n      tag_116\n      swap1\n      tag_71\n      jump\t// in\n    tag_116:\n      swap1\n      0x00\n      mstore\n      keccak256(0x00, 0x20)\n      swap1\n      0x1f\n      add\n      0x20\n      swap1\n      div\n      dup2\n      add\n      swap3\n      dup3\n      tag_118\n      jumpi\n      0x00\n      dup6\n      sstore\n      jump(tag_117)\n    tag_118:\n      dup3\n      0x1f\n      lt\n      tag_119\n      jumpi\n      dup1\n      mload\n      not(0xff)\n      and\n      dup4\n      dup1\n      add\n      or\n      dup6\n      sstore\n      jump(tag_117)\n    tag_119:\n      dup3\n      dup1\n      add\n      0x01\n      add\n      dup6\n      sstore\n      dup3\n      iszero\n      tag_117\n      jumpi\n      swap2\n      dup3\n      add\n    tag_120:\n      dup3\n      dup2\n      gt\n      iszero\n      tag_121\n      jumpi\n      dup3\n      mload\n      dup3\n      sstore\n      swap2\n      0x20\n      add\n      swap2\n      swap1\n      0x01\n      add\n      swap1\n      jump(tag_120)\n    tag_121:\n    tag_117:\n      pop\n      swap1\n      pop\n      tag_122\n      swap2\n      swap1\n      tag_123\n      jump\t// in\n    tag_122:\n      pop\n      swap1\n      jump\t// out\n    tag_123:\n    tag_124:\n      dup1\n      dup3\n      gt\n      iszero\n      tag_125\n      jumpi\n      0x00\n      dup2\n      0x00\n      swap1\n      sstore\n      pop\n      0x01\n      add\n      jump(tag_124)\n    tag_125:\n      pop\n      swap1\n      jump\t// out\n        /* \"#utility.yul\":7:419   */\n    tag_127:\n        /* \"#utility.yul\":85:90   */\n      0x00\n        /* \"#utility.yul\":110:176   */\n      tag_129\n        /* \"#utility.yul\":126:175   */\n      tag_130\n        /* \"#utility.yul\":168:174   */\n      dup5\n        /* \"#utility.yul\":126:175   */\n      tag_131\n      jump\t// in\n    tag_130:\n        /* \"#utility.yul\":110:176   */\n      tag_132\n      jump\t// in\n    tag_129:\n        /* \"#utility.yul\":101:176   */\n      swap1\n      pop\n        /* \"#utility.yul\":199:205   */\n      dup3\n        /* \"#utility.yul\":192:197   */\n      dup2\n        /* \"#utility.yul\":185:206   */\n      mstore\n        /* \"#utility.yul\":237:241   */\n      0x20\n        /* \"#utility.yul\":230:235   */\n      dup2\n        /* \"#utility.yul\":226:242   */\n      add\n        /* \"#utility.yul\":275:278   */\n      dup5\n        /* \"#utility.yul\":266:272   */\n      dup5\n        /* \"#utility.yul\":261:264   */\n      dup5\n        /* \"#utility.yul\":257:273   */\n      add\n        /* \"#utility.yul\":254:279   */\n      gt\n        /* \"#utility.yul\":251:363   */\n      iszero\n      tag_133\n      jumpi\n        /* \"#utility.yul\":282:361   */\n      tag_134\n      tag_135\n      jump\t// in\n    tag_134:\n        /* \"#utility.yul\":251:363   */\n    tag_133:\n        /* \"#utility.yul\":372:413   */\n      tag_136\n        /* \"#utility.yul\":406:412   */\n      dup5\n        /* \"#utility.yul\":401:404   */\n      dup3\n        /* \"#utility.yul\":396:399   */\n      dup6\n        /* \"#utility.yul\":372:413   */\n      tag_137\n      jump\t// in\n    tag_136:\n        /* \"#utility.yul\":91:419   */\n      pop\n        /* \"#utility.yul\":7:419   */\n      swap4\n      swap3\n      pop\n      pop\n      pop\n      jump\t// out\n        /* \"#utility.yul\":425:564   */\n    tag_138:\n        /* \"#utility.yul\":471:476   */\n      0x00\n        /* \"#utility.yul\":509:515   */\n      dup2\n        /* \"#utility.yul\":496:516   */\n      calldataload\n        /* \"#utility.yul\":487:516   */\n      swap1\n      pop\n        /* \"#utility.yul\":525:558   */\n      tag_140\n        /* \"#utility.yul\":552:557   */\n      dup2\n        /* \"#utility.yul\":525:558   */\n      tag_141\n      jump\t// in\n    tag_140:\n        /* \"#utility.yul\":425:564   */\n      swap3\n      swap2\n      pop\n      pop\n      jump\t// out\n        /* \"#utility.yul\":584:924   */\n    tag_142:\n        /* \"#utility.yul\":640:645   */\n      0x00\n        /* \"#utility.yul\":689:692   */\n      dup3\n        /* \"#utility.yul\":682:686   */\n      0x1f\n        /* \"#utility.yul\":674:680   */\n      dup4\n        /* \"#utility.yul\":670:687   */\n      add\n        /* \"#utility.yul\":666:693   */\n      slt\n        /* \"#utility.yul\":656:778   */\n      tag_144\n      jumpi\n        /* \"#utility.yul\":697:776   */\n      tag_145\n      tag_146\n      jump\t// in\n    tag_145:\n        /* \"#utility.yul\":656:778   */\n    tag_144:\n        /* \"#utility.yul\":814:820   */\n      dup2\n        /* \"#utility.yul\":801:821   */\n      calldataload\n        /* \"#utility.yul\":839:918   */\n      tag_147\n        /* \"#utility.yul\":914:917   */\n      dup5\n        /* \"#utility.yul\":906:912   */\n      dup3\n        /* \"#utility.yul\":899:903   */\n      0x20\n        /* \"#utility.yul\":891:897   */\n      dup7\n        /* \"#utility.yul\":887:904   */\n      add\n        /* \"#utility.yul\":839:918   */\n      tag_127\n      jump\t// in\n    tag_147:\n        /* \"#utility.yul\":830:918   */\n      swap2\n      pop\n        /* \"#utility.yul\":646:924   */\n      pop\n        /* \"#utility.yul\":584:924   */\n      swap3\n      swap2\n      pop\n      pop\n      jump\t// out\n        /* \"#utility.yul\":930:1069   */\n    tag_148:\n        /* \"#utility.yul\":976:981   */\n      0x00\n        /* \"#utility.yul\":1014:1020   */\n      dup2\n        /* \"#utility.yul\":1001:1021   */\n      calldataload\n        /* \"#utility.yul\":992:1021   */\n      swap1\n      pop\n        /* \"#utility.yul\":1030:1063   */\n      tag_150\n        /* \"#utility.yul\":1057:1062   */\n      dup2\n        /* \"#utility.yul\":1030:1063   */\n      tag_151\n      jump\t// in\n    tag_150:\n        /* \"#utility.yul\":930:1069   */\n      swap3\n      swap2\n      pop\n      pop\n      jump\t// out\n        /* \"#utility.yul\":1075:1404   */\n    tag_11:\n        /* \"#utility.yul\":1134:1140   */\n      0x00\n        /* \"#utility.yul\":1183:1185   */\n      0x20\n        /* \"#utility.yul\":1171:1180   */\n      dup3\n        /* \"#utility.yul\":1162:1169   */\n      dup5\n        /* \"#utility.yul\":1158:1181   */\n      sub\n        /* \"#utility.yul\":1154:1186   */\n      slt\n        /* \"#utility.yul\":1151:1270   */\n      iszero\n      tag_153\n      jumpi\n        /* \"#utility.yul\":1189:1268   */\n      tag_154\n      tag_155\n      jump\t// in\n    tag_154:\n        /* \"#utility.yul\":1151:1270   */\n    tag_153:\n        /* \"#utility.yul\":1309:1310   */\n      0x00\n        /* \"#utility.yul\":1334:1387   */\n      tag_156\n        /* \"#utility.yul\":1379:1386   */\n      dup5\n        /* \"#utility.yul\":1370:1376   */\n      dup3\n        /* \"#utility.yul\":1359:1368   */\n      dup6\n        /* \"#utility.yul\":1355:1377   */\n      add\n        /* \"#utility.yul\":1334:1387   */\n      tag_148\n      jump\t// in\n    tag_156:\n        /* \"#utility.yul\":1324:1387   */\n      swap2\n      pop\n        /* \"#utility.yul\":1280:1397   */\n      pop\n        /* \"#utility.yul\":1075:1404   */\n      swap3\n      swap2\n      pop\n      pop\n      jump\t// out\n        /* \"#utility.yul\":1410:2355   */\n    tag_21:\n        /* \"#utility.yul\":1506:1512   */\n      0x00\n        /* \"#utility.yul\":1514:1520   */\n      dup1\n        /* \"#utility.yul\":1522:1528   */\n      0x00\n        /* \"#utility.yul\":1530:1536   */\n      dup1\n        /* \"#utility.yul\":1579:1582   */\n      0x80\n        /* \"#utility.yul\":1567:1576   */\n      dup6\n        /* \"#utility.yul\":1558:1565   */\n      dup8\n        /* \"#utility.yul\":1554:1577   */\n      sub\n        /* \"#utility.yul\":1550:1583   */\n      slt\n        /* \"#utility.yul\":1547:1667   */\n      iszero\n      tag_158\n      jumpi\n        /* \"#utility.yul\":1586:1665   */\n      tag_159\n      tag_155\n      jump\t// in\n    tag_159:\n        /* \"#utility.yul\":1547:1667   */\n    tag_158:\n        /* \"#utility.yul\":1706:1707   */\n      0x00\n        /* \"#utility.yul\":1731:1784   */\n      tag_160\n        /* \"#utility.yul\":1776:1783   */\n      dup8\n        /* \"#utility.yul\":1767:1773   */\n      dup3\n        /* \"#utility.yul\":1756:1765   */\n      dup9\n        /* \"#utility.yul\":1752:1774   */\n      add\n        /* \"#utility.yul\":1731:1784   */\n      tag_148\n      jump\t// in\n    tag_160:\n        /* \"#utility.yul\":1721:1784   */\n      swap5\n      pop\n        /* \"#utility.yul\":1677:1794   */\n      pop\n        /* \"#utility.yul\":1833:1835   */\n      0x20\n        /* \"#utility.yul\":1859:1912   */\n      tag_161\n        /* \"#utility.yul\":1904:1911   */\n      dup8\n        /* \"#utility.yul\":1895:1901   */\n      dup3\n        /* \"#utility.yul\":1884:1893   */\n      dup9\n        /* \"#utility.yul\":1880:1902   */\n      add\n        /* \"#utility.yul\":1859:1912   */\n      tag_148\n      jump\t// in\n    tag_161:\n        /* \"#utility.yul\":1849:1912   */\n      swap4\n      pop\n        /* \"#utility.yul\":1804:1922   */\n      pop\n        /* \"#utility.yul\":1961:1963   */\n      0x40\n        /* \"#utility.yul\":1987:2040   */\n      tag_162\n        /* \"#utility.yul\":2032:2039   */\n      dup8\n        /* \"#utility.yul\":2023:2029   */\n      dup3\n        /* \"#utility.yul\":2012:2021   */\n      dup9\n        /* \"#utility.yul\":2008:2030   */\n      add\n        /* \"#utility.yul\":1987:2040   */\n      tag_138\n      jump\t// in\n    tag_162:\n        /* \"#utility.yul\":1977:2040   */\n      swap3\n      pop\n        /* \"#utility.yul\":1932:2050   */\n      pop\n        /* \"#utility.yul\":2117:2119   */\n      0x60\n        /* \"#utility.yul\":2106:2115   */\n      dup6\n        /* \"#utility.yul\":2102:2120   */\n      add\n        /* \"#utility.yul\":2089:2121   */\n      calldataload\n        /* \"#utility.yul\":2148:2166   */\n      0xffffffffffffffff\n        /* \"#utility.yul\":2140:2146   */\n      dup2\n        /* \"#utility.yul\":2137:2167   */\n      gt\n        /* \"#utility.yul\":2134:2251   */\n      iszero\n      tag_163\n      jumpi\n        /* \"#utility.yul\":2170:2249   */\n      tag_164\n      tag_165\n      jump\t// in\n    tag_164:\n        /* \"#utility.yul\":2134:2251   */\n    tag_163:\n        /* \"#utility.yul\":2275:2338   */\n      tag_166\n        /* \"#utility.yul\":2330:2337   */\n      dup8\n        /* \"#utility.yul\":2321:2327   */\n      dup3\n        /* \"#utility.yul\":2310:2319   */\n      dup9\n        /* \"#utility.yul\":2306:2328   */\n      add\n        /* \"#utility.yul\":2275:2338   */\n      tag_142\n      jump\t// in\n    tag_166:\n        /* \"#utility.yul\":2265:2338   */\n      swap2\n      pop\n        /* \"#utility.yul\":2060:2348   */\n      pop\n        /* \"#utility.yul\":1410:2355   */\n      swap3\n      swap6\n      swap2\n      swap5\n      pop\n      swap3\n      pop\n      jump\t// out\n        /* \"#utility.yul\":2361:3160   */\n    tag_34:\n        /* \"#utility.yul\":2448:2454   */\n      0x00\n        /* \"#utility.yul\":2456:2462   */\n      dup1\n        /* \"#utility.yul\":2464:2470   */\n      0x00\n        /* \"#utility.yul\":2513:2515   */\n      0x60\n        /* \"#utility.yul\":2501:2510   */\n      dup5\n        /* \"#utility.yul\":2492:2499   */\n      dup7\n        /* \"#utility.yul\":2488:2511   */\n      sub\n        /* \"#utility.yul\":2484:2516   */\n      slt\n        /* \"#utility.yul\":2481:2600   */\n      iszero\n      tag_168\n      jumpi\n        /* \"#utility.yul\":2519:2598   */\n      tag_169\n      tag_155\n      jump\t// in\n    tag_169:\n        /* \"#utility.yul\":2481:2600   */\n    tag_168:\n        /* \"#utility.yul\":2639:2640   */\n      0x00\n        /* \"#utility.yul\":2664:2717   */\n      tag_170\n        /* \"#utility.yul\":2709:2716   */\n      dup7\n        /* \"#utility.yul\":2700:2706   */\n      dup3\n        /* \"#utility.yul\":2689:2698   */\n      dup8\n        /* \"#utility.yul\":2685:2707   */\n      add\n        /* \"#utility.yul\":2664:2717   */\n      tag_148\n      jump\t// in\n    tag_170:\n        /* \"#utility.yul\":2654:2717   */\n      swap4\n      pop\n        /* \"#utility.yul\":2610:2727   */\n      pop\n        /* \"#utility.yul\":2766:2768   */\n      0x20\n        /* \"#utility.yul\":2792:2845   */\n      tag_171\n        /* \"#utility.yul\":2837:2844   */\n      dup7\n        /* \"#utility.yul\":2828:2834   */\n      dup3\n        /* \"#utility.yul\":2817:2826   */\n      dup8\n        /* \"#utility.yul\":2813:2835   */\n      add\n        /* \"#utility.yul\":2792:2845   */\n      tag_148\n      jump\t// in\n    tag_171:\n        /* \"#utility.yul\":2782:2845   */\n      swap3\n      pop\n        /* \"#utility.yul\":2737:2855   */\n      pop\n        /* \"#utility.yul\":2922:2924   */\n      0x40\n        /* \"#utility.yul\":2911:2920   */\n      dup5\n        /* \"#utility.yul\":2907:2925   */\n      add\n        /* \"#utility.yul\":2894:2926   */\n      calldataload\n        /* \"#utility.yul\":2953:2971   */\n      0xffffffffffffffff\n        /* \"#utility.yul\":2945:2951   */\n      dup2\n        /* \"#utility.yul\":2942:2972   */\n      gt\n        /* \"#utility.yul\":2939:3056   */\n      iszero\n      tag_172\n      jumpi\n        /* \"#utility.yul\":2975:3054   */\n      tag_173\n      tag_165\n      jump\t// in\n    tag_173:\n        /* \"#utility.yul\":2939:3056   */\n    tag_172:\n        /* \"#utility.yul\":3080:3143   */\n      tag_174\n        /* \"#utility.yul\":3135:3142   */\n      dup7\n        /* \"#utility.yul\":3126:3132   */\n      dup3\n        /* \"#utility.yul\":3115:3124   */\n      dup8\n        /* \"#utility.yul\":3111:3133   */\n      add\n        /* \"#utility.yul\":3080:3143   */\n      tag_142\n      jump\t// in\n    tag_174:\n        /* \"#utility.yul\":3070:3143   */\n      swap2\n      pop\n        /* \"#utility.yul\":2865:3153   */\n      pop\n        /* \"#utility.yul\":2361:3160   */\n      swap3\n      pop\n      swap3\n      pop\n      swap3\n      jump\t// out\n        /* \"#utility.yul\":3166:3345   */\n    tag_175:\n        /* \"#utility.yul\":3235:3245   */\n      0x00\n        /* \"#utility.yul\":3256:3302   */\n      tag_177\n        /* \"#utility.yul\":3298:3301   */\n      dup4\n        /* \"#utility.yul\":3290:3296   */\n      dup4\n        /* \"#utility.yul\":3256:3302   */\n      tag_178\n      jump\t// in\n    tag_177:\n        /* \"#utility.yul\":3334:3338   */\n      0x20\n        /* \"#utility.yul\":3329:3332   */\n      dup4\n        /* \"#utility.yul\":3325:3339   */\n      add\n        /* \"#utility.yul\":3311:3339   */\n      swap1\n      pop\n        /* \"#utility.yul\":3166:3345   */\n      swap3\n      swap2\n      pop\n      pop\n      jump\t// out\n        /* \"#utility.yul\":3351:3469   */\n    tag_179:\n        /* \"#utility.yul\":3438:3462   */\n      tag_181\n        /* \"#utility.yul\":3456:3461   */\n      dup2\n        /* \"#utility.yul\":3438:3462   */\n      tag_182\n      jump\t// in\n    tag_181:\n        /* \"#utility.yul\":3433:3436   */\n      dup3\n        /* \"#utility.yul\":3426:3463   */\n      mstore\n        /* \"#utility.yul\":3351:3469   */\n      pop\n      pop\n      jump\t// out\n        /* \"#utility.yul\":3475:3632   */\n    tag_183:\n        /* \"#utility.yul\":3580:3625   */\n      tag_185\n        /* \"#utility.yul\":3600:3624   */\n      tag_186\n        /* \"#utility.yul\":3618:3623   */\n      dup3\n        /* \"#utility.yul\":3600:3624   */\n      tag_182\n      jump\t// in\n    tag_186:\n        /* \"#utility.yul\":3580:3625   */\n      tag_187\n      jump\t// in\n    tag_185:\n        /* \"#utility.yul\":3575:3578   */\n      dup3\n        /* \"#utility.yul\":3568:3626   */\n      mstore\n        /* \"#utility.yul\":3475:3632   */\n      pop\n      pop\n      jump\t// out\n        /* \"#utility.yul\":3668:4400   */\n    tag_188:\n        /* \"#utility.yul\":3787:3790   */\n      0x00\n        /* \"#utility.yul\":3816:3870   */\n      tag_190\n        /* \"#utility.yul\":3864:3869   */\n      dup3\n        /* \"#utility.yul\":3816:3870   */\n      tag_191\n      jump\t// in\n    tag_190:\n        /* \"#utility.yul\":3886:3972   */\n      tag_192\n        /* \"#utility.yul\":3965:3971   */\n      dup2\n        /* \"#utility.yul\":3960:3963   */\n      dup6\n        /* \"#utility.yul\":3886:3972   */\n      tag_193\n      jump\t// in\n    tag_192:\n        /* \"#utility.yul\":3879:3972   */\n      swap4\n      pop\n        /* \"#utility.yul\":3996:4052   */\n      tag_194\n        /* \"#utility.yul\":4046:4051   */\n      dup4\n        /* \"#utility.yul\":3996:4052   */\n      tag_195\n      jump\t// in\n    tag_194:\n        /* \"#utility.yul\":4075:4082   */\n      dup1\n        /* \"#utility.yul\":4106:4107   */\n      0x00\n        /* \"#utility.yul\":4091:4375   */\n    tag_196:\n        /* \"#utility.yul\":4116:4122   */\n      dup4\n        /* \"#utility.yul\":4113:4114   */\n      dup2\n        /* \"#utility.yul\":4110:4123   */\n      lt\n        /* \"#utility.yul\":4091:4375   */\n      iszero\n      tag_198\n      jumpi\n        /* \"#utility.yul\":4192:4198   */\n      dup2\n        /* \"#utility.yul\":4186:4199   */\n      mload\n        /* \"#utility.yul\":4219:4282   */\n      tag_199\n        /* \"#utility.yul\":4278:4281   */\n      dup9\n        /* \"#utility.yul\":4263:4276   */\n      dup3\n        /* \"#utility.yul\":4219:4282   */\n      tag_175\n      jump\t// in\n    tag_199:\n        /* \"#utility.yul\":4212:4282   */\n      swap8\n      pop\n        /* \"#utility.yul\":4305:4365   */\n      tag_200\n        /* \"#utility.yul\":4358:4364   */\n      dup4\n        /* \"#utility.yul\":4305:4365   */\n      tag_201\n      jump\t// in\n    tag_200:\n        /* \"#utility.yul\":4295:4365   */\n      swap3\n      pop\n        /* \"#utility.yul\":4151:4375   */\n      pop\n        /* \"#utility.yul\":4138:4139   */\n      0x01\n        /* \"#utility.yul\":4135:4136   */\n      dup2\n        /* \"#utility.yul\":4131:4140   */\n      add\n        /* \"#utility.yul\":4126:4140   */\n      swap1\n      pop\n        /* \"#utility.yul\":4091:4375   */\n      jump(tag_196)\n    tag_198:\n        /* \"#utility.yul\":4095:4109   */\n      pop\n        /* \"#utility.yul\":4391:4394   */\n      dup6\n        /* \"#utility.yul\":4384:4394   */\n      swap4\n      pop\n        /* \"#utility.yul\":3792:4400   */\n      pop\n      pop\n      pop\n        /* \"#utility.yul\":3668:4400   */\n      swap3\n      swap2\n      pop\n      pop\n      jump\t// out\n        /* \"#utility.yul\":4406:4515   */\n    tag_202:\n        /* \"#utility.yul\":4487:4508   */\n      tag_204\n        /* \"#utility.yul\":4502:4507   */\n      dup2\n        /* \"#utility.yul\":4487:4508   */\n      tag_205\n      jump\t// in\n    tag_204:\n        /* \"#utility.yul\":4482:4485   */\n      dup3\n        /* \"#utility.yul\":4475:4509   */\n      mstore\n        /* \"#utility.yul\":4406:4515   */\n      pop\n      pop\n      jump\t// out\n        /* \"#utility.yul\":4521:4885   */\n    tag_206:\n        /* \"#utility.yul\":4609:4612   */\n      0x00\n        /* \"#utility.yul\":4637:4676   */\n      tag_208\n        /* \"#utility.yul\":4670:4675   */\n      dup3\n        /* \"#utility.yul\":4637:4676   */\n      tag_209\n      jump\t// in\n    tag_208:\n        /* \"#utility.yul\":4692:4763   */\n      tag_210\n        /* \"#utility.yul\":4756:4762   */\n      dup2\n        /* \"#utility.yul\":4751:4754   */\n      dup6\n        /* \"#utility.yul\":4692:4763   */\n      tag_211\n      jump\t// in\n    tag_210:\n        /* \"#utility.yul\":4685:4763   */\n      swap4\n      pop\n        /* \"#utility.yul\":4772:4824   */\n      tag_212\n        /* \"#utility.yul\":4817:4823   */\n      dup2\n        /* \"#utility.yul\":4812:4815   */\n      dup6\n        /* \"#utility.yul\":4805:4809   */\n      0x20\n        /* \"#utility.yul\":4798:4803   */\n      dup7\n        /* \"#utility.yul\":4794:4810   */\n      add\n        /* \"#utility.yul\":4772:4824   */\n      tag_213\n      jump\t// in\n    tag_212:\n        /* \"#utility.yul\":4849:4878   */\n      tag_214\n        /* \"#utility.yul\":4871:4877   */\n      dup2\n        /* \"#utility.yul\":4849:4878   */\n      tag_215\n      jump\t// in\n    tag_214:\n        /* \"#utility.yul\":4844:4847   */\n      dup5\n        /* \"#utility.yul\":4840:4879   */\n      add\n        /* \"#utility.yul\":4833:4879   */\n      swap2\n      pop\n        /* \"#utility.yul\":4613:4885   */\n      pop\n        /* \"#utility.yul\":4521:4885   */\n      swap3\n      swap2\n      pop\n      pop\n      jump\t// out\n        /* \"#utility.yul\":4891:5268   */\n    tag_216:\n        /* \"#utility.yul\":4997:5000   */\n      0x00\n        /* \"#utility.yul\":5025:5064   */\n      tag_218\n        /* \"#utility.yul\":5058:5063   */\n      dup3\n        /* \"#utility.yul\":5025:5064   */\n      tag_209\n      jump\t// in\n    tag_218:\n        /* \"#utility.yul\":5080:5169   */\n      tag_219\n        /* \"#utility.yul\":5162:5168   */\n      dup2\n        /* \"#utility.yul\":5157:5160   */\n      dup6\n        /* \"#utility.yul\":5080:5169   */\n      tag_220\n      jump\t// in\n    tag_219:\n        /* \"#utility.yul\":5073:5169   */\n      swap4\n      pop\n        /* \"#utility.yul\":5178:5230   */\n      tag_221\n        /* \"#utility.yul\":5223:5229   */\n      dup2\n        /* \"#utility.yul\":5218:5221   */\n      dup6\n        /* \"#utility.yul\":5211:5215   */\n      0x20\n        /* \"#utility.yul\":5204:5209   */\n      dup7\n        /* \"#utility.yul\":5200:5216   */\n      add\n        /* \"#utility.yul\":5178:5230   */\n      tag_213\n      jump\t// in\n    tag_221:\n        /* \"#utility.yul\":5255:5261   */\n      dup1\n        /* \"#utility.yul\":5250:5253   */\n      dup5\n        /* \"#utility.yul\":5246:5262   */\n      add\n        /* \"#utility.yul\":5239:5262   */\n      swap2\n      pop\n        /* \"#utility.yul\":5001:5268   */\n      pop\n        /* \"#utility.yul\":4891:5268   */\n      swap3\n      swap2\n      pop\n      pop\n      jump\t// out\n        /* \"#utility.yul\":5274:5640   */\n    tag_222:\n        /* \"#utility.yul\":5416:5419   */\n      0x00\n        /* \"#utility.yul\":5437:5504   */\n      tag_224\n        /* \"#utility.yul\":5501:5503   */\n      0x14\n        /* \"#utility.yul\":5496:5499   */\n      dup4\n        /* \"#utility.yul\":5437:5504   */\n      tag_211\n      jump\t// in\n    tag_224:\n        /* \"#utility.yul\":5430:5504   */\n      swap2\n      pop\n        /* \"#utility.yul\":5513:5606   */\n      tag_225\n        /* \"#utility.yul\":5602:5605   */\n      dup3\n        /* \"#utility.yul\":5513:5606   */\n      tag_226\n      jump\t// in\n    tag_225:\n        /* \"#utility.yul\":5631:5633   */\n      0x20\n        /* \"#utility.yul\":5626:5629   */\n      dup3\n        /* \"#utility.yul\":5622:5634   */\n      add\n        /* \"#utility.yul\":5615:5634   */\n      swap1\n      pop\n        /* \"#utility.yul\":5274:5640   */\n      swap2\n      swap1\n      pop\n      jump\t// out\n        /* \"#utility.yul\":5646:6012   */\n    tag_227:\n        /* \"#utility.yul\":5788:5791   */\n      0x00\n        /* \"#utility.yul\":5809:5876   */\n      tag_229\n        /* \"#utility.yul\":5873:5875   */\n      0x23\n        /* \"#utility.yul\":5868:5871   */\n      dup4\n        /* \"#utility.yul\":5809:5876   */\n      tag_211\n      jump\t// in\n    tag_229:\n        /* \"#utility.yul\":5802:5876   */\n      swap2\n      pop\n        /* \"#utility.yul\":5885:5978   */\n      tag_230\n        /* \"#utility.yul\":5974:5977   */\n      dup3\n        /* \"#utility.yul\":5885:5978   */\n      tag_231\n      jump\t// in\n    tag_230:\n        /* \"#utility.yul\":6003:6005   */\n      0x40\n        /* \"#utility.yul\":5998:6001   */\n      dup3\n        /* \"#utility.yul\":5994:6006   */\n      add\n        /* \"#utility.yul\":5987:6006   */\n      swap1\n      pop\n        /* \"#utility.yul\":5646:6012   */\n      swap2\n      swap1\n      pop\n      jump\t// out\n        /* \"#utility.yul\":6018:6384   */\n    tag_232:\n        /* \"#utility.yul\":6160:6163   */\n      0x00\n        /* \"#utility.yul\":6181:6248   */\n      tag_234\n        /* \"#utility.yul\":6245:6247   */\n      0x1b\n        /* \"#utility.yul\":6240:6243   */\n      dup4\n        /* \"#utility.yul\":6181:6248   */\n      tag_211\n      jump\t// in\n    tag_234:\n        /* \"#utility.yul\":6174:6248   */\n      swap2\n      pop\n        /* \"#utility.yul\":6257:6350   */\n      tag_235\n        /* \"#utility.yul\":6346:6349   */\n      dup3\n        /* \"#utility.yul\":6257:6350   */\n      tag_236\n      jump\t// in\n    tag_235:\n        /* \"#utility.yul\":6375:6377   */\n      0x20\n        /* \"#utility.yul\":6370:6373   */\n      dup3\n        /* \"#utility.yul\":6366:6378   */\n      add\n        /* \"#utility.yul\":6359:6378   */\n      swap1\n      pop\n        /* \"#utility.yul\":6018:6384   */\n      swap2\n      swap1\n      pop\n      jump\t// out\n        /* \"#utility.yul\":6390:6756   */\n    tag_237:\n        /* \"#utility.yul\":6532:6535   */\n      0x00\n        /* \"#utility.yul\":6553:6620   */\n      tag_239\n        /* \"#utility.yul\":6617:6619   */\n      0x2b\n        /* \"#utility.yul\":6612:6615   */\n      dup4\n        /* \"#utility.yul\":6553:6620   */\n      tag_211\n      jump\t// in\n    tag_239:\n        /* \"#utility.yul\":6546:6620   */\n      swap2\n      pop\n        /* \"#utility.yul\":6629:6722   */\n      tag_240\n        /* \"#utility.yul\":6718:6721   */\n      dup3\n        /* \"#utility.yul\":6629:6722   */\n      tag_241\n      jump\t// in\n    tag_240:\n        /* \"#utility.yul\":6747:6749   */\n      0x40\n        /* \"#utility.yul\":6742:6745   */\n      dup3\n        /* \"#utility.yul\":6738:6750   */\n      add\n        /* \"#utility.yul\":6731:6750   */\n      swap1\n      pop\n        /* \"#utility.yul\":6390:6756   */\n      swap2\n      swap1\n      pop\n      jump\t// out\n        /* \"#utility.yul\":6762:6870   */\n    tag_178:\n        /* \"#utility.yul\":6839:6863   */\n      tag_243\n        /* \"#utility.yul\":6857:6862   */\n      dup2\n        /* \"#utility.yul\":6839:6863   */\n      tag_244\n      jump\t// in\n    tag_243:\n        /* \"#utility.yul\":6834:6837   */\n      dup3\n        /* \"#utility.yul\":6827:6864   */\n      mstore\n        /* \"#utility.yul\":6762:6870   */\n      pop\n      pop\n      jump\t// out\n        /* \"#utility.yul\":6876:6994   */\n    tag_245:\n        /* \"#utility.yul\":6963:6987   */\n      tag_247\n        /* \"#utility.yul\":6981:6986   */\n      dup2\n        /* \"#utility.yul\":6963:6987   */\n      tag_244\n      jump\t// in\n    tag_247:\n        /* \"#utility.yul\":6958:6961   */\n      dup3\n        /* \"#utility.yul\":6951:6988   */\n      mstore\n        /* \"#utility.yul\":6876:6994   */\n      pop\n      pop\n      jump\t// out\n        /* \"#utility.yul\":7000:7157   */\n    tag_248:\n        /* \"#utility.yul\":7105:7150   */\n      tag_250\n        /* \"#utility.yul\":7125:7149   */\n      tag_251\n        /* \"#utility.yul\":7143:7148   */\n      dup3\n        /* \"#utility.yul\":7125:7149   */\n      tag_244\n      jump\t// in\n    tag_251:\n        /* \"#utility.yul\":7105:7150   */\n      tag_252\n      jump\t// in\n    tag_250:\n        /* \"#utility.yul\":7100:7103   */\n      dup3\n        /* \"#utility.yul\":7093:7151   */\n      mstore\n        /* \"#utility.yul\":7000:7157   */\n      pop\n      pop\n      jump\t// out\n        /* \"#utility.yul\":7163:7720   */\n    tag_112:\n        /* \"#utility.yul\":7351:7354   */\n      0x00\n        /* \"#utility.yul\":7366:7441   */\n      tag_254\n        /* \"#utility.yul\":7437:7440   */\n      dup3\n        /* \"#utility.yul\":7428:7434   */\n      dup7\n        /* \"#utility.yul\":7366:7441   */\n      tag_183\n      jump\t// in\n    tag_254:\n        /* \"#utility.yul\":7466:7468   */\n      0x14\n        /* \"#utility.yul\":7461:7464   */\n      dup3\n        /* \"#utility.yul\":7457:7469   */\n      add\n        /* \"#utility.yul\":7450:7469   */\n      swap2\n      pop\n        /* \"#utility.yul\":7479:7554   */\n      tag_255\n        /* \"#utility.yul\":7550:7553   */\n      dup3\n        /* \"#utility.yul\":7541:7547   */\n      dup6\n        /* \"#utility.yul\":7479:7554   */\n      tag_248\n      jump\t// in\n    tag_255:\n        /* \"#utility.yul\":7579:7581   */\n      0x20\n        /* \"#utility.yul\":7574:7577   */\n      dup3\n        /* \"#utility.yul\":7570:7582   */\n      add\n        /* \"#utility.yul\":7563:7582   */\n      swap2\n      pop\n        /* \"#utility.yul\":7599:7694   */\n      tag_256\n        /* \"#utility.yul\":7690:7693   */\n      dup3\n        /* \"#utility.yul\":7681:7687   */\n      dup5\n        /* \"#utility.yul\":7599:7694   */\n      tag_216\n      jump\t// in\n    tag_256:\n        /* \"#utility.yul\":7592:7694   */\n      swap2\n      pop\n        /* \"#utility.yul\":7711:7714   */\n      dup2\n        /* \"#utility.yul\":7704:7714   */\n      swap1\n      pop\n        /* \"#utility.yul\":7163:7720   */\n      swap5\n      swap4\n      pop\n      pop\n      pop\n      pop\n      jump\t// out\n        /* \"#utility.yul\":7726:8099   */\n    tag_41:\n        /* \"#utility.yul\":7869:7873   */\n      0x00\n        /* \"#utility.yul\":7907:7909   */\n      0x20\n        /* \"#utility.yul\":7896:7905   */\n      dup3\n        /* \"#utility.yul\":7892:7910   */\n      add\n        /* \"#utility.yul\":7884:7910   */\n      swap1\n      pop\n        /* \"#utility.yul\":7956:7965   */\n      dup2\n        /* \"#utility.yul\":7950:7954   */\n      dup2\n        /* \"#utility.yul\":7946:7966   */\n      sub\n        /* \"#utility.yul\":7942:7943   */\n      0x00\n        /* \"#utility.yul\":7931:7940   */\n      dup4\n        /* \"#utility.yul\":7927:7944   */\n      add\n        /* \"#utility.yul\":7920:7967   */\n      mstore\n        /* \"#utility.yul\":7984:8092   */\n      tag_258\n        /* \"#utility.yul\":8087:8091   */\n      dup2\n        /* \"#utility.yul\":8078:8084   */\n      dup5\n        /* \"#utility.yul\":7984:8092   */\n      tag_188\n      jump\t// in\n    tag_258:\n        /* \"#utility.yul\":7976:8092   */\n      swap1\n      pop\n        /* \"#utility.yul\":7726:8099   */\n      swap3\n      swap2\n      pop\n      pop\n      jump\t// out\n        /* \"#utility.yul\":8105:8418   */\n    tag_14:\n        /* \"#utility.yul\":8218:8222   */\n      0x00\n        /* \"#utility.yul\":8256:8258   */\n      0x20\n        /* \"#utility.yul\":8245:8254   */\n      dup3\n        /* \"#utility.yul\":8241:8259   */\n      add\n        /* \"#utility.yul\":8233:8259   */\n      swap1\n      pop\n        /* \"#utility.yul\":8305:8314   */\n      dup2\n        /* \"#utility.yul\":8299:8303   */\n      dup2\n        /* \"#utility.yul\":8295:8315   */\n      sub\n        /* \"#utility.yul\":8291:8292   */\n      0x00\n        /* \"#utility.yul\":8280:8289   */\n      dup4\n        /* \"#utility.yul\":8276:8293   */\n      add\n        /* \"#utility.yul\":8269:8316   */\n      mstore\n        /* \"#utility.yul\":8333:8411   */\n      tag_260\n        /* \"#utility.yul\":8406:8410   */\n      dup2\n        /* \"#utility.yul\":8397:8403   */\n      dup5\n        /* \"#utility.yul\":8333:8411   */\n      tag_206\n      jump\t// in\n    tag_260:\n        /* \"#utility.yul\":8325:8411   */\n      swap1\n      pop\n        /* \"#utility.yul\":8105:8418   */\n      swap3\n      swap2\n      pop\n      pop\n      jump\t// out\n        /* \"#utility.yul\":8424:8843   */\n    tag_53:\n        /* \"#utility.yul\":8590:8594   */\n      0x00\n        /* \"#utility.yul\":8628:8630   */\n      0x20\n        /* \"#utility.yul\":8617:8626   */\n      dup3\n        /* \"#utility.yul\":8613:8631   */\n      add\n        /* \"#utility.yul\":8605:8631   */\n      swap1\n      pop\n        /* \"#utility.yul\":8677:8686   */\n      dup2\n        /* \"#utility.yul\":8671:8675   */\n      dup2\n        /* \"#utility.yul\":8667:8687   */\n      sub\n        /* \"#utility.yul\":8663:8664   */\n      0x00\n        /* \"#utility.yul\":8652:8661   */\n      dup4\n        /* \"#utility.yul\":8648:8665   */\n      add\n        /* \"#utility.yul\":8641:8688   */\n      mstore\n        /* \"#utility.yul\":8705:8836   */\n      tag_262\n        /* \"#utility.yul\":8831:8835   */\n      dup2\n        /* \"#utility.yul\":8705:8836   */\n      tag_222\n      jump\t// in\n    tag_262:\n        /* \"#utility.yul\":8697:8836   */\n      swap1\n      pop\n        /* \"#utility.yul\":8424:8843   */\n      swap2\n      swap1\n      pop\n      jump\t// out\n        /* \"#utility.yul\":8849:9268   */\n    tag_79:\n        /* \"#utility.yul\":9015:9019   */\n      0x00\n        /* \"#utility.yul\":9053:9055   */\n      0x20\n        /* \"#utility.yul\":9042:9051   */\n      dup3\n        /* \"#utility.yul\":9038:9056   */\n      add\n        /* \"#utility.yul\":9030:9056   */\n      swap1\n      pop\n        /* \"#utility.yul\":9102:9111   */\n      dup2\n        /* \"#utility.yul\":9096:9100   */\n      dup2\n        /* \"#utility.yul\":9092:9112   */\n      sub\n        /* \"#utility.yul\":9088:9089   */\n      0x00\n        /* \"#utility.yul\":9077:9086   */\n      dup4\n        /* \"#utility.yul\":9073:9090   */\n      add\n        /* \"#utility.yul\":9066:9113   */\n      mstore\n        /* \"#utility.yul\":9130:9261   */\n      tag_264\n        /* \"#utility.yul\":9256:9260   */\n      dup2\n        /* \"#utility.yul\":9130:9261   */\n      tag_227\n      jump\t// in\n    tag_264:\n        /* \"#utility.yul\":9122:9261   */\n      swap1\n      pop\n        /* \"#utility.yul\":8849:9268   */\n      swap2\n      swap1\n      pop\n      jump\t// out\n        /* \"#utility.yul\":9274:9693   */\n    tag_58:\n        /* \"#utility.yul\":9440:9444   */\n      0x00\n        /* \"#utility.yul\":9478:9480   */\n      0x20\n        /* \"#utility.yul\":9467:9476   */\n      dup3\n        /* \"#utility.yul\":9463:9481   */\n      add\n        /* \"#utility.yul\":9455:9481   */\n      swap1\n      pop\n        /* \"#utility.yul\":9527:9536   */\n      dup2\n        /* \"#utility.yul\":9521:9525   */\n      dup2\n        /* \"#utility.yul\":9517:9537   */\n      sub\n        /* \"#utility.yul\":9513:9514   */\n      0x00\n        /* \"#utility.yul\":9502:9511   */\n      dup4\n        /* \"#utility.yul\":9498:9515   */\n      add\n        /* \"#utility.yul\":9491:9538   */\n      mstore\n        /* \"#utility.yul\":9555:9686   */\n      tag_266\n        /* \"#utility.yul\":9681:9685   */\n      dup2\n        /* \"#utility.yul\":9555:9686   */\n      tag_232\n      jump\t// in\n    tag_266:\n        /* \"#utility.yul\":9547:9686   */\n      swap1\n      pop\n        /* \"#utility.yul\":9274:9693   */\n      swap2\n      swap1\n      pop\n      jump\t// out\n        /* \"#utility.yul\":9699:10118   */\n    tag_45:\n        /* \"#utility.yul\":9865:9869   */\n      0x00\n        /* \"#utility.yul\":9903:9905   */\n      0x20\n        /* \"#utility.yul\":9892:9901   */\n      dup3\n        /* \"#utility.yul\":9888:9906   */\n      add\n        /* \"#utility.yul\":9880:9906   */\n      swap1\n      pop\n        /* \"#utility.yul\":9952:9961   */\n      dup2\n        /* \"#utility.yul\":9946:9950   */\n      dup2\n        /* \"#utility.yul\":9942:9962   */\n      sub\n        /* \"#utility.yul\":9938:9939   */\n      0x00\n        /* \"#utility.yul\":9927:9936   */\n      dup4\n        /* \"#utility.yul\":9923:9940   */\n      add\n        /* \"#utility.yul\":9916:9963   */\n      mstore\n        /* \"#utility.yul\":9980:10111   */\n      tag_268\n        /* \"#utility.yul\":10106:10110   */\n      dup2\n        /* \"#utility.yul\":9980:10111   */\n      tag_237\n      jump\t// in\n    tag_268:\n        /* \"#utility.yul\":9972:10111   */\n      swap1\n      pop\n        /* \"#utility.yul\":9699:10118   */\n      swap2\n      swap1\n      pop\n      jump\t// out\n        /* \"#utility.yul\":10124:10346   */\n    tag_24:\n        /* \"#utility.yul\":10217:10221   */\n      0x00\n        /* \"#utility.yul\":10255:10257   */\n      0x20\n        /* \"#utility.yul\":10244:10253   */\n      dup3\n        /* \"#utility.yul\":10240:10258   */\n      add\n        /* \"#utility.yul\":10232:10258   */\n      swap1\n      pop\n        /* \"#utility.yul\":10268:10339   */\n      tag_270\n        /* \"#utility.yul\":10336:10337   */\n      0x00\n        /* \"#utility.yul\":10325:10334   */\n      dup4\n        /* \"#utility.yul\":10321:10338   */\n      add\n        /* \"#utility.yul\":10312:10318   */\n      dup5\n        /* \"#utility.yul\":10268:10339   */\n      tag_245\n      jump\t// in\n    tag_270:\n        /* \"#utility.yul\":10124:10346   */\n      swap3\n      swap2\n      pop\n      pop\n      jump\t// out\n        /* \"#utility.yul\":10352:10996   */\n    tag_69:\n        /* \"#utility.yul\":10549:10553   */\n      0x00\n        /* \"#utility.yul\":10587:10590   */\n      0x80\n        /* \"#utility.yul\":10576:10585   */\n      dup3\n        /* \"#utility.yul\":10572:10591   */\n      add\n        /* \"#utility.yul\":10564:10591   */\n      swap1\n      pop\n        /* \"#utility.yul\":10601:10672   */\n      tag_272\n        /* \"#utility.yul\":10669:10670   */\n      0x00\n        /* \"#utility.yul\":10658:10667   */\n      dup4\n        /* \"#utility.yul\":10654:10671   */\n      add\n        /* \"#utility.yul\":10645:10651   */\n      dup8\n        /* \"#utility.yul\":10601:10672   */\n      tag_245\n      jump\t// in\n    tag_272:\n        /* \"#utility.yul\":10682:10754   */\n      tag_273\n        /* \"#utility.yul\":10750:10752   */\n      0x20\n        /* \"#utility.yul\":10739:10748   */\n      dup4\n        /* \"#utility.yul\":10735:10753   */\n      add\n        /* \"#utility.yul\":10726:10732   */\n      dup7\n        /* \"#utility.yul\":10682:10754   */\n      tag_179\n      jump\t// in\n    tag_273:\n        /* \"#utility.yul\":10764:10836   */\n      tag_274\n        /* \"#utility.yul\":10832:10834   */\n      0x40\n        /* \"#utility.yul\":10821:10830   */\n      dup4\n        /* \"#utility.yul\":10817:10835   */\n      add\n        /* \"#utility.yul\":10808:10814   */\n      dup6\n        /* \"#utility.yul\":10764:10836   */\n      tag_245\n      jump\t// in\n    tag_274:\n        /* \"#utility.yul\":10883:10892   */\n      dup2\n        /* \"#utility.yul\":10877:10881   */\n      dup2\n        /* \"#utility.yul\":10873:10893   */\n      sub\n        /* \"#utility.yul\":10868:10870   */\n      0x60\n        /* \"#utility.yul\":10857:10866   */\n      dup4\n        /* \"#utility.yul\":10853:10871   */\n      add\n        /* \"#utility.yul\":10846:10894   */\n      mstore\n        /* \"#utility.yul\":10911:10989   */\n      tag_275\n        /* \"#utility.yul\":10984:10988   */\n      dup2\n        /* \"#utility.yul\":10975:10981   */\n      dup5\n        /* \"#utility.yul\":10911:10989   */\n      tag_206\n      jump\t// in\n    tag_275:\n        /* \"#utility.yul\":10903:10989   */\n      swap1\n      pop\n        /* \"#utility.yul\":10352:10996   */\n      swap6\n      swap5\n      pop\n      pop\n      pop\n      pop\n      pop\n      jump\t// out\n        /* \"#utility.yul\":11002:12078   */\n    tag_30:\n        /* \"#utility.yul\":11305:11309   */\n      0x00\n        /* \"#utility.yul\":11343:11346   */\n      0x0100\n        /* \"#utility.yul\":11332:11341   */\n      dup3\n        /* \"#utility.yul\":11328:11347   */\n      add\n        /* \"#utility.yul\":11320:11347   */\n      swap1\n      pop\n        /* \"#utility.yul\":11357:11428   */\n      tag_277\n        /* \"#utility.yul\":11425:11426   */\n      0x00\n        /* \"#utility.yul\":11414:11423   */\n      dup4\n        /* \"#utility.yul\":11410:11427   */\n      add\n        /* \"#utility.yul\":11401:11407   */\n      dup12\n        /* \"#utility.yul\":11357:11428   */\n      tag_245\n      jump\t// in\n    tag_277:\n        /* \"#utility.yul\":11438:11510   */\n      tag_278\n        /* \"#utility.yul\":11506:11508   */\n      0x20\n        /* \"#utility.yul\":11495:11504   */\n      dup4\n        /* \"#utility.yul\":11491:11509   */\n      add\n        /* \"#utility.yul\":11482:11488   */\n      dup11\n        /* \"#utility.yul\":11438:11510   */\n      tag_245\n      jump\t// in\n    tag_278:\n        /* \"#utility.yul\":11520:11592   */\n      tag_279\n        /* \"#utility.yul\":11588:11590   */\n      0x40\n        /* \"#utility.yul\":11577:11586   */\n      dup4\n        /* \"#utility.yul\":11573:11591   */\n      add\n        /* \"#utility.yul\":11564:11570   */\n      dup10\n        /* \"#utility.yul\":11520:11592   */\n      tag_245\n      jump\t// in\n    tag_279:\n        /* \"#utility.yul\":11602:11674   */\n      tag_280\n        /* \"#utility.yul\":11670:11672   */\n      0x60\n        /* \"#utility.yul\":11659:11668   */\n      dup4\n        /* \"#utility.yul\":11655:11673   */\n      add\n        /* \"#utility.yul\":11646:11652   */\n      dup9\n        /* \"#utility.yul\":11602:11674   */\n      tag_245\n      jump\t// in\n    tag_280:\n        /* \"#utility.yul\":11684:11757   */\n      tag_281\n        /* \"#utility.yul\":11752:11755   */\n      0x80\n        /* \"#utility.yul\":11741:11750   */\n      dup4\n        /* \"#utility.yul\":11737:11756   */\n      add\n        /* \"#utility.yul\":11728:11734   */\n      dup8\n        /* \"#utility.yul\":11684:11757   */\n      tag_179\n      jump\t// in\n    tag_281:\n        /* \"#utility.yul\":11767:11840   */\n      tag_282\n        /* \"#utility.yul\":11835:11838   */\n      0xa0\n        /* \"#utility.yul\":11824:11833   */\n      dup4\n        /* \"#utility.yul\":11820:11839   */\n      add\n        /* \"#utility.yul\":11811:11817   */\n      dup7\n        /* \"#utility.yul\":11767:11840   */\n      tag_179\n      jump\t// in\n    tag_282:\n        /* \"#utility.yul\":11888:11897   */\n      dup2\n        /* \"#utility.yul\":11882:11886   */\n      dup2\n        /* \"#utility.yul\":11878:11898   */\n      sub\n        /* \"#utility.yul\":11872:11875   */\n      0xc0\n        /* \"#utility.yul\":11861:11870   */\n      dup4\n        /* \"#utility.yul\":11857:11876   */\n      add\n        /* \"#utility.yul\":11850:11899   */\n      mstore\n        /* \"#utility.yul\":11916:11994   */\n      tag_283\n        /* \"#utility.yul\":11989:11993   */\n      dup2\n        /* \"#utility.yul\":11980:11986   */\n      dup6\n        /* \"#utility.yul\":11916:11994   */\n      tag_206\n      jump\t// in\n    tag_283:\n        /* \"#utility.yul\":11908:11994   */\n      swap1\n      pop\n        /* \"#utility.yul\":12004:12071   */\n      tag_284\n        /* \"#utility.yul\":12066:12069   */\n      0xe0\n        /* \"#utility.yul\":12055:12064   */\n      dup4\n        /* \"#utility.yul\":12051:12070   */\n      add\n        /* \"#utility.yul\":12042:12048   */\n      dup5\n        /* \"#utility.yul\":12004:12071   */\n      tag_202\n      jump\t// in\n    tag_284:\n        /* \"#utility.yul\":11002:12078   */\n      swap10\n      swap9\n      pop\n      pop\n      pop\n      pop\n      pop\n      pop\n      pop\n      pop\n      pop\n      jump\t// out\n        /* \"#utility.yul\":12084:12213   */\n    tag_132:\n        /* \"#utility.yul\":12118:12124   */\n      0x00\n        /* \"#utility.yul\":12145:12165   */\n      tag_286\n      tag_287\n      jump\t// in\n    tag_286:\n        /* \"#utility.yul\":12135:12165   */\n      swap1\n      pop\n        /* \"#utility.yul\":12174:12207   */\n      tag_288\n        /* \"#utility.yul\":12202:12206   */\n      dup3\n        /* \"#utility.yul\":12194:12200   */\n      dup3\n        /* \"#utility.yul\":12174:12207   */\n      tag_289\n      jump\t// in\n    tag_288:\n        /* \"#utility.yul\":12084:12213   */\n      swap2\n      swap1\n      pop\n      jump\t// out\n        /* \"#utility.yul\":12219:12294   */\n    tag_287:\n        /* \"#utility.yul\":12252:12258   */\n      0x00\n        /* \"#utility.yul\":12285:12287   */\n      0x40\n        /* \"#utility.yul\":12279:12288   */\n      mload\n        /* \"#utility.yul\":12269:12288   */\n      swap1\n      pop\n        /* \"#utility.yul\":12219:12294   */\n      swap1\n      jump\t// out\n        /* \"#utility.yul\":12300:12608   */\n    tag_131:\n        /* \"#utility.yul\":12362:12366   */\n      0x00\n        /* \"#utility.yul\":12452:12470   */\n      0xffffffffffffffff\n        /* \"#utility.yul\":12444:12450   */\n      dup3\n        /* \"#utility.yul\":12441:12471   */\n      gt\n        /* \"#utility.yul\":12438:12494   */\n      iszero\n      tag_292\n      jumpi\n        /* \"#utility.yul\":12474:12492   */\n      tag_293\n      tag_95\n      jump\t// in\n    tag_293:\n        /* \"#utility.yul\":12438:12494   */\n    tag_292:\n        /* \"#utility.yul\":12512:12541   */\n      tag_294\n        /* \"#utility.yul\":12534:12540   */\n      dup3\n        /* \"#utility.yul\":12512:12541   */\n      tag_215\n      jump\t// in\n    tag_294:\n        /* \"#utility.yul\":12504:12541   */\n      swap1\n      pop\n        /* \"#utility.yul\":12596:12600   */\n      0x20\n        /* \"#utility.yul\":12590:12594   */\n      dup2\n        /* \"#utility.yul\":12586:12601   */\n      add\n        /* \"#utility.yul\":12578:12601   */\n      swap1\n      pop\n        /* \"#utility.yul\":12300:12608   */\n      swap2\n      swap1\n      pop\n      jump\t// out\n        /* \"#utility.yul\":12614:12746   */\n    tag_195:\n        /* \"#utility.yul\":12681:12685   */\n      0x00\n        /* \"#utility.yul\":12704:12707   */\n      dup2\n        /* \"#utility.yul\":12696:12707   */\n      swap1\n      pop\n        /* \"#utility.yul\":12734:12738   */\n      0x20\n        /* \"#utility.yul\":12729:12732   */\n      dup3\n        /* \"#utility.yul\":12725:12739   */\n      add\n        /* \"#utility.yul\":12717:12739   */\n      swap1\n      pop\n        /* \"#utility.yul\":12614:12746   */\n      swap2\n      swap1\n      pop\n      jump\t// out\n        /* \"#utility.yul\":12752:12866   */\n    tag_191:\n        /* \"#utility.yul\":12819:12825   */\n      0x00\n        /* \"#utility.yul\":12853:12858   */\n      dup2\n        /* \"#utility.yul\":12847:12859   */\n      mload\n        /* \"#utility.yul\":12837:12859   */\n      swap1\n      pop\n        /* \"#utility.yul\":12752:12866   */\n      swap2\n      swap1\n      pop\n      jump\t// out\n        /* \"#utility.yul\":12872:12971   */\n    tag_209:\n        /* \"#utility.yul\":12924:12930   */\n      0x00\n        /* \"#utility.yul\":12958:12963   */\n      dup2\n        /* \"#utility.yul\":12952:12964   */\n      mload\n        /* \"#utility.yul\":12942:12964   */\n      swap1\n      pop\n        /* \"#utility.yul\":12872:12971   */\n      swap2\n      swap1\n      pop\n      jump\t// out\n        /* \"#utility.yul\":12977:13090   */\n    tag_201:\n        /* \"#utility.yul\":13047:13051   */\n      0x00\n        /* \"#utility.yul\":13079:13083   */\n      0x20\n        /* \"#utility.yul\":13074:13077   */\n      dup3\n        /* \"#utility.yul\":13070:13084   */\n      add\n        /* \"#utility.yul\":13062:13084   */\n      swap1\n      pop\n        /* \"#utility.yul\":12977:13090   */\n      swap2\n      swap1\n      pop\n      jump\t// out\n        /* \"#utility.yul\":13096:13280   */\n    tag_193:\n        /* \"#utility.yul\":13195:13206   */\n      0x00\n        /* \"#utility.yul\":13229:13235   */\n      dup3\n        /* \"#utility.yul\":13224:13227   */\n      dup3\n        /* \"#utility.yul\":13217:13236   */\n      mstore\n        /* \"#utility.yul\":13269:13273   */\n      0x20\n        /* \"#utility.yul\":13264:13267   */\n      dup3\n        /* \"#utility.yul\":13260:13274   */\n      add\n        /* \"#utility.yul\":13245:13274   */\n      swap1\n      pop\n        /* \"#utility.yul\":13096:13280   */\n      swap3\n      swap2\n      pop\n      pop\n      jump\t// out\n        /* \"#utility.yul\":13286:13455   */\n    tag_211:\n        /* \"#utility.yul\":13370:13381   */\n      0x00\n        /* \"#utility.yul\":13404:13410   */\n      dup3\n        /* \"#utility.yul\":13399:13402   */\n      dup3\n        /* \"#utility.yul\":13392:13411   */\n      mstore\n        /* \"#utility.yul\":13444:13448   */\n      0x20\n        /* \"#utility.yul\":13439:13442   */\n      dup3\n        /* \"#utility.yul\":13435:13449   */\n      add\n        /* \"#utility.yul\":13420:13449   */\n      swap1\n      pop\n        /* \"#utility.yul\":13286:13455   */\n      swap3\n      swap2\n      pop\n      pop\n      jump\t// out\n        /* \"#utility.yul\":13461:13609   */\n    tag_220:\n        /* \"#utility.yul\":13563:13574   */\n      0x00\n        /* \"#utility.yul\":13600:13603   */\n      dup2\n        /* \"#utility.yul\":13585:13603   */\n      swap1\n      pop\n        /* \"#utility.yul\":13461:13609   */\n      swap3\n      swap2\n      pop\n      pop\n      jump\t// out\n        /* \"#utility.yul\":13615:13920   */\n    tag_63:\n        /* \"#utility.yul\":13655:13658   */\n      0x00\n        /* \"#utility.yul\":13674:13694   */\n      tag_303\n        /* \"#utility.yul\":13692:13693   */\n      dup3\n        /* \"#utility.yul\":13674:13694   */\n      tag_244\n      jump\t// in\n    tag_303:\n        /* \"#utility.yul\":13669:13694   */\n      swap2\n      pop\n        /* \"#utility.yul\":13708:13728   */\n      tag_304\n        /* \"#utility.yul\":13726:13727   */\n      dup4\n        /* \"#utility.yul\":13708:13728   */\n      tag_244\n      jump\t// in\n    tag_304:\n        /* \"#utility.yul\":13703:13728   */\n      swap3\n      pop\n        /* \"#utility.yul\":13862:13863   */\n      dup3\n        /* \"#utility.yul\":13794:13860   */\n      0xffffffffffffffffffffffffffffffffffffffffffffffffffffffffffffffff\n        /* \"#utility.yul\":13790:13864   */\n      sub\n        /* \"#utility.yul\":13787:13788   */\n      dup3\n        /* \"#utility.yul\":13784:13865   */\n      gt\n        /* \"#utility.yul\":13781:13888   */\n      iszero\n      tag_305\n      jumpi\n        /* \"#utility.yul\":13868:13886   */\n      tag_306\n      tag_307\n      jump\t// in\n    tag_306:\n        /* \"#utility.yul\":13781:13888   */\n    tag_305:\n        /* \"#utility.yul\":13912:13913   */\n      dup3\n        /* \"#utility.yul\":13909:13910   */\n      dup3\n        /* \"#utility.yul\":13905:13914   */\n      add\n        /* \"#utility.yul\":13898:13914   */\n      swap1\n      pop\n        /* \"#utility.yul\":13615:13920   */\n      swap3\n      swap2\n      pop\n      pop\n      jump\t// out\n        /* \"#utility.yul\":13926:14274   */\n    tag_50:\n        /* \"#utility.yul\":13966:13973   */\n      0x00\n        /* \"#utility.yul\":13989:14009   */\n      tag_309\n        /* \"#utility.yul\":14007:14008   */\n      dup3\n        /* \"#utility.yul\":13989:14009   */\n      tag_244\n      jump\t// in\n    tag_309:\n        /* \"#utility.yul\":13984:14009   */\n      swap2\n      pop\n        /* \"#utility.yul\":14023:14043   */\n      tag_310\n        /* \"#utility.yul\":14041:14042   */\n      dup4\n        /* \"#utility.yul\":14023:14043   */\n      tag_244\n      jump\t// in\n    tag_310:\n        /* \"#utility.yul\":14018:14043   */\n      swap3\n      pop\n        /* \"#utility.yul\":14211:14212   */\n      dup2\n        /* \"#utility.yul\":14143:14209   */\n      0xffffffffffffffffffffffffffffffffffffffffffffffffffffffffffffffff\n        /* \"#utility.yul\":14139:14213   */\n      div\n        /* \"#utility.yul\":14136:14137   */\n      dup4\n        /* \"#utility.yul\":14133:14214   */\n      gt\n        /* \"#utility.yul\":14128:14129   */\n      dup3\n        /* \"#utility.yul\":14121:14130   */\n      iszero\n        /* \"#utility.yul\":14114:14131   */\n      iszero\n        /* \"#utility.yul\":14110:14215   */\n      and\n        /* \"#utility.yul\":14107:14238   */\n      iszero\n      tag_311\n      jumpi\n        /* \"#utility.yul\":14218:14236   */\n      tag_312\n      tag_307\n      jump\t// in\n    tag_312:\n        /* \"#utility.yul\":14107:14238   */\n    tag_311:\n        /* \"#utility.yul\":14266:14267   */\n      dup3\n        /* \"#utility.yul\":14263:14264   */\n      dup3\n        /* \"#utility.yul\":14259:14268   */\n      mul\n        /* \"#utility.yul\":14248:14268   */\n      swap1\n      pop\n        /* \"#utility.yul\":13926:14274   */\n      swap3\n      swap2\n      pop\n      pop\n      jump\t// out\n        /* \"#utility.yul\":14280:14376   */\n    tag_182:\n        /* \"#utility.yul\":14317:14324   */\n      0x00\n        /* \"#utility.yul\":14346:14370   */\n      tag_314\n        /* \"#utility.yul\":14364:14369   */\n      dup3\n        /* \"#utility.yul\":14346:14370   */\n      tag_315\n      jump\t// in\n    tag_314:\n        /* \"#utility.yul\":14335:14370   */\n      swap1\n      pop\n        /* \"#utility.yul\":14280:14376   */\n      swap2\n      swap1\n      pop\n      jump\t// out\n        /* \"#utility.yul\":14382:14472   */\n    tag_205:\n        /* \"#utility.yul\":14416:14423   */\n      0x00\n        /* \"#utility.yul\":14459:14464   */\n      dup2\n        /* \"#utility.yul\":14452:14465   */\n      iszero\n        /* \"#utility.yul\":14445:14466   */\n      iszero\n        /* \"#utility.yul\":14434:14466   */\n      swap1\n      pop\n        /* \"#utility.yul\":14382:14472   */\n      swap2\n      swap1\n      pop\n      jump\t// out\n        /* \"#utility.yul\":14478:14604   */\n    tag_315:\n        /* \"#utility.yul\":14515:14522   */\n      0x00\n        /* \"#utility.yul\":14555:14597   */\n      0xffffffffffffffffffffffffffffffffffffffff\n        /* \"#utility.yul\":14548:14553   */\n      dup3\n        /* \"#utility.yul\":14544:14598   */\n      and\n        /* \"#utility.yul\":14533:14598   */\n      swap1\n      pop\n        /* \"#utility.yul\":14478:14604   */\n      swap2\n      swap1\n      pop\n      jump\t// out\n        /* \"#utility.yul\":14610:14687   */\n    tag_244:\n        /* \"#utility.yul\":14647:14654   */\n      0x00\n        /* \"#utility.yul\":14676:14681   */\n      dup2\n        /* \"#utility.yul\":14665:14681   */\n      swap1\n      pop\n        /* \"#utility.yul\":14610:14687   */\n      swap2\n      swap1\n      pop\n      jump\t// out\n        /* \"#utility.yul\":14693:14847   */\n    tag_137:\n        /* \"#utility.yul\":14777:14783   */\n      dup3\n        /* \"#utility.yul\":14772:14775   */\n      dup2\n        /* \"#utility.yul\":14767:14770   */\n      dup4\n        /* \"#utility.yul\":14754:14784   */\n      calldatacopy\n        /* \"#utility.yul\":14839:14840   */\n      0x00\n        /* \"#utility.yul\":14830:14836   */\n      dup4\n        /* \"#utility.yul\":14825:14828   */\n      dup4\n        /* \"#utility.yul\":14821:14837   */\n      add\n        /* \"#utility.yul\":14814:14841   */\n      mstore\n        /* \"#utility.yul\":14693:14847   */\n      pop\n      pop\n      pop\n      jump\t// out\n        /* \"#utility.yul\":14853:15160   */\n    tag_213:\n        /* \"#utility.yul\":14921:14922   */\n      0x00\n        /* \"#utility.yul\":14931:15044   */\n    tag_321:\n        /* \"#utility.yul\":14945:14951   */\n      dup4\n        /* \"#utility.yul\":14942:14943   */\n      dup2\n        /* \"#utility.yul\":14939:14952   */\n      lt\n        /* \"#utility.yul\":14931:15044   */\n      iszero\n      tag_323\n      jumpi\n        /* \"#utility.yul\":15030:15031   */\n      dup1\n        /* \"#utility.yul\":15025:15028   */\n      dup3\n        /* \"#utility.yul\":15021:15032   */\n      add\n        /* \"#utility.yul\":15015:15033   */\n      mload\n        /* \"#utility.yul\":15011:15012   */\n      dup2\n        /* \"#utility.yul\":15006:15009   */\n      dup5\n        /* \"#utility.yul\":15002:15013   */\n      add\n        /* \"#utility.yul\":14995:15034   */\n      mstore\n        /* \"#utility.yul\":14967:14969   */\n      0x20\n        /* \"#utility.yul\":14964:14965   */\n      dup2\n        /* \"#utility.yul\":14960:14970   */\n      add\n        /* \"#utility.yul\":14955:14970   */\n      swap1\n      pop\n        /* \"#utility.yul\":14931:15044   */\n      jump(tag_321)\n    tag_323:\n        /* \"#utility.yul\":15062:15068   */\n      dup4\n        /* \"#utility.yul\":15059:15060   */\n      dup2\n        /* \"#utility.yul\":15056:15069   */\n      gt\n        /* \"#utility.yul\":15053:15154   */\n      iszero\n      tag_324\n      jumpi\n        /* \"#utility.yul\":15142:15143   */\n      0x00\n        /* \"#utility.yul\":15133:15139   */\n      dup5\n        /* \"#utility.yul\":15128:15131   */\n      dup5\n        /* \"#utility.yul\":15124:15140   */\n      add\n        /* \"#utility.yul\":15117:15144   */\n      mstore\n        /* \"#utility.yul\":15053:15154   */\n    tag_324:\n        /* \"#utility.yul\":14902:15160   */\n      pop\n        /* \"#utility.yul\":14853:15160   */\n      pop\n      pop\n      pop\n      jump\t// out\n        /* \"#utility.yul\":15166:15486   */\n    tag_71:\n        /* \"#utility.yul\":15210:15216   */\n      0x00\n        /* \"#utility.yul\":15247:15248   */\n      0x02\n        /* \"#utility.yul\":15241:15245   */\n      dup3\n        /* \"#utility.yul\":15237:15249   */\n      div\n        /* \"#utility.yul\":15227:15249   */\n      swap1\n      pop\n        /* \"#utility.yul\":15294:15295   */\n      0x01\n        /* \"#utility.yul\":15288:15292   */\n      dup3\n        /* \"#utility.yul\":15284:15296   */\n      and\n        /* \"#utility.yul\":15315:15333   */\n      dup1\n        /* \"#utility.yul\":15305:15386   */\n      tag_326\n      jumpi\n        /* \"#utility.yul\":15371:15375   */\n      0x7f\n        /* \"#utility.yul\":15363:15369   */\n      dup3\n        /* \"#utility.yul\":15359:15376   */\n      and\n        /* \"#utility.yul\":15349:15376   */\n      swap2\n      pop\n        /* \"#utility.yul\":15305:15386   */\n    tag_326:\n        /* \"#utility.yul\":15433:15435   */\n      0x20\n        /* \"#utility.yul\":15425:15431   */\n      dup3\n        /* \"#utility.yul\":15422:15436   */\n      lt\n        /* \"#utility.yul\":15402:15420   */\n      dup2\n        /* \"#utility.yul\":15399:15437   */\n      eq\n        /* \"#utility.yul\":15396:15480   */\n      iszero\n      tag_327\n      jumpi\n        /* \"#utility.yul\":15452:15470   */\n      tag_328\n      tag_329\n      jump\t// in\n    tag_328:\n        /* \"#utility.yul\":15396:15480   */\n    tag_327:\n        /* \"#utility.yul\":15217:15486   */\n      pop\n        /* \"#utility.yul\":15166:15486   */\n      swap2\n      swap1\n      pop\n      jump\t// out\n        /* \"#utility.yul\":15492:15773   */\n    tag_289:\n        /* \"#utility.yul\":15575:15602   */\n      tag_331\n        /* \"#utility.yul\":15597:15601   */\n      dup3\n        /* \"#utility.yul\":15575:15602   */\n      tag_215\n      jump\t// in\n    tag_331:\n        /* \"#utility.yul\":15567:15573   */\n      dup2\n        /* \"#utility.yul\":15563:15603   */\n      add\n        /* \"#utility.yul\":15705:15711   */\n      dup2\n        /* \"#utility.yul\":15693:15703   */\n      dup2\n        /* \"#utility.yul\":15690:15712   */\n      lt\n        /* \"#utility.yul\":15669:15687   */\n      0xffffffffffffffff\n        /* \"#utility.yul\":15657:15667   */\n      dup3\n        /* \"#utility.yul\":15654:15688   */\n      gt\n        /* \"#utility.yul\":15651:15713   */\n      or\n        /* \"#utility.yul\":15648:15736   */\n      iszero\n      tag_332\n      jumpi\n        /* \"#utility.yul\":15716:15734   */\n      tag_333\n      tag_95\n      jump\t// in\n    tag_333:\n        /* \"#utility.yul\":15648:15736   */\n    tag_332:\n        /* \"#utility.yul\":15756:15766   */\n      dup1\n        /* \"#utility.yul\":15752:15754   */\n      0x40\n        /* \"#utility.yul\":15745:15767   */\n      mstore\n        /* \"#utility.yul\":15535:15773   */\n      pop\n        /* \"#utility.yul\":15492:15773   */\n      pop\n      pop\n      jump\t// out\n        /* \"#utility.yul\":15779:16012   */\n    tag_67:\n        /* \"#utility.yul\":15818:15821   */\n      0x00\n        /* \"#utility.yul\":15841:15865   */\n      tag_335\n        /* \"#utility.yul\":15859:15864   */\n      dup3\n        /* \"#utility.yul\":15841:15865   */\n      tag_244\n      jump\t// in\n    tag_335:\n        /* \"#utility.yul\":15832:15865   */\n      swap2\n      pop\n        /* \"#utility.yul\":15887:15953   */\n      0xffffffffffffffffffffffffffffffffffffffffffffffffffffffffffffffff\n        /* \"#utility.yul\":15880:15885   */\n      dup3\n        /* \"#utility.yul\":15877:15954   */\n      eq\n        /* \"#utility.yul\":15874:15977   */\n      iszero\n      tag_336\n      jumpi\n        /* \"#utility.yul\":15957:15975   */\n      tag_337\n      tag_307\n      jump\t// in\n    tag_337:\n        /* \"#utility.yul\":15874:15977   */\n    tag_336:\n        /* \"#utility.yul\":16004:16005   */\n      0x01\n        /* \"#utility.yul\":15997:16002   */\n      dup3\n        /* \"#utility.yul\":15993:16006   */\n      add\n        /* \"#utility.yul\":15986:16006   */\n      swap1\n      pop\n        /* \"#utility.yul\":15779:16012   */\n      swap2\n      swap1\n      pop\n      jump\t// out\n        /* \"#utility.yul\":16018:16118   */\n    tag_187:\n        /* \"#utility.yul\":16057:16064   */\n      0x00\n        /* \"#utility.yul\":16086:16112   */\n      tag_339\n        /* \"#utility.yul\":16106:16111   */\n      dup3\n        /* \"#utility.yul\":16086:16112   */\n      tag_340\n      jump\t// in\n    tag_339:\n        /* \"#utility.yul\":16075:16112   */\n      swap1\n      pop\n        /* \"#utility.yul\":16018:16118   */\n      swap2\n      swap1\n      pop\n      jump\t// out\n        /* \"#utility.yul\":16124:16218   */\n    tag_340:\n        /* \"#utility.yul\":16163:16170   */\n      0x00\n        /* \"#utility.yul\":16192:16212   */\n      tag_342\n        /* \"#utility.yul\":16206:16211   */\n      dup3\n        /* \"#utility.yul\":16192:16212   */\n      tag_343\n      jump\t// in\n    tag_342:\n        /* \"#utility.yul\":16181:16212   */\n      swap1\n      pop\n        /* \"#utility.yul\":16124:16218   */\n      swap2\n      swap1\n      pop\n      jump\t// out\n        /* \"#utility.yul\":16224:16303   */\n    tag_252:\n        /* \"#utility.yul\":16263:16270   */\n      0x00\n        /* \"#utility.yul\":16292:16297   */\n      dup2\n        /* \"#utility.yul\":16281:16297   */\n      swap1\n      pop\n        /* \"#utility.yul\":16224:16303   */\n      swap2\n      swap1\n      pop\n      jump\t// out\n        /* \"#utility.yul\":16309:16485   */\n    tag_114:\n        /* \"#utility.yul\":16341:16342   */\n      0x00\n        /* \"#utility.yul\":16358:16378   */\n      tag_346\n        /* \"#utility.yul\":16376:16377   */\n      dup3\n        /* \"#utility.yul\":16358:16378   */\n      tag_244\n      jump\t// in\n    tag_346:\n        /* \"#utility.yul\":16353:16378   */\n      swap2\n      pop\n        /* \"#utility.yul\":16392:16412   */\n      tag_347\n        /* \"#utility.yul\":16410:16411   */\n      dup4\n        /* \"#utility.yul\":16392:16412   */\n      tag_244\n      jump\t// in\n    tag_347:\n        /* \"#utility.yul\":16387:16412   */\n      swap3\n      pop\n        /* \"#utility.yul\":16431:16432   */\n      dup3\n        /* \"#utility.yul\":16421:16456   */\n      tag_348\n      jumpi\n        /* \"#utility.yul\":16436:16454   */\n      tag_349\n      tag_350\n      jump\t// in\n    tag_349:\n        /* \"#utility.yul\":16421:16456   */\n    tag_348:\n        /* \"#utility.yul\":16477:16478   */\n      dup3\n        /* \"#utility.yul\":16474:16475   */\n      dup3\n        /* \"#utility.yul\":16470:16479   */\n      mod\n        /* \"#utility.yul\":16465:16479   */\n      swap1\n      pop\n        /* \"#utility.yul\":16309:16485   */\n      swap3\n      swap2\n      pop\n      pop\n      jump\t// out\n        /* \"#utility.yul\":16491:16671   */\n    tag_307:\n        /* \"#utility.yul\":16539:16616   */\n      0x4e487b7100000000000000000000000000000000000000000000000000000000\n        /* \"#utility.yul\":16536:16537   */\n      0x00\n        /* \"#utility.yul\":16529:16617   */\n      mstore\n        /* \"#utility.yul\":16636:16640   */\n      0x11\n        /* \"#utility.yul\":16633:16634   */\n      0x04\n        /* \"#utility.yul\":16626:16641   */\n      mstore\n        /* \"#utility.yul\":16660:16664   */\n      0x24\n        /* \"#utility.yul\":16657:16658   */\n      0x00\n        /* \"#utility.yul\":16650:16665   */\n      revert\n        /* \"#utility.yul\":16677:16857   */\n    tag_350:\n        /* \"#utility.yul\":16725:16802   */\n      0x4e487b7100000000000000000000000000000000000000000000000000000000\n        /* \"#utility.yul\":16722:16723   */\n      0x00\n        /* \"#utility.yul\":16715:16803   */\n      mstore\n        /* \"#utility.yul\":16822:16826   */\n      0x12\n        /* \"#utility.yul\":16819:16820   */\n      0x04\n        /* \"#utility.yul\":16812:16827   */\n      mstore\n        /* \"#utility.yul\":16846:16850   */\n      0x24\n        /* \"#utility.yul\":16843:16844   */\n      0x00\n        /* \"#utility.yul\":16836:16851   */\n      revert\n        /* \"#utility.yul\":16863:17043   */\n    tag_329:\n        /* \"#utility.yul\":16911:16988   */\n      0x4e487b7100000000000000000000000000000000000000000000000000000000\n        /* \"#utility.yul\":16908:16909   */\n      0x00\n        /* \"#utility.yul\":16901:16989   */\n      mstore\n        /* \"#utility.yul\":17008:17012   */\n      0x22\n        /* \"#utility.yul\":17005:17006   */\n      0x04\n        /* \"#utility.yul\":16998:17013   */\n      mstore\n        /* \"#utility.yul\":17032:17036   */\n      0x24\n        /* \"#utility.yul\":17029:17030   */\n      0x00\n        /* \"#utility.yul\":17022:17037   */\n      revert\n        /* \"#utility.yul\":17049:17229   */\n    tag_88:\n        /* \"#utility.yul\":17097:17174   */\n      0x4e487b7100000000000000000000000000000000000000000000000000000000\n        /* \"#utility.yul\":17094:17095   */\n      0x00\n        /* \"#utility.yul\":17087:17175   */\n      mstore\n        /* \"#utility.yul\":17194:17198   */\n      0x32\n        /* \"#utility.yul\":17191:17192   */\n      0x04\n        /* \"#utility.yul\":17184:17199   */\n      mstore\n        /* \"#utility.yul\":17218:17222   */\n      0x24\n        /* \"#utility.yul\":17215:17216   */\n      0x00\n        /* \"#utility.yul\":17208:17223   */\n      revert\n        /* \"#utility.yul\":17235:17415   */\n    tag_95:\n        /* \"#utility.yul\":17283:17360   */\n      0x4e487b7100000000000000000000000000000000000000000000000000000000\n        /* \"#utility.yul\":17280:17281   */\n      0x00\n        /* \"#utility.yul\":17273:17361   */\n      mstore\n        /* \"#utility.yul\":17380:17384   */\n      0x41\n        /* \"#utility.yul\":17377:17378   */\n      0x04\n        /* \"#utility.yul\":17370:17385   */\n      mstore\n        /* \"#utility.yul\":17404:17408   */\n      0x24\n        /* \"#utility.yul\":17401:17402   */\n      0x00\n        /* \"#utility.yul\":17394:17409   */\n      revert\n        /* \"#utility.yul\":17421:17538   */\n    tag_146:\n        /* \"#utility.yul\":17530:17531   */\n      0x00\n        /* \"#utility.yul\":17527:17528   */\n      dup1\n        /* \"#utility.yul\":17520:17532   */\n      revert\n        /* \"#utility.yul\":17544:17661   */\n    tag_135:\n        /* \"#utility.yul\":17653:17654   */\n      0x00\n        /* \"#utility.yul\":17650:17651   */\n      dup1\n        /* \"#utility.yul\":17643:17655   */\n      revert\n        /* \"#utility.yul\":17667:17784   */\n    tag_165:\n        /* \"#utility.yul\":17776:17777   */\n      0x00\n        /* \"#utility.yul\":17773:17774   */\n      dup1\n        /* \"#utility.yul\":17766:17778   */\n      revert\n        /* \"#utility.yul\":17790:17907   */\n    tag_155:\n        /* \"#utility.yul\":17899:17900   */\n      0x00\n        /* \"#utility.yul\":17896:17897   */\n      dup1\n        /* \"#utility.yul\":17889:17901   */\n      revert\n        /* \"#utility.yul\":17913:18015   */\n    tag_215:\n        /* \"#utility.yul\":17954:17960   */\n      0x00\n        /* \"#utility.yul\":18005:18007   */\n      0x1f\n        /* \"#utility.yul\":18001:18008   */\n      not\n        /* \"#utility.yul\":17996:17998   */\n      0x1f\n        /* \"#utility.yul\":17989:17994   */\n      dup4\n        /* \"#utility.yul\":17985:17999   */\n      add\n        /* \"#utility.yul\":17981:18009   */\n      and\n        /* \"#utility.yul\":17971:18009   */\n      swap1\n      pop\n        /* \"#utility.yul\":17913:18015   */\n      swap2\n      swap1\n      pop\n      jump\t// out\n        /* \"#utility.yul\":18021:18115   */\n    tag_343:\n        /* \"#utility.yul\":18054:18062   */\n      0x00\n        /* \"#utility.yul\":18102:18107   */\n      dup2\n        /* \"#utility.yul\":18098:18100   */\n      0x60\n        /* \"#utility.yul\":18094:18108   */\n      shl\n        /* \"#utility.yul\":18073:18108   */\n      swap1\n      pop\n        /* \"#utility.yul\":18021:18115   */\n      swap2\n      swap1\n      pop\n      jump\t// out\n        /* \"#utility.yul\":18121:18291   */\n    tag_226:\n        /* \"#utility.yul\":18261:18283   */\n      0x76616c75652063616e6e6f74206265206e756c6c000000000000000000000000\n        /* \"#utility.yul\":18257:18258   */\n      0x00\n        /* \"#utility.yul\":18249:18255   */\n      dup3\n        /* \"#utility.yul\":18245:18259   */\n      add\n        /* \"#utility.yul\":18238:18284   */\n      mstore\n        /* \"#utility.yul\":18121:18291   */\n      pop\n      jump\t// out\n        /* \"#utility.yul\":18297:18519   */\n    tag_231:\n        /* \"#utility.yul\":18437:18471   */\n      0x546865206f776e65722063616e6e6f7420796574206164642061206e65772068\n        /* \"#utility.yul\":18433:18434   */\n      0x00\n        /* \"#utility.yul\":18425:18431   */\n      dup3\n        /* \"#utility.yul\":18421:18435   */\n      add\n        /* \"#utility.yul\":18414:18472   */\n      mstore\n        /* \"#utility.yul\":18506:18511   */\n      0x6f6d650000000000000000000000000000000000000000000000000000000000\n        /* \"#utility.yul\":18501:18503   */\n      0x20\n        /* \"#utility.yul\":18493:18499   */\n      dup3\n        /* \"#utility.yul\":18489:18504   */\n      add\n        /* \"#utility.yul\":18482:18512   */\n      mstore\n        /* \"#utility.yul\":18297:18519   */\n      pop\n      jump\t// out\n        /* \"#utility.yul\":18525:18702   */\n    tag_236:\n        /* \"#utility.yul\":18665:18694   */\n      0x7468697320686f757365496420616c7265616479206578697374730000000000\n        /* \"#utility.yul\":18661:18662   */\n      0x00\n        /* \"#utility.yul\":18653:18659   */\n      dup3\n        /* \"#utility.yul\":18649:18663   */\n      add\n        /* \"#utility.yul\":18642:18695   */\n      mstore\n        /* \"#utility.yul\":18525:18702   */\n      pop\n      jump\t// out\n        /* \"#utility.yul\":18708:18938   */\n    tag_241:\n        /* \"#utility.yul\":18848:18882   */\n      0x596f7520646f206e6f7420686176652061636365737320746f2064656c657465\n        /* \"#utility.yul\":18844:18845   */\n      0x00\n        /* \"#utility.yul\":18836:18842   */\n      dup3\n        /* \"#utility.yul\":18832:18846   */\n      add\n        /* \"#utility.yul\":18825:18883   */\n      mstore\n        /* \"#utility.yul\":18917:18930   */\n      0x207468697320686f757365000000000000000000000000000000000000000000\n        /* \"#utility.yul\":18912:18914   */\n      0x20\n        /* \"#utility.yul\":18904:18910   */\n      dup3\n        /* \"#utility.yul\":18900:18915   */\n      add\n        /* \"#utility.yul\":18893:18931   */\n      mstore\n        /* \"#utility.yul\":18708:18938   */\n      pop\n      jump\t// out\n        /* \"#utility.yul\":18944:19066   */\n    tag_141:\n        /* \"#utility.yul\":19017:19041   */\n      tag_367\n        /* \"#utility.yul\":19035:19040   */\n      dup2\n        /* \"#utility.yul\":19017:19041   */\n      tag_182\n      jump\t// in\n    tag_367:\n        /* \"#utility.yul\":19010:19015   */\n      dup2\n        /* \"#utility.yul\":19007:19042   */\n      eq\n        /* \"#utility.yul\":18997:19060   */\n      tag_368\n      jumpi\n        /* \"#utility.yul\":19056:19057   */\n      0x00\n        /* \"#utility.yul\":19053:19054   */\n      dup1\n        /* \"#utility.yul\":19046:19058   */\n      revert\n        /* \"#utility.yul\":18997:19060   */\n    tag_368:\n        /* \"#utility.yul\":18944:19066   */\n      pop\n      jump\t// out\n        /* \"#utility.yul\":19072:19194   */\n    tag_151:\n        /* \"#utility.yul\":19145:19169   */\n      tag_370\n        /* \"#utility.yul\":19163:19168   */\n      dup2\n        /* \"#utility.yul\":19145:19169   */\n      tag_244\n      jump\t// in\n    tag_370:\n        /* \"#utility.yul\":19138:19143   */\n      dup2\n        /* \"#utility.yul\":19135:19170   */\n      eq\n        /* \"#utility.yul\":19125:19188   */\n      tag_371\n      jumpi\n        /* \"#utility.yul\":19184:19185   */\n      0x00\n        /* \"#utility.yul\":19181:19182   */\n      dup1\n        /* \"#utility.yul\":19174:19186   */\n      revert\n        /* \"#utility.yul\":19125:19188   */\n    tag_371:\n        /* \"#utility.yul\":19072:19194   */\n      pop\n      jump\t// out\n\n    auxdata: 0xa26469706673582212204014cba81838ed3c266369f3d00beb43bc10a4060432c1e83ca679cd997dffee64736f6c63430008070033\n}\n",
				"bytecode": {
					"linkReferences": {},
					"object": "60806040526005600055600054600a6200001a919062000098565b6001556201518060025560016003553480156200003657600080fd5b506200021b565b6000808291508390505b60018511156200008f57808604811115620000675762000066620001df565b5b6001851615620000775780820291505b808102905062000087856200020e565b945062000047565b94509492505050565b6000620000a582620001d5565b9150620000b283620001d5565b9250620000e17fffffffffffffffffffffffffffffffffffffffffffffffffffffffffffffffff8484620000e9565b905092915050565b600082620000fb5760019050620001ce565b816200010b5760009050620001ce565b81600181146200012457600281146200012f5762000165565b6001915050620001ce565b60ff841115620001445762000143620001df565b5b8360020a9150848211156200015e576200015d620001df565b5b50620001ce565b5060208310610133831016604e8410600b84101617156200019f5782820a905083811115620001995762000198620001df565b5b620001ce565b620001ae84848460016200003d565b92509050818404811115620001c857620001c7620001df565b5b81810290505b9392505050565b6000819050919050565b7f4e487b7100000000000000000000000000000000000000000000000000000000600052601160045260246000fd5b60008160011c9050919050565b6114bf806200022b6000396000f3fe6080604052600436106100555760003560e01c80633c3b0b4a1461005a5780634d79658b1461009757806391bfe0d4146100b3578063aeda852f146100f0578063be40a73e14610134578063c45e1b251461015d575b600080fd5b34801561006657600080fd5b50610081600480360381019061007c9190610a75565b61019a565b60405161008e9190610dc5565b60405180910390f35b6100b160048036038101906100ac9190610a75565b6102ac565b005b3480156100bf57600080fd5b506100da60048036038101906100d59190610aa2565b610326565b6040516100e79190610e67565b60405180910390f35b3480156100fc57600080fd5b5061011760048036038101906101129190610a75565b6105f1565b60405161012b989796959493929190610ece565b60405180910390f35b34801561014057600080fd5b5061015b60048036038101906101569190610b25565b61070e565b005b34801561016957600080fd5b50610184600480360381019061017f9190610a75565b610765565b6040516101919190610da3565b60405180910390f35b60603373ffffffffffffffffffffffffffffffffffffffff166006600084815260200190815260200160002060040160009054906101000a900473ffffffffffffffffffffffffffffffffffffffff1673ffffffffffffffffffffffffffffffffffffffff1614610240576040517f08c379a000000000000000000000000000000000000000000000000000000000815260040161023790610e47565b60405180910390fd5b60016006600084815260200190815260200160002060070160006101000a81548160ff0219169083151502179055506040518060400160405280601581526020017f64656c69737420776173207375636365737366756c00000000000000000000008152509050919050565b600660008281526020019081526020016000206002015434116102ce57600080fd5b336006600083815260200190815260200160002060050160006101000a81548173ffffffffffffffffffffffffffffffffffffffff021916908373ffffffffffffffffffffffffffffffffffffffff16021790555050565b6000808486610335919061105f565b11610375576040517f08c379a000000000000000000000000000000000000000000000000000000000815260040161036c90610de7565b60405180910390fd5b60006103828486856108e3565b905060066000828152602001908152602001600020600001548114156103dd576040517f08c379a00000000000000000000000000000000000000000000000000000000081526004016103d490610e27565b60405180910390fd5b60405180610100016040528082815260200160035481526020018781526020018681526020018573ffffffffffffffffffffffffffffffffffffffff1681526020018573ffffffffffffffffffffffffffffffffffffffff16815260200184815260200160001515815250600660008381526020019081526020016000206000820151816000015560208201518160010155604082015181600201556060820151816003015560808201518160040160006101000a81548173ffffffffffffffffffffffffffffffffffffffff021916908373ffffffffffffffffffffffffffffffffffffffff16021790555060a08201518160050160006101000a81548173ffffffffffffffffffffffffffffffffffffffff021916908373ffffffffffffffffffffffffffffffffffffffff16021790555060c082015181600601908051906020019061052d929190610938565b5060e08201518160070160006101000a81548160ff021916908315150217905550905050610567600254426105629190611009565b61092e565b6005819080600181540180825580915050600190039060005260206000200160009091909190915055600360008154809291906105a3906111a6565b91905055507f8f5afd88eb4be0ac287d87970052ce9a2b453448408e3c91a695ad7509ab7194818588866040516105dd9493929190610e82565b60405180910390a180915050949350505050565b60066020528060005260406000206000915090508060000154908060010154908060020154908060030154908060040160009054906101000a900473ffffffffffffffffffffffffffffffffffffffff16908060050160009054906101000a900473ffffffffffffffffffffffffffffffffffffffff169080600601805461067890611143565b80601f01602080910402602001604051908101604052809291908181526020018280546106a490611143565b80156106f15780601f106106c6576101008083540402835291602001916106f1565b820191906000526020600020905b8154815290600101906020018083116106d457829003601f168201915b5050505050908060070160009054906101000a900460ff16905088565b426004541115610753576040517f08c379a000000000000000000000000000000000000000000000000000000000815260040161074a90610e07565b60405180910390fd5b61075f83833384610326565b50505050565b60606000805b6005805490508110156107d657836006600060058481548110610791576107906112db565b5b906000526020600020015481526020019081526020016000206002015410156107c35781806107bf906111a6565b9250505b80806107ce906111a6565b91505061076b565b5060008167ffffffffffffffff8111156107f3576107f261130a565b5b6040519080825280602002602001820160405280156108215781602001602082028036833780820191505090505b50905060005b6005805490508110156108d85784600660006005848154811061084d5761084c6112db565b5b906000526020600020015481526020019081526020016000206002015410156108c5576006600060058381548110610888576108876112db565b5b90600052602060002001548152602001908152602001600020600001548282815181106108b8576108b76112db565b5b6020026020010181815250505b80806108d0906111a6565b915050610827565b508092505050919050565b6000808484846040516020016108fb93929190610d6a565b6040516020818303038152906040528051906020012060001c905060015481610924919061121d565b9150509392505050565b8060048190555050565b82805461094490611143565b90600052602060002090601f01602090048101928261096657600085556109ad565b82601f1061097f57805160ff19168380011785556109ad565b828001600101855582156109ad579182015b828111156109ac578251825591602001919060010190610991565b5b5090506109ba91906109be565b5090565b5b808211156109d75760008160009055506001016109bf565b5090565b60006109ee6109e984610f78565b610f53565b905082815260208101848484011115610a0a57610a0961133e565b5b610a15848285611101565b509392505050565b600081359050610a2c8161145b565b92915050565b600082601f830112610a4757610a46611339565b5b8135610a578482602086016109db565b91505092915050565b600081359050610a6f81611472565b92915050565b600060208284031215610a8b57610a8a611348565b5b6000610a9984828501610a60565b91505092915050565b60008060008060808587031215610abc57610abb611348565b5b6000610aca87828801610a60565b9450506020610adb87828801610a60565b9350506040610aec87828801610a1d565b925050606085013567ffffffffffffffff811115610b0d57610b0c611343565b5b610b1987828801610a32565b91505092959194509250565b600080600060608486031215610b3e57610b3d611348565b5b6000610b4c86828701610a60565b9350506020610b5d86828701610a60565b925050604084013567ffffffffffffffff811115610b7e57610b7d611343565b5b610b8a86828701610a32565b9150509250925092565b6000610ba08383610d35565b60208301905092915050565b610bb5816110b9565b82525050565b610bcc610bc7826110b9565b6111ef565b82525050565b6000610bdd82610fb9565b610be78185610fdc565b9350610bf283610fa9565b8060005b83811015610c23578151610c0a8882610b94565b9750610c1583610fcf565b925050600181019050610bf6565b5085935050505092915050565b610c39816110cb565b82525050565b6000610c4a82610fc4565b610c548185610fed565b9350610c64818560208601611110565b610c6d8161134d565b840191505092915050565b6000610c8382610fc4565b610c8d8185610ffe565b9350610c9d818560208601611110565b80840191505092915050565b6000610cb6601483610fed565b9150610cc18261136b565b602082019050919050565b6000610cd9602383610fed565b9150610ce482611394565b604082019050919050565b6000610cfc601b83610fed565b9150610d07826113e3565b602082019050919050565b6000610d1f602b83610fed565b9150610d2a8261140c565b604082019050919050565b610d3e816110f7565b82525050565b610d4d816110f7565b82525050565b610d64610d5f826110f7565b611213565b82525050565b6000610d768286610bbb565b601482019150610d868285610d53565b602082019150610d968284610c78565b9150819050949350505050565b60006020820190508181036000830152610dbd8184610bd2565b905092915050565b60006020820190508181036000830152610ddf8184610c3f565b905092915050565b60006020820190508181036000830152610e0081610ca9565b9050919050565b60006020820190508181036000830152610e2081610ccc565b9050919050565b60006020820190508181036000830152610e4081610cef565b9050919050565b60006020820190508181036000830152610e6081610d12565b9050919050565b6000602082019050610e7c6000830184610d44565b92915050565b6000608082019050610e976000830187610d44565b610ea46020830186610bac565b610eb16040830185610d44565b8181036060830152610ec38184610c3f565b905095945050505050565b600061010082019050610ee4600083018b610d44565b610ef1602083018a610d44565b610efe6040830189610d44565b610f0b6060830188610d44565b610f186080830187610bac565b610f2560a0830186610bac565b81810360c0830152610f378185610c3f565b9050610f4660e0830184610c30565b9998505050505050505050565b6000610f5d610f6e565b9050610f698282611175565b919050565b6000604051905090565b600067ffffffffffffffff821115610f9357610f9261130a565b5b610f9c8261134d565b9050602081019050919050565b6000819050602082019050919050565b600081519050919050565b600081519050919050565b6000602082019050919050565b600082825260208201905092915050565b600082825260208201905092915050565b600081905092915050565b6000611014826110f7565b915061101f836110f7565b9250827fffffffffffffffffffffffffffffffffffffffffffffffffffffffffffffffff038211156110545761105361124e565b5b828201905092915050565b600061106a826110f7565b9150611075836110f7565b9250817fffffffffffffffffffffffffffffffffffffffffffffffffffffffffffffffff04831182151516156110ae576110ad61124e565b5b828202905092915050565b60006110c4826110d7565b9050919050565b60008115159050919050565b600073ffffffffffffffffffffffffffffffffffffffff82169050919050565b6000819050919050565b82818337600083830152505050565b60005b8381101561112e578082015181840152602081019050611113565b8381111561113d576000848401525b50505050565b6000600282049050600182168061115b57607f821691505b6020821081141561116f5761116e6112ac565b5b50919050565b61117e8261134d565b810181811067ffffffffffffffff8211171561119d5761119c61130a565b5b80604052505050565b60006111b1826110f7565b91507fffffffffffffffffffffffffffffffffffffffffffffffffffffffffffffffff8214156111e4576111e361124e565b5b600182019050919050565b60006111fa82611201565b9050919050565b600061120c8261135e565b9050919050565b6000819050919050565b6000611228826110f7565b9150611233836110f7565b9250826112435761124261127d565b5b828206905092915050565b7f4e487b7100000000000000000000000000000000000000000000000000000000600052601160045260246000fd5b7f4e487b7100000000000000000000000000000000000000000000000000000000600052601260045260246000fd5b7f4e487b7100000000000000000000000000000000000000000000000000000000600052602260045260246000fd5b7f4e487b7100000000000000000000000000000000000000000000000000000000600052603260045260246000fd5b7f4e487b7100000000000000000000000000000000000000000000000000000000600052604160045260246000fd5b600080fd5b600080fd5b600080fd5b600080fd5b6000601f19601f8301169050919050565b60008160601b9050919050565b7f76616c75652063616e6e6f74206265206e756c6c000000000000000000000000600082015250565b7f546865206f776e65722063616e6e6f7420796574206164642061206e6577206860008201527f6f6d650000000000000000000000000000000000000000000000000000000000602082015250565b7f7468697320686f757365496420616c7265616479206578697374730000000000600082015250565b7f596f7520646f206e6f7420686176652061636365737320746f2064656c65746560008201527f207468697320686f757365000000000000000000000000000000000000000000602082015250565b611464816110b9565b811461146f57600080fd5b50565b61147b816110f7565b811461148657600080fd5b5056fea26469706673582212204014cba81838ed3c266369f3d00beb43bc10a4060432c1e83ca679cd997dffee64736f6c63430008070033",
					"opcodes": "PUSH1 0x80 PUSH1 0x40 MSTORE PUSH1 0x5 PUSH1 0x0 SSTORE PUSH1 0x0 SLOAD PUSH1 0xA PUSH3 0x1A SWAP2 SWAP1 PUSH3 0x98 JUMP JUMPDEST PUSH1 0x1 SSTORE PUSH3 0x15180 PUSH1 0x2 SSTORE PUSH1 0x1 PUSH1 0x3 SSTORE CALLVALUE DUP1 ISZERO PUSH3 0x36 JUMPI PUSH1 0x0 DUP1 REVERT JUMPDEST POP PUSH3 0x21B JUMP JUMPDEST PUSH1 0x0 DUP1 DUP3 SWAP2 POP DUP4 SWAP1 POP JUMPDEST PUSH1 0x1 DUP6 GT ISZERO PUSH3 0x8F JUMPI DUP1 DUP7 DIV DUP2 GT ISZERO PUSH3 0x67 JUMPI PUSH3 0x66 PUSH3 0x1DF JUMP JUMPDEST JUMPDEST PUSH1 0x1 DUP6 AND ISZERO PUSH3 0x77 JUMPI DUP1 DUP3 MUL SWAP2 POP JUMPDEST DUP1 DUP2 MUL SWAP1 POP PUSH3 0x87 DUP6 PUSH3 0x20E JUMP JUMPDEST SWAP5 POP PUSH3 0x47 JUMP JUMPDEST SWAP5 POP SWAP5 SWAP3 POP POP POP JUMP JUMPDEST PUSH1 0x0 PUSH3 0xA5 DUP3 PUSH3 0x1D5 JUMP JUMPDEST SWAP2 POP PUSH3 0xB2 DUP4 PUSH3 0x1D5 JUMP JUMPDEST SWAP3 POP PUSH3 0xE1 PUSH32 0xFFFFFFFFFFFFFFFFFFFFFFFFFFFFFFFFFFFFFFFFFFFFFFFFFFFFFFFFFFFFFFFF DUP5 DUP5 PUSH3 0xE9 JUMP JUMPDEST SWAP1 POP SWAP3 SWAP2 POP POP JUMP JUMPDEST PUSH1 0x0 DUP3 PUSH3 0xFB JUMPI PUSH1 0x1 SWAP1 POP PUSH3 0x1CE JUMP JUMPDEST DUP2 PUSH3 0x10B JUMPI PUSH1 0x0 SWAP1 POP PUSH3 0x1CE JUMP JUMPDEST DUP2 PUSH1 0x1 DUP2 EQ PUSH3 0x124 JUMPI PUSH1 0x2 DUP2 EQ PUSH3 0x12F JUMPI PUSH3 0x165 JUMP JUMPDEST PUSH1 0x1 SWAP2 POP POP PUSH3 0x1CE JUMP JUMPDEST PUSH1 0xFF DUP5 GT ISZERO PUSH3 0x144 JUMPI PUSH3 0x143 PUSH3 0x1DF JUMP JUMPDEST JUMPDEST DUP4 PUSH1 0x2 EXP SWAP2 POP DUP5 DUP3 GT ISZERO PUSH3 0x15E JUMPI PUSH3 0x15D PUSH3 0x1DF JUMP JUMPDEST JUMPDEST POP PUSH3 0x1CE JUMP JUMPDEST POP PUSH1 0x20 DUP4 LT PUSH2 0x133 DUP4 LT AND PUSH1 0x4E DUP5 LT PUSH1 0xB DUP5 LT AND OR ISZERO PUSH3 0x19F JUMPI DUP3 DUP3 EXP SWAP1 POP DUP4 DUP2 GT ISZERO PUSH3 0x199 JUMPI PUSH3 0x198 PUSH3 0x1DF JUMP JUMPDEST JUMPDEST PUSH3 0x1CE JUMP JUMPDEST PUSH3 0x1AE DUP5 DUP5 DUP5 PUSH1 0x1 PUSH3 0x3D JUMP JUMPDEST SWAP3 POP SWAP1 POP DUP2 DUP5 DIV DUP2 GT ISZERO PUSH3 0x1C8 JUMPI PUSH3 0x1C7 PUSH3 0x1DF JUMP JUMPDEST JUMPDEST DUP2 DUP2 MUL SWAP1 POP JUMPDEST SWAP4 SWAP3 POP POP POP JUMP JUMPDEST PUSH1 0x0 DUP2 SWAP1 POP SWAP2 SWAP1 POP JUMP JUMPDEST PUSH32 0x4E487B7100000000000000000000000000000000000000000000000000000000 PUSH1 0x0 MSTORE PUSH1 0x11 PUSH1 0x4 MSTORE PUSH1 0x24 PUSH1 0x0 REVERT JUMPDEST PUSH1 0x0 DUP2 PUSH1 0x1 SHR SWAP1 POP SWAP2 SWAP1 POP JUMP JUMPDEST PUSH2 0x14BF DUP1 PUSH3 0x22B PUSH1 0x0 CODECOPY PUSH1 0x0 RETURN INVALID PUSH1 0x80 PUSH1 0x40 MSTORE PUSH1 0x4 CALLDATASIZE LT PUSH2 0x55 JUMPI PUSH1 0x0 CALLDATALOAD PUSH1 0xE0 SHR DUP1 PUSH4 0x3C3B0B4A EQ PUSH2 0x5A JUMPI DUP1 PUSH4 0x4D79658B EQ PUSH2 0x97 JUMPI DUP1 PUSH4 0x91BFE0D4 EQ PUSH2 0xB3 JUMPI DUP1 PUSH4 0xAEDA852F EQ PUSH2 0xF0 JUMPI DUP1 PUSH4 0xBE40A73E EQ PUSH2 0x134 JUMPI DUP1 PUSH4 0xC45E1B25 EQ PUSH2 0x15D JUMPI JUMPDEST PUSH1 0x0 DUP1 REVERT JUMPDEST CALLVALUE DUP1 ISZERO PUSH2 0x66 JUMPI PUSH1 0x0 DUP1 REVERT JUMPDEST POP PUSH2 0x81 PUSH1 0x4 DUP1 CALLDATASIZE SUB DUP2 ADD SWAP1 PUSH2 0x7C SWAP2 SWAP1 PUSH2 0xA75 JUMP JUMPDEST PUSH2 0x19A JUMP JUMPDEST PUSH1 0x40 MLOAD PUSH2 0x8E SWAP2 SWAP1 PUSH2 0xDC5 JUMP JUMPDEST PUSH1 0x40 MLOAD DUP1 SWAP2 SUB SWAP1 RETURN JUMPDEST PUSH2 0xB1 PUSH1 0x4 DUP1 CALLDATASIZE SUB DUP2 ADD SWAP1 PUSH2 0xAC SWAP2 SWAP1 PUSH2 0xA75 JUMP JUMPDEST PUSH2 0x2AC JUMP JUMPDEST STOP JUMPDEST CALLVALUE DUP1 ISZERO PUSH2 0xBF JUMPI PUSH1 0x0 DUP1 REVERT JUMPDEST POP PUSH2 0xDA PUSH1 0x4 DUP1 CALLDATASIZE SUB DUP2 ADD SWAP1 PUSH2 0xD5 SWAP2 SWAP1 PUSH2 0xAA2 JUMP JUMPDEST PUSH2 0x326 JUMP JUMPDEST PUSH1 0x40 MLOAD PUSH2 0xE7 SWAP2 SWAP1 PUSH2 0xE67 JUMP JUMPDEST PUSH1 0x40 MLOAD DUP1 SWAP2 SUB SWAP1 RETURN JUMPDEST CALLVALUE DUP1 ISZERO PUSH2 0xFC JUMPI PUSH1 0x0 DUP1 REVERT JUMPDEST POP PUSH2 0x117 PUSH1 0x4 DUP1 CALLDATASIZE SUB DUP2 ADD SWAP1 PUSH2 0x112 SWAP2 SWAP1 PUSH2 0xA75 JUMP JUMPDEST PUSH2 0x5F1 JUMP JUMPDEST PUSH1 0x40 MLOAD PUSH2 0x12B SWAP9 SWAP8 SWAP7 SWAP6 SWAP5 SWAP4 SWAP3 SWAP2 SWAP1 PUSH2 0xECE JUMP JUMPDEST PUSH1 0x40 MLOAD DUP1 SWAP2 SUB SWAP1 RETURN JUMPDEST CALLVALUE DUP1 ISZERO PUSH2 0x140 JUMPI PUSH1 0x0 DUP1 REVERT JUMPDEST POP PUSH2 0x15B PUSH1 0x4 DUP1 CALLDATASIZE SUB DUP2 ADD SWAP1 PUSH2 0x156 SWAP2 SWAP1 PUSH2 0xB25 JUMP JUMPDEST PUSH2 0x70E JUMP JUMPDEST STOP JUMPDEST CALLVALUE DUP1 ISZERO PUSH2 0x169 JUMPI PUSH1 0x0 DUP1 REVERT JUMPDEST POP PUSH2 0x184 PUSH1 0x4 DUP1 CALLDATASIZE SUB DUP2 ADD SWAP1 PUSH2 0x17F SWAP2 SWAP1 PUSH2 0xA75 JUMP JUMPDEST PUSH2 0x765 JUMP JUMPDEST PUSH1 0x40 MLOAD PUSH2 0x191 SWAP2 SWAP1 PUSH2 0xDA3 JUMP JUMPDEST PUSH1 0x40 MLOAD DUP1 SWAP2 SUB SWAP1 RETURN JUMPDEST PUSH1 0x60 CALLER PUSH20 0xFFFFFFFFFFFFFFFFFFFFFFFFFFFFFFFFFFFFFFFF AND PUSH1 0x6 PUSH1 0x0 DUP5 DUP2 MSTORE PUSH1 0x20 ADD SWAP1 DUP2 MSTORE PUSH1 0x20 ADD PUSH1 0x0 KECCAK256 PUSH1 0x4 ADD PUSH1 0x0 SWAP1 SLOAD SWAP1 PUSH2 0x100 EXP SWAP1 DIV PUSH20 0xFFFFFFFFFFFFFFFFFFFFFFFFFFFFFFFFFFFFFFFF AND PUSH20 0xFFFFFFFFFFFFFFFFFFFFFFFFFFFFFFFFFFFFFFFF AND EQ PUSH2 0x240 JUMPI PUSH1 0x40 MLOAD PUSH32 0x8C379A000000000000000000000000000000000000000000000000000000000 DUP2 MSTORE PUSH1 0x4 ADD PUSH2 0x237 SWAP1 PUSH2 0xE47 JUMP JUMPDEST PUSH1 0x40 MLOAD DUP1 SWAP2 SUB SWAP1 REVERT JUMPDEST PUSH1 0x1 PUSH1 0x6 PUSH1 0x0 DUP5 DUP2 MSTORE PUSH1 0x20 ADD SWAP1 DUP2 MSTORE PUSH1 0x20 ADD PUSH1 0x0 KECCAK256 PUSH1 0x7 ADD PUSH1 0x0 PUSH2 0x100 EXP DUP2 SLOAD DUP2 PUSH1 0xFF MUL NOT AND SWAP1 DUP4 ISZERO ISZERO MUL OR SWAP1 SSTORE POP PUSH1 0x40 MLOAD DUP1 PUSH1 0x40 ADD PUSH1 0x40 MSTORE DUP1 PUSH1 0x15 DUP2 MSTORE PUSH1 0x20 ADD PUSH32 0x64656C69737420776173207375636365737366756C0000000000000000000000 DUP2 MSTORE POP SWAP1 POP SWAP2 SWAP1 POP JUMP JUMPDEST PUSH1 0x6 PUSH1 0x0 DUP3 DUP2 MSTORE PUSH1 0x20 ADD SWAP1 DUP2 MSTORE PUSH1 0x20 ADD PUSH1 0x0 KECCAK256 PUSH1 0x2 ADD SLOAD CALLVALUE GT PUSH2 0x2CE JUMPI PUSH1 0x0 DUP1 REVERT JUMPDEST CALLER PUSH1 0x6 PUSH1 0x0 DUP4 DUP2 MSTORE PUSH1 0x20 ADD SWAP1 DUP2 MSTORE PUSH1 0x20 ADD PUSH1 0x0 KECCAK256 PUSH1 0x5 ADD PUSH1 0x0 PUSH2 0x100 EXP DUP2 SLOAD DUP2 PUSH20 0xFFFFFFFFFFFFFFFFFFFFFFFFFFFFFFFFFFFFFFFF MUL NOT AND SWAP1 DUP4 PUSH20 0xFFFFFFFFFFFFFFFFFFFFFFFFFFFFFFFFFFFFFFFF AND MUL OR SWAP1 SSTORE POP POP JUMP JUMPDEST PUSH1 0x0 DUP1 DUP5 DUP7 PUSH2 0x335 SWAP2 SWAP1 PUSH2 0x105F JUMP JUMPDEST GT PUSH2 0x375 JUMPI PUSH1 0x40 MLOAD PUSH32 0x8C379A000000000000000000000000000000000000000000000000000000000 DUP2 MSTORE PUSH1 0x4 ADD PUSH2 0x36C SWAP1 PUSH2 0xDE7 JUMP JUMPDEST PUSH1 0x40 MLOAD DUP1 SWAP2 SUB SWAP1 REVERT JUMPDEST PUSH1 0x0 PUSH2 0x382 DUP5 DUP7 DUP6 PUSH2 0x8E3 JUMP JUMPDEST SWAP1 POP PUSH1 0x6 PUSH1 0x0 DUP3 DUP2 MSTORE PUSH1 0x20 ADD SWAP1 DUP2 MSTORE PUSH1 0x20 ADD PUSH1 0x0 KECCAK256 PUSH1 0x0 ADD SLOAD DUP2 EQ ISZERO PUSH2 0x3DD JUMPI PUSH1 0x40 MLOAD PUSH32 0x8C379A000000000000000000000000000000000000000000000000000000000 DUP2 MSTORE PUSH1 0x4 ADD PUSH2 0x3D4 SWAP1 PUSH2 0xE27 JUMP JUMPDEST PUSH1 0x40 MLOAD DUP1 SWAP2 SUB SWAP1 REVERT JUMPDEST PUSH1 0x40 MLOAD DUP1 PUSH2 0x100 ADD PUSH1 0x40 MSTORE DUP1 DUP3 DUP2 MSTORE PUSH1 0x20 ADD PUSH1 0x3 SLOAD DUP2 MSTORE PUSH1 0x20 ADD DUP8 DUP2 MSTORE PUSH1 0x20 ADD DUP7 DUP2 MSTORE PUSH1 0x20 ADD DUP6 PUSH20 0xFFFFFFFFFFFFFFFFFFFFFFFFFFFFFFFFFFFFFFFF AND DUP2 MSTORE PUSH1 0x20 ADD DUP6 PUSH20 0xFFFFFFFFFFFFFFFFFFFFFFFFFFFFFFFFFFFFFFFF AND DUP2 MSTORE PUSH1 0x20 ADD DUP5 DUP2 MSTORE PUSH1 0x20 ADD PUSH1 0x0 ISZERO ISZERO DUP2 MSTORE POP PUSH1 0x6 PUSH1 0x0 DUP4 DUP2 MSTORE PUSH1 0x20 ADD SWAP1 DUP2 MSTORE PUSH1 0x20 ADD PUSH1 0x0 KECCAK256 PUSH1 0x0 DUP3 ADD MLOAD DUP2 PUSH1 0x0 ADD SSTORE PUSH1 0x20 DUP3 ADD MLOAD DUP2 PUSH1 0x1 ADD SSTORE PUSH1 0x40 DUP3 ADD MLOAD DUP2 PUSH1 0x2 ADD SSTORE PUSH1 0x60 DUP3 ADD MLOAD DUP2 PUSH1 0x3 ADD SSTORE PUSH1 0x80 DUP3 ADD MLOAD DUP2 PUSH1 0x4 ADD PUSH1 0x0 PUSH2 0x100 EXP DUP2 SLOAD DUP2 PUSH20 0xFFFFFFFFFFFFFFFFFFFFFFFFFFFFFFFFFFFFFFFF MUL NOT AND SWAP1 DUP4 PUSH20 0xFFFFFFFFFFFFFFFFFFFFFFFFFFFFFFFFFFFFFFFF AND MUL OR SWAP1 SSTORE POP PUSH1 0xA0 DUP3 ADD MLOAD DUP2 PUSH1 0x5 ADD PUSH1 0x0 PUSH2 0x100 EXP DUP2 SLOAD DUP2 PUSH20 0xFFFFFFFFFFFFFFFFFFFFFFFFFFFFFFFFFFFFFFFF MUL NOT AND SWAP1 DUP4 PUSH20 0xFFFFFFFFFFFFFFFFFFFFFFFFFFFFFFFFFFFFFFFF AND MUL OR SWAP1 SSTORE POP PUSH1 0xC0 DUP3 ADD MLOAD DUP2 PUSH1 0x6 ADD SWAP1 DUP1 MLOAD SWAP1 PUSH1 0x20 ADD SWAP1 PUSH2 0x52D SWAP3 SWAP2 SWAP1 PUSH2 0x938 JUMP JUMPDEST POP PUSH1 0xE0 DUP3 ADD MLOAD DUP2 PUSH1 0x7 ADD PUSH1 0x0 PUSH2 0x100 EXP DUP2 SLOAD DUP2 PUSH1 0xFF MUL NOT AND SWAP1 DUP4 ISZERO ISZERO MUL OR SWAP1 SSTORE POP SWAP1 POP POP PUSH2 0x567 PUSH1 0x2 SLOAD TIMESTAMP PUSH2 0x562 SWAP2 SWAP1 PUSH2 0x1009 JUMP JUMPDEST PUSH2 0x92E JUMP JUMPDEST PUSH1 0x5 DUP2 SWAP1 DUP1 PUSH1 0x1 DUP2 SLOAD ADD DUP1 DUP3 SSTORE DUP1 SWAP2 POP POP PUSH1 0x1 SWAP1 SUB SWAP1 PUSH1 0x0 MSTORE PUSH1 0x20 PUSH1 0x0 KECCAK256 ADD PUSH1 0x0 SWAP1 SWAP2 SWAP1 SWAP2 SWAP1 SWAP2 POP SSTORE PUSH1 0x3 PUSH1 0x0 DUP2 SLOAD DUP1 SWAP3 SWAP2 SWAP1 PUSH2 0x5A3 SWAP1 PUSH2 0x11A6 JUMP JUMPDEST SWAP2 SWAP1 POP SSTORE POP PUSH32 0x8F5AFD88EB4BE0AC287D87970052CE9A2B453448408E3C91A695AD7509AB7194 DUP2 DUP6 DUP9 DUP7 PUSH1 0x40 MLOAD PUSH2 0x5DD SWAP5 SWAP4 SWAP3 SWAP2 SWAP1 PUSH2 0xE82 JUMP JUMPDEST PUSH1 0x40 MLOAD DUP1 SWAP2 SUB SWAP1 LOG1 DUP1 SWAP2 POP POP SWAP5 SWAP4 POP POP POP POP JUMP JUMPDEST PUSH1 0x6 PUSH1 0x20 MSTORE DUP1 PUSH1 0x0 MSTORE PUSH1 0x40 PUSH1 0x0 KECCAK256 PUSH1 0x0 SWAP2 POP SWAP1 POP DUP1 PUSH1 0x0 ADD SLOAD SWAP1 DUP1 PUSH1 0x1 ADD SLOAD SWAP1 DUP1 PUSH1 0x2 ADD SLOAD SWAP1 DUP1 PUSH1 0x3 ADD SLOAD SWAP1 DUP1 PUSH1 0x4 ADD PUSH1 0x0 SWAP1 SLOAD SWAP1 PUSH2 0x100 EXP SWAP1 DIV PUSH20 0xFFFFFFFFFFFFFFFFFFFFFFFFFFFFFFFFFFFFFFFF AND SWAP1 DUP1 PUSH1 0x5 ADD PUSH1 0x0 SWAP1 SLOAD SWAP1 PUSH2 0x100 EXP SWAP1 DIV PUSH20 0xFFFFFFFFFFFFFFFFFFFFFFFFFFFFFFFFFFFFFFFF AND SWAP1 DUP1 PUSH1 0x6 ADD DUP1 SLOAD PUSH2 0x678 SWAP1 PUSH2 0x1143 JUMP JUMPDEST DUP1 PUSH1 0x1F ADD PUSH1 0x20 DUP1 SWAP2 DIV MUL PUSH1 0x20 ADD PUSH1 0x40 MLOAD SWAP1 DUP2 ADD PUSH1 0x40 MSTORE DUP1 SWAP3 SWAP2 SWAP1 DUP2 DUP2 MSTORE PUSH1 0x20 ADD DUP3 DUP1 SLOAD PUSH2 0x6A4 SWAP1 PUSH2 0x1143 JUMP JUMPDEST DUP1 ISZERO PUSH2 0x6F1 JUMPI DUP1 PUSH1 0x1F LT PUSH2 0x6C6 JUMPI PUSH2 0x100 DUP1 DUP4 SLOAD DIV MUL DUP4 MSTORE SWAP2 PUSH1 0x20 ADD SWAP2 PUSH2 0x6F1 JUMP JUMPDEST DUP3 ADD SWAP2 SWAP1 PUSH1 0x0 MSTORE PUSH1 0x20 PUSH1 0x0 KECCAK256 SWAP1 JUMPDEST DUP2 SLOAD DUP2 MSTORE SWAP1 PUSH1 0x1 ADD SWAP1 PUSH1 0x20 ADD DUP1 DUP4 GT PUSH2 0x6D4 JUMPI DUP3 SWAP1 SUB PUSH1 0x1F AND DUP3 ADD SWAP2 JUMPDEST POP POP POP POP POP SWAP1 DUP1 PUSH1 0x7 ADD PUSH1 0x0 SWAP1 SLOAD SWAP1 PUSH2 0x100 EXP SWAP1 DIV PUSH1 0xFF AND SWAP1 POP DUP9 JUMP JUMPDEST TIMESTAMP PUSH1 0x4 SLOAD GT ISZERO PUSH2 0x753 JUMPI PUSH1 0x40 MLOAD PUSH32 0x8C379A000000000000000000000000000000000000000000000000000000000 DUP2 MSTORE PUSH1 0x4 ADD PUSH2 0x74A SWAP1 PUSH2 0xE07 JUMP JUMPDEST PUSH1 0x40 MLOAD DUP1 SWAP2 SUB SWAP1 REVERT JUMPDEST PUSH2 0x75F DUP4 DUP4 CALLER DUP5 PUSH2 0x326 JUMP JUMPDEST POP POP POP POP JUMP JUMPDEST PUSH1 0x60 PUSH1 0x0 DUP1 JUMPDEST PUSH1 0x5 DUP1 SLOAD SWAP1 POP DUP2 LT ISZERO PUSH2 0x7D6 JUMPI DUP4 PUSH1 0x6 PUSH1 0x0 PUSH1 0x5 DUP5 DUP2 SLOAD DUP2 LT PUSH2 0x791 JUMPI PUSH2 0x790 PUSH2 0x12DB JUMP JUMPDEST JUMPDEST SWAP1 PUSH1 0x0 MSTORE PUSH1 0x20 PUSH1 0x0 KECCAK256 ADD SLOAD DUP2 MSTORE PUSH1 0x20 ADD SWAP1 DUP2 MSTORE PUSH1 0x20 ADD PUSH1 0x0 KECCAK256 PUSH1 0x2 ADD SLOAD LT ISZERO PUSH2 0x7C3 JUMPI DUP2 DUP1 PUSH2 0x7BF SWAP1 PUSH2 0x11A6 JUMP JUMPDEST SWAP3 POP POP JUMPDEST DUP1 DUP1 PUSH2 0x7CE SWAP1 PUSH2 0x11A6 JUMP JUMPDEST SWAP2 POP POP PUSH2 0x76B JUMP JUMPDEST POP PUSH1 0x0 DUP2 PUSH8 0xFFFFFFFFFFFFFFFF DUP2 GT ISZERO PUSH2 0x7F3 JUMPI PUSH2 0x7F2 PUSH2 0x130A JUMP JUMPDEST JUMPDEST PUSH1 0x40 MLOAD SWAP1 DUP1 DUP3 MSTORE DUP1 PUSH1 0x20 MUL PUSH1 0x20 ADD DUP3 ADD PUSH1 0x40 MSTORE DUP1 ISZERO PUSH2 0x821 JUMPI DUP2 PUSH1 0x20 ADD PUSH1 0x20 DUP3 MUL DUP1 CALLDATASIZE DUP4 CALLDATACOPY DUP1 DUP3 ADD SWAP2 POP POP SWAP1 POP JUMPDEST POP SWAP1 POP PUSH1 0x0 JUMPDEST PUSH1 0x5 DUP1 SLOAD SWAP1 POP DUP2 LT ISZERO PUSH2 0x8D8 JUMPI DUP5 PUSH1 0x6 PUSH1 0x0 PUSH1 0x5 DUP5 DUP2 SLOAD DUP2 LT PUSH2 0x84D JUMPI PUSH2 0x84C PUSH2 0x12DB JUMP JUMPDEST JUMPDEST SWAP1 PUSH1 0x0 MSTORE PUSH1 0x20 PUSH1 0x0 KECCAK256 ADD SLOAD DUP2 MSTORE PUSH1 0x20 ADD SWAP1 DUP2 MSTORE PUSH1 0x20 ADD PUSH1 0x0 KECCAK256 PUSH1 0x2 ADD SLOAD LT ISZERO PUSH2 0x8C5 JUMPI PUSH1 0x6 PUSH1 0x0 PUSH1 0x5 DUP4 DUP2 SLOAD DUP2 LT PUSH2 0x888 JUMPI PUSH2 0x887 PUSH2 0x12DB JUMP JUMPDEST JUMPDEST SWAP1 PUSH1 0x0 MSTORE PUSH1 0x20 PUSH1 0x0 KECCAK256 ADD SLOAD DUP2 MSTORE PUSH1 0x20 ADD SWAP1 DUP2 MSTORE PUSH1 0x20 ADD PUSH1 0x0 KECCAK256 PUSH1 0x0 ADD SLOAD DUP3 DUP3 DUP2 MLOAD DUP2 LT PUSH2 0x8B8 JUMPI PUSH2 0x8B7 PUSH2 0x12DB JUMP JUMPDEST JUMPDEST PUSH1 0x20 MUL PUSH1 0x20 ADD ADD DUP2 DUP2 MSTORE POP POP JUMPDEST DUP1 DUP1 PUSH2 0x8D0 SWAP1 PUSH2 0x11A6 JUMP JUMPDEST SWAP2 POP POP PUSH2 0x827 JUMP JUMPDEST POP DUP1 SWAP3 POP POP POP SWAP2 SWAP1 POP JUMP JUMPDEST PUSH1 0x0 DUP1 DUP5 DUP5 DUP5 PUSH1 0x40 MLOAD PUSH1 0x20 ADD PUSH2 0x8FB SWAP4 SWAP3 SWAP2 SWAP1 PUSH2 0xD6A JUMP JUMPDEST PUSH1 0x40 MLOAD PUSH1 0x20 DUP2 DUP4 SUB SUB DUP2 MSTORE SWAP1 PUSH1 0x40 MSTORE DUP1 MLOAD SWAP1 PUSH1 0x20 ADD KECCAK256 PUSH1 0x0 SHR SWAP1 POP PUSH1 0x1 SLOAD DUP2 PUSH2 0x924 SWAP2 SWAP1 PUSH2 0x121D JUMP JUMPDEST SWAP2 POP POP SWAP4 SWAP3 POP POP POP JUMP JUMPDEST DUP1 PUSH1 0x4 DUP2 SWAP1 SSTORE POP POP JUMP JUMPDEST DUP3 DUP1 SLOAD PUSH2 0x944 SWAP1 PUSH2 0x1143 JUMP JUMPDEST SWAP1 PUSH1 0x0 MSTORE PUSH1 0x20 PUSH1 0x0 KECCAK256 SWAP1 PUSH1 0x1F ADD PUSH1 0x20 SWAP1 DIV DUP2 ADD SWAP3 DUP3 PUSH2 0x966 JUMPI PUSH1 0x0 DUP6 SSTORE PUSH2 0x9AD JUMP JUMPDEST DUP3 PUSH1 0x1F LT PUSH2 0x97F JUMPI DUP1 MLOAD PUSH1 0xFF NOT AND DUP4 DUP1 ADD OR DUP6 SSTORE PUSH2 0x9AD JUMP JUMPDEST DUP3 DUP1 ADD PUSH1 0x1 ADD DUP6 SSTORE DUP3 ISZERO PUSH2 0x9AD JUMPI SWAP2 DUP3 ADD JUMPDEST DUP3 DUP2 GT ISZERO PUSH2 0x9AC JUMPI DUP3 MLOAD DUP3 SSTORE SWAP2 PUSH1 0x20 ADD SWAP2 SWAP1 PUSH1 0x1 ADD SWAP1 PUSH2 0x991 JUMP JUMPDEST JUMPDEST POP SWAP1 POP PUSH2 0x9BA SWAP2 SWAP1 PUSH2 0x9BE JUMP JUMPDEST POP SWAP1 JUMP JUMPDEST JUMPDEST DUP1 DUP3 GT ISZERO PUSH2 0x9D7 JUMPI PUSH1 0x0 DUP2 PUSH1 0x0 SWAP1 SSTORE POP PUSH1 0x1 ADD PUSH2 0x9BF JUMP JUMPDEST POP SWAP1 JUMP JUMPDEST PUSH1 0x0 PUSH2 0x9EE PUSH2 0x9E9 DUP5 PUSH2 0xF78 JUMP JUMPDEST PUSH2 0xF53 JUMP JUMPDEST SWAP1 POP DUP3 DUP2 MSTORE PUSH1 0x20 DUP2 ADD DUP5 DUP5 DUP5 ADD GT ISZERO PUSH2 0xA0A JUMPI PUSH2 0xA09 PUSH2 0x133E JUMP JUMPDEST JUMPDEST PUSH2 0xA15 DUP5 DUP3 DUP6 PUSH2 0x1101 JUMP JUMPDEST POP SWAP4 SWAP3 POP POP POP JUMP JUMPDEST PUSH1 0x0 DUP2 CALLDATALOAD SWAP1 POP PUSH2 0xA2C DUP2 PUSH2 0x145B JUMP JUMPDEST SWAP3 SWAP2 POP POP JUMP JUMPDEST PUSH1 0x0 DUP3 PUSH1 0x1F DUP4 ADD SLT PUSH2 0xA47 JUMPI PUSH2 0xA46 PUSH2 0x1339 JUMP JUMPDEST JUMPDEST DUP2 CALLDATALOAD PUSH2 0xA57 DUP5 DUP3 PUSH1 0x20 DUP7 ADD PUSH2 0x9DB JUMP JUMPDEST SWAP2 POP POP SWAP3 SWAP2 POP POP JUMP JUMPDEST PUSH1 0x0 DUP2 CALLDATALOAD SWAP1 POP PUSH2 0xA6F DUP2 PUSH2 0x1472 JUMP JUMPDEST SWAP3 SWAP2 POP POP JUMP JUMPDEST PUSH1 0x0 PUSH1 0x20 DUP3 DUP5 SUB SLT ISZERO PUSH2 0xA8B JUMPI PUSH2 0xA8A PUSH2 0x1348 JUMP JUMPDEST JUMPDEST PUSH1 0x0 PUSH2 0xA99 DUP5 DUP3 DUP6 ADD PUSH2 0xA60 JUMP JUMPDEST SWAP2 POP POP SWAP3 SWAP2 POP POP JUMP JUMPDEST PUSH1 0x0 DUP1 PUSH1 0x0 DUP1 PUSH1 0x80 DUP6 DUP8 SUB SLT ISZERO PUSH2 0xABC JUMPI PUSH2 0xABB PUSH2 0x1348 JUMP JUMPDEST JUMPDEST PUSH1 0x0 PUSH2 0xACA DUP8 DUP3 DUP9 ADD PUSH2 0xA60 JUMP JUMPDEST SWAP5 POP POP PUSH1 0x20 PUSH2 0xADB DUP8 DUP3 DUP9 ADD PUSH2 0xA60 JUMP JUMPDEST SWAP4 POP POP PUSH1 0x40 PUSH2 0xAEC DUP8 DUP3 DUP9 ADD PUSH2 0xA1D JUMP JUMPDEST SWAP3 POP POP PUSH1 0x60 DUP6 ADD CALLDATALOAD PUSH8 0xFFFFFFFFFFFFFFFF DUP2 GT ISZERO PUSH2 0xB0D JUMPI PUSH2 0xB0C PUSH2 0x1343 JUMP JUMPDEST JUMPDEST PUSH2 0xB19 DUP8 DUP3 DUP9 ADD PUSH2 0xA32 JUMP JUMPDEST SWAP2 POP POP SWAP3 SWAP6 SWAP2 SWAP5 POP SWAP3 POP JUMP JUMPDEST PUSH1 0x0 DUP1 PUSH1 0x0 PUSH1 0x60 DUP5 DUP7 SUB SLT ISZERO PUSH2 0xB3E JUMPI PUSH2 0xB3D PUSH2 0x1348 JUMP JUMPDEST JUMPDEST PUSH1 0x0 PUSH2 0xB4C DUP7 DUP3 DUP8 ADD PUSH2 0xA60 JUMP JUMPDEST SWAP4 POP POP PUSH1 0x20 PUSH2 0xB5D DUP7 DUP3 DUP8 ADD PUSH2 0xA60 JUMP JUMPDEST SWAP3 POP POP PUSH1 0x40 DUP5 ADD CALLDATALOAD PUSH8 0xFFFFFFFFFFFFFFFF DUP2 GT ISZERO PUSH2 0xB7E JUMPI PUSH2 0xB7D PUSH2 0x1343 JUMP JUMPDEST JUMPDEST PUSH2 0xB8A DUP7 DUP3 DUP8 ADD PUSH2 0xA32 JUMP JUMPDEST SWAP2 POP POP SWAP3 POP SWAP3 POP SWAP3 JUMP JUMPDEST PUSH1 0x0 PUSH2 0xBA0 DUP4 DUP4 PUSH2 0xD35 JUMP JUMPDEST PUSH1 0x20 DUP4 ADD SWAP1 POP SWAP3 SWAP2 POP POP JUMP JUMPDEST PUSH2 0xBB5 DUP2 PUSH2 0x10B9 JUMP JUMPDEST DUP3 MSTORE POP POP JUMP JUMPDEST PUSH2 0xBCC PUSH2 0xBC7 DUP3 PUSH2 0x10B9 JUMP JUMPDEST PUSH2 0x11EF JUMP JUMPDEST DUP3 MSTORE POP POP JUMP JUMPDEST PUSH1 0x0 PUSH2 0xBDD DUP3 PUSH2 0xFB9 JUMP JUMPDEST PUSH2 0xBE7 DUP2 DUP6 PUSH2 0xFDC JUMP JUMPDEST SWAP4 POP PUSH2 0xBF2 DUP4 PUSH2 0xFA9 JUMP JUMPDEST DUP1 PUSH1 0x0 JUMPDEST DUP4 DUP2 LT ISZERO PUSH2 0xC23 JUMPI DUP2 MLOAD PUSH2 0xC0A DUP9 DUP3 PUSH2 0xB94 JUMP JUMPDEST SWAP8 POP PUSH2 0xC15 DUP4 PUSH2 0xFCF JUMP JUMPDEST SWAP3 POP POP PUSH1 0x1 DUP2 ADD SWAP1 POP PUSH2 0xBF6 JUMP JUMPDEST POP DUP6 SWAP4 POP POP POP POP SWAP3 SWAP2 POP POP JUMP JUMPDEST PUSH2 0xC39 DUP2 PUSH2 0x10CB JUMP JUMPDEST DUP3 MSTORE POP POP JUMP JUMPDEST PUSH1 0x0 PUSH2 0xC4A DUP3 PUSH2 0xFC4 JUMP JUMPDEST PUSH2 0xC54 DUP2 DUP6 PUSH2 0xFED JUMP JUMPDEST SWAP4 POP PUSH2 0xC64 DUP2 DUP6 PUSH1 0x20 DUP7 ADD PUSH2 0x1110 JUMP JUMPDEST PUSH2 0xC6D DUP2 PUSH2 0x134D JUMP JUMPDEST DUP5 ADD SWAP2 POP POP SWAP3 SWAP2 POP POP JUMP JUMPDEST PUSH1 0x0 PUSH2 0xC83 DUP3 PUSH2 0xFC4 JUMP JUMPDEST PUSH2 0xC8D DUP2 DUP6 PUSH2 0xFFE JUMP JUMPDEST SWAP4 POP PUSH2 0xC9D DUP2 DUP6 PUSH1 0x20 DUP7 ADD PUSH2 0x1110 JUMP JUMPDEST DUP1 DUP5 ADD SWAP2 POP POP SWAP3 SWAP2 POP POP JUMP JUMPDEST PUSH1 0x0 PUSH2 0xCB6 PUSH1 0x14 DUP4 PUSH2 0xFED JUMP JUMPDEST SWAP2 POP PUSH2 0xCC1 DUP3 PUSH2 0x136B JUMP JUMPDEST PUSH1 0x20 DUP3 ADD SWAP1 POP SWAP2 SWAP1 POP JUMP JUMPDEST PUSH1 0x0 PUSH2 0xCD9 PUSH1 0x23 DUP4 PUSH2 0xFED JUMP JUMPDEST SWAP2 POP PUSH2 0xCE4 DUP3 PUSH2 0x1394 JUMP JUMPDEST PUSH1 0x40 DUP3 ADD SWAP1 POP SWAP2 SWAP1 POP JUMP JUMPDEST PUSH1 0x0 PUSH2 0xCFC PUSH1 0x1B DUP4 PUSH2 0xFED JUMP JUMPDEST SWAP2 POP PUSH2 0xD07 DUP3 PUSH2 0x13E3 JUMP JUMPDEST PUSH1 0x20 DUP3 ADD SWAP1 POP SWAP2 SWAP1 POP JUMP JUMPDEST PUSH1 0x0 PUSH2 0xD1F PUSH1 0x2B DUP4 PUSH2 0xFED JUMP JUMPDEST SWAP2 POP PUSH2 0xD2A DUP3 PUSH2 0x140C JUMP JUMPDEST PUSH1 0x40 DUP3 ADD SWAP1 POP SWAP2 SWAP1 POP JUMP JUMPDEST PUSH2 0xD3E DUP2 PUSH2 0x10F7 JUMP JUMPDEST DUP3 MSTORE POP POP JUMP JUMPDEST PUSH2 0xD4D DUP2 PUSH2 0x10F7 JUMP JUMPDEST DUP3 MSTORE POP POP JUMP JUMPDEST PUSH2 0xD64 PUSH2 0xD5F DUP3 PUSH2 0x10F7 JUMP JUMPDEST PUSH2 0x1213 JUMP JUMPDEST DUP3 MSTORE POP POP JUMP JUMPDEST PUSH1 0x0 PUSH2 0xD76 DUP3 DUP7 PUSH2 0xBBB JUMP JUMPDEST PUSH1 0x14 DUP3 ADD SWAP2 POP PUSH2 0xD86 DUP3 DUP6 PUSH2 0xD53 JUMP JUMPDEST PUSH1 0x20 DUP3 ADD SWAP2 POP PUSH2 0xD96 DUP3 DUP5 PUSH2 0xC78 JUMP JUMPDEST SWAP2 POP DUP2 SWAP1 POP SWAP5 SWAP4 POP POP POP POP JUMP JUMPDEST PUSH1 0x0 PUSH1 0x20 DUP3 ADD SWAP1 POP DUP2 DUP2 SUB PUSH1 0x0 DUP4 ADD MSTORE PUSH2 0xDBD DUP2 DUP5 PUSH2 0xBD2 JUMP JUMPDEST SWAP1 POP SWAP3 SWAP2 POP POP JUMP JUMPDEST PUSH1 0x0 PUSH1 0x20 DUP3 ADD SWAP1 POP DUP2 DUP2 SUB PUSH1 0x0 DUP4 ADD MSTORE PUSH2 0xDDF DUP2 DUP5 PUSH2 0xC3F JUMP JUMPDEST SWAP1 POP SWAP3 SWAP2 POP POP JUMP JUMPDEST PUSH1 0x0 PUSH1 0x20 DUP3 ADD SWAP1 POP DUP2 DUP2 SUB PUSH1 0x0 DUP4 ADD MSTORE PUSH2 0xE00 DUP2 PUSH2 0xCA9 JUMP JUMPDEST SWAP1 POP SWAP2 SWAP1 POP JUMP JUMPDEST PUSH1 0x0 PUSH1 0x20 DUP3 ADD SWAP1 POP DUP2 DUP2 SUB PUSH1 0x0 DUP4 ADD MSTORE PUSH2 0xE20 DUP2 PUSH2 0xCCC JUMP JUMPDEST SWAP1 POP SWAP2 SWAP1 POP JUMP JUMPDEST PUSH1 0x0 PUSH1 0x20 DUP3 ADD SWAP1 POP DUP2 DUP2 SUB PUSH1 0x0 DUP4 ADD MSTORE PUSH2 0xE40 DUP2 PUSH2 0xCEF JUMP JUMPDEST SWAP1 POP SWAP2 SWAP1 POP JUMP JUMPDEST PUSH1 0x0 PUSH1 0x20 DUP3 ADD SWAP1 POP DUP2 DUP2 SUB PUSH1 0x0 DUP4 ADD MSTORE PUSH2 0xE60 DUP2 PUSH2 0xD12 JUMP JUMPDEST SWAP1 POP SWAP2 SWAP1 POP JUMP JUMPDEST PUSH1 0x0 PUSH1 0x20 DUP3 ADD SWAP1 POP PUSH2 0xE7C PUSH1 0x0 DUP4 ADD DUP5 PUSH2 0xD44 JUMP JUMPDEST SWAP3 SWAP2 POP POP JUMP JUMPDEST PUSH1 0x0 PUSH1 0x80 DUP3 ADD SWAP1 POP PUSH2 0xE97 PUSH1 0x0 DUP4 ADD DUP8 PUSH2 0xD44 JUMP JUMPDEST PUSH2 0xEA4 PUSH1 0x20 DUP4 ADD DUP7 PUSH2 0xBAC JUMP JUMPDEST PUSH2 0xEB1 PUSH1 0x40 DUP4 ADD DUP6 PUSH2 0xD44 JUMP JUMPDEST DUP2 DUP2 SUB PUSH1 0x60 DUP4 ADD MSTORE PUSH2 0xEC3 DUP2 DUP5 PUSH2 0xC3F JUMP JUMPDEST SWAP1 POP SWAP6 SWAP5 POP POP POP POP POP JUMP JUMPDEST PUSH1 0x0 PUSH2 0x100 DUP3 ADD SWAP1 POP PUSH2 0xEE4 PUSH1 0x0 DUP4 ADD DUP12 PUSH2 0xD44 JUMP JUMPDEST PUSH2 0xEF1 PUSH1 0x20 DUP4 ADD DUP11 PUSH2 0xD44 JUMP JUMPDEST PUSH2 0xEFE PUSH1 0x40 DUP4 ADD DUP10 PUSH2 0xD44 JUMP JUMPDEST PUSH2 0xF0B PUSH1 0x60 DUP4 ADD DUP9 PUSH2 0xD44 JUMP JUMPDEST PUSH2 0xF18 PUSH1 0x80 DUP4 ADD DUP8 PUSH2 0xBAC JUMP JUMPDEST PUSH2 0xF25 PUSH1 0xA0 DUP4 ADD DUP7 PUSH2 0xBAC JUMP JUMPDEST DUP2 DUP2 SUB PUSH1 0xC0 DUP4 ADD MSTORE PUSH2 0xF37 DUP2 DUP6 PUSH2 0xC3F JUMP JUMPDEST SWAP1 POP PUSH2 0xF46 PUSH1 0xE0 DUP4 ADD DUP5 PUSH2 0xC30 JUMP JUMPDEST SWAP10 SWAP9 POP POP POP POP POP POP POP POP POP JUMP JUMPDEST PUSH1 0x0 PUSH2 0xF5D PUSH2 0xF6E JUMP JUMPDEST SWAP1 POP PUSH2 0xF69 DUP3 DUP3 PUSH2 0x1175 JUMP JUMPDEST SWAP2 SWAP1 POP JUMP JUMPDEST PUSH1 0x0 PUSH1 0x40 MLOAD SWAP1 POP SWAP1 JUMP JUMPDEST PUSH1 0x0 PUSH8 0xFFFFFFFFFFFFFFFF DUP3 GT ISZERO PUSH2 0xF93 JUMPI PUSH2 0xF92 PUSH2 0x130A JUMP JUMPDEST JUMPDEST PUSH2 0xF9C DUP3 PUSH2 0x134D JUMP JUMPDEST SWAP1 POP PUSH1 0x20 DUP2 ADD SWAP1 POP SWAP2 SWAP1 POP JUMP JUMPDEST PUSH1 0x0 DUP2 SWAP1 POP PUSH1 0x20 DUP3 ADD SWAP1 POP SWAP2 SWAP1 POP JUMP JUMPDEST PUSH1 0x0 DUP2 MLOAD SWAP1 POP SWAP2 SWAP1 POP JUMP JUMPDEST PUSH1 0x0 DUP2 MLOAD SWAP1 POP SWAP2 SWAP1 POP JUMP JUMPDEST PUSH1 0x0 PUSH1 0x20 DUP3 ADD SWAP1 POP SWAP2 SWAP1 POP JUMP JUMPDEST PUSH1 0x0 DUP3 DUP3 MSTORE PUSH1 0x20 DUP3 ADD SWAP1 POP SWAP3 SWAP2 POP POP JUMP JUMPDEST PUSH1 0x0 DUP3 DUP3 MSTORE PUSH1 0x20 DUP3 ADD SWAP1 POP SWAP3 SWAP2 POP POP JUMP JUMPDEST PUSH1 0x0 DUP2 SWAP1 POP SWAP3 SWAP2 POP POP JUMP JUMPDEST PUSH1 0x0 PUSH2 0x1014 DUP3 PUSH2 0x10F7 JUMP JUMPDEST SWAP2 POP PUSH2 0x101F DUP4 PUSH2 0x10F7 JUMP JUMPDEST SWAP3 POP DUP3 PUSH32 0xFFFFFFFFFFFFFFFFFFFFFFFFFFFFFFFFFFFFFFFFFFFFFFFFFFFFFFFFFFFFFFFF SUB DUP3 GT ISZERO PUSH2 0x1054 JUMPI PUSH2 0x1053 PUSH2 0x124E JUMP JUMPDEST JUMPDEST DUP3 DUP3 ADD SWAP1 POP SWAP3 SWAP2 POP POP JUMP JUMPDEST PUSH1 0x0 PUSH2 0x106A DUP3 PUSH2 0x10F7 JUMP JUMPDEST SWAP2 POP PUSH2 0x1075 DUP4 PUSH2 0x10F7 JUMP JUMPDEST SWAP3 POP DUP2 PUSH32 0xFFFFFFFFFFFFFFFFFFFFFFFFFFFFFFFFFFFFFFFFFFFFFFFFFFFFFFFFFFFFFFFF DIV DUP4 GT DUP3 ISZERO ISZERO AND ISZERO PUSH2 0x10AE JUMPI PUSH2 0x10AD PUSH2 0x124E JUMP JUMPDEST JUMPDEST DUP3 DUP3 MUL SWAP1 POP SWAP3 SWAP2 POP POP JUMP JUMPDEST PUSH1 0x0 PUSH2 0x10C4 DUP3 PUSH2 0x10D7 JUMP JUMPDEST SWAP1 POP SWAP2 SWAP1 POP JUMP JUMPDEST PUSH1 0x0 DUP2 ISZERO ISZERO SWAP1 POP SWAP2 SWAP1 POP JUMP JUMPDEST PUSH1 0x0 PUSH20 0xFFFFFFFFFFFFFFFFFFFFFFFFFFFFFFFFFFFFFFFF DUP3 AND SWAP1 POP SWAP2 SWAP1 POP JUMP JUMPDEST PUSH1 0x0 DUP2 SWAP1 POP SWAP2 SWAP1 POP JUMP JUMPDEST DUP3 DUP2 DUP4 CALLDATACOPY PUSH1 0x0 DUP4 DUP4 ADD MSTORE POP POP POP JUMP JUMPDEST PUSH1 0x0 JUMPDEST DUP4 DUP2 LT ISZERO PUSH2 0x112E JUMPI DUP1 DUP3 ADD MLOAD DUP2 DUP5 ADD MSTORE PUSH1 0x20 DUP2 ADD SWAP1 POP PUSH2 0x1113 JUMP JUMPDEST DUP4 DUP2 GT ISZERO PUSH2 0x113D JUMPI PUSH1 0x0 DUP5 DUP5 ADD MSTORE JUMPDEST POP POP POP POP JUMP JUMPDEST PUSH1 0x0 PUSH1 0x2 DUP3 DIV SWAP1 POP PUSH1 0x1 DUP3 AND DUP1 PUSH2 0x115B JUMPI PUSH1 0x7F DUP3 AND SWAP2 POP JUMPDEST PUSH1 0x20 DUP3 LT DUP2 EQ ISZERO PUSH2 0x116F JUMPI PUSH2 0x116E PUSH2 0x12AC JUMP JUMPDEST JUMPDEST POP SWAP2 SWAP1 POP JUMP JUMPDEST PUSH2 0x117E DUP3 PUSH2 0x134D JUMP JUMPDEST DUP2 ADD DUP2 DUP2 LT PUSH8 0xFFFFFFFFFFFFFFFF DUP3 GT OR ISZERO PUSH2 0x119D JUMPI PUSH2 0x119C PUSH2 0x130A JUMP JUMPDEST JUMPDEST DUP1 PUSH1 0x40 MSTORE POP POP POP JUMP JUMPDEST PUSH1 0x0 PUSH2 0x11B1 DUP3 PUSH2 0x10F7 JUMP JUMPDEST SWAP2 POP PUSH32 0xFFFFFFFFFFFFFFFFFFFFFFFFFFFFFFFFFFFFFFFFFFFFFFFFFFFFFFFFFFFFFFFF DUP3 EQ ISZERO PUSH2 0x11E4 JUMPI PUSH2 0x11E3 PUSH2 0x124E JUMP JUMPDEST JUMPDEST PUSH1 0x1 DUP3 ADD SWAP1 POP SWAP2 SWAP1 POP JUMP JUMPDEST PUSH1 0x0 PUSH2 0x11FA DUP3 PUSH2 0x1201 JUMP JUMPDEST SWAP1 POP SWAP2 SWAP1 POP JUMP JUMPDEST PUSH1 0x0 PUSH2 0x120C DUP3 PUSH2 0x135E JUMP JUMPDEST SWAP1 POP SWAP2 SWAP1 POP JUMP JUMPDEST PUSH1 0x0 DUP2 SWAP1 POP SWAP2 SWAP1 POP JUMP JUMPDEST PUSH1 0x0 PUSH2 0x1228 DUP3 PUSH2 0x10F7 JUMP JUMPDEST SWAP2 POP PUSH2 0x1233 DUP4 PUSH2 0x10F7 JUMP JUMPDEST SWAP3 POP DUP3 PUSH2 0x1243 JUMPI PUSH2 0x1242 PUSH2 0x127D JUMP JUMPDEST JUMPDEST DUP3 DUP3 MOD SWAP1 POP SWAP3 SWAP2 POP POP JUMP JUMPDEST PUSH32 0x4E487B7100000000000000000000000000000000000000000000000000000000 PUSH1 0x0 MSTORE PUSH1 0x11 PUSH1 0x4 MSTORE PUSH1 0x24 PUSH1 0x0 REVERT JUMPDEST PUSH32 0x4E487B7100000000000000000000000000000000000000000000000000000000 PUSH1 0x0 MSTORE PUSH1 0x12 PUSH1 0x4 MSTORE PUSH1 0x24 PUSH1 0x0 REVERT JUMPDEST PUSH32 0x4E487B7100000000000000000000000000000000000000000000000000000000 PUSH1 0x0 MSTORE PUSH1 0x22 PUSH1 0x4 MSTORE PUSH1 0x24 PUSH1 0x0 REVERT JUMPDEST PUSH32 0x4E487B7100000000000000000000000000000000000000000000000000000000 PUSH1 0x0 MSTORE PUSH1 0x32 PUSH1 0x4 MSTORE PUSH1 0x24 PUSH1 0x0 REVERT JUMPDEST PUSH32 0x4E487B7100000000000000000000000000000000000000000000000000000000 PUSH1 0x0 MSTORE PUSH1 0x41 PUSH1 0x4 MSTORE PUSH1 0x24 PUSH1 0x0 REVERT JUMPDEST PUSH1 0x0 DUP1 REVERT JUMPDEST PUSH1 0x0 DUP1 REVERT JUMPDEST PUSH1 0x0 DUP1 REVERT JUMPDEST PUSH1 0x0 DUP1 REVERT JUMPDEST PUSH1 0x0 PUSH1 0x1F NOT PUSH1 0x1F DUP4 ADD AND SWAP1 POP SWAP2 SWAP1 POP JUMP JUMPDEST PUSH1 0x0 DUP2 PUSH1 0x60 SHL SWAP1 POP SWAP2 SWAP1 POP JUMP JUMPDEST PUSH32 0x76616C75652063616E6E6F74206265206E756C6C000000000000000000000000 PUSH1 0x0 DUP3 ADD MSTORE POP JUMP JUMPDEST PUSH32 0x546865206F776E65722063616E6E6F7420796574206164642061206E65772068 PUSH1 0x0 DUP3 ADD MSTORE PUSH32 0x6F6D650000000000000000000000000000000000000000000000000000000000 PUSH1 0x20 DUP3 ADD MSTORE POP JUMP JUMPDEST PUSH32 0x7468697320686F757365496420616C7265616479206578697374730000000000 PUSH1 0x0 DUP3 ADD MSTORE POP JUMP JUMPDEST PUSH32 0x596F7520646F206E6F7420686176652061636365737320746F2064656C657465 PUSH1 0x0 DUP3 ADD MSTORE PUSH32 0x207468697320686F757365000000000000000000000000000000000000000000 PUSH1 0x20 DUP3 ADD MSTORE POP JUMP JUMPDEST PUSH2 0x1464 DUP2 PUSH2 0x10B9 JUMP JUMPDEST DUP2 EQ PUSH2 0x146F JUMPI PUSH1 0x0 DUP1 REVERT JUMPDEST POP JUMP JUMPDEST PUSH2 0x147B DUP2 PUSH2 0x10F7 JUMP JUMPDEST DUP2 EQ PUSH2 0x1486 JUMPI PUSH1 0x0 DUP1 REVERT JUMPDEST POP JUMP INVALID LOG2 PUSH5 0x6970667358 0x22 SLT KECCAK256 BLOCKHASH EQ 0xCB 0xA8 XOR CODESIZE 0xED EXTCODECOPY 0x26 PUSH4 0x69F3D00B 0xEB NUMBER 0xBC LT LOG4 MOD DIV ORIGIN 0xC1 0xE8 EXTCODECOPY 0xA6 PUSH26 0xCD997DFFEE64736F6C6343000807003300000000000000000000 "
				},
				"gasEstimates": {
					"creation": {
						"codeDepositCost": "1062200",
						"executionCost": "infinite",
						"totalCost": "infinite"
					},
					"external": {
						"buyHouseWithETH(uint256)": "26938",
						"delistHouse(uint256)": "infinite",
						"getCheapHouseIds(uint256)": "infinite",
						"houses(uint256)": "infinite",
						"listHouse(uint256,uint256,address,string)": "infinite",
						"listHouseSimple(uint256,uint256,string)": "infinite"
					}
				},
				"methodIdentifiers": {
					"buyHouseWithETH(uint256)": "4d79658b",
					"delistHouse(uint256)": "3c3b0b4a",
					"getCheapHouseIds(uint256)": "c45e1b25",
					"houses(uint256)": "aeda852f",
					"listHouse(uint256,uint256,address,string)": "91bfe0d4",
					"listHouseSimple(uint256,uint256,string)": "be40a73e"
				}
			},
			"storageLayout": {
				"storage": [
					{
						"astId": 4,
						"contract": "contract/HouseRegistryExt.sol:HouseRegistryExt",
						"label": "digits",
						"offset": 0,
						"slot": "0",
						"type": "t_uint256"
					},
					{
						"astId": 9,
						"contract": "contract/HouseRegistryExt.sol:HouseRegistryExt",
						"label": "modulus",
						"offset": 0,
						"slot": "1",
						"type": "t_uint256"
					},
					{
						"astId": 12,
						"contract": "contract/HouseRegistryExt.sol:HouseRegistryExt",
						"label": "cooldownTime",
						"offset": 0,
						"slot": "2",
						"type": "t_uint256"
					},
					{
						"astId": 15,
						"contract": "contract/HouseRegistryExt.sol:HouseRegistryExt",
						"label": "countOfHouses",
						"offset": 0,
						"slot": "3",
						"type": "t_uint256"
					},
					{
						"astId": 17,
						"contract": "contract/HouseRegistryExt.sol:HouseRegistryExt",
						"label": "ownerAddCooldown",
						"offset": 0,
						"slot": "4",
						"type": "t_uint256"
					},
					{
						"astId": 59,
						"contract": "contract/HouseRegistryExt.sol:HouseRegistryExt",
						"label": "houseIndex",
						"offset": 0,
						"slot": "5",
						"type": "t_array(t_uint256)dyn_storage"
					},
					{
						"astId": 64,
						"contract": "contract/HouseRegistryExt.sol:HouseRegistryExt",
						"label": "houses",
						"offset": 0,
						"slot": "6",
						"type": "t_mapping(t_uint256,t_struct(House)34_storage)"
					}
				],
				"types": {
					"t_address": {
						"encoding": "inplace",
						"label": "address",
						"numberOfBytes": "20"
					},
					"t_array(t_uint256)dyn_storage": {
						"base": "t_uint256",
						"encoding": "dynamic_array",
						"label": "uint256[]",
						"numberOfBytes": "32"
					},
					"t_bool": {
						"encoding": "inplace",
						"label": "bool",
						"numberOfBytes": "1"
					},
					"t_mapping(t_uint256,t_struct(House)34_storage)": {
						"encoding": "mapping",
						"key": "t_uint256",
						"label": "mapping(uint256 => struct HouseRegistry.House)",
						"numberOfBytes": "32",
						"value": "t_struct(House)34_storage"
					},
					"t_string_storage": {
						"encoding": "bytes",
						"label": "string",
						"numberOfBytes": "32"
					},
					"t_struct(House)34_storage": {
						"encoding": "inplace",
						"label": "struct HouseRegistry.House",
						"members": [
							{
								"astId": 19,
								"contract": "contract/HouseRegistryExt.sol:HouseRegistryExt",
								"label": "id",
								"offset": 0,
								"slot": "0",
								"type": "t_uint256"
							},
							{
								"astId": 21,
								"contract": "contract/HouseRegistryExt.sol:HouseRegistryExt",
								"label": "serialNumber",
								"offset": 0,
								"slot": "1",
								"type": "t_uint256"
							},
							{
								"astId": 23,
								"contract": "contract/HouseRegistryExt.sol:HouseRegistryExt",
								"label": "price",
								"offset": 0,
								"slot": "2",
								"type": "t_uint256"
							},
							{
								"astId": 25,
								"contract": "contract/HouseRegistryExt.sol:HouseRegistryExt",
								"label": "area",
								"offset": 0,
								"slot": "3",
								"type": "t_uint256"
							},
							{
								"astId": 27,
								"contract": "contract/HouseRegistryExt.sol:HouseRegistryExt",
								"label": "sellerAddress",
								"offset": 0,
								"slot": "4",
								"type": "t_address"
							},
							{
								"astId": 29,
								"contract": "contract/HouseRegistryExt.sol:HouseRegistryExt",
								"label": "bayerAddress",
								"offset": 0,
								"slot": "5",
								"type": "t_address"
							},
							{
								"astId": 31,
								"contract": "contract/HouseRegistryExt.sol:HouseRegistryExt",
								"label": "houseAddress",
								"offset": 0,
								"slot": "6",
								"type": "t_string_storage"
							},
							{
								"astId": 33,
								"contract": "contract/HouseRegistryExt.sol:HouseRegistryExt",
								"label": "isdelistedHouse",
								"offset": 0,
								"slot": "7",
								"type": "t_bool"
							}
						],
						"numberOfBytes": "256"
					},
					"t_uint256": {
						"encoding": "inplace",
						"label": "uint256",
						"numberOfBytes": "32"
					}
				}
			},
			"userdoc": {
				"kind": "user",
				"methods": {},
				"version": 1
			}
		}
	}
}