{
	"contract/HouseRegistry.sol": {
		"HouseRegistry": {
			"abi": [
				{
					"anonymous": false,
					"inputs": [
						{
							"indexed": false,
							"internalType": "uint256",
							"name": "houseId",
							"type": "uint256"
						},
						{
							"indexed": false,
							"internalType": "address",
							"name": "_sellerAddress",
							"type": "address"
						},
						{
							"indexed": false,
							"internalType": "uint256",
							"name": "price",
							"type": "uint256"
						},
						{
							"indexed": false,
							"internalType": "string",
							"name": "houseAddress",
							"type": "string"
						}
					],
					"name": "AddNewHouse",
					"type": "event"
				},
				{
					"inputs": [
						{
							"internalType": "uint256",
							"name": "houseId",
							"type": "uint256"
						}
					],
					"name": "delistHouse",
					"outputs": [
						{
							"internalType": "string",
							"name": "",
							"type": "string"
						}
					],
					"stateMutability": "nonpayable",
					"type": "function"
				},
				{
					"inputs": [
						{
							"internalType": "uint256",
							"name": "cost",
							"type": "uint256"
						}
					],
					"name": "getCheapHouseIds",
					"outputs": [
						{
							"internalType": "uint256[]",
							"name": "",
							"type": "uint256[]"
						}
					],
					"stateMutability": "view",
					"type": "function"
				},
				{
					"inputs": [
						{
							"internalType": "uint256",
							"name": "",
							"type": "uint256"
						}
					],
					"name": "houses",
					"outputs": [
						{
							"internalType": "uint256",
							"name": "id",
							"type": "uint256"
						},
						{
							"internalType": "uint256",
							"name": "serialNumber",
							"type": "uint256"
						},
						{
							"internalType": "uint256",
							"name": "price",
							"type": "uint256"
						},
						{
							"internalType": "uint256",
							"name": "area",
							"type": "uint256"
						},
						{
							"internalType": "address",
							"name": "sellerAddress",
							"type": "address"
						},
						{
							"internalType": "address",
							"name": "bayerAddress",
							"type": "address"
						},
						{
							"internalType": "string",
							"name": "houseAddress",
							"type": "string"
						},
						{
							"internalType": "bool",
							"name": "isdelistedHouse",
							"type": "bool"
						}
					],
					"stateMutability": "view",
					"type": "function"
				},
				{
					"inputs": [
						{
							"internalType": "uint256",
							"name": "_price",
							"type": "uint256"
						},
						{
							"internalType": "uint256",
							"name": "_area",
							"type": "uint256"
						},
						{
							"internalType": "address",
							"name": "_sellerAddress",
							"type": "address"
						},
						{
							"internalType": "string",
							"name": "_houseAddress",
							"type": "string"
						}
					],
					"name": "listHouse",
					"outputs": [
						{
							"internalType": "uint256",
							"name": "",
							"type": "uint256"
						}
					],
					"stateMutability": "nonpayable",
					"type": "function"
				}
			],
			"devdoc": {
				"kind": "dev",
				"methods": {},
				"version": 1
			},
			"evm": {
				"assembly": "    /* \"contract/HouseRegistry.sol\":62:2648  contract HouseRegistry {... */\n  mstore(0x40, 0x80)\n    /* \"contract/HouseRegistry.sol\":106:107  5 */\n  0x05\n    /* \"contract/HouseRegistry.sol\":92:107  uint digits = 5 */\n  0x00\n  sstore\n    /* \"contract/HouseRegistry.sol\":134:140  digits */\n  sload(0x00)\n    /* \"contract/HouseRegistry.sol\":128:130  10 */\n  0x0a\n    /* \"contract/HouseRegistry.sol\":128:140  10 ** digits */\n  tag_1\n  swap2\n  swap1\n  tag_2\n  jump\t// in\ntag_1:\n    /* \"contract/HouseRegistry.sol\":113:140  uint modulus = 10 ** digits */\n  0x01\n  sstore\n    /* \"contract/HouseRegistry.sol\":166:172  1 days */\n  0x015180\n    /* \"contract/HouseRegistry.sol\":146:172  uint cooldownTime = 1 days */\n  0x02\n  sstore\n    /* \"contract/HouseRegistry.sol\":199:200  1 */\n  0x01\n    /* \"contract/HouseRegistry.sol\":178:200  uint countOfHouses = 1 */\n  0x03\n  sstore\n    /* \"contract/HouseRegistry.sol\":62:2648  contract HouseRegistry {... */\n  callvalue\n  dup1\n  iszero\n  tag_3\n  jumpi\n  0x00\n  dup1\n  revert\ntag_3:\n  pop\n  jump(tag_4)\n    /* \"#utility.yul\":7:855   */\ntag_6:\n    /* \"#utility.yul\":68:73   */\n  0x00\n    /* \"#utility.yul\":75:79   */\n  dup1\n    /* \"#utility.yul\":99:105   */\n  dup3\n    /* \"#utility.yul\":90:105   */\n  swap2\n  pop\n    /* \"#utility.yul\":123:128   */\n  dup4\n    /* \"#utility.yul\":114:128   */\n  swap1\n  pop\n    /* \"#utility.yul\":137:849   */\ntag_8:\n    /* \"#utility.yul\":158:159   */\n  0x01\n    /* \"#utility.yul\":148:156   */\n  dup6\n    /* \"#utility.yul\":145:160   */\n  gt\n    /* \"#utility.yul\":137:849   */\n  iszero\n  tag_10\n  jumpi\n    /* \"#utility.yul\":253:257   */\n  dup1\n    /* \"#utility.yul\":248:251   */\n  dup7\n    /* \"#utility.yul\":244:258   */\n  div\n    /* \"#utility.yul\":238:242   */\n  dup2\n    /* \"#utility.yul\":235:259   */\n  gt\n    /* \"#utility.yul\":232:282   */\n  iszero\n  tag_11\n  jumpi\n    /* \"#utility.yul\":262:280   */\n  tag_12\n  tag_13\n  jump\t// in\ntag_12:\n    /* \"#utility.yul\":232:282   */\ntag_11:\n    /* \"#utility.yul\":312:313   */\n  0x01\n    /* \"#utility.yul\":302:310   */\n  dup6\n    /* \"#utility.yul\":298:314   */\n  and\n    /* \"#utility.yul\":295:746   */\n  iszero\n  tag_14\n  jumpi\n    /* \"#utility.yul\":727:731   */\n  dup1\n    /* \"#utility.yul\":720:725   */\n  dup3\n    /* \"#utility.yul\":716:732   */\n  mul\n    /* \"#utility.yul\":707:732   */\n  swap2\n  pop\n    /* \"#utility.yul\":295:746   */\ntag_14:\n    /* \"#utility.yul\":777:781   */\n  dup1\n    /* \"#utility.yul\":771:775   */\n  dup2\n    /* \"#utility.yul\":767:782   */\n  mul\n    /* \"#utility.yul\":759:782   */\n  swap1\n  pop\n    /* \"#utility.yul\":807:839   */\n  tag_15\n    /* \"#utility.yul\":830:838   */\n  dup6\n    /* \"#utility.yul\":807:839   */\n  tag_16\n  jump\t// in\ntag_15:\n    /* \"#utility.yul\":795:839   */\n  swap5\n  pop\n    /* \"#utility.yul\":137:849   */\n  jump(tag_8)\ntag_10:\n    /* \"#utility.yul\":7:855   */\n  swap5\n  pop\n  swap5\n  swap3\n  pop\n  pop\n  pop\n  jump\t// out\n    /* \"#utility.yul\":861:1146   */\ntag_2:\n    /* \"#utility.yul\":921:926   */\n  0x00\n    /* \"#utility.yul\":945:968   */\n  tag_18\n    /* \"#utility.yul\":963:967   */\n  dup3\n    /* \"#utility.yul\":945:968   */\n  tag_19\n  jump\t// in\ntag_18:\n    /* \"#utility.yul\":937:968   */\n  swap2\n  pop\n    /* \"#utility.yul\":989:1016   */\n  tag_20\n    /* \"#utility.yul\":1007:1015   */\n  dup4\n    /* \"#utility.yul\":989:1016   */\n  tag_19\n  jump\t// in\ntag_20:\n    /* \"#utility.yul\":977:1016   */\n  swap3\n  pop\n    /* \"#utility.yul\":1035:1139   */\n  tag_21\n    /* \"#utility.yul\":1072:1138   */\n  0xffffffffffffffffffffffffffffffffffffffffffffffffffffffffffffffff\n    /* \"#utility.yul\":1062:1070   */\n  dup5\n    /* \"#utility.yul\":1056:1060   */\n  dup5\n    /* \"#utility.yul\":1035:1139   */\n  tag_22\n  jump\t// in\ntag_21:\n    /* \"#utility.yul\":1026:1139   */\n  swap1\n  pop\n    /* \"#utility.yul\":861:1146   */\n  swap3\n  swap2\n  pop\n  pop\n  jump\t// out\n    /* \"#utility.yul\":1152:2225   */\ntag_22:\n    /* \"#utility.yul\":1206:1211   */\n  0x00\n    /* \"#utility.yul\":1397:1405   */\n  dup3\n    /* \"#utility.yul\":1387:1427   */\n  tag_24\n  jumpi\n    /* \"#utility.yul\":1418:1419   */\n  0x01\n    /* \"#utility.yul\":1409:1419   */\n  swap1\n  pop\n    /* \"#utility.yul\":1420:1425   */\n  jump(tag_23)\n    /* \"#utility.yul\":1387:1427   */\ntag_24:\n    /* \"#utility.yul\":1446:1450   */\n  dup2\n    /* \"#utility.yul\":1436:1472   */\n  tag_25\n  jumpi\n    /* \"#utility.yul\":1463:1464   */\n  0x00\n    /* \"#utility.yul\":1454:1464   */\n  swap1\n  pop\n    /* \"#utility.yul\":1465:1470   */\n  jump(tag_23)\n    /* \"#utility.yul\":1436:1472   */\ntag_25:\n    /* \"#utility.yul\":1532:1536   */\n  dup2\n    /* \"#utility.yul\":1580:1581   */\n  0x01\n    /* \"#utility.yul\":1575:1602   */\n  dup2\n  eq\n  tag_27\n  jumpi\n    /* \"#utility.yul\":1616:1617   */\n  0x02\n    /* \"#utility.yul\":1611:1802   */\n  dup2\n  eq\n  tag_28\n  jumpi\n    /* \"#utility.yul\":1525:1802   */\n  jump(tag_26)\n    /* \"#utility.yul\":1575:1602   */\ntag_27:\n    /* \"#utility.yul\":1593:1594   */\n  0x01\n    /* \"#utility.yul\":1584:1594   */\n  swap2\n  pop\n    /* \"#utility.yul\":1595:1600   */\n  pop\n  jump(tag_23)\n    /* \"#utility.yul\":1611:1802   */\ntag_28:\n    /* \"#utility.yul\":1656:1659   */\n  0xff\n    /* \"#utility.yul\":1646:1654   */\n  dup5\n    /* \"#utility.yul\":1643:1660   */\n  gt\n    /* \"#utility.yul\":1640:1683   */\n  iszero\n  tag_29\n  jumpi\n    /* \"#utility.yul\":1663:1681   */\n  tag_30\n  tag_13\n  jump\t// in\ntag_30:\n    /* \"#utility.yul\":1640:1683   */\ntag_29:\n    /* \"#utility.yul\":1712:1720   */\n  dup4\n    /* \"#utility.yul\":1709:1710   */\n  0x02\n    /* \"#utility.yul\":1705:1721   */\n  exp\n    /* \"#utility.yul\":1696:1721   */\n  swap2\n  pop\n    /* \"#utility.yul\":1747:1750   */\n  dup5\n    /* \"#utility.yul\":1740:1745   */\n  dup3\n    /* \"#utility.yul\":1737:1751   */\n  gt\n    /* \"#utility.yul\":1734:1774   */\n  iszero\n  tag_31\n  jumpi\n    /* \"#utility.yul\":1754:1772   */\n  tag_32\n  tag_13\n  jump\t// in\ntag_32:\n    /* \"#utility.yul\":1734:1774   */\ntag_31:\n    /* \"#utility.yul\":1787:1792   */\n  pop\n  jump(tag_23)\n    /* \"#utility.yul\":1525:1802   */\ntag_26:\n  pop\n    /* \"#utility.yul\":1911:1913   */\n  0x20\n    /* \"#utility.yul\":1901:1909   */\n  dup4\n    /* \"#utility.yul\":1898:1914   */\n  lt\n    /* \"#utility.yul\":1892:1895   */\n  0x0133\n    /* \"#utility.yul\":1886:1890   */\n  dup4\n    /* \"#utility.yul\":1883:1896   */\n  lt\n    /* \"#utility.yul\":1879:1915   */\n  and\n    /* \"#utility.yul\":1861:1863   */\n  0x4e\n    /* \"#utility.yul\":1851:1859   */\n  dup5\n    /* \"#utility.yul\":1848:1864   */\n  lt\n    /* \"#utility.yul\":1843:1845   */\n  0x0b\n    /* \"#utility.yul\":1837:1841   */\n  dup5\n    /* \"#utility.yul\":1834:1846   */\n  lt\n    /* \"#utility.yul\":1830:1865   */\n  and\n    /* \"#utility.yul\":1814:1925   */\n  or\n    /* \"#utility.yul\":1811:2057   */\n  iszero\n  tag_33\n  jumpi\n    /* \"#utility.yul\":1967:1975   */\n  dup3\n    /* \"#utility.yul\":1961:1965   */\n  dup3\n    /* \"#utility.yul\":1957:1976   */\n  exp\n    /* \"#utility.yul\":1948:1976   */\n  swap1\n  pop\n    /* \"#utility.yul\":2002:2005   */\n  dup4\n    /* \"#utility.yul\":1995:2000   */\n  dup2\n    /* \"#utility.yul\":1992:2006   */\n  gt\n    /* \"#utility.yul\":1989:2029   */\n  iszero\n  tag_34\n  jumpi\n    /* \"#utility.yul\":2009:2027   */\n  tag_35\n  tag_13\n  jump\t// in\ntag_35:\n    /* \"#utility.yul\":1989:2029   */\ntag_34:\n    /* \"#utility.yul\":2042:2047   */\n  jump(tag_23)\n    /* \"#utility.yul\":1811:2057   */\ntag_33:\n    /* \"#utility.yul\":2082:2124   */\n  tag_36\n    /* \"#utility.yul\":2120:2123   */\n  dup5\n    /* \"#utility.yul\":2110:2118   */\n  dup5\n    /* \"#utility.yul\":2104:2108   */\n  dup5\n    /* \"#utility.yul\":2101:2102   */\n  0x01\n    /* \"#utility.yul\":2082:2124   */\n  tag_6\n  jump\t// in\ntag_36:\n    /* \"#utility.yul\":2067:2124   */\n  swap3\n  pop\n  swap1\n  pop\n    /* \"#utility.yul\":2156:2160   */\n  dup2\n    /* \"#utility.yul\":2151:2154   */\n  dup5\n    /* \"#utility.yul\":2147:2161   */\n  div\n    /* \"#utility.yul\":2140:2145   */\n  dup2\n    /* \"#utility.yul\":2137:2162   */\n  gt\n    /* \"#utility.yul\":2134:2185   */\n  iszero\n  tag_37\n  jumpi\n    /* \"#utility.yul\":2165:2183   */\n  tag_38\n  tag_13\n  jump\t// in\ntag_38:\n    /* \"#utility.yul\":2134:2185   */\ntag_37:\n    /* \"#utility.yul\":2214:2218   */\n  dup2\n    /* \"#utility.yul\":2207:2212   */\n  dup2\n    /* \"#utility.yul\":2203:2219   */\n  mul\n    /* \"#utility.yul\":2194:2219   */\n  swap1\n  pop\n    /* \"#utility.yul\":1152:2225   */\ntag_23:\n  swap4\n  swap3\n  pop\n  pop\n  pop\n  jump\t// out\n    /* \"#utility.yul\":2231:2308   */\ntag_19:\n    /* \"#utility.yul\":2268:2275   */\n  0x00\n    /* \"#utility.yul\":2297:2302   */\n  dup2\n    /* \"#utility.yul\":2286:2302   */\n  swap1\n  pop\n    /* \"#utility.yul\":2231:2308   */\n  swap2\n  swap1\n  pop\n  jump\t// out\n    /* \"#utility.yul\":2314:2494   */\ntag_13:\n    /* \"#utility.yul\":2362:2439   */\n  0x4e487b7100000000000000000000000000000000000000000000000000000000\n    /* \"#utility.yul\":2359:2360   */\n  0x00\n    /* \"#utility.yul\":2352:2440   */\n  mstore\n    /* \"#utility.yul\":2459:2463   */\n  0x11\n    /* \"#utility.yul\":2456:2457   */\n  0x04\n    /* \"#utility.yul\":2449:2464   */\n  mstore\n    /* \"#utility.yul\":2483:2487   */\n  0x24\n    /* \"#utility.yul\":2480:2481   */\n  0x00\n    /* \"#utility.yul\":2473:2488   */\n  revert\n    /* \"#utility.yul\":2500:2602   */\ntag_16:\n    /* \"#utility.yul\":2542:2550   */\n  0x00\n    /* \"#utility.yul\":2589:2594   */\n  dup2\n    /* \"#utility.yul\":2586:2587   */\n  0x01\n    /* \"#utility.yul\":2582:2595   */\n  shr\n    /* \"#utility.yul\":2561:2595   */\n  swap1\n  pop\n    /* \"#utility.yul\":2500:2602   */\n  swap2\n  swap1\n  pop\n  jump\t// out\n    /* \"contract/HouseRegistry.sol\":62:2648  contract HouseRegistry {... */\ntag_4:\n  dataSize(sub_0)\n  dup1\n  dataOffset(sub_0)\n  0x00\n  codecopy\n  0x00\n  return\nstop\n\nsub_0: assembly {\n        /* \"contract/HouseRegistry.sol\":62:2648  contract HouseRegistry {... */\n      mstore(0x40, 0x80)\n      callvalue\n      dup1\n      iszero\n      tag_1\n      jumpi\n      0x00\n      dup1\n      revert\n    tag_1:\n      pop\n      jumpi(tag_2, lt(calldatasize, 0x04))\n      shr(0xe0, calldataload(0x00))\n      dup1\n      0x3c3b0b4a\n      eq\n      tag_3\n      jumpi\n      dup1\n      0x91bfe0d4\n      eq\n      tag_4\n      jumpi\n      dup1\n      0xaeda852f\n      eq\n      tag_5\n      jumpi\n      dup1\n      0xc45e1b25\n      eq\n      tag_6\n      jumpi\n    tag_2:\n      0x00\n      dup1\n      revert\n        /* \"contract/HouseRegistry.sol\":1572:1841  function delistHouse(uint houseId) public returns (string memory){... */\n    tag_3:\n      tag_7\n      0x04\n      dup1\n      calldatasize\n      sub\n      dup2\n      add\n      swap1\n      tag_8\n      swap2\n      swap1\n      tag_9\n      jump\t// in\n    tag_8:\n      tag_10\n      jump\t// in\n    tag_7:\n      mload(0x40)\n      tag_11\n      swap2\n      swap1\n      tag_12\n      jump\t// in\n    tag_11:\n      mload(0x40)\n      dup1\n      swap2\n      sub\n      swap1\n      return\n        /* \"contract/HouseRegistry.sol\":880:1566  function listHouse (uint _price, uint _area, address _sellerAddress, string memory _houseAddress) public returns (uint) {... */\n    tag_4:\n      tag_13\n      0x04\n      dup1\n      calldatasize\n      sub\n      dup2\n      add\n      swap1\n      tag_14\n      swap2\n      swap1\n      tag_15\n      jump\t// in\n    tag_14:\n      tag_16\n      jump\t// in\n    tag_13:\n      mload(0x40)\n      tag_17\n      swap2\n      swap1\n      tag_18\n      jump\t// in\n    tag_17:\n      mload(0x40)\n      dup1\n      swap2\n      sub\n      swap1\n      return\n        /* \"contract/HouseRegistry.sol\":739:775  mapping(uint => House) public houses */\n    tag_5:\n      tag_19\n      0x04\n      dup1\n      calldatasize\n      sub\n      dup2\n      add\n      swap1\n      tag_20\n      swap2\n      swap1\n      tag_9\n      jump\t// in\n    tag_20:\n      tag_21\n      jump\t// in\n    tag_19:\n      mload(0x40)\n      tag_22\n      swap9\n      swap8\n      swap7\n      swap6\n      swap5\n      swap4\n      swap3\n      swap2\n      swap1\n      tag_23\n      jump\t// in\n    tag_22:\n      mload(0x40)\n      dup1\n      swap2\n      sub\n      swap1\n      return\n        /* \"contract/HouseRegistry.sol\":1847:2385  function getCheapHouseIds(uint cost) external view returns (uint[]memory){... */\n    tag_6:\n      tag_24\n      0x04\n      dup1\n      calldatasize\n      sub\n      dup2\n      add\n      swap1\n      tag_25\n      swap2\n      swap1\n      tag_9\n      jump\t// in\n    tag_25:\n      tag_26\n      jump\t// in\n    tag_24:\n      mload(0x40)\n      tag_27\n      swap2\n      swap1\n      tag_28\n      jump\t// in\n    tag_27:\n      mload(0x40)\n      dup1\n      swap2\n      sub\n      swap1\n      return\n        /* \"contract/HouseRegistry.sol\":1572:1841  function delistHouse(uint houseId) public returns (string memory){... */\n    tag_10:\n        /* \"contract/HouseRegistry.sol\":1623:1636  string memory */\n      0x60\n        /* \"contract/HouseRegistry.sol\":1688:1698  msg.sender */\n      caller\n        /* \"contract/HouseRegistry.sol\":1655:1698  houses[houseId].sellerAddress == msg.sender */\n      0xffffffffffffffffffffffffffffffffffffffff\n      and\n        /* \"contract/HouseRegistry.sol\":1655:1661  houses */\n      0x06\n        /* \"contract/HouseRegistry.sol\":1655:1670  houses[houseId] */\n      0x00\n        /* \"contract/HouseRegistry.sol\":1662:1669  houseId */\n      dup5\n        /* \"contract/HouseRegistry.sol\":1655:1670  houses[houseId] */\n      dup2\n      mstore\n      0x20\n      add\n      swap1\n      dup2\n      mstore\n      0x20\n      add\n      0x00\n      keccak256\n        /* \"contract/HouseRegistry.sol\":1655:1684  houses[houseId].sellerAddress */\n      0x04\n      add\n      0x00\n      swap1\n      sload\n      swap1\n      0x0100\n      exp\n      swap1\n      div\n      0xffffffffffffffffffffffffffffffffffffffff\n      and\n        /* \"contract/HouseRegistry.sol\":1655:1698  houses[houseId].sellerAddress == msg.sender */\n      0xffffffffffffffffffffffffffffffffffffffff\n      and\n      eq\n        /* \"contract/HouseRegistry.sol\":1647:1746  require(houses[houseId].sellerAddress == msg.sender, \"You do not have access to delete this house\") */\n      tag_30\n      jumpi\n      mload(0x40)\n      0x08c379a000000000000000000000000000000000000000000000000000000000\n      dup2\n      mstore\n      0x04\n      add\n      tag_31\n      swap1\n      tag_32\n      jump\t// in\n    tag_31:\n      mload(0x40)\n      dup1\n      swap2\n      sub\n      swap1\n      revert\n    tag_30:\n        /* \"contract/HouseRegistry.sol\":1790:1794  true */\n      0x01\n        /* \"contract/HouseRegistry.sol\":1756:1762  houses */\n      0x06\n        /* \"contract/HouseRegistry.sol\":1756:1771  houses[houseId] */\n      0x00\n        /* \"contract/HouseRegistry.sol\":1763:1770  houseId */\n      dup5\n        /* \"contract/HouseRegistry.sol\":1756:1771  houses[houseId] */\n      dup2\n      mstore\n      0x20\n      add\n      swap1\n      dup2\n      mstore\n      0x20\n      add\n      0x00\n      keccak256\n        /* \"contract/HouseRegistry.sol\":1756:1787  houses[houseId].isdelistedHouse */\n      0x07\n      add\n      0x00\n        /* \"contract/HouseRegistry.sol\":1756:1794  houses[houseId].isdelistedHouse = true */\n      0x0100\n      exp\n      dup2\n      sload\n      dup2\n      0xff\n      mul\n      not\n      and\n      swap1\n      dup4\n      iszero\n      iszero\n      mul\n      or\n      swap1\n      sstore\n      pop\n        /* \"contract/HouseRegistry.sol\":1804:1834  return \"delist was successful\" */\n      mload(0x40)\n      dup1\n      0x40\n      add\n      0x40\n      mstore\n      dup1\n      0x15\n      dup2\n      mstore\n      0x20\n      add\n      0x64656c69737420776173207375636365737366756c0000000000000000000000\n      dup2\n      mstore\n      pop\n      swap1\n      pop\n        /* \"contract/HouseRegistry.sol\":1572:1841  function delistHouse(uint houseId) public returns (string memory){... */\n      swap2\n      swap1\n      pop\n      jump\t// out\n        /* \"contract/HouseRegistry.sol\":880:1566  function listHouse (uint _price, uint _area, address _sellerAddress, string memory _houseAddress) public returns (uint) {... */\n    tag_16:\n        /* \"contract/HouseRegistry.sol\":994:998  uint */\n      0x00\n        /* \"contract/HouseRegistry.sol\":1035:1036  0 */\n      dup1\n        /* \"contract/HouseRegistry.sol\":1027:1032  _area */\n      dup5\n        /* \"contract/HouseRegistry.sol\":1018:1024  _price */\n      dup7\n        /* \"contract/HouseRegistry.sol\":1018:1032  _price * _area */\n      tag_34\n      swap2\n      swap1\n      tag_35\n      jump\t// in\n    tag_34:\n        /* \"contract/HouseRegistry.sol\":1018:1036  _price * _area > 0 */\n      gt\n        /* \"contract/HouseRegistry.sol\":1010:1061  require(_price * _area > 0, \"value cannot be null\") */\n      tag_36\n      jumpi\n      mload(0x40)\n      0x08c379a000000000000000000000000000000000000000000000000000000000\n      dup2\n      mstore\n      0x04\n      add\n      tag_37\n      swap1\n      tag_38\n      jump\t// in\n    tag_37:\n      mload(0x40)\n      dup1\n      swap2\n      sub\n      swap1\n      revert\n    tag_36:\n        /* \"contract/HouseRegistry.sol\":1071:1083  uint houseId */\n      0x00\n        /* \"contract/HouseRegistry.sol\":1086:1140  _generateHouseId(_sellerAddress, _area, _houseAddress) */\n      tag_39\n        /* \"contract/HouseRegistry.sol\":1103:1117  _sellerAddress */\n      dup5\n        /* \"contract/HouseRegistry.sol\":1119:1124  _area */\n      dup7\n        /* \"contract/HouseRegistry.sol\":1126:1139  _houseAddress */\n      dup6\n        /* \"contract/HouseRegistry.sol\":1086:1102  _generateHouseId */\n      tag_40\n        /* \"contract/HouseRegistry.sol\":1086:1140  _generateHouseId(_sellerAddress, _area, _houseAddress) */\n      jump\t// in\n    tag_39:\n        /* \"contract/HouseRegistry.sol\":1071:1140  uint houseId = _generateHouseId(_sellerAddress, _area, _houseAddress) */\n      swap1\n      pop\n        /* \"contract/HouseRegistry.sol\":1169:1175  houses */\n      0x06\n        /* \"contract/HouseRegistry.sol\":1169:1184  houses[houseId] */\n      0x00\n        /* \"contract/HouseRegistry.sol\":1176:1183  houseId */\n      dup3\n        /* \"contract/HouseRegistry.sol\":1169:1184  houses[houseId] */\n      dup2\n      mstore\n      0x20\n      add\n      swap1\n      dup2\n      mstore\n      0x20\n      add\n      0x00\n      keccak256\n        /* \"contract/HouseRegistry.sol\":1169:1187  houses[houseId].id */\n      0x00\n      add\n      sload\n        /* \"contract/HouseRegistry.sol\":1158:1165  houseId */\n      dup2\n        /* \"contract/HouseRegistry.sol\":1158:1187  houseId != houses[houseId].id */\n      eq\n      iszero\n        /* \"contract/HouseRegistry.sol\":1150:1219  require(houseId != houses[houseId].id, \"this houseId already exists\") */\n      tag_41\n      jumpi\n      mload(0x40)\n      0x08c379a000000000000000000000000000000000000000000000000000000000\n      dup2\n      mstore\n      0x04\n      add\n      tag_42\n      swap1\n      tag_43\n      jump\t// in\n    tag_42:\n      mload(0x40)\n      dup1\n      swap2\n      sub\n      swap1\n      revert\n    tag_41:\n        /* \"contract/HouseRegistry.sol\":1247:1345  House(houseId, countOfHouses, _price, _area, _sellerAddress, _sellerAddress, _houseAddress, false) */\n      mload(0x40)\n      dup1\n      0x0100\n      add\n      0x40\n      mstore\n      dup1\n        /* \"contract/HouseRegistry.sol\":1253:1260  houseId */\n      dup3\n        /* \"contract/HouseRegistry.sol\":1247:1345  House(houseId, countOfHouses, _price, _area, _sellerAddress, _sellerAddress, _houseAddress, false) */\n      dup2\n      mstore\n      0x20\n      add\n        /* \"contract/HouseRegistry.sol\":1262:1275  countOfHouses */\n      sload(0x03)\n        /* \"contract/HouseRegistry.sol\":1247:1345  House(houseId, countOfHouses, _price, _area, _sellerAddress, _sellerAddress, _houseAddress, false) */\n      dup2\n      mstore\n      0x20\n      add\n        /* \"contract/HouseRegistry.sol\":1277:1283  _price */\n      dup8\n        /* \"contract/HouseRegistry.sol\":1247:1345  House(houseId, countOfHouses, _price, _area, _sellerAddress, _sellerAddress, _houseAddress, false) */\n      dup2\n      mstore\n      0x20\n      add\n        /* \"contract/HouseRegistry.sol\":1285:1290  _area */\n      dup7\n        /* \"contract/HouseRegistry.sol\":1247:1345  House(houseId, countOfHouses, _price, _area, _sellerAddress, _sellerAddress, _houseAddress, false) */\n      dup2\n      mstore\n      0x20\n      add\n        /* \"contract/HouseRegistry.sol\":1292:1306  _sellerAddress */\n      dup6\n        /* \"contract/HouseRegistry.sol\":1247:1345  House(houseId, countOfHouses, _price, _area, _sellerAddress, _sellerAddress, _houseAddress, false) */\n      0xffffffffffffffffffffffffffffffffffffffff\n      and\n      dup2\n      mstore\n      0x20\n      add\n        /* \"contract/HouseRegistry.sol\":1308:1322  _sellerAddress */\n      dup6\n        /* \"contract/HouseRegistry.sol\":1247:1345  House(houseId, countOfHouses, _price, _area, _sellerAddress, _sellerAddress, _houseAddress, false) */\n      0xffffffffffffffffffffffffffffffffffffffff\n      and\n      dup2\n      mstore\n      0x20\n      add\n        /* \"contract/HouseRegistry.sol\":1324:1337  _houseAddress */\n      dup5\n        /* \"contract/HouseRegistry.sol\":1247:1345  House(houseId, countOfHouses, _price, _area, _sellerAddress, _sellerAddress, _houseAddress, false) */\n      dup2\n      mstore\n      0x20\n      add\n        /* \"contract/HouseRegistry.sol\":1339:1344  false */\n      0x00\n        /* \"contract/HouseRegistry.sol\":1247:1345  House(houseId, countOfHouses, _price, _area, _sellerAddress, _sellerAddress, _houseAddress, false) */\n      iszero\n      iszero\n      dup2\n      mstore\n      pop\n        /* \"contract/HouseRegistry.sol\":1229:1235  houses */\n      0x06\n        /* \"contract/HouseRegistry.sol\":1229:1244  houses[houseId] */\n      0x00\n        /* \"contract/HouseRegistry.sol\":1236:1243  houseId */\n      dup4\n        /* \"contract/HouseRegistry.sol\":1229:1244  houses[houseId] */\n      dup2\n      mstore\n      0x20\n      add\n      swap1\n      dup2\n      mstore\n      0x20\n      add\n      0x00\n      keccak256\n        /* \"contract/HouseRegistry.sol\":1229:1345  houses[houseId] = House(houseId, countOfHouses, _price, _area, _sellerAddress, _sellerAddress, _houseAddress, false) */\n      0x00\n      dup3\n      add\n      mload\n      dup2\n      0x00\n      add\n      sstore\n      0x20\n      dup3\n      add\n      mload\n      dup2\n      0x01\n      add\n      sstore\n      0x40\n      dup3\n      add\n      mload\n      dup2\n      0x02\n      add\n      sstore\n      0x60\n      dup3\n      add\n      mload\n      dup2\n      0x03\n      add\n      sstore\n      0x80\n      dup3\n      add\n      mload\n      dup2\n      0x04\n      add\n      exp(0x0100, 0x00)\n      dup2\n      sload\n      dup2\n      0xffffffffffffffffffffffffffffffffffffffff\n      mul\n      not\n      and\n      swap1\n      dup4\n      0xffffffffffffffffffffffffffffffffffffffff\n      and\n      mul\n      or\n      swap1\n      sstore\n      pop\n      0xa0\n      dup3\n      add\n      mload\n      dup2\n      0x05\n      add\n      exp(0x0100, 0x00)\n      dup2\n      sload\n      dup2\n      0xffffffffffffffffffffffffffffffffffffffff\n      mul\n      not\n      and\n      swap1\n      dup4\n      0xffffffffffffffffffffffffffffffffffffffff\n      and\n      mul\n      or\n      swap1\n      sstore\n      pop\n      0xc0\n      dup3\n      add\n      mload\n      dup2\n      0x06\n      add\n      swap1\n      dup1\n      mload\n      swap1\n      0x20\n      add\n      swap1\n      tag_44\n      swap3\n      swap2\n      swap1\n      tag_45\n      jump\t// in\n    tag_44:\n      pop\n      0xe0\n      dup3\n      add\n      mload\n      dup2\n      0x07\n      add\n      exp(0x0100, 0x00)\n      dup2\n      sload\n      dup2\n      0xff\n      mul\n      not\n      and\n      swap1\n      dup4\n      iszero\n      iszero\n      mul\n      or\n      swap1\n      sstore\n      pop\n      swap1\n      pop\n      pop\n        /* \"contract/HouseRegistry.sol\":1356:1402  _ownerCooldown(block.timestamp + cooldownTime) */\n      tag_46\n        /* \"contract/HouseRegistry.sol\":1389:1401  cooldownTime */\n      sload(0x02)\n        /* \"contract/HouseRegistry.sol\":1371:1386  block.timestamp */\n      timestamp\n        /* \"contract/HouseRegistry.sol\":1371:1401  block.timestamp + cooldownTime */\n      tag_47\n      swap2\n      swap1\n      tag_48\n      jump\t// in\n    tag_47:\n        /* \"contract/HouseRegistry.sol\":1356:1370  _ownerCooldown */\n      tag_49\n        /* \"contract/HouseRegistry.sol\":1356:1402  _ownerCooldown(block.timestamp + cooldownTime) */\n      jump\t// in\n    tag_46:\n        /* \"contract/HouseRegistry.sol\":1412:1422  houseIndex */\n      0x05\n        /* \"contract/HouseRegistry.sol\":1428:1435  houseId */\n      dup2\n        /* \"contract/HouseRegistry.sol\":1412:1436  houseIndex.push(houseId) */\n      swap1\n      dup1\n      0x01\n      dup2\n      sload\n      add\n      dup1\n      dup3\n      sstore\n      dup1\n      swap2\n      pop\n      pop\n      0x01\n      swap1\n      sub\n      swap1\n      0x00\n      mstore\n      keccak256(0x00, 0x20)\n      add\n      0x00\n      swap1\n      swap2\n      swap1\n      swap2\n      swap1\n      swap2\n      pop\n      sstore\n        /* \"contract/HouseRegistry.sol\":1446:1459  countOfHouses */\n      0x03\n      0x00\n        /* \"contract/HouseRegistry.sol\":1446:1461  countOfHouses++ */\n      dup2\n      sload\n      dup1\n      swap3\n      swap2\n      swap1\n      tag_51\n      swap1\n      tag_52\n      jump\t// in\n    tag_51:\n      swap2\n      swap1\n      pop\n      sstore\n      pop\n        /* \"contract/HouseRegistry.sol\":1476:1535  AddNewHouse(houseId, _sellerAddress, _price, _houseAddress) */\n      0x8f5afd88eb4be0ac287d87970052ce9a2b453448408e3c91a695ad7509ab7194\n        /* \"contract/HouseRegistry.sol\":1488:1495  houseId */\n      dup2\n        /* \"contract/HouseRegistry.sol\":1497:1511  _sellerAddress */\n      dup6\n        /* \"contract/HouseRegistry.sol\":1513:1519  _price */\n      dup9\n        /* \"contract/HouseRegistry.sol\":1521:1534  _houseAddress */\n      dup7\n        /* \"contract/HouseRegistry.sol\":1476:1535  AddNewHouse(houseId, _sellerAddress, _price, _houseAddress) */\n      mload(0x40)\n      tag_53\n      swap5\n      swap4\n      swap3\n      swap2\n      swap1\n      tag_54\n      jump\t// in\n    tag_53:\n      mload(0x40)\n      dup1\n      swap2\n      sub\n      swap1\n      log1\n        /* \"contract/HouseRegistry.sol\":1552:1559  houseId */\n      dup1\n        /* \"contract/HouseRegistry.sol\":1545:1559  return houseId */\n      swap2\n      pop\n      pop\n        /* \"contract/HouseRegistry.sol\":880:1566  function listHouse (uint _price, uint _area, address _sellerAddress, string memory _houseAddress) public returns (uint) {... */\n      swap5\n      swap4\n      pop\n      pop\n      pop\n      pop\n      jump\t// out\n        /* \"contract/HouseRegistry.sol\":739:775  mapping(uint => House) public houses */\n    tag_21:\n      mstore(0x20, 0x06)\n      dup1\n      0x00\n      mstore\n      keccak256(0x00, 0x40)\n      0x00\n      swap2\n      pop\n      swap1\n      pop\n      dup1\n      0x00\n      add\n      sload\n      swap1\n      dup1\n      0x01\n      add\n      sload\n      swap1\n      dup1\n      0x02\n      add\n      sload\n      swap1\n      dup1\n      0x03\n      add\n      sload\n      swap1\n      dup1\n      0x04\n      add\n      0x00\n      swap1\n      sload\n      swap1\n      0x0100\n      exp\n      swap1\n      div\n      0xffffffffffffffffffffffffffffffffffffffff\n      and\n      swap1\n      dup1\n      0x05\n      add\n      0x00\n      swap1\n      sload\n      swap1\n      0x0100\n      exp\n      swap1\n      div\n      0xffffffffffffffffffffffffffffffffffffffff\n      and\n      swap1\n      dup1\n      0x06\n      add\n      dup1\n      sload\n      tag_55\n      swap1\n      tag_56\n      jump\t// in\n    tag_55:\n      dup1\n      0x1f\n      add\n      0x20\n      dup1\n      swap2\n      div\n      mul\n      0x20\n      add\n      mload(0x40)\n      swap1\n      dup2\n      add\n      0x40\n      mstore\n      dup1\n      swap3\n      swap2\n      swap1\n      dup2\n      dup2\n      mstore\n      0x20\n      add\n      dup3\n      dup1\n      sload\n      tag_57\n      swap1\n      tag_56\n      jump\t// in\n    tag_57:\n      dup1\n      iszero\n      tag_58\n      jumpi\n      dup1\n      0x1f\n      lt\n      tag_59\n      jumpi\n      0x0100\n      dup1\n      dup4\n      sload\n      div\n      mul\n      dup4\n      mstore\n      swap2\n      0x20\n      add\n      swap2\n      jump(tag_58)\n    tag_59:\n      dup3\n      add\n      swap2\n      swap1\n      0x00\n      mstore\n      keccak256(0x00, 0x20)\n      swap1\n    tag_60:\n      dup2\n      sload\n      dup2\n      mstore\n      swap1\n      0x01\n      add\n      swap1\n      0x20\n      add\n      dup1\n      dup4\n      gt\n      tag_60\n      jumpi\n      dup3\n      swap1\n      sub\n      0x1f\n      and\n      dup3\n      add\n      swap2\n    tag_58:\n      pop\n      pop\n      pop\n      pop\n      pop\n      swap1\n      dup1\n      0x07\n      add\n      0x00\n      swap1\n      sload\n      swap1\n      0x0100\n      exp\n      swap1\n      div\n      0xff\n      and\n      swap1\n      pop\n      dup9\n      jump\t// out\n        /* \"contract/HouseRegistry.sol\":1847:2385  function getCheapHouseIds(uint cost) external view returns (uint[]memory){... */\n    tag_26:\n        /* \"contract/HouseRegistry.sol\":1907:1919  uint[]memory */\n      0x60\n        /* \"contract/HouseRegistry.sol\":1930:1940  uint count */\n      0x00\n        /* \"contract/HouseRegistry.sol\":1958:1964  uint i */\n      dup1\n        /* \"contract/HouseRegistry.sol\":1954:2099  for(uint i = 0; i < houseIndex.length; i++){... */\n    tag_62:\n        /* \"contract/HouseRegistry.sol\":1974:1984  houseIndex */\n      0x05\n        /* \"contract/HouseRegistry.sol\":1974:1991  houseIndex.length */\n      dup1\n      sload\n      swap1\n      pop\n        /* \"contract/HouseRegistry.sol\":1970:1971  i */\n      dup2\n        /* \"contract/HouseRegistry.sol\":1970:1991  i < houseIndex.length */\n      lt\n        /* \"contract/HouseRegistry.sol\":1954:2099  for(uint i = 0; i < houseIndex.length; i++){... */\n      iszero\n      tag_63\n      jumpi\n        /* \"contract/HouseRegistry.sol\":2044:2048  cost */\n      dup4\n        /* \"contract/HouseRegistry.sol\":2014:2020  houses */\n      0x06\n        /* \"contract/HouseRegistry.sol\":2014:2035  houses[houseIndex[i]] */\n      0x00\n        /* \"contract/HouseRegistry.sol\":2021:2031  houseIndex */\n      0x05\n        /* \"contract/HouseRegistry.sol\":2032:2033  i */\n      dup5\n        /* \"contract/HouseRegistry.sol\":2021:2034  houseIndex[i] */\n      dup2\n      sload\n      dup2\n      lt\n      tag_65\n      jumpi\n      tag_66\n      tag_67\n      jump\t// in\n    tag_66:\n    tag_65:\n      swap1\n      0x00\n      mstore\n      keccak256(0x00, 0x20)\n      add\n      sload\n        /* \"contract/HouseRegistry.sol\":2014:2035  houses[houseIndex[i]] */\n      dup2\n      mstore\n      0x20\n      add\n      swap1\n      dup2\n      mstore\n      0x20\n      add\n      0x00\n      keccak256\n        /* \"contract/HouseRegistry.sol\":2014:2041  houses[houseIndex[i]].price */\n      0x02\n      add\n      sload\n        /* \"contract/HouseRegistry.sol\":2014:2048  houses[houseIndex[i]].price < cost */\n      lt\n        /* \"contract/HouseRegistry.sol\":2011:2089  if(houses[houseIndex[i]].price < cost){... */\n      iszero\n      tag_69\n      jumpi\n        /* \"contract/HouseRegistry.sol\":2067:2074  count++ */\n      dup2\n      dup1\n      tag_70\n      swap1\n      tag_52\n      jump\t// in\n    tag_70:\n      swap3\n      pop\n      pop\n        /* \"contract/HouseRegistry.sol\":2011:2089  if(houses[houseIndex[i]].price < cost){... */\n    tag_69:\n        /* \"contract/HouseRegistry.sol\":1993:1996  i++ */\n      dup1\n      dup1\n      tag_71\n      swap1\n      tag_52\n      jump\t// in\n    tag_71:\n      swap2\n      pop\n      pop\n        /* \"contract/HouseRegistry.sol\":1954:2099  for(uint i = 0; i < houseIndex.length; i++){... */\n      jump(tag_62)\n    tag_63:\n      pop\n        /* \"contract/HouseRegistry.sol\":2108:2136  uint[] memory filteredHouses */\n      0x00\n        /* \"contract/HouseRegistry.sol\":2150:2155  count */\n      dup2\n        /* \"contract/HouseRegistry.sol\":2139:2156  new uint[](count) */\n      0xffffffffffffffff\n      dup2\n      gt\n      iszero\n      tag_72\n      jumpi\n      tag_73\n      tag_74\n      jump\t// in\n    tag_73:\n    tag_72:\n      mload(0x40)\n      swap1\n      dup1\n      dup3\n      mstore\n      dup1\n      0x20\n      mul\n      0x20\n      add\n      dup3\n      add\n      0x40\n      mstore\n      dup1\n      iszero\n      tag_75\n      jumpi\n      dup2\n      0x20\n      add\n      0x20\n      dup3\n      mul\n      dup1\n      calldatasize\n      dup4\n      calldatacopy\n      dup1\n      dup3\n      add\n      swap2\n      pop\n      pop\n      swap1\n      pop\n    tag_75:\n      pop\n        /* \"contract/HouseRegistry.sol\":2108:2156  uint[] memory filteredHouses = new uint[](count) */\n      swap1\n      pop\n        /* \"contract/HouseRegistry.sol\":2170:2176  uint i */\n      0x00\n        /* \"contract/HouseRegistry.sol\":2166:2348  for(uint i = 0; i < houseIndex.length; i++){... */\n    tag_76:\n        /* \"contract/HouseRegistry.sol\":2186:2196  houseIndex */\n      0x05\n        /* \"contract/HouseRegistry.sol\":2186:2203  houseIndex.length */\n      dup1\n      sload\n      swap1\n      pop\n        /* \"contract/HouseRegistry.sol\":2182:2183  i */\n      dup2\n        /* \"contract/HouseRegistry.sol\":2182:2203  i < houseIndex.length */\n      lt\n        /* \"contract/HouseRegistry.sol\":2166:2348  for(uint i = 0; i < houseIndex.length; i++){... */\n      iszero\n      tag_77\n      jumpi\n        /* \"contract/HouseRegistry.sol\":2256:2260  cost */\n      dup5\n        /* \"contract/HouseRegistry.sol\":2226:2232  houses */\n      0x06\n        /* \"contract/HouseRegistry.sol\":2226:2247  houses[houseIndex[i]] */\n      0x00\n        /* \"contract/HouseRegistry.sol\":2233:2243  houseIndex */\n      0x05\n        /* \"contract/HouseRegistry.sol\":2244:2245  i */\n      dup5\n        /* \"contract/HouseRegistry.sol\":2233:2246  houseIndex[i] */\n      dup2\n      sload\n      dup2\n      lt\n      tag_79\n      jumpi\n      tag_80\n      tag_67\n      jump\t// in\n    tag_80:\n    tag_79:\n      swap1\n      0x00\n      mstore\n      keccak256(0x00, 0x20)\n      add\n      sload\n        /* \"contract/HouseRegistry.sol\":2226:2247  houses[houseIndex[i]] */\n      dup2\n      mstore\n      0x20\n      add\n      swap1\n      dup2\n      mstore\n      0x20\n      add\n      0x00\n      keccak256\n        /* \"contract/HouseRegistry.sol\":2226:2253  houses[houseIndex[i]].price */\n      0x02\n      add\n      sload\n        /* \"contract/HouseRegistry.sol\":2226:2260  houses[houseIndex[i]].price < cost */\n      lt\n        /* \"contract/HouseRegistry.sol\":2223:2338  if(houses[houseIndex[i]].price < cost){... */\n      iszero\n      tag_82\n      jumpi\n        /* \"contract/HouseRegistry.sol\":2299:2305  houses */\n      0x06\n        /* \"contract/HouseRegistry.sol\":2299:2320  houses[houseIndex[i]] */\n      0x00\n        /* \"contract/HouseRegistry.sol\":2306:2316  houseIndex */\n      0x05\n        /* \"contract/HouseRegistry.sol\":2317:2318  i */\n      dup4\n        /* \"contract/HouseRegistry.sol\":2306:2319  houseIndex[i] */\n      dup2\n      sload\n      dup2\n      lt\n      tag_83\n      jumpi\n      tag_84\n      tag_67\n      jump\t// in\n    tag_84:\n    tag_83:\n      swap1\n      0x00\n      mstore\n      keccak256(0x00, 0x20)\n      add\n      sload\n        /* \"contract/HouseRegistry.sol\":2299:2320  houses[houseIndex[i]] */\n      dup2\n      mstore\n      0x20\n      add\n      swap1\n      dup2\n      mstore\n      0x20\n      add\n      0x00\n      keccak256\n        /* \"contract/HouseRegistry.sol\":2299:2323  houses[houseIndex[i]].id */\n      0x00\n      add\n      sload\n        /* \"contract/HouseRegistry.sol\":2279:2293  filteredHouses */\n      dup3\n        /* \"contract/HouseRegistry.sol\":2294:2295  i */\n      dup3\n        /* \"contract/HouseRegistry.sol\":2279:2296  filteredHouses[i] */\n      dup2\n      mload\n      dup2\n      lt\n      tag_86\n      jumpi\n      tag_87\n      tag_67\n      jump\t// in\n    tag_87:\n    tag_86:\n      0x20\n      mul\n      0x20\n      add\n      add\n        /* \"contract/HouseRegistry.sol\":2279:2323  filteredHouses[i] = houses[houseIndex[i]].id */\n      dup2\n      dup2\n      mstore\n      pop\n      pop\n        /* \"contract/HouseRegistry.sol\":2223:2338  if(houses[houseIndex[i]].price < cost){... */\n    tag_82:\n        /* \"contract/HouseRegistry.sol\":2205:2208  i++ */\n      dup1\n      dup1\n      tag_88\n      swap1\n      tag_52\n      jump\t// in\n    tag_88:\n      swap2\n      pop\n      pop\n        /* \"contract/HouseRegistry.sol\":2166:2348  for(uint i = 0; i < houseIndex.length; i++){... */\n      jump(tag_76)\n    tag_77:\n      pop\n        /* \"contract/HouseRegistry.sol\":2364:2378  filteredHouses */\n      dup1\n        /* \"contract/HouseRegistry.sol\":2357:2378  return filteredHouses */\n      swap3\n      pop\n      pop\n      pop\n        /* \"contract/HouseRegistry.sol\":1847:2385  function getCheapHouseIds(uint cost) external view returns (uint[]memory){... */\n      swap2\n      swap1\n      pop\n      jump\t// out\n        /* \"contract/HouseRegistry.sol\":2391:2645  function _generateHouseId(address _sellerAddress, uint _area, string memory _houseAddress) private view returns(uint){... */\n    tag_40:\n        /* \"contract/HouseRegistry.sol\":2503:2507  uint */\n      0x00\n        /* \"contract/HouseRegistry.sol\":2518:2530  uint houseId */\n      dup1\n        /* \"contract/HouseRegistry.sol\":2565:2579  _sellerAddress */\n      dup5\n        /* \"contract/HouseRegistry.sol\":2581:2586  _area */\n      dup5\n        /* \"contract/HouseRegistry.sol\":2588:2601  _houseAddress */\n      dup5\n        /* \"contract/HouseRegistry.sol\":2548:2602  abi.encodePacked(_sellerAddress, _area, _houseAddress) */\n      add(0x20, mload(0x40))\n      tag_90\n      swap4\n      swap3\n      swap2\n      swap1\n      tag_91\n      jump\t// in\n    tag_90:\n      mload(0x40)\n      0x20\n      dup2\n      dup4\n      sub\n      sub\n      dup2\n      mstore\n      swap1\n      0x40\n      mstore\n        /* \"contract/HouseRegistry.sol\":2538:2603  keccak256(abi.encodePacked(_sellerAddress, _area, _houseAddress)) */\n      dup1\n      mload\n      swap1\n      0x20\n      add\n      keccak256\n        /* \"contract/HouseRegistry.sol\":2533:2604  uint(keccak256(abi.encodePacked(_sellerAddress, _area, _houseAddress))) */\n      0x00\n      shr\n        /* \"contract/HouseRegistry.sol\":2518:2604  uint houseId = uint(keccak256(abi.encodePacked(_sellerAddress, _area, _houseAddress))) */\n      swap1\n      pop\n        /* \"contract/HouseRegistry.sol\":2631:2638  modulus */\n      sload(0x01)\n        /* \"contract/HouseRegistry.sol\":2621:2628  houseId */\n      dup2\n        /* \"contract/HouseRegistry.sol\":2621:2638  houseId % modulus */\n      tag_92\n      swap2\n      swap1\n      tag_93\n      jump\t// in\n    tag_92:\n        /* \"contract/HouseRegistry.sol\":2614:2638  return houseId % modulus */\n      swap2\n      pop\n      pop\n        /* \"contract/HouseRegistry.sol\":2391:2645  function _generateHouseId(address _sellerAddress, uint _area, string memory _houseAddress) private view returns(uint){... */\n      swap4\n      swap3\n      pop\n      pop\n      pop\n      jump\t// out\n        /* \"contract/HouseRegistry.sol\":782:874  function _ownerCooldown(uint _newTime) internal {... */\n    tag_49:\n        /* \"contract/HouseRegistry.sol\":859:867  _newTime */\n      dup1\n        /* \"contract/HouseRegistry.sol\":840:856  ownerAddCooldown */\n      0x04\n        /* \"contract/HouseRegistry.sol\":840:867  ownerAddCooldown = _newTime */\n      dup2\n      swap1\n      sstore\n      pop\n        /* \"contract/HouseRegistry.sol\":782:874  function _ownerCooldown(uint _newTime) internal {... */\n      pop\n      jump\t// out\n    tag_45:\n      dup3\n      dup1\n      sload\n      tag_95\n      swap1\n      tag_56\n      jump\t// in\n    tag_95:\n      swap1\n      0x00\n      mstore\n      keccak256(0x00, 0x20)\n      swap1\n      0x1f\n      add\n      0x20\n      swap1\n      div\n      dup2\n      add\n      swap3\n      dup3\n      tag_97\n      jumpi\n      0x00\n      dup6\n      sstore\n      jump(tag_96)\n    tag_97:\n      dup3\n      0x1f\n      lt\n      tag_98\n      jumpi\n      dup1\n      mload\n      not(0xff)\n      and\n      dup4\n      dup1\n      add\n      or\n      dup6\n      sstore\n      jump(tag_96)\n    tag_98:\n      dup3\n      dup1\n      add\n      0x01\n      add\n      dup6\n      sstore\n      dup3\n      iszero\n      tag_96\n      jumpi\n      swap2\n      dup3\n      add\n    tag_99:\n      dup3\n      dup2\n      gt\n      iszero\n      tag_100\n      jumpi\n      dup3\n      mload\n      dup3\n      sstore\n      swap2\n      0x20\n      add\n      swap2\n      swap1\n      0x01\n      add\n      swap1\n      jump(tag_99)\n    tag_100:\n    tag_96:\n      pop\n      swap1\n      pop\n      tag_101\n      swap2\n      swap1\n      tag_102\n      jump\t// in\n    tag_101:\n      pop\n      swap1\n      jump\t// out\n    tag_102:\n    tag_103:\n      dup1\n      dup3\n      gt\n      iszero\n      tag_104\n      jumpi\n      0x00\n      dup2\n      0x00\n      swap1\n      sstore\n      pop\n      0x01\n      add\n      jump(tag_103)\n    tag_104:\n      pop\n      swap1\n      jump\t// out\n        /* \"#utility.yul\":7:419   */\n    tag_106:\n        /* \"#utility.yul\":85:90   */\n      0x00\n        /* \"#utility.yul\":110:176   */\n      tag_108\n        /* \"#utility.yul\":126:175   */\n      tag_109\n        /* \"#utility.yul\":168:174   */\n      dup5\n        /* \"#utility.yul\":126:175   */\n      tag_110\n      jump\t// in\n    tag_109:\n        /* \"#utility.yul\":110:176   */\n      tag_111\n      jump\t// in\n    tag_108:\n        /* \"#utility.yul\":101:176   */\n      swap1\n      pop\n        /* \"#utility.yul\":199:205   */\n      dup3\n        /* \"#utility.yul\":192:197   */\n      dup2\n        /* \"#utility.yul\":185:206   */\n      mstore\n        /* \"#utility.yul\":237:241   */\n      0x20\n        /* \"#utility.yul\":230:235   */\n      dup2\n        /* \"#utility.yul\":226:242   */\n      add\n        /* \"#utility.yul\":275:278   */\n      dup5\n        /* \"#utility.yul\":266:272   */\n      dup5\n        /* \"#utility.yul\":261:264   */\n      dup5\n        /* \"#utility.yul\":257:273   */\n      add\n        /* \"#utility.yul\":254:279   */\n      gt\n        /* \"#utility.yul\":251:363   */\n      iszero\n      tag_112\n      jumpi\n        /* \"#utility.yul\":282:361   */\n      tag_113\n      tag_114\n      jump\t// in\n    tag_113:\n        /* \"#utility.yul\":251:363   */\n    tag_112:\n        /* \"#utility.yul\":372:413   */\n      tag_115\n        /* \"#utility.yul\":406:412   */\n      dup5\n        /* \"#utility.yul\":401:404   */\n      dup3\n        /* \"#utility.yul\":396:399   */\n      dup6\n        /* \"#utility.yul\":372:413   */\n      tag_116\n      jump\t// in\n    tag_115:\n        /* \"#utility.yul\":91:419   */\n      pop\n        /* \"#utility.yul\":7:419   */\n      swap4\n      swap3\n      pop\n      pop\n      pop\n      jump\t// out\n        /* \"#utility.yul\":425:564   */\n    tag_117:\n        /* \"#utility.yul\":471:476   */\n      0x00\n        /* \"#utility.yul\":509:515   */\n      dup2\n        /* \"#utility.yul\":496:516   */\n      calldataload\n        /* \"#utility.yul\":487:516   */\n      swap1\n      pop\n        /* \"#utility.yul\":525:558   */\n      tag_119\n        /* \"#utility.yul\":552:557   */\n      dup2\n        /* \"#utility.yul\":525:558   */\n      tag_120\n      jump\t// in\n    tag_119:\n        /* \"#utility.yul\":425:564   */\n      swap3\n      swap2\n      pop\n      pop\n      jump\t// out\n        /* \"#utility.yul\":584:924   */\n    tag_121:\n        /* \"#utility.yul\":640:645   */\n      0x00\n        /* \"#utility.yul\":689:692   */\n      dup3\n        /* \"#utility.yul\":682:686   */\n      0x1f\n        /* \"#utility.yul\":674:680   */\n      dup4\n        /* \"#utility.yul\":670:687   */\n      add\n        /* \"#utility.yul\":666:693   */\n      slt\n        /* \"#utility.yul\":656:778   */\n      tag_123\n      jumpi\n        /* \"#utility.yul\":697:776   */\n      tag_124\n      tag_125\n      jump\t// in\n    tag_124:\n        /* \"#utility.yul\":656:778   */\n    tag_123:\n        /* \"#utility.yul\":814:820   */\n      dup2\n        /* \"#utility.yul\":801:821   */\n      calldataload\n        /* \"#utility.yul\":839:918   */\n      tag_126\n        /* \"#utility.yul\":914:917   */\n      dup5\n        /* \"#utility.yul\":906:912   */\n      dup3\n        /* \"#utility.yul\":899:903   */\n      0x20\n        /* \"#utility.yul\":891:897   */\n      dup7\n        /* \"#utility.yul\":887:904   */\n      add\n        /* \"#utility.yul\":839:918   */\n      tag_106\n      jump\t// in\n    tag_126:\n        /* \"#utility.yul\":830:918   */\n      swap2\n      pop\n        /* \"#utility.yul\":646:924   */\n      pop\n        /* \"#utility.yul\":584:924   */\n      swap3\n      swap2\n      pop\n      pop\n      jump\t// out\n        /* \"#utility.yul\":930:1069   */\n    tag_127:\n        /* \"#utility.yul\":976:981   */\n      0x00\n        /* \"#utility.yul\":1014:1020   */\n      dup2\n        /* \"#utility.yul\":1001:1021   */\n      calldataload\n        /* \"#utility.yul\":992:1021   */\n      swap1\n      pop\n        /* \"#utility.yul\":1030:1063   */\n      tag_129\n        /* \"#utility.yul\":1057:1062   */\n      dup2\n        /* \"#utility.yul\":1030:1063   */\n      tag_130\n      jump\t// in\n    tag_129:\n        /* \"#utility.yul\":930:1069   */\n      swap3\n      swap2\n      pop\n      pop\n      jump\t// out\n        /* \"#utility.yul\":1075:1404   */\n    tag_9:\n        /* \"#utility.yul\":1134:1140   */\n      0x00\n        /* \"#utility.yul\":1183:1185   */\n      0x20\n        /* \"#utility.yul\":1171:1180   */\n      dup3\n        /* \"#utility.yul\":1162:1169   */\n      dup5\n        /* \"#utility.yul\":1158:1181   */\n      sub\n        /* \"#utility.yul\":1154:1186   */\n      slt\n        /* \"#utility.yul\":1151:1270   */\n      iszero\n      tag_132\n      jumpi\n        /* \"#utility.yul\":1189:1268   */\n      tag_133\n      tag_134\n      jump\t// in\n    tag_133:\n        /* \"#utility.yul\":1151:1270   */\n    tag_132:\n        /* \"#utility.yul\":1309:1310   */\n      0x00\n        /* \"#utility.yul\":1334:1387   */\n      tag_135\n        /* \"#utility.yul\":1379:1386   */\n      dup5\n        /* \"#utility.yul\":1370:1376   */\n      dup3\n        /* \"#utility.yul\":1359:1368   */\n      dup6\n        /* \"#utility.yul\":1355:1377   */\n      add\n        /* \"#utility.yul\":1334:1387   */\n      tag_127\n      jump\t// in\n    tag_135:\n        /* \"#utility.yul\":1324:1387   */\n      swap2\n      pop\n        /* \"#utility.yul\":1280:1397   */\n      pop\n        /* \"#utility.yul\":1075:1404   */\n      swap3\n      swap2\n      pop\n      pop\n      jump\t// out\n        /* \"#utility.yul\":1410:2355   */\n    tag_15:\n        /* \"#utility.yul\":1506:1512   */\n      0x00\n        /* \"#utility.yul\":1514:1520   */\n      dup1\n        /* \"#utility.yul\":1522:1528   */\n      0x00\n        /* \"#utility.yul\":1530:1536   */\n      dup1\n        /* \"#utility.yul\":1579:1582   */\n      0x80\n        /* \"#utility.yul\":1567:1576   */\n      dup6\n        /* \"#utility.yul\":1558:1565   */\n      dup8\n        /* \"#utility.yul\":1554:1577   */\n      sub\n        /* \"#utility.yul\":1550:1583   */\n      slt\n        /* \"#utility.yul\":1547:1667   */\n      iszero\n      tag_137\n      jumpi\n        /* \"#utility.yul\":1586:1665   */\n      tag_138\n      tag_134\n      jump\t// in\n    tag_138:\n        /* \"#utility.yul\":1547:1667   */\n    tag_137:\n        /* \"#utility.yul\":1706:1707   */\n      0x00\n        /* \"#utility.yul\":1731:1784   */\n      tag_139\n        /* \"#utility.yul\":1776:1783   */\n      dup8\n        /* \"#utility.yul\":1767:1773   */\n      dup3\n        /* \"#utility.yul\":1756:1765   */\n      dup9\n        /* \"#utility.yul\":1752:1774   */\n      add\n        /* \"#utility.yul\":1731:1784   */\n      tag_127\n      jump\t// in\n    tag_139:\n        /* \"#utility.yul\":1721:1784   */\n      swap5\n      pop\n        /* \"#utility.yul\":1677:1794   */\n      pop\n        /* \"#utility.yul\":1833:1835   */\n      0x20\n        /* \"#utility.yul\":1859:1912   */\n      tag_140\n        /* \"#utility.yul\":1904:1911   */\n      dup8\n        /* \"#utility.yul\":1895:1901   */\n      dup3\n        /* \"#utility.yul\":1884:1893   */\n      dup9\n        /* \"#utility.yul\":1880:1902   */\n      add\n        /* \"#utility.yul\":1859:1912   */\n      tag_127\n      jump\t// in\n    tag_140:\n        /* \"#utility.yul\":1849:1912   */\n      swap4\n      pop\n        /* \"#utility.yul\":1804:1922   */\n      pop\n        /* \"#utility.yul\":1961:1963   */\n      0x40\n        /* \"#utility.yul\":1987:2040   */\n      tag_141\n        /* \"#utility.yul\":2032:2039   */\n      dup8\n        /* \"#utility.yul\":2023:2029   */\n      dup3\n        /* \"#utility.yul\":2012:2021   */\n      dup9\n        /* \"#utility.yul\":2008:2030   */\n      add\n        /* \"#utility.yul\":1987:2040   */\n      tag_117\n      jump\t// in\n    tag_141:\n        /* \"#utility.yul\":1977:2040   */\n      swap3\n      pop\n        /* \"#utility.yul\":1932:2050   */\n      pop\n        /* \"#utility.yul\":2117:2119   */\n      0x60\n        /* \"#utility.yul\":2106:2115   */\n      dup6\n        /* \"#utility.yul\":2102:2120   */\n      add\n        /* \"#utility.yul\":2089:2121   */\n      calldataload\n        /* \"#utility.yul\":2148:2166   */\n      0xffffffffffffffff\n        /* \"#utility.yul\":2140:2146   */\n      dup2\n        /* \"#utility.yul\":2137:2167   */\n      gt\n        /* \"#utility.yul\":2134:2251   */\n      iszero\n      tag_142\n      jumpi\n        /* \"#utility.yul\":2170:2249   */\n      tag_143\n      tag_144\n      jump\t// in\n    tag_143:\n        /* \"#utility.yul\":2134:2251   */\n    tag_142:\n        /* \"#utility.yul\":2275:2338   */\n      tag_145\n        /* \"#utility.yul\":2330:2337   */\n      dup8\n        /* \"#utility.yul\":2321:2327   */\n      dup3\n        /* \"#utility.yul\":2310:2319   */\n      dup9\n        /* \"#utility.yul\":2306:2328   */\n      add\n        /* \"#utility.yul\":2275:2338   */\n      tag_121\n      jump\t// in\n    tag_145:\n        /* \"#utility.yul\":2265:2338   */\n      swap2\n      pop\n        /* \"#utility.yul\":2060:2348   */\n      pop\n        /* \"#utility.yul\":1410:2355   */\n      swap3\n      swap6\n      swap2\n      swap5\n      pop\n      swap3\n      pop\n      jump\t// out\n        /* \"#utility.yul\":2361:2540   */\n    tag_146:\n        /* \"#utility.yul\":2430:2440   */\n      0x00\n        /* \"#utility.yul\":2451:2497   */\n      tag_148\n        /* \"#utility.yul\":2493:2496   */\n      dup4\n        /* \"#utility.yul\":2485:2491   */\n      dup4\n        /* \"#utility.yul\":2451:2497   */\n      tag_149\n      jump\t// in\n    tag_148:\n        /* \"#utility.yul\":2529:2533   */\n      0x20\n        /* \"#utility.yul\":2524:2527   */\n      dup4\n        /* \"#utility.yul\":2520:2534   */\n      add\n        /* \"#utility.yul\":2506:2534   */\n      swap1\n      pop\n        /* \"#utility.yul\":2361:2540   */\n      swap3\n      swap2\n      pop\n      pop\n      jump\t// out\n        /* \"#utility.yul\":2546:2664   */\n    tag_150:\n        /* \"#utility.yul\":2633:2657   */\n      tag_152\n        /* \"#utility.yul\":2651:2656   */\n      dup2\n        /* \"#utility.yul\":2633:2657   */\n      tag_153\n      jump\t// in\n    tag_152:\n        /* \"#utility.yul\":2628:2631   */\n      dup3\n        /* \"#utility.yul\":2621:2658   */\n      mstore\n        /* \"#utility.yul\":2546:2664   */\n      pop\n      pop\n      jump\t// out\n        /* \"#utility.yul\":2670:2827   */\n    tag_154:\n        /* \"#utility.yul\":2775:2820   */\n      tag_156\n        /* \"#utility.yul\":2795:2819   */\n      tag_157\n        /* \"#utility.yul\":2813:2818   */\n      dup3\n        /* \"#utility.yul\":2795:2819   */\n      tag_153\n      jump\t// in\n    tag_157:\n        /* \"#utility.yul\":2775:2820   */\n      tag_158\n      jump\t// in\n    tag_156:\n        /* \"#utility.yul\":2770:2773   */\n      dup3\n        /* \"#utility.yul\":2763:2821   */\n      mstore\n        /* \"#utility.yul\":2670:2827   */\n      pop\n      pop\n      jump\t// out\n        /* \"#utility.yul\":2863:3595   */\n    tag_159:\n        /* \"#utility.yul\":2982:2985   */\n      0x00\n        /* \"#utility.yul\":3011:3065   */\n      tag_161\n        /* \"#utility.yul\":3059:3064   */\n      dup3\n        /* \"#utility.yul\":3011:3065   */\n      tag_162\n      jump\t// in\n    tag_161:\n        /* \"#utility.yul\":3081:3167   */\n      tag_163\n        /* \"#utility.yul\":3160:3166   */\n      dup2\n        /* \"#utility.yul\":3155:3158   */\n      dup6\n        /* \"#utility.yul\":3081:3167   */\n      tag_164\n      jump\t// in\n    tag_163:\n        /* \"#utility.yul\":3074:3167   */\n      swap4\n      pop\n        /* \"#utility.yul\":3191:3247   */\n      tag_165\n        /* \"#utility.yul\":3241:3246   */\n      dup4\n        /* \"#utility.yul\":3191:3247   */\n      tag_166\n      jump\t// in\n    tag_165:\n        /* \"#utility.yul\":3270:3277   */\n      dup1\n        /* \"#utility.yul\":3301:3302   */\n      0x00\n        /* \"#utility.yul\":3286:3570   */\n    tag_167:\n        /* \"#utility.yul\":3311:3317   */\n      dup4\n        /* \"#utility.yul\":3308:3309   */\n      dup2\n        /* \"#utility.yul\":3305:3318   */\n      lt\n        /* \"#utility.yul\":3286:3570   */\n      iszero\n      tag_169\n      jumpi\n        /* \"#utility.yul\":3387:3393   */\n      dup2\n        /* \"#utility.yul\":3381:3394   */\n      mload\n        /* \"#utility.yul\":3414:3477   */\n      tag_170\n        /* \"#utility.yul\":3473:3476   */\n      dup9\n        /* \"#utility.yul\":3458:3471   */\n      dup3\n        /* \"#utility.yul\":3414:3477   */\n      tag_146\n      jump\t// in\n    tag_170:\n        /* \"#utility.yul\":3407:3477   */\n      swap8\n      pop\n        /* \"#utility.yul\":3500:3560   */\n      tag_171\n        /* \"#utility.yul\":3553:3559   */\n      dup4\n        /* \"#utility.yul\":3500:3560   */\n      tag_172\n      jump\t// in\n    tag_171:\n        /* \"#utility.yul\":3490:3560   */\n      swap3\n      pop\n        /* \"#utility.yul\":3346:3570   */\n      pop\n        /* \"#utility.yul\":3333:3334   */\n      0x01\n        /* \"#utility.yul\":3330:3331   */\n      dup2\n        /* \"#utility.yul\":3326:3335   */\n      add\n        /* \"#utility.yul\":3321:3335   */\n      swap1\n      pop\n        /* \"#utility.yul\":3286:3570   */\n      jump(tag_167)\n    tag_169:\n        /* \"#utility.yul\":3290:3304   */\n      pop\n        /* \"#utility.yul\":3586:3589   */\n      dup6\n        /* \"#utility.yul\":3579:3589   */\n      swap4\n      pop\n        /* \"#utility.yul\":2987:3595   */\n      pop\n      pop\n      pop\n        /* \"#utility.yul\":2863:3595   */\n      swap3\n      swap2\n      pop\n      pop\n      jump\t// out\n        /* \"#utility.yul\":3601:3710   */\n    tag_173:\n        /* \"#utility.yul\":3682:3703   */\n      tag_175\n        /* \"#utility.yul\":3697:3702   */\n      dup2\n        /* \"#utility.yul\":3682:3703   */\n      tag_176\n      jump\t// in\n    tag_175:\n        /* \"#utility.yul\":3677:3680   */\n      dup3\n        /* \"#utility.yul\":3670:3704   */\n      mstore\n        /* \"#utility.yul\":3601:3710   */\n      pop\n      pop\n      jump\t// out\n        /* \"#utility.yul\":3716:4080   */\n    tag_177:\n        /* \"#utility.yul\":3804:3807   */\n      0x00\n        /* \"#utility.yul\":3832:3871   */\n      tag_179\n        /* \"#utility.yul\":3865:3870   */\n      dup3\n        /* \"#utility.yul\":3832:3871   */\n      tag_180\n      jump\t// in\n    tag_179:\n        /* \"#utility.yul\":3887:3958   */\n      tag_181\n        /* \"#utility.yul\":3951:3957   */\n      dup2\n        /* \"#utility.yul\":3946:3949   */\n      dup6\n        /* \"#utility.yul\":3887:3958   */\n      tag_182\n      jump\t// in\n    tag_181:\n        /* \"#utility.yul\":3880:3958   */\n      swap4\n      pop\n        /* \"#utility.yul\":3967:4019   */\n      tag_183\n        /* \"#utility.yul\":4012:4018   */\n      dup2\n        /* \"#utility.yul\":4007:4010   */\n      dup6\n        /* \"#utility.yul\":4000:4004   */\n      0x20\n        /* \"#utility.yul\":3993:3998   */\n      dup7\n        /* \"#utility.yul\":3989:4005   */\n      add\n        /* \"#utility.yul\":3967:4019   */\n      tag_184\n      jump\t// in\n    tag_183:\n        /* \"#utility.yul\":4044:4073   */\n      tag_185\n        /* \"#utility.yul\":4066:4072   */\n      dup2\n        /* \"#utility.yul\":4044:4073   */\n      tag_186\n      jump\t// in\n    tag_185:\n        /* \"#utility.yul\":4039:4042   */\n      dup5\n        /* \"#utility.yul\":4035:4074   */\n      add\n        /* \"#utility.yul\":4028:4074   */\n      swap2\n      pop\n        /* \"#utility.yul\":3808:4080   */\n      pop\n        /* \"#utility.yul\":3716:4080   */\n      swap3\n      swap2\n      pop\n      pop\n      jump\t// out\n        /* \"#utility.yul\":4086:4463   */\n    tag_187:\n        /* \"#utility.yul\":4192:4195   */\n      0x00\n        /* \"#utility.yul\":4220:4259   */\n      tag_189\n        /* \"#utility.yul\":4253:4258   */\n      dup3\n        /* \"#utility.yul\":4220:4259   */\n      tag_180\n      jump\t// in\n    tag_189:\n        /* \"#utility.yul\":4275:4364   */\n      tag_190\n        /* \"#utility.yul\":4357:4363   */\n      dup2\n        /* \"#utility.yul\":4352:4355   */\n      dup6\n        /* \"#utility.yul\":4275:4364   */\n      tag_191\n      jump\t// in\n    tag_190:\n        /* \"#utility.yul\":4268:4364   */\n      swap4\n      pop\n        /* \"#utility.yul\":4373:4425   */\n      tag_192\n        /* \"#utility.yul\":4418:4424   */\n      dup2\n        /* \"#utility.yul\":4413:4416   */\n      dup6\n        /* \"#utility.yul\":4406:4410   */\n      0x20\n        /* \"#utility.yul\":4399:4404   */\n      dup7\n        /* \"#utility.yul\":4395:4411   */\n      add\n        /* \"#utility.yul\":4373:4425   */\n      tag_184\n      jump\t// in\n    tag_192:\n        /* \"#utility.yul\":4450:4456   */\n      dup1\n        /* \"#utility.yul\":4445:4448   */\n      dup5\n        /* \"#utility.yul\":4441:4457   */\n      add\n        /* \"#utility.yul\":4434:4457   */\n      swap2\n      pop\n        /* \"#utility.yul\":4196:4463   */\n      pop\n        /* \"#utility.yul\":4086:4463   */\n      swap3\n      swap2\n      pop\n      pop\n      jump\t// out\n        /* \"#utility.yul\":4469:4835   */\n    tag_193:\n        /* \"#utility.yul\":4611:4614   */\n      0x00\n        /* \"#utility.yul\":4632:4699   */\n      tag_195\n        /* \"#utility.yul\":4696:4698   */\n      0x14\n        /* \"#utility.yul\":4691:4694   */\n      dup4\n        /* \"#utility.yul\":4632:4699   */\n      tag_182\n      jump\t// in\n    tag_195:\n        /* \"#utility.yul\":4625:4699   */\n      swap2\n      pop\n        /* \"#utility.yul\":4708:4801   */\n      tag_196\n        /* \"#utility.yul\":4797:4800   */\n      dup3\n        /* \"#utility.yul\":4708:4801   */\n      tag_197\n      jump\t// in\n    tag_196:\n        /* \"#utility.yul\":4826:4828   */\n      0x20\n        /* \"#utility.yul\":4821:4824   */\n      dup3\n        /* \"#utility.yul\":4817:4829   */\n      add\n        /* \"#utility.yul\":4810:4829   */\n      swap1\n      pop\n        /* \"#utility.yul\":4469:4835   */\n      swap2\n      swap1\n      pop\n      jump\t// out\n        /* \"#utility.yul\":4841:5207   */\n    tag_198:\n        /* \"#utility.yul\":4983:4986   */\n      0x00\n        /* \"#utility.yul\":5004:5071   */\n      tag_200\n        /* \"#utility.yul\":5068:5070   */\n      0x1b\n        /* \"#utility.yul\":5063:5066   */\n      dup4\n        /* \"#utility.yul\":5004:5071   */\n      tag_182\n      jump\t// in\n    tag_200:\n        /* \"#utility.yul\":4997:5071   */\n      swap2\n      pop\n        /* \"#utility.yul\":5080:5173   */\n      tag_201\n        /* \"#utility.yul\":5169:5172   */\n      dup3\n        /* \"#utility.yul\":5080:5173   */\n      tag_202\n      jump\t// in\n    tag_201:\n        /* \"#utility.yul\":5198:5200   */\n      0x20\n        /* \"#utility.yul\":5193:5196   */\n      dup3\n        /* \"#utility.yul\":5189:5201   */\n      add\n        /* \"#utility.yul\":5182:5201   */\n      swap1\n      pop\n        /* \"#utility.yul\":4841:5207   */\n      swap2\n      swap1\n      pop\n      jump\t// out\n        /* \"#utility.yul\":5213:5579   */\n    tag_203:\n        /* \"#utility.yul\":5355:5358   */\n      0x00\n        /* \"#utility.yul\":5376:5443   */\n      tag_205\n        /* \"#utility.yul\":5440:5442   */\n      0x2b\n        /* \"#utility.yul\":5435:5438   */\n      dup4\n        /* \"#utility.yul\":5376:5443   */\n      tag_182\n      jump\t// in\n    tag_205:\n        /* \"#utility.yul\":5369:5443   */\n      swap2\n      pop\n        /* \"#utility.yul\":5452:5545   */\n      tag_206\n        /* \"#utility.yul\":5541:5544   */\n      dup3\n        /* \"#utility.yul\":5452:5545   */\n      tag_207\n      jump\t// in\n    tag_206:\n        /* \"#utility.yul\":5570:5572   */\n      0x40\n        /* \"#utility.yul\":5565:5568   */\n      dup3\n        /* \"#utility.yul\":5561:5573   */\n      add\n        /* \"#utility.yul\":5554:5573   */\n      swap1\n      pop\n        /* \"#utility.yul\":5213:5579   */\n      swap2\n      swap1\n      pop\n      jump\t// out\n        /* \"#utility.yul\":5585:5693   */\n    tag_149:\n        /* \"#utility.yul\":5662:5686   */\n      tag_209\n        /* \"#utility.yul\":5680:5685   */\n      dup2\n        /* \"#utility.yul\":5662:5686   */\n      tag_210\n      jump\t// in\n    tag_209:\n        /* \"#utility.yul\":5657:5660   */\n      dup3\n        /* \"#utility.yul\":5650:5687   */\n      mstore\n        /* \"#utility.yul\":5585:5693   */\n      pop\n      pop\n      jump\t// out\n        /* \"#utility.yul\":5699:5817   */\n    tag_211:\n        /* \"#utility.yul\":5786:5810   */\n      tag_213\n        /* \"#utility.yul\":5804:5809   */\n      dup2\n        /* \"#utility.yul\":5786:5810   */\n      tag_210\n      jump\t// in\n    tag_213:\n        /* \"#utility.yul\":5781:5784   */\n      dup3\n        /* \"#utility.yul\":5774:5811   */\n      mstore\n        /* \"#utility.yul\":5699:5817   */\n      pop\n      pop\n      jump\t// out\n        /* \"#utility.yul\":5823:5980   */\n    tag_214:\n        /* \"#utility.yul\":5928:5973   */\n      tag_216\n        /* \"#utility.yul\":5948:5972   */\n      tag_217\n        /* \"#utility.yul\":5966:5971   */\n      dup3\n        /* \"#utility.yul\":5948:5972   */\n      tag_210\n      jump\t// in\n    tag_217:\n        /* \"#utility.yul\":5928:5973   */\n      tag_218\n      jump\t// in\n    tag_216:\n        /* \"#utility.yul\":5923:5926   */\n      dup3\n        /* \"#utility.yul\":5916:5974   */\n      mstore\n        /* \"#utility.yul\":5823:5980   */\n      pop\n      pop\n      jump\t// out\n        /* \"#utility.yul\":5986:6543   */\n    tag_91:\n        /* \"#utility.yul\":6174:6177   */\n      0x00\n        /* \"#utility.yul\":6189:6264   */\n      tag_220\n        /* \"#utility.yul\":6260:6263   */\n      dup3\n        /* \"#utility.yul\":6251:6257   */\n      dup7\n        /* \"#utility.yul\":6189:6264   */\n      tag_154\n      jump\t// in\n    tag_220:\n        /* \"#utility.yul\":6289:6291   */\n      0x14\n        /* \"#utility.yul\":6284:6287   */\n      dup3\n        /* \"#utility.yul\":6280:6292   */\n      add\n        /* \"#utility.yul\":6273:6292   */\n      swap2\n      pop\n        /* \"#utility.yul\":6302:6377   */\n      tag_221\n        /* \"#utility.yul\":6373:6376   */\n      dup3\n        /* \"#utility.yul\":6364:6370   */\n      dup6\n        /* \"#utility.yul\":6302:6377   */\n      tag_214\n      jump\t// in\n    tag_221:\n        /* \"#utility.yul\":6402:6404   */\n      0x20\n        /* \"#utility.yul\":6397:6400   */\n      dup3\n        /* \"#utility.yul\":6393:6405   */\n      add\n        /* \"#utility.yul\":6386:6405   */\n      swap2\n      pop\n        /* \"#utility.yul\":6422:6517   */\n      tag_222\n        /* \"#utility.yul\":6513:6516   */\n      dup3\n        /* \"#utility.yul\":6504:6510   */\n      dup5\n        /* \"#utility.yul\":6422:6517   */\n      tag_187\n      jump\t// in\n    tag_222:\n        /* \"#utility.yul\":6415:6517   */\n      swap2\n      pop\n        /* \"#utility.yul\":6534:6537   */\n      dup2\n        /* \"#utility.yul\":6527:6537   */\n      swap1\n      pop\n        /* \"#utility.yul\":5986:6543   */\n      swap5\n      swap4\n      pop\n      pop\n      pop\n      pop\n      jump\t// out\n        /* \"#utility.yul\":6549:6922   */\n    tag_28:\n        /* \"#utility.yul\":6692:6696   */\n      0x00\n        /* \"#utility.yul\":6730:6732   */\n      0x20\n        /* \"#utility.yul\":6719:6728   */\n      dup3\n        /* \"#utility.yul\":6715:6733   */\n      add\n        /* \"#utility.yul\":6707:6733   */\n      swap1\n      pop\n        /* \"#utility.yul\":6779:6788   */\n      dup2\n        /* \"#utility.yul\":6773:6777   */\n      dup2\n        /* \"#utility.yul\":6769:6789   */\n      sub\n        /* \"#utility.yul\":6765:6766   */\n      0x00\n        /* \"#utility.yul\":6754:6763   */\n      dup4\n        /* \"#utility.yul\":6750:6767   */\n      add\n        /* \"#utility.yul\":6743:6790   */\n      mstore\n        /* \"#utility.yul\":6807:6915   */\n      tag_224\n        /* \"#utility.yul\":6910:6914   */\n      dup2\n        /* \"#utility.yul\":6901:6907   */\n      dup5\n        /* \"#utility.yul\":6807:6915   */\n      tag_159\n      jump\t// in\n    tag_224:\n        /* \"#utility.yul\":6799:6915   */\n      swap1\n      pop\n        /* \"#utility.yul\":6549:6922   */\n      swap3\n      swap2\n      pop\n      pop\n      jump\t// out\n        /* \"#utility.yul\":6928:7241   */\n    tag_12:\n        /* \"#utility.yul\":7041:7045   */\n      0x00\n        /* \"#utility.yul\":7079:7081   */\n      0x20\n        /* \"#utility.yul\":7068:7077   */\n      dup3\n        /* \"#utility.yul\":7064:7082   */\n      add\n        /* \"#utility.yul\":7056:7082   */\n      swap1\n      pop\n        /* \"#utility.yul\":7128:7137   */\n      dup2\n        /* \"#utility.yul\":7122:7126   */\n      dup2\n        /* \"#utility.yul\":7118:7138   */\n      sub\n        /* \"#utility.yul\":7114:7115   */\n      0x00\n        /* \"#utility.yul\":7103:7112   */\n      dup4\n        /* \"#utility.yul\":7099:7116   */\n      add\n        /* \"#utility.yul\":7092:7139   */\n      mstore\n        /* \"#utility.yul\":7156:7234   */\n      tag_226\n        /* \"#utility.yul\":7229:7233   */\n      dup2\n        /* \"#utility.yul\":7220:7226   */\n      dup5\n        /* \"#utility.yul\":7156:7234   */\n      tag_177\n      jump\t// in\n    tag_226:\n        /* \"#utility.yul\":7148:7234   */\n      swap1\n      pop\n        /* \"#utility.yul\":6928:7241   */\n      swap3\n      swap2\n      pop\n      pop\n      jump\t// out\n        /* \"#utility.yul\":7247:7666   */\n    tag_38:\n        /* \"#utility.yul\":7413:7417   */\n      0x00\n        /* \"#utility.yul\":7451:7453   */\n      0x20\n        /* \"#utility.yul\":7440:7449   */\n      dup3\n        /* \"#utility.yul\":7436:7454   */\n      add\n        /* \"#utility.yul\":7428:7454   */\n      swap1\n      pop\n        /* \"#utility.yul\":7500:7509   */\n      dup2\n        /* \"#utility.yul\":7494:7498   */\n      dup2\n        /* \"#utility.yul\":7490:7510   */\n      sub\n        /* \"#utility.yul\":7486:7487   */\n      0x00\n        /* \"#utility.yul\":7475:7484   */\n      dup4\n        /* \"#utility.yul\":7471:7488   */\n      add\n        /* \"#utility.yul\":7464:7511   */\n      mstore\n        /* \"#utility.yul\":7528:7659   */\n      tag_228\n        /* \"#utility.yul\":7654:7658   */\n      dup2\n        /* \"#utility.yul\":7528:7659   */\n      tag_193\n      jump\t// in\n    tag_228:\n        /* \"#utility.yul\":7520:7659   */\n      swap1\n      pop\n        /* \"#utility.yul\":7247:7666   */\n      swap2\n      swap1\n      pop\n      jump\t// out\n        /* \"#utility.yul\":7672:8091   */\n    tag_43:\n        /* \"#utility.yul\":7838:7842   */\n      0x00\n        /* \"#utility.yul\":7876:7878   */\n      0x20\n        /* \"#utility.yul\":7865:7874   */\n      dup3\n        /* \"#utility.yul\":7861:7879   */\n      add\n        /* \"#utility.yul\":7853:7879   */\n      swap1\n      pop\n        /* \"#utility.yul\":7925:7934   */\n      dup2\n        /* \"#utility.yul\":7919:7923   */\n      dup2\n        /* \"#utility.yul\":7915:7935   */\n      sub\n        /* \"#utility.yul\":7911:7912   */\n      0x00\n        /* \"#utility.yul\":7900:7909   */\n      dup4\n        /* \"#utility.yul\":7896:7913   */\n      add\n        /* \"#utility.yul\":7889:7936   */\n      mstore\n        /* \"#utility.yul\":7953:8084   */\n      tag_230\n        /* \"#utility.yul\":8079:8083   */\n      dup2\n        /* \"#utility.yul\":7953:8084   */\n      tag_198\n      jump\t// in\n    tag_230:\n        /* \"#utility.yul\":7945:8084   */\n      swap1\n      pop\n        /* \"#utility.yul\":7672:8091   */\n      swap2\n      swap1\n      pop\n      jump\t// out\n        /* \"#utility.yul\":8097:8516   */\n    tag_32:\n        /* \"#utility.yul\":8263:8267   */\n      0x00\n        /* \"#utility.yul\":8301:8303   */\n      0x20\n        /* \"#utility.yul\":8290:8299   */\n      dup3\n        /* \"#utility.yul\":8286:8304   */\n      add\n        /* \"#utility.yul\":8278:8304   */\n      swap1\n      pop\n        /* \"#utility.yul\":8350:8359   */\n      dup2\n        /* \"#utility.yul\":8344:8348   */\n      dup2\n        /* \"#utility.yul\":8340:8360   */\n      sub\n        /* \"#utility.yul\":8336:8337   */\n      0x00\n        /* \"#utility.yul\":8325:8334   */\n      dup4\n        /* \"#utility.yul\":8321:8338   */\n      add\n        /* \"#utility.yul\":8314:8361   */\n      mstore\n        /* \"#utility.yul\":8378:8509   */\n      tag_232\n        /* \"#utility.yul\":8504:8508   */\n      dup2\n        /* \"#utility.yul\":8378:8509   */\n      tag_203\n      jump\t// in\n    tag_232:\n        /* \"#utility.yul\":8370:8509   */\n      swap1\n      pop\n        /* \"#utility.yul\":8097:8516   */\n      swap2\n      swap1\n      pop\n      jump\t// out\n        /* \"#utility.yul\":8522:8744   */\n    tag_18:\n        /* \"#utility.yul\":8615:8619   */\n      0x00\n        /* \"#utility.yul\":8653:8655   */\n      0x20\n        /* \"#utility.yul\":8642:8651   */\n      dup3\n        /* \"#utility.yul\":8638:8656   */\n      add\n        /* \"#utility.yul\":8630:8656   */\n      swap1\n      pop\n        /* \"#utility.yul\":8666:8737   */\n      tag_234\n        /* \"#utility.yul\":8734:8735   */\n      0x00\n        /* \"#utility.yul\":8723:8732   */\n      dup4\n        /* \"#utility.yul\":8719:8736   */\n      add\n        /* \"#utility.yul\":8710:8716   */\n      dup5\n        /* \"#utility.yul\":8666:8737   */\n      tag_211\n      jump\t// in\n    tag_234:\n        /* \"#utility.yul\":8522:8744   */\n      swap3\n      swap2\n      pop\n      pop\n      jump\t// out\n        /* \"#utility.yul\":8750:9394   */\n    tag_54:\n        /* \"#utility.yul\":8947:8951   */\n      0x00\n        /* \"#utility.yul\":8985:8988   */\n      0x80\n        /* \"#utility.yul\":8974:8983   */\n      dup3\n        /* \"#utility.yul\":8970:8989   */\n      add\n        /* \"#utility.yul\":8962:8989   */\n      swap1\n      pop\n        /* \"#utility.yul\":8999:9070   */\n      tag_236\n        /* \"#utility.yul\":9067:9068   */\n      0x00\n        /* \"#utility.yul\":9056:9065   */\n      dup4\n        /* \"#utility.yul\":9052:9069   */\n      add\n        /* \"#utility.yul\":9043:9049   */\n      dup8\n        /* \"#utility.yul\":8999:9070   */\n      tag_211\n      jump\t// in\n    tag_236:\n        /* \"#utility.yul\":9080:9152   */\n      tag_237\n        /* \"#utility.yul\":9148:9150   */\n      0x20\n        /* \"#utility.yul\":9137:9146   */\n      dup4\n        /* \"#utility.yul\":9133:9151   */\n      add\n        /* \"#utility.yul\":9124:9130   */\n      dup7\n        /* \"#utility.yul\":9080:9152   */\n      tag_150\n      jump\t// in\n    tag_237:\n        /* \"#utility.yul\":9162:9234   */\n      tag_238\n        /* \"#utility.yul\":9230:9232   */\n      0x40\n        /* \"#utility.yul\":9219:9228   */\n      dup4\n        /* \"#utility.yul\":9215:9233   */\n      add\n        /* \"#utility.yul\":9206:9212   */\n      dup6\n        /* \"#utility.yul\":9162:9234   */\n      tag_211\n      jump\t// in\n    tag_238:\n        /* \"#utility.yul\":9281:9290   */\n      dup2\n        /* \"#utility.yul\":9275:9279   */\n      dup2\n        /* \"#utility.yul\":9271:9291   */\n      sub\n        /* \"#utility.yul\":9266:9268   */\n      0x60\n        /* \"#utility.yul\":9255:9264   */\n      dup4\n        /* \"#utility.yul\":9251:9269   */\n      add\n        /* \"#utility.yul\":9244:9292   */\n      mstore\n        /* \"#utility.yul\":9309:9387   */\n      tag_239\n        /* \"#utility.yul\":9382:9386   */\n      dup2\n        /* \"#utility.yul\":9373:9379   */\n      dup5\n        /* \"#utility.yul\":9309:9387   */\n      tag_177\n      jump\t// in\n    tag_239:\n        /* \"#utility.yul\":9301:9387   */\n      swap1\n      pop\n        /* \"#utility.yul\":8750:9394   */\n      swap6\n      swap5\n      pop\n      pop\n      pop\n      pop\n      pop\n      jump\t// out\n        /* \"#utility.yul\":9400:10476   */\n    tag_23:\n        /* \"#utility.yul\":9703:9707   */\n      0x00\n        /* \"#utility.yul\":9741:9744   */\n      0x0100\n        /* \"#utility.yul\":9730:9739   */\n      dup3\n        /* \"#utility.yul\":9726:9745   */\n      add\n        /* \"#utility.yul\":9718:9745   */\n      swap1\n      pop\n        /* \"#utility.yul\":9755:9826   */\n      tag_241\n        /* \"#utility.yul\":9823:9824   */\n      0x00\n        /* \"#utility.yul\":9812:9821   */\n      dup4\n        /* \"#utility.yul\":9808:9825   */\n      add\n        /* \"#utility.yul\":9799:9805   */\n      dup12\n        /* \"#utility.yul\":9755:9826   */\n      tag_211\n      jump\t// in\n    tag_241:\n        /* \"#utility.yul\":9836:9908   */\n      tag_242\n        /* \"#utility.yul\":9904:9906   */\n      0x20\n        /* \"#utility.yul\":9893:9902   */\n      dup4\n        /* \"#utility.yul\":9889:9907   */\n      add\n        /* \"#utility.yul\":9880:9886   */\n      dup11\n        /* \"#utility.yul\":9836:9908   */\n      tag_211\n      jump\t// in\n    tag_242:\n        /* \"#utility.yul\":9918:9990   */\n      tag_243\n        /* \"#utility.yul\":9986:9988   */\n      0x40\n        /* \"#utility.yul\":9975:9984   */\n      dup4\n        /* \"#utility.yul\":9971:9989   */\n      add\n        /* \"#utility.yul\":9962:9968   */\n      dup10\n        /* \"#utility.yul\":9918:9990   */\n      tag_211\n      jump\t// in\n    tag_243:\n        /* \"#utility.yul\":10000:10072   */\n      tag_244\n        /* \"#utility.yul\":10068:10070   */\n      0x60\n        /* \"#utility.yul\":10057:10066   */\n      dup4\n        /* \"#utility.yul\":10053:10071   */\n      add\n        /* \"#utility.yul\":10044:10050   */\n      dup9\n        /* \"#utility.yul\":10000:10072   */\n      tag_211\n      jump\t// in\n    tag_244:\n        /* \"#utility.yul\":10082:10155   */\n      tag_245\n        /* \"#utility.yul\":10150:10153   */\n      0x80\n        /* \"#utility.yul\":10139:10148   */\n      dup4\n        /* \"#utility.yul\":10135:10154   */\n      add\n        /* \"#utility.yul\":10126:10132   */\n      dup8\n        /* \"#utility.yul\":10082:10155   */\n      tag_150\n      jump\t// in\n    tag_245:\n        /* \"#utility.yul\":10165:10238   */\n      tag_246\n        /* \"#utility.yul\":10233:10236   */\n      0xa0\n        /* \"#utility.yul\":10222:10231   */\n      dup4\n        /* \"#utility.yul\":10218:10237   */\n      add\n        /* \"#utility.yul\":10209:10215   */\n      dup7\n        /* \"#utility.yul\":10165:10238   */\n      tag_150\n      jump\t// in\n    tag_246:\n        /* \"#utility.yul\":10286:10295   */\n      dup2\n        /* \"#utility.yul\":10280:10284   */\n      dup2\n        /* \"#utility.yul\":10276:10296   */\n      sub\n        /* \"#utility.yul\":10270:10273   */\n      0xc0\n        /* \"#utility.yul\":10259:10268   */\n      dup4\n        /* \"#utility.yul\":10255:10274   */\n      add\n        /* \"#utility.yul\":10248:10297   */\n      mstore\n        /* \"#utility.yul\":10314:10392   */\n      tag_247\n        /* \"#utility.yul\":10387:10391   */\n      dup2\n        /* \"#utility.yul\":10378:10384   */\n      dup6\n        /* \"#utility.yul\":10314:10392   */\n      tag_177\n      jump\t// in\n    tag_247:\n        /* \"#utility.yul\":10306:10392   */\n      swap1\n      pop\n        /* \"#utility.yul\":10402:10469   */\n      tag_248\n        /* \"#utility.yul\":10464:10467   */\n      0xe0\n        /* \"#utility.yul\":10453:10462   */\n      dup4\n        /* \"#utility.yul\":10449:10468   */\n      add\n        /* \"#utility.yul\":10440:10446   */\n      dup5\n        /* \"#utility.yul\":10402:10469   */\n      tag_173\n      jump\t// in\n    tag_248:\n        /* \"#utility.yul\":9400:10476   */\n      swap10\n      swap9\n      pop\n      pop\n      pop\n      pop\n      pop\n      pop\n      pop\n      pop\n      pop\n      jump\t// out\n        /* \"#utility.yul\":10482:10611   */\n    tag_111:\n        /* \"#utility.yul\":10516:10522   */\n      0x00\n        /* \"#utility.yul\":10543:10563   */\n      tag_250\n      tag_251\n      jump\t// in\n    tag_250:\n        /* \"#utility.yul\":10533:10563   */\n      swap1\n      pop\n        /* \"#utility.yul\":10572:10605   */\n      tag_252\n        /* \"#utility.yul\":10600:10604   */\n      dup3\n        /* \"#utility.yul\":10592:10598   */\n      dup3\n        /* \"#utility.yul\":10572:10605   */\n      tag_253\n      jump\t// in\n    tag_252:\n        /* \"#utility.yul\":10482:10611   */\n      swap2\n      swap1\n      pop\n      jump\t// out\n        /* \"#utility.yul\":10617:10692   */\n    tag_251:\n        /* \"#utility.yul\":10650:10656   */\n      0x00\n        /* \"#utility.yul\":10683:10685   */\n      0x40\n        /* \"#utility.yul\":10677:10686   */\n      mload\n        /* \"#utility.yul\":10667:10686   */\n      swap1\n      pop\n        /* \"#utility.yul\":10617:10692   */\n      swap1\n      jump\t// out\n        /* \"#utility.yul\":10698:11006   */\n    tag_110:\n        /* \"#utility.yul\":10760:10764   */\n      0x00\n        /* \"#utility.yul\":10850:10868   */\n      0xffffffffffffffff\n        /* \"#utility.yul\":10842:10848   */\n      dup3\n        /* \"#utility.yul\":10839:10869   */\n      gt\n        /* \"#utility.yul\":10836:10892   */\n      iszero\n      tag_256\n      jumpi\n        /* \"#utility.yul\":10872:10890   */\n      tag_257\n      tag_74\n      jump\t// in\n    tag_257:\n        /* \"#utility.yul\":10836:10892   */\n    tag_256:\n        /* \"#utility.yul\":10910:10939   */\n      tag_258\n        /* \"#utility.yul\":10932:10938   */\n      dup3\n        /* \"#utility.yul\":10910:10939   */\n      tag_186\n      jump\t// in\n    tag_258:\n        /* \"#utility.yul\":10902:10939   */\n      swap1\n      pop\n        /* \"#utility.yul\":10994:10998   */\n      0x20\n        /* \"#utility.yul\":10988:10992   */\n      dup2\n        /* \"#utility.yul\":10984:10999   */\n      add\n        /* \"#utility.yul\":10976:10999   */\n      swap1\n      pop\n        /* \"#utility.yul\":10698:11006   */\n      swap2\n      swap1\n      pop\n      jump\t// out\n        /* \"#utility.yul\":11012:11144   */\n    tag_166:\n        /* \"#utility.yul\":11079:11083   */\n      0x00\n        /* \"#utility.yul\":11102:11105   */\n      dup2\n        /* \"#utility.yul\":11094:11105   */\n      swap1\n      pop\n        /* \"#utility.yul\":11132:11136   */\n      0x20\n        /* \"#utility.yul\":11127:11130   */\n      dup3\n        /* \"#utility.yul\":11123:11137   */\n      add\n        /* \"#utility.yul\":11115:11137   */\n      swap1\n      pop\n        /* \"#utility.yul\":11012:11144   */\n      swap2\n      swap1\n      pop\n      jump\t// out\n        /* \"#utility.yul\":11150:11264   */\n    tag_162:\n        /* \"#utility.yul\":11217:11223   */\n      0x00\n        /* \"#utility.yul\":11251:11256   */\n      dup2\n        /* \"#utility.yul\":11245:11257   */\n      mload\n        /* \"#utility.yul\":11235:11257   */\n      swap1\n      pop\n        /* \"#utility.yul\":11150:11264   */\n      swap2\n      swap1\n      pop\n      jump\t// out\n        /* \"#utility.yul\":11270:11369   */\n    tag_180:\n        /* \"#utility.yul\":11322:11328   */\n      0x00\n        /* \"#utility.yul\":11356:11361   */\n      dup2\n        /* \"#utility.yul\":11350:11362   */\n      mload\n        /* \"#utility.yul\":11340:11362   */\n      swap1\n      pop\n        /* \"#utility.yul\":11270:11369   */\n      swap2\n      swap1\n      pop\n      jump\t// out\n        /* \"#utility.yul\":11375:11488   */\n    tag_172:\n        /* \"#utility.yul\":11445:11449   */\n      0x00\n        /* \"#utility.yul\":11477:11481   */\n      0x20\n        /* \"#utility.yul\":11472:11475   */\n      dup3\n        /* \"#utility.yul\":11468:11482   */\n      add\n        /* \"#utility.yul\":11460:11482   */\n      swap1\n      pop\n        /* \"#utility.yul\":11375:11488   */\n      swap2\n      swap1\n      pop\n      jump\t// out\n        /* \"#utility.yul\":11494:11678   */\n    tag_164:\n        /* \"#utility.yul\":11593:11604   */\n      0x00\n        /* \"#utility.yul\":11627:11633   */\n      dup3\n        /* \"#utility.yul\":11622:11625   */\n      dup3\n        /* \"#utility.yul\":11615:11634   */\n      mstore\n        /* \"#utility.yul\":11667:11671   */\n      0x20\n        /* \"#utility.yul\":11662:11665   */\n      dup3\n        /* \"#utility.yul\":11658:11672   */\n      add\n        /* \"#utility.yul\":11643:11672   */\n      swap1\n      pop\n        /* \"#utility.yul\":11494:11678   */\n      swap3\n      swap2\n      pop\n      pop\n      jump\t// out\n        /* \"#utility.yul\":11684:11853   */\n    tag_182:\n        /* \"#utility.yul\":11768:11779   */\n      0x00\n        /* \"#utility.yul\":11802:11808   */\n      dup3\n        /* \"#utility.yul\":11797:11800   */\n      dup3\n        /* \"#utility.yul\":11790:11809   */\n      mstore\n        /* \"#utility.yul\":11842:11846   */\n      0x20\n        /* \"#utility.yul\":11837:11840   */\n      dup3\n        /* \"#utility.yul\":11833:11847   */\n      add\n        /* \"#utility.yul\":11818:11847   */\n      swap1\n      pop\n        /* \"#utility.yul\":11684:11853   */\n      swap3\n      swap2\n      pop\n      pop\n      jump\t// out\n        /* \"#utility.yul\":11859:12007   */\n    tag_191:\n        /* \"#utility.yul\":11961:11972   */\n      0x00\n        /* \"#utility.yul\":11998:12001   */\n      dup2\n        /* \"#utility.yul\":11983:12001   */\n      swap1\n      pop\n        /* \"#utility.yul\":11859:12007   */\n      swap3\n      swap2\n      pop\n      pop\n      jump\t// out\n        /* \"#utility.yul\":12013:12318   */\n    tag_48:\n        /* \"#utility.yul\":12053:12056   */\n      0x00\n        /* \"#utility.yul\":12072:12092   */\n      tag_267\n        /* \"#utility.yul\":12090:12091   */\n      dup3\n        /* \"#utility.yul\":12072:12092   */\n      tag_210\n      jump\t// in\n    tag_267:\n        /* \"#utility.yul\":12067:12092   */\n      swap2\n      pop\n        /* \"#utility.yul\":12106:12126   */\n      tag_268\n        /* \"#utility.yul\":12124:12125   */\n      dup4\n        /* \"#utility.yul\":12106:12126   */\n      tag_210\n      jump\t// in\n    tag_268:\n        /* \"#utility.yul\":12101:12126   */\n      swap3\n      pop\n        /* \"#utility.yul\":12260:12261   */\n      dup3\n        /* \"#utility.yul\":12192:12258   */\n      0xffffffffffffffffffffffffffffffffffffffffffffffffffffffffffffffff\n        /* \"#utility.yul\":12188:12262   */\n      sub\n        /* \"#utility.yul\":12185:12186   */\n      dup3\n        /* \"#utility.yul\":12182:12263   */\n      gt\n        /* \"#utility.yul\":12179:12286   */\n      iszero\n      tag_269\n      jumpi\n        /* \"#utility.yul\":12266:12284   */\n      tag_270\n      tag_271\n      jump\t// in\n    tag_270:\n        /* \"#utility.yul\":12179:12286   */\n    tag_269:\n        /* \"#utility.yul\":12310:12311   */\n      dup3\n        /* \"#utility.yul\":12307:12308   */\n      dup3\n        /* \"#utility.yul\":12303:12312   */\n      add\n        /* \"#utility.yul\":12296:12312   */\n      swap1\n      pop\n        /* \"#utility.yul\":12013:12318   */\n      swap3\n      swap2\n      pop\n      pop\n      jump\t// out\n        /* \"#utility.yul\":12324:12672   */\n    tag_35:\n        /* \"#utility.yul\":12364:12371   */\n      0x00\n        /* \"#utility.yul\":12387:12407   */\n      tag_273\n        /* \"#utility.yul\":12405:12406   */\n      dup3\n        /* \"#utility.yul\":12387:12407   */\n      tag_210\n      jump\t// in\n    tag_273:\n        /* \"#utility.yul\":12382:12407   */\n      swap2\n      pop\n        /* \"#utility.yul\":12421:12441   */\n      tag_274\n        /* \"#utility.yul\":12439:12440   */\n      dup4\n        /* \"#utility.yul\":12421:12441   */\n      tag_210\n      jump\t// in\n    tag_274:\n        /* \"#utility.yul\":12416:12441   */\n      swap3\n      pop\n        /* \"#utility.yul\":12609:12610   */\n      dup2\n        /* \"#utility.yul\":12541:12607   */\n      0xffffffffffffffffffffffffffffffffffffffffffffffffffffffffffffffff\n        /* \"#utility.yul\":12537:12611   */\n      div\n        /* \"#utility.yul\":12534:12535   */\n      dup4\n        /* \"#utility.yul\":12531:12612   */\n      gt\n        /* \"#utility.yul\":12526:12527   */\n      dup3\n        /* \"#utility.yul\":12519:12528   */\n      iszero\n        /* \"#utility.yul\":12512:12529   */\n      iszero\n        /* \"#utility.yul\":12508:12613   */\n      and\n        /* \"#utility.yul\":12505:12636   */\n      iszero\n      tag_275\n      jumpi\n        /* \"#utility.yul\":12616:12634   */\n      tag_276\n      tag_271\n      jump\t// in\n    tag_276:\n        /* \"#utility.yul\":12505:12636   */\n    tag_275:\n        /* \"#utility.yul\":12664:12665   */\n      dup3\n        /* \"#utility.yul\":12661:12662   */\n      dup3\n        /* \"#utility.yul\":12657:12666   */\n      mul\n        /* \"#utility.yul\":12646:12666   */\n      swap1\n      pop\n        /* \"#utility.yul\":12324:12672   */\n      swap3\n      swap2\n      pop\n      pop\n      jump\t// out\n        /* \"#utility.yul\":12678:12774   */\n    tag_153:\n        /* \"#utility.yul\":12715:12722   */\n      0x00\n        /* \"#utility.yul\":12744:12768   */\n      tag_278\n        /* \"#utility.yul\":12762:12767   */\n      dup3\n        /* \"#utility.yul\":12744:12768   */\n      tag_279\n      jump\t// in\n    tag_278:\n        /* \"#utility.yul\":12733:12768   */\n      swap1\n      pop\n        /* \"#utility.yul\":12678:12774   */\n      swap2\n      swap1\n      pop\n      jump\t// out\n        /* \"#utility.yul\":12780:12870   */\n    tag_176:\n        /* \"#utility.yul\":12814:12821   */\n      0x00\n        /* \"#utility.yul\":12857:12862   */\n      dup2\n        /* \"#utility.yul\":12850:12863   */\n      iszero\n        /* \"#utility.yul\":12843:12864   */\n      iszero\n        /* \"#utility.yul\":12832:12864   */\n      swap1\n      pop\n        /* \"#utility.yul\":12780:12870   */\n      swap2\n      swap1\n      pop\n      jump\t// out\n        /* \"#utility.yul\":12876:13002   */\n    tag_279:\n        /* \"#utility.yul\":12913:12920   */\n      0x00\n        /* \"#utility.yul\":12953:12995   */\n      0xffffffffffffffffffffffffffffffffffffffff\n        /* \"#utility.yul\":12946:12951   */\n      dup3\n        /* \"#utility.yul\":12942:12996   */\n      and\n        /* \"#utility.yul\":12931:12996   */\n      swap1\n      pop\n        /* \"#utility.yul\":12876:13002   */\n      swap2\n      swap1\n      pop\n      jump\t// out\n        /* \"#utility.yul\":13008:13085   */\n    tag_210:\n        /* \"#utility.yul\":13045:13052   */\n      0x00\n        /* \"#utility.yul\":13074:13079   */\n      dup2\n        /* \"#utility.yul\":13063:13079   */\n      swap1\n      pop\n        /* \"#utility.yul\":13008:13085   */\n      swap2\n      swap1\n      pop\n      jump\t// out\n        /* \"#utility.yul\":13091:13245   */\n    tag_116:\n        /* \"#utility.yul\":13175:13181   */\n      dup3\n        /* \"#utility.yul\":13170:13173   */\n      dup2\n        /* \"#utility.yul\":13165:13168   */\n      dup4\n        /* \"#utility.yul\":13152:13182   */\n      calldatacopy\n        /* \"#utility.yul\":13237:13238   */\n      0x00\n        /* \"#utility.yul\":13228:13234   */\n      dup4\n        /* \"#utility.yul\":13223:13226   */\n      dup4\n        /* \"#utility.yul\":13219:13235   */\n      add\n        /* \"#utility.yul\":13212:13239   */\n      mstore\n        /* \"#utility.yul\":13091:13245   */\n      pop\n      pop\n      pop\n      jump\t// out\n        /* \"#utility.yul\":13251:13558   */\n    tag_184:\n        /* \"#utility.yul\":13319:13320   */\n      0x00\n        /* \"#utility.yul\":13329:13442   */\n    tag_285:\n        /* \"#utility.yul\":13343:13349   */\n      dup4\n        /* \"#utility.yul\":13340:13341   */\n      dup2\n        /* \"#utility.yul\":13337:13350   */\n      lt\n        /* \"#utility.yul\":13329:13442   */\n      iszero\n      tag_287\n      jumpi\n        /* \"#utility.yul\":13428:13429   */\n      dup1\n        /* \"#utility.yul\":13423:13426   */\n      dup3\n        /* \"#utility.yul\":13419:13430   */\n      add\n        /* \"#utility.yul\":13413:13431   */\n      mload\n        /* \"#utility.yul\":13409:13410   */\n      dup2\n        /* \"#utility.yul\":13404:13407   */\n      dup5\n        /* \"#utility.yul\":13400:13411   */\n      add\n        /* \"#utility.yul\":13393:13432   */\n      mstore\n        /* \"#utility.yul\":13365:13367   */\n      0x20\n        /* \"#utility.yul\":13362:13363   */\n      dup2\n        /* \"#utility.yul\":13358:13368   */\n      add\n        /* \"#utility.yul\":13353:13368   */\n      swap1\n      pop\n        /* \"#utility.yul\":13329:13442   */\n      jump(tag_285)\n    tag_287:\n        /* \"#utility.yul\":13460:13466   */\n      dup4\n        /* \"#utility.yul\":13457:13458   */\n      dup2\n        /* \"#utility.yul\":13454:13467   */\n      gt\n        /* \"#utility.yul\":13451:13552   */\n      iszero\n      tag_288\n      jumpi\n        /* \"#utility.yul\":13540:13541   */\n      0x00\n        /* \"#utility.yul\":13531:13537   */\n      dup5\n        /* \"#utility.yul\":13526:13529   */\n      dup5\n        /* \"#utility.yul\":13522:13538   */\n      add\n        /* \"#utility.yul\":13515:13542   */\n      mstore\n        /* \"#utility.yul\":13451:13552   */\n    tag_288:\n        /* \"#utility.yul\":13300:13558   */\n      pop\n        /* \"#utility.yul\":13251:13558   */\n      pop\n      pop\n      pop\n      jump\t// out\n        /* \"#utility.yul\":13564:13884   */\n    tag_56:\n        /* \"#utility.yul\":13608:13614   */\n      0x00\n        /* \"#utility.yul\":13645:13646   */\n      0x02\n        /* \"#utility.yul\":13639:13643   */\n      dup3\n        /* \"#utility.yul\":13635:13647   */\n      div\n        /* \"#utility.yul\":13625:13647   */\n      swap1\n      pop\n        /* \"#utility.yul\":13692:13693   */\n      0x01\n        /* \"#utility.yul\":13686:13690   */\n      dup3\n        /* \"#utility.yul\":13682:13694   */\n      and\n        /* \"#utility.yul\":13713:13731   */\n      dup1\n        /* \"#utility.yul\":13703:13784   */\n      tag_290\n      jumpi\n        /* \"#utility.yul\":13769:13773   */\n      0x7f\n        /* \"#utility.yul\":13761:13767   */\n      dup3\n        /* \"#utility.yul\":13757:13774   */\n      and\n        /* \"#utility.yul\":13747:13774   */\n      swap2\n      pop\n        /* \"#utility.yul\":13703:13784   */\n    tag_290:\n        /* \"#utility.yul\":13831:13833   */\n      0x20\n        /* \"#utility.yul\":13823:13829   */\n      dup3\n        /* \"#utility.yul\":13820:13834   */\n      lt\n        /* \"#utility.yul\":13800:13818   */\n      dup2\n        /* \"#utility.yul\":13797:13835   */\n      eq\n        /* \"#utility.yul\":13794:13878   */\n      iszero\n      tag_291\n      jumpi\n        /* \"#utility.yul\":13850:13868   */\n      tag_292\n      tag_293\n      jump\t// in\n    tag_292:\n        /* \"#utility.yul\":13794:13878   */\n    tag_291:\n        /* \"#utility.yul\":13615:13884   */\n      pop\n        /* \"#utility.yul\":13564:13884   */\n      swap2\n      swap1\n      pop\n      jump\t// out\n        /* \"#utility.yul\":13890:14171   */\n    tag_253:\n        /* \"#utility.yul\":13973:14000   */\n      tag_295\n        /* \"#utility.yul\":13995:13999   */\n      dup3\n        /* \"#utility.yul\":13973:14000   */\n      tag_186\n      jump\t// in\n    tag_295:\n        /* \"#utility.yul\":13965:13971   */\n      dup2\n        /* \"#utility.yul\":13961:14001   */\n      add\n        /* \"#utility.yul\":14103:14109   */\n      dup2\n        /* \"#utility.yul\":14091:14101   */\n      dup2\n        /* \"#utility.yul\":14088:14110   */\n      lt\n        /* \"#utility.yul\":14067:14085   */\n      0xffffffffffffffff\n        /* \"#utility.yul\":14055:14065   */\n      dup3\n        /* \"#utility.yul\":14052:14086   */\n      gt\n        /* \"#utility.yul\":14049:14111   */\n      or\n        /* \"#utility.yul\":14046:14134   */\n      iszero\n      tag_296\n      jumpi\n        /* \"#utility.yul\":14114:14132   */\n      tag_297\n      tag_74\n      jump\t// in\n    tag_297:\n        /* \"#utility.yul\":14046:14134   */\n    tag_296:\n        /* \"#utility.yul\":14154:14164   */\n      dup1\n        /* \"#utility.yul\":14150:14152   */\n      0x40\n        /* \"#utility.yul\":14143:14165   */\n      mstore\n        /* \"#utility.yul\":13933:14171   */\n      pop\n        /* \"#utility.yul\":13890:14171   */\n      pop\n      pop\n      jump\t// out\n        /* \"#utility.yul\":14177:14410   */\n    tag_52:\n        /* \"#utility.yul\":14216:14219   */\n      0x00\n        /* \"#utility.yul\":14239:14263   */\n      tag_299\n        /* \"#utility.yul\":14257:14262   */\n      dup3\n        /* \"#utility.yul\":14239:14263   */\n      tag_210\n      jump\t// in\n    tag_299:\n        /* \"#utility.yul\":14230:14263   */\n      swap2\n      pop\n        /* \"#utility.yul\":14285:14351   */\n      0xffffffffffffffffffffffffffffffffffffffffffffffffffffffffffffffff\n        /* \"#utility.yul\":14278:14283   */\n      dup3\n        /* \"#utility.yul\":14275:14352   */\n      eq\n        /* \"#utility.yul\":14272:14375   */\n      iszero\n      tag_300\n      jumpi\n        /* \"#utility.yul\":14355:14373   */\n      tag_301\n      tag_271\n      jump\t// in\n    tag_301:\n        /* \"#utility.yul\":14272:14375   */\n    tag_300:\n        /* \"#utility.yul\":14402:14403   */\n      0x01\n        /* \"#utility.yul\":14395:14400   */\n      dup3\n        /* \"#utility.yul\":14391:14404   */\n      add\n        /* \"#utility.yul\":14384:14404   */\n      swap1\n      pop\n        /* \"#utility.yul\":14177:14410   */\n      swap2\n      swap1\n      pop\n      jump\t// out\n        /* \"#utility.yul\":14416:14516   */\n    tag_158:\n        /* \"#utility.yul\":14455:14462   */\n      0x00\n        /* \"#utility.yul\":14484:14510   */\n      tag_303\n        /* \"#utility.yul\":14504:14509   */\n      dup3\n        /* \"#utility.yul\":14484:14510   */\n      tag_304\n      jump\t// in\n    tag_303:\n        /* \"#utility.yul\":14473:14510   */\n      swap1\n      pop\n        /* \"#utility.yul\":14416:14516   */\n      swap2\n      swap1\n      pop\n      jump\t// out\n        /* \"#utility.yul\":14522:14616   */\n    tag_304:\n        /* \"#utility.yul\":14561:14568   */\n      0x00\n        /* \"#utility.yul\":14590:14610   */\n      tag_306\n        /* \"#utility.yul\":14604:14609   */\n      dup3\n        /* \"#utility.yul\":14590:14610   */\n      tag_307\n      jump\t// in\n    tag_306:\n        /* \"#utility.yul\":14579:14610   */\n      swap1\n      pop\n        /* \"#utility.yul\":14522:14616   */\n      swap2\n      swap1\n      pop\n      jump\t// out\n        /* \"#utility.yul\":14622:14701   */\n    tag_218:\n        /* \"#utility.yul\":14661:14668   */\n      0x00\n        /* \"#utility.yul\":14690:14695   */\n      dup2\n        /* \"#utility.yul\":14679:14695   */\n      swap1\n      pop\n        /* \"#utility.yul\":14622:14701   */\n      swap2\n      swap1\n      pop\n      jump\t// out\n        /* \"#utility.yul\":14707:14883   */\n    tag_93:\n        /* \"#utility.yul\":14739:14740   */\n      0x00\n        /* \"#utility.yul\":14756:14776   */\n      tag_310\n        /* \"#utility.yul\":14774:14775   */\n      dup3\n        /* \"#utility.yul\":14756:14776   */\n      tag_210\n      jump\t// in\n    tag_310:\n        /* \"#utility.yul\":14751:14776   */\n      swap2\n      pop\n        /* \"#utility.yul\":14790:14810   */\n      tag_311\n        /* \"#utility.yul\":14808:14809   */\n      dup4\n        /* \"#utility.yul\":14790:14810   */\n      tag_210\n      jump\t// in\n    tag_311:\n        /* \"#utility.yul\":14785:14810   */\n      swap3\n      pop\n        /* \"#utility.yul\":14829:14830   */\n      dup3\n        /* \"#utility.yul\":14819:14854   */\n      tag_312\n      jumpi\n        /* \"#utility.yul\":14834:14852   */\n      tag_313\n      tag_314\n      jump\t// in\n    tag_313:\n        /* \"#utility.yul\":14819:14854   */\n    tag_312:\n        /* \"#utility.yul\":14875:14876   */\n      dup3\n        /* \"#utility.yul\":14872:14873   */\n      dup3\n        /* \"#utility.yul\":14868:14877   */\n      mod\n        /* \"#utility.yul\":14863:14877   */\n      swap1\n      pop\n        /* \"#utility.yul\":14707:14883   */\n      swap3\n      swap2\n      pop\n      pop\n      jump\t// out\n        /* \"#utility.yul\":14889:15069   */\n    tag_271:\n        /* \"#utility.yul\":14937:15014   */\n      0x4e487b7100000000000000000000000000000000000000000000000000000000\n        /* \"#utility.yul\":14934:14935   */\n      0x00\n        /* \"#utility.yul\":14927:15015   */\n      mstore\n        /* \"#utility.yul\":15034:15038   */\n      0x11\n        /* \"#utility.yul\":15031:15032   */\n      0x04\n        /* \"#utility.yul\":15024:15039   */\n      mstore\n        /* \"#utility.yul\":15058:15062   */\n      0x24\n        /* \"#utility.yul\":15055:15056   */\n      0x00\n        /* \"#utility.yul\":15048:15063   */\n      revert\n        /* \"#utility.yul\":15075:15255   */\n    tag_314:\n        /* \"#utility.yul\":15123:15200   */\n      0x4e487b7100000000000000000000000000000000000000000000000000000000\n        /* \"#utility.yul\":15120:15121   */\n      0x00\n        /* \"#utility.yul\":15113:15201   */\n      mstore\n        /* \"#utility.yul\":15220:15224   */\n      0x12\n        /* \"#utility.yul\":15217:15218   */\n      0x04\n        /* \"#utility.yul\":15210:15225   */\n      mstore\n        /* \"#utility.yul\":15244:15248   */\n      0x24\n        /* \"#utility.yul\":15241:15242   */\n      0x00\n        /* \"#utility.yul\":15234:15249   */\n      revert\n        /* \"#utility.yul\":15261:15441   */\n    tag_293:\n        /* \"#utility.yul\":15309:15386   */\n      0x4e487b7100000000000000000000000000000000000000000000000000000000\n        /* \"#utility.yul\":15306:15307   */\n      0x00\n        /* \"#utility.yul\":15299:15387   */\n      mstore\n        /* \"#utility.yul\":15406:15410   */\n      0x22\n        /* \"#utility.yul\":15403:15404   */\n      0x04\n        /* \"#utility.yul\":15396:15411   */\n      mstore\n        /* \"#utility.yul\":15430:15434   */\n      0x24\n        /* \"#utility.yul\":15427:15428   */\n      0x00\n        /* \"#utility.yul\":15420:15435   */\n      revert\n        /* \"#utility.yul\":15447:15627   */\n    tag_67:\n        /* \"#utility.yul\":15495:15572   */\n      0x4e487b7100000000000000000000000000000000000000000000000000000000\n        /* \"#utility.yul\":15492:15493   */\n      0x00\n        /* \"#utility.yul\":15485:15573   */\n      mstore\n        /* \"#utility.yul\":15592:15596   */\n      0x32\n        /* \"#utility.yul\":15589:15590   */\n      0x04\n        /* \"#utility.yul\":15582:15597   */\n      mstore\n        /* \"#utility.yul\":15616:15620   */\n      0x24\n        /* \"#utility.yul\":15613:15614   */\n      0x00\n        /* \"#utility.yul\":15606:15621   */\n      revert\n        /* \"#utility.yul\":15633:15813   */\n    tag_74:\n        /* \"#utility.yul\":15681:15758   */\n      0x4e487b7100000000000000000000000000000000000000000000000000000000\n        /* \"#utility.yul\":15678:15679   */\n      0x00\n        /* \"#utility.yul\":15671:15759   */\n      mstore\n        /* \"#utility.yul\":15778:15782   */\n      0x41\n        /* \"#utility.yul\":15775:15776   */\n      0x04\n        /* \"#utility.yul\":15768:15783   */\n      mstore\n        /* \"#utility.yul\":15802:15806   */\n      0x24\n        /* \"#utility.yul\":15799:15800   */\n      0x00\n        /* \"#utility.yul\":15792:15807   */\n      revert\n        /* \"#utility.yul\":15819:15936   */\n    tag_125:\n        /* \"#utility.yul\":15928:15929   */\n      0x00\n        /* \"#utility.yul\":15925:15926   */\n      dup1\n        /* \"#utility.yul\":15918:15930   */\n      revert\n        /* \"#utility.yul\":15942:16059   */\n    tag_114:\n        /* \"#utility.yul\":16051:16052   */\n      0x00\n        /* \"#utility.yul\":16048:16049   */\n      dup1\n        /* \"#utility.yul\":16041:16053   */\n      revert\n        /* \"#utility.yul\":16065:16182   */\n    tag_144:\n        /* \"#utility.yul\":16174:16175   */\n      0x00\n        /* \"#utility.yul\":16171:16172   */\n      dup1\n        /* \"#utility.yul\":16164:16176   */\n      revert\n        /* \"#utility.yul\":16188:16305   */\n    tag_134:\n        /* \"#utility.yul\":16297:16298   */\n      0x00\n        /* \"#utility.yul\":16294:16295   */\n      dup1\n        /* \"#utility.yul\":16287:16299   */\n      revert\n        /* \"#utility.yul\":16311:16413   */\n    tag_186:\n        /* \"#utility.yul\":16352:16358   */\n      0x00\n        /* \"#utility.yul\":16403:16405   */\n      0x1f\n        /* \"#utility.yul\":16399:16406   */\n      not\n        /* \"#utility.yul\":16394:16396   */\n      0x1f\n        /* \"#utility.yul\":16387:16392   */\n      dup4\n        /* \"#utility.yul\":16383:16397   */\n      add\n        /* \"#utility.yul\":16379:16407   */\n      and\n        /* \"#utility.yul\":16369:16407   */\n      swap1\n      pop\n        /* \"#utility.yul\":16311:16413   */\n      swap2\n      swap1\n      pop\n      jump\t// out\n        /* \"#utility.yul\":16419:16513   */\n    tag_307:\n        /* \"#utility.yul\":16452:16460   */\n      0x00\n        /* \"#utility.yul\":16500:16505   */\n      dup2\n        /* \"#utility.yul\":16496:16498   */\n      0x60\n        /* \"#utility.yul\":16492:16506   */\n      shl\n        /* \"#utility.yul\":16471:16506   */\n      swap1\n      pop\n        /* \"#utility.yul\":16419:16513   */\n      swap2\n      swap1\n      pop\n      jump\t// out\n        /* \"#utility.yul\":16519:16689   */\n    tag_197:\n        /* \"#utility.yul\":16659:16681   */\n      0x76616c75652063616e6e6f74206265206e756c6c000000000000000000000000\n        /* \"#utility.yul\":16655:16656   */\n      0x00\n        /* \"#utility.yul\":16647:16653   */\n      dup3\n        /* \"#utility.yul\":16643:16657   */\n      add\n        /* \"#utility.yul\":16636:16682   */\n      mstore\n        /* \"#utility.yul\":16519:16689   */\n      pop\n      jump\t// out\n        /* \"#utility.yul\":16695:16872   */\n    tag_202:\n        /* \"#utility.yul\":16835:16864   */\n      0x7468697320686f757365496420616c7265616479206578697374730000000000\n        /* \"#utility.yul\":16831:16832   */\n      0x00\n        /* \"#utility.yul\":16823:16829   */\n      dup3\n        /* \"#utility.yul\":16819:16833   */\n      add\n        /* \"#utility.yul\":16812:16865   */\n      mstore\n        /* \"#utility.yul\":16695:16872   */\n      pop\n      jump\t// out\n        /* \"#utility.yul\":16878:17108   */\n    tag_207:\n        /* \"#utility.yul\":17018:17052   */\n      0x596f7520646f206e6f7420686176652061636365737320746f2064656c657465\n        /* \"#utility.yul\":17014:17015   */\n      0x00\n        /* \"#utility.yul\":17006:17012   */\n      dup3\n        /* \"#utility.yul\":17002:17016   */\n      add\n        /* \"#utility.yul\":16995:17053   */\n      mstore\n        /* \"#utility.yul\":17087:17100   */\n      0x207468697320686f757365000000000000000000000000000000000000000000\n        /* \"#utility.yul\":17082:17084   */\n      0x20\n        /* \"#utility.yul\":17074:17080   */\n      dup3\n        /* \"#utility.yul\":17070:17085   */\n      add\n        /* \"#utility.yul\":17063:17101   */\n      mstore\n        /* \"#utility.yul\":16878:17108   */\n      pop\n      jump\t// out\n        /* \"#utility.yul\":17114:17236   */\n    tag_120:\n        /* \"#utility.yul\":17187:17211   */\n      tag_330\n        /* \"#utility.yul\":17205:17210   */\n      dup2\n        /* \"#utility.yul\":17187:17211   */\n      tag_153\n      jump\t// in\n    tag_330:\n        /* \"#utility.yul\":17180:17185   */\n      dup2\n        /* \"#utility.yul\":17177:17212   */\n      eq\n        /* \"#utility.yul\":17167:17230   */\n      tag_331\n      jumpi\n        /* \"#utility.yul\":17226:17227   */\n      0x00\n        /* \"#utility.yul\":17223:17224   */\n      dup1\n        /* \"#utility.yul\":17216:17228   */\n      revert\n        /* \"#utility.yul\":17167:17230   */\n    tag_331:\n        /* \"#utility.yul\":17114:17236   */\n      pop\n      jump\t// out\n        /* \"#utility.yul\":17242:17364   */\n    tag_130:\n        /* \"#utility.yul\":17315:17339   */\n      tag_333\n        /* \"#utility.yul\":17333:17338   */\n      dup2\n        /* \"#utility.yul\":17315:17339   */\n      tag_210\n      jump\t// in\n    tag_333:\n        /* \"#utility.yul\":17308:17313   */\n      dup2\n        /* \"#utility.yul\":17305:17340   */\n      eq\n        /* \"#utility.yul\":17295:17358   */\n      tag_334\n      jumpi\n        /* \"#utility.yul\":17354:17355   */\n      0x00\n        /* \"#utility.yul\":17351:17352   */\n      dup1\n        /* \"#utility.yul\":17344:17356   */\n      revert\n        /* \"#utility.yul\":17295:17358   */\n    tag_334:\n        /* \"#utility.yul\":17242:17364   */\n      pop\n      jump\t// out\n\n    auxdata: 0xa26469706673582212203f7b737756d59904df29ca814d6c9c42b1e4bdfe1bde03f8def324c0632bb60e64736f6c63430008070033\n}\n",
				"bytecode": {
					"linkReferences": {},
					"object": "60806040526005600055600054600a6200001a919062000098565b6001556201518060025560016003553480156200003657600080fd5b506200021b565b6000808291508390505b60018511156200008f57808604811115620000675762000066620001df565b5b6001851615620000775780820291505b808102905062000087856200020e565b945062000047565b94509492505050565b6000620000a582620001d5565b9150620000b283620001d5565b9250620000e17fffffffffffffffffffffffffffffffffffffffffffffffffffffffffffffffff8484620000e9565b905092915050565b600082620000fb5760019050620001ce565b816200010b5760009050620001ce565b81600181146200012457600281146200012f5762000165565b6001915050620001ce565b60ff841115620001445762000143620001df565b5b8360020a9150848211156200015e576200015d620001df565b5b50620001ce565b5060208310610133831016604e8410600b84101617156200019f5782820a905083811115620001995762000198620001df565b5b620001ce565b620001ae84848460016200003d565b92509050818404811115620001c857620001c7620001df565b5b81810290505b9392505050565b6000819050919050565b7f4e487b7100000000000000000000000000000000000000000000000000000000600052601160045260246000fd5b60008160011c9050919050565b61126b806200022b6000396000f3fe608060405234801561001057600080fd5b506004361061004c5760003560e01c80633c3b0b4a1461005157806391bfe0d414610081578063aeda852f146100b1578063c45e1b25146100e8575b600080fd5b61006b60048036038101906100669190610922565b610118565b6040516100789190610be0565b60405180910390f35b61009b6004803603810190610096919061094f565b61022a565b6040516100a89190610c62565b60405180910390f35b6100cb60048036038101906100c69190610922565b6104f5565b6040516100df989796959493929190610cc9565b60405180910390f35b61010260048036038101906100fd9190610922565b610612565b60405161010f9190610bbe565b60405180910390f35b60603373ffffffffffffffffffffffffffffffffffffffff166006600084815260200190815260200160002060040160009054906101000a900473ffffffffffffffffffffffffffffffffffffffff1673ffffffffffffffffffffffffffffffffffffffff16146101be576040517f08c379a00000000000000000000000000000000000000000000000000000000081526004016101b590610c42565b60405180910390fd5b60016006600084815260200190815260200160002060070160006101000a81548160ff0219169083151502179055506040518060400160405280601581526020017f64656c69737420776173207375636365737366756c00000000000000000000008152509050919050565b60008084866102399190610e5a565b11610279576040517f08c379a000000000000000000000000000000000000000000000000000000000815260040161027090610c02565b60405180910390fd5b6000610286848685610790565b905060066000828152602001908152602001600020600001548114156102e1576040517f08c379a00000000000000000000000000000000000000000000000000000000081526004016102d890610c22565b60405180910390fd5b60405180610100016040528082815260200160035481526020018781526020018681526020018573ffffffffffffffffffffffffffffffffffffffff1681526020018573ffffffffffffffffffffffffffffffffffffffff16815260200184815260200160001515815250600660008381526020019081526020016000206000820151816000015560208201518160010155604082015181600201556060820151816003015560808201518160040160006101000a81548173ffffffffffffffffffffffffffffffffffffffff021916908373ffffffffffffffffffffffffffffffffffffffff16021790555060a08201518160050160006101000a81548173ffffffffffffffffffffffffffffffffffffffff021916908373ffffffffffffffffffffffffffffffffffffffff16021790555060c08201518160060190805190602001906104319291906107e5565b5060e08201518160070160006101000a81548160ff02191690831515021790555090505061046b600254426104669190610e04565b6107db565b6005819080600181540180825580915050600190039060005260206000200160009091909190915055600360008154809291906104a790610fa1565b91905055507f8f5afd88eb4be0ac287d87970052ce9a2b453448408e3c91a695ad7509ab7194818588866040516104e19493929190610c7d565b60405180910390a180915050949350505050565b60066020528060005260406000206000915090508060000154908060010154908060020154908060030154908060040160009054906101000a900473ffffffffffffffffffffffffffffffffffffffff16908060050160009054906101000a900473ffffffffffffffffffffffffffffffffffffffff169080600601805461057c90610f3e565b80601f01602080910402602001604051908101604052809291908181526020018280546105a890610f3e565b80156105f55780601f106105ca576101008083540402835291602001916105f5565b820191906000526020600020905b8154815290600101906020018083116105d857829003601f168201915b5050505050908060070160009054906101000a900460ff16905088565b60606000805b6005805490508110156106835783600660006005848154811061063e5761063d6110d6565b5b9060005260206000200154815260200190815260200160002060020154101561067057818061066c90610fa1565b9250505b808061067b90610fa1565b915050610618565b5060008167ffffffffffffffff8111156106a05761069f611105565b5b6040519080825280602002602001820160405280156106ce5781602001602082028036833780820191505090505b50905060005b600580549050811015610785578460066000600584815481106106fa576106f96110d6565b5b90600052602060002001548152602001908152602001600020600201541015610772576006600060058381548110610735576107346110d6565b5b9060005260206000200154815260200190815260200160002060000154828281518110610765576107646110d6565b5b6020026020010181815250505b808061077d90610fa1565b9150506106d4565b508092505050919050565b6000808484846040516020016107a893929190610b85565b6040516020818303038152906040528051906020012060001c9050600154816107d19190611018565b9150509392505050565b8060048190555050565b8280546107f190610f3e565b90600052602060002090601f016020900481019282610813576000855561085a565b82601f1061082c57805160ff191683800117855561085a565b8280016001018555821561085a579182015b8281111561085957825182559160200191906001019061083e565b5b509050610867919061086b565b5090565b5b8082111561088457600081600090555060010161086c565b5090565b600061089b61089684610d73565b610d4e565b9050828152602081018484840111156108b7576108b6611139565b5b6108c2848285610efc565b509392505050565b6000813590506108d981611207565b92915050565b600082601f8301126108f4576108f3611134565b5b8135610904848260208601610888565b91505092915050565b60008135905061091c8161121e565b92915050565b60006020828403121561093857610937611143565b5b60006109468482850161090d565b91505092915050565b6000806000806080858703121561096957610968611143565b5b60006109778782880161090d565b94505060206109888782880161090d565b9350506040610999878288016108ca565b925050606085013567ffffffffffffffff8111156109ba576109b961113e565b5b6109c6878288016108df565b91505092959194509250565b60006109de8383610b50565b60208301905092915050565b6109f381610eb4565b82525050565b610a0a610a0582610eb4565b610fea565b82525050565b6000610a1b82610db4565b610a258185610dd7565b9350610a3083610da4565b8060005b83811015610a61578151610a4888826109d2565b9750610a5383610dca565b925050600181019050610a34565b5085935050505092915050565b610a7781610ec6565b82525050565b6000610a8882610dbf565b610a928185610de8565b9350610aa2818560208601610f0b565b610aab81611148565b840191505092915050565b6000610ac182610dbf565b610acb8185610df9565b9350610adb818560208601610f0b565b80840191505092915050565b6000610af4601483610de8565b9150610aff82611166565b602082019050919050565b6000610b17601b83610de8565b9150610b228261118f565b602082019050919050565b6000610b3a602b83610de8565b9150610b45826111b8565b604082019050919050565b610b5981610ef2565b82525050565b610b6881610ef2565b82525050565b610b7f610b7a82610ef2565b61100e565b82525050565b6000610b9182866109f9565b601482019150610ba18285610b6e565b602082019150610bb18284610ab6565b9150819050949350505050565b60006020820190508181036000830152610bd88184610a10565b905092915050565b60006020820190508181036000830152610bfa8184610a7d565b905092915050565b60006020820190508181036000830152610c1b81610ae7565b9050919050565b60006020820190508181036000830152610c3b81610b0a565b9050919050565b60006020820190508181036000830152610c5b81610b2d565b9050919050565b6000602082019050610c776000830184610b5f565b92915050565b6000608082019050610c926000830187610b5f565b610c9f60208301866109ea565b610cac6040830185610b5f565b8181036060830152610cbe8184610a7d565b905095945050505050565b600061010082019050610cdf600083018b610b5f565b610cec602083018a610b5f565b610cf96040830189610b5f565b610d066060830188610b5f565b610d1360808301876109ea565b610d2060a08301866109ea565b81810360c0830152610d328185610a7d565b9050610d4160e0830184610a6e565b9998505050505050505050565b6000610d58610d69565b9050610d648282610f70565b919050565b6000604051905090565b600067ffffffffffffffff821115610d8e57610d8d611105565b5b610d9782611148565b9050602081019050919050565b6000819050602082019050919050565b600081519050919050565b600081519050919050565b6000602082019050919050565b600082825260208201905092915050565b600082825260208201905092915050565b600081905092915050565b6000610e0f82610ef2565b9150610e1a83610ef2565b9250827fffffffffffffffffffffffffffffffffffffffffffffffffffffffffffffffff03821115610e4f57610e4e611049565b5b828201905092915050565b6000610e6582610ef2565b9150610e7083610ef2565b9250817fffffffffffffffffffffffffffffffffffffffffffffffffffffffffffffffff0483118215151615610ea957610ea8611049565b5b828202905092915050565b6000610ebf82610ed2565b9050919050565b60008115159050919050565b600073ffffffffffffffffffffffffffffffffffffffff82169050919050565b6000819050919050565b82818337600083830152505050565b60005b83811015610f29578082015181840152602081019050610f0e565b83811115610f38576000848401525b50505050565b60006002820490506001821680610f5657607f821691505b60208210811415610f6a57610f696110a7565b5b50919050565b610f7982611148565b810181811067ffffffffffffffff82111715610f9857610f97611105565b5b80604052505050565b6000610fac82610ef2565b91507fffffffffffffffffffffffffffffffffffffffffffffffffffffffffffffffff821415610fdf57610fde611049565b5b600182019050919050565b6000610ff582610ffc565b9050919050565b600061100782611159565b9050919050565b6000819050919050565b600061102382610ef2565b915061102e83610ef2565b92508261103e5761103d611078565b5b828206905092915050565b7f4e487b7100000000000000000000000000000000000000000000000000000000600052601160045260246000fd5b7f4e487b7100000000000000000000000000000000000000000000000000000000600052601260045260246000fd5b7f4e487b7100000000000000000000000000000000000000000000000000000000600052602260045260246000fd5b7f4e487b7100000000000000000000000000000000000000000000000000000000600052603260045260246000fd5b7f4e487b7100000000000000000000000000000000000000000000000000000000600052604160045260246000fd5b600080fd5b600080fd5b600080fd5b600080fd5b6000601f19601f8301169050919050565b60008160601b9050919050565b7f76616c75652063616e6e6f74206265206e756c6c000000000000000000000000600082015250565b7f7468697320686f757365496420616c7265616479206578697374730000000000600082015250565b7f596f7520646f206e6f7420686176652061636365737320746f2064656c65746560008201527f207468697320686f757365000000000000000000000000000000000000000000602082015250565b61121081610eb4565b811461121b57600080fd5b50565b61122781610ef2565b811461123257600080fd5b5056fea26469706673582212203f7b737756d59904df29ca814d6c9c42b1e4bdfe1bde03f8def324c0632bb60e64736f6c63430008070033",
					"opcodes": "PUSH1 0x80 PUSH1 0x40 MSTORE PUSH1 0x5 PUSH1 0x0 SSTORE PUSH1 0x0 SLOAD PUSH1 0xA PUSH3 0x1A SWAP2 SWAP1 PUSH3 0x98 JUMP JUMPDEST PUSH1 0x1 SSTORE PUSH3 0x15180 PUSH1 0x2 SSTORE PUSH1 0x1 PUSH1 0x3 SSTORE CALLVALUE DUP1 ISZERO PUSH3 0x36 JUMPI PUSH1 0x0 DUP1 REVERT JUMPDEST POP PUSH3 0x21B JUMP JUMPDEST PUSH1 0x0 DUP1 DUP3 SWAP2 POP DUP4 SWAP1 POP JUMPDEST PUSH1 0x1 DUP6 GT ISZERO PUSH3 0x8F JUMPI DUP1 DUP7 DIV DUP2 GT ISZERO PUSH3 0x67 JUMPI PUSH3 0x66 PUSH3 0x1DF JUMP JUMPDEST JUMPDEST PUSH1 0x1 DUP6 AND ISZERO PUSH3 0x77 JUMPI DUP1 DUP3 MUL SWAP2 POP JUMPDEST DUP1 DUP2 MUL SWAP1 POP PUSH3 0x87 DUP6 PUSH3 0x20E JUMP JUMPDEST SWAP5 POP PUSH3 0x47 JUMP JUMPDEST SWAP5 POP SWAP5 SWAP3 POP POP POP JUMP JUMPDEST PUSH1 0x0 PUSH3 0xA5 DUP3 PUSH3 0x1D5 JUMP JUMPDEST SWAP2 POP PUSH3 0xB2 DUP4 PUSH3 0x1D5 JUMP JUMPDEST SWAP3 POP PUSH3 0xE1 PUSH32 0xFFFFFFFFFFFFFFFFFFFFFFFFFFFFFFFFFFFFFFFFFFFFFFFFFFFFFFFFFFFFFFFF DUP5 DUP5 PUSH3 0xE9 JUMP JUMPDEST SWAP1 POP SWAP3 SWAP2 POP POP JUMP JUMPDEST PUSH1 0x0 DUP3 PUSH3 0xFB JUMPI PUSH1 0x1 SWAP1 POP PUSH3 0x1CE JUMP JUMPDEST DUP2 PUSH3 0x10B JUMPI PUSH1 0x0 SWAP1 POP PUSH3 0x1CE JUMP JUMPDEST DUP2 PUSH1 0x1 DUP2 EQ PUSH3 0x124 JUMPI PUSH1 0x2 DUP2 EQ PUSH3 0x12F JUMPI PUSH3 0x165 JUMP JUMPDEST PUSH1 0x1 SWAP2 POP POP PUSH3 0x1CE JUMP JUMPDEST PUSH1 0xFF DUP5 GT ISZERO PUSH3 0x144 JUMPI PUSH3 0x143 PUSH3 0x1DF JUMP JUMPDEST JUMPDEST DUP4 PUSH1 0x2 EXP SWAP2 POP DUP5 DUP3 GT ISZERO PUSH3 0x15E JUMPI PUSH3 0x15D PUSH3 0x1DF JUMP JUMPDEST JUMPDEST POP PUSH3 0x1CE JUMP JUMPDEST POP PUSH1 0x20 DUP4 LT PUSH2 0x133 DUP4 LT AND PUSH1 0x4E DUP5 LT PUSH1 0xB DUP5 LT AND OR ISZERO PUSH3 0x19F JUMPI DUP3 DUP3 EXP SWAP1 POP DUP4 DUP2 GT ISZERO PUSH3 0x199 JUMPI PUSH3 0x198 PUSH3 0x1DF JUMP JUMPDEST JUMPDEST PUSH3 0x1CE JUMP JUMPDEST PUSH3 0x1AE DUP5 DUP5 DUP5 PUSH1 0x1 PUSH3 0x3D JUMP JUMPDEST SWAP3 POP SWAP1 POP DUP2 DUP5 DIV DUP2 GT ISZERO PUSH3 0x1C8 JUMPI PUSH3 0x1C7 PUSH3 0x1DF JUMP JUMPDEST JUMPDEST DUP2 DUP2 MUL SWAP1 POP JUMPDEST SWAP4 SWAP3 POP POP POP JUMP JUMPDEST PUSH1 0x0 DUP2 SWAP1 POP SWAP2 SWAP1 POP JUMP JUMPDEST PUSH32 0x4E487B7100000000000000000000000000000000000000000000000000000000 PUSH1 0x0 MSTORE PUSH1 0x11 PUSH1 0x4 MSTORE PUSH1 0x24 PUSH1 0x0 REVERT JUMPDEST PUSH1 0x0 DUP2 PUSH1 0x1 SHR SWAP1 POP SWAP2 SWAP1 POP JUMP JUMPDEST PUSH2 0x126B DUP1 PUSH3 0x22B PUSH1 0x0 CODECOPY PUSH1 0x0 RETURN INVALID PUSH1 0x80 PUSH1 0x40 MSTORE CALLVALUE DUP1 ISZERO PUSH2 0x10 JUMPI PUSH1 0x0 DUP1 REVERT JUMPDEST POP PUSH1 0x4 CALLDATASIZE LT PUSH2 0x4C JUMPI PUSH1 0x0 CALLDATALOAD PUSH1 0xE0 SHR DUP1 PUSH4 0x3C3B0B4A EQ PUSH2 0x51 JUMPI DUP1 PUSH4 0x91BFE0D4 EQ PUSH2 0x81 JUMPI DUP1 PUSH4 0xAEDA852F EQ PUSH2 0xB1 JUMPI DUP1 PUSH4 0xC45E1B25 EQ PUSH2 0xE8 JUMPI JUMPDEST PUSH1 0x0 DUP1 REVERT JUMPDEST PUSH2 0x6B PUSH1 0x4 DUP1 CALLDATASIZE SUB DUP2 ADD SWAP1 PUSH2 0x66 SWAP2 SWAP1 PUSH2 0x922 JUMP JUMPDEST PUSH2 0x118 JUMP JUMPDEST PUSH1 0x40 MLOAD PUSH2 0x78 SWAP2 SWAP1 PUSH2 0xBE0 JUMP JUMPDEST PUSH1 0x40 MLOAD DUP1 SWAP2 SUB SWAP1 RETURN JUMPDEST PUSH2 0x9B PUSH1 0x4 DUP1 CALLDATASIZE SUB DUP2 ADD SWAP1 PUSH2 0x96 SWAP2 SWAP1 PUSH2 0x94F JUMP JUMPDEST PUSH2 0x22A JUMP JUMPDEST PUSH1 0x40 MLOAD PUSH2 0xA8 SWAP2 SWAP1 PUSH2 0xC62 JUMP JUMPDEST PUSH1 0x40 MLOAD DUP1 SWAP2 SUB SWAP1 RETURN JUMPDEST PUSH2 0xCB PUSH1 0x4 DUP1 CALLDATASIZE SUB DUP2 ADD SWAP1 PUSH2 0xC6 SWAP2 SWAP1 PUSH2 0x922 JUMP JUMPDEST PUSH2 0x4F5 JUMP JUMPDEST PUSH1 0x40 MLOAD PUSH2 0xDF SWAP9 SWAP8 SWAP7 SWAP6 SWAP5 SWAP4 SWAP3 SWAP2 SWAP1 PUSH2 0xCC9 JUMP JUMPDEST PUSH1 0x40 MLOAD DUP1 SWAP2 SUB SWAP1 RETURN JUMPDEST PUSH2 0x102 PUSH1 0x4 DUP1 CALLDATASIZE SUB DUP2 ADD SWAP1 PUSH2 0xFD SWAP2 SWAP1 PUSH2 0x922 JUMP JUMPDEST PUSH2 0x612 JUMP JUMPDEST PUSH1 0x40 MLOAD PUSH2 0x10F SWAP2 SWAP1 PUSH2 0xBBE JUMP JUMPDEST PUSH1 0x40 MLOAD DUP1 SWAP2 SUB SWAP1 RETURN JUMPDEST PUSH1 0x60 CALLER PUSH20 0xFFFFFFFFFFFFFFFFFFFFFFFFFFFFFFFFFFFFFFFF AND PUSH1 0x6 PUSH1 0x0 DUP5 DUP2 MSTORE PUSH1 0x20 ADD SWAP1 DUP2 MSTORE PUSH1 0x20 ADD PUSH1 0x0 KECCAK256 PUSH1 0x4 ADD PUSH1 0x0 SWAP1 SLOAD SWAP1 PUSH2 0x100 EXP SWAP1 DIV PUSH20 0xFFFFFFFFFFFFFFFFFFFFFFFFFFFFFFFFFFFFFFFF AND PUSH20 0xFFFFFFFFFFFFFFFFFFFFFFFFFFFFFFFFFFFFFFFF AND EQ PUSH2 0x1BE JUMPI PUSH1 0x40 MLOAD PUSH32 0x8C379A000000000000000000000000000000000000000000000000000000000 DUP2 MSTORE PUSH1 0x4 ADD PUSH2 0x1B5 SWAP1 PUSH2 0xC42 JUMP JUMPDEST PUSH1 0x40 MLOAD DUP1 SWAP2 SUB SWAP1 REVERT JUMPDEST PUSH1 0x1 PUSH1 0x6 PUSH1 0x0 DUP5 DUP2 MSTORE PUSH1 0x20 ADD SWAP1 DUP2 MSTORE PUSH1 0x20 ADD PUSH1 0x0 KECCAK256 PUSH1 0x7 ADD PUSH1 0x0 PUSH2 0x100 EXP DUP2 SLOAD DUP2 PUSH1 0xFF MUL NOT AND SWAP1 DUP4 ISZERO ISZERO MUL OR SWAP1 SSTORE POP PUSH1 0x40 MLOAD DUP1 PUSH1 0x40 ADD PUSH1 0x40 MSTORE DUP1 PUSH1 0x15 DUP2 MSTORE PUSH1 0x20 ADD PUSH32 0x64656C69737420776173207375636365737366756C0000000000000000000000 DUP2 MSTORE POP SWAP1 POP SWAP2 SWAP1 POP JUMP JUMPDEST PUSH1 0x0 DUP1 DUP5 DUP7 PUSH2 0x239 SWAP2 SWAP1 PUSH2 0xE5A JUMP JUMPDEST GT PUSH2 0x279 JUMPI PUSH1 0x40 MLOAD PUSH32 0x8C379A000000000000000000000000000000000000000000000000000000000 DUP2 MSTORE PUSH1 0x4 ADD PUSH2 0x270 SWAP1 PUSH2 0xC02 JUMP JUMPDEST PUSH1 0x40 MLOAD DUP1 SWAP2 SUB SWAP1 REVERT JUMPDEST PUSH1 0x0 PUSH2 0x286 DUP5 DUP7 DUP6 PUSH2 0x790 JUMP JUMPDEST SWAP1 POP PUSH1 0x6 PUSH1 0x0 DUP3 DUP2 MSTORE PUSH1 0x20 ADD SWAP1 DUP2 MSTORE PUSH1 0x20 ADD PUSH1 0x0 KECCAK256 PUSH1 0x0 ADD SLOAD DUP2 EQ ISZERO PUSH2 0x2E1 JUMPI PUSH1 0x40 MLOAD PUSH32 0x8C379A000000000000000000000000000000000000000000000000000000000 DUP2 MSTORE PUSH1 0x4 ADD PUSH2 0x2D8 SWAP1 PUSH2 0xC22 JUMP JUMPDEST PUSH1 0x40 MLOAD DUP1 SWAP2 SUB SWAP1 REVERT JUMPDEST PUSH1 0x40 MLOAD DUP1 PUSH2 0x100 ADD PUSH1 0x40 MSTORE DUP1 DUP3 DUP2 MSTORE PUSH1 0x20 ADD PUSH1 0x3 SLOAD DUP2 MSTORE PUSH1 0x20 ADD DUP8 DUP2 MSTORE PUSH1 0x20 ADD DUP7 DUP2 MSTORE PUSH1 0x20 ADD DUP6 PUSH20 0xFFFFFFFFFFFFFFFFFFFFFFFFFFFFFFFFFFFFFFFF AND DUP2 MSTORE PUSH1 0x20 ADD DUP6 PUSH20 0xFFFFFFFFFFFFFFFFFFFFFFFFFFFFFFFFFFFFFFFF AND DUP2 MSTORE PUSH1 0x20 ADD DUP5 DUP2 MSTORE PUSH1 0x20 ADD PUSH1 0x0 ISZERO ISZERO DUP2 MSTORE POP PUSH1 0x6 PUSH1 0x0 DUP4 DUP2 MSTORE PUSH1 0x20 ADD SWAP1 DUP2 MSTORE PUSH1 0x20 ADD PUSH1 0x0 KECCAK256 PUSH1 0x0 DUP3 ADD MLOAD DUP2 PUSH1 0x0 ADD SSTORE PUSH1 0x20 DUP3 ADD MLOAD DUP2 PUSH1 0x1 ADD SSTORE PUSH1 0x40 DUP3 ADD MLOAD DUP2 PUSH1 0x2 ADD SSTORE PUSH1 0x60 DUP3 ADD MLOAD DUP2 PUSH1 0x3 ADD SSTORE PUSH1 0x80 DUP3 ADD MLOAD DUP2 PUSH1 0x4 ADD PUSH1 0x0 PUSH2 0x100 EXP DUP2 SLOAD DUP2 PUSH20 0xFFFFFFFFFFFFFFFFFFFFFFFFFFFFFFFFFFFFFFFF MUL NOT AND SWAP1 DUP4 PUSH20 0xFFFFFFFFFFFFFFFFFFFFFFFFFFFFFFFFFFFFFFFF AND MUL OR SWAP1 SSTORE POP PUSH1 0xA0 DUP3 ADD MLOAD DUP2 PUSH1 0x5 ADD PUSH1 0x0 PUSH2 0x100 EXP DUP2 SLOAD DUP2 PUSH20 0xFFFFFFFFFFFFFFFFFFFFFFFFFFFFFFFFFFFFFFFF MUL NOT AND SWAP1 DUP4 PUSH20 0xFFFFFFFFFFFFFFFFFFFFFFFFFFFFFFFFFFFFFFFF AND MUL OR SWAP1 SSTORE POP PUSH1 0xC0 DUP3 ADD MLOAD DUP2 PUSH1 0x6 ADD SWAP1 DUP1 MLOAD SWAP1 PUSH1 0x20 ADD SWAP1 PUSH2 0x431 SWAP3 SWAP2 SWAP1 PUSH2 0x7E5 JUMP JUMPDEST POP PUSH1 0xE0 DUP3 ADD MLOAD DUP2 PUSH1 0x7 ADD PUSH1 0x0 PUSH2 0x100 EXP DUP2 SLOAD DUP2 PUSH1 0xFF MUL NOT AND SWAP1 DUP4 ISZERO ISZERO MUL OR SWAP1 SSTORE POP SWAP1 POP POP PUSH2 0x46B PUSH1 0x2 SLOAD TIMESTAMP PUSH2 0x466 SWAP2 SWAP1 PUSH2 0xE04 JUMP JUMPDEST PUSH2 0x7DB JUMP JUMPDEST PUSH1 0x5 DUP2 SWAP1 DUP1 PUSH1 0x1 DUP2 SLOAD ADD DUP1 DUP3 SSTORE DUP1 SWAP2 POP POP PUSH1 0x1 SWAP1 SUB SWAP1 PUSH1 0x0 MSTORE PUSH1 0x20 PUSH1 0x0 KECCAK256 ADD PUSH1 0x0 SWAP1 SWAP2 SWAP1 SWAP2 SWAP1 SWAP2 POP SSTORE PUSH1 0x3 PUSH1 0x0 DUP2 SLOAD DUP1 SWAP3 SWAP2 SWAP1 PUSH2 0x4A7 SWAP1 PUSH2 0xFA1 JUMP JUMPDEST SWAP2 SWAP1 POP SSTORE POP PUSH32 0x8F5AFD88EB4BE0AC287D87970052CE9A2B453448408E3C91A695AD7509AB7194 DUP2 DUP6 DUP9 DUP7 PUSH1 0x40 MLOAD PUSH2 0x4E1 SWAP5 SWAP4 SWAP3 SWAP2 SWAP1 PUSH2 0xC7D JUMP JUMPDEST PUSH1 0x40 MLOAD DUP1 SWAP2 SUB SWAP1 LOG1 DUP1 SWAP2 POP POP SWAP5 SWAP4 POP POP POP POP JUMP JUMPDEST PUSH1 0x6 PUSH1 0x20 MSTORE DUP1 PUSH1 0x0 MSTORE PUSH1 0x40 PUSH1 0x0 KECCAK256 PUSH1 0x0 SWAP2 POP SWAP1 POP DUP1 PUSH1 0x0 ADD SLOAD SWAP1 DUP1 PUSH1 0x1 ADD SLOAD SWAP1 DUP1 PUSH1 0x2 ADD SLOAD SWAP1 DUP1 PUSH1 0x3 ADD SLOAD SWAP1 DUP1 PUSH1 0x4 ADD PUSH1 0x0 SWAP1 SLOAD SWAP1 PUSH2 0x100 EXP SWAP1 DIV PUSH20 0xFFFFFFFFFFFFFFFFFFFFFFFFFFFFFFFFFFFFFFFF AND SWAP1 DUP1 PUSH1 0x5 ADD PUSH1 0x0 SWAP1 SLOAD SWAP1 PUSH2 0x100 EXP SWAP1 DIV PUSH20 0xFFFFFFFFFFFFFFFFFFFFFFFFFFFFFFFFFFFFFFFF AND SWAP1 DUP1 PUSH1 0x6 ADD DUP1 SLOAD PUSH2 0x57C SWAP1 PUSH2 0xF3E JUMP JUMPDEST DUP1 PUSH1 0x1F ADD PUSH1 0x20 DUP1 SWAP2 DIV MUL PUSH1 0x20 ADD PUSH1 0x40 MLOAD SWAP1 DUP2 ADD PUSH1 0x40 MSTORE DUP1 SWAP3 SWAP2 SWAP1 DUP2 DUP2 MSTORE PUSH1 0x20 ADD DUP3 DUP1 SLOAD PUSH2 0x5A8 SWAP1 PUSH2 0xF3E JUMP JUMPDEST DUP1 ISZERO PUSH2 0x5F5 JUMPI DUP1 PUSH1 0x1F LT PUSH2 0x5CA JUMPI PUSH2 0x100 DUP1 DUP4 SLOAD DIV MUL DUP4 MSTORE SWAP2 PUSH1 0x20 ADD SWAP2 PUSH2 0x5F5 JUMP JUMPDEST DUP3 ADD SWAP2 SWAP1 PUSH1 0x0 MSTORE PUSH1 0x20 PUSH1 0x0 KECCAK256 SWAP1 JUMPDEST DUP2 SLOAD DUP2 MSTORE SWAP1 PUSH1 0x1 ADD SWAP1 PUSH1 0x20 ADD DUP1 DUP4 GT PUSH2 0x5D8 JUMPI DUP3 SWAP1 SUB PUSH1 0x1F AND DUP3 ADD SWAP2 JUMPDEST POP POP POP POP POP SWAP1 DUP1 PUSH1 0x7 ADD PUSH1 0x0 SWAP1 SLOAD SWAP1 PUSH2 0x100 EXP SWAP1 DIV PUSH1 0xFF AND SWAP1 POP DUP9 JUMP JUMPDEST PUSH1 0x60 PUSH1 0x0 DUP1 JUMPDEST PUSH1 0x5 DUP1 SLOAD SWAP1 POP DUP2 LT ISZERO PUSH2 0x683 JUMPI DUP4 PUSH1 0x6 PUSH1 0x0 PUSH1 0x5 DUP5 DUP2 SLOAD DUP2 LT PUSH2 0x63E JUMPI PUSH2 0x63D PUSH2 0x10D6 JUMP JUMPDEST JUMPDEST SWAP1 PUSH1 0x0 MSTORE PUSH1 0x20 PUSH1 0x0 KECCAK256 ADD SLOAD DUP2 MSTORE PUSH1 0x20 ADD SWAP1 DUP2 MSTORE PUSH1 0x20 ADD PUSH1 0x0 KECCAK256 PUSH1 0x2 ADD SLOAD LT ISZERO PUSH2 0x670 JUMPI DUP2 DUP1 PUSH2 0x66C SWAP1 PUSH2 0xFA1 JUMP JUMPDEST SWAP3 POP POP JUMPDEST DUP1 DUP1 PUSH2 0x67B SWAP1 PUSH2 0xFA1 JUMP JUMPDEST SWAP2 POP POP PUSH2 0x618 JUMP JUMPDEST POP PUSH1 0x0 DUP2 PUSH8 0xFFFFFFFFFFFFFFFF DUP2 GT ISZERO PUSH2 0x6A0 JUMPI PUSH2 0x69F PUSH2 0x1105 JUMP JUMPDEST JUMPDEST PUSH1 0x40 MLOAD SWAP1 DUP1 DUP3 MSTORE DUP1 PUSH1 0x20 MUL PUSH1 0x20 ADD DUP3 ADD PUSH1 0x40 MSTORE DUP1 ISZERO PUSH2 0x6CE JUMPI DUP2 PUSH1 0x20 ADD PUSH1 0x20 DUP3 MUL DUP1 CALLDATASIZE DUP4 CALLDATACOPY DUP1 DUP3 ADD SWAP2 POP POP SWAP1 POP JUMPDEST POP SWAP1 POP PUSH1 0x0 JUMPDEST PUSH1 0x5 DUP1 SLOAD SWAP1 POP DUP2 LT ISZERO PUSH2 0x785 JUMPI DUP5 PUSH1 0x6 PUSH1 0x0 PUSH1 0x5 DUP5 DUP2 SLOAD DUP2 LT PUSH2 0x6FA JUMPI PUSH2 0x6F9 PUSH2 0x10D6 JUMP JUMPDEST JUMPDEST SWAP1 PUSH1 0x0 MSTORE PUSH1 0x20 PUSH1 0x0 KECCAK256 ADD SLOAD DUP2 MSTORE PUSH1 0x20 ADD SWAP1 DUP2 MSTORE PUSH1 0x20 ADD PUSH1 0x0 KECCAK256 PUSH1 0x2 ADD SLOAD LT ISZERO PUSH2 0x772 JUMPI PUSH1 0x6 PUSH1 0x0 PUSH1 0x5 DUP4 DUP2 SLOAD DUP2 LT PUSH2 0x735 JUMPI PUSH2 0x734 PUSH2 0x10D6 JUMP JUMPDEST JUMPDEST SWAP1 PUSH1 0x0 MSTORE PUSH1 0x20 PUSH1 0x0 KECCAK256 ADD SLOAD DUP2 MSTORE PUSH1 0x20 ADD SWAP1 DUP2 MSTORE PUSH1 0x20 ADD PUSH1 0x0 KECCAK256 PUSH1 0x0 ADD SLOAD DUP3 DUP3 DUP2 MLOAD DUP2 LT PUSH2 0x765 JUMPI PUSH2 0x764 PUSH2 0x10D6 JUMP JUMPDEST JUMPDEST PUSH1 0x20 MUL PUSH1 0x20 ADD ADD DUP2 DUP2 MSTORE POP POP JUMPDEST DUP1 DUP1 PUSH2 0x77D SWAP1 PUSH2 0xFA1 JUMP JUMPDEST SWAP2 POP POP PUSH2 0x6D4 JUMP JUMPDEST POP DUP1 SWAP3 POP POP POP SWAP2 SWAP1 POP JUMP JUMPDEST PUSH1 0x0 DUP1 DUP5 DUP5 DUP5 PUSH1 0x40 MLOAD PUSH1 0x20 ADD PUSH2 0x7A8 SWAP4 SWAP3 SWAP2 SWAP1 PUSH2 0xB85 JUMP JUMPDEST PUSH1 0x40 MLOAD PUSH1 0x20 DUP2 DUP4 SUB SUB DUP2 MSTORE SWAP1 PUSH1 0x40 MSTORE DUP1 MLOAD SWAP1 PUSH1 0x20 ADD KECCAK256 PUSH1 0x0 SHR SWAP1 POP PUSH1 0x1 SLOAD DUP2 PUSH2 0x7D1 SWAP2 SWAP1 PUSH2 0x1018 JUMP JUMPDEST SWAP2 POP POP SWAP4 SWAP3 POP POP POP JUMP JUMPDEST DUP1 PUSH1 0x4 DUP2 SWAP1 SSTORE POP POP JUMP JUMPDEST DUP3 DUP1 SLOAD PUSH2 0x7F1 SWAP1 PUSH2 0xF3E JUMP JUMPDEST SWAP1 PUSH1 0x0 MSTORE PUSH1 0x20 PUSH1 0x0 KECCAK256 SWAP1 PUSH1 0x1F ADD PUSH1 0x20 SWAP1 DIV DUP2 ADD SWAP3 DUP3 PUSH2 0x813 JUMPI PUSH1 0x0 DUP6 SSTORE PUSH2 0x85A JUMP JUMPDEST DUP3 PUSH1 0x1F LT PUSH2 0x82C JUMPI DUP1 MLOAD PUSH1 0xFF NOT AND DUP4 DUP1 ADD OR DUP6 SSTORE PUSH2 0x85A JUMP JUMPDEST DUP3 DUP1 ADD PUSH1 0x1 ADD DUP6 SSTORE DUP3 ISZERO PUSH2 0x85A JUMPI SWAP2 DUP3 ADD JUMPDEST DUP3 DUP2 GT ISZERO PUSH2 0x859 JUMPI DUP3 MLOAD DUP3 SSTORE SWAP2 PUSH1 0x20 ADD SWAP2 SWAP1 PUSH1 0x1 ADD SWAP1 PUSH2 0x83E JUMP JUMPDEST JUMPDEST POP SWAP1 POP PUSH2 0x867 SWAP2 SWAP1 PUSH2 0x86B JUMP JUMPDEST POP SWAP1 JUMP JUMPDEST JUMPDEST DUP1 DUP3 GT ISZERO PUSH2 0x884 JUMPI PUSH1 0x0 DUP2 PUSH1 0x0 SWAP1 SSTORE POP PUSH1 0x1 ADD PUSH2 0x86C JUMP JUMPDEST POP SWAP1 JUMP JUMPDEST PUSH1 0x0 PUSH2 0x89B PUSH2 0x896 DUP5 PUSH2 0xD73 JUMP JUMPDEST PUSH2 0xD4E JUMP JUMPDEST SWAP1 POP DUP3 DUP2 MSTORE PUSH1 0x20 DUP2 ADD DUP5 DUP5 DUP5 ADD GT ISZERO PUSH2 0x8B7 JUMPI PUSH2 0x8B6 PUSH2 0x1139 JUMP JUMPDEST JUMPDEST PUSH2 0x8C2 DUP5 DUP3 DUP6 PUSH2 0xEFC JUMP JUMPDEST POP SWAP4 SWAP3 POP POP POP JUMP JUMPDEST PUSH1 0x0 DUP2 CALLDATALOAD SWAP1 POP PUSH2 0x8D9 DUP2 PUSH2 0x1207 JUMP JUMPDEST SWAP3 SWAP2 POP POP JUMP JUMPDEST PUSH1 0x0 DUP3 PUSH1 0x1F DUP4 ADD SLT PUSH2 0x8F4 JUMPI PUSH2 0x8F3 PUSH2 0x1134 JUMP JUMPDEST JUMPDEST DUP2 CALLDATALOAD PUSH2 0x904 DUP5 DUP3 PUSH1 0x20 DUP7 ADD PUSH2 0x888 JUMP JUMPDEST SWAP2 POP POP SWAP3 SWAP2 POP POP JUMP JUMPDEST PUSH1 0x0 DUP2 CALLDATALOAD SWAP1 POP PUSH2 0x91C DUP2 PUSH2 0x121E JUMP JUMPDEST SWAP3 SWAP2 POP POP JUMP JUMPDEST PUSH1 0x0 PUSH1 0x20 DUP3 DUP5 SUB SLT ISZERO PUSH2 0x938 JUMPI PUSH2 0x937 PUSH2 0x1143 JUMP JUMPDEST JUMPDEST PUSH1 0x0 PUSH2 0x946 DUP5 DUP3 DUP6 ADD PUSH2 0x90D JUMP JUMPDEST SWAP2 POP POP SWAP3 SWAP2 POP POP JUMP JUMPDEST PUSH1 0x0 DUP1 PUSH1 0x0 DUP1 PUSH1 0x80 DUP6 DUP8 SUB SLT ISZERO PUSH2 0x969 JUMPI PUSH2 0x968 PUSH2 0x1143 JUMP JUMPDEST JUMPDEST PUSH1 0x0 PUSH2 0x977 DUP8 DUP3 DUP9 ADD PUSH2 0x90D JUMP JUMPDEST SWAP5 POP POP PUSH1 0x20 PUSH2 0x988 DUP8 DUP3 DUP9 ADD PUSH2 0x90D JUMP JUMPDEST SWAP4 POP POP PUSH1 0x40 PUSH2 0x999 DUP8 DUP3 DUP9 ADD PUSH2 0x8CA JUMP JUMPDEST SWAP3 POP POP PUSH1 0x60 DUP6 ADD CALLDATALOAD PUSH8 0xFFFFFFFFFFFFFFFF DUP2 GT ISZERO PUSH2 0x9BA JUMPI PUSH2 0x9B9 PUSH2 0x113E JUMP JUMPDEST JUMPDEST PUSH2 0x9C6 DUP8 DUP3 DUP9 ADD PUSH2 0x8DF JUMP JUMPDEST SWAP2 POP POP SWAP3 SWAP6 SWAP2 SWAP5 POP SWAP3 POP JUMP JUMPDEST PUSH1 0x0 PUSH2 0x9DE DUP4 DUP4 PUSH2 0xB50 JUMP JUMPDEST PUSH1 0x20 DUP4 ADD SWAP1 POP SWAP3 SWAP2 POP POP JUMP JUMPDEST PUSH2 0x9F3 DUP2 PUSH2 0xEB4 JUMP JUMPDEST DUP3 MSTORE POP POP JUMP JUMPDEST PUSH2 0xA0A PUSH2 0xA05 DUP3 PUSH2 0xEB4 JUMP JUMPDEST PUSH2 0xFEA JUMP JUMPDEST DUP3 MSTORE POP POP JUMP JUMPDEST PUSH1 0x0 PUSH2 0xA1B DUP3 PUSH2 0xDB4 JUMP JUMPDEST PUSH2 0xA25 DUP2 DUP6 PUSH2 0xDD7 JUMP JUMPDEST SWAP4 POP PUSH2 0xA30 DUP4 PUSH2 0xDA4 JUMP JUMPDEST DUP1 PUSH1 0x0 JUMPDEST DUP4 DUP2 LT ISZERO PUSH2 0xA61 JUMPI DUP2 MLOAD PUSH2 0xA48 DUP9 DUP3 PUSH2 0x9D2 JUMP JUMPDEST SWAP8 POP PUSH2 0xA53 DUP4 PUSH2 0xDCA JUMP JUMPDEST SWAP3 POP POP PUSH1 0x1 DUP2 ADD SWAP1 POP PUSH2 0xA34 JUMP JUMPDEST POP DUP6 SWAP4 POP POP POP POP SWAP3 SWAP2 POP POP JUMP JUMPDEST PUSH2 0xA77 DUP2 PUSH2 0xEC6 JUMP JUMPDEST DUP3 MSTORE POP POP JUMP JUMPDEST PUSH1 0x0 PUSH2 0xA88 DUP3 PUSH2 0xDBF JUMP JUMPDEST PUSH2 0xA92 DUP2 DUP6 PUSH2 0xDE8 JUMP JUMPDEST SWAP4 POP PUSH2 0xAA2 DUP2 DUP6 PUSH1 0x20 DUP7 ADD PUSH2 0xF0B JUMP JUMPDEST PUSH2 0xAAB DUP2 PUSH2 0x1148 JUMP JUMPDEST DUP5 ADD SWAP2 POP POP SWAP3 SWAP2 POP POP JUMP JUMPDEST PUSH1 0x0 PUSH2 0xAC1 DUP3 PUSH2 0xDBF JUMP JUMPDEST PUSH2 0xACB DUP2 DUP6 PUSH2 0xDF9 JUMP JUMPDEST SWAP4 POP PUSH2 0xADB DUP2 DUP6 PUSH1 0x20 DUP7 ADD PUSH2 0xF0B JUMP JUMPDEST DUP1 DUP5 ADD SWAP2 POP POP SWAP3 SWAP2 POP POP JUMP JUMPDEST PUSH1 0x0 PUSH2 0xAF4 PUSH1 0x14 DUP4 PUSH2 0xDE8 JUMP JUMPDEST SWAP2 POP PUSH2 0xAFF DUP3 PUSH2 0x1166 JUMP JUMPDEST PUSH1 0x20 DUP3 ADD SWAP1 POP SWAP2 SWAP1 POP JUMP JUMPDEST PUSH1 0x0 PUSH2 0xB17 PUSH1 0x1B DUP4 PUSH2 0xDE8 JUMP JUMPDEST SWAP2 POP PUSH2 0xB22 DUP3 PUSH2 0x118F JUMP JUMPDEST PUSH1 0x20 DUP3 ADD SWAP1 POP SWAP2 SWAP1 POP JUMP JUMPDEST PUSH1 0x0 PUSH2 0xB3A PUSH1 0x2B DUP4 PUSH2 0xDE8 JUMP JUMPDEST SWAP2 POP PUSH2 0xB45 DUP3 PUSH2 0x11B8 JUMP JUMPDEST PUSH1 0x40 DUP3 ADD SWAP1 POP SWAP2 SWAP1 POP JUMP JUMPDEST PUSH2 0xB59 DUP2 PUSH2 0xEF2 JUMP JUMPDEST DUP3 MSTORE POP POP JUMP JUMPDEST PUSH2 0xB68 DUP2 PUSH2 0xEF2 JUMP JUMPDEST DUP3 MSTORE POP POP JUMP JUMPDEST PUSH2 0xB7F PUSH2 0xB7A DUP3 PUSH2 0xEF2 JUMP JUMPDEST PUSH2 0x100E JUMP JUMPDEST DUP3 MSTORE POP POP JUMP JUMPDEST PUSH1 0x0 PUSH2 0xB91 DUP3 DUP7 PUSH2 0x9F9 JUMP JUMPDEST PUSH1 0x14 DUP3 ADD SWAP2 POP PUSH2 0xBA1 DUP3 DUP6 PUSH2 0xB6E JUMP JUMPDEST PUSH1 0x20 DUP3 ADD SWAP2 POP PUSH2 0xBB1 DUP3 DUP5 PUSH2 0xAB6 JUMP JUMPDEST SWAP2 POP DUP2 SWAP1 POP SWAP5 SWAP4 POP POP POP POP JUMP JUMPDEST PUSH1 0x0 PUSH1 0x20 DUP3 ADD SWAP1 POP DUP2 DUP2 SUB PUSH1 0x0 DUP4 ADD MSTORE PUSH2 0xBD8 DUP2 DUP5 PUSH2 0xA10 JUMP JUMPDEST SWAP1 POP SWAP3 SWAP2 POP POP JUMP JUMPDEST PUSH1 0x0 PUSH1 0x20 DUP3 ADD SWAP1 POP DUP2 DUP2 SUB PUSH1 0x0 DUP4 ADD MSTORE PUSH2 0xBFA DUP2 DUP5 PUSH2 0xA7D JUMP JUMPDEST SWAP1 POP SWAP3 SWAP2 POP POP JUMP JUMPDEST PUSH1 0x0 PUSH1 0x20 DUP3 ADD SWAP1 POP DUP2 DUP2 SUB PUSH1 0x0 DUP4 ADD MSTORE PUSH2 0xC1B DUP2 PUSH2 0xAE7 JUMP JUMPDEST SWAP1 POP SWAP2 SWAP1 POP JUMP JUMPDEST PUSH1 0x0 PUSH1 0x20 DUP3 ADD SWAP1 POP DUP2 DUP2 SUB PUSH1 0x0 DUP4 ADD MSTORE PUSH2 0xC3B DUP2 PUSH2 0xB0A JUMP JUMPDEST SWAP1 POP SWAP2 SWAP1 POP JUMP JUMPDEST PUSH1 0x0 PUSH1 0x20 DUP3 ADD SWAP1 POP DUP2 DUP2 SUB PUSH1 0x0 DUP4 ADD MSTORE PUSH2 0xC5B DUP2 PUSH2 0xB2D JUMP JUMPDEST SWAP1 POP SWAP2 SWAP1 POP JUMP JUMPDEST PUSH1 0x0 PUSH1 0x20 DUP3 ADD SWAP1 POP PUSH2 0xC77 PUSH1 0x0 DUP4 ADD DUP5 PUSH2 0xB5F JUMP JUMPDEST SWAP3 SWAP2 POP POP JUMP JUMPDEST PUSH1 0x0 PUSH1 0x80 DUP3 ADD SWAP1 POP PUSH2 0xC92 PUSH1 0x0 DUP4 ADD DUP8 PUSH2 0xB5F JUMP JUMPDEST PUSH2 0xC9F PUSH1 0x20 DUP4 ADD DUP7 PUSH2 0x9EA JUMP JUMPDEST PUSH2 0xCAC PUSH1 0x40 DUP4 ADD DUP6 PUSH2 0xB5F JUMP JUMPDEST DUP2 DUP2 SUB PUSH1 0x60 DUP4 ADD MSTORE PUSH2 0xCBE DUP2 DUP5 PUSH2 0xA7D JUMP JUMPDEST SWAP1 POP SWAP6 SWAP5 POP POP POP POP POP JUMP JUMPDEST PUSH1 0x0 PUSH2 0x100 DUP3 ADD SWAP1 POP PUSH2 0xCDF PUSH1 0x0 DUP4 ADD DUP12 PUSH2 0xB5F JUMP JUMPDEST PUSH2 0xCEC PUSH1 0x20 DUP4 ADD DUP11 PUSH2 0xB5F JUMP JUMPDEST PUSH2 0xCF9 PUSH1 0x40 DUP4 ADD DUP10 PUSH2 0xB5F JUMP JUMPDEST PUSH2 0xD06 PUSH1 0x60 DUP4 ADD DUP9 PUSH2 0xB5F JUMP JUMPDEST PUSH2 0xD13 PUSH1 0x80 DUP4 ADD DUP8 PUSH2 0x9EA JUMP JUMPDEST PUSH2 0xD20 PUSH1 0xA0 DUP4 ADD DUP7 PUSH2 0x9EA JUMP JUMPDEST DUP2 DUP2 SUB PUSH1 0xC0 DUP4 ADD MSTORE PUSH2 0xD32 DUP2 DUP6 PUSH2 0xA7D JUMP JUMPDEST SWAP1 POP PUSH2 0xD41 PUSH1 0xE0 DUP4 ADD DUP5 PUSH2 0xA6E JUMP JUMPDEST SWAP10 SWAP9 POP POP POP POP POP POP POP POP POP JUMP JUMPDEST PUSH1 0x0 PUSH2 0xD58 PUSH2 0xD69 JUMP JUMPDEST SWAP1 POP PUSH2 0xD64 DUP3 DUP3 PUSH2 0xF70 JUMP JUMPDEST SWAP2 SWAP1 POP JUMP JUMPDEST PUSH1 0x0 PUSH1 0x40 MLOAD SWAP1 POP SWAP1 JUMP JUMPDEST PUSH1 0x0 PUSH8 0xFFFFFFFFFFFFFFFF DUP3 GT ISZERO PUSH2 0xD8E JUMPI PUSH2 0xD8D PUSH2 0x1105 JUMP JUMPDEST JUMPDEST PUSH2 0xD97 DUP3 PUSH2 0x1148 JUMP JUMPDEST SWAP1 POP PUSH1 0x20 DUP2 ADD SWAP1 POP SWAP2 SWAP1 POP JUMP JUMPDEST PUSH1 0x0 DUP2 SWAP1 POP PUSH1 0x20 DUP3 ADD SWAP1 POP SWAP2 SWAP1 POP JUMP JUMPDEST PUSH1 0x0 DUP2 MLOAD SWAP1 POP SWAP2 SWAP1 POP JUMP JUMPDEST PUSH1 0x0 DUP2 MLOAD SWAP1 POP SWAP2 SWAP1 POP JUMP JUMPDEST PUSH1 0x0 PUSH1 0x20 DUP3 ADD SWAP1 POP SWAP2 SWAP1 POP JUMP JUMPDEST PUSH1 0x0 DUP3 DUP3 MSTORE PUSH1 0x20 DUP3 ADD SWAP1 POP SWAP3 SWAP2 POP POP JUMP JUMPDEST PUSH1 0x0 DUP3 DUP3 MSTORE PUSH1 0x20 DUP3 ADD SWAP1 POP SWAP3 SWAP2 POP POP JUMP JUMPDEST PUSH1 0x0 DUP2 SWAP1 POP SWAP3 SWAP2 POP POP JUMP JUMPDEST PUSH1 0x0 PUSH2 0xE0F DUP3 PUSH2 0xEF2 JUMP JUMPDEST SWAP2 POP PUSH2 0xE1A DUP4 PUSH2 0xEF2 JUMP JUMPDEST SWAP3 POP DUP3 PUSH32 0xFFFFFFFFFFFFFFFFFFFFFFFFFFFFFFFFFFFFFFFFFFFFFFFFFFFFFFFFFFFFFFFF SUB DUP3 GT ISZERO PUSH2 0xE4F JUMPI PUSH2 0xE4E PUSH2 0x1049 JUMP JUMPDEST JUMPDEST DUP3 DUP3 ADD SWAP1 POP SWAP3 SWAP2 POP POP JUMP JUMPDEST PUSH1 0x0 PUSH2 0xE65 DUP3 PUSH2 0xEF2 JUMP JUMPDEST SWAP2 POP PUSH2 0xE70 DUP4 PUSH2 0xEF2 JUMP JUMPDEST SWAP3 POP DUP2 PUSH32 0xFFFFFFFFFFFFFFFFFFFFFFFFFFFFFFFFFFFFFFFFFFFFFFFFFFFFFFFFFFFFFFFF DIV DUP4 GT DUP3 ISZERO ISZERO AND ISZERO PUSH2 0xEA9 JUMPI PUSH2 0xEA8 PUSH2 0x1049 JUMP JUMPDEST JUMPDEST DUP3 DUP3 MUL SWAP1 POP SWAP3 SWAP2 POP POP JUMP JUMPDEST PUSH1 0x0 PUSH2 0xEBF DUP3 PUSH2 0xED2 JUMP JUMPDEST SWAP1 POP SWAP2 SWAP1 POP JUMP JUMPDEST PUSH1 0x0 DUP2 ISZERO ISZERO SWAP1 POP SWAP2 SWAP1 POP JUMP JUMPDEST PUSH1 0x0 PUSH20 0xFFFFFFFFFFFFFFFFFFFFFFFFFFFFFFFFFFFFFFFF DUP3 AND SWAP1 POP SWAP2 SWAP1 POP JUMP JUMPDEST PUSH1 0x0 DUP2 SWAP1 POP SWAP2 SWAP1 POP JUMP JUMPDEST DUP3 DUP2 DUP4 CALLDATACOPY PUSH1 0x0 DUP4 DUP4 ADD MSTORE POP POP POP JUMP JUMPDEST PUSH1 0x0 JUMPDEST DUP4 DUP2 LT ISZERO PUSH2 0xF29 JUMPI DUP1 DUP3 ADD MLOAD DUP2 DUP5 ADD MSTORE PUSH1 0x20 DUP2 ADD SWAP1 POP PUSH2 0xF0E JUMP JUMPDEST DUP4 DUP2 GT ISZERO PUSH2 0xF38 JUMPI PUSH1 0x0 DUP5 DUP5 ADD MSTORE JUMPDEST POP POP POP POP JUMP JUMPDEST PUSH1 0x0 PUSH1 0x2 DUP3 DIV SWAP1 POP PUSH1 0x1 DUP3 AND DUP1 PUSH2 0xF56 JUMPI PUSH1 0x7F DUP3 AND SWAP2 POP JUMPDEST PUSH1 0x20 DUP3 LT DUP2 EQ ISZERO PUSH2 0xF6A JUMPI PUSH2 0xF69 PUSH2 0x10A7 JUMP JUMPDEST JUMPDEST POP SWAP2 SWAP1 POP JUMP JUMPDEST PUSH2 0xF79 DUP3 PUSH2 0x1148 JUMP JUMPDEST DUP2 ADD DUP2 DUP2 LT PUSH8 0xFFFFFFFFFFFFFFFF DUP3 GT OR ISZERO PUSH2 0xF98 JUMPI PUSH2 0xF97 PUSH2 0x1105 JUMP JUMPDEST JUMPDEST DUP1 PUSH1 0x40 MSTORE POP POP POP JUMP JUMPDEST PUSH1 0x0 PUSH2 0xFAC DUP3 PUSH2 0xEF2 JUMP JUMPDEST SWAP2 POP PUSH32 0xFFFFFFFFFFFFFFFFFFFFFFFFFFFFFFFFFFFFFFFFFFFFFFFFFFFFFFFFFFFFFFFF DUP3 EQ ISZERO PUSH2 0xFDF JUMPI PUSH2 0xFDE PUSH2 0x1049 JUMP JUMPDEST JUMPDEST PUSH1 0x1 DUP3 ADD SWAP1 POP SWAP2 SWAP1 POP JUMP JUMPDEST PUSH1 0x0 PUSH2 0xFF5 DUP3 PUSH2 0xFFC JUMP JUMPDEST SWAP1 POP SWAP2 SWAP1 POP JUMP JUMPDEST PUSH1 0x0 PUSH2 0x1007 DUP3 PUSH2 0x1159 JUMP JUMPDEST SWAP1 POP SWAP2 SWAP1 POP JUMP JUMPDEST PUSH1 0x0 DUP2 SWAP1 POP SWAP2 SWAP1 POP JUMP JUMPDEST PUSH1 0x0 PUSH2 0x1023 DUP3 PUSH2 0xEF2 JUMP JUMPDEST SWAP2 POP PUSH2 0x102E DUP4 PUSH2 0xEF2 JUMP JUMPDEST SWAP3 POP DUP3 PUSH2 0x103E JUMPI PUSH2 0x103D PUSH2 0x1078 JUMP JUMPDEST JUMPDEST DUP3 DUP3 MOD SWAP1 POP SWAP3 SWAP2 POP POP JUMP JUMPDEST PUSH32 0x4E487B7100000000000000000000000000000000000000000000000000000000 PUSH1 0x0 MSTORE PUSH1 0x11 PUSH1 0x4 MSTORE PUSH1 0x24 PUSH1 0x0 REVERT JUMPDEST PUSH32 0x4E487B7100000000000000000000000000000000000000000000000000000000 PUSH1 0x0 MSTORE PUSH1 0x12 PUSH1 0x4 MSTORE PUSH1 0x24 PUSH1 0x0 REVERT JUMPDEST PUSH32 0x4E487B7100000000000000000000000000000000000000000000000000000000 PUSH1 0x0 MSTORE PUSH1 0x22 PUSH1 0x4 MSTORE PUSH1 0x24 PUSH1 0x0 REVERT JUMPDEST PUSH32 0x4E487B7100000000000000000000000000000000000000000000000000000000 PUSH1 0x0 MSTORE PUSH1 0x32 PUSH1 0x4 MSTORE PUSH1 0x24 PUSH1 0x0 REVERT JUMPDEST PUSH32 0x4E487B7100000000000000000000000000000000000000000000000000000000 PUSH1 0x0 MSTORE PUSH1 0x41 PUSH1 0x4 MSTORE PUSH1 0x24 PUSH1 0x0 REVERT JUMPDEST PUSH1 0x0 DUP1 REVERT JUMPDEST PUSH1 0x0 DUP1 REVERT JUMPDEST PUSH1 0x0 DUP1 REVERT JUMPDEST PUSH1 0x0 DUP1 REVERT JUMPDEST PUSH1 0x0 PUSH1 0x1F NOT PUSH1 0x1F DUP4 ADD AND SWAP1 POP SWAP2 SWAP1 POP JUMP JUMPDEST PUSH1 0x0 DUP2 PUSH1 0x60 SHL SWAP1 POP SWAP2 SWAP1 POP JUMP JUMPDEST PUSH32 0x76616C75652063616E6E6F74206265206E756C6C000000000000000000000000 PUSH1 0x0 DUP3 ADD MSTORE POP JUMP JUMPDEST PUSH32 0x7468697320686F757365496420616C7265616479206578697374730000000000 PUSH1 0x0 DUP3 ADD MSTORE POP JUMP JUMPDEST PUSH32 0x596F7520646F206E6F7420686176652061636365737320746F2064656C657465 PUSH1 0x0 DUP3 ADD MSTORE PUSH32 0x207468697320686F757365000000000000000000000000000000000000000000 PUSH1 0x20 DUP3 ADD MSTORE POP JUMP JUMPDEST PUSH2 0x1210 DUP2 PUSH2 0xEB4 JUMP JUMPDEST DUP2 EQ PUSH2 0x121B JUMPI PUSH1 0x0 DUP1 REVERT JUMPDEST POP JUMP JUMPDEST PUSH2 0x1227 DUP2 PUSH2 0xEF2 JUMP JUMPDEST DUP2 EQ PUSH2 0x1232 JUMPI PUSH1 0x0 DUP1 REVERT JUMPDEST POP JUMP INVALID LOG2 PUSH5 0x6970667358 0x22 SLT KECCAK256 EXTCODEHASH PUSH28 0x737756D59904DF29CA814D6C9C42B1E4BDFE1BDE03F8DEF324C0632B 0xB6 0xE PUSH5 0x736F6C6343 STOP ADDMOD SMOD STOP CALLER "
				},
				"gasEstimates": {
					"creation": {
						"codeDepositCost": "943000",
						"executionCost": "infinite",
						"totalCost": "infinite"
					},
					"external": {
						"delistHouse(uint256)": "infinite",
						"getCheapHouseIds(uint256)": "infinite",
						"houses(uint256)": "infinite",
						"listHouse(uint256,uint256,address,string)": "infinite"
					},
					"internal": {
						"_generateHouseId(address,uint256,string memory)": "infinite",
						"_ownerCooldown(uint256)": "22125"
					}
				},
				"methodIdentifiers": {
					"delistHouse(uint256)": "3c3b0b4a",
					"getCheapHouseIds(uint256)": "c45e1b25",
					"houses(uint256)": "aeda852f",
					"listHouse(uint256,uint256,address,string)": "91bfe0d4"
				}
			},
			"storageLayout": {
				"storage": [
					{
						"astId": 4,
						"contract": "contract/HouseRegistry.sol:HouseRegistry",
						"label": "digits",
						"offset": 0,
						"slot": "0",
						"type": "t_uint256"
					},
					{
						"astId": 9,
						"contract": "contract/HouseRegistry.sol:HouseRegistry",
						"label": "modulus",
						"offset": 0,
						"slot": "1",
						"type": "t_uint256"
					},
					{
						"astId": 12,
						"contract": "contract/HouseRegistry.sol:HouseRegistry",
						"label": "cooldownTime",
						"offset": 0,
						"slot": "2",
						"type": "t_uint256"
					},
					{
						"astId": 15,
						"contract": "contract/HouseRegistry.sol:HouseRegistry",
						"label": "countOfHouses",
						"offset": 0,
						"slot": "3",
						"type": "t_uint256"
					},
					{
						"astId": 17,
						"contract": "contract/HouseRegistry.sol:HouseRegistry",
						"label": "ownerAddCooldown",
						"offset": 0,
						"slot": "4",
						"type": "t_uint256"
					},
					{
						"astId": 59,
						"contract": "contract/HouseRegistry.sol:HouseRegistry",
						"label": "houseIndex",
						"offset": 0,
						"slot": "5",
						"type": "t_array(t_uint256)dyn_storage"
					},
					{
						"astId": 64,
						"contract": "contract/HouseRegistry.sol:HouseRegistry",
						"label": "houses",
						"offset": 0,
						"slot": "6",
						"type": "t_mapping(t_uint256,t_struct(House)34_storage)"
					}
				],
				"types": {
					"t_address": {
						"encoding": "inplace",
						"label": "address",
						"numberOfBytes": "20"
					},
					"t_array(t_uint256)dyn_storage": {
						"base": "t_uint256",
						"encoding": "dynamic_array",
						"label": "uint256[]",
						"numberOfBytes": "32"
					},
					"t_bool": {
						"encoding": "inplace",
						"label": "bool",
						"numberOfBytes": "1"
					},
					"t_mapping(t_uint256,t_struct(House)34_storage)": {
						"encoding": "mapping",
						"key": "t_uint256",
						"label": "mapping(uint256 => struct HouseRegistry.House)",
						"numberOfBytes": "32",
						"value": "t_struct(House)34_storage"
					},
					"t_string_storage": {
						"encoding": "bytes",
						"label": "string",
						"numberOfBytes": "32"
					},
					"t_struct(House)34_storage": {
						"encoding": "inplace",
						"label": "struct HouseRegistry.House",
						"members": [
							{
								"astId": 19,
								"contract": "contract/HouseRegistry.sol:HouseRegistry",
								"label": "id",
								"offset": 0,
								"slot": "0",
								"type": "t_uint256"
							},
							{
								"astId": 21,
								"contract": "contract/HouseRegistry.sol:HouseRegistry",
								"label": "serialNumber",
								"offset": 0,
								"slot": "1",
								"type": "t_uint256"
							},
							{
								"astId": 23,
								"contract": "contract/HouseRegistry.sol:HouseRegistry",
								"label": "price",
								"offset": 0,
								"slot": "2",
								"type": "t_uint256"
							},
							{
								"astId": 25,
								"contract": "contract/HouseRegistry.sol:HouseRegistry",
								"label": "area",
								"offset": 0,
								"slot": "3",
								"type": "t_uint256"
							},
							{
								"astId": 27,
								"contract": "contract/HouseRegistry.sol:HouseRegistry",
								"label": "sellerAddress",
								"offset": 0,
								"slot": "4",
								"type": "t_address"
							},
							{
								"astId": 29,
								"contract": "contract/HouseRegistry.sol:HouseRegistry",
								"label": "bayerAddress",
								"offset": 0,
								"slot": "5",
								"type": "t_address"
							},
							{
								"astId": 31,
								"contract": "contract/HouseRegistry.sol:HouseRegistry",
								"label": "houseAddress",
								"offset": 0,
								"slot": "6",
								"type": "t_string_storage"
							},
							{
								"astId": 33,
								"contract": "contract/HouseRegistry.sol:HouseRegistry",
								"label": "isdelistedHouse",
								"offset": 0,
								"slot": "7",
								"type": "t_bool"
							}
						],
						"numberOfBytes": "256"
					},
					"t_uint256": {
						"encoding": "inplace",
						"label": "uint256",
						"numberOfBytes": "32"
					}
				}
			},
			"userdoc": {
				"kind": "user",
				"methods": {},
				"version": 1
			}
		}
	}
}