{
	"contract/HouseRegistry.sol": {
		"HouseRegistry": {
			"abi": [
				{
					"anonymous": false,
					"inputs": [
						{
							"indexed": false,
							"internalType": "uint256",
							"name": "houseId",
							"type": "uint256"
						},
						{
							"indexed": false,
							"internalType": "address",
							"name": "_sellerAddress",
							"type": "address"
						},
						{
							"indexed": false,
							"internalType": "uint256",
							"name": "price",
							"type": "uint256"
						},
						{
							"indexed": false,
							"internalType": "string",
							"name": "houseAddress",
							"type": "string"
						}
					],
					"name": "AddNewHouse",
					"type": "event"
				},
				{
					"anonymous": false,
					"inputs": [
						{
							"indexed": true,
							"internalType": "address",
							"name": "previousOwner",
							"type": "address"
						},
						{
							"indexed": true,
							"internalType": "address",
							"name": "newOwner",
							"type": "address"
						}
					],
					"name": "OwnershipTransferred",
					"type": "event"
				},
				{
					"inputs": [
						{
							"internalType": "uint256",
							"name": "_timeNow",
							"type": "uint256"
						}
					],
					"name": "_canOwnerAdd",
					"outputs": [
						{
							"internalType": "bool",
							"name": "",
							"type": "bool"
						}
					],
					"stateMutability": "view",
					"type": "function"
				},
				{
					"inputs": [
						{
							"internalType": "uint256",
							"name": "houseId",
							"type": "uint256"
						}
					],
					"name": "delistHouse",
					"outputs": [],
					"stateMutability": "nonpayable",
					"type": "function"
				},
				{
					"inputs": [
						{
							"internalType": "uint256",
							"name": "",
							"type": "uint256"
						}
					],
					"name": "houses",
					"outputs": [
						{
							"internalType": "uint256",
							"name": "id",
							"type": "uint256"
						},
						{
							"internalType": "uint256",
							"name": "price",
							"type": "uint256"
						},
						{
							"internalType": "uint256",
							"name": "area",
							"type": "uint256"
						},
						{
							"internalType": "address",
							"name": "sellerAddress",
							"type": "address"
						},
						{
							"internalType": "string",
							"name": "houseAddress",
							"type": "string"
						},
						{
							"internalType": "bool",
							"name": "isdelistedHouse",
							"type": "bool"
						},
						{
							"internalType": "uint256",
							"name": "readyTime",
							"type": "uint256"
						}
					],
					"stateMutability": "view",
					"type": "function"
				},
				{
					"inputs": [
						{
							"internalType": "uint256",
							"name": "_price",
							"type": "uint256"
						},
						{
							"internalType": "uint256",
							"name": "_area",
							"type": "uint256"
						},
						{
							"internalType": "address",
							"name": "_sellerAddress",
							"type": "address"
						},
						{
							"internalType": "string",
							"name": "_houseAddress",
							"type": "string"
						}
					],
					"name": "listHouse",
					"outputs": [
						{
							"internalType": "uint256",
							"name": "",
							"type": "uint256"
						}
					],
					"stateMutability": "nonpayable",
					"type": "function"
				},
				{
					"inputs": [],
					"name": "owner",
					"outputs": [
						{
							"internalType": "address",
							"name": "",
							"type": "address"
						}
					],
					"stateMutability": "view",
					"type": "function"
				},
				{
					"inputs": [],
					"name": "renounceOwnership",
					"outputs": [],
					"stateMutability": "nonpayable",
					"type": "function"
				},
				{
					"inputs": [
						{
							"internalType": "address",
							"name": "newOwner",
							"type": "address"
						}
					],
					"name": "transferOwnership",
					"outputs": [],
					"stateMutability": "nonpayable",
					"type": "function"
				}
			],
			"devdoc": {
				"kind": "dev",
				"methods": {
					"owner()": {
						"details": "Returns the address of the current owner."
					},
					"renounceOwnership()": {
						"details": "Leaves the contract without owner. It will not be possible to call `onlyOwner` functions anymore. Can only be called by the current owner. NOTE: Renouncing ownership will leave the contract without an owner, thereby removing any functionality that is only available to the owner."
					},
					"transferOwnership(address)": {
						"details": "Transfers ownership of the contract to a new account (`newOwner`). Can only be called by the current owner."
					}
				},
				"version": 1
			},
			"evm": {
				"assembly": "    /* \"contract/HouseRegistry.sol\":87:1593  contract HouseRegistry is Ownable {... */\n  mstore(0x40, 0x80)\n    /* \"contract/HouseRegistry.sol\":142:143  5 */\n  0x05\n    /* \"contract/HouseRegistry.sol\":128:143  uint digits = 5 */\n  0x02\n  sstore\n    /* \"contract/HouseRegistry.sol\":170:176  digits */\n  sload(0x02)\n    /* \"contract/HouseRegistry.sol\":164:166  10 */\n  0x0a\n    /* \"contract/HouseRegistry.sol\":164:176  10 ** digits */\n  tag_1\n  swap2\n  swap1\n  tag_2\n  jump\t// in\ntag_1:\n    /* \"contract/HouseRegistry.sol\":149:176  uint modulus = 10 ** digits */\n  0x03\n  sstore\n    /* \"contract/HouseRegistry.sol\":202:208  1 days */\n  0x015180\n    /* \"contract/HouseRegistry.sol\":182:208  uint cooldownTime = 1 days */\n  0x04\n  sstore\n    /* \"contract/HouseRegistry.sol\":87:1593  contract HouseRegistry is Ownable {... */\n  callvalue\n  dup1\n  iszero\n  tag_3\n  jumpi\n  0x00\n  dup1\n  revert\ntag_3:\n  pop\n    /* \"contract/Ownable.sol\":984:1016  _transferOwnership(_msgSender()) */\n  tag_6\n    /* \"contract/Ownable.sol\":1003:1015  _msgSender() */\n  tag_7\n    /* \"contract/Ownable.sol\":1003:1013  _msgSender */\n  shl(0x20, tag_8)\n    /* \"contract/Ownable.sol\":1003:1015  _msgSender() */\n  0x20\n  shr\n  jump\t// in\ntag_7:\n    /* \"contract/Ownable.sol\":984:1002  _transferOwnership */\n  shl(0x20, tag_9)\n    /* \"contract/Ownable.sol\":984:1016  _transferOwnership(_msgSender()) */\n  0x20\n  shr\n  jump\t// in\ntag_6:\n    /* \"contract/HouseRegistry.sol\":87:1593  contract HouseRegistry is Ownable {... */\n  jump(tag_10)\n    /* \"contract/utils/Context.sol\":656:754  function _msgSender() internal view virtual returns (address) {\r... */\ntag_8:\n    /* \"contract/utils/Context.sol\":709:716  address */\n  0x00\n    /* \"contract/utils/Context.sol\":736:746  msg.sender */\n  caller\n    /* \"contract/utils/Context.sol\":729:746  return msg.sender */\n  swap1\n  pop\n    /* \"contract/utils/Context.sol\":656:754  function _msgSender() internal view virtual returns (address) {\r... */\n  swap1\n  jump\t// out\n    /* \"contract/Ownable.sol\":2375:2566  function _transferOwnership(address newOwner) internal virtual {\r... */\ntag_9:\n    /* \"contract/Ownable.sol\":2449:2465  address oldOwner */\n  0x00\n    /* \"contract/Ownable.sol\":2468:2474  _owner */\n  dup1\n  0x00\n  swap1\n  sload\n  swap1\n  0x0100\n  exp\n  swap1\n  div\n  0xffffffffffffffffffffffffffffffffffffffff\n  and\n    /* \"contract/Ownable.sol\":2449:2474  address oldOwner = _owner */\n  swap1\n  pop\n    /* \"contract/Ownable.sol\":2494:2502  newOwner */\n  dup2\n    /* \"contract/Ownable.sol\":2485:2491  _owner */\n  0x00\n  dup1\n    /* \"contract/Ownable.sol\":2485:2502  _owner = newOwner */\n  0x0100\n  exp\n  dup2\n  sload\n  dup2\n  0xffffffffffffffffffffffffffffffffffffffff\n  mul\n  not\n  and\n  swap1\n  dup4\n  0xffffffffffffffffffffffffffffffffffffffff\n  and\n  mul\n  or\n  swap1\n  sstore\n  pop\n    /* \"contract/Ownable.sol\":2549:2557  newOwner */\n  dup2\n    /* \"contract/Ownable.sol\":2518:2558  OwnershipTransferred(oldOwner, newOwner) */\n  0xffffffffffffffffffffffffffffffffffffffff\n  and\n    /* \"contract/Ownable.sol\":2539:2547  oldOwner */\n  dup2\n    /* \"contract/Ownable.sol\":2518:2558  OwnershipTransferred(oldOwner, newOwner) */\n  0xffffffffffffffffffffffffffffffffffffffff\n  and\n  0x8be0079c531659141344cd1fd0a4f28419497f9722a3daafe3b4186f6b6457e0\n  mload(0x40)\n  mload(0x40)\n  dup1\n  swap2\n  sub\n  swap1\n  log3\n    /* \"contract/Ownable.sol\":2438:2566  {\r... */\n  pop\n    /* \"contract/Ownable.sol\":2375:2566  function _transferOwnership(address newOwner) internal virtual {\r... */\n  pop\n  jump\t// out\n    /* \"#utility.yul\":7:855   */\ntag_14:\n    /* \"#utility.yul\":68:73   */\n  0x00\n    /* \"#utility.yul\":75:79   */\n  dup1\n    /* \"#utility.yul\":99:105   */\n  dup3\n    /* \"#utility.yul\":90:105   */\n  swap2\n  pop\n    /* \"#utility.yul\":123:128   */\n  dup4\n    /* \"#utility.yul\":114:128   */\n  swap1\n  pop\n    /* \"#utility.yul\":137:849   */\ntag_16:\n    /* \"#utility.yul\":158:159   */\n  0x01\n    /* \"#utility.yul\":148:156   */\n  dup6\n    /* \"#utility.yul\":145:160   */\n  gt\n    /* \"#utility.yul\":137:849   */\n  iszero\n  tag_18\n  jumpi\n    /* \"#utility.yul\":253:257   */\n  dup1\n    /* \"#utility.yul\":248:251   */\n  dup7\n    /* \"#utility.yul\":244:258   */\n  div\n    /* \"#utility.yul\":238:242   */\n  dup2\n    /* \"#utility.yul\":235:259   */\n  gt\n    /* \"#utility.yul\":232:282   */\n  iszero\n  tag_19\n  jumpi\n    /* \"#utility.yul\":262:280   */\n  tag_20\n  tag_21\n  jump\t// in\ntag_20:\n    /* \"#utility.yul\":232:282   */\ntag_19:\n    /* \"#utility.yul\":312:313   */\n  0x01\n    /* \"#utility.yul\":302:310   */\n  dup6\n    /* \"#utility.yul\":298:314   */\n  and\n    /* \"#utility.yul\":295:746   */\n  iszero\n  tag_22\n  jumpi\n    /* \"#utility.yul\":727:731   */\n  dup1\n    /* \"#utility.yul\":720:725   */\n  dup3\n    /* \"#utility.yul\":716:732   */\n  mul\n    /* \"#utility.yul\":707:732   */\n  swap2\n  pop\n    /* \"#utility.yul\":295:746   */\ntag_22:\n    /* \"#utility.yul\":777:781   */\n  dup1\n    /* \"#utility.yul\":771:775   */\n  dup2\n    /* \"#utility.yul\":767:782   */\n  mul\n    /* \"#utility.yul\":759:782   */\n  swap1\n  pop\n    /* \"#utility.yul\":807:839   */\n  tag_23\n    /* \"#utility.yul\":830:838   */\n  dup6\n    /* \"#utility.yul\":807:839   */\n  tag_24\n  jump\t// in\ntag_23:\n    /* \"#utility.yul\":795:839   */\n  swap5\n  pop\n    /* \"#utility.yul\":137:849   */\n  jump(tag_16)\ntag_18:\n    /* \"#utility.yul\":7:855   */\n  swap5\n  pop\n  swap5\n  swap3\n  pop\n  pop\n  pop\n  jump\t// out\n    /* \"#utility.yul\":861:1146   */\ntag_2:\n    /* \"#utility.yul\":921:926   */\n  0x00\n    /* \"#utility.yul\":945:968   */\n  tag_26\n    /* \"#utility.yul\":963:967   */\n  dup3\n    /* \"#utility.yul\":945:968   */\n  tag_27\n  jump\t// in\ntag_26:\n    /* \"#utility.yul\":937:968   */\n  swap2\n  pop\n    /* \"#utility.yul\":989:1016   */\n  tag_28\n    /* \"#utility.yul\":1007:1015   */\n  dup4\n    /* \"#utility.yul\":989:1016   */\n  tag_27\n  jump\t// in\ntag_28:\n    /* \"#utility.yul\":977:1016   */\n  swap3\n  pop\n    /* \"#utility.yul\":1035:1139   */\n  tag_29\n    /* \"#utility.yul\":1072:1138   */\n  0xffffffffffffffffffffffffffffffffffffffffffffffffffffffffffffffff\n    /* \"#utility.yul\":1062:1070   */\n  dup5\n    /* \"#utility.yul\":1056:1060   */\n  dup5\n    /* \"#utility.yul\":1035:1139   */\n  tag_30\n  jump\t// in\ntag_29:\n    /* \"#utility.yul\":1026:1139   */\n  swap1\n  pop\n    /* \"#utility.yul\":861:1146   */\n  swap3\n  swap2\n  pop\n  pop\n  jump\t// out\n    /* \"#utility.yul\":1152:2225   */\ntag_30:\n    /* \"#utility.yul\":1206:1211   */\n  0x00\n    /* \"#utility.yul\":1397:1405   */\n  dup3\n    /* \"#utility.yul\":1387:1427   */\n  tag_32\n  jumpi\n    /* \"#utility.yul\":1418:1419   */\n  0x01\n    /* \"#utility.yul\":1409:1419   */\n  swap1\n  pop\n    /* \"#utility.yul\":1420:1425   */\n  jump(tag_31)\n    /* \"#utility.yul\":1387:1427   */\ntag_32:\n    /* \"#utility.yul\":1446:1450   */\n  dup2\n    /* \"#utility.yul\":1436:1472   */\n  tag_33\n  jumpi\n    /* \"#utility.yul\":1463:1464   */\n  0x00\n    /* \"#utility.yul\":1454:1464   */\n  swap1\n  pop\n    /* \"#utility.yul\":1465:1470   */\n  jump(tag_31)\n    /* \"#utility.yul\":1436:1472   */\ntag_33:\n    /* \"#utility.yul\":1532:1536   */\n  dup2\n    /* \"#utility.yul\":1580:1581   */\n  0x01\n    /* \"#utility.yul\":1575:1602   */\n  dup2\n  eq\n  tag_35\n  jumpi\n    /* \"#utility.yul\":1616:1617   */\n  0x02\n    /* \"#utility.yul\":1611:1802   */\n  dup2\n  eq\n  tag_36\n  jumpi\n    /* \"#utility.yul\":1525:1802   */\n  jump(tag_34)\n    /* \"#utility.yul\":1575:1602   */\ntag_35:\n    /* \"#utility.yul\":1593:1594   */\n  0x01\n    /* \"#utility.yul\":1584:1594   */\n  swap2\n  pop\n    /* \"#utility.yul\":1595:1600   */\n  pop\n  jump(tag_31)\n    /* \"#utility.yul\":1611:1802   */\ntag_36:\n    /* \"#utility.yul\":1656:1659   */\n  0xff\n    /* \"#utility.yul\":1646:1654   */\n  dup5\n    /* \"#utility.yul\":1643:1660   */\n  gt\n    /* \"#utility.yul\":1640:1683   */\n  iszero\n  tag_37\n  jumpi\n    /* \"#utility.yul\":1663:1681   */\n  tag_38\n  tag_21\n  jump\t// in\ntag_38:\n    /* \"#utility.yul\":1640:1683   */\ntag_37:\n    /* \"#utility.yul\":1712:1720   */\n  dup4\n    /* \"#utility.yul\":1709:1710   */\n  0x02\n    /* \"#utility.yul\":1705:1721   */\n  exp\n    /* \"#utility.yul\":1696:1721   */\n  swap2\n  pop\n    /* \"#utility.yul\":1747:1750   */\n  dup5\n    /* \"#utility.yul\":1740:1745   */\n  dup3\n    /* \"#utility.yul\":1737:1751   */\n  gt\n    /* \"#utility.yul\":1734:1774   */\n  iszero\n  tag_39\n  jumpi\n    /* \"#utility.yul\":1754:1772   */\n  tag_40\n  tag_21\n  jump\t// in\ntag_40:\n    /* \"#utility.yul\":1734:1774   */\ntag_39:\n    /* \"#utility.yul\":1787:1792   */\n  pop\n  jump(tag_31)\n    /* \"#utility.yul\":1525:1802   */\ntag_34:\n  pop\n    /* \"#utility.yul\":1911:1913   */\n  0x20\n    /* \"#utility.yul\":1901:1909   */\n  dup4\n    /* \"#utility.yul\":1898:1914   */\n  lt\n    /* \"#utility.yul\":1892:1895   */\n  0x0133\n    /* \"#utility.yul\":1886:1890   */\n  dup4\n    /* \"#utility.yul\":1883:1896   */\n  lt\n    /* \"#utility.yul\":1879:1915   */\n  and\n    /* \"#utility.yul\":1861:1863   */\n  0x4e\n    /* \"#utility.yul\":1851:1859   */\n  dup5\n    /* \"#utility.yul\":1848:1864   */\n  lt\n    /* \"#utility.yul\":1843:1845   */\n  0x0b\n    /* \"#utility.yul\":1837:1841   */\n  dup5\n    /* \"#utility.yul\":1834:1846   */\n  lt\n    /* \"#utility.yul\":1830:1865   */\n  and\n    /* \"#utility.yul\":1814:1925   */\n  or\n    /* \"#utility.yul\":1811:2057   */\n  iszero\n  tag_41\n  jumpi\n    /* \"#utility.yul\":1967:1975   */\n  dup3\n    /* \"#utility.yul\":1961:1965   */\n  dup3\n    /* \"#utility.yul\":1957:1976   */\n  exp\n    /* \"#utility.yul\":1948:1976   */\n  swap1\n  pop\n    /* \"#utility.yul\":2002:2005   */\n  dup4\n    /* \"#utility.yul\":1995:2000   */\n  dup2\n    /* \"#utility.yul\":1992:2006   */\n  gt\n    /* \"#utility.yul\":1989:2029   */\n  iszero\n  tag_42\n  jumpi\n    /* \"#utility.yul\":2009:2027   */\n  tag_43\n  tag_21\n  jump\t// in\ntag_43:\n    /* \"#utility.yul\":1989:2029   */\ntag_42:\n    /* \"#utility.yul\":2042:2047   */\n  jump(tag_31)\n    /* \"#utility.yul\":1811:2057   */\ntag_41:\n    /* \"#utility.yul\":2082:2124   */\n  tag_44\n    /* \"#utility.yul\":2120:2123   */\n  dup5\n    /* \"#utility.yul\":2110:2118   */\n  dup5\n    /* \"#utility.yul\":2104:2108   */\n  dup5\n    /* \"#utility.yul\":2101:2102   */\n  0x01\n    /* \"#utility.yul\":2082:2124   */\n  tag_14\n  jump\t// in\ntag_44:\n    /* \"#utility.yul\":2067:2124   */\n  swap3\n  pop\n  swap1\n  pop\n    /* \"#utility.yul\":2156:2160   */\n  dup2\n    /* \"#utility.yul\":2151:2154   */\n  dup5\n    /* \"#utility.yul\":2147:2161   */\n  div\n    /* \"#utility.yul\":2140:2145   */\n  dup2\n    /* \"#utility.yul\":2137:2162   */\n  gt\n    /* \"#utility.yul\":2134:2185   */\n  iszero\n  tag_45\n  jumpi\n    /* \"#utility.yul\":2165:2183   */\n  tag_46\n  tag_21\n  jump\t// in\ntag_46:\n    /* \"#utility.yul\":2134:2185   */\ntag_45:\n    /* \"#utility.yul\":2214:2218   */\n  dup2\n    /* \"#utility.yul\":2207:2212   */\n  dup2\n    /* \"#utility.yul\":2203:2219   */\n  mul\n    /* \"#utility.yul\":2194:2219   */\n  swap1\n  pop\n    /* \"#utility.yul\":1152:2225   */\ntag_31:\n  swap4\n  swap3\n  pop\n  pop\n  pop\n  jump\t// out\n    /* \"#utility.yul\":2231:2308   */\ntag_27:\n    /* \"#utility.yul\":2268:2275   */\n  0x00\n    /* \"#utility.yul\":2297:2302   */\n  dup2\n    /* \"#utility.yul\":2286:2302   */\n  swap1\n  pop\n    /* \"#utility.yul\":2231:2308   */\n  swap2\n  swap1\n  pop\n  jump\t// out\n    /* \"#utility.yul\":2314:2494   */\ntag_21:\n    /* \"#utility.yul\":2362:2439   */\n  0x4e487b7100000000000000000000000000000000000000000000000000000000\n    /* \"#utility.yul\":2359:2360   */\n  0x00\n    /* \"#utility.yul\":2352:2440   */\n  mstore\n    /* \"#utility.yul\":2459:2463   */\n  0x11\n    /* \"#utility.yul\":2456:2457   */\n  0x04\n    /* \"#utility.yul\":2449:2464   */\n  mstore\n    /* \"#utility.yul\":2483:2487   */\n  0x24\n    /* \"#utility.yul\":2480:2481   */\n  0x00\n    /* \"#utility.yul\":2473:2488   */\n  revert\n    /* \"#utility.yul\":2500:2602   */\ntag_24:\n    /* \"#utility.yul\":2542:2550   */\n  0x00\n    /* \"#utility.yul\":2589:2594   */\n  dup2\n    /* \"#utility.yul\":2586:2587   */\n  0x01\n    /* \"#utility.yul\":2582:2595   */\n  shr\n    /* \"#utility.yul\":2561:2595   */\n  swap1\n  pop\n    /* \"#utility.yul\":2500:2602   */\n  swap2\n  swap1\n  pop\n  jump\t// out\n    /* \"contract/HouseRegistry.sol\":87:1593  contract HouseRegistry is Ownable {... */\ntag_10:\n  dataSize(sub_0)\n  dup1\n  dataOffset(sub_0)\n  0x00\n  codecopy\n  0x00\n  return\nstop\n\nsub_0: assembly {\n        /* \"contract/HouseRegistry.sol\":87:1593  contract HouseRegistry is Ownable {... */\n      mstore(0x40, 0x80)\n      callvalue\n      dup1\n      iszero\n      tag_1\n      jumpi\n      0x00\n      dup1\n      revert\n    tag_1:\n      pop\n      jumpi(tag_2, lt(calldatasize, 0x04))\n      shr(0xe0, calldataload(0x00))\n      dup1\n      0x91bfe0d4\n      gt\n      tag_10\n      jumpi\n      dup1\n      0x91bfe0d4\n      eq\n      tag_6\n      jumpi\n      dup1\n      0xa28691ab\n      eq\n      tag_7\n      jumpi\n      dup1\n      0xaeda852f\n      eq\n      tag_8\n      jumpi\n      dup1\n      0xf2fde38b\n      eq\n      tag_9\n      jumpi\n      jump(tag_2)\n    tag_10:\n      dup1\n      0x3c3b0b4a\n      eq\n      tag_3\n      jumpi\n      dup1\n      0x715018a6\n      eq\n      tag_4\n      jumpi\n      dup1\n      0x8da5cb5b\n      eq\n      tag_5\n      jumpi\n    tag_2:\n      0x00\n      dup1\n      revert\n        /* \"contract/HouseRegistry.sol\":1385:1590  function delistHouse(uint houseId) public{... */\n    tag_3:\n      tag_11\n      0x04\n      dup1\n      calldatasize\n      sub\n      dup2\n      add\n      swap1\n      tag_12\n      swap2\n      swap1\n      tag_13\n      jump\t// in\n    tag_12:\n      tag_14\n      jump\t// in\n    tag_11:\n      stop\n        /* \"contract/Ownable.sol\":1756:1859  function renounceOwnership() public virtual onlyOwner {\r... */\n    tag_4:\n      tag_15\n      tag_16\n      jump\t// in\n    tag_15:\n      stop\n        /* \"contract/Ownable.sol\":1105:1192  function owner() public view virtual returns (address) {\r... */\n    tag_5:\n      tag_17\n      tag_18\n      jump\t// in\n    tag_17:\n      mload(0x40)\n      tag_19\n      swap2\n      swap1\n      tag_20\n      jump\t// in\n    tag_19:\n      mload(0x40)\n      dup1\n      swap2\n      sub\n      swap1\n      return\n        /* \"contract/HouseRegistry.sol\":548:1119  function listHouse (uint _price, uint _area, address _sellerAddress, string memory _houseAddress) public returns (uint) {... */\n    tag_6:\n      tag_21\n      0x04\n      dup1\n      calldatasize\n      sub\n      dup2\n      add\n      swap1\n      tag_22\n      swap2\n      swap1\n      tag_23\n      jump\t// in\n    tag_22:\n      tag_24\n      jump\t// in\n    tag_21:\n      mload(0x40)\n      tag_25\n      swap2\n      swap1\n      tag_26\n      jump\t// in\n    tag_25:\n      mload(0x40)\n      dup1\n      swap2\n      sub\n      swap1\n      return\n        /* \"contract/Ownable.sol\":2676:2793  function _canOwnerAdd(uint _timeNow) public view returns(bool){\r... */\n    tag_7:\n      tag_27\n      0x04\n      dup1\n      calldatasize\n      sub\n      dup2\n      add\n      swap1\n      tag_28\n      swap2\n      swap1\n      tag_13\n      jump\t// in\n    tag_28:\n      tag_29\n      jump\t// in\n    tag_27:\n      mload(0x40)\n      tag_30\n      swap2\n      swap1\n      tag_31\n      jump\t// in\n    tag_30:\n      mload(0x40)\n      dup1\n      swap2\n      sub\n      swap1\n      return\n        /* \"contract/HouseRegistry.sol\":505:541  mapping(uint => House) public houses */\n    tag_8:\n      tag_32\n      0x04\n      dup1\n      calldatasize\n      sub\n      dup2\n      add\n      swap1\n      tag_33\n      swap2\n      swap1\n      tag_13\n      jump\t// in\n    tag_33:\n      tag_34\n      jump\t// in\n    tag_32:\n      mload(0x40)\n      tag_35\n      swap8\n      swap7\n      swap6\n      swap5\n      swap4\n      swap3\n      swap2\n      swap1\n      tag_36\n      jump\t// in\n    tag_35:\n      mload(0x40)\n      dup1\n      swap2\n      sub\n      swap1\n      return\n        /* \"contract/Ownable.sol\":2014:2215  function transferOwnership(address newOwner) public virtual onlyOwner {\r... */\n    tag_9:\n      tag_37\n      0x04\n      dup1\n      calldatasize\n      sub\n      dup2\n      add\n      swap1\n      tag_38\n      swap2\n      swap1\n      tag_39\n      jump\t// in\n    tag_38:\n      tag_40\n      jump\t// in\n    tag_37:\n      stop\n        /* \"contract/HouseRegistry.sol\":1385:1590  function delistHouse(uint houseId) public{... */\n    tag_14:\n        /* \"contract/HouseRegistry.sol\":1477:1487  msg.sender */\n      caller\n        /* \"contract/HouseRegistry.sol\":1444:1487  houses[houseId].sellerAddress == msg.sender */\n      0xffffffffffffffffffffffffffffffffffffffff\n      and\n        /* \"contract/HouseRegistry.sol\":1444:1450  houses */\n      0x05\n        /* \"contract/HouseRegistry.sol\":1444:1459  houses[houseId] */\n      0x00\n        /* \"contract/HouseRegistry.sol\":1451:1458  houseId */\n      dup4\n        /* \"contract/HouseRegistry.sol\":1444:1459  houses[houseId] */\n      dup2\n      mstore\n      0x20\n      add\n      swap1\n      dup2\n      mstore\n      0x20\n      add\n      0x00\n      keccak256\n        /* \"contract/HouseRegistry.sol\":1444:1473  houses[houseId].sellerAddress */\n      0x03\n      add\n      0x00\n      swap1\n      sload\n      swap1\n      0x0100\n      exp\n      swap1\n      div\n      0xffffffffffffffffffffffffffffffffffffffff\n      and\n        /* \"contract/HouseRegistry.sol\":1444:1487  houses[houseId].sellerAddress == msg.sender */\n      0xffffffffffffffffffffffffffffffffffffffff\n      and\n      eq\n        /* \"contract/HouseRegistry.sol\":1436:1535  require(houses[houseId].sellerAddress == msg.sender, \"You do not have access to delete this house\") */\n      tag_42\n      jumpi\n      mload(0x40)\n      0x08c379a000000000000000000000000000000000000000000000000000000000\n      dup2\n      mstore\n      0x04\n      add\n      tag_43\n      swap1\n      tag_44\n      jump\t// in\n    tag_43:\n      mload(0x40)\n      dup1\n      swap2\n      sub\n      swap1\n      revert\n    tag_42:\n        /* \"contract/HouseRegistry.sol\":1579:1583  true */\n      0x01\n        /* \"contract/HouseRegistry.sol\":1545:1551  houses */\n      0x05\n        /* \"contract/HouseRegistry.sol\":1545:1560  houses[houseId] */\n      0x00\n        /* \"contract/HouseRegistry.sol\":1552:1559  houseId */\n      dup4\n        /* \"contract/HouseRegistry.sol\":1545:1560  houses[houseId] */\n      dup2\n      mstore\n      0x20\n      add\n      swap1\n      dup2\n      mstore\n      0x20\n      add\n      0x00\n      keccak256\n        /* \"contract/HouseRegistry.sol\":1545:1576  houses[houseId].isdelistedHouse */\n      0x05\n      add\n      0x00\n        /* \"contract/HouseRegistry.sol\":1545:1583  houses[houseId].isdelistedHouse = true */\n      0x0100\n      exp\n      dup2\n      sload\n      dup2\n      0xff\n      mul\n      not\n      and\n      swap1\n      dup4\n      iszero\n      iszero\n      mul\n      or\n      swap1\n      sstore\n      pop\n        /* \"contract/HouseRegistry.sol\":1385:1590  function delistHouse(uint houseId) public{... */\n      pop\n      jump\t// out\n        /* \"contract/Ownable.sol\":1756:1859  function renounceOwnership() public virtual onlyOwner {\r... */\n    tag_16:\n        /* \"contract/Ownable.sol\":1336:1348  _msgSender() */\n      tag_46\n        /* \"contract/Ownable.sol\":1336:1346  _msgSender */\n      tag_47\n        /* \"contract/Ownable.sol\":1336:1348  _msgSender() */\n      jump\t// in\n    tag_46:\n        /* \"contract/Ownable.sol\":1325:1348  owner() == _msgSender() */\n      0xffffffffffffffffffffffffffffffffffffffff\n      and\n        /* \"contract/Ownable.sol\":1325:1332  owner() */\n      tag_48\n        /* \"contract/Ownable.sol\":1325:1330  owner */\n      tag_18\n        /* \"contract/Ownable.sol\":1325:1332  owner() */\n      jump\t// in\n    tag_48:\n        /* \"contract/Ownable.sol\":1325:1348  owner() == _msgSender() */\n      0xffffffffffffffffffffffffffffffffffffffff\n      and\n      eq\n        /* \"contract/Ownable.sol\":1317:1385  require(owner() == _msgSender(), \"Ownable: caller is not the owner\") */\n      tag_49\n      jumpi\n      mload(0x40)\n      0x08c379a000000000000000000000000000000000000000000000000000000000\n      dup2\n      mstore\n      0x04\n      add\n      tag_50\n      swap1\n      tag_51\n      jump\t// in\n    tag_50:\n      mload(0x40)\n      dup1\n      swap2\n      sub\n      swap1\n      revert\n    tag_49:\n        /* \"contract/Ownable.sol\":1821:1851  _transferOwnership(address(0)) */\n      tag_53\n        /* \"contract/Ownable.sol\":1848:1849  0 */\n      0x00\n        /* \"contract/Ownable.sol\":1821:1839  _transferOwnership */\n      tag_54\n        /* \"contract/Ownable.sol\":1821:1851  _transferOwnership(address(0)) */\n      jump\t// in\n    tag_53:\n        /* \"contract/Ownable.sol\":1756:1859  function renounceOwnership() public virtual onlyOwner {\r... */\n      jump\t// out\n        /* \"contract/Ownable.sol\":1105:1192  function owner() public view virtual returns (address) {\r... */\n    tag_18:\n        /* \"contract/Ownable.sol\":1151:1158  address */\n      0x00\n        /* \"contract/Ownable.sol\":1178:1184  _owner */\n      dup1\n      0x00\n      swap1\n      sload\n      swap1\n      0x0100\n      exp\n      swap1\n      div\n      0xffffffffffffffffffffffffffffffffffffffff\n      and\n        /* \"contract/Ownable.sol\":1171:1184  return _owner */\n      swap1\n      pop\n        /* \"contract/Ownable.sol\":1105:1192  function owner() public view virtual returns (address) {\r... */\n      swap1\n      jump\t// out\n        /* \"contract/HouseRegistry.sol\":548:1119  function listHouse (uint _price, uint _area, address _sellerAddress, string memory _houseAddress) public returns (uint) {... */\n    tag_24:\n        /* \"contract/HouseRegistry.sol\":662:666  uint */\n      0x00\n        /* \"contract/HouseRegistry.sol\":703:704  0 */\n      dup1\n        /* \"contract/HouseRegistry.sol\":695:700  _area */\n      dup5\n        /* \"contract/HouseRegistry.sol\":686:692  _price */\n      dup7\n        /* \"contract/HouseRegistry.sol\":686:700  _price * _area */\n      tag_57\n      swap2\n      swap1\n      tag_58\n      jump\t// in\n    tag_57:\n        /* \"contract/HouseRegistry.sol\":686:704  _price * _area > 0 */\n      gt\n        /* \"contract/HouseRegistry.sol\":678:729  require(_price * _area > 0, \"value cannot be null\") */\n      tag_59\n      jumpi\n      mload(0x40)\n      0x08c379a000000000000000000000000000000000000000000000000000000000\n      dup2\n      mstore\n      0x04\n      add\n      tag_60\n      swap1\n      tag_61\n      jump\t// in\n    tag_60:\n      mload(0x40)\n      dup1\n      swap2\n      sub\n      swap1\n      revert\n    tag_59:\n        /* \"contract/HouseRegistry.sol\":739:751  uint houseId */\n      0x00\n        /* \"contract/HouseRegistry.sol\":754:808  _generateHouseId(_sellerAddress, _area, _houseAddress) */\n      tag_62\n        /* \"contract/HouseRegistry.sol\":771:785  _sellerAddress */\n      dup5\n        /* \"contract/HouseRegistry.sol\":787:792  _area */\n      dup7\n        /* \"contract/HouseRegistry.sol\":794:807  _houseAddress */\n      dup6\n        /* \"contract/HouseRegistry.sol\":754:770  _generateHouseId */\n      tag_63\n        /* \"contract/HouseRegistry.sol\":754:808  _generateHouseId(_sellerAddress, _area, _houseAddress) */\n      jump\t// in\n    tag_62:\n        /* \"contract/HouseRegistry.sol\":739:808  uint houseId = _generateHouseId(_sellerAddress, _area, _houseAddress) */\n      swap1\n      pop\n        /* \"contract/HouseRegistry.sol\":837:843  houses */\n      0x05\n        /* \"contract/HouseRegistry.sol\":837:852  houses[houseId] */\n      0x00\n        /* \"contract/HouseRegistry.sol\":844:851  houseId */\n      dup3\n        /* \"contract/HouseRegistry.sol\":837:852  houses[houseId] */\n      dup2\n      mstore\n      0x20\n      add\n      swap1\n      dup2\n      mstore\n      0x20\n      add\n      0x00\n      keccak256\n        /* \"contract/HouseRegistry.sol\":837:855  houses[houseId].id */\n      0x00\n      add\n      sload\n        /* \"contract/HouseRegistry.sol\":826:833  houseId */\n      dup2\n        /* \"contract/HouseRegistry.sol\":826:855  houseId != houses[houseId].id */\n      eq\n      iszero\n        /* \"contract/HouseRegistry.sol\":818:887  require(houseId != houses[houseId].id, \"this houseId already exists\") */\n      tag_64\n      jumpi\n      mload(0x40)\n      0x08c379a000000000000000000000000000000000000000000000000000000000\n      dup2\n      mstore\n      0x04\n      add\n      tag_65\n      swap1\n      tag_66\n      jump\t// in\n    tag_65:\n      mload(0x40)\n      dup1\n      swap2\n      sub\n      swap1\n      revert\n    tag_64:\n        /* \"contract/HouseRegistry.sol\":915:1014  House(houseId, _price, _area, _sellerAddress, _houseAddress, false, block.timestamp + cooldownTime) */\n      mload(0x40)\n      dup1\n      0xe0\n      add\n      0x40\n      mstore\n      dup1\n        /* \"contract/HouseRegistry.sol\":921:928  houseId */\n      dup3\n        /* \"contract/HouseRegistry.sol\":915:1014  House(houseId, _price, _area, _sellerAddress, _houseAddress, false, block.timestamp + cooldownTime) */\n      dup2\n      mstore\n      0x20\n      add\n        /* \"contract/HouseRegistry.sol\":930:936  _price */\n      dup8\n        /* \"contract/HouseRegistry.sol\":915:1014  House(houseId, _price, _area, _sellerAddress, _houseAddress, false, block.timestamp + cooldownTime) */\n      dup2\n      mstore\n      0x20\n      add\n        /* \"contract/HouseRegistry.sol\":938:943  _area */\n      dup7\n        /* \"contract/HouseRegistry.sol\":915:1014  House(houseId, _price, _area, _sellerAddress, _houseAddress, false, block.timestamp + cooldownTime) */\n      dup2\n      mstore\n      0x20\n      add\n        /* \"contract/HouseRegistry.sol\":945:959  _sellerAddress */\n      dup6\n        /* \"contract/HouseRegistry.sol\":915:1014  House(houseId, _price, _area, _sellerAddress, _houseAddress, false, block.timestamp + cooldownTime) */\n      0xffffffffffffffffffffffffffffffffffffffff\n      and\n      dup2\n      mstore\n      0x20\n      add\n        /* \"contract/HouseRegistry.sol\":961:974  _houseAddress */\n      dup5\n        /* \"contract/HouseRegistry.sol\":915:1014  House(houseId, _price, _area, _sellerAddress, _houseAddress, false, block.timestamp + cooldownTime) */\n      dup2\n      mstore\n      0x20\n      add\n        /* \"contract/HouseRegistry.sol\":976:981  false */\n      0x00\n        /* \"contract/HouseRegistry.sol\":915:1014  House(houseId, _price, _area, _sellerAddress, _houseAddress, false, block.timestamp + cooldownTime) */\n      iszero\n      iszero\n      dup2\n      mstore\n      0x20\n      add\n        /* \"contract/HouseRegistry.sol\":1001:1013  cooldownTime */\n      sload(0x04)\n        /* \"contract/HouseRegistry.sol\":983:998  block.timestamp */\n      timestamp\n        /* \"contract/HouseRegistry.sol\":983:1013  block.timestamp + cooldownTime */\n      tag_67\n      swap2\n      swap1\n      tag_68\n      jump\t// in\n    tag_67:\n        /* \"contract/HouseRegistry.sol\":915:1014  House(houseId, _price, _area, _sellerAddress, _houseAddress, false, block.timestamp + cooldownTime) */\n      dup2\n      mstore\n      pop\n        /* \"contract/HouseRegistry.sol\":897:903  houses */\n      0x05\n        /* \"contract/HouseRegistry.sol\":897:912  houses[houseId] */\n      0x00\n        /* \"contract/HouseRegistry.sol\":904:911  houseId */\n      dup4\n        /* \"contract/HouseRegistry.sol\":897:912  houses[houseId] */\n      dup2\n      mstore\n      0x20\n      add\n      swap1\n      dup2\n      mstore\n      0x20\n      add\n      0x00\n      keccak256\n        /* \"contract/HouseRegistry.sol\":897:1014  houses[houseId] = House(houseId, _price, _area, _sellerAddress, _houseAddress, false, block.timestamp + cooldownTime) */\n      0x00\n      dup3\n      add\n      mload\n      dup2\n      0x00\n      add\n      sstore\n      0x20\n      dup3\n      add\n      mload\n      dup2\n      0x01\n      add\n      sstore\n      0x40\n      dup3\n      add\n      mload\n      dup2\n      0x02\n      add\n      sstore\n      0x60\n      dup3\n      add\n      mload\n      dup2\n      0x03\n      add\n      exp(0x0100, 0x00)\n      dup2\n      sload\n      dup2\n      0xffffffffffffffffffffffffffffffffffffffff\n      mul\n      not\n      and\n      swap1\n      dup4\n      0xffffffffffffffffffffffffffffffffffffffff\n      and\n      mul\n      or\n      swap1\n      sstore\n      pop\n      0x80\n      dup3\n      add\n      mload\n      dup2\n      0x04\n      add\n      swap1\n      dup1\n      mload\n      swap1\n      0x20\n      add\n      swap1\n      tag_69\n      swap3\n      swap2\n      swap1\n      tag_70\n      jump\t// in\n    tag_69:\n      pop\n      0xa0\n      dup3\n      add\n      mload\n      dup2\n      0x05\n      add\n      exp(0x0100, 0x00)\n      dup2\n      sload\n      dup2\n      0xff\n      mul\n      not\n      and\n      swap1\n      dup4\n      iszero\n      iszero\n      mul\n      or\n      swap1\n      sstore\n      pop\n      0xc0\n      dup3\n      add\n      mload\n      dup2\n      0x06\n      add\n      sstore\n      swap1\n      pop\n      pop\n        /* \"contract/HouseRegistry.sol\":1029:1088  AddNewHouse(houseId, _sellerAddress, _price, _houseAddress) */\n      0x8f5afd88eb4be0ac287d87970052ce9a2b453448408e3c91a695ad7509ab7194\n        /* \"contract/HouseRegistry.sol\":1041:1048  houseId */\n      dup2\n        /* \"contract/HouseRegistry.sol\":1050:1064  _sellerAddress */\n      dup6\n        /* \"contract/HouseRegistry.sol\":1066:1072  _price */\n      dup9\n        /* \"contract/HouseRegistry.sol\":1074:1087  _houseAddress */\n      dup7\n        /* \"contract/HouseRegistry.sol\":1029:1088  AddNewHouse(houseId, _sellerAddress, _price, _houseAddress) */\n      mload(0x40)\n      tag_71\n      swap5\n      swap4\n      swap3\n      swap2\n      swap1\n      tag_72\n      jump\t// in\n    tag_71:\n      mload(0x40)\n      dup1\n      swap2\n      sub\n      swap1\n      log1\n        /* \"contract/HouseRegistry.sol\":1105:1112  houseId */\n      dup1\n        /* \"contract/HouseRegistry.sol\":1098:1112  return houseId */\n      swap2\n      pop\n      pop\n        /* \"contract/HouseRegistry.sol\":548:1119  function listHouse (uint _price, uint _area, address _sellerAddress, string memory _houseAddress) public returns (uint) {... */\n      swap5\n      swap4\n      pop\n      pop\n      pop\n      pop\n      jump\t// out\n        /* \"contract/Ownable.sol\":2676:2793  function _canOwnerAdd(uint _timeNow) public view returns(bool){\r... */\n    tag_29:\n        /* \"contract/Ownable.sol\":2733:2737  bool */\n      0x00\n        /* \"contract/Ownable.sol\":2769:2784  block.timestamp */\n      timestamp\n        /* \"contract/Ownable.sol\":2757:2765  _timeNow */\n      dup3\n        /* \"contract/Ownable.sol\":2757:2784  _timeNow <= block.timestamp */\n      gt\n      iszero\n        /* \"contract/Ownable.sol\":2749:2785  return (_timeNow <= block.timestamp) */\n      swap1\n      pop\n        /* \"contract/Ownable.sol\":2676:2793  function _canOwnerAdd(uint _timeNow) public view returns(bool){\r... */\n      swap2\n      swap1\n      pop\n      jump\t// out\n        /* \"contract/HouseRegistry.sol\":505:541  mapping(uint => House) public houses */\n    tag_34:\n      mstore(0x20, 0x05)\n      dup1\n      0x00\n      mstore\n      keccak256(0x00, 0x40)\n      0x00\n      swap2\n      pop\n      swap1\n      pop\n      dup1\n      0x00\n      add\n      sload\n      swap1\n      dup1\n      0x01\n      add\n      sload\n      swap1\n      dup1\n      0x02\n      add\n      sload\n      swap1\n      dup1\n      0x03\n      add\n      0x00\n      swap1\n      sload\n      swap1\n      0x0100\n      exp\n      swap1\n      div\n      0xffffffffffffffffffffffffffffffffffffffff\n      and\n      swap1\n      dup1\n      0x04\n      add\n      dup1\n      sload\n      tag_74\n      swap1\n      tag_75\n      jump\t// in\n    tag_74:\n      dup1\n      0x1f\n      add\n      0x20\n      dup1\n      swap2\n      div\n      mul\n      0x20\n      add\n      mload(0x40)\n      swap1\n      dup2\n      add\n      0x40\n      mstore\n      dup1\n      swap3\n      swap2\n      swap1\n      dup2\n      dup2\n      mstore\n      0x20\n      add\n      dup3\n      dup1\n      sload\n      tag_76\n      swap1\n      tag_75\n      jump\t// in\n    tag_76:\n      dup1\n      iszero\n      tag_77\n      jumpi\n      dup1\n      0x1f\n      lt\n      tag_78\n      jumpi\n      0x0100\n      dup1\n      dup4\n      sload\n      div\n      mul\n      dup4\n      mstore\n      swap2\n      0x20\n      add\n      swap2\n      jump(tag_77)\n    tag_78:\n      dup3\n      add\n      swap2\n      swap1\n      0x00\n      mstore\n      keccak256(0x00, 0x20)\n      swap1\n    tag_79:\n      dup2\n      sload\n      dup2\n      mstore\n      swap1\n      0x01\n      add\n      swap1\n      0x20\n      add\n      dup1\n      dup4\n      gt\n      tag_79\n      jumpi\n      dup3\n      swap1\n      sub\n      0x1f\n      and\n      dup3\n      add\n      swap2\n    tag_77:\n      pop\n      pop\n      pop\n      pop\n      pop\n      swap1\n      dup1\n      0x05\n      add\n      0x00\n      swap1\n      sload\n      swap1\n      0x0100\n      exp\n      swap1\n      div\n      0xff\n      and\n      swap1\n      dup1\n      0x06\n      add\n      sload\n      swap1\n      pop\n      dup8\n      jump\t// out\n        /* \"contract/Ownable.sol\":2014:2215  function transferOwnership(address newOwner) public virtual onlyOwner {\r... */\n    tag_40:\n        /* \"contract/Ownable.sol\":1336:1348  _msgSender() */\n      tag_81\n        /* \"contract/Ownable.sol\":1336:1346  _msgSender */\n      tag_47\n        /* \"contract/Ownable.sol\":1336:1348  _msgSender() */\n      jump\t// in\n    tag_81:\n        /* \"contract/Ownable.sol\":1325:1348  owner() == _msgSender() */\n      0xffffffffffffffffffffffffffffffffffffffff\n      and\n        /* \"contract/Ownable.sol\":1325:1332  owner() */\n      tag_82\n        /* \"contract/Ownable.sol\":1325:1330  owner */\n      tag_18\n        /* \"contract/Ownable.sol\":1325:1332  owner() */\n      jump\t// in\n    tag_82:\n        /* \"contract/Ownable.sol\":1325:1348  owner() == _msgSender() */\n      0xffffffffffffffffffffffffffffffffffffffff\n      and\n      eq\n        /* \"contract/Ownable.sol\":1317:1385  require(owner() == _msgSender(), \"Ownable: caller is not the owner\") */\n      tag_83\n      jumpi\n      mload(0x40)\n      0x08c379a000000000000000000000000000000000000000000000000000000000\n      dup2\n      mstore\n      0x04\n      add\n      tag_84\n      swap1\n      tag_51\n      jump\t// in\n    tag_84:\n      mload(0x40)\n      dup1\n      swap2\n      sub\n      swap1\n      revert\n    tag_83:\n        /* \"contract/Ownable.sol\":2123:2124  0 */\n      0x00\n        /* \"contract/Ownable.sol\":2103:2125  newOwner != address(0) */\n      0xffffffffffffffffffffffffffffffffffffffff\n      and\n        /* \"contract/Ownable.sol\":2103:2111  newOwner */\n      dup2\n        /* \"contract/Ownable.sol\":2103:2125  newOwner != address(0) */\n      0xffffffffffffffffffffffffffffffffffffffff\n      and\n      eq\n      iszero\n        /* \"contract/Ownable.sol\":2095:2168  require(newOwner != address(0), \"Ownable: new owner is the zero address\") */\n      tag_86\n      jumpi\n      mload(0x40)\n      0x08c379a000000000000000000000000000000000000000000000000000000000\n      dup2\n      mstore\n      0x04\n      add\n      tag_87\n      swap1\n      tag_88\n      jump\t// in\n    tag_87:\n      mload(0x40)\n      dup1\n      swap2\n      sub\n      swap1\n      revert\n    tag_86:\n        /* \"contract/Ownable.sol\":2179:2207  _transferOwnership(newOwner) */\n      tag_89\n        /* \"contract/Ownable.sol\":2198:2206  newOwner */\n      dup2\n        /* \"contract/Ownable.sol\":2179:2197  _transferOwnership */\n      tag_54\n        /* \"contract/Ownable.sol\":2179:2207  _transferOwnership(newOwner) */\n      jump\t// in\n    tag_89:\n        /* \"contract/Ownable.sol\":2014:2215  function transferOwnership(address newOwner) public virtual onlyOwner {\r... */\n      pop\n      jump\t// out\n        /* \"contract/utils/Context.sol\":656:754  function _msgSender() internal view virtual returns (address) {\r... */\n    tag_47:\n        /* \"contract/utils/Context.sol\":709:716  address */\n      0x00\n        /* \"contract/utils/Context.sol\":736:746  msg.sender */\n      caller\n        /* \"contract/utils/Context.sol\":729:746  return msg.sender */\n      swap1\n      pop\n        /* \"contract/utils/Context.sol\":656:754  function _msgSender() internal view virtual returns (address) {\r... */\n      swap1\n      jump\t// out\n        /* \"contract/Ownable.sol\":2375:2566  function _transferOwnership(address newOwner) internal virtual {\r... */\n    tag_54:\n        /* \"contract/Ownable.sol\":2449:2465  address oldOwner */\n      0x00\n        /* \"contract/Ownable.sol\":2468:2474  _owner */\n      dup1\n      0x00\n      swap1\n      sload\n      swap1\n      0x0100\n      exp\n      swap1\n      div\n      0xffffffffffffffffffffffffffffffffffffffff\n      and\n        /* \"contract/Ownable.sol\":2449:2474  address oldOwner = _owner */\n      swap1\n      pop\n        /* \"contract/Ownable.sol\":2494:2502  newOwner */\n      dup2\n        /* \"contract/Ownable.sol\":2485:2491  _owner */\n      0x00\n      dup1\n        /* \"contract/Ownable.sol\":2485:2502  _owner = newOwner */\n      0x0100\n      exp\n      dup2\n      sload\n      dup2\n      0xffffffffffffffffffffffffffffffffffffffff\n      mul\n      not\n      and\n      swap1\n      dup4\n      0xffffffffffffffffffffffffffffffffffffffff\n      and\n      mul\n      or\n      swap1\n      sstore\n      pop\n        /* \"contract/Ownable.sol\":2549:2557  newOwner */\n      dup2\n        /* \"contract/Ownable.sol\":2518:2558  OwnershipTransferred(oldOwner, newOwner) */\n      0xffffffffffffffffffffffffffffffffffffffff\n      and\n        /* \"contract/Ownable.sol\":2539:2547  oldOwner */\n      dup2\n        /* \"contract/Ownable.sol\":2518:2558  OwnershipTransferred(oldOwner, newOwner) */\n      0xffffffffffffffffffffffffffffffffffffffff\n      and\n      0x8be0079c531659141344cd1fd0a4f28419497f9722a3daafe3b4186f6b6457e0\n      mload(0x40)\n      mload(0x40)\n      dup1\n      swap2\n      sub\n      swap1\n      log3\n        /* \"contract/Ownable.sol\":2438:2566  {\r... */\n      pop\n        /* \"contract/Ownable.sol\":2375:2566  function _transferOwnership(address newOwner) internal virtual {\r... */\n      pop\n      jump\t// out\n        /* \"contract/HouseRegistry.sol\":1125:1379  function _generateHouseId(address _sellerAddress, uint _area, string memory _houseAddress) private view returns(uint){... */\n    tag_63:\n        /* \"contract/HouseRegistry.sol\":1237:1241  uint */\n      0x00\n        /* \"contract/HouseRegistry.sol\":1252:1264  uint houseId */\n      dup1\n        /* \"contract/HouseRegistry.sol\":1299:1313  _sellerAddress */\n      dup5\n        /* \"contract/HouseRegistry.sol\":1315:1320  _area */\n      dup5\n        /* \"contract/HouseRegistry.sol\":1322:1335  _houseAddress */\n      dup5\n        /* \"contract/HouseRegistry.sol\":1282:1336  abi.encodePacked(_sellerAddress, _area, _houseAddress) */\n      add(0x20, mload(0x40))\n      tag_93\n      swap4\n      swap3\n      swap2\n      swap1\n      tag_94\n      jump\t// in\n    tag_93:\n      mload(0x40)\n      0x20\n      dup2\n      dup4\n      sub\n      sub\n      dup2\n      mstore\n      swap1\n      0x40\n      mstore\n        /* \"contract/HouseRegistry.sol\":1272:1337  keccak256(abi.encodePacked(_sellerAddress, _area, _houseAddress)) */\n      dup1\n      mload\n      swap1\n      0x20\n      add\n      keccak256\n        /* \"contract/HouseRegistry.sol\":1267:1338  uint(keccak256(abi.encodePacked(_sellerAddress, _area, _houseAddress))) */\n      0x00\n      shr\n        /* \"contract/HouseRegistry.sol\":1252:1338  uint houseId = uint(keccak256(abi.encodePacked(_sellerAddress, _area, _houseAddress))) */\n      swap1\n      pop\n        /* \"contract/HouseRegistry.sol\":1365:1372  modulus */\n      sload(0x03)\n        /* \"contract/HouseRegistry.sol\":1355:1362  houseId */\n      dup2\n        /* \"contract/HouseRegistry.sol\":1355:1372  houseId % modulus */\n      tag_95\n      swap2\n      swap1\n      tag_96\n      jump\t// in\n    tag_95:\n        /* \"contract/HouseRegistry.sol\":1348:1372  return houseId % modulus */\n      swap2\n      pop\n      pop\n        /* \"contract/HouseRegistry.sol\":1125:1379  function _generateHouseId(address _sellerAddress, uint _area, string memory _houseAddress) private view returns(uint){... */\n      swap4\n      swap3\n      pop\n      pop\n      pop\n      jump\t// out\n    tag_70:\n      dup3\n      dup1\n      sload\n      tag_97\n      swap1\n      tag_75\n      jump\t// in\n    tag_97:\n      swap1\n      0x00\n      mstore\n      keccak256(0x00, 0x20)\n      swap1\n      0x1f\n      add\n      0x20\n      swap1\n      div\n      dup2\n      add\n      swap3\n      dup3\n      tag_99\n      jumpi\n      0x00\n      dup6\n      sstore\n      jump(tag_98)\n    tag_99:\n      dup3\n      0x1f\n      lt\n      tag_100\n      jumpi\n      dup1\n      mload\n      not(0xff)\n      and\n      dup4\n      dup1\n      add\n      or\n      dup6\n      sstore\n      jump(tag_98)\n    tag_100:\n      dup3\n      dup1\n      add\n      0x01\n      add\n      dup6\n      sstore\n      dup3\n      iszero\n      tag_98\n      jumpi\n      swap2\n      dup3\n      add\n    tag_101:\n      dup3\n      dup2\n      gt\n      iszero\n      tag_102\n      jumpi\n      dup3\n      mload\n      dup3\n      sstore\n      swap2\n      0x20\n      add\n      swap2\n      swap1\n      0x01\n      add\n      swap1\n      jump(tag_101)\n    tag_102:\n    tag_98:\n      pop\n      swap1\n      pop\n      tag_103\n      swap2\n      swap1\n      tag_104\n      jump\t// in\n    tag_103:\n      pop\n      swap1\n      jump\t// out\n    tag_104:\n    tag_105:\n      dup1\n      dup3\n      gt\n      iszero\n      tag_106\n      jumpi\n      0x00\n      dup2\n      0x00\n      swap1\n      sstore\n      pop\n      0x01\n      add\n      jump(tag_105)\n    tag_106:\n      pop\n      swap1\n      jump\t// out\n        /* \"#utility.yul\":7:419   */\n    tag_108:\n        /* \"#utility.yul\":85:90   */\n      0x00\n        /* \"#utility.yul\":110:176   */\n      tag_110\n        /* \"#utility.yul\":126:175   */\n      tag_111\n        /* \"#utility.yul\":168:174   */\n      dup5\n        /* \"#utility.yul\":126:175   */\n      tag_112\n      jump\t// in\n    tag_111:\n        /* \"#utility.yul\":110:176   */\n      tag_113\n      jump\t// in\n    tag_110:\n        /* \"#utility.yul\":101:176   */\n      swap1\n      pop\n        /* \"#utility.yul\":199:205   */\n      dup3\n        /* \"#utility.yul\":192:197   */\n      dup2\n        /* \"#utility.yul\":185:206   */\n      mstore\n        /* \"#utility.yul\":237:241   */\n      0x20\n        /* \"#utility.yul\":230:235   */\n      dup2\n        /* \"#utility.yul\":226:242   */\n      add\n        /* \"#utility.yul\":275:278   */\n      dup5\n        /* \"#utility.yul\":266:272   */\n      dup5\n        /* \"#utility.yul\":261:264   */\n      dup5\n        /* \"#utility.yul\":257:273   */\n      add\n        /* \"#utility.yul\":254:279   */\n      gt\n        /* \"#utility.yul\":251:363   */\n      iszero\n      tag_114\n      jumpi\n        /* \"#utility.yul\":282:361   */\n      tag_115\n      tag_116\n      jump\t// in\n    tag_115:\n        /* \"#utility.yul\":251:363   */\n    tag_114:\n        /* \"#utility.yul\":372:413   */\n      tag_117\n        /* \"#utility.yul\":406:412   */\n      dup5\n        /* \"#utility.yul\":401:404   */\n      dup3\n        /* \"#utility.yul\":396:399   */\n      dup6\n        /* \"#utility.yul\":372:413   */\n      tag_118\n      jump\t// in\n    tag_117:\n        /* \"#utility.yul\":91:419   */\n      pop\n        /* \"#utility.yul\":7:419   */\n      swap4\n      swap3\n      pop\n      pop\n      pop\n      jump\t// out\n        /* \"#utility.yul\":425:564   */\n    tag_119:\n        /* \"#utility.yul\":471:476   */\n      0x00\n        /* \"#utility.yul\":509:515   */\n      dup2\n        /* \"#utility.yul\":496:516   */\n      calldataload\n        /* \"#utility.yul\":487:516   */\n      swap1\n      pop\n        /* \"#utility.yul\":525:558   */\n      tag_121\n        /* \"#utility.yul\":552:557   */\n      dup2\n        /* \"#utility.yul\":525:558   */\n      tag_122\n      jump\t// in\n    tag_121:\n        /* \"#utility.yul\":425:564   */\n      swap3\n      swap2\n      pop\n      pop\n      jump\t// out\n        /* \"#utility.yul\":584:924   */\n    tag_123:\n        /* \"#utility.yul\":640:645   */\n      0x00\n        /* \"#utility.yul\":689:692   */\n      dup3\n        /* \"#utility.yul\":682:686   */\n      0x1f\n        /* \"#utility.yul\":674:680   */\n      dup4\n        /* \"#utility.yul\":670:687   */\n      add\n        /* \"#utility.yul\":666:693   */\n      slt\n        /* \"#utility.yul\":656:778   */\n      tag_125\n      jumpi\n        /* \"#utility.yul\":697:776   */\n      tag_126\n      tag_127\n      jump\t// in\n    tag_126:\n        /* \"#utility.yul\":656:778   */\n    tag_125:\n        /* \"#utility.yul\":814:820   */\n      dup2\n        /* \"#utility.yul\":801:821   */\n      calldataload\n        /* \"#utility.yul\":839:918   */\n      tag_128\n        /* \"#utility.yul\":914:917   */\n      dup5\n        /* \"#utility.yul\":906:912   */\n      dup3\n        /* \"#utility.yul\":899:903   */\n      0x20\n        /* \"#utility.yul\":891:897   */\n      dup7\n        /* \"#utility.yul\":887:904   */\n      add\n        /* \"#utility.yul\":839:918   */\n      tag_108\n      jump\t// in\n    tag_128:\n        /* \"#utility.yul\":830:918   */\n      swap2\n      pop\n        /* \"#utility.yul\":646:924   */\n      pop\n        /* \"#utility.yul\":584:924   */\n      swap3\n      swap2\n      pop\n      pop\n      jump\t// out\n        /* \"#utility.yul\":930:1069   */\n    tag_129:\n        /* \"#utility.yul\":976:981   */\n      0x00\n        /* \"#utility.yul\":1014:1020   */\n      dup2\n        /* \"#utility.yul\":1001:1021   */\n      calldataload\n        /* \"#utility.yul\":992:1021   */\n      swap1\n      pop\n        /* \"#utility.yul\":1030:1063   */\n      tag_131\n        /* \"#utility.yul\":1057:1062   */\n      dup2\n        /* \"#utility.yul\":1030:1063   */\n      tag_132\n      jump\t// in\n    tag_131:\n        /* \"#utility.yul\":930:1069   */\n      swap3\n      swap2\n      pop\n      pop\n      jump\t// out\n        /* \"#utility.yul\":1075:1404   */\n    tag_39:\n        /* \"#utility.yul\":1134:1140   */\n      0x00\n        /* \"#utility.yul\":1183:1185   */\n      0x20\n        /* \"#utility.yul\":1171:1180   */\n      dup3\n        /* \"#utility.yul\":1162:1169   */\n      dup5\n        /* \"#utility.yul\":1158:1181   */\n      sub\n        /* \"#utility.yul\":1154:1186   */\n      slt\n        /* \"#utility.yul\":1151:1270   */\n      iszero\n      tag_134\n      jumpi\n        /* \"#utility.yul\":1189:1268   */\n      tag_135\n      tag_136\n      jump\t// in\n    tag_135:\n        /* \"#utility.yul\":1151:1270   */\n    tag_134:\n        /* \"#utility.yul\":1309:1310   */\n      0x00\n        /* \"#utility.yul\":1334:1387   */\n      tag_137\n        /* \"#utility.yul\":1379:1386   */\n      dup5\n        /* \"#utility.yul\":1370:1376   */\n      dup3\n        /* \"#utility.yul\":1359:1368   */\n      dup6\n        /* \"#utility.yul\":1355:1377   */\n      add\n        /* \"#utility.yul\":1334:1387   */\n      tag_119\n      jump\t// in\n    tag_137:\n        /* \"#utility.yul\":1324:1387   */\n      swap2\n      pop\n        /* \"#utility.yul\":1280:1397   */\n      pop\n        /* \"#utility.yul\":1075:1404   */\n      swap3\n      swap2\n      pop\n      pop\n      jump\t// out\n        /* \"#utility.yul\":1410:1739   */\n    tag_13:\n        /* \"#utility.yul\":1469:1475   */\n      0x00\n        /* \"#utility.yul\":1518:1520   */\n      0x20\n        /* \"#utility.yul\":1506:1515   */\n      dup3\n        /* \"#utility.yul\":1497:1504   */\n      dup5\n        /* \"#utility.yul\":1493:1516   */\n      sub\n        /* \"#utility.yul\":1489:1521   */\n      slt\n        /* \"#utility.yul\":1486:1605   */\n      iszero\n      tag_139\n      jumpi\n        /* \"#utility.yul\":1524:1603   */\n      tag_140\n      tag_136\n      jump\t// in\n    tag_140:\n        /* \"#utility.yul\":1486:1605   */\n    tag_139:\n        /* \"#utility.yul\":1644:1645   */\n      0x00\n        /* \"#utility.yul\":1669:1722   */\n      tag_141\n        /* \"#utility.yul\":1714:1721   */\n      dup5\n        /* \"#utility.yul\":1705:1711   */\n      dup3\n        /* \"#utility.yul\":1694:1703   */\n      dup6\n        /* \"#utility.yul\":1690:1712   */\n      add\n        /* \"#utility.yul\":1669:1722   */\n      tag_129\n      jump\t// in\n    tag_141:\n        /* \"#utility.yul\":1659:1722   */\n      swap2\n      pop\n        /* \"#utility.yul\":1615:1732   */\n      pop\n        /* \"#utility.yul\":1410:1739   */\n      swap3\n      swap2\n      pop\n      pop\n      jump\t// out\n        /* \"#utility.yul\":1745:2690   */\n    tag_23:\n        /* \"#utility.yul\":1841:1847   */\n      0x00\n        /* \"#utility.yul\":1849:1855   */\n      dup1\n        /* \"#utility.yul\":1857:1863   */\n      0x00\n        /* \"#utility.yul\":1865:1871   */\n      dup1\n        /* \"#utility.yul\":1914:1917   */\n      0x80\n        /* \"#utility.yul\":1902:1911   */\n      dup6\n        /* \"#utility.yul\":1893:1900   */\n      dup8\n        /* \"#utility.yul\":1889:1912   */\n      sub\n        /* \"#utility.yul\":1885:1918   */\n      slt\n        /* \"#utility.yul\":1882:2002   */\n      iszero\n      tag_143\n      jumpi\n        /* \"#utility.yul\":1921:2000   */\n      tag_144\n      tag_136\n      jump\t// in\n    tag_144:\n        /* \"#utility.yul\":1882:2002   */\n    tag_143:\n        /* \"#utility.yul\":2041:2042   */\n      0x00\n        /* \"#utility.yul\":2066:2119   */\n      tag_145\n        /* \"#utility.yul\":2111:2118   */\n      dup8\n        /* \"#utility.yul\":2102:2108   */\n      dup3\n        /* \"#utility.yul\":2091:2100   */\n      dup9\n        /* \"#utility.yul\":2087:2109   */\n      add\n        /* \"#utility.yul\":2066:2119   */\n      tag_129\n      jump\t// in\n    tag_145:\n        /* \"#utility.yul\":2056:2119   */\n      swap5\n      pop\n        /* \"#utility.yul\":2012:2129   */\n      pop\n        /* \"#utility.yul\":2168:2170   */\n      0x20\n        /* \"#utility.yul\":2194:2247   */\n      tag_146\n        /* \"#utility.yul\":2239:2246   */\n      dup8\n        /* \"#utility.yul\":2230:2236   */\n      dup3\n        /* \"#utility.yul\":2219:2228   */\n      dup9\n        /* \"#utility.yul\":2215:2237   */\n      add\n        /* \"#utility.yul\":2194:2247   */\n      tag_129\n      jump\t// in\n    tag_146:\n        /* \"#utility.yul\":2184:2247   */\n      swap4\n      pop\n        /* \"#utility.yul\":2139:2257   */\n      pop\n        /* \"#utility.yul\":2296:2298   */\n      0x40\n        /* \"#utility.yul\":2322:2375   */\n      tag_147\n        /* \"#utility.yul\":2367:2374   */\n      dup8\n        /* \"#utility.yul\":2358:2364   */\n      dup3\n        /* \"#utility.yul\":2347:2356   */\n      dup9\n        /* \"#utility.yul\":2343:2365   */\n      add\n        /* \"#utility.yul\":2322:2375   */\n      tag_119\n      jump\t// in\n    tag_147:\n        /* \"#utility.yul\":2312:2375   */\n      swap3\n      pop\n        /* \"#utility.yul\":2267:2385   */\n      pop\n        /* \"#utility.yul\":2452:2454   */\n      0x60\n        /* \"#utility.yul\":2441:2450   */\n      dup6\n        /* \"#utility.yul\":2437:2455   */\n      add\n        /* \"#utility.yul\":2424:2456   */\n      calldataload\n        /* \"#utility.yul\":2483:2501   */\n      0xffffffffffffffff\n        /* \"#utility.yul\":2475:2481   */\n      dup2\n        /* \"#utility.yul\":2472:2502   */\n      gt\n        /* \"#utility.yul\":2469:2586   */\n      iszero\n      tag_148\n      jumpi\n        /* \"#utility.yul\":2505:2584   */\n      tag_149\n      tag_150\n      jump\t// in\n    tag_149:\n        /* \"#utility.yul\":2469:2586   */\n    tag_148:\n        /* \"#utility.yul\":2610:2673   */\n      tag_151\n        /* \"#utility.yul\":2665:2672   */\n      dup8\n        /* \"#utility.yul\":2656:2662   */\n      dup3\n        /* \"#utility.yul\":2645:2654   */\n      dup9\n        /* \"#utility.yul\":2641:2663   */\n      add\n        /* \"#utility.yul\":2610:2673   */\n      tag_123\n      jump\t// in\n    tag_151:\n        /* \"#utility.yul\":2600:2673   */\n      swap2\n      pop\n        /* \"#utility.yul\":2395:2683   */\n      pop\n        /* \"#utility.yul\":1745:2690   */\n      swap3\n      swap6\n      swap2\n      swap5\n      pop\n      swap3\n      pop\n      jump\t// out\n        /* \"#utility.yul\":2696:2814   */\n    tag_152:\n        /* \"#utility.yul\":2783:2807   */\n      tag_154\n        /* \"#utility.yul\":2801:2806   */\n      dup2\n        /* \"#utility.yul\":2783:2807   */\n      tag_155\n      jump\t// in\n    tag_154:\n        /* \"#utility.yul\":2778:2781   */\n      dup3\n        /* \"#utility.yul\":2771:2808   */\n      mstore\n        /* \"#utility.yul\":2696:2814   */\n      pop\n      pop\n      jump\t// out\n        /* \"#utility.yul\":2820:2977   */\n    tag_156:\n        /* \"#utility.yul\":2925:2970   */\n      tag_158\n        /* \"#utility.yul\":2945:2969   */\n      tag_159\n        /* \"#utility.yul\":2963:2968   */\n      dup3\n        /* \"#utility.yul\":2945:2969   */\n      tag_155\n      jump\t// in\n    tag_159:\n        /* \"#utility.yul\":2925:2970   */\n      tag_160\n      jump\t// in\n    tag_158:\n        /* \"#utility.yul\":2920:2923   */\n      dup3\n        /* \"#utility.yul\":2913:2971   */\n      mstore\n        /* \"#utility.yul\":2820:2977   */\n      pop\n      pop\n      jump\t// out\n        /* \"#utility.yul\":2983:3092   */\n    tag_161:\n        /* \"#utility.yul\":3064:3085   */\n      tag_163\n        /* \"#utility.yul\":3079:3084   */\n      dup2\n        /* \"#utility.yul\":3064:3085   */\n      tag_164\n      jump\t// in\n    tag_163:\n        /* \"#utility.yul\":3059:3062   */\n      dup3\n        /* \"#utility.yul\":3052:3086   */\n      mstore\n        /* \"#utility.yul\":2983:3092   */\n      pop\n      pop\n      jump\t// out\n        /* \"#utility.yul\":3098:3462   */\n    tag_165:\n        /* \"#utility.yul\":3186:3189   */\n      0x00\n        /* \"#utility.yul\":3214:3253   */\n      tag_167\n        /* \"#utility.yul\":3247:3252   */\n      dup3\n        /* \"#utility.yul\":3214:3253   */\n      tag_168\n      jump\t// in\n    tag_167:\n        /* \"#utility.yul\":3269:3340   */\n      tag_169\n        /* \"#utility.yul\":3333:3339   */\n      dup2\n        /* \"#utility.yul\":3328:3331   */\n      dup6\n        /* \"#utility.yul\":3269:3340   */\n      tag_170\n      jump\t// in\n    tag_169:\n        /* \"#utility.yul\":3262:3340   */\n      swap4\n      pop\n        /* \"#utility.yul\":3349:3401   */\n      tag_171\n        /* \"#utility.yul\":3394:3400   */\n      dup2\n        /* \"#utility.yul\":3389:3392   */\n      dup6\n        /* \"#utility.yul\":3382:3386   */\n      0x20\n        /* \"#utility.yul\":3375:3380   */\n      dup7\n        /* \"#utility.yul\":3371:3387   */\n      add\n        /* \"#utility.yul\":3349:3401   */\n      tag_172\n      jump\t// in\n    tag_171:\n        /* \"#utility.yul\":3426:3455   */\n      tag_173\n        /* \"#utility.yul\":3448:3454   */\n      dup2\n        /* \"#utility.yul\":3426:3455   */\n      tag_174\n      jump\t// in\n    tag_173:\n        /* \"#utility.yul\":3421:3424   */\n      dup5\n        /* \"#utility.yul\":3417:3456   */\n      add\n        /* \"#utility.yul\":3410:3456   */\n      swap2\n      pop\n        /* \"#utility.yul\":3190:3462   */\n      pop\n        /* \"#utility.yul\":3098:3462   */\n      swap3\n      swap2\n      pop\n      pop\n      jump\t// out\n        /* \"#utility.yul\":3468:3845   */\n    tag_175:\n        /* \"#utility.yul\":3574:3577   */\n      0x00\n        /* \"#utility.yul\":3602:3641   */\n      tag_177\n        /* \"#utility.yul\":3635:3640   */\n      dup3\n        /* \"#utility.yul\":3602:3641   */\n      tag_168\n      jump\t// in\n    tag_177:\n        /* \"#utility.yul\":3657:3746   */\n      tag_178\n        /* \"#utility.yul\":3739:3745   */\n      dup2\n        /* \"#utility.yul\":3734:3737   */\n      dup6\n        /* \"#utility.yul\":3657:3746   */\n      tag_179\n      jump\t// in\n    tag_178:\n        /* \"#utility.yul\":3650:3746   */\n      swap4\n      pop\n        /* \"#utility.yul\":3755:3807   */\n      tag_180\n        /* \"#utility.yul\":3800:3806   */\n      dup2\n        /* \"#utility.yul\":3795:3798   */\n      dup6\n        /* \"#utility.yul\":3788:3792   */\n      0x20\n        /* \"#utility.yul\":3781:3786   */\n      dup7\n        /* \"#utility.yul\":3777:3793   */\n      add\n        /* \"#utility.yul\":3755:3807   */\n      tag_172\n      jump\t// in\n    tag_180:\n        /* \"#utility.yul\":3832:3838   */\n      dup1\n        /* \"#utility.yul\":3827:3830   */\n      dup5\n        /* \"#utility.yul\":3823:3839   */\n      add\n        /* \"#utility.yul\":3816:3839   */\n      swap2\n      pop\n        /* \"#utility.yul\":3578:3845   */\n      pop\n        /* \"#utility.yul\":3468:3845   */\n      swap3\n      swap2\n      pop\n      pop\n      jump\t// out\n        /* \"#utility.yul\":3851:4217   */\n    tag_181:\n        /* \"#utility.yul\":3993:3996   */\n      0x00\n        /* \"#utility.yul\":4014:4081   */\n      tag_183\n        /* \"#utility.yul\":4078:4080   */\n      0x26\n        /* \"#utility.yul\":4073:4076   */\n      dup4\n        /* \"#utility.yul\":4014:4081   */\n      tag_170\n      jump\t// in\n    tag_183:\n        /* \"#utility.yul\":4007:4081   */\n      swap2\n      pop\n        /* \"#utility.yul\":4090:4183   */\n      tag_184\n        /* \"#utility.yul\":4179:4182   */\n      dup3\n        /* \"#utility.yul\":4090:4183   */\n      tag_185\n      jump\t// in\n    tag_184:\n        /* \"#utility.yul\":4208:4210   */\n      0x40\n        /* \"#utility.yul\":4203:4206   */\n      dup3\n        /* \"#utility.yul\":4199:4211   */\n      add\n        /* \"#utility.yul\":4192:4211   */\n      swap1\n      pop\n        /* \"#utility.yul\":3851:4217   */\n      swap2\n      swap1\n      pop\n      jump\t// out\n        /* \"#utility.yul\":4223:4589   */\n    tag_186:\n        /* \"#utility.yul\":4365:4368   */\n      0x00\n        /* \"#utility.yul\":4386:4453   */\n      tag_188\n        /* \"#utility.yul\":4450:4452   */\n      0x14\n        /* \"#utility.yul\":4445:4448   */\n      dup4\n        /* \"#utility.yul\":4386:4453   */\n      tag_170\n      jump\t// in\n    tag_188:\n        /* \"#utility.yul\":4379:4453   */\n      swap2\n      pop\n        /* \"#utility.yul\":4462:4555   */\n      tag_189\n        /* \"#utility.yul\":4551:4554   */\n      dup3\n        /* \"#utility.yul\":4462:4555   */\n      tag_190\n      jump\t// in\n    tag_189:\n        /* \"#utility.yul\":4580:4582   */\n      0x20\n        /* \"#utility.yul\":4575:4578   */\n      dup3\n        /* \"#utility.yul\":4571:4583   */\n      add\n        /* \"#utility.yul\":4564:4583   */\n      swap1\n      pop\n        /* \"#utility.yul\":4223:4589   */\n      swap2\n      swap1\n      pop\n      jump\t// out\n        /* \"#utility.yul\":4595:4961   */\n    tag_191:\n        /* \"#utility.yul\":4737:4740   */\n      0x00\n        /* \"#utility.yul\":4758:4825   */\n      tag_193\n        /* \"#utility.yul\":4822:4824   */\n      0x20\n        /* \"#utility.yul\":4817:4820   */\n      dup4\n        /* \"#utility.yul\":4758:4825   */\n      tag_170\n      jump\t// in\n    tag_193:\n        /* \"#utility.yul\":4751:4825   */\n      swap2\n      pop\n        /* \"#utility.yul\":4834:4927   */\n      tag_194\n        /* \"#utility.yul\":4923:4926   */\n      dup3\n        /* \"#utility.yul\":4834:4927   */\n      tag_195\n      jump\t// in\n    tag_194:\n        /* \"#utility.yul\":4952:4954   */\n      0x20\n        /* \"#utility.yul\":4947:4950   */\n      dup3\n        /* \"#utility.yul\":4943:4955   */\n      add\n        /* \"#utility.yul\":4936:4955   */\n      swap1\n      pop\n        /* \"#utility.yul\":4595:4961   */\n      swap2\n      swap1\n      pop\n      jump\t// out\n        /* \"#utility.yul\":4967:5333   */\n    tag_196:\n        /* \"#utility.yul\":5109:5112   */\n      0x00\n        /* \"#utility.yul\":5130:5197   */\n      tag_198\n        /* \"#utility.yul\":5194:5196   */\n      0x1b\n        /* \"#utility.yul\":5189:5192   */\n      dup4\n        /* \"#utility.yul\":5130:5197   */\n      tag_170\n      jump\t// in\n    tag_198:\n        /* \"#utility.yul\":5123:5197   */\n      swap2\n      pop\n        /* \"#utility.yul\":5206:5299   */\n      tag_199\n        /* \"#utility.yul\":5295:5298   */\n      dup3\n        /* \"#utility.yul\":5206:5299   */\n      tag_200\n      jump\t// in\n    tag_199:\n        /* \"#utility.yul\":5324:5326   */\n      0x20\n        /* \"#utility.yul\":5319:5322   */\n      dup3\n        /* \"#utility.yul\":5315:5327   */\n      add\n        /* \"#utility.yul\":5308:5327   */\n      swap1\n      pop\n        /* \"#utility.yul\":4967:5333   */\n      swap2\n      swap1\n      pop\n      jump\t// out\n        /* \"#utility.yul\":5339:5705   */\n    tag_201:\n        /* \"#utility.yul\":5481:5484   */\n      0x00\n        /* \"#utility.yul\":5502:5569   */\n      tag_203\n        /* \"#utility.yul\":5566:5568   */\n      0x2b\n        /* \"#utility.yul\":5561:5564   */\n      dup4\n        /* \"#utility.yul\":5502:5569   */\n      tag_170\n      jump\t// in\n    tag_203:\n        /* \"#utility.yul\":5495:5569   */\n      swap2\n      pop\n        /* \"#utility.yul\":5578:5671   */\n      tag_204\n        /* \"#utility.yul\":5667:5670   */\n      dup3\n        /* \"#utility.yul\":5578:5671   */\n      tag_205\n      jump\t// in\n    tag_204:\n        /* \"#utility.yul\":5696:5698   */\n      0x40\n        /* \"#utility.yul\":5691:5694   */\n      dup3\n        /* \"#utility.yul\":5687:5699   */\n      add\n        /* \"#utility.yul\":5680:5699   */\n      swap1\n      pop\n        /* \"#utility.yul\":5339:5705   */\n      swap2\n      swap1\n      pop\n      jump\t// out\n        /* \"#utility.yul\":5711:5829   */\n    tag_206:\n        /* \"#utility.yul\":5798:5822   */\n      tag_208\n        /* \"#utility.yul\":5816:5821   */\n      dup2\n        /* \"#utility.yul\":5798:5822   */\n      tag_209\n      jump\t// in\n    tag_208:\n        /* \"#utility.yul\":5793:5796   */\n      dup3\n        /* \"#utility.yul\":5786:5823   */\n      mstore\n        /* \"#utility.yul\":5711:5829   */\n      pop\n      pop\n      jump\t// out\n        /* \"#utility.yul\":5835:5992   */\n    tag_210:\n        /* \"#utility.yul\":5940:5985   */\n      tag_212\n        /* \"#utility.yul\":5960:5984   */\n      tag_213\n        /* \"#utility.yul\":5978:5983   */\n      dup3\n        /* \"#utility.yul\":5960:5984   */\n      tag_209\n      jump\t// in\n    tag_213:\n        /* \"#utility.yul\":5940:5985   */\n      tag_214\n      jump\t// in\n    tag_212:\n        /* \"#utility.yul\":5935:5938   */\n      dup3\n        /* \"#utility.yul\":5928:5986   */\n      mstore\n        /* \"#utility.yul\":5835:5992   */\n      pop\n      pop\n      jump\t// out\n        /* \"#utility.yul\":5998:6555   */\n    tag_94:\n        /* \"#utility.yul\":6186:6189   */\n      0x00\n        /* \"#utility.yul\":6201:6276   */\n      tag_216\n        /* \"#utility.yul\":6272:6275   */\n      dup3\n        /* \"#utility.yul\":6263:6269   */\n      dup7\n        /* \"#utility.yul\":6201:6276   */\n      tag_156\n      jump\t// in\n    tag_216:\n        /* \"#utility.yul\":6301:6303   */\n      0x14\n        /* \"#utility.yul\":6296:6299   */\n      dup3\n        /* \"#utility.yul\":6292:6304   */\n      add\n        /* \"#utility.yul\":6285:6304   */\n      swap2\n      pop\n        /* \"#utility.yul\":6314:6389   */\n      tag_217\n        /* \"#utility.yul\":6385:6388   */\n      dup3\n        /* \"#utility.yul\":6376:6382   */\n      dup6\n        /* \"#utility.yul\":6314:6389   */\n      tag_210\n      jump\t// in\n    tag_217:\n        /* \"#utility.yul\":6414:6416   */\n      0x20\n        /* \"#utility.yul\":6409:6412   */\n      dup3\n        /* \"#utility.yul\":6405:6417   */\n      add\n        /* \"#utility.yul\":6398:6417   */\n      swap2\n      pop\n        /* \"#utility.yul\":6434:6529   */\n      tag_218\n        /* \"#utility.yul\":6525:6528   */\n      dup3\n        /* \"#utility.yul\":6516:6522   */\n      dup5\n        /* \"#utility.yul\":6434:6529   */\n      tag_175\n      jump\t// in\n    tag_218:\n        /* \"#utility.yul\":6427:6529   */\n      swap2\n      pop\n        /* \"#utility.yul\":6546:6549   */\n      dup2\n        /* \"#utility.yul\":6539:6549   */\n      swap1\n      pop\n        /* \"#utility.yul\":5998:6555   */\n      swap5\n      swap4\n      pop\n      pop\n      pop\n      pop\n      jump\t// out\n        /* \"#utility.yul\":6561:6783   */\n    tag_20:\n        /* \"#utility.yul\":6654:6658   */\n      0x00\n        /* \"#utility.yul\":6692:6694   */\n      0x20\n        /* \"#utility.yul\":6681:6690   */\n      dup3\n        /* \"#utility.yul\":6677:6695   */\n      add\n        /* \"#utility.yul\":6669:6695   */\n      swap1\n      pop\n        /* \"#utility.yul\":6705:6776   */\n      tag_220\n        /* \"#utility.yul\":6773:6774   */\n      0x00\n        /* \"#utility.yul\":6762:6771   */\n      dup4\n        /* \"#utility.yul\":6758:6775   */\n      add\n        /* \"#utility.yul\":6749:6755   */\n      dup5\n        /* \"#utility.yul\":6705:6776   */\n      tag_152\n      jump\t// in\n    tag_220:\n        /* \"#utility.yul\":6561:6783   */\n      swap3\n      swap2\n      pop\n      pop\n      jump\t// out\n        /* \"#utility.yul\":6789:6999   */\n    tag_31:\n        /* \"#utility.yul\":6876:6880   */\n      0x00\n        /* \"#utility.yul\":6914:6916   */\n      0x20\n        /* \"#utility.yul\":6903:6912   */\n      dup3\n        /* \"#utility.yul\":6899:6917   */\n      add\n        /* \"#utility.yul\":6891:6917   */\n      swap1\n      pop\n        /* \"#utility.yul\":6927:6992   */\n      tag_222\n        /* \"#utility.yul\":6989:6990   */\n      0x00\n        /* \"#utility.yul\":6978:6987   */\n      dup4\n        /* \"#utility.yul\":6974:6991   */\n      add\n        /* \"#utility.yul\":6965:6971   */\n      dup5\n        /* \"#utility.yul\":6927:6992   */\n      tag_161\n      jump\t// in\n    tag_222:\n        /* \"#utility.yul\":6789:6999   */\n      swap3\n      swap2\n      pop\n      pop\n      jump\t// out\n        /* \"#utility.yul\":7005:7424   */\n    tag_88:\n        /* \"#utility.yul\":7171:7175   */\n      0x00\n        /* \"#utility.yul\":7209:7211   */\n      0x20\n        /* \"#utility.yul\":7198:7207   */\n      dup3\n        /* \"#utility.yul\":7194:7212   */\n      add\n        /* \"#utility.yul\":7186:7212   */\n      swap1\n      pop\n        /* \"#utility.yul\":7258:7267   */\n      dup2\n        /* \"#utility.yul\":7252:7256   */\n      dup2\n        /* \"#utility.yul\":7248:7268   */\n      sub\n        /* \"#utility.yul\":7244:7245   */\n      0x00\n        /* \"#utility.yul\":7233:7242   */\n      dup4\n        /* \"#utility.yul\":7229:7246   */\n      add\n        /* \"#utility.yul\":7222:7269   */\n      mstore\n        /* \"#utility.yul\":7286:7417   */\n      tag_224\n        /* \"#utility.yul\":7412:7416   */\n      dup2\n        /* \"#utility.yul\":7286:7417   */\n      tag_181\n      jump\t// in\n    tag_224:\n        /* \"#utility.yul\":7278:7417   */\n      swap1\n      pop\n        /* \"#utility.yul\":7005:7424   */\n      swap2\n      swap1\n      pop\n      jump\t// out\n        /* \"#utility.yul\":7430:7849   */\n    tag_61:\n        /* \"#utility.yul\":7596:7600   */\n      0x00\n        /* \"#utility.yul\":7634:7636   */\n      0x20\n        /* \"#utility.yul\":7623:7632   */\n      dup3\n        /* \"#utility.yul\":7619:7637   */\n      add\n        /* \"#utility.yul\":7611:7637   */\n      swap1\n      pop\n        /* \"#utility.yul\":7683:7692   */\n      dup2\n        /* \"#utility.yul\":7677:7681   */\n      dup2\n        /* \"#utility.yul\":7673:7693   */\n      sub\n        /* \"#utility.yul\":7669:7670   */\n      0x00\n        /* \"#utility.yul\":7658:7667   */\n      dup4\n        /* \"#utility.yul\":7654:7671   */\n      add\n        /* \"#utility.yul\":7647:7694   */\n      mstore\n        /* \"#utility.yul\":7711:7842   */\n      tag_226\n        /* \"#utility.yul\":7837:7841   */\n      dup2\n        /* \"#utility.yul\":7711:7842   */\n      tag_186\n      jump\t// in\n    tag_226:\n        /* \"#utility.yul\":7703:7842   */\n      swap1\n      pop\n        /* \"#utility.yul\":7430:7849   */\n      swap2\n      swap1\n      pop\n      jump\t// out\n        /* \"#utility.yul\":7855:8274   */\n    tag_51:\n        /* \"#utility.yul\":8021:8025   */\n      0x00\n        /* \"#utility.yul\":8059:8061   */\n      0x20\n        /* \"#utility.yul\":8048:8057   */\n      dup3\n        /* \"#utility.yul\":8044:8062   */\n      add\n        /* \"#utility.yul\":8036:8062   */\n      swap1\n      pop\n        /* \"#utility.yul\":8108:8117   */\n      dup2\n        /* \"#utility.yul\":8102:8106   */\n      dup2\n        /* \"#utility.yul\":8098:8118   */\n      sub\n        /* \"#utility.yul\":8094:8095   */\n      0x00\n        /* \"#utility.yul\":8083:8092   */\n      dup4\n        /* \"#utility.yul\":8079:8096   */\n      add\n        /* \"#utility.yul\":8072:8119   */\n      mstore\n        /* \"#utility.yul\":8136:8267   */\n      tag_228\n        /* \"#utility.yul\":8262:8266   */\n      dup2\n        /* \"#utility.yul\":8136:8267   */\n      tag_191\n      jump\t// in\n    tag_228:\n        /* \"#utility.yul\":8128:8267   */\n      swap1\n      pop\n        /* \"#utility.yul\":7855:8274   */\n      swap2\n      swap1\n      pop\n      jump\t// out\n        /* \"#utility.yul\":8280:8699   */\n    tag_66:\n        /* \"#utility.yul\":8446:8450   */\n      0x00\n        /* \"#utility.yul\":8484:8486   */\n      0x20\n        /* \"#utility.yul\":8473:8482   */\n      dup3\n        /* \"#utility.yul\":8469:8487   */\n      add\n        /* \"#utility.yul\":8461:8487   */\n      swap1\n      pop\n        /* \"#utility.yul\":8533:8542   */\n      dup2\n        /* \"#utility.yul\":8527:8531   */\n      dup2\n        /* \"#utility.yul\":8523:8543   */\n      sub\n        /* \"#utility.yul\":8519:8520   */\n      0x00\n        /* \"#utility.yul\":8508:8517   */\n      dup4\n        /* \"#utility.yul\":8504:8521   */\n      add\n        /* \"#utility.yul\":8497:8544   */\n      mstore\n        /* \"#utility.yul\":8561:8692   */\n      tag_230\n        /* \"#utility.yul\":8687:8691   */\n      dup2\n        /* \"#utility.yul\":8561:8692   */\n      tag_196\n      jump\t// in\n    tag_230:\n        /* \"#utility.yul\":8553:8692   */\n      swap1\n      pop\n        /* \"#utility.yul\":8280:8699   */\n      swap2\n      swap1\n      pop\n      jump\t// out\n        /* \"#utility.yul\":8705:9124   */\n    tag_44:\n        /* \"#utility.yul\":8871:8875   */\n      0x00\n        /* \"#utility.yul\":8909:8911   */\n      0x20\n        /* \"#utility.yul\":8898:8907   */\n      dup3\n        /* \"#utility.yul\":8894:8912   */\n      add\n        /* \"#utility.yul\":8886:8912   */\n      swap1\n      pop\n        /* \"#utility.yul\":8958:8967   */\n      dup2\n        /* \"#utility.yul\":8952:8956   */\n      dup2\n        /* \"#utility.yul\":8948:8968   */\n      sub\n        /* \"#utility.yul\":8944:8945   */\n      0x00\n        /* \"#utility.yul\":8933:8942   */\n      dup4\n        /* \"#utility.yul\":8929:8946   */\n      add\n        /* \"#utility.yul\":8922:8969   */\n      mstore\n        /* \"#utility.yul\":8986:9117   */\n      tag_232\n        /* \"#utility.yul\":9112:9116   */\n      dup2\n        /* \"#utility.yul\":8986:9117   */\n      tag_201\n      jump\t// in\n    tag_232:\n        /* \"#utility.yul\":8978:9117   */\n      swap1\n      pop\n        /* \"#utility.yul\":8705:9124   */\n      swap2\n      swap1\n      pop\n      jump\t// out\n        /* \"#utility.yul\":9130:9352   */\n    tag_26:\n        /* \"#utility.yul\":9223:9227   */\n      0x00\n        /* \"#utility.yul\":9261:9263   */\n      0x20\n        /* \"#utility.yul\":9250:9259   */\n      dup3\n        /* \"#utility.yul\":9246:9264   */\n      add\n        /* \"#utility.yul\":9238:9264   */\n      swap1\n      pop\n        /* \"#utility.yul\":9274:9345   */\n      tag_234\n        /* \"#utility.yul\":9342:9343   */\n      0x00\n        /* \"#utility.yul\":9331:9340   */\n      dup4\n        /* \"#utility.yul\":9327:9344   */\n      add\n        /* \"#utility.yul\":9318:9324   */\n      dup5\n        /* \"#utility.yul\":9274:9345   */\n      tag_206\n      jump\t// in\n    tag_234:\n        /* \"#utility.yul\":9130:9352   */\n      swap3\n      swap2\n      pop\n      pop\n      jump\t// out\n        /* \"#utility.yul\":9358:10002   */\n    tag_72:\n        /* \"#utility.yul\":9555:9559   */\n      0x00\n        /* \"#utility.yul\":9593:9596   */\n      0x80\n        /* \"#utility.yul\":9582:9591   */\n      dup3\n        /* \"#utility.yul\":9578:9597   */\n      add\n        /* \"#utility.yul\":9570:9597   */\n      swap1\n      pop\n        /* \"#utility.yul\":9607:9678   */\n      tag_236\n        /* \"#utility.yul\":9675:9676   */\n      0x00\n        /* \"#utility.yul\":9664:9673   */\n      dup4\n        /* \"#utility.yul\":9660:9677   */\n      add\n        /* \"#utility.yul\":9651:9657   */\n      dup8\n        /* \"#utility.yul\":9607:9678   */\n      tag_206\n      jump\t// in\n    tag_236:\n        /* \"#utility.yul\":9688:9760   */\n      tag_237\n        /* \"#utility.yul\":9756:9758   */\n      0x20\n        /* \"#utility.yul\":9745:9754   */\n      dup4\n        /* \"#utility.yul\":9741:9759   */\n      add\n        /* \"#utility.yul\":9732:9738   */\n      dup7\n        /* \"#utility.yul\":9688:9760   */\n      tag_152\n      jump\t// in\n    tag_237:\n        /* \"#utility.yul\":9770:9842   */\n      tag_238\n        /* \"#utility.yul\":9838:9840   */\n      0x40\n        /* \"#utility.yul\":9827:9836   */\n      dup4\n        /* \"#utility.yul\":9823:9841   */\n      add\n        /* \"#utility.yul\":9814:9820   */\n      dup6\n        /* \"#utility.yul\":9770:9842   */\n      tag_206\n      jump\t// in\n    tag_238:\n        /* \"#utility.yul\":9889:9898   */\n      dup2\n        /* \"#utility.yul\":9883:9887   */\n      dup2\n        /* \"#utility.yul\":9879:9899   */\n      sub\n        /* \"#utility.yul\":9874:9876   */\n      0x60\n        /* \"#utility.yul\":9863:9872   */\n      dup4\n        /* \"#utility.yul\":9859:9877   */\n      add\n        /* \"#utility.yul\":9852:9900   */\n      mstore\n        /* \"#utility.yul\":9917:9995   */\n      tag_239\n        /* \"#utility.yul\":9990:9994   */\n      dup2\n        /* \"#utility.yul\":9981:9987   */\n      dup5\n        /* \"#utility.yul\":9917:9995   */\n      tag_165\n      jump\t// in\n    tag_239:\n        /* \"#utility.yul\":9909:9995   */\n      swap1\n      pop\n        /* \"#utility.yul\":9358:10002   */\n      swap6\n      swap5\n      pop\n      pop\n      pop\n      pop\n      pop\n      jump\t// out\n        /* \"#utility.yul\":10008:10973   */\n    tag_36:\n        /* \"#utility.yul\":10283:10287   */\n      0x00\n        /* \"#utility.yul\":10321:10324   */\n      0xe0\n        /* \"#utility.yul\":10310:10319   */\n      dup3\n        /* \"#utility.yul\":10306:10325   */\n      add\n        /* \"#utility.yul\":10298:10325   */\n      swap1\n      pop\n        /* \"#utility.yul\":10335:10406   */\n      tag_241\n        /* \"#utility.yul\":10403:10404   */\n      0x00\n        /* \"#utility.yul\":10392:10401   */\n      dup4\n        /* \"#utility.yul\":10388:10405   */\n      add\n        /* \"#utility.yul\":10379:10385   */\n      dup11\n        /* \"#utility.yul\":10335:10406   */\n      tag_206\n      jump\t// in\n    tag_241:\n        /* \"#utility.yul\":10416:10488   */\n      tag_242\n        /* \"#utility.yul\":10484:10486   */\n      0x20\n        /* \"#utility.yul\":10473:10482   */\n      dup4\n        /* \"#utility.yul\":10469:10487   */\n      add\n        /* \"#utility.yul\":10460:10466   */\n      dup10\n        /* \"#utility.yul\":10416:10488   */\n      tag_206\n      jump\t// in\n    tag_242:\n        /* \"#utility.yul\":10498:10570   */\n      tag_243\n        /* \"#utility.yul\":10566:10568   */\n      0x40\n        /* \"#utility.yul\":10555:10564   */\n      dup4\n        /* \"#utility.yul\":10551:10569   */\n      add\n        /* \"#utility.yul\":10542:10548   */\n      dup9\n        /* \"#utility.yul\":10498:10570   */\n      tag_206\n      jump\t// in\n    tag_243:\n        /* \"#utility.yul\":10580:10652   */\n      tag_244\n        /* \"#utility.yul\":10648:10650   */\n      0x60\n        /* \"#utility.yul\":10637:10646   */\n      dup4\n        /* \"#utility.yul\":10633:10651   */\n      add\n        /* \"#utility.yul\":10624:10630   */\n      dup8\n        /* \"#utility.yul\":10580:10652   */\n      tag_152\n      jump\t// in\n    tag_244:\n        /* \"#utility.yul\":10700:10709   */\n      dup2\n        /* \"#utility.yul\":10694:10698   */\n      dup2\n        /* \"#utility.yul\":10690:10710   */\n      sub\n        /* \"#utility.yul\":10684:10687   */\n      0x80\n        /* \"#utility.yul\":10673:10682   */\n      dup4\n        /* \"#utility.yul\":10669:10688   */\n      add\n        /* \"#utility.yul\":10662:10711   */\n      mstore\n        /* \"#utility.yul\":10728:10806   */\n      tag_245\n        /* \"#utility.yul\":10801:10805   */\n      dup2\n        /* \"#utility.yul\":10792:10798   */\n      dup7\n        /* \"#utility.yul\":10728:10806   */\n      tag_165\n      jump\t// in\n    tag_245:\n        /* \"#utility.yul\":10720:10806   */\n      swap1\n      pop\n        /* \"#utility.yul\":10816:10883   */\n      tag_246\n        /* \"#utility.yul\":10878:10881   */\n      0xa0\n        /* \"#utility.yul\":10867:10876   */\n      dup4\n        /* \"#utility.yul\":10863:10882   */\n      add\n        /* \"#utility.yul\":10854:10860   */\n      dup6\n        /* \"#utility.yul\":10816:10883   */\n      tag_161\n      jump\t// in\n    tag_246:\n        /* \"#utility.yul\":10893:10966   */\n      tag_247\n        /* \"#utility.yul\":10961:10964   */\n      0xc0\n        /* \"#utility.yul\":10950:10959   */\n      dup4\n        /* \"#utility.yul\":10946:10965   */\n      add\n        /* \"#utility.yul\":10937:10943   */\n      dup5\n        /* \"#utility.yul\":10893:10966   */\n      tag_206\n      jump\t// in\n    tag_247:\n        /* \"#utility.yul\":10008:10973   */\n      swap9\n      swap8\n      pop\n      pop\n      pop\n      pop\n      pop\n      pop\n      pop\n      pop\n      jump\t// out\n        /* \"#utility.yul\":10979:11108   */\n    tag_113:\n        /* \"#utility.yul\":11013:11019   */\n      0x00\n        /* \"#utility.yul\":11040:11060   */\n      tag_249\n      tag_250\n      jump\t// in\n    tag_249:\n        /* \"#utility.yul\":11030:11060   */\n      swap1\n      pop\n        /* \"#utility.yul\":11069:11102   */\n      tag_251\n        /* \"#utility.yul\":11097:11101   */\n      dup3\n        /* \"#utility.yul\":11089:11095   */\n      dup3\n        /* \"#utility.yul\":11069:11102   */\n      tag_252\n      jump\t// in\n    tag_251:\n        /* \"#utility.yul\":10979:11108   */\n      swap2\n      swap1\n      pop\n      jump\t// out\n        /* \"#utility.yul\":11114:11189   */\n    tag_250:\n        /* \"#utility.yul\":11147:11153   */\n      0x00\n        /* \"#utility.yul\":11180:11182   */\n      0x40\n        /* \"#utility.yul\":11174:11183   */\n      mload\n        /* \"#utility.yul\":11164:11183   */\n      swap1\n      pop\n        /* \"#utility.yul\":11114:11189   */\n      swap1\n      jump\t// out\n        /* \"#utility.yul\":11195:11503   */\n    tag_112:\n        /* \"#utility.yul\":11257:11261   */\n      0x00\n        /* \"#utility.yul\":11347:11365   */\n      0xffffffffffffffff\n        /* \"#utility.yul\":11339:11345   */\n      dup3\n        /* \"#utility.yul\":11336:11366   */\n      gt\n        /* \"#utility.yul\":11333:11389   */\n      iszero\n      tag_255\n      jumpi\n        /* \"#utility.yul\":11369:11387   */\n      tag_256\n      tag_257\n      jump\t// in\n    tag_256:\n        /* \"#utility.yul\":11333:11389   */\n    tag_255:\n        /* \"#utility.yul\":11407:11436   */\n      tag_258\n        /* \"#utility.yul\":11429:11435   */\n      dup3\n        /* \"#utility.yul\":11407:11436   */\n      tag_174\n      jump\t// in\n    tag_258:\n        /* \"#utility.yul\":11399:11436   */\n      swap1\n      pop\n        /* \"#utility.yul\":11491:11495   */\n      0x20\n        /* \"#utility.yul\":11485:11489   */\n      dup2\n        /* \"#utility.yul\":11481:11496   */\n      add\n        /* \"#utility.yul\":11473:11496   */\n      swap1\n      pop\n        /* \"#utility.yul\":11195:11503   */\n      swap2\n      swap1\n      pop\n      jump\t// out\n        /* \"#utility.yul\":11509:11608   */\n    tag_168:\n        /* \"#utility.yul\":11561:11567   */\n      0x00\n        /* \"#utility.yul\":11595:11600   */\n      dup2\n        /* \"#utility.yul\":11589:11601   */\n      mload\n        /* \"#utility.yul\":11579:11601   */\n      swap1\n      pop\n        /* \"#utility.yul\":11509:11608   */\n      swap2\n      swap1\n      pop\n      jump\t// out\n        /* \"#utility.yul\":11614:11783   */\n    tag_170:\n        /* \"#utility.yul\":11698:11709   */\n      0x00\n        /* \"#utility.yul\":11732:11738   */\n      dup3\n        /* \"#utility.yul\":11727:11730   */\n      dup3\n        /* \"#utility.yul\":11720:11739   */\n      mstore\n        /* \"#utility.yul\":11772:11776   */\n      0x20\n        /* \"#utility.yul\":11767:11770   */\n      dup3\n        /* \"#utility.yul\":11763:11777   */\n      add\n        /* \"#utility.yul\":11748:11777   */\n      swap1\n      pop\n        /* \"#utility.yul\":11614:11783   */\n      swap3\n      swap2\n      pop\n      pop\n      jump\t// out\n        /* \"#utility.yul\":11789:11937   */\n    tag_179:\n        /* \"#utility.yul\":11891:11902   */\n      0x00\n        /* \"#utility.yul\":11928:11931   */\n      dup2\n        /* \"#utility.yul\":11913:11931   */\n      swap1\n      pop\n        /* \"#utility.yul\":11789:11937   */\n      swap3\n      swap2\n      pop\n      pop\n      jump\t// out\n        /* \"#utility.yul\":11943:12248   */\n    tag_68:\n        /* \"#utility.yul\":11983:11986   */\n      0x00\n        /* \"#utility.yul\":12002:12022   */\n      tag_263\n        /* \"#utility.yul\":12020:12021   */\n      dup3\n        /* \"#utility.yul\":12002:12022   */\n      tag_209\n      jump\t// in\n    tag_263:\n        /* \"#utility.yul\":11997:12022   */\n      swap2\n      pop\n        /* \"#utility.yul\":12036:12056   */\n      tag_264\n        /* \"#utility.yul\":12054:12055   */\n      dup4\n        /* \"#utility.yul\":12036:12056   */\n      tag_209\n      jump\t// in\n    tag_264:\n        /* \"#utility.yul\":12031:12056   */\n      swap3\n      pop\n        /* \"#utility.yul\":12190:12191   */\n      dup3\n        /* \"#utility.yul\":12122:12188   */\n      0xffffffffffffffffffffffffffffffffffffffffffffffffffffffffffffffff\n        /* \"#utility.yul\":12118:12192   */\n      sub\n        /* \"#utility.yul\":12115:12116   */\n      dup3\n        /* \"#utility.yul\":12112:12193   */\n      gt\n        /* \"#utility.yul\":12109:12216   */\n      iszero\n      tag_265\n      jumpi\n        /* \"#utility.yul\":12196:12214   */\n      tag_266\n      tag_267\n      jump\t// in\n    tag_266:\n        /* \"#utility.yul\":12109:12216   */\n    tag_265:\n        /* \"#utility.yul\":12240:12241   */\n      dup3\n        /* \"#utility.yul\":12237:12238   */\n      dup3\n        /* \"#utility.yul\":12233:12242   */\n      add\n        /* \"#utility.yul\":12226:12242   */\n      swap1\n      pop\n        /* \"#utility.yul\":11943:12248   */\n      swap3\n      swap2\n      pop\n      pop\n      jump\t// out\n        /* \"#utility.yul\":12254:12602   */\n    tag_58:\n        /* \"#utility.yul\":12294:12301   */\n      0x00\n        /* \"#utility.yul\":12317:12337   */\n      tag_269\n        /* \"#utility.yul\":12335:12336   */\n      dup3\n        /* \"#utility.yul\":12317:12337   */\n      tag_209\n      jump\t// in\n    tag_269:\n        /* \"#utility.yul\":12312:12337   */\n      swap2\n      pop\n        /* \"#utility.yul\":12351:12371   */\n      tag_270\n        /* \"#utility.yul\":12369:12370   */\n      dup4\n        /* \"#utility.yul\":12351:12371   */\n      tag_209\n      jump\t// in\n    tag_270:\n        /* \"#utility.yul\":12346:12371   */\n      swap3\n      pop\n        /* \"#utility.yul\":12539:12540   */\n      dup2\n        /* \"#utility.yul\":12471:12537   */\n      0xffffffffffffffffffffffffffffffffffffffffffffffffffffffffffffffff\n        /* \"#utility.yul\":12467:12541   */\n      div\n        /* \"#utility.yul\":12464:12465   */\n      dup4\n        /* \"#utility.yul\":12461:12542   */\n      gt\n        /* \"#utility.yul\":12456:12457   */\n      dup3\n        /* \"#utility.yul\":12449:12458   */\n      iszero\n        /* \"#utility.yul\":12442:12459   */\n      iszero\n        /* \"#utility.yul\":12438:12543   */\n      and\n        /* \"#utility.yul\":12435:12566   */\n      iszero\n      tag_271\n      jumpi\n        /* \"#utility.yul\":12546:12564   */\n      tag_272\n      tag_267\n      jump\t// in\n    tag_272:\n        /* \"#utility.yul\":12435:12566   */\n    tag_271:\n        /* \"#utility.yul\":12594:12595   */\n      dup3\n        /* \"#utility.yul\":12591:12592   */\n      dup3\n        /* \"#utility.yul\":12587:12596   */\n      mul\n        /* \"#utility.yul\":12576:12596   */\n      swap1\n      pop\n        /* \"#utility.yul\":12254:12602   */\n      swap3\n      swap2\n      pop\n      pop\n      jump\t// out\n        /* \"#utility.yul\":12608:12704   */\n    tag_155:\n        /* \"#utility.yul\":12645:12652   */\n      0x00\n        /* \"#utility.yul\":12674:12698   */\n      tag_274\n        /* \"#utility.yul\":12692:12697   */\n      dup3\n        /* \"#utility.yul\":12674:12698   */\n      tag_275\n      jump\t// in\n    tag_274:\n        /* \"#utility.yul\":12663:12698   */\n      swap1\n      pop\n        /* \"#utility.yul\":12608:12704   */\n      swap2\n      swap1\n      pop\n      jump\t// out\n        /* \"#utility.yul\":12710:12800   */\n    tag_164:\n        /* \"#utility.yul\":12744:12751   */\n      0x00\n        /* \"#utility.yul\":12787:12792   */\n      dup2\n        /* \"#utility.yul\":12780:12793   */\n      iszero\n        /* \"#utility.yul\":12773:12794   */\n      iszero\n        /* \"#utility.yul\":12762:12794   */\n      swap1\n      pop\n        /* \"#utility.yul\":12710:12800   */\n      swap2\n      swap1\n      pop\n      jump\t// out\n        /* \"#utility.yul\":12806:12932   */\n    tag_275:\n        /* \"#utility.yul\":12843:12850   */\n      0x00\n        /* \"#utility.yul\":12883:12925   */\n      0xffffffffffffffffffffffffffffffffffffffff\n        /* \"#utility.yul\":12876:12881   */\n      dup3\n        /* \"#utility.yul\":12872:12926   */\n      and\n        /* \"#utility.yul\":12861:12926   */\n      swap1\n      pop\n        /* \"#utility.yul\":12806:12932   */\n      swap2\n      swap1\n      pop\n      jump\t// out\n        /* \"#utility.yul\":12938:13015   */\n    tag_209:\n        /* \"#utility.yul\":12975:12982   */\n      0x00\n        /* \"#utility.yul\":13004:13009   */\n      dup2\n        /* \"#utility.yul\":12993:13009   */\n      swap1\n      pop\n        /* \"#utility.yul\":12938:13015   */\n      swap2\n      swap1\n      pop\n      jump\t// out\n        /* \"#utility.yul\":13021:13175   */\n    tag_118:\n        /* \"#utility.yul\":13105:13111   */\n      dup3\n        /* \"#utility.yul\":13100:13103   */\n      dup2\n        /* \"#utility.yul\":13095:13098   */\n      dup4\n        /* \"#utility.yul\":13082:13112   */\n      calldatacopy\n        /* \"#utility.yul\":13167:13168   */\n      0x00\n        /* \"#utility.yul\":13158:13164   */\n      dup4\n        /* \"#utility.yul\":13153:13156   */\n      dup4\n        /* \"#utility.yul\":13149:13165   */\n      add\n        /* \"#utility.yul\":13142:13169   */\n      mstore\n        /* \"#utility.yul\":13021:13175   */\n      pop\n      pop\n      pop\n      jump\t// out\n        /* \"#utility.yul\":13181:13488   */\n    tag_172:\n        /* \"#utility.yul\":13249:13250   */\n      0x00\n        /* \"#utility.yul\":13259:13372   */\n    tag_281:\n        /* \"#utility.yul\":13273:13279   */\n      dup4\n        /* \"#utility.yul\":13270:13271   */\n      dup2\n        /* \"#utility.yul\":13267:13280   */\n      lt\n        /* \"#utility.yul\":13259:13372   */\n      iszero\n      tag_283\n      jumpi\n        /* \"#utility.yul\":13358:13359   */\n      dup1\n        /* \"#utility.yul\":13353:13356   */\n      dup3\n        /* \"#utility.yul\":13349:13360   */\n      add\n        /* \"#utility.yul\":13343:13361   */\n      mload\n        /* \"#utility.yul\":13339:13340   */\n      dup2\n        /* \"#utility.yul\":13334:13337   */\n      dup5\n        /* \"#utility.yul\":13330:13341   */\n      add\n        /* \"#utility.yul\":13323:13362   */\n      mstore\n        /* \"#utility.yul\":13295:13297   */\n      0x20\n        /* \"#utility.yul\":13292:13293   */\n      dup2\n        /* \"#utility.yul\":13288:13298   */\n      add\n        /* \"#utility.yul\":13283:13298   */\n      swap1\n      pop\n        /* \"#utility.yul\":13259:13372   */\n      jump(tag_281)\n    tag_283:\n        /* \"#utility.yul\":13390:13396   */\n      dup4\n        /* \"#utility.yul\":13387:13388   */\n      dup2\n        /* \"#utility.yul\":13384:13397   */\n      gt\n        /* \"#utility.yul\":13381:13482   */\n      iszero\n      tag_284\n      jumpi\n        /* \"#utility.yul\":13470:13471   */\n      0x00\n        /* \"#utility.yul\":13461:13467   */\n      dup5\n        /* \"#utility.yul\":13456:13459   */\n      dup5\n        /* \"#utility.yul\":13452:13468   */\n      add\n        /* \"#utility.yul\":13445:13472   */\n      mstore\n        /* \"#utility.yul\":13381:13482   */\n    tag_284:\n        /* \"#utility.yul\":13230:13488   */\n      pop\n        /* \"#utility.yul\":13181:13488   */\n      pop\n      pop\n      pop\n      jump\t// out\n        /* \"#utility.yul\":13494:13814   */\n    tag_75:\n        /* \"#utility.yul\":13538:13544   */\n      0x00\n        /* \"#utility.yul\":13575:13576   */\n      0x02\n        /* \"#utility.yul\":13569:13573   */\n      dup3\n        /* \"#utility.yul\":13565:13577   */\n      div\n        /* \"#utility.yul\":13555:13577   */\n      swap1\n      pop\n        /* \"#utility.yul\":13622:13623   */\n      0x01\n        /* \"#utility.yul\":13616:13620   */\n      dup3\n        /* \"#utility.yul\":13612:13624   */\n      and\n        /* \"#utility.yul\":13643:13661   */\n      dup1\n        /* \"#utility.yul\":13633:13714   */\n      tag_286\n      jumpi\n        /* \"#utility.yul\":13699:13703   */\n      0x7f\n        /* \"#utility.yul\":13691:13697   */\n      dup3\n        /* \"#utility.yul\":13687:13704   */\n      and\n        /* \"#utility.yul\":13677:13704   */\n      swap2\n      pop\n        /* \"#utility.yul\":13633:13714   */\n    tag_286:\n        /* \"#utility.yul\":13761:13763   */\n      0x20\n        /* \"#utility.yul\":13753:13759   */\n      dup3\n        /* \"#utility.yul\":13750:13764   */\n      lt\n        /* \"#utility.yul\":13730:13748   */\n      dup2\n        /* \"#utility.yul\":13727:13765   */\n      eq\n        /* \"#utility.yul\":13724:13808   */\n      iszero\n      tag_287\n      jumpi\n        /* \"#utility.yul\":13780:13798   */\n      tag_288\n      tag_289\n      jump\t// in\n    tag_288:\n        /* \"#utility.yul\":13724:13808   */\n    tag_287:\n        /* \"#utility.yul\":13545:13814   */\n      pop\n        /* \"#utility.yul\":13494:13814   */\n      swap2\n      swap1\n      pop\n      jump\t// out\n        /* \"#utility.yul\":13820:14101   */\n    tag_252:\n        /* \"#utility.yul\":13903:13930   */\n      tag_291\n        /* \"#utility.yul\":13925:13929   */\n      dup3\n        /* \"#utility.yul\":13903:13930   */\n      tag_174\n      jump\t// in\n    tag_291:\n        /* \"#utility.yul\":13895:13901   */\n      dup2\n        /* \"#utility.yul\":13891:13931   */\n      add\n        /* \"#utility.yul\":14033:14039   */\n      dup2\n        /* \"#utility.yul\":14021:14031   */\n      dup2\n        /* \"#utility.yul\":14018:14040   */\n      lt\n        /* \"#utility.yul\":13997:14015   */\n      0xffffffffffffffff\n        /* \"#utility.yul\":13985:13995   */\n      dup3\n        /* \"#utility.yul\":13982:14016   */\n      gt\n        /* \"#utility.yul\":13979:14041   */\n      or\n        /* \"#utility.yul\":13976:14064   */\n      iszero\n      tag_292\n      jumpi\n        /* \"#utility.yul\":14044:14062   */\n      tag_293\n      tag_257\n      jump\t// in\n    tag_293:\n        /* \"#utility.yul\":13976:14064   */\n    tag_292:\n        /* \"#utility.yul\":14084:14094   */\n      dup1\n        /* \"#utility.yul\":14080:14082   */\n      0x40\n        /* \"#utility.yul\":14073:14095   */\n      mstore\n        /* \"#utility.yul\":13863:14101   */\n      pop\n        /* \"#utility.yul\":13820:14101   */\n      pop\n      pop\n      jump\t// out\n        /* \"#utility.yul\":14107:14207   */\n    tag_160:\n        /* \"#utility.yul\":14146:14153   */\n      0x00\n        /* \"#utility.yul\":14175:14201   */\n      tag_295\n        /* \"#utility.yul\":14195:14200   */\n      dup3\n        /* \"#utility.yul\":14175:14201   */\n      tag_296\n      jump\t// in\n    tag_295:\n        /* \"#utility.yul\":14164:14201   */\n      swap1\n      pop\n        /* \"#utility.yul\":14107:14207   */\n      swap2\n      swap1\n      pop\n      jump\t// out\n        /* \"#utility.yul\":14213:14307   */\n    tag_296:\n        /* \"#utility.yul\":14252:14259   */\n      0x00\n        /* \"#utility.yul\":14281:14301   */\n      tag_298\n        /* \"#utility.yul\":14295:14300   */\n      dup3\n        /* \"#utility.yul\":14281:14301   */\n      tag_299\n      jump\t// in\n    tag_298:\n        /* \"#utility.yul\":14270:14301   */\n      swap1\n      pop\n        /* \"#utility.yul\":14213:14307   */\n      swap2\n      swap1\n      pop\n      jump\t// out\n        /* \"#utility.yul\":14313:14392   */\n    tag_214:\n        /* \"#utility.yul\":14352:14359   */\n      0x00\n        /* \"#utility.yul\":14381:14386   */\n      dup2\n        /* \"#utility.yul\":14370:14386   */\n      swap1\n      pop\n        /* \"#utility.yul\":14313:14392   */\n      swap2\n      swap1\n      pop\n      jump\t// out\n        /* \"#utility.yul\":14398:14574   */\n    tag_96:\n        /* \"#utility.yul\":14430:14431   */\n      0x00\n        /* \"#utility.yul\":14447:14467   */\n      tag_302\n        /* \"#utility.yul\":14465:14466   */\n      dup3\n        /* \"#utility.yul\":14447:14467   */\n      tag_209\n      jump\t// in\n    tag_302:\n        /* \"#utility.yul\":14442:14467   */\n      swap2\n      pop\n        /* \"#utility.yul\":14481:14501   */\n      tag_303\n        /* \"#utility.yul\":14499:14500   */\n      dup4\n        /* \"#utility.yul\":14481:14501   */\n      tag_209\n      jump\t// in\n    tag_303:\n        /* \"#utility.yul\":14476:14501   */\n      swap3\n      pop\n        /* \"#utility.yul\":14520:14521   */\n      dup3\n        /* \"#utility.yul\":14510:14545   */\n      tag_304\n      jumpi\n        /* \"#utility.yul\":14525:14543   */\n      tag_305\n      tag_306\n      jump\t// in\n    tag_305:\n        /* \"#utility.yul\":14510:14545   */\n    tag_304:\n        /* \"#utility.yul\":14566:14567   */\n      dup3\n        /* \"#utility.yul\":14563:14564   */\n      dup3\n        /* \"#utility.yul\":14559:14568   */\n      mod\n        /* \"#utility.yul\":14554:14568   */\n      swap1\n      pop\n        /* \"#utility.yul\":14398:14574   */\n      swap3\n      swap2\n      pop\n      pop\n      jump\t// out\n        /* \"#utility.yul\":14580:14760   */\n    tag_267:\n        /* \"#utility.yul\":14628:14705   */\n      0x4e487b7100000000000000000000000000000000000000000000000000000000\n        /* \"#utility.yul\":14625:14626   */\n      0x00\n        /* \"#utility.yul\":14618:14706   */\n      mstore\n        /* \"#utility.yul\":14725:14729   */\n      0x11\n        /* \"#utility.yul\":14722:14723   */\n      0x04\n        /* \"#utility.yul\":14715:14730   */\n      mstore\n        /* \"#utility.yul\":14749:14753   */\n      0x24\n        /* \"#utility.yul\":14746:14747   */\n      0x00\n        /* \"#utility.yul\":14739:14754   */\n      revert\n        /* \"#utility.yul\":14766:14946   */\n    tag_306:\n        /* \"#utility.yul\":14814:14891   */\n      0x4e487b7100000000000000000000000000000000000000000000000000000000\n        /* \"#utility.yul\":14811:14812   */\n      0x00\n        /* \"#utility.yul\":14804:14892   */\n      mstore\n        /* \"#utility.yul\":14911:14915   */\n      0x12\n        /* \"#utility.yul\":14908:14909   */\n      0x04\n        /* \"#utility.yul\":14901:14916   */\n      mstore\n        /* \"#utility.yul\":14935:14939   */\n      0x24\n        /* \"#utility.yul\":14932:14933   */\n      0x00\n        /* \"#utility.yul\":14925:14940   */\n      revert\n        /* \"#utility.yul\":14952:15132   */\n    tag_289:\n        /* \"#utility.yul\":15000:15077   */\n      0x4e487b7100000000000000000000000000000000000000000000000000000000\n        /* \"#utility.yul\":14997:14998   */\n      0x00\n        /* \"#utility.yul\":14990:15078   */\n      mstore\n        /* \"#utility.yul\":15097:15101   */\n      0x22\n        /* \"#utility.yul\":15094:15095   */\n      0x04\n        /* \"#utility.yul\":15087:15102   */\n      mstore\n        /* \"#utility.yul\":15121:15125   */\n      0x24\n        /* \"#utility.yul\":15118:15119   */\n      0x00\n        /* \"#utility.yul\":15111:15126   */\n      revert\n        /* \"#utility.yul\":15138:15318   */\n    tag_257:\n        /* \"#utility.yul\":15186:15263   */\n      0x4e487b7100000000000000000000000000000000000000000000000000000000\n        /* \"#utility.yul\":15183:15184   */\n      0x00\n        /* \"#utility.yul\":15176:15264   */\n      mstore\n        /* \"#utility.yul\":15283:15287   */\n      0x41\n        /* \"#utility.yul\":15280:15281   */\n      0x04\n        /* \"#utility.yul\":15273:15288   */\n      mstore\n        /* \"#utility.yul\":15307:15311   */\n      0x24\n        /* \"#utility.yul\":15304:15305   */\n      0x00\n        /* \"#utility.yul\":15297:15312   */\n      revert\n        /* \"#utility.yul\":15324:15441   */\n    tag_127:\n        /* \"#utility.yul\":15433:15434   */\n      0x00\n        /* \"#utility.yul\":15430:15431   */\n      dup1\n        /* \"#utility.yul\":15423:15435   */\n      revert\n        /* \"#utility.yul\":15447:15564   */\n    tag_116:\n        /* \"#utility.yul\":15556:15557   */\n      0x00\n        /* \"#utility.yul\":15553:15554   */\n      dup1\n        /* \"#utility.yul\":15546:15558   */\n      revert\n        /* \"#utility.yul\":15570:15687   */\n    tag_150:\n        /* \"#utility.yul\":15679:15680   */\n      0x00\n        /* \"#utility.yul\":15676:15677   */\n      dup1\n        /* \"#utility.yul\":15669:15681   */\n      revert\n        /* \"#utility.yul\":15693:15810   */\n    tag_136:\n        /* \"#utility.yul\":15802:15803   */\n      0x00\n        /* \"#utility.yul\":15799:15800   */\n      dup1\n        /* \"#utility.yul\":15792:15804   */\n      revert\n        /* \"#utility.yul\":15816:15918   */\n    tag_174:\n        /* \"#utility.yul\":15857:15863   */\n      0x00\n        /* \"#utility.yul\":15908:15910   */\n      0x1f\n        /* \"#utility.yul\":15904:15911   */\n      not\n        /* \"#utility.yul\":15899:15901   */\n      0x1f\n        /* \"#utility.yul\":15892:15897   */\n      dup4\n        /* \"#utility.yul\":15888:15902   */\n      add\n        /* \"#utility.yul\":15884:15912   */\n      and\n        /* \"#utility.yul\":15874:15912   */\n      swap1\n      pop\n        /* \"#utility.yul\":15816:15918   */\n      swap2\n      swap1\n      pop\n      jump\t// out\n        /* \"#utility.yul\":15924:16018   */\n    tag_299:\n        /* \"#utility.yul\":15957:15965   */\n      0x00\n        /* \"#utility.yul\":16005:16010   */\n      dup2\n        /* \"#utility.yul\":16001:16003   */\n      0x60\n        /* \"#utility.yul\":15997:16011   */\n      shl\n        /* \"#utility.yul\":15976:16011   */\n      swap1\n      pop\n        /* \"#utility.yul\":15924:16018   */\n      swap2\n      swap1\n      pop\n      jump\t// out\n        /* \"#utility.yul\":16024:16249   */\n    tag_185:\n        /* \"#utility.yul\":16164:16198   */\n      0x4f776e61626c653a206e6577206f776e657220697320746865207a65726f2061\n        /* \"#utility.yul\":16160:16161   */\n      0x00\n        /* \"#utility.yul\":16152:16158   */\n      dup3\n        /* \"#utility.yul\":16148:16162   */\n      add\n        /* \"#utility.yul\":16141:16199   */\n      mstore\n        /* \"#utility.yul\":16233:16241   */\n      0x6464726573730000000000000000000000000000000000000000000000000000\n        /* \"#utility.yul\":16228:16230   */\n      0x20\n        /* \"#utility.yul\":16220:16226   */\n      dup3\n        /* \"#utility.yul\":16216:16231   */\n      add\n        /* \"#utility.yul\":16209:16242   */\n      mstore\n        /* \"#utility.yul\":16024:16249   */\n      pop\n      jump\t// out\n        /* \"#utility.yul\":16255:16425   */\n    tag_190:\n        /* \"#utility.yul\":16395:16417   */\n      0x76616c75652063616e6e6f74206265206e756c6c000000000000000000000000\n        /* \"#utility.yul\":16391:16392   */\n      0x00\n        /* \"#utility.yul\":16383:16389   */\n      dup3\n        /* \"#utility.yul\":16379:16393   */\n      add\n        /* \"#utility.yul\":16372:16418   */\n      mstore\n        /* \"#utility.yul\":16255:16425   */\n      pop\n      jump\t// out\n        /* \"#utility.yul\":16431:16613   */\n    tag_195:\n        /* \"#utility.yul\":16571:16605   */\n      0x4f776e61626c653a2063616c6c6572206973206e6f7420746865206f776e6572\n        /* \"#utility.yul\":16567:16568   */\n      0x00\n        /* \"#utility.yul\":16559:16565   */\n      dup3\n        /* \"#utility.yul\":16555:16569   */\n      add\n        /* \"#utility.yul\":16548:16606   */\n      mstore\n        /* \"#utility.yul\":16431:16613   */\n      pop\n      jump\t// out\n        /* \"#utility.yul\":16619:16796   */\n    tag_200:\n        /* \"#utility.yul\":16759:16788   */\n      0x7468697320686f757365496420616c7265616479206578697374730000000000\n        /* \"#utility.yul\":16755:16756   */\n      0x00\n        /* \"#utility.yul\":16747:16753   */\n      dup3\n        /* \"#utility.yul\":16743:16757   */\n      add\n        /* \"#utility.yul\":16736:16789   */\n      mstore\n        /* \"#utility.yul\":16619:16796   */\n      pop\n      jump\t// out\n        /* \"#utility.yul\":16802:17032   */\n    tag_205:\n        /* \"#utility.yul\":16942:16976   */\n      0x596f7520646f206e6f7420686176652061636365737320746f2064656c657465\n        /* \"#utility.yul\":16938:16939   */\n      0x00\n        /* \"#utility.yul\":16930:16936   */\n      dup3\n        /* \"#utility.yul\":16926:16940   */\n      add\n        /* \"#utility.yul\":16919:16977   */\n      mstore\n        /* \"#utility.yul\":17011:17024   */\n      0x207468697320686f757365000000000000000000000000000000000000000000\n        /* \"#utility.yul\":17006:17008   */\n      0x20\n        /* \"#utility.yul\":16998:17004   */\n      dup3\n        /* \"#utility.yul\":16994:17009   */\n      add\n        /* \"#utility.yul\":16987:17025   */\n      mstore\n        /* \"#utility.yul\":16802:17032   */\n      pop\n      jump\t// out\n        /* \"#utility.yul\":17038:17160   */\n    tag_122:\n        /* \"#utility.yul\":17111:17135   */\n      tag_323\n        /* \"#utility.yul\":17129:17134   */\n      dup2\n        /* \"#utility.yul\":17111:17135   */\n      tag_155\n      jump\t// in\n    tag_323:\n        /* \"#utility.yul\":17104:17109   */\n      dup2\n        /* \"#utility.yul\":17101:17136   */\n      eq\n        /* \"#utility.yul\":17091:17154   */\n      tag_324\n      jumpi\n        /* \"#utility.yul\":17150:17151   */\n      0x00\n        /* \"#utility.yul\":17147:17148   */\n      dup1\n        /* \"#utility.yul\":17140:17152   */\n      revert\n        /* \"#utility.yul\":17091:17154   */\n    tag_324:\n        /* \"#utility.yul\":17038:17160   */\n      pop\n      jump\t// out\n        /* \"#utility.yul\":17166:17288   */\n    tag_132:\n        /* \"#utility.yul\":17239:17263   */\n      tag_326\n        /* \"#utility.yul\":17257:17262   */\n      dup2\n        /* \"#utility.yul\":17239:17263   */\n      tag_209\n      jump\t// in\n    tag_326:\n        /* \"#utility.yul\":17232:17237   */\n      dup2\n        /* \"#utility.yul\":17229:17264   */\n      eq\n        /* \"#utility.yul\":17219:17282   */\n      tag_327\n      jumpi\n        /* \"#utility.yul\":17278:17279   */\n      0x00\n        /* \"#utility.yul\":17275:17276   */\n      dup1\n        /* \"#utility.yul\":17268:17280   */\n      revert\n        /* \"#utility.yul\":17219:17282   */\n    tag_327:\n        /* \"#utility.yul\":17166:17288   */\n      pop\n      jump\t// out\n\n    auxdata: 0xa26469706673582212207d34c76002eefd9fe7e25a62b13eb82e15f99517a72d5e2650ef8e7927f083cd64736f6c63430008070033\n}\n",
				"bytecode": {
					"linkReferences": {},
					"object": "60806040526005600255600254600a6200001a91906200017f565b600355620151806004553480156200003157600080fd5b5062000052620000466200005860201b60201c565b6200006060201b60201c565b62000302565b600033905090565b60008060009054906101000a900473ffffffffffffffffffffffffffffffffffffffff169050816000806101000a81548173ffffffffffffffffffffffffffffffffffffffff021916908373ffffffffffffffffffffffffffffffffffffffff1602179055508173ffffffffffffffffffffffffffffffffffffffff168173ffffffffffffffffffffffffffffffffffffffff167f8be0079c531659141344cd1fd0a4f28419497f9722a3daafe3b4186f6b6457e060405160405180910390a35050565b6000808291508390505b600185111562000176578086048111156200014e576200014d620002c6565b5b60018516156200015e5780820291505b80810290506200016e85620002f5565b94506200012e565b94509492505050565b60006200018c82620002bc565b91506200019983620002bc565b9250620001c87fffffffffffffffffffffffffffffffffffffffffffffffffffffffffffffffff8484620001d0565b905092915050565b600082620001e25760019050620002b5565b81620001f25760009050620002b5565b81600181146200020b576002811462000216576200024c565b6001915050620002b5565b60ff8411156200022b576200022a620002c6565b5b8360020a915084821115620002455762000244620002c6565b5b50620002b5565b5060208310610133831016604e8410600b8410161715620002865782820a90508381111562000280576200027f620002c6565b5b620002b5565b62000295848484600162000124565b92509050818404811115620002af57620002ae620002c6565b5b81810290505b9392505050565b6000819050919050565b7f4e487b7100000000000000000000000000000000000000000000000000000000600052601160045260246000fd5b60008160011c9050919050565b61128b80620003126000396000f3fe608060405234801561001057600080fd5b506004361061007d5760003560e01c806391bfe0d41161005b57806391bfe0d4146100c6578063a28691ab146100f6578063aeda852f14610126578063f2fde38b1461015c5761007d565b80633c3b0b4a14610082578063715018a61461009e5780638da5cb5b146100a8575b600080fd5b61009c60048036038101906100979190610997565b610178565b005b6100a661024e565b005b6100b06102d6565b6040516100bd9190610bf4565b60405180910390f35b6100e060048036038101906100db91906109c4565b6102ff565b6040516100ed9190610cca565b60405180910390f35b610110600480360381019061010b9190610997565b61051a565b60405161011d9190610c0f565b60405180910390f35b610140600480360381019061013b9190610997565b610527565b6040516101539796959493929190610d31565b60405180910390f35b6101766004803603810190610171919061096a565b61061e565b005b3373ffffffffffffffffffffffffffffffffffffffff166005600083815260200190815260200160002060030160009054906101000a900473ffffffffffffffffffffffffffffffffffffffff1673ffffffffffffffffffffffffffffffffffffffff161461021c576040517f08c379a000000000000000000000000000000000000000000000000000000000815260040161021390610caa565b60405180910390fd5b60016005600083815260200190815260200160002060050160006101000a81548160ff02191690831515021790555050565b610256610716565b73ffffffffffffffffffffffffffffffffffffffff166102746102d6565b73ffffffffffffffffffffffffffffffffffffffff16146102ca576040517f08c379a00000000000000000000000000000000000000000000000000000000081526004016102c190610c6a565b60405180910390fd5b6102d4600061071e565b565b60008060009054906101000a900473ffffffffffffffffffffffffffffffffffffffff16905090565b600080848661030e9190610e7a565b1161034e576040517f08c379a000000000000000000000000000000000000000000000000000000000815260040161034590610c4a565b60405180910390fd5b600061035b8486856107e2565b905060056000828152602001908152602001600020600001548114156103b6576040517f08c379a00000000000000000000000000000000000000000000000000000000081526004016103ad90610c8a565b60405180910390fd5b6040518060e001604052808281526020018781526020018681526020018573ffffffffffffffffffffffffffffffffffffffff1681526020018481526020016000151581526020016004544261040c9190610e24565b8152506005600083815260200190815260200160002060008201518160000155602082015181600101556040820151816002015560608201518160030160006101000a81548173ffffffffffffffffffffffffffffffffffffffff021916908373ffffffffffffffffffffffffffffffffffffffff16021790555060808201518160040190805190602001906104a392919061082d565b5060a08201518160050160006101000a81548160ff02191690831515021790555060c082015181600601559050507f8f5afd88eb4be0ac287d87970052ce9a2b453448408e3c91a695ad7509ab7194818588866040516105069493929190610ce5565b60405180910390a180915050949350505050565b6000428211159050919050565b60056020528060005260406000206000915090508060000154908060010154908060020154908060030160009054906101000a900473ffffffffffffffffffffffffffffffffffffffff169080600401805461058290610f5e565b80601f01602080910402602001604051908101604052809291908181526020018280546105ae90610f5e565b80156105fb5780601f106105d0576101008083540402835291602001916105fb565b820191906000526020600020905b8154815290600101906020018083116105de57829003601f168201915b5050505050908060050160009054906101000a900460ff16908060060154905087565b610626610716565b73ffffffffffffffffffffffffffffffffffffffff166106446102d6565b73ffffffffffffffffffffffffffffffffffffffff161461069a576040517f08c379a000000000000000000000000000000000000000000000000000000000815260040161069190610c6a565b60405180910390fd5b600073ffffffffffffffffffffffffffffffffffffffff168173ffffffffffffffffffffffffffffffffffffffff16141561070a576040517f08c379a000000000000000000000000000000000000000000000000000000000815260040161070190610c2a565b60405180910390fd5b6107138161071e565b50565b600033905090565b60008060009054906101000a900473ffffffffffffffffffffffffffffffffffffffff169050816000806101000a81548173ffffffffffffffffffffffffffffffffffffffff021916908373ffffffffffffffffffffffffffffffffffffffff1602179055508173ffffffffffffffffffffffffffffffffffffffff168173ffffffffffffffffffffffffffffffffffffffff167f8be0079c531659141344cd1fd0a4f28419497f9722a3daafe3b4186f6b6457e060405160405180910390a35050565b6000808484846040516020016107fa93929190610bbb565b6040516020818303038152906040528051906020012060001c9050600354816108239190610fef565b9150509392505050565b82805461083990610f5e565b90600052602060002090601f01602090048101928261085b57600085556108a2565b82601f1061087457805160ff19168380011785556108a2565b828001600101855582156108a2579182015b828111156108a1578251825591602001919060010190610886565b5b5090506108af91906108b3565b5090565b5b808211156108cc5760008160009055506001016108b4565b5090565b60006108e36108de84610dcc565b610da7565b9050828152602081018484840111156108ff576108fe6110e1565b5b61090a848285610f1c565b509392505050565b60008135905061092181611227565b92915050565b600082601f83011261093c5761093b6110dc565b5b813561094c8482602086016108d0565b91505092915050565b6000813590506109648161123e565b92915050565b6000602082840312156109805761097f6110eb565b5b600061098e84828501610912565b91505092915050565b6000602082840312156109ad576109ac6110eb565b5b60006109bb84828501610955565b91505092915050565b600080600080608085870312156109de576109dd6110eb565b5b60006109ec87828801610955565b94505060206109fd87828801610955565b9350506040610a0e87828801610912565b925050606085013567ffffffffffffffff811115610a2f57610a2e6110e6565b5b610a3b87828801610927565b91505092959194509250565b610a5081610ed4565b82525050565b610a67610a6282610ed4565b610fc1565b82525050565b610a7681610ee6565b82525050565b6000610a8782610dfd565b610a918185610e08565b9350610aa1818560208601610f2b565b610aaa816110f0565b840191505092915050565b6000610ac082610dfd565b610aca8185610e19565b9350610ada818560208601610f2b565b80840191505092915050565b6000610af3602683610e08565b9150610afe8261110e565b604082019050919050565b6000610b16601483610e08565b9150610b218261115d565b602082019050919050565b6000610b39602083610e08565b9150610b4482611186565b602082019050919050565b6000610b5c601b83610e08565b9150610b67826111af565b602082019050919050565b6000610b7f602b83610e08565b9150610b8a826111d8565b604082019050919050565b610b9e81610f12565b82525050565b610bb5610bb082610f12565b610fe5565b82525050565b6000610bc78286610a56565b601482019150610bd78285610ba4565b602082019150610be78284610ab5565b9150819050949350505050565b6000602082019050610c096000830184610a47565b92915050565b6000602082019050610c246000830184610a6d565b92915050565b60006020820190508181036000830152610c4381610ae6565b9050919050565b60006020820190508181036000830152610c6381610b09565b9050919050565b60006020820190508181036000830152610c8381610b2c565b9050919050565b60006020820190508181036000830152610ca381610b4f565b9050919050565b60006020820190508181036000830152610cc381610b72565b9050919050565b6000602082019050610cdf6000830184610b95565b92915050565b6000608082019050610cfa6000830187610b95565b610d076020830186610a47565b610d146040830185610b95565b8181036060830152610d268184610a7c565b905095945050505050565b600060e082019050610d46600083018a610b95565b610d536020830189610b95565b610d606040830188610b95565b610d6d6060830187610a47565b8181036080830152610d7f8186610a7c565b9050610d8e60a0830185610a6d565b610d9b60c0830184610b95565b98975050505050505050565b6000610db1610dc2565b9050610dbd8282610f90565b919050565b6000604051905090565b600067ffffffffffffffff821115610de757610de66110ad565b5b610df0826110f0565b9050602081019050919050565b600081519050919050565b600082825260208201905092915050565b600081905092915050565b6000610e2f82610f12565b9150610e3a83610f12565b9250827fffffffffffffffffffffffffffffffffffffffffffffffffffffffffffffffff03821115610e6f57610e6e611020565b5b828201905092915050565b6000610e8582610f12565b9150610e9083610f12565b9250817fffffffffffffffffffffffffffffffffffffffffffffffffffffffffffffffff0483118215151615610ec957610ec8611020565b5b828202905092915050565b6000610edf82610ef2565b9050919050565b60008115159050919050565b600073ffffffffffffffffffffffffffffffffffffffff82169050919050565b6000819050919050565b82818337600083830152505050565b60005b83811015610f49578082015181840152602081019050610f2e565b83811115610f58576000848401525b50505050565b60006002820490506001821680610f7657607f821691505b60208210811415610f8a57610f8961107e565b5b50919050565b610f99826110f0565b810181811067ffffffffffffffff82111715610fb857610fb76110ad565b5b80604052505050565b6000610fcc82610fd3565b9050919050565b6000610fde82611101565b9050919050565b6000819050919050565b6000610ffa82610f12565b915061100583610f12565b9250826110155761101461104f565b5b828206905092915050565b7f4e487b7100000000000000000000000000000000000000000000000000000000600052601160045260246000fd5b7f4e487b7100000000000000000000000000000000000000000000000000000000600052601260045260246000fd5b7f4e487b7100000000000000000000000000000000000000000000000000000000600052602260045260246000fd5b7f4e487b7100000000000000000000000000000000000000000000000000000000600052604160045260246000fd5b600080fd5b600080fd5b600080fd5b600080fd5b6000601f19601f8301169050919050565b60008160601b9050919050565b7f4f776e61626c653a206e6577206f776e657220697320746865207a65726f206160008201527f6464726573730000000000000000000000000000000000000000000000000000602082015250565b7f76616c75652063616e6e6f74206265206e756c6c000000000000000000000000600082015250565b7f4f776e61626c653a2063616c6c6572206973206e6f7420746865206f776e6572600082015250565b7f7468697320686f757365496420616c7265616479206578697374730000000000600082015250565b7f596f7520646f206e6f7420686176652061636365737320746f2064656c65746560008201527f207468697320686f757365000000000000000000000000000000000000000000602082015250565b61123081610ed4565b811461123b57600080fd5b50565b61124781610f12565b811461125257600080fd5b5056fea26469706673582212207d34c76002eefd9fe7e25a62b13eb82e15f99517a72d5e2650ef8e7927f083cd64736f6c63430008070033",
					"opcodes": "PUSH1 0x80 PUSH1 0x40 MSTORE PUSH1 0x5 PUSH1 0x2 SSTORE PUSH1 0x2 SLOAD PUSH1 0xA PUSH3 0x1A SWAP2 SWAP1 PUSH3 0x17F JUMP JUMPDEST PUSH1 0x3 SSTORE PUSH3 0x15180 PUSH1 0x4 SSTORE CALLVALUE DUP1 ISZERO PUSH3 0x31 JUMPI PUSH1 0x0 DUP1 REVERT JUMPDEST POP PUSH3 0x52 PUSH3 0x46 PUSH3 0x58 PUSH1 0x20 SHL PUSH1 0x20 SHR JUMP JUMPDEST PUSH3 0x60 PUSH1 0x20 SHL PUSH1 0x20 SHR JUMP JUMPDEST PUSH3 0x302 JUMP JUMPDEST PUSH1 0x0 CALLER SWAP1 POP SWAP1 JUMP JUMPDEST PUSH1 0x0 DUP1 PUSH1 0x0 SWAP1 SLOAD SWAP1 PUSH2 0x100 EXP SWAP1 DIV PUSH20 0xFFFFFFFFFFFFFFFFFFFFFFFFFFFFFFFFFFFFFFFF AND SWAP1 POP DUP2 PUSH1 0x0 DUP1 PUSH2 0x100 EXP DUP2 SLOAD DUP2 PUSH20 0xFFFFFFFFFFFFFFFFFFFFFFFFFFFFFFFFFFFFFFFF MUL NOT AND SWAP1 DUP4 PUSH20 0xFFFFFFFFFFFFFFFFFFFFFFFFFFFFFFFFFFFFFFFF AND MUL OR SWAP1 SSTORE POP DUP2 PUSH20 0xFFFFFFFFFFFFFFFFFFFFFFFFFFFFFFFFFFFFFFFF AND DUP2 PUSH20 0xFFFFFFFFFFFFFFFFFFFFFFFFFFFFFFFFFFFFFFFF AND PUSH32 0x8BE0079C531659141344CD1FD0A4F28419497F9722A3DAAFE3B4186F6B6457E0 PUSH1 0x40 MLOAD PUSH1 0x40 MLOAD DUP1 SWAP2 SUB SWAP1 LOG3 POP POP JUMP JUMPDEST PUSH1 0x0 DUP1 DUP3 SWAP2 POP DUP4 SWAP1 POP JUMPDEST PUSH1 0x1 DUP6 GT ISZERO PUSH3 0x176 JUMPI DUP1 DUP7 DIV DUP2 GT ISZERO PUSH3 0x14E JUMPI PUSH3 0x14D PUSH3 0x2C6 JUMP JUMPDEST JUMPDEST PUSH1 0x1 DUP6 AND ISZERO PUSH3 0x15E JUMPI DUP1 DUP3 MUL SWAP2 POP JUMPDEST DUP1 DUP2 MUL SWAP1 POP PUSH3 0x16E DUP6 PUSH3 0x2F5 JUMP JUMPDEST SWAP5 POP PUSH3 0x12E JUMP JUMPDEST SWAP5 POP SWAP5 SWAP3 POP POP POP JUMP JUMPDEST PUSH1 0x0 PUSH3 0x18C DUP3 PUSH3 0x2BC JUMP JUMPDEST SWAP2 POP PUSH3 0x199 DUP4 PUSH3 0x2BC JUMP JUMPDEST SWAP3 POP PUSH3 0x1C8 PUSH32 0xFFFFFFFFFFFFFFFFFFFFFFFFFFFFFFFFFFFFFFFFFFFFFFFFFFFFFFFFFFFFFFFF DUP5 DUP5 PUSH3 0x1D0 JUMP JUMPDEST SWAP1 POP SWAP3 SWAP2 POP POP JUMP JUMPDEST PUSH1 0x0 DUP3 PUSH3 0x1E2 JUMPI PUSH1 0x1 SWAP1 POP PUSH3 0x2B5 JUMP JUMPDEST DUP2 PUSH3 0x1F2 JUMPI PUSH1 0x0 SWAP1 POP PUSH3 0x2B5 JUMP JUMPDEST DUP2 PUSH1 0x1 DUP2 EQ PUSH3 0x20B JUMPI PUSH1 0x2 DUP2 EQ PUSH3 0x216 JUMPI PUSH3 0x24C JUMP JUMPDEST PUSH1 0x1 SWAP2 POP POP PUSH3 0x2B5 JUMP JUMPDEST PUSH1 0xFF DUP5 GT ISZERO PUSH3 0x22B JUMPI PUSH3 0x22A PUSH3 0x2C6 JUMP JUMPDEST JUMPDEST DUP4 PUSH1 0x2 EXP SWAP2 POP DUP5 DUP3 GT ISZERO PUSH3 0x245 JUMPI PUSH3 0x244 PUSH3 0x2C6 JUMP JUMPDEST JUMPDEST POP PUSH3 0x2B5 JUMP JUMPDEST POP PUSH1 0x20 DUP4 LT PUSH2 0x133 DUP4 LT AND PUSH1 0x4E DUP5 LT PUSH1 0xB DUP5 LT AND OR ISZERO PUSH3 0x286 JUMPI DUP3 DUP3 EXP SWAP1 POP DUP4 DUP2 GT ISZERO PUSH3 0x280 JUMPI PUSH3 0x27F PUSH3 0x2C6 JUMP JUMPDEST JUMPDEST PUSH3 0x2B5 JUMP JUMPDEST PUSH3 0x295 DUP5 DUP5 DUP5 PUSH1 0x1 PUSH3 0x124 JUMP JUMPDEST SWAP3 POP SWAP1 POP DUP2 DUP5 DIV DUP2 GT ISZERO PUSH3 0x2AF JUMPI PUSH3 0x2AE PUSH3 0x2C6 JUMP JUMPDEST JUMPDEST DUP2 DUP2 MUL SWAP1 POP JUMPDEST SWAP4 SWAP3 POP POP POP JUMP JUMPDEST PUSH1 0x0 DUP2 SWAP1 POP SWAP2 SWAP1 POP JUMP JUMPDEST PUSH32 0x4E487B7100000000000000000000000000000000000000000000000000000000 PUSH1 0x0 MSTORE PUSH1 0x11 PUSH1 0x4 MSTORE PUSH1 0x24 PUSH1 0x0 REVERT JUMPDEST PUSH1 0x0 DUP2 PUSH1 0x1 SHR SWAP1 POP SWAP2 SWAP1 POP JUMP JUMPDEST PUSH2 0x128B DUP1 PUSH3 0x312 PUSH1 0x0 CODECOPY PUSH1 0x0 RETURN INVALID PUSH1 0x80 PUSH1 0x40 MSTORE CALLVALUE DUP1 ISZERO PUSH2 0x10 JUMPI PUSH1 0x0 DUP1 REVERT JUMPDEST POP PUSH1 0x4 CALLDATASIZE LT PUSH2 0x7D JUMPI PUSH1 0x0 CALLDATALOAD PUSH1 0xE0 SHR DUP1 PUSH4 0x91BFE0D4 GT PUSH2 0x5B JUMPI DUP1 PUSH4 0x91BFE0D4 EQ PUSH2 0xC6 JUMPI DUP1 PUSH4 0xA28691AB EQ PUSH2 0xF6 JUMPI DUP1 PUSH4 0xAEDA852F EQ PUSH2 0x126 JUMPI DUP1 PUSH4 0xF2FDE38B EQ PUSH2 0x15C JUMPI PUSH2 0x7D JUMP JUMPDEST DUP1 PUSH4 0x3C3B0B4A EQ PUSH2 0x82 JUMPI DUP1 PUSH4 0x715018A6 EQ PUSH2 0x9E JUMPI DUP1 PUSH4 0x8DA5CB5B EQ PUSH2 0xA8 JUMPI JUMPDEST PUSH1 0x0 DUP1 REVERT JUMPDEST PUSH2 0x9C PUSH1 0x4 DUP1 CALLDATASIZE SUB DUP2 ADD SWAP1 PUSH2 0x97 SWAP2 SWAP1 PUSH2 0x997 JUMP JUMPDEST PUSH2 0x178 JUMP JUMPDEST STOP JUMPDEST PUSH2 0xA6 PUSH2 0x24E JUMP JUMPDEST STOP JUMPDEST PUSH2 0xB0 PUSH2 0x2D6 JUMP JUMPDEST PUSH1 0x40 MLOAD PUSH2 0xBD SWAP2 SWAP1 PUSH2 0xBF4 JUMP JUMPDEST PUSH1 0x40 MLOAD DUP1 SWAP2 SUB SWAP1 RETURN JUMPDEST PUSH2 0xE0 PUSH1 0x4 DUP1 CALLDATASIZE SUB DUP2 ADD SWAP1 PUSH2 0xDB SWAP2 SWAP1 PUSH2 0x9C4 JUMP JUMPDEST PUSH2 0x2FF JUMP JUMPDEST PUSH1 0x40 MLOAD PUSH2 0xED SWAP2 SWAP1 PUSH2 0xCCA JUMP JUMPDEST PUSH1 0x40 MLOAD DUP1 SWAP2 SUB SWAP1 RETURN JUMPDEST PUSH2 0x110 PUSH1 0x4 DUP1 CALLDATASIZE SUB DUP2 ADD SWAP1 PUSH2 0x10B SWAP2 SWAP1 PUSH2 0x997 JUMP JUMPDEST PUSH2 0x51A JUMP JUMPDEST PUSH1 0x40 MLOAD PUSH2 0x11D SWAP2 SWAP1 PUSH2 0xC0F JUMP JUMPDEST PUSH1 0x40 MLOAD DUP1 SWAP2 SUB SWAP1 RETURN JUMPDEST PUSH2 0x140 PUSH1 0x4 DUP1 CALLDATASIZE SUB DUP2 ADD SWAP1 PUSH2 0x13B SWAP2 SWAP1 PUSH2 0x997 JUMP JUMPDEST PUSH2 0x527 JUMP JUMPDEST PUSH1 0x40 MLOAD PUSH2 0x153 SWAP8 SWAP7 SWAP6 SWAP5 SWAP4 SWAP3 SWAP2 SWAP1 PUSH2 0xD31 JUMP JUMPDEST PUSH1 0x40 MLOAD DUP1 SWAP2 SUB SWAP1 RETURN JUMPDEST PUSH2 0x176 PUSH1 0x4 DUP1 CALLDATASIZE SUB DUP2 ADD SWAP1 PUSH2 0x171 SWAP2 SWAP1 PUSH2 0x96A JUMP JUMPDEST PUSH2 0x61E JUMP JUMPDEST STOP JUMPDEST CALLER PUSH20 0xFFFFFFFFFFFFFFFFFFFFFFFFFFFFFFFFFFFFFFFF AND PUSH1 0x5 PUSH1 0x0 DUP4 DUP2 MSTORE PUSH1 0x20 ADD SWAP1 DUP2 MSTORE PUSH1 0x20 ADD PUSH1 0x0 KECCAK256 PUSH1 0x3 ADD PUSH1 0x0 SWAP1 SLOAD SWAP1 PUSH2 0x100 EXP SWAP1 DIV PUSH20 0xFFFFFFFFFFFFFFFFFFFFFFFFFFFFFFFFFFFFFFFF AND PUSH20 0xFFFFFFFFFFFFFFFFFFFFFFFFFFFFFFFFFFFFFFFF AND EQ PUSH2 0x21C JUMPI PUSH1 0x40 MLOAD PUSH32 0x8C379A000000000000000000000000000000000000000000000000000000000 DUP2 MSTORE PUSH1 0x4 ADD PUSH2 0x213 SWAP1 PUSH2 0xCAA JUMP JUMPDEST PUSH1 0x40 MLOAD DUP1 SWAP2 SUB SWAP1 REVERT JUMPDEST PUSH1 0x1 PUSH1 0x5 PUSH1 0x0 DUP4 DUP2 MSTORE PUSH1 0x20 ADD SWAP1 DUP2 MSTORE PUSH1 0x20 ADD PUSH1 0x0 KECCAK256 PUSH1 0x5 ADD PUSH1 0x0 PUSH2 0x100 EXP DUP2 SLOAD DUP2 PUSH1 0xFF MUL NOT AND SWAP1 DUP4 ISZERO ISZERO MUL OR SWAP1 SSTORE POP POP JUMP JUMPDEST PUSH2 0x256 PUSH2 0x716 JUMP JUMPDEST PUSH20 0xFFFFFFFFFFFFFFFFFFFFFFFFFFFFFFFFFFFFFFFF AND PUSH2 0x274 PUSH2 0x2D6 JUMP JUMPDEST PUSH20 0xFFFFFFFFFFFFFFFFFFFFFFFFFFFFFFFFFFFFFFFF AND EQ PUSH2 0x2CA JUMPI PUSH1 0x40 MLOAD PUSH32 0x8C379A000000000000000000000000000000000000000000000000000000000 DUP2 MSTORE PUSH1 0x4 ADD PUSH2 0x2C1 SWAP1 PUSH2 0xC6A JUMP JUMPDEST PUSH1 0x40 MLOAD DUP1 SWAP2 SUB SWAP1 REVERT JUMPDEST PUSH2 0x2D4 PUSH1 0x0 PUSH2 0x71E JUMP JUMPDEST JUMP JUMPDEST PUSH1 0x0 DUP1 PUSH1 0x0 SWAP1 SLOAD SWAP1 PUSH2 0x100 EXP SWAP1 DIV PUSH20 0xFFFFFFFFFFFFFFFFFFFFFFFFFFFFFFFFFFFFFFFF AND SWAP1 POP SWAP1 JUMP JUMPDEST PUSH1 0x0 DUP1 DUP5 DUP7 PUSH2 0x30E SWAP2 SWAP1 PUSH2 0xE7A JUMP JUMPDEST GT PUSH2 0x34E JUMPI PUSH1 0x40 MLOAD PUSH32 0x8C379A000000000000000000000000000000000000000000000000000000000 DUP2 MSTORE PUSH1 0x4 ADD PUSH2 0x345 SWAP1 PUSH2 0xC4A JUMP JUMPDEST PUSH1 0x40 MLOAD DUP1 SWAP2 SUB SWAP1 REVERT JUMPDEST PUSH1 0x0 PUSH2 0x35B DUP5 DUP7 DUP6 PUSH2 0x7E2 JUMP JUMPDEST SWAP1 POP PUSH1 0x5 PUSH1 0x0 DUP3 DUP2 MSTORE PUSH1 0x20 ADD SWAP1 DUP2 MSTORE PUSH1 0x20 ADD PUSH1 0x0 KECCAK256 PUSH1 0x0 ADD SLOAD DUP2 EQ ISZERO PUSH2 0x3B6 JUMPI PUSH1 0x40 MLOAD PUSH32 0x8C379A000000000000000000000000000000000000000000000000000000000 DUP2 MSTORE PUSH1 0x4 ADD PUSH2 0x3AD SWAP1 PUSH2 0xC8A JUMP JUMPDEST PUSH1 0x40 MLOAD DUP1 SWAP2 SUB SWAP1 REVERT JUMPDEST PUSH1 0x40 MLOAD DUP1 PUSH1 0xE0 ADD PUSH1 0x40 MSTORE DUP1 DUP3 DUP2 MSTORE PUSH1 0x20 ADD DUP8 DUP2 MSTORE PUSH1 0x20 ADD DUP7 DUP2 MSTORE PUSH1 0x20 ADD DUP6 PUSH20 0xFFFFFFFFFFFFFFFFFFFFFFFFFFFFFFFFFFFFFFFF AND DUP2 MSTORE PUSH1 0x20 ADD DUP5 DUP2 MSTORE PUSH1 0x20 ADD PUSH1 0x0 ISZERO ISZERO DUP2 MSTORE PUSH1 0x20 ADD PUSH1 0x4 SLOAD TIMESTAMP PUSH2 0x40C SWAP2 SWAP1 PUSH2 0xE24 JUMP JUMPDEST DUP2 MSTORE POP PUSH1 0x5 PUSH1 0x0 DUP4 DUP2 MSTORE PUSH1 0x20 ADD SWAP1 DUP2 MSTORE PUSH1 0x20 ADD PUSH1 0x0 KECCAK256 PUSH1 0x0 DUP3 ADD MLOAD DUP2 PUSH1 0x0 ADD SSTORE PUSH1 0x20 DUP3 ADD MLOAD DUP2 PUSH1 0x1 ADD SSTORE PUSH1 0x40 DUP3 ADD MLOAD DUP2 PUSH1 0x2 ADD SSTORE PUSH1 0x60 DUP3 ADD MLOAD DUP2 PUSH1 0x3 ADD PUSH1 0x0 PUSH2 0x100 EXP DUP2 SLOAD DUP2 PUSH20 0xFFFFFFFFFFFFFFFFFFFFFFFFFFFFFFFFFFFFFFFF MUL NOT AND SWAP1 DUP4 PUSH20 0xFFFFFFFFFFFFFFFFFFFFFFFFFFFFFFFFFFFFFFFF AND MUL OR SWAP1 SSTORE POP PUSH1 0x80 DUP3 ADD MLOAD DUP2 PUSH1 0x4 ADD SWAP1 DUP1 MLOAD SWAP1 PUSH1 0x20 ADD SWAP1 PUSH2 0x4A3 SWAP3 SWAP2 SWAP1 PUSH2 0x82D JUMP JUMPDEST POP PUSH1 0xA0 DUP3 ADD MLOAD DUP2 PUSH1 0x5 ADD PUSH1 0x0 PUSH2 0x100 EXP DUP2 SLOAD DUP2 PUSH1 0xFF MUL NOT AND SWAP1 DUP4 ISZERO ISZERO MUL OR SWAP1 SSTORE POP PUSH1 0xC0 DUP3 ADD MLOAD DUP2 PUSH1 0x6 ADD SSTORE SWAP1 POP POP PUSH32 0x8F5AFD88EB4BE0AC287D87970052CE9A2B453448408E3C91A695AD7509AB7194 DUP2 DUP6 DUP9 DUP7 PUSH1 0x40 MLOAD PUSH2 0x506 SWAP5 SWAP4 SWAP3 SWAP2 SWAP1 PUSH2 0xCE5 JUMP JUMPDEST PUSH1 0x40 MLOAD DUP1 SWAP2 SUB SWAP1 LOG1 DUP1 SWAP2 POP POP SWAP5 SWAP4 POP POP POP POP JUMP JUMPDEST PUSH1 0x0 TIMESTAMP DUP3 GT ISZERO SWAP1 POP SWAP2 SWAP1 POP JUMP JUMPDEST PUSH1 0x5 PUSH1 0x20 MSTORE DUP1 PUSH1 0x0 MSTORE PUSH1 0x40 PUSH1 0x0 KECCAK256 PUSH1 0x0 SWAP2 POP SWAP1 POP DUP1 PUSH1 0x0 ADD SLOAD SWAP1 DUP1 PUSH1 0x1 ADD SLOAD SWAP1 DUP1 PUSH1 0x2 ADD SLOAD SWAP1 DUP1 PUSH1 0x3 ADD PUSH1 0x0 SWAP1 SLOAD SWAP1 PUSH2 0x100 EXP SWAP1 DIV PUSH20 0xFFFFFFFFFFFFFFFFFFFFFFFFFFFFFFFFFFFFFFFF AND SWAP1 DUP1 PUSH1 0x4 ADD DUP1 SLOAD PUSH2 0x582 SWAP1 PUSH2 0xF5E JUMP JUMPDEST DUP1 PUSH1 0x1F ADD PUSH1 0x20 DUP1 SWAP2 DIV MUL PUSH1 0x20 ADD PUSH1 0x40 MLOAD SWAP1 DUP2 ADD PUSH1 0x40 MSTORE DUP1 SWAP3 SWAP2 SWAP1 DUP2 DUP2 MSTORE PUSH1 0x20 ADD DUP3 DUP1 SLOAD PUSH2 0x5AE SWAP1 PUSH2 0xF5E JUMP JUMPDEST DUP1 ISZERO PUSH2 0x5FB JUMPI DUP1 PUSH1 0x1F LT PUSH2 0x5D0 JUMPI PUSH2 0x100 DUP1 DUP4 SLOAD DIV MUL DUP4 MSTORE SWAP2 PUSH1 0x20 ADD SWAP2 PUSH2 0x5FB JUMP JUMPDEST DUP3 ADD SWAP2 SWAP1 PUSH1 0x0 MSTORE PUSH1 0x20 PUSH1 0x0 KECCAK256 SWAP1 JUMPDEST DUP2 SLOAD DUP2 MSTORE SWAP1 PUSH1 0x1 ADD SWAP1 PUSH1 0x20 ADD DUP1 DUP4 GT PUSH2 0x5DE JUMPI DUP3 SWAP1 SUB PUSH1 0x1F AND DUP3 ADD SWAP2 JUMPDEST POP POP POP POP POP SWAP1 DUP1 PUSH1 0x5 ADD PUSH1 0x0 SWAP1 SLOAD SWAP1 PUSH2 0x100 EXP SWAP1 DIV PUSH1 0xFF AND SWAP1 DUP1 PUSH1 0x6 ADD SLOAD SWAP1 POP DUP8 JUMP JUMPDEST PUSH2 0x626 PUSH2 0x716 JUMP JUMPDEST PUSH20 0xFFFFFFFFFFFFFFFFFFFFFFFFFFFFFFFFFFFFFFFF AND PUSH2 0x644 PUSH2 0x2D6 JUMP JUMPDEST PUSH20 0xFFFFFFFFFFFFFFFFFFFFFFFFFFFFFFFFFFFFFFFF AND EQ PUSH2 0x69A JUMPI PUSH1 0x40 MLOAD PUSH32 0x8C379A000000000000000000000000000000000000000000000000000000000 DUP2 MSTORE PUSH1 0x4 ADD PUSH2 0x691 SWAP1 PUSH2 0xC6A JUMP JUMPDEST PUSH1 0x40 MLOAD DUP1 SWAP2 SUB SWAP1 REVERT JUMPDEST PUSH1 0x0 PUSH20 0xFFFFFFFFFFFFFFFFFFFFFFFFFFFFFFFFFFFFFFFF AND DUP2 PUSH20 0xFFFFFFFFFFFFFFFFFFFFFFFFFFFFFFFFFFFFFFFF AND EQ ISZERO PUSH2 0x70A JUMPI PUSH1 0x40 MLOAD PUSH32 0x8C379A000000000000000000000000000000000000000000000000000000000 DUP2 MSTORE PUSH1 0x4 ADD PUSH2 0x701 SWAP1 PUSH2 0xC2A JUMP JUMPDEST PUSH1 0x40 MLOAD DUP1 SWAP2 SUB SWAP1 REVERT JUMPDEST PUSH2 0x713 DUP2 PUSH2 0x71E JUMP JUMPDEST POP JUMP JUMPDEST PUSH1 0x0 CALLER SWAP1 POP SWAP1 JUMP JUMPDEST PUSH1 0x0 DUP1 PUSH1 0x0 SWAP1 SLOAD SWAP1 PUSH2 0x100 EXP SWAP1 DIV PUSH20 0xFFFFFFFFFFFFFFFFFFFFFFFFFFFFFFFFFFFFFFFF AND SWAP1 POP DUP2 PUSH1 0x0 DUP1 PUSH2 0x100 EXP DUP2 SLOAD DUP2 PUSH20 0xFFFFFFFFFFFFFFFFFFFFFFFFFFFFFFFFFFFFFFFF MUL NOT AND SWAP1 DUP4 PUSH20 0xFFFFFFFFFFFFFFFFFFFFFFFFFFFFFFFFFFFFFFFF AND MUL OR SWAP1 SSTORE POP DUP2 PUSH20 0xFFFFFFFFFFFFFFFFFFFFFFFFFFFFFFFFFFFFFFFF AND DUP2 PUSH20 0xFFFFFFFFFFFFFFFFFFFFFFFFFFFFFFFFFFFFFFFF AND PUSH32 0x8BE0079C531659141344CD1FD0A4F28419497F9722A3DAAFE3B4186F6B6457E0 PUSH1 0x40 MLOAD PUSH1 0x40 MLOAD DUP1 SWAP2 SUB SWAP1 LOG3 POP POP JUMP JUMPDEST PUSH1 0x0 DUP1 DUP5 DUP5 DUP5 PUSH1 0x40 MLOAD PUSH1 0x20 ADD PUSH2 0x7FA SWAP4 SWAP3 SWAP2 SWAP1 PUSH2 0xBBB JUMP JUMPDEST PUSH1 0x40 MLOAD PUSH1 0x20 DUP2 DUP4 SUB SUB DUP2 MSTORE SWAP1 PUSH1 0x40 MSTORE DUP1 MLOAD SWAP1 PUSH1 0x20 ADD KECCAK256 PUSH1 0x0 SHR SWAP1 POP PUSH1 0x3 SLOAD DUP2 PUSH2 0x823 SWAP2 SWAP1 PUSH2 0xFEF JUMP JUMPDEST SWAP2 POP POP SWAP4 SWAP3 POP POP POP JUMP JUMPDEST DUP3 DUP1 SLOAD PUSH2 0x839 SWAP1 PUSH2 0xF5E JUMP JUMPDEST SWAP1 PUSH1 0x0 MSTORE PUSH1 0x20 PUSH1 0x0 KECCAK256 SWAP1 PUSH1 0x1F ADD PUSH1 0x20 SWAP1 DIV DUP2 ADD SWAP3 DUP3 PUSH2 0x85B JUMPI PUSH1 0x0 DUP6 SSTORE PUSH2 0x8A2 JUMP JUMPDEST DUP3 PUSH1 0x1F LT PUSH2 0x874 JUMPI DUP1 MLOAD PUSH1 0xFF NOT AND DUP4 DUP1 ADD OR DUP6 SSTORE PUSH2 0x8A2 JUMP JUMPDEST DUP3 DUP1 ADD PUSH1 0x1 ADD DUP6 SSTORE DUP3 ISZERO PUSH2 0x8A2 JUMPI SWAP2 DUP3 ADD JUMPDEST DUP3 DUP2 GT ISZERO PUSH2 0x8A1 JUMPI DUP3 MLOAD DUP3 SSTORE SWAP2 PUSH1 0x20 ADD SWAP2 SWAP1 PUSH1 0x1 ADD SWAP1 PUSH2 0x886 JUMP JUMPDEST JUMPDEST POP SWAP1 POP PUSH2 0x8AF SWAP2 SWAP1 PUSH2 0x8B3 JUMP JUMPDEST POP SWAP1 JUMP JUMPDEST JUMPDEST DUP1 DUP3 GT ISZERO PUSH2 0x8CC JUMPI PUSH1 0x0 DUP2 PUSH1 0x0 SWAP1 SSTORE POP PUSH1 0x1 ADD PUSH2 0x8B4 JUMP JUMPDEST POP SWAP1 JUMP JUMPDEST PUSH1 0x0 PUSH2 0x8E3 PUSH2 0x8DE DUP5 PUSH2 0xDCC JUMP JUMPDEST PUSH2 0xDA7 JUMP JUMPDEST SWAP1 POP DUP3 DUP2 MSTORE PUSH1 0x20 DUP2 ADD DUP5 DUP5 DUP5 ADD GT ISZERO PUSH2 0x8FF JUMPI PUSH2 0x8FE PUSH2 0x10E1 JUMP JUMPDEST JUMPDEST PUSH2 0x90A DUP5 DUP3 DUP6 PUSH2 0xF1C JUMP JUMPDEST POP SWAP4 SWAP3 POP POP POP JUMP JUMPDEST PUSH1 0x0 DUP2 CALLDATALOAD SWAP1 POP PUSH2 0x921 DUP2 PUSH2 0x1227 JUMP JUMPDEST SWAP3 SWAP2 POP POP JUMP JUMPDEST PUSH1 0x0 DUP3 PUSH1 0x1F DUP4 ADD SLT PUSH2 0x93C JUMPI PUSH2 0x93B PUSH2 0x10DC JUMP JUMPDEST JUMPDEST DUP2 CALLDATALOAD PUSH2 0x94C DUP5 DUP3 PUSH1 0x20 DUP7 ADD PUSH2 0x8D0 JUMP JUMPDEST SWAP2 POP POP SWAP3 SWAP2 POP POP JUMP JUMPDEST PUSH1 0x0 DUP2 CALLDATALOAD SWAP1 POP PUSH2 0x964 DUP2 PUSH2 0x123E JUMP JUMPDEST SWAP3 SWAP2 POP POP JUMP JUMPDEST PUSH1 0x0 PUSH1 0x20 DUP3 DUP5 SUB SLT ISZERO PUSH2 0x980 JUMPI PUSH2 0x97F PUSH2 0x10EB JUMP JUMPDEST JUMPDEST PUSH1 0x0 PUSH2 0x98E DUP5 DUP3 DUP6 ADD PUSH2 0x912 JUMP JUMPDEST SWAP2 POP POP SWAP3 SWAP2 POP POP JUMP JUMPDEST PUSH1 0x0 PUSH1 0x20 DUP3 DUP5 SUB SLT ISZERO PUSH2 0x9AD JUMPI PUSH2 0x9AC PUSH2 0x10EB JUMP JUMPDEST JUMPDEST PUSH1 0x0 PUSH2 0x9BB DUP5 DUP3 DUP6 ADD PUSH2 0x955 JUMP JUMPDEST SWAP2 POP POP SWAP3 SWAP2 POP POP JUMP JUMPDEST PUSH1 0x0 DUP1 PUSH1 0x0 DUP1 PUSH1 0x80 DUP6 DUP8 SUB SLT ISZERO PUSH2 0x9DE JUMPI PUSH2 0x9DD PUSH2 0x10EB JUMP JUMPDEST JUMPDEST PUSH1 0x0 PUSH2 0x9EC DUP8 DUP3 DUP9 ADD PUSH2 0x955 JUMP JUMPDEST SWAP5 POP POP PUSH1 0x20 PUSH2 0x9FD DUP8 DUP3 DUP9 ADD PUSH2 0x955 JUMP JUMPDEST SWAP4 POP POP PUSH1 0x40 PUSH2 0xA0E DUP8 DUP3 DUP9 ADD PUSH2 0x912 JUMP JUMPDEST SWAP3 POP POP PUSH1 0x60 DUP6 ADD CALLDATALOAD PUSH8 0xFFFFFFFFFFFFFFFF DUP2 GT ISZERO PUSH2 0xA2F JUMPI PUSH2 0xA2E PUSH2 0x10E6 JUMP JUMPDEST JUMPDEST PUSH2 0xA3B DUP8 DUP3 DUP9 ADD PUSH2 0x927 JUMP JUMPDEST SWAP2 POP POP SWAP3 SWAP6 SWAP2 SWAP5 POP SWAP3 POP JUMP JUMPDEST PUSH2 0xA50 DUP2 PUSH2 0xED4 JUMP JUMPDEST DUP3 MSTORE POP POP JUMP JUMPDEST PUSH2 0xA67 PUSH2 0xA62 DUP3 PUSH2 0xED4 JUMP JUMPDEST PUSH2 0xFC1 JUMP JUMPDEST DUP3 MSTORE POP POP JUMP JUMPDEST PUSH2 0xA76 DUP2 PUSH2 0xEE6 JUMP JUMPDEST DUP3 MSTORE POP POP JUMP JUMPDEST PUSH1 0x0 PUSH2 0xA87 DUP3 PUSH2 0xDFD JUMP JUMPDEST PUSH2 0xA91 DUP2 DUP6 PUSH2 0xE08 JUMP JUMPDEST SWAP4 POP PUSH2 0xAA1 DUP2 DUP6 PUSH1 0x20 DUP7 ADD PUSH2 0xF2B JUMP JUMPDEST PUSH2 0xAAA DUP2 PUSH2 0x10F0 JUMP JUMPDEST DUP5 ADD SWAP2 POP POP SWAP3 SWAP2 POP POP JUMP JUMPDEST PUSH1 0x0 PUSH2 0xAC0 DUP3 PUSH2 0xDFD JUMP JUMPDEST PUSH2 0xACA DUP2 DUP6 PUSH2 0xE19 JUMP JUMPDEST SWAP4 POP PUSH2 0xADA DUP2 DUP6 PUSH1 0x20 DUP7 ADD PUSH2 0xF2B JUMP JUMPDEST DUP1 DUP5 ADD SWAP2 POP POP SWAP3 SWAP2 POP POP JUMP JUMPDEST PUSH1 0x0 PUSH2 0xAF3 PUSH1 0x26 DUP4 PUSH2 0xE08 JUMP JUMPDEST SWAP2 POP PUSH2 0xAFE DUP3 PUSH2 0x110E JUMP JUMPDEST PUSH1 0x40 DUP3 ADD SWAP1 POP SWAP2 SWAP1 POP JUMP JUMPDEST PUSH1 0x0 PUSH2 0xB16 PUSH1 0x14 DUP4 PUSH2 0xE08 JUMP JUMPDEST SWAP2 POP PUSH2 0xB21 DUP3 PUSH2 0x115D JUMP JUMPDEST PUSH1 0x20 DUP3 ADD SWAP1 POP SWAP2 SWAP1 POP JUMP JUMPDEST PUSH1 0x0 PUSH2 0xB39 PUSH1 0x20 DUP4 PUSH2 0xE08 JUMP JUMPDEST SWAP2 POP PUSH2 0xB44 DUP3 PUSH2 0x1186 JUMP JUMPDEST PUSH1 0x20 DUP3 ADD SWAP1 POP SWAP2 SWAP1 POP JUMP JUMPDEST PUSH1 0x0 PUSH2 0xB5C PUSH1 0x1B DUP4 PUSH2 0xE08 JUMP JUMPDEST SWAP2 POP PUSH2 0xB67 DUP3 PUSH2 0x11AF JUMP JUMPDEST PUSH1 0x20 DUP3 ADD SWAP1 POP SWAP2 SWAP1 POP JUMP JUMPDEST PUSH1 0x0 PUSH2 0xB7F PUSH1 0x2B DUP4 PUSH2 0xE08 JUMP JUMPDEST SWAP2 POP PUSH2 0xB8A DUP3 PUSH2 0x11D8 JUMP JUMPDEST PUSH1 0x40 DUP3 ADD SWAP1 POP SWAP2 SWAP1 POP JUMP JUMPDEST PUSH2 0xB9E DUP2 PUSH2 0xF12 JUMP JUMPDEST DUP3 MSTORE POP POP JUMP JUMPDEST PUSH2 0xBB5 PUSH2 0xBB0 DUP3 PUSH2 0xF12 JUMP JUMPDEST PUSH2 0xFE5 JUMP JUMPDEST DUP3 MSTORE POP POP JUMP JUMPDEST PUSH1 0x0 PUSH2 0xBC7 DUP3 DUP7 PUSH2 0xA56 JUMP JUMPDEST PUSH1 0x14 DUP3 ADD SWAP2 POP PUSH2 0xBD7 DUP3 DUP6 PUSH2 0xBA4 JUMP JUMPDEST PUSH1 0x20 DUP3 ADD SWAP2 POP PUSH2 0xBE7 DUP3 DUP5 PUSH2 0xAB5 JUMP JUMPDEST SWAP2 POP DUP2 SWAP1 POP SWAP5 SWAP4 POP POP POP POP JUMP JUMPDEST PUSH1 0x0 PUSH1 0x20 DUP3 ADD SWAP1 POP PUSH2 0xC09 PUSH1 0x0 DUP4 ADD DUP5 PUSH2 0xA47 JUMP JUMPDEST SWAP3 SWAP2 POP POP JUMP JUMPDEST PUSH1 0x0 PUSH1 0x20 DUP3 ADD SWAP1 POP PUSH2 0xC24 PUSH1 0x0 DUP4 ADD DUP5 PUSH2 0xA6D JUMP JUMPDEST SWAP3 SWAP2 POP POP JUMP JUMPDEST PUSH1 0x0 PUSH1 0x20 DUP3 ADD SWAP1 POP DUP2 DUP2 SUB PUSH1 0x0 DUP4 ADD MSTORE PUSH2 0xC43 DUP2 PUSH2 0xAE6 JUMP JUMPDEST SWAP1 POP SWAP2 SWAP1 POP JUMP JUMPDEST PUSH1 0x0 PUSH1 0x20 DUP3 ADD SWAP1 POP DUP2 DUP2 SUB PUSH1 0x0 DUP4 ADD MSTORE PUSH2 0xC63 DUP2 PUSH2 0xB09 JUMP JUMPDEST SWAP1 POP SWAP2 SWAP1 POP JUMP JUMPDEST PUSH1 0x0 PUSH1 0x20 DUP3 ADD SWAP1 POP DUP2 DUP2 SUB PUSH1 0x0 DUP4 ADD MSTORE PUSH2 0xC83 DUP2 PUSH2 0xB2C JUMP JUMPDEST SWAP1 POP SWAP2 SWAP1 POP JUMP JUMPDEST PUSH1 0x0 PUSH1 0x20 DUP3 ADD SWAP1 POP DUP2 DUP2 SUB PUSH1 0x0 DUP4 ADD MSTORE PUSH2 0xCA3 DUP2 PUSH2 0xB4F JUMP JUMPDEST SWAP1 POP SWAP2 SWAP1 POP JUMP JUMPDEST PUSH1 0x0 PUSH1 0x20 DUP3 ADD SWAP1 POP DUP2 DUP2 SUB PUSH1 0x0 DUP4 ADD MSTORE PUSH2 0xCC3 DUP2 PUSH2 0xB72 JUMP JUMPDEST SWAP1 POP SWAP2 SWAP1 POP JUMP JUMPDEST PUSH1 0x0 PUSH1 0x20 DUP3 ADD SWAP1 POP PUSH2 0xCDF PUSH1 0x0 DUP4 ADD DUP5 PUSH2 0xB95 JUMP JUMPDEST SWAP3 SWAP2 POP POP JUMP JUMPDEST PUSH1 0x0 PUSH1 0x80 DUP3 ADD SWAP1 POP PUSH2 0xCFA PUSH1 0x0 DUP4 ADD DUP8 PUSH2 0xB95 JUMP JUMPDEST PUSH2 0xD07 PUSH1 0x20 DUP4 ADD DUP7 PUSH2 0xA47 JUMP JUMPDEST PUSH2 0xD14 PUSH1 0x40 DUP4 ADD DUP6 PUSH2 0xB95 JUMP JUMPDEST DUP2 DUP2 SUB PUSH1 0x60 DUP4 ADD MSTORE PUSH2 0xD26 DUP2 DUP5 PUSH2 0xA7C JUMP JUMPDEST SWAP1 POP SWAP6 SWAP5 POP POP POP POP POP JUMP JUMPDEST PUSH1 0x0 PUSH1 0xE0 DUP3 ADD SWAP1 POP PUSH2 0xD46 PUSH1 0x0 DUP4 ADD DUP11 PUSH2 0xB95 JUMP JUMPDEST PUSH2 0xD53 PUSH1 0x20 DUP4 ADD DUP10 PUSH2 0xB95 JUMP JUMPDEST PUSH2 0xD60 PUSH1 0x40 DUP4 ADD DUP9 PUSH2 0xB95 JUMP JUMPDEST PUSH2 0xD6D PUSH1 0x60 DUP4 ADD DUP8 PUSH2 0xA47 JUMP JUMPDEST DUP2 DUP2 SUB PUSH1 0x80 DUP4 ADD MSTORE PUSH2 0xD7F DUP2 DUP7 PUSH2 0xA7C JUMP JUMPDEST SWAP1 POP PUSH2 0xD8E PUSH1 0xA0 DUP4 ADD DUP6 PUSH2 0xA6D JUMP JUMPDEST PUSH2 0xD9B PUSH1 0xC0 DUP4 ADD DUP5 PUSH2 0xB95 JUMP JUMPDEST SWAP9 SWAP8 POP POP POP POP POP POP POP POP JUMP JUMPDEST PUSH1 0x0 PUSH2 0xDB1 PUSH2 0xDC2 JUMP JUMPDEST SWAP1 POP PUSH2 0xDBD DUP3 DUP3 PUSH2 0xF90 JUMP JUMPDEST SWAP2 SWAP1 POP JUMP JUMPDEST PUSH1 0x0 PUSH1 0x40 MLOAD SWAP1 POP SWAP1 JUMP JUMPDEST PUSH1 0x0 PUSH8 0xFFFFFFFFFFFFFFFF DUP3 GT ISZERO PUSH2 0xDE7 JUMPI PUSH2 0xDE6 PUSH2 0x10AD JUMP JUMPDEST JUMPDEST PUSH2 0xDF0 DUP3 PUSH2 0x10F0 JUMP JUMPDEST SWAP1 POP PUSH1 0x20 DUP2 ADD SWAP1 POP SWAP2 SWAP1 POP JUMP JUMPDEST PUSH1 0x0 DUP2 MLOAD SWAP1 POP SWAP2 SWAP1 POP JUMP JUMPDEST PUSH1 0x0 DUP3 DUP3 MSTORE PUSH1 0x20 DUP3 ADD SWAP1 POP SWAP3 SWAP2 POP POP JUMP JUMPDEST PUSH1 0x0 DUP2 SWAP1 POP SWAP3 SWAP2 POP POP JUMP JUMPDEST PUSH1 0x0 PUSH2 0xE2F DUP3 PUSH2 0xF12 JUMP JUMPDEST SWAP2 POP PUSH2 0xE3A DUP4 PUSH2 0xF12 JUMP JUMPDEST SWAP3 POP DUP3 PUSH32 0xFFFFFFFFFFFFFFFFFFFFFFFFFFFFFFFFFFFFFFFFFFFFFFFFFFFFFFFFFFFFFFFF SUB DUP3 GT ISZERO PUSH2 0xE6F JUMPI PUSH2 0xE6E PUSH2 0x1020 JUMP JUMPDEST JUMPDEST DUP3 DUP3 ADD SWAP1 POP SWAP3 SWAP2 POP POP JUMP JUMPDEST PUSH1 0x0 PUSH2 0xE85 DUP3 PUSH2 0xF12 JUMP JUMPDEST SWAP2 POP PUSH2 0xE90 DUP4 PUSH2 0xF12 JUMP JUMPDEST SWAP3 POP DUP2 PUSH32 0xFFFFFFFFFFFFFFFFFFFFFFFFFFFFFFFFFFFFFFFFFFFFFFFFFFFFFFFFFFFFFFFF DIV DUP4 GT DUP3 ISZERO ISZERO AND ISZERO PUSH2 0xEC9 JUMPI PUSH2 0xEC8 PUSH2 0x1020 JUMP JUMPDEST JUMPDEST DUP3 DUP3 MUL SWAP1 POP SWAP3 SWAP2 POP POP JUMP JUMPDEST PUSH1 0x0 PUSH2 0xEDF DUP3 PUSH2 0xEF2 JUMP JUMPDEST SWAP1 POP SWAP2 SWAP1 POP JUMP JUMPDEST PUSH1 0x0 DUP2 ISZERO ISZERO SWAP1 POP SWAP2 SWAP1 POP JUMP JUMPDEST PUSH1 0x0 PUSH20 0xFFFFFFFFFFFFFFFFFFFFFFFFFFFFFFFFFFFFFFFF DUP3 AND SWAP1 POP SWAP2 SWAP1 POP JUMP JUMPDEST PUSH1 0x0 DUP2 SWAP1 POP SWAP2 SWAP1 POP JUMP JUMPDEST DUP3 DUP2 DUP4 CALLDATACOPY PUSH1 0x0 DUP4 DUP4 ADD MSTORE POP POP POP JUMP JUMPDEST PUSH1 0x0 JUMPDEST DUP4 DUP2 LT ISZERO PUSH2 0xF49 JUMPI DUP1 DUP3 ADD MLOAD DUP2 DUP5 ADD MSTORE PUSH1 0x20 DUP2 ADD SWAP1 POP PUSH2 0xF2E JUMP JUMPDEST DUP4 DUP2 GT ISZERO PUSH2 0xF58 JUMPI PUSH1 0x0 DUP5 DUP5 ADD MSTORE JUMPDEST POP POP POP POP JUMP JUMPDEST PUSH1 0x0 PUSH1 0x2 DUP3 DIV SWAP1 POP PUSH1 0x1 DUP3 AND DUP1 PUSH2 0xF76 JUMPI PUSH1 0x7F DUP3 AND SWAP2 POP JUMPDEST PUSH1 0x20 DUP3 LT DUP2 EQ ISZERO PUSH2 0xF8A JUMPI PUSH2 0xF89 PUSH2 0x107E JUMP JUMPDEST JUMPDEST POP SWAP2 SWAP1 POP JUMP JUMPDEST PUSH2 0xF99 DUP3 PUSH2 0x10F0 JUMP JUMPDEST DUP2 ADD DUP2 DUP2 LT PUSH8 0xFFFFFFFFFFFFFFFF DUP3 GT OR ISZERO PUSH2 0xFB8 JUMPI PUSH2 0xFB7 PUSH2 0x10AD JUMP JUMPDEST JUMPDEST DUP1 PUSH1 0x40 MSTORE POP POP POP JUMP JUMPDEST PUSH1 0x0 PUSH2 0xFCC DUP3 PUSH2 0xFD3 JUMP JUMPDEST SWAP1 POP SWAP2 SWAP1 POP JUMP JUMPDEST PUSH1 0x0 PUSH2 0xFDE DUP3 PUSH2 0x1101 JUMP JUMPDEST SWAP1 POP SWAP2 SWAP1 POP JUMP JUMPDEST PUSH1 0x0 DUP2 SWAP1 POP SWAP2 SWAP1 POP JUMP JUMPDEST PUSH1 0x0 PUSH2 0xFFA DUP3 PUSH2 0xF12 JUMP JUMPDEST SWAP2 POP PUSH2 0x1005 DUP4 PUSH2 0xF12 JUMP JUMPDEST SWAP3 POP DUP3 PUSH2 0x1015 JUMPI PUSH2 0x1014 PUSH2 0x104F JUMP JUMPDEST JUMPDEST DUP3 DUP3 MOD SWAP1 POP SWAP3 SWAP2 POP POP JUMP JUMPDEST PUSH32 0x4E487B7100000000000000000000000000000000000000000000000000000000 PUSH1 0x0 MSTORE PUSH1 0x11 PUSH1 0x4 MSTORE PUSH1 0x24 PUSH1 0x0 REVERT JUMPDEST PUSH32 0x4E487B7100000000000000000000000000000000000000000000000000000000 PUSH1 0x0 MSTORE PUSH1 0x12 PUSH1 0x4 MSTORE PUSH1 0x24 PUSH1 0x0 REVERT JUMPDEST PUSH32 0x4E487B7100000000000000000000000000000000000000000000000000000000 PUSH1 0x0 MSTORE PUSH1 0x22 PUSH1 0x4 MSTORE PUSH1 0x24 PUSH1 0x0 REVERT JUMPDEST PUSH32 0x4E487B7100000000000000000000000000000000000000000000000000000000 PUSH1 0x0 MSTORE PUSH1 0x41 PUSH1 0x4 MSTORE PUSH1 0x24 PUSH1 0x0 REVERT JUMPDEST PUSH1 0x0 DUP1 REVERT JUMPDEST PUSH1 0x0 DUP1 REVERT JUMPDEST PUSH1 0x0 DUP1 REVERT JUMPDEST PUSH1 0x0 DUP1 REVERT JUMPDEST PUSH1 0x0 PUSH1 0x1F NOT PUSH1 0x1F DUP4 ADD AND SWAP1 POP SWAP2 SWAP1 POP JUMP JUMPDEST PUSH1 0x0 DUP2 PUSH1 0x60 SHL SWAP1 POP SWAP2 SWAP1 POP JUMP JUMPDEST PUSH32 0x4F776E61626C653A206E6577206F776E657220697320746865207A65726F2061 PUSH1 0x0 DUP3 ADD MSTORE PUSH32 0x6464726573730000000000000000000000000000000000000000000000000000 PUSH1 0x20 DUP3 ADD MSTORE POP JUMP JUMPDEST PUSH32 0x76616C75652063616E6E6F74206265206E756C6C000000000000000000000000 PUSH1 0x0 DUP3 ADD MSTORE POP JUMP JUMPDEST PUSH32 0x4F776E61626C653A2063616C6C6572206973206E6F7420746865206F776E6572 PUSH1 0x0 DUP3 ADD MSTORE POP JUMP JUMPDEST PUSH32 0x7468697320686F757365496420616C7265616479206578697374730000000000 PUSH1 0x0 DUP3 ADD MSTORE POP JUMP JUMPDEST PUSH32 0x596F7520646F206E6F7420686176652061636365737320746F2064656C657465 PUSH1 0x0 DUP3 ADD MSTORE PUSH32 0x207468697320686F757365000000000000000000000000000000000000000000 PUSH1 0x20 DUP3 ADD MSTORE POP JUMP JUMPDEST PUSH2 0x1230 DUP2 PUSH2 0xED4 JUMP JUMPDEST DUP2 EQ PUSH2 0x123B JUMPI PUSH1 0x0 DUP1 REVERT JUMPDEST POP JUMP JUMPDEST PUSH2 0x1247 DUP2 PUSH2 0xF12 JUMP JUMPDEST DUP2 EQ PUSH2 0x1252 JUMPI PUSH1 0x0 DUP1 REVERT JUMPDEST POP JUMP INVALID LOG2 PUSH5 0x6970667358 0x22 SLT KECCAK256 PUSH30 0x34C76002EEFD9FE7E25A62B13EB82E15F99517A72D5E2650EF8E7927F083 0xCD PUSH5 0x736F6C6343 STOP ADDMOD SMOD STOP CALLER "
				},
				"gasEstimates": {
					"creation": {
						"codeDepositCost": "949400",
						"executionCost": "infinite",
						"totalCost": "infinite"
					},
					"external": {
						"_canOwnerAdd(uint256)": "638",
						"delistHouse(uint256)": "27012",
						"houses(uint256)": "infinite",
						"listHouse(uint256,uint256,address,string)": "infinite",
						"owner()": "2567",
						"renounceOwnership()": "30397",
						"transferOwnership(address)": "30789"
					},
					"internal": {
						"_generateHouseId(address,uint256,string memory)": "infinite"
					}
				},
				"methodIdentifiers": {
					"_canOwnerAdd(uint256)": "a28691ab",
					"delistHouse(uint256)": "3c3b0b4a",
					"houses(uint256)": "aeda852f",
					"listHouse(uint256,uint256,address,string)": "91bfe0d4",
					"owner()": "8da5cb5b",
					"renounceOwnership()": "715018a6",
					"transferOwnership(address)": "f2fde38b"
				}
			},
			"storageLayout": {
				"storage": [
					{
						"astId": 199,
						"contract": "contract/HouseRegistry.sol:HouseRegistry",
						"label": "_owner",
						"offset": 0,
						"slot": "0",
						"type": "t_address"
					},
					{
						"astId": 201,
						"contract": "contract/HouseRegistry.sol:HouseRegistry",
						"label": "ownerAddCooldown",
						"offset": 0,
						"slot": "1",
						"type": "t_uint256"
					},
					{
						"astId": 7,
						"contract": "contract/HouseRegistry.sol:HouseRegistry",
						"label": "digits",
						"offset": 0,
						"slot": "2",
						"type": "t_uint256"
					},
					{
						"astId": 12,
						"contract": "contract/HouseRegistry.sol:HouseRegistry",
						"label": "modulus",
						"offset": 0,
						"slot": "3",
						"type": "t_uint256"
					},
					{
						"astId": 15,
						"contract": "contract/HouseRegistry.sol:HouseRegistry",
						"label": "cooldownTime",
						"offset": 0,
						"slot": "4",
						"type": "t_uint256"
					},
					{
						"astId": 45,
						"contract": "contract/HouseRegistry.sol:HouseRegistry",
						"label": "houses",
						"offset": 0,
						"slot": "5",
						"type": "t_mapping(t_uint256,t_struct(House)30_storage)"
					}
				],
				"types": {
					"t_address": {
						"encoding": "inplace",
						"label": "address",
						"numberOfBytes": "20"
					},
					"t_bool": {
						"encoding": "inplace",
						"label": "bool",
						"numberOfBytes": "1"
					},
					"t_mapping(t_uint256,t_struct(House)30_storage)": {
						"encoding": "mapping",
						"key": "t_uint256",
						"label": "mapping(uint256 => struct HouseRegistry.House)",
						"numberOfBytes": "32",
						"value": "t_struct(House)30_storage"
					},
					"t_string_storage": {
						"encoding": "bytes",
						"label": "string",
						"numberOfBytes": "32"
					},
					"t_struct(House)30_storage": {
						"encoding": "inplace",
						"label": "struct HouseRegistry.House",
						"members": [
							{
								"astId": 17,
								"contract": "contract/HouseRegistry.sol:HouseRegistry",
								"label": "id",
								"offset": 0,
								"slot": "0",
								"type": "t_uint256"
							},
							{
								"astId": 19,
								"contract": "contract/HouseRegistry.sol:HouseRegistry",
								"label": "price",
								"offset": 0,
								"slot": "1",
								"type": "t_uint256"
							},
							{
								"astId": 21,
								"contract": "contract/HouseRegistry.sol:HouseRegistry",
								"label": "area",
								"offset": 0,
								"slot": "2",
								"type": "t_uint256"
							},
							{
								"astId": 23,
								"contract": "contract/HouseRegistry.sol:HouseRegistry",
								"label": "sellerAddress",
								"offset": 0,
								"slot": "3",
								"type": "t_address"
							},
							{
								"astId": 25,
								"contract": "contract/HouseRegistry.sol:HouseRegistry",
								"label": "houseAddress",
								"offset": 0,
								"slot": "4",
								"type": "t_string_storage"
							},
							{
								"astId": 27,
								"contract": "contract/HouseRegistry.sol:HouseRegistry",
								"label": "isdelistedHouse",
								"offset": 0,
								"slot": "5",
								"type": "t_bool"
							},
							{
								"astId": 29,
								"contract": "contract/HouseRegistry.sol:HouseRegistry",
								"label": "readyTime",
								"offset": 0,
								"slot": "6",
								"type": "t_uint256"
							}
						],
						"numberOfBytes": "224"
					},
					"t_uint256": {
						"encoding": "inplace",
						"label": "uint256",
						"numberOfBytes": "32"
					}
				}
			},
			"userdoc": {
				"kind": "user",
				"methods": {},
				"version": 1
			}
		}
	}
}