{
	"contract/HouseRegistryExt.sol": {
		"HouseRegistryExt": {
			"abi": [
				{
					"anonymous": false,
					"inputs": [
						{
							"indexed": false,
							"internalType": "uint256",
							"name": "houseId",
							"type": "uint256"
						},
						{
							"indexed": false,
							"internalType": "address",
							"name": "_sellerAddress",
							"type": "address"
						},
						{
							"indexed": false,
							"internalType": "uint256",
							"name": "price",
							"type": "uint256"
						},
						{
							"indexed": false,
							"internalType": "string",
							"name": "houseAddress",
							"type": "string"
						}
					],
					"name": "AddNewHouse",
					"type": "event"
				},
				{
					"anonymous": false,
					"inputs": [
						{
							"indexed": true,
							"internalType": "address",
							"name": "previousOwner",
							"type": "address"
						},
						{
							"indexed": true,
							"internalType": "address",
							"name": "newOwner",
							"type": "address"
						}
					],
					"name": "OwnershipTransferred",
					"type": "event"
				},
				{
					"inputs": [
						{
							"internalType": "uint256",
							"name": "_timeNow",
							"type": "uint256"
						}
					],
					"name": "_canOwnerAdd",
					"outputs": [
						{
							"internalType": "bool",
							"name": "",
							"type": "bool"
						}
					],
					"stateMutability": "view",
					"type": "function"
				},
				{
					"inputs": [
						{
							"internalType": "uint256",
							"name": "houseId",
							"type": "uint256"
						}
					],
					"name": "delistHouse",
					"outputs": [],
					"stateMutability": "nonpayable",
					"type": "function"
				},
				{
					"inputs": [
						{
							"internalType": "uint256",
							"name": "",
							"type": "uint256"
						}
					],
					"name": "houses",
					"outputs": [
						{
							"internalType": "uint256",
							"name": "id",
							"type": "uint256"
						},
						{
							"internalType": "uint256",
							"name": "price",
							"type": "uint256"
						},
						{
							"internalType": "uint256",
							"name": "area",
							"type": "uint256"
						},
						{
							"internalType": "address",
							"name": "sellerAddress",
							"type": "address"
						},
						{
							"internalType": "string",
							"name": "houseAddress",
							"type": "string"
						},
						{
							"internalType": "bool",
							"name": "isdelistedHouse",
							"type": "bool"
						},
						{
							"internalType": "uint256",
							"name": "readyTime",
							"type": "uint256"
						}
					],
					"stateMutability": "view",
					"type": "function"
				},
				{
					"inputs": [
						{
							"internalType": "uint256",
							"name": "_price",
							"type": "uint256"
						},
						{
							"internalType": "uint256",
							"name": "_area",
							"type": "uint256"
						},
						{
							"internalType": "address",
							"name": "_sellerAddress",
							"type": "address"
						},
						{
							"internalType": "string",
							"name": "_houseAddress",
							"type": "string"
						}
					],
					"name": "listHouse",
					"outputs": [
						{
							"internalType": "uint256",
							"name": "",
							"type": "uint256"
						}
					],
					"stateMutability": "nonpayable",
					"type": "function"
				},
				{
					"inputs": [
						{
							"internalType": "uint256",
							"name": "_price",
							"type": "uint256"
						},
						{
							"internalType": "uint256",
							"name": "_area",
							"type": "uint256"
						},
						{
							"internalType": "string",
							"name": "_houseAddress",
							"type": "string"
						}
					],
					"name": "listHouseSimple",
					"outputs": [],
					"stateMutability": "nonpayable",
					"type": "function"
				},
				{
					"inputs": [],
					"name": "owner",
					"outputs": [
						{
							"internalType": "address",
							"name": "",
							"type": "address"
						}
					],
					"stateMutability": "view",
					"type": "function"
				},
				{
					"inputs": [],
					"name": "renounceOwnership",
					"outputs": [],
					"stateMutability": "nonpayable",
					"type": "function"
				},
				{
					"inputs": [
						{
							"internalType": "address",
							"name": "newOwner",
							"type": "address"
						}
					],
					"name": "transferOwnership",
					"outputs": [],
					"stateMutability": "nonpayable",
					"type": "function"
				}
			],
			"devdoc": {
				"kind": "dev",
				"methods": {
					"owner()": {
						"details": "Returns the address of the current owner."
					},
					"renounceOwnership()": {
						"details": "Leaves the contract without owner. It will not be possible to call `onlyOwner` functions anymore. Can only be called by the current owner. NOTE: Renouncing ownership will leave the contract without an owner, thereby removing any functionality that is only available to the owner."
					},
					"transferOwnership(address)": {
						"details": "Transfers ownership of the contract to a new account (`newOwner`). Can only be called by the current owner."
					}
				},
				"version": 1
			},
			"evm": {
				"assembly": "    /* \"contract/HouseRegistryExt.sol\":99:309  contract HouseRegistryExt is HouseRegistry {\r... */\n  mstore(0x40, 0x80)\n    /* \"contract/HouseRegistry.sol\":142:143  5 */\n  0x05\n    /* \"contract/HouseRegistry.sol\":128:143  uint digits = 5 */\n  0x02\n  sstore\n    /* \"contract/HouseRegistry.sol\":170:176  digits */\n  sload(0x02)\n    /* \"contract/HouseRegistry.sol\":164:166  10 */\n  0x0a\n    /* \"contract/HouseRegistry.sol\":164:176  10 ** digits */\n  tag_1\n  swap2\n  swap1\n  tag_2\n  jump\t// in\ntag_1:\n    /* \"contract/HouseRegistry.sol\":149:176  uint modulus = 10 ** digits */\n  0x03\n  sstore\n    /* \"contract/HouseRegistry.sol\":202:208  1 days */\n  0x015180\n    /* \"contract/HouseRegistry.sol\":182:208  uint cooldownTime = 1 days */\n  0x04\n  sstore\n    /* \"contract/HouseRegistryExt.sol\":99:309  contract HouseRegistryExt is HouseRegistry {\r... */\n  callvalue\n  dup1\n  iszero\n  tag_3\n  jumpi\n  0x00\n  dup1\n  revert\ntag_3:\n  pop\n    /* \"contract/Ownable.sol\":984:1016  _transferOwnership(_msgSender()) */\n  tag_6\n    /* \"contract/Ownable.sol\":1003:1015  _msgSender() */\n  tag_7\n    /* \"contract/Ownable.sol\":1003:1013  _msgSender */\n  shl(0x20, tag_8)\n    /* \"contract/Ownable.sol\":1003:1015  _msgSender() */\n  0x20\n  shr\n  jump\t// in\ntag_7:\n    /* \"contract/Ownable.sol\":984:1002  _transferOwnership */\n  shl(0x20, tag_9)\n    /* \"contract/Ownable.sol\":984:1016  _transferOwnership(_msgSender()) */\n  0x20\n  shr\n  jump\t// in\ntag_6:\n    /* \"contract/HouseRegistryExt.sol\":99:309  contract HouseRegistryExt is HouseRegistry {\r... */\n  jump(tag_10)\n    /* \"contract/utils/Context.sol\":656:754  function _msgSender() internal view virtual returns (address) {\r... */\ntag_8:\n    /* \"contract/utils/Context.sol\":709:716  address */\n  0x00\n    /* \"contract/utils/Context.sol\":736:746  msg.sender */\n  caller\n    /* \"contract/utils/Context.sol\":729:746  return msg.sender */\n  swap1\n  pop\n    /* \"contract/utils/Context.sol\":656:754  function _msgSender() internal view virtual returns (address) {\r... */\n  swap1\n  jump\t// out\n    /* \"contract/Ownable.sol\":2375:2566  function _transferOwnership(address newOwner) internal virtual {\r... */\ntag_9:\n    /* \"contract/Ownable.sol\":2449:2465  address oldOwner */\n  0x00\n    /* \"contract/Ownable.sol\":2468:2474  _owner */\n  dup1\n  0x00\n  swap1\n  sload\n  swap1\n  0x0100\n  exp\n  swap1\n  div\n  0xffffffffffffffffffffffffffffffffffffffff\n  and\n    /* \"contract/Ownable.sol\":2449:2474  address oldOwner = _owner */\n  swap1\n  pop\n    /* \"contract/Ownable.sol\":2494:2502  newOwner */\n  dup2\n    /* \"contract/Ownable.sol\":2485:2491  _owner */\n  0x00\n  dup1\n    /* \"contract/Ownable.sol\":2485:2502  _owner = newOwner */\n  0x0100\n  exp\n  dup2\n  sload\n  dup2\n  0xffffffffffffffffffffffffffffffffffffffff\n  mul\n  not\n  and\n  swap1\n  dup4\n  0xffffffffffffffffffffffffffffffffffffffff\n  and\n  mul\n  or\n  swap1\n  sstore\n  pop\n    /* \"contract/Ownable.sol\":2549:2557  newOwner */\n  dup2\n    /* \"contract/Ownable.sol\":2518:2558  OwnershipTransferred(oldOwner, newOwner) */\n  0xffffffffffffffffffffffffffffffffffffffff\n  and\n    /* \"contract/Ownable.sol\":2539:2547  oldOwner */\n  dup2\n    /* \"contract/Ownable.sol\":2518:2558  OwnershipTransferred(oldOwner, newOwner) */\n  0xffffffffffffffffffffffffffffffffffffffff\n  and\n  0x8be0079c531659141344cd1fd0a4f28419497f9722a3daafe3b4186f6b6457e0\n  mload(0x40)\n  mload(0x40)\n  dup1\n  swap2\n  sub\n  swap1\n  log3\n    /* \"contract/Ownable.sol\":2438:2566  {\r... */\n  pop\n    /* \"contract/Ownable.sol\":2375:2566  function _transferOwnership(address newOwner) internal virtual {\r... */\n  pop\n  jump\t// out\n    /* \"#utility.yul\":7:855   */\ntag_14:\n    /* \"#utility.yul\":68:73   */\n  0x00\n    /* \"#utility.yul\":75:79   */\n  dup1\n    /* \"#utility.yul\":99:105   */\n  dup3\n    /* \"#utility.yul\":90:105   */\n  swap2\n  pop\n    /* \"#utility.yul\":123:128   */\n  dup4\n    /* \"#utility.yul\":114:128   */\n  swap1\n  pop\n    /* \"#utility.yul\":137:849   */\ntag_16:\n    /* \"#utility.yul\":158:159   */\n  0x01\n    /* \"#utility.yul\":148:156   */\n  dup6\n    /* \"#utility.yul\":145:160   */\n  gt\n    /* \"#utility.yul\":137:849   */\n  iszero\n  tag_18\n  jumpi\n    /* \"#utility.yul\":253:257   */\n  dup1\n    /* \"#utility.yul\":248:251   */\n  dup7\n    /* \"#utility.yul\":244:258   */\n  div\n    /* \"#utility.yul\":238:242   */\n  dup2\n    /* \"#utility.yul\":235:259   */\n  gt\n    /* \"#utility.yul\":232:282   */\n  iszero\n  tag_19\n  jumpi\n    /* \"#utility.yul\":262:280   */\n  tag_20\n  tag_21\n  jump\t// in\ntag_20:\n    /* \"#utility.yul\":232:282   */\ntag_19:\n    /* \"#utility.yul\":312:313   */\n  0x01\n    /* \"#utility.yul\":302:310   */\n  dup6\n    /* \"#utility.yul\":298:314   */\n  and\n    /* \"#utility.yul\":295:746   */\n  iszero\n  tag_22\n  jumpi\n    /* \"#utility.yul\":727:731   */\n  dup1\n    /* \"#utility.yul\":720:725   */\n  dup3\n    /* \"#utility.yul\":716:732   */\n  mul\n    /* \"#utility.yul\":707:732   */\n  swap2\n  pop\n    /* \"#utility.yul\":295:746   */\ntag_22:\n    /* \"#utility.yul\":777:781   */\n  dup1\n    /* \"#utility.yul\":771:775   */\n  dup2\n    /* \"#utility.yul\":767:782   */\n  mul\n    /* \"#utility.yul\":759:782   */\n  swap1\n  pop\n    /* \"#utility.yul\":807:839   */\n  tag_23\n    /* \"#utility.yul\":830:838   */\n  dup6\n    /* \"#utility.yul\":807:839   */\n  tag_24\n  jump\t// in\ntag_23:\n    /* \"#utility.yul\":795:839   */\n  swap5\n  pop\n    /* \"#utility.yul\":137:849   */\n  jump(tag_16)\ntag_18:\n    /* \"#utility.yul\":7:855   */\n  swap5\n  pop\n  swap5\n  swap3\n  pop\n  pop\n  pop\n  jump\t// out\n    /* \"#utility.yul\":861:1146   */\ntag_2:\n    /* \"#utility.yul\":921:926   */\n  0x00\n    /* \"#utility.yul\":945:968   */\n  tag_26\n    /* \"#utility.yul\":963:967   */\n  dup3\n    /* \"#utility.yul\":945:968   */\n  tag_27\n  jump\t// in\ntag_26:\n    /* \"#utility.yul\":937:968   */\n  swap2\n  pop\n    /* \"#utility.yul\":989:1016   */\n  tag_28\n    /* \"#utility.yul\":1007:1015   */\n  dup4\n    /* \"#utility.yul\":989:1016   */\n  tag_27\n  jump\t// in\ntag_28:\n    /* \"#utility.yul\":977:1016   */\n  swap3\n  pop\n    /* \"#utility.yul\":1035:1139   */\n  tag_29\n    /* \"#utility.yul\":1072:1138   */\n  0xffffffffffffffffffffffffffffffffffffffffffffffffffffffffffffffff\n    /* \"#utility.yul\":1062:1070   */\n  dup5\n    /* \"#utility.yul\":1056:1060   */\n  dup5\n    /* \"#utility.yul\":1035:1139   */\n  tag_30\n  jump\t// in\ntag_29:\n    /* \"#utility.yul\":1026:1139   */\n  swap1\n  pop\n    /* \"#utility.yul\":861:1146   */\n  swap3\n  swap2\n  pop\n  pop\n  jump\t// out\n    /* \"#utility.yul\":1152:2225   */\ntag_30:\n    /* \"#utility.yul\":1206:1211   */\n  0x00\n    /* \"#utility.yul\":1397:1405   */\n  dup3\n    /* \"#utility.yul\":1387:1427   */\n  tag_32\n  jumpi\n    /* \"#utility.yul\":1418:1419   */\n  0x01\n    /* \"#utility.yul\":1409:1419   */\n  swap1\n  pop\n    /* \"#utility.yul\":1420:1425   */\n  jump(tag_31)\n    /* \"#utility.yul\":1387:1427   */\ntag_32:\n    /* \"#utility.yul\":1446:1450   */\n  dup2\n    /* \"#utility.yul\":1436:1472   */\n  tag_33\n  jumpi\n    /* \"#utility.yul\":1463:1464   */\n  0x00\n    /* \"#utility.yul\":1454:1464   */\n  swap1\n  pop\n    /* \"#utility.yul\":1465:1470   */\n  jump(tag_31)\n    /* \"#utility.yul\":1436:1472   */\ntag_33:\n    /* \"#utility.yul\":1532:1536   */\n  dup2\n    /* \"#utility.yul\":1580:1581   */\n  0x01\n    /* \"#utility.yul\":1575:1602   */\n  dup2\n  eq\n  tag_35\n  jumpi\n    /* \"#utility.yul\":1616:1617   */\n  0x02\n    /* \"#utility.yul\":1611:1802   */\n  dup2\n  eq\n  tag_36\n  jumpi\n    /* \"#utility.yul\":1525:1802   */\n  jump(tag_34)\n    /* \"#utility.yul\":1575:1602   */\ntag_35:\n    /* \"#utility.yul\":1593:1594   */\n  0x01\n    /* \"#utility.yul\":1584:1594   */\n  swap2\n  pop\n    /* \"#utility.yul\":1595:1600   */\n  pop\n  jump(tag_31)\n    /* \"#utility.yul\":1611:1802   */\ntag_36:\n    /* \"#utility.yul\":1656:1659   */\n  0xff\n    /* \"#utility.yul\":1646:1654   */\n  dup5\n    /* \"#utility.yul\":1643:1660   */\n  gt\n    /* \"#utility.yul\":1640:1683   */\n  iszero\n  tag_37\n  jumpi\n    /* \"#utility.yul\":1663:1681   */\n  tag_38\n  tag_21\n  jump\t// in\ntag_38:\n    /* \"#utility.yul\":1640:1683   */\ntag_37:\n    /* \"#utility.yul\":1712:1720   */\n  dup4\n    /* \"#utility.yul\":1709:1710   */\n  0x02\n    /* \"#utility.yul\":1705:1721   */\n  exp\n    /* \"#utility.yul\":1696:1721   */\n  swap2\n  pop\n    /* \"#utility.yul\":1747:1750   */\n  dup5\n    /* \"#utility.yul\":1740:1745   */\n  dup3\n    /* \"#utility.yul\":1737:1751   */\n  gt\n    /* \"#utility.yul\":1734:1774   */\n  iszero\n  tag_39\n  jumpi\n    /* \"#utility.yul\":1754:1772   */\n  tag_40\n  tag_21\n  jump\t// in\ntag_40:\n    /* \"#utility.yul\":1734:1774   */\ntag_39:\n    /* \"#utility.yul\":1787:1792   */\n  pop\n  jump(tag_31)\n    /* \"#utility.yul\":1525:1802   */\ntag_34:\n  pop\n    /* \"#utility.yul\":1911:1913   */\n  0x20\n    /* \"#utility.yul\":1901:1909   */\n  dup4\n    /* \"#utility.yul\":1898:1914   */\n  lt\n    /* \"#utility.yul\":1892:1895   */\n  0x0133\n    /* \"#utility.yul\":1886:1890   */\n  dup4\n    /* \"#utility.yul\":1883:1896   */\n  lt\n    /* \"#utility.yul\":1879:1915   */\n  and\n    /* \"#utility.yul\":1861:1863   */\n  0x4e\n    /* \"#utility.yul\":1851:1859   */\n  dup5\n    /* \"#utility.yul\":1848:1864   */\n  lt\n    /* \"#utility.yul\":1843:1845   */\n  0x0b\n    /* \"#utility.yul\":1837:1841   */\n  dup5\n    /* \"#utility.yul\":1834:1846   */\n  lt\n    /* \"#utility.yul\":1830:1865   */\n  and\n    /* \"#utility.yul\":1814:1925   */\n  or\n    /* \"#utility.yul\":1811:2057   */\n  iszero\n  tag_41\n  jumpi\n    /* \"#utility.yul\":1967:1975   */\n  dup3\n    /* \"#utility.yul\":1961:1965   */\n  dup3\n    /* \"#utility.yul\":1957:1976   */\n  exp\n    /* \"#utility.yul\":1948:1976   */\n  swap1\n  pop\n    /* \"#utility.yul\":2002:2005   */\n  dup4\n    /* \"#utility.yul\":1995:2000   */\n  dup2\n    /* \"#utility.yul\":1992:2006   */\n  gt\n    /* \"#utility.yul\":1989:2029   */\n  iszero\n  tag_42\n  jumpi\n    /* \"#utility.yul\":2009:2027   */\n  tag_43\n  tag_21\n  jump\t// in\ntag_43:\n    /* \"#utility.yul\":1989:2029   */\ntag_42:\n    /* \"#utility.yul\":2042:2047   */\n  jump(tag_31)\n    /* \"#utility.yul\":1811:2057   */\ntag_41:\n    /* \"#utility.yul\":2082:2124   */\n  tag_44\n    /* \"#utility.yul\":2120:2123   */\n  dup5\n    /* \"#utility.yul\":2110:2118   */\n  dup5\n    /* \"#utility.yul\":2104:2108   */\n  dup5\n    /* \"#utility.yul\":2101:2102   */\n  0x01\n    /* \"#utility.yul\":2082:2124   */\n  tag_14\n  jump\t// in\ntag_44:\n    /* \"#utility.yul\":2067:2124   */\n  swap3\n  pop\n  swap1\n  pop\n    /* \"#utility.yul\":2156:2160   */\n  dup2\n    /* \"#utility.yul\":2151:2154   */\n  dup5\n    /* \"#utility.yul\":2147:2161   */\n  div\n    /* \"#utility.yul\":2140:2145   */\n  dup2\n    /* \"#utility.yul\":2137:2162   */\n  gt\n    /* \"#utility.yul\":2134:2185   */\n  iszero\n  tag_45\n  jumpi\n    /* \"#utility.yul\":2165:2183   */\n  tag_46\n  tag_21\n  jump\t// in\ntag_46:\n    /* \"#utility.yul\":2134:2185   */\ntag_45:\n    /* \"#utility.yul\":2214:2218   */\n  dup2\n    /* \"#utility.yul\":2207:2212   */\n  dup2\n    /* \"#utility.yul\":2203:2219   */\n  mul\n    /* \"#utility.yul\":2194:2219   */\n  swap1\n  pop\n    /* \"#utility.yul\":1152:2225   */\ntag_31:\n  swap4\n  swap3\n  pop\n  pop\n  pop\n  jump\t// out\n    /* \"#utility.yul\":2231:2308   */\ntag_27:\n    /* \"#utility.yul\":2268:2275   */\n  0x00\n    /* \"#utility.yul\":2297:2302   */\n  dup2\n    /* \"#utility.yul\":2286:2302   */\n  swap1\n  pop\n    /* \"#utility.yul\":2231:2308   */\n  swap2\n  swap1\n  pop\n  jump\t// out\n    /* \"#utility.yul\":2314:2494   */\ntag_21:\n    /* \"#utility.yul\":2362:2439   */\n  0x4e487b7100000000000000000000000000000000000000000000000000000000\n    /* \"#utility.yul\":2359:2360   */\n  0x00\n    /* \"#utility.yul\":2352:2440   */\n  mstore\n    /* \"#utility.yul\":2459:2463   */\n  0x11\n    /* \"#utility.yul\":2456:2457   */\n  0x04\n    /* \"#utility.yul\":2449:2464   */\n  mstore\n    /* \"#utility.yul\":2483:2487   */\n  0x24\n    /* \"#utility.yul\":2480:2481   */\n  0x00\n    /* \"#utility.yul\":2473:2488   */\n  revert\n    /* \"#utility.yul\":2500:2602   */\ntag_24:\n    /* \"#utility.yul\":2542:2550   */\n  0x00\n    /* \"#utility.yul\":2589:2594   */\n  dup2\n    /* \"#utility.yul\":2586:2587   */\n  0x01\n    /* \"#utility.yul\":2582:2595   */\n  shr\n    /* \"#utility.yul\":2561:2595   */\n  swap1\n  pop\n    /* \"#utility.yul\":2500:2602   */\n  swap2\n  swap1\n  pop\n  jump\t// out\n    /* \"contract/HouseRegistryExt.sol\":99:309  contract HouseRegistryExt is HouseRegistry {\r... */\ntag_10:\n  dataSize(sub_0)\n  dup1\n  dataOffset(sub_0)\n  0x00\n  codecopy\n  0x00\n  return\nstop\n\nsub_0: assembly {\n        /* \"contract/HouseRegistryExt.sol\":99:309  contract HouseRegistryExt is HouseRegistry {\r... */\n      mstore(0x40, 0x80)\n      callvalue\n      dup1\n      iszero\n      tag_1\n      jumpi\n      0x00\n      dup1\n      revert\n    tag_1:\n      pop\n      jumpi(tag_2, lt(calldatasize, 0x04))\n      shr(0xe0, calldataload(0x00))\n      dup1\n      0xa28691ab\n      gt\n      tag_11\n      jumpi\n      dup1\n      0xa28691ab\n      eq\n      tag_7\n      jumpi\n      dup1\n      0xaeda852f\n      eq\n      tag_8\n      jumpi\n      dup1\n      0xbe40a73e\n      eq\n      tag_9\n      jumpi\n      dup1\n      0xf2fde38b\n      eq\n      tag_10\n      jumpi\n      jump(tag_2)\n    tag_11:\n      dup1\n      0x3c3b0b4a\n      eq\n      tag_3\n      jumpi\n      dup1\n      0x715018a6\n      eq\n      tag_4\n      jumpi\n      dup1\n      0x8da5cb5b\n      eq\n      tag_5\n      jumpi\n      dup1\n      0x91bfe0d4\n      eq\n      tag_6\n      jumpi\n    tag_2:\n      0x00\n      dup1\n      revert\n        /* \"contract/HouseRegistry.sol\":1385:1590  function delistHouse(uint houseId) public{... */\n    tag_3:\n      tag_12\n      0x04\n      dup1\n      calldatasize\n      sub\n      dup2\n      add\n      swap1\n      tag_13\n      swap2\n      swap1\n      tag_14\n      jump\t// in\n    tag_13:\n      tag_15\n      jump\t// in\n    tag_12:\n      stop\n        /* \"contract/Ownable.sol\":1756:1859  function renounceOwnership() public virtual onlyOwner {\r... */\n    tag_4:\n      tag_16\n      tag_17\n      jump\t// in\n    tag_16:\n      stop\n        /* \"contract/Ownable.sol\":1105:1192  function owner() public view virtual returns (address) {\r... */\n    tag_5:\n      tag_18\n      tag_19\n      jump\t// in\n    tag_18:\n      mload(0x40)\n      tag_20\n      swap2\n      swap1\n      tag_21\n      jump\t// in\n    tag_20:\n      mload(0x40)\n      dup1\n      swap2\n      sub\n      swap1\n      return\n        /* \"contract/HouseRegistry.sol\":548:1119  function listHouse (uint _price, uint _area, address _sellerAddress, string memory _houseAddress) public returns (uint) {... */\n    tag_6:\n      tag_22\n      0x04\n      dup1\n      calldatasize\n      sub\n      dup2\n      add\n      swap1\n      tag_23\n      swap2\n      swap1\n      tag_24\n      jump\t// in\n    tag_23:\n      tag_25\n      jump\t// in\n    tag_22:\n      mload(0x40)\n      tag_26\n      swap2\n      swap1\n      tag_27\n      jump\t// in\n    tag_26:\n      mload(0x40)\n      dup1\n      swap2\n      sub\n      swap1\n      return\n        /* \"contract/Ownable.sol\":2676:2793  function _canOwnerAdd(uint _timeNow) public view returns(bool){\r... */\n    tag_7:\n      tag_28\n      0x04\n      dup1\n      calldatasize\n      sub\n      dup2\n      add\n      swap1\n      tag_29\n      swap2\n      swap1\n      tag_14\n      jump\t// in\n    tag_29:\n      tag_30\n      jump\t// in\n    tag_28:\n      mload(0x40)\n      tag_31\n      swap2\n      swap1\n      tag_32\n      jump\t// in\n    tag_31:\n      mload(0x40)\n      dup1\n      swap2\n      sub\n      swap1\n      return\n        /* \"contract/HouseRegistry.sol\":505:541  mapping(uint => House) public houses */\n    tag_8:\n      tag_33\n      0x04\n      dup1\n      calldatasize\n      sub\n      dup2\n      add\n      swap1\n      tag_34\n      swap2\n      swap1\n      tag_14\n      jump\t// in\n    tag_34:\n      tag_35\n      jump\t// in\n    tag_33:\n      mload(0x40)\n      tag_36\n      swap8\n      swap7\n      swap6\n      swap5\n      swap4\n      swap3\n      swap2\n      swap1\n      tag_37\n      jump\t// in\n    tag_36:\n      mload(0x40)\n      dup1\n      swap2\n      sub\n      swap1\n      return\n        /* \"contract/HouseRegistryExt.sol\":151:306  function listHouseSimple(uint _price, uint _area, string memory _houseAddress) public{\r... */\n    tag_9:\n      tag_38\n      0x04\n      dup1\n      calldatasize\n      sub\n      dup2\n      add\n      swap1\n      tag_39\n      swap2\n      swap1\n      tag_40\n      jump\t// in\n    tag_39:\n      tag_41\n      jump\t// in\n    tag_38:\n      stop\n        /* \"contract/Ownable.sol\":2014:2215  function transferOwnership(address newOwner) public virtual onlyOwner {\r... */\n    tag_10:\n      tag_42\n      0x04\n      dup1\n      calldatasize\n      sub\n      dup2\n      add\n      swap1\n      tag_43\n      swap2\n      swap1\n      tag_44\n      jump\t// in\n    tag_43:\n      tag_45\n      jump\t// in\n    tag_42:\n      stop\n        /* \"contract/HouseRegistry.sol\":1385:1590  function delistHouse(uint houseId) public{... */\n    tag_15:\n        /* \"contract/HouseRegistry.sol\":1477:1487  msg.sender */\n      caller\n        /* \"contract/HouseRegistry.sol\":1444:1487  houses[houseId].sellerAddress == msg.sender */\n      0xffffffffffffffffffffffffffffffffffffffff\n      and\n        /* \"contract/HouseRegistry.sol\":1444:1450  houses */\n      0x05\n        /* \"contract/HouseRegistry.sol\":1444:1459  houses[houseId] */\n      0x00\n        /* \"contract/HouseRegistry.sol\":1451:1458  houseId */\n      dup4\n        /* \"contract/HouseRegistry.sol\":1444:1459  houses[houseId] */\n      dup2\n      mstore\n      0x20\n      add\n      swap1\n      dup2\n      mstore\n      0x20\n      add\n      0x00\n      keccak256\n        /* \"contract/HouseRegistry.sol\":1444:1473  houses[houseId].sellerAddress */\n      0x03\n      add\n      0x00\n      swap1\n      sload\n      swap1\n      0x0100\n      exp\n      swap1\n      div\n      0xffffffffffffffffffffffffffffffffffffffff\n      and\n        /* \"contract/HouseRegistry.sol\":1444:1487  houses[houseId].sellerAddress == msg.sender */\n      0xffffffffffffffffffffffffffffffffffffffff\n      and\n      eq\n        /* \"contract/HouseRegistry.sol\":1436:1535  require(houses[houseId].sellerAddress == msg.sender, \"You do not have access to delete this house\") */\n      tag_47\n      jumpi\n      mload(0x40)\n      0x08c379a000000000000000000000000000000000000000000000000000000000\n      dup2\n      mstore\n      0x04\n      add\n      tag_48\n      swap1\n      tag_49\n      jump\t// in\n    tag_48:\n      mload(0x40)\n      dup1\n      swap2\n      sub\n      swap1\n      revert\n    tag_47:\n        /* \"contract/HouseRegistry.sol\":1579:1583  true */\n      0x01\n        /* \"contract/HouseRegistry.sol\":1545:1551  houses */\n      0x05\n        /* \"contract/HouseRegistry.sol\":1545:1560  houses[houseId] */\n      0x00\n        /* \"contract/HouseRegistry.sol\":1552:1559  houseId */\n      dup4\n        /* \"contract/HouseRegistry.sol\":1545:1560  houses[houseId] */\n      dup2\n      mstore\n      0x20\n      add\n      swap1\n      dup2\n      mstore\n      0x20\n      add\n      0x00\n      keccak256\n        /* \"contract/HouseRegistry.sol\":1545:1576  houses[houseId].isdelistedHouse */\n      0x05\n      add\n      0x00\n        /* \"contract/HouseRegistry.sol\":1545:1583  houses[houseId].isdelistedHouse = true */\n      0x0100\n      exp\n      dup2\n      sload\n      dup2\n      0xff\n      mul\n      not\n      and\n      swap1\n      dup4\n      iszero\n      iszero\n      mul\n      or\n      swap1\n      sstore\n      pop\n        /* \"contract/HouseRegistry.sol\":1385:1590  function delistHouse(uint houseId) public{... */\n      pop\n      jump\t// out\n        /* \"contract/Ownable.sol\":1756:1859  function renounceOwnership() public virtual onlyOwner {\r... */\n    tag_17:\n        /* \"contract/Ownable.sol\":1336:1348  _msgSender() */\n      tag_51\n        /* \"contract/Ownable.sol\":1336:1346  _msgSender */\n      tag_52\n        /* \"contract/Ownable.sol\":1336:1348  _msgSender() */\n      jump\t// in\n    tag_51:\n        /* \"contract/Ownable.sol\":1325:1348  owner() == _msgSender() */\n      0xffffffffffffffffffffffffffffffffffffffff\n      and\n        /* \"contract/Ownable.sol\":1325:1332  owner() */\n      tag_53\n        /* \"contract/Ownable.sol\":1325:1330  owner */\n      tag_19\n        /* \"contract/Ownable.sol\":1325:1332  owner() */\n      jump\t// in\n    tag_53:\n        /* \"contract/Ownable.sol\":1325:1348  owner() == _msgSender() */\n      0xffffffffffffffffffffffffffffffffffffffff\n      and\n      eq\n        /* \"contract/Ownable.sol\":1317:1385  require(owner() == _msgSender(), \"Ownable: caller is not the owner\") */\n      tag_54\n      jumpi\n      mload(0x40)\n      0x08c379a000000000000000000000000000000000000000000000000000000000\n      dup2\n      mstore\n      0x04\n      add\n      tag_55\n      swap1\n      tag_56\n      jump\t// in\n    tag_55:\n      mload(0x40)\n      dup1\n      swap2\n      sub\n      swap1\n      revert\n    tag_54:\n        /* \"contract/Ownable.sol\":1821:1851  _transferOwnership(address(0)) */\n      tag_58\n        /* \"contract/Ownable.sol\":1848:1849  0 */\n      0x00\n        /* \"contract/Ownable.sol\":1821:1839  _transferOwnership */\n      tag_59\n        /* \"contract/Ownable.sol\":1821:1851  _transferOwnership(address(0)) */\n      jump\t// in\n    tag_58:\n        /* \"contract/Ownable.sol\":1756:1859  function renounceOwnership() public virtual onlyOwner {\r... */\n      jump\t// out\n        /* \"contract/Ownable.sol\":1105:1192  function owner() public view virtual returns (address) {\r... */\n    tag_19:\n        /* \"contract/Ownable.sol\":1151:1158  address */\n      0x00\n        /* \"contract/Ownable.sol\":1178:1184  _owner */\n      dup1\n      0x00\n      swap1\n      sload\n      swap1\n      0x0100\n      exp\n      swap1\n      div\n      0xffffffffffffffffffffffffffffffffffffffff\n      and\n        /* \"contract/Ownable.sol\":1171:1184  return _owner */\n      swap1\n      pop\n        /* \"contract/Ownable.sol\":1105:1192  function owner() public view virtual returns (address) {\r... */\n      swap1\n      jump\t// out\n        /* \"contract/HouseRegistry.sol\":548:1119  function listHouse (uint _price, uint _area, address _sellerAddress, string memory _houseAddress) public returns (uint) {... */\n    tag_25:\n        /* \"contract/HouseRegistry.sol\":662:666  uint */\n      0x00\n        /* \"contract/HouseRegistry.sol\":703:704  0 */\n      dup1\n        /* \"contract/HouseRegistry.sol\":695:700  _area */\n      dup5\n        /* \"contract/HouseRegistry.sol\":686:692  _price */\n      dup7\n        /* \"contract/HouseRegistry.sol\":686:700  _price * _area */\n      tag_62\n      swap2\n      swap1\n      tag_63\n      jump\t// in\n    tag_62:\n        /* \"contract/HouseRegistry.sol\":686:704  _price * _area > 0 */\n      gt\n        /* \"contract/HouseRegistry.sol\":678:729  require(_price * _area > 0, \"value cannot be null\") */\n      tag_64\n      jumpi\n      mload(0x40)\n      0x08c379a000000000000000000000000000000000000000000000000000000000\n      dup2\n      mstore\n      0x04\n      add\n      tag_65\n      swap1\n      tag_66\n      jump\t// in\n    tag_65:\n      mload(0x40)\n      dup1\n      swap2\n      sub\n      swap1\n      revert\n    tag_64:\n        /* \"contract/HouseRegistry.sol\":739:751  uint houseId */\n      0x00\n        /* \"contract/HouseRegistry.sol\":754:808  _generateHouseId(_sellerAddress, _area, _houseAddress) */\n      tag_67\n        /* \"contract/HouseRegistry.sol\":771:785  _sellerAddress */\n      dup5\n        /* \"contract/HouseRegistry.sol\":787:792  _area */\n      dup7\n        /* \"contract/HouseRegistry.sol\":794:807  _houseAddress */\n      dup6\n        /* \"contract/HouseRegistry.sol\":754:770  _generateHouseId */\n      tag_68\n        /* \"contract/HouseRegistry.sol\":754:808  _generateHouseId(_sellerAddress, _area, _houseAddress) */\n      jump\t// in\n    tag_67:\n        /* \"contract/HouseRegistry.sol\":739:808  uint houseId = _generateHouseId(_sellerAddress, _area, _houseAddress) */\n      swap1\n      pop\n        /* \"contract/HouseRegistry.sol\":837:843  houses */\n      0x05\n        /* \"contract/HouseRegistry.sol\":837:852  houses[houseId] */\n      0x00\n        /* \"contract/HouseRegistry.sol\":844:851  houseId */\n      dup3\n        /* \"contract/HouseRegistry.sol\":837:852  houses[houseId] */\n      dup2\n      mstore\n      0x20\n      add\n      swap1\n      dup2\n      mstore\n      0x20\n      add\n      0x00\n      keccak256\n        /* \"contract/HouseRegistry.sol\":837:855  houses[houseId].id */\n      0x00\n      add\n      sload\n        /* \"contract/HouseRegistry.sol\":826:833  houseId */\n      dup2\n        /* \"contract/HouseRegistry.sol\":826:855  houseId != houses[houseId].id */\n      eq\n      iszero\n        /* \"contract/HouseRegistry.sol\":818:887  require(houseId != houses[houseId].id, \"this houseId already exists\") */\n      tag_69\n      jumpi\n      mload(0x40)\n      0x08c379a000000000000000000000000000000000000000000000000000000000\n      dup2\n      mstore\n      0x04\n      add\n      tag_70\n      swap1\n      tag_71\n      jump\t// in\n    tag_70:\n      mload(0x40)\n      dup1\n      swap2\n      sub\n      swap1\n      revert\n    tag_69:\n        /* \"contract/HouseRegistry.sol\":915:1014  House(houseId, _price, _area, _sellerAddress, _houseAddress, false, block.timestamp + cooldownTime) */\n      mload(0x40)\n      dup1\n      0xe0\n      add\n      0x40\n      mstore\n      dup1\n        /* \"contract/HouseRegistry.sol\":921:928  houseId */\n      dup3\n        /* \"contract/HouseRegistry.sol\":915:1014  House(houseId, _price, _area, _sellerAddress, _houseAddress, false, block.timestamp + cooldownTime) */\n      dup2\n      mstore\n      0x20\n      add\n        /* \"contract/HouseRegistry.sol\":930:936  _price */\n      dup8\n        /* \"contract/HouseRegistry.sol\":915:1014  House(houseId, _price, _area, _sellerAddress, _houseAddress, false, block.timestamp + cooldownTime) */\n      dup2\n      mstore\n      0x20\n      add\n        /* \"contract/HouseRegistry.sol\":938:943  _area */\n      dup7\n        /* \"contract/HouseRegistry.sol\":915:1014  House(houseId, _price, _area, _sellerAddress, _houseAddress, false, block.timestamp + cooldownTime) */\n      dup2\n      mstore\n      0x20\n      add\n        /* \"contract/HouseRegistry.sol\":945:959  _sellerAddress */\n      dup6\n        /* \"contract/HouseRegistry.sol\":915:1014  House(houseId, _price, _area, _sellerAddress, _houseAddress, false, block.timestamp + cooldownTime) */\n      0xffffffffffffffffffffffffffffffffffffffff\n      and\n      dup2\n      mstore\n      0x20\n      add\n        /* \"contract/HouseRegistry.sol\":961:974  _houseAddress */\n      dup5\n        /* \"contract/HouseRegistry.sol\":915:1014  House(houseId, _price, _area, _sellerAddress, _houseAddress, false, block.timestamp + cooldownTime) */\n      dup2\n      mstore\n      0x20\n      add\n        /* \"contract/HouseRegistry.sol\":976:981  false */\n      0x00\n        /* \"contract/HouseRegistry.sol\":915:1014  House(houseId, _price, _area, _sellerAddress, _houseAddress, false, block.timestamp + cooldownTime) */\n      iszero\n      iszero\n      dup2\n      mstore\n      0x20\n      add\n        /* \"contract/HouseRegistry.sol\":1001:1013  cooldownTime */\n      sload(0x04)\n        /* \"contract/HouseRegistry.sol\":983:998  block.timestamp */\n      timestamp\n        /* \"contract/HouseRegistry.sol\":983:1013  block.timestamp + cooldownTime */\n      tag_72\n      swap2\n      swap1\n      tag_73\n      jump\t// in\n    tag_72:\n        /* \"contract/HouseRegistry.sol\":915:1014  House(houseId, _price, _area, _sellerAddress, _houseAddress, false, block.timestamp + cooldownTime) */\n      dup2\n      mstore\n      pop\n        /* \"contract/HouseRegistry.sol\":897:903  houses */\n      0x05\n        /* \"contract/HouseRegistry.sol\":897:912  houses[houseId] */\n      0x00\n        /* \"contract/HouseRegistry.sol\":904:911  houseId */\n      dup4\n        /* \"contract/HouseRegistry.sol\":897:912  houses[houseId] */\n      dup2\n      mstore\n      0x20\n      add\n      swap1\n      dup2\n      mstore\n      0x20\n      add\n      0x00\n      keccak256\n        /* \"contract/HouseRegistry.sol\":897:1014  houses[houseId] = House(houseId, _price, _area, _sellerAddress, _houseAddress, false, block.timestamp + cooldownTime) */\n      0x00\n      dup3\n      add\n      mload\n      dup2\n      0x00\n      add\n      sstore\n      0x20\n      dup3\n      add\n      mload\n      dup2\n      0x01\n      add\n      sstore\n      0x40\n      dup3\n      add\n      mload\n      dup2\n      0x02\n      add\n      sstore\n      0x60\n      dup3\n      add\n      mload\n      dup2\n      0x03\n      add\n      exp(0x0100, 0x00)\n      dup2\n      sload\n      dup2\n      0xffffffffffffffffffffffffffffffffffffffff\n      mul\n      not\n      and\n      swap1\n      dup4\n      0xffffffffffffffffffffffffffffffffffffffff\n      and\n      mul\n      or\n      swap1\n      sstore\n      pop\n      0x80\n      dup3\n      add\n      mload\n      dup2\n      0x04\n      add\n      swap1\n      dup1\n      mload\n      swap1\n      0x20\n      add\n      swap1\n      tag_74\n      swap3\n      swap2\n      swap1\n      tag_75\n      jump\t// in\n    tag_74:\n      pop\n      0xa0\n      dup3\n      add\n      mload\n      dup2\n      0x05\n      add\n      exp(0x0100, 0x00)\n      dup2\n      sload\n      dup2\n      0xff\n      mul\n      not\n      and\n      swap1\n      dup4\n      iszero\n      iszero\n      mul\n      or\n      swap1\n      sstore\n      pop\n      0xc0\n      dup3\n      add\n      mload\n      dup2\n      0x06\n      add\n      sstore\n      swap1\n      pop\n      pop\n        /* \"contract/HouseRegistry.sol\":1029:1088  AddNewHouse(houseId, _sellerAddress, _price, _houseAddress) */\n      0x8f5afd88eb4be0ac287d87970052ce9a2b453448408e3c91a695ad7509ab7194\n        /* \"contract/HouseRegistry.sol\":1041:1048  houseId */\n      dup2\n        /* \"contract/HouseRegistry.sol\":1050:1064  _sellerAddress */\n      dup6\n        /* \"contract/HouseRegistry.sol\":1066:1072  _price */\n      dup9\n        /* \"contract/HouseRegistry.sol\":1074:1087  _houseAddress */\n      dup7\n        /* \"contract/HouseRegistry.sol\":1029:1088  AddNewHouse(houseId, _sellerAddress, _price, _houseAddress) */\n      mload(0x40)\n      tag_76\n      swap5\n      swap4\n      swap3\n      swap2\n      swap1\n      tag_77\n      jump\t// in\n    tag_76:\n      mload(0x40)\n      dup1\n      swap2\n      sub\n      swap1\n      log1\n        /* \"contract/HouseRegistry.sol\":1105:1112  houseId */\n      dup1\n        /* \"contract/HouseRegistry.sol\":1098:1112  return houseId */\n      swap2\n      pop\n      pop\n        /* \"contract/HouseRegistry.sol\":548:1119  function listHouse (uint _price, uint _area, address _sellerAddress, string memory _houseAddress) public returns (uint) {... */\n      swap5\n      swap4\n      pop\n      pop\n      pop\n      pop\n      jump\t// out\n        /* \"contract/Ownable.sol\":2676:2793  function _canOwnerAdd(uint _timeNow) public view returns(bool){\r... */\n    tag_30:\n        /* \"contract/Ownable.sol\":2733:2737  bool */\n      0x00\n        /* \"contract/Ownable.sol\":2769:2784  block.timestamp */\n      timestamp\n        /* \"contract/Ownable.sol\":2757:2765  _timeNow */\n      dup3\n        /* \"contract/Ownable.sol\":2757:2784  _timeNow <= block.timestamp */\n      gt\n      iszero\n        /* \"contract/Ownable.sol\":2749:2785  return (_timeNow <= block.timestamp) */\n      swap1\n      pop\n        /* \"contract/Ownable.sol\":2676:2793  function _canOwnerAdd(uint _timeNow) public view returns(bool){\r... */\n      swap2\n      swap1\n      pop\n      jump\t// out\n        /* \"contract/HouseRegistry.sol\":505:541  mapping(uint => House) public houses */\n    tag_35:\n      mstore(0x20, 0x05)\n      dup1\n      0x00\n      mstore\n      keccak256(0x00, 0x40)\n      0x00\n      swap2\n      pop\n      swap1\n      pop\n      dup1\n      0x00\n      add\n      sload\n      swap1\n      dup1\n      0x01\n      add\n      sload\n      swap1\n      dup1\n      0x02\n      add\n      sload\n      swap1\n      dup1\n      0x03\n      add\n      0x00\n      swap1\n      sload\n      swap1\n      0x0100\n      exp\n      swap1\n      div\n      0xffffffffffffffffffffffffffffffffffffffff\n      and\n      swap1\n      dup1\n      0x04\n      add\n      dup1\n      sload\n      tag_79\n      swap1\n      tag_80\n      jump\t// in\n    tag_79:\n      dup1\n      0x1f\n      add\n      0x20\n      dup1\n      swap2\n      div\n      mul\n      0x20\n      add\n      mload(0x40)\n      swap1\n      dup2\n      add\n      0x40\n      mstore\n      dup1\n      swap3\n      swap2\n      swap1\n      dup2\n      dup2\n      mstore\n      0x20\n      add\n      dup3\n      dup1\n      sload\n      tag_81\n      swap1\n      tag_80\n      jump\t// in\n    tag_81:\n      dup1\n      iszero\n      tag_82\n      jumpi\n      dup1\n      0x1f\n      lt\n      tag_83\n      jumpi\n      0x0100\n      dup1\n      dup4\n      sload\n      div\n      mul\n      dup4\n      mstore\n      swap2\n      0x20\n      add\n      swap2\n      jump(tag_82)\n    tag_83:\n      dup3\n      add\n      swap2\n      swap1\n      0x00\n      mstore\n      keccak256(0x00, 0x20)\n      swap1\n    tag_84:\n      dup2\n      sload\n      dup2\n      mstore\n      swap1\n      0x01\n      add\n      swap1\n      0x20\n      add\n      dup1\n      dup4\n      gt\n      tag_84\n      jumpi\n      dup3\n      swap1\n      sub\n      0x1f\n      and\n      dup3\n      add\n      swap2\n    tag_82:\n      pop\n      pop\n      pop\n      pop\n      pop\n      swap1\n      dup1\n      0x05\n      add\n      0x00\n      swap1\n      sload\n      swap1\n      0x0100\n      exp\n      swap1\n      div\n      0xff\n      and\n      swap1\n      dup1\n      0x06\n      add\n      sload\n      swap1\n      pop\n      dup8\n      jump\t// out\n        /* \"contract/HouseRegistryExt.sol\":151:306  function listHouseSimple(uint _price, uint _area, string memory _houseAddress) public{\r... */\n    tag_41:\n        /* \"contract/HouseRegistryExt.sol\":247:298  listHouse(_price, _area, msg.sender, _houseAddress) */\n      tag_86\n        /* \"contract/HouseRegistryExt.sol\":257:263  _price */\n      dup4\n        /* \"contract/HouseRegistryExt.sol\":265:270  _area */\n      dup4\n        /* \"contract/HouseRegistryExt.sol\":272:282  msg.sender */\n      caller\n        /* \"contract/HouseRegistryExt.sol\":284:297  _houseAddress */\n      dup5\n        /* \"contract/HouseRegistryExt.sol\":247:256  listHouse */\n      tag_25\n        /* \"contract/HouseRegistryExt.sol\":247:298  listHouse(_price, _area, msg.sender, _houseAddress) */\n      jump\t// in\n    tag_86:\n      pop\n        /* \"contract/HouseRegistryExt.sol\":151:306  function listHouseSimple(uint _price, uint _area, string memory _houseAddress) public{\r... */\n      pop\n      pop\n      pop\n      jump\t// out\n        /* \"contract/Ownable.sol\":2014:2215  function transferOwnership(address newOwner) public virtual onlyOwner {\r... */\n    tag_45:\n        /* \"contract/Ownable.sol\":1336:1348  _msgSender() */\n      tag_88\n        /* \"contract/Ownable.sol\":1336:1346  _msgSender */\n      tag_52\n        /* \"contract/Ownable.sol\":1336:1348  _msgSender() */\n      jump\t// in\n    tag_88:\n        /* \"contract/Ownable.sol\":1325:1348  owner() == _msgSender() */\n      0xffffffffffffffffffffffffffffffffffffffff\n      and\n        /* \"contract/Ownable.sol\":1325:1332  owner() */\n      tag_89\n        /* \"contract/Ownable.sol\":1325:1330  owner */\n      tag_19\n        /* \"contract/Ownable.sol\":1325:1332  owner() */\n      jump\t// in\n    tag_89:\n        /* \"contract/Ownable.sol\":1325:1348  owner() == _msgSender() */\n      0xffffffffffffffffffffffffffffffffffffffff\n      and\n      eq\n        /* \"contract/Ownable.sol\":1317:1385  require(owner() == _msgSender(), \"Ownable: caller is not the owner\") */\n      tag_90\n      jumpi\n      mload(0x40)\n      0x08c379a000000000000000000000000000000000000000000000000000000000\n      dup2\n      mstore\n      0x04\n      add\n      tag_91\n      swap1\n      tag_56\n      jump\t// in\n    tag_91:\n      mload(0x40)\n      dup1\n      swap2\n      sub\n      swap1\n      revert\n    tag_90:\n        /* \"contract/Ownable.sol\":2123:2124  0 */\n      0x00\n        /* \"contract/Ownable.sol\":2103:2125  newOwner != address(0) */\n      0xffffffffffffffffffffffffffffffffffffffff\n      and\n        /* \"contract/Ownable.sol\":2103:2111  newOwner */\n      dup2\n        /* \"contract/Ownable.sol\":2103:2125  newOwner != address(0) */\n      0xffffffffffffffffffffffffffffffffffffffff\n      and\n      eq\n      iszero\n        /* \"contract/Ownable.sol\":2095:2168  require(newOwner != address(0), \"Ownable: new owner is the zero address\") */\n      tag_93\n      jumpi\n      mload(0x40)\n      0x08c379a000000000000000000000000000000000000000000000000000000000\n      dup2\n      mstore\n      0x04\n      add\n      tag_94\n      swap1\n      tag_95\n      jump\t// in\n    tag_94:\n      mload(0x40)\n      dup1\n      swap2\n      sub\n      swap1\n      revert\n    tag_93:\n        /* \"contract/Ownable.sol\":2179:2207  _transferOwnership(newOwner) */\n      tag_96\n        /* \"contract/Ownable.sol\":2198:2206  newOwner */\n      dup2\n        /* \"contract/Ownable.sol\":2179:2197  _transferOwnership */\n      tag_59\n        /* \"contract/Ownable.sol\":2179:2207  _transferOwnership(newOwner) */\n      jump\t// in\n    tag_96:\n        /* \"contract/Ownable.sol\":2014:2215  function transferOwnership(address newOwner) public virtual onlyOwner {\r... */\n      pop\n      jump\t// out\n        /* \"contract/utils/Context.sol\":656:754  function _msgSender() internal view virtual returns (address) {\r... */\n    tag_52:\n        /* \"contract/utils/Context.sol\":709:716  address */\n      0x00\n        /* \"contract/utils/Context.sol\":736:746  msg.sender */\n      caller\n        /* \"contract/utils/Context.sol\":729:746  return msg.sender */\n      swap1\n      pop\n        /* \"contract/utils/Context.sol\":656:754  function _msgSender() internal view virtual returns (address) {\r... */\n      swap1\n      jump\t// out\n        /* \"contract/Ownable.sol\":2375:2566  function _transferOwnership(address newOwner) internal virtual {\r... */\n    tag_59:\n        /* \"contract/Ownable.sol\":2449:2465  address oldOwner */\n      0x00\n        /* \"contract/Ownable.sol\":2468:2474  _owner */\n      dup1\n      0x00\n      swap1\n      sload\n      swap1\n      0x0100\n      exp\n      swap1\n      div\n      0xffffffffffffffffffffffffffffffffffffffff\n      and\n        /* \"contract/Ownable.sol\":2449:2474  address oldOwner = _owner */\n      swap1\n      pop\n        /* \"contract/Ownable.sol\":2494:2502  newOwner */\n      dup2\n        /* \"contract/Ownable.sol\":2485:2491  _owner */\n      0x00\n      dup1\n        /* \"contract/Ownable.sol\":2485:2502  _owner = newOwner */\n      0x0100\n      exp\n      dup2\n      sload\n      dup2\n      0xffffffffffffffffffffffffffffffffffffffff\n      mul\n      not\n      and\n      swap1\n      dup4\n      0xffffffffffffffffffffffffffffffffffffffff\n      and\n      mul\n      or\n      swap1\n      sstore\n      pop\n        /* \"contract/Ownable.sol\":2549:2557  newOwner */\n      dup2\n        /* \"contract/Ownable.sol\":2518:2558  OwnershipTransferred(oldOwner, newOwner) */\n      0xffffffffffffffffffffffffffffffffffffffff\n      and\n        /* \"contract/Ownable.sol\":2539:2547  oldOwner */\n      dup2\n        /* \"contract/Ownable.sol\":2518:2558  OwnershipTransferred(oldOwner, newOwner) */\n      0xffffffffffffffffffffffffffffffffffffffff\n      and\n      0x8be0079c531659141344cd1fd0a4f28419497f9722a3daafe3b4186f6b6457e0\n      mload(0x40)\n      mload(0x40)\n      dup1\n      swap2\n      sub\n      swap1\n      log3\n        /* \"contract/Ownable.sol\":2438:2566  {\r... */\n      pop\n        /* \"contract/Ownable.sol\":2375:2566  function _transferOwnership(address newOwner) internal virtual {\r... */\n      pop\n      jump\t// out\n        /* \"contract/HouseRegistry.sol\":1125:1379  function _generateHouseId(address _sellerAddress, uint _area, string memory _houseAddress) private view returns(uint){... */\n    tag_68:\n        /* \"contract/HouseRegistry.sol\":1237:1241  uint */\n      0x00\n        /* \"contract/HouseRegistry.sol\":1252:1264  uint houseId */\n      dup1\n        /* \"contract/HouseRegistry.sol\":1299:1313  _sellerAddress */\n      dup5\n        /* \"contract/HouseRegistry.sol\":1315:1320  _area */\n      dup5\n        /* \"contract/HouseRegistry.sol\":1322:1335  _houseAddress */\n      dup5\n        /* \"contract/HouseRegistry.sol\":1282:1336  abi.encodePacked(_sellerAddress, _area, _houseAddress) */\n      add(0x20, mload(0x40))\n      tag_100\n      swap4\n      swap3\n      swap2\n      swap1\n      tag_101\n      jump\t// in\n    tag_100:\n      mload(0x40)\n      0x20\n      dup2\n      dup4\n      sub\n      sub\n      dup2\n      mstore\n      swap1\n      0x40\n      mstore\n        /* \"contract/HouseRegistry.sol\":1272:1337  keccak256(abi.encodePacked(_sellerAddress, _area, _houseAddress)) */\n      dup1\n      mload\n      swap1\n      0x20\n      add\n      keccak256\n        /* \"contract/HouseRegistry.sol\":1267:1338  uint(keccak256(abi.encodePacked(_sellerAddress, _area, _houseAddress))) */\n      0x00\n      shr\n        /* \"contract/HouseRegistry.sol\":1252:1338  uint houseId = uint(keccak256(abi.encodePacked(_sellerAddress, _area, _houseAddress))) */\n      swap1\n      pop\n        /* \"contract/HouseRegistry.sol\":1365:1372  modulus */\n      sload(0x03)\n        /* \"contract/HouseRegistry.sol\":1355:1362  houseId */\n      dup2\n        /* \"contract/HouseRegistry.sol\":1355:1372  houseId % modulus */\n      tag_102\n      swap2\n      swap1\n      tag_103\n      jump\t// in\n    tag_102:\n        /* \"contract/HouseRegistry.sol\":1348:1372  return houseId % modulus */\n      swap2\n      pop\n      pop\n        /* \"contract/HouseRegistry.sol\":1125:1379  function _generateHouseId(address _sellerAddress, uint _area, string memory _houseAddress) private view returns(uint){... */\n      swap4\n      swap3\n      pop\n      pop\n      pop\n      jump\t// out\n    tag_75:\n      dup3\n      dup1\n      sload\n      tag_104\n      swap1\n      tag_80\n      jump\t// in\n    tag_104:\n      swap1\n      0x00\n      mstore\n      keccak256(0x00, 0x20)\n      swap1\n      0x1f\n      add\n      0x20\n      swap1\n      div\n      dup2\n      add\n      swap3\n      dup3\n      tag_106\n      jumpi\n      0x00\n      dup6\n      sstore\n      jump(tag_105)\n    tag_106:\n      dup3\n      0x1f\n      lt\n      tag_107\n      jumpi\n      dup1\n      mload\n      not(0xff)\n      and\n      dup4\n      dup1\n      add\n      or\n      dup6\n      sstore\n      jump(tag_105)\n    tag_107:\n      dup3\n      dup1\n      add\n      0x01\n      add\n      dup6\n      sstore\n      dup3\n      iszero\n      tag_105\n      jumpi\n      swap2\n      dup3\n      add\n    tag_108:\n      dup3\n      dup2\n      gt\n      iszero\n      tag_109\n      jumpi\n      dup3\n      mload\n      dup3\n      sstore\n      swap2\n      0x20\n      add\n      swap2\n      swap1\n      0x01\n      add\n      swap1\n      jump(tag_108)\n    tag_109:\n    tag_105:\n      pop\n      swap1\n      pop\n      tag_110\n      swap2\n      swap1\n      tag_111\n      jump\t// in\n    tag_110:\n      pop\n      swap1\n      jump\t// out\n    tag_111:\n    tag_112:\n      dup1\n      dup3\n      gt\n      iszero\n      tag_113\n      jumpi\n      0x00\n      dup2\n      0x00\n      swap1\n      sstore\n      pop\n      0x01\n      add\n      jump(tag_112)\n    tag_113:\n      pop\n      swap1\n      jump\t// out\n        /* \"#utility.yul\":7:419   */\n    tag_115:\n        /* \"#utility.yul\":85:90   */\n      0x00\n        /* \"#utility.yul\":110:176   */\n      tag_117\n        /* \"#utility.yul\":126:175   */\n      tag_118\n        /* \"#utility.yul\":168:174   */\n      dup5\n        /* \"#utility.yul\":126:175   */\n      tag_119\n      jump\t// in\n    tag_118:\n        /* \"#utility.yul\":110:176   */\n      tag_120\n      jump\t// in\n    tag_117:\n        /* \"#utility.yul\":101:176   */\n      swap1\n      pop\n        /* \"#utility.yul\":199:205   */\n      dup3\n        /* \"#utility.yul\":192:197   */\n      dup2\n        /* \"#utility.yul\":185:206   */\n      mstore\n        /* \"#utility.yul\":237:241   */\n      0x20\n        /* \"#utility.yul\":230:235   */\n      dup2\n        /* \"#utility.yul\":226:242   */\n      add\n        /* \"#utility.yul\":275:278   */\n      dup5\n        /* \"#utility.yul\":266:272   */\n      dup5\n        /* \"#utility.yul\":261:264   */\n      dup5\n        /* \"#utility.yul\":257:273   */\n      add\n        /* \"#utility.yul\":254:279   */\n      gt\n        /* \"#utility.yul\":251:363   */\n      iszero\n      tag_121\n      jumpi\n        /* \"#utility.yul\":282:361   */\n      tag_122\n      tag_123\n      jump\t// in\n    tag_122:\n        /* \"#utility.yul\":251:363   */\n    tag_121:\n        /* \"#utility.yul\":372:413   */\n      tag_124\n        /* \"#utility.yul\":406:412   */\n      dup5\n        /* \"#utility.yul\":401:404   */\n      dup3\n        /* \"#utility.yul\":396:399   */\n      dup6\n        /* \"#utility.yul\":372:413   */\n      tag_125\n      jump\t// in\n    tag_124:\n        /* \"#utility.yul\":91:419   */\n      pop\n        /* \"#utility.yul\":7:419   */\n      swap4\n      swap3\n      pop\n      pop\n      pop\n      jump\t// out\n        /* \"#utility.yul\":425:564   */\n    tag_126:\n        /* \"#utility.yul\":471:476   */\n      0x00\n        /* \"#utility.yul\":509:515   */\n      dup2\n        /* \"#utility.yul\":496:516   */\n      calldataload\n        /* \"#utility.yul\":487:516   */\n      swap1\n      pop\n        /* \"#utility.yul\":525:558   */\n      tag_128\n        /* \"#utility.yul\":552:557   */\n      dup2\n        /* \"#utility.yul\":525:558   */\n      tag_129\n      jump\t// in\n    tag_128:\n        /* \"#utility.yul\":425:564   */\n      swap3\n      swap2\n      pop\n      pop\n      jump\t// out\n        /* \"#utility.yul\":584:924   */\n    tag_130:\n        /* \"#utility.yul\":640:645   */\n      0x00\n        /* \"#utility.yul\":689:692   */\n      dup3\n        /* \"#utility.yul\":682:686   */\n      0x1f\n        /* \"#utility.yul\":674:680   */\n      dup4\n        /* \"#utility.yul\":670:687   */\n      add\n        /* \"#utility.yul\":666:693   */\n      slt\n        /* \"#utility.yul\":656:778   */\n      tag_132\n      jumpi\n        /* \"#utility.yul\":697:776   */\n      tag_133\n      tag_134\n      jump\t// in\n    tag_133:\n        /* \"#utility.yul\":656:778   */\n    tag_132:\n        /* \"#utility.yul\":814:820   */\n      dup2\n        /* \"#utility.yul\":801:821   */\n      calldataload\n        /* \"#utility.yul\":839:918   */\n      tag_135\n        /* \"#utility.yul\":914:917   */\n      dup5\n        /* \"#utility.yul\":906:912   */\n      dup3\n        /* \"#utility.yul\":899:903   */\n      0x20\n        /* \"#utility.yul\":891:897   */\n      dup7\n        /* \"#utility.yul\":887:904   */\n      add\n        /* \"#utility.yul\":839:918   */\n      tag_115\n      jump\t// in\n    tag_135:\n        /* \"#utility.yul\":830:918   */\n      swap2\n      pop\n        /* \"#utility.yul\":646:924   */\n      pop\n        /* \"#utility.yul\":584:924   */\n      swap3\n      swap2\n      pop\n      pop\n      jump\t// out\n        /* \"#utility.yul\":930:1069   */\n    tag_136:\n        /* \"#utility.yul\":976:981   */\n      0x00\n        /* \"#utility.yul\":1014:1020   */\n      dup2\n        /* \"#utility.yul\":1001:1021   */\n      calldataload\n        /* \"#utility.yul\":992:1021   */\n      swap1\n      pop\n        /* \"#utility.yul\":1030:1063   */\n      tag_138\n        /* \"#utility.yul\":1057:1062   */\n      dup2\n        /* \"#utility.yul\":1030:1063   */\n      tag_139\n      jump\t// in\n    tag_138:\n        /* \"#utility.yul\":930:1069   */\n      swap3\n      swap2\n      pop\n      pop\n      jump\t// out\n        /* \"#utility.yul\":1075:1404   */\n    tag_44:\n        /* \"#utility.yul\":1134:1140   */\n      0x00\n        /* \"#utility.yul\":1183:1185   */\n      0x20\n        /* \"#utility.yul\":1171:1180   */\n      dup3\n        /* \"#utility.yul\":1162:1169   */\n      dup5\n        /* \"#utility.yul\":1158:1181   */\n      sub\n        /* \"#utility.yul\":1154:1186   */\n      slt\n        /* \"#utility.yul\":1151:1270   */\n      iszero\n      tag_141\n      jumpi\n        /* \"#utility.yul\":1189:1268   */\n      tag_142\n      tag_143\n      jump\t// in\n    tag_142:\n        /* \"#utility.yul\":1151:1270   */\n    tag_141:\n        /* \"#utility.yul\":1309:1310   */\n      0x00\n        /* \"#utility.yul\":1334:1387   */\n      tag_144\n        /* \"#utility.yul\":1379:1386   */\n      dup5\n        /* \"#utility.yul\":1370:1376   */\n      dup3\n        /* \"#utility.yul\":1359:1368   */\n      dup6\n        /* \"#utility.yul\":1355:1377   */\n      add\n        /* \"#utility.yul\":1334:1387   */\n      tag_126\n      jump\t// in\n    tag_144:\n        /* \"#utility.yul\":1324:1387   */\n      swap2\n      pop\n        /* \"#utility.yul\":1280:1397   */\n      pop\n        /* \"#utility.yul\":1075:1404   */\n      swap3\n      swap2\n      pop\n      pop\n      jump\t// out\n        /* \"#utility.yul\":1410:1739   */\n    tag_14:\n        /* \"#utility.yul\":1469:1475   */\n      0x00\n        /* \"#utility.yul\":1518:1520   */\n      0x20\n        /* \"#utility.yul\":1506:1515   */\n      dup3\n        /* \"#utility.yul\":1497:1504   */\n      dup5\n        /* \"#utility.yul\":1493:1516   */\n      sub\n        /* \"#utility.yul\":1489:1521   */\n      slt\n        /* \"#utility.yul\":1486:1605   */\n      iszero\n      tag_146\n      jumpi\n        /* \"#utility.yul\":1524:1603   */\n      tag_147\n      tag_143\n      jump\t// in\n    tag_147:\n        /* \"#utility.yul\":1486:1605   */\n    tag_146:\n        /* \"#utility.yul\":1644:1645   */\n      0x00\n        /* \"#utility.yul\":1669:1722   */\n      tag_148\n        /* \"#utility.yul\":1714:1721   */\n      dup5\n        /* \"#utility.yul\":1705:1711   */\n      dup3\n        /* \"#utility.yul\":1694:1703   */\n      dup6\n        /* \"#utility.yul\":1690:1712   */\n      add\n        /* \"#utility.yul\":1669:1722   */\n      tag_136\n      jump\t// in\n    tag_148:\n        /* \"#utility.yul\":1659:1722   */\n      swap2\n      pop\n        /* \"#utility.yul\":1615:1732   */\n      pop\n        /* \"#utility.yul\":1410:1739   */\n      swap3\n      swap2\n      pop\n      pop\n      jump\t// out\n        /* \"#utility.yul\":1745:2690   */\n    tag_24:\n        /* \"#utility.yul\":1841:1847   */\n      0x00\n        /* \"#utility.yul\":1849:1855   */\n      dup1\n        /* \"#utility.yul\":1857:1863   */\n      0x00\n        /* \"#utility.yul\":1865:1871   */\n      dup1\n        /* \"#utility.yul\":1914:1917   */\n      0x80\n        /* \"#utility.yul\":1902:1911   */\n      dup6\n        /* \"#utility.yul\":1893:1900   */\n      dup8\n        /* \"#utility.yul\":1889:1912   */\n      sub\n        /* \"#utility.yul\":1885:1918   */\n      slt\n        /* \"#utility.yul\":1882:2002   */\n      iszero\n      tag_150\n      jumpi\n        /* \"#utility.yul\":1921:2000   */\n      tag_151\n      tag_143\n      jump\t// in\n    tag_151:\n        /* \"#utility.yul\":1882:2002   */\n    tag_150:\n        /* \"#utility.yul\":2041:2042   */\n      0x00\n        /* \"#utility.yul\":2066:2119   */\n      tag_152\n        /* \"#utility.yul\":2111:2118   */\n      dup8\n        /* \"#utility.yul\":2102:2108   */\n      dup3\n        /* \"#utility.yul\":2091:2100   */\n      dup9\n        /* \"#utility.yul\":2087:2109   */\n      add\n        /* \"#utility.yul\":2066:2119   */\n      tag_136\n      jump\t// in\n    tag_152:\n        /* \"#utility.yul\":2056:2119   */\n      swap5\n      pop\n        /* \"#utility.yul\":2012:2129   */\n      pop\n        /* \"#utility.yul\":2168:2170   */\n      0x20\n        /* \"#utility.yul\":2194:2247   */\n      tag_153\n        /* \"#utility.yul\":2239:2246   */\n      dup8\n        /* \"#utility.yul\":2230:2236   */\n      dup3\n        /* \"#utility.yul\":2219:2228   */\n      dup9\n        /* \"#utility.yul\":2215:2237   */\n      add\n        /* \"#utility.yul\":2194:2247   */\n      tag_136\n      jump\t// in\n    tag_153:\n        /* \"#utility.yul\":2184:2247   */\n      swap4\n      pop\n        /* \"#utility.yul\":2139:2257   */\n      pop\n        /* \"#utility.yul\":2296:2298   */\n      0x40\n        /* \"#utility.yul\":2322:2375   */\n      tag_154\n        /* \"#utility.yul\":2367:2374   */\n      dup8\n        /* \"#utility.yul\":2358:2364   */\n      dup3\n        /* \"#utility.yul\":2347:2356   */\n      dup9\n        /* \"#utility.yul\":2343:2365   */\n      add\n        /* \"#utility.yul\":2322:2375   */\n      tag_126\n      jump\t// in\n    tag_154:\n        /* \"#utility.yul\":2312:2375   */\n      swap3\n      pop\n        /* \"#utility.yul\":2267:2385   */\n      pop\n        /* \"#utility.yul\":2452:2454   */\n      0x60\n        /* \"#utility.yul\":2441:2450   */\n      dup6\n        /* \"#utility.yul\":2437:2455   */\n      add\n        /* \"#utility.yul\":2424:2456   */\n      calldataload\n        /* \"#utility.yul\":2483:2501   */\n      0xffffffffffffffff\n        /* \"#utility.yul\":2475:2481   */\n      dup2\n        /* \"#utility.yul\":2472:2502   */\n      gt\n        /* \"#utility.yul\":2469:2586   */\n      iszero\n      tag_155\n      jumpi\n        /* \"#utility.yul\":2505:2584   */\n      tag_156\n      tag_157\n      jump\t// in\n    tag_156:\n        /* \"#utility.yul\":2469:2586   */\n    tag_155:\n        /* \"#utility.yul\":2610:2673   */\n      tag_158\n        /* \"#utility.yul\":2665:2672   */\n      dup8\n        /* \"#utility.yul\":2656:2662   */\n      dup3\n        /* \"#utility.yul\":2645:2654   */\n      dup9\n        /* \"#utility.yul\":2641:2663   */\n      add\n        /* \"#utility.yul\":2610:2673   */\n      tag_130\n      jump\t// in\n    tag_158:\n        /* \"#utility.yul\":2600:2673   */\n      swap2\n      pop\n        /* \"#utility.yul\":2395:2683   */\n      pop\n        /* \"#utility.yul\":1745:2690   */\n      swap3\n      swap6\n      swap2\n      swap5\n      pop\n      swap3\n      pop\n      jump\t// out\n        /* \"#utility.yul\":2696:3495   */\n    tag_40:\n        /* \"#utility.yul\":2783:2789   */\n      0x00\n        /* \"#utility.yul\":2791:2797   */\n      dup1\n        /* \"#utility.yul\":2799:2805   */\n      0x00\n        /* \"#utility.yul\":2848:2850   */\n      0x60\n        /* \"#utility.yul\":2836:2845   */\n      dup5\n        /* \"#utility.yul\":2827:2834   */\n      dup7\n        /* \"#utility.yul\":2823:2846   */\n      sub\n        /* \"#utility.yul\":2819:2851   */\n      slt\n        /* \"#utility.yul\":2816:2935   */\n      iszero\n      tag_160\n      jumpi\n        /* \"#utility.yul\":2854:2933   */\n      tag_161\n      tag_143\n      jump\t// in\n    tag_161:\n        /* \"#utility.yul\":2816:2935   */\n    tag_160:\n        /* \"#utility.yul\":2974:2975   */\n      0x00\n        /* \"#utility.yul\":2999:3052   */\n      tag_162\n        /* \"#utility.yul\":3044:3051   */\n      dup7\n        /* \"#utility.yul\":3035:3041   */\n      dup3\n        /* \"#utility.yul\":3024:3033   */\n      dup8\n        /* \"#utility.yul\":3020:3042   */\n      add\n        /* \"#utility.yul\":2999:3052   */\n      tag_136\n      jump\t// in\n    tag_162:\n        /* \"#utility.yul\":2989:3052   */\n      swap4\n      pop\n        /* \"#utility.yul\":2945:3062   */\n      pop\n        /* \"#utility.yul\":3101:3103   */\n      0x20\n        /* \"#utility.yul\":3127:3180   */\n      tag_163\n        /* \"#utility.yul\":3172:3179   */\n      dup7\n        /* \"#utility.yul\":3163:3169   */\n      dup3\n        /* \"#utility.yul\":3152:3161   */\n      dup8\n        /* \"#utility.yul\":3148:3170   */\n      add\n        /* \"#utility.yul\":3127:3180   */\n      tag_136\n      jump\t// in\n    tag_163:\n        /* \"#utility.yul\":3117:3180   */\n      swap3\n      pop\n        /* \"#utility.yul\":3072:3190   */\n      pop\n        /* \"#utility.yul\":3257:3259   */\n      0x40\n        /* \"#utility.yul\":3246:3255   */\n      dup5\n        /* \"#utility.yul\":3242:3260   */\n      add\n        /* \"#utility.yul\":3229:3261   */\n      calldataload\n        /* \"#utility.yul\":3288:3306   */\n      0xffffffffffffffff\n        /* \"#utility.yul\":3280:3286   */\n      dup2\n        /* \"#utility.yul\":3277:3307   */\n      gt\n        /* \"#utility.yul\":3274:3391   */\n      iszero\n      tag_164\n      jumpi\n        /* \"#utility.yul\":3310:3389   */\n      tag_165\n      tag_157\n      jump\t// in\n    tag_165:\n        /* \"#utility.yul\":3274:3391   */\n    tag_164:\n        /* \"#utility.yul\":3415:3478   */\n      tag_166\n        /* \"#utility.yul\":3470:3477   */\n      dup7\n        /* \"#utility.yul\":3461:3467   */\n      dup3\n        /* \"#utility.yul\":3450:3459   */\n      dup8\n        /* \"#utility.yul\":3446:3468   */\n      add\n        /* \"#utility.yul\":3415:3478   */\n      tag_130\n      jump\t// in\n    tag_166:\n        /* \"#utility.yul\":3405:3478   */\n      swap2\n      pop\n        /* \"#utility.yul\":3200:3488   */\n      pop\n        /* \"#utility.yul\":2696:3495   */\n      swap3\n      pop\n      swap3\n      pop\n      swap3\n      jump\t// out\n        /* \"#utility.yul\":3501:3619   */\n    tag_167:\n        /* \"#utility.yul\":3588:3612   */\n      tag_169\n        /* \"#utility.yul\":3606:3611   */\n      dup2\n        /* \"#utility.yul\":3588:3612   */\n      tag_170\n      jump\t// in\n    tag_169:\n        /* \"#utility.yul\":3583:3586   */\n      dup3\n        /* \"#utility.yul\":3576:3613   */\n      mstore\n        /* \"#utility.yul\":3501:3619   */\n      pop\n      pop\n      jump\t// out\n        /* \"#utility.yul\":3625:3782   */\n    tag_171:\n        /* \"#utility.yul\":3730:3775   */\n      tag_173\n        /* \"#utility.yul\":3750:3774   */\n      tag_174\n        /* \"#utility.yul\":3768:3773   */\n      dup3\n        /* \"#utility.yul\":3750:3774   */\n      tag_170\n      jump\t// in\n    tag_174:\n        /* \"#utility.yul\":3730:3775   */\n      tag_175\n      jump\t// in\n    tag_173:\n        /* \"#utility.yul\":3725:3728   */\n      dup3\n        /* \"#utility.yul\":3718:3776   */\n      mstore\n        /* \"#utility.yul\":3625:3782   */\n      pop\n      pop\n      jump\t// out\n        /* \"#utility.yul\":3788:3897   */\n    tag_176:\n        /* \"#utility.yul\":3869:3890   */\n      tag_178\n        /* \"#utility.yul\":3884:3889   */\n      dup2\n        /* \"#utility.yul\":3869:3890   */\n      tag_179\n      jump\t// in\n    tag_178:\n        /* \"#utility.yul\":3864:3867   */\n      dup3\n        /* \"#utility.yul\":3857:3891   */\n      mstore\n        /* \"#utility.yul\":3788:3897   */\n      pop\n      pop\n      jump\t// out\n        /* \"#utility.yul\":3903:4267   */\n    tag_180:\n        /* \"#utility.yul\":3991:3994   */\n      0x00\n        /* \"#utility.yul\":4019:4058   */\n      tag_182\n        /* \"#utility.yul\":4052:4057   */\n      dup3\n        /* \"#utility.yul\":4019:4058   */\n      tag_183\n      jump\t// in\n    tag_182:\n        /* \"#utility.yul\":4074:4145   */\n      tag_184\n        /* \"#utility.yul\":4138:4144   */\n      dup2\n        /* \"#utility.yul\":4133:4136   */\n      dup6\n        /* \"#utility.yul\":4074:4145   */\n      tag_185\n      jump\t// in\n    tag_184:\n        /* \"#utility.yul\":4067:4145   */\n      swap4\n      pop\n        /* \"#utility.yul\":4154:4206   */\n      tag_186\n        /* \"#utility.yul\":4199:4205   */\n      dup2\n        /* \"#utility.yul\":4194:4197   */\n      dup6\n        /* \"#utility.yul\":4187:4191   */\n      0x20\n        /* \"#utility.yul\":4180:4185   */\n      dup7\n        /* \"#utility.yul\":4176:4192   */\n      add\n        /* \"#utility.yul\":4154:4206   */\n      tag_187\n      jump\t// in\n    tag_186:\n        /* \"#utility.yul\":4231:4260   */\n      tag_188\n        /* \"#utility.yul\":4253:4259   */\n      dup2\n        /* \"#utility.yul\":4231:4260   */\n      tag_189\n      jump\t// in\n    tag_188:\n        /* \"#utility.yul\":4226:4229   */\n      dup5\n        /* \"#utility.yul\":4222:4261   */\n      add\n        /* \"#utility.yul\":4215:4261   */\n      swap2\n      pop\n        /* \"#utility.yul\":3995:4267   */\n      pop\n        /* \"#utility.yul\":3903:4267   */\n      swap3\n      swap2\n      pop\n      pop\n      jump\t// out\n        /* \"#utility.yul\":4273:4650   */\n    tag_190:\n        /* \"#utility.yul\":4379:4382   */\n      0x00\n        /* \"#utility.yul\":4407:4446   */\n      tag_192\n        /* \"#utility.yul\":4440:4445   */\n      dup3\n        /* \"#utility.yul\":4407:4446   */\n      tag_183\n      jump\t// in\n    tag_192:\n        /* \"#utility.yul\":4462:4551   */\n      tag_193\n        /* \"#utility.yul\":4544:4550   */\n      dup2\n        /* \"#utility.yul\":4539:4542   */\n      dup6\n        /* \"#utility.yul\":4462:4551   */\n      tag_194\n      jump\t// in\n    tag_193:\n        /* \"#utility.yul\":4455:4551   */\n      swap4\n      pop\n        /* \"#utility.yul\":4560:4612   */\n      tag_195\n        /* \"#utility.yul\":4605:4611   */\n      dup2\n        /* \"#utility.yul\":4600:4603   */\n      dup6\n        /* \"#utility.yul\":4593:4597   */\n      0x20\n        /* \"#utility.yul\":4586:4591   */\n      dup7\n        /* \"#utility.yul\":4582:4598   */\n      add\n        /* \"#utility.yul\":4560:4612   */\n      tag_187\n      jump\t// in\n    tag_195:\n        /* \"#utility.yul\":4637:4643   */\n      dup1\n        /* \"#utility.yul\":4632:4635   */\n      dup5\n        /* \"#utility.yul\":4628:4644   */\n      add\n        /* \"#utility.yul\":4621:4644   */\n      swap2\n      pop\n        /* \"#utility.yul\":4383:4650   */\n      pop\n        /* \"#utility.yul\":4273:4650   */\n      swap3\n      swap2\n      pop\n      pop\n      jump\t// out\n        /* \"#utility.yul\":4656:5022   */\n    tag_196:\n        /* \"#utility.yul\":4798:4801   */\n      0x00\n        /* \"#utility.yul\":4819:4886   */\n      tag_198\n        /* \"#utility.yul\":4883:4885   */\n      0x26\n        /* \"#utility.yul\":4878:4881   */\n      dup4\n        /* \"#utility.yul\":4819:4886   */\n      tag_185\n      jump\t// in\n    tag_198:\n        /* \"#utility.yul\":4812:4886   */\n      swap2\n      pop\n        /* \"#utility.yul\":4895:4988   */\n      tag_199\n        /* \"#utility.yul\":4984:4987   */\n      dup3\n        /* \"#utility.yul\":4895:4988   */\n      tag_200\n      jump\t// in\n    tag_199:\n        /* \"#utility.yul\":5013:5015   */\n      0x40\n        /* \"#utility.yul\":5008:5011   */\n      dup3\n        /* \"#utility.yul\":5004:5016   */\n      add\n        /* \"#utility.yul\":4997:5016   */\n      swap1\n      pop\n        /* \"#utility.yul\":4656:5022   */\n      swap2\n      swap1\n      pop\n      jump\t// out\n        /* \"#utility.yul\":5028:5394   */\n    tag_201:\n        /* \"#utility.yul\":5170:5173   */\n      0x00\n        /* \"#utility.yul\":5191:5258   */\n      tag_203\n        /* \"#utility.yul\":5255:5257   */\n      0x14\n        /* \"#utility.yul\":5250:5253   */\n      dup4\n        /* \"#utility.yul\":5191:5258   */\n      tag_185\n      jump\t// in\n    tag_203:\n        /* \"#utility.yul\":5184:5258   */\n      swap2\n      pop\n        /* \"#utility.yul\":5267:5360   */\n      tag_204\n        /* \"#utility.yul\":5356:5359   */\n      dup3\n        /* \"#utility.yul\":5267:5360   */\n      tag_205\n      jump\t// in\n    tag_204:\n        /* \"#utility.yul\":5385:5387   */\n      0x20\n        /* \"#utility.yul\":5380:5383   */\n      dup3\n        /* \"#utility.yul\":5376:5388   */\n      add\n        /* \"#utility.yul\":5369:5388   */\n      swap1\n      pop\n        /* \"#utility.yul\":5028:5394   */\n      swap2\n      swap1\n      pop\n      jump\t// out\n        /* \"#utility.yul\":5400:5766   */\n    tag_206:\n        /* \"#utility.yul\":5542:5545   */\n      0x00\n        /* \"#utility.yul\":5563:5630   */\n      tag_208\n        /* \"#utility.yul\":5627:5629   */\n      0x20\n        /* \"#utility.yul\":5622:5625   */\n      dup4\n        /* \"#utility.yul\":5563:5630   */\n      tag_185\n      jump\t// in\n    tag_208:\n        /* \"#utility.yul\":5556:5630   */\n      swap2\n      pop\n        /* \"#utility.yul\":5639:5732   */\n      tag_209\n        /* \"#utility.yul\":5728:5731   */\n      dup3\n        /* \"#utility.yul\":5639:5732   */\n      tag_210\n      jump\t// in\n    tag_209:\n        /* \"#utility.yul\":5757:5759   */\n      0x20\n        /* \"#utility.yul\":5752:5755   */\n      dup3\n        /* \"#utility.yul\":5748:5760   */\n      add\n        /* \"#utility.yul\":5741:5760   */\n      swap1\n      pop\n        /* \"#utility.yul\":5400:5766   */\n      swap2\n      swap1\n      pop\n      jump\t// out\n        /* \"#utility.yul\":5772:6138   */\n    tag_211:\n        /* \"#utility.yul\":5914:5917   */\n      0x00\n        /* \"#utility.yul\":5935:6002   */\n      tag_213\n        /* \"#utility.yul\":5999:6001   */\n      0x1b\n        /* \"#utility.yul\":5994:5997   */\n      dup4\n        /* \"#utility.yul\":5935:6002   */\n      tag_185\n      jump\t// in\n    tag_213:\n        /* \"#utility.yul\":5928:6002   */\n      swap2\n      pop\n        /* \"#utility.yul\":6011:6104   */\n      tag_214\n        /* \"#utility.yul\":6100:6103   */\n      dup3\n        /* \"#utility.yul\":6011:6104   */\n      tag_215\n      jump\t// in\n    tag_214:\n        /* \"#utility.yul\":6129:6131   */\n      0x20\n        /* \"#utility.yul\":6124:6127   */\n      dup3\n        /* \"#utility.yul\":6120:6132   */\n      add\n        /* \"#utility.yul\":6113:6132   */\n      swap1\n      pop\n        /* \"#utility.yul\":5772:6138   */\n      swap2\n      swap1\n      pop\n      jump\t// out\n        /* \"#utility.yul\":6144:6510   */\n    tag_216:\n        /* \"#utility.yul\":6286:6289   */\n      0x00\n        /* \"#utility.yul\":6307:6374   */\n      tag_218\n        /* \"#utility.yul\":6371:6373   */\n      0x2b\n        /* \"#utility.yul\":6366:6369   */\n      dup4\n        /* \"#utility.yul\":6307:6374   */\n      tag_185\n      jump\t// in\n    tag_218:\n        /* \"#utility.yul\":6300:6374   */\n      swap2\n      pop\n        /* \"#utility.yul\":6383:6476   */\n      tag_219\n        /* \"#utility.yul\":6472:6475   */\n      dup3\n        /* \"#utility.yul\":6383:6476   */\n      tag_220\n      jump\t// in\n    tag_219:\n        /* \"#utility.yul\":6501:6503   */\n      0x40\n        /* \"#utility.yul\":6496:6499   */\n      dup3\n        /* \"#utility.yul\":6492:6504   */\n      add\n        /* \"#utility.yul\":6485:6504   */\n      swap1\n      pop\n        /* \"#utility.yul\":6144:6510   */\n      swap2\n      swap1\n      pop\n      jump\t// out\n        /* \"#utility.yul\":6516:6634   */\n    tag_221:\n        /* \"#utility.yul\":6603:6627   */\n      tag_223\n        /* \"#utility.yul\":6621:6626   */\n      dup2\n        /* \"#utility.yul\":6603:6627   */\n      tag_224\n      jump\t// in\n    tag_223:\n        /* \"#utility.yul\":6598:6601   */\n      dup3\n        /* \"#utility.yul\":6591:6628   */\n      mstore\n        /* \"#utility.yul\":6516:6634   */\n      pop\n      pop\n      jump\t// out\n        /* \"#utility.yul\":6640:6797   */\n    tag_225:\n        /* \"#utility.yul\":6745:6790   */\n      tag_227\n        /* \"#utility.yul\":6765:6789   */\n      tag_228\n        /* \"#utility.yul\":6783:6788   */\n      dup3\n        /* \"#utility.yul\":6765:6789   */\n      tag_224\n      jump\t// in\n    tag_228:\n        /* \"#utility.yul\":6745:6790   */\n      tag_229\n      jump\t// in\n    tag_227:\n        /* \"#utility.yul\":6740:6743   */\n      dup3\n        /* \"#utility.yul\":6733:6791   */\n      mstore\n        /* \"#utility.yul\":6640:6797   */\n      pop\n      pop\n      jump\t// out\n        /* \"#utility.yul\":6803:7360   */\n    tag_101:\n        /* \"#utility.yul\":6991:6994   */\n      0x00\n        /* \"#utility.yul\":7006:7081   */\n      tag_231\n        /* \"#utility.yul\":7077:7080   */\n      dup3\n        /* \"#utility.yul\":7068:7074   */\n      dup7\n        /* \"#utility.yul\":7006:7081   */\n      tag_171\n      jump\t// in\n    tag_231:\n        /* \"#utility.yul\":7106:7108   */\n      0x14\n        /* \"#utility.yul\":7101:7104   */\n      dup3\n        /* \"#utility.yul\":7097:7109   */\n      add\n        /* \"#utility.yul\":7090:7109   */\n      swap2\n      pop\n        /* \"#utility.yul\":7119:7194   */\n      tag_232\n        /* \"#utility.yul\":7190:7193   */\n      dup3\n        /* \"#utility.yul\":7181:7187   */\n      dup6\n        /* \"#utility.yul\":7119:7194   */\n      tag_225\n      jump\t// in\n    tag_232:\n        /* \"#utility.yul\":7219:7221   */\n      0x20\n        /* \"#utility.yul\":7214:7217   */\n      dup3\n        /* \"#utility.yul\":7210:7222   */\n      add\n        /* \"#utility.yul\":7203:7222   */\n      swap2\n      pop\n        /* \"#utility.yul\":7239:7334   */\n      tag_233\n        /* \"#utility.yul\":7330:7333   */\n      dup3\n        /* \"#utility.yul\":7321:7327   */\n      dup5\n        /* \"#utility.yul\":7239:7334   */\n      tag_190\n      jump\t// in\n    tag_233:\n        /* \"#utility.yul\":7232:7334   */\n      swap2\n      pop\n        /* \"#utility.yul\":7351:7354   */\n      dup2\n        /* \"#utility.yul\":7344:7354   */\n      swap1\n      pop\n        /* \"#utility.yul\":6803:7360   */\n      swap5\n      swap4\n      pop\n      pop\n      pop\n      pop\n      jump\t// out\n        /* \"#utility.yul\":7366:7588   */\n    tag_21:\n        /* \"#utility.yul\":7459:7463   */\n      0x00\n        /* \"#utility.yul\":7497:7499   */\n      0x20\n        /* \"#utility.yul\":7486:7495   */\n      dup3\n        /* \"#utility.yul\":7482:7500   */\n      add\n        /* \"#utility.yul\":7474:7500   */\n      swap1\n      pop\n        /* \"#utility.yul\":7510:7581   */\n      tag_235\n        /* \"#utility.yul\":7578:7579   */\n      0x00\n        /* \"#utility.yul\":7567:7576   */\n      dup4\n        /* \"#utility.yul\":7563:7580   */\n      add\n        /* \"#utility.yul\":7554:7560   */\n      dup5\n        /* \"#utility.yul\":7510:7581   */\n      tag_167\n      jump\t// in\n    tag_235:\n        /* \"#utility.yul\":7366:7588   */\n      swap3\n      swap2\n      pop\n      pop\n      jump\t// out\n        /* \"#utility.yul\":7594:7804   */\n    tag_32:\n        /* \"#utility.yul\":7681:7685   */\n      0x00\n        /* \"#utility.yul\":7719:7721   */\n      0x20\n        /* \"#utility.yul\":7708:7717   */\n      dup3\n        /* \"#utility.yul\":7704:7722   */\n      add\n        /* \"#utility.yul\":7696:7722   */\n      swap1\n      pop\n        /* \"#utility.yul\":7732:7797   */\n      tag_237\n        /* \"#utility.yul\":7794:7795   */\n      0x00\n        /* \"#utility.yul\":7783:7792   */\n      dup4\n        /* \"#utility.yul\":7779:7796   */\n      add\n        /* \"#utility.yul\":7770:7776   */\n      dup5\n        /* \"#utility.yul\":7732:7797   */\n      tag_176\n      jump\t// in\n    tag_237:\n        /* \"#utility.yul\":7594:7804   */\n      swap3\n      swap2\n      pop\n      pop\n      jump\t// out\n        /* \"#utility.yul\":7810:8229   */\n    tag_95:\n        /* \"#utility.yul\":7976:7980   */\n      0x00\n        /* \"#utility.yul\":8014:8016   */\n      0x20\n        /* \"#utility.yul\":8003:8012   */\n      dup3\n        /* \"#utility.yul\":7999:8017   */\n      add\n        /* \"#utility.yul\":7991:8017   */\n      swap1\n      pop\n        /* \"#utility.yul\":8063:8072   */\n      dup2\n        /* \"#utility.yul\":8057:8061   */\n      dup2\n        /* \"#utility.yul\":8053:8073   */\n      sub\n        /* \"#utility.yul\":8049:8050   */\n      0x00\n        /* \"#utility.yul\":8038:8047   */\n      dup4\n        /* \"#utility.yul\":8034:8051   */\n      add\n        /* \"#utility.yul\":8027:8074   */\n      mstore\n        /* \"#utility.yul\":8091:8222   */\n      tag_239\n        /* \"#utility.yul\":8217:8221   */\n      dup2\n        /* \"#utility.yul\":8091:8222   */\n      tag_196\n      jump\t// in\n    tag_239:\n        /* \"#utility.yul\":8083:8222   */\n      swap1\n      pop\n        /* \"#utility.yul\":7810:8229   */\n      swap2\n      swap1\n      pop\n      jump\t// out\n        /* \"#utility.yul\":8235:8654   */\n    tag_66:\n        /* \"#utility.yul\":8401:8405   */\n      0x00\n        /* \"#utility.yul\":8439:8441   */\n      0x20\n        /* \"#utility.yul\":8428:8437   */\n      dup3\n        /* \"#utility.yul\":8424:8442   */\n      add\n        /* \"#utility.yul\":8416:8442   */\n      swap1\n      pop\n        /* \"#utility.yul\":8488:8497   */\n      dup2\n        /* \"#utility.yul\":8482:8486   */\n      dup2\n        /* \"#utility.yul\":8478:8498   */\n      sub\n        /* \"#utility.yul\":8474:8475   */\n      0x00\n        /* \"#utility.yul\":8463:8472   */\n      dup4\n        /* \"#utility.yul\":8459:8476   */\n      add\n        /* \"#utility.yul\":8452:8499   */\n      mstore\n        /* \"#utility.yul\":8516:8647   */\n      tag_241\n        /* \"#utility.yul\":8642:8646   */\n      dup2\n        /* \"#utility.yul\":8516:8647   */\n      tag_201\n      jump\t// in\n    tag_241:\n        /* \"#utility.yul\":8508:8647   */\n      swap1\n      pop\n        /* \"#utility.yul\":8235:8654   */\n      swap2\n      swap1\n      pop\n      jump\t// out\n        /* \"#utility.yul\":8660:9079   */\n    tag_56:\n        /* \"#utility.yul\":8826:8830   */\n      0x00\n        /* \"#utility.yul\":8864:8866   */\n      0x20\n        /* \"#utility.yul\":8853:8862   */\n      dup3\n        /* \"#utility.yul\":8849:8867   */\n      add\n        /* \"#utility.yul\":8841:8867   */\n      swap1\n      pop\n        /* \"#utility.yul\":8913:8922   */\n      dup2\n        /* \"#utility.yul\":8907:8911   */\n      dup2\n        /* \"#utility.yul\":8903:8923   */\n      sub\n        /* \"#utility.yul\":8899:8900   */\n      0x00\n        /* \"#utility.yul\":8888:8897   */\n      dup4\n        /* \"#utility.yul\":8884:8901   */\n      add\n        /* \"#utility.yul\":8877:8924   */\n      mstore\n        /* \"#utility.yul\":8941:9072   */\n      tag_243\n        /* \"#utility.yul\":9067:9071   */\n      dup2\n        /* \"#utility.yul\":8941:9072   */\n      tag_206\n      jump\t// in\n    tag_243:\n        /* \"#utility.yul\":8933:9072   */\n      swap1\n      pop\n        /* \"#utility.yul\":8660:9079   */\n      swap2\n      swap1\n      pop\n      jump\t// out\n        /* \"#utility.yul\":9085:9504   */\n    tag_71:\n        /* \"#utility.yul\":9251:9255   */\n      0x00\n        /* \"#utility.yul\":9289:9291   */\n      0x20\n        /* \"#utility.yul\":9278:9287   */\n      dup3\n        /* \"#utility.yul\":9274:9292   */\n      add\n        /* \"#utility.yul\":9266:9292   */\n      swap1\n      pop\n        /* \"#utility.yul\":9338:9347   */\n      dup2\n        /* \"#utility.yul\":9332:9336   */\n      dup2\n        /* \"#utility.yul\":9328:9348   */\n      sub\n        /* \"#utility.yul\":9324:9325   */\n      0x00\n        /* \"#utility.yul\":9313:9322   */\n      dup4\n        /* \"#utility.yul\":9309:9326   */\n      add\n        /* \"#utility.yul\":9302:9349   */\n      mstore\n        /* \"#utility.yul\":9366:9497   */\n      tag_245\n        /* \"#utility.yul\":9492:9496   */\n      dup2\n        /* \"#utility.yul\":9366:9497   */\n      tag_211\n      jump\t// in\n    tag_245:\n        /* \"#utility.yul\":9358:9497   */\n      swap1\n      pop\n        /* \"#utility.yul\":9085:9504   */\n      swap2\n      swap1\n      pop\n      jump\t// out\n        /* \"#utility.yul\":9510:9929   */\n    tag_49:\n        /* \"#utility.yul\":9676:9680   */\n      0x00\n        /* \"#utility.yul\":9714:9716   */\n      0x20\n        /* \"#utility.yul\":9703:9712   */\n      dup3\n        /* \"#utility.yul\":9699:9717   */\n      add\n        /* \"#utility.yul\":9691:9717   */\n      swap1\n      pop\n        /* \"#utility.yul\":9763:9772   */\n      dup2\n        /* \"#utility.yul\":9757:9761   */\n      dup2\n        /* \"#utility.yul\":9753:9773   */\n      sub\n        /* \"#utility.yul\":9749:9750   */\n      0x00\n        /* \"#utility.yul\":9738:9747   */\n      dup4\n        /* \"#utility.yul\":9734:9751   */\n      add\n        /* \"#utility.yul\":9727:9774   */\n      mstore\n        /* \"#utility.yul\":9791:9922   */\n      tag_247\n        /* \"#utility.yul\":9917:9921   */\n      dup2\n        /* \"#utility.yul\":9791:9922   */\n      tag_216\n      jump\t// in\n    tag_247:\n        /* \"#utility.yul\":9783:9922   */\n      swap1\n      pop\n        /* \"#utility.yul\":9510:9929   */\n      swap2\n      swap1\n      pop\n      jump\t// out\n        /* \"#utility.yul\":9935:10157   */\n    tag_27:\n        /* \"#utility.yul\":10028:10032   */\n      0x00\n        /* \"#utility.yul\":10066:10068   */\n      0x20\n        /* \"#utility.yul\":10055:10064   */\n      dup3\n        /* \"#utility.yul\":10051:10069   */\n      add\n        /* \"#utility.yul\":10043:10069   */\n      swap1\n      pop\n        /* \"#utility.yul\":10079:10150   */\n      tag_249\n        /* \"#utility.yul\":10147:10148   */\n      0x00\n        /* \"#utility.yul\":10136:10145   */\n      dup4\n        /* \"#utility.yul\":10132:10149   */\n      add\n        /* \"#utility.yul\":10123:10129   */\n      dup5\n        /* \"#utility.yul\":10079:10150   */\n      tag_221\n      jump\t// in\n    tag_249:\n        /* \"#utility.yul\":9935:10157   */\n      swap3\n      swap2\n      pop\n      pop\n      jump\t// out\n        /* \"#utility.yul\":10163:10807   */\n    tag_77:\n        /* \"#utility.yul\":10360:10364   */\n      0x00\n        /* \"#utility.yul\":10398:10401   */\n      0x80\n        /* \"#utility.yul\":10387:10396   */\n      dup3\n        /* \"#utility.yul\":10383:10402   */\n      add\n        /* \"#utility.yul\":10375:10402   */\n      swap1\n      pop\n        /* \"#utility.yul\":10412:10483   */\n      tag_251\n        /* \"#utility.yul\":10480:10481   */\n      0x00\n        /* \"#utility.yul\":10469:10478   */\n      dup4\n        /* \"#utility.yul\":10465:10482   */\n      add\n        /* \"#utility.yul\":10456:10462   */\n      dup8\n        /* \"#utility.yul\":10412:10483   */\n      tag_221\n      jump\t// in\n    tag_251:\n        /* \"#utility.yul\":10493:10565   */\n      tag_252\n        /* \"#utility.yul\":10561:10563   */\n      0x20\n        /* \"#utility.yul\":10550:10559   */\n      dup4\n        /* \"#utility.yul\":10546:10564   */\n      add\n        /* \"#utility.yul\":10537:10543   */\n      dup7\n        /* \"#utility.yul\":10493:10565   */\n      tag_167\n      jump\t// in\n    tag_252:\n        /* \"#utility.yul\":10575:10647   */\n      tag_253\n        /* \"#utility.yul\":10643:10645   */\n      0x40\n        /* \"#utility.yul\":10632:10641   */\n      dup4\n        /* \"#utility.yul\":10628:10646   */\n      add\n        /* \"#utility.yul\":10619:10625   */\n      dup6\n        /* \"#utility.yul\":10575:10647   */\n      tag_221\n      jump\t// in\n    tag_253:\n        /* \"#utility.yul\":10694:10703   */\n      dup2\n        /* \"#utility.yul\":10688:10692   */\n      dup2\n        /* \"#utility.yul\":10684:10704   */\n      sub\n        /* \"#utility.yul\":10679:10681   */\n      0x60\n        /* \"#utility.yul\":10668:10677   */\n      dup4\n        /* \"#utility.yul\":10664:10682   */\n      add\n        /* \"#utility.yul\":10657:10705   */\n      mstore\n        /* \"#utility.yul\":10722:10800   */\n      tag_254\n        /* \"#utility.yul\":10795:10799   */\n      dup2\n        /* \"#utility.yul\":10786:10792   */\n      dup5\n        /* \"#utility.yul\":10722:10800   */\n      tag_180\n      jump\t// in\n    tag_254:\n        /* \"#utility.yul\":10714:10800   */\n      swap1\n      pop\n        /* \"#utility.yul\":10163:10807   */\n      swap6\n      swap5\n      pop\n      pop\n      pop\n      pop\n      pop\n      jump\t// out\n        /* \"#utility.yul\":10813:11778   */\n    tag_37:\n        /* \"#utility.yul\":11088:11092   */\n      0x00\n        /* \"#utility.yul\":11126:11129   */\n      0xe0\n        /* \"#utility.yul\":11115:11124   */\n      dup3\n        /* \"#utility.yul\":11111:11130   */\n      add\n        /* \"#utility.yul\":11103:11130   */\n      swap1\n      pop\n        /* \"#utility.yul\":11140:11211   */\n      tag_256\n        /* \"#utility.yul\":11208:11209   */\n      0x00\n        /* \"#utility.yul\":11197:11206   */\n      dup4\n        /* \"#utility.yul\":11193:11210   */\n      add\n        /* \"#utility.yul\":11184:11190   */\n      dup11\n        /* \"#utility.yul\":11140:11211   */\n      tag_221\n      jump\t// in\n    tag_256:\n        /* \"#utility.yul\":11221:11293   */\n      tag_257\n        /* \"#utility.yul\":11289:11291   */\n      0x20\n        /* \"#utility.yul\":11278:11287   */\n      dup4\n        /* \"#utility.yul\":11274:11292   */\n      add\n        /* \"#utility.yul\":11265:11271   */\n      dup10\n        /* \"#utility.yul\":11221:11293   */\n      tag_221\n      jump\t// in\n    tag_257:\n        /* \"#utility.yul\":11303:11375   */\n      tag_258\n        /* \"#utility.yul\":11371:11373   */\n      0x40\n        /* \"#utility.yul\":11360:11369   */\n      dup4\n        /* \"#utility.yul\":11356:11374   */\n      add\n        /* \"#utility.yul\":11347:11353   */\n      dup9\n        /* \"#utility.yul\":11303:11375   */\n      tag_221\n      jump\t// in\n    tag_258:\n        /* \"#utility.yul\":11385:11457   */\n      tag_259\n        /* \"#utility.yul\":11453:11455   */\n      0x60\n        /* \"#utility.yul\":11442:11451   */\n      dup4\n        /* \"#utility.yul\":11438:11456   */\n      add\n        /* \"#utility.yul\":11429:11435   */\n      dup8\n        /* \"#utility.yul\":11385:11457   */\n      tag_167\n      jump\t// in\n    tag_259:\n        /* \"#utility.yul\":11505:11514   */\n      dup2\n        /* \"#utility.yul\":11499:11503   */\n      dup2\n        /* \"#utility.yul\":11495:11515   */\n      sub\n        /* \"#utility.yul\":11489:11492   */\n      0x80\n        /* \"#utility.yul\":11478:11487   */\n      dup4\n        /* \"#utility.yul\":11474:11493   */\n      add\n        /* \"#utility.yul\":11467:11516   */\n      mstore\n        /* \"#utility.yul\":11533:11611   */\n      tag_260\n        /* \"#utility.yul\":11606:11610   */\n      dup2\n        /* \"#utility.yul\":11597:11603   */\n      dup7\n        /* \"#utility.yul\":11533:11611   */\n      tag_180\n      jump\t// in\n    tag_260:\n        /* \"#utility.yul\":11525:11611   */\n      swap1\n      pop\n        /* \"#utility.yul\":11621:11688   */\n      tag_261\n        /* \"#utility.yul\":11683:11686   */\n      0xa0\n        /* \"#utility.yul\":11672:11681   */\n      dup4\n        /* \"#utility.yul\":11668:11687   */\n      add\n        /* \"#utility.yul\":11659:11665   */\n      dup6\n        /* \"#utility.yul\":11621:11688   */\n      tag_176\n      jump\t// in\n    tag_261:\n        /* \"#utility.yul\":11698:11771   */\n      tag_262\n        /* \"#utility.yul\":11766:11769   */\n      0xc0\n        /* \"#utility.yul\":11755:11764   */\n      dup4\n        /* \"#utility.yul\":11751:11770   */\n      add\n        /* \"#utility.yul\":11742:11748   */\n      dup5\n        /* \"#utility.yul\":11698:11771   */\n      tag_221\n      jump\t// in\n    tag_262:\n        /* \"#utility.yul\":10813:11778   */\n      swap9\n      swap8\n      pop\n      pop\n      pop\n      pop\n      pop\n      pop\n      pop\n      pop\n      jump\t// out\n        /* \"#utility.yul\":11784:11913   */\n    tag_120:\n        /* \"#utility.yul\":11818:11824   */\n      0x00\n        /* \"#utility.yul\":11845:11865   */\n      tag_264\n      tag_265\n      jump\t// in\n    tag_264:\n        /* \"#utility.yul\":11835:11865   */\n      swap1\n      pop\n        /* \"#utility.yul\":11874:11907   */\n      tag_266\n        /* \"#utility.yul\":11902:11906   */\n      dup3\n        /* \"#utility.yul\":11894:11900   */\n      dup3\n        /* \"#utility.yul\":11874:11907   */\n      tag_267\n      jump\t// in\n    tag_266:\n        /* \"#utility.yul\":11784:11913   */\n      swap2\n      swap1\n      pop\n      jump\t// out\n        /* \"#utility.yul\":11919:11994   */\n    tag_265:\n        /* \"#utility.yul\":11952:11958   */\n      0x00\n        /* \"#utility.yul\":11985:11987   */\n      0x40\n        /* \"#utility.yul\":11979:11988   */\n      mload\n        /* \"#utility.yul\":11969:11988   */\n      swap1\n      pop\n        /* \"#utility.yul\":11919:11994   */\n      swap1\n      jump\t// out\n        /* \"#utility.yul\":12000:12308   */\n    tag_119:\n        /* \"#utility.yul\":12062:12066   */\n      0x00\n        /* \"#utility.yul\":12152:12170   */\n      0xffffffffffffffff\n        /* \"#utility.yul\":12144:12150   */\n      dup3\n        /* \"#utility.yul\":12141:12171   */\n      gt\n        /* \"#utility.yul\":12138:12194   */\n      iszero\n      tag_270\n      jumpi\n        /* \"#utility.yul\":12174:12192   */\n      tag_271\n      tag_272\n      jump\t// in\n    tag_271:\n        /* \"#utility.yul\":12138:12194   */\n    tag_270:\n        /* \"#utility.yul\":12212:12241   */\n      tag_273\n        /* \"#utility.yul\":12234:12240   */\n      dup3\n        /* \"#utility.yul\":12212:12241   */\n      tag_189\n      jump\t// in\n    tag_273:\n        /* \"#utility.yul\":12204:12241   */\n      swap1\n      pop\n        /* \"#utility.yul\":12296:12300   */\n      0x20\n        /* \"#utility.yul\":12290:12294   */\n      dup2\n        /* \"#utility.yul\":12286:12301   */\n      add\n        /* \"#utility.yul\":12278:12301   */\n      swap1\n      pop\n        /* \"#utility.yul\":12000:12308   */\n      swap2\n      swap1\n      pop\n      jump\t// out\n        /* \"#utility.yul\":12314:12413   */\n    tag_183:\n        /* \"#utility.yul\":12366:12372   */\n      0x00\n        /* \"#utility.yul\":12400:12405   */\n      dup2\n        /* \"#utility.yul\":12394:12406   */\n      mload\n        /* \"#utility.yul\":12384:12406   */\n      swap1\n      pop\n        /* \"#utility.yul\":12314:12413   */\n      swap2\n      swap1\n      pop\n      jump\t// out\n        /* \"#utility.yul\":12419:12588   */\n    tag_185:\n        /* \"#utility.yul\":12503:12514   */\n      0x00\n        /* \"#utility.yul\":12537:12543   */\n      dup3\n        /* \"#utility.yul\":12532:12535   */\n      dup3\n        /* \"#utility.yul\":12525:12544   */\n      mstore\n        /* \"#utility.yul\":12577:12581   */\n      0x20\n        /* \"#utility.yul\":12572:12575   */\n      dup3\n        /* \"#utility.yul\":12568:12582   */\n      add\n        /* \"#utility.yul\":12553:12582   */\n      swap1\n      pop\n        /* \"#utility.yul\":12419:12588   */\n      swap3\n      swap2\n      pop\n      pop\n      jump\t// out\n        /* \"#utility.yul\":12594:12742   */\n    tag_194:\n        /* \"#utility.yul\":12696:12707   */\n      0x00\n        /* \"#utility.yul\":12733:12736   */\n      dup2\n        /* \"#utility.yul\":12718:12736   */\n      swap1\n      pop\n        /* \"#utility.yul\":12594:12742   */\n      swap3\n      swap2\n      pop\n      pop\n      jump\t// out\n        /* \"#utility.yul\":12748:13053   */\n    tag_73:\n        /* \"#utility.yul\":12788:12791   */\n      0x00\n        /* \"#utility.yul\":12807:12827   */\n      tag_278\n        /* \"#utility.yul\":12825:12826   */\n      dup3\n        /* \"#utility.yul\":12807:12827   */\n      tag_224\n      jump\t// in\n    tag_278:\n        /* \"#utility.yul\":12802:12827   */\n      swap2\n      pop\n        /* \"#utility.yul\":12841:12861   */\n      tag_279\n        /* \"#utility.yul\":12859:12860   */\n      dup4\n        /* \"#utility.yul\":12841:12861   */\n      tag_224\n      jump\t// in\n    tag_279:\n        /* \"#utility.yul\":12836:12861   */\n      swap3\n      pop\n        /* \"#utility.yul\":12995:12996   */\n      dup3\n        /* \"#utility.yul\":12927:12993   */\n      0xffffffffffffffffffffffffffffffffffffffffffffffffffffffffffffffff\n        /* \"#utility.yul\":12923:12997   */\n      sub\n        /* \"#utility.yul\":12920:12921   */\n      dup3\n        /* \"#utility.yul\":12917:12998   */\n      gt\n        /* \"#utility.yul\":12914:13021   */\n      iszero\n      tag_280\n      jumpi\n        /* \"#utility.yul\":13001:13019   */\n      tag_281\n      tag_282\n      jump\t// in\n    tag_281:\n        /* \"#utility.yul\":12914:13021   */\n    tag_280:\n        /* \"#utility.yul\":13045:13046   */\n      dup3\n        /* \"#utility.yul\":13042:13043   */\n      dup3\n        /* \"#utility.yul\":13038:13047   */\n      add\n        /* \"#utility.yul\":13031:13047   */\n      swap1\n      pop\n        /* \"#utility.yul\":12748:13053   */\n      swap3\n      swap2\n      pop\n      pop\n      jump\t// out\n        /* \"#utility.yul\":13059:13407   */\n    tag_63:\n        /* \"#utility.yul\":13099:13106   */\n      0x00\n        /* \"#utility.yul\":13122:13142   */\n      tag_284\n        /* \"#utility.yul\":13140:13141   */\n      dup3\n        /* \"#utility.yul\":13122:13142   */\n      tag_224\n      jump\t// in\n    tag_284:\n        /* \"#utility.yul\":13117:13142   */\n      swap2\n      pop\n        /* \"#utility.yul\":13156:13176   */\n      tag_285\n        /* \"#utility.yul\":13174:13175   */\n      dup4\n        /* \"#utility.yul\":13156:13176   */\n      tag_224\n      jump\t// in\n    tag_285:\n        /* \"#utility.yul\":13151:13176   */\n      swap3\n      pop\n        /* \"#utility.yul\":13344:13345   */\n      dup2\n        /* \"#utility.yul\":13276:13342   */\n      0xffffffffffffffffffffffffffffffffffffffffffffffffffffffffffffffff\n        /* \"#utility.yul\":13272:13346   */\n      div\n        /* \"#utility.yul\":13269:13270   */\n      dup4\n        /* \"#utility.yul\":13266:13347   */\n      gt\n        /* \"#utility.yul\":13261:13262   */\n      dup3\n        /* \"#utility.yul\":13254:13263   */\n      iszero\n        /* \"#utility.yul\":13247:13264   */\n      iszero\n        /* \"#utility.yul\":13243:13348   */\n      and\n        /* \"#utility.yul\":13240:13371   */\n      iszero\n      tag_286\n      jumpi\n        /* \"#utility.yul\":13351:13369   */\n      tag_287\n      tag_282\n      jump\t// in\n    tag_287:\n        /* \"#utility.yul\":13240:13371   */\n    tag_286:\n        /* \"#utility.yul\":13399:13400   */\n      dup3\n        /* \"#utility.yul\":13396:13397   */\n      dup3\n        /* \"#utility.yul\":13392:13401   */\n      mul\n        /* \"#utility.yul\":13381:13401   */\n      swap1\n      pop\n        /* \"#utility.yul\":13059:13407   */\n      swap3\n      swap2\n      pop\n      pop\n      jump\t// out\n        /* \"#utility.yul\":13413:13509   */\n    tag_170:\n        /* \"#utility.yul\":13450:13457   */\n      0x00\n        /* \"#utility.yul\":13479:13503   */\n      tag_289\n        /* \"#utility.yul\":13497:13502   */\n      dup3\n        /* \"#utility.yul\":13479:13503   */\n      tag_290\n      jump\t// in\n    tag_289:\n        /* \"#utility.yul\":13468:13503   */\n      swap1\n      pop\n        /* \"#utility.yul\":13413:13509   */\n      swap2\n      swap1\n      pop\n      jump\t// out\n        /* \"#utility.yul\":13515:13605   */\n    tag_179:\n        /* \"#utility.yul\":13549:13556   */\n      0x00\n        /* \"#utility.yul\":13592:13597   */\n      dup2\n        /* \"#utility.yul\":13585:13598   */\n      iszero\n        /* \"#utility.yul\":13578:13599   */\n      iszero\n        /* \"#utility.yul\":13567:13599   */\n      swap1\n      pop\n        /* \"#utility.yul\":13515:13605   */\n      swap2\n      swap1\n      pop\n      jump\t// out\n        /* \"#utility.yul\":13611:13737   */\n    tag_290:\n        /* \"#utility.yul\":13648:13655   */\n      0x00\n        /* \"#utility.yul\":13688:13730   */\n      0xffffffffffffffffffffffffffffffffffffffff\n        /* \"#utility.yul\":13681:13686   */\n      dup3\n        /* \"#utility.yul\":13677:13731   */\n      and\n        /* \"#utility.yul\":13666:13731   */\n      swap1\n      pop\n        /* \"#utility.yul\":13611:13737   */\n      swap2\n      swap1\n      pop\n      jump\t// out\n        /* \"#utility.yul\":13743:13820   */\n    tag_224:\n        /* \"#utility.yul\":13780:13787   */\n      0x00\n        /* \"#utility.yul\":13809:13814   */\n      dup2\n        /* \"#utility.yul\":13798:13814   */\n      swap1\n      pop\n        /* \"#utility.yul\":13743:13820   */\n      swap2\n      swap1\n      pop\n      jump\t// out\n        /* \"#utility.yul\":13826:13980   */\n    tag_125:\n        /* \"#utility.yul\":13910:13916   */\n      dup3\n        /* \"#utility.yul\":13905:13908   */\n      dup2\n        /* \"#utility.yul\":13900:13903   */\n      dup4\n        /* \"#utility.yul\":13887:13917   */\n      calldatacopy\n        /* \"#utility.yul\":13972:13973   */\n      0x00\n        /* \"#utility.yul\":13963:13969   */\n      dup4\n        /* \"#utility.yul\":13958:13961   */\n      dup4\n        /* \"#utility.yul\":13954:13970   */\n      add\n        /* \"#utility.yul\":13947:13974   */\n      mstore\n        /* \"#utility.yul\":13826:13980   */\n      pop\n      pop\n      pop\n      jump\t// out\n        /* \"#utility.yul\":13986:14293   */\n    tag_187:\n        /* \"#utility.yul\":14054:14055   */\n      0x00\n        /* \"#utility.yul\":14064:14177   */\n    tag_296:\n        /* \"#utility.yul\":14078:14084   */\n      dup4\n        /* \"#utility.yul\":14075:14076   */\n      dup2\n        /* \"#utility.yul\":14072:14085   */\n      lt\n        /* \"#utility.yul\":14064:14177   */\n      iszero\n      tag_298\n      jumpi\n        /* \"#utility.yul\":14163:14164   */\n      dup1\n        /* \"#utility.yul\":14158:14161   */\n      dup3\n        /* \"#utility.yul\":14154:14165   */\n      add\n        /* \"#utility.yul\":14148:14166   */\n      mload\n        /* \"#utility.yul\":14144:14145   */\n      dup2\n        /* \"#utility.yul\":14139:14142   */\n      dup5\n        /* \"#utility.yul\":14135:14146   */\n      add\n        /* \"#utility.yul\":14128:14167   */\n      mstore\n        /* \"#utility.yul\":14100:14102   */\n      0x20\n        /* \"#utility.yul\":14097:14098   */\n      dup2\n        /* \"#utility.yul\":14093:14103   */\n      add\n        /* \"#utility.yul\":14088:14103   */\n      swap1\n      pop\n        /* \"#utility.yul\":14064:14177   */\n      jump(tag_296)\n    tag_298:\n        /* \"#utility.yul\":14195:14201   */\n      dup4\n        /* \"#utility.yul\":14192:14193   */\n      dup2\n        /* \"#utility.yul\":14189:14202   */\n      gt\n        /* \"#utility.yul\":14186:14287   */\n      iszero\n      tag_299\n      jumpi\n        /* \"#utility.yul\":14275:14276   */\n      0x00\n        /* \"#utility.yul\":14266:14272   */\n      dup5\n        /* \"#utility.yul\":14261:14264   */\n      dup5\n        /* \"#utility.yul\":14257:14273   */\n      add\n        /* \"#utility.yul\":14250:14277   */\n      mstore\n        /* \"#utility.yul\":14186:14287   */\n    tag_299:\n        /* \"#utility.yul\":14035:14293   */\n      pop\n        /* \"#utility.yul\":13986:14293   */\n      pop\n      pop\n      pop\n      jump\t// out\n        /* \"#utility.yul\":14299:14619   */\n    tag_80:\n        /* \"#utility.yul\":14343:14349   */\n      0x00\n        /* \"#utility.yul\":14380:14381   */\n      0x02\n        /* \"#utility.yul\":14374:14378   */\n      dup3\n        /* \"#utility.yul\":14370:14382   */\n      div\n        /* \"#utility.yul\":14360:14382   */\n      swap1\n      pop\n        /* \"#utility.yul\":14427:14428   */\n      0x01\n        /* \"#utility.yul\":14421:14425   */\n      dup3\n        /* \"#utility.yul\":14417:14429   */\n      and\n        /* \"#utility.yul\":14448:14466   */\n      dup1\n        /* \"#utility.yul\":14438:14519   */\n      tag_301\n      jumpi\n        /* \"#utility.yul\":14504:14508   */\n      0x7f\n        /* \"#utility.yul\":14496:14502   */\n      dup3\n        /* \"#utility.yul\":14492:14509   */\n      and\n        /* \"#utility.yul\":14482:14509   */\n      swap2\n      pop\n        /* \"#utility.yul\":14438:14519   */\n    tag_301:\n        /* \"#utility.yul\":14566:14568   */\n      0x20\n        /* \"#utility.yul\":14558:14564   */\n      dup3\n        /* \"#utility.yul\":14555:14569   */\n      lt\n        /* \"#utility.yul\":14535:14553   */\n      dup2\n        /* \"#utility.yul\":14532:14570   */\n      eq\n        /* \"#utility.yul\":14529:14613   */\n      iszero\n      tag_302\n      jumpi\n        /* \"#utility.yul\":14585:14603   */\n      tag_303\n      tag_304\n      jump\t// in\n    tag_303:\n        /* \"#utility.yul\":14529:14613   */\n    tag_302:\n        /* \"#utility.yul\":14350:14619   */\n      pop\n        /* \"#utility.yul\":14299:14619   */\n      swap2\n      swap1\n      pop\n      jump\t// out\n        /* \"#utility.yul\":14625:14906   */\n    tag_267:\n        /* \"#utility.yul\":14708:14735   */\n      tag_306\n        /* \"#utility.yul\":14730:14734   */\n      dup3\n        /* \"#utility.yul\":14708:14735   */\n      tag_189\n      jump\t// in\n    tag_306:\n        /* \"#utility.yul\":14700:14706   */\n      dup2\n        /* \"#utility.yul\":14696:14736   */\n      add\n        /* \"#utility.yul\":14838:14844   */\n      dup2\n        /* \"#utility.yul\":14826:14836   */\n      dup2\n        /* \"#utility.yul\":14823:14845   */\n      lt\n        /* \"#utility.yul\":14802:14820   */\n      0xffffffffffffffff\n        /* \"#utility.yul\":14790:14800   */\n      dup3\n        /* \"#utility.yul\":14787:14821   */\n      gt\n        /* \"#utility.yul\":14784:14846   */\n      or\n        /* \"#utility.yul\":14781:14869   */\n      iszero\n      tag_307\n      jumpi\n        /* \"#utility.yul\":14849:14867   */\n      tag_308\n      tag_272\n      jump\t// in\n    tag_308:\n        /* \"#utility.yul\":14781:14869   */\n    tag_307:\n        /* \"#utility.yul\":14889:14899   */\n      dup1\n        /* \"#utility.yul\":14885:14887   */\n      0x40\n        /* \"#utility.yul\":14878:14900   */\n      mstore\n        /* \"#utility.yul\":14668:14906   */\n      pop\n        /* \"#utility.yul\":14625:14906   */\n      pop\n      pop\n      jump\t// out\n        /* \"#utility.yul\":14912:15012   */\n    tag_175:\n        /* \"#utility.yul\":14951:14958   */\n      0x00\n        /* \"#utility.yul\":14980:15006   */\n      tag_310\n        /* \"#utility.yul\":15000:15005   */\n      dup3\n        /* \"#utility.yul\":14980:15006   */\n      tag_311\n      jump\t// in\n    tag_310:\n        /* \"#utility.yul\":14969:15006   */\n      swap1\n      pop\n        /* \"#utility.yul\":14912:15012   */\n      swap2\n      swap1\n      pop\n      jump\t// out\n        /* \"#utility.yul\":15018:15112   */\n    tag_311:\n        /* \"#utility.yul\":15057:15064   */\n      0x00\n        /* \"#utility.yul\":15086:15106   */\n      tag_313\n        /* \"#utility.yul\":15100:15105   */\n      dup3\n        /* \"#utility.yul\":15086:15106   */\n      tag_314\n      jump\t// in\n    tag_313:\n        /* \"#utility.yul\":15075:15106   */\n      swap1\n      pop\n        /* \"#utility.yul\":15018:15112   */\n      swap2\n      swap1\n      pop\n      jump\t// out\n        /* \"#utility.yul\":15118:15197   */\n    tag_229:\n        /* \"#utility.yul\":15157:15164   */\n      0x00\n        /* \"#utility.yul\":15186:15191   */\n      dup2\n        /* \"#utility.yul\":15175:15191   */\n      swap1\n      pop\n        /* \"#utility.yul\":15118:15197   */\n      swap2\n      swap1\n      pop\n      jump\t// out\n        /* \"#utility.yul\":15203:15379   */\n    tag_103:\n        /* \"#utility.yul\":15235:15236   */\n      0x00\n        /* \"#utility.yul\":15252:15272   */\n      tag_317\n        /* \"#utility.yul\":15270:15271   */\n      dup3\n        /* \"#utility.yul\":15252:15272   */\n      tag_224\n      jump\t// in\n    tag_317:\n        /* \"#utility.yul\":15247:15272   */\n      swap2\n      pop\n        /* \"#utility.yul\":15286:15306   */\n      tag_318\n        /* \"#utility.yul\":15304:15305   */\n      dup4\n        /* \"#utility.yul\":15286:15306   */\n      tag_224\n      jump\t// in\n    tag_318:\n        /* \"#utility.yul\":15281:15306   */\n      swap3\n      pop\n        /* \"#utility.yul\":15325:15326   */\n      dup3\n        /* \"#utility.yul\":15315:15350   */\n      tag_319\n      jumpi\n        /* \"#utility.yul\":15330:15348   */\n      tag_320\n      tag_321\n      jump\t// in\n    tag_320:\n        /* \"#utility.yul\":15315:15350   */\n    tag_319:\n        /* \"#utility.yul\":15371:15372   */\n      dup3\n        /* \"#utility.yul\":15368:15369   */\n      dup3\n        /* \"#utility.yul\":15364:15373   */\n      mod\n        /* \"#utility.yul\":15359:15373   */\n      swap1\n      pop\n        /* \"#utility.yul\":15203:15379   */\n      swap3\n      swap2\n      pop\n      pop\n      jump\t// out\n        /* \"#utility.yul\":15385:15565   */\n    tag_282:\n        /* \"#utility.yul\":15433:15510   */\n      0x4e487b7100000000000000000000000000000000000000000000000000000000\n        /* \"#utility.yul\":15430:15431   */\n      0x00\n        /* \"#utility.yul\":15423:15511   */\n      mstore\n        /* \"#utility.yul\":15530:15534   */\n      0x11\n        /* \"#utility.yul\":15527:15528   */\n      0x04\n        /* \"#utility.yul\":15520:15535   */\n      mstore\n        /* \"#utility.yul\":15554:15558   */\n      0x24\n        /* \"#utility.yul\":15551:15552   */\n      0x00\n        /* \"#utility.yul\":15544:15559   */\n      revert\n        /* \"#utility.yul\":15571:15751   */\n    tag_321:\n        /* \"#utility.yul\":15619:15696   */\n      0x4e487b7100000000000000000000000000000000000000000000000000000000\n        /* \"#utility.yul\":15616:15617   */\n      0x00\n        /* \"#utility.yul\":15609:15697   */\n      mstore\n        /* \"#utility.yul\":15716:15720   */\n      0x12\n        /* \"#utility.yul\":15713:15714   */\n      0x04\n        /* \"#utility.yul\":15706:15721   */\n      mstore\n        /* \"#utility.yul\":15740:15744   */\n      0x24\n        /* \"#utility.yul\":15737:15738   */\n      0x00\n        /* \"#utility.yul\":15730:15745   */\n      revert\n        /* \"#utility.yul\":15757:15937   */\n    tag_304:\n        /* \"#utility.yul\":15805:15882   */\n      0x4e487b7100000000000000000000000000000000000000000000000000000000\n        /* \"#utility.yul\":15802:15803   */\n      0x00\n        /* \"#utility.yul\":15795:15883   */\n      mstore\n        /* \"#utility.yul\":15902:15906   */\n      0x22\n        /* \"#utility.yul\":15899:15900   */\n      0x04\n        /* \"#utility.yul\":15892:15907   */\n      mstore\n        /* \"#utility.yul\":15926:15930   */\n      0x24\n        /* \"#utility.yul\":15923:15924   */\n      0x00\n        /* \"#utility.yul\":15916:15931   */\n      revert\n        /* \"#utility.yul\":15943:16123   */\n    tag_272:\n        /* \"#utility.yul\":15991:16068   */\n      0x4e487b7100000000000000000000000000000000000000000000000000000000\n        /* \"#utility.yul\":15988:15989   */\n      0x00\n        /* \"#utility.yul\":15981:16069   */\n      mstore\n        /* \"#utility.yul\":16088:16092   */\n      0x41\n        /* \"#utility.yul\":16085:16086   */\n      0x04\n        /* \"#utility.yul\":16078:16093   */\n      mstore\n        /* \"#utility.yul\":16112:16116   */\n      0x24\n        /* \"#utility.yul\":16109:16110   */\n      0x00\n        /* \"#utility.yul\":16102:16117   */\n      revert\n        /* \"#utility.yul\":16129:16246   */\n    tag_134:\n        /* \"#utility.yul\":16238:16239   */\n      0x00\n        /* \"#utility.yul\":16235:16236   */\n      dup1\n        /* \"#utility.yul\":16228:16240   */\n      revert\n        /* \"#utility.yul\":16252:16369   */\n    tag_123:\n        /* \"#utility.yul\":16361:16362   */\n      0x00\n        /* \"#utility.yul\":16358:16359   */\n      dup1\n        /* \"#utility.yul\":16351:16363   */\n      revert\n        /* \"#utility.yul\":16375:16492   */\n    tag_157:\n        /* \"#utility.yul\":16484:16485   */\n      0x00\n        /* \"#utility.yul\":16481:16482   */\n      dup1\n        /* \"#utility.yul\":16474:16486   */\n      revert\n        /* \"#utility.yul\":16498:16615   */\n    tag_143:\n        /* \"#utility.yul\":16607:16608   */\n      0x00\n        /* \"#utility.yul\":16604:16605   */\n      dup1\n        /* \"#utility.yul\":16597:16609   */\n      revert\n        /* \"#utility.yul\":16621:16723   */\n    tag_189:\n        /* \"#utility.yul\":16662:16668   */\n      0x00\n        /* \"#utility.yul\":16713:16715   */\n      0x1f\n        /* \"#utility.yul\":16709:16716   */\n      not\n        /* \"#utility.yul\":16704:16706   */\n      0x1f\n        /* \"#utility.yul\":16697:16702   */\n      dup4\n        /* \"#utility.yul\":16693:16707   */\n      add\n        /* \"#utility.yul\":16689:16717   */\n      and\n        /* \"#utility.yul\":16679:16717   */\n      swap1\n      pop\n        /* \"#utility.yul\":16621:16723   */\n      swap2\n      swap1\n      pop\n      jump\t// out\n        /* \"#utility.yul\":16729:16823   */\n    tag_314:\n        /* \"#utility.yul\":16762:16770   */\n      0x00\n        /* \"#utility.yul\":16810:16815   */\n      dup2\n        /* \"#utility.yul\":16806:16808   */\n      0x60\n        /* \"#utility.yul\":16802:16816   */\n      shl\n        /* \"#utility.yul\":16781:16816   */\n      swap1\n      pop\n        /* \"#utility.yul\":16729:16823   */\n      swap2\n      swap1\n      pop\n      jump\t// out\n        /* \"#utility.yul\":16829:17054   */\n    tag_200:\n        /* \"#utility.yul\":16969:17003   */\n      0x4f776e61626c653a206e6577206f776e657220697320746865207a65726f2061\n        /* \"#utility.yul\":16965:16966   */\n      0x00\n        /* \"#utility.yul\":16957:16963   */\n      dup3\n        /* \"#utility.yul\":16953:16967   */\n      add\n        /* \"#utility.yul\":16946:17004   */\n      mstore\n        /* \"#utility.yul\":17038:17046   */\n      0x6464726573730000000000000000000000000000000000000000000000000000\n        /* \"#utility.yul\":17033:17035   */\n      0x20\n        /* \"#utility.yul\":17025:17031   */\n      dup3\n        /* \"#utility.yul\":17021:17036   */\n      add\n        /* \"#utility.yul\":17014:17047   */\n      mstore\n        /* \"#utility.yul\":16829:17054   */\n      pop\n      jump\t// out\n        /* \"#utility.yul\":17060:17230   */\n    tag_205:\n        /* \"#utility.yul\":17200:17222   */\n      0x76616c75652063616e6e6f74206265206e756c6c000000000000000000000000\n        /* \"#utility.yul\":17196:17197   */\n      0x00\n        /* \"#utility.yul\":17188:17194   */\n      dup3\n        /* \"#utility.yul\":17184:17198   */\n      add\n        /* \"#utility.yul\":17177:17223   */\n      mstore\n        /* \"#utility.yul\":17060:17230   */\n      pop\n      jump\t// out\n        /* \"#utility.yul\":17236:17418   */\n    tag_210:\n        /* \"#utility.yul\":17376:17410   */\n      0x4f776e61626c653a2063616c6c6572206973206e6f7420746865206f776e6572\n        /* \"#utility.yul\":17372:17373   */\n      0x00\n        /* \"#utility.yul\":17364:17370   */\n      dup3\n        /* \"#utility.yul\":17360:17374   */\n      add\n        /* \"#utility.yul\":17353:17411   */\n      mstore\n        /* \"#utility.yul\":17236:17418   */\n      pop\n      jump\t// out\n        /* \"#utility.yul\":17424:17601   */\n    tag_215:\n        /* \"#utility.yul\":17564:17593   */\n      0x7468697320686f757365496420616c7265616479206578697374730000000000\n        /* \"#utility.yul\":17560:17561   */\n      0x00\n        /* \"#utility.yul\":17552:17558   */\n      dup3\n        /* \"#utility.yul\":17548:17562   */\n      add\n        /* \"#utility.yul\":17541:17594   */\n      mstore\n        /* \"#utility.yul\":17424:17601   */\n      pop\n      jump\t// out\n        /* \"#utility.yul\":17607:17837   */\n    tag_220:\n        /* \"#utility.yul\":17747:17781   */\n      0x596f7520646f206e6f7420686176652061636365737320746f2064656c657465\n        /* \"#utility.yul\":17743:17744   */\n      0x00\n        /* \"#utility.yul\":17735:17741   */\n      dup3\n        /* \"#utility.yul\":17731:17745   */\n      add\n        /* \"#utility.yul\":17724:17782   */\n      mstore\n        /* \"#utility.yul\":17816:17829   */\n      0x207468697320686f757365000000000000000000000000000000000000000000\n        /* \"#utility.yul\":17811:17813   */\n      0x20\n        /* \"#utility.yul\":17803:17809   */\n      dup3\n        /* \"#utility.yul\":17799:17814   */\n      add\n        /* \"#utility.yul\":17792:17830   */\n      mstore\n        /* \"#utility.yul\":17607:17837   */\n      pop\n      jump\t// out\n        /* \"#utility.yul\":17843:17965   */\n    tag_129:\n        /* \"#utility.yul\":17916:17940   */\n      tag_338\n        /* \"#utility.yul\":17934:17939   */\n      dup2\n        /* \"#utility.yul\":17916:17940   */\n      tag_170\n      jump\t// in\n    tag_338:\n        /* \"#utility.yul\":17909:17914   */\n      dup2\n        /* \"#utility.yul\":17906:17941   */\n      eq\n        /* \"#utility.yul\":17896:17959   */\n      tag_339\n      jumpi\n        /* \"#utility.yul\":17955:17956   */\n      0x00\n        /* \"#utility.yul\":17952:17953   */\n      dup1\n        /* \"#utility.yul\":17945:17957   */\n      revert\n        /* \"#utility.yul\":17896:17959   */\n    tag_339:\n        /* \"#utility.yul\":17843:17965   */\n      pop\n      jump\t// out\n        /* \"#utility.yul\":17971:18093   */\n    tag_139:\n        /* \"#utility.yul\":18044:18068   */\n      tag_341\n        /* \"#utility.yul\":18062:18067   */\n      dup2\n        /* \"#utility.yul\":18044:18068   */\n      tag_224\n      jump\t// in\n    tag_341:\n        /* \"#utility.yul\":18037:18042   */\n      dup2\n        /* \"#utility.yul\":18034:18069   */\n      eq\n        /* \"#utility.yul\":18024:18087   */\n      tag_342\n      jumpi\n        /* \"#utility.yul\":18083:18084   */\n      0x00\n        /* \"#utility.yul\":18080:18081   */\n      dup1\n        /* \"#utility.yul\":18073:18085   */\n      revert\n        /* \"#utility.yul\":18024:18087   */\n    tag_342:\n        /* \"#utility.yul\":17971:18093   */\n      pop\n      jump\t// out\n\n    auxdata: 0xa264697066735822122088e97c3f3ea3201d3945563ad53bb621e6e98fc71e8660e167ccaf6816bbf57d64736f6c63430008070033\n}\n",
				"bytecode": {
					"linkReferences": {},
					"object": "60806040526005600255600254600a6200001a91906200017f565b600355620151806004553480156200003157600080fd5b5062000052620000466200005860201b60201c565b6200006060201b60201c565b62000302565b600033905090565b60008060009054906101000a900473ffffffffffffffffffffffffffffffffffffffff169050816000806101000a81548173ffffffffffffffffffffffffffffffffffffffff021916908373ffffffffffffffffffffffffffffffffffffffff1602179055508173ffffffffffffffffffffffffffffffffffffffff168173ffffffffffffffffffffffffffffffffffffffff167f8be0079c531659141344cd1fd0a4f28419497f9722a3daafe3b4186f6b6457e060405160405180910390a35050565b6000808291508390505b600185111562000176578086048111156200014e576200014d620002c6565b5b60018516156200015e5780820291505b80810290506200016e85620002f5565b94506200012e565b94509492505050565b60006200018c82620002bc565b91506200019983620002bc565b9250620001c87fffffffffffffffffffffffffffffffffffffffffffffffffffffffffffffffff8484620001d0565b905092915050565b600082620001e25760019050620002b5565b81620001f25760009050620002b5565b81600181146200020b576002811462000216576200024c565b6001915050620002b5565b60ff8411156200022b576200022a620002c6565b5b8360020a915084821115620002455762000244620002c6565b5b50620002b5565b5060208310610133831016604e8410600b8410161715620002865782820a90508381111562000280576200027f620002c6565b5b620002b5565b62000295848484600162000124565b92509050818404811115620002af57620002ae620002c6565b5b81810290505b9392505050565b6000819050919050565b7f4e487b7100000000000000000000000000000000000000000000000000000000600052601160045260246000fd5b60008160011c9050919050565b61133380620003126000396000f3fe608060405234801561001057600080fd5b50600436106100885760003560e01c8063a28691ab1161005b578063a28691ab14610101578063aeda852f14610131578063be40a73e14610167578063f2fde38b1461018357610088565b80633c3b0b4a1461008d578063715018a6146100a95780638da5cb5b146100b357806391bfe0d4146100d1575b600080fd5b6100a760048036038101906100a291906109d0565b61019f565b005b6100b1610275565b005b6100bb6102fd565b6040516100c89190610c9c565b60405180910390f35b6100eb60048036038101906100e691906109fd565b610326565b6040516100f89190610d72565b60405180910390f35b61011b600480360381019061011691906109d0565b610541565b6040516101289190610cb7565b60405180910390f35b61014b600480360381019061014691906109d0565b61054e565b60405161015e9796959493929190610dd9565b60405180910390f35b610181600480360381019061017c9190610a80565b610645565b005b61019d600480360381019061019891906109a3565b610657565b005b3373ffffffffffffffffffffffffffffffffffffffff166005600083815260200190815260200160002060030160009054906101000a900473ffffffffffffffffffffffffffffffffffffffff1673ffffffffffffffffffffffffffffffffffffffff1614610243576040517f08c379a000000000000000000000000000000000000000000000000000000000815260040161023a90610d52565b60405180910390fd5b60016005600083815260200190815260200160002060050160006101000a81548160ff02191690831515021790555050565b61027d61074f565b73ffffffffffffffffffffffffffffffffffffffff1661029b6102fd565b73ffffffffffffffffffffffffffffffffffffffff16146102f1576040517f08c379a00000000000000000000000000000000000000000000000000000000081526004016102e890610d12565b60405180910390fd5b6102fb6000610757565b565b60008060009054906101000a900473ffffffffffffffffffffffffffffffffffffffff16905090565b60008084866103359190610f22565b11610375576040517f08c379a000000000000000000000000000000000000000000000000000000000815260040161036c90610cf2565b60405180910390fd5b600061038284868561081b565b905060056000828152602001908152602001600020600001548114156103dd576040517f08c379a00000000000000000000000000000000000000000000000000000000081526004016103d490610d32565b60405180910390fd5b6040518060e001604052808281526020018781526020018681526020018573ffffffffffffffffffffffffffffffffffffffff168152602001848152602001600015158152602001600454426104339190610ecc565b8152506005600083815260200190815260200160002060008201518160000155602082015181600101556040820151816002015560608201518160030160006101000a81548173ffffffffffffffffffffffffffffffffffffffff021916908373ffffffffffffffffffffffffffffffffffffffff16021790555060808201518160040190805190602001906104ca929190610866565b5060a08201518160050160006101000a81548160ff02191690831515021790555060c082015181600601559050507f8f5afd88eb4be0ac287d87970052ce9a2b453448408e3c91a695ad7509ab71948185888660405161052d9493929190610d8d565b60405180910390a180915050949350505050565b6000428211159050919050565b60056020528060005260406000206000915090508060000154908060010154908060020154908060030160009054906101000a900473ffffffffffffffffffffffffffffffffffffffff16908060040180546105a990611006565b80601f01602080910402602001604051908101604052809291908181526020018280546105d590611006565b80156106225780601f106105f757610100808354040283529160200191610622565b820191906000526020600020905b81548152906001019060200180831161060557829003601f168201915b5050505050908060050160009054906101000a900460ff16908060060154905087565b61065183833384610326565b50505050565b61065f61074f565b73ffffffffffffffffffffffffffffffffffffffff1661067d6102fd565b73ffffffffffffffffffffffffffffffffffffffff16146106d3576040517f08c379a00000000000000000000000000000000000000000000000000000000081526004016106ca90610d12565b60405180910390fd5b600073ffffffffffffffffffffffffffffffffffffffff168173ffffffffffffffffffffffffffffffffffffffff161415610743576040517f08c379a000000000000000000000000000000000000000000000000000000000815260040161073a90610cd2565b60405180910390fd5b61074c81610757565b50565b600033905090565b60008060009054906101000a900473ffffffffffffffffffffffffffffffffffffffff169050816000806101000a81548173ffffffffffffffffffffffffffffffffffffffff021916908373ffffffffffffffffffffffffffffffffffffffff1602179055508173ffffffffffffffffffffffffffffffffffffffff168173ffffffffffffffffffffffffffffffffffffffff167f8be0079c531659141344cd1fd0a4f28419497f9722a3daafe3b4186f6b6457e060405160405180910390a35050565b60008084848460405160200161083393929190610c63565b6040516020818303038152906040528051906020012060001c90506003548161085c9190611097565b9150509392505050565b82805461087290611006565b90600052602060002090601f01602090048101928261089457600085556108db565b82601f106108ad57805160ff19168380011785556108db565b828001600101855582156108db579182015b828111156108da5782518255916020019190600101906108bf565b5b5090506108e891906108ec565b5090565b5b808211156109055760008160009055506001016108ed565b5090565b600061091c61091784610e74565b610e4f565b90508281526020810184848401111561093857610937611189565b5b610943848285610fc4565b509392505050565b60008135905061095a816112cf565b92915050565b600082601f83011261097557610974611184565b5b8135610985848260208601610909565b91505092915050565b60008135905061099d816112e6565b92915050565b6000602082840312156109b9576109b8611193565b5b60006109c78482850161094b565b91505092915050565b6000602082840312156109e6576109e5611193565b5b60006109f48482850161098e565b91505092915050565b60008060008060808587031215610a1757610a16611193565b5b6000610a258782880161098e565b9450506020610a368782880161098e565b9350506040610a478782880161094b565b925050606085013567ffffffffffffffff811115610a6857610a6761118e565b5b610a7487828801610960565b91505092959194509250565b600080600060608486031215610a9957610a98611193565b5b6000610aa78682870161098e565b9350506020610ab88682870161098e565b925050604084013567ffffffffffffffff811115610ad957610ad861118e565b5b610ae586828701610960565b9150509250925092565b610af881610f7c565b82525050565b610b0f610b0a82610f7c565b611069565b82525050565b610b1e81610f8e565b82525050565b6000610b2f82610ea5565b610b398185610eb0565b9350610b49818560208601610fd3565b610b5281611198565b840191505092915050565b6000610b6882610ea5565b610b728185610ec1565b9350610b82818560208601610fd3565b80840191505092915050565b6000610b9b602683610eb0565b9150610ba6826111b6565b604082019050919050565b6000610bbe601483610eb0565b9150610bc982611205565b602082019050919050565b6000610be1602083610eb0565b9150610bec8261122e565b602082019050919050565b6000610c04601b83610eb0565b9150610c0f82611257565b602082019050919050565b6000610c27602b83610eb0565b9150610c3282611280565b604082019050919050565b610c4681610fba565b82525050565b610c5d610c5882610fba565b61108d565b82525050565b6000610c6f8286610afe565b601482019150610c7f8285610c4c565b602082019150610c8f8284610b5d565b9150819050949350505050565b6000602082019050610cb16000830184610aef565b92915050565b6000602082019050610ccc6000830184610b15565b92915050565b60006020820190508181036000830152610ceb81610b8e565b9050919050565b60006020820190508181036000830152610d0b81610bb1565b9050919050565b60006020820190508181036000830152610d2b81610bd4565b9050919050565b60006020820190508181036000830152610d4b81610bf7565b9050919050565b60006020820190508181036000830152610d6b81610c1a565b9050919050565b6000602082019050610d876000830184610c3d565b92915050565b6000608082019050610da26000830187610c3d565b610daf6020830186610aef565b610dbc6040830185610c3d565b8181036060830152610dce8184610b24565b905095945050505050565b600060e082019050610dee600083018a610c3d565b610dfb6020830189610c3d565b610e086040830188610c3d565b610e156060830187610aef565b8181036080830152610e278186610b24565b9050610e3660a0830185610b15565b610e4360c0830184610c3d565b98975050505050505050565b6000610e59610e6a565b9050610e658282611038565b919050565b6000604051905090565b600067ffffffffffffffff821115610e8f57610e8e611155565b5b610e9882611198565b9050602081019050919050565b600081519050919050565b600082825260208201905092915050565b600081905092915050565b6000610ed782610fba565b9150610ee283610fba565b9250827fffffffffffffffffffffffffffffffffffffffffffffffffffffffffffffffff03821115610f1757610f166110c8565b5b828201905092915050565b6000610f2d82610fba565b9150610f3883610fba565b9250817fffffffffffffffffffffffffffffffffffffffffffffffffffffffffffffffff0483118215151615610f7157610f706110c8565b5b828202905092915050565b6000610f8782610f9a565b9050919050565b60008115159050919050565b600073ffffffffffffffffffffffffffffffffffffffff82169050919050565b6000819050919050565b82818337600083830152505050565b60005b83811015610ff1578082015181840152602081019050610fd6565b83811115611000576000848401525b50505050565b6000600282049050600182168061101e57607f821691505b6020821081141561103257611031611126565b5b50919050565b61104182611198565b810181811067ffffffffffffffff821117156110605761105f611155565b5b80604052505050565b60006110748261107b565b9050919050565b6000611086826111a9565b9050919050565b6000819050919050565b60006110a282610fba565b91506110ad83610fba565b9250826110bd576110bc6110f7565b5b828206905092915050565b7f4e487b7100000000000000000000000000000000000000000000000000000000600052601160045260246000fd5b7f4e487b7100000000000000000000000000000000000000000000000000000000600052601260045260246000fd5b7f4e487b7100000000000000000000000000000000000000000000000000000000600052602260045260246000fd5b7f4e487b7100000000000000000000000000000000000000000000000000000000600052604160045260246000fd5b600080fd5b600080fd5b600080fd5b600080fd5b6000601f19601f8301169050919050565b60008160601b9050919050565b7f4f776e61626c653a206e6577206f776e657220697320746865207a65726f206160008201527f6464726573730000000000000000000000000000000000000000000000000000602082015250565b7f76616c75652063616e6e6f74206265206e756c6c000000000000000000000000600082015250565b7f4f776e61626c653a2063616c6c6572206973206e6f7420746865206f776e6572600082015250565b7f7468697320686f757365496420616c7265616479206578697374730000000000600082015250565b7f596f7520646f206e6f7420686176652061636365737320746f2064656c65746560008201527f207468697320686f757365000000000000000000000000000000000000000000602082015250565b6112d881610f7c565b81146112e357600080fd5b50565b6112ef81610fba565b81146112fa57600080fd5b5056fea264697066735822122088e97c3f3ea3201d3945563ad53bb621e6e98fc71e8660e167ccaf6816bbf57d64736f6c63430008070033",
					"opcodes": "PUSH1 0x80 PUSH1 0x40 MSTORE PUSH1 0x5 PUSH1 0x2 SSTORE PUSH1 0x2 SLOAD PUSH1 0xA PUSH3 0x1A SWAP2 SWAP1 PUSH3 0x17F JUMP JUMPDEST PUSH1 0x3 SSTORE PUSH3 0x15180 PUSH1 0x4 SSTORE CALLVALUE DUP1 ISZERO PUSH3 0x31 JUMPI PUSH1 0x0 DUP1 REVERT JUMPDEST POP PUSH3 0x52 PUSH3 0x46 PUSH3 0x58 PUSH1 0x20 SHL PUSH1 0x20 SHR JUMP JUMPDEST PUSH3 0x60 PUSH1 0x20 SHL PUSH1 0x20 SHR JUMP JUMPDEST PUSH3 0x302 JUMP JUMPDEST PUSH1 0x0 CALLER SWAP1 POP SWAP1 JUMP JUMPDEST PUSH1 0x0 DUP1 PUSH1 0x0 SWAP1 SLOAD SWAP1 PUSH2 0x100 EXP SWAP1 DIV PUSH20 0xFFFFFFFFFFFFFFFFFFFFFFFFFFFFFFFFFFFFFFFF AND SWAP1 POP DUP2 PUSH1 0x0 DUP1 PUSH2 0x100 EXP DUP2 SLOAD DUP2 PUSH20 0xFFFFFFFFFFFFFFFFFFFFFFFFFFFFFFFFFFFFFFFF MUL NOT AND SWAP1 DUP4 PUSH20 0xFFFFFFFFFFFFFFFFFFFFFFFFFFFFFFFFFFFFFFFF AND MUL OR SWAP1 SSTORE POP DUP2 PUSH20 0xFFFFFFFFFFFFFFFFFFFFFFFFFFFFFFFFFFFFFFFF AND DUP2 PUSH20 0xFFFFFFFFFFFFFFFFFFFFFFFFFFFFFFFFFFFFFFFF AND PUSH32 0x8BE0079C531659141344CD1FD0A4F28419497F9722A3DAAFE3B4186F6B6457E0 PUSH1 0x40 MLOAD PUSH1 0x40 MLOAD DUP1 SWAP2 SUB SWAP1 LOG3 POP POP JUMP JUMPDEST PUSH1 0x0 DUP1 DUP3 SWAP2 POP DUP4 SWAP1 POP JUMPDEST PUSH1 0x1 DUP6 GT ISZERO PUSH3 0x176 JUMPI DUP1 DUP7 DIV DUP2 GT ISZERO PUSH3 0x14E JUMPI PUSH3 0x14D PUSH3 0x2C6 JUMP JUMPDEST JUMPDEST PUSH1 0x1 DUP6 AND ISZERO PUSH3 0x15E JUMPI DUP1 DUP3 MUL SWAP2 POP JUMPDEST DUP1 DUP2 MUL SWAP1 POP PUSH3 0x16E DUP6 PUSH3 0x2F5 JUMP JUMPDEST SWAP5 POP PUSH3 0x12E JUMP JUMPDEST SWAP5 POP SWAP5 SWAP3 POP POP POP JUMP JUMPDEST PUSH1 0x0 PUSH3 0x18C DUP3 PUSH3 0x2BC JUMP JUMPDEST SWAP2 POP PUSH3 0x199 DUP4 PUSH3 0x2BC JUMP JUMPDEST SWAP3 POP PUSH3 0x1C8 PUSH32 0xFFFFFFFFFFFFFFFFFFFFFFFFFFFFFFFFFFFFFFFFFFFFFFFFFFFFFFFFFFFFFFFF DUP5 DUP5 PUSH3 0x1D0 JUMP JUMPDEST SWAP1 POP SWAP3 SWAP2 POP POP JUMP JUMPDEST PUSH1 0x0 DUP3 PUSH3 0x1E2 JUMPI PUSH1 0x1 SWAP1 POP PUSH3 0x2B5 JUMP JUMPDEST DUP2 PUSH3 0x1F2 JUMPI PUSH1 0x0 SWAP1 POP PUSH3 0x2B5 JUMP JUMPDEST DUP2 PUSH1 0x1 DUP2 EQ PUSH3 0x20B JUMPI PUSH1 0x2 DUP2 EQ PUSH3 0x216 JUMPI PUSH3 0x24C JUMP JUMPDEST PUSH1 0x1 SWAP2 POP POP PUSH3 0x2B5 JUMP JUMPDEST PUSH1 0xFF DUP5 GT ISZERO PUSH3 0x22B JUMPI PUSH3 0x22A PUSH3 0x2C6 JUMP JUMPDEST JUMPDEST DUP4 PUSH1 0x2 EXP SWAP2 POP DUP5 DUP3 GT ISZERO PUSH3 0x245 JUMPI PUSH3 0x244 PUSH3 0x2C6 JUMP JUMPDEST JUMPDEST POP PUSH3 0x2B5 JUMP JUMPDEST POP PUSH1 0x20 DUP4 LT PUSH2 0x133 DUP4 LT AND PUSH1 0x4E DUP5 LT PUSH1 0xB DUP5 LT AND OR ISZERO PUSH3 0x286 JUMPI DUP3 DUP3 EXP SWAP1 POP DUP4 DUP2 GT ISZERO PUSH3 0x280 JUMPI PUSH3 0x27F PUSH3 0x2C6 JUMP JUMPDEST JUMPDEST PUSH3 0x2B5 JUMP JUMPDEST PUSH3 0x295 DUP5 DUP5 DUP5 PUSH1 0x1 PUSH3 0x124 JUMP JUMPDEST SWAP3 POP SWAP1 POP DUP2 DUP5 DIV DUP2 GT ISZERO PUSH3 0x2AF JUMPI PUSH3 0x2AE PUSH3 0x2C6 JUMP JUMPDEST JUMPDEST DUP2 DUP2 MUL SWAP1 POP JUMPDEST SWAP4 SWAP3 POP POP POP JUMP JUMPDEST PUSH1 0x0 DUP2 SWAP1 POP SWAP2 SWAP1 POP JUMP JUMPDEST PUSH32 0x4E487B7100000000000000000000000000000000000000000000000000000000 PUSH1 0x0 MSTORE PUSH1 0x11 PUSH1 0x4 MSTORE PUSH1 0x24 PUSH1 0x0 REVERT JUMPDEST PUSH1 0x0 DUP2 PUSH1 0x1 SHR SWAP1 POP SWAP2 SWAP1 POP JUMP JUMPDEST PUSH2 0x1333 DUP1 PUSH3 0x312 PUSH1 0x0 CODECOPY PUSH1 0x0 RETURN INVALID PUSH1 0x80 PUSH1 0x40 MSTORE CALLVALUE DUP1 ISZERO PUSH2 0x10 JUMPI PUSH1 0x0 DUP1 REVERT JUMPDEST POP PUSH1 0x4 CALLDATASIZE LT PUSH2 0x88 JUMPI PUSH1 0x0 CALLDATALOAD PUSH1 0xE0 SHR DUP1 PUSH4 0xA28691AB GT PUSH2 0x5B JUMPI DUP1 PUSH4 0xA28691AB EQ PUSH2 0x101 JUMPI DUP1 PUSH4 0xAEDA852F EQ PUSH2 0x131 JUMPI DUP1 PUSH4 0xBE40A73E EQ PUSH2 0x167 JUMPI DUP1 PUSH4 0xF2FDE38B EQ PUSH2 0x183 JUMPI PUSH2 0x88 JUMP JUMPDEST DUP1 PUSH4 0x3C3B0B4A EQ PUSH2 0x8D JUMPI DUP1 PUSH4 0x715018A6 EQ PUSH2 0xA9 JUMPI DUP1 PUSH4 0x8DA5CB5B EQ PUSH2 0xB3 JUMPI DUP1 PUSH4 0x91BFE0D4 EQ PUSH2 0xD1 JUMPI JUMPDEST PUSH1 0x0 DUP1 REVERT JUMPDEST PUSH2 0xA7 PUSH1 0x4 DUP1 CALLDATASIZE SUB DUP2 ADD SWAP1 PUSH2 0xA2 SWAP2 SWAP1 PUSH2 0x9D0 JUMP JUMPDEST PUSH2 0x19F JUMP JUMPDEST STOP JUMPDEST PUSH2 0xB1 PUSH2 0x275 JUMP JUMPDEST STOP JUMPDEST PUSH2 0xBB PUSH2 0x2FD JUMP JUMPDEST PUSH1 0x40 MLOAD PUSH2 0xC8 SWAP2 SWAP1 PUSH2 0xC9C JUMP JUMPDEST PUSH1 0x40 MLOAD DUP1 SWAP2 SUB SWAP1 RETURN JUMPDEST PUSH2 0xEB PUSH1 0x4 DUP1 CALLDATASIZE SUB DUP2 ADD SWAP1 PUSH2 0xE6 SWAP2 SWAP1 PUSH2 0x9FD JUMP JUMPDEST PUSH2 0x326 JUMP JUMPDEST PUSH1 0x40 MLOAD PUSH2 0xF8 SWAP2 SWAP1 PUSH2 0xD72 JUMP JUMPDEST PUSH1 0x40 MLOAD DUP1 SWAP2 SUB SWAP1 RETURN JUMPDEST PUSH2 0x11B PUSH1 0x4 DUP1 CALLDATASIZE SUB DUP2 ADD SWAP1 PUSH2 0x116 SWAP2 SWAP1 PUSH2 0x9D0 JUMP JUMPDEST PUSH2 0x541 JUMP JUMPDEST PUSH1 0x40 MLOAD PUSH2 0x128 SWAP2 SWAP1 PUSH2 0xCB7 JUMP JUMPDEST PUSH1 0x40 MLOAD DUP1 SWAP2 SUB SWAP1 RETURN JUMPDEST PUSH2 0x14B PUSH1 0x4 DUP1 CALLDATASIZE SUB DUP2 ADD SWAP1 PUSH2 0x146 SWAP2 SWAP1 PUSH2 0x9D0 JUMP JUMPDEST PUSH2 0x54E JUMP JUMPDEST PUSH1 0x40 MLOAD PUSH2 0x15E SWAP8 SWAP7 SWAP6 SWAP5 SWAP4 SWAP3 SWAP2 SWAP1 PUSH2 0xDD9 JUMP JUMPDEST PUSH1 0x40 MLOAD DUP1 SWAP2 SUB SWAP1 RETURN JUMPDEST PUSH2 0x181 PUSH1 0x4 DUP1 CALLDATASIZE SUB DUP2 ADD SWAP1 PUSH2 0x17C SWAP2 SWAP1 PUSH2 0xA80 JUMP JUMPDEST PUSH2 0x645 JUMP JUMPDEST STOP JUMPDEST PUSH2 0x19D PUSH1 0x4 DUP1 CALLDATASIZE SUB DUP2 ADD SWAP1 PUSH2 0x198 SWAP2 SWAP1 PUSH2 0x9A3 JUMP JUMPDEST PUSH2 0x657 JUMP JUMPDEST STOP JUMPDEST CALLER PUSH20 0xFFFFFFFFFFFFFFFFFFFFFFFFFFFFFFFFFFFFFFFF AND PUSH1 0x5 PUSH1 0x0 DUP4 DUP2 MSTORE PUSH1 0x20 ADD SWAP1 DUP2 MSTORE PUSH1 0x20 ADD PUSH1 0x0 KECCAK256 PUSH1 0x3 ADD PUSH1 0x0 SWAP1 SLOAD SWAP1 PUSH2 0x100 EXP SWAP1 DIV PUSH20 0xFFFFFFFFFFFFFFFFFFFFFFFFFFFFFFFFFFFFFFFF AND PUSH20 0xFFFFFFFFFFFFFFFFFFFFFFFFFFFFFFFFFFFFFFFF AND EQ PUSH2 0x243 JUMPI PUSH1 0x40 MLOAD PUSH32 0x8C379A000000000000000000000000000000000000000000000000000000000 DUP2 MSTORE PUSH1 0x4 ADD PUSH2 0x23A SWAP1 PUSH2 0xD52 JUMP JUMPDEST PUSH1 0x40 MLOAD DUP1 SWAP2 SUB SWAP1 REVERT JUMPDEST PUSH1 0x1 PUSH1 0x5 PUSH1 0x0 DUP4 DUP2 MSTORE PUSH1 0x20 ADD SWAP1 DUP2 MSTORE PUSH1 0x20 ADD PUSH1 0x0 KECCAK256 PUSH1 0x5 ADD PUSH1 0x0 PUSH2 0x100 EXP DUP2 SLOAD DUP2 PUSH1 0xFF MUL NOT AND SWAP1 DUP4 ISZERO ISZERO MUL OR SWAP1 SSTORE POP POP JUMP JUMPDEST PUSH2 0x27D PUSH2 0x74F JUMP JUMPDEST PUSH20 0xFFFFFFFFFFFFFFFFFFFFFFFFFFFFFFFFFFFFFFFF AND PUSH2 0x29B PUSH2 0x2FD JUMP JUMPDEST PUSH20 0xFFFFFFFFFFFFFFFFFFFFFFFFFFFFFFFFFFFFFFFF AND EQ PUSH2 0x2F1 JUMPI PUSH1 0x40 MLOAD PUSH32 0x8C379A000000000000000000000000000000000000000000000000000000000 DUP2 MSTORE PUSH1 0x4 ADD PUSH2 0x2E8 SWAP1 PUSH2 0xD12 JUMP JUMPDEST PUSH1 0x40 MLOAD DUP1 SWAP2 SUB SWAP1 REVERT JUMPDEST PUSH2 0x2FB PUSH1 0x0 PUSH2 0x757 JUMP JUMPDEST JUMP JUMPDEST PUSH1 0x0 DUP1 PUSH1 0x0 SWAP1 SLOAD SWAP1 PUSH2 0x100 EXP SWAP1 DIV PUSH20 0xFFFFFFFFFFFFFFFFFFFFFFFFFFFFFFFFFFFFFFFF AND SWAP1 POP SWAP1 JUMP JUMPDEST PUSH1 0x0 DUP1 DUP5 DUP7 PUSH2 0x335 SWAP2 SWAP1 PUSH2 0xF22 JUMP JUMPDEST GT PUSH2 0x375 JUMPI PUSH1 0x40 MLOAD PUSH32 0x8C379A000000000000000000000000000000000000000000000000000000000 DUP2 MSTORE PUSH1 0x4 ADD PUSH2 0x36C SWAP1 PUSH2 0xCF2 JUMP JUMPDEST PUSH1 0x40 MLOAD DUP1 SWAP2 SUB SWAP1 REVERT JUMPDEST PUSH1 0x0 PUSH2 0x382 DUP5 DUP7 DUP6 PUSH2 0x81B JUMP JUMPDEST SWAP1 POP PUSH1 0x5 PUSH1 0x0 DUP3 DUP2 MSTORE PUSH1 0x20 ADD SWAP1 DUP2 MSTORE PUSH1 0x20 ADD PUSH1 0x0 KECCAK256 PUSH1 0x0 ADD SLOAD DUP2 EQ ISZERO PUSH2 0x3DD JUMPI PUSH1 0x40 MLOAD PUSH32 0x8C379A000000000000000000000000000000000000000000000000000000000 DUP2 MSTORE PUSH1 0x4 ADD PUSH2 0x3D4 SWAP1 PUSH2 0xD32 JUMP JUMPDEST PUSH1 0x40 MLOAD DUP1 SWAP2 SUB SWAP1 REVERT JUMPDEST PUSH1 0x40 MLOAD DUP1 PUSH1 0xE0 ADD PUSH1 0x40 MSTORE DUP1 DUP3 DUP2 MSTORE PUSH1 0x20 ADD DUP8 DUP2 MSTORE PUSH1 0x20 ADD DUP7 DUP2 MSTORE PUSH1 0x20 ADD DUP6 PUSH20 0xFFFFFFFFFFFFFFFFFFFFFFFFFFFFFFFFFFFFFFFF AND DUP2 MSTORE PUSH1 0x20 ADD DUP5 DUP2 MSTORE PUSH1 0x20 ADD PUSH1 0x0 ISZERO ISZERO DUP2 MSTORE PUSH1 0x20 ADD PUSH1 0x4 SLOAD TIMESTAMP PUSH2 0x433 SWAP2 SWAP1 PUSH2 0xECC JUMP JUMPDEST DUP2 MSTORE POP PUSH1 0x5 PUSH1 0x0 DUP4 DUP2 MSTORE PUSH1 0x20 ADD SWAP1 DUP2 MSTORE PUSH1 0x20 ADD PUSH1 0x0 KECCAK256 PUSH1 0x0 DUP3 ADD MLOAD DUP2 PUSH1 0x0 ADD SSTORE PUSH1 0x20 DUP3 ADD MLOAD DUP2 PUSH1 0x1 ADD SSTORE PUSH1 0x40 DUP3 ADD MLOAD DUP2 PUSH1 0x2 ADD SSTORE PUSH1 0x60 DUP3 ADD MLOAD DUP2 PUSH1 0x3 ADD PUSH1 0x0 PUSH2 0x100 EXP DUP2 SLOAD DUP2 PUSH20 0xFFFFFFFFFFFFFFFFFFFFFFFFFFFFFFFFFFFFFFFF MUL NOT AND SWAP1 DUP4 PUSH20 0xFFFFFFFFFFFFFFFFFFFFFFFFFFFFFFFFFFFFFFFF AND MUL OR SWAP1 SSTORE POP PUSH1 0x80 DUP3 ADD MLOAD DUP2 PUSH1 0x4 ADD SWAP1 DUP1 MLOAD SWAP1 PUSH1 0x20 ADD SWAP1 PUSH2 0x4CA SWAP3 SWAP2 SWAP1 PUSH2 0x866 JUMP JUMPDEST POP PUSH1 0xA0 DUP3 ADD MLOAD DUP2 PUSH1 0x5 ADD PUSH1 0x0 PUSH2 0x100 EXP DUP2 SLOAD DUP2 PUSH1 0xFF MUL NOT AND SWAP1 DUP4 ISZERO ISZERO MUL OR SWAP1 SSTORE POP PUSH1 0xC0 DUP3 ADD MLOAD DUP2 PUSH1 0x6 ADD SSTORE SWAP1 POP POP PUSH32 0x8F5AFD88EB4BE0AC287D87970052CE9A2B453448408E3C91A695AD7509AB7194 DUP2 DUP6 DUP9 DUP7 PUSH1 0x40 MLOAD PUSH2 0x52D SWAP5 SWAP4 SWAP3 SWAP2 SWAP1 PUSH2 0xD8D JUMP JUMPDEST PUSH1 0x40 MLOAD DUP1 SWAP2 SUB SWAP1 LOG1 DUP1 SWAP2 POP POP SWAP5 SWAP4 POP POP POP POP JUMP JUMPDEST PUSH1 0x0 TIMESTAMP DUP3 GT ISZERO SWAP1 POP SWAP2 SWAP1 POP JUMP JUMPDEST PUSH1 0x5 PUSH1 0x20 MSTORE DUP1 PUSH1 0x0 MSTORE PUSH1 0x40 PUSH1 0x0 KECCAK256 PUSH1 0x0 SWAP2 POP SWAP1 POP DUP1 PUSH1 0x0 ADD SLOAD SWAP1 DUP1 PUSH1 0x1 ADD SLOAD SWAP1 DUP1 PUSH1 0x2 ADD SLOAD SWAP1 DUP1 PUSH1 0x3 ADD PUSH1 0x0 SWAP1 SLOAD SWAP1 PUSH2 0x100 EXP SWAP1 DIV PUSH20 0xFFFFFFFFFFFFFFFFFFFFFFFFFFFFFFFFFFFFFFFF AND SWAP1 DUP1 PUSH1 0x4 ADD DUP1 SLOAD PUSH2 0x5A9 SWAP1 PUSH2 0x1006 JUMP JUMPDEST DUP1 PUSH1 0x1F ADD PUSH1 0x20 DUP1 SWAP2 DIV MUL PUSH1 0x20 ADD PUSH1 0x40 MLOAD SWAP1 DUP2 ADD PUSH1 0x40 MSTORE DUP1 SWAP3 SWAP2 SWAP1 DUP2 DUP2 MSTORE PUSH1 0x20 ADD DUP3 DUP1 SLOAD PUSH2 0x5D5 SWAP1 PUSH2 0x1006 JUMP JUMPDEST DUP1 ISZERO PUSH2 0x622 JUMPI DUP1 PUSH1 0x1F LT PUSH2 0x5F7 JUMPI PUSH2 0x100 DUP1 DUP4 SLOAD DIV MUL DUP4 MSTORE SWAP2 PUSH1 0x20 ADD SWAP2 PUSH2 0x622 JUMP JUMPDEST DUP3 ADD SWAP2 SWAP1 PUSH1 0x0 MSTORE PUSH1 0x20 PUSH1 0x0 KECCAK256 SWAP1 JUMPDEST DUP2 SLOAD DUP2 MSTORE SWAP1 PUSH1 0x1 ADD SWAP1 PUSH1 0x20 ADD DUP1 DUP4 GT PUSH2 0x605 JUMPI DUP3 SWAP1 SUB PUSH1 0x1F AND DUP3 ADD SWAP2 JUMPDEST POP POP POP POP POP SWAP1 DUP1 PUSH1 0x5 ADD PUSH1 0x0 SWAP1 SLOAD SWAP1 PUSH2 0x100 EXP SWAP1 DIV PUSH1 0xFF AND SWAP1 DUP1 PUSH1 0x6 ADD SLOAD SWAP1 POP DUP8 JUMP JUMPDEST PUSH2 0x651 DUP4 DUP4 CALLER DUP5 PUSH2 0x326 JUMP JUMPDEST POP POP POP POP JUMP JUMPDEST PUSH2 0x65F PUSH2 0x74F JUMP JUMPDEST PUSH20 0xFFFFFFFFFFFFFFFFFFFFFFFFFFFFFFFFFFFFFFFF AND PUSH2 0x67D PUSH2 0x2FD JUMP JUMPDEST PUSH20 0xFFFFFFFFFFFFFFFFFFFFFFFFFFFFFFFFFFFFFFFF AND EQ PUSH2 0x6D3 JUMPI PUSH1 0x40 MLOAD PUSH32 0x8C379A000000000000000000000000000000000000000000000000000000000 DUP2 MSTORE PUSH1 0x4 ADD PUSH2 0x6CA SWAP1 PUSH2 0xD12 JUMP JUMPDEST PUSH1 0x40 MLOAD DUP1 SWAP2 SUB SWAP1 REVERT JUMPDEST PUSH1 0x0 PUSH20 0xFFFFFFFFFFFFFFFFFFFFFFFFFFFFFFFFFFFFFFFF AND DUP2 PUSH20 0xFFFFFFFFFFFFFFFFFFFFFFFFFFFFFFFFFFFFFFFF AND EQ ISZERO PUSH2 0x743 JUMPI PUSH1 0x40 MLOAD PUSH32 0x8C379A000000000000000000000000000000000000000000000000000000000 DUP2 MSTORE PUSH1 0x4 ADD PUSH2 0x73A SWAP1 PUSH2 0xCD2 JUMP JUMPDEST PUSH1 0x40 MLOAD DUP1 SWAP2 SUB SWAP1 REVERT JUMPDEST PUSH2 0x74C DUP2 PUSH2 0x757 JUMP JUMPDEST POP JUMP JUMPDEST PUSH1 0x0 CALLER SWAP1 POP SWAP1 JUMP JUMPDEST PUSH1 0x0 DUP1 PUSH1 0x0 SWAP1 SLOAD SWAP1 PUSH2 0x100 EXP SWAP1 DIV PUSH20 0xFFFFFFFFFFFFFFFFFFFFFFFFFFFFFFFFFFFFFFFF AND SWAP1 POP DUP2 PUSH1 0x0 DUP1 PUSH2 0x100 EXP DUP2 SLOAD DUP2 PUSH20 0xFFFFFFFFFFFFFFFFFFFFFFFFFFFFFFFFFFFFFFFF MUL NOT AND SWAP1 DUP4 PUSH20 0xFFFFFFFFFFFFFFFFFFFFFFFFFFFFFFFFFFFFFFFF AND MUL OR SWAP1 SSTORE POP DUP2 PUSH20 0xFFFFFFFFFFFFFFFFFFFFFFFFFFFFFFFFFFFFFFFF AND DUP2 PUSH20 0xFFFFFFFFFFFFFFFFFFFFFFFFFFFFFFFFFFFFFFFF AND PUSH32 0x8BE0079C531659141344CD1FD0A4F28419497F9722A3DAAFE3B4186F6B6457E0 PUSH1 0x40 MLOAD PUSH1 0x40 MLOAD DUP1 SWAP2 SUB SWAP1 LOG3 POP POP JUMP JUMPDEST PUSH1 0x0 DUP1 DUP5 DUP5 DUP5 PUSH1 0x40 MLOAD PUSH1 0x20 ADD PUSH2 0x833 SWAP4 SWAP3 SWAP2 SWAP1 PUSH2 0xC63 JUMP JUMPDEST PUSH1 0x40 MLOAD PUSH1 0x20 DUP2 DUP4 SUB SUB DUP2 MSTORE SWAP1 PUSH1 0x40 MSTORE DUP1 MLOAD SWAP1 PUSH1 0x20 ADD KECCAK256 PUSH1 0x0 SHR SWAP1 POP PUSH1 0x3 SLOAD DUP2 PUSH2 0x85C SWAP2 SWAP1 PUSH2 0x1097 JUMP JUMPDEST SWAP2 POP POP SWAP4 SWAP3 POP POP POP JUMP JUMPDEST DUP3 DUP1 SLOAD PUSH2 0x872 SWAP1 PUSH2 0x1006 JUMP JUMPDEST SWAP1 PUSH1 0x0 MSTORE PUSH1 0x20 PUSH1 0x0 KECCAK256 SWAP1 PUSH1 0x1F ADD PUSH1 0x20 SWAP1 DIV DUP2 ADD SWAP3 DUP3 PUSH2 0x894 JUMPI PUSH1 0x0 DUP6 SSTORE PUSH2 0x8DB JUMP JUMPDEST DUP3 PUSH1 0x1F LT PUSH2 0x8AD JUMPI DUP1 MLOAD PUSH1 0xFF NOT AND DUP4 DUP1 ADD OR DUP6 SSTORE PUSH2 0x8DB JUMP JUMPDEST DUP3 DUP1 ADD PUSH1 0x1 ADD DUP6 SSTORE DUP3 ISZERO PUSH2 0x8DB JUMPI SWAP2 DUP3 ADD JUMPDEST DUP3 DUP2 GT ISZERO PUSH2 0x8DA JUMPI DUP3 MLOAD DUP3 SSTORE SWAP2 PUSH1 0x20 ADD SWAP2 SWAP1 PUSH1 0x1 ADD SWAP1 PUSH2 0x8BF JUMP JUMPDEST JUMPDEST POP SWAP1 POP PUSH2 0x8E8 SWAP2 SWAP1 PUSH2 0x8EC JUMP JUMPDEST POP SWAP1 JUMP JUMPDEST JUMPDEST DUP1 DUP3 GT ISZERO PUSH2 0x905 JUMPI PUSH1 0x0 DUP2 PUSH1 0x0 SWAP1 SSTORE POP PUSH1 0x1 ADD PUSH2 0x8ED JUMP JUMPDEST POP SWAP1 JUMP JUMPDEST PUSH1 0x0 PUSH2 0x91C PUSH2 0x917 DUP5 PUSH2 0xE74 JUMP JUMPDEST PUSH2 0xE4F JUMP JUMPDEST SWAP1 POP DUP3 DUP2 MSTORE PUSH1 0x20 DUP2 ADD DUP5 DUP5 DUP5 ADD GT ISZERO PUSH2 0x938 JUMPI PUSH2 0x937 PUSH2 0x1189 JUMP JUMPDEST JUMPDEST PUSH2 0x943 DUP5 DUP3 DUP6 PUSH2 0xFC4 JUMP JUMPDEST POP SWAP4 SWAP3 POP POP POP JUMP JUMPDEST PUSH1 0x0 DUP2 CALLDATALOAD SWAP1 POP PUSH2 0x95A DUP2 PUSH2 0x12CF JUMP JUMPDEST SWAP3 SWAP2 POP POP JUMP JUMPDEST PUSH1 0x0 DUP3 PUSH1 0x1F DUP4 ADD SLT PUSH2 0x975 JUMPI PUSH2 0x974 PUSH2 0x1184 JUMP JUMPDEST JUMPDEST DUP2 CALLDATALOAD PUSH2 0x985 DUP5 DUP3 PUSH1 0x20 DUP7 ADD PUSH2 0x909 JUMP JUMPDEST SWAP2 POP POP SWAP3 SWAP2 POP POP JUMP JUMPDEST PUSH1 0x0 DUP2 CALLDATALOAD SWAP1 POP PUSH2 0x99D DUP2 PUSH2 0x12E6 JUMP JUMPDEST SWAP3 SWAP2 POP POP JUMP JUMPDEST PUSH1 0x0 PUSH1 0x20 DUP3 DUP5 SUB SLT ISZERO PUSH2 0x9B9 JUMPI PUSH2 0x9B8 PUSH2 0x1193 JUMP JUMPDEST JUMPDEST PUSH1 0x0 PUSH2 0x9C7 DUP5 DUP3 DUP6 ADD PUSH2 0x94B JUMP JUMPDEST SWAP2 POP POP SWAP3 SWAP2 POP POP JUMP JUMPDEST PUSH1 0x0 PUSH1 0x20 DUP3 DUP5 SUB SLT ISZERO PUSH2 0x9E6 JUMPI PUSH2 0x9E5 PUSH2 0x1193 JUMP JUMPDEST JUMPDEST PUSH1 0x0 PUSH2 0x9F4 DUP5 DUP3 DUP6 ADD PUSH2 0x98E JUMP JUMPDEST SWAP2 POP POP SWAP3 SWAP2 POP POP JUMP JUMPDEST PUSH1 0x0 DUP1 PUSH1 0x0 DUP1 PUSH1 0x80 DUP6 DUP8 SUB SLT ISZERO PUSH2 0xA17 JUMPI PUSH2 0xA16 PUSH2 0x1193 JUMP JUMPDEST JUMPDEST PUSH1 0x0 PUSH2 0xA25 DUP8 DUP3 DUP9 ADD PUSH2 0x98E JUMP JUMPDEST SWAP5 POP POP PUSH1 0x20 PUSH2 0xA36 DUP8 DUP3 DUP9 ADD PUSH2 0x98E JUMP JUMPDEST SWAP4 POP POP PUSH1 0x40 PUSH2 0xA47 DUP8 DUP3 DUP9 ADD PUSH2 0x94B JUMP JUMPDEST SWAP3 POP POP PUSH1 0x60 DUP6 ADD CALLDATALOAD PUSH8 0xFFFFFFFFFFFFFFFF DUP2 GT ISZERO PUSH2 0xA68 JUMPI PUSH2 0xA67 PUSH2 0x118E JUMP JUMPDEST JUMPDEST PUSH2 0xA74 DUP8 DUP3 DUP9 ADD PUSH2 0x960 JUMP JUMPDEST SWAP2 POP POP SWAP3 SWAP6 SWAP2 SWAP5 POP SWAP3 POP JUMP JUMPDEST PUSH1 0x0 DUP1 PUSH1 0x0 PUSH1 0x60 DUP5 DUP7 SUB SLT ISZERO PUSH2 0xA99 JUMPI PUSH2 0xA98 PUSH2 0x1193 JUMP JUMPDEST JUMPDEST PUSH1 0x0 PUSH2 0xAA7 DUP7 DUP3 DUP8 ADD PUSH2 0x98E JUMP JUMPDEST SWAP4 POP POP PUSH1 0x20 PUSH2 0xAB8 DUP7 DUP3 DUP8 ADD PUSH2 0x98E JUMP JUMPDEST SWAP3 POP POP PUSH1 0x40 DUP5 ADD CALLDATALOAD PUSH8 0xFFFFFFFFFFFFFFFF DUP2 GT ISZERO PUSH2 0xAD9 JUMPI PUSH2 0xAD8 PUSH2 0x118E JUMP JUMPDEST JUMPDEST PUSH2 0xAE5 DUP7 DUP3 DUP8 ADD PUSH2 0x960 JUMP JUMPDEST SWAP2 POP POP SWAP3 POP SWAP3 POP SWAP3 JUMP JUMPDEST PUSH2 0xAF8 DUP2 PUSH2 0xF7C JUMP JUMPDEST DUP3 MSTORE POP POP JUMP JUMPDEST PUSH2 0xB0F PUSH2 0xB0A DUP3 PUSH2 0xF7C JUMP JUMPDEST PUSH2 0x1069 JUMP JUMPDEST DUP3 MSTORE POP POP JUMP JUMPDEST PUSH2 0xB1E DUP2 PUSH2 0xF8E JUMP JUMPDEST DUP3 MSTORE POP POP JUMP JUMPDEST PUSH1 0x0 PUSH2 0xB2F DUP3 PUSH2 0xEA5 JUMP JUMPDEST PUSH2 0xB39 DUP2 DUP6 PUSH2 0xEB0 JUMP JUMPDEST SWAP4 POP PUSH2 0xB49 DUP2 DUP6 PUSH1 0x20 DUP7 ADD PUSH2 0xFD3 JUMP JUMPDEST PUSH2 0xB52 DUP2 PUSH2 0x1198 JUMP JUMPDEST DUP5 ADD SWAP2 POP POP SWAP3 SWAP2 POP POP JUMP JUMPDEST PUSH1 0x0 PUSH2 0xB68 DUP3 PUSH2 0xEA5 JUMP JUMPDEST PUSH2 0xB72 DUP2 DUP6 PUSH2 0xEC1 JUMP JUMPDEST SWAP4 POP PUSH2 0xB82 DUP2 DUP6 PUSH1 0x20 DUP7 ADD PUSH2 0xFD3 JUMP JUMPDEST DUP1 DUP5 ADD SWAP2 POP POP SWAP3 SWAP2 POP POP JUMP JUMPDEST PUSH1 0x0 PUSH2 0xB9B PUSH1 0x26 DUP4 PUSH2 0xEB0 JUMP JUMPDEST SWAP2 POP PUSH2 0xBA6 DUP3 PUSH2 0x11B6 JUMP JUMPDEST PUSH1 0x40 DUP3 ADD SWAP1 POP SWAP2 SWAP1 POP JUMP JUMPDEST PUSH1 0x0 PUSH2 0xBBE PUSH1 0x14 DUP4 PUSH2 0xEB0 JUMP JUMPDEST SWAP2 POP PUSH2 0xBC9 DUP3 PUSH2 0x1205 JUMP JUMPDEST PUSH1 0x20 DUP3 ADD SWAP1 POP SWAP2 SWAP1 POP JUMP JUMPDEST PUSH1 0x0 PUSH2 0xBE1 PUSH1 0x20 DUP4 PUSH2 0xEB0 JUMP JUMPDEST SWAP2 POP PUSH2 0xBEC DUP3 PUSH2 0x122E JUMP JUMPDEST PUSH1 0x20 DUP3 ADD SWAP1 POP SWAP2 SWAP1 POP JUMP JUMPDEST PUSH1 0x0 PUSH2 0xC04 PUSH1 0x1B DUP4 PUSH2 0xEB0 JUMP JUMPDEST SWAP2 POP PUSH2 0xC0F DUP3 PUSH2 0x1257 JUMP JUMPDEST PUSH1 0x20 DUP3 ADD SWAP1 POP SWAP2 SWAP1 POP JUMP JUMPDEST PUSH1 0x0 PUSH2 0xC27 PUSH1 0x2B DUP4 PUSH2 0xEB0 JUMP JUMPDEST SWAP2 POP PUSH2 0xC32 DUP3 PUSH2 0x1280 JUMP JUMPDEST PUSH1 0x40 DUP3 ADD SWAP1 POP SWAP2 SWAP1 POP JUMP JUMPDEST PUSH2 0xC46 DUP2 PUSH2 0xFBA JUMP JUMPDEST DUP3 MSTORE POP POP JUMP JUMPDEST PUSH2 0xC5D PUSH2 0xC58 DUP3 PUSH2 0xFBA JUMP JUMPDEST PUSH2 0x108D JUMP JUMPDEST DUP3 MSTORE POP POP JUMP JUMPDEST PUSH1 0x0 PUSH2 0xC6F DUP3 DUP7 PUSH2 0xAFE JUMP JUMPDEST PUSH1 0x14 DUP3 ADD SWAP2 POP PUSH2 0xC7F DUP3 DUP6 PUSH2 0xC4C JUMP JUMPDEST PUSH1 0x20 DUP3 ADD SWAP2 POP PUSH2 0xC8F DUP3 DUP5 PUSH2 0xB5D JUMP JUMPDEST SWAP2 POP DUP2 SWAP1 POP SWAP5 SWAP4 POP POP POP POP JUMP JUMPDEST PUSH1 0x0 PUSH1 0x20 DUP3 ADD SWAP1 POP PUSH2 0xCB1 PUSH1 0x0 DUP4 ADD DUP5 PUSH2 0xAEF JUMP JUMPDEST SWAP3 SWAP2 POP POP JUMP JUMPDEST PUSH1 0x0 PUSH1 0x20 DUP3 ADD SWAP1 POP PUSH2 0xCCC PUSH1 0x0 DUP4 ADD DUP5 PUSH2 0xB15 JUMP JUMPDEST SWAP3 SWAP2 POP POP JUMP JUMPDEST PUSH1 0x0 PUSH1 0x20 DUP3 ADD SWAP1 POP DUP2 DUP2 SUB PUSH1 0x0 DUP4 ADD MSTORE PUSH2 0xCEB DUP2 PUSH2 0xB8E JUMP JUMPDEST SWAP1 POP SWAP2 SWAP1 POP JUMP JUMPDEST PUSH1 0x0 PUSH1 0x20 DUP3 ADD SWAP1 POP DUP2 DUP2 SUB PUSH1 0x0 DUP4 ADD MSTORE PUSH2 0xD0B DUP2 PUSH2 0xBB1 JUMP JUMPDEST SWAP1 POP SWAP2 SWAP1 POP JUMP JUMPDEST PUSH1 0x0 PUSH1 0x20 DUP3 ADD SWAP1 POP DUP2 DUP2 SUB PUSH1 0x0 DUP4 ADD MSTORE PUSH2 0xD2B DUP2 PUSH2 0xBD4 JUMP JUMPDEST SWAP1 POP SWAP2 SWAP1 POP JUMP JUMPDEST PUSH1 0x0 PUSH1 0x20 DUP3 ADD SWAP1 POP DUP2 DUP2 SUB PUSH1 0x0 DUP4 ADD MSTORE PUSH2 0xD4B DUP2 PUSH2 0xBF7 JUMP JUMPDEST SWAP1 POP SWAP2 SWAP1 POP JUMP JUMPDEST PUSH1 0x0 PUSH1 0x20 DUP3 ADD SWAP1 POP DUP2 DUP2 SUB PUSH1 0x0 DUP4 ADD MSTORE PUSH2 0xD6B DUP2 PUSH2 0xC1A JUMP JUMPDEST SWAP1 POP SWAP2 SWAP1 POP JUMP JUMPDEST PUSH1 0x0 PUSH1 0x20 DUP3 ADD SWAP1 POP PUSH2 0xD87 PUSH1 0x0 DUP4 ADD DUP5 PUSH2 0xC3D JUMP JUMPDEST SWAP3 SWAP2 POP POP JUMP JUMPDEST PUSH1 0x0 PUSH1 0x80 DUP3 ADD SWAP1 POP PUSH2 0xDA2 PUSH1 0x0 DUP4 ADD DUP8 PUSH2 0xC3D JUMP JUMPDEST PUSH2 0xDAF PUSH1 0x20 DUP4 ADD DUP7 PUSH2 0xAEF JUMP JUMPDEST PUSH2 0xDBC PUSH1 0x40 DUP4 ADD DUP6 PUSH2 0xC3D JUMP JUMPDEST DUP2 DUP2 SUB PUSH1 0x60 DUP4 ADD MSTORE PUSH2 0xDCE DUP2 DUP5 PUSH2 0xB24 JUMP JUMPDEST SWAP1 POP SWAP6 SWAP5 POP POP POP POP POP JUMP JUMPDEST PUSH1 0x0 PUSH1 0xE0 DUP3 ADD SWAP1 POP PUSH2 0xDEE PUSH1 0x0 DUP4 ADD DUP11 PUSH2 0xC3D JUMP JUMPDEST PUSH2 0xDFB PUSH1 0x20 DUP4 ADD DUP10 PUSH2 0xC3D JUMP JUMPDEST PUSH2 0xE08 PUSH1 0x40 DUP4 ADD DUP9 PUSH2 0xC3D JUMP JUMPDEST PUSH2 0xE15 PUSH1 0x60 DUP4 ADD DUP8 PUSH2 0xAEF JUMP JUMPDEST DUP2 DUP2 SUB PUSH1 0x80 DUP4 ADD MSTORE PUSH2 0xE27 DUP2 DUP7 PUSH2 0xB24 JUMP JUMPDEST SWAP1 POP PUSH2 0xE36 PUSH1 0xA0 DUP4 ADD DUP6 PUSH2 0xB15 JUMP JUMPDEST PUSH2 0xE43 PUSH1 0xC0 DUP4 ADD DUP5 PUSH2 0xC3D JUMP JUMPDEST SWAP9 SWAP8 POP POP POP POP POP POP POP POP JUMP JUMPDEST PUSH1 0x0 PUSH2 0xE59 PUSH2 0xE6A JUMP JUMPDEST SWAP1 POP PUSH2 0xE65 DUP3 DUP3 PUSH2 0x1038 JUMP JUMPDEST SWAP2 SWAP1 POP JUMP JUMPDEST PUSH1 0x0 PUSH1 0x40 MLOAD SWAP1 POP SWAP1 JUMP JUMPDEST PUSH1 0x0 PUSH8 0xFFFFFFFFFFFFFFFF DUP3 GT ISZERO PUSH2 0xE8F JUMPI PUSH2 0xE8E PUSH2 0x1155 JUMP JUMPDEST JUMPDEST PUSH2 0xE98 DUP3 PUSH2 0x1198 JUMP JUMPDEST SWAP1 POP PUSH1 0x20 DUP2 ADD SWAP1 POP SWAP2 SWAP1 POP JUMP JUMPDEST PUSH1 0x0 DUP2 MLOAD SWAP1 POP SWAP2 SWAP1 POP JUMP JUMPDEST PUSH1 0x0 DUP3 DUP3 MSTORE PUSH1 0x20 DUP3 ADD SWAP1 POP SWAP3 SWAP2 POP POP JUMP JUMPDEST PUSH1 0x0 DUP2 SWAP1 POP SWAP3 SWAP2 POP POP JUMP JUMPDEST PUSH1 0x0 PUSH2 0xED7 DUP3 PUSH2 0xFBA JUMP JUMPDEST SWAP2 POP PUSH2 0xEE2 DUP4 PUSH2 0xFBA JUMP JUMPDEST SWAP3 POP DUP3 PUSH32 0xFFFFFFFFFFFFFFFFFFFFFFFFFFFFFFFFFFFFFFFFFFFFFFFFFFFFFFFFFFFFFFFF SUB DUP3 GT ISZERO PUSH2 0xF17 JUMPI PUSH2 0xF16 PUSH2 0x10C8 JUMP JUMPDEST JUMPDEST DUP3 DUP3 ADD SWAP1 POP SWAP3 SWAP2 POP POP JUMP JUMPDEST PUSH1 0x0 PUSH2 0xF2D DUP3 PUSH2 0xFBA JUMP JUMPDEST SWAP2 POP PUSH2 0xF38 DUP4 PUSH2 0xFBA JUMP JUMPDEST SWAP3 POP DUP2 PUSH32 0xFFFFFFFFFFFFFFFFFFFFFFFFFFFFFFFFFFFFFFFFFFFFFFFFFFFFFFFFFFFFFFFF DIV DUP4 GT DUP3 ISZERO ISZERO AND ISZERO PUSH2 0xF71 JUMPI PUSH2 0xF70 PUSH2 0x10C8 JUMP JUMPDEST JUMPDEST DUP3 DUP3 MUL SWAP1 POP SWAP3 SWAP2 POP POP JUMP JUMPDEST PUSH1 0x0 PUSH2 0xF87 DUP3 PUSH2 0xF9A JUMP JUMPDEST SWAP1 POP SWAP2 SWAP1 POP JUMP JUMPDEST PUSH1 0x0 DUP2 ISZERO ISZERO SWAP1 POP SWAP2 SWAP1 POP JUMP JUMPDEST PUSH1 0x0 PUSH20 0xFFFFFFFFFFFFFFFFFFFFFFFFFFFFFFFFFFFFFFFF DUP3 AND SWAP1 POP SWAP2 SWAP1 POP JUMP JUMPDEST PUSH1 0x0 DUP2 SWAP1 POP SWAP2 SWAP1 POP JUMP JUMPDEST DUP3 DUP2 DUP4 CALLDATACOPY PUSH1 0x0 DUP4 DUP4 ADD MSTORE POP POP POP JUMP JUMPDEST PUSH1 0x0 JUMPDEST DUP4 DUP2 LT ISZERO PUSH2 0xFF1 JUMPI DUP1 DUP3 ADD MLOAD DUP2 DUP5 ADD MSTORE PUSH1 0x20 DUP2 ADD SWAP1 POP PUSH2 0xFD6 JUMP JUMPDEST DUP4 DUP2 GT ISZERO PUSH2 0x1000 JUMPI PUSH1 0x0 DUP5 DUP5 ADD MSTORE JUMPDEST POP POP POP POP JUMP JUMPDEST PUSH1 0x0 PUSH1 0x2 DUP3 DIV SWAP1 POP PUSH1 0x1 DUP3 AND DUP1 PUSH2 0x101E JUMPI PUSH1 0x7F DUP3 AND SWAP2 POP JUMPDEST PUSH1 0x20 DUP3 LT DUP2 EQ ISZERO PUSH2 0x1032 JUMPI PUSH2 0x1031 PUSH2 0x1126 JUMP JUMPDEST JUMPDEST POP SWAP2 SWAP1 POP JUMP JUMPDEST PUSH2 0x1041 DUP3 PUSH2 0x1198 JUMP JUMPDEST DUP2 ADD DUP2 DUP2 LT PUSH8 0xFFFFFFFFFFFFFFFF DUP3 GT OR ISZERO PUSH2 0x1060 JUMPI PUSH2 0x105F PUSH2 0x1155 JUMP JUMPDEST JUMPDEST DUP1 PUSH1 0x40 MSTORE POP POP POP JUMP JUMPDEST PUSH1 0x0 PUSH2 0x1074 DUP3 PUSH2 0x107B JUMP JUMPDEST SWAP1 POP SWAP2 SWAP1 POP JUMP JUMPDEST PUSH1 0x0 PUSH2 0x1086 DUP3 PUSH2 0x11A9 JUMP JUMPDEST SWAP1 POP SWAP2 SWAP1 POP JUMP JUMPDEST PUSH1 0x0 DUP2 SWAP1 POP SWAP2 SWAP1 POP JUMP JUMPDEST PUSH1 0x0 PUSH2 0x10A2 DUP3 PUSH2 0xFBA JUMP JUMPDEST SWAP2 POP PUSH2 0x10AD DUP4 PUSH2 0xFBA JUMP JUMPDEST SWAP3 POP DUP3 PUSH2 0x10BD JUMPI PUSH2 0x10BC PUSH2 0x10F7 JUMP JUMPDEST JUMPDEST DUP3 DUP3 MOD SWAP1 POP SWAP3 SWAP2 POP POP JUMP JUMPDEST PUSH32 0x4E487B7100000000000000000000000000000000000000000000000000000000 PUSH1 0x0 MSTORE PUSH1 0x11 PUSH1 0x4 MSTORE PUSH1 0x24 PUSH1 0x0 REVERT JUMPDEST PUSH32 0x4E487B7100000000000000000000000000000000000000000000000000000000 PUSH1 0x0 MSTORE PUSH1 0x12 PUSH1 0x4 MSTORE PUSH1 0x24 PUSH1 0x0 REVERT JUMPDEST PUSH32 0x4E487B7100000000000000000000000000000000000000000000000000000000 PUSH1 0x0 MSTORE PUSH1 0x22 PUSH1 0x4 MSTORE PUSH1 0x24 PUSH1 0x0 REVERT JUMPDEST PUSH32 0x4E487B7100000000000000000000000000000000000000000000000000000000 PUSH1 0x0 MSTORE PUSH1 0x41 PUSH1 0x4 MSTORE PUSH1 0x24 PUSH1 0x0 REVERT JUMPDEST PUSH1 0x0 DUP1 REVERT JUMPDEST PUSH1 0x0 DUP1 REVERT JUMPDEST PUSH1 0x0 DUP1 REVERT JUMPDEST PUSH1 0x0 DUP1 REVERT JUMPDEST PUSH1 0x0 PUSH1 0x1F NOT PUSH1 0x1F DUP4 ADD AND SWAP1 POP SWAP2 SWAP1 POP JUMP JUMPDEST PUSH1 0x0 DUP2 PUSH1 0x60 SHL SWAP1 POP SWAP2 SWAP1 POP JUMP JUMPDEST PUSH32 0x4F776E61626C653A206E6577206F776E657220697320746865207A65726F2061 PUSH1 0x0 DUP3 ADD MSTORE PUSH32 0x6464726573730000000000000000000000000000000000000000000000000000 PUSH1 0x20 DUP3 ADD MSTORE POP JUMP JUMPDEST PUSH32 0x76616C75652063616E6E6F74206265206E756C6C000000000000000000000000 PUSH1 0x0 DUP3 ADD MSTORE POP JUMP JUMPDEST PUSH32 0x4F776E61626C653A2063616C6C6572206973206E6F7420746865206F776E6572 PUSH1 0x0 DUP3 ADD MSTORE POP JUMP JUMPDEST PUSH32 0x7468697320686F757365496420616C7265616479206578697374730000000000 PUSH1 0x0 DUP3 ADD MSTORE POP JUMP JUMPDEST PUSH32 0x596F7520646F206E6F7420686176652061636365737320746F2064656C657465 PUSH1 0x0 DUP3 ADD MSTORE PUSH32 0x207468697320686F757365000000000000000000000000000000000000000000 PUSH1 0x20 DUP3 ADD MSTORE POP JUMP JUMPDEST PUSH2 0x12D8 DUP2 PUSH2 0xF7C JUMP JUMPDEST DUP2 EQ PUSH2 0x12E3 JUMPI PUSH1 0x0 DUP1 REVERT JUMPDEST POP JUMP JUMPDEST PUSH2 0x12EF DUP2 PUSH2 0xFBA JUMP JUMPDEST DUP2 EQ PUSH2 0x12FA JUMPI PUSH1 0x0 DUP1 REVERT JUMPDEST POP JUMP INVALID LOG2 PUSH5 0x6970667358 0x22 SLT KECCAK256 DUP9 0xE9 PUSH29 0x3F3EA3201D3945563AD53BB621E6E98FC71E8660E167CCAF6816BBF57D PUSH5 0x736F6C6343 STOP ADDMOD SMOD STOP CALLER "
				},
				"gasEstimates": {
					"creation": {
						"codeDepositCost": "983000",
						"executionCost": "infinite",
						"totalCost": "infinite"
					},
					"external": {
						"_canOwnerAdd(uint256)": "616",
						"delistHouse(uint256)": "27012",
						"houses(uint256)": "infinite",
						"listHouse(uint256,uint256,address,string)": "infinite",
						"listHouseSimple(uint256,uint256,string)": "infinite",
						"owner()": "2567",
						"renounceOwnership()": "30397",
						"transferOwnership(address)": "30789"
					}
				},
				"methodIdentifiers": {
					"_canOwnerAdd(uint256)": "a28691ab",
					"delistHouse(uint256)": "3c3b0b4a",
					"houses(uint256)": "aeda852f",
					"listHouse(uint256,uint256,address,string)": "91bfe0d4",
					"listHouseSimple(uint256,uint256,string)": "be40a73e",
					"owner()": "8da5cb5b",
					"renounceOwnership()": "715018a6",
					"transferOwnership(address)": "f2fde38b"
				}
			},
			"storageLayout": {
				"storage": [
					{
						"astId": 199,
						"contract": "contract/HouseRegistryExt.sol:HouseRegistryExt",
						"label": "_owner",
						"offset": 0,
						"slot": "0",
						"type": "t_address"
					},
					{
						"astId": 201,
						"contract": "contract/HouseRegistryExt.sol:HouseRegistryExt",
						"label": "ownerAddCooldown",
						"offset": 0,
						"slot": "1",
						"type": "t_uint256"
					},
					{
						"astId": 7,
						"contract": "contract/HouseRegistryExt.sol:HouseRegistryExt",
						"label": "digits",
						"offset": 0,
						"slot": "2",
						"type": "t_uint256"
					},
					{
						"astId": 12,
						"contract": "contract/HouseRegistryExt.sol:HouseRegistryExt",
						"label": "modulus",
						"offset": 0,
						"slot": "3",
						"type": "t_uint256"
					},
					{
						"astId": 15,
						"contract": "contract/HouseRegistryExt.sol:HouseRegistryExt",
						"label": "cooldownTime",
						"offset": 0,
						"slot": "4",
						"type": "t_uint256"
					},
					{
						"astId": 45,
						"contract": "contract/HouseRegistryExt.sol:HouseRegistryExt",
						"label": "houses",
						"offset": 0,
						"slot": "5",
						"type": "t_mapping(t_uint256,t_struct(House)30_storage)"
					}
				],
				"types": {
					"t_address": {
						"encoding": "inplace",
						"label": "address",
						"numberOfBytes": "20"
					},
					"t_bool": {
						"encoding": "inplace",
						"label": "bool",
						"numberOfBytes": "1"
					},
					"t_mapping(t_uint256,t_struct(House)30_storage)": {
						"encoding": "mapping",
						"key": "t_uint256",
						"label": "mapping(uint256 => struct HouseRegistry.House)",
						"numberOfBytes": "32",
						"value": "t_struct(House)30_storage"
					},
					"t_string_storage": {
						"encoding": "bytes",
						"label": "string",
						"numberOfBytes": "32"
					},
					"t_struct(House)30_storage": {
						"encoding": "inplace",
						"label": "struct HouseRegistry.House",
						"members": [
							{
								"astId": 17,
								"contract": "contract/HouseRegistryExt.sol:HouseRegistryExt",
								"label": "id",
								"offset": 0,
								"slot": "0",
								"type": "t_uint256"
							},
							{
								"astId": 19,
								"contract": "contract/HouseRegistryExt.sol:HouseRegistryExt",
								"label": "price",
								"offset": 0,
								"slot": "1",
								"type": "t_uint256"
							},
							{
								"astId": 21,
								"contract": "contract/HouseRegistryExt.sol:HouseRegistryExt",
								"label": "area",
								"offset": 0,
								"slot": "2",
								"type": "t_uint256"
							},
							{
								"astId": 23,
								"contract": "contract/HouseRegistryExt.sol:HouseRegistryExt",
								"label": "sellerAddress",
								"offset": 0,
								"slot": "3",
								"type": "t_address"
							},
							{
								"astId": 25,
								"contract": "contract/HouseRegistryExt.sol:HouseRegistryExt",
								"label": "houseAddress",
								"offset": 0,
								"slot": "4",
								"type": "t_string_storage"
							},
							{
								"astId": 27,
								"contract": "contract/HouseRegistryExt.sol:HouseRegistryExt",
								"label": "isdelistedHouse",
								"offset": 0,
								"slot": "5",
								"type": "t_bool"
							},
							{
								"astId": 29,
								"contract": "contract/HouseRegistryExt.sol:HouseRegistryExt",
								"label": "readyTime",
								"offset": 0,
								"slot": "6",
								"type": "t_uint256"
							}
						],
						"numberOfBytes": "224"
					},
					"t_uint256": {
						"encoding": "inplace",
						"label": "uint256",
						"numberOfBytes": "32"
					}
				}
			},
			"userdoc": {
				"kind": "user",
				"methods": {},
				"version": 1
			}
		}
	}
}