{
	"contract/HouseRegistry.sol": {
		"HouseRegistry": {
			"abi": [
				{
					"anonymous": false,
					"inputs": [
						{
							"indexed": false,
							"internalType": "uint256",
							"name": "houseId",
							"type": "uint256"
						},
						{
							"indexed": false,
							"internalType": "address",
							"name": "_sellerAddress",
							"type": "address"
						},
						{
							"indexed": false,
							"internalType": "uint256",
							"name": "price",
							"type": "uint256"
						},
						{
							"indexed": false,
							"internalType": "string",
							"name": "houseAddress",
							"type": "string"
						}
					],
					"name": "AddNewHouse",
					"type": "event"
				},
				{
					"inputs": [
						{
							"internalType": "uint256",
							"name": "houseId",
							"type": "uint256"
						}
					],
					"name": "delistHouse",
					"outputs": [
						{
							"internalType": "string",
							"name": "",
							"type": "string"
						}
					],
					"stateMutability": "nonpayable",
					"type": "function"
				},
				{
					"inputs": [
						{
							"internalType": "uint256",
							"name": "cost",
							"type": "uint256"
						}
					],
					"name": "getCheapHouseIds",
					"outputs": [
						{
							"internalType": "uint256",
							"name": "",
							"type": "uint256"
						}
					],
					"stateMutability": "view",
					"type": "function"
				},
				{
					"inputs": [
						{
							"internalType": "uint256",
							"name": "",
							"type": "uint256"
						}
					],
					"name": "houses",
					"outputs": [
						{
							"internalType": "uint256",
							"name": "id",
							"type": "uint256"
						},
						{
							"internalType": "uint256",
							"name": "serialNumber",
							"type": "uint256"
						},
						{
							"internalType": "uint256",
							"name": "price",
							"type": "uint256"
						},
						{
							"internalType": "uint256",
							"name": "area",
							"type": "uint256"
						},
						{
							"internalType": "address",
							"name": "sellerAddress",
							"type": "address"
						},
						{
							"internalType": "string",
							"name": "houseAddress",
							"type": "string"
						},
						{
							"internalType": "bool",
							"name": "isdelistedHouse",
							"type": "bool"
						}
					],
					"stateMutability": "view",
					"type": "function"
				},
				{
					"inputs": [
						{
							"internalType": "uint256",
							"name": "_price",
							"type": "uint256"
						},
						{
							"internalType": "uint256",
							"name": "_area",
							"type": "uint256"
						},
						{
							"internalType": "address",
							"name": "_sellerAddress",
							"type": "address"
						},
						{
							"internalType": "string",
							"name": "_houseAddress",
							"type": "string"
						}
					],
					"name": "listHouse",
					"outputs": [
						{
							"internalType": "uint256",
							"name": "",
							"type": "uint256"
						}
					],
					"stateMutability": "nonpayable",
					"type": "function"
				}
			],
			"devdoc": {
				"kind": "dev",
				"methods": {},
				"version": 1
			},
			"evm": {
				"assembly": "    /* \"contract/HouseRegistry.sol\":62:2706  contract HouseRegistry {... */\n  mstore(0x40, 0x80)\n    /* \"contract/HouseRegistry.sol\":106:107  5 */\n  0x05\n    /* \"contract/HouseRegistry.sol\":92:107  uint digits = 5 */\n  0x00\n  sstore\n    /* \"contract/HouseRegistry.sol\":134:140  digits */\n  sload(0x00)\n    /* \"contract/HouseRegistry.sol\":128:130  10 */\n  0x0a\n    /* \"contract/HouseRegistry.sol\":128:140  10 ** digits */\n  tag_1\n  swap2\n  swap1\n  tag_2\n  jump\t// in\ntag_1:\n    /* \"contract/HouseRegistry.sol\":113:140  uint modulus = 10 ** digits */\n  0x01\n  sstore\n    /* \"contract/HouseRegistry.sol\":166:175  1 seconds */\n  0x01\n    /* \"contract/HouseRegistry.sol\":146:175  uint cooldownTime = 1 seconds */\n  0x02\n  sstore\n    /* \"contract/HouseRegistry.sol\":202:203  1 */\n  0x01\n    /* \"contract/HouseRegistry.sol\":181:203  uint countOfHouses = 1 */\n  0x03\n  sstore\n    /* \"contract/HouseRegistry.sol\":62:2706  contract HouseRegistry {... */\n  callvalue\n  dup1\n  iszero\n  tag_3\n  jumpi\n  0x00\n  dup1\n  revert\ntag_3:\n  pop\n  jump(tag_4)\n    /* \"#utility.yul\":7:855   */\ntag_6:\n    /* \"#utility.yul\":68:73   */\n  0x00\n    /* \"#utility.yul\":75:79   */\n  dup1\n    /* \"#utility.yul\":99:105   */\n  dup3\n    /* \"#utility.yul\":90:105   */\n  swap2\n  pop\n    /* \"#utility.yul\":123:128   */\n  dup4\n    /* \"#utility.yul\":114:128   */\n  swap1\n  pop\n    /* \"#utility.yul\":137:849   */\ntag_8:\n    /* \"#utility.yul\":158:159   */\n  0x01\n    /* \"#utility.yul\":148:156   */\n  dup6\n    /* \"#utility.yul\":145:160   */\n  gt\n    /* \"#utility.yul\":137:849   */\n  iszero\n  tag_10\n  jumpi\n    /* \"#utility.yul\":253:257   */\n  dup1\n    /* \"#utility.yul\":248:251   */\n  dup7\n    /* \"#utility.yul\":244:258   */\n  div\n    /* \"#utility.yul\":238:242   */\n  dup2\n    /* \"#utility.yul\":235:259   */\n  gt\n    /* \"#utility.yul\":232:282   */\n  iszero\n  tag_11\n  jumpi\n    /* \"#utility.yul\":262:280   */\n  tag_12\n  tag_13\n  jump\t// in\ntag_12:\n    /* \"#utility.yul\":232:282   */\ntag_11:\n    /* \"#utility.yul\":312:313   */\n  0x01\n    /* \"#utility.yul\":302:310   */\n  dup6\n    /* \"#utility.yul\":298:314   */\n  and\n    /* \"#utility.yul\":295:746   */\n  iszero\n  tag_14\n  jumpi\n    /* \"#utility.yul\":727:731   */\n  dup1\n    /* \"#utility.yul\":720:725   */\n  dup3\n    /* \"#utility.yul\":716:732   */\n  mul\n    /* \"#utility.yul\":707:732   */\n  swap2\n  pop\n    /* \"#utility.yul\":295:746   */\ntag_14:\n    /* \"#utility.yul\":777:781   */\n  dup1\n    /* \"#utility.yul\":771:775   */\n  dup2\n    /* \"#utility.yul\":767:782   */\n  mul\n    /* \"#utility.yul\":759:782   */\n  swap1\n  pop\n    /* \"#utility.yul\":807:839   */\n  tag_15\n    /* \"#utility.yul\":830:838   */\n  dup6\n    /* \"#utility.yul\":807:839   */\n  tag_16\n  jump\t// in\ntag_15:\n    /* \"#utility.yul\":795:839   */\n  swap5\n  pop\n    /* \"#utility.yul\":137:849   */\n  jump(tag_8)\ntag_10:\n    /* \"#utility.yul\":7:855   */\n  swap5\n  pop\n  swap5\n  swap3\n  pop\n  pop\n  pop\n  jump\t// out\n    /* \"#utility.yul\":861:1146   */\ntag_2:\n    /* \"#utility.yul\":921:926   */\n  0x00\n    /* \"#utility.yul\":945:968   */\n  tag_18\n    /* \"#utility.yul\":963:967   */\n  dup3\n    /* \"#utility.yul\":945:968   */\n  tag_19\n  jump\t// in\ntag_18:\n    /* \"#utility.yul\":937:968   */\n  swap2\n  pop\n    /* \"#utility.yul\":989:1016   */\n  tag_20\n    /* \"#utility.yul\":1007:1015   */\n  dup4\n    /* \"#utility.yul\":989:1016   */\n  tag_19\n  jump\t// in\ntag_20:\n    /* \"#utility.yul\":977:1016   */\n  swap3\n  pop\n    /* \"#utility.yul\":1035:1139   */\n  tag_21\n    /* \"#utility.yul\":1072:1138   */\n  0xffffffffffffffffffffffffffffffffffffffffffffffffffffffffffffffff\n    /* \"#utility.yul\":1062:1070   */\n  dup5\n    /* \"#utility.yul\":1056:1060   */\n  dup5\n    /* \"#utility.yul\":1035:1139   */\n  tag_22\n  jump\t// in\ntag_21:\n    /* \"#utility.yul\":1026:1139   */\n  swap1\n  pop\n    /* \"#utility.yul\":861:1146   */\n  swap3\n  swap2\n  pop\n  pop\n  jump\t// out\n    /* \"#utility.yul\":1152:2225   */\ntag_22:\n    /* \"#utility.yul\":1206:1211   */\n  0x00\n    /* \"#utility.yul\":1397:1405   */\n  dup3\n    /* \"#utility.yul\":1387:1427   */\n  tag_24\n  jumpi\n    /* \"#utility.yul\":1418:1419   */\n  0x01\n    /* \"#utility.yul\":1409:1419   */\n  swap1\n  pop\n    /* \"#utility.yul\":1420:1425   */\n  jump(tag_23)\n    /* \"#utility.yul\":1387:1427   */\ntag_24:\n    /* \"#utility.yul\":1446:1450   */\n  dup2\n    /* \"#utility.yul\":1436:1472   */\n  tag_25\n  jumpi\n    /* \"#utility.yul\":1463:1464   */\n  0x00\n    /* \"#utility.yul\":1454:1464   */\n  swap1\n  pop\n    /* \"#utility.yul\":1465:1470   */\n  jump(tag_23)\n    /* \"#utility.yul\":1436:1472   */\ntag_25:\n    /* \"#utility.yul\":1532:1536   */\n  dup2\n    /* \"#utility.yul\":1580:1581   */\n  0x01\n    /* \"#utility.yul\":1575:1602   */\n  dup2\n  eq\n  tag_27\n  jumpi\n    /* \"#utility.yul\":1616:1617   */\n  0x02\n    /* \"#utility.yul\":1611:1802   */\n  dup2\n  eq\n  tag_28\n  jumpi\n    /* \"#utility.yul\":1525:1802   */\n  jump(tag_26)\n    /* \"#utility.yul\":1575:1602   */\ntag_27:\n    /* \"#utility.yul\":1593:1594   */\n  0x01\n    /* \"#utility.yul\":1584:1594   */\n  swap2\n  pop\n    /* \"#utility.yul\":1595:1600   */\n  pop\n  jump(tag_23)\n    /* \"#utility.yul\":1611:1802   */\ntag_28:\n    /* \"#utility.yul\":1656:1659   */\n  0xff\n    /* \"#utility.yul\":1646:1654   */\n  dup5\n    /* \"#utility.yul\":1643:1660   */\n  gt\n    /* \"#utility.yul\":1640:1683   */\n  iszero\n  tag_29\n  jumpi\n    /* \"#utility.yul\":1663:1681   */\n  tag_30\n  tag_13\n  jump\t// in\ntag_30:\n    /* \"#utility.yul\":1640:1683   */\ntag_29:\n    /* \"#utility.yul\":1712:1720   */\n  dup4\n    /* \"#utility.yul\":1709:1710   */\n  0x02\n    /* \"#utility.yul\":1705:1721   */\n  exp\n    /* \"#utility.yul\":1696:1721   */\n  swap2\n  pop\n    /* \"#utility.yul\":1747:1750   */\n  dup5\n    /* \"#utility.yul\":1740:1745   */\n  dup3\n    /* \"#utility.yul\":1737:1751   */\n  gt\n    /* \"#utility.yul\":1734:1774   */\n  iszero\n  tag_31\n  jumpi\n    /* \"#utility.yul\":1754:1772   */\n  tag_32\n  tag_13\n  jump\t// in\ntag_32:\n    /* \"#utility.yul\":1734:1774   */\ntag_31:\n    /* \"#utility.yul\":1787:1792   */\n  pop\n  jump(tag_23)\n    /* \"#utility.yul\":1525:1802   */\ntag_26:\n  pop\n    /* \"#utility.yul\":1911:1913   */\n  0x20\n    /* \"#utility.yul\":1901:1909   */\n  dup4\n    /* \"#utility.yul\":1898:1914   */\n  lt\n    /* \"#utility.yul\":1892:1895   */\n  0x0133\n    /* \"#utility.yul\":1886:1890   */\n  dup4\n    /* \"#utility.yul\":1883:1896   */\n  lt\n    /* \"#utility.yul\":1879:1915   */\n  and\n    /* \"#utility.yul\":1861:1863   */\n  0x4e\n    /* \"#utility.yul\":1851:1859   */\n  dup5\n    /* \"#utility.yul\":1848:1864   */\n  lt\n    /* \"#utility.yul\":1843:1845   */\n  0x0b\n    /* \"#utility.yul\":1837:1841   */\n  dup5\n    /* \"#utility.yul\":1834:1846   */\n  lt\n    /* \"#utility.yul\":1830:1865   */\n  and\n    /* \"#utility.yul\":1814:1925   */\n  or\n    /* \"#utility.yul\":1811:2057   */\n  iszero\n  tag_33\n  jumpi\n    /* \"#utility.yul\":1967:1975   */\n  dup3\n    /* \"#utility.yul\":1961:1965   */\n  dup3\n    /* \"#utility.yul\":1957:1976   */\n  exp\n    /* \"#utility.yul\":1948:1976   */\n  swap1\n  pop\n    /* \"#utility.yul\":2002:2005   */\n  dup4\n    /* \"#utility.yul\":1995:2000   */\n  dup2\n    /* \"#utility.yul\":1992:2006   */\n  gt\n    /* \"#utility.yul\":1989:2029   */\n  iszero\n  tag_34\n  jumpi\n    /* \"#utility.yul\":2009:2027   */\n  tag_35\n  tag_13\n  jump\t// in\ntag_35:\n    /* \"#utility.yul\":1989:2029   */\ntag_34:\n    /* \"#utility.yul\":2042:2047   */\n  jump(tag_23)\n    /* \"#utility.yul\":1811:2057   */\ntag_33:\n    /* \"#utility.yul\":2082:2124   */\n  tag_36\n    /* \"#utility.yul\":2120:2123   */\n  dup5\n    /* \"#utility.yul\":2110:2118   */\n  dup5\n    /* \"#utility.yul\":2104:2108   */\n  dup5\n    /* \"#utility.yul\":2101:2102   */\n  0x01\n    /* \"#utility.yul\":2082:2124   */\n  tag_6\n  jump\t// in\ntag_36:\n    /* \"#utility.yul\":2067:2124   */\n  swap3\n  pop\n  swap1\n  pop\n    /* \"#utility.yul\":2156:2160   */\n  dup2\n    /* \"#utility.yul\":2151:2154   */\n  dup5\n    /* \"#utility.yul\":2147:2161   */\n  div\n    /* \"#utility.yul\":2140:2145   */\n  dup2\n    /* \"#utility.yul\":2137:2162   */\n  gt\n    /* \"#utility.yul\":2134:2185   */\n  iszero\n  tag_37\n  jumpi\n    /* \"#utility.yul\":2165:2183   */\n  tag_38\n  tag_13\n  jump\t// in\ntag_38:\n    /* \"#utility.yul\":2134:2185   */\ntag_37:\n    /* \"#utility.yul\":2214:2218   */\n  dup2\n    /* \"#utility.yul\":2207:2212   */\n  dup2\n    /* \"#utility.yul\":2203:2219   */\n  mul\n    /* \"#utility.yul\":2194:2219   */\n  swap1\n  pop\n    /* \"#utility.yul\":1152:2225   */\ntag_23:\n  swap4\n  swap3\n  pop\n  pop\n  pop\n  jump\t// out\n    /* \"#utility.yul\":2231:2308   */\ntag_19:\n    /* \"#utility.yul\":2268:2275   */\n  0x00\n    /* \"#utility.yul\":2297:2302   */\n  dup2\n    /* \"#utility.yul\":2286:2302   */\n  swap1\n  pop\n    /* \"#utility.yul\":2231:2308   */\n  swap2\n  swap1\n  pop\n  jump\t// out\n    /* \"#utility.yul\":2314:2494   */\ntag_13:\n    /* \"#utility.yul\":2362:2439   */\n  0x4e487b7100000000000000000000000000000000000000000000000000000000\n    /* \"#utility.yul\":2359:2360   */\n  0x00\n    /* \"#utility.yul\":2352:2440   */\n  mstore\n    /* \"#utility.yul\":2459:2463   */\n  0x11\n    /* \"#utility.yul\":2456:2457   */\n  0x04\n    /* \"#utility.yul\":2449:2464   */\n  mstore\n    /* \"#utility.yul\":2483:2487   */\n  0x24\n    /* \"#utility.yul\":2480:2481   */\n  0x00\n    /* \"#utility.yul\":2473:2488   */\n  revert\n    /* \"#utility.yul\":2500:2602   */\ntag_16:\n    /* \"#utility.yul\":2542:2550   */\n  0x00\n    /* \"#utility.yul\":2589:2594   */\n  dup2\n    /* \"#utility.yul\":2586:2587   */\n  0x01\n    /* \"#utility.yul\":2582:2595   */\n  shr\n    /* \"#utility.yul\":2561:2595   */\n  swap1\n  pop\n    /* \"#utility.yul\":2500:2602   */\n  swap2\n  swap1\n  pop\n  jump\t// out\n    /* \"contract/HouseRegistry.sol\":62:2706  contract HouseRegistry {... */\ntag_4:\n  dataSize(sub_0)\n  dup1\n  dataOffset(sub_0)\n  0x00\n  codecopy\n  0x00\n  return\nstop\n\nsub_0: assembly {\n        /* \"contract/HouseRegistry.sol\":62:2706  contract HouseRegistry {... */\n      mstore(0x40, 0x80)\n      callvalue\n      dup1\n      iszero\n      tag_1\n      jumpi\n      0x00\n      dup1\n      revert\n    tag_1:\n      pop\n      jumpi(tag_2, lt(calldatasize, 0x04))\n      shr(0xe0, calldataload(0x00))\n      dup1\n      0x3c3b0b4a\n      eq\n      tag_3\n      jumpi\n      dup1\n      0x91bfe0d4\n      eq\n      tag_4\n      jumpi\n      dup1\n      0xaeda852f\n      eq\n      tag_5\n      jumpi\n      dup1\n      0xc45e1b25\n      eq\n      tag_6\n      jumpi\n    tag_2:\n      0x00\n      dup1\n      revert\n        /* \"contract/HouseRegistry.sol\":1632:1901  function delistHouse(uint houseId) public returns (string memory){... */\n    tag_3:\n      tag_7\n      0x04\n      dup1\n      calldatasize\n      sub\n      dup2\n      add\n      swap1\n      tag_8\n      swap2\n      swap1\n      tag_9\n      jump\t// in\n    tag_8:\n      tag_10\n      jump\t// in\n    tag_7:\n      mload(0x40)\n      tag_11\n      swap2\n      swap1\n      tag_12\n      jump\t// in\n    tag_11:\n      mload(0x40)\n      dup1\n      swap2\n      sub\n      swap1\n      return\n        /* \"contract/HouseRegistry.sol\":933:1626  function listHouse (uint _price, uint _area, address _sellerAddress, string memory _houseAddress) public returns (uint) {... */\n    tag_4:\n      tag_13\n      0x04\n      dup1\n      calldatasize\n      sub\n      dup2\n      add\n      swap1\n      tag_14\n      swap2\n      swap1\n      tag_15\n      jump\t// in\n    tag_14:\n      tag_16\n      jump\t// in\n    tag_13:\n      mload(0x40)\n      tag_17\n      swap2\n      swap1\n      tag_18\n      jump\t// in\n    tag_17:\n      mload(0x40)\n      dup1\n      swap2\n      sub\n      swap1\n      return\n        /* \"contract/HouseRegistry.sol\":792:828  mapping(uint => House) public houses */\n    tag_5:\n      tag_19\n      0x04\n      dup1\n      calldatasize\n      sub\n      dup2\n      add\n      swap1\n      tag_20\n      swap2\n      swap1\n      tag_9\n      jump\t// in\n    tag_20:\n      tag_21\n      jump\t// in\n    tag_19:\n      mload(0x40)\n      tag_22\n      swap8\n      swap7\n      swap6\n      swap5\n      swap4\n      swap3\n      swap2\n      swap1\n      tag_23\n      jump\t// in\n    tag_22:\n      mload(0x40)\n      dup1\n      swap2\n      sub\n      swap1\n      return\n        /* \"contract/HouseRegistry.sol\":1907:2443  function getCheapHouseIds(uint cost) external view returns (uint){... */\n    tag_6:\n      tag_24\n      0x04\n      dup1\n      calldatasize\n      sub\n      dup2\n      add\n      swap1\n      tag_25\n      swap2\n      swap1\n      tag_9\n      jump\t// in\n    tag_25:\n      tag_26\n      jump\t// in\n    tag_24:\n      mload(0x40)\n      tag_27\n      swap2\n      swap1\n      tag_18\n      jump\t// in\n    tag_27:\n      mload(0x40)\n      dup1\n      swap2\n      sub\n      swap1\n      return\n        /* \"contract/HouseRegistry.sol\":1632:1901  function delistHouse(uint houseId) public returns (string memory){... */\n    tag_10:\n        /* \"contract/HouseRegistry.sol\":1683:1696  string memory */\n      0x60\n        /* \"contract/HouseRegistry.sol\":1748:1758  msg.sender */\n      caller\n        /* \"contract/HouseRegistry.sol\":1715:1758  houses[houseId].sellerAddress == msg.sender */\n      0xffffffffffffffffffffffffffffffffffffffff\n      and\n        /* \"contract/HouseRegistry.sol\":1715:1721  houses */\n      0x06\n        /* \"contract/HouseRegistry.sol\":1715:1730  houses[houseId] */\n      0x00\n        /* \"contract/HouseRegistry.sol\":1722:1729  houseId */\n      dup5\n        /* \"contract/HouseRegistry.sol\":1715:1730  houses[houseId] */\n      dup2\n      mstore\n      0x20\n      add\n      swap1\n      dup2\n      mstore\n      0x20\n      add\n      0x00\n      keccak256\n        /* \"contract/HouseRegistry.sol\":1715:1744  houses[houseId].sellerAddress */\n      0x04\n      add\n      0x00\n      swap1\n      sload\n      swap1\n      0x0100\n      exp\n      swap1\n      div\n      0xffffffffffffffffffffffffffffffffffffffff\n      and\n        /* \"contract/HouseRegistry.sol\":1715:1758  houses[houseId].sellerAddress == msg.sender */\n      0xffffffffffffffffffffffffffffffffffffffff\n      and\n      eq\n        /* \"contract/HouseRegistry.sol\":1707:1806  require(houses[houseId].sellerAddress == msg.sender, \"You do not have access to delete this house\") */\n      tag_29\n      jumpi\n      mload(0x40)\n      0x08c379a000000000000000000000000000000000000000000000000000000000\n      dup2\n      mstore\n      0x04\n      add\n      tag_30\n      swap1\n      tag_31\n      jump\t// in\n    tag_30:\n      mload(0x40)\n      dup1\n      swap2\n      sub\n      swap1\n      revert\n    tag_29:\n        /* \"contract/HouseRegistry.sol\":1850:1854  true */\n      0x01\n        /* \"contract/HouseRegistry.sol\":1816:1822  houses */\n      0x06\n        /* \"contract/HouseRegistry.sol\":1816:1831  houses[houseId] */\n      0x00\n        /* \"contract/HouseRegistry.sol\":1823:1830  houseId */\n      dup5\n        /* \"contract/HouseRegistry.sol\":1816:1831  houses[houseId] */\n      dup2\n      mstore\n      0x20\n      add\n      swap1\n      dup2\n      mstore\n      0x20\n      add\n      0x00\n      keccak256\n        /* \"contract/HouseRegistry.sol\":1816:1847  houses[houseId].isdelistedHouse */\n      0x06\n      add\n      0x00\n        /* \"contract/HouseRegistry.sol\":1816:1854  houses[houseId].isdelistedHouse = true */\n      0x0100\n      exp\n      dup2\n      sload\n      dup2\n      0xff\n      mul\n      not\n      and\n      swap1\n      dup4\n      iszero\n      iszero\n      mul\n      or\n      swap1\n      sstore\n      pop\n        /* \"contract/HouseRegistry.sol\":1864:1894  return \"delist was successful\" */\n      mload(0x40)\n      dup1\n      0x40\n      add\n      0x40\n      mstore\n      dup1\n      0x15\n      dup2\n      mstore\n      0x20\n      add\n      0x64656c69737420776173207375636365737366756c0000000000000000000000\n      dup2\n      mstore\n      pop\n      swap1\n      pop\n        /* \"contract/HouseRegistry.sol\":1632:1901  function delistHouse(uint houseId) public returns (string memory){... */\n      swap2\n      swap1\n      pop\n      jump\t// out\n        /* \"contract/HouseRegistry.sol\":933:1626  function listHouse (uint _price, uint _area, address _sellerAddress, string memory _houseAddress) public returns (uint) {... */\n    tag_16:\n        /* \"contract/HouseRegistry.sol\":1047:1051  uint */\n      0x00\n        /* \"contract/HouseRegistry.sol\":1088:1089  0 */\n      dup1\n        /* \"contract/HouseRegistry.sol\":1080:1085  _area */\n      dup5\n        /* \"contract/HouseRegistry.sol\":1071:1077  _price */\n      dup7\n        /* \"contract/HouseRegistry.sol\":1071:1085  _price * _area */\n      tag_33\n      swap2\n      swap1\n      tag_34\n      jump\t// in\n    tag_33:\n        /* \"contract/HouseRegistry.sol\":1071:1089  _price * _area > 0 */\n      gt\n        /* \"contract/HouseRegistry.sol\":1063:1114  require(_price * _area > 0, \"value cannot be null\") */\n      tag_35\n      jumpi\n      mload(0x40)\n      0x08c379a000000000000000000000000000000000000000000000000000000000\n      dup2\n      mstore\n      0x04\n      add\n      tag_36\n      swap1\n      tag_37\n      jump\t// in\n    tag_36:\n      mload(0x40)\n      dup1\n      swap2\n      sub\n      swap1\n      revert\n    tag_35:\n        /* \"contract/HouseRegistry.sol\":1124:1136  uint houseId */\n      0x00\n        /* \"contract/HouseRegistry.sol\":1139:1193  _generateHouseId(_sellerAddress, _area, _houseAddress) */\n      tag_38\n        /* \"contract/HouseRegistry.sol\":1156:1170  _sellerAddress */\n      dup5\n        /* \"contract/HouseRegistry.sol\":1172:1177  _area */\n      dup7\n        /* \"contract/HouseRegistry.sol\":1179:1192  _houseAddress */\n      dup6\n        /* \"contract/HouseRegistry.sol\":1139:1155  _generateHouseId */\n      tag_39\n        /* \"contract/HouseRegistry.sol\":1139:1193  _generateHouseId(_sellerAddress, _area, _houseAddress) */\n      jump\t// in\n    tag_38:\n        /* \"contract/HouseRegistry.sol\":1124:1193  uint houseId = _generateHouseId(_sellerAddress, _area, _houseAddress) */\n      swap1\n      pop\n        /* \"contract/HouseRegistry.sol\":1222:1228  houses */\n      0x06\n        /* \"contract/HouseRegistry.sol\":1222:1237  houses[houseId] */\n      0x00\n        /* \"contract/HouseRegistry.sol\":1229:1236  houseId */\n      dup3\n        /* \"contract/HouseRegistry.sol\":1222:1237  houses[houseId] */\n      dup2\n      mstore\n      0x20\n      add\n      swap1\n      dup2\n      mstore\n      0x20\n      add\n      0x00\n      keccak256\n        /* \"contract/HouseRegistry.sol\":1222:1240  houses[houseId].id */\n      0x00\n      add\n      sload\n        /* \"contract/HouseRegistry.sol\":1211:1218  houseId */\n      dup2\n        /* \"contract/HouseRegistry.sol\":1211:1240  houseId != houses[houseId].id */\n      eq\n      iszero\n        /* \"contract/HouseRegistry.sol\":1203:1272  require(houseId != houses[houseId].id, \"this houseId already exists\") */\n      tag_40\n      jumpi\n      mload(0x40)\n      0x08c379a000000000000000000000000000000000000000000000000000000000\n      dup2\n      mstore\n      0x04\n      add\n      tag_41\n      swap1\n      tag_42\n      jump\t// in\n    tag_41:\n      mload(0x40)\n      dup1\n      swap2\n      sub\n      swap1\n      revert\n    tag_40:\n        /* \"contract/HouseRegistry.sol\":1300:1382  House(houseId, countOfHouses, _price, _area, _sellerAddress, _houseAddress, false) */\n      mload(0x40)\n      dup1\n      0xe0\n      add\n      0x40\n      mstore\n      dup1\n        /* \"contract/HouseRegistry.sol\":1306:1313  houseId */\n      dup3\n        /* \"contract/HouseRegistry.sol\":1300:1382  House(houseId, countOfHouses, _price, _area, _sellerAddress, _houseAddress, false) */\n      dup2\n      mstore\n      0x20\n      add\n        /* \"contract/HouseRegistry.sol\":1315:1328  countOfHouses */\n      sload(0x03)\n        /* \"contract/HouseRegistry.sol\":1300:1382  House(houseId, countOfHouses, _price, _area, _sellerAddress, _houseAddress, false) */\n      dup2\n      mstore\n      0x20\n      add\n        /* \"contract/HouseRegistry.sol\":1330:1336  _price */\n      dup8\n        /* \"contract/HouseRegistry.sol\":1300:1382  House(houseId, countOfHouses, _price, _area, _sellerAddress, _houseAddress, false) */\n      dup2\n      mstore\n      0x20\n      add\n        /* \"contract/HouseRegistry.sol\":1338:1343  _area */\n      dup7\n        /* \"contract/HouseRegistry.sol\":1300:1382  House(houseId, countOfHouses, _price, _area, _sellerAddress, _houseAddress, false) */\n      dup2\n      mstore\n      0x20\n      add\n        /* \"contract/HouseRegistry.sol\":1345:1359  _sellerAddress */\n      dup6\n        /* \"contract/HouseRegistry.sol\":1300:1382  House(houseId, countOfHouses, _price, _area, _sellerAddress, _houseAddress, false) */\n      0xffffffffffffffffffffffffffffffffffffffff\n      and\n      dup2\n      mstore\n      0x20\n      add\n        /* \"contract/HouseRegistry.sol\":1361:1374  _houseAddress */\n      dup5\n        /* \"contract/HouseRegistry.sol\":1300:1382  House(houseId, countOfHouses, _price, _area, _sellerAddress, _houseAddress, false) */\n      dup2\n      mstore\n      0x20\n      add\n        /* \"contract/HouseRegistry.sol\":1376:1381  false */\n      0x00\n        /* \"contract/HouseRegistry.sol\":1300:1382  House(houseId, countOfHouses, _price, _area, _sellerAddress, _houseAddress, false) */\n      iszero\n      iszero\n      dup2\n      mstore\n      pop\n        /* \"contract/HouseRegistry.sol\":1282:1288  houses */\n      0x06\n        /* \"contract/HouseRegistry.sol\":1282:1297  houses[houseId] */\n      0x00\n        /* \"contract/HouseRegistry.sol\":1289:1296  houseId */\n      dup4\n        /* \"contract/HouseRegistry.sol\":1282:1297  houses[houseId] */\n      dup2\n      mstore\n      0x20\n      add\n      swap1\n      dup2\n      mstore\n      0x20\n      add\n      0x00\n      keccak256\n        /* \"contract/HouseRegistry.sol\":1282:1382  houses[houseId] = House(houseId, countOfHouses, _price, _area, _sellerAddress, _houseAddress, false) */\n      0x00\n      dup3\n      add\n      mload\n      dup2\n      0x00\n      add\n      sstore\n      0x20\n      dup3\n      add\n      mload\n      dup2\n      0x01\n      add\n      sstore\n      0x40\n      dup3\n      add\n      mload\n      dup2\n      0x02\n      add\n      sstore\n      0x60\n      dup3\n      add\n      mload\n      dup2\n      0x03\n      add\n      sstore\n      0x80\n      dup3\n      add\n      mload\n      dup2\n      0x04\n      add\n      exp(0x0100, 0x00)\n      dup2\n      sload\n      dup2\n      0xffffffffffffffffffffffffffffffffffffffff\n      mul\n      not\n      and\n      swap1\n      dup4\n      0xffffffffffffffffffffffffffffffffffffffff\n      and\n      mul\n      or\n      swap1\n      sstore\n      pop\n      0xa0\n      dup3\n      add\n      mload\n      dup2\n      0x05\n      add\n      swap1\n      dup1\n      mload\n      swap1\n      0x20\n      add\n      swap1\n      tag_43\n      swap3\n      swap2\n      swap1\n      tag_44\n      jump\t// in\n    tag_43:\n      pop\n      0xc0\n      dup3\n      add\n      mload\n      dup2\n      0x06\n      add\n      exp(0x0100, 0x00)\n      dup2\n      sload\n      dup2\n      0xff\n      mul\n      not\n      and\n      swap1\n      dup4\n      iszero\n      iszero\n      mul\n      or\n      swap1\n      sstore\n      pop\n      swap1\n      pop\n      pop\n        /* \"contract/HouseRegistry.sol\":1392:1402  houseIndex */\n      0x05\n        /* \"contract/HouseRegistry.sol\":1408:1439  HouseIndexInfo(houseId, _price) */\n      mload(0x40)\n      dup1\n      0x40\n      add\n      0x40\n      mstore\n      dup1\n        /* \"contract/HouseRegistry.sol\":1423:1430  houseId */\n      dup4\n        /* \"contract/HouseRegistry.sol\":1408:1439  HouseIndexInfo(houseId, _price) */\n      dup2\n      mstore\n      0x20\n      add\n        /* \"contract/HouseRegistry.sol\":1432:1438  _price */\n      dup9\n        /* \"contract/HouseRegistry.sol\":1408:1439  HouseIndexInfo(houseId, _price) */\n      dup2\n      mstore\n      pop\n        /* \"contract/HouseRegistry.sol\":1392:1440  houseIndex.push(HouseIndexInfo(houseId, _price)) */\n      swap1\n      dup1\n      0x01\n      dup2\n      sload\n      add\n      dup1\n      dup3\n      sstore\n      dup1\n      swap2\n      pop\n      pop\n      0x01\n      swap1\n      sub\n      swap1\n      0x00\n      mstore\n      keccak256(0x00, 0x20)\n      swap1\n      0x02\n      mul\n      add\n      0x00\n      swap1\n      swap2\n      swap1\n      swap2\n      swap1\n      swap2\n      pop\n      0x00\n      dup3\n      add\n      mload\n      dup2\n      0x00\n      add\n      sstore\n      0x20\n      dup3\n      add\n      mload\n      dup2\n      0x01\n      add\n      sstore\n      pop\n      pop\n        /* \"contract/HouseRegistry.sol\":1450:1496  _ownerCooldown(block.timestamp + cooldownTime) */\n      tag_46\n        /* \"contract/HouseRegistry.sol\":1483:1495  cooldownTime */\n      sload(0x02)\n        /* \"contract/HouseRegistry.sol\":1465:1480  block.timestamp */\n      timestamp\n        /* \"contract/HouseRegistry.sol\":1465:1495  block.timestamp + cooldownTime */\n      tag_47\n      swap2\n      swap1\n      tag_48\n      jump\t// in\n    tag_47:\n        /* \"contract/HouseRegistry.sol\":1450:1464  _ownerCooldown */\n      tag_49\n        /* \"contract/HouseRegistry.sol\":1450:1496  _ownerCooldown(block.timestamp + cooldownTime) */\n      jump\t// in\n    tag_46:\n        /* \"contract/HouseRegistry.sol\":1506:1519  countOfHouses */\n      0x03\n      0x00\n        /* \"contract/HouseRegistry.sol\":1506:1521  countOfHouses++ */\n      dup2\n      sload\n      dup1\n      swap3\n      swap2\n      swap1\n      tag_50\n      swap1\n      tag_51\n      jump\t// in\n    tag_50:\n      swap2\n      swap1\n      pop\n      sstore\n      pop\n        /* \"contract/HouseRegistry.sol\":1536:1595  AddNewHouse(houseId, _sellerAddress, _price, _houseAddress) */\n      0x8f5afd88eb4be0ac287d87970052ce9a2b453448408e3c91a695ad7509ab7194\n        /* \"contract/HouseRegistry.sol\":1548:1555  houseId */\n      dup2\n        /* \"contract/HouseRegistry.sol\":1557:1571  _sellerAddress */\n      dup6\n        /* \"contract/HouseRegistry.sol\":1573:1579  _price */\n      dup9\n        /* \"contract/HouseRegistry.sol\":1581:1594  _houseAddress */\n      dup7\n        /* \"contract/HouseRegistry.sol\":1536:1595  AddNewHouse(houseId, _sellerAddress, _price, _houseAddress) */\n      mload(0x40)\n      tag_52\n      swap5\n      swap4\n      swap3\n      swap2\n      swap1\n      tag_53\n      jump\t// in\n    tag_52:\n      mload(0x40)\n      dup1\n      swap2\n      sub\n      swap1\n      log1\n        /* \"contract/HouseRegistry.sol\":1612:1619  houseId */\n      dup1\n        /* \"contract/HouseRegistry.sol\":1605:1619  return houseId */\n      swap2\n      pop\n      pop\n        /* \"contract/HouseRegistry.sol\":933:1626  function listHouse (uint _price, uint _area, address _sellerAddress, string memory _houseAddress) public returns (uint) {... */\n      swap5\n      swap4\n      pop\n      pop\n      pop\n      pop\n      jump\t// out\n        /* \"contract/HouseRegistry.sol\":792:828  mapping(uint => House) public houses */\n    tag_21:\n      mstore(0x20, 0x06)\n      dup1\n      0x00\n      mstore\n      keccak256(0x00, 0x40)\n      0x00\n      swap2\n      pop\n      swap1\n      pop\n      dup1\n      0x00\n      add\n      sload\n      swap1\n      dup1\n      0x01\n      add\n      sload\n      swap1\n      dup1\n      0x02\n      add\n      sload\n      swap1\n      dup1\n      0x03\n      add\n      sload\n      swap1\n      dup1\n      0x04\n      add\n      0x00\n      swap1\n      sload\n      swap1\n      0x0100\n      exp\n      swap1\n      div\n      0xffffffffffffffffffffffffffffffffffffffff\n      and\n      swap1\n      dup1\n      0x05\n      add\n      dup1\n      sload\n      tag_54\n      swap1\n      tag_55\n      jump\t// in\n    tag_54:\n      dup1\n      0x1f\n      add\n      0x20\n      dup1\n      swap2\n      div\n      mul\n      0x20\n      add\n      mload(0x40)\n      swap1\n      dup2\n      add\n      0x40\n      mstore\n      dup1\n      swap3\n      swap2\n      swap1\n      dup2\n      dup2\n      mstore\n      0x20\n      add\n      dup3\n      dup1\n      sload\n      tag_56\n      swap1\n      tag_55\n      jump\t// in\n    tag_56:\n      dup1\n      iszero\n      tag_57\n      jumpi\n      dup1\n      0x1f\n      lt\n      tag_58\n      jumpi\n      0x0100\n      dup1\n      dup4\n      sload\n      div\n      mul\n      dup4\n      mstore\n      swap2\n      0x20\n      add\n      swap2\n      jump(tag_57)\n    tag_58:\n      dup3\n      add\n      swap2\n      swap1\n      0x00\n      mstore\n      keccak256(0x00, 0x20)\n      swap1\n    tag_59:\n      dup2\n      sload\n      dup2\n      mstore\n      swap1\n      0x01\n      add\n      swap1\n      0x20\n      add\n      dup1\n      dup4\n      gt\n      tag_59\n      jumpi\n      dup3\n      swap1\n      sub\n      0x1f\n      and\n      dup3\n      add\n      swap2\n    tag_57:\n      pop\n      pop\n      pop\n      pop\n      pop\n      swap1\n      dup1\n      0x06\n      add\n      0x00\n      swap1\n      sload\n      swap1\n      0x0100\n      exp\n      swap1\n      div\n      0xff\n      and\n      swap1\n      pop\n      dup8\n      jump\t// out\n        /* \"contract/HouseRegistry.sol\":1907:2443  function getCheapHouseIds(uint cost) external view returns (uint){... */\n    tag_26:\n        /* \"contract/HouseRegistry.sol\":1967:1971  uint */\n      0x00\n        /* \"contract/HouseRegistry.sol\":1982:1992  uint count */\n      dup1\n        /* \"contract/HouseRegistry.sol\":2007:2013  uint i */\n      0x00\n        /* \"contract/HouseRegistry.sol\":2016:2017  1 */\n      0x01\n        /* \"contract/HouseRegistry.sol\":2007:2017  uint i = 1 */\n      swap1\n      pop\n        /* \"contract/HouseRegistry.sol\":2003:2162  for(uint i = 1; i <= houseIndex.length; i++){... */\n    tag_61:\n        /* \"contract/HouseRegistry.sol\":2024:2034  houseIndex */\n      0x05\n        /* \"contract/HouseRegistry.sol\":2024:2041  houseIndex.length */\n      dup1\n      sload\n      swap1\n      pop\n        /* \"contract/HouseRegistry.sol\":2019:2020  i */\n      dup2\n        /* \"contract/HouseRegistry.sol\":2019:2041  i <= houseIndex.length */\n      gt\n        /* \"contract/HouseRegistry.sol\":2003:2162  for(uint i = 1; i <= houseIndex.length; i++){... */\n      tag_62\n      jumpi\n        /* \"contract/HouseRegistry.sol\":2087:2091  cost */\n      dup4\n        /* \"contract/HouseRegistry.sol\":2064:2074  houseIndex */\n      0x05\n        /* \"contract/HouseRegistry.sol\":2075:2076  i */\n      dup3\n        /* \"contract/HouseRegistry.sol\":2064:2077  houseIndex[i] */\n      dup2\n      sload\n      dup2\n      lt\n      tag_64\n      jumpi\n      tag_65\n      tag_66\n      jump\t// in\n    tag_65:\n    tag_64:\n      swap1\n      0x00\n      mstore\n      keccak256(0x00, 0x20)\n      swap1\n      0x02\n      mul\n      add\n        /* \"contract/HouseRegistry.sol\":2064:2083  houseIndex[i].price */\n      0x01\n      add\n      sload\n        /* \"contract/HouseRegistry.sol\":2064:2091  houseIndex[i].price <= cost */\n      gt\n        /* \"contract/HouseRegistry.sol\":2061:2152  if(houseIndex[i].price <= cost){... */\n      tag_68\n      jumpi\n        /* \"contract/HouseRegistry.sol\":2118:2128  houseIndex */\n      0x05\n        /* \"contract/HouseRegistry.sol\":2129:2130  i */\n      dup2\n        /* \"contract/HouseRegistry.sol\":2118:2131  houseIndex[i] */\n      dup2\n      sload\n      dup2\n      lt\n      tag_69\n      jumpi\n      tag_70\n      tag_66\n      jump\t// in\n    tag_70:\n    tag_69:\n      swap1\n      0x00\n      mstore\n      keccak256(0x00, 0x20)\n      swap1\n      0x02\n      mul\n      add\n        /* \"contract/HouseRegistry.sol\":2118:2137  houseIndex[i].price */\n      0x01\n      add\n      sload\n        /* \"contract/HouseRegistry.sol\":2110:2137  count = houseIndex[i].price */\n      swap2\n      pop\n        /* \"contract/HouseRegistry.sol\":2061:2152  if(houseIndex[i].price <= cost){... */\n    tag_68:\n        /* \"contract/HouseRegistry.sol\":2043:2046  i++ */\n      dup1\n      dup1\n      tag_72\n      swap1\n      tag_51\n      jump\t// in\n    tag_72:\n      swap2\n      pop\n      pop\n        /* \"contract/HouseRegistry.sol\":2003:2162  for(uint i = 1; i <= houseIndex.length; i++){... */\n      jump(tag_61)\n    tag_62:\n      pop\n        /* \"contract/HouseRegistry.sol\":2431:2436  count */\n      dup1\n        /* \"contract/HouseRegistry.sol\":2424:2436  return count */\n      swap2\n      pop\n      pop\n        /* \"contract/HouseRegistry.sol\":1907:2443  function getCheapHouseIds(uint cost) external view returns (uint){... */\n      swap2\n      swap1\n      pop\n      jump\t// out\n        /* \"contract/HouseRegistry.sol\":2449:2703  function _generateHouseId(address _sellerAddress, uint _area, string memory _houseAddress) private view returns(uint){... */\n    tag_39:\n        /* \"contract/HouseRegistry.sol\":2561:2565  uint */\n      0x00\n        /* \"contract/HouseRegistry.sol\":2576:2588  uint houseId */\n      dup1\n        /* \"contract/HouseRegistry.sol\":2623:2637  _sellerAddress */\n      dup5\n        /* \"contract/HouseRegistry.sol\":2639:2644  _area */\n      dup5\n        /* \"contract/HouseRegistry.sol\":2646:2659  _houseAddress */\n      dup5\n        /* \"contract/HouseRegistry.sol\":2606:2660  abi.encodePacked(_sellerAddress, _area, _houseAddress) */\n      add(0x20, mload(0x40))\n      tag_74\n      swap4\n      swap3\n      swap2\n      swap1\n      tag_75\n      jump\t// in\n    tag_74:\n      mload(0x40)\n      0x20\n      dup2\n      dup4\n      sub\n      sub\n      dup2\n      mstore\n      swap1\n      0x40\n      mstore\n        /* \"contract/HouseRegistry.sol\":2596:2661  keccak256(abi.encodePacked(_sellerAddress, _area, _houseAddress)) */\n      dup1\n      mload\n      swap1\n      0x20\n      add\n      keccak256\n        /* \"contract/HouseRegistry.sol\":2591:2662  uint(keccak256(abi.encodePacked(_sellerAddress, _area, _houseAddress))) */\n      0x00\n      shr\n        /* \"contract/HouseRegistry.sol\":2576:2662  uint houseId = uint(keccak256(abi.encodePacked(_sellerAddress, _area, _houseAddress))) */\n      swap1\n      pop\n        /* \"contract/HouseRegistry.sol\":2689:2696  modulus */\n      sload(0x01)\n        /* \"contract/HouseRegistry.sol\":2679:2686  houseId */\n      dup2\n        /* \"contract/HouseRegistry.sol\":2679:2696  houseId % modulus */\n      tag_76\n      swap2\n      swap1\n      tag_77\n      jump\t// in\n    tag_76:\n        /* \"contract/HouseRegistry.sol\":2672:2696  return houseId % modulus */\n      swap2\n      pop\n      pop\n        /* \"contract/HouseRegistry.sol\":2449:2703  function _generateHouseId(address _sellerAddress, uint _area, string memory _houseAddress) private view returns(uint){... */\n      swap4\n      swap3\n      pop\n      pop\n      pop\n      jump\t// out\n        /* \"contract/HouseRegistry.sol\":835:927  function _ownerCooldown(uint _newTime) internal {... */\n    tag_49:\n        /* \"contract/HouseRegistry.sol\":912:920  _newTime */\n      dup1\n        /* \"contract/HouseRegistry.sol\":893:909  ownerAddCooldown */\n      0x04\n        /* \"contract/HouseRegistry.sol\":893:920  ownerAddCooldown = _newTime */\n      dup2\n      swap1\n      sstore\n      pop\n        /* \"contract/HouseRegistry.sol\":835:927  function _ownerCooldown(uint _newTime) internal {... */\n      pop\n      jump\t// out\n    tag_44:\n      dup3\n      dup1\n      sload\n      tag_79\n      swap1\n      tag_55\n      jump\t// in\n    tag_79:\n      swap1\n      0x00\n      mstore\n      keccak256(0x00, 0x20)\n      swap1\n      0x1f\n      add\n      0x20\n      swap1\n      div\n      dup2\n      add\n      swap3\n      dup3\n      tag_81\n      jumpi\n      0x00\n      dup6\n      sstore\n      jump(tag_80)\n    tag_81:\n      dup3\n      0x1f\n      lt\n      tag_82\n      jumpi\n      dup1\n      mload\n      not(0xff)\n      and\n      dup4\n      dup1\n      add\n      or\n      dup6\n      sstore\n      jump(tag_80)\n    tag_82:\n      dup3\n      dup1\n      add\n      0x01\n      add\n      dup6\n      sstore\n      dup3\n      iszero\n      tag_80\n      jumpi\n      swap2\n      dup3\n      add\n    tag_83:\n      dup3\n      dup2\n      gt\n      iszero\n      tag_84\n      jumpi\n      dup3\n      mload\n      dup3\n      sstore\n      swap2\n      0x20\n      add\n      swap2\n      swap1\n      0x01\n      add\n      swap1\n      jump(tag_83)\n    tag_84:\n    tag_80:\n      pop\n      swap1\n      pop\n      tag_85\n      swap2\n      swap1\n      tag_86\n      jump\t// in\n    tag_85:\n      pop\n      swap1\n      jump\t// out\n    tag_86:\n    tag_87:\n      dup1\n      dup3\n      gt\n      iszero\n      tag_88\n      jumpi\n      0x00\n      dup2\n      0x00\n      swap1\n      sstore\n      pop\n      0x01\n      add\n      jump(tag_87)\n    tag_88:\n      pop\n      swap1\n      jump\t// out\n        /* \"#utility.yul\":7:419   */\n    tag_90:\n        /* \"#utility.yul\":85:90   */\n      0x00\n        /* \"#utility.yul\":110:176   */\n      tag_92\n        /* \"#utility.yul\":126:175   */\n      tag_93\n        /* \"#utility.yul\":168:174   */\n      dup5\n        /* \"#utility.yul\":126:175   */\n      tag_94\n      jump\t// in\n    tag_93:\n        /* \"#utility.yul\":110:176   */\n      tag_95\n      jump\t// in\n    tag_92:\n        /* \"#utility.yul\":101:176   */\n      swap1\n      pop\n        /* \"#utility.yul\":199:205   */\n      dup3\n        /* \"#utility.yul\":192:197   */\n      dup2\n        /* \"#utility.yul\":185:206   */\n      mstore\n        /* \"#utility.yul\":237:241   */\n      0x20\n        /* \"#utility.yul\":230:235   */\n      dup2\n        /* \"#utility.yul\":226:242   */\n      add\n        /* \"#utility.yul\":275:278   */\n      dup5\n        /* \"#utility.yul\":266:272   */\n      dup5\n        /* \"#utility.yul\":261:264   */\n      dup5\n        /* \"#utility.yul\":257:273   */\n      add\n        /* \"#utility.yul\":254:279   */\n      gt\n        /* \"#utility.yul\":251:363   */\n      iszero\n      tag_96\n      jumpi\n        /* \"#utility.yul\":282:361   */\n      tag_97\n      tag_98\n      jump\t// in\n    tag_97:\n        /* \"#utility.yul\":251:363   */\n    tag_96:\n        /* \"#utility.yul\":372:413   */\n      tag_99\n        /* \"#utility.yul\":406:412   */\n      dup5\n        /* \"#utility.yul\":401:404   */\n      dup3\n        /* \"#utility.yul\":396:399   */\n      dup6\n        /* \"#utility.yul\":372:413   */\n      tag_100\n      jump\t// in\n    tag_99:\n        /* \"#utility.yul\":91:419   */\n      pop\n        /* \"#utility.yul\":7:419   */\n      swap4\n      swap3\n      pop\n      pop\n      pop\n      jump\t// out\n        /* \"#utility.yul\":425:564   */\n    tag_101:\n        /* \"#utility.yul\":471:476   */\n      0x00\n        /* \"#utility.yul\":509:515   */\n      dup2\n        /* \"#utility.yul\":496:516   */\n      calldataload\n        /* \"#utility.yul\":487:516   */\n      swap1\n      pop\n        /* \"#utility.yul\":525:558   */\n      tag_103\n        /* \"#utility.yul\":552:557   */\n      dup2\n        /* \"#utility.yul\":525:558   */\n      tag_104\n      jump\t// in\n    tag_103:\n        /* \"#utility.yul\":425:564   */\n      swap3\n      swap2\n      pop\n      pop\n      jump\t// out\n        /* \"#utility.yul\":584:924   */\n    tag_105:\n        /* \"#utility.yul\":640:645   */\n      0x00\n        /* \"#utility.yul\":689:692   */\n      dup3\n        /* \"#utility.yul\":682:686   */\n      0x1f\n        /* \"#utility.yul\":674:680   */\n      dup4\n        /* \"#utility.yul\":670:687   */\n      add\n        /* \"#utility.yul\":666:693   */\n      slt\n        /* \"#utility.yul\":656:778   */\n      tag_107\n      jumpi\n        /* \"#utility.yul\":697:776   */\n      tag_108\n      tag_109\n      jump\t// in\n    tag_108:\n        /* \"#utility.yul\":656:778   */\n    tag_107:\n        /* \"#utility.yul\":814:820   */\n      dup2\n        /* \"#utility.yul\":801:821   */\n      calldataload\n        /* \"#utility.yul\":839:918   */\n      tag_110\n        /* \"#utility.yul\":914:917   */\n      dup5\n        /* \"#utility.yul\":906:912   */\n      dup3\n        /* \"#utility.yul\":899:903   */\n      0x20\n        /* \"#utility.yul\":891:897   */\n      dup7\n        /* \"#utility.yul\":887:904   */\n      add\n        /* \"#utility.yul\":839:918   */\n      tag_90\n      jump\t// in\n    tag_110:\n        /* \"#utility.yul\":830:918   */\n      swap2\n      pop\n        /* \"#utility.yul\":646:924   */\n      pop\n        /* \"#utility.yul\":584:924   */\n      swap3\n      swap2\n      pop\n      pop\n      jump\t// out\n        /* \"#utility.yul\":930:1069   */\n    tag_111:\n        /* \"#utility.yul\":976:981   */\n      0x00\n        /* \"#utility.yul\":1014:1020   */\n      dup2\n        /* \"#utility.yul\":1001:1021   */\n      calldataload\n        /* \"#utility.yul\":992:1021   */\n      swap1\n      pop\n        /* \"#utility.yul\":1030:1063   */\n      tag_113\n        /* \"#utility.yul\":1057:1062   */\n      dup2\n        /* \"#utility.yul\":1030:1063   */\n      tag_114\n      jump\t// in\n    tag_113:\n        /* \"#utility.yul\":930:1069   */\n      swap3\n      swap2\n      pop\n      pop\n      jump\t// out\n        /* \"#utility.yul\":1075:1404   */\n    tag_9:\n        /* \"#utility.yul\":1134:1140   */\n      0x00\n        /* \"#utility.yul\":1183:1185   */\n      0x20\n        /* \"#utility.yul\":1171:1180   */\n      dup3\n        /* \"#utility.yul\":1162:1169   */\n      dup5\n        /* \"#utility.yul\":1158:1181   */\n      sub\n        /* \"#utility.yul\":1154:1186   */\n      slt\n        /* \"#utility.yul\":1151:1270   */\n      iszero\n      tag_116\n      jumpi\n        /* \"#utility.yul\":1189:1268   */\n      tag_117\n      tag_118\n      jump\t// in\n    tag_117:\n        /* \"#utility.yul\":1151:1270   */\n    tag_116:\n        /* \"#utility.yul\":1309:1310   */\n      0x00\n        /* \"#utility.yul\":1334:1387   */\n      tag_119\n        /* \"#utility.yul\":1379:1386   */\n      dup5\n        /* \"#utility.yul\":1370:1376   */\n      dup3\n        /* \"#utility.yul\":1359:1368   */\n      dup6\n        /* \"#utility.yul\":1355:1377   */\n      add\n        /* \"#utility.yul\":1334:1387   */\n      tag_111\n      jump\t// in\n    tag_119:\n        /* \"#utility.yul\":1324:1387   */\n      swap2\n      pop\n        /* \"#utility.yul\":1280:1397   */\n      pop\n        /* \"#utility.yul\":1075:1404   */\n      swap3\n      swap2\n      pop\n      pop\n      jump\t// out\n        /* \"#utility.yul\":1410:2355   */\n    tag_15:\n        /* \"#utility.yul\":1506:1512   */\n      0x00\n        /* \"#utility.yul\":1514:1520   */\n      dup1\n        /* \"#utility.yul\":1522:1528   */\n      0x00\n        /* \"#utility.yul\":1530:1536   */\n      dup1\n        /* \"#utility.yul\":1579:1582   */\n      0x80\n        /* \"#utility.yul\":1567:1576   */\n      dup6\n        /* \"#utility.yul\":1558:1565   */\n      dup8\n        /* \"#utility.yul\":1554:1577   */\n      sub\n        /* \"#utility.yul\":1550:1583   */\n      slt\n        /* \"#utility.yul\":1547:1667   */\n      iszero\n      tag_121\n      jumpi\n        /* \"#utility.yul\":1586:1665   */\n      tag_122\n      tag_118\n      jump\t// in\n    tag_122:\n        /* \"#utility.yul\":1547:1667   */\n    tag_121:\n        /* \"#utility.yul\":1706:1707   */\n      0x00\n        /* \"#utility.yul\":1731:1784   */\n      tag_123\n        /* \"#utility.yul\":1776:1783   */\n      dup8\n        /* \"#utility.yul\":1767:1773   */\n      dup3\n        /* \"#utility.yul\":1756:1765   */\n      dup9\n        /* \"#utility.yul\":1752:1774   */\n      add\n        /* \"#utility.yul\":1731:1784   */\n      tag_111\n      jump\t// in\n    tag_123:\n        /* \"#utility.yul\":1721:1784   */\n      swap5\n      pop\n        /* \"#utility.yul\":1677:1794   */\n      pop\n        /* \"#utility.yul\":1833:1835   */\n      0x20\n        /* \"#utility.yul\":1859:1912   */\n      tag_124\n        /* \"#utility.yul\":1904:1911   */\n      dup8\n        /* \"#utility.yul\":1895:1901   */\n      dup3\n        /* \"#utility.yul\":1884:1893   */\n      dup9\n        /* \"#utility.yul\":1880:1902   */\n      add\n        /* \"#utility.yul\":1859:1912   */\n      tag_111\n      jump\t// in\n    tag_124:\n        /* \"#utility.yul\":1849:1912   */\n      swap4\n      pop\n        /* \"#utility.yul\":1804:1922   */\n      pop\n        /* \"#utility.yul\":1961:1963   */\n      0x40\n        /* \"#utility.yul\":1987:2040   */\n      tag_125\n        /* \"#utility.yul\":2032:2039   */\n      dup8\n        /* \"#utility.yul\":2023:2029   */\n      dup3\n        /* \"#utility.yul\":2012:2021   */\n      dup9\n        /* \"#utility.yul\":2008:2030   */\n      add\n        /* \"#utility.yul\":1987:2040   */\n      tag_101\n      jump\t// in\n    tag_125:\n        /* \"#utility.yul\":1977:2040   */\n      swap3\n      pop\n        /* \"#utility.yul\":1932:2050   */\n      pop\n        /* \"#utility.yul\":2117:2119   */\n      0x60\n        /* \"#utility.yul\":2106:2115   */\n      dup6\n        /* \"#utility.yul\":2102:2120   */\n      add\n        /* \"#utility.yul\":2089:2121   */\n      calldataload\n        /* \"#utility.yul\":2148:2166   */\n      0xffffffffffffffff\n        /* \"#utility.yul\":2140:2146   */\n      dup2\n        /* \"#utility.yul\":2137:2167   */\n      gt\n        /* \"#utility.yul\":2134:2251   */\n      iszero\n      tag_126\n      jumpi\n        /* \"#utility.yul\":2170:2249   */\n      tag_127\n      tag_128\n      jump\t// in\n    tag_127:\n        /* \"#utility.yul\":2134:2251   */\n    tag_126:\n        /* \"#utility.yul\":2275:2338   */\n      tag_129\n        /* \"#utility.yul\":2330:2337   */\n      dup8\n        /* \"#utility.yul\":2321:2327   */\n      dup3\n        /* \"#utility.yul\":2310:2319   */\n      dup9\n        /* \"#utility.yul\":2306:2328   */\n      add\n        /* \"#utility.yul\":2275:2338   */\n      tag_105\n      jump\t// in\n    tag_129:\n        /* \"#utility.yul\":2265:2338   */\n      swap2\n      pop\n        /* \"#utility.yul\":2060:2348   */\n      pop\n        /* \"#utility.yul\":1410:2355   */\n      swap3\n      swap6\n      swap2\n      swap5\n      pop\n      swap3\n      pop\n      jump\t// out\n        /* \"#utility.yul\":2361:2479   */\n    tag_130:\n        /* \"#utility.yul\":2448:2472   */\n      tag_132\n        /* \"#utility.yul\":2466:2471   */\n      dup2\n        /* \"#utility.yul\":2448:2472   */\n      tag_133\n      jump\t// in\n    tag_132:\n        /* \"#utility.yul\":2443:2446   */\n      dup3\n        /* \"#utility.yul\":2436:2473   */\n      mstore\n        /* \"#utility.yul\":2361:2479   */\n      pop\n      pop\n      jump\t// out\n        /* \"#utility.yul\":2485:2642   */\n    tag_134:\n        /* \"#utility.yul\":2590:2635   */\n      tag_136\n        /* \"#utility.yul\":2610:2634   */\n      tag_137\n        /* \"#utility.yul\":2628:2633   */\n      dup3\n        /* \"#utility.yul\":2610:2634   */\n      tag_133\n      jump\t// in\n    tag_137:\n        /* \"#utility.yul\":2590:2635   */\n      tag_138\n      jump\t// in\n    tag_136:\n        /* \"#utility.yul\":2585:2588   */\n      dup3\n        /* \"#utility.yul\":2578:2636   */\n      mstore\n        /* \"#utility.yul\":2485:2642   */\n      pop\n      pop\n      jump\t// out\n        /* \"#utility.yul\":2648:2757   */\n    tag_139:\n        /* \"#utility.yul\":2729:2750   */\n      tag_141\n        /* \"#utility.yul\":2744:2749   */\n      dup2\n        /* \"#utility.yul\":2729:2750   */\n      tag_142\n      jump\t// in\n    tag_141:\n        /* \"#utility.yul\":2724:2727   */\n      dup3\n        /* \"#utility.yul\":2717:2751   */\n      mstore\n        /* \"#utility.yul\":2648:2757   */\n      pop\n      pop\n      jump\t// out\n        /* \"#utility.yul\":2763:3127   */\n    tag_143:\n        /* \"#utility.yul\":2851:2854   */\n      0x00\n        /* \"#utility.yul\":2879:2918   */\n      tag_145\n        /* \"#utility.yul\":2912:2917   */\n      dup3\n        /* \"#utility.yul\":2879:2918   */\n      tag_146\n      jump\t// in\n    tag_145:\n        /* \"#utility.yul\":2934:3005   */\n      tag_147\n        /* \"#utility.yul\":2998:3004   */\n      dup2\n        /* \"#utility.yul\":2993:2996   */\n      dup6\n        /* \"#utility.yul\":2934:3005   */\n      tag_148\n      jump\t// in\n    tag_147:\n        /* \"#utility.yul\":2927:3005   */\n      swap4\n      pop\n        /* \"#utility.yul\":3014:3066   */\n      tag_149\n        /* \"#utility.yul\":3059:3065   */\n      dup2\n        /* \"#utility.yul\":3054:3057   */\n      dup6\n        /* \"#utility.yul\":3047:3051   */\n      0x20\n        /* \"#utility.yul\":3040:3045   */\n      dup7\n        /* \"#utility.yul\":3036:3052   */\n      add\n        /* \"#utility.yul\":3014:3066   */\n      tag_150\n      jump\t// in\n    tag_149:\n        /* \"#utility.yul\":3091:3120   */\n      tag_151\n        /* \"#utility.yul\":3113:3119   */\n      dup2\n        /* \"#utility.yul\":3091:3120   */\n      tag_152\n      jump\t// in\n    tag_151:\n        /* \"#utility.yul\":3086:3089   */\n      dup5\n        /* \"#utility.yul\":3082:3121   */\n      add\n        /* \"#utility.yul\":3075:3121   */\n      swap2\n      pop\n        /* \"#utility.yul\":2855:3127   */\n      pop\n        /* \"#utility.yul\":2763:3127   */\n      swap3\n      swap2\n      pop\n      pop\n      jump\t// out\n        /* \"#utility.yul\":3133:3510   */\n    tag_153:\n        /* \"#utility.yul\":3239:3242   */\n      0x00\n        /* \"#utility.yul\":3267:3306   */\n      tag_155\n        /* \"#utility.yul\":3300:3305   */\n      dup3\n        /* \"#utility.yul\":3267:3306   */\n      tag_146\n      jump\t// in\n    tag_155:\n        /* \"#utility.yul\":3322:3411   */\n      tag_156\n        /* \"#utility.yul\":3404:3410   */\n      dup2\n        /* \"#utility.yul\":3399:3402   */\n      dup6\n        /* \"#utility.yul\":3322:3411   */\n      tag_157\n      jump\t// in\n    tag_156:\n        /* \"#utility.yul\":3315:3411   */\n      swap4\n      pop\n        /* \"#utility.yul\":3420:3472   */\n      tag_158\n        /* \"#utility.yul\":3465:3471   */\n      dup2\n        /* \"#utility.yul\":3460:3463   */\n      dup6\n        /* \"#utility.yul\":3453:3457   */\n      0x20\n        /* \"#utility.yul\":3446:3451   */\n      dup7\n        /* \"#utility.yul\":3442:3458   */\n      add\n        /* \"#utility.yul\":3420:3472   */\n      tag_150\n      jump\t// in\n    tag_158:\n        /* \"#utility.yul\":3497:3503   */\n      dup1\n        /* \"#utility.yul\":3492:3495   */\n      dup5\n        /* \"#utility.yul\":3488:3504   */\n      add\n        /* \"#utility.yul\":3481:3504   */\n      swap2\n      pop\n        /* \"#utility.yul\":3243:3510   */\n      pop\n        /* \"#utility.yul\":3133:3510   */\n      swap3\n      swap2\n      pop\n      pop\n      jump\t// out\n        /* \"#utility.yul\":3516:3882   */\n    tag_159:\n        /* \"#utility.yul\":3658:3661   */\n      0x00\n        /* \"#utility.yul\":3679:3746   */\n      tag_161\n        /* \"#utility.yul\":3743:3745   */\n      0x14\n        /* \"#utility.yul\":3738:3741   */\n      dup4\n        /* \"#utility.yul\":3679:3746   */\n      tag_148\n      jump\t// in\n    tag_161:\n        /* \"#utility.yul\":3672:3746   */\n      swap2\n      pop\n        /* \"#utility.yul\":3755:3848   */\n      tag_162\n        /* \"#utility.yul\":3844:3847   */\n      dup3\n        /* \"#utility.yul\":3755:3848   */\n      tag_163\n      jump\t// in\n    tag_162:\n        /* \"#utility.yul\":3873:3875   */\n      0x20\n        /* \"#utility.yul\":3868:3871   */\n      dup3\n        /* \"#utility.yul\":3864:3876   */\n      add\n        /* \"#utility.yul\":3857:3876   */\n      swap1\n      pop\n        /* \"#utility.yul\":3516:3882   */\n      swap2\n      swap1\n      pop\n      jump\t// out\n        /* \"#utility.yul\":3888:4254   */\n    tag_164:\n        /* \"#utility.yul\":4030:4033   */\n      0x00\n        /* \"#utility.yul\":4051:4118   */\n      tag_166\n        /* \"#utility.yul\":4115:4117   */\n      0x1b\n        /* \"#utility.yul\":4110:4113   */\n      dup4\n        /* \"#utility.yul\":4051:4118   */\n      tag_148\n      jump\t// in\n    tag_166:\n        /* \"#utility.yul\":4044:4118   */\n      swap2\n      pop\n        /* \"#utility.yul\":4127:4220   */\n      tag_167\n        /* \"#utility.yul\":4216:4219   */\n      dup3\n        /* \"#utility.yul\":4127:4220   */\n      tag_168\n      jump\t// in\n    tag_167:\n        /* \"#utility.yul\":4245:4247   */\n      0x20\n        /* \"#utility.yul\":4240:4243   */\n      dup3\n        /* \"#utility.yul\":4236:4248   */\n      add\n        /* \"#utility.yul\":4229:4248   */\n      swap1\n      pop\n        /* \"#utility.yul\":3888:4254   */\n      swap2\n      swap1\n      pop\n      jump\t// out\n        /* \"#utility.yul\":4260:4626   */\n    tag_169:\n        /* \"#utility.yul\":4402:4405   */\n      0x00\n        /* \"#utility.yul\":4423:4490   */\n      tag_171\n        /* \"#utility.yul\":4487:4489   */\n      0x2b\n        /* \"#utility.yul\":4482:4485   */\n      dup4\n        /* \"#utility.yul\":4423:4490   */\n      tag_148\n      jump\t// in\n    tag_171:\n        /* \"#utility.yul\":4416:4490   */\n      swap2\n      pop\n        /* \"#utility.yul\":4499:4592   */\n      tag_172\n        /* \"#utility.yul\":4588:4591   */\n      dup3\n        /* \"#utility.yul\":4499:4592   */\n      tag_173\n      jump\t// in\n    tag_172:\n        /* \"#utility.yul\":4617:4619   */\n      0x40\n        /* \"#utility.yul\":4612:4615   */\n      dup3\n        /* \"#utility.yul\":4608:4620   */\n      add\n        /* \"#utility.yul\":4601:4620   */\n      swap1\n      pop\n        /* \"#utility.yul\":4260:4626   */\n      swap2\n      swap1\n      pop\n      jump\t// out\n        /* \"#utility.yul\":4632:4750   */\n    tag_174:\n        /* \"#utility.yul\":4719:4743   */\n      tag_176\n        /* \"#utility.yul\":4737:4742   */\n      dup2\n        /* \"#utility.yul\":4719:4743   */\n      tag_177\n      jump\t// in\n    tag_176:\n        /* \"#utility.yul\":4714:4717   */\n      dup3\n        /* \"#utility.yul\":4707:4744   */\n      mstore\n        /* \"#utility.yul\":4632:4750   */\n      pop\n      pop\n      jump\t// out\n        /* \"#utility.yul\":4756:4913   */\n    tag_178:\n        /* \"#utility.yul\":4861:4906   */\n      tag_180\n        /* \"#utility.yul\":4881:4905   */\n      tag_181\n        /* \"#utility.yul\":4899:4904   */\n      dup3\n        /* \"#utility.yul\":4881:4905   */\n      tag_177\n      jump\t// in\n    tag_181:\n        /* \"#utility.yul\":4861:4906   */\n      tag_182\n      jump\t// in\n    tag_180:\n        /* \"#utility.yul\":4856:4859   */\n      dup3\n        /* \"#utility.yul\":4849:4907   */\n      mstore\n        /* \"#utility.yul\":4756:4913   */\n      pop\n      pop\n      jump\t// out\n        /* \"#utility.yul\":4919:5476   */\n    tag_75:\n        /* \"#utility.yul\":5107:5110   */\n      0x00\n        /* \"#utility.yul\":5122:5197   */\n      tag_184\n        /* \"#utility.yul\":5193:5196   */\n      dup3\n        /* \"#utility.yul\":5184:5190   */\n      dup7\n        /* \"#utility.yul\":5122:5197   */\n      tag_134\n      jump\t// in\n    tag_184:\n        /* \"#utility.yul\":5222:5224   */\n      0x14\n        /* \"#utility.yul\":5217:5220   */\n      dup3\n        /* \"#utility.yul\":5213:5225   */\n      add\n        /* \"#utility.yul\":5206:5225   */\n      swap2\n      pop\n        /* \"#utility.yul\":5235:5310   */\n      tag_185\n        /* \"#utility.yul\":5306:5309   */\n      dup3\n        /* \"#utility.yul\":5297:5303   */\n      dup6\n        /* \"#utility.yul\":5235:5310   */\n      tag_178\n      jump\t// in\n    tag_185:\n        /* \"#utility.yul\":5335:5337   */\n      0x20\n        /* \"#utility.yul\":5330:5333   */\n      dup3\n        /* \"#utility.yul\":5326:5338   */\n      add\n        /* \"#utility.yul\":5319:5338   */\n      swap2\n      pop\n        /* \"#utility.yul\":5355:5450   */\n      tag_186\n        /* \"#utility.yul\":5446:5449   */\n      dup3\n        /* \"#utility.yul\":5437:5443   */\n      dup5\n        /* \"#utility.yul\":5355:5450   */\n      tag_153\n      jump\t// in\n    tag_186:\n        /* \"#utility.yul\":5348:5450   */\n      swap2\n      pop\n        /* \"#utility.yul\":5467:5470   */\n      dup2\n        /* \"#utility.yul\":5460:5470   */\n      swap1\n      pop\n        /* \"#utility.yul\":4919:5476   */\n      swap5\n      swap4\n      pop\n      pop\n      pop\n      pop\n      jump\t// out\n        /* \"#utility.yul\":5482:5795   */\n    tag_12:\n        /* \"#utility.yul\":5595:5599   */\n      0x00\n        /* \"#utility.yul\":5633:5635   */\n      0x20\n        /* \"#utility.yul\":5622:5631   */\n      dup3\n        /* \"#utility.yul\":5618:5636   */\n      add\n        /* \"#utility.yul\":5610:5636   */\n      swap1\n      pop\n        /* \"#utility.yul\":5682:5691   */\n      dup2\n        /* \"#utility.yul\":5676:5680   */\n      dup2\n        /* \"#utility.yul\":5672:5692   */\n      sub\n        /* \"#utility.yul\":5668:5669   */\n      0x00\n        /* \"#utility.yul\":5657:5666   */\n      dup4\n        /* \"#utility.yul\":5653:5670   */\n      add\n        /* \"#utility.yul\":5646:5693   */\n      mstore\n        /* \"#utility.yul\":5710:5788   */\n      tag_188\n        /* \"#utility.yul\":5783:5787   */\n      dup2\n        /* \"#utility.yul\":5774:5780   */\n      dup5\n        /* \"#utility.yul\":5710:5788   */\n      tag_143\n      jump\t// in\n    tag_188:\n        /* \"#utility.yul\":5702:5788   */\n      swap1\n      pop\n        /* \"#utility.yul\":5482:5795   */\n      swap3\n      swap2\n      pop\n      pop\n      jump\t// out\n        /* \"#utility.yul\":5801:6220   */\n    tag_37:\n        /* \"#utility.yul\":5967:5971   */\n      0x00\n        /* \"#utility.yul\":6005:6007   */\n      0x20\n        /* \"#utility.yul\":5994:6003   */\n      dup3\n        /* \"#utility.yul\":5990:6008   */\n      add\n        /* \"#utility.yul\":5982:6008   */\n      swap1\n      pop\n        /* \"#utility.yul\":6054:6063   */\n      dup2\n        /* \"#utility.yul\":6048:6052   */\n      dup2\n        /* \"#utility.yul\":6044:6064   */\n      sub\n        /* \"#utility.yul\":6040:6041   */\n      0x00\n        /* \"#utility.yul\":6029:6038   */\n      dup4\n        /* \"#utility.yul\":6025:6042   */\n      add\n        /* \"#utility.yul\":6018:6065   */\n      mstore\n        /* \"#utility.yul\":6082:6213   */\n      tag_190\n        /* \"#utility.yul\":6208:6212   */\n      dup2\n        /* \"#utility.yul\":6082:6213   */\n      tag_159\n      jump\t// in\n    tag_190:\n        /* \"#utility.yul\":6074:6213   */\n      swap1\n      pop\n        /* \"#utility.yul\":5801:6220   */\n      swap2\n      swap1\n      pop\n      jump\t// out\n        /* \"#utility.yul\":6226:6645   */\n    tag_42:\n        /* \"#utility.yul\":6392:6396   */\n      0x00\n        /* \"#utility.yul\":6430:6432   */\n      0x20\n        /* \"#utility.yul\":6419:6428   */\n      dup3\n        /* \"#utility.yul\":6415:6433   */\n      add\n        /* \"#utility.yul\":6407:6433   */\n      swap1\n      pop\n        /* \"#utility.yul\":6479:6488   */\n      dup2\n        /* \"#utility.yul\":6473:6477   */\n      dup2\n        /* \"#utility.yul\":6469:6489   */\n      sub\n        /* \"#utility.yul\":6465:6466   */\n      0x00\n        /* \"#utility.yul\":6454:6463   */\n      dup4\n        /* \"#utility.yul\":6450:6467   */\n      add\n        /* \"#utility.yul\":6443:6490   */\n      mstore\n        /* \"#utility.yul\":6507:6638   */\n      tag_192\n        /* \"#utility.yul\":6633:6637   */\n      dup2\n        /* \"#utility.yul\":6507:6638   */\n      tag_164\n      jump\t// in\n    tag_192:\n        /* \"#utility.yul\":6499:6638   */\n      swap1\n      pop\n        /* \"#utility.yul\":6226:6645   */\n      swap2\n      swap1\n      pop\n      jump\t// out\n        /* \"#utility.yul\":6651:7070   */\n    tag_31:\n        /* \"#utility.yul\":6817:6821   */\n      0x00\n        /* \"#utility.yul\":6855:6857   */\n      0x20\n        /* \"#utility.yul\":6844:6853   */\n      dup3\n        /* \"#utility.yul\":6840:6858   */\n      add\n        /* \"#utility.yul\":6832:6858   */\n      swap1\n      pop\n        /* \"#utility.yul\":6904:6913   */\n      dup2\n        /* \"#utility.yul\":6898:6902   */\n      dup2\n        /* \"#utility.yul\":6894:6914   */\n      sub\n        /* \"#utility.yul\":6890:6891   */\n      0x00\n        /* \"#utility.yul\":6879:6888   */\n      dup4\n        /* \"#utility.yul\":6875:6892   */\n      add\n        /* \"#utility.yul\":6868:6915   */\n      mstore\n        /* \"#utility.yul\":6932:7063   */\n      tag_194\n        /* \"#utility.yul\":7058:7062   */\n      dup2\n        /* \"#utility.yul\":6932:7063   */\n      tag_169\n      jump\t// in\n    tag_194:\n        /* \"#utility.yul\":6924:7063   */\n      swap1\n      pop\n        /* \"#utility.yul\":6651:7070   */\n      swap2\n      swap1\n      pop\n      jump\t// out\n        /* \"#utility.yul\":7076:7298   */\n    tag_18:\n        /* \"#utility.yul\":7169:7173   */\n      0x00\n        /* \"#utility.yul\":7207:7209   */\n      0x20\n        /* \"#utility.yul\":7196:7205   */\n      dup3\n        /* \"#utility.yul\":7192:7210   */\n      add\n        /* \"#utility.yul\":7184:7210   */\n      swap1\n      pop\n        /* \"#utility.yul\":7220:7291   */\n      tag_196\n        /* \"#utility.yul\":7288:7289   */\n      0x00\n        /* \"#utility.yul\":7277:7286   */\n      dup4\n        /* \"#utility.yul\":7273:7290   */\n      add\n        /* \"#utility.yul\":7264:7270   */\n      dup5\n        /* \"#utility.yul\":7220:7291   */\n      tag_174\n      jump\t// in\n    tag_196:\n        /* \"#utility.yul\":7076:7298   */\n      swap3\n      swap2\n      pop\n      pop\n      jump\t// out\n        /* \"#utility.yul\":7304:7948   */\n    tag_53:\n        /* \"#utility.yul\":7501:7505   */\n      0x00\n        /* \"#utility.yul\":7539:7542   */\n      0x80\n        /* \"#utility.yul\":7528:7537   */\n      dup3\n        /* \"#utility.yul\":7524:7543   */\n      add\n        /* \"#utility.yul\":7516:7543   */\n      swap1\n      pop\n        /* \"#utility.yul\":7553:7624   */\n      tag_198\n        /* \"#utility.yul\":7621:7622   */\n      0x00\n        /* \"#utility.yul\":7610:7619   */\n      dup4\n        /* \"#utility.yul\":7606:7623   */\n      add\n        /* \"#utility.yul\":7597:7603   */\n      dup8\n        /* \"#utility.yul\":7553:7624   */\n      tag_174\n      jump\t// in\n    tag_198:\n        /* \"#utility.yul\":7634:7706   */\n      tag_199\n        /* \"#utility.yul\":7702:7704   */\n      0x20\n        /* \"#utility.yul\":7691:7700   */\n      dup4\n        /* \"#utility.yul\":7687:7705   */\n      add\n        /* \"#utility.yul\":7678:7684   */\n      dup7\n        /* \"#utility.yul\":7634:7706   */\n      tag_130\n      jump\t// in\n    tag_199:\n        /* \"#utility.yul\":7716:7788   */\n      tag_200\n        /* \"#utility.yul\":7784:7786   */\n      0x40\n        /* \"#utility.yul\":7773:7782   */\n      dup4\n        /* \"#utility.yul\":7769:7787   */\n      add\n        /* \"#utility.yul\":7760:7766   */\n      dup6\n        /* \"#utility.yul\":7716:7788   */\n      tag_174\n      jump\t// in\n    tag_200:\n        /* \"#utility.yul\":7835:7844   */\n      dup2\n        /* \"#utility.yul\":7829:7833   */\n      dup2\n        /* \"#utility.yul\":7825:7845   */\n      sub\n        /* \"#utility.yul\":7820:7822   */\n      0x60\n        /* \"#utility.yul\":7809:7818   */\n      dup4\n        /* \"#utility.yul\":7805:7823   */\n      add\n        /* \"#utility.yul\":7798:7846   */\n      mstore\n        /* \"#utility.yul\":7863:7941   */\n      tag_201\n        /* \"#utility.yul\":7936:7940   */\n      dup2\n        /* \"#utility.yul\":7927:7933   */\n      dup5\n        /* \"#utility.yul\":7863:7941   */\n      tag_143\n      jump\t// in\n    tag_201:\n        /* \"#utility.yul\":7855:7941   */\n      swap1\n      pop\n        /* \"#utility.yul\":7304:7948   */\n      swap6\n      swap5\n      pop\n      pop\n      pop\n      pop\n      pop\n      jump\t// out\n        /* \"#utility.yul\":7954:8919   */\n    tag_23:\n        /* \"#utility.yul\":8229:8233   */\n      0x00\n        /* \"#utility.yul\":8267:8270   */\n      0xe0\n        /* \"#utility.yul\":8256:8265   */\n      dup3\n        /* \"#utility.yul\":8252:8271   */\n      add\n        /* \"#utility.yul\":8244:8271   */\n      swap1\n      pop\n        /* \"#utility.yul\":8281:8352   */\n      tag_203\n        /* \"#utility.yul\":8349:8350   */\n      0x00\n        /* \"#utility.yul\":8338:8347   */\n      dup4\n        /* \"#utility.yul\":8334:8351   */\n      add\n        /* \"#utility.yul\":8325:8331   */\n      dup11\n        /* \"#utility.yul\":8281:8352   */\n      tag_174\n      jump\t// in\n    tag_203:\n        /* \"#utility.yul\":8362:8434   */\n      tag_204\n        /* \"#utility.yul\":8430:8432   */\n      0x20\n        /* \"#utility.yul\":8419:8428   */\n      dup4\n        /* \"#utility.yul\":8415:8433   */\n      add\n        /* \"#utility.yul\":8406:8412   */\n      dup10\n        /* \"#utility.yul\":8362:8434   */\n      tag_174\n      jump\t// in\n    tag_204:\n        /* \"#utility.yul\":8444:8516   */\n      tag_205\n        /* \"#utility.yul\":8512:8514   */\n      0x40\n        /* \"#utility.yul\":8501:8510   */\n      dup4\n        /* \"#utility.yul\":8497:8515   */\n      add\n        /* \"#utility.yul\":8488:8494   */\n      dup9\n        /* \"#utility.yul\":8444:8516   */\n      tag_174\n      jump\t// in\n    tag_205:\n        /* \"#utility.yul\":8526:8598   */\n      tag_206\n        /* \"#utility.yul\":8594:8596   */\n      0x60\n        /* \"#utility.yul\":8583:8592   */\n      dup4\n        /* \"#utility.yul\":8579:8597   */\n      add\n        /* \"#utility.yul\":8570:8576   */\n      dup8\n        /* \"#utility.yul\":8526:8598   */\n      tag_174\n      jump\t// in\n    tag_206:\n        /* \"#utility.yul\":8608:8681   */\n      tag_207\n        /* \"#utility.yul\":8676:8679   */\n      0x80\n        /* \"#utility.yul\":8665:8674   */\n      dup4\n        /* \"#utility.yul\":8661:8680   */\n      add\n        /* \"#utility.yul\":8652:8658   */\n      dup7\n        /* \"#utility.yul\":8608:8681   */\n      tag_130\n      jump\t// in\n    tag_207:\n        /* \"#utility.yul\":8729:8738   */\n      dup2\n        /* \"#utility.yul\":8723:8727   */\n      dup2\n        /* \"#utility.yul\":8719:8739   */\n      sub\n        /* \"#utility.yul\":8713:8716   */\n      0xa0\n        /* \"#utility.yul\":8702:8711   */\n      dup4\n        /* \"#utility.yul\":8698:8717   */\n      add\n        /* \"#utility.yul\":8691:8740   */\n      mstore\n        /* \"#utility.yul\":8757:8835   */\n      tag_208\n        /* \"#utility.yul\":8830:8834   */\n      dup2\n        /* \"#utility.yul\":8821:8827   */\n      dup6\n        /* \"#utility.yul\":8757:8835   */\n      tag_143\n      jump\t// in\n    tag_208:\n        /* \"#utility.yul\":8749:8835   */\n      swap1\n      pop\n        /* \"#utility.yul\":8845:8912   */\n      tag_209\n        /* \"#utility.yul\":8907:8910   */\n      0xc0\n        /* \"#utility.yul\":8896:8905   */\n      dup4\n        /* \"#utility.yul\":8892:8911   */\n      add\n        /* \"#utility.yul\":8883:8889   */\n      dup5\n        /* \"#utility.yul\":8845:8912   */\n      tag_139\n      jump\t// in\n    tag_209:\n        /* \"#utility.yul\":7954:8919   */\n      swap9\n      swap8\n      pop\n      pop\n      pop\n      pop\n      pop\n      pop\n      pop\n      pop\n      jump\t// out\n        /* \"#utility.yul\":8925:9054   */\n    tag_95:\n        /* \"#utility.yul\":8959:8965   */\n      0x00\n        /* \"#utility.yul\":8986:9006   */\n      tag_211\n      tag_212\n      jump\t// in\n    tag_211:\n        /* \"#utility.yul\":8976:9006   */\n      swap1\n      pop\n        /* \"#utility.yul\":9015:9048   */\n      tag_213\n        /* \"#utility.yul\":9043:9047   */\n      dup3\n        /* \"#utility.yul\":9035:9041   */\n      dup3\n        /* \"#utility.yul\":9015:9048   */\n      tag_214\n      jump\t// in\n    tag_213:\n        /* \"#utility.yul\":8925:9054   */\n      swap2\n      swap1\n      pop\n      jump\t// out\n        /* \"#utility.yul\":9060:9135   */\n    tag_212:\n        /* \"#utility.yul\":9093:9099   */\n      0x00\n        /* \"#utility.yul\":9126:9128   */\n      0x40\n        /* \"#utility.yul\":9120:9129   */\n      mload\n        /* \"#utility.yul\":9110:9129   */\n      swap1\n      pop\n        /* \"#utility.yul\":9060:9135   */\n      swap1\n      jump\t// out\n        /* \"#utility.yul\":9141:9449   */\n    tag_94:\n        /* \"#utility.yul\":9203:9207   */\n      0x00\n        /* \"#utility.yul\":9293:9311   */\n      0xffffffffffffffff\n        /* \"#utility.yul\":9285:9291   */\n      dup3\n        /* \"#utility.yul\":9282:9312   */\n      gt\n        /* \"#utility.yul\":9279:9335   */\n      iszero\n      tag_217\n      jumpi\n        /* \"#utility.yul\":9315:9333   */\n      tag_218\n      tag_219\n      jump\t// in\n    tag_218:\n        /* \"#utility.yul\":9279:9335   */\n    tag_217:\n        /* \"#utility.yul\":9353:9382   */\n      tag_220\n        /* \"#utility.yul\":9375:9381   */\n      dup3\n        /* \"#utility.yul\":9353:9382   */\n      tag_152\n      jump\t// in\n    tag_220:\n        /* \"#utility.yul\":9345:9382   */\n      swap1\n      pop\n        /* \"#utility.yul\":9437:9441   */\n      0x20\n        /* \"#utility.yul\":9431:9435   */\n      dup2\n        /* \"#utility.yul\":9427:9442   */\n      add\n        /* \"#utility.yul\":9419:9442   */\n      swap1\n      pop\n        /* \"#utility.yul\":9141:9449   */\n      swap2\n      swap1\n      pop\n      jump\t// out\n        /* \"#utility.yul\":9455:9554   */\n    tag_146:\n        /* \"#utility.yul\":9507:9513   */\n      0x00\n        /* \"#utility.yul\":9541:9546   */\n      dup2\n        /* \"#utility.yul\":9535:9547   */\n      mload\n        /* \"#utility.yul\":9525:9547   */\n      swap1\n      pop\n        /* \"#utility.yul\":9455:9554   */\n      swap2\n      swap1\n      pop\n      jump\t// out\n        /* \"#utility.yul\":9560:9729   */\n    tag_148:\n        /* \"#utility.yul\":9644:9655   */\n      0x00\n        /* \"#utility.yul\":9678:9684   */\n      dup3\n        /* \"#utility.yul\":9673:9676   */\n      dup3\n        /* \"#utility.yul\":9666:9685   */\n      mstore\n        /* \"#utility.yul\":9718:9722   */\n      0x20\n        /* \"#utility.yul\":9713:9716   */\n      dup3\n        /* \"#utility.yul\":9709:9723   */\n      add\n        /* \"#utility.yul\":9694:9723   */\n      swap1\n      pop\n        /* \"#utility.yul\":9560:9729   */\n      swap3\n      swap2\n      pop\n      pop\n      jump\t// out\n        /* \"#utility.yul\":9735:9883   */\n    tag_157:\n        /* \"#utility.yul\":9837:9848   */\n      0x00\n        /* \"#utility.yul\":9874:9877   */\n      dup2\n        /* \"#utility.yul\":9859:9877   */\n      swap1\n      pop\n        /* \"#utility.yul\":9735:9883   */\n      swap3\n      swap2\n      pop\n      pop\n      jump\t// out\n        /* \"#utility.yul\":9889:10194   */\n    tag_48:\n        /* \"#utility.yul\":9929:9932   */\n      0x00\n        /* \"#utility.yul\":9948:9968   */\n      tag_225\n        /* \"#utility.yul\":9966:9967   */\n      dup3\n        /* \"#utility.yul\":9948:9968   */\n      tag_177\n      jump\t// in\n    tag_225:\n        /* \"#utility.yul\":9943:9968   */\n      swap2\n      pop\n        /* \"#utility.yul\":9982:10002   */\n      tag_226\n        /* \"#utility.yul\":10000:10001   */\n      dup4\n        /* \"#utility.yul\":9982:10002   */\n      tag_177\n      jump\t// in\n    tag_226:\n        /* \"#utility.yul\":9977:10002   */\n      swap3\n      pop\n        /* \"#utility.yul\":10136:10137   */\n      dup3\n        /* \"#utility.yul\":10068:10134   */\n      0xffffffffffffffffffffffffffffffffffffffffffffffffffffffffffffffff\n        /* \"#utility.yul\":10064:10138   */\n      sub\n        /* \"#utility.yul\":10061:10062   */\n      dup3\n        /* \"#utility.yul\":10058:10139   */\n      gt\n        /* \"#utility.yul\":10055:10162   */\n      iszero\n      tag_227\n      jumpi\n        /* \"#utility.yul\":10142:10160   */\n      tag_228\n      tag_229\n      jump\t// in\n    tag_228:\n        /* \"#utility.yul\":10055:10162   */\n    tag_227:\n        /* \"#utility.yul\":10186:10187   */\n      dup3\n        /* \"#utility.yul\":10183:10184   */\n      dup3\n        /* \"#utility.yul\":10179:10188   */\n      add\n        /* \"#utility.yul\":10172:10188   */\n      swap1\n      pop\n        /* \"#utility.yul\":9889:10194   */\n      swap3\n      swap2\n      pop\n      pop\n      jump\t// out\n        /* \"#utility.yul\":10200:10548   */\n    tag_34:\n        /* \"#utility.yul\":10240:10247   */\n      0x00\n        /* \"#utility.yul\":10263:10283   */\n      tag_231\n        /* \"#utility.yul\":10281:10282   */\n      dup3\n        /* \"#utility.yul\":10263:10283   */\n      tag_177\n      jump\t// in\n    tag_231:\n        /* \"#utility.yul\":10258:10283   */\n      swap2\n      pop\n        /* \"#utility.yul\":10297:10317   */\n      tag_232\n        /* \"#utility.yul\":10315:10316   */\n      dup4\n        /* \"#utility.yul\":10297:10317   */\n      tag_177\n      jump\t// in\n    tag_232:\n        /* \"#utility.yul\":10292:10317   */\n      swap3\n      pop\n        /* \"#utility.yul\":10485:10486   */\n      dup2\n        /* \"#utility.yul\":10417:10483   */\n      0xffffffffffffffffffffffffffffffffffffffffffffffffffffffffffffffff\n        /* \"#utility.yul\":10413:10487   */\n      div\n        /* \"#utility.yul\":10410:10411   */\n      dup4\n        /* \"#utility.yul\":10407:10488   */\n      gt\n        /* \"#utility.yul\":10402:10403   */\n      dup3\n        /* \"#utility.yul\":10395:10404   */\n      iszero\n        /* \"#utility.yul\":10388:10405   */\n      iszero\n        /* \"#utility.yul\":10384:10489   */\n      and\n        /* \"#utility.yul\":10381:10512   */\n      iszero\n      tag_233\n      jumpi\n        /* \"#utility.yul\":10492:10510   */\n      tag_234\n      tag_229\n      jump\t// in\n    tag_234:\n        /* \"#utility.yul\":10381:10512   */\n    tag_233:\n        /* \"#utility.yul\":10540:10541   */\n      dup3\n        /* \"#utility.yul\":10537:10538   */\n      dup3\n        /* \"#utility.yul\":10533:10542   */\n      mul\n        /* \"#utility.yul\":10522:10542   */\n      swap1\n      pop\n        /* \"#utility.yul\":10200:10548   */\n      swap3\n      swap2\n      pop\n      pop\n      jump\t// out\n        /* \"#utility.yul\":10554:10650   */\n    tag_133:\n        /* \"#utility.yul\":10591:10598   */\n      0x00\n        /* \"#utility.yul\":10620:10644   */\n      tag_236\n        /* \"#utility.yul\":10638:10643   */\n      dup3\n        /* \"#utility.yul\":10620:10644   */\n      tag_237\n      jump\t// in\n    tag_236:\n        /* \"#utility.yul\":10609:10644   */\n      swap1\n      pop\n        /* \"#utility.yul\":10554:10650   */\n      swap2\n      swap1\n      pop\n      jump\t// out\n        /* \"#utility.yul\":10656:10746   */\n    tag_142:\n        /* \"#utility.yul\":10690:10697   */\n      0x00\n        /* \"#utility.yul\":10733:10738   */\n      dup2\n        /* \"#utility.yul\":10726:10739   */\n      iszero\n        /* \"#utility.yul\":10719:10740   */\n      iszero\n        /* \"#utility.yul\":10708:10740   */\n      swap1\n      pop\n        /* \"#utility.yul\":10656:10746   */\n      swap2\n      swap1\n      pop\n      jump\t// out\n        /* \"#utility.yul\":10752:10878   */\n    tag_237:\n        /* \"#utility.yul\":10789:10796   */\n      0x00\n        /* \"#utility.yul\":10829:10871   */\n      0xffffffffffffffffffffffffffffffffffffffff\n        /* \"#utility.yul\":10822:10827   */\n      dup3\n        /* \"#utility.yul\":10818:10872   */\n      and\n        /* \"#utility.yul\":10807:10872   */\n      swap1\n      pop\n        /* \"#utility.yul\":10752:10878   */\n      swap2\n      swap1\n      pop\n      jump\t// out\n        /* \"#utility.yul\":10884:10961   */\n    tag_177:\n        /* \"#utility.yul\":10921:10928   */\n      0x00\n        /* \"#utility.yul\":10950:10955   */\n      dup2\n        /* \"#utility.yul\":10939:10955   */\n      swap1\n      pop\n        /* \"#utility.yul\":10884:10961   */\n      swap2\n      swap1\n      pop\n      jump\t// out\n        /* \"#utility.yul\":10967:11121   */\n    tag_100:\n        /* \"#utility.yul\":11051:11057   */\n      dup3\n        /* \"#utility.yul\":11046:11049   */\n      dup2\n        /* \"#utility.yul\":11041:11044   */\n      dup4\n        /* \"#utility.yul\":11028:11058   */\n      calldatacopy\n        /* \"#utility.yul\":11113:11114   */\n      0x00\n        /* \"#utility.yul\":11104:11110   */\n      dup4\n        /* \"#utility.yul\":11099:11102   */\n      dup4\n        /* \"#utility.yul\":11095:11111   */\n      add\n        /* \"#utility.yul\":11088:11115   */\n      mstore\n        /* \"#utility.yul\":10967:11121   */\n      pop\n      pop\n      pop\n      jump\t// out\n        /* \"#utility.yul\":11127:11434   */\n    tag_150:\n        /* \"#utility.yul\":11195:11196   */\n      0x00\n        /* \"#utility.yul\":11205:11318   */\n    tag_243:\n        /* \"#utility.yul\":11219:11225   */\n      dup4\n        /* \"#utility.yul\":11216:11217   */\n      dup2\n        /* \"#utility.yul\":11213:11226   */\n      lt\n        /* \"#utility.yul\":11205:11318   */\n      iszero\n      tag_245\n      jumpi\n        /* \"#utility.yul\":11304:11305   */\n      dup1\n        /* \"#utility.yul\":11299:11302   */\n      dup3\n        /* \"#utility.yul\":11295:11306   */\n      add\n        /* \"#utility.yul\":11289:11307   */\n      mload\n        /* \"#utility.yul\":11285:11286   */\n      dup2\n        /* \"#utility.yul\":11280:11283   */\n      dup5\n        /* \"#utility.yul\":11276:11287   */\n      add\n        /* \"#utility.yul\":11269:11308   */\n      mstore\n        /* \"#utility.yul\":11241:11243   */\n      0x20\n        /* \"#utility.yul\":11238:11239   */\n      dup2\n        /* \"#utility.yul\":11234:11244   */\n      add\n        /* \"#utility.yul\":11229:11244   */\n      swap1\n      pop\n        /* \"#utility.yul\":11205:11318   */\n      jump(tag_243)\n    tag_245:\n        /* \"#utility.yul\":11336:11342   */\n      dup4\n        /* \"#utility.yul\":11333:11334   */\n      dup2\n        /* \"#utility.yul\":11330:11343   */\n      gt\n        /* \"#utility.yul\":11327:11428   */\n      iszero\n      tag_246\n      jumpi\n        /* \"#utility.yul\":11416:11417   */\n      0x00\n        /* \"#utility.yul\":11407:11413   */\n      dup5\n        /* \"#utility.yul\":11402:11405   */\n      dup5\n        /* \"#utility.yul\":11398:11414   */\n      add\n        /* \"#utility.yul\":11391:11418   */\n      mstore\n        /* \"#utility.yul\":11327:11428   */\n    tag_246:\n        /* \"#utility.yul\":11176:11434   */\n      pop\n        /* \"#utility.yul\":11127:11434   */\n      pop\n      pop\n      pop\n      jump\t// out\n        /* \"#utility.yul\":11440:11760   */\n    tag_55:\n        /* \"#utility.yul\":11484:11490   */\n      0x00\n        /* \"#utility.yul\":11521:11522   */\n      0x02\n        /* \"#utility.yul\":11515:11519   */\n      dup3\n        /* \"#utility.yul\":11511:11523   */\n      div\n        /* \"#utility.yul\":11501:11523   */\n      swap1\n      pop\n        /* \"#utility.yul\":11568:11569   */\n      0x01\n        /* \"#utility.yul\":11562:11566   */\n      dup3\n        /* \"#utility.yul\":11558:11570   */\n      and\n        /* \"#utility.yul\":11589:11607   */\n      dup1\n        /* \"#utility.yul\":11579:11660   */\n      tag_248\n      jumpi\n        /* \"#utility.yul\":11645:11649   */\n      0x7f\n        /* \"#utility.yul\":11637:11643   */\n      dup3\n        /* \"#utility.yul\":11633:11650   */\n      and\n        /* \"#utility.yul\":11623:11650   */\n      swap2\n      pop\n        /* \"#utility.yul\":11579:11660   */\n    tag_248:\n        /* \"#utility.yul\":11707:11709   */\n      0x20\n        /* \"#utility.yul\":11699:11705   */\n      dup3\n        /* \"#utility.yul\":11696:11710   */\n      lt\n        /* \"#utility.yul\":11676:11694   */\n      dup2\n        /* \"#utility.yul\":11673:11711   */\n      eq\n        /* \"#utility.yul\":11670:11754   */\n      iszero\n      tag_249\n      jumpi\n        /* \"#utility.yul\":11726:11744   */\n      tag_250\n      tag_251\n      jump\t// in\n    tag_250:\n        /* \"#utility.yul\":11670:11754   */\n    tag_249:\n        /* \"#utility.yul\":11491:11760   */\n      pop\n        /* \"#utility.yul\":11440:11760   */\n      swap2\n      swap1\n      pop\n      jump\t// out\n        /* \"#utility.yul\":11766:12047   */\n    tag_214:\n        /* \"#utility.yul\":11849:11876   */\n      tag_253\n        /* \"#utility.yul\":11871:11875   */\n      dup3\n        /* \"#utility.yul\":11849:11876   */\n      tag_152\n      jump\t// in\n    tag_253:\n        /* \"#utility.yul\":11841:11847   */\n      dup2\n        /* \"#utility.yul\":11837:11877   */\n      add\n        /* \"#utility.yul\":11979:11985   */\n      dup2\n        /* \"#utility.yul\":11967:11977   */\n      dup2\n        /* \"#utility.yul\":11964:11986   */\n      lt\n        /* \"#utility.yul\":11943:11961   */\n      0xffffffffffffffff\n        /* \"#utility.yul\":11931:11941   */\n      dup3\n        /* \"#utility.yul\":11928:11962   */\n      gt\n        /* \"#utility.yul\":11925:11987   */\n      or\n        /* \"#utility.yul\":11922:12010   */\n      iszero\n      tag_254\n      jumpi\n        /* \"#utility.yul\":11990:12008   */\n      tag_255\n      tag_219\n      jump\t// in\n    tag_255:\n        /* \"#utility.yul\":11922:12010   */\n    tag_254:\n        /* \"#utility.yul\":12030:12040   */\n      dup1\n        /* \"#utility.yul\":12026:12028   */\n      0x40\n        /* \"#utility.yul\":12019:12041   */\n      mstore\n        /* \"#utility.yul\":11809:12047   */\n      pop\n        /* \"#utility.yul\":11766:12047   */\n      pop\n      pop\n      jump\t// out\n        /* \"#utility.yul\":12053:12286   */\n    tag_51:\n        /* \"#utility.yul\":12092:12095   */\n      0x00\n        /* \"#utility.yul\":12115:12139   */\n      tag_257\n        /* \"#utility.yul\":12133:12138   */\n      dup3\n        /* \"#utility.yul\":12115:12139   */\n      tag_177\n      jump\t// in\n    tag_257:\n        /* \"#utility.yul\":12106:12139   */\n      swap2\n      pop\n        /* \"#utility.yul\":12161:12227   */\n      0xffffffffffffffffffffffffffffffffffffffffffffffffffffffffffffffff\n        /* \"#utility.yul\":12154:12159   */\n      dup3\n        /* \"#utility.yul\":12151:12228   */\n      eq\n        /* \"#utility.yul\":12148:12251   */\n      iszero\n      tag_258\n      jumpi\n        /* \"#utility.yul\":12231:12249   */\n      tag_259\n      tag_229\n      jump\t// in\n    tag_259:\n        /* \"#utility.yul\":12148:12251   */\n    tag_258:\n        /* \"#utility.yul\":12278:12279   */\n      0x01\n        /* \"#utility.yul\":12271:12276   */\n      dup3\n        /* \"#utility.yul\":12267:12280   */\n      add\n        /* \"#utility.yul\":12260:12280   */\n      swap1\n      pop\n        /* \"#utility.yul\":12053:12286   */\n      swap2\n      swap1\n      pop\n      jump\t// out\n        /* \"#utility.yul\":12292:12392   */\n    tag_138:\n        /* \"#utility.yul\":12331:12338   */\n      0x00\n        /* \"#utility.yul\":12360:12386   */\n      tag_261\n        /* \"#utility.yul\":12380:12385   */\n      dup3\n        /* \"#utility.yul\":12360:12386   */\n      tag_262\n      jump\t// in\n    tag_261:\n        /* \"#utility.yul\":12349:12386   */\n      swap1\n      pop\n        /* \"#utility.yul\":12292:12392   */\n      swap2\n      swap1\n      pop\n      jump\t// out\n        /* \"#utility.yul\":12398:12492   */\n    tag_262:\n        /* \"#utility.yul\":12437:12444   */\n      0x00\n        /* \"#utility.yul\":12466:12486   */\n      tag_264\n        /* \"#utility.yul\":12480:12485   */\n      dup3\n        /* \"#utility.yul\":12466:12486   */\n      tag_265\n      jump\t// in\n    tag_264:\n        /* \"#utility.yul\":12455:12486   */\n      swap1\n      pop\n        /* \"#utility.yul\":12398:12492   */\n      swap2\n      swap1\n      pop\n      jump\t// out\n        /* \"#utility.yul\":12498:12577   */\n    tag_182:\n        /* \"#utility.yul\":12537:12544   */\n      0x00\n        /* \"#utility.yul\":12566:12571   */\n      dup2\n        /* \"#utility.yul\":12555:12571   */\n      swap1\n      pop\n        /* \"#utility.yul\":12498:12577   */\n      swap2\n      swap1\n      pop\n      jump\t// out\n        /* \"#utility.yul\":12583:12759   */\n    tag_77:\n        /* \"#utility.yul\":12615:12616   */\n      0x00\n        /* \"#utility.yul\":12632:12652   */\n      tag_268\n        /* \"#utility.yul\":12650:12651   */\n      dup3\n        /* \"#utility.yul\":12632:12652   */\n      tag_177\n      jump\t// in\n    tag_268:\n        /* \"#utility.yul\":12627:12652   */\n      swap2\n      pop\n        /* \"#utility.yul\":12666:12686   */\n      tag_269\n        /* \"#utility.yul\":12684:12685   */\n      dup4\n        /* \"#utility.yul\":12666:12686   */\n      tag_177\n      jump\t// in\n    tag_269:\n        /* \"#utility.yul\":12661:12686   */\n      swap3\n      pop\n        /* \"#utility.yul\":12705:12706   */\n      dup3\n        /* \"#utility.yul\":12695:12730   */\n      tag_270\n      jumpi\n        /* \"#utility.yul\":12710:12728   */\n      tag_271\n      tag_272\n      jump\t// in\n    tag_271:\n        /* \"#utility.yul\":12695:12730   */\n    tag_270:\n        /* \"#utility.yul\":12751:12752   */\n      dup3\n        /* \"#utility.yul\":12748:12749   */\n      dup3\n        /* \"#utility.yul\":12744:12753   */\n      mod\n        /* \"#utility.yul\":12739:12753   */\n      swap1\n      pop\n        /* \"#utility.yul\":12583:12759   */\n      swap3\n      swap2\n      pop\n      pop\n      jump\t// out\n        /* \"#utility.yul\":12765:12945   */\n    tag_229:\n        /* \"#utility.yul\":12813:12890   */\n      0x4e487b7100000000000000000000000000000000000000000000000000000000\n        /* \"#utility.yul\":12810:12811   */\n      0x00\n        /* \"#utility.yul\":12803:12891   */\n      mstore\n        /* \"#utility.yul\":12910:12914   */\n      0x11\n        /* \"#utility.yul\":12907:12908   */\n      0x04\n        /* \"#utility.yul\":12900:12915   */\n      mstore\n        /* \"#utility.yul\":12934:12938   */\n      0x24\n        /* \"#utility.yul\":12931:12932   */\n      0x00\n        /* \"#utility.yul\":12924:12939   */\n      revert\n        /* \"#utility.yul\":12951:13131   */\n    tag_272:\n        /* \"#utility.yul\":12999:13076   */\n      0x4e487b7100000000000000000000000000000000000000000000000000000000\n        /* \"#utility.yul\":12996:12997   */\n      0x00\n        /* \"#utility.yul\":12989:13077   */\n      mstore\n        /* \"#utility.yul\":13096:13100   */\n      0x12\n        /* \"#utility.yul\":13093:13094   */\n      0x04\n        /* \"#utility.yul\":13086:13101   */\n      mstore\n        /* \"#utility.yul\":13120:13124   */\n      0x24\n        /* \"#utility.yul\":13117:13118   */\n      0x00\n        /* \"#utility.yul\":13110:13125   */\n      revert\n        /* \"#utility.yul\":13137:13317   */\n    tag_251:\n        /* \"#utility.yul\":13185:13262   */\n      0x4e487b7100000000000000000000000000000000000000000000000000000000\n        /* \"#utility.yul\":13182:13183   */\n      0x00\n        /* \"#utility.yul\":13175:13263   */\n      mstore\n        /* \"#utility.yul\":13282:13286   */\n      0x22\n        /* \"#utility.yul\":13279:13280   */\n      0x04\n        /* \"#utility.yul\":13272:13287   */\n      mstore\n        /* \"#utility.yul\":13306:13310   */\n      0x24\n        /* \"#utility.yul\":13303:13304   */\n      0x00\n        /* \"#utility.yul\":13296:13311   */\n      revert\n        /* \"#utility.yul\":13323:13503   */\n    tag_66:\n        /* \"#utility.yul\":13371:13448   */\n      0x4e487b7100000000000000000000000000000000000000000000000000000000\n        /* \"#utility.yul\":13368:13369   */\n      0x00\n        /* \"#utility.yul\":13361:13449   */\n      mstore\n        /* \"#utility.yul\":13468:13472   */\n      0x32\n        /* \"#utility.yul\":13465:13466   */\n      0x04\n        /* \"#utility.yul\":13458:13473   */\n      mstore\n        /* \"#utility.yul\":13492:13496   */\n      0x24\n        /* \"#utility.yul\":13489:13490   */\n      0x00\n        /* \"#utility.yul\":13482:13497   */\n      revert\n        /* \"#utility.yul\":13509:13689   */\n    tag_219:\n        /* \"#utility.yul\":13557:13634   */\n      0x4e487b7100000000000000000000000000000000000000000000000000000000\n        /* \"#utility.yul\":13554:13555   */\n      0x00\n        /* \"#utility.yul\":13547:13635   */\n      mstore\n        /* \"#utility.yul\":13654:13658   */\n      0x41\n        /* \"#utility.yul\":13651:13652   */\n      0x04\n        /* \"#utility.yul\":13644:13659   */\n      mstore\n        /* \"#utility.yul\":13678:13682   */\n      0x24\n        /* \"#utility.yul\":13675:13676   */\n      0x00\n        /* \"#utility.yul\":13668:13683   */\n      revert\n        /* \"#utility.yul\":13695:13812   */\n    tag_109:\n        /* \"#utility.yul\":13804:13805   */\n      0x00\n        /* \"#utility.yul\":13801:13802   */\n      dup1\n        /* \"#utility.yul\":13794:13806   */\n      revert\n        /* \"#utility.yul\":13818:13935   */\n    tag_98:\n        /* \"#utility.yul\":13927:13928   */\n      0x00\n        /* \"#utility.yul\":13924:13925   */\n      dup1\n        /* \"#utility.yul\":13917:13929   */\n      revert\n        /* \"#utility.yul\":13941:14058   */\n    tag_128:\n        /* \"#utility.yul\":14050:14051   */\n      0x00\n        /* \"#utility.yul\":14047:14048   */\n      dup1\n        /* \"#utility.yul\":14040:14052   */\n      revert\n        /* \"#utility.yul\":14064:14181   */\n    tag_118:\n        /* \"#utility.yul\":14173:14174   */\n      0x00\n        /* \"#utility.yul\":14170:14171   */\n      dup1\n        /* \"#utility.yul\":14163:14175   */\n      revert\n        /* \"#utility.yul\":14187:14289   */\n    tag_152:\n        /* \"#utility.yul\":14228:14234   */\n      0x00\n        /* \"#utility.yul\":14279:14281   */\n      0x1f\n        /* \"#utility.yul\":14275:14282   */\n      not\n        /* \"#utility.yul\":14270:14272   */\n      0x1f\n        /* \"#utility.yul\":14263:14268   */\n      dup4\n        /* \"#utility.yul\":14259:14273   */\n      add\n        /* \"#utility.yul\":14255:14283   */\n      and\n        /* \"#utility.yul\":14245:14283   */\n      swap1\n      pop\n        /* \"#utility.yul\":14187:14289   */\n      swap2\n      swap1\n      pop\n      jump\t// out\n        /* \"#utility.yul\":14295:14389   */\n    tag_265:\n        /* \"#utility.yul\":14328:14336   */\n      0x00\n        /* \"#utility.yul\":14376:14381   */\n      dup2\n        /* \"#utility.yul\":14372:14374   */\n      0x60\n        /* \"#utility.yul\":14368:14382   */\n      shl\n        /* \"#utility.yul\":14347:14382   */\n      swap1\n      pop\n        /* \"#utility.yul\":14295:14389   */\n      swap2\n      swap1\n      pop\n      jump\t// out\n        /* \"#utility.yul\":14395:14565   */\n    tag_163:\n        /* \"#utility.yul\":14535:14557   */\n      0x76616c75652063616e6e6f74206265206e756c6c000000000000000000000000\n        /* \"#utility.yul\":14531:14532   */\n      0x00\n        /* \"#utility.yul\":14523:14529   */\n      dup3\n        /* \"#utility.yul\":14519:14533   */\n      add\n        /* \"#utility.yul\":14512:14558   */\n      mstore\n        /* \"#utility.yul\":14395:14565   */\n      pop\n      jump\t// out\n        /* \"#utility.yul\":14571:14748   */\n    tag_168:\n        /* \"#utility.yul\":14711:14740   */\n      0x7468697320686f757365496420616c7265616479206578697374730000000000\n        /* \"#utility.yul\":14707:14708   */\n      0x00\n        /* \"#utility.yul\":14699:14705   */\n      dup3\n        /* \"#utility.yul\":14695:14709   */\n      add\n        /* \"#utility.yul\":14688:14741   */\n      mstore\n        /* \"#utility.yul\":14571:14748   */\n      pop\n      jump\t// out\n        /* \"#utility.yul\":14754:14984   */\n    tag_173:\n        /* \"#utility.yul\":14894:14928   */\n      0x596f7520646f206e6f7420686176652061636365737320746f2064656c657465\n        /* \"#utility.yul\":14890:14891   */\n      0x00\n        /* \"#utility.yul\":14882:14888   */\n      dup3\n        /* \"#utility.yul\":14878:14892   */\n      add\n        /* \"#utility.yul\":14871:14929   */\n      mstore\n        /* \"#utility.yul\":14963:14976   */\n      0x207468697320686f757365000000000000000000000000000000000000000000\n        /* \"#utility.yul\":14958:14960   */\n      0x20\n        /* \"#utility.yul\":14950:14956   */\n      dup3\n        /* \"#utility.yul\":14946:14961   */\n      add\n        /* \"#utility.yul\":14939:14977   */\n      mstore\n        /* \"#utility.yul\":14754:14984   */\n      pop\n      jump\t// out\n        /* \"#utility.yul\":14990:15112   */\n    tag_104:\n        /* \"#utility.yul\":15063:15087   */\n      tag_288\n        /* \"#utility.yul\":15081:15086   */\n      dup2\n        /* \"#utility.yul\":15063:15087   */\n      tag_133\n      jump\t// in\n    tag_288:\n        /* \"#utility.yul\":15056:15061   */\n      dup2\n        /* \"#utility.yul\":15053:15088   */\n      eq\n        /* \"#utility.yul\":15043:15106   */\n      tag_289\n      jumpi\n        /* \"#utility.yul\":15102:15103   */\n      0x00\n        /* \"#utility.yul\":15099:15100   */\n      dup1\n        /* \"#utility.yul\":15092:15104   */\n      revert\n        /* \"#utility.yul\":15043:15106   */\n    tag_289:\n        /* \"#utility.yul\":14990:15112   */\n      pop\n      jump\t// out\n        /* \"#utility.yul\":15118:15240   */\n    tag_114:\n        /* \"#utility.yul\":15191:15215   */\n      tag_291\n        /* \"#utility.yul\":15209:15214   */\n      dup2\n        /* \"#utility.yul\":15191:15215   */\n      tag_177\n      jump\t// in\n    tag_291:\n        /* \"#utility.yul\":15184:15189   */\n      dup2\n        /* \"#utility.yul\":15181:15216   */\n      eq\n        /* \"#utility.yul\":15171:15234   */\n      tag_292\n      jumpi\n        /* \"#utility.yul\":15230:15231   */\n      0x00\n        /* \"#utility.yul\":15227:15228   */\n      dup1\n        /* \"#utility.yul\":15220:15232   */\n      revert\n        /* \"#utility.yul\":15171:15234   */\n    tag_292:\n        /* \"#utility.yul\":15118:15240   */\n      pop\n      jump\t// out\n\n    auxdata: 0xa2646970667358221220e49b5291fb0433dfb81036b56a814fd6cddac634f6ca89f30a6d21a04de0bb6164736f6c63430008070033\n}\n",
				"bytecode": {
					"linkReferences": {},
					"object": "60806040526005600055600054600a6200001a919062000096565b600155600160025560016003553480156200003457600080fd5b5062000219565b6000808291508390505b60018511156200008d57808604811115620000655762000064620001dd565b5b6001851615620000755780820291505b808102905062000085856200020c565b945062000045565b94509492505050565b6000620000a382620001d3565b9150620000b083620001d3565b9250620000df7fffffffffffffffffffffffffffffffffffffffffffffffffffffffffffffffff8484620000e7565b905092915050565b600082620000f95760019050620001cc565b81620001095760009050620001cc565b81600181146200012257600281146200012d5762000163565b6001915050620001cc565b60ff841115620001425762000141620001dd565b5b8360020a9150848211156200015c576200015b620001dd565b5b50620001cc565b5060208310610133831016604e8410600b84101617156200019d5782820a905083811115620001975762000196620001dd565b5b620001cc565b620001ac84848460016200003b565b92509050818404811115620001c657620001c5620001dd565b5b81810290505b9392505050565b6000819050919050565b7f4e487b7100000000000000000000000000000000000000000000000000000000600052601160045260246000fd5b60008160011c9050919050565b61102880620002296000396000f3fe608060405234801561001057600080fd5b506004361061004c5760003560e01c80633c3b0b4a1461005157806391bfe0d414610081578063aeda852f146100b1578063c45e1b25146100e7575b600080fd5b61006b600480360381019061006691906107ce565b610117565b60405161007891906109e5565b60405180910390f35b61009b600480360381019061009691906107fb565b610229565b6040516100a89190610a67565b60405180910390f35b6100cb60048036038101906100c691906107ce565b6104bd565b6040516100de9796959493929190610ace565b60405180910390f35b61010160048036038101906100fc91906107ce565b6105b4565b60405161010e9190610a67565b60405180910390f35b60603373ffffffffffffffffffffffffffffffffffffffff166006600084815260200190815260200160002060040160009054906101000a900473ffffffffffffffffffffffffffffffffffffffff1673ffffffffffffffffffffffffffffffffffffffff16146101bd576040517f08c379a00000000000000000000000000000000000000000000000000000000081526004016101b490610a47565b60405180910390fd5b60016006600084815260200190815260200160002060060160006101000a81548160ff0219169083151502179055506040518060400160405280601581526020017f64656c69737420776173207375636365737366756c00000000000000000000008152509050919050565b60008084866102389190610c17565b11610278576040517f08c379a000000000000000000000000000000000000000000000000000000000815260040161026f90610a07565b60405180910390fd5b600061028584868561063c565b905060066000828152602001908152602001600020600001548114156102e0576040517f08c379a00000000000000000000000000000000000000000000000000000000081526004016102d790610a27565b60405180910390fd5b6040518060e0016040528082815260200160035481526020018781526020018681526020018573ffffffffffffffffffffffffffffffffffffffff16815260200184815260200160001515815250600660008381526020019081526020016000206000820151816000015560208201518160010155604082015181600201556060820151816003015560808201518160040160006101000a81548173ffffffffffffffffffffffffffffffffffffffff021916908373ffffffffffffffffffffffffffffffffffffffff16021790555060a08201518160050190805190602001906103cc929190610691565b5060c08201518160060160006101000a81548160ff021916908315150217905550905050600560405180604001604052808381526020018881525090806001815401808255809150506001900390600052602060002090600202016000909190919091506000820151816000015560208201518160010155505061045c600254426104579190610bc1565b610687565b6003600081548092919061046f90610d5e565b91905055507f8f5afd88eb4be0ac287d87970052ce9a2b453448408e3c91a695ad7509ab7194818588866040516104a99493929190610a82565b60405180910390a180915050949350505050565b60066020528060005260406000206000915090508060000154908060010154908060020154908060030154908060040160009054906101000a900473ffffffffffffffffffffffffffffffffffffffff169080600501805461051e90610cfb565b80601f016020809104026020016040519081016040528092919081815260200182805461054a90610cfb565b80156105975780601f1061056c57610100808354040283529160200191610597565b820191906000526020600020905b81548152906001019060200180831161057a57829003601f168201915b5050505050908060060160009054906101000a900460ff16905087565b6000806000600190505b60058054905081116106325783600582815481106105df576105de610e93565b5b9060005260206000209060020201600101541161061f576005818154811061060a57610609610e93565b5b90600052602060002090600202016001015491505b808061062a90610d5e565b9150506105be565b5080915050919050565b600080848484604051602001610654939291906109ac565b6040516020818303038152906040528051906020012060001c90506001548161067d9190610dd5565b9150509392505050565b8060048190555050565b82805461069d90610cfb565b90600052602060002090601f0160209004810192826106bf5760008555610706565b82601f106106d857805160ff1916838001178555610706565b82800160010185558215610706579182015b828111156107055782518255916020019190600101906106ea565b5b5090506107139190610717565b5090565b5b80821115610730576000816000905550600101610718565b5090565b600061074761074284610b69565b610b44565b90508281526020810184848401111561076357610762610ef6565b5b61076e848285610cb9565b509392505050565b60008135905061078581610fc4565b92915050565b600082601f8301126107a05761079f610ef1565b5b81356107b0848260208601610734565b91505092915050565b6000813590506107c881610fdb565b92915050565b6000602082840312156107e4576107e3610f00565b5b60006107f2848285016107b9565b91505092915050565b6000806000806080858703121561081557610814610f00565b5b6000610823878288016107b9565b9450506020610834878288016107b9565b935050604061084587828801610776565b925050606085013567ffffffffffffffff81111561086657610865610efb565b5b6108728782880161078b565b91505092959194509250565b61088781610c71565b82525050565b61089e61089982610c71565b610da7565b82525050565b6108ad81610c83565b82525050565b60006108be82610b9a565b6108c88185610ba5565b93506108d8818560208601610cc8565b6108e181610f05565b840191505092915050565b60006108f782610b9a565b6109018185610bb6565b9350610911818560208601610cc8565b80840191505092915050565b600061092a601483610ba5565b915061093582610f23565b602082019050919050565b600061094d601b83610ba5565b915061095882610f4c565b602082019050919050565b6000610970602b83610ba5565b915061097b82610f75565b604082019050919050565b61098f81610caf565b82525050565b6109a66109a182610caf565b610dcb565b82525050565b60006109b8828661088d565b6014820191506109c88285610995565b6020820191506109d882846108ec565b9150819050949350505050565b600060208201905081810360008301526109ff81846108b3565b905092915050565b60006020820190508181036000830152610a208161091d565b9050919050565b60006020820190508181036000830152610a4081610940565b9050919050565b60006020820190508181036000830152610a6081610963565b9050919050565b6000602082019050610a7c6000830184610986565b92915050565b6000608082019050610a976000830187610986565b610aa4602083018661087e565b610ab16040830185610986565b8181036060830152610ac381846108b3565b905095945050505050565b600060e082019050610ae3600083018a610986565b610af06020830189610986565b610afd6040830188610986565b610b0a6060830187610986565b610b17608083018661087e565b81810360a0830152610b2981856108b3565b9050610b3860c08301846108a4565b98975050505050505050565b6000610b4e610b5f565b9050610b5a8282610d2d565b919050565b6000604051905090565b600067ffffffffffffffff821115610b8457610b83610ec2565b5b610b8d82610f05565b9050602081019050919050565b600081519050919050565b600082825260208201905092915050565b600081905092915050565b6000610bcc82610caf565b9150610bd783610caf565b9250827fffffffffffffffffffffffffffffffffffffffffffffffffffffffffffffffff03821115610c0c57610c0b610e06565b5b828201905092915050565b6000610c2282610caf565b9150610c2d83610caf565b9250817fffffffffffffffffffffffffffffffffffffffffffffffffffffffffffffffff0483118215151615610c6657610c65610e06565b5b828202905092915050565b6000610c7c82610c8f565b9050919050565b60008115159050919050565b600073ffffffffffffffffffffffffffffffffffffffff82169050919050565b6000819050919050565b82818337600083830152505050565b60005b83811015610ce6578082015181840152602081019050610ccb565b83811115610cf5576000848401525b50505050565b60006002820490506001821680610d1357607f821691505b60208210811415610d2757610d26610e64565b5b50919050565b610d3682610f05565b810181811067ffffffffffffffff82111715610d5557610d54610ec2565b5b80604052505050565b6000610d6982610caf565b91507fffffffffffffffffffffffffffffffffffffffffffffffffffffffffffffffff821415610d9c57610d9b610e06565b5b600182019050919050565b6000610db282610db9565b9050919050565b6000610dc482610f16565b9050919050565b6000819050919050565b6000610de082610caf565b9150610deb83610caf565b925082610dfb57610dfa610e35565b5b828206905092915050565b7f4e487b7100000000000000000000000000000000000000000000000000000000600052601160045260246000fd5b7f4e487b7100000000000000000000000000000000000000000000000000000000600052601260045260246000fd5b7f4e487b7100000000000000000000000000000000000000000000000000000000600052602260045260246000fd5b7f4e487b7100000000000000000000000000000000000000000000000000000000600052603260045260246000fd5b7f4e487b7100000000000000000000000000000000000000000000000000000000600052604160045260246000fd5b600080fd5b600080fd5b600080fd5b600080fd5b6000601f19601f8301169050919050565b60008160601b9050919050565b7f76616c75652063616e6e6f74206265206e756c6c000000000000000000000000600082015250565b7f7468697320686f757365496420616c7265616479206578697374730000000000600082015250565b7f596f7520646f206e6f7420686176652061636365737320746f2064656c65746560008201527f207468697320686f757365000000000000000000000000000000000000000000602082015250565b610fcd81610c71565b8114610fd857600080fd5b50565b610fe481610caf565b8114610fef57600080fd5b5056fea2646970667358221220e49b5291fb0433dfb81036b56a814fd6cddac634f6ca89f30a6d21a04de0bb6164736f6c63430008070033",
					"opcodes": "PUSH1 0x80 PUSH1 0x40 MSTORE PUSH1 0x5 PUSH1 0x0 SSTORE PUSH1 0x0 SLOAD PUSH1 0xA PUSH3 0x1A SWAP2 SWAP1 PUSH3 0x96 JUMP JUMPDEST PUSH1 0x1 SSTORE PUSH1 0x1 PUSH1 0x2 SSTORE PUSH1 0x1 PUSH1 0x3 SSTORE CALLVALUE DUP1 ISZERO PUSH3 0x34 JUMPI PUSH1 0x0 DUP1 REVERT JUMPDEST POP PUSH3 0x219 JUMP JUMPDEST PUSH1 0x0 DUP1 DUP3 SWAP2 POP DUP4 SWAP1 POP JUMPDEST PUSH1 0x1 DUP6 GT ISZERO PUSH3 0x8D JUMPI DUP1 DUP7 DIV DUP2 GT ISZERO PUSH3 0x65 JUMPI PUSH3 0x64 PUSH3 0x1DD JUMP JUMPDEST JUMPDEST PUSH1 0x1 DUP6 AND ISZERO PUSH3 0x75 JUMPI DUP1 DUP3 MUL SWAP2 POP JUMPDEST DUP1 DUP2 MUL SWAP1 POP PUSH3 0x85 DUP6 PUSH3 0x20C JUMP JUMPDEST SWAP5 POP PUSH3 0x45 JUMP JUMPDEST SWAP5 POP SWAP5 SWAP3 POP POP POP JUMP JUMPDEST PUSH1 0x0 PUSH3 0xA3 DUP3 PUSH3 0x1D3 JUMP JUMPDEST SWAP2 POP PUSH3 0xB0 DUP4 PUSH3 0x1D3 JUMP JUMPDEST SWAP3 POP PUSH3 0xDF PUSH32 0xFFFFFFFFFFFFFFFFFFFFFFFFFFFFFFFFFFFFFFFFFFFFFFFFFFFFFFFFFFFFFFFF DUP5 DUP5 PUSH3 0xE7 JUMP JUMPDEST SWAP1 POP SWAP3 SWAP2 POP POP JUMP JUMPDEST PUSH1 0x0 DUP3 PUSH3 0xF9 JUMPI PUSH1 0x1 SWAP1 POP PUSH3 0x1CC JUMP JUMPDEST DUP2 PUSH3 0x109 JUMPI PUSH1 0x0 SWAP1 POP PUSH3 0x1CC JUMP JUMPDEST DUP2 PUSH1 0x1 DUP2 EQ PUSH3 0x122 JUMPI PUSH1 0x2 DUP2 EQ PUSH3 0x12D JUMPI PUSH3 0x163 JUMP JUMPDEST PUSH1 0x1 SWAP2 POP POP PUSH3 0x1CC JUMP JUMPDEST PUSH1 0xFF DUP5 GT ISZERO PUSH3 0x142 JUMPI PUSH3 0x141 PUSH3 0x1DD JUMP JUMPDEST JUMPDEST DUP4 PUSH1 0x2 EXP SWAP2 POP DUP5 DUP3 GT ISZERO PUSH3 0x15C JUMPI PUSH3 0x15B PUSH3 0x1DD JUMP JUMPDEST JUMPDEST POP PUSH3 0x1CC JUMP JUMPDEST POP PUSH1 0x20 DUP4 LT PUSH2 0x133 DUP4 LT AND PUSH1 0x4E DUP5 LT PUSH1 0xB DUP5 LT AND OR ISZERO PUSH3 0x19D JUMPI DUP3 DUP3 EXP SWAP1 POP DUP4 DUP2 GT ISZERO PUSH3 0x197 JUMPI PUSH3 0x196 PUSH3 0x1DD JUMP JUMPDEST JUMPDEST PUSH3 0x1CC JUMP JUMPDEST PUSH3 0x1AC DUP5 DUP5 DUP5 PUSH1 0x1 PUSH3 0x3B JUMP JUMPDEST SWAP3 POP SWAP1 POP DUP2 DUP5 DIV DUP2 GT ISZERO PUSH3 0x1C6 JUMPI PUSH3 0x1C5 PUSH3 0x1DD JUMP JUMPDEST JUMPDEST DUP2 DUP2 MUL SWAP1 POP JUMPDEST SWAP4 SWAP3 POP POP POP JUMP JUMPDEST PUSH1 0x0 DUP2 SWAP1 POP SWAP2 SWAP1 POP JUMP JUMPDEST PUSH32 0x4E487B7100000000000000000000000000000000000000000000000000000000 PUSH1 0x0 MSTORE PUSH1 0x11 PUSH1 0x4 MSTORE PUSH1 0x24 PUSH1 0x0 REVERT JUMPDEST PUSH1 0x0 DUP2 PUSH1 0x1 SHR SWAP1 POP SWAP2 SWAP1 POP JUMP JUMPDEST PUSH2 0x1028 DUP1 PUSH3 0x229 PUSH1 0x0 CODECOPY PUSH1 0x0 RETURN INVALID PUSH1 0x80 PUSH1 0x40 MSTORE CALLVALUE DUP1 ISZERO PUSH2 0x10 JUMPI PUSH1 0x0 DUP1 REVERT JUMPDEST POP PUSH1 0x4 CALLDATASIZE LT PUSH2 0x4C JUMPI PUSH1 0x0 CALLDATALOAD PUSH1 0xE0 SHR DUP1 PUSH4 0x3C3B0B4A EQ PUSH2 0x51 JUMPI DUP1 PUSH4 0x91BFE0D4 EQ PUSH2 0x81 JUMPI DUP1 PUSH4 0xAEDA852F EQ PUSH2 0xB1 JUMPI DUP1 PUSH4 0xC45E1B25 EQ PUSH2 0xE7 JUMPI JUMPDEST PUSH1 0x0 DUP1 REVERT JUMPDEST PUSH2 0x6B PUSH1 0x4 DUP1 CALLDATASIZE SUB DUP2 ADD SWAP1 PUSH2 0x66 SWAP2 SWAP1 PUSH2 0x7CE JUMP JUMPDEST PUSH2 0x117 JUMP JUMPDEST PUSH1 0x40 MLOAD PUSH2 0x78 SWAP2 SWAP1 PUSH2 0x9E5 JUMP JUMPDEST PUSH1 0x40 MLOAD DUP1 SWAP2 SUB SWAP1 RETURN JUMPDEST PUSH2 0x9B PUSH1 0x4 DUP1 CALLDATASIZE SUB DUP2 ADD SWAP1 PUSH2 0x96 SWAP2 SWAP1 PUSH2 0x7FB JUMP JUMPDEST PUSH2 0x229 JUMP JUMPDEST PUSH1 0x40 MLOAD PUSH2 0xA8 SWAP2 SWAP1 PUSH2 0xA67 JUMP JUMPDEST PUSH1 0x40 MLOAD DUP1 SWAP2 SUB SWAP1 RETURN JUMPDEST PUSH2 0xCB PUSH1 0x4 DUP1 CALLDATASIZE SUB DUP2 ADD SWAP1 PUSH2 0xC6 SWAP2 SWAP1 PUSH2 0x7CE JUMP JUMPDEST PUSH2 0x4BD JUMP JUMPDEST PUSH1 0x40 MLOAD PUSH2 0xDE SWAP8 SWAP7 SWAP6 SWAP5 SWAP4 SWAP3 SWAP2 SWAP1 PUSH2 0xACE JUMP JUMPDEST PUSH1 0x40 MLOAD DUP1 SWAP2 SUB SWAP1 RETURN JUMPDEST PUSH2 0x101 PUSH1 0x4 DUP1 CALLDATASIZE SUB DUP2 ADD SWAP1 PUSH2 0xFC SWAP2 SWAP1 PUSH2 0x7CE JUMP JUMPDEST PUSH2 0x5B4 JUMP JUMPDEST PUSH1 0x40 MLOAD PUSH2 0x10E SWAP2 SWAP1 PUSH2 0xA67 JUMP JUMPDEST PUSH1 0x40 MLOAD DUP1 SWAP2 SUB SWAP1 RETURN JUMPDEST PUSH1 0x60 CALLER PUSH20 0xFFFFFFFFFFFFFFFFFFFFFFFFFFFFFFFFFFFFFFFF AND PUSH1 0x6 PUSH1 0x0 DUP5 DUP2 MSTORE PUSH1 0x20 ADD SWAP1 DUP2 MSTORE PUSH1 0x20 ADD PUSH1 0x0 KECCAK256 PUSH1 0x4 ADD PUSH1 0x0 SWAP1 SLOAD SWAP1 PUSH2 0x100 EXP SWAP1 DIV PUSH20 0xFFFFFFFFFFFFFFFFFFFFFFFFFFFFFFFFFFFFFFFF AND PUSH20 0xFFFFFFFFFFFFFFFFFFFFFFFFFFFFFFFFFFFFFFFF AND EQ PUSH2 0x1BD JUMPI PUSH1 0x40 MLOAD PUSH32 0x8C379A000000000000000000000000000000000000000000000000000000000 DUP2 MSTORE PUSH1 0x4 ADD PUSH2 0x1B4 SWAP1 PUSH2 0xA47 JUMP JUMPDEST PUSH1 0x40 MLOAD DUP1 SWAP2 SUB SWAP1 REVERT JUMPDEST PUSH1 0x1 PUSH1 0x6 PUSH1 0x0 DUP5 DUP2 MSTORE PUSH1 0x20 ADD SWAP1 DUP2 MSTORE PUSH1 0x20 ADD PUSH1 0x0 KECCAK256 PUSH1 0x6 ADD PUSH1 0x0 PUSH2 0x100 EXP DUP2 SLOAD DUP2 PUSH1 0xFF MUL NOT AND SWAP1 DUP4 ISZERO ISZERO MUL OR SWAP1 SSTORE POP PUSH1 0x40 MLOAD DUP1 PUSH1 0x40 ADD PUSH1 0x40 MSTORE DUP1 PUSH1 0x15 DUP2 MSTORE PUSH1 0x20 ADD PUSH32 0x64656C69737420776173207375636365737366756C0000000000000000000000 DUP2 MSTORE POP SWAP1 POP SWAP2 SWAP1 POP JUMP JUMPDEST PUSH1 0x0 DUP1 DUP5 DUP7 PUSH2 0x238 SWAP2 SWAP1 PUSH2 0xC17 JUMP JUMPDEST GT PUSH2 0x278 JUMPI PUSH1 0x40 MLOAD PUSH32 0x8C379A000000000000000000000000000000000000000000000000000000000 DUP2 MSTORE PUSH1 0x4 ADD PUSH2 0x26F SWAP1 PUSH2 0xA07 JUMP JUMPDEST PUSH1 0x40 MLOAD DUP1 SWAP2 SUB SWAP1 REVERT JUMPDEST PUSH1 0x0 PUSH2 0x285 DUP5 DUP7 DUP6 PUSH2 0x63C JUMP JUMPDEST SWAP1 POP PUSH1 0x6 PUSH1 0x0 DUP3 DUP2 MSTORE PUSH1 0x20 ADD SWAP1 DUP2 MSTORE PUSH1 0x20 ADD PUSH1 0x0 KECCAK256 PUSH1 0x0 ADD SLOAD DUP2 EQ ISZERO PUSH2 0x2E0 JUMPI PUSH1 0x40 MLOAD PUSH32 0x8C379A000000000000000000000000000000000000000000000000000000000 DUP2 MSTORE PUSH1 0x4 ADD PUSH2 0x2D7 SWAP1 PUSH2 0xA27 JUMP JUMPDEST PUSH1 0x40 MLOAD DUP1 SWAP2 SUB SWAP1 REVERT JUMPDEST PUSH1 0x40 MLOAD DUP1 PUSH1 0xE0 ADD PUSH1 0x40 MSTORE DUP1 DUP3 DUP2 MSTORE PUSH1 0x20 ADD PUSH1 0x3 SLOAD DUP2 MSTORE PUSH1 0x20 ADD DUP8 DUP2 MSTORE PUSH1 0x20 ADD DUP7 DUP2 MSTORE PUSH1 0x20 ADD DUP6 PUSH20 0xFFFFFFFFFFFFFFFFFFFFFFFFFFFFFFFFFFFFFFFF AND DUP2 MSTORE PUSH1 0x20 ADD DUP5 DUP2 MSTORE PUSH1 0x20 ADD PUSH1 0x0 ISZERO ISZERO DUP2 MSTORE POP PUSH1 0x6 PUSH1 0x0 DUP4 DUP2 MSTORE PUSH1 0x20 ADD SWAP1 DUP2 MSTORE PUSH1 0x20 ADD PUSH1 0x0 KECCAK256 PUSH1 0x0 DUP3 ADD MLOAD DUP2 PUSH1 0x0 ADD SSTORE PUSH1 0x20 DUP3 ADD MLOAD DUP2 PUSH1 0x1 ADD SSTORE PUSH1 0x40 DUP3 ADD MLOAD DUP2 PUSH1 0x2 ADD SSTORE PUSH1 0x60 DUP3 ADD MLOAD DUP2 PUSH1 0x3 ADD SSTORE PUSH1 0x80 DUP3 ADD MLOAD DUP2 PUSH1 0x4 ADD PUSH1 0x0 PUSH2 0x100 EXP DUP2 SLOAD DUP2 PUSH20 0xFFFFFFFFFFFFFFFFFFFFFFFFFFFFFFFFFFFFFFFF MUL NOT AND SWAP1 DUP4 PUSH20 0xFFFFFFFFFFFFFFFFFFFFFFFFFFFFFFFFFFFFFFFF AND MUL OR SWAP1 SSTORE POP PUSH1 0xA0 DUP3 ADD MLOAD DUP2 PUSH1 0x5 ADD SWAP1 DUP1 MLOAD SWAP1 PUSH1 0x20 ADD SWAP1 PUSH2 0x3CC SWAP3 SWAP2 SWAP1 PUSH2 0x691 JUMP JUMPDEST POP PUSH1 0xC0 DUP3 ADD MLOAD DUP2 PUSH1 0x6 ADD PUSH1 0x0 PUSH2 0x100 EXP DUP2 SLOAD DUP2 PUSH1 0xFF MUL NOT AND SWAP1 DUP4 ISZERO ISZERO MUL OR SWAP1 SSTORE POP SWAP1 POP POP PUSH1 0x5 PUSH1 0x40 MLOAD DUP1 PUSH1 0x40 ADD PUSH1 0x40 MSTORE DUP1 DUP4 DUP2 MSTORE PUSH1 0x20 ADD DUP9 DUP2 MSTORE POP SWAP1 DUP1 PUSH1 0x1 DUP2 SLOAD ADD DUP1 DUP3 SSTORE DUP1 SWAP2 POP POP PUSH1 0x1 SWAP1 SUB SWAP1 PUSH1 0x0 MSTORE PUSH1 0x20 PUSH1 0x0 KECCAK256 SWAP1 PUSH1 0x2 MUL ADD PUSH1 0x0 SWAP1 SWAP2 SWAP1 SWAP2 SWAP1 SWAP2 POP PUSH1 0x0 DUP3 ADD MLOAD DUP2 PUSH1 0x0 ADD SSTORE PUSH1 0x20 DUP3 ADD MLOAD DUP2 PUSH1 0x1 ADD SSTORE POP POP PUSH2 0x45C PUSH1 0x2 SLOAD TIMESTAMP PUSH2 0x457 SWAP2 SWAP1 PUSH2 0xBC1 JUMP JUMPDEST PUSH2 0x687 JUMP JUMPDEST PUSH1 0x3 PUSH1 0x0 DUP2 SLOAD DUP1 SWAP3 SWAP2 SWAP1 PUSH2 0x46F SWAP1 PUSH2 0xD5E JUMP JUMPDEST SWAP2 SWAP1 POP SSTORE POP PUSH32 0x8F5AFD88EB4BE0AC287D87970052CE9A2B453448408E3C91A695AD7509AB7194 DUP2 DUP6 DUP9 DUP7 PUSH1 0x40 MLOAD PUSH2 0x4A9 SWAP5 SWAP4 SWAP3 SWAP2 SWAP1 PUSH2 0xA82 JUMP JUMPDEST PUSH1 0x40 MLOAD DUP1 SWAP2 SUB SWAP1 LOG1 DUP1 SWAP2 POP POP SWAP5 SWAP4 POP POP POP POP JUMP JUMPDEST PUSH1 0x6 PUSH1 0x20 MSTORE DUP1 PUSH1 0x0 MSTORE PUSH1 0x40 PUSH1 0x0 KECCAK256 PUSH1 0x0 SWAP2 POP SWAP1 POP DUP1 PUSH1 0x0 ADD SLOAD SWAP1 DUP1 PUSH1 0x1 ADD SLOAD SWAP1 DUP1 PUSH1 0x2 ADD SLOAD SWAP1 DUP1 PUSH1 0x3 ADD SLOAD SWAP1 DUP1 PUSH1 0x4 ADD PUSH1 0x0 SWAP1 SLOAD SWAP1 PUSH2 0x100 EXP SWAP1 DIV PUSH20 0xFFFFFFFFFFFFFFFFFFFFFFFFFFFFFFFFFFFFFFFF AND SWAP1 DUP1 PUSH1 0x5 ADD DUP1 SLOAD PUSH2 0x51E SWAP1 PUSH2 0xCFB JUMP JUMPDEST DUP1 PUSH1 0x1F ADD PUSH1 0x20 DUP1 SWAP2 DIV MUL PUSH1 0x20 ADD PUSH1 0x40 MLOAD SWAP1 DUP2 ADD PUSH1 0x40 MSTORE DUP1 SWAP3 SWAP2 SWAP1 DUP2 DUP2 MSTORE PUSH1 0x20 ADD DUP3 DUP1 SLOAD PUSH2 0x54A SWAP1 PUSH2 0xCFB JUMP JUMPDEST DUP1 ISZERO PUSH2 0x597 JUMPI DUP1 PUSH1 0x1F LT PUSH2 0x56C JUMPI PUSH2 0x100 DUP1 DUP4 SLOAD DIV MUL DUP4 MSTORE SWAP2 PUSH1 0x20 ADD SWAP2 PUSH2 0x597 JUMP JUMPDEST DUP3 ADD SWAP2 SWAP1 PUSH1 0x0 MSTORE PUSH1 0x20 PUSH1 0x0 KECCAK256 SWAP1 JUMPDEST DUP2 SLOAD DUP2 MSTORE SWAP1 PUSH1 0x1 ADD SWAP1 PUSH1 0x20 ADD DUP1 DUP4 GT PUSH2 0x57A JUMPI DUP3 SWAP1 SUB PUSH1 0x1F AND DUP3 ADD SWAP2 JUMPDEST POP POP POP POP POP SWAP1 DUP1 PUSH1 0x6 ADD PUSH1 0x0 SWAP1 SLOAD SWAP1 PUSH2 0x100 EXP SWAP1 DIV PUSH1 0xFF AND SWAP1 POP DUP8 JUMP JUMPDEST PUSH1 0x0 DUP1 PUSH1 0x0 PUSH1 0x1 SWAP1 POP JUMPDEST PUSH1 0x5 DUP1 SLOAD SWAP1 POP DUP2 GT PUSH2 0x632 JUMPI DUP4 PUSH1 0x5 DUP3 DUP2 SLOAD DUP2 LT PUSH2 0x5DF JUMPI PUSH2 0x5DE PUSH2 0xE93 JUMP JUMPDEST JUMPDEST SWAP1 PUSH1 0x0 MSTORE PUSH1 0x20 PUSH1 0x0 KECCAK256 SWAP1 PUSH1 0x2 MUL ADD PUSH1 0x1 ADD SLOAD GT PUSH2 0x61F JUMPI PUSH1 0x5 DUP2 DUP2 SLOAD DUP2 LT PUSH2 0x60A JUMPI PUSH2 0x609 PUSH2 0xE93 JUMP JUMPDEST JUMPDEST SWAP1 PUSH1 0x0 MSTORE PUSH1 0x20 PUSH1 0x0 KECCAK256 SWAP1 PUSH1 0x2 MUL ADD PUSH1 0x1 ADD SLOAD SWAP2 POP JUMPDEST DUP1 DUP1 PUSH2 0x62A SWAP1 PUSH2 0xD5E JUMP JUMPDEST SWAP2 POP POP PUSH2 0x5BE JUMP JUMPDEST POP DUP1 SWAP2 POP POP SWAP2 SWAP1 POP JUMP JUMPDEST PUSH1 0x0 DUP1 DUP5 DUP5 DUP5 PUSH1 0x40 MLOAD PUSH1 0x20 ADD PUSH2 0x654 SWAP4 SWAP3 SWAP2 SWAP1 PUSH2 0x9AC JUMP JUMPDEST PUSH1 0x40 MLOAD PUSH1 0x20 DUP2 DUP4 SUB SUB DUP2 MSTORE SWAP1 PUSH1 0x40 MSTORE DUP1 MLOAD SWAP1 PUSH1 0x20 ADD KECCAK256 PUSH1 0x0 SHR SWAP1 POP PUSH1 0x1 SLOAD DUP2 PUSH2 0x67D SWAP2 SWAP1 PUSH2 0xDD5 JUMP JUMPDEST SWAP2 POP POP SWAP4 SWAP3 POP POP POP JUMP JUMPDEST DUP1 PUSH1 0x4 DUP2 SWAP1 SSTORE POP POP JUMP JUMPDEST DUP3 DUP1 SLOAD PUSH2 0x69D SWAP1 PUSH2 0xCFB JUMP JUMPDEST SWAP1 PUSH1 0x0 MSTORE PUSH1 0x20 PUSH1 0x0 KECCAK256 SWAP1 PUSH1 0x1F ADD PUSH1 0x20 SWAP1 DIV DUP2 ADD SWAP3 DUP3 PUSH2 0x6BF JUMPI PUSH1 0x0 DUP6 SSTORE PUSH2 0x706 JUMP JUMPDEST DUP3 PUSH1 0x1F LT PUSH2 0x6D8 JUMPI DUP1 MLOAD PUSH1 0xFF NOT AND DUP4 DUP1 ADD OR DUP6 SSTORE PUSH2 0x706 JUMP JUMPDEST DUP3 DUP1 ADD PUSH1 0x1 ADD DUP6 SSTORE DUP3 ISZERO PUSH2 0x706 JUMPI SWAP2 DUP3 ADD JUMPDEST DUP3 DUP2 GT ISZERO PUSH2 0x705 JUMPI DUP3 MLOAD DUP3 SSTORE SWAP2 PUSH1 0x20 ADD SWAP2 SWAP1 PUSH1 0x1 ADD SWAP1 PUSH2 0x6EA JUMP JUMPDEST JUMPDEST POP SWAP1 POP PUSH2 0x713 SWAP2 SWAP1 PUSH2 0x717 JUMP JUMPDEST POP SWAP1 JUMP JUMPDEST JUMPDEST DUP1 DUP3 GT ISZERO PUSH2 0x730 JUMPI PUSH1 0x0 DUP2 PUSH1 0x0 SWAP1 SSTORE POP PUSH1 0x1 ADD PUSH2 0x718 JUMP JUMPDEST POP SWAP1 JUMP JUMPDEST PUSH1 0x0 PUSH2 0x747 PUSH2 0x742 DUP5 PUSH2 0xB69 JUMP JUMPDEST PUSH2 0xB44 JUMP JUMPDEST SWAP1 POP DUP3 DUP2 MSTORE PUSH1 0x20 DUP2 ADD DUP5 DUP5 DUP5 ADD GT ISZERO PUSH2 0x763 JUMPI PUSH2 0x762 PUSH2 0xEF6 JUMP JUMPDEST JUMPDEST PUSH2 0x76E DUP5 DUP3 DUP6 PUSH2 0xCB9 JUMP JUMPDEST POP SWAP4 SWAP3 POP POP POP JUMP JUMPDEST PUSH1 0x0 DUP2 CALLDATALOAD SWAP1 POP PUSH2 0x785 DUP2 PUSH2 0xFC4 JUMP JUMPDEST SWAP3 SWAP2 POP POP JUMP JUMPDEST PUSH1 0x0 DUP3 PUSH1 0x1F DUP4 ADD SLT PUSH2 0x7A0 JUMPI PUSH2 0x79F PUSH2 0xEF1 JUMP JUMPDEST JUMPDEST DUP2 CALLDATALOAD PUSH2 0x7B0 DUP5 DUP3 PUSH1 0x20 DUP7 ADD PUSH2 0x734 JUMP JUMPDEST SWAP2 POP POP SWAP3 SWAP2 POP POP JUMP JUMPDEST PUSH1 0x0 DUP2 CALLDATALOAD SWAP1 POP PUSH2 0x7C8 DUP2 PUSH2 0xFDB JUMP JUMPDEST SWAP3 SWAP2 POP POP JUMP JUMPDEST PUSH1 0x0 PUSH1 0x20 DUP3 DUP5 SUB SLT ISZERO PUSH2 0x7E4 JUMPI PUSH2 0x7E3 PUSH2 0xF00 JUMP JUMPDEST JUMPDEST PUSH1 0x0 PUSH2 0x7F2 DUP5 DUP3 DUP6 ADD PUSH2 0x7B9 JUMP JUMPDEST SWAP2 POP POP SWAP3 SWAP2 POP POP JUMP JUMPDEST PUSH1 0x0 DUP1 PUSH1 0x0 DUP1 PUSH1 0x80 DUP6 DUP8 SUB SLT ISZERO PUSH2 0x815 JUMPI PUSH2 0x814 PUSH2 0xF00 JUMP JUMPDEST JUMPDEST PUSH1 0x0 PUSH2 0x823 DUP8 DUP3 DUP9 ADD PUSH2 0x7B9 JUMP JUMPDEST SWAP5 POP POP PUSH1 0x20 PUSH2 0x834 DUP8 DUP3 DUP9 ADD PUSH2 0x7B9 JUMP JUMPDEST SWAP4 POP POP PUSH1 0x40 PUSH2 0x845 DUP8 DUP3 DUP9 ADD PUSH2 0x776 JUMP JUMPDEST SWAP3 POP POP PUSH1 0x60 DUP6 ADD CALLDATALOAD PUSH8 0xFFFFFFFFFFFFFFFF DUP2 GT ISZERO PUSH2 0x866 JUMPI PUSH2 0x865 PUSH2 0xEFB JUMP JUMPDEST JUMPDEST PUSH2 0x872 DUP8 DUP3 DUP9 ADD PUSH2 0x78B JUMP JUMPDEST SWAP2 POP POP SWAP3 SWAP6 SWAP2 SWAP5 POP SWAP3 POP JUMP JUMPDEST PUSH2 0x887 DUP2 PUSH2 0xC71 JUMP JUMPDEST DUP3 MSTORE POP POP JUMP JUMPDEST PUSH2 0x89E PUSH2 0x899 DUP3 PUSH2 0xC71 JUMP JUMPDEST PUSH2 0xDA7 JUMP JUMPDEST DUP3 MSTORE POP POP JUMP JUMPDEST PUSH2 0x8AD DUP2 PUSH2 0xC83 JUMP JUMPDEST DUP3 MSTORE POP POP JUMP JUMPDEST PUSH1 0x0 PUSH2 0x8BE DUP3 PUSH2 0xB9A JUMP JUMPDEST PUSH2 0x8C8 DUP2 DUP6 PUSH2 0xBA5 JUMP JUMPDEST SWAP4 POP PUSH2 0x8D8 DUP2 DUP6 PUSH1 0x20 DUP7 ADD PUSH2 0xCC8 JUMP JUMPDEST PUSH2 0x8E1 DUP2 PUSH2 0xF05 JUMP JUMPDEST DUP5 ADD SWAP2 POP POP SWAP3 SWAP2 POP POP JUMP JUMPDEST PUSH1 0x0 PUSH2 0x8F7 DUP3 PUSH2 0xB9A JUMP JUMPDEST PUSH2 0x901 DUP2 DUP6 PUSH2 0xBB6 JUMP JUMPDEST SWAP4 POP PUSH2 0x911 DUP2 DUP6 PUSH1 0x20 DUP7 ADD PUSH2 0xCC8 JUMP JUMPDEST DUP1 DUP5 ADD SWAP2 POP POP SWAP3 SWAP2 POP POP JUMP JUMPDEST PUSH1 0x0 PUSH2 0x92A PUSH1 0x14 DUP4 PUSH2 0xBA5 JUMP JUMPDEST SWAP2 POP PUSH2 0x935 DUP3 PUSH2 0xF23 JUMP JUMPDEST PUSH1 0x20 DUP3 ADD SWAP1 POP SWAP2 SWAP1 POP JUMP JUMPDEST PUSH1 0x0 PUSH2 0x94D PUSH1 0x1B DUP4 PUSH2 0xBA5 JUMP JUMPDEST SWAP2 POP PUSH2 0x958 DUP3 PUSH2 0xF4C JUMP JUMPDEST PUSH1 0x20 DUP3 ADD SWAP1 POP SWAP2 SWAP1 POP JUMP JUMPDEST PUSH1 0x0 PUSH2 0x970 PUSH1 0x2B DUP4 PUSH2 0xBA5 JUMP JUMPDEST SWAP2 POP PUSH2 0x97B DUP3 PUSH2 0xF75 JUMP JUMPDEST PUSH1 0x40 DUP3 ADD SWAP1 POP SWAP2 SWAP1 POP JUMP JUMPDEST PUSH2 0x98F DUP2 PUSH2 0xCAF JUMP JUMPDEST DUP3 MSTORE POP POP JUMP JUMPDEST PUSH2 0x9A6 PUSH2 0x9A1 DUP3 PUSH2 0xCAF JUMP JUMPDEST PUSH2 0xDCB JUMP JUMPDEST DUP3 MSTORE POP POP JUMP JUMPDEST PUSH1 0x0 PUSH2 0x9B8 DUP3 DUP7 PUSH2 0x88D JUMP JUMPDEST PUSH1 0x14 DUP3 ADD SWAP2 POP PUSH2 0x9C8 DUP3 DUP6 PUSH2 0x995 JUMP JUMPDEST PUSH1 0x20 DUP3 ADD SWAP2 POP PUSH2 0x9D8 DUP3 DUP5 PUSH2 0x8EC JUMP JUMPDEST SWAP2 POP DUP2 SWAP1 POP SWAP5 SWAP4 POP POP POP POP JUMP JUMPDEST PUSH1 0x0 PUSH1 0x20 DUP3 ADD SWAP1 POP DUP2 DUP2 SUB PUSH1 0x0 DUP4 ADD MSTORE PUSH2 0x9FF DUP2 DUP5 PUSH2 0x8B3 JUMP JUMPDEST SWAP1 POP SWAP3 SWAP2 POP POP JUMP JUMPDEST PUSH1 0x0 PUSH1 0x20 DUP3 ADD SWAP1 POP DUP2 DUP2 SUB PUSH1 0x0 DUP4 ADD MSTORE PUSH2 0xA20 DUP2 PUSH2 0x91D JUMP JUMPDEST SWAP1 POP SWAP2 SWAP1 POP JUMP JUMPDEST PUSH1 0x0 PUSH1 0x20 DUP3 ADD SWAP1 POP DUP2 DUP2 SUB PUSH1 0x0 DUP4 ADD MSTORE PUSH2 0xA40 DUP2 PUSH2 0x940 JUMP JUMPDEST SWAP1 POP SWAP2 SWAP1 POP JUMP JUMPDEST PUSH1 0x0 PUSH1 0x20 DUP3 ADD SWAP1 POP DUP2 DUP2 SUB PUSH1 0x0 DUP4 ADD MSTORE PUSH2 0xA60 DUP2 PUSH2 0x963 JUMP JUMPDEST SWAP1 POP SWAP2 SWAP1 POP JUMP JUMPDEST PUSH1 0x0 PUSH1 0x20 DUP3 ADD SWAP1 POP PUSH2 0xA7C PUSH1 0x0 DUP4 ADD DUP5 PUSH2 0x986 JUMP JUMPDEST SWAP3 SWAP2 POP POP JUMP JUMPDEST PUSH1 0x0 PUSH1 0x80 DUP3 ADD SWAP1 POP PUSH2 0xA97 PUSH1 0x0 DUP4 ADD DUP8 PUSH2 0x986 JUMP JUMPDEST PUSH2 0xAA4 PUSH1 0x20 DUP4 ADD DUP7 PUSH2 0x87E JUMP JUMPDEST PUSH2 0xAB1 PUSH1 0x40 DUP4 ADD DUP6 PUSH2 0x986 JUMP JUMPDEST DUP2 DUP2 SUB PUSH1 0x60 DUP4 ADD MSTORE PUSH2 0xAC3 DUP2 DUP5 PUSH2 0x8B3 JUMP JUMPDEST SWAP1 POP SWAP6 SWAP5 POP POP POP POP POP JUMP JUMPDEST PUSH1 0x0 PUSH1 0xE0 DUP3 ADD SWAP1 POP PUSH2 0xAE3 PUSH1 0x0 DUP4 ADD DUP11 PUSH2 0x986 JUMP JUMPDEST PUSH2 0xAF0 PUSH1 0x20 DUP4 ADD DUP10 PUSH2 0x986 JUMP JUMPDEST PUSH2 0xAFD PUSH1 0x40 DUP4 ADD DUP9 PUSH2 0x986 JUMP JUMPDEST PUSH2 0xB0A PUSH1 0x60 DUP4 ADD DUP8 PUSH2 0x986 JUMP JUMPDEST PUSH2 0xB17 PUSH1 0x80 DUP4 ADD DUP7 PUSH2 0x87E JUMP JUMPDEST DUP2 DUP2 SUB PUSH1 0xA0 DUP4 ADD MSTORE PUSH2 0xB29 DUP2 DUP6 PUSH2 0x8B3 JUMP JUMPDEST SWAP1 POP PUSH2 0xB38 PUSH1 0xC0 DUP4 ADD DUP5 PUSH2 0x8A4 JUMP JUMPDEST SWAP9 SWAP8 POP POP POP POP POP POP POP POP JUMP JUMPDEST PUSH1 0x0 PUSH2 0xB4E PUSH2 0xB5F JUMP JUMPDEST SWAP1 POP PUSH2 0xB5A DUP3 DUP3 PUSH2 0xD2D JUMP JUMPDEST SWAP2 SWAP1 POP JUMP JUMPDEST PUSH1 0x0 PUSH1 0x40 MLOAD SWAP1 POP SWAP1 JUMP JUMPDEST PUSH1 0x0 PUSH8 0xFFFFFFFFFFFFFFFF DUP3 GT ISZERO PUSH2 0xB84 JUMPI PUSH2 0xB83 PUSH2 0xEC2 JUMP JUMPDEST JUMPDEST PUSH2 0xB8D DUP3 PUSH2 0xF05 JUMP JUMPDEST SWAP1 POP PUSH1 0x20 DUP2 ADD SWAP1 POP SWAP2 SWAP1 POP JUMP JUMPDEST PUSH1 0x0 DUP2 MLOAD SWAP1 POP SWAP2 SWAP1 POP JUMP JUMPDEST PUSH1 0x0 DUP3 DUP3 MSTORE PUSH1 0x20 DUP3 ADD SWAP1 POP SWAP3 SWAP2 POP POP JUMP JUMPDEST PUSH1 0x0 DUP2 SWAP1 POP SWAP3 SWAP2 POP POP JUMP JUMPDEST PUSH1 0x0 PUSH2 0xBCC DUP3 PUSH2 0xCAF JUMP JUMPDEST SWAP2 POP PUSH2 0xBD7 DUP4 PUSH2 0xCAF JUMP JUMPDEST SWAP3 POP DUP3 PUSH32 0xFFFFFFFFFFFFFFFFFFFFFFFFFFFFFFFFFFFFFFFFFFFFFFFFFFFFFFFFFFFFFFFF SUB DUP3 GT ISZERO PUSH2 0xC0C JUMPI PUSH2 0xC0B PUSH2 0xE06 JUMP JUMPDEST JUMPDEST DUP3 DUP3 ADD SWAP1 POP SWAP3 SWAP2 POP POP JUMP JUMPDEST PUSH1 0x0 PUSH2 0xC22 DUP3 PUSH2 0xCAF JUMP JUMPDEST SWAP2 POP PUSH2 0xC2D DUP4 PUSH2 0xCAF JUMP JUMPDEST SWAP3 POP DUP2 PUSH32 0xFFFFFFFFFFFFFFFFFFFFFFFFFFFFFFFFFFFFFFFFFFFFFFFFFFFFFFFFFFFFFFFF DIV DUP4 GT DUP3 ISZERO ISZERO AND ISZERO PUSH2 0xC66 JUMPI PUSH2 0xC65 PUSH2 0xE06 JUMP JUMPDEST JUMPDEST DUP3 DUP3 MUL SWAP1 POP SWAP3 SWAP2 POP POP JUMP JUMPDEST PUSH1 0x0 PUSH2 0xC7C DUP3 PUSH2 0xC8F JUMP JUMPDEST SWAP1 POP SWAP2 SWAP1 POP JUMP JUMPDEST PUSH1 0x0 DUP2 ISZERO ISZERO SWAP1 POP SWAP2 SWAP1 POP JUMP JUMPDEST PUSH1 0x0 PUSH20 0xFFFFFFFFFFFFFFFFFFFFFFFFFFFFFFFFFFFFFFFF DUP3 AND SWAP1 POP SWAP2 SWAP1 POP JUMP JUMPDEST PUSH1 0x0 DUP2 SWAP1 POP SWAP2 SWAP1 POP JUMP JUMPDEST DUP3 DUP2 DUP4 CALLDATACOPY PUSH1 0x0 DUP4 DUP4 ADD MSTORE POP POP POP JUMP JUMPDEST PUSH1 0x0 JUMPDEST DUP4 DUP2 LT ISZERO PUSH2 0xCE6 JUMPI DUP1 DUP3 ADD MLOAD DUP2 DUP5 ADD MSTORE PUSH1 0x20 DUP2 ADD SWAP1 POP PUSH2 0xCCB JUMP JUMPDEST DUP4 DUP2 GT ISZERO PUSH2 0xCF5 JUMPI PUSH1 0x0 DUP5 DUP5 ADD MSTORE JUMPDEST POP POP POP POP JUMP JUMPDEST PUSH1 0x0 PUSH1 0x2 DUP3 DIV SWAP1 POP PUSH1 0x1 DUP3 AND DUP1 PUSH2 0xD13 JUMPI PUSH1 0x7F DUP3 AND SWAP2 POP JUMPDEST PUSH1 0x20 DUP3 LT DUP2 EQ ISZERO PUSH2 0xD27 JUMPI PUSH2 0xD26 PUSH2 0xE64 JUMP JUMPDEST JUMPDEST POP SWAP2 SWAP1 POP JUMP JUMPDEST PUSH2 0xD36 DUP3 PUSH2 0xF05 JUMP JUMPDEST DUP2 ADD DUP2 DUP2 LT PUSH8 0xFFFFFFFFFFFFFFFF DUP3 GT OR ISZERO PUSH2 0xD55 JUMPI PUSH2 0xD54 PUSH2 0xEC2 JUMP JUMPDEST JUMPDEST DUP1 PUSH1 0x40 MSTORE POP POP POP JUMP JUMPDEST PUSH1 0x0 PUSH2 0xD69 DUP3 PUSH2 0xCAF JUMP JUMPDEST SWAP2 POP PUSH32 0xFFFFFFFFFFFFFFFFFFFFFFFFFFFFFFFFFFFFFFFFFFFFFFFFFFFFFFFFFFFFFFFF DUP3 EQ ISZERO PUSH2 0xD9C JUMPI PUSH2 0xD9B PUSH2 0xE06 JUMP JUMPDEST JUMPDEST PUSH1 0x1 DUP3 ADD SWAP1 POP SWAP2 SWAP1 POP JUMP JUMPDEST PUSH1 0x0 PUSH2 0xDB2 DUP3 PUSH2 0xDB9 JUMP JUMPDEST SWAP1 POP SWAP2 SWAP1 POP JUMP JUMPDEST PUSH1 0x0 PUSH2 0xDC4 DUP3 PUSH2 0xF16 JUMP JUMPDEST SWAP1 POP SWAP2 SWAP1 POP JUMP JUMPDEST PUSH1 0x0 DUP2 SWAP1 POP SWAP2 SWAP1 POP JUMP JUMPDEST PUSH1 0x0 PUSH2 0xDE0 DUP3 PUSH2 0xCAF JUMP JUMPDEST SWAP2 POP PUSH2 0xDEB DUP4 PUSH2 0xCAF JUMP JUMPDEST SWAP3 POP DUP3 PUSH2 0xDFB JUMPI PUSH2 0xDFA PUSH2 0xE35 JUMP JUMPDEST JUMPDEST DUP3 DUP3 MOD SWAP1 POP SWAP3 SWAP2 POP POP JUMP JUMPDEST PUSH32 0x4E487B7100000000000000000000000000000000000000000000000000000000 PUSH1 0x0 MSTORE PUSH1 0x11 PUSH1 0x4 MSTORE PUSH1 0x24 PUSH1 0x0 REVERT JUMPDEST PUSH32 0x4E487B7100000000000000000000000000000000000000000000000000000000 PUSH1 0x0 MSTORE PUSH1 0x12 PUSH1 0x4 MSTORE PUSH1 0x24 PUSH1 0x0 REVERT JUMPDEST PUSH32 0x4E487B7100000000000000000000000000000000000000000000000000000000 PUSH1 0x0 MSTORE PUSH1 0x22 PUSH1 0x4 MSTORE PUSH1 0x24 PUSH1 0x0 REVERT JUMPDEST PUSH32 0x4E487B7100000000000000000000000000000000000000000000000000000000 PUSH1 0x0 MSTORE PUSH1 0x32 PUSH1 0x4 MSTORE PUSH1 0x24 PUSH1 0x0 REVERT JUMPDEST PUSH32 0x4E487B7100000000000000000000000000000000000000000000000000000000 PUSH1 0x0 MSTORE PUSH1 0x41 PUSH1 0x4 MSTORE PUSH1 0x24 PUSH1 0x0 REVERT JUMPDEST PUSH1 0x0 DUP1 REVERT JUMPDEST PUSH1 0x0 DUP1 REVERT JUMPDEST PUSH1 0x0 DUP1 REVERT JUMPDEST PUSH1 0x0 DUP1 REVERT JUMPDEST PUSH1 0x0 PUSH1 0x1F NOT PUSH1 0x1F DUP4 ADD AND SWAP1 POP SWAP2 SWAP1 POP JUMP JUMPDEST PUSH1 0x0 DUP2 PUSH1 0x60 SHL SWAP1 POP SWAP2 SWAP1 POP JUMP JUMPDEST PUSH32 0x76616C75652063616E6E6F74206265206E756C6C000000000000000000000000 PUSH1 0x0 DUP3 ADD MSTORE POP JUMP JUMPDEST PUSH32 0x7468697320686F757365496420616C7265616479206578697374730000000000 PUSH1 0x0 DUP3 ADD MSTORE POP JUMP JUMPDEST PUSH32 0x596F7520646F206E6F7420686176652061636365737320746F2064656C657465 PUSH1 0x0 DUP3 ADD MSTORE PUSH32 0x207468697320686F757365000000000000000000000000000000000000000000 PUSH1 0x20 DUP3 ADD MSTORE POP JUMP JUMPDEST PUSH2 0xFCD DUP2 PUSH2 0xC71 JUMP JUMPDEST DUP2 EQ PUSH2 0xFD8 JUMPI PUSH1 0x0 DUP1 REVERT JUMPDEST POP JUMP JUMPDEST PUSH2 0xFE4 DUP2 PUSH2 0xCAF JUMP JUMPDEST DUP2 EQ PUSH2 0xFEF JUMPI PUSH1 0x0 DUP1 REVERT JUMPDEST POP JUMP INVALID LOG2 PUSH5 0x6970667358 0x22 SLT KECCAK256 0xE4 SWAP12 MSTORE SWAP2 0xFB DIV CALLER 0xDF 0xB8 LT CALLDATASIZE 0xB5 PUSH11 0x814FD6CDDAC634F6CA89F3 EXP PUSH14 0x21A04DE0BB6164736F6C63430008 SMOD STOP CALLER "
				},
				"gasEstimates": {
					"creation": {
						"codeDepositCost": "827200",
						"executionCost": "infinite",
						"totalCost": "infinite"
					},
					"external": {
						"delistHouse(uint256)": "infinite",
						"getCheapHouseIds(uint256)": "infinite",
						"houses(uint256)": "infinite",
						"listHouse(uint256,uint256,address,string)": "infinite"
					},
					"internal": {
						"_generateHouseId(address,uint256,string memory)": "infinite",
						"_ownerCooldown(uint256)": "22125"
					}
				},
				"methodIdentifiers": {
					"delistHouse(uint256)": "3c3b0b4a",
					"getCheapHouseIds(uint256)": "c45e1b25",
					"houses(uint256)": "aeda852f",
					"listHouse(uint256,uint256,address,string)": "91bfe0d4"
				}
			},
			"storageLayout": {
				"storage": [
					{
						"astId": 4,
						"contract": "contract/HouseRegistry.sol:HouseRegistry",
						"label": "digits",
						"offset": 0,
						"slot": "0",
						"type": "t_uint256"
					},
					{
						"astId": 9,
						"contract": "contract/HouseRegistry.sol:HouseRegistry",
						"label": "modulus",
						"offset": 0,
						"slot": "1",
						"type": "t_uint256"
					},
					{
						"astId": 12,
						"contract": "contract/HouseRegistry.sol:HouseRegistry",
						"label": "cooldownTime",
						"offset": 0,
						"slot": "2",
						"type": "t_uint256"
					},
					{
						"astId": 15,
						"contract": "contract/HouseRegistry.sol:HouseRegistry",
						"label": "countOfHouses",
						"offset": 0,
						"slot": "3",
						"type": "t_uint256"
					},
					{
						"astId": 17,
						"contract": "contract/HouseRegistry.sol:HouseRegistry",
						"label": "ownerAddCooldown",
						"offset": 0,
						"slot": "4",
						"type": "t_uint256"
					},
					{
						"astId": 63,
						"contract": "contract/HouseRegistry.sol:HouseRegistry",
						"label": "houseIndex",
						"offset": 0,
						"slot": "5",
						"type": "t_array(t_struct(HouseIndexInfo)37_storage)dyn_storage"
					},
					{
						"astId": 68,
						"contract": "contract/HouseRegistry.sol:HouseRegistry",
						"label": "houses",
						"offset": 0,
						"slot": "6",
						"type": "t_mapping(t_uint256,t_struct(House)32_storage)"
					}
				],
				"types": {
					"t_address": {
						"encoding": "inplace",
						"label": "address",
						"numberOfBytes": "20"
					},
					"t_array(t_struct(HouseIndexInfo)37_storage)dyn_storage": {
						"base": "t_struct(HouseIndexInfo)37_storage",
						"encoding": "dynamic_array",
						"label": "struct HouseRegistry.HouseIndexInfo[]",
						"numberOfBytes": "32"
					},
					"t_bool": {
						"encoding": "inplace",
						"label": "bool",
						"numberOfBytes": "1"
					},
					"t_mapping(t_uint256,t_struct(House)32_storage)": {
						"encoding": "mapping",
						"key": "t_uint256",
						"label": "mapping(uint256 => struct HouseRegistry.House)",
						"numberOfBytes": "32",
						"value": "t_struct(House)32_storage"
					},
					"t_string_storage": {
						"encoding": "bytes",
						"label": "string",
						"numberOfBytes": "32"
					},
					"t_struct(House)32_storage": {
						"encoding": "inplace",
						"label": "struct HouseRegistry.House",
						"members": [
							{
								"astId": 19,
								"contract": "contract/HouseRegistry.sol:HouseRegistry",
								"label": "id",
								"offset": 0,
								"slot": "0",
								"type": "t_uint256"
							},
							{
								"astId": 21,
								"contract": "contract/HouseRegistry.sol:HouseRegistry",
								"label": "serialNumber",
								"offset": 0,
								"slot": "1",
								"type": "t_uint256"
							},
							{
								"astId": 23,
								"contract": "contract/HouseRegistry.sol:HouseRegistry",
								"label": "price",
								"offset": 0,
								"slot": "2",
								"type": "t_uint256"
							},
							{
								"astId": 25,
								"contract": "contract/HouseRegistry.sol:HouseRegistry",
								"label": "area",
								"offset": 0,
								"slot": "3",
								"type": "t_uint256"
							},
							{
								"astId": 27,
								"contract": "contract/HouseRegistry.sol:HouseRegistry",
								"label": "sellerAddress",
								"offset": 0,
								"slot": "4",
								"type": "t_address"
							},
							{
								"astId": 29,
								"contract": "contract/HouseRegistry.sol:HouseRegistry",
								"label": "houseAddress",
								"offset": 0,
								"slot": "5",
								"type": "t_string_storage"
							},
							{
								"astId": 31,
								"contract": "contract/HouseRegistry.sol:HouseRegistry",
								"label": "isdelistedHouse",
								"offset": 0,
								"slot": "6",
								"type": "t_bool"
							}
						],
						"numberOfBytes": "224"
					},
					"t_struct(HouseIndexInfo)37_storage": {
						"encoding": "inplace",
						"label": "struct HouseRegistry.HouseIndexInfo",
						"members": [
							{
								"astId": 34,
								"contract": "contract/HouseRegistry.sol:HouseRegistry",
								"label": "id",
								"offset": 0,
								"slot": "0",
								"type": "t_uint256"
							},
							{
								"astId": 36,
								"contract": "contract/HouseRegistry.sol:HouseRegistry",
								"label": "price",
								"offset": 0,
								"slot": "1",
								"type": "t_uint256"
							}
						],
						"numberOfBytes": "64"
					},
					"t_uint256": {
						"encoding": "inplace",
						"label": "uint256",
						"numberOfBytes": "32"
					}
				}
			},
			"userdoc": {
				"kind": "user",
				"methods": {},
				"version": 1
			}
		}
	}
}