{
	"contract/HouseRegistry.sol": {
		"HouseRegistry": {
			"abi": [
				{
					"anonymous": false,
					"inputs": [
						{
							"indexed": false,
							"internalType": "uint256",
							"name": "houseId",
							"type": "uint256"
						},
						{
							"indexed": false,
							"internalType": "address",
							"name": "_sellerAddress",
							"type": "address"
						},
						{
							"indexed": false,
							"internalType": "uint256",
							"name": "price",
							"type": "uint256"
						},
						{
							"indexed": false,
							"internalType": "string",
							"name": "houseAddress",
							"type": "string"
						}
					],
					"name": "AddNewHouse",
					"type": "event"
				},
				{
					"anonymous": false,
					"inputs": [
						{
							"indexed": true,
							"internalType": "address",
							"name": "previousOwner",
							"type": "address"
						},
						{
							"indexed": true,
							"internalType": "address",
							"name": "newOwner",
							"type": "address"
						}
					],
					"name": "OwnershipTransferred",
					"type": "event"
				},
				{
					"inputs": [
						{
							"internalType": "uint256",
							"name": "houseId",
							"type": "uint256"
						}
					],
					"name": "delistHouse",
					"outputs": [
						{
							"internalType": "string",
							"name": "",
							"type": "string"
						}
					],
					"stateMutability": "nonpayable",
					"type": "function"
				},
				{
					"inputs": [
						{
							"internalType": "uint256",
							"name": "_cost",
							"type": "uint256"
						}
					],
					"name": "getCheapHouseIds",
					"outputs": [
						{
							"internalType": "uint256[]",
							"name": "",
							"type": "uint256[]"
						}
					],
					"stateMutability": "view",
					"type": "function"
				},
				{
					"inputs": [
						{
							"internalType": "uint256",
							"name": "",
							"type": "uint256"
						}
					],
					"name": "houses",
					"outputs": [
						{
							"internalType": "uint256",
							"name": "id",
							"type": "uint256"
						},
						{
							"internalType": "uint256",
							"name": "price",
							"type": "uint256"
						},
						{
							"internalType": "uint256",
							"name": "area",
							"type": "uint256"
						},
						{
							"internalType": "address",
							"name": "sellerAddress",
							"type": "address"
						},
						{
							"internalType": "string",
							"name": "houseAddress",
							"type": "string"
						},
						{
							"internalType": "bool",
							"name": "isdelistedHouse",
							"type": "bool"
						}
					],
					"stateMutability": "view",
					"type": "function"
				},
				{
					"inputs": [
						{
							"internalType": "uint256",
							"name": "_price",
							"type": "uint256"
						},
						{
							"internalType": "uint256",
							"name": "_area",
							"type": "uint256"
						},
						{
							"internalType": "address",
							"name": "_sellerAddress",
							"type": "address"
						},
						{
							"internalType": "string",
							"name": "_houseAddress",
							"type": "string"
						}
					],
					"name": "listHouse",
					"outputs": [
						{
							"internalType": "uint256",
							"name": "",
							"type": "uint256"
						}
					],
					"stateMutability": "nonpayable",
					"type": "function"
				},
				{
					"inputs": [],
					"name": "owner",
					"outputs": [
						{
							"internalType": "address",
							"name": "",
							"type": "address"
						}
					],
					"stateMutability": "view",
					"type": "function"
				},
				{
					"inputs": [],
					"name": "renounceOwnership",
					"outputs": [],
					"stateMutability": "nonpayable",
					"type": "function"
				},
				{
					"inputs": [
						{
							"internalType": "address",
							"name": "newOwner",
							"type": "address"
						}
					],
					"name": "transferOwnership",
					"outputs": [],
					"stateMutability": "nonpayable",
					"type": "function"
				}
			],
			"devdoc": {
				"kind": "dev",
				"methods": {
					"owner()": {
						"details": "Returns the address of the current owner."
					},
					"renounceOwnership()": {
						"details": "Leaves the contract without owner. It will not be possible to call `onlyOwner` functions anymore. Can only be called by the current owner. NOTE: Renouncing ownership will leave the contract without an owner, thereby removing any functionality that is only available to the owner."
					},
					"transferOwnership(address)": {
						"details": "Transfers ownership of the contract to a new account (`newOwner`). Can only be called by the current owner."
					}
				},
				"version": 1
			},
			"evm": {
				"assembly": "    /* \"contract/HouseRegistry.sol\":87:1801  contract HouseRegistry is Ownable {... */\n  mstore(0x40, 0x80)\n    /* \"contract/HouseRegistry.sol\":142:143  5 */\n  0x05\n    /* \"contract/HouseRegistry.sol\":128:143  uint digits = 5 */\n  0x02\n  sstore\n    /* \"contract/HouseRegistry.sol\":170:176  digits */\n  sload(0x02)\n    /* \"contract/HouseRegistry.sol\":164:166  10 */\n  0x0a\n    /* \"contract/HouseRegistry.sol\":164:176  10 ** digits */\n  tag_1\n  swap2\n  swap1\n  tag_2\n  jump\t// in\ntag_1:\n    /* \"contract/HouseRegistry.sol\":149:176  uint modulus = 10 ** digits */\n  0x03\n  sstore\n    /* \"contract/HouseRegistry.sol\":202:208  1 days */\n  0x015180\n    /* \"contract/HouseRegistry.sol\":182:208  uint cooldownTime = 1 days */\n  0x04\n  sstore\n    /* \"contract/HouseRegistry.sol\":87:1801  contract HouseRegistry is Ownable {... */\n  callvalue\n  dup1\n  iszero\n  tag_3\n  jumpi\n  0x00\n  dup1\n  revert\ntag_3:\n  pop\n    /* \"contract/Ownable.sol\":984:1016  _transferOwnership(_msgSender()) */\n  tag_6\n    /* \"contract/Ownable.sol\":1003:1015  _msgSender() */\n  tag_7\n    /* \"contract/Ownable.sol\":1003:1013  _msgSender */\n  shl(0x20, tag_8)\n    /* \"contract/Ownable.sol\":1003:1015  _msgSender() */\n  0x20\n  shr\n  jump\t// in\ntag_7:\n    /* \"contract/Ownable.sol\":984:1002  _transferOwnership */\n  shl(0x20, tag_9)\n    /* \"contract/Ownable.sol\":984:1016  _transferOwnership(_msgSender()) */\n  0x20\n  shr\n  jump\t// in\ntag_6:\n    /* \"contract/HouseRegistry.sol\":87:1801  contract HouseRegistry is Ownable {... */\n  jump(tag_10)\n    /* \"contract/utils/Context.sol\":656:754  function _msgSender() internal view virtual returns (address) {\r... */\ntag_8:\n    /* \"contract/utils/Context.sol\":709:716  address */\n  0x00\n    /* \"contract/utils/Context.sol\":736:746  msg.sender */\n  caller\n    /* \"contract/utils/Context.sol\":729:746  return msg.sender */\n  swap1\n  pop\n    /* \"contract/utils/Context.sol\":656:754  function _msgSender() internal view virtual returns (address) {\r... */\n  swap1\n  jump\t// out\n    /* \"contract/Ownable.sol\":2520:2711  function _transferOwnership(address newOwner) internal virtual {\r... */\ntag_9:\n    /* \"contract/Ownable.sol\":2594:2610  address oldOwner */\n  0x00\n    /* \"contract/Ownable.sol\":2613:2619  _owner */\n  dup1\n  0x00\n  swap1\n  sload\n  swap1\n  0x0100\n  exp\n  swap1\n  div\n  0xffffffffffffffffffffffffffffffffffffffff\n  and\n    /* \"contract/Ownable.sol\":2594:2619  address oldOwner = _owner */\n  swap1\n  pop\n    /* \"contract/Ownable.sol\":2639:2647  newOwner */\n  dup2\n    /* \"contract/Ownable.sol\":2630:2636  _owner */\n  0x00\n  dup1\n    /* \"contract/Ownable.sol\":2630:2647  _owner = newOwner */\n  0x0100\n  exp\n  dup2\n  sload\n  dup2\n  0xffffffffffffffffffffffffffffffffffffffff\n  mul\n  not\n  and\n  swap1\n  dup4\n  0xffffffffffffffffffffffffffffffffffffffff\n  and\n  mul\n  or\n  swap1\n  sstore\n  pop\n    /* \"contract/Ownable.sol\":2694:2702  newOwner */\n  dup2\n    /* \"contract/Ownable.sol\":2663:2703  OwnershipTransferred(oldOwner, newOwner) */\n  0xffffffffffffffffffffffffffffffffffffffff\n  and\n    /* \"contract/Ownable.sol\":2684:2692  oldOwner */\n  dup2\n    /* \"contract/Ownable.sol\":2663:2703  OwnershipTransferred(oldOwner, newOwner) */\n  0xffffffffffffffffffffffffffffffffffffffff\n  and\n  0x8be0079c531659141344cd1fd0a4f28419497f9722a3daafe3b4186f6b6457e0\n  mload(0x40)\n  mload(0x40)\n  dup1\n  swap2\n  sub\n  swap1\n  log3\n    /* \"contract/Ownable.sol\":2583:2711  {\r... */\n  pop\n    /* \"contract/Ownable.sol\":2520:2711  function _transferOwnership(address newOwner) internal virtual {\r... */\n  pop\n  jump\t// out\n    /* \"#utility.yul\":7:855   */\ntag_14:\n    /* \"#utility.yul\":68:73   */\n  0x00\n    /* \"#utility.yul\":75:79   */\n  dup1\n    /* \"#utility.yul\":99:105   */\n  dup3\n    /* \"#utility.yul\":90:105   */\n  swap2\n  pop\n    /* \"#utility.yul\":123:128   */\n  dup4\n    /* \"#utility.yul\":114:128   */\n  swap1\n  pop\n    /* \"#utility.yul\":137:849   */\ntag_16:\n    /* \"#utility.yul\":158:159   */\n  0x01\n    /* \"#utility.yul\":148:156   */\n  dup6\n    /* \"#utility.yul\":145:160   */\n  gt\n    /* \"#utility.yul\":137:849   */\n  iszero\n  tag_18\n  jumpi\n    /* \"#utility.yul\":253:257   */\n  dup1\n    /* \"#utility.yul\":248:251   */\n  dup7\n    /* \"#utility.yul\":244:258   */\n  div\n    /* \"#utility.yul\":238:242   */\n  dup2\n    /* \"#utility.yul\":235:259   */\n  gt\n    /* \"#utility.yul\":232:282   */\n  iszero\n  tag_19\n  jumpi\n    /* \"#utility.yul\":262:280   */\n  tag_20\n  tag_21\n  jump\t// in\ntag_20:\n    /* \"#utility.yul\":232:282   */\ntag_19:\n    /* \"#utility.yul\":312:313   */\n  0x01\n    /* \"#utility.yul\":302:310   */\n  dup6\n    /* \"#utility.yul\":298:314   */\n  and\n    /* \"#utility.yul\":295:746   */\n  iszero\n  tag_22\n  jumpi\n    /* \"#utility.yul\":727:731   */\n  dup1\n    /* \"#utility.yul\":720:725   */\n  dup3\n    /* \"#utility.yul\":716:732   */\n  mul\n    /* \"#utility.yul\":707:732   */\n  swap2\n  pop\n    /* \"#utility.yul\":295:746   */\ntag_22:\n    /* \"#utility.yul\":777:781   */\n  dup1\n    /* \"#utility.yul\":771:775   */\n  dup2\n    /* \"#utility.yul\":767:782   */\n  mul\n    /* \"#utility.yul\":759:782   */\n  swap1\n  pop\n    /* \"#utility.yul\":807:839   */\n  tag_23\n    /* \"#utility.yul\":830:838   */\n  dup6\n    /* \"#utility.yul\":807:839   */\n  tag_24\n  jump\t// in\ntag_23:\n    /* \"#utility.yul\":795:839   */\n  swap5\n  pop\n    /* \"#utility.yul\":137:849   */\n  jump(tag_16)\ntag_18:\n    /* \"#utility.yul\":7:855   */\n  swap5\n  pop\n  swap5\n  swap3\n  pop\n  pop\n  pop\n  jump\t// out\n    /* \"#utility.yul\":861:1146   */\ntag_2:\n    /* \"#utility.yul\":921:926   */\n  0x00\n    /* \"#utility.yul\":945:968   */\n  tag_26\n    /* \"#utility.yul\":963:967   */\n  dup3\n    /* \"#utility.yul\":945:968   */\n  tag_27\n  jump\t// in\ntag_26:\n    /* \"#utility.yul\":937:968   */\n  swap2\n  pop\n    /* \"#utility.yul\":989:1016   */\n  tag_28\n    /* \"#utility.yul\":1007:1015   */\n  dup4\n    /* \"#utility.yul\":989:1016   */\n  tag_27\n  jump\t// in\ntag_28:\n    /* \"#utility.yul\":977:1016   */\n  swap3\n  pop\n    /* \"#utility.yul\":1035:1139   */\n  tag_29\n    /* \"#utility.yul\":1072:1138   */\n  0xffffffffffffffffffffffffffffffffffffffffffffffffffffffffffffffff\n    /* \"#utility.yul\":1062:1070   */\n  dup5\n    /* \"#utility.yul\":1056:1060   */\n  dup5\n    /* \"#utility.yul\":1035:1139   */\n  tag_30\n  jump\t// in\ntag_29:\n    /* \"#utility.yul\":1026:1139   */\n  swap1\n  pop\n    /* \"#utility.yul\":861:1146   */\n  swap3\n  swap2\n  pop\n  pop\n  jump\t// out\n    /* \"#utility.yul\":1152:2225   */\ntag_30:\n    /* \"#utility.yul\":1206:1211   */\n  0x00\n    /* \"#utility.yul\":1397:1405   */\n  dup3\n    /* \"#utility.yul\":1387:1427   */\n  tag_32\n  jumpi\n    /* \"#utility.yul\":1418:1419   */\n  0x01\n    /* \"#utility.yul\":1409:1419   */\n  swap1\n  pop\n    /* \"#utility.yul\":1420:1425   */\n  jump(tag_31)\n    /* \"#utility.yul\":1387:1427   */\ntag_32:\n    /* \"#utility.yul\":1446:1450   */\n  dup2\n    /* \"#utility.yul\":1436:1472   */\n  tag_33\n  jumpi\n    /* \"#utility.yul\":1463:1464   */\n  0x00\n    /* \"#utility.yul\":1454:1464   */\n  swap1\n  pop\n    /* \"#utility.yul\":1465:1470   */\n  jump(tag_31)\n    /* \"#utility.yul\":1436:1472   */\ntag_33:\n    /* \"#utility.yul\":1532:1536   */\n  dup2\n    /* \"#utility.yul\":1580:1581   */\n  0x01\n    /* \"#utility.yul\":1575:1602   */\n  dup2\n  eq\n  tag_35\n  jumpi\n    /* \"#utility.yul\":1616:1617   */\n  0x02\n    /* \"#utility.yul\":1611:1802   */\n  dup2\n  eq\n  tag_36\n  jumpi\n    /* \"#utility.yul\":1525:1802   */\n  jump(tag_34)\n    /* \"#utility.yul\":1575:1602   */\ntag_35:\n    /* \"#utility.yul\":1593:1594   */\n  0x01\n    /* \"#utility.yul\":1584:1594   */\n  swap2\n  pop\n    /* \"#utility.yul\":1595:1600   */\n  pop\n  jump(tag_31)\n    /* \"#utility.yul\":1611:1802   */\ntag_36:\n    /* \"#utility.yul\":1656:1659   */\n  0xff\n    /* \"#utility.yul\":1646:1654   */\n  dup5\n    /* \"#utility.yul\":1643:1660   */\n  gt\n    /* \"#utility.yul\":1640:1683   */\n  iszero\n  tag_37\n  jumpi\n    /* \"#utility.yul\":1663:1681   */\n  tag_38\n  tag_21\n  jump\t// in\ntag_38:\n    /* \"#utility.yul\":1640:1683   */\ntag_37:\n    /* \"#utility.yul\":1712:1720   */\n  dup4\n    /* \"#utility.yul\":1709:1710   */\n  0x02\n    /* \"#utility.yul\":1705:1721   */\n  exp\n    /* \"#utility.yul\":1696:1721   */\n  swap2\n  pop\n    /* \"#utility.yul\":1747:1750   */\n  dup5\n    /* \"#utility.yul\":1740:1745   */\n  dup3\n    /* \"#utility.yul\":1737:1751   */\n  gt\n    /* \"#utility.yul\":1734:1774   */\n  iszero\n  tag_39\n  jumpi\n    /* \"#utility.yul\":1754:1772   */\n  tag_40\n  tag_21\n  jump\t// in\ntag_40:\n    /* \"#utility.yul\":1734:1774   */\ntag_39:\n    /* \"#utility.yul\":1787:1792   */\n  pop\n  jump(tag_31)\n    /* \"#utility.yul\":1525:1802   */\ntag_34:\n  pop\n    /* \"#utility.yul\":1911:1913   */\n  0x20\n    /* \"#utility.yul\":1901:1909   */\n  dup4\n    /* \"#utility.yul\":1898:1914   */\n  lt\n    /* \"#utility.yul\":1892:1895   */\n  0x0133\n    /* \"#utility.yul\":1886:1890   */\n  dup4\n    /* \"#utility.yul\":1883:1896   */\n  lt\n    /* \"#utility.yul\":1879:1915   */\n  and\n    /* \"#utility.yul\":1861:1863   */\n  0x4e\n    /* \"#utility.yul\":1851:1859   */\n  dup5\n    /* \"#utility.yul\":1848:1864   */\n  lt\n    /* \"#utility.yul\":1843:1845   */\n  0x0b\n    /* \"#utility.yul\":1837:1841   */\n  dup5\n    /* \"#utility.yul\":1834:1846   */\n  lt\n    /* \"#utility.yul\":1830:1865   */\n  and\n    /* \"#utility.yul\":1814:1925   */\n  or\n    /* \"#utility.yul\":1811:2057   */\n  iszero\n  tag_41\n  jumpi\n    /* \"#utility.yul\":1967:1975   */\n  dup3\n    /* \"#utility.yul\":1961:1965   */\n  dup3\n    /* \"#utility.yul\":1957:1976   */\n  exp\n    /* \"#utility.yul\":1948:1976   */\n  swap1\n  pop\n    /* \"#utility.yul\":2002:2005   */\n  dup4\n    /* \"#utility.yul\":1995:2000   */\n  dup2\n    /* \"#utility.yul\":1992:2006   */\n  gt\n    /* \"#utility.yul\":1989:2029   */\n  iszero\n  tag_42\n  jumpi\n    /* \"#utility.yul\":2009:2027   */\n  tag_43\n  tag_21\n  jump\t// in\ntag_43:\n    /* \"#utility.yul\":1989:2029   */\ntag_42:\n    /* \"#utility.yul\":2042:2047   */\n  jump(tag_31)\n    /* \"#utility.yul\":1811:2057   */\ntag_41:\n    /* \"#utility.yul\":2082:2124   */\n  tag_44\n    /* \"#utility.yul\":2120:2123   */\n  dup5\n    /* \"#utility.yul\":2110:2118   */\n  dup5\n    /* \"#utility.yul\":2104:2108   */\n  dup5\n    /* \"#utility.yul\":2101:2102   */\n  0x01\n    /* \"#utility.yul\":2082:2124   */\n  tag_14\n  jump\t// in\ntag_44:\n    /* \"#utility.yul\":2067:2124   */\n  swap3\n  pop\n  swap1\n  pop\n    /* \"#utility.yul\":2156:2160   */\n  dup2\n    /* \"#utility.yul\":2151:2154   */\n  dup5\n    /* \"#utility.yul\":2147:2161   */\n  div\n    /* \"#utility.yul\":2140:2145   */\n  dup2\n    /* \"#utility.yul\":2137:2162   */\n  gt\n    /* \"#utility.yul\":2134:2185   */\n  iszero\n  tag_45\n  jumpi\n    /* \"#utility.yul\":2165:2183   */\n  tag_46\n  tag_21\n  jump\t// in\ntag_46:\n    /* \"#utility.yul\":2134:2185   */\ntag_45:\n    /* \"#utility.yul\":2214:2218   */\n  dup2\n    /* \"#utility.yul\":2207:2212   */\n  dup2\n    /* \"#utility.yul\":2203:2219   */\n  mul\n    /* \"#utility.yul\":2194:2219   */\n  swap1\n  pop\n    /* \"#utility.yul\":1152:2225   */\ntag_31:\n  swap4\n  swap3\n  pop\n  pop\n  pop\n  jump\t// out\n    /* \"#utility.yul\":2231:2308   */\ntag_27:\n    /* \"#utility.yul\":2268:2275   */\n  0x00\n    /* \"#utility.yul\":2297:2302   */\n  dup2\n    /* \"#utility.yul\":2286:2302   */\n  swap1\n  pop\n    /* \"#utility.yul\":2231:2308   */\n  swap2\n  swap1\n  pop\n  jump\t// out\n    /* \"#utility.yul\":2314:2494   */\ntag_21:\n    /* \"#utility.yul\":2362:2439   */\n  0x4e487b7100000000000000000000000000000000000000000000000000000000\n    /* \"#utility.yul\":2359:2360   */\n  0x00\n    /* \"#utility.yul\":2352:2440   */\n  mstore\n    /* \"#utility.yul\":2459:2463   */\n  0x11\n    /* \"#utility.yul\":2456:2457   */\n  0x04\n    /* \"#utility.yul\":2449:2464   */\n  mstore\n    /* \"#utility.yul\":2483:2487   */\n  0x24\n    /* \"#utility.yul\":2480:2481   */\n  0x00\n    /* \"#utility.yul\":2473:2488   */\n  revert\n    /* \"#utility.yul\":2500:2602   */\ntag_24:\n    /* \"#utility.yul\":2542:2550   */\n  0x00\n    /* \"#utility.yul\":2589:2594   */\n  dup2\n    /* \"#utility.yul\":2586:2587   */\n  0x01\n    /* \"#utility.yul\":2582:2595   */\n  shr\n    /* \"#utility.yul\":2561:2595   */\n  swap1\n  pop\n    /* \"#utility.yul\":2500:2602   */\n  swap2\n  swap1\n  pop\n  jump\t// out\n    /* \"contract/HouseRegistry.sol\":87:1801  contract HouseRegistry is Ownable {... */\ntag_10:\n  dataSize(sub_0)\n  dup1\n  dataOffset(sub_0)\n  0x00\n  codecopy\n  0x00\n  return\nstop\n\nsub_0: assembly {\n        /* \"contract/HouseRegistry.sol\":87:1801  contract HouseRegistry is Ownable {... */\n      mstore(0x40, 0x80)\n      callvalue\n      dup1\n      iszero\n      tag_1\n      jumpi\n      0x00\n      dup1\n      revert\n    tag_1:\n      pop\n      jumpi(tag_2, lt(calldatasize, 0x04))\n      shr(0xe0, calldataload(0x00))\n      dup1\n      0x91bfe0d4\n      gt\n      tag_10\n      jumpi\n      dup1\n      0x91bfe0d4\n      eq\n      tag_6\n      jumpi\n      dup1\n      0xaeda852f\n      eq\n      tag_7\n      jumpi\n      dup1\n      0xc45e1b25\n      eq\n      tag_8\n      jumpi\n      dup1\n      0xf2fde38b\n      eq\n      tag_9\n      jumpi\n      jump(tag_2)\n    tag_10:\n      dup1\n      0x3c3b0b4a\n      eq\n      tag_3\n      jumpi\n      dup1\n      0x715018a6\n      eq\n      tag_4\n      jumpi\n      dup1\n      0x8da5cb5b\n      eq\n      tag_5\n      jumpi\n    tag_2:\n      0x00\n      dup1\n      revert\n        /* \"contract/HouseRegistry.sol\":1129:1398  function delistHouse(uint houseId) public returns (string memory){... */\n    tag_3:\n      tag_11\n      0x04\n      dup1\n      calldatasize\n      sub\n      dup2\n      add\n      swap1\n      tag_12\n      swap2\n      swap1\n      tag_13\n      jump\t// in\n    tag_12:\n      tag_14\n      jump\t// in\n    tag_11:\n      mload(0x40)\n      tag_15\n      swap2\n      swap1\n      tag_16\n      jump\t// in\n    tag_15:\n      mload(0x40)\n      dup1\n      swap2\n      sub\n      swap1\n      return\n        /* \"contract/Ownable.sol\":1901:2004  function renounceOwnership() public virtual onlyOwner {\r... */\n    tag_4:\n      tag_17\n      tag_18\n      jump\t// in\n    tag_17:\n      stop\n        /* \"contract/Ownable.sol\":1105:1192  function owner() public view virtual returns (address) {\r... */\n    tag_5:\n      tag_19\n      tag_20\n      jump\t// in\n    tag_19:\n      mload(0x40)\n      tag_21\n      swap2\n      swap1\n      tag_22\n      jump\t// in\n    tag_21:\n      mload(0x40)\n      dup1\n      swap2\n      sub\n      swap1\n      return\n        /* \"contract/HouseRegistry.sol\":524:1119  function listHouse (uint _price, uint _area, address _sellerAddress, string memory _houseAddress) public returns (uint) {... */\n    tag_6:\n      tag_23\n      0x04\n      dup1\n      calldatasize\n      sub\n      dup2\n      add\n      swap1\n      tag_24\n      swap2\n      swap1\n      tag_25\n      jump\t// in\n    tag_24:\n      tag_26\n      jump\t// in\n    tag_23:\n      mload(0x40)\n      tag_27\n      swap2\n      swap1\n      tag_28\n      jump\t// in\n    tag_27:\n      mload(0x40)\n      dup1\n      swap2\n      sub\n      swap1\n      return\n        /* \"contract/HouseRegistry.sol\":481:517  mapping(uint => House) public houses */\n    tag_7:\n      tag_29\n      0x04\n      dup1\n      calldatasize\n      sub\n      dup2\n      add\n      swap1\n      tag_30\n      swap2\n      swap1\n      tag_13\n      jump\t// in\n    tag_30:\n      tag_31\n      jump\t// in\n    tag_29:\n      mload(0x40)\n      tag_32\n      swap7\n      swap6\n      swap5\n      swap4\n      swap3\n      swap2\n      swap1\n      tag_33\n      jump\t// in\n    tag_32:\n      mload(0x40)\n      dup1\n      swap2\n      sub\n      swap1\n      return\n        /* \"contract/HouseRegistry.sol\":1664:1798  function getCheapHouseIds(uint _cost) external view returns(uint[] memory){... */\n    tag_8:\n      tag_34\n      0x04\n      dup1\n      calldatasize\n      sub\n      dup2\n      add\n      swap1\n      tag_35\n      swap2\n      swap1\n      tag_13\n      jump\t// in\n    tag_35:\n      tag_36\n      jump\t// in\n    tag_34:\n      mload(0x40)\n      tag_37\n      swap2\n      swap1\n      tag_38\n      jump\t// in\n    tag_37:\n      mload(0x40)\n      dup1\n      swap2\n      sub\n      swap1\n      return\n        /* \"contract/Ownable.sol\":2159:2360  function transferOwnership(address newOwner) public virtual onlyOwner {\r... */\n    tag_9:\n      tag_39\n      0x04\n      dup1\n      calldatasize\n      sub\n      dup2\n      add\n      swap1\n      tag_40\n      swap2\n      swap1\n      tag_41\n      jump\t// in\n    tag_40:\n      tag_42\n      jump\t// in\n    tag_39:\n      stop\n        /* \"contract/HouseRegistry.sol\":1129:1398  function delistHouse(uint houseId) public returns (string memory){... */\n    tag_14:\n        /* \"contract/HouseRegistry.sol\":1180:1193  string memory */\n      0x60\n        /* \"contract/HouseRegistry.sol\":1245:1255  msg.sender */\n      caller\n        /* \"contract/HouseRegistry.sol\":1212:1255  houses[houseId].sellerAddress == msg.sender */\n      0xffffffffffffffffffffffffffffffffffffffff\n      and\n        /* \"contract/HouseRegistry.sol\":1212:1218  houses */\n      0x05\n        /* \"contract/HouseRegistry.sol\":1212:1227  houses[houseId] */\n      0x00\n        /* \"contract/HouseRegistry.sol\":1219:1226  houseId */\n      dup5\n        /* \"contract/HouseRegistry.sol\":1212:1227  houses[houseId] */\n      dup2\n      mstore\n      0x20\n      add\n      swap1\n      dup2\n      mstore\n      0x20\n      add\n      0x00\n      keccak256\n        /* \"contract/HouseRegistry.sol\":1212:1241  houses[houseId].sellerAddress */\n      0x03\n      add\n      0x00\n      swap1\n      sload\n      swap1\n      0x0100\n      exp\n      swap1\n      div\n      0xffffffffffffffffffffffffffffffffffffffff\n      and\n        /* \"contract/HouseRegistry.sol\":1212:1255  houses[houseId].sellerAddress == msg.sender */\n      0xffffffffffffffffffffffffffffffffffffffff\n      and\n      eq\n        /* \"contract/HouseRegistry.sol\":1204:1303  require(houses[houseId].sellerAddress == msg.sender, \"You do not have access to delete this house\") */\n      tag_44\n      jumpi\n      mload(0x40)\n      0x08c379a000000000000000000000000000000000000000000000000000000000\n      dup2\n      mstore\n      0x04\n      add\n      tag_45\n      swap1\n      tag_46\n      jump\t// in\n    tag_45:\n      mload(0x40)\n      dup1\n      swap2\n      sub\n      swap1\n      revert\n    tag_44:\n        /* \"contract/HouseRegistry.sol\":1347:1351  true */\n      0x01\n        /* \"contract/HouseRegistry.sol\":1313:1319  houses */\n      0x05\n        /* \"contract/HouseRegistry.sol\":1313:1328  houses[houseId] */\n      0x00\n        /* \"contract/HouseRegistry.sol\":1320:1327  houseId */\n      dup5\n        /* \"contract/HouseRegistry.sol\":1313:1328  houses[houseId] */\n      dup2\n      mstore\n      0x20\n      add\n      swap1\n      dup2\n      mstore\n      0x20\n      add\n      0x00\n      keccak256\n        /* \"contract/HouseRegistry.sol\":1313:1344  houses[houseId].isdelistedHouse */\n      0x05\n      add\n      0x00\n        /* \"contract/HouseRegistry.sol\":1313:1351  houses[houseId].isdelistedHouse = true */\n      0x0100\n      exp\n      dup2\n      sload\n      dup2\n      0xff\n      mul\n      not\n      and\n      swap1\n      dup4\n      iszero\n      iszero\n      mul\n      or\n      swap1\n      sstore\n      pop\n        /* \"contract/HouseRegistry.sol\":1361:1391  return \"delist was successful\" */\n      mload(0x40)\n      dup1\n      0x40\n      add\n      0x40\n      mstore\n      dup1\n      0x15\n      dup2\n      mstore\n      0x20\n      add\n      0x64656c69737420776173207375636365737366756c0000000000000000000000\n      dup2\n      mstore\n      pop\n      swap1\n      pop\n        /* \"contract/HouseRegistry.sol\":1129:1398  function delistHouse(uint houseId) public returns (string memory){... */\n      swap2\n      swap1\n      pop\n      jump\t// out\n        /* \"contract/Ownable.sol\":1901:2004  function renounceOwnership() public virtual onlyOwner {\r... */\n    tag_18:\n        /* \"contract/Ownable.sol\":1336:1348  _msgSender() */\n      tag_48\n        /* \"contract/Ownable.sol\":1336:1346  _msgSender */\n      tag_49\n        /* \"contract/Ownable.sol\":1336:1348  _msgSender() */\n      jump\t// in\n    tag_48:\n        /* \"contract/Ownable.sol\":1325:1348  owner() == _msgSender() */\n      0xffffffffffffffffffffffffffffffffffffffff\n      and\n        /* \"contract/Ownable.sol\":1325:1332  owner() */\n      tag_50\n        /* \"contract/Ownable.sol\":1325:1330  owner */\n      tag_20\n        /* \"contract/Ownable.sol\":1325:1332  owner() */\n      jump\t// in\n    tag_50:\n        /* \"contract/Ownable.sol\":1325:1348  owner() == _msgSender() */\n      0xffffffffffffffffffffffffffffffffffffffff\n      and\n      eq\n        /* \"contract/Ownable.sol\":1317:1385  require(owner() == _msgSender(), \"Ownable: caller is not the owner\") */\n      tag_51\n      jumpi\n      mload(0x40)\n      0x08c379a000000000000000000000000000000000000000000000000000000000\n      dup2\n      mstore\n      0x04\n      add\n      tag_52\n      swap1\n      tag_53\n      jump\t// in\n    tag_52:\n      mload(0x40)\n      dup1\n      swap2\n      sub\n      swap1\n      revert\n    tag_51:\n        /* \"contract/Ownable.sol\":1966:1996  _transferOwnership(address(0)) */\n      tag_55\n        /* \"contract/Ownable.sol\":1993:1994  0 */\n      0x00\n        /* \"contract/Ownable.sol\":1966:1984  _transferOwnership */\n      tag_56\n        /* \"contract/Ownable.sol\":1966:1996  _transferOwnership(address(0)) */\n      jump\t// in\n    tag_55:\n        /* \"contract/Ownable.sol\":1901:2004  function renounceOwnership() public virtual onlyOwner {\r... */\n      jump\t// out\n        /* \"contract/Ownable.sol\":1105:1192  function owner() public view virtual returns (address) {\r... */\n    tag_20:\n        /* \"contract/Ownable.sol\":1151:1158  address */\n      0x00\n        /* \"contract/Ownable.sol\":1178:1184  _owner */\n      dup1\n      0x00\n      swap1\n      sload\n      swap1\n      0x0100\n      exp\n      swap1\n      div\n      0xffffffffffffffffffffffffffffffffffffffff\n      and\n        /* \"contract/Ownable.sol\":1171:1184  return _owner */\n      swap1\n      pop\n        /* \"contract/Ownable.sol\":1105:1192  function owner() public view virtual returns (address) {\r... */\n      swap1\n      jump\t// out\n        /* \"contract/HouseRegistry.sol\":524:1119  function listHouse (uint _price, uint _area, address _sellerAddress, string memory _houseAddress) public returns (uint) {... */\n    tag_26:\n        /* \"contract/HouseRegistry.sol\":638:642  uint */\n      0x00\n        /* \"contract/HouseRegistry.sol\":679:680  0 */\n      dup1\n        /* \"contract/HouseRegistry.sol\":671:676  _area */\n      dup5\n        /* \"contract/HouseRegistry.sol\":662:668  _price */\n      dup7\n        /* \"contract/HouseRegistry.sol\":662:676  _price * _area */\n      tag_59\n      swap2\n      swap1\n      tag_60\n      jump\t// in\n    tag_59:\n        /* \"contract/HouseRegistry.sol\":662:680  _price * _area > 0 */\n      gt\n        /* \"contract/HouseRegistry.sol\":654:705  require(_price * _area > 0, \"value cannot be null\") */\n      tag_61\n      jumpi\n      mload(0x40)\n      0x08c379a000000000000000000000000000000000000000000000000000000000\n      dup2\n      mstore\n      0x04\n      add\n      tag_62\n      swap1\n      tag_63\n      jump\t// in\n    tag_62:\n      mload(0x40)\n      dup1\n      swap2\n      sub\n      swap1\n      revert\n    tag_61:\n        /* \"contract/HouseRegistry.sol\":715:727  uint houseId */\n      0x00\n        /* \"contract/HouseRegistry.sol\":730:784  _generateHouseId(_sellerAddress, _area, _houseAddress) */\n      tag_64\n        /* \"contract/HouseRegistry.sol\":747:761  _sellerAddress */\n      dup5\n        /* \"contract/HouseRegistry.sol\":763:768  _area */\n      dup7\n        /* \"contract/HouseRegistry.sol\":770:783  _houseAddress */\n      dup6\n        /* \"contract/HouseRegistry.sol\":730:746  _generateHouseId */\n      tag_65\n        /* \"contract/HouseRegistry.sol\":730:784  _generateHouseId(_sellerAddress, _area, _houseAddress) */\n      jump\t// in\n    tag_64:\n        /* \"contract/HouseRegistry.sol\":715:784  uint houseId = _generateHouseId(_sellerAddress, _area, _houseAddress) */\n      swap1\n      pop\n        /* \"contract/HouseRegistry.sol\":813:819  houses */\n      0x05\n        /* \"contract/HouseRegistry.sol\":813:828  houses[houseId] */\n      0x00\n        /* \"contract/HouseRegistry.sol\":820:827  houseId */\n      dup3\n        /* \"contract/HouseRegistry.sol\":813:828  houses[houseId] */\n      dup2\n      mstore\n      0x20\n      add\n      swap1\n      dup2\n      mstore\n      0x20\n      add\n      0x00\n      keccak256\n        /* \"contract/HouseRegistry.sol\":813:831  houses[houseId].id */\n      0x00\n      add\n      sload\n        /* \"contract/HouseRegistry.sol\":802:809  houseId */\n      dup2\n        /* \"contract/HouseRegistry.sol\":802:831  houseId != houses[houseId].id */\n      eq\n      iszero\n        /* \"contract/HouseRegistry.sol\":794:863  require(houseId != houses[houseId].id, \"this houseId already exists\") */\n      tag_66\n      jumpi\n      mload(0x40)\n      0x08c379a000000000000000000000000000000000000000000000000000000000\n      dup2\n      mstore\n      0x04\n      add\n      tag_67\n      swap1\n      tag_68\n      jump\t// in\n    tag_67:\n      mload(0x40)\n      dup1\n      swap2\n      sub\n      swap1\n      revert\n    tag_66:\n        /* \"contract/HouseRegistry.sol\":891:958  House(houseId, _price, _area, _sellerAddress, _houseAddress, false) */\n      mload(0x40)\n      dup1\n      0xc0\n      add\n      0x40\n      mstore\n      dup1\n        /* \"contract/HouseRegistry.sol\":897:904  houseId */\n      dup3\n        /* \"contract/HouseRegistry.sol\":891:958  House(houseId, _price, _area, _sellerAddress, _houseAddress, false) */\n      dup2\n      mstore\n      0x20\n      add\n        /* \"contract/HouseRegistry.sol\":906:912  _price */\n      dup8\n        /* \"contract/HouseRegistry.sol\":891:958  House(houseId, _price, _area, _sellerAddress, _houseAddress, false) */\n      dup2\n      mstore\n      0x20\n      add\n        /* \"contract/HouseRegistry.sol\":914:919  _area */\n      dup7\n        /* \"contract/HouseRegistry.sol\":891:958  House(houseId, _price, _area, _sellerAddress, _houseAddress, false) */\n      dup2\n      mstore\n      0x20\n      add\n        /* \"contract/HouseRegistry.sol\":921:935  _sellerAddress */\n      dup6\n        /* \"contract/HouseRegistry.sol\":891:958  House(houseId, _price, _area, _sellerAddress, _houseAddress, false) */\n      0xffffffffffffffffffffffffffffffffffffffff\n      and\n      dup2\n      mstore\n      0x20\n      add\n        /* \"contract/HouseRegistry.sol\":937:950  _houseAddress */\n      dup5\n        /* \"contract/HouseRegistry.sol\":891:958  House(houseId, _price, _area, _sellerAddress, _houseAddress, false) */\n      dup2\n      mstore\n      0x20\n      add\n        /* \"contract/HouseRegistry.sol\":952:957  false */\n      0x00\n        /* \"contract/HouseRegistry.sol\":891:958  House(houseId, _price, _area, _sellerAddress, _houseAddress, false) */\n      iszero\n      iszero\n      dup2\n      mstore\n      pop\n        /* \"contract/HouseRegistry.sol\":873:879  houses */\n      0x05\n        /* \"contract/HouseRegistry.sol\":873:888  houses[houseId] */\n      0x00\n        /* \"contract/HouseRegistry.sol\":880:887  houseId */\n      dup4\n        /* \"contract/HouseRegistry.sol\":873:888  houses[houseId] */\n      dup2\n      mstore\n      0x20\n      add\n      swap1\n      dup2\n      mstore\n      0x20\n      add\n      0x00\n      keccak256\n        /* \"contract/HouseRegistry.sol\":873:958  houses[houseId] = House(houseId, _price, _area, _sellerAddress, _houseAddress, false) */\n      0x00\n      dup3\n      add\n      mload\n      dup2\n      0x00\n      add\n      sstore\n      0x20\n      dup3\n      add\n      mload\n      dup2\n      0x01\n      add\n      sstore\n      0x40\n      dup3\n      add\n      mload\n      dup2\n      0x02\n      add\n      sstore\n      0x60\n      dup3\n      add\n      mload\n      dup2\n      0x03\n      add\n      exp(0x0100, 0x00)\n      dup2\n      sload\n      dup2\n      0xffffffffffffffffffffffffffffffffffffffff\n      mul\n      not\n      and\n      swap1\n      dup4\n      0xffffffffffffffffffffffffffffffffffffffff\n      and\n      mul\n      or\n      swap1\n      sstore\n      pop\n      0x80\n      dup3\n      add\n      mload\n      dup2\n      0x04\n      add\n      swap1\n      dup1\n      mload\n      swap1\n      0x20\n      add\n      swap1\n      tag_69\n      swap3\n      swap2\n      swap1\n      tag_70\n      jump\t// in\n    tag_69:\n      pop\n      0xa0\n      dup3\n      add\n      mload\n      dup2\n      0x05\n      add\n      exp(0x0100, 0x00)\n      dup2\n      sload\n      dup2\n      0xff\n      mul\n      not\n      and\n      swap1\n      dup4\n      iszero\n      iszero\n      mul\n      or\n      swap1\n      sstore\n      pop\n      swap1\n      pop\n      pop\n        /* \"contract/HouseRegistry.sol\":968:1014  _ownerCooldown(block.timestamp + cooldownTime) */\n      tag_71\n        /* \"contract/HouseRegistry.sol\":1001:1013  cooldownTime */\n      sload(0x04)\n        /* \"contract/HouseRegistry.sol\":983:998  block.timestamp */\n      timestamp\n        /* \"contract/HouseRegistry.sol\":983:1013  block.timestamp + cooldownTime */\n      tag_72\n      swap2\n      swap1\n      tag_73\n      jump\t// in\n    tag_72:\n        /* \"contract/HouseRegistry.sol\":968:982  _ownerCooldown */\n      tag_74\n        /* \"contract/HouseRegistry.sol\":968:1014  _ownerCooldown(block.timestamp + cooldownTime) */\n      jump\t// in\n    tag_71:\n        /* \"contract/HouseRegistry.sol\":1029:1088  AddNewHouse(houseId, _sellerAddress, _price, _houseAddress) */\n      0x8f5afd88eb4be0ac287d87970052ce9a2b453448408e3c91a695ad7509ab7194\n        /* \"contract/HouseRegistry.sol\":1041:1048  houseId */\n      dup2\n        /* \"contract/HouseRegistry.sol\":1050:1064  _sellerAddress */\n      dup6\n        /* \"contract/HouseRegistry.sol\":1066:1072  _price */\n      dup9\n        /* \"contract/HouseRegistry.sol\":1074:1087  _houseAddress */\n      dup7\n        /* \"contract/HouseRegistry.sol\":1029:1088  AddNewHouse(houseId, _sellerAddress, _price, _houseAddress) */\n      mload(0x40)\n      tag_75\n      swap5\n      swap4\n      swap3\n      swap2\n      swap1\n      tag_76\n      jump\t// in\n    tag_75:\n      mload(0x40)\n      dup1\n      swap2\n      sub\n      swap1\n      log1\n        /* \"contract/HouseRegistry.sol\":1105:1112  houseId */\n      dup1\n        /* \"contract/HouseRegistry.sol\":1098:1112  return houseId */\n      swap2\n      pop\n      pop\n        /* \"contract/HouseRegistry.sol\":524:1119  function listHouse (uint _price, uint _area, address _sellerAddress, string memory _houseAddress) public returns (uint) {... */\n      swap5\n      swap4\n      pop\n      pop\n      pop\n      pop\n      jump\t// out\n        /* \"contract/HouseRegistry.sol\":481:517  mapping(uint => House) public houses */\n    tag_31:\n      mstore(0x20, 0x05)\n      dup1\n      0x00\n      mstore\n      keccak256(0x00, 0x40)\n      0x00\n      swap2\n      pop\n      swap1\n      pop\n      dup1\n      0x00\n      add\n      sload\n      swap1\n      dup1\n      0x01\n      add\n      sload\n      swap1\n      dup1\n      0x02\n      add\n      sload\n      swap1\n      dup1\n      0x03\n      add\n      0x00\n      swap1\n      sload\n      swap1\n      0x0100\n      exp\n      swap1\n      div\n      0xffffffffffffffffffffffffffffffffffffffff\n      and\n      swap1\n      dup1\n      0x04\n      add\n      dup1\n      sload\n      tag_77\n      swap1\n      tag_78\n      jump\t// in\n    tag_77:\n      dup1\n      0x1f\n      add\n      0x20\n      dup1\n      swap2\n      div\n      mul\n      0x20\n      add\n      mload(0x40)\n      swap1\n      dup2\n      add\n      0x40\n      mstore\n      dup1\n      swap3\n      swap2\n      swap1\n      dup2\n      dup2\n      mstore\n      0x20\n      add\n      dup3\n      dup1\n      sload\n      tag_79\n      swap1\n      tag_78\n      jump\t// in\n    tag_79:\n      dup1\n      iszero\n      tag_80\n      jumpi\n      dup1\n      0x1f\n      lt\n      tag_81\n      jumpi\n      0x0100\n      dup1\n      dup4\n      sload\n      div\n      mul\n      dup4\n      mstore\n      swap2\n      0x20\n      add\n      swap2\n      jump(tag_80)\n    tag_81:\n      dup3\n      add\n      swap2\n      swap1\n      0x00\n      mstore\n      keccak256(0x00, 0x20)\n      swap1\n    tag_82:\n      dup2\n      sload\n      dup2\n      mstore\n      swap1\n      0x01\n      add\n      swap1\n      0x20\n      add\n      dup1\n      dup4\n      gt\n      tag_82\n      jumpi\n      dup3\n      swap1\n      sub\n      0x1f\n      and\n      dup3\n      add\n      swap2\n    tag_80:\n      pop\n      pop\n      pop\n      pop\n      pop\n      swap1\n      dup1\n      0x05\n      add\n      0x00\n      swap1\n      sload\n      swap1\n      0x0100\n      exp\n      swap1\n      div\n      0xff\n      and\n      swap1\n      pop\n      dup7\n      jump\t// out\n        /* \"contract/HouseRegistry.sol\":1664:1798  function getCheapHouseIds(uint _cost) external view returns(uint[] memory){... */\n    tag_36:\n        /* \"contract/HouseRegistry.sol\":1724:1737  uint[] memory */\n      0x60\n        /* \"contract/HouseRegistry.sol\":1748:1768  uint[] memory result */\n      dup1\n        /* \"contract/HouseRegistry.sol\":1785:1791  result */\n      dup1\n        /* \"contract/HouseRegistry.sol\":1778:1791  return result */\n      swap2\n      pop\n      pop\n        /* \"contract/HouseRegistry.sol\":1664:1798  function getCheapHouseIds(uint _cost) external view returns(uint[] memory){... */\n      swap2\n      swap1\n      pop\n      jump\t// out\n        /* \"contract/Ownable.sol\":2159:2360  function transferOwnership(address newOwner) public virtual onlyOwner {\r... */\n    tag_42:\n        /* \"contract/Ownable.sol\":1336:1348  _msgSender() */\n      tag_85\n        /* \"contract/Ownable.sol\":1336:1346  _msgSender */\n      tag_49\n        /* \"contract/Ownable.sol\":1336:1348  _msgSender() */\n      jump\t// in\n    tag_85:\n        /* \"contract/Ownable.sol\":1325:1348  owner() == _msgSender() */\n      0xffffffffffffffffffffffffffffffffffffffff\n      and\n        /* \"contract/Ownable.sol\":1325:1332  owner() */\n      tag_86\n        /* \"contract/Ownable.sol\":1325:1330  owner */\n      tag_20\n        /* \"contract/Ownable.sol\":1325:1332  owner() */\n      jump\t// in\n    tag_86:\n        /* \"contract/Ownable.sol\":1325:1348  owner() == _msgSender() */\n      0xffffffffffffffffffffffffffffffffffffffff\n      and\n      eq\n        /* \"contract/Ownable.sol\":1317:1385  require(owner() == _msgSender(), \"Ownable: caller is not the owner\") */\n      tag_87\n      jumpi\n      mload(0x40)\n      0x08c379a000000000000000000000000000000000000000000000000000000000\n      dup2\n      mstore\n      0x04\n      add\n      tag_88\n      swap1\n      tag_53\n      jump\t// in\n    tag_88:\n      mload(0x40)\n      dup1\n      swap2\n      sub\n      swap1\n      revert\n    tag_87:\n        /* \"contract/Ownable.sol\":2268:2269  0 */\n      0x00\n        /* \"contract/Ownable.sol\":2248:2270  newOwner != address(0) */\n      0xffffffffffffffffffffffffffffffffffffffff\n      and\n        /* \"contract/Ownable.sol\":2248:2256  newOwner */\n      dup2\n        /* \"contract/Ownable.sol\":2248:2270  newOwner != address(0) */\n      0xffffffffffffffffffffffffffffffffffffffff\n      and\n      eq\n      iszero\n        /* \"contract/Ownable.sol\":2240:2313  require(newOwner != address(0), \"Ownable: new owner is the zero address\") */\n      tag_90\n      jumpi\n      mload(0x40)\n      0x08c379a000000000000000000000000000000000000000000000000000000000\n      dup2\n      mstore\n      0x04\n      add\n      tag_91\n      swap1\n      tag_92\n      jump\t// in\n    tag_91:\n      mload(0x40)\n      dup1\n      swap2\n      sub\n      swap1\n      revert\n    tag_90:\n        /* \"contract/Ownable.sol\":2324:2352  _transferOwnership(newOwner) */\n      tag_93\n        /* \"contract/Ownable.sol\":2343:2351  newOwner */\n      dup2\n        /* \"contract/Ownable.sol\":2324:2342  _transferOwnership */\n      tag_56\n        /* \"contract/Ownable.sol\":2324:2352  _transferOwnership(newOwner) */\n      jump\t// in\n    tag_93:\n        /* \"contract/Ownable.sol\":2159:2360  function transferOwnership(address newOwner) public virtual onlyOwner {\r... */\n      pop\n      jump\t// out\n        /* \"contract/utils/Context.sol\":656:754  function _msgSender() internal view virtual returns (address) {\r... */\n    tag_49:\n        /* \"contract/utils/Context.sol\":709:716  address */\n      0x00\n        /* \"contract/utils/Context.sol\":736:746  msg.sender */\n      caller\n        /* \"contract/utils/Context.sol\":729:746  return msg.sender */\n      swap1\n      pop\n        /* \"contract/utils/Context.sol\":656:754  function _msgSender() internal view virtual returns (address) {\r... */\n      swap1\n      jump\t// out\n        /* \"contract/Ownable.sol\":2520:2711  function _transferOwnership(address newOwner) internal virtual {\r... */\n    tag_56:\n        /* \"contract/Ownable.sol\":2594:2610  address oldOwner */\n      0x00\n        /* \"contract/Ownable.sol\":2613:2619  _owner */\n      dup1\n      0x00\n      swap1\n      sload\n      swap1\n      0x0100\n      exp\n      swap1\n      div\n      0xffffffffffffffffffffffffffffffffffffffff\n      and\n        /* \"contract/Ownable.sol\":2594:2619  address oldOwner = _owner */\n      swap1\n      pop\n        /* \"contract/Ownable.sol\":2639:2647  newOwner */\n      dup2\n        /* \"contract/Ownable.sol\":2630:2636  _owner */\n      0x00\n      dup1\n        /* \"contract/Ownable.sol\":2630:2647  _owner = newOwner */\n      0x0100\n      exp\n      dup2\n      sload\n      dup2\n      0xffffffffffffffffffffffffffffffffffffffff\n      mul\n      not\n      and\n      swap1\n      dup4\n      0xffffffffffffffffffffffffffffffffffffffff\n      and\n      mul\n      or\n      swap1\n      sstore\n      pop\n        /* \"contract/Ownable.sol\":2694:2702  newOwner */\n      dup2\n        /* \"contract/Ownable.sol\":2663:2703  OwnershipTransferred(oldOwner, newOwner) */\n      0xffffffffffffffffffffffffffffffffffffffff\n      and\n        /* \"contract/Ownable.sol\":2684:2692  oldOwner */\n      dup2\n        /* \"contract/Ownable.sol\":2663:2703  OwnershipTransferred(oldOwner, newOwner) */\n      0xffffffffffffffffffffffffffffffffffffffff\n      and\n      0x8be0079c531659141344cd1fd0a4f28419497f9722a3daafe3b4186f6b6457e0\n      mload(0x40)\n      mload(0x40)\n      dup1\n      swap2\n      sub\n      swap1\n      log3\n        /* \"contract/Ownable.sol\":2583:2711  {\r... */\n      pop\n        /* \"contract/Ownable.sol\":2520:2711  function _transferOwnership(address newOwner) internal virtual {\r... */\n      pop\n      jump\t// out\n        /* \"contract/HouseRegistry.sol\":1404:1658  function _generateHouseId(address _sellerAddress, uint _area, string memory _houseAddress) private view returns(uint){... */\n    tag_65:\n        /* \"contract/HouseRegistry.sol\":1516:1520  uint */\n      0x00\n        /* \"contract/HouseRegistry.sol\":1531:1543  uint houseId */\n      dup1\n        /* \"contract/HouseRegistry.sol\":1578:1592  _sellerAddress */\n      dup5\n        /* \"contract/HouseRegistry.sol\":1594:1599  _area */\n      dup5\n        /* \"contract/HouseRegistry.sol\":1601:1614  _houseAddress */\n      dup5\n        /* \"contract/HouseRegistry.sol\":1561:1615  abi.encodePacked(_sellerAddress, _area, _houseAddress) */\n      add(0x20, mload(0x40))\n      tag_97\n      swap4\n      swap3\n      swap2\n      swap1\n      tag_98\n      jump\t// in\n    tag_97:\n      mload(0x40)\n      0x20\n      dup2\n      dup4\n      sub\n      sub\n      dup2\n      mstore\n      swap1\n      0x40\n      mstore\n        /* \"contract/HouseRegistry.sol\":1551:1616  keccak256(abi.encodePacked(_sellerAddress, _area, _houseAddress)) */\n      dup1\n      mload\n      swap1\n      0x20\n      add\n      keccak256\n        /* \"contract/HouseRegistry.sol\":1546:1617  uint(keccak256(abi.encodePacked(_sellerAddress, _area, _houseAddress))) */\n      0x00\n      shr\n        /* \"contract/HouseRegistry.sol\":1531:1617  uint houseId = uint(keccak256(abi.encodePacked(_sellerAddress, _area, _houseAddress))) */\n      swap1\n      pop\n        /* \"contract/HouseRegistry.sol\":1644:1651  modulus */\n      sload(0x03)\n        /* \"contract/HouseRegistry.sol\":1634:1641  houseId */\n      dup2\n        /* \"contract/HouseRegistry.sol\":1634:1651  houseId % modulus */\n      tag_99\n      swap2\n      swap1\n      tag_100\n      jump\t// in\n    tag_99:\n        /* \"contract/HouseRegistry.sol\":1627:1651  return houseId % modulus */\n      swap2\n      pop\n      pop\n        /* \"contract/HouseRegistry.sol\":1404:1658  function _generateHouseId(address _sellerAddress, uint _area, string memory _houseAddress) private view returns(uint){... */\n      swap4\n      swap3\n      pop\n      pop\n      pop\n      jump\t// out\n        /* \"contract/Ownable.sol\":2719:2813  function _ownerCooldown(uint _newTime) internal {\r... */\n    tag_74:\n        /* \"contract/Ownable.sol\":2797:2805  _newTime */\n      dup1\n        /* \"contract/Ownable.sol\":2778:2794  ownerAddCooldown */\n      0x01\n        /* \"contract/Ownable.sol\":2778:2805  ownerAddCooldown = _newTime */\n      dup2\n      swap1\n      sstore\n      pop\n        /* \"contract/Ownable.sol\":2719:2813  function _ownerCooldown(uint _newTime) internal {\r... */\n      pop\n      jump\t// out\n    tag_70:\n      dup3\n      dup1\n      sload\n      tag_102\n      swap1\n      tag_78\n      jump\t// in\n    tag_102:\n      swap1\n      0x00\n      mstore\n      keccak256(0x00, 0x20)\n      swap1\n      0x1f\n      add\n      0x20\n      swap1\n      div\n      dup2\n      add\n      swap3\n      dup3\n      tag_104\n      jumpi\n      0x00\n      dup6\n      sstore\n      jump(tag_103)\n    tag_104:\n      dup3\n      0x1f\n      lt\n      tag_105\n      jumpi\n      dup1\n      mload\n      not(0xff)\n      and\n      dup4\n      dup1\n      add\n      or\n      dup6\n      sstore\n      jump(tag_103)\n    tag_105:\n      dup3\n      dup1\n      add\n      0x01\n      add\n      dup6\n      sstore\n      dup3\n      iszero\n      tag_103\n      jumpi\n      swap2\n      dup3\n      add\n    tag_106:\n      dup3\n      dup2\n      gt\n      iszero\n      tag_107\n      jumpi\n      dup3\n      mload\n      dup3\n      sstore\n      swap2\n      0x20\n      add\n      swap2\n      swap1\n      0x01\n      add\n      swap1\n      jump(tag_106)\n    tag_107:\n    tag_103:\n      pop\n      swap1\n      pop\n      tag_108\n      swap2\n      swap1\n      tag_109\n      jump\t// in\n    tag_108:\n      pop\n      swap1\n      jump\t// out\n    tag_109:\n    tag_110:\n      dup1\n      dup3\n      gt\n      iszero\n      tag_111\n      jumpi\n      0x00\n      dup2\n      0x00\n      swap1\n      sstore\n      pop\n      0x01\n      add\n      jump(tag_110)\n    tag_111:\n      pop\n      swap1\n      jump\t// out\n        /* \"#utility.yul\":7:419   */\n    tag_113:\n        /* \"#utility.yul\":85:90   */\n      0x00\n        /* \"#utility.yul\":110:176   */\n      tag_115\n        /* \"#utility.yul\":126:175   */\n      tag_116\n        /* \"#utility.yul\":168:174   */\n      dup5\n        /* \"#utility.yul\":126:175   */\n      tag_117\n      jump\t// in\n    tag_116:\n        /* \"#utility.yul\":110:176   */\n      tag_118\n      jump\t// in\n    tag_115:\n        /* \"#utility.yul\":101:176   */\n      swap1\n      pop\n        /* \"#utility.yul\":199:205   */\n      dup3\n        /* \"#utility.yul\":192:197   */\n      dup2\n        /* \"#utility.yul\":185:206   */\n      mstore\n        /* \"#utility.yul\":237:241   */\n      0x20\n        /* \"#utility.yul\":230:235   */\n      dup2\n        /* \"#utility.yul\":226:242   */\n      add\n        /* \"#utility.yul\":275:278   */\n      dup5\n        /* \"#utility.yul\":266:272   */\n      dup5\n        /* \"#utility.yul\":261:264   */\n      dup5\n        /* \"#utility.yul\":257:273   */\n      add\n        /* \"#utility.yul\":254:279   */\n      gt\n        /* \"#utility.yul\":251:363   */\n      iszero\n      tag_119\n      jumpi\n        /* \"#utility.yul\":282:361   */\n      tag_120\n      tag_121\n      jump\t// in\n    tag_120:\n        /* \"#utility.yul\":251:363   */\n    tag_119:\n        /* \"#utility.yul\":372:413   */\n      tag_122\n        /* \"#utility.yul\":406:412   */\n      dup5\n        /* \"#utility.yul\":401:404   */\n      dup3\n        /* \"#utility.yul\":396:399   */\n      dup6\n        /* \"#utility.yul\":372:413   */\n      tag_123\n      jump\t// in\n    tag_122:\n        /* \"#utility.yul\":91:419   */\n      pop\n        /* \"#utility.yul\":7:419   */\n      swap4\n      swap3\n      pop\n      pop\n      pop\n      jump\t// out\n        /* \"#utility.yul\":425:564   */\n    tag_124:\n        /* \"#utility.yul\":471:476   */\n      0x00\n        /* \"#utility.yul\":509:515   */\n      dup2\n        /* \"#utility.yul\":496:516   */\n      calldataload\n        /* \"#utility.yul\":487:516   */\n      swap1\n      pop\n        /* \"#utility.yul\":525:558   */\n      tag_126\n        /* \"#utility.yul\":552:557   */\n      dup2\n        /* \"#utility.yul\":525:558   */\n      tag_127\n      jump\t// in\n    tag_126:\n        /* \"#utility.yul\":425:564   */\n      swap3\n      swap2\n      pop\n      pop\n      jump\t// out\n        /* \"#utility.yul\":584:924   */\n    tag_128:\n        /* \"#utility.yul\":640:645   */\n      0x00\n        /* \"#utility.yul\":689:692   */\n      dup3\n        /* \"#utility.yul\":682:686   */\n      0x1f\n        /* \"#utility.yul\":674:680   */\n      dup4\n        /* \"#utility.yul\":670:687   */\n      add\n        /* \"#utility.yul\":666:693   */\n      slt\n        /* \"#utility.yul\":656:778   */\n      tag_130\n      jumpi\n        /* \"#utility.yul\":697:776   */\n      tag_131\n      tag_132\n      jump\t// in\n    tag_131:\n        /* \"#utility.yul\":656:778   */\n    tag_130:\n        /* \"#utility.yul\":814:820   */\n      dup2\n        /* \"#utility.yul\":801:821   */\n      calldataload\n        /* \"#utility.yul\":839:918   */\n      tag_133\n        /* \"#utility.yul\":914:917   */\n      dup5\n        /* \"#utility.yul\":906:912   */\n      dup3\n        /* \"#utility.yul\":899:903   */\n      0x20\n        /* \"#utility.yul\":891:897   */\n      dup7\n        /* \"#utility.yul\":887:904   */\n      add\n        /* \"#utility.yul\":839:918   */\n      tag_113\n      jump\t// in\n    tag_133:\n        /* \"#utility.yul\":830:918   */\n      swap2\n      pop\n        /* \"#utility.yul\":646:924   */\n      pop\n        /* \"#utility.yul\":584:924   */\n      swap3\n      swap2\n      pop\n      pop\n      jump\t// out\n        /* \"#utility.yul\":930:1069   */\n    tag_134:\n        /* \"#utility.yul\":976:981   */\n      0x00\n        /* \"#utility.yul\":1014:1020   */\n      dup2\n        /* \"#utility.yul\":1001:1021   */\n      calldataload\n        /* \"#utility.yul\":992:1021   */\n      swap1\n      pop\n        /* \"#utility.yul\":1030:1063   */\n      tag_136\n        /* \"#utility.yul\":1057:1062   */\n      dup2\n        /* \"#utility.yul\":1030:1063   */\n      tag_137\n      jump\t// in\n    tag_136:\n        /* \"#utility.yul\":930:1069   */\n      swap3\n      swap2\n      pop\n      pop\n      jump\t// out\n        /* \"#utility.yul\":1075:1404   */\n    tag_41:\n        /* \"#utility.yul\":1134:1140   */\n      0x00\n        /* \"#utility.yul\":1183:1185   */\n      0x20\n        /* \"#utility.yul\":1171:1180   */\n      dup3\n        /* \"#utility.yul\":1162:1169   */\n      dup5\n        /* \"#utility.yul\":1158:1181   */\n      sub\n        /* \"#utility.yul\":1154:1186   */\n      slt\n        /* \"#utility.yul\":1151:1270   */\n      iszero\n      tag_139\n      jumpi\n        /* \"#utility.yul\":1189:1268   */\n      tag_140\n      tag_141\n      jump\t// in\n    tag_140:\n        /* \"#utility.yul\":1151:1270   */\n    tag_139:\n        /* \"#utility.yul\":1309:1310   */\n      0x00\n        /* \"#utility.yul\":1334:1387   */\n      tag_142\n        /* \"#utility.yul\":1379:1386   */\n      dup5\n        /* \"#utility.yul\":1370:1376   */\n      dup3\n        /* \"#utility.yul\":1359:1368   */\n      dup6\n        /* \"#utility.yul\":1355:1377   */\n      add\n        /* \"#utility.yul\":1334:1387   */\n      tag_124\n      jump\t// in\n    tag_142:\n        /* \"#utility.yul\":1324:1387   */\n      swap2\n      pop\n        /* \"#utility.yul\":1280:1397   */\n      pop\n        /* \"#utility.yul\":1075:1404   */\n      swap3\n      swap2\n      pop\n      pop\n      jump\t// out\n        /* \"#utility.yul\":1410:1739   */\n    tag_13:\n        /* \"#utility.yul\":1469:1475   */\n      0x00\n        /* \"#utility.yul\":1518:1520   */\n      0x20\n        /* \"#utility.yul\":1506:1515   */\n      dup3\n        /* \"#utility.yul\":1497:1504   */\n      dup5\n        /* \"#utility.yul\":1493:1516   */\n      sub\n        /* \"#utility.yul\":1489:1521   */\n      slt\n        /* \"#utility.yul\":1486:1605   */\n      iszero\n      tag_144\n      jumpi\n        /* \"#utility.yul\":1524:1603   */\n      tag_145\n      tag_141\n      jump\t// in\n    tag_145:\n        /* \"#utility.yul\":1486:1605   */\n    tag_144:\n        /* \"#utility.yul\":1644:1645   */\n      0x00\n        /* \"#utility.yul\":1669:1722   */\n      tag_146\n        /* \"#utility.yul\":1714:1721   */\n      dup5\n        /* \"#utility.yul\":1705:1711   */\n      dup3\n        /* \"#utility.yul\":1694:1703   */\n      dup6\n        /* \"#utility.yul\":1690:1712   */\n      add\n        /* \"#utility.yul\":1669:1722   */\n      tag_134\n      jump\t// in\n    tag_146:\n        /* \"#utility.yul\":1659:1722   */\n      swap2\n      pop\n        /* \"#utility.yul\":1615:1732   */\n      pop\n        /* \"#utility.yul\":1410:1739   */\n      swap3\n      swap2\n      pop\n      pop\n      jump\t// out\n        /* \"#utility.yul\":1745:2690   */\n    tag_25:\n        /* \"#utility.yul\":1841:1847   */\n      0x00\n        /* \"#utility.yul\":1849:1855   */\n      dup1\n        /* \"#utility.yul\":1857:1863   */\n      0x00\n        /* \"#utility.yul\":1865:1871   */\n      dup1\n        /* \"#utility.yul\":1914:1917   */\n      0x80\n        /* \"#utility.yul\":1902:1911   */\n      dup6\n        /* \"#utility.yul\":1893:1900   */\n      dup8\n        /* \"#utility.yul\":1889:1912   */\n      sub\n        /* \"#utility.yul\":1885:1918   */\n      slt\n        /* \"#utility.yul\":1882:2002   */\n      iszero\n      tag_148\n      jumpi\n        /* \"#utility.yul\":1921:2000   */\n      tag_149\n      tag_141\n      jump\t// in\n    tag_149:\n        /* \"#utility.yul\":1882:2002   */\n    tag_148:\n        /* \"#utility.yul\":2041:2042   */\n      0x00\n        /* \"#utility.yul\":2066:2119   */\n      tag_150\n        /* \"#utility.yul\":2111:2118   */\n      dup8\n        /* \"#utility.yul\":2102:2108   */\n      dup3\n        /* \"#utility.yul\":2091:2100   */\n      dup9\n        /* \"#utility.yul\":2087:2109   */\n      add\n        /* \"#utility.yul\":2066:2119   */\n      tag_134\n      jump\t// in\n    tag_150:\n        /* \"#utility.yul\":2056:2119   */\n      swap5\n      pop\n        /* \"#utility.yul\":2012:2129   */\n      pop\n        /* \"#utility.yul\":2168:2170   */\n      0x20\n        /* \"#utility.yul\":2194:2247   */\n      tag_151\n        /* \"#utility.yul\":2239:2246   */\n      dup8\n        /* \"#utility.yul\":2230:2236   */\n      dup3\n        /* \"#utility.yul\":2219:2228   */\n      dup9\n        /* \"#utility.yul\":2215:2237   */\n      add\n        /* \"#utility.yul\":2194:2247   */\n      tag_134\n      jump\t// in\n    tag_151:\n        /* \"#utility.yul\":2184:2247   */\n      swap4\n      pop\n        /* \"#utility.yul\":2139:2257   */\n      pop\n        /* \"#utility.yul\":2296:2298   */\n      0x40\n        /* \"#utility.yul\":2322:2375   */\n      tag_152\n        /* \"#utility.yul\":2367:2374   */\n      dup8\n        /* \"#utility.yul\":2358:2364   */\n      dup3\n        /* \"#utility.yul\":2347:2356   */\n      dup9\n        /* \"#utility.yul\":2343:2365   */\n      add\n        /* \"#utility.yul\":2322:2375   */\n      tag_124\n      jump\t// in\n    tag_152:\n        /* \"#utility.yul\":2312:2375   */\n      swap3\n      pop\n        /* \"#utility.yul\":2267:2385   */\n      pop\n        /* \"#utility.yul\":2452:2454   */\n      0x60\n        /* \"#utility.yul\":2441:2450   */\n      dup6\n        /* \"#utility.yul\":2437:2455   */\n      add\n        /* \"#utility.yul\":2424:2456   */\n      calldataload\n        /* \"#utility.yul\":2483:2501   */\n      0xffffffffffffffff\n        /* \"#utility.yul\":2475:2481   */\n      dup2\n        /* \"#utility.yul\":2472:2502   */\n      gt\n        /* \"#utility.yul\":2469:2586   */\n      iszero\n      tag_153\n      jumpi\n        /* \"#utility.yul\":2505:2584   */\n      tag_154\n      tag_155\n      jump\t// in\n    tag_154:\n        /* \"#utility.yul\":2469:2586   */\n    tag_153:\n        /* \"#utility.yul\":2610:2673   */\n      tag_156\n        /* \"#utility.yul\":2665:2672   */\n      dup8\n        /* \"#utility.yul\":2656:2662   */\n      dup3\n        /* \"#utility.yul\":2645:2654   */\n      dup9\n        /* \"#utility.yul\":2641:2663   */\n      add\n        /* \"#utility.yul\":2610:2673   */\n      tag_128\n      jump\t// in\n    tag_156:\n        /* \"#utility.yul\":2600:2673   */\n      swap2\n      pop\n        /* \"#utility.yul\":2395:2683   */\n      pop\n        /* \"#utility.yul\":1745:2690   */\n      swap3\n      swap6\n      swap2\n      swap5\n      pop\n      swap3\n      pop\n      jump\t// out\n        /* \"#utility.yul\":2696:2875   */\n    tag_157:\n        /* \"#utility.yul\":2765:2775   */\n      0x00\n        /* \"#utility.yul\":2786:2832   */\n      tag_159\n        /* \"#utility.yul\":2828:2831   */\n      dup4\n        /* \"#utility.yul\":2820:2826   */\n      dup4\n        /* \"#utility.yul\":2786:2832   */\n      tag_160\n      jump\t// in\n    tag_159:\n        /* \"#utility.yul\":2864:2868   */\n      0x20\n        /* \"#utility.yul\":2859:2862   */\n      dup4\n        /* \"#utility.yul\":2855:2869   */\n      add\n        /* \"#utility.yul\":2841:2869   */\n      swap1\n      pop\n        /* \"#utility.yul\":2696:2875   */\n      swap3\n      swap2\n      pop\n      pop\n      jump\t// out\n        /* \"#utility.yul\":2881:2999   */\n    tag_161:\n        /* \"#utility.yul\":2968:2992   */\n      tag_163\n        /* \"#utility.yul\":2986:2991   */\n      dup2\n        /* \"#utility.yul\":2968:2992   */\n      tag_164\n      jump\t// in\n    tag_163:\n        /* \"#utility.yul\":2963:2966   */\n      dup3\n        /* \"#utility.yul\":2956:2993   */\n      mstore\n        /* \"#utility.yul\":2881:2999   */\n      pop\n      pop\n      jump\t// out\n        /* \"#utility.yul\":3005:3162   */\n    tag_165:\n        /* \"#utility.yul\":3110:3155   */\n      tag_167\n        /* \"#utility.yul\":3130:3154   */\n      tag_168\n        /* \"#utility.yul\":3148:3153   */\n      dup3\n        /* \"#utility.yul\":3130:3154   */\n      tag_164\n      jump\t// in\n    tag_168:\n        /* \"#utility.yul\":3110:3155   */\n      tag_169\n      jump\t// in\n    tag_167:\n        /* \"#utility.yul\":3105:3108   */\n      dup3\n        /* \"#utility.yul\":3098:3156   */\n      mstore\n        /* \"#utility.yul\":3005:3162   */\n      pop\n      pop\n      jump\t// out\n        /* \"#utility.yul\":3198:3930   */\n    tag_170:\n        /* \"#utility.yul\":3317:3320   */\n      0x00\n        /* \"#utility.yul\":3346:3400   */\n      tag_172\n        /* \"#utility.yul\":3394:3399   */\n      dup3\n        /* \"#utility.yul\":3346:3400   */\n      tag_173\n      jump\t// in\n    tag_172:\n        /* \"#utility.yul\":3416:3502   */\n      tag_174\n        /* \"#utility.yul\":3495:3501   */\n      dup2\n        /* \"#utility.yul\":3490:3493   */\n      dup6\n        /* \"#utility.yul\":3416:3502   */\n      tag_175\n      jump\t// in\n    tag_174:\n        /* \"#utility.yul\":3409:3502   */\n      swap4\n      pop\n        /* \"#utility.yul\":3526:3582   */\n      tag_176\n        /* \"#utility.yul\":3576:3581   */\n      dup4\n        /* \"#utility.yul\":3526:3582   */\n      tag_177\n      jump\t// in\n    tag_176:\n        /* \"#utility.yul\":3605:3612   */\n      dup1\n        /* \"#utility.yul\":3636:3637   */\n      0x00\n        /* \"#utility.yul\":3621:3905   */\n    tag_178:\n        /* \"#utility.yul\":3646:3652   */\n      dup4\n        /* \"#utility.yul\":3643:3644   */\n      dup2\n        /* \"#utility.yul\":3640:3653   */\n      lt\n        /* \"#utility.yul\":3621:3905   */\n      iszero\n      tag_180\n      jumpi\n        /* \"#utility.yul\":3722:3728   */\n      dup2\n        /* \"#utility.yul\":3716:3729   */\n      mload\n        /* \"#utility.yul\":3749:3812   */\n      tag_181\n        /* \"#utility.yul\":3808:3811   */\n      dup9\n        /* \"#utility.yul\":3793:3806   */\n      dup3\n        /* \"#utility.yul\":3749:3812   */\n      tag_157\n      jump\t// in\n    tag_181:\n        /* \"#utility.yul\":3742:3812   */\n      swap8\n      pop\n        /* \"#utility.yul\":3835:3895   */\n      tag_182\n        /* \"#utility.yul\":3888:3894   */\n      dup4\n        /* \"#utility.yul\":3835:3895   */\n      tag_183\n      jump\t// in\n    tag_182:\n        /* \"#utility.yul\":3825:3895   */\n      swap3\n      pop\n        /* \"#utility.yul\":3681:3905   */\n      pop\n        /* \"#utility.yul\":3668:3669   */\n      0x01\n        /* \"#utility.yul\":3665:3666   */\n      dup2\n        /* \"#utility.yul\":3661:3670   */\n      add\n        /* \"#utility.yul\":3656:3670   */\n      swap1\n      pop\n        /* \"#utility.yul\":3621:3905   */\n      jump(tag_178)\n    tag_180:\n        /* \"#utility.yul\":3625:3639   */\n      pop\n        /* \"#utility.yul\":3921:3924   */\n      dup6\n        /* \"#utility.yul\":3914:3924   */\n      swap4\n      pop\n        /* \"#utility.yul\":3322:3930   */\n      pop\n      pop\n      pop\n        /* \"#utility.yul\":3198:3930   */\n      swap3\n      swap2\n      pop\n      pop\n      jump\t// out\n        /* \"#utility.yul\":3936:4045   */\n    tag_184:\n        /* \"#utility.yul\":4017:4038   */\n      tag_186\n        /* \"#utility.yul\":4032:4037   */\n      dup2\n        /* \"#utility.yul\":4017:4038   */\n      tag_187\n      jump\t// in\n    tag_186:\n        /* \"#utility.yul\":4012:4015   */\n      dup3\n        /* \"#utility.yul\":4005:4039   */\n      mstore\n        /* \"#utility.yul\":3936:4045   */\n      pop\n      pop\n      jump\t// out\n        /* \"#utility.yul\":4051:4415   */\n    tag_188:\n        /* \"#utility.yul\":4139:4142   */\n      0x00\n        /* \"#utility.yul\":4167:4206   */\n      tag_190\n        /* \"#utility.yul\":4200:4205   */\n      dup3\n        /* \"#utility.yul\":4167:4206   */\n      tag_191\n      jump\t// in\n    tag_190:\n        /* \"#utility.yul\":4222:4293   */\n      tag_192\n        /* \"#utility.yul\":4286:4292   */\n      dup2\n        /* \"#utility.yul\":4281:4284   */\n      dup6\n        /* \"#utility.yul\":4222:4293   */\n      tag_193\n      jump\t// in\n    tag_192:\n        /* \"#utility.yul\":4215:4293   */\n      swap4\n      pop\n        /* \"#utility.yul\":4302:4354   */\n      tag_194\n        /* \"#utility.yul\":4347:4353   */\n      dup2\n        /* \"#utility.yul\":4342:4345   */\n      dup6\n        /* \"#utility.yul\":4335:4339   */\n      0x20\n        /* \"#utility.yul\":4328:4333   */\n      dup7\n        /* \"#utility.yul\":4324:4340   */\n      add\n        /* \"#utility.yul\":4302:4354   */\n      tag_195\n      jump\t// in\n    tag_194:\n        /* \"#utility.yul\":4379:4408   */\n      tag_196\n        /* \"#utility.yul\":4401:4407   */\n      dup2\n        /* \"#utility.yul\":4379:4408   */\n      tag_197\n      jump\t// in\n    tag_196:\n        /* \"#utility.yul\":4374:4377   */\n      dup5\n        /* \"#utility.yul\":4370:4409   */\n      add\n        /* \"#utility.yul\":4363:4409   */\n      swap2\n      pop\n        /* \"#utility.yul\":4143:4415   */\n      pop\n        /* \"#utility.yul\":4051:4415   */\n      swap3\n      swap2\n      pop\n      pop\n      jump\t// out\n        /* \"#utility.yul\":4421:4798   */\n    tag_198:\n        /* \"#utility.yul\":4527:4530   */\n      0x00\n        /* \"#utility.yul\":4555:4594   */\n      tag_200\n        /* \"#utility.yul\":4588:4593   */\n      dup3\n        /* \"#utility.yul\":4555:4594   */\n      tag_191\n      jump\t// in\n    tag_200:\n        /* \"#utility.yul\":4610:4699   */\n      tag_201\n        /* \"#utility.yul\":4692:4698   */\n      dup2\n        /* \"#utility.yul\":4687:4690   */\n      dup6\n        /* \"#utility.yul\":4610:4699   */\n      tag_202\n      jump\t// in\n    tag_201:\n        /* \"#utility.yul\":4603:4699   */\n      swap4\n      pop\n        /* \"#utility.yul\":4708:4760   */\n      tag_203\n        /* \"#utility.yul\":4753:4759   */\n      dup2\n        /* \"#utility.yul\":4748:4751   */\n      dup6\n        /* \"#utility.yul\":4741:4745   */\n      0x20\n        /* \"#utility.yul\":4734:4739   */\n      dup7\n        /* \"#utility.yul\":4730:4746   */\n      add\n        /* \"#utility.yul\":4708:4760   */\n      tag_195\n      jump\t// in\n    tag_203:\n        /* \"#utility.yul\":4785:4791   */\n      dup1\n        /* \"#utility.yul\":4780:4783   */\n      dup5\n        /* \"#utility.yul\":4776:4792   */\n      add\n        /* \"#utility.yul\":4769:4792   */\n      swap2\n      pop\n        /* \"#utility.yul\":4531:4798   */\n      pop\n        /* \"#utility.yul\":4421:4798   */\n      swap3\n      swap2\n      pop\n      pop\n      jump\t// out\n        /* \"#utility.yul\":4804:5170   */\n    tag_204:\n        /* \"#utility.yul\":4946:4949   */\n      0x00\n        /* \"#utility.yul\":4967:5034   */\n      tag_206\n        /* \"#utility.yul\":5031:5033   */\n      0x26\n        /* \"#utility.yul\":5026:5029   */\n      dup4\n        /* \"#utility.yul\":4967:5034   */\n      tag_193\n      jump\t// in\n    tag_206:\n        /* \"#utility.yul\":4960:5034   */\n      swap2\n      pop\n        /* \"#utility.yul\":5043:5136   */\n      tag_207\n        /* \"#utility.yul\":5132:5135   */\n      dup3\n        /* \"#utility.yul\":5043:5136   */\n      tag_208\n      jump\t// in\n    tag_207:\n        /* \"#utility.yul\":5161:5163   */\n      0x40\n        /* \"#utility.yul\":5156:5159   */\n      dup3\n        /* \"#utility.yul\":5152:5164   */\n      add\n        /* \"#utility.yul\":5145:5164   */\n      swap1\n      pop\n        /* \"#utility.yul\":4804:5170   */\n      swap2\n      swap1\n      pop\n      jump\t// out\n        /* \"#utility.yul\":5176:5542   */\n    tag_209:\n        /* \"#utility.yul\":5318:5321   */\n      0x00\n        /* \"#utility.yul\":5339:5406   */\n      tag_211\n        /* \"#utility.yul\":5403:5405   */\n      0x14\n        /* \"#utility.yul\":5398:5401   */\n      dup4\n        /* \"#utility.yul\":5339:5406   */\n      tag_193\n      jump\t// in\n    tag_211:\n        /* \"#utility.yul\":5332:5406   */\n      swap2\n      pop\n        /* \"#utility.yul\":5415:5508   */\n      tag_212\n        /* \"#utility.yul\":5504:5507   */\n      dup3\n        /* \"#utility.yul\":5415:5508   */\n      tag_213\n      jump\t// in\n    tag_212:\n        /* \"#utility.yul\":5533:5535   */\n      0x20\n        /* \"#utility.yul\":5528:5531   */\n      dup3\n        /* \"#utility.yul\":5524:5536   */\n      add\n        /* \"#utility.yul\":5517:5536   */\n      swap1\n      pop\n        /* \"#utility.yul\":5176:5542   */\n      swap2\n      swap1\n      pop\n      jump\t// out\n        /* \"#utility.yul\":5548:5914   */\n    tag_214:\n        /* \"#utility.yul\":5690:5693   */\n      0x00\n        /* \"#utility.yul\":5711:5778   */\n      tag_216\n        /* \"#utility.yul\":5775:5777   */\n      0x20\n        /* \"#utility.yul\":5770:5773   */\n      dup4\n        /* \"#utility.yul\":5711:5778   */\n      tag_193\n      jump\t// in\n    tag_216:\n        /* \"#utility.yul\":5704:5778   */\n      swap2\n      pop\n        /* \"#utility.yul\":5787:5880   */\n      tag_217\n        /* \"#utility.yul\":5876:5879   */\n      dup3\n        /* \"#utility.yul\":5787:5880   */\n      tag_218\n      jump\t// in\n    tag_217:\n        /* \"#utility.yul\":5905:5907   */\n      0x20\n        /* \"#utility.yul\":5900:5903   */\n      dup3\n        /* \"#utility.yul\":5896:5908   */\n      add\n        /* \"#utility.yul\":5889:5908   */\n      swap1\n      pop\n        /* \"#utility.yul\":5548:5914   */\n      swap2\n      swap1\n      pop\n      jump\t// out\n        /* \"#utility.yul\":5920:6286   */\n    tag_219:\n        /* \"#utility.yul\":6062:6065   */\n      0x00\n        /* \"#utility.yul\":6083:6150   */\n      tag_221\n        /* \"#utility.yul\":6147:6149   */\n      0x1b\n        /* \"#utility.yul\":6142:6145   */\n      dup4\n        /* \"#utility.yul\":6083:6150   */\n      tag_193\n      jump\t// in\n    tag_221:\n        /* \"#utility.yul\":6076:6150   */\n      swap2\n      pop\n        /* \"#utility.yul\":6159:6252   */\n      tag_222\n        /* \"#utility.yul\":6248:6251   */\n      dup3\n        /* \"#utility.yul\":6159:6252   */\n      tag_223\n      jump\t// in\n    tag_222:\n        /* \"#utility.yul\":6277:6279   */\n      0x20\n        /* \"#utility.yul\":6272:6275   */\n      dup3\n        /* \"#utility.yul\":6268:6280   */\n      add\n        /* \"#utility.yul\":6261:6280   */\n      swap1\n      pop\n        /* \"#utility.yul\":5920:6286   */\n      swap2\n      swap1\n      pop\n      jump\t// out\n        /* \"#utility.yul\":6292:6658   */\n    tag_224:\n        /* \"#utility.yul\":6434:6437   */\n      0x00\n        /* \"#utility.yul\":6455:6522   */\n      tag_226\n        /* \"#utility.yul\":6519:6521   */\n      0x2b\n        /* \"#utility.yul\":6514:6517   */\n      dup4\n        /* \"#utility.yul\":6455:6522   */\n      tag_193\n      jump\t// in\n    tag_226:\n        /* \"#utility.yul\":6448:6522   */\n      swap2\n      pop\n        /* \"#utility.yul\":6531:6624   */\n      tag_227\n        /* \"#utility.yul\":6620:6623   */\n      dup3\n        /* \"#utility.yul\":6531:6624   */\n      tag_228\n      jump\t// in\n    tag_227:\n        /* \"#utility.yul\":6649:6651   */\n      0x40\n        /* \"#utility.yul\":6644:6647   */\n      dup3\n        /* \"#utility.yul\":6640:6652   */\n      add\n        /* \"#utility.yul\":6633:6652   */\n      swap1\n      pop\n        /* \"#utility.yul\":6292:6658   */\n      swap2\n      swap1\n      pop\n      jump\t// out\n        /* \"#utility.yul\":6664:6772   */\n    tag_160:\n        /* \"#utility.yul\":6741:6765   */\n      tag_230\n        /* \"#utility.yul\":6759:6764   */\n      dup2\n        /* \"#utility.yul\":6741:6765   */\n      tag_231\n      jump\t// in\n    tag_230:\n        /* \"#utility.yul\":6736:6739   */\n      dup3\n        /* \"#utility.yul\":6729:6766   */\n      mstore\n        /* \"#utility.yul\":6664:6772   */\n      pop\n      pop\n      jump\t// out\n        /* \"#utility.yul\":6778:6896   */\n    tag_232:\n        /* \"#utility.yul\":6865:6889   */\n      tag_234\n        /* \"#utility.yul\":6883:6888   */\n      dup2\n        /* \"#utility.yul\":6865:6889   */\n      tag_231\n      jump\t// in\n    tag_234:\n        /* \"#utility.yul\":6860:6863   */\n      dup3\n        /* \"#utility.yul\":6853:6890   */\n      mstore\n        /* \"#utility.yul\":6778:6896   */\n      pop\n      pop\n      jump\t// out\n        /* \"#utility.yul\":6902:7059   */\n    tag_235:\n        /* \"#utility.yul\":7007:7052   */\n      tag_237\n        /* \"#utility.yul\":7027:7051   */\n      tag_238\n        /* \"#utility.yul\":7045:7050   */\n      dup3\n        /* \"#utility.yul\":7027:7051   */\n      tag_231\n      jump\t// in\n    tag_238:\n        /* \"#utility.yul\":7007:7052   */\n      tag_239\n      jump\t// in\n    tag_237:\n        /* \"#utility.yul\":7002:7005   */\n      dup3\n        /* \"#utility.yul\":6995:7053   */\n      mstore\n        /* \"#utility.yul\":6902:7059   */\n      pop\n      pop\n      jump\t// out\n        /* \"#utility.yul\":7065:7622   */\n    tag_98:\n        /* \"#utility.yul\":7253:7256   */\n      0x00\n        /* \"#utility.yul\":7268:7343   */\n      tag_241\n        /* \"#utility.yul\":7339:7342   */\n      dup3\n        /* \"#utility.yul\":7330:7336   */\n      dup7\n        /* \"#utility.yul\":7268:7343   */\n      tag_165\n      jump\t// in\n    tag_241:\n        /* \"#utility.yul\":7368:7370   */\n      0x14\n        /* \"#utility.yul\":7363:7366   */\n      dup3\n        /* \"#utility.yul\":7359:7371   */\n      add\n        /* \"#utility.yul\":7352:7371   */\n      swap2\n      pop\n        /* \"#utility.yul\":7381:7456   */\n      tag_242\n        /* \"#utility.yul\":7452:7455   */\n      dup3\n        /* \"#utility.yul\":7443:7449   */\n      dup6\n        /* \"#utility.yul\":7381:7456   */\n      tag_235\n      jump\t// in\n    tag_242:\n        /* \"#utility.yul\":7481:7483   */\n      0x20\n        /* \"#utility.yul\":7476:7479   */\n      dup3\n        /* \"#utility.yul\":7472:7484   */\n      add\n        /* \"#utility.yul\":7465:7484   */\n      swap2\n      pop\n        /* \"#utility.yul\":7501:7596   */\n      tag_243\n        /* \"#utility.yul\":7592:7595   */\n      dup3\n        /* \"#utility.yul\":7583:7589   */\n      dup5\n        /* \"#utility.yul\":7501:7596   */\n      tag_198\n      jump\t// in\n    tag_243:\n        /* \"#utility.yul\":7494:7596   */\n      swap2\n      pop\n        /* \"#utility.yul\":7613:7616   */\n      dup2\n        /* \"#utility.yul\":7606:7616   */\n      swap1\n      pop\n        /* \"#utility.yul\":7065:7622   */\n      swap5\n      swap4\n      pop\n      pop\n      pop\n      pop\n      jump\t// out\n        /* \"#utility.yul\":7628:7850   */\n    tag_22:\n        /* \"#utility.yul\":7721:7725   */\n      0x00\n        /* \"#utility.yul\":7759:7761   */\n      0x20\n        /* \"#utility.yul\":7748:7757   */\n      dup3\n        /* \"#utility.yul\":7744:7762   */\n      add\n        /* \"#utility.yul\":7736:7762   */\n      swap1\n      pop\n        /* \"#utility.yul\":7772:7843   */\n      tag_245\n        /* \"#utility.yul\":7840:7841   */\n      0x00\n        /* \"#utility.yul\":7829:7838   */\n      dup4\n        /* \"#utility.yul\":7825:7842   */\n      add\n        /* \"#utility.yul\":7816:7822   */\n      dup5\n        /* \"#utility.yul\":7772:7843   */\n      tag_161\n      jump\t// in\n    tag_245:\n        /* \"#utility.yul\":7628:7850   */\n      swap3\n      swap2\n      pop\n      pop\n      jump\t// out\n        /* \"#utility.yul\":7856:8229   */\n    tag_38:\n        /* \"#utility.yul\":7999:8003   */\n      0x00\n        /* \"#utility.yul\":8037:8039   */\n      0x20\n        /* \"#utility.yul\":8026:8035   */\n      dup3\n        /* \"#utility.yul\":8022:8040   */\n      add\n        /* \"#utility.yul\":8014:8040   */\n      swap1\n      pop\n        /* \"#utility.yul\":8086:8095   */\n      dup2\n        /* \"#utility.yul\":8080:8084   */\n      dup2\n        /* \"#utility.yul\":8076:8096   */\n      sub\n        /* \"#utility.yul\":8072:8073   */\n      0x00\n        /* \"#utility.yul\":8061:8070   */\n      dup4\n        /* \"#utility.yul\":8057:8074   */\n      add\n        /* \"#utility.yul\":8050:8097   */\n      mstore\n        /* \"#utility.yul\":8114:8222   */\n      tag_247\n        /* \"#utility.yul\":8217:8221   */\n      dup2\n        /* \"#utility.yul\":8208:8214   */\n      dup5\n        /* \"#utility.yul\":8114:8222   */\n      tag_170\n      jump\t// in\n    tag_247:\n        /* \"#utility.yul\":8106:8222   */\n      swap1\n      pop\n        /* \"#utility.yul\":7856:8229   */\n      swap3\n      swap2\n      pop\n      pop\n      jump\t// out\n        /* \"#utility.yul\":8235:8548   */\n    tag_16:\n        /* \"#utility.yul\":8348:8352   */\n      0x00\n        /* \"#utility.yul\":8386:8388   */\n      0x20\n        /* \"#utility.yul\":8375:8384   */\n      dup3\n        /* \"#utility.yul\":8371:8389   */\n      add\n        /* \"#utility.yul\":8363:8389   */\n      swap1\n      pop\n        /* \"#utility.yul\":8435:8444   */\n      dup2\n        /* \"#utility.yul\":8429:8433   */\n      dup2\n        /* \"#utility.yul\":8425:8445   */\n      sub\n        /* \"#utility.yul\":8421:8422   */\n      0x00\n        /* \"#utility.yul\":8410:8419   */\n      dup4\n        /* \"#utility.yul\":8406:8423   */\n      add\n        /* \"#utility.yul\":8399:8446   */\n      mstore\n        /* \"#utility.yul\":8463:8541   */\n      tag_249\n        /* \"#utility.yul\":8536:8540   */\n      dup2\n        /* \"#utility.yul\":8527:8533   */\n      dup5\n        /* \"#utility.yul\":8463:8541   */\n      tag_188\n      jump\t// in\n    tag_249:\n        /* \"#utility.yul\":8455:8541   */\n      swap1\n      pop\n        /* \"#utility.yul\":8235:8548   */\n      swap3\n      swap2\n      pop\n      pop\n      jump\t// out\n        /* \"#utility.yul\":8554:8973   */\n    tag_92:\n        /* \"#utility.yul\":8720:8724   */\n      0x00\n        /* \"#utility.yul\":8758:8760   */\n      0x20\n        /* \"#utility.yul\":8747:8756   */\n      dup3\n        /* \"#utility.yul\":8743:8761   */\n      add\n        /* \"#utility.yul\":8735:8761   */\n      swap1\n      pop\n        /* \"#utility.yul\":8807:8816   */\n      dup2\n        /* \"#utility.yul\":8801:8805   */\n      dup2\n        /* \"#utility.yul\":8797:8817   */\n      sub\n        /* \"#utility.yul\":8793:8794   */\n      0x00\n        /* \"#utility.yul\":8782:8791   */\n      dup4\n        /* \"#utility.yul\":8778:8795   */\n      add\n        /* \"#utility.yul\":8771:8818   */\n      mstore\n        /* \"#utility.yul\":8835:8966   */\n      tag_251\n        /* \"#utility.yul\":8961:8965   */\n      dup2\n        /* \"#utility.yul\":8835:8966   */\n      tag_204\n      jump\t// in\n    tag_251:\n        /* \"#utility.yul\":8827:8966   */\n      swap1\n      pop\n        /* \"#utility.yul\":8554:8973   */\n      swap2\n      swap1\n      pop\n      jump\t// out\n        /* \"#utility.yul\":8979:9398   */\n    tag_63:\n        /* \"#utility.yul\":9145:9149   */\n      0x00\n        /* \"#utility.yul\":9183:9185   */\n      0x20\n        /* \"#utility.yul\":9172:9181   */\n      dup3\n        /* \"#utility.yul\":9168:9186   */\n      add\n        /* \"#utility.yul\":9160:9186   */\n      swap1\n      pop\n        /* \"#utility.yul\":9232:9241   */\n      dup2\n        /* \"#utility.yul\":9226:9230   */\n      dup2\n        /* \"#utility.yul\":9222:9242   */\n      sub\n        /* \"#utility.yul\":9218:9219   */\n      0x00\n        /* \"#utility.yul\":9207:9216   */\n      dup4\n        /* \"#utility.yul\":9203:9220   */\n      add\n        /* \"#utility.yul\":9196:9243   */\n      mstore\n        /* \"#utility.yul\":9260:9391   */\n      tag_253\n        /* \"#utility.yul\":9386:9390   */\n      dup2\n        /* \"#utility.yul\":9260:9391   */\n      tag_209\n      jump\t// in\n    tag_253:\n        /* \"#utility.yul\":9252:9391   */\n      swap1\n      pop\n        /* \"#utility.yul\":8979:9398   */\n      swap2\n      swap1\n      pop\n      jump\t// out\n        /* \"#utility.yul\":9404:9823   */\n    tag_53:\n        /* \"#utility.yul\":9570:9574   */\n      0x00\n        /* \"#utility.yul\":9608:9610   */\n      0x20\n        /* \"#utility.yul\":9597:9606   */\n      dup3\n        /* \"#utility.yul\":9593:9611   */\n      add\n        /* \"#utility.yul\":9585:9611   */\n      swap1\n      pop\n        /* \"#utility.yul\":9657:9666   */\n      dup2\n        /* \"#utility.yul\":9651:9655   */\n      dup2\n        /* \"#utility.yul\":9647:9667   */\n      sub\n        /* \"#utility.yul\":9643:9644   */\n      0x00\n        /* \"#utility.yul\":9632:9641   */\n      dup4\n        /* \"#utility.yul\":9628:9645   */\n      add\n        /* \"#utility.yul\":9621:9668   */\n      mstore\n        /* \"#utility.yul\":9685:9816   */\n      tag_255\n        /* \"#utility.yul\":9811:9815   */\n      dup2\n        /* \"#utility.yul\":9685:9816   */\n      tag_214\n      jump\t// in\n    tag_255:\n        /* \"#utility.yul\":9677:9816   */\n      swap1\n      pop\n        /* \"#utility.yul\":9404:9823   */\n      swap2\n      swap1\n      pop\n      jump\t// out\n        /* \"#utility.yul\":9829:10248   */\n    tag_68:\n        /* \"#utility.yul\":9995:9999   */\n      0x00\n        /* \"#utility.yul\":10033:10035   */\n      0x20\n        /* \"#utility.yul\":10022:10031   */\n      dup3\n        /* \"#utility.yul\":10018:10036   */\n      add\n        /* \"#utility.yul\":10010:10036   */\n      swap1\n      pop\n        /* \"#utility.yul\":10082:10091   */\n      dup2\n        /* \"#utility.yul\":10076:10080   */\n      dup2\n        /* \"#utility.yul\":10072:10092   */\n      sub\n        /* \"#utility.yul\":10068:10069   */\n      0x00\n        /* \"#utility.yul\":10057:10066   */\n      dup4\n        /* \"#utility.yul\":10053:10070   */\n      add\n        /* \"#utility.yul\":10046:10093   */\n      mstore\n        /* \"#utility.yul\":10110:10241   */\n      tag_257\n        /* \"#utility.yul\":10236:10240   */\n      dup2\n        /* \"#utility.yul\":10110:10241   */\n      tag_219\n      jump\t// in\n    tag_257:\n        /* \"#utility.yul\":10102:10241   */\n      swap1\n      pop\n        /* \"#utility.yul\":9829:10248   */\n      swap2\n      swap1\n      pop\n      jump\t// out\n        /* \"#utility.yul\":10254:10673   */\n    tag_46:\n        /* \"#utility.yul\":10420:10424   */\n      0x00\n        /* \"#utility.yul\":10458:10460   */\n      0x20\n        /* \"#utility.yul\":10447:10456   */\n      dup3\n        /* \"#utility.yul\":10443:10461   */\n      add\n        /* \"#utility.yul\":10435:10461   */\n      swap1\n      pop\n        /* \"#utility.yul\":10507:10516   */\n      dup2\n        /* \"#utility.yul\":10501:10505   */\n      dup2\n        /* \"#utility.yul\":10497:10517   */\n      sub\n        /* \"#utility.yul\":10493:10494   */\n      0x00\n        /* \"#utility.yul\":10482:10491   */\n      dup4\n        /* \"#utility.yul\":10478:10495   */\n      add\n        /* \"#utility.yul\":10471:10518   */\n      mstore\n        /* \"#utility.yul\":10535:10666   */\n      tag_259\n        /* \"#utility.yul\":10661:10665   */\n      dup2\n        /* \"#utility.yul\":10535:10666   */\n      tag_224\n      jump\t// in\n    tag_259:\n        /* \"#utility.yul\":10527:10666   */\n      swap1\n      pop\n        /* \"#utility.yul\":10254:10673   */\n      swap2\n      swap1\n      pop\n      jump\t// out\n        /* \"#utility.yul\":10679:10901   */\n    tag_28:\n        /* \"#utility.yul\":10772:10776   */\n      0x00\n        /* \"#utility.yul\":10810:10812   */\n      0x20\n        /* \"#utility.yul\":10799:10808   */\n      dup3\n        /* \"#utility.yul\":10795:10813   */\n      add\n        /* \"#utility.yul\":10787:10813   */\n      swap1\n      pop\n        /* \"#utility.yul\":10823:10894   */\n      tag_261\n        /* \"#utility.yul\":10891:10892   */\n      0x00\n        /* \"#utility.yul\":10880:10889   */\n      dup4\n        /* \"#utility.yul\":10876:10893   */\n      add\n        /* \"#utility.yul\":10867:10873   */\n      dup5\n        /* \"#utility.yul\":10823:10894   */\n      tag_232\n      jump\t// in\n    tag_261:\n        /* \"#utility.yul\":10679:10901   */\n      swap3\n      swap2\n      pop\n      pop\n      jump\t// out\n        /* \"#utility.yul\":10907:11551   */\n    tag_76:\n        /* \"#utility.yul\":11104:11108   */\n      0x00\n        /* \"#utility.yul\":11142:11145   */\n      0x80\n        /* \"#utility.yul\":11131:11140   */\n      dup3\n        /* \"#utility.yul\":11127:11146   */\n      add\n        /* \"#utility.yul\":11119:11146   */\n      swap1\n      pop\n        /* \"#utility.yul\":11156:11227   */\n      tag_263\n        /* \"#utility.yul\":11224:11225   */\n      0x00\n        /* \"#utility.yul\":11213:11222   */\n      dup4\n        /* \"#utility.yul\":11209:11226   */\n      add\n        /* \"#utility.yul\":11200:11206   */\n      dup8\n        /* \"#utility.yul\":11156:11227   */\n      tag_232\n      jump\t// in\n    tag_263:\n        /* \"#utility.yul\":11237:11309   */\n      tag_264\n        /* \"#utility.yul\":11305:11307   */\n      0x20\n        /* \"#utility.yul\":11294:11303   */\n      dup4\n        /* \"#utility.yul\":11290:11308   */\n      add\n        /* \"#utility.yul\":11281:11287   */\n      dup7\n        /* \"#utility.yul\":11237:11309   */\n      tag_161\n      jump\t// in\n    tag_264:\n        /* \"#utility.yul\":11319:11391   */\n      tag_265\n        /* \"#utility.yul\":11387:11389   */\n      0x40\n        /* \"#utility.yul\":11376:11385   */\n      dup4\n        /* \"#utility.yul\":11372:11390   */\n      add\n        /* \"#utility.yul\":11363:11369   */\n      dup6\n        /* \"#utility.yul\":11319:11391   */\n      tag_232\n      jump\t// in\n    tag_265:\n        /* \"#utility.yul\":11438:11447   */\n      dup2\n        /* \"#utility.yul\":11432:11436   */\n      dup2\n        /* \"#utility.yul\":11428:11448   */\n      sub\n        /* \"#utility.yul\":11423:11425   */\n      0x60\n        /* \"#utility.yul\":11412:11421   */\n      dup4\n        /* \"#utility.yul\":11408:11426   */\n      add\n        /* \"#utility.yul\":11401:11449   */\n      mstore\n        /* \"#utility.yul\":11466:11544   */\n      tag_266\n        /* \"#utility.yul\":11539:11543   */\n      dup2\n        /* \"#utility.yul\":11530:11536   */\n      dup5\n        /* \"#utility.yul\":11466:11544   */\n      tag_188\n      jump\t// in\n    tag_266:\n        /* \"#utility.yul\":11458:11544   */\n      swap1\n      pop\n        /* \"#utility.yul\":10907:11551   */\n      swap6\n      swap5\n      pop\n      pop\n      pop\n      pop\n      pop\n      jump\t// out\n        /* \"#utility.yul\":11557:12411   */\n    tag_33:\n        /* \"#utility.yul\":11804:11808   */\n      0x00\n        /* \"#utility.yul\":11842:11845   */\n      0xc0\n        /* \"#utility.yul\":11831:11840   */\n      dup3\n        /* \"#utility.yul\":11827:11846   */\n      add\n        /* \"#utility.yul\":11819:11846   */\n      swap1\n      pop\n        /* \"#utility.yul\":11856:11927   */\n      tag_268\n        /* \"#utility.yul\":11924:11925   */\n      0x00\n        /* \"#utility.yul\":11913:11922   */\n      dup4\n        /* \"#utility.yul\":11909:11926   */\n      add\n        /* \"#utility.yul\":11900:11906   */\n      dup10\n        /* \"#utility.yul\":11856:11927   */\n      tag_232\n      jump\t// in\n    tag_268:\n        /* \"#utility.yul\":11937:12009   */\n      tag_269\n        /* \"#utility.yul\":12005:12007   */\n      0x20\n        /* \"#utility.yul\":11994:12003   */\n      dup4\n        /* \"#utility.yul\":11990:12008   */\n      add\n        /* \"#utility.yul\":11981:11987   */\n      dup9\n        /* \"#utility.yul\":11937:12009   */\n      tag_232\n      jump\t// in\n    tag_269:\n        /* \"#utility.yul\":12019:12091   */\n      tag_270\n        /* \"#utility.yul\":12087:12089   */\n      0x40\n        /* \"#utility.yul\":12076:12085   */\n      dup4\n        /* \"#utility.yul\":12072:12090   */\n      add\n        /* \"#utility.yul\":12063:12069   */\n      dup8\n        /* \"#utility.yul\":12019:12091   */\n      tag_232\n      jump\t// in\n    tag_270:\n        /* \"#utility.yul\":12101:12173   */\n      tag_271\n        /* \"#utility.yul\":12169:12171   */\n      0x60\n        /* \"#utility.yul\":12158:12167   */\n      dup4\n        /* \"#utility.yul\":12154:12172   */\n      add\n        /* \"#utility.yul\":12145:12151   */\n      dup7\n        /* \"#utility.yul\":12101:12173   */\n      tag_161\n      jump\t// in\n    tag_271:\n        /* \"#utility.yul\":12221:12230   */\n      dup2\n        /* \"#utility.yul\":12215:12219   */\n      dup2\n        /* \"#utility.yul\":12211:12231   */\n      sub\n        /* \"#utility.yul\":12205:12208   */\n      0x80\n        /* \"#utility.yul\":12194:12203   */\n      dup4\n        /* \"#utility.yul\":12190:12209   */\n      add\n        /* \"#utility.yul\":12183:12232   */\n      mstore\n        /* \"#utility.yul\":12249:12327   */\n      tag_272\n        /* \"#utility.yul\":12322:12326   */\n      dup2\n        /* \"#utility.yul\":12313:12319   */\n      dup6\n        /* \"#utility.yul\":12249:12327   */\n      tag_188\n      jump\t// in\n    tag_272:\n        /* \"#utility.yul\":12241:12327   */\n      swap1\n      pop\n        /* \"#utility.yul\":12337:12404   */\n      tag_273\n        /* \"#utility.yul\":12399:12402   */\n      0xa0\n        /* \"#utility.yul\":12388:12397   */\n      dup4\n        /* \"#utility.yul\":12384:12403   */\n      add\n        /* \"#utility.yul\":12375:12381   */\n      dup5\n        /* \"#utility.yul\":12337:12404   */\n      tag_184\n      jump\t// in\n    tag_273:\n        /* \"#utility.yul\":11557:12411   */\n      swap8\n      swap7\n      pop\n      pop\n      pop\n      pop\n      pop\n      pop\n      pop\n      jump\t// out\n        /* \"#utility.yul\":12417:12546   */\n    tag_118:\n        /* \"#utility.yul\":12451:12457   */\n      0x00\n        /* \"#utility.yul\":12478:12498   */\n      tag_275\n      tag_276\n      jump\t// in\n    tag_275:\n        /* \"#utility.yul\":12468:12498   */\n      swap1\n      pop\n        /* \"#utility.yul\":12507:12540   */\n      tag_277\n        /* \"#utility.yul\":12535:12539   */\n      dup3\n        /* \"#utility.yul\":12527:12533   */\n      dup3\n        /* \"#utility.yul\":12507:12540   */\n      tag_278\n      jump\t// in\n    tag_277:\n        /* \"#utility.yul\":12417:12546   */\n      swap2\n      swap1\n      pop\n      jump\t// out\n        /* \"#utility.yul\":12552:12627   */\n    tag_276:\n        /* \"#utility.yul\":12585:12591   */\n      0x00\n        /* \"#utility.yul\":12618:12620   */\n      0x40\n        /* \"#utility.yul\":12612:12621   */\n      mload\n        /* \"#utility.yul\":12602:12621   */\n      swap1\n      pop\n        /* \"#utility.yul\":12552:12627   */\n      swap1\n      jump\t// out\n        /* \"#utility.yul\":12633:12941   */\n    tag_117:\n        /* \"#utility.yul\":12695:12699   */\n      0x00\n        /* \"#utility.yul\":12785:12803   */\n      0xffffffffffffffff\n        /* \"#utility.yul\":12777:12783   */\n      dup3\n        /* \"#utility.yul\":12774:12804   */\n      gt\n        /* \"#utility.yul\":12771:12827   */\n      iszero\n      tag_281\n      jumpi\n        /* \"#utility.yul\":12807:12825   */\n      tag_282\n      tag_283\n      jump\t// in\n    tag_282:\n        /* \"#utility.yul\":12771:12827   */\n    tag_281:\n        /* \"#utility.yul\":12845:12874   */\n      tag_284\n        /* \"#utility.yul\":12867:12873   */\n      dup3\n        /* \"#utility.yul\":12845:12874   */\n      tag_197\n      jump\t// in\n    tag_284:\n        /* \"#utility.yul\":12837:12874   */\n      swap1\n      pop\n        /* \"#utility.yul\":12929:12933   */\n      0x20\n        /* \"#utility.yul\":12923:12927   */\n      dup2\n        /* \"#utility.yul\":12919:12934   */\n      add\n        /* \"#utility.yul\":12911:12934   */\n      swap1\n      pop\n        /* \"#utility.yul\":12633:12941   */\n      swap2\n      swap1\n      pop\n      jump\t// out\n        /* \"#utility.yul\":12947:13079   */\n    tag_177:\n        /* \"#utility.yul\":13014:13018   */\n      0x00\n        /* \"#utility.yul\":13037:13040   */\n      dup2\n        /* \"#utility.yul\":13029:13040   */\n      swap1\n      pop\n        /* \"#utility.yul\":13067:13071   */\n      0x20\n        /* \"#utility.yul\":13062:13065   */\n      dup3\n        /* \"#utility.yul\":13058:13072   */\n      add\n        /* \"#utility.yul\":13050:13072   */\n      swap1\n      pop\n        /* \"#utility.yul\":12947:13079   */\n      swap2\n      swap1\n      pop\n      jump\t// out\n        /* \"#utility.yul\":13085:13199   */\n    tag_173:\n        /* \"#utility.yul\":13152:13158   */\n      0x00\n        /* \"#utility.yul\":13186:13191   */\n      dup2\n        /* \"#utility.yul\":13180:13192   */\n      mload\n        /* \"#utility.yul\":13170:13192   */\n      swap1\n      pop\n        /* \"#utility.yul\":13085:13199   */\n      swap2\n      swap1\n      pop\n      jump\t// out\n        /* \"#utility.yul\":13205:13304   */\n    tag_191:\n        /* \"#utility.yul\":13257:13263   */\n      0x00\n        /* \"#utility.yul\":13291:13296   */\n      dup2\n        /* \"#utility.yul\":13285:13297   */\n      mload\n        /* \"#utility.yul\":13275:13297   */\n      swap1\n      pop\n        /* \"#utility.yul\":13205:13304   */\n      swap2\n      swap1\n      pop\n      jump\t// out\n        /* \"#utility.yul\":13310:13423   */\n    tag_183:\n        /* \"#utility.yul\":13380:13384   */\n      0x00\n        /* \"#utility.yul\":13412:13416   */\n      0x20\n        /* \"#utility.yul\":13407:13410   */\n      dup3\n        /* \"#utility.yul\":13403:13417   */\n      add\n        /* \"#utility.yul\":13395:13417   */\n      swap1\n      pop\n        /* \"#utility.yul\":13310:13423   */\n      swap2\n      swap1\n      pop\n      jump\t// out\n        /* \"#utility.yul\":13429:13613   */\n    tag_175:\n        /* \"#utility.yul\":13528:13539   */\n      0x00\n        /* \"#utility.yul\":13562:13568   */\n      dup3\n        /* \"#utility.yul\":13557:13560   */\n      dup3\n        /* \"#utility.yul\":13550:13569   */\n      mstore\n        /* \"#utility.yul\":13602:13606   */\n      0x20\n        /* \"#utility.yul\":13597:13600   */\n      dup3\n        /* \"#utility.yul\":13593:13607   */\n      add\n        /* \"#utility.yul\":13578:13607   */\n      swap1\n      pop\n        /* \"#utility.yul\":13429:13613   */\n      swap3\n      swap2\n      pop\n      pop\n      jump\t// out\n        /* \"#utility.yul\":13619:13788   */\n    tag_193:\n        /* \"#utility.yul\":13703:13714   */\n      0x00\n        /* \"#utility.yul\":13737:13743   */\n      dup3\n        /* \"#utility.yul\":13732:13735   */\n      dup3\n        /* \"#utility.yul\":13725:13744   */\n      mstore\n        /* \"#utility.yul\":13777:13781   */\n      0x20\n        /* \"#utility.yul\":13772:13775   */\n      dup3\n        /* \"#utility.yul\":13768:13782   */\n      add\n        /* \"#utility.yul\":13753:13782   */\n      swap1\n      pop\n        /* \"#utility.yul\":13619:13788   */\n      swap3\n      swap2\n      pop\n      pop\n      jump\t// out\n        /* \"#utility.yul\":13794:13942   */\n    tag_202:\n        /* \"#utility.yul\":13896:13907   */\n      0x00\n        /* \"#utility.yul\":13933:13936   */\n      dup2\n        /* \"#utility.yul\":13918:13936   */\n      swap1\n      pop\n        /* \"#utility.yul\":13794:13942   */\n      swap3\n      swap2\n      pop\n      pop\n      jump\t// out\n        /* \"#utility.yul\":13948:14253   */\n    tag_73:\n        /* \"#utility.yul\":13988:13991   */\n      0x00\n        /* \"#utility.yul\":14007:14027   */\n      tag_293\n        /* \"#utility.yul\":14025:14026   */\n      dup3\n        /* \"#utility.yul\":14007:14027   */\n      tag_231\n      jump\t// in\n    tag_293:\n        /* \"#utility.yul\":14002:14027   */\n      swap2\n      pop\n        /* \"#utility.yul\":14041:14061   */\n      tag_294\n        /* \"#utility.yul\":14059:14060   */\n      dup4\n        /* \"#utility.yul\":14041:14061   */\n      tag_231\n      jump\t// in\n    tag_294:\n        /* \"#utility.yul\":14036:14061   */\n      swap3\n      pop\n        /* \"#utility.yul\":14195:14196   */\n      dup3\n        /* \"#utility.yul\":14127:14193   */\n      0xffffffffffffffffffffffffffffffffffffffffffffffffffffffffffffffff\n        /* \"#utility.yul\":14123:14197   */\n      sub\n        /* \"#utility.yul\":14120:14121   */\n      dup3\n        /* \"#utility.yul\":14117:14198   */\n      gt\n        /* \"#utility.yul\":14114:14221   */\n      iszero\n      tag_295\n      jumpi\n        /* \"#utility.yul\":14201:14219   */\n      tag_296\n      tag_297\n      jump\t// in\n    tag_296:\n        /* \"#utility.yul\":14114:14221   */\n    tag_295:\n        /* \"#utility.yul\":14245:14246   */\n      dup3\n        /* \"#utility.yul\":14242:14243   */\n      dup3\n        /* \"#utility.yul\":14238:14247   */\n      add\n        /* \"#utility.yul\":14231:14247   */\n      swap1\n      pop\n        /* \"#utility.yul\":13948:14253   */\n      swap3\n      swap2\n      pop\n      pop\n      jump\t// out\n        /* \"#utility.yul\":14259:14607   */\n    tag_60:\n        /* \"#utility.yul\":14299:14306   */\n      0x00\n        /* \"#utility.yul\":14322:14342   */\n      tag_299\n        /* \"#utility.yul\":14340:14341   */\n      dup3\n        /* \"#utility.yul\":14322:14342   */\n      tag_231\n      jump\t// in\n    tag_299:\n        /* \"#utility.yul\":14317:14342   */\n      swap2\n      pop\n        /* \"#utility.yul\":14356:14376   */\n      tag_300\n        /* \"#utility.yul\":14374:14375   */\n      dup4\n        /* \"#utility.yul\":14356:14376   */\n      tag_231\n      jump\t// in\n    tag_300:\n        /* \"#utility.yul\":14351:14376   */\n      swap3\n      pop\n        /* \"#utility.yul\":14544:14545   */\n      dup2\n        /* \"#utility.yul\":14476:14542   */\n      0xffffffffffffffffffffffffffffffffffffffffffffffffffffffffffffffff\n        /* \"#utility.yul\":14472:14546   */\n      div\n        /* \"#utility.yul\":14469:14470   */\n      dup4\n        /* \"#utility.yul\":14466:14547   */\n      gt\n        /* \"#utility.yul\":14461:14462   */\n      dup3\n        /* \"#utility.yul\":14454:14463   */\n      iszero\n        /* \"#utility.yul\":14447:14464   */\n      iszero\n        /* \"#utility.yul\":14443:14548   */\n      and\n        /* \"#utility.yul\":14440:14571   */\n      iszero\n      tag_301\n      jumpi\n        /* \"#utility.yul\":14551:14569   */\n      tag_302\n      tag_297\n      jump\t// in\n    tag_302:\n        /* \"#utility.yul\":14440:14571   */\n    tag_301:\n        /* \"#utility.yul\":14599:14600   */\n      dup3\n        /* \"#utility.yul\":14596:14597   */\n      dup3\n        /* \"#utility.yul\":14592:14601   */\n      mul\n        /* \"#utility.yul\":14581:14601   */\n      swap1\n      pop\n        /* \"#utility.yul\":14259:14607   */\n      swap3\n      swap2\n      pop\n      pop\n      jump\t// out\n        /* \"#utility.yul\":14613:14709   */\n    tag_164:\n        /* \"#utility.yul\":14650:14657   */\n      0x00\n        /* \"#utility.yul\":14679:14703   */\n      tag_304\n        /* \"#utility.yul\":14697:14702   */\n      dup3\n        /* \"#utility.yul\":14679:14703   */\n      tag_305\n      jump\t// in\n    tag_304:\n        /* \"#utility.yul\":14668:14703   */\n      swap1\n      pop\n        /* \"#utility.yul\":14613:14709   */\n      swap2\n      swap1\n      pop\n      jump\t// out\n        /* \"#utility.yul\":14715:14805   */\n    tag_187:\n        /* \"#utility.yul\":14749:14756   */\n      0x00\n        /* \"#utility.yul\":14792:14797   */\n      dup2\n        /* \"#utility.yul\":14785:14798   */\n      iszero\n        /* \"#utility.yul\":14778:14799   */\n      iszero\n        /* \"#utility.yul\":14767:14799   */\n      swap1\n      pop\n        /* \"#utility.yul\":14715:14805   */\n      swap2\n      swap1\n      pop\n      jump\t// out\n        /* \"#utility.yul\":14811:14937   */\n    tag_305:\n        /* \"#utility.yul\":14848:14855   */\n      0x00\n        /* \"#utility.yul\":14888:14930   */\n      0xffffffffffffffffffffffffffffffffffffffff\n        /* \"#utility.yul\":14881:14886   */\n      dup3\n        /* \"#utility.yul\":14877:14931   */\n      and\n        /* \"#utility.yul\":14866:14931   */\n      swap1\n      pop\n        /* \"#utility.yul\":14811:14937   */\n      swap2\n      swap1\n      pop\n      jump\t// out\n        /* \"#utility.yul\":14943:15020   */\n    tag_231:\n        /* \"#utility.yul\":14980:14987   */\n      0x00\n        /* \"#utility.yul\":15009:15014   */\n      dup2\n        /* \"#utility.yul\":14998:15014   */\n      swap1\n      pop\n        /* \"#utility.yul\":14943:15020   */\n      swap2\n      swap1\n      pop\n      jump\t// out\n        /* \"#utility.yul\":15026:15180   */\n    tag_123:\n        /* \"#utility.yul\":15110:15116   */\n      dup3\n        /* \"#utility.yul\":15105:15108   */\n      dup2\n        /* \"#utility.yul\":15100:15103   */\n      dup4\n        /* \"#utility.yul\":15087:15117   */\n      calldatacopy\n        /* \"#utility.yul\":15172:15173   */\n      0x00\n        /* \"#utility.yul\":15163:15169   */\n      dup4\n        /* \"#utility.yul\":15158:15161   */\n      dup4\n        /* \"#utility.yul\":15154:15170   */\n      add\n        /* \"#utility.yul\":15147:15174   */\n      mstore\n        /* \"#utility.yul\":15026:15180   */\n      pop\n      pop\n      pop\n      jump\t// out\n        /* \"#utility.yul\":15186:15493   */\n    tag_195:\n        /* \"#utility.yul\":15254:15255   */\n      0x00\n        /* \"#utility.yul\":15264:15377   */\n    tag_311:\n        /* \"#utility.yul\":15278:15284   */\n      dup4\n        /* \"#utility.yul\":15275:15276   */\n      dup2\n        /* \"#utility.yul\":15272:15285   */\n      lt\n        /* \"#utility.yul\":15264:15377   */\n      iszero\n      tag_313\n      jumpi\n        /* \"#utility.yul\":15363:15364   */\n      dup1\n        /* \"#utility.yul\":15358:15361   */\n      dup3\n        /* \"#utility.yul\":15354:15365   */\n      add\n        /* \"#utility.yul\":15348:15366   */\n      mload\n        /* \"#utility.yul\":15344:15345   */\n      dup2\n        /* \"#utility.yul\":15339:15342   */\n      dup5\n        /* \"#utility.yul\":15335:15346   */\n      add\n        /* \"#utility.yul\":15328:15367   */\n      mstore\n        /* \"#utility.yul\":15300:15302   */\n      0x20\n        /* \"#utility.yul\":15297:15298   */\n      dup2\n        /* \"#utility.yul\":15293:15303   */\n      add\n        /* \"#utility.yul\":15288:15303   */\n      swap1\n      pop\n        /* \"#utility.yul\":15264:15377   */\n      jump(tag_311)\n    tag_313:\n        /* \"#utility.yul\":15395:15401   */\n      dup4\n        /* \"#utility.yul\":15392:15393   */\n      dup2\n        /* \"#utility.yul\":15389:15402   */\n      gt\n        /* \"#utility.yul\":15386:15487   */\n      iszero\n      tag_314\n      jumpi\n        /* \"#utility.yul\":15475:15476   */\n      0x00\n        /* \"#utility.yul\":15466:15472   */\n      dup5\n        /* \"#utility.yul\":15461:15464   */\n      dup5\n        /* \"#utility.yul\":15457:15473   */\n      add\n        /* \"#utility.yul\":15450:15477   */\n      mstore\n        /* \"#utility.yul\":15386:15487   */\n    tag_314:\n        /* \"#utility.yul\":15235:15493   */\n      pop\n        /* \"#utility.yul\":15186:15493   */\n      pop\n      pop\n      pop\n      jump\t// out\n        /* \"#utility.yul\":15499:15819   */\n    tag_78:\n        /* \"#utility.yul\":15543:15549   */\n      0x00\n        /* \"#utility.yul\":15580:15581   */\n      0x02\n        /* \"#utility.yul\":15574:15578   */\n      dup3\n        /* \"#utility.yul\":15570:15582   */\n      div\n        /* \"#utility.yul\":15560:15582   */\n      swap1\n      pop\n        /* \"#utility.yul\":15627:15628   */\n      0x01\n        /* \"#utility.yul\":15621:15625   */\n      dup3\n        /* \"#utility.yul\":15617:15629   */\n      and\n        /* \"#utility.yul\":15648:15666   */\n      dup1\n        /* \"#utility.yul\":15638:15719   */\n      tag_316\n      jumpi\n        /* \"#utility.yul\":15704:15708   */\n      0x7f\n        /* \"#utility.yul\":15696:15702   */\n      dup3\n        /* \"#utility.yul\":15692:15709   */\n      and\n        /* \"#utility.yul\":15682:15709   */\n      swap2\n      pop\n        /* \"#utility.yul\":15638:15719   */\n    tag_316:\n        /* \"#utility.yul\":15766:15768   */\n      0x20\n        /* \"#utility.yul\":15758:15764   */\n      dup3\n        /* \"#utility.yul\":15755:15769   */\n      lt\n        /* \"#utility.yul\":15735:15753   */\n      dup2\n        /* \"#utility.yul\":15732:15770   */\n      eq\n        /* \"#utility.yul\":15729:15813   */\n      iszero\n      tag_317\n      jumpi\n        /* \"#utility.yul\":15785:15803   */\n      tag_318\n      tag_319\n      jump\t// in\n    tag_318:\n        /* \"#utility.yul\":15729:15813   */\n    tag_317:\n        /* \"#utility.yul\":15550:15819   */\n      pop\n        /* \"#utility.yul\":15499:15819   */\n      swap2\n      swap1\n      pop\n      jump\t// out\n        /* \"#utility.yul\":15825:16106   */\n    tag_278:\n        /* \"#utility.yul\":15908:15935   */\n      tag_321\n        /* \"#utility.yul\":15930:15934   */\n      dup3\n        /* \"#utility.yul\":15908:15935   */\n      tag_197\n      jump\t// in\n    tag_321:\n        /* \"#utility.yul\":15900:15906   */\n      dup2\n        /* \"#utility.yul\":15896:15936   */\n      add\n        /* \"#utility.yul\":16038:16044   */\n      dup2\n        /* \"#utility.yul\":16026:16036   */\n      dup2\n        /* \"#utility.yul\":16023:16045   */\n      lt\n        /* \"#utility.yul\":16002:16020   */\n      0xffffffffffffffff\n        /* \"#utility.yul\":15990:16000   */\n      dup3\n        /* \"#utility.yul\":15987:16021   */\n      gt\n        /* \"#utility.yul\":15984:16046   */\n      or\n        /* \"#utility.yul\":15981:16069   */\n      iszero\n      tag_322\n      jumpi\n        /* \"#utility.yul\":16049:16067   */\n      tag_323\n      tag_283\n      jump\t// in\n    tag_323:\n        /* \"#utility.yul\":15981:16069   */\n    tag_322:\n        /* \"#utility.yul\":16089:16099   */\n      dup1\n        /* \"#utility.yul\":16085:16087   */\n      0x40\n        /* \"#utility.yul\":16078:16100   */\n      mstore\n        /* \"#utility.yul\":15868:16106   */\n      pop\n        /* \"#utility.yul\":15825:16106   */\n      pop\n      pop\n      jump\t// out\n        /* \"#utility.yul\":16112:16212   */\n    tag_169:\n        /* \"#utility.yul\":16151:16158   */\n      0x00\n        /* \"#utility.yul\":16180:16206   */\n      tag_325\n        /* \"#utility.yul\":16200:16205   */\n      dup3\n        /* \"#utility.yul\":16180:16206   */\n      tag_326\n      jump\t// in\n    tag_325:\n        /* \"#utility.yul\":16169:16206   */\n      swap1\n      pop\n        /* \"#utility.yul\":16112:16212   */\n      swap2\n      swap1\n      pop\n      jump\t// out\n        /* \"#utility.yul\":16218:16312   */\n    tag_326:\n        /* \"#utility.yul\":16257:16264   */\n      0x00\n        /* \"#utility.yul\":16286:16306   */\n      tag_328\n        /* \"#utility.yul\":16300:16305   */\n      dup3\n        /* \"#utility.yul\":16286:16306   */\n      tag_329\n      jump\t// in\n    tag_328:\n        /* \"#utility.yul\":16275:16306   */\n      swap1\n      pop\n        /* \"#utility.yul\":16218:16312   */\n      swap2\n      swap1\n      pop\n      jump\t// out\n        /* \"#utility.yul\":16318:16397   */\n    tag_239:\n        /* \"#utility.yul\":16357:16364   */\n      0x00\n        /* \"#utility.yul\":16386:16391   */\n      dup2\n        /* \"#utility.yul\":16375:16391   */\n      swap1\n      pop\n        /* \"#utility.yul\":16318:16397   */\n      swap2\n      swap1\n      pop\n      jump\t// out\n        /* \"#utility.yul\":16403:16579   */\n    tag_100:\n        /* \"#utility.yul\":16435:16436   */\n      0x00\n        /* \"#utility.yul\":16452:16472   */\n      tag_332\n        /* \"#utility.yul\":16470:16471   */\n      dup3\n        /* \"#utility.yul\":16452:16472   */\n      tag_231\n      jump\t// in\n    tag_332:\n        /* \"#utility.yul\":16447:16472   */\n      swap2\n      pop\n        /* \"#utility.yul\":16486:16506   */\n      tag_333\n        /* \"#utility.yul\":16504:16505   */\n      dup4\n        /* \"#utility.yul\":16486:16506   */\n      tag_231\n      jump\t// in\n    tag_333:\n        /* \"#utility.yul\":16481:16506   */\n      swap3\n      pop\n        /* \"#utility.yul\":16525:16526   */\n      dup3\n        /* \"#utility.yul\":16515:16550   */\n      tag_334\n      jumpi\n        /* \"#utility.yul\":16530:16548   */\n      tag_335\n      tag_336\n      jump\t// in\n    tag_335:\n        /* \"#utility.yul\":16515:16550   */\n    tag_334:\n        /* \"#utility.yul\":16571:16572   */\n      dup3\n        /* \"#utility.yul\":16568:16569   */\n      dup3\n        /* \"#utility.yul\":16564:16573   */\n      mod\n        /* \"#utility.yul\":16559:16573   */\n      swap1\n      pop\n        /* \"#utility.yul\":16403:16579   */\n      swap3\n      swap2\n      pop\n      pop\n      jump\t// out\n        /* \"#utility.yul\":16585:16765   */\n    tag_297:\n        /* \"#utility.yul\":16633:16710   */\n      0x4e487b7100000000000000000000000000000000000000000000000000000000\n        /* \"#utility.yul\":16630:16631   */\n      0x00\n        /* \"#utility.yul\":16623:16711   */\n      mstore\n        /* \"#utility.yul\":16730:16734   */\n      0x11\n        /* \"#utility.yul\":16727:16728   */\n      0x04\n        /* \"#utility.yul\":16720:16735   */\n      mstore\n        /* \"#utility.yul\":16754:16758   */\n      0x24\n        /* \"#utility.yul\":16751:16752   */\n      0x00\n        /* \"#utility.yul\":16744:16759   */\n      revert\n        /* \"#utility.yul\":16771:16951   */\n    tag_336:\n        /* \"#utility.yul\":16819:16896   */\n      0x4e487b7100000000000000000000000000000000000000000000000000000000\n        /* \"#utility.yul\":16816:16817   */\n      0x00\n        /* \"#utility.yul\":16809:16897   */\n      mstore\n        /* \"#utility.yul\":16916:16920   */\n      0x12\n        /* \"#utility.yul\":16913:16914   */\n      0x04\n        /* \"#utility.yul\":16906:16921   */\n      mstore\n        /* \"#utility.yul\":16940:16944   */\n      0x24\n        /* \"#utility.yul\":16937:16938   */\n      0x00\n        /* \"#utility.yul\":16930:16945   */\n      revert\n        /* \"#utility.yul\":16957:17137   */\n    tag_319:\n        /* \"#utility.yul\":17005:17082   */\n      0x4e487b7100000000000000000000000000000000000000000000000000000000\n        /* \"#utility.yul\":17002:17003   */\n      0x00\n        /* \"#utility.yul\":16995:17083   */\n      mstore\n        /* \"#utility.yul\":17102:17106   */\n      0x22\n        /* \"#utility.yul\":17099:17100   */\n      0x04\n        /* \"#utility.yul\":17092:17107   */\n      mstore\n        /* \"#utility.yul\":17126:17130   */\n      0x24\n        /* \"#utility.yul\":17123:17124   */\n      0x00\n        /* \"#utility.yul\":17116:17131   */\n      revert\n        /* \"#utility.yul\":17143:17323   */\n    tag_283:\n        /* \"#utility.yul\":17191:17268   */\n      0x4e487b7100000000000000000000000000000000000000000000000000000000\n        /* \"#utility.yul\":17188:17189   */\n      0x00\n        /* \"#utility.yul\":17181:17269   */\n      mstore\n        /* \"#utility.yul\":17288:17292   */\n      0x41\n        /* \"#utility.yul\":17285:17286   */\n      0x04\n        /* \"#utility.yul\":17278:17293   */\n      mstore\n        /* \"#utility.yul\":17312:17316   */\n      0x24\n        /* \"#utility.yul\":17309:17310   */\n      0x00\n        /* \"#utility.yul\":17302:17317   */\n      revert\n        /* \"#utility.yul\":17329:17446   */\n    tag_132:\n        /* \"#utility.yul\":17438:17439   */\n      0x00\n        /* \"#utility.yul\":17435:17436   */\n      dup1\n        /* \"#utility.yul\":17428:17440   */\n      revert\n        /* \"#utility.yul\":17452:17569   */\n    tag_121:\n        /* \"#utility.yul\":17561:17562   */\n      0x00\n        /* \"#utility.yul\":17558:17559   */\n      dup1\n        /* \"#utility.yul\":17551:17563   */\n      revert\n        /* \"#utility.yul\":17575:17692   */\n    tag_155:\n        /* \"#utility.yul\":17684:17685   */\n      0x00\n        /* \"#utility.yul\":17681:17682   */\n      dup1\n        /* \"#utility.yul\":17674:17686   */\n      revert\n        /* \"#utility.yul\":17698:17815   */\n    tag_141:\n        /* \"#utility.yul\":17807:17808   */\n      0x00\n        /* \"#utility.yul\":17804:17805   */\n      dup1\n        /* \"#utility.yul\":17797:17809   */\n      revert\n        /* \"#utility.yul\":17821:17923   */\n    tag_197:\n        /* \"#utility.yul\":17862:17868   */\n      0x00\n        /* \"#utility.yul\":17913:17915   */\n      0x1f\n        /* \"#utility.yul\":17909:17916   */\n      not\n        /* \"#utility.yul\":17904:17906   */\n      0x1f\n        /* \"#utility.yul\":17897:17902   */\n      dup4\n        /* \"#utility.yul\":17893:17907   */\n      add\n        /* \"#utility.yul\":17889:17917   */\n      and\n        /* \"#utility.yul\":17879:17917   */\n      swap1\n      pop\n        /* \"#utility.yul\":17821:17923   */\n      swap2\n      swap1\n      pop\n      jump\t// out\n        /* \"#utility.yul\":17929:18023   */\n    tag_329:\n        /* \"#utility.yul\":17962:17970   */\n      0x00\n        /* \"#utility.yul\":18010:18015   */\n      dup2\n        /* \"#utility.yul\":18006:18008   */\n      0x60\n        /* \"#utility.yul\":18002:18016   */\n      shl\n        /* \"#utility.yul\":17981:18016   */\n      swap1\n      pop\n        /* \"#utility.yul\":17929:18023   */\n      swap2\n      swap1\n      pop\n      jump\t// out\n        /* \"#utility.yul\":18029:18254   */\n    tag_208:\n        /* \"#utility.yul\":18169:18203   */\n      0x4f776e61626c653a206e6577206f776e657220697320746865207a65726f2061\n        /* \"#utility.yul\":18165:18166   */\n      0x00\n        /* \"#utility.yul\":18157:18163   */\n      dup3\n        /* \"#utility.yul\":18153:18167   */\n      add\n        /* \"#utility.yul\":18146:18204   */\n      mstore\n        /* \"#utility.yul\":18238:18246   */\n      0x6464726573730000000000000000000000000000000000000000000000000000\n        /* \"#utility.yul\":18233:18235   */\n      0x20\n        /* \"#utility.yul\":18225:18231   */\n      dup3\n        /* \"#utility.yul\":18221:18236   */\n      add\n        /* \"#utility.yul\":18214:18247   */\n      mstore\n        /* \"#utility.yul\":18029:18254   */\n      pop\n      jump\t// out\n        /* \"#utility.yul\":18260:18430   */\n    tag_213:\n        /* \"#utility.yul\":18400:18422   */\n      0x76616c75652063616e6e6f74206265206e756c6c000000000000000000000000\n        /* \"#utility.yul\":18396:18397   */\n      0x00\n        /* \"#utility.yul\":18388:18394   */\n      dup3\n        /* \"#utility.yul\":18384:18398   */\n      add\n        /* \"#utility.yul\":18377:18423   */\n      mstore\n        /* \"#utility.yul\":18260:18430   */\n      pop\n      jump\t// out\n        /* \"#utility.yul\":18436:18618   */\n    tag_218:\n        /* \"#utility.yul\":18576:18610   */\n      0x4f776e61626c653a2063616c6c6572206973206e6f7420746865206f776e6572\n        /* \"#utility.yul\":18572:18573   */\n      0x00\n        /* \"#utility.yul\":18564:18570   */\n      dup3\n        /* \"#utility.yul\":18560:18574   */\n      add\n        /* \"#utility.yul\":18553:18611   */\n      mstore\n        /* \"#utility.yul\":18436:18618   */\n      pop\n      jump\t// out\n        /* \"#utility.yul\":18624:18801   */\n    tag_223:\n        /* \"#utility.yul\":18764:18793   */\n      0x7468697320686f757365496420616c7265616479206578697374730000000000\n        /* \"#utility.yul\":18760:18761   */\n      0x00\n        /* \"#utility.yul\":18752:18758   */\n      dup3\n        /* \"#utility.yul\":18748:18762   */\n      add\n        /* \"#utility.yul\":18741:18794   */\n      mstore\n        /* \"#utility.yul\":18624:18801   */\n      pop\n      jump\t// out\n        /* \"#utility.yul\":18807:19037   */\n    tag_228:\n        /* \"#utility.yul\":18947:18981   */\n      0x596f7520646f206e6f7420686176652061636365737320746f2064656c657465\n        /* \"#utility.yul\":18943:18944   */\n      0x00\n        /* \"#utility.yul\":18935:18941   */\n      dup3\n        /* \"#utility.yul\":18931:18945   */\n      add\n        /* \"#utility.yul\":18924:18982   */\n      mstore\n        /* \"#utility.yul\":19016:19029   */\n      0x207468697320686f757365000000000000000000000000000000000000000000\n        /* \"#utility.yul\":19011:19013   */\n      0x20\n        /* \"#utility.yul\":19003:19009   */\n      dup3\n        /* \"#utility.yul\":18999:19014   */\n      add\n        /* \"#utility.yul\":18992:19030   */\n      mstore\n        /* \"#utility.yul\":18807:19037   */\n      pop\n      jump\t// out\n        /* \"#utility.yul\":19043:19165   */\n    tag_127:\n        /* \"#utility.yul\":19116:19140   */\n      tag_353\n        /* \"#utility.yul\":19134:19139   */\n      dup2\n        /* \"#utility.yul\":19116:19140   */\n      tag_164\n      jump\t// in\n    tag_353:\n        /* \"#utility.yul\":19109:19114   */\n      dup2\n        /* \"#utility.yul\":19106:19141   */\n      eq\n        /* \"#utility.yul\":19096:19159   */\n      tag_354\n      jumpi\n        /* \"#utility.yul\":19155:19156   */\n      0x00\n        /* \"#utility.yul\":19152:19153   */\n      dup1\n        /* \"#utility.yul\":19145:19157   */\n      revert\n        /* \"#utility.yul\":19096:19159   */\n    tag_354:\n        /* \"#utility.yul\":19043:19165   */\n      pop\n      jump\t// out\n        /* \"#utility.yul\":19171:19293   */\n    tag_137:\n        /* \"#utility.yul\":19244:19268   */\n      tag_356\n        /* \"#utility.yul\":19262:19267   */\n      dup2\n        /* \"#utility.yul\":19244:19268   */\n      tag_231\n      jump\t// in\n    tag_356:\n        /* \"#utility.yul\":19237:19242   */\n      dup2\n        /* \"#utility.yul\":19234:19269   */\n      eq\n        /* \"#utility.yul\":19224:19287   */\n      tag_357\n      jumpi\n        /* \"#utility.yul\":19283:19284   */\n      0x00\n        /* \"#utility.yul\":19280:19281   */\n      dup1\n        /* \"#utility.yul\":19273:19285   */\n      revert\n        /* \"#utility.yul\":19224:19287   */\n    tag_357:\n        /* \"#utility.yul\":19171:19293   */\n      pop\n      jump\t// out\n\n    auxdata: 0xa264697066735822122045ec673f816a694c14d9403d5a03241ceb6e7a2a8b7657bce1b27738ec9a663c64736f6c63430008070033\n}\n",
				"bytecode": {
					"linkReferences": {},
					"object": "60806040526005600255600254600a6200001a91906200017f565b600355620151806004553480156200003157600080fd5b5062000052620000466200005860201b60201c565b6200006060201b60201c565b62000302565b600033905090565b60008060009054906101000a900473ffffffffffffffffffffffffffffffffffffffff169050816000806101000a81548173ffffffffffffffffffffffffffffffffffffffff021916908373ffffffffffffffffffffffffffffffffffffffff1602179055508173ffffffffffffffffffffffffffffffffffffffff168173ffffffffffffffffffffffffffffffffffffffff167f8be0079c531659141344cd1fd0a4f28419497f9722a3daafe3b4186f6b6457e060405160405180910390a35050565b6000808291508390505b600185111562000176578086048111156200014e576200014d620002c6565b5b60018516156200015e5780820291505b80810290506200016e85620002f5565b94506200012e565b94509492505050565b60006200018c82620002bc565b91506200019983620002bc565b9250620001c87fffffffffffffffffffffffffffffffffffffffffffffffffffffffffffffffff8484620001d0565b905092915050565b600082620001e25760019050620002b5565b81620001f25760009050620002b5565b81600181146200020b576002811462000216576200024c565b6001915050620002b5565b60ff8411156200022b576200022a620002c6565b5b8360020a915084821115620002455762000244620002c6565b5b50620002b5565b5060208310610133831016604e8410600b8410161715620002865782820a90508381111562000280576200027f620002c6565b5b620002b5565b62000295848484600162000124565b92509050818404811115620002af57620002ae620002c6565b5b81810290505b9392505050565b6000819050919050565b7f4e487b7100000000000000000000000000000000000000000000000000000000600052601160045260246000fd5b60008160011c9050919050565b6113af80620003126000396000f3fe608060405234801561001057600080fd5b506004361061007d5760003560e01c806391bfe0d41161005b57806391bfe0d4146100da578063aeda852f1461010a578063c45e1b251461013f578063f2fde38b1461016f5761007d565b80633c3b0b4a14610082578063715018a6146100b25780638da5cb5b146100bc575b600080fd5b61009c600480360381019061009791906109e2565b61018b565b6040516100a99190610d01565b60405180910390f35b6100ba61029d565b005b6100c4610325565b6040516100d19190610cc4565b60405180910390f35b6100f460048036038101906100ef9190610a0f565b61034e565b6040516101019190610dc3565b60405180910390f35b610124600480360381019061011f91906109e2565b610562565b60405161013696959493929190610e2a565b60405180910390f35b610159600480360381019061015491906109e2565b610653565b6040516101669190610cdf565b60405180910390f35b610189600480360381019061018491906109b5565b61065f565b005b60603373ffffffffffffffffffffffffffffffffffffffff166005600084815260200190815260200160002060030160009054906101000a900473ffffffffffffffffffffffffffffffffffffffff1673ffffffffffffffffffffffffffffffffffffffff1614610231576040517f08c379a000000000000000000000000000000000000000000000000000000000815260040161022890610da3565b60405180910390fd5b60016005600084815260200190815260200160002060050160006101000a81548160ff0219169083151502179055506040518060400160405280601581526020017f64656c69737420776173207375636365737366756c00000000000000000000008152509050919050565b6102a5610757565b73ffffffffffffffffffffffffffffffffffffffff166102c3610325565b73ffffffffffffffffffffffffffffffffffffffff1614610319576040517f08c379a000000000000000000000000000000000000000000000000000000000815260040161031090610d63565b60405180910390fd5b610323600061075f565b565b60008060009054906101000a900473ffffffffffffffffffffffffffffffffffffffff16905090565b600080848661035d9190610f9e565b1161039d576040517f08c379a000000000000000000000000000000000000000000000000000000000815260040161039490610d43565b60405180910390fd5b60006103aa848685610823565b90506005600082815260200190815260200160002060000154811415610405576040517f08c379a00000000000000000000000000000000000000000000000000000000081526004016103fc90610d83565b60405180910390fd5b6040518060c001604052808281526020018781526020018681526020018573ffffffffffffffffffffffffffffffffffffffff168152602001848152602001600015158152506005600083815260200190815260200160002060008201518160000155602082015181600101556040820151816002015560608201518160030160006101000a81548173ffffffffffffffffffffffffffffffffffffffff021916908373ffffffffffffffffffffffffffffffffffffffff16021790555060808201518160040190805190602001906104df929190610878565b5060a08201518160050160006101000a81548160ff021916908315150217905550905050610519600454426105149190610f48565b61086e565b7f8f5afd88eb4be0ac287d87970052ce9a2b453448408e3c91a695ad7509ab71948185888660405161054e9493929190610dde565b60405180910390a180915050949350505050565b60056020528060005260406000206000915090508060000154908060010154908060020154908060030160009054906101000a900473ffffffffffffffffffffffffffffffffffffffff16908060040180546105bd90611082565b80601f01602080910402602001604051908101604052809291908181526020018280546105e990611082565b80156106365780601f1061060b57610100808354040283529160200191610636565b820191906000526020600020905b81548152906001019060200180831161061957829003601f168201915b5050505050908060050160009054906101000a900460ff16905086565b60608080915050919050565b610667610757565b73ffffffffffffffffffffffffffffffffffffffff16610685610325565b73ffffffffffffffffffffffffffffffffffffffff16146106db576040517f08c379a00000000000000000000000000000000000000000000000000000000081526004016106d290610d63565b60405180910390fd5b600073ffffffffffffffffffffffffffffffffffffffff168173ffffffffffffffffffffffffffffffffffffffff16141561074b576040517f08c379a000000000000000000000000000000000000000000000000000000000815260040161074290610d23565b60405180910390fd5b6107548161075f565b50565b600033905090565b60008060009054906101000a900473ffffffffffffffffffffffffffffffffffffffff169050816000806101000a81548173ffffffffffffffffffffffffffffffffffffffff021916908373ffffffffffffffffffffffffffffffffffffffff1602179055508173ffffffffffffffffffffffffffffffffffffffff168173ffffffffffffffffffffffffffffffffffffffff167f8be0079c531659141344cd1fd0a4f28419497f9722a3daafe3b4186f6b6457e060405160405180910390a35050565b60008084848460405160200161083b93929190610c8b565b6040516020818303038152906040528051906020012060001c9050600354816108649190611113565b9150509392505050565b8060018190555050565b82805461088490611082565b90600052602060002090601f0160209004810192826108a657600085556108ed565b82601f106108bf57805160ff19168380011785556108ed565b828001600101855582156108ed579182015b828111156108ec5782518255916020019190600101906108d1565b5b5090506108fa91906108fe565b5090565b5b808211156109175760008160009055506001016108ff565b5090565b600061092e61092984610eb7565b610e92565b90508281526020810184848401111561094a57610949611205565b5b610955848285611040565b509392505050565b60008135905061096c8161134b565b92915050565b600082601f83011261098757610986611200565b5b813561099784826020860161091b565b91505092915050565b6000813590506109af81611362565b92915050565b6000602082840312156109cb576109ca61120f565b5b60006109d98482850161095d565b91505092915050565b6000602082840312156109f8576109f761120f565b5b6000610a06848285016109a0565b91505092915050565b60008060008060808587031215610a2957610a2861120f565b5b6000610a37878288016109a0565b9450506020610a48878288016109a0565b9350506040610a598782880161095d565b925050606085013567ffffffffffffffff811115610a7a57610a7961120a565b5b610a8687828801610972565b91505092959194509250565b6000610a9e8383610c56565b60208301905092915050565b610ab381610ff8565b82525050565b610aca610ac582610ff8565b6110e5565b82525050565b6000610adb82610ef8565b610ae58185610f1b565b9350610af083610ee8565b8060005b83811015610b21578151610b088882610a92565b9750610b1383610f0e565b925050600181019050610af4565b5085935050505092915050565b610b378161100a565b82525050565b6000610b4882610f03565b610b528185610f2c565b9350610b6281856020860161104f565b610b6b81611214565b840191505092915050565b6000610b8182610f03565b610b8b8185610f3d565b9350610b9b81856020860161104f565b80840191505092915050565b6000610bb4602683610f2c565b9150610bbf82611232565b604082019050919050565b6000610bd7601483610f2c565b9150610be282611281565b602082019050919050565b6000610bfa602083610f2c565b9150610c05826112aa565b602082019050919050565b6000610c1d601b83610f2c565b9150610c28826112d3565b602082019050919050565b6000610c40602b83610f2c565b9150610c4b826112fc565b604082019050919050565b610c5f81611036565b82525050565b610c6e81611036565b82525050565b610c85610c8082611036565b611109565b82525050565b6000610c978286610ab9565b601482019150610ca78285610c74565b602082019150610cb78284610b76565b9150819050949350505050565b6000602082019050610cd96000830184610aaa565b92915050565b60006020820190508181036000830152610cf98184610ad0565b905092915050565b60006020820190508181036000830152610d1b8184610b3d565b905092915050565b60006020820190508181036000830152610d3c81610ba7565b9050919050565b60006020820190508181036000830152610d5c81610bca565b9050919050565b60006020820190508181036000830152610d7c81610bed565b9050919050565b60006020820190508181036000830152610d9c81610c10565b9050919050565b60006020820190508181036000830152610dbc81610c33565b9050919050565b6000602082019050610dd86000830184610c65565b92915050565b6000608082019050610df36000830187610c65565b610e006020830186610aaa565b610e0d6040830185610c65565b8181036060830152610e1f8184610b3d565b905095945050505050565b600060c082019050610e3f6000830189610c65565b610e4c6020830188610c65565b610e596040830187610c65565b610e666060830186610aaa565b8181036080830152610e788185610b3d565b9050610e8760a0830184610b2e565b979650505050505050565b6000610e9c610ead565b9050610ea882826110b4565b919050565b6000604051905090565b600067ffffffffffffffff821115610ed257610ed16111d1565b5b610edb82611214565b9050602081019050919050565b6000819050602082019050919050565b600081519050919050565b600081519050919050565b6000602082019050919050565b600082825260208201905092915050565b600082825260208201905092915050565b600081905092915050565b6000610f5382611036565b9150610f5e83611036565b9250827fffffffffffffffffffffffffffffffffffffffffffffffffffffffffffffffff03821115610f9357610f92611144565b5b828201905092915050565b6000610fa982611036565b9150610fb483611036565b9250817fffffffffffffffffffffffffffffffffffffffffffffffffffffffffffffffff0483118215151615610fed57610fec611144565b5b828202905092915050565b600061100382611016565b9050919050565b60008115159050919050565b600073ffffffffffffffffffffffffffffffffffffffff82169050919050565b6000819050919050565b82818337600083830152505050565b60005b8381101561106d578082015181840152602081019050611052565b8381111561107c576000848401525b50505050565b6000600282049050600182168061109a57607f821691505b602082108114156110ae576110ad6111a2565b5b50919050565b6110bd82611214565b810181811067ffffffffffffffff821117156110dc576110db6111d1565b5b80604052505050565b60006110f0826110f7565b9050919050565b600061110282611225565b9050919050565b6000819050919050565b600061111e82611036565b915061112983611036565b92508261113957611138611173565b5b828206905092915050565b7f4e487b7100000000000000000000000000000000000000000000000000000000600052601160045260246000fd5b7f4e487b7100000000000000000000000000000000000000000000000000000000600052601260045260246000fd5b7f4e487b7100000000000000000000000000000000000000000000000000000000600052602260045260246000fd5b7f4e487b7100000000000000000000000000000000000000000000000000000000600052604160045260246000fd5b600080fd5b600080fd5b600080fd5b600080fd5b6000601f19601f8301169050919050565b60008160601b9050919050565b7f4f776e61626c653a206e6577206f776e657220697320746865207a65726f206160008201527f6464726573730000000000000000000000000000000000000000000000000000602082015250565b7f76616c75652063616e6e6f74206265206e756c6c000000000000000000000000600082015250565b7f4f776e61626c653a2063616c6c6572206973206e6f7420746865206f776e6572600082015250565b7f7468697320686f757365496420616c7265616479206578697374730000000000600082015250565b7f596f7520646f206e6f7420686176652061636365737320746f2064656c65746560008201527f207468697320686f757365000000000000000000000000000000000000000000602082015250565b61135481610ff8565b811461135f57600080fd5b50565b61136b81611036565b811461137657600080fd5b5056fea264697066735822122045ec673f816a694c14d9403d5a03241ceb6e7a2a8b7657bce1b27738ec9a663c64736f6c63430008070033",
					"opcodes": "PUSH1 0x80 PUSH1 0x40 MSTORE PUSH1 0x5 PUSH1 0x2 SSTORE PUSH1 0x2 SLOAD PUSH1 0xA PUSH3 0x1A SWAP2 SWAP1 PUSH3 0x17F JUMP JUMPDEST PUSH1 0x3 SSTORE PUSH3 0x15180 PUSH1 0x4 SSTORE CALLVALUE DUP1 ISZERO PUSH3 0x31 JUMPI PUSH1 0x0 DUP1 REVERT JUMPDEST POP PUSH3 0x52 PUSH3 0x46 PUSH3 0x58 PUSH1 0x20 SHL PUSH1 0x20 SHR JUMP JUMPDEST PUSH3 0x60 PUSH1 0x20 SHL PUSH1 0x20 SHR JUMP JUMPDEST PUSH3 0x302 JUMP JUMPDEST PUSH1 0x0 CALLER SWAP1 POP SWAP1 JUMP JUMPDEST PUSH1 0x0 DUP1 PUSH1 0x0 SWAP1 SLOAD SWAP1 PUSH2 0x100 EXP SWAP1 DIV PUSH20 0xFFFFFFFFFFFFFFFFFFFFFFFFFFFFFFFFFFFFFFFF AND SWAP1 POP DUP2 PUSH1 0x0 DUP1 PUSH2 0x100 EXP DUP2 SLOAD DUP2 PUSH20 0xFFFFFFFFFFFFFFFFFFFFFFFFFFFFFFFFFFFFFFFF MUL NOT AND SWAP1 DUP4 PUSH20 0xFFFFFFFFFFFFFFFFFFFFFFFFFFFFFFFFFFFFFFFF AND MUL OR SWAP1 SSTORE POP DUP2 PUSH20 0xFFFFFFFFFFFFFFFFFFFFFFFFFFFFFFFFFFFFFFFF AND DUP2 PUSH20 0xFFFFFFFFFFFFFFFFFFFFFFFFFFFFFFFFFFFFFFFF AND PUSH32 0x8BE0079C531659141344CD1FD0A4F28419497F9722A3DAAFE3B4186F6B6457E0 PUSH1 0x40 MLOAD PUSH1 0x40 MLOAD DUP1 SWAP2 SUB SWAP1 LOG3 POP POP JUMP JUMPDEST PUSH1 0x0 DUP1 DUP3 SWAP2 POP DUP4 SWAP1 POP JUMPDEST PUSH1 0x1 DUP6 GT ISZERO PUSH3 0x176 JUMPI DUP1 DUP7 DIV DUP2 GT ISZERO PUSH3 0x14E JUMPI PUSH3 0x14D PUSH3 0x2C6 JUMP JUMPDEST JUMPDEST PUSH1 0x1 DUP6 AND ISZERO PUSH3 0x15E JUMPI DUP1 DUP3 MUL SWAP2 POP JUMPDEST DUP1 DUP2 MUL SWAP1 POP PUSH3 0x16E DUP6 PUSH3 0x2F5 JUMP JUMPDEST SWAP5 POP PUSH3 0x12E JUMP JUMPDEST SWAP5 POP SWAP5 SWAP3 POP POP POP JUMP JUMPDEST PUSH1 0x0 PUSH3 0x18C DUP3 PUSH3 0x2BC JUMP JUMPDEST SWAP2 POP PUSH3 0x199 DUP4 PUSH3 0x2BC JUMP JUMPDEST SWAP3 POP PUSH3 0x1C8 PUSH32 0xFFFFFFFFFFFFFFFFFFFFFFFFFFFFFFFFFFFFFFFFFFFFFFFFFFFFFFFFFFFFFFFF DUP5 DUP5 PUSH3 0x1D0 JUMP JUMPDEST SWAP1 POP SWAP3 SWAP2 POP POP JUMP JUMPDEST PUSH1 0x0 DUP3 PUSH3 0x1E2 JUMPI PUSH1 0x1 SWAP1 POP PUSH3 0x2B5 JUMP JUMPDEST DUP2 PUSH3 0x1F2 JUMPI PUSH1 0x0 SWAP1 POP PUSH3 0x2B5 JUMP JUMPDEST DUP2 PUSH1 0x1 DUP2 EQ PUSH3 0x20B JUMPI PUSH1 0x2 DUP2 EQ PUSH3 0x216 JUMPI PUSH3 0x24C JUMP JUMPDEST PUSH1 0x1 SWAP2 POP POP PUSH3 0x2B5 JUMP JUMPDEST PUSH1 0xFF DUP5 GT ISZERO PUSH3 0x22B JUMPI PUSH3 0x22A PUSH3 0x2C6 JUMP JUMPDEST JUMPDEST DUP4 PUSH1 0x2 EXP SWAP2 POP DUP5 DUP3 GT ISZERO PUSH3 0x245 JUMPI PUSH3 0x244 PUSH3 0x2C6 JUMP JUMPDEST JUMPDEST POP PUSH3 0x2B5 JUMP JUMPDEST POP PUSH1 0x20 DUP4 LT PUSH2 0x133 DUP4 LT AND PUSH1 0x4E DUP5 LT PUSH1 0xB DUP5 LT AND OR ISZERO PUSH3 0x286 JUMPI DUP3 DUP3 EXP SWAP1 POP DUP4 DUP2 GT ISZERO PUSH3 0x280 JUMPI PUSH3 0x27F PUSH3 0x2C6 JUMP JUMPDEST JUMPDEST PUSH3 0x2B5 JUMP JUMPDEST PUSH3 0x295 DUP5 DUP5 DUP5 PUSH1 0x1 PUSH3 0x124 JUMP JUMPDEST SWAP3 POP SWAP1 POP DUP2 DUP5 DIV DUP2 GT ISZERO PUSH3 0x2AF JUMPI PUSH3 0x2AE PUSH3 0x2C6 JUMP JUMPDEST JUMPDEST DUP2 DUP2 MUL SWAP1 POP JUMPDEST SWAP4 SWAP3 POP POP POP JUMP JUMPDEST PUSH1 0x0 DUP2 SWAP1 POP SWAP2 SWAP1 POP JUMP JUMPDEST PUSH32 0x4E487B7100000000000000000000000000000000000000000000000000000000 PUSH1 0x0 MSTORE PUSH1 0x11 PUSH1 0x4 MSTORE PUSH1 0x24 PUSH1 0x0 REVERT JUMPDEST PUSH1 0x0 DUP2 PUSH1 0x1 SHR SWAP1 POP SWAP2 SWAP1 POP JUMP JUMPDEST PUSH2 0x13AF DUP1 PUSH3 0x312 PUSH1 0x0 CODECOPY PUSH1 0x0 RETURN INVALID PUSH1 0x80 PUSH1 0x40 MSTORE CALLVALUE DUP1 ISZERO PUSH2 0x10 JUMPI PUSH1 0x0 DUP1 REVERT JUMPDEST POP PUSH1 0x4 CALLDATASIZE LT PUSH2 0x7D JUMPI PUSH1 0x0 CALLDATALOAD PUSH1 0xE0 SHR DUP1 PUSH4 0x91BFE0D4 GT PUSH2 0x5B JUMPI DUP1 PUSH4 0x91BFE0D4 EQ PUSH2 0xDA JUMPI DUP1 PUSH4 0xAEDA852F EQ PUSH2 0x10A JUMPI DUP1 PUSH4 0xC45E1B25 EQ PUSH2 0x13F JUMPI DUP1 PUSH4 0xF2FDE38B EQ PUSH2 0x16F JUMPI PUSH2 0x7D JUMP JUMPDEST DUP1 PUSH4 0x3C3B0B4A EQ PUSH2 0x82 JUMPI DUP1 PUSH4 0x715018A6 EQ PUSH2 0xB2 JUMPI DUP1 PUSH4 0x8DA5CB5B EQ PUSH2 0xBC JUMPI JUMPDEST PUSH1 0x0 DUP1 REVERT JUMPDEST PUSH2 0x9C PUSH1 0x4 DUP1 CALLDATASIZE SUB DUP2 ADD SWAP1 PUSH2 0x97 SWAP2 SWAP1 PUSH2 0x9E2 JUMP JUMPDEST PUSH2 0x18B JUMP JUMPDEST PUSH1 0x40 MLOAD PUSH2 0xA9 SWAP2 SWAP1 PUSH2 0xD01 JUMP JUMPDEST PUSH1 0x40 MLOAD DUP1 SWAP2 SUB SWAP1 RETURN JUMPDEST PUSH2 0xBA PUSH2 0x29D JUMP JUMPDEST STOP JUMPDEST PUSH2 0xC4 PUSH2 0x325 JUMP JUMPDEST PUSH1 0x40 MLOAD PUSH2 0xD1 SWAP2 SWAP1 PUSH2 0xCC4 JUMP JUMPDEST PUSH1 0x40 MLOAD DUP1 SWAP2 SUB SWAP1 RETURN JUMPDEST PUSH2 0xF4 PUSH1 0x4 DUP1 CALLDATASIZE SUB DUP2 ADD SWAP1 PUSH2 0xEF SWAP2 SWAP1 PUSH2 0xA0F JUMP JUMPDEST PUSH2 0x34E JUMP JUMPDEST PUSH1 0x40 MLOAD PUSH2 0x101 SWAP2 SWAP1 PUSH2 0xDC3 JUMP JUMPDEST PUSH1 0x40 MLOAD DUP1 SWAP2 SUB SWAP1 RETURN JUMPDEST PUSH2 0x124 PUSH1 0x4 DUP1 CALLDATASIZE SUB DUP2 ADD SWAP1 PUSH2 0x11F SWAP2 SWAP1 PUSH2 0x9E2 JUMP JUMPDEST PUSH2 0x562 JUMP JUMPDEST PUSH1 0x40 MLOAD PUSH2 0x136 SWAP7 SWAP6 SWAP5 SWAP4 SWAP3 SWAP2 SWAP1 PUSH2 0xE2A JUMP JUMPDEST PUSH1 0x40 MLOAD DUP1 SWAP2 SUB SWAP1 RETURN JUMPDEST PUSH2 0x159 PUSH1 0x4 DUP1 CALLDATASIZE SUB DUP2 ADD SWAP1 PUSH2 0x154 SWAP2 SWAP1 PUSH2 0x9E2 JUMP JUMPDEST PUSH2 0x653 JUMP JUMPDEST PUSH1 0x40 MLOAD PUSH2 0x166 SWAP2 SWAP1 PUSH2 0xCDF JUMP JUMPDEST PUSH1 0x40 MLOAD DUP1 SWAP2 SUB SWAP1 RETURN JUMPDEST PUSH2 0x189 PUSH1 0x4 DUP1 CALLDATASIZE SUB DUP2 ADD SWAP1 PUSH2 0x184 SWAP2 SWAP1 PUSH2 0x9B5 JUMP JUMPDEST PUSH2 0x65F JUMP JUMPDEST STOP JUMPDEST PUSH1 0x60 CALLER PUSH20 0xFFFFFFFFFFFFFFFFFFFFFFFFFFFFFFFFFFFFFFFF AND PUSH1 0x5 PUSH1 0x0 DUP5 DUP2 MSTORE PUSH1 0x20 ADD SWAP1 DUP2 MSTORE PUSH1 0x20 ADD PUSH1 0x0 KECCAK256 PUSH1 0x3 ADD PUSH1 0x0 SWAP1 SLOAD SWAP1 PUSH2 0x100 EXP SWAP1 DIV PUSH20 0xFFFFFFFFFFFFFFFFFFFFFFFFFFFFFFFFFFFFFFFF AND PUSH20 0xFFFFFFFFFFFFFFFFFFFFFFFFFFFFFFFFFFFFFFFF AND EQ PUSH2 0x231 JUMPI PUSH1 0x40 MLOAD PUSH32 0x8C379A000000000000000000000000000000000000000000000000000000000 DUP2 MSTORE PUSH1 0x4 ADD PUSH2 0x228 SWAP1 PUSH2 0xDA3 JUMP JUMPDEST PUSH1 0x40 MLOAD DUP1 SWAP2 SUB SWAP1 REVERT JUMPDEST PUSH1 0x1 PUSH1 0x5 PUSH1 0x0 DUP5 DUP2 MSTORE PUSH1 0x20 ADD SWAP1 DUP2 MSTORE PUSH1 0x20 ADD PUSH1 0x0 KECCAK256 PUSH1 0x5 ADD PUSH1 0x0 PUSH2 0x100 EXP DUP2 SLOAD DUP2 PUSH1 0xFF MUL NOT AND SWAP1 DUP4 ISZERO ISZERO MUL OR SWAP1 SSTORE POP PUSH1 0x40 MLOAD DUP1 PUSH1 0x40 ADD PUSH1 0x40 MSTORE DUP1 PUSH1 0x15 DUP2 MSTORE PUSH1 0x20 ADD PUSH32 0x64656C69737420776173207375636365737366756C0000000000000000000000 DUP2 MSTORE POP SWAP1 POP SWAP2 SWAP1 POP JUMP JUMPDEST PUSH2 0x2A5 PUSH2 0x757 JUMP JUMPDEST PUSH20 0xFFFFFFFFFFFFFFFFFFFFFFFFFFFFFFFFFFFFFFFF AND PUSH2 0x2C3 PUSH2 0x325 JUMP JUMPDEST PUSH20 0xFFFFFFFFFFFFFFFFFFFFFFFFFFFFFFFFFFFFFFFF AND EQ PUSH2 0x319 JUMPI PUSH1 0x40 MLOAD PUSH32 0x8C379A000000000000000000000000000000000000000000000000000000000 DUP2 MSTORE PUSH1 0x4 ADD PUSH2 0x310 SWAP1 PUSH2 0xD63 JUMP JUMPDEST PUSH1 0x40 MLOAD DUP1 SWAP2 SUB SWAP1 REVERT JUMPDEST PUSH2 0x323 PUSH1 0x0 PUSH2 0x75F JUMP JUMPDEST JUMP JUMPDEST PUSH1 0x0 DUP1 PUSH1 0x0 SWAP1 SLOAD SWAP1 PUSH2 0x100 EXP SWAP1 DIV PUSH20 0xFFFFFFFFFFFFFFFFFFFFFFFFFFFFFFFFFFFFFFFF AND SWAP1 POP SWAP1 JUMP JUMPDEST PUSH1 0x0 DUP1 DUP5 DUP7 PUSH2 0x35D SWAP2 SWAP1 PUSH2 0xF9E JUMP JUMPDEST GT PUSH2 0x39D JUMPI PUSH1 0x40 MLOAD PUSH32 0x8C379A000000000000000000000000000000000000000000000000000000000 DUP2 MSTORE PUSH1 0x4 ADD PUSH2 0x394 SWAP1 PUSH2 0xD43 JUMP JUMPDEST PUSH1 0x40 MLOAD DUP1 SWAP2 SUB SWAP1 REVERT JUMPDEST PUSH1 0x0 PUSH2 0x3AA DUP5 DUP7 DUP6 PUSH2 0x823 JUMP JUMPDEST SWAP1 POP PUSH1 0x5 PUSH1 0x0 DUP3 DUP2 MSTORE PUSH1 0x20 ADD SWAP1 DUP2 MSTORE PUSH1 0x20 ADD PUSH1 0x0 KECCAK256 PUSH1 0x0 ADD SLOAD DUP2 EQ ISZERO PUSH2 0x405 JUMPI PUSH1 0x40 MLOAD PUSH32 0x8C379A000000000000000000000000000000000000000000000000000000000 DUP2 MSTORE PUSH1 0x4 ADD PUSH2 0x3FC SWAP1 PUSH2 0xD83 JUMP JUMPDEST PUSH1 0x40 MLOAD DUP1 SWAP2 SUB SWAP1 REVERT JUMPDEST PUSH1 0x40 MLOAD DUP1 PUSH1 0xC0 ADD PUSH1 0x40 MSTORE DUP1 DUP3 DUP2 MSTORE PUSH1 0x20 ADD DUP8 DUP2 MSTORE PUSH1 0x20 ADD DUP7 DUP2 MSTORE PUSH1 0x20 ADD DUP6 PUSH20 0xFFFFFFFFFFFFFFFFFFFFFFFFFFFFFFFFFFFFFFFF AND DUP2 MSTORE PUSH1 0x20 ADD DUP5 DUP2 MSTORE PUSH1 0x20 ADD PUSH1 0x0 ISZERO ISZERO DUP2 MSTORE POP PUSH1 0x5 PUSH1 0x0 DUP4 DUP2 MSTORE PUSH1 0x20 ADD SWAP1 DUP2 MSTORE PUSH1 0x20 ADD PUSH1 0x0 KECCAK256 PUSH1 0x0 DUP3 ADD MLOAD DUP2 PUSH1 0x0 ADD SSTORE PUSH1 0x20 DUP3 ADD MLOAD DUP2 PUSH1 0x1 ADD SSTORE PUSH1 0x40 DUP3 ADD MLOAD DUP2 PUSH1 0x2 ADD SSTORE PUSH1 0x60 DUP3 ADD MLOAD DUP2 PUSH1 0x3 ADD PUSH1 0x0 PUSH2 0x100 EXP DUP2 SLOAD DUP2 PUSH20 0xFFFFFFFFFFFFFFFFFFFFFFFFFFFFFFFFFFFFFFFF MUL NOT AND SWAP1 DUP4 PUSH20 0xFFFFFFFFFFFFFFFFFFFFFFFFFFFFFFFFFFFFFFFF AND MUL OR SWAP1 SSTORE POP PUSH1 0x80 DUP3 ADD MLOAD DUP2 PUSH1 0x4 ADD SWAP1 DUP1 MLOAD SWAP1 PUSH1 0x20 ADD SWAP1 PUSH2 0x4DF SWAP3 SWAP2 SWAP1 PUSH2 0x878 JUMP JUMPDEST POP PUSH1 0xA0 DUP3 ADD MLOAD DUP2 PUSH1 0x5 ADD PUSH1 0x0 PUSH2 0x100 EXP DUP2 SLOAD DUP2 PUSH1 0xFF MUL NOT AND SWAP1 DUP4 ISZERO ISZERO MUL OR SWAP1 SSTORE POP SWAP1 POP POP PUSH2 0x519 PUSH1 0x4 SLOAD TIMESTAMP PUSH2 0x514 SWAP2 SWAP1 PUSH2 0xF48 JUMP JUMPDEST PUSH2 0x86E JUMP JUMPDEST PUSH32 0x8F5AFD88EB4BE0AC287D87970052CE9A2B453448408E3C91A695AD7509AB7194 DUP2 DUP6 DUP9 DUP7 PUSH1 0x40 MLOAD PUSH2 0x54E SWAP5 SWAP4 SWAP3 SWAP2 SWAP1 PUSH2 0xDDE JUMP JUMPDEST PUSH1 0x40 MLOAD DUP1 SWAP2 SUB SWAP1 LOG1 DUP1 SWAP2 POP POP SWAP5 SWAP4 POP POP POP POP JUMP JUMPDEST PUSH1 0x5 PUSH1 0x20 MSTORE DUP1 PUSH1 0x0 MSTORE PUSH1 0x40 PUSH1 0x0 KECCAK256 PUSH1 0x0 SWAP2 POP SWAP1 POP DUP1 PUSH1 0x0 ADD SLOAD SWAP1 DUP1 PUSH1 0x1 ADD SLOAD SWAP1 DUP1 PUSH1 0x2 ADD SLOAD SWAP1 DUP1 PUSH1 0x3 ADD PUSH1 0x0 SWAP1 SLOAD SWAP1 PUSH2 0x100 EXP SWAP1 DIV PUSH20 0xFFFFFFFFFFFFFFFFFFFFFFFFFFFFFFFFFFFFFFFF AND SWAP1 DUP1 PUSH1 0x4 ADD DUP1 SLOAD PUSH2 0x5BD SWAP1 PUSH2 0x1082 JUMP JUMPDEST DUP1 PUSH1 0x1F ADD PUSH1 0x20 DUP1 SWAP2 DIV MUL PUSH1 0x20 ADD PUSH1 0x40 MLOAD SWAP1 DUP2 ADD PUSH1 0x40 MSTORE DUP1 SWAP3 SWAP2 SWAP1 DUP2 DUP2 MSTORE PUSH1 0x20 ADD DUP3 DUP1 SLOAD PUSH2 0x5E9 SWAP1 PUSH2 0x1082 JUMP JUMPDEST DUP1 ISZERO PUSH2 0x636 JUMPI DUP1 PUSH1 0x1F LT PUSH2 0x60B JUMPI PUSH2 0x100 DUP1 DUP4 SLOAD DIV MUL DUP4 MSTORE SWAP2 PUSH1 0x20 ADD SWAP2 PUSH2 0x636 JUMP JUMPDEST DUP3 ADD SWAP2 SWAP1 PUSH1 0x0 MSTORE PUSH1 0x20 PUSH1 0x0 KECCAK256 SWAP1 JUMPDEST DUP2 SLOAD DUP2 MSTORE SWAP1 PUSH1 0x1 ADD SWAP1 PUSH1 0x20 ADD DUP1 DUP4 GT PUSH2 0x619 JUMPI DUP3 SWAP1 SUB PUSH1 0x1F AND DUP3 ADD SWAP2 JUMPDEST POP POP POP POP POP SWAP1 DUP1 PUSH1 0x5 ADD PUSH1 0x0 SWAP1 SLOAD SWAP1 PUSH2 0x100 EXP SWAP1 DIV PUSH1 0xFF AND SWAP1 POP DUP7 JUMP JUMPDEST PUSH1 0x60 DUP1 DUP1 SWAP2 POP POP SWAP2 SWAP1 POP JUMP JUMPDEST PUSH2 0x667 PUSH2 0x757 JUMP JUMPDEST PUSH20 0xFFFFFFFFFFFFFFFFFFFFFFFFFFFFFFFFFFFFFFFF AND PUSH2 0x685 PUSH2 0x325 JUMP JUMPDEST PUSH20 0xFFFFFFFFFFFFFFFFFFFFFFFFFFFFFFFFFFFFFFFF AND EQ PUSH2 0x6DB JUMPI PUSH1 0x40 MLOAD PUSH32 0x8C379A000000000000000000000000000000000000000000000000000000000 DUP2 MSTORE PUSH1 0x4 ADD PUSH2 0x6D2 SWAP1 PUSH2 0xD63 JUMP JUMPDEST PUSH1 0x40 MLOAD DUP1 SWAP2 SUB SWAP1 REVERT JUMPDEST PUSH1 0x0 PUSH20 0xFFFFFFFFFFFFFFFFFFFFFFFFFFFFFFFFFFFFFFFF AND DUP2 PUSH20 0xFFFFFFFFFFFFFFFFFFFFFFFFFFFFFFFFFFFFFFFF AND EQ ISZERO PUSH2 0x74B JUMPI PUSH1 0x40 MLOAD PUSH32 0x8C379A000000000000000000000000000000000000000000000000000000000 DUP2 MSTORE PUSH1 0x4 ADD PUSH2 0x742 SWAP1 PUSH2 0xD23 JUMP JUMPDEST PUSH1 0x40 MLOAD DUP1 SWAP2 SUB SWAP1 REVERT JUMPDEST PUSH2 0x754 DUP2 PUSH2 0x75F JUMP JUMPDEST POP JUMP JUMPDEST PUSH1 0x0 CALLER SWAP1 POP SWAP1 JUMP JUMPDEST PUSH1 0x0 DUP1 PUSH1 0x0 SWAP1 SLOAD SWAP1 PUSH2 0x100 EXP SWAP1 DIV PUSH20 0xFFFFFFFFFFFFFFFFFFFFFFFFFFFFFFFFFFFFFFFF AND SWAP1 POP DUP2 PUSH1 0x0 DUP1 PUSH2 0x100 EXP DUP2 SLOAD DUP2 PUSH20 0xFFFFFFFFFFFFFFFFFFFFFFFFFFFFFFFFFFFFFFFF MUL NOT AND SWAP1 DUP4 PUSH20 0xFFFFFFFFFFFFFFFFFFFFFFFFFFFFFFFFFFFFFFFF AND MUL OR SWAP1 SSTORE POP DUP2 PUSH20 0xFFFFFFFFFFFFFFFFFFFFFFFFFFFFFFFFFFFFFFFF AND DUP2 PUSH20 0xFFFFFFFFFFFFFFFFFFFFFFFFFFFFFFFFFFFFFFFF AND PUSH32 0x8BE0079C531659141344CD1FD0A4F28419497F9722A3DAAFE3B4186F6B6457E0 PUSH1 0x40 MLOAD PUSH1 0x40 MLOAD DUP1 SWAP2 SUB SWAP1 LOG3 POP POP JUMP JUMPDEST PUSH1 0x0 DUP1 DUP5 DUP5 DUP5 PUSH1 0x40 MLOAD PUSH1 0x20 ADD PUSH2 0x83B SWAP4 SWAP3 SWAP2 SWAP1 PUSH2 0xC8B JUMP JUMPDEST PUSH1 0x40 MLOAD PUSH1 0x20 DUP2 DUP4 SUB SUB DUP2 MSTORE SWAP1 PUSH1 0x40 MSTORE DUP1 MLOAD SWAP1 PUSH1 0x20 ADD KECCAK256 PUSH1 0x0 SHR SWAP1 POP PUSH1 0x3 SLOAD DUP2 PUSH2 0x864 SWAP2 SWAP1 PUSH2 0x1113 JUMP JUMPDEST SWAP2 POP POP SWAP4 SWAP3 POP POP POP JUMP JUMPDEST DUP1 PUSH1 0x1 DUP2 SWAP1 SSTORE POP POP JUMP JUMPDEST DUP3 DUP1 SLOAD PUSH2 0x884 SWAP1 PUSH2 0x1082 JUMP JUMPDEST SWAP1 PUSH1 0x0 MSTORE PUSH1 0x20 PUSH1 0x0 KECCAK256 SWAP1 PUSH1 0x1F ADD PUSH1 0x20 SWAP1 DIV DUP2 ADD SWAP3 DUP3 PUSH2 0x8A6 JUMPI PUSH1 0x0 DUP6 SSTORE PUSH2 0x8ED JUMP JUMPDEST DUP3 PUSH1 0x1F LT PUSH2 0x8BF JUMPI DUP1 MLOAD PUSH1 0xFF NOT AND DUP4 DUP1 ADD OR DUP6 SSTORE PUSH2 0x8ED JUMP JUMPDEST DUP3 DUP1 ADD PUSH1 0x1 ADD DUP6 SSTORE DUP3 ISZERO PUSH2 0x8ED JUMPI SWAP2 DUP3 ADD JUMPDEST DUP3 DUP2 GT ISZERO PUSH2 0x8EC JUMPI DUP3 MLOAD DUP3 SSTORE SWAP2 PUSH1 0x20 ADD SWAP2 SWAP1 PUSH1 0x1 ADD SWAP1 PUSH2 0x8D1 JUMP JUMPDEST JUMPDEST POP SWAP1 POP PUSH2 0x8FA SWAP2 SWAP1 PUSH2 0x8FE JUMP JUMPDEST POP SWAP1 JUMP JUMPDEST JUMPDEST DUP1 DUP3 GT ISZERO PUSH2 0x917 JUMPI PUSH1 0x0 DUP2 PUSH1 0x0 SWAP1 SSTORE POP PUSH1 0x1 ADD PUSH2 0x8FF JUMP JUMPDEST POP SWAP1 JUMP JUMPDEST PUSH1 0x0 PUSH2 0x92E PUSH2 0x929 DUP5 PUSH2 0xEB7 JUMP JUMPDEST PUSH2 0xE92 JUMP JUMPDEST SWAP1 POP DUP3 DUP2 MSTORE PUSH1 0x20 DUP2 ADD DUP5 DUP5 DUP5 ADD GT ISZERO PUSH2 0x94A JUMPI PUSH2 0x949 PUSH2 0x1205 JUMP JUMPDEST JUMPDEST PUSH2 0x955 DUP5 DUP3 DUP6 PUSH2 0x1040 JUMP JUMPDEST POP SWAP4 SWAP3 POP POP POP JUMP JUMPDEST PUSH1 0x0 DUP2 CALLDATALOAD SWAP1 POP PUSH2 0x96C DUP2 PUSH2 0x134B JUMP JUMPDEST SWAP3 SWAP2 POP POP JUMP JUMPDEST PUSH1 0x0 DUP3 PUSH1 0x1F DUP4 ADD SLT PUSH2 0x987 JUMPI PUSH2 0x986 PUSH2 0x1200 JUMP JUMPDEST JUMPDEST DUP2 CALLDATALOAD PUSH2 0x997 DUP5 DUP3 PUSH1 0x20 DUP7 ADD PUSH2 0x91B JUMP JUMPDEST SWAP2 POP POP SWAP3 SWAP2 POP POP JUMP JUMPDEST PUSH1 0x0 DUP2 CALLDATALOAD SWAP1 POP PUSH2 0x9AF DUP2 PUSH2 0x1362 JUMP JUMPDEST SWAP3 SWAP2 POP POP JUMP JUMPDEST PUSH1 0x0 PUSH1 0x20 DUP3 DUP5 SUB SLT ISZERO PUSH2 0x9CB JUMPI PUSH2 0x9CA PUSH2 0x120F JUMP JUMPDEST JUMPDEST PUSH1 0x0 PUSH2 0x9D9 DUP5 DUP3 DUP6 ADD PUSH2 0x95D JUMP JUMPDEST SWAP2 POP POP SWAP3 SWAP2 POP POP JUMP JUMPDEST PUSH1 0x0 PUSH1 0x20 DUP3 DUP5 SUB SLT ISZERO PUSH2 0x9F8 JUMPI PUSH2 0x9F7 PUSH2 0x120F JUMP JUMPDEST JUMPDEST PUSH1 0x0 PUSH2 0xA06 DUP5 DUP3 DUP6 ADD PUSH2 0x9A0 JUMP JUMPDEST SWAP2 POP POP SWAP3 SWAP2 POP POP JUMP JUMPDEST PUSH1 0x0 DUP1 PUSH1 0x0 DUP1 PUSH1 0x80 DUP6 DUP8 SUB SLT ISZERO PUSH2 0xA29 JUMPI PUSH2 0xA28 PUSH2 0x120F JUMP JUMPDEST JUMPDEST PUSH1 0x0 PUSH2 0xA37 DUP8 DUP3 DUP9 ADD PUSH2 0x9A0 JUMP JUMPDEST SWAP5 POP POP PUSH1 0x20 PUSH2 0xA48 DUP8 DUP3 DUP9 ADD PUSH2 0x9A0 JUMP JUMPDEST SWAP4 POP POP PUSH1 0x40 PUSH2 0xA59 DUP8 DUP3 DUP9 ADD PUSH2 0x95D JUMP JUMPDEST SWAP3 POP POP PUSH1 0x60 DUP6 ADD CALLDATALOAD PUSH8 0xFFFFFFFFFFFFFFFF DUP2 GT ISZERO PUSH2 0xA7A JUMPI PUSH2 0xA79 PUSH2 0x120A JUMP JUMPDEST JUMPDEST PUSH2 0xA86 DUP8 DUP3 DUP9 ADD PUSH2 0x972 JUMP JUMPDEST SWAP2 POP POP SWAP3 SWAP6 SWAP2 SWAP5 POP SWAP3 POP JUMP JUMPDEST PUSH1 0x0 PUSH2 0xA9E DUP4 DUP4 PUSH2 0xC56 JUMP JUMPDEST PUSH1 0x20 DUP4 ADD SWAP1 POP SWAP3 SWAP2 POP POP JUMP JUMPDEST PUSH2 0xAB3 DUP2 PUSH2 0xFF8 JUMP JUMPDEST DUP3 MSTORE POP POP JUMP JUMPDEST PUSH2 0xACA PUSH2 0xAC5 DUP3 PUSH2 0xFF8 JUMP JUMPDEST PUSH2 0x10E5 JUMP JUMPDEST DUP3 MSTORE POP POP JUMP JUMPDEST PUSH1 0x0 PUSH2 0xADB DUP3 PUSH2 0xEF8 JUMP JUMPDEST PUSH2 0xAE5 DUP2 DUP6 PUSH2 0xF1B JUMP JUMPDEST SWAP4 POP PUSH2 0xAF0 DUP4 PUSH2 0xEE8 JUMP JUMPDEST DUP1 PUSH1 0x0 JUMPDEST DUP4 DUP2 LT ISZERO PUSH2 0xB21 JUMPI DUP2 MLOAD PUSH2 0xB08 DUP9 DUP3 PUSH2 0xA92 JUMP JUMPDEST SWAP8 POP PUSH2 0xB13 DUP4 PUSH2 0xF0E JUMP JUMPDEST SWAP3 POP POP PUSH1 0x1 DUP2 ADD SWAP1 POP PUSH2 0xAF4 JUMP JUMPDEST POP DUP6 SWAP4 POP POP POP POP SWAP3 SWAP2 POP POP JUMP JUMPDEST PUSH2 0xB37 DUP2 PUSH2 0x100A JUMP JUMPDEST DUP3 MSTORE POP POP JUMP JUMPDEST PUSH1 0x0 PUSH2 0xB48 DUP3 PUSH2 0xF03 JUMP JUMPDEST PUSH2 0xB52 DUP2 DUP6 PUSH2 0xF2C JUMP JUMPDEST SWAP4 POP PUSH2 0xB62 DUP2 DUP6 PUSH1 0x20 DUP7 ADD PUSH2 0x104F JUMP JUMPDEST PUSH2 0xB6B DUP2 PUSH2 0x1214 JUMP JUMPDEST DUP5 ADD SWAP2 POP POP SWAP3 SWAP2 POP POP JUMP JUMPDEST PUSH1 0x0 PUSH2 0xB81 DUP3 PUSH2 0xF03 JUMP JUMPDEST PUSH2 0xB8B DUP2 DUP6 PUSH2 0xF3D JUMP JUMPDEST SWAP4 POP PUSH2 0xB9B DUP2 DUP6 PUSH1 0x20 DUP7 ADD PUSH2 0x104F JUMP JUMPDEST DUP1 DUP5 ADD SWAP2 POP POP SWAP3 SWAP2 POP POP JUMP JUMPDEST PUSH1 0x0 PUSH2 0xBB4 PUSH1 0x26 DUP4 PUSH2 0xF2C JUMP JUMPDEST SWAP2 POP PUSH2 0xBBF DUP3 PUSH2 0x1232 JUMP JUMPDEST PUSH1 0x40 DUP3 ADD SWAP1 POP SWAP2 SWAP1 POP JUMP JUMPDEST PUSH1 0x0 PUSH2 0xBD7 PUSH1 0x14 DUP4 PUSH2 0xF2C JUMP JUMPDEST SWAP2 POP PUSH2 0xBE2 DUP3 PUSH2 0x1281 JUMP JUMPDEST PUSH1 0x20 DUP3 ADD SWAP1 POP SWAP2 SWAP1 POP JUMP JUMPDEST PUSH1 0x0 PUSH2 0xBFA PUSH1 0x20 DUP4 PUSH2 0xF2C JUMP JUMPDEST SWAP2 POP PUSH2 0xC05 DUP3 PUSH2 0x12AA JUMP JUMPDEST PUSH1 0x20 DUP3 ADD SWAP1 POP SWAP2 SWAP1 POP JUMP JUMPDEST PUSH1 0x0 PUSH2 0xC1D PUSH1 0x1B DUP4 PUSH2 0xF2C JUMP JUMPDEST SWAP2 POP PUSH2 0xC28 DUP3 PUSH2 0x12D3 JUMP JUMPDEST PUSH1 0x20 DUP3 ADD SWAP1 POP SWAP2 SWAP1 POP JUMP JUMPDEST PUSH1 0x0 PUSH2 0xC40 PUSH1 0x2B DUP4 PUSH2 0xF2C JUMP JUMPDEST SWAP2 POP PUSH2 0xC4B DUP3 PUSH2 0x12FC JUMP JUMPDEST PUSH1 0x40 DUP3 ADD SWAP1 POP SWAP2 SWAP1 POP JUMP JUMPDEST PUSH2 0xC5F DUP2 PUSH2 0x1036 JUMP JUMPDEST DUP3 MSTORE POP POP JUMP JUMPDEST PUSH2 0xC6E DUP2 PUSH2 0x1036 JUMP JUMPDEST DUP3 MSTORE POP POP JUMP JUMPDEST PUSH2 0xC85 PUSH2 0xC80 DUP3 PUSH2 0x1036 JUMP JUMPDEST PUSH2 0x1109 JUMP JUMPDEST DUP3 MSTORE POP POP JUMP JUMPDEST PUSH1 0x0 PUSH2 0xC97 DUP3 DUP7 PUSH2 0xAB9 JUMP JUMPDEST PUSH1 0x14 DUP3 ADD SWAP2 POP PUSH2 0xCA7 DUP3 DUP6 PUSH2 0xC74 JUMP JUMPDEST PUSH1 0x20 DUP3 ADD SWAP2 POP PUSH2 0xCB7 DUP3 DUP5 PUSH2 0xB76 JUMP JUMPDEST SWAP2 POP DUP2 SWAP1 POP SWAP5 SWAP4 POP POP POP POP JUMP JUMPDEST PUSH1 0x0 PUSH1 0x20 DUP3 ADD SWAP1 POP PUSH2 0xCD9 PUSH1 0x0 DUP4 ADD DUP5 PUSH2 0xAAA JUMP JUMPDEST SWAP3 SWAP2 POP POP JUMP JUMPDEST PUSH1 0x0 PUSH1 0x20 DUP3 ADD SWAP1 POP DUP2 DUP2 SUB PUSH1 0x0 DUP4 ADD MSTORE PUSH2 0xCF9 DUP2 DUP5 PUSH2 0xAD0 JUMP JUMPDEST SWAP1 POP SWAP3 SWAP2 POP POP JUMP JUMPDEST PUSH1 0x0 PUSH1 0x20 DUP3 ADD SWAP1 POP DUP2 DUP2 SUB PUSH1 0x0 DUP4 ADD MSTORE PUSH2 0xD1B DUP2 DUP5 PUSH2 0xB3D JUMP JUMPDEST SWAP1 POP SWAP3 SWAP2 POP POP JUMP JUMPDEST PUSH1 0x0 PUSH1 0x20 DUP3 ADD SWAP1 POP DUP2 DUP2 SUB PUSH1 0x0 DUP4 ADD MSTORE PUSH2 0xD3C DUP2 PUSH2 0xBA7 JUMP JUMPDEST SWAP1 POP SWAP2 SWAP1 POP JUMP JUMPDEST PUSH1 0x0 PUSH1 0x20 DUP3 ADD SWAP1 POP DUP2 DUP2 SUB PUSH1 0x0 DUP4 ADD MSTORE PUSH2 0xD5C DUP2 PUSH2 0xBCA JUMP JUMPDEST SWAP1 POP SWAP2 SWAP1 POP JUMP JUMPDEST PUSH1 0x0 PUSH1 0x20 DUP3 ADD SWAP1 POP DUP2 DUP2 SUB PUSH1 0x0 DUP4 ADD MSTORE PUSH2 0xD7C DUP2 PUSH2 0xBED JUMP JUMPDEST SWAP1 POP SWAP2 SWAP1 POP JUMP JUMPDEST PUSH1 0x0 PUSH1 0x20 DUP3 ADD SWAP1 POP DUP2 DUP2 SUB PUSH1 0x0 DUP4 ADD MSTORE PUSH2 0xD9C DUP2 PUSH2 0xC10 JUMP JUMPDEST SWAP1 POP SWAP2 SWAP1 POP JUMP JUMPDEST PUSH1 0x0 PUSH1 0x20 DUP3 ADD SWAP1 POP DUP2 DUP2 SUB PUSH1 0x0 DUP4 ADD MSTORE PUSH2 0xDBC DUP2 PUSH2 0xC33 JUMP JUMPDEST SWAP1 POP SWAP2 SWAP1 POP JUMP JUMPDEST PUSH1 0x0 PUSH1 0x20 DUP3 ADD SWAP1 POP PUSH2 0xDD8 PUSH1 0x0 DUP4 ADD DUP5 PUSH2 0xC65 JUMP JUMPDEST SWAP3 SWAP2 POP POP JUMP JUMPDEST PUSH1 0x0 PUSH1 0x80 DUP3 ADD SWAP1 POP PUSH2 0xDF3 PUSH1 0x0 DUP4 ADD DUP8 PUSH2 0xC65 JUMP JUMPDEST PUSH2 0xE00 PUSH1 0x20 DUP4 ADD DUP7 PUSH2 0xAAA JUMP JUMPDEST PUSH2 0xE0D PUSH1 0x40 DUP4 ADD DUP6 PUSH2 0xC65 JUMP JUMPDEST DUP2 DUP2 SUB PUSH1 0x60 DUP4 ADD MSTORE PUSH2 0xE1F DUP2 DUP5 PUSH2 0xB3D JUMP JUMPDEST SWAP1 POP SWAP6 SWAP5 POP POP POP POP POP JUMP JUMPDEST PUSH1 0x0 PUSH1 0xC0 DUP3 ADD SWAP1 POP PUSH2 0xE3F PUSH1 0x0 DUP4 ADD DUP10 PUSH2 0xC65 JUMP JUMPDEST PUSH2 0xE4C PUSH1 0x20 DUP4 ADD DUP9 PUSH2 0xC65 JUMP JUMPDEST PUSH2 0xE59 PUSH1 0x40 DUP4 ADD DUP8 PUSH2 0xC65 JUMP JUMPDEST PUSH2 0xE66 PUSH1 0x60 DUP4 ADD DUP7 PUSH2 0xAAA JUMP JUMPDEST DUP2 DUP2 SUB PUSH1 0x80 DUP4 ADD MSTORE PUSH2 0xE78 DUP2 DUP6 PUSH2 0xB3D JUMP JUMPDEST SWAP1 POP PUSH2 0xE87 PUSH1 0xA0 DUP4 ADD DUP5 PUSH2 0xB2E JUMP JUMPDEST SWAP8 SWAP7 POP POP POP POP POP POP POP JUMP JUMPDEST PUSH1 0x0 PUSH2 0xE9C PUSH2 0xEAD JUMP JUMPDEST SWAP1 POP PUSH2 0xEA8 DUP3 DUP3 PUSH2 0x10B4 JUMP JUMPDEST SWAP2 SWAP1 POP JUMP JUMPDEST PUSH1 0x0 PUSH1 0x40 MLOAD SWAP1 POP SWAP1 JUMP JUMPDEST PUSH1 0x0 PUSH8 0xFFFFFFFFFFFFFFFF DUP3 GT ISZERO PUSH2 0xED2 JUMPI PUSH2 0xED1 PUSH2 0x11D1 JUMP JUMPDEST JUMPDEST PUSH2 0xEDB DUP3 PUSH2 0x1214 JUMP JUMPDEST SWAP1 POP PUSH1 0x20 DUP2 ADD SWAP1 POP SWAP2 SWAP1 POP JUMP JUMPDEST PUSH1 0x0 DUP2 SWAP1 POP PUSH1 0x20 DUP3 ADD SWAP1 POP SWAP2 SWAP1 POP JUMP JUMPDEST PUSH1 0x0 DUP2 MLOAD SWAP1 POP SWAP2 SWAP1 POP JUMP JUMPDEST PUSH1 0x0 DUP2 MLOAD SWAP1 POP SWAP2 SWAP1 POP JUMP JUMPDEST PUSH1 0x0 PUSH1 0x20 DUP3 ADD SWAP1 POP SWAP2 SWAP1 POP JUMP JUMPDEST PUSH1 0x0 DUP3 DUP3 MSTORE PUSH1 0x20 DUP3 ADD SWAP1 POP SWAP3 SWAP2 POP POP JUMP JUMPDEST PUSH1 0x0 DUP3 DUP3 MSTORE PUSH1 0x20 DUP3 ADD SWAP1 POP SWAP3 SWAP2 POP POP JUMP JUMPDEST PUSH1 0x0 DUP2 SWAP1 POP SWAP3 SWAP2 POP POP JUMP JUMPDEST PUSH1 0x0 PUSH2 0xF53 DUP3 PUSH2 0x1036 JUMP JUMPDEST SWAP2 POP PUSH2 0xF5E DUP4 PUSH2 0x1036 JUMP JUMPDEST SWAP3 POP DUP3 PUSH32 0xFFFFFFFFFFFFFFFFFFFFFFFFFFFFFFFFFFFFFFFFFFFFFFFFFFFFFFFFFFFFFFFF SUB DUP3 GT ISZERO PUSH2 0xF93 JUMPI PUSH2 0xF92 PUSH2 0x1144 JUMP JUMPDEST JUMPDEST DUP3 DUP3 ADD SWAP1 POP SWAP3 SWAP2 POP POP JUMP JUMPDEST PUSH1 0x0 PUSH2 0xFA9 DUP3 PUSH2 0x1036 JUMP JUMPDEST SWAP2 POP PUSH2 0xFB4 DUP4 PUSH2 0x1036 JUMP JUMPDEST SWAP3 POP DUP2 PUSH32 0xFFFFFFFFFFFFFFFFFFFFFFFFFFFFFFFFFFFFFFFFFFFFFFFFFFFFFFFFFFFFFFFF DIV DUP4 GT DUP3 ISZERO ISZERO AND ISZERO PUSH2 0xFED JUMPI PUSH2 0xFEC PUSH2 0x1144 JUMP JUMPDEST JUMPDEST DUP3 DUP3 MUL SWAP1 POP SWAP3 SWAP2 POP POP JUMP JUMPDEST PUSH1 0x0 PUSH2 0x1003 DUP3 PUSH2 0x1016 JUMP JUMPDEST SWAP1 POP SWAP2 SWAP1 POP JUMP JUMPDEST PUSH1 0x0 DUP2 ISZERO ISZERO SWAP1 POP SWAP2 SWAP1 POP JUMP JUMPDEST PUSH1 0x0 PUSH20 0xFFFFFFFFFFFFFFFFFFFFFFFFFFFFFFFFFFFFFFFF DUP3 AND SWAP1 POP SWAP2 SWAP1 POP JUMP JUMPDEST PUSH1 0x0 DUP2 SWAP1 POP SWAP2 SWAP1 POP JUMP JUMPDEST DUP3 DUP2 DUP4 CALLDATACOPY PUSH1 0x0 DUP4 DUP4 ADD MSTORE POP POP POP JUMP JUMPDEST PUSH1 0x0 JUMPDEST DUP4 DUP2 LT ISZERO PUSH2 0x106D JUMPI DUP1 DUP3 ADD MLOAD DUP2 DUP5 ADD MSTORE PUSH1 0x20 DUP2 ADD SWAP1 POP PUSH2 0x1052 JUMP JUMPDEST DUP4 DUP2 GT ISZERO PUSH2 0x107C JUMPI PUSH1 0x0 DUP5 DUP5 ADD MSTORE JUMPDEST POP POP POP POP JUMP JUMPDEST PUSH1 0x0 PUSH1 0x2 DUP3 DIV SWAP1 POP PUSH1 0x1 DUP3 AND DUP1 PUSH2 0x109A JUMPI PUSH1 0x7F DUP3 AND SWAP2 POP JUMPDEST PUSH1 0x20 DUP3 LT DUP2 EQ ISZERO PUSH2 0x10AE JUMPI PUSH2 0x10AD PUSH2 0x11A2 JUMP JUMPDEST JUMPDEST POP SWAP2 SWAP1 POP JUMP JUMPDEST PUSH2 0x10BD DUP3 PUSH2 0x1214 JUMP JUMPDEST DUP2 ADD DUP2 DUP2 LT PUSH8 0xFFFFFFFFFFFFFFFF DUP3 GT OR ISZERO PUSH2 0x10DC JUMPI PUSH2 0x10DB PUSH2 0x11D1 JUMP JUMPDEST JUMPDEST DUP1 PUSH1 0x40 MSTORE POP POP POP JUMP JUMPDEST PUSH1 0x0 PUSH2 0x10F0 DUP3 PUSH2 0x10F7 JUMP JUMPDEST SWAP1 POP SWAP2 SWAP1 POP JUMP JUMPDEST PUSH1 0x0 PUSH2 0x1102 DUP3 PUSH2 0x1225 JUMP JUMPDEST SWAP1 POP SWAP2 SWAP1 POP JUMP JUMPDEST PUSH1 0x0 DUP2 SWAP1 POP SWAP2 SWAP1 POP JUMP JUMPDEST PUSH1 0x0 PUSH2 0x111E DUP3 PUSH2 0x1036 JUMP JUMPDEST SWAP2 POP PUSH2 0x1129 DUP4 PUSH2 0x1036 JUMP JUMPDEST SWAP3 POP DUP3 PUSH2 0x1139 JUMPI PUSH2 0x1138 PUSH2 0x1173 JUMP JUMPDEST JUMPDEST DUP3 DUP3 MOD SWAP1 POP SWAP3 SWAP2 POP POP JUMP JUMPDEST PUSH32 0x4E487B7100000000000000000000000000000000000000000000000000000000 PUSH1 0x0 MSTORE PUSH1 0x11 PUSH1 0x4 MSTORE PUSH1 0x24 PUSH1 0x0 REVERT JUMPDEST PUSH32 0x4E487B7100000000000000000000000000000000000000000000000000000000 PUSH1 0x0 MSTORE PUSH1 0x12 PUSH1 0x4 MSTORE PUSH1 0x24 PUSH1 0x0 REVERT JUMPDEST PUSH32 0x4E487B7100000000000000000000000000000000000000000000000000000000 PUSH1 0x0 MSTORE PUSH1 0x22 PUSH1 0x4 MSTORE PUSH1 0x24 PUSH1 0x0 REVERT JUMPDEST PUSH32 0x4E487B7100000000000000000000000000000000000000000000000000000000 PUSH1 0x0 MSTORE PUSH1 0x41 PUSH1 0x4 MSTORE PUSH1 0x24 PUSH1 0x0 REVERT JUMPDEST PUSH1 0x0 DUP1 REVERT JUMPDEST PUSH1 0x0 DUP1 REVERT JUMPDEST PUSH1 0x0 DUP1 REVERT JUMPDEST PUSH1 0x0 DUP1 REVERT JUMPDEST PUSH1 0x0 PUSH1 0x1F NOT PUSH1 0x1F DUP4 ADD AND SWAP1 POP SWAP2 SWAP1 POP JUMP JUMPDEST PUSH1 0x0 DUP2 PUSH1 0x60 SHL SWAP1 POP SWAP2 SWAP1 POP JUMP JUMPDEST PUSH32 0x4F776E61626C653A206E6577206F776E657220697320746865207A65726F2061 PUSH1 0x0 DUP3 ADD MSTORE PUSH32 0x6464726573730000000000000000000000000000000000000000000000000000 PUSH1 0x20 DUP3 ADD MSTORE POP JUMP JUMPDEST PUSH32 0x76616C75652063616E6E6F74206265206E756C6C000000000000000000000000 PUSH1 0x0 DUP3 ADD MSTORE POP JUMP JUMPDEST PUSH32 0x4F776E61626C653A2063616C6C6572206973206E6F7420746865206F776E6572 PUSH1 0x0 DUP3 ADD MSTORE POP JUMP JUMPDEST PUSH32 0x7468697320686F757365496420616C7265616479206578697374730000000000 PUSH1 0x0 DUP3 ADD MSTORE POP JUMP JUMPDEST PUSH32 0x596F7520646F206E6F7420686176652061636365737320746F2064656C657465 PUSH1 0x0 DUP3 ADD MSTORE PUSH32 0x207468697320686F757365000000000000000000000000000000000000000000 PUSH1 0x20 DUP3 ADD MSTORE POP JUMP JUMPDEST PUSH2 0x1354 DUP2 PUSH2 0xFF8 JUMP JUMPDEST DUP2 EQ PUSH2 0x135F JUMPI PUSH1 0x0 DUP1 REVERT JUMPDEST POP JUMP JUMPDEST PUSH2 0x136B DUP2 PUSH2 0x1036 JUMP JUMPDEST DUP2 EQ PUSH2 0x1376 JUMPI PUSH1 0x0 DUP1 REVERT JUMPDEST POP JUMP INVALID LOG2 PUSH5 0x6970667358 0x22 SLT KECCAK256 GASLIMIT 0xEC PUSH8 0x3F816A694C14D940 RETURNDATASIZE GAS SUB 0x24 SHR 0xEB PUSH15 0x7A2A8B7657BCE1B27738EC9A663C64 PUSH20 0x6F6C634300080700330000000000000000000000 "
				},
				"gasEstimates": {
					"creation": {
						"codeDepositCost": "1007800",
						"executionCost": "infinite",
						"totalCost": "infinite"
					},
					"external": {
						"delistHouse(uint256)": "infinite",
						"getCheapHouseIds(uint256)": "infinite",
						"houses(uint256)": "infinite",
						"listHouse(uint256,uint256,address,string)": "infinite",
						"owner()": "2567",
						"renounceOwnership()": "30397",
						"transferOwnership(address)": "30789"
					},
					"internal": {
						"_generateHouseId(address,uint256,string memory)": "infinite"
					}
				},
				"methodIdentifiers": {
					"delistHouse(uint256)": "3c3b0b4a",
					"getCheapHouseIds(uint256)": "c45e1b25",
					"houses(uint256)": "aeda852f",
					"listHouse(uint256,uint256,address,string)": "91bfe0d4",
					"owner()": "8da5cb5b",
					"renounceOwnership()": "715018a6",
					"transferOwnership(address)": "f2fde38b"
				}
			},
			"storageLayout": {
				"storage": [
					{
						"astId": 197,
						"contract": "contract/HouseRegistry.sol:HouseRegistry",
						"label": "_owner",
						"offset": 0,
						"slot": "0",
						"type": "t_address"
					},
					{
						"astId": 199,
						"contract": "contract/HouseRegistry.sol:HouseRegistry",
						"label": "ownerAddCooldown",
						"offset": 0,
						"slot": "1",
						"type": "t_uint256"
					},
					{
						"astId": 7,
						"contract": "contract/HouseRegistry.sol:HouseRegistry",
						"label": "digits",
						"offset": 0,
						"slot": "2",
						"type": "t_uint256"
					},
					{
						"astId": 12,
						"contract": "contract/HouseRegistry.sol:HouseRegistry",
						"label": "modulus",
						"offset": 0,
						"slot": "3",
						"type": "t_uint256"
					},
					{
						"astId": 15,
						"contract": "contract/HouseRegistry.sol:HouseRegistry",
						"label": "cooldownTime",
						"offset": 0,
						"slot": "4",
						"type": "t_uint256"
					},
					{
						"astId": 43,
						"contract": "contract/HouseRegistry.sol:HouseRegistry",
						"label": "houses",
						"offset": 0,
						"slot": "5",
						"type": "t_mapping(t_uint256,t_struct(House)28_storage)"
					}
				],
				"types": {
					"t_address": {
						"encoding": "inplace",
						"label": "address",
						"numberOfBytes": "20"
					},
					"t_bool": {
						"encoding": "inplace",
						"label": "bool",
						"numberOfBytes": "1"
					},
					"t_mapping(t_uint256,t_struct(House)28_storage)": {
						"encoding": "mapping",
						"key": "t_uint256",
						"label": "mapping(uint256 => struct HouseRegistry.House)",
						"numberOfBytes": "32",
						"value": "t_struct(House)28_storage"
					},
					"t_string_storage": {
						"encoding": "bytes",
						"label": "string",
						"numberOfBytes": "32"
					},
					"t_struct(House)28_storage": {
						"encoding": "inplace",
						"label": "struct HouseRegistry.House",
						"members": [
							{
								"astId": 17,
								"contract": "contract/HouseRegistry.sol:HouseRegistry",
								"label": "id",
								"offset": 0,
								"slot": "0",
								"type": "t_uint256"
							},
							{
								"astId": 19,
								"contract": "contract/HouseRegistry.sol:HouseRegistry",
								"label": "price",
								"offset": 0,
								"slot": "1",
								"type": "t_uint256"
							},
							{
								"astId": 21,
								"contract": "contract/HouseRegistry.sol:HouseRegistry",
								"label": "area",
								"offset": 0,
								"slot": "2",
								"type": "t_uint256"
							},
							{
								"astId": 23,
								"contract": "contract/HouseRegistry.sol:HouseRegistry",
								"label": "sellerAddress",
								"offset": 0,
								"slot": "3",
								"type": "t_address"
							},
							{
								"astId": 25,
								"contract": "contract/HouseRegistry.sol:HouseRegistry",
								"label": "houseAddress",
								"offset": 0,
								"slot": "4",
								"type": "t_string_storage"
							},
							{
								"astId": 27,
								"contract": "contract/HouseRegistry.sol:HouseRegistry",
								"label": "isdelistedHouse",
								"offset": 0,
								"slot": "5",
								"type": "t_bool"
							}
						],
						"numberOfBytes": "192"
					},
					"t_uint256": {
						"encoding": "inplace",
						"label": "uint256",
						"numberOfBytes": "32"
					}
				}
			},
			"userdoc": {
				"kind": "user",
				"methods": {},
				"version": 1
			}
		}
	}
}