{
	"contract/HouseRegistryExt.sol": {
		"HouseRegistryExt": {
			"abi": [
				{
					"anonymous": false,
					"inputs": [
						{
							"indexed": false,
							"internalType": "uint256",
							"name": "houseId",
							"type": "uint256"
						},
						{
							"indexed": false,
							"internalType": "address",
							"name": "_sellerAddress",
							"type": "address"
						},
						{
							"indexed": false,
							"internalType": "uint256",
							"name": "price",
							"type": "uint256"
						},
						{
							"indexed": false,
							"internalType": "string",
							"name": "houseAddress",
							"type": "string"
						}
					],
					"name": "AddNewHouse",
					"type": "event"
				},
				{
					"inputs": [
						{
							"internalType": "uint256",
							"name": "houseId",
							"type": "uint256"
						}
					],
					"name": "delistHouse",
					"outputs": [
						{
							"internalType": "string",
							"name": "",
							"type": "string"
						}
					],
					"stateMutability": "nonpayable",
					"type": "function"
				},
				{
					"inputs": [
						{
							"internalType": "uint256",
							"name": "cost",
							"type": "uint256"
						}
					],
					"name": "getCheapHouseIds",
					"outputs": [
						{
							"internalType": "uint256",
							"name": "",
							"type": "uint256"
						}
					],
					"stateMutability": "view",
					"type": "function"
				},
				{
					"inputs": [
						{
							"internalType": "uint256",
							"name": "",
							"type": "uint256"
						}
					],
					"name": "houses",
					"outputs": [
						{
							"internalType": "uint256",
							"name": "id",
							"type": "uint256"
						},
						{
							"internalType": "uint256",
							"name": "serialNumber",
							"type": "uint256"
						},
						{
							"internalType": "uint256",
							"name": "price",
							"type": "uint256"
						},
						{
							"internalType": "uint256",
							"name": "area",
							"type": "uint256"
						},
						{
							"internalType": "address",
							"name": "sellerAddress",
							"type": "address"
						},
						{
							"internalType": "string",
							"name": "houseAddress",
							"type": "string"
						},
						{
							"internalType": "bool",
							"name": "isdelistedHouse",
							"type": "bool"
						}
					],
					"stateMutability": "view",
					"type": "function"
				},
				{
					"inputs": [
						{
							"internalType": "uint256",
							"name": "_price",
							"type": "uint256"
						},
						{
							"internalType": "uint256",
							"name": "_area",
							"type": "uint256"
						},
						{
							"internalType": "address",
							"name": "_sellerAddress",
							"type": "address"
						},
						{
							"internalType": "string",
							"name": "_houseAddress",
							"type": "string"
						}
					],
					"name": "listHouse",
					"outputs": [
						{
							"internalType": "uint256",
							"name": "",
							"type": "uint256"
						}
					],
					"stateMutability": "nonpayable",
					"type": "function"
				},
				{
					"inputs": [
						{
							"internalType": "uint256",
							"name": "_price",
							"type": "uint256"
						},
						{
							"internalType": "uint256",
							"name": "_area",
							"type": "uint256"
						},
						{
							"internalType": "string",
							"name": "_houseAddress",
							"type": "string"
						}
					],
					"name": "listHouseSimple",
					"outputs": [],
					"stateMutability": "nonpayable",
					"type": "function"
				}
			],
			"devdoc": {
				"kind": "dev",
				"methods": {},
				"version": 1
			},
			"evm": {
				"assembly": "    /* \"contract/HouseRegistryExt.sol\":99:321  contract HouseRegistryExt is HouseRegistry {\r... */\n  mstore(0x40, 0x80)\n    /* \"contract/HouseRegistry.sol\":106:107  5 */\n  0x05\n    /* \"contract/HouseRegistry.sol\":92:107  uint digits = 5 */\n  0x00\n  sstore\n    /* \"contract/HouseRegistry.sol\":134:140  digits */\n  sload(0x00)\n    /* \"contract/HouseRegistry.sol\":128:130  10 */\n  0x0a\n    /* \"contract/HouseRegistry.sol\":128:140  10 ** digits */\n  tag_1\n  swap2\n  swap1\n  tag_2\n  jump\t// in\ntag_1:\n    /* \"contract/HouseRegistry.sol\":113:140  uint modulus = 10 ** digits */\n  0x01\n  sstore\n    /* \"contract/HouseRegistry.sol\":166:175  1 seconds */\n  0x01\n    /* \"contract/HouseRegistry.sol\":146:175  uint cooldownTime = 1 seconds */\n  0x02\n  sstore\n    /* \"contract/HouseRegistry.sol\":202:203  1 */\n  0x01\n    /* \"contract/HouseRegistry.sol\":181:203  uint countOfHouses = 1 */\n  0x03\n  sstore\n    /* \"contract/HouseRegistryExt.sol\":99:321  contract HouseRegistryExt is HouseRegistry {\r... */\n  callvalue\n  dup1\n  iszero\n  tag_3\n  jumpi\n  0x00\n  dup1\n  revert\ntag_3:\n  pop\n  jump(tag_4)\n    /* \"#utility.yul\":7:855   */\ntag_6:\n    /* \"#utility.yul\":68:73   */\n  0x00\n    /* \"#utility.yul\":75:79   */\n  dup1\n    /* \"#utility.yul\":99:105   */\n  dup3\n    /* \"#utility.yul\":90:105   */\n  swap2\n  pop\n    /* \"#utility.yul\":123:128   */\n  dup4\n    /* \"#utility.yul\":114:128   */\n  swap1\n  pop\n    /* \"#utility.yul\":137:849   */\ntag_8:\n    /* \"#utility.yul\":158:159   */\n  0x01\n    /* \"#utility.yul\":148:156   */\n  dup6\n    /* \"#utility.yul\":145:160   */\n  gt\n    /* \"#utility.yul\":137:849   */\n  iszero\n  tag_10\n  jumpi\n    /* \"#utility.yul\":253:257   */\n  dup1\n    /* \"#utility.yul\":248:251   */\n  dup7\n    /* \"#utility.yul\":244:258   */\n  div\n    /* \"#utility.yul\":238:242   */\n  dup2\n    /* \"#utility.yul\":235:259   */\n  gt\n    /* \"#utility.yul\":232:282   */\n  iszero\n  tag_11\n  jumpi\n    /* \"#utility.yul\":262:280   */\n  tag_12\n  tag_13\n  jump\t// in\ntag_12:\n    /* \"#utility.yul\":232:282   */\ntag_11:\n    /* \"#utility.yul\":312:313   */\n  0x01\n    /* \"#utility.yul\":302:310   */\n  dup6\n    /* \"#utility.yul\":298:314   */\n  and\n    /* \"#utility.yul\":295:746   */\n  iszero\n  tag_14\n  jumpi\n    /* \"#utility.yul\":727:731   */\n  dup1\n    /* \"#utility.yul\":720:725   */\n  dup3\n    /* \"#utility.yul\":716:732   */\n  mul\n    /* \"#utility.yul\":707:732   */\n  swap2\n  pop\n    /* \"#utility.yul\":295:746   */\ntag_14:\n    /* \"#utility.yul\":777:781   */\n  dup1\n    /* \"#utility.yul\":771:775   */\n  dup2\n    /* \"#utility.yul\":767:782   */\n  mul\n    /* \"#utility.yul\":759:782   */\n  swap1\n  pop\n    /* \"#utility.yul\":807:839   */\n  tag_15\n    /* \"#utility.yul\":830:838   */\n  dup6\n    /* \"#utility.yul\":807:839   */\n  tag_16\n  jump\t// in\ntag_15:\n    /* \"#utility.yul\":795:839   */\n  swap5\n  pop\n    /* \"#utility.yul\":137:849   */\n  jump(tag_8)\ntag_10:\n    /* \"#utility.yul\":7:855   */\n  swap5\n  pop\n  swap5\n  swap3\n  pop\n  pop\n  pop\n  jump\t// out\n    /* \"#utility.yul\":861:1146   */\ntag_2:\n    /* \"#utility.yul\":921:926   */\n  0x00\n    /* \"#utility.yul\":945:968   */\n  tag_18\n    /* \"#utility.yul\":963:967   */\n  dup3\n    /* \"#utility.yul\":945:968   */\n  tag_19\n  jump\t// in\ntag_18:\n    /* \"#utility.yul\":937:968   */\n  swap2\n  pop\n    /* \"#utility.yul\":989:1016   */\n  tag_20\n    /* \"#utility.yul\":1007:1015   */\n  dup4\n    /* \"#utility.yul\":989:1016   */\n  tag_19\n  jump\t// in\ntag_20:\n    /* \"#utility.yul\":977:1016   */\n  swap3\n  pop\n    /* \"#utility.yul\":1035:1139   */\n  tag_21\n    /* \"#utility.yul\":1072:1138   */\n  0xffffffffffffffffffffffffffffffffffffffffffffffffffffffffffffffff\n    /* \"#utility.yul\":1062:1070   */\n  dup5\n    /* \"#utility.yul\":1056:1060   */\n  dup5\n    /* \"#utility.yul\":1035:1139   */\n  tag_22\n  jump\t// in\ntag_21:\n    /* \"#utility.yul\":1026:1139   */\n  swap1\n  pop\n    /* \"#utility.yul\":861:1146   */\n  swap3\n  swap2\n  pop\n  pop\n  jump\t// out\n    /* \"#utility.yul\":1152:2225   */\ntag_22:\n    /* \"#utility.yul\":1206:1211   */\n  0x00\n    /* \"#utility.yul\":1397:1405   */\n  dup3\n    /* \"#utility.yul\":1387:1427   */\n  tag_24\n  jumpi\n    /* \"#utility.yul\":1418:1419   */\n  0x01\n    /* \"#utility.yul\":1409:1419   */\n  swap1\n  pop\n    /* \"#utility.yul\":1420:1425   */\n  jump(tag_23)\n    /* \"#utility.yul\":1387:1427   */\ntag_24:\n    /* \"#utility.yul\":1446:1450   */\n  dup2\n    /* \"#utility.yul\":1436:1472   */\n  tag_25\n  jumpi\n    /* \"#utility.yul\":1463:1464   */\n  0x00\n    /* \"#utility.yul\":1454:1464   */\n  swap1\n  pop\n    /* \"#utility.yul\":1465:1470   */\n  jump(tag_23)\n    /* \"#utility.yul\":1436:1472   */\ntag_25:\n    /* \"#utility.yul\":1532:1536   */\n  dup2\n    /* \"#utility.yul\":1580:1581   */\n  0x01\n    /* \"#utility.yul\":1575:1602   */\n  dup2\n  eq\n  tag_27\n  jumpi\n    /* \"#utility.yul\":1616:1617   */\n  0x02\n    /* \"#utility.yul\":1611:1802   */\n  dup2\n  eq\n  tag_28\n  jumpi\n    /* \"#utility.yul\":1525:1802   */\n  jump(tag_26)\n    /* \"#utility.yul\":1575:1602   */\ntag_27:\n    /* \"#utility.yul\":1593:1594   */\n  0x01\n    /* \"#utility.yul\":1584:1594   */\n  swap2\n  pop\n    /* \"#utility.yul\":1595:1600   */\n  pop\n  jump(tag_23)\n    /* \"#utility.yul\":1611:1802   */\ntag_28:\n    /* \"#utility.yul\":1656:1659   */\n  0xff\n    /* \"#utility.yul\":1646:1654   */\n  dup5\n    /* \"#utility.yul\":1643:1660   */\n  gt\n    /* \"#utility.yul\":1640:1683   */\n  iszero\n  tag_29\n  jumpi\n    /* \"#utility.yul\":1663:1681   */\n  tag_30\n  tag_13\n  jump\t// in\ntag_30:\n    /* \"#utility.yul\":1640:1683   */\ntag_29:\n    /* \"#utility.yul\":1712:1720   */\n  dup4\n    /* \"#utility.yul\":1709:1710   */\n  0x02\n    /* \"#utility.yul\":1705:1721   */\n  exp\n    /* \"#utility.yul\":1696:1721   */\n  swap2\n  pop\n    /* \"#utility.yul\":1747:1750   */\n  dup5\n    /* \"#utility.yul\":1740:1745   */\n  dup3\n    /* \"#utility.yul\":1737:1751   */\n  gt\n    /* \"#utility.yul\":1734:1774   */\n  iszero\n  tag_31\n  jumpi\n    /* \"#utility.yul\":1754:1772   */\n  tag_32\n  tag_13\n  jump\t// in\ntag_32:\n    /* \"#utility.yul\":1734:1774   */\ntag_31:\n    /* \"#utility.yul\":1787:1792   */\n  pop\n  jump(tag_23)\n    /* \"#utility.yul\":1525:1802   */\ntag_26:\n  pop\n    /* \"#utility.yul\":1911:1913   */\n  0x20\n    /* \"#utility.yul\":1901:1909   */\n  dup4\n    /* \"#utility.yul\":1898:1914   */\n  lt\n    /* \"#utility.yul\":1892:1895   */\n  0x0133\n    /* \"#utility.yul\":1886:1890   */\n  dup4\n    /* \"#utility.yul\":1883:1896   */\n  lt\n    /* \"#utility.yul\":1879:1915   */\n  and\n    /* \"#utility.yul\":1861:1863   */\n  0x4e\n    /* \"#utility.yul\":1851:1859   */\n  dup5\n    /* \"#utility.yul\":1848:1864   */\n  lt\n    /* \"#utility.yul\":1843:1845   */\n  0x0b\n    /* \"#utility.yul\":1837:1841   */\n  dup5\n    /* \"#utility.yul\":1834:1846   */\n  lt\n    /* \"#utility.yul\":1830:1865   */\n  and\n    /* \"#utility.yul\":1814:1925   */\n  or\n    /* \"#utility.yul\":1811:2057   */\n  iszero\n  tag_33\n  jumpi\n    /* \"#utility.yul\":1967:1975   */\n  dup3\n    /* \"#utility.yul\":1961:1965   */\n  dup3\n    /* \"#utility.yul\":1957:1976   */\n  exp\n    /* \"#utility.yul\":1948:1976   */\n  swap1\n  pop\n    /* \"#utility.yul\":2002:2005   */\n  dup4\n    /* \"#utility.yul\":1995:2000   */\n  dup2\n    /* \"#utility.yul\":1992:2006   */\n  gt\n    /* \"#utility.yul\":1989:2029   */\n  iszero\n  tag_34\n  jumpi\n    /* \"#utility.yul\":2009:2027   */\n  tag_35\n  tag_13\n  jump\t// in\ntag_35:\n    /* \"#utility.yul\":1989:2029   */\ntag_34:\n    /* \"#utility.yul\":2042:2047   */\n  jump(tag_23)\n    /* \"#utility.yul\":1811:2057   */\ntag_33:\n    /* \"#utility.yul\":2082:2124   */\n  tag_36\n    /* \"#utility.yul\":2120:2123   */\n  dup5\n    /* \"#utility.yul\":2110:2118   */\n  dup5\n    /* \"#utility.yul\":2104:2108   */\n  dup5\n    /* \"#utility.yul\":2101:2102   */\n  0x01\n    /* \"#utility.yul\":2082:2124   */\n  tag_6\n  jump\t// in\ntag_36:\n    /* \"#utility.yul\":2067:2124   */\n  swap3\n  pop\n  swap1\n  pop\n    /* \"#utility.yul\":2156:2160   */\n  dup2\n    /* \"#utility.yul\":2151:2154   */\n  dup5\n    /* \"#utility.yul\":2147:2161   */\n  div\n    /* \"#utility.yul\":2140:2145   */\n  dup2\n    /* \"#utility.yul\":2137:2162   */\n  gt\n    /* \"#utility.yul\":2134:2185   */\n  iszero\n  tag_37\n  jumpi\n    /* \"#utility.yul\":2165:2183   */\n  tag_38\n  tag_13\n  jump\t// in\ntag_38:\n    /* \"#utility.yul\":2134:2185   */\ntag_37:\n    /* \"#utility.yul\":2214:2218   */\n  dup2\n    /* \"#utility.yul\":2207:2212   */\n  dup2\n    /* \"#utility.yul\":2203:2219   */\n  mul\n    /* \"#utility.yul\":2194:2219   */\n  swap1\n  pop\n    /* \"#utility.yul\":1152:2225   */\ntag_23:\n  swap4\n  swap3\n  pop\n  pop\n  pop\n  jump\t// out\n    /* \"#utility.yul\":2231:2308   */\ntag_19:\n    /* \"#utility.yul\":2268:2275   */\n  0x00\n    /* \"#utility.yul\":2297:2302   */\n  dup2\n    /* \"#utility.yul\":2286:2302   */\n  swap1\n  pop\n    /* \"#utility.yul\":2231:2308   */\n  swap2\n  swap1\n  pop\n  jump\t// out\n    /* \"#utility.yul\":2314:2494   */\ntag_13:\n    /* \"#utility.yul\":2362:2439   */\n  0x4e487b7100000000000000000000000000000000000000000000000000000000\n    /* \"#utility.yul\":2359:2360   */\n  0x00\n    /* \"#utility.yul\":2352:2440   */\n  mstore\n    /* \"#utility.yul\":2459:2463   */\n  0x11\n    /* \"#utility.yul\":2456:2457   */\n  0x04\n    /* \"#utility.yul\":2449:2464   */\n  mstore\n    /* \"#utility.yul\":2483:2487   */\n  0x24\n    /* \"#utility.yul\":2480:2481   */\n  0x00\n    /* \"#utility.yul\":2473:2488   */\n  revert\n    /* \"#utility.yul\":2500:2602   */\ntag_16:\n    /* \"#utility.yul\":2542:2550   */\n  0x00\n    /* \"#utility.yul\":2589:2594   */\n  dup2\n    /* \"#utility.yul\":2586:2587   */\n  0x01\n    /* \"#utility.yul\":2582:2595   */\n  shr\n    /* \"#utility.yul\":2561:2595   */\n  swap1\n  pop\n    /* \"#utility.yul\":2500:2602   */\n  swap2\n  swap1\n  pop\n  jump\t// out\n    /* \"contract/HouseRegistryExt.sol\":99:321  contract HouseRegistryExt is HouseRegistry {\r... */\ntag_4:\n  dataSize(sub_0)\n  dup1\n  dataOffset(sub_0)\n  0x00\n  codecopy\n  0x00\n  return\nstop\n\nsub_0: assembly {\n        /* \"contract/HouseRegistryExt.sol\":99:321  contract HouseRegistryExt is HouseRegistry {\r... */\n      mstore(0x40, 0x80)\n      callvalue\n      dup1\n      iszero\n      tag_1\n      jumpi\n      0x00\n      dup1\n      revert\n    tag_1:\n      pop\n      jumpi(tag_2, lt(calldatasize, 0x04))\n      shr(0xe0, calldataload(0x00))\n      dup1\n      0x3c3b0b4a\n      eq\n      tag_3\n      jumpi\n      dup1\n      0x91bfe0d4\n      eq\n      tag_4\n      jumpi\n      dup1\n      0xaeda852f\n      eq\n      tag_5\n      jumpi\n      dup1\n      0xbe40a73e\n      eq\n      tag_6\n      jumpi\n      dup1\n      0xc45e1b25\n      eq\n      tag_7\n      jumpi\n    tag_2:\n      0x00\n      dup1\n      revert\n        /* \"contract/HouseRegistry.sol\":1529:1798  function delistHouse(uint houseId) public returns (string memory){... */\n    tag_3:\n      tag_8\n      0x04\n      dup1\n      calldatasize\n      sub\n      dup2\n      add\n      swap1\n      tag_9\n      swap2\n      swap1\n      tag_10\n      jump\t// in\n    tag_9:\n      tag_11\n      jump\t// in\n    tag_8:\n      mload(0x40)\n      tag_12\n      swap2\n      swap1\n      tag_13\n      jump\t// in\n    tag_12:\n      mload(0x40)\n      dup1\n      swap2\n      sub\n      swap1\n      return\n        /* \"contract/HouseRegistry.sol\":853:1523  function listHouse (uint _price, uint _area, address _sellerAddress, string memory _houseAddress) public returns (uint) {... */\n    tag_4:\n      tag_14\n      0x04\n      dup1\n      calldatasize\n      sub\n      dup2\n      add\n      swap1\n      tag_15\n      swap2\n      swap1\n      tag_16\n      jump\t// in\n    tag_15:\n      tag_17\n      jump\t// in\n    tag_14:\n      mload(0x40)\n      tag_18\n      swap2\n      swap1\n      tag_19\n      jump\t// in\n    tag_18:\n      mload(0x40)\n      dup1\n      swap2\n      sub\n      swap1\n      return\n        /* \"contract/HouseRegistry.sol\":712:748  mapping(uint => House) public houses */\n    tag_5:\n      tag_20\n      0x04\n      dup1\n      calldatasize\n      sub\n      dup2\n      add\n      swap1\n      tag_21\n      swap2\n      swap1\n      tag_10\n      jump\t// in\n    tag_21:\n      tag_22\n      jump\t// in\n    tag_20:\n      mload(0x40)\n      tag_23\n      swap8\n      swap7\n      swap6\n      swap5\n      swap4\n      swap3\n      swap2\n      swap1\n      tag_24\n      jump\t// in\n    tag_23:\n      mload(0x40)\n      dup1\n      swap2\n      sub\n      swap1\n      return\n        /* \"contract/HouseRegistryExt.sol\":151:318  function listHouseSimple(uint _price, uint _area, string memory _houseAddress) public canOwnerAdd{\r... */\n    tag_6:\n      tag_25\n      0x04\n      dup1\n      calldatasize\n      sub\n      dup2\n      add\n      swap1\n      tag_26\n      swap2\n      swap1\n      tag_27\n      jump\t// in\n    tag_26:\n      tag_28\n      jump\t// in\n    tag_25:\n      stop\n        /* \"contract/HouseRegistry.sol\":1804:2346  function getCheapHouseIds(uint cost) external view returns (uint){... */\n    tag_7:\n      tag_29\n      0x04\n      dup1\n      calldatasize\n      sub\n      dup2\n      add\n      swap1\n      tag_30\n      swap2\n      swap1\n      tag_10\n      jump\t// in\n    tag_30:\n      tag_31\n      jump\t// in\n    tag_29:\n      mload(0x40)\n      tag_32\n      swap2\n      swap1\n      tag_19\n      jump\t// in\n    tag_32:\n      mload(0x40)\n      dup1\n      swap2\n      sub\n      swap1\n      return\n        /* \"contract/HouseRegistry.sol\":1529:1798  function delistHouse(uint houseId) public returns (string memory){... */\n    tag_11:\n        /* \"contract/HouseRegistry.sol\":1580:1593  string memory */\n      0x60\n        /* \"contract/HouseRegistry.sol\":1645:1655  msg.sender */\n      caller\n        /* \"contract/HouseRegistry.sol\":1612:1655  houses[houseId].sellerAddress == msg.sender */\n      0xffffffffffffffffffffffffffffffffffffffff\n      and\n        /* \"contract/HouseRegistry.sol\":1612:1618  houses */\n      0x06\n        /* \"contract/HouseRegistry.sol\":1612:1627  houses[houseId] */\n      0x00\n        /* \"contract/HouseRegistry.sol\":1619:1626  houseId */\n      dup5\n        /* \"contract/HouseRegistry.sol\":1612:1627  houses[houseId] */\n      dup2\n      mstore\n      0x20\n      add\n      swap1\n      dup2\n      mstore\n      0x20\n      add\n      0x00\n      keccak256\n        /* \"contract/HouseRegistry.sol\":1612:1641  houses[houseId].sellerAddress */\n      0x04\n      add\n      0x00\n      swap1\n      sload\n      swap1\n      0x0100\n      exp\n      swap1\n      div\n      0xffffffffffffffffffffffffffffffffffffffff\n      and\n        /* \"contract/HouseRegistry.sol\":1612:1655  houses[houseId].sellerAddress == msg.sender */\n      0xffffffffffffffffffffffffffffffffffffffff\n      and\n      eq\n        /* \"contract/HouseRegistry.sol\":1604:1703  require(houses[houseId].sellerAddress == msg.sender, \"You do not have access to delete this house\") */\n      tag_34\n      jumpi\n      mload(0x40)\n      0x08c379a000000000000000000000000000000000000000000000000000000000\n      dup2\n      mstore\n      0x04\n      add\n      tag_35\n      swap1\n      tag_36\n      jump\t// in\n    tag_35:\n      mload(0x40)\n      dup1\n      swap2\n      sub\n      swap1\n      revert\n    tag_34:\n        /* \"contract/HouseRegistry.sol\":1747:1751  true */\n      0x01\n        /* \"contract/HouseRegistry.sol\":1713:1719  houses */\n      0x06\n        /* \"contract/HouseRegistry.sol\":1713:1728  houses[houseId] */\n      0x00\n        /* \"contract/HouseRegistry.sol\":1720:1727  houseId */\n      dup5\n        /* \"contract/HouseRegistry.sol\":1713:1728  houses[houseId] */\n      dup2\n      mstore\n      0x20\n      add\n      swap1\n      dup2\n      mstore\n      0x20\n      add\n      0x00\n      keccak256\n        /* \"contract/HouseRegistry.sol\":1713:1744  houses[houseId].isdelistedHouse */\n      0x06\n      add\n      0x00\n        /* \"contract/HouseRegistry.sol\":1713:1751  houses[houseId].isdelistedHouse = true */\n      0x0100\n      exp\n      dup2\n      sload\n      dup2\n      0xff\n      mul\n      not\n      and\n      swap1\n      dup4\n      iszero\n      iszero\n      mul\n      or\n      swap1\n      sstore\n      pop\n        /* \"contract/HouseRegistry.sol\":1761:1791  return \"delist was successful\" */\n      mload(0x40)\n      dup1\n      0x40\n      add\n      0x40\n      mstore\n      dup1\n      0x15\n      dup2\n      mstore\n      0x20\n      add\n      0x64656c69737420776173207375636365737366756c0000000000000000000000\n      dup2\n      mstore\n      pop\n      swap1\n      pop\n        /* \"contract/HouseRegistry.sol\":1529:1798  function delistHouse(uint houseId) public returns (string memory){... */\n      swap2\n      swap1\n      pop\n      jump\t// out\n        /* \"contract/HouseRegistry.sol\":853:1523  function listHouse (uint _price, uint _area, address _sellerAddress, string memory _houseAddress) public returns (uint) {... */\n    tag_17:\n        /* \"contract/HouseRegistry.sol\":967:971  uint */\n      0x00\n        /* \"contract/HouseRegistry.sol\":1008:1009  0 */\n      dup1\n        /* \"contract/HouseRegistry.sol\":1000:1005  _area */\n      dup5\n        /* \"contract/HouseRegistry.sol\":991:997  _price */\n      dup7\n        /* \"contract/HouseRegistry.sol\":991:1005  _price * _area */\n      tag_38\n      swap2\n      swap1\n      tag_39\n      jump\t// in\n    tag_38:\n        /* \"contract/HouseRegistry.sol\":991:1009  _price * _area > 0 */\n      gt\n        /* \"contract/HouseRegistry.sol\":983:1034  require(_price * _area > 0, \"value cannot be null\") */\n      tag_40\n      jumpi\n      mload(0x40)\n      0x08c379a000000000000000000000000000000000000000000000000000000000\n      dup2\n      mstore\n      0x04\n      add\n      tag_41\n      swap1\n      tag_42\n      jump\t// in\n    tag_41:\n      mload(0x40)\n      dup1\n      swap2\n      sub\n      swap1\n      revert\n    tag_40:\n        /* \"contract/HouseRegistry.sol\":1044:1056  uint houseId */\n      0x00\n        /* \"contract/HouseRegistry.sol\":1059:1113  _generateHouseId(_sellerAddress, _area, _houseAddress) */\n      tag_43\n        /* \"contract/HouseRegistry.sol\":1076:1090  _sellerAddress */\n      dup5\n        /* \"contract/HouseRegistry.sol\":1092:1097  _area */\n      dup7\n        /* \"contract/HouseRegistry.sol\":1099:1112  _houseAddress */\n      dup6\n        /* \"contract/HouseRegistry.sol\":1059:1075  _generateHouseId */\n      tag_44\n        /* \"contract/HouseRegistry.sol\":1059:1113  _generateHouseId(_sellerAddress, _area, _houseAddress) */\n      jump\t// in\n    tag_43:\n        /* \"contract/HouseRegistry.sol\":1044:1113  uint houseId = _generateHouseId(_sellerAddress, _area, _houseAddress) */\n      swap1\n      pop\n        /* \"contract/HouseRegistry.sol\":1142:1148  houses */\n      0x06\n        /* \"contract/HouseRegistry.sol\":1142:1157  houses[houseId] */\n      0x00\n        /* \"contract/HouseRegistry.sol\":1149:1156  houseId */\n      dup3\n        /* \"contract/HouseRegistry.sol\":1142:1157  houses[houseId] */\n      dup2\n      mstore\n      0x20\n      add\n      swap1\n      dup2\n      mstore\n      0x20\n      add\n      0x00\n      keccak256\n        /* \"contract/HouseRegistry.sol\":1142:1160  houses[houseId].id */\n      0x00\n      add\n      sload\n        /* \"contract/HouseRegistry.sol\":1131:1138  houseId */\n      dup2\n        /* \"contract/HouseRegistry.sol\":1131:1160  houseId != houses[houseId].id */\n      eq\n      iszero\n        /* \"contract/HouseRegistry.sol\":1123:1192  require(houseId != houses[houseId].id, \"this houseId already exists\") */\n      tag_45\n      jumpi\n      mload(0x40)\n      0x08c379a000000000000000000000000000000000000000000000000000000000\n      dup2\n      mstore\n      0x04\n      add\n      tag_46\n      swap1\n      tag_47\n      jump\t// in\n    tag_46:\n      mload(0x40)\n      dup1\n      swap2\n      sub\n      swap1\n      revert\n    tag_45:\n        /* \"contract/HouseRegistry.sol\":1220:1302  House(houseId, countOfHouses, _price, _area, _sellerAddress, _houseAddress, false) */\n      mload(0x40)\n      dup1\n      0xe0\n      add\n      0x40\n      mstore\n      dup1\n        /* \"contract/HouseRegistry.sol\":1226:1233  houseId */\n      dup3\n        /* \"contract/HouseRegistry.sol\":1220:1302  House(houseId, countOfHouses, _price, _area, _sellerAddress, _houseAddress, false) */\n      dup2\n      mstore\n      0x20\n      add\n        /* \"contract/HouseRegistry.sol\":1235:1248  countOfHouses */\n      sload(0x03)\n        /* \"contract/HouseRegistry.sol\":1220:1302  House(houseId, countOfHouses, _price, _area, _sellerAddress, _houseAddress, false) */\n      dup2\n      mstore\n      0x20\n      add\n        /* \"contract/HouseRegistry.sol\":1250:1256  _price */\n      dup8\n        /* \"contract/HouseRegistry.sol\":1220:1302  House(houseId, countOfHouses, _price, _area, _sellerAddress, _houseAddress, false) */\n      dup2\n      mstore\n      0x20\n      add\n        /* \"contract/HouseRegistry.sol\":1258:1263  _area */\n      dup7\n        /* \"contract/HouseRegistry.sol\":1220:1302  House(houseId, countOfHouses, _price, _area, _sellerAddress, _houseAddress, false) */\n      dup2\n      mstore\n      0x20\n      add\n        /* \"contract/HouseRegistry.sol\":1265:1279  _sellerAddress */\n      dup6\n        /* \"contract/HouseRegistry.sol\":1220:1302  House(houseId, countOfHouses, _price, _area, _sellerAddress, _houseAddress, false) */\n      0xffffffffffffffffffffffffffffffffffffffff\n      and\n      dup2\n      mstore\n      0x20\n      add\n        /* \"contract/HouseRegistry.sol\":1281:1294  _houseAddress */\n      dup5\n        /* \"contract/HouseRegistry.sol\":1220:1302  House(houseId, countOfHouses, _price, _area, _sellerAddress, _houseAddress, false) */\n      dup2\n      mstore\n      0x20\n      add\n        /* \"contract/HouseRegistry.sol\":1296:1301  false */\n      0x00\n        /* \"contract/HouseRegistry.sol\":1220:1302  House(houseId, countOfHouses, _price, _area, _sellerAddress, _houseAddress, false) */\n      iszero\n      iszero\n      dup2\n      mstore\n      pop\n        /* \"contract/HouseRegistry.sol\":1202:1208  houses */\n      0x06\n        /* \"contract/HouseRegistry.sol\":1202:1217  houses[houseId] */\n      0x00\n        /* \"contract/HouseRegistry.sol\":1209:1216  houseId */\n      dup4\n        /* \"contract/HouseRegistry.sol\":1202:1217  houses[houseId] */\n      dup2\n      mstore\n      0x20\n      add\n      swap1\n      dup2\n      mstore\n      0x20\n      add\n      0x00\n      keccak256\n        /* \"contract/HouseRegistry.sol\":1202:1302  houses[houseId] = House(houseId, countOfHouses, _price, _area, _sellerAddress, _houseAddress, false) */\n      0x00\n      dup3\n      add\n      mload\n      dup2\n      0x00\n      add\n      sstore\n      0x20\n      dup3\n      add\n      mload\n      dup2\n      0x01\n      add\n      sstore\n      0x40\n      dup3\n      add\n      mload\n      dup2\n      0x02\n      add\n      sstore\n      0x60\n      dup3\n      add\n      mload\n      dup2\n      0x03\n      add\n      sstore\n      0x80\n      dup3\n      add\n      mload\n      dup2\n      0x04\n      add\n      exp(0x0100, 0x00)\n      dup2\n      sload\n      dup2\n      0xffffffffffffffffffffffffffffffffffffffff\n      mul\n      not\n      and\n      swap1\n      dup4\n      0xffffffffffffffffffffffffffffffffffffffff\n      and\n      mul\n      or\n      swap1\n      sstore\n      pop\n      0xa0\n      dup3\n      add\n      mload\n      dup2\n      0x05\n      add\n      swap1\n      dup1\n      mload\n      swap1\n      0x20\n      add\n      swap1\n      tag_48\n      swap3\n      swap2\n      swap1\n      tag_49\n      jump\t// in\n    tag_48:\n      pop\n      0xc0\n      dup3\n      add\n      mload\n      dup2\n      0x06\n      add\n      exp(0x0100, 0x00)\n      dup2\n      sload\n      dup2\n      0xff\n      mul\n      not\n      and\n      swap1\n      dup4\n      iszero\n      iszero\n      mul\n      or\n      swap1\n      sstore\n      pop\n      swap1\n      pop\n      pop\n        /* \"contract/HouseRegistry.sol\":1313:1359  _ownerCooldown(block.timestamp + cooldownTime) */\n      tag_50\n        /* \"contract/HouseRegistry.sol\":1346:1358  cooldownTime */\n      sload(0x02)\n        /* \"contract/HouseRegistry.sol\":1328:1343  block.timestamp */\n      timestamp\n        /* \"contract/HouseRegistry.sol\":1328:1358  block.timestamp + cooldownTime */\n      tag_51\n      swap2\n      swap1\n      tag_52\n      jump\t// in\n    tag_51:\n        /* \"contract/HouseRegistry.sol\":1313:1327  _ownerCooldown */\n      tag_53\n        /* \"contract/HouseRegistry.sol\":1313:1359  _ownerCooldown(block.timestamp + cooldownTime) */\n      jump\t// in\n    tag_50:\n        /* \"contract/HouseRegistry.sol\":1369:1379  houseIndex */\n      0x05\n        /* \"contract/HouseRegistry.sol\":1385:1392  houseId */\n      dup2\n        /* \"contract/HouseRegistry.sol\":1369:1393  houseIndex.push(houseId) */\n      swap1\n      dup1\n      0x01\n      dup2\n      sload\n      add\n      dup1\n      dup3\n      sstore\n      dup1\n      swap2\n      pop\n      pop\n      0x01\n      swap1\n      sub\n      swap1\n      0x00\n      mstore\n      keccak256(0x00, 0x20)\n      add\n      0x00\n      swap1\n      swap2\n      swap1\n      swap2\n      swap1\n      swap2\n      pop\n      sstore\n        /* \"contract/HouseRegistry.sol\":1403:1416  countOfHouses */\n      0x03\n      0x00\n        /* \"contract/HouseRegistry.sol\":1403:1418  countOfHouses++ */\n      dup2\n      sload\n      dup1\n      swap3\n      swap2\n      swap1\n      tag_55\n      swap1\n      tag_56\n      jump\t// in\n    tag_55:\n      swap2\n      swap1\n      pop\n      sstore\n      pop\n        /* \"contract/HouseRegistry.sol\":1433:1492  AddNewHouse(houseId, _sellerAddress, _price, _houseAddress) */\n      0x8f5afd88eb4be0ac287d87970052ce9a2b453448408e3c91a695ad7509ab7194\n        /* \"contract/HouseRegistry.sol\":1445:1452  houseId */\n      dup2\n        /* \"contract/HouseRegistry.sol\":1454:1468  _sellerAddress */\n      dup6\n        /* \"contract/HouseRegistry.sol\":1470:1476  _price */\n      dup9\n        /* \"contract/HouseRegistry.sol\":1478:1491  _houseAddress */\n      dup7\n        /* \"contract/HouseRegistry.sol\":1433:1492  AddNewHouse(houseId, _sellerAddress, _price, _houseAddress) */\n      mload(0x40)\n      tag_57\n      swap5\n      swap4\n      swap3\n      swap2\n      swap1\n      tag_58\n      jump\t// in\n    tag_57:\n      mload(0x40)\n      dup1\n      swap2\n      sub\n      swap1\n      log1\n        /* \"contract/HouseRegistry.sol\":1509:1516  houseId */\n      dup1\n        /* \"contract/HouseRegistry.sol\":1502:1516  return houseId */\n      swap2\n      pop\n      pop\n        /* \"contract/HouseRegistry.sol\":853:1523  function listHouse (uint _price, uint _area, address _sellerAddress, string memory _houseAddress) public returns (uint) {... */\n      swap5\n      swap4\n      pop\n      pop\n      pop\n      pop\n      jump\t// out\n        /* \"contract/HouseRegistry.sol\":712:748  mapping(uint => House) public houses */\n    tag_22:\n      mstore(0x20, 0x06)\n      dup1\n      0x00\n      mstore\n      keccak256(0x00, 0x40)\n      0x00\n      swap2\n      pop\n      swap1\n      pop\n      dup1\n      0x00\n      add\n      sload\n      swap1\n      dup1\n      0x01\n      add\n      sload\n      swap1\n      dup1\n      0x02\n      add\n      sload\n      swap1\n      dup1\n      0x03\n      add\n      sload\n      swap1\n      dup1\n      0x04\n      add\n      0x00\n      swap1\n      sload\n      swap1\n      0x0100\n      exp\n      swap1\n      div\n      0xffffffffffffffffffffffffffffffffffffffff\n      and\n      swap1\n      dup1\n      0x05\n      add\n      dup1\n      sload\n      tag_59\n      swap1\n      tag_60\n      jump\t// in\n    tag_59:\n      dup1\n      0x1f\n      add\n      0x20\n      dup1\n      swap2\n      div\n      mul\n      0x20\n      add\n      mload(0x40)\n      swap1\n      dup2\n      add\n      0x40\n      mstore\n      dup1\n      swap3\n      swap2\n      swap1\n      dup2\n      dup2\n      mstore\n      0x20\n      add\n      dup3\n      dup1\n      sload\n      tag_61\n      swap1\n      tag_60\n      jump\t// in\n    tag_61:\n      dup1\n      iszero\n      tag_62\n      jumpi\n      dup1\n      0x1f\n      lt\n      tag_63\n      jumpi\n      0x0100\n      dup1\n      dup4\n      sload\n      div\n      mul\n      dup4\n      mstore\n      swap2\n      0x20\n      add\n      swap2\n      jump(tag_62)\n    tag_63:\n      dup3\n      add\n      swap2\n      swap1\n      0x00\n      mstore\n      keccak256(0x00, 0x20)\n      swap1\n    tag_64:\n      dup2\n      sload\n      dup2\n      mstore\n      swap1\n      0x01\n      add\n      swap1\n      0x20\n      add\n      dup1\n      dup4\n      gt\n      tag_64\n      jumpi\n      dup3\n      swap1\n      sub\n      0x1f\n      and\n      dup3\n      add\n      swap2\n    tag_62:\n      pop\n      pop\n      pop\n      pop\n      pop\n      swap1\n      dup1\n      0x06\n      add\n      0x00\n      swap1\n      sload\n      swap1\n      0x0100\n      exp\n      swap1\n      div\n      0xff\n      and\n      swap1\n      pop\n      dup8\n      jump\t// out\n        /* \"contract/HouseRegistryExt.sol\":151:318  function listHouseSimple(uint _price, uint _area, string memory _houseAddress) public canOwnerAdd{\r... */\n    tag_28:\n        /* \"contract/HouseRegistry.sol\":504:519  block.timestamp */\n      timestamp\n        /* \"contract/HouseRegistry.sol\":484:500  ownerAddCooldown */\n      sload(0x04)\n        /* \"contract/HouseRegistry.sol\":484:519  ownerAddCooldown <= block.timestamp */\n      gt\n      iszero\n        /* \"contract/HouseRegistry.sol\":476:559  require(ownerAddCooldown <= block.timestamp, \"The owner cannot yet add a new home\") */\n      tag_66\n      jumpi\n      mload(0x40)\n      0x08c379a000000000000000000000000000000000000000000000000000000000\n      dup2\n      mstore\n      0x04\n      add\n      tag_67\n      swap1\n      tag_68\n      jump\t// in\n    tag_67:\n      mload(0x40)\n      dup1\n      swap2\n      sub\n      swap1\n      revert\n    tag_66:\n        /* \"contract/HouseRegistryExt.sol\":259:310  listHouse(_price, _area, msg.sender, _houseAddress) */\n      tag_70\n        /* \"contract/HouseRegistryExt.sol\":269:275  _price */\n      dup4\n        /* \"contract/HouseRegistryExt.sol\":277:282  _area */\n      dup4\n        /* \"contract/HouseRegistryExt.sol\":284:294  msg.sender */\n      caller\n        /* \"contract/HouseRegistryExt.sol\":296:309  _houseAddress */\n      dup5\n        /* \"contract/HouseRegistryExt.sol\":259:268  listHouse */\n      tag_17\n        /* \"contract/HouseRegistryExt.sol\":259:310  listHouse(_price, _area, msg.sender, _houseAddress) */\n      jump\t// in\n    tag_70:\n      pop\n        /* \"contract/HouseRegistryExt.sol\":151:318  function listHouseSimple(uint _price, uint _area, string memory _houseAddress) public canOwnerAdd{\r... */\n      pop\n      pop\n      pop\n      jump\t// out\n        /* \"contract/HouseRegistry.sol\":1804:2346  function getCheapHouseIds(uint cost) external view returns (uint){... */\n    tag_31:\n        /* \"contract/HouseRegistry.sol\":1864:1868  uint */\n      0x00\n        /* \"contract/HouseRegistry.sol\":1879:1889  uint count */\n      dup1\n        /* \"contract/HouseRegistry.sol\":1892:1893  0 */\n      0x00\n        /* \"contract/HouseRegistry.sol\":1879:1893  uint count = 0 */\n      swap1\n      pop\n        /* \"contract/HouseRegistry.sol\":1907:1913  uint i */\n      0x00\n        /* \"contract/HouseRegistry.sol\":1916:1917  1 */\n      0x01\n        /* \"contract/HouseRegistry.sol\":1907:1917  uint i = 1 */\n      swap1\n      pop\n        /* \"contract/HouseRegistry.sol\":1903:2048  for(uint i = 1; i < houseIndex.length; i++){... */\n    tag_72:\n        /* \"contract/HouseRegistry.sol\":1923:1933  houseIndex */\n      0x05\n        /* \"contract/HouseRegistry.sol\":1923:1940  houseIndex.length */\n      dup1\n      sload\n      swap1\n      pop\n        /* \"contract/HouseRegistry.sol\":1919:1920  i */\n      dup2\n        /* \"contract/HouseRegistry.sol\":1919:1940  i < houseIndex.length */\n      lt\n        /* \"contract/HouseRegistry.sol\":1903:2048  for(uint i = 1; i < houseIndex.length; i++){... */\n      iszero\n      tag_73\n      jumpi\n        /* \"contract/HouseRegistry.sol\":1993:1997  cost */\n      dup4\n        /* \"contract/HouseRegistry.sol\":1963:1969  houses */\n      0x06\n        /* \"contract/HouseRegistry.sol\":1963:1984  houses[houseIndex[i]] */\n      0x00\n        /* \"contract/HouseRegistry.sol\":1970:1980  houseIndex */\n      0x05\n        /* \"contract/HouseRegistry.sol\":1981:1982  i */\n      dup5\n        /* \"contract/HouseRegistry.sol\":1970:1983  houseIndex[i] */\n      dup2\n      sload\n      dup2\n      lt\n      tag_75\n      jumpi\n      tag_76\n      tag_77\n      jump\t// in\n    tag_76:\n    tag_75:\n      swap1\n      0x00\n      mstore\n      keccak256(0x00, 0x20)\n      add\n      sload\n        /* \"contract/HouseRegistry.sol\":1963:1984  houses[houseIndex[i]] */\n      dup2\n      mstore\n      0x20\n      add\n      swap1\n      dup2\n      mstore\n      0x20\n      add\n      0x00\n      keccak256\n        /* \"contract/HouseRegistry.sol\":1963:1990  houses[houseIndex[i]].price */\n      0x02\n      add\n      sload\n        /* \"contract/HouseRegistry.sol\":1963:1997  houses[houseIndex[i]].price < cost */\n      lt\n        /* \"contract/HouseRegistry.sol\":1960:2038  if(houses[houseIndex[i]].price < cost){... */\n      iszero\n      tag_79\n      jumpi\n        /* \"contract/HouseRegistry.sol\":2016:2023  count++ */\n      dup2\n      dup1\n      tag_80\n      swap1\n      tag_56\n      jump\t// in\n    tag_80:\n      swap3\n      pop\n      pop\n        /* \"contract/HouseRegistry.sol\":1960:2038  if(houses[houseIndex[i]].price < cost){... */\n    tag_79:\n        /* \"contract/HouseRegistry.sol\":1942:1945  i++ */\n      dup1\n      dup1\n      tag_81\n      swap1\n      tag_56\n      jump\t// in\n    tag_81:\n      swap2\n      pop\n      pop\n        /* \"contract/HouseRegistry.sol\":1903:2048  for(uint i = 1; i < houseIndex.length; i++){... */\n      jump(tag_72)\n    tag_73:\n      pop\n        /* \"contract/HouseRegistry.sol\":2333:2338  count */\n      dup1\n        /* \"contract/HouseRegistry.sol\":2326:2338  return count */\n      swap2\n      pop\n      pop\n        /* \"contract/HouseRegistry.sol\":1804:2346  function getCheapHouseIds(uint cost) external view returns (uint){... */\n      swap2\n      swap1\n      pop\n      jump\t// out\n        /* \"contract/HouseRegistry.sol\":2352:2606  function _generateHouseId(address _sellerAddress, uint _area, string memory _houseAddress) private view returns(uint){... */\n    tag_44:\n        /* \"contract/HouseRegistry.sol\":2464:2468  uint */\n      0x00\n        /* \"contract/HouseRegistry.sol\":2479:2491  uint houseId */\n      dup1\n        /* \"contract/HouseRegistry.sol\":2526:2540  _sellerAddress */\n      dup5\n        /* \"contract/HouseRegistry.sol\":2542:2547  _area */\n      dup5\n        /* \"contract/HouseRegistry.sol\":2549:2562  _houseAddress */\n      dup5\n        /* \"contract/HouseRegistry.sol\":2509:2563  abi.encodePacked(_sellerAddress, _area, _houseAddress) */\n      add(0x20, mload(0x40))\n      tag_83\n      swap4\n      swap3\n      swap2\n      swap1\n      tag_84\n      jump\t// in\n    tag_83:\n      mload(0x40)\n      0x20\n      dup2\n      dup4\n      sub\n      sub\n      dup2\n      mstore\n      swap1\n      0x40\n      mstore\n        /* \"contract/HouseRegistry.sol\":2499:2564  keccak256(abi.encodePacked(_sellerAddress, _area, _houseAddress)) */\n      dup1\n      mload\n      swap1\n      0x20\n      add\n      keccak256\n        /* \"contract/HouseRegistry.sol\":2494:2565  uint(keccak256(abi.encodePacked(_sellerAddress, _area, _houseAddress))) */\n      0x00\n      shr\n        /* \"contract/HouseRegistry.sol\":2479:2565  uint houseId = uint(keccak256(abi.encodePacked(_sellerAddress, _area, _houseAddress))) */\n      swap1\n      pop\n        /* \"contract/HouseRegistry.sol\":2592:2599  modulus */\n      sload(0x01)\n        /* \"contract/HouseRegistry.sol\":2582:2589  houseId */\n      dup2\n        /* \"contract/HouseRegistry.sol\":2582:2599  houseId % modulus */\n      tag_85\n      swap2\n      swap1\n      tag_86\n      jump\t// in\n    tag_85:\n        /* \"contract/HouseRegistry.sol\":2575:2599  return houseId % modulus */\n      swap2\n      pop\n      pop\n        /* \"contract/HouseRegistry.sol\":2352:2606  function _generateHouseId(address _sellerAddress, uint _area, string memory _houseAddress) private view returns(uint){... */\n      swap4\n      swap3\n      pop\n      pop\n      pop\n      jump\t// out\n        /* \"contract/HouseRegistry.sol\":755:847  function _ownerCooldown(uint _newTime) internal {... */\n    tag_53:\n        /* \"contract/HouseRegistry.sol\":832:840  _newTime */\n      dup1\n        /* \"contract/HouseRegistry.sol\":813:829  ownerAddCooldown */\n      0x04\n        /* \"contract/HouseRegistry.sol\":813:840  ownerAddCooldown = _newTime */\n      dup2\n      swap1\n      sstore\n      pop\n        /* \"contract/HouseRegistry.sol\":755:847  function _ownerCooldown(uint _newTime) internal {... */\n      pop\n      jump\t// out\n    tag_49:\n      dup3\n      dup1\n      sload\n      tag_88\n      swap1\n      tag_60\n      jump\t// in\n    tag_88:\n      swap1\n      0x00\n      mstore\n      keccak256(0x00, 0x20)\n      swap1\n      0x1f\n      add\n      0x20\n      swap1\n      div\n      dup2\n      add\n      swap3\n      dup3\n      tag_90\n      jumpi\n      0x00\n      dup6\n      sstore\n      jump(tag_89)\n    tag_90:\n      dup3\n      0x1f\n      lt\n      tag_91\n      jumpi\n      dup1\n      mload\n      not(0xff)\n      and\n      dup4\n      dup1\n      add\n      or\n      dup6\n      sstore\n      jump(tag_89)\n    tag_91:\n      dup3\n      dup1\n      add\n      0x01\n      add\n      dup6\n      sstore\n      dup3\n      iszero\n      tag_89\n      jumpi\n      swap2\n      dup3\n      add\n    tag_92:\n      dup3\n      dup2\n      gt\n      iszero\n      tag_93\n      jumpi\n      dup3\n      mload\n      dup3\n      sstore\n      swap2\n      0x20\n      add\n      swap2\n      swap1\n      0x01\n      add\n      swap1\n      jump(tag_92)\n    tag_93:\n    tag_89:\n      pop\n      swap1\n      pop\n      tag_94\n      swap2\n      swap1\n      tag_95\n      jump\t// in\n    tag_94:\n      pop\n      swap1\n      jump\t// out\n    tag_95:\n    tag_96:\n      dup1\n      dup3\n      gt\n      iszero\n      tag_97\n      jumpi\n      0x00\n      dup2\n      0x00\n      swap1\n      sstore\n      pop\n      0x01\n      add\n      jump(tag_96)\n    tag_97:\n      pop\n      swap1\n      jump\t// out\n        /* \"#utility.yul\":7:419   */\n    tag_99:\n        /* \"#utility.yul\":85:90   */\n      0x00\n        /* \"#utility.yul\":110:176   */\n      tag_101\n        /* \"#utility.yul\":126:175   */\n      tag_102\n        /* \"#utility.yul\":168:174   */\n      dup5\n        /* \"#utility.yul\":126:175   */\n      tag_103\n      jump\t// in\n    tag_102:\n        /* \"#utility.yul\":110:176   */\n      tag_104\n      jump\t// in\n    tag_101:\n        /* \"#utility.yul\":101:176   */\n      swap1\n      pop\n        /* \"#utility.yul\":199:205   */\n      dup3\n        /* \"#utility.yul\":192:197   */\n      dup2\n        /* \"#utility.yul\":185:206   */\n      mstore\n        /* \"#utility.yul\":237:241   */\n      0x20\n        /* \"#utility.yul\":230:235   */\n      dup2\n        /* \"#utility.yul\":226:242   */\n      add\n        /* \"#utility.yul\":275:278   */\n      dup5\n        /* \"#utility.yul\":266:272   */\n      dup5\n        /* \"#utility.yul\":261:264   */\n      dup5\n        /* \"#utility.yul\":257:273   */\n      add\n        /* \"#utility.yul\":254:279   */\n      gt\n        /* \"#utility.yul\":251:363   */\n      iszero\n      tag_105\n      jumpi\n        /* \"#utility.yul\":282:361   */\n      tag_106\n      tag_107\n      jump\t// in\n    tag_106:\n        /* \"#utility.yul\":251:363   */\n    tag_105:\n        /* \"#utility.yul\":372:413   */\n      tag_108\n        /* \"#utility.yul\":406:412   */\n      dup5\n        /* \"#utility.yul\":401:404   */\n      dup3\n        /* \"#utility.yul\":396:399   */\n      dup6\n        /* \"#utility.yul\":372:413   */\n      tag_109\n      jump\t// in\n    tag_108:\n        /* \"#utility.yul\":91:419   */\n      pop\n        /* \"#utility.yul\":7:419   */\n      swap4\n      swap3\n      pop\n      pop\n      pop\n      jump\t// out\n        /* \"#utility.yul\":425:564   */\n    tag_110:\n        /* \"#utility.yul\":471:476   */\n      0x00\n        /* \"#utility.yul\":509:515   */\n      dup2\n        /* \"#utility.yul\":496:516   */\n      calldataload\n        /* \"#utility.yul\":487:516   */\n      swap1\n      pop\n        /* \"#utility.yul\":525:558   */\n      tag_112\n        /* \"#utility.yul\":552:557   */\n      dup2\n        /* \"#utility.yul\":525:558   */\n      tag_113\n      jump\t// in\n    tag_112:\n        /* \"#utility.yul\":425:564   */\n      swap3\n      swap2\n      pop\n      pop\n      jump\t// out\n        /* \"#utility.yul\":584:924   */\n    tag_114:\n        /* \"#utility.yul\":640:645   */\n      0x00\n        /* \"#utility.yul\":689:692   */\n      dup3\n        /* \"#utility.yul\":682:686   */\n      0x1f\n        /* \"#utility.yul\":674:680   */\n      dup4\n        /* \"#utility.yul\":670:687   */\n      add\n        /* \"#utility.yul\":666:693   */\n      slt\n        /* \"#utility.yul\":656:778   */\n      tag_116\n      jumpi\n        /* \"#utility.yul\":697:776   */\n      tag_117\n      tag_118\n      jump\t// in\n    tag_117:\n        /* \"#utility.yul\":656:778   */\n    tag_116:\n        /* \"#utility.yul\":814:820   */\n      dup2\n        /* \"#utility.yul\":801:821   */\n      calldataload\n        /* \"#utility.yul\":839:918   */\n      tag_119\n        /* \"#utility.yul\":914:917   */\n      dup5\n        /* \"#utility.yul\":906:912   */\n      dup3\n        /* \"#utility.yul\":899:903   */\n      0x20\n        /* \"#utility.yul\":891:897   */\n      dup7\n        /* \"#utility.yul\":887:904   */\n      add\n        /* \"#utility.yul\":839:918   */\n      tag_99\n      jump\t// in\n    tag_119:\n        /* \"#utility.yul\":830:918   */\n      swap2\n      pop\n        /* \"#utility.yul\":646:924   */\n      pop\n        /* \"#utility.yul\":584:924   */\n      swap3\n      swap2\n      pop\n      pop\n      jump\t// out\n        /* \"#utility.yul\":930:1069   */\n    tag_120:\n        /* \"#utility.yul\":976:981   */\n      0x00\n        /* \"#utility.yul\":1014:1020   */\n      dup2\n        /* \"#utility.yul\":1001:1021   */\n      calldataload\n        /* \"#utility.yul\":992:1021   */\n      swap1\n      pop\n        /* \"#utility.yul\":1030:1063   */\n      tag_122\n        /* \"#utility.yul\":1057:1062   */\n      dup2\n        /* \"#utility.yul\":1030:1063   */\n      tag_123\n      jump\t// in\n    tag_122:\n        /* \"#utility.yul\":930:1069   */\n      swap3\n      swap2\n      pop\n      pop\n      jump\t// out\n        /* \"#utility.yul\":1075:1404   */\n    tag_10:\n        /* \"#utility.yul\":1134:1140   */\n      0x00\n        /* \"#utility.yul\":1183:1185   */\n      0x20\n        /* \"#utility.yul\":1171:1180   */\n      dup3\n        /* \"#utility.yul\":1162:1169   */\n      dup5\n        /* \"#utility.yul\":1158:1181   */\n      sub\n        /* \"#utility.yul\":1154:1186   */\n      slt\n        /* \"#utility.yul\":1151:1270   */\n      iszero\n      tag_125\n      jumpi\n        /* \"#utility.yul\":1189:1268   */\n      tag_126\n      tag_127\n      jump\t// in\n    tag_126:\n        /* \"#utility.yul\":1151:1270   */\n    tag_125:\n        /* \"#utility.yul\":1309:1310   */\n      0x00\n        /* \"#utility.yul\":1334:1387   */\n      tag_128\n        /* \"#utility.yul\":1379:1386   */\n      dup5\n        /* \"#utility.yul\":1370:1376   */\n      dup3\n        /* \"#utility.yul\":1359:1368   */\n      dup6\n        /* \"#utility.yul\":1355:1377   */\n      add\n        /* \"#utility.yul\":1334:1387   */\n      tag_120\n      jump\t// in\n    tag_128:\n        /* \"#utility.yul\":1324:1387   */\n      swap2\n      pop\n        /* \"#utility.yul\":1280:1397   */\n      pop\n        /* \"#utility.yul\":1075:1404   */\n      swap3\n      swap2\n      pop\n      pop\n      jump\t// out\n        /* \"#utility.yul\":1410:2355   */\n    tag_16:\n        /* \"#utility.yul\":1506:1512   */\n      0x00\n        /* \"#utility.yul\":1514:1520   */\n      dup1\n        /* \"#utility.yul\":1522:1528   */\n      0x00\n        /* \"#utility.yul\":1530:1536   */\n      dup1\n        /* \"#utility.yul\":1579:1582   */\n      0x80\n        /* \"#utility.yul\":1567:1576   */\n      dup6\n        /* \"#utility.yul\":1558:1565   */\n      dup8\n        /* \"#utility.yul\":1554:1577   */\n      sub\n        /* \"#utility.yul\":1550:1583   */\n      slt\n        /* \"#utility.yul\":1547:1667   */\n      iszero\n      tag_130\n      jumpi\n        /* \"#utility.yul\":1586:1665   */\n      tag_131\n      tag_127\n      jump\t// in\n    tag_131:\n        /* \"#utility.yul\":1547:1667   */\n    tag_130:\n        /* \"#utility.yul\":1706:1707   */\n      0x00\n        /* \"#utility.yul\":1731:1784   */\n      tag_132\n        /* \"#utility.yul\":1776:1783   */\n      dup8\n        /* \"#utility.yul\":1767:1773   */\n      dup3\n        /* \"#utility.yul\":1756:1765   */\n      dup9\n        /* \"#utility.yul\":1752:1774   */\n      add\n        /* \"#utility.yul\":1731:1784   */\n      tag_120\n      jump\t// in\n    tag_132:\n        /* \"#utility.yul\":1721:1784   */\n      swap5\n      pop\n        /* \"#utility.yul\":1677:1794   */\n      pop\n        /* \"#utility.yul\":1833:1835   */\n      0x20\n        /* \"#utility.yul\":1859:1912   */\n      tag_133\n        /* \"#utility.yul\":1904:1911   */\n      dup8\n        /* \"#utility.yul\":1895:1901   */\n      dup3\n        /* \"#utility.yul\":1884:1893   */\n      dup9\n        /* \"#utility.yul\":1880:1902   */\n      add\n        /* \"#utility.yul\":1859:1912   */\n      tag_120\n      jump\t// in\n    tag_133:\n        /* \"#utility.yul\":1849:1912   */\n      swap4\n      pop\n        /* \"#utility.yul\":1804:1922   */\n      pop\n        /* \"#utility.yul\":1961:1963   */\n      0x40\n        /* \"#utility.yul\":1987:2040   */\n      tag_134\n        /* \"#utility.yul\":2032:2039   */\n      dup8\n        /* \"#utility.yul\":2023:2029   */\n      dup3\n        /* \"#utility.yul\":2012:2021   */\n      dup9\n        /* \"#utility.yul\":2008:2030   */\n      add\n        /* \"#utility.yul\":1987:2040   */\n      tag_110\n      jump\t// in\n    tag_134:\n        /* \"#utility.yul\":1977:2040   */\n      swap3\n      pop\n        /* \"#utility.yul\":1932:2050   */\n      pop\n        /* \"#utility.yul\":2117:2119   */\n      0x60\n        /* \"#utility.yul\":2106:2115   */\n      dup6\n        /* \"#utility.yul\":2102:2120   */\n      add\n        /* \"#utility.yul\":2089:2121   */\n      calldataload\n        /* \"#utility.yul\":2148:2166   */\n      0xffffffffffffffff\n        /* \"#utility.yul\":2140:2146   */\n      dup2\n        /* \"#utility.yul\":2137:2167   */\n      gt\n        /* \"#utility.yul\":2134:2251   */\n      iszero\n      tag_135\n      jumpi\n        /* \"#utility.yul\":2170:2249   */\n      tag_136\n      tag_137\n      jump\t// in\n    tag_136:\n        /* \"#utility.yul\":2134:2251   */\n    tag_135:\n        /* \"#utility.yul\":2275:2338   */\n      tag_138\n        /* \"#utility.yul\":2330:2337   */\n      dup8\n        /* \"#utility.yul\":2321:2327   */\n      dup3\n        /* \"#utility.yul\":2310:2319   */\n      dup9\n        /* \"#utility.yul\":2306:2328   */\n      add\n        /* \"#utility.yul\":2275:2338   */\n      tag_114\n      jump\t// in\n    tag_138:\n        /* \"#utility.yul\":2265:2338   */\n      swap2\n      pop\n        /* \"#utility.yul\":2060:2348   */\n      pop\n        /* \"#utility.yul\":1410:2355   */\n      swap3\n      swap6\n      swap2\n      swap5\n      pop\n      swap3\n      pop\n      jump\t// out\n        /* \"#utility.yul\":2361:3160   */\n    tag_27:\n        /* \"#utility.yul\":2448:2454   */\n      0x00\n        /* \"#utility.yul\":2456:2462   */\n      dup1\n        /* \"#utility.yul\":2464:2470   */\n      0x00\n        /* \"#utility.yul\":2513:2515   */\n      0x60\n        /* \"#utility.yul\":2501:2510   */\n      dup5\n        /* \"#utility.yul\":2492:2499   */\n      dup7\n        /* \"#utility.yul\":2488:2511   */\n      sub\n        /* \"#utility.yul\":2484:2516   */\n      slt\n        /* \"#utility.yul\":2481:2600   */\n      iszero\n      tag_140\n      jumpi\n        /* \"#utility.yul\":2519:2598   */\n      tag_141\n      tag_127\n      jump\t// in\n    tag_141:\n        /* \"#utility.yul\":2481:2600   */\n    tag_140:\n        /* \"#utility.yul\":2639:2640   */\n      0x00\n        /* \"#utility.yul\":2664:2717   */\n      tag_142\n        /* \"#utility.yul\":2709:2716   */\n      dup7\n        /* \"#utility.yul\":2700:2706   */\n      dup3\n        /* \"#utility.yul\":2689:2698   */\n      dup8\n        /* \"#utility.yul\":2685:2707   */\n      add\n        /* \"#utility.yul\":2664:2717   */\n      tag_120\n      jump\t// in\n    tag_142:\n        /* \"#utility.yul\":2654:2717   */\n      swap4\n      pop\n        /* \"#utility.yul\":2610:2727   */\n      pop\n        /* \"#utility.yul\":2766:2768   */\n      0x20\n        /* \"#utility.yul\":2792:2845   */\n      tag_143\n        /* \"#utility.yul\":2837:2844   */\n      dup7\n        /* \"#utility.yul\":2828:2834   */\n      dup3\n        /* \"#utility.yul\":2817:2826   */\n      dup8\n        /* \"#utility.yul\":2813:2835   */\n      add\n        /* \"#utility.yul\":2792:2845   */\n      tag_120\n      jump\t// in\n    tag_143:\n        /* \"#utility.yul\":2782:2845   */\n      swap3\n      pop\n        /* \"#utility.yul\":2737:2855   */\n      pop\n        /* \"#utility.yul\":2922:2924   */\n      0x40\n        /* \"#utility.yul\":2911:2920   */\n      dup5\n        /* \"#utility.yul\":2907:2925   */\n      add\n        /* \"#utility.yul\":2894:2926   */\n      calldataload\n        /* \"#utility.yul\":2953:2971   */\n      0xffffffffffffffff\n        /* \"#utility.yul\":2945:2951   */\n      dup2\n        /* \"#utility.yul\":2942:2972   */\n      gt\n        /* \"#utility.yul\":2939:3056   */\n      iszero\n      tag_144\n      jumpi\n        /* \"#utility.yul\":2975:3054   */\n      tag_145\n      tag_137\n      jump\t// in\n    tag_145:\n        /* \"#utility.yul\":2939:3056   */\n    tag_144:\n        /* \"#utility.yul\":3080:3143   */\n      tag_146\n        /* \"#utility.yul\":3135:3142   */\n      dup7\n        /* \"#utility.yul\":3126:3132   */\n      dup3\n        /* \"#utility.yul\":3115:3124   */\n      dup8\n        /* \"#utility.yul\":3111:3133   */\n      add\n        /* \"#utility.yul\":3080:3143   */\n      tag_114\n      jump\t// in\n    tag_146:\n        /* \"#utility.yul\":3070:3143   */\n      swap2\n      pop\n        /* \"#utility.yul\":2865:3153   */\n      pop\n        /* \"#utility.yul\":2361:3160   */\n      swap3\n      pop\n      swap3\n      pop\n      swap3\n      jump\t// out\n        /* \"#utility.yul\":3166:3284   */\n    tag_147:\n        /* \"#utility.yul\":3253:3277   */\n      tag_149\n        /* \"#utility.yul\":3271:3276   */\n      dup2\n        /* \"#utility.yul\":3253:3277   */\n      tag_150\n      jump\t// in\n    tag_149:\n        /* \"#utility.yul\":3248:3251   */\n      dup3\n        /* \"#utility.yul\":3241:3278   */\n      mstore\n        /* \"#utility.yul\":3166:3284   */\n      pop\n      pop\n      jump\t// out\n        /* \"#utility.yul\":3290:3447   */\n    tag_151:\n        /* \"#utility.yul\":3395:3440   */\n      tag_153\n        /* \"#utility.yul\":3415:3439   */\n      tag_154\n        /* \"#utility.yul\":3433:3438   */\n      dup3\n        /* \"#utility.yul\":3415:3439   */\n      tag_150\n      jump\t// in\n    tag_154:\n        /* \"#utility.yul\":3395:3440   */\n      tag_155\n      jump\t// in\n    tag_153:\n        /* \"#utility.yul\":3390:3393   */\n      dup3\n        /* \"#utility.yul\":3383:3441   */\n      mstore\n        /* \"#utility.yul\":3290:3447   */\n      pop\n      pop\n      jump\t// out\n        /* \"#utility.yul\":3453:3562   */\n    tag_156:\n        /* \"#utility.yul\":3534:3555   */\n      tag_158\n        /* \"#utility.yul\":3549:3554   */\n      dup2\n        /* \"#utility.yul\":3534:3555   */\n      tag_159\n      jump\t// in\n    tag_158:\n        /* \"#utility.yul\":3529:3532   */\n      dup3\n        /* \"#utility.yul\":3522:3556   */\n      mstore\n        /* \"#utility.yul\":3453:3562   */\n      pop\n      pop\n      jump\t// out\n        /* \"#utility.yul\":3568:3932   */\n    tag_160:\n        /* \"#utility.yul\":3656:3659   */\n      0x00\n        /* \"#utility.yul\":3684:3723   */\n      tag_162\n        /* \"#utility.yul\":3717:3722   */\n      dup3\n        /* \"#utility.yul\":3684:3723   */\n      tag_163\n      jump\t// in\n    tag_162:\n        /* \"#utility.yul\":3739:3810   */\n      tag_164\n        /* \"#utility.yul\":3803:3809   */\n      dup2\n        /* \"#utility.yul\":3798:3801   */\n      dup6\n        /* \"#utility.yul\":3739:3810   */\n      tag_165\n      jump\t// in\n    tag_164:\n        /* \"#utility.yul\":3732:3810   */\n      swap4\n      pop\n        /* \"#utility.yul\":3819:3871   */\n      tag_166\n        /* \"#utility.yul\":3864:3870   */\n      dup2\n        /* \"#utility.yul\":3859:3862   */\n      dup6\n        /* \"#utility.yul\":3852:3856   */\n      0x20\n        /* \"#utility.yul\":3845:3850   */\n      dup7\n        /* \"#utility.yul\":3841:3857   */\n      add\n        /* \"#utility.yul\":3819:3871   */\n      tag_167\n      jump\t// in\n    tag_166:\n        /* \"#utility.yul\":3896:3925   */\n      tag_168\n        /* \"#utility.yul\":3918:3924   */\n      dup2\n        /* \"#utility.yul\":3896:3925   */\n      tag_169\n      jump\t// in\n    tag_168:\n        /* \"#utility.yul\":3891:3894   */\n      dup5\n        /* \"#utility.yul\":3887:3926   */\n      add\n        /* \"#utility.yul\":3880:3926   */\n      swap2\n      pop\n        /* \"#utility.yul\":3660:3932   */\n      pop\n        /* \"#utility.yul\":3568:3932   */\n      swap3\n      swap2\n      pop\n      pop\n      jump\t// out\n        /* \"#utility.yul\":3938:4315   */\n    tag_170:\n        /* \"#utility.yul\":4044:4047   */\n      0x00\n        /* \"#utility.yul\":4072:4111   */\n      tag_172\n        /* \"#utility.yul\":4105:4110   */\n      dup3\n        /* \"#utility.yul\":4072:4111   */\n      tag_163\n      jump\t// in\n    tag_172:\n        /* \"#utility.yul\":4127:4216   */\n      tag_173\n        /* \"#utility.yul\":4209:4215   */\n      dup2\n        /* \"#utility.yul\":4204:4207   */\n      dup6\n        /* \"#utility.yul\":4127:4216   */\n      tag_174\n      jump\t// in\n    tag_173:\n        /* \"#utility.yul\":4120:4216   */\n      swap4\n      pop\n        /* \"#utility.yul\":4225:4277   */\n      tag_175\n        /* \"#utility.yul\":4270:4276   */\n      dup2\n        /* \"#utility.yul\":4265:4268   */\n      dup6\n        /* \"#utility.yul\":4258:4262   */\n      0x20\n        /* \"#utility.yul\":4251:4256   */\n      dup7\n        /* \"#utility.yul\":4247:4263   */\n      add\n        /* \"#utility.yul\":4225:4277   */\n      tag_167\n      jump\t// in\n    tag_175:\n        /* \"#utility.yul\":4302:4308   */\n      dup1\n        /* \"#utility.yul\":4297:4300   */\n      dup5\n        /* \"#utility.yul\":4293:4309   */\n      add\n        /* \"#utility.yul\":4286:4309   */\n      swap2\n      pop\n        /* \"#utility.yul\":4048:4315   */\n      pop\n        /* \"#utility.yul\":3938:4315   */\n      swap3\n      swap2\n      pop\n      pop\n      jump\t// out\n        /* \"#utility.yul\":4321:4687   */\n    tag_176:\n        /* \"#utility.yul\":4463:4466   */\n      0x00\n        /* \"#utility.yul\":4484:4551   */\n      tag_178\n        /* \"#utility.yul\":4548:4550   */\n      0x14\n        /* \"#utility.yul\":4543:4546   */\n      dup4\n        /* \"#utility.yul\":4484:4551   */\n      tag_165\n      jump\t// in\n    tag_178:\n        /* \"#utility.yul\":4477:4551   */\n      swap2\n      pop\n        /* \"#utility.yul\":4560:4653   */\n      tag_179\n        /* \"#utility.yul\":4649:4652   */\n      dup3\n        /* \"#utility.yul\":4560:4653   */\n      tag_180\n      jump\t// in\n    tag_179:\n        /* \"#utility.yul\":4678:4680   */\n      0x20\n        /* \"#utility.yul\":4673:4676   */\n      dup3\n        /* \"#utility.yul\":4669:4681   */\n      add\n        /* \"#utility.yul\":4662:4681   */\n      swap1\n      pop\n        /* \"#utility.yul\":4321:4687   */\n      swap2\n      swap1\n      pop\n      jump\t// out\n        /* \"#utility.yul\":4693:5059   */\n    tag_181:\n        /* \"#utility.yul\":4835:4838   */\n      0x00\n        /* \"#utility.yul\":4856:4923   */\n      tag_183\n        /* \"#utility.yul\":4920:4922   */\n      0x23\n        /* \"#utility.yul\":4915:4918   */\n      dup4\n        /* \"#utility.yul\":4856:4923   */\n      tag_165\n      jump\t// in\n    tag_183:\n        /* \"#utility.yul\":4849:4923   */\n      swap2\n      pop\n        /* \"#utility.yul\":4932:5025   */\n      tag_184\n        /* \"#utility.yul\":5021:5024   */\n      dup3\n        /* \"#utility.yul\":4932:5025   */\n      tag_185\n      jump\t// in\n    tag_184:\n        /* \"#utility.yul\":5050:5052   */\n      0x40\n        /* \"#utility.yul\":5045:5048   */\n      dup3\n        /* \"#utility.yul\":5041:5053   */\n      add\n        /* \"#utility.yul\":5034:5053   */\n      swap1\n      pop\n        /* \"#utility.yul\":4693:5059   */\n      swap2\n      swap1\n      pop\n      jump\t// out\n        /* \"#utility.yul\":5065:5431   */\n    tag_186:\n        /* \"#utility.yul\":5207:5210   */\n      0x00\n        /* \"#utility.yul\":5228:5295   */\n      tag_188\n        /* \"#utility.yul\":5292:5294   */\n      0x1b\n        /* \"#utility.yul\":5287:5290   */\n      dup4\n        /* \"#utility.yul\":5228:5295   */\n      tag_165\n      jump\t// in\n    tag_188:\n        /* \"#utility.yul\":5221:5295   */\n      swap2\n      pop\n        /* \"#utility.yul\":5304:5397   */\n      tag_189\n        /* \"#utility.yul\":5393:5396   */\n      dup3\n        /* \"#utility.yul\":5304:5397   */\n      tag_190\n      jump\t// in\n    tag_189:\n        /* \"#utility.yul\":5422:5424   */\n      0x20\n        /* \"#utility.yul\":5417:5420   */\n      dup3\n        /* \"#utility.yul\":5413:5425   */\n      add\n        /* \"#utility.yul\":5406:5425   */\n      swap1\n      pop\n        /* \"#utility.yul\":5065:5431   */\n      swap2\n      swap1\n      pop\n      jump\t// out\n        /* \"#utility.yul\":5437:5803   */\n    tag_191:\n        /* \"#utility.yul\":5579:5582   */\n      0x00\n        /* \"#utility.yul\":5600:5667   */\n      tag_193\n        /* \"#utility.yul\":5664:5666   */\n      0x2b\n        /* \"#utility.yul\":5659:5662   */\n      dup4\n        /* \"#utility.yul\":5600:5667   */\n      tag_165\n      jump\t// in\n    tag_193:\n        /* \"#utility.yul\":5593:5667   */\n      swap2\n      pop\n        /* \"#utility.yul\":5676:5769   */\n      tag_194\n        /* \"#utility.yul\":5765:5768   */\n      dup3\n        /* \"#utility.yul\":5676:5769   */\n      tag_195\n      jump\t// in\n    tag_194:\n        /* \"#utility.yul\":5794:5796   */\n      0x40\n        /* \"#utility.yul\":5789:5792   */\n      dup3\n        /* \"#utility.yul\":5785:5797   */\n      add\n        /* \"#utility.yul\":5778:5797   */\n      swap1\n      pop\n        /* \"#utility.yul\":5437:5803   */\n      swap2\n      swap1\n      pop\n      jump\t// out\n        /* \"#utility.yul\":5809:5927   */\n    tag_196:\n        /* \"#utility.yul\":5896:5920   */\n      tag_198\n        /* \"#utility.yul\":5914:5919   */\n      dup2\n        /* \"#utility.yul\":5896:5920   */\n      tag_199\n      jump\t// in\n    tag_198:\n        /* \"#utility.yul\":5891:5894   */\n      dup3\n        /* \"#utility.yul\":5884:5921   */\n      mstore\n        /* \"#utility.yul\":5809:5927   */\n      pop\n      pop\n      jump\t// out\n        /* \"#utility.yul\":5933:6090   */\n    tag_200:\n        /* \"#utility.yul\":6038:6083   */\n      tag_202\n        /* \"#utility.yul\":6058:6082   */\n      tag_203\n        /* \"#utility.yul\":6076:6081   */\n      dup3\n        /* \"#utility.yul\":6058:6082   */\n      tag_199\n      jump\t// in\n    tag_203:\n        /* \"#utility.yul\":6038:6083   */\n      tag_204\n      jump\t// in\n    tag_202:\n        /* \"#utility.yul\":6033:6036   */\n      dup3\n        /* \"#utility.yul\":6026:6084   */\n      mstore\n        /* \"#utility.yul\":5933:6090   */\n      pop\n      pop\n      jump\t// out\n        /* \"#utility.yul\":6096:6653   */\n    tag_84:\n        /* \"#utility.yul\":6284:6287   */\n      0x00\n        /* \"#utility.yul\":6299:6374   */\n      tag_206\n        /* \"#utility.yul\":6370:6373   */\n      dup3\n        /* \"#utility.yul\":6361:6367   */\n      dup7\n        /* \"#utility.yul\":6299:6374   */\n      tag_151\n      jump\t// in\n    tag_206:\n        /* \"#utility.yul\":6399:6401   */\n      0x14\n        /* \"#utility.yul\":6394:6397   */\n      dup3\n        /* \"#utility.yul\":6390:6402   */\n      add\n        /* \"#utility.yul\":6383:6402   */\n      swap2\n      pop\n        /* \"#utility.yul\":6412:6487   */\n      tag_207\n        /* \"#utility.yul\":6483:6486   */\n      dup3\n        /* \"#utility.yul\":6474:6480   */\n      dup6\n        /* \"#utility.yul\":6412:6487   */\n      tag_200\n      jump\t// in\n    tag_207:\n        /* \"#utility.yul\":6512:6514   */\n      0x20\n        /* \"#utility.yul\":6507:6510   */\n      dup3\n        /* \"#utility.yul\":6503:6515   */\n      add\n        /* \"#utility.yul\":6496:6515   */\n      swap2\n      pop\n        /* \"#utility.yul\":6532:6627   */\n      tag_208\n        /* \"#utility.yul\":6623:6626   */\n      dup3\n        /* \"#utility.yul\":6614:6620   */\n      dup5\n        /* \"#utility.yul\":6532:6627   */\n      tag_170\n      jump\t// in\n    tag_208:\n        /* \"#utility.yul\":6525:6627   */\n      swap2\n      pop\n        /* \"#utility.yul\":6644:6647   */\n      dup2\n        /* \"#utility.yul\":6637:6647   */\n      swap1\n      pop\n        /* \"#utility.yul\":6096:6653   */\n      swap5\n      swap4\n      pop\n      pop\n      pop\n      pop\n      jump\t// out\n        /* \"#utility.yul\":6659:6972   */\n    tag_13:\n        /* \"#utility.yul\":6772:6776   */\n      0x00\n        /* \"#utility.yul\":6810:6812   */\n      0x20\n        /* \"#utility.yul\":6799:6808   */\n      dup3\n        /* \"#utility.yul\":6795:6813   */\n      add\n        /* \"#utility.yul\":6787:6813   */\n      swap1\n      pop\n        /* \"#utility.yul\":6859:6868   */\n      dup2\n        /* \"#utility.yul\":6853:6857   */\n      dup2\n        /* \"#utility.yul\":6849:6869   */\n      sub\n        /* \"#utility.yul\":6845:6846   */\n      0x00\n        /* \"#utility.yul\":6834:6843   */\n      dup4\n        /* \"#utility.yul\":6830:6847   */\n      add\n        /* \"#utility.yul\":6823:6870   */\n      mstore\n        /* \"#utility.yul\":6887:6965   */\n      tag_210\n        /* \"#utility.yul\":6960:6964   */\n      dup2\n        /* \"#utility.yul\":6951:6957   */\n      dup5\n        /* \"#utility.yul\":6887:6965   */\n      tag_160\n      jump\t// in\n    tag_210:\n        /* \"#utility.yul\":6879:6965   */\n      swap1\n      pop\n        /* \"#utility.yul\":6659:6972   */\n      swap3\n      swap2\n      pop\n      pop\n      jump\t// out\n        /* \"#utility.yul\":6978:7397   */\n    tag_42:\n        /* \"#utility.yul\":7144:7148   */\n      0x00\n        /* \"#utility.yul\":7182:7184   */\n      0x20\n        /* \"#utility.yul\":7171:7180   */\n      dup3\n        /* \"#utility.yul\":7167:7185   */\n      add\n        /* \"#utility.yul\":7159:7185   */\n      swap1\n      pop\n        /* \"#utility.yul\":7231:7240   */\n      dup2\n        /* \"#utility.yul\":7225:7229   */\n      dup2\n        /* \"#utility.yul\":7221:7241   */\n      sub\n        /* \"#utility.yul\":7217:7218   */\n      0x00\n        /* \"#utility.yul\":7206:7215   */\n      dup4\n        /* \"#utility.yul\":7202:7219   */\n      add\n        /* \"#utility.yul\":7195:7242   */\n      mstore\n        /* \"#utility.yul\":7259:7390   */\n      tag_212\n        /* \"#utility.yul\":7385:7389   */\n      dup2\n        /* \"#utility.yul\":7259:7390   */\n      tag_176\n      jump\t// in\n    tag_212:\n        /* \"#utility.yul\":7251:7390   */\n      swap1\n      pop\n        /* \"#utility.yul\":6978:7397   */\n      swap2\n      swap1\n      pop\n      jump\t// out\n        /* \"#utility.yul\":7403:7822   */\n    tag_68:\n        /* \"#utility.yul\":7569:7573   */\n      0x00\n        /* \"#utility.yul\":7607:7609   */\n      0x20\n        /* \"#utility.yul\":7596:7605   */\n      dup3\n        /* \"#utility.yul\":7592:7610   */\n      add\n        /* \"#utility.yul\":7584:7610   */\n      swap1\n      pop\n        /* \"#utility.yul\":7656:7665   */\n      dup2\n        /* \"#utility.yul\":7650:7654   */\n      dup2\n        /* \"#utility.yul\":7646:7666   */\n      sub\n        /* \"#utility.yul\":7642:7643   */\n      0x00\n        /* \"#utility.yul\":7631:7640   */\n      dup4\n        /* \"#utility.yul\":7627:7644   */\n      add\n        /* \"#utility.yul\":7620:7667   */\n      mstore\n        /* \"#utility.yul\":7684:7815   */\n      tag_214\n        /* \"#utility.yul\":7810:7814   */\n      dup2\n        /* \"#utility.yul\":7684:7815   */\n      tag_181\n      jump\t// in\n    tag_214:\n        /* \"#utility.yul\":7676:7815   */\n      swap1\n      pop\n        /* \"#utility.yul\":7403:7822   */\n      swap2\n      swap1\n      pop\n      jump\t// out\n        /* \"#utility.yul\":7828:8247   */\n    tag_47:\n        /* \"#utility.yul\":7994:7998   */\n      0x00\n        /* \"#utility.yul\":8032:8034   */\n      0x20\n        /* \"#utility.yul\":8021:8030   */\n      dup3\n        /* \"#utility.yul\":8017:8035   */\n      add\n        /* \"#utility.yul\":8009:8035   */\n      swap1\n      pop\n        /* \"#utility.yul\":8081:8090   */\n      dup2\n        /* \"#utility.yul\":8075:8079   */\n      dup2\n        /* \"#utility.yul\":8071:8091   */\n      sub\n        /* \"#utility.yul\":8067:8068   */\n      0x00\n        /* \"#utility.yul\":8056:8065   */\n      dup4\n        /* \"#utility.yul\":8052:8069   */\n      add\n        /* \"#utility.yul\":8045:8092   */\n      mstore\n        /* \"#utility.yul\":8109:8240   */\n      tag_216\n        /* \"#utility.yul\":8235:8239   */\n      dup2\n        /* \"#utility.yul\":8109:8240   */\n      tag_186\n      jump\t// in\n    tag_216:\n        /* \"#utility.yul\":8101:8240   */\n      swap1\n      pop\n        /* \"#utility.yul\":7828:8247   */\n      swap2\n      swap1\n      pop\n      jump\t// out\n        /* \"#utility.yul\":8253:8672   */\n    tag_36:\n        /* \"#utility.yul\":8419:8423   */\n      0x00\n        /* \"#utility.yul\":8457:8459   */\n      0x20\n        /* \"#utility.yul\":8446:8455   */\n      dup3\n        /* \"#utility.yul\":8442:8460   */\n      add\n        /* \"#utility.yul\":8434:8460   */\n      swap1\n      pop\n        /* \"#utility.yul\":8506:8515   */\n      dup2\n        /* \"#utility.yul\":8500:8504   */\n      dup2\n        /* \"#utility.yul\":8496:8516   */\n      sub\n        /* \"#utility.yul\":8492:8493   */\n      0x00\n        /* \"#utility.yul\":8481:8490   */\n      dup4\n        /* \"#utility.yul\":8477:8494   */\n      add\n        /* \"#utility.yul\":8470:8517   */\n      mstore\n        /* \"#utility.yul\":8534:8665   */\n      tag_218\n        /* \"#utility.yul\":8660:8664   */\n      dup2\n        /* \"#utility.yul\":8534:8665   */\n      tag_191\n      jump\t// in\n    tag_218:\n        /* \"#utility.yul\":8526:8665   */\n      swap1\n      pop\n        /* \"#utility.yul\":8253:8672   */\n      swap2\n      swap1\n      pop\n      jump\t// out\n        /* \"#utility.yul\":8678:8900   */\n    tag_19:\n        /* \"#utility.yul\":8771:8775   */\n      0x00\n        /* \"#utility.yul\":8809:8811   */\n      0x20\n        /* \"#utility.yul\":8798:8807   */\n      dup3\n        /* \"#utility.yul\":8794:8812   */\n      add\n        /* \"#utility.yul\":8786:8812   */\n      swap1\n      pop\n        /* \"#utility.yul\":8822:8893   */\n      tag_220\n        /* \"#utility.yul\":8890:8891   */\n      0x00\n        /* \"#utility.yul\":8879:8888   */\n      dup4\n        /* \"#utility.yul\":8875:8892   */\n      add\n        /* \"#utility.yul\":8866:8872   */\n      dup5\n        /* \"#utility.yul\":8822:8893   */\n      tag_196\n      jump\t// in\n    tag_220:\n        /* \"#utility.yul\":8678:8900   */\n      swap3\n      swap2\n      pop\n      pop\n      jump\t// out\n        /* \"#utility.yul\":8906:9550   */\n    tag_58:\n        /* \"#utility.yul\":9103:9107   */\n      0x00\n        /* \"#utility.yul\":9141:9144   */\n      0x80\n        /* \"#utility.yul\":9130:9139   */\n      dup3\n        /* \"#utility.yul\":9126:9145   */\n      add\n        /* \"#utility.yul\":9118:9145   */\n      swap1\n      pop\n        /* \"#utility.yul\":9155:9226   */\n      tag_222\n        /* \"#utility.yul\":9223:9224   */\n      0x00\n        /* \"#utility.yul\":9212:9221   */\n      dup4\n        /* \"#utility.yul\":9208:9225   */\n      add\n        /* \"#utility.yul\":9199:9205   */\n      dup8\n        /* \"#utility.yul\":9155:9226   */\n      tag_196\n      jump\t// in\n    tag_222:\n        /* \"#utility.yul\":9236:9308   */\n      tag_223\n        /* \"#utility.yul\":9304:9306   */\n      0x20\n        /* \"#utility.yul\":9293:9302   */\n      dup4\n        /* \"#utility.yul\":9289:9307   */\n      add\n        /* \"#utility.yul\":9280:9286   */\n      dup7\n        /* \"#utility.yul\":9236:9308   */\n      tag_147\n      jump\t// in\n    tag_223:\n        /* \"#utility.yul\":9318:9390   */\n      tag_224\n        /* \"#utility.yul\":9386:9388   */\n      0x40\n        /* \"#utility.yul\":9375:9384   */\n      dup4\n        /* \"#utility.yul\":9371:9389   */\n      add\n        /* \"#utility.yul\":9362:9368   */\n      dup6\n        /* \"#utility.yul\":9318:9390   */\n      tag_196\n      jump\t// in\n    tag_224:\n        /* \"#utility.yul\":9437:9446   */\n      dup2\n        /* \"#utility.yul\":9431:9435   */\n      dup2\n        /* \"#utility.yul\":9427:9447   */\n      sub\n        /* \"#utility.yul\":9422:9424   */\n      0x60\n        /* \"#utility.yul\":9411:9420   */\n      dup4\n        /* \"#utility.yul\":9407:9425   */\n      add\n        /* \"#utility.yul\":9400:9448   */\n      mstore\n        /* \"#utility.yul\":9465:9543   */\n      tag_225\n        /* \"#utility.yul\":9538:9542   */\n      dup2\n        /* \"#utility.yul\":9529:9535   */\n      dup5\n        /* \"#utility.yul\":9465:9543   */\n      tag_160\n      jump\t// in\n    tag_225:\n        /* \"#utility.yul\":9457:9543   */\n      swap1\n      pop\n        /* \"#utility.yul\":8906:9550   */\n      swap6\n      swap5\n      pop\n      pop\n      pop\n      pop\n      pop\n      jump\t// out\n        /* \"#utility.yul\":9556:10521   */\n    tag_24:\n        /* \"#utility.yul\":9831:9835   */\n      0x00\n        /* \"#utility.yul\":9869:9872   */\n      0xe0\n        /* \"#utility.yul\":9858:9867   */\n      dup3\n        /* \"#utility.yul\":9854:9873   */\n      add\n        /* \"#utility.yul\":9846:9873   */\n      swap1\n      pop\n        /* \"#utility.yul\":9883:9954   */\n      tag_227\n        /* \"#utility.yul\":9951:9952   */\n      0x00\n        /* \"#utility.yul\":9940:9949   */\n      dup4\n        /* \"#utility.yul\":9936:9953   */\n      add\n        /* \"#utility.yul\":9927:9933   */\n      dup11\n        /* \"#utility.yul\":9883:9954   */\n      tag_196\n      jump\t// in\n    tag_227:\n        /* \"#utility.yul\":9964:10036   */\n      tag_228\n        /* \"#utility.yul\":10032:10034   */\n      0x20\n        /* \"#utility.yul\":10021:10030   */\n      dup4\n        /* \"#utility.yul\":10017:10035   */\n      add\n        /* \"#utility.yul\":10008:10014   */\n      dup10\n        /* \"#utility.yul\":9964:10036   */\n      tag_196\n      jump\t// in\n    tag_228:\n        /* \"#utility.yul\":10046:10118   */\n      tag_229\n        /* \"#utility.yul\":10114:10116   */\n      0x40\n        /* \"#utility.yul\":10103:10112   */\n      dup4\n        /* \"#utility.yul\":10099:10117   */\n      add\n        /* \"#utility.yul\":10090:10096   */\n      dup9\n        /* \"#utility.yul\":10046:10118   */\n      tag_196\n      jump\t// in\n    tag_229:\n        /* \"#utility.yul\":10128:10200   */\n      tag_230\n        /* \"#utility.yul\":10196:10198   */\n      0x60\n        /* \"#utility.yul\":10185:10194   */\n      dup4\n        /* \"#utility.yul\":10181:10199   */\n      add\n        /* \"#utility.yul\":10172:10178   */\n      dup8\n        /* \"#utility.yul\":10128:10200   */\n      tag_196\n      jump\t// in\n    tag_230:\n        /* \"#utility.yul\":10210:10283   */\n      tag_231\n        /* \"#utility.yul\":10278:10281   */\n      0x80\n        /* \"#utility.yul\":10267:10276   */\n      dup4\n        /* \"#utility.yul\":10263:10282   */\n      add\n        /* \"#utility.yul\":10254:10260   */\n      dup7\n        /* \"#utility.yul\":10210:10283   */\n      tag_147\n      jump\t// in\n    tag_231:\n        /* \"#utility.yul\":10331:10340   */\n      dup2\n        /* \"#utility.yul\":10325:10329   */\n      dup2\n        /* \"#utility.yul\":10321:10341   */\n      sub\n        /* \"#utility.yul\":10315:10318   */\n      0xa0\n        /* \"#utility.yul\":10304:10313   */\n      dup4\n        /* \"#utility.yul\":10300:10319   */\n      add\n        /* \"#utility.yul\":10293:10342   */\n      mstore\n        /* \"#utility.yul\":10359:10437   */\n      tag_232\n        /* \"#utility.yul\":10432:10436   */\n      dup2\n        /* \"#utility.yul\":10423:10429   */\n      dup6\n        /* \"#utility.yul\":10359:10437   */\n      tag_160\n      jump\t// in\n    tag_232:\n        /* \"#utility.yul\":10351:10437   */\n      swap1\n      pop\n        /* \"#utility.yul\":10447:10514   */\n      tag_233\n        /* \"#utility.yul\":10509:10512   */\n      0xc0\n        /* \"#utility.yul\":10498:10507   */\n      dup4\n        /* \"#utility.yul\":10494:10513   */\n      add\n        /* \"#utility.yul\":10485:10491   */\n      dup5\n        /* \"#utility.yul\":10447:10514   */\n      tag_156\n      jump\t// in\n    tag_233:\n        /* \"#utility.yul\":9556:10521   */\n      swap9\n      swap8\n      pop\n      pop\n      pop\n      pop\n      pop\n      pop\n      pop\n      pop\n      jump\t// out\n        /* \"#utility.yul\":10527:10656   */\n    tag_104:\n        /* \"#utility.yul\":10561:10567   */\n      0x00\n        /* \"#utility.yul\":10588:10608   */\n      tag_235\n      tag_236\n      jump\t// in\n    tag_235:\n        /* \"#utility.yul\":10578:10608   */\n      swap1\n      pop\n        /* \"#utility.yul\":10617:10650   */\n      tag_237\n        /* \"#utility.yul\":10645:10649   */\n      dup3\n        /* \"#utility.yul\":10637:10643   */\n      dup3\n        /* \"#utility.yul\":10617:10650   */\n      tag_238\n      jump\t// in\n    tag_237:\n        /* \"#utility.yul\":10527:10656   */\n      swap2\n      swap1\n      pop\n      jump\t// out\n        /* \"#utility.yul\":10662:10737   */\n    tag_236:\n        /* \"#utility.yul\":10695:10701   */\n      0x00\n        /* \"#utility.yul\":10728:10730   */\n      0x40\n        /* \"#utility.yul\":10722:10731   */\n      mload\n        /* \"#utility.yul\":10712:10731   */\n      swap1\n      pop\n        /* \"#utility.yul\":10662:10737   */\n      swap1\n      jump\t// out\n        /* \"#utility.yul\":10743:11051   */\n    tag_103:\n        /* \"#utility.yul\":10805:10809   */\n      0x00\n        /* \"#utility.yul\":10895:10913   */\n      0xffffffffffffffff\n        /* \"#utility.yul\":10887:10893   */\n      dup3\n        /* \"#utility.yul\":10884:10914   */\n      gt\n        /* \"#utility.yul\":10881:10937   */\n      iszero\n      tag_241\n      jumpi\n        /* \"#utility.yul\":10917:10935   */\n      tag_242\n      tag_243\n      jump\t// in\n    tag_242:\n        /* \"#utility.yul\":10881:10937   */\n    tag_241:\n        /* \"#utility.yul\":10955:10984   */\n      tag_244\n        /* \"#utility.yul\":10977:10983   */\n      dup3\n        /* \"#utility.yul\":10955:10984   */\n      tag_169\n      jump\t// in\n    tag_244:\n        /* \"#utility.yul\":10947:10984   */\n      swap1\n      pop\n        /* \"#utility.yul\":11039:11043   */\n      0x20\n        /* \"#utility.yul\":11033:11037   */\n      dup2\n        /* \"#utility.yul\":11029:11044   */\n      add\n        /* \"#utility.yul\":11021:11044   */\n      swap1\n      pop\n        /* \"#utility.yul\":10743:11051   */\n      swap2\n      swap1\n      pop\n      jump\t// out\n        /* \"#utility.yul\":11057:11156   */\n    tag_163:\n        /* \"#utility.yul\":11109:11115   */\n      0x00\n        /* \"#utility.yul\":11143:11148   */\n      dup2\n        /* \"#utility.yul\":11137:11149   */\n      mload\n        /* \"#utility.yul\":11127:11149   */\n      swap1\n      pop\n        /* \"#utility.yul\":11057:11156   */\n      swap2\n      swap1\n      pop\n      jump\t// out\n        /* \"#utility.yul\":11162:11331   */\n    tag_165:\n        /* \"#utility.yul\":11246:11257   */\n      0x00\n        /* \"#utility.yul\":11280:11286   */\n      dup3\n        /* \"#utility.yul\":11275:11278   */\n      dup3\n        /* \"#utility.yul\":11268:11287   */\n      mstore\n        /* \"#utility.yul\":11320:11324   */\n      0x20\n        /* \"#utility.yul\":11315:11318   */\n      dup3\n        /* \"#utility.yul\":11311:11325   */\n      add\n        /* \"#utility.yul\":11296:11325   */\n      swap1\n      pop\n        /* \"#utility.yul\":11162:11331   */\n      swap3\n      swap2\n      pop\n      pop\n      jump\t// out\n        /* \"#utility.yul\":11337:11485   */\n    tag_174:\n        /* \"#utility.yul\":11439:11450   */\n      0x00\n        /* \"#utility.yul\":11476:11479   */\n      dup2\n        /* \"#utility.yul\":11461:11479   */\n      swap1\n      pop\n        /* \"#utility.yul\":11337:11485   */\n      swap3\n      swap2\n      pop\n      pop\n      jump\t// out\n        /* \"#utility.yul\":11491:11796   */\n    tag_52:\n        /* \"#utility.yul\":11531:11534   */\n      0x00\n        /* \"#utility.yul\":11550:11570   */\n      tag_249\n        /* \"#utility.yul\":11568:11569   */\n      dup3\n        /* \"#utility.yul\":11550:11570   */\n      tag_199\n      jump\t// in\n    tag_249:\n        /* \"#utility.yul\":11545:11570   */\n      swap2\n      pop\n        /* \"#utility.yul\":11584:11604   */\n      tag_250\n        /* \"#utility.yul\":11602:11603   */\n      dup4\n        /* \"#utility.yul\":11584:11604   */\n      tag_199\n      jump\t// in\n    tag_250:\n        /* \"#utility.yul\":11579:11604   */\n      swap3\n      pop\n        /* \"#utility.yul\":11738:11739   */\n      dup3\n        /* \"#utility.yul\":11670:11736   */\n      0xffffffffffffffffffffffffffffffffffffffffffffffffffffffffffffffff\n        /* \"#utility.yul\":11666:11740   */\n      sub\n        /* \"#utility.yul\":11663:11664   */\n      dup3\n        /* \"#utility.yul\":11660:11741   */\n      gt\n        /* \"#utility.yul\":11657:11764   */\n      iszero\n      tag_251\n      jumpi\n        /* \"#utility.yul\":11744:11762   */\n      tag_252\n      tag_253\n      jump\t// in\n    tag_252:\n        /* \"#utility.yul\":11657:11764   */\n    tag_251:\n        /* \"#utility.yul\":11788:11789   */\n      dup3\n        /* \"#utility.yul\":11785:11786   */\n      dup3\n        /* \"#utility.yul\":11781:11790   */\n      add\n        /* \"#utility.yul\":11774:11790   */\n      swap1\n      pop\n        /* \"#utility.yul\":11491:11796   */\n      swap3\n      swap2\n      pop\n      pop\n      jump\t// out\n        /* \"#utility.yul\":11802:12150   */\n    tag_39:\n        /* \"#utility.yul\":11842:11849   */\n      0x00\n        /* \"#utility.yul\":11865:11885   */\n      tag_255\n        /* \"#utility.yul\":11883:11884   */\n      dup3\n        /* \"#utility.yul\":11865:11885   */\n      tag_199\n      jump\t// in\n    tag_255:\n        /* \"#utility.yul\":11860:11885   */\n      swap2\n      pop\n        /* \"#utility.yul\":11899:11919   */\n      tag_256\n        /* \"#utility.yul\":11917:11918   */\n      dup4\n        /* \"#utility.yul\":11899:11919   */\n      tag_199\n      jump\t// in\n    tag_256:\n        /* \"#utility.yul\":11894:11919   */\n      swap3\n      pop\n        /* \"#utility.yul\":12087:12088   */\n      dup2\n        /* \"#utility.yul\":12019:12085   */\n      0xffffffffffffffffffffffffffffffffffffffffffffffffffffffffffffffff\n        /* \"#utility.yul\":12015:12089   */\n      div\n        /* \"#utility.yul\":12012:12013   */\n      dup4\n        /* \"#utility.yul\":12009:12090   */\n      gt\n        /* \"#utility.yul\":12004:12005   */\n      dup3\n        /* \"#utility.yul\":11997:12006   */\n      iszero\n        /* \"#utility.yul\":11990:12007   */\n      iszero\n        /* \"#utility.yul\":11986:12091   */\n      and\n        /* \"#utility.yul\":11983:12114   */\n      iszero\n      tag_257\n      jumpi\n        /* \"#utility.yul\":12094:12112   */\n      tag_258\n      tag_253\n      jump\t// in\n    tag_258:\n        /* \"#utility.yul\":11983:12114   */\n    tag_257:\n        /* \"#utility.yul\":12142:12143   */\n      dup3\n        /* \"#utility.yul\":12139:12140   */\n      dup3\n        /* \"#utility.yul\":12135:12144   */\n      mul\n        /* \"#utility.yul\":12124:12144   */\n      swap1\n      pop\n        /* \"#utility.yul\":11802:12150   */\n      swap3\n      swap2\n      pop\n      pop\n      jump\t// out\n        /* \"#utility.yul\":12156:12252   */\n    tag_150:\n        /* \"#utility.yul\":12193:12200   */\n      0x00\n        /* \"#utility.yul\":12222:12246   */\n      tag_260\n        /* \"#utility.yul\":12240:12245   */\n      dup3\n        /* \"#utility.yul\":12222:12246   */\n      tag_261\n      jump\t// in\n    tag_260:\n        /* \"#utility.yul\":12211:12246   */\n      swap1\n      pop\n        /* \"#utility.yul\":12156:12252   */\n      swap2\n      swap1\n      pop\n      jump\t// out\n        /* \"#utility.yul\":12258:12348   */\n    tag_159:\n        /* \"#utility.yul\":12292:12299   */\n      0x00\n        /* \"#utility.yul\":12335:12340   */\n      dup2\n        /* \"#utility.yul\":12328:12341   */\n      iszero\n        /* \"#utility.yul\":12321:12342   */\n      iszero\n        /* \"#utility.yul\":12310:12342   */\n      swap1\n      pop\n        /* \"#utility.yul\":12258:12348   */\n      swap2\n      swap1\n      pop\n      jump\t// out\n        /* \"#utility.yul\":12354:12480   */\n    tag_261:\n        /* \"#utility.yul\":12391:12398   */\n      0x00\n        /* \"#utility.yul\":12431:12473   */\n      0xffffffffffffffffffffffffffffffffffffffff\n        /* \"#utility.yul\":12424:12429   */\n      dup3\n        /* \"#utility.yul\":12420:12474   */\n      and\n        /* \"#utility.yul\":12409:12474   */\n      swap1\n      pop\n        /* \"#utility.yul\":12354:12480   */\n      swap2\n      swap1\n      pop\n      jump\t// out\n        /* \"#utility.yul\":12486:12563   */\n    tag_199:\n        /* \"#utility.yul\":12523:12530   */\n      0x00\n        /* \"#utility.yul\":12552:12557   */\n      dup2\n        /* \"#utility.yul\":12541:12557   */\n      swap1\n      pop\n        /* \"#utility.yul\":12486:12563   */\n      swap2\n      swap1\n      pop\n      jump\t// out\n        /* \"#utility.yul\":12569:12723   */\n    tag_109:\n        /* \"#utility.yul\":12653:12659   */\n      dup3\n        /* \"#utility.yul\":12648:12651   */\n      dup2\n        /* \"#utility.yul\":12643:12646   */\n      dup4\n        /* \"#utility.yul\":12630:12660   */\n      calldatacopy\n        /* \"#utility.yul\":12715:12716   */\n      0x00\n        /* \"#utility.yul\":12706:12712   */\n      dup4\n        /* \"#utility.yul\":12701:12704   */\n      dup4\n        /* \"#utility.yul\":12697:12713   */\n      add\n        /* \"#utility.yul\":12690:12717   */\n      mstore\n        /* \"#utility.yul\":12569:12723   */\n      pop\n      pop\n      pop\n      jump\t// out\n        /* \"#utility.yul\":12729:13036   */\n    tag_167:\n        /* \"#utility.yul\":12797:12798   */\n      0x00\n        /* \"#utility.yul\":12807:12920   */\n    tag_267:\n        /* \"#utility.yul\":12821:12827   */\n      dup4\n        /* \"#utility.yul\":12818:12819   */\n      dup2\n        /* \"#utility.yul\":12815:12828   */\n      lt\n        /* \"#utility.yul\":12807:12920   */\n      iszero\n      tag_269\n      jumpi\n        /* \"#utility.yul\":12906:12907   */\n      dup1\n        /* \"#utility.yul\":12901:12904   */\n      dup3\n        /* \"#utility.yul\":12897:12908   */\n      add\n        /* \"#utility.yul\":12891:12909   */\n      mload\n        /* \"#utility.yul\":12887:12888   */\n      dup2\n        /* \"#utility.yul\":12882:12885   */\n      dup5\n        /* \"#utility.yul\":12878:12889   */\n      add\n        /* \"#utility.yul\":12871:12910   */\n      mstore\n        /* \"#utility.yul\":12843:12845   */\n      0x20\n        /* \"#utility.yul\":12840:12841   */\n      dup2\n        /* \"#utility.yul\":12836:12846   */\n      add\n        /* \"#utility.yul\":12831:12846   */\n      swap1\n      pop\n        /* \"#utility.yul\":12807:12920   */\n      jump(tag_267)\n    tag_269:\n        /* \"#utility.yul\":12938:12944   */\n      dup4\n        /* \"#utility.yul\":12935:12936   */\n      dup2\n        /* \"#utility.yul\":12932:12945   */\n      gt\n        /* \"#utility.yul\":12929:13030   */\n      iszero\n      tag_270\n      jumpi\n        /* \"#utility.yul\":13018:13019   */\n      0x00\n        /* \"#utility.yul\":13009:13015   */\n      dup5\n        /* \"#utility.yul\":13004:13007   */\n      dup5\n        /* \"#utility.yul\":13000:13016   */\n      add\n        /* \"#utility.yul\":12993:13020   */\n      mstore\n        /* \"#utility.yul\":12929:13030   */\n    tag_270:\n        /* \"#utility.yul\":12778:13036   */\n      pop\n        /* \"#utility.yul\":12729:13036   */\n      pop\n      pop\n      pop\n      jump\t// out\n        /* \"#utility.yul\":13042:13362   */\n    tag_60:\n        /* \"#utility.yul\":13086:13092   */\n      0x00\n        /* \"#utility.yul\":13123:13124   */\n      0x02\n        /* \"#utility.yul\":13117:13121   */\n      dup3\n        /* \"#utility.yul\":13113:13125   */\n      div\n        /* \"#utility.yul\":13103:13125   */\n      swap1\n      pop\n        /* \"#utility.yul\":13170:13171   */\n      0x01\n        /* \"#utility.yul\":13164:13168   */\n      dup3\n        /* \"#utility.yul\":13160:13172   */\n      and\n        /* \"#utility.yul\":13191:13209   */\n      dup1\n        /* \"#utility.yul\":13181:13262   */\n      tag_272\n      jumpi\n        /* \"#utility.yul\":13247:13251   */\n      0x7f\n        /* \"#utility.yul\":13239:13245   */\n      dup3\n        /* \"#utility.yul\":13235:13252   */\n      and\n        /* \"#utility.yul\":13225:13252   */\n      swap2\n      pop\n        /* \"#utility.yul\":13181:13262   */\n    tag_272:\n        /* \"#utility.yul\":13309:13311   */\n      0x20\n        /* \"#utility.yul\":13301:13307   */\n      dup3\n        /* \"#utility.yul\":13298:13312   */\n      lt\n        /* \"#utility.yul\":13278:13296   */\n      dup2\n        /* \"#utility.yul\":13275:13313   */\n      eq\n        /* \"#utility.yul\":13272:13356   */\n      iszero\n      tag_273\n      jumpi\n        /* \"#utility.yul\":13328:13346   */\n      tag_274\n      tag_275\n      jump\t// in\n    tag_274:\n        /* \"#utility.yul\":13272:13356   */\n    tag_273:\n        /* \"#utility.yul\":13093:13362   */\n      pop\n        /* \"#utility.yul\":13042:13362   */\n      swap2\n      swap1\n      pop\n      jump\t// out\n        /* \"#utility.yul\":13368:13649   */\n    tag_238:\n        /* \"#utility.yul\":13451:13478   */\n      tag_277\n        /* \"#utility.yul\":13473:13477   */\n      dup3\n        /* \"#utility.yul\":13451:13478   */\n      tag_169\n      jump\t// in\n    tag_277:\n        /* \"#utility.yul\":13443:13449   */\n      dup2\n        /* \"#utility.yul\":13439:13479   */\n      add\n        /* \"#utility.yul\":13581:13587   */\n      dup2\n        /* \"#utility.yul\":13569:13579   */\n      dup2\n        /* \"#utility.yul\":13566:13588   */\n      lt\n        /* \"#utility.yul\":13545:13563   */\n      0xffffffffffffffff\n        /* \"#utility.yul\":13533:13543   */\n      dup3\n        /* \"#utility.yul\":13530:13564   */\n      gt\n        /* \"#utility.yul\":13527:13589   */\n      or\n        /* \"#utility.yul\":13524:13612   */\n      iszero\n      tag_278\n      jumpi\n        /* \"#utility.yul\":13592:13610   */\n      tag_279\n      tag_243\n      jump\t// in\n    tag_279:\n        /* \"#utility.yul\":13524:13612   */\n    tag_278:\n        /* \"#utility.yul\":13632:13642   */\n      dup1\n        /* \"#utility.yul\":13628:13630   */\n      0x40\n        /* \"#utility.yul\":13621:13643   */\n      mstore\n        /* \"#utility.yul\":13411:13649   */\n      pop\n        /* \"#utility.yul\":13368:13649   */\n      pop\n      pop\n      jump\t// out\n        /* \"#utility.yul\":13655:13888   */\n    tag_56:\n        /* \"#utility.yul\":13694:13697   */\n      0x00\n        /* \"#utility.yul\":13717:13741   */\n      tag_281\n        /* \"#utility.yul\":13735:13740   */\n      dup3\n        /* \"#utility.yul\":13717:13741   */\n      tag_199\n      jump\t// in\n    tag_281:\n        /* \"#utility.yul\":13708:13741   */\n      swap2\n      pop\n        /* \"#utility.yul\":13763:13829   */\n      0xffffffffffffffffffffffffffffffffffffffffffffffffffffffffffffffff\n        /* \"#utility.yul\":13756:13761   */\n      dup3\n        /* \"#utility.yul\":13753:13830   */\n      eq\n        /* \"#utility.yul\":13750:13853   */\n      iszero\n      tag_282\n      jumpi\n        /* \"#utility.yul\":13833:13851   */\n      tag_283\n      tag_253\n      jump\t// in\n    tag_283:\n        /* \"#utility.yul\":13750:13853   */\n    tag_282:\n        /* \"#utility.yul\":13880:13881   */\n      0x01\n        /* \"#utility.yul\":13873:13878   */\n      dup3\n        /* \"#utility.yul\":13869:13882   */\n      add\n        /* \"#utility.yul\":13862:13882   */\n      swap1\n      pop\n        /* \"#utility.yul\":13655:13888   */\n      swap2\n      swap1\n      pop\n      jump\t// out\n        /* \"#utility.yul\":13894:13994   */\n    tag_155:\n        /* \"#utility.yul\":13933:13940   */\n      0x00\n        /* \"#utility.yul\":13962:13988   */\n      tag_285\n        /* \"#utility.yul\":13982:13987   */\n      dup3\n        /* \"#utility.yul\":13962:13988   */\n      tag_286\n      jump\t// in\n    tag_285:\n        /* \"#utility.yul\":13951:13988   */\n      swap1\n      pop\n        /* \"#utility.yul\":13894:13994   */\n      swap2\n      swap1\n      pop\n      jump\t// out\n        /* \"#utility.yul\":14000:14094   */\n    tag_286:\n        /* \"#utility.yul\":14039:14046   */\n      0x00\n        /* \"#utility.yul\":14068:14088   */\n      tag_288\n        /* \"#utility.yul\":14082:14087   */\n      dup3\n        /* \"#utility.yul\":14068:14088   */\n      tag_289\n      jump\t// in\n    tag_288:\n        /* \"#utility.yul\":14057:14088   */\n      swap1\n      pop\n        /* \"#utility.yul\":14000:14094   */\n      swap2\n      swap1\n      pop\n      jump\t// out\n        /* \"#utility.yul\":14100:14179   */\n    tag_204:\n        /* \"#utility.yul\":14139:14146   */\n      0x00\n        /* \"#utility.yul\":14168:14173   */\n      dup2\n        /* \"#utility.yul\":14157:14173   */\n      swap1\n      pop\n        /* \"#utility.yul\":14100:14179   */\n      swap2\n      swap1\n      pop\n      jump\t// out\n        /* \"#utility.yul\":14185:14361   */\n    tag_86:\n        /* \"#utility.yul\":14217:14218   */\n      0x00\n        /* \"#utility.yul\":14234:14254   */\n      tag_292\n        /* \"#utility.yul\":14252:14253   */\n      dup3\n        /* \"#utility.yul\":14234:14254   */\n      tag_199\n      jump\t// in\n    tag_292:\n        /* \"#utility.yul\":14229:14254   */\n      swap2\n      pop\n        /* \"#utility.yul\":14268:14288   */\n      tag_293\n        /* \"#utility.yul\":14286:14287   */\n      dup4\n        /* \"#utility.yul\":14268:14288   */\n      tag_199\n      jump\t// in\n    tag_293:\n        /* \"#utility.yul\":14263:14288   */\n      swap3\n      pop\n        /* \"#utility.yul\":14307:14308   */\n      dup3\n        /* \"#utility.yul\":14297:14332   */\n      tag_294\n      jumpi\n        /* \"#utility.yul\":14312:14330   */\n      tag_295\n      tag_296\n      jump\t// in\n    tag_295:\n        /* \"#utility.yul\":14297:14332   */\n    tag_294:\n        /* \"#utility.yul\":14353:14354   */\n      dup3\n        /* \"#utility.yul\":14350:14351   */\n      dup3\n        /* \"#utility.yul\":14346:14355   */\n      mod\n        /* \"#utility.yul\":14341:14355   */\n      swap1\n      pop\n        /* \"#utility.yul\":14185:14361   */\n      swap3\n      swap2\n      pop\n      pop\n      jump\t// out\n        /* \"#utility.yul\":14367:14547   */\n    tag_253:\n        /* \"#utility.yul\":14415:14492   */\n      0x4e487b7100000000000000000000000000000000000000000000000000000000\n        /* \"#utility.yul\":14412:14413   */\n      0x00\n        /* \"#utility.yul\":14405:14493   */\n      mstore\n        /* \"#utility.yul\":14512:14516   */\n      0x11\n        /* \"#utility.yul\":14509:14510   */\n      0x04\n        /* \"#utility.yul\":14502:14517   */\n      mstore\n        /* \"#utility.yul\":14536:14540   */\n      0x24\n        /* \"#utility.yul\":14533:14534   */\n      0x00\n        /* \"#utility.yul\":14526:14541   */\n      revert\n        /* \"#utility.yul\":14553:14733   */\n    tag_296:\n        /* \"#utility.yul\":14601:14678   */\n      0x4e487b7100000000000000000000000000000000000000000000000000000000\n        /* \"#utility.yul\":14598:14599   */\n      0x00\n        /* \"#utility.yul\":14591:14679   */\n      mstore\n        /* \"#utility.yul\":14698:14702   */\n      0x12\n        /* \"#utility.yul\":14695:14696   */\n      0x04\n        /* \"#utility.yul\":14688:14703   */\n      mstore\n        /* \"#utility.yul\":14722:14726   */\n      0x24\n        /* \"#utility.yul\":14719:14720   */\n      0x00\n        /* \"#utility.yul\":14712:14727   */\n      revert\n        /* \"#utility.yul\":14739:14919   */\n    tag_275:\n        /* \"#utility.yul\":14787:14864   */\n      0x4e487b7100000000000000000000000000000000000000000000000000000000\n        /* \"#utility.yul\":14784:14785   */\n      0x00\n        /* \"#utility.yul\":14777:14865   */\n      mstore\n        /* \"#utility.yul\":14884:14888   */\n      0x22\n        /* \"#utility.yul\":14881:14882   */\n      0x04\n        /* \"#utility.yul\":14874:14889   */\n      mstore\n        /* \"#utility.yul\":14908:14912   */\n      0x24\n        /* \"#utility.yul\":14905:14906   */\n      0x00\n        /* \"#utility.yul\":14898:14913   */\n      revert\n        /* \"#utility.yul\":14925:15105   */\n    tag_77:\n        /* \"#utility.yul\":14973:15050   */\n      0x4e487b7100000000000000000000000000000000000000000000000000000000\n        /* \"#utility.yul\":14970:14971   */\n      0x00\n        /* \"#utility.yul\":14963:15051   */\n      mstore\n        /* \"#utility.yul\":15070:15074   */\n      0x32\n        /* \"#utility.yul\":15067:15068   */\n      0x04\n        /* \"#utility.yul\":15060:15075   */\n      mstore\n        /* \"#utility.yul\":15094:15098   */\n      0x24\n        /* \"#utility.yul\":15091:15092   */\n      0x00\n        /* \"#utility.yul\":15084:15099   */\n      revert\n        /* \"#utility.yul\":15111:15291   */\n    tag_243:\n        /* \"#utility.yul\":15159:15236   */\n      0x4e487b7100000000000000000000000000000000000000000000000000000000\n        /* \"#utility.yul\":15156:15157   */\n      0x00\n        /* \"#utility.yul\":15149:15237   */\n      mstore\n        /* \"#utility.yul\":15256:15260   */\n      0x41\n        /* \"#utility.yul\":15253:15254   */\n      0x04\n        /* \"#utility.yul\":15246:15261   */\n      mstore\n        /* \"#utility.yul\":15280:15284   */\n      0x24\n        /* \"#utility.yul\":15277:15278   */\n      0x00\n        /* \"#utility.yul\":15270:15285   */\n      revert\n        /* \"#utility.yul\":15297:15414   */\n    tag_118:\n        /* \"#utility.yul\":15406:15407   */\n      0x00\n        /* \"#utility.yul\":15403:15404   */\n      dup1\n        /* \"#utility.yul\":15396:15408   */\n      revert\n        /* \"#utility.yul\":15420:15537   */\n    tag_107:\n        /* \"#utility.yul\":15529:15530   */\n      0x00\n        /* \"#utility.yul\":15526:15527   */\n      dup1\n        /* \"#utility.yul\":15519:15531   */\n      revert\n        /* \"#utility.yul\":15543:15660   */\n    tag_137:\n        /* \"#utility.yul\":15652:15653   */\n      0x00\n        /* \"#utility.yul\":15649:15650   */\n      dup1\n        /* \"#utility.yul\":15642:15654   */\n      revert\n        /* \"#utility.yul\":15666:15783   */\n    tag_127:\n        /* \"#utility.yul\":15775:15776   */\n      0x00\n        /* \"#utility.yul\":15772:15773   */\n      dup1\n        /* \"#utility.yul\":15765:15777   */\n      revert\n        /* \"#utility.yul\":15789:15891   */\n    tag_169:\n        /* \"#utility.yul\":15830:15836   */\n      0x00\n        /* \"#utility.yul\":15881:15883   */\n      0x1f\n        /* \"#utility.yul\":15877:15884   */\n      not\n        /* \"#utility.yul\":15872:15874   */\n      0x1f\n        /* \"#utility.yul\":15865:15870   */\n      dup4\n        /* \"#utility.yul\":15861:15875   */\n      add\n        /* \"#utility.yul\":15857:15885   */\n      and\n        /* \"#utility.yul\":15847:15885   */\n      swap1\n      pop\n        /* \"#utility.yul\":15789:15891   */\n      swap2\n      swap1\n      pop\n      jump\t// out\n        /* \"#utility.yul\":15897:15991   */\n    tag_289:\n        /* \"#utility.yul\":15930:15938   */\n      0x00\n        /* \"#utility.yul\":15978:15983   */\n      dup2\n        /* \"#utility.yul\":15974:15976   */\n      0x60\n        /* \"#utility.yul\":15970:15984   */\n      shl\n        /* \"#utility.yul\":15949:15984   */\n      swap1\n      pop\n        /* \"#utility.yul\":15897:15991   */\n      swap2\n      swap1\n      pop\n      jump\t// out\n        /* \"#utility.yul\":15997:16167   */\n    tag_180:\n        /* \"#utility.yul\":16137:16159   */\n      0x76616c75652063616e6e6f74206265206e756c6c000000000000000000000000\n        /* \"#utility.yul\":16133:16134   */\n      0x00\n        /* \"#utility.yul\":16125:16131   */\n      dup3\n        /* \"#utility.yul\":16121:16135   */\n      add\n        /* \"#utility.yul\":16114:16160   */\n      mstore\n        /* \"#utility.yul\":15997:16167   */\n      pop\n      jump\t// out\n        /* \"#utility.yul\":16173:16395   */\n    tag_185:\n        /* \"#utility.yul\":16313:16347   */\n      0x546865206f776e65722063616e6e6f7420796574206164642061206e65772068\n        /* \"#utility.yul\":16309:16310   */\n      0x00\n        /* \"#utility.yul\":16301:16307   */\n      dup3\n        /* \"#utility.yul\":16297:16311   */\n      add\n        /* \"#utility.yul\":16290:16348   */\n      mstore\n        /* \"#utility.yul\":16382:16387   */\n      0x6f6d650000000000000000000000000000000000000000000000000000000000\n        /* \"#utility.yul\":16377:16379   */\n      0x20\n        /* \"#utility.yul\":16369:16375   */\n      dup3\n        /* \"#utility.yul\":16365:16380   */\n      add\n        /* \"#utility.yul\":16358:16388   */\n      mstore\n        /* \"#utility.yul\":16173:16395   */\n      pop\n      jump\t// out\n        /* \"#utility.yul\":16401:16578   */\n    tag_190:\n        /* \"#utility.yul\":16541:16570   */\n      0x7468697320686f757365496420616c7265616479206578697374730000000000\n        /* \"#utility.yul\":16537:16538   */\n      0x00\n        /* \"#utility.yul\":16529:16535   */\n      dup3\n        /* \"#utility.yul\":16525:16539   */\n      add\n        /* \"#utility.yul\":16518:16571   */\n      mstore\n        /* \"#utility.yul\":16401:16578   */\n      pop\n      jump\t// out\n        /* \"#utility.yul\":16584:16814   */\n    tag_195:\n        /* \"#utility.yul\":16724:16758   */\n      0x596f7520646f206e6f7420686176652061636365737320746f2064656c657465\n        /* \"#utility.yul\":16720:16721   */\n      0x00\n        /* \"#utility.yul\":16712:16718   */\n      dup3\n        /* \"#utility.yul\":16708:16722   */\n      add\n        /* \"#utility.yul\":16701:16759   */\n      mstore\n        /* \"#utility.yul\":16793:16806   */\n      0x207468697320686f757365000000000000000000000000000000000000000000\n        /* \"#utility.yul\":16788:16790   */\n      0x20\n        /* \"#utility.yul\":16780:16786   */\n      dup3\n        /* \"#utility.yul\":16776:16791   */\n      add\n        /* \"#utility.yul\":16769:16807   */\n      mstore\n        /* \"#utility.yul\":16584:16814   */\n      pop\n      jump\t// out\n        /* \"#utility.yul\":16820:16942   */\n    tag_113:\n        /* \"#utility.yul\":16893:16917   */\n      tag_313\n        /* \"#utility.yul\":16911:16916   */\n      dup2\n        /* \"#utility.yul\":16893:16917   */\n      tag_150\n      jump\t// in\n    tag_313:\n        /* \"#utility.yul\":16886:16891   */\n      dup2\n        /* \"#utility.yul\":16883:16918   */\n      eq\n        /* \"#utility.yul\":16873:16936   */\n      tag_314\n      jumpi\n        /* \"#utility.yul\":16932:16933   */\n      0x00\n        /* \"#utility.yul\":16929:16930   */\n      dup1\n        /* \"#utility.yul\":16922:16934   */\n      revert\n        /* \"#utility.yul\":16873:16936   */\n    tag_314:\n        /* \"#utility.yul\":16820:16942   */\n      pop\n      jump\t// out\n        /* \"#utility.yul\":16948:17070   */\n    tag_123:\n        /* \"#utility.yul\":17021:17045   */\n      tag_316\n        /* \"#utility.yul\":17039:17044   */\n      dup2\n        /* \"#utility.yul\":17021:17045   */\n      tag_199\n      jump\t// in\n    tag_316:\n        /* \"#utility.yul\":17014:17019   */\n      dup2\n        /* \"#utility.yul\":17011:17046   */\n      eq\n        /* \"#utility.yul\":17001:17064   */\n      tag_317\n      jumpi\n        /* \"#utility.yul\":17060:17061   */\n      0x00\n        /* \"#utility.yul\":17057:17058   */\n      dup1\n        /* \"#utility.yul\":17050:17062   */\n      revert\n        /* \"#utility.yul\":17001:17064   */\n    tag_317:\n        /* \"#utility.yul\":16948:17070   */\n      pop\n      jump\t// out\n\n    auxdata: 0xa2646970667358221220ab769dea26436559c88343f1e09e12c65180c27a04f84e3cb8fac2c146b8d43e64736f6c63430008070033\n}\n",
				"bytecode": {
					"linkReferences": {},
					"object": "60806040526005600055600054600a6200001a919062000096565b600155600160025560016003553480156200003457600080fd5b5062000219565b6000808291508390505b60018511156200008d57808604811115620000655762000064620001dd565b5b6001851615620000755780820291505b808102905062000085856200020c565b945062000045565b94509492505050565b6000620000a382620001d3565b9150620000b083620001d3565b9250620000df7fffffffffffffffffffffffffffffffffffffffffffffffffffffffffffffffff8484620000e7565b905092915050565b600082620000f95760019050620001cc565b81620001095760009050620001cc565b81600181146200012257600281146200012d5762000163565b6001915050620001cc565b60ff841115620001425762000141620001dd565b5b8360020a9150848211156200015c576200015b620001dd565b5b50620001cc565b5060208310610133831016604e8410600b84101617156200019d5782820a905083811115620001975762000196620001dd565b5b620001cc565b620001ac84848460016200003b565b92509050818404811115620001c657620001c5620001dd565b5b81810290505b9392505050565b6000819050919050565b7f4e487b7100000000000000000000000000000000000000000000000000000000600052601160045260246000fd5b60008160011c9050919050565b61117580620002296000396000f3fe608060405234801561001057600080fd5b50600436106100575760003560e01c80633c3b0b4a1461005c57806391bfe0d41461008c578063aeda852f146100bc578063be40a73e146100f2578063c45e1b251461010e575b600080fd5b6100766004803603810190610071919061081a565b61013e565b6040516100839190610ac3565b60405180910390f35b6100a660048036038101906100a19190610847565b610250565b6040516100b39190610b65565b60405180910390f35b6100d660048036038101906100d1919061081a565b6104b7565b6040516100e99796959493929190610bcc565b60405180910390f35b61010c600480360381019061010791906108ca565b6105ae565b005b6101286004803603810190610123919061081a565b610605565b6040516101359190610b65565b60405180910390f35b60603373ffffffffffffffffffffffffffffffffffffffff166006600084815260200190815260200160002060040160009054906101000a900473ffffffffffffffffffffffffffffffffffffffff1673ffffffffffffffffffffffffffffffffffffffff16146101e4576040517f08c379a00000000000000000000000000000000000000000000000000000000081526004016101db90610b45565b60405180910390fd5b60016006600084815260200190815260200160002060060160006101000a81548160ff0219169083151502179055506040518060400160405280601581526020017f64656c69737420776173207375636365737366756c00000000000000000000008152509050919050565b600080848661025f9190610d15565b1161029f576040517f08c379a000000000000000000000000000000000000000000000000000000000815260040161029690610ae5565b60405180910390fd5b60006102ac848685610688565b90506006600082815260200190815260200160002060000154811415610307576040517f08c379a00000000000000000000000000000000000000000000000000000000081526004016102fe90610b25565b60405180910390fd5b6040518060e0016040528082815260200160035481526020018781526020018681526020018573ffffffffffffffffffffffffffffffffffffffff16815260200184815260200160001515815250600660008381526020019081526020016000206000820151816000015560208201518160010155604082015181600201556060820151816003015560808201518160040160006101000a81548173ffffffffffffffffffffffffffffffffffffffff021916908373ffffffffffffffffffffffffffffffffffffffff16021790555060a08201518160050190805190602001906103f39291906106dd565b5060c08201518160060160006101000a81548160ff02191690831515021790555090505061042d600254426104289190610cbf565b6106d3565b60058190806001815401808255809150506001900390600052602060002001600090919091909150556003600081548092919061046990610e5c565b91905055507f8f5afd88eb4be0ac287d87970052ce9a2b453448408e3c91a695ad7509ab7194818588866040516104a39493929190610b80565b60405180910390a180915050949350505050565b60066020528060005260406000206000915090508060000154908060010154908060020154908060030154908060040160009054906101000a900473ffffffffffffffffffffffffffffffffffffffff169080600501805461051890610df9565b80601f016020809104026020016040519081016040528092919081815260200182805461054490610df9565b80156105915780601f1061056657610100808354040283529160200191610591565b820191906000526020600020905b81548152906001019060200180831161057457829003601f168201915b5050505050908060060160009054906101000a900460ff16905087565b4260045411156105f3576040517f08c379a00000000000000000000000000000000000000000000000000000000081526004016105ea90610b05565b60405180910390fd5b6105ff83833384610250565b50505050565b600080600090506000600190505b60058054905081101561067e5783600660006005848154811061063957610638610f91565b5b9060005260206000200154815260200190815260200160002060020154101561066b57818061066790610e5c565b9250505b808061067690610e5c565b915050610613565b5080915050919050565b6000808484846040516020016106a093929190610a8a565b6040516020818303038152906040528051906020012060001c9050600154816106c99190610ed3565b9150509392505050565b8060048190555050565b8280546106e990610df9565b90600052602060002090601f01602090048101928261070b5760008555610752565b82601f1061072457805160ff1916838001178555610752565b82800160010185558215610752579182015b82811115610751578251825591602001919060010190610736565b5b50905061075f9190610763565b5090565b5b8082111561077c576000816000905550600101610764565b5090565b600061079361078e84610c67565b610c42565b9050828152602081018484840111156107af576107ae610ff4565b5b6107ba848285610db7565b509392505050565b6000813590506107d181611111565b92915050565b600082601f8301126107ec576107eb610fef565b5b81356107fc848260208601610780565b91505092915050565b60008135905061081481611128565b92915050565b6000602082840312156108305761082f610ffe565b5b600061083e84828501610805565b91505092915050565b6000806000806080858703121561086157610860610ffe565b5b600061086f87828801610805565b945050602061088087828801610805565b9350506040610891878288016107c2565b925050606085013567ffffffffffffffff8111156108b2576108b1610ff9565b5b6108be878288016107d7565b91505092959194509250565b6000806000606084860312156108e3576108e2610ffe565b5b60006108f186828701610805565b935050602061090286828701610805565b925050604084013567ffffffffffffffff81111561092357610922610ff9565b5b61092f868287016107d7565b9150509250925092565b61094281610d6f565b82525050565b61095961095482610d6f565b610ea5565b82525050565b61096881610d81565b82525050565b600061097982610c98565b6109838185610ca3565b9350610993818560208601610dc6565b61099c81611003565b840191505092915050565b60006109b282610c98565b6109bc8185610cb4565b93506109cc818560208601610dc6565b80840191505092915050565b60006109e5601483610ca3565b91506109f082611021565b602082019050919050565b6000610a08602383610ca3565b9150610a138261104a565b604082019050919050565b6000610a2b601b83610ca3565b9150610a3682611099565b602082019050919050565b6000610a4e602b83610ca3565b9150610a59826110c2565b604082019050919050565b610a6d81610dad565b82525050565b610a84610a7f82610dad565b610ec9565b82525050565b6000610a968286610948565b601482019150610aa68285610a73565b602082019150610ab682846109a7565b9150819050949350505050565b60006020820190508181036000830152610add818461096e565b905092915050565b60006020820190508181036000830152610afe816109d8565b9050919050565b60006020820190508181036000830152610b1e816109fb565b9050919050565b60006020820190508181036000830152610b3e81610a1e565b9050919050565b60006020820190508181036000830152610b5e81610a41565b9050919050565b6000602082019050610b7a6000830184610a64565b92915050565b6000608082019050610b956000830187610a64565b610ba26020830186610939565b610baf6040830185610a64565b8181036060830152610bc1818461096e565b905095945050505050565b600060e082019050610be1600083018a610a64565b610bee6020830189610a64565b610bfb6040830188610a64565b610c086060830187610a64565b610c156080830186610939565b81810360a0830152610c27818561096e565b9050610c3660c083018461095f565b98975050505050505050565b6000610c4c610c5d565b9050610c588282610e2b565b919050565b6000604051905090565b600067ffffffffffffffff821115610c8257610c81610fc0565b5b610c8b82611003565b9050602081019050919050565b600081519050919050565b600082825260208201905092915050565b600081905092915050565b6000610cca82610dad565b9150610cd583610dad565b9250827fffffffffffffffffffffffffffffffffffffffffffffffffffffffffffffffff03821115610d0a57610d09610f04565b5b828201905092915050565b6000610d2082610dad565b9150610d2b83610dad565b9250817fffffffffffffffffffffffffffffffffffffffffffffffffffffffffffffffff0483118215151615610d6457610d63610f04565b5b828202905092915050565b6000610d7a82610d8d565b9050919050565b60008115159050919050565b600073ffffffffffffffffffffffffffffffffffffffff82169050919050565b6000819050919050565b82818337600083830152505050565b60005b83811015610de4578082015181840152602081019050610dc9565b83811115610df3576000848401525b50505050565b60006002820490506001821680610e1157607f821691505b60208210811415610e2557610e24610f62565b5b50919050565b610e3482611003565b810181811067ffffffffffffffff82111715610e5357610e52610fc0565b5b80604052505050565b6000610e6782610dad565b91507fffffffffffffffffffffffffffffffffffffffffffffffffffffffffffffffff821415610e9a57610e99610f04565b5b600182019050919050565b6000610eb082610eb7565b9050919050565b6000610ec282611014565b9050919050565b6000819050919050565b6000610ede82610dad565b9150610ee983610dad565b925082610ef957610ef8610f33565b5b828206905092915050565b7f4e487b7100000000000000000000000000000000000000000000000000000000600052601160045260246000fd5b7f4e487b7100000000000000000000000000000000000000000000000000000000600052601260045260246000fd5b7f4e487b7100000000000000000000000000000000000000000000000000000000600052602260045260246000fd5b7f4e487b7100000000000000000000000000000000000000000000000000000000600052603260045260246000fd5b7f4e487b7100000000000000000000000000000000000000000000000000000000600052604160045260246000fd5b600080fd5b600080fd5b600080fd5b600080fd5b6000601f19601f8301169050919050565b60008160601b9050919050565b7f76616c75652063616e6e6f74206265206e756c6c000000000000000000000000600082015250565b7f546865206f776e65722063616e6e6f7420796574206164642061206e6577206860008201527f6f6d650000000000000000000000000000000000000000000000000000000000602082015250565b7f7468697320686f757365496420616c7265616479206578697374730000000000600082015250565b7f596f7520646f206e6f7420686176652061636365737320746f2064656c65746560008201527f207468697320686f757365000000000000000000000000000000000000000000602082015250565b61111a81610d6f565b811461112557600080fd5b50565b61113181610dad565b811461113c57600080fd5b5056fea2646970667358221220ab769dea26436559c88343f1e09e12c65180c27a04f84e3cb8fac2c146b8d43e64736f6c63430008070033",
					"opcodes": "PUSH1 0x80 PUSH1 0x40 MSTORE PUSH1 0x5 PUSH1 0x0 SSTORE PUSH1 0x0 SLOAD PUSH1 0xA PUSH3 0x1A SWAP2 SWAP1 PUSH3 0x96 JUMP JUMPDEST PUSH1 0x1 SSTORE PUSH1 0x1 PUSH1 0x2 SSTORE PUSH1 0x1 PUSH1 0x3 SSTORE CALLVALUE DUP1 ISZERO PUSH3 0x34 JUMPI PUSH1 0x0 DUP1 REVERT JUMPDEST POP PUSH3 0x219 JUMP JUMPDEST PUSH1 0x0 DUP1 DUP3 SWAP2 POP DUP4 SWAP1 POP JUMPDEST PUSH1 0x1 DUP6 GT ISZERO PUSH3 0x8D JUMPI DUP1 DUP7 DIV DUP2 GT ISZERO PUSH3 0x65 JUMPI PUSH3 0x64 PUSH3 0x1DD JUMP JUMPDEST JUMPDEST PUSH1 0x1 DUP6 AND ISZERO PUSH3 0x75 JUMPI DUP1 DUP3 MUL SWAP2 POP JUMPDEST DUP1 DUP2 MUL SWAP1 POP PUSH3 0x85 DUP6 PUSH3 0x20C JUMP JUMPDEST SWAP5 POP PUSH3 0x45 JUMP JUMPDEST SWAP5 POP SWAP5 SWAP3 POP POP POP JUMP JUMPDEST PUSH1 0x0 PUSH3 0xA3 DUP3 PUSH3 0x1D3 JUMP JUMPDEST SWAP2 POP PUSH3 0xB0 DUP4 PUSH3 0x1D3 JUMP JUMPDEST SWAP3 POP PUSH3 0xDF PUSH32 0xFFFFFFFFFFFFFFFFFFFFFFFFFFFFFFFFFFFFFFFFFFFFFFFFFFFFFFFFFFFFFFFF DUP5 DUP5 PUSH3 0xE7 JUMP JUMPDEST SWAP1 POP SWAP3 SWAP2 POP POP JUMP JUMPDEST PUSH1 0x0 DUP3 PUSH3 0xF9 JUMPI PUSH1 0x1 SWAP1 POP PUSH3 0x1CC JUMP JUMPDEST DUP2 PUSH3 0x109 JUMPI PUSH1 0x0 SWAP1 POP PUSH3 0x1CC JUMP JUMPDEST DUP2 PUSH1 0x1 DUP2 EQ PUSH3 0x122 JUMPI PUSH1 0x2 DUP2 EQ PUSH3 0x12D JUMPI PUSH3 0x163 JUMP JUMPDEST PUSH1 0x1 SWAP2 POP POP PUSH3 0x1CC JUMP JUMPDEST PUSH1 0xFF DUP5 GT ISZERO PUSH3 0x142 JUMPI PUSH3 0x141 PUSH3 0x1DD JUMP JUMPDEST JUMPDEST DUP4 PUSH1 0x2 EXP SWAP2 POP DUP5 DUP3 GT ISZERO PUSH3 0x15C JUMPI PUSH3 0x15B PUSH3 0x1DD JUMP JUMPDEST JUMPDEST POP PUSH3 0x1CC JUMP JUMPDEST POP PUSH1 0x20 DUP4 LT PUSH2 0x133 DUP4 LT AND PUSH1 0x4E DUP5 LT PUSH1 0xB DUP5 LT AND OR ISZERO PUSH3 0x19D JUMPI DUP3 DUP3 EXP SWAP1 POP DUP4 DUP2 GT ISZERO PUSH3 0x197 JUMPI PUSH3 0x196 PUSH3 0x1DD JUMP JUMPDEST JUMPDEST PUSH3 0x1CC JUMP JUMPDEST PUSH3 0x1AC DUP5 DUP5 DUP5 PUSH1 0x1 PUSH3 0x3B JUMP JUMPDEST SWAP3 POP SWAP1 POP DUP2 DUP5 DIV DUP2 GT ISZERO PUSH3 0x1C6 JUMPI PUSH3 0x1C5 PUSH3 0x1DD JUMP JUMPDEST JUMPDEST DUP2 DUP2 MUL SWAP1 POP JUMPDEST SWAP4 SWAP3 POP POP POP JUMP JUMPDEST PUSH1 0x0 DUP2 SWAP1 POP SWAP2 SWAP1 POP JUMP JUMPDEST PUSH32 0x4E487B7100000000000000000000000000000000000000000000000000000000 PUSH1 0x0 MSTORE PUSH1 0x11 PUSH1 0x4 MSTORE PUSH1 0x24 PUSH1 0x0 REVERT JUMPDEST PUSH1 0x0 DUP2 PUSH1 0x1 SHR SWAP1 POP SWAP2 SWAP1 POP JUMP JUMPDEST PUSH2 0x1175 DUP1 PUSH3 0x229 PUSH1 0x0 CODECOPY PUSH1 0x0 RETURN INVALID PUSH1 0x80 PUSH1 0x40 MSTORE CALLVALUE DUP1 ISZERO PUSH2 0x10 JUMPI PUSH1 0x0 DUP1 REVERT JUMPDEST POP PUSH1 0x4 CALLDATASIZE LT PUSH2 0x57 JUMPI PUSH1 0x0 CALLDATALOAD PUSH1 0xE0 SHR DUP1 PUSH4 0x3C3B0B4A EQ PUSH2 0x5C JUMPI DUP1 PUSH4 0x91BFE0D4 EQ PUSH2 0x8C JUMPI DUP1 PUSH4 0xAEDA852F EQ PUSH2 0xBC JUMPI DUP1 PUSH4 0xBE40A73E EQ PUSH2 0xF2 JUMPI DUP1 PUSH4 0xC45E1B25 EQ PUSH2 0x10E JUMPI JUMPDEST PUSH1 0x0 DUP1 REVERT JUMPDEST PUSH2 0x76 PUSH1 0x4 DUP1 CALLDATASIZE SUB DUP2 ADD SWAP1 PUSH2 0x71 SWAP2 SWAP1 PUSH2 0x81A JUMP JUMPDEST PUSH2 0x13E JUMP JUMPDEST PUSH1 0x40 MLOAD PUSH2 0x83 SWAP2 SWAP1 PUSH2 0xAC3 JUMP JUMPDEST PUSH1 0x40 MLOAD DUP1 SWAP2 SUB SWAP1 RETURN JUMPDEST PUSH2 0xA6 PUSH1 0x4 DUP1 CALLDATASIZE SUB DUP2 ADD SWAP1 PUSH2 0xA1 SWAP2 SWAP1 PUSH2 0x847 JUMP JUMPDEST PUSH2 0x250 JUMP JUMPDEST PUSH1 0x40 MLOAD PUSH2 0xB3 SWAP2 SWAP1 PUSH2 0xB65 JUMP JUMPDEST PUSH1 0x40 MLOAD DUP1 SWAP2 SUB SWAP1 RETURN JUMPDEST PUSH2 0xD6 PUSH1 0x4 DUP1 CALLDATASIZE SUB DUP2 ADD SWAP1 PUSH2 0xD1 SWAP2 SWAP1 PUSH2 0x81A JUMP JUMPDEST PUSH2 0x4B7 JUMP JUMPDEST PUSH1 0x40 MLOAD PUSH2 0xE9 SWAP8 SWAP7 SWAP6 SWAP5 SWAP4 SWAP3 SWAP2 SWAP1 PUSH2 0xBCC JUMP JUMPDEST PUSH1 0x40 MLOAD DUP1 SWAP2 SUB SWAP1 RETURN JUMPDEST PUSH2 0x10C PUSH1 0x4 DUP1 CALLDATASIZE SUB DUP2 ADD SWAP1 PUSH2 0x107 SWAP2 SWAP1 PUSH2 0x8CA JUMP JUMPDEST PUSH2 0x5AE JUMP JUMPDEST STOP JUMPDEST PUSH2 0x128 PUSH1 0x4 DUP1 CALLDATASIZE SUB DUP2 ADD SWAP1 PUSH2 0x123 SWAP2 SWAP1 PUSH2 0x81A JUMP JUMPDEST PUSH2 0x605 JUMP JUMPDEST PUSH1 0x40 MLOAD PUSH2 0x135 SWAP2 SWAP1 PUSH2 0xB65 JUMP JUMPDEST PUSH1 0x40 MLOAD DUP1 SWAP2 SUB SWAP1 RETURN JUMPDEST PUSH1 0x60 CALLER PUSH20 0xFFFFFFFFFFFFFFFFFFFFFFFFFFFFFFFFFFFFFFFF AND PUSH1 0x6 PUSH1 0x0 DUP5 DUP2 MSTORE PUSH1 0x20 ADD SWAP1 DUP2 MSTORE PUSH1 0x20 ADD PUSH1 0x0 KECCAK256 PUSH1 0x4 ADD PUSH1 0x0 SWAP1 SLOAD SWAP1 PUSH2 0x100 EXP SWAP1 DIV PUSH20 0xFFFFFFFFFFFFFFFFFFFFFFFFFFFFFFFFFFFFFFFF AND PUSH20 0xFFFFFFFFFFFFFFFFFFFFFFFFFFFFFFFFFFFFFFFF AND EQ PUSH2 0x1E4 JUMPI PUSH1 0x40 MLOAD PUSH32 0x8C379A000000000000000000000000000000000000000000000000000000000 DUP2 MSTORE PUSH1 0x4 ADD PUSH2 0x1DB SWAP1 PUSH2 0xB45 JUMP JUMPDEST PUSH1 0x40 MLOAD DUP1 SWAP2 SUB SWAP1 REVERT JUMPDEST PUSH1 0x1 PUSH1 0x6 PUSH1 0x0 DUP5 DUP2 MSTORE PUSH1 0x20 ADD SWAP1 DUP2 MSTORE PUSH1 0x20 ADD PUSH1 0x0 KECCAK256 PUSH1 0x6 ADD PUSH1 0x0 PUSH2 0x100 EXP DUP2 SLOAD DUP2 PUSH1 0xFF MUL NOT AND SWAP1 DUP4 ISZERO ISZERO MUL OR SWAP1 SSTORE POP PUSH1 0x40 MLOAD DUP1 PUSH1 0x40 ADD PUSH1 0x40 MSTORE DUP1 PUSH1 0x15 DUP2 MSTORE PUSH1 0x20 ADD PUSH32 0x64656C69737420776173207375636365737366756C0000000000000000000000 DUP2 MSTORE POP SWAP1 POP SWAP2 SWAP1 POP JUMP JUMPDEST PUSH1 0x0 DUP1 DUP5 DUP7 PUSH2 0x25F SWAP2 SWAP1 PUSH2 0xD15 JUMP JUMPDEST GT PUSH2 0x29F JUMPI PUSH1 0x40 MLOAD PUSH32 0x8C379A000000000000000000000000000000000000000000000000000000000 DUP2 MSTORE PUSH1 0x4 ADD PUSH2 0x296 SWAP1 PUSH2 0xAE5 JUMP JUMPDEST PUSH1 0x40 MLOAD DUP1 SWAP2 SUB SWAP1 REVERT JUMPDEST PUSH1 0x0 PUSH2 0x2AC DUP5 DUP7 DUP6 PUSH2 0x688 JUMP JUMPDEST SWAP1 POP PUSH1 0x6 PUSH1 0x0 DUP3 DUP2 MSTORE PUSH1 0x20 ADD SWAP1 DUP2 MSTORE PUSH1 0x20 ADD PUSH1 0x0 KECCAK256 PUSH1 0x0 ADD SLOAD DUP2 EQ ISZERO PUSH2 0x307 JUMPI PUSH1 0x40 MLOAD PUSH32 0x8C379A000000000000000000000000000000000000000000000000000000000 DUP2 MSTORE PUSH1 0x4 ADD PUSH2 0x2FE SWAP1 PUSH2 0xB25 JUMP JUMPDEST PUSH1 0x40 MLOAD DUP1 SWAP2 SUB SWAP1 REVERT JUMPDEST PUSH1 0x40 MLOAD DUP1 PUSH1 0xE0 ADD PUSH1 0x40 MSTORE DUP1 DUP3 DUP2 MSTORE PUSH1 0x20 ADD PUSH1 0x3 SLOAD DUP2 MSTORE PUSH1 0x20 ADD DUP8 DUP2 MSTORE PUSH1 0x20 ADD DUP7 DUP2 MSTORE PUSH1 0x20 ADD DUP6 PUSH20 0xFFFFFFFFFFFFFFFFFFFFFFFFFFFFFFFFFFFFFFFF AND DUP2 MSTORE PUSH1 0x20 ADD DUP5 DUP2 MSTORE PUSH1 0x20 ADD PUSH1 0x0 ISZERO ISZERO DUP2 MSTORE POP PUSH1 0x6 PUSH1 0x0 DUP4 DUP2 MSTORE PUSH1 0x20 ADD SWAP1 DUP2 MSTORE PUSH1 0x20 ADD PUSH1 0x0 KECCAK256 PUSH1 0x0 DUP3 ADD MLOAD DUP2 PUSH1 0x0 ADD SSTORE PUSH1 0x20 DUP3 ADD MLOAD DUP2 PUSH1 0x1 ADD SSTORE PUSH1 0x40 DUP3 ADD MLOAD DUP2 PUSH1 0x2 ADD SSTORE PUSH1 0x60 DUP3 ADD MLOAD DUP2 PUSH1 0x3 ADD SSTORE PUSH1 0x80 DUP3 ADD MLOAD DUP2 PUSH1 0x4 ADD PUSH1 0x0 PUSH2 0x100 EXP DUP2 SLOAD DUP2 PUSH20 0xFFFFFFFFFFFFFFFFFFFFFFFFFFFFFFFFFFFFFFFF MUL NOT AND SWAP1 DUP4 PUSH20 0xFFFFFFFFFFFFFFFFFFFFFFFFFFFFFFFFFFFFFFFF AND MUL OR SWAP1 SSTORE POP PUSH1 0xA0 DUP3 ADD MLOAD DUP2 PUSH1 0x5 ADD SWAP1 DUP1 MLOAD SWAP1 PUSH1 0x20 ADD SWAP1 PUSH2 0x3F3 SWAP3 SWAP2 SWAP1 PUSH2 0x6DD JUMP JUMPDEST POP PUSH1 0xC0 DUP3 ADD MLOAD DUP2 PUSH1 0x6 ADD PUSH1 0x0 PUSH2 0x100 EXP DUP2 SLOAD DUP2 PUSH1 0xFF MUL NOT AND SWAP1 DUP4 ISZERO ISZERO MUL OR SWAP1 SSTORE POP SWAP1 POP POP PUSH2 0x42D PUSH1 0x2 SLOAD TIMESTAMP PUSH2 0x428 SWAP2 SWAP1 PUSH2 0xCBF JUMP JUMPDEST PUSH2 0x6D3 JUMP JUMPDEST PUSH1 0x5 DUP2 SWAP1 DUP1 PUSH1 0x1 DUP2 SLOAD ADD DUP1 DUP3 SSTORE DUP1 SWAP2 POP POP PUSH1 0x1 SWAP1 SUB SWAP1 PUSH1 0x0 MSTORE PUSH1 0x20 PUSH1 0x0 KECCAK256 ADD PUSH1 0x0 SWAP1 SWAP2 SWAP1 SWAP2 SWAP1 SWAP2 POP SSTORE PUSH1 0x3 PUSH1 0x0 DUP2 SLOAD DUP1 SWAP3 SWAP2 SWAP1 PUSH2 0x469 SWAP1 PUSH2 0xE5C JUMP JUMPDEST SWAP2 SWAP1 POP SSTORE POP PUSH32 0x8F5AFD88EB4BE0AC287D87970052CE9A2B453448408E3C91A695AD7509AB7194 DUP2 DUP6 DUP9 DUP7 PUSH1 0x40 MLOAD PUSH2 0x4A3 SWAP5 SWAP4 SWAP3 SWAP2 SWAP1 PUSH2 0xB80 JUMP JUMPDEST PUSH1 0x40 MLOAD DUP1 SWAP2 SUB SWAP1 LOG1 DUP1 SWAP2 POP POP SWAP5 SWAP4 POP POP POP POP JUMP JUMPDEST PUSH1 0x6 PUSH1 0x20 MSTORE DUP1 PUSH1 0x0 MSTORE PUSH1 0x40 PUSH1 0x0 KECCAK256 PUSH1 0x0 SWAP2 POP SWAP1 POP DUP1 PUSH1 0x0 ADD SLOAD SWAP1 DUP1 PUSH1 0x1 ADD SLOAD SWAP1 DUP1 PUSH1 0x2 ADD SLOAD SWAP1 DUP1 PUSH1 0x3 ADD SLOAD SWAP1 DUP1 PUSH1 0x4 ADD PUSH1 0x0 SWAP1 SLOAD SWAP1 PUSH2 0x100 EXP SWAP1 DIV PUSH20 0xFFFFFFFFFFFFFFFFFFFFFFFFFFFFFFFFFFFFFFFF AND SWAP1 DUP1 PUSH1 0x5 ADD DUP1 SLOAD PUSH2 0x518 SWAP1 PUSH2 0xDF9 JUMP JUMPDEST DUP1 PUSH1 0x1F ADD PUSH1 0x20 DUP1 SWAP2 DIV MUL PUSH1 0x20 ADD PUSH1 0x40 MLOAD SWAP1 DUP2 ADD PUSH1 0x40 MSTORE DUP1 SWAP3 SWAP2 SWAP1 DUP2 DUP2 MSTORE PUSH1 0x20 ADD DUP3 DUP1 SLOAD PUSH2 0x544 SWAP1 PUSH2 0xDF9 JUMP JUMPDEST DUP1 ISZERO PUSH2 0x591 JUMPI DUP1 PUSH1 0x1F LT PUSH2 0x566 JUMPI PUSH2 0x100 DUP1 DUP4 SLOAD DIV MUL DUP4 MSTORE SWAP2 PUSH1 0x20 ADD SWAP2 PUSH2 0x591 JUMP JUMPDEST DUP3 ADD SWAP2 SWAP1 PUSH1 0x0 MSTORE PUSH1 0x20 PUSH1 0x0 KECCAK256 SWAP1 JUMPDEST DUP2 SLOAD DUP2 MSTORE SWAP1 PUSH1 0x1 ADD SWAP1 PUSH1 0x20 ADD DUP1 DUP4 GT PUSH2 0x574 JUMPI DUP3 SWAP1 SUB PUSH1 0x1F AND DUP3 ADD SWAP2 JUMPDEST POP POP POP POP POP SWAP1 DUP1 PUSH1 0x6 ADD PUSH1 0x0 SWAP1 SLOAD SWAP1 PUSH2 0x100 EXP SWAP1 DIV PUSH1 0xFF AND SWAP1 POP DUP8 JUMP JUMPDEST TIMESTAMP PUSH1 0x4 SLOAD GT ISZERO PUSH2 0x5F3 JUMPI PUSH1 0x40 MLOAD PUSH32 0x8C379A000000000000000000000000000000000000000000000000000000000 DUP2 MSTORE PUSH1 0x4 ADD PUSH2 0x5EA SWAP1 PUSH2 0xB05 JUMP JUMPDEST PUSH1 0x40 MLOAD DUP1 SWAP2 SUB SWAP1 REVERT JUMPDEST PUSH2 0x5FF DUP4 DUP4 CALLER DUP5 PUSH2 0x250 JUMP JUMPDEST POP POP POP POP JUMP JUMPDEST PUSH1 0x0 DUP1 PUSH1 0x0 SWAP1 POP PUSH1 0x0 PUSH1 0x1 SWAP1 POP JUMPDEST PUSH1 0x5 DUP1 SLOAD SWAP1 POP DUP2 LT ISZERO PUSH2 0x67E JUMPI DUP4 PUSH1 0x6 PUSH1 0x0 PUSH1 0x5 DUP5 DUP2 SLOAD DUP2 LT PUSH2 0x639 JUMPI PUSH2 0x638 PUSH2 0xF91 JUMP JUMPDEST JUMPDEST SWAP1 PUSH1 0x0 MSTORE PUSH1 0x20 PUSH1 0x0 KECCAK256 ADD SLOAD DUP2 MSTORE PUSH1 0x20 ADD SWAP1 DUP2 MSTORE PUSH1 0x20 ADD PUSH1 0x0 KECCAK256 PUSH1 0x2 ADD SLOAD LT ISZERO PUSH2 0x66B JUMPI DUP2 DUP1 PUSH2 0x667 SWAP1 PUSH2 0xE5C JUMP JUMPDEST SWAP3 POP POP JUMPDEST DUP1 DUP1 PUSH2 0x676 SWAP1 PUSH2 0xE5C JUMP JUMPDEST SWAP2 POP POP PUSH2 0x613 JUMP JUMPDEST POP DUP1 SWAP2 POP POP SWAP2 SWAP1 POP JUMP JUMPDEST PUSH1 0x0 DUP1 DUP5 DUP5 DUP5 PUSH1 0x40 MLOAD PUSH1 0x20 ADD PUSH2 0x6A0 SWAP4 SWAP3 SWAP2 SWAP1 PUSH2 0xA8A JUMP JUMPDEST PUSH1 0x40 MLOAD PUSH1 0x20 DUP2 DUP4 SUB SUB DUP2 MSTORE SWAP1 PUSH1 0x40 MSTORE DUP1 MLOAD SWAP1 PUSH1 0x20 ADD KECCAK256 PUSH1 0x0 SHR SWAP1 POP PUSH1 0x1 SLOAD DUP2 PUSH2 0x6C9 SWAP2 SWAP1 PUSH2 0xED3 JUMP JUMPDEST SWAP2 POP POP SWAP4 SWAP3 POP POP POP JUMP JUMPDEST DUP1 PUSH1 0x4 DUP2 SWAP1 SSTORE POP POP JUMP JUMPDEST DUP3 DUP1 SLOAD PUSH2 0x6E9 SWAP1 PUSH2 0xDF9 JUMP JUMPDEST SWAP1 PUSH1 0x0 MSTORE PUSH1 0x20 PUSH1 0x0 KECCAK256 SWAP1 PUSH1 0x1F ADD PUSH1 0x20 SWAP1 DIV DUP2 ADD SWAP3 DUP3 PUSH2 0x70B JUMPI PUSH1 0x0 DUP6 SSTORE PUSH2 0x752 JUMP JUMPDEST DUP3 PUSH1 0x1F LT PUSH2 0x724 JUMPI DUP1 MLOAD PUSH1 0xFF NOT AND DUP4 DUP1 ADD OR DUP6 SSTORE PUSH2 0x752 JUMP JUMPDEST DUP3 DUP1 ADD PUSH1 0x1 ADD DUP6 SSTORE DUP3 ISZERO PUSH2 0x752 JUMPI SWAP2 DUP3 ADD JUMPDEST DUP3 DUP2 GT ISZERO PUSH2 0x751 JUMPI DUP3 MLOAD DUP3 SSTORE SWAP2 PUSH1 0x20 ADD SWAP2 SWAP1 PUSH1 0x1 ADD SWAP1 PUSH2 0x736 JUMP JUMPDEST JUMPDEST POP SWAP1 POP PUSH2 0x75F SWAP2 SWAP1 PUSH2 0x763 JUMP JUMPDEST POP SWAP1 JUMP JUMPDEST JUMPDEST DUP1 DUP3 GT ISZERO PUSH2 0x77C JUMPI PUSH1 0x0 DUP2 PUSH1 0x0 SWAP1 SSTORE POP PUSH1 0x1 ADD PUSH2 0x764 JUMP JUMPDEST POP SWAP1 JUMP JUMPDEST PUSH1 0x0 PUSH2 0x793 PUSH2 0x78E DUP5 PUSH2 0xC67 JUMP JUMPDEST PUSH2 0xC42 JUMP JUMPDEST SWAP1 POP DUP3 DUP2 MSTORE PUSH1 0x20 DUP2 ADD DUP5 DUP5 DUP5 ADD GT ISZERO PUSH2 0x7AF JUMPI PUSH2 0x7AE PUSH2 0xFF4 JUMP JUMPDEST JUMPDEST PUSH2 0x7BA DUP5 DUP3 DUP6 PUSH2 0xDB7 JUMP JUMPDEST POP SWAP4 SWAP3 POP POP POP JUMP JUMPDEST PUSH1 0x0 DUP2 CALLDATALOAD SWAP1 POP PUSH2 0x7D1 DUP2 PUSH2 0x1111 JUMP JUMPDEST SWAP3 SWAP2 POP POP JUMP JUMPDEST PUSH1 0x0 DUP3 PUSH1 0x1F DUP4 ADD SLT PUSH2 0x7EC JUMPI PUSH2 0x7EB PUSH2 0xFEF JUMP JUMPDEST JUMPDEST DUP2 CALLDATALOAD PUSH2 0x7FC DUP5 DUP3 PUSH1 0x20 DUP7 ADD PUSH2 0x780 JUMP JUMPDEST SWAP2 POP POP SWAP3 SWAP2 POP POP JUMP JUMPDEST PUSH1 0x0 DUP2 CALLDATALOAD SWAP1 POP PUSH2 0x814 DUP2 PUSH2 0x1128 JUMP JUMPDEST SWAP3 SWAP2 POP POP JUMP JUMPDEST PUSH1 0x0 PUSH1 0x20 DUP3 DUP5 SUB SLT ISZERO PUSH2 0x830 JUMPI PUSH2 0x82F PUSH2 0xFFE JUMP JUMPDEST JUMPDEST PUSH1 0x0 PUSH2 0x83E DUP5 DUP3 DUP6 ADD PUSH2 0x805 JUMP JUMPDEST SWAP2 POP POP SWAP3 SWAP2 POP POP JUMP JUMPDEST PUSH1 0x0 DUP1 PUSH1 0x0 DUP1 PUSH1 0x80 DUP6 DUP8 SUB SLT ISZERO PUSH2 0x861 JUMPI PUSH2 0x860 PUSH2 0xFFE JUMP JUMPDEST JUMPDEST PUSH1 0x0 PUSH2 0x86F DUP8 DUP3 DUP9 ADD PUSH2 0x805 JUMP JUMPDEST SWAP5 POP POP PUSH1 0x20 PUSH2 0x880 DUP8 DUP3 DUP9 ADD PUSH2 0x805 JUMP JUMPDEST SWAP4 POP POP PUSH1 0x40 PUSH2 0x891 DUP8 DUP3 DUP9 ADD PUSH2 0x7C2 JUMP JUMPDEST SWAP3 POP POP PUSH1 0x60 DUP6 ADD CALLDATALOAD PUSH8 0xFFFFFFFFFFFFFFFF DUP2 GT ISZERO PUSH2 0x8B2 JUMPI PUSH2 0x8B1 PUSH2 0xFF9 JUMP JUMPDEST JUMPDEST PUSH2 0x8BE DUP8 DUP3 DUP9 ADD PUSH2 0x7D7 JUMP JUMPDEST SWAP2 POP POP SWAP3 SWAP6 SWAP2 SWAP5 POP SWAP3 POP JUMP JUMPDEST PUSH1 0x0 DUP1 PUSH1 0x0 PUSH1 0x60 DUP5 DUP7 SUB SLT ISZERO PUSH2 0x8E3 JUMPI PUSH2 0x8E2 PUSH2 0xFFE JUMP JUMPDEST JUMPDEST PUSH1 0x0 PUSH2 0x8F1 DUP7 DUP3 DUP8 ADD PUSH2 0x805 JUMP JUMPDEST SWAP4 POP POP PUSH1 0x20 PUSH2 0x902 DUP7 DUP3 DUP8 ADD PUSH2 0x805 JUMP JUMPDEST SWAP3 POP POP PUSH1 0x40 DUP5 ADD CALLDATALOAD PUSH8 0xFFFFFFFFFFFFFFFF DUP2 GT ISZERO PUSH2 0x923 JUMPI PUSH2 0x922 PUSH2 0xFF9 JUMP JUMPDEST JUMPDEST PUSH2 0x92F DUP7 DUP3 DUP8 ADD PUSH2 0x7D7 JUMP JUMPDEST SWAP2 POP POP SWAP3 POP SWAP3 POP SWAP3 JUMP JUMPDEST PUSH2 0x942 DUP2 PUSH2 0xD6F JUMP JUMPDEST DUP3 MSTORE POP POP JUMP JUMPDEST PUSH2 0x959 PUSH2 0x954 DUP3 PUSH2 0xD6F JUMP JUMPDEST PUSH2 0xEA5 JUMP JUMPDEST DUP3 MSTORE POP POP JUMP JUMPDEST PUSH2 0x968 DUP2 PUSH2 0xD81 JUMP JUMPDEST DUP3 MSTORE POP POP JUMP JUMPDEST PUSH1 0x0 PUSH2 0x979 DUP3 PUSH2 0xC98 JUMP JUMPDEST PUSH2 0x983 DUP2 DUP6 PUSH2 0xCA3 JUMP JUMPDEST SWAP4 POP PUSH2 0x993 DUP2 DUP6 PUSH1 0x20 DUP7 ADD PUSH2 0xDC6 JUMP JUMPDEST PUSH2 0x99C DUP2 PUSH2 0x1003 JUMP JUMPDEST DUP5 ADD SWAP2 POP POP SWAP3 SWAP2 POP POP JUMP JUMPDEST PUSH1 0x0 PUSH2 0x9B2 DUP3 PUSH2 0xC98 JUMP JUMPDEST PUSH2 0x9BC DUP2 DUP6 PUSH2 0xCB4 JUMP JUMPDEST SWAP4 POP PUSH2 0x9CC DUP2 DUP6 PUSH1 0x20 DUP7 ADD PUSH2 0xDC6 JUMP JUMPDEST DUP1 DUP5 ADD SWAP2 POP POP SWAP3 SWAP2 POP POP JUMP JUMPDEST PUSH1 0x0 PUSH2 0x9E5 PUSH1 0x14 DUP4 PUSH2 0xCA3 JUMP JUMPDEST SWAP2 POP PUSH2 0x9F0 DUP3 PUSH2 0x1021 JUMP JUMPDEST PUSH1 0x20 DUP3 ADD SWAP1 POP SWAP2 SWAP1 POP JUMP JUMPDEST PUSH1 0x0 PUSH2 0xA08 PUSH1 0x23 DUP4 PUSH2 0xCA3 JUMP JUMPDEST SWAP2 POP PUSH2 0xA13 DUP3 PUSH2 0x104A JUMP JUMPDEST PUSH1 0x40 DUP3 ADD SWAP1 POP SWAP2 SWAP1 POP JUMP JUMPDEST PUSH1 0x0 PUSH2 0xA2B PUSH1 0x1B DUP4 PUSH2 0xCA3 JUMP JUMPDEST SWAP2 POP PUSH2 0xA36 DUP3 PUSH2 0x1099 JUMP JUMPDEST PUSH1 0x20 DUP3 ADD SWAP1 POP SWAP2 SWAP1 POP JUMP JUMPDEST PUSH1 0x0 PUSH2 0xA4E PUSH1 0x2B DUP4 PUSH2 0xCA3 JUMP JUMPDEST SWAP2 POP PUSH2 0xA59 DUP3 PUSH2 0x10C2 JUMP JUMPDEST PUSH1 0x40 DUP3 ADD SWAP1 POP SWAP2 SWAP1 POP JUMP JUMPDEST PUSH2 0xA6D DUP2 PUSH2 0xDAD JUMP JUMPDEST DUP3 MSTORE POP POP JUMP JUMPDEST PUSH2 0xA84 PUSH2 0xA7F DUP3 PUSH2 0xDAD JUMP JUMPDEST PUSH2 0xEC9 JUMP JUMPDEST DUP3 MSTORE POP POP JUMP JUMPDEST PUSH1 0x0 PUSH2 0xA96 DUP3 DUP7 PUSH2 0x948 JUMP JUMPDEST PUSH1 0x14 DUP3 ADD SWAP2 POP PUSH2 0xAA6 DUP3 DUP6 PUSH2 0xA73 JUMP JUMPDEST PUSH1 0x20 DUP3 ADD SWAP2 POP PUSH2 0xAB6 DUP3 DUP5 PUSH2 0x9A7 JUMP JUMPDEST SWAP2 POP DUP2 SWAP1 POP SWAP5 SWAP4 POP POP POP POP JUMP JUMPDEST PUSH1 0x0 PUSH1 0x20 DUP3 ADD SWAP1 POP DUP2 DUP2 SUB PUSH1 0x0 DUP4 ADD MSTORE PUSH2 0xADD DUP2 DUP5 PUSH2 0x96E JUMP JUMPDEST SWAP1 POP SWAP3 SWAP2 POP POP JUMP JUMPDEST PUSH1 0x0 PUSH1 0x20 DUP3 ADD SWAP1 POP DUP2 DUP2 SUB PUSH1 0x0 DUP4 ADD MSTORE PUSH2 0xAFE DUP2 PUSH2 0x9D8 JUMP JUMPDEST SWAP1 POP SWAP2 SWAP1 POP JUMP JUMPDEST PUSH1 0x0 PUSH1 0x20 DUP3 ADD SWAP1 POP DUP2 DUP2 SUB PUSH1 0x0 DUP4 ADD MSTORE PUSH2 0xB1E DUP2 PUSH2 0x9FB JUMP JUMPDEST SWAP1 POP SWAP2 SWAP1 POP JUMP JUMPDEST PUSH1 0x0 PUSH1 0x20 DUP3 ADD SWAP1 POP DUP2 DUP2 SUB PUSH1 0x0 DUP4 ADD MSTORE PUSH2 0xB3E DUP2 PUSH2 0xA1E JUMP JUMPDEST SWAP1 POP SWAP2 SWAP1 POP JUMP JUMPDEST PUSH1 0x0 PUSH1 0x20 DUP3 ADD SWAP1 POP DUP2 DUP2 SUB PUSH1 0x0 DUP4 ADD MSTORE PUSH2 0xB5E DUP2 PUSH2 0xA41 JUMP JUMPDEST SWAP1 POP SWAP2 SWAP1 POP JUMP JUMPDEST PUSH1 0x0 PUSH1 0x20 DUP3 ADD SWAP1 POP PUSH2 0xB7A PUSH1 0x0 DUP4 ADD DUP5 PUSH2 0xA64 JUMP JUMPDEST SWAP3 SWAP2 POP POP JUMP JUMPDEST PUSH1 0x0 PUSH1 0x80 DUP3 ADD SWAP1 POP PUSH2 0xB95 PUSH1 0x0 DUP4 ADD DUP8 PUSH2 0xA64 JUMP JUMPDEST PUSH2 0xBA2 PUSH1 0x20 DUP4 ADD DUP7 PUSH2 0x939 JUMP JUMPDEST PUSH2 0xBAF PUSH1 0x40 DUP4 ADD DUP6 PUSH2 0xA64 JUMP JUMPDEST DUP2 DUP2 SUB PUSH1 0x60 DUP4 ADD MSTORE PUSH2 0xBC1 DUP2 DUP5 PUSH2 0x96E JUMP JUMPDEST SWAP1 POP SWAP6 SWAP5 POP POP POP POP POP JUMP JUMPDEST PUSH1 0x0 PUSH1 0xE0 DUP3 ADD SWAP1 POP PUSH2 0xBE1 PUSH1 0x0 DUP4 ADD DUP11 PUSH2 0xA64 JUMP JUMPDEST PUSH2 0xBEE PUSH1 0x20 DUP4 ADD DUP10 PUSH2 0xA64 JUMP JUMPDEST PUSH2 0xBFB PUSH1 0x40 DUP4 ADD DUP9 PUSH2 0xA64 JUMP JUMPDEST PUSH2 0xC08 PUSH1 0x60 DUP4 ADD DUP8 PUSH2 0xA64 JUMP JUMPDEST PUSH2 0xC15 PUSH1 0x80 DUP4 ADD DUP7 PUSH2 0x939 JUMP JUMPDEST DUP2 DUP2 SUB PUSH1 0xA0 DUP4 ADD MSTORE PUSH2 0xC27 DUP2 DUP6 PUSH2 0x96E JUMP JUMPDEST SWAP1 POP PUSH2 0xC36 PUSH1 0xC0 DUP4 ADD DUP5 PUSH2 0x95F JUMP JUMPDEST SWAP9 SWAP8 POP POP POP POP POP POP POP POP JUMP JUMPDEST PUSH1 0x0 PUSH2 0xC4C PUSH2 0xC5D JUMP JUMPDEST SWAP1 POP PUSH2 0xC58 DUP3 DUP3 PUSH2 0xE2B JUMP JUMPDEST SWAP2 SWAP1 POP JUMP JUMPDEST PUSH1 0x0 PUSH1 0x40 MLOAD SWAP1 POP SWAP1 JUMP JUMPDEST PUSH1 0x0 PUSH8 0xFFFFFFFFFFFFFFFF DUP3 GT ISZERO PUSH2 0xC82 JUMPI PUSH2 0xC81 PUSH2 0xFC0 JUMP JUMPDEST JUMPDEST PUSH2 0xC8B DUP3 PUSH2 0x1003 JUMP JUMPDEST SWAP1 POP PUSH1 0x20 DUP2 ADD SWAP1 POP SWAP2 SWAP1 POP JUMP JUMPDEST PUSH1 0x0 DUP2 MLOAD SWAP1 POP SWAP2 SWAP1 POP JUMP JUMPDEST PUSH1 0x0 DUP3 DUP3 MSTORE PUSH1 0x20 DUP3 ADD SWAP1 POP SWAP3 SWAP2 POP POP JUMP JUMPDEST PUSH1 0x0 DUP2 SWAP1 POP SWAP3 SWAP2 POP POP JUMP JUMPDEST PUSH1 0x0 PUSH2 0xCCA DUP3 PUSH2 0xDAD JUMP JUMPDEST SWAP2 POP PUSH2 0xCD5 DUP4 PUSH2 0xDAD JUMP JUMPDEST SWAP3 POP DUP3 PUSH32 0xFFFFFFFFFFFFFFFFFFFFFFFFFFFFFFFFFFFFFFFFFFFFFFFFFFFFFFFFFFFFFFFF SUB DUP3 GT ISZERO PUSH2 0xD0A JUMPI PUSH2 0xD09 PUSH2 0xF04 JUMP JUMPDEST JUMPDEST DUP3 DUP3 ADD SWAP1 POP SWAP3 SWAP2 POP POP JUMP JUMPDEST PUSH1 0x0 PUSH2 0xD20 DUP3 PUSH2 0xDAD JUMP JUMPDEST SWAP2 POP PUSH2 0xD2B DUP4 PUSH2 0xDAD JUMP JUMPDEST SWAP3 POP DUP2 PUSH32 0xFFFFFFFFFFFFFFFFFFFFFFFFFFFFFFFFFFFFFFFFFFFFFFFFFFFFFFFFFFFFFFFF DIV DUP4 GT DUP3 ISZERO ISZERO AND ISZERO PUSH2 0xD64 JUMPI PUSH2 0xD63 PUSH2 0xF04 JUMP JUMPDEST JUMPDEST DUP3 DUP3 MUL SWAP1 POP SWAP3 SWAP2 POP POP JUMP JUMPDEST PUSH1 0x0 PUSH2 0xD7A DUP3 PUSH2 0xD8D JUMP JUMPDEST SWAP1 POP SWAP2 SWAP1 POP JUMP JUMPDEST PUSH1 0x0 DUP2 ISZERO ISZERO SWAP1 POP SWAP2 SWAP1 POP JUMP JUMPDEST PUSH1 0x0 PUSH20 0xFFFFFFFFFFFFFFFFFFFFFFFFFFFFFFFFFFFFFFFF DUP3 AND SWAP1 POP SWAP2 SWAP1 POP JUMP JUMPDEST PUSH1 0x0 DUP2 SWAP1 POP SWAP2 SWAP1 POP JUMP JUMPDEST DUP3 DUP2 DUP4 CALLDATACOPY PUSH1 0x0 DUP4 DUP4 ADD MSTORE POP POP POP JUMP JUMPDEST PUSH1 0x0 JUMPDEST DUP4 DUP2 LT ISZERO PUSH2 0xDE4 JUMPI DUP1 DUP3 ADD MLOAD DUP2 DUP5 ADD MSTORE PUSH1 0x20 DUP2 ADD SWAP1 POP PUSH2 0xDC9 JUMP JUMPDEST DUP4 DUP2 GT ISZERO PUSH2 0xDF3 JUMPI PUSH1 0x0 DUP5 DUP5 ADD MSTORE JUMPDEST POP POP POP POP JUMP JUMPDEST PUSH1 0x0 PUSH1 0x2 DUP3 DIV SWAP1 POP PUSH1 0x1 DUP3 AND DUP1 PUSH2 0xE11 JUMPI PUSH1 0x7F DUP3 AND SWAP2 POP JUMPDEST PUSH1 0x20 DUP3 LT DUP2 EQ ISZERO PUSH2 0xE25 JUMPI PUSH2 0xE24 PUSH2 0xF62 JUMP JUMPDEST JUMPDEST POP SWAP2 SWAP1 POP JUMP JUMPDEST PUSH2 0xE34 DUP3 PUSH2 0x1003 JUMP JUMPDEST DUP2 ADD DUP2 DUP2 LT PUSH8 0xFFFFFFFFFFFFFFFF DUP3 GT OR ISZERO PUSH2 0xE53 JUMPI PUSH2 0xE52 PUSH2 0xFC0 JUMP JUMPDEST JUMPDEST DUP1 PUSH1 0x40 MSTORE POP POP POP JUMP JUMPDEST PUSH1 0x0 PUSH2 0xE67 DUP3 PUSH2 0xDAD JUMP JUMPDEST SWAP2 POP PUSH32 0xFFFFFFFFFFFFFFFFFFFFFFFFFFFFFFFFFFFFFFFFFFFFFFFFFFFFFFFFFFFFFFFF DUP3 EQ ISZERO PUSH2 0xE9A JUMPI PUSH2 0xE99 PUSH2 0xF04 JUMP JUMPDEST JUMPDEST PUSH1 0x1 DUP3 ADD SWAP1 POP SWAP2 SWAP1 POP JUMP JUMPDEST PUSH1 0x0 PUSH2 0xEB0 DUP3 PUSH2 0xEB7 JUMP JUMPDEST SWAP1 POP SWAP2 SWAP1 POP JUMP JUMPDEST PUSH1 0x0 PUSH2 0xEC2 DUP3 PUSH2 0x1014 JUMP JUMPDEST SWAP1 POP SWAP2 SWAP1 POP JUMP JUMPDEST PUSH1 0x0 DUP2 SWAP1 POP SWAP2 SWAP1 POP JUMP JUMPDEST PUSH1 0x0 PUSH2 0xEDE DUP3 PUSH2 0xDAD JUMP JUMPDEST SWAP2 POP PUSH2 0xEE9 DUP4 PUSH2 0xDAD JUMP JUMPDEST SWAP3 POP DUP3 PUSH2 0xEF9 JUMPI PUSH2 0xEF8 PUSH2 0xF33 JUMP JUMPDEST JUMPDEST DUP3 DUP3 MOD SWAP1 POP SWAP3 SWAP2 POP POP JUMP JUMPDEST PUSH32 0x4E487B7100000000000000000000000000000000000000000000000000000000 PUSH1 0x0 MSTORE PUSH1 0x11 PUSH1 0x4 MSTORE PUSH1 0x24 PUSH1 0x0 REVERT JUMPDEST PUSH32 0x4E487B7100000000000000000000000000000000000000000000000000000000 PUSH1 0x0 MSTORE PUSH1 0x12 PUSH1 0x4 MSTORE PUSH1 0x24 PUSH1 0x0 REVERT JUMPDEST PUSH32 0x4E487B7100000000000000000000000000000000000000000000000000000000 PUSH1 0x0 MSTORE PUSH1 0x22 PUSH1 0x4 MSTORE PUSH1 0x24 PUSH1 0x0 REVERT JUMPDEST PUSH32 0x4E487B7100000000000000000000000000000000000000000000000000000000 PUSH1 0x0 MSTORE PUSH1 0x32 PUSH1 0x4 MSTORE PUSH1 0x24 PUSH1 0x0 REVERT JUMPDEST PUSH32 0x4E487B7100000000000000000000000000000000000000000000000000000000 PUSH1 0x0 MSTORE PUSH1 0x41 PUSH1 0x4 MSTORE PUSH1 0x24 PUSH1 0x0 REVERT JUMPDEST PUSH1 0x0 DUP1 REVERT JUMPDEST PUSH1 0x0 DUP1 REVERT JUMPDEST PUSH1 0x0 DUP1 REVERT JUMPDEST PUSH1 0x0 DUP1 REVERT JUMPDEST PUSH1 0x0 PUSH1 0x1F NOT PUSH1 0x1F DUP4 ADD AND SWAP1 POP SWAP2 SWAP1 POP JUMP JUMPDEST PUSH1 0x0 DUP2 PUSH1 0x60 SHL SWAP1 POP SWAP2 SWAP1 POP JUMP JUMPDEST PUSH32 0x76616C75652063616E6E6F74206265206E756C6C000000000000000000000000 PUSH1 0x0 DUP3 ADD MSTORE POP JUMP JUMPDEST PUSH32 0x546865206F776E65722063616E6E6F7420796574206164642061206E65772068 PUSH1 0x0 DUP3 ADD MSTORE PUSH32 0x6F6D650000000000000000000000000000000000000000000000000000000000 PUSH1 0x20 DUP3 ADD MSTORE POP JUMP JUMPDEST PUSH32 0x7468697320686F757365496420616C7265616479206578697374730000000000 PUSH1 0x0 DUP3 ADD MSTORE POP JUMP JUMPDEST PUSH32 0x596F7520646F206E6F7420686176652061636365737320746F2064656C657465 PUSH1 0x0 DUP3 ADD MSTORE PUSH32 0x207468697320686F757365000000000000000000000000000000000000000000 PUSH1 0x20 DUP3 ADD MSTORE POP JUMP JUMPDEST PUSH2 0x111A DUP2 PUSH2 0xD6F JUMP JUMPDEST DUP2 EQ PUSH2 0x1125 JUMPI PUSH1 0x0 DUP1 REVERT JUMPDEST POP JUMP JUMPDEST PUSH2 0x1131 DUP2 PUSH2 0xDAD JUMP JUMPDEST DUP2 EQ PUSH2 0x113C JUMPI PUSH1 0x0 DUP1 REVERT JUMPDEST POP JUMP INVALID LOG2 PUSH5 0x6970667358 0x22 SLT KECCAK256 0xAB PUSH23 0x9DEA26436559C88343F1E09E12C65180C27A04F84E3CB8 STATICCALL 0xC2 0xC1 CHAINID 0xB8 0xD4 RETURNDATACOPY PUSH5 0x736F6C6343 STOP ADDMOD SMOD STOP CALLER "
				},
				"gasEstimates": {
					"creation": {
						"codeDepositCost": "893800",
						"executionCost": "infinite",
						"totalCost": "infinite"
					},
					"external": {
						"delistHouse(uint256)": "infinite",
						"getCheapHouseIds(uint256)": "infinite",
						"houses(uint256)": "infinite",
						"listHouse(uint256,uint256,address,string)": "infinite",
						"listHouseSimple(uint256,uint256,string)": "infinite"
					}
				},
				"methodIdentifiers": {
					"delistHouse(uint256)": "3c3b0b4a",
					"getCheapHouseIds(uint256)": "c45e1b25",
					"houses(uint256)": "aeda852f",
					"listHouse(uint256,uint256,address,string)": "91bfe0d4",
					"listHouseSimple(uint256,uint256,string)": "be40a73e"
				}
			},
			"storageLayout": {
				"storage": [
					{
						"astId": 4,
						"contract": "contract/HouseRegistryExt.sol:HouseRegistryExt",
						"label": "digits",
						"offset": 0,
						"slot": "0",
						"type": "t_uint256"
					},
					{
						"astId": 9,
						"contract": "contract/HouseRegistryExt.sol:HouseRegistryExt",
						"label": "modulus",
						"offset": 0,
						"slot": "1",
						"type": "t_uint256"
					},
					{
						"astId": 12,
						"contract": "contract/HouseRegistryExt.sol:HouseRegistryExt",
						"label": "cooldownTime",
						"offset": 0,
						"slot": "2",
						"type": "t_uint256"
					},
					{
						"astId": 15,
						"contract": "contract/HouseRegistryExt.sol:HouseRegistryExt",
						"label": "countOfHouses",
						"offset": 0,
						"slot": "3",
						"type": "t_uint256"
					},
					{
						"astId": 17,
						"contract": "contract/HouseRegistryExt.sol:HouseRegistryExt",
						"label": "ownerAddCooldown",
						"offset": 0,
						"slot": "4",
						"type": "t_uint256"
					},
					{
						"astId": 57,
						"contract": "contract/HouseRegistryExt.sol:HouseRegistryExt",
						"label": "houseIndex",
						"offset": 0,
						"slot": "5",
						"type": "t_array(t_uint256)dyn_storage"
					},
					{
						"astId": 62,
						"contract": "contract/HouseRegistryExt.sol:HouseRegistryExt",
						"label": "houses",
						"offset": 0,
						"slot": "6",
						"type": "t_mapping(t_uint256,t_struct(House)32_storage)"
					}
				],
				"types": {
					"t_address": {
						"encoding": "inplace",
						"label": "address",
						"numberOfBytes": "20"
					},
					"t_array(t_uint256)dyn_storage": {
						"base": "t_uint256",
						"encoding": "dynamic_array",
						"label": "uint256[]",
						"numberOfBytes": "32"
					},
					"t_bool": {
						"encoding": "inplace",
						"label": "bool",
						"numberOfBytes": "1"
					},
					"t_mapping(t_uint256,t_struct(House)32_storage)": {
						"encoding": "mapping",
						"key": "t_uint256",
						"label": "mapping(uint256 => struct HouseRegistry.House)",
						"numberOfBytes": "32",
						"value": "t_struct(House)32_storage"
					},
					"t_string_storage": {
						"encoding": "bytes",
						"label": "string",
						"numberOfBytes": "32"
					},
					"t_struct(House)32_storage": {
						"encoding": "inplace",
						"label": "struct HouseRegistry.House",
						"members": [
							{
								"astId": 19,
								"contract": "contract/HouseRegistryExt.sol:HouseRegistryExt",
								"label": "id",
								"offset": 0,
								"slot": "0",
								"type": "t_uint256"
							},
							{
								"astId": 21,
								"contract": "contract/HouseRegistryExt.sol:HouseRegistryExt",
								"label": "serialNumber",
								"offset": 0,
								"slot": "1",
								"type": "t_uint256"
							},
							{
								"astId": 23,
								"contract": "contract/HouseRegistryExt.sol:HouseRegistryExt",
								"label": "price",
								"offset": 0,
								"slot": "2",
								"type": "t_uint256"
							},
							{
								"astId": 25,
								"contract": "contract/HouseRegistryExt.sol:HouseRegistryExt",
								"label": "area",
								"offset": 0,
								"slot": "3",
								"type": "t_uint256"
							},
							{
								"astId": 27,
								"contract": "contract/HouseRegistryExt.sol:HouseRegistryExt",
								"label": "sellerAddress",
								"offset": 0,
								"slot": "4",
								"type": "t_address"
							},
							{
								"astId": 29,
								"contract": "contract/HouseRegistryExt.sol:HouseRegistryExt",
								"label": "houseAddress",
								"offset": 0,
								"slot": "5",
								"type": "t_string_storage"
							},
							{
								"astId": 31,
								"contract": "contract/HouseRegistryExt.sol:HouseRegistryExt",
								"label": "isdelistedHouse",
								"offset": 0,
								"slot": "6",
								"type": "t_bool"
							}
						],
						"numberOfBytes": "224"
					},
					"t_uint256": {
						"encoding": "inplace",
						"label": "uint256",
						"numberOfBytes": "32"
					}
				}
			},
			"userdoc": {
				"kind": "user",
				"methods": {},
				"version": 1
			}
		}
	}
}