{
	"contract/HouseRegistryExt.sol": {
		"HouseRegistryExt": {
			"abi": [
				{
					"anonymous": false,
					"inputs": [
						{
							"indexed": false,
							"internalType": "uint256",
							"name": "houseId",
							"type": "uint256"
						},
						{
							"indexed": false,
							"internalType": "address",
							"name": "_sellerAddress",
							"type": "address"
						},
						{
							"indexed": false,
							"internalType": "uint256",
							"name": "price",
							"type": "uint256"
						},
						{
							"indexed": false,
							"internalType": "uint256",
							"name": "priceDai",
							"type": "uint256"
						},
						{
							"indexed": false,
							"internalType": "string",
							"name": "houseAddress",
							"type": "string"
						}
					],
					"name": "AddNewHouse",
					"type": "event"
				},
				{
					"inputs": [
						{
							"internalType": "uint256",
							"name": "_houseId",
							"type": "uint256"
						}
					],
					"name": "buyHouseWithDai",
					"outputs": [],
					"stateMutability": "payable",
					"type": "function"
				},
				{
					"inputs": [
						{
							"internalType": "uint256",
							"name": "_houseId",
							"type": "uint256"
						}
					],
					"name": "buyHouseWithETH",
					"outputs": [],
					"stateMutability": "payable",
					"type": "function"
				},
				{
					"inputs": [
						{
							"internalType": "uint256",
							"name": "houseId",
							"type": "uint256"
						}
					],
					"name": "delistHouse",
					"outputs": [
						{
							"internalType": "string",
							"name": "",
							"type": "string"
						}
					],
					"stateMutability": "nonpayable",
					"type": "function"
				},
				{
					"inputs": [
						{
							"internalType": "uint256",
							"name": "cost",
							"type": "uint256"
						}
					],
					"name": "getCheapHouseIds",
					"outputs": [
						{
							"internalType": "uint256[]",
							"name": "",
							"type": "uint256[]"
						}
					],
					"stateMutability": "view",
					"type": "function"
				},
				{
					"inputs": [
						{
							"internalType": "uint256",
							"name": "",
							"type": "uint256"
						}
					],
					"name": "houses",
					"outputs": [
						{
							"internalType": "uint256",
							"name": "id",
							"type": "uint256"
						},
						{
							"internalType": "uint256",
							"name": "serialNumber",
							"type": "uint256"
						},
						{
							"internalType": "uint256",
							"name": "price",
							"type": "uint256"
						},
						{
							"internalType": "uint256",
							"name": "priceDai",
							"type": "uint256"
						},
						{
							"internalType": "uint256",
							"name": "area",
							"type": "uint256"
						},
						{
							"internalType": "address",
							"name": "sellerAddress",
							"type": "address"
						},
						{
							"internalType": "address",
							"name": "buyerAddress",
							"type": "address"
						},
						{
							"internalType": "string",
							"name": "houseAddress",
							"type": "string"
						},
						{
							"internalType": "bool",
							"name": "isdelistedHouse",
							"type": "bool"
						}
					],
					"stateMutability": "view",
					"type": "function"
				},
				{
					"inputs": [
						{
							"internalType": "uint256",
							"name": "_price",
							"type": "uint256"
						},
						{
							"internalType": "uint256",
							"name": "_priceDai",
							"type": "uint256"
						},
						{
							"internalType": "uint256",
							"name": "_area",
							"type": "uint256"
						},
						{
							"internalType": "address",
							"name": "_sellerAddress",
							"type": "address"
						},
						{
							"internalType": "string",
							"name": "_houseAddress",
							"type": "string"
						}
					],
					"name": "listHouse",
					"outputs": [
						{
							"internalType": "uint256",
							"name": "",
							"type": "uint256"
						}
					],
					"stateMutability": "nonpayable",
					"type": "function"
				},
				{
					"inputs": [
						{
							"internalType": "uint256",
							"name": "_price",
							"type": "uint256"
						},
						{
							"internalType": "uint256",
							"name": "_priceDai",
							"type": "uint256"
						},
						{
							"internalType": "uint256",
							"name": "_area",
							"type": "uint256"
						},
						{
							"internalType": "string",
							"name": "_houseAddress",
							"type": "string"
						}
					],
					"name": "listHouseSimple",
					"outputs": [],
					"stateMutability": "nonpayable",
					"type": "function"
				}
			],
			"devdoc": {
				"kind": "dev",
				"methods": {},
				"version": 1
			},
			"evm": {
				"assembly": "    /* \"contract/HouseRegistryExt.sol\":129:1103  contract HouseRegistryExt is HouseRegistry {\r... */\n  mstore(0x40, 0x80)\n    /* \"contract/HouseRegistry.sol\":107:108  5 */\n  0x05\n    /* \"contract/HouseRegistry.sol\":93:108  uint digits = 5 */\n  0x00\n  sstore\n    /* \"contract/HouseRegistry.sol\":135:141  digits */\n  sload(0x00)\n    /* \"contract/HouseRegistry.sol\":129:131  10 */\n  0x0a\n    /* \"contract/HouseRegistry.sol\":129:141  10 ** digits */\n  tag_1\n  swap2\n  swap1\n  tag_2\n  jump\t// in\ntag_1:\n    /* \"contract/HouseRegistry.sol\":114:141  uint modulus = 10 ** digits */\n  0x01\n  sstore\n    /* \"contract/HouseRegistry.sol\":167:173  1 days */\n  0x015180\n    /* \"contract/HouseRegistry.sol\":147:173  uint cooldownTime = 1 days */\n  0x02\n  sstore\n    /* \"contract/HouseRegistry.sol\":200:201  1 */\n  0x01\n    /* \"contract/HouseRegistry.sol\":179:201  uint countOfHouses = 1 */\n  0x03\n  sstore\n    /* \"contract/HouseRegistryExt.sol\":129:1103  contract HouseRegistryExt is HouseRegistry {\r... */\n  callvalue\n  dup1\n  iszero\n  tag_3\n  jumpi\n  0x00\n  dup1\n  revert\ntag_3:\n  pop\n  jump(tag_4)\n    /* \"#utility.yul\":7:855   */\ntag_6:\n    /* \"#utility.yul\":68:73   */\n  0x00\n    /* \"#utility.yul\":75:79   */\n  dup1\n    /* \"#utility.yul\":99:105   */\n  dup3\n    /* \"#utility.yul\":90:105   */\n  swap2\n  pop\n    /* \"#utility.yul\":123:128   */\n  dup4\n    /* \"#utility.yul\":114:128   */\n  swap1\n  pop\n    /* \"#utility.yul\":137:849   */\ntag_8:\n    /* \"#utility.yul\":158:159   */\n  0x01\n    /* \"#utility.yul\":148:156   */\n  dup6\n    /* \"#utility.yul\":145:160   */\n  gt\n    /* \"#utility.yul\":137:849   */\n  iszero\n  tag_10\n  jumpi\n    /* \"#utility.yul\":253:257   */\n  dup1\n    /* \"#utility.yul\":248:251   */\n  dup7\n    /* \"#utility.yul\":244:258   */\n  div\n    /* \"#utility.yul\":238:242   */\n  dup2\n    /* \"#utility.yul\":235:259   */\n  gt\n    /* \"#utility.yul\":232:282   */\n  iszero\n  tag_11\n  jumpi\n    /* \"#utility.yul\":262:280   */\n  tag_12\n  tag_13\n  jump\t// in\ntag_12:\n    /* \"#utility.yul\":232:282   */\ntag_11:\n    /* \"#utility.yul\":312:313   */\n  0x01\n    /* \"#utility.yul\":302:310   */\n  dup6\n    /* \"#utility.yul\":298:314   */\n  and\n    /* \"#utility.yul\":295:746   */\n  iszero\n  tag_14\n  jumpi\n    /* \"#utility.yul\":727:731   */\n  dup1\n    /* \"#utility.yul\":720:725   */\n  dup3\n    /* \"#utility.yul\":716:732   */\n  mul\n    /* \"#utility.yul\":707:732   */\n  swap2\n  pop\n    /* \"#utility.yul\":295:746   */\ntag_14:\n    /* \"#utility.yul\":777:781   */\n  dup1\n    /* \"#utility.yul\":771:775   */\n  dup2\n    /* \"#utility.yul\":767:782   */\n  mul\n    /* \"#utility.yul\":759:782   */\n  swap1\n  pop\n    /* \"#utility.yul\":807:839   */\n  tag_15\n    /* \"#utility.yul\":830:838   */\n  dup6\n    /* \"#utility.yul\":807:839   */\n  tag_16\n  jump\t// in\ntag_15:\n    /* \"#utility.yul\":795:839   */\n  swap5\n  pop\n    /* \"#utility.yul\":137:849   */\n  jump(tag_8)\ntag_10:\n    /* \"#utility.yul\":7:855   */\n  swap5\n  pop\n  swap5\n  swap3\n  pop\n  pop\n  pop\n  jump\t// out\n    /* \"#utility.yul\":861:1146   */\ntag_2:\n    /* \"#utility.yul\":921:926   */\n  0x00\n    /* \"#utility.yul\":945:968   */\n  tag_18\n    /* \"#utility.yul\":963:967   */\n  dup3\n    /* \"#utility.yul\":945:968   */\n  tag_19\n  jump\t// in\ntag_18:\n    /* \"#utility.yul\":937:968   */\n  swap2\n  pop\n    /* \"#utility.yul\":989:1016   */\n  tag_20\n    /* \"#utility.yul\":1007:1015   */\n  dup4\n    /* \"#utility.yul\":989:1016   */\n  tag_19\n  jump\t// in\ntag_20:\n    /* \"#utility.yul\":977:1016   */\n  swap3\n  pop\n    /* \"#utility.yul\":1035:1139   */\n  tag_21\n    /* \"#utility.yul\":1072:1138   */\n  0xffffffffffffffffffffffffffffffffffffffffffffffffffffffffffffffff\n    /* \"#utility.yul\":1062:1070   */\n  dup5\n    /* \"#utility.yul\":1056:1060   */\n  dup5\n    /* \"#utility.yul\":1035:1139   */\n  tag_22\n  jump\t// in\ntag_21:\n    /* \"#utility.yul\":1026:1139   */\n  swap1\n  pop\n    /* \"#utility.yul\":861:1146   */\n  swap3\n  swap2\n  pop\n  pop\n  jump\t// out\n    /* \"#utility.yul\":1152:2225   */\ntag_22:\n    /* \"#utility.yul\":1206:1211   */\n  0x00\n    /* \"#utility.yul\":1397:1405   */\n  dup3\n    /* \"#utility.yul\":1387:1427   */\n  tag_24\n  jumpi\n    /* \"#utility.yul\":1418:1419   */\n  0x01\n    /* \"#utility.yul\":1409:1419   */\n  swap1\n  pop\n    /* \"#utility.yul\":1420:1425   */\n  jump(tag_23)\n    /* \"#utility.yul\":1387:1427   */\ntag_24:\n    /* \"#utility.yul\":1446:1450   */\n  dup2\n    /* \"#utility.yul\":1436:1472   */\n  tag_25\n  jumpi\n    /* \"#utility.yul\":1463:1464   */\n  0x00\n    /* \"#utility.yul\":1454:1464   */\n  swap1\n  pop\n    /* \"#utility.yul\":1465:1470   */\n  jump(tag_23)\n    /* \"#utility.yul\":1436:1472   */\ntag_25:\n    /* \"#utility.yul\":1532:1536   */\n  dup2\n    /* \"#utility.yul\":1580:1581   */\n  0x01\n    /* \"#utility.yul\":1575:1602   */\n  dup2\n  eq\n  tag_27\n  jumpi\n    /* \"#utility.yul\":1616:1617   */\n  0x02\n    /* \"#utility.yul\":1611:1802   */\n  dup2\n  eq\n  tag_28\n  jumpi\n    /* \"#utility.yul\":1525:1802   */\n  jump(tag_26)\n    /* \"#utility.yul\":1575:1602   */\ntag_27:\n    /* \"#utility.yul\":1593:1594   */\n  0x01\n    /* \"#utility.yul\":1584:1594   */\n  swap2\n  pop\n    /* \"#utility.yul\":1595:1600   */\n  pop\n  jump(tag_23)\n    /* \"#utility.yul\":1611:1802   */\ntag_28:\n    /* \"#utility.yul\":1656:1659   */\n  0xff\n    /* \"#utility.yul\":1646:1654   */\n  dup5\n    /* \"#utility.yul\":1643:1660   */\n  gt\n    /* \"#utility.yul\":1640:1683   */\n  iszero\n  tag_29\n  jumpi\n    /* \"#utility.yul\":1663:1681   */\n  tag_30\n  tag_13\n  jump\t// in\ntag_30:\n    /* \"#utility.yul\":1640:1683   */\ntag_29:\n    /* \"#utility.yul\":1712:1720   */\n  dup4\n    /* \"#utility.yul\":1709:1710   */\n  0x02\n    /* \"#utility.yul\":1705:1721   */\n  exp\n    /* \"#utility.yul\":1696:1721   */\n  swap2\n  pop\n    /* \"#utility.yul\":1747:1750   */\n  dup5\n    /* \"#utility.yul\":1740:1745   */\n  dup3\n    /* \"#utility.yul\":1737:1751   */\n  gt\n    /* \"#utility.yul\":1734:1774   */\n  iszero\n  tag_31\n  jumpi\n    /* \"#utility.yul\":1754:1772   */\n  tag_32\n  tag_13\n  jump\t// in\ntag_32:\n    /* \"#utility.yul\":1734:1774   */\ntag_31:\n    /* \"#utility.yul\":1787:1792   */\n  pop\n  jump(tag_23)\n    /* \"#utility.yul\":1525:1802   */\ntag_26:\n  pop\n    /* \"#utility.yul\":1911:1913   */\n  0x20\n    /* \"#utility.yul\":1901:1909   */\n  dup4\n    /* \"#utility.yul\":1898:1914   */\n  lt\n    /* \"#utility.yul\":1892:1895   */\n  0x0133\n    /* \"#utility.yul\":1886:1890   */\n  dup4\n    /* \"#utility.yul\":1883:1896   */\n  lt\n    /* \"#utility.yul\":1879:1915   */\n  and\n    /* \"#utility.yul\":1861:1863   */\n  0x4e\n    /* \"#utility.yul\":1851:1859   */\n  dup5\n    /* \"#utility.yul\":1848:1864   */\n  lt\n    /* \"#utility.yul\":1843:1845   */\n  0x0b\n    /* \"#utility.yul\":1837:1841   */\n  dup5\n    /* \"#utility.yul\":1834:1846   */\n  lt\n    /* \"#utility.yul\":1830:1865   */\n  and\n    /* \"#utility.yul\":1814:1925   */\n  or\n    /* \"#utility.yul\":1811:2057   */\n  iszero\n  tag_33\n  jumpi\n    /* \"#utility.yul\":1967:1975   */\n  dup3\n    /* \"#utility.yul\":1961:1965   */\n  dup3\n    /* \"#utility.yul\":1957:1976   */\n  exp\n    /* \"#utility.yul\":1948:1976   */\n  swap1\n  pop\n    /* \"#utility.yul\":2002:2005   */\n  dup4\n    /* \"#utility.yul\":1995:2000   */\n  dup2\n    /* \"#utility.yul\":1992:2006   */\n  gt\n    /* \"#utility.yul\":1989:2029   */\n  iszero\n  tag_34\n  jumpi\n    /* \"#utility.yul\":2009:2027   */\n  tag_35\n  tag_13\n  jump\t// in\ntag_35:\n    /* \"#utility.yul\":1989:2029   */\ntag_34:\n    /* \"#utility.yul\":2042:2047   */\n  jump(tag_23)\n    /* \"#utility.yul\":1811:2057   */\ntag_33:\n    /* \"#utility.yul\":2082:2124   */\n  tag_36\n    /* \"#utility.yul\":2120:2123   */\n  dup5\n    /* \"#utility.yul\":2110:2118   */\n  dup5\n    /* \"#utility.yul\":2104:2108   */\n  dup5\n    /* \"#utility.yul\":2101:2102   */\n  0x01\n    /* \"#utility.yul\":2082:2124   */\n  tag_6\n  jump\t// in\ntag_36:\n    /* \"#utility.yul\":2067:2124   */\n  swap3\n  pop\n  swap1\n  pop\n    /* \"#utility.yul\":2156:2160   */\n  dup2\n    /* \"#utility.yul\":2151:2154   */\n  dup5\n    /* \"#utility.yul\":2147:2161   */\n  div\n    /* \"#utility.yul\":2140:2145   */\n  dup2\n    /* \"#utility.yul\":2137:2162   */\n  gt\n    /* \"#utility.yul\":2134:2185   */\n  iszero\n  tag_37\n  jumpi\n    /* \"#utility.yul\":2165:2183   */\n  tag_38\n  tag_13\n  jump\t// in\ntag_38:\n    /* \"#utility.yul\":2134:2185   */\ntag_37:\n    /* \"#utility.yul\":2214:2218   */\n  dup2\n    /* \"#utility.yul\":2207:2212   */\n  dup2\n    /* \"#utility.yul\":2203:2219   */\n  mul\n    /* \"#utility.yul\":2194:2219   */\n  swap1\n  pop\n    /* \"#utility.yul\":1152:2225   */\ntag_23:\n  swap4\n  swap3\n  pop\n  pop\n  pop\n  jump\t// out\n    /* \"#utility.yul\":2231:2308   */\ntag_19:\n    /* \"#utility.yul\":2268:2275   */\n  0x00\n    /* \"#utility.yul\":2297:2302   */\n  dup2\n    /* \"#utility.yul\":2286:2302   */\n  swap1\n  pop\n    /* \"#utility.yul\":2231:2308   */\n  swap2\n  swap1\n  pop\n  jump\t// out\n    /* \"#utility.yul\":2314:2494   */\ntag_13:\n    /* \"#utility.yul\":2362:2439   */\n  0x4e487b7100000000000000000000000000000000000000000000000000000000\n    /* \"#utility.yul\":2359:2360   */\n  0x00\n    /* \"#utility.yul\":2352:2440   */\n  mstore\n    /* \"#utility.yul\":2459:2463   */\n  0x11\n    /* \"#utility.yul\":2456:2457   */\n  0x04\n    /* \"#utility.yul\":2449:2464   */\n  mstore\n    /* \"#utility.yul\":2483:2487   */\n  0x24\n    /* \"#utility.yul\":2480:2481   */\n  0x00\n    /* \"#utility.yul\":2473:2488   */\n  revert\n    /* \"#utility.yul\":2500:2602   */\ntag_16:\n    /* \"#utility.yul\":2542:2550   */\n  0x00\n    /* \"#utility.yul\":2589:2594   */\n  dup2\n    /* \"#utility.yul\":2586:2587   */\n  0x01\n    /* \"#utility.yul\":2582:2595   */\n  shr\n    /* \"#utility.yul\":2561:2595   */\n  swap1\n  pop\n    /* \"#utility.yul\":2500:2602   */\n  swap2\n  swap1\n  pop\n  jump\t// out\n    /* \"contract/HouseRegistryExt.sol\":129:1103  contract HouseRegistryExt is HouseRegistry {\r... */\ntag_4:\n  dataSize(sub_0)\n  dup1\n  dataOffset(sub_0)\n  0x00\n  codecopy\n  0x00\n  return\nstop\n\nsub_0: assembly {\n        /* \"contract/HouseRegistryExt.sol\":129:1103  contract HouseRegistryExt is HouseRegistry {\r... */\n      mstore(0x40, 0x80)\n      jumpi(tag_1, lt(calldatasize, 0x04))\n      shr(0xe0, calldataload(0x00))\n      dup1\n      0x4d79658b\n      gt\n      tag_9\n      jumpi\n      dup1\n      0x4d79658b\n      eq\n      tag_5\n      jumpi\n      dup1\n      0xaeda852f\n      eq\n      tag_6\n      jumpi\n      dup1\n      0xc45e1b25\n      eq\n      tag_7\n      jumpi\n      dup1\n      0xfdec9c9f\n      eq\n      tag_8\n      jumpi\n      jump(tag_1)\n    tag_9:\n      dup1\n      0x06e361bd\n      eq\n      tag_2\n      jumpi\n      dup1\n      0x19161161\n      eq\n      tag_3\n      jumpi\n      dup1\n      0x3c3b0b4a\n      eq\n      tag_4\n      jumpi\n    tag_1:\n      0x00\n      dup1\n      revert\n        /* \"contract/HouseRegistryExt.sol\":708:1100  function buyHouseWithDai(uint _houseId) external payable {\r... */\n    tag_2:\n      tag_10\n      0x04\n      dup1\n      calldatasize\n      sub\n      dup2\n      add\n      swap1\n      tag_11\n      swap2\n      swap1\n      tag_12\n      jump\t// in\n    tag_11:\n      tag_13\n      jump\t// in\n    tag_10:\n      stop\n        /* \"contract/HouseRegistry.sol\":919:1643  function listHouse (uint _price, uint _priceDai, uint _area, address _sellerAddress, string memory _houseAddress) public returns (uint) {... */\n    tag_3:\n      callvalue\n      dup1\n      iszero\n      tag_14\n      jumpi\n      0x00\n      dup1\n      revert\n    tag_14:\n      pop\n      tag_15\n      0x04\n      dup1\n      calldatasize\n      sub\n      dup2\n      add\n      swap1\n      tag_16\n      swap2\n      swap1\n      tag_17\n      jump\t// in\n    tag_16:\n      tag_18\n      jump\t// in\n    tag_15:\n      mload(0x40)\n      tag_19\n      swap2\n      swap1\n      tag_20\n      jump\t// in\n    tag_19:\n      mload(0x40)\n      dup1\n      swap2\n      sub\n      swap1\n      return\n        /* \"contract/HouseRegistry.sol\":1649:1918  function delistHouse(uint houseId) public returns (string memory){... */\n    tag_4:\n      callvalue\n      dup1\n      iszero\n      tag_21\n      jumpi\n      0x00\n      dup1\n      revert\n    tag_21:\n      pop\n      tag_22\n      0x04\n      dup1\n      calldatasize\n      sub\n      dup2\n      add\n      swap1\n      tag_23\n      swap2\n      swap1\n      tag_12\n      jump\t// in\n    tag_23:\n      tag_24\n      jump\t// in\n    tag_22:\n      mload(0x40)\n      tag_25\n      swap2\n      swap1\n      tag_26\n      jump\t// in\n    tag_25:\n      mload(0x40)\n      dup1\n      swap2\n      sub\n      swap1\n      return\n        /* \"contract/HouseRegistryExt.sol\":383:700  function buyHouseWithETH(uint _houseId) external payable{\r... */\n    tag_5:\n      tag_27\n      0x04\n      dup1\n      calldatasize\n      sub\n      dup2\n      add\n      swap1\n      tag_28\n      swap2\n      swap1\n      tag_12\n      jump\t// in\n    tag_28:\n      tag_29\n      jump\t// in\n    tag_27:\n      stop\n        /* \"contract/HouseRegistry.sol\":778:814  mapping(uint => House) public houses */\n    tag_6:\n      callvalue\n      dup1\n      iszero\n      tag_30\n      jumpi\n      0x00\n      dup1\n      revert\n    tag_30:\n      pop\n      tag_31\n      0x04\n      dup1\n      calldatasize\n      sub\n      dup2\n      add\n      swap1\n      tag_32\n      swap2\n      swap1\n      tag_12\n      jump\t// in\n    tag_32:\n      tag_33\n      jump\t// in\n    tag_31:\n      mload(0x40)\n      tag_34\n      swap10\n      swap9\n      swap8\n      swap7\n      swap6\n      swap5\n      swap4\n      swap3\n      swap2\n      swap1\n      tag_35\n      jump\t// in\n    tag_34:\n      mload(0x40)\n      dup1\n      swap2\n      sub\n      swap1\n      return\n        /* \"contract/HouseRegistry.sol\":1924:2462  function getCheapHouseIds(uint cost) external view returns (uint[]memory){... */\n    tag_7:\n      callvalue\n      dup1\n      iszero\n      tag_36\n      jumpi\n      0x00\n      dup1\n      revert\n    tag_36:\n      pop\n      tag_37\n      0x04\n      dup1\n      calldatasize\n      sub\n      dup2\n      add\n      swap1\n      tag_38\n      swap2\n      swap1\n      tag_12\n      jump\t// in\n    tag_38:\n      tag_39\n      jump\t// in\n    tag_37:\n      mload(0x40)\n      tag_40\n      swap2\n      swap1\n      tag_41\n      jump\t// in\n    tag_40:\n      mload(0x40)\n      dup1\n      swap2\n      sub\n      swap1\n      return\n        /* \"contract/HouseRegistryExt.sol\":183:377  function listHouseSimple(uint _price, uint _priceDai, uint _area, string memory _houseAddress) public canOwnerAdd{\r... */\n    tag_8:\n      callvalue\n      dup1\n      iszero\n      tag_42\n      jumpi\n      0x00\n      dup1\n      revert\n    tag_42:\n      pop\n      tag_43\n      0x04\n      dup1\n      calldatasize\n      sub\n      dup2\n      add\n      swap1\n      tag_44\n      swap2\n      swap1\n      tag_45\n      jump\t// in\n    tag_44:\n      tag_46\n      jump\t// in\n    tag_43:\n      stop\n        /* \"contract/HouseRegistryExt.sol\":708:1100  function buyHouseWithDai(uint _houseId) external payable {\r... */\n    tag_13:\n        /* \"contract/HouseRegistryExt.sol\":776:788  uint balance */\n      0x00\n        /* \"contract/HouseRegistryExt.sol\":798:840  0x9bF88fAe8CF8BaB76041c1db6467E7b37b977dD7 */\n      0x9bf88fae8cf8bab76041c1db6467e7b37b977dd7\n        /* \"contract/HouseRegistryExt.sol\":791:851  IERC20(0x9bF88fAe8CF8BaB76041c1db6467E7b37b977dD7).balanceOf */\n      0xffffffffffffffffffffffffffffffffffffffff\n      and\n      0x70a08231\n        /* \"contract/HouseRegistryExt.sol\":852:862  msg.sender */\n      caller\n        /* \"contract/HouseRegistryExt.sol\":791:863  IERC20(0x9bF88fAe8CF8BaB76041c1db6467E7b37b977dD7).balanceOf(msg.sender) */\n      mload(0x40)\n      dup3\n      0xffffffff\n      and\n      0xe0\n      shl\n      dup2\n      mstore\n      0x04\n      add\n      tag_48\n      swap2\n      swap1\n      tag_49\n      jump\t// in\n    tag_48:\n      0x20\n      mload(0x40)\n      dup1\n      dup4\n      sub\n      dup2\n      dup7\n      dup1\n      extcodesize\n      iszero\n      dup1\n      iszero\n      tag_50\n      jumpi\n      0x00\n      dup1\n      revert\n    tag_50:\n      pop\n      gas\n      staticcall\n      iszero\n      dup1\n      iszero\n      tag_52\n      jumpi\n      returndatasize\n      0x00\n      dup1\n      returndatacopy\n      revert(0x00, returndatasize)\n    tag_52:\n      pop\n      pop\n      pop\n      pop\n      mload(0x40)\n      returndatasize\n      not(0x1f)\n      0x1f\n      dup3\n      add\n      and\n      dup3\n      add\n      dup1\n      0x40\n      mstore\n      pop\n      dup2\n      add\n      swap1\n      tag_53\n      swap2\n      swap1\n      tag_54\n      jump\t// in\n    tag_53:\n        /* \"contract/HouseRegistryExt.sol\":776:863  uint balance = IERC20(0x9bF88fAe8CF8BaB76041c1db6467E7b37b977dD7).balanceOf(msg.sender) */\n      swap1\n      pop\n        /* \"contract/HouseRegistryExt.sol\":889:931  0x9bF88fAe8CF8BaB76041c1db6467E7b37b977dD7 */\n      0x9bf88fae8cf8bab76041c1db6467e7b37b977dd7\n        /* \"contract/HouseRegistryExt.sol\":882:945  IERC20(0x9bF88fAe8CF8BaB76041c1db6467E7b37b977dD7).transferFrom */\n      0xffffffffffffffffffffffffffffffffffffffff\n      and\n      0x23b872dd\n        /* \"contract/HouseRegistryExt.sol\":946:956  msg.sender */\n      caller\n        /* \"contract/HouseRegistryExt.sol\":958:964  houses */\n      0x06\n        /* \"contract/HouseRegistryExt.sol\":958:974  houses[_houseId] */\n      0x00\n        /* \"contract/HouseRegistryExt.sol\":965:973  _houseId */\n      dup7\n        /* \"contract/HouseRegistryExt.sol\":958:974  houses[_houseId] */\n      dup2\n      mstore\n      0x20\n      add\n      swap1\n      dup2\n      mstore\n      0x20\n      add\n      0x00\n      keccak256\n        /* \"contract/HouseRegistryExt.sol\":958:988  houses[_houseId].sellerAddress */\n      0x05\n      add\n      0x00\n      swap1\n      sload\n      swap1\n      0x0100\n      exp\n      swap1\n      div\n      0xffffffffffffffffffffffffffffffffffffffff\n      and\n        /* \"contract/HouseRegistryExt.sol\":990:996  houses */\n      0x06\n        /* \"contract/HouseRegistryExt.sol\":990:1006  houses[_houseId] */\n      0x00\n        /* \"contract/HouseRegistryExt.sol\":997:1005  _houseId */\n      dup8\n        /* \"contract/HouseRegistryExt.sol\":990:1006  houses[_houseId] */\n      dup2\n      mstore\n      0x20\n      add\n      swap1\n      dup2\n      mstore\n      0x20\n      add\n      0x00\n      keccak256\n        /* \"contract/HouseRegistryExt.sol\":990:1015  houses[_houseId].priceDai */\n      0x03\n      add\n      sload\n        /* \"contract/HouseRegistryExt.sol\":882:1016  IERC20(0x9bF88fAe8CF8BaB76041c1db6467E7b37b977dD7).transferFrom(msg.sender, houses[_houseId].sellerAddress, houses[_houseId].priceDai) */\n      mload(0x40)\n      dup5\n      0xffffffff\n      and\n      0xe0\n      shl\n      dup2\n      mstore\n      0x04\n      add\n      tag_55\n      swap4\n      swap3\n      swap2\n      swap1\n      tag_56\n      jump\t// in\n    tag_55:\n      0x20\n      mload(0x40)\n      dup1\n      dup4\n      sub\n      dup2\n      0x00\n      dup8\n      dup1\n      extcodesize\n      iszero\n      dup1\n      iszero\n      tag_57\n      jumpi\n      0x00\n      dup1\n      revert\n    tag_57:\n      pop\n      gas\n      call\n      iszero\n      dup1\n      iszero\n      tag_59\n      jumpi\n      returndatasize\n      0x00\n      dup1\n      returndatacopy\n      revert(0x00, returndatasize)\n    tag_59:\n      pop\n      pop\n      pop\n      pop\n      mload(0x40)\n      returndatasize\n      not(0x1f)\n      0x1f\n      dup3\n      add\n      and\n      dup3\n      add\n      dup1\n      0x40\n      mstore\n      pop\n      dup2\n      add\n      swap1\n      tag_60\n      swap2\n      swap1\n      tag_61\n      jump\t// in\n    tag_60:\n        /* \"contract/HouseRegistryExt.sol\":874:1039  require(IERC20(0x9bF88fAe8CF8BaB76041c1db6467E7b37b977dD7).transferFrom(msg.sender, houses[_houseId].sellerAddress, houses[_houseId].priceDai), \"Transaction failed\") */\n      tag_62\n      jumpi\n      mload(0x40)\n      0x08c379a000000000000000000000000000000000000000000000000000000000\n      dup2\n      mstore\n      0x04\n      add\n      tag_63\n      swap1\n      tag_64\n      jump\t// in\n    tag_63:\n      mload(0x40)\n      dup1\n      swap2\n      sub\n      swap1\n      revert\n    tag_62:\n        /* \"contract/HouseRegistryExt.sol\":1082:1092  msg.sender */\n      caller\n        /* \"contract/HouseRegistryExt.sol\":1050:1056  houses */\n      0x06\n        /* \"contract/HouseRegistryExt.sol\":1050:1066  houses[_houseId] */\n      0x00\n        /* \"contract/HouseRegistryExt.sol\":1057:1065  _houseId */\n      dup5\n        /* \"contract/HouseRegistryExt.sol\":1050:1066  houses[_houseId] */\n      dup2\n      mstore\n      0x20\n      add\n      swap1\n      dup2\n      mstore\n      0x20\n      add\n      0x00\n      keccak256\n        /* \"contract/HouseRegistryExt.sol\":1050:1079  houses[_houseId].buyerAddress */\n      0x06\n      add\n      0x00\n        /* \"contract/HouseRegistryExt.sol\":1050:1092  houses[_houseId].buyerAddress = msg.sender */\n      0x0100\n      exp\n      dup2\n      sload\n      dup2\n      0xffffffffffffffffffffffffffffffffffffffff\n      mul\n      not\n      and\n      swap1\n      dup4\n      0xffffffffffffffffffffffffffffffffffffffff\n      and\n      mul\n      or\n      swap1\n      sstore\n      pop\n        /* \"contract/HouseRegistryExt.sol\":765:1100  {\r... */\n      pop\n        /* \"contract/HouseRegistryExt.sol\":708:1100  function buyHouseWithDai(uint _houseId) external payable {\r... */\n      pop\n      jump\t// out\n        /* \"contract/HouseRegistry.sol\":919:1643  function listHouse (uint _price, uint _priceDai, uint _area, address _sellerAddress, string memory _houseAddress) public returns (uint) {... */\n    tag_18:\n        /* \"contract/HouseRegistry.sol\":1049:1053  uint */\n      0x00\n        /* \"contract/HouseRegistry.sol\":1090:1091  0 */\n      dup1\n        /* \"contract/HouseRegistry.sol\":1082:1087  _area */\n      dup5\n        /* \"contract/HouseRegistry.sol\":1073:1079  _price */\n      dup8\n        /* \"contract/HouseRegistry.sol\":1073:1087  _price * _area */\n      tag_66\n      swap2\n      swap1\n      tag_67\n      jump\t// in\n    tag_66:\n        /* \"contract/HouseRegistry.sol\":1073:1091  _price * _area > 0 */\n      gt\n        /* \"contract/HouseRegistry.sol\":1065:1116  require(_price * _area > 0, \"value cannot be null\") */\n      tag_68\n      jumpi\n      mload(0x40)\n      0x08c379a000000000000000000000000000000000000000000000000000000000\n      dup2\n      mstore\n      0x04\n      add\n      tag_69\n      swap1\n      tag_70\n      jump\t// in\n    tag_69:\n      mload(0x40)\n      dup1\n      swap2\n      sub\n      swap1\n      revert\n    tag_68:\n        /* \"contract/HouseRegistry.sol\":1126:1138  uint houseId */\n      0x00\n        /* \"contract/HouseRegistry.sol\":1141:1195  _generateHouseId(_sellerAddress, _area, _houseAddress) */\n      tag_71\n        /* \"contract/HouseRegistry.sol\":1158:1172  _sellerAddress */\n      dup5\n        /* \"contract/HouseRegistry.sol\":1174:1179  _area */\n      dup7\n        /* \"contract/HouseRegistry.sol\":1181:1194  _houseAddress */\n      dup6\n        /* \"contract/HouseRegistry.sol\":1141:1157  _generateHouseId */\n      tag_72\n        /* \"contract/HouseRegistry.sol\":1141:1195  _generateHouseId(_sellerAddress, _area, _houseAddress) */\n      jump\t// in\n    tag_71:\n        /* \"contract/HouseRegistry.sol\":1126:1195  uint houseId = _generateHouseId(_sellerAddress, _area, _houseAddress) */\n      swap1\n      pop\n        /* \"contract/HouseRegistry.sol\":1224:1230  houses */\n      0x06\n        /* \"contract/HouseRegistry.sol\":1224:1239  houses[houseId] */\n      0x00\n        /* \"contract/HouseRegistry.sol\":1231:1238  houseId */\n      dup3\n        /* \"contract/HouseRegistry.sol\":1224:1239  houses[houseId] */\n      dup2\n      mstore\n      0x20\n      add\n      swap1\n      dup2\n      mstore\n      0x20\n      add\n      0x00\n      keccak256\n        /* \"contract/HouseRegistry.sol\":1224:1242  houses[houseId].id */\n      0x00\n      add\n      sload\n        /* \"contract/HouseRegistry.sol\":1213:1220  houseId */\n      dup2\n        /* \"contract/HouseRegistry.sol\":1213:1242  houseId != houses[houseId].id */\n      eq\n      iszero\n        /* \"contract/HouseRegistry.sol\":1205:1274  require(houseId != houses[houseId].id, \"this houseId already exists\") */\n      tag_73\n      jumpi\n      mload(0x40)\n      0x08c379a000000000000000000000000000000000000000000000000000000000\n      dup2\n      mstore\n      0x04\n      add\n      tag_74\n      swap1\n      tag_75\n      jump\t// in\n    tag_74:\n      mload(0x40)\n      dup1\n      swap2\n      sub\n      swap1\n      revert\n    tag_73:\n        /* \"contract/HouseRegistry.sol\":1302:1411  House(houseId, countOfHouses, _price, _priceDai, _area, _sellerAddress, _sellerAddress, _houseAddress, false) */\n      mload(0x40)\n      dup1\n      0x0120\n      add\n      0x40\n      mstore\n      dup1\n        /* \"contract/HouseRegistry.sol\":1308:1315  houseId */\n      dup3\n        /* \"contract/HouseRegistry.sol\":1302:1411  House(houseId, countOfHouses, _price, _priceDai, _area, _sellerAddress, _sellerAddress, _houseAddress, false) */\n      dup2\n      mstore\n      0x20\n      add\n        /* \"contract/HouseRegistry.sol\":1317:1330  countOfHouses */\n      sload(0x03)\n        /* \"contract/HouseRegistry.sol\":1302:1411  House(houseId, countOfHouses, _price, _priceDai, _area, _sellerAddress, _sellerAddress, _houseAddress, false) */\n      dup2\n      mstore\n      0x20\n      add\n        /* \"contract/HouseRegistry.sol\":1332:1338  _price */\n      dup9\n        /* \"contract/HouseRegistry.sol\":1302:1411  House(houseId, countOfHouses, _price, _priceDai, _area, _sellerAddress, _sellerAddress, _houseAddress, false) */\n      dup2\n      mstore\n      0x20\n      add\n        /* \"contract/HouseRegistry.sol\":1340:1349  _priceDai */\n      dup8\n        /* \"contract/HouseRegistry.sol\":1302:1411  House(houseId, countOfHouses, _price, _priceDai, _area, _sellerAddress, _sellerAddress, _houseAddress, false) */\n      dup2\n      mstore\n      0x20\n      add\n        /* \"contract/HouseRegistry.sol\":1351:1356  _area */\n      dup7\n        /* \"contract/HouseRegistry.sol\":1302:1411  House(houseId, countOfHouses, _price, _priceDai, _area, _sellerAddress, _sellerAddress, _houseAddress, false) */\n      dup2\n      mstore\n      0x20\n      add\n        /* \"contract/HouseRegistry.sol\":1358:1372  _sellerAddress */\n      dup6\n        /* \"contract/HouseRegistry.sol\":1302:1411  House(houseId, countOfHouses, _price, _priceDai, _area, _sellerAddress, _sellerAddress, _houseAddress, false) */\n      0xffffffffffffffffffffffffffffffffffffffff\n      and\n      dup2\n      mstore\n      0x20\n      add\n        /* \"contract/HouseRegistry.sol\":1374:1388  _sellerAddress */\n      dup6\n        /* \"contract/HouseRegistry.sol\":1302:1411  House(houseId, countOfHouses, _price, _priceDai, _area, _sellerAddress, _sellerAddress, _houseAddress, false) */\n      0xffffffffffffffffffffffffffffffffffffffff\n      and\n      dup2\n      mstore\n      0x20\n      add\n        /* \"contract/HouseRegistry.sol\":1390:1403  _houseAddress */\n      dup5\n        /* \"contract/HouseRegistry.sol\":1302:1411  House(houseId, countOfHouses, _price, _priceDai, _area, _sellerAddress, _sellerAddress, _houseAddress, false) */\n      dup2\n      mstore\n      0x20\n      add\n        /* \"contract/HouseRegistry.sol\":1405:1410  false */\n      0x00\n        /* \"contract/HouseRegistry.sol\":1302:1411  House(houseId, countOfHouses, _price, _priceDai, _area, _sellerAddress, _sellerAddress, _houseAddress, false) */\n      iszero\n      iszero\n      dup2\n      mstore\n      pop\n        /* \"contract/HouseRegistry.sol\":1284:1290  houses */\n      0x06\n        /* \"contract/HouseRegistry.sol\":1284:1299  houses[houseId] */\n      0x00\n        /* \"contract/HouseRegistry.sol\":1291:1298  houseId */\n      dup4\n        /* \"contract/HouseRegistry.sol\":1284:1299  houses[houseId] */\n      dup2\n      mstore\n      0x20\n      add\n      swap1\n      dup2\n      mstore\n      0x20\n      add\n      0x00\n      keccak256\n        /* \"contract/HouseRegistry.sol\":1284:1411  houses[houseId] = House(houseId, countOfHouses, _price, _priceDai, _area, _sellerAddress, _sellerAddress, _houseAddress, false) */\n      0x00\n      dup3\n      add\n      mload\n      dup2\n      0x00\n      add\n      sstore\n      0x20\n      dup3\n      add\n      mload\n      dup2\n      0x01\n      add\n      sstore\n      0x40\n      dup3\n      add\n      mload\n      dup2\n      0x02\n      add\n      sstore\n      0x60\n      dup3\n      add\n      mload\n      dup2\n      0x03\n      add\n      sstore\n      0x80\n      dup3\n      add\n      mload\n      dup2\n      0x04\n      add\n      sstore\n      0xa0\n      dup3\n      add\n      mload\n      dup2\n      0x05\n      add\n      exp(0x0100, 0x00)\n      dup2\n      sload\n      dup2\n      0xffffffffffffffffffffffffffffffffffffffff\n      mul\n      not\n      and\n      swap1\n      dup4\n      0xffffffffffffffffffffffffffffffffffffffff\n      and\n      mul\n      or\n      swap1\n      sstore\n      pop\n      0xc0\n      dup3\n      add\n      mload\n      dup2\n      0x06\n      add\n      exp(0x0100, 0x00)\n      dup2\n      sload\n      dup2\n      0xffffffffffffffffffffffffffffffffffffffff\n      mul\n      not\n      and\n      swap1\n      dup4\n      0xffffffffffffffffffffffffffffffffffffffff\n      and\n      mul\n      or\n      swap1\n      sstore\n      pop\n      0xe0\n      dup3\n      add\n      mload\n      dup2\n      0x07\n      add\n      swap1\n      dup1\n      mload\n      swap1\n      0x20\n      add\n      swap1\n      tag_76\n      swap3\n      swap2\n      swap1\n      tag_77\n      jump\t// in\n    tag_76:\n      pop\n      0x0100\n      dup3\n      add\n      mload\n      dup2\n      0x08\n      add\n      exp(0x0100, 0x00)\n      dup2\n      sload\n      dup2\n      0xff\n      mul\n      not\n      and\n      swap1\n      dup4\n      iszero\n      iszero\n      mul\n      or\n      swap1\n      sstore\n      pop\n      swap1\n      pop\n      pop\n        /* \"contract/HouseRegistry.sol\":1422:1468  _ownerCooldown(block.timestamp + cooldownTime) */\n      tag_78\n        /* \"contract/HouseRegistry.sol\":1455:1467  cooldownTime */\n      sload(0x02)\n        /* \"contract/HouseRegistry.sol\":1437:1452  block.timestamp */\n      timestamp\n        /* \"contract/HouseRegistry.sol\":1437:1467  block.timestamp + cooldownTime */\n      tag_79\n      swap2\n      swap1\n      tag_80\n      jump\t// in\n    tag_79:\n        /* \"contract/HouseRegistry.sol\":1422:1436  _ownerCooldown */\n      tag_81\n        /* \"contract/HouseRegistry.sol\":1422:1468  _ownerCooldown(block.timestamp + cooldownTime) */\n      jump\t// in\n    tag_78:\n        /* \"contract/HouseRegistry.sol\":1478:1488  houseIndex */\n      0x05\n        /* \"contract/HouseRegistry.sol\":1494:1501  houseId */\n      dup2\n        /* \"contract/HouseRegistry.sol\":1478:1502  houseIndex.push(houseId) */\n      swap1\n      dup1\n      0x01\n      dup2\n      sload\n      add\n      dup1\n      dup3\n      sstore\n      dup1\n      swap2\n      pop\n      pop\n      0x01\n      swap1\n      sub\n      swap1\n      0x00\n      mstore\n      keccak256(0x00, 0x20)\n      add\n      0x00\n      swap1\n      swap2\n      swap1\n      swap2\n      swap1\n      swap2\n      pop\n      sstore\n        /* \"contract/HouseRegistry.sol\":1512:1525  countOfHouses */\n      0x03\n      0x00\n        /* \"contract/HouseRegistry.sol\":1512:1527  countOfHouses++ */\n      dup2\n      sload\n      dup1\n      swap3\n      swap2\n      swap1\n      tag_83\n      swap1\n      tag_84\n      jump\t// in\n    tag_83:\n      swap2\n      swap1\n      pop\n      sstore\n      pop\n        /* \"contract/HouseRegistry.sol\":1542:1612  AddNewHouse(houseId, _sellerAddress, _price, _priceDai, _houseAddress) */\n      0x3070c472a527c6fdf9d1d29d3f8de3f74a2de6ef97db5cc15b587188b278951f\n        /* \"contract/HouseRegistry.sol\":1554:1561  houseId */\n      dup2\n        /* \"contract/HouseRegistry.sol\":1563:1577  _sellerAddress */\n      dup6\n        /* \"contract/HouseRegistry.sol\":1579:1585  _price */\n      dup10\n        /* \"contract/HouseRegistry.sol\":1587:1596  _priceDai */\n      dup10\n        /* \"contract/HouseRegistry.sol\":1598:1611  _houseAddress */\n      dup8\n        /* \"contract/HouseRegistry.sol\":1542:1612  AddNewHouse(houseId, _sellerAddress, _price, _priceDai, _houseAddress) */\n      mload(0x40)\n      tag_85\n      swap6\n      swap5\n      swap4\n      swap3\n      swap2\n      swap1\n      tag_86\n      jump\t// in\n    tag_85:\n      mload(0x40)\n      dup1\n      swap2\n      sub\n      swap1\n      log1\n        /* \"contract/HouseRegistry.sol\":1629:1636  houseId */\n      dup1\n        /* \"contract/HouseRegistry.sol\":1622:1636  return houseId */\n      swap2\n      pop\n      pop\n        /* \"contract/HouseRegistry.sol\":919:1643  function listHouse (uint _price, uint _priceDai, uint _area, address _sellerAddress, string memory _houseAddress) public returns (uint) {... */\n      swap6\n      swap5\n      pop\n      pop\n      pop\n      pop\n      pop\n      jump\t// out\n        /* \"contract/HouseRegistry.sol\":1649:1918  function delistHouse(uint houseId) public returns (string memory){... */\n    tag_24:\n        /* \"contract/HouseRegistry.sol\":1700:1713  string memory */\n      0x60\n        /* \"contract/HouseRegistry.sol\":1765:1775  msg.sender */\n      caller\n        /* \"contract/HouseRegistry.sol\":1732:1775  houses[houseId].sellerAddress == msg.sender */\n      0xffffffffffffffffffffffffffffffffffffffff\n      and\n        /* \"contract/HouseRegistry.sol\":1732:1738  houses */\n      0x06\n        /* \"contract/HouseRegistry.sol\":1732:1747  houses[houseId] */\n      0x00\n        /* \"contract/HouseRegistry.sol\":1739:1746  houseId */\n      dup5\n        /* \"contract/HouseRegistry.sol\":1732:1747  houses[houseId] */\n      dup2\n      mstore\n      0x20\n      add\n      swap1\n      dup2\n      mstore\n      0x20\n      add\n      0x00\n      keccak256\n        /* \"contract/HouseRegistry.sol\":1732:1761  houses[houseId].sellerAddress */\n      0x05\n      add\n      0x00\n      swap1\n      sload\n      swap1\n      0x0100\n      exp\n      swap1\n      div\n      0xffffffffffffffffffffffffffffffffffffffff\n      and\n        /* \"contract/HouseRegistry.sol\":1732:1775  houses[houseId].sellerAddress == msg.sender */\n      0xffffffffffffffffffffffffffffffffffffffff\n      and\n      eq\n        /* \"contract/HouseRegistry.sol\":1724:1823  require(houses[houseId].sellerAddress == msg.sender, \"You do not have access to delete this house\") */\n      tag_88\n      jumpi\n      mload(0x40)\n      0x08c379a000000000000000000000000000000000000000000000000000000000\n      dup2\n      mstore\n      0x04\n      add\n      tag_89\n      swap1\n      tag_90\n      jump\t// in\n    tag_89:\n      mload(0x40)\n      dup1\n      swap2\n      sub\n      swap1\n      revert\n    tag_88:\n        /* \"contract/HouseRegistry.sol\":1867:1871  true */\n      0x01\n        /* \"contract/HouseRegistry.sol\":1833:1839  houses */\n      0x06\n        /* \"contract/HouseRegistry.sol\":1833:1848  houses[houseId] */\n      0x00\n        /* \"contract/HouseRegistry.sol\":1840:1847  houseId */\n      dup5\n        /* \"contract/HouseRegistry.sol\":1833:1848  houses[houseId] */\n      dup2\n      mstore\n      0x20\n      add\n      swap1\n      dup2\n      mstore\n      0x20\n      add\n      0x00\n      keccak256\n        /* \"contract/HouseRegistry.sol\":1833:1864  houses[houseId].isdelistedHouse */\n      0x08\n      add\n      0x00\n        /* \"contract/HouseRegistry.sol\":1833:1871  houses[houseId].isdelistedHouse = true */\n      0x0100\n      exp\n      dup2\n      sload\n      dup2\n      0xff\n      mul\n      not\n      and\n      swap1\n      dup4\n      iszero\n      iszero\n      mul\n      or\n      swap1\n      sstore\n      pop\n        /* \"contract/HouseRegistry.sol\":1881:1911  return \"delist was successful\" */\n      mload(0x40)\n      dup1\n      0x40\n      add\n      0x40\n      mstore\n      dup1\n      0x15\n      dup2\n      mstore\n      0x20\n      add\n      0x64656c69737420776173207375636365737366756c0000000000000000000000\n      dup2\n      mstore\n      pop\n      swap1\n      pop\n        /* \"contract/HouseRegistry.sol\":1649:1918  function delistHouse(uint houseId) public returns (string memory){... */\n      swap2\n      swap1\n      pop\n      jump\t// out\n        /* \"contract/HouseRegistryExt.sol\":383:700  function buyHouseWithETH(uint _houseId) external payable{\r... */\n    tag_29:\n        /* \"contract/HouseRegistryExt.sol\":471:477  houses */\n      0x06\n        /* \"contract/HouseRegistryExt.sol\":471:487  houses[_houseId] */\n      0x00\n        /* \"contract/HouseRegistryExt.sol\":478:486  _houseId */\n      dup3\n        /* \"contract/HouseRegistryExt.sol\":471:487  houses[_houseId] */\n      dup2\n      mstore\n      0x20\n      add\n      swap1\n      dup2\n      mstore\n      0x20\n      add\n      0x00\n      keccak256\n        /* \"contract/HouseRegistryExt.sol\":471:493  houses[_houseId].price */\n      0x02\n      add\n      sload\n        /* \"contract/HouseRegistryExt.sol\":458:467  msg.value */\n      callvalue\n        /* \"contract/HouseRegistryExt.sol\":458:493  msg.value >= houses[_houseId].price */\n      lt\n      iszero\n        /* \"contract/HouseRegistryExt.sol\":450:494  require(msg.value >= houses[_houseId].price) */\n      tag_92\n      jumpi\n      0x00\n      dup1\n      revert\n    tag_92:\n        /* \"contract/HouseRegistryExt.sol\":513:523  msg.sender */\n      caller\n        /* \"contract/HouseRegistryExt.sol\":505:533  payable(msg.sender).transfer */\n      0xffffffffffffffffffffffffffffffffffffffff\n      and\n        /* \"contract/HouseRegistryExt.sol\":505:569  payable(msg.sender).transfer(msg.value - houses[_houseId].price) */\n      0x08fc\n        /* \"contract/HouseRegistryExt.sol\":546:552  houses */\n      0x06\n        /* \"contract/HouseRegistryExt.sol\":546:562  houses[_houseId] */\n      0x00\n        /* \"contract/HouseRegistryExt.sol\":553:561  _houseId */\n      dup5\n        /* \"contract/HouseRegistryExt.sol\":546:562  houses[_houseId] */\n      dup2\n      mstore\n      0x20\n      add\n      swap1\n      dup2\n      mstore\n      0x20\n      add\n      0x00\n      keccak256\n        /* \"contract/HouseRegistryExt.sol\":546:568  houses[_houseId].price */\n      0x02\n      add\n      sload\n        /* \"contract/HouseRegistryExt.sol\":534:543  msg.value */\n      callvalue\n        /* \"contract/HouseRegistryExt.sol\":534:568  msg.value - houses[_houseId].price */\n      tag_93\n      swap2\n      swap1\n      tag_94\n      jump\t// in\n    tag_93:\n        /* \"contract/HouseRegistryExt.sol\":505:569  payable(msg.sender).transfer(msg.value - houses[_houseId].price) */\n      swap1\n      dup2\n      iszero\n      mul\n      swap1\n      mload(0x40)\n      0x00\n      mload(0x40)\n      dup1\n      dup4\n      sub\n      dup2\n      dup6\n      dup9\n      dup9\n      call\n      swap4\n      pop\n      pop\n      pop\n      pop\n      iszero\n      dup1\n      iszero\n      tag_96\n      jumpi\n      returndatasize\n      0x00\n      dup1\n      returndatacopy\n      revert(0x00, returndatasize)\n    tag_96:\n      pop\n        /* \"contract/HouseRegistryExt.sol\":612:622  msg.sender */\n      caller\n        /* \"contract/HouseRegistryExt.sol\":580:586  houses */\n      0x06\n        /* \"contract/HouseRegistryExt.sol\":580:596  houses[_houseId] */\n      0x00\n        /* \"contract/HouseRegistryExt.sol\":587:595  _houseId */\n      dup4\n        /* \"contract/HouseRegistryExt.sol\":580:596  houses[_houseId] */\n      dup2\n      mstore\n      0x20\n      add\n      swap1\n      dup2\n      mstore\n      0x20\n      add\n      0x00\n      keccak256\n        /* \"contract/HouseRegistryExt.sol\":580:609  houses[_houseId].buyerAddress */\n      0x06\n      add\n      0x00\n        /* \"contract/HouseRegistryExt.sol\":580:622  houses[_houseId].buyerAddress = msg.sender */\n      0x0100\n      exp\n      dup2\n      sload\n      dup2\n      0xffffffffffffffffffffffffffffffffffffffff\n      mul\n      not\n      and\n      swap1\n      dup4\n      0xffffffffffffffffffffffffffffffffffffffff\n      and\n      mul\n      or\n      swap1\n      sstore\n      pop\n        /* \"contract/HouseRegistryExt.sol\":641:647  houses */\n      0x06\n        /* \"contract/HouseRegistryExt.sol\":641:657  houses[_houseId] */\n      0x00\n        /* \"contract/HouseRegistryExt.sol\":648:656  _houseId */\n      dup3\n        /* \"contract/HouseRegistryExt.sol\":641:657  houses[_houseId] */\n      dup2\n      mstore\n      0x20\n      add\n      swap1\n      dup2\n      mstore\n      0x20\n      add\n      0x00\n      keccak256\n        /* \"contract/HouseRegistryExt.sol\":641:671  houses[_houseId].sellerAddress */\n      0x05\n      add\n      0x00\n      swap1\n      sload\n      swap1\n      0x0100\n      exp\n      swap1\n      div\n      0xffffffffffffffffffffffffffffffffffffffff\n      and\n        /* \"contract/HouseRegistryExt.sol\":633:681  payable(houses[_houseId].sellerAddress).transfer */\n      0xffffffffffffffffffffffffffffffffffffffff\n      and\n        /* \"contract/HouseRegistryExt.sol\":633:692  payable(houses[_houseId].sellerAddress).transfer(msg.value) */\n      0x08fc\n        /* \"contract/HouseRegistryExt.sol\":682:691  msg.value */\n      callvalue\n        /* \"contract/HouseRegistryExt.sol\":633:692  payable(houses[_houseId].sellerAddress).transfer(msg.value) */\n      swap1\n      dup2\n      iszero\n      mul\n      swap1\n      mload(0x40)\n      0x00\n      mload(0x40)\n      dup1\n      dup4\n      sub\n      dup2\n      dup6\n      dup9\n      dup9\n      call\n      swap4\n      pop\n      pop\n      pop\n      pop\n      iszero\n      dup1\n      iszero\n      tag_98\n      jumpi\n      returndatasize\n      0x00\n      dup1\n      returndatacopy\n      revert(0x00, returndatasize)\n    tag_98:\n      pop\n        /* \"contract/HouseRegistryExt.sol\":383:700  function buyHouseWithETH(uint _houseId) external payable{\r... */\n      pop\n      jump\t// out\n        /* \"contract/HouseRegistry.sol\":778:814  mapping(uint => House) public houses */\n    tag_33:\n      mstore(0x20, 0x06)\n      dup1\n      0x00\n      mstore\n      keccak256(0x00, 0x40)\n      0x00\n      swap2\n      pop\n      swap1\n      pop\n      dup1\n      0x00\n      add\n      sload\n      swap1\n      dup1\n      0x01\n      add\n      sload\n      swap1\n      dup1\n      0x02\n      add\n      sload\n      swap1\n      dup1\n      0x03\n      add\n      sload\n      swap1\n      dup1\n      0x04\n      add\n      sload\n      swap1\n      dup1\n      0x05\n      add\n      0x00\n      swap1\n      sload\n      swap1\n      0x0100\n      exp\n      swap1\n      div\n      0xffffffffffffffffffffffffffffffffffffffff\n      and\n      swap1\n      dup1\n      0x06\n      add\n      0x00\n      swap1\n      sload\n      swap1\n      0x0100\n      exp\n      swap1\n      div\n      0xffffffffffffffffffffffffffffffffffffffff\n      and\n      swap1\n      dup1\n      0x07\n      add\n      dup1\n      sload\n      tag_99\n      swap1\n      tag_100\n      jump\t// in\n    tag_99:\n      dup1\n      0x1f\n      add\n      0x20\n      dup1\n      swap2\n      div\n      mul\n      0x20\n      add\n      mload(0x40)\n      swap1\n      dup2\n      add\n      0x40\n      mstore\n      dup1\n      swap3\n      swap2\n      swap1\n      dup2\n      dup2\n      mstore\n      0x20\n      add\n      dup3\n      dup1\n      sload\n      tag_101\n      swap1\n      tag_100\n      jump\t// in\n    tag_101:\n      dup1\n      iszero\n      tag_102\n      jumpi\n      dup1\n      0x1f\n      lt\n      tag_103\n      jumpi\n      0x0100\n      dup1\n      dup4\n      sload\n      div\n      mul\n      dup4\n      mstore\n      swap2\n      0x20\n      add\n      swap2\n      jump(tag_102)\n    tag_103:\n      dup3\n      add\n      swap2\n      swap1\n      0x00\n      mstore\n      keccak256(0x00, 0x20)\n      swap1\n    tag_104:\n      dup2\n      sload\n      dup2\n      mstore\n      swap1\n      0x01\n      add\n      swap1\n      0x20\n      add\n      dup1\n      dup4\n      gt\n      tag_104\n      jumpi\n      dup3\n      swap1\n      sub\n      0x1f\n      and\n      dup3\n      add\n      swap2\n    tag_102:\n      pop\n      pop\n      pop\n      pop\n      pop\n      swap1\n      dup1\n      0x08\n      add\n      0x00\n      swap1\n      sload\n      swap1\n      0x0100\n      exp\n      swap1\n      div\n      0xff\n      and\n      swap1\n      pop\n      dup10\n      jump\t// out\n        /* \"contract/HouseRegistry.sol\":1924:2462  function getCheapHouseIds(uint cost) external view returns (uint[]memory){... */\n    tag_39:\n        /* \"contract/HouseRegistry.sol\":1984:1996  uint[]memory */\n      0x60\n        /* \"contract/HouseRegistry.sol\":2007:2017  uint count */\n      0x00\n        /* \"contract/HouseRegistry.sol\":2035:2041  uint i */\n      dup1\n        /* \"contract/HouseRegistry.sol\":2031:2176  for(uint i = 0; i < houseIndex.length; i++){... */\n    tag_106:\n        /* \"contract/HouseRegistry.sol\":2051:2061  houseIndex */\n      0x05\n        /* \"contract/HouseRegistry.sol\":2051:2068  houseIndex.length */\n      dup1\n      sload\n      swap1\n      pop\n        /* \"contract/HouseRegistry.sol\":2047:2048  i */\n      dup2\n        /* \"contract/HouseRegistry.sol\":2047:2068  i < houseIndex.length */\n      lt\n        /* \"contract/HouseRegistry.sol\":2031:2176  for(uint i = 0; i < houseIndex.length; i++){... */\n      iszero\n      tag_107\n      jumpi\n        /* \"contract/HouseRegistry.sol\":2121:2125  cost */\n      dup4\n        /* \"contract/HouseRegistry.sol\":2091:2097  houses */\n      0x06\n        /* \"contract/HouseRegistry.sol\":2091:2112  houses[houseIndex[i]] */\n      0x00\n        /* \"contract/HouseRegistry.sol\":2098:2108  houseIndex */\n      0x05\n        /* \"contract/HouseRegistry.sol\":2109:2110  i */\n      dup5\n        /* \"contract/HouseRegistry.sol\":2098:2111  houseIndex[i] */\n      dup2\n      sload\n      dup2\n      lt\n      tag_109\n      jumpi\n      tag_110\n      tag_111\n      jump\t// in\n    tag_110:\n    tag_109:\n      swap1\n      0x00\n      mstore\n      keccak256(0x00, 0x20)\n      add\n      sload\n        /* \"contract/HouseRegistry.sol\":2091:2112  houses[houseIndex[i]] */\n      dup2\n      mstore\n      0x20\n      add\n      swap1\n      dup2\n      mstore\n      0x20\n      add\n      0x00\n      keccak256\n        /* \"contract/HouseRegistry.sol\":2091:2118  houses[houseIndex[i]].price */\n      0x02\n      add\n      sload\n        /* \"contract/HouseRegistry.sol\":2091:2125  houses[houseIndex[i]].price < cost */\n      lt\n        /* \"contract/HouseRegistry.sol\":2088:2166  if(houses[houseIndex[i]].price < cost){... */\n      iszero\n      tag_113\n      jumpi\n        /* \"contract/HouseRegistry.sol\":2144:2151  count++ */\n      dup2\n      dup1\n      tag_114\n      swap1\n      tag_84\n      jump\t// in\n    tag_114:\n      swap3\n      pop\n      pop\n        /* \"contract/HouseRegistry.sol\":2088:2166  if(houses[houseIndex[i]].price < cost){... */\n    tag_113:\n        /* \"contract/HouseRegistry.sol\":2070:2073  i++ */\n      dup1\n      dup1\n      tag_115\n      swap1\n      tag_84\n      jump\t// in\n    tag_115:\n      swap2\n      pop\n      pop\n        /* \"contract/HouseRegistry.sol\":2031:2176  for(uint i = 0; i < houseIndex.length; i++){... */\n      jump(tag_106)\n    tag_107:\n      pop\n        /* \"contract/HouseRegistry.sol\":2185:2213  uint[] memory filteredHouses */\n      0x00\n        /* \"contract/HouseRegistry.sol\":2227:2232  count */\n      dup2\n        /* \"contract/HouseRegistry.sol\":2216:2233  new uint[](count) */\n      0xffffffffffffffff\n      dup2\n      gt\n      iszero\n      tag_116\n      jumpi\n      tag_117\n      tag_118\n      jump\t// in\n    tag_117:\n    tag_116:\n      mload(0x40)\n      swap1\n      dup1\n      dup3\n      mstore\n      dup1\n      0x20\n      mul\n      0x20\n      add\n      dup3\n      add\n      0x40\n      mstore\n      dup1\n      iszero\n      tag_119\n      jumpi\n      dup2\n      0x20\n      add\n      0x20\n      dup3\n      mul\n      dup1\n      calldatasize\n      dup4\n      calldatacopy\n      dup1\n      dup3\n      add\n      swap2\n      pop\n      pop\n      swap1\n      pop\n    tag_119:\n      pop\n        /* \"contract/HouseRegistry.sol\":2185:2233  uint[] memory filteredHouses = new uint[](count) */\n      swap1\n      pop\n        /* \"contract/HouseRegistry.sol\":2247:2253  uint i */\n      0x00\n        /* \"contract/HouseRegistry.sol\":2243:2425  for(uint i = 0; i < houseIndex.length; i++){... */\n    tag_120:\n        /* \"contract/HouseRegistry.sol\":2263:2273  houseIndex */\n      0x05\n        /* \"contract/HouseRegistry.sol\":2263:2280  houseIndex.length */\n      dup1\n      sload\n      swap1\n      pop\n        /* \"contract/HouseRegistry.sol\":2259:2260  i */\n      dup2\n        /* \"contract/HouseRegistry.sol\":2259:2280  i < houseIndex.length */\n      lt\n        /* \"contract/HouseRegistry.sol\":2243:2425  for(uint i = 0; i < houseIndex.length; i++){... */\n      iszero\n      tag_121\n      jumpi\n        /* \"contract/HouseRegistry.sol\":2333:2337  cost */\n      dup5\n        /* \"contract/HouseRegistry.sol\":2303:2309  houses */\n      0x06\n        /* \"contract/HouseRegistry.sol\":2303:2324  houses[houseIndex[i]] */\n      0x00\n        /* \"contract/HouseRegistry.sol\":2310:2320  houseIndex */\n      0x05\n        /* \"contract/HouseRegistry.sol\":2321:2322  i */\n      dup5\n        /* \"contract/HouseRegistry.sol\":2310:2323  houseIndex[i] */\n      dup2\n      sload\n      dup2\n      lt\n      tag_123\n      jumpi\n      tag_124\n      tag_111\n      jump\t// in\n    tag_124:\n    tag_123:\n      swap1\n      0x00\n      mstore\n      keccak256(0x00, 0x20)\n      add\n      sload\n        /* \"contract/HouseRegistry.sol\":2303:2324  houses[houseIndex[i]] */\n      dup2\n      mstore\n      0x20\n      add\n      swap1\n      dup2\n      mstore\n      0x20\n      add\n      0x00\n      keccak256\n        /* \"contract/HouseRegistry.sol\":2303:2330  houses[houseIndex[i]].price */\n      0x02\n      add\n      sload\n        /* \"contract/HouseRegistry.sol\":2303:2337  houses[houseIndex[i]].price < cost */\n      lt\n        /* \"contract/HouseRegistry.sol\":2300:2415  if(houses[houseIndex[i]].price < cost){... */\n      iszero\n      tag_126\n      jumpi\n        /* \"contract/HouseRegistry.sol\":2376:2382  houses */\n      0x06\n        /* \"contract/HouseRegistry.sol\":2376:2397  houses[houseIndex[i]] */\n      0x00\n        /* \"contract/HouseRegistry.sol\":2383:2393  houseIndex */\n      0x05\n        /* \"contract/HouseRegistry.sol\":2394:2395  i */\n      dup4\n        /* \"contract/HouseRegistry.sol\":2383:2396  houseIndex[i] */\n      dup2\n      sload\n      dup2\n      lt\n      tag_127\n      jumpi\n      tag_128\n      tag_111\n      jump\t// in\n    tag_128:\n    tag_127:\n      swap1\n      0x00\n      mstore\n      keccak256(0x00, 0x20)\n      add\n      sload\n        /* \"contract/HouseRegistry.sol\":2376:2397  houses[houseIndex[i]] */\n      dup2\n      mstore\n      0x20\n      add\n      swap1\n      dup2\n      mstore\n      0x20\n      add\n      0x00\n      keccak256\n        /* \"contract/HouseRegistry.sol\":2376:2400  houses[houseIndex[i]].id */\n      0x00\n      add\n      sload\n        /* \"contract/HouseRegistry.sol\":2356:2370  filteredHouses */\n      dup3\n        /* \"contract/HouseRegistry.sol\":2371:2372  i */\n      dup3\n        /* \"contract/HouseRegistry.sol\":2356:2373  filteredHouses[i] */\n      dup2\n      mload\n      dup2\n      lt\n      tag_130\n      jumpi\n      tag_131\n      tag_111\n      jump\t// in\n    tag_131:\n    tag_130:\n      0x20\n      mul\n      0x20\n      add\n      add\n        /* \"contract/HouseRegistry.sol\":2356:2400  filteredHouses[i] = houses[houseIndex[i]].id */\n      dup2\n      dup2\n      mstore\n      pop\n      pop\n        /* \"contract/HouseRegistry.sol\":2300:2415  if(houses[houseIndex[i]].price < cost){... */\n    tag_126:\n        /* \"contract/HouseRegistry.sol\":2282:2285  i++ */\n      dup1\n      dup1\n      tag_132\n      swap1\n      tag_84\n      jump\t// in\n    tag_132:\n      swap2\n      pop\n      pop\n        /* \"contract/HouseRegistry.sol\":2243:2425  for(uint i = 0; i < houseIndex.length; i++){... */\n      jump(tag_120)\n    tag_121:\n      pop\n        /* \"contract/HouseRegistry.sol\":2441:2455  filteredHouses */\n      dup1\n        /* \"contract/HouseRegistry.sol\":2434:2455  return filteredHouses */\n      swap3\n      pop\n      pop\n      pop\n        /* \"contract/HouseRegistry.sol\":1924:2462  function getCheapHouseIds(uint cost) external view returns (uint[]memory){... */\n      swap2\n      swap1\n      pop\n      jump\t// out\n        /* \"contract/HouseRegistryExt.sol\":183:377  function listHouseSimple(uint _price, uint _priceDai, uint _area, string memory _houseAddress) public canOwnerAdd{\r... */\n    tag_46:\n        /* \"contract/HouseRegistry.sol\":555:570  block.timestamp */\n      timestamp\n        /* \"contract/HouseRegistry.sol\":535:551  ownerAddCooldown */\n      sload(0x04)\n        /* \"contract/HouseRegistry.sol\":535:570  ownerAddCooldown <= block.timestamp */\n      gt\n      iszero\n        /* \"contract/HouseRegistry.sol\":527:610  require(ownerAddCooldown <= block.timestamp, \"The owner cannot yet add a new home\") */\n      tag_134\n      jumpi\n      mload(0x40)\n      0x08c379a000000000000000000000000000000000000000000000000000000000\n      dup2\n      mstore\n      0x04\n      add\n      tag_135\n      swap1\n      tag_136\n      jump\t// in\n    tag_135:\n      mload(0x40)\n      dup1\n      swap2\n      sub\n      swap1\n      revert\n    tag_134:\n        /* \"contract/HouseRegistryExt.sol\":307:369  listHouse(_price, _priceDai, _area, msg.sender, _houseAddress) */\n      tag_138\n        /* \"contract/HouseRegistryExt.sol\":317:323  _price */\n      dup5\n        /* \"contract/HouseRegistryExt.sol\":325:334  _priceDai */\n      dup5\n        /* \"contract/HouseRegistryExt.sol\":336:341  _area */\n      dup5\n        /* \"contract/HouseRegistryExt.sol\":343:353  msg.sender */\n      caller\n        /* \"contract/HouseRegistryExt.sol\":355:368  _houseAddress */\n      dup6\n        /* \"contract/HouseRegistryExt.sol\":307:316  listHouse */\n      tag_18\n        /* \"contract/HouseRegistryExt.sol\":307:369  listHouse(_price, _priceDai, _area, msg.sender, _houseAddress) */\n      jump\t// in\n    tag_138:\n      pop\n        /* \"contract/HouseRegistryExt.sol\":183:377  function listHouseSimple(uint _price, uint _priceDai, uint _area, string memory _houseAddress) public canOwnerAdd{\r... */\n      pop\n      pop\n      pop\n      pop\n      jump\t// out\n        /* \"contract/HouseRegistry.sol\":2468:2722  function _generateHouseId(address _sellerAddress, uint _area, string memory _houseAddress) private view returns(uint){... */\n    tag_72:\n        /* \"contract/HouseRegistry.sol\":2580:2584  uint */\n      0x00\n        /* \"contract/HouseRegistry.sol\":2595:2607  uint houseId */\n      dup1\n        /* \"contract/HouseRegistry.sol\":2642:2656  _sellerAddress */\n      dup5\n        /* \"contract/HouseRegistry.sol\":2658:2663  _area */\n      dup5\n        /* \"contract/HouseRegistry.sol\":2665:2678  _houseAddress */\n      dup5\n        /* \"contract/HouseRegistry.sol\":2625:2679  abi.encodePacked(_sellerAddress, _area, _houseAddress) */\n      add(0x20, mload(0x40))\n      tag_140\n      swap4\n      swap3\n      swap2\n      swap1\n      tag_141\n      jump\t// in\n    tag_140:\n      mload(0x40)\n      0x20\n      dup2\n      dup4\n      sub\n      sub\n      dup2\n      mstore\n      swap1\n      0x40\n      mstore\n        /* \"contract/HouseRegistry.sol\":2615:2680  keccak256(abi.encodePacked(_sellerAddress, _area, _houseAddress)) */\n      dup1\n      mload\n      swap1\n      0x20\n      add\n      keccak256\n        /* \"contract/HouseRegistry.sol\":2610:2681  uint(keccak256(abi.encodePacked(_sellerAddress, _area, _houseAddress))) */\n      0x00\n      shr\n        /* \"contract/HouseRegistry.sol\":2595:2681  uint houseId = uint(keccak256(abi.encodePacked(_sellerAddress, _area, _houseAddress))) */\n      swap1\n      pop\n        /* \"contract/HouseRegistry.sol\":2708:2715  modulus */\n      sload(0x01)\n        /* \"contract/HouseRegistry.sol\":2698:2705  houseId */\n      dup2\n        /* \"contract/HouseRegistry.sol\":2698:2715  houseId % modulus */\n      tag_142\n      swap2\n      swap1\n      tag_143\n      jump\t// in\n    tag_142:\n        /* \"contract/HouseRegistry.sol\":2691:2715  return houseId % modulus */\n      swap2\n      pop\n      pop\n        /* \"contract/HouseRegistry.sol\":2468:2722  function _generateHouseId(address _sellerAddress, uint _area, string memory _houseAddress) private view returns(uint){... */\n      swap4\n      swap3\n      pop\n      pop\n      pop\n      jump\t// out\n        /* \"contract/HouseRegistry.sol\":821:913  function _ownerCooldown(uint _newTime) internal {... */\n    tag_81:\n        /* \"contract/HouseRegistry.sol\":898:906  _newTime */\n      dup1\n        /* \"contract/HouseRegistry.sol\":879:895  ownerAddCooldown */\n      0x04\n        /* \"contract/HouseRegistry.sol\":879:906  ownerAddCooldown = _newTime */\n      dup2\n      swap1\n      sstore\n      pop\n        /* \"contract/HouseRegistry.sol\":821:913  function _ownerCooldown(uint _newTime) internal {... */\n      pop\n      jump\t// out\n    tag_77:\n      dup3\n      dup1\n      sload\n      tag_145\n      swap1\n      tag_100\n      jump\t// in\n    tag_145:\n      swap1\n      0x00\n      mstore\n      keccak256(0x00, 0x20)\n      swap1\n      0x1f\n      add\n      0x20\n      swap1\n      div\n      dup2\n      add\n      swap3\n      dup3\n      tag_147\n      jumpi\n      0x00\n      dup6\n      sstore\n      jump(tag_146)\n    tag_147:\n      dup3\n      0x1f\n      lt\n      tag_148\n      jumpi\n      dup1\n      mload\n      not(0xff)\n      and\n      dup4\n      dup1\n      add\n      or\n      dup6\n      sstore\n      jump(tag_146)\n    tag_148:\n      dup3\n      dup1\n      add\n      0x01\n      add\n      dup6\n      sstore\n      dup3\n      iszero\n      tag_146\n      jumpi\n      swap2\n      dup3\n      add\n    tag_149:\n      dup3\n      dup2\n      gt\n      iszero\n      tag_150\n      jumpi\n      dup3\n      mload\n      dup3\n      sstore\n      swap2\n      0x20\n      add\n      swap2\n      swap1\n      0x01\n      add\n      swap1\n      jump(tag_149)\n    tag_150:\n    tag_146:\n      pop\n      swap1\n      pop\n      tag_151\n      swap2\n      swap1\n      tag_152\n      jump\t// in\n    tag_151:\n      pop\n      swap1\n      jump\t// out\n    tag_152:\n    tag_153:\n      dup1\n      dup3\n      gt\n      iszero\n      tag_154\n      jumpi\n      0x00\n      dup2\n      0x00\n      swap1\n      sstore\n      pop\n      0x01\n      add\n      jump(tag_153)\n    tag_154:\n      pop\n      swap1\n      jump\t// out\n        /* \"#utility.yul\":7:419   */\n    tag_156:\n        /* \"#utility.yul\":85:90   */\n      0x00\n        /* \"#utility.yul\":110:176   */\n      tag_158\n        /* \"#utility.yul\":126:175   */\n      tag_159\n        /* \"#utility.yul\":168:174   */\n      dup5\n        /* \"#utility.yul\":126:175   */\n      tag_160\n      jump\t// in\n    tag_159:\n        /* \"#utility.yul\":110:176   */\n      tag_161\n      jump\t// in\n    tag_158:\n        /* \"#utility.yul\":101:176   */\n      swap1\n      pop\n        /* \"#utility.yul\":199:205   */\n      dup3\n        /* \"#utility.yul\":192:197   */\n      dup2\n        /* \"#utility.yul\":185:206   */\n      mstore\n        /* \"#utility.yul\":237:241   */\n      0x20\n        /* \"#utility.yul\":230:235   */\n      dup2\n        /* \"#utility.yul\":226:242   */\n      add\n        /* \"#utility.yul\":275:278   */\n      dup5\n        /* \"#utility.yul\":266:272   */\n      dup5\n        /* \"#utility.yul\":261:264   */\n      dup5\n        /* \"#utility.yul\":257:273   */\n      add\n        /* \"#utility.yul\":254:279   */\n      gt\n        /* \"#utility.yul\":251:363   */\n      iszero\n      tag_162\n      jumpi\n        /* \"#utility.yul\":282:361   */\n      tag_163\n      tag_164\n      jump\t// in\n    tag_163:\n        /* \"#utility.yul\":251:363   */\n    tag_162:\n        /* \"#utility.yul\":372:413   */\n      tag_165\n        /* \"#utility.yul\":406:412   */\n      dup5\n        /* \"#utility.yul\":401:404   */\n      dup3\n        /* \"#utility.yul\":396:399   */\n      dup6\n        /* \"#utility.yul\":372:413   */\n      tag_166\n      jump\t// in\n    tag_165:\n        /* \"#utility.yul\":91:419   */\n      pop\n        /* \"#utility.yul\":7:419   */\n      swap4\n      swap3\n      pop\n      pop\n      pop\n      jump\t// out\n        /* \"#utility.yul\":425:564   */\n    tag_167:\n        /* \"#utility.yul\":471:476   */\n      0x00\n        /* \"#utility.yul\":509:515   */\n      dup2\n        /* \"#utility.yul\":496:516   */\n      calldataload\n        /* \"#utility.yul\":487:516   */\n      swap1\n      pop\n        /* \"#utility.yul\":525:558   */\n      tag_169\n        /* \"#utility.yul\":552:557   */\n      dup2\n        /* \"#utility.yul\":525:558   */\n      tag_170\n      jump\t// in\n    tag_169:\n        /* \"#utility.yul\":425:564   */\n      swap3\n      swap2\n      pop\n      pop\n      jump\t// out\n        /* \"#utility.yul\":570:707   */\n    tag_171:\n        /* \"#utility.yul\":624:629   */\n      0x00\n        /* \"#utility.yul\":655:661   */\n      dup2\n        /* \"#utility.yul\":649:662   */\n      mload\n        /* \"#utility.yul\":640:662   */\n      swap1\n      pop\n        /* \"#utility.yul\":671:701   */\n      tag_173\n        /* \"#utility.yul\":695:700   */\n      dup2\n        /* \"#utility.yul\":671:701   */\n      tag_174\n      jump\t// in\n    tag_173:\n        /* \"#utility.yul\":570:707   */\n      swap3\n      swap2\n      pop\n      pop\n      jump\t// out\n        /* \"#utility.yul\":727:1067   */\n    tag_175:\n        /* \"#utility.yul\":783:788   */\n      0x00\n        /* \"#utility.yul\":832:835   */\n      dup3\n        /* \"#utility.yul\":825:829   */\n      0x1f\n        /* \"#utility.yul\":817:823   */\n      dup4\n        /* \"#utility.yul\":813:830   */\n      add\n        /* \"#utility.yul\":809:836   */\n      slt\n        /* \"#utility.yul\":799:921   */\n      tag_177\n      jumpi\n        /* \"#utility.yul\":840:919   */\n      tag_178\n      tag_179\n      jump\t// in\n    tag_178:\n        /* \"#utility.yul\":799:921   */\n    tag_177:\n        /* \"#utility.yul\":957:963   */\n      dup2\n        /* \"#utility.yul\":944:964   */\n      calldataload\n        /* \"#utility.yul\":982:1061   */\n      tag_180\n        /* \"#utility.yul\":1057:1060   */\n      dup5\n        /* \"#utility.yul\":1049:1055   */\n      dup3\n        /* \"#utility.yul\":1042:1046   */\n      0x20\n        /* \"#utility.yul\":1034:1040   */\n      dup7\n        /* \"#utility.yul\":1030:1047   */\n      add\n        /* \"#utility.yul\":982:1061   */\n      tag_156\n      jump\t// in\n    tag_180:\n        /* \"#utility.yul\":973:1061   */\n      swap2\n      pop\n        /* \"#utility.yul\":789:1067   */\n      pop\n        /* \"#utility.yul\":727:1067   */\n      swap3\n      swap2\n      pop\n      pop\n      jump\t// out\n        /* \"#utility.yul\":1073:1212   */\n    tag_181:\n        /* \"#utility.yul\":1119:1124   */\n      0x00\n        /* \"#utility.yul\":1157:1163   */\n      dup2\n        /* \"#utility.yul\":1144:1164   */\n      calldataload\n        /* \"#utility.yul\":1135:1164   */\n      swap1\n      pop\n        /* \"#utility.yul\":1173:1206   */\n      tag_183\n        /* \"#utility.yul\":1200:1205   */\n      dup2\n        /* \"#utility.yul\":1173:1206   */\n      tag_184\n      jump\t// in\n    tag_183:\n        /* \"#utility.yul\":1073:1212   */\n      swap3\n      swap2\n      pop\n      pop\n      jump\t// out\n        /* \"#utility.yul\":1218:1361   */\n    tag_185:\n        /* \"#utility.yul\":1275:1280   */\n      0x00\n        /* \"#utility.yul\":1306:1312   */\n      dup2\n        /* \"#utility.yul\":1300:1313   */\n      mload\n        /* \"#utility.yul\":1291:1313   */\n      swap1\n      pop\n        /* \"#utility.yul\":1322:1355   */\n      tag_187\n        /* \"#utility.yul\":1349:1354   */\n      dup2\n        /* \"#utility.yul\":1322:1355   */\n      tag_184\n      jump\t// in\n    tag_187:\n        /* \"#utility.yul\":1218:1361   */\n      swap3\n      swap2\n      pop\n      pop\n      jump\t// out\n        /* \"#utility.yul\":1367:1712   */\n    tag_61:\n        /* \"#utility.yul\":1434:1440   */\n      0x00\n        /* \"#utility.yul\":1483:1485   */\n      0x20\n        /* \"#utility.yul\":1471:1480   */\n      dup3\n        /* \"#utility.yul\":1462:1469   */\n      dup5\n        /* \"#utility.yul\":1458:1481   */\n      sub\n        /* \"#utility.yul\":1454:1486   */\n      slt\n        /* \"#utility.yul\":1451:1570   */\n      iszero\n      tag_189\n      jumpi\n        /* \"#utility.yul\":1489:1568   */\n      tag_190\n      tag_191\n      jump\t// in\n    tag_190:\n        /* \"#utility.yul\":1451:1570   */\n    tag_189:\n        /* \"#utility.yul\":1609:1610   */\n      0x00\n        /* \"#utility.yul\":1634:1695   */\n      tag_192\n        /* \"#utility.yul\":1687:1694   */\n      dup5\n        /* \"#utility.yul\":1678:1684   */\n      dup3\n        /* \"#utility.yul\":1667:1676   */\n      dup6\n        /* \"#utility.yul\":1663:1685   */\n      add\n        /* \"#utility.yul\":1634:1695   */\n      tag_171\n      jump\t// in\n    tag_192:\n        /* \"#utility.yul\":1624:1695   */\n      swap2\n      pop\n        /* \"#utility.yul\":1580:1705   */\n      pop\n        /* \"#utility.yul\":1367:1712   */\n      swap3\n      swap2\n      pop\n      pop\n      jump\t// out\n        /* \"#utility.yul\":1718:2047   */\n    tag_12:\n        /* \"#utility.yul\":1777:1783   */\n      0x00\n        /* \"#utility.yul\":1826:1828   */\n      0x20\n        /* \"#utility.yul\":1814:1823   */\n      dup3\n        /* \"#utility.yul\":1805:1812   */\n      dup5\n        /* \"#utility.yul\":1801:1824   */\n      sub\n        /* \"#utility.yul\":1797:1829   */\n      slt\n        /* \"#utility.yul\":1794:1913   */\n      iszero\n      tag_194\n      jumpi\n        /* \"#utility.yul\":1832:1911   */\n      tag_195\n      tag_191\n      jump\t// in\n    tag_195:\n        /* \"#utility.yul\":1794:1913   */\n    tag_194:\n        /* \"#utility.yul\":1952:1953   */\n      0x00\n        /* \"#utility.yul\":1977:2030   */\n      tag_196\n        /* \"#utility.yul\":2022:2029   */\n      dup5\n        /* \"#utility.yul\":2013:2019   */\n      dup3\n        /* \"#utility.yul\":2002:2011   */\n      dup6\n        /* \"#utility.yul\":1998:2020   */\n      add\n        /* \"#utility.yul\":1977:2030   */\n      tag_181\n      jump\t// in\n    tag_196:\n        /* \"#utility.yul\":1967:2030   */\n      swap2\n      pop\n        /* \"#utility.yul\":1923:2040   */\n      pop\n        /* \"#utility.yul\":1718:2047   */\n      swap3\n      swap2\n      pop\n      pop\n      jump\t// out\n        /* \"#utility.yul\":2053:2404   */\n    tag_54:\n        /* \"#utility.yul\":2123:2129   */\n      0x00\n        /* \"#utility.yul\":2172:2174   */\n      0x20\n        /* \"#utility.yul\":2160:2169   */\n      dup3\n        /* \"#utility.yul\":2151:2158   */\n      dup5\n        /* \"#utility.yul\":2147:2170   */\n      sub\n        /* \"#utility.yul\":2143:2175   */\n      slt\n        /* \"#utility.yul\":2140:2259   */\n      iszero\n      tag_198\n      jumpi\n        /* \"#utility.yul\":2178:2257   */\n      tag_199\n      tag_191\n      jump\t// in\n    tag_199:\n        /* \"#utility.yul\":2140:2259   */\n    tag_198:\n        /* \"#utility.yul\":2298:2299   */\n      0x00\n        /* \"#utility.yul\":2323:2387   */\n      tag_200\n        /* \"#utility.yul\":2379:2386   */\n      dup5\n        /* \"#utility.yul\":2370:2376   */\n      dup3\n        /* \"#utility.yul\":2359:2368   */\n      dup6\n        /* \"#utility.yul\":2355:2377   */\n      add\n        /* \"#utility.yul\":2323:2387   */\n      tag_185\n      jump\t// in\n    tag_200:\n        /* \"#utility.yul\":2313:2387   */\n      swap2\n      pop\n        /* \"#utility.yul\":2269:2397   */\n      pop\n        /* \"#utility.yul\":2053:2404   */\n      swap3\n      swap2\n      pop\n      pop\n      jump\t// out\n        /* \"#utility.yul\":2410:3501   */\n    tag_17:\n        /* \"#utility.yul\":2515:2521   */\n      0x00\n        /* \"#utility.yul\":2523:2529   */\n      dup1\n        /* \"#utility.yul\":2531:2537   */\n      0x00\n        /* \"#utility.yul\":2539:2545   */\n      dup1\n        /* \"#utility.yul\":2547:2553   */\n      0x00\n        /* \"#utility.yul\":2596:2599   */\n      0xa0\n        /* \"#utility.yul\":2584:2593   */\n      dup7\n        /* \"#utility.yul\":2575:2582   */\n      dup9\n        /* \"#utility.yul\":2571:2594   */\n      sub\n        /* \"#utility.yul\":2567:2600   */\n      slt\n        /* \"#utility.yul\":2564:2684   */\n      iszero\n      tag_202\n      jumpi\n        /* \"#utility.yul\":2603:2682   */\n      tag_203\n      tag_191\n      jump\t// in\n    tag_203:\n        /* \"#utility.yul\":2564:2684   */\n    tag_202:\n        /* \"#utility.yul\":2723:2724   */\n      0x00\n        /* \"#utility.yul\":2748:2801   */\n      tag_204\n        /* \"#utility.yul\":2793:2800   */\n      dup9\n        /* \"#utility.yul\":2784:2790   */\n      dup3\n        /* \"#utility.yul\":2773:2782   */\n      dup10\n        /* \"#utility.yul\":2769:2791   */\n      add\n        /* \"#utility.yul\":2748:2801   */\n      tag_181\n      jump\t// in\n    tag_204:\n        /* \"#utility.yul\":2738:2801   */\n      swap6\n      pop\n        /* \"#utility.yul\":2694:2811   */\n      pop\n        /* \"#utility.yul\":2850:2852   */\n      0x20\n        /* \"#utility.yul\":2876:2929   */\n      tag_205\n        /* \"#utility.yul\":2921:2928   */\n      dup9\n        /* \"#utility.yul\":2912:2918   */\n      dup3\n        /* \"#utility.yul\":2901:2910   */\n      dup10\n        /* \"#utility.yul\":2897:2919   */\n      add\n        /* \"#utility.yul\":2876:2929   */\n      tag_181\n      jump\t// in\n    tag_205:\n        /* \"#utility.yul\":2866:2929   */\n      swap5\n      pop\n        /* \"#utility.yul\":2821:2939   */\n      pop\n        /* \"#utility.yul\":2978:2980   */\n      0x40\n        /* \"#utility.yul\":3004:3057   */\n      tag_206\n        /* \"#utility.yul\":3049:3056   */\n      dup9\n        /* \"#utility.yul\":3040:3046   */\n      dup3\n        /* \"#utility.yul\":3029:3038   */\n      dup10\n        /* \"#utility.yul\":3025:3047   */\n      add\n        /* \"#utility.yul\":3004:3057   */\n      tag_181\n      jump\t// in\n    tag_206:\n        /* \"#utility.yul\":2994:3057   */\n      swap4\n      pop\n        /* \"#utility.yul\":2949:3067   */\n      pop\n        /* \"#utility.yul\":3106:3108   */\n      0x60\n        /* \"#utility.yul\":3132:3185   */\n      tag_207\n        /* \"#utility.yul\":3177:3184   */\n      dup9\n        /* \"#utility.yul\":3168:3174   */\n      dup3\n        /* \"#utility.yul\":3157:3166   */\n      dup10\n        /* \"#utility.yul\":3153:3175   */\n      add\n        /* \"#utility.yul\":3132:3185   */\n      tag_167\n      jump\t// in\n    tag_207:\n        /* \"#utility.yul\":3122:3185   */\n      swap3\n      pop\n        /* \"#utility.yul\":3077:3195   */\n      pop\n        /* \"#utility.yul\":3262:3265   */\n      0x80\n        /* \"#utility.yul\":3251:3260   */\n      dup7\n        /* \"#utility.yul\":3247:3266   */\n      add\n        /* \"#utility.yul\":3234:3267   */\n      calldataload\n        /* \"#utility.yul\":3294:3312   */\n      0xffffffffffffffff\n        /* \"#utility.yul\":3286:3292   */\n      dup2\n        /* \"#utility.yul\":3283:3313   */\n      gt\n        /* \"#utility.yul\":3280:3397   */\n      iszero\n      tag_208\n      jumpi\n        /* \"#utility.yul\":3316:3395   */\n      tag_209\n      tag_210\n      jump\t// in\n    tag_209:\n        /* \"#utility.yul\":3280:3397   */\n    tag_208:\n        /* \"#utility.yul\":3421:3484   */\n      tag_211\n        /* \"#utility.yul\":3476:3483   */\n      dup9\n        /* \"#utility.yul\":3467:3473   */\n      dup3\n        /* \"#utility.yul\":3456:3465   */\n      dup10\n        /* \"#utility.yul\":3452:3474   */\n      add\n        /* \"#utility.yul\":3421:3484   */\n      tag_175\n      jump\t// in\n    tag_211:\n        /* \"#utility.yul\":3411:3484   */\n      swap2\n      pop\n        /* \"#utility.yul\":3205:3494   */\n      pop\n        /* \"#utility.yul\":2410:3501   */\n      swap3\n      swap6\n      pop\n      swap3\n      swap6\n      swap1\n      swap4\n      pop\n      jump\t// out\n        /* \"#utility.yul\":3507:4452   */\n    tag_45:\n        /* \"#utility.yul\":3603:3609   */\n      0x00\n        /* \"#utility.yul\":3611:3617   */\n      dup1\n        /* \"#utility.yul\":3619:3625   */\n      0x00\n        /* \"#utility.yul\":3627:3633   */\n      dup1\n        /* \"#utility.yul\":3676:3679   */\n      0x80\n        /* \"#utility.yul\":3664:3673   */\n      dup6\n        /* \"#utility.yul\":3655:3662   */\n      dup8\n        /* \"#utility.yul\":3651:3674   */\n      sub\n        /* \"#utility.yul\":3647:3680   */\n      slt\n        /* \"#utility.yul\":3644:3764   */\n      iszero\n      tag_213\n      jumpi\n        /* \"#utility.yul\":3683:3762   */\n      tag_214\n      tag_191\n      jump\t// in\n    tag_214:\n        /* \"#utility.yul\":3644:3764   */\n    tag_213:\n        /* \"#utility.yul\":3803:3804   */\n      0x00\n        /* \"#utility.yul\":3828:3881   */\n      tag_215\n        /* \"#utility.yul\":3873:3880   */\n      dup8\n        /* \"#utility.yul\":3864:3870   */\n      dup3\n        /* \"#utility.yul\":3853:3862   */\n      dup9\n        /* \"#utility.yul\":3849:3871   */\n      add\n        /* \"#utility.yul\":3828:3881   */\n      tag_181\n      jump\t// in\n    tag_215:\n        /* \"#utility.yul\":3818:3881   */\n      swap5\n      pop\n        /* \"#utility.yul\":3774:3891   */\n      pop\n        /* \"#utility.yul\":3930:3932   */\n      0x20\n        /* \"#utility.yul\":3956:4009   */\n      tag_216\n        /* \"#utility.yul\":4001:4008   */\n      dup8\n        /* \"#utility.yul\":3992:3998   */\n      dup3\n        /* \"#utility.yul\":3981:3990   */\n      dup9\n        /* \"#utility.yul\":3977:3999   */\n      add\n        /* \"#utility.yul\":3956:4009   */\n      tag_181\n      jump\t// in\n    tag_216:\n        /* \"#utility.yul\":3946:4009   */\n      swap4\n      pop\n        /* \"#utility.yul\":3901:4019   */\n      pop\n        /* \"#utility.yul\":4058:4060   */\n      0x40\n        /* \"#utility.yul\":4084:4137   */\n      tag_217\n        /* \"#utility.yul\":4129:4136   */\n      dup8\n        /* \"#utility.yul\":4120:4126   */\n      dup3\n        /* \"#utility.yul\":4109:4118   */\n      dup9\n        /* \"#utility.yul\":4105:4127   */\n      add\n        /* \"#utility.yul\":4084:4137   */\n      tag_181\n      jump\t// in\n    tag_217:\n        /* \"#utility.yul\":4074:4137   */\n      swap3\n      pop\n        /* \"#utility.yul\":4029:4147   */\n      pop\n        /* \"#utility.yul\":4214:4216   */\n      0x60\n        /* \"#utility.yul\":4203:4212   */\n      dup6\n        /* \"#utility.yul\":4199:4217   */\n      add\n        /* \"#utility.yul\":4186:4218   */\n      calldataload\n        /* \"#utility.yul\":4245:4263   */\n      0xffffffffffffffff\n        /* \"#utility.yul\":4237:4243   */\n      dup2\n        /* \"#utility.yul\":4234:4264   */\n      gt\n        /* \"#utility.yul\":4231:4348   */\n      iszero\n      tag_218\n      jumpi\n        /* \"#utility.yul\":4267:4346   */\n      tag_219\n      tag_210\n      jump\t// in\n    tag_219:\n        /* \"#utility.yul\":4231:4348   */\n    tag_218:\n        /* \"#utility.yul\":4372:4435   */\n      tag_220\n        /* \"#utility.yul\":4427:4434   */\n      dup8\n        /* \"#utility.yul\":4418:4424   */\n      dup3\n        /* \"#utility.yul\":4407:4416   */\n      dup9\n        /* \"#utility.yul\":4403:4425   */\n      add\n        /* \"#utility.yul\":4372:4435   */\n      tag_175\n      jump\t// in\n    tag_220:\n        /* \"#utility.yul\":4362:4435   */\n      swap2\n      pop\n        /* \"#utility.yul\":4157:4445   */\n      pop\n        /* \"#utility.yul\":3507:4452   */\n      swap3\n      swap6\n      swap2\n      swap5\n      pop\n      swap3\n      pop\n      jump\t// out\n        /* \"#utility.yul\":4458:4637   */\n    tag_221:\n        /* \"#utility.yul\":4527:4537   */\n      0x00\n        /* \"#utility.yul\":4548:4594   */\n      tag_223\n        /* \"#utility.yul\":4590:4593   */\n      dup4\n        /* \"#utility.yul\":4582:4588   */\n      dup4\n        /* \"#utility.yul\":4548:4594   */\n      tag_224\n      jump\t// in\n    tag_223:\n        /* \"#utility.yul\":4626:4630   */\n      0x20\n        /* \"#utility.yul\":4621:4624   */\n      dup4\n        /* \"#utility.yul\":4617:4631   */\n      add\n        /* \"#utility.yul\":4603:4631   */\n      swap1\n      pop\n        /* \"#utility.yul\":4458:4637   */\n      swap3\n      swap2\n      pop\n      pop\n      jump\t// out\n        /* \"#utility.yul\":4643:4761   */\n    tag_225:\n        /* \"#utility.yul\":4730:4754   */\n      tag_227\n        /* \"#utility.yul\":4748:4753   */\n      dup2\n        /* \"#utility.yul\":4730:4754   */\n      tag_228\n      jump\t// in\n    tag_227:\n        /* \"#utility.yul\":4725:4728   */\n      dup3\n        /* \"#utility.yul\":4718:4755   */\n      mstore\n        /* \"#utility.yul\":4643:4761   */\n      pop\n      pop\n      jump\t// out\n        /* \"#utility.yul\":4767:4924   */\n    tag_229:\n        /* \"#utility.yul\":4872:4917   */\n      tag_231\n        /* \"#utility.yul\":4892:4916   */\n      tag_232\n        /* \"#utility.yul\":4910:4915   */\n      dup3\n        /* \"#utility.yul\":4892:4916   */\n      tag_228\n      jump\t// in\n    tag_232:\n        /* \"#utility.yul\":4872:4917   */\n      tag_233\n      jump\t// in\n    tag_231:\n        /* \"#utility.yul\":4867:4870   */\n      dup3\n        /* \"#utility.yul\":4860:4918   */\n      mstore\n        /* \"#utility.yul\":4767:4924   */\n      pop\n      pop\n      jump\t// out\n        /* \"#utility.yul\":4960:5692   */\n    tag_234:\n        /* \"#utility.yul\":5079:5082   */\n      0x00\n        /* \"#utility.yul\":5108:5162   */\n      tag_236\n        /* \"#utility.yul\":5156:5161   */\n      dup3\n        /* \"#utility.yul\":5108:5162   */\n      tag_237\n      jump\t// in\n    tag_236:\n        /* \"#utility.yul\":5178:5264   */\n      tag_238\n        /* \"#utility.yul\":5257:5263   */\n      dup2\n        /* \"#utility.yul\":5252:5255   */\n      dup6\n        /* \"#utility.yul\":5178:5264   */\n      tag_239\n      jump\t// in\n    tag_238:\n        /* \"#utility.yul\":5171:5264   */\n      swap4\n      pop\n        /* \"#utility.yul\":5288:5344   */\n      tag_240\n        /* \"#utility.yul\":5338:5343   */\n      dup4\n        /* \"#utility.yul\":5288:5344   */\n      tag_241\n      jump\t// in\n    tag_240:\n        /* \"#utility.yul\":5367:5374   */\n      dup1\n        /* \"#utility.yul\":5398:5399   */\n      0x00\n        /* \"#utility.yul\":5383:5667   */\n    tag_242:\n        /* \"#utility.yul\":5408:5414   */\n      dup4\n        /* \"#utility.yul\":5405:5406   */\n      dup2\n        /* \"#utility.yul\":5402:5415   */\n      lt\n        /* \"#utility.yul\":5383:5667   */\n      iszero\n      tag_244\n      jumpi\n        /* \"#utility.yul\":5484:5490   */\n      dup2\n        /* \"#utility.yul\":5478:5491   */\n      mload\n        /* \"#utility.yul\":5511:5574   */\n      tag_245\n        /* \"#utility.yul\":5570:5573   */\n      dup9\n        /* \"#utility.yul\":5555:5568   */\n      dup3\n        /* \"#utility.yul\":5511:5574   */\n      tag_221\n      jump\t// in\n    tag_245:\n        /* \"#utility.yul\":5504:5574   */\n      swap8\n      pop\n        /* \"#utility.yul\":5597:5657   */\n      tag_246\n        /* \"#utility.yul\":5650:5656   */\n      dup4\n        /* \"#utility.yul\":5597:5657   */\n      tag_247\n      jump\t// in\n    tag_246:\n        /* \"#utility.yul\":5587:5657   */\n      swap3\n      pop\n        /* \"#utility.yul\":5443:5667   */\n      pop\n        /* \"#utility.yul\":5430:5431   */\n      0x01\n        /* \"#utility.yul\":5427:5428   */\n      dup2\n        /* \"#utility.yul\":5423:5432   */\n      add\n        /* \"#utility.yul\":5418:5432   */\n      swap1\n      pop\n        /* \"#utility.yul\":5383:5667   */\n      jump(tag_242)\n    tag_244:\n        /* \"#utility.yul\":5387:5401   */\n      pop\n        /* \"#utility.yul\":5683:5686   */\n      dup6\n        /* \"#utility.yul\":5676:5686   */\n      swap4\n      pop\n        /* \"#utility.yul\":5084:5692   */\n      pop\n      pop\n      pop\n        /* \"#utility.yul\":4960:5692   */\n      swap3\n      swap2\n      pop\n      pop\n      jump\t// out\n        /* \"#utility.yul\":5698:5807   */\n    tag_248:\n        /* \"#utility.yul\":5779:5800   */\n      tag_250\n        /* \"#utility.yul\":5794:5799   */\n      dup2\n        /* \"#utility.yul\":5779:5800   */\n      tag_251\n      jump\t// in\n    tag_250:\n        /* \"#utility.yul\":5774:5777   */\n      dup3\n        /* \"#utility.yul\":5767:5801   */\n      mstore\n        /* \"#utility.yul\":5698:5807   */\n      pop\n      pop\n      jump\t// out\n        /* \"#utility.yul\":5813:6177   */\n    tag_252:\n        /* \"#utility.yul\":5901:5904   */\n      0x00\n        /* \"#utility.yul\":5929:5968   */\n      tag_254\n        /* \"#utility.yul\":5962:5967   */\n      dup3\n        /* \"#utility.yul\":5929:5968   */\n      tag_255\n      jump\t// in\n    tag_254:\n        /* \"#utility.yul\":5984:6055   */\n      tag_256\n        /* \"#utility.yul\":6048:6054   */\n      dup2\n        /* \"#utility.yul\":6043:6046   */\n      dup6\n        /* \"#utility.yul\":5984:6055   */\n      tag_257\n      jump\t// in\n    tag_256:\n        /* \"#utility.yul\":5977:6055   */\n      swap4\n      pop\n        /* \"#utility.yul\":6064:6116   */\n      tag_258\n        /* \"#utility.yul\":6109:6115   */\n      dup2\n        /* \"#utility.yul\":6104:6107   */\n      dup6\n        /* \"#utility.yul\":6097:6101   */\n      0x20\n        /* \"#utility.yul\":6090:6095   */\n      dup7\n        /* \"#utility.yul\":6086:6102   */\n      add\n        /* \"#utility.yul\":6064:6116   */\n      tag_259\n      jump\t// in\n    tag_258:\n        /* \"#utility.yul\":6141:6170   */\n      tag_260\n        /* \"#utility.yul\":6163:6169   */\n      dup2\n        /* \"#utility.yul\":6141:6170   */\n      tag_261\n      jump\t// in\n    tag_260:\n        /* \"#utility.yul\":6136:6139   */\n      dup5\n        /* \"#utility.yul\":6132:6171   */\n      add\n        /* \"#utility.yul\":6125:6171   */\n      swap2\n      pop\n        /* \"#utility.yul\":5905:6177   */\n      pop\n        /* \"#utility.yul\":5813:6177   */\n      swap3\n      swap2\n      pop\n      pop\n      jump\t// out\n        /* \"#utility.yul\":6183:6560   */\n    tag_262:\n        /* \"#utility.yul\":6289:6292   */\n      0x00\n        /* \"#utility.yul\":6317:6356   */\n      tag_264\n        /* \"#utility.yul\":6350:6355   */\n      dup3\n        /* \"#utility.yul\":6317:6356   */\n      tag_255\n      jump\t// in\n    tag_264:\n        /* \"#utility.yul\":6372:6461   */\n      tag_265\n        /* \"#utility.yul\":6454:6460   */\n      dup2\n        /* \"#utility.yul\":6449:6452   */\n      dup6\n        /* \"#utility.yul\":6372:6461   */\n      tag_266\n      jump\t// in\n    tag_265:\n        /* \"#utility.yul\":6365:6461   */\n      swap4\n      pop\n        /* \"#utility.yul\":6470:6522   */\n      tag_267\n        /* \"#utility.yul\":6515:6521   */\n      dup2\n        /* \"#utility.yul\":6510:6513   */\n      dup6\n        /* \"#utility.yul\":6503:6507   */\n      0x20\n        /* \"#utility.yul\":6496:6501   */\n      dup7\n        /* \"#utility.yul\":6492:6508   */\n      add\n        /* \"#utility.yul\":6470:6522   */\n      tag_259\n      jump\t// in\n    tag_267:\n        /* \"#utility.yul\":6547:6553   */\n      dup1\n        /* \"#utility.yul\":6542:6545   */\n      dup5\n        /* \"#utility.yul\":6538:6554   */\n      add\n        /* \"#utility.yul\":6531:6554   */\n      swap2\n      pop\n        /* \"#utility.yul\":6293:6560   */\n      pop\n        /* \"#utility.yul\":6183:6560   */\n      swap3\n      swap2\n      pop\n      pop\n      jump\t// out\n        /* \"#utility.yul\":6566:6932   */\n    tag_268:\n        /* \"#utility.yul\":6708:6711   */\n      0x00\n        /* \"#utility.yul\":6729:6796   */\n      tag_270\n        /* \"#utility.yul\":6793:6795   */\n      0x14\n        /* \"#utility.yul\":6788:6791   */\n      dup4\n        /* \"#utility.yul\":6729:6796   */\n      tag_257\n      jump\t// in\n    tag_270:\n        /* \"#utility.yul\":6722:6796   */\n      swap2\n      pop\n        /* \"#utility.yul\":6805:6898   */\n      tag_271\n        /* \"#utility.yul\":6894:6897   */\n      dup3\n        /* \"#utility.yul\":6805:6898   */\n      tag_272\n      jump\t// in\n    tag_271:\n        /* \"#utility.yul\":6923:6925   */\n      0x20\n        /* \"#utility.yul\":6918:6921   */\n      dup3\n        /* \"#utility.yul\":6914:6926   */\n      add\n        /* \"#utility.yul\":6907:6926   */\n      swap1\n      pop\n        /* \"#utility.yul\":6566:6932   */\n      swap2\n      swap1\n      pop\n      jump\t// out\n        /* \"#utility.yul\":6938:7304   */\n    tag_273:\n        /* \"#utility.yul\":7080:7083   */\n      0x00\n        /* \"#utility.yul\":7101:7168   */\n      tag_275\n        /* \"#utility.yul\":7165:7167   */\n      0x23\n        /* \"#utility.yul\":7160:7163   */\n      dup4\n        /* \"#utility.yul\":7101:7168   */\n      tag_257\n      jump\t// in\n    tag_275:\n        /* \"#utility.yul\":7094:7168   */\n      swap2\n      pop\n        /* \"#utility.yul\":7177:7270   */\n      tag_276\n        /* \"#utility.yul\":7266:7269   */\n      dup3\n        /* \"#utility.yul\":7177:7270   */\n      tag_277\n      jump\t// in\n    tag_276:\n        /* \"#utility.yul\":7295:7297   */\n      0x40\n        /* \"#utility.yul\":7290:7293   */\n      dup3\n        /* \"#utility.yul\":7286:7298   */\n      add\n        /* \"#utility.yul\":7279:7298   */\n      swap1\n      pop\n        /* \"#utility.yul\":6938:7304   */\n      swap2\n      swap1\n      pop\n      jump\t// out\n        /* \"#utility.yul\":7310:7676   */\n    tag_278:\n        /* \"#utility.yul\":7452:7455   */\n      0x00\n        /* \"#utility.yul\":7473:7540   */\n      tag_280\n        /* \"#utility.yul\":7537:7539   */\n      0x1b\n        /* \"#utility.yul\":7532:7535   */\n      dup4\n        /* \"#utility.yul\":7473:7540   */\n      tag_257\n      jump\t// in\n    tag_280:\n        /* \"#utility.yul\":7466:7540   */\n      swap2\n      pop\n        /* \"#utility.yul\":7549:7642   */\n      tag_281\n        /* \"#utility.yul\":7638:7641   */\n      dup3\n        /* \"#utility.yul\":7549:7642   */\n      tag_282\n      jump\t// in\n    tag_281:\n        /* \"#utility.yul\":7667:7669   */\n      0x20\n        /* \"#utility.yul\":7662:7665   */\n      dup3\n        /* \"#utility.yul\":7658:7670   */\n      add\n        /* \"#utility.yul\":7651:7670   */\n      swap1\n      pop\n        /* \"#utility.yul\":7310:7676   */\n      swap2\n      swap1\n      pop\n      jump\t// out\n        /* \"#utility.yul\":7682:8048   */\n    tag_283:\n        /* \"#utility.yul\":7824:7827   */\n      0x00\n        /* \"#utility.yul\":7845:7912   */\n      tag_285\n        /* \"#utility.yul\":7909:7911   */\n      0x12\n        /* \"#utility.yul\":7904:7907   */\n      dup4\n        /* \"#utility.yul\":7845:7912   */\n      tag_257\n      jump\t// in\n    tag_285:\n        /* \"#utility.yul\":7838:7912   */\n      swap2\n      pop\n        /* \"#utility.yul\":7921:8014   */\n      tag_286\n        /* \"#utility.yul\":8010:8013   */\n      dup3\n        /* \"#utility.yul\":7921:8014   */\n      tag_287\n      jump\t// in\n    tag_286:\n        /* \"#utility.yul\":8039:8041   */\n      0x20\n        /* \"#utility.yul\":8034:8037   */\n      dup3\n        /* \"#utility.yul\":8030:8042   */\n      add\n        /* \"#utility.yul\":8023:8042   */\n      swap1\n      pop\n        /* \"#utility.yul\":7682:8048   */\n      swap2\n      swap1\n      pop\n      jump\t// out\n        /* \"#utility.yul\":8054:8420   */\n    tag_288:\n        /* \"#utility.yul\":8196:8199   */\n      0x00\n        /* \"#utility.yul\":8217:8284   */\n      tag_290\n        /* \"#utility.yul\":8281:8283   */\n      0x2b\n        /* \"#utility.yul\":8276:8279   */\n      dup4\n        /* \"#utility.yul\":8217:8284   */\n      tag_257\n      jump\t// in\n    tag_290:\n        /* \"#utility.yul\":8210:8284   */\n      swap2\n      pop\n        /* \"#utility.yul\":8293:8386   */\n      tag_291\n        /* \"#utility.yul\":8382:8385   */\n      dup3\n        /* \"#utility.yul\":8293:8386   */\n      tag_292\n      jump\t// in\n    tag_291:\n        /* \"#utility.yul\":8411:8413   */\n      0x40\n        /* \"#utility.yul\":8406:8409   */\n      dup3\n        /* \"#utility.yul\":8402:8414   */\n      add\n        /* \"#utility.yul\":8395:8414   */\n      swap1\n      pop\n        /* \"#utility.yul\":8054:8420   */\n      swap2\n      swap1\n      pop\n      jump\t// out\n        /* \"#utility.yul\":8426:8534   */\n    tag_224:\n        /* \"#utility.yul\":8503:8527   */\n      tag_294\n        /* \"#utility.yul\":8521:8526   */\n      dup2\n        /* \"#utility.yul\":8503:8527   */\n      tag_295\n      jump\t// in\n    tag_294:\n        /* \"#utility.yul\":8498:8501   */\n      dup3\n        /* \"#utility.yul\":8491:8528   */\n      mstore\n        /* \"#utility.yul\":8426:8534   */\n      pop\n      pop\n      jump\t// out\n        /* \"#utility.yul\":8540:8658   */\n    tag_296:\n        /* \"#utility.yul\":8627:8651   */\n      tag_298\n        /* \"#utility.yul\":8645:8650   */\n      dup2\n        /* \"#utility.yul\":8627:8651   */\n      tag_295\n      jump\t// in\n    tag_298:\n        /* \"#utility.yul\":8622:8625   */\n      dup3\n        /* \"#utility.yul\":8615:8652   */\n      mstore\n        /* \"#utility.yul\":8540:8658   */\n      pop\n      pop\n      jump\t// out\n        /* \"#utility.yul\":8664:8821   */\n    tag_299:\n        /* \"#utility.yul\":8769:8814   */\n      tag_301\n        /* \"#utility.yul\":8789:8813   */\n      tag_302\n        /* \"#utility.yul\":8807:8812   */\n      dup3\n        /* \"#utility.yul\":8789:8813   */\n      tag_295\n      jump\t// in\n    tag_302:\n        /* \"#utility.yul\":8769:8814   */\n      tag_303\n      jump\t// in\n    tag_301:\n        /* \"#utility.yul\":8764:8767   */\n      dup3\n        /* \"#utility.yul\":8757:8815   */\n      mstore\n        /* \"#utility.yul\":8664:8821   */\n      pop\n      pop\n      jump\t// out\n        /* \"#utility.yul\":8827:9384   */\n    tag_141:\n        /* \"#utility.yul\":9015:9018   */\n      0x00\n        /* \"#utility.yul\":9030:9105   */\n      tag_305\n        /* \"#utility.yul\":9101:9104   */\n      dup3\n        /* \"#utility.yul\":9092:9098   */\n      dup7\n        /* \"#utility.yul\":9030:9105   */\n      tag_229\n      jump\t// in\n    tag_305:\n        /* \"#utility.yul\":9130:9132   */\n      0x14\n        /* \"#utility.yul\":9125:9128   */\n      dup3\n        /* \"#utility.yul\":9121:9133   */\n      add\n        /* \"#utility.yul\":9114:9133   */\n      swap2\n      pop\n        /* \"#utility.yul\":9143:9218   */\n      tag_306\n        /* \"#utility.yul\":9214:9217   */\n      dup3\n        /* \"#utility.yul\":9205:9211   */\n      dup6\n        /* \"#utility.yul\":9143:9218   */\n      tag_299\n      jump\t// in\n    tag_306:\n        /* \"#utility.yul\":9243:9245   */\n      0x20\n        /* \"#utility.yul\":9238:9241   */\n      dup3\n        /* \"#utility.yul\":9234:9246   */\n      add\n        /* \"#utility.yul\":9227:9246   */\n      swap2\n      pop\n        /* \"#utility.yul\":9263:9358   */\n      tag_307\n        /* \"#utility.yul\":9354:9357   */\n      dup3\n        /* \"#utility.yul\":9345:9351   */\n      dup5\n        /* \"#utility.yul\":9263:9358   */\n      tag_262\n      jump\t// in\n    tag_307:\n        /* \"#utility.yul\":9256:9358   */\n      swap2\n      pop\n        /* \"#utility.yul\":9375:9378   */\n      dup2\n        /* \"#utility.yul\":9368:9378   */\n      swap1\n      pop\n        /* \"#utility.yul\":8827:9384   */\n      swap5\n      swap4\n      pop\n      pop\n      pop\n      pop\n      jump\t// out\n        /* \"#utility.yul\":9390:9612   */\n    tag_49:\n        /* \"#utility.yul\":9483:9487   */\n      0x00\n        /* \"#utility.yul\":9521:9523   */\n      0x20\n        /* \"#utility.yul\":9510:9519   */\n      dup3\n        /* \"#utility.yul\":9506:9524   */\n      add\n        /* \"#utility.yul\":9498:9524   */\n      swap1\n      pop\n        /* \"#utility.yul\":9534:9605   */\n      tag_309\n        /* \"#utility.yul\":9602:9603   */\n      0x00\n        /* \"#utility.yul\":9591:9600   */\n      dup4\n        /* \"#utility.yul\":9587:9604   */\n      add\n        /* \"#utility.yul\":9578:9584   */\n      dup5\n        /* \"#utility.yul\":9534:9605   */\n      tag_225\n      jump\t// in\n    tag_309:\n        /* \"#utility.yul\":9390:9612   */\n      swap3\n      swap2\n      pop\n      pop\n      jump\t// out\n        /* \"#utility.yul\":9618:10060   */\n    tag_56:\n        /* \"#utility.yul\":9767:9771   */\n      0x00\n        /* \"#utility.yul\":9805:9807   */\n      0x60\n        /* \"#utility.yul\":9794:9803   */\n      dup3\n        /* \"#utility.yul\":9790:9808   */\n      add\n        /* \"#utility.yul\":9782:9808   */\n      swap1\n      pop\n        /* \"#utility.yul\":9818:9889   */\n      tag_311\n        /* \"#utility.yul\":9886:9887   */\n      0x00\n        /* \"#utility.yul\":9875:9884   */\n      dup4\n        /* \"#utility.yul\":9871:9888   */\n      add\n        /* \"#utility.yul\":9862:9868   */\n      dup7\n        /* \"#utility.yul\":9818:9889   */\n      tag_225\n      jump\t// in\n    tag_311:\n        /* \"#utility.yul\":9899:9971   */\n      tag_312\n        /* \"#utility.yul\":9967:9969   */\n      0x20\n        /* \"#utility.yul\":9956:9965   */\n      dup4\n        /* \"#utility.yul\":9952:9970   */\n      add\n        /* \"#utility.yul\":9943:9949   */\n      dup6\n        /* \"#utility.yul\":9899:9971   */\n      tag_225\n      jump\t// in\n    tag_312:\n        /* \"#utility.yul\":9981:10053   */\n      tag_313\n        /* \"#utility.yul\":10049:10051   */\n      0x40\n        /* \"#utility.yul\":10038:10047   */\n      dup4\n        /* \"#utility.yul\":10034:10052   */\n      add\n        /* \"#utility.yul\":10025:10031   */\n      dup5\n        /* \"#utility.yul\":9981:10053   */\n      tag_296\n      jump\t// in\n    tag_313:\n        /* \"#utility.yul\":9618:10060   */\n      swap5\n      swap4\n      pop\n      pop\n      pop\n      pop\n      jump\t// out\n        /* \"#utility.yul\":10066:10439   */\n    tag_41:\n        /* \"#utility.yul\":10209:10213   */\n      0x00\n        /* \"#utility.yul\":10247:10249   */\n      0x20\n        /* \"#utility.yul\":10236:10245   */\n      dup3\n        /* \"#utility.yul\":10232:10250   */\n      add\n        /* \"#utility.yul\":10224:10250   */\n      swap1\n      pop\n        /* \"#utility.yul\":10296:10305   */\n      dup2\n        /* \"#utility.yul\":10290:10294   */\n      dup2\n        /* \"#utility.yul\":10286:10306   */\n      sub\n        /* \"#utility.yul\":10282:10283   */\n      0x00\n        /* \"#utility.yul\":10271:10280   */\n      dup4\n        /* \"#utility.yul\":10267:10284   */\n      add\n        /* \"#utility.yul\":10260:10307   */\n      mstore\n        /* \"#utility.yul\":10324:10432   */\n      tag_315\n        /* \"#utility.yul\":10427:10431   */\n      dup2\n        /* \"#utility.yul\":10418:10424   */\n      dup5\n        /* \"#utility.yul\":10324:10432   */\n      tag_234\n      jump\t// in\n    tag_315:\n        /* \"#utility.yul\":10316:10432   */\n      swap1\n      pop\n        /* \"#utility.yul\":10066:10439   */\n      swap3\n      swap2\n      pop\n      pop\n      jump\t// out\n        /* \"#utility.yul\":10445:10758   */\n    tag_26:\n        /* \"#utility.yul\":10558:10562   */\n      0x00\n        /* \"#utility.yul\":10596:10598   */\n      0x20\n        /* \"#utility.yul\":10585:10594   */\n      dup3\n        /* \"#utility.yul\":10581:10599   */\n      add\n        /* \"#utility.yul\":10573:10599   */\n      swap1\n      pop\n        /* \"#utility.yul\":10645:10654   */\n      dup2\n        /* \"#utility.yul\":10639:10643   */\n      dup2\n        /* \"#utility.yul\":10635:10655   */\n      sub\n        /* \"#utility.yul\":10631:10632   */\n      0x00\n        /* \"#utility.yul\":10620:10629   */\n      dup4\n        /* \"#utility.yul\":10616:10633   */\n      add\n        /* \"#utility.yul\":10609:10656   */\n      mstore\n        /* \"#utility.yul\":10673:10751   */\n      tag_317\n        /* \"#utility.yul\":10746:10750   */\n      dup2\n        /* \"#utility.yul\":10737:10743   */\n      dup5\n        /* \"#utility.yul\":10673:10751   */\n      tag_252\n      jump\t// in\n    tag_317:\n        /* \"#utility.yul\":10665:10751   */\n      swap1\n      pop\n        /* \"#utility.yul\":10445:10758   */\n      swap3\n      swap2\n      pop\n      pop\n      jump\t// out\n        /* \"#utility.yul\":10764:11183   */\n    tag_70:\n        /* \"#utility.yul\":10930:10934   */\n      0x00\n        /* \"#utility.yul\":10968:10970   */\n      0x20\n        /* \"#utility.yul\":10957:10966   */\n      dup3\n        /* \"#utility.yul\":10953:10971   */\n      add\n        /* \"#utility.yul\":10945:10971   */\n      swap1\n      pop\n        /* \"#utility.yul\":11017:11026   */\n      dup2\n        /* \"#utility.yul\":11011:11015   */\n      dup2\n        /* \"#utility.yul\":11007:11027   */\n      sub\n        /* \"#utility.yul\":11003:11004   */\n      0x00\n        /* \"#utility.yul\":10992:11001   */\n      dup4\n        /* \"#utility.yul\":10988:11005   */\n      add\n        /* \"#utility.yul\":10981:11028   */\n      mstore\n        /* \"#utility.yul\":11045:11176   */\n      tag_319\n        /* \"#utility.yul\":11171:11175   */\n      dup2\n        /* \"#utility.yul\":11045:11176   */\n      tag_268\n      jump\t// in\n    tag_319:\n        /* \"#utility.yul\":11037:11176   */\n      swap1\n      pop\n        /* \"#utility.yul\":10764:11183   */\n      swap2\n      swap1\n      pop\n      jump\t// out\n        /* \"#utility.yul\":11189:11608   */\n    tag_136:\n        /* \"#utility.yul\":11355:11359   */\n      0x00\n        /* \"#utility.yul\":11393:11395   */\n      0x20\n        /* \"#utility.yul\":11382:11391   */\n      dup3\n        /* \"#utility.yul\":11378:11396   */\n      add\n        /* \"#utility.yul\":11370:11396   */\n      swap1\n      pop\n        /* \"#utility.yul\":11442:11451   */\n      dup2\n        /* \"#utility.yul\":11436:11440   */\n      dup2\n        /* \"#utility.yul\":11432:11452   */\n      sub\n        /* \"#utility.yul\":11428:11429   */\n      0x00\n        /* \"#utility.yul\":11417:11426   */\n      dup4\n        /* \"#utility.yul\":11413:11430   */\n      add\n        /* \"#utility.yul\":11406:11453   */\n      mstore\n        /* \"#utility.yul\":11470:11601   */\n      tag_321\n        /* \"#utility.yul\":11596:11600   */\n      dup2\n        /* \"#utility.yul\":11470:11601   */\n      tag_273\n      jump\t// in\n    tag_321:\n        /* \"#utility.yul\":11462:11601   */\n      swap1\n      pop\n        /* \"#utility.yul\":11189:11608   */\n      swap2\n      swap1\n      pop\n      jump\t// out\n        /* \"#utility.yul\":11614:12033   */\n    tag_75:\n        /* \"#utility.yul\":11780:11784   */\n      0x00\n        /* \"#utility.yul\":11818:11820   */\n      0x20\n        /* \"#utility.yul\":11807:11816   */\n      dup3\n        /* \"#utility.yul\":11803:11821   */\n      add\n        /* \"#utility.yul\":11795:11821   */\n      swap1\n      pop\n        /* \"#utility.yul\":11867:11876   */\n      dup2\n        /* \"#utility.yul\":11861:11865   */\n      dup2\n        /* \"#utility.yul\":11857:11877   */\n      sub\n        /* \"#utility.yul\":11853:11854   */\n      0x00\n        /* \"#utility.yul\":11842:11851   */\n      dup4\n        /* \"#utility.yul\":11838:11855   */\n      add\n        /* \"#utility.yul\":11831:11878   */\n      mstore\n        /* \"#utility.yul\":11895:12026   */\n      tag_323\n        /* \"#utility.yul\":12021:12025   */\n      dup2\n        /* \"#utility.yul\":11895:12026   */\n      tag_278\n      jump\t// in\n    tag_323:\n        /* \"#utility.yul\":11887:12026   */\n      swap1\n      pop\n        /* \"#utility.yul\":11614:12033   */\n      swap2\n      swap1\n      pop\n      jump\t// out\n        /* \"#utility.yul\":12039:12458   */\n    tag_64:\n        /* \"#utility.yul\":12205:12209   */\n      0x00\n        /* \"#utility.yul\":12243:12245   */\n      0x20\n        /* \"#utility.yul\":12232:12241   */\n      dup3\n        /* \"#utility.yul\":12228:12246   */\n      add\n        /* \"#utility.yul\":12220:12246   */\n      swap1\n      pop\n        /* \"#utility.yul\":12292:12301   */\n      dup2\n        /* \"#utility.yul\":12286:12290   */\n      dup2\n        /* \"#utility.yul\":12282:12302   */\n      sub\n        /* \"#utility.yul\":12278:12279   */\n      0x00\n        /* \"#utility.yul\":12267:12276   */\n      dup4\n        /* \"#utility.yul\":12263:12280   */\n      add\n        /* \"#utility.yul\":12256:12303   */\n      mstore\n        /* \"#utility.yul\":12320:12451   */\n      tag_325\n        /* \"#utility.yul\":12446:12450   */\n      dup2\n        /* \"#utility.yul\":12320:12451   */\n      tag_283\n      jump\t// in\n    tag_325:\n        /* \"#utility.yul\":12312:12451   */\n      swap1\n      pop\n        /* \"#utility.yul\":12039:12458   */\n      swap2\n      swap1\n      pop\n      jump\t// out\n        /* \"#utility.yul\":12464:12883   */\n    tag_90:\n        /* \"#utility.yul\":12630:12634   */\n      0x00\n        /* \"#utility.yul\":12668:12670   */\n      0x20\n        /* \"#utility.yul\":12657:12666   */\n      dup3\n        /* \"#utility.yul\":12653:12671   */\n      add\n        /* \"#utility.yul\":12645:12671   */\n      swap1\n      pop\n        /* \"#utility.yul\":12717:12726   */\n      dup2\n        /* \"#utility.yul\":12711:12715   */\n      dup2\n        /* \"#utility.yul\":12707:12727   */\n      sub\n        /* \"#utility.yul\":12703:12704   */\n      0x00\n        /* \"#utility.yul\":12692:12701   */\n      dup4\n        /* \"#utility.yul\":12688:12705   */\n      add\n        /* \"#utility.yul\":12681:12728   */\n      mstore\n        /* \"#utility.yul\":12745:12876   */\n      tag_327\n        /* \"#utility.yul\":12871:12875   */\n      dup2\n        /* \"#utility.yul\":12745:12876   */\n      tag_288\n      jump\t// in\n    tag_327:\n        /* \"#utility.yul\":12737:12876   */\n      swap1\n      pop\n        /* \"#utility.yul\":12464:12883   */\n      swap2\n      swap1\n      pop\n      jump\t// out\n        /* \"#utility.yul\":12889:13111   */\n    tag_20:\n        /* \"#utility.yul\":12982:12986   */\n      0x00\n        /* \"#utility.yul\":13020:13022   */\n      0x20\n        /* \"#utility.yul\":13009:13018   */\n      dup3\n        /* \"#utility.yul\":13005:13023   */\n      add\n        /* \"#utility.yul\":12997:13023   */\n      swap1\n      pop\n        /* \"#utility.yul\":13033:13104   */\n      tag_329\n        /* \"#utility.yul\":13101:13102   */\n      0x00\n        /* \"#utility.yul\":13090:13099   */\n      dup4\n        /* \"#utility.yul\":13086:13103   */\n      add\n        /* \"#utility.yul\":13077:13083   */\n      dup5\n        /* \"#utility.yul\":13033:13104   */\n      tag_296\n      jump\t// in\n    tag_329:\n        /* \"#utility.yul\":12889:13111   */\n      swap3\n      swap2\n      pop\n      pop\n      jump\t// out\n        /* \"#utility.yul\":13117:13872   */\n    tag_86:\n        /* \"#utility.yul\":13342:13346   */\n      0x00\n        /* \"#utility.yul\":13380:13383   */\n      0xa0\n        /* \"#utility.yul\":13369:13378   */\n      dup3\n        /* \"#utility.yul\":13365:13384   */\n      add\n        /* \"#utility.yul\":13357:13384   */\n      swap1\n      pop\n        /* \"#utility.yul\":13394:13465   */\n      tag_331\n        /* \"#utility.yul\":13462:13463   */\n      0x00\n        /* \"#utility.yul\":13451:13460   */\n      dup4\n        /* \"#utility.yul\":13447:13464   */\n      add\n        /* \"#utility.yul\":13438:13444   */\n      dup9\n        /* \"#utility.yul\":13394:13465   */\n      tag_296\n      jump\t// in\n    tag_331:\n        /* \"#utility.yul\":13475:13547   */\n      tag_332\n        /* \"#utility.yul\":13543:13545   */\n      0x20\n        /* \"#utility.yul\":13532:13541   */\n      dup4\n        /* \"#utility.yul\":13528:13546   */\n      add\n        /* \"#utility.yul\":13519:13525   */\n      dup8\n        /* \"#utility.yul\":13475:13547   */\n      tag_225\n      jump\t// in\n    tag_332:\n        /* \"#utility.yul\":13557:13629   */\n      tag_333\n        /* \"#utility.yul\":13625:13627   */\n      0x40\n        /* \"#utility.yul\":13614:13623   */\n      dup4\n        /* \"#utility.yul\":13610:13628   */\n      add\n        /* \"#utility.yul\":13601:13607   */\n      dup7\n        /* \"#utility.yul\":13557:13629   */\n      tag_296\n      jump\t// in\n    tag_333:\n        /* \"#utility.yul\":13639:13711   */\n      tag_334\n        /* \"#utility.yul\":13707:13709   */\n      0x60\n        /* \"#utility.yul\":13696:13705   */\n      dup4\n        /* \"#utility.yul\":13692:13710   */\n      add\n        /* \"#utility.yul\":13683:13689   */\n      dup6\n        /* \"#utility.yul\":13639:13711   */\n      tag_296\n      jump\t// in\n    tag_334:\n        /* \"#utility.yul\":13759:13768   */\n      dup2\n        /* \"#utility.yul\":13753:13757   */\n      dup2\n        /* \"#utility.yul\":13749:13769   */\n      sub\n        /* \"#utility.yul\":13743:13746   */\n      0x80\n        /* \"#utility.yul\":13732:13741   */\n      dup4\n        /* \"#utility.yul\":13728:13747   */\n      add\n        /* \"#utility.yul\":13721:13770   */\n      mstore\n        /* \"#utility.yul\":13787:13865   */\n      tag_335\n        /* \"#utility.yul\":13860:13864   */\n      dup2\n        /* \"#utility.yul\":13851:13857   */\n      dup5\n        /* \"#utility.yul\":13787:13865   */\n      tag_252\n      jump\t// in\n    tag_335:\n        /* \"#utility.yul\":13779:13865   */\n      swap1\n      pop\n        /* \"#utility.yul\":13117:13872   */\n      swap7\n      swap6\n      pop\n      pop\n      pop\n      pop\n      pop\n      pop\n      jump\t// out\n        /* \"#utility.yul\":13878:15065   */\n    tag_35:\n        /* \"#utility.yul\":14209:14213   */\n      0x00\n        /* \"#utility.yul\":14247:14250   */\n      0x0120\n        /* \"#utility.yul\":14236:14245   */\n      dup3\n        /* \"#utility.yul\":14232:14251   */\n      add\n        /* \"#utility.yul\":14224:14251   */\n      swap1\n      pop\n        /* \"#utility.yul\":14261:14332   */\n      tag_337\n        /* \"#utility.yul\":14329:14330   */\n      0x00\n        /* \"#utility.yul\":14318:14327   */\n      dup4\n        /* \"#utility.yul\":14314:14331   */\n      add\n        /* \"#utility.yul\":14305:14311   */\n      dup13\n        /* \"#utility.yul\":14261:14332   */\n      tag_296\n      jump\t// in\n    tag_337:\n        /* \"#utility.yul\":14342:14414   */\n      tag_338\n        /* \"#utility.yul\":14410:14412   */\n      0x20\n        /* \"#utility.yul\":14399:14408   */\n      dup4\n        /* \"#utility.yul\":14395:14413   */\n      add\n        /* \"#utility.yul\":14386:14392   */\n      dup12\n        /* \"#utility.yul\":14342:14414   */\n      tag_296\n      jump\t// in\n    tag_338:\n        /* \"#utility.yul\":14424:14496   */\n      tag_339\n        /* \"#utility.yul\":14492:14494   */\n      0x40\n        /* \"#utility.yul\":14481:14490   */\n      dup4\n        /* \"#utility.yul\":14477:14495   */\n      add\n        /* \"#utility.yul\":14468:14474   */\n      dup11\n        /* \"#utility.yul\":14424:14496   */\n      tag_296\n      jump\t// in\n    tag_339:\n        /* \"#utility.yul\":14506:14578   */\n      tag_340\n        /* \"#utility.yul\":14574:14576   */\n      0x60\n        /* \"#utility.yul\":14563:14572   */\n      dup4\n        /* \"#utility.yul\":14559:14577   */\n      add\n        /* \"#utility.yul\":14550:14556   */\n      dup10\n        /* \"#utility.yul\":14506:14578   */\n      tag_296\n      jump\t// in\n    tag_340:\n        /* \"#utility.yul\":14588:14661   */\n      tag_341\n        /* \"#utility.yul\":14656:14659   */\n      0x80\n        /* \"#utility.yul\":14645:14654   */\n      dup4\n        /* \"#utility.yul\":14641:14660   */\n      add\n        /* \"#utility.yul\":14632:14638   */\n      dup9\n        /* \"#utility.yul\":14588:14661   */\n      tag_296\n      jump\t// in\n    tag_341:\n        /* \"#utility.yul\":14671:14744   */\n      tag_342\n        /* \"#utility.yul\":14739:14742   */\n      0xa0\n        /* \"#utility.yul\":14728:14737   */\n      dup4\n        /* \"#utility.yul\":14724:14743   */\n      add\n        /* \"#utility.yul\":14715:14721   */\n      dup8\n        /* \"#utility.yul\":14671:14744   */\n      tag_225\n      jump\t// in\n    tag_342:\n        /* \"#utility.yul\":14754:14827   */\n      tag_343\n        /* \"#utility.yul\":14822:14825   */\n      0xc0\n        /* \"#utility.yul\":14811:14820   */\n      dup4\n        /* \"#utility.yul\":14807:14826   */\n      add\n        /* \"#utility.yul\":14798:14804   */\n      dup7\n        /* \"#utility.yul\":14754:14827   */\n      tag_225\n      jump\t// in\n    tag_343:\n        /* \"#utility.yul\":14875:14884   */\n      dup2\n        /* \"#utility.yul\":14869:14873   */\n      dup2\n        /* \"#utility.yul\":14865:14885   */\n      sub\n        /* \"#utility.yul\":14859:14862   */\n      0xe0\n        /* \"#utility.yul\":14848:14857   */\n      dup4\n        /* \"#utility.yul\":14844:14863   */\n      add\n        /* \"#utility.yul\":14837:14886   */\n      mstore\n        /* \"#utility.yul\":14903:14981   */\n      tag_344\n        /* \"#utility.yul\":14976:14980   */\n      dup2\n        /* \"#utility.yul\":14967:14973   */\n      dup6\n        /* \"#utility.yul\":14903:14981   */\n      tag_252\n      jump\t// in\n    tag_344:\n        /* \"#utility.yul\":14895:14981   */\n      swap1\n      pop\n        /* \"#utility.yul\":14991:15058   */\n      tag_345\n        /* \"#utility.yul\":15053:15056   */\n      0x0100\n        /* \"#utility.yul\":15042:15051   */\n      dup4\n        /* \"#utility.yul\":15038:15057   */\n      add\n        /* \"#utility.yul\":15029:15035   */\n      dup5\n        /* \"#utility.yul\":14991:15058   */\n      tag_248\n      jump\t// in\n    tag_345:\n        /* \"#utility.yul\":13878:15065   */\n      swap11\n      swap10\n      pop\n      pop\n      pop\n      pop\n      pop\n      pop\n      pop\n      pop\n      pop\n      pop\n      jump\t// out\n        /* \"#utility.yul\":15071:15200   */\n    tag_161:\n        /* \"#utility.yul\":15105:15111   */\n      0x00\n        /* \"#utility.yul\":15132:15152   */\n      tag_347\n      tag_348\n      jump\t// in\n    tag_347:\n        /* \"#utility.yul\":15122:15152   */\n      swap1\n      pop\n        /* \"#utility.yul\":15161:15194   */\n      tag_349\n        /* \"#utility.yul\":15189:15193   */\n      dup3\n        /* \"#utility.yul\":15181:15187   */\n      dup3\n        /* \"#utility.yul\":15161:15194   */\n      tag_350\n      jump\t// in\n    tag_349:\n        /* \"#utility.yul\":15071:15200   */\n      swap2\n      swap1\n      pop\n      jump\t// out\n        /* \"#utility.yul\":15206:15281   */\n    tag_348:\n        /* \"#utility.yul\":15239:15245   */\n      0x00\n        /* \"#utility.yul\":15272:15274   */\n      0x40\n        /* \"#utility.yul\":15266:15275   */\n      mload\n        /* \"#utility.yul\":15256:15275   */\n      swap1\n      pop\n        /* \"#utility.yul\":15206:15281   */\n      swap1\n      jump\t// out\n        /* \"#utility.yul\":15287:15595   */\n    tag_160:\n        /* \"#utility.yul\":15349:15353   */\n      0x00\n        /* \"#utility.yul\":15439:15457   */\n      0xffffffffffffffff\n        /* \"#utility.yul\":15431:15437   */\n      dup3\n        /* \"#utility.yul\":15428:15458   */\n      gt\n        /* \"#utility.yul\":15425:15481   */\n      iszero\n      tag_353\n      jumpi\n        /* \"#utility.yul\":15461:15479   */\n      tag_354\n      tag_118\n      jump\t// in\n    tag_354:\n        /* \"#utility.yul\":15425:15481   */\n    tag_353:\n        /* \"#utility.yul\":15499:15528   */\n      tag_355\n        /* \"#utility.yul\":15521:15527   */\n      dup3\n        /* \"#utility.yul\":15499:15528   */\n      tag_261\n      jump\t// in\n    tag_355:\n        /* \"#utility.yul\":15491:15528   */\n      swap1\n      pop\n        /* \"#utility.yul\":15583:15587   */\n      0x20\n        /* \"#utility.yul\":15577:15581   */\n      dup2\n        /* \"#utility.yul\":15573:15588   */\n      add\n        /* \"#utility.yul\":15565:15588   */\n      swap1\n      pop\n        /* \"#utility.yul\":15287:15595   */\n      swap2\n      swap1\n      pop\n      jump\t// out\n        /* \"#utility.yul\":15601:15733   */\n    tag_241:\n        /* \"#utility.yul\":15668:15672   */\n      0x00\n        /* \"#utility.yul\":15691:15694   */\n      dup2\n        /* \"#utility.yul\":15683:15694   */\n      swap1\n      pop\n        /* \"#utility.yul\":15721:15725   */\n      0x20\n        /* \"#utility.yul\":15716:15719   */\n      dup3\n        /* \"#utility.yul\":15712:15726   */\n      add\n        /* \"#utility.yul\":15704:15726   */\n      swap1\n      pop\n        /* \"#utility.yul\":15601:15733   */\n      swap2\n      swap1\n      pop\n      jump\t// out\n        /* \"#utility.yul\":15739:15853   */\n    tag_237:\n        /* \"#utility.yul\":15806:15812   */\n      0x00\n        /* \"#utility.yul\":15840:15845   */\n      dup2\n        /* \"#utility.yul\":15834:15846   */\n      mload\n        /* \"#utility.yul\":15824:15846   */\n      swap1\n      pop\n        /* \"#utility.yul\":15739:15853   */\n      swap2\n      swap1\n      pop\n      jump\t// out\n        /* \"#utility.yul\":15859:15958   */\n    tag_255:\n        /* \"#utility.yul\":15911:15917   */\n      0x00\n        /* \"#utility.yul\":15945:15950   */\n      dup2\n        /* \"#utility.yul\":15939:15951   */\n      mload\n        /* \"#utility.yul\":15929:15951   */\n      swap1\n      pop\n        /* \"#utility.yul\":15859:15958   */\n      swap2\n      swap1\n      pop\n      jump\t// out\n        /* \"#utility.yul\":15964:16077   */\n    tag_247:\n        /* \"#utility.yul\":16034:16038   */\n      0x00\n        /* \"#utility.yul\":16066:16070   */\n      0x20\n        /* \"#utility.yul\":16061:16064   */\n      dup3\n        /* \"#utility.yul\":16057:16071   */\n      add\n        /* \"#utility.yul\":16049:16071   */\n      swap1\n      pop\n        /* \"#utility.yul\":15964:16077   */\n      swap2\n      swap1\n      pop\n      jump\t// out\n        /* \"#utility.yul\":16083:16267   */\n    tag_239:\n        /* \"#utility.yul\":16182:16193   */\n      0x00\n        /* \"#utility.yul\":16216:16222   */\n      dup3\n        /* \"#utility.yul\":16211:16214   */\n      dup3\n        /* \"#utility.yul\":16204:16223   */\n      mstore\n        /* \"#utility.yul\":16256:16260   */\n      0x20\n        /* \"#utility.yul\":16251:16254   */\n      dup3\n        /* \"#utility.yul\":16247:16261   */\n      add\n        /* \"#utility.yul\":16232:16261   */\n      swap1\n      pop\n        /* \"#utility.yul\":16083:16267   */\n      swap3\n      swap2\n      pop\n      pop\n      jump\t// out\n        /* \"#utility.yul\":16273:16442   */\n    tag_257:\n        /* \"#utility.yul\":16357:16368   */\n      0x00\n        /* \"#utility.yul\":16391:16397   */\n      dup3\n        /* \"#utility.yul\":16386:16389   */\n      dup3\n        /* \"#utility.yul\":16379:16398   */\n      mstore\n        /* \"#utility.yul\":16431:16435   */\n      0x20\n        /* \"#utility.yul\":16426:16429   */\n      dup3\n        /* \"#utility.yul\":16422:16436   */\n      add\n        /* \"#utility.yul\":16407:16436   */\n      swap1\n      pop\n        /* \"#utility.yul\":16273:16442   */\n      swap3\n      swap2\n      pop\n      pop\n      jump\t// out\n        /* \"#utility.yul\":16448:16596   */\n    tag_266:\n        /* \"#utility.yul\":16550:16561   */\n      0x00\n        /* \"#utility.yul\":16587:16590   */\n      dup2\n        /* \"#utility.yul\":16572:16590   */\n      swap1\n      pop\n        /* \"#utility.yul\":16448:16596   */\n      swap3\n      swap2\n      pop\n      pop\n      jump\t// out\n        /* \"#utility.yul\":16602:16907   */\n    tag_80:\n        /* \"#utility.yul\":16642:16645   */\n      0x00\n        /* \"#utility.yul\":16661:16681   */\n      tag_364\n        /* \"#utility.yul\":16679:16680   */\n      dup3\n        /* \"#utility.yul\":16661:16681   */\n      tag_295\n      jump\t// in\n    tag_364:\n        /* \"#utility.yul\":16656:16681   */\n      swap2\n      pop\n        /* \"#utility.yul\":16695:16715   */\n      tag_365\n        /* \"#utility.yul\":16713:16714   */\n      dup4\n        /* \"#utility.yul\":16695:16715   */\n      tag_295\n      jump\t// in\n    tag_365:\n        /* \"#utility.yul\":16690:16715   */\n      swap3\n      pop\n        /* \"#utility.yul\":16849:16850   */\n      dup3\n        /* \"#utility.yul\":16781:16847   */\n      0xffffffffffffffffffffffffffffffffffffffffffffffffffffffffffffffff\n        /* \"#utility.yul\":16777:16851   */\n      sub\n        /* \"#utility.yul\":16774:16775   */\n      dup3\n        /* \"#utility.yul\":16771:16852   */\n      gt\n        /* \"#utility.yul\":16768:16875   */\n      iszero\n      tag_366\n      jumpi\n        /* \"#utility.yul\":16855:16873   */\n      tag_367\n      tag_368\n      jump\t// in\n    tag_367:\n        /* \"#utility.yul\":16768:16875   */\n    tag_366:\n        /* \"#utility.yul\":16899:16900   */\n      dup3\n        /* \"#utility.yul\":16896:16897   */\n      dup3\n        /* \"#utility.yul\":16892:16901   */\n      add\n        /* \"#utility.yul\":16885:16901   */\n      swap1\n      pop\n        /* \"#utility.yul\":16602:16907   */\n      swap3\n      swap2\n      pop\n      pop\n      jump\t// out\n        /* \"#utility.yul\":16913:17261   */\n    tag_67:\n        /* \"#utility.yul\":16953:16960   */\n      0x00\n        /* \"#utility.yul\":16976:16996   */\n      tag_370\n        /* \"#utility.yul\":16994:16995   */\n      dup3\n        /* \"#utility.yul\":16976:16996   */\n      tag_295\n      jump\t// in\n    tag_370:\n        /* \"#utility.yul\":16971:16996   */\n      swap2\n      pop\n        /* \"#utility.yul\":17010:17030   */\n      tag_371\n        /* \"#utility.yul\":17028:17029   */\n      dup4\n        /* \"#utility.yul\":17010:17030   */\n      tag_295\n      jump\t// in\n    tag_371:\n        /* \"#utility.yul\":17005:17030   */\n      swap3\n      pop\n        /* \"#utility.yul\":17198:17199   */\n      dup2\n        /* \"#utility.yul\":17130:17196   */\n      0xffffffffffffffffffffffffffffffffffffffffffffffffffffffffffffffff\n        /* \"#utility.yul\":17126:17200   */\n      div\n        /* \"#utility.yul\":17123:17124   */\n      dup4\n        /* \"#utility.yul\":17120:17201   */\n      gt\n        /* \"#utility.yul\":17115:17116   */\n      dup3\n        /* \"#utility.yul\":17108:17117   */\n      iszero\n        /* \"#utility.yul\":17101:17118   */\n      iszero\n        /* \"#utility.yul\":17097:17202   */\n      and\n        /* \"#utility.yul\":17094:17225   */\n      iszero\n      tag_372\n      jumpi\n        /* \"#utility.yul\":17205:17223   */\n      tag_373\n      tag_368\n      jump\t// in\n    tag_373:\n        /* \"#utility.yul\":17094:17225   */\n    tag_372:\n        /* \"#utility.yul\":17253:17254   */\n      dup3\n        /* \"#utility.yul\":17250:17251   */\n      dup3\n        /* \"#utility.yul\":17246:17255   */\n      mul\n        /* \"#utility.yul\":17235:17255   */\n      swap1\n      pop\n        /* \"#utility.yul\":16913:17261   */\n      swap3\n      swap2\n      pop\n      pop\n      jump\t// out\n        /* \"#utility.yul\":17267:17458   */\n    tag_94:\n        /* \"#utility.yul\":17307:17311   */\n      0x00\n        /* \"#utility.yul\":17327:17347   */\n      tag_375\n        /* \"#utility.yul\":17345:17346   */\n      dup3\n        /* \"#utility.yul\":17327:17347   */\n      tag_295\n      jump\t// in\n    tag_375:\n        /* \"#utility.yul\":17322:17347   */\n      swap2\n      pop\n        /* \"#utility.yul\":17361:17381   */\n      tag_376\n        /* \"#utility.yul\":17379:17380   */\n      dup4\n        /* \"#utility.yul\":17361:17381   */\n      tag_295\n      jump\t// in\n    tag_376:\n        /* \"#utility.yul\":17356:17381   */\n      swap3\n      pop\n        /* \"#utility.yul\":17400:17401   */\n      dup3\n        /* \"#utility.yul\":17397:17398   */\n      dup3\n        /* \"#utility.yul\":17394:17402   */\n      lt\n        /* \"#utility.yul\":17391:17425   */\n      iszero\n      tag_377\n      jumpi\n        /* \"#utility.yul\":17405:17423   */\n      tag_378\n      tag_368\n      jump\t// in\n    tag_378:\n        /* \"#utility.yul\":17391:17425   */\n    tag_377:\n        /* \"#utility.yul\":17450:17451   */\n      dup3\n        /* \"#utility.yul\":17447:17448   */\n      dup3\n        /* \"#utility.yul\":17443:17452   */\n      sub\n        /* \"#utility.yul\":17435:17452   */\n      swap1\n      pop\n        /* \"#utility.yul\":17267:17458   */\n      swap3\n      swap2\n      pop\n      pop\n      jump\t// out\n        /* \"#utility.yul\":17464:17560   */\n    tag_228:\n        /* \"#utility.yul\":17501:17508   */\n      0x00\n        /* \"#utility.yul\":17530:17554   */\n      tag_380\n        /* \"#utility.yul\":17548:17553   */\n      dup3\n        /* \"#utility.yul\":17530:17554   */\n      tag_381\n      jump\t// in\n    tag_380:\n        /* \"#utility.yul\":17519:17554   */\n      swap1\n      pop\n        /* \"#utility.yul\":17464:17560   */\n      swap2\n      swap1\n      pop\n      jump\t// out\n        /* \"#utility.yul\":17566:17656   */\n    tag_251:\n        /* \"#utility.yul\":17600:17607   */\n      0x00\n        /* \"#utility.yul\":17643:17648   */\n      dup2\n        /* \"#utility.yul\":17636:17649   */\n      iszero\n        /* \"#utility.yul\":17629:17650   */\n      iszero\n        /* \"#utility.yul\":17618:17650   */\n      swap1\n      pop\n        /* \"#utility.yul\":17566:17656   */\n      swap2\n      swap1\n      pop\n      jump\t// out\n        /* \"#utility.yul\":17662:17788   */\n    tag_381:\n        /* \"#utility.yul\":17699:17706   */\n      0x00\n        /* \"#utility.yul\":17739:17781   */\n      0xffffffffffffffffffffffffffffffffffffffff\n        /* \"#utility.yul\":17732:17737   */\n      dup3\n        /* \"#utility.yul\":17728:17782   */\n      and\n        /* \"#utility.yul\":17717:17782   */\n      swap1\n      pop\n        /* \"#utility.yul\":17662:17788   */\n      swap2\n      swap1\n      pop\n      jump\t// out\n        /* \"#utility.yul\":17794:17871   */\n    tag_295:\n        /* \"#utility.yul\":17831:17838   */\n      0x00\n        /* \"#utility.yul\":17860:17865   */\n      dup2\n        /* \"#utility.yul\":17849:17865   */\n      swap1\n      pop\n        /* \"#utility.yul\":17794:17871   */\n      swap2\n      swap1\n      pop\n      jump\t// out\n        /* \"#utility.yul\":17877:18031   */\n    tag_166:\n        /* \"#utility.yul\":17961:17967   */\n      dup3\n        /* \"#utility.yul\":17956:17959   */\n      dup2\n        /* \"#utility.yul\":17951:17954   */\n      dup4\n        /* \"#utility.yul\":17938:17968   */\n      calldatacopy\n        /* \"#utility.yul\":18023:18024   */\n      0x00\n        /* \"#utility.yul\":18014:18020   */\n      dup4\n        /* \"#utility.yul\":18009:18012   */\n      dup4\n        /* \"#utility.yul\":18005:18021   */\n      add\n        /* \"#utility.yul\":17998:18025   */\n      mstore\n        /* \"#utility.yul\":17877:18031   */\n      pop\n      pop\n      pop\n      jump\t// out\n        /* \"#utility.yul\":18037:18344   */\n    tag_259:\n        /* \"#utility.yul\":18105:18106   */\n      0x00\n        /* \"#utility.yul\":18115:18228   */\n    tag_387:\n        /* \"#utility.yul\":18129:18135   */\n      dup4\n        /* \"#utility.yul\":18126:18127   */\n      dup2\n        /* \"#utility.yul\":18123:18136   */\n      lt\n        /* \"#utility.yul\":18115:18228   */\n      iszero\n      tag_389\n      jumpi\n        /* \"#utility.yul\":18214:18215   */\n      dup1\n        /* \"#utility.yul\":18209:18212   */\n      dup3\n        /* \"#utility.yul\":18205:18216   */\n      add\n        /* \"#utility.yul\":18199:18217   */\n      mload\n        /* \"#utility.yul\":18195:18196   */\n      dup2\n        /* \"#utility.yul\":18190:18193   */\n      dup5\n        /* \"#utility.yul\":18186:18197   */\n      add\n        /* \"#utility.yul\":18179:18218   */\n      mstore\n        /* \"#utility.yul\":18151:18153   */\n      0x20\n        /* \"#utility.yul\":18148:18149   */\n      dup2\n        /* \"#utility.yul\":18144:18154   */\n      add\n        /* \"#utility.yul\":18139:18154   */\n      swap1\n      pop\n        /* \"#utility.yul\":18115:18228   */\n      jump(tag_387)\n    tag_389:\n        /* \"#utility.yul\":18246:18252   */\n      dup4\n        /* \"#utility.yul\":18243:18244   */\n      dup2\n        /* \"#utility.yul\":18240:18253   */\n      gt\n        /* \"#utility.yul\":18237:18338   */\n      iszero\n      tag_390\n      jumpi\n        /* \"#utility.yul\":18326:18327   */\n      0x00\n        /* \"#utility.yul\":18317:18323   */\n      dup5\n        /* \"#utility.yul\":18312:18315   */\n      dup5\n        /* \"#utility.yul\":18308:18324   */\n      add\n        /* \"#utility.yul\":18301:18328   */\n      mstore\n        /* \"#utility.yul\":18237:18338   */\n    tag_390:\n        /* \"#utility.yul\":18086:18344   */\n      pop\n        /* \"#utility.yul\":18037:18344   */\n      pop\n      pop\n      pop\n      jump\t// out\n        /* \"#utility.yul\":18350:18670   */\n    tag_100:\n        /* \"#utility.yul\":18394:18400   */\n      0x00\n        /* \"#utility.yul\":18431:18432   */\n      0x02\n        /* \"#utility.yul\":18425:18429   */\n      dup3\n        /* \"#utility.yul\":18421:18433   */\n      div\n        /* \"#utility.yul\":18411:18433   */\n      swap1\n      pop\n        /* \"#utility.yul\":18478:18479   */\n      0x01\n        /* \"#utility.yul\":18472:18476   */\n      dup3\n        /* \"#utility.yul\":18468:18480   */\n      and\n        /* \"#utility.yul\":18499:18517   */\n      dup1\n        /* \"#utility.yul\":18489:18570   */\n      tag_392\n      jumpi\n        /* \"#utility.yul\":18555:18559   */\n      0x7f\n        /* \"#utility.yul\":18547:18553   */\n      dup3\n        /* \"#utility.yul\":18543:18560   */\n      and\n        /* \"#utility.yul\":18533:18560   */\n      swap2\n      pop\n        /* \"#utility.yul\":18489:18570   */\n    tag_392:\n        /* \"#utility.yul\":18617:18619   */\n      0x20\n        /* \"#utility.yul\":18609:18615   */\n      dup3\n        /* \"#utility.yul\":18606:18620   */\n      lt\n        /* \"#utility.yul\":18586:18604   */\n      dup2\n        /* \"#utility.yul\":18583:18621   */\n      eq\n        /* \"#utility.yul\":18580:18664   */\n      iszero\n      tag_393\n      jumpi\n        /* \"#utility.yul\":18636:18654   */\n      tag_394\n      tag_395\n      jump\t// in\n    tag_394:\n        /* \"#utility.yul\":18580:18664   */\n    tag_393:\n        /* \"#utility.yul\":18401:18670   */\n      pop\n        /* \"#utility.yul\":18350:18670   */\n      swap2\n      swap1\n      pop\n      jump\t// out\n        /* \"#utility.yul\":18676:18957   */\n    tag_350:\n        /* \"#utility.yul\":18759:18786   */\n      tag_397\n        /* \"#utility.yul\":18781:18785   */\n      dup3\n        /* \"#utility.yul\":18759:18786   */\n      tag_261\n      jump\t// in\n    tag_397:\n        /* \"#utility.yul\":18751:18757   */\n      dup2\n        /* \"#utility.yul\":18747:18787   */\n      add\n        /* \"#utility.yul\":18889:18895   */\n      dup2\n        /* \"#utility.yul\":18877:18887   */\n      dup2\n        /* \"#utility.yul\":18874:18896   */\n      lt\n        /* \"#utility.yul\":18853:18871   */\n      0xffffffffffffffff\n        /* \"#utility.yul\":18841:18851   */\n      dup3\n        /* \"#utility.yul\":18838:18872   */\n      gt\n        /* \"#utility.yul\":18835:18897   */\n      or\n        /* \"#utility.yul\":18832:18920   */\n      iszero\n      tag_398\n      jumpi\n        /* \"#utility.yul\":18900:18918   */\n      tag_399\n      tag_118\n      jump\t// in\n    tag_399:\n        /* \"#utility.yul\":18832:18920   */\n    tag_398:\n        /* \"#utility.yul\":18940:18950   */\n      dup1\n        /* \"#utility.yul\":18936:18938   */\n      0x40\n        /* \"#utility.yul\":18929:18951   */\n      mstore\n        /* \"#utility.yul\":18719:18957   */\n      pop\n        /* \"#utility.yul\":18676:18957   */\n      pop\n      pop\n      jump\t// out\n        /* \"#utility.yul\":18963:19196   */\n    tag_84:\n        /* \"#utility.yul\":19002:19005   */\n      0x00\n        /* \"#utility.yul\":19025:19049   */\n      tag_401\n        /* \"#utility.yul\":19043:19048   */\n      dup3\n        /* \"#utility.yul\":19025:19049   */\n      tag_295\n      jump\t// in\n    tag_401:\n        /* \"#utility.yul\":19016:19049   */\n      swap2\n      pop\n        /* \"#utility.yul\":19071:19137   */\n      0xffffffffffffffffffffffffffffffffffffffffffffffffffffffffffffffff\n        /* \"#utility.yul\":19064:19069   */\n      dup3\n        /* \"#utility.yul\":19061:19138   */\n      eq\n        /* \"#utility.yul\":19058:19161   */\n      iszero\n      tag_402\n      jumpi\n        /* \"#utility.yul\":19141:19159   */\n      tag_403\n      tag_368\n      jump\t// in\n    tag_403:\n        /* \"#utility.yul\":19058:19161   */\n    tag_402:\n        /* \"#utility.yul\":19188:19189   */\n      0x01\n        /* \"#utility.yul\":19181:19186   */\n      dup3\n        /* \"#utility.yul\":19177:19190   */\n      add\n        /* \"#utility.yul\":19170:19190   */\n      swap1\n      pop\n        /* \"#utility.yul\":18963:19196   */\n      swap2\n      swap1\n      pop\n      jump\t// out\n        /* \"#utility.yul\":19202:19302   */\n    tag_233:\n        /* \"#utility.yul\":19241:19248   */\n      0x00\n        /* \"#utility.yul\":19270:19296   */\n      tag_405\n        /* \"#utility.yul\":19290:19295   */\n      dup3\n        /* \"#utility.yul\":19270:19296   */\n      tag_406\n      jump\t// in\n    tag_405:\n        /* \"#utility.yul\":19259:19296   */\n      swap1\n      pop\n        /* \"#utility.yul\":19202:19302   */\n      swap2\n      swap1\n      pop\n      jump\t// out\n        /* \"#utility.yul\":19308:19402   */\n    tag_406:\n        /* \"#utility.yul\":19347:19354   */\n      0x00\n        /* \"#utility.yul\":19376:19396   */\n      tag_408\n        /* \"#utility.yul\":19390:19395   */\n      dup3\n        /* \"#utility.yul\":19376:19396   */\n      tag_409\n      jump\t// in\n    tag_408:\n        /* \"#utility.yul\":19365:19396   */\n      swap1\n      pop\n        /* \"#utility.yul\":19308:19402   */\n      swap2\n      swap1\n      pop\n      jump\t// out\n        /* \"#utility.yul\":19408:19487   */\n    tag_303:\n        /* \"#utility.yul\":19447:19454   */\n      0x00\n        /* \"#utility.yul\":19476:19481   */\n      dup2\n        /* \"#utility.yul\":19465:19481   */\n      swap1\n      pop\n        /* \"#utility.yul\":19408:19487   */\n      swap2\n      swap1\n      pop\n      jump\t// out\n        /* \"#utility.yul\":19493:19669   */\n    tag_143:\n        /* \"#utility.yul\":19525:19526   */\n      0x00\n        /* \"#utility.yul\":19542:19562   */\n      tag_412\n        /* \"#utility.yul\":19560:19561   */\n      dup3\n        /* \"#utility.yul\":19542:19562   */\n      tag_295\n      jump\t// in\n    tag_412:\n        /* \"#utility.yul\":19537:19562   */\n      swap2\n      pop\n        /* \"#utility.yul\":19576:19596   */\n      tag_413\n        /* \"#utility.yul\":19594:19595   */\n      dup4\n        /* \"#utility.yul\":19576:19596   */\n      tag_295\n      jump\t// in\n    tag_413:\n        /* \"#utility.yul\":19571:19596   */\n      swap3\n      pop\n        /* \"#utility.yul\":19615:19616   */\n      dup3\n        /* \"#utility.yul\":19605:19640   */\n      tag_414\n      jumpi\n        /* \"#utility.yul\":19620:19638   */\n      tag_415\n      tag_416\n      jump\t// in\n    tag_415:\n        /* \"#utility.yul\":19605:19640   */\n    tag_414:\n        /* \"#utility.yul\":19661:19662   */\n      dup3\n        /* \"#utility.yul\":19658:19659   */\n      dup3\n        /* \"#utility.yul\":19654:19663   */\n      mod\n        /* \"#utility.yul\":19649:19663   */\n      swap1\n      pop\n        /* \"#utility.yul\":19493:19669   */\n      swap3\n      swap2\n      pop\n      pop\n      jump\t// out\n        /* \"#utility.yul\":19675:19855   */\n    tag_368:\n        /* \"#utility.yul\":19723:19800   */\n      0x4e487b7100000000000000000000000000000000000000000000000000000000\n        /* \"#utility.yul\":19720:19721   */\n      0x00\n        /* \"#utility.yul\":19713:19801   */\n      mstore\n        /* \"#utility.yul\":19820:19824   */\n      0x11\n        /* \"#utility.yul\":19817:19818   */\n      0x04\n        /* \"#utility.yul\":19810:19825   */\n      mstore\n        /* \"#utility.yul\":19844:19848   */\n      0x24\n        /* \"#utility.yul\":19841:19842   */\n      0x00\n        /* \"#utility.yul\":19834:19849   */\n      revert\n        /* \"#utility.yul\":19861:20041   */\n    tag_416:\n        /* \"#utility.yul\":19909:19986   */\n      0x4e487b7100000000000000000000000000000000000000000000000000000000\n        /* \"#utility.yul\":19906:19907   */\n      0x00\n        /* \"#utility.yul\":19899:19987   */\n      mstore\n        /* \"#utility.yul\":20006:20010   */\n      0x12\n        /* \"#utility.yul\":20003:20004   */\n      0x04\n        /* \"#utility.yul\":19996:20011   */\n      mstore\n        /* \"#utility.yul\":20030:20034   */\n      0x24\n        /* \"#utility.yul\":20027:20028   */\n      0x00\n        /* \"#utility.yul\":20020:20035   */\n      revert\n        /* \"#utility.yul\":20047:20227   */\n    tag_395:\n        /* \"#utility.yul\":20095:20172   */\n      0x4e487b7100000000000000000000000000000000000000000000000000000000\n        /* \"#utility.yul\":20092:20093   */\n      0x00\n        /* \"#utility.yul\":20085:20173   */\n      mstore\n        /* \"#utility.yul\":20192:20196   */\n      0x22\n        /* \"#utility.yul\":20189:20190   */\n      0x04\n        /* \"#utility.yul\":20182:20197   */\n      mstore\n        /* \"#utility.yul\":20216:20220   */\n      0x24\n        /* \"#utility.yul\":20213:20214   */\n      0x00\n        /* \"#utility.yul\":20206:20221   */\n      revert\n        /* \"#utility.yul\":20233:20413   */\n    tag_111:\n        /* \"#utility.yul\":20281:20358   */\n      0x4e487b7100000000000000000000000000000000000000000000000000000000\n        /* \"#utility.yul\":20278:20279   */\n      0x00\n        /* \"#utility.yul\":20271:20359   */\n      mstore\n        /* \"#utility.yul\":20378:20382   */\n      0x32\n        /* \"#utility.yul\":20375:20376   */\n      0x04\n        /* \"#utility.yul\":20368:20383   */\n      mstore\n        /* \"#utility.yul\":20402:20406   */\n      0x24\n        /* \"#utility.yul\":20399:20400   */\n      0x00\n        /* \"#utility.yul\":20392:20407   */\n      revert\n        /* \"#utility.yul\":20419:20599   */\n    tag_118:\n        /* \"#utility.yul\":20467:20544   */\n      0x4e487b7100000000000000000000000000000000000000000000000000000000\n        /* \"#utility.yul\":20464:20465   */\n      0x00\n        /* \"#utility.yul\":20457:20545   */\n      mstore\n        /* \"#utility.yul\":20564:20568   */\n      0x41\n        /* \"#utility.yul\":20561:20562   */\n      0x04\n        /* \"#utility.yul\":20554:20569   */\n      mstore\n        /* \"#utility.yul\":20588:20592   */\n      0x24\n        /* \"#utility.yul\":20585:20586   */\n      0x00\n        /* \"#utility.yul\":20578:20593   */\n      revert\n        /* \"#utility.yul\":20605:20722   */\n    tag_179:\n        /* \"#utility.yul\":20714:20715   */\n      0x00\n        /* \"#utility.yul\":20711:20712   */\n      dup1\n        /* \"#utility.yul\":20704:20716   */\n      revert\n        /* \"#utility.yul\":20728:20845   */\n    tag_164:\n        /* \"#utility.yul\":20837:20838   */\n      0x00\n        /* \"#utility.yul\":20834:20835   */\n      dup1\n        /* \"#utility.yul\":20827:20839   */\n      revert\n        /* \"#utility.yul\":20851:20968   */\n    tag_210:\n        /* \"#utility.yul\":20960:20961   */\n      0x00\n        /* \"#utility.yul\":20957:20958   */\n      dup1\n        /* \"#utility.yul\":20950:20962   */\n      revert\n        /* \"#utility.yul\":20974:21091   */\n    tag_191:\n        /* \"#utility.yul\":21083:21084   */\n      0x00\n        /* \"#utility.yul\":21080:21081   */\n      dup1\n        /* \"#utility.yul\":21073:21085   */\n      revert\n        /* \"#utility.yul\":21097:21199   */\n    tag_261:\n        /* \"#utility.yul\":21138:21144   */\n      0x00\n        /* \"#utility.yul\":21189:21191   */\n      0x1f\n        /* \"#utility.yul\":21185:21192   */\n      not\n        /* \"#utility.yul\":21180:21182   */\n      0x1f\n        /* \"#utility.yul\":21173:21178   */\n      dup4\n        /* \"#utility.yul\":21169:21183   */\n      add\n        /* \"#utility.yul\":21165:21193   */\n      and\n        /* \"#utility.yul\":21155:21193   */\n      swap1\n      pop\n        /* \"#utility.yul\":21097:21199   */\n      swap2\n      swap1\n      pop\n      jump\t// out\n        /* \"#utility.yul\":21205:21299   */\n    tag_409:\n        /* \"#utility.yul\":21238:21246   */\n      0x00\n        /* \"#utility.yul\":21286:21291   */\n      dup2\n        /* \"#utility.yul\":21282:21284   */\n      0x60\n        /* \"#utility.yul\":21278:21292   */\n      shl\n        /* \"#utility.yul\":21257:21292   */\n      swap1\n      pop\n        /* \"#utility.yul\":21205:21299   */\n      swap2\n      swap1\n      pop\n      jump\t// out\n        /* \"#utility.yul\":21305:21475   */\n    tag_272:\n        /* \"#utility.yul\":21445:21467   */\n      0x76616c75652063616e6e6f74206265206e756c6c000000000000000000000000\n        /* \"#utility.yul\":21441:21442   */\n      0x00\n        /* \"#utility.yul\":21433:21439   */\n      dup3\n        /* \"#utility.yul\":21429:21443   */\n      add\n        /* \"#utility.yul\":21422:21468   */\n      mstore\n        /* \"#utility.yul\":21305:21475   */\n      pop\n      jump\t// out\n        /* \"#utility.yul\":21481:21703   */\n    tag_277:\n        /* \"#utility.yul\":21621:21655   */\n      0x546865206f776e65722063616e6e6f7420796574206164642061206e65772068\n        /* \"#utility.yul\":21617:21618   */\n      0x00\n        /* \"#utility.yul\":21609:21615   */\n      dup3\n        /* \"#utility.yul\":21605:21619   */\n      add\n        /* \"#utility.yul\":21598:21656   */\n      mstore\n        /* \"#utility.yul\":21690:21695   */\n      0x6f6d650000000000000000000000000000000000000000000000000000000000\n        /* \"#utility.yul\":21685:21687   */\n      0x20\n        /* \"#utility.yul\":21677:21683   */\n      dup3\n        /* \"#utility.yul\":21673:21688   */\n      add\n        /* \"#utility.yul\":21666:21696   */\n      mstore\n        /* \"#utility.yul\":21481:21703   */\n      pop\n      jump\t// out\n        /* \"#utility.yul\":21709:21886   */\n    tag_282:\n        /* \"#utility.yul\":21849:21878   */\n      0x7468697320686f757365496420616c7265616479206578697374730000000000\n        /* \"#utility.yul\":21845:21846   */\n      0x00\n        /* \"#utility.yul\":21837:21843   */\n      dup3\n        /* \"#utility.yul\":21833:21847   */\n      add\n        /* \"#utility.yul\":21826:21879   */\n      mstore\n        /* \"#utility.yul\":21709:21886   */\n      pop\n      jump\t// out\n        /* \"#utility.yul\":21892:22060   */\n    tag_287:\n        /* \"#utility.yul\":22032:22052   */\n      0x5472616e73616374696f6e206661696c65640000000000000000000000000000\n        /* \"#utility.yul\":22028:22029   */\n      0x00\n        /* \"#utility.yul\":22020:22026   */\n      dup3\n        /* \"#utility.yul\":22016:22030   */\n      add\n        /* \"#utility.yul\":22009:22053   */\n      mstore\n        /* \"#utility.yul\":21892:22060   */\n      pop\n      jump\t// out\n        /* \"#utility.yul\":22066:22296   */\n    tag_292:\n        /* \"#utility.yul\":22206:22240   */\n      0x596f7520646f206e6f7420686176652061636365737320746f2064656c657465\n        /* \"#utility.yul\":22202:22203   */\n      0x00\n        /* \"#utility.yul\":22194:22200   */\n      dup3\n        /* \"#utility.yul\":22190:22204   */\n      add\n        /* \"#utility.yul\":22183:22241   */\n      mstore\n        /* \"#utility.yul\":22275:22288   */\n      0x207468697320686f757365000000000000000000000000000000000000000000\n        /* \"#utility.yul\":22270:22272   */\n      0x20\n        /* \"#utility.yul\":22262:22268   */\n      dup3\n        /* \"#utility.yul\":22258:22273   */\n      add\n        /* \"#utility.yul\":22251:22289   */\n      mstore\n        /* \"#utility.yul\":22066:22296   */\n      pop\n      jump\t// out\n        /* \"#utility.yul\":22302:22424   */\n    tag_170:\n        /* \"#utility.yul\":22375:22399   */\n      tag_434\n        /* \"#utility.yul\":22393:22398   */\n      dup2\n        /* \"#utility.yul\":22375:22399   */\n      tag_228\n      jump\t// in\n    tag_434:\n        /* \"#utility.yul\":22368:22373   */\n      dup2\n        /* \"#utility.yul\":22365:22400   */\n      eq\n        /* \"#utility.yul\":22355:22418   */\n      tag_435\n      jumpi\n        /* \"#utility.yul\":22414:22415   */\n      0x00\n        /* \"#utility.yul\":22411:22412   */\n      dup1\n        /* \"#utility.yul\":22404:22416   */\n      revert\n        /* \"#utility.yul\":22355:22418   */\n    tag_435:\n        /* \"#utility.yul\":22302:22424   */\n      pop\n      jump\t// out\n        /* \"#utility.yul\":22430:22546   */\n    tag_174:\n        /* \"#utility.yul\":22500:22521   */\n      tag_437\n        /* \"#utility.yul\":22515:22520   */\n      dup2\n        /* \"#utility.yul\":22500:22521   */\n      tag_251\n      jump\t// in\n    tag_437:\n        /* \"#utility.yul\":22493:22498   */\n      dup2\n        /* \"#utility.yul\":22490:22522   */\n      eq\n        /* \"#utility.yul\":22480:22540   */\n      tag_438\n      jumpi\n        /* \"#utility.yul\":22536:22537   */\n      0x00\n        /* \"#utility.yul\":22533:22534   */\n      dup1\n        /* \"#utility.yul\":22526:22538   */\n      revert\n        /* \"#utility.yul\":22480:22540   */\n    tag_438:\n        /* \"#utility.yul\":22430:22546   */\n      pop\n      jump\t// out\n        /* \"#utility.yul\":22552:22674   */\n    tag_184:\n        /* \"#utility.yul\":22625:22649   */\n      tag_440\n        /* \"#utility.yul\":22643:22648   */\n      dup2\n        /* \"#utility.yul\":22625:22649   */\n      tag_295\n      jump\t// in\n    tag_440:\n        /* \"#utility.yul\":22618:22623   */\n      dup2\n        /* \"#utility.yul\":22615:22650   */\n      eq\n        /* \"#utility.yul\":22605:22668   */\n      tag_441\n      jumpi\n        /* \"#utility.yul\":22664:22665   */\n      0x00\n        /* \"#utility.yul\":22661:22662   */\n      dup1\n        /* \"#utility.yul\":22654:22666   */\n      revert\n        /* \"#utility.yul\":22605:22668   */\n    tag_441:\n        /* \"#utility.yul\":22552:22674   */\n      pop\n      jump\t// out\n\n    auxdata: 0xa26469706673582212203dd36b0ea9067d645c80f7ece1830c7c9096f244515409a7dabcfa152dd5a1f564736f6c63430008070033\n}\n",
				"bytecode": {
					"linkReferences": {},
					"object": "60806040526005600055600054600a6200001a919062000098565b6001556201518060025560016003553480156200003657600080fd5b506200021b565b6000808291508390505b60018511156200008f57808604811115620000675762000066620001df565b5b6001851615620000775780820291505b808102905062000087856200020e565b945062000047565b94509492505050565b6000620000a582620001d5565b9150620000b283620001d5565b9250620000e17fffffffffffffffffffffffffffffffffffffffffffffffffffffffffffffffff8484620000e9565b905092915050565b600082620000fb5760019050620001ce565b816200010b5760009050620001ce565b81600181146200012457600281146200012f5762000165565b6001915050620001ce565b60ff841115620001445762000143620001df565b5b8360020a9150848211156200015e576200015d620001df565b5b50620001ce565b5060208310610133831016604e8410600b84101617156200019f5782820a905083811115620001995762000198620001df565b5b620001ce565b620001ae84848460016200003d565b92509050818404811115620001c857620001c7620001df565b5b81810290505b9392505050565b6000819050919050565b7f4e487b7100000000000000000000000000000000000000000000000000000000600052601160045260246000fd5b60008160011c9050919050565b6119f3806200022b6000396000f3fe6080604052600436106100705760003560e01c80634d79658b1161004e5780634d79658b1461010b578063aeda852f14610127578063c45e1b251461016c578063fdec9c9f146101a957610070565b806306e361bd1461007557806319161161146100915780633c3b0b4a146100ce575b600080fd5b61008f600480360381019061008a9190610e2e565b6101d2565b005b34801561009d57600080fd5b506100b860048036038101906100b39190610e88565b6103fa565b6040516100c5919061130a565b60405180910390f35b3480156100da57600080fd5b506100f560048036038101906100f09190610e2e565b6106d9565b6040516101029190611248565b60405180910390f35b61012560048036038101906101209190610e2e565b6107eb565b005b34801561013357600080fd5b5061014e60048036038101906101499190610e2e565b61094b565b6040516101639998979695949392919061137f565b60405180910390f35b34801561017857600080fd5b50610193600480360381019061018e9190610e2e565b610a6e565b6040516101a09190611226565b60405180910390f35b3480156101b557600080fd5b506101d060048036038101906101cb9190610f1f565b610bec565b005b6000739bf88fae8cf8bab76041c1db6467e7b37b977dd773ffffffffffffffffffffffffffffffffffffffff166370a08231336040518263ffffffff1660e01b815260040161022191906111d4565b60206040518083038186803b15801561023957600080fd5b505afa15801561024d573d6000803e3d6000fd5b505050506040513d601f19601f820116820180604052508101906102719190610e5b565b9050739bf88fae8cf8bab76041c1db6467e7b37b977dd773ffffffffffffffffffffffffffffffffffffffff166323b872dd336006600086815260200190815260200160002060050160009054906101000a900473ffffffffffffffffffffffffffffffffffffffff1660066000878152602001908152602001600020600301546040518463ffffffff1660e01b8152600401610310939291906111ef565b602060405180830381600087803b15801561032a57600080fd5b505af115801561033e573d6000803e3d6000fd5b505050506040513d601f19601f820116820180604052508101906103629190610e01565b6103a1576040517f08c379a0000000000000000000000000000000000000000000000000000000008152600401610398906112ca565b60405180910390fd5b336006600084815260200190815260200160002060060160006101000a81548173ffffffffffffffffffffffffffffffffffffffff021916908373ffffffffffffffffffffffffffffffffffffffff1602179055505050565b6000808487610409919061151f565b11610449576040517f08c379a00000000000000000000000000000000000000000000000000000000081526004016104409061126a565b60405180910390fd5b6000610456848685610c45565b905060066000828152602001908152602001600020600001548114156104b1576040517f08c379a00000000000000000000000000000000000000000000000000000000081526004016104a8906112aa565b60405180910390fd5b60405180610120016040528082815260200160035481526020018881526020018781526020018681526020018573ffffffffffffffffffffffffffffffffffffffff1681526020018573ffffffffffffffffffffffffffffffffffffffff1681526020018481526020016000151581525060066000838152602001908152602001600020600082015181600001556020820151816001015560408201518160020155606082015181600301556080820151816004015560a08201518160050160006101000a81548173ffffffffffffffffffffffffffffffffffffffff021916908373ffffffffffffffffffffffffffffffffffffffff16021790555060c08201518160060160006101000a81548173ffffffffffffffffffffffffffffffffffffffff021916908373ffffffffffffffffffffffffffffffffffffffff16021790555060e0820151816007019080519060200190610611929190610c9a565b506101008201518160080160006101000a81548160ff02191690831515021790555090505061064c6002544261064791906114c9565b610c90565b6005819080600181540180825580915050600190039060005260206000200160009091909190915055600360008154809291906106889061169a565b91905055507f3070c472a527c6fdf9d1d29d3f8de3f74a2de6ef97db5cc15b587188b278951f81858989876040516106c4959493929190611325565b60405180910390a18091505095945050505050565b60603373ffffffffffffffffffffffffffffffffffffffff166006600084815260200190815260200160002060050160009054906101000a900473ffffffffffffffffffffffffffffffffffffffff1673ffffffffffffffffffffffffffffffffffffffff161461077f576040517f08c379a0000000000000000000000000000000000000000000000000000000008152600401610776906112ea565b60405180910390fd5b60016006600084815260200190815260200160002060080160006101000a81548160ff0219169083151502179055506040518060400160405280601581526020017f64656c69737420776173207375636365737366756c00000000000000000000008152509050919050565b600660008281526020019081526020016000206002015434101561080e57600080fd5b3373ffffffffffffffffffffffffffffffffffffffff166108fc60066000848152602001908152602001600020600201543461084a9190611579565b9081150290604051600060405180830381858888f19350505050158015610875573d6000803e3d6000fd5b50336006600083815260200190815260200160002060060160006101000a81548173ffffffffffffffffffffffffffffffffffffffff021916908373ffffffffffffffffffffffffffffffffffffffff1602179055506006600082815260200190815260200160002060050160009054906101000a900473ffffffffffffffffffffffffffffffffffffffff1673ffffffffffffffffffffffffffffffffffffffff166108fc349081150290604051600060405180830381858888f19350505050158015610947573d6000803e3d6000fd5b5050565b60066020528060005260406000206000915090508060000154908060010154908060020154908060030154908060040154908060050160009054906101000a900473ffffffffffffffffffffffffffffffffffffffff16908060060160009054906101000a900473ffffffffffffffffffffffffffffffffffffffff16908060070180546109d890611637565b80601f0160208091040260200160405190810160405280929190818152602001828054610a0490611637565b8015610a515780601f10610a2657610100808354040283529160200191610a51565b820191906000526020600020905b815481529060010190602001808311610a3457829003601f168201915b5050505050908060080160009054906101000a900460ff16905089565b60606000805b600580549050811015610adf57836006600060058481548110610a9a57610a996117cf565b5b90600052602060002001548152602001908152602001600020600201541015610acc578180610ac89061169a565b9250505b8080610ad79061169a565b915050610a74565b5060008167ffffffffffffffff811115610afc57610afb6117fe565b5b604051908082528060200260200182016040528015610b2a5781602001602082028036833780820191505090505b50905060005b600580549050811015610be157846006600060058481548110610b5657610b556117cf565b5b90600052602060002001548152602001908152602001600020600201541015610bce576006600060058381548110610b9157610b906117cf565b5b9060005260206000200154815260200190815260200160002060000154828281518110610bc157610bc06117cf565b5b6020026020010181815250505b8080610bd99061169a565b915050610b30565b508092505050919050565b426004541115610c31576040517f08c379a0000000000000000000000000000000000000000000000000000000008152600401610c289061128a565b60405180910390fd5b610c3e84848433856103fa565b5050505050565b600080848484604051602001610c5d9392919061119b565b6040516020818303038152906040528051906020012060001c905060015481610c869190611711565b9150509392505050565b8060048190555050565b828054610ca690611637565b90600052602060002090601f016020900481019282610cc85760008555610d0f565b82601f10610ce157805160ff1916838001178555610d0f565b82800160010185558215610d0f579182015b82811115610d0e578251825591602001919060010190610cf3565b5b509050610d1c9190610d20565b5090565b5b80821115610d39576000816000905550600101610d21565b5090565b6000610d50610d4b84611438565b611413565b905082815260208101848484011115610d6c57610d6b611832565b5b610d778482856115f5565b509392505050565b600081359050610d8e81611978565b92915050565b600081519050610da38161198f565b92915050565b600082601f830112610dbe57610dbd61182d565b5b8135610dce848260208601610d3d565b91505092915050565b600081359050610de6816119a6565b92915050565b600081519050610dfb816119a6565b92915050565b600060208284031215610e1757610e1661183c565b5b6000610e2584828501610d94565b91505092915050565b600060208284031215610e4457610e4361183c565b5b6000610e5284828501610dd7565b91505092915050565b600060208284031215610e7157610e7061183c565b5b6000610e7f84828501610dec565b91505092915050565b600080600080600060a08688031215610ea457610ea361183c565b5b6000610eb288828901610dd7565b9550506020610ec388828901610dd7565b9450506040610ed488828901610dd7565b9350506060610ee588828901610d7f565b925050608086013567ffffffffffffffff811115610f0657610f05611837565b5b610f1288828901610da9565b9150509295509295909350565b60008060008060808587031215610f3957610f3861183c565b5b6000610f4787828801610dd7565b9450506020610f5887828801610dd7565b9350506040610f6987828801610dd7565b925050606085013567ffffffffffffffff811115610f8a57610f89611837565b5b610f9687828801610da9565b91505092959194509250565b6000610fae8383611166565b60208301905092915050565b610fc3816115ad565b82525050565b610fda610fd5826115ad565b6116e3565b82525050565b6000610feb82611479565b610ff5818561149c565b935061100083611469565b8060005b838110156110315781516110188882610fa2565b97506110238361148f565b925050600181019050611004565b5085935050505092915050565b611047816115bf565b82525050565b600061105882611484565b61106281856114ad565b9350611072818560208601611604565b61107b81611841565b840191505092915050565b600061109182611484565b61109b81856114be565b93506110ab818560208601611604565b80840191505092915050565b60006110c46014836114ad565b91506110cf8261185f565b602082019050919050565b60006110e76023836114ad565b91506110f282611888565b604082019050919050565b600061110a601b836114ad565b9150611115826118d7565b602082019050919050565b600061112d6012836114ad565b915061113882611900565b602082019050919050565b6000611150602b836114ad565b915061115b82611929565b604082019050919050565b61116f816115eb565b82525050565b61117e816115eb565b82525050565b611195611190826115eb565b611707565b82525050565b60006111a78286610fc9565b6014820191506111b78285611184565b6020820191506111c78284611086565b9150819050949350505050565b60006020820190506111e96000830184610fba565b92915050565b60006060820190506112046000830186610fba565b6112116020830185610fba565b61121e6040830184611175565b949350505050565b600060208201905081810360008301526112408184610fe0565b905092915050565b60006020820190508181036000830152611262818461104d565b905092915050565b60006020820190508181036000830152611283816110b7565b9050919050565b600060208201905081810360008301526112a3816110da565b9050919050565b600060208201905081810360008301526112c3816110fd565b9050919050565b600060208201905081810360008301526112e381611120565b9050919050565b6000602082019050818103600083015261130381611143565b9050919050565b600060208201905061131f6000830184611175565b92915050565b600060a08201905061133a6000830188611175565b6113476020830187610fba565b6113546040830186611175565b6113616060830185611175565b8181036080830152611373818461104d565b90509695505050505050565b600061012082019050611395600083018c611175565b6113a2602083018b611175565b6113af604083018a611175565b6113bc6060830189611175565b6113c96080830188611175565b6113d660a0830187610fba565b6113e360c0830186610fba565b81810360e08301526113f5818561104d565b905061140561010083018461103e565b9a9950505050505050505050565b600061141d61142e565b90506114298282611669565b919050565b6000604051905090565b600067ffffffffffffffff821115611453576114526117fe565b5b61145c82611841565b9050602081019050919050565b6000819050602082019050919050565b600081519050919050565b600081519050919050565b6000602082019050919050565b600082825260208201905092915050565b600082825260208201905092915050565b600081905092915050565b60006114d4826115eb565b91506114df836115eb565b9250827fffffffffffffffffffffffffffffffffffffffffffffffffffffffffffffffff0382111561151457611513611742565b5b828201905092915050565b600061152a826115eb565b9150611535836115eb565b9250817fffffffffffffffffffffffffffffffffffffffffffffffffffffffffffffffff048311821515161561156e5761156d611742565b5b828202905092915050565b6000611584826115eb565b915061158f836115eb565b9250828210156115a2576115a1611742565b5b828203905092915050565b60006115b8826115cb565b9050919050565b60008115159050919050565b600073ffffffffffffffffffffffffffffffffffffffff82169050919050565b6000819050919050565b82818337600083830152505050565b60005b83811015611622578082015181840152602081019050611607565b83811115611631576000848401525b50505050565b6000600282049050600182168061164f57607f821691505b60208210811415611663576116626117a0565b5b50919050565b61167282611841565b810181811067ffffffffffffffff82111715611691576116906117fe565b5b80604052505050565b60006116a5826115eb565b91507fffffffffffffffffffffffffffffffffffffffffffffffffffffffffffffffff8214156116d8576116d7611742565b5b600182019050919050565b60006116ee826116f5565b9050919050565b600061170082611852565b9050919050565b6000819050919050565b600061171c826115eb565b9150611727836115eb565b92508261173757611736611771565b5b828206905092915050565b7f4e487b7100000000000000000000000000000000000000000000000000000000600052601160045260246000fd5b7f4e487b7100000000000000000000000000000000000000000000000000000000600052601260045260246000fd5b7f4e487b7100000000000000000000000000000000000000000000000000000000600052602260045260246000fd5b7f4e487b7100000000000000000000000000000000000000000000000000000000600052603260045260246000fd5b7f4e487b7100000000000000000000000000000000000000000000000000000000600052604160045260246000fd5b600080fd5b600080fd5b600080fd5b600080fd5b6000601f19601f8301169050919050565b60008160601b9050919050565b7f76616c75652063616e6e6f74206265206e756c6c000000000000000000000000600082015250565b7f546865206f776e65722063616e6e6f7420796574206164642061206e6577206860008201527f6f6d650000000000000000000000000000000000000000000000000000000000602082015250565b7f7468697320686f757365496420616c7265616479206578697374730000000000600082015250565b7f5472616e73616374696f6e206661696c65640000000000000000000000000000600082015250565b7f596f7520646f206e6f7420686176652061636365737320746f2064656c65746560008201527f207468697320686f757365000000000000000000000000000000000000000000602082015250565b611981816115ad565b811461198c57600080fd5b50565b611998816115bf565b81146119a357600080fd5b50565b6119af816115eb565b81146119ba57600080fd5b5056fea26469706673582212203dd36b0ea9067d645c80f7ece1830c7c9096f244515409a7dabcfa152dd5a1f564736f6c63430008070033",
					"opcodes": "PUSH1 0x80 PUSH1 0x40 MSTORE PUSH1 0x5 PUSH1 0x0 SSTORE PUSH1 0x0 SLOAD PUSH1 0xA PUSH3 0x1A SWAP2 SWAP1 PUSH3 0x98 JUMP JUMPDEST PUSH1 0x1 SSTORE PUSH3 0x15180 PUSH1 0x2 SSTORE PUSH1 0x1 PUSH1 0x3 SSTORE CALLVALUE DUP1 ISZERO PUSH3 0x36 JUMPI PUSH1 0x0 DUP1 REVERT JUMPDEST POP PUSH3 0x21B JUMP JUMPDEST PUSH1 0x0 DUP1 DUP3 SWAP2 POP DUP4 SWAP1 POP JUMPDEST PUSH1 0x1 DUP6 GT ISZERO PUSH3 0x8F JUMPI DUP1 DUP7 DIV DUP2 GT ISZERO PUSH3 0x67 JUMPI PUSH3 0x66 PUSH3 0x1DF JUMP JUMPDEST JUMPDEST PUSH1 0x1 DUP6 AND ISZERO PUSH3 0x77 JUMPI DUP1 DUP3 MUL SWAP2 POP JUMPDEST DUP1 DUP2 MUL SWAP1 POP PUSH3 0x87 DUP6 PUSH3 0x20E JUMP JUMPDEST SWAP5 POP PUSH3 0x47 JUMP JUMPDEST SWAP5 POP SWAP5 SWAP3 POP POP POP JUMP JUMPDEST PUSH1 0x0 PUSH3 0xA5 DUP3 PUSH3 0x1D5 JUMP JUMPDEST SWAP2 POP PUSH3 0xB2 DUP4 PUSH3 0x1D5 JUMP JUMPDEST SWAP3 POP PUSH3 0xE1 PUSH32 0xFFFFFFFFFFFFFFFFFFFFFFFFFFFFFFFFFFFFFFFFFFFFFFFFFFFFFFFFFFFFFFFF DUP5 DUP5 PUSH3 0xE9 JUMP JUMPDEST SWAP1 POP SWAP3 SWAP2 POP POP JUMP JUMPDEST PUSH1 0x0 DUP3 PUSH3 0xFB JUMPI PUSH1 0x1 SWAP1 POP PUSH3 0x1CE JUMP JUMPDEST DUP2 PUSH3 0x10B JUMPI PUSH1 0x0 SWAP1 POP PUSH3 0x1CE JUMP JUMPDEST DUP2 PUSH1 0x1 DUP2 EQ PUSH3 0x124 JUMPI PUSH1 0x2 DUP2 EQ PUSH3 0x12F JUMPI PUSH3 0x165 JUMP JUMPDEST PUSH1 0x1 SWAP2 POP POP PUSH3 0x1CE JUMP JUMPDEST PUSH1 0xFF DUP5 GT ISZERO PUSH3 0x144 JUMPI PUSH3 0x143 PUSH3 0x1DF JUMP JUMPDEST JUMPDEST DUP4 PUSH1 0x2 EXP SWAP2 POP DUP5 DUP3 GT ISZERO PUSH3 0x15E JUMPI PUSH3 0x15D PUSH3 0x1DF JUMP JUMPDEST JUMPDEST POP PUSH3 0x1CE JUMP JUMPDEST POP PUSH1 0x20 DUP4 LT PUSH2 0x133 DUP4 LT AND PUSH1 0x4E DUP5 LT PUSH1 0xB DUP5 LT AND OR ISZERO PUSH3 0x19F JUMPI DUP3 DUP3 EXP SWAP1 POP DUP4 DUP2 GT ISZERO PUSH3 0x199 JUMPI PUSH3 0x198 PUSH3 0x1DF JUMP JUMPDEST JUMPDEST PUSH3 0x1CE JUMP JUMPDEST PUSH3 0x1AE DUP5 DUP5 DUP5 PUSH1 0x1 PUSH3 0x3D JUMP JUMPDEST SWAP3 POP SWAP1 POP DUP2 DUP5 DIV DUP2 GT ISZERO PUSH3 0x1C8 JUMPI PUSH3 0x1C7 PUSH3 0x1DF JUMP JUMPDEST JUMPDEST DUP2 DUP2 MUL SWAP1 POP JUMPDEST SWAP4 SWAP3 POP POP POP JUMP JUMPDEST PUSH1 0x0 DUP2 SWAP1 POP SWAP2 SWAP1 POP JUMP JUMPDEST PUSH32 0x4E487B7100000000000000000000000000000000000000000000000000000000 PUSH1 0x0 MSTORE PUSH1 0x11 PUSH1 0x4 MSTORE PUSH1 0x24 PUSH1 0x0 REVERT JUMPDEST PUSH1 0x0 DUP2 PUSH1 0x1 SHR SWAP1 POP SWAP2 SWAP1 POP JUMP JUMPDEST PUSH2 0x19F3 DUP1 PUSH3 0x22B PUSH1 0x0 CODECOPY PUSH1 0x0 RETURN INVALID PUSH1 0x80 PUSH1 0x40 MSTORE PUSH1 0x4 CALLDATASIZE LT PUSH2 0x70 JUMPI PUSH1 0x0 CALLDATALOAD PUSH1 0xE0 SHR DUP1 PUSH4 0x4D79658B GT PUSH2 0x4E JUMPI DUP1 PUSH4 0x4D79658B EQ PUSH2 0x10B JUMPI DUP1 PUSH4 0xAEDA852F EQ PUSH2 0x127 JUMPI DUP1 PUSH4 0xC45E1B25 EQ PUSH2 0x16C JUMPI DUP1 PUSH4 0xFDEC9C9F EQ PUSH2 0x1A9 JUMPI PUSH2 0x70 JUMP JUMPDEST DUP1 PUSH4 0x6E361BD EQ PUSH2 0x75 JUMPI DUP1 PUSH4 0x19161161 EQ PUSH2 0x91 JUMPI DUP1 PUSH4 0x3C3B0B4A EQ PUSH2 0xCE JUMPI JUMPDEST PUSH1 0x0 DUP1 REVERT JUMPDEST PUSH2 0x8F PUSH1 0x4 DUP1 CALLDATASIZE SUB DUP2 ADD SWAP1 PUSH2 0x8A SWAP2 SWAP1 PUSH2 0xE2E JUMP JUMPDEST PUSH2 0x1D2 JUMP JUMPDEST STOP JUMPDEST CALLVALUE DUP1 ISZERO PUSH2 0x9D JUMPI PUSH1 0x0 DUP1 REVERT JUMPDEST POP PUSH2 0xB8 PUSH1 0x4 DUP1 CALLDATASIZE SUB DUP2 ADD SWAP1 PUSH2 0xB3 SWAP2 SWAP1 PUSH2 0xE88 JUMP JUMPDEST PUSH2 0x3FA JUMP JUMPDEST PUSH1 0x40 MLOAD PUSH2 0xC5 SWAP2 SWAP1 PUSH2 0x130A JUMP JUMPDEST PUSH1 0x40 MLOAD DUP1 SWAP2 SUB SWAP1 RETURN JUMPDEST CALLVALUE DUP1 ISZERO PUSH2 0xDA JUMPI PUSH1 0x0 DUP1 REVERT JUMPDEST POP PUSH2 0xF5 PUSH1 0x4 DUP1 CALLDATASIZE SUB DUP2 ADD SWAP1 PUSH2 0xF0 SWAP2 SWAP1 PUSH2 0xE2E JUMP JUMPDEST PUSH2 0x6D9 JUMP JUMPDEST PUSH1 0x40 MLOAD PUSH2 0x102 SWAP2 SWAP1 PUSH2 0x1248 JUMP JUMPDEST PUSH1 0x40 MLOAD DUP1 SWAP2 SUB SWAP1 RETURN JUMPDEST PUSH2 0x125 PUSH1 0x4 DUP1 CALLDATASIZE SUB DUP2 ADD SWAP1 PUSH2 0x120 SWAP2 SWAP1 PUSH2 0xE2E JUMP JUMPDEST PUSH2 0x7EB JUMP JUMPDEST STOP JUMPDEST CALLVALUE DUP1 ISZERO PUSH2 0x133 JUMPI PUSH1 0x0 DUP1 REVERT JUMPDEST POP PUSH2 0x14E PUSH1 0x4 DUP1 CALLDATASIZE SUB DUP2 ADD SWAP1 PUSH2 0x149 SWAP2 SWAP1 PUSH2 0xE2E JUMP JUMPDEST PUSH2 0x94B JUMP JUMPDEST PUSH1 0x40 MLOAD PUSH2 0x163 SWAP10 SWAP9 SWAP8 SWAP7 SWAP6 SWAP5 SWAP4 SWAP3 SWAP2 SWAP1 PUSH2 0x137F JUMP JUMPDEST PUSH1 0x40 MLOAD DUP1 SWAP2 SUB SWAP1 RETURN JUMPDEST CALLVALUE DUP1 ISZERO PUSH2 0x178 JUMPI PUSH1 0x0 DUP1 REVERT JUMPDEST POP PUSH2 0x193 PUSH1 0x4 DUP1 CALLDATASIZE SUB DUP2 ADD SWAP1 PUSH2 0x18E SWAP2 SWAP1 PUSH2 0xE2E JUMP JUMPDEST PUSH2 0xA6E JUMP JUMPDEST PUSH1 0x40 MLOAD PUSH2 0x1A0 SWAP2 SWAP1 PUSH2 0x1226 JUMP JUMPDEST PUSH1 0x40 MLOAD DUP1 SWAP2 SUB SWAP1 RETURN JUMPDEST CALLVALUE DUP1 ISZERO PUSH2 0x1B5 JUMPI PUSH1 0x0 DUP1 REVERT JUMPDEST POP PUSH2 0x1D0 PUSH1 0x4 DUP1 CALLDATASIZE SUB DUP2 ADD SWAP1 PUSH2 0x1CB SWAP2 SWAP1 PUSH2 0xF1F JUMP JUMPDEST PUSH2 0xBEC JUMP JUMPDEST STOP JUMPDEST PUSH1 0x0 PUSH20 0x9BF88FAE8CF8BAB76041C1DB6467E7B37B977DD7 PUSH20 0xFFFFFFFFFFFFFFFFFFFFFFFFFFFFFFFFFFFFFFFF AND PUSH4 0x70A08231 CALLER PUSH1 0x40 MLOAD DUP3 PUSH4 0xFFFFFFFF AND PUSH1 0xE0 SHL DUP2 MSTORE PUSH1 0x4 ADD PUSH2 0x221 SWAP2 SWAP1 PUSH2 0x11D4 JUMP JUMPDEST PUSH1 0x20 PUSH1 0x40 MLOAD DUP1 DUP4 SUB DUP2 DUP7 DUP1 EXTCODESIZE ISZERO DUP1 ISZERO PUSH2 0x239 JUMPI PUSH1 0x0 DUP1 REVERT JUMPDEST POP GAS STATICCALL ISZERO DUP1 ISZERO PUSH2 0x24D JUMPI RETURNDATASIZE PUSH1 0x0 DUP1 RETURNDATACOPY RETURNDATASIZE PUSH1 0x0 REVERT JUMPDEST POP POP POP POP PUSH1 0x40 MLOAD RETURNDATASIZE PUSH1 0x1F NOT PUSH1 0x1F DUP3 ADD AND DUP3 ADD DUP1 PUSH1 0x40 MSTORE POP DUP2 ADD SWAP1 PUSH2 0x271 SWAP2 SWAP1 PUSH2 0xE5B JUMP JUMPDEST SWAP1 POP PUSH20 0x9BF88FAE8CF8BAB76041C1DB6467E7B37B977DD7 PUSH20 0xFFFFFFFFFFFFFFFFFFFFFFFFFFFFFFFFFFFFFFFF AND PUSH4 0x23B872DD CALLER PUSH1 0x6 PUSH1 0x0 DUP7 DUP2 MSTORE PUSH1 0x20 ADD SWAP1 DUP2 MSTORE PUSH1 0x20 ADD PUSH1 0x0 KECCAK256 PUSH1 0x5 ADD PUSH1 0x0 SWAP1 SLOAD SWAP1 PUSH2 0x100 EXP SWAP1 DIV PUSH20 0xFFFFFFFFFFFFFFFFFFFFFFFFFFFFFFFFFFFFFFFF AND PUSH1 0x6 PUSH1 0x0 DUP8 DUP2 MSTORE PUSH1 0x20 ADD SWAP1 DUP2 MSTORE PUSH1 0x20 ADD PUSH1 0x0 KECCAK256 PUSH1 0x3 ADD SLOAD PUSH1 0x40 MLOAD DUP5 PUSH4 0xFFFFFFFF AND PUSH1 0xE0 SHL DUP2 MSTORE PUSH1 0x4 ADD PUSH2 0x310 SWAP4 SWAP3 SWAP2 SWAP1 PUSH2 0x11EF JUMP JUMPDEST PUSH1 0x20 PUSH1 0x40 MLOAD DUP1 DUP4 SUB DUP2 PUSH1 0x0 DUP8 DUP1 EXTCODESIZE ISZERO DUP1 ISZERO PUSH2 0x32A JUMPI PUSH1 0x0 DUP1 REVERT JUMPDEST POP GAS CALL ISZERO DUP1 ISZERO PUSH2 0x33E JUMPI RETURNDATASIZE PUSH1 0x0 DUP1 RETURNDATACOPY RETURNDATASIZE PUSH1 0x0 REVERT JUMPDEST POP POP POP POP PUSH1 0x40 MLOAD RETURNDATASIZE PUSH1 0x1F NOT PUSH1 0x1F DUP3 ADD AND DUP3 ADD DUP1 PUSH1 0x40 MSTORE POP DUP2 ADD SWAP1 PUSH2 0x362 SWAP2 SWAP1 PUSH2 0xE01 JUMP JUMPDEST PUSH2 0x3A1 JUMPI PUSH1 0x40 MLOAD PUSH32 0x8C379A000000000000000000000000000000000000000000000000000000000 DUP2 MSTORE PUSH1 0x4 ADD PUSH2 0x398 SWAP1 PUSH2 0x12CA JUMP JUMPDEST PUSH1 0x40 MLOAD DUP1 SWAP2 SUB SWAP1 REVERT JUMPDEST CALLER PUSH1 0x6 PUSH1 0x0 DUP5 DUP2 MSTORE PUSH1 0x20 ADD SWAP1 DUP2 MSTORE PUSH1 0x20 ADD PUSH1 0x0 KECCAK256 PUSH1 0x6 ADD PUSH1 0x0 PUSH2 0x100 EXP DUP2 SLOAD DUP2 PUSH20 0xFFFFFFFFFFFFFFFFFFFFFFFFFFFFFFFFFFFFFFFF MUL NOT AND SWAP1 DUP4 PUSH20 0xFFFFFFFFFFFFFFFFFFFFFFFFFFFFFFFFFFFFFFFF AND MUL OR SWAP1 SSTORE POP POP POP JUMP JUMPDEST PUSH1 0x0 DUP1 DUP5 DUP8 PUSH2 0x409 SWAP2 SWAP1 PUSH2 0x151F JUMP JUMPDEST GT PUSH2 0x449 JUMPI PUSH1 0x40 MLOAD PUSH32 0x8C379A000000000000000000000000000000000000000000000000000000000 DUP2 MSTORE PUSH1 0x4 ADD PUSH2 0x440 SWAP1 PUSH2 0x126A JUMP JUMPDEST PUSH1 0x40 MLOAD DUP1 SWAP2 SUB SWAP1 REVERT JUMPDEST PUSH1 0x0 PUSH2 0x456 DUP5 DUP7 DUP6 PUSH2 0xC45 JUMP JUMPDEST SWAP1 POP PUSH1 0x6 PUSH1 0x0 DUP3 DUP2 MSTORE PUSH1 0x20 ADD SWAP1 DUP2 MSTORE PUSH1 0x20 ADD PUSH1 0x0 KECCAK256 PUSH1 0x0 ADD SLOAD DUP2 EQ ISZERO PUSH2 0x4B1 JUMPI PUSH1 0x40 MLOAD PUSH32 0x8C379A000000000000000000000000000000000000000000000000000000000 DUP2 MSTORE PUSH1 0x4 ADD PUSH2 0x4A8 SWAP1 PUSH2 0x12AA JUMP JUMPDEST PUSH1 0x40 MLOAD DUP1 SWAP2 SUB SWAP1 REVERT JUMPDEST PUSH1 0x40 MLOAD DUP1 PUSH2 0x120 ADD PUSH1 0x40 MSTORE DUP1 DUP3 DUP2 MSTORE PUSH1 0x20 ADD PUSH1 0x3 SLOAD DUP2 MSTORE PUSH1 0x20 ADD DUP9 DUP2 MSTORE PUSH1 0x20 ADD DUP8 DUP2 MSTORE PUSH1 0x20 ADD DUP7 DUP2 MSTORE PUSH1 0x20 ADD DUP6 PUSH20 0xFFFFFFFFFFFFFFFFFFFFFFFFFFFFFFFFFFFFFFFF AND DUP2 MSTORE PUSH1 0x20 ADD DUP6 PUSH20 0xFFFFFFFFFFFFFFFFFFFFFFFFFFFFFFFFFFFFFFFF AND DUP2 MSTORE PUSH1 0x20 ADD DUP5 DUP2 MSTORE PUSH1 0x20 ADD PUSH1 0x0 ISZERO ISZERO DUP2 MSTORE POP PUSH1 0x6 PUSH1 0x0 DUP4 DUP2 MSTORE PUSH1 0x20 ADD SWAP1 DUP2 MSTORE PUSH1 0x20 ADD PUSH1 0x0 KECCAK256 PUSH1 0x0 DUP3 ADD MLOAD DUP2 PUSH1 0x0 ADD SSTORE PUSH1 0x20 DUP3 ADD MLOAD DUP2 PUSH1 0x1 ADD SSTORE PUSH1 0x40 DUP3 ADD MLOAD DUP2 PUSH1 0x2 ADD SSTORE PUSH1 0x60 DUP3 ADD MLOAD DUP2 PUSH1 0x3 ADD SSTORE PUSH1 0x80 DUP3 ADD MLOAD DUP2 PUSH1 0x4 ADD SSTORE PUSH1 0xA0 DUP3 ADD MLOAD DUP2 PUSH1 0x5 ADD PUSH1 0x0 PUSH2 0x100 EXP DUP2 SLOAD DUP2 PUSH20 0xFFFFFFFFFFFFFFFFFFFFFFFFFFFFFFFFFFFFFFFF MUL NOT AND SWAP1 DUP4 PUSH20 0xFFFFFFFFFFFFFFFFFFFFFFFFFFFFFFFFFFFFFFFF AND MUL OR SWAP1 SSTORE POP PUSH1 0xC0 DUP3 ADD MLOAD DUP2 PUSH1 0x6 ADD PUSH1 0x0 PUSH2 0x100 EXP DUP2 SLOAD DUP2 PUSH20 0xFFFFFFFFFFFFFFFFFFFFFFFFFFFFFFFFFFFFFFFF MUL NOT AND SWAP1 DUP4 PUSH20 0xFFFFFFFFFFFFFFFFFFFFFFFFFFFFFFFFFFFFFFFF AND MUL OR SWAP1 SSTORE POP PUSH1 0xE0 DUP3 ADD MLOAD DUP2 PUSH1 0x7 ADD SWAP1 DUP1 MLOAD SWAP1 PUSH1 0x20 ADD SWAP1 PUSH2 0x611 SWAP3 SWAP2 SWAP1 PUSH2 0xC9A JUMP JUMPDEST POP PUSH2 0x100 DUP3 ADD MLOAD DUP2 PUSH1 0x8 ADD PUSH1 0x0 PUSH2 0x100 EXP DUP2 SLOAD DUP2 PUSH1 0xFF MUL NOT AND SWAP1 DUP4 ISZERO ISZERO MUL OR SWAP1 SSTORE POP SWAP1 POP POP PUSH2 0x64C PUSH1 0x2 SLOAD TIMESTAMP PUSH2 0x647 SWAP2 SWAP1 PUSH2 0x14C9 JUMP JUMPDEST PUSH2 0xC90 JUMP JUMPDEST PUSH1 0x5 DUP2 SWAP1 DUP1 PUSH1 0x1 DUP2 SLOAD ADD DUP1 DUP3 SSTORE DUP1 SWAP2 POP POP PUSH1 0x1 SWAP1 SUB SWAP1 PUSH1 0x0 MSTORE PUSH1 0x20 PUSH1 0x0 KECCAK256 ADD PUSH1 0x0 SWAP1 SWAP2 SWAP1 SWAP2 SWAP1 SWAP2 POP SSTORE PUSH1 0x3 PUSH1 0x0 DUP2 SLOAD DUP1 SWAP3 SWAP2 SWAP1 PUSH2 0x688 SWAP1 PUSH2 0x169A JUMP JUMPDEST SWAP2 SWAP1 POP SSTORE POP PUSH32 0x3070C472A527C6FDF9D1D29D3F8DE3F74A2DE6EF97DB5CC15B587188B278951F DUP2 DUP6 DUP10 DUP10 DUP8 PUSH1 0x40 MLOAD PUSH2 0x6C4 SWAP6 SWAP5 SWAP4 SWAP3 SWAP2 SWAP1 PUSH2 0x1325 JUMP JUMPDEST PUSH1 0x40 MLOAD DUP1 SWAP2 SUB SWAP1 LOG1 DUP1 SWAP2 POP POP SWAP6 SWAP5 POP POP POP POP POP JUMP JUMPDEST PUSH1 0x60 CALLER PUSH20 0xFFFFFFFFFFFFFFFFFFFFFFFFFFFFFFFFFFFFFFFF AND PUSH1 0x6 PUSH1 0x0 DUP5 DUP2 MSTORE PUSH1 0x20 ADD SWAP1 DUP2 MSTORE PUSH1 0x20 ADD PUSH1 0x0 KECCAK256 PUSH1 0x5 ADD PUSH1 0x0 SWAP1 SLOAD SWAP1 PUSH2 0x100 EXP SWAP1 DIV PUSH20 0xFFFFFFFFFFFFFFFFFFFFFFFFFFFFFFFFFFFFFFFF AND PUSH20 0xFFFFFFFFFFFFFFFFFFFFFFFFFFFFFFFFFFFFFFFF AND EQ PUSH2 0x77F JUMPI PUSH1 0x40 MLOAD PUSH32 0x8C379A000000000000000000000000000000000000000000000000000000000 DUP2 MSTORE PUSH1 0x4 ADD PUSH2 0x776 SWAP1 PUSH2 0x12EA JUMP JUMPDEST PUSH1 0x40 MLOAD DUP1 SWAP2 SUB SWAP1 REVERT JUMPDEST PUSH1 0x1 PUSH1 0x6 PUSH1 0x0 DUP5 DUP2 MSTORE PUSH1 0x20 ADD SWAP1 DUP2 MSTORE PUSH1 0x20 ADD PUSH1 0x0 KECCAK256 PUSH1 0x8 ADD PUSH1 0x0 PUSH2 0x100 EXP DUP2 SLOAD DUP2 PUSH1 0xFF MUL NOT AND SWAP1 DUP4 ISZERO ISZERO MUL OR SWAP1 SSTORE POP PUSH1 0x40 MLOAD DUP1 PUSH1 0x40 ADD PUSH1 0x40 MSTORE DUP1 PUSH1 0x15 DUP2 MSTORE PUSH1 0x20 ADD PUSH32 0x64656C69737420776173207375636365737366756C0000000000000000000000 DUP2 MSTORE POP SWAP1 POP SWAP2 SWAP1 POP JUMP JUMPDEST PUSH1 0x6 PUSH1 0x0 DUP3 DUP2 MSTORE PUSH1 0x20 ADD SWAP1 DUP2 MSTORE PUSH1 0x20 ADD PUSH1 0x0 KECCAK256 PUSH1 0x2 ADD SLOAD CALLVALUE LT ISZERO PUSH2 0x80E JUMPI PUSH1 0x0 DUP1 REVERT JUMPDEST CALLER PUSH20 0xFFFFFFFFFFFFFFFFFFFFFFFFFFFFFFFFFFFFFFFF AND PUSH2 0x8FC PUSH1 0x6 PUSH1 0x0 DUP5 DUP2 MSTORE PUSH1 0x20 ADD SWAP1 DUP2 MSTORE PUSH1 0x20 ADD PUSH1 0x0 KECCAK256 PUSH1 0x2 ADD SLOAD CALLVALUE PUSH2 0x84A SWAP2 SWAP1 PUSH2 0x1579 JUMP JUMPDEST SWAP1 DUP2 ISZERO MUL SWAP1 PUSH1 0x40 MLOAD PUSH1 0x0 PUSH1 0x40 MLOAD DUP1 DUP4 SUB DUP2 DUP6 DUP9 DUP9 CALL SWAP4 POP POP POP POP ISZERO DUP1 ISZERO PUSH2 0x875 JUMPI RETURNDATASIZE PUSH1 0x0 DUP1 RETURNDATACOPY RETURNDATASIZE PUSH1 0x0 REVERT JUMPDEST POP CALLER PUSH1 0x6 PUSH1 0x0 DUP4 DUP2 MSTORE PUSH1 0x20 ADD SWAP1 DUP2 MSTORE PUSH1 0x20 ADD PUSH1 0x0 KECCAK256 PUSH1 0x6 ADD PUSH1 0x0 PUSH2 0x100 EXP DUP2 SLOAD DUP2 PUSH20 0xFFFFFFFFFFFFFFFFFFFFFFFFFFFFFFFFFFFFFFFF MUL NOT AND SWAP1 DUP4 PUSH20 0xFFFFFFFFFFFFFFFFFFFFFFFFFFFFFFFFFFFFFFFF AND MUL OR SWAP1 SSTORE POP PUSH1 0x6 PUSH1 0x0 DUP3 DUP2 MSTORE PUSH1 0x20 ADD SWAP1 DUP2 MSTORE PUSH1 0x20 ADD PUSH1 0x0 KECCAK256 PUSH1 0x5 ADD PUSH1 0x0 SWAP1 SLOAD SWAP1 PUSH2 0x100 EXP SWAP1 DIV PUSH20 0xFFFFFFFFFFFFFFFFFFFFFFFFFFFFFFFFFFFFFFFF AND PUSH20 0xFFFFFFFFFFFFFFFFFFFFFFFFFFFFFFFFFFFFFFFF AND PUSH2 0x8FC CALLVALUE SWAP1 DUP2 ISZERO MUL SWAP1 PUSH1 0x40 MLOAD PUSH1 0x0 PUSH1 0x40 MLOAD DUP1 DUP4 SUB DUP2 DUP6 DUP9 DUP9 CALL SWAP4 POP POP POP POP ISZERO DUP1 ISZERO PUSH2 0x947 JUMPI RETURNDATASIZE PUSH1 0x0 DUP1 RETURNDATACOPY RETURNDATASIZE PUSH1 0x0 REVERT JUMPDEST POP POP JUMP JUMPDEST PUSH1 0x6 PUSH1 0x20 MSTORE DUP1 PUSH1 0x0 MSTORE PUSH1 0x40 PUSH1 0x0 KECCAK256 PUSH1 0x0 SWAP2 POP SWAP1 POP DUP1 PUSH1 0x0 ADD SLOAD SWAP1 DUP1 PUSH1 0x1 ADD SLOAD SWAP1 DUP1 PUSH1 0x2 ADD SLOAD SWAP1 DUP1 PUSH1 0x3 ADD SLOAD SWAP1 DUP1 PUSH1 0x4 ADD SLOAD SWAP1 DUP1 PUSH1 0x5 ADD PUSH1 0x0 SWAP1 SLOAD SWAP1 PUSH2 0x100 EXP SWAP1 DIV PUSH20 0xFFFFFFFFFFFFFFFFFFFFFFFFFFFFFFFFFFFFFFFF AND SWAP1 DUP1 PUSH1 0x6 ADD PUSH1 0x0 SWAP1 SLOAD SWAP1 PUSH2 0x100 EXP SWAP1 DIV PUSH20 0xFFFFFFFFFFFFFFFFFFFFFFFFFFFFFFFFFFFFFFFF AND SWAP1 DUP1 PUSH1 0x7 ADD DUP1 SLOAD PUSH2 0x9D8 SWAP1 PUSH2 0x1637 JUMP JUMPDEST DUP1 PUSH1 0x1F ADD PUSH1 0x20 DUP1 SWAP2 DIV MUL PUSH1 0x20 ADD PUSH1 0x40 MLOAD SWAP1 DUP2 ADD PUSH1 0x40 MSTORE DUP1 SWAP3 SWAP2 SWAP1 DUP2 DUP2 MSTORE PUSH1 0x20 ADD DUP3 DUP1 SLOAD PUSH2 0xA04 SWAP1 PUSH2 0x1637 JUMP JUMPDEST DUP1 ISZERO PUSH2 0xA51 JUMPI DUP1 PUSH1 0x1F LT PUSH2 0xA26 JUMPI PUSH2 0x100 DUP1 DUP4 SLOAD DIV MUL DUP4 MSTORE SWAP2 PUSH1 0x20 ADD SWAP2 PUSH2 0xA51 JUMP JUMPDEST DUP3 ADD SWAP2 SWAP1 PUSH1 0x0 MSTORE PUSH1 0x20 PUSH1 0x0 KECCAK256 SWAP1 JUMPDEST DUP2 SLOAD DUP2 MSTORE SWAP1 PUSH1 0x1 ADD SWAP1 PUSH1 0x20 ADD DUP1 DUP4 GT PUSH2 0xA34 JUMPI DUP3 SWAP1 SUB PUSH1 0x1F AND DUP3 ADD SWAP2 JUMPDEST POP POP POP POP POP SWAP1 DUP1 PUSH1 0x8 ADD PUSH1 0x0 SWAP1 SLOAD SWAP1 PUSH2 0x100 EXP SWAP1 DIV PUSH1 0xFF AND SWAP1 POP DUP10 JUMP JUMPDEST PUSH1 0x60 PUSH1 0x0 DUP1 JUMPDEST PUSH1 0x5 DUP1 SLOAD SWAP1 POP DUP2 LT ISZERO PUSH2 0xADF JUMPI DUP4 PUSH1 0x6 PUSH1 0x0 PUSH1 0x5 DUP5 DUP2 SLOAD DUP2 LT PUSH2 0xA9A JUMPI PUSH2 0xA99 PUSH2 0x17CF JUMP JUMPDEST JUMPDEST SWAP1 PUSH1 0x0 MSTORE PUSH1 0x20 PUSH1 0x0 KECCAK256 ADD SLOAD DUP2 MSTORE PUSH1 0x20 ADD SWAP1 DUP2 MSTORE PUSH1 0x20 ADD PUSH1 0x0 KECCAK256 PUSH1 0x2 ADD SLOAD LT ISZERO PUSH2 0xACC JUMPI DUP2 DUP1 PUSH2 0xAC8 SWAP1 PUSH2 0x169A JUMP JUMPDEST SWAP3 POP POP JUMPDEST DUP1 DUP1 PUSH2 0xAD7 SWAP1 PUSH2 0x169A JUMP JUMPDEST SWAP2 POP POP PUSH2 0xA74 JUMP JUMPDEST POP PUSH1 0x0 DUP2 PUSH8 0xFFFFFFFFFFFFFFFF DUP2 GT ISZERO PUSH2 0xAFC JUMPI PUSH2 0xAFB PUSH2 0x17FE JUMP JUMPDEST JUMPDEST PUSH1 0x40 MLOAD SWAP1 DUP1 DUP3 MSTORE DUP1 PUSH1 0x20 MUL PUSH1 0x20 ADD DUP3 ADD PUSH1 0x40 MSTORE DUP1 ISZERO PUSH2 0xB2A JUMPI DUP2 PUSH1 0x20 ADD PUSH1 0x20 DUP3 MUL DUP1 CALLDATASIZE DUP4 CALLDATACOPY DUP1 DUP3 ADD SWAP2 POP POP SWAP1 POP JUMPDEST POP SWAP1 POP PUSH1 0x0 JUMPDEST PUSH1 0x5 DUP1 SLOAD SWAP1 POP DUP2 LT ISZERO PUSH2 0xBE1 JUMPI DUP5 PUSH1 0x6 PUSH1 0x0 PUSH1 0x5 DUP5 DUP2 SLOAD DUP2 LT PUSH2 0xB56 JUMPI PUSH2 0xB55 PUSH2 0x17CF JUMP JUMPDEST JUMPDEST SWAP1 PUSH1 0x0 MSTORE PUSH1 0x20 PUSH1 0x0 KECCAK256 ADD SLOAD DUP2 MSTORE PUSH1 0x20 ADD SWAP1 DUP2 MSTORE PUSH1 0x20 ADD PUSH1 0x0 KECCAK256 PUSH1 0x2 ADD SLOAD LT ISZERO PUSH2 0xBCE JUMPI PUSH1 0x6 PUSH1 0x0 PUSH1 0x5 DUP4 DUP2 SLOAD DUP2 LT PUSH2 0xB91 JUMPI PUSH2 0xB90 PUSH2 0x17CF JUMP JUMPDEST JUMPDEST SWAP1 PUSH1 0x0 MSTORE PUSH1 0x20 PUSH1 0x0 KECCAK256 ADD SLOAD DUP2 MSTORE PUSH1 0x20 ADD SWAP1 DUP2 MSTORE PUSH1 0x20 ADD PUSH1 0x0 KECCAK256 PUSH1 0x0 ADD SLOAD DUP3 DUP3 DUP2 MLOAD DUP2 LT PUSH2 0xBC1 JUMPI PUSH2 0xBC0 PUSH2 0x17CF JUMP JUMPDEST JUMPDEST PUSH1 0x20 MUL PUSH1 0x20 ADD ADD DUP2 DUP2 MSTORE POP POP JUMPDEST DUP1 DUP1 PUSH2 0xBD9 SWAP1 PUSH2 0x169A JUMP JUMPDEST SWAP2 POP POP PUSH2 0xB30 JUMP JUMPDEST POP DUP1 SWAP3 POP POP POP SWAP2 SWAP1 POP JUMP JUMPDEST TIMESTAMP PUSH1 0x4 SLOAD GT ISZERO PUSH2 0xC31 JUMPI PUSH1 0x40 MLOAD PUSH32 0x8C379A000000000000000000000000000000000000000000000000000000000 DUP2 MSTORE PUSH1 0x4 ADD PUSH2 0xC28 SWAP1 PUSH2 0x128A JUMP JUMPDEST PUSH1 0x40 MLOAD DUP1 SWAP2 SUB SWAP1 REVERT JUMPDEST PUSH2 0xC3E DUP5 DUP5 DUP5 CALLER DUP6 PUSH2 0x3FA JUMP JUMPDEST POP POP POP POP POP JUMP JUMPDEST PUSH1 0x0 DUP1 DUP5 DUP5 DUP5 PUSH1 0x40 MLOAD PUSH1 0x20 ADD PUSH2 0xC5D SWAP4 SWAP3 SWAP2 SWAP1 PUSH2 0x119B JUMP JUMPDEST PUSH1 0x40 MLOAD PUSH1 0x20 DUP2 DUP4 SUB SUB DUP2 MSTORE SWAP1 PUSH1 0x40 MSTORE DUP1 MLOAD SWAP1 PUSH1 0x20 ADD KECCAK256 PUSH1 0x0 SHR SWAP1 POP PUSH1 0x1 SLOAD DUP2 PUSH2 0xC86 SWAP2 SWAP1 PUSH2 0x1711 JUMP JUMPDEST SWAP2 POP POP SWAP4 SWAP3 POP POP POP JUMP JUMPDEST DUP1 PUSH1 0x4 DUP2 SWAP1 SSTORE POP POP JUMP JUMPDEST DUP3 DUP1 SLOAD PUSH2 0xCA6 SWAP1 PUSH2 0x1637 JUMP JUMPDEST SWAP1 PUSH1 0x0 MSTORE PUSH1 0x20 PUSH1 0x0 KECCAK256 SWAP1 PUSH1 0x1F ADD PUSH1 0x20 SWAP1 DIV DUP2 ADD SWAP3 DUP3 PUSH2 0xCC8 JUMPI PUSH1 0x0 DUP6 SSTORE PUSH2 0xD0F JUMP JUMPDEST DUP3 PUSH1 0x1F LT PUSH2 0xCE1 JUMPI DUP1 MLOAD PUSH1 0xFF NOT AND DUP4 DUP1 ADD OR DUP6 SSTORE PUSH2 0xD0F JUMP JUMPDEST DUP3 DUP1 ADD PUSH1 0x1 ADD DUP6 SSTORE DUP3 ISZERO PUSH2 0xD0F JUMPI SWAP2 DUP3 ADD JUMPDEST DUP3 DUP2 GT ISZERO PUSH2 0xD0E JUMPI DUP3 MLOAD DUP3 SSTORE SWAP2 PUSH1 0x20 ADD SWAP2 SWAP1 PUSH1 0x1 ADD SWAP1 PUSH2 0xCF3 JUMP JUMPDEST JUMPDEST POP SWAP1 POP PUSH2 0xD1C SWAP2 SWAP1 PUSH2 0xD20 JUMP JUMPDEST POP SWAP1 JUMP JUMPDEST JUMPDEST DUP1 DUP3 GT ISZERO PUSH2 0xD39 JUMPI PUSH1 0x0 DUP2 PUSH1 0x0 SWAP1 SSTORE POP PUSH1 0x1 ADD PUSH2 0xD21 JUMP JUMPDEST POP SWAP1 JUMP JUMPDEST PUSH1 0x0 PUSH2 0xD50 PUSH2 0xD4B DUP5 PUSH2 0x1438 JUMP JUMPDEST PUSH2 0x1413 JUMP JUMPDEST SWAP1 POP DUP3 DUP2 MSTORE PUSH1 0x20 DUP2 ADD DUP5 DUP5 DUP5 ADD GT ISZERO PUSH2 0xD6C JUMPI PUSH2 0xD6B PUSH2 0x1832 JUMP JUMPDEST JUMPDEST PUSH2 0xD77 DUP5 DUP3 DUP6 PUSH2 0x15F5 JUMP JUMPDEST POP SWAP4 SWAP3 POP POP POP JUMP JUMPDEST PUSH1 0x0 DUP2 CALLDATALOAD SWAP1 POP PUSH2 0xD8E DUP2 PUSH2 0x1978 JUMP JUMPDEST SWAP3 SWAP2 POP POP JUMP JUMPDEST PUSH1 0x0 DUP2 MLOAD SWAP1 POP PUSH2 0xDA3 DUP2 PUSH2 0x198F JUMP JUMPDEST SWAP3 SWAP2 POP POP JUMP JUMPDEST PUSH1 0x0 DUP3 PUSH1 0x1F DUP4 ADD SLT PUSH2 0xDBE JUMPI PUSH2 0xDBD PUSH2 0x182D JUMP JUMPDEST JUMPDEST DUP2 CALLDATALOAD PUSH2 0xDCE DUP5 DUP3 PUSH1 0x20 DUP7 ADD PUSH2 0xD3D JUMP JUMPDEST SWAP2 POP POP SWAP3 SWAP2 POP POP JUMP JUMPDEST PUSH1 0x0 DUP2 CALLDATALOAD SWAP1 POP PUSH2 0xDE6 DUP2 PUSH2 0x19A6 JUMP JUMPDEST SWAP3 SWAP2 POP POP JUMP JUMPDEST PUSH1 0x0 DUP2 MLOAD SWAP1 POP PUSH2 0xDFB DUP2 PUSH2 0x19A6 JUMP JUMPDEST SWAP3 SWAP2 POP POP JUMP JUMPDEST PUSH1 0x0 PUSH1 0x20 DUP3 DUP5 SUB SLT ISZERO PUSH2 0xE17 JUMPI PUSH2 0xE16 PUSH2 0x183C JUMP JUMPDEST JUMPDEST PUSH1 0x0 PUSH2 0xE25 DUP5 DUP3 DUP6 ADD PUSH2 0xD94 JUMP JUMPDEST SWAP2 POP POP SWAP3 SWAP2 POP POP JUMP JUMPDEST PUSH1 0x0 PUSH1 0x20 DUP3 DUP5 SUB SLT ISZERO PUSH2 0xE44 JUMPI PUSH2 0xE43 PUSH2 0x183C JUMP JUMPDEST JUMPDEST PUSH1 0x0 PUSH2 0xE52 DUP5 DUP3 DUP6 ADD PUSH2 0xDD7 JUMP JUMPDEST SWAP2 POP POP SWAP3 SWAP2 POP POP JUMP JUMPDEST PUSH1 0x0 PUSH1 0x20 DUP3 DUP5 SUB SLT ISZERO PUSH2 0xE71 JUMPI PUSH2 0xE70 PUSH2 0x183C JUMP JUMPDEST JUMPDEST PUSH1 0x0 PUSH2 0xE7F DUP5 DUP3 DUP6 ADD PUSH2 0xDEC JUMP JUMPDEST SWAP2 POP POP SWAP3 SWAP2 POP POP JUMP JUMPDEST PUSH1 0x0 DUP1 PUSH1 0x0 DUP1 PUSH1 0x0 PUSH1 0xA0 DUP7 DUP9 SUB SLT ISZERO PUSH2 0xEA4 JUMPI PUSH2 0xEA3 PUSH2 0x183C JUMP JUMPDEST JUMPDEST PUSH1 0x0 PUSH2 0xEB2 DUP9 DUP3 DUP10 ADD PUSH2 0xDD7 JUMP JUMPDEST SWAP6 POP POP PUSH1 0x20 PUSH2 0xEC3 DUP9 DUP3 DUP10 ADD PUSH2 0xDD7 JUMP JUMPDEST SWAP5 POP POP PUSH1 0x40 PUSH2 0xED4 DUP9 DUP3 DUP10 ADD PUSH2 0xDD7 JUMP JUMPDEST SWAP4 POP POP PUSH1 0x60 PUSH2 0xEE5 DUP9 DUP3 DUP10 ADD PUSH2 0xD7F JUMP JUMPDEST SWAP3 POP POP PUSH1 0x80 DUP7 ADD CALLDATALOAD PUSH8 0xFFFFFFFFFFFFFFFF DUP2 GT ISZERO PUSH2 0xF06 JUMPI PUSH2 0xF05 PUSH2 0x1837 JUMP JUMPDEST JUMPDEST PUSH2 0xF12 DUP9 DUP3 DUP10 ADD PUSH2 0xDA9 JUMP JUMPDEST SWAP2 POP POP SWAP3 SWAP6 POP SWAP3 SWAP6 SWAP1 SWAP4 POP JUMP JUMPDEST PUSH1 0x0 DUP1 PUSH1 0x0 DUP1 PUSH1 0x80 DUP6 DUP8 SUB SLT ISZERO PUSH2 0xF39 JUMPI PUSH2 0xF38 PUSH2 0x183C JUMP JUMPDEST JUMPDEST PUSH1 0x0 PUSH2 0xF47 DUP8 DUP3 DUP9 ADD PUSH2 0xDD7 JUMP JUMPDEST SWAP5 POP POP PUSH1 0x20 PUSH2 0xF58 DUP8 DUP3 DUP9 ADD PUSH2 0xDD7 JUMP JUMPDEST SWAP4 POP POP PUSH1 0x40 PUSH2 0xF69 DUP8 DUP3 DUP9 ADD PUSH2 0xDD7 JUMP JUMPDEST SWAP3 POP POP PUSH1 0x60 DUP6 ADD CALLDATALOAD PUSH8 0xFFFFFFFFFFFFFFFF DUP2 GT ISZERO PUSH2 0xF8A JUMPI PUSH2 0xF89 PUSH2 0x1837 JUMP JUMPDEST JUMPDEST PUSH2 0xF96 DUP8 DUP3 DUP9 ADD PUSH2 0xDA9 JUMP JUMPDEST SWAP2 POP POP SWAP3 SWAP6 SWAP2 SWAP5 POP SWAP3 POP JUMP JUMPDEST PUSH1 0x0 PUSH2 0xFAE DUP4 DUP4 PUSH2 0x1166 JUMP JUMPDEST PUSH1 0x20 DUP4 ADD SWAP1 POP SWAP3 SWAP2 POP POP JUMP JUMPDEST PUSH2 0xFC3 DUP2 PUSH2 0x15AD JUMP JUMPDEST DUP3 MSTORE POP POP JUMP JUMPDEST PUSH2 0xFDA PUSH2 0xFD5 DUP3 PUSH2 0x15AD JUMP JUMPDEST PUSH2 0x16E3 JUMP JUMPDEST DUP3 MSTORE POP POP JUMP JUMPDEST PUSH1 0x0 PUSH2 0xFEB DUP3 PUSH2 0x1479 JUMP JUMPDEST PUSH2 0xFF5 DUP2 DUP6 PUSH2 0x149C JUMP JUMPDEST SWAP4 POP PUSH2 0x1000 DUP4 PUSH2 0x1469 JUMP JUMPDEST DUP1 PUSH1 0x0 JUMPDEST DUP4 DUP2 LT ISZERO PUSH2 0x1031 JUMPI DUP2 MLOAD PUSH2 0x1018 DUP9 DUP3 PUSH2 0xFA2 JUMP JUMPDEST SWAP8 POP PUSH2 0x1023 DUP4 PUSH2 0x148F JUMP JUMPDEST SWAP3 POP POP PUSH1 0x1 DUP2 ADD SWAP1 POP PUSH2 0x1004 JUMP JUMPDEST POP DUP6 SWAP4 POP POP POP POP SWAP3 SWAP2 POP POP JUMP JUMPDEST PUSH2 0x1047 DUP2 PUSH2 0x15BF JUMP JUMPDEST DUP3 MSTORE POP POP JUMP JUMPDEST PUSH1 0x0 PUSH2 0x1058 DUP3 PUSH2 0x1484 JUMP JUMPDEST PUSH2 0x1062 DUP2 DUP6 PUSH2 0x14AD JUMP JUMPDEST SWAP4 POP PUSH2 0x1072 DUP2 DUP6 PUSH1 0x20 DUP7 ADD PUSH2 0x1604 JUMP JUMPDEST PUSH2 0x107B DUP2 PUSH2 0x1841 JUMP JUMPDEST DUP5 ADD SWAP2 POP POP SWAP3 SWAP2 POP POP JUMP JUMPDEST PUSH1 0x0 PUSH2 0x1091 DUP3 PUSH2 0x1484 JUMP JUMPDEST PUSH2 0x109B DUP2 DUP6 PUSH2 0x14BE JUMP JUMPDEST SWAP4 POP PUSH2 0x10AB DUP2 DUP6 PUSH1 0x20 DUP7 ADD PUSH2 0x1604 JUMP JUMPDEST DUP1 DUP5 ADD SWAP2 POP POP SWAP3 SWAP2 POP POP JUMP JUMPDEST PUSH1 0x0 PUSH2 0x10C4 PUSH1 0x14 DUP4 PUSH2 0x14AD JUMP JUMPDEST SWAP2 POP PUSH2 0x10CF DUP3 PUSH2 0x185F JUMP JUMPDEST PUSH1 0x20 DUP3 ADD SWAP1 POP SWAP2 SWAP1 POP JUMP JUMPDEST PUSH1 0x0 PUSH2 0x10E7 PUSH1 0x23 DUP4 PUSH2 0x14AD JUMP JUMPDEST SWAP2 POP PUSH2 0x10F2 DUP3 PUSH2 0x1888 JUMP JUMPDEST PUSH1 0x40 DUP3 ADD SWAP1 POP SWAP2 SWAP1 POP JUMP JUMPDEST PUSH1 0x0 PUSH2 0x110A PUSH1 0x1B DUP4 PUSH2 0x14AD JUMP JUMPDEST SWAP2 POP PUSH2 0x1115 DUP3 PUSH2 0x18D7 JUMP JUMPDEST PUSH1 0x20 DUP3 ADD SWAP1 POP SWAP2 SWAP1 POP JUMP JUMPDEST PUSH1 0x0 PUSH2 0x112D PUSH1 0x12 DUP4 PUSH2 0x14AD JUMP JUMPDEST SWAP2 POP PUSH2 0x1138 DUP3 PUSH2 0x1900 JUMP JUMPDEST PUSH1 0x20 DUP3 ADD SWAP1 POP SWAP2 SWAP1 POP JUMP JUMPDEST PUSH1 0x0 PUSH2 0x1150 PUSH1 0x2B DUP4 PUSH2 0x14AD JUMP JUMPDEST SWAP2 POP PUSH2 0x115B DUP3 PUSH2 0x1929 JUMP JUMPDEST PUSH1 0x40 DUP3 ADD SWAP1 POP SWAP2 SWAP1 POP JUMP JUMPDEST PUSH2 0x116F DUP2 PUSH2 0x15EB JUMP JUMPDEST DUP3 MSTORE POP POP JUMP JUMPDEST PUSH2 0x117E DUP2 PUSH2 0x15EB JUMP JUMPDEST DUP3 MSTORE POP POP JUMP JUMPDEST PUSH2 0x1195 PUSH2 0x1190 DUP3 PUSH2 0x15EB JUMP JUMPDEST PUSH2 0x1707 JUMP JUMPDEST DUP3 MSTORE POP POP JUMP JUMPDEST PUSH1 0x0 PUSH2 0x11A7 DUP3 DUP7 PUSH2 0xFC9 JUMP JUMPDEST PUSH1 0x14 DUP3 ADD SWAP2 POP PUSH2 0x11B7 DUP3 DUP6 PUSH2 0x1184 JUMP JUMPDEST PUSH1 0x20 DUP3 ADD SWAP2 POP PUSH2 0x11C7 DUP3 DUP5 PUSH2 0x1086 JUMP JUMPDEST SWAP2 POP DUP2 SWAP1 POP SWAP5 SWAP4 POP POP POP POP JUMP JUMPDEST PUSH1 0x0 PUSH1 0x20 DUP3 ADD SWAP1 POP PUSH2 0x11E9 PUSH1 0x0 DUP4 ADD DUP5 PUSH2 0xFBA JUMP JUMPDEST SWAP3 SWAP2 POP POP JUMP JUMPDEST PUSH1 0x0 PUSH1 0x60 DUP3 ADD SWAP1 POP PUSH2 0x1204 PUSH1 0x0 DUP4 ADD DUP7 PUSH2 0xFBA JUMP JUMPDEST PUSH2 0x1211 PUSH1 0x20 DUP4 ADD DUP6 PUSH2 0xFBA JUMP JUMPDEST PUSH2 0x121E PUSH1 0x40 DUP4 ADD DUP5 PUSH2 0x1175 JUMP JUMPDEST SWAP5 SWAP4 POP POP POP POP JUMP JUMPDEST PUSH1 0x0 PUSH1 0x20 DUP3 ADD SWAP1 POP DUP2 DUP2 SUB PUSH1 0x0 DUP4 ADD MSTORE PUSH2 0x1240 DUP2 DUP5 PUSH2 0xFE0 JUMP JUMPDEST SWAP1 POP SWAP3 SWAP2 POP POP JUMP JUMPDEST PUSH1 0x0 PUSH1 0x20 DUP3 ADD SWAP1 POP DUP2 DUP2 SUB PUSH1 0x0 DUP4 ADD MSTORE PUSH2 0x1262 DUP2 DUP5 PUSH2 0x104D JUMP JUMPDEST SWAP1 POP SWAP3 SWAP2 POP POP JUMP JUMPDEST PUSH1 0x0 PUSH1 0x20 DUP3 ADD SWAP1 POP DUP2 DUP2 SUB PUSH1 0x0 DUP4 ADD MSTORE PUSH2 0x1283 DUP2 PUSH2 0x10B7 JUMP JUMPDEST SWAP1 POP SWAP2 SWAP1 POP JUMP JUMPDEST PUSH1 0x0 PUSH1 0x20 DUP3 ADD SWAP1 POP DUP2 DUP2 SUB PUSH1 0x0 DUP4 ADD MSTORE PUSH2 0x12A3 DUP2 PUSH2 0x10DA JUMP JUMPDEST SWAP1 POP SWAP2 SWAP1 POP JUMP JUMPDEST PUSH1 0x0 PUSH1 0x20 DUP3 ADD SWAP1 POP DUP2 DUP2 SUB PUSH1 0x0 DUP4 ADD MSTORE PUSH2 0x12C3 DUP2 PUSH2 0x10FD JUMP JUMPDEST SWAP1 POP SWAP2 SWAP1 POP JUMP JUMPDEST PUSH1 0x0 PUSH1 0x20 DUP3 ADD SWAP1 POP DUP2 DUP2 SUB PUSH1 0x0 DUP4 ADD MSTORE PUSH2 0x12E3 DUP2 PUSH2 0x1120 JUMP JUMPDEST SWAP1 POP SWAP2 SWAP1 POP JUMP JUMPDEST PUSH1 0x0 PUSH1 0x20 DUP3 ADD SWAP1 POP DUP2 DUP2 SUB PUSH1 0x0 DUP4 ADD MSTORE PUSH2 0x1303 DUP2 PUSH2 0x1143 JUMP JUMPDEST SWAP1 POP SWAP2 SWAP1 POP JUMP JUMPDEST PUSH1 0x0 PUSH1 0x20 DUP3 ADD SWAP1 POP PUSH2 0x131F PUSH1 0x0 DUP4 ADD DUP5 PUSH2 0x1175 JUMP JUMPDEST SWAP3 SWAP2 POP POP JUMP JUMPDEST PUSH1 0x0 PUSH1 0xA0 DUP3 ADD SWAP1 POP PUSH2 0x133A PUSH1 0x0 DUP4 ADD DUP9 PUSH2 0x1175 JUMP JUMPDEST PUSH2 0x1347 PUSH1 0x20 DUP4 ADD DUP8 PUSH2 0xFBA JUMP JUMPDEST PUSH2 0x1354 PUSH1 0x40 DUP4 ADD DUP7 PUSH2 0x1175 JUMP JUMPDEST PUSH2 0x1361 PUSH1 0x60 DUP4 ADD DUP6 PUSH2 0x1175 JUMP JUMPDEST DUP2 DUP2 SUB PUSH1 0x80 DUP4 ADD MSTORE PUSH2 0x1373 DUP2 DUP5 PUSH2 0x104D JUMP JUMPDEST SWAP1 POP SWAP7 SWAP6 POP POP POP POP POP POP JUMP JUMPDEST PUSH1 0x0 PUSH2 0x120 DUP3 ADD SWAP1 POP PUSH2 0x1395 PUSH1 0x0 DUP4 ADD DUP13 PUSH2 0x1175 JUMP JUMPDEST PUSH2 0x13A2 PUSH1 0x20 DUP4 ADD DUP12 PUSH2 0x1175 JUMP JUMPDEST PUSH2 0x13AF PUSH1 0x40 DUP4 ADD DUP11 PUSH2 0x1175 JUMP JUMPDEST PUSH2 0x13BC PUSH1 0x60 DUP4 ADD DUP10 PUSH2 0x1175 JUMP JUMPDEST PUSH2 0x13C9 PUSH1 0x80 DUP4 ADD DUP9 PUSH2 0x1175 JUMP JUMPDEST PUSH2 0x13D6 PUSH1 0xA0 DUP4 ADD DUP8 PUSH2 0xFBA JUMP JUMPDEST PUSH2 0x13E3 PUSH1 0xC0 DUP4 ADD DUP7 PUSH2 0xFBA JUMP JUMPDEST DUP2 DUP2 SUB PUSH1 0xE0 DUP4 ADD MSTORE PUSH2 0x13F5 DUP2 DUP6 PUSH2 0x104D JUMP JUMPDEST SWAP1 POP PUSH2 0x1405 PUSH2 0x100 DUP4 ADD DUP5 PUSH2 0x103E JUMP JUMPDEST SWAP11 SWAP10 POP POP POP POP POP POP POP POP POP POP JUMP JUMPDEST PUSH1 0x0 PUSH2 0x141D PUSH2 0x142E JUMP JUMPDEST SWAP1 POP PUSH2 0x1429 DUP3 DUP3 PUSH2 0x1669 JUMP JUMPDEST SWAP2 SWAP1 POP JUMP JUMPDEST PUSH1 0x0 PUSH1 0x40 MLOAD SWAP1 POP SWAP1 JUMP JUMPDEST PUSH1 0x0 PUSH8 0xFFFFFFFFFFFFFFFF DUP3 GT ISZERO PUSH2 0x1453 JUMPI PUSH2 0x1452 PUSH2 0x17FE JUMP JUMPDEST JUMPDEST PUSH2 0x145C DUP3 PUSH2 0x1841 JUMP JUMPDEST SWAP1 POP PUSH1 0x20 DUP2 ADD SWAP1 POP SWAP2 SWAP1 POP JUMP JUMPDEST PUSH1 0x0 DUP2 SWAP1 POP PUSH1 0x20 DUP3 ADD SWAP1 POP SWAP2 SWAP1 POP JUMP JUMPDEST PUSH1 0x0 DUP2 MLOAD SWAP1 POP SWAP2 SWAP1 POP JUMP JUMPDEST PUSH1 0x0 DUP2 MLOAD SWAP1 POP SWAP2 SWAP1 POP JUMP JUMPDEST PUSH1 0x0 PUSH1 0x20 DUP3 ADD SWAP1 POP SWAP2 SWAP1 POP JUMP JUMPDEST PUSH1 0x0 DUP3 DUP3 MSTORE PUSH1 0x20 DUP3 ADD SWAP1 POP SWAP3 SWAP2 POP POP JUMP JUMPDEST PUSH1 0x0 DUP3 DUP3 MSTORE PUSH1 0x20 DUP3 ADD SWAP1 POP SWAP3 SWAP2 POP POP JUMP JUMPDEST PUSH1 0x0 DUP2 SWAP1 POP SWAP3 SWAP2 POP POP JUMP JUMPDEST PUSH1 0x0 PUSH2 0x14D4 DUP3 PUSH2 0x15EB JUMP JUMPDEST SWAP2 POP PUSH2 0x14DF DUP4 PUSH2 0x15EB JUMP JUMPDEST SWAP3 POP DUP3 PUSH32 0xFFFFFFFFFFFFFFFFFFFFFFFFFFFFFFFFFFFFFFFFFFFFFFFFFFFFFFFFFFFFFFFF SUB DUP3 GT ISZERO PUSH2 0x1514 JUMPI PUSH2 0x1513 PUSH2 0x1742 JUMP JUMPDEST JUMPDEST DUP3 DUP3 ADD SWAP1 POP SWAP3 SWAP2 POP POP JUMP JUMPDEST PUSH1 0x0 PUSH2 0x152A DUP3 PUSH2 0x15EB JUMP JUMPDEST SWAP2 POP PUSH2 0x1535 DUP4 PUSH2 0x15EB JUMP JUMPDEST SWAP3 POP DUP2 PUSH32 0xFFFFFFFFFFFFFFFFFFFFFFFFFFFFFFFFFFFFFFFFFFFFFFFFFFFFFFFFFFFFFFFF DIV DUP4 GT DUP3 ISZERO ISZERO AND ISZERO PUSH2 0x156E JUMPI PUSH2 0x156D PUSH2 0x1742 JUMP JUMPDEST JUMPDEST DUP3 DUP3 MUL SWAP1 POP SWAP3 SWAP2 POP POP JUMP JUMPDEST PUSH1 0x0 PUSH2 0x1584 DUP3 PUSH2 0x15EB JUMP JUMPDEST SWAP2 POP PUSH2 0x158F DUP4 PUSH2 0x15EB JUMP JUMPDEST SWAP3 POP DUP3 DUP3 LT ISZERO PUSH2 0x15A2 JUMPI PUSH2 0x15A1 PUSH2 0x1742 JUMP JUMPDEST JUMPDEST DUP3 DUP3 SUB SWAP1 POP SWAP3 SWAP2 POP POP JUMP JUMPDEST PUSH1 0x0 PUSH2 0x15B8 DUP3 PUSH2 0x15CB JUMP JUMPDEST SWAP1 POP SWAP2 SWAP1 POP JUMP JUMPDEST PUSH1 0x0 DUP2 ISZERO ISZERO SWAP1 POP SWAP2 SWAP1 POP JUMP JUMPDEST PUSH1 0x0 PUSH20 0xFFFFFFFFFFFFFFFFFFFFFFFFFFFFFFFFFFFFFFFF DUP3 AND SWAP1 POP SWAP2 SWAP1 POP JUMP JUMPDEST PUSH1 0x0 DUP2 SWAP1 POP SWAP2 SWAP1 POP JUMP JUMPDEST DUP3 DUP2 DUP4 CALLDATACOPY PUSH1 0x0 DUP4 DUP4 ADD MSTORE POP POP POP JUMP JUMPDEST PUSH1 0x0 JUMPDEST DUP4 DUP2 LT ISZERO PUSH2 0x1622 JUMPI DUP1 DUP3 ADD MLOAD DUP2 DUP5 ADD MSTORE PUSH1 0x20 DUP2 ADD SWAP1 POP PUSH2 0x1607 JUMP JUMPDEST DUP4 DUP2 GT ISZERO PUSH2 0x1631 JUMPI PUSH1 0x0 DUP5 DUP5 ADD MSTORE JUMPDEST POP POP POP POP JUMP JUMPDEST PUSH1 0x0 PUSH1 0x2 DUP3 DIV SWAP1 POP PUSH1 0x1 DUP3 AND DUP1 PUSH2 0x164F JUMPI PUSH1 0x7F DUP3 AND SWAP2 POP JUMPDEST PUSH1 0x20 DUP3 LT DUP2 EQ ISZERO PUSH2 0x1663 JUMPI PUSH2 0x1662 PUSH2 0x17A0 JUMP JUMPDEST JUMPDEST POP SWAP2 SWAP1 POP JUMP JUMPDEST PUSH2 0x1672 DUP3 PUSH2 0x1841 JUMP JUMPDEST DUP2 ADD DUP2 DUP2 LT PUSH8 0xFFFFFFFFFFFFFFFF DUP3 GT OR ISZERO PUSH2 0x1691 JUMPI PUSH2 0x1690 PUSH2 0x17FE JUMP JUMPDEST JUMPDEST DUP1 PUSH1 0x40 MSTORE POP POP POP JUMP JUMPDEST PUSH1 0x0 PUSH2 0x16A5 DUP3 PUSH2 0x15EB JUMP JUMPDEST SWAP2 POP PUSH32 0xFFFFFFFFFFFFFFFFFFFFFFFFFFFFFFFFFFFFFFFFFFFFFFFFFFFFFFFFFFFFFFFF DUP3 EQ ISZERO PUSH2 0x16D8 JUMPI PUSH2 0x16D7 PUSH2 0x1742 JUMP JUMPDEST JUMPDEST PUSH1 0x1 DUP3 ADD SWAP1 POP SWAP2 SWAP1 POP JUMP JUMPDEST PUSH1 0x0 PUSH2 0x16EE DUP3 PUSH2 0x16F5 JUMP JUMPDEST SWAP1 POP SWAP2 SWAP1 POP JUMP JUMPDEST PUSH1 0x0 PUSH2 0x1700 DUP3 PUSH2 0x1852 JUMP JUMPDEST SWAP1 POP SWAP2 SWAP1 POP JUMP JUMPDEST PUSH1 0x0 DUP2 SWAP1 POP SWAP2 SWAP1 POP JUMP JUMPDEST PUSH1 0x0 PUSH2 0x171C DUP3 PUSH2 0x15EB JUMP JUMPDEST SWAP2 POP PUSH2 0x1727 DUP4 PUSH2 0x15EB JUMP JUMPDEST SWAP3 POP DUP3 PUSH2 0x1737 JUMPI PUSH2 0x1736 PUSH2 0x1771 JUMP JUMPDEST JUMPDEST DUP3 DUP3 MOD SWAP1 POP SWAP3 SWAP2 POP POP JUMP JUMPDEST PUSH32 0x4E487B7100000000000000000000000000000000000000000000000000000000 PUSH1 0x0 MSTORE PUSH1 0x11 PUSH1 0x4 MSTORE PUSH1 0x24 PUSH1 0x0 REVERT JUMPDEST PUSH32 0x4E487B7100000000000000000000000000000000000000000000000000000000 PUSH1 0x0 MSTORE PUSH1 0x12 PUSH1 0x4 MSTORE PUSH1 0x24 PUSH1 0x0 REVERT JUMPDEST PUSH32 0x4E487B7100000000000000000000000000000000000000000000000000000000 PUSH1 0x0 MSTORE PUSH1 0x22 PUSH1 0x4 MSTORE PUSH1 0x24 PUSH1 0x0 REVERT JUMPDEST PUSH32 0x4E487B7100000000000000000000000000000000000000000000000000000000 PUSH1 0x0 MSTORE PUSH1 0x32 PUSH1 0x4 MSTORE PUSH1 0x24 PUSH1 0x0 REVERT JUMPDEST PUSH32 0x4E487B7100000000000000000000000000000000000000000000000000000000 PUSH1 0x0 MSTORE PUSH1 0x41 PUSH1 0x4 MSTORE PUSH1 0x24 PUSH1 0x0 REVERT JUMPDEST PUSH1 0x0 DUP1 REVERT JUMPDEST PUSH1 0x0 DUP1 REVERT JUMPDEST PUSH1 0x0 DUP1 REVERT JUMPDEST PUSH1 0x0 DUP1 REVERT JUMPDEST PUSH1 0x0 PUSH1 0x1F NOT PUSH1 0x1F DUP4 ADD AND SWAP1 POP SWAP2 SWAP1 POP JUMP JUMPDEST PUSH1 0x0 DUP2 PUSH1 0x60 SHL SWAP1 POP SWAP2 SWAP1 POP JUMP JUMPDEST PUSH32 0x76616C75652063616E6E6F74206265206E756C6C000000000000000000000000 PUSH1 0x0 DUP3 ADD MSTORE POP JUMP JUMPDEST PUSH32 0x546865206F776E65722063616E6E6F7420796574206164642061206E65772068 PUSH1 0x0 DUP3 ADD MSTORE PUSH32 0x6F6D650000000000000000000000000000000000000000000000000000000000 PUSH1 0x20 DUP3 ADD MSTORE POP JUMP JUMPDEST PUSH32 0x7468697320686F757365496420616C7265616479206578697374730000000000 PUSH1 0x0 DUP3 ADD MSTORE POP JUMP JUMPDEST PUSH32 0x5472616E73616374696F6E206661696C65640000000000000000000000000000 PUSH1 0x0 DUP3 ADD MSTORE POP JUMP JUMPDEST PUSH32 0x596F7520646F206E6F7420686176652061636365737320746F2064656C657465 PUSH1 0x0 DUP3 ADD MSTORE PUSH32 0x207468697320686F757365000000000000000000000000000000000000000000 PUSH1 0x20 DUP3 ADD MSTORE POP JUMP JUMPDEST PUSH2 0x1981 DUP2 PUSH2 0x15AD JUMP JUMPDEST DUP2 EQ PUSH2 0x198C JUMPI PUSH1 0x0 DUP1 REVERT JUMPDEST POP JUMP JUMPDEST PUSH2 0x1998 DUP2 PUSH2 0x15BF JUMP JUMPDEST DUP2 EQ PUSH2 0x19A3 JUMPI PUSH1 0x0 DUP1 REVERT JUMPDEST POP JUMP JUMPDEST PUSH2 0x19AF DUP2 PUSH2 0x15EB JUMP JUMPDEST DUP2 EQ PUSH2 0x19BA JUMPI PUSH1 0x0 DUP1 REVERT JUMPDEST POP JUMP INVALID LOG2 PUSH5 0x6970667358 0x22 SLT KECCAK256 RETURNDATASIZE 0xD3 PUSH12 0xEA9067D645C80F7ECE1830C PUSH29 0x9096F244515409A7DABCFA152DD5A1F564736F6C634300080700330000 "
				},
				"gasEstimates": {
					"creation": {
						"codeDepositCost": "1328600",
						"executionCost": "infinite",
						"totalCost": "infinite"
					},
					"external": {
						"buyHouseWithDai(uint256)": "infinite",
						"buyHouseWithETH(uint256)": "infinite",
						"delistHouse(uint256)": "infinite",
						"getCheapHouseIds(uint256)": "infinite",
						"houses(uint256)": "infinite",
						"listHouse(uint256,uint256,uint256,address,string)": "infinite",
						"listHouseSimple(uint256,uint256,uint256,string)": "infinite"
					}
				},
				"methodIdentifiers": {
					"buyHouseWithDai(uint256)": "06e361bd",
					"buyHouseWithETH(uint256)": "4d79658b",
					"delistHouse(uint256)": "3c3b0b4a",
					"getCheapHouseIds(uint256)": "c45e1b25",
					"houses(uint256)": "aeda852f",
					"listHouse(uint256,uint256,uint256,address,string)": "19161161",
					"listHouseSimple(uint256,uint256,uint256,string)": "fdec9c9f"
				}
			},
			"storageLayout": {
				"storage": [
					{
						"astId": 4,
						"contract": "contract/HouseRegistryExt.sol:HouseRegistryExt",
						"label": "digits",
						"offset": 0,
						"slot": "0",
						"type": "t_uint256"
					},
					{
						"astId": 9,
						"contract": "contract/HouseRegistryExt.sol:HouseRegistryExt",
						"label": "modulus",
						"offset": 0,
						"slot": "1",
						"type": "t_uint256"
					},
					{
						"astId": 12,
						"contract": "contract/HouseRegistryExt.sol:HouseRegistryExt",
						"label": "cooldownTime",
						"offset": 0,
						"slot": "2",
						"type": "t_uint256"
					},
					{
						"astId": 15,
						"contract": "contract/HouseRegistryExt.sol:HouseRegistryExt",
						"label": "countOfHouses",
						"offset": 0,
						"slot": "3",
						"type": "t_uint256"
					},
					{
						"astId": 17,
						"contract": "contract/HouseRegistryExt.sol:HouseRegistryExt",
						"label": "ownerAddCooldown",
						"offset": 0,
						"slot": "4",
						"type": "t_uint256"
					},
					{
						"astId": 63,
						"contract": "contract/HouseRegistryExt.sol:HouseRegistryExt",
						"label": "houseIndex",
						"offset": 0,
						"slot": "5",
						"type": "t_array(t_uint256)dyn_storage"
					},
					{
						"astId": 68,
						"contract": "contract/HouseRegistryExt.sol:HouseRegistryExt",
						"label": "houses",
						"offset": 0,
						"slot": "6",
						"type": "t_mapping(t_uint256,t_struct(House)36_storage)"
					}
				],
				"types": {
					"t_address": {
						"encoding": "inplace",
						"label": "address",
						"numberOfBytes": "20"
					},
					"t_array(t_uint256)dyn_storage": {
						"base": "t_uint256",
						"encoding": "dynamic_array",
						"label": "uint256[]",
						"numberOfBytes": "32"
					},
					"t_bool": {
						"encoding": "inplace",
						"label": "bool",
						"numberOfBytes": "1"
					},
					"t_mapping(t_uint256,t_struct(House)36_storage)": {
						"encoding": "mapping",
						"key": "t_uint256",
						"label": "mapping(uint256 => struct HouseRegistry.House)",
						"numberOfBytes": "32",
						"value": "t_struct(House)36_storage"
					},
					"t_string_storage": {
						"encoding": "bytes",
						"label": "string",
						"numberOfBytes": "32"
					},
					"t_struct(House)36_storage": {
						"encoding": "inplace",
						"label": "struct HouseRegistry.House",
						"members": [
							{
								"astId": 19,
								"contract": "contract/HouseRegistryExt.sol:HouseRegistryExt",
								"label": "id",
								"offset": 0,
								"slot": "0",
								"type": "t_uint256"
							},
							{
								"astId": 21,
								"contract": "contract/HouseRegistryExt.sol:HouseRegistryExt",
								"label": "serialNumber",
								"offset": 0,
								"slot": "1",
								"type": "t_uint256"
							},
							{
								"astId": 23,
								"contract": "contract/HouseRegistryExt.sol:HouseRegistryExt",
								"label": "price",
								"offset": 0,
								"slot": "2",
								"type": "t_uint256"
							},
							{
								"astId": 25,
								"contract": "contract/HouseRegistryExt.sol:HouseRegistryExt",
								"label": "priceDai",
								"offset": 0,
								"slot": "3",
								"type": "t_uint256"
							},
							{
								"astId": 27,
								"contract": "contract/HouseRegistryExt.sol:HouseRegistryExt",
								"label": "area",
								"offset": 0,
								"slot": "4",
								"type": "t_uint256"
							},
							{
								"astId": 29,
								"contract": "contract/HouseRegistryExt.sol:HouseRegistryExt",
								"label": "sellerAddress",
								"offset": 0,
								"slot": "5",
								"type": "t_address"
							},
							{
								"astId": 31,
								"contract": "contract/HouseRegistryExt.sol:HouseRegistryExt",
								"label": "buyerAddress",
								"offset": 0,
								"slot": "6",
								"type": "t_address"
							},
							{
								"astId": 33,
								"contract": "contract/HouseRegistryExt.sol:HouseRegistryExt",
								"label": "houseAddress",
								"offset": 0,
								"slot": "7",
								"type": "t_string_storage"
							},
							{
								"astId": 35,
								"contract": "contract/HouseRegistryExt.sol:HouseRegistryExt",
								"label": "isdelistedHouse",
								"offset": 0,
								"slot": "8",
								"type": "t_bool"
							}
						],
						"numberOfBytes": "288"
					},
					"t_uint256": {
						"encoding": "inplace",
						"label": "uint256",
						"numberOfBytes": "32"
					}
				}
			},
			"userdoc": {
				"kind": "user",
				"methods": {},
				"version": 1
			}
		}
	}
}