{
	"contract/HouseRegistry.sol": {
		"HouseRegistry": {
			"abi": [
				{
					"anonymous": false,
					"inputs": [
						{
							"indexed": false,
							"internalType": "uint256",
							"name": "houseId",
							"type": "uint256"
						},
						{
							"indexed": false,
							"internalType": "address",
							"name": "sellerAddress",
							"type": "address"
						},
						{
							"indexed": false,
							"internalType": "uint256",
							"name": "price",
							"type": "uint256"
						},
						{
							"indexed": false,
							"internalType": "string",
							"name": "houseAddress",
							"type": "string"
						}
					],
					"name": "AddNewHouse",
					"type": "event"
				},
				{
					"inputs": [
						{
							"internalType": "uint256",
							"name": "_price",
							"type": "uint256"
						},
						{
							"internalType": "uint256",
							"name": "_area",
							"type": "uint256"
						},
						{
							"internalType": "address",
							"name": "_sellerAddress",
							"type": "address"
						},
						{
							"internalType": "string",
							"name": "_houseAddress",
							"type": "string"
						}
					],
					"name": "listHouse",
					"outputs": [
						{
							"internalType": "uint256",
							"name": "",
							"type": "uint256"
						}
					],
					"stateMutability": "nonpayable",
					"type": "function"
				}
			],
			"devdoc": {
				"kind": "dev",
				"methods": {},
				"version": 1
			},
			"evm": {
				"assembly": "    /* \"contract/HouseRegistry.sol\":62:1101  contract HouseRegistry {... */\n  mstore(0x40, 0x80)\n    /* \"contract/HouseRegistry.sol\":106:107  5 */\n  0x05\n    /* \"contract/HouseRegistry.sol\":92:107  uint digits = 5 */\n  0x00\n  sstore\n    /* \"contract/HouseRegistry.sol\":134:140  digits */\n  sload(0x00)\n    /* \"contract/HouseRegistry.sol\":128:130  10 */\n  0x0a\n    /* \"contract/HouseRegistry.sol\":128:140  10 ** digits */\n  tag_1\n  swap2\n  swap1\n  tag_2\n  jump\t// in\ntag_1:\n    /* \"contract/HouseRegistry.sol\":113:140  uint modulus = 10 ** digits */\n  0x01\n  sstore\n    /* \"contract/HouseRegistry.sol\":62:1101  contract HouseRegistry {... */\n  callvalue\n  dup1\n  iszero\n  tag_3\n  jumpi\n  0x00\n  dup1\n  revert\ntag_3:\n  pop\n  jump(tag_4)\n    /* \"#utility.yul\":7:855   */\ntag_6:\n    /* \"#utility.yul\":68:73   */\n  0x00\n    /* \"#utility.yul\":75:79   */\n  dup1\n    /* \"#utility.yul\":99:105   */\n  dup3\n    /* \"#utility.yul\":90:105   */\n  swap2\n  pop\n    /* \"#utility.yul\":123:128   */\n  dup4\n    /* \"#utility.yul\":114:128   */\n  swap1\n  pop\n    /* \"#utility.yul\":137:849   */\ntag_8:\n    /* \"#utility.yul\":158:159   */\n  0x01\n    /* \"#utility.yul\":148:156   */\n  dup6\n    /* \"#utility.yul\":145:160   */\n  gt\n    /* \"#utility.yul\":137:849   */\n  iszero\n  tag_10\n  jumpi\n    /* \"#utility.yul\":253:257   */\n  dup1\n    /* \"#utility.yul\":248:251   */\n  dup7\n    /* \"#utility.yul\":244:258   */\n  div\n    /* \"#utility.yul\":238:242   */\n  dup2\n    /* \"#utility.yul\":235:259   */\n  gt\n    /* \"#utility.yul\":232:282   */\n  iszero\n  tag_11\n  jumpi\n    /* \"#utility.yul\":262:280   */\n  tag_12\n  tag_13\n  jump\t// in\ntag_12:\n    /* \"#utility.yul\":232:282   */\ntag_11:\n    /* \"#utility.yul\":312:313   */\n  0x01\n    /* \"#utility.yul\":302:310   */\n  dup6\n    /* \"#utility.yul\":298:314   */\n  and\n    /* \"#utility.yul\":295:746   */\n  iszero\n  tag_14\n  jumpi\n    /* \"#utility.yul\":727:731   */\n  dup1\n    /* \"#utility.yul\":720:725   */\n  dup3\n    /* \"#utility.yul\":716:732   */\n  mul\n    /* \"#utility.yul\":707:732   */\n  swap2\n  pop\n    /* \"#utility.yul\":295:746   */\ntag_14:\n    /* \"#utility.yul\":777:781   */\n  dup1\n    /* \"#utility.yul\":771:775   */\n  dup2\n    /* \"#utility.yul\":767:782   */\n  mul\n    /* \"#utility.yul\":759:782   */\n  swap1\n  pop\n    /* \"#utility.yul\":807:839   */\n  tag_15\n    /* \"#utility.yul\":830:838   */\n  dup6\n    /* \"#utility.yul\":807:839   */\n  tag_16\n  jump\t// in\ntag_15:\n    /* \"#utility.yul\":795:839   */\n  swap5\n  pop\n    /* \"#utility.yul\":137:849   */\n  jump(tag_8)\ntag_10:\n    /* \"#utility.yul\":7:855   */\n  swap5\n  pop\n  swap5\n  swap3\n  pop\n  pop\n  pop\n  jump\t// out\n    /* \"#utility.yul\":861:1146   */\ntag_2:\n    /* \"#utility.yul\":921:926   */\n  0x00\n    /* \"#utility.yul\":945:968   */\n  tag_18\n    /* \"#utility.yul\":963:967   */\n  dup3\n    /* \"#utility.yul\":945:968   */\n  tag_19\n  jump\t// in\ntag_18:\n    /* \"#utility.yul\":937:968   */\n  swap2\n  pop\n    /* \"#utility.yul\":989:1016   */\n  tag_20\n    /* \"#utility.yul\":1007:1015   */\n  dup4\n    /* \"#utility.yul\":989:1016   */\n  tag_19\n  jump\t// in\ntag_20:\n    /* \"#utility.yul\":977:1016   */\n  swap3\n  pop\n    /* \"#utility.yul\":1035:1139   */\n  tag_21\n    /* \"#utility.yul\":1072:1138   */\n  0xffffffffffffffffffffffffffffffffffffffffffffffffffffffffffffffff\n    /* \"#utility.yul\":1062:1070   */\n  dup5\n    /* \"#utility.yul\":1056:1060   */\n  dup5\n    /* \"#utility.yul\":1035:1139   */\n  tag_22\n  jump\t// in\ntag_21:\n    /* \"#utility.yul\":1026:1139   */\n  swap1\n  pop\n    /* \"#utility.yul\":861:1146   */\n  swap3\n  swap2\n  pop\n  pop\n  jump\t// out\n    /* \"#utility.yul\":1152:2225   */\ntag_22:\n    /* \"#utility.yul\":1206:1211   */\n  0x00\n    /* \"#utility.yul\":1397:1405   */\n  dup3\n    /* \"#utility.yul\":1387:1427   */\n  tag_24\n  jumpi\n    /* \"#utility.yul\":1418:1419   */\n  0x01\n    /* \"#utility.yul\":1409:1419   */\n  swap1\n  pop\n    /* \"#utility.yul\":1420:1425   */\n  jump(tag_23)\n    /* \"#utility.yul\":1387:1427   */\ntag_24:\n    /* \"#utility.yul\":1446:1450   */\n  dup2\n    /* \"#utility.yul\":1436:1472   */\n  tag_25\n  jumpi\n    /* \"#utility.yul\":1463:1464   */\n  0x00\n    /* \"#utility.yul\":1454:1464   */\n  swap1\n  pop\n    /* \"#utility.yul\":1465:1470   */\n  jump(tag_23)\n    /* \"#utility.yul\":1436:1472   */\ntag_25:\n    /* \"#utility.yul\":1532:1536   */\n  dup2\n    /* \"#utility.yul\":1580:1581   */\n  0x01\n    /* \"#utility.yul\":1575:1602   */\n  dup2\n  eq\n  tag_27\n  jumpi\n    /* \"#utility.yul\":1616:1617   */\n  0x02\n    /* \"#utility.yul\":1611:1802   */\n  dup2\n  eq\n  tag_28\n  jumpi\n    /* \"#utility.yul\":1525:1802   */\n  jump(tag_26)\n    /* \"#utility.yul\":1575:1602   */\ntag_27:\n    /* \"#utility.yul\":1593:1594   */\n  0x01\n    /* \"#utility.yul\":1584:1594   */\n  swap2\n  pop\n    /* \"#utility.yul\":1595:1600   */\n  pop\n  jump(tag_23)\n    /* \"#utility.yul\":1611:1802   */\ntag_28:\n    /* \"#utility.yul\":1656:1659   */\n  0xff\n    /* \"#utility.yul\":1646:1654   */\n  dup5\n    /* \"#utility.yul\":1643:1660   */\n  gt\n    /* \"#utility.yul\":1640:1683   */\n  iszero\n  tag_29\n  jumpi\n    /* \"#utility.yul\":1663:1681   */\n  tag_30\n  tag_13\n  jump\t// in\ntag_30:\n    /* \"#utility.yul\":1640:1683   */\ntag_29:\n    /* \"#utility.yul\":1712:1720   */\n  dup4\n    /* \"#utility.yul\":1709:1710   */\n  0x02\n    /* \"#utility.yul\":1705:1721   */\n  exp\n    /* \"#utility.yul\":1696:1721   */\n  swap2\n  pop\n    /* \"#utility.yul\":1747:1750   */\n  dup5\n    /* \"#utility.yul\":1740:1745   */\n  dup3\n    /* \"#utility.yul\":1737:1751   */\n  gt\n    /* \"#utility.yul\":1734:1774   */\n  iszero\n  tag_31\n  jumpi\n    /* \"#utility.yul\":1754:1772   */\n  tag_32\n  tag_13\n  jump\t// in\ntag_32:\n    /* \"#utility.yul\":1734:1774   */\ntag_31:\n    /* \"#utility.yul\":1787:1792   */\n  pop\n  jump(tag_23)\n    /* \"#utility.yul\":1525:1802   */\ntag_26:\n  pop\n    /* \"#utility.yul\":1911:1913   */\n  0x20\n    /* \"#utility.yul\":1901:1909   */\n  dup4\n    /* \"#utility.yul\":1898:1914   */\n  lt\n    /* \"#utility.yul\":1892:1895   */\n  0x0133\n    /* \"#utility.yul\":1886:1890   */\n  dup4\n    /* \"#utility.yul\":1883:1896   */\n  lt\n    /* \"#utility.yul\":1879:1915   */\n  and\n    /* \"#utility.yul\":1861:1863   */\n  0x4e\n    /* \"#utility.yul\":1851:1859   */\n  dup5\n    /* \"#utility.yul\":1848:1864   */\n  lt\n    /* \"#utility.yul\":1843:1845   */\n  0x0b\n    /* \"#utility.yul\":1837:1841   */\n  dup5\n    /* \"#utility.yul\":1834:1846   */\n  lt\n    /* \"#utility.yul\":1830:1865   */\n  and\n    /* \"#utility.yul\":1814:1925   */\n  or\n    /* \"#utility.yul\":1811:2057   */\n  iszero\n  tag_33\n  jumpi\n    /* \"#utility.yul\":1967:1975   */\n  dup3\n    /* \"#utility.yul\":1961:1965   */\n  dup3\n    /* \"#utility.yul\":1957:1976   */\n  exp\n    /* \"#utility.yul\":1948:1976   */\n  swap1\n  pop\n    /* \"#utility.yul\":2002:2005   */\n  dup4\n    /* \"#utility.yul\":1995:2000   */\n  dup2\n    /* \"#utility.yul\":1992:2006   */\n  gt\n    /* \"#utility.yul\":1989:2029   */\n  iszero\n  tag_34\n  jumpi\n    /* \"#utility.yul\":2009:2027   */\n  tag_35\n  tag_13\n  jump\t// in\ntag_35:\n    /* \"#utility.yul\":1989:2029   */\ntag_34:\n    /* \"#utility.yul\":2042:2047   */\n  jump(tag_23)\n    /* \"#utility.yul\":1811:2057   */\ntag_33:\n    /* \"#utility.yul\":2082:2124   */\n  tag_36\n    /* \"#utility.yul\":2120:2123   */\n  dup5\n    /* \"#utility.yul\":2110:2118   */\n  dup5\n    /* \"#utility.yul\":2104:2108   */\n  dup5\n    /* \"#utility.yul\":2101:2102   */\n  0x01\n    /* \"#utility.yul\":2082:2124   */\n  tag_6\n  jump\t// in\ntag_36:\n    /* \"#utility.yul\":2067:2124   */\n  swap3\n  pop\n  swap1\n  pop\n    /* \"#utility.yul\":2156:2160   */\n  dup2\n    /* \"#utility.yul\":2151:2154   */\n  dup5\n    /* \"#utility.yul\":2147:2161   */\n  div\n    /* \"#utility.yul\":2140:2145   */\n  dup2\n    /* \"#utility.yul\":2137:2162   */\n  gt\n    /* \"#utility.yul\":2134:2185   */\n  iszero\n  tag_37\n  jumpi\n    /* \"#utility.yul\":2165:2183   */\n  tag_38\n  tag_13\n  jump\t// in\ntag_38:\n    /* \"#utility.yul\":2134:2185   */\ntag_37:\n    /* \"#utility.yul\":2214:2218   */\n  dup2\n    /* \"#utility.yul\":2207:2212   */\n  dup2\n    /* \"#utility.yul\":2203:2219   */\n  mul\n    /* \"#utility.yul\":2194:2219   */\n  swap1\n  pop\n    /* \"#utility.yul\":1152:2225   */\ntag_23:\n  swap4\n  swap3\n  pop\n  pop\n  pop\n  jump\t// out\n    /* \"#utility.yul\":2231:2308   */\ntag_19:\n    /* \"#utility.yul\":2268:2275   */\n  0x00\n    /* \"#utility.yul\":2297:2302   */\n  dup2\n    /* \"#utility.yul\":2286:2302   */\n  swap1\n  pop\n    /* \"#utility.yul\":2231:2308   */\n  swap2\n  swap1\n  pop\n  jump\t// out\n    /* \"#utility.yul\":2314:2494   */\ntag_13:\n    /* \"#utility.yul\":2362:2439   */\n  0x4e487b7100000000000000000000000000000000000000000000000000000000\n    /* \"#utility.yul\":2359:2360   */\n  0x00\n    /* \"#utility.yul\":2352:2440   */\n  mstore\n    /* \"#utility.yul\":2459:2463   */\n  0x11\n    /* \"#utility.yul\":2456:2457   */\n  0x04\n    /* \"#utility.yul\":2449:2464   */\n  mstore\n    /* \"#utility.yul\":2483:2487   */\n  0x24\n    /* \"#utility.yul\":2480:2481   */\n  0x00\n    /* \"#utility.yul\":2473:2488   */\n  revert\n    /* \"#utility.yul\":2500:2602   */\ntag_16:\n    /* \"#utility.yul\":2542:2550   */\n  0x00\n    /* \"#utility.yul\":2589:2594   */\n  dup2\n    /* \"#utility.yul\":2586:2587   */\n  0x01\n    /* \"#utility.yul\":2582:2595   */\n  shr\n    /* \"#utility.yul\":2561:2595   */\n  swap1\n  pop\n    /* \"#utility.yul\":2500:2602   */\n  swap2\n  swap1\n  pop\n  jump\t// out\n    /* \"contract/HouseRegistry.sol\":62:1101  contract HouseRegistry {... */\ntag_4:\n  dataSize(sub_0)\n  dup1\n  dataOffset(sub_0)\n  0x00\n  codecopy\n  0x00\n  return\nstop\n\nsub_0: assembly {\n        /* \"contract/HouseRegistry.sol\":62:1101  contract HouseRegistry {... */\n      mstore(0x40, 0x80)\n      callvalue\n      dup1\n      iszero\n      tag_1\n      jumpi\n      0x00\n      dup1\n      revert\n    tag_1:\n      pop\n      jumpi(tag_2, lt(calldatasize, 0x04))\n      shr(0xe0, calldataload(0x00))\n      dup1\n      0x91bfe0d4\n      eq\n      tag_3\n      jumpi\n    tag_2:\n      0x00\n      dup1\n      revert\n        /* \"contract/HouseRegistry.sol\":447:838  function listHouse (uint _price, uint _area, address _sellerAddress, string memory _houseAddress) public returns (uint) {... */\n    tag_3:\n      tag_4\n      0x04\n      dup1\n      calldatasize\n      sub\n      dup2\n      add\n      swap1\n      tag_5\n      swap2\n      swap1\n      tag_6\n      jump\t// in\n    tag_5:\n      tag_7\n      jump\t// in\n    tag_4:\n      mload(0x40)\n      tag_8\n      swap2\n      swap1\n      tag_9\n      jump\t// in\n    tag_8:\n      mload(0x40)\n      dup1\n      swap2\n      sub\n      swap1\n      return\n    tag_7:\n        /* \"contract/HouseRegistry.sol\":561:565  uint */\n      0x00\n        /* \"contract/HouseRegistry.sol\":577:589  uint houseId */\n      dup1\n        /* \"contract/HouseRegistry.sol\":592:646  _generateHouseId(_sellerAddress, _area, _houseAddress) */\n      tag_11\n        /* \"contract/HouseRegistry.sol\":609:623  _sellerAddress */\n      dup5\n        /* \"contract/HouseRegistry.sol\":625:630  _area */\n      dup7\n        /* \"contract/HouseRegistry.sol\":632:645  _houseAddress */\n      dup6\n        /* \"contract/HouseRegistry.sol\":592:608  _generateHouseId */\n      tag_12\n        /* \"contract/HouseRegistry.sol\":592:646  _generateHouseId(_sellerAddress, _area, _houseAddress) */\n      jump\t// in\n    tag_11:\n        /* \"contract/HouseRegistry.sol\":577:646  uint houseId = _generateHouseId(_sellerAddress, _area, _houseAddress) */\n      swap1\n      pop\n        /* \"contract/HouseRegistry.sol\":747:806  AddNewHouse(houseId, _sellerAddress, _price, _houseAddress) */\n      0x8f5afd88eb4be0ac287d87970052ce9a2b453448408e3c91a695ad7509ab7194\n        /* \"contract/HouseRegistry.sol\":759:766  houseId */\n      dup2\n        /* \"contract/HouseRegistry.sol\":768:782  _sellerAddress */\n      dup6\n        /* \"contract/HouseRegistry.sol\":784:790  _price */\n      dup9\n        /* \"contract/HouseRegistry.sol\":792:805  _houseAddress */\n      dup7\n        /* \"contract/HouseRegistry.sol\":747:806  AddNewHouse(houseId, _sellerAddress, _price, _houseAddress) */\n      mload(0x40)\n      tag_13\n      swap5\n      swap4\n      swap3\n      swap2\n      swap1\n      tag_14\n      jump\t// in\n    tag_13:\n      mload(0x40)\n      dup1\n      swap2\n      sub\n      swap1\n      log1\n        /* \"contract/HouseRegistry.sol\":823:830  houseId */\n      dup1\n        /* \"contract/HouseRegistry.sol\":816:830  return houseId */\n      swap2\n      pop\n      pop\n        /* \"contract/HouseRegistry.sol\":447:838  function listHouse (uint _price, uint _area, address _sellerAddress, string memory _houseAddress) public returns (uint) {... */\n      swap5\n      swap4\n      pop\n      pop\n      pop\n      pop\n      jump\t// out\n        /* \"contract/HouseRegistry.sol\":844:1098  function _generateHouseId(address _sellerAddress, uint _area, string memory _houseAddress) private view returns(uint){... */\n    tag_12:\n        /* \"contract/HouseRegistry.sol\":956:960  uint */\n      0x00\n        /* \"contract/HouseRegistry.sol\":971:983  uint houseId */\n      dup1\n        /* \"contract/HouseRegistry.sol\":1018:1032  _sellerAddress */\n      dup5\n        /* \"contract/HouseRegistry.sol\":1034:1039  _area */\n      dup5\n        /* \"contract/HouseRegistry.sol\":1041:1054  _houseAddress */\n      dup5\n        /* \"contract/HouseRegistry.sol\":1001:1055  abi.encodePacked(_sellerAddress, _area, _houseAddress) */\n      add(0x20, mload(0x40))\n      tag_16\n      swap4\n      swap3\n      swap2\n      swap1\n      tag_17\n      jump\t// in\n    tag_16:\n      mload(0x40)\n      0x20\n      dup2\n      dup4\n      sub\n      sub\n      dup2\n      mstore\n      swap1\n      0x40\n      mstore\n        /* \"contract/HouseRegistry.sol\":991:1056  keccak256(abi.encodePacked(_sellerAddress, _area, _houseAddress)) */\n      dup1\n      mload\n      swap1\n      0x20\n      add\n      keccak256\n        /* \"contract/HouseRegistry.sol\":986:1057  uint(keccak256(abi.encodePacked(_sellerAddress, _area, _houseAddress))) */\n      0x00\n      shr\n        /* \"contract/HouseRegistry.sol\":971:1057  uint houseId = uint(keccak256(abi.encodePacked(_sellerAddress, _area, _houseAddress))) */\n      swap1\n      pop\n        /* \"contract/HouseRegistry.sol\":1084:1091  modulus */\n      sload(0x01)\n        /* \"contract/HouseRegistry.sol\":1074:1081  houseId */\n      dup2\n        /* \"contract/HouseRegistry.sol\":1074:1091  houseId % modulus */\n      tag_18\n      swap2\n      swap1\n      tag_19\n      jump\t// in\n    tag_18:\n        /* \"contract/HouseRegistry.sol\":1067:1091  return houseId % modulus */\n      swap2\n      pop\n      pop\n        /* \"contract/HouseRegistry.sol\":844:1098  function _generateHouseId(address _sellerAddress, uint _area, string memory _houseAddress) private view returns(uint){... */\n      swap4\n      swap3\n      pop\n      pop\n      pop\n      jump\t// out\n        /* \"#utility.yul\":7:419   */\n    tag_21:\n        /* \"#utility.yul\":85:90   */\n      0x00\n        /* \"#utility.yul\":110:176   */\n      tag_23\n        /* \"#utility.yul\":126:175   */\n      tag_24\n        /* \"#utility.yul\":168:174   */\n      dup5\n        /* \"#utility.yul\":126:175   */\n      tag_25\n      jump\t// in\n    tag_24:\n        /* \"#utility.yul\":110:176   */\n      tag_26\n      jump\t// in\n    tag_23:\n        /* \"#utility.yul\":101:176   */\n      swap1\n      pop\n        /* \"#utility.yul\":199:205   */\n      dup3\n        /* \"#utility.yul\":192:197   */\n      dup2\n        /* \"#utility.yul\":185:206   */\n      mstore\n        /* \"#utility.yul\":237:241   */\n      0x20\n        /* \"#utility.yul\":230:235   */\n      dup2\n        /* \"#utility.yul\":226:242   */\n      add\n        /* \"#utility.yul\":275:278   */\n      dup5\n        /* \"#utility.yul\":266:272   */\n      dup5\n        /* \"#utility.yul\":261:264   */\n      dup5\n        /* \"#utility.yul\":257:273   */\n      add\n        /* \"#utility.yul\":254:279   */\n      gt\n        /* \"#utility.yul\":251:363   */\n      iszero\n      tag_27\n      jumpi\n        /* \"#utility.yul\":282:361   */\n      tag_28\n      tag_29\n      jump\t// in\n    tag_28:\n        /* \"#utility.yul\":251:363   */\n    tag_27:\n        /* \"#utility.yul\":372:413   */\n      tag_30\n        /* \"#utility.yul\":406:412   */\n      dup5\n        /* \"#utility.yul\":401:404   */\n      dup3\n        /* \"#utility.yul\":396:399   */\n      dup6\n        /* \"#utility.yul\":372:413   */\n      tag_31\n      jump\t// in\n    tag_30:\n        /* \"#utility.yul\":91:419   */\n      pop\n        /* \"#utility.yul\":7:419   */\n      swap4\n      swap3\n      pop\n      pop\n      pop\n      jump\t// out\n        /* \"#utility.yul\":425:564   */\n    tag_32:\n        /* \"#utility.yul\":471:476   */\n      0x00\n        /* \"#utility.yul\":509:515   */\n      dup2\n        /* \"#utility.yul\":496:516   */\n      calldataload\n        /* \"#utility.yul\":487:516   */\n      swap1\n      pop\n        /* \"#utility.yul\":525:558   */\n      tag_34\n        /* \"#utility.yul\":552:557   */\n      dup2\n        /* \"#utility.yul\":525:558   */\n      tag_35\n      jump\t// in\n    tag_34:\n        /* \"#utility.yul\":425:564   */\n      swap3\n      swap2\n      pop\n      pop\n      jump\t// out\n        /* \"#utility.yul\":584:924   */\n    tag_36:\n        /* \"#utility.yul\":640:645   */\n      0x00\n        /* \"#utility.yul\":689:692   */\n      dup3\n        /* \"#utility.yul\":682:686   */\n      0x1f\n        /* \"#utility.yul\":674:680   */\n      dup4\n        /* \"#utility.yul\":670:687   */\n      add\n        /* \"#utility.yul\":666:693   */\n      slt\n        /* \"#utility.yul\":656:778   */\n      tag_38\n      jumpi\n        /* \"#utility.yul\":697:776   */\n      tag_39\n      tag_40\n      jump\t// in\n    tag_39:\n        /* \"#utility.yul\":656:778   */\n    tag_38:\n        /* \"#utility.yul\":814:820   */\n      dup2\n        /* \"#utility.yul\":801:821   */\n      calldataload\n        /* \"#utility.yul\":839:918   */\n      tag_41\n        /* \"#utility.yul\":914:917   */\n      dup5\n        /* \"#utility.yul\":906:912   */\n      dup3\n        /* \"#utility.yul\":899:903   */\n      0x20\n        /* \"#utility.yul\":891:897   */\n      dup7\n        /* \"#utility.yul\":887:904   */\n      add\n        /* \"#utility.yul\":839:918   */\n      tag_21\n      jump\t// in\n    tag_41:\n        /* \"#utility.yul\":830:918   */\n      swap2\n      pop\n        /* \"#utility.yul\":646:924   */\n      pop\n        /* \"#utility.yul\":584:924   */\n      swap3\n      swap2\n      pop\n      pop\n      jump\t// out\n        /* \"#utility.yul\":930:1069   */\n    tag_42:\n        /* \"#utility.yul\":976:981   */\n      0x00\n        /* \"#utility.yul\":1014:1020   */\n      dup2\n        /* \"#utility.yul\":1001:1021   */\n      calldataload\n        /* \"#utility.yul\":992:1021   */\n      swap1\n      pop\n        /* \"#utility.yul\":1030:1063   */\n      tag_44\n        /* \"#utility.yul\":1057:1062   */\n      dup2\n        /* \"#utility.yul\":1030:1063   */\n      tag_45\n      jump\t// in\n    tag_44:\n        /* \"#utility.yul\":930:1069   */\n      swap3\n      swap2\n      pop\n      pop\n      jump\t// out\n        /* \"#utility.yul\":1075:2020   */\n    tag_6:\n        /* \"#utility.yul\":1171:1177   */\n      0x00\n        /* \"#utility.yul\":1179:1185   */\n      dup1\n        /* \"#utility.yul\":1187:1193   */\n      0x00\n        /* \"#utility.yul\":1195:1201   */\n      dup1\n        /* \"#utility.yul\":1244:1247   */\n      0x80\n        /* \"#utility.yul\":1232:1241   */\n      dup6\n        /* \"#utility.yul\":1223:1230   */\n      dup8\n        /* \"#utility.yul\":1219:1242   */\n      sub\n        /* \"#utility.yul\":1215:1248   */\n      slt\n        /* \"#utility.yul\":1212:1332   */\n      iszero\n      tag_47\n      jumpi\n        /* \"#utility.yul\":1251:1330   */\n      tag_48\n      tag_49\n      jump\t// in\n    tag_48:\n        /* \"#utility.yul\":1212:1332   */\n    tag_47:\n        /* \"#utility.yul\":1371:1372   */\n      0x00\n        /* \"#utility.yul\":1396:1449   */\n      tag_50\n        /* \"#utility.yul\":1441:1448   */\n      dup8\n        /* \"#utility.yul\":1432:1438   */\n      dup3\n        /* \"#utility.yul\":1421:1430   */\n      dup9\n        /* \"#utility.yul\":1417:1439   */\n      add\n        /* \"#utility.yul\":1396:1449   */\n      tag_42\n      jump\t// in\n    tag_50:\n        /* \"#utility.yul\":1386:1449   */\n      swap5\n      pop\n        /* \"#utility.yul\":1342:1459   */\n      pop\n        /* \"#utility.yul\":1498:1500   */\n      0x20\n        /* \"#utility.yul\":1524:1577   */\n      tag_51\n        /* \"#utility.yul\":1569:1576   */\n      dup8\n        /* \"#utility.yul\":1560:1566   */\n      dup3\n        /* \"#utility.yul\":1549:1558   */\n      dup9\n        /* \"#utility.yul\":1545:1567   */\n      add\n        /* \"#utility.yul\":1524:1577   */\n      tag_42\n      jump\t// in\n    tag_51:\n        /* \"#utility.yul\":1514:1577   */\n      swap4\n      pop\n        /* \"#utility.yul\":1469:1587   */\n      pop\n        /* \"#utility.yul\":1626:1628   */\n      0x40\n        /* \"#utility.yul\":1652:1705   */\n      tag_52\n        /* \"#utility.yul\":1697:1704   */\n      dup8\n        /* \"#utility.yul\":1688:1694   */\n      dup3\n        /* \"#utility.yul\":1677:1686   */\n      dup9\n        /* \"#utility.yul\":1673:1695   */\n      add\n        /* \"#utility.yul\":1652:1705   */\n      tag_32\n      jump\t// in\n    tag_52:\n        /* \"#utility.yul\":1642:1705   */\n      swap3\n      pop\n        /* \"#utility.yul\":1597:1715   */\n      pop\n        /* \"#utility.yul\":1782:1784   */\n      0x60\n        /* \"#utility.yul\":1771:1780   */\n      dup6\n        /* \"#utility.yul\":1767:1785   */\n      add\n        /* \"#utility.yul\":1754:1786   */\n      calldataload\n        /* \"#utility.yul\":1813:1831   */\n      0xffffffffffffffff\n        /* \"#utility.yul\":1805:1811   */\n      dup2\n        /* \"#utility.yul\":1802:1832   */\n      gt\n        /* \"#utility.yul\":1799:1916   */\n      iszero\n      tag_53\n      jumpi\n        /* \"#utility.yul\":1835:1914   */\n      tag_54\n      tag_55\n      jump\t// in\n    tag_54:\n        /* \"#utility.yul\":1799:1916   */\n    tag_53:\n        /* \"#utility.yul\":1940:2003   */\n      tag_56\n        /* \"#utility.yul\":1995:2002   */\n      dup8\n        /* \"#utility.yul\":1986:1992   */\n      dup3\n        /* \"#utility.yul\":1975:1984   */\n      dup9\n        /* \"#utility.yul\":1971:1993   */\n      add\n        /* \"#utility.yul\":1940:2003   */\n      tag_36\n      jump\t// in\n    tag_56:\n        /* \"#utility.yul\":1930:2003   */\n      swap2\n      pop\n        /* \"#utility.yul\":1725:2013   */\n      pop\n        /* \"#utility.yul\":1075:2020   */\n      swap3\n      swap6\n      swap2\n      swap5\n      pop\n      swap3\n      pop\n      jump\t// out\n        /* \"#utility.yul\":2026:2144   */\n    tag_57:\n        /* \"#utility.yul\":2113:2137   */\n      tag_59\n        /* \"#utility.yul\":2131:2136   */\n      dup2\n        /* \"#utility.yul\":2113:2137   */\n      tag_60\n      jump\t// in\n    tag_59:\n        /* \"#utility.yul\":2108:2111   */\n      dup3\n        /* \"#utility.yul\":2101:2138   */\n      mstore\n        /* \"#utility.yul\":2026:2144   */\n      pop\n      pop\n      jump\t// out\n        /* \"#utility.yul\":2150:2307   */\n    tag_61:\n        /* \"#utility.yul\":2255:2300   */\n      tag_63\n        /* \"#utility.yul\":2275:2299   */\n      tag_64\n        /* \"#utility.yul\":2293:2298   */\n      dup3\n        /* \"#utility.yul\":2275:2299   */\n      tag_60\n      jump\t// in\n    tag_64:\n        /* \"#utility.yul\":2255:2300   */\n      tag_65\n      jump\t// in\n    tag_63:\n        /* \"#utility.yul\":2250:2253   */\n      dup3\n        /* \"#utility.yul\":2243:2301   */\n      mstore\n        /* \"#utility.yul\":2150:2307   */\n      pop\n      pop\n      jump\t// out\n        /* \"#utility.yul\":2313:2677   */\n    tag_66:\n        /* \"#utility.yul\":2401:2404   */\n      0x00\n        /* \"#utility.yul\":2429:2468   */\n      tag_68\n        /* \"#utility.yul\":2462:2467   */\n      dup3\n        /* \"#utility.yul\":2429:2468   */\n      tag_69\n      jump\t// in\n    tag_68:\n        /* \"#utility.yul\":2484:2555   */\n      tag_70\n        /* \"#utility.yul\":2548:2554   */\n      dup2\n        /* \"#utility.yul\":2543:2546   */\n      dup6\n        /* \"#utility.yul\":2484:2555   */\n      tag_71\n      jump\t// in\n    tag_70:\n        /* \"#utility.yul\":2477:2555   */\n      swap4\n      pop\n        /* \"#utility.yul\":2564:2616   */\n      tag_72\n        /* \"#utility.yul\":2609:2615   */\n      dup2\n        /* \"#utility.yul\":2604:2607   */\n      dup6\n        /* \"#utility.yul\":2597:2601   */\n      0x20\n        /* \"#utility.yul\":2590:2595   */\n      dup7\n        /* \"#utility.yul\":2586:2602   */\n      add\n        /* \"#utility.yul\":2564:2616   */\n      tag_73\n      jump\t// in\n    tag_72:\n        /* \"#utility.yul\":2641:2670   */\n      tag_74\n        /* \"#utility.yul\":2663:2669   */\n      dup2\n        /* \"#utility.yul\":2641:2670   */\n      tag_75\n      jump\t// in\n    tag_74:\n        /* \"#utility.yul\":2636:2639   */\n      dup5\n        /* \"#utility.yul\":2632:2671   */\n      add\n        /* \"#utility.yul\":2625:2671   */\n      swap2\n      pop\n        /* \"#utility.yul\":2405:2677   */\n      pop\n        /* \"#utility.yul\":2313:2677   */\n      swap3\n      swap2\n      pop\n      pop\n      jump\t// out\n        /* \"#utility.yul\":2683:3060   */\n    tag_76:\n        /* \"#utility.yul\":2789:2792   */\n      0x00\n        /* \"#utility.yul\":2817:2856   */\n      tag_78\n        /* \"#utility.yul\":2850:2855   */\n      dup3\n        /* \"#utility.yul\":2817:2856   */\n      tag_69\n      jump\t// in\n    tag_78:\n        /* \"#utility.yul\":2872:2961   */\n      tag_79\n        /* \"#utility.yul\":2954:2960   */\n      dup2\n        /* \"#utility.yul\":2949:2952   */\n      dup6\n        /* \"#utility.yul\":2872:2961   */\n      tag_80\n      jump\t// in\n    tag_79:\n        /* \"#utility.yul\":2865:2961   */\n      swap4\n      pop\n        /* \"#utility.yul\":2970:3022   */\n      tag_81\n        /* \"#utility.yul\":3015:3021   */\n      dup2\n        /* \"#utility.yul\":3010:3013   */\n      dup6\n        /* \"#utility.yul\":3003:3007   */\n      0x20\n        /* \"#utility.yul\":2996:3001   */\n      dup7\n        /* \"#utility.yul\":2992:3008   */\n      add\n        /* \"#utility.yul\":2970:3022   */\n      tag_73\n      jump\t// in\n    tag_81:\n        /* \"#utility.yul\":3047:3053   */\n      dup1\n        /* \"#utility.yul\":3042:3045   */\n      dup5\n        /* \"#utility.yul\":3038:3054   */\n      add\n        /* \"#utility.yul\":3031:3054   */\n      swap2\n      pop\n        /* \"#utility.yul\":2793:3060   */\n      pop\n        /* \"#utility.yul\":2683:3060   */\n      swap3\n      swap2\n      pop\n      pop\n      jump\t// out\n        /* \"#utility.yul\":3066:3184   */\n    tag_82:\n        /* \"#utility.yul\":3153:3177   */\n      tag_84\n        /* \"#utility.yul\":3171:3176   */\n      dup2\n        /* \"#utility.yul\":3153:3177   */\n      tag_85\n      jump\t// in\n    tag_84:\n        /* \"#utility.yul\":3148:3151   */\n      dup3\n        /* \"#utility.yul\":3141:3178   */\n      mstore\n        /* \"#utility.yul\":3066:3184   */\n      pop\n      pop\n      jump\t// out\n        /* \"#utility.yul\":3190:3347   */\n    tag_86:\n        /* \"#utility.yul\":3295:3340   */\n      tag_88\n        /* \"#utility.yul\":3315:3339   */\n      tag_89\n        /* \"#utility.yul\":3333:3338   */\n      dup3\n        /* \"#utility.yul\":3315:3339   */\n      tag_85\n      jump\t// in\n    tag_89:\n        /* \"#utility.yul\":3295:3340   */\n      tag_90\n      jump\t// in\n    tag_88:\n        /* \"#utility.yul\":3290:3293   */\n      dup3\n        /* \"#utility.yul\":3283:3341   */\n      mstore\n        /* \"#utility.yul\":3190:3347   */\n      pop\n      pop\n      jump\t// out\n        /* \"#utility.yul\":3353:3910   */\n    tag_17:\n        /* \"#utility.yul\":3541:3544   */\n      0x00\n        /* \"#utility.yul\":3556:3631   */\n      tag_92\n        /* \"#utility.yul\":3627:3630   */\n      dup3\n        /* \"#utility.yul\":3618:3624   */\n      dup7\n        /* \"#utility.yul\":3556:3631   */\n      tag_61\n      jump\t// in\n    tag_92:\n        /* \"#utility.yul\":3656:3658   */\n      0x14\n        /* \"#utility.yul\":3651:3654   */\n      dup3\n        /* \"#utility.yul\":3647:3659   */\n      add\n        /* \"#utility.yul\":3640:3659   */\n      swap2\n      pop\n        /* \"#utility.yul\":3669:3744   */\n      tag_93\n        /* \"#utility.yul\":3740:3743   */\n      dup3\n        /* \"#utility.yul\":3731:3737   */\n      dup6\n        /* \"#utility.yul\":3669:3744   */\n      tag_86\n      jump\t// in\n    tag_93:\n        /* \"#utility.yul\":3769:3771   */\n      0x20\n        /* \"#utility.yul\":3764:3767   */\n      dup3\n        /* \"#utility.yul\":3760:3772   */\n      add\n        /* \"#utility.yul\":3753:3772   */\n      swap2\n      pop\n        /* \"#utility.yul\":3789:3884   */\n      tag_94\n        /* \"#utility.yul\":3880:3883   */\n      dup3\n        /* \"#utility.yul\":3871:3877   */\n      dup5\n        /* \"#utility.yul\":3789:3884   */\n      tag_76\n      jump\t// in\n    tag_94:\n        /* \"#utility.yul\":3782:3884   */\n      swap2\n      pop\n        /* \"#utility.yul\":3901:3904   */\n      dup2\n        /* \"#utility.yul\":3894:3904   */\n      swap1\n      pop\n        /* \"#utility.yul\":3353:3910   */\n      swap5\n      swap4\n      pop\n      pop\n      pop\n      pop\n      jump\t// out\n        /* \"#utility.yul\":3916:4138   */\n    tag_9:\n        /* \"#utility.yul\":4009:4013   */\n      0x00\n        /* \"#utility.yul\":4047:4049   */\n      0x20\n        /* \"#utility.yul\":4036:4045   */\n      dup3\n        /* \"#utility.yul\":4032:4050   */\n      add\n        /* \"#utility.yul\":4024:4050   */\n      swap1\n      pop\n        /* \"#utility.yul\":4060:4131   */\n      tag_96\n        /* \"#utility.yul\":4128:4129   */\n      0x00\n        /* \"#utility.yul\":4117:4126   */\n      dup4\n        /* \"#utility.yul\":4113:4130   */\n      add\n        /* \"#utility.yul\":4104:4110   */\n      dup5\n        /* \"#utility.yul\":4060:4131   */\n      tag_82\n      jump\t// in\n    tag_96:\n        /* \"#utility.yul\":3916:4138   */\n      swap3\n      swap2\n      pop\n      pop\n      jump\t// out\n        /* \"#utility.yul\":4144:4788   */\n    tag_14:\n        /* \"#utility.yul\":4341:4345   */\n      0x00\n        /* \"#utility.yul\":4379:4382   */\n      0x80\n        /* \"#utility.yul\":4368:4377   */\n      dup3\n        /* \"#utility.yul\":4364:4383   */\n      add\n        /* \"#utility.yul\":4356:4383   */\n      swap1\n      pop\n        /* \"#utility.yul\":4393:4464   */\n      tag_98\n        /* \"#utility.yul\":4461:4462   */\n      0x00\n        /* \"#utility.yul\":4450:4459   */\n      dup4\n        /* \"#utility.yul\":4446:4463   */\n      add\n        /* \"#utility.yul\":4437:4443   */\n      dup8\n        /* \"#utility.yul\":4393:4464   */\n      tag_82\n      jump\t// in\n    tag_98:\n        /* \"#utility.yul\":4474:4546   */\n      tag_99\n        /* \"#utility.yul\":4542:4544   */\n      0x20\n        /* \"#utility.yul\":4531:4540   */\n      dup4\n        /* \"#utility.yul\":4527:4545   */\n      add\n        /* \"#utility.yul\":4518:4524   */\n      dup7\n        /* \"#utility.yul\":4474:4546   */\n      tag_57\n      jump\t// in\n    tag_99:\n        /* \"#utility.yul\":4556:4628   */\n      tag_100\n        /* \"#utility.yul\":4624:4626   */\n      0x40\n        /* \"#utility.yul\":4613:4622   */\n      dup4\n        /* \"#utility.yul\":4609:4627   */\n      add\n        /* \"#utility.yul\":4600:4606   */\n      dup6\n        /* \"#utility.yul\":4556:4628   */\n      tag_82\n      jump\t// in\n    tag_100:\n        /* \"#utility.yul\":4675:4684   */\n      dup2\n        /* \"#utility.yul\":4669:4673   */\n      dup2\n        /* \"#utility.yul\":4665:4685   */\n      sub\n        /* \"#utility.yul\":4660:4662   */\n      0x60\n        /* \"#utility.yul\":4649:4658   */\n      dup4\n        /* \"#utility.yul\":4645:4663   */\n      add\n        /* \"#utility.yul\":4638:4686   */\n      mstore\n        /* \"#utility.yul\":4703:4781   */\n      tag_101\n        /* \"#utility.yul\":4776:4780   */\n      dup2\n        /* \"#utility.yul\":4767:4773   */\n      dup5\n        /* \"#utility.yul\":4703:4781   */\n      tag_66\n      jump\t// in\n    tag_101:\n        /* \"#utility.yul\":4695:4781   */\n      swap1\n      pop\n        /* \"#utility.yul\":4144:4788   */\n      swap6\n      swap5\n      pop\n      pop\n      pop\n      pop\n      pop\n      jump\t// out\n        /* \"#utility.yul\":4794:4923   */\n    tag_26:\n        /* \"#utility.yul\":4828:4834   */\n      0x00\n        /* \"#utility.yul\":4855:4875   */\n      tag_103\n      tag_104\n      jump\t// in\n    tag_103:\n        /* \"#utility.yul\":4845:4875   */\n      swap1\n      pop\n        /* \"#utility.yul\":4884:4917   */\n      tag_105\n        /* \"#utility.yul\":4912:4916   */\n      dup3\n        /* \"#utility.yul\":4904:4910   */\n      dup3\n        /* \"#utility.yul\":4884:4917   */\n      tag_106\n      jump\t// in\n    tag_105:\n        /* \"#utility.yul\":4794:4923   */\n      swap2\n      swap1\n      pop\n      jump\t// out\n        /* \"#utility.yul\":4929:5004   */\n    tag_104:\n        /* \"#utility.yul\":4962:4968   */\n      0x00\n        /* \"#utility.yul\":4995:4997   */\n      0x40\n        /* \"#utility.yul\":4989:4998   */\n      mload\n        /* \"#utility.yul\":4979:4998   */\n      swap1\n      pop\n        /* \"#utility.yul\":4929:5004   */\n      swap1\n      jump\t// out\n        /* \"#utility.yul\":5010:5318   */\n    tag_25:\n        /* \"#utility.yul\":5072:5076   */\n      0x00\n        /* \"#utility.yul\":5162:5180   */\n      0xffffffffffffffff\n        /* \"#utility.yul\":5154:5160   */\n      dup3\n        /* \"#utility.yul\":5151:5181   */\n      gt\n        /* \"#utility.yul\":5148:5204   */\n      iszero\n      tag_109\n      jumpi\n        /* \"#utility.yul\":5184:5202   */\n      tag_110\n      tag_111\n      jump\t// in\n    tag_110:\n        /* \"#utility.yul\":5148:5204   */\n    tag_109:\n        /* \"#utility.yul\":5222:5251   */\n      tag_112\n        /* \"#utility.yul\":5244:5250   */\n      dup3\n        /* \"#utility.yul\":5222:5251   */\n      tag_75\n      jump\t// in\n    tag_112:\n        /* \"#utility.yul\":5214:5251   */\n      swap1\n      pop\n        /* \"#utility.yul\":5306:5310   */\n      0x20\n        /* \"#utility.yul\":5300:5304   */\n      dup2\n        /* \"#utility.yul\":5296:5311   */\n      add\n        /* \"#utility.yul\":5288:5311   */\n      swap1\n      pop\n        /* \"#utility.yul\":5010:5318   */\n      swap2\n      swap1\n      pop\n      jump\t// out\n        /* \"#utility.yul\":5324:5423   */\n    tag_69:\n        /* \"#utility.yul\":5376:5382   */\n      0x00\n        /* \"#utility.yul\":5410:5415   */\n      dup2\n        /* \"#utility.yul\":5404:5416   */\n      mload\n        /* \"#utility.yul\":5394:5416   */\n      swap1\n      pop\n        /* \"#utility.yul\":5324:5423   */\n      swap2\n      swap1\n      pop\n      jump\t// out\n        /* \"#utility.yul\":5429:5598   */\n    tag_71:\n        /* \"#utility.yul\":5513:5524   */\n      0x00\n        /* \"#utility.yul\":5547:5553   */\n      dup3\n        /* \"#utility.yul\":5542:5545   */\n      dup3\n        /* \"#utility.yul\":5535:5554   */\n      mstore\n        /* \"#utility.yul\":5587:5591   */\n      0x20\n        /* \"#utility.yul\":5582:5585   */\n      dup3\n        /* \"#utility.yul\":5578:5592   */\n      add\n        /* \"#utility.yul\":5563:5592   */\n      swap1\n      pop\n        /* \"#utility.yul\":5429:5598   */\n      swap3\n      swap2\n      pop\n      pop\n      jump\t// out\n        /* \"#utility.yul\":5604:5752   */\n    tag_80:\n        /* \"#utility.yul\":5706:5717   */\n      0x00\n        /* \"#utility.yul\":5743:5746   */\n      dup2\n        /* \"#utility.yul\":5728:5746   */\n      swap1\n      pop\n        /* \"#utility.yul\":5604:5752   */\n      swap3\n      swap2\n      pop\n      pop\n      jump\t// out\n        /* \"#utility.yul\":5758:5854   */\n    tag_60:\n        /* \"#utility.yul\":5795:5802   */\n      0x00\n        /* \"#utility.yul\":5824:5848   */\n      tag_117\n        /* \"#utility.yul\":5842:5847   */\n      dup3\n        /* \"#utility.yul\":5824:5848   */\n      tag_118\n      jump\t// in\n    tag_117:\n        /* \"#utility.yul\":5813:5848   */\n      swap1\n      pop\n        /* \"#utility.yul\":5758:5854   */\n      swap2\n      swap1\n      pop\n      jump\t// out\n        /* \"#utility.yul\":5860:5986   */\n    tag_118:\n        /* \"#utility.yul\":5897:5904   */\n      0x00\n        /* \"#utility.yul\":5937:5979   */\n      0xffffffffffffffffffffffffffffffffffffffff\n        /* \"#utility.yul\":5930:5935   */\n      dup3\n        /* \"#utility.yul\":5926:5980   */\n      and\n        /* \"#utility.yul\":5915:5980   */\n      swap1\n      pop\n        /* \"#utility.yul\":5860:5986   */\n      swap2\n      swap1\n      pop\n      jump\t// out\n        /* \"#utility.yul\":5992:6069   */\n    tag_85:\n        /* \"#utility.yul\":6029:6036   */\n      0x00\n        /* \"#utility.yul\":6058:6063   */\n      dup2\n        /* \"#utility.yul\":6047:6063   */\n      swap1\n      pop\n        /* \"#utility.yul\":5992:6069   */\n      swap2\n      swap1\n      pop\n      jump\t// out\n        /* \"#utility.yul\":6075:6229   */\n    tag_31:\n        /* \"#utility.yul\":6159:6165   */\n      dup3\n        /* \"#utility.yul\":6154:6157   */\n      dup2\n        /* \"#utility.yul\":6149:6152   */\n      dup4\n        /* \"#utility.yul\":6136:6166   */\n      calldatacopy\n        /* \"#utility.yul\":6221:6222   */\n      0x00\n        /* \"#utility.yul\":6212:6218   */\n      dup4\n        /* \"#utility.yul\":6207:6210   */\n      dup4\n        /* \"#utility.yul\":6203:6219   */\n      add\n        /* \"#utility.yul\":6196:6223   */\n      mstore\n        /* \"#utility.yul\":6075:6229   */\n      pop\n      pop\n      pop\n      jump\t// out\n        /* \"#utility.yul\":6235:6542   */\n    tag_73:\n        /* \"#utility.yul\":6303:6304   */\n      0x00\n        /* \"#utility.yul\":6313:6426   */\n    tag_123:\n        /* \"#utility.yul\":6327:6333   */\n      dup4\n        /* \"#utility.yul\":6324:6325   */\n      dup2\n        /* \"#utility.yul\":6321:6334   */\n      lt\n        /* \"#utility.yul\":6313:6426   */\n      iszero\n      tag_125\n      jumpi\n        /* \"#utility.yul\":6412:6413   */\n      dup1\n        /* \"#utility.yul\":6407:6410   */\n      dup3\n        /* \"#utility.yul\":6403:6414   */\n      add\n        /* \"#utility.yul\":6397:6415   */\n      mload\n        /* \"#utility.yul\":6393:6394   */\n      dup2\n        /* \"#utility.yul\":6388:6391   */\n      dup5\n        /* \"#utility.yul\":6384:6395   */\n      add\n        /* \"#utility.yul\":6377:6416   */\n      mstore\n        /* \"#utility.yul\":6349:6351   */\n      0x20\n        /* \"#utility.yul\":6346:6347   */\n      dup2\n        /* \"#utility.yul\":6342:6352   */\n      add\n        /* \"#utility.yul\":6337:6352   */\n      swap1\n      pop\n        /* \"#utility.yul\":6313:6426   */\n      jump(tag_123)\n    tag_125:\n        /* \"#utility.yul\":6444:6450   */\n      dup4\n        /* \"#utility.yul\":6441:6442   */\n      dup2\n        /* \"#utility.yul\":6438:6451   */\n      gt\n        /* \"#utility.yul\":6435:6536   */\n      iszero\n      tag_126\n      jumpi\n        /* \"#utility.yul\":6524:6525   */\n      0x00\n        /* \"#utility.yul\":6515:6521   */\n      dup5\n        /* \"#utility.yul\":6510:6513   */\n      dup5\n        /* \"#utility.yul\":6506:6522   */\n      add\n        /* \"#utility.yul\":6499:6526   */\n      mstore\n        /* \"#utility.yul\":6435:6536   */\n    tag_126:\n        /* \"#utility.yul\":6284:6542   */\n      pop\n        /* \"#utility.yul\":6235:6542   */\n      pop\n      pop\n      pop\n      jump\t// out\n        /* \"#utility.yul\":6548:6829   */\n    tag_106:\n        /* \"#utility.yul\":6631:6658   */\n      tag_128\n        /* \"#utility.yul\":6653:6657   */\n      dup3\n        /* \"#utility.yul\":6631:6658   */\n      tag_75\n      jump\t// in\n    tag_128:\n        /* \"#utility.yul\":6623:6629   */\n      dup2\n        /* \"#utility.yul\":6619:6659   */\n      add\n        /* \"#utility.yul\":6761:6767   */\n      dup2\n        /* \"#utility.yul\":6749:6759   */\n      dup2\n        /* \"#utility.yul\":6746:6768   */\n      lt\n        /* \"#utility.yul\":6725:6743   */\n      0xffffffffffffffff\n        /* \"#utility.yul\":6713:6723   */\n      dup3\n        /* \"#utility.yul\":6710:6744   */\n      gt\n        /* \"#utility.yul\":6707:6769   */\n      or\n        /* \"#utility.yul\":6704:6792   */\n      iszero\n      tag_129\n      jumpi\n        /* \"#utility.yul\":6772:6790   */\n      tag_130\n      tag_111\n      jump\t// in\n    tag_130:\n        /* \"#utility.yul\":6704:6792   */\n    tag_129:\n        /* \"#utility.yul\":6812:6822   */\n      dup1\n        /* \"#utility.yul\":6808:6810   */\n      0x40\n        /* \"#utility.yul\":6801:6823   */\n      mstore\n        /* \"#utility.yul\":6591:6829   */\n      pop\n        /* \"#utility.yul\":6548:6829   */\n      pop\n      pop\n      jump\t// out\n        /* \"#utility.yul\":6835:6935   */\n    tag_65:\n        /* \"#utility.yul\":6874:6881   */\n      0x00\n        /* \"#utility.yul\":6903:6929   */\n      tag_132\n        /* \"#utility.yul\":6923:6928   */\n      dup3\n        /* \"#utility.yul\":6903:6929   */\n      tag_133\n      jump\t// in\n    tag_132:\n        /* \"#utility.yul\":6892:6929   */\n      swap1\n      pop\n        /* \"#utility.yul\":6835:6935   */\n      swap2\n      swap1\n      pop\n      jump\t// out\n        /* \"#utility.yul\":6941:7035   */\n    tag_133:\n        /* \"#utility.yul\":6980:6987   */\n      0x00\n        /* \"#utility.yul\":7009:7029   */\n      tag_135\n        /* \"#utility.yul\":7023:7028   */\n      dup3\n        /* \"#utility.yul\":7009:7029   */\n      tag_136\n      jump\t// in\n    tag_135:\n        /* \"#utility.yul\":6998:7029   */\n      swap1\n      pop\n        /* \"#utility.yul\":6941:7035   */\n      swap2\n      swap1\n      pop\n      jump\t// out\n        /* \"#utility.yul\":7041:7120   */\n    tag_90:\n        /* \"#utility.yul\":7080:7087   */\n      0x00\n        /* \"#utility.yul\":7109:7114   */\n      dup2\n        /* \"#utility.yul\":7098:7114   */\n      swap1\n      pop\n        /* \"#utility.yul\":7041:7120   */\n      swap2\n      swap1\n      pop\n      jump\t// out\n        /* \"#utility.yul\":7126:7302   */\n    tag_19:\n        /* \"#utility.yul\":7158:7159   */\n      0x00\n        /* \"#utility.yul\":7175:7195   */\n      tag_139\n        /* \"#utility.yul\":7193:7194   */\n      dup3\n        /* \"#utility.yul\":7175:7195   */\n      tag_85\n      jump\t// in\n    tag_139:\n        /* \"#utility.yul\":7170:7195   */\n      swap2\n      pop\n        /* \"#utility.yul\":7209:7229   */\n      tag_140\n        /* \"#utility.yul\":7227:7228   */\n      dup4\n        /* \"#utility.yul\":7209:7229   */\n      tag_85\n      jump\t// in\n    tag_140:\n        /* \"#utility.yul\":7204:7229   */\n      swap3\n      pop\n        /* \"#utility.yul\":7248:7249   */\n      dup3\n        /* \"#utility.yul\":7238:7273   */\n      tag_141\n      jumpi\n        /* \"#utility.yul\":7253:7271   */\n      tag_142\n      tag_143\n      jump\t// in\n    tag_142:\n        /* \"#utility.yul\":7238:7273   */\n    tag_141:\n        /* \"#utility.yul\":7294:7295   */\n      dup3\n        /* \"#utility.yul\":7291:7292   */\n      dup3\n        /* \"#utility.yul\":7287:7296   */\n      mod\n        /* \"#utility.yul\":7282:7296   */\n      swap1\n      pop\n        /* \"#utility.yul\":7126:7302   */\n      swap3\n      swap2\n      pop\n      pop\n      jump\t// out\n        /* \"#utility.yul\":7308:7488   */\n    tag_143:\n        /* \"#utility.yul\":7356:7433   */\n      0x4e487b7100000000000000000000000000000000000000000000000000000000\n        /* \"#utility.yul\":7353:7354   */\n      0x00\n        /* \"#utility.yul\":7346:7434   */\n      mstore\n        /* \"#utility.yul\":7453:7457   */\n      0x12\n        /* \"#utility.yul\":7450:7451   */\n      0x04\n        /* \"#utility.yul\":7443:7458   */\n      mstore\n        /* \"#utility.yul\":7477:7481   */\n      0x24\n        /* \"#utility.yul\":7474:7475   */\n      0x00\n        /* \"#utility.yul\":7467:7482   */\n      revert\n        /* \"#utility.yul\":7494:7674   */\n    tag_111:\n        /* \"#utility.yul\":7542:7619   */\n      0x4e487b7100000000000000000000000000000000000000000000000000000000\n        /* \"#utility.yul\":7539:7540   */\n      0x00\n        /* \"#utility.yul\":7532:7620   */\n      mstore\n        /* \"#utility.yul\":7639:7643   */\n      0x41\n        /* \"#utility.yul\":7636:7637   */\n      0x04\n        /* \"#utility.yul\":7629:7644   */\n      mstore\n        /* \"#utility.yul\":7663:7667   */\n      0x24\n        /* \"#utility.yul\":7660:7661   */\n      0x00\n        /* \"#utility.yul\":7653:7668   */\n      revert\n        /* \"#utility.yul\":7680:7797   */\n    tag_40:\n        /* \"#utility.yul\":7789:7790   */\n      0x00\n        /* \"#utility.yul\":7786:7787   */\n      dup1\n        /* \"#utility.yul\":7779:7791   */\n      revert\n        /* \"#utility.yul\":7803:7920   */\n    tag_29:\n        /* \"#utility.yul\":7912:7913   */\n      0x00\n        /* \"#utility.yul\":7909:7910   */\n      dup1\n        /* \"#utility.yul\":7902:7914   */\n      revert\n        /* \"#utility.yul\":7926:8043   */\n    tag_55:\n        /* \"#utility.yul\":8035:8036   */\n      0x00\n        /* \"#utility.yul\":8032:8033   */\n      dup1\n        /* \"#utility.yul\":8025:8037   */\n      revert\n        /* \"#utility.yul\":8049:8166   */\n    tag_49:\n        /* \"#utility.yul\":8158:8159   */\n      0x00\n        /* \"#utility.yul\":8155:8156   */\n      dup1\n        /* \"#utility.yul\":8148:8160   */\n      revert\n        /* \"#utility.yul\":8172:8274   */\n    tag_75:\n        /* \"#utility.yul\":8213:8219   */\n      0x00\n        /* \"#utility.yul\":8264:8266   */\n      0x1f\n        /* \"#utility.yul\":8260:8267   */\n      not\n        /* \"#utility.yul\":8255:8257   */\n      0x1f\n        /* \"#utility.yul\":8248:8253   */\n      dup4\n        /* \"#utility.yul\":8244:8258   */\n      add\n        /* \"#utility.yul\":8240:8268   */\n      and\n        /* \"#utility.yul\":8230:8268   */\n      swap1\n      pop\n        /* \"#utility.yul\":8172:8274   */\n      swap2\n      swap1\n      pop\n      jump\t// out\n        /* \"#utility.yul\":8280:8374   */\n    tag_136:\n        /* \"#utility.yul\":8313:8321   */\n      0x00\n        /* \"#utility.yul\":8361:8366   */\n      dup2\n        /* \"#utility.yul\":8357:8359   */\n      0x60\n        /* \"#utility.yul\":8353:8367   */\n      shl\n        /* \"#utility.yul\":8332:8367   */\n      swap1\n      pop\n        /* \"#utility.yul\":8280:8374   */\n      swap2\n      swap1\n      pop\n      jump\t// out\n        /* \"#utility.yul\":8380:8502   */\n    tag_35:\n        /* \"#utility.yul\":8453:8477   */\n      tag_153\n        /* \"#utility.yul\":8471:8476   */\n      dup2\n        /* \"#utility.yul\":8453:8477   */\n      tag_60\n      jump\t// in\n    tag_153:\n        /* \"#utility.yul\":8446:8451   */\n      dup2\n        /* \"#utility.yul\":8443:8478   */\n      eq\n        /* \"#utility.yul\":8433:8496   */\n      tag_154\n      jumpi\n        /* \"#utility.yul\":8492:8493   */\n      0x00\n        /* \"#utility.yul\":8489:8490   */\n      dup1\n        /* \"#utility.yul\":8482:8494   */\n      revert\n        /* \"#utility.yul\":8433:8496   */\n    tag_154:\n        /* \"#utility.yul\":8380:8502   */\n      pop\n      jump\t// out\n        /* \"#utility.yul\":8508:8630   */\n    tag_45:\n        /* \"#utility.yul\":8581:8605   */\n      tag_156\n        /* \"#utility.yul\":8599:8604   */\n      dup2\n        /* \"#utility.yul\":8581:8605   */\n      tag_85\n      jump\t// in\n    tag_156:\n        /* \"#utility.yul\":8574:8579   */\n      dup2\n        /* \"#utility.yul\":8571:8606   */\n      eq\n        /* \"#utility.yul\":8561:8624   */\n      tag_157\n      jumpi\n        /* \"#utility.yul\":8620:8621   */\n      0x00\n        /* \"#utility.yul\":8617:8618   */\n      dup1\n        /* \"#utility.yul\":8610:8622   */\n      revert\n        /* \"#utility.yul\":8561:8624   */\n    tag_157:\n        /* \"#utility.yul\":8508:8630   */\n      pop\n      jump\t// out\n\n    auxdata: 0xa2646970667358221220e905825d001851daa3b8e2100edd4b1e30609095350ef4a20f94093e5c439d6464736f6c63430008070033\n}\n",
				"bytecode": {
					"linkReferences": {},
					"object": "60806040526005600055600054600a6100189190610080565b60015534801561002757600080fd5b506101e4565b6000808291508390505b600185111561007757808604811115610053576100526101a8565b5b60018516156100625780820291505b8081029050610070856101d7565b9450610037565b94509492505050565b600061008b8261019e565b91506100968361019e565b92506100c37fffffffffffffffffffffffffffffffffffffffffffffffffffffffffffffffff84846100cb565b905092915050565b6000826100db5760019050610197565b816100e95760009050610197565b81600181146100ff576002811461010957610138565b6001915050610197565b60ff84111561011b5761011a6101a8565b5b8360020a915084821115610132576101316101a8565b5b50610197565b5060208310610133831016604e8410600b841016171561016d5782820a905083811115610168576101676101a8565b5b610197565b61017a848484600161002d565b92509050818404811115610191576101906101a8565b5b81810290505b9392505050565b6000819050919050565b7f4e487b7100000000000000000000000000000000000000000000000000000000600052601160045260246000fd5b60008160011c9050919050565b6105f680620001f46000396000f3fe608060405234801561001057600080fd5b506004361061002b5760003560e01c806391bfe0d414610030575b600080fd5b61004a6004803603810190610045919061019e565b610060565b6040516100579190610310565b60405180910390f35b60008061006e8486856100b9565b90507f8f5afd88eb4be0ac287d87970052ce9a2b453448408e3c91a695ad7509ab7194818588866040516100a5949392919061032b565b60405180910390a180915050949350505050565b6000808484846040516020016100d1939291906102d7565b6040516020818303038152906040528051906020012060001c9050600154816100fa91906104d1565b9150509392505050565b60006101176101128461039c565b610377565b90508281526020810184848401111561013357610132610565565b5b61013e848285610430565b509392505050565b60008135905061015581610592565b92915050565b600082601f8301126101705761016f610560565b5b8135610180848260208601610104565b91505092915050565b600081359050610198816105a9565b92915050565b600080600080608085870312156101b8576101b761056f565b5b60006101c687828801610189565b94505060206101d787828801610189565b93505060406101e887828801610146565b925050606085013567ffffffffffffffff8111156102095761020861056a565b5b6102158782880161015b565b91505092959194509250565b61022a816103f4565b82525050565b61024161023c826103f4565b6104a3565b82525050565b6000610252826103cd565b61025c81856103d8565b935061026c81856020860161043f565b61027581610574565b840191505092915050565b600061028b826103cd565b61029581856103e9565b93506102a581856020860161043f565b80840191505092915050565b6102ba81610426565b82525050565b6102d16102cc82610426565b6104c7565b82525050565b60006102e38286610230565b6014820191506102f382856102c0565b6020820191506103038284610280565b9150819050949350505050565b600060208201905061032560008301846102b1565b92915050565b600060808201905061034060008301876102b1565b61034d6020830186610221565b61035a60408301856102b1565b818103606083015261036c8184610247565b905095945050505050565b6000610381610392565b905061038d8282610472565b919050565b6000604051905090565b600067ffffffffffffffff8211156103b7576103b6610531565b5b6103c082610574565b9050602081019050919050565b600081519050919050565b600082825260208201905092915050565b600081905092915050565b60006103ff82610406565b9050919050565b600073ffffffffffffffffffffffffffffffffffffffff82169050919050565b6000819050919050565b82818337600083830152505050565b60005b8381101561045d578082015181840152602081019050610442565b8381111561046c576000848401525b50505050565b61047b82610574565b810181811067ffffffffffffffff8211171561049a57610499610531565b5b80604052505050565b60006104ae826104b5565b9050919050565b60006104c082610585565b9050919050565b6000819050919050565b60006104dc82610426565b91506104e783610426565b9250826104f7576104f6610502565b5b828206905092915050565b7f4e487b7100000000000000000000000000000000000000000000000000000000600052601260045260246000fd5b7f4e487b7100000000000000000000000000000000000000000000000000000000600052604160045260246000fd5b600080fd5b600080fd5b600080fd5b600080fd5b6000601f19601f8301169050919050565b60008160601b9050919050565b61059b816103f4565b81146105a657600080fd5b50565b6105b281610426565b81146105bd57600080fd5b5056fea2646970667358221220e905825d001851daa3b8e2100edd4b1e30609095350ef4a20f94093e5c439d6464736f6c63430008070033",
					"opcodes": "PUSH1 0x80 PUSH1 0x40 MSTORE PUSH1 0x5 PUSH1 0x0 SSTORE PUSH1 0x0 SLOAD PUSH1 0xA PUSH2 0x18 SWAP2 SWAP1 PUSH2 0x80 JUMP JUMPDEST PUSH1 0x1 SSTORE CALLVALUE DUP1 ISZERO PUSH2 0x27 JUMPI PUSH1 0x0 DUP1 REVERT JUMPDEST POP PUSH2 0x1E4 JUMP JUMPDEST PUSH1 0x0 DUP1 DUP3 SWAP2 POP DUP4 SWAP1 POP JUMPDEST PUSH1 0x1 DUP6 GT ISZERO PUSH2 0x77 JUMPI DUP1 DUP7 DIV DUP2 GT ISZERO PUSH2 0x53 JUMPI PUSH2 0x52 PUSH2 0x1A8 JUMP JUMPDEST JUMPDEST PUSH1 0x1 DUP6 AND ISZERO PUSH2 0x62 JUMPI DUP1 DUP3 MUL SWAP2 POP JUMPDEST DUP1 DUP2 MUL SWAP1 POP PUSH2 0x70 DUP6 PUSH2 0x1D7 JUMP JUMPDEST SWAP5 POP PUSH2 0x37 JUMP JUMPDEST SWAP5 POP SWAP5 SWAP3 POP POP POP JUMP JUMPDEST PUSH1 0x0 PUSH2 0x8B DUP3 PUSH2 0x19E JUMP JUMPDEST SWAP2 POP PUSH2 0x96 DUP4 PUSH2 0x19E JUMP JUMPDEST SWAP3 POP PUSH2 0xC3 PUSH32 0xFFFFFFFFFFFFFFFFFFFFFFFFFFFFFFFFFFFFFFFFFFFFFFFFFFFFFFFFFFFFFFFF DUP5 DUP5 PUSH2 0xCB JUMP JUMPDEST SWAP1 POP SWAP3 SWAP2 POP POP JUMP JUMPDEST PUSH1 0x0 DUP3 PUSH2 0xDB JUMPI PUSH1 0x1 SWAP1 POP PUSH2 0x197 JUMP JUMPDEST DUP2 PUSH2 0xE9 JUMPI PUSH1 0x0 SWAP1 POP PUSH2 0x197 JUMP JUMPDEST DUP2 PUSH1 0x1 DUP2 EQ PUSH2 0xFF JUMPI PUSH1 0x2 DUP2 EQ PUSH2 0x109 JUMPI PUSH2 0x138 JUMP JUMPDEST PUSH1 0x1 SWAP2 POP POP PUSH2 0x197 JUMP JUMPDEST PUSH1 0xFF DUP5 GT ISZERO PUSH2 0x11B JUMPI PUSH2 0x11A PUSH2 0x1A8 JUMP JUMPDEST JUMPDEST DUP4 PUSH1 0x2 EXP SWAP2 POP DUP5 DUP3 GT ISZERO PUSH2 0x132 JUMPI PUSH2 0x131 PUSH2 0x1A8 JUMP JUMPDEST JUMPDEST POP PUSH2 0x197 JUMP JUMPDEST POP PUSH1 0x20 DUP4 LT PUSH2 0x133 DUP4 LT AND PUSH1 0x4E DUP5 LT PUSH1 0xB DUP5 LT AND OR ISZERO PUSH2 0x16D JUMPI DUP3 DUP3 EXP SWAP1 POP DUP4 DUP2 GT ISZERO PUSH2 0x168 JUMPI PUSH2 0x167 PUSH2 0x1A8 JUMP JUMPDEST JUMPDEST PUSH2 0x197 JUMP JUMPDEST PUSH2 0x17A DUP5 DUP5 DUP5 PUSH1 0x1 PUSH2 0x2D JUMP JUMPDEST SWAP3 POP SWAP1 POP DUP2 DUP5 DIV DUP2 GT ISZERO PUSH2 0x191 JUMPI PUSH2 0x190 PUSH2 0x1A8 JUMP JUMPDEST JUMPDEST DUP2 DUP2 MUL SWAP1 POP JUMPDEST SWAP4 SWAP3 POP POP POP JUMP JUMPDEST PUSH1 0x0 DUP2 SWAP1 POP SWAP2 SWAP1 POP JUMP JUMPDEST PUSH32 0x4E487B7100000000000000000000000000000000000000000000000000000000 PUSH1 0x0 MSTORE PUSH1 0x11 PUSH1 0x4 MSTORE PUSH1 0x24 PUSH1 0x0 REVERT JUMPDEST PUSH1 0x0 DUP2 PUSH1 0x1 SHR SWAP1 POP SWAP2 SWAP1 POP JUMP JUMPDEST PUSH2 0x5F6 DUP1 PUSH3 0x1F4 PUSH1 0x0 CODECOPY PUSH1 0x0 RETURN INVALID PUSH1 0x80 PUSH1 0x40 MSTORE CALLVALUE DUP1 ISZERO PUSH2 0x10 JUMPI PUSH1 0x0 DUP1 REVERT JUMPDEST POP PUSH1 0x4 CALLDATASIZE LT PUSH2 0x2B JUMPI PUSH1 0x0 CALLDATALOAD PUSH1 0xE0 SHR DUP1 PUSH4 0x91BFE0D4 EQ PUSH2 0x30 JUMPI JUMPDEST PUSH1 0x0 DUP1 REVERT JUMPDEST PUSH2 0x4A PUSH1 0x4 DUP1 CALLDATASIZE SUB DUP2 ADD SWAP1 PUSH2 0x45 SWAP2 SWAP1 PUSH2 0x19E JUMP JUMPDEST PUSH2 0x60 JUMP JUMPDEST PUSH1 0x40 MLOAD PUSH2 0x57 SWAP2 SWAP1 PUSH2 0x310 JUMP JUMPDEST PUSH1 0x40 MLOAD DUP1 SWAP2 SUB SWAP1 RETURN JUMPDEST PUSH1 0x0 DUP1 PUSH2 0x6E DUP5 DUP7 DUP6 PUSH2 0xB9 JUMP JUMPDEST SWAP1 POP PUSH32 0x8F5AFD88EB4BE0AC287D87970052CE9A2B453448408E3C91A695AD7509AB7194 DUP2 DUP6 DUP9 DUP7 PUSH1 0x40 MLOAD PUSH2 0xA5 SWAP5 SWAP4 SWAP3 SWAP2 SWAP1 PUSH2 0x32B JUMP JUMPDEST PUSH1 0x40 MLOAD DUP1 SWAP2 SUB SWAP1 LOG1 DUP1 SWAP2 POP POP SWAP5 SWAP4 POP POP POP POP JUMP JUMPDEST PUSH1 0x0 DUP1 DUP5 DUP5 DUP5 PUSH1 0x40 MLOAD PUSH1 0x20 ADD PUSH2 0xD1 SWAP4 SWAP3 SWAP2 SWAP1 PUSH2 0x2D7 JUMP JUMPDEST PUSH1 0x40 MLOAD PUSH1 0x20 DUP2 DUP4 SUB SUB DUP2 MSTORE SWAP1 PUSH1 0x40 MSTORE DUP1 MLOAD SWAP1 PUSH1 0x20 ADD KECCAK256 PUSH1 0x0 SHR SWAP1 POP PUSH1 0x1 SLOAD DUP2 PUSH2 0xFA SWAP2 SWAP1 PUSH2 0x4D1 JUMP JUMPDEST SWAP2 POP POP SWAP4 SWAP3 POP POP POP JUMP JUMPDEST PUSH1 0x0 PUSH2 0x117 PUSH2 0x112 DUP5 PUSH2 0x39C JUMP JUMPDEST PUSH2 0x377 JUMP JUMPDEST SWAP1 POP DUP3 DUP2 MSTORE PUSH1 0x20 DUP2 ADD DUP5 DUP5 DUP5 ADD GT ISZERO PUSH2 0x133 JUMPI PUSH2 0x132 PUSH2 0x565 JUMP JUMPDEST JUMPDEST PUSH2 0x13E DUP5 DUP3 DUP6 PUSH2 0x430 JUMP JUMPDEST POP SWAP4 SWAP3 POP POP POP JUMP JUMPDEST PUSH1 0x0 DUP2 CALLDATALOAD SWAP1 POP PUSH2 0x155 DUP2 PUSH2 0x592 JUMP JUMPDEST SWAP3 SWAP2 POP POP JUMP JUMPDEST PUSH1 0x0 DUP3 PUSH1 0x1F DUP4 ADD SLT PUSH2 0x170 JUMPI PUSH2 0x16F PUSH2 0x560 JUMP JUMPDEST JUMPDEST DUP2 CALLDATALOAD PUSH2 0x180 DUP5 DUP3 PUSH1 0x20 DUP7 ADD PUSH2 0x104 JUMP JUMPDEST SWAP2 POP POP SWAP3 SWAP2 POP POP JUMP JUMPDEST PUSH1 0x0 DUP2 CALLDATALOAD SWAP1 POP PUSH2 0x198 DUP2 PUSH2 0x5A9 JUMP JUMPDEST SWAP3 SWAP2 POP POP JUMP JUMPDEST PUSH1 0x0 DUP1 PUSH1 0x0 DUP1 PUSH1 0x80 DUP6 DUP8 SUB SLT ISZERO PUSH2 0x1B8 JUMPI PUSH2 0x1B7 PUSH2 0x56F JUMP JUMPDEST JUMPDEST PUSH1 0x0 PUSH2 0x1C6 DUP8 DUP3 DUP9 ADD PUSH2 0x189 JUMP JUMPDEST SWAP5 POP POP PUSH1 0x20 PUSH2 0x1D7 DUP8 DUP3 DUP9 ADD PUSH2 0x189 JUMP JUMPDEST SWAP4 POP POP PUSH1 0x40 PUSH2 0x1E8 DUP8 DUP3 DUP9 ADD PUSH2 0x146 JUMP JUMPDEST SWAP3 POP POP PUSH1 0x60 DUP6 ADD CALLDATALOAD PUSH8 0xFFFFFFFFFFFFFFFF DUP2 GT ISZERO PUSH2 0x209 JUMPI PUSH2 0x208 PUSH2 0x56A JUMP JUMPDEST JUMPDEST PUSH2 0x215 DUP8 DUP3 DUP9 ADD PUSH2 0x15B JUMP JUMPDEST SWAP2 POP POP SWAP3 SWAP6 SWAP2 SWAP5 POP SWAP3 POP JUMP JUMPDEST PUSH2 0x22A DUP2 PUSH2 0x3F4 JUMP JUMPDEST DUP3 MSTORE POP POP JUMP JUMPDEST PUSH2 0x241 PUSH2 0x23C DUP3 PUSH2 0x3F4 JUMP JUMPDEST PUSH2 0x4A3 JUMP JUMPDEST DUP3 MSTORE POP POP JUMP JUMPDEST PUSH1 0x0 PUSH2 0x252 DUP3 PUSH2 0x3CD JUMP JUMPDEST PUSH2 0x25C DUP2 DUP6 PUSH2 0x3D8 JUMP JUMPDEST SWAP4 POP PUSH2 0x26C DUP2 DUP6 PUSH1 0x20 DUP7 ADD PUSH2 0x43F JUMP JUMPDEST PUSH2 0x275 DUP2 PUSH2 0x574 JUMP JUMPDEST DUP5 ADD SWAP2 POP POP SWAP3 SWAP2 POP POP JUMP JUMPDEST PUSH1 0x0 PUSH2 0x28B DUP3 PUSH2 0x3CD JUMP JUMPDEST PUSH2 0x295 DUP2 DUP6 PUSH2 0x3E9 JUMP JUMPDEST SWAP4 POP PUSH2 0x2A5 DUP2 DUP6 PUSH1 0x20 DUP7 ADD PUSH2 0x43F JUMP JUMPDEST DUP1 DUP5 ADD SWAP2 POP POP SWAP3 SWAP2 POP POP JUMP JUMPDEST PUSH2 0x2BA DUP2 PUSH2 0x426 JUMP JUMPDEST DUP3 MSTORE POP POP JUMP JUMPDEST PUSH2 0x2D1 PUSH2 0x2CC DUP3 PUSH2 0x426 JUMP JUMPDEST PUSH2 0x4C7 JUMP JUMPDEST DUP3 MSTORE POP POP JUMP JUMPDEST PUSH1 0x0 PUSH2 0x2E3 DUP3 DUP7 PUSH2 0x230 JUMP JUMPDEST PUSH1 0x14 DUP3 ADD SWAP2 POP PUSH2 0x2F3 DUP3 DUP6 PUSH2 0x2C0 JUMP JUMPDEST PUSH1 0x20 DUP3 ADD SWAP2 POP PUSH2 0x303 DUP3 DUP5 PUSH2 0x280 JUMP JUMPDEST SWAP2 POP DUP2 SWAP1 POP SWAP5 SWAP4 POP POP POP POP JUMP JUMPDEST PUSH1 0x0 PUSH1 0x20 DUP3 ADD SWAP1 POP PUSH2 0x325 PUSH1 0x0 DUP4 ADD DUP5 PUSH2 0x2B1 JUMP JUMPDEST SWAP3 SWAP2 POP POP JUMP JUMPDEST PUSH1 0x0 PUSH1 0x80 DUP3 ADD SWAP1 POP PUSH2 0x340 PUSH1 0x0 DUP4 ADD DUP8 PUSH2 0x2B1 JUMP JUMPDEST PUSH2 0x34D PUSH1 0x20 DUP4 ADD DUP7 PUSH2 0x221 JUMP JUMPDEST PUSH2 0x35A PUSH1 0x40 DUP4 ADD DUP6 PUSH2 0x2B1 JUMP JUMPDEST DUP2 DUP2 SUB PUSH1 0x60 DUP4 ADD MSTORE PUSH2 0x36C DUP2 DUP5 PUSH2 0x247 JUMP JUMPDEST SWAP1 POP SWAP6 SWAP5 POP POP POP POP POP JUMP JUMPDEST PUSH1 0x0 PUSH2 0x381 PUSH2 0x392 JUMP JUMPDEST SWAP1 POP PUSH2 0x38D DUP3 DUP3 PUSH2 0x472 JUMP JUMPDEST SWAP2 SWAP1 POP JUMP JUMPDEST PUSH1 0x0 PUSH1 0x40 MLOAD SWAP1 POP SWAP1 JUMP JUMPDEST PUSH1 0x0 PUSH8 0xFFFFFFFFFFFFFFFF DUP3 GT ISZERO PUSH2 0x3B7 JUMPI PUSH2 0x3B6 PUSH2 0x531 JUMP JUMPDEST JUMPDEST PUSH2 0x3C0 DUP3 PUSH2 0x574 JUMP JUMPDEST SWAP1 POP PUSH1 0x20 DUP2 ADD SWAP1 POP SWAP2 SWAP1 POP JUMP JUMPDEST PUSH1 0x0 DUP2 MLOAD SWAP1 POP SWAP2 SWAP1 POP JUMP JUMPDEST PUSH1 0x0 DUP3 DUP3 MSTORE PUSH1 0x20 DUP3 ADD SWAP1 POP SWAP3 SWAP2 POP POP JUMP JUMPDEST PUSH1 0x0 DUP2 SWAP1 POP SWAP3 SWAP2 POP POP JUMP JUMPDEST PUSH1 0x0 PUSH2 0x3FF DUP3 PUSH2 0x406 JUMP JUMPDEST SWAP1 POP SWAP2 SWAP1 POP JUMP JUMPDEST PUSH1 0x0 PUSH20 0xFFFFFFFFFFFFFFFFFFFFFFFFFFFFFFFFFFFFFFFF DUP3 AND SWAP1 POP SWAP2 SWAP1 POP JUMP JUMPDEST PUSH1 0x0 DUP2 SWAP1 POP SWAP2 SWAP1 POP JUMP JUMPDEST DUP3 DUP2 DUP4 CALLDATACOPY PUSH1 0x0 DUP4 DUP4 ADD MSTORE POP POP POP JUMP JUMPDEST PUSH1 0x0 JUMPDEST DUP4 DUP2 LT ISZERO PUSH2 0x45D JUMPI DUP1 DUP3 ADD MLOAD DUP2 DUP5 ADD MSTORE PUSH1 0x20 DUP2 ADD SWAP1 POP PUSH2 0x442 JUMP JUMPDEST DUP4 DUP2 GT ISZERO PUSH2 0x46C JUMPI PUSH1 0x0 DUP5 DUP5 ADD MSTORE JUMPDEST POP POP POP POP JUMP JUMPDEST PUSH2 0x47B DUP3 PUSH2 0x574 JUMP JUMPDEST DUP2 ADD DUP2 DUP2 LT PUSH8 0xFFFFFFFFFFFFFFFF DUP3 GT OR ISZERO PUSH2 0x49A JUMPI PUSH2 0x499 PUSH2 0x531 JUMP JUMPDEST JUMPDEST DUP1 PUSH1 0x40 MSTORE POP POP POP JUMP JUMPDEST PUSH1 0x0 PUSH2 0x4AE DUP3 PUSH2 0x4B5 JUMP JUMPDEST SWAP1 POP SWAP2 SWAP1 POP JUMP JUMPDEST PUSH1 0x0 PUSH2 0x4C0 DUP3 PUSH2 0x585 JUMP JUMPDEST SWAP1 POP SWAP2 SWAP1 POP JUMP JUMPDEST PUSH1 0x0 DUP2 SWAP1 POP SWAP2 SWAP1 POP JUMP JUMPDEST PUSH1 0x0 PUSH2 0x4DC DUP3 PUSH2 0x426 JUMP JUMPDEST SWAP2 POP PUSH2 0x4E7 DUP4 PUSH2 0x426 JUMP JUMPDEST SWAP3 POP DUP3 PUSH2 0x4F7 JUMPI PUSH2 0x4F6 PUSH2 0x502 JUMP JUMPDEST JUMPDEST DUP3 DUP3 MOD SWAP1 POP SWAP3 SWAP2 POP POP JUMP JUMPDEST PUSH32 0x4E487B7100000000000000000000000000000000000000000000000000000000 PUSH1 0x0 MSTORE PUSH1 0x12 PUSH1 0x4 MSTORE PUSH1 0x24 PUSH1 0x0 REVERT JUMPDEST PUSH32 0x4E487B7100000000000000000000000000000000000000000000000000000000 PUSH1 0x0 MSTORE PUSH1 0x41 PUSH1 0x4 MSTORE PUSH1 0x24 PUSH1 0x0 REVERT JUMPDEST PUSH1 0x0 DUP1 REVERT JUMPDEST PUSH1 0x0 DUP1 REVERT JUMPDEST PUSH1 0x0 DUP1 REVERT JUMPDEST PUSH1 0x0 DUP1 REVERT JUMPDEST PUSH1 0x0 PUSH1 0x1F NOT PUSH1 0x1F DUP4 ADD AND SWAP1 POP SWAP2 SWAP1 POP JUMP JUMPDEST PUSH1 0x0 DUP2 PUSH1 0x60 SHL SWAP1 POP SWAP2 SWAP1 POP JUMP JUMPDEST PUSH2 0x59B DUP2 PUSH2 0x3F4 JUMP JUMPDEST DUP2 EQ PUSH2 0x5A6 JUMPI PUSH1 0x0 DUP1 REVERT JUMPDEST POP JUMP JUMPDEST PUSH2 0x5B2 DUP2 PUSH2 0x426 JUMP JUMPDEST DUP2 EQ PUSH2 0x5BD JUMPI PUSH1 0x0 DUP1 REVERT JUMPDEST POP JUMP INVALID LOG2 PUSH5 0x6970667358 0x22 SLT KECCAK256 0xE9 SDIV DUP3 0x5D STOP XOR MLOAD 0xDA LOG3 0xB8 0xE2 LT 0xE 0xDD 0x4B 0x1E ADDRESS PUSH1 0x90 SWAP6 CALLDATALOAD 0xE DELEGATECALL LOG2 0xF SWAP5 MULMOD RETURNDATACOPY 0x5C NUMBER SWAP14 PUSH5 0x64736F6C63 NUMBER STOP ADDMOD SMOD STOP CALLER "
				},
				"gasEstimates": {
					"creation": {
						"codeDepositCost": "305200",
						"executionCost": "infinite",
						"totalCost": "infinite"
					},
					"external": {
						"listHouse(uint256,uint256,address,string)": "infinite"
					},
					"internal": {
						"_generateHouseId(address,uint256,string memory)": "infinite"
					}
				},
				"methodIdentifiers": {
					"listHouse(uint256,uint256,address,string)": "91bfe0d4"
				}
			},
			"storageLayout": {
				"storage": [
					{
						"astId": 4,
						"contract": "contract/HouseRegistry.sol:HouseRegistry",
						"label": "digits",
						"offset": 0,
						"slot": "0",
						"type": "t_uint256"
					},
					{
						"astId": 9,
						"contract": "contract/HouseRegistry.sol:HouseRegistry",
						"label": "modulus",
						"offset": 0,
						"slot": "1",
						"type": "t_uint256"
					},
					{
						"astId": 34,
						"contract": "contract/HouseRegistry.sol:HouseRegistry",
						"label": "houses",
						"offset": 0,
						"slot": "2",
						"type": "t_mapping(t_uint256,t_uint256)"
					}
				],
				"types": {
					"t_mapping(t_uint256,t_uint256)": {
						"encoding": "mapping",
						"key": "t_uint256",
						"label": "mapping(uint256 => uint256)",
						"numberOfBytes": "32",
						"value": "t_uint256"
					},
					"t_uint256": {
						"encoding": "inplace",
						"label": "uint256",
						"numberOfBytes": "32"
					}
				}
			},
			"userdoc": {
				"kind": "user",
				"methods": {},
				"version": 1
			}
		}
	}
}