{
	"contract/HouseRegistry.sol": {
		"HouseRegistry": {
			"abi": [
				{
					"anonymous": false,
					"inputs": [
						{
							"indexed": false,
							"internalType": "uint256",
							"name": "houseId",
							"type": "uint256"
						},
						{
							"indexed": false,
							"internalType": "address",
							"name": "sellerAddress",
							"type": "address"
						},
						{
							"indexed": false,
							"internalType": "uint256",
							"name": "price",
							"type": "uint256"
						},
						{
							"indexed": false,
							"internalType": "string",
							"name": "houseAddress",
							"type": "string"
						}
					],
					"name": "AddNewHouse",
					"type": "event"
				},
				{
					"inputs": [
						{
							"internalType": "uint256",
							"name": "",
							"type": "uint256"
						},
						{
							"internalType": "string",
							"name": "",
							"type": "string"
						}
					],
					"name": "houses",
					"outputs": [
						{
							"internalType": "uint256",
							"name": "",
							"type": "uint256"
						}
					],
					"stateMutability": "view",
					"type": "function"
				},
				{
					"inputs": [
						{
							"internalType": "uint256",
							"name": "_price",
							"type": "uint256"
						},
						{
							"internalType": "uint256",
							"name": "_area",
							"type": "uint256"
						},
						{
							"internalType": "address",
							"name": "_sellerAddress",
							"type": "address"
						},
						{
							"internalType": "string",
							"name": "_houseAddress",
							"type": "string"
						}
					],
					"name": "listHouse",
					"outputs": [
						{
							"internalType": "uint256",
							"name": "",
							"type": "uint256"
						}
					],
					"stateMutability": "nonpayable",
					"type": "function"
				}
			],
			"devdoc": {
				"kind": "dev",
				"methods": {},
				"version": 1
			},
			"evm": {
				"assembly": "    /* \"contract/HouseRegistry.sol\":62:1303  contract HouseRegistry {... */\n  mstore(0x40, 0x80)\n    /* \"contract/HouseRegistry.sol\":106:107  5 */\n  0x05\n    /* \"contract/HouseRegistry.sol\":92:107  uint digits = 5 */\n  0x00\n  sstore\n    /* \"contract/HouseRegistry.sol\":134:140  digits */\n  sload(0x00)\n    /* \"contract/HouseRegistry.sol\":128:130  10 */\n  0x0a\n    /* \"contract/HouseRegistry.sol\":128:140  10 ** digits */\n  tag_1\n  swap2\n  swap1\n  tag_2\n  jump\t// in\ntag_1:\n    /* \"contract/HouseRegistry.sol\":113:140  uint modulus = 10 ** digits */\n  0x01\n  sstore\n    /* \"contract/HouseRegistry.sol\":62:1303  contract HouseRegistry {... */\n  callvalue\n  dup1\n  iszero\n  tag_3\n  jumpi\n  0x00\n  dup1\n  revert\ntag_3:\n  pop\n  jump(tag_4)\n    /* \"#utility.yul\":7:855   */\ntag_6:\n    /* \"#utility.yul\":68:73   */\n  0x00\n    /* \"#utility.yul\":75:79   */\n  dup1\n    /* \"#utility.yul\":99:105   */\n  dup3\n    /* \"#utility.yul\":90:105   */\n  swap2\n  pop\n    /* \"#utility.yul\":123:128   */\n  dup4\n    /* \"#utility.yul\":114:128   */\n  swap1\n  pop\n    /* \"#utility.yul\":137:849   */\ntag_8:\n    /* \"#utility.yul\":158:159   */\n  0x01\n    /* \"#utility.yul\":148:156   */\n  dup6\n    /* \"#utility.yul\":145:160   */\n  gt\n    /* \"#utility.yul\":137:849   */\n  iszero\n  tag_10\n  jumpi\n    /* \"#utility.yul\":253:257   */\n  dup1\n    /* \"#utility.yul\":248:251   */\n  dup7\n    /* \"#utility.yul\":244:258   */\n  div\n    /* \"#utility.yul\":238:242   */\n  dup2\n    /* \"#utility.yul\":235:259   */\n  gt\n    /* \"#utility.yul\":232:282   */\n  iszero\n  tag_11\n  jumpi\n    /* \"#utility.yul\":262:280   */\n  tag_12\n  tag_13\n  jump\t// in\ntag_12:\n    /* \"#utility.yul\":232:282   */\ntag_11:\n    /* \"#utility.yul\":312:313   */\n  0x01\n    /* \"#utility.yul\":302:310   */\n  dup6\n    /* \"#utility.yul\":298:314   */\n  and\n    /* \"#utility.yul\":295:746   */\n  iszero\n  tag_14\n  jumpi\n    /* \"#utility.yul\":727:731   */\n  dup1\n    /* \"#utility.yul\":720:725   */\n  dup3\n    /* \"#utility.yul\":716:732   */\n  mul\n    /* \"#utility.yul\":707:732   */\n  swap2\n  pop\n    /* \"#utility.yul\":295:746   */\ntag_14:\n    /* \"#utility.yul\":777:781   */\n  dup1\n    /* \"#utility.yul\":771:775   */\n  dup2\n    /* \"#utility.yul\":767:782   */\n  mul\n    /* \"#utility.yul\":759:782   */\n  swap1\n  pop\n    /* \"#utility.yul\":807:839   */\n  tag_15\n    /* \"#utility.yul\":830:838   */\n  dup6\n    /* \"#utility.yul\":807:839   */\n  tag_16\n  jump\t// in\ntag_15:\n    /* \"#utility.yul\":795:839   */\n  swap5\n  pop\n    /* \"#utility.yul\":137:849   */\n  jump(tag_8)\ntag_10:\n    /* \"#utility.yul\":7:855   */\n  swap5\n  pop\n  swap5\n  swap3\n  pop\n  pop\n  pop\n  jump\t// out\n    /* \"#utility.yul\":861:1146   */\ntag_2:\n    /* \"#utility.yul\":921:926   */\n  0x00\n    /* \"#utility.yul\":945:968   */\n  tag_18\n    /* \"#utility.yul\":963:967   */\n  dup3\n    /* \"#utility.yul\":945:968   */\n  tag_19\n  jump\t// in\ntag_18:\n    /* \"#utility.yul\":937:968   */\n  swap2\n  pop\n    /* \"#utility.yul\":989:1016   */\n  tag_20\n    /* \"#utility.yul\":1007:1015   */\n  dup4\n    /* \"#utility.yul\":989:1016   */\n  tag_19\n  jump\t// in\ntag_20:\n    /* \"#utility.yul\":977:1016   */\n  swap3\n  pop\n    /* \"#utility.yul\":1035:1139   */\n  tag_21\n    /* \"#utility.yul\":1072:1138   */\n  0xffffffffffffffffffffffffffffffffffffffffffffffffffffffffffffffff\n    /* \"#utility.yul\":1062:1070   */\n  dup5\n    /* \"#utility.yul\":1056:1060   */\n  dup5\n    /* \"#utility.yul\":1035:1139   */\n  tag_22\n  jump\t// in\ntag_21:\n    /* \"#utility.yul\":1026:1139   */\n  swap1\n  pop\n    /* \"#utility.yul\":861:1146   */\n  swap3\n  swap2\n  pop\n  pop\n  jump\t// out\n    /* \"#utility.yul\":1152:2225   */\ntag_22:\n    /* \"#utility.yul\":1206:1211   */\n  0x00\n    /* \"#utility.yul\":1397:1405   */\n  dup3\n    /* \"#utility.yul\":1387:1427   */\n  tag_24\n  jumpi\n    /* \"#utility.yul\":1418:1419   */\n  0x01\n    /* \"#utility.yul\":1409:1419   */\n  swap1\n  pop\n    /* \"#utility.yul\":1420:1425   */\n  jump(tag_23)\n    /* \"#utility.yul\":1387:1427   */\ntag_24:\n    /* \"#utility.yul\":1446:1450   */\n  dup2\n    /* \"#utility.yul\":1436:1472   */\n  tag_25\n  jumpi\n    /* \"#utility.yul\":1463:1464   */\n  0x00\n    /* \"#utility.yul\":1454:1464   */\n  swap1\n  pop\n    /* \"#utility.yul\":1465:1470   */\n  jump(tag_23)\n    /* \"#utility.yul\":1436:1472   */\ntag_25:\n    /* \"#utility.yul\":1532:1536   */\n  dup2\n    /* \"#utility.yul\":1580:1581   */\n  0x01\n    /* \"#utility.yul\":1575:1602   */\n  dup2\n  eq\n  tag_27\n  jumpi\n    /* \"#utility.yul\":1616:1617   */\n  0x02\n    /* \"#utility.yul\":1611:1802   */\n  dup2\n  eq\n  tag_28\n  jumpi\n    /* \"#utility.yul\":1525:1802   */\n  jump(tag_26)\n    /* \"#utility.yul\":1575:1602   */\ntag_27:\n    /* \"#utility.yul\":1593:1594   */\n  0x01\n    /* \"#utility.yul\":1584:1594   */\n  swap2\n  pop\n    /* \"#utility.yul\":1595:1600   */\n  pop\n  jump(tag_23)\n    /* \"#utility.yul\":1611:1802   */\ntag_28:\n    /* \"#utility.yul\":1656:1659   */\n  0xff\n    /* \"#utility.yul\":1646:1654   */\n  dup5\n    /* \"#utility.yul\":1643:1660   */\n  gt\n    /* \"#utility.yul\":1640:1683   */\n  iszero\n  tag_29\n  jumpi\n    /* \"#utility.yul\":1663:1681   */\n  tag_30\n  tag_13\n  jump\t// in\ntag_30:\n    /* \"#utility.yul\":1640:1683   */\ntag_29:\n    /* \"#utility.yul\":1712:1720   */\n  dup4\n    /* \"#utility.yul\":1709:1710   */\n  0x02\n    /* \"#utility.yul\":1705:1721   */\n  exp\n    /* \"#utility.yul\":1696:1721   */\n  swap2\n  pop\n    /* \"#utility.yul\":1747:1750   */\n  dup5\n    /* \"#utility.yul\":1740:1745   */\n  dup3\n    /* \"#utility.yul\":1737:1751   */\n  gt\n    /* \"#utility.yul\":1734:1774   */\n  iszero\n  tag_31\n  jumpi\n    /* \"#utility.yul\":1754:1772   */\n  tag_32\n  tag_13\n  jump\t// in\ntag_32:\n    /* \"#utility.yul\":1734:1774   */\ntag_31:\n    /* \"#utility.yul\":1787:1792   */\n  pop\n  jump(tag_23)\n    /* \"#utility.yul\":1525:1802   */\ntag_26:\n  pop\n    /* \"#utility.yul\":1911:1913   */\n  0x20\n    /* \"#utility.yul\":1901:1909   */\n  dup4\n    /* \"#utility.yul\":1898:1914   */\n  lt\n    /* \"#utility.yul\":1892:1895   */\n  0x0133\n    /* \"#utility.yul\":1886:1890   */\n  dup4\n    /* \"#utility.yul\":1883:1896   */\n  lt\n    /* \"#utility.yul\":1879:1915   */\n  and\n    /* \"#utility.yul\":1861:1863   */\n  0x4e\n    /* \"#utility.yul\":1851:1859   */\n  dup5\n    /* \"#utility.yul\":1848:1864   */\n  lt\n    /* \"#utility.yul\":1843:1845   */\n  0x0b\n    /* \"#utility.yul\":1837:1841   */\n  dup5\n    /* \"#utility.yul\":1834:1846   */\n  lt\n    /* \"#utility.yul\":1830:1865   */\n  and\n    /* \"#utility.yul\":1814:1925   */\n  or\n    /* \"#utility.yul\":1811:2057   */\n  iszero\n  tag_33\n  jumpi\n    /* \"#utility.yul\":1967:1975   */\n  dup3\n    /* \"#utility.yul\":1961:1965   */\n  dup3\n    /* \"#utility.yul\":1957:1976   */\n  exp\n    /* \"#utility.yul\":1948:1976   */\n  swap1\n  pop\n    /* \"#utility.yul\":2002:2005   */\n  dup4\n    /* \"#utility.yul\":1995:2000   */\n  dup2\n    /* \"#utility.yul\":1992:2006   */\n  gt\n    /* \"#utility.yul\":1989:2029   */\n  iszero\n  tag_34\n  jumpi\n    /* \"#utility.yul\":2009:2027   */\n  tag_35\n  tag_13\n  jump\t// in\ntag_35:\n    /* \"#utility.yul\":1989:2029   */\ntag_34:\n    /* \"#utility.yul\":2042:2047   */\n  jump(tag_23)\n    /* \"#utility.yul\":1811:2057   */\ntag_33:\n    /* \"#utility.yul\":2082:2124   */\n  tag_36\n    /* \"#utility.yul\":2120:2123   */\n  dup5\n    /* \"#utility.yul\":2110:2118   */\n  dup5\n    /* \"#utility.yul\":2104:2108   */\n  dup5\n    /* \"#utility.yul\":2101:2102   */\n  0x01\n    /* \"#utility.yul\":2082:2124   */\n  tag_6\n  jump\t// in\ntag_36:\n    /* \"#utility.yul\":2067:2124   */\n  swap3\n  pop\n  swap1\n  pop\n    /* \"#utility.yul\":2156:2160   */\n  dup2\n    /* \"#utility.yul\":2151:2154   */\n  dup5\n    /* \"#utility.yul\":2147:2161   */\n  div\n    /* \"#utility.yul\":2140:2145   */\n  dup2\n    /* \"#utility.yul\":2137:2162   */\n  gt\n    /* \"#utility.yul\":2134:2185   */\n  iszero\n  tag_37\n  jumpi\n    /* \"#utility.yul\":2165:2183   */\n  tag_38\n  tag_13\n  jump\t// in\ntag_38:\n    /* \"#utility.yul\":2134:2185   */\ntag_37:\n    /* \"#utility.yul\":2214:2218   */\n  dup2\n    /* \"#utility.yul\":2207:2212   */\n  dup2\n    /* \"#utility.yul\":2203:2219   */\n  mul\n    /* \"#utility.yul\":2194:2219   */\n  swap1\n  pop\n    /* \"#utility.yul\":1152:2225   */\ntag_23:\n  swap4\n  swap3\n  pop\n  pop\n  pop\n  jump\t// out\n    /* \"#utility.yul\":2231:2308   */\ntag_19:\n    /* \"#utility.yul\":2268:2275   */\n  0x00\n    /* \"#utility.yul\":2297:2302   */\n  dup2\n    /* \"#utility.yul\":2286:2302   */\n  swap1\n  pop\n    /* \"#utility.yul\":2231:2308   */\n  swap2\n  swap1\n  pop\n  jump\t// out\n    /* \"#utility.yul\":2314:2494   */\ntag_13:\n    /* \"#utility.yul\":2362:2439   */\n  0x4e487b7100000000000000000000000000000000000000000000000000000000\n    /* \"#utility.yul\":2359:2360   */\n  0x00\n    /* \"#utility.yul\":2352:2440   */\n  mstore\n    /* \"#utility.yul\":2459:2463   */\n  0x11\n    /* \"#utility.yul\":2456:2457   */\n  0x04\n    /* \"#utility.yul\":2449:2464   */\n  mstore\n    /* \"#utility.yul\":2483:2487   */\n  0x24\n    /* \"#utility.yul\":2480:2481   */\n  0x00\n    /* \"#utility.yul\":2473:2488   */\n  revert\n    /* \"#utility.yul\":2500:2602   */\ntag_16:\n    /* \"#utility.yul\":2542:2550   */\n  0x00\n    /* \"#utility.yul\":2589:2594   */\n  dup2\n    /* \"#utility.yul\":2586:2587   */\n  0x01\n    /* \"#utility.yul\":2582:2595   */\n  shr\n    /* \"#utility.yul\":2561:2595   */\n  swap1\n  pop\n    /* \"#utility.yul\":2500:2602   */\n  swap2\n  swap1\n  pop\n  jump\t// out\n    /* \"contract/HouseRegistry.sol\":62:1303  contract HouseRegistry {... */\ntag_4:\n  dataSize(sub_0)\n  dup1\n  dataOffset(sub_0)\n  0x00\n  codecopy\n  0x00\n  return\nstop\n\nsub_0: assembly {\n        /* \"contract/HouseRegistry.sol\":62:1303  contract HouseRegistry {... */\n      mstore(0x40, 0x80)\n      callvalue\n      dup1\n      iszero\n      tag_1\n      jumpi\n      0x00\n      dup1\n      revert\n    tag_1:\n      pop\n      jumpi(tag_2, lt(calldatasize, 0x04))\n      shr(0xe0, calldataload(0x00))\n      dup1\n      0x91bfe0d4\n      eq\n      tag_3\n      jumpi\n      dup1\n      0xcd9c199a\n      eq\n      tag_4\n      jumpi\n    tag_2:\n      0x00\n      dup1\n      revert\n        /* \"contract/HouseRegistry.sol\":474:1040  function listHouse (uint _price, uint _area, address _sellerAddress, string memory _houseAddress) public returns (uint) {... */\n    tag_3:\n      tag_5\n      0x04\n      dup1\n      calldatasize\n      sub\n      dup2\n      add\n      swap1\n      tag_6\n      swap2\n      swap1\n      tag_7\n      jump\t// in\n    tag_6:\n      tag_8\n      jump\t// in\n    tag_5:\n      mload(0x40)\n      tag_9\n      swap2\n      swap1\n      tag_10\n      jump\t// in\n    tag_9:\n      mload(0x40)\n      dup1\n      swap2\n      sub\n      swap1\n      return\n        /* \"contract/HouseRegistry.sol\":412:467  mapping(uint => mapping (string => uint)) public houses */\n    tag_4:\n      tag_11\n      0x04\n      dup1\n      calldatasize\n      sub\n      dup2\n      add\n      swap1\n      tag_12\n      swap2\n      swap1\n      tag_13\n      jump\t// in\n    tag_12:\n      tag_14\n      jump\t// in\n    tag_11:\n      mload(0x40)\n      tag_15\n      swap2\n      swap1\n      tag_10\n      jump\t// in\n    tag_15:\n      mload(0x40)\n      dup1\n      swap2\n      sub\n      swap1\n      return\n        /* \"contract/HouseRegistry.sol\":474:1040  function listHouse (uint _price, uint _area, address _sellerAddress, string memory _houseAddress) public returns (uint) {... */\n    tag_8:\n        /* \"contract/HouseRegistry.sol\":588:592  uint */\n      0x00\n        /* \"contract/HouseRegistry.sol\":604:616  uint houseId */\n      dup1\n        /* \"contract/HouseRegistry.sol\":619:673  _generateHouseId(_sellerAddress, _area, _houseAddress) */\n      tag_17\n        /* \"contract/HouseRegistry.sol\":636:650  _sellerAddress */\n      dup5\n        /* \"contract/HouseRegistry.sol\":652:657  _area */\n      dup7\n        /* \"contract/HouseRegistry.sol\":659:672  _houseAddress */\n      dup6\n        /* \"contract/HouseRegistry.sol\":619:635  _generateHouseId */\n      tag_18\n        /* \"contract/HouseRegistry.sol\":619:673  _generateHouseId(_sellerAddress, _area, _houseAddress) */\n      jump\t// in\n    tag_17:\n        /* \"contract/HouseRegistry.sol\":604:673  uint houseId = _generateHouseId(_sellerAddress, _area, _houseAddress) */\n      swap1\n      pop\n        /* \"contract/HouseRegistry.sol\":709:715  _price */\n      dup6\n        /* \"contract/HouseRegistry.sol\":683:689  houses */\n      0x02\n        /* \"contract/HouseRegistry.sol\":683:698  houses[houseId] */\n      0x00\n        /* \"contract/HouseRegistry.sol\":690:697  houseId */\n      dup4\n        /* \"contract/HouseRegistry.sol\":683:698  houses[houseId] */\n      dup2\n      mstore\n      0x20\n      add\n      swap1\n      dup2\n      mstore\n      0x20\n      add\n      0x00\n      keccak256\n        /* \"contract/HouseRegistry.sol\":683:707  houses[houseId][\"price\"] */\n      mload(0x40)\n      tag_19\n      swap1\n      tag_20\n      jump\t// in\n    tag_19:\n      swap1\n      dup2\n      mstore\n      0x20\n      add\n      mload(0x40)\n      dup1\n      swap2\n      sub\n      swap1\n      keccak256\n        /* \"contract/HouseRegistry.sol\":683:715  houses[houseId][\"price\"]= _price */\n      dup2\n      swap1\n      sstore\n      pop\n        /* \"contract/HouseRegistry.sol\":750:755  _area */\n      dup5\n        /* \"contract/HouseRegistry.sol\":725:731  houses */\n      0x02\n        /* \"contract/HouseRegistry.sol\":725:740  houses[houseId] */\n      0x00\n        /* \"contract/HouseRegistry.sol\":732:739  houseId */\n      dup4\n        /* \"contract/HouseRegistry.sol\":725:740  houses[houseId] */\n      dup2\n      mstore\n      0x20\n      add\n      swap1\n      dup2\n      mstore\n      0x20\n      add\n      0x00\n      keccak256\n        /* \"contract/HouseRegistry.sol\":725:748  houses[houseId][\"area\"] */\n      mload(0x40)\n      tag_21\n      swap1\n      tag_22\n      jump\t// in\n    tag_21:\n      swap1\n      dup2\n      mstore\n      0x20\n      add\n      mload(0x40)\n      dup1\n      swap2\n      sub\n      swap1\n      keccak256\n        /* \"contract/HouseRegistry.sol\":725:755  houses[houseId][\"area\"]= _area */\n      dup2\n      swap1\n      sstore\n      pop\n        /* \"contract/HouseRegistry.sol\":799:805  _price */\n      dup6\n        /* \"contract/HouseRegistry.sol\":765:771  houses */\n      0x02\n        /* \"contract/HouseRegistry.sol\":765:780  houses[houseId] */\n      0x00\n        /* \"contract/HouseRegistry.sol\":772:779  houseId */\n      dup4\n        /* \"contract/HouseRegistry.sol\":765:780  houses[houseId] */\n      dup2\n      mstore\n      0x20\n      add\n      swap1\n      dup2\n      mstore\n      0x20\n      add\n      0x00\n      keccak256\n        /* \"contract/HouseRegistry.sol\":765:797  houses[houseId][\"sellerAddress\"] */\n      mload(0x40)\n      tag_23\n      swap1\n      tag_24\n      jump\t// in\n    tag_23:\n      swap1\n      dup2\n      mstore\n      0x20\n      add\n      mload(0x40)\n      dup1\n      swap2\n      sub\n      swap1\n      keccak256\n        /* \"contract/HouseRegistry.sol\":765:805  houses[houseId][\"sellerAddress\"]= _price */\n      dup2\n      swap1\n      sstore\n      pop\n        /* \"contract/HouseRegistry.sol\":841:847  _price */\n      dup6\n        /* \"contract/HouseRegistry.sol\":815:821  houses */\n      0x02\n        /* \"contract/HouseRegistry.sol\":815:830  houses[houseId] */\n      0x00\n        /* \"contract/HouseRegistry.sol\":822:829  houseId */\n      dup4\n        /* \"contract/HouseRegistry.sol\":815:830  houses[houseId] */\n      dup2\n      mstore\n      0x20\n      add\n      swap1\n      dup2\n      mstore\n      0x20\n      add\n      0x00\n      keccak256\n        /* \"contract/HouseRegistry.sol\":815:839  houses[houseId][\"price\"] */\n      mload(0x40)\n      tag_25\n      swap1\n      tag_20\n      jump\t// in\n    tag_25:\n      swap1\n      dup2\n      mstore\n      0x20\n      add\n      mload(0x40)\n      dup1\n      swap2\n      sub\n      swap1\n      keccak256\n        /* \"contract/HouseRegistry.sol\":815:847  houses[houseId][\"price\"]= _price */\n      dup2\n      swap1\n      sstore\n      pop\n        /* \"contract/HouseRegistry.sol\":949:1008  AddNewHouse(houseId, _sellerAddress, _price, _houseAddress) */\n      0x8f5afd88eb4be0ac287d87970052ce9a2b453448408e3c91a695ad7509ab7194\n        /* \"contract/HouseRegistry.sol\":961:968  houseId */\n      dup2\n        /* \"contract/HouseRegistry.sol\":970:984  _sellerAddress */\n      dup6\n        /* \"contract/HouseRegistry.sol\":986:992  _price */\n      dup9\n        /* \"contract/HouseRegistry.sol\":994:1007  _houseAddress */\n      dup7\n        /* \"contract/HouseRegistry.sol\":949:1008  AddNewHouse(houseId, _sellerAddress, _price, _houseAddress) */\n      mload(0x40)\n      tag_26\n      swap5\n      swap4\n      swap3\n      swap2\n      swap1\n      tag_27\n      jump\t// in\n    tag_26:\n      mload(0x40)\n      dup1\n      swap2\n      sub\n      swap1\n      log1\n        /* \"contract/HouseRegistry.sol\":1025:1032  houseId */\n      dup1\n        /* \"contract/HouseRegistry.sol\":1018:1032  return houseId */\n      swap2\n      pop\n      pop\n        /* \"contract/HouseRegistry.sol\":474:1040  function listHouse (uint _price, uint _area, address _sellerAddress, string memory _houseAddress) public returns (uint) {... */\n      swap5\n      swap4\n      pop\n      pop\n      pop\n      pop\n      jump\t// out\n        /* \"contract/HouseRegistry.sol\":412:467  mapping(uint => mapping (string => uint)) public houses */\n    tag_14:\n      mstore(0x20, 0x02)\n      dup2\n      0x00\n      mstore\n      keccak256(0x00, 0x40)\n      dup2\n      dup1\n      mload\n      0x20\n      dup2\n      add\n      dup3\n      add\n      dup1\n      mload\n      dup5\n      dup3\n      mstore\n      0x20\n      dup4\n      add\n      0x20\n      dup6\n      add\n      keccak256\n      dup2\n      dup4\n      mstore\n      dup1\n      swap6\n      pop\n      pop\n      pop\n      pop\n      pop\n      pop\n      0x00\n      swap2\n      pop\n      swap2\n      pop\n      pop\n      sload\n      dup2\n      jump\t// out\n        /* \"contract/HouseRegistry.sol\":1046:1300  function _generateHouseId(address _sellerAddress, uint _area, string memory _houseAddress) private view returns(uint){... */\n    tag_18:\n        /* \"contract/HouseRegistry.sol\":1158:1162  uint */\n      0x00\n        /* \"contract/HouseRegistry.sol\":1173:1185  uint houseId */\n      dup1\n        /* \"contract/HouseRegistry.sol\":1220:1234  _sellerAddress */\n      dup5\n        /* \"contract/HouseRegistry.sol\":1236:1241  _area */\n      dup5\n        /* \"contract/HouseRegistry.sol\":1243:1256  _houseAddress */\n      dup5\n        /* \"contract/HouseRegistry.sol\":1203:1257  abi.encodePacked(_sellerAddress, _area, _houseAddress) */\n      add(0x20, mload(0x40))\n      tag_29\n      swap4\n      swap3\n      swap2\n      swap1\n      tag_30\n      jump\t// in\n    tag_29:\n      mload(0x40)\n      0x20\n      dup2\n      dup4\n      sub\n      sub\n      dup2\n      mstore\n      swap1\n      0x40\n      mstore\n        /* \"contract/HouseRegistry.sol\":1193:1258  keccak256(abi.encodePacked(_sellerAddress, _area, _houseAddress)) */\n      dup1\n      mload\n      swap1\n      0x20\n      add\n      keccak256\n        /* \"contract/HouseRegistry.sol\":1188:1259  uint(keccak256(abi.encodePacked(_sellerAddress, _area, _houseAddress))) */\n      0x00\n      shr\n        /* \"contract/HouseRegistry.sol\":1173:1259  uint houseId = uint(keccak256(abi.encodePacked(_sellerAddress, _area, _houseAddress))) */\n      swap1\n      pop\n        /* \"contract/HouseRegistry.sol\":1286:1293  modulus */\n      sload(0x01)\n        /* \"contract/HouseRegistry.sol\":1276:1283  houseId */\n      dup2\n        /* \"contract/HouseRegistry.sol\":1276:1293  houseId % modulus */\n      tag_31\n      swap2\n      swap1\n      tag_32\n      jump\t// in\n    tag_31:\n        /* \"contract/HouseRegistry.sol\":1269:1293  return houseId % modulus */\n      swap2\n      pop\n      pop\n        /* \"contract/HouseRegistry.sol\":1046:1300  function _generateHouseId(address _sellerAddress, uint _area, string memory _houseAddress) private view returns(uint){... */\n      swap4\n      swap3\n      pop\n      pop\n      pop\n      jump\t// out\n        /* \"#utility.yul\":7:419   */\n    tag_34:\n        /* \"#utility.yul\":85:90   */\n      0x00\n        /* \"#utility.yul\":110:176   */\n      tag_36\n        /* \"#utility.yul\":126:175   */\n      tag_37\n        /* \"#utility.yul\":168:174   */\n      dup5\n        /* \"#utility.yul\":126:175   */\n      tag_38\n      jump\t// in\n    tag_37:\n        /* \"#utility.yul\":110:176   */\n      tag_39\n      jump\t// in\n    tag_36:\n        /* \"#utility.yul\":101:176   */\n      swap1\n      pop\n        /* \"#utility.yul\":199:205   */\n      dup3\n        /* \"#utility.yul\":192:197   */\n      dup2\n        /* \"#utility.yul\":185:206   */\n      mstore\n        /* \"#utility.yul\":237:241   */\n      0x20\n        /* \"#utility.yul\":230:235   */\n      dup2\n        /* \"#utility.yul\":226:242   */\n      add\n        /* \"#utility.yul\":275:278   */\n      dup5\n        /* \"#utility.yul\":266:272   */\n      dup5\n        /* \"#utility.yul\":261:264   */\n      dup5\n        /* \"#utility.yul\":257:273   */\n      add\n        /* \"#utility.yul\":254:279   */\n      gt\n        /* \"#utility.yul\":251:363   */\n      iszero\n      tag_40\n      jumpi\n        /* \"#utility.yul\":282:361   */\n      tag_41\n      tag_42\n      jump\t// in\n    tag_41:\n        /* \"#utility.yul\":251:363   */\n    tag_40:\n        /* \"#utility.yul\":372:413   */\n      tag_43\n        /* \"#utility.yul\":406:412   */\n      dup5\n        /* \"#utility.yul\":401:404   */\n      dup3\n        /* \"#utility.yul\":396:399   */\n      dup6\n        /* \"#utility.yul\":372:413   */\n      tag_44\n      jump\t// in\n    tag_43:\n        /* \"#utility.yul\":91:419   */\n      pop\n        /* \"#utility.yul\":7:419   */\n      swap4\n      swap3\n      pop\n      pop\n      pop\n      jump\t// out\n        /* \"#utility.yul\":425:564   */\n    tag_45:\n        /* \"#utility.yul\":471:476   */\n      0x00\n        /* \"#utility.yul\":509:515   */\n      dup2\n        /* \"#utility.yul\":496:516   */\n      calldataload\n        /* \"#utility.yul\":487:516   */\n      swap1\n      pop\n        /* \"#utility.yul\":525:558   */\n      tag_47\n        /* \"#utility.yul\":552:557   */\n      dup2\n        /* \"#utility.yul\":525:558   */\n      tag_48\n      jump\t// in\n    tag_47:\n        /* \"#utility.yul\":425:564   */\n      swap3\n      swap2\n      pop\n      pop\n      jump\t// out\n        /* \"#utility.yul\":584:924   */\n    tag_49:\n        /* \"#utility.yul\":640:645   */\n      0x00\n        /* \"#utility.yul\":689:692   */\n      dup3\n        /* \"#utility.yul\":682:686   */\n      0x1f\n        /* \"#utility.yul\":674:680   */\n      dup4\n        /* \"#utility.yul\":670:687   */\n      add\n        /* \"#utility.yul\":666:693   */\n      slt\n        /* \"#utility.yul\":656:778   */\n      tag_51\n      jumpi\n        /* \"#utility.yul\":697:776   */\n      tag_52\n      tag_53\n      jump\t// in\n    tag_52:\n        /* \"#utility.yul\":656:778   */\n    tag_51:\n        /* \"#utility.yul\":814:820   */\n      dup2\n        /* \"#utility.yul\":801:821   */\n      calldataload\n        /* \"#utility.yul\":839:918   */\n      tag_54\n        /* \"#utility.yul\":914:917   */\n      dup5\n        /* \"#utility.yul\":906:912   */\n      dup3\n        /* \"#utility.yul\":899:903   */\n      0x20\n        /* \"#utility.yul\":891:897   */\n      dup7\n        /* \"#utility.yul\":887:904   */\n      add\n        /* \"#utility.yul\":839:918   */\n      tag_34\n      jump\t// in\n    tag_54:\n        /* \"#utility.yul\":830:918   */\n      swap2\n      pop\n        /* \"#utility.yul\":646:924   */\n      pop\n        /* \"#utility.yul\":584:924   */\n      swap3\n      swap2\n      pop\n      pop\n      jump\t// out\n        /* \"#utility.yul\":930:1069   */\n    tag_55:\n        /* \"#utility.yul\":976:981   */\n      0x00\n        /* \"#utility.yul\":1014:1020   */\n      dup2\n        /* \"#utility.yul\":1001:1021   */\n      calldataload\n        /* \"#utility.yul\":992:1021   */\n      swap1\n      pop\n        /* \"#utility.yul\":1030:1063   */\n      tag_57\n        /* \"#utility.yul\":1057:1062   */\n      dup2\n        /* \"#utility.yul\":1030:1063   */\n      tag_58\n      jump\t// in\n    tag_57:\n        /* \"#utility.yul\":930:1069   */\n      swap3\n      swap2\n      pop\n      pop\n      jump\t// out\n        /* \"#utility.yul\":1075:1729   */\n    tag_13:\n        /* \"#utility.yul\":1153:1159   */\n      0x00\n        /* \"#utility.yul\":1161:1167   */\n      dup1\n        /* \"#utility.yul\":1210:1212   */\n      0x40\n        /* \"#utility.yul\":1198:1207   */\n      dup4\n        /* \"#utility.yul\":1189:1196   */\n      dup6\n        /* \"#utility.yul\":1185:1208   */\n      sub\n        /* \"#utility.yul\":1181:1213   */\n      slt\n        /* \"#utility.yul\":1178:1297   */\n      iszero\n      tag_60\n      jumpi\n        /* \"#utility.yul\":1216:1295   */\n      tag_61\n      tag_62\n      jump\t// in\n    tag_61:\n        /* \"#utility.yul\":1178:1297   */\n    tag_60:\n        /* \"#utility.yul\":1336:1337   */\n      0x00\n        /* \"#utility.yul\":1361:1414   */\n      tag_63\n        /* \"#utility.yul\":1406:1413   */\n      dup6\n        /* \"#utility.yul\":1397:1403   */\n      dup3\n        /* \"#utility.yul\":1386:1395   */\n      dup7\n        /* \"#utility.yul\":1382:1404   */\n      add\n        /* \"#utility.yul\":1361:1414   */\n      tag_55\n      jump\t// in\n    tag_63:\n        /* \"#utility.yul\":1351:1414   */\n      swap3\n      pop\n        /* \"#utility.yul\":1307:1424   */\n      pop\n        /* \"#utility.yul\":1491:1493   */\n      0x20\n        /* \"#utility.yul\":1480:1489   */\n      dup4\n        /* \"#utility.yul\":1476:1494   */\n      add\n        /* \"#utility.yul\":1463:1495   */\n      calldataload\n        /* \"#utility.yul\":1522:1540   */\n      0xffffffffffffffff\n        /* \"#utility.yul\":1514:1520   */\n      dup2\n        /* \"#utility.yul\":1511:1541   */\n      gt\n        /* \"#utility.yul\":1508:1625   */\n      iszero\n      tag_64\n      jumpi\n        /* \"#utility.yul\":1544:1623   */\n      tag_65\n      tag_66\n      jump\t// in\n    tag_65:\n        /* \"#utility.yul\":1508:1625   */\n    tag_64:\n        /* \"#utility.yul\":1649:1712   */\n      tag_67\n        /* \"#utility.yul\":1704:1711   */\n      dup6\n        /* \"#utility.yul\":1695:1701   */\n      dup3\n        /* \"#utility.yul\":1684:1693   */\n      dup7\n        /* \"#utility.yul\":1680:1702   */\n      add\n        /* \"#utility.yul\":1649:1712   */\n      tag_49\n      jump\t// in\n    tag_67:\n        /* \"#utility.yul\":1639:1712   */\n      swap2\n      pop\n        /* \"#utility.yul\":1434:1722   */\n      pop\n        /* \"#utility.yul\":1075:1729   */\n      swap3\n      pop\n      swap3\n      swap1\n      pop\n      jump\t// out\n        /* \"#utility.yul\":1735:2680   */\n    tag_7:\n        /* \"#utility.yul\":1831:1837   */\n      0x00\n        /* \"#utility.yul\":1839:1845   */\n      dup1\n        /* \"#utility.yul\":1847:1853   */\n      0x00\n        /* \"#utility.yul\":1855:1861   */\n      dup1\n        /* \"#utility.yul\":1904:1907   */\n      0x80\n        /* \"#utility.yul\":1892:1901   */\n      dup6\n        /* \"#utility.yul\":1883:1890   */\n      dup8\n        /* \"#utility.yul\":1879:1902   */\n      sub\n        /* \"#utility.yul\":1875:1908   */\n      slt\n        /* \"#utility.yul\":1872:1992   */\n      iszero\n      tag_69\n      jumpi\n        /* \"#utility.yul\":1911:1990   */\n      tag_70\n      tag_62\n      jump\t// in\n    tag_70:\n        /* \"#utility.yul\":1872:1992   */\n    tag_69:\n        /* \"#utility.yul\":2031:2032   */\n      0x00\n        /* \"#utility.yul\":2056:2109   */\n      tag_71\n        /* \"#utility.yul\":2101:2108   */\n      dup8\n        /* \"#utility.yul\":2092:2098   */\n      dup3\n        /* \"#utility.yul\":2081:2090   */\n      dup9\n        /* \"#utility.yul\":2077:2099   */\n      add\n        /* \"#utility.yul\":2056:2109   */\n      tag_55\n      jump\t// in\n    tag_71:\n        /* \"#utility.yul\":2046:2109   */\n      swap5\n      pop\n        /* \"#utility.yul\":2002:2119   */\n      pop\n        /* \"#utility.yul\":2158:2160   */\n      0x20\n        /* \"#utility.yul\":2184:2237   */\n      tag_72\n        /* \"#utility.yul\":2229:2236   */\n      dup8\n        /* \"#utility.yul\":2220:2226   */\n      dup3\n        /* \"#utility.yul\":2209:2218   */\n      dup9\n        /* \"#utility.yul\":2205:2227   */\n      add\n        /* \"#utility.yul\":2184:2237   */\n      tag_55\n      jump\t// in\n    tag_72:\n        /* \"#utility.yul\":2174:2237   */\n      swap4\n      pop\n        /* \"#utility.yul\":2129:2247   */\n      pop\n        /* \"#utility.yul\":2286:2288   */\n      0x40\n        /* \"#utility.yul\":2312:2365   */\n      tag_73\n        /* \"#utility.yul\":2357:2364   */\n      dup8\n        /* \"#utility.yul\":2348:2354   */\n      dup3\n        /* \"#utility.yul\":2337:2346   */\n      dup9\n        /* \"#utility.yul\":2333:2355   */\n      add\n        /* \"#utility.yul\":2312:2365   */\n      tag_45\n      jump\t// in\n    tag_73:\n        /* \"#utility.yul\":2302:2365   */\n      swap3\n      pop\n        /* \"#utility.yul\":2257:2375   */\n      pop\n        /* \"#utility.yul\":2442:2444   */\n      0x60\n        /* \"#utility.yul\":2431:2440   */\n      dup6\n        /* \"#utility.yul\":2427:2445   */\n      add\n        /* \"#utility.yul\":2414:2446   */\n      calldataload\n        /* \"#utility.yul\":2473:2491   */\n      0xffffffffffffffff\n        /* \"#utility.yul\":2465:2471   */\n      dup2\n        /* \"#utility.yul\":2462:2492   */\n      gt\n        /* \"#utility.yul\":2459:2576   */\n      iszero\n      tag_74\n      jumpi\n        /* \"#utility.yul\":2495:2574   */\n      tag_75\n      tag_66\n      jump\t// in\n    tag_75:\n        /* \"#utility.yul\":2459:2576   */\n    tag_74:\n        /* \"#utility.yul\":2600:2663   */\n      tag_76\n        /* \"#utility.yul\":2655:2662   */\n      dup8\n        /* \"#utility.yul\":2646:2652   */\n      dup3\n        /* \"#utility.yul\":2635:2644   */\n      dup9\n        /* \"#utility.yul\":2631:2653   */\n      add\n        /* \"#utility.yul\":2600:2663   */\n      tag_49\n      jump\t// in\n    tag_76:\n        /* \"#utility.yul\":2590:2663   */\n      swap2\n      pop\n        /* \"#utility.yul\":2385:2673   */\n      pop\n        /* \"#utility.yul\":1735:2680   */\n      swap3\n      swap6\n      swap2\n      swap5\n      pop\n      swap3\n      pop\n      jump\t// out\n        /* \"#utility.yul\":2686:2804   */\n    tag_77:\n        /* \"#utility.yul\":2773:2797   */\n      tag_79\n        /* \"#utility.yul\":2791:2796   */\n      dup2\n        /* \"#utility.yul\":2773:2797   */\n      tag_80\n      jump\t// in\n    tag_79:\n        /* \"#utility.yul\":2768:2771   */\n      dup3\n        /* \"#utility.yul\":2761:2798   */\n      mstore\n        /* \"#utility.yul\":2686:2804   */\n      pop\n      pop\n      jump\t// out\n        /* \"#utility.yul\":2810:2967   */\n    tag_81:\n        /* \"#utility.yul\":2915:2960   */\n      tag_83\n        /* \"#utility.yul\":2935:2959   */\n      tag_84\n        /* \"#utility.yul\":2953:2958   */\n      dup3\n        /* \"#utility.yul\":2935:2959   */\n      tag_80\n      jump\t// in\n    tag_84:\n        /* \"#utility.yul\":2915:2960   */\n      tag_85\n      jump\t// in\n    tag_83:\n        /* \"#utility.yul\":2910:2913   */\n      dup3\n        /* \"#utility.yul\":2903:2961   */\n      mstore\n        /* \"#utility.yul\":2810:2967   */\n      pop\n      pop\n      jump\t// out\n        /* \"#utility.yul\":2973:3337   */\n    tag_86:\n        /* \"#utility.yul\":3061:3064   */\n      0x00\n        /* \"#utility.yul\":3089:3128   */\n      tag_88\n        /* \"#utility.yul\":3122:3127   */\n      dup3\n        /* \"#utility.yul\":3089:3128   */\n      tag_89\n      jump\t// in\n    tag_88:\n        /* \"#utility.yul\":3144:3215   */\n      tag_90\n        /* \"#utility.yul\":3208:3214   */\n      dup2\n        /* \"#utility.yul\":3203:3206   */\n      dup6\n        /* \"#utility.yul\":3144:3215   */\n      tag_91\n      jump\t// in\n    tag_90:\n        /* \"#utility.yul\":3137:3215   */\n      swap4\n      pop\n        /* \"#utility.yul\":3224:3276   */\n      tag_92\n        /* \"#utility.yul\":3269:3275   */\n      dup2\n        /* \"#utility.yul\":3264:3267   */\n      dup6\n        /* \"#utility.yul\":3257:3261   */\n      0x20\n        /* \"#utility.yul\":3250:3255   */\n      dup7\n        /* \"#utility.yul\":3246:3262   */\n      add\n        /* \"#utility.yul\":3224:3276   */\n      tag_93\n      jump\t// in\n    tag_92:\n        /* \"#utility.yul\":3301:3330   */\n      tag_94\n        /* \"#utility.yul\":3323:3329   */\n      dup2\n        /* \"#utility.yul\":3301:3330   */\n      tag_95\n      jump\t// in\n    tag_94:\n        /* \"#utility.yul\":3296:3299   */\n      dup5\n        /* \"#utility.yul\":3292:3331   */\n      add\n        /* \"#utility.yul\":3285:3331   */\n      swap2\n      pop\n        /* \"#utility.yul\":3065:3337   */\n      pop\n        /* \"#utility.yul\":2973:3337   */\n      swap3\n      swap2\n      pop\n      pop\n      jump\t// out\n        /* \"#utility.yul\":3343:3720   */\n    tag_96:\n        /* \"#utility.yul\":3449:3452   */\n      0x00\n        /* \"#utility.yul\":3477:3516   */\n      tag_98\n        /* \"#utility.yul\":3510:3515   */\n      dup3\n        /* \"#utility.yul\":3477:3516   */\n      tag_89\n      jump\t// in\n    tag_98:\n        /* \"#utility.yul\":3532:3621   */\n      tag_99\n        /* \"#utility.yul\":3614:3620   */\n      dup2\n        /* \"#utility.yul\":3609:3612   */\n      dup6\n        /* \"#utility.yul\":3532:3621   */\n      tag_100\n      jump\t// in\n    tag_99:\n        /* \"#utility.yul\":3525:3621   */\n      swap4\n      pop\n        /* \"#utility.yul\":3630:3682   */\n      tag_101\n        /* \"#utility.yul\":3675:3681   */\n      dup2\n        /* \"#utility.yul\":3670:3673   */\n      dup6\n        /* \"#utility.yul\":3663:3667   */\n      0x20\n        /* \"#utility.yul\":3656:3661   */\n      dup7\n        /* \"#utility.yul\":3652:3668   */\n      add\n        /* \"#utility.yul\":3630:3682   */\n      tag_93\n      jump\t// in\n    tag_101:\n        /* \"#utility.yul\":3707:3713   */\n      dup1\n        /* \"#utility.yul\":3702:3705   */\n      dup5\n        /* \"#utility.yul\":3698:3714   */\n      add\n        /* \"#utility.yul\":3691:3714   */\n      swap2\n      pop\n        /* \"#utility.yul\":3453:3720   */\n      pop\n        /* \"#utility.yul\":3343:3720   */\n      swap3\n      swap2\n      pop\n      pop\n      jump\t// out\n        /* \"#utility.yul\":3726:4126   */\n    tag_102:\n        /* \"#utility.yul\":3886:3889   */\n      0x00\n        /* \"#utility.yul\":3907:3991   */\n      tag_104\n        /* \"#utility.yul\":3989:3990   */\n      0x05\n        /* \"#utility.yul\":3984:3987   */\n      dup4\n        /* \"#utility.yul\":3907:3991   */\n      tag_100\n      jump\t// in\n    tag_104:\n        /* \"#utility.yul\":3900:3991   */\n      swap2\n      pop\n        /* \"#utility.yul\":4000:4093   */\n      tag_105\n        /* \"#utility.yul\":4089:4092   */\n      dup3\n        /* \"#utility.yul\":4000:4093   */\n      tag_106\n      jump\t// in\n    tag_105:\n        /* \"#utility.yul\":4118:4119   */\n      0x05\n        /* \"#utility.yul\":4113:4116   */\n      dup3\n        /* \"#utility.yul\":4109:4120   */\n      add\n        /* \"#utility.yul\":4102:4120   */\n      swap1\n      pop\n        /* \"#utility.yul\":3726:4126   */\n      swap2\n      swap1\n      pop\n      jump\t// out\n        /* \"#utility.yul\":4132:4534   */\n    tag_107:\n        /* \"#utility.yul\":4292:4295   */\n      0x00\n        /* \"#utility.yul\":4313:4398   */\n      tag_109\n        /* \"#utility.yul\":4395:4397   */\n      0x0d\n        /* \"#utility.yul\":4390:4393   */\n      dup4\n        /* \"#utility.yul\":4313:4398   */\n      tag_100\n      jump\t// in\n    tag_109:\n        /* \"#utility.yul\":4306:4398   */\n      swap2\n      pop\n        /* \"#utility.yul\":4407:4500   */\n      tag_110\n        /* \"#utility.yul\":4496:4499   */\n      dup3\n        /* \"#utility.yul\":4407:4500   */\n      tag_111\n      jump\t// in\n    tag_110:\n        /* \"#utility.yul\":4525:4527   */\n      0x0d\n        /* \"#utility.yul\":4520:4523   */\n      dup3\n        /* \"#utility.yul\":4516:4528   */\n      add\n        /* \"#utility.yul\":4509:4528   */\n      swap1\n      pop\n        /* \"#utility.yul\":4132:4534   */\n      swap2\n      swap1\n      pop\n      jump\t// out\n        /* \"#utility.yul\":4540:4940   */\n    tag_112:\n        /* \"#utility.yul\":4700:4703   */\n      0x00\n        /* \"#utility.yul\":4721:4805   */\n      tag_114\n        /* \"#utility.yul\":4803:4804   */\n      0x04\n        /* \"#utility.yul\":4798:4801   */\n      dup4\n        /* \"#utility.yul\":4721:4805   */\n      tag_100\n      jump\t// in\n    tag_114:\n        /* \"#utility.yul\":4714:4805   */\n      swap2\n      pop\n        /* \"#utility.yul\":4814:4907   */\n      tag_115\n        /* \"#utility.yul\":4903:4906   */\n      dup3\n        /* \"#utility.yul\":4814:4907   */\n      tag_116\n      jump\t// in\n    tag_115:\n        /* \"#utility.yul\":4932:4933   */\n      0x04\n        /* \"#utility.yul\":4927:4930   */\n      dup3\n        /* \"#utility.yul\":4923:4934   */\n      add\n        /* \"#utility.yul\":4916:4934   */\n      swap1\n      pop\n        /* \"#utility.yul\":4540:4940   */\n      swap2\n      swap1\n      pop\n      jump\t// out\n        /* \"#utility.yul\":4946:5064   */\n    tag_117:\n        /* \"#utility.yul\":5033:5057   */\n      tag_119\n        /* \"#utility.yul\":5051:5056   */\n      dup2\n        /* \"#utility.yul\":5033:5057   */\n      tag_120\n      jump\t// in\n    tag_119:\n        /* \"#utility.yul\":5028:5031   */\n      dup3\n        /* \"#utility.yul\":5021:5058   */\n      mstore\n        /* \"#utility.yul\":4946:5064   */\n      pop\n      pop\n      jump\t// out\n        /* \"#utility.yul\":5070:5227   */\n    tag_121:\n        /* \"#utility.yul\":5175:5220   */\n      tag_123\n        /* \"#utility.yul\":5195:5219   */\n      tag_124\n        /* \"#utility.yul\":5213:5218   */\n      dup3\n        /* \"#utility.yul\":5195:5219   */\n      tag_120\n      jump\t// in\n    tag_124:\n        /* \"#utility.yul\":5175:5220   */\n      tag_125\n      jump\t// in\n    tag_123:\n        /* \"#utility.yul\":5170:5173   */\n      dup3\n        /* \"#utility.yul\":5163:5221   */\n      mstore\n        /* \"#utility.yul\":5070:5227   */\n      pop\n      pop\n      jump\t// out\n        /* \"#utility.yul\":5233:5790   */\n    tag_30:\n        /* \"#utility.yul\":5421:5424   */\n      0x00\n        /* \"#utility.yul\":5436:5511   */\n      tag_127\n        /* \"#utility.yul\":5507:5510   */\n      dup3\n        /* \"#utility.yul\":5498:5504   */\n      dup7\n        /* \"#utility.yul\":5436:5511   */\n      tag_81\n      jump\t// in\n    tag_127:\n        /* \"#utility.yul\":5536:5538   */\n      0x14\n        /* \"#utility.yul\":5531:5534   */\n      dup3\n        /* \"#utility.yul\":5527:5539   */\n      add\n        /* \"#utility.yul\":5520:5539   */\n      swap2\n      pop\n        /* \"#utility.yul\":5549:5624   */\n      tag_128\n        /* \"#utility.yul\":5620:5623   */\n      dup3\n        /* \"#utility.yul\":5611:5617   */\n      dup6\n        /* \"#utility.yul\":5549:5624   */\n      tag_121\n      jump\t// in\n    tag_128:\n        /* \"#utility.yul\":5649:5651   */\n      0x20\n        /* \"#utility.yul\":5644:5647   */\n      dup3\n        /* \"#utility.yul\":5640:5652   */\n      add\n        /* \"#utility.yul\":5633:5652   */\n      swap2\n      pop\n        /* \"#utility.yul\":5669:5764   */\n      tag_129\n        /* \"#utility.yul\":5760:5763   */\n      dup3\n        /* \"#utility.yul\":5751:5757   */\n      dup5\n        /* \"#utility.yul\":5669:5764   */\n      tag_96\n      jump\t// in\n    tag_129:\n        /* \"#utility.yul\":5662:5764   */\n      swap2\n      pop\n        /* \"#utility.yul\":5781:5784   */\n      dup2\n        /* \"#utility.yul\":5774:5784   */\n      swap1\n      pop\n        /* \"#utility.yul\":5233:5790   */\n      swap5\n      swap4\n      pop\n      pop\n      pop\n      pop\n      jump\t// out\n        /* \"#utility.yul\":5796:6177   */\n    tag_20:\n        /* \"#utility.yul\":5981:5984   */\n      0x00\n        /* \"#utility.yul\":6003:6151   */\n      tag_131\n        /* \"#utility.yul\":6147:6150   */\n      dup3\n        /* \"#utility.yul\":6003:6151   */\n      tag_102\n      jump\t// in\n    tag_131:\n        /* \"#utility.yul\":5996:6151   */\n      swap2\n      pop\n        /* \"#utility.yul\":6168:6171   */\n      dup2\n        /* \"#utility.yul\":6161:6171   */\n      swap1\n      pop\n        /* \"#utility.yul\":5796:6177   */\n      swap2\n      swap1\n      pop\n      jump\t// out\n        /* \"#utility.yul\":6183:6564   */\n    tag_24:\n        /* \"#utility.yul\":6368:6371   */\n      0x00\n        /* \"#utility.yul\":6390:6538   */\n      tag_133\n        /* \"#utility.yul\":6534:6537   */\n      dup3\n        /* \"#utility.yul\":6390:6538   */\n      tag_107\n      jump\t// in\n    tag_133:\n        /* \"#utility.yul\":6383:6538   */\n      swap2\n      pop\n        /* \"#utility.yul\":6555:6558   */\n      dup2\n        /* \"#utility.yul\":6548:6558   */\n      swap1\n      pop\n        /* \"#utility.yul\":6183:6564   */\n      swap2\n      swap1\n      pop\n      jump\t// out\n        /* \"#utility.yul\":6570:6951   */\n    tag_22:\n        /* \"#utility.yul\":6755:6758   */\n      0x00\n        /* \"#utility.yul\":6777:6925   */\n      tag_135\n        /* \"#utility.yul\":6921:6924   */\n      dup3\n        /* \"#utility.yul\":6777:6925   */\n      tag_112\n      jump\t// in\n    tag_135:\n        /* \"#utility.yul\":6770:6925   */\n      swap2\n      pop\n        /* \"#utility.yul\":6942:6945   */\n      dup2\n        /* \"#utility.yul\":6935:6945   */\n      swap1\n      pop\n        /* \"#utility.yul\":6570:6951   */\n      swap2\n      swap1\n      pop\n      jump\t// out\n        /* \"#utility.yul\":6957:7179   */\n    tag_10:\n        /* \"#utility.yul\":7050:7054   */\n      0x00\n        /* \"#utility.yul\":7088:7090   */\n      0x20\n        /* \"#utility.yul\":7077:7086   */\n      dup3\n        /* \"#utility.yul\":7073:7091   */\n      add\n        /* \"#utility.yul\":7065:7091   */\n      swap1\n      pop\n        /* \"#utility.yul\":7101:7172   */\n      tag_137\n        /* \"#utility.yul\":7169:7170   */\n      0x00\n        /* \"#utility.yul\":7158:7167   */\n      dup4\n        /* \"#utility.yul\":7154:7171   */\n      add\n        /* \"#utility.yul\":7145:7151   */\n      dup5\n        /* \"#utility.yul\":7101:7172   */\n      tag_117\n      jump\t// in\n    tag_137:\n        /* \"#utility.yul\":6957:7179   */\n      swap3\n      swap2\n      pop\n      pop\n      jump\t// out\n        /* \"#utility.yul\":7185:7829   */\n    tag_27:\n        /* \"#utility.yul\":7382:7386   */\n      0x00\n        /* \"#utility.yul\":7420:7423   */\n      0x80\n        /* \"#utility.yul\":7409:7418   */\n      dup3\n        /* \"#utility.yul\":7405:7424   */\n      add\n        /* \"#utility.yul\":7397:7424   */\n      swap1\n      pop\n        /* \"#utility.yul\":7434:7505   */\n      tag_139\n        /* \"#utility.yul\":7502:7503   */\n      0x00\n        /* \"#utility.yul\":7491:7500   */\n      dup4\n        /* \"#utility.yul\":7487:7504   */\n      add\n        /* \"#utility.yul\":7478:7484   */\n      dup8\n        /* \"#utility.yul\":7434:7505   */\n      tag_117\n      jump\t// in\n    tag_139:\n        /* \"#utility.yul\":7515:7587   */\n      tag_140\n        /* \"#utility.yul\":7583:7585   */\n      0x20\n        /* \"#utility.yul\":7572:7581   */\n      dup4\n        /* \"#utility.yul\":7568:7586   */\n      add\n        /* \"#utility.yul\":7559:7565   */\n      dup7\n        /* \"#utility.yul\":7515:7587   */\n      tag_77\n      jump\t// in\n    tag_140:\n        /* \"#utility.yul\":7597:7669   */\n      tag_141\n        /* \"#utility.yul\":7665:7667   */\n      0x40\n        /* \"#utility.yul\":7654:7663   */\n      dup4\n        /* \"#utility.yul\":7650:7668   */\n      add\n        /* \"#utility.yul\":7641:7647   */\n      dup6\n        /* \"#utility.yul\":7597:7669   */\n      tag_117\n      jump\t// in\n    tag_141:\n        /* \"#utility.yul\":7716:7725   */\n      dup2\n        /* \"#utility.yul\":7710:7714   */\n      dup2\n        /* \"#utility.yul\":7706:7726   */\n      sub\n        /* \"#utility.yul\":7701:7703   */\n      0x60\n        /* \"#utility.yul\":7690:7699   */\n      dup4\n        /* \"#utility.yul\":7686:7704   */\n      add\n        /* \"#utility.yul\":7679:7727   */\n      mstore\n        /* \"#utility.yul\":7744:7822   */\n      tag_142\n        /* \"#utility.yul\":7817:7821   */\n      dup2\n        /* \"#utility.yul\":7808:7814   */\n      dup5\n        /* \"#utility.yul\":7744:7822   */\n      tag_86\n      jump\t// in\n    tag_142:\n        /* \"#utility.yul\":7736:7822   */\n      swap1\n      pop\n        /* \"#utility.yul\":7185:7829   */\n      swap6\n      swap5\n      pop\n      pop\n      pop\n      pop\n      pop\n      jump\t// out\n        /* \"#utility.yul\":7835:7964   */\n    tag_39:\n        /* \"#utility.yul\":7869:7875   */\n      0x00\n        /* \"#utility.yul\":7896:7916   */\n      tag_144\n      tag_145\n      jump\t// in\n    tag_144:\n        /* \"#utility.yul\":7886:7916   */\n      swap1\n      pop\n        /* \"#utility.yul\":7925:7958   */\n      tag_146\n        /* \"#utility.yul\":7953:7957   */\n      dup3\n        /* \"#utility.yul\":7945:7951   */\n      dup3\n        /* \"#utility.yul\":7925:7958   */\n      tag_147\n      jump\t// in\n    tag_146:\n        /* \"#utility.yul\":7835:7964   */\n      swap2\n      swap1\n      pop\n      jump\t// out\n        /* \"#utility.yul\":7970:8045   */\n    tag_145:\n        /* \"#utility.yul\":8003:8009   */\n      0x00\n        /* \"#utility.yul\":8036:8038   */\n      0x40\n        /* \"#utility.yul\":8030:8039   */\n      mload\n        /* \"#utility.yul\":8020:8039   */\n      swap1\n      pop\n        /* \"#utility.yul\":7970:8045   */\n      swap1\n      jump\t// out\n        /* \"#utility.yul\":8051:8359   */\n    tag_38:\n        /* \"#utility.yul\":8113:8117   */\n      0x00\n        /* \"#utility.yul\":8203:8221   */\n      0xffffffffffffffff\n        /* \"#utility.yul\":8195:8201   */\n      dup3\n        /* \"#utility.yul\":8192:8222   */\n      gt\n        /* \"#utility.yul\":8189:8245   */\n      iszero\n      tag_150\n      jumpi\n        /* \"#utility.yul\":8225:8243   */\n      tag_151\n      tag_152\n      jump\t// in\n    tag_151:\n        /* \"#utility.yul\":8189:8245   */\n    tag_150:\n        /* \"#utility.yul\":8263:8292   */\n      tag_153\n        /* \"#utility.yul\":8285:8291   */\n      dup3\n        /* \"#utility.yul\":8263:8292   */\n      tag_95\n      jump\t// in\n    tag_153:\n        /* \"#utility.yul\":8255:8292   */\n      swap1\n      pop\n        /* \"#utility.yul\":8347:8351   */\n      0x20\n        /* \"#utility.yul\":8341:8345   */\n      dup2\n        /* \"#utility.yul\":8337:8352   */\n      add\n        /* \"#utility.yul\":8329:8352   */\n      swap1\n      pop\n        /* \"#utility.yul\":8051:8359   */\n      swap2\n      swap1\n      pop\n      jump\t// out\n        /* \"#utility.yul\":8365:8464   */\n    tag_89:\n        /* \"#utility.yul\":8417:8423   */\n      0x00\n        /* \"#utility.yul\":8451:8456   */\n      dup2\n        /* \"#utility.yul\":8445:8457   */\n      mload\n        /* \"#utility.yul\":8435:8457   */\n      swap1\n      pop\n        /* \"#utility.yul\":8365:8464   */\n      swap2\n      swap1\n      pop\n      jump\t// out\n        /* \"#utility.yul\":8470:8639   */\n    tag_91:\n        /* \"#utility.yul\":8554:8565   */\n      0x00\n        /* \"#utility.yul\":8588:8594   */\n      dup3\n        /* \"#utility.yul\":8583:8586   */\n      dup3\n        /* \"#utility.yul\":8576:8595   */\n      mstore\n        /* \"#utility.yul\":8628:8632   */\n      0x20\n        /* \"#utility.yul\":8623:8626   */\n      dup3\n        /* \"#utility.yul\":8619:8633   */\n      add\n        /* \"#utility.yul\":8604:8633   */\n      swap1\n      pop\n        /* \"#utility.yul\":8470:8639   */\n      swap3\n      swap2\n      pop\n      pop\n      jump\t// out\n        /* \"#utility.yul\":8645:8793   */\n    tag_100:\n        /* \"#utility.yul\":8747:8758   */\n      0x00\n        /* \"#utility.yul\":8784:8787   */\n      dup2\n        /* \"#utility.yul\":8769:8787   */\n      swap1\n      pop\n        /* \"#utility.yul\":8645:8793   */\n      swap3\n      swap2\n      pop\n      pop\n      jump\t// out\n        /* \"#utility.yul\":8799:8895   */\n    tag_80:\n        /* \"#utility.yul\":8836:8843   */\n      0x00\n        /* \"#utility.yul\":8865:8889   */\n      tag_158\n        /* \"#utility.yul\":8883:8888   */\n      dup3\n        /* \"#utility.yul\":8865:8889   */\n      tag_159\n      jump\t// in\n    tag_158:\n        /* \"#utility.yul\":8854:8889   */\n      swap1\n      pop\n        /* \"#utility.yul\":8799:8895   */\n      swap2\n      swap1\n      pop\n      jump\t// out\n        /* \"#utility.yul\":8901:9027   */\n    tag_159:\n        /* \"#utility.yul\":8938:8945   */\n      0x00\n        /* \"#utility.yul\":8978:9020   */\n      0xffffffffffffffffffffffffffffffffffffffff\n        /* \"#utility.yul\":8971:8976   */\n      dup3\n        /* \"#utility.yul\":8967:9021   */\n      and\n        /* \"#utility.yul\":8956:9021   */\n      swap1\n      pop\n        /* \"#utility.yul\":8901:9027   */\n      swap2\n      swap1\n      pop\n      jump\t// out\n        /* \"#utility.yul\":9033:9110   */\n    tag_120:\n        /* \"#utility.yul\":9070:9077   */\n      0x00\n        /* \"#utility.yul\":9099:9104   */\n      dup2\n        /* \"#utility.yul\":9088:9104   */\n      swap1\n      pop\n        /* \"#utility.yul\":9033:9110   */\n      swap2\n      swap1\n      pop\n      jump\t// out\n        /* \"#utility.yul\":9116:9270   */\n    tag_44:\n        /* \"#utility.yul\":9200:9206   */\n      dup3\n        /* \"#utility.yul\":9195:9198   */\n      dup2\n        /* \"#utility.yul\":9190:9193   */\n      dup4\n        /* \"#utility.yul\":9177:9207   */\n      calldatacopy\n        /* \"#utility.yul\":9262:9263   */\n      0x00\n        /* \"#utility.yul\":9253:9259   */\n      dup4\n        /* \"#utility.yul\":9248:9251   */\n      dup4\n        /* \"#utility.yul\":9244:9260   */\n      add\n        /* \"#utility.yul\":9237:9264   */\n      mstore\n        /* \"#utility.yul\":9116:9270   */\n      pop\n      pop\n      pop\n      jump\t// out\n        /* \"#utility.yul\":9276:9583   */\n    tag_93:\n        /* \"#utility.yul\":9344:9345   */\n      0x00\n        /* \"#utility.yul\":9354:9467   */\n    tag_164:\n        /* \"#utility.yul\":9368:9374   */\n      dup4\n        /* \"#utility.yul\":9365:9366   */\n      dup2\n        /* \"#utility.yul\":9362:9375   */\n      lt\n        /* \"#utility.yul\":9354:9467   */\n      iszero\n      tag_166\n      jumpi\n        /* \"#utility.yul\":9453:9454   */\n      dup1\n        /* \"#utility.yul\":9448:9451   */\n      dup3\n        /* \"#utility.yul\":9444:9455   */\n      add\n        /* \"#utility.yul\":9438:9456   */\n      mload\n        /* \"#utility.yul\":9434:9435   */\n      dup2\n        /* \"#utility.yul\":9429:9432   */\n      dup5\n        /* \"#utility.yul\":9425:9436   */\n      add\n        /* \"#utility.yul\":9418:9457   */\n      mstore\n        /* \"#utility.yul\":9390:9392   */\n      0x20\n        /* \"#utility.yul\":9387:9388   */\n      dup2\n        /* \"#utility.yul\":9383:9393   */\n      add\n        /* \"#utility.yul\":9378:9393   */\n      swap1\n      pop\n        /* \"#utility.yul\":9354:9467   */\n      jump(tag_164)\n    tag_166:\n        /* \"#utility.yul\":9485:9491   */\n      dup4\n        /* \"#utility.yul\":9482:9483   */\n      dup2\n        /* \"#utility.yul\":9479:9492   */\n      gt\n        /* \"#utility.yul\":9476:9577   */\n      iszero\n      tag_167\n      jumpi\n        /* \"#utility.yul\":9565:9566   */\n      0x00\n        /* \"#utility.yul\":9556:9562   */\n      dup5\n        /* \"#utility.yul\":9551:9554   */\n      dup5\n        /* \"#utility.yul\":9547:9563   */\n      add\n        /* \"#utility.yul\":9540:9567   */\n      mstore\n        /* \"#utility.yul\":9476:9577   */\n    tag_167:\n        /* \"#utility.yul\":9325:9583   */\n      pop\n        /* \"#utility.yul\":9276:9583   */\n      pop\n      pop\n      pop\n      jump\t// out\n        /* \"#utility.yul\":9589:9870   */\n    tag_147:\n        /* \"#utility.yul\":9672:9699   */\n      tag_169\n        /* \"#utility.yul\":9694:9698   */\n      dup3\n        /* \"#utility.yul\":9672:9699   */\n      tag_95\n      jump\t// in\n    tag_169:\n        /* \"#utility.yul\":9664:9670   */\n      dup2\n        /* \"#utility.yul\":9660:9700   */\n      add\n        /* \"#utility.yul\":9802:9808   */\n      dup2\n        /* \"#utility.yul\":9790:9800   */\n      dup2\n        /* \"#utility.yul\":9787:9809   */\n      lt\n        /* \"#utility.yul\":9766:9784   */\n      0xffffffffffffffff\n        /* \"#utility.yul\":9754:9764   */\n      dup3\n        /* \"#utility.yul\":9751:9785   */\n      gt\n        /* \"#utility.yul\":9748:9810   */\n      or\n        /* \"#utility.yul\":9745:9833   */\n      iszero\n      tag_170\n      jumpi\n        /* \"#utility.yul\":9813:9831   */\n      tag_171\n      tag_152\n      jump\t// in\n    tag_171:\n        /* \"#utility.yul\":9745:9833   */\n    tag_170:\n        /* \"#utility.yul\":9853:9863   */\n      dup1\n        /* \"#utility.yul\":9849:9851   */\n      0x40\n        /* \"#utility.yul\":9842:9864   */\n      mstore\n        /* \"#utility.yul\":9632:9870   */\n      pop\n        /* \"#utility.yul\":9589:9870   */\n      pop\n      pop\n      jump\t// out\n        /* \"#utility.yul\":9876:9976   */\n    tag_85:\n        /* \"#utility.yul\":9915:9922   */\n      0x00\n        /* \"#utility.yul\":9944:9970   */\n      tag_173\n        /* \"#utility.yul\":9964:9969   */\n      dup3\n        /* \"#utility.yul\":9944:9970   */\n      tag_174\n      jump\t// in\n    tag_173:\n        /* \"#utility.yul\":9933:9970   */\n      swap1\n      pop\n        /* \"#utility.yul\":9876:9976   */\n      swap2\n      swap1\n      pop\n      jump\t// out\n        /* \"#utility.yul\":9982:10076   */\n    tag_174:\n        /* \"#utility.yul\":10021:10028   */\n      0x00\n        /* \"#utility.yul\":10050:10070   */\n      tag_176\n        /* \"#utility.yul\":10064:10069   */\n      dup3\n        /* \"#utility.yul\":10050:10070   */\n      tag_177\n      jump\t// in\n    tag_176:\n        /* \"#utility.yul\":10039:10070   */\n      swap1\n      pop\n        /* \"#utility.yul\":9982:10076   */\n      swap2\n      swap1\n      pop\n      jump\t// out\n        /* \"#utility.yul\":10082:10161   */\n    tag_125:\n        /* \"#utility.yul\":10121:10128   */\n      0x00\n        /* \"#utility.yul\":10150:10155   */\n      dup2\n        /* \"#utility.yul\":10139:10155   */\n      swap1\n      pop\n        /* \"#utility.yul\":10082:10161   */\n      swap2\n      swap1\n      pop\n      jump\t// out\n        /* \"#utility.yul\":10167:10343   */\n    tag_32:\n        /* \"#utility.yul\":10199:10200   */\n      0x00\n        /* \"#utility.yul\":10216:10236   */\n      tag_180\n        /* \"#utility.yul\":10234:10235   */\n      dup3\n        /* \"#utility.yul\":10216:10236   */\n      tag_120\n      jump\t// in\n    tag_180:\n        /* \"#utility.yul\":10211:10236   */\n      swap2\n      pop\n        /* \"#utility.yul\":10250:10270   */\n      tag_181\n        /* \"#utility.yul\":10268:10269   */\n      dup4\n        /* \"#utility.yul\":10250:10270   */\n      tag_120\n      jump\t// in\n    tag_181:\n        /* \"#utility.yul\":10245:10270   */\n      swap3\n      pop\n        /* \"#utility.yul\":10289:10290   */\n      dup3\n        /* \"#utility.yul\":10279:10314   */\n      tag_182\n      jumpi\n        /* \"#utility.yul\":10294:10312   */\n      tag_183\n      tag_184\n      jump\t// in\n    tag_183:\n        /* \"#utility.yul\":10279:10314   */\n    tag_182:\n        /* \"#utility.yul\":10335:10336   */\n      dup3\n        /* \"#utility.yul\":10332:10333   */\n      dup3\n        /* \"#utility.yul\":10328:10337   */\n      mod\n        /* \"#utility.yul\":10323:10337   */\n      swap1\n      pop\n        /* \"#utility.yul\":10167:10343   */\n      swap3\n      swap2\n      pop\n      pop\n      jump\t// out\n        /* \"#utility.yul\":10349:10529   */\n    tag_184:\n        /* \"#utility.yul\":10397:10474   */\n      0x4e487b7100000000000000000000000000000000000000000000000000000000\n        /* \"#utility.yul\":10394:10395   */\n      0x00\n        /* \"#utility.yul\":10387:10475   */\n      mstore\n        /* \"#utility.yul\":10494:10498   */\n      0x12\n        /* \"#utility.yul\":10491:10492   */\n      0x04\n        /* \"#utility.yul\":10484:10499   */\n      mstore\n        /* \"#utility.yul\":10518:10522   */\n      0x24\n        /* \"#utility.yul\":10515:10516   */\n      0x00\n        /* \"#utility.yul\":10508:10523   */\n      revert\n        /* \"#utility.yul\":10535:10715   */\n    tag_152:\n        /* \"#utility.yul\":10583:10660   */\n      0x4e487b7100000000000000000000000000000000000000000000000000000000\n        /* \"#utility.yul\":10580:10581   */\n      0x00\n        /* \"#utility.yul\":10573:10661   */\n      mstore\n        /* \"#utility.yul\":10680:10684   */\n      0x41\n        /* \"#utility.yul\":10677:10678   */\n      0x04\n        /* \"#utility.yul\":10670:10685   */\n      mstore\n        /* \"#utility.yul\":10704:10708   */\n      0x24\n        /* \"#utility.yul\":10701:10702   */\n      0x00\n        /* \"#utility.yul\":10694:10709   */\n      revert\n        /* \"#utility.yul\":10721:10838   */\n    tag_53:\n        /* \"#utility.yul\":10830:10831   */\n      0x00\n        /* \"#utility.yul\":10827:10828   */\n      dup1\n        /* \"#utility.yul\":10820:10832   */\n      revert\n        /* \"#utility.yul\":10844:10961   */\n    tag_42:\n        /* \"#utility.yul\":10953:10954   */\n      0x00\n        /* \"#utility.yul\":10950:10951   */\n      dup1\n        /* \"#utility.yul\":10943:10955   */\n      revert\n        /* \"#utility.yul\":10967:11084   */\n    tag_66:\n        /* \"#utility.yul\":11076:11077   */\n      0x00\n        /* \"#utility.yul\":11073:11074   */\n      dup1\n        /* \"#utility.yul\":11066:11078   */\n      revert\n        /* \"#utility.yul\":11090:11207   */\n    tag_62:\n        /* \"#utility.yul\":11199:11200   */\n      0x00\n        /* \"#utility.yul\":11196:11197   */\n      dup1\n        /* \"#utility.yul\":11189:11201   */\n      revert\n        /* \"#utility.yul\":11213:11315   */\n    tag_95:\n        /* \"#utility.yul\":11254:11260   */\n      0x00\n        /* \"#utility.yul\":11305:11307   */\n      0x1f\n        /* \"#utility.yul\":11301:11308   */\n      not\n        /* \"#utility.yul\":11296:11298   */\n      0x1f\n        /* \"#utility.yul\":11289:11294   */\n      dup4\n        /* \"#utility.yul\":11285:11299   */\n      add\n        /* \"#utility.yul\":11281:11309   */\n      and\n        /* \"#utility.yul\":11271:11309   */\n      swap1\n      pop\n        /* \"#utility.yul\":11213:11315   */\n      swap2\n      swap1\n      pop\n      jump\t// out\n        /* \"#utility.yul\":11321:11415   */\n    tag_177:\n        /* \"#utility.yul\":11354:11362   */\n      0x00\n        /* \"#utility.yul\":11402:11407   */\n      dup2\n        /* \"#utility.yul\":11398:11400   */\n      0x60\n        /* \"#utility.yul\":11394:11408   */\n      shl\n        /* \"#utility.yul\":11373:11408   */\n      swap1\n      pop\n        /* \"#utility.yul\":11321:11415   */\n      swap2\n      swap1\n      pop\n      jump\t// out\n        /* \"#utility.yul\":11421:11576   */\n    tag_106:\n        /* \"#utility.yul\":11561:11568   */\n      0x7072696365000000000000000000000000000000000000000000000000000000\n        /* \"#utility.yul\":11557:11558   */\n      0x00\n        /* \"#utility.yul\":11549:11555   */\n      dup3\n        /* \"#utility.yul\":11545:11559   */\n      add\n        /* \"#utility.yul\":11538:11569   */\n      mstore\n        /* \"#utility.yul\":11421:11576   */\n      pop\n      jump\t// out\n        /* \"#utility.yul\":11582:11745   */\n    tag_111:\n        /* \"#utility.yul\":11722:11737   */\n      0x73656c6c65724164647265737300000000000000000000000000000000000000\n        /* \"#utility.yul\":11718:11719   */\n      0x00\n        /* \"#utility.yul\":11710:11716   */\n      dup3\n        /* \"#utility.yul\":11706:11720   */\n      add\n        /* \"#utility.yul\":11699:11738   */\n      mstore\n        /* \"#utility.yul\":11582:11745   */\n      pop\n      jump\t// out\n        /* \"#utility.yul\":11751:11905   */\n    tag_116:\n        /* \"#utility.yul\":11891:11897   */\n      0x6172656100000000000000000000000000000000000000000000000000000000\n        /* \"#utility.yul\":11887:11888   */\n      0x00\n        /* \"#utility.yul\":11879:11885   */\n      dup3\n        /* \"#utility.yul\":11875:11889   */\n      add\n        /* \"#utility.yul\":11868:11898   */\n      mstore\n        /* \"#utility.yul\":11751:11905   */\n      pop\n      jump\t// out\n        /* \"#utility.yul\":11911:12033   */\n    tag_48:\n        /* \"#utility.yul\":11984:12008   */\n      tag_197\n        /* \"#utility.yul\":12002:12007   */\n      dup2\n        /* \"#utility.yul\":11984:12008   */\n      tag_80\n      jump\t// in\n    tag_197:\n        /* \"#utility.yul\":11977:11982   */\n      dup2\n        /* \"#utility.yul\":11974:12009   */\n      eq\n        /* \"#utility.yul\":11964:12027   */\n      tag_198\n      jumpi\n        /* \"#utility.yul\":12023:12024   */\n      0x00\n        /* \"#utility.yul\":12020:12021   */\n      dup1\n        /* \"#utility.yul\":12013:12025   */\n      revert\n        /* \"#utility.yul\":11964:12027   */\n    tag_198:\n        /* \"#utility.yul\":11911:12033   */\n      pop\n      jump\t// out\n        /* \"#utility.yul\":12039:12161   */\n    tag_58:\n        /* \"#utility.yul\":12112:12136   */\n      tag_200\n        /* \"#utility.yul\":12130:12135   */\n      dup2\n        /* \"#utility.yul\":12112:12136   */\n      tag_120\n      jump\t// in\n    tag_200:\n        /* \"#utility.yul\":12105:12110   */\n      dup2\n        /* \"#utility.yul\":12102:12137   */\n      eq\n        /* \"#utility.yul\":12092:12155   */\n      tag_201\n      jumpi\n        /* \"#utility.yul\":12151:12152   */\n      0x00\n        /* \"#utility.yul\":12148:12149   */\n      dup1\n        /* \"#utility.yul\":12141:12153   */\n      revert\n        /* \"#utility.yul\":12092:12155   */\n    tag_201:\n        /* \"#utility.yul\":12039:12161   */\n      pop\n      jump\t// out\n\n    auxdata: 0xa2646970667358221220a05df9d6dee7166ab21e027a89438265a899b2b4e6f5421d580c30873aea9fd064736f6c63430008070033\n}\n",
				"bytecode": {
					"linkReferences": {},
					"object": "60806040526005600055600054600a6200001a91906200008c565b6001553480156200002a57600080fd5b506200020f565b6000808291508390505b600185111562000083578086048111156200005b576200005a620001d3565b5b60018516156200006b5780820291505b80810290506200007b8562000202565b94506200003b565b94509492505050565b60006200009982620001c9565b9150620000a683620001c9565b9250620000d57fffffffffffffffffffffffffffffffffffffffffffffffffffffffffffffffff8484620000dd565b905092915050565b600082620000ef5760019050620001c2565b81620000ff5760009050620001c2565b8160018114620001185760028114620001235762000159565b6001915050620001c2565b60ff841115620001385762000137620001d3565b5b8360020a915084821115620001525762000151620001d3565b5b50620001c2565b5060208310610133831016604e8410600b8410161715620001935782820a9050838111156200018d576200018c620001d3565b5b620001c2565b620001a2848484600162000031565b92509050818404811115620001bc57620001bb620001d3565b5b81810290505b9392505050565b6000819050919050565b7f4e487b7100000000000000000000000000000000000000000000000000000000600052601160045260246000fd5b60008160011c9050919050565b6108b3806200021f6000396000f3fe608060405234801561001057600080fd5b50600436106100365760003560e01c806391bfe0d41461003b578063cd9c199a1461006b575b600080fd5b61005560048036038101906100509190610338565b61009b565b6040516100629190610552565b60405180910390f35b610085600480360381019061008091906102dc565b6101bc565b6040516100929190610552565b60405180910390f35b6000806100a98486856101f7565b905085600260008381526020019081526020016000206040516100cb90610513565b90815260200160405180910390208190555084600260008381526020019081526020016000206040516100fd9061053d565b908152602001604051809103902081905550856002600083815260200190815260200160002060405161012f90610528565b908152602001604051809103902081905550856002600083815260200190815260200160002060405161016190610513565b9081526020016040518091039020819055507f8f5afd88eb4be0ac287d87970052ce9a2b453448408e3c91a695ad7509ab7194818588866040516101a8949392919061056d565b60405180910390a180915050949350505050565b600260205281600052604060002081805160208101820180518482526020830160208501208183528095505050505050600091509150505481565b60008084848460405160200161020f939291906104da565b6040516020818303038152906040528051906020012060001c9050600154816102389190610713565b9150509392505050565b6000610255610250846105de565b6105b9565b905082815260208101848484011115610271576102706107a7565b5b61027c848285610672565b509392505050565b6000813590506102938161084f565b92915050565b600082601f8301126102ae576102ad6107a2565b5b81356102be848260208601610242565b91505092915050565b6000813590506102d681610866565b92915050565b600080604083850312156102f3576102f26107b1565b5b6000610301858286016102c7565b925050602083013567ffffffffffffffff811115610322576103216107ac565b5b61032e85828601610299565b9150509250929050565b60008060008060808587031215610352576103516107b1565b5b6000610360878288016102c7565b9450506020610371878288016102c7565b935050604061038287828801610284565b925050606085013567ffffffffffffffff8111156103a3576103a26107ac565b5b6103af87828801610299565b91505092959194509250565b6103c481610636565b82525050565b6103db6103d682610636565b6106e5565b82525050565b60006103ec8261060f565b6103f6818561061a565b9350610406818560208601610681565b61040f816107b6565b840191505092915050565b60006104258261060f565b61042f818561062b565b935061043f818560208601610681565b80840191505092915050565b600061045860058361062b565b9150610463826107d4565b600582019050919050565b600061047b600d8361062b565b9150610486826107fd565b600d82019050919050565b600061049e60048361062b565b91506104a982610826565b600482019050919050565b6104bd81610668565b82525050565b6104d46104cf82610668565b610709565b82525050565b60006104e682866103ca565b6014820191506104f682856104c3565b602082019150610506828461041a565b9150819050949350505050565b600061051e8261044b565b9150819050919050565b60006105338261046e565b9150819050919050565b600061054882610491565b9150819050919050565b600060208201905061056760008301846104b4565b92915050565b600060808201905061058260008301876104b4565b61058f60208301866103bb565b61059c60408301856104b4565b81810360608301526105ae81846103e1565b905095945050505050565b60006105c36105d4565b90506105cf82826106b4565b919050565b6000604051905090565b600067ffffffffffffffff8211156105f9576105f8610773565b5b610602826107b6565b9050602081019050919050565b600081519050919050565b600082825260208201905092915050565b600081905092915050565b600061064182610648565b9050919050565b600073ffffffffffffffffffffffffffffffffffffffff82169050919050565b6000819050919050565b82818337600083830152505050565b60005b8381101561069f578082015181840152602081019050610684565b838111156106ae576000848401525b50505050565b6106bd826107b6565b810181811067ffffffffffffffff821117156106dc576106db610773565b5b80604052505050565b60006106f0826106f7565b9050919050565b6000610702826107c7565b9050919050565b6000819050919050565b600061071e82610668565b915061072983610668565b92508261073957610738610744565b5b828206905092915050565b7f4e487b7100000000000000000000000000000000000000000000000000000000600052601260045260246000fd5b7f4e487b7100000000000000000000000000000000000000000000000000000000600052604160045260246000fd5b600080fd5b600080fd5b600080fd5b600080fd5b6000601f19601f8301169050919050565b60008160601b9050919050565b7f7072696365000000000000000000000000000000000000000000000000000000600082015250565b7f73656c6c65724164647265737300000000000000000000000000000000000000600082015250565b7f6172656100000000000000000000000000000000000000000000000000000000600082015250565b61085881610636565b811461086357600080fd5b50565b61086f81610668565b811461087a57600080fd5b5056fea2646970667358221220a05df9d6dee7166ab21e027a89438265a899b2b4e6f5421d580c30873aea9fd064736f6c63430008070033",
					"opcodes": "PUSH1 0x80 PUSH1 0x40 MSTORE PUSH1 0x5 PUSH1 0x0 SSTORE PUSH1 0x0 SLOAD PUSH1 0xA PUSH3 0x1A SWAP2 SWAP1 PUSH3 0x8C JUMP JUMPDEST PUSH1 0x1 SSTORE CALLVALUE DUP1 ISZERO PUSH3 0x2A JUMPI PUSH1 0x0 DUP1 REVERT JUMPDEST POP PUSH3 0x20F JUMP JUMPDEST PUSH1 0x0 DUP1 DUP3 SWAP2 POP DUP4 SWAP1 POP JUMPDEST PUSH1 0x1 DUP6 GT ISZERO PUSH3 0x83 JUMPI DUP1 DUP7 DIV DUP2 GT ISZERO PUSH3 0x5B JUMPI PUSH3 0x5A PUSH3 0x1D3 JUMP JUMPDEST JUMPDEST PUSH1 0x1 DUP6 AND ISZERO PUSH3 0x6B JUMPI DUP1 DUP3 MUL SWAP2 POP JUMPDEST DUP1 DUP2 MUL SWAP1 POP PUSH3 0x7B DUP6 PUSH3 0x202 JUMP JUMPDEST SWAP5 POP PUSH3 0x3B JUMP JUMPDEST SWAP5 POP SWAP5 SWAP3 POP POP POP JUMP JUMPDEST PUSH1 0x0 PUSH3 0x99 DUP3 PUSH3 0x1C9 JUMP JUMPDEST SWAP2 POP PUSH3 0xA6 DUP4 PUSH3 0x1C9 JUMP JUMPDEST SWAP3 POP PUSH3 0xD5 PUSH32 0xFFFFFFFFFFFFFFFFFFFFFFFFFFFFFFFFFFFFFFFFFFFFFFFFFFFFFFFFFFFFFFFF DUP5 DUP5 PUSH3 0xDD JUMP JUMPDEST SWAP1 POP SWAP3 SWAP2 POP POP JUMP JUMPDEST PUSH1 0x0 DUP3 PUSH3 0xEF JUMPI PUSH1 0x1 SWAP1 POP PUSH3 0x1C2 JUMP JUMPDEST DUP2 PUSH3 0xFF JUMPI PUSH1 0x0 SWAP1 POP PUSH3 0x1C2 JUMP JUMPDEST DUP2 PUSH1 0x1 DUP2 EQ PUSH3 0x118 JUMPI PUSH1 0x2 DUP2 EQ PUSH3 0x123 JUMPI PUSH3 0x159 JUMP JUMPDEST PUSH1 0x1 SWAP2 POP POP PUSH3 0x1C2 JUMP JUMPDEST PUSH1 0xFF DUP5 GT ISZERO PUSH3 0x138 JUMPI PUSH3 0x137 PUSH3 0x1D3 JUMP JUMPDEST JUMPDEST DUP4 PUSH1 0x2 EXP SWAP2 POP DUP5 DUP3 GT ISZERO PUSH3 0x152 JUMPI PUSH3 0x151 PUSH3 0x1D3 JUMP JUMPDEST JUMPDEST POP PUSH3 0x1C2 JUMP JUMPDEST POP PUSH1 0x20 DUP4 LT PUSH2 0x133 DUP4 LT AND PUSH1 0x4E DUP5 LT PUSH1 0xB DUP5 LT AND OR ISZERO PUSH3 0x193 JUMPI DUP3 DUP3 EXP SWAP1 POP DUP4 DUP2 GT ISZERO PUSH3 0x18D JUMPI PUSH3 0x18C PUSH3 0x1D3 JUMP JUMPDEST JUMPDEST PUSH3 0x1C2 JUMP JUMPDEST PUSH3 0x1A2 DUP5 DUP5 DUP5 PUSH1 0x1 PUSH3 0x31 JUMP JUMPDEST SWAP3 POP SWAP1 POP DUP2 DUP5 DIV DUP2 GT ISZERO PUSH3 0x1BC JUMPI PUSH3 0x1BB PUSH3 0x1D3 JUMP JUMPDEST JUMPDEST DUP2 DUP2 MUL SWAP1 POP JUMPDEST SWAP4 SWAP3 POP POP POP JUMP JUMPDEST PUSH1 0x0 DUP2 SWAP1 POP SWAP2 SWAP1 POP JUMP JUMPDEST PUSH32 0x4E487B7100000000000000000000000000000000000000000000000000000000 PUSH1 0x0 MSTORE PUSH1 0x11 PUSH1 0x4 MSTORE PUSH1 0x24 PUSH1 0x0 REVERT JUMPDEST PUSH1 0x0 DUP2 PUSH1 0x1 SHR SWAP1 POP SWAP2 SWAP1 POP JUMP JUMPDEST PUSH2 0x8B3 DUP1 PUSH3 0x21F PUSH1 0x0 CODECOPY PUSH1 0x0 RETURN INVALID PUSH1 0x80 PUSH1 0x40 MSTORE CALLVALUE DUP1 ISZERO PUSH2 0x10 JUMPI PUSH1 0x0 DUP1 REVERT JUMPDEST POP PUSH1 0x4 CALLDATASIZE LT PUSH2 0x36 JUMPI PUSH1 0x0 CALLDATALOAD PUSH1 0xE0 SHR DUP1 PUSH4 0x91BFE0D4 EQ PUSH2 0x3B JUMPI DUP1 PUSH4 0xCD9C199A EQ PUSH2 0x6B JUMPI JUMPDEST PUSH1 0x0 DUP1 REVERT JUMPDEST PUSH2 0x55 PUSH1 0x4 DUP1 CALLDATASIZE SUB DUP2 ADD SWAP1 PUSH2 0x50 SWAP2 SWAP1 PUSH2 0x338 JUMP JUMPDEST PUSH2 0x9B JUMP JUMPDEST PUSH1 0x40 MLOAD PUSH2 0x62 SWAP2 SWAP1 PUSH2 0x552 JUMP JUMPDEST PUSH1 0x40 MLOAD DUP1 SWAP2 SUB SWAP1 RETURN JUMPDEST PUSH2 0x85 PUSH1 0x4 DUP1 CALLDATASIZE SUB DUP2 ADD SWAP1 PUSH2 0x80 SWAP2 SWAP1 PUSH2 0x2DC JUMP JUMPDEST PUSH2 0x1BC JUMP JUMPDEST PUSH1 0x40 MLOAD PUSH2 0x92 SWAP2 SWAP1 PUSH2 0x552 JUMP JUMPDEST PUSH1 0x40 MLOAD DUP1 SWAP2 SUB SWAP1 RETURN JUMPDEST PUSH1 0x0 DUP1 PUSH2 0xA9 DUP5 DUP7 DUP6 PUSH2 0x1F7 JUMP JUMPDEST SWAP1 POP DUP6 PUSH1 0x2 PUSH1 0x0 DUP4 DUP2 MSTORE PUSH1 0x20 ADD SWAP1 DUP2 MSTORE PUSH1 0x20 ADD PUSH1 0x0 KECCAK256 PUSH1 0x40 MLOAD PUSH2 0xCB SWAP1 PUSH2 0x513 JUMP JUMPDEST SWAP1 DUP2 MSTORE PUSH1 0x20 ADD PUSH1 0x40 MLOAD DUP1 SWAP2 SUB SWAP1 KECCAK256 DUP2 SWAP1 SSTORE POP DUP5 PUSH1 0x2 PUSH1 0x0 DUP4 DUP2 MSTORE PUSH1 0x20 ADD SWAP1 DUP2 MSTORE PUSH1 0x20 ADD PUSH1 0x0 KECCAK256 PUSH1 0x40 MLOAD PUSH2 0xFD SWAP1 PUSH2 0x53D JUMP JUMPDEST SWAP1 DUP2 MSTORE PUSH1 0x20 ADD PUSH1 0x40 MLOAD DUP1 SWAP2 SUB SWAP1 KECCAK256 DUP2 SWAP1 SSTORE POP DUP6 PUSH1 0x2 PUSH1 0x0 DUP4 DUP2 MSTORE PUSH1 0x20 ADD SWAP1 DUP2 MSTORE PUSH1 0x20 ADD PUSH1 0x0 KECCAK256 PUSH1 0x40 MLOAD PUSH2 0x12F SWAP1 PUSH2 0x528 JUMP JUMPDEST SWAP1 DUP2 MSTORE PUSH1 0x20 ADD PUSH1 0x40 MLOAD DUP1 SWAP2 SUB SWAP1 KECCAK256 DUP2 SWAP1 SSTORE POP DUP6 PUSH1 0x2 PUSH1 0x0 DUP4 DUP2 MSTORE PUSH1 0x20 ADD SWAP1 DUP2 MSTORE PUSH1 0x20 ADD PUSH1 0x0 KECCAK256 PUSH1 0x40 MLOAD PUSH2 0x161 SWAP1 PUSH2 0x513 JUMP JUMPDEST SWAP1 DUP2 MSTORE PUSH1 0x20 ADD PUSH1 0x40 MLOAD DUP1 SWAP2 SUB SWAP1 KECCAK256 DUP2 SWAP1 SSTORE POP PUSH32 0x8F5AFD88EB4BE0AC287D87970052CE9A2B453448408E3C91A695AD7509AB7194 DUP2 DUP6 DUP9 DUP7 PUSH1 0x40 MLOAD PUSH2 0x1A8 SWAP5 SWAP4 SWAP3 SWAP2 SWAP1 PUSH2 0x56D JUMP JUMPDEST PUSH1 0x40 MLOAD DUP1 SWAP2 SUB SWAP1 LOG1 DUP1 SWAP2 POP POP SWAP5 SWAP4 POP POP POP POP JUMP JUMPDEST PUSH1 0x2 PUSH1 0x20 MSTORE DUP2 PUSH1 0x0 MSTORE PUSH1 0x40 PUSH1 0x0 KECCAK256 DUP2 DUP1 MLOAD PUSH1 0x20 DUP2 ADD DUP3 ADD DUP1 MLOAD DUP5 DUP3 MSTORE PUSH1 0x20 DUP4 ADD PUSH1 0x20 DUP6 ADD KECCAK256 DUP2 DUP4 MSTORE DUP1 SWAP6 POP POP POP POP POP POP PUSH1 0x0 SWAP2 POP SWAP2 POP POP SLOAD DUP2 JUMP JUMPDEST PUSH1 0x0 DUP1 DUP5 DUP5 DUP5 PUSH1 0x40 MLOAD PUSH1 0x20 ADD PUSH2 0x20F SWAP4 SWAP3 SWAP2 SWAP1 PUSH2 0x4DA JUMP JUMPDEST PUSH1 0x40 MLOAD PUSH1 0x20 DUP2 DUP4 SUB SUB DUP2 MSTORE SWAP1 PUSH1 0x40 MSTORE DUP1 MLOAD SWAP1 PUSH1 0x20 ADD KECCAK256 PUSH1 0x0 SHR SWAP1 POP PUSH1 0x1 SLOAD DUP2 PUSH2 0x238 SWAP2 SWAP1 PUSH2 0x713 JUMP JUMPDEST SWAP2 POP POP SWAP4 SWAP3 POP POP POP JUMP JUMPDEST PUSH1 0x0 PUSH2 0x255 PUSH2 0x250 DUP5 PUSH2 0x5DE JUMP JUMPDEST PUSH2 0x5B9 JUMP JUMPDEST SWAP1 POP DUP3 DUP2 MSTORE PUSH1 0x20 DUP2 ADD DUP5 DUP5 DUP5 ADD GT ISZERO PUSH2 0x271 JUMPI PUSH2 0x270 PUSH2 0x7A7 JUMP JUMPDEST JUMPDEST PUSH2 0x27C DUP5 DUP3 DUP6 PUSH2 0x672 JUMP JUMPDEST POP SWAP4 SWAP3 POP POP POP JUMP JUMPDEST PUSH1 0x0 DUP2 CALLDATALOAD SWAP1 POP PUSH2 0x293 DUP2 PUSH2 0x84F JUMP JUMPDEST SWAP3 SWAP2 POP POP JUMP JUMPDEST PUSH1 0x0 DUP3 PUSH1 0x1F DUP4 ADD SLT PUSH2 0x2AE JUMPI PUSH2 0x2AD PUSH2 0x7A2 JUMP JUMPDEST JUMPDEST DUP2 CALLDATALOAD PUSH2 0x2BE DUP5 DUP3 PUSH1 0x20 DUP7 ADD PUSH2 0x242 JUMP JUMPDEST SWAP2 POP POP SWAP3 SWAP2 POP POP JUMP JUMPDEST PUSH1 0x0 DUP2 CALLDATALOAD SWAP1 POP PUSH2 0x2D6 DUP2 PUSH2 0x866 JUMP JUMPDEST SWAP3 SWAP2 POP POP JUMP JUMPDEST PUSH1 0x0 DUP1 PUSH1 0x40 DUP4 DUP6 SUB SLT ISZERO PUSH2 0x2F3 JUMPI PUSH2 0x2F2 PUSH2 0x7B1 JUMP JUMPDEST JUMPDEST PUSH1 0x0 PUSH2 0x301 DUP6 DUP3 DUP7 ADD PUSH2 0x2C7 JUMP JUMPDEST SWAP3 POP POP PUSH1 0x20 DUP4 ADD CALLDATALOAD PUSH8 0xFFFFFFFFFFFFFFFF DUP2 GT ISZERO PUSH2 0x322 JUMPI PUSH2 0x321 PUSH2 0x7AC JUMP JUMPDEST JUMPDEST PUSH2 0x32E DUP6 DUP3 DUP7 ADD PUSH2 0x299 JUMP JUMPDEST SWAP2 POP POP SWAP3 POP SWAP3 SWAP1 POP JUMP JUMPDEST PUSH1 0x0 DUP1 PUSH1 0x0 DUP1 PUSH1 0x80 DUP6 DUP8 SUB SLT ISZERO PUSH2 0x352 JUMPI PUSH2 0x351 PUSH2 0x7B1 JUMP JUMPDEST JUMPDEST PUSH1 0x0 PUSH2 0x360 DUP8 DUP3 DUP9 ADD PUSH2 0x2C7 JUMP JUMPDEST SWAP5 POP POP PUSH1 0x20 PUSH2 0x371 DUP8 DUP3 DUP9 ADD PUSH2 0x2C7 JUMP JUMPDEST SWAP4 POP POP PUSH1 0x40 PUSH2 0x382 DUP8 DUP3 DUP9 ADD PUSH2 0x284 JUMP JUMPDEST SWAP3 POP POP PUSH1 0x60 DUP6 ADD CALLDATALOAD PUSH8 0xFFFFFFFFFFFFFFFF DUP2 GT ISZERO PUSH2 0x3A3 JUMPI PUSH2 0x3A2 PUSH2 0x7AC JUMP JUMPDEST JUMPDEST PUSH2 0x3AF DUP8 DUP3 DUP9 ADD PUSH2 0x299 JUMP JUMPDEST SWAP2 POP POP SWAP3 SWAP6 SWAP2 SWAP5 POP SWAP3 POP JUMP JUMPDEST PUSH2 0x3C4 DUP2 PUSH2 0x636 JUMP JUMPDEST DUP3 MSTORE POP POP JUMP JUMPDEST PUSH2 0x3DB PUSH2 0x3D6 DUP3 PUSH2 0x636 JUMP JUMPDEST PUSH2 0x6E5 JUMP JUMPDEST DUP3 MSTORE POP POP JUMP JUMPDEST PUSH1 0x0 PUSH2 0x3EC DUP3 PUSH2 0x60F JUMP JUMPDEST PUSH2 0x3F6 DUP2 DUP6 PUSH2 0x61A JUMP JUMPDEST SWAP4 POP PUSH2 0x406 DUP2 DUP6 PUSH1 0x20 DUP7 ADD PUSH2 0x681 JUMP JUMPDEST PUSH2 0x40F DUP2 PUSH2 0x7B6 JUMP JUMPDEST DUP5 ADD SWAP2 POP POP SWAP3 SWAP2 POP POP JUMP JUMPDEST PUSH1 0x0 PUSH2 0x425 DUP3 PUSH2 0x60F JUMP JUMPDEST PUSH2 0x42F DUP2 DUP6 PUSH2 0x62B JUMP JUMPDEST SWAP4 POP PUSH2 0x43F DUP2 DUP6 PUSH1 0x20 DUP7 ADD PUSH2 0x681 JUMP JUMPDEST DUP1 DUP5 ADD SWAP2 POP POP SWAP3 SWAP2 POP POP JUMP JUMPDEST PUSH1 0x0 PUSH2 0x458 PUSH1 0x5 DUP4 PUSH2 0x62B JUMP JUMPDEST SWAP2 POP PUSH2 0x463 DUP3 PUSH2 0x7D4 JUMP JUMPDEST PUSH1 0x5 DUP3 ADD SWAP1 POP SWAP2 SWAP1 POP JUMP JUMPDEST PUSH1 0x0 PUSH2 0x47B PUSH1 0xD DUP4 PUSH2 0x62B JUMP JUMPDEST SWAP2 POP PUSH2 0x486 DUP3 PUSH2 0x7FD JUMP JUMPDEST PUSH1 0xD DUP3 ADD SWAP1 POP SWAP2 SWAP1 POP JUMP JUMPDEST PUSH1 0x0 PUSH2 0x49E PUSH1 0x4 DUP4 PUSH2 0x62B JUMP JUMPDEST SWAP2 POP PUSH2 0x4A9 DUP3 PUSH2 0x826 JUMP JUMPDEST PUSH1 0x4 DUP3 ADD SWAP1 POP SWAP2 SWAP1 POP JUMP JUMPDEST PUSH2 0x4BD DUP2 PUSH2 0x668 JUMP JUMPDEST DUP3 MSTORE POP POP JUMP JUMPDEST PUSH2 0x4D4 PUSH2 0x4CF DUP3 PUSH2 0x668 JUMP JUMPDEST PUSH2 0x709 JUMP JUMPDEST DUP3 MSTORE POP POP JUMP JUMPDEST PUSH1 0x0 PUSH2 0x4E6 DUP3 DUP7 PUSH2 0x3CA JUMP JUMPDEST PUSH1 0x14 DUP3 ADD SWAP2 POP PUSH2 0x4F6 DUP3 DUP6 PUSH2 0x4C3 JUMP JUMPDEST PUSH1 0x20 DUP3 ADD SWAP2 POP PUSH2 0x506 DUP3 DUP5 PUSH2 0x41A JUMP JUMPDEST SWAP2 POP DUP2 SWAP1 POP SWAP5 SWAP4 POP POP POP POP JUMP JUMPDEST PUSH1 0x0 PUSH2 0x51E DUP3 PUSH2 0x44B JUMP JUMPDEST SWAP2 POP DUP2 SWAP1 POP SWAP2 SWAP1 POP JUMP JUMPDEST PUSH1 0x0 PUSH2 0x533 DUP3 PUSH2 0x46E JUMP JUMPDEST SWAP2 POP DUP2 SWAP1 POP SWAP2 SWAP1 POP JUMP JUMPDEST PUSH1 0x0 PUSH2 0x548 DUP3 PUSH2 0x491 JUMP JUMPDEST SWAP2 POP DUP2 SWAP1 POP SWAP2 SWAP1 POP JUMP JUMPDEST PUSH1 0x0 PUSH1 0x20 DUP3 ADD SWAP1 POP PUSH2 0x567 PUSH1 0x0 DUP4 ADD DUP5 PUSH2 0x4B4 JUMP JUMPDEST SWAP3 SWAP2 POP POP JUMP JUMPDEST PUSH1 0x0 PUSH1 0x80 DUP3 ADD SWAP1 POP PUSH2 0x582 PUSH1 0x0 DUP4 ADD DUP8 PUSH2 0x4B4 JUMP JUMPDEST PUSH2 0x58F PUSH1 0x20 DUP4 ADD DUP7 PUSH2 0x3BB JUMP JUMPDEST PUSH2 0x59C PUSH1 0x40 DUP4 ADD DUP6 PUSH2 0x4B4 JUMP JUMPDEST DUP2 DUP2 SUB PUSH1 0x60 DUP4 ADD MSTORE PUSH2 0x5AE DUP2 DUP5 PUSH2 0x3E1 JUMP JUMPDEST SWAP1 POP SWAP6 SWAP5 POP POP POP POP POP JUMP JUMPDEST PUSH1 0x0 PUSH2 0x5C3 PUSH2 0x5D4 JUMP JUMPDEST SWAP1 POP PUSH2 0x5CF DUP3 DUP3 PUSH2 0x6B4 JUMP JUMPDEST SWAP2 SWAP1 POP JUMP JUMPDEST PUSH1 0x0 PUSH1 0x40 MLOAD SWAP1 POP SWAP1 JUMP JUMPDEST PUSH1 0x0 PUSH8 0xFFFFFFFFFFFFFFFF DUP3 GT ISZERO PUSH2 0x5F9 JUMPI PUSH2 0x5F8 PUSH2 0x773 JUMP JUMPDEST JUMPDEST PUSH2 0x602 DUP3 PUSH2 0x7B6 JUMP JUMPDEST SWAP1 POP PUSH1 0x20 DUP2 ADD SWAP1 POP SWAP2 SWAP1 POP JUMP JUMPDEST PUSH1 0x0 DUP2 MLOAD SWAP1 POP SWAP2 SWAP1 POP JUMP JUMPDEST PUSH1 0x0 DUP3 DUP3 MSTORE PUSH1 0x20 DUP3 ADD SWAP1 POP SWAP3 SWAP2 POP POP JUMP JUMPDEST PUSH1 0x0 DUP2 SWAP1 POP SWAP3 SWAP2 POP POP JUMP JUMPDEST PUSH1 0x0 PUSH2 0x641 DUP3 PUSH2 0x648 JUMP JUMPDEST SWAP1 POP SWAP2 SWAP1 POP JUMP JUMPDEST PUSH1 0x0 PUSH20 0xFFFFFFFFFFFFFFFFFFFFFFFFFFFFFFFFFFFFFFFF DUP3 AND SWAP1 POP SWAP2 SWAP1 POP JUMP JUMPDEST PUSH1 0x0 DUP2 SWAP1 POP SWAP2 SWAP1 POP JUMP JUMPDEST DUP3 DUP2 DUP4 CALLDATACOPY PUSH1 0x0 DUP4 DUP4 ADD MSTORE POP POP POP JUMP JUMPDEST PUSH1 0x0 JUMPDEST DUP4 DUP2 LT ISZERO PUSH2 0x69F JUMPI DUP1 DUP3 ADD MLOAD DUP2 DUP5 ADD MSTORE PUSH1 0x20 DUP2 ADD SWAP1 POP PUSH2 0x684 JUMP JUMPDEST DUP4 DUP2 GT ISZERO PUSH2 0x6AE JUMPI PUSH1 0x0 DUP5 DUP5 ADD MSTORE JUMPDEST POP POP POP POP JUMP JUMPDEST PUSH2 0x6BD DUP3 PUSH2 0x7B6 JUMP JUMPDEST DUP2 ADD DUP2 DUP2 LT PUSH8 0xFFFFFFFFFFFFFFFF DUP3 GT OR ISZERO PUSH2 0x6DC JUMPI PUSH2 0x6DB PUSH2 0x773 JUMP JUMPDEST JUMPDEST DUP1 PUSH1 0x40 MSTORE POP POP POP JUMP JUMPDEST PUSH1 0x0 PUSH2 0x6F0 DUP3 PUSH2 0x6F7 JUMP JUMPDEST SWAP1 POP SWAP2 SWAP1 POP JUMP JUMPDEST PUSH1 0x0 PUSH2 0x702 DUP3 PUSH2 0x7C7 JUMP JUMPDEST SWAP1 POP SWAP2 SWAP1 POP JUMP JUMPDEST PUSH1 0x0 DUP2 SWAP1 POP SWAP2 SWAP1 POP JUMP JUMPDEST PUSH1 0x0 PUSH2 0x71E DUP3 PUSH2 0x668 JUMP JUMPDEST SWAP2 POP PUSH2 0x729 DUP4 PUSH2 0x668 JUMP JUMPDEST SWAP3 POP DUP3 PUSH2 0x739 JUMPI PUSH2 0x738 PUSH2 0x744 JUMP JUMPDEST JUMPDEST DUP3 DUP3 MOD SWAP1 POP SWAP3 SWAP2 POP POP JUMP JUMPDEST PUSH32 0x4E487B7100000000000000000000000000000000000000000000000000000000 PUSH1 0x0 MSTORE PUSH1 0x12 PUSH1 0x4 MSTORE PUSH1 0x24 PUSH1 0x0 REVERT JUMPDEST PUSH32 0x4E487B7100000000000000000000000000000000000000000000000000000000 PUSH1 0x0 MSTORE PUSH1 0x41 PUSH1 0x4 MSTORE PUSH1 0x24 PUSH1 0x0 REVERT JUMPDEST PUSH1 0x0 DUP1 REVERT JUMPDEST PUSH1 0x0 DUP1 REVERT JUMPDEST PUSH1 0x0 DUP1 REVERT JUMPDEST PUSH1 0x0 DUP1 REVERT JUMPDEST PUSH1 0x0 PUSH1 0x1F NOT PUSH1 0x1F DUP4 ADD AND SWAP1 POP SWAP2 SWAP1 POP JUMP JUMPDEST PUSH1 0x0 DUP2 PUSH1 0x60 SHL SWAP1 POP SWAP2 SWAP1 POP JUMP JUMPDEST PUSH32 0x7072696365000000000000000000000000000000000000000000000000000000 PUSH1 0x0 DUP3 ADD MSTORE POP JUMP JUMPDEST PUSH32 0x73656C6C65724164647265737300000000000000000000000000000000000000 PUSH1 0x0 DUP3 ADD MSTORE POP JUMP JUMPDEST PUSH32 0x6172656100000000000000000000000000000000000000000000000000000000 PUSH1 0x0 DUP3 ADD MSTORE POP JUMP JUMPDEST PUSH2 0x858 DUP2 PUSH2 0x636 JUMP JUMPDEST DUP2 EQ PUSH2 0x863 JUMPI PUSH1 0x0 DUP1 REVERT JUMPDEST POP JUMP JUMPDEST PUSH2 0x86F DUP2 PUSH2 0x668 JUMP JUMPDEST DUP2 EQ PUSH2 0x87A JUMPI PUSH1 0x0 DUP1 REVERT JUMPDEST POP JUMP INVALID LOG2 PUSH5 0x6970667358 0x22 SLT KECCAK256 LOG0 0x5D 0xF9 0xD6 0xDE 0xE7 AND PUSH11 0xB21E027A89438265A899B2 0xB4 0xE6 CREATE2 TIMESTAMP SAR PC 0xC ADDRESS DUP8 GASPRICE 0xEA SWAP16 0xD0 PUSH5 0x736F6C6343 STOP ADDMOD SMOD STOP CALLER "
				},
				"gasEstimates": {
					"creation": {
						"codeDepositCost": "445400",
						"executionCost": "infinite",
						"totalCost": "infinite"
					},
					"external": {
						"houses(uint256,string)": "infinite",
						"listHouse(uint256,uint256,address,string)": "infinite"
					},
					"internal": {
						"_generateHouseId(address,uint256,string memory)": "infinite"
					}
				},
				"methodIdentifiers": {
					"houses(uint256,string)": "cd9c199a",
					"listHouse(uint256,uint256,address,string)": "91bfe0d4"
				}
			},
			"storageLayout": {
				"storage": [
					{
						"astId": 4,
						"contract": "contract/HouseRegistry.sol:HouseRegistry",
						"label": "digits",
						"offset": 0,
						"slot": "0",
						"type": "t_uint256"
					},
					{
						"astId": 9,
						"contract": "contract/HouseRegistry.sol:HouseRegistry",
						"label": "modulus",
						"offset": 0,
						"slot": "1",
						"type": "t_uint256"
					},
					{
						"astId": 36,
						"contract": "contract/HouseRegistry.sol:HouseRegistry",
						"label": "houses",
						"offset": 0,
						"slot": "2",
						"type": "t_mapping(t_uint256,t_mapping(t_string_memory_ptr,t_uint256))"
					}
				],
				"types": {
					"t_mapping(t_string_memory_ptr,t_uint256)": {
						"encoding": "mapping",
						"key": "t_string_memory_ptr",
						"label": "mapping(string => uint256)",
						"numberOfBytes": "32",
						"value": "t_uint256"
					},
					"t_mapping(t_uint256,t_mapping(t_string_memory_ptr,t_uint256))": {
						"encoding": "mapping",
						"key": "t_uint256",
						"label": "mapping(uint256 => mapping(string => uint256))",
						"numberOfBytes": "32",
						"value": "t_mapping(t_string_memory_ptr,t_uint256)"
					},
					"t_string_memory_ptr": {
						"encoding": "bytes",
						"label": "string",
						"numberOfBytes": "32"
					},
					"t_uint256": {
						"encoding": "inplace",
						"label": "uint256",
						"numberOfBytes": "32"
					}
				}
			},
			"userdoc": {
				"kind": "user",
				"methods": {},
				"version": 1
			}
		}
	}
}