{
	"contract/HouseRegistry.sol": {
		"HouseRegistry": {
			"abi": [
				{
					"anonymous": false,
					"inputs": [
						{
							"indexed": false,
							"internalType": "uint256",
							"name": "houseId",
							"type": "uint256"
						},
						{
							"indexed": false,
							"internalType": "address",
							"name": "_sellerAddress",
							"type": "address"
						},
						{
							"indexed": false,
							"internalType": "uint256",
							"name": "price",
							"type": "uint256"
						},
						{
							"indexed": false,
							"internalType": "string",
							"name": "houseAddress",
							"type": "string"
						}
					],
					"name": "AddNewHouse",
					"type": "event"
				},
				{
					"anonymous": false,
					"inputs": [
						{
							"indexed": true,
							"internalType": "address",
							"name": "previousOwner",
							"type": "address"
						},
						{
							"indexed": true,
							"internalType": "address",
							"name": "newOwner",
							"type": "address"
						}
					],
					"name": "OwnershipTransferred",
					"type": "event"
				},
				{
					"inputs": [
						{
							"internalType": "uint256",
							"name": "houseId",
							"type": "uint256"
						}
					],
					"name": "delistHouse",
					"outputs": [],
					"stateMutability": "nonpayable",
					"type": "function"
				},
				{
					"inputs": [
						{
							"internalType": "uint256",
							"name": "",
							"type": "uint256"
						}
					],
					"name": "houses",
					"outputs": [
						{
							"internalType": "uint256",
							"name": "id",
							"type": "uint256"
						},
						{
							"internalType": "uint256",
							"name": "price",
							"type": "uint256"
						},
						{
							"internalType": "uint256",
							"name": "area",
							"type": "uint256"
						},
						{
							"internalType": "address",
							"name": "sellerAddress",
							"type": "address"
						},
						{
							"internalType": "string",
							"name": "houseAddress",
							"type": "string"
						},
						{
							"internalType": "bool",
							"name": "isdelistedHouse",
							"type": "bool"
						},
						{
							"internalType": "uint256",
							"name": "readyTime",
							"type": "uint256"
						}
					],
					"stateMutability": "view",
					"type": "function"
				},
				{
					"inputs": [
						{
							"internalType": "uint256",
							"name": "_price",
							"type": "uint256"
						},
						{
							"internalType": "uint256",
							"name": "_area",
							"type": "uint256"
						},
						{
							"internalType": "address",
							"name": "_sellerAddress",
							"type": "address"
						},
						{
							"internalType": "string",
							"name": "_houseAddress",
							"type": "string"
						}
					],
					"name": "listHouse",
					"outputs": [
						{
							"internalType": "uint256",
							"name": "",
							"type": "uint256"
						}
					],
					"stateMutability": "nonpayable",
					"type": "function"
				},
				{
					"inputs": [],
					"name": "owner",
					"outputs": [
						{
							"internalType": "address",
							"name": "",
							"type": "address"
						}
					],
					"stateMutability": "view",
					"type": "function"
				},
				{
					"inputs": [],
					"name": "renounceOwnership",
					"outputs": [],
					"stateMutability": "nonpayable",
					"type": "function"
				},
				{
					"inputs": [
						{
							"internalType": "address",
							"name": "newOwner",
							"type": "address"
						}
					],
					"name": "transferOwnership",
					"outputs": [],
					"stateMutability": "nonpayable",
					"type": "function"
				}
			],
			"devdoc": {
				"kind": "dev",
				"methods": {
					"owner()": {
						"details": "Returns the address of the current owner."
					},
					"renounceOwnership()": {
						"details": "Leaves the contract without owner. It will not be possible to call `onlyOwner` functions anymore. Can only be called by the current owner. NOTE: Renouncing ownership will leave the contract without an owner, thereby removing any functionality that is only available to the owner."
					},
					"transferOwnership(address)": {
						"details": "Transfers ownership of the contract to a new account (`newOwner`). Can only be called by the current owner."
					}
				},
				"version": 1
			},
			"evm": {
				"assembly": "    /* \"contract/HouseRegistry.sol\":87:1578  contract HouseRegistry is Ownable {... */\n  mstore(0x40, 0x80)\n    /* \"contract/HouseRegistry.sol\":142:143  5 */\n  0x05\n    /* \"contract/HouseRegistry.sol\":128:143  uint digits = 5 */\n  0x01\n  sstore\n    /* \"contract/HouseRegistry.sol\":170:176  digits */\n  sload(0x01)\n    /* \"contract/HouseRegistry.sol\":164:166  10 */\n  0x0a\n    /* \"contract/HouseRegistry.sol\":164:176  10 ** digits */\n  tag_1\n  swap2\n  swap1\n  tag_2\n  jump\t// in\ntag_1:\n    /* \"contract/HouseRegistry.sol\":149:176  uint modulus = 10 ** digits */\n  0x02\n  sstore\n    /* \"contract/HouseRegistry.sol\":202:208  1 days */\n  0x015180\n    /* \"contract/HouseRegistry.sol\":182:208  uint cooldownTime = 1 days */\n  0x03\n  sstore\n    /* \"contract/HouseRegistry.sol\":87:1578  contract HouseRegistry is Ownable {... */\n  callvalue\n  dup1\n  iszero\n  tag_3\n  jumpi\n  0x00\n  dup1\n  revert\ntag_3:\n  pop\n    /* \"contract/Ownable.sol\":948:980  _transferOwnership(_msgSender()) */\n  tag_6\n    /* \"contract/Ownable.sol\":967:979  _msgSender() */\n  tag_7\n    /* \"contract/Ownable.sol\":967:977  _msgSender */\n  shl(0x20, tag_8)\n    /* \"contract/Ownable.sol\":967:979  _msgSender() */\n  0x20\n  shr\n  jump\t// in\ntag_7:\n    /* \"contract/Ownable.sol\":948:966  _transferOwnership */\n  shl(0x20, tag_9)\n    /* \"contract/Ownable.sol\":948:980  _transferOwnership(_msgSender()) */\n  0x20\n  shr\n  jump\t// in\ntag_6:\n    /* \"contract/HouseRegistry.sol\":87:1578  contract HouseRegistry is Ownable {... */\n  jump(tag_10)\n    /* \"contract/utils/Context.sol\":656:754  function _msgSender() internal view virtual returns (address) {\r... */\ntag_8:\n    /* \"contract/utils/Context.sol\":709:716  address */\n  0x00\n    /* \"contract/utils/Context.sol\":736:746  msg.sender */\n  caller\n    /* \"contract/utils/Context.sol\":729:746  return msg.sender */\n  swap1\n  pop\n    /* \"contract/utils/Context.sol\":656:754  function _msgSender() internal view virtual returns (address) {\r... */\n  swap1\n  jump\t// out\n    /* \"contract/Ownable.sol\":2339:2530  function _transferOwnership(address newOwner) internal virtual {\r... */\ntag_9:\n    /* \"contract/Ownable.sol\":2413:2429  address oldOwner */\n  0x00\n    /* \"contract/Ownable.sol\":2432:2438  _owner */\n  dup1\n  0x00\n  swap1\n  sload\n  swap1\n  0x0100\n  exp\n  swap1\n  div\n  0xffffffffffffffffffffffffffffffffffffffff\n  and\n    /* \"contract/Ownable.sol\":2413:2438  address oldOwner = _owner */\n  swap1\n  pop\n    /* \"contract/Ownable.sol\":2458:2466  newOwner */\n  dup2\n    /* \"contract/Ownable.sol\":2449:2455  _owner */\n  0x00\n  dup1\n    /* \"contract/Ownable.sol\":2449:2466  _owner = newOwner */\n  0x0100\n  exp\n  dup2\n  sload\n  dup2\n  0xffffffffffffffffffffffffffffffffffffffff\n  mul\n  not\n  and\n  swap1\n  dup4\n  0xffffffffffffffffffffffffffffffffffffffff\n  and\n  mul\n  or\n  swap1\n  sstore\n  pop\n    /* \"contract/Ownable.sol\":2513:2521  newOwner */\n  dup2\n    /* \"contract/Ownable.sol\":2482:2522  OwnershipTransferred(oldOwner, newOwner) */\n  0xffffffffffffffffffffffffffffffffffffffff\n  and\n    /* \"contract/Ownable.sol\":2503:2511  oldOwner */\n  dup2\n    /* \"contract/Ownable.sol\":2482:2522  OwnershipTransferred(oldOwner, newOwner) */\n  0xffffffffffffffffffffffffffffffffffffffff\n  and\n  0x8be0079c531659141344cd1fd0a4f28419497f9722a3daafe3b4186f6b6457e0\n  mload(0x40)\n  mload(0x40)\n  dup1\n  swap2\n  sub\n  swap1\n  log3\n    /* \"contract/Ownable.sol\":2402:2530  {\r... */\n  pop\n    /* \"contract/Ownable.sol\":2339:2530  function _transferOwnership(address newOwner) internal virtual {\r... */\n  pop\n  jump\t// out\n    /* \"#utility.yul\":7:855   */\ntag_14:\n    /* \"#utility.yul\":68:73   */\n  0x00\n    /* \"#utility.yul\":75:79   */\n  dup1\n    /* \"#utility.yul\":99:105   */\n  dup3\n    /* \"#utility.yul\":90:105   */\n  swap2\n  pop\n    /* \"#utility.yul\":123:128   */\n  dup4\n    /* \"#utility.yul\":114:128   */\n  swap1\n  pop\n    /* \"#utility.yul\":137:849   */\ntag_16:\n    /* \"#utility.yul\":158:159   */\n  0x01\n    /* \"#utility.yul\":148:156   */\n  dup6\n    /* \"#utility.yul\":145:160   */\n  gt\n    /* \"#utility.yul\":137:849   */\n  iszero\n  tag_18\n  jumpi\n    /* \"#utility.yul\":253:257   */\n  dup1\n    /* \"#utility.yul\":248:251   */\n  dup7\n    /* \"#utility.yul\":244:258   */\n  div\n    /* \"#utility.yul\":238:242   */\n  dup2\n    /* \"#utility.yul\":235:259   */\n  gt\n    /* \"#utility.yul\":232:282   */\n  iszero\n  tag_19\n  jumpi\n    /* \"#utility.yul\":262:280   */\n  tag_20\n  tag_21\n  jump\t// in\ntag_20:\n    /* \"#utility.yul\":232:282   */\ntag_19:\n    /* \"#utility.yul\":312:313   */\n  0x01\n    /* \"#utility.yul\":302:310   */\n  dup6\n    /* \"#utility.yul\":298:314   */\n  and\n    /* \"#utility.yul\":295:746   */\n  iszero\n  tag_22\n  jumpi\n    /* \"#utility.yul\":727:731   */\n  dup1\n    /* \"#utility.yul\":720:725   */\n  dup3\n    /* \"#utility.yul\":716:732   */\n  mul\n    /* \"#utility.yul\":707:732   */\n  swap2\n  pop\n    /* \"#utility.yul\":295:746   */\ntag_22:\n    /* \"#utility.yul\":777:781   */\n  dup1\n    /* \"#utility.yul\":771:775   */\n  dup2\n    /* \"#utility.yul\":767:782   */\n  mul\n    /* \"#utility.yul\":759:782   */\n  swap1\n  pop\n    /* \"#utility.yul\":807:839   */\n  tag_23\n    /* \"#utility.yul\":830:838   */\n  dup6\n    /* \"#utility.yul\":807:839   */\n  tag_24\n  jump\t// in\ntag_23:\n    /* \"#utility.yul\":795:839   */\n  swap5\n  pop\n    /* \"#utility.yul\":137:849   */\n  jump(tag_16)\ntag_18:\n    /* \"#utility.yul\":7:855   */\n  swap5\n  pop\n  swap5\n  swap3\n  pop\n  pop\n  pop\n  jump\t// out\n    /* \"#utility.yul\":861:1146   */\ntag_2:\n    /* \"#utility.yul\":921:926   */\n  0x00\n    /* \"#utility.yul\":945:968   */\n  tag_26\n    /* \"#utility.yul\":963:967   */\n  dup3\n    /* \"#utility.yul\":945:968   */\n  tag_27\n  jump\t// in\ntag_26:\n    /* \"#utility.yul\":937:968   */\n  swap2\n  pop\n    /* \"#utility.yul\":989:1016   */\n  tag_28\n    /* \"#utility.yul\":1007:1015   */\n  dup4\n    /* \"#utility.yul\":989:1016   */\n  tag_27\n  jump\t// in\ntag_28:\n    /* \"#utility.yul\":977:1016   */\n  swap3\n  pop\n    /* \"#utility.yul\":1035:1139   */\n  tag_29\n    /* \"#utility.yul\":1072:1138   */\n  0xffffffffffffffffffffffffffffffffffffffffffffffffffffffffffffffff\n    /* \"#utility.yul\":1062:1070   */\n  dup5\n    /* \"#utility.yul\":1056:1060   */\n  dup5\n    /* \"#utility.yul\":1035:1139   */\n  tag_30\n  jump\t// in\ntag_29:\n    /* \"#utility.yul\":1026:1139   */\n  swap1\n  pop\n    /* \"#utility.yul\":861:1146   */\n  swap3\n  swap2\n  pop\n  pop\n  jump\t// out\n    /* \"#utility.yul\":1152:2225   */\ntag_30:\n    /* \"#utility.yul\":1206:1211   */\n  0x00\n    /* \"#utility.yul\":1397:1405   */\n  dup3\n    /* \"#utility.yul\":1387:1427   */\n  tag_32\n  jumpi\n    /* \"#utility.yul\":1418:1419   */\n  0x01\n    /* \"#utility.yul\":1409:1419   */\n  swap1\n  pop\n    /* \"#utility.yul\":1420:1425   */\n  jump(tag_31)\n    /* \"#utility.yul\":1387:1427   */\ntag_32:\n    /* \"#utility.yul\":1446:1450   */\n  dup2\n    /* \"#utility.yul\":1436:1472   */\n  tag_33\n  jumpi\n    /* \"#utility.yul\":1463:1464   */\n  0x00\n    /* \"#utility.yul\":1454:1464   */\n  swap1\n  pop\n    /* \"#utility.yul\":1465:1470   */\n  jump(tag_31)\n    /* \"#utility.yul\":1436:1472   */\ntag_33:\n    /* \"#utility.yul\":1532:1536   */\n  dup2\n    /* \"#utility.yul\":1580:1581   */\n  0x01\n    /* \"#utility.yul\":1575:1602   */\n  dup2\n  eq\n  tag_35\n  jumpi\n    /* \"#utility.yul\":1616:1617   */\n  0x02\n    /* \"#utility.yul\":1611:1802   */\n  dup2\n  eq\n  tag_36\n  jumpi\n    /* \"#utility.yul\":1525:1802   */\n  jump(tag_34)\n    /* \"#utility.yul\":1575:1602   */\ntag_35:\n    /* \"#utility.yul\":1593:1594   */\n  0x01\n    /* \"#utility.yul\":1584:1594   */\n  swap2\n  pop\n    /* \"#utility.yul\":1595:1600   */\n  pop\n  jump(tag_31)\n    /* \"#utility.yul\":1611:1802   */\ntag_36:\n    /* \"#utility.yul\":1656:1659   */\n  0xff\n    /* \"#utility.yul\":1646:1654   */\n  dup5\n    /* \"#utility.yul\":1643:1660   */\n  gt\n    /* \"#utility.yul\":1640:1683   */\n  iszero\n  tag_37\n  jumpi\n    /* \"#utility.yul\":1663:1681   */\n  tag_38\n  tag_21\n  jump\t// in\ntag_38:\n    /* \"#utility.yul\":1640:1683   */\ntag_37:\n    /* \"#utility.yul\":1712:1720   */\n  dup4\n    /* \"#utility.yul\":1709:1710   */\n  0x02\n    /* \"#utility.yul\":1705:1721   */\n  exp\n    /* \"#utility.yul\":1696:1721   */\n  swap2\n  pop\n    /* \"#utility.yul\":1747:1750   */\n  dup5\n    /* \"#utility.yul\":1740:1745   */\n  dup3\n    /* \"#utility.yul\":1737:1751   */\n  gt\n    /* \"#utility.yul\":1734:1774   */\n  iszero\n  tag_39\n  jumpi\n    /* \"#utility.yul\":1754:1772   */\n  tag_40\n  tag_21\n  jump\t// in\ntag_40:\n    /* \"#utility.yul\":1734:1774   */\ntag_39:\n    /* \"#utility.yul\":1787:1792   */\n  pop\n  jump(tag_31)\n    /* \"#utility.yul\":1525:1802   */\ntag_34:\n  pop\n    /* \"#utility.yul\":1911:1913   */\n  0x20\n    /* \"#utility.yul\":1901:1909   */\n  dup4\n    /* \"#utility.yul\":1898:1914   */\n  lt\n    /* \"#utility.yul\":1892:1895   */\n  0x0133\n    /* \"#utility.yul\":1886:1890   */\n  dup4\n    /* \"#utility.yul\":1883:1896   */\n  lt\n    /* \"#utility.yul\":1879:1915   */\n  and\n    /* \"#utility.yul\":1861:1863   */\n  0x4e\n    /* \"#utility.yul\":1851:1859   */\n  dup5\n    /* \"#utility.yul\":1848:1864   */\n  lt\n    /* \"#utility.yul\":1843:1845   */\n  0x0b\n    /* \"#utility.yul\":1837:1841   */\n  dup5\n    /* \"#utility.yul\":1834:1846   */\n  lt\n    /* \"#utility.yul\":1830:1865   */\n  and\n    /* \"#utility.yul\":1814:1925   */\n  or\n    /* \"#utility.yul\":1811:2057   */\n  iszero\n  tag_41\n  jumpi\n    /* \"#utility.yul\":1967:1975   */\n  dup3\n    /* \"#utility.yul\":1961:1965   */\n  dup3\n    /* \"#utility.yul\":1957:1976   */\n  exp\n    /* \"#utility.yul\":1948:1976   */\n  swap1\n  pop\n    /* \"#utility.yul\":2002:2005   */\n  dup4\n    /* \"#utility.yul\":1995:2000   */\n  dup2\n    /* \"#utility.yul\":1992:2006   */\n  gt\n    /* \"#utility.yul\":1989:2029   */\n  iszero\n  tag_42\n  jumpi\n    /* \"#utility.yul\":2009:2027   */\n  tag_43\n  tag_21\n  jump\t// in\ntag_43:\n    /* \"#utility.yul\":1989:2029   */\ntag_42:\n    /* \"#utility.yul\":2042:2047   */\n  jump(tag_31)\n    /* \"#utility.yul\":1811:2057   */\ntag_41:\n    /* \"#utility.yul\":2082:2124   */\n  tag_44\n    /* \"#utility.yul\":2120:2123   */\n  dup5\n    /* \"#utility.yul\":2110:2118   */\n  dup5\n    /* \"#utility.yul\":2104:2108   */\n  dup5\n    /* \"#utility.yul\":2101:2102   */\n  0x01\n    /* \"#utility.yul\":2082:2124   */\n  tag_14\n  jump\t// in\ntag_44:\n    /* \"#utility.yul\":2067:2124   */\n  swap3\n  pop\n  swap1\n  pop\n    /* \"#utility.yul\":2156:2160   */\n  dup2\n    /* \"#utility.yul\":2151:2154   */\n  dup5\n    /* \"#utility.yul\":2147:2161   */\n  div\n    /* \"#utility.yul\":2140:2145   */\n  dup2\n    /* \"#utility.yul\":2137:2162   */\n  gt\n    /* \"#utility.yul\":2134:2185   */\n  iszero\n  tag_45\n  jumpi\n    /* \"#utility.yul\":2165:2183   */\n  tag_46\n  tag_21\n  jump\t// in\ntag_46:\n    /* \"#utility.yul\":2134:2185   */\ntag_45:\n    /* \"#utility.yul\":2214:2218   */\n  dup2\n    /* \"#utility.yul\":2207:2212   */\n  dup2\n    /* \"#utility.yul\":2203:2219   */\n  mul\n    /* \"#utility.yul\":2194:2219   */\n  swap1\n  pop\n    /* \"#utility.yul\":1152:2225   */\ntag_31:\n  swap4\n  swap3\n  pop\n  pop\n  pop\n  jump\t// out\n    /* \"#utility.yul\":2231:2308   */\ntag_27:\n    /* \"#utility.yul\":2268:2275   */\n  0x00\n    /* \"#utility.yul\":2297:2302   */\n  dup2\n    /* \"#utility.yul\":2286:2302   */\n  swap1\n  pop\n    /* \"#utility.yul\":2231:2308   */\n  swap2\n  swap1\n  pop\n  jump\t// out\n    /* \"#utility.yul\":2314:2494   */\ntag_21:\n    /* \"#utility.yul\":2362:2439   */\n  0x4e487b7100000000000000000000000000000000000000000000000000000000\n    /* \"#utility.yul\":2359:2360   */\n  0x00\n    /* \"#utility.yul\":2352:2440   */\n  mstore\n    /* \"#utility.yul\":2459:2463   */\n  0x11\n    /* \"#utility.yul\":2456:2457   */\n  0x04\n    /* \"#utility.yul\":2449:2464   */\n  mstore\n    /* \"#utility.yul\":2483:2487   */\n  0x24\n    /* \"#utility.yul\":2480:2481   */\n  0x00\n    /* \"#utility.yul\":2473:2488   */\n  revert\n    /* \"#utility.yul\":2500:2602   */\ntag_24:\n    /* \"#utility.yul\":2542:2550   */\n  0x00\n    /* \"#utility.yul\":2589:2594   */\n  dup2\n    /* \"#utility.yul\":2586:2587   */\n  0x01\n    /* \"#utility.yul\":2582:2595   */\n  shr\n    /* \"#utility.yul\":2561:2595   */\n  swap1\n  pop\n    /* \"#utility.yul\":2500:2602   */\n  swap2\n  swap1\n  pop\n  jump\t// out\n    /* \"contract/HouseRegistry.sol\":87:1578  contract HouseRegistry is Ownable {... */\ntag_10:\n  dataSize(sub_0)\n  dup1\n  dataOffset(sub_0)\n  0x00\n  codecopy\n  0x00\n  return\nstop\n\nsub_0: assembly {\n        /* \"contract/HouseRegistry.sol\":87:1578  contract HouseRegistry is Ownable {... */\n      mstore(0x40, 0x80)\n      callvalue\n      dup1\n      iszero\n      tag_1\n      jumpi\n      0x00\n      dup1\n      revert\n    tag_1:\n      pop\n      jumpi(tag_2, lt(calldatasize, 0x04))\n      shr(0xe0, calldataload(0x00))\n      dup1\n      0x3c3b0b4a\n      eq\n      tag_3\n      jumpi\n      dup1\n      0x715018a6\n      eq\n      tag_4\n      jumpi\n      dup1\n      0x8da5cb5b\n      eq\n      tag_5\n      jumpi\n      dup1\n      0x91bfe0d4\n      eq\n      tag_6\n      jumpi\n      dup1\n      0xaeda852f\n      eq\n      tag_7\n      jumpi\n      dup1\n      0xf2fde38b\n      eq\n      tag_8\n      jumpi\n    tag_2:\n      0x00\n      dup1\n      revert\n        /* \"contract/HouseRegistry.sol\":1370:1575  function delistHouse(uint houseId) public{... */\n    tag_3:\n      tag_9\n      0x04\n      dup1\n      calldatasize\n      sub\n      dup2\n      add\n      swap1\n      tag_10\n      swap2\n      swap1\n      tag_11\n      jump\t// in\n    tag_10:\n      tag_12\n      jump\t// in\n    tag_9:\n      stop\n        /* \"contract/Ownable.sol\":1720:1823  function renounceOwnership() public virtual onlyOwner {\r... */\n    tag_4:\n      tag_13\n      tag_14\n      jump\t// in\n    tag_13:\n      stop\n        /* \"contract/Ownable.sol\":1069:1156  function owner() public view virtual returns (address) {\r... */\n    tag_5:\n      tag_15\n      tag_16\n      jump\t// in\n    tag_15:\n      mload(0x40)\n      tag_17\n      swap2\n      swap1\n      tag_18\n      jump\t// in\n    tag_17:\n      mload(0x40)\n      dup1\n      swap2\n      sub\n      swap1\n      return\n        /* \"contract/HouseRegistry.sol\":548:1104  function listHouse (uint _price, uint _area, address _sellerAddress, string memory _houseAddress) public returns (uint) {... */\n    tag_6:\n      tag_19\n      0x04\n      dup1\n      calldatasize\n      sub\n      dup2\n      add\n      swap1\n      tag_20\n      swap2\n      swap1\n      tag_21\n      jump\t// in\n    tag_20:\n      tag_22\n      jump\t// in\n    tag_19:\n      mload(0x40)\n      tag_23\n      swap2\n      swap1\n      tag_24\n      jump\t// in\n    tag_23:\n      mload(0x40)\n      dup1\n      swap2\n      sub\n      swap1\n      return\n        /* \"contract/HouseRegistry.sol\":505:541  mapping(uint => House) public houses */\n    tag_7:\n      tag_25\n      0x04\n      dup1\n      calldatasize\n      sub\n      dup2\n      add\n      swap1\n      tag_26\n      swap2\n      swap1\n      tag_11\n      jump\t// in\n    tag_26:\n      tag_27\n      jump\t// in\n    tag_25:\n      mload(0x40)\n      tag_28\n      swap8\n      swap7\n      swap6\n      swap5\n      swap4\n      swap3\n      swap2\n      swap1\n      tag_29\n      jump\t// in\n    tag_28:\n      mload(0x40)\n      dup1\n      swap2\n      sub\n      swap1\n      return\n        /* \"contract/Ownable.sol\":1978:2179  function transferOwnership(address newOwner) public virtual onlyOwner {\r... */\n    tag_8:\n      tag_30\n      0x04\n      dup1\n      calldatasize\n      sub\n      dup2\n      add\n      swap1\n      tag_31\n      swap2\n      swap1\n      tag_32\n      jump\t// in\n    tag_31:\n      tag_33\n      jump\t// in\n    tag_30:\n      stop\n        /* \"contract/HouseRegistry.sol\":1370:1575  function delistHouse(uint houseId) public{... */\n    tag_12:\n        /* \"contract/HouseRegistry.sol\":1462:1472  msg.sender */\n      caller\n        /* \"contract/HouseRegistry.sol\":1429:1472  houses[houseId].sellerAddress == msg.sender */\n      0xffffffffffffffffffffffffffffffffffffffff\n      and\n        /* \"contract/HouseRegistry.sol\":1429:1435  houses */\n      0x04\n        /* \"contract/HouseRegistry.sol\":1429:1444  houses[houseId] */\n      0x00\n        /* \"contract/HouseRegistry.sol\":1436:1443  houseId */\n      dup4\n        /* \"contract/HouseRegistry.sol\":1429:1444  houses[houseId] */\n      dup2\n      mstore\n      0x20\n      add\n      swap1\n      dup2\n      mstore\n      0x20\n      add\n      0x00\n      keccak256\n        /* \"contract/HouseRegistry.sol\":1429:1458  houses[houseId].sellerAddress */\n      0x03\n      add\n      0x00\n      swap1\n      sload\n      swap1\n      0x0100\n      exp\n      swap1\n      div\n      0xffffffffffffffffffffffffffffffffffffffff\n      and\n        /* \"contract/HouseRegistry.sol\":1429:1472  houses[houseId].sellerAddress == msg.sender */\n      0xffffffffffffffffffffffffffffffffffffffff\n      and\n      eq\n        /* \"contract/HouseRegistry.sol\":1421:1520  require(houses[houseId].sellerAddress == msg.sender, \"You do not have access to delete this house\") */\n      tag_35\n      jumpi\n      mload(0x40)\n      0x08c379a000000000000000000000000000000000000000000000000000000000\n      dup2\n      mstore\n      0x04\n      add\n      tag_36\n      swap1\n      tag_37\n      jump\t// in\n    tag_36:\n      mload(0x40)\n      dup1\n      swap2\n      sub\n      swap1\n      revert\n    tag_35:\n        /* \"contract/HouseRegistry.sol\":1564:1568  true */\n      0x01\n        /* \"contract/HouseRegistry.sol\":1530:1536  houses */\n      0x04\n        /* \"contract/HouseRegistry.sol\":1530:1545  houses[houseId] */\n      0x00\n        /* \"contract/HouseRegistry.sol\":1537:1544  houseId */\n      dup4\n        /* \"contract/HouseRegistry.sol\":1530:1545  houses[houseId] */\n      dup2\n      mstore\n      0x20\n      add\n      swap1\n      dup2\n      mstore\n      0x20\n      add\n      0x00\n      keccak256\n        /* \"contract/HouseRegistry.sol\":1530:1561  houses[houseId].isdelistedHouse */\n      0x05\n      add\n      0x00\n        /* \"contract/HouseRegistry.sol\":1530:1568  houses[houseId].isdelistedHouse = true */\n      0x0100\n      exp\n      dup2\n      sload\n      dup2\n      0xff\n      mul\n      not\n      and\n      swap1\n      dup4\n      iszero\n      iszero\n      mul\n      or\n      swap1\n      sstore\n      pop\n        /* \"contract/HouseRegistry.sol\":1370:1575  function delistHouse(uint houseId) public{... */\n      pop\n      jump\t// out\n        /* \"contract/Ownable.sol\":1720:1823  function renounceOwnership() public virtual onlyOwner {\r... */\n    tag_14:\n        /* \"contract/Ownable.sol\":1300:1312  _msgSender() */\n      tag_39\n        /* \"contract/Ownable.sol\":1300:1310  _msgSender */\n      tag_40\n        /* \"contract/Ownable.sol\":1300:1312  _msgSender() */\n      jump\t// in\n    tag_39:\n        /* \"contract/Ownable.sol\":1289:1312  owner() == _msgSender() */\n      0xffffffffffffffffffffffffffffffffffffffff\n      and\n        /* \"contract/Ownable.sol\":1289:1296  owner() */\n      tag_41\n        /* \"contract/Ownable.sol\":1289:1294  owner */\n      tag_16\n        /* \"contract/Ownable.sol\":1289:1296  owner() */\n      jump\t// in\n    tag_41:\n        /* \"contract/Ownable.sol\":1289:1312  owner() == _msgSender() */\n      0xffffffffffffffffffffffffffffffffffffffff\n      and\n      eq\n        /* \"contract/Ownable.sol\":1281:1349  require(owner() == _msgSender(), \"Ownable: caller is not the owner\") */\n      tag_42\n      jumpi\n      mload(0x40)\n      0x08c379a000000000000000000000000000000000000000000000000000000000\n      dup2\n      mstore\n      0x04\n      add\n      tag_43\n      swap1\n      tag_44\n      jump\t// in\n    tag_43:\n      mload(0x40)\n      dup1\n      swap2\n      sub\n      swap1\n      revert\n    tag_42:\n        /* \"contract/Ownable.sol\":1785:1815  _transferOwnership(address(0)) */\n      tag_46\n        /* \"contract/Ownable.sol\":1812:1813  0 */\n      0x00\n        /* \"contract/Ownable.sol\":1785:1803  _transferOwnership */\n      tag_47\n        /* \"contract/Ownable.sol\":1785:1815  _transferOwnership(address(0)) */\n      jump\t// in\n    tag_46:\n        /* \"contract/Ownable.sol\":1720:1823  function renounceOwnership() public virtual onlyOwner {\r... */\n      jump\t// out\n        /* \"contract/Ownable.sol\":1069:1156  function owner() public view virtual returns (address) {\r... */\n    tag_16:\n        /* \"contract/Ownable.sol\":1115:1122  address */\n      0x00\n        /* \"contract/Ownable.sol\":1142:1148  _owner */\n      dup1\n      0x00\n      swap1\n      sload\n      swap1\n      0x0100\n      exp\n      swap1\n      div\n      0xffffffffffffffffffffffffffffffffffffffff\n      and\n        /* \"contract/Ownable.sol\":1135:1148  return _owner */\n      swap1\n      pop\n        /* \"contract/Ownable.sol\":1069:1156  function owner() public view virtual returns (address) {\r... */\n      swap1\n      jump\t// out\n        /* \"contract/HouseRegistry.sol\":548:1104  function listHouse (uint _price, uint _area, address _sellerAddress, string memory _houseAddress) public returns (uint) {... */\n    tag_22:\n        /* \"contract/HouseRegistry.sol\":662:666  uint */\n      0x00\n        /* \"contract/HouseRegistry.sol\":703:704  0 */\n      dup1\n        /* \"contract/HouseRegistry.sol\":695:700  _area */\n      dup5\n        /* \"contract/HouseRegistry.sol\":686:692  _price */\n      dup7\n        /* \"contract/HouseRegistry.sol\":686:700  _price * _area */\n      tag_50\n      swap2\n      swap1\n      tag_51\n      jump\t// in\n    tag_50:\n        /* \"contract/HouseRegistry.sol\":686:704  _price * _area > 0 */\n      gt\n        /* \"contract/HouseRegistry.sol\":678:729  require(_price * _area > 0, \"value cannot be null\") */\n      tag_52\n      jumpi\n      mload(0x40)\n      0x08c379a000000000000000000000000000000000000000000000000000000000\n      dup2\n      mstore\n      0x04\n      add\n      tag_53\n      swap1\n      tag_54\n      jump\t// in\n    tag_53:\n      mload(0x40)\n      dup1\n      swap2\n      sub\n      swap1\n      revert\n    tag_52:\n        /* \"contract/HouseRegistry.sol\":739:751  uint houseId */\n      0x00\n        /* \"contract/HouseRegistry.sol\":754:808  _generateHouseId(_sellerAddress, _area, _houseAddress) */\n      tag_55\n        /* \"contract/HouseRegistry.sol\":771:785  _sellerAddress */\n      dup5\n        /* \"contract/HouseRegistry.sol\":787:792  _area */\n      dup7\n        /* \"contract/HouseRegistry.sol\":794:807  _houseAddress */\n      dup6\n        /* \"contract/HouseRegistry.sol\":754:770  _generateHouseId */\n      tag_56\n        /* \"contract/HouseRegistry.sol\":754:808  _generateHouseId(_sellerAddress, _area, _houseAddress) */\n      jump\t// in\n    tag_55:\n        /* \"contract/HouseRegistry.sol\":739:808  uint houseId = _generateHouseId(_sellerAddress, _area, _houseAddress) */\n      swap1\n      pop\n        /* \"contract/HouseRegistry.sol\":837:843  houses */\n      0x04\n        /* \"contract/HouseRegistry.sol\":837:852  houses[houseId] */\n      0x00\n        /* \"contract/HouseRegistry.sol\":844:851  houseId */\n      dup3\n        /* \"contract/HouseRegistry.sol\":837:852  houses[houseId] */\n      dup2\n      mstore\n      0x20\n      add\n      swap1\n      dup2\n      mstore\n      0x20\n      add\n      0x00\n      keccak256\n        /* \"contract/HouseRegistry.sol\":837:855  houses[houseId].id */\n      0x00\n      add\n      sload\n        /* \"contract/HouseRegistry.sol\":826:833  houseId */\n      dup2\n        /* \"contract/HouseRegistry.sol\":826:855  houseId != houses[houseId].id */\n      eq\n      iszero\n        /* \"contract/HouseRegistry.sol\":818:887  require(houseId != houses[houseId].id, \"this houseId already exists\") */\n      tag_57\n      jumpi\n      mload(0x40)\n      0x08c379a000000000000000000000000000000000000000000000000000000000\n      dup2\n      mstore\n      0x04\n      add\n      tag_58\n      swap1\n      tag_59\n      jump\t// in\n    tag_58:\n      mload(0x40)\n      dup1\n      swap2\n      sub\n      swap1\n      revert\n    tag_57:\n        /* \"contract/HouseRegistry.sol\":915:999  House(houseId, _price, _area, _sellerAddress, _houseAddress, false, block.timestamp) */\n      mload(0x40)\n      dup1\n      0xe0\n      add\n      0x40\n      mstore\n      dup1\n        /* \"contract/HouseRegistry.sol\":921:928  houseId */\n      dup3\n        /* \"contract/HouseRegistry.sol\":915:999  House(houseId, _price, _area, _sellerAddress, _houseAddress, false, block.timestamp) */\n      dup2\n      mstore\n      0x20\n      add\n        /* \"contract/HouseRegistry.sol\":930:936  _price */\n      dup8\n        /* \"contract/HouseRegistry.sol\":915:999  House(houseId, _price, _area, _sellerAddress, _houseAddress, false, block.timestamp) */\n      dup2\n      mstore\n      0x20\n      add\n        /* \"contract/HouseRegistry.sol\":938:943  _area */\n      dup7\n        /* \"contract/HouseRegistry.sol\":915:999  House(houseId, _price, _area, _sellerAddress, _houseAddress, false, block.timestamp) */\n      dup2\n      mstore\n      0x20\n      add\n        /* \"contract/HouseRegistry.sol\":945:959  _sellerAddress */\n      dup6\n        /* \"contract/HouseRegistry.sol\":915:999  House(houseId, _price, _area, _sellerAddress, _houseAddress, false, block.timestamp) */\n      0xffffffffffffffffffffffffffffffffffffffff\n      and\n      dup2\n      mstore\n      0x20\n      add\n        /* \"contract/HouseRegistry.sol\":961:974  _houseAddress */\n      dup5\n        /* \"contract/HouseRegistry.sol\":915:999  House(houseId, _price, _area, _sellerAddress, _houseAddress, false, block.timestamp) */\n      dup2\n      mstore\n      0x20\n      add\n        /* \"contract/HouseRegistry.sol\":976:981  false */\n      0x00\n        /* \"contract/HouseRegistry.sol\":915:999  House(houseId, _price, _area, _sellerAddress, _houseAddress, false, block.timestamp) */\n      iszero\n      iszero\n      dup2\n      mstore\n      0x20\n      add\n        /* \"contract/HouseRegistry.sol\":983:998  block.timestamp */\n      timestamp\n        /* \"contract/HouseRegistry.sol\":915:999  House(houseId, _price, _area, _sellerAddress, _houseAddress, false, block.timestamp) */\n      dup2\n      mstore\n      pop\n        /* \"contract/HouseRegistry.sol\":897:903  houses */\n      0x04\n        /* \"contract/HouseRegistry.sol\":897:912  houses[houseId] */\n      0x00\n        /* \"contract/HouseRegistry.sol\":904:911  houseId */\n      dup4\n        /* \"contract/HouseRegistry.sol\":897:912  houses[houseId] */\n      dup2\n      mstore\n      0x20\n      add\n      swap1\n      dup2\n      mstore\n      0x20\n      add\n      0x00\n      keccak256\n        /* \"contract/HouseRegistry.sol\":897:999  houses[houseId] = House(houseId, _price, _area, _sellerAddress, _houseAddress, false, block.timestamp) */\n      0x00\n      dup3\n      add\n      mload\n      dup2\n      0x00\n      add\n      sstore\n      0x20\n      dup3\n      add\n      mload\n      dup2\n      0x01\n      add\n      sstore\n      0x40\n      dup3\n      add\n      mload\n      dup2\n      0x02\n      add\n      sstore\n      0x60\n      dup3\n      add\n      mload\n      dup2\n      0x03\n      add\n      exp(0x0100, 0x00)\n      dup2\n      sload\n      dup2\n      0xffffffffffffffffffffffffffffffffffffffff\n      mul\n      not\n      and\n      swap1\n      dup4\n      0xffffffffffffffffffffffffffffffffffffffff\n      and\n      mul\n      or\n      swap1\n      sstore\n      pop\n      0x80\n      dup3\n      add\n      mload\n      dup2\n      0x04\n      add\n      swap1\n      dup1\n      mload\n      swap1\n      0x20\n      add\n      swap1\n      tag_60\n      swap3\n      swap2\n      swap1\n      tag_61\n      jump\t// in\n    tag_60:\n      pop\n      0xa0\n      dup3\n      add\n      mload\n      dup2\n      0x05\n      add\n      exp(0x0100, 0x00)\n      dup2\n      sload\n      dup2\n      0xff\n      mul\n      not\n      and\n      swap1\n      dup4\n      iszero\n      iszero\n      mul\n      or\n      swap1\n      sstore\n      pop\n      0xc0\n      dup3\n      add\n      mload\n      dup2\n      0x06\n      add\n      sstore\n      swap1\n      pop\n      pop\n        /* \"contract/HouseRegistry.sol\":1014:1073  AddNewHouse(houseId, _sellerAddress, _price, _houseAddress) */\n      0x8f5afd88eb4be0ac287d87970052ce9a2b453448408e3c91a695ad7509ab7194\n        /* \"contract/HouseRegistry.sol\":1026:1033  houseId */\n      dup2\n        /* \"contract/HouseRegistry.sol\":1035:1049  _sellerAddress */\n      dup6\n        /* \"contract/HouseRegistry.sol\":1051:1057  _price */\n      dup9\n        /* \"contract/HouseRegistry.sol\":1059:1072  _houseAddress */\n      dup7\n        /* \"contract/HouseRegistry.sol\":1014:1073  AddNewHouse(houseId, _sellerAddress, _price, _houseAddress) */\n      mload(0x40)\n      tag_62\n      swap5\n      swap4\n      swap3\n      swap2\n      swap1\n      tag_63\n      jump\t// in\n    tag_62:\n      mload(0x40)\n      dup1\n      swap2\n      sub\n      swap1\n      log1\n        /* \"contract/HouseRegistry.sol\":1090:1097  houseId */\n      dup1\n        /* \"contract/HouseRegistry.sol\":1083:1097  return houseId */\n      swap2\n      pop\n      pop\n        /* \"contract/HouseRegistry.sol\":548:1104  function listHouse (uint _price, uint _area, address _sellerAddress, string memory _houseAddress) public returns (uint) {... */\n      swap5\n      swap4\n      pop\n      pop\n      pop\n      pop\n      jump\t// out\n        /* \"contract/HouseRegistry.sol\":505:541  mapping(uint => House) public houses */\n    tag_27:\n      mstore(0x20, 0x04)\n      dup1\n      0x00\n      mstore\n      keccak256(0x00, 0x40)\n      0x00\n      swap2\n      pop\n      swap1\n      pop\n      dup1\n      0x00\n      add\n      sload\n      swap1\n      dup1\n      0x01\n      add\n      sload\n      swap1\n      dup1\n      0x02\n      add\n      sload\n      swap1\n      dup1\n      0x03\n      add\n      0x00\n      swap1\n      sload\n      swap1\n      0x0100\n      exp\n      swap1\n      div\n      0xffffffffffffffffffffffffffffffffffffffff\n      and\n      swap1\n      dup1\n      0x04\n      add\n      dup1\n      sload\n      tag_64\n      swap1\n      tag_65\n      jump\t// in\n    tag_64:\n      dup1\n      0x1f\n      add\n      0x20\n      dup1\n      swap2\n      div\n      mul\n      0x20\n      add\n      mload(0x40)\n      swap1\n      dup2\n      add\n      0x40\n      mstore\n      dup1\n      swap3\n      swap2\n      swap1\n      dup2\n      dup2\n      mstore\n      0x20\n      add\n      dup3\n      dup1\n      sload\n      tag_66\n      swap1\n      tag_65\n      jump\t// in\n    tag_66:\n      dup1\n      iszero\n      tag_67\n      jumpi\n      dup1\n      0x1f\n      lt\n      tag_68\n      jumpi\n      0x0100\n      dup1\n      dup4\n      sload\n      div\n      mul\n      dup4\n      mstore\n      swap2\n      0x20\n      add\n      swap2\n      jump(tag_67)\n    tag_68:\n      dup3\n      add\n      swap2\n      swap1\n      0x00\n      mstore\n      keccak256(0x00, 0x20)\n      swap1\n    tag_69:\n      dup2\n      sload\n      dup2\n      mstore\n      swap1\n      0x01\n      add\n      swap1\n      0x20\n      add\n      dup1\n      dup4\n      gt\n      tag_69\n      jumpi\n      dup3\n      swap1\n      sub\n      0x1f\n      and\n      dup3\n      add\n      swap2\n    tag_67:\n      pop\n      pop\n      pop\n      pop\n      pop\n      swap1\n      dup1\n      0x05\n      add\n      0x00\n      swap1\n      sload\n      swap1\n      0x0100\n      exp\n      swap1\n      div\n      0xff\n      and\n      swap1\n      dup1\n      0x06\n      add\n      sload\n      swap1\n      pop\n      dup8\n      jump\t// out\n        /* \"contract/Ownable.sol\":1978:2179  function transferOwnership(address newOwner) public virtual onlyOwner {\r... */\n    tag_33:\n        /* \"contract/Ownable.sol\":1300:1312  _msgSender() */\n      tag_71\n        /* \"contract/Ownable.sol\":1300:1310  _msgSender */\n      tag_40\n        /* \"contract/Ownable.sol\":1300:1312  _msgSender() */\n      jump\t// in\n    tag_71:\n        /* \"contract/Ownable.sol\":1289:1312  owner() == _msgSender() */\n      0xffffffffffffffffffffffffffffffffffffffff\n      and\n        /* \"contract/Ownable.sol\":1289:1296  owner() */\n      tag_72\n        /* \"contract/Ownable.sol\":1289:1294  owner */\n      tag_16\n        /* \"contract/Ownable.sol\":1289:1296  owner() */\n      jump\t// in\n    tag_72:\n        /* \"contract/Ownable.sol\":1289:1312  owner() == _msgSender() */\n      0xffffffffffffffffffffffffffffffffffffffff\n      and\n      eq\n        /* \"contract/Ownable.sol\":1281:1349  require(owner() == _msgSender(), \"Ownable: caller is not the owner\") */\n      tag_73\n      jumpi\n      mload(0x40)\n      0x08c379a000000000000000000000000000000000000000000000000000000000\n      dup2\n      mstore\n      0x04\n      add\n      tag_74\n      swap1\n      tag_44\n      jump\t// in\n    tag_74:\n      mload(0x40)\n      dup1\n      swap2\n      sub\n      swap1\n      revert\n    tag_73:\n        /* \"contract/Ownable.sol\":2087:2088  0 */\n      0x00\n        /* \"contract/Ownable.sol\":2067:2089  newOwner != address(0) */\n      0xffffffffffffffffffffffffffffffffffffffff\n      and\n        /* \"contract/Ownable.sol\":2067:2075  newOwner */\n      dup2\n        /* \"contract/Ownable.sol\":2067:2089  newOwner != address(0) */\n      0xffffffffffffffffffffffffffffffffffffffff\n      and\n      eq\n      iszero\n        /* \"contract/Ownable.sol\":2059:2132  require(newOwner != address(0), \"Ownable: new owner is the zero address\") */\n      tag_76\n      jumpi\n      mload(0x40)\n      0x08c379a000000000000000000000000000000000000000000000000000000000\n      dup2\n      mstore\n      0x04\n      add\n      tag_77\n      swap1\n      tag_78\n      jump\t// in\n    tag_77:\n      mload(0x40)\n      dup1\n      swap2\n      sub\n      swap1\n      revert\n    tag_76:\n        /* \"contract/Ownable.sol\":2143:2171  _transferOwnership(newOwner) */\n      tag_79\n        /* \"contract/Ownable.sol\":2162:2170  newOwner */\n      dup2\n        /* \"contract/Ownable.sol\":2143:2161  _transferOwnership */\n      tag_47\n        /* \"contract/Ownable.sol\":2143:2171  _transferOwnership(newOwner) */\n      jump\t// in\n    tag_79:\n        /* \"contract/Ownable.sol\":1978:2179  function transferOwnership(address newOwner) public virtual onlyOwner {\r... */\n      pop\n      jump\t// out\n        /* \"contract/utils/Context.sol\":656:754  function _msgSender() internal view virtual returns (address) {\r... */\n    tag_40:\n        /* \"contract/utils/Context.sol\":709:716  address */\n      0x00\n        /* \"contract/utils/Context.sol\":736:746  msg.sender */\n      caller\n        /* \"contract/utils/Context.sol\":729:746  return msg.sender */\n      swap1\n      pop\n        /* \"contract/utils/Context.sol\":656:754  function _msgSender() internal view virtual returns (address) {\r... */\n      swap1\n      jump\t// out\n        /* \"contract/Ownable.sol\":2339:2530  function _transferOwnership(address newOwner) internal virtual {\r... */\n    tag_47:\n        /* \"contract/Ownable.sol\":2413:2429  address oldOwner */\n      0x00\n        /* \"contract/Ownable.sol\":2432:2438  _owner */\n      dup1\n      0x00\n      swap1\n      sload\n      swap1\n      0x0100\n      exp\n      swap1\n      div\n      0xffffffffffffffffffffffffffffffffffffffff\n      and\n        /* \"contract/Ownable.sol\":2413:2438  address oldOwner = _owner */\n      swap1\n      pop\n        /* \"contract/Ownable.sol\":2458:2466  newOwner */\n      dup2\n        /* \"contract/Ownable.sol\":2449:2455  _owner */\n      0x00\n      dup1\n        /* \"contract/Ownable.sol\":2449:2466  _owner = newOwner */\n      0x0100\n      exp\n      dup2\n      sload\n      dup2\n      0xffffffffffffffffffffffffffffffffffffffff\n      mul\n      not\n      and\n      swap1\n      dup4\n      0xffffffffffffffffffffffffffffffffffffffff\n      and\n      mul\n      or\n      swap1\n      sstore\n      pop\n        /* \"contract/Ownable.sol\":2513:2521  newOwner */\n      dup2\n        /* \"contract/Ownable.sol\":2482:2522  OwnershipTransferred(oldOwner, newOwner) */\n      0xffffffffffffffffffffffffffffffffffffffff\n      and\n        /* \"contract/Ownable.sol\":2503:2511  oldOwner */\n      dup2\n        /* \"contract/Ownable.sol\":2482:2522  OwnershipTransferred(oldOwner, newOwner) */\n      0xffffffffffffffffffffffffffffffffffffffff\n      and\n      0x8be0079c531659141344cd1fd0a4f28419497f9722a3daafe3b4186f6b6457e0\n      mload(0x40)\n      mload(0x40)\n      dup1\n      swap2\n      sub\n      swap1\n      log3\n        /* \"contract/Ownable.sol\":2402:2530  {\r... */\n      pop\n        /* \"contract/Ownable.sol\":2339:2530  function _transferOwnership(address newOwner) internal virtual {\r... */\n      pop\n      jump\t// out\n        /* \"contract/HouseRegistry.sol\":1110:1364  function _generateHouseId(address _sellerAddress, uint _area, string memory _houseAddress) private view returns(uint){... */\n    tag_56:\n        /* \"contract/HouseRegistry.sol\":1222:1226  uint */\n      0x00\n        /* \"contract/HouseRegistry.sol\":1237:1249  uint houseId */\n      dup1\n        /* \"contract/HouseRegistry.sol\":1284:1298  _sellerAddress */\n      dup5\n        /* \"contract/HouseRegistry.sol\":1300:1305  _area */\n      dup5\n        /* \"contract/HouseRegistry.sol\":1307:1320  _houseAddress */\n      dup5\n        /* \"contract/HouseRegistry.sol\":1267:1321  abi.encodePacked(_sellerAddress, _area, _houseAddress) */\n      add(0x20, mload(0x40))\n      tag_83\n      swap4\n      swap3\n      swap2\n      swap1\n      tag_84\n      jump\t// in\n    tag_83:\n      mload(0x40)\n      0x20\n      dup2\n      dup4\n      sub\n      sub\n      dup2\n      mstore\n      swap1\n      0x40\n      mstore\n        /* \"contract/HouseRegistry.sol\":1257:1322  keccak256(abi.encodePacked(_sellerAddress, _area, _houseAddress)) */\n      dup1\n      mload\n      swap1\n      0x20\n      add\n      keccak256\n        /* \"contract/HouseRegistry.sol\":1252:1323  uint(keccak256(abi.encodePacked(_sellerAddress, _area, _houseAddress))) */\n      0x00\n      shr\n        /* \"contract/HouseRegistry.sol\":1237:1323  uint houseId = uint(keccak256(abi.encodePacked(_sellerAddress, _area, _houseAddress))) */\n      swap1\n      pop\n        /* \"contract/HouseRegistry.sol\":1350:1357  modulus */\n      sload(0x02)\n        /* \"contract/HouseRegistry.sol\":1340:1347  houseId */\n      dup2\n        /* \"contract/HouseRegistry.sol\":1340:1357  houseId % modulus */\n      tag_85\n      swap2\n      swap1\n      tag_86\n      jump\t// in\n    tag_85:\n        /* \"contract/HouseRegistry.sol\":1333:1357  return houseId % modulus */\n      swap2\n      pop\n      pop\n        /* \"contract/HouseRegistry.sol\":1110:1364  function _generateHouseId(address _sellerAddress, uint _area, string memory _houseAddress) private view returns(uint){... */\n      swap4\n      swap3\n      pop\n      pop\n      pop\n      jump\t// out\n    tag_61:\n      dup3\n      dup1\n      sload\n      tag_87\n      swap1\n      tag_65\n      jump\t// in\n    tag_87:\n      swap1\n      0x00\n      mstore\n      keccak256(0x00, 0x20)\n      swap1\n      0x1f\n      add\n      0x20\n      swap1\n      div\n      dup2\n      add\n      swap3\n      dup3\n      tag_89\n      jumpi\n      0x00\n      dup6\n      sstore\n      jump(tag_88)\n    tag_89:\n      dup3\n      0x1f\n      lt\n      tag_90\n      jumpi\n      dup1\n      mload\n      not(0xff)\n      and\n      dup4\n      dup1\n      add\n      or\n      dup6\n      sstore\n      jump(tag_88)\n    tag_90:\n      dup3\n      dup1\n      add\n      0x01\n      add\n      dup6\n      sstore\n      dup3\n      iszero\n      tag_88\n      jumpi\n      swap2\n      dup3\n      add\n    tag_91:\n      dup3\n      dup2\n      gt\n      iszero\n      tag_92\n      jumpi\n      dup3\n      mload\n      dup3\n      sstore\n      swap2\n      0x20\n      add\n      swap2\n      swap1\n      0x01\n      add\n      swap1\n      jump(tag_91)\n    tag_92:\n    tag_88:\n      pop\n      swap1\n      pop\n      tag_93\n      swap2\n      swap1\n      tag_94\n      jump\t// in\n    tag_93:\n      pop\n      swap1\n      jump\t// out\n    tag_94:\n    tag_95:\n      dup1\n      dup3\n      gt\n      iszero\n      tag_96\n      jumpi\n      0x00\n      dup2\n      0x00\n      swap1\n      sstore\n      pop\n      0x01\n      add\n      jump(tag_95)\n    tag_96:\n      pop\n      swap1\n      jump\t// out\n        /* \"#utility.yul\":7:419   */\n    tag_98:\n        /* \"#utility.yul\":85:90   */\n      0x00\n        /* \"#utility.yul\":110:176   */\n      tag_100\n        /* \"#utility.yul\":126:175   */\n      tag_101\n        /* \"#utility.yul\":168:174   */\n      dup5\n        /* \"#utility.yul\":126:175   */\n      tag_102\n      jump\t// in\n    tag_101:\n        /* \"#utility.yul\":110:176   */\n      tag_103\n      jump\t// in\n    tag_100:\n        /* \"#utility.yul\":101:176   */\n      swap1\n      pop\n        /* \"#utility.yul\":199:205   */\n      dup3\n        /* \"#utility.yul\":192:197   */\n      dup2\n        /* \"#utility.yul\":185:206   */\n      mstore\n        /* \"#utility.yul\":237:241   */\n      0x20\n        /* \"#utility.yul\":230:235   */\n      dup2\n        /* \"#utility.yul\":226:242   */\n      add\n        /* \"#utility.yul\":275:278   */\n      dup5\n        /* \"#utility.yul\":266:272   */\n      dup5\n        /* \"#utility.yul\":261:264   */\n      dup5\n        /* \"#utility.yul\":257:273   */\n      add\n        /* \"#utility.yul\":254:279   */\n      gt\n        /* \"#utility.yul\":251:363   */\n      iszero\n      tag_104\n      jumpi\n        /* \"#utility.yul\":282:361   */\n      tag_105\n      tag_106\n      jump\t// in\n    tag_105:\n        /* \"#utility.yul\":251:363   */\n    tag_104:\n        /* \"#utility.yul\":372:413   */\n      tag_107\n        /* \"#utility.yul\":406:412   */\n      dup5\n        /* \"#utility.yul\":401:404   */\n      dup3\n        /* \"#utility.yul\":396:399   */\n      dup6\n        /* \"#utility.yul\":372:413   */\n      tag_108\n      jump\t// in\n    tag_107:\n        /* \"#utility.yul\":91:419   */\n      pop\n        /* \"#utility.yul\":7:419   */\n      swap4\n      swap3\n      pop\n      pop\n      pop\n      jump\t// out\n        /* \"#utility.yul\":425:564   */\n    tag_109:\n        /* \"#utility.yul\":471:476   */\n      0x00\n        /* \"#utility.yul\":509:515   */\n      dup2\n        /* \"#utility.yul\":496:516   */\n      calldataload\n        /* \"#utility.yul\":487:516   */\n      swap1\n      pop\n        /* \"#utility.yul\":525:558   */\n      tag_111\n        /* \"#utility.yul\":552:557   */\n      dup2\n        /* \"#utility.yul\":525:558   */\n      tag_112\n      jump\t// in\n    tag_111:\n        /* \"#utility.yul\":425:564   */\n      swap3\n      swap2\n      pop\n      pop\n      jump\t// out\n        /* \"#utility.yul\":584:924   */\n    tag_113:\n        /* \"#utility.yul\":640:645   */\n      0x00\n        /* \"#utility.yul\":689:692   */\n      dup3\n        /* \"#utility.yul\":682:686   */\n      0x1f\n        /* \"#utility.yul\":674:680   */\n      dup4\n        /* \"#utility.yul\":670:687   */\n      add\n        /* \"#utility.yul\":666:693   */\n      slt\n        /* \"#utility.yul\":656:778   */\n      tag_115\n      jumpi\n        /* \"#utility.yul\":697:776   */\n      tag_116\n      tag_117\n      jump\t// in\n    tag_116:\n        /* \"#utility.yul\":656:778   */\n    tag_115:\n        /* \"#utility.yul\":814:820   */\n      dup2\n        /* \"#utility.yul\":801:821   */\n      calldataload\n        /* \"#utility.yul\":839:918   */\n      tag_118\n        /* \"#utility.yul\":914:917   */\n      dup5\n        /* \"#utility.yul\":906:912   */\n      dup3\n        /* \"#utility.yul\":899:903   */\n      0x20\n        /* \"#utility.yul\":891:897   */\n      dup7\n        /* \"#utility.yul\":887:904   */\n      add\n        /* \"#utility.yul\":839:918   */\n      tag_98\n      jump\t// in\n    tag_118:\n        /* \"#utility.yul\":830:918   */\n      swap2\n      pop\n        /* \"#utility.yul\":646:924   */\n      pop\n        /* \"#utility.yul\":584:924   */\n      swap3\n      swap2\n      pop\n      pop\n      jump\t// out\n        /* \"#utility.yul\":930:1069   */\n    tag_119:\n        /* \"#utility.yul\":976:981   */\n      0x00\n        /* \"#utility.yul\":1014:1020   */\n      dup2\n        /* \"#utility.yul\":1001:1021   */\n      calldataload\n        /* \"#utility.yul\":992:1021   */\n      swap1\n      pop\n        /* \"#utility.yul\":1030:1063   */\n      tag_121\n        /* \"#utility.yul\":1057:1062   */\n      dup2\n        /* \"#utility.yul\":1030:1063   */\n      tag_122\n      jump\t// in\n    tag_121:\n        /* \"#utility.yul\":930:1069   */\n      swap3\n      swap2\n      pop\n      pop\n      jump\t// out\n        /* \"#utility.yul\":1075:1404   */\n    tag_32:\n        /* \"#utility.yul\":1134:1140   */\n      0x00\n        /* \"#utility.yul\":1183:1185   */\n      0x20\n        /* \"#utility.yul\":1171:1180   */\n      dup3\n        /* \"#utility.yul\":1162:1169   */\n      dup5\n        /* \"#utility.yul\":1158:1181   */\n      sub\n        /* \"#utility.yul\":1154:1186   */\n      slt\n        /* \"#utility.yul\":1151:1270   */\n      iszero\n      tag_124\n      jumpi\n        /* \"#utility.yul\":1189:1268   */\n      tag_125\n      tag_126\n      jump\t// in\n    tag_125:\n        /* \"#utility.yul\":1151:1270   */\n    tag_124:\n        /* \"#utility.yul\":1309:1310   */\n      0x00\n        /* \"#utility.yul\":1334:1387   */\n      tag_127\n        /* \"#utility.yul\":1379:1386   */\n      dup5\n        /* \"#utility.yul\":1370:1376   */\n      dup3\n        /* \"#utility.yul\":1359:1368   */\n      dup6\n        /* \"#utility.yul\":1355:1377   */\n      add\n        /* \"#utility.yul\":1334:1387   */\n      tag_109\n      jump\t// in\n    tag_127:\n        /* \"#utility.yul\":1324:1387   */\n      swap2\n      pop\n        /* \"#utility.yul\":1280:1397   */\n      pop\n        /* \"#utility.yul\":1075:1404   */\n      swap3\n      swap2\n      pop\n      pop\n      jump\t// out\n        /* \"#utility.yul\":1410:1739   */\n    tag_11:\n        /* \"#utility.yul\":1469:1475   */\n      0x00\n        /* \"#utility.yul\":1518:1520   */\n      0x20\n        /* \"#utility.yul\":1506:1515   */\n      dup3\n        /* \"#utility.yul\":1497:1504   */\n      dup5\n        /* \"#utility.yul\":1493:1516   */\n      sub\n        /* \"#utility.yul\":1489:1521   */\n      slt\n        /* \"#utility.yul\":1486:1605   */\n      iszero\n      tag_129\n      jumpi\n        /* \"#utility.yul\":1524:1603   */\n      tag_130\n      tag_126\n      jump\t// in\n    tag_130:\n        /* \"#utility.yul\":1486:1605   */\n    tag_129:\n        /* \"#utility.yul\":1644:1645   */\n      0x00\n        /* \"#utility.yul\":1669:1722   */\n      tag_131\n        /* \"#utility.yul\":1714:1721   */\n      dup5\n        /* \"#utility.yul\":1705:1711   */\n      dup3\n        /* \"#utility.yul\":1694:1703   */\n      dup6\n        /* \"#utility.yul\":1690:1712   */\n      add\n        /* \"#utility.yul\":1669:1722   */\n      tag_119\n      jump\t// in\n    tag_131:\n        /* \"#utility.yul\":1659:1722   */\n      swap2\n      pop\n        /* \"#utility.yul\":1615:1732   */\n      pop\n        /* \"#utility.yul\":1410:1739   */\n      swap3\n      swap2\n      pop\n      pop\n      jump\t// out\n        /* \"#utility.yul\":1745:2690   */\n    tag_21:\n        /* \"#utility.yul\":1841:1847   */\n      0x00\n        /* \"#utility.yul\":1849:1855   */\n      dup1\n        /* \"#utility.yul\":1857:1863   */\n      0x00\n        /* \"#utility.yul\":1865:1871   */\n      dup1\n        /* \"#utility.yul\":1914:1917   */\n      0x80\n        /* \"#utility.yul\":1902:1911   */\n      dup6\n        /* \"#utility.yul\":1893:1900   */\n      dup8\n        /* \"#utility.yul\":1889:1912   */\n      sub\n        /* \"#utility.yul\":1885:1918   */\n      slt\n        /* \"#utility.yul\":1882:2002   */\n      iszero\n      tag_133\n      jumpi\n        /* \"#utility.yul\":1921:2000   */\n      tag_134\n      tag_126\n      jump\t// in\n    tag_134:\n        /* \"#utility.yul\":1882:2002   */\n    tag_133:\n        /* \"#utility.yul\":2041:2042   */\n      0x00\n        /* \"#utility.yul\":2066:2119   */\n      tag_135\n        /* \"#utility.yul\":2111:2118   */\n      dup8\n        /* \"#utility.yul\":2102:2108   */\n      dup3\n        /* \"#utility.yul\":2091:2100   */\n      dup9\n        /* \"#utility.yul\":2087:2109   */\n      add\n        /* \"#utility.yul\":2066:2119   */\n      tag_119\n      jump\t// in\n    tag_135:\n        /* \"#utility.yul\":2056:2119   */\n      swap5\n      pop\n        /* \"#utility.yul\":2012:2129   */\n      pop\n        /* \"#utility.yul\":2168:2170   */\n      0x20\n        /* \"#utility.yul\":2194:2247   */\n      tag_136\n        /* \"#utility.yul\":2239:2246   */\n      dup8\n        /* \"#utility.yul\":2230:2236   */\n      dup3\n        /* \"#utility.yul\":2219:2228   */\n      dup9\n        /* \"#utility.yul\":2215:2237   */\n      add\n        /* \"#utility.yul\":2194:2247   */\n      tag_119\n      jump\t// in\n    tag_136:\n        /* \"#utility.yul\":2184:2247   */\n      swap4\n      pop\n        /* \"#utility.yul\":2139:2257   */\n      pop\n        /* \"#utility.yul\":2296:2298   */\n      0x40\n        /* \"#utility.yul\":2322:2375   */\n      tag_137\n        /* \"#utility.yul\":2367:2374   */\n      dup8\n        /* \"#utility.yul\":2358:2364   */\n      dup3\n        /* \"#utility.yul\":2347:2356   */\n      dup9\n        /* \"#utility.yul\":2343:2365   */\n      add\n        /* \"#utility.yul\":2322:2375   */\n      tag_109\n      jump\t// in\n    tag_137:\n        /* \"#utility.yul\":2312:2375   */\n      swap3\n      pop\n        /* \"#utility.yul\":2267:2385   */\n      pop\n        /* \"#utility.yul\":2452:2454   */\n      0x60\n        /* \"#utility.yul\":2441:2450   */\n      dup6\n        /* \"#utility.yul\":2437:2455   */\n      add\n        /* \"#utility.yul\":2424:2456   */\n      calldataload\n        /* \"#utility.yul\":2483:2501   */\n      0xffffffffffffffff\n        /* \"#utility.yul\":2475:2481   */\n      dup2\n        /* \"#utility.yul\":2472:2502   */\n      gt\n        /* \"#utility.yul\":2469:2586   */\n      iszero\n      tag_138\n      jumpi\n        /* \"#utility.yul\":2505:2584   */\n      tag_139\n      tag_140\n      jump\t// in\n    tag_139:\n        /* \"#utility.yul\":2469:2586   */\n    tag_138:\n        /* \"#utility.yul\":2610:2673   */\n      tag_141\n        /* \"#utility.yul\":2665:2672   */\n      dup8\n        /* \"#utility.yul\":2656:2662   */\n      dup3\n        /* \"#utility.yul\":2645:2654   */\n      dup9\n        /* \"#utility.yul\":2641:2663   */\n      add\n        /* \"#utility.yul\":2610:2673   */\n      tag_113\n      jump\t// in\n    tag_141:\n        /* \"#utility.yul\":2600:2673   */\n      swap2\n      pop\n        /* \"#utility.yul\":2395:2683   */\n      pop\n        /* \"#utility.yul\":1745:2690   */\n      swap3\n      swap6\n      swap2\n      swap5\n      pop\n      swap3\n      pop\n      jump\t// out\n        /* \"#utility.yul\":2696:2814   */\n    tag_142:\n        /* \"#utility.yul\":2783:2807   */\n      tag_144\n        /* \"#utility.yul\":2801:2806   */\n      dup2\n        /* \"#utility.yul\":2783:2807   */\n      tag_145\n      jump\t// in\n    tag_144:\n        /* \"#utility.yul\":2778:2781   */\n      dup3\n        /* \"#utility.yul\":2771:2808   */\n      mstore\n        /* \"#utility.yul\":2696:2814   */\n      pop\n      pop\n      jump\t// out\n        /* \"#utility.yul\":2820:2977   */\n    tag_146:\n        /* \"#utility.yul\":2925:2970   */\n      tag_148\n        /* \"#utility.yul\":2945:2969   */\n      tag_149\n        /* \"#utility.yul\":2963:2968   */\n      dup3\n        /* \"#utility.yul\":2945:2969   */\n      tag_145\n      jump\t// in\n    tag_149:\n        /* \"#utility.yul\":2925:2970   */\n      tag_150\n      jump\t// in\n    tag_148:\n        /* \"#utility.yul\":2920:2923   */\n      dup3\n        /* \"#utility.yul\":2913:2971   */\n      mstore\n        /* \"#utility.yul\":2820:2977   */\n      pop\n      pop\n      jump\t// out\n        /* \"#utility.yul\":2983:3092   */\n    tag_151:\n        /* \"#utility.yul\":3064:3085   */\n      tag_153\n        /* \"#utility.yul\":3079:3084   */\n      dup2\n        /* \"#utility.yul\":3064:3085   */\n      tag_154\n      jump\t// in\n    tag_153:\n        /* \"#utility.yul\":3059:3062   */\n      dup3\n        /* \"#utility.yul\":3052:3086   */\n      mstore\n        /* \"#utility.yul\":2983:3092   */\n      pop\n      pop\n      jump\t// out\n        /* \"#utility.yul\":3098:3462   */\n    tag_155:\n        /* \"#utility.yul\":3186:3189   */\n      0x00\n        /* \"#utility.yul\":3214:3253   */\n      tag_157\n        /* \"#utility.yul\":3247:3252   */\n      dup3\n        /* \"#utility.yul\":3214:3253   */\n      tag_158\n      jump\t// in\n    tag_157:\n        /* \"#utility.yul\":3269:3340   */\n      tag_159\n        /* \"#utility.yul\":3333:3339   */\n      dup2\n        /* \"#utility.yul\":3328:3331   */\n      dup6\n        /* \"#utility.yul\":3269:3340   */\n      tag_160\n      jump\t// in\n    tag_159:\n        /* \"#utility.yul\":3262:3340   */\n      swap4\n      pop\n        /* \"#utility.yul\":3349:3401   */\n      tag_161\n        /* \"#utility.yul\":3394:3400   */\n      dup2\n        /* \"#utility.yul\":3389:3392   */\n      dup6\n        /* \"#utility.yul\":3382:3386   */\n      0x20\n        /* \"#utility.yul\":3375:3380   */\n      dup7\n        /* \"#utility.yul\":3371:3387   */\n      add\n        /* \"#utility.yul\":3349:3401   */\n      tag_162\n      jump\t// in\n    tag_161:\n        /* \"#utility.yul\":3426:3455   */\n      tag_163\n        /* \"#utility.yul\":3448:3454   */\n      dup2\n        /* \"#utility.yul\":3426:3455   */\n      tag_164\n      jump\t// in\n    tag_163:\n        /* \"#utility.yul\":3421:3424   */\n      dup5\n        /* \"#utility.yul\":3417:3456   */\n      add\n        /* \"#utility.yul\":3410:3456   */\n      swap2\n      pop\n        /* \"#utility.yul\":3190:3462   */\n      pop\n        /* \"#utility.yul\":3098:3462   */\n      swap3\n      swap2\n      pop\n      pop\n      jump\t// out\n        /* \"#utility.yul\":3468:3845   */\n    tag_165:\n        /* \"#utility.yul\":3574:3577   */\n      0x00\n        /* \"#utility.yul\":3602:3641   */\n      tag_167\n        /* \"#utility.yul\":3635:3640   */\n      dup3\n        /* \"#utility.yul\":3602:3641   */\n      tag_158\n      jump\t// in\n    tag_167:\n        /* \"#utility.yul\":3657:3746   */\n      tag_168\n        /* \"#utility.yul\":3739:3745   */\n      dup2\n        /* \"#utility.yul\":3734:3737   */\n      dup6\n        /* \"#utility.yul\":3657:3746   */\n      tag_169\n      jump\t// in\n    tag_168:\n        /* \"#utility.yul\":3650:3746   */\n      swap4\n      pop\n        /* \"#utility.yul\":3755:3807   */\n      tag_170\n        /* \"#utility.yul\":3800:3806   */\n      dup2\n        /* \"#utility.yul\":3795:3798   */\n      dup6\n        /* \"#utility.yul\":3788:3792   */\n      0x20\n        /* \"#utility.yul\":3781:3786   */\n      dup7\n        /* \"#utility.yul\":3777:3793   */\n      add\n        /* \"#utility.yul\":3755:3807   */\n      tag_162\n      jump\t// in\n    tag_170:\n        /* \"#utility.yul\":3832:3838   */\n      dup1\n        /* \"#utility.yul\":3827:3830   */\n      dup5\n        /* \"#utility.yul\":3823:3839   */\n      add\n        /* \"#utility.yul\":3816:3839   */\n      swap2\n      pop\n        /* \"#utility.yul\":3578:3845   */\n      pop\n        /* \"#utility.yul\":3468:3845   */\n      swap3\n      swap2\n      pop\n      pop\n      jump\t// out\n        /* \"#utility.yul\":3851:4217   */\n    tag_171:\n        /* \"#utility.yul\":3993:3996   */\n      0x00\n        /* \"#utility.yul\":4014:4081   */\n      tag_173\n        /* \"#utility.yul\":4078:4080   */\n      0x26\n        /* \"#utility.yul\":4073:4076   */\n      dup4\n        /* \"#utility.yul\":4014:4081   */\n      tag_160\n      jump\t// in\n    tag_173:\n        /* \"#utility.yul\":4007:4081   */\n      swap2\n      pop\n        /* \"#utility.yul\":4090:4183   */\n      tag_174\n        /* \"#utility.yul\":4179:4182   */\n      dup3\n        /* \"#utility.yul\":4090:4183   */\n      tag_175\n      jump\t// in\n    tag_174:\n        /* \"#utility.yul\":4208:4210   */\n      0x40\n        /* \"#utility.yul\":4203:4206   */\n      dup3\n        /* \"#utility.yul\":4199:4211   */\n      add\n        /* \"#utility.yul\":4192:4211   */\n      swap1\n      pop\n        /* \"#utility.yul\":3851:4217   */\n      swap2\n      swap1\n      pop\n      jump\t// out\n        /* \"#utility.yul\":4223:4589   */\n    tag_176:\n        /* \"#utility.yul\":4365:4368   */\n      0x00\n        /* \"#utility.yul\":4386:4453   */\n      tag_178\n        /* \"#utility.yul\":4450:4452   */\n      0x14\n        /* \"#utility.yul\":4445:4448   */\n      dup4\n        /* \"#utility.yul\":4386:4453   */\n      tag_160\n      jump\t// in\n    tag_178:\n        /* \"#utility.yul\":4379:4453   */\n      swap2\n      pop\n        /* \"#utility.yul\":4462:4555   */\n      tag_179\n        /* \"#utility.yul\":4551:4554   */\n      dup3\n        /* \"#utility.yul\":4462:4555   */\n      tag_180\n      jump\t// in\n    tag_179:\n        /* \"#utility.yul\":4580:4582   */\n      0x20\n        /* \"#utility.yul\":4575:4578   */\n      dup3\n        /* \"#utility.yul\":4571:4583   */\n      add\n        /* \"#utility.yul\":4564:4583   */\n      swap1\n      pop\n        /* \"#utility.yul\":4223:4589   */\n      swap2\n      swap1\n      pop\n      jump\t// out\n        /* \"#utility.yul\":4595:4961   */\n    tag_181:\n        /* \"#utility.yul\":4737:4740   */\n      0x00\n        /* \"#utility.yul\":4758:4825   */\n      tag_183\n        /* \"#utility.yul\":4822:4824   */\n      0x20\n        /* \"#utility.yul\":4817:4820   */\n      dup4\n        /* \"#utility.yul\":4758:4825   */\n      tag_160\n      jump\t// in\n    tag_183:\n        /* \"#utility.yul\":4751:4825   */\n      swap2\n      pop\n        /* \"#utility.yul\":4834:4927   */\n      tag_184\n        /* \"#utility.yul\":4923:4926   */\n      dup3\n        /* \"#utility.yul\":4834:4927   */\n      tag_185\n      jump\t// in\n    tag_184:\n        /* \"#utility.yul\":4952:4954   */\n      0x20\n        /* \"#utility.yul\":4947:4950   */\n      dup3\n        /* \"#utility.yul\":4943:4955   */\n      add\n        /* \"#utility.yul\":4936:4955   */\n      swap1\n      pop\n        /* \"#utility.yul\":4595:4961   */\n      swap2\n      swap1\n      pop\n      jump\t// out\n        /* \"#utility.yul\":4967:5333   */\n    tag_186:\n        /* \"#utility.yul\":5109:5112   */\n      0x00\n        /* \"#utility.yul\":5130:5197   */\n      tag_188\n        /* \"#utility.yul\":5194:5196   */\n      0x1b\n        /* \"#utility.yul\":5189:5192   */\n      dup4\n        /* \"#utility.yul\":5130:5197   */\n      tag_160\n      jump\t// in\n    tag_188:\n        /* \"#utility.yul\":5123:5197   */\n      swap2\n      pop\n        /* \"#utility.yul\":5206:5299   */\n      tag_189\n        /* \"#utility.yul\":5295:5298   */\n      dup3\n        /* \"#utility.yul\":5206:5299   */\n      tag_190\n      jump\t// in\n    tag_189:\n        /* \"#utility.yul\":5324:5326   */\n      0x20\n        /* \"#utility.yul\":5319:5322   */\n      dup3\n        /* \"#utility.yul\":5315:5327   */\n      add\n        /* \"#utility.yul\":5308:5327   */\n      swap1\n      pop\n        /* \"#utility.yul\":4967:5333   */\n      swap2\n      swap1\n      pop\n      jump\t// out\n        /* \"#utility.yul\":5339:5705   */\n    tag_191:\n        /* \"#utility.yul\":5481:5484   */\n      0x00\n        /* \"#utility.yul\":5502:5569   */\n      tag_193\n        /* \"#utility.yul\":5566:5568   */\n      0x2b\n        /* \"#utility.yul\":5561:5564   */\n      dup4\n        /* \"#utility.yul\":5502:5569   */\n      tag_160\n      jump\t// in\n    tag_193:\n        /* \"#utility.yul\":5495:5569   */\n      swap2\n      pop\n        /* \"#utility.yul\":5578:5671   */\n      tag_194\n        /* \"#utility.yul\":5667:5670   */\n      dup3\n        /* \"#utility.yul\":5578:5671   */\n      tag_195\n      jump\t// in\n    tag_194:\n        /* \"#utility.yul\":5696:5698   */\n      0x40\n        /* \"#utility.yul\":5691:5694   */\n      dup3\n        /* \"#utility.yul\":5687:5699   */\n      add\n        /* \"#utility.yul\":5680:5699   */\n      swap1\n      pop\n        /* \"#utility.yul\":5339:5705   */\n      swap2\n      swap1\n      pop\n      jump\t// out\n        /* \"#utility.yul\":5711:5829   */\n    tag_196:\n        /* \"#utility.yul\":5798:5822   */\n      tag_198\n        /* \"#utility.yul\":5816:5821   */\n      dup2\n        /* \"#utility.yul\":5798:5822   */\n      tag_199\n      jump\t// in\n    tag_198:\n        /* \"#utility.yul\":5793:5796   */\n      dup3\n        /* \"#utility.yul\":5786:5823   */\n      mstore\n        /* \"#utility.yul\":5711:5829   */\n      pop\n      pop\n      jump\t// out\n        /* \"#utility.yul\":5835:5992   */\n    tag_200:\n        /* \"#utility.yul\":5940:5985   */\n      tag_202\n        /* \"#utility.yul\":5960:5984   */\n      tag_203\n        /* \"#utility.yul\":5978:5983   */\n      dup3\n        /* \"#utility.yul\":5960:5984   */\n      tag_199\n      jump\t// in\n    tag_203:\n        /* \"#utility.yul\":5940:5985   */\n      tag_204\n      jump\t// in\n    tag_202:\n        /* \"#utility.yul\":5935:5938   */\n      dup3\n        /* \"#utility.yul\":5928:5986   */\n      mstore\n        /* \"#utility.yul\":5835:5992   */\n      pop\n      pop\n      jump\t// out\n        /* \"#utility.yul\":5998:6555   */\n    tag_84:\n        /* \"#utility.yul\":6186:6189   */\n      0x00\n        /* \"#utility.yul\":6201:6276   */\n      tag_206\n        /* \"#utility.yul\":6272:6275   */\n      dup3\n        /* \"#utility.yul\":6263:6269   */\n      dup7\n        /* \"#utility.yul\":6201:6276   */\n      tag_146\n      jump\t// in\n    tag_206:\n        /* \"#utility.yul\":6301:6303   */\n      0x14\n        /* \"#utility.yul\":6296:6299   */\n      dup3\n        /* \"#utility.yul\":6292:6304   */\n      add\n        /* \"#utility.yul\":6285:6304   */\n      swap2\n      pop\n        /* \"#utility.yul\":6314:6389   */\n      tag_207\n        /* \"#utility.yul\":6385:6388   */\n      dup3\n        /* \"#utility.yul\":6376:6382   */\n      dup6\n        /* \"#utility.yul\":6314:6389   */\n      tag_200\n      jump\t// in\n    tag_207:\n        /* \"#utility.yul\":6414:6416   */\n      0x20\n        /* \"#utility.yul\":6409:6412   */\n      dup3\n        /* \"#utility.yul\":6405:6417   */\n      add\n        /* \"#utility.yul\":6398:6417   */\n      swap2\n      pop\n        /* \"#utility.yul\":6434:6529   */\n      tag_208\n        /* \"#utility.yul\":6525:6528   */\n      dup3\n        /* \"#utility.yul\":6516:6522   */\n      dup5\n        /* \"#utility.yul\":6434:6529   */\n      tag_165\n      jump\t// in\n    tag_208:\n        /* \"#utility.yul\":6427:6529   */\n      swap2\n      pop\n        /* \"#utility.yul\":6546:6549   */\n      dup2\n        /* \"#utility.yul\":6539:6549   */\n      swap1\n      pop\n        /* \"#utility.yul\":5998:6555   */\n      swap5\n      swap4\n      pop\n      pop\n      pop\n      pop\n      jump\t// out\n        /* \"#utility.yul\":6561:6783   */\n    tag_18:\n        /* \"#utility.yul\":6654:6658   */\n      0x00\n        /* \"#utility.yul\":6692:6694   */\n      0x20\n        /* \"#utility.yul\":6681:6690   */\n      dup3\n        /* \"#utility.yul\":6677:6695   */\n      add\n        /* \"#utility.yul\":6669:6695   */\n      swap1\n      pop\n        /* \"#utility.yul\":6705:6776   */\n      tag_210\n        /* \"#utility.yul\":6773:6774   */\n      0x00\n        /* \"#utility.yul\":6762:6771   */\n      dup4\n        /* \"#utility.yul\":6758:6775   */\n      add\n        /* \"#utility.yul\":6749:6755   */\n      dup5\n        /* \"#utility.yul\":6705:6776   */\n      tag_142\n      jump\t// in\n    tag_210:\n        /* \"#utility.yul\":6561:6783   */\n      swap3\n      swap2\n      pop\n      pop\n      jump\t// out\n        /* \"#utility.yul\":6789:7208   */\n    tag_78:\n        /* \"#utility.yul\":6955:6959   */\n      0x00\n        /* \"#utility.yul\":6993:6995   */\n      0x20\n        /* \"#utility.yul\":6982:6991   */\n      dup3\n        /* \"#utility.yul\":6978:6996   */\n      add\n        /* \"#utility.yul\":6970:6996   */\n      swap1\n      pop\n        /* \"#utility.yul\":7042:7051   */\n      dup2\n        /* \"#utility.yul\":7036:7040   */\n      dup2\n        /* \"#utility.yul\":7032:7052   */\n      sub\n        /* \"#utility.yul\":7028:7029   */\n      0x00\n        /* \"#utility.yul\":7017:7026   */\n      dup4\n        /* \"#utility.yul\":7013:7030   */\n      add\n        /* \"#utility.yul\":7006:7053   */\n      mstore\n        /* \"#utility.yul\":7070:7201   */\n      tag_212\n        /* \"#utility.yul\":7196:7200   */\n      dup2\n        /* \"#utility.yul\":7070:7201   */\n      tag_171\n      jump\t// in\n    tag_212:\n        /* \"#utility.yul\":7062:7201   */\n      swap1\n      pop\n        /* \"#utility.yul\":6789:7208   */\n      swap2\n      swap1\n      pop\n      jump\t// out\n        /* \"#utility.yul\":7214:7633   */\n    tag_54:\n        /* \"#utility.yul\":7380:7384   */\n      0x00\n        /* \"#utility.yul\":7418:7420   */\n      0x20\n        /* \"#utility.yul\":7407:7416   */\n      dup3\n        /* \"#utility.yul\":7403:7421   */\n      add\n        /* \"#utility.yul\":7395:7421   */\n      swap1\n      pop\n        /* \"#utility.yul\":7467:7476   */\n      dup2\n        /* \"#utility.yul\":7461:7465   */\n      dup2\n        /* \"#utility.yul\":7457:7477   */\n      sub\n        /* \"#utility.yul\":7453:7454   */\n      0x00\n        /* \"#utility.yul\":7442:7451   */\n      dup4\n        /* \"#utility.yul\":7438:7455   */\n      add\n        /* \"#utility.yul\":7431:7478   */\n      mstore\n        /* \"#utility.yul\":7495:7626   */\n      tag_214\n        /* \"#utility.yul\":7621:7625   */\n      dup2\n        /* \"#utility.yul\":7495:7626   */\n      tag_176\n      jump\t// in\n    tag_214:\n        /* \"#utility.yul\":7487:7626   */\n      swap1\n      pop\n        /* \"#utility.yul\":7214:7633   */\n      swap2\n      swap1\n      pop\n      jump\t// out\n        /* \"#utility.yul\":7639:8058   */\n    tag_44:\n        /* \"#utility.yul\":7805:7809   */\n      0x00\n        /* \"#utility.yul\":7843:7845   */\n      0x20\n        /* \"#utility.yul\":7832:7841   */\n      dup3\n        /* \"#utility.yul\":7828:7846   */\n      add\n        /* \"#utility.yul\":7820:7846   */\n      swap1\n      pop\n        /* \"#utility.yul\":7892:7901   */\n      dup2\n        /* \"#utility.yul\":7886:7890   */\n      dup2\n        /* \"#utility.yul\":7882:7902   */\n      sub\n        /* \"#utility.yul\":7878:7879   */\n      0x00\n        /* \"#utility.yul\":7867:7876   */\n      dup4\n        /* \"#utility.yul\":7863:7880   */\n      add\n        /* \"#utility.yul\":7856:7903   */\n      mstore\n        /* \"#utility.yul\":7920:8051   */\n      tag_216\n        /* \"#utility.yul\":8046:8050   */\n      dup2\n        /* \"#utility.yul\":7920:8051   */\n      tag_181\n      jump\t// in\n    tag_216:\n        /* \"#utility.yul\":7912:8051   */\n      swap1\n      pop\n        /* \"#utility.yul\":7639:8058   */\n      swap2\n      swap1\n      pop\n      jump\t// out\n        /* \"#utility.yul\":8064:8483   */\n    tag_59:\n        /* \"#utility.yul\":8230:8234   */\n      0x00\n        /* \"#utility.yul\":8268:8270   */\n      0x20\n        /* \"#utility.yul\":8257:8266   */\n      dup3\n        /* \"#utility.yul\":8253:8271   */\n      add\n        /* \"#utility.yul\":8245:8271   */\n      swap1\n      pop\n        /* \"#utility.yul\":8317:8326   */\n      dup2\n        /* \"#utility.yul\":8311:8315   */\n      dup2\n        /* \"#utility.yul\":8307:8327   */\n      sub\n        /* \"#utility.yul\":8303:8304   */\n      0x00\n        /* \"#utility.yul\":8292:8301   */\n      dup4\n        /* \"#utility.yul\":8288:8305   */\n      add\n        /* \"#utility.yul\":8281:8328   */\n      mstore\n        /* \"#utility.yul\":8345:8476   */\n      tag_218\n        /* \"#utility.yul\":8471:8475   */\n      dup2\n        /* \"#utility.yul\":8345:8476   */\n      tag_186\n      jump\t// in\n    tag_218:\n        /* \"#utility.yul\":8337:8476   */\n      swap1\n      pop\n        /* \"#utility.yul\":8064:8483   */\n      swap2\n      swap1\n      pop\n      jump\t// out\n        /* \"#utility.yul\":8489:8908   */\n    tag_37:\n        /* \"#utility.yul\":8655:8659   */\n      0x00\n        /* \"#utility.yul\":8693:8695   */\n      0x20\n        /* \"#utility.yul\":8682:8691   */\n      dup3\n        /* \"#utility.yul\":8678:8696   */\n      add\n        /* \"#utility.yul\":8670:8696   */\n      swap1\n      pop\n        /* \"#utility.yul\":8742:8751   */\n      dup2\n        /* \"#utility.yul\":8736:8740   */\n      dup2\n        /* \"#utility.yul\":8732:8752   */\n      sub\n        /* \"#utility.yul\":8728:8729   */\n      0x00\n        /* \"#utility.yul\":8717:8726   */\n      dup4\n        /* \"#utility.yul\":8713:8730   */\n      add\n        /* \"#utility.yul\":8706:8753   */\n      mstore\n        /* \"#utility.yul\":8770:8901   */\n      tag_220\n        /* \"#utility.yul\":8896:8900   */\n      dup2\n        /* \"#utility.yul\":8770:8901   */\n      tag_191\n      jump\t// in\n    tag_220:\n        /* \"#utility.yul\":8762:8901   */\n      swap1\n      pop\n        /* \"#utility.yul\":8489:8908   */\n      swap2\n      swap1\n      pop\n      jump\t// out\n        /* \"#utility.yul\":8914:9136   */\n    tag_24:\n        /* \"#utility.yul\":9007:9011   */\n      0x00\n        /* \"#utility.yul\":9045:9047   */\n      0x20\n        /* \"#utility.yul\":9034:9043   */\n      dup3\n        /* \"#utility.yul\":9030:9048   */\n      add\n        /* \"#utility.yul\":9022:9048   */\n      swap1\n      pop\n        /* \"#utility.yul\":9058:9129   */\n      tag_222\n        /* \"#utility.yul\":9126:9127   */\n      0x00\n        /* \"#utility.yul\":9115:9124   */\n      dup4\n        /* \"#utility.yul\":9111:9128   */\n      add\n        /* \"#utility.yul\":9102:9108   */\n      dup5\n        /* \"#utility.yul\":9058:9129   */\n      tag_196\n      jump\t// in\n    tag_222:\n        /* \"#utility.yul\":8914:9136   */\n      swap3\n      swap2\n      pop\n      pop\n      jump\t// out\n        /* \"#utility.yul\":9142:9786   */\n    tag_63:\n        /* \"#utility.yul\":9339:9343   */\n      0x00\n        /* \"#utility.yul\":9377:9380   */\n      0x80\n        /* \"#utility.yul\":9366:9375   */\n      dup3\n        /* \"#utility.yul\":9362:9381   */\n      add\n        /* \"#utility.yul\":9354:9381   */\n      swap1\n      pop\n        /* \"#utility.yul\":9391:9462   */\n      tag_224\n        /* \"#utility.yul\":9459:9460   */\n      0x00\n        /* \"#utility.yul\":9448:9457   */\n      dup4\n        /* \"#utility.yul\":9444:9461   */\n      add\n        /* \"#utility.yul\":9435:9441   */\n      dup8\n        /* \"#utility.yul\":9391:9462   */\n      tag_196\n      jump\t// in\n    tag_224:\n        /* \"#utility.yul\":9472:9544   */\n      tag_225\n        /* \"#utility.yul\":9540:9542   */\n      0x20\n        /* \"#utility.yul\":9529:9538   */\n      dup4\n        /* \"#utility.yul\":9525:9543   */\n      add\n        /* \"#utility.yul\":9516:9522   */\n      dup7\n        /* \"#utility.yul\":9472:9544   */\n      tag_142\n      jump\t// in\n    tag_225:\n        /* \"#utility.yul\":9554:9626   */\n      tag_226\n        /* \"#utility.yul\":9622:9624   */\n      0x40\n        /* \"#utility.yul\":9611:9620   */\n      dup4\n        /* \"#utility.yul\":9607:9625   */\n      add\n        /* \"#utility.yul\":9598:9604   */\n      dup6\n        /* \"#utility.yul\":9554:9626   */\n      tag_196\n      jump\t// in\n    tag_226:\n        /* \"#utility.yul\":9673:9682   */\n      dup2\n        /* \"#utility.yul\":9667:9671   */\n      dup2\n        /* \"#utility.yul\":9663:9683   */\n      sub\n        /* \"#utility.yul\":9658:9660   */\n      0x60\n        /* \"#utility.yul\":9647:9656   */\n      dup4\n        /* \"#utility.yul\":9643:9661   */\n      add\n        /* \"#utility.yul\":9636:9684   */\n      mstore\n        /* \"#utility.yul\":9701:9779   */\n      tag_227\n        /* \"#utility.yul\":9774:9778   */\n      dup2\n        /* \"#utility.yul\":9765:9771   */\n      dup5\n        /* \"#utility.yul\":9701:9779   */\n      tag_155\n      jump\t// in\n    tag_227:\n        /* \"#utility.yul\":9693:9779   */\n      swap1\n      pop\n        /* \"#utility.yul\":9142:9786   */\n      swap6\n      swap5\n      pop\n      pop\n      pop\n      pop\n      pop\n      jump\t// out\n        /* \"#utility.yul\":9792:10757   */\n    tag_29:\n        /* \"#utility.yul\":10067:10071   */\n      0x00\n        /* \"#utility.yul\":10105:10108   */\n      0xe0\n        /* \"#utility.yul\":10094:10103   */\n      dup3\n        /* \"#utility.yul\":10090:10109   */\n      add\n        /* \"#utility.yul\":10082:10109   */\n      swap1\n      pop\n        /* \"#utility.yul\":10119:10190   */\n      tag_229\n        /* \"#utility.yul\":10187:10188   */\n      0x00\n        /* \"#utility.yul\":10176:10185   */\n      dup4\n        /* \"#utility.yul\":10172:10189   */\n      add\n        /* \"#utility.yul\":10163:10169   */\n      dup11\n        /* \"#utility.yul\":10119:10190   */\n      tag_196\n      jump\t// in\n    tag_229:\n        /* \"#utility.yul\":10200:10272   */\n      tag_230\n        /* \"#utility.yul\":10268:10270   */\n      0x20\n        /* \"#utility.yul\":10257:10266   */\n      dup4\n        /* \"#utility.yul\":10253:10271   */\n      add\n        /* \"#utility.yul\":10244:10250   */\n      dup10\n        /* \"#utility.yul\":10200:10272   */\n      tag_196\n      jump\t// in\n    tag_230:\n        /* \"#utility.yul\":10282:10354   */\n      tag_231\n        /* \"#utility.yul\":10350:10352   */\n      0x40\n        /* \"#utility.yul\":10339:10348   */\n      dup4\n        /* \"#utility.yul\":10335:10353   */\n      add\n        /* \"#utility.yul\":10326:10332   */\n      dup9\n        /* \"#utility.yul\":10282:10354   */\n      tag_196\n      jump\t// in\n    tag_231:\n        /* \"#utility.yul\":10364:10436   */\n      tag_232\n        /* \"#utility.yul\":10432:10434   */\n      0x60\n        /* \"#utility.yul\":10421:10430   */\n      dup4\n        /* \"#utility.yul\":10417:10435   */\n      add\n        /* \"#utility.yul\":10408:10414   */\n      dup8\n        /* \"#utility.yul\":10364:10436   */\n      tag_142\n      jump\t// in\n    tag_232:\n        /* \"#utility.yul\":10484:10493   */\n      dup2\n        /* \"#utility.yul\":10478:10482   */\n      dup2\n        /* \"#utility.yul\":10474:10494   */\n      sub\n        /* \"#utility.yul\":10468:10471   */\n      0x80\n        /* \"#utility.yul\":10457:10466   */\n      dup4\n        /* \"#utility.yul\":10453:10472   */\n      add\n        /* \"#utility.yul\":10446:10495   */\n      mstore\n        /* \"#utility.yul\":10512:10590   */\n      tag_233\n        /* \"#utility.yul\":10585:10589   */\n      dup2\n        /* \"#utility.yul\":10576:10582   */\n      dup7\n        /* \"#utility.yul\":10512:10590   */\n      tag_155\n      jump\t// in\n    tag_233:\n        /* \"#utility.yul\":10504:10590   */\n      swap1\n      pop\n        /* \"#utility.yul\":10600:10667   */\n      tag_234\n        /* \"#utility.yul\":10662:10665   */\n      0xa0\n        /* \"#utility.yul\":10651:10660   */\n      dup4\n        /* \"#utility.yul\":10647:10666   */\n      add\n        /* \"#utility.yul\":10638:10644   */\n      dup6\n        /* \"#utility.yul\":10600:10667   */\n      tag_151\n      jump\t// in\n    tag_234:\n        /* \"#utility.yul\":10677:10750   */\n      tag_235\n        /* \"#utility.yul\":10745:10748   */\n      0xc0\n        /* \"#utility.yul\":10734:10743   */\n      dup4\n        /* \"#utility.yul\":10730:10749   */\n      add\n        /* \"#utility.yul\":10721:10727   */\n      dup5\n        /* \"#utility.yul\":10677:10750   */\n      tag_196\n      jump\t// in\n    tag_235:\n        /* \"#utility.yul\":9792:10757   */\n      swap9\n      swap8\n      pop\n      pop\n      pop\n      pop\n      pop\n      pop\n      pop\n      pop\n      jump\t// out\n        /* \"#utility.yul\":10763:10892   */\n    tag_103:\n        /* \"#utility.yul\":10797:10803   */\n      0x00\n        /* \"#utility.yul\":10824:10844   */\n      tag_237\n      tag_238\n      jump\t// in\n    tag_237:\n        /* \"#utility.yul\":10814:10844   */\n      swap1\n      pop\n        /* \"#utility.yul\":10853:10886   */\n      tag_239\n        /* \"#utility.yul\":10881:10885   */\n      dup3\n        /* \"#utility.yul\":10873:10879   */\n      dup3\n        /* \"#utility.yul\":10853:10886   */\n      tag_240\n      jump\t// in\n    tag_239:\n        /* \"#utility.yul\":10763:10892   */\n      swap2\n      swap1\n      pop\n      jump\t// out\n        /* \"#utility.yul\":10898:10973   */\n    tag_238:\n        /* \"#utility.yul\":10931:10937   */\n      0x00\n        /* \"#utility.yul\":10964:10966   */\n      0x40\n        /* \"#utility.yul\":10958:10967   */\n      mload\n        /* \"#utility.yul\":10948:10967   */\n      swap1\n      pop\n        /* \"#utility.yul\":10898:10973   */\n      swap1\n      jump\t// out\n        /* \"#utility.yul\":10979:11287   */\n    tag_102:\n        /* \"#utility.yul\":11041:11045   */\n      0x00\n        /* \"#utility.yul\":11131:11149   */\n      0xffffffffffffffff\n        /* \"#utility.yul\":11123:11129   */\n      dup3\n        /* \"#utility.yul\":11120:11150   */\n      gt\n        /* \"#utility.yul\":11117:11173   */\n      iszero\n      tag_243\n      jumpi\n        /* \"#utility.yul\":11153:11171   */\n      tag_244\n      tag_245\n      jump\t// in\n    tag_244:\n        /* \"#utility.yul\":11117:11173   */\n    tag_243:\n        /* \"#utility.yul\":11191:11220   */\n      tag_246\n        /* \"#utility.yul\":11213:11219   */\n      dup3\n        /* \"#utility.yul\":11191:11220   */\n      tag_164\n      jump\t// in\n    tag_246:\n        /* \"#utility.yul\":11183:11220   */\n      swap1\n      pop\n        /* \"#utility.yul\":11275:11279   */\n      0x20\n        /* \"#utility.yul\":11269:11273   */\n      dup2\n        /* \"#utility.yul\":11265:11280   */\n      add\n        /* \"#utility.yul\":11257:11280   */\n      swap1\n      pop\n        /* \"#utility.yul\":10979:11287   */\n      swap2\n      swap1\n      pop\n      jump\t// out\n        /* \"#utility.yul\":11293:11392   */\n    tag_158:\n        /* \"#utility.yul\":11345:11351   */\n      0x00\n        /* \"#utility.yul\":11379:11384   */\n      dup2\n        /* \"#utility.yul\":11373:11385   */\n      mload\n        /* \"#utility.yul\":11363:11385   */\n      swap1\n      pop\n        /* \"#utility.yul\":11293:11392   */\n      swap2\n      swap1\n      pop\n      jump\t// out\n        /* \"#utility.yul\":11398:11567   */\n    tag_160:\n        /* \"#utility.yul\":11482:11493   */\n      0x00\n        /* \"#utility.yul\":11516:11522   */\n      dup3\n        /* \"#utility.yul\":11511:11514   */\n      dup3\n        /* \"#utility.yul\":11504:11523   */\n      mstore\n        /* \"#utility.yul\":11556:11560   */\n      0x20\n        /* \"#utility.yul\":11551:11554   */\n      dup3\n        /* \"#utility.yul\":11547:11561   */\n      add\n        /* \"#utility.yul\":11532:11561   */\n      swap1\n      pop\n        /* \"#utility.yul\":11398:11567   */\n      swap3\n      swap2\n      pop\n      pop\n      jump\t// out\n        /* \"#utility.yul\":11573:11721   */\n    tag_169:\n        /* \"#utility.yul\":11675:11686   */\n      0x00\n        /* \"#utility.yul\":11712:11715   */\n      dup2\n        /* \"#utility.yul\":11697:11715   */\n      swap1\n      pop\n        /* \"#utility.yul\":11573:11721   */\n      swap3\n      swap2\n      pop\n      pop\n      jump\t// out\n        /* \"#utility.yul\":11727:12075   */\n    tag_51:\n        /* \"#utility.yul\":11767:11774   */\n      0x00\n        /* \"#utility.yul\":11790:11810   */\n      tag_251\n        /* \"#utility.yul\":11808:11809   */\n      dup3\n        /* \"#utility.yul\":11790:11810   */\n      tag_199\n      jump\t// in\n    tag_251:\n        /* \"#utility.yul\":11785:11810   */\n      swap2\n      pop\n        /* \"#utility.yul\":11824:11844   */\n      tag_252\n        /* \"#utility.yul\":11842:11843   */\n      dup4\n        /* \"#utility.yul\":11824:11844   */\n      tag_199\n      jump\t// in\n    tag_252:\n        /* \"#utility.yul\":11819:11844   */\n      swap3\n      pop\n        /* \"#utility.yul\":12012:12013   */\n      dup2\n        /* \"#utility.yul\":11944:12010   */\n      0xffffffffffffffffffffffffffffffffffffffffffffffffffffffffffffffff\n        /* \"#utility.yul\":11940:12014   */\n      div\n        /* \"#utility.yul\":11937:11938   */\n      dup4\n        /* \"#utility.yul\":11934:12015   */\n      gt\n        /* \"#utility.yul\":11929:11930   */\n      dup3\n        /* \"#utility.yul\":11922:11931   */\n      iszero\n        /* \"#utility.yul\":11915:11932   */\n      iszero\n        /* \"#utility.yul\":11911:12016   */\n      and\n        /* \"#utility.yul\":11908:12039   */\n      iszero\n      tag_253\n      jumpi\n        /* \"#utility.yul\":12019:12037   */\n      tag_254\n      tag_255\n      jump\t// in\n    tag_254:\n        /* \"#utility.yul\":11908:12039   */\n    tag_253:\n        /* \"#utility.yul\":12067:12068   */\n      dup3\n        /* \"#utility.yul\":12064:12065   */\n      dup3\n        /* \"#utility.yul\":12060:12069   */\n      mul\n        /* \"#utility.yul\":12049:12069   */\n      swap1\n      pop\n        /* \"#utility.yul\":11727:12075   */\n      swap3\n      swap2\n      pop\n      pop\n      jump\t// out\n        /* \"#utility.yul\":12081:12177   */\n    tag_145:\n        /* \"#utility.yul\":12118:12125   */\n      0x00\n        /* \"#utility.yul\":12147:12171   */\n      tag_257\n        /* \"#utility.yul\":12165:12170   */\n      dup3\n        /* \"#utility.yul\":12147:12171   */\n      tag_258\n      jump\t// in\n    tag_257:\n        /* \"#utility.yul\":12136:12171   */\n      swap1\n      pop\n        /* \"#utility.yul\":12081:12177   */\n      swap2\n      swap1\n      pop\n      jump\t// out\n        /* \"#utility.yul\":12183:12273   */\n    tag_154:\n        /* \"#utility.yul\":12217:12224   */\n      0x00\n        /* \"#utility.yul\":12260:12265   */\n      dup2\n        /* \"#utility.yul\":12253:12266   */\n      iszero\n        /* \"#utility.yul\":12246:12267   */\n      iszero\n        /* \"#utility.yul\":12235:12267   */\n      swap1\n      pop\n        /* \"#utility.yul\":12183:12273   */\n      swap2\n      swap1\n      pop\n      jump\t// out\n        /* \"#utility.yul\":12279:12405   */\n    tag_258:\n        /* \"#utility.yul\":12316:12323   */\n      0x00\n        /* \"#utility.yul\":12356:12398   */\n      0xffffffffffffffffffffffffffffffffffffffff\n        /* \"#utility.yul\":12349:12354   */\n      dup3\n        /* \"#utility.yul\":12345:12399   */\n      and\n        /* \"#utility.yul\":12334:12399   */\n      swap1\n      pop\n        /* \"#utility.yul\":12279:12405   */\n      swap2\n      swap1\n      pop\n      jump\t// out\n        /* \"#utility.yul\":12411:12488   */\n    tag_199:\n        /* \"#utility.yul\":12448:12455   */\n      0x00\n        /* \"#utility.yul\":12477:12482   */\n      dup2\n        /* \"#utility.yul\":12466:12482   */\n      swap1\n      pop\n        /* \"#utility.yul\":12411:12488   */\n      swap2\n      swap1\n      pop\n      jump\t// out\n        /* \"#utility.yul\":12494:12648   */\n    tag_108:\n        /* \"#utility.yul\":12578:12584   */\n      dup3\n        /* \"#utility.yul\":12573:12576   */\n      dup2\n        /* \"#utility.yul\":12568:12571   */\n      dup4\n        /* \"#utility.yul\":12555:12585   */\n      calldatacopy\n        /* \"#utility.yul\":12640:12641   */\n      0x00\n        /* \"#utility.yul\":12631:12637   */\n      dup4\n        /* \"#utility.yul\":12626:12629   */\n      dup4\n        /* \"#utility.yul\":12622:12638   */\n      add\n        /* \"#utility.yul\":12615:12642   */\n      mstore\n        /* \"#utility.yul\":12494:12648   */\n      pop\n      pop\n      pop\n      jump\t// out\n        /* \"#utility.yul\":12654:12961   */\n    tag_162:\n        /* \"#utility.yul\":12722:12723   */\n      0x00\n        /* \"#utility.yul\":12732:12845   */\n    tag_264:\n        /* \"#utility.yul\":12746:12752   */\n      dup4\n        /* \"#utility.yul\":12743:12744   */\n      dup2\n        /* \"#utility.yul\":12740:12753   */\n      lt\n        /* \"#utility.yul\":12732:12845   */\n      iszero\n      tag_266\n      jumpi\n        /* \"#utility.yul\":12831:12832   */\n      dup1\n        /* \"#utility.yul\":12826:12829   */\n      dup3\n        /* \"#utility.yul\":12822:12833   */\n      add\n        /* \"#utility.yul\":12816:12834   */\n      mload\n        /* \"#utility.yul\":12812:12813   */\n      dup2\n        /* \"#utility.yul\":12807:12810   */\n      dup5\n        /* \"#utility.yul\":12803:12814   */\n      add\n        /* \"#utility.yul\":12796:12835   */\n      mstore\n        /* \"#utility.yul\":12768:12770   */\n      0x20\n        /* \"#utility.yul\":12765:12766   */\n      dup2\n        /* \"#utility.yul\":12761:12771   */\n      add\n        /* \"#utility.yul\":12756:12771   */\n      swap1\n      pop\n        /* \"#utility.yul\":12732:12845   */\n      jump(tag_264)\n    tag_266:\n        /* \"#utility.yul\":12863:12869   */\n      dup4\n        /* \"#utility.yul\":12860:12861   */\n      dup2\n        /* \"#utility.yul\":12857:12870   */\n      gt\n        /* \"#utility.yul\":12854:12955   */\n      iszero\n      tag_267\n      jumpi\n        /* \"#utility.yul\":12943:12944   */\n      0x00\n        /* \"#utility.yul\":12934:12940   */\n      dup5\n        /* \"#utility.yul\":12929:12932   */\n      dup5\n        /* \"#utility.yul\":12925:12941   */\n      add\n        /* \"#utility.yul\":12918:12945   */\n      mstore\n        /* \"#utility.yul\":12854:12955   */\n    tag_267:\n        /* \"#utility.yul\":12703:12961   */\n      pop\n        /* \"#utility.yul\":12654:12961   */\n      pop\n      pop\n      pop\n      jump\t// out\n        /* \"#utility.yul\":12967:13287   */\n    tag_65:\n        /* \"#utility.yul\":13011:13017   */\n      0x00\n        /* \"#utility.yul\":13048:13049   */\n      0x02\n        /* \"#utility.yul\":13042:13046   */\n      dup3\n        /* \"#utility.yul\":13038:13050   */\n      div\n        /* \"#utility.yul\":13028:13050   */\n      swap1\n      pop\n        /* \"#utility.yul\":13095:13096   */\n      0x01\n        /* \"#utility.yul\":13089:13093   */\n      dup3\n        /* \"#utility.yul\":13085:13097   */\n      and\n        /* \"#utility.yul\":13116:13134   */\n      dup1\n        /* \"#utility.yul\":13106:13187   */\n      tag_269\n      jumpi\n        /* \"#utility.yul\":13172:13176   */\n      0x7f\n        /* \"#utility.yul\":13164:13170   */\n      dup3\n        /* \"#utility.yul\":13160:13177   */\n      and\n        /* \"#utility.yul\":13150:13177   */\n      swap2\n      pop\n        /* \"#utility.yul\":13106:13187   */\n    tag_269:\n        /* \"#utility.yul\":13234:13236   */\n      0x20\n        /* \"#utility.yul\":13226:13232   */\n      dup3\n        /* \"#utility.yul\":13223:13237   */\n      lt\n        /* \"#utility.yul\":13203:13221   */\n      dup2\n        /* \"#utility.yul\":13200:13238   */\n      eq\n        /* \"#utility.yul\":13197:13281   */\n      iszero\n      tag_270\n      jumpi\n        /* \"#utility.yul\":13253:13271   */\n      tag_271\n      tag_272\n      jump\t// in\n    tag_271:\n        /* \"#utility.yul\":13197:13281   */\n    tag_270:\n        /* \"#utility.yul\":13018:13287   */\n      pop\n        /* \"#utility.yul\":12967:13287   */\n      swap2\n      swap1\n      pop\n      jump\t// out\n        /* \"#utility.yul\":13293:13574   */\n    tag_240:\n        /* \"#utility.yul\":13376:13403   */\n      tag_274\n        /* \"#utility.yul\":13398:13402   */\n      dup3\n        /* \"#utility.yul\":13376:13403   */\n      tag_164\n      jump\t// in\n    tag_274:\n        /* \"#utility.yul\":13368:13374   */\n      dup2\n        /* \"#utility.yul\":13364:13404   */\n      add\n        /* \"#utility.yul\":13506:13512   */\n      dup2\n        /* \"#utility.yul\":13494:13504   */\n      dup2\n        /* \"#utility.yul\":13491:13513   */\n      lt\n        /* \"#utility.yul\":13470:13488   */\n      0xffffffffffffffff\n        /* \"#utility.yul\":13458:13468   */\n      dup3\n        /* \"#utility.yul\":13455:13489   */\n      gt\n        /* \"#utility.yul\":13452:13514   */\n      or\n        /* \"#utility.yul\":13449:13537   */\n      iszero\n      tag_275\n      jumpi\n        /* \"#utility.yul\":13517:13535   */\n      tag_276\n      tag_245\n      jump\t// in\n    tag_276:\n        /* \"#utility.yul\":13449:13537   */\n    tag_275:\n        /* \"#utility.yul\":13557:13567   */\n      dup1\n        /* \"#utility.yul\":13553:13555   */\n      0x40\n        /* \"#utility.yul\":13546:13568   */\n      mstore\n        /* \"#utility.yul\":13336:13574   */\n      pop\n        /* \"#utility.yul\":13293:13574   */\n      pop\n      pop\n      jump\t// out\n        /* \"#utility.yul\":13580:13680   */\n    tag_150:\n        /* \"#utility.yul\":13619:13626   */\n      0x00\n        /* \"#utility.yul\":13648:13674   */\n      tag_278\n        /* \"#utility.yul\":13668:13673   */\n      dup3\n        /* \"#utility.yul\":13648:13674   */\n      tag_279\n      jump\t// in\n    tag_278:\n        /* \"#utility.yul\":13637:13674   */\n      swap1\n      pop\n        /* \"#utility.yul\":13580:13680   */\n      swap2\n      swap1\n      pop\n      jump\t// out\n        /* \"#utility.yul\":13686:13780   */\n    tag_279:\n        /* \"#utility.yul\":13725:13732   */\n      0x00\n        /* \"#utility.yul\":13754:13774   */\n      tag_281\n        /* \"#utility.yul\":13768:13773   */\n      dup3\n        /* \"#utility.yul\":13754:13774   */\n      tag_282\n      jump\t// in\n    tag_281:\n        /* \"#utility.yul\":13743:13774   */\n      swap1\n      pop\n        /* \"#utility.yul\":13686:13780   */\n      swap2\n      swap1\n      pop\n      jump\t// out\n        /* \"#utility.yul\":13786:13865   */\n    tag_204:\n        /* \"#utility.yul\":13825:13832   */\n      0x00\n        /* \"#utility.yul\":13854:13859   */\n      dup2\n        /* \"#utility.yul\":13843:13859   */\n      swap1\n      pop\n        /* \"#utility.yul\":13786:13865   */\n      swap2\n      swap1\n      pop\n      jump\t// out\n        /* \"#utility.yul\":13871:14047   */\n    tag_86:\n        /* \"#utility.yul\":13903:13904   */\n      0x00\n        /* \"#utility.yul\":13920:13940   */\n      tag_285\n        /* \"#utility.yul\":13938:13939   */\n      dup3\n        /* \"#utility.yul\":13920:13940   */\n      tag_199\n      jump\t// in\n    tag_285:\n        /* \"#utility.yul\":13915:13940   */\n      swap2\n      pop\n        /* \"#utility.yul\":13954:13974   */\n      tag_286\n        /* \"#utility.yul\":13972:13973   */\n      dup4\n        /* \"#utility.yul\":13954:13974   */\n      tag_199\n      jump\t// in\n    tag_286:\n        /* \"#utility.yul\":13949:13974   */\n      swap3\n      pop\n        /* \"#utility.yul\":13993:13994   */\n      dup3\n        /* \"#utility.yul\":13983:14018   */\n      tag_287\n      jumpi\n        /* \"#utility.yul\":13998:14016   */\n      tag_288\n      tag_289\n      jump\t// in\n    tag_288:\n        /* \"#utility.yul\":13983:14018   */\n    tag_287:\n        /* \"#utility.yul\":14039:14040   */\n      dup3\n        /* \"#utility.yul\":14036:14037   */\n      dup3\n        /* \"#utility.yul\":14032:14041   */\n      mod\n        /* \"#utility.yul\":14027:14041   */\n      swap1\n      pop\n        /* \"#utility.yul\":13871:14047   */\n      swap3\n      swap2\n      pop\n      pop\n      jump\t// out\n        /* \"#utility.yul\":14053:14233   */\n    tag_255:\n        /* \"#utility.yul\":14101:14178   */\n      0x4e487b7100000000000000000000000000000000000000000000000000000000\n        /* \"#utility.yul\":14098:14099   */\n      0x00\n        /* \"#utility.yul\":14091:14179   */\n      mstore\n        /* \"#utility.yul\":14198:14202   */\n      0x11\n        /* \"#utility.yul\":14195:14196   */\n      0x04\n        /* \"#utility.yul\":14188:14203   */\n      mstore\n        /* \"#utility.yul\":14222:14226   */\n      0x24\n        /* \"#utility.yul\":14219:14220   */\n      0x00\n        /* \"#utility.yul\":14212:14227   */\n      revert\n        /* \"#utility.yul\":14239:14419   */\n    tag_289:\n        /* \"#utility.yul\":14287:14364   */\n      0x4e487b7100000000000000000000000000000000000000000000000000000000\n        /* \"#utility.yul\":14284:14285   */\n      0x00\n        /* \"#utility.yul\":14277:14365   */\n      mstore\n        /* \"#utility.yul\":14384:14388   */\n      0x12\n        /* \"#utility.yul\":14381:14382   */\n      0x04\n        /* \"#utility.yul\":14374:14389   */\n      mstore\n        /* \"#utility.yul\":14408:14412   */\n      0x24\n        /* \"#utility.yul\":14405:14406   */\n      0x00\n        /* \"#utility.yul\":14398:14413   */\n      revert\n        /* \"#utility.yul\":14425:14605   */\n    tag_272:\n        /* \"#utility.yul\":14473:14550   */\n      0x4e487b7100000000000000000000000000000000000000000000000000000000\n        /* \"#utility.yul\":14470:14471   */\n      0x00\n        /* \"#utility.yul\":14463:14551   */\n      mstore\n        /* \"#utility.yul\":14570:14574   */\n      0x22\n        /* \"#utility.yul\":14567:14568   */\n      0x04\n        /* \"#utility.yul\":14560:14575   */\n      mstore\n        /* \"#utility.yul\":14594:14598   */\n      0x24\n        /* \"#utility.yul\":14591:14592   */\n      0x00\n        /* \"#utility.yul\":14584:14599   */\n      revert\n        /* \"#utility.yul\":14611:14791   */\n    tag_245:\n        /* \"#utility.yul\":14659:14736   */\n      0x4e487b7100000000000000000000000000000000000000000000000000000000\n        /* \"#utility.yul\":14656:14657   */\n      0x00\n        /* \"#utility.yul\":14649:14737   */\n      mstore\n        /* \"#utility.yul\":14756:14760   */\n      0x41\n        /* \"#utility.yul\":14753:14754   */\n      0x04\n        /* \"#utility.yul\":14746:14761   */\n      mstore\n        /* \"#utility.yul\":14780:14784   */\n      0x24\n        /* \"#utility.yul\":14777:14778   */\n      0x00\n        /* \"#utility.yul\":14770:14785   */\n      revert\n        /* \"#utility.yul\":14797:14914   */\n    tag_117:\n        /* \"#utility.yul\":14906:14907   */\n      0x00\n        /* \"#utility.yul\":14903:14904   */\n      dup1\n        /* \"#utility.yul\":14896:14908   */\n      revert\n        /* \"#utility.yul\":14920:15037   */\n    tag_106:\n        /* \"#utility.yul\":15029:15030   */\n      0x00\n        /* \"#utility.yul\":15026:15027   */\n      dup1\n        /* \"#utility.yul\":15019:15031   */\n      revert\n        /* \"#utility.yul\":15043:15160   */\n    tag_140:\n        /* \"#utility.yul\":15152:15153   */\n      0x00\n        /* \"#utility.yul\":15149:15150   */\n      dup1\n        /* \"#utility.yul\":15142:15154   */\n      revert\n        /* \"#utility.yul\":15166:15283   */\n    tag_126:\n        /* \"#utility.yul\":15275:15276   */\n      0x00\n        /* \"#utility.yul\":15272:15273   */\n      dup1\n        /* \"#utility.yul\":15265:15277   */\n      revert\n        /* \"#utility.yul\":15289:15391   */\n    tag_164:\n        /* \"#utility.yul\":15330:15336   */\n      0x00\n        /* \"#utility.yul\":15381:15383   */\n      0x1f\n        /* \"#utility.yul\":15377:15384   */\n      not\n        /* \"#utility.yul\":15372:15374   */\n      0x1f\n        /* \"#utility.yul\":15365:15370   */\n      dup4\n        /* \"#utility.yul\":15361:15375   */\n      add\n        /* \"#utility.yul\":15357:15385   */\n      and\n        /* \"#utility.yul\":15347:15385   */\n      swap1\n      pop\n        /* \"#utility.yul\":15289:15391   */\n      swap2\n      swap1\n      pop\n      jump\t// out\n        /* \"#utility.yul\":15397:15491   */\n    tag_282:\n        /* \"#utility.yul\":15430:15438   */\n      0x00\n        /* \"#utility.yul\":15478:15483   */\n      dup2\n        /* \"#utility.yul\":15474:15476   */\n      0x60\n        /* \"#utility.yul\":15470:15484   */\n      shl\n        /* \"#utility.yul\":15449:15484   */\n      swap1\n      pop\n        /* \"#utility.yul\":15397:15491   */\n      swap2\n      swap1\n      pop\n      jump\t// out\n        /* \"#utility.yul\":15497:15722   */\n    tag_175:\n        /* \"#utility.yul\":15637:15671   */\n      0x4f776e61626c653a206e6577206f776e657220697320746865207a65726f2061\n        /* \"#utility.yul\":15633:15634   */\n      0x00\n        /* \"#utility.yul\":15625:15631   */\n      dup3\n        /* \"#utility.yul\":15621:15635   */\n      add\n        /* \"#utility.yul\":15614:15672   */\n      mstore\n        /* \"#utility.yul\":15706:15714   */\n      0x6464726573730000000000000000000000000000000000000000000000000000\n        /* \"#utility.yul\":15701:15703   */\n      0x20\n        /* \"#utility.yul\":15693:15699   */\n      dup3\n        /* \"#utility.yul\":15689:15704   */\n      add\n        /* \"#utility.yul\":15682:15715   */\n      mstore\n        /* \"#utility.yul\":15497:15722   */\n      pop\n      jump\t// out\n        /* \"#utility.yul\":15728:15898   */\n    tag_180:\n        /* \"#utility.yul\":15868:15890   */\n      0x76616c75652063616e6e6f74206265206e756c6c000000000000000000000000\n        /* \"#utility.yul\":15864:15865   */\n      0x00\n        /* \"#utility.yul\":15856:15862   */\n      dup3\n        /* \"#utility.yul\":15852:15866   */\n      add\n        /* \"#utility.yul\":15845:15891   */\n      mstore\n        /* \"#utility.yul\":15728:15898   */\n      pop\n      jump\t// out\n        /* \"#utility.yul\":15904:16086   */\n    tag_185:\n        /* \"#utility.yul\":16044:16078   */\n      0x4f776e61626c653a2063616c6c6572206973206e6f7420746865206f776e6572\n        /* \"#utility.yul\":16040:16041   */\n      0x00\n        /* \"#utility.yul\":16032:16038   */\n      dup3\n        /* \"#utility.yul\":16028:16042   */\n      add\n        /* \"#utility.yul\":16021:16079   */\n      mstore\n        /* \"#utility.yul\":15904:16086   */\n      pop\n      jump\t// out\n        /* \"#utility.yul\":16092:16269   */\n    tag_190:\n        /* \"#utility.yul\":16232:16261   */\n      0x7468697320686f757365496420616c7265616479206578697374730000000000\n        /* \"#utility.yul\":16228:16229   */\n      0x00\n        /* \"#utility.yul\":16220:16226   */\n      dup3\n        /* \"#utility.yul\":16216:16230   */\n      add\n        /* \"#utility.yul\":16209:16262   */\n      mstore\n        /* \"#utility.yul\":16092:16269   */\n      pop\n      jump\t// out\n        /* \"#utility.yul\":16275:16505   */\n    tag_195:\n        /* \"#utility.yul\":16415:16449   */\n      0x596f7520646f206e6f7420686176652061636365737320746f2064656c657465\n        /* \"#utility.yul\":16411:16412   */\n      0x00\n        /* \"#utility.yul\":16403:16409   */\n      dup3\n        /* \"#utility.yul\":16399:16413   */\n      add\n        /* \"#utility.yul\":16392:16450   */\n      mstore\n        /* \"#utility.yul\":16484:16497   */\n      0x207468697320686f757365000000000000000000000000000000000000000000\n        /* \"#utility.yul\":16479:16481   */\n      0x20\n        /* \"#utility.yul\":16471:16477   */\n      dup3\n        /* \"#utility.yul\":16467:16482   */\n      add\n        /* \"#utility.yul\":16460:16498   */\n      mstore\n        /* \"#utility.yul\":16275:16505   */\n      pop\n      jump\t// out\n        /* \"#utility.yul\":16511:16633   */\n    tag_112:\n        /* \"#utility.yul\":16584:16608   */\n      tag_306\n        /* \"#utility.yul\":16602:16607   */\n      dup2\n        /* \"#utility.yul\":16584:16608   */\n      tag_145\n      jump\t// in\n    tag_306:\n        /* \"#utility.yul\":16577:16582   */\n      dup2\n        /* \"#utility.yul\":16574:16609   */\n      eq\n        /* \"#utility.yul\":16564:16627   */\n      tag_307\n      jumpi\n        /* \"#utility.yul\":16623:16624   */\n      0x00\n        /* \"#utility.yul\":16620:16621   */\n      dup1\n        /* \"#utility.yul\":16613:16625   */\n      revert\n        /* \"#utility.yul\":16564:16627   */\n    tag_307:\n        /* \"#utility.yul\":16511:16633   */\n      pop\n      jump\t// out\n        /* \"#utility.yul\":16639:16761   */\n    tag_122:\n        /* \"#utility.yul\":16712:16736   */\n      tag_309\n        /* \"#utility.yul\":16730:16735   */\n      dup2\n        /* \"#utility.yul\":16712:16736   */\n      tag_199\n      jump\t// in\n    tag_309:\n        /* \"#utility.yul\":16705:16710   */\n      dup2\n        /* \"#utility.yul\":16702:16737   */\n      eq\n        /* \"#utility.yul\":16692:16755   */\n      tag_310\n      jumpi\n        /* \"#utility.yul\":16751:16752   */\n      0x00\n        /* \"#utility.yul\":16748:16749   */\n      dup1\n        /* \"#utility.yul\":16741:16753   */\n      revert\n        /* \"#utility.yul\":16692:16755   */\n    tag_310:\n        /* \"#utility.yul\":16639:16761   */\n      pop\n      jump\t// out\n\n    auxdata: 0xa26469706673582212204493c903ded4b360b2455eacfd84d9402b155030e67ba150affaac0000971b6064736f6c63430008070033\n}\n",
				"bytecode": {
					"linkReferences": {},
					"object": "60806040526005600155600154600a6200001a91906200017f565b600255620151806003553480156200003157600080fd5b5062000052620000466200005860201b60201c565b6200006060201b60201c565b62000302565b600033905090565b60008060009054906101000a900473ffffffffffffffffffffffffffffffffffffffff169050816000806101000a81548173ffffffffffffffffffffffffffffffffffffffff021916908373ffffffffffffffffffffffffffffffffffffffff1602179055508173ffffffffffffffffffffffffffffffffffffffff168173ffffffffffffffffffffffffffffffffffffffff167f8be0079c531659141344cd1fd0a4f28419497f9722a3daafe3b4186f6b6457e060405160405180910390a35050565b6000808291508390505b600185111562000176578086048111156200014e576200014d620002c6565b5b60018516156200015e5780820291505b80810290506200016e85620002f5565b94506200012e565b94509492505050565b60006200018c82620002bc565b91506200019983620002bc565b9250620001c87fffffffffffffffffffffffffffffffffffffffffffffffffffffffffffffffff8484620001d0565b905092915050565b600082620001e25760019050620002b5565b81620001f25760009050620002b5565b81600181146200020b576002811462000216576200024c565b6001915050620002b5565b60ff8411156200022b576200022a620002c6565b5b8360020a915084821115620002455762000244620002c6565b5b50620002b5565b5060208310610133831016604e8410600b8410161715620002865782820a90508381111562000280576200027f620002c6565b5b620002b5565b62000295848484600162000124565b92509050818404811115620002af57620002ae620002c6565b5b81810290505b9392505050565b6000819050919050565b7f4e487b7100000000000000000000000000000000000000000000000000000000600052601160045260246000fd5b60008160011c9050919050565b6111b580620003126000396000f3fe608060405234801561001057600080fd5b50600436106100625760003560e01c80633c3b0b4a14610067578063715018a6146100835780638da5cb5b1461008d57806391bfe0d4146100ab578063aeda852f146100db578063f2fde38b14610111575b600080fd5b610081600480360381019061007c9190610932565b61012d565b005b61008b610203565b005b61009561028b565b6040516100a29190610b8f565b60405180910390f35b6100c560048036038101906100c0919061095f565b6102b4565b6040516100d29190610c4a565b60405180910390f35b6100f560048036038101906100f09190610932565b6104c2565b6040516101089796959493929190610cb1565b60405180910390f35b61012b60048036038101906101269190610905565b6105b9565b005b3373ffffffffffffffffffffffffffffffffffffffff166004600083815260200190815260200160002060030160009054906101000a900473ffffffffffffffffffffffffffffffffffffffff1673ffffffffffffffffffffffffffffffffffffffff16146101d1576040517f08c379a00000000000000000000000000000000000000000000000000000000081526004016101c890610c2a565b60405180910390fd5b60016004600083815260200190815260200160002060050160006101000a81548160ff02191690831515021790555050565b61020b6106b1565b73ffffffffffffffffffffffffffffffffffffffff1661022961028b565b73ffffffffffffffffffffffffffffffffffffffff161461027f576040517f08c379a000000000000000000000000000000000000000000000000000000000815260040161027690610bea565b60405180910390fd5b61028960006106b9565b565b60008060009054906101000a900473ffffffffffffffffffffffffffffffffffffffff16905090565b60008084866102c39190610da4565b11610303576040517f08c379a00000000000000000000000000000000000000000000000000000000081526004016102fa90610bca565b60405180910390fd5b600061031084868561077d565b9050600460008281526020019081526020016000206000015481141561036b576040517f08c379a000000000000000000000000000000000000000000000000000000000815260040161036290610c0a565b60405180910390fd5b6040518060e001604052808281526020018781526020018681526020018573ffffffffffffffffffffffffffffffffffffffff168152602001848152602001600015158152602001428152506004600083815260200190815260200160002060008201518160000155602082015181600101556040820151816002015560608201518160030160006101000a81548173ffffffffffffffffffffffffffffffffffffffff021916908373ffffffffffffffffffffffffffffffffffffffff160217905550608082015181600401908051906020019061044b9291906107c8565b5060a08201518160050160006101000a81548160ff02191690831515021790555060c082015181600601559050507f8f5afd88eb4be0ac287d87970052ce9a2b453448408e3c91a695ad7509ab7194818588866040516104ae9493929190610c65565b60405180910390a180915050949350505050565b60046020528060005260406000206000915090508060000154908060010154908060020154908060030160009054906101000a900473ffffffffffffffffffffffffffffffffffffffff169080600401805461051d90610e88565b80601f016020809104026020016040519081016040528092919081815260200182805461054990610e88565b80156105965780601f1061056b57610100808354040283529160200191610596565b820191906000526020600020905b81548152906001019060200180831161057957829003601f168201915b5050505050908060050160009054906101000a900460ff16908060060154905087565b6105c16106b1565b73ffffffffffffffffffffffffffffffffffffffff166105df61028b565b73ffffffffffffffffffffffffffffffffffffffff1614610635576040517f08c379a000000000000000000000000000000000000000000000000000000000815260040161062c90610bea565b60405180910390fd5b600073ffffffffffffffffffffffffffffffffffffffff168173ffffffffffffffffffffffffffffffffffffffff1614156106a5576040517f08c379a000000000000000000000000000000000000000000000000000000000815260040161069c90610baa565b60405180910390fd5b6106ae816106b9565b50565b600033905090565b60008060009054906101000a900473ffffffffffffffffffffffffffffffffffffffff169050816000806101000a81548173ffffffffffffffffffffffffffffffffffffffff021916908373ffffffffffffffffffffffffffffffffffffffff1602179055508173ffffffffffffffffffffffffffffffffffffffff168173ffffffffffffffffffffffffffffffffffffffff167f8be0079c531659141344cd1fd0a4f28419497f9722a3daafe3b4186f6b6457e060405160405180910390a35050565b60008084848460405160200161079593929190610b56565b6040516020818303038152906040528051906020012060001c9050600254816107be9190610f19565b9150509392505050565b8280546107d490610e88565b90600052602060002090601f0160209004810192826107f6576000855561083d565b82601f1061080f57805160ff191683800117855561083d565b8280016001018555821561083d579182015b8281111561083c578251825591602001919060010190610821565b5b50905061084a919061084e565b5090565b5b8082111561086757600081600090555060010161084f565b5090565b600061087e61087984610d4c565b610d27565b90508281526020810184848401111561089a5761089961100b565b5b6108a5848285610e46565b509392505050565b6000813590506108bc81611151565b92915050565b600082601f8301126108d7576108d6611006565b5b81356108e784826020860161086b565b91505092915050565b6000813590506108ff81611168565b92915050565b60006020828403121561091b5761091a611015565b5b6000610929848285016108ad565b91505092915050565b60006020828403121561094857610947611015565b5b6000610956848285016108f0565b91505092915050565b6000806000806080858703121561097957610978611015565b5b6000610987878288016108f0565b9450506020610998878288016108f0565b93505060406109a9878288016108ad565b925050606085013567ffffffffffffffff8111156109ca576109c9611010565b5b6109d6878288016108c2565b91505092959194509250565b6109eb81610dfe565b82525050565b610a026109fd82610dfe565b610eeb565b82525050565b610a1181610e10565b82525050565b6000610a2282610d7d565b610a2c8185610d88565b9350610a3c818560208601610e55565b610a458161101a565b840191505092915050565b6000610a5b82610d7d565b610a658185610d99565b9350610a75818560208601610e55565b80840191505092915050565b6000610a8e602683610d88565b9150610a9982611038565b604082019050919050565b6000610ab1601483610d88565b9150610abc82611087565b602082019050919050565b6000610ad4602083610d88565b9150610adf826110b0565b602082019050919050565b6000610af7601b83610d88565b9150610b02826110d9565b602082019050919050565b6000610b1a602b83610d88565b9150610b2582611102565b604082019050919050565b610b3981610e3c565b82525050565b610b50610b4b82610e3c565b610f0f565b82525050565b6000610b6282866109f1565b601482019150610b728285610b3f565b602082019150610b828284610a50565b9150819050949350505050565b6000602082019050610ba460008301846109e2565b92915050565b60006020820190508181036000830152610bc381610a81565b9050919050565b60006020820190508181036000830152610be381610aa4565b9050919050565b60006020820190508181036000830152610c0381610ac7565b9050919050565b60006020820190508181036000830152610c2381610aea565b9050919050565b60006020820190508181036000830152610c4381610b0d565b9050919050565b6000602082019050610c5f6000830184610b30565b92915050565b6000608082019050610c7a6000830187610b30565b610c8760208301866109e2565b610c946040830185610b30565b8181036060830152610ca68184610a17565b905095945050505050565b600060e082019050610cc6600083018a610b30565b610cd36020830189610b30565b610ce06040830188610b30565b610ced60608301876109e2565b8181036080830152610cff8186610a17565b9050610d0e60a0830185610a08565b610d1b60c0830184610b30565b98975050505050505050565b6000610d31610d42565b9050610d3d8282610eba565b919050565b6000604051905090565b600067ffffffffffffffff821115610d6757610d66610fd7565b5b610d708261101a565b9050602081019050919050565b600081519050919050565b600082825260208201905092915050565b600081905092915050565b6000610daf82610e3c565b9150610dba83610e3c565b9250817fffffffffffffffffffffffffffffffffffffffffffffffffffffffffffffffff0483118215151615610df357610df2610f4a565b5b828202905092915050565b6000610e0982610e1c565b9050919050565b60008115159050919050565b600073ffffffffffffffffffffffffffffffffffffffff82169050919050565b6000819050919050565b82818337600083830152505050565b60005b83811015610e73578082015181840152602081019050610e58565b83811115610e82576000848401525b50505050565b60006002820490506001821680610ea057607f821691505b60208210811415610eb457610eb3610fa8565b5b50919050565b610ec38261101a565b810181811067ffffffffffffffff82111715610ee257610ee1610fd7565b5b80604052505050565b6000610ef682610efd565b9050919050565b6000610f088261102b565b9050919050565b6000819050919050565b6000610f2482610e3c565b9150610f2f83610e3c565b925082610f3f57610f3e610f79565b5b828206905092915050565b7f4e487b7100000000000000000000000000000000000000000000000000000000600052601160045260246000fd5b7f4e487b7100000000000000000000000000000000000000000000000000000000600052601260045260246000fd5b7f4e487b7100000000000000000000000000000000000000000000000000000000600052602260045260246000fd5b7f4e487b7100000000000000000000000000000000000000000000000000000000600052604160045260246000fd5b600080fd5b600080fd5b600080fd5b600080fd5b6000601f19601f8301169050919050565b60008160601b9050919050565b7f4f776e61626c653a206e6577206f776e657220697320746865207a65726f206160008201527f6464726573730000000000000000000000000000000000000000000000000000602082015250565b7f76616c75652063616e6e6f74206265206e756c6c000000000000000000000000600082015250565b7f4f776e61626c653a2063616c6c6572206973206e6f7420746865206f776e6572600082015250565b7f7468697320686f757365496420616c7265616479206578697374730000000000600082015250565b7f596f7520646f206e6f7420686176652061636365737320746f2064656c65746560008201527f207468697320686f757365000000000000000000000000000000000000000000602082015250565b61115a81610dfe565b811461116557600080fd5b50565b61117181610e3c565b811461117c57600080fd5b5056fea26469706673582212204493c903ded4b360b2455eacfd84d9402b155030e67ba150affaac0000971b6064736f6c63430008070033",
					"opcodes": "PUSH1 0x80 PUSH1 0x40 MSTORE PUSH1 0x5 PUSH1 0x1 SSTORE PUSH1 0x1 SLOAD PUSH1 0xA PUSH3 0x1A SWAP2 SWAP1 PUSH3 0x17F JUMP JUMPDEST PUSH1 0x2 SSTORE PUSH3 0x15180 PUSH1 0x3 SSTORE CALLVALUE DUP1 ISZERO PUSH3 0x31 JUMPI PUSH1 0x0 DUP1 REVERT JUMPDEST POP PUSH3 0x52 PUSH3 0x46 PUSH3 0x58 PUSH1 0x20 SHL PUSH1 0x20 SHR JUMP JUMPDEST PUSH3 0x60 PUSH1 0x20 SHL PUSH1 0x20 SHR JUMP JUMPDEST PUSH3 0x302 JUMP JUMPDEST PUSH1 0x0 CALLER SWAP1 POP SWAP1 JUMP JUMPDEST PUSH1 0x0 DUP1 PUSH1 0x0 SWAP1 SLOAD SWAP1 PUSH2 0x100 EXP SWAP1 DIV PUSH20 0xFFFFFFFFFFFFFFFFFFFFFFFFFFFFFFFFFFFFFFFF AND SWAP1 POP DUP2 PUSH1 0x0 DUP1 PUSH2 0x100 EXP DUP2 SLOAD DUP2 PUSH20 0xFFFFFFFFFFFFFFFFFFFFFFFFFFFFFFFFFFFFFFFF MUL NOT AND SWAP1 DUP4 PUSH20 0xFFFFFFFFFFFFFFFFFFFFFFFFFFFFFFFFFFFFFFFF AND MUL OR SWAP1 SSTORE POP DUP2 PUSH20 0xFFFFFFFFFFFFFFFFFFFFFFFFFFFFFFFFFFFFFFFF AND DUP2 PUSH20 0xFFFFFFFFFFFFFFFFFFFFFFFFFFFFFFFFFFFFFFFF AND PUSH32 0x8BE0079C531659141344CD1FD0A4F28419497F9722A3DAAFE3B4186F6B6457E0 PUSH1 0x40 MLOAD PUSH1 0x40 MLOAD DUP1 SWAP2 SUB SWAP1 LOG3 POP POP JUMP JUMPDEST PUSH1 0x0 DUP1 DUP3 SWAP2 POP DUP4 SWAP1 POP JUMPDEST PUSH1 0x1 DUP6 GT ISZERO PUSH3 0x176 JUMPI DUP1 DUP7 DIV DUP2 GT ISZERO PUSH3 0x14E JUMPI PUSH3 0x14D PUSH3 0x2C6 JUMP JUMPDEST JUMPDEST PUSH1 0x1 DUP6 AND ISZERO PUSH3 0x15E JUMPI DUP1 DUP3 MUL SWAP2 POP JUMPDEST DUP1 DUP2 MUL SWAP1 POP PUSH3 0x16E DUP6 PUSH3 0x2F5 JUMP JUMPDEST SWAP5 POP PUSH3 0x12E JUMP JUMPDEST SWAP5 POP SWAP5 SWAP3 POP POP POP JUMP JUMPDEST PUSH1 0x0 PUSH3 0x18C DUP3 PUSH3 0x2BC JUMP JUMPDEST SWAP2 POP PUSH3 0x199 DUP4 PUSH3 0x2BC JUMP JUMPDEST SWAP3 POP PUSH3 0x1C8 PUSH32 0xFFFFFFFFFFFFFFFFFFFFFFFFFFFFFFFFFFFFFFFFFFFFFFFFFFFFFFFFFFFFFFFF DUP5 DUP5 PUSH3 0x1D0 JUMP JUMPDEST SWAP1 POP SWAP3 SWAP2 POP POP JUMP JUMPDEST PUSH1 0x0 DUP3 PUSH3 0x1E2 JUMPI PUSH1 0x1 SWAP1 POP PUSH3 0x2B5 JUMP JUMPDEST DUP2 PUSH3 0x1F2 JUMPI PUSH1 0x0 SWAP1 POP PUSH3 0x2B5 JUMP JUMPDEST DUP2 PUSH1 0x1 DUP2 EQ PUSH3 0x20B JUMPI PUSH1 0x2 DUP2 EQ PUSH3 0x216 JUMPI PUSH3 0x24C JUMP JUMPDEST PUSH1 0x1 SWAP2 POP POP PUSH3 0x2B5 JUMP JUMPDEST PUSH1 0xFF DUP5 GT ISZERO PUSH3 0x22B JUMPI PUSH3 0x22A PUSH3 0x2C6 JUMP JUMPDEST JUMPDEST DUP4 PUSH1 0x2 EXP SWAP2 POP DUP5 DUP3 GT ISZERO PUSH3 0x245 JUMPI PUSH3 0x244 PUSH3 0x2C6 JUMP JUMPDEST JUMPDEST POP PUSH3 0x2B5 JUMP JUMPDEST POP PUSH1 0x20 DUP4 LT PUSH2 0x133 DUP4 LT AND PUSH1 0x4E DUP5 LT PUSH1 0xB DUP5 LT AND OR ISZERO PUSH3 0x286 JUMPI DUP3 DUP3 EXP SWAP1 POP DUP4 DUP2 GT ISZERO PUSH3 0x280 JUMPI PUSH3 0x27F PUSH3 0x2C6 JUMP JUMPDEST JUMPDEST PUSH3 0x2B5 JUMP JUMPDEST PUSH3 0x295 DUP5 DUP5 DUP5 PUSH1 0x1 PUSH3 0x124 JUMP JUMPDEST SWAP3 POP SWAP1 POP DUP2 DUP5 DIV DUP2 GT ISZERO PUSH3 0x2AF JUMPI PUSH3 0x2AE PUSH3 0x2C6 JUMP JUMPDEST JUMPDEST DUP2 DUP2 MUL SWAP1 POP JUMPDEST SWAP4 SWAP3 POP POP POP JUMP JUMPDEST PUSH1 0x0 DUP2 SWAP1 POP SWAP2 SWAP1 POP JUMP JUMPDEST PUSH32 0x4E487B7100000000000000000000000000000000000000000000000000000000 PUSH1 0x0 MSTORE PUSH1 0x11 PUSH1 0x4 MSTORE PUSH1 0x24 PUSH1 0x0 REVERT JUMPDEST PUSH1 0x0 DUP2 PUSH1 0x1 SHR SWAP1 POP SWAP2 SWAP1 POP JUMP JUMPDEST PUSH2 0x11B5 DUP1 PUSH3 0x312 PUSH1 0x0 CODECOPY PUSH1 0x0 RETURN INVALID PUSH1 0x80 PUSH1 0x40 MSTORE CALLVALUE DUP1 ISZERO PUSH2 0x10 JUMPI PUSH1 0x0 DUP1 REVERT JUMPDEST POP PUSH1 0x4 CALLDATASIZE LT PUSH2 0x62 JUMPI PUSH1 0x0 CALLDATALOAD PUSH1 0xE0 SHR DUP1 PUSH4 0x3C3B0B4A EQ PUSH2 0x67 JUMPI DUP1 PUSH4 0x715018A6 EQ PUSH2 0x83 JUMPI DUP1 PUSH4 0x8DA5CB5B EQ PUSH2 0x8D JUMPI DUP1 PUSH4 0x91BFE0D4 EQ PUSH2 0xAB JUMPI DUP1 PUSH4 0xAEDA852F EQ PUSH2 0xDB JUMPI DUP1 PUSH4 0xF2FDE38B EQ PUSH2 0x111 JUMPI JUMPDEST PUSH1 0x0 DUP1 REVERT JUMPDEST PUSH2 0x81 PUSH1 0x4 DUP1 CALLDATASIZE SUB DUP2 ADD SWAP1 PUSH2 0x7C SWAP2 SWAP1 PUSH2 0x932 JUMP JUMPDEST PUSH2 0x12D JUMP JUMPDEST STOP JUMPDEST PUSH2 0x8B PUSH2 0x203 JUMP JUMPDEST STOP JUMPDEST PUSH2 0x95 PUSH2 0x28B JUMP JUMPDEST PUSH1 0x40 MLOAD PUSH2 0xA2 SWAP2 SWAP1 PUSH2 0xB8F JUMP JUMPDEST PUSH1 0x40 MLOAD DUP1 SWAP2 SUB SWAP1 RETURN JUMPDEST PUSH2 0xC5 PUSH1 0x4 DUP1 CALLDATASIZE SUB DUP2 ADD SWAP1 PUSH2 0xC0 SWAP2 SWAP1 PUSH2 0x95F JUMP JUMPDEST PUSH2 0x2B4 JUMP JUMPDEST PUSH1 0x40 MLOAD PUSH2 0xD2 SWAP2 SWAP1 PUSH2 0xC4A JUMP JUMPDEST PUSH1 0x40 MLOAD DUP1 SWAP2 SUB SWAP1 RETURN JUMPDEST PUSH2 0xF5 PUSH1 0x4 DUP1 CALLDATASIZE SUB DUP2 ADD SWAP1 PUSH2 0xF0 SWAP2 SWAP1 PUSH2 0x932 JUMP JUMPDEST PUSH2 0x4C2 JUMP JUMPDEST PUSH1 0x40 MLOAD PUSH2 0x108 SWAP8 SWAP7 SWAP6 SWAP5 SWAP4 SWAP3 SWAP2 SWAP1 PUSH2 0xCB1 JUMP JUMPDEST PUSH1 0x40 MLOAD DUP1 SWAP2 SUB SWAP1 RETURN JUMPDEST PUSH2 0x12B PUSH1 0x4 DUP1 CALLDATASIZE SUB DUP2 ADD SWAP1 PUSH2 0x126 SWAP2 SWAP1 PUSH2 0x905 JUMP JUMPDEST PUSH2 0x5B9 JUMP JUMPDEST STOP JUMPDEST CALLER PUSH20 0xFFFFFFFFFFFFFFFFFFFFFFFFFFFFFFFFFFFFFFFF AND PUSH1 0x4 PUSH1 0x0 DUP4 DUP2 MSTORE PUSH1 0x20 ADD SWAP1 DUP2 MSTORE PUSH1 0x20 ADD PUSH1 0x0 KECCAK256 PUSH1 0x3 ADD PUSH1 0x0 SWAP1 SLOAD SWAP1 PUSH2 0x100 EXP SWAP1 DIV PUSH20 0xFFFFFFFFFFFFFFFFFFFFFFFFFFFFFFFFFFFFFFFF AND PUSH20 0xFFFFFFFFFFFFFFFFFFFFFFFFFFFFFFFFFFFFFFFF AND EQ PUSH2 0x1D1 JUMPI PUSH1 0x40 MLOAD PUSH32 0x8C379A000000000000000000000000000000000000000000000000000000000 DUP2 MSTORE PUSH1 0x4 ADD PUSH2 0x1C8 SWAP1 PUSH2 0xC2A JUMP JUMPDEST PUSH1 0x40 MLOAD DUP1 SWAP2 SUB SWAP1 REVERT JUMPDEST PUSH1 0x1 PUSH1 0x4 PUSH1 0x0 DUP4 DUP2 MSTORE PUSH1 0x20 ADD SWAP1 DUP2 MSTORE PUSH1 0x20 ADD PUSH1 0x0 KECCAK256 PUSH1 0x5 ADD PUSH1 0x0 PUSH2 0x100 EXP DUP2 SLOAD DUP2 PUSH1 0xFF MUL NOT AND SWAP1 DUP4 ISZERO ISZERO MUL OR SWAP1 SSTORE POP POP JUMP JUMPDEST PUSH2 0x20B PUSH2 0x6B1 JUMP JUMPDEST PUSH20 0xFFFFFFFFFFFFFFFFFFFFFFFFFFFFFFFFFFFFFFFF AND PUSH2 0x229 PUSH2 0x28B JUMP JUMPDEST PUSH20 0xFFFFFFFFFFFFFFFFFFFFFFFFFFFFFFFFFFFFFFFF AND EQ PUSH2 0x27F JUMPI PUSH1 0x40 MLOAD PUSH32 0x8C379A000000000000000000000000000000000000000000000000000000000 DUP2 MSTORE PUSH1 0x4 ADD PUSH2 0x276 SWAP1 PUSH2 0xBEA JUMP JUMPDEST PUSH1 0x40 MLOAD DUP1 SWAP2 SUB SWAP1 REVERT JUMPDEST PUSH2 0x289 PUSH1 0x0 PUSH2 0x6B9 JUMP JUMPDEST JUMP JUMPDEST PUSH1 0x0 DUP1 PUSH1 0x0 SWAP1 SLOAD SWAP1 PUSH2 0x100 EXP SWAP1 DIV PUSH20 0xFFFFFFFFFFFFFFFFFFFFFFFFFFFFFFFFFFFFFFFF AND SWAP1 POP SWAP1 JUMP JUMPDEST PUSH1 0x0 DUP1 DUP5 DUP7 PUSH2 0x2C3 SWAP2 SWAP1 PUSH2 0xDA4 JUMP JUMPDEST GT PUSH2 0x303 JUMPI PUSH1 0x40 MLOAD PUSH32 0x8C379A000000000000000000000000000000000000000000000000000000000 DUP2 MSTORE PUSH1 0x4 ADD PUSH2 0x2FA SWAP1 PUSH2 0xBCA JUMP JUMPDEST PUSH1 0x40 MLOAD DUP1 SWAP2 SUB SWAP1 REVERT JUMPDEST PUSH1 0x0 PUSH2 0x310 DUP5 DUP7 DUP6 PUSH2 0x77D JUMP JUMPDEST SWAP1 POP PUSH1 0x4 PUSH1 0x0 DUP3 DUP2 MSTORE PUSH1 0x20 ADD SWAP1 DUP2 MSTORE PUSH1 0x20 ADD PUSH1 0x0 KECCAK256 PUSH1 0x0 ADD SLOAD DUP2 EQ ISZERO PUSH2 0x36B JUMPI PUSH1 0x40 MLOAD PUSH32 0x8C379A000000000000000000000000000000000000000000000000000000000 DUP2 MSTORE PUSH1 0x4 ADD PUSH2 0x362 SWAP1 PUSH2 0xC0A JUMP JUMPDEST PUSH1 0x40 MLOAD DUP1 SWAP2 SUB SWAP1 REVERT JUMPDEST PUSH1 0x40 MLOAD DUP1 PUSH1 0xE0 ADD PUSH1 0x40 MSTORE DUP1 DUP3 DUP2 MSTORE PUSH1 0x20 ADD DUP8 DUP2 MSTORE PUSH1 0x20 ADD DUP7 DUP2 MSTORE PUSH1 0x20 ADD DUP6 PUSH20 0xFFFFFFFFFFFFFFFFFFFFFFFFFFFFFFFFFFFFFFFF AND DUP2 MSTORE PUSH1 0x20 ADD DUP5 DUP2 MSTORE PUSH1 0x20 ADD PUSH1 0x0 ISZERO ISZERO DUP2 MSTORE PUSH1 0x20 ADD TIMESTAMP DUP2 MSTORE POP PUSH1 0x4 PUSH1 0x0 DUP4 DUP2 MSTORE PUSH1 0x20 ADD SWAP1 DUP2 MSTORE PUSH1 0x20 ADD PUSH1 0x0 KECCAK256 PUSH1 0x0 DUP3 ADD MLOAD DUP2 PUSH1 0x0 ADD SSTORE PUSH1 0x20 DUP3 ADD MLOAD DUP2 PUSH1 0x1 ADD SSTORE PUSH1 0x40 DUP3 ADD MLOAD DUP2 PUSH1 0x2 ADD SSTORE PUSH1 0x60 DUP3 ADD MLOAD DUP2 PUSH1 0x3 ADD PUSH1 0x0 PUSH2 0x100 EXP DUP2 SLOAD DUP2 PUSH20 0xFFFFFFFFFFFFFFFFFFFFFFFFFFFFFFFFFFFFFFFF MUL NOT AND SWAP1 DUP4 PUSH20 0xFFFFFFFFFFFFFFFFFFFFFFFFFFFFFFFFFFFFFFFF AND MUL OR SWAP1 SSTORE POP PUSH1 0x80 DUP3 ADD MLOAD DUP2 PUSH1 0x4 ADD SWAP1 DUP1 MLOAD SWAP1 PUSH1 0x20 ADD SWAP1 PUSH2 0x44B SWAP3 SWAP2 SWAP1 PUSH2 0x7C8 JUMP JUMPDEST POP PUSH1 0xA0 DUP3 ADD MLOAD DUP2 PUSH1 0x5 ADD PUSH1 0x0 PUSH2 0x100 EXP DUP2 SLOAD DUP2 PUSH1 0xFF MUL NOT AND SWAP1 DUP4 ISZERO ISZERO MUL OR SWAP1 SSTORE POP PUSH1 0xC0 DUP3 ADD MLOAD DUP2 PUSH1 0x6 ADD SSTORE SWAP1 POP POP PUSH32 0x8F5AFD88EB4BE0AC287D87970052CE9A2B453448408E3C91A695AD7509AB7194 DUP2 DUP6 DUP9 DUP7 PUSH1 0x40 MLOAD PUSH2 0x4AE SWAP5 SWAP4 SWAP3 SWAP2 SWAP1 PUSH2 0xC65 JUMP JUMPDEST PUSH1 0x40 MLOAD DUP1 SWAP2 SUB SWAP1 LOG1 DUP1 SWAP2 POP POP SWAP5 SWAP4 POP POP POP POP JUMP JUMPDEST PUSH1 0x4 PUSH1 0x20 MSTORE DUP1 PUSH1 0x0 MSTORE PUSH1 0x40 PUSH1 0x0 KECCAK256 PUSH1 0x0 SWAP2 POP SWAP1 POP DUP1 PUSH1 0x0 ADD SLOAD SWAP1 DUP1 PUSH1 0x1 ADD SLOAD SWAP1 DUP1 PUSH1 0x2 ADD SLOAD SWAP1 DUP1 PUSH1 0x3 ADD PUSH1 0x0 SWAP1 SLOAD SWAP1 PUSH2 0x100 EXP SWAP1 DIV PUSH20 0xFFFFFFFFFFFFFFFFFFFFFFFFFFFFFFFFFFFFFFFF AND SWAP1 DUP1 PUSH1 0x4 ADD DUP1 SLOAD PUSH2 0x51D SWAP1 PUSH2 0xE88 JUMP JUMPDEST DUP1 PUSH1 0x1F ADD PUSH1 0x20 DUP1 SWAP2 DIV MUL PUSH1 0x20 ADD PUSH1 0x40 MLOAD SWAP1 DUP2 ADD PUSH1 0x40 MSTORE DUP1 SWAP3 SWAP2 SWAP1 DUP2 DUP2 MSTORE PUSH1 0x20 ADD DUP3 DUP1 SLOAD PUSH2 0x549 SWAP1 PUSH2 0xE88 JUMP JUMPDEST DUP1 ISZERO PUSH2 0x596 JUMPI DUP1 PUSH1 0x1F LT PUSH2 0x56B JUMPI PUSH2 0x100 DUP1 DUP4 SLOAD DIV MUL DUP4 MSTORE SWAP2 PUSH1 0x20 ADD SWAP2 PUSH2 0x596 JUMP JUMPDEST DUP3 ADD SWAP2 SWAP1 PUSH1 0x0 MSTORE PUSH1 0x20 PUSH1 0x0 KECCAK256 SWAP1 JUMPDEST DUP2 SLOAD DUP2 MSTORE SWAP1 PUSH1 0x1 ADD SWAP1 PUSH1 0x20 ADD DUP1 DUP4 GT PUSH2 0x579 JUMPI DUP3 SWAP1 SUB PUSH1 0x1F AND DUP3 ADD SWAP2 JUMPDEST POP POP POP POP POP SWAP1 DUP1 PUSH1 0x5 ADD PUSH1 0x0 SWAP1 SLOAD SWAP1 PUSH2 0x100 EXP SWAP1 DIV PUSH1 0xFF AND SWAP1 DUP1 PUSH1 0x6 ADD SLOAD SWAP1 POP DUP8 JUMP JUMPDEST PUSH2 0x5C1 PUSH2 0x6B1 JUMP JUMPDEST PUSH20 0xFFFFFFFFFFFFFFFFFFFFFFFFFFFFFFFFFFFFFFFF AND PUSH2 0x5DF PUSH2 0x28B JUMP JUMPDEST PUSH20 0xFFFFFFFFFFFFFFFFFFFFFFFFFFFFFFFFFFFFFFFF AND EQ PUSH2 0x635 JUMPI PUSH1 0x40 MLOAD PUSH32 0x8C379A000000000000000000000000000000000000000000000000000000000 DUP2 MSTORE PUSH1 0x4 ADD PUSH2 0x62C SWAP1 PUSH2 0xBEA JUMP JUMPDEST PUSH1 0x40 MLOAD DUP1 SWAP2 SUB SWAP1 REVERT JUMPDEST PUSH1 0x0 PUSH20 0xFFFFFFFFFFFFFFFFFFFFFFFFFFFFFFFFFFFFFFFF AND DUP2 PUSH20 0xFFFFFFFFFFFFFFFFFFFFFFFFFFFFFFFFFFFFFFFF AND EQ ISZERO PUSH2 0x6A5 JUMPI PUSH1 0x40 MLOAD PUSH32 0x8C379A000000000000000000000000000000000000000000000000000000000 DUP2 MSTORE PUSH1 0x4 ADD PUSH2 0x69C SWAP1 PUSH2 0xBAA JUMP JUMPDEST PUSH1 0x40 MLOAD DUP1 SWAP2 SUB SWAP1 REVERT JUMPDEST PUSH2 0x6AE DUP2 PUSH2 0x6B9 JUMP JUMPDEST POP JUMP JUMPDEST PUSH1 0x0 CALLER SWAP1 POP SWAP1 JUMP JUMPDEST PUSH1 0x0 DUP1 PUSH1 0x0 SWAP1 SLOAD SWAP1 PUSH2 0x100 EXP SWAP1 DIV PUSH20 0xFFFFFFFFFFFFFFFFFFFFFFFFFFFFFFFFFFFFFFFF AND SWAP1 POP DUP2 PUSH1 0x0 DUP1 PUSH2 0x100 EXP DUP2 SLOAD DUP2 PUSH20 0xFFFFFFFFFFFFFFFFFFFFFFFFFFFFFFFFFFFFFFFF MUL NOT AND SWAP1 DUP4 PUSH20 0xFFFFFFFFFFFFFFFFFFFFFFFFFFFFFFFFFFFFFFFF AND MUL OR SWAP1 SSTORE POP DUP2 PUSH20 0xFFFFFFFFFFFFFFFFFFFFFFFFFFFFFFFFFFFFFFFF AND DUP2 PUSH20 0xFFFFFFFFFFFFFFFFFFFFFFFFFFFFFFFFFFFFFFFF AND PUSH32 0x8BE0079C531659141344CD1FD0A4F28419497F9722A3DAAFE3B4186F6B6457E0 PUSH1 0x40 MLOAD PUSH1 0x40 MLOAD DUP1 SWAP2 SUB SWAP1 LOG3 POP POP JUMP JUMPDEST PUSH1 0x0 DUP1 DUP5 DUP5 DUP5 PUSH1 0x40 MLOAD PUSH1 0x20 ADD PUSH2 0x795 SWAP4 SWAP3 SWAP2 SWAP1 PUSH2 0xB56 JUMP JUMPDEST PUSH1 0x40 MLOAD PUSH1 0x20 DUP2 DUP4 SUB SUB DUP2 MSTORE SWAP1 PUSH1 0x40 MSTORE DUP1 MLOAD SWAP1 PUSH1 0x20 ADD KECCAK256 PUSH1 0x0 SHR SWAP1 POP PUSH1 0x2 SLOAD DUP2 PUSH2 0x7BE SWAP2 SWAP1 PUSH2 0xF19 JUMP JUMPDEST SWAP2 POP POP SWAP4 SWAP3 POP POP POP JUMP JUMPDEST DUP3 DUP1 SLOAD PUSH2 0x7D4 SWAP1 PUSH2 0xE88 JUMP JUMPDEST SWAP1 PUSH1 0x0 MSTORE PUSH1 0x20 PUSH1 0x0 KECCAK256 SWAP1 PUSH1 0x1F ADD PUSH1 0x20 SWAP1 DIV DUP2 ADD SWAP3 DUP3 PUSH2 0x7F6 JUMPI PUSH1 0x0 DUP6 SSTORE PUSH2 0x83D JUMP JUMPDEST DUP3 PUSH1 0x1F LT PUSH2 0x80F JUMPI DUP1 MLOAD PUSH1 0xFF NOT AND DUP4 DUP1 ADD OR DUP6 SSTORE PUSH2 0x83D JUMP JUMPDEST DUP3 DUP1 ADD PUSH1 0x1 ADD DUP6 SSTORE DUP3 ISZERO PUSH2 0x83D JUMPI SWAP2 DUP3 ADD JUMPDEST DUP3 DUP2 GT ISZERO PUSH2 0x83C JUMPI DUP3 MLOAD DUP3 SSTORE SWAP2 PUSH1 0x20 ADD SWAP2 SWAP1 PUSH1 0x1 ADD SWAP1 PUSH2 0x821 JUMP JUMPDEST JUMPDEST POP SWAP1 POP PUSH2 0x84A SWAP2 SWAP1 PUSH2 0x84E JUMP JUMPDEST POP SWAP1 JUMP JUMPDEST JUMPDEST DUP1 DUP3 GT ISZERO PUSH2 0x867 JUMPI PUSH1 0x0 DUP2 PUSH1 0x0 SWAP1 SSTORE POP PUSH1 0x1 ADD PUSH2 0x84F JUMP JUMPDEST POP SWAP1 JUMP JUMPDEST PUSH1 0x0 PUSH2 0x87E PUSH2 0x879 DUP5 PUSH2 0xD4C JUMP JUMPDEST PUSH2 0xD27 JUMP JUMPDEST SWAP1 POP DUP3 DUP2 MSTORE PUSH1 0x20 DUP2 ADD DUP5 DUP5 DUP5 ADD GT ISZERO PUSH2 0x89A JUMPI PUSH2 0x899 PUSH2 0x100B JUMP JUMPDEST JUMPDEST PUSH2 0x8A5 DUP5 DUP3 DUP6 PUSH2 0xE46 JUMP JUMPDEST POP SWAP4 SWAP3 POP POP POP JUMP JUMPDEST PUSH1 0x0 DUP2 CALLDATALOAD SWAP1 POP PUSH2 0x8BC DUP2 PUSH2 0x1151 JUMP JUMPDEST SWAP3 SWAP2 POP POP JUMP JUMPDEST PUSH1 0x0 DUP3 PUSH1 0x1F DUP4 ADD SLT PUSH2 0x8D7 JUMPI PUSH2 0x8D6 PUSH2 0x1006 JUMP JUMPDEST JUMPDEST DUP2 CALLDATALOAD PUSH2 0x8E7 DUP5 DUP3 PUSH1 0x20 DUP7 ADD PUSH2 0x86B JUMP JUMPDEST SWAP2 POP POP SWAP3 SWAP2 POP POP JUMP JUMPDEST PUSH1 0x0 DUP2 CALLDATALOAD SWAP1 POP PUSH2 0x8FF DUP2 PUSH2 0x1168 JUMP JUMPDEST SWAP3 SWAP2 POP POP JUMP JUMPDEST PUSH1 0x0 PUSH1 0x20 DUP3 DUP5 SUB SLT ISZERO PUSH2 0x91B JUMPI PUSH2 0x91A PUSH2 0x1015 JUMP JUMPDEST JUMPDEST PUSH1 0x0 PUSH2 0x929 DUP5 DUP3 DUP6 ADD PUSH2 0x8AD JUMP JUMPDEST SWAP2 POP POP SWAP3 SWAP2 POP POP JUMP JUMPDEST PUSH1 0x0 PUSH1 0x20 DUP3 DUP5 SUB SLT ISZERO PUSH2 0x948 JUMPI PUSH2 0x947 PUSH2 0x1015 JUMP JUMPDEST JUMPDEST PUSH1 0x0 PUSH2 0x956 DUP5 DUP3 DUP6 ADD PUSH2 0x8F0 JUMP JUMPDEST SWAP2 POP POP SWAP3 SWAP2 POP POP JUMP JUMPDEST PUSH1 0x0 DUP1 PUSH1 0x0 DUP1 PUSH1 0x80 DUP6 DUP8 SUB SLT ISZERO PUSH2 0x979 JUMPI PUSH2 0x978 PUSH2 0x1015 JUMP JUMPDEST JUMPDEST PUSH1 0x0 PUSH2 0x987 DUP8 DUP3 DUP9 ADD PUSH2 0x8F0 JUMP JUMPDEST SWAP5 POP POP PUSH1 0x20 PUSH2 0x998 DUP8 DUP3 DUP9 ADD PUSH2 0x8F0 JUMP JUMPDEST SWAP4 POP POP PUSH1 0x40 PUSH2 0x9A9 DUP8 DUP3 DUP9 ADD PUSH2 0x8AD JUMP JUMPDEST SWAP3 POP POP PUSH1 0x60 DUP6 ADD CALLDATALOAD PUSH8 0xFFFFFFFFFFFFFFFF DUP2 GT ISZERO PUSH2 0x9CA JUMPI PUSH2 0x9C9 PUSH2 0x1010 JUMP JUMPDEST JUMPDEST PUSH2 0x9D6 DUP8 DUP3 DUP9 ADD PUSH2 0x8C2 JUMP JUMPDEST SWAP2 POP POP SWAP3 SWAP6 SWAP2 SWAP5 POP SWAP3 POP JUMP JUMPDEST PUSH2 0x9EB DUP2 PUSH2 0xDFE JUMP JUMPDEST DUP3 MSTORE POP POP JUMP JUMPDEST PUSH2 0xA02 PUSH2 0x9FD DUP3 PUSH2 0xDFE JUMP JUMPDEST PUSH2 0xEEB JUMP JUMPDEST DUP3 MSTORE POP POP JUMP JUMPDEST PUSH2 0xA11 DUP2 PUSH2 0xE10 JUMP JUMPDEST DUP3 MSTORE POP POP JUMP JUMPDEST PUSH1 0x0 PUSH2 0xA22 DUP3 PUSH2 0xD7D JUMP JUMPDEST PUSH2 0xA2C DUP2 DUP6 PUSH2 0xD88 JUMP JUMPDEST SWAP4 POP PUSH2 0xA3C DUP2 DUP6 PUSH1 0x20 DUP7 ADD PUSH2 0xE55 JUMP JUMPDEST PUSH2 0xA45 DUP2 PUSH2 0x101A JUMP JUMPDEST DUP5 ADD SWAP2 POP POP SWAP3 SWAP2 POP POP JUMP JUMPDEST PUSH1 0x0 PUSH2 0xA5B DUP3 PUSH2 0xD7D JUMP JUMPDEST PUSH2 0xA65 DUP2 DUP6 PUSH2 0xD99 JUMP JUMPDEST SWAP4 POP PUSH2 0xA75 DUP2 DUP6 PUSH1 0x20 DUP7 ADD PUSH2 0xE55 JUMP JUMPDEST DUP1 DUP5 ADD SWAP2 POP POP SWAP3 SWAP2 POP POP JUMP JUMPDEST PUSH1 0x0 PUSH2 0xA8E PUSH1 0x26 DUP4 PUSH2 0xD88 JUMP JUMPDEST SWAP2 POP PUSH2 0xA99 DUP3 PUSH2 0x1038 JUMP JUMPDEST PUSH1 0x40 DUP3 ADD SWAP1 POP SWAP2 SWAP1 POP JUMP JUMPDEST PUSH1 0x0 PUSH2 0xAB1 PUSH1 0x14 DUP4 PUSH2 0xD88 JUMP JUMPDEST SWAP2 POP PUSH2 0xABC DUP3 PUSH2 0x1087 JUMP JUMPDEST PUSH1 0x20 DUP3 ADD SWAP1 POP SWAP2 SWAP1 POP JUMP JUMPDEST PUSH1 0x0 PUSH2 0xAD4 PUSH1 0x20 DUP4 PUSH2 0xD88 JUMP JUMPDEST SWAP2 POP PUSH2 0xADF DUP3 PUSH2 0x10B0 JUMP JUMPDEST PUSH1 0x20 DUP3 ADD SWAP1 POP SWAP2 SWAP1 POP JUMP JUMPDEST PUSH1 0x0 PUSH2 0xAF7 PUSH1 0x1B DUP4 PUSH2 0xD88 JUMP JUMPDEST SWAP2 POP PUSH2 0xB02 DUP3 PUSH2 0x10D9 JUMP JUMPDEST PUSH1 0x20 DUP3 ADD SWAP1 POP SWAP2 SWAP1 POP JUMP JUMPDEST PUSH1 0x0 PUSH2 0xB1A PUSH1 0x2B DUP4 PUSH2 0xD88 JUMP JUMPDEST SWAP2 POP PUSH2 0xB25 DUP3 PUSH2 0x1102 JUMP JUMPDEST PUSH1 0x40 DUP3 ADD SWAP1 POP SWAP2 SWAP1 POP JUMP JUMPDEST PUSH2 0xB39 DUP2 PUSH2 0xE3C JUMP JUMPDEST DUP3 MSTORE POP POP JUMP JUMPDEST PUSH2 0xB50 PUSH2 0xB4B DUP3 PUSH2 0xE3C JUMP JUMPDEST PUSH2 0xF0F JUMP JUMPDEST DUP3 MSTORE POP POP JUMP JUMPDEST PUSH1 0x0 PUSH2 0xB62 DUP3 DUP7 PUSH2 0x9F1 JUMP JUMPDEST PUSH1 0x14 DUP3 ADD SWAP2 POP PUSH2 0xB72 DUP3 DUP6 PUSH2 0xB3F JUMP JUMPDEST PUSH1 0x20 DUP3 ADD SWAP2 POP PUSH2 0xB82 DUP3 DUP5 PUSH2 0xA50 JUMP JUMPDEST SWAP2 POP DUP2 SWAP1 POP SWAP5 SWAP4 POP POP POP POP JUMP JUMPDEST PUSH1 0x0 PUSH1 0x20 DUP3 ADD SWAP1 POP PUSH2 0xBA4 PUSH1 0x0 DUP4 ADD DUP5 PUSH2 0x9E2 JUMP JUMPDEST SWAP3 SWAP2 POP POP JUMP JUMPDEST PUSH1 0x0 PUSH1 0x20 DUP3 ADD SWAP1 POP DUP2 DUP2 SUB PUSH1 0x0 DUP4 ADD MSTORE PUSH2 0xBC3 DUP2 PUSH2 0xA81 JUMP JUMPDEST SWAP1 POP SWAP2 SWAP1 POP JUMP JUMPDEST PUSH1 0x0 PUSH1 0x20 DUP3 ADD SWAP1 POP DUP2 DUP2 SUB PUSH1 0x0 DUP4 ADD MSTORE PUSH2 0xBE3 DUP2 PUSH2 0xAA4 JUMP JUMPDEST SWAP1 POP SWAP2 SWAP1 POP JUMP JUMPDEST PUSH1 0x0 PUSH1 0x20 DUP3 ADD SWAP1 POP DUP2 DUP2 SUB PUSH1 0x0 DUP4 ADD MSTORE PUSH2 0xC03 DUP2 PUSH2 0xAC7 JUMP JUMPDEST SWAP1 POP SWAP2 SWAP1 POP JUMP JUMPDEST PUSH1 0x0 PUSH1 0x20 DUP3 ADD SWAP1 POP DUP2 DUP2 SUB PUSH1 0x0 DUP4 ADD MSTORE PUSH2 0xC23 DUP2 PUSH2 0xAEA JUMP JUMPDEST SWAP1 POP SWAP2 SWAP1 POP JUMP JUMPDEST PUSH1 0x0 PUSH1 0x20 DUP3 ADD SWAP1 POP DUP2 DUP2 SUB PUSH1 0x0 DUP4 ADD MSTORE PUSH2 0xC43 DUP2 PUSH2 0xB0D JUMP JUMPDEST SWAP1 POP SWAP2 SWAP1 POP JUMP JUMPDEST PUSH1 0x0 PUSH1 0x20 DUP3 ADD SWAP1 POP PUSH2 0xC5F PUSH1 0x0 DUP4 ADD DUP5 PUSH2 0xB30 JUMP JUMPDEST SWAP3 SWAP2 POP POP JUMP JUMPDEST PUSH1 0x0 PUSH1 0x80 DUP3 ADD SWAP1 POP PUSH2 0xC7A PUSH1 0x0 DUP4 ADD DUP8 PUSH2 0xB30 JUMP JUMPDEST PUSH2 0xC87 PUSH1 0x20 DUP4 ADD DUP7 PUSH2 0x9E2 JUMP JUMPDEST PUSH2 0xC94 PUSH1 0x40 DUP4 ADD DUP6 PUSH2 0xB30 JUMP JUMPDEST DUP2 DUP2 SUB PUSH1 0x60 DUP4 ADD MSTORE PUSH2 0xCA6 DUP2 DUP5 PUSH2 0xA17 JUMP JUMPDEST SWAP1 POP SWAP6 SWAP5 POP POP POP POP POP JUMP JUMPDEST PUSH1 0x0 PUSH1 0xE0 DUP3 ADD SWAP1 POP PUSH2 0xCC6 PUSH1 0x0 DUP4 ADD DUP11 PUSH2 0xB30 JUMP JUMPDEST PUSH2 0xCD3 PUSH1 0x20 DUP4 ADD DUP10 PUSH2 0xB30 JUMP JUMPDEST PUSH2 0xCE0 PUSH1 0x40 DUP4 ADD DUP9 PUSH2 0xB30 JUMP JUMPDEST PUSH2 0xCED PUSH1 0x60 DUP4 ADD DUP8 PUSH2 0x9E2 JUMP JUMPDEST DUP2 DUP2 SUB PUSH1 0x80 DUP4 ADD MSTORE PUSH2 0xCFF DUP2 DUP7 PUSH2 0xA17 JUMP JUMPDEST SWAP1 POP PUSH2 0xD0E PUSH1 0xA0 DUP4 ADD DUP6 PUSH2 0xA08 JUMP JUMPDEST PUSH2 0xD1B PUSH1 0xC0 DUP4 ADD DUP5 PUSH2 0xB30 JUMP JUMPDEST SWAP9 SWAP8 POP POP POP POP POP POP POP POP JUMP JUMPDEST PUSH1 0x0 PUSH2 0xD31 PUSH2 0xD42 JUMP JUMPDEST SWAP1 POP PUSH2 0xD3D DUP3 DUP3 PUSH2 0xEBA JUMP JUMPDEST SWAP2 SWAP1 POP JUMP JUMPDEST PUSH1 0x0 PUSH1 0x40 MLOAD SWAP1 POP SWAP1 JUMP JUMPDEST PUSH1 0x0 PUSH8 0xFFFFFFFFFFFFFFFF DUP3 GT ISZERO PUSH2 0xD67 JUMPI PUSH2 0xD66 PUSH2 0xFD7 JUMP JUMPDEST JUMPDEST PUSH2 0xD70 DUP3 PUSH2 0x101A JUMP JUMPDEST SWAP1 POP PUSH1 0x20 DUP2 ADD SWAP1 POP SWAP2 SWAP1 POP JUMP JUMPDEST PUSH1 0x0 DUP2 MLOAD SWAP1 POP SWAP2 SWAP1 POP JUMP JUMPDEST PUSH1 0x0 DUP3 DUP3 MSTORE PUSH1 0x20 DUP3 ADD SWAP1 POP SWAP3 SWAP2 POP POP JUMP JUMPDEST PUSH1 0x0 DUP2 SWAP1 POP SWAP3 SWAP2 POP POP JUMP JUMPDEST PUSH1 0x0 PUSH2 0xDAF DUP3 PUSH2 0xE3C JUMP JUMPDEST SWAP2 POP PUSH2 0xDBA DUP4 PUSH2 0xE3C JUMP JUMPDEST SWAP3 POP DUP2 PUSH32 0xFFFFFFFFFFFFFFFFFFFFFFFFFFFFFFFFFFFFFFFFFFFFFFFFFFFFFFFFFFFFFFFF DIV DUP4 GT DUP3 ISZERO ISZERO AND ISZERO PUSH2 0xDF3 JUMPI PUSH2 0xDF2 PUSH2 0xF4A JUMP JUMPDEST JUMPDEST DUP3 DUP3 MUL SWAP1 POP SWAP3 SWAP2 POP POP JUMP JUMPDEST PUSH1 0x0 PUSH2 0xE09 DUP3 PUSH2 0xE1C JUMP JUMPDEST SWAP1 POP SWAP2 SWAP1 POP JUMP JUMPDEST PUSH1 0x0 DUP2 ISZERO ISZERO SWAP1 POP SWAP2 SWAP1 POP JUMP JUMPDEST PUSH1 0x0 PUSH20 0xFFFFFFFFFFFFFFFFFFFFFFFFFFFFFFFFFFFFFFFF DUP3 AND SWAP1 POP SWAP2 SWAP1 POP JUMP JUMPDEST PUSH1 0x0 DUP2 SWAP1 POP SWAP2 SWAP1 POP JUMP JUMPDEST DUP3 DUP2 DUP4 CALLDATACOPY PUSH1 0x0 DUP4 DUP4 ADD MSTORE POP POP POP JUMP JUMPDEST PUSH1 0x0 JUMPDEST DUP4 DUP2 LT ISZERO PUSH2 0xE73 JUMPI DUP1 DUP3 ADD MLOAD DUP2 DUP5 ADD MSTORE PUSH1 0x20 DUP2 ADD SWAP1 POP PUSH2 0xE58 JUMP JUMPDEST DUP4 DUP2 GT ISZERO PUSH2 0xE82 JUMPI PUSH1 0x0 DUP5 DUP5 ADD MSTORE JUMPDEST POP POP POP POP JUMP JUMPDEST PUSH1 0x0 PUSH1 0x2 DUP3 DIV SWAP1 POP PUSH1 0x1 DUP3 AND DUP1 PUSH2 0xEA0 JUMPI PUSH1 0x7F DUP3 AND SWAP2 POP JUMPDEST PUSH1 0x20 DUP3 LT DUP2 EQ ISZERO PUSH2 0xEB4 JUMPI PUSH2 0xEB3 PUSH2 0xFA8 JUMP JUMPDEST JUMPDEST POP SWAP2 SWAP1 POP JUMP JUMPDEST PUSH2 0xEC3 DUP3 PUSH2 0x101A JUMP JUMPDEST DUP2 ADD DUP2 DUP2 LT PUSH8 0xFFFFFFFFFFFFFFFF DUP3 GT OR ISZERO PUSH2 0xEE2 JUMPI PUSH2 0xEE1 PUSH2 0xFD7 JUMP JUMPDEST JUMPDEST DUP1 PUSH1 0x40 MSTORE POP POP POP JUMP JUMPDEST PUSH1 0x0 PUSH2 0xEF6 DUP3 PUSH2 0xEFD JUMP JUMPDEST SWAP1 POP SWAP2 SWAP1 POP JUMP JUMPDEST PUSH1 0x0 PUSH2 0xF08 DUP3 PUSH2 0x102B JUMP JUMPDEST SWAP1 POP SWAP2 SWAP1 POP JUMP JUMPDEST PUSH1 0x0 DUP2 SWAP1 POP SWAP2 SWAP1 POP JUMP JUMPDEST PUSH1 0x0 PUSH2 0xF24 DUP3 PUSH2 0xE3C JUMP JUMPDEST SWAP2 POP PUSH2 0xF2F DUP4 PUSH2 0xE3C JUMP JUMPDEST SWAP3 POP DUP3 PUSH2 0xF3F JUMPI PUSH2 0xF3E PUSH2 0xF79 JUMP JUMPDEST JUMPDEST DUP3 DUP3 MOD SWAP1 POP SWAP3 SWAP2 POP POP JUMP JUMPDEST PUSH32 0x4E487B7100000000000000000000000000000000000000000000000000000000 PUSH1 0x0 MSTORE PUSH1 0x11 PUSH1 0x4 MSTORE PUSH1 0x24 PUSH1 0x0 REVERT JUMPDEST PUSH32 0x4E487B7100000000000000000000000000000000000000000000000000000000 PUSH1 0x0 MSTORE PUSH1 0x12 PUSH1 0x4 MSTORE PUSH1 0x24 PUSH1 0x0 REVERT JUMPDEST PUSH32 0x4E487B7100000000000000000000000000000000000000000000000000000000 PUSH1 0x0 MSTORE PUSH1 0x22 PUSH1 0x4 MSTORE PUSH1 0x24 PUSH1 0x0 REVERT JUMPDEST PUSH32 0x4E487B7100000000000000000000000000000000000000000000000000000000 PUSH1 0x0 MSTORE PUSH1 0x41 PUSH1 0x4 MSTORE PUSH1 0x24 PUSH1 0x0 REVERT JUMPDEST PUSH1 0x0 DUP1 REVERT JUMPDEST PUSH1 0x0 DUP1 REVERT JUMPDEST PUSH1 0x0 DUP1 REVERT JUMPDEST PUSH1 0x0 DUP1 REVERT JUMPDEST PUSH1 0x0 PUSH1 0x1F NOT PUSH1 0x1F DUP4 ADD AND SWAP1 POP SWAP2 SWAP1 POP JUMP JUMPDEST PUSH1 0x0 DUP2 PUSH1 0x60 SHL SWAP1 POP SWAP2 SWAP1 POP JUMP JUMPDEST PUSH32 0x4F776E61626C653A206E6577206F776E657220697320746865207A65726F2061 PUSH1 0x0 DUP3 ADD MSTORE PUSH32 0x6464726573730000000000000000000000000000000000000000000000000000 PUSH1 0x20 DUP3 ADD MSTORE POP JUMP JUMPDEST PUSH32 0x76616C75652063616E6E6F74206265206E756C6C000000000000000000000000 PUSH1 0x0 DUP3 ADD MSTORE POP JUMP JUMPDEST PUSH32 0x4F776E61626C653A2063616C6C6572206973206E6F7420746865206F776E6572 PUSH1 0x0 DUP3 ADD MSTORE POP JUMP JUMPDEST PUSH32 0x7468697320686F757365496420616C7265616479206578697374730000000000 PUSH1 0x0 DUP3 ADD MSTORE POP JUMP JUMPDEST PUSH32 0x596F7520646F206E6F7420686176652061636365737320746F2064656C657465 PUSH1 0x0 DUP3 ADD MSTORE PUSH32 0x207468697320686F757365000000000000000000000000000000000000000000 PUSH1 0x20 DUP3 ADD MSTORE POP JUMP JUMPDEST PUSH2 0x115A DUP2 PUSH2 0xDFE JUMP JUMPDEST DUP2 EQ PUSH2 0x1165 JUMPI PUSH1 0x0 DUP1 REVERT JUMPDEST POP JUMP JUMPDEST PUSH2 0x1171 DUP2 PUSH2 0xE3C JUMP JUMPDEST DUP2 EQ PUSH2 0x117C JUMPI PUSH1 0x0 DUP1 REVERT JUMPDEST POP JUMP INVALID LOG2 PUSH5 0x6970667358 0x22 SLT KECCAK256 DIFFICULTY SWAP4 0xC9 SUB 0xDE 0xD4 0xB3 PUSH1 0xB2 GASLIMIT 0x5E 0xAC REVERT DUP5 0xD9 BLOCKHASH 0x2B ISZERO POP ADDRESS 0xE6 PUSH28 0xA150AFFAAC0000971B6064736F6C6343000807003300000000000000 "
				},
				"gasEstimates": {
					"creation": {
						"codeDepositCost": "906600",
						"executionCost": "infinite",
						"totalCost": "infinite"
					},
					"external": {
						"delistHouse(uint256)": "26989",
						"houses(uint256)": "infinite",
						"listHouse(uint256,uint256,address,string)": "infinite",
						"owner()": "2544",
						"renounceOwnership()": "30374",
						"transferOwnership(address)": "30811"
					},
					"internal": {
						"_generateHouseId(address,uint256,string memory)": "infinite"
					}
				},
				"methodIdentifiers": {
					"delistHouse(uint256)": "3c3b0b4a",
					"houses(uint256)": "aeda852f",
					"listHouse(uint256,uint256,address,string)": "91bfe0d4",
					"owner()": "8da5cb5b",
					"renounceOwnership()": "715018a6",
					"transferOwnership(address)": "f2fde38b"
				}
			},
			"storageLayout": {
				"storage": [
					{
						"astId": 197,
						"contract": "contract/HouseRegistry.sol:HouseRegistry",
						"label": "_owner",
						"offset": 0,
						"slot": "0",
						"type": "t_address"
					},
					{
						"astId": 7,
						"contract": "contract/HouseRegistry.sol:HouseRegistry",
						"label": "digits",
						"offset": 0,
						"slot": "1",
						"type": "t_uint256"
					},
					{
						"astId": 12,
						"contract": "contract/HouseRegistry.sol:HouseRegistry",
						"label": "modulus",
						"offset": 0,
						"slot": "2",
						"type": "t_uint256"
					},
					{
						"astId": 15,
						"contract": "contract/HouseRegistry.sol:HouseRegistry",
						"label": "cooldownTime",
						"offset": 0,
						"slot": "3",
						"type": "t_uint256"
					},
					{
						"astId": 45,
						"contract": "contract/HouseRegistry.sol:HouseRegistry",
						"label": "houses",
						"offset": 0,
						"slot": "4",
						"type": "t_mapping(t_uint256,t_struct(House)30_storage)"
					}
				],
				"types": {
					"t_address": {
						"encoding": "inplace",
						"label": "address",
						"numberOfBytes": "20"
					},
					"t_bool": {
						"encoding": "inplace",
						"label": "bool",
						"numberOfBytes": "1"
					},
					"t_mapping(t_uint256,t_struct(House)30_storage)": {
						"encoding": "mapping",
						"key": "t_uint256",
						"label": "mapping(uint256 => struct HouseRegistry.House)",
						"numberOfBytes": "32",
						"value": "t_struct(House)30_storage"
					},
					"t_string_storage": {
						"encoding": "bytes",
						"label": "string",
						"numberOfBytes": "32"
					},
					"t_struct(House)30_storage": {
						"encoding": "inplace",
						"label": "struct HouseRegistry.House",
						"members": [
							{
								"astId": 17,
								"contract": "contract/HouseRegistry.sol:HouseRegistry",
								"label": "id",
								"offset": 0,
								"slot": "0",
								"type": "t_uint256"
							},
							{
								"astId": 19,
								"contract": "contract/HouseRegistry.sol:HouseRegistry",
								"label": "price",
								"offset": 0,
								"slot": "1",
								"type": "t_uint256"
							},
							{
								"astId": 21,
								"contract": "contract/HouseRegistry.sol:HouseRegistry",
								"label": "area",
								"offset": 0,
								"slot": "2",
								"type": "t_uint256"
							},
							{
								"astId": 23,
								"contract": "contract/HouseRegistry.sol:HouseRegistry",
								"label": "sellerAddress",
								"offset": 0,
								"slot": "3",
								"type": "t_address"
							},
							{
								"astId": 25,
								"contract": "contract/HouseRegistry.sol:HouseRegistry",
								"label": "houseAddress",
								"offset": 0,
								"slot": "4",
								"type": "t_string_storage"
							},
							{
								"astId": 27,
								"contract": "contract/HouseRegistry.sol:HouseRegistry",
								"label": "isdelistedHouse",
								"offset": 0,
								"slot": "5",
								"type": "t_bool"
							},
							{
								"astId": 29,
								"contract": "contract/HouseRegistry.sol:HouseRegistry",
								"label": "readyTime",
								"offset": 0,
								"slot": "6",
								"type": "t_uint256"
							}
						],
						"numberOfBytes": "224"
					},
					"t_uint256": {
						"encoding": "inplace",
						"label": "uint256",
						"numberOfBytes": "32"
					}
				}
			},
			"userdoc": {
				"kind": "user",
				"methods": {},
				"version": 1
			}
		}
	}
}