{
	"contract/HouseRegistry.sol": {
		"HouseRegistry": {
			"abi": [
				{
					"inputs": [
						{
							"internalType": "string",
							"name": "name",
							"type": "string"
						},
						{
							"internalType": "string",
							"name": "symbol",
							"type": "string"
						}
					],
					"stateMutability": "nonpayable",
					"type": "constructor"
				},
				{
					"anonymous": false,
					"inputs": [
						{
							"indexed": false,
							"internalType": "uint256",
							"name": "houseId",
							"type": "uint256"
						},
						{
							"indexed": false,
							"internalType": "address",
							"name": "_sellerAddress",
							"type": "address"
						},
						{
							"indexed": false,
							"internalType": "uint256",
							"name": "price",
							"type": "uint256"
						},
						{
							"indexed": false,
							"internalType": "uint256",
							"name": "priceDai",
							"type": "uint256"
						},
						{
							"indexed": false,
							"internalType": "string",
							"name": "houseAddress",
							"type": "string"
						}
					],
					"name": "AddNewHouse",
					"type": "event"
				},
				{
					"anonymous": false,
					"inputs": [
						{
							"indexed": true,
							"internalType": "address",
							"name": "owner",
							"type": "address"
						},
						{
							"indexed": true,
							"internalType": "address",
							"name": "spender",
							"type": "address"
						},
						{
							"indexed": false,
							"internalType": "uint256",
							"name": "value",
							"type": "uint256"
						}
					],
					"name": "Approval",
					"type": "event"
				},
				{
					"anonymous": false,
					"inputs": [
						{
							"indexed": true,
							"internalType": "address",
							"name": "from",
							"type": "address"
						},
						{
							"indexed": true,
							"internalType": "address",
							"name": "to",
							"type": "address"
						},
						{
							"indexed": false,
							"internalType": "uint256",
							"name": "value",
							"type": "uint256"
						}
					],
					"name": "Transfer",
					"type": "event"
				},
				{
					"inputs": [
						{
							"internalType": "address",
							"name": "owner",
							"type": "address"
						},
						{
							"internalType": "address",
							"name": "spender",
							"type": "address"
						}
					],
					"name": "allowance",
					"outputs": [
						{
							"internalType": "uint256",
							"name": "",
							"type": "uint256"
						}
					],
					"stateMutability": "view",
					"type": "function"
				},
				{
					"inputs": [
						{
							"internalType": "address",
							"name": "spender",
							"type": "address"
						},
						{
							"internalType": "uint256",
							"name": "amount",
							"type": "uint256"
						}
					],
					"name": "approve",
					"outputs": [
						{
							"internalType": "bool",
							"name": "",
							"type": "bool"
						}
					],
					"stateMutability": "nonpayable",
					"type": "function"
				},
				{
					"inputs": [
						{
							"internalType": "address",
							"name": "account",
							"type": "address"
						}
					],
					"name": "balanceOf",
					"outputs": [
						{
							"internalType": "uint256",
							"name": "",
							"type": "uint256"
						}
					],
					"stateMutability": "view",
					"type": "function"
				},
				{
					"inputs": [],
					"name": "decimals",
					"outputs": [
						{
							"internalType": "uint8",
							"name": "",
							"type": "uint8"
						}
					],
					"stateMutability": "view",
					"type": "function"
				},
				{
					"inputs": [
						{
							"internalType": "address",
							"name": "spender",
							"type": "address"
						},
						{
							"internalType": "uint256",
							"name": "subtractedValue",
							"type": "uint256"
						}
					],
					"name": "decreaseAllowance",
					"outputs": [
						{
							"internalType": "bool",
							"name": "",
							"type": "bool"
						}
					],
					"stateMutability": "nonpayable",
					"type": "function"
				},
				{
					"inputs": [
						{
							"internalType": "uint256",
							"name": "houseId",
							"type": "uint256"
						}
					],
					"name": "delistHouse",
					"outputs": [
						{
							"internalType": "string",
							"name": "",
							"type": "string"
						}
					],
					"stateMutability": "nonpayable",
					"type": "function"
				},
				{
					"inputs": [
						{
							"internalType": "uint256",
							"name": "cost",
							"type": "uint256"
						}
					],
					"name": "getCheapHouseIds",
					"outputs": [
						{
							"internalType": "uint256[]",
							"name": "",
							"type": "uint256[]"
						}
					],
					"stateMutability": "view",
					"type": "function"
				},
				{
					"inputs": [
						{
							"internalType": "uint256",
							"name": "",
							"type": "uint256"
						}
					],
					"name": "houses",
					"outputs": [
						{
							"internalType": "uint256",
							"name": "id",
							"type": "uint256"
						},
						{
							"internalType": "uint256",
							"name": "serialNumber",
							"type": "uint256"
						},
						{
							"internalType": "uint256",
							"name": "price",
							"type": "uint256"
						},
						{
							"internalType": "uint256",
							"name": "priceDai",
							"type": "uint256"
						},
						{
							"internalType": "uint256",
							"name": "area",
							"type": "uint256"
						},
						{
							"internalType": "address",
							"name": "sellerAddress",
							"type": "address"
						},
						{
							"internalType": "address",
							"name": "buyerAddress",
							"type": "address"
						},
						{
							"internalType": "string",
							"name": "houseAddress",
							"type": "string"
						},
						{
							"internalType": "bool",
							"name": "isdelistedHouse",
							"type": "bool"
						}
					],
					"stateMutability": "view",
					"type": "function"
				},
				{
					"inputs": [
						{
							"internalType": "address",
							"name": "spender",
							"type": "address"
						},
						{
							"internalType": "uint256",
							"name": "addedValue",
							"type": "uint256"
						}
					],
					"name": "increaseAllowance",
					"outputs": [
						{
							"internalType": "bool",
							"name": "",
							"type": "bool"
						}
					],
					"stateMutability": "nonpayable",
					"type": "function"
				},
				{
					"inputs": [
						{
							"internalType": "uint256",
							"name": "_price",
							"type": "uint256"
						},
						{
							"internalType": "uint256",
							"name": "_priceDai",
							"type": "uint256"
						},
						{
							"internalType": "uint256",
							"name": "_area",
							"type": "uint256"
						},
						{
							"internalType": "address",
							"name": "_sellerAddress",
							"type": "address"
						},
						{
							"internalType": "string",
							"name": "_houseAddress",
							"type": "string"
						}
					],
					"name": "listHouse",
					"outputs": [
						{
							"internalType": "uint256",
							"name": "",
							"type": "uint256"
						}
					],
					"stateMutability": "nonpayable",
					"type": "function"
				},
				{
					"inputs": [],
					"name": "name",
					"outputs": [
						{
							"internalType": "string",
							"name": "",
							"type": "string"
						}
					],
					"stateMutability": "view",
					"type": "function"
				},
				{
					"inputs": [],
					"name": "symbol",
					"outputs": [
						{
							"internalType": "string",
							"name": "",
							"type": "string"
						}
					],
					"stateMutability": "view",
					"type": "function"
				},
				{
					"inputs": [],
					"name": "totalSupply",
					"outputs": [
						{
							"internalType": "uint256",
							"name": "",
							"type": "uint256"
						}
					],
					"stateMutability": "view",
					"type": "function"
				},
				{
					"inputs": [
						{
							"internalType": "address",
							"name": "recipient",
							"type": "address"
						},
						{
							"internalType": "uint256",
							"name": "amount",
							"type": "uint256"
						}
					],
					"name": "transfer",
					"outputs": [
						{
							"internalType": "bool",
							"name": "",
							"type": "bool"
						}
					],
					"stateMutability": "nonpayable",
					"type": "function"
				},
				{
					"inputs": [
						{
							"internalType": "address",
							"name": "sender",
							"type": "address"
						},
						{
							"internalType": "address",
							"name": "recipient",
							"type": "address"
						},
						{
							"internalType": "uint256",
							"name": "amount",
							"type": "uint256"
						}
					],
					"name": "transferFrom",
					"outputs": [
						{
							"internalType": "bool",
							"name": "",
							"type": "bool"
						}
					],
					"stateMutability": "nonpayable",
					"type": "function"
				}
			],
			"devdoc": {
				"kind": "dev",
				"methods": {
					"allowance(address,address)": {
						"details": "See {IERC20-allowance}."
					},
					"approve(address,uint256)": {
						"details": "See {IERC20-approve}. Requirements: - `spender` cannot be the zero address."
					},
					"balanceOf(address)": {
						"details": "See {IERC20-balanceOf}."
					},
					"decimals()": {
						"details": "Returns the number of decimals used to get its user representation. For example, if `decimals` equals `2`, a balance of `505` tokens should be displayed to a user as `5,05` (`505 / 10 ** 2`). Tokens usually opt for a value of 18, imitating the relationship between Ether and Wei. This is the value {ERC20} uses, unless this function is overloaded; NOTE: This information is only used for _display_ purposes: it in no way affects any of the arithmetic of the contract, including {IERC20-balanceOf} and {IERC20-transfer}."
					},
					"decreaseAllowance(address,uint256)": {
						"details": "Atomically decreases the allowance granted to `spender` by the caller. This is an alternative to {approve} that can be used as a mitigation for problems described in {IERC20-approve}. Emits an {Approval} event indicating the updated allowance. Requirements: - `spender` cannot be the zero address. - `spender` must have allowance for the caller of at least `subtractedValue`."
					},
					"increaseAllowance(address,uint256)": {
						"details": "Atomically increases the allowance granted to `spender` by the caller. This is an alternative to {approve} that can be used as a mitigation for problems described in {IERC20-approve}. Emits an {Approval} event indicating the updated allowance. Requirements: - `spender` cannot be the zero address."
					},
					"name()": {
						"details": "Returns the name of the token."
					},
					"symbol()": {
						"details": "Returns the symbol of the token, usually a shorter version of the name."
					},
					"totalSupply()": {
						"details": "See {IERC20-totalSupply}."
					},
					"transfer(address,uint256)": {
						"details": "See {IERC20-transfer}. Requirements: - `recipient` cannot be the zero address. - the caller must have a balance of at least `amount`."
					},
					"transferFrom(address,address,uint256)": {
						"details": "See {IERC20-transferFrom}. Emits an {Approval} event indicating the updated allowance. This is not required by the EIP. See the note at the beginning of {ERC20}. Requirements: - `sender` and `recipient` cannot be the zero address. - `sender` must have a balance of at least `amount`. - the caller must have allowance for ``sender``'s tokens of at least `amount`."
					}
				},
				"version": 1
			},
			"evm": {
				"assembly": "    /* \"contract/HouseRegistry.sol\":85:3020  contract HouseRegistry is ERC20 {... */\n  mstore(0x40, 0x80)\n    /* \"contract/HouseRegistry.sol\":402:403  5 */\n  0x05\n    /* \"contract/HouseRegistry.sol\":388:403  uint digits = 5 */\n  dup1\n  sstore\n    /* \"contract/HouseRegistry.sol\":430:436  digits */\n  sload(0x05)\n    /* \"contract/HouseRegistry.sol\":424:426  10 */\n  0x0a\n    /* \"contract/HouseRegistry.sol\":424:436  10 ** digits */\n  tag_1\n  swap2\n  swap1\n  tag_2\n  jump\t// in\ntag_1:\n    /* \"contract/HouseRegistry.sol\":409:436  uint modulus = 10 ** digits */\n  0x06\n  sstore\n    /* \"contract/HouseRegistry.sol\":462:468  1 days */\n  0x015180\n    /* \"contract/HouseRegistry.sol\":442:468  uint cooldownTime = 1 days */\n  0x07\n  sstore\n    /* \"contract/HouseRegistry.sol\":495:496  1 */\n  0x01\n    /* \"contract/HouseRegistry.sol\":474:496  uint countOfHouses = 1 */\n  0x08\n  sstore\n    /* \"contract/HouseRegistry.sol\":124:382  constructor(string memory name, string memory symbol) ... */\n  callvalue\n  dup1\n  iszero\n  tag_3\n  jumpi\n  0x00\n  dup1\n  revert\ntag_3:\n  pop\n  mload(0x40)\n  sub(codesize, bytecodeSize)\n  dup1\n  bytecodeSize\n  dup4\n  codecopy\n  dup2\n  dup2\n  add\n  0x40\n  mstore\n  dup2\n  add\n  swap1\n  tag_4\n  swap2\n  swap1\n  tag_5\n  jump\t// in\ntag_4:\n    /* \"contract/HouseRegistry.sol\":193:197  name */\n  dup2\n    /* \"contract/HouseRegistry.sol\":199:205  symbol */\n  dup2\n    /* \"contract/ERC20.sol\":1965:1970  name_ */\n  dup2\n    /* \"contract/ERC20.sol\":1957:1962  _name */\n  0x03\n    /* \"contract/ERC20.sol\":1957:1970  _name = name_ */\n  swap1\n  dup1\n  mload\n  swap1\n  0x20\n  add\n  swap1\n  tag_9\n  swap3\n  swap2\n  swap1\n  tag_10\n  jump\t// in\ntag_9:\n  pop\n    /* \"contract/ERC20.sol\":1991:1998  symbol_ */\n  dup1\n    /* \"contract/ERC20.sol\":1981:1988  _symbol */\n  0x04\n    /* \"contract/ERC20.sol\":1981:1998  _symbol = symbol_ */\n  swap1\n  dup1\n  mload\n  swap1\n  0x20\n  add\n  swap1\n  tag_11\n  swap3\n  swap2\n  swap1\n  tag_10\n  jump\t// in\ntag_11:\n  pop\n    /* \"contract/ERC20.sol\":1889:2006  constructor (string memory name_, string memory symbol_) {\r... */\n  pop\n  pop\n    /* \"contract/HouseRegistry.sol\":306:315  uint256 n */\n  0x00\n    /* \"contract/HouseRegistry.sol\":318:322  1000 */\n  0x03e8\n    /* \"contract/HouseRegistry.sol\":306:322  uint256 n = 1000 */\n  swap1\n  pop\n    /* \"contract/HouseRegistry.sol\":332:375  _mint(msg.sender, n * 10**uint(decimals())) */\n  tag_13\n    /* \"contract/HouseRegistry.sol\":338:348  msg.sender */\n  caller\n    /* \"contract/HouseRegistry.sol\":363:373  decimals() */\n  tag_14\n    /* \"contract/HouseRegistry.sol\":363:371  decimals */\n  shl(0x20, tag_15)\n    /* \"contract/HouseRegistry.sol\":363:373  decimals() */\n  0x20\n  shr\n  jump\t// in\ntag_14:\n    /* \"contract/HouseRegistry.sol\":358:374  uint(decimals()) */\n  0xff\n  and\n    /* \"contract/HouseRegistry.sol\":354:356  10 */\n  0x0a\n    /* \"contract/HouseRegistry.sol\":354:374  10**uint(decimals()) */\n  tag_16\n  swap2\n  swap1\n  tag_2\n  jump\t// in\ntag_16:\n    /* \"contract/HouseRegistry.sol\":350:351  n */\n  dup4\n    /* \"contract/HouseRegistry.sol\":350:374  n * 10**uint(decimals()) */\n  tag_17\n  swap2\n  swap1\n  tag_18\n  jump\t// in\ntag_17:\n    /* \"contract/HouseRegistry.sol\":332:337  _mint */\n  shl(0x20, tag_19)\n    /* \"contract/HouseRegistry.sol\":332:375  _mint(msg.sender, n * 10**uint(decimals())) */\n  0x20\n  shr\n  jump\t// in\ntag_13:\n    /* \"contract/HouseRegistry.sol\":207:382  {... */\n  pop\n    /* \"contract/HouseRegistry.sol\":124:382  constructor(string memory name, string memory symbol) ... */\n  pop\n  pop\n    /* \"contract/HouseRegistry.sol\":85:3020  contract HouseRegistry is ERC20 {... */\n  jump(tag_20)\n    /* \"contract/ERC20.sol\":3020:3104  function decimals() public view virtual returns (uint8) {\r... */\ntag_15:\n    /* \"contract/ERC20.sol\":3069:3074  uint8 */\n  0x00\n    /* \"contract/ERC20.sol\":3094:3096  18 */\n  0x12\n    /* \"contract/ERC20.sol\":3087:3096  return 18 */\n  swap1\n  pop\n    /* \"contract/ERC20.sol\":3020:3104  function decimals() public view virtual returns (uint8) {\r... */\n  swap1\n  jump\t// out\n    /* \"contract/ERC20.sol\":8169:8507  function _mint(address account, uint256 amount) internal virtual {\r... */\ntag_19:\n    /* \"contract/ERC20.sol\":8272:8273  0 */\n  0x00\n    /* \"contract/ERC20.sol\":8253:8274  account != address(0) */\n  0xffffffffffffffffffffffffffffffffffffffff\n  and\n    /* \"contract/ERC20.sol\":8253:8260  account */\n  dup3\n    /* \"contract/ERC20.sol\":8253:8274  account != address(0) */\n  0xffffffffffffffffffffffffffffffffffffffff\n  and\n  eq\n  iszero\n    /* \"contract/ERC20.sol\":8245:8310  require(account != address(0), \"ERC20: mint to the zero address\") */\n  tag_23\n  jumpi\n  mload(0x40)\n  0x08c379a000000000000000000000000000000000000000000000000000000000\n  dup2\n  mstore\n  0x04\n  add\n  tag_24\n  swap1\n  tag_25\n  jump\t// in\ntag_24:\n  mload(0x40)\n  dup1\n  swap2\n  sub\n  swap1\n  revert\ntag_23:\n    /* \"contract/ERC20.sol\":8323:8372  _beforeTokenTransfer(address(0), account, amount) */\n  tag_26\n    /* \"contract/ERC20.sol\":8352:8353  0 */\n  0x00\n    /* \"contract/ERC20.sol\":8356:8363  account */\n  dup4\n    /* \"contract/ERC20.sol\":8365:8371  amount */\n  dup4\n    /* \"contract/ERC20.sol\":8323:8343  _beforeTokenTransfer */\n  shl(0x20, tag_27)\n    /* \"contract/ERC20.sol\":8323:8372  _beforeTokenTransfer(address(0), account, amount) */\n  0x20\n  shr\n  jump\t// in\ntag_26:\n    /* \"contract/ERC20.sol\":8401:8407  amount */\n  dup1\n    /* \"contract/ERC20.sol\":8385:8397  _totalSupply */\n  0x02\n  0x00\n    /* \"contract/ERC20.sol\":8385:8407  _totalSupply += amount */\n  dup3\n  dup3\n  sload\n  tag_28\n  swap2\n  swap1\n  tag_29\n  jump\t// in\ntag_28:\n  swap3\n  pop\n  pop\n  dup2\n  swap1\n  sstore\n  pop\n    /* \"contract/ERC20.sol\":8440:8446  amount */\n  dup1\n    /* \"contract/ERC20.sol\":8418:8427  _balances */\n  0x00\n    /* \"contract/ERC20.sol\":8418:8436  _balances[account] */\n  dup1\n    /* \"contract/ERC20.sol\":8428:8435  account */\n  dup5\n    /* \"contract/ERC20.sol\":8418:8436  _balances[account] */\n  0xffffffffffffffffffffffffffffffffffffffff\n  and\n  0xffffffffffffffffffffffffffffffffffffffff\n  and\n  dup2\n  mstore\n  0x20\n  add\n  swap1\n  dup2\n  mstore\n  0x20\n  add\n  0x00\n  keccak256\n  0x00\n    /* \"contract/ERC20.sol\":8418:8446  _balances[account] += amount */\n  dup3\n  dup3\n  sload\n  tag_30\n  swap2\n  swap1\n  tag_29\n  jump\t// in\ntag_30:\n  swap3\n  pop\n  pop\n  dup2\n  swap1\n  sstore\n  pop\n    /* \"contract/ERC20.sol\":8483:8490  account */\n  dup2\n    /* \"contract/ERC20.sol\":8462:8499  Transfer(address(0), account, amount) */\n  0xffffffffffffffffffffffffffffffffffffffff\n  and\n    /* \"contract/ERC20.sol\":8479:8480  0 */\n  0x00\n    /* \"contract/ERC20.sol\":8462:8499  Transfer(address(0), account, amount) */\n  0xffffffffffffffffffffffffffffffffffffffff\n  and\n  0xddf252ad1be2c89b69c2b068fc378daa952ba7f163c4a11628f55a4df523b3ef\n    /* \"contract/ERC20.sol\":8492:8498  amount */\n  dup4\n    /* \"contract/ERC20.sol\":8462:8499  Transfer(address(0), account, amount) */\n  mload(0x40)\n  tag_31\n  swap2\n  swap1\n  tag_32\n  jump\t// in\ntag_31:\n  mload(0x40)\n  dup1\n  swap2\n  sub\n  swap1\n  log3\n    /* \"contract/ERC20.sol\":8169:8507  function _mint(address account, uint256 amount) internal virtual {\r... */\n  pop\n  pop\n  jump\t// out\n    /* \"contract/ERC20.sol\":10721:10813  function _beforeTokenTransfer(address from, address to, uint256 amount) internal virtual { } */\ntag_27:\n  pop\n  pop\n  pop\n  jump\t// out\n    /* \"contract/HouseRegistry.sol\":85:3020  contract HouseRegistry is ERC20 {... */\ntag_10:\n  dup3\n  dup1\n  sload\n  tag_34\n  swap1\n  tag_35\n  jump\t// in\ntag_34:\n  swap1\n  0x00\n  mstore\n  keccak256(0x00, 0x20)\n  swap1\n  0x1f\n  add\n  0x20\n  swap1\n  div\n  dup2\n  add\n  swap3\n  dup3\n  tag_37\n  jumpi\n  0x00\n  dup6\n  sstore\n  jump(tag_36)\ntag_37:\n  dup3\n  0x1f\n  lt\n  tag_38\n  jumpi\n  dup1\n  mload\n  not(0xff)\n  and\n  dup4\n  dup1\n  add\n  or\n  dup6\n  sstore\n  jump(tag_36)\ntag_38:\n  dup3\n  dup1\n  add\n  0x01\n  add\n  dup6\n  sstore\n  dup3\n  iszero\n  tag_36\n  jumpi\n  swap2\n  dup3\n  add\ntag_39:\n  dup3\n  dup2\n  gt\n  iszero\n  tag_40\n  jumpi\n  dup3\n  mload\n  dup3\n  sstore\n  swap2\n  0x20\n  add\n  swap2\n  swap1\n  0x01\n  add\n  swap1\n  jump(tag_39)\ntag_40:\ntag_36:\n  pop\n  swap1\n  pop\n  tag_41\n  swap2\n  swap1\n  tag_42\n  jump\t// in\ntag_41:\n  pop\n  swap1\n  jump\t// out\ntag_42:\ntag_43:\n  dup1\n  dup3\n  gt\n  iszero\n  tag_44\n  jumpi\n  0x00\n  dup2\n  0x00\n  swap1\n  sstore\n  pop\n  0x01\n  add\n  jump(tag_43)\ntag_44:\n  pop\n  swap1\n  jump\t// out\n    /* \"#utility.yul\":7:428   */\ntag_46:\n    /* \"#utility.yul\":96:101   */\n  0x00\n    /* \"#utility.yul\":121:187   */\n  tag_48\n    /* \"#utility.yul\":137:186   */\n  tag_49\n    /* \"#utility.yul\":179:185   */\n  dup5\n    /* \"#utility.yul\":137:186   */\n  tag_50\n  jump\t// in\ntag_49:\n    /* \"#utility.yul\":121:187   */\n  tag_51\n  jump\t// in\ntag_48:\n    /* \"#utility.yul\":112:187   */\n  swap1\n  pop\n    /* \"#utility.yul\":210:216   */\n  dup3\n    /* \"#utility.yul\":203:208   */\n  dup2\n    /* \"#utility.yul\":196:217   */\n  mstore\n    /* \"#utility.yul\":248:252   */\n  0x20\n    /* \"#utility.yul\":241:246   */\n  dup2\n    /* \"#utility.yul\":237:253   */\n  add\n    /* \"#utility.yul\":286:289   */\n  dup5\n    /* \"#utility.yul\":277:283   */\n  dup5\n    /* \"#utility.yul\":272:275   */\n  dup5\n    /* \"#utility.yul\":268:284   */\n  add\n    /* \"#utility.yul\":265:290   */\n  gt\n    /* \"#utility.yul\":262:374   */\n  iszero\n  tag_52\n  jumpi\n    /* \"#utility.yul\":293:372   */\n  tag_53\n  tag_54\n  jump\t// in\ntag_53:\n    /* \"#utility.yul\":262:374   */\ntag_52:\n    /* \"#utility.yul\":383:422   */\n  tag_55\n    /* \"#utility.yul\":415:421   */\n  dup5\n    /* \"#utility.yul\":410:413   */\n  dup3\n    /* \"#utility.yul\":405:408   */\n  dup6\n    /* \"#utility.yul\":383:422   */\n  tag_56\n  jump\t// in\ntag_55:\n    /* \"#utility.yul\":102:428   */\n  pop\n    /* \"#utility.yul\":7:428   */\n  swap4\n  swap3\n  pop\n  pop\n  pop\n  jump\t// out\n    /* \"#utility.yul\":448:803   */\ntag_57:\n    /* \"#utility.yul\":515:520   */\n  0x00\n    /* \"#utility.yul\":564:567   */\n  dup3\n    /* \"#utility.yul\":557:561   */\n  0x1f\n    /* \"#utility.yul\":549:555   */\n  dup4\n    /* \"#utility.yul\":545:562   */\n  add\n    /* \"#utility.yul\":541:568   */\n  slt\n    /* \"#utility.yul\":531:653   */\n  tag_59\n  jumpi\n    /* \"#utility.yul\":572:651   */\n  tag_60\n  tag_61\n  jump\t// in\ntag_60:\n    /* \"#utility.yul\":531:653   */\ntag_59:\n    /* \"#utility.yul\":682:688   */\n  dup2\n    /* \"#utility.yul\":676:689   */\n  mload\n    /* \"#utility.yul\":707:797   */\n  tag_62\n    /* \"#utility.yul\":793:796   */\n  dup5\n    /* \"#utility.yul\":785:791   */\n  dup3\n    /* \"#utility.yul\":778:782   */\n  0x20\n    /* \"#utility.yul\":770:776   */\n  dup7\n    /* \"#utility.yul\":766:783   */\n  add\n    /* \"#utility.yul\":707:797   */\n  tag_46\n  jump\t// in\ntag_62:\n    /* \"#utility.yul\":698:797   */\n  swap2\n  pop\n    /* \"#utility.yul\":521:803   */\n  pop\n    /* \"#utility.yul\":448:803   */\n  swap3\n  swap2\n  pop\n  pop\n  jump\t// out\n    /* \"#utility.yul\":809:1662   */\ntag_5:\n    /* \"#utility.yul\":908:914   */\n  0x00\n    /* \"#utility.yul\":916:922   */\n  dup1\n    /* \"#utility.yul\":965:967   */\n  0x40\n    /* \"#utility.yul\":953:962   */\n  dup4\n    /* \"#utility.yul\":944:951   */\n  dup6\n    /* \"#utility.yul\":940:963   */\n  sub\n    /* \"#utility.yul\":936:968   */\n  slt\n    /* \"#utility.yul\":933:1052   */\n  iszero\n  tag_64\n  jumpi\n    /* \"#utility.yul\":971:1050   */\n  tag_65\n  tag_66\n  jump\t// in\ntag_65:\n    /* \"#utility.yul\":933:1052   */\ntag_64:\n    /* \"#utility.yul\":1112:1113   */\n  0x00\n    /* \"#utility.yul\":1101:1110   */\n  dup4\n    /* \"#utility.yul\":1097:1114   */\n  add\n    /* \"#utility.yul\":1091:1115   */\n  mload\n    /* \"#utility.yul\":1142:1160   */\n  0xffffffffffffffff\n    /* \"#utility.yul\":1134:1140   */\n  dup2\n    /* \"#utility.yul\":1131:1161   */\n  gt\n    /* \"#utility.yul\":1128:1245   */\n  iszero\n  tag_67\n  jumpi\n    /* \"#utility.yul\":1164:1243   */\n  tag_68\n  tag_69\n  jump\t// in\ntag_68:\n    /* \"#utility.yul\":1128:1245   */\ntag_67:\n    /* \"#utility.yul\":1269:1343   */\n  tag_70\n    /* \"#utility.yul\":1335:1342   */\n  dup6\n    /* \"#utility.yul\":1326:1332   */\n  dup3\n    /* \"#utility.yul\":1315:1324   */\n  dup7\n    /* \"#utility.yul\":1311:1333   */\n  add\n    /* \"#utility.yul\":1269:1343   */\n  tag_57\n  jump\t// in\ntag_70:\n    /* \"#utility.yul\":1259:1343   */\n  swap3\n  pop\n    /* \"#utility.yul\":1062:1353   */\n  pop\n    /* \"#utility.yul\":1413:1415   */\n  0x20\n    /* \"#utility.yul\":1402:1411   */\n  dup4\n    /* \"#utility.yul\":1398:1416   */\n  add\n    /* \"#utility.yul\":1392:1417   */\n  mload\n    /* \"#utility.yul\":1444:1462   */\n  0xffffffffffffffff\n    /* \"#utility.yul\":1436:1442   */\n  dup2\n    /* \"#utility.yul\":1433:1463   */\n  gt\n    /* \"#utility.yul\":1430:1547   */\n  iszero\n  tag_71\n  jumpi\n    /* \"#utility.yul\":1466:1545   */\n  tag_72\n  tag_69\n  jump\t// in\ntag_72:\n    /* \"#utility.yul\":1430:1547   */\ntag_71:\n    /* \"#utility.yul\":1571:1645   */\n  tag_73\n    /* \"#utility.yul\":1637:1644   */\n  dup6\n    /* \"#utility.yul\":1628:1634   */\n  dup3\n    /* \"#utility.yul\":1617:1626   */\n  dup7\n    /* \"#utility.yul\":1613:1635   */\n  add\n    /* \"#utility.yul\":1571:1645   */\n  tag_57\n  jump\t// in\ntag_73:\n    /* \"#utility.yul\":1561:1645   */\n  swap2\n  pop\n    /* \"#utility.yul\":1363:1655   */\n  pop\n    /* \"#utility.yul\":809:1662   */\n  swap3\n  pop\n  swap3\n  swap1\n  pop\n  jump\t// out\n    /* \"#utility.yul\":1668:2034   */\ntag_74:\n    /* \"#utility.yul\":1810:1813   */\n  0x00\n    /* \"#utility.yul\":1831:1898   */\n  tag_76\n    /* \"#utility.yul\":1895:1897   */\n  0x1f\n    /* \"#utility.yul\":1890:1893   */\n  dup4\n    /* \"#utility.yul\":1831:1898   */\n  tag_77\n  jump\t// in\ntag_76:\n    /* \"#utility.yul\":1824:1898   */\n  swap2\n  pop\n    /* \"#utility.yul\":1907:2000   */\n  tag_78\n    /* \"#utility.yul\":1996:1999   */\n  dup3\n    /* \"#utility.yul\":1907:2000   */\n  tag_79\n  jump\t// in\ntag_78:\n    /* \"#utility.yul\":2025:2027   */\n  0x20\n    /* \"#utility.yul\":2020:2023   */\n  dup3\n    /* \"#utility.yul\":2016:2028   */\n  add\n    /* \"#utility.yul\":2009:2028   */\n  swap1\n  pop\n    /* \"#utility.yul\":1668:2034   */\n  swap2\n  swap1\n  pop\n  jump\t// out\n    /* \"#utility.yul\":2040:2158   */\ntag_80:\n    /* \"#utility.yul\":2127:2151   */\n  tag_82\n    /* \"#utility.yul\":2145:2150   */\n  dup2\n    /* \"#utility.yul\":2127:2151   */\n  tag_83\n  jump\t// in\ntag_82:\n    /* \"#utility.yul\":2122:2125   */\n  dup3\n    /* \"#utility.yul\":2115:2152   */\n  mstore\n    /* \"#utility.yul\":2040:2158   */\n  pop\n  pop\n  jump\t// out\n    /* \"#utility.yul\":2164:2583   */\ntag_25:\n    /* \"#utility.yul\":2330:2334   */\n  0x00\n    /* \"#utility.yul\":2368:2370   */\n  0x20\n    /* \"#utility.yul\":2357:2366   */\n  dup3\n    /* \"#utility.yul\":2353:2371   */\n  add\n    /* \"#utility.yul\":2345:2371   */\n  swap1\n  pop\n    /* \"#utility.yul\":2417:2426   */\n  dup2\n    /* \"#utility.yul\":2411:2415   */\n  dup2\n    /* \"#utility.yul\":2407:2427   */\n  sub\n    /* \"#utility.yul\":2403:2404   */\n  0x00\n    /* \"#utility.yul\":2392:2401   */\n  dup4\n    /* \"#utility.yul\":2388:2405   */\n  add\n    /* \"#utility.yul\":2381:2428   */\n  mstore\n    /* \"#utility.yul\":2445:2576   */\n  tag_85\n    /* \"#utility.yul\":2571:2575   */\n  dup2\n    /* \"#utility.yul\":2445:2576   */\n  tag_74\n  jump\t// in\ntag_85:\n    /* \"#utility.yul\":2437:2576   */\n  swap1\n  pop\n    /* \"#utility.yul\":2164:2583   */\n  swap2\n  swap1\n  pop\n  jump\t// out\n    /* \"#utility.yul\":2589:2811   */\ntag_32:\n    /* \"#utility.yul\":2682:2686   */\n  0x00\n    /* \"#utility.yul\":2720:2722   */\n  0x20\n    /* \"#utility.yul\":2709:2718   */\n  dup3\n    /* \"#utility.yul\":2705:2723   */\n  add\n    /* \"#utility.yul\":2697:2723   */\n  swap1\n  pop\n    /* \"#utility.yul\":2733:2804   */\n  tag_87\n    /* \"#utility.yul\":2801:2802   */\n  0x00\n    /* \"#utility.yul\":2790:2799   */\n  dup4\n    /* \"#utility.yul\":2786:2803   */\n  add\n    /* \"#utility.yul\":2777:2783   */\n  dup5\n    /* \"#utility.yul\":2733:2804   */\n  tag_80\n  jump\t// in\ntag_87:\n    /* \"#utility.yul\":2589:2811   */\n  swap3\n  swap2\n  pop\n  pop\n  jump\t// out\n    /* \"#utility.yul\":2817:2946   */\ntag_51:\n    /* \"#utility.yul\":2851:2857   */\n  0x00\n    /* \"#utility.yul\":2878:2898   */\n  tag_89\n  tag_90\n  jump\t// in\ntag_89:\n    /* \"#utility.yul\":2868:2898   */\n  swap1\n  pop\n    /* \"#utility.yul\":2907:2940   */\n  tag_91\n    /* \"#utility.yul\":2935:2939   */\n  dup3\n    /* \"#utility.yul\":2927:2933   */\n  dup3\n    /* \"#utility.yul\":2907:2940   */\n  tag_92\n  jump\t// in\ntag_91:\n    /* \"#utility.yul\":2817:2946   */\n  swap2\n  swap1\n  pop\n  jump\t// out\n    /* \"#utility.yul\":2952:3027   */\ntag_90:\n    /* \"#utility.yul\":2985:2991   */\n  0x00\n    /* \"#utility.yul\":3018:3020   */\n  0x40\n    /* \"#utility.yul\":3012:3021   */\n  mload\n    /* \"#utility.yul\":3002:3021   */\n  swap1\n  pop\n    /* \"#utility.yul\":2952:3027   */\n  swap1\n  jump\t// out\n    /* \"#utility.yul\":3033:3341   */\ntag_50:\n    /* \"#utility.yul\":3095:3099   */\n  0x00\n    /* \"#utility.yul\":3185:3203   */\n  0xffffffffffffffff\n    /* \"#utility.yul\":3177:3183   */\n  dup3\n    /* \"#utility.yul\":3174:3204   */\n  gt\n    /* \"#utility.yul\":3171:3227   */\n  iszero\n  tag_95\n  jumpi\n    /* \"#utility.yul\":3207:3225   */\n  tag_96\n  tag_97\n  jump\t// in\ntag_96:\n    /* \"#utility.yul\":3171:3227   */\ntag_95:\n    /* \"#utility.yul\":3245:3274   */\n  tag_98\n    /* \"#utility.yul\":3267:3273   */\n  dup3\n    /* \"#utility.yul\":3245:3274   */\n  tag_99\n  jump\t// in\ntag_98:\n    /* \"#utility.yul\":3237:3274   */\n  swap1\n  pop\n    /* \"#utility.yul\":3329:3333   */\n  0x20\n    /* \"#utility.yul\":3323:3327   */\n  dup2\n    /* \"#utility.yul\":3319:3334   */\n  add\n    /* \"#utility.yul\":3311:3334   */\n  swap1\n  pop\n    /* \"#utility.yul\":3033:3341   */\n  swap2\n  swap1\n  pop\n  jump\t// out\n    /* \"#utility.yul\":3347:3516   */\ntag_77:\n    /* \"#utility.yul\":3431:3442   */\n  0x00\n    /* \"#utility.yul\":3465:3471   */\n  dup3\n    /* \"#utility.yul\":3460:3463   */\n  dup3\n    /* \"#utility.yul\":3453:3472   */\n  mstore\n    /* \"#utility.yul\":3505:3509   */\n  0x20\n    /* \"#utility.yul\":3500:3503   */\n  dup3\n    /* \"#utility.yul\":3496:3510   */\n  add\n    /* \"#utility.yul\":3481:3510   */\n  swap1\n  pop\n    /* \"#utility.yul\":3347:3516   */\n  swap3\n  swap2\n  pop\n  pop\n  jump\t// out\n    /* \"#utility.yul\":3522:3827   */\ntag_29:\n    /* \"#utility.yul\":3562:3565   */\n  0x00\n    /* \"#utility.yul\":3581:3601   */\n  tag_102\n    /* \"#utility.yul\":3599:3600   */\n  dup3\n    /* \"#utility.yul\":3581:3601   */\n  tag_83\n  jump\t// in\ntag_102:\n    /* \"#utility.yul\":3576:3601   */\n  swap2\n  pop\n    /* \"#utility.yul\":3615:3635   */\n  tag_103\n    /* \"#utility.yul\":3633:3634   */\n  dup4\n    /* \"#utility.yul\":3615:3635   */\n  tag_83\n  jump\t// in\ntag_103:\n    /* \"#utility.yul\":3610:3635   */\n  swap3\n  pop\n    /* \"#utility.yul\":3769:3770   */\n  dup3\n    /* \"#utility.yul\":3701:3767   */\n  0xffffffffffffffffffffffffffffffffffffffffffffffffffffffffffffffff\n    /* \"#utility.yul\":3697:3771   */\n  sub\n    /* \"#utility.yul\":3694:3695   */\n  dup3\n    /* \"#utility.yul\":3691:3772   */\n  gt\n    /* \"#utility.yul\":3688:3795   */\n  iszero\n  tag_104\n  jumpi\n    /* \"#utility.yul\":3775:3793   */\n  tag_105\n  tag_106\n  jump\t// in\ntag_105:\n    /* \"#utility.yul\":3688:3795   */\ntag_104:\n    /* \"#utility.yul\":3819:3820   */\n  dup3\n    /* \"#utility.yul\":3816:3817   */\n  dup3\n    /* \"#utility.yul\":3812:3821   */\n  add\n    /* \"#utility.yul\":3805:3821   */\n  swap1\n  pop\n    /* \"#utility.yul\":3522:3827   */\n  swap3\n  swap2\n  pop\n  pop\n  jump\t// out\n    /* \"#utility.yul\":3833:4681   */\ntag_107:\n    /* \"#utility.yul\":3894:3899   */\n  0x00\n    /* \"#utility.yul\":3901:3905   */\n  dup1\n    /* \"#utility.yul\":3925:3931   */\n  dup3\n    /* \"#utility.yul\":3916:3931   */\n  swap2\n  pop\n    /* \"#utility.yul\":3949:3954   */\n  dup4\n    /* \"#utility.yul\":3940:3954   */\n  swap1\n  pop\n    /* \"#utility.yul\":3963:4675   */\ntag_109:\n    /* \"#utility.yul\":3984:3985   */\n  0x01\n    /* \"#utility.yul\":3974:3982   */\n  dup6\n    /* \"#utility.yul\":3971:3986   */\n  gt\n    /* \"#utility.yul\":3963:4675   */\n  iszero\n  tag_111\n  jumpi\n    /* \"#utility.yul\":4079:4083   */\n  dup1\n    /* \"#utility.yul\":4074:4077   */\n  dup7\n    /* \"#utility.yul\":4070:4084   */\n  div\n    /* \"#utility.yul\":4064:4068   */\n  dup2\n    /* \"#utility.yul\":4061:4085   */\n  gt\n    /* \"#utility.yul\":4058:4108   */\n  iszero\n  tag_112\n  jumpi\n    /* \"#utility.yul\":4088:4106   */\n  tag_113\n  tag_106\n  jump\t// in\ntag_113:\n    /* \"#utility.yul\":4058:4108   */\ntag_112:\n    /* \"#utility.yul\":4138:4139   */\n  0x01\n    /* \"#utility.yul\":4128:4136   */\n  dup6\n    /* \"#utility.yul\":4124:4140   */\n  and\n    /* \"#utility.yul\":4121:4572   */\n  iszero\n  tag_114\n  jumpi\n    /* \"#utility.yul\":4553:4557   */\n  dup1\n    /* \"#utility.yul\":4546:4551   */\n  dup3\n    /* \"#utility.yul\":4542:4558   */\n  mul\n    /* \"#utility.yul\":4533:4558   */\n  swap2\n  pop\n    /* \"#utility.yul\":4121:4572   */\ntag_114:\n    /* \"#utility.yul\":4603:4607   */\n  dup1\n    /* \"#utility.yul\":4597:4601   */\n  dup2\n    /* \"#utility.yul\":4593:4608   */\n  mul\n    /* \"#utility.yul\":4585:4608   */\n  swap1\n  pop\n    /* \"#utility.yul\":4633:4665   */\n  tag_115\n    /* \"#utility.yul\":4656:4664   */\n  dup6\n    /* \"#utility.yul\":4633:4665   */\n  tag_116\n  jump\t// in\ntag_115:\n    /* \"#utility.yul\":4621:4665   */\n  swap5\n  pop\n    /* \"#utility.yul\":3963:4675   */\n  jump(tag_109)\ntag_111:\n    /* \"#utility.yul\":3833:4681   */\n  swap5\n  pop\n  swap5\n  swap3\n  pop\n  pop\n  pop\n  jump\t// out\n    /* \"#utility.yul\":4687:4972   */\ntag_2:\n    /* \"#utility.yul\":4747:4752   */\n  0x00\n    /* \"#utility.yul\":4771:4794   */\n  tag_118\n    /* \"#utility.yul\":4789:4793   */\n  dup3\n    /* \"#utility.yul\":4771:4794   */\n  tag_83\n  jump\t// in\ntag_118:\n    /* \"#utility.yul\":4763:4794   */\n  swap2\n  pop\n    /* \"#utility.yul\":4815:4842   */\n  tag_119\n    /* \"#utility.yul\":4833:4841   */\n  dup4\n    /* \"#utility.yul\":4815:4842   */\n  tag_83\n  jump\t// in\ntag_119:\n    /* \"#utility.yul\":4803:4842   */\n  swap3\n  pop\n    /* \"#utility.yul\":4861:4965   */\n  tag_120\n    /* \"#utility.yul\":4898:4964   */\n  0xffffffffffffffffffffffffffffffffffffffffffffffffffffffffffffffff\n    /* \"#utility.yul\":4888:4896   */\n  dup5\n    /* \"#utility.yul\":4882:4886   */\n  dup5\n    /* \"#utility.yul\":4861:4965   */\n  tag_121\n  jump\t// in\ntag_120:\n    /* \"#utility.yul\":4852:4965   */\n  swap1\n  pop\n    /* \"#utility.yul\":4687:4972   */\n  swap3\n  swap2\n  pop\n  pop\n  jump\t// out\n    /* \"#utility.yul\":4978:6051   */\ntag_121:\n    /* \"#utility.yul\":5032:5037   */\n  0x00\n    /* \"#utility.yul\":5223:5231   */\n  dup3\n    /* \"#utility.yul\":5213:5253   */\n  tag_123\n  jumpi\n    /* \"#utility.yul\":5244:5245   */\n  0x01\n    /* \"#utility.yul\":5235:5245   */\n  swap1\n  pop\n    /* \"#utility.yul\":5246:5251   */\n  jump(tag_122)\n    /* \"#utility.yul\":5213:5253   */\ntag_123:\n    /* \"#utility.yul\":5272:5276   */\n  dup2\n    /* \"#utility.yul\":5262:5298   */\n  tag_124\n  jumpi\n    /* \"#utility.yul\":5289:5290   */\n  0x00\n    /* \"#utility.yul\":5280:5290   */\n  swap1\n  pop\n    /* \"#utility.yul\":5291:5296   */\n  jump(tag_122)\n    /* \"#utility.yul\":5262:5298   */\ntag_124:\n    /* \"#utility.yul\":5358:5362   */\n  dup2\n    /* \"#utility.yul\":5406:5407   */\n  0x01\n    /* \"#utility.yul\":5401:5428   */\n  dup2\n  eq\n  tag_126\n  jumpi\n    /* \"#utility.yul\":5442:5443   */\n  0x02\n    /* \"#utility.yul\":5437:5628   */\n  dup2\n  eq\n  tag_127\n  jumpi\n    /* \"#utility.yul\":5351:5628   */\n  jump(tag_125)\n    /* \"#utility.yul\":5401:5428   */\ntag_126:\n    /* \"#utility.yul\":5419:5420   */\n  0x01\n    /* \"#utility.yul\":5410:5420   */\n  swap2\n  pop\n    /* \"#utility.yul\":5421:5426   */\n  pop\n  jump(tag_122)\n    /* \"#utility.yul\":5437:5628   */\ntag_127:\n    /* \"#utility.yul\":5482:5485   */\n  0xff\n    /* \"#utility.yul\":5472:5480   */\n  dup5\n    /* \"#utility.yul\":5469:5486   */\n  gt\n    /* \"#utility.yul\":5466:5509   */\n  iszero\n  tag_128\n  jumpi\n    /* \"#utility.yul\":5489:5507   */\n  tag_129\n  tag_106\n  jump\t// in\ntag_129:\n    /* \"#utility.yul\":5466:5509   */\ntag_128:\n    /* \"#utility.yul\":5538:5546   */\n  dup4\n    /* \"#utility.yul\":5535:5536   */\n  0x02\n    /* \"#utility.yul\":5531:5547   */\n  exp\n    /* \"#utility.yul\":5522:5547   */\n  swap2\n  pop\n    /* \"#utility.yul\":5573:5576   */\n  dup5\n    /* \"#utility.yul\":5566:5571   */\n  dup3\n    /* \"#utility.yul\":5563:5577   */\n  gt\n    /* \"#utility.yul\":5560:5600   */\n  iszero\n  tag_130\n  jumpi\n    /* \"#utility.yul\":5580:5598   */\n  tag_131\n  tag_106\n  jump\t// in\ntag_131:\n    /* \"#utility.yul\":5560:5600   */\ntag_130:\n    /* \"#utility.yul\":5613:5618   */\n  pop\n  jump(tag_122)\n    /* \"#utility.yul\":5351:5628   */\ntag_125:\n  pop\n    /* \"#utility.yul\":5737:5739   */\n  0x20\n    /* \"#utility.yul\":5727:5735   */\n  dup4\n    /* \"#utility.yul\":5724:5740   */\n  lt\n    /* \"#utility.yul\":5718:5721   */\n  0x0133\n    /* \"#utility.yul\":5712:5716   */\n  dup4\n    /* \"#utility.yul\":5709:5722   */\n  lt\n    /* \"#utility.yul\":5705:5741   */\n  and\n    /* \"#utility.yul\":5687:5689   */\n  0x4e\n    /* \"#utility.yul\":5677:5685   */\n  dup5\n    /* \"#utility.yul\":5674:5690   */\n  lt\n    /* \"#utility.yul\":5669:5671   */\n  0x0b\n    /* \"#utility.yul\":5663:5667   */\n  dup5\n    /* \"#utility.yul\":5660:5672   */\n  lt\n    /* \"#utility.yul\":5656:5691   */\n  and\n    /* \"#utility.yul\":5640:5751   */\n  or\n    /* \"#utility.yul\":5637:5883   */\n  iszero\n  tag_132\n  jumpi\n    /* \"#utility.yul\":5793:5801   */\n  dup3\n    /* \"#utility.yul\":5787:5791   */\n  dup3\n    /* \"#utility.yul\":5783:5802   */\n  exp\n    /* \"#utility.yul\":5774:5802   */\n  swap1\n  pop\n    /* \"#utility.yul\":5828:5831   */\n  dup4\n    /* \"#utility.yul\":5821:5826   */\n  dup2\n    /* \"#utility.yul\":5818:5832   */\n  gt\n    /* \"#utility.yul\":5815:5855   */\n  iszero\n  tag_133\n  jumpi\n    /* \"#utility.yul\":5835:5853   */\n  tag_134\n  tag_106\n  jump\t// in\ntag_134:\n    /* \"#utility.yul\":5815:5855   */\ntag_133:\n    /* \"#utility.yul\":5868:5873   */\n  jump(tag_122)\n    /* \"#utility.yul\":5637:5883   */\ntag_132:\n    /* \"#utility.yul\":5908:5950   */\n  tag_135\n    /* \"#utility.yul\":5946:5949   */\n  dup5\n    /* \"#utility.yul\":5936:5944   */\n  dup5\n    /* \"#utility.yul\":5930:5934   */\n  dup5\n    /* \"#utility.yul\":5927:5928   */\n  0x01\n    /* \"#utility.yul\":5908:5950   */\n  tag_107\n  jump\t// in\ntag_135:\n    /* \"#utility.yul\":5893:5950   */\n  swap3\n  pop\n  swap1\n  pop\n    /* \"#utility.yul\":5982:5986   */\n  dup2\n    /* \"#utility.yul\":5977:5980   */\n  dup5\n    /* \"#utility.yul\":5973:5987   */\n  div\n    /* \"#utility.yul\":5966:5971   */\n  dup2\n    /* \"#utility.yul\":5963:5988   */\n  gt\n    /* \"#utility.yul\":5960:6011   */\n  iszero\n  tag_136\n  jumpi\n    /* \"#utility.yul\":5991:6009   */\n  tag_137\n  tag_106\n  jump\t// in\ntag_137:\n    /* \"#utility.yul\":5960:6011   */\ntag_136:\n    /* \"#utility.yul\":6040:6044   */\n  dup2\n    /* \"#utility.yul\":6033:6038   */\n  dup2\n    /* \"#utility.yul\":6029:6045   */\n  mul\n    /* \"#utility.yul\":6020:6045   */\n  swap1\n  pop\n    /* \"#utility.yul\":4978:6051   */\ntag_122:\n  swap4\n  swap3\n  pop\n  pop\n  pop\n  jump\t// out\n    /* \"#utility.yul\":6057:6405   */\ntag_18:\n    /* \"#utility.yul\":6097:6104   */\n  0x00\n    /* \"#utility.yul\":6120:6140   */\n  tag_139\n    /* \"#utility.yul\":6138:6139   */\n  dup3\n    /* \"#utility.yul\":6120:6140   */\n  tag_83\n  jump\t// in\ntag_139:\n    /* \"#utility.yul\":6115:6140   */\n  swap2\n  pop\n    /* \"#utility.yul\":6154:6174   */\n  tag_140\n    /* \"#utility.yul\":6172:6173   */\n  dup4\n    /* \"#utility.yul\":6154:6174   */\n  tag_83\n  jump\t// in\ntag_140:\n    /* \"#utility.yul\":6149:6174   */\n  swap3\n  pop\n    /* \"#utility.yul\":6342:6343   */\n  dup2\n    /* \"#utility.yul\":6274:6340   */\n  0xffffffffffffffffffffffffffffffffffffffffffffffffffffffffffffffff\n    /* \"#utility.yul\":6270:6344   */\n  div\n    /* \"#utility.yul\":6267:6268   */\n  dup4\n    /* \"#utility.yul\":6264:6345   */\n  gt\n    /* \"#utility.yul\":6259:6260   */\n  dup3\n    /* \"#utility.yul\":6252:6261   */\n  iszero\n    /* \"#utility.yul\":6245:6262   */\n  iszero\n    /* \"#utility.yul\":6241:6346   */\n  and\n    /* \"#utility.yul\":6238:6369   */\n  iszero\n  tag_141\n  jumpi\n    /* \"#utility.yul\":6349:6367   */\n  tag_142\n  tag_106\n  jump\t// in\ntag_142:\n    /* \"#utility.yul\":6238:6369   */\ntag_141:\n    /* \"#utility.yul\":6397:6398   */\n  dup3\n    /* \"#utility.yul\":6394:6395   */\n  dup3\n    /* \"#utility.yul\":6390:6399   */\n  mul\n    /* \"#utility.yul\":6379:6399   */\n  swap1\n  pop\n    /* \"#utility.yul\":6057:6405   */\n  swap3\n  swap2\n  pop\n  pop\n  jump\t// out\n    /* \"#utility.yul\":6411:6488   */\ntag_83:\n    /* \"#utility.yul\":6448:6455   */\n  0x00\n    /* \"#utility.yul\":6477:6482   */\n  dup2\n    /* \"#utility.yul\":6466:6482   */\n  swap1\n  pop\n    /* \"#utility.yul\":6411:6488   */\n  swap2\n  swap1\n  pop\n  jump\t// out\n    /* \"#utility.yul\":6494:6801   */\ntag_56:\n    /* \"#utility.yul\":6562:6563   */\n  0x00\n    /* \"#utility.yul\":6572:6685   */\ntag_145:\n    /* \"#utility.yul\":6586:6592   */\n  dup4\n    /* \"#utility.yul\":6583:6584   */\n  dup2\n    /* \"#utility.yul\":6580:6593   */\n  lt\n    /* \"#utility.yul\":6572:6685   */\n  iszero\n  tag_147\n  jumpi\n    /* \"#utility.yul\":6671:6672   */\n  dup1\n    /* \"#utility.yul\":6666:6669   */\n  dup3\n    /* \"#utility.yul\":6662:6673   */\n  add\n    /* \"#utility.yul\":6656:6674   */\n  mload\n    /* \"#utility.yul\":6652:6653   */\n  dup2\n    /* \"#utility.yul\":6647:6650   */\n  dup5\n    /* \"#utility.yul\":6643:6654   */\n  add\n    /* \"#utility.yul\":6636:6675   */\n  mstore\n    /* \"#utility.yul\":6608:6610   */\n  0x20\n    /* \"#utility.yul\":6605:6606   */\n  dup2\n    /* \"#utility.yul\":6601:6611   */\n  add\n    /* \"#utility.yul\":6596:6611   */\n  swap1\n  pop\n    /* \"#utility.yul\":6572:6685   */\n  jump(tag_145)\ntag_147:\n    /* \"#utility.yul\":6703:6709   */\n  dup4\n    /* \"#utility.yul\":6700:6701   */\n  dup2\n    /* \"#utility.yul\":6697:6710   */\n  gt\n    /* \"#utility.yul\":6694:6795   */\n  iszero\n  tag_148\n  jumpi\n    /* \"#utility.yul\":6783:6784   */\n  0x00\n    /* \"#utility.yul\":6774:6780   */\n  dup5\n    /* \"#utility.yul\":6769:6772   */\n  dup5\n    /* \"#utility.yul\":6765:6781   */\n  add\n    /* \"#utility.yul\":6758:6785   */\n  mstore\n    /* \"#utility.yul\":6694:6795   */\ntag_148:\n    /* \"#utility.yul\":6543:6801   */\n  pop\n    /* \"#utility.yul\":6494:6801   */\n  pop\n  pop\n  pop\n  jump\t// out\n    /* \"#utility.yul\":6807:7127   */\ntag_35:\n    /* \"#utility.yul\":6851:6857   */\n  0x00\n    /* \"#utility.yul\":6888:6889   */\n  0x02\n    /* \"#utility.yul\":6882:6886   */\n  dup3\n    /* \"#utility.yul\":6878:6890   */\n  div\n    /* \"#utility.yul\":6868:6890   */\n  swap1\n  pop\n    /* \"#utility.yul\":6935:6936   */\n  0x01\n    /* \"#utility.yul\":6929:6933   */\n  dup3\n    /* \"#utility.yul\":6925:6937   */\n  and\n    /* \"#utility.yul\":6956:6974   */\n  dup1\n    /* \"#utility.yul\":6946:7027   */\n  tag_150\n  jumpi\n    /* \"#utility.yul\":7012:7016   */\n  0x7f\n    /* \"#utility.yul\":7004:7010   */\n  dup3\n    /* \"#utility.yul\":7000:7017   */\n  and\n    /* \"#utility.yul\":6990:7017   */\n  swap2\n  pop\n    /* \"#utility.yul\":6946:7027   */\ntag_150:\n    /* \"#utility.yul\":7074:7076   */\n  0x20\n    /* \"#utility.yul\":7066:7072   */\n  dup3\n    /* \"#utility.yul\":7063:7077   */\n  lt\n    /* \"#utility.yul\":7043:7061   */\n  dup2\n    /* \"#utility.yul\":7040:7078   */\n  eq\n    /* \"#utility.yul\":7037:7121   */\n  iszero\n  tag_151\n  jumpi\n    /* \"#utility.yul\":7093:7111   */\n  tag_152\n  tag_153\n  jump\t// in\ntag_152:\n    /* \"#utility.yul\":7037:7121   */\ntag_151:\n    /* \"#utility.yul\":6858:7127   */\n  pop\n    /* \"#utility.yul\":6807:7127   */\n  swap2\n  swap1\n  pop\n  jump\t// out\n    /* \"#utility.yul\":7133:7414   */\ntag_92:\n    /* \"#utility.yul\":7216:7243   */\n  tag_155\n    /* \"#utility.yul\":7238:7242   */\n  dup3\n    /* \"#utility.yul\":7216:7243   */\n  tag_99\n  jump\t// in\ntag_155:\n    /* \"#utility.yul\":7208:7214   */\n  dup2\n    /* \"#utility.yul\":7204:7244   */\n  add\n    /* \"#utility.yul\":7346:7352   */\n  dup2\n    /* \"#utility.yul\":7334:7344   */\n  dup2\n    /* \"#utility.yul\":7331:7353   */\n  lt\n    /* \"#utility.yul\":7310:7328   */\n  0xffffffffffffffff\n    /* \"#utility.yul\":7298:7308   */\n  dup3\n    /* \"#utility.yul\":7295:7329   */\n  gt\n    /* \"#utility.yul\":7292:7354   */\n  or\n    /* \"#utility.yul\":7289:7377   */\n  iszero\n  tag_156\n  jumpi\n    /* \"#utility.yul\":7357:7375   */\n  tag_157\n  tag_97\n  jump\t// in\ntag_157:\n    /* \"#utility.yul\":7289:7377   */\ntag_156:\n    /* \"#utility.yul\":7397:7407   */\n  dup1\n    /* \"#utility.yul\":7393:7395   */\n  0x40\n    /* \"#utility.yul\":7386:7408   */\n  mstore\n    /* \"#utility.yul\":7176:7414   */\n  pop\n    /* \"#utility.yul\":7133:7414   */\n  pop\n  pop\n  jump\t// out\n    /* \"#utility.yul\":7420:7600   */\ntag_106:\n    /* \"#utility.yul\":7468:7545   */\n  0x4e487b7100000000000000000000000000000000000000000000000000000000\n    /* \"#utility.yul\":7465:7466   */\n  0x00\n    /* \"#utility.yul\":7458:7546   */\n  mstore\n    /* \"#utility.yul\":7565:7569   */\n  0x11\n    /* \"#utility.yul\":7562:7563   */\n  0x04\n    /* \"#utility.yul\":7555:7570   */\n  mstore\n    /* \"#utility.yul\":7589:7593   */\n  0x24\n    /* \"#utility.yul\":7586:7587   */\n  0x00\n    /* \"#utility.yul\":7579:7594   */\n  revert\n    /* \"#utility.yul\":7606:7786   */\ntag_153:\n    /* \"#utility.yul\":7654:7731   */\n  0x4e487b7100000000000000000000000000000000000000000000000000000000\n    /* \"#utility.yul\":7651:7652   */\n  0x00\n    /* \"#utility.yul\":7644:7732   */\n  mstore\n    /* \"#utility.yul\":7751:7755   */\n  0x22\n    /* \"#utility.yul\":7748:7749   */\n  0x04\n    /* \"#utility.yul\":7741:7756   */\n  mstore\n    /* \"#utility.yul\":7775:7779   */\n  0x24\n    /* \"#utility.yul\":7772:7773   */\n  0x00\n    /* \"#utility.yul\":7765:7780   */\n  revert\n    /* \"#utility.yul\":7792:7972   */\ntag_97:\n    /* \"#utility.yul\":7840:7917   */\n  0x4e487b7100000000000000000000000000000000000000000000000000000000\n    /* \"#utility.yul\":7837:7838   */\n  0x00\n    /* \"#utility.yul\":7830:7918   */\n  mstore\n    /* \"#utility.yul\":7937:7941   */\n  0x41\n    /* \"#utility.yul\":7934:7935   */\n  0x04\n    /* \"#utility.yul\":7927:7942   */\n  mstore\n    /* \"#utility.yul\":7961:7965   */\n  0x24\n    /* \"#utility.yul\":7958:7959   */\n  0x00\n    /* \"#utility.yul\":7951:7966   */\n  revert\n    /* \"#utility.yul\":7978:8095   */\ntag_61:\n    /* \"#utility.yul\":8087:8088   */\n  0x00\n    /* \"#utility.yul\":8084:8085   */\n  dup1\n    /* \"#utility.yul\":8077:8089   */\n  revert\n    /* \"#utility.yul\":8101:8218   */\ntag_54:\n    /* \"#utility.yul\":8210:8211   */\n  0x00\n    /* \"#utility.yul\":8207:8208   */\n  dup1\n    /* \"#utility.yul\":8200:8212   */\n  revert\n    /* \"#utility.yul\":8224:8341   */\ntag_69:\n    /* \"#utility.yul\":8333:8334   */\n  0x00\n    /* \"#utility.yul\":8330:8331   */\n  dup1\n    /* \"#utility.yul\":8323:8335   */\n  revert\n    /* \"#utility.yul\":8347:8464   */\ntag_66:\n    /* \"#utility.yul\":8456:8457   */\n  0x00\n    /* \"#utility.yul\":8453:8454   */\n  dup1\n    /* \"#utility.yul\":8446:8458   */\n  revert\n    /* \"#utility.yul\":8470:8572   */\ntag_99:\n    /* \"#utility.yul\":8511:8517   */\n  0x00\n    /* \"#utility.yul\":8562:8564   */\n  0x1f\n    /* \"#utility.yul\":8558:8565   */\n  not\n    /* \"#utility.yul\":8553:8555   */\n  0x1f\n    /* \"#utility.yul\":8546:8551   */\n  dup4\n    /* \"#utility.yul\":8542:8556   */\n  add\n    /* \"#utility.yul\":8538:8566   */\n  and\n    /* \"#utility.yul\":8528:8566   */\n  swap1\n  pop\n    /* \"#utility.yul\":8470:8572   */\n  swap2\n  swap1\n  pop\n  jump\t// out\n    /* \"#utility.yul\":8578:8680   */\ntag_116:\n    /* \"#utility.yul\":8620:8628   */\n  0x00\n    /* \"#utility.yul\":8667:8672   */\n  dup2\n    /* \"#utility.yul\":8664:8665   */\n  0x01\n    /* \"#utility.yul\":8660:8673   */\n  shr\n    /* \"#utility.yul\":8639:8673   */\n  swap1\n  pop\n    /* \"#utility.yul\":8578:8680   */\n  swap2\n  swap1\n  pop\n  jump\t// out\n    /* \"#utility.yul\":8686:8867   */\ntag_79:\n    /* \"#utility.yul\":8826:8859   */\n  0x45524332303a206d696e7420746f20746865207a65726f206164647265737300\n    /* \"#utility.yul\":8822:8823   */\n  0x00\n    /* \"#utility.yul\":8814:8820   */\n  dup3\n    /* \"#utility.yul\":8810:8824   */\n  add\n    /* \"#utility.yul\":8803:8860   */\n  mstore\n    /* \"#utility.yul\":8686:8867   */\n  pop\n  jump\t// out\n    /* \"contract/HouseRegistry.sol\":85:3020  contract HouseRegistry is ERC20 {... */\ntag_20:\n  dataSize(sub_0)\n  dup1\n  dataOffset(sub_0)\n  0x00\n  codecopy\n  0x00\n  return\nstop\n\nsub_0: assembly {\n        /* \"contract/HouseRegistry.sol\":85:3020  contract HouseRegistry is ERC20 {... */\n      mstore(0x40, 0x80)\n      callvalue\n      dup1\n      iszero\n      tag_1\n      jumpi\n      0x00\n      dup1\n      revert\n    tag_1:\n      pop\n      jumpi(tag_2, lt(calldatasize, 0x04))\n      shr(0xe0, calldataload(0x00))\n      dup1\n      0x3c3b0b4a\n      gt\n      tag_18\n      jumpi\n      dup1\n      0xa9059cbb\n      gt\n      tag_19\n      jumpi\n      dup1\n      0xa9059cbb\n      eq\n      tag_14\n      jumpi\n      dup1\n      0xaeda852f\n      eq\n      tag_15\n      jumpi\n      dup1\n      0xc45e1b25\n      eq\n      tag_16\n      jumpi\n      dup1\n      0xdd62ed3e\n      eq\n      tag_17\n      jumpi\n      jump(tag_2)\n    tag_19:\n      dup1\n      0x3c3b0b4a\n      eq\n      tag_10\n      jumpi\n      dup1\n      0x70a08231\n      eq\n      tag_11\n      jumpi\n      dup1\n      0x95d89b41\n      eq\n      tag_12\n      jumpi\n      dup1\n      0xa457c2d7\n      eq\n      tag_13\n      jumpi\n      jump(tag_2)\n    tag_18:\n      dup1\n      0x19161161\n      gt\n      tag_20\n      jumpi\n      dup1\n      0x19161161\n      eq\n      tag_6\n      jumpi\n      dup1\n      0x23b872dd\n      eq\n      tag_7\n      jumpi\n      dup1\n      0x313ce567\n      eq\n      tag_8\n      jumpi\n      dup1\n      0x39509351\n      eq\n      tag_9\n      jumpi\n      jump(tag_2)\n    tag_20:\n      dup1\n      0x06fdde03\n      eq\n      tag_3\n      jumpi\n      dup1\n      0x095ea7b3\n      eq\n      tag_4\n      jumpi\n      dup1\n      0x18160ddd\n      eq\n      tag_5\n      jumpi\n    tag_2:\n      0x00\n      dup1\n      revert\n        /* \"contract/ERC20.sol\":2076:2167  function name() public view virtual returns (string memory) {\r... */\n    tag_3:\n      tag_21\n      tag_22\n      jump\t// in\n    tag_21:\n      mload(0x40)\n      tag_23\n      swap2\n      swap1\n      tag_24\n      jump\t// in\n    tag_23:\n      mload(0x40)\n      dup1\n      swap2\n      sub\n      swap1\n      return\n        /* \"contract/ERC20.sol\":4216:4385  function approve(address spender, uint256 amount) public virtual override returns (bool) {\r... */\n    tag_4:\n      tag_25\n      0x04\n      dup1\n      calldatasize\n      sub\n      dup2\n      add\n      swap1\n      tag_26\n      swap2\n      swap1\n      tag_27\n      jump\t// in\n    tag_26:\n      tag_28\n      jump\t// in\n    tag_25:\n      mload(0x40)\n      tag_29\n      swap2\n      swap1\n      tag_30\n      jump\t// in\n    tag_29:\n      mload(0x40)\n      dup1\n      swap2\n      sub\n      swap1\n      return\n        /* \"contract/ERC20.sol\":3169:3277  function totalSupply() public view virtual override returns (uint256) {\r... */\n    tag_5:\n      tag_31\n      tag_32\n      jump\t// in\n    tag_31:\n      mload(0x40)\n      tag_33\n      swap2\n      swap1\n      tag_34\n      jump\t// in\n    tag_33:\n      mload(0x40)\n      dup1\n      swap2\n      sub\n      swap1\n      return\n        /* \"contract/HouseRegistry.sol\":1214:1938  function listHouse (uint _price, uint _priceDai, uint _area, address _sellerAddress, string memory _houseAddress) public returns (uint) {... */\n    tag_6:\n      tag_35\n      0x04\n      dup1\n      calldatasize\n      sub\n      dup2\n      add\n      swap1\n      tag_36\n      swap2\n      swap1\n      tag_37\n      jump\t// in\n    tag_36:\n      tag_38\n      jump\t// in\n    tag_35:\n      mload(0x40)\n      tag_39\n      swap2\n      swap1\n      tag_34\n      jump\t// in\n    tag_39:\n      mload(0x40)\n      dup1\n      swap2\n      sub\n      swap1\n      return\n        /* \"contract/ERC20.sol\":4867:5289  function transferFrom(address sender, address recipient, uint256 amount) public virtual override returns (bool) {\r... */\n    tag_7:\n      tag_40\n      0x04\n      dup1\n      calldatasize\n      sub\n      dup2\n      add\n      swap1\n      tag_41\n      swap2\n      swap1\n      tag_42\n      jump\t// in\n    tag_41:\n      tag_43\n      jump\t// in\n    tag_40:\n      mload(0x40)\n      tag_44\n      swap2\n      swap1\n      tag_30\n      jump\t// in\n    tag_44:\n      mload(0x40)\n      dup1\n      swap2\n      sub\n      swap1\n      return\n        /* \"contract/ERC20.sol\":3020:3104  function decimals() public view virtual returns (uint8) {\r... */\n    tag_8:\n      tag_45\n      tag_46\n      jump\t// in\n    tag_45:\n      mload(0x40)\n      tag_47\n      swap2\n      swap1\n      tag_48\n      jump\t// in\n    tag_47:\n      mload(0x40)\n      dup1\n      swap2\n      sub\n      swap1\n      return\n        /* \"contract/ERC20.sol\":5698:5913  function increaseAllowance(address spender, uint256 addedValue) public virtual returns (bool) {\r... */\n    tag_9:\n      tag_49\n      0x04\n      dup1\n      calldatasize\n      sub\n      dup2\n      add\n      swap1\n      tag_50\n      swap2\n      swap1\n      tag_27\n      jump\t// in\n    tag_50:\n      tag_51\n      jump\t// in\n    tag_49:\n      mload(0x40)\n      tag_52\n      swap2\n      swap1\n      tag_30\n      jump\t// in\n    tag_52:\n      mload(0x40)\n      dup1\n      swap2\n      sub\n      swap1\n      return\n        /* \"contract/HouseRegistry.sol\":1944:2213  function delistHouse(uint houseId) public returns (string memory){... */\n    tag_10:\n      tag_53\n      0x04\n      dup1\n      calldatasize\n      sub\n      dup2\n      add\n      swap1\n      tag_54\n      swap2\n      swap1\n      tag_55\n      jump\t// in\n    tag_54:\n      tag_56\n      jump\t// in\n    tag_53:\n      mload(0x40)\n      tag_57\n      swap2\n      swap1\n      tag_24\n      jump\t// in\n    tag_57:\n      mload(0x40)\n      dup1\n      swap2\n      sub\n      swap1\n      return\n        /* \"contract/ERC20.sol\":3340:3467  function balanceOf(address account) public view virtual override returns (uint256) {\r... */\n    tag_11:\n      tag_58\n      0x04\n      dup1\n      calldatasize\n      sub\n      dup2\n      add\n      swap1\n      tag_59\n      swap2\n      swap1\n      tag_60\n      jump\t// in\n    tag_59:\n      tag_61\n      jump\t// in\n    tag_58:\n      mload(0x40)\n      tag_62\n      swap2\n      swap1\n      tag_34\n      jump\t// in\n    tag_62:\n      mload(0x40)\n      dup1\n      swap2\n      sub\n      swap1\n      return\n        /* \"contract/ERC20.sol\":2286:2381  function symbol() public view virtual returns (string memory) {\r... */\n    tag_12:\n      tag_63\n      tag_64\n      jump\t// in\n    tag_63:\n      mload(0x40)\n      tag_65\n      swap2\n      swap1\n      tag_24\n      jump\t// in\n    tag_65:\n      mload(0x40)\n      dup1\n      swap2\n      sub\n      swap1\n      return\n        /* \"contract/ERC20.sol\":6416:6793  function decreaseAllowance(address spender, uint256 subtractedValue) public virtual returns (bool) {\r... */\n    tag_13:\n      tag_66\n      0x04\n      dup1\n      calldatasize\n      sub\n      dup2\n      add\n      swap1\n      tag_67\n      swap2\n      swap1\n      tag_27\n      jump\t// in\n    tag_67:\n      tag_68\n      jump\t// in\n    tag_66:\n      mload(0x40)\n      tag_69\n      swap2\n      swap1\n      tag_30\n      jump\t// in\n    tag_69:\n      mload(0x40)\n      dup1\n      swap2\n      sub\n      swap1\n      return\n        /* \"contract/ERC20.sol\":3680:3855  function transfer(address recipient, uint256 amount) public virtual override returns (bool) {\r... */\n    tag_14:\n      tag_70\n      0x04\n      dup1\n      calldatasize\n      sub\n      dup2\n      add\n      swap1\n      tag_71\n      swap2\n      swap1\n      tag_27\n      jump\t// in\n    tag_71:\n      tag_72\n      jump\t// in\n    tag_70:\n      mload(0x40)\n      tag_73\n      swap2\n      swap1\n      tag_30\n      jump\t// in\n    tag_73:\n      mload(0x40)\n      dup1\n      swap2\n      sub\n      swap1\n      return\n        /* \"contract/HouseRegistry.sol\":1073:1109  mapping(uint => House) public houses */\n    tag_15:\n      tag_74\n      0x04\n      dup1\n      calldatasize\n      sub\n      dup2\n      add\n      swap1\n      tag_75\n      swap2\n      swap1\n      tag_55\n      jump\t// in\n    tag_75:\n      tag_76\n      jump\t// in\n    tag_74:\n      mload(0x40)\n      tag_77\n      swap10\n      swap9\n      swap8\n      swap7\n      swap6\n      swap5\n      swap4\n      swap3\n      swap2\n      swap1\n      tag_78\n      jump\t// in\n    tag_77:\n      mload(0x40)\n      dup1\n      swap2\n      sub\n      swap1\n      return\n        /* \"contract/HouseRegistry.sol\":2219:2757  function getCheapHouseIds(uint cost) external view returns (uint[]memory){... */\n    tag_16:\n      tag_79\n      0x04\n      dup1\n      calldatasize\n      sub\n      dup2\n      add\n      swap1\n      tag_80\n      swap2\n      swap1\n      tag_55\n      jump\t// in\n    tag_80:\n      tag_81\n      jump\t// in\n    tag_79:\n      mload(0x40)\n      tag_82\n      swap2\n      swap1\n      tag_83\n      jump\t// in\n    tag_82:\n      mload(0x40)\n      dup1\n      swap2\n      sub\n      swap1\n      return\n        /* \"contract/ERC20.sol\":3918:4069  function allowance(address owner, address spender) public view virtual override returns (uint256) {\r... */\n    tag_17:\n      tag_84\n      0x04\n      dup1\n      calldatasize\n      sub\n      dup2\n      add\n      swap1\n      tag_85\n      swap2\n      swap1\n      tag_86\n      jump\t// in\n    tag_85:\n      tag_87\n      jump\t// in\n    tag_84:\n      mload(0x40)\n      tag_88\n      swap2\n      swap1\n      tag_34\n      jump\t// in\n    tag_88:\n      mload(0x40)\n      dup1\n      swap2\n      sub\n      swap1\n      return\n        /* \"contract/ERC20.sol\":2076:2167  function name() public view virtual returns (string memory) {\r... */\n    tag_22:\n        /* \"contract/ERC20.sol\":2121:2134  string memory */\n      0x60\n        /* \"contract/ERC20.sol\":2154:2159  _name */\n      0x03\n        /* \"contract/ERC20.sol\":2147:2159  return _name */\n      dup1\n      sload\n      tag_90\n      swap1\n      tag_91\n      jump\t// in\n    tag_90:\n      dup1\n      0x1f\n      add\n      0x20\n      dup1\n      swap2\n      div\n      mul\n      0x20\n      add\n      mload(0x40)\n      swap1\n      dup2\n      add\n      0x40\n      mstore\n      dup1\n      swap3\n      swap2\n      swap1\n      dup2\n      dup2\n      mstore\n      0x20\n      add\n      dup3\n      dup1\n      sload\n      tag_92\n      swap1\n      tag_91\n      jump\t// in\n    tag_92:\n      dup1\n      iszero\n      tag_93\n      jumpi\n      dup1\n      0x1f\n      lt\n      tag_94\n      jumpi\n      0x0100\n      dup1\n      dup4\n      sload\n      div\n      mul\n      dup4\n      mstore\n      swap2\n      0x20\n      add\n      swap2\n      jump(tag_93)\n    tag_94:\n      dup3\n      add\n      swap2\n      swap1\n      0x00\n      mstore\n      keccak256(0x00, 0x20)\n      swap1\n    tag_95:\n      dup2\n      sload\n      dup2\n      mstore\n      swap1\n      0x01\n      add\n      swap1\n      0x20\n      add\n      dup1\n      dup4\n      gt\n      tag_95\n      jumpi\n      dup3\n      swap1\n      sub\n      0x1f\n      and\n      dup3\n      add\n      swap2\n    tag_93:\n      pop\n      pop\n      pop\n      pop\n      pop\n      swap1\n      pop\n        /* \"contract/ERC20.sol\":2076:2167  function name() public view virtual returns (string memory) {\r... */\n      swap1\n      jump\t// out\n        /* \"contract/ERC20.sol\":4216:4385  function approve(address spender, uint256 amount) public virtual override returns (bool) {\r... */\n    tag_28:\n        /* \"contract/ERC20.sol\":4299:4303  bool */\n      0x00\n        /* \"contract/ERC20.sol\":4316:4355  _approve(_msgSender(), spender, amount) */\n      tag_97\n        /* \"contract/ERC20.sol\":4325:4337  _msgSender() */\n      tag_98\n        /* \"contract/ERC20.sol\":4325:4335  _msgSender */\n      tag_99\n        /* \"contract/ERC20.sol\":4325:4337  _msgSender() */\n      jump\t// in\n    tag_98:\n        /* \"contract/ERC20.sol\":4339:4346  spender */\n      dup5\n        /* \"contract/ERC20.sol\":4348:4354  amount */\n      dup5\n        /* \"contract/ERC20.sol\":4316:4324  _approve */\n      tag_100\n        /* \"contract/ERC20.sol\":4316:4355  _approve(_msgSender(), spender, amount) */\n      jump\t// in\n    tag_97:\n        /* \"contract/ERC20.sol\":4373:4377  true */\n      0x01\n        /* \"contract/ERC20.sol\":4366:4377  return true */\n      swap1\n      pop\n        /* \"contract/ERC20.sol\":4216:4385  function approve(address spender, uint256 amount) public virtual override returns (bool) {\r... */\n      swap3\n      swap2\n      pop\n      pop\n      jump\t// out\n        /* \"contract/ERC20.sol\":3169:3277  function totalSupply() public view virtual override returns (uint256) {\r... */\n    tag_32:\n        /* \"contract/ERC20.sol\":3230:3237  uint256 */\n      0x00\n        /* \"contract/ERC20.sol\":3257:3269  _totalSupply */\n      sload(0x02)\n        /* \"contract/ERC20.sol\":3250:3269  return _totalSupply */\n      swap1\n      pop\n        /* \"contract/ERC20.sol\":3169:3277  function totalSupply() public view virtual override returns (uint256) {\r... */\n      swap1\n      jump\t// out\n        /* \"contract/HouseRegistry.sol\":1214:1938  function listHouse (uint _price, uint _priceDai, uint _area, address _sellerAddress, string memory _houseAddress) public returns (uint) {... */\n    tag_38:\n        /* \"contract/HouseRegistry.sol\":1344:1348  uint */\n      0x00\n        /* \"contract/HouseRegistry.sol\":1385:1386  0 */\n      dup1\n        /* \"contract/HouseRegistry.sol\":1377:1382  _area */\n      dup5\n        /* \"contract/HouseRegistry.sol\":1368:1374  _price */\n      dup8\n        /* \"contract/HouseRegistry.sol\":1368:1382  _price * _area */\n      tag_103\n      swap2\n      swap1\n      tag_104\n      jump\t// in\n    tag_103:\n        /* \"contract/HouseRegistry.sol\":1368:1386  _price * _area > 0 */\n      gt\n        /* \"contract/HouseRegistry.sol\":1360:1411  require(_price * _area > 0, \"value cannot be null\") */\n      tag_105\n      jumpi\n      mload(0x40)\n      0x08c379a000000000000000000000000000000000000000000000000000000000\n      dup2\n      mstore\n      0x04\n      add\n      tag_106\n      swap1\n      tag_107\n      jump\t// in\n    tag_106:\n      mload(0x40)\n      dup1\n      swap2\n      sub\n      swap1\n      revert\n    tag_105:\n        /* \"contract/HouseRegistry.sol\":1421:1433  uint houseId */\n      0x00\n        /* \"contract/HouseRegistry.sol\":1436:1490  _generateHouseId(_sellerAddress, _area, _houseAddress) */\n      tag_108\n        /* \"contract/HouseRegistry.sol\":1453:1467  _sellerAddress */\n      dup5\n        /* \"contract/HouseRegistry.sol\":1469:1474  _area */\n      dup7\n        /* \"contract/HouseRegistry.sol\":1476:1489  _houseAddress */\n      dup6\n        /* \"contract/HouseRegistry.sol\":1436:1452  _generateHouseId */\n      tag_109\n        /* \"contract/HouseRegistry.sol\":1436:1490  _generateHouseId(_sellerAddress, _area, _houseAddress) */\n      jump\t// in\n    tag_108:\n        /* \"contract/HouseRegistry.sol\":1421:1490  uint houseId = _generateHouseId(_sellerAddress, _area, _houseAddress) */\n      swap1\n      pop\n        /* \"contract/HouseRegistry.sol\":1519:1525  houses */\n      0x0b\n        /* \"contract/HouseRegistry.sol\":1519:1534  houses[houseId] */\n      0x00\n        /* \"contract/HouseRegistry.sol\":1526:1533  houseId */\n      dup3\n        /* \"contract/HouseRegistry.sol\":1519:1534  houses[houseId] */\n      dup2\n      mstore\n      0x20\n      add\n      swap1\n      dup2\n      mstore\n      0x20\n      add\n      0x00\n      keccak256\n        /* \"contract/HouseRegistry.sol\":1519:1537  houses[houseId].id */\n      0x00\n      add\n      sload\n        /* \"contract/HouseRegistry.sol\":1508:1515  houseId */\n      dup2\n        /* \"contract/HouseRegistry.sol\":1508:1537  houseId != houses[houseId].id */\n      eq\n      iszero\n        /* \"contract/HouseRegistry.sol\":1500:1569  require(houseId != houses[houseId].id, \"this houseId already exists\") */\n      tag_110\n      jumpi\n      mload(0x40)\n      0x08c379a000000000000000000000000000000000000000000000000000000000\n      dup2\n      mstore\n      0x04\n      add\n      tag_111\n      swap1\n      tag_112\n      jump\t// in\n    tag_111:\n      mload(0x40)\n      dup1\n      swap2\n      sub\n      swap1\n      revert\n    tag_110:\n        /* \"contract/HouseRegistry.sol\":1597:1706  House(houseId, countOfHouses, _price, _priceDai, _area, _sellerAddress, _sellerAddress, _houseAddress, false) */\n      mload(0x40)\n      dup1\n      0x0120\n      add\n      0x40\n      mstore\n      dup1\n        /* \"contract/HouseRegistry.sol\":1603:1610  houseId */\n      dup3\n        /* \"contract/HouseRegistry.sol\":1597:1706  House(houseId, countOfHouses, _price, _priceDai, _area, _sellerAddress, _sellerAddress, _houseAddress, false) */\n      dup2\n      mstore\n      0x20\n      add\n        /* \"contract/HouseRegistry.sol\":1612:1625  countOfHouses */\n      sload(0x08)\n        /* \"contract/HouseRegistry.sol\":1597:1706  House(houseId, countOfHouses, _price, _priceDai, _area, _sellerAddress, _sellerAddress, _houseAddress, false) */\n      dup2\n      mstore\n      0x20\n      add\n        /* \"contract/HouseRegistry.sol\":1627:1633  _price */\n      dup9\n        /* \"contract/HouseRegistry.sol\":1597:1706  House(houseId, countOfHouses, _price, _priceDai, _area, _sellerAddress, _sellerAddress, _houseAddress, false) */\n      dup2\n      mstore\n      0x20\n      add\n        /* \"contract/HouseRegistry.sol\":1635:1644  _priceDai */\n      dup8\n        /* \"contract/HouseRegistry.sol\":1597:1706  House(houseId, countOfHouses, _price, _priceDai, _area, _sellerAddress, _sellerAddress, _houseAddress, false) */\n      dup2\n      mstore\n      0x20\n      add\n        /* \"contract/HouseRegistry.sol\":1646:1651  _area */\n      dup7\n        /* \"contract/HouseRegistry.sol\":1597:1706  House(houseId, countOfHouses, _price, _priceDai, _area, _sellerAddress, _sellerAddress, _houseAddress, false) */\n      dup2\n      mstore\n      0x20\n      add\n        /* \"contract/HouseRegistry.sol\":1653:1667  _sellerAddress */\n      dup6\n        /* \"contract/HouseRegistry.sol\":1597:1706  House(houseId, countOfHouses, _price, _priceDai, _area, _sellerAddress, _sellerAddress, _houseAddress, false) */\n      0xffffffffffffffffffffffffffffffffffffffff\n      and\n      dup2\n      mstore\n      0x20\n      add\n        /* \"contract/HouseRegistry.sol\":1669:1683  _sellerAddress */\n      dup6\n        /* \"contract/HouseRegistry.sol\":1597:1706  House(houseId, countOfHouses, _price, _priceDai, _area, _sellerAddress, _sellerAddress, _houseAddress, false) */\n      0xffffffffffffffffffffffffffffffffffffffff\n      and\n      dup2\n      mstore\n      0x20\n      add\n        /* \"contract/HouseRegistry.sol\":1685:1698  _houseAddress */\n      dup5\n        /* \"contract/HouseRegistry.sol\":1597:1706  House(houseId, countOfHouses, _price, _priceDai, _area, _sellerAddress, _sellerAddress, _houseAddress, false) */\n      dup2\n      mstore\n      0x20\n      add\n        /* \"contract/HouseRegistry.sol\":1700:1705  false */\n      0x00\n        /* \"contract/HouseRegistry.sol\":1597:1706  House(houseId, countOfHouses, _price, _priceDai, _area, _sellerAddress, _sellerAddress, _houseAddress, false) */\n      iszero\n      iszero\n      dup2\n      mstore\n      pop\n        /* \"contract/HouseRegistry.sol\":1579:1585  houses */\n      0x0b\n        /* \"contract/HouseRegistry.sol\":1579:1594  houses[houseId] */\n      0x00\n        /* \"contract/HouseRegistry.sol\":1586:1593  houseId */\n      dup4\n        /* \"contract/HouseRegistry.sol\":1579:1594  houses[houseId] */\n      dup2\n      mstore\n      0x20\n      add\n      swap1\n      dup2\n      mstore\n      0x20\n      add\n      0x00\n      keccak256\n        /* \"contract/HouseRegistry.sol\":1579:1706  houses[houseId] = House(houseId, countOfHouses, _price, _priceDai, _area, _sellerAddress, _sellerAddress, _houseAddress, false) */\n      0x00\n      dup3\n      add\n      mload\n      dup2\n      0x00\n      add\n      sstore\n      0x20\n      dup3\n      add\n      mload\n      dup2\n      0x01\n      add\n      sstore\n      0x40\n      dup3\n      add\n      mload\n      dup2\n      0x02\n      add\n      sstore\n      0x60\n      dup3\n      add\n      mload\n      dup2\n      0x03\n      add\n      sstore\n      0x80\n      dup3\n      add\n      mload\n      dup2\n      0x04\n      add\n      sstore\n      0xa0\n      dup3\n      add\n      mload\n      dup2\n      0x05\n      add\n      exp(0x0100, 0x00)\n      dup2\n      sload\n      dup2\n      0xffffffffffffffffffffffffffffffffffffffff\n      mul\n      not\n      and\n      swap1\n      dup4\n      0xffffffffffffffffffffffffffffffffffffffff\n      and\n      mul\n      or\n      swap1\n      sstore\n      pop\n      0xc0\n      dup3\n      add\n      mload\n      dup2\n      0x06\n      add\n      exp(0x0100, 0x00)\n      dup2\n      sload\n      dup2\n      0xffffffffffffffffffffffffffffffffffffffff\n      mul\n      not\n      and\n      swap1\n      dup4\n      0xffffffffffffffffffffffffffffffffffffffff\n      and\n      mul\n      or\n      swap1\n      sstore\n      pop\n      0xe0\n      dup3\n      add\n      mload\n      dup2\n      0x07\n      add\n      swap1\n      dup1\n      mload\n      swap1\n      0x20\n      add\n      swap1\n      tag_113\n      swap3\n      swap2\n      swap1\n      tag_114\n      jump\t// in\n    tag_113:\n      pop\n      0x0100\n      dup3\n      add\n      mload\n      dup2\n      0x08\n      add\n      exp(0x0100, 0x00)\n      dup2\n      sload\n      dup2\n      0xff\n      mul\n      not\n      and\n      swap1\n      dup4\n      iszero\n      iszero\n      mul\n      or\n      swap1\n      sstore\n      pop\n      swap1\n      pop\n      pop\n        /* \"contract/HouseRegistry.sol\":1717:1763  _ownerCooldown(block.timestamp + cooldownTime) */\n      tag_115\n        /* \"contract/HouseRegistry.sol\":1750:1762  cooldownTime */\n      sload(0x07)\n        /* \"contract/HouseRegistry.sol\":1732:1747  block.timestamp */\n      timestamp\n        /* \"contract/HouseRegistry.sol\":1732:1762  block.timestamp + cooldownTime */\n      tag_116\n      swap2\n      swap1\n      tag_117\n      jump\t// in\n    tag_116:\n        /* \"contract/HouseRegistry.sol\":1717:1731  _ownerCooldown */\n      tag_118\n        /* \"contract/HouseRegistry.sol\":1717:1763  _ownerCooldown(block.timestamp + cooldownTime) */\n      jump\t// in\n    tag_115:\n        /* \"contract/HouseRegistry.sol\":1773:1783  houseIndex */\n      0x0a\n        /* \"contract/HouseRegistry.sol\":1789:1796  houseId */\n      dup2\n        /* \"contract/HouseRegistry.sol\":1773:1797  houseIndex.push(houseId) */\n      swap1\n      dup1\n      0x01\n      dup2\n      sload\n      add\n      dup1\n      dup3\n      sstore\n      dup1\n      swap2\n      pop\n      pop\n      0x01\n      swap1\n      sub\n      swap1\n      0x00\n      mstore\n      keccak256(0x00, 0x20)\n      add\n      0x00\n      swap1\n      swap2\n      swap1\n      swap2\n      swap1\n      swap2\n      pop\n      sstore\n        /* \"contract/HouseRegistry.sol\":1807:1820  countOfHouses */\n      0x08\n      0x00\n        /* \"contract/HouseRegistry.sol\":1807:1822  countOfHouses++ */\n      dup2\n      sload\n      dup1\n      swap3\n      swap2\n      swap1\n      tag_120\n      swap1\n      tag_121\n      jump\t// in\n    tag_120:\n      swap2\n      swap1\n      pop\n      sstore\n      pop\n        /* \"contract/HouseRegistry.sol\":1837:1907  AddNewHouse(houseId, _sellerAddress, _price, _priceDai, _houseAddress) */\n      0x3070c472a527c6fdf9d1d29d3f8de3f74a2de6ef97db5cc15b587188b278951f\n        /* \"contract/HouseRegistry.sol\":1849:1856  houseId */\n      dup2\n        /* \"contract/HouseRegistry.sol\":1858:1872  _sellerAddress */\n      dup6\n        /* \"contract/HouseRegistry.sol\":1874:1880  _price */\n      dup10\n        /* \"contract/HouseRegistry.sol\":1882:1891  _priceDai */\n      dup10\n        /* \"contract/HouseRegistry.sol\":1893:1906  _houseAddress */\n      dup8\n        /* \"contract/HouseRegistry.sol\":1837:1907  AddNewHouse(houseId, _sellerAddress, _price, _priceDai, _houseAddress) */\n      mload(0x40)\n      tag_122\n      swap6\n      swap5\n      swap4\n      swap3\n      swap2\n      swap1\n      tag_123\n      jump\t// in\n    tag_122:\n      mload(0x40)\n      dup1\n      swap2\n      sub\n      swap1\n      log1\n        /* \"contract/HouseRegistry.sol\":1924:1931  houseId */\n      dup1\n        /* \"contract/HouseRegistry.sol\":1917:1931  return houseId */\n      swap2\n      pop\n      pop\n        /* \"contract/HouseRegistry.sol\":1214:1938  function listHouse (uint _price, uint _priceDai, uint _area, address _sellerAddress, string memory _houseAddress) public returns (uint) {... */\n      swap6\n      swap5\n      pop\n      pop\n      pop\n      pop\n      pop\n      jump\t// out\n        /* \"contract/ERC20.sol\":4867:5289  function transferFrom(address sender, address recipient, uint256 amount) public virtual override returns (bool) {\r... */\n    tag_43:\n        /* \"contract/ERC20.sol\":4973:4977  bool */\n      0x00\n        /* \"contract/ERC20.sol\":4990:5026  _transfer(sender, recipient, amount) */\n      tag_125\n        /* \"contract/ERC20.sol\":5000:5006  sender */\n      dup5\n        /* \"contract/ERC20.sol\":5008:5017  recipient */\n      dup5\n        /* \"contract/ERC20.sol\":5019:5025  amount */\n      dup5\n        /* \"contract/ERC20.sol\":4990:4999  _transfer */\n      tag_126\n        /* \"contract/ERC20.sol\":4990:5026  _transfer(sender, recipient, amount) */\n      jump\t// in\n    tag_125:\n        /* \"contract/ERC20.sol\":5039:5063  uint256 currentAllowance */\n      0x00\n        /* \"contract/ERC20.sol\":5066:5077  _allowances */\n      0x01\n        /* \"contract/ERC20.sol\":5066:5085  _allowances[sender] */\n      0x00\n        /* \"contract/ERC20.sol\":5078:5084  sender */\n      dup7\n        /* \"contract/ERC20.sol\":5066:5085  _allowances[sender] */\n      0xffffffffffffffffffffffffffffffffffffffff\n      and\n      0xffffffffffffffffffffffffffffffffffffffff\n      and\n      dup2\n      mstore\n      0x20\n      add\n      swap1\n      dup2\n      mstore\n      0x20\n      add\n      0x00\n      keccak256\n        /* \"contract/ERC20.sol\":5066:5099  _allowances[sender][_msgSender()] */\n      0x00\n        /* \"contract/ERC20.sol\":5086:5098  _msgSender() */\n      tag_127\n        /* \"contract/ERC20.sol\":5086:5096  _msgSender */\n      tag_99\n        /* \"contract/ERC20.sol\":5086:5098  _msgSender() */\n      jump\t// in\n    tag_127:\n        /* \"contract/ERC20.sol\":5066:5099  _allowances[sender][_msgSender()] */\n      0xffffffffffffffffffffffffffffffffffffffff\n      and\n      0xffffffffffffffffffffffffffffffffffffffff\n      and\n      dup2\n      mstore\n      0x20\n      add\n      swap1\n      dup2\n      mstore\n      0x20\n      add\n      0x00\n      keccak256\n      sload\n        /* \"contract/ERC20.sol\":5039:5099  uint256 currentAllowance = _allowances[sender][_msgSender()] */\n      swap1\n      pop\n        /* \"contract/ERC20.sol\":5138:5144  amount */\n      dup3\n        /* \"contract/ERC20.sol\":5118:5134  currentAllowance */\n      dup2\n        /* \"contract/ERC20.sol\":5118:5144  currentAllowance >= amount */\n      lt\n      iszero\n        /* \"contract/ERC20.sol\":5110:5189  require(currentAllowance >= amount, \"ERC20: transfer amount exceeds allowance\") */\n      tag_128\n      jumpi\n      mload(0x40)\n      0x08c379a000000000000000000000000000000000000000000000000000000000\n      dup2\n      mstore\n      0x04\n      add\n      tag_129\n      swap1\n      tag_130\n      jump\t// in\n    tag_129:\n      mload(0x40)\n      dup1\n      swap2\n      sub\n      swap1\n      revert\n    tag_128:\n        /* \"contract/ERC20.sol\":5200:5257  _approve(sender, _msgSender(), currentAllowance - amount) */\n      tag_131\n        /* \"contract/ERC20.sol\":5209:5215  sender */\n      dup6\n        /* \"contract/ERC20.sol\":5217:5229  _msgSender() */\n      tag_132\n        /* \"contract/ERC20.sol\":5217:5227  _msgSender */\n      tag_99\n        /* \"contract/ERC20.sol\":5217:5229  _msgSender() */\n      jump\t// in\n    tag_132:\n        /* \"contract/ERC20.sol\":5250:5256  amount */\n      dup6\n        /* \"contract/ERC20.sol\":5231:5247  currentAllowance */\n      dup5\n        /* \"contract/ERC20.sol\":5231:5256  currentAllowance - amount */\n      tag_133\n      swap2\n      swap1\n      tag_134\n      jump\t// in\n    tag_133:\n        /* \"contract/ERC20.sol\":5200:5208  _approve */\n      tag_100\n        /* \"contract/ERC20.sol\":5200:5257  _approve(sender, _msgSender(), currentAllowance - amount) */\n      jump\t// in\n    tag_131:\n        /* \"contract/ERC20.sol\":5277:5281  true */\n      0x01\n        /* \"contract/ERC20.sol\":5270:5281  return true */\n      swap2\n      pop\n      pop\n        /* \"contract/ERC20.sol\":4867:5289  function transferFrom(address sender, address recipient, uint256 amount) public virtual override returns (bool) {\r... */\n      swap4\n      swap3\n      pop\n      pop\n      pop\n      jump\t// out\n        /* \"contract/ERC20.sol\":3020:3104  function decimals() public view virtual returns (uint8) {\r... */\n    tag_46:\n        /* \"contract/ERC20.sol\":3069:3074  uint8 */\n      0x00\n        /* \"contract/ERC20.sol\":3094:3096  18 */\n      0x12\n        /* \"contract/ERC20.sol\":3087:3096  return 18 */\n      swap1\n      pop\n        /* \"contract/ERC20.sol\":3020:3104  function decimals() public view virtual returns (uint8) {\r... */\n      swap1\n      jump\t// out\n        /* \"contract/ERC20.sol\":5698:5913  function increaseAllowance(address spender, uint256 addedValue) public virtual returns (bool) {\r... */\n    tag_51:\n        /* \"contract/ERC20.sol\":5786:5790  bool */\n      0x00\n        /* \"contract/ERC20.sol\":5803:5883  _approve(_msgSender(), spender, _allowances[_msgSender()][spender] + addedValue) */\n      tag_137\n        /* \"contract/ERC20.sol\":5812:5824  _msgSender() */\n      tag_138\n        /* \"contract/ERC20.sol\":5812:5822  _msgSender */\n      tag_99\n        /* \"contract/ERC20.sol\":5812:5824  _msgSender() */\n      jump\t// in\n    tag_138:\n        /* \"contract/ERC20.sol\":5826:5833  spender */\n      dup5\n        /* \"contract/ERC20.sol\":5872:5882  addedValue */\n      dup5\n        /* \"contract/ERC20.sol\":5835:5846  _allowances */\n      0x01\n        /* \"contract/ERC20.sol\":5835:5860  _allowances[_msgSender()] */\n      0x00\n        /* \"contract/ERC20.sol\":5847:5859  _msgSender() */\n      tag_139\n        /* \"contract/ERC20.sol\":5847:5857  _msgSender */\n      tag_99\n        /* \"contract/ERC20.sol\":5847:5859  _msgSender() */\n      jump\t// in\n    tag_139:\n        /* \"contract/ERC20.sol\":5835:5860  _allowances[_msgSender()] */\n      0xffffffffffffffffffffffffffffffffffffffff\n      and\n      0xffffffffffffffffffffffffffffffffffffffff\n      and\n      dup2\n      mstore\n      0x20\n      add\n      swap1\n      dup2\n      mstore\n      0x20\n      add\n      0x00\n      keccak256\n        /* \"contract/ERC20.sol\":5835:5869  _allowances[_msgSender()][spender] */\n      0x00\n        /* \"contract/ERC20.sol\":5861:5868  spender */\n      dup9\n        /* \"contract/ERC20.sol\":5835:5869  _allowances[_msgSender()][spender] */\n      0xffffffffffffffffffffffffffffffffffffffff\n      and\n      0xffffffffffffffffffffffffffffffffffffffff\n      and\n      dup2\n      mstore\n      0x20\n      add\n      swap1\n      dup2\n      mstore\n      0x20\n      add\n      0x00\n      keccak256\n      sload\n        /* \"contract/ERC20.sol\":5835:5882  _allowances[_msgSender()][spender] + addedValue */\n      tag_140\n      swap2\n      swap1\n      tag_117\n      jump\t// in\n    tag_140:\n        /* \"contract/ERC20.sol\":5803:5811  _approve */\n      tag_100\n        /* \"contract/ERC20.sol\":5803:5883  _approve(_msgSender(), spender, _allowances[_msgSender()][spender] + addedValue) */\n      jump\t// in\n    tag_137:\n        /* \"contract/ERC20.sol\":5901:5905  true */\n      0x01\n        /* \"contract/ERC20.sol\":5894:5905  return true */\n      swap1\n      pop\n        /* \"contract/ERC20.sol\":5698:5913  function increaseAllowance(address spender, uint256 addedValue) public virtual returns (bool) {\r... */\n      swap3\n      swap2\n      pop\n      pop\n      jump\t// out\n        /* \"contract/HouseRegistry.sol\":1944:2213  function delistHouse(uint houseId) public returns (string memory){... */\n    tag_56:\n        /* \"contract/HouseRegistry.sol\":1995:2008  string memory */\n      0x60\n        /* \"contract/HouseRegistry.sol\":2060:2070  msg.sender */\n      caller\n        /* \"contract/HouseRegistry.sol\":2027:2070  houses[houseId].sellerAddress == msg.sender */\n      0xffffffffffffffffffffffffffffffffffffffff\n      and\n        /* \"contract/HouseRegistry.sol\":2027:2033  houses */\n      0x0b\n        /* \"contract/HouseRegistry.sol\":2027:2042  houses[houseId] */\n      0x00\n        /* \"contract/HouseRegistry.sol\":2034:2041  houseId */\n      dup5\n        /* \"contract/HouseRegistry.sol\":2027:2042  houses[houseId] */\n      dup2\n      mstore\n      0x20\n      add\n      swap1\n      dup2\n      mstore\n      0x20\n      add\n      0x00\n      keccak256\n        /* \"contract/HouseRegistry.sol\":2027:2056  houses[houseId].sellerAddress */\n      0x05\n      add\n      0x00\n      swap1\n      sload\n      swap1\n      0x0100\n      exp\n      swap1\n      div\n      0xffffffffffffffffffffffffffffffffffffffff\n      and\n        /* \"contract/HouseRegistry.sol\":2027:2070  houses[houseId].sellerAddress == msg.sender */\n      0xffffffffffffffffffffffffffffffffffffffff\n      and\n      eq\n        /* \"contract/HouseRegistry.sol\":2019:2118  require(houses[houseId].sellerAddress == msg.sender, \"You do not have access to delete this house\") */\n      tag_142\n      jumpi\n      mload(0x40)\n      0x08c379a000000000000000000000000000000000000000000000000000000000\n      dup2\n      mstore\n      0x04\n      add\n      tag_143\n      swap1\n      tag_144\n      jump\t// in\n    tag_143:\n      mload(0x40)\n      dup1\n      swap2\n      sub\n      swap1\n      revert\n    tag_142:\n        /* \"contract/HouseRegistry.sol\":2162:2166  true */\n      0x01\n        /* \"contract/HouseRegistry.sol\":2128:2134  houses */\n      0x0b\n        /* \"contract/HouseRegistry.sol\":2128:2143  houses[houseId] */\n      0x00\n        /* \"contract/HouseRegistry.sol\":2135:2142  houseId */\n      dup5\n        /* \"contract/HouseRegistry.sol\":2128:2143  houses[houseId] */\n      dup2\n      mstore\n      0x20\n      add\n      swap1\n      dup2\n      mstore\n      0x20\n      add\n      0x00\n      keccak256\n        /* \"contract/HouseRegistry.sol\":2128:2159  houses[houseId].isdelistedHouse */\n      0x08\n      add\n      0x00\n        /* \"contract/HouseRegistry.sol\":2128:2166  houses[houseId].isdelistedHouse = true */\n      0x0100\n      exp\n      dup2\n      sload\n      dup2\n      0xff\n      mul\n      not\n      and\n      swap1\n      dup4\n      iszero\n      iszero\n      mul\n      or\n      swap1\n      sstore\n      pop\n        /* \"contract/HouseRegistry.sol\":2176:2206  return \"delist was successful\" */\n      mload(0x40)\n      dup1\n      0x40\n      add\n      0x40\n      mstore\n      dup1\n      0x15\n      dup2\n      mstore\n      0x20\n      add\n      0x64656c69737420776173207375636365737366756c0000000000000000000000\n      dup2\n      mstore\n      pop\n      swap1\n      pop\n        /* \"contract/HouseRegistry.sol\":1944:2213  function delistHouse(uint houseId) public returns (string memory){... */\n      swap2\n      swap1\n      pop\n      jump\t// out\n        /* \"contract/ERC20.sol\":3340:3467  function balanceOf(address account) public view virtual override returns (uint256) {\r... */\n    tag_61:\n        /* \"contract/ERC20.sol\":3414:3421  uint256 */\n      0x00\n        /* \"contract/ERC20.sol\":3441:3450  _balances */\n      dup1\n        /* \"contract/ERC20.sol\":3441:3459  _balances[account] */\n      0x00\n        /* \"contract/ERC20.sol\":3451:3458  account */\n      dup4\n        /* \"contract/ERC20.sol\":3441:3459  _balances[account] */\n      0xffffffffffffffffffffffffffffffffffffffff\n      and\n      0xffffffffffffffffffffffffffffffffffffffff\n      and\n      dup2\n      mstore\n      0x20\n      add\n      swap1\n      dup2\n      mstore\n      0x20\n      add\n      0x00\n      keccak256\n      sload\n        /* \"contract/ERC20.sol\":3434:3459  return _balances[account] */\n      swap1\n      pop\n        /* \"contract/ERC20.sol\":3340:3467  function balanceOf(address account) public view virtual override returns (uint256) {\r... */\n      swap2\n      swap1\n      pop\n      jump\t// out\n        /* \"contract/ERC20.sol\":2286:2381  function symbol() public view virtual returns (string memory) {\r... */\n    tag_64:\n        /* \"contract/ERC20.sol\":2333:2346  string memory */\n      0x60\n        /* \"contract/ERC20.sol\":2366:2373  _symbol */\n      0x04\n        /* \"contract/ERC20.sol\":2359:2373  return _symbol */\n      dup1\n      sload\n      tag_147\n      swap1\n      tag_91\n      jump\t// in\n    tag_147:\n      dup1\n      0x1f\n      add\n      0x20\n      dup1\n      swap2\n      div\n      mul\n      0x20\n      add\n      mload(0x40)\n      swap1\n      dup2\n      add\n      0x40\n      mstore\n      dup1\n      swap3\n      swap2\n      swap1\n      dup2\n      dup2\n      mstore\n      0x20\n      add\n      dup3\n      dup1\n      sload\n      tag_148\n      swap1\n      tag_91\n      jump\t// in\n    tag_148:\n      dup1\n      iszero\n      tag_149\n      jumpi\n      dup1\n      0x1f\n      lt\n      tag_150\n      jumpi\n      0x0100\n      dup1\n      dup4\n      sload\n      div\n      mul\n      dup4\n      mstore\n      swap2\n      0x20\n      add\n      swap2\n      jump(tag_149)\n    tag_150:\n      dup3\n      add\n      swap2\n      swap1\n      0x00\n      mstore\n      keccak256(0x00, 0x20)\n      swap1\n    tag_151:\n      dup2\n      sload\n      dup2\n      mstore\n      swap1\n      0x01\n      add\n      swap1\n      0x20\n      add\n      dup1\n      dup4\n      gt\n      tag_151\n      jumpi\n      dup3\n      swap1\n      sub\n      0x1f\n      and\n      dup3\n      add\n      swap2\n    tag_149:\n      pop\n      pop\n      pop\n      pop\n      pop\n      swap1\n      pop\n        /* \"contract/ERC20.sol\":2286:2381  function symbol() public view virtual returns (string memory) {\r... */\n      swap1\n      jump\t// out\n        /* \"contract/ERC20.sol\":6416:6793  function decreaseAllowance(address spender, uint256 subtractedValue) public virtual returns (bool) {\r... */\n    tag_68:\n        /* \"contract/ERC20.sol\":6509:6513  bool */\n      0x00\n        /* \"contract/ERC20.sol\":6526:6550  uint256 currentAllowance */\n      dup1\n        /* \"contract/ERC20.sol\":6553:6564  _allowances */\n      0x01\n        /* \"contract/ERC20.sol\":6553:6578  _allowances[_msgSender()] */\n      0x00\n        /* \"contract/ERC20.sol\":6565:6577  _msgSender() */\n      tag_153\n        /* \"contract/ERC20.sol\":6565:6575  _msgSender */\n      tag_99\n        /* \"contract/ERC20.sol\":6565:6577  _msgSender() */\n      jump\t// in\n    tag_153:\n        /* \"contract/ERC20.sol\":6553:6578  _allowances[_msgSender()] */\n      0xffffffffffffffffffffffffffffffffffffffff\n      and\n      0xffffffffffffffffffffffffffffffffffffffff\n      and\n      dup2\n      mstore\n      0x20\n      add\n      swap1\n      dup2\n      mstore\n      0x20\n      add\n      0x00\n      keccak256\n        /* \"contract/ERC20.sol\":6553:6587  _allowances[_msgSender()][spender] */\n      0x00\n        /* \"contract/ERC20.sol\":6579:6586  spender */\n      dup6\n        /* \"contract/ERC20.sol\":6553:6587  _allowances[_msgSender()][spender] */\n      0xffffffffffffffffffffffffffffffffffffffff\n      and\n      0xffffffffffffffffffffffffffffffffffffffff\n      and\n      dup2\n      mstore\n      0x20\n      add\n      swap1\n      dup2\n      mstore\n      0x20\n      add\n      0x00\n      keccak256\n      sload\n        /* \"contract/ERC20.sol\":6526:6587  uint256 currentAllowance = _allowances[_msgSender()][spender] */\n      swap1\n      pop\n        /* \"contract/ERC20.sol\":6626:6641  subtractedValue */\n      dup3\n        /* \"contract/ERC20.sol\":6606:6622  currentAllowance */\n      dup2\n        /* \"contract/ERC20.sol\":6606:6641  currentAllowance >= subtractedValue */\n      lt\n      iszero\n        /* \"contract/ERC20.sol\":6598:6683  require(currentAllowance >= subtractedValue, \"ERC20: decreased allowance below zero\") */\n      tag_154\n      jumpi\n      mload(0x40)\n      0x08c379a000000000000000000000000000000000000000000000000000000000\n      dup2\n      mstore\n      0x04\n      add\n      tag_155\n      swap1\n      tag_156\n      jump\t// in\n    tag_155:\n      mload(0x40)\n      dup1\n      swap2\n      sub\n      swap1\n      revert\n    tag_154:\n        /* \"contract/ERC20.sol\":6694:6761  _approve(_msgSender(), spender, currentAllowance - subtractedValue) */\n      tag_157\n        /* \"contract/ERC20.sol\":6703:6715  _msgSender() */\n      tag_158\n        /* \"contract/ERC20.sol\":6703:6713  _msgSender */\n      tag_99\n        /* \"contract/ERC20.sol\":6703:6715  _msgSender() */\n      jump\t// in\n    tag_158:\n        /* \"contract/ERC20.sol\":6717:6724  spender */\n      dup6\n        /* \"contract/ERC20.sol\":6745:6760  subtractedValue */\n      dup6\n        /* \"contract/ERC20.sol\":6726:6742  currentAllowance */\n      dup5\n        /* \"contract/ERC20.sol\":6726:6760  currentAllowance - subtractedValue */\n      tag_159\n      swap2\n      swap1\n      tag_134\n      jump\t// in\n    tag_159:\n        /* \"contract/ERC20.sol\":6694:6702  _approve */\n      tag_100\n        /* \"contract/ERC20.sol\":6694:6761  _approve(_msgSender(), spender, currentAllowance - subtractedValue) */\n      jump\t// in\n    tag_157:\n        /* \"contract/ERC20.sol\":6781:6785  true */\n      0x01\n        /* \"contract/ERC20.sol\":6774:6785  return true */\n      swap2\n      pop\n      pop\n        /* \"contract/ERC20.sol\":6416:6793  function decreaseAllowance(address spender, uint256 subtractedValue) public virtual returns (bool) {\r... */\n      swap3\n      swap2\n      pop\n      pop\n      jump\t// out\n        /* \"contract/ERC20.sol\":3680:3855  function transfer(address recipient, uint256 amount) public virtual override returns (bool) {\r... */\n    tag_72:\n        /* \"contract/ERC20.sol\":3766:3770  bool */\n      0x00\n        /* \"contract/ERC20.sol\":3783:3825  _transfer(_msgSender(), recipient, amount) */\n      tag_161\n        /* \"contract/ERC20.sol\":3793:3805  _msgSender() */\n      tag_162\n        /* \"contract/ERC20.sol\":3793:3803  _msgSender */\n      tag_99\n        /* \"contract/ERC20.sol\":3793:3805  _msgSender() */\n      jump\t// in\n    tag_162:\n        /* \"contract/ERC20.sol\":3807:3816  recipient */\n      dup5\n        /* \"contract/ERC20.sol\":3818:3824  amount */\n      dup5\n        /* \"contract/ERC20.sol\":3783:3792  _transfer */\n      tag_126\n        /* \"contract/ERC20.sol\":3783:3825  _transfer(_msgSender(), recipient, amount) */\n      jump\t// in\n    tag_161:\n        /* \"contract/ERC20.sol\":3843:3847  true */\n      0x01\n        /* \"contract/ERC20.sol\":3836:3847  return true */\n      swap1\n      pop\n        /* \"contract/ERC20.sol\":3680:3855  function transfer(address recipient, uint256 amount) public virtual override returns (bool) {\r... */\n      swap3\n      swap2\n      pop\n      pop\n      jump\t// out\n        /* \"contract/HouseRegistry.sol\":1073:1109  mapping(uint => House) public houses */\n    tag_76:\n      mstore(0x20, 0x0b)\n      dup1\n      0x00\n      mstore\n      keccak256(0x00, 0x40)\n      0x00\n      swap2\n      pop\n      swap1\n      pop\n      dup1\n      0x00\n      add\n      sload\n      swap1\n      dup1\n      0x01\n      add\n      sload\n      swap1\n      dup1\n      0x02\n      add\n      sload\n      swap1\n      dup1\n      0x03\n      add\n      sload\n      swap1\n      dup1\n      0x04\n      add\n      sload\n      swap1\n      dup1\n      0x05\n      add\n      0x00\n      swap1\n      sload\n      swap1\n      0x0100\n      exp\n      swap1\n      div\n      0xffffffffffffffffffffffffffffffffffffffff\n      and\n      swap1\n      dup1\n      0x06\n      add\n      0x00\n      swap1\n      sload\n      swap1\n      0x0100\n      exp\n      swap1\n      div\n      0xffffffffffffffffffffffffffffffffffffffff\n      and\n      swap1\n      dup1\n      0x07\n      add\n      dup1\n      sload\n      tag_163\n      swap1\n      tag_91\n      jump\t// in\n    tag_163:\n      dup1\n      0x1f\n      add\n      0x20\n      dup1\n      swap2\n      div\n      mul\n      0x20\n      add\n      mload(0x40)\n      swap1\n      dup2\n      add\n      0x40\n      mstore\n      dup1\n      swap3\n      swap2\n      swap1\n      dup2\n      dup2\n      mstore\n      0x20\n      add\n      dup3\n      dup1\n      sload\n      tag_164\n      swap1\n      tag_91\n      jump\t// in\n    tag_164:\n      dup1\n      iszero\n      tag_165\n      jumpi\n      dup1\n      0x1f\n      lt\n      tag_166\n      jumpi\n      0x0100\n      dup1\n      dup4\n      sload\n      div\n      mul\n      dup4\n      mstore\n      swap2\n      0x20\n      add\n      swap2\n      jump(tag_165)\n    tag_166:\n      dup3\n      add\n      swap2\n      swap1\n      0x00\n      mstore\n      keccak256(0x00, 0x20)\n      swap1\n    tag_167:\n      dup2\n      sload\n      dup2\n      mstore\n      swap1\n      0x01\n      add\n      swap1\n      0x20\n      add\n      dup1\n      dup4\n      gt\n      tag_167\n      jumpi\n      dup3\n      swap1\n      sub\n      0x1f\n      and\n      dup3\n      add\n      swap2\n    tag_165:\n      pop\n      pop\n      pop\n      pop\n      pop\n      swap1\n      dup1\n      0x08\n      add\n      0x00\n      swap1\n      sload\n      swap1\n      0x0100\n      exp\n      swap1\n      div\n      0xff\n      and\n      swap1\n      pop\n      dup10\n      jump\t// out\n        /* \"contract/HouseRegistry.sol\":2219:2757  function getCheapHouseIds(uint cost) external view returns (uint[]memory){... */\n    tag_81:\n        /* \"contract/HouseRegistry.sol\":2279:2291  uint[]memory */\n      0x60\n        /* \"contract/HouseRegistry.sol\":2302:2312  uint count */\n      0x00\n        /* \"contract/HouseRegistry.sol\":2330:2336  uint i */\n      dup1\n        /* \"contract/HouseRegistry.sol\":2326:2471  for(uint i = 0; i < houseIndex.length; i++){... */\n    tag_169:\n        /* \"contract/HouseRegistry.sol\":2346:2356  houseIndex */\n      0x0a\n        /* \"contract/HouseRegistry.sol\":2346:2363  houseIndex.length */\n      dup1\n      sload\n      swap1\n      pop\n        /* \"contract/HouseRegistry.sol\":2342:2343  i */\n      dup2\n        /* \"contract/HouseRegistry.sol\":2342:2363  i < houseIndex.length */\n      lt\n        /* \"contract/HouseRegistry.sol\":2326:2471  for(uint i = 0; i < houseIndex.length; i++){... */\n      iszero\n      tag_170\n      jumpi\n        /* \"contract/HouseRegistry.sol\":2416:2420  cost */\n      dup4\n        /* \"contract/HouseRegistry.sol\":2386:2392  houses */\n      0x0b\n        /* \"contract/HouseRegistry.sol\":2386:2407  houses[houseIndex[i]] */\n      0x00\n        /* \"contract/HouseRegistry.sol\":2393:2403  houseIndex */\n      0x0a\n        /* \"contract/HouseRegistry.sol\":2404:2405  i */\n      dup5\n        /* \"contract/HouseRegistry.sol\":2393:2406  houseIndex[i] */\n      dup2\n      sload\n      dup2\n      lt\n      tag_172\n      jumpi\n      tag_173\n      tag_174\n      jump\t// in\n    tag_173:\n    tag_172:\n      swap1\n      0x00\n      mstore\n      keccak256(0x00, 0x20)\n      add\n      sload\n        /* \"contract/HouseRegistry.sol\":2386:2407  houses[houseIndex[i]] */\n      dup2\n      mstore\n      0x20\n      add\n      swap1\n      dup2\n      mstore\n      0x20\n      add\n      0x00\n      keccak256\n        /* \"contract/HouseRegistry.sol\":2386:2413  houses[houseIndex[i]].price */\n      0x02\n      add\n      sload\n        /* \"contract/HouseRegistry.sol\":2386:2420  houses[houseIndex[i]].price < cost */\n      lt\n        /* \"contract/HouseRegistry.sol\":2383:2461  if(houses[houseIndex[i]].price < cost){... */\n      iszero\n      tag_176\n      jumpi\n        /* \"contract/HouseRegistry.sol\":2439:2446  count++ */\n      dup2\n      dup1\n      tag_177\n      swap1\n      tag_121\n      jump\t// in\n    tag_177:\n      swap3\n      pop\n      pop\n        /* \"contract/HouseRegistry.sol\":2383:2461  if(houses[houseIndex[i]].price < cost){... */\n    tag_176:\n        /* \"contract/HouseRegistry.sol\":2365:2368  i++ */\n      dup1\n      dup1\n      tag_178\n      swap1\n      tag_121\n      jump\t// in\n    tag_178:\n      swap2\n      pop\n      pop\n        /* \"contract/HouseRegistry.sol\":2326:2471  for(uint i = 0; i < houseIndex.length; i++){... */\n      jump(tag_169)\n    tag_170:\n      pop\n        /* \"contract/HouseRegistry.sol\":2480:2508  uint[] memory filteredHouses */\n      0x00\n        /* \"contract/HouseRegistry.sol\":2522:2527  count */\n      dup2\n        /* \"contract/HouseRegistry.sol\":2511:2528  new uint[](count) */\n      0xffffffffffffffff\n      dup2\n      gt\n      iszero\n      tag_179\n      jumpi\n      tag_180\n      tag_181\n      jump\t// in\n    tag_180:\n    tag_179:\n      mload(0x40)\n      swap1\n      dup1\n      dup3\n      mstore\n      dup1\n      0x20\n      mul\n      0x20\n      add\n      dup3\n      add\n      0x40\n      mstore\n      dup1\n      iszero\n      tag_182\n      jumpi\n      dup2\n      0x20\n      add\n      0x20\n      dup3\n      mul\n      dup1\n      calldatasize\n      dup4\n      calldatacopy\n      dup1\n      dup3\n      add\n      swap2\n      pop\n      pop\n      swap1\n      pop\n    tag_182:\n      pop\n        /* \"contract/HouseRegistry.sol\":2480:2528  uint[] memory filteredHouses = new uint[](count) */\n      swap1\n      pop\n        /* \"contract/HouseRegistry.sol\":2542:2548  uint i */\n      0x00\n        /* \"contract/HouseRegistry.sol\":2538:2720  for(uint i = 0; i < houseIndex.length; i++){... */\n    tag_183:\n        /* \"contract/HouseRegistry.sol\":2558:2568  houseIndex */\n      0x0a\n        /* \"contract/HouseRegistry.sol\":2558:2575  houseIndex.length */\n      dup1\n      sload\n      swap1\n      pop\n        /* \"contract/HouseRegistry.sol\":2554:2555  i */\n      dup2\n        /* \"contract/HouseRegistry.sol\":2554:2575  i < houseIndex.length */\n      lt\n        /* \"contract/HouseRegistry.sol\":2538:2720  for(uint i = 0; i < houseIndex.length; i++){... */\n      iszero\n      tag_184\n      jumpi\n        /* \"contract/HouseRegistry.sol\":2628:2632  cost */\n      dup5\n        /* \"contract/HouseRegistry.sol\":2598:2604  houses */\n      0x0b\n        /* \"contract/HouseRegistry.sol\":2598:2619  houses[houseIndex[i]] */\n      0x00\n        /* \"contract/HouseRegistry.sol\":2605:2615  houseIndex */\n      0x0a\n        /* \"contract/HouseRegistry.sol\":2616:2617  i */\n      dup5\n        /* \"contract/HouseRegistry.sol\":2605:2618  houseIndex[i] */\n      dup2\n      sload\n      dup2\n      lt\n      tag_186\n      jumpi\n      tag_187\n      tag_174\n      jump\t// in\n    tag_187:\n    tag_186:\n      swap1\n      0x00\n      mstore\n      keccak256(0x00, 0x20)\n      add\n      sload\n        /* \"contract/HouseRegistry.sol\":2598:2619  houses[houseIndex[i]] */\n      dup2\n      mstore\n      0x20\n      add\n      swap1\n      dup2\n      mstore\n      0x20\n      add\n      0x00\n      keccak256\n        /* \"contract/HouseRegistry.sol\":2598:2625  houses[houseIndex[i]].price */\n      0x02\n      add\n      sload\n        /* \"contract/HouseRegistry.sol\":2598:2632  houses[houseIndex[i]].price < cost */\n      lt\n        /* \"contract/HouseRegistry.sol\":2595:2710  if(houses[houseIndex[i]].price < cost){... */\n      iszero\n      tag_189\n      jumpi\n        /* \"contract/HouseRegistry.sol\":2671:2677  houses */\n      0x0b\n        /* \"contract/HouseRegistry.sol\":2671:2692  houses[houseIndex[i]] */\n      0x00\n        /* \"contract/HouseRegistry.sol\":2678:2688  houseIndex */\n      0x0a\n        /* \"contract/HouseRegistry.sol\":2689:2690  i */\n      dup4\n        /* \"contract/HouseRegistry.sol\":2678:2691  houseIndex[i] */\n      dup2\n      sload\n      dup2\n      lt\n      tag_190\n      jumpi\n      tag_191\n      tag_174\n      jump\t// in\n    tag_191:\n    tag_190:\n      swap1\n      0x00\n      mstore\n      keccak256(0x00, 0x20)\n      add\n      sload\n        /* \"contract/HouseRegistry.sol\":2671:2692  houses[houseIndex[i]] */\n      dup2\n      mstore\n      0x20\n      add\n      swap1\n      dup2\n      mstore\n      0x20\n      add\n      0x00\n      keccak256\n        /* \"contract/HouseRegistry.sol\":2671:2695  houses[houseIndex[i]].id */\n      0x00\n      add\n      sload\n        /* \"contract/HouseRegistry.sol\":2651:2665  filteredHouses */\n      dup3\n        /* \"contract/HouseRegistry.sol\":2666:2667  i */\n      dup3\n        /* \"contract/HouseRegistry.sol\":2651:2668  filteredHouses[i] */\n      dup2\n      mload\n      dup2\n      lt\n      tag_193\n      jumpi\n      tag_194\n      tag_174\n      jump\t// in\n    tag_194:\n    tag_193:\n      0x20\n      mul\n      0x20\n      add\n      add\n        /* \"contract/HouseRegistry.sol\":2651:2695  filteredHouses[i] = houses[houseIndex[i]].id */\n      dup2\n      dup2\n      mstore\n      pop\n      pop\n        /* \"contract/HouseRegistry.sol\":2595:2710  if(houses[houseIndex[i]].price < cost){... */\n    tag_189:\n        /* \"contract/HouseRegistry.sol\":2577:2580  i++ */\n      dup1\n      dup1\n      tag_195\n      swap1\n      tag_121\n      jump\t// in\n    tag_195:\n      swap2\n      pop\n      pop\n        /* \"contract/HouseRegistry.sol\":2538:2720  for(uint i = 0; i < houseIndex.length; i++){... */\n      jump(tag_183)\n    tag_184:\n      pop\n        /* \"contract/HouseRegistry.sol\":2736:2750  filteredHouses */\n      dup1\n        /* \"contract/HouseRegistry.sol\":2729:2750  return filteredHouses */\n      swap3\n      pop\n      pop\n      pop\n        /* \"contract/HouseRegistry.sol\":2219:2757  function getCheapHouseIds(uint cost) external view returns (uint[]memory){... */\n      swap2\n      swap1\n      pop\n      jump\t// out\n        /* \"contract/ERC20.sol\":3918:4069  function allowance(address owner, address spender) public view virtual override returns (uint256) {\r... */\n    tag_87:\n        /* \"contract/ERC20.sol\":4007:4014  uint256 */\n      0x00\n        /* \"contract/ERC20.sol\":4034:4045  _allowances */\n      0x01\n        /* \"contract/ERC20.sol\":4034:4052  _allowances[owner] */\n      0x00\n        /* \"contract/ERC20.sol\":4046:4051  owner */\n      dup5\n        /* \"contract/ERC20.sol\":4034:4052  _allowances[owner] */\n      0xffffffffffffffffffffffffffffffffffffffff\n      and\n      0xffffffffffffffffffffffffffffffffffffffff\n      and\n      dup2\n      mstore\n      0x20\n      add\n      swap1\n      dup2\n      mstore\n      0x20\n      add\n      0x00\n      keccak256\n        /* \"contract/ERC20.sol\":4034:4061  _allowances[owner][spender] */\n      0x00\n        /* \"contract/ERC20.sol\":4053:4060  spender */\n      dup4\n        /* \"contract/ERC20.sol\":4034:4061  _allowances[owner][spender] */\n      0xffffffffffffffffffffffffffffffffffffffff\n      and\n      0xffffffffffffffffffffffffffffffffffffffff\n      and\n      dup2\n      mstore\n      0x20\n      add\n      swap1\n      dup2\n      mstore\n      0x20\n      add\n      0x00\n      keccak256\n      sload\n        /* \"contract/ERC20.sol\":4027:4061  return _allowances[owner][spender] */\n      swap1\n      pop\n        /* \"contract/ERC20.sol\":3918:4069  function allowance(address owner, address spender) public view virtual override returns (uint256) {\r... */\n      swap3\n      swap2\n      pop\n      pop\n      jump\t// out\n        /* \"utils/Context.sol\":601:699  function _msgSender() internal view virtual returns (address) {\r... */\n    tag_99:\n        /* \"utils/Context.sol\":654:661  address */\n      0x00\n        /* \"utils/Context.sol\":681:691  msg.sender */\n      caller\n        /* \"utils/Context.sol\":674:691  return msg.sender */\n      swap1\n      pop\n        /* \"utils/Context.sol\":601:699  function _msgSender() internal view virtual returns (address) {\r... */\n      swap1\n      jump\t// out\n        /* \"contract/ERC20.sol\":9772:10118  function _approve(address owner, address spender, uint256 amount) internal virtual {\r... */\n    tag_100:\n        /* \"contract/ERC20.sol\":9891:9892  0 */\n      0x00\n        /* \"contract/ERC20.sol\":9874:9893  owner != address(0) */\n      0xffffffffffffffffffffffffffffffffffffffff\n      and\n        /* \"contract/ERC20.sol\":9874:9879  owner */\n      dup4\n        /* \"contract/ERC20.sol\":9874:9893  owner != address(0) */\n      0xffffffffffffffffffffffffffffffffffffffff\n      and\n      eq\n      iszero\n        /* \"contract/ERC20.sol\":9866:9934  require(owner != address(0), \"ERC20: approve from the zero address\") */\n      tag_199\n      jumpi\n      mload(0x40)\n      0x08c379a000000000000000000000000000000000000000000000000000000000\n      dup2\n      mstore\n      0x04\n      add\n      tag_200\n      swap1\n      tag_201\n      jump\t// in\n    tag_200:\n      mload(0x40)\n      dup1\n      swap2\n      sub\n      swap1\n      revert\n    tag_199:\n        /* \"contract/ERC20.sol\":9972:9973  0 */\n      0x00\n        /* \"contract/ERC20.sol\":9953:9974  spender != address(0) */\n      0xffffffffffffffffffffffffffffffffffffffff\n      and\n        /* \"contract/ERC20.sol\":9953:9960  spender */\n      dup3\n        /* \"contract/ERC20.sol\":9953:9974  spender != address(0) */\n      0xffffffffffffffffffffffffffffffffffffffff\n      and\n      eq\n      iszero\n        /* \"contract/ERC20.sol\":9945:10013  require(spender != address(0), \"ERC20: approve to the zero address\") */\n      tag_202\n      jumpi\n      mload(0x40)\n      0x08c379a000000000000000000000000000000000000000000000000000000000\n      dup2\n      mstore\n      0x04\n      add\n      tag_203\n      swap1\n      tag_204\n      jump\t// in\n    tag_203:\n      mload(0x40)\n      dup1\n      swap2\n      sub\n      swap1\n      revert\n    tag_202:\n        /* \"contract/ERC20.sol\":10056:10062  amount */\n      dup1\n        /* \"contract/ERC20.sol\":10026:10037  _allowances */\n      0x01\n        /* \"contract/ERC20.sol\":10026:10044  _allowances[owner] */\n      0x00\n        /* \"contract/ERC20.sol\":10038:10043  owner */\n      dup6\n        /* \"contract/ERC20.sol\":10026:10044  _allowances[owner] */\n      0xffffffffffffffffffffffffffffffffffffffff\n      and\n      0xffffffffffffffffffffffffffffffffffffffff\n      and\n      dup2\n      mstore\n      0x20\n      add\n      swap1\n      dup2\n      mstore\n      0x20\n      add\n      0x00\n      keccak256\n        /* \"contract/ERC20.sol\":10026:10053  _allowances[owner][spender] */\n      0x00\n        /* \"contract/ERC20.sol\":10045:10052  spender */\n      dup5\n        /* \"contract/ERC20.sol\":10026:10053  _allowances[owner][spender] */\n      0xffffffffffffffffffffffffffffffffffffffff\n      and\n      0xffffffffffffffffffffffffffffffffffffffff\n      and\n      dup2\n      mstore\n      0x20\n      add\n      swap1\n      dup2\n      mstore\n      0x20\n      add\n      0x00\n      keccak256\n        /* \"contract/ERC20.sol\":10026:10062  _allowances[owner][spender] = amount */\n      dup2\n      swap1\n      sstore\n      pop\n        /* \"contract/ERC20.sol\":10094:10101  spender */\n      dup2\n        /* \"contract/ERC20.sol\":10078:10110  Approval(owner, spender, amount) */\n      0xffffffffffffffffffffffffffffffffffffffff\n      and\n        /* \"contract/ERC20.sol\":10087:10092  owner */\n      dup4\n        /* \"contract/ERC20.sol\":10078:10110  Approval(owner, spender, amount) */\n      0xffffffffffffffffffffffffffffffffffffffff\n      and\n      0x8c5be1e5ebec7d5bd14f71427d1e84f3dd0314c0f7b2291e5b200ac8c7c3b925\n        /* \"contract/ERC20.sol\":10103:10109  amount */\n      dup4\n        /* \"contract/ERC20.sol\":10078:10110  Approval(owner, spender, amount) */\n      mload(0x40)\n      tag_205\n      swap2\n      swap1\n      tag_34\n      jump\t// in\n    tag_205:\n      mload(0x40)\n      dup1\n      swap2\n      sub\n      swap1\n      log3\n        /* \"contract/ERC20.sol\":9772:10118  function _approve(address owner, address spender, uint256 amount) internal virtual {\r... */\n      pop\n      pop\n      pop\n      jump\t// out\n        /* \"contract/HouseRegistry.sol\":2763:3017  function _generateHouseId(address _sellerAddress, uint _area, string memory _houseAddress) private view returns(uint){... */\n    tag_109:\n        /* \"contract/HouseRegistry.sol\":2875:2879  uint */\n      0x00\n        /* \"contract/HouseRegistry.sol\":2890:2902  uint houseId */\n      dup1\n        /* \"contract/HouseRegistry.sol\":2937:2951  _sellerAddress */\n      dup5\n        /* \"contract/HouseRegistry.sol\":2953:2958  _area */\n      dup5\n        /* \"contract/HouseRegistry.sol\":2960:2973  _houseAddress */\n      dup5\n        /* \"contract/HouseRegistry.sol\":2920:2974  abi.encodePacked(_sellerAddress, _area, _houseAddress) */\n      add(0x20, mload(0x40))\n      tag_207\n      swap4\n      swap3\n      swap2\n      swap1\n      tag_208\n      jump\t// in\n    tag_207:\n      mload(0x40)\n      0x20\n      dup2\n      dup4\n      sub\n      sub\n      dup2\n      mstore\n      swap1\n      0x40\n      mstore\n        /* \"contract/HouseRegistry.sol\":2910:2975  keccak256(abi.encodePacked(_sellerAddress, _area, _houseAddress)) */\n      dup1\n      mload\n      swap1\n      0x20\n      add\n      keccak256\n        /* \"contract/HouseRegistry.sol\":2905:2976  uint(keccak256(abi.encodePacked(_sellerAddress, _area, _houseAddress))) */\n      0x00\n      shr\n        /* \"contract/HouseRegistry.sol\":2890:2976  uint houseId = uint(keccak256(abi.encodePacked(_sellerAddress, _area, _houseAddress))) */\n      swap1\n      pop\n        /* \"contract/HouseRegistry.sol\":3003:3010  modulus */\n      sload(0x06)\n        /* \"contract/HouseRegistry.sol\":2993:3000  houseId */\n      dup2\n        /* \"contract/HouseRegistry.sol\":2993:3010  houseId % modulus */\n      tag_209\n      swap2\n      swap1\n      tag_210\n      jump\t// in\n    tag_209:\n        /* \"contract/HouseRegistry.sol\":2986:3010  return houseId % modulus */\n      swap2\n      pop\n      pop\n        /* \"contract/HouseRegistry.sol\":2763:3017  function _generateHouseId(address _sellerAddress, uint _area, string memory _houseAddress) private view returns(uint){... */\n      swap4\n      swap3\n      pop\n      pop\n      pop\n      jump\t// out\n        /* \"contract/HouseRegistry.sol\":1116:1208  function _ownerCooldown(uint _newTime) internal {... */\n    tag_118:\n        /* \"contract/HouseRegistry.sol\":1193:1201  _newTime */\n      dup1\n        /* \"contract/HouseRegistry.sol\":1174:1190  ownerAddCooldown */\n      0x09\n        /* \"contract/HouseRegistry.sol\":1174:1201  ownerAddCooldown = _newTime */\n      dup2\n      swap1\n      sstore\n      pop\n        /* \"contract/HouseRegistry.sol\":1116:1208  function _ownerCooldown(uint _newTime) internal {... */\n      pop\n      jump\t// out\n        /* \"contract/ERC20.sol\":7283:7887  function _transfer(address sender, address recipient, uint256 amount) internal virtual {\r... */\n    tag_126:\n        /* \"contract/ERC20.sol\":7407:7408  0 */\n      0x00\n        /* \"contract/ERC20.sol\":7389:7409  sender != address(0) */\n      0xffffffffffffffffffffffffffffffffffffffff\n      and\n        /* \"contract/ERC20.sol\":7389:7395  sender */\n      dup4\n        /* \"contract/ERC20.sol\":7389:7409  sender != address(0) */\n      0xffffffffffffffffffffffffffffffffffffffff\n      and\n      eq\n      iszero\n        /* \"contract/ERC20.sol\":7381:7451  require(sender != address(0), \"ERC20: transfer from the zero address\") */\n      tag_213\n      jumpi\n      mload(0x40)\n      0x08c379a000000000000000000000000000000000000000000000000000000000\n      dup2\n      mstore\n      0x04\n      add\n      tag_214\n      swap1\n      tag_215\n      jump\t// in\n    tag_214:\n      mload(0x40)\n      dup1\n      swap2\n      sub\n      swap1\n      revert\n    tag_213:\n        /* \"contract/ERC20.sol\":7491:7492  0 */\n      0x00\n        /* \"contract/ERC20.sol\":7470:7493  recipient != address(0) */\n      0xffffffffffffffffffffffffffffffffffffffff\n      and\n        /* \"contract/ERC20.sol\":7470:7479  recipient */\n      dup3\n        /* \"contract/ERC20.sol\":7470:7493  recipient != address(0) */\n      0xffffffffffffffffffffffffffffffffffffffff\n      and\n      eq\n      iszero\n        /* \"contract/ERC20.sol\":7462:7533  require(recipient != address(0), \"ERC20: transfer to the zero address\") */\n      tag_216\n      jumpi\n      mload(0x40)\n      0x08c379a000000000000000000000000000000000000000000000000000000000\n      dup2\n      mstore\n      0x04\n      add\n      tag_217\n      swap1\n      tag_218\n      jump\t// in\n    tag_217:\n      mload(0x40)\n      dup1\n      swap2\n      sub\n      swap1\n      revert\n    tag_216:\n        /* \"contract/ERC20.sol\":7546:7593  _beforeTokenTransfer(sender, recipient, amount) */\n      tag_219\n        /* \"contract/ERC20.sol\":7567:7573  sender */\n      dup4\n        /* \"contract/ERC20.sol\":7575:7584  recipient */\n      dup4\n        /* \"contract/ERC20.sol\":7586:7592  amount */\n      dup4\n        /* \"contract/ERC20.sol\":7546:7566  _beforeTokenTransfer */\n      tag_220\n        /* \"contract/ERC20.sol\":7546:7593  _beforeTokenTransfer(sender, recipient, amount) */\n      jump\t// in\n    tag_219:\n        /* \"contract/ERC20.sol\":7606:7627  uint256 senderBalance */\n      0x00\n        /* \"contract/ERC20.sol\":7630:7639  _balances */\n      dup1\n        /* \"contract/ERC20.sol\":7630:7647  _balances[sender] */\n      0x00\n        /* \"contract/ERC20.sol\":7640:7646  sender */\n      dup6\n        /* \"contract/ERC20.sol\":7630:7647  _balances[sender] */\n      0xffffffffffffffffffffffffffffffffffffffff\n      and\n      0xffffffffffffffffffffffffffffffffffffffff\n      and\n      dup2\n      mstore\n      0x20\n      add\n      swap1\n      dup2\n      mstore\n      0x20\n      add\n      0x00\n      keccak256\n      sload\n        /* \"contract/ERC20.sol\":7606:7647  uint256 senderBalance = _balances[sender] */\n      swap1\n      pop\n        /* \"contract/ERC20.sol\":7683:7689  amount */\n      dup2\n        /* \"contract/ERC20.sol\":7666:7679  senderBalance */\n      dup2\n        /* \"contract/ERC20.sol\":7666:7689  senderBalance >= amount */\n      lt\n      iszero\n        /* \"contract/ERC20.sol\":7658:7732  require(senderBalance >= amount, \"ERC20: transfer amount exceeds balance\") */\n      tag_221\n      jumpi\n      mload(0x40)\n      0x08c379a000000000000000000000000000000000000000000000000000000000\n      dup2\n      mstore\n      0x04\n      add\n      tag_222\n      swap1\n      tag_223\n      jump\t// in\n    tag_222:\n      mload(0x40)\n      dup1\n      swap2\n      sub\n      swap1\n      revert\n    tag_221:\n        /* \"contract/ERC20.sol\":7779:7785  amount */\n      dup2\n        /* \"contract/ERC20.sol\":7763:7776  senderBalance */\n      dup2\n        /* \"contract/ERC20.sol\":7763:7785  senderBalance - amount */\n      tag_224\n      swap2\n      swap1\n      tag_134\n      jump\t// in\n    tag_224:\n        /* \"contract/ERC20.sol\":7743:7752  _balances */\n      0x00\n        /* \"contract/ERC20.sol\":7743:7760  _balances[sender] */\n      dup1\n        /* \"contract/ERC20.sol\":7753:7759  sender */\n      dup7\n        /* \"contract/ERC20.sol\":7743:7760  _balances[sender] */\n      0xffffffffffffffffffffffffffffffffffffffff\n      and\n      0xffffffffffffffffffffffffffffffffffffffff\n      and\n      dup2\n      mstore\n      0x20\n      add\n      swap1\n      dup2\n      mstore\n      0x20\n      add\n      0x00\n      keccak256\n        /* \"contract/ERC20.sol\":7743:7785  _balances[sender] = senderBalance - amount */\n      dup2\n      swap1\n      sstore\n      pop\n        /* \"contract/ERC20.sol\":7820:7826  amount */\n      dup2\n        /* \"contract/ERC20.sol\":7796:7805  _balances */\n      0x00\n        /* \"contract/ERC20.sol\":7796:7816  _balances[recipient] */\n      dup1\n        /* \"contract/ERC20.sol\":7806:7815  recipient */\n      dup6\n        /* \"contract/ERC20.sol\":7796:7816  _balances[recipient] */\n      0xffffffffffffffffffffffffffffffffffffffff\n      and\n      0xffffffffffffffffffffffffffffffffffffffff\n      and\n      dup2\n      mstore\n      0x20\n      add\n      swap1\n      dup2\n      mstore\n      0x20\n      add\n      0x00\n      keccak256\n      0x00\n        /* \"contract/ERC20.sol\":7796:7826  _balances[recipient] += amount */\n      dup3\n      dup3\n      sload\n      tag_225\n      swap2\n      swap1\n      tag_117\n      jump\t// in\n    tag_225:\n      swap3\n      pop\n      pop\n      dup2\n      swap1\n      sstore\n      pop\n        /* \"contract/ERC20.sol\":7861:7870  recipient */\n      dup3\n        /* \"contract/ERC20.sol\":7844:7879  Transfer(sender, recipient, amount) */\n      0xffffffffffffffffffffffffffffffffffffffff\n      and\n        /* \"contract/ERC20.sol\":7853:7859  sender */\n      dup5\n        /* \"contract/ERC20.sol\":7844:7879  Transfer(sender, recipient, amount) */\n      0xffffffffffffffffffffffffffffffffffffffff\n      and\n      0xddf252ad1be2c89b69c2b068fc378daa952ba7f163c4a11628f55a4df523b3ef\n        /* \"contract/ERC20.sol\":7872:7878  amount */\n      dup5\n        /* \"contract/ERC20.sol\":7844:7879  Transfer(sender, recipient, amount) */\n      mload(0x40)\n      tag_226\n      swap2\n      swap1\n      tag_34\n      jump\t// in\n    tag_226:\n      mload(0x40)\n      dup1\n      swap2\n      sub\n      swap1\n      log3\n        /* \"contract/ERC20.sol\":7370:7887  {\r... */\n      pop\n        /* \"contract/ERC20.sol\":7283:7887  function _transfer(address sender, address recipient, uint256 amount) internal virtual {\r... */\n      pop\n      pop\n      pop\n      jump\t// out\n        /* \"contract/ERC20.sol\":10721:10813  function _beforeTokenTransfer(address from, address to, uint256 amount) internal virtual { } */\n    tag_220:\n      pop\n      pop\n      pop\n      jump\t// out\n    tag_114:\n      dup3\n      dup1\n      sload\n      tag_228\n      swap1\n      tag_91\n      jump\t// in\n    tag_228:\n      swap1\n      0x00\n      mstore\n      keccak256(0x00, 0x20)\n      swap1\n      0x1f\n      add\n      0x20\n      swap1\n      div\n      dup2\n      add\n      swap3\n      dup3\n      tag_230\n      jumpi\n      0x00\n      dup6\n      sstore\n      jump(tag_229)\n    tag_230:\n      dup3\n      0x1f\n      lt\n      tag_231\n      jumpi\n      dup1\n      mload\n      not(0xff)\n      and\n      dup4\n      dup1\n      add\n      or\n      dup6\n      sstore\n      jump(tag_229)\n    tag_231:\n      dup3\n      dup1\n      add\n      0x01\n      add\n      dup6\n      sstore\n      dup3\n      iszero\n      tag_229\n      jumpi\n      swap2\n      dup3\n      add\n    tag_232:\n      dup3\n      dup2\n      gt\n      iszero\n      tag_233\n      jumpi\n      dup3\n      mload\n      dup3\n      sstore\n      swap2\n      0x20\n      add\n      swap2\n      swap1\n      0x01\n      add\n      swap1\n      jump(tag_232)\n    tag_233:\n    tag_229:\n      pop\n      swap1\n      pop\n      tag_234\n      swap2\n      swap1\n      tag_235\n      jump\t// in\n    tag_234:\n      pop\n      swap1\n      jump\t// out\n    tag_235:\n    tag_236:\n      dup1\n      dup3\n      gt\n      iszero\n      tag_237\n      jumpi\n      0x00\n      dup2\n      0x00\n      swap1\n      sstore\n      pop\n      0x01\n      add\n      jump(tag_236)\n    tag_237:\n      pop\n      swap1\n      jump\t// out\n        /* \"#utility.yul\":7:419   */\n    tag_239:\n        /* \"#utility.yul\":85:90   */\n      0x00\n        /* \"#utility.yul\":110:176   */\n      tag_241\n        /* \"#utility.yul\":126:175   */\n      tag_242\n        /* \"#utility.yul\":168:174   */\n      dup5\n        /* \"#utility.yul\":126:175   */\n      tag_243\n      jump\t// in\n    tag_242:\n        /* \"#utility.yul\":110:176   */\n      tag_244\n      jump\t// in\n    tag_241:\n        /* \"#utility.yul\":101:176   */\n      swap1\n      pop\n        /* \"#utility.yul\":199:205   */\n      dup3\n        /* \"#utility.yul\":192:197   */\n      dup2\n        /* \"#utility.yul\":185:206   */\n      mstore\n        /* \"#utility.yul\":237:241   */\n      0x20\n        /* \"#utility.yul\":230:235   */\n      dup2\n        /* \"#utility.yul\":226:242   */\n      add\n        /* \"#utility.yul\":275:278   */\n      dup5\n        /* \"#utility.yul\":266:272   */\n      dup5\n        /* \"#utility.yul\":261:264   */\n      dup5\n        /* \"#utility.yul\":257:273   */\n      add\n        /* \"#utility.yul\":254:279   */\n      gt\n        /* \"#utility.yul\":251:363   */\n      iszero\n      tag_245\n      jumpi\n        /* \"#utility.yul\":282:361   */\n      tag_246\n      tag_247\n      jump\t// in\n    tag_246:\n        /* \"#utility.yul\":251:363   */\n    tag_245:\n        /* \"#utility.yul\":372:413   */\n      tag_248\n        /* \"#utility.yul\":406:412   */\n      dup5\n        /* \"#utility.yul\":401:404   */\n      dup3\n        /* \"#utility.yul\":396:399   */\n      dup6\n        /* \"#utility.yul\":372:413   */\n      tag_249\n      jump\t// in\n    tag_248:\n        /* \"#utility.yul\":91:419   */\n      pop\n        /* \"#utility.yul\":7:419   */\n      swap4\n      swap3\n      pop\n      pop\n      pop\n      jump\t// out\n        /* \"#utility.yul\":425:564   */\n    tag_250:\n        /* \"#utility.yul\":471:476   */\n      0x00\n        /* \"#utility.yul\":509:515   */\n      dup2\n        /* \"#utility.yul\":496:516   */\n      calldataload\n        /* \"#utility.yul\":487:516   */\n      swap1\n      pop\n        /* \"#utility.yul\":525:558   */\n      tag_252\n        /* \"#utility.yul\":552:557   */\n      dup2\n        /* \"#utility.yul\":525:558   */\n      tag_253\n      jump\t// in\n    tag_252:\n        /* \"#utility.yul\":425:564   */\n      swap3\n      swap2\n      pop\n      pop\n      jump\t// out\n        /* \"#utility.yul\":584:924   */\n    tag_254:\n        /* \"#utility.yul\":640:645   */\n      0x00\n        /* \"#utility.yul\":689:692   */\n      dup3\n        /* \"#utility.yul\":682:686   */\n      0x1f\n        /* \"#utility.yul\":674:680   */\n      dup4\n        /* \"#utility.yul\":670:687   */\n      add\n        /* \"#utility.yul\":666:693   */\n      slt\n        /* \"#utility.yul\":656:778   */\n      tag_256\n      jumpi\n        /* \"#utility.yul\":697:776   */\n      tag_257\n      tag_258\n      jump\t// in\n    tag_257:\n        /* \"#utility.yul\":656:778   */\n    tag_256:\n        /* \"#utility.yul\":814:820   */\n      dup2\n        /* \"#utility.yul\":801:821   */\n      calldataload\n        /* \"#utility.yul\":839:918   */\n      tag_259\n        /* \"#utility.yul\":914:917   */\n      dup5\n        /* \"#utility.yul\":906:912   */\n      dup3\n        /* \"#utility.yul\":899:903   */\n      0x20\n        /* \"#utility.yul\":891:897   */\n      dup7\n        /* \"#utility.yul\":887:904   */\n      add\n        /* \"#utility.yul\":839:918   */\n      tag_239\n      jump\t// in\n    tag_259:\n        /* \"#utility.yul\":830:918   */\n      swap2\n      pop\n        /* \"#utility.yul\":646:924   */\n      pop\n        /* \"#utility.yul\":584:924   */\n      swap3\n      swap2\n      pop\n      pop\n      jump\t// out\n        /* \"#utility.yul\":930:1069   */\n    tag_260:\n        /* \"#utility.yul\":976:981   */\n      0x00\n        /* \"#utility.yul\":1014:1020   */\n      dup2\n        /* \"#utility.yul\":1001:1021   */\n      calldataload\n        /* \"#utility.yul\":992:1021   */\n      swap1\n      pop\n        /* \"#utility.yul\":1030:1063   */\n      tag_262\n        /* \"#utility.yul\":1057:1062   */\n      dup2\n        /* \"#utility.yul\":1030:1063   */\n      tag_263\n      jump\t// in\n    tag_262:\n        /* \"#utility.yul\":930:1069   */\n      swap3\n      swap2\n      pop\n      pop\n      jump\t// out\n        /* \"#utility.yul\":1075:1404   */\n    tag_60:\n        /* \"#utility.yul\":1134:1140   */\n      0x00\n        /* \"#utility.yul\":1183:1185   */\n      0x20\n        /* \"#utility.yul\":1171:1180   */\n      dup3\n        /* \"#utility.yul\":1162:1169   */\n      dup5\n        /* \"#utility.yul\":1158:1181   */\n      sub\n        /* \"#utility.yul\":1154:1186   */\n      slt\n        /* \"#utility.yul\":1151:1270   */\n      iszero\n      tag_265\n      jumpi\n        /* \"#utility.yul\":1189:1268   */\n      tag_266\n      tag_267\n      jump\t// in\n    tag_266:\n        /* \"#utility.yul\":1151:1270   */\n    tag_265:\n        /* \"#utility.yul\":1309:1310   */\n      0x00\n        /* \"#utility.yul\":1334:1387   */\n      tag_268\n        /* \"#utility.yul\":1379:1386   */\n      dup5\n        /* \"#utility.yul\":1370:1376   */\n      dup3\n        /* \"#utility.yul\":1359:1368   */\n      dup6\n        /* \"#utility.yul\":1355:1377   */\n      add\n        /* \"#utility.yul\":1334:1387   */\n      tag_250\n      jump\t// in\n    tag_268:\n        /* \"#utility.yul\":1324:1387   */\n      swap2\n      pop\n        /* \"#utility.yul\":1280:1397   */\n      pop\n        /* \"#utility.yul\":1075:1404   */\n      swap3\n      swap2\n      pop\n      pop\n      jump\t// out\n        /* \"#utility.yul\":1410:1884   */\n    tag_86:\n        /* \"#utility.yul\":1478:1484   */\n      0x00\n        /* \"#utility.yul\":1486:1492   */\n      dup1\n        /* \"#utility.yul\":1535:1537   */\n      0x40\n        /* \"#utility.yul\":1523:1532   */\n      dup4\n        /* \"#utility.yul\":1514:1521   */\n      dup6\n        /* \"#utility.yul\":1510:1533   */\n      sub\n        /* \"#utility.yul\":1506:1538   */\n      slt\n        /* \"#utility.yul\":1503:1622   */\n      iszero\n      tag_270\n      jumpi\n        /* \"#utility.yul\":1541:1620   */\n      tag_271\n      tag_267\n      jump\t// in\n    tag_271:\n        /* \"#utility.yul\":1503:1622   */\n    tag_270:\n        /* \"#utility.yul\":1661:1662   */\n      0x00\n        /* \"#utility.yul\":1686:1739   */\n      tag_272\n        /* \"#utility.yul\":1731:1738   */\n      dup6\n        /* \"#utility.yul\":1722:1728   */\n      dup3\n        /* \"#utility.yul\":1711:1720   */\n      dup7\n        /* \"#utility.yul\":1707:1729   */\n      add\n        /* \"#utility.yul\":1686:1739   */\n      tag_250\n      jump\t// in\n    tag_272:\n        /* \"#utility.yul\":1676:1739   */\n      swap3\n      pop\n        /* \"#utility.yul\":1632:1749   */\n      pop\n        /* \"#utility.yul\":1788:1790   */\n      0x20\n        /* \"#utility.yul\":1814:1867   */\n      tag_273\n        /* \"#utility.yul\":1859:1866   */\n      dup6\n        /* \"#utility.yul\":1850:1856   */\n      dup3\n        /* \"#utility.yul\":1839:1848   */\n      dup7\n        /* \"#utility.yul\":1835:1857   */\n      add\n        /* \"#utility.yul\":1814:1867   */\n      tag_250\n      jump\t// in\n    tag_273:\n        /* \"#utility.yul\":1804:1867   */\n      swap2\n      pop\n        /* \"#utility.yul\":1759:1877   */\n      pop\n        /* \"#utility.yul\":1410:1884   */\n      swap3\n      pop\n      swap3\n      swap1\n      pop\n      jump\t// out\n        /* \"#utility.yul\":1890:2509   */\n    tag_42:\n        /* \"#utility.yul\":1967:1973   */\n      0x00\n        /* \"#utility.yul\":1975:1981   */\n      dup1\n        /* \"#utility.yul\":1983:1989   */\n      0x00\n        /* \"#utility.yul\":2032:2034   */\n      0x60\n        /* \"#utility.yul\":2020:2029   */\n      dup5\n        /* \"#utility.yul\":2011:2018   */\n      dup7\n        /* \"#utility.yul\":2007:2030   */\n      sub\n        /* \"#utility.yul\":2003:2035   */\n      slt\n        /* \"#utility.yul\":2000:2119   */\n      iszero\n      tag_275\n      jumpi\n        /* \"#utility.yul\":2038:2117   */\n      tag_276\n      tag_267\n      jump\t// in\n    tag_276:\n        /* \"#utility.yul\":2000:2119   */\n    tag_275:\n        /* \"#utility.yul\":2158:2159   */\n      0x00\n        /* \"#utility.yul\":2183:2236   */\n      tag_277\n        /* \"#utility.yul\":2228:2235   */\n      dup7\n        /* \"#utility.yul\":2219:2225   */\n      dup3\n        /* \"#utility.yul\":2208:2217   */\n      dup8\n        /* \"#utility.yul\":2204:2226   */\n      add\n        /* \"#utility.yul\":2183:2236   */\n      tag_250\n      jump\t// in\n    tag_277:\n        /* \"#utility.yul\":2173:2236   */\n      swap4\n      pop\n        /* \"#utility.yul\":2129:2246   */\n      pop\n        /* \"#utility.yul\":2285:2287   */\n      0x20\n        /* \"#utility.yul\":2311:2364   */\n      tag_278\n        /* \"#utility.yul\":2356:2363   */\n      dup7\n        /* \"#utility.yul\":2347:2353   */\n      dup3\n        /* \"#utility.yul\":2336:2345   */\n      dup8\n        /* \"#utility.yul\":2332:2354   */\n      add\n        /* \"#utility.yul\":2311:2364   */\n      tag_250\n      jump\t// in\n    tag_278:\n        /* \"#utility.yul\":2301:2364   */\n      swap3\n      pop\n        /* \"#utility.yul\":2256:2374   */\n      pop\n        /* \"#utility.yul\":2413:2415   */\n      0x40\n        /* \"#utility.yul\":2439:2492   */\n      tag_279\n        /* \"#utility.yul\":2484:2491   */\n      dup7\n        /* \"#utility.yul\":2475:2481   */\n      dup3\n        /* \"#utility.yul\":2464:2473   */\n      dup8\n        /* \"#utility.yul\":2460:2482   */\n      add\n        /* \"#utility.yul\":2439:2492   */\n      tag_260\n      jump\t// in\n    tag_279:\n        /* \"#utility.yul\":2429:2492   */\n      swap2\n      pop\n        /* \"#utility.yul\":2384:2502   */\n      pop\n        /* \"#utility.yul\":1890:2509   */\n      swap3\n      pop\n      swap3\n      pop\n      swap3\n      jump\t// out\n        /* \"#utility.yul\":2515:2989   */\n    tag_27:\n        /* \"#utility.yul\":2583:2589   */\n      0x00\n        /* \"#utility.yul\":2591:2597   */\n      dup1\n        /* \"#utility.yul\":2640:2642   */\n      0x40\n        /* \"#utility.yul\":2628:2637   */\n      dup4\n        /* \"#utility.yul\":2619:2626   */\n      dup6\n        /* \"#utility.yul\":2615:2638   */\n      sub\n        /* \"#utility.yul\":2611:2643   */\n      slt\n        /* \"#utility.yul\":2608:2727   */\n      iszero\n      tag_281\n      jumpi\n        /* \"#utility.yul\":2646:2725   */\n      tag_282\n      tag_267\n      jump\t// in\n    tag_282:\n        /* \"#utility.yul\":2608:2727   */\n    tag_281:\n        /* \"#utility.yul\":2766:2767   */\n      0x00\n        /* \"#utility.yul\":2791:2844   */\n      tag_283\n        /* \"#utility.yul\":2836:2843   */\n      dup6\n        /* \"#utility.yul\":2827:2833   */\n      dup3\n        /* \"#utility.yul\":2816:2825   */\n      dup7\n        /* \"#utility.yul\":2812:2834   */\n      add\n        /* \"#utility.yul\":2791:2844   */\n      tag_250\n      jump\t// in\n    tag_283:\n        /* \"#utility.yul\":2781:2844   */\n      swap3\n      pop\n        /* \"#utility.yul\":2737:2854   */\n      pop\n        /* \"#utility.yul\":2893:2895   */\n      0x20\n        /* \"#utility.yul\":2919:2972   */\n      tag_284\n        /* \"#utility.yul\":2964:2971   */\n      dup6\n        /* \"#utility.yul\":2955:2961   */\n      dup3\n        /* \"#utility.yul\":2944:2953   */\n      dup7\n        /* \"#utility.yul\":2940:2962   */\n      add\n        /* \"#utility.yul\":2919:2972   */\n      tag_260\n      jump\t// in\n    tag_284:\n        /* \"#utility.yul\":2909:2972   */\n      swap2\n      pop\n        /* \"#utility.yul\":2864:2982   */\n      pop\n        /* \"#utility.yul\":2515:2989   */\n      swap3\n      pop\n      swap3\n      swap1\n      pop\n      jump\t// out\n        /* \"#utility.yul\":2995:3324   */\n    tag_55:\n        /* \"#utility.yul\":3054:3060   */\n      0x00\n        /* \"#utility.yul\":3103:3105   */\n      0x20\n        /* \"#utility.yul\":3091:3100   */\n      dup3\n        /* \"#utility.yul\":3082:3089   */\n      dup5\n        /* \"#utility.yul\":3078:3101   */\n      sub\n        /* \"#utility.yul\":3074:3106   */\n      slt\n        /* \"#utility.yul\":3071:3190   */\n      iszero\n      tag_286\n      jumpi\n        /* \"#utility.yul\":3109:3188   */\n      tag_287\n      tag_267\n      jump\t// in\n    tag_287:\n        /* \"#utility.yul\":3071:3190   */\n    tag_286:\n        /* \"#utility.yul\":3229:3230   */\n      0x00\n        /* \"#utility.yul\":3254:3307   */\n      tag_288\n        /* \"#utility.yul\":3299:3306   */\n      dup5\n        /* \"#utility.yul\":3290:3296   */\n      dup3\n        /* \"#utility.yul\":3279:3288   */\n      dup6\n        /* \"#utility.yul\":3275:3297   */\n      add\n        /* \"#utility.yul\":3254:3307   */\n      tag_260\n      jump\t// in\n    tag_288:\n        /* \"#utility.yul\":3244:3307   */\n      swap2\n      pop\n        /* \"#utility.yul\":3200:3317   */\n      pop\n        /* \"#utility.yul\":2995:3324   */\n      swap3\n      swap2\n      pop\n      pop\n      jump\t// out\n        /* \"#utility.yul\":3330:4421   */\n    tag_37:\n        /* \"#utility.yul\":3435:3441   */\n      0x00\n        /* \"#utility.yul\":3443:3449   */\n      dup1\n        /* \"#utility.yul\":3451:3457   */\n      0x00\n        /* \"#utility.yul\":3459:3465   */\n      dup1\n        /* \"#utility.yul\":3467:3473   */\n      0x00\n        /* \"#utility.yul\":3516:3519   */\n      0xa0\n        /* \"#utility.yul\":3504:3513   */\n      dup7\n        /* \"#utility.yul\":3495:3502   */\n      dup9\n        /* \"#utility.yul\":3491:3514   */\n      sub\n        /* \"#utility.yul\":3487:3520   */\n      slt\n        /* \"#utility.yul\":3484:3604   */\n      iszero\n      tag_290\n      jumpi\n        /* \"#utility.yul\":3523:3602   */\n      tag_291\n      tag_267\n      jump\t// in\n    tag_291:\n        /* \"#utility.yul\":3484:3604   */\n    tag_290:\n        /* \"#utility.yul\":3643:3644   */\n      0x00\n        /* \"#utility.yul\":3668:3721   */\n      tag_292\n        /* \"#utility.yul\":3713:3720   */\n      dup9\n        /* \"#utility.yul\":3704:3710   */\n      dup3\n        /* \"#utility.yul\":3693:3702   */\n      dup10\n        /* \"#utility.yul\":3689:3711   */\n      add\n        /* \"#utility.yul\":3668:3721   */\n      tag_260\n      jump\t// in\n    tag_292:\n        /* \"#utility.yul\":3658:3721   */\n      swap6\n      pop\n        /* \"#utility.yul\":3614:3731   */\n      pop\n        /* \"#utility.yul\":3770:3772   */\n      0x20\n        /* \"#utility.yul\":3796:3849   */\n      tag_293\n        /* \"#utility.yul\":3841:3848   */\n      dup9\n        /* \"#utility.yul\":3832:3838   */\n      dup3\n        /* \"#utility.yul\":3821:3830   */\n      dup10\n        /* \"#utility.yul\":3817:3839   */\n      add\n        /* \"#utility.yul\":3796:3849   */\n      tag_260\n      jump\t// in\n    tag_293:\n        /* \"#utility.yul\":3786:3849   */\n      swap5\n      pop\n        /* \"#utility.yul\":3741:3859   */\n      pop\n        /* \"#utility.yul\":3898:3900   */\n      0x40\n        /* \"#utility.yul\":3924:3977   */\n      tag_294\n        /* \"#utility.yul\":3969:3976   */\n      dup9\n        /* \"#utility.yul\":3960:3966   */\n      dup3\n        /* \"#utility.yul\":3949:3958   */\n      dup10\n        /* \"#utility.yul\":3945:3967   */\n      add\n        /* \"#utility.yul\":3924:3977   */\n      tag_260\n      jump\t// in\n    tag_294:\n        /* \"#utility.yul\":3914:3977   */\n      swap4\n      pop\n        /* \"#utility.yul\":3869:3987   */\n      pop\n        /* \"#utility.yul\":4026:4028   */\n      0x60\n        /* \"#utility.yul\":4052:4105   */\n      tag_295\n        /* \"#utility.yul\":4097:4104   */\n      dup9\n        /* \"#utility.yul\":4088:4094   */\n      dup3\n        /* \"#utility.yul\":4077:4086   */\n      dup10\n        /* \"#utility.yul\":4073:4095   */\n      add\n        /* \"#utility.yul\":4052:4105   */\n      tag_250\n      jump\t// in\n    tag_295:\n        /* \"#utility.yul\":4042:4105   */\n      swap3\n      pop\n        /* \"#utility.yul\":3997:4115   */\n      pop\n        /* \"#utility.yul\":4182:4185   */\n      0x80\n        /* \"#utility.yul\":4171:4180   */\n      dup7\n        /* \"#utility.yul\":4167:4186   */\n      add\n        /* \"#utility.yul\":4154:4187   */\n      calldataload\n        /* \"#utility.yul\":4214:4232   */\n      0xffffffffffffffff\n        /* \"#utility.yul\":4206:4212   */\n      dup2\n        /* \"#utility.yul\":4203:4233   */\n      gt\n        /* \"#utility.yul\":4200:4317   */\n      iszero\n      tag_296\n      jumpi\n        /* \"#utility.yul\":4236:4315   */\n      tag_297\n      tag_298\n      jump\t// in\n    tag_297:\n        /* \"#utility.yul\":4200:4317   */\n    tag_296:\n        /* \"#utility.yul\":4341:4404   */\n      tag_299\n        /* \"#utility.yul\":4396:4403   */\n      dup9\n        /* \"#utility.yul\":4387:4393   */\n      dup3\n        /* \"#utility.yul\":4376:4385   */\n      dup10\n        /* \"#utility.yul\":4372:4394   */\n      add\n        /* \"#utility.yul\":4341:4404   */\n      tag_254\n      jump\t// in\n    tag_299:\n        /* \"#utility.yul\":4331:4404   */\n      swap2\n      pop\n        /* \"#utility.yul\":4125:4414   */\n      pop\n        /* \"#utility.yul\":3330:4421   */\n      swap3\n      swap6\n      pop\n      swap3\n      swap6\n      swap1\n      swap4\n      pop\n      jump\t// out\n        /* \"#utility.yul\":4427:4606   */\n    tag_300:\n        /* \"#utility.yul\":4496:4506   */\n      0x00\n        /* \"#utility.yul\":4517:4563   */\n      tag_302\n        /* \"#utility.yul\":4559:4562   */\n      dup4\n        /* \"#utility.yul\":4551:4557   */\n      dup4\n        /* \"#utility.yul\":4517:4563   */\n      tag_303\n      jump\t// in\n    tag_302:\n        /* \"#utility.yul\":4595:4599   */\n      0x20\n        /* \"#utility.yul\":4590:4593   */\n      dup4\n        /* \"#utility.yul\":4586:4600   */\n      add\n        /* \"#utility.yul\":4572:4600   */\n      swap1\n      pop\n        /* \"#utility.yul\":4427:4606   */\n      swap3\n      swap2\n      pop\n      pop\n      jump\t// out\n        /* \"#utility.yul\":4612:4730   */\n    tag_304:\n        /* \"#utility.yul\":4699:4723   */\n      tag_306\n        /* \"#utility.yul\":4717:4722   */\n      dup2\n        /* \"#utility.yul\":4699:4723   */\n      tag_307\n      jump\t// in\n    tag_306:\n        /* \"#utility.yul\":4694:4697   */\n      dup3\n        /* \"#utility.yul\":4687:4724   */\n      mstore\n        /* \"#utility.yul\":4612:4730   */\n      pop\n      pop\n      jump\t// out\n        /* \"#utility.yul\":4736:4893   */\n    tag_308:\n        /* \"#utility.yul\":4841:4886   */\n      tag_310\n        /* \"#utility.yul\":4861:4885   */\n      tag_311\n        /* \"#utility.yul\":4879:4884   */\n      dup3\n        /* \"#utility.yul\":4861:4885   */\n      tag_307\n      jump\t// in\n    tag_311:\n        /* \"#utility.yul\":4841:4886   */\n      tag_312\n      jump\t// in\n    tag_310:\n        /* \"#utility.yul\":4836:4839   */\n      dup3\n        /* \"#utility.yul\":4829:4887   */\n      mstore\n        /* \"#utility.yul\":4736:4893   */\n      pop\n      pop\n      jump\t// out\n        /* \"#utility.yul\":4929:5661   */\n    tag_313:\n        /* \"#utility.yul\":5048:5051   */\n      0x00\n        /* \"#utility.yul\":5077:5131   */\n      tag_315\n        /* \"#utility.yul\":5125:5130   */\n      dup3\n        /* \"#utility.yul\":5077:5131   */\n      tag_316\n      jump\t// in\n    tag_315:\n        /* \"#utility.yul\":5147:5233   */\n      tag_317\n        /* \"#utility.yul\":5226:5232   */\n      dup2\n        /* \"#utility.yul\":5221:5224   */\n      dup6\n        /* \"#utility.yul\":5147:5233   */\n      tag_318\n      jump\t// in\n    tag_317:\n        /* \"#utility.yul\":5140:5233   */\n      swap4\n      pop\n        /* \"#utility.yul\":5257:5313   */\n      tag_319\n        /* \"#utility.yul\":5307:5312   */\n      dup4\n        /* \"#utility.yul\":5257:5313   */\n      tag_320\n      jump\t// in\n    tag_319:\n        /* \"#utility.yul\":5336:5343   */\n      dup1\n        /* \"#utility.yul\":5367:5368   */\n      0x00\n        /* \"#utility.yul\":5352:5636   */\n    tag_321:\n        /* \"#utility.yul\":5377:5383   */\n      dup4\n        /* \"#utility.yul\":5374:5375   */\n      dup2\n        /* \"#utility.yul\":5371:5384   */\n      lt\n        /* \"#utility.yul\":5352:5636   */\n      iszero\n      tag_323\n      jumpi\n        /* \"#utility.yul\":5453:5459   */\n      dup2\n        /* \"#utility.yul\":5447:5460   */\n      mload\n        /* \"#utility.yul\":5480:5543   */\n      tag_324\n        /* \"#utility.yul\":5539:5542   */\n      dup9\n        /* \"#utility.yul\":5524:5537   */\n      dup3\n        /* \"#utility.yul\":5480:5543   */\n      tag_300\n      jump\t// in\n    tag_324:\n        /* \"#utility.yul\":5473:5543   */\n      swap8\n      pop\n        /* \"#utility.yul\":5566:5626   */\n      tag_325\n        /* \"#utility.yul\":5619:5625   */\n      dup4\n        /* \"#utility.yul\":5566:5626   */\n      tag_326\n      jump\t// in\n    tag_325:\n        /* \"#utility.yul\":5556:5626   */\n      swap3\n      pop\n        /* \"#utility.yul\":5412:5636   */\n      pop\n        /* \"#utility.yul\":5399:5400   */\n      0x01\n        /* \"#utility.yul\":5396:5397   */\n      dup2\n        /* \"#utility.yul\":5392:5401   */\n      add\n        /* \"#utility.yul\":5387:5401   */\n      swap1\n      pop\n        /* \"#utility.yul\":5352:5636   */\n      jump(tag_321)\n    tag_323:\n        /* \"#utility.yul\":5356:5370   */\n      pop\n        /* \"#utility.yul\":5652:5655   */\n      dup6\n        /* \"#utility.yul\":5645:5655   */\n      swap4\n      pop\n        /* \"#utility.yul\":5053:5661   */\n      pop\n      pop\n      pop\n        /* \"#utility.yul\":4929:5661   */\n      swap3\n      swap2\n      pop\n      pop\n      jump\t// out\n        /* \"#utility.yul\":5667:5776   */\n    tag_327:\n        /* \"#utility.yul\":5748:5769   */\n      tag_329\n        /* \"#utility.yul\":5763:5768   */\n      dup2\n        /* \"#utility.yul\":5748:5769   */\n      tag_330\n      jump\t// in\n    tag_329:\n        /* \"#utility.yul\":5743:5746   */\n      dup3\n        /* \"#utility.yul\":5736:5770   */\n      mstore\n        /* \"#utility.yul\":5667:5776   */\n      pop\n      pop\n      jump\t// out\n        /* \"#utility.yul\":5782:6146   */\n    tag_331:\n        /* \"#utility.yul\":5870:5873   */\n      0x00\n        /* \"#utility.yul\":5898:5937   */\n      tag_333\n        /* \"#utility.yul\":5931:5936   */\n      dup3\n        /* \"#utility.yul\":5898:5937   */\n      tag_334\n      jump\t// in\n    tag_333:\n        /* \"#utility.yul\":5953:6024   */\n      tag_335\n        /* \"#utility.yul\":6017:6023   */\n      dup2\n        /* \"#utility.yul\":6012:6015   */\n      dup6\n        /* \"#utility.yul\":5953:6024   */\n      tag_336\n      jump\t// in\n    tag_335:\n        /* \"#utility.yul\":5946:6024   */\n      swap4\n      pop\n        /* \"#utility.yul\":6033:6085   */\n      tag_337\n        /* \"#utility.yul\":6078:6084   */\n      dup2\n        /* \"#utility.yul\":6073:6076   */\n      dup6\n        /* \"#utility.yul\":6066:6070   */\n      0x20\n        /* \"#utility.yul\":6059:6064   */\n      dup7\n        /* \"#utility.yul\":6055:6071   */\n      add\n        /* \"#utility.yul\":6033:6085   */\n      tag_338\n      jump\t// in\n    tag_337:\n        /* \"#utility.yul\":6110:6139   */\n      tag_339\n        /* \"#utility.yul\":6132:6138   */\n      dup2\n        /* \"#utility.yul\":6110:6139   */\n      tag_340\n      jump\t// in\n    tag_339:\n        /* \"#utility.yul\":6105:6108   */\n      dup5\n        /* \"#utility.yul\":6101:6140   */\n      add\n        /* \"#utility.yul\":6094:6140   */\n      swap2\n      pop\n        /* \"#utility.yul\":5874:6146   */\n      pop\n        /* \"#utility.yul\":5782:6146   */\n      swap3\n      swap2\n      pop\n      pop\n      jump\t// out\n        /* \"#utility.yul\":6152:6529   */\n    tag_341:\n        /* \"#utility.yul\":6258:6261   */\n      0x00\n        /* \"#utility.yul\":6286:6325   */\n      tag_343\n        /* \"#utility.yul\":6319:6324   */\n      dup3\n        /* \"#utility.yul\":6286:6325   */\n      tag_334\n      jump\t// in\n    tag_343:\n        /* \"#utility.yul\":6341:6430   */\n      tag_344\n        /* \"#utility.yul\":6423:6429   */\n      dup2\n        /* \"#utility.yul\":6418:6421   */\n      dup6\n        /* \"#utility.yul\":6341:6430   */\n      tag_345\n      jump\t// in\n    tag_344:\n        /* \"#utility.yul\":6334:6430   */\n      swap4\n      pop\n        /* \"#utility.yul\":6439:6491   */\n      tag_346\n        /* \"#utility.yul\":6484:6490   */\n      dup2\n        /* \"#utility.yul\":6479:6482   */\n      dup6\n        /* \"#utility.yul\":6472:6476   */\n      0x20\n        /* \"#utility.yul\":6465:6470   */\n      dup7\n        /* \"#utility.yul\":6461:6477   */\n      add\n        /* \"#utility.yul\":6439:6491   */\n      tag_338\n      jump\t// in\n    tag_346:\n        /* \"#utility.yul\":6516:6522   */\n      dup1\n        /* \"#utility.yul\":6511:6514   */\n      dup5\n        /* \"#utility.yul\":6507:6523   */\n      add\n        /* \"#utility.yul\":6500:6523   */\n      swap2\n      pop\n        /* \"#utility.yul\":6262:6529   */\n      pop\n        /* \"#utility.yul\":6152:6529   */\n      swap3\n      swap2\n      pop\n      pop\n      jump\t// out\n        /* \"#utility.yul\":6535:6901   */\n    tag_347:\n        /* \"#utility.yul\":6677:6680   */\n      0x00\n        /* \"#utility.yul\":6698:6765   */\n      tag_349\n        /* \"#utility.yul\":6762:6764   */\n      0x23\n        /* \"#utility.yul\":6757:6760   */\n      dup4\n        /* \"#utility.yul\":6698:6765   */\n      tag_336\n      jump\t// in\n    tag_349:\n        /* \"#utility.yul\":6691:6765   */\n      swap2\n      pop\n        /* \"#utility.yul\":6774:6867   */\n      tag_350\n        /* \"#utility.yul\":6863:6866   */\n      dup3\n        /* \"#utility.yul\":6774:6867   */\n      tag_351\n      jump\t// in\n    tag_350:\n        /* \"#utility.yul\":6892:6894   */\n      0x40\n        /* \"#utility.yul\":6887:6890   */\n      dup3\n        /* \"#utility.yul\":6883:6895   */\n      add\n        /* \"#utility.yul\":6876:6895   */\n      swap1\n      pop\n        /* \"#utility.yul\":6535:6901   */\n      swap2\n      swap1\n      pop\n      jump\t// out\n        /* \"#utility.yul\":6907:7273   */\n    tag_352:\n        /* \"#utility.yul\":7049:7052   */\n      0x00\n        /* \"#utility.yul\":7070:7137   */\n      tag_354\n        /* \"#utility.yul\":7134:7136   */\n      0x22\n        /* \"#utility.yul\":7129:7132   */\n      dup4\n        /* \"#utility.yul\":7070:7137   */\n      tag_336\n      jump\t// in\n    tag_354:\n        /* \"#utility.yul\":7063:7137   */\n      swap2\n      pop\n        /* \"#utility.yul\":7146:7239   */\n      tag_355\n        /* \"#utility.yul\":7235:7238   */\n      dup3\n        /* \"#utility.yul\":7146:7239   */\n      tag_356\n      jump\t// in\n    tag_355:\n        /* \"#utility.yul\":7264:7266   */\n      0x40\n        /* \"#utility.yul\":7259:7262   */\n      dup3\n        /* \"#utility.yul\":7255:7267   */\n      add\n        /* \"#utility.yul\":7248:7267   */\n      swap1\n      pop\n        /* \"#utility.yul\":6907:7273   */\n      swap2\n      swap1\n      pop\n      jump\t// out\n        /* \"#utility.yul\":7279:7645   */\n    tag_357:\n        /* \"#utility.yul\":7421:7424   */\n      0x00\n        /* \"#utility.yul\":7442:7509   */\n      tag_359\n        /* \"#utility.yul\":7506:7508   */\n      0x14\n        /* \"#utility.yul\":7501:7504   */\n      dup4\n        /* \"#utility.yul\":7442:7509   */\n      tag_336\n      jump\t// in\n    tag_359:\n        /* \"#utility.yul\":7435:7509   */\n      swap2\n      pop\n        /* \"#utility.yul\":7518:7611   */\n      tag_360\n        /* \"#utility.yul\":7607:7610   */\n      dup3\n        /* \"#utility.yul\":7518:7611   */\n      tag_361\n      jump\t// in\n    tag_360:\n        /* \"#utility.yul\":7636:7638   */\n      0x20\n        /* \"#utility.yul\":7631:7634   */\n      dup3\n        /* \"#utility.yul\":7627:7639   */\n      add\n        /* \"#utility.yul\":7620:7639   */\n      swap1\n      pop\n        /* \"#utility.yul\":7279:7645   */\n      swap2\n      swap1\n      pop\n      jump\t// out\n        /* \"#utility.yul\":7651:8017   */\n    tag_362:\n        /* \"#utility.yul\":7793:7796   */\n      0x00\n        /* \"#utility.yul\":7814:7881   */\n      tag_364\n        /* \"#utility.yul\":7878:7880   */\n      0x26\n        /* \"#utility.yul\":7873:7876   */\n      dup4\n        /* \"#utility.yul\":7814:7881   */\n      tag_336\n      jump\t// in\n    tag_364:\n        /* \"#utility.yul\":7807:7881   */\n      swap2\n      pop\n        /* \"#utility.yul\":7890:7983   */\n      tag_365\n        /* \"#utility.yul\":7979:7982   */\n      dup3\n        /* \"#utility.yul\":7890:7983   */\n      tag_366\n      jump\t// in\n    tag_365:\n        /* \"#utility.yul\":8008:8010   */\n      0x40\n        /* \"#utility.yul\":8003:8006   */\n      dup3\n        /* \"#utility.yul\":7999:8011   */\n      add\n        /* \"#utility.yul\":7992:8011   */\n      swap1\n      pop\n        /* \"#utility.yul\":7651:8017   */\n      swap2\n      swap1\n      pop\n      jump\t// out\n        /* \"#utility.yul\":8023:8389   */\n    tag_367:\n        /* \"#utility.yul\":8165:8168   */\n      0x00\n        /* \"#utility.yul\":8186:8253   */\n      tag_369\n        /* \"#utility.yul\":8250:8252   */\n      0x28\n        /* \"#utility.yul\":8245:8248   */\n      dup4\n        /* \"#utility.yul\":8186:8253   */\n      tag_336\n      jump\t// in\n    tag_369:\n        /* \"#utility.yul\":8179:8253   */\n      swap2\n      pop\n        /* \"#utility.yul\":8262:8355   */\n      tag_370\n        /* \"#utility.yul\":8351:8354   */\n      dup3\n        /* \"#utility.yul\":8262:8355   */\n      tag_371\n      jump\t// in\n    tag_370:\n        /* \"#utility.yul\":8380:8382   */\n      0x40\n        /* \"#utility.yul\":8375:8378   */\n      dup3\n        /* \"#utility.yul\":8371:8383   */\n      add\n        /* \"#utility.yul\":8364:8383   */\n      swap1\n      pop\n        /* \"#utility.yul\":8023:8389   */\n      swap2\n      swap1\n      pop\n      jump\t// out\n        /* \"#utility.yul\":8395:8761   */\n    tag_372:\n        /* \"#utility.yul\":8537:8540   */\n      0x00\n        /* \"#utility.yul\":8558:8625   */\n      tag_374\n        /* \"#utility.yul\":8622:8624   */\n      0x1b\n        /* \"#utility.yul\":8617:8620   */\n      dup4\n        /* \"#utility.yul\":8558:8625   */\n      tag_336\n      jump\t// in\n    tag_374:\n        /* \"#utility.yul\":8551:8625   */\n      swap2\n      pop\n        /* \"#utility.yul\":8634:8727   */\n      tag_375\n        /* \"#utility.yul\":8723:8726   */\n      dup3\n        /* \"#utility.yul\":8634:8727   */\n      tag_376\n      jump\t// in\n    tag_375:\n        /* \"#utility.yul\":8752:8754   */\n      0x20\n        /* \"#utility.yul\":8747:8750   */\n      dup3\n        /* \"#utility.yul\":8743:8755   */\n      add\n        /* \"#utility.yul\":8736:8755   */\n      swap1\n      pop\n        /* \"#utility.yul\":8395:8761   */\n      swap2\n      swap1\n      pop\n      jump\t// out\n        /* \"#utility.yul\":8767:9133   */\n    tag_377:\n        /* \"#utility.yul\":8909:8912   */\n      0x00\n        /* \"#utility.yul\":8930:8997   */\n      tag_379\n        /* \"#utility.yul\":8994:8996   */\n      0x25\n        /* \"#utility.yul\":8989:8992   */\n      dup4\n        /* \"#utility.yul\":8930:8997   */\n      tag_336\n      jump\t// in\n    tag_379:\n        /* \"#utility.yul\":8923:8997   */\n      swap2\n      pop\n        /* \"#utility.yul\":9006:9099   */\n      tag_380\n        /* \"#utility.yul\":9095:9098   */\n      dup3\n        /* \"#utility.yul\":9006:9099   */\n      tag_381\n      jump\t// in\n    tag_380:\n        /* \"#utility.yul\":9124:9126   */\n      0x40\n        /* \"#utility.yul\":9119:9122   */\n      dup3\n        /* \"#utility.yul\":9115:9127   */\n      add\n        /* \"#utility.yul\":9108:9127   */\n      swap1\n      pop\n        /* \"#utility.yul\":8767:9133   */\n      swap2\n      swap1\n      pop\n      jump\t// out\n        /* \"#utility.yul\":9139:9505   */\n    tag_382:\n        /* \"#utility.yul\":9281:9284   */\n      0x00\n        /* \"#utility.yul\":9302:9369   */\n      tag_384\n        /* \"#utility.yul\":9366:9368   */\n      0x24\n        /* \"#utility.yul\":9361:9364   */\n      dup4\n        /* \"#utility.yul\":9302:9369   */\n      tag_336\n      jump\t// in\n    tag_384:\n        /* \"#utility.yul\":9295:9369   */\n      swap2\n      pop\n        /* \"#utility.yul\":9378:9471   */\n      tag_385\n        /* \"#utility.yul\":9467:9470   */\n      dup3\n        /* \"#utility.yul\":9378:9471   */\n      tag_386\n      jump\t// in\n    tag_385:\n        /* \"#utility.yul\":9496:9498   */\n      0x40\n        /* \"#utility.yul\":9491:9494   */\n      dup3\n        /* \"#utility.yul\":9487:9499   */\n      add\n        /* \"#utility.yul\":9480:9499   */\n      swap1\n      pop\n        /* \"#utility.yul\":9139:9505   */\n      swap2\n      swap1\n      pop\n      jump\t// out\n        /* \"#utility.yul\":9511:9877   */\n    tag_387:\n        /* \"#utility.yul\":9653:9656   */\n      0x00\n        /* \"#utility.yul\":9674:9741   */\n      tag_389\n        /* \"#utility.yul\":9738:9740   */\n      0x2b\n        /* \"#utility.yul\":9733:9736   */\n      dup4\n        /* \"#utility.yul\":9674:9741   */\n      tag_336\n      jump\t// in\n    tag_389:\n        /* \"#utility.yul\":9667:9741   */\n      swap2\n      pop\n        /* \"#utility.yul\":9750:9843   */\n      tag_390\n        /* \"#utility.yul\":9839:9842   */\n      dup3\n        /* \"#utility.yul\":9750:9843   */\n      tag_391\n      jump\t// in\n    tag_390:\n        /* \"#utility.yul\":9868:9870   */\n      0x40\n        /* \"#utility.yul\":9863:9866   */\n      dup3\n        /* \"#utility.yul\":9859:9871   */\n      add\n        /* \"#utility.yul\":9852:9871   */\n      swap1\n      pop\n        /* \"#utility.yul\":9511:9877   */\n      swap2\n      swap1\n      pop\n      jump\t// out\n        /* \"#utility.yul\":9883:10249   */\n    tag_392:\n        /* \"#utility.yul\":10025:10028   */\n      0x00\n        /* \"#utility.yul\":10046:10113   */\n      tag_394\n        /* \"#utility.yul\":10110:10112   */\n      0x25\n        /* \"#utility.yul\":10105:10108   */\n      dup4\n        /* \"#utility.yul\":10046:10113   */\n      tag_336\n      jump\t// in\n    tag_394:\n        /* \"#utility.yul\":10039:10113   */\n      swap2\n      pop\n        /* \"#utility.yul\":10122:10215   */\n      tag_395\n        /* \"#utility.yul\":10211:10214   */\n      dup3\n        /* \"#utility.yul\":10122:10215   */\n      tag_396\n      jump\t// in\n    tag_395:\n        /* \"#utility.yul\":10240:10242   */\n      0x40\n        /* \"#utility.yul\":10235:10238   */\n      dup3\n        /* \"#utility.yul\":10231:10243   */\n      add\n        /* \"#utility.yul\":10224:10243   */\n      swap1\n      pop\n        /* \"#utility.yul\":9883:10249   */\n      swap2\n      swap1\n      pop\n      jump\t// out\n        /* \"#utility.yul\":10255:10363   */\n    tag_303:\n        /* \"#utility.yul\":10332:10356   */\n      tag_398\n        /* \"#utility.yul\":10350:10355   */\n      dup2\n        /* \"#utility.yul\":10332:10356   */\n      tag_399\n      jump\t// in\n    tag_398:\n        /* \"#utility.yul\":10327:10330   */\n      dup3\n        /* \"#utility.yul\":10320:10357   */\n      mstore\n        /* \"#utility.yul\":10255:10363   */\n      pop\n      pop\n      jump\t// out\n        /* \"#utility.yul\":10369:10487   */\n    tag_400:\n        /* \"#utility.yul\":10456:10480   */\n      tag_402\n        /* \"#utility.yul\":10474:10479   */\n      dup2\n        /* \"#utility.yul\":10456:10480   */\n      tag_399\n      jump\t// in\n    tag_402:\n        /* \"#utility.yul\":10451:10454   */\n      dup3\n        /* \"#utility.yul\":10444:10481   */\n      mstore\n        /* \"#utility.yul\":10369:10487   */\n      pop\n      pop\n      jump\t// out\n        /* \"#utility.yul\":10493:10650   */\n    tag_403:\n        /* \"#utility.yul\":10598:10643   */\n      tag_405\n        /* \"#utility.yul\":10618:10642   */\n      tag_406\n        /* \"#utility.yul\":10636:10641   */\n      dup3\n        /* \"#utility.yul\":10618:10642   */\n      tag_399\n      jump\t// in\n    tag_406:\n        /* \"#utility.yul\":10598:10643   */\n      tag_407\n      jump\t// in\n    tag_405:\n        /* \"#utility.yul\":10593:10596   */\n      dup3\n        /* \"#utility.yul\":10586:10644   */\n      mstore\n        /* \"#utility.yul\":10493:10650   */\n      pop\n      pop\n      jump\t// out\n        /* \"#utility.yul\":10656:10768   */\n    tag_408:\n        /* \"#utility.yul\":10739:10761   */\n      tag_410\n        /* \"#utility.yul\":10755:10760   */\n      dup2\n        /* \"#utility.yul\":10739:10761   */\n      tag_411\n      jump\t// in\n    tag_410:\n        /* \"#utility.yul\":10734:10737   */\n      dup3\n        /* \"#utility.yul\":10727:10762   */\n      mstore\n        /* \"#utility.yul\":10656:10768   */\n      pop\n      pop\n      jump\t// out\n        /* \"#utility.yul\":10774:11331   */\n    tag_208:\n        /* \"#utility.yul\":10962:10965   */\n      0x00\n        /* \"#utility.yul\":10977:11052   */\n      tag_413\n        /* \"#utility.yul\":11048:11051   */\n      dup3\n        /* \"#utility.yul\":11039:11045   */\n      dup7\n        /* \"#utility.yul\":10977:11052   */\n      tag_308\n      jump\t// in\n    tag_413:\n        /* \"#utility.yul\":11077:11079   */\n      0x14\n        /* \"#utility.yul\":11072:11075   */\n      dup3\n        /* \"#utility.yul\":11068:11080   */\n      add\n        /* \"#utility.yul\":11061:11080   */\n      swap2\n      pop\n        /* \"#utility.yul\":11090:11165   */\n      tag_414\n        /* \"#utility.yul\":11161:11164   */\n      dup3\n        /* \"#utility.yul\":11152:11158   */\n      dup6\n        /* \"#utility.yul\":11090:11165   */\n      tag_403\n      jump\t// in\n    tag_414:\n        /* \"#utility.yul\":11190:11192   */\n      0x20\n        /* \"#utility.yul\":11185:11188   */\n      dup3\n        /* \"#utility.yul\":11181:11193   */\n      add\n        /* \"#utility.yul\":11174:11193   */\n      swap2\n      pop\n        /* \"#utility.yul\":11210:11305   */\n      tag_415\n        /* \"#utility.yul\":11301:11304   */\n      dup3\n        /* \"#utility.yul\":11292:11298   */\n      dup5\n        /* \"#utility.yul\":11210:11305   */\n      tag_341\n      jump\t// in\n    tag_415:\n        /* \"#utility.yul\":11203:11305   */\n      swap2\n      pop\n        /* \"#utility.yul\":11322:11325   */\n      dup2\n        /* \"#utility.yul\":11315:11325   */\n      swap1\n      pop\n        /* \"#utility.yul\":10774:11331   */\n      swap5\n      swap4\n      pop\n      pop\n      pop\n      pop\n      jump\t// out\n        /* \"#utility.yul\":11337:11710   */\n    tag_83:\n        /* \"#utility.yul\":11480:11484   */\n      0x00\n        /* \"#utility.yul\":11518:11520   */\n      0x20\n        /* \"#utility.yul\":11507:11516   */\n      dup3\n        /* \"#utility.yul\":11503:11521   */\n      add\n        /* \"#utility.yul\":11495:11521   */\n      swap1\n      pop\n        /* \"#utility.yul\":11567:11576   */\n      dup2\n        /* \"#utility.yul\":11561:11565   */\n      dup2\n        /* \"#utility.yul\":11557:11577   */\n      sub\n        /* \"#utility.yul\":11553:11554   */\n      0x00\n        /* \"#utility.yul\":11542:11551   */\n      dup4\n        /* \"#utility.yul\":11538:11555   */\n      add\n        /* \"#utility.yul\":11531:11578   */\n      mstore\n        /* \"#utility.yul\":11595:11703   */\n      tag_417\n        /* \"#utility.yul\":11698:11702   */\n      dup2\n        /* \"#utility.yul\":11689:11695   */\n      dup5\n        /* \"#utility.yul\":11595:11703   */\n      tag_313\n      jump\t// in\n    tag_417:\n        /* \"#utility.yul\":11587:11703   */\n      swap1\n      pop\n        /* \"#utility.yul\":11337:11710   */\n      swap3\n      swap2\n      pop\n      pop\n      jump\t// out\n        /* \"#utility.yul\":11716:11926   */\n    tag_30:\n        /* \"#utility.yul\":11803:11807   */\n      0x00\n        /* \"#utility.yul\":11841:11843   */\n      0x20\n        /* \"#utility.yul\":11830:11839   */\n      dup3\n        /* \"#utility.yul\":11826:11844   */\n      add\n        /* \"#utility.yul\":11818:11844   */\n      swap1\n      pop\n        /* \"#utility.yul\":11854:11919   */\n      tag_419\n        /* \"#utility.yul\":11916:11917   */\n      0x00\n        /* \"#utility.yul\":11905:11914   */\n      dup4\n        /* \"#utility.yul\":11901:11918   */\n      add\n        /* \"#utility.yul\":11892:11898   */\n      dup5\n        /* \"#utility.yul\":11854:11919   */\n      tag_327\n      jump\t// in\n    tag_419:\n        /* \"#utility.yul\":11716:11926   */\n      swap3\n      swap2\n      pop\n      pop\n      jump\t// out\n        /* \"#utility.yul\":11932:12245   */\n    tag_24:\n        /* \"#utility.yul\":12045:12049   */\n      0x00\n        /* \"#utility.yul\":12083:12085   */\n      0x20\n        /* \"#utility.yul\":12072:12081   */\n      dup3\n        /* \"#utility.yul\":12068:12086   */\n      add\n        /* \"#utility.yul\":12060:12086   */\n      swap1\n      pop\n        /* \"#utility.yul\":12132:12141   */\n      dup2\n        /* \"#utility.yul\":12126:12130   */\n      dup2\n        /* \"#utility.yul\":12122:12142   */\n      sub\n        /* \"#utility.yul\":12118:12119   */\n      0x00\n        /* \"#utility.yul\":12107:12116   */\n      dup4\n        /* \"#utility.yul\":12103:12120   */\n      add\n        /* \"#utility.yul\":12096:12143   */\n      mstore\n        /* \"#utility.yul\":12160:12238   */\n      tag_421\n        /* \"#utility.yul\":12233:12237   */\n      dup2\n        /* \"#utility.yul\":12224:12230   */\n      dup5\n        /* \"#utility.yul\":12160:12238   */\n      tag_331\n      jump\t// in\n    tag_421:\n        /* \"#utility.yul\":12152:12238   */\n      swap1\n      pop\n        /* \"#utility.yul\":11932:12245   */\n      swap3\n      swap2\n      pop\n      pop\n      jump\t// out\n        /* \"#utility.yul\":12251:12670   */\n    tag_218:\n        /* \"#utility.yul\":12417:12421   */\n      0x00\n        /* \"#utility.yul\":12455:12457   */\n      0x20\n        /* \"#utility.yul\":12444:12453   */\n      dup3\n        /* \"#utility.yul\":12440:12458   */\n      add\n        /* \"#utility.yul\":12432:12458   */\n      swap1\n      pop\n        /* \"#utility.yul\":12504:12513   */\n      dup2\n        /* \"#utility.yul\":12498:12502   */\n      dup2\n        /* \"#utility.yul\":12494:12514   */\n      sub\n        /* \"#utility.yul\":12490:12491   */\n      0x00\n        /* \"#utility.yul\":12479:12488   */\n      dup4\n        /* \"#utility.yul\":12475:12492   */\n      add\n        /* \"#utility.yul\":12468:12515   */\n      mstore\n        /* \"#utility.yul\":12532:12663   */\n      tag_423\n        /* \"#utility.yul\":12658:12662   */\n      dup2\n        /* \"#utility.yul\":12532:12663   */\n      tag_347\n      jump\t// in\n    tag_423:\n        /* \"#utility.yul\":12524:12663   */\n      swap1\n      pop\n        /* \"#utility.yul\":12251:12670   */\n      swap2\n      swap1\n      pop\n      jump\t// out\n        /* \"#utility.yul\":12676:13095   */\n    tag_204:\n        /* \"#utility.yul\":12842:12846   */\n      0x00\n        /* \"#utility.yul\":12880:12882   */\n      0x20\n        /* \"#utility.yul\":12869:12878   */\n      dup3\n        /* \"#utility.yul\":12865:12883   */\n      add\n        /* \"#utility.yul\":12857:12883   */\n      swap1\n      pop\n        /* \"#utility.yul\":12929:12938   */\n      dup2\n        /* \"#utility.yul\":12923:12927   */\n      dup2\n        /* \"#utility.yul\":12919:12939   */\n      sub\n        /* \"#utility.yul\":12915:12916   */\n      0x00\n        /* \"#utility.yul\":12904:12913   */\n      dup4\n        /* \"#utility.yul\":12900:12917   */\n      add\n        /* \"#utility.yul\":12893:12940   */\n      mstore\n        /* \"#utility.yul\":12957:13088   */\n      tag_425\n        /* \"#utility.yul\":13083:13087   */\n      dup2\n        /* \"#utility.yul\":12957:13088   */\n      tag_352\n      jump\t// in\n    tag_425:\n        /* \"#utility.yul\":12949:13088   */\n      swap1\n      pop\n        /* \"#utility.yul\":12676:13095   */\n      swap2\n      swap1\n      pop\n      jump\t// out\n        /* \"#utility.yul\":13101:13520   */\n    tag_107:\n        /* \"#utility.yul\":13267:13271   */\n      0x00\n        /* \"#utility.yul\":13305:13307   */\n      0x20\n        /* \"#utility.yul\":13294:13303   */\n      dup3\n        /* \"#utility.yul\":13290:13308   */\n      add\n        /* \"#utility.yul\":13282:13308   */\n      swap1\n      pop\n        /* \"#utility.yul\":13354:13363   */\n      dup2\n        /* \"#utility.yul\":13348:13352   */\n      dup2\n        /* \"#utility.yul\":13344:13364   */\n      sub\n        /* \"#utility.yul\":13340:13341   */\n      0x00\n        /* \"#utility.yul\":13329:13338   */\n      dup4\n        /* \"#utility.yul\":13325:13342   */\n      add\n        /* \"#utility.yul\":13318:13365   */\n      mstore\n        /* \"#utility.yul\":13382:13513   */\n      tag_427\n        /* \"#utility.yul\":13508:13512   */\n      dup2\n        /* \"#utility.yul\":13382:13513   */\n      tag_357\n      jump\t// in\n    tag_427:\n        /* \"#utility.yul\":13374:13513   */\n      swap1\n      pop\n        /* \"#utility.yul\":13101:13520   */\n      swap2\n      swap1\n      pop\n      jump\t// out\n        /* \"#utility.yul\":13526:13945   */\n    tag_223:\n        /* \"#utility.yul\":13692:13696   */\n      0x00\n        /* \"#utility.yul\":13730:13732   */\n      0x20\n        /* \"#utility.yul\":13719:13728   */\n      dup3\n        /* \"#utility.yul\":13715:13733   */\n      add\n        /* \"#utility.yul\":13707:13733   */\n      swap1\n      pop\n        /* \"#utility.yul\":13779:13788   */\n      dup2\n        /* \"#utility.yul\":13773:13777   */\n      dup2\n        /* \"#utility.yul\":13769:13789   */\n      sub\n        /* \"#utility.yul\":13765:13766   */\n      0x00\n        /* \"#utility.yul\":13754:13763   */\n      dup4\n        /* \"#utility.yul\":13750:13767   */\n      add\n        /* \"#utility.yul\":13743:13790   */\n      mstore\n        /* \"#utility.yul\":13807:13938   */\n      tag_429\n        /* \"#utility.yul\":13933:13937   */\n      dup2\n        /* \"#utility.yul\":13807:13938   */\n      tag_362\n      jump\t// in\n    tag_429:\n        /* \"#utility.yul\":13799:13938   */\n      swap1\n      pop\n        /* \"#utility.yul\":13526:13945   */\n      swap2\n      swap1\n      pop\n      jump\t// out\n        /* \"#utility.yul\":13951:14370   */\n    tag_130:\n        /* \"#utility.yul\":14117:14121   */\n      0x00\n        /* \"#utility.yul\":14155:14157   */\n      0x20\n        /* \"#utility.yul\":14144:14153   */\n      dup3\n        /* \"#utility.yul\":14140:14158   */\n      add\n        /* \"#utility.yul\":14132:14158   */\n      swap1\n      pop\n        /* \"#utility.yul\":14204:14213   */\n      dup2\n        /* \"#utility.yul\":14198:14202   */\n      dup2\n        /* \"#utility.yul\":14194:14214   */\n      sub\n        /* \"#utility.yul\":14190:14191   */\n      0x00\n        /* \"#utility.yul\":14179:14188   */\n      dup4\n        /* \"#utility.yul\":14175:14192   */\n      add\n        /* \"#utility.yul\":14168:14215   */\n      mstore\n        /* \"#utility.yul\":14232:14363   */\n      tag_431\n        /* \"#utility.yul\":14358:14362   */\n      dup2\n        /* \"#utility.yul\":14232:14363   */\n      tag_367\n      jump\t// in\n    tag_431:\n        /* \"#utility.yul\":14224:14363   */\n      swap1\n      pop\n        /* \"#utility.yul\":13951:14370   */\n      swap2\n      swap1\n      pop\n      jump\t// out\n        /* \"#utility.yul\":14376:14795   */\n    tag_112:\n        /* \"#utility.yul\":14542:14546   */\n      0x00\n        /* \"#utility.yul\":14580:14582   */\n      0x20\n        /* \"#utility.yul\":14569:14578   */\n      dup3\n        /* \"#utility.yul\":14565:14583   */\n      add\n        /* \"#utility.yul\":14557:14583   */\n      swap1\n      pop\n        /* \"#utility.yul\":14629:14638   */\n      dup2\n        /* \"#utility.yul\":14623:14627   */\n      dup2\n        /* \"#utility.yul\":14619:14639   */\n      sub\n        /* \"#utility.yul\":14615:14616   */\n      0x00\n        /* \"#utility.yul\":14604:14613   */\n      dup4\n        /* \"#utility.yul\":14600:14617   */\n      add\n        /* \"#utility.yul\":14593:14640   */\n      mstore\n        /* \"#utility.yul\":14657:14788   */\n      tag_433\n        /* \"#utility.yul\":14783:14787   */\n      dup2\n        /* \"#utility.yul\":14657:14788   */\n      tag_372\n      jump\t// in\n    tag_433:\n        /* \"#utility.yul\":14649:14788   */\n      swap1\n      pop\n        /* \"#utility.yul\":14376:14795   */\n      swap2\n      swap1\n      pop\n      jump\t// out\n        /* \"#utility.yul\":14801:15220   */\n    tag_215:\n        /* \"#utility.yul\":14967:14971   */\n      0x00\n        /* \"#utility.yul\":15005:15007   */\n      0x20\n        /* \"#utility.yul\":14994:15003   */\n      dup3\n        /* \"#utility.yul\":14990:15008   */\n      add\n        /* \"#utility.yul\":14982:15008   */\n      swap1\n      pop\n        /* \"#utility.yul\":15054:15063   */\n      dup2\n        /* \"#utility.yul\":15048:15052   */\n      dup2\n        /* \"#utility.yul\":15044:15064   */\n      sub\n        /* \"#utility.yul\":15040:15041   */\n      0x00\n        /* \"#utility.yul\":15029:15038   */\n      dup4\n        /* \"#utility.yul\":15025:15042   */\n      add\n        /* \"#utility.yul\":15018:15065   */\n      mstore\n        /* \"#utility.yul\":15082:15213   */\n      tag_435\n        /* \"#utility.yul\":15208:15212   */\n      dup2\n        /* \"#utility.yul\":15082:15213   */\n      tag_377\n      jump\t// in\n    tag_435:\n        /* \"#utility.yul\":15074:15213   */\n      swap1\n      pop\n        /* \"#utility.yul\":14801:15220   */\n      swap2\n      swap1\n      pop\n      jump\t// out\n        /* \"#utility.yul\":15226:15645   */\n    tag_201:\n        /* \"#utility.yul\":15392:15396   */\n      0x00\n        /* \"#utility.yul\":15430:15432   */\n      0x20\n        /* \"#utility.yul\":15419:15428   */\n      dup3\n        /* \"#utility.yul\":15415:15433   */\n      add\n        /* \"#utility.yul\":15407:15433   */\n      swap1\n      pop\n        /* \"#utility.yul\":15479:15488   */\n      dup2\n        /* \"#utility.yul\":15473:15477   */\n      dup2\n        /* \"#utility.yul\":15469:15489   */\n      sub\n        /* \"#utility.yul\":15465:15466   */\n      0x00\n        /* \"#utility.yul\":15454:15463   */\n      dup4\n        /* \"#utility.yul\":15450:15467   */\n      add\n        /* \"#utility.yul\":15443:15490   */\n      mstore\n        /* \"#utility.yul\":15507:15638   */\n      tag_437\n        /* \"#utility.yul\":15633:15637   */\n      dup2\n        /* \"#utility.yul\":15507:15638   */\n      tag_382\n      jump\t// in\n    tag_437:\n        /* \"#utility.yul\":15499:15638   */\n      swap1\n      pop\n        /* \"#utility.yul\":15226:15645   */\n      swap2\n      swap1\n      pop\n      jump\t// out\n        /* \"#utility.yul\":15651:16070   */\n    tag_144:\n        /* \"#utility.yul\":15817:15821   */\n      0x00\n        /* \"#utility.yul\":15855:15857   */\n      0x20\n        /* \"#utility.yul\":15844:15853   */\n      dup3\n        /* \"#utility.yul\":15840:15858   */\n      add\n        /* \"#utility.yul\":15832:15858   */\n      swap1\n      pop\n        /* \"#utility.yul\":15904:15913   */\n      dup2\n        /* \"#utility.yul\":15898:15902   */\n      dup2\n        /* \"#utility.yul\":15894:15914   */\n      sub\n        /* \"#utility.yul\":15890:15891   */\n      0x00\n        /* \"#utility.yul\":15879:15888   */\n      dup4\n        /* \"#utility.yul\":15875:15892   */\n      add\n        /* \"#utility.yul\":15868:15915   */\n      mstore\n        /* \"#utility.yul\":15932:16063   */\n      tag_439\n        /* \"#utility.yul\":16058:16062   */\n      dup2\n        /* \"#utility.yul\":15932:16063   */\n      tag_387\n      jump\t// in\n    tag_439:\n        /* \"#utility.yul\":15924:16063   */\n      swap1\n      pop\n        /* \"#utility.yul\":15651:16070   */\n      swap2\n      swap1\n      pop\n      jump\t// out\n        /* \"#utility.yul\":16076:16495   */\n    tag_156:\n        /* \"#utility.yul\":16242:16246   */\n      0x00\n        /* \"#utility.yul\":16280:16282   */\n      0x20\n        /* \"#utility.yul\":16269:16278   */\n      dup3\n        /* \"#utility.yul\":16265:16283   */\n      add\n        /* \"#utility.yul\":16257:16283   */\n      swap1\n      pop\n        /* \"#utility.yul\":16329:16338   */\n      dup2\n        /* \"#utility.yul\":16323:16327   */\n      dup2\n        /* \"#utility.yul\":16319:16339   */\n      sub\n        /* \"#utility.yul\":16315:16316   */\n      0x00\n        /* \"#utility.yul\":16304:16313   */\n      dup4\n        /* \"#utility.yul\":16300:16317   */\n      add\n        /* \"#utility.yul\":16293:16340   */\n      mstore\n        /* \"#utility.yul\":16357:16488   */\n      tag_441\n        /* \"#utility.yul\":16483:16487   */\n      dup2\n        /* \"#utility.yul\":16357:16488   */\n      tag_392\n      jump\t// in\n    tag_441:\n        /* \"#utility.yul\":16349:16488   */\n      swap1\n      pop\n        /* \"#utility.yul\":16076:16495   */\n      swap2\n      swap1\n      pop\n      jump\t// out\n        /* \"#utility.yul\":16501:16723   */\n    tag_34:\n        /* \"#utility.yul\":16594:16598   */\n      0x00\n        /* \"#utility.yul\":16632:16634   */\n      0x20\n        /* \"#utility.yul\":16621:16630   */\n      dup3\n        /* \"#utility.yul\":16617:16635   */\n      add\n        /* \"#utility.yul\":16609:16635   */\n      swap1\n      pop\n        /* \"#utility.yul\":16645:16716   */\n      tag_443\n        /* \"#utility.yul\":16713:16714   */\n      0x00\n        /* \"#utility.yul\":16702:16711   */\n      dup4\n        /* \"#utility.yul\":16698:16715   */\n      add\n        /* \"#utility.yul\":16689:16695   */\n      dup5\n        /* \"#utility.yul\":16645:16716   */\n      tag_400\n      jump\t// in\n    tag_443:\n        /* \"#utility.yul\":16501:16723   */\n      swap3\n      swap2\n      pop\n      pop\n      jump\t// out\n        /* \"#utility.yul\":16729:17484   */\n    tag_123:\n        /* \"#utility.yul\":16954:16958   */\n      0x00\n        /* \"#utility.yul\":16992:16995   */\n      0xa0\n        /* \"#utility.yul\":16981:16990   */\n      dup3\n        /* \"#utility.yul\":16977:16996   */\n      add\n        /* \"#utility.yul\":16969:16996   */\n      swap1\n      pop\n        /* \"#utility.yul\":17006:17077   */\n      tag_445\n        /* \"#utility.yul\":17074:17075   */\n      0x00\n        /* \"#utility.yul\":17063:17072   */\n      dup4\n        /* \"#utility.yul\":17059:17076   */\n      add\n        /* \"#utility.yul\":17050:17056   */\n      dup9\n        /* \"#utility.yul\":17006:17077   */\n      tag_400\n      jump\t// in\n    tag_445:\n        /* \"#utility.yul\":17087:17159   */\n      tag_446\n        /* \"#utility.yul\":17155:17157   */\n      0x20\n        /* \"#utility.yul\":17144:17153   */\n      dup4\n        /* \"#utility.yul\":17140:17158   */\n      add\n        /* \"#utility.yul\":17131:17137   */\n      dup8\n        /* \"#utility.yul\":17087:17159   */\n      tag_304\n      jump\t// in\n    tag_446:\n        /* \"#utility.yul\":17169:17241   */\n      tag_447\n        /* \"#utility.yul\":17237:17239   */\n      0x40\n        /* \"#utility.yul\":17226:17235   */\n      dup4\n        /* \"#utility.yul\":17222:17240   */\n      add\n        /* \"#utility.yul\":17213:17219   */\n      dup7\n        /* \"#utility.yul\":17169:17241   */\n      tag_400\n      jump\t// in\n    tag_447:\n        /* \"#utility.yul\":17251:17323   */\n      tag_448\n        /* \"#utility.yul\":17319:17321   */\n      0x60\n        /* \"#utility.yul\":17308:17317   */\n      dup4\n        /* \"#utility.yul\":17304:17322   */\n      add\n        /* \"#utility.yul\":17295:17301   */\n      dup6\n        /* \"#utility.yul\":17251:17323   */\n      tag_400\n      jump\t// in\n    tag_448:\n        /* \"#utility.yul\":17371:17380   */\n      dup2\n        /* \"#utility.yul\":17365:17369   */\n      dup2\n        /* \"#utility.yul\":17361:17381   */\n      sub\n        /* \"#utility.yul\":17355:17358   */\n      0x80\n        /* \"#utility.yul\":17344:17353   */\n      dup4\n        /* \"#utility.yul\":17340:17359   */\n      add\n        /* \"#utility.yul\":17333:17382   */\n      mstore\n        /* \"#utility.yul\":17399:17477   */\n      tag_449\n        /* \"#utility.yul\":17472:17476   */\n      dup2\n        /* \"#utility.yul\":17463:17469   */\n      dup5\n        /* \"#utility.yul\":17399:17477   */\n      tag_331\n      jump\t// in\n    tag_449:\n        /* \"#utility.yul\":17391:17477   */\n      swap1\n      pop\n        /* \"#utility.yul\":16729:17484   */\n      swap7\n      swap6\n      pop\n      pop\n      pop\n      pop\n      pop\n      pop\n      jump\t// out\n        /* \"#utility.yul\":17490:18677   */\n    tag_78:\n        /* \"#utility.yul\":17821:17825   */\n      0x00\n        /* \"#utility.yul\":17859:17862   */\n      0x0120\n        /* \"#utility.yul\":17848:17857   */\n      dup3\n        /* \"#utility.yul\":17844:17863   */\n      add\n        /* \"#utility.yul\":17836:17863   */\n      swap1\n      pop\n        /* \"#utility.yul\":17873:17944   */\n      tag_451\n        /* \"#utility.yul\":17941:17942   */\n      0x00\n        /* \"#utility.yul\":17930:17939   */\n      dup4\n        /* \"#utility.yul\":17926:17943   */\n      add\n        /* \"#utility.yul\":17917:17923   */\n      dup13\n        /* \"#utility.yul\":17873:17944   */\n      tag_400\n      jump\t// in\n    tag_451:\n        /* \"#utility.yul\":17954:18026   */\n      tag_452\n        /* \"#utility.yul\":18022:18024   */\n      0x20\n        /* \"#utility.yul\":18011:18020   */\n      dup4\n        /* \"#utility.yul\":18007:18025   */\n      add\n        /* \"#utility.yul\":17998:18004   */\n      dup12\n        /* \"#utility.yul\":17954:18026   */\n      tag_400\n      jump\t// in\n    tag_452:\n        /* \"#utility.yul\":18036:18108   */\n      tag_453\n        /* \"#utility.yul\":18104:18106   */\n      0x40\n        /* \"#utility.yul\":18093:18102   */\n      dup4\n        /* \"#utility.yul\":18089:18107   */\n      add\n        /* \"#utility.yul\":18080:18086   */\n      dup11\n        /* \"#utility.yul\":18036:18108   */\n      tag_400\n      jump\t// in\n    tag_453:\n        /* \"#utility.yul\":18118:18190   */\n      tag_454\n        /* \"#utility.yul\":18186:18188   */\n      0x60\n        /* \"#utility.yul\":18175:18184   */\n      dup4\n        /* \"#utility.yul\":18171:18189   */\n      add\n        /* \"#utility.yul\":18162:18168   */\n      dup10\n        /* \"#utility.yul\":18118:18190   */\n      tag_400\n      jump\t// in\n    tag_454:\n        /* \"#utility.yul\":18200:18273   */\n      tag_455\n        /* \"#utility.yul\":18268:18271   */\n      0x80\n        /* \"#utility.yul\":18257:18266   */\n      dup4\n        /* \"#utility.yul\":18253:18272   */\n      add\n        /* \"#utility.yul\":18244:18250   */\n      dup9\n        /* \"#utility.yul\":18200:18273   */\n      tag_400\n      jump\t// in\n    tag_455:\n        /* \"#utility.yul\":18283:18356   */\n      tag_456\n        /* \"#utility.yul\":18351:18354   */\n      0xa0\n        /* \"#utility.yul\":18340:18349   */\n      dup4\n        /* \"#utility.yul\":18336:18355   */\n      add\n        /* \"#utility.yul\":18327:18333   */\n      dup8\n        /* \"#utility.yul\":18283:18356   */\n      tag_304\n      jump\t// in\n    tag_456:\n        /* \"#utility.yul\":18366:18439   */\n      tag_457\n        /* \"#utility.yul\":18434:18437   */\n      0xc0\n        /* \"#utility.yul\":18423:18432   */\n      dup4\n        /* \"#utility.yul\":18419:18438   */\n      add\n        /* \"#utility.yul\":18410:18416   */\n      dup7\n        /* \"#utility.yul\":18366:18439   */\n      tag_304\n      jump\t// in\n    tag_457:\n        /* \"#utility.yul\":18487:18496   */\n      dup2\n        /* \"#utility.yul\":18481:18485   */\n      dup2\n        /* \"#utility.yul\":18477:18497   */\n      sub\n        /* \"#utility.yul\":18471:18474   */\n      0xe0\n        /* \"#utility.yul\":18460:18469   */\n      dup4\n        /* \"#utility.yul\":18456:18475   */\n      add\n        /* \"#utility.yul\":18449:18498   */\n      mstore\n        /* \"#utility.yul\":18515:18593   */\n      tag_458\n        /* \"#utility.yul\":18588:18592   */\n      dup2\n        /* \"#utility.yul\":18579:18585   */\n      dup6\n        /* \"#utility.yul\":18515:18593   */\n      tag_331\n      jump\t// in\n    tag_458:\n        /* \"#utility.yul\":18507:18593   */\n      swap1\n      pop\n        /* \"#utility.yul\":18603:18670   */\n      tag_459\n        /* \"#utility.yul\":18665:18668   */\n      0x0100\n        /* \"#utility.yul\":18654:18663   */\n      dup4\n        /* \"#utility.yul\":18650:18669   */\n      add\n        /* \"#utility.yul\":18641:18647   */\n      dup5\n        /* \"#utility.yul\":18603:18670   */\n      tag_327\n      jump\t// in\n    tag_459:\n        /* \"#utility.yul\":17490:18677   */\n      swap11\n      swap10\n      pop\n      pop\n      pop\n      pop\n      pop\n      pop\n      pop\n      pop\n      pop\n      pop\n      jump\t// out\n        /* \"#utility.yul\":18683:18897   */\n    tag_48:\n        /* \"#utility.yul\":18772:18776   */\n      0x00\n        /* \"#utility.yul\":18810:18812   */\n      0x20\n        /* \"#utility.yul\":18799:18808   */\n      dup3\n        /* \"#utility.yul\":18795:18813   */\n      add\n        /* \"#utility.yul\":18787:18813   */\n      swap1\n      pop\n        /* \"#utility.yul\":18823:18890   */\n      tag_461\n        /* \"#utility.yul\":18887:18888   */\n      0x00\n        /* \"#utility.yul\":18876:18885   */\n      dup4\n        /* \"#utility.yul\":18872:18889   */\n      add\n        /* \"#utility.yul\":18863:18869   */\n      dup5\n        /* \"#utility.yul\":18823:18890   */\n      tag_408\n      jump\t// in\n    tag_461:\n        /* \"#utility.yul\":18683:18897   */\n      swap3\n      swap2\n      pop\n      pop\n      jump\t// out\n        /* \"#utility.yul\":18903:19032   */\n    tag_244:\n        /* \"#utility.yul\":18937:18943   */\n      0x00\n        /* \"#utility.yul\":18964:18984   */\n      tag_463\n      tag_464\n      jump\t// in\n    tag_463:\n        /* \"#utility.yul\":18954:18984   */\n      swap1\n      pop\n        /* \"#utility.yul\":18993:19026   */\n      tag_465\n        /* \"#utility.yul\":19021:19025   */\n      dup3\n        /* \"#utility.yul\":19013:19019   */\n      dup3\n        /* \"#utility.yul\":18993:19026   */\n      tag_466\n      jump\t// in\n    tag_465:\n        /* \"#utility.yul\":18903:19032   */\n      swap2\n      swap1\n      pop\n      jump\t// out\n        /* \"#utility.yul\":19038:19113   */\n    tag_464:\n        /* \"#utility.yul\":19071:19077   */\n      0x00\n        /* \"#utility.yul\":19104:19106   */\n      0x40\n        /* \"#utility.yul\":19098:19107   */\n      mload\n        /* \"#utility.yul\":19088:19107   */\n      swap1\n      pop\n        /* \"#utility.yul\":19038:19113   */\n      swap1\n      jump\t// out\n        /* \"#utility.yul\":19119:19427   */\n    tag_243:\n        /* \"#utility.yul\":19181:19185   */\n      0x00\n        /* \"#utility.yul\":19271:19289   */\n      0xffffffffffffffff\n        /* \"#utility.yul\":19263:19269   */\n      dup3\n        /* \"#utility.yul\":19260:19290   */\n      gt\n        /* \"#utility.yul\":19257:19313   */\n      iszero\n      tag_469\n      jumpi\n        /* \"#utility.yul\":19293:19311   */\n      tag_470\n      tag_181\n      jump\t// in\n    tag_470:\n        /* \"#utility.yul\":19257:19313   */\n    tag_469:\n        /* \"#utility.yul\":19331:19360   */\n      tag_471\n        /* \"#utility.yul\":19353:19359   */\n      dup3\n        /* \"#utility.yul\":19331:19360   */\n      tag_340\n      jump\t// in\n    tag_471:\n        /* \"#utility.yul\":19323:19360   */\n      swap1\n      pop\n        /* \"#utility.yul\":19415:19419   */\n      0x20\n        /* \"#utility.yul\":19409:19413   */\n      dup2\n        /* \"#utility.yul\":19405:19420   */\n      add\n        /* \"#utility.yul\":19397:19420   */\n      swap1\n      pop\n        /* \"#utility.yul\":19119:19427   */\n      swap2\n      swap1\n      pop\n      jump\t// out\n        /* \"#utility.yul\":19433:19565   */\n    tag_320:\n        /* \"#utility.yul\":19500:19504   */\n      0x00\n        /* \"#utility.yul\":19523:19526   */\n      dup2\n        /* \"#utility.yul\":19515:19526   */\n      swap1\n      pop\n        /* \"#utility.yul\":19553:19557   */\n      0x20\n        /* \"#utility.yul\":19548:19551   */\n      dup3\n        /* \"#utility.yul\":19544:19558   */\n      add\n        /* \"#utility.yul\":19536:19558   */\n      swap1\n      pop\n        /* \"#utility.yul\":19433:19565   */\n      swap2\n      swap1\n      pop\n      jump\t// out\n        /* \"#utility.yul\":19571:19685   */\n    tag_316:\n        /* \"#utility.yul\":19638:19644   */\n      0x00\n        /* \"#utility.yul\":19672:19677   */\n      dup2\n        /* \"#utility.yul\":19666:19678   */\n      mload\n        /* \"#utility.yul\":19656:19678   */\n      swap1\n      pop\n        /* \"#utility.yul\":19571:19685   */\n      swap2\n      swap1\n      pop\n      jump\t// out\n        /* \"#utility.yul\":19691:19790   */\n    tag_334:\n        /* \"#utility.yul\":19743:19749   */\n      0x00\n        /* \"#utility.yul\":19777:19782   */\n      dup2\n        /* \"#utility.yul\":19771:19783   */\n      mload\n        /* \"#utility.yul\":19761:19783   */\n      swap1\n      pop\n        /* \"#utility.yul\":19691:19790   */\n      swap2\n      swap1\n      pop\n      jump\t// out\n        /* \"#utility.yul\":19796:19909   */\n    tag_326:\n        /* \"#utility.yul\":19866:19870   */\n      0x00\n        /* \"#utility.yul\":19898:19902   */\n      0x20\n        /* \"#utility.yul\":19893:19896   */\n      dup3\n        /* \"#utility.yul\":19889:19903   */\n      add\n        /* \"#utility.yul\":19881:19903   */\n      swap1\n      pop\n        /* \"#utility.yul\":19796:19909   */\n      swap2\n      swap1\n      pop\n      jump\t// out\n        /* \"#utility.yul\":19915:20099   */\n    tag_318:\n        /* \"#utility.yul\":20014:20025   */\n      0x00\n        /* \"#utility.yul\":20048:20054   */\n      dup3\n        /* \"#utility.yul\":20043:20046   */\n      dup3\n        /* \"#utility.yul\":20036:20055   */\n      mstore\n        /* \"#utility.yul\":20088:20092   */\n      0x20\n        /* \"#utility.yul\":20083:20086   */\n      dup3\n        /* \"#utility.yul\":20079:20093   */\n      add\n        /* \"#utility.yul\":20064:20093   */\n      swap1\n      pop\n        /* \"#utility.yul\":19915:20099   */\n      swap3\n      swap2\n      pop\n      pop\n      jump\t// out\n        /* \"#utility.yul\":20105:20274   */\n    tag_336:\n        /* \"#utility.yul\":20189:20200   */\n      0x00\n        /* \"#utility.yul\":20223:20229   */\n      dup3\n        /* \"#utility.yul\":20218:20221   */\n      dup3\n        /* \"#utility.yul\":20211:20230   */\n      mstore\n        /* \"#utility.yul\":20263:20267   */\n      0x20\n        /* \"#utility.yul\":20258:20261   */\n      dup3\n        /* \"#utility.yul\":20254:20268   */\n      add\n        /* \"#utility.yul\":20239:20268   */\n      swap1\n      pop\n        /* \"#utility.yul\":20105:20274   */\n      swap3\n      swap2\n      pop\n      pop\n      jump\t// out\n        /* \"#utility.yul\":20280:20428   */\n    tag_345:\n        /* \"#utility.yul\":20382:20393   */\n      0x00\n        /* \"#utility.yul\":20419:20422   */\n      dup2\n        /* \"#utility.yul\":20404:20422   */\n      swap1\n      pop\n        /* \"#utility.yul\":20280:20428   */\n      swap3\n      swap2\n      pop\n      pop\n      jump\t// out\n        /* \"#utility.yul\":20434:20739   */\n    tag_117:\n        /* \"#utility.yul\":20474:20477   */\n      0x00\n        /* \"#utility.yul\":20493:20513   */\n      tag_480\n        /* \"#utility.yul\":20511:20512   */\n      dup3\n        /* \"#utility.yul\":20493:20513   */\n      tag_399\n      jump\t// in\n    tag_480:\n        /* \"#utility.yul\":20488:20513   */\n      swap2\n      pop\n        /* \"#utility.yul\":20527:20547   */\n      tag_481\n        /* \"#utility.yul\":20545:20546   */\n      dup4\n        /* \"#utility.yul\":20527:20547   */\n      tag_399\n      jump\t// in\n    tag_481:\n        /* \"#utility.yul\":20522:20547   */\n      swap3\n      pop\n        /* \"#utility.yul\":20681:20682   */\n      dup3\n        /* \"#utility.yul\":20613:20679   */\n      0xffffffffffffffffffffffffffffffffffffffffffffffffffffffffffffffff\n        /* \"#utility.yul\":20609:20683   */\n      sub\n        /* \"#utility.yul\":20606:20607   */\n      dup3\n        /* \"#utility.yul\":20603:20684   */\n      gt\n        /* \"#utility.yul\":20600:20707   */\n      iszero\n      tag_482\n      jumpi\n        /* \"#utility.yul\":20687:20705   */\n      tag_483\n      tag_484\n      jump\t// in\n    tag_483:\n        /* \"#utility.yul\":20600:20707   */\n    tag_482:\n        /* \"#utility.yul\":20731:20732   */\n      dup3\n        /* \"#utility.yul\":20728:20729   */\n      dup3\n        /* \"#utility.yul\":20724:20733   */\n      add\n        /* \"#utility.yul\":20717:20733   */\n      swap1\n      pop\n        /* \"#utility.yul\":20434:20739   */\n      swap3\n      swap2\n      pop\n      pop\n      jump\t// out\n        /* \"#utility.yul\":20745:21093   */\n    tag_104:\n        /* \"#utility.yul\":20785:20792   */\n      0x00\n        /* \"#utility.yul\":20808:20828   */\n      tag_486\n        /* \"#utility.yul\":20826:20827   */\n      dup3\n        /* \"#utility.yul\":20808:20828   */\n      tag_399\n      jump\t// in\n    tag_486:\n        /* \"#utility.yul\":20803:20828   */\n      swap2\n      pop\n        /* \"#utility.yul\":20842:20862   */\n      tag_487\n        /* \"#utility.yul\":20860:20861   */\n      dup4\n        /* \"#utility.yul\":20842:20862   */\n      tag_399\n      jump\t// in\n    tag_487:\n        /* \"#utility.yul\":20837:20862   */\n      swap3\n      pop\n        /* \"#utility.yul\":21030:21031   */\n      dup2\n        /* \"#utility.yul\":20962:21028   */\n      0xffffffffffffffffffffffffffffffffffffffffffffffffffffffffffffffff\n        /* \"#utility.yul\":20958:21032   */\n      div\n        /* \"#utility.yul\":20955:20956   */\n      dup4\n        /* \"#utility.yul\":20952:21033   */\n      gt\n        /* \"#utility.yul\":20947:20948   */\n      dup3\n        /* \"#utility.yul\":20940:20949   */\n      iszero\n        /* \"#utility.yul\":20933:20950   */\n      iszero\n        /* \"#utility.yul\":20929:21034   */\n      and\n        /* \"#utility.yul\":20926:21057   */\n      iszero\n      tag_488\n      jumpi\n        /* \"#utility.yul\":21037:21055   */\n      tag_489\n      tag_484\n      jump\t// in\n    tag_489:\n        /* \"#utility.yul\":20926:21057   */\n    tag_488:\n        /* \"#utility.yul\":21085:21086   */\n      dup3\n        /* \"#utility.yul\":21082:21083   */\n      dup3\n        /* \"#utility.yul\":21078:21087   */\n      mul\n        /* \"#utility.yul\":21067:21087   */\n      swap1\n      pop\n        /* \"#utility.yul\":20745:21093   */\n      swap3\n      swap2\n      pop\n      pop\n      jump\t// out\n        /* \"#utility.yul\":21099:21290   */\n    tag_134:\n        /* \"#utility.yul\":21139:21143   */\n      0x00\n        /* \"#utility.yul\":21159:21179   */\n      tag_491\n        /* \"#utility.yul\":21177:21178   */\n      dup3\n        /* \"#utility.yul\":21159:21179   */\n      tag_399\n      jump\t// in\n    tag_491:\n        /* \"#utility.yul\":21154:21179   */\n      swap2\n      pop\n        /* \"#utility.yul\":21193:21213   */\n      tag_492\n        /* \"#utility.yul\":21211:21212   */\n      dup4\n        /* \"#utility.yul\":21193:21213   */\n      tag_399\n      jump\t// in\n    tag_492:\n        /* \"#utility.yul\":21188:21213   */\n      swap3\n      pop\n        /* \"#utility.yul\":21232:21233   */\n      dup3\n        /* \"#utility.yul\":21229:21230   */\n      dup3\n        /* \"#utility.yul\":21226:21234   */\n      lt\n        /* \"#utility.yul\":21223:21257   */\n      iszero\n      tag_493\n      jumpi\n        /* \"#utility.yul\":21237:21255   */\n      tag_494\n      tag_484\n      jump\t// in\n    tag_494:\n        /* \"#utility.yul\":21223:21257   */\n    tag_493:\n        /* \"#utility.yul\":21282:21283   */\n      dup3\n        /* \"#utility.yul\":21279:21280   */\n      dup3\n        /* \"#utility.yul\":21275:21284   */\n      sub\n        /* \"#utility.yul\":21267:21284   */\n      swap1\n      pop\n        /* \"#utility.yul\":21099:21290   */\n      swap3\n      swap2\n      pop\n      pop\n      jump\t// out\n        /* \"#utility.yul\":21296:21392   */\n    tag_307:\n        /* \"#utility.yul\":21333:21340   */\n      0x00\n        /* \"#utility.yul\":21362:21386   */\n      tag_496\n        /* \"#utility.yul\":21380:21385   */\n      dup3\n        /* \"#utility.yul\":21362:21386   */\n      tag_497\n      jump\t// in\n    tag_496:\n        /* \"#utility.yul\":21351:21386   */\n      swap1\n      pop\n        /* \"#utility.yul\":21296:21392   */\n      swap2\n      swap1\n      pop\n      jump\t// out\n        /* \"#utility.yul\":21398:21488   */\n    tag_330:\n        /* \"#utility.yul\":21432:21439   */\n      0x00\n        /* \"#utility.yul\":21475:21480   */\n      dup2\n        /* \"#utility.yul\":21468:21481   */\n      iszero\n        /* \"#utility.yul\":21461:21482   */\n      iszero\n        /* \"#utility.yul\":21450:21482   */\n      swap1\n      pop\n        /* \"#utility.yul\":21398:21488   */\n      swap2\n      swap1\n      pop\n      jump\t// out\n        /* \"#utility.yul\":21494:21620   */\n    tag_497:\n        /* \"#utility.yul\":21531:21538   */\n      0x00\n        /* \"#utility.yul\":21571:21613   */\n      0xffffffffffffffffffffffffffffffffffffffff\n        /* \"#utility.yul\":21564:21569   */\n      dup3\n        /* \"#utility.yul\":21560:21614   */\n      and\n        /* \"#utility.yul\":21549:21614   */\n      swap1\n      pop\n        /* \"#utility.yul\":21494:21620   */\n      swap2\n      swap1\n      pop\n      jump\t// out\n        /* \"#utility.yul\":21626:21703   */\n    tag_399:\n        /* \"#utility.yul\":21663:21670   */\n      0x00\n        /* \"#utility.yul\":21692:21697   */\n      dup2\n        /* \"#utility.yul\":21681:21697   */\n      swap1\n      pop\n        /* \"#utility.yul\":21626:21703   */\n      swap2\n      swap1\n      pop\n      jump\t// out\n        /* \"#utility.yul\":21709:21795   */\n    tag_411:\n        /* \"#utility.yul\":21744:21751   */\n      0x00\n        /* \"#utility.yul\":21784:21788   */\n      0xff\n        /* \"#utility.yul\":21777:21782   */\n      dup3\n        /* \"#utility.yul\":21773:21789   */\n      and\n        /* \"#utility.yul\":21762:21789   */\n      swap1\n      pop\n        /* \"#utility.yul\":21709:21795   */\n      swap2\n      swap1\n      pop\n      jump\t// out\n        /* \"#utility.yul\":21801:21955   */\n    tag_249:\n        /* \"#utility.yul\":21885:21891   */\n      dup3\n        /* \"#utility.yul\":21880:21883   */\n      dup2\n        /* \"#utility.yul\":21875:21878   */\n      dup4\n        /* \"#utility.yul\":21862:21892   */\n      calldatacopy\n        /* \"#utility.yul\":21947:21948   */\n      0x00\n        /* \"#utility.yul\":21938:21944   */\n      dup4\n        /* \"#utility.yul\":21933:21936   */\n      dup4\n        /* \"#utility.yul\":21929:21945   */\n      add\n        /* \"#utility.yul\":21922:21949   */\n      mstore\n        /* \"#utility.yul\":21801:21955   */\n      pop\n      pop\n      pop\n      jump\t// out\n        /* \"#utility.yul\":21961:22268   */\n    tag_338:\n        /* \"#utility.yul\":22029:22030   */\n      0x00\n        /* \"#utility.yul\":22039:22152   */\n    tag_504:\n        /* \"#utility.yul\":22053:22059   */\n      dup4\n        /* \"#utility.yul\":22050:22051   */\n      dup2\n        /* \"#utility.yul\":22047:22060   */\n      lt\n        /* \"#utility.yul\":22039:22152   */\n      iszero\n      tag_506\n      jumpi\n        /* \"#utility.yul\":22138:22139   */\n      dup1\n        /* \"#utility.yul\":22133:22136   */\n      dup3\n        /* \"#utility.yul\":22129:22140   */\n      add\n        /* \"#utility.yul\":22123:22141   */\n      mload\n        /* \"#utility.yul\":22119:22120   */\n      dup2\n        /* \"#utility.yul\":22114:22117   */\n      dup5\n        /* \"#utility.yul\":22110:22121   */\n      add\n        /* \"#utility.yul\":22103:22142   */\n      mstore\n        /* \"#utility.yul\":22075:22077   */\n      0x20\n        /* \"#utility.yul\":22072:22073   */\n      dup2\n        /* \"#utility.yul\":22068:22078   */\n      add\n        /* \"#utility.yul\":22063:22078   */\n      swap1\n      pop\n        /* \"#utility.yul\":22039:22152   */\n      jump(tag_504)\n    tag_506:\n        /* \"#utility.yul\":22170:22176   */\n      dup4\n        /* \"#utility.yul\":22167:22168   */\n      dup2\n        /* \"#utility.yul\":22164:22177   */\n      gt\n        /* \"#utility.yul\":22161:22262   */\n      iszero\n      tag_507\n      jumpi\n        /* \"#utility.yul\":22250:22251   */\n      0x00\n        /* \"#utility.yul\":22241:22247   */\n      dup5\n        /* \"#utility.yul\":22236:22239   */\n      dup5\n        /* \"#utility.yul\":22232:22248   */\n      add\n        /* \"#utility.yul\":22225:22252   */\n      mstore\n        /* \"#utility.yul\":22161:22262   */\n    tag_507:\n        /* \"#utility.yul\":22010:22268   */\n      pop\n        /* \"#utility.yul\":21961:22268   */\n      pop\n      pop\n      pop\n      jump\t// out\n        /* \"#utility.yul\":22274:22594   */\n    tag_91:\n        /* \"#utility.yul\":22318:22324   */\n      0x00\n        /* \"#utility.yul\":22355:22356   */\n      0x02\n        /* \"#utility.yul\":22349:22353   */\n      dup3\n        /* \"#utility.yul\":22345:22357   */\n      div\n        /* \"#utility.yul\":22335:22357   */\n      swap1\n      pop\n        /* \"#utility.yul\":22402:22403   */\n      0x01\n        /* \"#utility.yul\":22396:22400   */\n      dup3\n        /* \"#utility.yul\":22392:22404   */\n      and\n        /* \"#utility.yul\":22423:22441   */\n      dup1\n        /* \"#utility.yul\":22413:22494   */\n      tag_509\n      jumpi\n        /* \"#utility.yul\":22479:22483   */\n      0x7f\n        /* \"#utility.yul\":22471:22477   */\n      dup3\n        /* \"#utility.yul\":22467:22484   */\n      and\n        /* \"#utility.yul\":22457:22484   */\n      swap2\n      pop\n        /* \"#utility.yul\":22413:22494   */\n    tag_509:\n        /* \"#utility.yul\":22541:22543   */\n      0x20\n        /* \"#utility.yul\":22533:22539   */\n      dup3\n        /* \"#utility.yul\":22530:22544   */\n      lt\n        /* \"#utility.yul\":22510:22528   */\n      dup2\n        /* \"#utility.yul\":22507:22545   */\n      eq\n        /* \"#utility.yul\":22504:22588   */\n      iszero\n      tag_510\n      jumpi\n        /* \"#utility.yul\":22560:22578   */\n      tag_511\n      tag_512\n      jump\t// in\n    tag_511:\n        /* \"#utility.yul\":22504:22588   */\n    tag_510:\n        /* \"#utility.yul\":22325:22594   */\n      pop\n        /* \"#utility.yul\":22274:22594   */\n      swap2\n      swap1\n      pop\n      jump\t// out\n        /* \"#utility.yul\":22600:22881   */\n    tag_466:\n        /* \"#utility.yul\":22683:22710   */\n      tag_514\n        /* \"#utility.yul\":22705:22709   */\n      dup3\n        /* \"#utility.yul\":22683:22710   */\n      tag_340\n      jump\t// in\n    tag_514:\n        /* \"#utility.yul\":22675:22681   */\n      dup2\n        /* \"#utility.yul\":22671:22711   */\n      add\n        /* \"#utility.yul\":22813:22819   */\n      dup2\n        /* \"#utility.yul\":22801:22811   */\n      dup2\n        /* \"#utility.yul\":22798:22820   */\n      lt\n        /* \"#utility.yul\":22777:22795   */\n      0xffffffffffffffff\n        /* \"#utility.yul\":22765:22775   */\n      dup3\n        /* \"#utility.yul\":22762:22796   */\n      gt\n        /* \"#utility.yul\":22759:22821   */\n      or\n        /* \"#utility.yul\":22756:22844   */\n      iszero\n      tag_515\n      jumpi\n        /* \"#utility.yul\":22824:22842   */\n      tag_516\n      tag_181\n      jump\t// in\n    tag_516:\n        /* \"#utility.yul\":22756:22844   */\n    tag_515:\n        /* \"#utility.yul\":22864:22874   */\n      dup1\n        /* \"#utility.yul\":22860:22862   */\n      0x40\n        /* \"#utility.yul\":22853:22875   */\n      mstore\n        /* \"#utility.yul\":22643:22881   */\n      pop\n        /* \"#utility.yul\":22600:22881   */\n      pop\n      pop\n      jump\t// out\n        /* \"#utility.yul\":22887:23120   */\n    tag_121:\n        /* \"#utility.yul\":22926:22929   */\n      0x00\n        /* \"#utility.yul\":22949:22973   */\n      tag_518\n        /* \"#utility.yul\":22967:22972   */\n      dup3\n        /* \"#utility.yul\":22949:22973   */\n      tag_399\n      jump\t// in\n    tag_518:\n        /* \"#utility.yul\":22940:22973   */\n      swap2\n      pop\n        /* \"#utility.yul\":22995:23061   */\n      0xffffffffffffffffffffffffffffffffffffffffffffffffffffffffffffffff\n        /* \"#utility.yul\":22988:22993   */\n      dup3\n        /* \"#utility.yul\":22985:23062   */\n      eq\n        /* \"#utility.yul\":22982:23085   */\n      iszero\n      tag_519\n      jumpi\n        /* \"#utility.yul\":23065:23083   */\n      tag_520\n      tag_484\n      jump\t// in\n    tag_520:\n        /* \"#utility.yul\":22982:23085   */\n    tag_519:\n        /* \"#utility.yul\":23112:23113   */\n      0x01\n        /* \"#utility.yul\":23105:23110   */\n      dup3\n        /* \"#utility.yul\":23101:23114   */\n      add\n        /* \"#utility.yul\":23094:23114   */\n      swap1\n      pop\n        /* \"#utility.yul\":22887:23120   */\n      swap2\n      swap1\n      pop\n      jump\t// out\n        /* \"#utility.yul\":23126:23226   */\n    tag_312:\n        /* \"#utility.yul\":23165:23172   */\n      0x00\n        /* \"#utility.yul\":23194:23220   */\n      tag_522\n        /* \"#utility.yul\":23214:23219   */\n      dup3\n        /* \"#utility.yul\":23194:23220   */\n      tag_523\n      jump\t// in\n    tag_522:\n        /* \"#utility.yul\":23183:23220   */\n      swap1\n      pop\n        /* \"#utility.yul\":23126:23226   */\n      swap2\n      swap1\n      pop\n      jump\t// out\n        /* \"#utility.yul\":23232:23326   */\n    tag_523:\n        /* \"#utility.yul\":23271:23278   */\n      0x00\n        /* \"#utility.yul\":23300:23320   */\n      tag_525\n        /* \"#utility.yul\":23314:23319   */\n      dup3\n        /* \"#utility.yul\":23300:23320   */\n      tag_526\n      jump\t// in\n    tag_525:\n        /* \"#utility.yul\":23289:23320   */\n      swap1\n      pop\n        /* \"#utility.yul\":23232:23326   */\n      swap2\n      swap1\n      pop\n      jump\t// out\n        /* \"#utility.yul\":23332:23411   */\n    tag_407:\n        /* \"#utility.yul\":23371:23378   */\n      0x00\n        /* \"#utility.yul\":23400:23405   */\n      dup2\n        /* \"#utility.yul\":23389:23405   */\n      swap1\n      pop\n        /* \"#utility.yul\":23332:23411   */\n      swap2\n      swap1\n      pop\n      jump\t// out\n        /* \"#utility.yul\":23417:23593   */\n    tag_210:\n        /* \"#utility.yul\":23449:23450   */\n      0x00\n        /* \"#utility.yul\":23466:23486   */\n      tag_529\n        /* \"#utility.yul\":23484:23485   */\n      dup3\n        /* \"#utility.yul\":23466:23486   */\n      tag_399\n      jump\t// in\n    tag_529:\n        /* \"#utility.yul\":23461:23486   */\n      swap2\n      pop\n        /* \"#utility.yul\":23500:23520   */\n      tag_530\n        /* \"#utility.yul\":23518:23519   */\n      dup4\n        /* \"#utility.yul\":23500:23520   */\n      tag_399\n      jump\t// in\n    tag_530:\n        /* \"#utility.yul\":23495:23520   */\n      swap3\n      pop\n        /* \"#utility.yul\":23539:23540   */\n      dup3\n        /* \"#utility.yul\":23529:23564   */\n      tag_531\n      jumpi\n        /* \"#utility.yul\":23544:23562   */\n      tag_532\n      tag_533\n      jump\t// in\n    tag_532:\n        /* \"#utility.yul\":23529:23564   */\n    tag_531:\n        /* \"#utility.yul\":23585:23586   */\n      dup3\n        /* \"#utility.yul\":23582:23583   */\n      dup3\n        /* \"#utility.yul\":23578:23587   */\n      mod\n        /* \"#utility.yul\":23573:23587   */\n      swap1\n      pop\n        /* \"#utility.yul\":23417:23593   */\n      swap3\n      swap2\n      pop\n      pop\n      jump\t// out\n        /* \"#utility.yul\":23599:23779   */\n    tag_484:\n        /* \"#utility.yul\":23647:23724   */\n      0x4e487b7100000000000000000000000000000000000000000000000000000000\n        /* \"#utility.yul\":23644:23645   */\n      0x00\n        /* \"#utility.yul\":23637:23725   */\n      mstore\n        /* \"#utility.yul\":23744:23748   */\n      0x11\n        /* \"#utility.yul\":23741:23742   */\n      0x04\n        /* \"#utility.yul\":23734:23749   */\n      mstore\n        /* \"#utility.yul\":23768:23772   */\n      0x24\n        /* \"#utility.yul\":23765:23766   */\n      0x00\n        /* \"#utility.yul\":23758:23773   */\n      revert\n        /* \"#utility.yul\":23785:23965   */\n    tag_533:\n        /* \"#utility.yul\":23833:23910   */\n      0x4e487b7100000000000000000000000000000000000000000000000000000000\n        /* \"#utility.yul\":23830:23831   */\n      0x00\n        /* \"#utility.yul\":23823:23911   */\n      mstore\n        /* \"#utility.yul\":23930:23934   */\n      0x12\n        /* \"#utility.yul\":23927:23928   */\n      0x04\n        /* \"#utility.yul\":23920:23935   */\n      mstore\n        /* \"#utility.yul\":23954:23958   */\n      0x24\n        /* \"#utility.yul\":23951:23952   */\n      0x00\n        /* \"#utility.yul\":23944:23959   */\n      revert\n        /* \"#utility.yul\":23971:24151   */\n    tag_512:\n        /* \"#utility.yul\":24019:24096   */\n      0x4e487b7100000000000000000000000000000000000000000000000000000000\n        /* \"#utility.yul\":24016:24017   */\n      0x00\n        /* \"#utility.yul\":24009:24097   */\n      mstore\n        /* \"#utility.yul\":24116:24120   */\n      0x22\n        /* \"#utility.yul\":24113:24114   */\n      0x04\n        /* \"#utility.yul\":24106:24121   */\n      mstore\n        /* \"#utility.yul\":24140:24144   */\n      0x24\n        /* \"#utility.yul\":24137:24138   */\n      0x00\n        /* \"#utility.yul\":24130:24145   */\n      revert\n        /* \"#utility.yul\":24157:24337   */\n    tag_174:\n        /* \"#utility.yul\":24205:24282   */\n      0x4e487b7100000000000000000000000000000000000000000000000000000000\n        /* \"#utility.yul\":24202:24203   */\n      0x00\n        /* \"#utility.yul\":24195:24283   */\n      mstore\n        /* \"#utility.yul\":24302:24306   */\n      0x32\n        /* \"#utility.yul\":24299:24300   */\n      0x04\n        /* \"#utility.yul\":24292:24307   */\n      mstore\n        /* \"#utility.yul\":24326:24330   */\n      0x24\n        /* \"#utility.yul\":24323:24324   */\n      0x00\n        /* \"#utility.yul\":24316:24331   */\n      revert\n        /* \"#utility.yul\":24343:24523   */\n    tag_181:\n        /* \"#utility.yul\":24391:24468   */\n      0x4e487b7100000000000000000000000000000000000000000000000000000000\n        /* \"#utility.yul\":24388:24389   */\n      0x00\n        /* \"#utility.yul\":24381:24469   */\n      mstore\n        /* \"#utility.yul\":24488:24492   */\n      0x41\n        /* \"#utility.yul\":24485:24486   */\n      0x04\n        /* \"#utility.yul\":24478:24493   */\n      mstore\n        /* \"#utility.yul\":24512:24516   */\n      0x24\n        /* \"#utility.yul\":24509:24510   */\n      0x00\n        /* \"#utility.yul\":24502:24517   */\n      revert\n        /* \"#utility.yul\":24529:24646   */\n    tag_258:\n        /* \"#utility.yul\":24638:24639   */\n      0x00\n        /* \"#utility.yul\":24635:24636   */\n      dup1\n        /* \"#utility.yul\":24628:24640   */\n      revert\n        /* \"#utility.yul\":24652:24769   */\n    tag_247:\n        /* \"#utility.yul\":24761:24762   */\n      0x00\n        /* \"#utility.yul\":24758:24759   */\n      dup1\n        /* \"#utility.yul\":24751:24763   */\n      revert\n        /* \"#utility.yul\":24775:24892   */\n    tag_298:\n        /* \"#utility.yul\":24884:24885   */\n      0x00\n        /* \"#utility.yul\":24881:24882   */\n      dup1\n        /* \"#utility.yul\":24874:24886   */\n      revert\n        /* \"#utility.yul\":24898:25015   */\n    tag_267:\n        /* \"#utility.yul\":25007:25008   */\n      0x00\n        /* \"#utility.yul\":25004:25005   */\n      dup1\n        /* \"#utility.yul\":24997:25009   */\n      revert\n        /* \"#utility.yul\":25021:25123   */\n    tag_340:\n        /* \"#utility.yul\":25062:25068   */\n      0x00\n        /* \"#utility.yul\":25113:25115   */\n      0x1f\n        /* \"#utility.yul\":25109:25116   */\n      not\n        /* \"#utility.yul\":25104:25106   */\n      0x1f\n        /* \"#utility.yul\":25097:25102   */\n      dup4\n        /* \"#utility.yul\":25093:25107   */\n      add\n        /* \"#utility.yul\":25089:25117   */\n      and\n        /* \"#utility.yul\":25079:25117   */\n      swap1\n      pop\n        /* \"#utility.yul\":25021:25123   */\n      swap2\n      swap1\n      pop\n      jump\t// out\n        /* \"#utility.yul\":25129:25223   */\n    tag_526:\n        /* \"#utility.yul\":25162:25170   */\n      0x00\n        /* \"#utility.yul\":25210:25215   */\n      dup2\n        /* \"#utility.yul\":25206:25208   */\n      0x60\n        /* \"#utility.yul\":25202:25216   */\n      shl\n        /* \"#utility.yul\":25181:25216   */\n      swap1\n      pop\n        /* \"#utility.yul\":25129:25223   */\n      swap2\n      swap1\n      pop\n      jump\t// out\n        /* \"#utility.yul\":25229:25451   */\n    tag_351:\n        /* \"#utility.yul\":25369:25403   */\n      0x45524332303a207472616e7366657220746f20746865207a65726f2061646472\n        /* \"#utility.yul\":25365:25366   */\n      0x00\n        /* \"#utility.yul\":25357:25363   */\n      dup3\n        /* \"#utility.yul\":25353:25367   */\n      add\n        /* \"#utility.yul\":25346:25404   */\n      mstore\n        /* \"#utility.yul\":25438:25443   */\n      0x6573730000000000000000000000000000000000000000000000000000000000\n        /* \"#utility.yul\":25433:25435   */\n      0x20\n        /* \"#utility.yul\":25425:25431   */\n      dup3\n        /* \"#utility.yul\":25421:25436   */\n      add\n        /* \"#utility.yul\":25414:25444   */\n      mstore\n        /* \"#utility.yul\":25229:25451   */\n      pop\n      jump\t// out\n        /* \"#utility.yul\":25457:25678   */\n    tag_356:\n        /* \"#utility.yul\":25597:25631   */\n      0x45524332303a20617070726f766520746f20746865207a65726f206164647265\n        /* \"#utility.yul\":25593:25594   */\n      0x00\n        /* \"#utility.yul\":25585:25591   */\n      dup3\n        /* \"#utility.yul\":25581:25595   */\n      add\n        /* \"#utility.yul\":25574:25632   */\n      mstore\n        /* \"#utility.yul\":25666:25670   */\n      0x7373000000000000000000000000000000000000000000000000000000000000\n        /* \"#utility.yul\":25661:25663   */\n      0x20\n        /* \"#utility.yul\":25653:25659   */\n      dup3\n        /* \"#utility.yul\":25649:25664   */\n      add\n        /* \"#utility.yul\":25642:25671   */\n      mstore\n        /* \"#utility.yul\":25457:25678   */\n      pop\n      jump\t// out\n        /* \"#utility.yul\":25684:25854   */\n    tag_361:\n        /* \"#utility.yul\":25824:25846   */\n      0x76616c75652063616e6e6f74206265206e756c6c000000000000000000000000\n        /* \"#utility.yul\":25820:25821   */\n      0x00\n        /* \"#utility.yul\":25812:25818   */\n      dup3\n        /* \"#utility.yul\":25808:25822   */\n      add\n        /* \"#utility.yul\":25801:25847   */\n      mstore\n        /* \"#utility.yul\":25684:25854   */\n      pop\n      jump\t// out\n        /* \"#utility.yul\":25860:26085   */\n    tag_366:\n        /* \"#utility.yul\":26000:26034   */\n      0x45524332303a207472616e7366657220616d6f756e7420657863656564732062\n        /* \"#utility.yul\":25996:25997   */\n      0x00\n        /* \"#utility.yul\":25988:25994   */\n      dup3\n        /* \"#utility.yul\":25984:25998   */\n      add\n        /* \"#utility.yul\":25977:26035   */\n      mstore\n        /* \"#utility.yul\":26069:26077   */\n      0x616c616e63650000000000000000000000000000000000000000000000000000\n        /* \"#utility.yul\":26064:26066   */\n      0x20\n        /* \"#utility.yul\":26056:26062   */\n      dup3\n        /* \"#utility.yul\":26052:26067   */\n      add\n        /* \"#utility.yul\":26045:26078   */\n      mstore\n        /* \"#utility.yul\":25860:26085   */\n      pop\n      jump\t// out\n        /* \"#utility.yul\":26091:26318   */\n    tag_371:\n        /* \"#utility.yul\":26231:26265   */\n      0x45524332303a207472616e7366657220616d6f756e7420657863656564732061\n        /* \"#utility.yul\":26227:26228   */\n      0x00\n        /* \"#utility.yul\":26219:26225   */\n      dup3\n        /* \"#utility.yul\":26215:26229   */\n      add\n        /* \"#utility.yul\":26208:26266   */\n      mstore\n        /* \"#utility.yul\":26300:26310   */\n      0x6c6c6f77616e6365000000000000000000000000000000000000000000000000\n        /* \"#utility.yul\":26295:26297   */\n      0x20\n        /* \"#utility.yul\":26287:26293   */\n      dup3\n        /* \"#utility.yul\":26283:26298   */\n      add\n        /* \"#utility.yul\":26276:26311   */\n      mstore\n        /* \"#utility.yul\":26091:26318   */\n      pop\n      jump\t// out\n        /* \"#utility.yul\":26324:26501   */\n    tag_376:\n        /* \"#utility.yul\":26464:26493   */\n      0x7468697320686f757365496420616c7265616479206578697374730000000000\n        /* \"#utility.yul\":26460:26461   */\n      0x00\n        /* \"#utility.yul\":26452:26458   */\n      dup3\n        /* \"#utility.yul\":26448:26462   */\n      add\n        /* \"#utility.yul\":26441:26494   */\n      mstore\n        /* \"#utility.yul\":26324:26501   */\n      pop\n      jump\t// out\n        /* \"#utility.yul\":26507:26731   */\n    tag_381:\n        /* \"#utility.yul\":26647:26681   */\n      0x45524332303a207472616e736665722066726f6d20746865207a65726f206164\n        /* \"#utility.yul\":26643:26644   */\n      0x00\n        /* \"#utility.yul\":26635:26641   */\n      dup3\n        /* \"#utility.yul\":26631:26645   */\n      add\n        /* \"#utility.yul\":26624:26682   */\n      mstore\n        /* \"#utility.yul\":26716:26723   */\n      0x6472657373000000000000000000000000000000000000000000000000000000\n        /* \"#utility.yul\":26711:26713   */\n      0x20\n        /* \"#utility.yul\":26703:26709   */\n      dup3\n        /* \"#utility.yul\":26699:26714   */\n      add\n        /* \"#utility.yul\":26692:26724   */\n      mstore\n        /* \"#utility.yul\":26507:26731   */\n      pop\n      jump\t// out\n        /* \"#utility.yul\":26737:26960   */\n    tag_386:\n        /* \"#utility.yul\":26877:26911   */\n      0x45524332303a20617070726f76652066726f6d20746865207a65726f20616464\n        /* \"#utility.yul\":26873:26874   */\n      0x00\n        /* \"#utility.yul\":26865:26871   */\n      dup3\n        /* \"#utility.yul\":26861:26875   */\n      add\n        /* \"#utility.yul\":26854:26912   */\n      mstore\n        /* \"#utility.yul\":26946:26952   */\n      0x7265737300000000000000000000000000000000000000000000000000000000\n        /* \"#utility.yul\":26941:26943   */\n      0x20\n        /* \"#utility.yul\":26933:26939   */\n      dup3\n        /* \"#utility.yul\":26929:26944   */\n      add\n        /* \"#utility.yul\":26922:26953   */\n      mstore\n        /* \"#utility.yul\":26737:26960   */\n      pop\n      jump\t// out\n        /* \"#utility.yul\":26966:27196   */\n    tag_391:\n        /* \"#utility.yul\":27106:27140   */\n      0x596f7520646f206e6f7420686176652061636365737320746f2064656c657465\n        /* \"#utility.yul\":27102:27103   */\n      0x00\n        /* \"#utility.yul\":27094:27100   */\n      dup3\n        /* \"#utility.yul\":27090:27104   */\n      add\n        /* \"#utility.yul\":27083:27141   */\n      mstore\n        /* \"#utility.yul\":27175:27188   */\n      0x207468697320686f757365000000000000000000000000000000000000000000\n        /* \"#utility.yul\":27170:27172   */\n      0x20\n        /* \"#utility.yul\":27162:27168   */\n      dup3\n        /* \"#utility.yul\":27158:27173   */\n      add\n        /* \"#utility.yul\":27151:27189   */\n      mstore\n        /* \"#utility.yul\":26966:27196   */\n      pop\n      jump\t// out\n        /* \"#utility.yul\":27202:27426   */\n    tag_396:\n        /* \"#utility.yul\":27342:27376   */\n      0x45524332303a2064656372656173656420616c6c6f77616e63652062656c6f77\n        /* \"#utility.yul\":27338:27339   */\n      0x00\n        /* \"#utility.yul\":27330:27336   */\n      dup3\n        /* \"#utility.yul\":27326:27340   */\n      add\n        /* \"#utility.yul\":27319:27377   */\n      mstore\n        /* \"#utility.yul\":27411:27418   */\n      0x207a65726f000000000000000000000000000000000000000000000000000000\n        /* \"#utility.yul\":27406:27408   */\n      0x20\n        /* \"#utility.yul\":27398:27404   */\n      dup3\n        /* \"#utility.yul\":27394:27409   */\n      add\n        /* \"#utility.yul\":27387:27419   */\n      mstore\n        /* \"#utility.yul\":27202:27426   */\n      pop\n      jump\t// out\n        /* \"#utility.yul\":27432:27554   */\n    tag_253:\n        /* \"#utility.yul\":27505:27529   */\n      tag_556\n        /* \"#utility.yul\":27523:27528   */\n      dup2\n        /* \"#utility.yul\":27505:27529   */\n      tag_307\n      jump\t// in\n    tag_556:\n        /* \"#utility.yul\":27498:27503   */\n      dup2\n        /* \"#utility.yul\":27495:27530   */\n      eq\n        /* \"#utility.yul\":27485:27548   */\n      tag_557\n      jumpi\n        /* \"#utility.yul\":27544:27545   */\n      0x00\n        /* \"#utility.yul\":27541:27542   */\n      dup1\n        /* \"#utility.yul\":27534:27546   */\n      revert\n        /* \"#utility.yul\":27485:27548   */\n    tag_557:\n        /* \"#utility.yul\":27432:27554   */\n      pop\n      jump\t// out\n        /* \"#utility.yul\":27560:27682   */\n    tag_263:\n        /* \"#utility.yul\":27633:27657   */\n      tag_559\n        /* \"#utility.yul\":27651:27656   */\n      dup2\n        /* \"#utility.yul\":27633:27657   */\n      tag_399\n      jump\t// in\n    tag_559:\n        /* \"#utility.yul\":27626:27631   */\n      dup2\n        /* \"#utility.yul\":27623:27658   */\n      eq\n        /* \"#utility.yul\":27613:27676   */\n      tag_560\n      jumpi\n        /* \"#utility.yul\":27672:27673   */\n      0x00\n        /* \"#utility.yul\":27669:27670   */\n      dup1\n        /* \"#utility.yul\":27662:27674   */\n      revert\n        /* \"#utility.yul\":27613:27676   */\n    tag_560:\n        /* \"#utility.yul\":27560:27682   */\n      pop\n      jump\t// out\n\n    auxdata: 0xa26469706673582212209c47f25bc044b34f672c3b565d1148edd40f0137bec4b16c2e403f4a61f6cb7464736f6c63430008070033\n}\n",
				"bytecode": {
					"linkReferences": {},
					"object": "608060405260058055600554600a620000199190620005a5565b6006556201518060075560016008553480156200003557600080fd5b5060405162002ccd38038062002ccd83398181016040528101906200005b919062000381565b818181600390805190602001906200007592919062000253565b5080600490805190602001906200008e92919062000253565b50505060006103e89050620000d733620000ad620000e060201b60201c565b60ff16600a620000be9190620005a5565b83620000cb9190620006e2565b620000e960201b60201c565b505050620008d7565b60006012905090565b600073ffffffffffffffffffffffffffffffffffffffff168273ffffffffffffffffffffffffffffffffffffffff1614156200015c576040517f08c379a000000000000000000000000000000000000000000000000000000000815260040162000153906200043e565b60405180910390fd5b62000170600083836200024e60201b60201c565b8060026000828254620001849190620004ed565b92505081905550806000808473ffffffffffffffffffffffffffffffffffffffff1673ffffffffffffffffffffffffffffffffffffffff1681526020019081526020016000206000828254620001db9190620004ed565b925050819055508173ffffffffffffffffffffffffffffffffffffffff16600073ffffffffffffffffffffffffffffffffffffffff167fddf252ad1be2c89b69c2b068fc378daa952ba7f163c4a11628f55a4df523b3ef8360405162000242919062000460565b60405180910390a35050565b505050565b828054620002619062000783565b90600052602060002090601f016020900481019282620002855760008555620002d1565b82601f10620002a057805160ff1916838001178555620002d1565b82800160010185558215620002d1579182015b82811115620002d0578251825591602001919060010190620002b3565b5b509050620002e09190620002e4565b5090565b5b80821115620002ff576000816000905550600101620002e5565b5090565b60006200031a6200031484620004a6565b6200047d565b90508281526020810184848401111562000339576200033862000881565b5b620003468482856200074d565b509392505050565b600082601f8301126200036657620003656200087c565b5b81516200037884826020860162000303565b91505092915050565b600080604083850312156200039b576200039a6200088b565b5b600083015167ffffffffffffffff811115620003bc57620003bb62000886565b5b620003ca858286016200034e565b925050602083015167ffffffffffffffff811115620003ee57620003ed62000886565b5b620003fc858286016200034e565b9150509250929050565b600062000415601f83620004dc565b91506200042282620008ae565b602082019050919050565b620004388162000743565b82525050565b60006020820190508181036000830152620004598162000406565b9050919050565b60006020820190506200047760008301846200042d565b92915050565b6000620004896200049c565b9050620004978282620007b9565b919050565b6000604051905090565b600067ffffffffffffffff821115620004c457620004c36200084d565b5b620004cf8262000890565b9050602081019050919050565b600082825260208201905092915050565b6000620004fa8262000743565b9150620005078362000743565b9250827fffffffffffffffffffffffffffffffffffffffffffffffffffffffffffffffff038211156200053f576200053e620007ef565b5b828201905092915050565b6000808291508390505b60018511156200059c57808604811115620005745762000573620007ef565b5b6001851615620005845780820291505b80810290506200059485620008a1565b945062000554565b94509492505050565b6000620005b28262000743565b9150620005bf8362000743565b9250620005ee7fffffffffffffffffffffffffffffffffffffffffffffffffffffffffffffffff8484620005f6565b905092915050565b600082620006085760019050620006db565b81620006185760009050620006db565b81600181146200063157600281146200063c5762000672565b6001915050620006db565b60ff841115620006515762000650620007ef565b5b8360020a9150848211156200066b576200066a620007ef565b5b50620006db565b5060208310610133831016604e8410600b8410161715620006ac5782820a905083811115620006a657620006a5620007ef565b5b620006db565b620006bb84848460016200054a565b92509050818404811115620006d557620006d4620007ef565b5b81810290505b9392505050565b6000620006ef8262000743565b9150620006fc8362000743565b9250817fffffffffffffffffffffffffffffffffffffffffffffffffffffffffffffffff0483118215151615620007385762000737620007ef565b5b828202905092915050565b6000819050919050565b60005b838110156200076d57808201518184015260208101905062000750565b838111156200077d576000848401525b50505050565b600060028204905060018216806200079c57607f821691505b60208210811415620007b357620007b26200081e565b5b50919050565b620007c48262000890565b810181811067ffffffffffffffff82111715620007e657620007e56200084d565b5b80604052505050565b7f4e487b7100000000000000000000000000000000000000000000000000000000600052601160045260246000fd5b7f4e487b7100000000000000000000000000000000000000000000000000000000600052602260045260246000fd5b7f4e487b7100000000000000000000000000000000000000000000000000000000600052604160045260246000fd5b600080fd5b600080fd5b600080fd5b600080fd5b6000601f19601f8301169050919050565b60008160011c9050919050565b7f45524332303a206d696e7420746f20746865207a65726f206164647265737300600082015250565b6123e680620008e76000396000f3fe608060405234801561001057600080fd5b50600436106100f55760003560e01c80633c3b0b4a11610097578063a9059cbb11610066578063a9059cbb146102c2578063aeda852f146102f2578063c45e1b251461032a578063dd62ed3e1461035a576100f5565b80633c3b0b4a1461021457806370a082311461024457806395d89b4114610274578063a457c2d714610292576100f5565b806319161161116100d3578063191611611461016657806323b872dd14610196578063313ce567146101c657806339509351146101e4576100f5565b806306fdde03146100fa578063095ea7b31461011857806318160ddd14610148575b600080fd5b61010261038a565b60405161010f91906119d9565b60405180910390f35b610132600480360381019061012d91906115a8565b61041c565b60405161013f91906119be565b60405180910390f35b61015061043a565b60405161015d9190611b3b565b60405180910390f35b610180600480360381019061017b9190611615565b610444565b60405161018d9190611b3b565b60405180910390f35b6101b060048036038101906101ab9190611555565b610723565b6040516101bd91906119be565b60405180910390f35b6101ce610824565b6040516101db9190611c44565b60405180910390f35b6101fe60048036038101906101f991906115a8565b61082d565b60405161020b91906119be565b60405180910390f35b61022e600480360381019061022991906115e8565b6108d9565b60405161023b91906119d9565b60405180910390f35b61025e600480360381019061025991906114e8565b6109eb565b60405161026b9190611b3b565b60405180910390f35b61027c610a33565b60405161028991906119d9565b60405180910390f35b6102ac60048036038101906102a791906115a8565b610ac5565b6040516102b991906119be565b60405180910390f35b6102dc60048036038101906102d791906115a8565b610bb9565b6040516102e991906119be565b60405180910390f35b61030c600480360381019061030791906115e8565b610bd7565b60405161032199989796959493929190611bb0565b60405180910390f35b610344600480360381019061033f91906115e8565b610cfa565b604051610351919061199c565b60405180910390f35b610374600480360381019061036f9190611515565b610e78565b6040516103819190611b3b565b60405180910390f35b60606003805461039990611e90565b80601f01602080910402602001604051908101604052809291908181526020018280546103c590611e90565b80156104125780601f106103e757610100808354040283529160200191610412565b820191906000526020600020905b8154815290600101906020018083116103f557829003601f168201915b5050505050905090565b6000610430610429610eff565b8484610f07565b6001905092915050565b6000600254905090565b60008084876104539190611d6b565b11610493576040517f08c379a000000000000000000000000000000000000000000000000000000000815260040161048a90611a3b565b60405180910390fd5b60006104a08486856110d2565b9050600b6000828152602001908152602001600020600001548114156104fb576040517f08c379a00000000000000000000000000000000000000000000000000000000081526004016104f290611a9b565b60405180910390fd5b60405180610120016040528082815260200160085481526020018881526020018781526020018681526020018573ffffffffffffffffffffffffffffffffffffffff1681526020018573ffffffffffffffffffffffffffffffffffffffff16815260200184815260200160001515815250600b6000838152602001908152602001600020600082015181600001556020820151816001015560408201518160020155606082015181600301556080820151816004015560a08201518160050160006101000a81548173ffffffffffffffffffffffffffffffffffffffff021916908373ffffffffffffffffffffffffffffffffffffffff16021790555060c08201518160060160006101000a81548173ffffffffffffffffffffffffffffffffffffffff021916908373ffffffffffffffffffffffffffffffffffffffff16021790555060e082015181600701908051906020019061065b9291906113ab565b506101008201518160080160006101000a81548160ff021916908315150217905550905050610696600754426106919190611d15565b61111d565b600a819080600181540180825580915050600190039060005260206000200160009091909190915055600860008154809291906106d290611ef3565b91905055507f3070c472a527c6fdf9d1d29d3f8de3f74a2de6ef97db5cc15b587188b278951f818589898760405161070e959493929190611b56565b60405180910390a18091505095945050505050565b6000610730848484611127565b6000600160008673ffffffffffffffffffffffffffffffffffffffff1673ffffffffffffffffffffffffffffffffffffffff168152602001908152602001600020600061077b610eff565b73ffffffffffffffffffffffffffffffffffffffff1673ffffffffffffffffffffffffffffffffffffffff168152602001908152602001600020549050828110156107fb576040517f08c379a00000000000000000000000000000000000000000000000000000000081526004016107f290611a7b565b60405180910390fd5b61081885610807610eff565b85846108139190611dc5565b610f07565b60019150509392505050565b60006012905090565b60006108cf61083a610eff565b848460016000610848610eff565b73ffffffffffffffffffffffffffffffffffffffff1673ffffffffffffffffffffffffffffffffffffffff16815260200190815260200160002060008873ffffffffffffffffffffffffffffffffffffffff1673ffffffffffffffffffffffffffffffffffffffff168152602001908152602001600020546108ca9190611d15565b610f07565b6001905092915050565b60603373ffffffffffffffffffffffffffffffffffffffff16600b600084815260200190815260200160002060050160009054906101000a900473ffffffffffffffffffffffffffffffffffffffff1673ffffffffffffffffffffffffffffffffffffffff161461097f576040517f08c379a000000000000000000000000000000000000000000000000000000000815260040161097690611afb565b60405180910390fd5b6001600b600084815260200190815260200160002060080160006101000a81548160ff0219169083151502179055506040518060400160405280601581526020017f64656c69737420776173207375636365737366756c00000000000000000000008152509050919050565b60008060008373ffffffffffffffffffffffffffffffffffffffff1673ffffffffffffffffffffffffffffffffffffffff168152602001908152602001600020549050919050565b606060048054610a4290611e90565b80601f0160208091040260200160405190810160405280929190818152602001828054610a6e90611e90565b8015610abb5780601f10610a9057610100808354040283529160200191610abb565b820191906000526020600020905b815481529060010190602001808311610a9e57829003601f168201915b5050505050905090565b60008060016000610ad4610eff565b73ffffffffffffffffffffffffffffffffffffffff1673ffffffffffffffffffffffffffffffffffffffff16815260200190815260200160002060008573ffffffffffffffffffffffffffffffffffffffff1673ffffffffffffffffffffffffffffffffffffffff16815260200190815260200160002054905082811015610b91576040517f08c379a0000000000000000000000000000000000000000000000000000000008152600401610b8890611b1b565b60405180910390fd5b610bae610b9c610eff565b858584610ba99190611dc5565b610f07565b600191505092915050565b6000610bcd610bc6610eff565b8484611127565b6001905092915050565b600b6020528060005260406000206000915090508060000154908060010154908060020154908060030154908060040154908060050160009054906101000a900473ffffffffffffffffffffffffffffffffffffffff16908060060160009054906101000a900473ffffffffffffffffffffffffffffffffffffffff1690806007018054610c6490611e90565b80601f0160208091040260200160405190810160405280929190818152602001828054610c9090611e90565b8015610cdd5780601f10610cb257610100808354040283529160200191610cdd565b820191906000526020600020905b815481529060010190602001808311610cc057829003601f168201915b5050505050908060080160009054906101000a900460ff16905089565b60606000805b600a80549050811015610d6b5783600b6000600a8481548110610d2657610d25612028565b5b90600052602060002001548152602001908152602001600020600201541015610d58578180610d5490611ef3565b9250505b8080610d6390611ef3565b915050610d00565b5060008167ffffffffffffffff811115610d8857610d87612057565b5b604051908082528060200260200182016040528015610db65781602001602082028036833780820191505090505b50905060005b600a80549050811015610e6d5784600b6000600a8481548110610de257610de1612028565b5b90600052602060002001548152602001908152602001600020600201541015610e5a57600b6000600a8381548110610e1d57610e1c612028565b5b9060005260206000200154815260200190815260200160002060000154828281518110610e4d57610e4c612028565b5b6020026020010181815250505b8080610e6590611ef3565b915050610dbc565b508092505050919050565b6000600160008473ffffffffffffffffffffffffffffffffffffffff1673ffffffffffffffffffffffffffffffffffffffff16815260200190815260200160002060008373ffffffffffffffffffffffffffffffffffffffff1673ffffffffffffffffffffffffffffffffffffffff16815260200190815260200160002054905092915050565b600033905090565b600073ffffffffffffffffffffffffffffffffffffffff168373ffffffffffffffffffffffffffffffffffffffff161415610f77576040517f08c379a0000000000000000000000000000000000000000000000000000000008152600401610f6e90611adb565b60405180910390fd5b600073ffffffffffffffffffffffffffffffffffffffff168273ffffffffffffffffffffffffffffffffffffffff161415610fe7576040517f08c379a0000000000000000000000000000000000000000000000000000000008152600401610fde90611a1b565b60405180910390fd5b80600160008573ffffffffffffffffffffffffffffffffffffffff1673ffffffffffffffffffffffffffffffffffffffff16815260200190815260200160002060008473ffffffffffffffffffffffffffffffffffffffff1673ffffffffffffffffffffffffffffffffffffffff168152602001908152602001600020819055508173ffffffffffffffffffffffffffffffffffffffff168373ffffffffffffffffffffffffffffffffffffffff167f8c5be1e5ebec7d5bd14f71427d1e84f3dd0314c0f7b2291e5b200ac8c7c3b925836040516110c59190611b3b565b60405180910390a3505050565b6000808484846040516020016110ea93929190611963565b6040516020818303038152906040528051906020012060001c9050600654816111139190611f6a565b9150509392505050565b8060098190555050565b600073ffffffffffffffffffffffffffffffffffffffff168373ffffffffffffffffffffffffffffffffffffffff161415611197576040517f08c379a000000000000000000000000000000000000000000000000000000000815260040161118e90611abb565b60405180910390fd5b600073ffffffffffffffffffffffffffffffffffffffff168273ffffffffffffffffffffffffffffffffffffffff161415611207576040517f08c379a00000000000000000000000000000000000000000000000000000000081526004016111fe906119fb565b60405180910390fd5b6112128383836113a6565b60008060008573ffffffffffffffffffffffffffffffffffffffff1673ffffffffffffffffffffffffffffffffffffffff16815260200190815260200160002054905081811015611298576040517f08c379a000000000000000000000000000000000000000000000000000000000815260040161128f90611a5b565b60405180910390fd5b81816112a49190611dc5565b6000808673ffffffffffffffffffffffffffffffffffffffff1673ffffffffffffffffffffffffffffffffffffffff16815260200190815260200160002081905550816000808573ffffffffffffffffffffffffffffffffffffffff1673ffffffffffffffffffffffffffffffffffffffff16815260200190815260200160002060008282546113349190611d15565b925050819055508273ffffffffffffffffffffffffffffffffffffffff168473ffffffffffffffffffffffffffffffffffffffff167fddf252ad1be2c89b69c2b068fc378daa952ba7f163c4a11628f55a4df523b3ef846040516113989190611b3b565b60405180910390a350505050565b505050565b8280546113b790611e90565b90600052602060002090601f0160209004810192826113d95760008555611420565b82601f106113f257805160ff1916838001178555611420565b82800160010185558215611420579182015b8281111561141f578251825591602001919060010190611404565b5b50905061142d9190611431565b5090565b5b8082111561144a576000816000905550600101611432565b5090565b600061146161145c84611c84565b611c5f565b90508281526020810184848401111561147d5761147c61208b565b5b611488848285611e4e565b509392505050565b60008135905061149f81612382565b92915050565b600082601f8301126114ba576114b9612086565b5b81356114ca84826020860161144e565b91505092915050565b6000813590506114e281612399565b92915050565b6000602082840312156114fe576114fd612095565b5b600061150c84828501611490565b91505092915050565b6000806040838503121561152c5761152b612095565b5b600061153a85828601611490565b925050602061154b85828601611490565b9150509250929050565b60008060006060848603121561156e5761156d612095565b5b600061157c86828701611490565b935050602061158d86828701611490565b925050604061159e868287016114d3565b9150509250925092565b600080604083850312156115bf576115be612095565b5b60006115cd85828601611490565b92505060206115de858286016114d3565b9150509250929050565b6000602082840312156115fe576115fd612095565b5b600061160c848285016114d3565b91505092915050565b600080600080600060a0868803121561163157611630612095565b5b600061163f888289016114d3565b9550506020611650888289016114d3565b9450506040611661888289016114d3565b935050606061167288828901611490565b925050608086013567ffffffffffffffff81111561169357611692612090565b5b61169f888289016114a5565b9150509295509295909350565b60006116b8838361191f565b60208301905092915050565b6116cd81611df9565b82525050565b6116e46116df82611df9565b611f3c565b82525050565b60006116f582611cc5565b6116ff8185611ce8565b935061170a83611cb5565b8060005b8381101561173b57815161172288826116ac565b975061172d83611cdb565b92505060018101905061170e565b5085935050505092915050565b61175181611e0b565b82525050565b600061176282611cd0565b61176c8185611cf9565b935061177c818560208601611e5d565b6117858161209a565b840191505092915050565b600061179b82611cd0565b6117a58185611d0a565b93506117b5818560208601611e5d565b80840191505092915050565b60006117ce602383611cf9565b91506117d9826120b8565b604082019050919050565b60006117f1602283611cf9565b91506117fc82612107565b604082019050919050565b6000611814601483611cf9565b915061181f82612156565b602082019050919050565b6000611837602683611cf9565b91506118428261217f565b604082019050919050565b600061185a602883611cf9565b9150611865826121ce565b604082019050919050565b600061187d601b83611cf9565b91506118888261221d565b602082019050919050565b60006118a0602583611cf9565b91506118ab82612246565b604082019050919050565b60006118c3602483611cf9565b91506118ce82612295565b604082019050919050565b60006118e6602b83611cf9565b91506118f1826122e4565b604082019050919050565b6000611909602583611cf9565b915061191482612333565b604082019050919050565b61192881611e37565b82525050565b61193781611e37565b82525050565b61194e61194982611e37565b611f60565b82525050565b61195d81611e41565b82525050565b600061196f82866116d3565b60148201915061197f828561193d565b60208201915061198f8284611790565b9150819050949350505050565b600060208201905081810360008301526119b681846116ea565b905092915050565b60006020820190506119d36000830184611748565b92915050565b600060208201905081810360008301526119f38184611757565b905092915050565b60006020820190508181036000830152611a14816117c1565b9050919050565b60006020820190508181036000830152611a34816117e4565b9050919050565b60006020820190508181036000830152611a5481611807565b9050919050565b60006020820190508181036000830152611a748161182a565b9050919050565b60006020820190508181036000830152611a948161184d565b9050919050565b60006020820190508181036000830152611ab481611870565b9050919050565b60006020820190508181036000830152611ad481611893565b9050919050565b60006020820190508181036000830152611af4816118b6565b9050919050565b60006020820190508181036000830152611b14816118d9565b9050919050565b60006020820190508181036000830152611b34816118fc565b9050919050565b6000602082019050611b50600083018461192e565b92915050565b600060a082019050611b6b600083018861192e565b611b7860208301876116c4565b611b85604083018661192e565b611b92606083018561192e565b8181036080830152611ba48184611757565b90509695505050505050565b600061012082019050611bc6600083018c61192e565b611bd3602083018b61192e565b611be0604083018a61192e565b611bed606083018961192e565b611bfa608083018861192e565b611c0760a08301876116c4565b611c1460c08301866116c4565b81810360e0830152611c268185611757565b9050611c36610100830184611748565b9a9950505050505050505050565b6000602082019050611c596000830184611954565b92915050565b6000611c69611c7a565b9050611c758282611ec2565b919050565b6000604051905090565b600067ffffffffffffffff821115611c9f57611c9e612057565b5b611ca88261209a565b9050602081019050919050565b6000819050602082019050919050565b600081519050919050565b600081519050919050565b6000602082019050919050565b600082825260208201905092915050565b600082825260208201905092915050565b600081905092915050565b6000611d2082611e37565b9150611d2b83611e37565b9250827fffffffffffffffffffffffffffffffffffffffffffffffffffffffffffffffff03821115611d6057611d5f611f9b565b5b828201905092915050565b6000611d7682611e37565b9150611d8183611e37565b9250817fffffffffffffffffffffffffffffffffffffffffffffffffffffffffffffffff0483118215151615611dba57611db9611f9b565b5b828202905092915050565b6000611dd082611e37565b9150611ddb83611e37565b925082821015611dee57611ded611f9b565b5b828203905092915050565b6000611e0482611e17565b9050919050565b60008115159050919050565b600073ffffffffffffffffffffffffffffffffffffffff82169050919050565b6000819050919050565b600060ff82169050919050565b82818337600083830152505050565b60005b83811015611e7b578082015181840152602081019050611e60565b83811115611e8a576000848401525b50505050565b60006002820490506001821680611ea857607f821691505b60208210811415611ebc57611ebb611ff9565b5b50919050565b611ecb8261209a565b810181811067ffffffffffffffff82111715611eea57611ee9612057565b5b80604052505050565b6000611efe82611e37565b91507fffffffffffffffffffffffffffffffffffffffffffffffffffffffffffffffff821415611f3157611f30611f9b565b5b600182019050919050565b6000611f4782611f4e565b9050919050565b6000611f59826120ab565b9050919050565b6000819050919050565b6000611f7582611e37565b9150611f8083611e37565b925082611f9057611f8f611fca565b5b828206905092915050565b7f4e487b7100000000000000000000000000000000000000000000000000000000600052601160045260246000fd5b7f4e487b7100000000000000000000000000000000000000000000000000000000600052601260045260246000fd5b7f4e487b7100000000000000000000000000000000000000000000000000000000600052602260045260246000fd5b7f4e487b7100000000000000000000000000000000000000000000000000000000600052603260045260246000fd5b7f4e487b7100000000000000000000000000000000000000000000000000000000600052604160045260246000fd5b600080fd5b600080fd5b600080fd5b600080fd5b6000601f19601f8301169050919050565b60008160601b9050919050565b7f45524332303a207472616e7366657220746f20746865207a65726f206164647260008201527f6573730000000000000000000000000000000000000000000000000000000000602082015250565b7f45524332303a20617070726f766520746f20746865207a65726f20616464726560008201527f7373000000000000000000000000000000000000000000000000000000000000602082015250565b7f76616c75652063616e6e6f74206265206e756c6c000000000000000000000000600082015250565b7f45524332303a207472616e7366657220616d6f756e742065786365656473206260008201527f616c616e63650000000000000000000000000000000000000000000000000000602082015250565b7f45524332303a207472616e7366657220616d6f756e742065786365656473206160008201527f6c6c6f77616e6365000000000000000000000000000000000000000000000000602082015250565b7f7468697320686f757365496420616c7265616479206578697374730000000000600082015250565b7f45524332303a207472616e736665722066726f6d20746865207a65726f20616460008201527f6472657373000000000000000000000000000000000000000000000000000000602082015250565b7f45524332303a20617070726f76652066726f6d20746865207a65726f2061646460008201527f7265737300000000000000000000000000000000000000000000000000000000602082015250565b7f596f7520646f206e6f7420686176652061636365737320746f2064656c65746560008201527f207468697320686f757365000000000000000000000000000000000000000000602082015250565b7f45524332303a2064656372656173656420616c6c6f77616e63652062656c6f7760008201527f207a65726f000000000000000000000000000000000000000000000000000000602082015250565b61238b81611df9565b811461239657600080fd5b50565b6123a281611e37565b81146123ad57600080fd5b5056fea26469706673582212209c47f25bc044b34f672c3b565d1148edd40f0137bec4b16c2e403f4a61f6cb7464736f6c63430008070033",
					"opcodes": "PUSH1 0x80 PUSH1 0x40 MSTORE PUSH1 0x5 DUP1 SSTORE PUSH1 0x5 SLOAD PUSH1 0xA PUSH3 0x19 SWAP2 SWAP1 PUSH3 0x5A5 JUMP JUMPDEST PUSH1 0x6 SSTORE PUSH3 0x15180 PUSH1 0x7 SSTORE PUSH1 0x1 PUSH1 0x8 SSTORE CALLVALUE DUP1 ISZERO PUSH3 0x35 JUMPI PUSH1 0x0 DUP1 REVERT JUMPDEST POP PUSH1 0x40 MLOAD PUSH3 0x2CCD CODESIZE SUB DUP1 PUSH3 0x2CCD DUP4 CODECOPY DUP2 DUP2 ADD PUSH1 0x40 MSTORE DUP2 ADD SWAP1 PUSH3 0x5B SWAP2 SWAP1 PUSH3 0x381 JUMP JUMPDEST DUP2 DUP2 DUP2 PUSH1 0x3 SWAP1 DUP1 MLOAD SWAP1 PUSH1 0x20 ADD SWAP1 PUSH3 0x75 SWAP3 SWAP2 SWAP1 PUSH3 0x253 JUMP JUMPDEST POP DUP1 PUSH1 0x4 SWAP1 DUP1 MLOAD SWAP1 PUSH1 0x20 ADD SWAP1 PUSH3 0x8E SWAP3 SWAP2 SWAP1 PUSH3 0x253 JUMP JUMPDEST POP POP POP PUSH1 0x0 PUSH2 0x3E8 SWAP1 POP PUSH3 0xD7 CALLER PUSH3 0xAD PUSH3 0xE0 PUSH1 0x20 SHL PUSH1 0x20 SHR JUMP JUMPDEST PUSH1 0xFF AND PUSH1 0xA PUSH3 0xBE SWAP2 SWAP1 PUSH3 0x5A5 JUMP JUMPDEST DUP4 PUSH3 0xCB SWAP2 SWAP1 PUSH3 0x6E2 JUMP JUMPDEST PUSH3 0xE9 PUSH1 0x20 SHL PUSH1 0x20 SHR JUMP JUMPDEST POP POP POP PUSH3 0x8D7 JUMP JUMPDEST PUSH1 0x0 PUSH1 0x12 SWAP1 POP SWAP1 JUMP JUMPDEST PUSH1 0x0 PUSH20 0xFFFFFFFFFFFFFFFFFFFFFFFFFFFFFFFFFFFFFFFF AND DUP3 PUSH20 0xFFFFFFFFFFFFFFFFFFFFFFFFFFFFFFFFFFFFFFFF AND EQ ISZERO PUSH3 0x15C JUMPI PUSH1 0x40 MLOAD PUSH32 0x8C379A000000000000000000000000000000000000000000000000000000000 DUP2 MSTORE PUSH1 0x4 ADD PUSH3 0x153 SWAP1 PUSH3 0x43E JUMP JUMPDEST PUSH1 0x40 MLOAD DUP1 SWAP2 SUB SWAP1 REVERT JUMPDEST PUSH3 0x170 PUSH1 0x0 DUP4 DUP4 PUSH3 0x24E PUSH1 0x20 SHL PUSH1 0x20 SHR JUMP JUMPDEST DUP1 PUSH1 0x2 PUSH1 0x0 DUP3 DUP3 SLOAD PUSH3 0x184 SWAP2 SWAP1 PUSH3 0x4ED JUMP JUMPDEST SWAP3 POP POP DUP2 SWAP1 SSTORE POP DUP1 PUSH1 0x0 DUP1 DUP5 PUSH20 0xFFFFFFFFFFFFFFFFFFFFFFFFFFFFFFFFFFFFFFFF AND PUSH20 0xFFFFFFFFFFFFFFFFFFFFFFFFFFFFFFFFFFFFFFFF AND DUP2 MSTORE PUSH1 0x20 ADD SWAP1 DUP2 MSTORE PUSH1 0x20 ADD PUSH1 0x0 KECCAK256 PUSH1 0x0 DUP3 DUP3 SLOAD PUSH3 0x1DB SWAP2 SWAP1 PUSH3 0x4ED JUMP JUMPDEST SWAP3 POP POP DUP2 SWAP1 SSTORE POP DUP2 PUSH20 0xFFFFFFFFFFFFFFFFFFFFFFFFFFFFFFFFFFFFFFFF AND PUSH1 0x0 PUSH20 0xFFFFFFFFFFFFFFFFFFFFFFFFFFFFFFFFFFFFFFFF AND PUSH32 0xDDF252AD1BE2C89B69C2B068FC378DAA952BA7F163C4A11628F55A4DF523B3EF DUP4 PUSH1 0x40 MLOAD PUSH3 0x242 SWAP2 SWAP1 PUSH3 0x460 JUMP JUMPDEST PUSH1 0x40 MLOAD DUP1 SWAP2 SUB SWAP1 LOG3 POP POP JUMP JUMPDEST POP POP POP JUMP JUMPDEST DUP3 DUP1 SLOAD PUSH3 0x261 SWAP1 PUSH3 0x783 JUMP JUMPDEST SWAP1 PUSH1 0x0 MSTORE PUSH1 0x20 PUSH1 0x0 KECCAK256 SWAP1 PUSH1 0x1F ADD PUSH1 0x20 SWAP1 DIV DUP2 ADD SWAP3 DUP3 PUSH3 0x285 JUMPI PUSH1 0x0 DUP6 SSTORE PUSH3 0x2D1 JUMP JUMPDEST DUP3 PUSH1 0x1F LT PUSH3 0x2A0 JUMPI DUP1 MLOAD PUSH1 0xFF NOT AND DUP4 DUP1 ADD OR DUP6 SSTORE PUSH3 0x2D1 JUMP JUMPDEST DUP3 DUP1 ADD PUSH1 0x1 ADD DUP6 SSTORE DUP3 ISZERO PUSH3 0x2D1 JUMPI SWAP2 DUP3 ADD JUMPDEST DUP3 DUP2 GT ISZERO PUSH3 0x2D0 JUMPI DUP3 MLOAD DUP3 SSTORE SWAP2 PUSH1 0x20 ADD SWAP2 SWAP1 PUSH1 0x1 ADD SWAP1 PUSH3 0x2B3 JUMP JUMPDEST JUMPDEST POP SWAP1 POP PUSH3 0x2E0 SWAP2 SWAP1 PUSH3 0x2E4 JUMP JUMPDEST POP SWAP1 JUMP JUMPDEST JUMPDEST DUP1 DUP3 GT ISZERO PUSH3 0x2FF JUMPI PUSH1 0x0 DUP2 PUSH1 0x0 SWAP1 SSTORE POP PUSH1 0x1 ADD PUSH3 0x2E5 JUMP JUMPDEST POP SWAP1 JUMP JUMPDEST PUSH1 0x0 PUSH3 0x31A PUSH3 0x314 DUP5 PUSH3 0x4A6 JUMP JUMPDEST PUSH3 0x47D JUMP JUMPDEST SWAP1 POP DUP3 DUP2 MSTORE PUSH1 0x20 DUP2 ADD DUP5 DUP5 DUP5 ADD GT ISZERO PUSH3 0x339 JUMPI PUSH3 0x338 PUSH3 0x881 JUMP JUMPDEST JUMPDEST PUSH3 0x346 DUP5 DUP3 DUP6 PUSH3 0x74D JUMP JUMPDEST POP SWAP4 SWAP3 POP POP POP JUMP JUMPDEST PUSH1 0x0 DUP3 PUSH1 0x1F DUP4 ADD SLT PUSH3 0x366 JUMPI PUSH3 0x365 PUSH3 0x87C JUMP JUMPDEST JUMPDEST DUP2 MLOAD PUSH3 0x378 DUP5 DUP3 PUSH1 0x20 DUP7 ADD PUSH3 0x303 JUMP JUMPDEST SWAP2 POP POP SWAP3 SWAP2 POP POP JUMP JUMPDEST PUSH1 0x0 DUP1 PUSH1 0x40 DUP4 DUP6 SUB SLT ISZERO PUSH3 0x39B JUMPI PUSH3 0x39A PUSH3 0x88B JUMP JUMPDEST JUMPDEST PUSH1 0x0 DUP4 ADD MLOAD PUSH8 0xFFFFFFFFFFFFFFFF DUP2 GT ISZERO PUSH3 0x3BC JUMPI PUSH3 0x3BB PUSH3 0x886 JUMP JUMPDEST JUMPDEST PUSH3 0x3CA DUP6 DUP3 DUP7 ADD PUSH3 0x34E JUMP JUMPDEST SWAP3 POP POP PUSH1 0x20 DUP4 ADD MLOAD PUSH8 0xFFFFFFFFFFFFFFFF DUP2 GT ISZERO PUSH3 0x3EE JUMPI PUSH3 0x3ED PUSH3 0x886 JUMP JUMPDEST JUMPDEST PUSH3 0x3FC DUP6 DUP3 DUP7 ADD PUSH3 0x34E JUMP JUMPDEST SWAP2 POP POP SWAP3 POP SWAP3 SWAP1 POP JUMP JUMPDEST PUSH1 0x0 PUSH3 0x415 PUSH1 0x1F DUP4 PUSH3 0x4DC JUMP JUMPDEST SWAP2 POP PUSH3 0x422 DUP3 PUSH3 0x8AE JUMP JUMPDEST PUSH1 0x20 DUP3 ADD SWAP1 POP SWAP2 SWAP1 POP JUMP JUMPDEST PUSH3 0x438 DUP2 PUSH3 0x743 JUMP JUMPDEST DUP3 MSTORE POP POP JUMP JUMPDEST PUSH1 0x0 PUSH1 0x20 DUP3 ADD SWAP1 POP DUP2 DUP2 SUB PUSH1 0x0 DUP4 ADD MSTORE PUSH3 0x459 DUP2 PUSH3 0x406 JUMP JUMPDEST SWAP1 POP SWAP2 SWAP1 POP JUMP JUMPDEST PUSH1 0x0 PUSH1 0x20 DUP3 ADD SWAP1 POP PUSH3 0x477 PUSH1 0x0 DUP4 ADD DUP5 PUSH3 0x42D JUMP JUMPDEST SWAP3 SWAP2 POP POP JUMP JUMPDEST PUSH1 0x0 PUSH3 0x489 PUSH3 0x49C JUMP JUMPDEST SWAP1 POP PUSH3 0x497 DUP3 DUP3 PUSH3 0x7B9 JUMP JUMPDEST SWAP2 SWAP1 POP JUMP JUMPDEST PUSH1 0x0 PUSH1 0x40 MLOAD SWAP1 POP SWAP1 JUMP JUMPDEST PUSH1 0x0 PUSH8 0xFFFFFFFFFFFFFFFF DUP3 GT ISZERO PUSH3 0x4C4 JUMPI PUSH3 0x4C3 PUSH3 0x84D JUMP JUMPDEST JUMPDEST PUSH3 0x4CF DUP3 PUSH3 0x890 JUMP JUMPDEST SWAP1 POP PUSH1 0x20 DUP2 ADD SWAP1 POP SWAP2 SWAP1 POP JUMP JUMPDEST PUSH1 0x0 DUP3 DUP3 MSTORE PUSH1 0x20 DUP3 ADD SWAP1 POP SWAP3 SWAP2 POP POP JUMP JUMPDEST PUSH1 0x0 PUSH3 0x4FA DUP3 PUSH3 0x743 JUMP JUMPDEST SWAP2 POP PUSH3 0x507 DUP4 PUSH3 0x743 JUMP JUMPDEST SWAP3 POP DUP3 PUSH32 0xFFFFFFFFFFFFFFFFFFFFFFFFFFFFFFFFFFFFFFFFFFFFFFFFFFFFFFFFFFFFFFFF SUB DUP3 GT ISZERO PUSH3 0x53F JUMPI PUSH3 0x53E PUSH3 0x7EF JUMP JUMPDEST JUMPDEST DUP3 DUP3 ADD SWAP1 POP SWAP3 SWAP2 POP POP JUMP JUMPDEST PUSH1 0x0 DUP1 DUP3 SWAP2 POP DUP4 SWAP1 POP JUMPDEST PUSH1 0x1 DUP6 GT ISZERO PUSH3 0x59C JUMPI DUP1 DUP7 DIV DUP2 GT ISZERO PUSH3 0x574 JUMPI PUSH3 0x573 PUSH3 0x7EF JUMP JUMPDEST JUMPDEST PUSH1 0x1 DUP6 AND ISZERO PUSH3 0x584 JUMPI DUP1 DUP3 MUL SWAP2 POP JUMPDEST DUP1 DUP2 MUL SWAP1 POP PUSH3 0x594 DUP6 PUSH3 0x8A1 JUMP JUMPDEST SWAP5 POP PUSH3 0x554 JUMP JUMPDEST SWAP5 POP SWAP5 SWAP3 POP POP POP JUMP JUMPDEST PUSH1 0x0 PUSH3 0x5B2 DUP3 PUSH3 0x743 JUMP JUMPDEST SWAP2 POP PUSH3 0x5BF DUP4 PUSH3 0x743 JUMP JUMPDEST SWAP3 POP PUSH3 0x5EE PUSH32 0xFFFFFFFFFFFFFFFFFFFFFFFFFFFFFFFFFFFFFFFFFFFFFFFFFFFFFFFFFFFFFFFF DUP5 DUP5 PUSH3 0x5F6 JUMP JUMPDEST SWAP1 POP SWAP3 SWAP2 POP POP JUMP JUMPDEST PUSH1 0x0 DUP3 PUSH3 0x608 JUMPI PUSH1 0x1 SWAP1 POP PUSH3 0x6DB JUMP JUMPDEST DUP2 PUSH3 0x618 JUMPI PUSH1 0x0 SWAP1 POP PUSH3 0x6DB JUMP JUMPDEST DUP2 PUSH1 0x1 DUP2 EQ PUSH3 0x631 JUMPI PUSH1 0x2 DUP2 EQ PUSH3 0x63C JUMPI PUSH3 0x672 JUMP JUMPDEST PUSH1 0x1 SWAP2 POP POP PUSH3 0x6DB JUMP JUMPDEST PUSH1 0xFF DUP5 GT ISZERO PUSH3 0x651 JUMPI PUSH3 0x650 PUSH3 0x7EF JUMP JUMPDEST JUMPDEST DUP4 PUSH1 0x2 EXP SWAP2 POP DUP5 DUP3 GT ISZERO PUSH3 0x66B JUMPI PUSH3 0x66A PUSH3 0x7EF JUMP JUMPDEST JUMPDEST POP PUSH3 0x6DB JUMP JUMPDEST POP PUSH1 0x20 DUP4 LT PUSH2 0x133 DUP4 LT AND PUSH1 0x4E DUP5 LT PUSH1 0xB DUP5 LT AND OR ISZERO PUSH3 0x6AC JUMPI DUP3 DUP3 EXP SWAP1 POP DUP4 DUP2 GT ISZERO PUSH3 0x6A6 JUMPI PUSH3 0x6A5 PUSH3 0x7EF JUMP JUMPDEST JUMPDEST PUSH3 0x6DB JUMP JUMPDEST PUSH3 0x6BB DUP5 DUP5 DUP5 PUSH1 0x1 PUSH3 0x54A JUMP JUMPDEST SWAP3 POP SWAP1 POP DUP2 DUP5 DIV DUP2 GT ISZERO PUSH3 0x6D5 JUMPI PUSH3 0x6D4 PUSH3 0x7EF JUMP JUMPDEST JUMPDEST DUP2 DUP2 MUL SWAP1 POP JUMPDEST SWAP4 SWAP3 POP POP POP JUMP JUMPDEST PUSH1 0x0 PUSH3 0x6EF DUP3 PUSH3 0x743 JUMP JUMPDEST SWAP2 POP PUSH3 0x6FC DUP4 PUSH3 0x743 JUMP JUMPDEST SWAP3 POP DUP2 PUSH32 0xFFFFFFFFFFFFFFFFFFFFFFFFFFFFFFFFFFFFFFFFFFFFFFFFFFFFFFFFFFFFFFFF DIV DUP4 GT DUP3 ISZERO ISZERO AND ISZERO PUSH3 0x738 JUMPI PUSH3 0x737 PUSH3 0x7EF JUMP JUMPDEST JUMPDEST DUP3 DUP3 MUL SWAP1 POP SWAP3 SWAP2 POP POP JUMP JUMPDEST PUSH1 0x0 DUP2 SWAP1 POP SWAP2 SWAP1 POP JUMP JUMPDEST PUSH1 0x0 JUMPDEST DUP4 DUP2 LT ISZERO PUSH3 0x76D JUMPI DUP1 DUP3 ADD MLOAD DUP2 DUP5 ADD MSTORE PUSH1 0x20 DUP2 ADD SWAP1 POP PUSH3 0x750 JUMP JUMPDEST DUP4 DUP2 GT ISZERO PUSH3 0x77D JUMPI PUSH1 0x0 DUP5 DUP5 ADD MSTORE JUMPDEST POP POP POP POP JUMP JUMPDEST PUSH1 0x0 PUSH1 0x2 DUP3 DIV SWAP1 POP PUSH1 0x1 DUP3 AND DUP1 PUSH3 0x79C JUMPI PUSH1 0x7F DUP3 AND SWAP2 POP JUMPDEST PUSH1 0x20 DUP3 LT DUP2 EQ ISZERO PUSH3 0x7B3 JUMPI PUSH3 0x7B2 PUSH3 0x81E JUMP JUMPDEST JUMPDEST POP SWAP2 SWAP1 POP JUMP JUMPDEST PUSH3 0x7C4 DUP3 PUSH3 0x890 JUMP JUMPDEST DUP2 ADD DUP2 DUP2 LT PUSH8 0xFFFFFFFFFFFFFFFF DUP3 GT OR ISZERO PUSH3 0x7E6 JUMPI PUSH3 0x7E5 PUSH3 0x84D JUMP JUMPDEST JUMPDEST DUP1 PUSH1 0x40 MSTORE POP POP POP JUMP JUMPDEST PUSH32 0x4E487B7100000000000000000000000000000000000000000000000000000000 PUSH1 0x0 MSTORE PUSH1 0x11 PUSH1 0x4 MSTORE PUSH1 0x24 PUSH1 0x0 REVERT JUMPDEST PUSH32 0x4E487B7100000000000000000000000000000000000000000000000000000000 PUSH1 0x0 MSTORE PUSH1 0x22 PUSH1 0x4 MSTORE PUSH1 0x24 PUSH1 0x0 REVERT JUMPDEST PUSH32 0x4E487B7100000000000000000000000000000000000000000000000000000000 PUSH1 0x0 MSTORE PUSH1 0x41 PUSH1 0x4 MSTORE PUSH1 0x24 PUSH1 0x0 REVERT JUMPDEST PUSH1 0x0 DUP1 REVERT JUMPDEST PUSH1 0x0 DUP1 REVERT JUMPDEST PUSH1 0x0 DUP1 REVERT JUMPDEST PUSH1 0x0 DUP1 REVERT JUMPDEST PUSH1 0x0 PUSH1 0x1F NOT PUSH1 0x1F DUP4 ADD AND SWAP1 POP SWAP2 SWAP1 POP JUMP JUMPDEST PUSH1 0x0 DUP2 PUSH1 0x1 SHR SWAP1 POP SWAP2 SWAP1 POP JUMP JUMPDEST PUSH32 0x45524332303A206D696E7420746F20746865207A65726F206164647265737300 PUSH1 0x0 DUP3 ADD MSTORE POP JUMP JUMPDEST PUSH2 0x23E6 DUP1 PUSH3 0x8E7 PUSH1 0x0 CODECOPY PUSH1 0x0 RETURN INVALID PUSH1 0x80 PUSH1 0x40 MSTORE CALLVALUE DUP1 ISZERO PUSH2 0x10 JUMPI PUSH1 0x0 DUP1 REVERT JUMPDEST POP PUSH1 0x4 CALLDATASIZE LT PUSH2 0xF5 JUMPI PUSH1 0x0 CALLDATALOAD PUSH1 0xE0 SHR DUP1 PUSH4 0x3C3B0B4A GT PUSH2 0x97 JUMPI DUP1 PUSH4 0xA9059CBB GT PUSH2 0x66 JUMPI DUP1 PUSH4 0xA9059CBB EQ PUSH2 0x2C2 JUMPI DUP1 PUSH4 0xAEDA852F EQ PUSH2 0x2F2 JUMPI DUP1 PUSH4 0xC45E1B25 EQ PUSH2 0x32A JUMPI DUP1 PUSH4 0xDD62ED3E EQ PUSH2 0x35A JUMPI PUSH2 0xF5 JUMP JUMPDEST DUP1 PUSH4 0x3C3B0B4A EQ PUSH2 0x214 JUMPI DUP1 PUSH4 0x70A08231 EQ PUSH2 0x244 JUMPI DUP1 PUSH4 0x95D89B41 EQ PUSH2 0x274 JUMPI DUP1 PUSH4 0xA457C2D7 EQ PUSH2 0x292 JUMPI PUSH2 0xF5 JUMP JUMPDEST DUP1 PUSH4 0x19161161 GT PUSH2 0xD3 JUMPI DUP1 PUSH4 0x19161161 EQ PUSH2 0x166 JUMPI DUP1 PUSH4 0x23B872DD EQ PUSH2 0x196 JUMPI DUP1 PUSH4 0x313CE567 EQ PUSH2 0x1C6 JUMPI DUP1 PUSH4 0x39509351 EQ PUSH2 0x1E4 JUMPI PUSH2 0xF5 JUMP JUMPDEST DUP1 PUSH4 0x6FDDE03 EQ PUSH2 0xFA JUMPI DUP1 PUSH4 0x95EA7B3 EQ PUSH2 0x118 JUMPI DUP1 PUSH4 0x18160DDD EQ PUSH2 0x148 JUMPI JUMPDEST PUSH1 0x0 DUP1 REVERT JUMPDEST PUSH2 0x102 PUSH2 0x38A JUMP JUMPDEST PUSH1 0x40 MLOAD PUSH2 0x10F SWAP2 SWAP1 PUSH2 0x19D9 JUMP JUMPDEST PUSH1 0x40 MLOAD DUP1 SWAP2 SUB SWAP1 RETURN JUMPDEST PUSH2 0x132 PUSH1 0x4 DUP1 CALLDATASIZE SUB DUP2 ADD SWAP1 PUSH2 0x12D SWAP2 SWAP1 PUSH2 0x15A8 JUMP JUMPDEST PUSH2 0x41C JUMP JUMPDEST PUSH1 0x40 MLOAD PUSH2 0x13F SWAP2 SWAP1 PUSH2 0x19BE JUMP JUMPDEST PUSH1 0x40 MLOAD DUP1 SWAP2 SUB SWAP1 RETURN JUMPDEST PUSH2 0x150 PUSH2 0x43A JUMP JUMPDEST PUSH1 0x40 MLOAD PUSH2 0x15D SWAP2 SWAP1 PUSH2 0x1B3B JUMP JUMPDEST PUSH1 0x40 MLOAD DUP1 SWAP2 SUB SWAP1 RETURN JUMPDEST PUSH2 0x180 PUSH1 0x4 DUP1 CALLDATASIZE SUB DUP2 ADD SWAP1 PUSH2 0x17B SWAP2 SWAP1 PUSH2 0x1615 JUMP JUMPDEST PUSH2 0x444 JUMP JUMPDEST PUSH1 0x40 MLOAD PUSH2 0x18D SWAP2 SWAP1 PUSH2 0x1B3B JUMP JUMPDEST PUSH1 0x40 MLOAD DUP1 SWAP2 SUB SWAP1 RETURN JUMPDEST PUSH2 0x1B0 PUSH1 0x4 DUP1 CALLDATASIZE SUB DUP2 ADD SWAP1 PUSH2 0x1AB SWAP2 SWAP1 PUSH2 0x1555 JUMP JUMPDEST PUSH2 0x723 JUMP JUMPDEST PUSH1 0x40 MLOAD PUSH2 0x1BD SWAP2 SWAP1 PUSH2 0x19BE JUMP JUMPDEST PUSH1 0x40 MLOAD DUP1 SWAP2 SUB SWAP1 RETURN JUMPDEST PUSH2 0x1CE PUSH2 0x824 JUMP JUMPDEST PUSH1 0x40 MLOAD PUSH2 0x1DB SWAP2 SWAP1 PUSH2 0x1C44 JUMP JUMPDEST PUSH1 0x40 MLOAD DUP1 SWAP2 SUB SWAP1 RETURN JUMPDEST PUSH2 0x1FE PUSH1 0x4 DUP1 CALLDATASIZE SUB DUP2 ADD SWAP1 PUSH2 0x1F9 SWAP2 SWAP1 PUSH2 0x15A8 JUMP JUMPDEST PUSH2 0x82D JUMP JUMPDEST PUSH1 0x40 MLOAD PUSH2 0x20B SWAP2 SWAP1 PUSH2 0x19BE JUMP JUMPDEST PUSH1 0x40 MLOAD DUP1 SWAP2 SUB SWAP1 RETURN JUMPDEST PUSH2 0x22E PUSH1 0x4 DUP1 CALLDATASIZE SUB DUP2 ADD SWAP1 PUSH2 0x229 SWAP2 SWAP1 PUSH2 0x15E8 JUMP JUMPDEST PUSH2 0x8D9 JUMP JUMPDEST PUSH1 0x40 MLOAD PUSH2 0x23B SWAP2 SWAP1 PUSH2 0x19D9 JUMP JUMPDEST PUSH1 0x40 MLOAD DUP1 SWAP2 SUB SWAP1 RETURN JUMPDEST PUSH2 0x25E PUSH1 0x4 DUP1 CALLDATASIZE SUB DUP2 ADD SWAP1 PUSH2 0x259 SWAP2 SWAP1 PUSH2 0x14E8 JUMP JUMPDEST PUSH2 0x9EB JUMP JUMPDEST PUSH1 0x40 MLOAD PUSH2 0x26B SWAP2 SWAP1 PUSH2 0x1B3B JUMP JUMPDEST PUSH1 0x40 MLOAD DUP1 SWAP2 SUB SWAP1 RETURN JUMPDEST PUSH2 0x27C PUSH2 0xA33 JUMP JUMPDEST PUSH1 0x40 MLOAD PUSH2 0x289 SWAP2 SWAP1 PUSH2 0x19D9 JUMP JUMPDEST PUSH1 0x40 MLOAD DUP1 SWAP2 SUB SWAP1 RETURN JUMPDEST PUSH2 0x2AC PUSH1 0x4 DUP1 CALLDATASIZE SUB DUP2 ADD SWAP1 PUSH2 0x2A7 SWAP2 SWAP1 PUSH2 0x15A8 JUMP JUMPDEST PUSH2 0xAC5 JUMP JUMPDEST PUSH1 0x40 MLOAD PUSH2 0x2B9 SWAP2 SWAP1 PUSH2 0x19BE JUMP JUMPDEST PUSH1 0x40 MLOAD DUP1 SWAP2 SUB SWAP1 RETURN JUMPDEST PUSH2 0x2DC PUSH1 0x4 DUP1 CALLDATASIZE SUB DUP2 ADD SWAP1 PUSH2 0x2D7 SWAP2 SWAP1 PUSH2 0x15A8 JUMP JUMPDEST PUSH2 0xBB9 JUMP JUMPDEST PUSH1 0x40 MLOAD PUSH2 0x2E9 SWAP2 SWAP1 PUSH2 0x19BE JUMP JUMPDEST PUSH1 0x40 MLOAD DUP1 SWAP2 SUB SWAP1 RETURN JUMPDEST PUSH2 0x30C PUSH1 0x4 DUP1 CALLDATASIZE SUB DUP2 ADD SWAP1 PUSH2 0x307 SWAP2 SWAP1 PUSH2 0x15E8 JUMP JUMPDEST PUSH2 0xBD7 JUMP JUMPDEST PUSH1 0x40 MLOAD PUSH2 0x321 SWAP10 SWAP9 SWAP8 SWAP7 SWAP6 SWAP5 SWAP4 SWAP3 SWAP2 SWAP1 PUSH2 0x1BB0 JUMP JUMPDEST PUSH1 0x40 MLOAD DUP1 SWAP2 SUB SWAP1 RETURN JUMPDEST PUSH2 0x344 PUSH1 0x4 DUP1 CALLDATASIZE SUB DUP2 ADD SWAP1 PUSH2 0x33F SWAP2 SWAP1 PUSH2 0x15E8 JUMP JUMPDEST PUSH2 0xCFA JUMP JUMPDEST PUSH1 0x40 MLOAD PUSH2 0x351 SWAP2 SWAP1 PUSH2 0x199C JUMP JUMPDEST PUSH1 0x40 MLOAD DUP1 SWAP2 SUB SWAP1 RETURN JUMPDEST PUSH2 0x374 PUSH1 0x4 DUP1 CALLDATASIZE SUB DUP2 ADD SWAP1 PUSH2 0x36F SWAP2 SWAP1 PUSH2 0x1515 JUMP JUMPDEST PUSH2 0xE78 JUMP JUMPDEST PUSH1 0x40 MLOAD PUSH2 0x381 SWAP2 SWAP1 PUSH2 0x1B3B JUMP JUMPDEST PUSH1 0x40 MLOAD DUP1 SWAP2 SUB SWAP1 RETURN JUMPDEST PUSH1 0x60 PUSH1 0x3 DUP1 SLOAD PUSH2 0x399 SWAP1 PUSH2 0x1E90 JUMP JUMPDEST DUP1 PUSH1 0x1F ADD PUSH1 0x20 DUP1 SWAP2 DIV MUL PUSH1 0x20 ADD PUSH1 0x40 MLOAD SWAP1 DUP2 ADD PUSH1 0x40 MSTORE DUP1 SWAP3 SWAP2 SWAP1 DUP2 DUP2 MSTORE PUSH1 0x20 ADD DUP3 DUP1 SLOAD PUSH2 0x3C5 SWAP1 PUSH2 0x1E90 JUMP JUMPDEST DUP1 ISZERO PUSH2 0x412 JUMPI DUP1 PUSH1 0x1F LT PUSH2 0x3E7 JUMPI PUSH2 0x100 DUP1 DUP4 SLOAD DIV MUL DUP4 MSTORE SWAP2 PUSH1 0x20 ADD SWAP2 PUSH2 0x412 JUMP JUMPDEST DUP3 ADD SWAP2 SWAP1 PUSH1 0x0 MSTORE PUSH1 0x20 PUSH1 0x0 KECCAK256 SWAP1 JUMPDEST DUP2 SLOAD DUP2 MSTORE SWAP1 PUSH1 0x1 ADD SWAP1 PUSH1 0x20 ADD DUP1 DUP4 GT PUSH2 0x3F5 JUMPI DUP3 SWAP1 SUB PUSH1 0x1F AND DUP3 ADD SWAP2 JUMPDEST POP POP POP POP POP SWAP1 POP SWAP1 JUMP JUMPDEST PUSH1 0x0 PUSH2 0x430 PUSH2 0x429 PUSH2 0xEFF JUMP JUMPDEST DUP5 DUP5 PUSH2 0xF07 JUMP JUMPDEST PUSH1 0x1 SWAP1 POP SWAP3 SWAP2 POP POP JUMP JUMPDEST PUSH1 0x0 PUSH1 0x2 SLOAD SWAP1 POP SWAP1 JUMP JUMPDEST PUSH1 0x0 DUP1 DUP5 DUP8 PUSH2 0x453 SWAP2 SWAP1 PUSH2 0x1D6B JUMP JUMPDEST GT PUSH2 0x493 JUMPI PUSH1 0x40 MLOAD PUSH32 0x8C379A000000000000000000000000000000000000000000000000000000000 DUP2 MSTORE PUSH1 0x4 ADD PUSH2 0x48A SWAP1 PUSH2 0x1A3B JUMP JUMPDEST PUSH1 0x40 MLOAD DUP1 SWAP2 SUB SWAP1 REVERT JUMPDEST PUSH1 0x0 PUSH2 0x4A0 DUP5 DUP7 DUP6 PUSH2 0x10D2 JUMP JUMPDEST SWAP1 POP PUSH1 0xB PUSH1 0x0 DUP3 DUP2 MSTORE PUSH1 0x20 ADD SWAP1 DUP2 MSTORE PUSH1 0x20 ADD PUSH1 0x0 KECCAK256 PUSH1 0x0 ADD SLOAD DUP2 EQ ISZERO PUSH2 0x4FB JUMPI PUSH1 0x40 MLOAD PUSH32 0x8C379A000000000000000000000000000000000000000000000000000000000 DUP2 MSTORE PUSH1 0x4 ADD PUSH2 0x4F2 SWAP1 PUSH2 0x1A9B JUMP JUMPDEST PUSH1 0x40 MLOAD DUP1 SWAP2 SUB SWAP1 REVERT JUMPDEST PUSH1 0x40 MLOAD DUP1 PUSH2 0x120 ADD PUSH1 0x40 MSTORE DUP1 DUP3 DUP2 MSTORE PUSH1 0x20 ADD PUSH1 0x8 SLOAD DUP2 MSTORE PUSH1 0x20 ADD DUP9 DUP2 MSTORE PUSH1 0x20 ADD DUP8 DUP2 MSTORE PUSH1 0x20 ADD DUP7 DUP2 MSTORE PUSH1 0x20 ADD DUP6 PUSH20 0xFFFFFFFFFFFFFFFFFFFFFFFFFFFFFFFFFFFFFFFF AND DUP2 MSTORE PUSH1 0x20 ADD DUP6 PUSH20 0xFFFFFFFFFFFFFFFFFFFFFFFFFFFFFFFFFFFFFFFF AND DUP2 MSTORE PUSH1 0x20 ADD DUP5 DUP2 MSTORE PUSH1 0x20 ADD PUSH1 0x0 ISZERO ISZERO DUP2 MSTORE POP PUSH1 0xB PUSH1 0x0 DUP4 DUP2 MSTORE PUSH1 0x20 ADD SWAP1 DUP2 MSTORE PUSH1 0x20 ADD PUSH1 0x0 KECCAK256 PUSH1 0x0 DUP3 ADD MLOAD DUP2 PUSH1 0x0 ADD SSTORE PUSH1 0x20 DUP3 ADD MLOAD DUP2 PUSH1 0x1 ADD SSTORE PUSH1 0x40 DUP3 ADD MLOAD DUP2 PUSH1 0x2 ADD SSTORE PUSH1 0x60 DUP3 ADD MLOAD DUP2 PUSH1 0x3 ADD SSTORE PUSH1 0x80 DUP3 ADD MLOAD DUP2 PUSH1 0x4 ADD SSTORE PUSH1 0xA0 DUP3 ADD MLOAD DUP2 PUSH1 0x5 ADD PUSH1 0x0 PUSH2 0x100 EXP DUP2 SLOAD DUP2 PUSH20 0xFFFFFFFFFFFFFFFFFFFFFFFFFFFFFFFFFFFFFFFF MUL NOT AND SWAP1 DUP4 PUSH20 0xFFFFFFFFFFFFFFFFFFFFFFFFFFFFFFFFFFFFFFFF AND MUL OR SWAP1 SSTORE POP PUSH1 0xC0 DUP3 ADD MLOAD DUP2 PUSH1 0x6 ADD PUSH1 0x0 PUSH2 0x100 EXP DUP2 SLOAD DUP2 PUSH20 0xFFFFFFFFFFFFFFFFFFFFFFFFFFFFFFFFFFFFFFFF MUL NOT AND SWAP1 DUP4 PUSH20 0xFFFFFFFFFFFFFFFFFFFFFFFFFFFFFFFFFFFFFFFF AND MUL OR SWAP1 SSTORE POP PUSH1 0xE0 DUP3 ADD MLOAD DUP2 PUSH1 0x7 ADD SWAP1 DUP1 MLOAD SWAP1 PUSH1 0x20 ADD SWAP1 PUSH2 0x65B SWAP3 SWAP2 SWAP1 PUSH2 0x13AB JUMP JUMPDEST POP PUSH2 0x100 DUP3 ADD MLOAD DUP2 PUSH1 0x8 ADD PUSH1 0x0 PUSH2 0x100 EXP DUP2 SLOAD DUP2 PUSH1 0xFF MUL NOT AND SWAP1 DUP4 ISZERO ISZERO MUL OR SWAP1 SSTORE POP SWAP1 POP POP PUSH2 0x696 PUSH1 0x7 SLOAD TIMESTAMP PUSH2 0x691 SWAP2 SWAP1 PUSH2 0x1D15 JUMP JUMPDEST PUSH2 0x111D JUMP JUMPDEST PUSH1 0xA DUP2 SWAP1 DUP1 PUSH1 0x1 DUP2 SLOAD ADD DUP1 DUP3 SSTORE DUP1 SWAP2 POP POP PUSH1 0x1 SWAP1 SUB SWAP1 PUSH1 0x0 MSTORE PUSH1 0x20 PUSH1 0x0 KECCAK256 ADD PUSH1 0x0 SWAP1 SWAP2 SWAP1 SWAP2 SWAP1 SWAP2 POP SSTORE PUSH1 0x8 PUSH1 0x0 DUP2 SLOAD DUP1 SWAP3 SWAP2 SWAP1 PUSH2 0x6D2 SWAP1 PUSH2 0x1EF3 JUMP JUMPDEST SWAP2 SWAP1 POP SSTORE POP PUSH32 0x3070C472A527C6FDF9D1D29D3F8DE3F74A2DE6EF97DB5CC15B587188B278951F DUP2 DUP6 DUP10 DUP10 DUP8 PUSH1 0x40 MLOAD PUSH2 0x70E SWAP6 SWAP5 SWAP4 SWAP3 SWAP2 SWAP1 PUSH2 0x1B56 JUMP JUMPDEST PUSH1 0x40 MLOAD DUP1 SWAP2 SUB SWAP1 LOG1 DUP1 SWAP2 POP POP SWAP6 SWAP5 POP POP POP POP POP JUMP JUMPDEST PUSH1 0x0 PUSH2 0x730 DUP5 DUP5 DUP5 PUSH2 0x1127 JUMP JUMPDEST PUSH1 0x0 PUSH1 0x1 PUSH1 0x0 DUP7 PUSH20 0xFFFFFFFFFFFFFFFFFFFFFFFFFFFFFFFFFFFFFFFF AND PUSH20 0xFFFFFFFFFFFFFFFFFFFFFFFFFFFFFFFFFFFFFFFF AND DUP2 MSTORE PUSH1 0x20 ADD SWAP1 DUP2 MSTORE PUSH1 0x20 ADD PUSH1 0x0 KECCAK256 PUSH1 0x0 PUSH2 0x77B PUSH2 0xEFF JUMP JUMPDEST PUSH20 0xFFFFFFFFFFFFFFFFFFFFFFFFFFFFFFFFFFFFFFFF AND PUSH20 0xFFFFFFFFFFFFFFFFFFFFFFFFFFFFFFFFFFFFFFFF AND DUP2 MSTORE PUSH1 0x20 ADD SWAP1 DUP2 MSTORE PUSH1 0x20 ADD PUSH1 0x0 KECCAK256 SLOAD SWAP1 POP DUP3 DUP2 LT ISZERO PUSH2 0x7FB JUMPI PUSH1 0x40 MLOAD PUSH32 0x8C379A000000000000000000000000000000000000000000000000000000000 DUP2 MSTORE PUSH1 0x4 ADD PUSH2 0x7F2 SWAP1 PUSH2 0x1A7B JUMP JUMPDEST PUSH1 0x40 MLOAD DUP1 SWAP2 SUB SWAP1 REVERT JUMPDEST PUSH2 0x818 DUP6 PUSH2 0x807 PUSH2 0xEFF JUMP JUMPDEST DUP6 DUP5 PUSH2 0x813 SWAP2 SWAP1 PUSH2 0x1DC5 JUMP JUMPDEST PUSH2 0xF07 JUMP JUMPDEST PUSH1 0x1 SWAP2 POP POP SWAP4 SWAP3 POP POP POP JUMP JUMPDEST PUSH1 0x0 PUSH1 0x12 SWAP1 POP SWAP1 JUMP JUMPDEST PUSH1 0x0 PUSH2 0x8CF PUSH2 0x83A PUSH2 0xEFF JUMP JUMPDEST DUP5 DUP5 PUSH1 0x1 PUSH1 0x0 PUSH2 0x848 PUSH2 0xEFF JUMP JUMPDEST PUSH20 0xFFFFFFFFFFFFFFFFFFFFFFFFFFFFFFFFFFFFFFFF AND PUSH20 0xFFFFFFFFFFFFFFFFFFFFFFFFFFFFFFFFFFFFFFFF AND DUP2 MSTORE PUSH1 0x20 ADD SWAP1 DUP2 MSTORE PUSH1 0x20 ADD PUSH1 0x0 KECCAK256 PUSH1 0x0 DUP9 PUSH20 0xFFFFFFFFFFFFFFFFFFFFFFFFFFFFFFFFFFFFFFFF AND PUSH20 0xFFFFFFFFFFFFFFFFFFFFFFFFFFFFFFFFFFFFFFFF AND DUP2 MSTORE PUSH1 0x20 ADD SWAP1 DUP2 MSTORE PUSH1 0x20 ADD PUSH1 0x0 KECCAK256 SLOAD PUSH2 0x8CA SWAP2 SWAP1 PUSH2 0x1D15 JUMP JUMPDEST PUSH2 0xF07 JUMP JUMPDEST PUSH1 0x1 SWAP1 POP SWAP3 SWAP2 POP POP JUMP JUMPDEST PUSH1 0x60 CALLER PUSH20 0xFFFFFFFFFFFFFFFFFFFFFFFFFFFFFFFFFFFFFFFF AND PUSH1 0xB PUSH1 0x0 DUP5 DUP2 MSTORE PUSH1 0x20 ADD SWAP1 DUP2 MSTORE PUSH1 0x20 ADD PUSH1 0x0 KECCAK256 PUSH1 0x5 ADD PUSH1 0x0 SWAP1 SLOAD SWAP1 PUSH2 0x100 EXP SWAP1 DIV PUSH20 0xFFFFFFFFFFFFFFFFFFFFFFFFFFFFFFFFFFFFFFFF AND PUSH20 0xFFFFFFFFFFFFFFFFFFFFFFFFFFFFFFFFFFFFFFFF AND EQ PUSH2 0x97F JUMPI PUSH1 0x40 MLOAD PUSH32 0x8C379A000000000000000000000000000000000000000000000000000000000 DUP2 MSTORE PUSH1 0x4 ADD PUSH2 0x976 SWAP1 PUSH2 0x1AFB JUMP JUMPDEST PUSH1 0x40 MLOAD DUP1 SWAP2 SUB SWAP1 REVERT JUMPDEST PUSH1 0x1 PUSH1 0xB PUSH1 0x0 DUP5 DUP2 MSTORE PUSH1 0x20 ADD SWAP1 DUP2 MSTORE PUSH1 0x20 ADD PUSH1 0x0 KECCAK256 PUSH1 0x8 ADD PUSH1 0x0 PUSH2 0x100 EXP DUP2 SLOAD DUP2 PUSH1 0xFF MUL NOT AND SWAP1 DUP4 ISZERO ISZERO MUL OR SWAP1 SSTORE POP PUSH1 0x40 MLOAD DUP1 PUSH1 0x40 ADD PUSH1 0x40 MSTORE DUP1 PUSH1 0x15 DUP2 MSTORE PUSH1 0x20 ADD PUSH32 0x64656C69737420776173207375636365737366756C0000000000000000000000 DUP2 MSTORE POP SWAP1 POP SWAP2 SWAP1 POP JUMP JUMPDEST PUSH1 0x0 DUP1 PUSH1 0x0 DUP4 PUSH20 0xFFFFFFFFFFFFFFFFFFFFFFFFFFFFFFFFFFFFFFFF AND PUSH20 0xFFFFFFFFFFFFFFFFFFFFFFFFFFFFFFFFFFFFFFFF AND DUP2 MSTORE PUSH1 0x20 ADD SWAP1 DUP2 MSTORE PUSH1 0x20 ADD PUSH1 0x0 KECCAK256 SLOAD SWAP1 POP SWAP2 SWAP1 POP JUMP JUMPDEST PUSH1 0x60 PUSH1 0x4 DUP1 SLOAD PUSH2 0xA42 SWAP1 PUSH2 0x1E90 JUMP JUMPDEST DUP1 PUSH1 0x1F ADD PUSH1 0x20 DUP1 SWAP2 DIV MUL PUSH1 0x20 ADD PUSH1 0x40 MLOAD SWAP1 DUP2 ADD PUSH1 0x40 MSTORE DUP1 SWAP3 SWAP2 SWAP1 DUP2 DUP2 MSTORE PUSH1 0x20 ADD DUP3 DUP1 SLOAD PUSH2 0xA6E SWAP1 PUSH2 0x1E90 JUMP JUMPDEST DUP1 ISZERO PUSH2 0xABB JUMPI DUP1 PUSH1 0x1F LT PUSH2 0xA90 JUMPI PUSH2 0x100 DUP1 DUP4 SLOAD DIV MUL DUP4 MSTORE SWAP2 PUSH1 0x20 ADD SWAP2 PUSH2 0xABB JUMP JUMPDEST DUP3 ADD SWAP2 SWAP1 PUSH1 0x0 MSTORE PUSH1 0x20 PUSH1 0x0 KECCAK256 SWAP1 JUMPDEST DUP2 SLOAD DUP2 MSTORE SWAP1 PUSH1 0x1 ADD SWAP1 PUSH1 0x20 ADD DUP1 DUP4 GT PUSH2 0xA9E JUMPI DUP3 SWAP1 SUB PUSH1 0x1F AND DUP3 ADD SWAP2 JUMPDEST POP POP POP POP POP SWAP1 POP SWAP1 JUMP JUMPDEST PUSH1 0x0 DUP1 PUSH1 0x1 PUSH1 0x0 PUSH2 0xAD4 PUSH2 0xEFF JUMP JUMPDEST PUSH20 0xFFFFFFFFFFFFFFFFFFFFFFFFFFFFFFFFFFFFFFFF AND PUSH20 0xFFFFFFFFFFFFFFFFFFFFFFFFFFFFFFFFFFFFFFFF AND DUP2 MSTORE PUSH1 0x20 ADD SWAP1 DUP2 MSTORE PUSH1 0x20 ADD PUSH1 0x0 KECCAK256 PUSH1 0x0 DUP6 PUSH20 0xFFFFFFFFFFFFFFFFFFFFFFFFFFFFFFFFFFFFFFFF AND PUSH20 0xFFFFFFFFFFFFFFFFFFFFFFFFFFFFFFFFFFFFFFFF AND DUP2 MSTORE PUSH1 0x20 ADD SWAP1 DUP2 MSTORE PUSH1 0x20 ADD PUSH1 0x0 KECCAK256 SLOAD SWAP1 POP DUP3 DUP2 LT ISZERO PUSH2 0xB91 JUMPI PUSH1 0x40 MLOAD PUSH32 0x8C379A000000000000000000000000000000000000000000000000000000000 DUP2 MSTORE PUSH1 0x4 ADD PUSH2 0xB88 SWAP1 PUSH2 0x1B1B JUMP JUMPDEST PUSH1 0x40 MLOAD DUP1 SWAP2 SUB SWAP1 REVERT JUMPDEST PUSH2 0xBAE PUSH2 0xB9C PUSH2 0xEFF JUMP JUMPDEST DUP6 DUP6 DUP5 PUSH2 0xBA9 SWAP2 SWAP1 PUSH2 0x1DC5 JUMP JUMPDEST PUSH2 0xF07 JUMP JUMPDEST PUSH1 0x1 SWAP2 POP POP SWAP3 SWAP2 POP POP JUMP JUMPDEST PUSH1 0x0 PUSH2 0xBCD PUSH2 0xBC6 PUSH2 0xEFF JUMP JUMPDEST DUP5 DUP5 PUSH2 0x1127 JUMP JUMPDEST PUSH1 0x1 SWAP1 POP SWAP3 SWAP2 POP POP JUMP JUMPDEST PUSH1 0xB PUSH1 0x20 MSTORE DUP1 PUSH1 0x0 MSTORE PUSH1 0x40 PUSH1 0x0 KECCAK256 PUSH1 0x0 SWAP2 POP SWAP1 POP DUP1 PUSH1 0x0 ADD SLOAD SWAP1 DUP1 PUSH1 0x1 ADD SLOAD SWAP1 DUP1 PUSH1 0x2 ADD SLOAD SWAP1 DUP1 PUSH1 0x3 ADD SLOAD SWAP1 DUP1 PUSH1 0x4 ADD SLOAD SWAP1 DUP1 PUSH1 0x5 ADD PUSH1 0x0 SWAP1 SLOAD SWAP1 PUSH2 0x100 EXP SWAP1 DIV PUSH20 0xFFFFFFFFFFFFFFFFFFFFFFFFFFFFFFFFFFFFFFFF AND SWAP1 DUP1 PUSH1 0x6 ADD PUSH1 0x0 SWAP1 SLOAD SWAP1 PUSH2 0x100 EXP SWAP1 DIV PUSH20 0xFFFFFFFFFFFFFFFFFFFFFFFFFFFFFFFFFFFFFFFF AND SWAP1 DUP1 PUSH1 0x7 ADD DUP1 SLOAD PUSH2 0xC64 SWAP1 PUSH2 0x1E90 JUMP JUMPDEST DUP1 PUSH1 0x1F ADD PUSH1 0x20 DUP1 SWAP2 DIV MUL PUSH1 0x20 ADD PUSH1 0x40 MLOAD SWAP1 DUP2 ADD PUSH1 0x40 MSTORE DUP1 SWAP3 SWAP2 SWAP1 DUP2 DUP2 MSTORE PUSH1 0x20 ADD DUP3 DUP1 SLOAD PUSH2 0xC90 SWAP1 PUSH2 0x1E90 JUMP JUMPDEST DUP1 ISZERO PUSH2 0xCDD JUMPI DUP1 PUSH1 0x1F LT PUSH2 0xCB2 JUMPI PUSH2 0x100 DUP1 DUP4 SLOAD DIV MUL DUP4 MSTORE SWAP2 PUSH1 0x20 ADD SWAP2 PUSH2 0xCDD JUMP JUMPDEST DUP3 ADD SWAP2 SWAP1 PUSH1 0x0 MSTORE PUSH1 0x20 PUSH1 0x0 KECCAK256 SWAP1 JUMPDEST DUP2 SLOAD DUP2 MSTORE SWAP1 PUSH1 0x1 ADD SWAP1 PUSH1 0x20 ADD DUP1 DUP4 GT PUSH2 0xCC0 JUMPI DUP3 SWAP1 SUB PUSH1 0x1F AND DUP3 ADD SWAP2 JUMPDEST POP POP POP POP POP SWAP1 DUP1 PUSH1 0x8 ADD PUSH1 0x0 SWAP1 SLOAD SWAP1 PUSH2 0x100 EXP SWAP1 DIV PUSH1 0xFF AND SWAP1 POP DUP10 JUMP JUMPDEST PUSH1 0x60 PUSH1 0x0 DUP1 JUMPDEST PUSH1 0xA DUP1 SLOAD SWAP1 POP DUP2 LT ISZERO PUSH2 0xD6B JUMPI DUP4 PUSH1 0xB PUSH1 0x0 PUSH1 0xA DUP5 DUP2 SLOAD DUP2 LT PUSH2 0xD26 JUMPI PUSH2 0xD25 PUSH2 0x2028 JUMP JUMPDEST JUMPDEST SWAP1 PUSH1 0x0 MSTORE PUSH1 0x20 PUSH1 0x0 KECCAK256 ADD SLOAD DUP2 MSTORE PUSH1 0x20 ADD SWAP1 DUP2 MSTORE PUSH1 0x20 ADD PUSH1 0x0 KECCAK256 PUSH1 0x2 ADD SLOAD LT ISZERO PUSH2 0xD58 JUMPI DUP2 DUP1 PUSH2 0xD54 SWAP1 PUSH2 0x1EF3 JUMP JUMPDEST SWAP3 POP POP JUMPDEST DUP1 DUP1 PUSH2 0xD63 SWAP1 PUSH2 0x1EF3 JUMP JUMPDEST SWAP2 POP POP PUSH2 0xD00 JUMP JUMPDEST POP PUSH1 0x0 DUP2 PUSH8 0xFFFFFFFFFFFFFFFF DUP2 GT ISZERO PUSH2 0xD88 JUMPI PUSH2 0xD87 PUSH2 0x2057 JUMP JUMPDEST JUMPDEST PUSH1 0x40 MLOAD SWAP1 DUP1 DUP3 MSTORE DUP1 PUSH1 0x20 MUL PUSH1 0x20 ADD DUP3 ADD PUSH1 0x40 MSTORE DUP1 ISZERO PUSH2 0xDB6 JUMPI DUP2 PUSH1 0x20 ADD PUSH1 0x20 DUP3 MUL DUP1 CALLDATASIZE DUP4 CALLDATACOPY DUP1 DUP3 ADD SWAP2 POP POP SWAP1 POP JUMPDEST POP SWAP1 POP PUSH1 0x0 JUMPDEST PUSH1 0xA DUP1 SLOAD SWAP1 POP DUP2 LT ISZERO PUSH2 0xE6D JUMPI DUP5 PUSH1 0xB PUSH1 0x0 PUSH1 0xA DUP5 DUP2 SLOAD DUP2 LT PUSH2 0xDE2 JUMPI PUSH2 0xDE1 PUSH2 0x2028 JUMP JUMPDEST JUMPDEST SWAP1 PUSH1 0x0 MSTORE PUSH1 0x20 PUSH1 0x0 KECCAK256 ADD SLOAD DUP2 MSTORE PUSH1 0x20 ADD SWAP1 DUP2 MSTORE PUSH1 0x20 ADD PUSH1 0x0 KECCAK256 PUSH1 0x2 ADD SLOAD LT ISZERO PUSH2 0xE5A JUMPI PUSH1 0xB PUSH1 0x0 PUSH1 0xA DUP4 DUP2 SLOAD DUP2 LT PUSH2 0xE1D JUMPI PUSH2 0xE1C PUSH2 0x2028 JUMP JUMPDEST JUMPDEST SWAP1 PUSH1 0x0 MSTORE PUSH1 0x20 PUSH1 0x0 KECCAK256 ADD SLOAD DUP2 MSTORE PUSH1 0x20 ADD SWAP1 DUP2 MSTORE PUSH1 0x20 ADD PUSH1 0x0 KECCAK256 PUSH1 0x0 ADD SLOAD DUP3 DUP3 DUP2 MLOAD DUP2 LT PUSH2 0xE4D JUMPI PUSH2 0xE4C PUSH2 0x2028 JUMP JUMPDEST JUMPDEST PUSH1 0x20 MUL PUSH1 0x20 ADD ADD DUP2 DUP2 MSTORE POP POP JUMPDEST DUP1 DUP1 PUSH2 0xE65 SWAP1 PUSH2 0x1EF3 JUMP JUMPDEST SWAP2 POP POP PUSH2 0xDBC JUMP JUMPDEST POP DUP1 SWAP3 POP POP POP SWAP2 SWAP1 POP JUMP JUMPDEST PUSH1 0x0 PUSH1 0x1 PUSH1 0x0 DUP5 PUSH20 0xFFFFFFFFFFFFFFFFFFFFFFFFFFFFFFFFFFFFFFFF AND PUSH20 0xFFFFFFFFFFFFFFFFFFFFFFFFFFFFFFFFFFFFFFFF AND DUP2 MSTORE PUSH1 0x20 ADD SWAP1 DUP2 MSTORE PUSH1 0x20 ADD PUSH1 0x0 KECCAK256 PUSH1 0x0 DUP4 PUSH20 0xFFFFFFFFFFFFFFFFFFFFFFFFFFFFFFFFFFFFFFFF AND PUSH20 0xFFFFFFFFFFFFFFFFFFFFFFFFFFFFFFFFFFFFFFFF AND DUP2 MSTORE PUSH1 0x20 ADD SWAP1 DUP2 MSTORE PUSH1 0x20 ADD PUSH1 0x0 KECCAK256 SLOAD SWAP1 POP SWAP3 SWAP2 POP POP JUMP JUMPDEST PUSH1 0x0 CALLER SWAP1 POP SWAP1 JUMP JUMPDEST PUSH1 0x0 PUSH20 0xFFFFFFFFFFFFFFFFFFFFFFFFFFFFFFFFFFFFFFFF AND DUP4 PUSH20 0xFFFFFFFFFFFFFFFFFFFFFFFFFFFFFFFFFFFFFFFF AND EQ ISZERO PUSH2 0xF77 JUMPI PUSH1 0x40 MLOAD PUSH32 0x8C379A000000000000000000000000000000000000000000000000000000000 DUP2 MSTORE PUSH1 0x4 ADD PUSH2 0xF6E SWAP1 PUSH2 0x1ADB JUMP JUMPDEST PUSH1 0x40 MLOAD DUP1 SWAP2 SUB SWAP1 REVERT JUMPDEST PUSH1 0x0 PUSH20 0xFFFFFFFFFFFFFFFFFFFFFFFFFFFFFFFFFFFFFFFF AND DUP3 PUSH20 0xFFFFFFFFFFFFFFFFFFFFFFFFFFFFFFFFFFFFFFFF AND EQ ISZERO PUSH2 0xFE7 JUMPI PUSH1 0x40 MLOAD PUSH32 0x8C379A000000000000000000000000000000000000000000000000000000000 DUP2 MSTORE PUSH1 0x4 ADD PUSH2 0xFDE SWAP1 PUSH2 0x1A1B JUMP JUMPDEST PUSH1 0x40 MLOAD DUP1 SWAP2 SUB SWAP1 REVERT JUMPDEST DUP1 PUSH1 0x1 PUSH1 0x0 DUP6 PUSH20 0xFFFFFFFFFFFFFFFFFFFFFFFFFFFFFFFFFFFFFFFF AND PUSH20 0xFFFFFFFFFFFFFFFFFFFFFFFFFFFFFFFFFFFFFFFF AND DUP2 MSTORE PUSH1 0x20 ADD SWAP1 DUP2 MSTORE PUSH1 0x20 ADD PUSH1 0x0 KECCAK256 PUSH1 0x0 DUP5 PUSH20 0xFFFFFFFFFFFFFFFFFFFFFFFFFFFFFFFFFFFFFFFF AND PUSH20 0xFFFFFFFFFFFFFFFFFFFFFFFFFFFFFFFFFFFFFFFF AND DUP2 MSTORE PUSH1 0x20 ADD SWAP1 DUP2 MSTORE PUSH1 0x20 ADD PUSH1 0x0 KECCAK256 DUP2 SWAP1 SSTORE POP DUP2 PUSH20 0xFFFFFFFFFFFFFFFFFFFFFFFFFFFFFFFFFFFFFFFF AND DUP4 PUSH20 0xFFFFFFFFFFFFFFFFFFFFFFFFFFFFFFFFFFFFFFFF AND PUSH32 0x8C5BE1E5EBEC7D5BD14F71427D1E84F3DD0314C0F7B2291E5B200AC8C7C3B925 DUP4 PUSH1 0x40 MLOAD PUSH2 0x10C5 SWAP2 SWAP1 PUSH2 0x1B3B JUMP JUMPDEST PUSH1 0x40 MLOAD DUP1 SWAP2 SUB SWAP1 LOG3 POP POP POP JUMP JUMPDEST PUSH1 0x0 DUP1 DUP5 DUP5 DUP5 PUSH1 0x40 MLOAD PUSH1 0x20 ADD PUSH2 0x10EA SWAP4 SWAP3 SWAP2 SWAP1 PUSH2 0x1963 JUMP JUMPDEST PUSH1 0x40 MLOAD PUSH1 0x20 DUP2 DUP4 SUB SUB DUP2 MSTORE SWAP1 PUSH1 0x40 MSTORE DUP1 MLOAD SWAP1 PUSH1 0x20 ADD KECCAK256 PUSH1 0x0 SHR SWAP1 POP PUSH1 0x6 SLOAD DUP2 PUSH2 0x1113 SWAP2 SWAP1 PUSH2 0x1F6A JUMP JUMPDEST SWAP2 POP POP SWAP4 SWAP3 POP POP POP JUMP JUMPDEST DUP1 PUSH1 0x9 DUP2 SWAP1 SSTORE POP POP JUMP JUMPDEST PUSH1 0x0 PUSH20 0xFFFFFFFFFFFFFFFFFFFFFFFFFFFFFFFFFFFFFFFF AND DUP4 PUSH20 0xFFFFFFFFFFFFFFFFFFFFFFFFFFFFFFFFFFFFFFFF AND EQ ISZERO PUSH2 0x1197 JUMPI PUSH1 0x40 MLOAD PUSH32 0x8C379A000000000000000000000000000000000000000000000000000000000 DUP2 MSTORE PUSH1 0x4 ADD PUSH2 0x118E SWAP1 PUSH2 0x1ABB JUMP JUMPDEST PUSH1 0x40 MLOAD DUP1 SWAP2 SUB SWAP1 REVERT JUMPDEST PUSH1 0x0 PUSH20 0xFFFFFFFFFFFFFFFFFFFFFFFFFFFFFFFFFFFFFFFF AND DUP3 PUSH20 0xFFFFFFFFFFFFFFFFFFFFFFFFFFFFFFFFFFFFFFFF AND EQ ISZERO PUSH2 0x1207 JUMPI PUSH1 0x40 MLOAD PUSH32 0x8C379A000000000000000000000000000000000000000000000000000000000 DUP2 MSTORE PUSH1 0x4 ADD PUSH2 0x11FE SWAP1 PUSH2 0x19FB JUMP JUMPDEST PUSH1 0x40 MLOAD DUP1 SWAP2 SUB SWAP1 REVERT JUMPDEST PUSH2 0x1212 DUP4 DUP4 DUP4 PUSH2 0x13A6 JUMP JUMPDEST PUSH1 0x0 DUP1 PUSH1 0x0 DUP6 PUSH20 0xFFFFFFFFFFFFFFFFFFFFFFFFFFFFFFFFFFFFFFFF AND PUSH20 0xFFFFFFFFFFFFFFFFFFFFFFFFFFFFFFFFFFFFFFFF AND DUP2 MSTORE PUSH1 0x20 ADD SWAP1 DUP2 MSTORE PUSH1 0x20 ADD PUSH1 0x0 KECCAK256 SLOAD SWAP1 POP DUP2 DUP2 LT ISZERO PUSH2 0x1298 JUMPI PUSH1 0x40 MLOAD PUSH32 0x8C379A000000000000000000000000000000000000000000000000000000000 DUP2 MSTORE PUSH1 0x4 ADD PUSH2 0x128F SWAP1 PUSH2 0x1A5B JUMP JUMPDEST PUSH1 0x40 MLOAD DUP1 SWAP2 SUB SWAP1 REVERT JUMPDEST DUP2 DUP2 PUSH2 0x12A4 SWAP2 SWAP1 PUSH2 0x1DC5 JUMP JUMPDEST PUSH1 0x0 DUP1 DUP7 PUSH20 0xFFFFFFFFFFFFFFFFFFFFFFFFFFFFFFFFFFFFFFFF AND PUSH20 0xFFFFFFFFFFFFFFFFFFFFFFFFFFFFFFFFFFFFFFFF AND DUP2 MSTORE PUSH1 0x20 ADD SWAP1 DUP2 MSTORE PUSH1 0x20 ADD PUSH1 0x0 KECCAK256 DUP2 SWAP1 SSTORE POP DUP2 PUSH1 0x0 DUP1 DUP6 PUSH20 0xFFFFFFFFFFFFFFFFFFFFFFFFFFFFFFFFFFFFFFFF AND PUSH20 0xFFFFFFFFFFFFFFFFFFFFFFFFFFFFFFFFFFFFFFFF AND DUP2 MSTORE PUSH1 0x20 ADD SWAP1 DUP2 MSTORE PUSH1 0x20 ADD PUSH1 0x0 KECCAK256 PUSH1 0x0 DUP3 DUP3 SLOAD PUSH2 0x1334 SWAP2 SWAP1 PUSH2 0x1D15 JUMP JUMPDEST SWAP3 POP POP DUP2 SWAP1 SSTORE POP DUP3 PUSH20 0xFFFFFFFFFFFFFFFFFFFFFFFFFFFFFFFFFFFFFFFF AND DUP5 PUSH20 0xFFFFFFFFFFFFFFFFFFFFFFFFFFFFFFFFFFFFFFFF AND PUSH32 0xDDF252AD1BE2C89B69C2B068FC378DAA952BA7F163C4A11628F55A4DF523B3EF DUP5 PUSH1 0x40 MLOAD PUSH2 0x1398 SWAP2 SWAP1 PUSH2 0x1B3B JUMP JUMPDEST PUSH1 0x40 MLOAD DUP1 SWAP2 SUB SWAP1 LOG3 POP POP POP POP JUMP JUMPDEST POP POP POP JUMP JUMPDEST DUP3 DUP1 SLOAD PUSH2 0x13B7 SWAP1 PUSH2 0x1E90 JUMP JUMPDEST SWAP1 PUSH1 0x0 MSTORE PUSH1 0x20 PUSH1 0x0 KECCAK256 SWAP1 PUSH1 0x1F ADD PUSH1 0x20 SWAP1 DIV DUP2 ADD SWAP3 DUP3 PUSH2 0x13D9 JUMPI PUSH1 0x0 DUP6 SSTORE PUSH2 0x1420 JUMP JUMPDEST DUP3 PUSH1 0x1F LT PUSH2 0x13F2 JUMPI DUP1 MLOAD PUSH1 0xFF NOT AND DUP4 DUP1 ADD OR DUP6 SSTORE PUSH2 0x1420 JUMP JUMPDEST DUP3 DUP1 ADD PUSH1 0x1 ADD DUP6 SSTORE DUP3 ISZERO PUSH2 0x1420 JUMPI SWAP2 DUP3 ADD JUMPDEST DUP3 DUP2 GT ISZERO PUSH2 0x141F JUMPI DUP3 MLOAD DUP3 SSTORE SWAP2 PUSH1 0x20 ADD SWAP2 SWAP1 PUSH1 0x1 ADD SWAP1 PUSH2 0x1404 JUMP JUMPDEST JUMPDEST POP SWAP1 POP PUSH2 0x142D SWAP2 SWAP1 PUSH2 0x1431 JUMP JUMPDEST POP SWAP1 JUMP JUMPDEST JUMPDEST DUP1 DUP3 GT ISZERO PUSH2 0x144A JUMPI PUSH1 0x0 DUP2 PUSH1 0x0 SWAP1 SSTORE POP PUSH1 0x1 ADD PUSH2 0x1432 JUMP JUMPDEST POP SWAP1 JUMP JUMPDEST PUSH1 0x0 PUSH2 0x1461 PUSH2 0x145C DUP5 PUSH2 0x1C84 JUMP JUMPDEST PUSH2 0x1C5F JUMP JUMPDEST SWAP1 POP DUP3 DUP2 MSTORE PUSH1 0x20 DUP2 ADD DUP5 DUP5 DUP5 ADD GT ISZERO PUSH2 0x147D JUMPI PUSH2 0x147C PUSH2 0x208B JUMP JUMPDEST JUMPDEST PUSH2 0x1488 DUP5 DUP3 DUP6 PUSH2 0x1E4E JUMP JUMPDEST POP SWAP4 SWAP3 POP POP POP JUMP JUMPDEST PUSH1 0x0 DUP2 CALLDATALOAD SWAP1 POP PUSH2 0x149F DUP2 PUSH2 0x2382 JUMP JUMPDEST SWAP3 SWAP2 POP POP JUMP JUMPDEST PUSH1 0x0 DUP3 PUSH1 0x1F DUP4 ADD SLT PUSH2 0x14BA JUMPI PUSH2 0x14B9 PUSH2 0x2086 JUMP JUMPDEST JUMPDEST DUP2 CALLDATALOAD PUSH2 0x14CA DUP5 DUP3 PUSH1 0x20 DUP7 ADD PUSH2 0x144E JUMP JUMPDEST SWAP2 POP POP SWAP3 SWAP2 POP POP JUMP JUMPDEST PUSH1 0x0 DUP2 CALLDATALOAD SWAP1 POP PUSH2 0x14E2 DUP2 PUSH2 0x2399 JUMP JUMPDEST SWAP3 SWAP2 POP POP JUMP JUMPDEST PUSH1 0x0 PUSH1 0x20 DUP3 DUP5 SUB SLT ISZERO PUSH2 0x14FE JUMPI PUSH2 0x14FD PUSH2 0x2095 JUMP JUMPDEST JUMPDEST PUSH1 0x0 PUSH2 0x150C DUP5 DUP3 DUP6 ADD PUSH2 0x1490 JUMP JUMPDEST SWAP2 POP POP SWAP3 SWAP2 POP POP JUMP JUMPDEST PUSH1 0x0 DUP1 PUSH1 0x40 DUP4 DUP6 SUB SLT ISZERO PUSH2 0x152C JUMPI PUSH2 0x152B PUSH2 0x2095 JUMP JUMPDEST JUMPDEST PUSH1 0x0 PUSH2 0x153A DUP6 DUP3 DUP7 ADD PUSH2 0x1490 JUMP JUMPDEST SWAP3 POP POP PUSH1 0x20 PUSH2 0x154B DUP6 DUP3 DUP7 ADD PUSH2 0x1490 JUMP JUMPDEST SWAP2 POP POP SWAP3 POP SWAP3 SWAP1 POP JUMP JUMPDEST PUSH1 0x0 DUP1 PUSH1 0x0 PUSH1 0x60 DUP5 DUP7 SUB SLT ISZERO PUSH2 0x156E JUMPI PUSH2 0x156D PUSH2 0x2095 JUMP JUMPDEST JUMPDEST PUSH1 0x0 PUSH2 0x157C DUP7 DUP3 DUP8 ADD PUSH2 0x1490 JUMP JUMPDEST SWAP4 POP POP PUSH1 0x20 PUSH2 0x158D DUP7 DUP3 DUP8 ADD PUSH2 0x1490 JUMP JUMPDEST SWAP3 POP POP PUSH1 0x40 PUSH2 0x159E DUP7 DUP3 DUP8 ADD PUSH2 0x14D3 JUMP JUMPDEST SWAP2 POP POP SWAP3 POP SWAP3 POP SWAP3 JUMP JUMPDEST PUSH1 0x0 DUP1 PUSH1 0x40 DUP4 DUP6 SUB SLT ISZERO PUSH2 0x15BF JUMPI PUSH2 0x15BE PUSH2 0x2095 JUMP JUMPDEST JUMPDEST PUSH1 0x0 PUSH2 0x15CD DUP6 DUP3 DUP7 ADD PUSH2 0x1490 JUMP JUMPDEST SWAP3 POP POP PUSH1 0x20 PUSH2 0x15DE DUP6 DUP3 DUP7 ADD PUSH2 0x14D3 JUMP JUMPDEST SWAP2 POP POP SWAP3 POP SWAP3 SWAP1 POP JUMP JUMPDEST PUSH1 0x0 PUSH1 0x20 DUP3 DUP5 SUB SLT ISZERO PUSH2 0x15FE JUMPI PUSH2 0x15FD PUSH2 0x2095 JUMP JUMPDEST JUMPDEST PUSH1 0x0 PUSH2 0x160C DUP5 DUP3 DUP6 ADD PUSH2 0x14D3 JUMP JUMPDEST SWAP2 POP POP SWAP3 SWAP2 POP POP JUMP JUMPDEST PUSH1 0x0 DUP1 PUSH1 0x0 DUP1 PUSH1 0x0 PUSH1 0xA0 DUP7 DUP9 SUB SLT ISZERO PUSH2 0x1631 JUMPI PUSH2 0x1630 PUSH2 0x2095 JUMP JUMPDEST JUMPDEST PUSH1 0x0 PUSH2 0x163F DUP9 DUP3 DUP10 ADD PUSH2 0x14D3 JUMP JUMPDEST SWAP6 POP POP PUSH1 0x20 PUSH2 0x1650 DUP9 DUP3 DUP10 ADD PUSH2 0x14D3 JUMP JUMPDEST SWAP5 POP POP PUSH1 0x40 PUSH2 0x1661 DUP9 DUP3 DUP10 ADD PUSH2 0x14D3 JUMP JUMPDEST SWAP4 POP POP PUSH1 0x60 PUSH2 0x1672 DUP9 DUP3 DUP10 ADD PUSH2 0x1490 JUMP JUMPDEST SWAP3 POP POP PUSH1 0x80 DUP7 ADD CALLDATALOAD PUSH8 0xFFFFFFFFFFFFFFFF DUP2 GT ISZERO PUSH2 0x1693 JUMPI PUSH2 0x1692 PUSH2 0x2090 JUMP JUMPDEST JUMPDEST PUSH2 0x169F DUP9 DUP3 DUP10 ADD PUSH2 0x14A5 JUMP JUMPDEST SWAP2 POP POP SWAP3 SWAP6 POP SWAP3 SWAP6 SWAP1 SWAP4 POP JUMP JUMPDEST PUSH1 0x0 PUSH2 0x16B8 DUP4 DUP4 PUSH2 0x191F JUMP JUMPDEST PUSH1 0x20 DUP4 ADD SWAP1 POP SWAP3 SWAP2 POP POP JUMP JUMPDEST PUSH2 0x16CD DUP2 PUSH2 0x1DF9 JUMP JUMPDEST DUP3 MSTORE POP POP JUMP JUMPDEST PUSH2 0x16E4 PUSH2 0x16DF DUP3 PUSH2 0x1DF9 JUMP JUMPDEST PUSH2 0x1F3C JUMP JUMPDEST DUP3 MSTORE POP POP JUMP JUMPDEST PUSH1 0x0 PUSH2 0x16F5 DUP3 PUSH2 0x1CC5 JUMP JUMPDEST PUSH2 0x16FF DUP2 DUP6 PUSH2 0x1CE8 JUMP JUMPDEST SWAP4 POP PUSH2 0x170A DUP4 PUSH2 0x1CB5 JUMP JUMPDEST DUP1 PUSH1 0x0 JUMPDEST DUP4 DUP2 LT ISZERO PUSH2 0x173B JUMPI DUP2 MLOAD PUSH2 0x1722 DUP9 DUP3 PUSH2 0x16AC JUMP JUMPDEST SWAP8 POP PUSH2 0x172D DUP4 PUSH2 0x1CDB JUMP JUMPDEST SWAP3 POP POP PUSH1 0x1 DUP2 ADD SWAP1 POP PUSH2 0x170E JUMP JUMPDEST POP DUP6 SWAP4 POP POP POP POP SWAP3 SWAP2 POP POP JUMP JUMPDEST PUSH2 0x1751 DUP2 PUSH2 0x1E0B JUMP JUMPDEST DUP3 MSTORE POP POP JUMP JUMPDEST PUSH1 0x0 PUSH2 0x1762 DUP3 PUSH2 0x1CD0 JUMP JUMPDEST PUSH2 0x176C DUP2 DUP6 PUSH2 0x1CF9 JUMP JUMPDEST SWAP4 POP PUSH2 0x177C DUP2 DUP6 PUSH1 0x20 DUP7 ADD PUSH2 0x1E5D JUMP JUMPDEST PUSH2 0x1785 DUP2 PUSH2 0x209A JUMP JUMPDEST DUP5 ADD SWAP2 POP POP SWAP3 SWAP2 POP POP JUMP JUMPDEST PUSH1 0x0 PUSH2 0x179B DUP3 PUSH2 0x1CD0 JUMP JUMPDEST PUSH2 0x17A5 DUP2 DUP6 PUSH2 0x1D0A JUMP JUMPDEST SWAP4 POP PUSH2 0x17B5 DUP2 DUP6 PUSH1 0x20 DUP7 ADD PUSH2 0x1E5D JUMP JUMPDEST DUP1 DUP5 ADD SWAP2 POP POP SWAP3 SWAP2 POP POP JUMP JUMPDEST PUSH1 0x0 PUSH2 0x17CE PUSH1 0x23 DUP4 PUSH2 0x1CF9 JUMP JUMPDEST SWAP2 POP PUSH2 0x17D9 DUP3 PUSH2 0x20B8 JUMP JUMPDEST PUSH1 0x40 DUP3 ADD SWAP1 POP SWAP2 SWAP1 POP JUMP JUMPDEST PUSH1 0x0 PUSH2 0x17F1 PUSH1 0x22 DUP4 PUSH2 0x1CF9 JUMP JUMPDEST SWAP2 POP PUSH2 0x17FC DUP3 PUSH2 0x2107 JUMP JUMPDEST PUSH1 0x40 DUP3 ADD SWAP1 POP SWAP2 SWAP1 POP JUMP JUMPDEST PUSH1 0x0 PUSH2 0x1814 PUSH1 0x14 DUP4 PUSH2 0x1CF9 JUMP JUMPDEST SWAP2 POP PUSH2 0x181F DUP3 PUSH2 0x2156 JUMP JUMPDEST PUSH1 0x20 DUP3 ADD SWAP1 POP SWAP2 SWAP1 POP JUMP JUMPDEST PUSH1 0x0 PUSH2 0x1837 PUSH1 0x26 DUP4 PUSH2 0x1CF9 JUMP JUMPDEST SWAP2 POP PUSH2 0x1842 DUP3 PUSH2 0x217F JUMP JUMPDEST PUSH1 0x40 DUP3 ADD SWAP1 POP SWAP2 SWAP1 POP JUMP JUMPDEST PUSH1 0x0 PUSH2 0x185A PUSH1 0x28 DUP4 PUSH2 0x1CF9 JUMP JUMPDEST SWAP2 POP PUSH2 0x1865 DUP3 PUSH2 0x21CE JUMP JUMPDEST PUSH1 0x40 DUP3 ADD SWAP1 POP SWAP2 SWAP1 POP JUMP JUMPDEST PUSH1 0x0 PUSH2 0x187D PUSH1 0x1B DUP4 PUSH2 0x1CF9 JUMP JUMPDEST SWAP2 POP PUSH2 0x1888 DUP3 PUSH2 0x221D JUMP JUMPDEST PUSH1 0x20 DUP3 ADD SWAP1 POP SWAP2 SWAP1 POP JUMP JUMPDEST PUSH1 0x0 PUSH2 0x18A0 PUSH1 0x25 DUP4 PUSH2 0x1CF9 JUMP JUMPDEST SWAP2 POP PUSH2 0x18AB DUP3 PUSH2 0x2246 JUMP JUMPDEST PUSH1 0x40 DUP3 ADD SWAP1 POP SWAP2 SWAP1 POP JUMP JUMPDEST PUSH1 0x0 PUSH2 0x18C3 PUSH1 0x24 DUP4 PUSH2 0x1CF9 JUMP JUMPDEST SWAP2 POP PUSH2 0x18CE DUP3 PUSH2 0x2295 JUMP JUMPDEST PUSH1 0x40 DUP3 ADD SWAP1 POP SWAP2 SWAP1 POP JUMP JUMPDEST PUSH1 0x0 PUSH2 0x18E6 PUSH1 0x2B DUP4 PUSH2 0x1CF9 JUMP JUMPDEST SWAP2 POP PUSH2 0x18F1 DUP3 PUSH2 0x22E4 JUMP JUMPDEST PUSH1 0x40 DUP3 ADD SWAP1 POP SWAP2 SWAP1 POP JUMP JUMPDEST PUSH1 0x0 PUSH2 0x1909 PUSH1 0x25 DUP4 PUSH2 0x1CF9 JUMP JUMPDEST SWAP2 POP PUSH2 0x1914 DUP3 PUSH2 0x2333 JUMP JUMPDEST PUSH1 0x40 DUP3 ADD SWAP1 POP SWAP2 SWAP1 POP JUMP JUMPDEST PUSH2 0x1928 DUP2 PUSH2 0x1E37 JUMP JUMPDEST DUP3 MSTORE POP POP JUMP JUMPDEST PUSH2 0x1937 DUP2 PUSH2 0x1E37 JUMP JUMPDEST DUP3 MSTORE POP POP JUMP JUMPDEST PUSH2 0x194E PUSH2 0x1949 DUP3 PUSH2 0x1E37 JUMP JUMPDEST PUSH2 0x1F60 JUMP JUMPDEST DUP3 MSTORE POP POP JUMP JUMPDEST PUSH2 0x195D DUP2 PUSH2 0x1E41 JUMP JUMPDEST DUP3 MSTORE POP POP JUMP JUMPDEST PUSH1 0x0 PUSH2 0x196F DUP3 DUP7 PUSH2 0x16D3 JUMP JUMPDEST PUSH1 0x14 DUP3 ADD SWAP2 POP PUSH2 0x197F DUP3 DUP6 PUSH2 0x193D JUMP JUMPDEST PUSH1 0x20 DUP3 ADD SWAP2 POP PUSH2 0x198F DUP3 DUP5 PUSH2 0x1790 JUMP JUMPDEST SWAP2 POP DUP2 SWAP1 POP SWAP5 SWAP4 POP POP POP POP JUMP JUMPDEST PUSH1 0x0 PUSH1 0x20 DUP3 ADD SWAP1 POP DUP2 DUP2 SUB PUSH1 0x0 DUP4 ADD MSTORE PUSH2 0x19B6 DUP2 DUP5 PUSH2 0x16EA JUMP JUMPDEST SWAP1 POP SWAP3 SWAP2 POP POP JUMP JUMPDEST PUSH1 0x0 PUSH1 0x20 DUP3 ADD SWAP1 POP PUSH2 0x19D3 PUSH1 0x0 DUP4 ADD DUP5 PUSH2 0x1748 JUMP JUMPDEST SWAP3 SWAP2 POP POP JUMP JUMPDEST PUSH1 0x0 PUSH1 0x20 DUP3 ADD SWAP1 POP DUP2 DUP2 SUB PUSH1 0x0 DUP4 ADD MSTORE PUSH2 0x19F3 DUP2 DUP5 PUSH2 0x1757 JUMP JUMPDEST SWAP1 POP SWAP3 SWAP2 POP POP JUMP JUMPDEST PUSH1 0x0 PUSH1 0x20 DUP3 ADD SWAP1 POP DUP2 DUP2 SUB PUSH1 0x0 DUP4 ADD MSTORE PUSH2 0x1A14 DUP2 PUSH2 0x17C1 JUMP JUMPDEST SWAP1 POP SWAP2 SWAP1 POP JUMP JUMPDEST PUSH1 0x0 PUSH1 0x20 DUP3 ADD SWAP1 POP DUP2 DUP2 SUB PUSH1 0x0 DUP4 ADD MSTORE PUSH2 0x1A34 DUP2 PUSH2 0x17E4 JUMP JUMPDEST SWAP1 POP SWAP2 SWAP1 POP JUMP JUMPDEST PUSH1 0x0 PUSH1 0x20 DUP3 ADD SWAP1 POP DUP2 DUP2 SUB PUSH1 0x0 DUP4 ADD MSTORE PUSH2 0x1A54 DUP2 PUSH2 0x1807 JUMP JUMPDEST SWAP1 POP SWAP2 SWAP1 POP JUMP JUMPDEST PUSH1 0x0 PUSH1 0x20 DUP3 ADD SWAP1 POP DUP2 DUP2 SUB PUSH1 0x0 DUP4 ADD MSTORE PUSH2 0x1A74 DUP2 PUSH2 0x182A JUMP JUMPDEST SWAP1 POP SWAP2 SWAP1 POP JUMP JUMPDEST PUSH1 0x0 PUSH1 0x20 DUP3 ADD SWAP1 POP DUP2 DUP2 SUB PUSH1 0x0 DUP4 ADD MSTORE PUSH2 0x1A94 DUP2 PUSH2 0x184D JUMP JUMPDEST SWAP1 POP SWAP2 SWAP1 POP JUMP JUMPDEST PUSH1 0x0 PUSH1 0x20 DUP3 ADD SWAP1 POP DUP2 DUP2 SUB PUSH1 0x0 DUP4 ADD MSTORE PUSH2 0x1AB4 DUP2 PUSH2 0x1870 JUMP JUMPDEST SWAP1 POP SWAP2 SWAP1 POP JUMP JUMPDEST PUSH1 0x0 PUSH1 0x20 DUP3 ADD SWAP1 POP DUP2 DUP2 SUB PUSH1 0x0 DUP4 ADD MSTORE PUSH2 0x1AD4 DUP2 PUSH2 0x1893 JUMP JUMPDEST SWAP1 POP SWAP2 SWAP1 POP JUMP JUMPDEST PUSH1 0x0 PUSH1 0x20 DUP3 ADD SWAP1 POP DUP2 DUP2 SUB PUSH1 0x0 DUP4 ADD MSTORE PUSH2 0x1AF4 DUP2 PUSH2 0x18B6 JUMP JUMPDEST SWAP1 POP SWAP2 SWAP1 POP JUMP JUMPDEST PUSH1 0x0 PUSH1 0x20 DUP3 ADD SWAP1 POP DUP2 DUP2 SUB PUSH1 0x0 DUP4 ADD MSTORE PUSH2 0x1B14 DUP2 PUSH2 0x18D9 JUMP JUMPDEST SWAP1 POP SWAP2 SWAP1 POP JUMP JUMPDEST PUSH1 0x0 PUSH1 0x20 DUP3 ADD SWAP1 POP DUP2 DUP2 SUB PUSH1 0x0 DUP4 ADD MSTORE PUSH2 0x1B34 DUP2 PUSH2 0x18FC JUMP JUMPDEST SWAP1 POP SWAP2 SWAP1 POP JUMP JUMPDEST PUSH1 0x0 PUSH1 0x20 DUP3 ADD SWAP1 POP PUSH2 0x1B50 PUSH1 0x0 DUP4 ADD DUP5 PUSH2 0x192E JUMP JUMPDEST SWAP3 SWAP2 POP POP JUMP JUMPDEST PUSH1 0x0 PUSH1 0xA0 DUP3 ADD SWAP1 POP PUSH2 0x1B6B PUSH1 0x0 DUP4 ADD DUP9 PUSH2 0x192E JUMP JUMPDEST PUSH2 0x1B78 PUSH1 0x20 DUP4 ADD DUP8 PUSH2 0x16C4 JUMP JUMPDEST PUSH2 0x1B85 PUSH1 0x40 DUP4 ADD DUP7 PUSH2 0x192E JUMP JUMPDEST PUSH2 0x1B92 PUSH1 0x60 DUP4 ADD DUP6 PUSH2 0x192E JUMP JUMPDEST DUP2 DUP2 SUB PUSH1 0x80 DUP4 ADD MSTORE PUSH2 0x1BA4 DUP2 DUP5 PUSH2 0x1757 JUMP JUMPDEST SWAP1 POP SWAP7 SWAP6 POP POP POP POP POP POP JUMP JUMPDEST PUSH1 0x0 PUSH2 0x120 DUP3 ADD SWAP1 POP PUSH2 0x1BC6 PUSH1 0x0 DUP4 ADD DUP13 PUSH2 0x192E JUMP JUMPDEST PUSH2 0x1BD3 PUSH1 0x20 DUP4 ADD DUP12 PUSH2 0x192E JUMP JUMPDEST PUSH2 0x1BE0 PUSH1 0x40 DUP4 ADD DUP11 PUSH2 0x192E JUMP JUMPDEST PUSH2 0x1BED PUSH1 0x60 DUP4 ADD DUP10 PUSH2 0x192E JUMP JUMPDEST PUSH2 0x1BFA PUSH1 0x80 DUP4 ADD DUP9 PUSH2 0x192E JUMP JUMPDEST PUSH2 0x1C07 PUSH1 0xA0 DUP4 ADD DUP8 PUSH2 0x16C4 JUMP JUMPDEST PUSH2 0x1C14 PUSH1 0xC0 DUP4 ADD DUP7 PUSH2 0x16C4 JUMP JUMPDEST DUP2 DUP2 SUB PUSH1 0xE0 DUP4 ADD MSTORE PUSH2 0x1C26 DUP2 DUP6 PUSH2 0x1757 JUMP JUMPDEST SWAP1 POP PUSH2 0x1C36 PUSH2 0x100 DUP4 ADD DUP5 PUSH2 0x1748 JUMP JUMPDEST SWAP11 SWAP10 POP POP POP POP POP POP POP POP POP POP JUMP JUMPDEST PUSH1 0x0 PUSH1 0x20 DUP3 ADD SWAP1 POP PUSH2 0x1C59 PUSH1 0x0 DUP4 ADD DUP5 PUSH2 0x1954 JUMP JUMPDEST SWAP3 SWAP2 POP POP JUMP JUMPDEST PUSH1 0x0 PUSH2 0x1C69 PUSH2 0x1C7A JUMP JUMPDEST SWAP1 POP PUSH2 0x1C75 DUP3 DUP3 PUSH2 0x1EC2 JUMP JUMPDEST SWAP2 SWAP1 POP JUMP JUMPDEST PUSH1 0x0 PUSH1 0x40 MLOAD SWAP1 POP SWAP1 JUMP JUMPDEST PUSH1 0x0 PUSH8 0xFFFFFFFFFFFFFFFF DUP3 GT ISZERO PUSH2 0x1C9F JUMPI PUSH2 0x1C9E PUSH2 0x2057 JUMP JUMPDEST JUMPDEST PUSH2 0x1CA8 DUP3 PUSH2 0x209A JUMP JUMPDEST SWAP1 POP PUSH1 0x20 DUP2 ADD SWAP1 POP SWAP2 SWAP1 POP JUMP JUMPDEST PUSH1 0x0 DUP2 SWAP1 POP PUSH1 0x20 DUP3 ADD SWAP1 POP SWAP2 SWAP1 POP JUMP JUMPDEST PUSH1 0x0 DUP2 MLOAD SWAP1 POP SWAP2 SWAP1 POP JUMP JUMPDEST PUSH1 0x0 DUP2 MLOAD SWAP1 POP SWAP2 SWAP1 POP JUMP JUMPDEST PUSH1 0x0 PUSH1 0x20 DUP3 ADD SWAP1 POP SWAP2 SWAP1 POP JUMP JUMPDEST PUSH1 0x0 DUP3 DUP3 MSTORE PUSH1 0x20 DUP3 ADD SWAP1 POP SWAP3 SWAP2 POP POP JUMP JUMPDEST PUSH1 0x0 DUP3 DUP3 MSTORE PUSH1 0x20 DUP3 ADD SWAP1 POP SWAP3 SWAP2 POP POP JUMP JUMPDEST PUSH1 0x0 DUP2 SWAP1 POP SWAP3 SWAP2 POP POP JUMP JUMPDEST PUSH1 0x0 PUSH2 0x1D20 DUP3 PUSH2 0x1E37 JUMP JUMPDEST SWAP2 POP PUSH2 0x1D2B DUP4 PUSH2 0x1E37 JUMP JUMPDEST SWAP3 POP DUP3 PUSH32 0xFFFFFFFFFFFFFFFFFFFFFFFFFFFFFFFFFFFFFFFFFFFFFFFFFFFFFFFFFFFFFFFF SUB DUP3 GT ISZERO PUSH2 0x1D60 JUMPI PUSH2 0x1D5F PUSH2 0x1F9B JUMP JUMPDEST JUMPDEST DUP3 DUP3 ADD SWAP1 POP SWAP3 SWAP2 POP POP JUMP JUMPDEST PUSH1 0x0 PUSH2 0x1D76 DUP3 PUSH2 0x1E37 JUMP JUMPDEST SWAP2 POP PUSH2 0x1D81 DUP4 PUSH2 0x1E37 JUMP JUMPDEST SWAP3 POP DUP2 PUSH32 0xFFFFFFFFFFFFFFFFFFFFFFFFFFFFFFFFFFFFFFFFFFFFFFFFFFFFFFFFFFFFFFFF DIV DUP4 GT DUP3 ISZERO ISZERO AND ISZERO PUSH2 0x1DBA JUMPI PUSH2 0x1DB9 PUSH2 0x1F9B JUMP JUMPDEST JUMPDEST DUP3 DUP3 MUL SWAP1 POP SWAP3 SWAP2 POP POP JUMP JUMPDEST PUSH1 0x0 PUSH2 0x1DD0 DUP3 PUSH2 0x1E37 JUMP JUMPDEST SWAP2 POP PUSH2 0x1DDB DUP4 PUSH2 0x1E37 JUMP JUMPDEST SWAP3 POP DUP3 DUP3 LT ISZERO PUSH2 0x1DEE JUMPI PUSH2 0x1DED PUSH2 0x1F9B JUMP JUMPDEST JUMPDEST DUP3 DUP3 SUB SWAP1 POP SWAP3 SWAP2 POP POP JUMP JUMPDEST PUSH1 0x0 PUSH2 0x1E04 DUP3 PUSH2 0x1E17 JUMP JUMPDEST SWAP1 POP SWAP2 SWAP1 POP JUMP JUMPDEST PUSH1 0x0 DUP2 ISZERO ISZERO SWAP1 POP SWAP2 SWAP1 POP JUMP JUMPDEST PUSH1 0x0 PUSH20 0xFFFFFFFFFFFFFFFFFFFFFFFFFFFFFFFFFFFFFFFF DUP3 AND SWAP1 POP SWAP2 SWAP1 POP JUMP JUMPDEST PUSH1 0x0 DUP2 SWAP1 POP SWAP2 SWAP1 POP JUMP JUMPDEST PUSH1 0x0 PUSH1 0xFF DUP3 AND SWAP1 POP SWAP2 SWAP1 POP JUMP JUMPDEST DUP3 DUP2 DUP4 CALLDATACOPY PUSH1 0x0 DUP4 DUP4 ADD MSTORE POP POP POP JUMP JUMPDEST PUSH1 0x0 JUMPDEST DUP4 DUP2 LT ISZERO PUSH2 0x1E7B JUMPI DUP1 DUP3 ADD MLOAD DUP2 DUP5 ADD MSTORE PUSH1 0x20 DUP2 ADD SWAP1 POP PUSH2 0x1E60 JUMP JUMPDEST DUP4 DUP2 GT ISZERO PUSH2 0x1E8A JUMPI PUSH1 0x0 DUP5 DUP5 ADD MSTORE JUMPDEST POP POP POP POP JUMP JUMPDEST PUSH1 0x0 PUSH1 0x2 DUP3 DIV SWAP1 POP PUSH1 0x1 DUP3 AND DUP1 PUSH2 0x1EA8 JUMPI PUSH1 0x7F DUP3 AND SWAP2 POP JUMPDEST PUSH1 0x20 DUP3 LT DUP2 EQ ISZERO PUSH2 0x1EBC JUMPI PUSH2 0x1EBB PUSH2 0x1FF9 JUMP JUMPDEST JUMPDEST POP SWAP2 SWAP1 POP JUMP JUMPDEST PUSH2 0x1ECB DUP3 PUSH2 0x209A JUMP JUMPDEST DUP2 ADD DUP2 DUP2 LT PUSH8 0xFFFFFFFFFFFFFFFF DUP3 GT OR ISZERO PUSH2 0x1EEA JUMPI PUSH2 0x1EE9 PUSH2 0x2057 JUMP JUMPDEST JUMPDEST DUP1 PUSH1 0x40 MSTORE POP POP POP JUMP JUMPDEST PUSH1 0x0 PUSH2 0x1EFE DUP3 PUSH2 0x1E37 JUMP JUMPDEST SWAP2 POP PUSH32 0xFFFFFFFFFFFFFFFFFFFFFFFFFFFFFFFFFFFFFFFFFFFFFFFFFFFFFFFFFFFFFFFF DUP3 EQ ISZERO PUSH2 0x1F31 JUMPI PUSH2 0x1F30 PUSH2 0x1F9B JUMP JUMPDEST JUMPDEST PUSH1 0x1 DUP3 ADD SWAP1 POP SWAP2 SWAP1 POP JUMP JUMPDEST PUSH1 0x0 PUSH2 0x1F47 DUP3 PUSH2 0x1F4E JUMP JUMPDEST SWAP1 POP SWAP2 SWAP1 POP JUMP JUMPDEST PUSH1 0x0 PUSH2 0x1F59 DUP3 PUSH2 0x20AB JUMP JUMPDEST SWAP1 POP SWAP2 SWAP1 POP JUMP JUMPDEST PUSH1 0x0 DUP2 SWAP1 POP SWAP2 SWAP1 POP JUMP JUMPDEST PUSH1 0x0 PUSH2 0x1F75 DUP3 PUSH2 0x1E37 JUMP JUMPDEST SWAP2 POP PUSH2 0x1F80 DUP4 PUSH2 0x1E37 JUMP JUMPDEST SWAP3 POP DUP3 PUSH2 0x1F90 JUMPI PUSH2 0x1F8F PUSH2 0x1FCA JUMP JUMPDEST JUMPDEST DUP3 DUP3 MOD SWAP1 POP SWAP3 SWAP2 POP POP JUMP JUMPDEST PUSH32 0x4E487B7100000000000000000000000000000000000000000000000000000000 PUSH1 0x0 MSTORE PUSH1 0x11 PUSH1 0x4 MSTORE PUSH1 0x24 PUSH1 0x0 REVERT JUMPDEST PUSH32 0x4E487B7100000000000000000000000000000000000000000000000000000000 PUSH1 0x0 MSTORE PUSH1 0x12 PUSH1 0x4 MSTORE PUSH1 0x24 PUSH1 0x0 REVERT JUMPDEST PUSH32 0x4E487B7100000000000000000000000000000000000000000000000000000000 PUSH1 0x0 MSTORE PUSH1 0x22 PUSH1 0x4 MSTORE PUSH1 0x24 PUSH1 0x0 REVERT JUMPDEST PUSH32 0x4E487B7100000000000000000000000000000000000000000000000000000000 PUSH1 0x0 MSTORE PUSH1 0x32 PUSH1 0x4 MSTORE PUSH1 0x24 PUSH1 0x0 REVERT JUMPDEST PUSH32 0x4E487B7100000000000000000000000000000000000000000000000000000000 PUSH1 0x0 MSTORE PUSH1 0x41 PUSH1 0x4 MSTORE PUSH1 0x24 PUSH1 0x0 REVERT JUMPDEST PUSH1 0x0 DUP1 REVERT JUMPDEST PUSH1 0x0 DUP1 REVERT JUMPDEST PUSH1 0x0 DUP1 REVERT JUMPDEST PUSH1 0x0 DUP1 REVERT JUMPDEST PUSH1 0x0 PUSH1 0x1F NOT PUSH1 0x1F DUP4 ADD AND SWAP1 POP SWAP2 SWAP1 POP JUMP JUMPDEST PUSH1 0x0 DUP2 PUSH1 0x60 SHL SWAP1 POP SWAP2 SWAP1 POP JUMP JUMPDEST PUSH32 0x45524332303A207472616E7366657220746F20746865207A65726F2061646472 PUSH1 0x0 DUP3 ADD MSTORE PUSH32 0x6573730000000000000000000000000000000000000000000000000000000000 PUSH1 0x20 DUP3 ADD MSTORE POP JUMP JUMPDEST PUSH32 0x45524332303A20617070726F766520746F20746865207A65726F206164647265 PUSH1 0x0 DUP3 ADD MSTORE PUSH32 0x7373000000000000000000000000000000000000000000000000000000000000 PUSH1 0x20 DUP3 ADD MSTORE POP JUMP JUMPDEST PUSH32 0x76616C75652063616E6E6F74206265206E756C6C000000000000000000000000 PUSH1 0x0 DUP3 ADD MSTORE POP JUMP JUMPDEST PUSH32 0x45524332303A207472616E7366657220616D6F756E7420657863656564732062 PUSH1 0x0 DUP3 ADD MSTORE PUSH32 0x616C616E63650000000000000000000000000000000000000000000000000000 PUSH1 0x20 DUP3 ADD MSTORE POP JUMP JUMPDEST PUSH32 0x45524332303A207472616E7366657220616D6F756E7420657863656564732061 PUSH1 0x0 DUP3 ADD MSTORE PUSH32 0x6C6C6F77616E6365000000000000000000000000000000000000000000000000 PUSH1 0x20 DUP3 ADD MSTORE POP JUMP JUMPDEST PUSH32 0x7468697320686F757365496420616C7265616479206578697374730000000000 PUSH1 0x0 DUP3 ADD MSTORE POP JUMP JUMPDEST PUSH32 0x45524332303A207472616E736665722066726F6D20746865207A65726F206164 PUSH1 0x0 DUP3 ADD MSTORE PUSH32 0x6472657373000000000000000000000000000000000000000000000000000000 PUSH1 0x20 DUP3 ADD MSTORE POP JUMP JUMPDEST PUSH32 0x45524332303A20617070726F76652066726F6D20746865207A65726F20616464 PUSH1 0x0 DUP3 ADD MSTORE PUSH32 0x7265737300000000000000000000000000000000000000000000000000000000 PUSH1 0x20 DUP3 ADD MSTORE POP JUMP JUMPDEST PUSH32 0x596F7520646F206E6F7420686176652061636365737320746F2064656C657465 PUSH1 0x0 DUP3 ADD MSTORE PUSH32 0x207468697320686F757365000000000000000000000000000000000000000000 PUSH1 0x20 DUP3 ADD MSTORE POP JUMP JUMPDEST PUSH32 0x45524332303A2064656372656173656420616C6C6F77616E63652062656C6F77 PUSH1 0x0 DUP3 ADD MSTORE PUSH32 0x207A65726F000000000000000000000000000000000000000000000000000000 PUSH1 0x20 DUP3 ADD MSTORE POP JUMP JUMPDEST PUSH2 0x238B DUP2 PUSH2 0x1DF9 JUMP JUMPDEST DUP2 EQ PUSH2 0x2396 JUMPI PUSH1 0x0 DUP1 REVERT JUMPDEST POP JUMP JUMPDEST PUSH2 0x23A2 DUP2 PUSH2 0x1E37 JUMP JUMPDEST DUP2 EQ PUSH2 0x23AD JUMPI PUSH1 0x0 DUP1 REVERT JUMPDEST POP JUMP INVALID LOG2 PUSH5 0x6970667358 0x22 SLT KECCAK256 SWAP13 SELFBALANCE CALLCODE JUMPDEST 0xC0 DIFFICULTY 0xB3 0x4F PUSH8 0x2C3B565D1148EDD4 0xF ADD CALLDATACOPY 0xBE 0xC4 0xB1 PUSH13 0x2E403F4A61F6CB7464736F6C63 NUMBER STOP ADDMOD SMOD STOP CALLER "
				},
				"gasEstimates": {
					"creation": {
						"codeDepositCost": "1838000",
						"executionCost": "infinite",
						"totalCost": "infinite"
					},
					"external": {
						"allowance(address,address)": "infinite",
						"approve(address,uint256)": "infinite",
						"balanceOf(address)": "2886",
						"decimals()": "410",
						"decreaseAllowance(address,uint256)": "infinite",
						"delistHouse(uint256)": "infinite",
						"getCheapHouseIds(uint256)": "infinite",
						"houses(uint256)": "infinite",
						"increaseAllowance(address,uint256)": "infinite",
						"listHouse(uint256,uint256,uint256,address,string)": "infinite",
						"name()": "infinite",
						"symbol()": "infinite",
						"totalSupply()": "2505",
						"transfer(address,uint256)": "infinite",
						"transferFrom(address,address,uint256)": "infinite"
					},
					"internal": {
						"_generateHouseId(address,uint256,string memory)": "infinite",
						"_ownerCooldown(uint256)": "22125"
					}
				},
				"methodIdentifiers": {
					"allowance(address,address)": "dd62ed3e",
					"approve(address,uint256)": "095ea7b3",
					"balanceOf(address)": "70a08231",
					"decimals()": "313ce567",
					"decreaseAllowance(address,uint256)": "a457c2d7",
					"delistHouse(uint256)": "3c3b0b4a",
					"getCheapHouseIds(uint256)": "c45e1b25",
					"houses(uint256)": "aeda852f",
					"increaseAllowance(address,uint256)": "39509351",
					"listHouse(uint256,uint256,uint256,address,string)": "19161161",
					"name()": "06fdde03",
					"symbol()": "95d89b41",
					"totalSupply()": "18160ddd",
					"transfer(address,uint256)": "a9059cbb",
					"transferFrom(address,address,uint256)": "23b872dd"
				}
			},
			"storageLayout": {
				"storage": [
					{
						"astId": 12,
						"contract": "contract/HouseRegistry.sol:HouseRegistry",
						"label": "_balances",
						"offset": 0,
						"slot": "0",
						"type": "t_mapping(t_address,t_uint256)"
					},
					{
						"astId": 18,
						"contract": "contract/HouseRegistry.sol:HouseRegistry",
						"label": "_allowances",
						"offset": 0,
						"slot": "1",
						"type": "t_mapping(t_address,t_mapping(t_address,t_uint256))"
					},
					{
						"astId": 20,
						"contract": "contract/HouseRegistry.sol:HouseRegistry",
						"label": "_totalSupply",
						"offset": 0,
						"slot": "2",
						"type": "t_uint256"
					},
					{
						"astId": 22,
						"contract": "contract/HouseRegistry.sol:HouseRegistry",
						"label": "_name",
						"offset": 0,
						"slot": "3",
						"type": "t_string_storage"
					},
					{
						"astId": 24,
						"contract": "contract/HouseRegistry.sol:HouseRegistry",
						"label": "_symbol",
						"offset": 0,
						"slot": "4",
						"type": "t_string_storage"
					},
					{
						"astId": 538,
						"contract": "contract/HouseRegistry.sol:HouseRegistry",
						"label": "digits",
						"offset": 0,
						"slot": "5",
						"type": "t_uint256"
					},
					{
						"astId": 543,
						"contract": "contract/HouseRegistry.sol:HouseRegistry",
						"label": "modulus",
						"offset": 0,
						"slot": "6",
						"type": "t_uint256"
					},
					{
						"astId": 546,
						"contract": "contract/HouseRegistry.sol:HouseRegistry",
						"label": "cooldownTime",
						"offset": 0,
						"slot": "7",
						"type": "t_uint256"
					},
					{
						"astId": 549,
						"contract": "contract/HouseRegistry.sol:HouseRegistry",
						"label": "countOfHouses",
						"offset": 0,
						"slot": "8",
						"type": "t_uint256"
					},
					{
						"astId": 551,
						"contract": "contract/HouseRegistry.sol:HouseRegistry",
						"label": "ownerAddCooldown",
						"offset": 0,
						"slot": "9",
						"type": "t_uint256"
					},
					{
						"astId": 597,
						"contract": "contract/HouseRegistry.sol:HouseRegistry",
						"label": "houseIndex",
						"offset": 0,
						"slot": "10",
						"type": "t_array(t_uint256)dyn_storage"
					},
					{
						"astId": 602,
						"contract": "contract/HouseRegistry.sol:HouseRegistry",
						"label": "houses",
						"offset": 0,
						"slot": "11",
						"type": "t_mapping(t_uint256,t_struct(House)570_storage)"
					}
				],
				"types": {
					"t_address": {
						"encoding": "inplace",
						"label": "address",
						"numberOfBytes": "20"
					},
					"t_array(t_uint256)dyn_storage": {
						"base": "t_uint256",
						"encoding": "dynamic_array",
						"label": "uint256[]",
						"numberOfBytes": "32"
					},
					"t_bool": {
						"encoding": "inplace",
						"label": "bool",
						"numberOfBytes": "1"
					},
					"t_mapping(t_address,t_mapping(t_address,t_uint256))": {
						"encoding": "mapping",
						"key": "t_address",
						"label": "mapping(address => mapping(address => uint256))",
						"numberOfBytes": "32",
						"value": "t_mapping(t_address,t_uint256)"
					},
					"t_mapping(t_address,t_uint256)": {
						"encoding": "mapping",
						"key": "t_address",
						"label": "mapping(address => uint256)",
						"numberOfBytes": "32",
						"value": "t_uint256"
					},
					"t_mapping(t_uint256,t_struct(House)570_storage)": {
						"encoding": "mapping",
						"key": "t_uint256",
						"label": "mapping(uint256 => struct HouseRegistry.House)",
						"numberOfBytes": "32",
						"value": "t_struct(House)570_storage"
					},
					"t_string_storage": {
						"encoding": "bytes",
						"label": "string",
						"numberOfBytes": "32"
					},
					"t_struct(House)570_storage": {
						"encoding": "inplace",
						"label": "struct HouseRegistry.House",
						"members": [
							{
								"astId": 553,
								"contract": "contract/HouseRegistry.sol:HouseRegistry",
								"label": "id",
								"offset": 0,
								"slot": "0",
								"type": "t_uint256"
							},
							{
								"astId": 555,
								"contract": "contract/HouseRegistry.sol:HouseRegistry",
								"label": "serialNumber",
								"offset": 0,
								"slot": "1",
								"type": "t_uint256"
							},
							{
								"astId": 557,
								"contract": "contract/HouseRegistry.sol:HouseRegistry",
								"label": "price",
								"offset": 0,
								"slot": "2",
								"type": "t_uint256"
							},
							{
								"astId": 559,
								"contract": "contract/HouseRegistry.sol:HouseRegistry",
								"label": "priceDai",
								"offset": 0,
								"slot": "3",
								"type": "t_uint256"
							},
							{
								"astId": 561,
								"contract": "contract/HouseRegistry.sol:HouseRegistry",
								"label": "area",
								"offset": 0,
								"slot": "4",
								"type": "t_uint256"
							},
							{
								"astId": 563,
								"contract": "contract/HouseRegistry.sol:HouseRegistry",
								"label": "sellerAddress",
								"offset": 0,
								"slot": "5",
								"type": "t_address"
							},
							{
								"astId": 565,
								"contract": "contract/HouseRegistry.sol:HouseRegistry",
								"label": "buyerAddress",
								"offset": 0,
								"slot": "6",
								"type": "t_address"
							},
							{
								"astId": 567,
								"contract": "contract/HouseRegistry.sol:HouseRegistry",
								"label": "houseAddress",
								"offset": 0,
								"slot": "7",
								"type": "t_string_storage"
							},
							{
								"astId": 569,
								"contract": "contract/HouseRegistry.sol:HouseRegistry",
								"label": "isdelistedHouse",
								"offset": 0,
								"slot": "8",
								"type": "t_bool"
							}
						],
						"numberOfBytes": "288"
					},
					"t_uint256": {
						"encoding": "inplace",
						"label": "uint256",
						"numberOfBytes": "32"
					}
				}
			},
			"userdoc": {
				"kind": "user",
				"methods": {},
				"version": 1
			}
		}
	}
}