{
	"contract/HouseRegistryExt.sol": {
		"HouseRegistryExt": {
			"abi": [
				{
					"anonymous": false,
					"inputs": [
						{
							"indexed": false,
							"internalType": "uint256",
							"name": "houseId",
							"type": "uint256"
						},
						{
							"indexed": false,
							"internalType": "address",
							"name": "_sellerAddress",
							"type": "address"
						},
						{
							"indexed": false,
							"internalType": "uint256",
							"name": "price",
							"type": "uint256"
						},
						{
							"indexed": false,
							"internalType": "uint256",
							"name": "priceDai",
							"type": "uint256"
						},
						{
							"indexed": false,
							"internalType": "string",
							"name": "houseAddress",
							"type": "string"
						}
					],
					"name": "AddNewHouse",
					"type": "event"
				},
				{
					"inputs": [
						{
							"internalType": "uint256",
							"name": "_houseId",
							"type": "uint256"
						}
					],
					"name": "buyHouseWithDai",
					"outputs": [],
					"stateMutability": "nonpayable",
					"type": "function"
				},
				{
					"inputs": [
						{
							"internalType": "uint256",
							"name": "_houseId",
							"type": "uint256"
						}
					],
					"name": "buyHouseWithETH",
					"outputs": [],
					"stateMutability": "payable",
					"type": "function"
				},
				{
					"inputs": [
						{
							"internalType": "uint256",
							"name": "houseId",
							"type": "uint256"
						}
					],
					"name": "delistHouse",
					"outputs": [
						{
							"internalType": "string",
							"name": "",
							"type": "string"
						}
					],
					"stateMutability": "nonpayable",
					"type": "function"
				},
				{
					"inputs": [
						{
							"internalType": "uint256",
							"name": "cost",
							"type": "uint256"
						}
					],
					"name": "getCheapHouseIds",
					"outputs": [
						{
							"internalType": "uint256[]",
							"name": "",
							"type": "uint256[]"
						}
					],
					"stateMutability": "view",
					"type": "function"
				},
				{
					"inputs": [
						{
							"internalType": "uint256",
							"name": "",
							"type": "uint256"
						}
					],
					"name": "houses",
					"outputs": [
						{
							"internalType": "uint256",
							"name": "id",
							"type": "uint256"
						},
						{
							"internalType": "uint256",
							"name": "serialNumber",
							"type": "uint256"
						},
						{
							"internalType": "uint256",
							"name": "price",
							"type": "uint256"
						},
						{
							"internalType": "uint256",
							"name": "priceDai",
							"type": "uint256"
						},
						{
							"internalType": "uint256",
							"name": "area",
							"type": "uint256"
						},
						{
							"internalType": "address",
							"name": "sellerAddress",
							"type": "address"
						},
						{
							"internalType": "address",
							"name": "buyerAddress",
							"type": "address"
						},
						{
							"internalType": "string",
							"name": "houseAddress",
							"type": "string"
						},
						{
							"internalType": "bool",
							"name": "isdelistedHouse",
							"type": "bool"
						}
					],
					"stateMutability": "view",
					"type": "function"
				},
				{
					"inputs": [
						{
							"internalType": "uint256",
							"name": "_price",
							"type": "uint256"
						},
						{
							"internalType": "uint256",
							"name": "_priceDai",
							"type": "uint256"
						},
						{
							"internalType": "uint256",
							"name": "_area",
							"type": "uint256"
						},
						{
							"internalType": "address",
							"name": "_sellerAddress",
							"type": "address"
						},
						{
							"internalType": "string",
							"name": "_houseAddress",
							"type": "string"
						}
					],
					"name": "listHouse",
					"outputs": [
						{
							"internalType": "uint256",
							"name": "",
							"type": "uint256"
						}
					],
					"stateMutability": "nonpayable",
					"type": "function"
				},
				{
					"inputs": [
						{
							"internalType": "uint256",
							"name": "_price",
							"type": "uint256"
						},
						{
							"internalType": "uint256",
							"name": "_priceDai",
							"type": "uint256"
						},
						{
							"internalType": "uint256",
							"name": "_area",
							"type": "uint256"
						},
						{
							"internalType": "string",
							"name": "_houseAddress",
							"type": "string"
						}
					],
					"name": "listHouseSimple",
					"outputs": [],
					"stateMutability": "nonpayable",
					"type": "function"
				}
			],
			"devdoc": {
				"kind": "dev",
				"methods": {},
				"version": 1
			},
			"evm": {
				"assembly": "    /* \"contract/HouseRegistryExt.sol\":129:974  contract HouseRegistryExt is HouseRegistry {\r... */\n  mstore(0x40, 0x80)\n    /* \"contract/HouseRegistry.sol\":107:108  5 */\n  0x05\n    /* \"contract/HouseRegistry.sol\":93:108  uint digits = 5 */\n  0x00\n  sstore\n    /* \"contract/HouseRegistry.sol\":135:141  digits */\n  sload(0x00)\n    /* \"contract/HouseRegistry.sol\":129:131  10 */\n  0x0a\n    /* \"contract/HouseRegistry.sol\":129:141  10 ** digits */\n  tag_1\n  swap2\n  swap1\n  tag_2\n  jump\t// in\ntag_1:\n    /* \"contract/HouseRegistry.sol\":114:141  uint modulus = 10 ** digits */\n  0x01\n  sstore\n    /* \"contract/HouseRegistry.sol\":167:173  1 days */\n  0x015180\n    /* \"contract/HouseRegistry.sol\":147:173  uint cooldownTime = 1 days */\n  0x02\n  sstore\n    /* \"contract/HouseRegistry.sol\":200:201  1 */\n  0x01\n    /* \"contract/HouseRegistry.sol\":179:201  uint countOfHouses = 1 */\n  0x03\n  sstore\n    /* \"contract/HouseRegistryExt.sol\":129:974  contract HouseRegistryExt is HouseRegistry {\r... */\n  callvalue\n  dup1\n  iszero\n  tag_3\n  jumpi\n  0x00\n  dup1\n  revert\ntag_3:\n  pop\n  jump(tag_4)\n    /* \"#utility.yul\":7:855   */\ntag_6:\n    /* \"#utility.yul\":68:73   */\n  0x00\n    /* \"#utility.yul\":75:79   */\n  dup1\n    /* \"#utility.yul\":99:105   */\n  dup3\n    /* \"#utility.yul\":90:105   */\n  swap2\n  pop\n    /* \"#utility.yul\":123:128   */\n  dup4\n    /* \"#utility.yul\":114:128   */\n  swap1\n  pop\n    /* \"#utility.yul\":137:849   */\ntag_8:\n    /* \"#utility.yul\":158:159   */\n  0x01\n    /* \"#utility.yul\":148:156   */\n  dup6\n    /* \"#utility.yul\":145:160   */\n  gt\n    /* \"#utility.yul\":137:849   */\n  iszero\n  tag_10\n  jumpi\n    /* \"#utility.yul\":253:257   */\n  dup1\n    /* \"#utility.yul\":248:251   */\n  dup7\n    /* \"#utility.yul\":244:258   */\n  div\n    /* \"#utility.yul\":238:242   */\n  dup2\n    /* \"#utility.yul\":235:259   */\n  gt\n    /* \"#utility.yul\":232:282   */\n  iszero\n  tag_11\n  jumpi\n    /* \"#utility.yul\":262:280   */\n  tag_12\n  tag_13\n  jump\t// in\ntag_12:\n    /* \"#utility.yul\":232:282   */\ntag_11:\n    /* \"#utility.yul\":312:313   */\n  0x01\n    /* \"#utility.yul\":302:310   */\n  dup6\n    /* \"#utility.yul\":298:314   */\n  and\n    /* \"#utility.yul\":295:746   */\n  iszero\n  tag_14\n  jumpi\n    /* \"#utility.yul\":727:731   */\n  dup1\n    /* \"#utility.yul\":720:725   */\n  dup3\n    /* \"#utility.yul\":716:732   */\n  mul\n    /* \"#utility.yul\":707:732   */\n  swap2\n  pop\n    /* \"#utility.yul\":295:746   */\ntag_14:\n    /* \"#utility.yul\":777:781   */\n  dup1\n    /* \"#utility.yul\":771:775   */\n  dup2\n    /* \"#utility.yul\":767:782   */\n  mul\n    /* \"#utility.yul\":759:782   */\n  swap1\n  pop\n    /* \"#utility.yul\":807:839   */\n  tag_15\n    /* \"#utility.yul\":830:838   */\n  dup6\n    /* \"#utility.yul\":807:839   */\n  tag_16\n  jump\t// in\ntag_15:\n    /* \"#utility.yul\":795:839   */\n  swap5\n  pop\n    /* \"#utility.yul\":137:849   */\n  jump(tag_8)\ntag_10:\n    /* \"#utility.yul\":7:855   */\n  swap5\n  pop\n  swap5\n  swap3\n  pop\n  pop\n  pop\n  jump\t// out\n    /* \"#utility.yul\":861:1146   */\ntag_2:\n    /* \"#utility.yul\":921:926   */\n  0x00\n    /* \"#utility.yul\":945:968   */\n  tag_18\n    /* \"#utility.yul\":963:967   */\n  dup3\n    /* \"#utility.yul\":945:968   */\n  tag_19\n  jump\t// in\ntag_18:\n    /* \"#utility.yul\":937:968   */\n  swap2\n  pop\n    /* \"#utility.yul\":989:1016   */\n  tag_20\n    /* \"#utility.yul\":1007:1015   */\n  dup4\n    /* \"#utility.yul\":989:1016   */\n  tag_19\n  jump\t// in\ntag_20:\n    /* \"#utility.yul\":977:1016   */\n  swap3\n  pop\n    /* \"#utility.yul\":1035:1139   */\n  tag_21\n    /* \"#utility.yul\":1072:1138   */\n  0xffffffffffffffffffffffffffffffffffffffffffffffffffffffffffffffff\n    /* \"#utility.yul\":1062:1070   */\n  dup5\n    /* \"#utility.yul\":1056:1060   */\n  dup5\n    /* \"#utility.yul\":1035:1139   */\n  tag_22\n  jump\t// in\ntag_21:\n    /* \"#utility.yul\":1026:1139   */\n  swap1\n  pop\n    /* \"#utility.yul\":861:1146   */\n  swap3\n  swap2\n  pop\n  pop\n  jump\t// out\n    /* \"#utility.yul\":1152:2225   */\ntag_22:\n    /* \"#utility.yul\":1206:1211   */\n  0x00\n    /* \"#utility.yul\":1397:1405   */\n  dup3\n    /* \"#utility.yul\":1387:1427   */\n  tag_24\n  jumpi\n    /* \"#utility.yul\":1418:1419   */\n  0x01\n    /* \"#utility.yul\":1409:1419   */\n  swap1\n  pop\n    /* \"#utility.yul\":1420:1425   */\n  jump(tag_23)\n    /* \"#utility.yul\":1387:1427   */\ntag_24:\n    /* \"#utility.yul\":1446:1450   */\n  dup2\n    /* \"#utility.yul\":1436:1472   */\n  tag_25\n  jumpi\n    /* \"#utility.yul\":1463:1464   */\n  0x00\n    /* \"#utility.yul\":1454:1464   */\n  swap1\n  pop\n    /* \"#utility.yul\":1465:1470   */\n  jump(tag_23)\n    /* \"#utility.yul\":1436:1472   */\ntag_25:\n    /* \"#utility.yul\":1532:1536   */\n  dup2\n    /* \"#utility.yul\":1580:1581   */\n  0x01\n    /* \"#utility.yul\":1575:1602   */\n  dup2\n  eq\n  tag_27\n  jumpi\n    /* \"#utility.yul\":1616:1617   */\n  0x02\n    /* \"#utility.yul\":1611:1802   */\n  dup2\n  eq\n  tag_28\n  jumpi\n    /* \"#utility.yul\":1525:1802   */\n  jump(tag_26)\n    /* \"#utility.yul\":1575:1602   */\ntag_27:\n    /* \"#utility.yul\":1593:1594   */\n  0x01\n    /* \"#utility.yul\":1584:1594   */\n  swap2\n  pop\n    /* \"#utility.yul\":1595:1600   */\n  pop\n  jump(tag_23)\n    /* \"#utility.yul\":1611:1802   */\ntag_28:\n    /* \"#utility.yul\":1656:1659   */\n  0xff\n    /* \"#utility.yul\":1646:1654   */\n  dup5\n    /* \"#utility.yul\":1643:1660   */\n  gt\n    /* \"#utility.yul\":1640:1683   */\n  iszero\n  tag_29\n  jumpi\n    /* \"#utility.yul\":1663:1681   */\n  tag_30\n  tag_13\n  jump\t// in\ntag_30:\n    /* \"#utility.yul\":1640:1683   */\ntag_29:\n    /* \"#utility.yul\":1712:1720   */\n  dup4\n    /* \"#utility.yul\":1709:1710   */\n  0x02\n    /* \"#utility.yul\":1705:1721   */\n  exp\n    /* \"#utility.yul\":1696:1721   */\n  swap2\n  pop\n    /* \"#utility.yul\":1747:1750   */\n  dup5\n    /* \"#utility.yul\":1740:1745   */\n  dup3\n    /* \"#utility.yul\":1737:1751   */\n  gt\n    /* \"#utility.yul\":1734:1774   */\n  iszero\n  tag_31\n  jumpi\n    /* \"#utility.yul\":1754:1772   */\n  tag_32\n  tag_13\n  jump\t// in\ntag_32:\n    /* \"#utility.yul\":1734:1774   */\ntag_31:\n    /* \"#utility.yul\":1787:1792   */\n  pop\n  jump(tag_23)\n    /* \"#utility.yul\":1525:1802   */\ntag_26:\n  pop\n    /* \"#utility.yul\":1911:1913   */\n  0x20\n    /* \"#utility.yul\":1901:1909   */\n  dup4\n    /* \"#utility.yul\":1898:1914   */\n  lt\n    /* \"#utility.yul\":1892:1895   */\n  0x0133\n    /* \"#utility.yul\":1886:1890   */\n  dup4\n    /* \"#utility.yul\":1883:1896   */\n  lt\n    /* \"#utility.yul\":1879:1915   */\n  and\n    /* \"#utility.yul\":1861:1863   */\n  0x4e\n    /* \"#utility.yul\":1851:1859   */\n  dup5\n    /* \"#utility.yul\":1848:1864   */\n  lt\n    /* \"#utility.yul\":1843:1845   */\n  0x0b\n    /* \"#utility.yul\":1837:1841   */\n  dup5\n    /* \"#utility.yul\":1834:1846   */\n  lt\n    /* \"#utility.yul\":1830:1865   */\n  and\n    /* \"#utility.yul\":1814:1925   */\n  or\n    /* \"#utility.yul\":1811:2057   */\n  iszero\n  tag_33\n  jumpi\n    /* \"#utility.yul\":1967:1975   */\n  dup3\n    /* \"#utility.yul\":1961:1965   */\n  dup3\n    /* \"#utility.yul\":1957:1976   */\n  exp\n    /* \"#utility.yul\":1948:1976   */\n  swap1\n  pop\n    /* \"#utility.yul\":2002:2005   */\n  dup4\n    /* \"#utility.yul\":1995:2000   */\n  dup2\n    /* \"#utility.yul\":1992:2006   */\n  gt\n    /* \"#utility.yul\":1989:2029   */\n  iszero\n  tag_34\n  jumpi\n    /* \"#utility.yul\":2009:2027   */\n  tag_35\n  tag_13\n  jump\t// in\ntag_35:\n    /* \"#utility.yul\":1989:2029   */\ntag_34:\n    /* \"#utility.yul\":2042:2047   */\n  jump(tag_23)\n    /* \"#utility.yul\":1811:2057   */\ntag_33:\n    /* \"#utility.yul\":2082:2124   */\n  tag_36\n    /* \"#utility.yul\":2120:2123   */\n  dup5\n    /* \"#utility.yul\":2110:2118   */\n  dup5\n    /* \"#utility.yul\":2104:2108   */\n  dup5\n    /* \"#utility.yul\":2101:2102   */\n  0x01\n    /* \"#utility.yul\":2082:2124   */\n  tag_6\n  jump\t// in\ntag_36:\n    /* \"#utility.yul\":2067:2124   */\n  swap3\n  pop\n  swap1\n  pop\n    /* \"#utility.yul\":2156:2160   */\n  dup2\n    /* \"#utility.yul\":2151:2154   */\n  dup5\n    /* \"#utility.yul\":2147:2161   */\n  div\n    /* \"#utility.yul\":2140:2145   */\n  dup2\n    /* \"#utility.yul\":2137:2162   */\n  gt\n    /* \"#utility.yul\":2134:2185   */\n  iszero\n  tag_37\n  jumpi\n    /* \"#utility.yul\":2165:2183   */\n  tag_38\n  tag_13\n  jump\t// in\ntag_38:\n    /* \"#utility.yul\":2134:2185   */\ntag_37:\n    /* \"#utility.yul\":2214:2218   */\n  dup2\n    /* \"#utility.yul\":2207:2212   */\n  dup2\n    /* \"#utility.yul\":2203:2219   */\n  mul\n    /* \"#utility.yul\":2194:2219   */\n  swap1\n  pop\n    /* \"#utility.yul\":1152:2225   */\ntag_23:\n  swap4\n  swap3\n  pop\n  pop\n  pop\n  jump\t// out\n    /* \"#utility.yul\":2231:2308   */\ntag_19:\n    /* \"#utility.yul\":2268:2275   */\n  0x00\n    /* \"#utility.yul\":2297:2302   */\n  dup2\n    /* \"#utility.yul\":2286:2302   */\n  swap1\n  pop\n    /* \"#utility.yul\":2231:2308   */\n  swap2\n  swap1\n  pop\n  jump\t// out\n    /* \"#utility.yul\":2314:2494   */\ntag_13:\n    /* \"#utility.yul\":2362:2439   */\n  0x4e487b7100000000000000000000000000000000000000000000000000000000\n    /* \"#utility.yul\":2359:2360   */\n  0x00\n    /* \"#utility.yul\":2352:2440   */\n  mstore\n    /* \"#utility.yul\":2459:2463   */\n  0x11\n    /* \"#utility.yul\":2456:2457   */\n  0x04\n    /* \"#utility.yul\":2449:2464   */\n  mstore\n    /* \"#utility.yul\":2483:2487   */\n  0x24\n    /* \"#utility.yul\":2480:2481   */\n  0x00\n    /* \"#utility.yul\":2473:2488   */\n  revert\n    /* \"#utility.yul\":2500:2602   */\ntag_16:\n    /* \"#utility.yul\":2542:2550   */\n  0x00\n    /* \"#utility.yul\":2589:2594   */\n  dup2\n    /* \"#utility.yul\":2586:2587   */\n  0x01\n    /* \"#utility.yul\":2582:2595   */\n  shr\n    /* \"#utility.yul\":2561:2595   */\n  swap1\n  pop\n    /* \"#utility.yul\":2500:2602   */\n  swap2\n  swap1\n  pop\n  jump\t// out\n    /* \"contract/HouseRegistryExt.sol\":129:974  contract HouseRegistryExt is HouseRegistry {\r... */\ntag_4:\n  dataSize(sub_0)\n  dup1\n  dataOffset(sub_0)\n  0x00\n  codecopy\n  0x00\n  return\nstop\n\nsub_0: assembly {\n        /* \"contract/HouseRegistryExt.sol\":129:974  contract HouseRegistryExt is HouseRegistry {\r... */\n      mstore(0x40, 0x80)\n      jumpi(tag_1, lt(calldatasize, 0x04))\n      shr(0xe0, calldataload(0x00))\n      dup1\n      0x4d79658b\n      gt\n      tag_9\n      jumpi\n      dup1\n      0x4d79658b\n      eq\n      tag_5\n      jumpi\n      dup1\n      0xaeda852f\n      eq\n      tag_6\n      jumpi\n      dup1\n      0xc45e1b25\n      eq\n      tag_7\n      jumpi\n      dup1\n      0xfdec9c9f\n      eq\n      tag_8\n      jumpi\n      jump(tag_1)\n    tag_9:\n      dup1\n      0x06e361bd\n      eq\n      tag_2\n      jumpi\n      dup1\n      0x19161161\n      eq\n      tag_3\n      jumpi\n      dup1\n      0x3c3b0b4a\n      eq\n      tag_4\n      jumpi\n    tag_1:\n      0x00\n      dup1\n      revert\n        /* \"contract/HouseRegistryExt.sol\":716:971  function buyHouseWithDai(uint _houseId) external {\r... */\n    tag_2:\n      callvalue\n      dup1\n      iszero\n      tag_10\n      jumpi\n      0x00\n      dup1\n      revert\n    tag_10:\n      pop\n      tag_11\n      0x04\n      dup1\n      calldatasize\n      sub\n      dup2\n      add\n      swap1\n      tag_12\n      swap2\n      swap1\n      tag_13\n      jump\t// in\n    tag_12:\n      tag_14\n      jump\t// in\n    tag_11:\n      stop\n        /* \"contract/HouseRegistry.sol\":919:1643  function listHouse (uint _price, uint _priceDai, uint _area, address _sellerAddress, string memory _houseAddress) public returns (uint) {... */\n    tag_3:\n      callvalue\n      dup1\n      iszero\n      tag_15\n      jumpi\n      0x00\n      dup1\n      revert\n    tag_15:\n      pop\n      tag_16\n      0x04\n      dup1\n      calldatasize\n      sub\n      dup2\n      add\n      swap1\n      tag_17\n      swap2\n      swap1\n      tag_18\n      jump\t// in\n    tag_17:\n      tag_19\n      jump\t// in\n    tag_16:\n      mload(0x40)\n      tag_20\n      swap2\n      swap1\n      tag_21\n      jump\t// in\n    tag_20:\n      mload(0x40)\n      dup1\n      swap2\n      sub\n      swap1\n      return\n        /* \"contract/HouseRegistry.sol\":1649:1918  function delistHouse(uint houseId) public returns (string memory){... */\n    tag_4:\n      callvalue\n      dup1\n      iszero\n      tag_22\n      jumpi\n      0x00\n      dup1\n      revert\n    tag_22:\n      pop\n      tag_23\n      0x04\n      dup1\n      calldatasize\n      sub\n      dup2\n      add\n      swap1\n      tag_24\n      swap2\n      swap1\n      tag_13\n      jump\t// in\n    tag_24:\n      tag_25\n      jump\t// in\n    tag_23:\n      mload(0x40)\n      tag_26\n      swap2\n      swap1\n      tag_27\n      jump\t// in\n    tag_26:\n      mload(0x40)\n      dup1\n      swap2\n      sub\n      swap1\n      return\n        /* \"contract/HouseRegistryExt.sol\":391:708  function buyHouseWithETH(uint _houseId) external payable{\r... */\n    tag_5:\n      tag_28\n      0x04\n      dup1\n      calldatasize\n      sub\n      dup2\n      add\n      swap1\n      tag_29\n      swap2\n      swap1\n      tag_13\n      jump\t// in\n    tag_29:\n      tag_30\n      jump\t// in\n    tag_28:\n      stop\n        /* \"contract/HouseRegistry.sol\":778:814  mapping(uint => House) public houses */\n    tag_6:\n      callvalue\n      dup1\n      iszero\n      tag_31\n      jumpi\n      0x00\n      dup1\n      revert\n    tag_31:\n      pop\n      tag_32\n      0x04\n      dup1\n      calldatasize\n      sub\n      dup2\n      add\n      swap1\n      tag_33\n      swap2\n      swap1\n      tag_13\n      jump\t// in\n    tag_33:\n      tag_34\n      jump\t// in\n    tag_32:\n      mload(0x40)\n      tag_35\n      swap10\n      swap9\n      swap8\n      swap7\n      swap6\n      swap5\n      swap4\n      swap3\n      swap2\n      swap1\n      tag_36\n      jump\t// in\n    tag_35:\n      mload(0x40)\n      dup1\n      swap2\n      sub\n      swap1\n      return\n        /* \"contract/HouseRegistry.sol\":1924:2462  function getCheapHouseIds(uint cost) external view returns (uint[]memory){... */\n    tag_7:\n      callvalue\n      dup1\n      iszero\n      tag_37\n      jumpi\n      0x00\n      dup1\n      revert\n    tag_37:\n      pop\n      tag_38\n      0x04\n      dup1\n      calldatasize\n      sub\n      dup2\n      add\n      swap1\n      tag_39\n      swap2\n      swap1\n      tag_13\n      jump\t// in\n    tag_39:\n      tag_40\n      jump\t// in\n    tag_38:\n      mload(0x40)\n      tag_41\n      swap2\n      swap1\n      tag_42\n      jump\t// in\n    tag_41:\n      mload(0x40)\n      dup1\n      swap2\n      sub\n      swap1\n      return\n        /* \"contract/HouseRegistryExt.sol\":191:385  function listHouseSimple(uint _price, uint _priceDai, uint _area, string memory _houseAddress) public canOwnerAdd{\r... */\n    tag_8:\n      callvalue\n      dup1\n      iszero\n      tag_43\n      jumpi\n      0x00\n      dup1\n      revert\n    tag_43:\n      pop\n      tag_44\n      0x04\n      dup1\n      calldatasize\n      sub\n      dup2\n      add\n      swap1\n      tag_45\n      swap2\n      swap1\n      tag_46\n      jump\t// in\n    tag_45:\n      tag_47\n      jump\t// in\n    tag_44:\n      stop\n        /* \"contract/HouseRegistryExt.sol\":716:971  function buyHouseWithDai(uint _houseId) external {\r... */\n    tag_14:\n        /* \"contract/HouseRegistryExt.sol\":783:825  0x9bF88fAe8CF8BaB76041c1db6467E7b37b977dD7 */\n      0x9bf88fae8cf8bab76041c1db6467e7b37b977dd7\n        /* \"contract/HouseRegistryExt.sol\":776:839  IERC20(0x9bF88fAe8CF8BaB76041c1db6467E7b37b977dD7).transferFrom */\n      0xffffffffffffffffffffffffffffffffffffffff\n      and\n      0x23b872dd\n        /* \"contract/HouseRegistryExt.sol\":840:850  msg.sender */\n      caller\n        /* \"contract/HouseRegistryExt.sol\":852:858  houses */\n      0x06\n        /* \"contract/HouseRegistryExt.sol\":852:868  houses[_houseId] */\n      0x00\n        /* \"contract/HouseRegistryExt.sol\":859:867  _houseId */\n      dup6\n        /* \"contract/HouseRegistryExt.sol\":852:868  houses[_houseId] */\n      dup2\n      mstore\n      0x20\n      add\n      swap1\n      dup2\n      mstore\n      0x20\n      add\n      0x00\n      keccak256\n        /* \"contract/HouseRegistryExt.sol\":852:882  houses[_houseId].sellerAddress */\n      0x05\n      add\n      0x00\n      swap1\n      sload\n      swap1\n      0x0100\n      exp\n      swap1\n      div\n      0xffffffffffffffffffffffffffffffffffffffff\n      and\n        /* \"contract/HouseRegistryExt.sol\":884:890  houses */\n      0x06\n        /* \"contract/HouseRegistryExt.sol\":884:900  houses[_houseId] */\n      0x00\n        /* \"contract/HouseRegistryExt.sol\":891:899  _houseId */\n      dup7\n        /* \"contract/HouseRegistryExt.sol\":884:900  houses[_houseId] */\n      dup2\n      mstore\n      0x20\n      add\n      swap1\n      dup2\n      mstore\n      0x20\n      add\n      0x00\n      keccak256\n        /* \"contract/HouseRegistryExt.sol\":884:909  houses[_houseId].priceDai */\n      0x03\n      add\n      sload\n        /* \"contract/HouseRegistryExt.sol\":776:910  IERC20(0x9bF88fAe8CF8BaB76041c1db6467E7b37b977dD7).transferFrom(msg.sender, houses[_houseId].sellerAddress, houses[_houseId].priceDai) */\n      mload(0x40)\n      dup5\n      0xffffffff\n      and\n      0xe0\n      shl\n      dup2\n      mstore\n      0x04\n      add\n      tag_49\n      swap4\n      swap3\n      swap2\n      swap1\n      tag_50\n      jump\t// in\n    tag_49:\n      0x20\n      mload(0x40)\n      dup1\n      dup4\n      sub\n      dup2\n      0x00\n      dup8\n      dup1\n      extcodesize\n      iszero\n      dup1\n      iszero\n      tag_51\n      jumpi\n      0x00\n      dup1\n      revert\n    tag_51:\n      pop\n      gas\n      call\n      iszero\n      dup1\n      iszero\n      tag_53\n      jumpi\n      returndatasize\n      0x00\n      dup1\n      returndatacopy\n      revert(0x00, returndatasize)\n    tag_53:\n      pop\n      pop\n      pop\n      pop\n      mload(0x40)\n      returndatasize\n      not(0x1f)\n      0x1f\n      dup3\n      add\n      and\n      dup3\n      add\n      dup1\n      0x40\n      mstore\n      pop\n      dup2\n      add\n      swap1\n      tag_54\n      swap2\n      swap1\n      tag_55\n      jump\t// in\n    tag_54:\n      pop\n        /* \"contract/HouseRegistryExt.sol\":953:963  msg.sender */\n      caller\n        /* \"contract/HouseRegistryExt.sol\":921:927  houses */\n      0x06\n        /* \"contract/HouseRegistryExt.sol\":921:937  houses[_houseId] */\n      0x00\n        /* \"contract/HouseRegistryExt.sol\":928:936  _houseId */\n      dup4\n        /* \"contract/HouseRegistryExt.sol\":921:937  houses[_houseId] */\n      dup2\n      mstore\n      0x20\n      add\n      swap1\n      dup2\n      mstore\n      0x20\n      add\n      0x00\n      keccak256\n        /* \"contract/HouseRegistryExt.sol\":921:950  houses[_houseId].buyerAddress */\n      0x06\n      add\n      0x00\n        /* \"contract/HouseRegistryExt.sol\":921:963  houses[_houseId].buyerAddress = msg.sender */\n      0x0100\n      exp\n      dup2\n      sload\n      dup2\n      0xffffffffffffffffffffffffffffffffffffffff\n      mul\n      not\n      and\n      swap1\n      dup4\n      0xffffffffffffffffffffffffffffffffffffffff\n      and\n      mul\n      or\n      swap1\n      sstore\n      pop\n        /* \"contract/HouseRegistryExt.sol\":716:971  function buyHouseWithDai(uint _houseId) external {\r... */\n      pop\n      jump\t// out\n        /* \"contract/HouseRegistry.sol\":919:1643  function listHouse (uint _price, uint _priceDai, uint _area, address _sellerAddress, string memory _houseAddress) public returns (uint) {... */\n    tag_19:\n        /* \"contract/HouseRegistry.sol\":1049:1053  uint */\n      0x00\n        /* \"contract/HouseRegistry.sol\":1090:1091  0 */\n      dup1\n        /* \"contract/HouseRegistry.sol\":1082:1087  _area */\n      dup5\n        /* \"contract/HouseRegistry.sol\":1073:1079  _price */\n      dup8\n        /* \"contract/HouseRegistry.sol\":1073:1087  _price * _area */\n      tag_57\n      swap2\n      swap1\n      tag_58\n      jump\t// in\n    tag_57:\n        /* \"contract/HouseRegistry.sol\":1073:1091  _price * _area > 0 */\n      gt\n        /* \"contract/HouseRegistry.sol\":1065:1116  require(_price * _area > 0, \"value cannot be null\") */\n      tag_59\n      jumpi\n      mload(0x40)\n      0x08c379a000000000000000000000000000000000000000000000000000000000\n      dup2\n      mstore\n      0x04\n      add\n      tag_60\n      swap1\n      tag_61\n      jump\t// in\n    tag_60:\n      mload(0x40)\n      dup1\n      swap2\n      sub\n      swap1\n      revert\n    tag_59:\n        /* \"contract/HouseRegistry.sol\":1126:1138  uint houseId */\n      0x00\n        /* \"contract/HouseRegistry.sol\":1141:1195  _generateHouseId(_sellerAddress, _area, _houseAddress) */\n      tag_62\n        /* \"contract/HouseRegistry.sol\":1158:1172  _sellerAddress */\n      dup5\n        /* \"contract/HouseRegistry.sol\":1174:1179  _area */\n      dup7\n        /* \"contract/HouseRegistry.sol\":1181:1194  _houseAddress */\n      dup6\n        /* \"contract/HouseRegistry.sol\":1141:1157  _generateHouseId */\n      tag_63\n        /* \"contract/HouseRegistry.sol\":1141:1195  _generateHouseId(_sellerAddress, _area, _houseAddress) */\n      jump\t// in\n    tag_62:\n        /* \"contract/HouseRegistry.sol\":1126:1195  uint houseId = _generateHouseId(_sellerAddress, _area, _houseAddress) */\n      swap1\n      pop\n        /* \"contract/HouseRegistry.sol\":1224:1230  houses */\n      0x06\n        /* \"contract/HouseRegistry.sol\":1224:1239  houses[houseId] */\n      0x00\n        /* \"contract/HouseRegistry.sol\":1231:1238  houseId */\n      dup3\n        /* \"contract/HouseRegistry.sol\":1224:1239  houses[houseId] */\n      dup2\n      mstore\n      0x20\n      add\n      swap1\n      dup2\n      mstore\n      0x20\n      add\n      0x00\n      keccak256\n        /* \"contract/HouseRegistry.sol\":1224:1242  houses[houseId].id */\n      0x00\n      add\n      sload\n        /* \"contract/HouseRegistry.sol\":1213:1220  houseId */\n      dup2\n        /* \"contract/HouseRegistry.sol\":1213:1242  houseId != houses[houseId].id */\n      eq\n      iszero\n        /* \"contract/HouseRegistry.sol\":1205:1274  require(houseId != houses[houseId].id, \"this houseId already exists\") */\n      tag_64\n      jumpi\n      mload(0x40)\n      0x08c379a000000000000000000000000000000000000000000000000000000000\n      dup2\n      mstore\n      0x04\n      add\n      tag_65\n      swap1\n      tag_66\n      jump\t// in\n    tag_65:\n      mload(0x40)\n      dup1\n      swap2\n      sub\n      swap1\n      revert\n    tag_64:\n        /* \"contract/HouseRegistry.sol\":1302:1411  House(houseId, countOfHouses, _price, _priceDai, _area, _sellerAddress, _sellerAddress, _houseAddress, false) */\n      mload(0x40)\n      dup1\n      0x0120\n      add\n      0x40\n      mstore\n      dup1\n        /* \"contract/HouseRegistry.sol\":1308:1315  houseId */\n      dup3\n        /* \"contract/HouseRegistry.sol\":1302:1411  House(houseId, countOfHouses, _price, _priceDai, _area, _sellerAddress, _sellerAddress, _houseAddress, false) */\n      dup2\n      mstore\n      0x20\n      add\n        /* \"contract/HouseRegistry.sol\":1317:1330  countOfHouses */\n      sload(0x03)\n        /* \"contract/HouseRegistry.sol\":1302:1411  House(houseId, countOfHouses, _price, _priceDai, _area, _sellerAddress, _sellerAddress, _houseAddress, false) */\n      dup2\n      mstore\n      0x20\n      add\n        /* \"contract/HouseRegistry.sol\":1332:1338  _price */\n      dup9\n        /* \"contract/HouseRegistry.sol\":1302:1411  House(houseId, countOfHouses, _price, _priceDai, _area, _sellerAddress, _sellerAddress, _houseAddress, false) */\n      dup2\n      mstore\n      0x20\n      add\n        /* \"contract/HouseRegistry.sol\":1340:1349  _priceDai */\n      dup8\n        /* \"contract/HouseRegistry.sol\":1302:1411  House(houseId, countOfHouses, _price, _priceDai, _area, _sellerAddress, _sellerAddress, _houseAddress, false) */\n      dup2\n      mstore\n      0x20\n      add\n        /* \"contract/HouseRegistry.sol\":1351:1356  _area */\n      dup7\n        /* \"contract/HouseRegistry.sol\":1302:1411  House(houseId, countOfHouses, _price, _priceDai, _area, _sellerAddress, _sellerAddress, _houseAddress, false) */\n      dup2\n      mstore\n      0x20\n      add\n        /* \"contract/HouseRegistry.sol\":1358:1372  _sellerAddress */\n      dup6\n        /* \"contract/HouseRegistry.sol\":1302:1411  House(houseId, countOfHouses, _price, _priceDai, _area, _sellerAddress, _sellerAddress, _houseAddress, false) */\n      0xffffffffffffffffffffffffffffffffffffffff\n      and\n      dup2\n      mstore\n      0x20\n      add\n        /* \"contract/HouseRegistry.sol\":1374:1388  _sellerAddress */\n      dup6\n        /* \"contract/HouseRegistry.sol\":1302:1411  House(houseId, countOfHouses, _price, _priceDai, _area, _sellerAddress, _sellerAddress, _houseAddress, false) */\n      0xffffffffffffffffffffffffffffffffffffffff\n      and\n      dup2\n      mstore\n      0x20\n      add\n        /* \"contract/HouseRegistry.sol\":1390:1403  _houseAddress */\n      dup5\n        /* \"contract/HouseRegistry.sol\":1302:1411  House(houseId, countOfHouses, _price, _priceDai, _area, _sellerAddress, _sellerAddress, _houseAddress, false) */\n      dup2\n      mstore\n      0x20\n      add\n        /* \"contract/HouseRegistry.sol\":1405:1410  false */\n      0x00\n        /* \"contract/HouseRegistry.sol\":1302:1411  House(houseId, countOfHouses, _price, _priceDai, _area, _sellerAddress, _sellerAddress, _houseAddress, false) */\n      iszero\n      iszero\n      dup2\n      mstore\n      pop\n        /* \"contract/HouseRegistry.sol\":1284:1290  houses */\n      0x06\n        /* \"contract/HouseRegistry.sol\":1284:1299  houses[houseId] */\n      0x00\n        /* \"contract/HouseRegistry.sol\":1291:1298  houseId */\n      dup4\n        /* \"contract/HouseRegistry.sol\":1284:1299  houses[houseId] */\n      dup2\n      mstore\n      0x20\n      add\n      swap1\n      dup2\n      mstore\n      0x20\n      add\n      0x00\n      keccak256\n        /* \"contract/HouseRegistry.sol\":1284:1411  houses[houseId] = House(houseId, countOfHouses, _price, _priceDai, _area, _sellerAddress, _sellerAddress, _houseAddress, false) */\n      0x00\n      dup3\n      add\n      mload\n      dup2\n      0x00\n      add\n      sstore\n      0x20\n      dup3\n      add\n      mload\n      dup2\n      0x01\n      add\n      sstore\n      0x40\n      dup3\n      add\n      mload\n      dup2\n      0x02\n      add\n      sstore\n      0x60\n      dup3\n      add\n      mload\n      dup2\n      0x03\n      add\n      sstore\n      0x80\n      dup3\n      add\n      mload\n      dup2\n      0x04\n      add\n      sstore\n      0xa0\n      dup3\n      add\n      mload\n      dup2\n      0x05\n      add\n      exp(0x0100, 0x00)\n      dup2\n      sload\n      dup2\n      0xffffffffffffffffffffffffffffffffffffffff\n      mul\n      not\n      and\n      swap1\n      dup4\n      0xffffffffffffffffffffffffffffffffffffffff\n      and\n      mul\n      or\n      swap1\n      sstore\n      pop\n      0xc0\n      dup3\n      add\n      mload\n      dup2\n      0x06\n      add\n      exp(0x0100, 0x00)\n      dup2\n      sload\n      dup2\n      0xffffffffffffffffffffffffffffffffffffffff\n      mul\n      not\n      and\n      swap1\n      dup4\n      0xffffffffffffffffffffffffffffffffffffffff\n      and\n      mul\n      or\n      swap1\n      sstore\n      pop\n      0xe0\n      dup3\n      add\n      mload\n      dup2\n      0x07\n      add\n      swap1\n      dup1\n      mload\n      swap1\n      0x20\n      add\n      swap1\n      tag_67\n      swap3\n      swap2\n      swap1\n      tag_68\n      jump\t// in\n    tag_67:\n      pop\n      0x0100\n      dup3\n      add\n      mload\n      dup2\n      0x08\n      add\n      exp(0x0100, 0x00)\n      dup2\n      sload\n      dup2\n      0xff\n      mul\n      not\n      and\n      swap1\n      dup4\n      iszero\n      iszero\n      mul\n      or\n      swap1\n      sstore\n      pop\n      swap1\n      pop\n      pop\n        /* \"contract/HouseRegistry.sol\":1422:1468  _ownerCooldown(block.timestamp + cooldownTime) */\n      tag_69\n        /* \"contract/HouseRegistry.sol\":1455:1467  cooldownTime */\n      sload(0x02)\n        /* \"contract/HouseRegistry.sol\":1437:1452  block.timestamp */\n      timestamp\n        /* \"contract/HouseRegistry.sol\":1437:1467  block.timestamp + cooldownTime */\n      tag_70\n      swap2\n      swap1\n      tag_71\n      jump\t// in\n    tag_70:\n        /* \"contract/HouseRegistry.sol\":1422:1436  _ownerCooldown */\n      tag_72\n        /* \"contract/HouseRegistry.sol\":1422:1468  _ownerCooldown(block.timestamp + cooldownTime) */\n      jump\t// in\n    tag_69:\n        /* \"contract/HouseRegistry.sol\":1478:1488  houseIndex */\n      0x05\n        /* \"contract/HouseRegistry.sol\":1494:1501  houseId */\n      dup2\n        /* \"contract/HouseRegistry.sol\":1478:1502  houseIndex.push(houseId) */\n      swap1\n      dup1\n      0x01\n      dup2\n      sload\n      add\n      dup1\n      dup3\n      sstore\n      dup1\n      swap2\n      pop\n      pop\n      0x01\n      swap1\n      sub\n      swap1\n      0x00\n      mstore\n      keccak256(0x00, 0x20)\n      add\n      0x00\n      swap1\n      swap2\n      swap1\n      swap2\n      swap1\n      swap2\n      pop\n      sstore\n        /* \"contract/HouseRegistry.sol\":1512:1525  countOfHouses */\n      0x03\n      0x00\n        /* \"contract/HouseRegistry.sol\":1512:1527  countOfHouses++ */\n      dup2\n      sload\n      dup1\n      swap3\n      swap2\n      swap1\n      tag_74\n      swap1\n      tag_75\n      jump\t// in\n    tag_74:\n      swap2\n      swap1\n      pop\n      sstore\n      pop\n        /* \"contract/HouseRegistry.sol\":1542:1612  AddNewHouse(houseId, _sellerAddress, _price, _priceDai, _houseAddress) */\n      0x3070c472a527c6fdf9d1d29d3f8de3f74a2de6ef97db5cc15b587188b278951f\n        /* \"contract/HouseRegistry.sol\":1554:1561  houseId */\n      dup2\n        /* \"contract/HouseRegistry.sol\":1563:1577  _sellerAddress */\n      dup6\n        /* \"contract/HouseRegistry.sol\":1579:1585  _price */\n      dup10\n        /* \"contract/HouseRegistry.sol\":1587:1596  _priceDai */\n      dup10\n        /* \"contract/HouseRegistry.sol\":1598:1611  _houseAddress */\n      dup8\n        /* \"contract/HouseRegistry.sol\":1542:1612  AddNewHouse(houseId, _sellerAddress, _price, _priceDai, _houseAddress) */\n      mload(0x40)\n      tag_76\n      swap6\n      swap5\n      swap4\n      swap3\n      swap2\n      swap1\n      tag_77\n      jump\t// in\n    tag_76:\n      mload(0x40)\n      dup1\n      swap2\n      sub\n      swap1\n      log1\n        /* \"contract/HouseRegistry.sol\":1629:1636  houseId */\n      dup1\n        /* \"contract/HouseRegistry.sol\":1622:1636  return houseId */\n      swap2\n      pop\n      pop\n        /* \"contract/HouseRegistry.sol\":919:1643  function listHouse (uint _price, uint _priceDai, uint _area, address _sellerAddress, string memory _houseAddress) public returns (uint) {... */\n      swap6\n      swap5\n      pop\n      pop\n      pop\n      pop\n      pop\n      jump\t// out\n        /* \"contract/HouseRegistry.sol\":1649:1918  function delistHouse(uint houseId) public returns (string memory){... */\n    tag_25:\n        /* \"contract/HouseRegistry.sol\":1700:1713  string memory */\n      0x60\n        /* \"contract/HouseRegistry.sol\":1765:1775  msg.sender */\n      caller\n        /* \"contract/HouseRegistry.sol\":1732:1775  houses[houseId].sellerAddress == msg.sender */\n      0xffffffffffffffffffffffffffffffffffffffff\n      and\n        /* \"contract/HouseRegistry.sol\":1732:1738  houses */\n      0x06\n        /* \"contract/HouseRegistry.sol\":1732:1747  houses[houseId] */\n      0x00\n        /* \"contract/HouseRegistry.sol\":1739:1746  houseId */\n      dup5\n        /* \"contract/HouseRegistry.sol\":1732:1747  houses[houseId] */\n      dup2\n      mstore\n      0x20\n      add\n      swap1\n      dup2\n      mstore\n      0x20\n      add\n      0x00\n      keccak256\n        /* \"contract/HouseRegistry.sol\":1732:1761  houses[houseId].sellerAddress */\n      0x05\n      add\n      0x00\n      swap1\n      sload\n      swap1\n      0x0100\n      exp\n      swap1\n      div\n      0xffffffffffffffffffffffffffffffffffffffff\n      and\n        /* \"contract/HouseRegistry.sol\":1732:1775  houses[houseId].sellerAddress == msg.sender */\n      0xffffffffffffffffffffffffffffffffffffffff\n      and\n      eq\n        /* \"contract/HouseRegistry.sol\":1724:1823  require(houses[houseId].sellerAddress == msg.sender, \"You do not have access to delete this house\") */\n      tag_79\n      jumpi\n      mload(0x40)\n      0x08c379a000000000000000000000000000000000000000000000000000000000\n      dup2\n      mstore\n      0x04\n      add\n      tag_80\n      swap1\n      tag_81\n      jump\t// in\n    tag_80:\n      mload(0x40)\n      dup1\n      swap2\n      sub\n      swap1\n      revert\n    tag_79:\n        /* \"contract/HouseRegistry.sol\":1867:1871  true */\n      0x01\n        /* \"contract/HouseRegistry.sol\":1833:1839  houses */\n      0x06\n        /* \"contract/HouseRegistry.sol\":1833:1848  houses[houseId] */\n      0x00\n        /* \"contract/HouseRegistry.sol\":1840:1847  houseId */\n      dup5\n        /* \"contract/HouseRegistry.sol\":1833:1848  houses[houseId] */\n      dup2\n      mstore\n      0x20\n      add\n      swap1\n      dup2\n      mstore\n      0x20\n      add\n      0x00\n      keccak256\n        /* \"contract/HouseRegistry.sol\":1833:1864  houses[houseId].isdelistedHouse */\n      0x08\n      add\n      0x00\n        /* \"contract/HouseRegistry.sol\":1833:1871  houses[houseId].isdelistedHouse = true */\n      0x0100\n      exp\n      dup2\n      sload\n      dup2\n      0xff\n      mul\n      not\n      and\n      swap1\n      dup4\n      iszero\n      iszero\n      mul\n      or\n      swap1\n      sstore\n      pop\n        /* \"contract/HouseRegistry.sol\":1881:1911  return \"delist was successful\" */\n      mload(0x40)\n      dup1\n      0x40\n      add\n      0x40\n      mstore\n      dup1\n      0x15\n      dup2\n      mstore\n      0x20\n      add\n      0x64656c69737420776173207375636365737366756c0000000000000000000000\n      dup2\n      mstore\n      pop\n      swap1\n      pop\n        /* \"contract/HouseRegistry.sol\":1649:1918  function delistHouse(uint houseId) public returns (string memory){... */\n      swap2\n      swap1\n      pop\n      jump\t// out\n        /* \"contract/HouseRegistryExt.sol\":391:708  function buyHouseWithETH(uint _houseId) external payable{\r... */\n    tag_30:\n        /* \"contract/HouseRegistryExt.sol\":479:485  houses */\n      0x06\n        /* \"contract/HouseRegistryExt.sol\":479:495  houses[_houseId] */\n      0x00\n        /* \"contract/HouseRegistryExt.sol\":486:494  _houseId */\n      dup3\n        /* \"contract/HouseRegistryExt.sol\":479:495  houses[_houseId] */\n      dup2\n      mstore\n      0x20\n      add\n      swap1\n      dup2\n      mstore\n      0x20\n      add\n      0x00\n      keccak256\n        /* \"contract/HouseRegistryExt.sol\":479:501  houses[_houseId].price */\n      0x02\n      add\n      sload\n        /* \"contract/HouseRegistryExt.sol\":466:475  msg.value */\n      callvalue\n        /* \"contract/HouseRegistryExt.sol\":466:501  msg.value >= houses[_houseId].price */\n      lt\n      iszero\n        /* \"contract/HouseRegistryExt.sol\":458:502  require(msg.value >= houses[_houseId].price) */\n      tag_83\n      jumpi\n      0x00\n      dup1\n      revert\n    tag_83:\n        /* \"contract/HouseRegistryExt.sol\":521:531  msg.sender */\n      caller\n        /* \"contract/HouseRegistryExt.sol\":513:541  payable(msg.sender).transfer */\n      0xffffffffffffffffffffffffffffffffffffffff\n      and\n        /* \"contract/HouseRegistryExt.sol\":513:577  payable(msg.sender).transfer(msg.value - houses[_houseId].price) */\n      0x08fc\n        /* \"contract/HouseRegistryExt.sol\":554:560  houses */\n      0x06\n        /* \"contract/HouseRegistryExt.sol\":554:570  houses[_houseId] */\n      0x00\n        /* \"contract/HouseRegistryExt.sol\":561:569  _houseId */\n      dup5\n        /* \"contract/HouseRegistryExt.sol\":554:570  houses[_houseId] */\n      dup2\n      mstore\n      0x20\n      add\n      swap1\n      dup2\n      mstore\n      0x20\n      add\n      0x00\n      keccak256\n        /* \"contract/HouseRegistryExt.sol\":554:576  houses[_houseId].price */\n      0x02\n      add\n      sload\n        /* \"contract/HouseRegistryExt.sol\":542:551  msg.value */\n      callvalue\n        /* \"contract/HouseRegistryExt.sol\":542:576  msg.value - houses[_houseId].price */\n      tag_84\n      swap2\n      swap1\n      tag_85\n      jump\t// in\n    tag_84:\n        /* \"contract/HouseRegistryExt.sol\":513:577  payable(msg.sender).transfer(msg.value - houses[_houseId].price) */\n      swap1\n      dup2\n      iszero\n      mul\n      swap1\n      mload(0x40)\n      0x00\n      mload(0x40)\n      dup1\n      dup4\n      sub\n      dup2\n      dup6\n      dup9\n      dup9\n      call\n      swap4\n      pop\n      pop\n      pop\n      pop\n      iszero\n      dup1\n      iszero\n      tag_87\n      jumpi\n      returndatasize\n      0x00\n      dup1\n      returndatacopy\n      revert(0x00, returndatasize)\n    tag_87:\n      pop\n        /* \"contract/HouseRegistryExt.sol\":620:630  msg.sender */\n      caller\n        /* \"contract/HouseRegistryExt.sol\":588:594  houses */\n      0x06\n        /* \"contract/HouseRegistryExt.sol\":588:604  houses[_houseId] */\n      0x00\n        /* \"contract/HouseRegistryExt.sol\":595:603  _houseId */\n      dup4\n        /* \"contract/HouseRegistryExt.sol\":588:604  houses[_houseId] */\n      dup2\n      mstore\n      0x20\n      add\n      swap1\n      dup2\n      mstore\n      0x20\n      add\n      0x00\n      keccak256\n        /* \"contract/HouseRegistryExt.sol\":588:617  houses[_houseId].buyerAddress */\n      0x06\n      add\n      0x00\n        /* \"contract/HouseRegistryExt.sol\":588:630  houses[_houseId].buyerAddress = msg.sender */\n      0x0100\n      exp\n      dup2\n      sload\n      dup2\n      0xffffffffffffffffffffffffffffffffffffffff\n      mul\n      not\n      and\n      swap1\n      dup4\n      0xffffffffffffffffffffffffffffffffffffffff\n      and\n      mul\n      or\n      swap1\n      sstore\n      pop\n        /* \"contract/HouseRegistryExt.sol\":649:655  houses */\n      0x06\n        /* \"contract/HouseRegistryExt.sol\":649:665  houses[_houseId] */\n      0x00\n        /* \"contract/HouseRegistryExt.sol\":656:664  _houseId */\n      dup3\n        /* \"contract/HouseRegistryExt.sol\":649:665  houses[_houseId] */\n      dup2\n      mstore\n      0x20\n      add\n      swap1\n      dup2\n      mstore\n      0x20\n      add\n      0x00\n      keccak256\n        /* \"contract/HouseRegistryExt.sol\":649:679  houses[_houseId].sellerAddress */\n      0x05\n      add\n      0x00\n      swap1\n      sload\n      swap1\n      0x0100\n      exp\n      swap1\n      div\n      0xffffffffffffffffffffffffffffffffffffffff\n      and\n        /* \"contract/HouseRegistryExt.sol\":641:689  payable(houses[_houseId].sellerAddress).transfer */\n      0xffffffffffffffffffffffffffffffffffffffff\n      and\n        /* \"contract/HouseRegistryExt.sol\":641:700  payable(houses[_houseId].sellerAddress).transfer(msg.value) */\n      0x08fc\n        /* \"contract/HouseRegistryExt.sol\":690:699  msg.value */\n      callvalue\n        /* \"contract/HouseRegistryExt.sol\":641:700  payable(houses[_houseId].sellerAddress).transfer(msg.value) */\n      swap1\n      dup2\n      iszero\n      mul\n      swap1\n      mload(0x40)\n      0x00\n      mload(0x40)\n      dup1\n      dup4\n      sub\n      dup2\n      dup6\n      dup9\n      dup9\n      call\n      swap4\n      pop\n      pop\n      pop\n      pop\n      iszero\n      dup1\n      iszero\n      tag_89\n      jumpi\n      returndatasize\n      0x00\n      dup1\n      returndatacopy\n      revert(0x00, returndatasize)\n    tag_89:\n      pop\n        /* \"contract/HouseRegistryExt.sol\":391:708  function buyHouseWithETH(uint _houseId) external payable{\r... */\n      pop\n      jump\t// out\n        /* \"contract/HouseRegistry.sol\":778:814  mapping(uint => House) public houses */\n    tag_34:\n      mstore(0x20, 0x06)\n      dup1\n      0x00\n      mstore\n      keccak256(0x00, 0x40)\n      0x00\n      swap2\n      pop\n      swap1\n      pop\n      dup1\n      0x00\n      add\n      sload\n      swap1\n      dup1\n      0x01\n      add\n      sload\n      swap1\n      dup1\n      0x02\n      add\n      sload\n      swap1\n      dup1\n      0x03\n      add\n      sload\n      swap1\n      dup1\n      0x04\n      add\n      sload\n      swap1\n      dup1\n      0x05\n      add\n      0x00\n      swap1\n      sload\n      swap1\n      0x0100\n      exp\n      swap1\n      div\n      0xffffffffffffffffffffffffffffffffffffffff\n      and\n      swap1\n      dup1\n      0x06\n      add\n      0x00\n      swap1\n      sload\n      swap1\n      0x0100\n      exp\n      swap1\n      div\n      0xffffffffffffffffffffffffffffffffffffffff\n      and\n      swap1\n      dup1\n      0x07\n      add\n      dup1\n      sload\n      tag_90\n      swap1\n      tag_91\n      jump\t// in\n    tag_90:\n      dup1\n      0x1f\n      add\n      0x20\n      dup1\n      swap2\n      div\n      mul\n      0x20\n      add\n      mload(0x40)\n      swap1\n      dup2\n      add\n      0x40\n      mstore\n      dup1\n      swap3\n      swap2\n      swap1\n      dup2\n      dup2\n      mstore\n      0x20\n      add\n      dup3\n      dup1\n      sload\n      tag_92\n      swap1\n      tag_91\n      jump\t// in\n    tag_92:\n      dup1\n      iszero\n      tag_93\n      jumpi\n      dup1\n      0x1f\n      lt\n      tag_94\n      jumpi\n      0x0100\n      dup1\n      dup4\n      sload\n      div\n      mul\n      dup4\n      mstore\n      swap2\n      0x20\n      add\n      swap2\n      jump(tag_93)\n    tag_94:\n      dup3\n      add\n      swap2\n      swap1\n      0x00\n      mstore\n      keccak256(0x00, 0x20)\n      swap1\n    tag_95:\n      dup2\n      sload\n      dup2\n      mstore\n      swap1\n      0x01\n      add\n      swap1\n      0x20\n      add\n      dup1\n      dup4\n      gt\n      tag_95\n      jumpi\n      dup3\n      swap1\n      sub\n      0x1f\n      and\n      dup3\n      add\n      swap2\n    tag_93:\n      pop\n      pop\n      pop\n      pop\n      pop\n      swap1\n      dup1\n      0x08\n      add\n      0x00\n      swap1\n      sload\n      swap1\n      0x0100\n      exp\n      swap1\n      div\n      0xff\n      and\n      swap1\n      pop\n      dup10\n      jump\t// out\n        /* \"contract/HouseRegistry.sol\":1924:2462  function getCheapHouseIds(uint cost) external view returns (uint[]memory){... */\n    tag_40:\n        /* \"contract/HouseRegistry.sol\":1984:1996  uint[]memory */\n      0x60\n        /* \"contract/HouseRegistry.sol\":2007:2017  uint count */\n      0x00\n        /* \"contract/HouseRegistry.sol\":2035:2041  uint i */\n      dup1\n        /* \"contract/HouseRegistry.sol\":2031:2176  for(uint i = 0; i < houseIndex.length; i++){... */\n    tag_97:\n        /* \"contract/HouseRegistry.sol\":2051:2061  houseIndex */\n      0x05\n        /* \"contract/HouseRegistry.sol\":2051:2068  houseIndex.length */\n      dup1\n      sload\n      swap1\n      pop\n        /* \"contract/HouseRegistry.sol\":2047:2048  i */\n      dup2\n        /* \"contract/HouseRegistry.sol\":2047:2068  i < houseIndex.length */\n      lt\n        /* \"contract/HouseRegistry.sol\":2031:2176  for(uint i = 0; i < houseIndex.length; i++){... */\n      iszero\n      tag_98\n      jumpi\n        /* \"contract/HouseRegistry.sol\":2121:2125  cost */\n      dup4\n        /* \"contract/HouseRegistry.sol\":2091:2097  houses */\n      0x06\n        /* \"contract/HouseRegistry.sol\":2091:2112  houses[houseIndex[i]] */\n      0x00\n        /* \"contract/HouseRegistry.sol\":2098:2108  houseIndex */\n      0x05\n        /* \"contract/HouseRegistry.sol\":2109:2110  i */\n      dup5\n        /* \"contract/HouseRegistry.sol\":2098:2111  houseIndex[i] */\n      dup2\n      sload\n      dup2\n      lt\n      tag_100\n      jumpi\n      tag_101\n      tag_102\n      jump\t// in\n    tag_101:\n    tag_100:\n      swap1\n      0x00\n      mstore\n      keccak256(0x00, 0x20)\n      add\n      sload\n        /* \"contract/HouseRegistry.sol\":2091:2112  houses[houseIndex[i]] */\n      dup2\n      mstore\n      0x20\n      add\n      swap1\n      dup2\n      mstore\n      0x20\n      add\n      0x00\n      keccak256\n        /* \"contract/HouseRegistry.sol\":2091:2118  houses[houseIndex[i]].price */\n      0x02\n      add\n      sload\n        /* \"contract/HouseRegistry.sol\":2091:2125  houses[houseIndex[i]].price < cost */\n      lt\n        /* \"contract/HouseRegistry.sol\":2088:2166  if(houses[houseIndex[i]].price < cost){... */\n      iszero\n      tag_104\n      jumpi\n        /* \"contract/HouseRegistry.sol\":2144:2151  count++ */\n      dup2\n      dup1\n      tag_105\n      swap1\n      tag_75\n      jump\t// in\n    tag_105:\n      swap3\n      pop\n      pop\n        /* \"contract/HouseRegistry.sol\":2088:2166  if(houses[houseIndex[i]].price < cost){... */\n    tag_104:\n        /* \"contract/HouseRegistry.sol\":2070:2073  i++ */\n      dup1\n      dup1\n      tag_106\n      swap1\n      tag_75\n      jump\t// in\n    tag_106:\n      swap2\n      pop\n      pop\n        /* \"contract/HouseRegistry.sol\":2031:2176  for(uint i = 0; i < houseIndex.length; i++){... */\n      jump(tag_97)\n    tag_98:\n      pop\n        /* \"contract/HouseRegistry.sol\":2185:2213  uint[] memory filteredHouses */\n      0x00\n        /* \"contract/HouseRegistry.sol\":2227:2232  count */\n      dup2\n        /* \"contract/HouseRegistry.sol\":2216:2233  new uint[](count) */\n      0xffffffffffffffff\n      dup2\n      gt\n      iszero\n      tag_107\n      jumpi\n      tag_108\n      tag_109\n      jump\t// in\n    tag_108:\n    tag_107:\n      mload(0x40)\n      swap1\n      dup1\n      dup3\n      mstore\n      dup1\n      0x20\n      mul\n      0x20\n      add\n      dup3\n      add\n      0x40\n      mstore\n      dup1\n      iszero\n      tag_110\n      jumpi\n      dup2\n      0x20\n      add\n      0x20\n      dup3\n      mul\n      dup1\n      calldatasize\n      dup4\n      calldatacopy\n      dup1\n      dup3\n      add\n      swap2\n      pop\n      pop\n      swap1\n      pop\n    tag_110:\n      pop\n        /* \"contract/HouseRegistry.sol\":2185:2233  uint[] memory filteredHouses = new uint[](count) */\n      swap1\n      pop\n        /* \"contract/HouseRegistry.sol\":2247:2253  uint i */\n      0x00\n        /* \"contract/HouseRegistry.sol\":2243:2425  for(uint i = 0; i < houseIndex.length; i++){... */\n    tag_111:\n        /* \"contract/HouseRegistry.sol\":2263:2273  houseIndex */\n      0x05\n        /* \"contract/HouseRegistry.sol\":2263:2280  houseIndex.length */\n      dup1\n      sload\n      swap1\n      pop\n        /* \"contract/HouseRegistry.sol\":2259:2260  i */\n      dup2\n        /* \"contract/HouseRegistry.sol\":2259:2280  i < houseIndex.length */\n      lt\n        /* \"contract/HouseRegistry.sol\":2243:2425  for(uint i = 0; i < houseIndex.length; i++){... */\n      iszero\n      tag_112\n      jumpi\n        /* \"contract/HouseRegistry.sol\":2333:2337  cost */\n      dup5\n        /* \"contract/HouseRegistry.sol\":2303:2309  houses */\n      0x06\n        /* \"contract/HouseRegistry.sol\":2303:2324  houses[houseIndex[i]] */\n      0x00\n        /* \"contract/HouseRegistry.sol\":2310:2320  houseIndex */\n      0x05\n        /* \"contract/HouseRegistry.sol\":2321:2322  i */\n      dup5\n        /* \"contract/HouseRegistry.sol\":2310:2323  houseIndex[i] */\n      dup2\n      sload\n      dup2\n      lt\n      tag_114\n      jumpi\n      tag_115\n      tag_102\n      jump\t// in\n    tag_115:\n    tag_114:\n      swap1\n      0x00\n      mstore\n      keccak256(0x00, 0x20)\n      add\n      sload\n        /* \"contract/HouseRegistry.sol\":2303:2324  houses[houseIndex[i]] */\n      dup2\n      mstore\n      0x20\n      add\n      swap1\n      dup2\n      mstore\n      0x20\n      add\n      0x00\n      keccak256\n        /* \"contract/HouseRegistry.sol\":2303:2330  houses[houseIndex[i]].price */\n      0x02\n      add\n      sload\n        /* \"contract/HouseRegistry.sol\":2303:2337  houses[houseIndex[i]].price < cost */\n      lt\n        /* \"contract/HouseRegistry.sol\":2300:2415  if(houses[houseIndex[i]].price < cost){... */\n      iszero\n      tag_117\n      jumpi\n        /* \"contract/HouseRegistry.sol\":2376:2382  houses */\n      0x06\n        /* \"contract/HouseRegistry.sol\":2376:2397  houses[houseIndex[i]] */\n      0x00\n        /* \"contract/HouseRegistry.sol\":2383:2393  houseIndex */\n      0x05\n        /* \"contract/HouseRegistry.sol\":2394:2395  i */\n      dup4\n        /* \"contract/HouseRegistry.sol\":2383:2396  houseIndex[i] */\n      dup2\n      sload\n      dup2\n      lt\n      tag_118\n      jumpi\n      tag_119\n      tag_102\n      jump\t// in\n    tag_119:\n    tag_118:\n      swap1\n      0x00\n      mstore\n      keccak256(0x00, 0x20)\n      add\n      sload\n        /* \"contract/HouseRegistry.sol\":2376:2397  houses[houseIndex[i]] */\n      dup2\n      mstore\n      0x20\n      add\n      swap1\n      dup2\n      mstore\n      0x20\n      add\n      0x00\n      keccak256\n        /* \"contract/HouseRegistry.sol\":2376:2400  houses[houseIndex[i]].id */\n      0x00\n      add\n      sload\n        /* \"contract/HouseRegistry.sol\":2356:2370  filteredHouses */\n      dup3\n        /* \"contract/HouseRegistry.sol\":2371:2372  i */\n      dup3\n        /* \"contract/HouseRegistry.sol\":2356:2373  filteredHouses[i] */\n      dup2\n      mload\n      dup2\n      lt\n      tag_121\n      jumpi\n      tag_122\n      tag_102\n      jump\t// in\n    tag_122:\n    tag_121:\n      0x20\n      mul\n      0x20\n      add\n      add\n        /* \"contract/HouseRegistry.sol\":2356:2400  filteredHouses[i] = houses[houseIndex[i]].id */\n      dup2\n      dup2\n      mstore\n      pop\n      pop\n        /* \"contract/HouseRegistry.sol\":2300:2415  if(houses[houseIndex[i]].price < cost){... */\n    tag_117:\n        /* \"contract/HouseRegistry.sol\":2282:2285  i++ */\n      dup1\n      dup1\n      tag_123\n      swap1\n      tag_75\n      jump\t// in\n    tag_123:\n      swap2\n      pop\n      pop\n        /* \"contract/HouseRegistry.sol\":2243:2425  for(uint i = 0; i < houseIndex.length; i++){... */\n      jump(tag_111)\n    tag_112:\n      pop\n        /* \"contract/HouseRegistry.sol\":2441:2455  filteredHouses */\n      dup1\n        /* \"contract/HouseRegistry.sol\":2434:2455  return filteredHouses */\n      swap3\n      pop\n      pop\n      pop\n        /* \"contract/HouseRegistry.sol\":1924:2462  function getCheapHouseIds(uint cost) external view returns (uint[]memory){... */\n      swap2\n      swap1\n      pop\n      jump\t// out\n        /* \"contract/HouseRegistryExt.sol\":191:385  function listHouseSimple(uint _price, uint _priceDai, uint _area, string memory _houseAddress) public canOwnerAdd{\r... */\n    tag_47:\n        /* \"contract/HouseRegistry.sol\":555:570  block.timestamp */\n      timestamp\n        /* \"contract/HouseRegistry.sol\":535:551  ownerAddCooldown */\n      sload(0x04)\n        /* \"contract/HouseRegistry.sol\":535:570  ownerAddCooldown <= block.timestamp */\n      gt\n      iszero\n        /* \"contract/HouseRegistry.sol\":527:610  require(ownerAddCooldown <= block.timestamp, \"The owner cannot yet add a new home\") */\n      tag_125\n      jumpi\n      mload(0x40)\n      0x08c379a000000000000000000000000000000000000000000000000000000000\n      dup2\n      mstore\n      0x04\n      add\n      tag_126\n      swap1\n      tag_127\n      jump\t// in\n    tag_126:\n      mload(0x40)\n      dup1\n      swap2\n      sub\n      swap1\n      revert\n    tag_125:\n        /* \"contract/HouseRegistryExt.sol\":315:377  listHouse(_price, _priceDai, _area, msg.sender, _houseAddress) */\n      tag_129\n        /* \"contract/HouseRegistryExt.sol\":325:331  _price */\n      dup5\n        /* \"contract/HouseRegistryExt.sol\":333:342  _priceDai */\n      dup5\n        /* \"contract/HouseRegistryExt.sol\":344:349  _area */\n      dup5\n        /* \"contract/HouseRegistryExt.sol\":351:361  msg.sender */\n      caller\n        /* \"contract/HouseRegistryExt.sol\":363:376  _houseAddress */\n      dup6\n        /* \"contract/HouseRegistryExt.sol\":315:324  listHouse */\n      tag_19\n        /* \"contract/HouseRegistryExt.sol\":315:377  listHouse(_price, _priceDai, _area, msg.sender, _houseAddress) */\n      jump\t// in\n    tag_129:\n      pop\n        /* \"contract/HouseRegistryExt.sol\":191:385  function listHouseSimple(uint _price, uint _priceDai, uint _area, string memory _houseAddress) public canOwnerAdd{\r... */\n      pop\n      pop\n      pop\n      pop\n      jump\t// out\n        /* \"contract/HouseRegistry.sol\":2468:2722  function _generateHouseId(address _sellerAddress, uint _area, string memory _houseAddress) private view returns(uint){... */\n    tag_63:\n        /* \"contract/HouseRegistry.sol\":2580:2584  uint */\n      0x00\n        /* \"contract/HouseRegistry.sol\":2595:2607  uint houseId */\n      dup1\n        /* \"contract/HouseRegistry.sol\":2642:2656  _sellerAddress */\n      dup5\n        /* \"contract/HouseRegistry.sol\":2658:2663  _area */\n      dup5\n        /* \"contract/HouseRegistry.sol\":2665:2678  _houseAddress */\n      dup5\n        /* \"contract/HouseRegistry.sol\":2625:2679  abi.encodePacked(_sellerAddress, _area, _houseAddress) */\n      add(0x20, mload(0x40))\n      tag_131\n      swap4\n      swap3\n      swap2\n      swap1\n      tag_132\n      jump\t// in\n    tag_131:\n      mload(0x40)\n      0x20\n      dup2\n      dup4\n      sub\n      sub\n      dup2\n      mstore\n      swap1\n      0x40\n      mstore\n        /* \"contract/HouseRegistry.sol\":2615:2680  keccak256(abi.encodePacked(_sellerAddress, _area, _houseAddress)) */\n      dup1\n      mload\n      swap1\n      0x20\n      add\n      keccak256\n        /* \"contract/HouseRegistry.sol\":2610:2681  uint(keccak256(abi.encodePacked(_sellerAddress, _area, _houseAddress))) */\n      0x00\n      shr\n        /* \"contract/HouseRegistry.sol\":2595:2681  uint houseId = uint(keccak256(abi.encodePacked(_sellerAddress, _area, _houseAddress))) */\n      swap1\n      pop\n        /* \"contract/HouseRegistry.sol\":2708:2715  modulus */\n      sload(0x01)\n        /* \"contract/HouseRegistry.sol\":2698:2705  houseId */\n      dup2\n        /* \"contract/HouseRegistry.sol\":2698:2715  houseId % modulus */\n      tag_133\n      swap2\n      swap1\n      tag_134\n      jump\t// in\n    tag_133:\n        /* \"contract/HouseRegistry.sol\":2691:2715  return houseId % modulus */\n      swap2\n      pop\n      pop\n        /* \"contract/HouseRegistry.sol\":2468:2722  function _generateHouseId(address _sellerAddress, uint _area, string memory _houseAddress) private view returns(uint){... */\n      swap4\n      swap3\n      pop\n      pop\n      pop\n      jump\t// out\n        /* \"contract/HouseRegistry.sol\":821:913  function _ownerCooldown(uint _newTime) internal {... */\n    tag_72:\n        /* \"contract/HouseRegistry.sol\":898:906  _newTime */\n      dup1\n        /* \"contract/HouseRegistry.sol\":879:895  ownerAddCooldown */\n      0x04\n        /* \"contract/HouseRegistry.sol\":879:906  ownerAddCooldown = _newTime */\n      dup2\n      swap1\n      sstore\n      pop\n        /* \"contract/HouseRegistry.sol\":821:913  function _ownerCooldown(uint _newTime) internal {... */\n      pop\n      jump\t// out\n    tag_68:\n      dup3\n      dup1\n      sload\n      tag_136\n      swap1\n      tag_91\n      jump\t// in\n    tag_136:\n      swap1\n      0x00\n      mstore\n      keccak256(0x00, 0x20)\n      swap1\n      0x1f\n      add\n      0x20\n      swap1\n      div\n      dup2\n      add\n      swap3\n      dup3\n      tag_138\n      jumpi\n      0x00\n      dup6\n      sstore\n      jump(tag_137)\n    tag_138:\n      dup3\n      0x1f\n      lt\n      tag_139\n      jumpi\n      dup1\n      mload\n      not(0xff)\n      and\n      dup4\n      dup1\n      add\n      or\n      dup6\n      sstore\n      jump(tag_137)\n    tag_139:\n      dup3\n      dup1\n      add\n      0x01\n      add\n      dup6\n      sstore\n      dup3\n      iszero\n      tag_137\n      jumpi\n      swap2\n      dup3\n      add\n    tag_140:\n      dup3\n      dup2\n      gt\n      iszero\n      tag_141\n      jumpi\n      dup3\n      mload\n      dup3\n      sstore\n      swap2\n      0x20\n      add\n      swap2\n      swap1\n      0x01\n      add\n      swap1\n      jump(tag_140)\n    tag_141:\n    tag_137:\n      pop\n      swap1\n      pop\n      tag_142\n      swap2\n      swap1\n      tag_143\n      jump\t// in\n    tag_142:\n      pop\n      swap1\n      jump\t// out\n    tag_143:\n    tag_144:\n      dup1\n      dup3\n      gt\n      iszero\n      tag_145\n      jumpi\n      0x00\n      dup2\n      0x00\n      swap1\n      sstore\n      pop\n      0x01\n      add\n      jump(tag_144)\n    tag_145:\n      pop\n      swap1\n      jump\t// out\n        /* \"#utility.yul\":7:419   */\n    tag_147:\n        /* \"#utility.yul\":85:90   */\n      0x00\n        /* \"#utility.yul\":110:176   */\n      tag_149\n        /* \"#utility.yul\":126:175   */\n      tag_150\n        /* \"#utility.yul\":168:174   */\n      dup5\n        /* \"#utility.yul\":126:175   */\n      tag_151\n      jump\t// in\n    tag_150:\n        /* \"#utility.yul\":110:176   */\n      tag_152\n      jump\t// in\n    tag_149:\n        /* \"#utility.yul\":101:176   */\n      swap1\n      pop\n        /* \"#utility.yul\":199:205   */\n      dup3\n        /* \"#utility.yul\":192:197   */\n      dup2\n        /* \"#utility.yul\":185:206   */\n      mstore\n        /* \"#utility.yul\":237:241   */\n      0x20\n        /* \"#utility.yul\":230:235   */\n      dup2\n        /* \"#utility.yul\":226:242   */\n      add\n        /* \"#utility.yul\":275:278   */\n      dup5\n        /* \"#utility.yul\":266:272   */\n      dup5\n        /* \"#utility.yul\":261:264   */\n      dup5\n        /* \"#utility.yul\":257:273   */\n      add\n        /* \"#utility.yul\":254:279   */\n      gt\n        /* \"#utility.yul\":251:363   */\n      iszero\n      tag_153\n      jumpi\n        /* \"#utility.yul\":282:361   */\n      tag_154\n      tag_155\n      jump\t// in\n    tag_154:\n        /* \"#utility.yul\":251:363   */\n    tag_153:\n        /* \"#utility.yul\":372:413   */\n      tag_156\n        /* \"#utility.yul\":406:412   */\n      dup5\n        /* \"#utility.yul\":401:404   */\n      dup3\n        /* \"#utility.yul\":396:399   */\n      dup6\n        /* \"#utility.yul\":372:413   */\n      tag_157\n      jump\t// in\n    tag_156:\n        /* \"#utility.yul\":91:419   */\n      pop\n        /* \"#utility.yul\":7:419   */\n      swap4\n      swap3\n      pop\n      pop\n      pop\n      jump\t// out\n        /* \"#utility.yul\":425:564   */\n    tag_158:\n        /* \"#utility.yul\":471:476   */\n      0x00\n        /* \"#utility.yul\":509:515   */\n      dup2\n        /* \"#utility.yul\":496:516   */\n      calldataload\n        /* \"#utility.yul\":487:516   */\n      swap1\n      pop\n        /* \"#utility.yul\":525:558   */\n      tag_160\n        /* \"#utility.yul\":552:557   */\n      dup2\n        /* \"#utility.yul\":525:558   */\n      tag_161\n      jump\t// in\n    tag_160:\n        /* \"#utility.yul\":425:564   */\n      swap3\n      swap2\n      pop\n      pop\n      jump\t// out\n        /* \"#utility.yul\":570:707   */\n    tag_162:\n        /* \"#utility.yul\":624:629   */\n      0x00\n        /* \"#utility.yul\":655:661   */\n      dup2\n        /* \"#utility.yul\":649:662   */\n      mload\n        /* \"#utility.yul\":640:662   */\n      swap1\n      pop\n        /* \"#utility.yul\":671:701   */\n      tag_164\n        /* \"#utility.yul\":695:700   */\n      dup2\n        /* \"#utility.yul\":671:701   */\n      tag_165\n      jump\t// in\n    tag_164:\n        /* \"#utility.yul\":570:707   */\n      swap3\n      swap2\n      pop\n      pop\n      jump\t// out\n        /* \"#utility.yul\":727:1067   */\n    tag_166:\n        /* \"#utility.yul\":783:788   */\n      0x00\n        /* \"#utility.yul\":832:835   */\n      dup3\n        /* \"#utility.yul\":825:829   */\n      0x1f\n        /* \"#utility.yul\":817:823   */\n      dup4\n        /* \"#utility.yul\":813:830   */\n      add\n        /* \"#utility.yul\":809:836   */\n      slt\n        /* \"#utility.yul\":799:921   */\n      tag_168\n      jumpi\n        /* \"#utility.yul\":840:919   */\n      tag_169\n      tag_170\n      jump\t// in\n    tag_169:\n        /* \"#utility.yul\":799:921   */\n    tag_168:\n        /* \"#utility.yul\":957:963   */\n      dup2\n        /* \"#utility.yul\":944:964   */\n      calldataload\n        /* \"#utility.yul\":982:1061   */\n      tag_171\n        /* \"#utility.yul\":1057:1060   */\n      dup5\n        /* \"#utility.yul\":1049:1055   */\n      dup3\n        /* \"#utility.yul\":1042:1046   */\n      0x20\n        /* \"#utility.yul\":1034:1040   */\n      dup7\n        /* \"#utility.yul\":1030:1047   */\n      add\n        /* \"#utility.yul\":982:1061   */\n      tag_147\n      jump\t// in\n    tag_171:\n        /* \"#utility.yul\":973:1061   */\n      swap2\n      pop\n        /* \"#utility.yul\":789:1067   */\n      pop\n        /* \"#utility.yul\":727:1067   */\n      swap3\n      swap2\n      pop\n      pop\n      jump\t// out\n        /* \"#utility.yul\":1073:1212   */\n    tag_172:\n        /* \"#utility.yul\":1119:1124   */\n      0x00\n        /* \"#utility.yul\":1157:1163   */\n      dup2\n        /* \"#utility.yul\":1144:1164   */\n      calldataload\n        /* \"#utility.yul\":1135:1164   */\n      swap1\n      pop\n        /* \"#utility.yul\":1173:1206   */\n      tag_174\n        /* \"#utility.yul\":1200:1205   */\n      dup2\n        /* \"#utility.yul\":1173:1206   */\n      tag_175\n      jump\t// in\n    tag_174:\n        /* \"#utility.yul\":1073:1212   */\n      swap3\n      swap2\n      pop\n      pop\n      jump\t// out\n        /* \"#utility.yul\":1218:1563   */\n    tag_55:\n        /* \"#utility.yul\":1285:1291   */\n      0x00\n        /* \"#utility.yul\":1334:1336   */\n      0x20\n        /* \"#utility.yul\":1322:1331   */\n      dup3\n        /* \"#utility.yul\":1313:1320   */\n      dup5\n        /* \"#utility.yul\":1309:1332   */\n      sub\n        /* \"#utility.yul\":1305:1337   */\n      slt\n        /* \"#utility.yul\":1302:1421   */\n      iszero\n      tag_177\n      jumpi\n        /* \"#utility.yul\":1340:1419   */\n      tag_178\n      tag_179\n      jump\t// in\n    tag_178:\n        /* \"#utility.yul\":1302:1421   */\n    tag_177:\n        /* \"#utility.yul\":1460:1461   */\n      0x00\n        /* \"#utility.yul\":1485:1546   */\n      tag_180\n        /* \"#utility.yul\":1538:1545   */\n      dup5\n        /* \"#utility.yul\":1529:1535   */\n      dup3\n        /* \"#utility.yul\":1518:1527   */\n      dup6\n        /* \"#utility.yul\":1514:1536   */\n      add\n        /* \"#utility.yul\":1485:1546   */\n      tag_162\n      jump\t// in\n    tag_180:\n        /* \"#utility.yul\":1475:1546   */\n      swap2\n      pop\n        /* \"#utility.yul\":1431:1556   */\n      pop\n        /* \"#utility.yul\":1218:1563   */\n      swap3\n      swap2\n      pop\n      pop\n      jump\t// out\n        /* \"#utility.yul\":1569:1898   */\n    tag_13:\n        /* \"#utility.yul\":1628:1634   */\n      0x00\n        /* \"#utility.yul\":1677:1679   */\n      0x20\n        /* \"#utility.yul\":1665:1674   */\n      dup3\n        /* \"#utility.yul\":1656:1663   */\n      dup5\n        /* \"#utility.yul\":1652:1675   */\n      sub\n        /* \"#utility.yul\":1648:1680   */\n      slt\n        /* \"#utility.yul\":1645:1764   */\n      iszero\n      tag_182\n      jumpi\n        /* \"#utility.yul\":1683:1762   */\n      tag_183\n      tag_179\n      jump\t// in\n    tag_183:\n        /* \"#utility.yul\":1645:1764   */\n    tag_182:\n        /* \"#utility.yul\":1803:1804   */\n      0x00\n        /* \"#utility.yul\":1828:1881   */\n      tag_184\n        /* \"#utility.yul\":1873:1880   */\n      dup5\n        /* \"#utility.yul\":1864:1870   */\n      dup3\n        /* \"#utility.yul\":1853:1862   */\n      dup6\n        /* \"#utility.yul\":1849:1871   */\n      add\n        /* \"#utility.yul\":1828:1881   */\n      tag_172\n      jump\t// in\n    tag_184:\n        /* \"#utility.yul\":1818:1881   */\n      swap2\n      pop\n        /* \"#utility.yul\":1774:1891   */\n      pop\n        /* \"#utility.yul\":1569:1898   */\n      swap3\n      swap2\n      pop\n      pop\n      jump\t// out\n        /* \"#utility.yul\":1904:2995   */\n    tag_18:\n        /* \"#utility.yul\":2009:2015   */\n      0x00\n        /* \"#utility.yul\":2017:2023   */\n      dup1\n        /* \"#utility.yul\":2025:2031   */\n      0x00\n        /* \"#utility.yul\":2033:2039   */\n      dup1\n        /* \"#utility.yul\":2041:2047   */\n      0x00\n        /* \"#utility.yul\":2090:2093   */\n      0xa0\n        /* \"#utility.yul\":2078:2087   */\n      dup7\n        /* \"#utility.yul\":2069:2076   */\n      dup9\n        /* \"#utility.yul\":2065:2088   */\n      sub\n        /* \"#utility.yul\":2061:2094   */\n      slt\n        /* \"#utility.yul\":2058:2178   */\n      iszero\n      tag_186\n      jumpi\n        /* \"#utility.yul\":2097:2176   */\n      tag_187\n      tag_179\n      jump\t// in\n    tag_187:\n        /* \"#utility.yul\":2058:2178   */\n    tag_186:\n        /* \"#utility.yul\":2217:2218   */\n      0x00\n        /* \"#utility.yul\":2242:2295   */\n      tag_188\n        /* \"#utility.yul\":2287:2294   */\n      dup9\n        /* \"#utility.yul\":2278:2284   */\n      dup3\n        /* \"#utility.yul\":2267:2276   */\n      dup10\n        /* \"#utility.yul\":2263:2285   */\n      add\n        /* \"#utility.yul\":2242:2295   */\n      tag_172\n      jump\t// in\n    tag_188:\n        /* \"#utility.yul\":2232:2295   */\n      swap6\n      pop\n        /* \"#utility.yul\":2188:2305   */\n      pop\n        /* \"#utility.yul\":2344:2346   */\n      0x20\n        /* \"#utility.yul\":2370:2423   */\n      tag_189\n        /* \"#utility.yul\":2415:2422   */\n      dup9\n        /* \"#utility.yul\":2406:2412   */\n      dup3\n        /* \"#utility.yul\":2395:2404   */\n      dup10\n        /* \"#utility.yul\":2391:2413   */\n      add\n        /* \"#utility.yul\":2370:2423   */\n      tag_172\n      jump\t// in\n    tag_189:\n        /* \"#utility.yul\":2360:2423   */\n      swap5\n      pop\n        /* \"#utility.yul\":2315:2433   */\n      pop\n        /* \"#utility.yul\":2472:2474   */\n      0x40\n        /* \"#utility.yul\":2498:2551   */\n      tag_190\n        /* \"#utility.yul\":2543:2550   */\n      dup9\n        /* \"#utility.yul\":2534:2540   */\n      dup3\n        /* \"#utility.yul\":2523:2532   */\n      dup10\n        /* \"#utility.yul\":2519:2541   */\n      add\n        /* \"#utility.yul\":2498:2551   */\n      tag_172\n      jump\t// in\n    tag_190:\n        /* \"#utility.yul\":2488:2551   */\n      swap4\n      pop\n        /* \"#utility.yul\":2443:2561   */\n      pop\n        /* \"#utility.yul\":2600:2602   */\n      0x60\n        /* \"#utility.yul\":2626:2679   */\n      tag_191\n        /* \"#utility.yul\":2671:2678   */\n      dup9\n        /* \"#utility.yul\":2662:2668   */\n      dup3\n        /* \"#utility.yul\":2651:2660   */\n      dup10\n        /* \"#utility.yul\":2647:2669   */\n      add\n        /* \"#utility.yul\":2626:2679   */\n      tag_158\n      jump\t// in\n    tag_191:\n        /* \"#utility.yul\":2616:2679   */\n      swap3\n      pop\n        /* \"#utility.yul\":2571:2689   */\n      pop\n        /* \"#utility.yul\":2756:2759   */\n      0x80\n        /* \"#utility.yul\":2745:2754   */\n      dup7\n        /* \"#utility.yul\":2741:2760   */\n      add\n        /* \"#utility.yul\":2728:2761   */\n      calldataload\n        /* \"#utility.yul\":2788:2806   */\n      0xffffffffffffffff\n        /* \"#utility.yul\":2780:2786   */\n      dup2\n        /* \"#utility.yul\":2777:2807   */\n      gt\n        /* \"#utility.yul\":2774:2891   */\n      iszero\n      tag_192\n      jumpi\n        /* \"#utility.yul\":2810:2889   */\n      tag_193\n      tag_194\n      jump\t// in\n    tag_193:\n        /* \"#utility.yul\":2774:2891   */\n    tag_192:\n        /* \"#utility.yul\":2915:2978   */\n      tag_195\n        /* \"#utility.yul\":2970:2977   */\n      dup9\n        /* \"#utility.yul\":2961:2967   */\n      dup3\n        /* \"#utility.yul\":2950:2959   */\n      dup10\n        /* \"#utility.yul\":2946:2968   */\n      add\n        /* \"#utility.yul\":2915:2978   */\n      tag_166\n      jump\t// in\n    tag_195:\n        /* \"#utility.yul\":2905:2978   */\n      swap2\n      pop\n        /* \"#utility.yul\":2699:2988   */\n      pop\n        /* \"#utility.yul\":1904:2995   */\n      swap3\n      swap6\n      pop\n      swap3\n      swap6\n      swap1\n      swap4\n      pop\n      jump\t// out\n        /* \"#utility.yul\":3001:3946   */\n    tag_46:\n        /* \"#utility.yul\":3097:3103   */\n      0x00\n        /* \"#utility.yul\":3105:3111   */\n      dup1\n        /* \"#utility.yul\":3113:3119   */\n      0x00\n        /* \"#utility.yul\":3121:3127   */\n      dup1\n        /* \"#utility.yul\":3170:3173   */\n      0x80\n        /* \"#utility.yul\":3158:3167   */\n      dup6\n        /* \"#utility.yul\":3149:3156   */\n      dup8\n        /* \"#utility.yul\":3145:3168   */\n      sub\n        /* \"#utility.yul\":3141:3174   */\n      slt\n        /* \"#utility.yul\":3138:3258   */\n      iszero\n      tag_197\n      jumpi\n        /* \"#utility.yul\":3177:3256   */\n      tag_198\n      tag_179\n      jump\t// in\n    tag_198:\n        /* \"#utility.yul\":3138:3258   */\n    tag_197:\n        /* \"#utility.yul\":3297:3298   */\n      0x00\n        /* \"#utility.yul\":3322:3375   */\n      tag_199\n        /* \"#utility.yul\":3367:3374   */\n      dup8\n        /* \"#utility.yul\":3358:3364   */\n      dup3\n        /* \"#utility.yul\":3347:3356   */\n      dup9\n        /* \"#utility.yul\":3343:3365   */\n      add\n        /* \"#utility.yul\":3322:3375   */\n      tag_172\n      jump\t// in\n    tag_199:\n        /* \"#utility.yul\":3312:3375   */\n      swap5\n      pop\n        /* \"#utility.yul\":3268:3385   */\n      pop\n        /* \"#utility.yul\":3424:3426   */\n      0x20\n        /* \"#utility.yul\":3450:3503   */\n      tag_200\n        /* \"#utility.yul\":3495:3502   */\n      dup8\n        /* \"#utility.yul\":3486:3492   */\n      dup3\n        /* \"#utility.yul\":3475:3484   */\n      dup9\n        /* \"#utility.yul\":3471:3493   */\n      add\n        /* \"#utility.yul\":3450:3503   */\n      tag_172\n      jump\t// in\n    tag_200:\n        /* \"#utility.yul\":3440:3503   */\n      swap4\n      pop\n        /* \"#utility.yul\":3395:3513   */\n      pop\n        /* \"#utility.yul\":3552:3554   */\n      0x40\n        /* \"#utility.yul\":3578:3631   */\n      tag_201\n        /* \"#utility.yul\":3623:3630   */\n      dup8\n        /* \"#utility.yul\":3614:3620   */\n      dup3\n        /* \"#utility.yul\":3603:3612   */\n      dup9\n        /* \"#utility.yul\":3599:3621   */\n      add\n        /* \"#utility.yul\":3578:3631   */\n      tag_172\n      jump\t// in\n    tag_201:\n        /* \"#utility.yul\":3568:3631   */\n      swap3\n      pop\n        /* \"#utility.yul\":3523:3641   */\n      pop\n        /* \"#utility.yul\":3708:3710   */\n      0x60\n        /* \"#utility.yul\":3697:3706   */\n      dup6\n        /* \"#utility.yul\":3693:3711   */\n      add\n        /* \"#utility.yul\":3680:3712   */\n      calldataload\n        /* \"#utility.yul\":3739:3757   */\n      0xffffffffffffffff\n        /* \"#utility.yul\":3731:3737   */\n      dup2\n        /* \"#utility.yul\":3728:3758   */\n      gt\n        /* \"#utility.yul\":3725:3842   */\n      iszero\n      tag_202\n      jumpi\n        /* \"#utility.yul\":3761:3840   */\n      tag_203\n      tag_194\n      jump\t// in\n    tag_203:\n        /* \"#utility.yul\":3725:3842   */\n    tag_202:\n        /* \"#utility.yul\":3866:3929   */\n      tag_204\n        /* \"#utility.yul\":3921:3928   */\n      dup8\n        /* \"#utility.yul\":3912:3918   */\n      dup3\n        /* \"#utility.yul\":3901:3910   */\n      dup9\n        /* \"#utility.yul\":3897:3919   */\n      add\n        /* \"#utility.yul\":3866:3929   */\n      tag_166\n      jump\t// in\n    tag_204:\n        /* \"#utility.yul\":3856:3929   */\n      swap2\n      pop\n        /* \"#utility.yul\":3651:3939   */\n      pop\n        /* \"#utility.yul\":3001:3946   */\n      swap3\n      swap6\n      swap2\n      swap5\n      pop\n      swap3\n      pop\n      jump\t// out\n        /* \"#utility.yul\":3952:4131   */\n    tag_205:\n        /* \"#utility.yul\":4021:4031   */\n      0x00\n        /* \"#utility.yul\":4042:4088   */\n      tag_207\n        /* \"#utility.yul\":4084:4087   */\n      dup4\n        /* \"#utility.yul\":4076:4082   */\n      dup4\n        /* \"#utility.yul\":4042:4088   */\n      tag_208\n      jump\t// in\n    tag_207:\n        /* \"#utility.yul\":4120:4124   */\n      0x20\n        /* \"#utility.yul\":4115:4118   */\n      dup4\n        /* \"#utility.yul\":4111:4125   */\n      add\n        /* \"#utility.yul\":4097:4125   */\n      swap1\n      pop\n        /* \"#utility.yul\":3952:4131   */\n      swap3\n      swap2\n      pop\n      pop\n      jump\t// out\n        /* \"#utility.yul\":4137:4255   */\n    tag_209:\n        /* \"#utility.yul\":4224:4248   */\n      tag_211\n        /* \"#utility.yul\":4242:4247   */\n      dup2\n        /* \"#utility.yul\":4224:4248   */\n      tag_212\n      jump\t// in\n    tag_211:\n        /* \"#utility.yul\":4219:4222   */\n      dup3\n        /* \"#utility.yul\":4212:4249   */\n      mstore\n        /* \"#utility.yul\":4137:4255   */\n      pop\n      pop\n      jump\t// out\n        /* \"#utility.yul\":4261:4418   */\n    tag_213:\n        /* \"#utility.yul\":4366:4411   */\n      tag_215\n        /* \"#utility.yul\":4386:4410   */\n      tag_216\n        /* \"#utility.yul\":4404:4409   */\n      dup3\n        /* \"#utility.yul\":4386:4410   */\n      tag_212\n      jump\t// in\n    tag_216:\n        /* \"#utility.yul\":4366:4411   */\n      tag_217\n      jump\t// in\n    tag_215:\n        /* \"#utility.yul\":4361:4364   */\n      dup3\n        /* \"#utility.yul\":4354:4412   */\n      mstore\n        /* \"#utility.yul\":4261:4418   */\n      pop\n      pop\n      jump\t// out\n        /* \"#utility.yul\":4454:5186   */\n    tag_218:\n        /* \"#utility.yul\":4573:4576   */\n      0x00\n        /* \"#utility.yul\":4602:4656   */\n      tag_220\n        /* \"#utility.yul\":4650:4655   */\n      dup3\n        /* \"#utility.yul\":4602:4656   */\n      tag_221\n      jump\t// in\n    tag_220:\n        /* \"#utility.yul\":4672:4758   */\n      tag_222\n        /* \"#utility.yul\":4751:4757   */\n      dup2\n        /* \"#utility.yul\":4746:4749   */\n      dup6\n        /* \"#utility.yul\":4672:4758   */\n      tag_223\n      jump\t// in\n    tag_222:\n        /* \"#utility.yul\":4665:4758   */\n      swap4\n      pop\n        /* \"#utility.yul\":4782:4838   */\n      tag_224\n        /* \"#utility.yul\":4832:4837   */\n      dup4\n        /* \"#utility.yul\":4782:4838   */\n      tag_225\n      jump\t// in\n    tag_224:\n        /* \"#utility.yul\":4861:4868   */\n      dup1\n        /* \"#utility.yul\":4892:4893   */\n      0x00\n        /* \"#utility.yul\":4877:5161   */\n    tag_226:\n        /* \"#utility.yul\":4902:4908   */\n      dup4\n        /* \"#utility.yul\":4899:4900   */\n      dup2\n        /* \"#utility.yul\":4896:4909   */\n      lt\n        /* \"#utility.yul\":4877:5161   */\n      iszero\n      tag_228\n      jumpi\n        /* \"#utility.yul\":4978:4984   */\n      dup2\n        /* \"#utility.yul\":4972:4985   */\n      mload\n        /* \"#utility.yul\":5005:5068   */\n      tag_229\n        /* \"#utility.yul\":5064:5067   */\n      dup9\n        /* \"#utility.yul\":5049:5062   */\n      dup3\n        /* \"#utility.yul\":5005:5068   */\n      tag_205\n      jump\t// in\n    tag_229:\n        /* \"#utility.yul\":4998:5068   */\n      swap8\n      pop\n        /* \"#utility.yul\":5091:5151   */\n      tag_230\n        /* \"#utility.yul\":5144:5150   */\n      dup4\n        /* \"#utility.yul\":5091:5151   */\n      tag_231\n      jump\t// in\n    tag_230:\n        /* \"#utility.yul\":5081:5151   */\n      swap3\n      pop\n        /* \"#utility.yul\":4937:5161   */\n      pop\n        /* \"#utility.yul\":4924:4925   */\n      0x01\n        /* \"#utility.yul\":4921:4922   */\n      dup2\n        /* \"#utility.yul\":4917:4926   */\n      add\n        /* \"#utility.yul\":4912:4926   */\n      swap1\n      pop\n        /* \"#utility.yul\":4877:5161   */\n      jump(tag_226)\n    tag_228:\n        /* \"#utility.yul\":4881:4895   */\n      pop\n        /* \"#utility.yul\":5177:5180   */\n      dup6\n        /* \"#utility.yul\":5170:5180   */\n      swap4\n      pop\n        /* \"#utility.yul\":4578:5186   */\n      pop\n      pop\n      pop\n        /* \"#utility.yul\":4454:5186   */\n      swap3\n      swap2\n      pop\n      pop\n      jump\t// out\n        /* \"#utility.yul\":5192:5301   */\n    tag_232:\n        /* \"#utility.yul\":5273:5294   */\n      tag_234\n        /* \"#utility.yul\":5288:5293   */\n      dup2\n        /* \"#utility.yul\":5273:5294   */\n      tag_235\n      jump\t// in\n    tag_234:\n        /* \"#utility.yul\":5268:5271   */\n      dup3\n        /* \"#utility.yul\":5261:5295   */\n      mstore\n        /* \"#utility.yul\":5192:5301   */\n      pop\n      pop\n      jump\t// out\n        /* \"#utility.yul\":5307:5671   */\n    tag_236:\n        /* \"#utility.yul\":5395:5398   */\n      0x00\n        /* \"#utility.yul\":5423:5462   */\n      tag_238\n        /* \"#utility.yul\":5456:5461   */\n      dup3\n        /* \"#utility.yul\":5423:5462   */\n      tag_239\n      jump\t// in\n    tag_238:\n        /* \"#utility.yul\":5478:5549   */\n      tag_240\n        /* \"#utility.yul\":5542:5548   */\n      dup2\n        /* \"#utility.yul\":5537:5540   */\n      dup6\n        /* \"#utility.yul\":5478:5549   */\n      tag_241\n      jump\t// in\n    tag_240:\n        /* \"#utility.yul\":5471:5549   */\n      swap4\n      pop\n        /* \"#utility.yul\":5558:5610   */\n      tag_242\n        /* \"#utility.yul\":5603:5609   */\n      dup2\n        /* \"#utility.yul\":5598:5601   */\n      dup6\n        /* \"#utility.yul\":5591:5595   */\n      0x20\n        /* \"#utility.yul\":5584:5589   */\n      dup7\n        /* \"#utility.yul\":5580:5596   */\n      add\n        /* \"#utility.yul\":5558:5610   */\n      tag_243\n      jump\t// in\n    tag_242:\n        /* \"#utility.yul\":5635:5664   */\n      tag_244\n        /* \"#utility.yul\":5657:5663   */\n      dup2\n        /* \"#utility.yul\":5635:5664   */\n      tag_245\n      jump\t// in\n    tag_244:\n        /* \"#utility.yul\":5630:5633   */\n      dup5\n        /* \"#utility.yul\":5626:5665   */\n      add\n        /* \"#utility.yul\":5619:5665   */\n      swap2\n      pop\n        /* \"#utility.yul\":5399:5671   */\n      pop\n        /* \"#utility.yul\":5307:5671   */\n      swap3\n      swap2\n      pop\n      pop\n      jump\t// out\n        /* \"#utility.yul\":5677:6054   */\n    tag_246:\n        /* \"#utility.yul\":5783:5786   */\n      0x00\n        /* \"#utility.yul\":5811:5850   */\n      tag_248\n        /* \"#utility.yul\":5844:5849   */\n      dup3\n        /* \"#utility.yul\":5811:5850   */\n      tag_239\n      jump\t// in\n    tag_248:\n        /* \"#utility.yul\":5866:5955   */\n      tag_249\n        /* \"#utility.yul\":5948:5954   */\n      dup2\n        /* \"#utility.yul\":5943:5946   */\n      dup6\n        /* \"#utility.yul\":5866:5955   */\n      tag_250\n      jump\t// in\n    tag_249:\n        /* \"#utility.yul\":5859:5955   */\n      swap4\n      pop\n        /* \"#utility.yul\":5964:6016   */\n      tag_251\n        /* \"#utility.yul\":6009:6015   */\n      dup2\n        /* \"#utility.yul\":6004:6007   */\n      dup6\n        /* \"#utility.yul\":5997:6001   */\n      0x20\n        /* \"#utility.yul\":5990:5995   */\n      dup7\n        /* \"#utility.yul\":5986:6002   */\n      add\n        /* \"#utility.yul\":5964:6016   */\n      tag_243\n      jump\t// in\n    tag_251:\n        /* \"#utility.yul\":6041:6047   */\n      dup1\n        /* \"#utility.yul\":6036:6039   */\n      dup5\n        /* \"#utility.yul\":6032:6048   */\n      add\n        /* \"#utility.yul\":6025:6048   */\n      swap2\n      pop\n        /* \"#utility.yul\":5787:6054   */\n      pop\n        /* \"#utility.yul\":5677:6054   */\n      swap3\n      swap2\n      pop\n      pop\n      jump\t// out\n        /* \"#utility.yul\":6060:6426   */\n    tag_252:\n        /* \"#utility.yul\":6202:6205   */\n      0x00\n        /* \"#utility.yul\":6223:6290   */\n      tag_254\n        /* \"#utility.yul\":6287:6289   */\n      0x14\n        /* \"#utility.yul\":6282:6285   */\n      dup4\n        /* \"#utility.yul\":6223:6290   */\n      tag_241\n      jump\t// in\n    tag_254:\n        /* \"#utility.yul\":6216:6290   */\n      swap2\n      pop\n        /* \"#utility.yul\":6299:6392   */\n      tag_255\n        /* \"#utility.yul\":6388:6391   */\n      dup3\n        /* \"#utility.yul\":6299:6392   */\n      tag_256\n      jump\t// in\n    tag_255:\n        /* \"#utility.yul\":6417:6419   */\n      0x20\n        /* \"#utility.yul\":6412:6415   */\n      dup3\n        /* \"#utility.yul\":6408:6420   */\n      add\n        /* \"#utility.yul\":6401:6420   */\n      swap1\n      pop\n        /* \"#utility.yul\":6060:6426   */\n      swap2\n      swap1\n      pop\n      jump\t// out\n        /* \"#utility.yul\":6432:6798   */\n    tag_257:\n        /* \"#utility.yul\":6574:6577   */\n      0x00\n        /* \"#utility.yul\":6595:6662   */\n      tag_259\n        /* \"#utility.yul\":6659:6661   */\n      0x23\n        /* \"#utility.yul\":6654:6657   */\n      dup4\n        /* \"#utility.yul\":6595:6662   */\n      tag_241\n      jump\t// in\n    tag_259:\n        /* \"#utility.yul\":6588:6662   */\n      swap2\n      pop\n        /* \"#utility.yul\":6671:6764   */\n      tag_260\n        /* \"#utility.yul\":6760:6763   */\n      dup3\n        /* \"#utility.yul\":6671:6764   */\n      tag_261\n      jump\t// in\n    tag_260:\n        /* \"#utility.yul\":6789:6791   */\n      0x40\n        /* \"#utility.yul\":6784:6787   */\n      dup3\n        /* \"#utility.yul\":6780:6792   */\n      add\n        /* \"#utility.yul\":6773:6792   */\n      swap1\n      pop\n        /* \"#utility.yul\":6432:6798   */\n      swap2\n      swap1\n      pop\n      jump\t// out\n        /* \"#utility.yul\":6804:7170   */\n    tag_262:\n        /* \"#utility.yul\":6946:6949   */\n      0x00\n        /* \"#utility.yul\":6967:7034   */\n      tag_264\n        /* \"#utility.yul\":7031:7033   */\n      0x1b\n        /* \"#utility.yul\":7026:7029   */\n      dup4\n        /* \"#utility.yul\":6967:7034   */\n      tag_241\n      jump\t// in\n    tag_264:\n        /* \"#utility.yul\":6960:7034   */\n      swap2\n      pop\n        /* \"#utility.yul\":7043:7136   */\n      tag_265\n        /* \"#utility.yul\":7132:7135   */\n      dup3\n        /* \"#utility.yul\":7043:7136   */\n      tag_266\n      jump\t// in\n    tag_265:\n        /* \"#utility.yul\":7161:7163   */\n      0x20\n        /* \"#utility.yul\":7156:7159   */\n      dup3\n        /* \"#utility.yul\":7152:7164   */\n      add\n        /* \"#utility.yul\":7145:7164   */\n      swap1\n      pop\n        /* \"#utility.yul\":6804:7170   */\n      swap2\n      swap1\n      pop\n      jump\t// out\n        /* \"#utility.yul\":7176:7542   */\n    tag_267:\n        /* \"#utility.yul\":7318:7321   */\n      0x00\n        /* \"#utility.yul\":7339:7406   */\n      tag_269\n        /* \"#utility.yul\":7403:7405   */\n      0x2b\n        /* \"#utility.yul\":7398:7401   */\n      dup4\n        /* \"#utility.yul\":7339:7406   */\n      tag_241\n      jump\t// in\n    tag_269:\n        /* \"#utility.yul\":7332:7406   */\n      swap2\n      pop\n        /* \"#utility.yul\":7415:7508   */\n      tag_270\n        /* \"#utility.yul\":7504:7507   */\n      dup3\n        /* \"#utility.yul\":7415:7508   */\n      tag_271\n      jump\t// in\n    tag_270:\n        /* \"#utility.yul\":7533:7535   */\n      0x40\n        /* \"#utility.yul\":7528:7531   */\n      dup3\n        /* \"#utility.yul\":7524:7536   */\n      add\n        /* \"#utility.yul\":7517:7536   */\n      swap1\n      pop\n        /* \"#utility.yul\":7176:7542   */\n      swap2\n      swap1\n      pop\n      jump\t// out\n        /* \"#utility.yul\":7548:7656   */\n    tag_208:\n        /* \"#utility.yul\":7625:7649   */\n      tag_273\n        /* \"#utility.yul\":7643:7648   */\n      dup2\n        /* \"#utility.yul\":7625:7649   */\n      tag_274\n      jump\t// in\n    tag_273:\n        /* \"#utility.yul\":7620:7623   */\n      dup3\n        /* \"#utility.yul\":7613:7650   */\n      mstore\n        /* \"#utility.yul\":7548:7656   */\n      pop\n      pop\n      jump\t// out\n        /* \"#utility.yul\":7662:7780   */\n    tag_275:\n        /* \"#utility.yul\":7749:7773   */\n      tag_277\n        /* \"#utility.yul\":7767:7772   */\n      dup2\n        /* \"#utility.yul\":7749:7773   */\n      tag_274\n      jump\t// in\n    tag_277:\n        /* \"#utility.yul\":7744:7747   */\n      dup3\n        /* \"#utility.yul\":7737:7774   */\n      mstore\n        /* \"#utility.yul\":7662:7780   */\n      pop\n      pop\n      jump\t// out\n        /* \"#utility.yul\":7786:7943   */\n    tag_278:\n        /* \"#utility.yul\":7891:7936   */\n      tag_280\n        /* \"#utility.yul\":7911:7935   */\n      tag_281\n        /* \"#utility.yul\":7929:7934   */\n      dup3\n        /* \"#utility.yul\":7911:7935   */\n      tag_274\n      jump\t// in\n    tag_281:\n        /* \"#utility.yul\":7891:7936   */\n      tag_282\n      jump\t// in\n    tag_280:\n        /* \"#utility.yul\":7886:7889   */\n      dup3\n        /* \"#utility.yul\":7879:7937   */\n      mstore\n        /* \"#utility.yul\":7786:7943   */\n      pop\n      pop\n      jump\t// out\n        /* \"#utility.yul\":7949:8506   */\n    tag_132:\n        /* \"#utility.yul\":8137:8140   */\n      0x00\n        /* \"#utility.yul\":8152:8227   */\n      tag_284\n        /* \"#utility.yul\":8223:8226   */\n      dup3\n        /* \"#utility.yul\":8214:8220   */\n      dup7\n        /* \"#utility.yul\":8152:8227   */\n      tag_213\n      jump\t// in\n    tag_284:\n        /* \"#utility.yul\":8252:8254   */\n      0x14\n        /* \"#utility.yul\":8247:8250   */\n      dup3\n        /* \"#utility.yul\":8243:8255   */\n      add\n        /* \"#utility.yul\":8236:8255   */\n      swap2\n      pop\n        /* \"#utility.yul\":8265:8340   */\n      tag_285\n        /* \"#utility.yul\":8336:8339   */\n      dup3\n        /* \"#utility.yul\":8327:8333   */\n      dup6\n        /* \"#utility.yul\":8265:8340   */\n      tag_278\n      jump\t// in\n    tag_285:\n        /* \"#utility.yul\":8365:8367   */\n      0x20\n        /* \"#utility.yul\":8360:8363   */\n      dup3\n        /* \"#utility.yul\":8356:8368   */\n      add\n        /* \"#utility.yul\":8349:8368   */\n      swap2\n      pop\n        /* \"#utility.yul\":8385:8480   */\n      tag_286\n        /* \"#utility.yul\":8476:8479   */\n      dup3\n        /* \"#utility.yul\":8467:8473   */\n      dup5\n        /* \"#utility.yul\":8385:8480   */\n      tag_246\n      jump\t// in\n    tag_286:\n        /* \"#utility.yul\":8378:8480   */\n      swap2\n      pop\n        /* \"#utility.yul\":8497:8500   */\n      dup2\n        /* \"#utility.yul\":8490:8500   */\n      swap1\n      pop\n        /* \"#utility.yul\":7949:8506   */\n      swap5\n      swap4\n      pop\n      pop\n      pop\n      pop\n      jump\t// out\n        /* \"#utility.yul\":8512:8954   */\n    tag_50:\n        /* \"#utility.yul\":8661:8665   */\n      0x00\n        /* \"#utility.yul\":8699:8701   */\n      0x60\n        /* \"#utility.yul\":8688:8697   */\n      dup3\n        /* \"#utility.yul\":8684:8702   */\n      add\n        /* \"#utility.yul\":8676:8702   */\n      swap1\n      pop\n        /* \"#utility.yul\":8712:8783   */\n      tag_288\n        /* \"#utility.yul\":8780:8781   */\n      0x00\n        /* \"#utility.yul\":8769:8778   */\n      dup4\n        /* \"#utility.yul\":8765:8782   */\n      add\n        /* \"#utility.yul\":8756:8762   */\n      dup7\n        /* \"#utility.yul\":8712:8783   */\n      tag_209\n      jump\t// in\n    tag_288:\n        /* \"#utility.yul\":8793:8865   */\n      tag_289\n        /* \"#utility.yul\":8861:8863   */\n      0x20\n        /* \"#utility.yul\":8850:8859   */\n      dup4\n        /* \"#utility.yul\":8846:8864   */\n      add\n        /* \"#utility.yul\":8837:8843   */\n      dup6\n        /* \"#utility.yul\":8793:8865   */\n      tag_209\n      jump\t// in\n    tag_289:\n        /* \"#utility.yul\":8875:8947   */\n      tag_290\n        /* \"#utility.yul\":8943:8945   */\n      0x40\n        /* \"#utility.yul\":8932:8941   */\n      dup4\n        /* \"#utility.yul\":8928:8946   */\n      add\n        /* \"#utility.yul\":8919:8925   */\n      dup5\n        /* \"#utility.yul\":8875:8947   */\n      tag_275\n      jump\t// in\n    tag_290:\n        /* \"#utility.yul\":8512:8954   */\n      swap5\n      swap4\n      pop\n      pop\n      pop\n      pop\n      jump\t// out\n        /* \"#utility.yul\":8960:9333   */\n    tag_42:\n        /* \"#utility.yul\":9103:9107   */\n      0x00\n        /* \"#utility.yul\":9141:9143   */\n      0x20\n        /* \"#utility.yul\":9130:9139   */\n      dup3\n        /* \"#utility.yul\":9126:9144   */\n      add\n        /* \"#utility.yul\":9118:9144   */\n      swap1\n      pop\n        /* \"#utility.yul\":9190:9199   */\n      dup2\n        /* \"#utility.yul\":9184:9188   */\n      dup2\n        /* \"#utility.yul\":9180:9200   */\n      sub\n        /* \"#utility.yul\":9176:9177   */\n      0x00\n        /* \"#utility.yul\":9165:9174   */\n      dup4\n        /* \"#utility.yul\":9161:9178   */\n      add\n        /* \"#utility.yul\":9154:9201   */\n      mstore\n        /* \"#utility.yul\":9218:9326   */\n      tag_292\n        /* \"#utility.yul\":9321:9325   */\n      dup2\n        /* \"#utility.yul\":9312:9318   */\n      dup5\n        /* \"#utility.yul\":9218:9326   */\n      tag_218\n      jump\t// in\n    tag_292:\n        /* \"#utility.yul\":9210:9326   */\n      swap1\n      pop\n        /* \"#utility.yul\":8960:9333   */\n      swap3\n      swap2\n      pop\n      pop\n      jump\t// out\n        /* \"#utility.yul\":9339:9652   */\n    tag_27:\n        /* \"#utility.yul\":9452:9456   */\n      0x00\n        /* \"#utility.yul\":9490:9492   */\n      0x20\n        /* \"#utility.yul\":9479:9488   */\n      dup3\n        /* \"#utility.yul\":9475:9493   */\n      add\n        /* \"#utility.yul\":9467:9493   */\n      swap1\n      pop\n        /* \"#utility.yul\":9539:9548   */\n      dup2\n        /* \"#utility.yul\":9533:9537   */\n      dup2\n        /* \"#utility.yul\":9529:9549   */\n      sub\n        /* \"#utility.yul\":9525:9526   */\n      0x00\n        /* \"#utility.yul\":9514:9523   */\n      dup4\n        /* \"#utility.yul\":9510:9527   */\n      add\n        /* \"#utility.yul\":9503:9550   */\n      mstore\n        /* \"#utility.yul\":9567:9645   */\n      tag_294\n        /* \"#utility.yul\":9640:9644   */\n      dup2\n        /* \"#utility.yul\":9631:9637   */\n      dup5\n        /* \"#utility.yul\":9567:9645   */\n      tag_236\n      jump\t// in\n    tag_294:\n        /* \"#utility.yul\":9559:9645   */\n      swap1\n      pop\n        /* \"#utility.yul\":9339:9652   */\n      swap3\n      swap2\n      pop\n      pop\n      jump\t// out\n        /* \"#utility.yul\":9658:10077   */\n    tag_61:\n        /* \"#utility.yul\":9824:9828   */\n      0x00\n        /* \"#utility.yul\":9862:9864   */\n      0x20\n        /* \"#utility.yul\":9851:9860   */\n      dup3\n        /* \"#utility.yul\":9847:9865   */\n      add\n        /* \"#utility.yul\":9839:9865   */\n      swap1\n      pop\n        /* \"#utility.yul\":9911:9920   */\n      dup2\n        /* \"#utility.yul\":9905:9909   */\n      dup2\n        /* \"#utility.yul\":9901:9921   */\n      sub\n        /* \"#utility.yul\":9897:9898   */\n      0x00\n        /* \"#utility.yul\":9886:9895   */\n      dup4\n        /* \"#utility.yul\":9882:9899   */\n      add\n        /* \"#utility.yul\":9875:9922   */\n      mstore\n        /* \"#utility.yul\":9939:10070   */\n      tag_296\n        /* \"#utility.yul\":10065:10069   */\n      dup2\n        /* \"#utility.yul\":9939:10070   */\n      tag_252\n      jump\t// in\n    tag_296:\n        /* \"#utility.yul\":9931:10070   */\n      swap1\n      pop\n        /* \"#utility.yul\":9658:10077   */\n      swap2\n      swap1\n      pop\n      jump\t// out\n        /* \"#utility.yul\":10083:10502   */\n    tag_127:\n        /* \"#utility.yul\":10249:10253   */\n      0x00\n        /* \"#utility.yul\":10287:10289   */\n      0x20\n        /* \"#utility.yul\":10276:10285   */\n      dup3\n        /* \"#utility.yul\":10272:10290   */\n      add\n        /* \"#utility.yul\":10264:10290   */\n      swap1\n      pop\n        /* \"#utility.yul\":10336:10345   */\n      dup2\n        /* \"#utility.yul\":10330:10334   */\n      dup2\n        /* \"#utility.yul\":10326:10346   */\n      sub\n        /* \"#utility.yul\":10322:10323   */\n      0x00\n        /* \"#utility.yul\":10311:10320   */\n      dup4\n        /* \"#utility.yul\":10307:10324   */\n      add\n        /* \"#utility.yul\":10300:10347   */\n      mstore\n        /* \"#utility.yul\":10364:10495   */\n      tag_298\n        /* \"#utility.yul\":10490:10494   */\n      dup2\n        /* \"#utility.yul\":10364:10495   */\n      tag_257\n      jump\t// in\n    tag_298:\n        /* \"#utility.yul\":10356:10495   */\n      swap1\n      pop\n        /* \"#utility.yul\":10083:10502   */\n      swap2\n      swap1\n      pop\n      jump\t// out\n        /* \"#utility.yul\":10508:10927   */\n    tag_66:\n        /* \"#utility.yul\":10674:10678   */\n      0x00\n        /* \"#utility.yul\":10712:10714   */\n      0x20\n        /* \"#utility.yul\":10701:10710   */\n      dup3\n        /* \"#utility.yul\":10697:10715   */\n      add\n        /* \"#utility.yul\":10689:10715   */\n      swap1\n      pop\n        /* \"#utility.yul\":10761:10770   */\n      dup2\n        /* \"#utility.yul\":10755:10759   */\n      dup2\n        /* \"#utility.yul\":10751:10771   */\n      sub\n        /* \"#utility.yul\":10747:10748   */\n      0x00\n        /* \"#utility.yul\":10736:10745   */\n      dup4\n        /* \"#utility.yul\":10732:10749   */\n      add\n        /* \"#utility.yul\":10725:10772   */\n      mstore\n        /* \"#utility.yul\":10789:10920   */\n      tag_300\n        /* \"#utility.yul\":10915:10919   */\n      dup2\n        /* \"#utility.yul\":10789:10920   */\n      tag_262\n      jump\t// in\n    tag_300:\n        /* \"#utility.yul\":10781:10920   */\n      swap1\n      pop\n        /* \"#utility.yul\":10508:10927   */\n      swap2\n      swap1\n      pop\n      jump\t// out\n        /* \"#utility.yul\":10933:11352   */\n    tag_81:\n        /* \"#utility.yul\":11099:11103   */\n      0x00\n        /* \"#utility.yul\":11137:11139   */\n      0x20\n        /* \"#utility.yul\":11126:11135   */\n      dup3\n        /* \"#utility.yul\":11122:11140   */\n      add\n        /* \"#utility.yul\":11114:11140   */\n      swap1\n      pop\n        /* \"#utility.yul\":11186:11195   */\n      dup2\n        /* \"#utility.yul\":11180:11184   */\n      dup2\n        /* \"#utility.yul\":11176:11196   */\n      sub\n        /* \"#utility.yul\":11172:11173   */\n      0x00\n        /* \"#utility.yul\":11161:11170   */\n      dup4\n        /* \"#utility.yul\":11157:11174   */\n      add\n        /* \"#utility.yul\":11150:11197   */\n      mstore\n        /* \"#utility.yul\":11214:11345   */\n      tag_302\n        /* \"#utility.yul\":11340:11344   */\n      dup2\n        /* \"#utility.yul\":11214:11345   */\n      tag_267\n      jump\t// in\n    tag_302:\n        /* \"#utility.yul\":11206:11345   */\n      swap1\n      pop\n        /* \"#utility.yul\":10933:11352   */\n      swap2\n      swap1\n      pop\n      jump\t// out\n        /* \"#utility.yul\":11358:11580   */\n    tag_21:\n        /* \"#utility.yul\":11451:11455   */\n      0x00\n        /* \"#utility.yul\":11489:11491   */\n      0x20\n        /* \"#utility.yul\":11478:11487   */\n      dup3\n        /* \"#utility.yul\":11474:11492   */\n      add\n        /* \"#utility.yul\":11466:11492   */\n      swap1\n      pop\n        /* \"#utility.yul\":11502:11573   */\n      tag_304\n        /* \"#utility.yul\":11570:11571   */\n      0x00\n        /* \"#utility.yul\":11559:11568   */\n      dup4\n        /* \"#utility.yul\":11555:11572   */\n      add\n        /* \"#utility.yul\":11546:11552   */\n      dup5\n        /* \"#utility.yul\":11502:11573   */\n      tag_275\n      jump\t// in\n    tag_304:\n        /* \"#utility.yul\":11358:11580   */\n      swap3\n      swap2\n      pop\n      pop\n      jump\t// out\n        /* \"#utility.yul\":11586:12341   */\n    tag_77:\n        /* \"#utility.yul\":11811:11815   */\n      0x00\n        /* \"#utility.yul\":11849:11852   */\n      0xa0\n        /* \"#utility.yul\":11838:11847   */\n      dup3\n        /* \"#utility.yul\":11834:11853   */\n      add\n        /* \"#utility.yul\":11826:11853   */\n      swap1\n      pop\n        /* \"#utility.yul\":11863:11934   */\n      tag_306\n        /* \"#utility.yul\":11931:11932   */\n      0x00\n        /* \"#utility.yul\":11920:11929   */\n      dup4\n        /* \"#utility.yul\":11916:11933   */\n      add\n        /* \"#utility.yul\":11907:11913   */\n      dup9\n        /* \"#utility.yul\":11863:11934   */\n      tag_275\n      jump\t// in\n    tag_306:\n        /* \"#utility.yul\":11944:12016   */\n      tag_307\n        /* \"#utility.yul\":12012:12014   */\n      0x20\n        /* \"#utility.yul\":12001:12010   */\n      dup4\n        /* \"#utility.yul\":11997:12015   */\n      add\n        /* \"#utility.yul\":11988:11994   */\n      dup8\n        /* \"#utility.yul\":11944:12016   */\n      tag_209\n      jump\t// in\n    tag_307:\n        /* \"#utility.yul\":12026:12098   */\n      tag_308\n        /* \"#utility.yul\":12094:12096   */\n      0x40\n        /* \"#utility.yul\":12083:12092   */\n      dup4\n        /* \"#utility.yul\":12079:12097   */\n      add\n        /* \"#utility.yul\":12070:12076   */\n      dup7\n        /* \"#utility.yul\":12026:12098   */\n      tag_275\n      jump\t// in\n    tag_308:\n        /* \"#utility.yul\":12108:12180   */\n      tag_309\n        /* \"#utility.yul\":12176:12178   */\n      0x60\n        /* \"#utility.yul\":12165:12174   */\n      dup4\n        /* \"#utility.yul\":12161:12179   */\n      add\n        /* \"#utility.yul\":12152:12158   */\n      dup6\n        /* \"#utility.yul\":12108:12180   */\n      tag_275\n      jump\t// in\n    tag_309:\n        /* \"#utility.yul\":12228:12237   */\n      dup2\n        /* \"#utility.yul\":12222:12226   */\n      dup2\n        /* \"#utility.yul\":12218:12238   */\n      sub\n        /* \"#utility.yul\":12212:12215   */\n      0x80\n        /* \"#utility.yul\":12201:12210   */\n      dup4\n        /* \"#utility.yul\":12197:12216   */\n      add\n        /* \"#utility.yul\":12190:12239   */\n      mstore\n        /* \"#utility.yul\":12256:12334   */\n      tag_310\n        /* \"#utility.yul\":12329:12333   */\n      dup2\n        /* \"#utility.yul\":12320:12326   */\n      dup5\n        /* \"#utility.yul\":12256:12334   */\n      tag_236\n      jump\t// in\n    tag_310:\n        /* \"#utility.yul\":12248:12334   */\n      swap1\n      pop\n        /* \"#utility.yul\":11586:12341   */\n      swap7\n      swap6\n      pop\n      pop\n      pop\n      pop\n      pop\n      pop\n      jump\t// out\n        /* \"#utility.yul\":12347:13534   */\n    tag_36:\n        /* \"#utility.yul\":12678:12682   */\n      0x00\n        /* \"#utility.yul\":12716:12719   */\n      0x0120\n        /* \"#utility.yul\":12705:12714   */\n      dup3\n        /* \"#utility.yul\":12701:12720   */\n      add\n        /* \"#utility.yul\":12693:12720   */\n      swap1\n      pop\n        /* \"#utility.yul\":12730:12801   */\n      tag_312\n        /* \"#utility.yul\":12798:12799   */\n      0x00\n        /* \"#utility.yul\":12787:12796   */\n      dup4\n        /* \"#utility.yul\":12783:12800   */\n      add\n        /* \"#utility.yul\":12774:12780   */\n      dup13\n        /* \"#utility.yul\":12730:12801   */\n      tag_275\n      jump\t// in\n    tag_312:\n        /* \"#utility.yul\":12811:12883   */\n      tag_313\n        /* \"#utility.yul\":12879:12881   */\n      0x20\n        /* \"#utility.yul\":12868:12877   */\n      dup4\n        /* \"#utility.yul\":12864:12882   */\n      add\n        /* \"#utility.yul\":12855:12861   */\n      dup12\n        /* \"#utility.yul\":12811:12883   */\n      tag_275\n      jump\t// in\n    tag_313:\n        /* \"#utility.yul\":12893:12965   */\n      tag_314\n        /* \"#utility.yul\":12961:12963   */\n      0x40\n        /* \"#utility.yul\":12950:12959   */\n      dup4\n        /* \"#utility.yul\":12946:12964   */\n      add\n        /* \"#utility.yul\":12937:12943   */\n      dup11\n        /* \"#utility.yul\":12893:12965   */\n      tag_275\n      jump\t// in\n    tag_314:\n        /* \"#utility.yul\":12975:13047   */\n      tag_315\n        /* \"#utility.yul\":13043:13045   */\n      0x60\n        /* \"#utility.yul\":13032:13041   */\n      dup4\n        /* \"#utility.yul\":13028:13046   */\n      add\n        /* \"#utility.yul\":13019:13025   */\n      dup10\n        /* \"#utility.yul\":12975:13047   */\n      tag_275\n      jump\t// in\n    tag_315:\n        /* \"#utility.yul\":13057:13130   */\n      tag_316\n        /* \"#utility.yul\":13125:13128   */\n      0x80\n        /* \"#utility.yul\":13114:13123   */\n      dup4\n        /* \"#utility.yul\":13110:13129   */\n      add\n        /* \"#utility.yul\":13101:13107   */\n      dup9\n        /* \"#utility.yul\":13057:13130   */\n      tag_275\n      jump\t// in\n    tag_316:\n        /* \"#utility.yul\":13140:13213   */\n      tag_317\n        /* \"#utility.yul\":13208:13211   */\n      0xa0\n        /* \"#utility.yul\":13197:13206   */\n      dup4\n        /* \"#utility.yul\":13193:13212   */\n      add\n        /* \"#utility.yul\":13184:13190   */\n      dup8\n        /* \"#utility.yul\":13140:13213   */\n      tag_209\n      jump\t// in\n    tag_317:\n        /* \"#utility.yul\":13223:13296   */\n      tag_318\n        /* \"#utility.yul\":13291:13294   */\n      0xc0\n        /* \"#utility.yul\":13280:13289   */\n      dup4\n        /* \"#utility.yul\":13276:13295   */\n      add\n        /* \"#utility.yul\":13267:13273   */\n      dup7\n        /* \"#utility.yul\":13223:13296   */\n      tag_209\n      jump\t// in\n    tag_318:\n        /* \"#utility.yul\":13344:13353   */\n      dup2\n        /* \"#utility.yul\":13338:13342   */\n      dup2\n        /* \"#utility.yul\":13334:13354   */\n      sub\n        /* \"#utility.yul\":13328:13331   */\n      0xe0\n        /* \"#utility.yul\":13317:13326   */\n      dup4\n        /* \"#utility.yul\":13313:13332   */\n      add\n        /* \"#utility.yul\":13306:13355   */\n      mstore\n        /* \"#utility.yul\":13372:13450   */\n      tag_319\n        /* \"#utility.yul\":13445:13449   */\n      dup2\n        /* \"#utility.yul\":13436:13442   */\n      dup6\n        /* \"#utility.yul\":13372:13450   */\n      tag_236\n      jump\t// in\n    tag_319:\n        /* \"#utility.yul\":13364:13450   */\n      swap1\n      pop\n        /* \"#utility.yul\":13460:13527   */\n      tag_320\n        /* \"#utility.yul\":13522:13525   */\n      0x0100\n        /* \"#utility.yul\":13511:13520   */\n      dup4\n        /* \"#utility.yul\":13507:13526   */\n      add\n        /* \"#utility.yul\":13498:13504   */\n      dup5\n        /* \"#utility.yul\":13460:13527   */\n      tag_232\n      jump\t// in\n    tag_320:\n        /* \"#utility.yul\":12347:13534   */\n      swap11\n      swap10\n      pop\n      pop\n      pop\n      pop\n      pop\n      pop\n      pop\n      pop\n      pop\n      pop\n      jump\t// out\n        /* \"#utility.yul\":13540:13669   */\n    tag_152:\n        /* \"#utility.yul\":13574:13580   */\n      0x00\n        /* \"#utility.yul\":13601:13621   */\n      tag_322\n      tag_323\n      jump\t// in\n    tag_322:\n        /* \"#utility.yul\":13591:13621   */\n      swap1\n      pop\n        /* \"#utility.yul\":13630:13663   */\n      tag_324\n        /* \"#utility.yul\":13658:13662   */\n      dup3\n        /* \"#utility.yul\":13650:13656   */\n      dup3\n        /* \"#utility.yul\":13630:13663   */\n      tag_325\n      jump\t// in\n    tag_324:\n        /* \"#utility.yul\":13540:13669   */\n      swap2\n      swap1\n      pop\n      jump\t// out\n        /* \"#utility.yul\":13675:13750   */\n    tag_323:\n        /* \"#utility.yul\":13708:13714   */\n      0x00\n        /* \"#utility.yul\":13741:13743   */\n      0x40\n        /* \"#utility.yul\":13735:13744   */\n      mload\n        /* \"#utility.yul\":13725:13744   */\n      swap1\n      pop\n        /* \"#utility.yul\":13675:13750   */\n      swap1\n      jump\t// out\n        /* \"#utility.yul\":13756:14064   */\n    tag_151:\n        /* \"#utility.yul\":13818:13822   */\n      0x00\n        /* \"#utility.yul\":13908:13926   */\n      0xffffffffffffffff\n        /* \"#utility.yul\":13900:13906   */\n      dup3\n        /* \"#utility.yul\":13897:13927   */\n      gt\n        /* \"#utility.yul\":13894:13950   */\n      iszero\n      tag_328\n      jumpi\n        /* \"#utility.yul\":13930:13948   */\n      tag_329\n      tag_109\n      jump\t// in\n    tag_329:\n        /* \"#utility.yul\":13894:13950   */\n    tag_328:\n        /* \"#utility.yul\":13968:13997   */\n      tag_330\n        /* \"#utility.yul\":13990:13996   */\n      dup3\n        /* \"#utility.yul\":13968:13997   */\n      tag_245\n      jump\t// in\n    tag_330:\n        /* \"#utility.yul\":13960:13997   */\n      swap1\n      pop\n        /* \"#utility.yul\":14052:14056   */\n      0x20\n        /* \"#utility.yul\":14046:14050   */\n      dup2\n        /* \"#utility.yul\":14042:14057   */\n      add\n        /* \"#utility.yul\":14034:14057   */\n      swap1\n      pop\n        /* \"#utility.yul\":13756:14064   */\n      swap2\n      swap1\n      pop\n      jump\t// out\n        /* \"#utility.yul\":14070:14202   */\n    tag_225:\n        /* \"#utility.yul\":14137:14141   */\n      0x00\n        /* \"#utility.yul\":14160:14163   */\n      dup2\n        /* \"#utility.yul\":14152:14163   */\n      swap1\n      pop\n        /* \"#utility.yul\":14190:14194   */\n      0x20\n        /* \"#utility.yul\":14185:14188   */\n      dup3\n        /* \"#utility.yul\":14181:14195   */\n      add\n        /* \"#utility.yul\":14173:14195   */\n      swap1\n      pop\n        /* \"#utility.yul\":14070:14202   */\n      swap2\n      swap1\n      pop\n      jump\t// out\n        /* \"#utility.yul\":14208:14322   */\n    tag_221:\n        /* \"#utility.yul\":14275:14281   */\n      0x00\n        /* \"#utility.yul\":14309:14314   */\n      dup2\n        /* \"#utility.yul\":14303:14315   */\n      mload\n        /* \"#utility.yul\":14293:14315   */\n      swap1\n      pop\n        /* \"#utility.yul\":14208:14322   */\n      swap2\n      swap1\n      pop\n      jump\t// out\n        /* \"#utility.yul\":14328:14427   */\n    tag_239:\n        /* \"#utility.yul\":14380:14386   */\n      0x00\n        /* \"#utility.yul\":14414:14419   */\n      dup2\n        /* \"#utility.yul\":14408:14420   */\n      mload\n        /* \"#utility.yul\":14398:14420   */\n      swap1\n      pop\n        /* \"#utility.yul\":14328:14427   */\n      swap2\n      swap1\n      pop\n      jump\t// out\n        /* \"#utility.yul\":14433:14546   */\n    tag_231:\n        /* \"#utility.yul\":14503:14507   */\n      0x00\n        /* \"#utility.yul\":14535:14539   */\n      0x20\n        /* \"#utility.yul\":14530:14533   */\n      dup3\n        /* \"#utility.yul\":14526:14540   */\n      add\n        /* \"#utility.yul\":14518:14540   */\n      swap1\n      pop\n        /* \"#utility.yul\":14433:14546   */\n      swap2\n      swap1\n      pop\n      jump\t// out\n        /* \"#utility.yul\":14552:14736   */\n    tag_223:\n        /* \"#utility.yul\":14651:14662   */\n      0x00\n        /* \"#utility.yul\":14685:14691   */\n      dup3\n        /* \"#utility.yul\":14680:14683   */\n      dup3\n        /* \"#utility.yul\":14673:14692   */\n      mstore\n        /* \"#utility.yul\":14725:14729   */\n      0x20\n        /* \"#utility.yul\":14720:14723   */\n      dup3\n        /* \"#utility.yul\":14716:14730   */\n      add\n        /* \"#utility.yul\":14701:14730   */\n      swap1\n      pop\n        /* \"#utility.yul\":14552:14736   */\n      swap3\n      swap2\n      pop\n      pop\n      jump\t// out\n        /* \"#utility.yul\":14742:14911   */\n    tag_241:\n        /* \"#utility.yul\":14826:14837   */\n      0x00\n        /* \"#utility.yul\":14860:14866   */\n      dup3\n        /* \"#utility.yul\":14855:14858   */\n      dup3\n        /* \"#utility.yul\":14848:14867   */\n      mstore\n        /* \"#utility.yul\":14900:14904   */\n      0x20\n        /* \"#utility.yul\":14895:14898   */\n      dup3\n        /* \"#utility.yul\":14891:14905   */\n      add\n        /* \"#utility.yul\":14876:14905   */\n      swap1\n      pop\n        /* \"#utility.yul\":14742:14911   */\n      swap3\n      swap2\n      pop\n      pop\n      jump\t// out\n        /* \"#utility.yul\":14917:15065   */\n    tag_250:\n        /* \"#utility.yul\":15019:15030   */\n      0x00\n        /* \"#utility.yul\":15056:15059   */\n      dup2\n        /* \"#utility.yul\":15041:15059   */\n      swap1\n      pop\n        /* \"#utility.yul\":14917:15065   */\n      swap3\n      swap2\n      pop\n      pop\n      jump\t// out\n        /* \"#utility.yul\":15071:15376   */\n    tag_71:\n        /* \"#utility.yul\":15111:15114   */\n      0x00\n        /* \"#utility.yul\":15130:15150   */\n      tag_339\n        /* \"#utility.yul\":15148:15149   */\n      dup3\n        /* \"#utility.yul\":15130:15150   */\n      tag_274\n      jump\t// in\n    tag_339:\n        /* \"#utility.yul\":15125:15150   */\n      swap2\n      pop\n        /* \"#utility.yul\":15164:15184   */\n      tag_340\n        /* \"#utility.yul\":15182:15183   */\n      dup4\n        /* \"#utility.yul\":15164:15184   */\n      tag_274\n      jump\t// in\n    tag_340:\n        /* \"#utility.yul\":15159:15184   */\n      swap3\n      pop\n        /* \"#utility.yul\":15318:15319   */\n      dup3\n        /* \"#utility.yul\":15250:15316   */\n      0xffffffffffffffffffffffffffffffffffffffffffffffffffffffffffffffff\n        /* \"#utility.yul\":15246:15320   */\n      sub\n        /* \"#utility.yul\":15243:15244   */\n      dup3\n        /* \"#utility.yul\":15240:15321   */\n      gt\n        /* \"#utility.yul\":15237:15344   */\n      iszero\n      tag_341\n      jumpi\n        /* \"#utility.yul\":15324:15342   */\n      tag_342\n      tag_343\n      jump\t// in\n    tag_342:\n        /* \"#utility.yul\":15237:15344   */\n    tag_341:\n        /* \"#utility.yul\":15368:15369   */\n      dup3\n        /* \"#utility.yul\":15365:15366   */\n      dup3\n        /* \"#utility.yul\":15361:15370   */\n      add\n        /* \"#utility.yul\":15354:15370   */\n      swap1\n      pop\n        /* \"#utility.yul\":15071:15376   */\n      swap3\n      swap2\n      pop\n      pop\n      jump\t// out\n        /* \"#utility.yul\":15382:15730   */\n    tag_58:\n        /* \"#utility.yul\":15422:15429   */\n      0x00\n        /* \"#utility.yul\":15445:15465   */\n      tag_345\n        /* \"#utility.yul\":15463:15464   */\n      dup3\n        /* \"#utility.yul\":15445:15465   */\n      tag_274\n      jump\t// in\n    tag_345:\n        /* \"#utility.yul\":15440:15465   */\n      swap2\n      pop\n        /* \"#utility.yul\":15479:15499   */\n      tag_346\n        /* \"#utility.yul\":15497:15498   */\n      dup4\n        /* \"#utility.yul\":15479:15499   */\n      tag_274\n      jump\t// in\n    tag_346:\n        /* \"#utility.yul\":15474:15499   */\n      swap3\n      pop\n        /* \"#utility.yul\":15667:15668   */\n      dup2\n        /* \"#utility.yul\":15599:15665   */\n      0xffffffffffffffffffffffffffffffffffffffffffffffffffffffffffffffff\n        /* \"#utility.yul\":15595:15669   */\n      div\n        /* \"#utility.yul\":15592:15593   */\n      dup4\n        /* \"#utility.yul\":15589:15670   */\n      gt\n        /* \"#utility.yul\":15584:15585   */\n      dup3\n        /* \"#utility.yul\":15577:15586   */\n      iszero\n        /* \"#utility.yul\":15570:15587   */\n      iszero\n        /* \"#utility.yul\":15566:15671   */\n      and\n        /* \"#utility.yul\":15563:15694   */\n      iszero\n      tag_347\n      jumpi\n        /* \"#utility.yul\":15674:15692   */\n      tag_348\n      tag_343\n      jump\t// in\n    tag_348:\n        /* \"#utility.yul\":15563:15694   */\n    tag_347:\n        /* \"#utility.yul\":15722:15723   */\n      dup3\n        /* \"#utility.yul\":15719:15720   */\n      dup3\n        /* \"#utility.yul\":15715:15724   */\n      mul\n        /* \"#utility.yul\":15704:15724   */\n      swap1\n      pop\n        /* \"#utility.yul\":15382:15730   */\n      swap3\n      swap2\n      pop\n      pop\n      jump\t// out\n        /* \"#utility.yul\":15736:15927   */\n    tag_85:\n        /* \"#utility.yul\":15776:15780   */\n      0x00\n        /* \"#utility.yul\":15796:15816   */\n      tag_350\n        /* \"#utility.yul\":15814:15815   */\n      dup3\n        /* \"#utility.yul\":15796:15816   */\n      tag_274\n      jump\t// in\n    tag_350:\n        /* \"#utility.yul\":15791:15816   */\n      swap2\n      pop\n        /* \"#utility.yul\":15830:15850   */\n      tag_351\n        /* \"#utility.yul\":15848:15849   */\n      dup4\n        /* \"#utility.yul\":15830:15850   */\n      tag_274\n      jump\t// in\n    tag_351:\n        /* \"#utility.yul\":15825:15850   */\n      swap3\n      pop\n        /* \"#utility.yul\":15869:15870   */\n      dup3\n        /* \"#utility.yul\":15866:15867   */\n      dup3\n        /* \"#utility.yul\":15863:15871   */\n      lt\n        /* \"#utility.yul\":15860:15894   */\n      iszero\n      tag_352\n      jumpi\n        /* \"#utility.yul\":15874:15892   */\n      tag_353\n      tag_343\n      jump\t// in\n    tag_353:\n        /* \"#utility.yul\":15860:15894   */\n    tag_352:\n        /* \"#utility.yul\":15919:15920   */\n      dup3\n        /* \"#utility.yul\":15916:15917   */\n      dup3\n        /* \"#utility.yul\":15912:15921   */\n      sub\n        /* \"#utility.yul\":15904:15921   */\n      swap1\n      pop\n        /* \"#utility.yul\":15736:15927   */\n      swap3\n      swap2\n      pop\n      pop\n      jump\t// out\n        /* \"#utility.yul\":15933:16029   */\n    tag_212:\n        /* \"#utility.yul\":15970:15977   */\n      0x00\n        /* \"#utility.yul\":15999:16023   */\n      tag_355\n        /* \"#utility.yul\":16017:16022   */\n      dup3\n        /* \"#utility.yul\":15999:16023   */\n      tag_356\n      jump\t// in\n    tag_355:\n        /* \"#utility.yul\":15988:16023   */\n      swap1\n      pop\n        /* \"#utility.yul\":15933:16029   */\n      swap2\n      swap1\n      pop\n      jump\t// out\n        /* \"#utility.yul\":16035:16125   */\n    tag_235:\n        /* \"#utility.yul\":16069:16076   */\n      0x00\n        /* \"#utility.yul\":16112:16117   */\n      dup2\n        /* \"#utility.yul\":16105:16118   */\n      iszero\n        /* \"#utility.yul\":16098:16119   */\n      iszero\n        /* \"#utility.yul\":16087:16119   */\n      swap1\n      pop\n        /* \"#utility.yul\":16035:16125   */\n      swap2\n      swap1\n      pop\n      jump\t// out\n        /* \"#utility.yul\":16131:16257   */\n    tag_356:\n        /* \"#utility.yul\":16168:16175   */\n      0x00\n        /* \"#utility.yul\":16208:16250   */\n      0xffffffffffffffffffffffffffffffffffffffff\n        /* \"#utility.yul\":16201:16206   */\n      dup3\n        /* \"#utility.yul\":16197:16251   */\n      and\n        /* \"#utility.yul\":16186:16251   */\n      swap1\n      pop\n        /* \"#utility.yul\":16131:16257   */\n      swap2\n      swap1\n      pop\n      jump\t// out\n        /* \"#utility.yul\":16263:16340   */\n    tag_274:\n        /* \"#utility.yul\":16300:16307   */\n      0x00\n        /* \"#utility.yul\":16329:16334   */\n      dup2\n        /* \"#utility.yul\":16318:16334   */\n      swap1\n      pop\n        /* \"#utility.yul\":16263:16340   */\n      swap2\n      swap1\n      pop\n      jump\t// out\n        /* \"#utility.yul\":16346:16500   */\n    tag_157:\n        /* \"#utility.yul\":16430:16436   */\n      dup3\n        /* \"#utility.yul\":16425:16428   */\n      dup2\n        /* \"#utility.yul\":16420:16423   */\n      dup4\n        /* \"#utility.yul\":16407:16437   */\n      calldatacopy\n        /* \"#utility.yul\":16492:16493   */\n      0x00\n        /* \"#utility.yul\":16483:16489   */\n      dup4\n        /* \"#utility.yul\":16478:16481   */\n      dup4\n        /* \"#utility.yul\":16474:16490   */\n      add\n        /* \"#utility.yul\":16467:16494   */\n      mstore\n        /* \"#utility.yul\":16346:16500   */\n      pop\n      pop\n      pop\n      jump\t// out\n        /* \"#utility.yul\":16506:16813   */\n    tag_243:\n        /* \"#utility.yul\":16574:16575   */\n      0x00\n        /* \"#utility.yul\":16584:16697   */\n    tag_362:\n        /* \"#utility.yul\":16598:16604   */\n      dup4\n        /* \"#utility.yul\":16595:16596   */\n      dup2\n        /* \"#utility.yul\":16592:16605   */\n      lt\n        /* \"#utility.yul\":16584:16697   */\n      iszero\n      tag_364\n      jumpi\n        /* \"#utility.yul\":16683:16684   */\n      dup1\n        /* \"#utility.yul\":16678:16681   */\n      dup3\n        /* \"#utility.yul\":16674:16685   */\n      add\n        /* \"#utility.yul\":16668:16686   */\n      mload\n        /* \"#utility.yul\":16664:16665   */\n      dup2\n        /* \"#utility.yul\":16659:16662   */\n      dup5\n        /* \"#utility.yul\":16655:16666   */\n      add\n        /* \"#utility.yul\":16648:16687   */\n      mstore\n        /* \"#utility.yul\":16620:16622   */\n      0x20\n        /* \"#utility.yul\":16617:16618   */\n      dup2\n        /* \"#utility.yul\":16613:16623   */\n      add\n        /* \"#utility.yul\":16608:16623   */\n      swap1\n      pop\n        /* \"#utility.yul\":16584:16697   */\n      jump(tag_362)\n    tag_364:\n        /* \"#utility.yul\":16715:16721   */\n      dup4\n        /* \"#utility.yul\":16712:16713   */\n      dup2\n        /* \"#utility.yul\":16709:16722   */\n      gt\n        /* \"#utility.yul\":16706:16807   */\n      iszero\n      tag_365\n      jumpi\n        /* \"#utility.yul\":16795:16796   */\n      0x00\n        /* \"#utility.yul\":16786:16792   */\n      dup5\n        /* \"#utility.yul\":16781:16784   */\n      dup5\n        /* \"#utility.yul\":16777:16793   */\n      add\n        /* \"#utility.yul\":16770:16797   */\n      mstore\n        /* \"#utility.yul\":16706:16807   */\n    tag_365:\n        /* \"#utility.yul\":16555:16813   */\n      pop\n        /* \"#utility.yul\":16506:16813   */\n      pop\n      pop\n      pop\n      jump\t// out\n        /* \"#utility.yul\":16819:17139   */\n    tag_91:\n        /* \"#utility.yul\":16863:16869   */\n      0x00\n        /* \"#utility.yul\":16900:16901   */\n      0x02\n        /* \"#utility.yul\":16894:16898   */\n      dup3\n        /* \"#utility.yul\":16890:16902   */\n      div\n        /* \"#utility.yul\":16880:16902   */\n      swap1\n      pop\n        /* \"#utility.yul\":16947:16948   */\n      0x01\n        /* \"#utility.yul\":16941:16945   */\n      dup3\n        /* \"#utility.yul\":16937:16949   */\n      and\n        /* \"#utility.yul\":16968:16986   */\n      dup1\n        /* \"#utility.yul\":16958:17039   */\n      tag_367\n      jumpi\n        /* \"#utility.yul\":17024:17028   */\n      0x7f\n        /* \"#utility.yul\":17016:17022   */\n      dup3\n        /* \"#utility.yul\":17012:17029   */\n      and\n        /* \"#utility.yul\":17002:17029   */\n      swap2\n      pop\n        /* \"#utility.yul\":16958:17039   */\n    tag_367:\n        /* \"#utility.yul\":17086:17088   */\n      0x20\n        /* \"#utility.yul\":17078:17084   */\n      dup3\n        /* \"#utility.yul\":17075:17089   */\n      lt\n        /* \"#utility.yul\":17055:17073   */\n      dup2\n        /* \"#utility.yul\":17052:17090   */\n      eq\n        /* \"#utility.yul\":17049:17133   */\n      iszero\n      tag_368\n      jumpi\n        /* \"#utility.yul\":17105:17123   */\n      tag_369\n      tag_370\n      jump\t// in\n    tag_369:\n        /* \"#utility.yul\":17049:17133   */\n    tag_368:\n        /* \"#utility.yul\":16870:17139   */\n      pop\n        /* \"#utility.yul\":16819:17139   */\n      swap2\n      swap1\n      pop\n      jump\t// out\n        /* \"#utility.yul\":17145:17426   */\n    tag_325:\n        /* \"#utility.yul\":17228:17255   */\n      tag_372\n        /* \"#utility.yul\":17250:17254   */\n      dup3\n        /* \"#utility.yul\":17228:17255   */\n      tag_245\n      jump\t// in\n    tag_372:\n        /* \"#utility.yul\":17220:17226   */\n      dup2\n        /* \"#utility.yul\":17216:17256   */\n      add\n        /* \"#utility.yul\":17358:17364   */\n      dup2\n        /* \"#utility.yul\":17346:17356   */\n      dup2\n        /* \"#utility.yul\":17343:17365   */\n      lt\n        /* \"#utility.yul\":17322:17340   */\n      0xffffffffffffffff\n        /* \"#utility.yul\":17310:17320   */\n      dup3\n        /* \"#utility.yul\":17307:17341   */\n      gt\n        /* \"#utility.yul\":17304:17366   */\n      or\n        /* \"#utility.yul\":17301:17389   */\n      iszero\n      tag_373\n      jumpi\n        /* \"#utility.yul\":17369:17387   */\n      tag_374\n      tag_109\n      jump\t// in\n    tag_374:\n        /* \"#utility.yul\":17301:17389   */\n    tag_373:\n        /* \"#utility.yul\":17409:17419   */\n      dup1\n        /* \"#utility.yul\":17405:17407   */\n      0x40\n        /* \"#utility.yul\":17398:17420   */\n      mstore\n        /* \"#utility.yul\":17188:17426   */\n      pop\n        /* \"#utility.yul\":17145:17426   */\n      pop\n      pop\n      jump\t// out\n        /* \"#utility.yul\":17432:17665   */\n    tag_75:\n        /* \"#utility.yul\":17471:17474   */\n      0x00\n        /* \"#utility.yul\":17494:17518   */\n      tag_376\n        /* \"#utility.yul\":17512:17517   */\n      dup3\n        /* \"#utility.yul\":17494:17518   */\n      tag_274\n      jump\t// in\n    tag_376:\n        /* \"#utility.yul\":17485:17518   */\n      swap2\n      pop\n        /* \"#utility.yul\":17540:17606   */\n      0xffffffffffffffffffffffffffffffffffffffffffffffffffffffffffffffff\n        /* \"#utility.yul\":17533:17538   */\n      dup3\n        /* \"#utility.yul\":17530:17607   */\n      eq\n        /* \"#utility.yul\":17527:17630   */\n      iszero\n      tag_377\n      jumpi\n        /* \"#utility.yul\":17610:17628   */\n      tag_378\n      tag_343\n      jump\t// in\n    tag_378:\n        /* \"#utility.yul\":17527:17630   */\n    tag_377:\n        /* \"#utility.yul\":17657:17658   */\n      0x01\n        /* \"#utility.yul\":17650:17655   */\n      dup3\n        /* \"#utility.yul\":17646:17659   */\n      add\n        /* \"#utility.yul\":17639:17659   */\n      swap1\n      pop\n        /* \"#utility.yul\":17432:17665   */\n      swap2\n      swap1\n      pop\n      jump\t// out\n        /* \"#utility.yul\":17671:17771   */\n    tag_217:\n        /* \"#utility.yul\":17710:17717   */\n      0x00\n        /* \"#utility.yul\":17739:17765   */\n      tag_380\n        /* \"#utility.yul\":17759:17764   */\n      dup3\n        /* \"#utility.yul\":17739:17765   */\n      tag_381\n      jump\t// in\n    tag_380:\n        /* \"#utility.yul\":17728:17765   */\n      swap1\n      pop\n        /* \"#utility.yul\":17671:17771   */\n      swap2\n      swap1\n      pop\n      jump\t// out\n        /* \"#utility.yul\":17777:17871   */\n    tag_381:\n        /* \"#utility.yul\":17816:17823   */\n      0x00\n        /* \"#utility.yul\":17845:17865   */\n      tag_383\n        /* \"#utility.yul\":17859:17864   */\n      dup3\n        /* \"#utility.yul\":17845:17865   */\n      tag_384\n      jump\t// in\n    tag_383:\n        /* \"#utility.yul\":17834:17865   */\n      swap1\n      pop\n        /* \"#utility.yul\":17777:17871   */\n      swap2\n      swap1\n      pop\n      jump\t// out\n        /* \"#utility.yul\":17877:17956   */\n    tag_282:\n        /* \"#utility.yul\":17916:17923   */\n      0x00\n        /* \"#utility.yul\":17945:17950   */\n      dup2\n        /* \"#utility.yul\":17934:17950   */\n      swap1\n      pop\n        /* \"#utility.yul\":17877:17956   */\n      swap2\n      swap1\n      pop\n      jump\t// out\n        /* \"#utility.yul\":17962:18138   */\n    tag_134:\n        /* \"#utility.yul\":17994:17995   */\n      0x00\n        /* \"#utility.yul\":18011:18031   */\n      tag_387\n        /* \"#utility.yul\":18029:18030   */\n      dup3\n        /* \"#utility.yul\":18011:18031   */\n      tag_274\n      jump\t// in\n    tag_387:\n        /* \"#utility.yul\":18006:18031   */\n      swap2\n      pop\n        /* \"#utility.yul\":18045:18065   */\n      tag_388\n        /* \"#utility.yul\":18063:18064   */\n      dup4\n        /* \"#utility.yul\":18045:18065   */\n      tag_274\n      jump\t// in\n    tag_388:\n        /* \"#utility.yul\":18040:18065   */\n      swap3\n      pop\n        /* \"#utility.yul\":18084:18085   */\n      dup3\n        /* \"#utility.yul\":18074:18109   */\n      tag_389\n      jumpi\n        /* \"#utility.yul\":18089:18107   */\n      tag_390\n      tag_391\n      jump\t// in\n    tag_390:\n        /* \"#utility.yul\":18074:18109   */\n    tag_389:\n        /* \"#utility.yul\":18130:18131   */\n      dup3\n        /* \"#utility.yul\":18127:18128   */\n      dup3\n        /* \"#utility.yul\":18123:18132   */\n      mod\n        /* \"#utility.yul\":18118:18132   */\n      swap1\n      pop\n        /* \"#utility.yul\":17962:18138   */\n      swap3\n      swap2\n      pop\n      pop\n      jump\t// out\n        /* \"#utility.yul\":18144:18324   */\n    tag_343:\n        /* \"#utility.yul\":18192:18269   */\n      0x4e487b7100000000000000000000000000000000000000000000000000000000\n        /* \"#utility.yul\":18189:18190   */\n      0x00\n        /* \"#utility.yul\":18182:18270   */\n      mstore\n        /* \"#utility.yul\":18289:18293   */\n      0x11\n        /* \"#utility.yul\":18286:18287   */\n      0x04\n        /* \"#utility.yul\":18279:18294   */\n      mstore\n        /* \"#utility.yul\":18313:18317   */\n      0x24\n        /* \"#utility.yul\":18310:18311   */\n      0x00\n        /* \"#utility.yul\":18303:18318   */\n      revert\n        /* \"#utility.yul\":18330:18510   */\n    tag_391:\n        /* \"#utility.yul\":18378:18455   */\n      0x4e487b7100000000000000000000000000000000000000000000000000000000\n        /* \"#utility.yul\":18375:18376   */\n      0x00\n        /* \"#utility.yul\":18368:18456   */\n      mstore\n        /* \"#utility.yul\":18475:18479   */\n      0x12\n        /* \"#utility.yul\":18472:18473   */\n      0x04\n        /* \"#utility.yul\":18465:18480   */\n      mstore\n        /* \"#utility.yul\":18499:18503   */\n      0x24\n        /* \"#utility.yul\":18496:18497   */\n      0x00\n        /* \"#utility.yul\":18489:18504   */\n      revert\n        /* \"#utility.yul\":18516:18696   */\n    tag_370:\n        /* \"#utility.yul\":18564:18641   */\n      0x4e487b7100000000000000000000000000000000000000000000000000000000\n        /* \"#utility.yul\":18561:18562   */\n      0x00\n        /* \"#utility.yul\":18554:18642   */\n      mstore\n        /* \"#utility.yul\":18661:18665   */\n      0x22\n        /* \"#utility.yul\":18658:18659   */\n      0x04\n        /* \"#utility.yul\":18651:18666   */\n      mstore\n        /* \"#utility.yul\":18685:18689   */\n      0x24\n        /* \"#utility.yul\":18682:18683   */\n      0x00\n        /* \"#utility.yul\":18675:18690   */\n      revert\n        /* \"#utility.yul\":18702:18882   */\n    tag_102:\n        /* \"#utility.yul\":18750:18827   */\n      0x4e487b7100000000000000000000000000000000000000000000000000000000\n        /* \"#utility.yul\":18747:18748   */\n      0x00\n        /* \"#utility.yul\":18740:18828   */\n      mstore\n        /* \"#utility.yul\":18847:18851   */\n      0x32\n        /* \"#utility.yul\":18844:18845   */\n      0x04\n        /* \"#utility.yul\":18837:18852   */\n      mstore\n        /* \"#utility.yul\":18871:18875   */\n      0x24\n        /* \"#utility.yul\":18868:18869   */\n      0x00\n        /* \"#utility.yul\":18861:18876   */\n      revert\n        /* \"#utility.yul\":18888:19068   */\n    tag_109:\n        /* \"#utility.yul\":18936:19013   */\n      0x4e487b7100000000000000000000000000000000000000000000000000000000\n        /* \"#utility.yul\":18933:18934   */\n      0x00\n        /* \"#utility.yul\":18926:19014   */\n      mstore\n        /* \"#utility.yul\":19033:19037   */\n      0x41\n        /* \"#utility.yul\":19030:19031   */\n      0x04\n        /* \"#utility.yul\":19023:19038   */\n      mstore\n        /* \"#utility.yul\":19057:19061   */\n      0x24\n        /* \"#utility.yul\":19054:19055   */\n      0x00\n        /* \"#utility.yul\":19047:19062   */\n      revert\n        /* \"#utility.yul\":19074:19191   */\n    tag_170:\n        /* \"#utility.yul\":19183:19184   */\n      0x00\n        /* \"#utility.yul\":19180:19181   */\n      dup1\n        /* \"#utility.yul\":19173:19185   */\n      revert\n        /* \"#utility.yul\":19197:19314   */\n    tag_155:\n        /* \"#utility.yul\":19306:19307   */\n      0x00\n        /* \"#utility.yul\":19303:19304   */\n      dup1\n        /* \"#utility.yul\":19296:19308   */\n      revert\n        /* \"#utility.yul\":19320:19437   */\n    tag_194:\n        /* \"#utility.yul\":19429:19430   */\n      0x00\n        /* \"#utility.yul\":19426:19427   */\n      dup1\n        /* \"#utility.yul\":19419:19431   */\n      revert\n        /* \"#utility.yul\":19443:19560   */\n    tag_179:\n        /* \"#utility.yul\":19552:19553   */\n      0x00\n        /* \"#utility.yul\":19549:19550   */\n      dup1\n        /* \"#utility.yul\":19542:19554   */\n      revert\n        /* \"#utility.yul\":19566:19668   */\n    tag_245:\n        /* \"#utility.yul\":19607:19613   */\n      0x00\n        /* \"#utility.yul\":19658:19660   */\n      0x1f\n        /* \"#utility.yul\":19654:19661   */\n      not\n        /* \"#utility.yul\":19649:19651   */\n      0x1f\n        /* \"#utility.yul\":19642:19647   */\n      dup4\n        /* \"#utility.yul\":19638:19652   */\n      add\n        /* \"#utility.yul\":19634:19662   */\n      and\n        /* \"#utility.yul\":19624:19662   */\n      swap1\n      pop\n        /* \"#utility.yul\":19566:19668   */\n      swap2\n      swap1\n      pop\n      jump\t// out\n        /* \"#utility.yul\":19674:19768   */\n    tag_384:\n        /* \"#utility.yul\":19707:19715   */\n      0x00\n        /* \"#utility.yul\":19755:19760   */\n      dup2\n        /* \"#utility.yul\":19751:19753   */\n      0x60\n        /* \"#utility.yul\":19747:19761   */\n      shl\n        /* \"#utility.yul\":19726:19761   */\n      swap1\n      pop\n        /* \"#utility.yul\":19674:19768   */\n      swap2\n      swap1\n      pop\n      jump\t// out\n        /* \"#utility.yul\":19774:19944   */\n    tag_256:\n        /* \"#utility.yul\":19914:19936   */\n      0x76616c75652063616e6e6f74206265206e756c6c000000000000000000000000\n        /* \"#utility.yul\":19910:19911   */\n      0x00\n        /* \"#utility.yul\":19902:19908   */\n      dup3\n        /* \"#utility.yul\":19898:19912   */\n      add\n        /* \"#utility.yul\":19891:19937   */\n      mstore\n        /* \"#utility.yul\":19774:19944   */\n      pop\n      jump\t// out\n        /* \"#utility.yul\":19950:20172   */\n    tag_261:\n        /* \"#utility.yul\":20090:20124   */\n      0x546865206f776e65722063616e6e6f7420796574206164642061206e65772068\n        /* \"#utility.yul\":20086:20087   */\n      0x00\n        /* \"#utility.yul\":20078:20084   */\n      dup3\n        /* \"#utility.yul\":20074:20088   */\n      add\n        /* \"#utility.yul\":20067:20125   */\n      mstore\n        /* \"#utility.yul\":20159:20164   */\n      0x6f6d650000000000000000000000000000000000000000000000000000000000\n        /* \"#utility.yul\":20154:20156   */\n      0x20\n        /* \"#utility.yul\":20146:20152   */\n      dup3\n        /* \"#utility.yul\":20142:20157   */\n      add\n        /* \"#utility.yul\":20135:20165   */\n      mstore\n        /* \"#utility.yul\":19950:20172   */\n      pop\n      jump\t// out\n        /* \"#utility.yul\":20178:20355   */\n    tag_266:\n        /* \"#utility.yul\":20318:20347   */\n      0x7468697320686f757365496420616c7265616479206578697374730000000000\n        /* \"#utility.yul\":20314:20315   */\n      0x00\n        /* \"#utility.yul\":20306:20312   */\n      dup3\n        /* \"#utility.yul\":20302:20316   */\n      add\n        /* \"#utility.yul\":20295:20348   */\n      mstore\n        /* \"#utility.yul\":20178:20355   */\n      pop\n      jump\t// out\n        /* \"#utility.yul\":20361:20591   */\n    tag_271:\n        /* \"#utility.yul\":20501:20535   */\n      0x596f7520646f206e6f7420686176652061636365737320746f2064656c657465\n        /* \"#utility.yul\":20497:20498   */\n      0x00\n        /* \"#utility.yul\":20489:20495   */\n      dup3\n        /* \"#utility.yul\":20485:20499   */\n      add\n        /* \"#utility.yul\":20478:20536   */\n      mstore\n        /* \"#utility.yul\":20570:20583   */\n      0x207468697320686f757365000000000000000000000000000000000000000000\n        /* \"#utility.yul\":20565:20567   */\n      0x20\n        /* \"#utility.yul\":20557:20563   */\n      dup3\n        /* \"#utility.yul\":20553:20568   */\n      add\n        /* \"#utility.yul\":20546:20584   */\n      mstore\n        /* \"#utility.yul\":20361:20591   */\n      pop\n      jump\t// out\n        /* \"#utility.yul\":20597:20719   */\n    tag_161:\n        /* \"#utility.yul\":20670:20694   */\n      tag_408\n        /* \"#utility.yul\":20688:20693   */\n      dup2\n        /* \"#utility.yul\":20670:20694   */\n      tag_212\n      jump\t// in\n    tag_408:\n        /* \"#utility.yul\":20663:20668   */\n      dup2\n        /* \"#utility.yul\":20660:20695   */\n      eq\n        /* \"#utility.yul\":20650:20713   */\n      tag_409\n      jumpi\n        /* \"#utility.yul\":20709:20710   */\n      0x00\n        /* \"#utility.yul\":20706:20707   */\n      dup1\n        /* \"#utility.yul\":20699:20711   */\n      revert\n        /* \"#utility.yul\":20650:20713   */\n    tag_409:\n        /* \"#utility.yul\":20597:20719   */\n      pop\n      jump\t// out\n        /* \"#utility.yul\":20725:20841   */\n    tag_165:\n        /* \"#utility.yul\":20795:20816   */\n      tag_411\n        /* \"#utility.yul\":20810:20815   */\n      dup2\n        /* \"#utility.yul\":20795:20816   */\n      tag_235\n      jump\t// in\n    tag_411:\n        /* \"#utility.yul\":20788:20793   */\n      dup2\n        /* \"#utility.yul\":20785:20817   */\n      eq\n        /* \"#utility.yul\":20775:20835   */\n      tag_412\n      jumpi\n        /* \"#utility.yul\":20831:20832   */\n      0x00\n        /* \"#utility.yul\":20828:20829   */\n      dup1\n        /* \"#utility.yul\":20821:20833   */\n      revert\n        /* \"#utility.yul\":20775:20835   */\n    tag_412:\n        /* \"#utility.yul\":20725:20841   */\n      pop\n      jump\t// out\n        /* \"#utility.yul\":20847:20969   */\n    tag_175:\n        /* \"#utility.yul\":20920:20944   */\n      tag_414\n        /* \"#utility.yul\":20938:20943   */\n      dup2\n        /* \"#utility.yul\":20920:20944   */\n      tag_274\n      jump\t// in\n    tag_414:\n        /* \"#utility.yul\":20913:20918   */\n      dup2\n        /* \"#utility.yul\":20910:20945   */\n      eq\n        /* \"#utility.yul\":20900:20963   */\n      tag_415\n      jumpi\n        /* \"#utility.yul\":20959:20960   */\n      0x00\n        /* \"#utility.yul\":20956:20957   */\n      dup1\n        /* \"#utility.yul\":20949:20961   */\n      revert\n        /* \"#utility.yul\":20900:20963   */\n    tag_415:\n        /* \"#utility.yul\":20847:20969   */\n      pop\n      jump\t// out\n\n    auxdata: 0xa26469706673582212207a61763429dfb2141e6fad520244214b3020a303fae12cdfffd0356d7fc8fcef64736f6c63430008070033\n}\n",
				"bytecode": {
					"linkReferences": {},
					"object": "60806040526005600055600054600a6200001a919062000098565b6001556201518060025560016003553480156200003657600080fd5b506200021b565b6000808291508390505b60018511156200008f57808604811115620000675762000066620001df565b5b6001851615620000775780820291505b808102905062000087856200020e565b945062000047565b94509492505050565b6000620000a582620001d5565b9150620000b283620001d5565b9250620000e17fffffffffffffffffffffffffffffffffffffffffffffffffffffffffffffffff8484620000e9565b905092915050565b600082620000fb5760019050620001ce565b816200010b5760009050620001ce565b81600181146200012457600281146200012f5762000165565b6001915050620001ce565b60ff841115620001445762000143620001df565b5b8360020a9150848211156200015e576200015d620001df565b5b50620001ce565b5060208310610133831016604e8410600b84101617156200019f5782820a905083811115620001995762000198620001df565b5b620001ce565b620001ae84848460016200003d565b92509050818404811115620001c857620001c7620001df565b5b81810290505b9392505050565b6000819050919050565b7f4e487b7100000000000000000000000000000000000000000000000000000000600052601160045260246000fd5b60008160011c9050919050565b611857806200022b6000396000f3fe6080604052600436106100705760003560e01c80634d79658b1161004e5780634d79658b14610118578063aeda852f14610134578063c45e1b2514610179578063fdec9c9f146101b657610070565b806306e361bd14610075578063191611611461009e5780633c3b0b4a146100db575b600080fd5b34801561008157600080fd5b5061009c60048036038101906100979190610d46565b6101df565b005b3480156100aa57600080fd5b506100c560048036038101906100c09190610d73565b610327565b6040516100d29190611197565b60405180910390f35b3480156100e757600080fd5b5061010260048036038101906100fd9190610d46565b610606565b60405161010f91906110f5565b60405180910390f35b610132600480360381019061012d9190610d46565b610718565b005b34801561014057600080fd5b5061015b60048036038101906101569190610d46565b610878565b6040516101709998979695949392919061120c565b60405180910390f35b34801561018557600080fd5b506101a0600480360381019061019b9190610d46565b61099b565b6040516101ad91906110d3565b60405180910390f35b3480156101c257600080fd5b506101dd60048036038101906101d89190610e0a565b610b19565b005b739bf88fae8cf8bab76041c1db6467e7b37b977dd773ffffffffffffffffffffffffffffffffffffffff166323b872dd336006600085815260200190815260200160002060050160009054906101000a900473ffffffffffffffffffffffffffffffffffffffff1660066000868152602001908152602001600020600301546040518463ffffffff1660e01b815260040161027c9392919061109c565b602060405180830381600087803b15801561029657600080fd5b505af11580156102aa573d6000803e3d6000fd5b505050506040513d601f19601f820116820180604052508101906102ce9190610d19565b50336006600083815260200190815260200160002060060160006101000a81548173ffffffffffffffffffffffffffffffffffffffff021916908373ffffffffffffffffffffffffffffffffffffffff16021790555050565b600080848761033691906113ac565b11610376576040517f08c379a000000000000000000000000000000000000000000000000000000000815260040161036d90611117565b60405180910390fd5b6000610383848685610b72565b905060066000828152602001908152602001600020600001548114156103de576040517f08c379a00000000000000000000000000000000000000000000000000000000081526004016103d590611157565b60405180910390fd5b60405180610120016040528082815260200160035481526020018881526020018781526020018681526020018573ffffffffffffffffffffffffffffffffffffffff1681526020018573ffffffffffffffffffffffffffffffffffffffff1681526020018481526020016000151581525060066000838152602001908152602001600020600082015181600001556020820151816001015560408201518160020155606082015181600301556080820151816004015560a08201518160050160006101000a81548173ffffffffffffffffffffffffffffffffffffffff021916908373ffffffffffffffffffffffffffffffffffffffff16021790555060c08201518160060160006101000a81548173ffffffffffffffffffffffffffffffffffffffff021916908373ffffffffffffffffffffffffffffffffffffffff16021790555060e082015181600701908051906020019061053e929190610bc7565b506101008201518160080160006101000a81548160ff021916908315150217905550905050610579600254426105749190611356565b610bbd565b6005819080600181540180825580915050600190039060005260206000200160009091909190915055600360008154809291906105b590611527565b91905055507f3070c472a527c6fdf9d1d29d3f8de3f74a2de6ef97db5cc15b587188b278951f81858989876040516105f19594939291906111b2565b60405180910390a18091505095945050505050565b60603373ffffffffffffffffffffffffffffffffffffffff166006600084815260200190815260200160002060050160009054906101000a900473ffffffffffffffffffffffffffffffffffffffff1673ffffffffffffffffffffffffffffffffffffffff16146106ac576040517f08c379a00000000000000000000000000000000000000000000000000000000081526004016106a390611177565b60405180910390fd5b60016006600084815260200190815260200160002060080160006101000a81548160ff0219169083151502179055506040518060400160405280601581526020017f64656c69737420776173207375636365737366756c00000000000000000000008152509050919050565b600660008281526020019081526020016000206002015434101561073b57600080fd5b3373ffffffffffffffffffffffffffffffffffffffff166108fc6006600084815260200190815260200160002060020154346107779190611406565b9081150290604051600060405180830381858888f193505050501580156107a2573d6000803e3d6000fd5b50336006600083815260200190815260200160002060060160006101000a81548173ffffffffffffffffffffffffffffffffffffffff021916908373ffffffffffffffffffffffffffffffffffffffff1602179055506006600082815260200190815260200160002060050160009054906101000a900473ffffffffffffffffffffffffffffffffffffffff1673ffffffffffffffffffffffffffffffffffffffff166108fc349081150290604051600060405180830381858888f19350505050158015610874573d6000803e3d6000fd5b5050565b60066020528060005260406000206000915090508060000154908060010154908060020154908060030154908060040154908060050160009054906101000a900473ffffffffffffffffffffffffffffffffffffffff16908060060160009054906101000a900473ffffffffffffffffffffffffffffffffffffffff1690806007018054610905906114c4565b80601f0160208091040260200160405190810160405280929190818152602001828054610931906114c4565b801561097e5780601f106109535761010080835404028352916020019161097e565b820191906000526020600020905b81548152906001019060200180831161096157829003601f168201915b5050505050908060080160009054906101000a900460ff16905089565b60606000805b600580549050811015610a0c578360066000600584815481106109c7576109c661165c565b5b906000526020600020015481526020019081526020016000206002015410156109f95781806109f590611527565b9250505b8080610a0490611527565b9150506109a1565b5060008167ffffffffffffffff811115610a2957610a2861168b565b5b604051908082528060200260200182016040528015610a575781602001602082028036833780820191505090505b50905060005b600580549050811015610b0e57846006600060058481548110610a8357610a8261165c565b5b90600052602060002001548152602001908152602001600020600201541015610afb576006600060058381548110610abe57610abd61165c565b5b9060005260206000200154815260200190815260200160002060000154828281518110610aee57610aed61165c565b5b6020026020010181815250505b8080610b0690611527565b915050610a5d565b508092505050919050565b426004541115610b5e576040517f08c379a0000000000000000000000000000000000000000000000000000000008152600401610b5590611137565b60405180910390fd5b610b6b8484843385610327565b5050505050565b600080848484604051602001610b8a93929190611063565b6040516020818303038152906040528051906020012060001c905060015481610bb3919061159e565b9150509392505050565b8060048190555050565b828054610bd3906114c4565b90600052602060002090601f016020900481019282610bf55760008555610c3c565b82601f10610c0e57805160ff1916838001178555610c3c565b82800160010185558215610c3c579182015b82811115610c3b578251825591602001919060010190610c20565b5b509050610c499190610c4d565b5090565b5b80821115610c66576000816000905550600101610c4e565b5090565b6000610c7d610c78846112c5565b6112a0565b905082815260208101848484011115610c9957610c986116bf565b5b610ca4848285611482565b509392505050565b600081359050610cbb816117dc565b92915050565b600081519050610cd0816117f3565b92915050565b600082601f830112610ceb57610cea6116ba565b5b8135610cfb848260208601610c6a565b91505092915050565b600081359050610d138161180a565b92915050565b600060208284031215610d2f57610d2e6116c9565b5b6000610d3d84828501610cc1565b91505092915050565b600060208284031215610d5c57610d5b6116c9565b5b6000610d6a84828501610d04565b91505092915050565b600080600080600060a08688031215610d8f57610d8e6116c9565b5b6000610d9d88828901610d04565b9550506020610dae88828901610d04565b9450506040610dbf88828901610d04565b9350506060610dd088828901610cac565b925050608086013567ffffffffffffffff811115610df157610df06116c4565b5b610dfd88828901610cd6565b9150509295509295909350565b60008060008060808587031215610e2457610e236116c9565b5b6000610e3287828801610d04565b9450506020610e4387828801610d04565b9350506040610e5487828801610d04565b925050606085013567ffffffffffffffff811115610e7557610e746116c4565b5b610e8187828801610cd6565b91505092959194509250565b6000610e99838361102e565b60208301905092915050565b610eae8161143a565b82525050565b610ec5610ec08261143a565b611570565b82525050565b6000610ed682611306565b610ee08185611329565b9350610eeb836112f6565b8060005b83811015610f1c578151610f038882610e8d565b9750610f0e8361131c565b925050600181019050610eef565b5085935050505092915050565b610f328161144c565b82525050565b6000610f4382611311565b610f4d818561133a565b9350610f5d818560208601611491565b610f66816116ce565b840191505092915050565b6000610f7c82611311565b610f86818561134b565b9350610f96818560208601611491565b80840191505092915050565b6000610faf60148361133a565b9150610fba826116ec565b602082019050919050565b6000610fd260238361133a565b9150610fdd82611715565b604082019050919050565b6000610ff5601b8361133a565b915061100082611764565b602082019050919050565b6000611018602b8361133a565b91506110238261178d565b604082019050919050565b61103781611478565b82525050565b61104681611478565b82525050565b61105d61105882611478565b611594565b82525050565b600061106f8286610eb4565b60148201915061107f828561104c565b60208201915061108f8284610f71565b9150819050949350505050565b60006060820190506110b16000830186610ea5565b6110be6020830185610ea5565b6110cb604083018461103d565b949350505050565b600060208201905081810360008301526110ed8184610ecb565b905092915050565b6000602082019050818103600083015261110f8184610f38565b905092915050565b6000602082019050818103600083015261113081610fa2565b9050919050565b6000602082019050818103600083015261115081610fc5565b9050919050565b6000602082019050818103600083015261117081610fe8565b9050919050565b600060208201905081810360008301526111908161100b565b9050919050565b60006020820190506111ac600083018461103d565b92915050565b600060a0820190506111c7600083018861103d565b6111d46020830187610ea5565b6111e1604083018661103d565b6111ee606083018561103d565b81810360808301526112008184610f38565b90509695505050505050565b600061012082019050611222600083018c61103d565b61122f602083018b61103d565b61123c604083018a61103d565b611249606083018961103d565b611256608083018861103d565b61126360a0830187610ea5565b61127060c0830186610ea5565b81810360e08301526112828185610f38565b9050611292610100830184610f29565b9a9950505050505050505050565b60006112aa6112bb565b90506112b682826114f6565b919050565b6000604051905090565b600067ffffffffffffffff8211156112e0576112df61168b565b5b6112e9826116ce565b9050602081019050919050565b6000819050602082019050919050565b600081519050919050565b600081519050919050565b6000602082019050919050565b600082825260208201905092915050565b600082825260208201905092915050565b600081905092915050565b600061136182611478565b915061136c83611478565b9250827fffffffffffffffffffffffffffffffffffffffffffffffffffffffffffffffff038211156113a1576113a06115cf565b5b828201905092915050565b60006113b782611478565b91506113c283611478565b9250817fffffffffffffffffffffffffffffffffffffffffffffffffffffffffffffffff04831182151516156113fb576113fa6115cf565b5b828202905092915050565b600061141182611478565b915061141c83611478565b92508282101561142f5761142e6115cf565b5b828203905092915050565b600061144582611458565b9050919050565b60008115159050919050565b600073ffffffffffffffffffffffffffffffffffffffff82169050919050565b6000819050919050565b82818337600083830152505050565b60005b838110156114af578082015181840152602081019050611494565b838111156114be576000848401525b50505050565b600060028204905060018216806114dc57607f821691505b602082108114156114f0576114ef61162d565b5b50919050565b6114ff826116ce565b810181811067ffffffffffffffff8211171561151e5761151d61168b565b5b80604052505050565b600061153282611478565b91507fffffffffffffffffffffffffffffffffffffffffffffffffffffffffffffffff821415611565576115646115cf565b5b600182019050919050565b600061157b82611582565b9050919050565b600061158d826116df565b9050919050565b6000819050919050565b60006115a982611478565b91506115b483611478565b9250826115c4576115c36115fe565b5b828206905092915050565b7f4e487b7100000000000000000000000000000000000000000000000000000000600052601160045260246000fd5b7f4e487b7100000000000000000000000000000000000000000000000000000000600052601260045260246000fd5b7f4e487b7100000000000000000000000000000000000000000000000000000000600052602260045260246000fd5b7f4e487b7100000000000000000000000000000000000000000000000000000000600052603260045260246000fd5b7f4e487b7100000000000000000000000000000000000000000000000000000000600052604160045260246000fd5b600080fd5b600080fd5b600080fd5b600080fd5b6000601f19601f8301169050919050565b60008160601b9050919050565b7f76616c75652063616e6e6f74206265206e756c6c000000000000000000000000600082015250565b7f546865206f776e65722063616e6e6f7420796574206164642061206e6577206860008201527f6f6d650000000000000000000000000000000000000000000000000000000000602082015250565b7f7468697320686f757365496420616c7265616479206578697374730000000000600082015250565b7f596f7520646f206e6f7420686176652061636365737320746f2064656c65746560008201527f207468697320686f757365000000000000000000000000000000000000000000602082015250565b6117e58161143a565b81146117f057600080fd5b50565b6117fc8161144c565b811461180757600080fd5b50565b61181381611478565b811461181e57600080fd5b5056fea26469706673582212207a61763429dfb2141e6fad520244214b3020a303fae12cdfffd0356d7fc8fcef64736f6c63430008070033",
					"opcodes": "PUSH1 0x80 PUSH1 0x40 MSTORE PUSH1 0x5 PUSH1 0x0 SSTORE PUSH1 0x0 SLOAD PUSH1 0xA PUSH3 0x1A SWAP2 SWAP1 PUSH3 0x98 JUMP JUMPDEST PUSH1 0x1 SSTORE PUSH3 0x15180 PUSH1 0x2 SSTORE PUSH1 0x1 PUSH1 0x3 SSTORE CALLVALUE DUP1 ISZERO PUSH3 0x36 JUMPI PUSH1 0x0 DUP1 REVERT JUMPDEST POP PUSH3 0x21B JUMP JUMPDEST PUSH1 0x0 DUP1 DUP3 SWAP2 POP DUP4 SWAP1 POP JUMPDEST PUSH1 0x1 DUP6 GT ISZERO PUSH3 0x8F JUMPI DUP1 DUP7 DIV DUP2 GT ISZERO PUSH3 0x67 JUMPI PUSH3 0x66 PUSH3 0x1DF JUMP JUMPDEST JUMPDEST PUSH1 0x1 DUP6 AND ISZERO PUSH3 0x77 JUMPI DUP1 DUP3 MUL SWAP2 POP JUMPDEST DUP1 DUP2 MUL SWAP1 POP PUSH3 0x87 DUP6 PUSH3 0x20E JUMP JUMPDEST SWAP5 POP PUSH3 0x47 JUMP JUMPDEST SWAP5 POP SWAP5 SWAP3 POP POP POP JUMP JUMPDEST PUSH1 0x0 PUSH3 0xA5 DUP3 PUSH3 0x1D5 JUMP JUMPDEST SWAP2 POP PUSH3 0xB2 DUP4 PUSH3 0x1D5 JUMP JUMPDEST SWAP3 POP PUSH3 0xE1 PUSH32 0xFFFFFFFFFFFFFFFFFFFFFFFFFFFFFFFFFFFFFFFFFFFFFFFFFFFFFFFFFFFFFFFF DUP5 DUP5 PUSH3 0xE9 JUMP JUMPDEST SWAP1 POP SWAP3 SWAP2 POP POP JUMP JUMPDEST PUSH1 0x0 DUP3 PUSH3 0xFB JUMPI PUSH1 0x1 SWAP1 POP PUSH3 0x1CE JUMP JUMPDEST DUP2 PUSH3 0x10B JUMPI PUSH1 0x0 SWAP1 POP PUSH3 0x1CE JUMP JUMPDEST DUP2 PUSH1 0x1 DUP2 EQ PUSH3 0x124 JUMPI PUSH1 0x2 DUP2 EQ PUSH3 0x12F JUMPI PUSH3 0x165 JUMP JUMPDEST PUSH1 0x1 SWAP2 POP POP PUSH3 0x1CE JUMP JUMPDEST PUSH1 0xFF DUP5 GT ISZERO PUSH3 0x144 JUMPI PUSH3 0x143 PUSH3 0x1DF JUMP JUMPDEST JUMPDEST DUP4 PUSH1 0x2 EXP SWAP2 POP DUP5 DUP3 GT ISZERO PUSH3 0x15E JUMPI PUSH3 0x15D PUSH3 0x1DF JUMP JUMPDEST JUMPDEST POP PUSH3 0x1CE JUMP JUMPDEST POP PUSH1 0x20 DUP4 LT PUSH2 0x133 DUP4 LT AND PUSH1 0x4E DUP5 LT PUSH1 0xB DUP5 LT AND OR ISZERO PUSH3 0x19F JUMPI DUP3 DUP3 EXP SWAP1 POP DUP4 DUP2 GT ISZERO PUSH3 0x199 JUMPI PUSH3 0x198 PUSH3 0x1DF JUMP JUMPDEST JUMPDEST PUSH3 0x1CE JUMP JUMPDEST PUSH3 0x1AE DUP5 DUP5 DUP5 PUSH1 0x1 PUSH3 0x3D JUMP JUMPDEST SWAP3 POP SWAP1 POP DUP2 DUP5 DIV DUP2 GT ISZERO PUSH3 0x1C8 JUMPI PUSH3 0x1C7 PUSH3 0x1DF JUMP JUMPDEST JUMPDEST DUP2 DUP2 MUL SWAP1 POP JUMPDEST SWAP4 SWAP3 POP POP POP JUMP JUMPDEST PUSH1 0x0 DUP2 SWAP1 POP SWAP2 SWAP1 POP JUMP JUMPDEST PUSH32 0x4E487B7100000000000000000000000000000000000000000000000000000000 PUSH1 0x0 MSTORE PUSH1 0x11 PUSH1 0x4 MSTORE PUSH1 0x24 PUSH1 0x0 REVERT JUMPDEST PUSH1 0x0 DUP2 PUSH1 0x1 SHR SWAP1 POP SWAP2 SWAP1 POP JUMP JUMPDEST PUSH2 0x1857 DUP1 PUSH3 0x22B PUSH1 0x0 CODECOPY PUSH1 0x0 RETURN INVALID PUSH1 0x80 PUSH1 0x40 MSTORE PUSH1 0x4 CALLDATASIZE LT PUSH2 0x70 JUMPI PUSH1 0x0 CALLDATALOAD PUSH1 0xE0 SHR DUP1 PUSH4 0x4D79658B GT PUSH2 0x4E JUMPI DUP1 PUSH4 0x4D79658B EQ PUSH2 0x118 JUMPI DUP1 PUSH4 0xAEDA852F EQ PUSH2 0x134 JUMPI DUP1 PUSH4 0xC45E1B25 EQ PUSH2 0x179 JUMPI DUP1 PUSH4 0xFDEC9C9F EQ PUSH2 0x1B6 JUMPI PUSH2 0x70 JUMP JUMPDEST DUP1 PUSH4 0x6E361BD EQ PUSH2 0x75 JUMPI DUP1 PUSH4 0x19161161 EQ PUSH2 0x9E JUMPI DUP1 PUSH4 0x3C3B0B4A EQ PUSH2 0xDB JUMPI JUMPDEST PUSH1 0x0 DUP1 REVERT JUMPDEST CALLVALUE DUP1 ISZERO PUSH2 0x81 JUMPI PUSH1 0x0 DUP1 REVERT JUMPDEST POP PUSH2 0x9C PUSH1 0x4 DUP1 CALLDATASIZE SUB DUP2 ADD SWAP1 PUSH2 0x97 SWAP2 SWAP1 PUSH2 0xD46 JUMP JUMPDEST PUSH2 0x1DF JUMP JUMPDEST STOP JUMPDEST CALLVALUE DUP1 ISZERO PUSH2 0xAA JUMPI PUSH1 0x0 DUP1 REVERT JUMPDEST POP PUSH2 0xC5 PUSH1 0x4 DUP1 CALLDATASIZE SUB DUP2 ADD SWAP1 PUSH2 0xC0 SWAP2 SWAP1 PUSH2 0xD73 JUMP JUMPDEST PUSH2 0x327 JUMP JUMPDEST PUSH1 0x40 MLOAD PUSH2 0xD2 SWAP2 SWAP1 PUSH2 0x1197 JUMP JUMPDEST PUSH1 0x40 MLOAD DUP1 SWAP2 SUB SWAP1 RETURN JUMPDEST CALLVALUE DUP1 ISZERO PUSH2 0xE7 JUMPI PUSH1 0x0 DUP1 REVERT JUMPDEST POP PUSH2 0x102 PUSH1 0x4 DUP1 CALLDATASIZE SUB DUP2 ADD SWAP1 PUSH2 0xFD SWAP2 SWAP1 PUSH2 0xD46 JUMP JUMPDEST PUSH2 0x606 JUMP JUMPDEST PUSH1 0x40 MLOAD PUSH2 0x10F SWAP2 SWAP1 PUSH2 0x10F5 JUMP JUMPDEST PUSH1 0x40 MLOAD DUP1 SWAP2 SUB SWAP1 RETURN JUMPDEST PUSH2 0x132 PUSH1 0x4 DUP1 CALLDATASIZE SUB DUP2 ADD SWAP1 PUSH2 0x12D SWAP2 SWAP1 PUSH2 0xD46 JUMP JUMPDEST PUSH2 0x718 JUMP JUMPDEST STOP JUMPDEST CALLVALUE DUP1 ISZERO PUSH2 0x140 JUMPI PUSH1 0x0 DUP1 REVERT JUMPDEST POP PUSH2 0x15B PUSH1 0x4 DUP1 CALLDATASIZE SUB DUP2 ADD SWAP1 PUSH2 0x156 SWAP2 SWAP1 PUSH2 0xD46 JUMP JUMPDEST PUSH2 0x878 JUMP JUMPDEST PUSH1 0x40 MLOAD PUSH2 0x170 SWAP10 SWAP9 SWAP8 SWAP7 SWAP6 SWAP5 SWAP4 SWAP3 SWAP2 SWAP1 PUSH2 0x120C JUMP JUMPDEST PUSH1 0x40 MLOAD DUP1 SWAP2 SUB SWAP1 RETURN JUMPDEST CALLVALUE DUP1 ISZERO PUSH2 0x185 JUMPI PUSH1 0x0 DUP1 REVERT JUMPDEST POP PUSH2 0x1A0 PUSH1 0x4 DUP1 CALLDATASIZE SUB DUP2 ADD SWAP1 PUSH2 0x19B SWAP2 SWAP1 PUSH2 0xD46 JUMP JUMPDEST PUSH2 0x99B JUMP JUMPDEST PUSH1 0x40 MLOAD PUSH2 0x1AD SWAP2 SWAP1 PUSH2 0x10D3 JUMP JUMPDEST PUSH1 0x40 MLOAD DUP1 SWAP2 SUB SWAP1 RETURN JUMPDEST CALLVALUE DUP1 ISZERO PUSH2 0x1C2 JUMPI PUSH1 0x0 DUP1 REVERT JUMPDEST POP PUSH2 0x1DD PUSH1 0x4 DUP1 CALLDATASIZE SUB DUP2 ADD SWAP1 PUSH2 0x1D8 SWAP2 SWAP1 PUSH2 0xE0A JUMP JUMPDEST PUSH2 0xB19 JUMP JUMPDEST STOP JUMPDEST PUSH20 0x9BF88FAE8CF8BAB76041C1DB6467E7B37B977DD7 PUSH20 0xFFFFFFFFFFFFFFFFFFFFFFFFFFFFFFFFFFFFFFFF AND PUSH4 0x23B872DD CALLER PUSH1 0x6 PUSH1 0x0 DUP6 DUP2 MSTORE PUSH1 0x20 ADD SWAP1 DUP2 MSTORE PUSH1 0x20 ADD PUSH1 0x0 KECCAK256 PUSH1 0x5 ADD PUSH1 0x0 SWAP1 SLOAD SWAP1 PUSH2 0x100 EXP SWAP1 DIV PUSH20 0xFFFFFFFFFFFFFFFFFFFFFFFFFFFFFFFFFFFFFFFF AND PUSH1 0x6 PUSH1 0x0 DUP7 DUP2 MSTORE PUSH1 0x20 ADD SWAP1 DUP2 MSTORE PUSH1 0x20 ADD PUSH1 0x0 KECCAK256 PUSH1 0x3 ADD SLOAD PUSH1 0x40 MLOAD DUP5 PUSH4 0xFFFFFFFF AND PUSH1 0xE0 SHL DUP2 MSTORE PUSH1 0x4 ADD PUSH2 0x27C SWAP4 SWAP3 SWAP2 SWAP1 PUSH2 0x109C JUMP JUMPDEST PUSH1 0x20 PUSH1 0x40 MLOAD DUP1 DUP4 SUB DUP2 PUSH1 0x0 DUP8 DUP1 EXTCODESIZE ISZERO DUP1 ISZERO PUSH2 0x296 JUMPI PUSH1 0x0 DUP1 REVERT JUMPDEST POP GAS CALL ISZERO DUP1 ISZERO PUSH2 0x2AA JUMPI RETURNDATASIZE PUSH1 0x0 DUP1 RETURNDATACOPY RETURNDATASIZE PUSH1 0x0 REVERT JUMPDEST POP POP POP POP PUSH1 0x40 MLOAD RETURNDATASIZE PUSH1 0x1F NOT PUSH1 0x1F DUP3 ADD AND DUP3 ADD DUP1 PUSH1 0x40 MSTORE POP DUP2 ADD SWAP1 PUSH2 0x2CE SWAP2 SWAP1 PUSH2 0xD19 JUMP JUMPDEST POP CALLER PUSH1 0x6 PUSH1 0x0 DUP4 DUP2 MSTORE PUSH1 0x20 ADD SWAP1 DUP2 MSTORE PUSH1 0x20 ADD PUSH1 0x0 KECCAK256 PUSH1 0x6 ADD PUSH1 0x0 PUSH2 0x100 EXP DUP2 SLOAD DUP2 PUSH20 0xFFFFFFFFFFFFFFFFFFFFFFFFFFFFFFFFFFFFFFFF MUL NOT AND SWAP1 DUP4 PUSH20 0xFFFFFFFFFFFFFFFFFFFFFFFFFFFFFFFFFFFFFFFF AND MUL OR SWAP1 SSTORE POP POP JUMP JUMPDEST PUSH1 0x0 DUP1 DUP5 DUP8 PUSH2 0x336 SWAP2 SWAP1 PUSH2 0x13AC JUMP JUMPDEST GT PUSH2 0x376 JUMPI PUSH1 0x40 MLOAD PUSH32 0x8C379A000000000000000000000000000000000000000000000000000000000 DUP2 MSTORE PUSH1 0x4 ADD PUSH2 0x36D SWAP1 PUSH2 0x1117 JUMP JUMPDEST PUSH1 0x40 MLOAD DUP1 SWAP2 SUB SWAP1 REVERT JUMPDEST PUSH1 0x0 PUSH2 0x383 DUP5 DUP7 DUP6 PUSH2 0xB72 JUMP JUMPDEST SWAP1 POP PUSH1 0x6 PUSH1 0x0 DUP3 DUP2 MSTORE PUSH1 0x20 ADD SWAP1 DUP2 MSTORE PUSH1 0x20 ADD PUSH1 0x0 KECCAK256 PUSH1 0x0 ADD SLOAD DUP2 EQ ISZERO PUSH2 0x3DE JUMPI PUSH1 0x40 MLOAD PUSH32 0x8C379A000000000000000000000000000000000000000000000000000000000 DUP2 MSTORE PUSH1 0x4 ADD PUSH2 0x3D5 SWAP1 PUSH2 0x1157 JUMP JUMPDEST PUSH1 0x40 MLOAD DUP1 SWAP2 SUB SWAP1 REVERT JUMPDEST PUSH1 0x40 MLOAD DUP1 PUSH2 0x120 ADD PUSH1 0x40 MSTORE DUP1 DUP3 DUP2 MSTORE PUSH1 0x20 ADD PUSH1 0x3 SLOAD DUP2 MSTORE PUSH1 0x20 ADD DUP9 DUP2 MSTORE PUSH1 0x20 ADD DUP8 DUP2 MSTORE PUSH1 0x20 ADD DUP7 DUP2 MSTORE PUSH1 0x20 ADD DUP6 PUSH20 0xFFFFFFFFFFFFFFFFFFFFFFFFFFFFFFFFFFFFFFFF AND DUP2 MSTORE PUSH1 0x20 ADD DUP6 PUSH20 0xFFFFFFFFFFFFFFFFFFFFFFFFFFFFFFFFFFFFFFFF AND DUP2 MSTORE PUSH1 0x20 ADD DUP5 DUP2 MSTORE PUSH1 0x20 ADD PUSH1 0x0 ISZERO ISZERO DUP2 MSTORE POP PUSH1 0x6 PUSH1 0x0 DUP4 DUP2 MSTORE PUSH1 0x20 ADD SWAP1 DUP2 MSTORE PUSH1 0x20 ADD PUSH1 0x0 KECCAK256 PUSH1 0x0 DUP3 ADD MLOAD DUP2 PUSH1 0x0 ADD SSTORE PUSH1 0x20 DUP3 ADD MLOAD DUP2 PUSH1 0x1 ADD SSTORE PUSH1 0x40 DUP3 ADD MLOAD DUP2 PUSH1 0x2 ADD SSTORE PUSH1 0x60 DUP3 ADD MLOAD DUP2 PUSH1 0x3 ADD SSTORE PUSH1 0x80 DUP3 ADD MLOAD DUP2 PUSH1 0x4 ADD SSTORE PUSH1 0xA0 DUP3 ADD MLOAD DUP2 PUSH1 0x5 ADD PUSH1 0x0 PUSH2 0x100 EXP DUP2 SLOAD DUP2 PUSH20 0xFFFFFFFFFFFFFFFFFFFFFFFFFFFFFFFFFFFFFFFF MUL NOT AND SWAP1 DUP4 PUSH20 0xFFFFFFFFFFFFFFFFFFFFFFFFFFFFFFFFFFFFFFFF AND MUL OR SWAP1 SSTORE POP PUSH1 0xC0 DUP3 ADD MLOAD DUP2 PUSH1 0x6 ADD PUSH1 0x0 PUSH2 0x100 EXP DUP2 SLOAD DUP2 PUSH20 0xFFFFFFFFFFFFFFFFFFFFFFFFFFFFFFFFFFFFFFFF MUL NOT AND SWAP1 DUP4 PUSH20 0xFFFFFFFFFFFFFFFFFFFFFFFFFFFFFFFFFFFFFFFF AND MUL OR SWAP1 SSTORE POP PUSH1 0xE0 DUP3 ADD MLOAD DUP2 PUSH1 0x7 ADD SWAP1 DUP1 MLOAD SWAP1 PUSH1 0x20 ADD SWAP1 PUSH2 0x53E SWAP3 SWAP2 SWAP1 PUSH2 0xBC7 JUMP JUMPDEST POP PUSH2 0x100 DUP3 ADD MLOAD DUP2 PUSH1 0x8 ADD PUSH1 0x0 PUSH2 0x100 EXP DUP2 SLOAD DUP2 PUSH1 0xFF MUL NOT AND SWAP1 DUP4 ISZERO ISZERO MUL OR SWAP1 SSTORE POP SWAP1 POP POP PUSH2 0x579 PUSH1 0x2 SLOAD TIMESTAMP PUSH2 0x574 SWAP2 SWAP1 PUSH2 0x1356 JUMP JUMPDEST PUSH2 0xBBD JUMP JUMPDEST PUSH1 0x5 DUP2 SWAP1 DUP1 PUSH1 0x1 DUP2 SLOAD ADD DUP1 DUP3 SSTORE DUP1 SWAP2 POP POP PUSH1 0x1 SWAP1 SUB SWAP1 PUSH1 0x0 MSTORE PUSH1 0x20 PUSH1 0x0 KECCAK256 ADD PUSH1 0x0 SWAP1 SWAP2 SWAP1 SWAP2 SWAP1 SWAP2 POP SSTORE PUSH1 0x3 PUSH1 0x0 DUP2 SLOAD DUP1 SWAP3 SWAP2 SWAP1 PUSH2 0x5B5 SWAP1 PUSH2 0x1527 JUMP JUMPDEST SWAP2 SWAP1 POP SSTORE POP PUSH32 0x3070C472A527C6FDF9D1D29D3F8DE3F74A2DE6EF97DB5CC15B587188B278951F DUP2 DUP6 DUP10 DUP10 DUP8 PUSH1 0x40 MLOAD PUSH2 0x5F1 SWAP6 SWAP5 SWAP4 SWAP3 SWAP2 SWAP1 PUSH2 0x11B2 JUMP JUMPDEST PUSH1 0x40 MLOAD DUP1 SWAP2 SUB SWAP1 LOG1 DUP1 SWAP2 POP POP SWAP6 SWAP5 POP POP POP POP POP JUMP JUMPDEST PUSH1 0x60 CALLER PUSH20 0xFFFFFFFFFFFFFFFFFFFFFFFFFFFFFFFFFFFFFFFF AND PUSH1 0x6 PUSH1 0x0 DUP5 DUP2 MSTORE PUSH1 0x20 ADD SWAP1 DUP2 MSTORE PUSH1 0x20 ADD PUSH1 0x0 KECCAK256 PUSH1 0x5 ADD PUSH1 0x0 SWAP1 SLOAD SWAP1 PUSH2 0x100 EXP SWAP1 DIV PUSH20 0xFFFFFFFFFFFFFFFFFFFFFFFFFFFFFFFFFFFFFFFF AND PUSH20 0xFFFFFFFFFFFFFFFFFFFFFFFFFFFFFFFFFFFFFFFF AND EQ PUSH2 0x6AC JUMPI PUSH1 0x40 MLOAD PUSH32 0x8C379A000000000000000000000000000000000000000000000000000000000 DUP2 MSTORE PUSH1 0x4 ADD PUSH2 0x6A3 SWAP1 PUSH2 0x1177 JUMP JUMPDEST PUSH1 0x40 MLOAD DUP1 SWAP2 SUB SWAP1 REVERT JUMPDEST PUSH1 0x1 PUSH1 0x6 PUSH1 0x0 DUP5 DUP2 MSTORE PUSH1 0x20 ADD SWAP1 DUP2 MSTORE PUSH1 0x20 ADD PUSH1 0x0 KECCAK256 PUSH1 0x8 ADD PUSH1 0x0 PUSH2 0x100 EXP DUP2 SLOAD DUP2 PUSH1 0xFF MUL NOT AND SWAP1 DUP4 ISZERO ISZERO MUL OR SWAP1 SSTORE POP PUSH1 0x40 MLOAD DUP1 PUSH1 0x40 ADD PUSH1 0x40 MSTORE DUP1 PUSH1 0x15 DUP2 MSTORE PUSH1 0x20 ADD PUSH32 0x64656C69737420776173207375636365737366756C0000000000000000000000 DUP2 MSTORE POP SWAP1 POP SWAP2 SWAP1 POP JUMP JUMPDEST PUSH1 0x6 PUSH1 0x0 DUP3 DUP2 MSTORE PUSH1 0x20 ADD SWAP1 DUP2 MSTORE PUSH1 0x20 ADD PUSH1 0x0 KECCAK256 PUSH1 0x2 ADD SLOAD CALLVALUE LT ISZERO PUSH2 0x73B JUMPI PUSH1 0x0 DUP1 REVERT JUMPDEST CALLER PUSH20 0xFFFFFFFFFFFFFFFFFFFFFFFFFFFFFFFFFFFFFFFF AND PUSH2 0x8FC PUSH1 0x6 PUSH1 0x0 DUP5 DUP2 MSTORE PUSH1 0x20 ADD SWAP1 DUP2 MSTORE PUSH1 0x20 ADD PUSH1 0x0 KECCAK256 PUSH1 0x2 ADD SLOAD CALLVALUE PUSH2 0x777 SWAP2 SWAP1 PUSH2 0x1406 JUMP JUMPDEST SWAP1 DUP2 ISZERO MUL SWAP1 PUSH1 0x40 MLOAD PUSH1 0x0 PUSH1 0x40 MLOAD DUP1 DUP4 SUB DUP2 DUP6 DUP9 DUP9 CALL SWAP4 POP POP POP POP ISZERO DUP1 ISZERO PUSH2 0x7A2 JUMPI RETURNDATASIZE PUSH1 0x0 DUP1 RETURNDATACOPY RETURNDATASIZE PUSH1 0x0 REVERT JUMPDEST POP CALLER PUSH1 0x6 PUSH1 0x0 DUP4 DUP2 MSTORE PUSH1 0x20 ADD SWAP1 DUP2 MSTORE PUSH1 0x20 ADD PUSH1 0x0 KECCAK256 PUSH1 0x6 ADD PUSH1 0x0 PUSH2 0x100 EXP DUP2 SLOAD DUP2 PUSH20 0xFFFFFFFFFFFFFFFFFFFFFFFFFFFFFFFFFFFFFFFF MUL NOT AND SWAP1 DUP4 PUSH20 0xFFFFFFFFFFFFFFFFFFFFFFFFFFFFFFFFFFFFFFFF AND MUL OR SWAP1 SSTORE POP PUSH1 0x6 PUSH1 0x0 DUP3 DUP2 MSTORE PUSH1 0x20 ADD SWAP1 DUP2 MSTORE PUSH1 0x20 ADD PUSH1 0x0 KECCAK256 PUSH1 0x5 ADD PUSH1 0x0 SWAP1 SLOAD SWAP1 PUSH2 0x100 EXP SWAP1 DIV PUSH20 0xFFFFFFFFFFFFFFFFFFFFFFFFFFFFFFFFFFFFFFFF AND PUSH20 0xFFFFFFFFFFFFFFFFFFFFFFFFFFFFFFFFFFFFFFFF AND PUSH2 0x8FC CALLVALUE SWAP1 DUP2 ISZERO MUL SWAP1 PUSH1 0x40 MLOAD PUSH1 0x0 PUSH1 0x40 MLOAD DUP1 DUP4 SUB DUP2 DUP6 DUP9 DUP9 CALL SWAP4 POP POP POP POP ISZERO DUP1 ISZERO PUSH2 0x874 JUMPI RETURNDATASIZE PUSH1 0x0 DUP1 RETURNDATACOPY RETURNDATASIZE PUSH1 0x0 REVERT JUMPDEST POP POP JUMP JUMPDEST PUSH1 0x6 PUSH1 0x20 MSTORE DUP1 PUSH1 0x0 MSTORE PUSH1 0x40 PUSH1 0x0 KECCAK256 PUSH1 0x0 SWAP2 POP SWAP1 POP DUP1 PUSH1 0x0 ADD SLOAD SWAP1 DUP1 PUSH1 0x1 ADD SLOAD SWAP1 DUP1 PUSH1 0x2 ADD SLOAD SWAP1 DUP1 PUSH1 0x3 ADD SLOAD SWAP1 DUP1 PUSH1 0x4 ADD SLOAD SWAP1 DUP1 PUSH1 0x5 ADD PUSH1 0x0 SWAP1 SLOAD SWAP1 PUSH2 0x100 EXP SWAP1 DIV PUSH20 0xFFFFFFFFFFFFFFFFFFFFFFFFFFFFFFFFFFFFFFFF AND SWAP1 DUP1 PUSH1 0x6 ADD PUSH1 0x0 SWAP1 SLOAD SWAP1 PUSH2 0x100 EXP SWAP1 DIV PUSH20 0xFFFFFFFFFFFFFFFFFFFFFFFFFFFFFFFFFFFFFFFF AND SWAP1 DUP1 PUSH1 0x7 ADD DUP1 SLOAD PUSH2 0x905 SWAP1 PUSH2 0x14C4 JUMP JUMPDEST DUP1 PUSH1 0x1F ADD PUSH1 0x20 DUP1 SWAP2 DIV MUL PUSH1 0x20 ADD PUSH1 0x40 MLOAD SWAP1 DUP2 ADD PUSH1 0x40 MSTORE DUP1 SWAP3 SWAP2 SWAP1 DUP2 DUP2 MSTORE PUSH1 0x20 ADD DUP3 DUP1 SLOAD PUSH2 0x931 SWAP1 PUSH2 0x14C4 JUMP JUMPDEST DUP1 ISZERO PUSH2 0x97E JUMPI DUP1 PUSH1 0x1F LT PUSH2 0x953 JUMPI PUSH2 0x100 DUP1 DUP4 SLOAD DIV MUL DUP4 MSTORE SWAP2 PUSH1 0x20 ADD SWAP2 PUSH2 0x97E JUMP JUMPDEST DUP3 ADD SWAP2 SWAP1 PUSH1 0x0 MSTORE PUSH1 0x20 PUSH1 0x0 KECCAK256 SWAP1 JUMPDEST DUP2 SLOAD DUP2 MSTORE SWAP1 PUSH1 0x1 ADD SWAP1 PUSH1 0x20 ADD DUP1 DUP4 GT PUSH2 0x961 JUMPI DUP3 SWAP1 SUB PUSH1 0x1F AND DUP3 ADD SWAP2 JUMPDEST POP POP POP POP POP SWAP1 DUP1 PUSH1 0x8 ADD PUSH1 0x0 SWAP1 SLOAD SWAP1 PUSH2 0x100 EXP SWAP1 DIV PUSH1 0xFF AND SWAP1 POP DUP10 JUMP JUMPDEST PUSH1 0x60 PUSH1 0x0 DUP1 JUMPDEST PUSH1 0x5 DUP1 SLOAD SWAP1 POP DUP2 LT ISZERO PUSH2 0xA0C JUMPI DUP4 PUSH1 0x6 PUSH1 0x0 PUSH1 0x5 DUP5 DUP2 SLOAD DUP2 LT PUSH2 0x9C7 JUMPI PUSH2 0x9C6 PUSH2 0x165C JUMP JUMPDEST JUMPDEST SWAP1 PUSH1 0x0 MSTORE PUSH1 0x20 PUSH1 0x0 KECCAK256 ADD SLOAD DUP2 MSTORE PUSH1 0x20 ADD SWAP1 DUP2 MSTORE PUSH1 0x20 ADD PUSH1 0x0 KECCAK256 PUSH1 0x2 ADD SLOAD LT ISZERO PUSH2 0x9F9 JUMPI DUP2 DUP1 PUSH2 0x9F5 SWAP1 PUSH2 0x1527 JUMP JUMPDEST SWAP3 POP POP JUMPDEST DUP1 DUP1 PUSH2 0xA04 SWAP1 PUSH2 0x1527 JUMP JUMPDEST SWAP2 POP POP PUSH2 0x9A1 JUMP JUMPDEST POP PUSH1 0x0 DUP2 PUSH8 0xFFFFFFFFFFFFFFFF DUP2 GT ISZERO PUSH2 0xA29 JUMPI PUSH2 0xA28 PUSH2 0x168B JUMP JUMPDEST JUMPDEST PUSH1 0x40 MLOAD SWAP1 DUP1 DUP3 MSTORE DUP1 PUSH1 0x20 MUL PUSH1 0x20 ADD DUP3 ADD PUSH1 0x40 MSTORE DUP1 ISZERO PUSH2 0xA57 JUMPI DUP2 PUSH1 0x20 ADD PUSH1 0x20 DUP3 MUL DUP1 CALLDATASIZE DUP4 CALLDATACOPY DUP1 DUP3 ADD SWAP2 POP POP SWAP1 POP JUMPDEST POP SWAP1 POP PUSH1 0x0 JUMPDEST PUSH1 0x5 DUP1 SLOAD SWAP1 POP DUP2 LT ISZERO PUSH2 0xB0E JUMPI DUP5 PUSH1 0x6 PUSH1 0x0 PUSH1 0x5 DUP5 DUP2 SLOAD DUP2 LT PUSH2 0xA83 JUMPI PUSH2 0xA82 PUSH2 0x165C JUMP JUMPDEST JUMPDEST SWAP1 PUSH1 0x0 MSTORE PUSH1 0x20 PUSH1 0x0 KECCAK256 ADD SLOAD DUP2 MSTORE PUSH1 0x20 ADD SWAP1 DUP2 MSTORE PUSH1 0x20 ADD PUSH1 0x0 KECCAK256 PUSH1 0x2 ADD SLOAD LT ISZERO PUSH2 0xAFB JUMPI PUSH1 0x6 PUSH1 0x0 PUSH1 0x5 DUP4 DUP2 SLOAD DUP2 LT PUSH2 0xABE JUMPI PUSH2 0xABD PUSH2 0x165C JUMP JUMPDEST JUMPDEST SWAP1 PUSH1 0x0 MSTORE PUSH1 0x20 PUSH1 0x0 KECCAK256 ADD SLOAD DUP2 MSTORE PUSH1 0x20 ADD SWAP1 DUP2 MSTORE PUSH1 0x20 ADD PUSH1 0x0 KECCAK256 PUSH1 0x0 ADD SLOAD DUP3 DUP3 DUP2 MLOAD DUP2 LT PUSH2 0xAEE JUMPI PUSH2 0xAED PUSH2 0x165C JUMP JUMPDEST JUMPDEST PUSH1 0x20 MUL PUSH1 0x20 ADD ADD DUP2 DUP2 MSTORE POP POP JUMPDEST DUP1 DUP1 PUSH2 0xB06 SWAP1 PUSH2 0x1527 JUMP JUMPDEST SWAP2 POP POP PUSH2 0xA5D JUMP JUMPDEST POP DUP1 SWAP3 POP POP POP SWAP2 SWAP1 POP JUMP JUMPDEST TIMESTAMP PUSH1 0x4 SLOAD GT ISZERO PUSH2 0xB5E JUMPI PUSH1 0x40 MLOAD PUSH32 0x8C379A000000000000000000000000000000000000000000000000000000000 DUP2 MSTORE PUSH1 0x4 ADD PUSH2 0xB55 SWAP1 PUSH2 0x1137 JUMP JUMPDEST PUSH1 0x40 MLOAD DUP1 SWAP2 SUB SWAP1 REVERT JUMPDEST PUSH2 0xB6B DUP5 DUP5 DUP5 CALLER DUP6 PUSH2 0x327 JUMP JUMPDEST POP POP POP POP POP JUMP JUMPDEST PUSH1 0x0 DUP1 DUP5 DUP5 DUP5 PUSH1 0x40 MLOAD PUSH1 0x20 ADD PUSH2 0xB8A SWAP4 SWAP3 SWAP2 SWAP1 PUSH2 0x1063 JUMP JUMPDEST PUSH1 0x40 MLOAD PUSH1 0x20 DUP2 DUP4 SUB SUB DUP2 MSTORE SWAP1 PUSH1 0x40 MSTORE DUP1 MLOAD SWAP1 PUSH1 0x20 ADD KECCAK256 PUSH1 0x0 SHR SWAP1 POP PUSH1 0x1 SLOAD DUP2 PUSH2 0xBB3 SWAP2 SWAP1 PUSH2 0x159E JUMP JUMPDEST SWAP2 POP POP SWAP4 SWAP3 POP POP POP JUMP JUMPDEST DUP1 PUSH1 0x4 DUP2 SWAP1 SSTORE POP POP JUMP JUMPDEST DUP3 DUP1 SLOAD PUSH2 0xBD3 SWAP1 PUSH2 0x14C4 JUMP JUMPDEST SWAP1 PUSH1 0x0 MSTORE PUSH1 0x20 PUSH1 0x0 KECCAK256 SWAP1 PUSH1 0x1F ADD PUSH1 0x20 SWAP1 DIV DUP2 ADD SWAP3 DUP3 PUSH2 0xBF5 JUMPI PUSH1 0x0 DUP6 SSTORE PUSH2 0xC3C JUMP JUMPDEST DUP3 PUSH1 0x1F LT PUSH2 0xC0E JUMPI DUP1 MLOAD PUSH1 0xFF NOT AND DUP4 DUP1 ADD OR DUP6 SSTORE PUSH2 0xC3C JUMP JUMPDEST DUP3 DUP1 ADD PUSH1 0x1 ADD DUP6 SSTORE DUP3 ISZERO PUSH2 0xC3C JUMPI SWAP2 DUP3 ADD JUMPDEST DUP3 DUP2 GT ISZERO PUSH2 0xC3B JUMPI DUP3 MLOAD DUP3 SSTORE SWAP2 PUSH1 0x20 ADD SWAP2 SWAP1 PUSH1 0x1 ADD SWAP1 PUSH2 0xC20 JUMP JUMPDEST JUMPDEST POP SWAP1 POP PUSH2 0xC49 SWAP2 SWAP1 PUSH2 0xC4D JUMP JUMPDEST POP SWAP1 JUMP JUMPDEST JUMPDEST DUP1 DUP3 GT ISZERO PUSH2 0xC66 JUMPI PUSH1 0x0 DUP2 PUSH1 0x0 SWAP1 SSTORE POP PUSH1 0x1 ADD PUSH2 0xC4E JUMP JUMPDEST POP SWAP1 JUMP JUMPDEST PUSH1 0x0 PUSH2 0xC7D PUSH2 0xC78 DUP5 PUSH2 0x12C5 JUMP JUMPDEST PUSH2 0x12A0 JUMP JUMPDEST SWAP1 POP DUP3 DUP2 MSTORE PUSH1 0x20 DUP2 ADD DUP5 DUP5 DUP5 ADD GT ISZERO PUSH2 0xC99 JUMPI PUSH2 0xC98 PUSH2 0x16BF JUMP JUMPDEST JUMPDEST PUSH2 0xCA4 DUP5 DUP3 DUP6 PUSH2 0x1482 JUMP JUMPDEST POP SWAP4 SWAP3 POP POP POP JUMP JUMPDEST PUSH1 0x0 DUP2 CALLDATALOAD SWAP1 POP PUSH2 0xCBB DUP2 PUSH2 0x17DC JUMP JUMPDEST SWAP3 SWAP2 POP POP JUMP JUMPDEST PUSH1 0x0 DUP2 MLOAD SWAP1 POP PUSH2 0xCD0 DUP2 PUSH2 0x17F3 JUMP JUMPDEST SWAP3 SWAP2 POP POP JUMP JUMPDEST PUSH1 0x0 DUP3 PUSH1 0x1F DUP4 ADD SLT PUSH2 0xCEB JUMPI PUSH2 0xCEA PUSH2 0x16BA JUMP JUMPDEST JUMPDEST DUP2 CALLDATALOAD PUSH2 0xCFB DUP5 DUP3 PUSH1 0x20 DUP7 ADD PUSH2 0xC6A JUMP JUMPDEST SWAP2 POP POP SWAP3 SWAP2 POP POP JUMP JUMPDEST PUSH1 0x0 DUP2 CALLDATALOAD SWAP1 POP PUSH2 0xD13 DUP2 PUSH2 0x180A JUMP JUMPDEST SWAP3 SWAP2 POP POP JUMP JUMPDEST PUSH1 0x0 PUSH1 0x20 DUP3 DUP5 SUB SLT ISZERO PUSH2 0xD2F JUMPI PUSH2 0xD2E PUSH2 0x16C9 JUMP JUMPDEST JUMPDEST PUSH1 0x0 PUSH2 0xD3D DUP5 DUP3 DUP6 ADD PUSH2 0xCC1 JUMP JUMPDEST SWAP2 POP POP SWAP3 SWAP2 POP POP JUMP JUMPDEST PUSH1 0x0 PUSH1 0x20 DUP3 DUP5 SUB SLT ISZERO PUSH2 0xD5C JUMPI PUSH2 0xD5B PUSH2 0x16C9 JUMP JUMPDEST JUMPDEST PUSH1 0x0 PUSH2 0xD6A DUP5 DUP3 DUP6 ADD PUSH2 0xD04 JUMP JUMPDEST SWAP2 POP POP SWAP3 SWAP2 POP POP JUMP JUMPDEST PUSH1 0x0 DUP1 PUSH1 0x0 DUP1 PUSH1 0x0 PUSH1 0xA0 DUP7 DUP9 SUB SLT ISZERO PUSH2 0xD8F JUMPI PUSH2 0xD8E PUSH2 0x16C9 JUMP JUMPDEST JUMPDEST PUSH1 0x0 PUSH2 0xD9D DUP9 DUP3 DUP10 ADD PUSH2 0xD04 JUMP JUMPDEST SWAP6 POP POP PUSH1 0x20 PUSH2 0xDAE DUP9 DUP3 DUP10 ADD PUSH2 0xD04 JUMP JUMPDEST SWAP5 POP POP PUSH1 0x40 PUSH2 0xDBF DUP9 DUP3 DUP10 ADD PUSH2 0xD04 JUMP JUMPDEST SWAP4 POP POP PUSH1 0x60 PUSH2 0xDD0 DUP9 DUP3 DUP10 ADD PUSH2 0xCAC JUMP JUMPDEST SWAP3 POP POP PUSH1 0x80 DUP7 ADD CALLDATALOAD PUSH8 0xFFFFFFFFFFFFFFFF DUP2 GT ISZERO PUSH2 0xDF1 JUMPI PUSH2 0xDF0 PUSH2 0x16C4 JUMP JUMPDEST JUMPDEST PUSH2 0xDFD DUP9 DUP3 DUP10 ADD PUSH2 0xCD6 JUMP JUMPDEST SWAP2 POP POP SWAP3 SWAP6 POP SWAP3 SWAP6 SWAP1 SWAP4 POP JUMP JUMPDEST PUSH1 0x0 DUP1 PUSH1 0x0 DUP1 PUSH1 0x80 DUP6 DUP8 SUB SLT ISZERO PUSH2 0xE24 JUMPI PUSH2 0xE23 PUSH2 0x16C9 JUMP JUMPDEST JUMPDEST PUSH1 0x0 PUSH2 0xE32 DUP8 DUP3 DUP9 ADD PUSH2 0xD04 JUMP JUMPDEST SWAP5 POP POP PUSH1 0x20 PUSH2 0xE43 DUP8 DUP3 DUP9 ADD PUSH2 0xD04 JUMP JUMPDEST SWAP4 POP POP PUSH1 0x40 PUSH2 0xE54 DUP8 DUP3 DUP9 ADD PUSH2 0xD04 JUMP JUMPDEST SWAP3 POP POP PUSH1 0x60 DUP6 ADD CALLDATALOAD PUSH8 0xFFFFFFFFFFFFFFFF DUP2 GT ISZERO PUSH2 0xE75 JUMPI PUSH2 0xE74 PUSH2 0x16C4 JUMP JUMPDEST JUMPDEST PUSH2 0xE81 DUP8 DUP3 DUP9 ADD PUSH2 0xCD6 JUMP JUMPDEST SWAP2 POP POP SWAP3 SWAP6 SWAP2 SWAP5 POP SWAP3 POP JUMP JUMPDEST PUSH1 0x0 PUSH2 0xE99 DUP4 DUP4 PUSH2 0x102E JUMP JUMPDEST PUSH1 0x20 DUP4 ADD SWAP1 POP SWAP3 SWAP2 POP POP JUMP JUMPDEST PUSH2 0xEAE DUP2 PUSH2 0x143A JUMP JUMPDEST DUP3 MSTORE POP POP JUMP JUMPDEST PUSH2 0xEC5 PUSH2 0xEC0 DUP3 PUSH2 0x143A JUMP JUMPDEST PUSH2 0x1570 JUMP JUMPDEST DUP3 MSTORE POP POP JUMP JUMPDEST PUSH1 0x0 PUSH2 0xED6 DUP3 PUSH2 0x1306 JUMP JUMPDEST PUSH2 0xEE0 DUP2 DUP6 PUSH2 0x1329 JUMP JUMPDEST SWAP4 POP PUSH2 0xEEB DUP4 PUSH2 0x12F6 JUMP JUMPDEST DUP1 PUSH1 0x0 JUMPDEST DUP4 DUP2 LT ISZERO PUSH2 0xF1C JUMPI DUP2 MLOAD PUSH2 0xF03 DUP9 DUP3 PUSH2 0xE8D JUMP JUMPDEST SWAP8 POP PUSH2 0xF0E DUP4 PUSH2 0x131C JUMP JUMPDEST SWAP3 POP POP PUSH1 0x1 DUP2 ADD SWAP1 POP PUSH2 0xEEF JUMP JUMPDEST POP DUP6 SWAP4 POP POP POP POP SWAP3 SWAP2 POP POP JUMP JUMPDEST PUSH2 0xF32 DUP2 PUSH2 0x144C JUMP JUMPDEST DUP3 MSTORE POP POP JUMP JUMPDEST PUSH1 0x0 PUSH2 0xF43 DUP3 PUSH2 0x1311 JUMP JUMPDEST PUSH2 0xF4D DUP2 DUP6 PUSH2 0x133A JUMP JUMPDEST SWAP4 POP PUSH2 0xF5D DUP2 DUP6 PUSH1 0x20 DUP7 ADD PUSH2 0x1491 JUMP JUMPDEST PUSH2 0xF66 DUP2 PUSH2 0x16CE JUMP JUMPDEST DUP5 ADD SWAP2 POP POP SWAP3 SWAP2 POP POP JUMP JUMPDEST PUSH1 0x0 PUSH2 0xF7C DUP3 PUSH2 0x1311 JUMP JUMPDEST PUSH2 0xF86 DUP2 DUP6 PUSH2 0x134B JUMP JUMPDEST SWAP4 POP PUSH2 0xF96 DUP2 DUP6 PUSH1 0x20 DUP7 ADD PUSH2 0x1491 JUMP JUMPDEST DUP1 DUP5 ADD SWAP2 POP POP SWAP3 SWAP2 POP POP JUMP JUMPDEST PUSH1 0x0 PUSH2 0xFAF PUSH1 0x14 DUP4 PUSH2 0x133A JUMP JUMPDEST SWAP2 POP PUSH2 0xFBA DUP3 PUSH2 0x16EC JUMP JUMPDEST PUSH1 0x20 DUP3 ADD SWAP1 POP SWAP2 SWAP1 POP JUMP JUMPDEST PUSH1 0x0 PUSH2 0xFD2 PUSH1 0x23 DUP4 PUSH2 0x133A JUMP JUMPDEST SWAP2 POP PUSH2 0xFDD DUP3 PUSH2 0x1715 JUMP JUMPDEST PUSH1 0x40 DUP3 ADD SWAP1 POP SWAP2 SWAP1 POP JUMP JUMPDEST PUSH1 0x0 PUSH2 0xFF5 PUSH1 0x1B DUP4 PUSH2 0x133A JUMP JUMPDEST SWAP2 POP PUSH2 0x1000 DUP3 PUSH2 0x1764 JUMP JUMPDEST PUSH1 0x20 DUP3 ADD SWAP1 POP SWAP2 SWAP1 POP JUMP JUMPDEST PUSH1 0x0 PUSH2 0x1018 PUSH1 0x2B DUP4 PUSH2 0x133A JUMP JUMPDEST SWAP2 POP PUSH2 0x1023 DUP3 PUSH2 0x178D JUMP JUMPDEST PUSH1 0x40 DUP3 ADD SWAP1 POP SWAP2 SWAP1 POP JUMP JUMPDEST PUSH2 0x1037 DUP2 PUSH2 0x1478 JUMP JUMPDEST DUP3 MSTORE POP POP JUMP JUMPDEST PUSH2 0x1046 DUP2 PUSH2 0x1478 JUMP JUMPDEST DUP3 MSTORE POP POP JUMP JUMPDEST PUSH2 0x105D PUSH2 0x1058 DUP3 PUSH2 0x1478 JUMP JUMPDEST PUSH2 0x1594 JUMP JUMPDEST DUP3 MSTORE POP POP JUMP JUMPDEST PUSH1 0x0 PUSH2 0x106F DUP3 DUP7 PUSH2 0xEB4 JUMP JUMPDEST PUSH1 0x14 DUP3 ADD SWAP2 POP PUSH2 0x107F DUP3 DUP6 PUSH2 0x104C JUMP JUMPDEST PUSH1 0x20 DUP3 ADD SWAP2 POP PUSH2 0x108F DUP3 DUP5 PUSH2 0xF71 JUMP JUMPDEST SWAP2 POP DUP2 SWAP1 POP SWAP5 SWAP4 POP POP POP POP JUMP JUMPDEST PUSH1 0x0 PUSH1 0x60 DUP3 ADD SWAP1 POP PUSH2 0x10B1 PUSH1 0x0 DUP4 ADD DUP7 PUSH2 0xEA5 JUMP JUMPDEST PUSH2 0x10BE PUSH1 0x20 DUP4 ADD DUP6 PUSH2 0xEA5 JUMP JUMPDEST PUSH2 0x10CB PUSH1 0x40 DUP4 ADD DUP5 PUSH2 0x103D JUMP JUMPDEST SWAP5 SWAP4 POP POP POP POP JUMP JUMPDEST PUSH1 0x0 PUSH1 0x20 DUP3 ADD SWAP1 POP DUP2 DUP2 SUB PUSH1 0x0 DUP4 ADD MSTORE PUSH2 0x10ED DUP2 DUP5 PUSH2 0xECB JUMP JUMPDEST SWAP1 POP SWAP3 SWAP2 POP POP JUMP JUMPDEST PUSH1 0x0 PUSH1 0x20 DUP3 ADD SWAP1 POP DUP2 DUP2 SUB PUSH1 0x0 DUP4 ADD MSTORE PUSH2 0x110F DUP2 DUP5 PUSH2 0xF38 JUMP JUMPDEST SWAP1 POP SWAP3 SWAP2 POP POP JUMP JUMPDEST PUSH1 0x0 PUSH1 0x20 DUP3 ADD SWAP1 POP DUP2 DUP2 SUB PUSH1 0x0 DUP4 ADD MSTORE PUSH2 0x1130 DUP2 PUSH2 0xFA2 JUMP JUMPDEST SWAP1 POP SWAP2 SWAP1 POP JUMP JUMPDEST PUSH1 0x0 PUSH1 0x20 DUP3 ADD SWAP1 POP DUP2 DUP2 SUB PUSH1 0x0 DUP4 ADD MSTORE PUSH2 0x1150 DUP2 PUSH2 0xFC5 JUMP JUMPDEST SWAP1 POP SWAP2 SWAP1 POP JUMP JUMPDEST PUSH1 0x0 PUSH1 0x20 DUP3 ADD SWAP1 POP DUP2 DUP2 SUB PUSH1 0x0 DUP4 ADD MSTORE PUSH2 0x1170 DUP2 PUSH2 0xFE8 JUMP JUMPDEST SWAP1 POP SWAP2 SWAP1 POP JUMP JUMPDEST PUSH1 0x0 PUSH1 0x20 DUP3 ADD SWAP1 POP DUP2 DUP2 SUB PUSH1 0x0 DUP4 ADD MSTORE PUSH2 0x1190 DUP2 PUSH2 0x100B JUMP JUMPDEST SWAP1 POP SWAP2 SWAP1 POP JUMP JUMPDEST PUSH1 0x0 PUSH1 0x20 DUP3 ADD SWAP1 POP PUSH2 0x11AC PUSH1 0x0 DUP4 ADD DUP5 PUSH2 0x103D JUMP JUMPDEST SWAP3 SWAP2 POP POP JUMP JUMPDEST PUSH1 0x0 PUSH1 0xA0 DUP3 ADD SWAP1 POP PUSH2 0x11C7 PUSH1 0x0 DUP4 ADD DUP9 PUSH2 0x103D JUMP JUMPDEST PUSH2 0x11D4 PUSH1 0x20 DUP4 ADD DUP8 PUSH2 0xEA5 JUMP JUMPDEST PUSH2 0x11E1 PUSH1 0x40 DUP4 ADD DUP7 PUSH2 0x103D JUMP JUMPDEST PUSH2 0x11EE PUSH1 0x60 DUP4 ADD DUP6 PUSH2 0x103D JUMP JUMPDEST DUP2 DUP2 SUB PUSH1 0x80 DUP4 ADD MSTORE PUSH2 0x1200 DUP2 DUP5 PUSH2 0xF38 JUMP JUMPDEST SWAP1 POP SWAP7 SWAP6 POP POP POP POP POP POP JUMP JUMPDEST PUSH1 0x0 PUSH2 0x120 DUP3 ADD SWAP1 POP PUSH2 0x1222 PUSH1 0x0 DUP4 ADD DUP13 PUSH2 0x103D JUMP JUMPDEST PUSH2 0x122F PUSH1 0x20 DUP4 ADD DUP12 PUSH2 0x103D JUMP JUMPDEST PUSH2 0x123C PUSH1 0x40 DUP4 ADD DUP11 PUSH2 0x103D JUMP JUMPDEST PUSH2 0x1249 PUSH1 0x60 DUP4 ADD DUP10 PUSH2 0x103D JUMP JUMPDEST PUSH2 0x1256 PUSH1 0x80 DUP4 ADD DUP9 PUSH2 0x103D JUMP JUMPDEST PUSH2 0x1263 PUSH1 0xA0 DUP4 ADD DUP8 PUSH2 0xEA5 JUMP JUMPDEST PUSH2 0x1270 PUSH1 0xC0 DUP4 ADD DUP7 PUSH2 0xEA5 JUMP JUMPDEST DUP2 DUP2 SUB PUSH1 0xE0 DUP4 ADD MSTORE PUSH2 0x1282 DUP2 DUP6 PUSH2 0xF38 JUMP JUMPDEST SWAP1 POP PUSH2 0x1292 PUSH2 0x100 DUP4 ADD DUP5 PUSH2 0xF29 JUMP JUMPDEST SWAP11 SWAP10 POP POP POP POP POP POP POP POP POP POP JUMP JUMPDEST PUSH1 0x0 PUSH2 0x12AA PUSH2 0x12BB JUMP JUMPDEST SWAP1 POP PUSH2 0x12B6 DUP3 DUP3 PUSH2 0x14F6 JUMP JUMPDEST SWAP2 SWAP1 POP JUMP JUMPDEST PUSH1 0x0 PUSH1 0x40 MLOAD SWAP1 POP SWAP1 JUMP JUMPDEST PUSH1 0x0 PUSH8 0xFFFFFFFFFFFFFFFF DUP3 GT ISZERO PUSH2 0x12E0 JUMPI PUSH2 0x12DF PUSH2 0x168B JUMP JUMPDEST JUMPDEST PUSH2 0x12E9 DUP3 PUSH2 0x16CE JUMP JUMPDEST SWAP1 POP PUSH1 0x20 DUP2 ADD SWAP1 POP SWAP2 SWAP1 POP JUMP JUMPDEST PUSH1 0x0 DUP2 SWAP1 POP PUSH1 0x20 DUP3 ADD SWAP1 POP SWAP2 SWAP1 POP JUMP JUMPDEST PUSH1 0x0 DUP2 MLOAD SWAP1 POP SWAP2 SWAP1 POP JUMP JUMPDEST PUSH1 0x0 DUP2 MLOAD SWAP1 POP SWAP2 SWAP1 POP JUMP JUMPDEST PUSH1 0x0 PUSH1 0x20 DUP3 ADD SWAP1 POP SWAP2 SWAP1 POP JUMP JUMPDEST PUSH1 0x0 DUP3 DUP3 MSTORE PUSH1 0x20 DUP3 ADD SWAP1 POP SWAP3 SWAP2 POP POP JUMP JUMPDEST PUSH1 0x0 DUP3 DUP3 MSTORE PUSH1 0x20 DUP3 ADD SWAP1 POP SWAP3 SWAP2 POP POP JUMP JUMPDEST PUSH1 0x0 DUP2 SWAP1 POP SWAP3 SWAP2 POP POP JUMP JUMPDEST PUSH1 0x0 PUSH2 0x1361 DUP3 PUSH2 0x1478 JUMP JUMPDEST SWAP2 POP PUSH2 0x136C DUP4 PUSH2 0x1478 JUMP JUMPDEST SWAP3 POP DUP3 PUSH32 0xFFFFFFFFFFFFFFFFFFFFFFFFFFFFFFFFFFFFFFFFFFFFFFFFFFFFFFFFFFFFFFFF SUB DUP3 GT ISZERO PUSH2 0x13A1 JUMPI PUSH2 0x13A0 PUSH2 0x15CF JUMP JUMPDEST JUMPDEST DUP3 DUP3 ADD SWAP1 POP SWAP3 SWAP2 POP POP JUMP JUMPDEST PUSH1 0x0 PUSH2 0x13B7 DUP3 PUSH2 0x1478 JUMP JUMPDEST SWAP2 POP PUSH2 0x13C2 DUP4 PUSH2 0x1478 JUMP JUMPDEST SWAP3 POP DUP2 PUSH32 0xFFFFFFFFFFFFFFFFFFFFFFFFFFFFFFFFFFFFFFFFFFFFFFFFFFFFFFFFFFFFFFFF DIV DUP4 GT DUP3 ISZERO ISZERO AND ISZERO PUSH2 0x13FB JUMPI PUSH2 0x13FA PUSH2 0x15CF JUMP JUMPDEST JUMPDEST DUP3 DUP3 MUL SWAP1 POP SWAP3 SWAP2 POP POP JUMP JUMPDEST PUSH1 0x0 PUSH2 0x1411 DUP3 PUSH2 0x1478 JUMP JUMPDEST SWAP2 POP PUSH2 0x141C DUP4 PUSH2 0x1478 JUMP JUMPDEST SWAP3 POP DUP3 DUP3 LT ISZERO PUSH2 0x142F JUMPI PUSH2 0x142E PUSH2 0x15CF JUMP JUMPDEST JUMPDEST DUP3 DUP3 SUB SWAP1 POP SWAP3 SWAP2 POP POP JUMP JUMPDEST PUSH1 0x0 PUSH2 0x1445 DUP3 PUSH2 0x1458 JUMP JUMPDEST SWAP1 POP SWAP2 SWAP1 POP JUMP JUMPDEST PUSH1 0x0 DUP2 ISZERO ISZERO SWAP1 POP SWAP2 SWAP1 POP JUMP JUMPDEST PUSH1 0x0 PUSH20 0xFFFFFFFFFFFFFFFFFFFFFFFFFFFFFFFFFFFFFFFF DUP3 AND SWAP1 POP SWAP2 SWAP1 POP JUMP JUMPDEST PUSH1 0x0 DUP2 SWAP1 POP SWAP2 SWAP1 POP JUMP JUMPDEST DUP3 DUP2 DUP4 CALLDATACOPY PUSH1 0x0 DUP4 DUP4 ADD MSTORE POP POP POP JUMP JUMPDEST PUSH1 0x0 JUMPDEST DUP4 DUP2 LT ISZERO PUSH2 0x14AF JUMPI DUP1 DUP3 ADD MLOAD DUP2 DUP5 ADD MSTORE PUSH1 0x20 DUP2 ADD SWAP1 POP PUSH2 0x1494 JUMP JUMPDEST DUP4 DUP2 GT ISZERO PUSH2 0x14BE JUMPI PUSH1 0x0 DUP5 DUP5 ADD MSTORE JUMPDEST POP POP POP POP JUMP JUMPDEST PUSH1 0x0 PUSH1 0x2 DUP3 DIV SWAP1 POP PUSH1 0x1 DUP3 AND DUP1 PUSH2 0x14DC JUMPI PUSH1 0x7F DUP3 AND SWAP2 POP JUMPDEST PUSH1 0x20 DUP3 LT DUP2 EQ ISZERO PUSH2 0x14F0 JUMPI PUSH2 0x14EF PUSH2 0x162D JUMP JUMPDEST JUMPDEST POP SWAP2 SWAP1 POP JUMP JUMPDEST PUSH2 0x14FF DUP3 PUSH2 0x16CE JUMP JUMPDEST DUP2 ADD DUP2 DUP2 LT PUSH8 0xFFFFFFFFFFFFFFFF DUP3 GT OR ISZERO PUSH2 0x151E JUMPI PUSH2 0x151D PUSH2 0x168B JUMP JUMPDEST JUMPDEST DUP1 PUSH1 0x40 MSTORE POP POP POP JUMP JUMPDEST PUSH1 0x0 PUSH2 0x1532 DUP3 PUSH2 0x1478 JUMP JUMPDEST SWAP2 POP PUSH32 0xFFFFFFFFFFFFFFFFFFFFFFFFFFFFFFFFFFFFFFFFFFFFFFFFFFFFFFFFFFFFFFFF DUP3 EQ ISZERO PUSH2 0x1565 JUMPI PUSH2 0x1564 PUSH2 0x15CF JUMP JUMPDEST JUMPDEST PUSH1 0x1 DUP3 ADD SWAP1 POP SWAP2 SWAP1 POP JUMP JUMPDEST PUSH1 0x0 PUSH2 0x157B DUP3 PUSH2 0x1582 JUMP JUMPDEST SWAP1 POP SWAP2 SWAP1 POP JUMP JUMPDEST PUSH1 0x0 PUSH2 0x158D DUP3 PUSH2 0x16DF JUMP JUMPDEST SWAP1 POP SWAP2 SWAP1 POP JUMP JUMPDEST PUSH1 0x0 DUP2 SWAP1 POP SWAP2 SWAP1 POP JUMP JUMPDEST PUSH1 0x0 PUSH2 0x15A9 DUP3 PUSH2 0x1478 JUMP JUMPDEST SWAP2 POP PUSH2 0x15B4 DUP4 PUSH2 0x1478 JUMP JUMPDEST SWAP3 POP DUP3 PUSH2 0x15C4 JUMPI PUSH2 0x15C3 PUSH2 0x15FE JUMP JUMPDEST JUMPDEST DUP3 DUP3 MOD SWAP1 POP SWAP3 SWAP2 POP POP JUMP JUMPDEST PUSH32 0x4E487B7100000000000000000000000000000000000000000000000000000000 PUSH1 0x0 MSTORE PUSH1 0x11 PUSH1 0x4 MSTORE PUSH1 0x24 PUSH1 0x0 REVERT JUMPDEST PUSH32 0x4E487B7100000000000000000000000000000000000000000000000000000000 PUSH1 0x0 MSTORE PUSH1 0x12 PUSH1 0x4 MSTORE PUSH1 0x24 PUSH1 0x0 REVERT JUMPDEST PUSH32 0x4E487B7100000000000000000000000000000000000000000000000000000000 PUSH1 0x0 MSTORE PUSH1 0x22 PUSH1 0x4 MSTORE PUSH1 0x24 PUSH1 0x0 REVERT JUMPDEST PUSH32 0x4E487B7100000000000000000000000000000000000000000000000000000000 PUSH1 0x0 MSTORE PUSH1 0x32 PUSH1 0x4 MSTORE PUSH1 0x24 PUSH1 0x0 REVERT JUMPDEST PUSH32 0x4E487B7100000000000000000000000000000000000000000000000000000000 PUSH1 0x0 MSTORE PUSH1 0x41 PUSH1 0x4 MSTORE PUSH1 0x24 PUSH1 0x0 REVERT JUMPDEST PUSH1 0x0 DUP1 REVERT JUMPDEST PUSH1 0x0 DUP1 REVERT JUMPDEST PUSH1 0x0 DUP1 REVERT JUMPDEST PUSH1 0x0 DUP1 REVERT JUMPDEST PUSH1 0x0 PUSH1 0x1F NOT PUSH1 0x1F DUP4 ADD AND SWAP1 POP SWAP2 SWAP1 POP JUMP JUMPDEST PUSH1 0x0 DUP2 PUSH1 0x60 SHL SWAP1 POP SWAP2 SWAP1 POP JUMP JUMPDEST PUSH32 0x76616C75652063616E6E6F74206265206E756C6C000000000000000000000000 PUSH1 0x0 DUP3 ADD MSTORE POP JUMP JUMPDEST PUSH32 0x546865206F776E65722063616E6E6F7420796574206164642061206E65772068 PUSH1 0x0 DUP3 ADD MSTORE PUSH32 0x6F6D650000000000000000000000000000000000000000000000000000000000 PUSH1 0x20 DUP3 ADD MSTORE POP JUMP JUMPDEST PUSH32 0x7468697320686F757365496420616C7265616479206578697374730000000000 PUSH1 0x0 DUP3 ADD MSTORE POP JUMP JUMPDEST PUSH32 0x596F7520646F206E6F7420686176652061636365737320746F2064656C657465 PUSH1 0x0 DUP3 ADD MSTORE PUSH32 0x207468697320686F757365000000000000000000000000000000000000000000 PUSH1 0x20 DUP3 ADD MSTORE POP JUMP JUMPDEST PUSH2 0x17E5 DUP2 PUSH2 0x143A JUMP JUMPDEST DUP2 EQ PUSH2 0x17F0 JUMPI PUSH1 0x0 DUP1 REVERT JUMPDEST POP JUMP JUMPDEST PUSH2 0x17FC DUP2 PUSH2 0x144C JUMP JUMPDEST DUP2 EQ PUSH2 0x1807 JUMPI PUSH1 0x0 DUP1 REVERT JUMPDEST POP JUMP JUMPDEST PUSH2 0x1813 DUP2 PUSH2 0x1478 JUMP JUMPDEST DUP2 EQ PUSH2 0x181E JUMPI PUSH1 0x0 DUP1 REVERT JUMPDEST POP JUMP INVALID LOG2 PUSH5 0x6970667358 0x22 SLT KECCAK256 PUSH27 0x61763429DFB2141E6FAD520244214B3020A303FAE12CDFFFD0356D PUSH32 0xC8FCEF64736F6C63430008070033000000000000000000000000000000000000 "
				},
				"gasEstimates": {
					"creation": {
						"codeDepositCost": "1246200",
						"executionCost": "infinite",
						"totalCost": "infinite"
					},
					"external": {
						"buyHouseWithDai(uint256)": "infinite",
						"buyHouseWithETH(uint256)": "infinite",
						"delistHouse(uint256)": "infinite",
						"getCheapHouseIds(uint256)": "infinite",
						"houses(uint256)": "infinite",
						"listHouse(uint256,uint256,uint256,address,string)": "infinite",
						"listHouseSimple(uint256,uint256,uint256,string)": "infinite"
					}
				},
				"methodIdentifiers": {
					"buyHouseWithDai(uint256)": "06e361bd",
					"buyHouseWithETH(uint256)": "4d79658b",
					"delistHouse(uint256)": "3c3b0b4a",
					"getCheapHouseIds(uint256)": "c45e1b25",
					"houses(uint256)": "aeda852f",
					"listHouse(uint256,uint256,uint256,address,string)": "19161161",
					"listHouseSimple(uint256,uint256,uint256,string)": "fdec9c9f"
				}
			},
			"storageLayout": {
				"storage": [
					{
						"astId": 4,
						"contract": "contract/HouseRegistryExt.sol:HouseRegistryExt",
						"label": "digits",
						"offset": 0,
						"slot": "0",
						"type": "t_uint256"
					},
					{
						"astId": 9,
						"contract": "contract/HouseRegistryExt.sol:HouseRegistryExt",
						"label": "modulus",
						"offset": 0,
						"slot": "1",
						"type": "t_uint256"
					},
					{
						"astId": 12,
						"contract": "contract/HouseRegistryExt.sol:HouseRegistryExt",
						"label": "cooldownTime",
						"offset": 0,
						"slot": "2",
						"type": "t_uint256"
					},
					{
						"astId": 15,
						"contract": "contract/HouseRegistryExt.sol:HouseRegistryExt",
						"label": "countOfHouses",
						"offset": 0,
						"slot": "3",
						"type": "t_uint256"
					},
					{
						"astId": 17,
						"contract": "contract/HouseRegistryExt.sol:HouseRegistryExt",
						"label": "ownerAddCooldown",
						"offset": 0,
						"slot": "4",
						"type": "t_uint256"
					},
					{
						"astId": 63,
						"contract": "contract/HouseRegistryExt.sol:HouseRegistryExt",
						"label": "houseIndex",
						"offset": 0,
						"slot": "5",
						"type": "t_array(t_uint256)dyn_storage"
					},
					{
						"astId": 68,
						"contract": "contract/HouseRegistryExt.sol:HouseRegistryExt",
						"label": "houses",
						"offset": 0,
						"slot": "6",
						"type": "t_mapping(t_uint256,t_struct(House)36_storage)"
					}
				],
				"types": {
					"t_address": {
						"encoding": "inplace",
						"label": "address",
						"numberOfBytes": "20"
					},
					"t_array(t_uint256)dyn_storage": {
						"base": "t_uint256",
						"encoding": "dynamic_array",
						"label": "uint256[]",
						"numberOfBytes": "32"
					},
					"t_bool": {
						"encoding": "inplace",
						"label": "bool",
						"numberOfBytes": "1"
					},
					"t_mapping(t_uint256,t_struct(House)36_storage)": {
						"encoding": "mapping",
						"key": "t_uint256",
						"label": "mapping(uint256 => struct HouseRegistry.House)",
						"numberOfBytes": "32",
						"value": "t_struct(House)36_storage"
					},
					"t_string_storage": {
						"encoding": "bytes",
						"label": "string",
						"numberOfBytes": "32"
					},
					"t_struct(House)36_storage": {
						"encoding": "inplace",
						"label": "struct HouseRegistry.House",
						"members": [
							{
								"astId": 19,
								"contract": "contract/HouseRegistryExt.sol:HouseRegistryExt",
								"label": "id",
								"offset": 0,
								"slot": "0",
								"type": "t_uint256"
							},
							{
								"astId": 21,
								"contract": "contract/HouseRegistryExt.sol:HouseRegistryExt",
								"label": "serialNumber",
								"offset": 0,
								"slot": "1",
								"type": "t_uint256"
							},
							{
								"astId": 23,
								"contract": "contract/HouseRegistryExt.sol:HouseRegistryExt",
								"label": "price",
								"offset": 0,
								"slot": "2",
								"type": "t_uint256"
							},
							{
								"astId": 25,
								"contract": "contract/HouseRegistryExt.sol:HouseRegistryExt",
								"label": "priceDai",
								"offset": 0,
								"slot": "3",
								"type": "t_uint256"
							},
							{
								"astId": 27,
								"contract": "contract/HouseRegistryExt.sol:HouseRegistryExt",
								"label": "area",
								"offset": 0,
								"slot": "4",
								"type": "t_uint256"
							},
							{
								"astId": 29,
								"contract": "contract/HouseRegistryExt.sol:HouseRegistryExt",
								"label": "sellerAddress",
								"offset": 0,
								"slot": "5",
								"type": "t_address"
							},
							{
								"astId": 31,
								"contract": "contract/HouseRegistryExt.sol:HouseRegistryExt",
								"label": "buyerAddress",
								"offset": 0,
								"slot": "6",
								"type": "t_address"
							},
							{
								"astId": 33,
								"contract": "contract/HouseRegistryExt.sol:HouseRegistryExt",
								"label": "houseAddress",
								"offset": 0,
								"slot": "7",
								"type": "t_string_storage"
							},
							{
								"astId": 35,
								"contract": "contract/HouseRegistryExt.sol:HouseRegistryExt",
								"label": "isdelistedHouse",
								"offset": 0,
								"slot": "8",
								"type": "t_bool"
							}
						],
						"numberOfBytes": "288"
					},
					"t_uint256": {
						"encoding": "inplace",
						"label": "uint256",
						"numberOfBytes": "32"
					}
				}
			},
			"userdoc": {
				"kind": "user",
				"methods": {},
				"version": 1
			}
		}
	}
}