{
	"contract/HouseRegistryExt.sol": {
		"HouseRegistryExt": {
			"abi": [
				{
					"anonymous": false,
					"inputs": [
						{
							"indexed": false,
							"internalType": "uint256",
							"name": "houseId",
							"type": "uint256"
						},
						{
							"indexed": false,
							"internalType": "address",
							"name": "_sellerAddress",
							"type": "address"
						},
						{
							"indexed": false,
							"internalType": "uint256",
							"name": "price",
							"type": "uint256"
						},
						{
							"indexed": false,
							"internalType": "string",
							"name": "houseAddress",
							"type": "string"
						}
					],
					"name": "AddNewHouse",
					"type": "event"
				},
				{
					"anonymous": false,
					"inputs": [
						{
							"indexed": true,
							"internalType": "address",
							"name": "previousOwner",
							"type": "address"
						},
						{
							"indexed": true,
							"internalType": "address",
							"name": "newOwner",
							"type": "address"
						}
					],
					"name": "OwnershipTransferred",
					"type": "event"
				},
				{
					"inputs": [
						{
							"internalType": "uint256",
							"name": "houseId",
							"type": "uint256"
						}
					],
					"name": "delistHouse",
					"outputs": [],
					"stateMutability": "nonpayable",
					"type": "function"
				},
				{
					"inputs": [
						{
							"internalType": "uint256",
							"name": "",
							"type": "uint256"
						}
					],
					"name": "houses",
					"outputs": [
						{
							"internalType": "uint256",
							"name": "id",
							"type": "uint256"
						},
						{
							"internalType": "uint256",
							"name": "price",
							"type": "uint256"
						},
						{
							"internalType": "uint256",
							"name": "area",
							"type": "uint256"
						},
						{
							"internalType": "address",
							"name": "sellerAddress",
							"type": "address"
						},
						{
							"internalType": "string",
							"name": "houseAddress",
							"type": "string"
						},
						{
							"internalType": "bool",
							"name": "isdelistedHouse",
							"type": "bool"
						},
						{
							"internalType": "uint256",
							"name": "readyTime",
							"type": "uint256"
						}
					],
					"stateMutability": "view",
					"type": "function"
				},
				{
					"inputs": [
						{
							"internalType": "uint256",
							"name": "_price",
							"type": "uint256"
						},
						{
							"internalType": "uint256",
							"name": "_area",
							"type": "uint256"
						},
						{
							"internalType": "address",
							"name": "_sellerAddress",
							"type": "address"
						},
						{
							"internalType": "string",
							"name": "_houseAddress",
							"type": "string"
						}
					],
					"name": "listHouse",
					"outputs": [
						{
							"internalType": "uint256",
							"name": "",
							"type": "uint256"
						}
					],
					"stateMutability": "nonpayable",
					"type": "function"
				},
				{
					"inputs": [
						{
							"internalType": "uint256",
							"name": "_price",
							"type": "uint256"
						},
						{
							"internalType": "uint256",
							"name": "_area",
							"type": "uint256"
						},
						{
							"internalType": "string",
							"name": "_houseAddress",
							"type": "string"
						}
					],
					"name": "listHouseSimple",
					"outputs": [],
					"stateMutability": "nonpayable",
					"type": "function"
				},
				{
					"inputs": [],
					"name": "owner",
					"outputs": [
						{
							"internalType": "address",
							"name": "",
							"type": "address"
						}
					],
					"stateMutability": "view",
					"type": "function"
				},
				{
					"inputs": [],
					"name": "renounceOwnership",
					"outputs": [],
					"stateMutability": "nonpayable",
					"type": "function"
				},
				{
					"inputs": [
						{
							"internalType": "address",
							"name": "newOwner",
							"type": "address"
						}
					],
					"name": "transferOwnership",
					"outputs": [],
					"stateMutability": "nonpayable",
					"type": "function"
				}
			],
			"devdoc": {
				"kind": "dev",
				"methods": {
					"owner()": {
						"details": "Returns the address of the current owner."
					},
					"renounceOwnership()": {
						"details": "Leaves the contract without owner. It will not be possible to call `onlyOwner` functions anymore. Can only be called by the current owner. NOTE: Renouncing ownership will leave the contract without an owner, thereby removing any functionality that is only available to the owner."
					},
					"transferOwnership(address)": {
						"details": "Transfers ownership of the contract to a new account (`newOwner`). Can only be called by the current owner."
					}
				},
				"version": 1
			},
			"evm": {
				"assembly": "    /* \"contract/HouseRegistryExt.sol\":99:307  contract HouseRegistryExt is HouseRegistry {\r... */\n  mstore(0x40, 0x80)\n    /* \"contract/HouseRegistry.sol\":142:143  5 */\n  0x05\n    /* \"contract/HouseRegistry.sol\":128:143  uint digits = 5 */\n  0x01\n  sstore\n    /* \"contract/HouseRegistry.sol\":170:176  digits */\n  sload(0x01)\n    /* \"contract/HouseRegistry.sol\":164:166  10 */\n  0x0a\n    /* \"contract/HouseRegistry.sol\":164:176  10 ** digits */\n  tag_1\n  swap2\n  swap1\n  tag_2\n  jump\t// in\ntag_1:\n    /* \"contract/HouseRegistry.sol\":149:176  uint modulus = 10 ** digits */\n  0x02\n  sstore\n    /* \"contract/HouseRegistry.sol\":202:208  1 days */\n  0x015180\n    /* \"contract/HouseRegistry.sol\":182:208  uint cooldownTime = 1 days */\n  0x03\n  sstore\n    /* \"contract/HouseRegistryExt.sol\":99:307  contract HouseRegistryExt is HouseRegistry {\r... */\n  callvalue\n  dup1\n  iszero\n  tag_3\n  jumpi\n  0x00\n  dup1\n  revert\ntag_3:\n  pop\n    /* \"contract/Ownable.sol\":948:980  _transferOwnership(_msgSender()) */\n  tag_6\n    /* \"contract/Ownable.sol\":967:979  _msgSender() */\n  tag_7\n    /* \"contract/Ownable.sol\":967:977  _msgSender */\n  shl(0x20, tag_8)\n    /* \"contract/Ownable.sol\":967:979  _msgSender() */\n  0x20\n  shr\n  jump\t// in\ntag_7:\n    /* \"contract/Ownable.sol\":948:966  _transferOwnership */\n  shl(0x20, tag_9)\n    /* \"contract/Ownable.sol\":948:980  _transferOwnership(_msgSender()) */\n  0x20\n  shr\n  jump\t// in\ntag_6:\n    /* \"contract/HouseRegistryExt.sol\":99:307  contract HouseRegistryExt is HouseRegistry {\r... */\n  jump(tag_10)\n    /* \"contract/utils/Context.sol\":656:754  function _msgSender() internal view virtual returns (address) {\r... */\ntag_8:\n    /* \"contract/utils/Context.sol\":709:716  address */\n  0x00\n    /* \"contract/utils/Context.sol\":736:746  msg.sender */\n  caller\n    /* \"contract/utils/Context.sol\":729:746  return msg.sender */\n  swap1\n  pop\n    /* \"contract/utils/Context.sol\":656:754  function _msgSender() internal view virtual returns (address) {\r... */\n  swap1\n  jump\t// out\n    /* \"contract/Ownable.sol\":2339:2530  function _transferOwnership(address newOwner) internal virtual {\r... */\ntag_9:\n    /* \"contract/Ownable.sol\":2413:2429  address oldOwner */\n  0x00\n    /* \"contract/Ownable.sol\":2432:2438  _owner */\n  dup1\n  0x00\n  swap1\n  sload\n  swap1\n  0x0100\n  exp\n  swap1\n  div\n  0xffffffffffffffffffffffffffffffffffffffff\n  and\n    /* \"contract/Ownable.sol\":2413:2438  address oldOwner = _owner */\n  swap1\n  pop\n    /* \"contract/Ownable.sol\":2458:2466  newOwner */\n  dup2\n    /* \"contract/Ownable.sol\":2449:2455  _owner */\n  0x00\n  dup1\n    /* \"contract/Ownable.sol\":2449:2466  _owner = newOwner */\n  0x0100\n  exp\n  dup2\n  sload\n  dup2\n  0xffffffffffffffffffffffffffffffffffffffff\n  mul\n  not\n  and\n  swap1\n  dup4\n  0xffffffffffffffffffffffffffffffffffffffff\n  and\n  mul\n  or\n  swap1\n  sstore\n  pop\n    /* \"contract/Ownable.sol\":2513:2521  newOwner */\n  dup2\n    /* \"contract/Ownable.sol\":2482:2522  OwnershipTransferred(oldOwner, newOwner) */\n  0xffffffffffffffffffffffffffffffffffffffff\n  and\n    /* \"contract/Ownable.sol\":2503:2511  oldOwner */\n  dup2\n    /* \"contract/Ownable.sol\":2482:2522  OwnershipTransferred(oldOwner, newOwner) */\n  0xffffffffffffffffffffffffffffffffffffffff\n  and\n  0x8be0079c531659141344cd1fd0a4f28419497f9722a3daafe3b4186f6b6457e0\n  mload(0x40)\n  mload(0x40)\n  dup1\n  swap2\n  sub\n  swap1\n  log3\n    /* \"contract/Ownable.sol\":2402:2530  {\r... */\n  pop\n    /* \"contract/Ownable.sol\":2339:2530  function _transferOwnership(address newOwner) internal virtual {\r... */\n  pop\n  jump\t// out\n    /* \"#utility.yul\":7:855   */\ntag_14:\n    /* \"#utility.yul\":68:73   */\n  0x00\n    /* \"#utility.yul\":75:79   */\n  dup1\n    /* \"#utility.yul\":99:105   */\n  dup3\n    /* \"#utility.yul\":90:105   */\n  swap2\n  pop\n    /* \"#utility.yul\":123:128   */\n  dup4\n    /* \"#utility.yul\":114:128   */\n  swap1\n  pop\n    /* \"#utility.yul\":137:849   */\ntag_16:\n    /* \"#utility.yul\":158:159   */\n  0x01\n    /* \"#utility.yul\":148:156   */\n  dup6\n    /* \"#utility.yul\":145:160   */\n  gt\n    /* \"#utility.yul\":137:849   */\n  iszero\n  tag_18\n  jumpi\n    /* \"#utility.yul\":253:257   */\n  dup1\n    /* \"#utility.yul\":248:251   */\n  dup7\n    /* \"#utility.yul\":244:258   */\n  div\n    /* \"#utility.yul\":238:242   */\n  dup2\n    /* \"#utility.yul\":235:259   */\n  gt\n    /* \"#utility.yul\":232:282   */\n  iszero\n  tag_19\n  jumpi\n    /* \"#utility.yul\":262:280   */\n  tag_20\n  tag_21\n  jump\t// in\ntag_20:\n    /* \"#utility.yul\":232:282   */\ntag_19:\n    /* \"#utility.yul\":312:313   */\n  0x01\n    /* \"#utility.yul\":302:310   */\n  dup6\n    /* \"#utility.yul\":298:314   */\n  and\n    /* \"#utility.yul\":295:746   */\n  iszero\n  tag_22\n  jumpi\n    /* \"#utility.yul\":727:731   */\n  dup1\n    /* \"#utility.yul\":720:725   */\n  dup3\n    /* \"#utility.yul\":716:732   */\n  mul\n    /* \"#utility.yul\":707:732   */\n  swap2\n  pop\n    /* \"#utility.yul\":295:746   */\ntag_22:\n    /* \"#utility.yul\":777:781   */\n  dup1\n    /* \"#utility.yul\":771:775   */\n  dup2\n    /* \"#utility.yul\":767:782   */\n  mul\n    /* \"#utility.yul\":759:782   */\n  swap1\n  pop\n    /* \"#utility.yul\":807:839   */\n  tag_23\n    /* \"#utility.yul\":830:838   */\n  dup6\n    /* \"#utility.yul\":807:839   */\n  tag_24\n  jump\t// in\ntag_23:\n    /* \"#utility.yul\":795:839   */\n  swap5\n  pop\n    /* \"#utility.yul\":137:849   */\n  jump(tag_16)\ntag_18:\n    /* \"#utility.yul\":7:855   */\n  swap5\n  pop\n  swap5\n  swap3\n  pop\n  pop\n  pop\n  jump\t// out\n    /* \"#utility.yul\":861:1146   */\ntag_2:\n    /* \"#utility.yul\":921:926   */\n  0x00\n    /* \"#utility.yul\":945:968   */\n  tag_26\n    /* \"#utility.yul\":963:967   */\n  dup3\n    /* \"#utility.yul\":945:968   */\n  tag_27\n  jump\t// in\ntag_26:\n    /* \"#utility.yul\":937:968   */\n  swap2\n  pop\n    /* \"#utility.yul\":989:1016   */\n  tag_28\n    /* \"#utility.yul\":1007:1015   */\n  dup4\n    /* \"#utility.yul\":989:1016   */\n  tag_27\n  jump\t// in\ntag_28:\n    /* \"#utility.yul\":977:1016   */\n  swap3\n  pop\n    /* \"#utility.yul\":1035:1139   */\n  tag_29\n    /* \"#utility.yul\":1072:1138   */\n  0xffffffffffffffffffffffffffffffffffffffffffffffffffffffffffffffff\n    /* \"#utility.yul\":1062:1070   */\n  dup5\n    /* \"#utility.yul\":1056:1060   */\n  dup5\n    /* \"#utility.yul\":1035:1139   */\n  tag_30\n  jump\t// in\ntag_29:\n    /* \"#utility.yul\":1026:1139   */\n  swap1\n  pop\n    /* \"#utility.yul\":861:1146   */\n  swap3\n  swap2\n  pop\n  pop\n  jump\t// out\n    /* \"#utility.yul\":1152:2225   */\ntag_30:\n    /* \"#utility.yul\":1206:1211   */\n  0x00\n    /* \"#utility.yul\":1397:1405   */\n  dup3\n    /* \"#utility.yul\":1387:1427   */\n  tag_32\n  jumpi\n    /* \"#utility.yul\":1418:1419   */\n  0x01\n    /* \"#utility.yul\":1409:1419   */\n  swap1\n  pop\n    /* \"#utility.yul\":1420:1425   */\n  jump(tag_31)\n    /* \"#utility.yul\":1387:1427   */\ntag_32:\n    /* \"#utility.yul\":1446:1450   */\n  dup2\n    /* \"#utility.yul\":1436:1472   */\n  tag_33\n  jumpi\n    /* \"#utility.yul\":1463:1464   */\n  0x00\n    /* \"#utility.yul\":1454:1464   */\n  swap1\n  pop\n    /* \"#utility.yul\":1465:1470   */\n  jump(tag_31)\n    /* \"#utility.yul\":1436:1472   */\ntag_33:\n    /* \"#utility.yul\":1532:1536   */\n  dup2\n    /* \"#utility.yul\":1580:1581   */\n  0x01\n    /* \"#utility.yul\":1575:1602   */\n  dup2\n  eq\n  tag_35\n  jumpi\n    /* \"#utility.yul\":1616:1617   */\n  0x02\n    /* \"#utility.yul\":1611:1802   */\n  dup2\n  eq\n  tag_36\n  jumpi\n    /* \"#utility.yul\":1525:1802   */\n  jump(tag_34)\n    /* \"#utility.yul\":1575:1602   */\ntag_35:\n    /* \"#utility.yul\":1593:1594   */\n  0x01\n    /* \"#utility.yul\":1584:1594   */\n  swap2\n  pop\n    /* \"#utility.yul\":1595:1600   */\n  pop\n  jump(tag_31)\n    /* \"#utility.yul\":1611:1802   */\ntag_36:\n    /* \"#utility.yul\":1656:1659   */\n  0xff\n    /* \"#utility.yul\":1646:1654   */\n  dup5\n    /* \"#utility.yul\":1643:1660   */\n  gt\n    /* \"#utility.yul\":1640:1683   */\n  iszero\n  tag_37\n  jumpi\n    /* \"#utility.yul\":1663:1681   */\n  tag_38\n  tag_21\n  jump\t// in\ntag_38:\n    /* \"#utility.yul\":1640:1683   */\ntag_37:\n    /* \"#utility.yul\":1712:1720   */\n  dup4\n    /* \"#utility.yul\":1709:1710   */\n  0x02\n    /* \"#utility.yul\":1705:1721   */\n  exp\n    /* \"#utility.yul\":1696:1721   */\n  swap2\n  pop\n    /* \"#utility.yul\":1747:1750   */\n  dup5\n    /* \"#utility.yul\":1740:1745   */\n  dup3\n    /* \"#utility.yul\":1737:1751   */\n  gt\n    /* \"#utility.yul\":1734:1774   */\n  iszero\n  tag_39\n  jumpi\n    /* \"#utility.yul\":1754:1772   */\n  tag_40\n  tag_21\n  jump\t// in\ntag_40:\n    /* \"#utility.yul\":1734:1774   */\ntag_39:\n    /* \"#utility.yul\":1787:1792   */\n  pop\n  jump(tag_31)\n    /* \"#utility.yul\":1525:1802   */\ntag_34:\n  pop\n    /* \"#utility.yul\":1911:1913   */\n  0x20\n    /* \"#utility.yul\":1901:1909   */\n  dup4\n    /* \"#utility.yul\":1898:1914   */\n  lt\n    /* \"#utility.yul\":1892:1895   */\n  0x0133\n    /* \"#utility.yul\":1886:1890   */\n  dup4\n    /* \"#utility.yul\":1883:1896   */\n  lt\n    /* \"#utility.yul\":1879:1915   */\n  and\n    /* \"#utility.yul\":1861:1863   */\n  0x4e\n    /* \"#utility.yul\":1851:1859   */\n  dup5\n    /* \"#utility.yul\":1848:1864   */\n  lt\n    /* \"#utility.yul\":1843:1845   */\n  0x0b\n    /* \"#utility.yul\":1837:1841   */\n  dup5\n    /* \"#utility.yul\":1834:1846   */\n  lt\n    /* \"#utility.yul\":1830:1865   */\n  and\n    /* \"#utility.yul\":1814:1925   */\n  or\n    /* \"#utility.yul\":1811:2057   */\n  iszero\n  tag_41\n  jumpi\n    /* \"#utility.yul\":1967:1975   */\n  dup3\n    /* \"#utility.yul\":1961:1965   */\n  dup3\n    /* \"#utility.yul\":1957:1976   */\n  exp\n    /* \"#utility.yul\":1948:1976   */\n  swap1\n  pop\n    /* \"#utility.yul\":2002:2005   */\n  dup4\n    /* \"#utility.yul\":1995:2000   */\n  dup2\n    /* \"#utility.yul\":1992:2006   */\n  gt\n    /* \"#utility.yul\":1989:2029   */\n  iszero\n  tag_42\n  jumpi\n    /* \"#utility.yul\":2009:2027   */\n  tag_43\n  tag_21\n  jump\t// in\ntag_43:\n    /* \"#utility.yul\":1989:2029   */\ntag_42:\n    /* \"#utility.yul\":2042:2047   */\n  jump(tag_31)\n    /* \"#utility.yul\":1811:2057   */\ntag_41:\n    /* \"#utility.yul\":2082:2124   */\n  tag_44\n    /* \"#utility.yul\":2120:2123   */\n  dup5\n    /* \"#utility.yul\":2110:2118   */\n  dup5\n    /* \"#utility.yul\":2104:2108   */\n  dup5\n    /* \"#utility.yul\":2101:2102   */\n  0x01\n    /* \"#utility.yul\":2082:2124   */\n  tag_14\n  jump\t// in\ntag_44:\n    /* \"#utility.yul\":2067:2124   */\n  swap3\n  pop\n  swap1\n  pop\n    /* \"#utility.yul\":2156:2160   */\n  dup2\n    /* \"#utility.yul\":2151:2154   */\n  dup5\n    /* \"#utility.yul\":2147:2161   */\n  div\n    /* \"#utility.yul\":2140:2145   */\n  dup2\n    /* \"#utility.yul\":2137:2162   */\n  gt\n    /* \"#utility.yul\":2134:2185   */\n  iszero\n  tag_45\n  jumpi\n    /* \"#utility.yul\":2165:2183   */\n  tag_46\n  tag_21\n  jump\t// in\ntag_46:\n    /* \"#utility.yul\":2134:2185   */\ntag_45:\n    /* \"#utility.yul\":2214:2218   */\n  dup2\n    /* \"#utility.yul\":2207:2212   */\n  dup2\n    /* \"#utility.yul\":2203:2219   */\n  mul\n    /* \"#utility.yul\":2194:2219   */\n  swap1\n  pop\n    /* \"#utility.yul\":1152:2225   */\ntag_31:\n  swap4\n  swap3\n  pop\n  pop\n  pop\n  jump\t// out\n    /* \"#utility.yul\":2231:2308   */\ntag_27:\n    /* \"#utility.yul\":2268:2275   */\n  0x00\n    /* \"#utility.yul\":2297:2302   */\n  dup2\n    /* \"#utility.yul\":2286:2302   */\n  swap1\n  pop\n    /* \"#utility.yul\":2231:2308   */\n  swap2\n  swap1\n  pop\n  jump\t// out\n    /* \"#utility.yul\":2314:2494   */\ntag_21:\n    /* \"#utility.yul\":2362:2439   */\n  0x4e487b7100000000000000000000000000000000000000000000000000000000\n    /* \"#utility.yul\":2359:2360   */\n  0x00\n    /* \"#utility.yul\":2352:2440   */\n  mstore\n    /* \"#utility.yul\":2459:2463   */\n  0x11\n    /* \"#utility.yul\":2456:2457   */\n  0x04\n    /* \"#utility.yul\":2449:2464   */\n  mstore\n    /* \"#utility.yul\":2483:2487   */\n  0x24\n    /* \"#utility.yul\":2480:2481   */\n  0x00\n    /* \"#utility.yul\":2473:2488   */\n  revert\n    /* \"#utility.yul\":2500:2602   */\ntag_24:\n    /* \"#utility.yul\":2542:2550   */\n  0x00\n    /* \"#utility.yul\":2589:2594   */\n  dup2\n    /* \"#utility.yul\":2586:2587   */\n  0x01\n    /* \"#utility.yul\":2582:2595   */\n  shr\n    /* \"#utility.yul\":2561:2595   */\n  swap1\n  pop\n    /* \"#utility.yul\":2500:2602   */\n  swap2\n  swap1\n  pop\n  jump\t// out\n    /* \"contract/HouseRegistryExt.sol\":99:307  contract HouseRegistryExt is HouseRegistry {\r... */\ntag_10:\n  dataSize(sub_0)\n  dup1\n  dataOffset(sub_0)\n  0x00\n  codecopy\n  0x00\n  return\nstop\n\nsub_0: assembly {\n        /* \"contract/HouseRegistryExt.sol\":99:307  contract HouseRegistryExt is HouseRegistry {\r... */\n      mstore(0x40, 0x80)\n      callvalue\n      dup1\n      iszero\n      tag_1\n      jumpi\n      0x00\n      dup1\n      revert\n    tag_1:\n      pop\n      jumpi(tag_2, lt(calldatasize, 0x04))\n      shr(0xe0, calldataload(0x00))\n      dup1\n      0x91bfe0d4\n      gt\n      tag_10\n      jumpi\n      dup1\n      0x91bfe0d4\n      eq\n      tag_6\n      jumpi\n      dup1\n      0xaeda852f\n      eq\n      tag_7\n      jumpi\n      dup1\n      0xbe40a73e\n      eq\n      tag_8\n      jumpi\n      dup1\n      0xf2fde38b\n      eq\n      tag_9\n      jumpi\n      jump(tag_2)\n    tag_10:\n      dup1\n      0x3c3b0b4a\n      eq\n      tag_3\n      jumpi\n      dup1\n      0x715018a6\n      eq\n      tag_4\n      jumpi\n      dup1\n      0x8da5cb5b\n      eq\n      tag_5\n      jumpi\n    tag_2:\n      0x00\n      dup1\n      revert\n        /* \"contract/HouseRegistry.sol\":1385:1590  function delistHouse(uint houseId) public{... */\n    tag_3:\n      tag_11\n      0x04\n      dup1\n      calldatasize\n      sub\n      dup2\n      add\n      swap1\n      tag_12\n      swap2\n      swap1\n      tag_13\n      jump\t// in\n    tag_12:\n      tag_14\n      jump\t// in\n    tag_11:\n      stop\n        /* \"contract/Ownable.sol\":1720:1823  function renounceOwnership() public virtual onlyOwner {\r... */\n    tag_4:\n      tag_15\n      tag_16\n      jump\t// in\n    tag_15:\n      stop\n        /* \"contract/Ownable.sol\":1069:1156  function owner() public view virtual returns (address) {\r... */\n    tag_5:\n      tag_17\n      tag_18\n      jump\t// in\n    tag_17:\n      mload(0x40)\n      tag_19\n      swap2\n      swap1\n      tag_20\n      jump\t// in\n    tag_19:\n      mload(0x40)\n      dup1\n      swap2\n      sub\n      swap1\n      return\n        /* \"contract/HouseRegistry.sol\":548:1119  function listHouse (uint _price, uint _area, address _sellerAddress, string memory _houseAddress) public returns (uint) {... */\n    tag_6:\n      tag_21\n      0x04\n      dup1\n      calldatasize\n      sub\n      dup2\n      add\n      swap1\n      tag_22\n      swap2\n      swap1\n      tag_23\n      jump\t// in\n    tag_22:\n      tag_24\n      jump\t// in\n    tag_21:\n      mload(0x40)\n      tag_25\n      swap2\n      swap1\n      tag_26\n      jump\t// in\n    tag_25:\n      mload(0x40)\n      dup1\n      swap2\n      sub\n      swap1\n      return\n        /* \"contract/HouseRegistry.sol\":505:541  mapping(uint => House) public houses */\n    tag_7:\n      tag_27\n      0x04\n      dup1\n      calldatasize\n      sub\n      dup2\n      add\n      swap1\n      tag_28\n      swap2\n      swap1\n      tag_13\n      jump\t// in\n    tag_28:\n      tag_29\n      jump\t// in\n    tag_27:\n      mload(0x40)\n      tag_30\n      swap8\n      swap7\n      swap6\n      swap5\n      swap4\n      swap3\n      swap2\n      swap1\n      tag_31\n      jump\t// in\n    tag_30:\n      mload(0x40)\n      dup1\n      swap2\n      sub\n      swap1\n      return\n        /* \"contract/HouseRegistryExt.sol\":149:304  function listHouseSimple(uint _price, uint _area, string memory _houseAddress) public{\r... */\n    tag_8:\n      tag_32\n      0x04\n      dup1\n      calldatasize\n      sub\n      dup2\n      add\n      swap1\n      tag_33\n      swap2\n      swap1\n      tag_34\n      jump\t// in\n    tag_33:\n      tag_35\n      jump\t// in\n    tag_32:\n      stop\n        /* \"contract/Ownable.sol\":1978:2179  function transferOwnership(address newOwner) public virtual onlyOwner {\r... */\n    tag_9:\n      tag_36\n      0x04\n      dup1\n      calldatasize\n      sub\n      dup2\n      add\n      swap1\n      tag_37\n      swap2\n      swap1\n      tag_38\n      jump\t// in\n    tag_37:\n      tag_39\n      jump\t// in\n    tag_36:\n      stop\n        /* \"contract/HouseRegistry.sol\":1385:1590  function delistHouse(uint houseId) public{... */\n    tag_14:\n        /* \"contract/HouseRegistry.sol\":1477:1487  msg.sender */\n      caller\n        /* \"contract/HouseRegistry.sol\":1444:1487  houses[houseId].sellerAddress == msg.sender */\n      0xffffffffffffffffffffffffffffffffffffffff\n      and\n        /* \"contract/HouseRegistry.sol\":1444:1450  houses */\n      0x04\n        /* \"contract/HouseRegistry.sol\":1444:1459  houses[houseId] */\n      0x00\n        /* \"contract/HouseRegistry.sol\":1451:1458  houseId */\n      dup4\n        /* \"contract/HouseRegistry.sol\":1444:1459  houses[houseId] */\n      dup2\n      mstore\n      0x20\n      add\n      swap1\n      dup2\n      mstore\n      0x20\n      add\n      0x00\n      keccak256\n        /* \"contract/HouseRegistry.sol\":1444:1473  houses[houseId].sellerAddress */\n      0x03\n      add\n      0x00\n      swap1\n      sload\n      swap1\n      0x0100\n      exp\n      swap1\n      div\n      0xffffffffffffffffffffffffffffffffffffffff\n      and\n        /* \"contract/HouseRegistry.sol\":1444:1487  houses[houseId].sellerAddress == msg.sender */\n      0xffffffffffffffffffffffffffffffffffffffff\n      and\n      eq\n        /* \"contract/HouseRegistry.sol\":1436:1535  require(houses[houseId].sellerAddress == msg.sender, \"You do not have access to delete this house\") */\n      tag_41\n      jumpi\n      mload(0x40)\n      0x08c379a000000000000000000000000000000000000000000000000000000000\n      dup2\n      mstore\n      0x04\n      add\n      tag_42\n      swap1\n      tag_43\n      jump\t// in\n    tag_42:\n      mload(0x40)\n      dup1\n      swap2\n      sub\n      swap1\n      revert\n    tag_41:\n        /* \"contract/HouseRegistry.sol\":1579:1583  true */\n      0x01\n        /* \"contract/HouseRegistry.sol\":1545:1551  houses */\n      0x04\n        /* \"contract/HouseRegistry.sol\":1545:1560  houses[houseId] */\n      0x00\n        /* \"contract/HouseRegistry.sol\":1552:1559  houseId */\n      dup4\n        /* \"contract/HouseRegistry.sol\":1545:1560  houses[houseId] */\n      dup2\n      mstore\n      0x20\n      add\n      swap1\n      dup2\n      mstore\n      0x20\n      add\n      0x00\n      keccak256\n        /* \"contract/HouseRegistry.sol\":1545:1576  houses[houseId].isdelistedHouse */\n      0x05\n      add\n      0x00\n        /* \"contract/HouseRegistry.sol\":1545:1583  houses[houseId].isdelistedHouse = true */\n      0x0100\n      exp\n      dup2\n      sload\n      dup2\n      0xff\n      mul\n      not\n      and\n      swap1\n      dup4\n      iszero\n      iszero\n      mul\n      or\n      swap1\n      sstore\n      pop\n        /* \"contract/HouseRegistry.sol\":1385:1590  function delistHouse(uint houseId) public{... */\n      pop\n      jump\t// out\n        /* \"contract/Ownable.sol\":1720:1823  function renounceOwnership() public virtual onlyOwner {\r... */\n    tag_16:\n        /* \"contract/Ownable.sol\":1300:1312  _msgSender() */\n      tag_45\n        /* \"contract/Ownable.sol\":1300:1310  _msgSender */\n      tag_46\n        /* \"contract/Ownable.sol\":1300:1312  _msgSender() */\n      jump\t// in\n    tag_45:\n        /* \"contract/Ownable.sol\":1289:1312  owner() == _msgSender() */\n      0xffffffffffffffffffffffffffffffffffffffff\n      and\n        /* \"contract/Ownable.sol\":1289:1296  owner() */\n      tag_47\n        /* \"contract/Ownable.sol\":1289:1294  owner */\n      tag_18\n        /* \"contract/Ownable.sol\":1289:1296  owner() */\n      jump\t// in\n    tag_47:\n        /* \"contract/Ownable.sol\":1289:1312  owner() == _msgSender() */\n      0xffffffffffffffffffffffffffffffffffffffff\n      and\n      eq\n        /* \"contract/Ownable.sol\":1281:1349  require(owner() == _msgSender(), \"Ownable: caller is not the owner\") */\n      tag_48\n      jumpi\n      mload(0x40)\n      0x08c379a000000000000000000000000000000000000000000000000000000000\n      dup2\n      mstore\n      0x04\n      add\n      tag_49\n      swap1\n      tag_50\n      jump\t// in\n    tag_49:\n      mload(0x40)\n      dup1\n      swap2\n      sub\n      swap1\n      revert\n    tag_48:\n        /* \"contract/Ownable.sol\":1785:1815  _transferOwnership(address(0)) */\n      tag_52\n        /* \"contract/Ownable.sol\":1812:1813  0 */\n      0x00\n        /* \"contract/Ownable.sol\":1785:1803  _transferOwnership */\n      tag_53\n        /* \"contract/Ownable.sol\":1785:1815  _transferOwnership(address(0)) */\n      jump\t// in\n    tag_52:\n        /* \"contract/Ownable.sol\":1720:1823  function renounceOwnership() public virtual onlyOwner {\r... */\n      jump\t// out\n        /* \"contract/Ownable.sol\":1069:1156  function owner() public view virtual returns (address) {\r... */\n    tag_18:\n        /* \"contract/Ownable.sol\":1115:1122  address */\n      0x00\n        /* \"contract/Ownable.sol\":1142:1148  _owner */\n      dup1\n      0x00\n      swap1\n      sload\n      swap1\n      0x0100\n      exp\n      swap1\n      div\n      0xffffffffffffffffffffffffffffffffffffffff\n      and\n        /* \"contract/Ownable.sol\":1135:1148  return _owner */\n      swap1\n      pop\n        /* \"contract/Ownable.sol\":1069:1156  function owner() public view virtual returns (address) {\r... */\n      swap1\n      jump\t// out\n        /* \"contract/HouseRegistry.sol\":548:1119  function listHouse (uint _price, uint _area, address _sellerAddress, string memory _houseAddress) public returns (uint) {... */\n    tag_24:\n        /* \"contract/HouseRegistry.sol\":662:666  uint */\n      0x00\n        /* \"contract/HouseRegistry.sol\":703:704  0 */\n      dup1\n        /* \"contract/HouseRegistry.sol\":695:700  _area */\n      dup5\n        /* \"contract/HouseRegistry.sol\":686:692  _price */\n      dup7\n        /* \"contract/HouseRegistry.sol\":686:700  _price * _area */\n      tag_56\n      swap2\n      swap1\n      tag_57\n      jump\t// in\n    tag_56:\n        /* \"contract/HouseRegistry.sol\":686:704  _price * _area > 0 */\n      gt\n        /* \"contract/HouseRegistry.sol\":678:729  require(_price * _area > 0, \"value cannot be null\") */\n      tag_58\n      jumpi\n      mload(0x40)\n      0x08c379a000000000000000000000000000000000000000000000000000000000\n      dup2\n      mstore\n      0x04\n      add\n      tag_59\n      swap1\n      tag_60\n      jump\t// in\n    tag_59:\n      mload(0x40)\n      dup1\n      swap2\n      sub\n      swap1\n      revert\n    tag_58:\n        /* \"contract/HouseRegistry.sol\":739:751  uint houseId */\n      0x00\n        /* \"contract/HouseRegistry.sol\":754:808  _generateHouseId(_sellerAddress, _area, _houseAddress) */\n      tag_61\n        /* \"contract/HouseRegistry.sol\":771:785  _sellerAddress */\n      dup5\n        /* \"contract/HouseRegistry.sol\":787:792  _area */\n      dup7\n        /* \"contract/HouseRegistry.sol\":794:807  _houseAddress */\n      dup6\n        /* \"contract/HouseRegistry.sol\":754:770  _generateHouseId */\n      tag_62\n        /* \"contract/HouseRegistry.sol\":754:808  _generateHouseId(_sellerAddress, _area, _houseAddress) */\n      jump\t// in\n    tag_61:\n        /* \"contract/HouseRegistry.sol\":739:808  uint houseId = _generateHouseId(_sellerAddress, _area, _houseAddress) */\n      swap1\n      pop\n        /* \"contract/HouseRegistry.sol\":837:843  houses */\n      0x04\n        /* \"contract/HouseRegistry.sol\":837:852  houses[houseId] */\n      0x00\n        /* \"contract/HouseRegistry.sol\":844:851  houseId */\n      dup3\n        /* \"contract/HouseRegistry.sol\":837:852  houses[houseId] */\n      dup2\n      mstore\n      0x20\n      add\n      swap1\n      dup2\n      mstore\n      0x20\n      add\n      0x00\n      keccak256\n        /* \"contract/HouseRegistry.sol\":837:855  houses[houseId].id */\n      0x00\n      add\n      sload\n        /* \"contract/HouseRegistry.sol\":826:833  houseId */\n      dup2\n        /* \"contract/HouseRegistry.sol\":826:855  houseId != houses[houseId].id */\n      eq\n      iszero\n        /* \"contract/HouseRegistry.sol\":818:887  require(houseId != houses[houseId].id, \"this houseId already exists\") */\n      tag_63\n      jumpi\n      mload(0x40)\n      0x08c379a000000000000000000000000000000000000000000000000000000000\n      dup2\n      mstore\n      0x04\n      add\n      tag_64\n      swap1\n      tag_65\n      jump\t// in\n    tag_64:\n      mload(0x40)\n      dup1\n      swap2\n      sub\n      swap1\n      revert\n    tag_63:\n        /* \"contract/HouseRegistry.sol\":915:1014  House(houseId, _price, _area, _sellerAddress, _houseAddress, false, block.timestamp + cooldownTime) */\n      mload(0x40)\n      dup1\n      0xe0\n      add\n      0x40\n      mstore\n      dup1\n        /* \"contract/HouseRegistry.sol\":921:928  houseId */\n      dup3\n        /* \"contract/HouseRegistry.sol\":915:1014  House(houseId, _price, _area, _sellerAddress, _houseAddress, false, block.timestamp + cooldownTime) */\n      dup2\n      mstore\n      0x20\n      add\n        /* \"contract/HouseRegistry.sol\":930:936  _price */\n      dup8\n        /* \"contract/HouseRegistry.sol\":915:1014  House(houseId, _price, _area, _sellerAddress, _houseAddress, false, block.timestamp + cooldownTime) */\n      dup2\n      mstore\n      0x20\n      add\n        /* \"contract/HouseRegistry.sol\":938:943  _area */\n      dup7\n        /* \"contract/HouseRegistry.sol\":915:1014  House(houseId, _price, _area, _sellerAddress, _houseAddress, false, block.timestamp + cooldownTime) */\n      dup2\n      mstore\n      0x20\n      add\n        /* \"contract/HouseRegistry.sol\":945:959  _sellerAddress */\n      dup6\n        /* \"contract/HouseRegistry.sol\":915:1014  House(houseId, _price, _area, _sellerAddress, _houseAddress, false, block.timestamp + cooldownTime) */\n      0xffffffffffffffffffffffffffffffffffffffff\n      and\n      dup2\n      mstore\n      0x20\n      add\n        /* \"contract/HouseRegistry.sol\":961:974  _houseAddress */\n      dup5\n        /* \"contract/HouseRegistry.sol\":915:1014  House(houseId, _price, _area, _sellerAddress, _houseAddress, false, block.timestamp + cooldownTime) */\n      dup2\n      mstore\n      0x20\n      add\n        /* \"contract/HouseRegistry.sol\":976:981  false */\n      0x00\n        /* \"contract/HouseRegistry.sol\":915:1014  House(houseId, _price, _area, _sellerAddress, _houseAddress, false, block.timestamp + cooldownTime) */\n      iszero\n      iszero\n      dup2\n      mstore\n      0x20\n      add\n        /* \"contract/HouseRegistry.sol\":1001:1013  cooldownTime */\n      sload(0x03)\n        /* \"contract/HouseRegistry.sol\":983:998  block.timestamp */\n      timestamp\n        /* \"contract/HouseRegistry.sol\":983:1013  block.timestamp + cooldownTime */\n      tag_66\n      swap2\n      swap1\n      tag_67\n      jump\t// in\n    tag_66:\n        /* \"contract/HouseRegistry.sol\":915:1014  House(houseId, _price, _area, _sellerAddress, _houseAddress, false, block.timestamp + cooldownTime) */\n      dup2\n      mstore\n      pop\n        /* \"contract/HouseRegistry.sol\":897:903  houses */\n      0x04\n        /* \"contract/HouseRegistry.sol\":897:912  houses[houseId] */\n      0x00\n        /* \"contract/HouseRegistry.sol\":904:911  houseId */\n      dup4\n        /* \"contract/HouseRegistry.sol\":897:912  houses[houseId] */\n      dup2\n      mstore\n      0x20\n      add\n      swap1\n      dup2\n      mstore\n      0x20\n      add\n      0x00\n      keccak256\n        /* \"contract/HouseRegistry.sol\":897:1014  houses[houseId] = House(houseId, _price, _area, _sellerAddress, _houseAddress, false, block.timestamp + cooldownTime) */\n      0x00\n      dup3\n      add\n      mload\n      dup2\n      0x00\n      add\n      sstore\n      0x20\n      dup3\n      add\n      mload\n      dup2\n      0x01\n      add\n      sstore\n      0x40\n      dup3\n      add\n      mload\n      dup2\n      0x02\n      add\n      sstore\n      0x60\n      dup3\n      add\n      mload\n      dup2\n      0x03\n      add\n      exp(0x0100, 0x00)\n      dup2\n      sload\n      dup2\n      0xffffffffffffffffffffffffffffffffffffffff\n      mul\n      not\n      and\n      swap1\n      dup4\n      0xffffffffffffffffffffffffffffffffffffffff\n      and\n      mul\n      or\n      swap1\n      sstore\n      pop\n      0x80\n      dup3\n      add\n      mload\n      dup2\n      0x04\n      add\n      swap1\n      dup1\n      mload\n      swap1\n      0x20\n      add\n      swap1\n      tag_68\n      swap3\n      swap2\n      swap1\n      tag_69\n      jump\t// in\n    tag_68:\n      pop\n      0xa0\n      dup3\n      add\n      mload\n      dup2\n      0x05\n      add\n      exp(0x0100, 0x00)\n      dup2\n      sload\n      dup2\n      0xff\n      mul\n      not\n      and\n      swap1\n      dup4\n      iszero\n      iszero\n      mul\n      or\n      swap1\n      sstore\n      pop\n      0xc0\n      dup3\n      add\n      mload\n      dup2\n      0x06\n      add\n      sstore\n      swap1\n      pop\n      pop\n        /* \"contract/HouseRegistry.sol\":1029:1088  AddNewHouse(houseId, _sellerAddress, _price, _houseAddress) */\n      0x8f5afd88eb4be0ac287d87970052ce9a2b453448408e3c91a695ad7509ab7194\n        /* \"contract/HouseRegistry.sol\":1041:1048  houseId */\n      dup2\n        /* \"contract/HouseRegistry.sol\":1050:1064  _sellerAddress */\n      dup6\n        /* \"contract/HouseRegistry.sol\":1066:1072  _price */\n      dup9\n        /* \"contract/HouseRegistry.sol\":1074:1087  _houseAddress */\n      dup7\n        /* \"contract/HouseRegistry.sol\":1029:1088  AddNewHouse(houseId, _sellerAddress, _price, _houseAddress) */\n      mload(0x40)\n      tag_70\n      swap5\n      swap4\n      swap3\n      swap2\n      swap1\n      tag_71\n      jump\t// in\n    tag_70:\n      mload(0x40)\n      dup1\n      swap2\n      sub\n      swap1\n      log1\n        /* \"contract/HouseRegistry.sol\":1105:1112  houseId */\n      dup1\n        /* \"contract/HouseRegistry.sol\":1098:1112  return houseId */\n      swap2\n      pop\n      pop\n        /* \"contract/HouseRegistry.sol\":548:1119  function listHouse (uint _price, uint _area, address _sellerAddress, string memory _houseAddress) public returns (uint) {... */\n      swap5\n      swap4\n      pop\n      pop\n      pop\n      pop\n      jump\t// out\n        /* \"contract/HouseRegistry.sol\":505:541  mapping(uint => House) public houses */\n    tag_29:\n      mstore(0x20, 0x04)\n      dup1\n      0x00\n      mstore\n      keccak256(0x00, 0x40)\n      0x00\n      swap2\n      pop\n      swap1\n      pop\n      dup1\n      0x00\n      add\n      sload\n      swap1\n      dup1\n      0x01\n      add\n      sload\n      swap1\n      dup1\n      0x02\n      add\n      sload\n      swap1\n      dup1\n      0x03\n      add\n      0x00\n      swap1\n      sload\n      swap1\n      0x0100\n      exp\n      swap1\n      div\n      0xffffffffffffffffffffffffffffffffffffffff\n      and\n      swap1\n      dup1\n      0x04\n      add\n      dup1\n      sload\n      tag_72\n      swap1\n      tag_73\n      jump\t// in\n    tag_72:\n      dup1\n      0x1f\n      add\n      0x20\n      dup1\n      swap2\n      div\n      mul\n      0x20\n      add\n      mload(0x40)\n      swap1\n      dup2\n      add\n      0x40\n      mstore\n      dup1\n      swap3\n      swap2\n      swap1\n      dup2\n      dup2\n      mstore\n      0x20\n      add\n      dup3\n      dup1\n      sload\n      tag_74\n      swap1\n      tag_73\n      jump\t// in\n    tag_74:\n      dup1\n      iszero\n      tag_75\n      jumpi\n      dup1\n      0x1f\n      lt\n      tag_76\n      jumpi\n      0x0100\n      dup1\n      dup4\n      sload\n      div\n      mul\n      dup4\n      mstore\n      swap2\n      0x20\n      add\n      swap2\n      jump(tag_75)\n    tag_76:\n      dup3\n      add\n      swap2\n      swap1\n      0x00\n      mstore\n      keccak256(0x00, 0x20)\n      swap1\n    tag_77:\n      dup2\n      sload\n      dup2\n      mstore\n      swap1\n      0x01\n      add\n      swap1\n      0x20\n      add\n      dup1\n      dup4\n      gt\n      tag_77\n      jumpi\n      dup3\n      swap1\n      sub\n      0x1f\n      and\n      dup3\n      add\n      swap2\n    tag_75:\n      pop\n      pop\n      pop\n      pop\n      pop\n      swap1\n      dup1\n      0x05\n      add\n      0x00\n      swap1\n      sload\n      swap1\n      0x0100\n      exp\n      swap1\n      div\n      0xff\n      and\n      swap1\n      dup1\n      0x06\n      add\n      sload\n      swap1\n      pop\n      dup8\n      jump\t// out\n        /* \"contract/HouseRegistryExt.sol\":149:304  function listHouseSimple(uint _price, uint _area, string memory _houseAddress) public{\r... */\n    tag_35:\n        /* \"contract/HouseRegistryExt.sol\":245:296  listHouse(_price, _area, msg.sender, _houseAddress) */\n      tag_79\n        /* \"contract/HouseRegistryExt.sol\":255:261  _price */\n      dup4\n        /* \"contract/HouseRegistryExt.sol\":263:268  _area */\n      dup4\n        /* \"contract/HouseRegistryExt.sol\":270:280  msg.sender */\n      caller\n        /* \"contract/HouseRegistryExt.sol\":282:295  _houseAddress */\n      dup5\n        /* \"contract/HouseRegistryExt.sol\":245:254  listHouse */\n      tag_24\n        /* \"contract/HouseRegistryExt.sol\":245:296  listHouse(_price, _area, msg.sender, _houseAddress) */\n      jump\t// in\n    tag_79:\n      pop\n        /* \"contract/HouseRegistryExt.sol\":149:304  function listHouseSimple(uint _price, uint _area, string memory _houseAddress) public{\r... */\n      pop\n      pop\n      pop\n      jump\t// out\n        /* \"contract/Ownable.sol\":1978:2179  function transferOwnership(address newOwner) public virtual onlyOwner {\r... */\n    tag_39:\n        /* \"contract/Ownable.sol\":1300:1312  _msgSender() */\n      tag_81\n        /* \"contract/Ownable.sol\":1300:1310  _msgSender */\n      tag_46\n        /* \"contract/Ownable.sol\":1300:1312  _msgSender() */\n      jump\t// in\n    tag_81:\n        /* \"contract/Ownable.sol\":1289:1312  owner() == _msgSender() */\n      0xffffffffffffffffffffffffffffffffffffffff\n      and\n        /* \"contract/Ownable.sol\":1289:1296  owner() */\n      tag_82\n        /* \"contract/Ownable.sol\":1289:1294  owner */\n      tag_18\n        /* \"contract/Ownable.sol\":1289:1296  owner() */\n      jump\t// in\n    tag_82:\n        /* \"contract/Ownable.sol\":1289:1312  owner() == _msgSender() */\n      0xffffffffffffffffffffffffffffffffffffffff\n      and\n      eq\n        /* \"contract/Ownable.sol\":1281:1349  require(owner() == _msgSender(), \"Ownable: caller is not the owner\") */\n      tag_83\n      jumpi\n      mload(0x40)\n      0x08c379a000000000000000000000000000000000000000000000000000000000\n      dup2\n      mstore\n      0x04\n      add\n      tag_84\n      swap1\n      tag_50\n      jump\t// in\n    tag_84:\n      mload(0x40)\n      dup1\n      swap2\n      sub\n      swap1\n      revert\n    tag_83:\n        /* \"contract/Ownable.sol\":2087:2088  0 */\n      0x00\n        /* \"contract/Ownable.sol\":2067:2089  newOwner != address(0) */\n      0xffffffffffffffffffffffffffffffffffffffff\n      and\n        /* \"contract/Ownable.sol\":2067:2075  newOwner */\n      dup2\n        /* \"contract/Ownable.sol\":2067:2089  newOwner != address(0) */\n      0xffffffffffffffffffffffffffffffffffffffff\n      and\n      eq\n      iszero\n        /* \"contract/Ownable.sol\":2059:2132  require(newOwner != address(0), \"Ownable: new owner is the zero address\") */\n      tag_86\n      jumpi\n      mload(0x40)\n      0x08c379a000000000000000000000000000000000000000000000000000000000\n      dup2\n      mstore\n      0x04\n      add\n      tag_87\n      swap1\n      tag_88\n      jump\t// in\n    tag_87:\n      mload(0x40)\n      dup1\n      swap2\n      sub\n      swap1\n      revert\n    tag_86:\n        /* \"contract/Ownable.sol\":2143:2171  _transferOwnership(newOwner) */\n      tag_89\n        /* \"contract/Ownable.sol\":2162:2170  newOwner */\n      dup2\n        /* \"contract/Ownable.sol\":2143:2161  _transferOwnership */\n      tag_53\n        /* \"contract/Ownable.sol\":2143:2171  _transferOwnership(newOwner) */\n      jump\t// in\n    tag_89:\n        /* \"contract/Ownable.sol\":1978:2179  function transferOwnership(address newOwner) public virtual onlyOwner {\r... */\n      pop\n      jump\t// out\n        /* \"contract/utils/Context.sol\":656:754  function _msgSender() internal view virtual returns (address) {\r... */\n    tag_46:\n        /* \"contract/utils/Context.sol\":709:716  address */\n      0x00\n        /* \"contract/utils/Context.sol\":736:746  msg.sender */\n      caller\n        /* \"contract/utils/Context.sol\":729:746  return msg.sender */\n      swap1\n      pop\n        /* \"contract/utils/Context.sol\":656:754  function _msgSender() internal view virtual returns (address) {\r... */\n      swap1\n      jump\t// out\n        /* \"contract/Ownable.sol\":2339:2530  function _transferOwnership(address newOwner) internal virtual {\r... */\n    tag_53:\n        /* \"contract/Ownable.sol\":2413:2429  address oldOwner */\n      0x00\n        /* \"contract/Ownable.sol\":2432:2438  _owner */\n      dup1\n      0x00\n      swap1\n      sload\n      swap1\n      0x0100\n      exp\n      swap1\n      div\n      0xffffffffffffffffffffffffffffffffffffffff\n      and\n        /* \"contract/Ownable.sol\":2413:2438  address oldOwner = _owner */\n      swap1\n      pop\n        /* \"contract/Ownable.sol\":2458:2466  newOwner */\n      dup2\n        /* \"contract/Ownable.sol\":2449:2455  _owner */\n      0x00\n      dup1\n        /* \"contract/Ownable.sol\":2449:2466  _owner = newOwner */\n      0x0100\n      exp\n      dup2\n      sload\n      dup2\n      0xffffffffffffffffffffffffffffffffffffffff\n      mul\n      not\n      and\n      swap1\n      dup4\n      0xffffffffffffffffffffffffffffffffffffffff\n      and\n      mul\n      or\n      swap1\n      sstore\n      pop\n        /* \"contract/Ownable.sol\":2513:2521  newOwner */\n      dup2\n        /* \"contract/Ownable.sol\":2482:2522  OwnershipTransferred(oldOwner, newOwner) */\n      0xffffffffffffffffffffffffffffffffffffffff\n      and\n        /* \"contract/Ownable.sol\":2503:2511  oldOwner */\n      dup2\n        /* \"contract/Ownable.sol\":2482:2522  OwnershipTransferred(oldOwner, newOwner) */\n      0xffffffffffffffffffffffffffffffffffffffff\n      and\n      0x8be0079c531659141344cd1fd0a4f28419497f9722a3daafe3b4186f6b6457e0\n      mload(0x40)\n      mload(0x40)\n      dup1\n      swap2\n      sub\n      swap1\n      log3\n        /* \"contract/Ownable.sol\":2402:2530  {\r... */\n      pop\n        /* \"contract/Ownable.sol\":2339:2530  function _transferOwnership(address newOwner) internal virtual {\r... */\n      pop\n      jump\t// out\n        /* \"contract/HouseRegistry.sol\":1125:1379  function _generateHouseId(address _sellerAddress, uint _area, string memory _houseAddress) private view returns(uint){... */\n    tag_62:\n        /* \"contract/HouseRegistry.sol\":1237:1241  uint */\n      0x00\n        /* \"contract/HouseRegistry.sol\":1252:1264  uint houseId */\n      dup1\n        /* \"contract/HouseRegistry.sol\":1299:1313  _sellerAddress */\n      dup5\n        /* \"contract/HouseRegistry.sol\":1315:1320  _area */\n      dup5\n        /* \"contract/HouseRegistry.sol\":1322:1335  _houseAddress */\n      dup5\n        /* \"contract/HouseRegistry.sol\":1282:1336  abi.encodePacked(_sellerAddress, _area, _houseAddress) */\n      add(0x20, mload(0x40))\n      tag_93\n      swap4\n      swap3\n      swap2\n      swap1\n      tag_94\n      jump\t// in\n    tag_93:\n      mload(0x40)\n      0x20\n      dup2\n      dup4\n      sub\n      sub\n      dup2\n      mstore\n      swap1\n      0x40\n      mstore\n        /* \"contract/HouseRegistry.sol\":1272:1337  keccak256(abi.encodePacked(_sellerAddress, _area, _houseAddress)) */\n      dup1\n      mload\n      swap1\n      0x20\n      add\n      keccak256\n        /* \"contract/HouseRegistry.sol\":1267:1338  uint(keccak256(abi.encodePacked(_sellerAddress, _area, _houseAddress))) */\n      0x00\n      shr\n        /* \"contract/HouseRegistry.sol\":1252:1338  uint houseId = uint(keccak256(abi.encodePacked(_sellerAddress, _area, _houseAddress))) */\n      swap1\n      pop\n        /* \"contract/HouseRegistry.sol\":1365:1372  modulus */\n      sload(0x02)\n        /* \"contract/HouseRegistry.sol\":1355:1362  houseId */\n      dup2\n        /* \"contract/HouseRegistry.sol\":1355:1372  houseId % modulus */\n      tag_95\n      swap2\n      swap1\n      tag_96\n      jump\t// in\n    tag_95:\n        /* \"contract/HouseRegistry.sol\":1348:1372  return houseId % modulus */\n      swap2\n      pop\n      pop\n        /* \"contract/HouseRegistry.sol\":1125:1379  function _generateHouseId(address _sellerAddress, uint _area, string memory _houseAddress) private view returns(uint){... */\n      swap4\n      swap3\n      pop\n      pop\n      pop\n      jump\t// out\n    tag_69:\n      dup3\n      dup1\n      sload\n      tag_97\n      swap1\n      tag_73\n      jump\t// in\n    tag_97:\n      swap1\n      0x00\n      mstore\n      keccak256(0x00, 0x20)\n      swap1\n      0x1f\n      add\n      0x20\n      swap1\n      div\n      dup2\n      add\n      swap3\n      dup3\n      tag_99\n      jumpi\n      0x00\n      dup6\n      sstore\n      jump(tag_98)\n    tag_99:\n      dup3\n      0x1f\n      lt\n      tag_100\n      jumpi\n      dup1\n      mload\n      not(0xff)\n      and\n      dup4\n      dup1\n      add\n      or\n      dup6\n      sstore\n      jump(tag_98)\n    tag_100:\n      dup3\n      dup1\n      add\n      0x01\n      add\n      dup6\n      sstore\n      dup3\n      iszero\n      tag_98\n      jumpi\n      swap2\n      dup3\n      add\n    tag_101:\n      dup3\n      dup2\n      gt\n      iszero\n      tag_102\n      jumpi\n      dup3\n      mload\n      dup3\n      sstore\n      swap2\n      0x20\n      add\n      swap2\n      swap1\n      0x01\n      add\n      swap1\n      jump(tag_101)\n    tag_102:\n    tag_98:\n      pop\n      swap1\n      pop\n      tag_103\n      swap2\n      swap1\n      tag_104\n      jump\t// in\n    tag_103:\n      pop\n      swap1\n      jump\t// out\n    tag_104:\n    tag_105:\n      dup1\n      dup3\n      gt\n      iszero\n      tag_106\n      jumpi\n      0x00\n      dup2\n      0x00\n      swap1\n      sstore\n      pop\n      0x01\n      add\n      jump(tag_105)\n    tag_106:\n      pop\n      swap1\n      jump\t// out\n        /* \"#utility.yul\":7:419   */\n    tag_108:\n        /* \"#utility.yul\":85:90   */\n      0x00\n        /* \"#utility.yul\":110:176   */\n      tag_110\n        /* \"#utility.yul\":126:175   */\n      tag_111\n        /* \"#utility.yul\":168:174   */\n      dup5\n        /* \"#utility.yul\":126:175   */\n      tag_112\n      jump\t// in\n    tag_111:\n        /* \"#utility.yul\":110:176   */\n      tag_113\n      jump\t// in\n    tag_110:\n        /* \"#utility.yul\":101:176   */\n      swap1\n      pop\n        /* \"#utility.yul\":199:205   */\n      dup3\n        /* \"#utility.yul\":192:197   */\n      dup2\n        /* \"#utility.yul\":185:206   */\n      mstore\n        /* \"#utility.yul\":237:241   */\n      0x20\n        /* \"#utility.yul\":230:235   */\n      dup2\n        /* \"#utility.yul\":226:242   */\n      add\n        /* \"#utility.yul\":275:278   */\n      dup5\n        /* \"#utility.yul\":266:272   */\n      dup5\n        /* \"#utility.yul\":261:264   */\n      dup5\n        /* \"#utility.yul\":257:273   */\n      add\n        /* \"#utility.yul\":254:279   */\n      gt\n        /* \"#utility.yul\":251:363   */\n      iszero\n      tag_114\n      jumpi\n        /* \"#utility.yul\":282:361   */\n      tag_115\n      tag_116\n      jump\t// in\n    tag_115:\n        /* \"#utility.yul\":251:363   */\n    tag_114:\n        /* \"#utility.yul\":372:413   */\n      tag_117\n        /* \"#utility.yul\":406:412   */\n      dup5\n        /* \"#utility.yul\":401:404   */\n      dup3\n        /* \"#utility.yul\":396:399   */\n      dup6\n        /* \"#utility.yul\":372:413   */\n      tag_118\n      jump\t// in\n    tag_117:\n        /* \"#utility.yul\":91:419   */\n      pop\n        /* \"#utility.yul\":7:419   */\n      swap4\n      swap3\n      pop\n      pop\n      pop\n      jump\t// out\n        /* \"#utility.yul\":425:564   */\n    tag_119:\n        /* \"#utility.yul\":471:476   */\n      0x00\n        /* \"#utility.yul\":509:515   */\n      dup2\n        /* \"#utility.yul\":496:516   */\n      calldataload\n        /* \"#utility.yul\":487:516   */\n      swap1\n      pop\n        /* \"#utility.yul\":525:558   */\n      tag_121\n        /* \"#utility.yul\":552:557   */\n      dup2\n        /* \"#utility.yul\":525:558   */\n      tag_122\n      jump\t// in\n    tag_121:\n        /* \"#utility.yul\":425:564   */\n      swap3\n      swap2\n      pop\n      pop\n      jump\t// out\n        /* \"#utility.yul\":584:924   */\n    tag_123:\n        /* \"#utility.yul\":640:645   */\n      0x00\n        /* \"#utility.yul\":689:692   */\n      dup3\n        /* \"#utility.yul\":682:686   */\n      0x1f\n        /* \"#utility.yul\":674:680   */\n      dup4\n        /* \"#utility.yul\":670:687   */\n      add\n        /* \"#utility.yul\":666:693   */\n      slt\n        /* \"#utility.yul\":656:778   */\n      tag_125\n      jumpi\n        /* \"#utility.yul\":697:776   */\n      tag_126\n      tag_127\n      jump\t// in\n    tag_126:\n        /* \"#utility.yul\":656:778   */\n    tag_125:\n        /* \"#utility.yul\":814:820   */\n      dup2\n        /* \"#utility.yul\":801:821   */\n      calldataload\n        /* \"#utility.yul\":839:918   */\n      tag_128\n        /* \"#utility.yul\":914:917   */\n      dup5\n        /* \"#utility.yul\":906:912   */\n      dup3\n        /* \"#utility.yul\":899:903   */\n      0x20\n        /* \"#utility.yul\":891:897   */\n      dup7\n        /* \"#utility.yul\":887:904   */\n      add\n        /* \"#utility.yul\":839:918   */\n      tag_108\n      jump\t// in\n    tag_128:\n        /* \"#utility.yul\":830:918   */\n      swap2\n      pop\n        /* \"#utility.yul\":646:924   */\n      pop\n        /* \"#utility.yul\":584:924   */\n      swap3\n      swap2\n      pop\n      pop\n      jump\t// out\n        /* \"#utility.yul\":930:1069   */\n    tag_129:\n        /* \"#utility.yul\":976:981   */\n      0x00\n        /* \"#utility.yul\":1014:1020   */\n      dup2\n        /* \"#utility.yul\":1001:1021   */\n      calldataload\n        /* \"#utility.yul\":992:1021   */\n      swap1\n      pop\n        /* \"#utility.yul\":1030:1063   */\n      tag_131\n        /* \"#utility.yul\":1057:1062   */\n      dup2\n        /* \"#utility.yul\":1030:1063   */\n      tag_132\n      jump\t// in\n    tag_131:\n        /* \"#utility.yul\":930:1069   */\n      swap3\n      swap2\n      pop\n      pop\n      jump\t// out\n        /* \"#utility.yul\":1075:1404   */\n    tag_38:\n        /* \"#utility.yul\":1134:1140   */\n      0x00\n        /* \"#utility.yul\":1183:1185   */\n      0x20\n        /* \"#utility.yul\":1171:1180   */\n      dup3\n        /* \"#utility.yul\":1162:1169   */\n      dup5\n        /* \"#utility.yul\":1158:1181   */\n      sub\n        /* \"#utility.yul\":1154:1186   */\n      slt\n        /* \"#utility.yul\":1151:1270   */\n      iszero\n      tag_134\n      jumpi\n        /* \"#utility.yul\":1189:1268   */\n      tag_135\n      tag_136\n      jump\t// in\n    tag_135:\n        /* \"#utility.yul\":1151:1270   */\n    tag_134:\n        /* \"#utility.yul\":1309:1310   */\n      0x00\n        /* \"#utility.yul\":1334:1387   */\n      tag_137\n        /* \"#utility.yul\":1379:1386   */\n      dup5\n        /* \"#utility.yul\":1370:1376   */\n      dup3\n        /* \"#utility.yul\":1359:1368   */\n      dup6\n        /* \"#utility.yul\":1355:1377   */\n      add\n        /* \"#utility.yul\":1334:1387   */\n      tag_119\n      jump\t// in\n    tag_137:\n        /* \"#utility.yul\":1324:1387   */\n      swap2\n      pop\n        /* \"#utility.yul\":1280:1397   */\n      pop\n        /* \"#utility.yul\":1075:1404   */\n      swap3\n      swap2\n      pop\n      pop\n      jump\t// out\n        /* \"#utility.yul\":1410:1739   */\n    tag_13:\n        /* \"#utility.yul\":1469:1475   */\n      0x00\n        /* \"#utility.yul\":1518:1520   */\n      0x20\n        /* \"#utility.yul\":1506:1515   */\n      dup3\n        /* \"#utility.yul\":1497:1504   */\n      dup5\n        /* \"#utility.yul\":1493:1516   */\n      sub\n        /* \"#utility.yul\":1489:1521   */\n      slt\n        /* \"#utility.yul\":1486:1605   */\n      iszero\n      tag_139\n      jumpi\n        /* \"#utility.yul\":1524:1603   */\n      tag_140\n      tag_136\n      jump\t// in\n    tag_140:\n        /* \"#utility.yul\":1486:1605   */\n    tag_139:\n        /* \"#utility.yul\":1644:1645   */\n      0x00\n        /* \"#utility.yul\":1669:1722   */\n      tag_141\n        /* \"#utility.yul\":1714:1721   */\n      dup5\n        /* \"#utility.yul\":1705:1711   */\n      dup3\n        /* \"#utility.yul\":1694:1703   */\n      dup6\n        /* \"#utility.yul\":1690:1712   */\n      add\n        /* \"#utility.yul\":1669:1722   */\n      tag_129\n      jump\t// in\n    tag_141:\n        /* \"#utility.yul\":1659:1722   */\n      swap2\n      pop\n        /* \"#utility.yul\":1615:1732   */\n      pop\n        /* \"#utility.yul\":1410:1739   */\n      swap3\n      swap2\n      pop\n      pop\n      jump\t// out\n        /* \"#utility.yul\":1745:2690   */\n    tag_23:\n        /* \"#utility.yul\":1841:1847   */\n      0x00\n        /* \"#utility.yul\":1849:1855   */\n      dup1\n        /* \"#utility.yul\":1857:1863   */\n      0x00\n        /* \"#utility.yul\":1865:1871   */\n      dup1\n        /* \"#utility.yul\":1914:1917   */\n      0x80\n        /* \"#utility.yul\":1902:1911   */\n      dup6\n        /* \"#utility.yul\":1893:1900   */\n      dup8\n        /* \"#utility.yul\":1889:1912   */\n      sub\n        /* \"#utility.yul\":1885:1918   */\n      slt\n        /* \"#utility.yul\":1882:2002   */\n      iszero\n      tag_143\n      jumpi\n        /* \"#utility.yul\":1921:2000   */\n      tag_144\n      tag_136\n      jump\t// in\n    tag_144:\n        /* \"#utility.yul\":1882:2002   */\n    tag_143:\n        /* \"#utility.yul\":2041:2042   */\n      0x00\n        /* \"#utility.yul\":2066:2119   */\n      tag_145\n        /* \"#utility.yul\":2111:2118   */\n      dup8\n        /* \"#utility.yul\":2102:2108   */\n      dup3\n        /* \"#utility.yul\":2091:2100   */\n      dup9\n        /* \"#utility.yul\":2087:2109   */\n      add\n        /* \"#utility.yul\":2066:2119   */\n      tag_129\n      jump\t// in\n    tag_145:\n        /* \"#utility.yul\":2056:2119   */\n      swap5\n      pop\n        /* \"#utility.yul\":2012:2129   */\n      pop\n        /* \"#utility.yul\":2168:2170   */\n      0x20\n        /* \"#utility.yul\":2194:2247   */\n      tag_146\n        /* \"#utility.yul\":2239:2246   */\n      dup8\n        /* \"#utility.yul\":2230:2236   */\n      dup3\n        /* \"#utility.yul\":2219:2228   */\n      dup9\n        /* \"#utility.yul\":2215:2237   */\n      add\n        /* \"#utility.yul\":2194:2247   */\n      tag_129\n      jump\t// in\n    tag_146:\n        /* \"#utility.yul\":2184:2247   */\n      swap4\n      pop\n        /* \"#utility.yul\":2139:2257   */\n      pop\n        /* \"#utility.yul\":2296:2298   */\n      0x40\n        /* \"#utility.yul\":2322:2375   */\n      tag_147\n        /* \"#utility.yul\":2367:2374   */\n      dup8\n        /* \"#utility.yul\":2358:2364   */\n      dup3\n        /* \"#utility.yul\":2347:2356   */\n      dup9\n        /* \"#utility.yul\":2343:2365   */\n      add\n        /* \"#utility.yul\":2322:2375   */\n      tag_119\n      jump\t// in\n    tag_147:\n        /* \"#utility.yul\":2312:2375   */\n      swap3\n      pop\n        /* \"#utility.yul\":2267:2385   */\n      pop\n        /* \"#utility.yul\":2452:2454   */\n      0x60\n        /* \"#utility.yul\":2441:2450   */\n      dup6\n        /* \"#utility.yul\":2437:2455   */\n      add\n        /* \"#utility.yul\":2424:2456   */\n      calldataload\n        /* \"#utility.yul\":2483:2501   */\n      0xffffffffffffffff\n        /* \"#utility.yul\":2475:2481   */\n      dup2\n        /* \"#utility.yul\":2472:2502   */\n      gt\n        /* \"#utility.yul\":2469:2586   */\n      iszero\n      tag_148\n      jumpi\n        /* \"#utility.yul\":2505:2584   */\n      tag_149\n      tag_150\n      jump\t// in\n    tag_149:\n        /* \"#utility.yul\":2469:2586   */\n    tag_148:\n        /* \"#utility.yul\":2610:2673   */\n      tag_151\n        /* \"#utility.yul\":2665:2672   */\n      dup8\n        /* \"#utility.yul\":2656:2662   */\n      dup3\n        /* \"#utility.yul\":2645:2654   */\n      dup9\n        /* \"#utility.yul\":2641:2663   */\n      add\n        /* \"#utility.yul\":2610:2673   */\n      tag_123\n      jump\t// in\n    tag_151:\n        /* \"#utility.yul\":2600:2673   */\n      swap2\n      pop\n        /* \"#utility.yul\":2395:2683   */\n      pop\n        /* \"#utility.yul\":1745:2690   */\n      swap3\n      swap6\n      swap2\n      swap5\n      pop\n      swap3\n      pop\n      jump\t// out\n        /* \"#utility.yul\":2696:3495   */\n    tag_34:\n        /* \"#utility.yul\":2783:2789   */\n      0x00\n        /* \"#utility.yul\":2791:2797   */\n      dup1\n        /* \"#utility.yul\":2799:2805   */\n      0x00\n        /* \"#utility.yul\":2848:2850   */\n      0x60\n        /* \"#utility.yul\":2836:2845   */\n      dup5\n        /* \"#utility.yul\":2827:2834   */\n      dup7\n        /* \"#utility.yul\":2823:2846   */\n      sub\n        /* \"#utility.yul\":2819:2851   */\n      slt\n        /* \"#utility.yul\":2816:2935   */\n      iszero\n      tag_153\n      jumpi\n        /* \"#utility.yul\":2854:2933   */\n      tag_154\n      tag_136\n      jump\t// in\n    tag_154:\n        /* \"#utility.yul\":2816:2935   */\n    tag_153:\n        /* \"#utility.yul\":2974:2975   */\n      0x00\n        /* \"#utility.yul\":2999:3052   */\n      tag_155\n        /* \"#utility.yul\":3044:3051   */\n      dup7\n        /* \"#utility.yul\":3035:3041   */\n      dup3\n        /* \"#utility.yul\":3024:3033   */\n      dup8\n        /* \"#utility.yul\":3020:3042   */\n      add\n        /* \"#utility.yul\":2999:3052   */\n      tag_129\n      jump\t// in\n    tag_155:\n        /* \"#utility.yul\":2989:3052   */\n      swap4\n      pop\n        /* \"#utility.yul\":2945:3062   */\n      pop\n        /* \"#utility.yul\":3101:3103   */\n      0x20\n        /* \"#utility.yul\":3127:3180   */\n      tag_156\n        /* \"#utility.yul\":3172:3179   */\n      dup7\n        /* \"#utility.yul\":3163:3169   */\n      dup3\n        /* \"#utility.yul\":3152:3161   */\n      dup8\n        /* \"#utility.yul\":3148:3170   */\n      add\n        /* \"#utility.yul\":3127:3180   */\n      tag_129\n      jump\t// in\n    tag_156:\n        /* \"#utility.yul\":3117:3180   */\n      swap3\n      pop\n        /* \"#utility.yul\":3072:3190   */\n      pop\n        /* \"#utility.yul\":3257:3259   */\n      0x40\n        /* \"#utility.yul\":3246:3255   */\n      dup5\n        /* \"#utility.yul\":3242:3260   */\n      add\n        /* \"#utility.yul\":3229:3261   */\n      calldataload\n        /* \"#utility.yul\":3288:3306   */\n      0xffffffffffffffff\n        /* \"#utility.yul\":3280:3286   */\n      dup2\n        /* \"#utility.yul\":3277:3307   */\n      gt\n        /* \"#utility.yul\":3274:3391   */\n      iszero\n      tag_157\n      jumpi\n        /* \"#utility.yul\":3310:3389   */\n      tag_158\n      tag_150\n      jump\t// in\n    tag_158:\n        /* \"#utility.yul\":3274:3391   */\n    tag_157:\n        /* \"#utility.yul\":3415:3478   */\n      tag_159\n        /* \"#utility.yul\":3470:3477   */\n      dup7\n        /* \"#utility.yul\":3461:3467   */\n      dup3\n        /* \"#utility.yul\":3450:3459   */\n      dup8\n        /* \"#utility.yul\":3446:3468   */\n      add\n        /* \"#utility.yul\":3415:3478   */\n      tag_123\n      jump\t// in\n    tag_159:\n        /* \"#utility.yul\":3405:3478   */\n      swap2\n      pop\n        /* \"#utility.yul\":3200:3488   */\n      pop\n        /* \"#utility.yul\":2696:3495   */\n      swap3\n      pop\n      swap3\n      pop\n      swap3\n      jump\t// out\n        /* \"#utility.yul\":3501:3619   */\n    tag_160:\n        /* \"#utility.yul\":3588:3612   */\n      tag_162\n        /* \"#utility.yul\":3606:3611   */\n      dup2\n        /* \"#utility.yul\":3588:3612   */\n      tag_163\n      jump\t// in\n    tag_162:\n        /* \"#utility.yul\":3583:3586   */\n      dup3\n        /* \"#utility.yul\":3576:3613   */\n      mstore\n        /* \"#utility.yul\":3501:3619   */\n      pop\n      pop\n      jump\t// out\n        /* \"#utility.yul\":3625:3782   */\n    tag_164:\n        /* \"#utility.yul\":3730:3775   */\n      tag_166\n        /* \"#utility.yul\":3750:3774   */\n      tag_167\n        /* \"#utility.yul\":3768:3773   */\n      dup3\n        /* \"#utility.yul\":3750:3774   */\n      tag_163\n      jump\t// in\n    tag_167:\n        /* \"#utility.yul\":3730:3775   */\n      tag_168\n      jump\t// in\n    tag_166:\n        /* \"#utility.yul\":3725:3728   */\n      dup3\n        /* \"#utility.yul\":3718:3776   */\n      mstore\n        /* \"#utility.yul\":3625:3782   */\n      pop\n      pop\n      jump\t// out\n        /* \"#utility.yul\":3788:3897   */\n    tag_169:\n        /* \"#utility.yul\":3869:3890   */\n      tag_171\n        /* \"#utility.yul\":3884:3889   */\n      dup2\n        /* \"#utility.yul\":3869:3890   */\n      tag_172\n      jump\t// in\n    tag_171:\n        /* \"#utility.yul\":3864:3867   */\n      dup3\n        /* \"#utility.yul\":3857:3891   */\n      mstore\n        /* \"#utility.yul\":3788:3897   */\n      pop\n      pop\n      jump\t// out\n        /* \"#utility.yul\":3903:4267   */\n    tag_173:\n        /* \"#utility.yul\":3991:3994   */\n      0x00\n        /* \"#utility.yul\":4019:4058   */\n      tag_175\n        /* \"#utility.yul\":4052:4057   */\n      dup3\n        /* \"#utility.yul\":4019:4058   */\n      tag_176\n      jump\t// in\n    tag_175:\n        /* \"#utility.yul\":4074:4145   */\n      tag_177\n        /* \"#utility.yul\":4138:4144   */\n      dup2\n        /* \"#utility.yul\":4133:4136   */\n      dup6\n        /* \"#utility.yul\":4074:4145   */\n      tag_178\n      jump\t// in\n    tag_177:\n        /* \"#utility.yul\":4067:4145   */\n      swap4\n      pop\n        /* \"#utility.yul\":4154:4206   */\n      tag_179\n        /* \"#utility.yul\":4199:4205   */\n      dup2\n        /* \"#utility.yul\":4194:4197   */\n      dup6\n        /* \"#utility.yul\":4187:4191   */\n      0x20\n        /* \"#utility.yul\":4180:4185   */\n      dup7\n        /* \"#utility.yul\":4176:4192   */\n      add\n        /* \"#utility.yul\":4154:4206   */\n      tag_180\n      jump\t// in\n    tag_179:\n        /* \"#utility.yul\":4231:4260   */\n      tag_181\n        /* \"#utility.yul\":4253:4259   */\n      dup2\n        /* \"#utility.yul\":4231:4260   */\n      tag_182\n      jump\t// in\n    tag_181:\n        /* \"#utility.yul\":4226:4229   */\n      dup5\n        /* \"#utility.yul\":4222:4261   */\n      add\n        /* \"#utility.yul\":4215:4261   */\n      swap2\n      pop\n        /* \"#utility.yul\":3995:4267   */\n      pop\n        /* \"#utility.yul\":3903:4267   */\n      swap3\n      swap2\n      pop\n      pop\n      jump\t// out\n        /* \"#utility.yul\":4273:4650   */\n    tag_183:\n        /* \"#utility.yul\":4379:4382   */\n      0x00\n        /* \"#utility.yul\":4407:4446   */\n      tag_185\n        /* \"#utility.yul\":4440:4445   */\n      dup3\n        /* \"#utility.yul\":4407:4446   */\n      tag_176\n      jump\t// in\n    tag_185:\n        /* \"#utility.yul\":4462:4551   */\n      tag_186\n        /* \"#utility.yul\":4544:4550   */\n      dup2\n        /* \"#utility.yul\":4539:4542   */\n      dup6\n        /* \"#utility.yul\":4462:4551   */\n      tag_187\n      jump\t// in\n    tag_186:\n        /* \"#utility.yul\":4455:4551   */\n      swap4\n      pop\n        /* \"#utility.yul\":4560:4612   */\n      tag_188\n        /* \"#utility.yul\":4605:4611   */\n      dup2\n        /* \"#utility.yul\":4600:4603   */\n      dup6\n        /* \"#utility.yul\":4593:4597   */\n      0x20\n        /* \"#utility.yul\":4586:4591   */\n      dup7\n        /* \"#utility.yul\":4582:4598   */\n      add\n        /* \"#utility.yul\":4560:4612   */\n      tag_180\n      jump\t// in\n    tag_188:\n        /* \"#utility.yul\":4637:4643   */\n      dup1\n        /* \"#utility.yul\":4632:4635   */\n      dup5\n        /* \"#utility.yul\":4628:4644   */\n      add\n        /* \"#utility.yul\":4621:4644   */\n      swap2\n      pop\n        /* \"#utility.yul\":4383:4650   */\n      pop\n        /* \"#utility.yul\":4273:4650   */\n      swap3\n      swap2\n      pop\n      pop\n      jump\t// out\n        /* \"#utility.yul\":4656:5022   */\n    tag_189:\n        /* \"#utility.yul\":4798:4801   */\n      0x00\n        /* \"#utility.yul\":4819:4886   */\n      tag_191\n        /* \"#utility.yul\":4883:4885   */\n      0x26\n        /* \"#utility.yul\":4878:4881   */\n      dup4\n        /* \"#utility.yul\":4819:4886   */\n      tag_178\n      jump\t// in\n    tag_191:\n        /* \"#utility.yul\":4812:4886   */\n      swap2\n      pop\n        /* \"#utility.yul\":4895:4988   */\n      tag_192\n        /* \"#utility.yul\":4984:4987   */\n      dup3\n        /* \"#utility.yul\":4895:4988   */\n      tag_193\n      jump\t// in\n    tag_192:\n        /* \"#utility.yul\":5013:5015   */\n      0x40\n        /* \"#utility.yul\":5008:5011   */\n      dup3\n        /* \"#utility.yul\":5004:5016   */\n      add\n        /* \"#utility.yul\":4997:5016   */\n      swap1\n      pop\n        /* \"#utility.yul\":4656:5022   */\n      swap2\n      swap1\n      pop\n      jump\t// out\n        /* \"#utility.yul\":5028:5394   */\n    tag_194:\n        /* \"#utility.yul\":5170:5173   */\n      0x00\n        /* \"#utility.yul\":5191:5258   */\n      tag_196\n        /* \"#utility.yul\":5255:5257   */\n      0x14\n        /* \"#utility.yul\":5250:5253   */\n      dup4\n        /* \"#utility.yul\":5191:5258   */\n      tag_178\n      jump\t// in\n    tag_196:\n        /* \"#utility.yul\":5184:5258   */\n      swap2\n      pop\n        /* \"#utility.yul\":5267:5360   */\n      tag_197\n        /* \"#utility.yul\":5356:5359   */\n      dup3\n        /* \"#utility.yul\":5267:5360   */\n      tag_198\n      jump\t// in\n    tag_197:\n        /* \"#utility.yul\":5385:5387   */\n      0x20\n        /* \"#utility.yul\":5380:5383   */\n      dup3\n        /* \"#utility.yul\":5376:5388   */\n      add\n        /* \"#utility.yul\":5369:5388   */\n      swap1\n      pop\n        /* \"#utility.yul\":5028:5394   */\n      swap2\n      swap1\n      pop\n      jump\t// out\n        /* \"#utility.yul\":5400:5766   */\n    tag_199:\n        /* \"#utility.yul\":5542:5545   */\n      0x00\n        /* \"#utility.yul\":5563:5630   */\n      tag_201\n        /* \"#utility.yul\":5627:5629   */\n      0x20\n        /* \"#utility.yul\":5622:5625   */\n      dup4\n        /* \"#utility.yul\":5563:5630   */\n      tag_178\n      jump\t// in\n    tag_201:\n        /* \"#utility.yul\":5556:5630   */\n      swap2\n      pop\n        /* \"#utility.yul\":5639:5732   */\n      tag_202\n        /* \"#utility.yul\":5728:5731   */\n      dup3\n        /* \"#utility.yul\":5639:5732   */\n      tag_203\n      jump\t// in\n    tag_202:\n        /* \"#utility.yul\":5757:5759   */\n      0x20\n        /* \"#utility.yul\":5752:5755   */\n      dup3\n        /* \"#utility.yul\":5748:5760   */\n      add\n        /* \"#utility.yul\":5741:5760   */\n      swap1\n      pop\n        /* \"#utility.yul\":5400:5766   */\n      swap2\n      swap1\n      pop\n      jump\t// out\n        /* \"#utility.yul\":5772:6138   */\n    tag_204:\n        /* \"#utility.yul\":5914:5917   */\n      0x00\n        /* \"#utility.yul\":5935:6002   */\n      tag_206\n        /* \"#utility.yul\":5999:6001   */\n      0x1b\n        /* \"#utility.yul\":5994:5997   */\n      dup4\n        /* \"#utility.yul\":5935:6002   */\n      tag_178\n      jump\t// in\n    tag_206:\n        /* \"#utility.yul\":5928:6002   */\n      swap2\n      pop\n        /* \"#utility.yul\":6011:6104   */\n      tag_207\n        /* \"#utility.yul\":6100:6103   */\n      dup3\n        /* \"#utility.yul\":6011:6104   */\n      tag_208\n      jump\t// in\n    tag_207:\n        /* \"#utility.yul\":6129:6131   */\n      0x20\n        /* \"#utility.yul\":6124:6127   */\n      dup3\n        /* \"#utility.yul\":6120:6132   */\n      add\n        /* \"#utility.yul\":6113:6132   */\n      swap1\n      pop\n        /* \"#utility.yul\":5772:6138   */\n      swap2\n      swap1\n      pop\n      jump\t// out\n        /* \"#utility.yul\":6144:6510   */\n    tag_209:\n        /* \"#utility.yul\":6286:6289   */\n      0x00\n        /* \"#utility.yul\":6307:6374   */\n      tag_211\n        /* \"#utility.yul\":6371:6373   */\n      0x2b\n        /* \"#utility.yul\":6366:6369   */\n      dup4\n        /* \"#utility.yul\":6307:6374   */\n      tag_178\n      jump\t// in\n    tag_211:\n        /* \"#utility.yul\":6300:6374   */\n      swap2\n      pop\n        /* \"#utility.yul\":6383:6476   */\n      tag_212\n        /* \"#utility.yul\":6472:6475   */\n      dup3\n        /* \"#utility.yul\":6383:6476   */\n      tag_213\n      jump\t// in\n    tag_212:\n        /* \"#utility.yul\":6501:6503   */\n      0x40\n        /* \"#utility.yul\":6496:6499   */\n      dup3\n        /* \"#utility.yul\":6492:6504   */\n      add\n        /* \"#utility.yul\":6485:6504   */\n      swap1\n      pop\n        /* \"#utility.yul\":6144:6510   */\n      swap2\n      swap1\n      pop\n      jump\t// out\n        /* \"#utility.yul\":6516:6634   */\n    tag_214:\n        /* \"#utility.yul\":6603:6627   */\n      tag_216\n        /* \"#utility.yul\":6621:6626   */\n      dup2\n        /* \"#utility.yul\":6603:6627   */\n      tag_217\n      jump\t// in\n    tag_216:\n        /* \"#utility.yul\":6598:6601   */\n      dup3\n        /* \"#utility.yul\":6591:6628   */\n      mstore\n        /* \"#utility.yul\":6516:6634   */\n      pop\n      pop\n      jump\t// out\n        /* \"#utility.yul\":6640:6797   */\n    tag_218:\n        /* \"#utility.yul\":6745:6790   */\n      tag_220\n        /* \"#utility.yul\":6765:6789   */\n      tag_221\n        /* \"#utility.yul\":6783:6788   */\n      dup3\n        /* \"#utility.yul\":6765:6789   */\n      tag_217\n      jump\t// in\n    tag_221:\n        /* \"#utility.yul\":6745:6790   */\n      tag_222\n      jump\t// in\n    tag_220:\n        /* \"#utility.yul\":6740:6743   */\n      dup3\n        /* \"#utility.yul\":6733:6791   */\n      mstore\n        /* \"#utility.yul\":6640:6797   */\n      pop\n      pop\n      jump\t// out\n        /* \"#utility.yul\":6803:7360   */\n    tag_94:\n        /* \"#utility.yul\":6991:6994   */\n      0x00\n        /* \"#utility.yul\":7006:7081   */\n      tag_224\n        /* \"#utility.yul\":7077:7080   */\n      dup3\n        /* \"#utility.yul\":7068:7074   */\n      dup7\n        /* \"#utility.yul\":7006:7081   */\n      tag_164\n      jump\t// in\n    tag_224:\n        /* \"#utility.yul\":7106:7108   */\n      0x14\n        /* \"#utility.yul\":7101:7104   */\n      dup3\n        /* \"#utility.yul\":7097:7109   */\n      add\n        /* \"#utility.yul\":7090:7109   */\n      swap2\n      pop\n        /* \"#utility.yul\":7119:7194   */\n      tag_225\n        /* \"#utility.yul\":7190:7193   */\n      dup3\n        /* \"#utility.yul\":7181:7187   */\n      dup6\n        /* \"#utility.yul\":7119:7194   */\n      tag_218\n      jump\t// in\n    tag_225:\n        /* \"#utility.yul\":7219:7221   */\n      0x20\n        /* \"#utility.yul\":7214:7217   */\n      dup3\n        /* \"#utility.yul\":7210:7222   */\n      add\n        /* \"#utility.yul\":7203:7222   */\n      swap2\n      pop\n        /* \"#utility.yul\":7239:7334   */\n      tag_226\n        /* \"#utility.yul\":7330:7333   */\n      dup3\n        /* \"#utility.yul\":7321:7327   */\n      dup5\n        /* \"#utility.yul\":7239:7334   */\n      tag_183\n      jump\t// in\n    tag_226:\n        /* \"#utility.yul\":7232:7334   */\n      swap2\n      pop\n        /* \"#utility.yul\":7351:7354   */\n      dup2\n        /* \"#utility.yul\":7344:7354   */\n      swap1\n      pop\n        /* \"#utility.yul\":6803:7360   */\n      swap5\n      swap4\n      pop\n      pop\n      pop\n      pop\n      jump\t// out\n        /* \"#utility.yul\":7366:7588   */\n    tag_20:\n        /* \"#utility.yul\":7459:7463   */\n      0x00\n        /* \"#utility.yul\":7497:7499   */\n      0x20\n        /* \"#utility.yul\":7486:7495   */\n      dup3\n        /* \"#utility.yul\":7482:7500   */\n      add\n        /* \"#utility.yul\":7474:7500   */\n      swap1\n      pop\n        /* \"#utility.yul\":7510:7581   */\n      tag_228\n        /* \"#utility.yul\":7578:7579   */\n      0x00\n        /* \"#utility.yul\":7567:7576   */\n      dup4\n        /* \"#utility.yul\":7563:7580   */\n      add\n        /* \"#utility.yul\":7554:7560   */\n      dup5\n        /* \"#utility.yul\":7510:7581   */\n      tag_160\n      jump\t// in\n    tag_228:\n        /* \"#utility.yul\":7366:7588   */\n      swap3\n      swap2\n      pop\n      pop\n      jump\t// out\n        /* \"#utility.yul\":7594:8013   */\n    tag_88:\n        /* \"#utility.yul\":7760:7764   */\n      0x00\n        /* \"#utility.yul\":7798:7800   */\n      0x20\n        /* \"#utility.yul\":7787:7796   */\n      dup3\n        /* \"#utility.yul\":7783:7801   */\n      add\n        /* \"#utility.yul\":7775:7801   */\n      swap1\n      pop\n        /* \"#utility.yul\":7847:7856   */\n      dup2\n        /* \"#utility.yul\":7841:7845   */\n      dup2\n        /* \"#utility.yul\":7837:7857   */\n      sub\n        /* \"#utility.yul\":7833:7834   */\n      0x00\n        /* \"#utility.yul\":7822:7831   */\n      dup4\n        /* \"#utility.yul\":7818:7835   */\n      add\n        /* \"#utility.yul\":7811:7858   */\n      mstore\n        /* \"#utility.yul\":7875:8006   */\n      tag_230\n        /* \"#utility.yul\":8001:8005   */\n      dup2\n        /* \"#utility.yul\":7875:8006   */\n      tag_189\n      jump\t// in\n    tag_230:\n        /* \"#utility.yul\":7867:8006   */\n      swap1\n      pop\n        /* \"#utility.yul\":7594:8013   */\n      swap2\n      swap1\n      pop\n      jump\t// out\n        /* \"#utility.yul\":8019:8438   */\n    tag_60:\n        /* \"#utility.yul\":8185:8189   */\n      0x00\n        /* \"#utility.yul\":8223:8225   */\n      0x20\n        /* \"#utility.yul\":8212:8221   */\n      dup3\n        /* \"#utility.yul\":8208:8226   */\n      add\n        /* \"#utility.yul\":8200:8226   */\n      swap1\n      pop\n        /* \"#utility.yul\":8272:8281   */\n      dup2\n        /* \"#utility.yul\":8266:8270   */\n      dup2\n        /* \"#utility.yul\":8262:8282   */\n      sub\n        /* \"#utility.yul\":8258:8259   */\n      0x00\n        /* \"#utility.yul\":8247:8256   */\n      dup4\n        /* \"#utility.yul\":8243:8260   */\n      add\n        /* \"#utility.yul\":8236:8283   */\n      mstore\n        /* \"#utility.yul\":8300:8431   */\n      tag_232\n        /* \"#utility.yul\":8426:8430   */\n      dup2\n        /* \"#utility.yul\":8300:8431   */\n      tag_194\n      jump\t// in\n    tag_232:\n        /* \"#utility.yul\":8292:8431   */\n      swap1\n      pop\n        /* \"#utility.yul\":8019:8438   */\n      swap2\n      swap1\n      pop\n      jump\t// out\n        /* \"#utility.yul\":8444:8863   */\n    tag_50:\n        /* \"#utility.yul\":8610:8614   */\n      0x00\n        /* \"#utility.yul\":8648:8650   */\n      0x20\n        /* \"#utility.yul\":8637:8646   */\n      dup3\n        /* \"#utility.yul\":8633:8651   */\n      add\n        /* \"#utility.yul\":8625:8651   */\n      swap1\n      pop\n        /* \"#utility.yul\":8697:8706   */\n      dup2\n        /* \"#utility.yul\":8691:8695   */\n      dup2\n        /* \"#utility.yul\":8687:8707   */\n      sub\n        /* \"#utility.yul\":8683:8684   */\n      0x00\n        /* \"#utility.yul\":8672:8681   */\n      dup4\n        /* \"#utility.yul\":8668:8685   */\n      add\n        /* \"#utility.yul\":8661:8708   */\n      mstore\n        /* \"#utility.yul\":8725:8856   */\n      tag_234\n        /* \"#utility.yul\":8851:8855   */\n      dup2\n        /* \"#utility.yul\":8725:8856   */\n      tag_199\n      jump\t// in\n    tag_234:\n        /* \"#utility.yul\":8717:8856   */\n      swap1\n      pop\n        /* \"#utility.yul\":8444:8863   */\n      swap2\n      swap1\n      pop\n      jump\t// out\n        /* \"#utility.yul\":8869:9288   */\n    tag_65:\n        /* \"#utility.yul\":9035:9039   */\n      0x00\n        /* \"#utility.yul\":9073:9075   */\n      0x20\n        /* \"#utility.yul\":9062:9071   */\n      dup3\n        /* \"#utility.yul\":9058:9076   */\n      add\n        /* \"#utility.yul\":9050:9076   */\n      swap1\n      pop\n        /* \"#utility.yul\":9122:9131   */\n      dup2\n        /* \"#utility.yul\":9116:9120   */\n      dup2\n        /* \"#utility.yul\":9112:9132   */\n      sub\n        /* \"#utility.yul\":9108:9109   */\n      0x00\n        /* \"#utility.yul\":9097:9106   */\n      dup4\n        /* \"#utility.yul\":9093:9110   */\n      add\n        /* \"#utility.yul\":9086:9133   */\n      mstore\n        /* \"#utility.yul\":9150:9281   */\n      tag_236\n        /* \"#utility.yul\":9276:9280   */\n      dup2\n        /* \"#utility.yul\":9150:9281   */\n      tag_204\n      jump\t// in\n    tag_236:\n        /* \"#utility.yul\":9142:9281   */\n      swap1\n      pop\n        /* \"#utility.yul\":8869:9288   */\n      swap2\n      swap1\n      pop\n      jump\t// out\n        /* \"#utility.yul\":9294:9713   */\n    tag_43:\n        /* \"#utility.yul\":9460:9464   */\n      0x00\n        /* \"#utility.yul\":9498:9500   */\n      0x20\n        /* \"#utility.yul\":9487:9496   */\n      dup3\n        /* \"#utility.yul\":9483:9501   */\n      add\n        /* \"#utility.yul\":9475:9501   */\n      swap1\n      pop\n        /* \"#utility.yul\":9547:9556   */\n      dup2\n        /* \"#utility.yul\":9541:9545   */\n      dup2\n        /* \"#utility.yul\":9537:9557   */\n      sub\n        /* \"#utility.yul\":9533:9534   */\n      0x00\n        /* \"#utility.yul\":9522:9531   */\n      dup4\n        /* \"#utility.yul\":9518:9535   */\n      add\n        /* \"#utility.yul\":9511:9558   */\n      mstore\n        /* \"#utility.yul\":9575:9706   */\n      tag_238\n        /* \"#utility.yul\":9701:9705   */\n      dup2\n        /* \"#utility.yul\":9575:9706   */\n      tag_209\n      jump\t// in\n    tag_238:\n        /* \"#utility.yul\":9567:9706   */\n      swap1\n      pop\n        /* \"#utility.yul\":9294:9713   */\n      swap2\n      swap1\n      pop\n      jump\t// out\n        /* \"#utility.yul\":9719:9941   */\n    tag_26:\n        /* \"#utility.yul\":9812:9816   */\n      0x00\n        /* \"#utility.yul\":9850:9852   */\n      0x20\n        /* \"#utility.yul\":9839:9848   */\n      dup3\n        /* \"#utility.yul\":9835:9853   */\n      add\n        /* \"#utility.yul\":9827:9853   */\n      swap1\n      pop\n        /* \"#utility.yul\":9863:9934   */\n      tag_240\n        /* \"#utility.yul\":9931:9932   */\n      0x00\n        /* \"#utility.yul\":9920:9929   */\n      dup4\n        /* \"#utility.yul\":9916:9933   */\n      add\n        /* \"#utility.yul\":9907:9913   */\n      dup5\n        /* \"#utility.yul\":9863:9934   */\n      tag_214\n      jump\t// in\n    tag_240:\n        /* \"#utility.yul\":9719:9941   */\n      swap3\n      swap2\n      pop\n      pop\n      jump\t// out\n        /* \"#utility.yul\":9947:10591   */\n    tag_71:\n        /* \"#utility.yul\":10144:10148   */\n      0x00\n        /* \"#utility.yul\":10182:10185   */\n      0x80\n        /* \"#utility.yul\":10171:10180   */\n      dup3\n        /* \"#utility.yul\":10167:10186   */\n      add\n        /* \"#utility.yul\":10159:10186   */\n      swap1\n      pop\n        /* \"#utility.yul\":10196:10267   */\n      tag_242\n        /* \"#utility.yul\":10264:10265   */\n      0x00\n        /* \"#utility.yul\":10253:10262   */\n      dup4\n        /* \"#utility.yul\":10249:10266   */\n      add\n        /* \"#utility.yul\":10240:10246   */\n      dup8\n        /* \"#utility.yul\":10196:10267   */\n      tag_214\n      jump\t// in\n    tag_242:\n        /* \"#utility.yul\":10277:10349   */\n      tag_243\n        /* \"#utility.yul\":10345:10347   */\n      0x20\n        /* \"#utility.yul\":10334:10343   */\n      dup4\n        /* \"#utility.yul\":10330:10348   */\n      add\n        /* \"#utility.yul\":10321:10327   */\n      dup7\n        /* \"#utility.yul\":10277:10349   */\n      tag_160\n      jump\t// in\n    tag_243:\n        /* \"#utility.yul\":10359:10431   */\n      tag_244\n        /* \"#utility.yul\":10427:10429   */\n      0x40\n        /* \"#utility.yul\":10416:10425   */\n      dup4\n        /* \"#utility.yul\":10412:10430   */\n      add\n        /* \"#utility.yul\":10403:10409   */\n      dup6\n        /* \"#utility.yul\":10359:10431   */\n      tag_214\n      jump\t// in\n    tag_244:\n        /* \"#utility.yul\":10478:10487   */\n      dup2\n        /* \"#utility.yul\":10472:10476   */\n      dup2\n        /* \"#utility.yul\":10468:10488   */\n      sub\n        /* \"#utility.yul\":10463:10465   */\n      0x60\n        /* \"#utility.yul\":10452:10461   */\n      dup4\n        /* \"#utility.yul\":10448:10466   */\n      add\n        /* \"#utility.yul\":10441:10489   */\n      mstore\n        /* \"#utility.yul\":10506:10584   */\n      tag_245\n        /* \"#utility.yul\":10579:10583   */\n      dup2\n        /* \"#utility.yul\":10570:10576   */\n      dup5\n        /* \"#utility.yul\":10506:10584   */\n      tag_173\n      jump\t// in\n    tag_245:\n        /* \"#utility.yul\":10498:10584   */\n      swap1\n      pop\n        /* \"#utility.yul\":9947:10591   */\n      swap6\n      swap5\n      pop\n      pop\n      pop\n      pop\n      pop\n      jump\t// out\n        /* \"#utility.yul\":10597:11562   */\n    tag_31:\n        /* \"#utility.yul\":10872:10876   */\n      0x00\n        /* \"#utility.yul\":10910:10913   */\n      0xe0\n        /* \"#utility.yul\":10899:10908   */\n      dup3\n        /* \"#utility.yul\":10895:10914   */\n      add\n        /* \"#utility.yul\":10887:10914   */\n      swap1\n      pop\n        /* \"#utility.yul\":10924:10995   */\n      tag_247\n        /* \"#utility.yul\":10992:10993   */\n      0x00\n        /* \"#utility.yul\":10981:10990   */\n      dup4\n        /* \"#utility.yul\":10977:10994   */\n      add\n        /* \"#utility.yul\":10968:10974   */\n      dup11\n        /* \"#utility.yul\":10924:10995   */\n      tag_214\n      jump\t// in\n    tag_247:\n        /* \"#utility.yul\":11005:11077   */\n      tag_248\n        /* \"#utility.yul\":11073:11075   */\n      0x20\n        /* \"#utility.yul\":11062:11071   */\n      dup4\n        /* \"#utility.yul\":11058:11076   */\n      add\n        /* \"#utility.yul\":11049:11055   */\n      dup10\n        /* \"#utility.yul\":11005:11077   */\n      tag_214\n      jump\t// in\n    tag_248:\n        /* \"#utility.yul\":11087:11159   */\n      tag_249\n        /* \"#utility.yul\":11155:11157   */\n      0x40\n        /* \"#utility.yul\":11144:11153   */\n      dup4\n        /* \"#utility.yul\":11140:11158   */\n      add\n        /* \"#utility.yul\":11131:11137   */\n      dup9\n        /* \"#utility.yul\":11087:11159   */\n      tag_214\n      jump\t// in\n    tag_249:\n        /* \"#utility.yul\":11169:11241   */\n      tag_250\n        /* \"#utility.yul\":11237:11239   */\n      0x60\n        /* \"#utility.yul\":11226:11235   */\n      dup4\n        /* \"#utility.yul\":11222:11240   */\n      add\n        /* \"#utility.yul\":11213:11219   */\n      dup8\n        /* \"#utility.yul\":11169:11241   */\n      tag_160\n      jump\t// in\n    tag_250:\n        /* \"#utility.yul\":11289:11298   */\n      dup2\n        /* \"#utility.yul\":11283:11287   */\n      dup2\n        /* \"#utility.yul\":11279:11299   */\n      sub\n        /* \"#utility.yul\":11273:11276   */\n      0x80\n        /* \"#utility.yul\":11262:11271   */\n      dup4\n        /* \"#utility.yul\":11258:11277   */\n      add\n        /* \"#utility.yul\":11251:11300   */\n      mstore\n        /* \"#utility.yul\":11317:11395   */\n      tag_251\n        /* \"#utility.yul\":11390:11394   */\n      dup2\n        /* \"#utility.yul\":11381:11387   */\n      dup7\n        /* \"#utility.yul\":11317:11395   */\n      tag_173\n      jump\t// in\n    tag_251:\n        /* \"#utility.yul\":11309:11395   */\n      swap1\n      pop\n        /* \"#utility.yul\":11405:11472   */\n      tag_252\n        /* \"#utility.yul\":11467:11470   */\n      0xa0\n        /* \"#utility.yul\":11456:11465   */\n      dup4\n        /* \"#utility.yul\":11452:11471   */\n      add\n        /* \"#utility.yul\":11443:11449   */\n      dup6\n        /* \"#utility.yul\":11405:11472   */\n      tag_169\n      jump\t// in\n    tag_252:\n        /* \"#utility.yul\":11482:11555   */\n      tag_253\n        /* \"#utility.yul\":11550:11553   */\n      0xc0\n        /* \"#utility.yul\":11539:11548   */\n      dup4\n        /* \"#utility.yul\":11535:11554   */\n      add\n        /* \"#utility.yul\":11526:11532   */\n      dup5\n        /* \"#utility.yul\":11482:11555   */\n      tag_214\n      jump\t// in\n    tag_253:\n        /* \"#utility.yul\":10597:11562   */\n      swap9\n      swap8\n      pop\n      pop\n      pop\n      pop\n      pop\n      pop\n      pop\n      pop\n      jump\t// out\n        /* \"#utility.yul\":11568:11697   */\n    tag_113:\n        /* \"#utility.yul\":11602:11608   */\n      0x00\n        /* \"#utility.yul\":11629:11649   */\n      tag_255\n      tag_256\n      jump\t// in\n    tag_255:\n        /* \"#utility.yul\":11619:11649   */\n      swap1\n      pop\n        /* \"#utility.yul\":11658:11691   */\n      tag_257\n        /* \"#utility.yul\":11686:11690   */\n      dup3\n        /* \"#utility.yul\":11678:11684   */\n      dup3\n        /* \"#utility.yul\":11658:11691   */\n      tag_258\n      jump\t// in\n    tag_257:\n        /* \"#utility.yul\":11568:11697   */\n      swap2\n      swap1\n      pop\n      jump\t// out\n        /* \"#utility.yul\":11703:11778   */\n    tag_256:\n        /* \"#utility.yul\":11736:11742   */\n      0x00\n        /* \"#utility.yul\":11769:11771   */\n      0x40\n        /* \"#utility.yul\":11763:11772   */\n      mload\n        /* \"#utility.yul\":11753:11772   */\n      swap1\n      pop\n        /* \"#utility.yul\":11703:11778   */\n      swap1\n      jump\t// out\n        /* \"#utility.yul\":11784:12092   */\n    tag_112:\n        /* \"#utility.yul\":11846:11850   */\n      0x00\n        /* \"#utility.yul\":11936:11954   */\n      0xffffffffffffffff\n        /* \"#utility.yul\":11928:11934   */\n      dup3\n        /* \"#utility.yul\":11925:11955   */\n      gt\n        /* \"#utility.yul\":11922:11978   */\n      iszero\n      tag_261\n      jumpi\n        /* \"#utility.yul\":11958:11976   */\n      tag_262\n      tag_263\n      jump\t// in\n    tag_262:\n        /* \"#utility.yul\":11922:11978   */\n    tag_261:\n        /* \"#utility.yul\":11996:12025   */\n      tag_264\n        /* \"#utility.yul\":12018:12024   */\n      dup3\n        /* \"#utility.yul\":11996:12025   */\n      tag_182\n      jump\t// in\n    tag_264:\n        /* \"#utility.yul\":11988:12025   */\n      swap1\n      pop\n        /* \"#utility.yul\":12080:12084   */\n      0x20\n        /* \"#utility.yul\":12074:12078   */\n      dup2\n        /* \"#utility.yul\":12070:12085   */\n      add\n        /* \"#utility.yul\":12062:12085   */\n      swap1\n      pop\n        /* \"#utility.yul\":11784:12092   */\n      swap2\n      swap1\n      pop\n      jump\t// out\n        /* \"#utility.yul\":12098:12197   */\n    tag_176:\n        /* \"#utility.yul\":12150:12156   */\n      0x00\n        /* \"#utility.yul\":12184:12189   */\n      dup2\n        /* \"#utility.yul\":12178:12190   */\n      mload\n        /* \"#utility.yul\":12168:12190   */\n      swap1\n      pop\n        /* \"#utility.yul\":12098:12197   */\n      swap2\n      swap1\n      pop\n      jump\t// out\n        /* \"#utility.yul\":12203:12372   */\n    tag_178:\n        /* \"#utility.yul\":12287:12298   */\n      0x00\n        /* \"#utility.yul\":12321:12327   */\n      dup3\n        /* \"#utility.yul\":12316:12319   */\n      dup3\n        /* \"#utility.yul\":12309:12328   */\n      mstore\n        /* \"#utility.yul\":12361:12365   */\n      0x20\n        /* \"#utility.yul\":12356:12359   */\n      dup3\n        /* \"#utility.yul\":12352:12366   */\n      add\n        /* \"#utility.yul\":12337:12366   */\n      swap1\n      pop\n        /* \"#utility.yul\":12203:12372   */\n      swap3\n      swap2\n      pop\n      pop\n      jump\t// out\n        /* \"#utility.yul\":12378:12526   */\n    tag_187:\n        /* \"#utility.yul\":12480:12491   */\n      0x00\n        /* \"#utility.yul\":12517:12520   */\n      dup2\n        /* \"#utility.yul\":12502:12520   */\n      swap1\n      pop\n        /* \"#utility.yul\":12378:12526   */\n      swap3\n      swap2\n      pop\n      pop\n      jump\t// out\n        /* \"#utility.yul\":12532:12837   */\n    tag_67:\n        /* \"#utility.yul\":12572:12575   */\n      0x00\n        /* \"#utility.yul\":12591:12611   */\n      tag_269\n        /* \"#utility.yul\":12609:12610   */\n      dup3\n        /* \"#utility.yul\":12591:12611   */\n      tag_217\n      jump\t// in\n    tag_269:\n        /* \"#utility.yul\":12586:12611   */\n      swap2\n      pop\n        /* \"#utility.yul\":12625:12645   */\n      tag_270\n        /* \"#utility.yul\":12643:12644   */\n      dup4\n        /* \"#utility.yul\":12625:12645   */\n      tag_217\n      jump\t// in\n    tag_270:\n        /* \"#utility.yul\":12620:12645   */\n      swap3\n      pop\n        /* \"#utility.yul\":12779:12780   */\n      dup3\n        /* \"#utility.yul\":12711:12777   */\n      0xffffffffffffffffffffffffffffffffffffffffffffffffffffffffffffffff\n        /* \"#utility.yul\":12707:12781   */\n      sub\n        /* \"#utility.yul\":12704:12705   */\n      dup3\n        /* \"#utility.yul\":12701:12782   */\n      gt\n        /* \"#utility.yul\":12698:12805   */\n      iszero\n      tag_271\n      jumpi\n        /* \"#utility.yul\":12785:12803   */\n      tag_272\n      tag_273\n      jump\t// in\n    tag_272:\n        /* \"#utility.yul\":12698:12805   */\n    tag_271:\n        /* \"#utility.yul\":12829:12830   */\n      dup3\n        /* \"#utility.yul\":12826:12827   */\n      dup3\n        /* \"#utility.yul\":12822:12831   */\n      add\n        /* \"#utility.yul\":12815:12831   */\n      swap1\n      pop\n        /* \"#utility.yul\":12532:12837   */\n      swap3\n      swap2\n      pop\n      pop\n      jump\t// out\n        /* \"#utility.yul\":12843:13191   */\n    tag_57:\n        /* \"#utility.yul\":12883:12890   */\n      0x00\n        /* \"#utility.yul\":12906:12926   */\n      tag_275\n        /* \"#utility.yul\":12924:12925   */\n      dup3\n        /* \"#utility.yul\":12906:12926   */\n      tag_217\n      jump\t// in\n    tag_275:\n        /* \"#utility.yul\":12901:12926   */\n      swap2\n      pop\n        /* \"#utility.yul\":12940:12960   */\n      tag_276\n        /* \"#utility.yul\":12958:12959   */\n      dup4\n        /* \"#utility.yul\":12940:12960   */\n      tag_217\n      jump\t// in\n    tag_276:\n        /* \"#utility.yul\":12935:12960   */\n      swap3\n      pop\n        /* \"#utility.yul\":13128:13129   */\n      dup2\n        /* \"#utility.yul\":13060:13126   */\n      0xffffffffffffffffffffffffffffffffffffffffffffffffffffffffffffffff\n        /* \"#utility.yul\":13056:13130   */\n      div\n        /* \"#utility.yul\":13053:13054   */\n      dup4\n        /* \"#utility.yul\":13050:13131   */\n      gt\n        /* \"#utility.yul\":13045:13046   */\n      dup3\n        /* \"#utility.yul\":13038:13047   */\n      iszero\n        /* \"#utility.yul\":13031:13048   */\n      iszero\n        /* \"#utility.yul\":13027:13132   */\n      and\n        /* \"#utility.yul\":13024:13155   */\n      iszero\n      tag_277\n      jumpi\n        /* \"#utility.yul\":13135:13153   */\n      tag_278\n      tag_273\n      jump\t// in\n    tag_278:\n        /* \"#utility.yul\":13024:13155   */\n    tag_277:\n        /* \"#utility.yul\":13183:13184   */\n      dup3\n        /* \"#utility.yul\":13180:13181   */\n      dup3\n        /* \"#utility.yul\":13176:13185   */\n      mul\n        /* \"#utility.yul\":13165:13185   */\n      swap1\n      pop\n        /* \"#utility.yul\":12843:13191   */\n      swap3\n      swap2\n      pop\n      pop\n      jump\t// out\n        /* \"#utility.yul\":13197:13293   */\n    tag_163:\n        /* \"#utility.yul\":13234:13241   */\n      0x00\n        /* \"#utility.yul\":13263:13287   */\n      tag_280\n        /* \"#utility.yul\":13281:13286   */\n      dup3\n        /* \"#utility.yul\":13263:13287   */\n      tag_281\n      jump\t// in\n    tag_280:\n        /* \"#utility.yul\":13252:13287   */\n      swap1\n      pop\n        /* \"#utility.yul\":13197:13293   */\n      swap2\n      swap1\n      pop\n      jump\t// out\n        /* \"#utility.yul\":13299:13389   */\n    tag_172:\n        /* \"#utility.yul\":13333:13340   */\n      0x00\n        /* \"#utility.yul\":13376:13381   */\n      dup2\n        /* \"#utility.yul\":13369:13382   */\n      iszero\n        /* \"#utility.yul\":13362:13383   */\n      iszero\n        /* \"#utility.yul\":13351:13383   */\n      swap1\n      pop\n        /* \"#utility.yul\":13299:13389   */\n      swap2\n      swap1\n      pop\n      jump\t// out\n        /* \"#utility.yul\":13395:13521   */\n    tag_281:\n        /* \"#utility.yul\":13432:13439   */\n      0x00\n        /* \"#utility.yul\":13472:13514   */\n      0xffffffffffffffffffffffffffffffffffffffff\n        /* \"#utility.yul\":13465:13470   */\n      dup3\n        /* \"#utility.yul\":13461:13515   */\n      and\n        /* \"#utility.yul\":13450:13515   */\n      swap1\n      pop\n        /* \"#utility.yul\":13395:13521   */\n      swap2\n      swap1\n      pop\n      jump\t// out\n        /* \"#utility.yul\":13527:13604   */\n    tag_217:\n        /* \"#utility.yul\":13564:13571   */\n      0x00\n        /* \"#utility.yul\":13593:13598   */\n      dup2\n        /* \"#utility.yul\":13582:13598   */\n      swap1\n      pop\n        /* \"#utility.yul\":13527:13604   */\n      swap2\n      swap1\n      pop\n      jump\t// out\n        /* \"#utility.yul\":13610:13764   */\n    tag_118:\n        /* \"#utility.yul\":13694:13700   */\n      dup3\n        /* \"#utility.yul\":13689:13692   */\n      dup2\n        /* \"#utility.yul\":13684:13687   */\n      dup4\n        /* \"#utility.yul\":13671:13701   */\n      calldatacopy\n        /* \"#utility.yul\":13756:13757   */\n      0x00\n        /* \"#utility.yul\":13747:13753   */\n      dup4\n        /* \"#utility.yul\":13742:13745   */\n      dup4\n        /* \"#utility.yul\":13738:13754   */\n      add\n        /* \"#utility.yul\":13731:13758   */\n      mstore\n        /* \"#utility.yul\":13610:13764   */\n      pop\n      pop\n      pop\n      jump\t// out\n        /* \"#utility.yul\":13770:14077   */\n    tag_180:\n        /* \"#utility.yul\":13838:13839   */\n      0x00\n        /* \"#utility.yul\":13848:13961   */\n    tag_287:\n        /* \"#utility.yul\":13862:13868   */\n      dup4\n        /* \"#utility.yul\":13859:13860   */\n      dup2\n        /* \"#utility.yul\":13856:13869   */\n      lt\n        /* \"#utility.yul\":13848:13961   */\n      iszero\n      tag_289\n      jumpi\n        /* \"#utility.yul\":13947:13948   */\n      dup1\n        /* \"#utility.yul\":13942:13945   */\n      dup3\n        /* \"#utility.yul\":13938:13949   */\n      add\n        /* \"#utility.yul\":13932:13950   */\n      mload\n        /* \"#utility.yul\":13928:13929   */\n      dup2\n        /* \"#utility.yul\":13923:13926   */\n      dup5\n        /* \"#utility.yul\":13919:13930   */\n      add\n        /* \"#utility.yul\":13912:13951   */\n      mstore\n        /* \"#utility.yul\":13884:13886   */\n      0x20\n        /* \"#utility.yul\":13881:13882   */\n      dup2\n        /* \"#utility.yul\":13877:13887   */\n      add\n        /* \"#utility.yul\":13872:13887   */\n      swap1\n      pop\n        /* \"#utility.yul\":13848:13961   */\n      jump(tag_287)\n    tag_289:\n        /* \"#utility.yul\":13979:13985   */\n      dup4\n        /* \"#utility.yul\":13976:13977   */\n      dup2\n        /* \"#utility.yul\":13973:13986   */\n      gt\n        /* \"#utility.yul\":13970:14071   */\n      iszero\n      tag_290\n      jumpi\n        /* \"#utility.yul\":14059:14060   */\n      0x00\n        /* \"#utility.yul\":14050:14056   */\n      dup5\n        /* \"#utility.yul\":14045:14048   */\n      dup5\n        /* \"#utility.yul\":14041:14057   */\n      add\n        /* \"#utility.yul\":14034:14061   */\n      mstore\n        /* \"#utility.yul\":13970:14071   */\n    tag_290:\n        /* \"#utility.yul\":13819:14077   */\n      pop\n        /* \"#utility.yul\":13770:14077   */\n      pop\n      pop\n      pop\n      jump\t// out\n        /* \"#utility.yul\":14083:14403   */\n    tag_73:\n        /* \"#utility.yul\":14127:14133   */\n      0x00\n        /* \"#utility.yul\":14164:14165   */\n      0x02\n        /* \"#utility.yul\":14158:14162   */\n      dup3\n        /* \"#utility.yul\":14154:14166   */\n      div\n        /* \"#utility.yul\":14144:14166   */\n      swap1\n      pop\n        /* \"#utility.yul\":14211:14212   */\n      0x01\n        /* \"#utility.yul\":14205:14209   */\n      dup3\n        /* \"#utility.yul\":14201:14213   */\n      and\n        /* \"#utility.yul\":14232:14250   */\n      dup1\n        /* \"#utility.yul\":14222:14303   */\n      tag_292\n      jumpi\n        /* \"#utility.yul\":14288:14292   */\n      0x7f\n        /* \"#utility.yul\":14280:14286   */\n      dup3\n        /* \"#utility.yul\":14276:14293   */\n      and\n        /* \"#utility.yul\":14266:14293   */\n      swap2\n      pop\n        /* \"#utility.yul\":14222:14303   */\n    tag_292:\n        /* \"#utility.yul\":14350:14352   */\n      0x20\n        /* \"#utility.yul\":14342:14348   */\n      dup3\n        /* \"#utility.yul\":14339:14353   */\n      lt\n        /* \"#utility.yul\":14319:14337   */\n      dup2\n        /* \"#utility.yul\":14316:14354   */\n      eq\n        /* \"#utility.yul\":14313:14397   */\n      iszero\n      tag_293\n      jumpi\n        /* \"#utility.yul\":14369:14387   */\n      tag_294\n      tag_295\n      jump\t// in\n    tag_294:\n        /* \"#utility.yul\":14313:14397   */\n    tag_293:\n        /* \"#utility.yul\":14134:14403   */\n      pop\n        /* \"#utility.yul\":14083:14403   */\n      swap2\n      swap1\n      pop\n      jump\t// out\n        /* \"#utility.yul\":14409:14690   */\n    tag_258:\n        /* \"#utility.yul\":14492:14519   */\n      tag_297\n        /* \"#utility.yul\":14514:14518   */\n      dup3\n        /* \"#utility.yul\":14492:14519   */\n      tag_182\n      jump\t// in\n    tag_297:\n        /* \"#utility.yul\":14484:14490   */\n      dup2\n        /* \"#utility.yul\":14480:14520   */\n      add\n        /* \"#utility.yul\":14622:14628   */\n      dup2\n        /* \"#utility.yul\":14610:14620   */\n      dup2\n        /* \"#utility.yul\":14607:14629   */\n      lt\n        /* \"#utility.yul\":14586:14604   */\n      0xffffffffffffffff\n        /* \"#utility.yul\":14574:14584   */\n      dup3\n        /* \"#utility.yul\":14571:14605   */\n      gt\n        /* \"#utility.yul\":14568:14630   */\n      or\n        /* \"#utility.yul\":14565:14653   */\n      iszero\n      tag_298\n      jumpi\n        /* \"#utility.yul\":14633:14651   */\n      tag_299\n      tag_263\n      jump\t// in\n    tag_299:\n        /* \"#utility.yul\":14565:14653   */\n    tag_298:\n        /* \"#utility.yul\":14673:14683   */\n      dup1\n        /* \"#utility.yul\":14669:14671   */\n      0x40\n        /* \"#utility.yul\":14662:14684   */\n      mstore\n        /* \"#utility.yul\":14452:14690   */\n      pop\n        /* \"#utility.yul\":14409:14690   */\n      pop\n      pop\n      jump\t// out\n        /* \"#utility.yul\":14696:14796   */\n    tag_168:\n        /* \"#utility.yul\":14735:14742   */\n      0x00\n        /* \"#utility.yul\":14764:14790   */\n      tag_301\n        /* \"#utility.yul\":14784:14789   */\n      dup3\n        /* \"#utility.yul\":14764:14790   */\n      tag_302\n      jump\t// in\n    tag_301:\n        /* \"#utility.yul\":14753:14790   */\n      swap1\n      pop\n        /* \"#utility.yul\":14696:14796   */\n      swap2\n      swap1\n      pop\n      jump\t// out\n        /* \"#utility.yul\":14802:14896   */\n    tag_302:\n        /* \"#utility.yul\":14841:14848   */\n      0x00\n        /* \"#utility.yul\":14870:14890   */\n      tag_304\n        /* \"#utility.yul\":14884:14889   */\n      dup3\n        /* \"#utility.yul\":14870:14890   */\n      tag_305\n      jump\t// in\n    tag_304:\n        /* \"#utility.yul\":14859:14890   */\n      swap1\n      pop\n        /* \"#utility.yul\":14802:14896   */\n      swap2\n      swap1\n      pop\n      jump\t// out\n        /* \"#utility.yul\":14902:14981   */\n    tag_222:\n        /* \"#utility.yul\":14941:14948   */\n      0x00\n        /* \"#utility.yul\":14970:14975   */\n      dup2\n        /* \"#utility.yul\":14959:14975   */\n      swap1\n      pop\n        /* \"#utility.yul\":14902:14981   */\n      swap2\n      swap1\n      pop\n      jump\t// out\n        /* \"#utility.yul\":14987:15163   */\n    tag_96:\n        /* \"#utility.yul\":15019:15020   */\n      0x00\n        /* \"#utility.yul\":15036:15056   */\n      tag_308\n        /* \"#utility.yul\":15054:15055   */\n      dup3\n        /* \"#utility.yul\":15036:15056   */\n      tag_217\n      jump\t// in\n    tag_308:\n        /* \"#utility.yul\":15031:15056   */\n      swap2\n      pop\n        /* \"#utility.yul\":15070:15090   */\n      tag_309\n        /* \"#utility.yul\":15088:15089   */\n      dup4\n        /* \"#utility.yul\":15070:15090   */\n      tag_217\n      jump\t// in\n    tag_309:\n        /* \"#utility.yul\":15065:15090   */\n      swap3\n      pop\n        /* \"#utility.yul\":15109:15110   */\n      dup3\n        /* \"#utility.yul\":15099:15134   */\n      tag_310\n      jumpi\n        /* \"#utility.yul\":15114:15132   */\n      tag_311\n      tag_312\n      jump\t// in\n    tag_311:\n        /* \"#utility.yul\":15099:15134   */\n    tag_310:\n        /* \"#utility.yul\":15155:15156   */\n      dup3\n        /* \"#utility.yul\":15152:15153   */\n      dup3\n        /* \"#utility.yul\":15148:15157   */\n      mod\n        /* \"#utility.yul\":15143:15157   */\n      swap1\n      pop\n        /* \"#utility.yul\":14987:15163   */\n      swap3\n      swap2\n      pop\n      pop\n      jump\t// out\n        /* \"#utility.yul\":15169:15349   */\n    tag_273:\n        /* \"#utility.yul\":15217:15294   */\n      0x4e487b7100000000000000000000000000000000000000000000000000000000\n        /* \"#utility.yul\":15214:15215   */\n      0x00\n        /* \"#utility.yul\":15207:15295   */\n      mstore\n        /* \"#utility.yul\":15314:15318   */\n      0x11\n        /* \"#utility.yul\":15311:15312   */\n      0x04\n        /* \"#utility.yul\":15304:15319   */\n      mstore\n        /* \"#utility.yul\":15338:15342   */\n      0x24\n        /* \"#utility.yul\":15335:15336   */\n      0x00\n        /* \"#utility.yul\":15328:15343   */\n      revert\n        /* \"#utility.yul\":15355:15535   */\n    tag_312:\n        /* \"#utility.yul\":15403:15480   */\n      0x4e487b7100000000000000000000000000000000000000000000000000000000\n        /* \"#utility.yul\":15400:15401   */\n      0x00\n        /* \"#utility.yul\":15393:15481   */\n      mstore\n        /* \"#utility.yul\":15500:15504   */\n      0x12\n        /* \"#utility.yul\":15497:15498   */\n      0x04\n        /* \"#utility.yul\":15490:15505   */\n      mstore\n        /* \"#utility.yul\":15524:15528   */\n      0x24\n        /* \"#utility.yul\":15521:15522   */\n      0x00\n        /* \"#utility.yul\":15514:15529   */\n      revert\n        /* \"#utility.yul\":15541:15721   */\n    tag_295:\n        /* \"#utility.yul\":15589:15666   */\n      0x4e487b7100000000000000000000000000000000000000000000000000000000\n        /* \"#utility.yul\":15586:15587   */\n      0x00\n        /* \"#utility.yul\":15579:15667   */\n      mstore\n        /* \"#utility.yul\":15686:15690   */\n      0x22\n        /* \"#utility.yul\":15683:15684   */\n      0x04\n        /* \"#utility.yul\":15676:15691   */\n      mstore\n        /* \"#utility.yul\":15710:15714   */\n      0x24\n        /* \"#utility.yul\":15707:15708   */\n      0x00\n        /* \"#utility.yul\":15700:15715   */\n      revert\n        /* \"#utility.yul\":15727:15907   */\n    tag_263:\n        /* \"#utility.yul\":15775:15852   */\n      0x4e487b7100000000000000000000000000000000000000000000000000000000\n        /* \"#utility.yul\":15772:15773   */\n      0x00\n        /* \"#utility.yul\":15765:15853   */\n      mstore\n        /* \"#utility.yul\":15872:15876   */\n      0x41\n        /* \"#utility.yul\":15869:15870   */\n      0x04\n        /* \"#utility.yul\":15862:15877   */\n      mstore\n        /* \"#utility.yul\":15896:15900   */\n      0x24\n        /* \"#utility.yul\":15893:15894   */\n      0x00\n        /* \"#utility.yul\":15886:15901   */\n      revert\n        /* \"#utility.yul\":15913:16030   */\n    tag_127:\n        /* \"#utility.yul\":16022:16023   */\n      0x00\n        /* \"#utility.yul\":16019:16020   */\n      dup1\n        /* \"#utility.yul\":16012:16024   */\n      revert\n        /* \"#utility.yul\":16036:16153   */\n    tag_116:\n        /* \"#utility.yul\":16145:16146   */\n      0x00\n        /* \"#utility.yul\":16142:16143   */\n      dup1\n        /* \"#utility.yul\":16135:16147   */\n      revert\n        /* \"#utility.yul\":16159:16276   */\n    tag_150:\n        /* \"#utility.yul\":16268:16269   */\n      0x00\n        /* \"#utility.yul\":16265:16266   */\n      dup1\n        /* \"#utility.yul\":16258:16270   */\n      revert\n        /* \"#utility.yul\":16282:16399   */\n    tag_136:\n        /* \"#utility.yul\":16391:16392   */\n      0x00\n        /* \"#utility.yul\":16388:16389   */\n      dup1\n        /* \"#utility.yul\":16381:16393   */\n      revert\n        /* \"#utility.yul\":16405:16507   */\n    tag_182:\n        /* \"#utility.yul\":16446:16452   */\n      0x00\n        /* \"#utility.yul\":16497:16499   */\n      0x1f\n        /* \"#utility.yul\":16493:16500   */\n      not\n        /* \"#utility.yul\":16488:16490   */\n      0x1f\n        /* \"#utility.yul\":16481:16486   */\n      dup4\n        /* \"#utility.yul\":16477:16491   */\n      add\n        /* \"#utility.yul\":16473:16501   */\n      and\n        /* \"#utility.yul\":16463:16501   */\n      swap1\n      pop\n        /* \"#utility.yul\":16405:16507   */\n      swap2\n      swap1\n      pop\n      jump\t// out\n        /* \"#utility.yul\":16513:16607   */\n    tag_305:\n        /* \"#utility.yul\":16546:16554   */\n      0x00\n        /* \"#utility.yul\":16594:16599   */\n      dup2\n        /* \"#utility.yul\":16590:16592   */\n      0x60\n        /* \"#utility.yul\":16586:16600   */\n      shl\n        /* \"#utility.yul\":16565:16600   */\n      swap1\n      pop\n        /* \"#utility.yul\":16513:16607   */\n      swap2\n      swap1\n      pop\n      jump\t// out\n        /* \"#utility.yul\":16613:16838   */\n    tag_193:\n        /* \"#utility.yul\":16753:16787   */\n      0x4f776e61626c653a206e6577206f776e657220697320746865207a65726f2061\n        /* \"#utility.yul\":16749:16750   */\n      0x00\n        /* \"#utility.yul\":16741:16747   */\n      dup3\n        /* \"#utility.yul\":16737:16751   */\n      add\n        /* \"#utility.yul\":16730:16788   */\n      mstore\n        /* \"#utility.yul\":16822:16830   */\n      0x6464726573730000000000000000000000000000000000000000000000000000\n        /* \"#utility.yul\":16817:16819   */\n      0x20\n        /* \"#utility.yul\":16809:16815   */\n      dup3\n        /* \"#utility.yul\":16805:16820   */\n      add\n        /* \"#utility.yul\":16798:16831   */\n      mstore\n        /* \"#utility.yul\":16613:16838   */\n      pop\n      jump\t// out\n        /* \"#utility.yul\":16844:17014   */\n    tag_198:\n        /* \"#utility.yul\":16984:17006   */\n      0x76616c75652063616e6e6f74206265206e756c6c000000000000000000000000\n        /* \"#utility.yul\":16980:16981   */\n      0x00\n        /* \"#utility.yul\":16972:16978   */\n      dup3\n        /* \"#utility.yul\":16968:16982   */\n      add\n        /* \"#utility.yul\":16961:17007   */\n      mstore\n        /* \"#utility.yul\":16844:17014   */\n      pop\n      jump\t// out\n        /* \"#utility.yul\":17020:17202   */\n    tag_203:\n        /* \"#utility.yul\":17160:17194   */\n      0x4f776e61626c653a2063616c6c6572206973206e6f7420746865206f776e6572\n        /* \"#utility.yul\":17156:17157   */\n      0x00\n        /* \"#utility.yul\":17148:17154   */\n      dup3\n        /* \"#utility.yul\":17144:17158   */\n      add\n        /* \"#utility.yul\":17137:17195   */\n      mstore\n        /* \"#utility.yul\":17020:17202   */\n      pop\n      jump\t// out\n        /* \"#utility.yul\":17208:17385   */\n    tag_208:\n        /* \"#utility.yul\":17348:17377   */\n      0x7468697320686f757365496420616c7265616479206578697374730000000000\n        /* \"#utility.yul\":17344:17345   */\n      0x00\n        /* \"#utility.yul\":17336:17342   */\n      dup3\n        /* \"#utility.yul\":17332:17346   */\n      add\n        /* \"#utility.yul\":17325:17378   */\n      mstore\n        /* \"#utility.yul\":17208:17385   */\n      pop\n      jump\t// out\n        /* \"#utility.yul\":17391:17621   */\n    tag_213:\n        /* \"#utility.yul\":17531:17565   */\n      0x596f7520646f206e6f7420686176652061636365737320746f2064656c657465\n        /* \"#utility.yul\":17527:17528   */\n      0x00\n        /* \"#utility.yul\":17519:17525   */\n      dup3\n        /* \"#utility.yul\":17515:17529   */\n      add\n        /* \"#utility.yul\":17508:17566   */\n      mstore\n        /* \"#utility.yul\":17600:17613   */\n      0x207468697320686f757365000000000000000000000000000000000000000000\n        /* \"#utility.yul\":17595:17597   */\n      0x20\n        /* \"#utility.yul\":17587:17593   */\n      dup3\n        /* \"#utility.yul\":17583:17598   */\n      add\n        /* \"#utility.yul\":17576:17614   */\n      mstore\n        /* \"#utility.yul\":17391:17621   */\n      pop\n      jump\t// out\n        /* \"#utility.yul\":17627:17749   */\n    tag_122:\n        /* \"#utility.yul\":17700:17724   */\n      tag_329\n        /* \"#utility.yul\":17718:17723   */\n      dup2\n        /* \"#utility.yul\":17700:17724   */\n      tag_163\n      jump\t// in\n    tag_329:\n        /* \"#utility.yul\":17693:17698   */\n      dup2\n        /* \"#utility.yul\":17690:17725   */\n      eq\n        /* \"#utility.yul\":17680:17743   */\n      tag_330\n      jumpi\n        /* \"#utility.yul\":17739:17740   */\n      0x00\n        /* \"#utility.yul\":17736:17737   */\n      dup1\n        /* \"#utility.yul\":17729:17741   */\n      revert\n        /* \"#utility.yul\":17680:17743   */\n    tag_330:\n        /* \"#utility.yul\":17627:17749   */\n      pop\n      jump\t// out\n        /* \"#utility.yul\":17755:17877   */\n    tag_132:\n        /* \"#utility.yul\":17828:17852   */\n      tag_332\n        /* \"#utility.yul\":17846:17851   */\n      dup2\n        /* \"#utility.yul\":17828:17852   */\n      tag_217\n      jump\t// in\n    tag_332:\n        /* \"#utility.yul\":17821:17826   */\n      dup2\n        /* \"#utility.yul\":17818:17853   */\n      eq\n        /* \"#utility.yul\":17808:17871   */\n      tag_333\n      jumpi\n        /* \"#utility.yul\":17867:17868   */\n      0x00\n        /* \"#utility.yul\":17864:17865   */\n      dup1\n        /* \"#utility.yul\":17857:17869   */\n      revert\n        /* \"#utility.yul\":17808:17871   */\n    tag_333:\n        /* \"#utility.yul\":17755:17877   */\n      pop\n      jump\t// out\n\n    auxdata: 0xa26469706673582212205cc83bae219cf6a7b86e65c612ac6881078f1879db1a406b7c564ffb192ffcbc64736f6c63430008070033\n}\n",
				"bytecode": {
					"linkReferences": {},
					"object": "60806040526005600155600154600a6200001a91906200017f565b600255620151806003553480156200003157600080fd5b5062000052620000466200005860201b60201c565b6200006060201b60201c565b62000302565b600033905090565b60008060009054906101000a900473ffffffffffffffffffffffffffffffffffffffff169050816000806101000a81548173ffffffffffffffffffffffffffffffffffffffff021916908373ffffffffffffffffffffffffffffffffffffffff1602179055508173ffffffffffffffffffffffffffffffffffffffff168173ffffffffffffffffffffffffffffffffffffffff167f8be0079c531659141344cd1fd0a4f28419497f9722a3daafe3b4186f6b6457e060405160405180910390a35050565b6000808291508390505b600185111562000176578086048111156200014e576200014d620002c6565b5b60018516156200015e5780820291505b80810290506200016e85620002f5565b94506200012e565b94509492505050565b60006200018c82620002bc565b91506200019983620002bc565b9250620001c87fffffffffffffffffffffffffffffffffffffffffffffffffffffffffffffffff8484620001d0565b905092915050565b600082620001e25760019050620002b5565b81620001f25760009050620002b5565b81600181146200020b576002811462000216576200024c565b6001915050620002b5565b60ff8411156200022b576200022a620002c6565b5b8360020a915084821115620002455762000244620002c6565b5b50620002b5565b5060208310610133831016604e8410600b8410161715620002865782820a90508381111562000280576200027f620002c6565b5b620002b5565b62000295848484600162000124565b92509050818404811115620002af57620002ae620002c6565b5b81810290505b9392505050565b6000819050919050565b7f4e487b7100000000000000000000000000000000000000000000000000000000600052601160045260246000fd5b60008160011c9050919050565b6112d080620003126000396000f3fe608060405234801561001057600080fd5b506004361061007d5760003560e01c806391bfe0d41161005b57806391bfe0d4146100c6578063aeda852f146100f6578063be40a73e1461012c578063f2fde38b146101485761007d565b80633c3b0b4a14610082578063715018a61461009e5780638da5cb5b146100a8575b600080fd5b61009c60048036038101906100979190610988565b610164565b005b6100a661023a565b005b6100b06102c2565b6040516100bd9190610c54565b60405180910390f35b6100e060048036038101906100db91906109b5565b6102eb565b6040516100ed9190610d0f565b60405180910390f35b610110600480360381019061010b9190610988565b610506565b6040516101239796959493929190610d76565b60405180910390f35b61014660048036038101906101419190610a38565b6105fd565b005b610162600480360381019061015d919061095b565b61060f565b005b3373ffffffffffffffffffffffffffffffffffffffff166004600083815260200190815260200160002060030160009054906101000a900473ffffffffffffffffffffffffffffffffffffffff1673ffffffffffffffffffffffffffffffffffffffff1614610208576040517f08c379a00000000000000000000000000000000000000000000000000000000081526004016101ff90610cef565b60405180910390fd5b60016004600083815260200190815260200160002060050160006101000a81548160ff02191690831515021790555050565b610242610707565b73ffffffffffffffffffffffffffffffffffffffff166102606102c2565b73ffffffffffffffffffffffffffffffffffffffff16146102b6576040517f08c379a00000000000000000000000000000000000000000000000000000000081526004016102ad90610caf565b60405180910390fd5b6102c0600061070f565b565b60008060009054906101000a900473ffffffffffffffffffffffffffffffffffffffff16905090565b60008084866102fa9190610ebf565b1161033a576040517f08c379a000000000000000000000000000000000000000000000000000000000815260040161033190610c8f565b60405180910390fd5b60006103478486856107d3565b905060046000828152602001908152602001600020600001548114156103a2576040517f08c379a000000000000000000000000000000000000000000000000000000000815260040161039990610ccf565b60405180910390fd5b6040518060e001604052808281526020018781526020018681526020018573ffffffffffffffffffffffffffffffffffffffff168152602001848152602001600015158152602001600354426103f89190610e69565b8152506004600083815260200190815260200160002060008201518160000155602082015181600101556040820151816002015560608201518160030160006101000a81548173ffffffffffffffffffffffffffffffffffffffff021916908373ffffffffffffffffffffffffffffffffffffffff160217905550608082015181600401908051906020019061048f92919061081e565b5060a08201518160050160006101000a81548160ff02191690831515021790555060c082015181600601559050507f8f5afd88eb4be0ac287d87970052ce9a2b453448408e3c91a695ad7509ab7194818588866040516104f29493929190610d2a565b60405180910390a180915050949350505050565b60046020528060005260406000206000915090508060000154908060010154908060020154908060030160009054906101000a900473ffffffffffffffffffffffffffffffffffffffff169080600401805461056190610fa3565b80601f016020809104026020016040519081016040528092919081815260200182805461058d90610fa3565b80156105da5780601f106105af576101008083540402835291602001916105da565b820191906000526020600020905b8154815290600101906020018083116105bd57829003601f168201915b5050505050908060050160009054906101000a900460ff16908060060154905087565b610609838333846102eb565b50505050565b610617610707565b73ffffffffffffffffffffffffffffffffffffffff166106356102c2565b73ffffffffffffffffffffffffffffffffffffffff161461068b576040517f08c379a000000000000000000000000000000000000000000000000000000000815260040161068290610caf565b60405180910390fd5b600073ffffffffffffffffffffffffffffffffffffffff168173ffffffffffffffffffffffffffffffffffffffff1614156106fb576040517f08c379a00000000000000000000000000000000000000000000000000000000081526004016106f290610c6f565b60405180910390fd5b6107048161070f565b50565b600033905090565b60008060009054906101000a900473ffffffffffffffffffffffffffffffffffffffff169050816000806101000a81548173ffffffffffffffffffffffffffffffffffffffff021916908373ffffffffffffffffffffffffffffffffffffffff1602179055508173ffffffffffffffffffffffffffffffffffffffff168173ffffffffffffffffffffffffffffffffffffffff167f8be0079c531659141344cd1fd0a4f28419497f9722a3daafe3b4186f6b6457e060405160405180910390a35050565b6000808484846040516020016107eb93929190610c1b565b6040516020818303038152906040528051906020012060001c9050600254816108149190611034565b9150509392505050565b82805461082a90610fa3565b90600052602060002090601f01602090048101928261084c5760008555610893565b82601f1061086557805160ff1916838001178555610893565b82800160010185558215610893579182015b82811115610892578251825591602001919060010190610877565b5b5090506108a091906108a4565b5090565b5b808211156108bd5760008160009055506001016108a5565b5090565b60006108d46108cf84610e11565b610dec565b9050828152602081018484840111156108f0576108ef611126565b5b6108fb848285610f61565b509392505050565b6000813590506109128161126c565b92915050565b600082601f83011261092d5761092c611121565b5b813561093d8482602086016108c1565b91505092915050565b60008135905061095581611283565b92915050565b60006020828403121561097157610970611130565b5b600061097f84828501610903565b91505092915050565b60006020828403121561099e5761099d611130565b5b60006109ac84828501610946565b91505092915050565b600080600080608085870312156109cf576109ce611130565b5b60006109dd87828801610946565b94505060206109ee87828801610946565b93505060406109ff87828801610903565b925050606085013567ffffffffffffffff811115610a2057610a1f61112b565b5b610a2c87828801610918565b91505092959194509250565b600080600060608486031215610a5157610a50611130565b5b6000610a5f86828701610946565b9350506020610a7086828701610946565b925050604084013567ffffffffffffffff811115610a9157610a9061112b565b5b610a9d86828701610918565b9150509250925092565b610ab081610f19565b82525050565b610ac7610ac282610f19565b611006565b82525050565b610ad681610f2b565b82525050565b6000610ae782610e42565b610af18185610e4d565b9350610b01818560208601610f70565b610b0a81611135565b840191505092915050565b6000610b2082610e42565b610b2a8185610e5e565b9350610b3a818560208601610f70565b80840191505092915050565b6000610b53602683610e4d565b9150610b5e82611153565b604082019050919050565b6000610b76601483610e4d565b9150610b81826111a2565b602082019050919050565b6000610b99602083610e4d565b9150610ba4826111cb565b602082019050919050565b6000610bbc601b83610e4d565b9150610bc7826111f4565b602082019050919050565b6000610bdf602b83610e4d565b9150610bea8261121d565b604082019050919050565b610bfe81610f57565b82525050565b610c15610c1082610f57565b61102a565b82525050565b6000610c278286610ab6565b601482019150610c378285610c04565b602082019150610c478284610b15565b9150819050949350505050565b6000602082019050610c696000830184610aa7565b92915050565b60006020820190508181036000830152610c8881610b46565b9050919050565b60006020820190508181036000830152610ca881610b69565b9050919050565b60006020820190508181036000830152610cc881610b8c565b9050919050565b60006020820190508181036000830152610ce881610baf565b9050919050565b60006020820190508181036000830152610d0881610bd2565b9050919050565b6000602082019050610d246000830184610bf5565b92915050565b6000608082019050610d3f6000830187610bf5565b610d4c6020830186610aa7565b610d596040830185610bf5565b8181036060830152610d6b8184610adc565b905095945050505050565b600060e082019050610d8b600083018a610bf5565b610d986020830189610bf5565b610da56040830188610bf5565b610db26060830187610aa7565b8181036080830152610dc48186610adc565b9050610dd360a0830185610acd565b610de060c0830184610bf5565b98975050505050505050565b6000610df6610e07565b9050610e028282610fd5565b919050565b6000604051905090565b600067ffffffffffffffff821115610e2c57610e2b6110f2565b5b610e3582611135565b9050602081019050919050565b600081519050919050565b600082825260208201905092915050565b600081905092915050565b6000610e7482610f57565b9150610e7f83610f57565b9250827fffffffffffffffffffffffffffffffffffffffffffffffffffffffffffffffff03821115610eb457610eb3611065565b5b828201905092915050565b6000610eca82610f57565b9150610ed583610f57565b9250817fffffffffffffffffffffffffffffffffffffffffffffffffffffffffffffffff0483118215151615610f0e57610f0d611065565b5b828202905092915050565b6000610f2482610f37565b9050919050565b60008115159050919050565b600073ffffffffffffffffffffffffffffffffffffffff82169050919050565b6000819050919050565b82818337600083830152505050565b60005b83811015610f8e578082015181840152602081019050610f73565b83811115610f9d576000848401525b50505050565b60006002820490506001821680610fbb57607f821691505b60208210811415610fcf57610fce6110c3565b5b50919050565b610fde82611135565b810181811067ffffffffffffffff82111715610ffd57610ffc6110f2565b5b80604052505050565b600061101182611018565b9050919050565b600061102382611146565b9050919050565b6000819050919050565b600061103f82610f57565b915061104a83610f57565b92508261105a57611059611094565b5b828206905092915050565b7f4e487b7100000000000000000000000000000000000000000000000000000000600052601160045260246000fd5b7f4e487b7100000000000000000000000000000000000000000000000000000000600052601260045260246000fd5b7f4e487b7100000000000000000000000000000000000000000000000000000000600052602260045260246000fd5b7f4e487b7100000000000000000000000000000000000000000000000000000000600052604160045260246000fd5b600080fd5b600080fd5b600080fd5b600080fd5b6000601f19601f8301169050919050565b60008160601b9050919050565b7f4f776e61626c653a206e6577206f776e657220697320746865207a65726f206160008201527f6464726573730000000000000000000000000000000000000000000000000000602082015250565b7f76616c75652063616e6e6f74206265206e756c6c000000000000000000000000600082015250565b7f4f776e61626c653a2063616c6c6572206973206e6f7420746865206f776e6572600082015250565b7f7468697320686f757365496420616c7265616479206578697374730000000000600082015250565b7f596f7520646f206e6f7420686176652061636365737320746f2064656c65746560008201527f207468697320686f757365000000000000000000000000000000000000000000602082015250565b61127581610f19565b811461128057600080fd5b50565b61128c81610f57565b811461129757600080fd5b5056fea26469706673582212205cc83bae219cf6a7b86e65c612ac6881078f1879db1a406b7c564ffb192ffcbc64736f6c63430008070033",
					"opcodes": "PUSH1 0x80 PUSH1 0x40 MSTORE PUSH1 0x5 PUSH1 0x1 SSTORE PUSH1 0x1 SLOAD PUSH1 0xA PUSH3 0x1A SWAP2 SWAP1 PUSH3 0x17F JUMP JUMPDEST PUSH1 0x2 SSTORE PUSH3 0x15180 PUSH1 0x3 SSTORE CALLVALUE DUP1 ISZERO PUSH3 0x31 JUMPI PUSH1 0x0 DUP1 REVERT JUMPDEST POP PUSH3 0x52 PUSH3 0x46 PUSH3 0x58 PUSH1 0x20 SHL PUSH1 0x20 SHR JUMP JUMPDEST PUSH3 0x60 PUSH1 0x20 SHL PUSH1 0x20 SHR JUMP JUMPDEST PUSH3 0x302 JUMP JUMPDEST PUSH1 0x0 CALLER SWAP1 POP SWAP1 JUMP JUMPDEST PUSH1 0x0 DUP1 PUSH1 0x0 SWAP1 SLOAD SWAP1 PUSH2 0x100 EXP SWAP1 DIV PUSH20 0xFFFFFFFFFFFFFFFFFFFFFFFFFFFFFFFFFFFFFFFF AND SWAP1 POP DUP2 PUSH1 0x0 DUP1 PUSH2 0x100 EXP DUP2 SLOAD DUP2 PUSH20 0xFFFFFFFFFFFFFFFFFFFFFFFFFFFFFFFFFFFFFFFF MUL NOT AND SWAP1 DUP4 PUSH20 0xFFFFFFFFFFFFFFFFFFFFFFFFFFFFFFFFFFFFFFFF AND MUL OR SWAP1 SSTORE POP DUP2 PUSH20 0xFFFFFFFFFFFFFFFFFFFFFFFFFFFFFFFFFFFFFFFF AND DUP2 PUSH20 0xFFFFFFFFFFFFFFFFFFFFFFFFFFFFFFFFFFFFFFFF AND PUSH32 0x8BE0079C531659141344CD1FD0A4F28419497F9722A3DAAFE3B4186F6B6457E0 PUSH1 0x40 MLOAD PUSH1 0x40 MLOAD DUP1 SWAP2 SUB SWAP1 LOG3 POP POP JUMP JUMPDEST PUSH1 0x0 DUP1 DUP3 SWAP2 POP DUP4 SWAP1 POP JUMPDEST PUSH1 0x1 DUP6 GT ISZERO PUSH3 0x176 JUMPI DUP1 DUP7 DIV DUP2 GT ISZERO PUSH3 0x14E JUMPI PUSH3 0x14D PUSH3 0x2C6 JUMP JUMPDEST JUMPDEST PUSH1 0x1 DUP6 AND ISZERO PUSH3 0x15E JUMPI DUP1 DUP3 MUL SWAP2 POP JUMPDEST DUP1 DUP2 MUL SWAP1 POP PUSH3 0x16E DUP6 PUSH3 0x2F5 JUMP JUMPDEST SWAP5 POP PUSH3 0x12E JUMP JUMPDEST SWAP5 POP SWAP5 SWAP3 POP POP POP JUMP JUMPDEST PUSH1 0x0 PUSH3 0x18C DUP3 PUSH3 0x2BC JUMP JUMPDEST SWAP2 POP PUSH3 0x199 DUP4 PUSH3 0x2BC JUMP JUMPDEST SWAP3 POP PUSH3 0x1C8 PUSH32 0xFFFFFFFFFFFFFFFFFFFFFFFFFFFFFFFFFFFFFFFFFFFFFFFFFFFFFFFFFFFFFFFF DUP5 DUP5 PUSH3 0x1D0 JUMP JUMPDEST SWAP1 POP SWAP3 SWAP2 POP POP JUMP JUMPDEST PUSH1 0x0 DUP3 PUSH3 0x1E2 JUMPI PUSH1 0x1 SWAP1 POP PUSH3 0x2B5 JUMP JUMPDEST DUP2 PUSH3 0x1F2 JUMPI PUSH1 0x0 SWAP1 POP PUSH3 0x2B5 JUMP JUMPDEST DUP2 PUSH1 0x1 DUP2 EQ PUSH3 0x20B JUMPI PUSH1 0x2 DUP2 EQ PUSH3 0x216 JUMPI PUSH3 0x24C JUMP JUMPDEST PUSH1 0x1 SWAP2 POP POP PUSH3 0x2B5 JUMP JUMPDEST PUSH1 0xFF DUP5 GT ISZERO PUSH3 0x22B JUMPI PUSH3 0x22A PUSH3 0x2C6 JUMP JUMPDEST JUMPDEST DUP4 PUSH1 0x2 EXP SWAP2 POP DUP5 DUP3 GT ISZERO PUSH3 0x245 JUMPI PUSH3 0x244 PUSH3 0x2C6 JUMP JUMPDEST JUMPDEST POP PUSH3 0x2B5 JUMP JUMPDEST POP PUSH1 0x20 DUP4 LT PUSH2 0x133 DUP4 LT AND PUSH1 0x4E DUP5 LT PUSH1 0xB DUP5 LT AND OR ISZERO PUSH3 0x286 JUMPI DUP3 DUP3 EXP SWAP1 POP DUP4 DUP2 GT ISZERO PUSH3 0x280 JUMPI PUSH3 0x27F PUSH3 0x2C6 JUMP JUMPDEST JUMPDEST PUSH3 0x2B5 JUMP JUMPDEST PUSH3 0x295 DUP5 DUP5 DUP5 PUSH1 0x1 PUSH3 0x124 JUMP JUMPDEST SWAP3 POP SWAP1 POP DUP2 DUP5 DIV DUP2 GT ISZERO PUSH3 0x2AF JUMPI PUSH3 0x2AE PUSH3 0x2C6 JUMP JUMPDEST JUMPDEST DUP2 DUP2 MUL SWAP1 POP JUMPDEST SWAP4 SWAP3 POP POP POP JUMP JUMPDEST PUSH1 0x0 DUP2 SWAP1 POP SWAP2 SWAP1 POP JUMP JUMPDEST PUSH32 0x4E487B7100000000000000000000000000000000000000000000000000000000 PUSH1 0x0 MSTORE PUSH1 0x11 PUSH1 0x4 MSTORE PUSH1 0x24 PUSH1 0x0 REVERT JUMPDEST PUSH1 0x0 DUP2 PUSH1 0x1 SHR SWAP1 POP SWAP2 SWAP1 POP JUMP JUMPDEST PUSH2 0x12D0 DUP1 PUSH3 0x312 PUSH1 0x0 CODECOPY PUSH1 0x0 RETURN INVALID PUSH1 0x80 PUSH1 0x40 MSTORE CALLVALUE DUP1 ISZERO PUSH2 0x10 JUMPI PUSH1 0x0 DUP1 REVERT JUMPDEST POP PUSH1 0x4 CALLDATASIZE LT PUSH2 0x7D JUMPI PUSH1 0x0 CALLDATALOAD PUSH1 0xE0 SHR DUP1 PUSH4 0x91BFE0D4 GT PUSH2 0x5B JUMPI DUP1 PUSH4 0x91BFE0D4 EQ PUSH2 0xC6 JUMPI DUP1 PUSH4 0xAEDA852F EQ PUSH2 0xF6 JUMPI DUP1 PUSH4 0xBE40A73E EQ PUSH2 0x12C JUMPI DUP1 PUSH4 0xF2FDE38B EQ PUSH2 0x148 JUMPI PUSH2 0x7D JUMP JUMPDEST DUP1 PUSH4 0x3C3B0B4A EQ PUSH2 0x82 JUMPI DUP1 PUSH4 0x715018A6 EQ PUSH2 0x9E JUMPI DUP1 PUSH4 0x8DA5CB5B EQ PUSH2 0xA8 JUMPI JUMPDEST PUSH1 0x0 DUP1 REVERT JUMPDEST PUSH2 0x9C PUSH1 0x4 DUP1 CALLDATASIZE SUB DUP2 ADD SWAP1 PUSH2 0x97 SWAP2 SWAP1 PUSH2 0x988 JUMP JUMPDEST PUSH2 0x164 JUMP JUMPDEST STOP JUMPDEST PUSH2 0xA6 PUSH2 0x23A JUMP JUMPDEST STOP JUMPDEST PUSH2 0xB0 PUSH2 0x2C2 JUMP JUMPDEST PUSH1 0x40 MLOAD PUSH2 0xBD SWAP2 SWAP1 PUSH2 0xC54 JUMP JUMPDEST PUSH1 0x40 MLOAD DUP1 SWAP2 SUB SWAP1 RETURN JUMPDEST PUSH2 0xE0 PUSH1 0x4 DUP1 CALLDATASIZE SUB DUP2 ADD SWAP1 PUSH2 0xDB SWAP2 SWAP1 PUSH2 0x9B5 JUMP JUMPDEST PUSH2 0x2EB JUMP JUMPDEST PUSH1 0x40 MLOAD PUSH2 0xED SWAP2 SWAP1 PUSH2 0xD0F JUMP JUMPDEST PUSH1 0x40 MLOAD DUP1 SWAP2 SUB SWAP1 RETURN JUMPDEST PUSH2 0x110 PUSH1 0x4 DUP1 CALLDATASIZE SUB DUP2 ADD SWAP1 PUSH2 0x10B SWAP2 SWAP1 PUSH2 0x988 JUMP JUMPDEST PUSH2 0x506 JUMP JUMPDEST PUSH1 0x40 MLOAD PUSH2 0x123 SWAP8 SWAP7 SWAP6 SWAP5 SWAP4 SWAP3 SWAP2 SWAP1 PUSH2 0xD76 JUMP JUMPDEST PUSH1 0x40 MLOAD DUP1 SWAP2 SUB SWAP1 RETURN JUMPDEST PUSH2 0x146 PUSH1 0x4 DUP1 CALLDATASIZE SUB DUP2 ADD SWAP1 PUSH2 0x141 SWAP2 SWAP1 PUSH2 0xA38 JUMP JUMPDEST PUSH2 0x5FD JUMP JUMPDEST STOP JUMPDEST PUSH2 0x162 PUSH1 0x4 DUP1 CALLDATASIZE SUB DUP2 ADD SWAP1 PUSH2 0x15D SWAP2 SWAP1 PUSH2 0x95B JUMP JUMPDEST PUSH2 0x60F JUMP JUMPDEST STOP JUMPDEST CALLER PUSH20 0xFFFFFFFFFFFFFFFFFFFFFFFFFFFFFFFFFFFFFFFF AND PUSH1 0x4 PUSH1 0x0 DUP4 DUP2 MSTORE PUSH1 0x20 ADD SWAP1 DUP2 MSTORE PUSH1 0x20 ADD PUSH1 0x0 KECCAK256 PUSH1 0x3 ADD PUSH1 0x0 SWAP1 SLOAD SWAP1 PUSH2 0x100 EXP SWAP1 DIV PUSH20 0xFFFFFFFFFFFFFFFFFFFFFFFFFFFFFFFFFFFFFFFF AND PUSH20 0xFFFFFFFFFFFFFFFFFFFFFFFFFFFFFFFFFFFFFFFF AND EQ PUSH2 0x208 JUMPI PUSH1 0x40 MLOAD PUSH32 0x8C379A000000000000000000000000000000000000000000000000000000000 DUP2 MSTORE PUSH1 0x4 ADD PUSH2 0x1FF SWAP1 PUSH2 0xCEF JUMP JUMPDEST PUSH1 0x40 MLOAD DUP1 SWAP2 SUB SWAP1 REVERT JUMPDEST PUSH1 0x1 PUSH1 0x4 PUSH1 0x0 DUP4 DUP2 MSTORE PUSH1 0x20 ADD SWAP1 DUP2 MSTORE PUSH1 0x20 ADD PUSH1 0x0 KECCAK256 PUSH1 0x5 ADD PUSH1 0x0 PUSH2 0x100 EXP DUP2 SLOAD DUP2 PUSH1 0xFF MUL NOT AND SWAP1 DUP4 ISZERO ISZERO MUL OR SWAP1 SSTORE POP POP JUMP JUMPDEST PUSH2 0x242 PUSH2 0x707 JUMP JUMPDEST PUSH20 0xFFFFFFFFFFFFFFFFFFFFFFFFFFFFFFFFFFFFFFFF AND PUSH2 0x260 PUSH2 0x2C2 JUMP JUMPDEST PUSH20 0xFFFFFFFFFFFFFFFFFFFFFFFFFFFFFFFFFFFFFFFF AND EQ PUSH2 0x2B6 JUMPI PUSH1 0x40 MLOAD PUSH32 0x8C379A000000000000000000000000000000000000000000000000000000000 DUP2 MSTORE PUSH1 0x4 ADD PUSH2 0x2AD SWAP1 PUSH2 0xCAF JUMP JUMPDEST PUSH1 0x40 MLOAD DUP1 SWAP2 SUB SWAP1 REVERT JUMPDEST PUSH2 0x2C0 PUSH1 0x0 PUSH2 0x70F JUMP JUMPDEST JUMP JUMPDEST PUSH1 0x0 DUP1 PUSH1 0x0 SWAP1 SLOAD SWAP1 PUSH2 0x100 EXP SWAP1 DIV PUSH20 0xFFFFFFFFFFFFFFFFFFFFFFFFFFFFFFFFFFFFFFFF AND SWAP1 POP SWAP1 JUMP JUMPDEST PUSH1 0x0 DUP1 DUP5 DUP7 PUSH2 0x2FA SWAP2 SWAP1 PUSH2 0xEBF JUMP JUMPDEST GT PUSH2 0x33A JUMPI PUSH1 0x40 MLOAD PUSH32 0x8C379A000000000000000000000000000000000000000000000000000000000 DUP2 MSTORE PUSH1 0x4 ADD PUSH2 0x331 SWAP1 PUSH2 0xC8F JUMP JUMPDEST PUSH1 0x40 MLOAD DUP1 SWAP2 SUB SWAP1 REVERT JUMPDEST PUSH1 0x0 PUSH2 0x347 DUP5 DUP7 DUP6 PUSH2 0x7D3 JUMP JUMPDEST SWAP1 POP PUSH1 0x4 PUSH1 0x0 DUP3 DUP2 MSTORE PUSH1 0x20 ADD SWAP1 DUP2 MSTORE PUSH1 0x20 ADD PUSH1 0x0 KECCAK256 PUSH1 0x0 ADD SLOAD DUP2 EQ ISZERO PUSH2 0x3A2 JUMPI PUSH1 0x40 MLOAD PUSH32 0x8C379A000000000000000000000000000000000000000000000000000000000 DUP2 MSTORE PUSH1 0x4 ADD PUSH2 0x399 SWAP1 PUSH2 0xCCF JUMP JUMPDEST PUSH1 0x40 MLOAD DUP1 SWAP2 SUB SWAP1 REVERT JUMPDEST PUSH1 0x40 MLOAD DUP1 PUSH1 0xE0 ADD PUSH1 0x40 MSTORE DUP1 DUP3 DUP2 MSTORE PUSH1 0x20 ADD DUP8 DUP2 MSTORE PUSH1 0x20 ADD DUP7 DUP2 MSTORE PUSH1 0x20 ADD DUP6 PUSH20 0xFFFFFFFFFFFFFFFFFFFFFFFFFFFFFFFFFFFFFFFF AND DUP2 MSTORE PUSH1 0x20 ADD DUP5 DUP2 MSTORE PUSH1 0x20 ADD PUSH1 0x0 ISZERO ISZERO DUP2 MSTORE PUSH1 0x20 ADD PUSH1 0x3 SLOAD TIMESTAMP PUSH2 0x3F8 SWAP2 SWAP1 PUSH2 0xE69 JUMP JUMPDEST DUP2 MSTORE POP PUSH1 0x4 PUSH1 0x0 DUP4 DUP2 MSTORE PUSH1 0x20 ADD SWAP1 DUP2 MSTORE PUSH1 0x20 ADD PUSH1 0x0 KECCAK256 PUSH1 0x0 DUP3 ADD MLOAD DUP2 PUSH1 0x0 ADD SSTORE PUSH1 0x20 DUP3 ADD MLOAD DUP2 PUSH1 0x1 ADD SSTORE PUSH1 0x40 DUP3 ADD MLOAD DUP2 PUSH1 0x2 ADD SSTORE PUSH1 0x60 DUP3 ADD MLOAD DUP2 PUSH1 0x3 ADD PUSH1 0x0 PUSH2 0x100 EXP DUP2 SLOAD DUP2 PUSH20 0xFFFFFFFFFFFFFFFFFFFFFFFFFFFFFFFFFFFFFFFF MUL NOT AND SWAP1 DUP4 PUSH20 0xFFFFFFFFFFFFFFFFFFFFFFFFFFFFFFFFFFFFFFFF AND MUL OR SWAP1 SSTORE POP PUSH1 0x80 DUP3 ADD MLOAD DUP2 PUSH1 0x4 ADD SWAP1 DUP1 MLOAD SWAP1 PUSH1 0x20 ADD SWAP1 PUSH2 0x48F SWAP3 SWAP2 SWAP1 PUSH2 0x81E JUMP JUMPDEST POP PUSH1 0xA0 DUP3 ADD MLOAD DUP2 PUSH1 0x5 ADD PUSH1 0x0 PUSH2 0x100 EXP DUP2 SLOAD DUP2 PUSH1 0xFF MUL NOT AND SWAP1 DUP4 ISZERO ISZERO MUL OR SWAP1 SSTORE POP PUSH1 0xC0 DUP3 ADD MLOAD DUP2 PUSH1 0x6 ADD SSTORE SWAP1 POP POP PUSH32 0x8F5AFD88EB4BE0AC287D87970052CE9A2B453448408E3C91A695AD7509AB7194 DUP2 DUP6 DUP9 DUP7 PUSH1 0x40 MLOAD PUSH2 0x4F2 SWAP5 SWAP4 SWAP3 SWAP2 SWAP1 PUSH2 0xD2A JUMP JUMPDEST PUSH1 0x40 MLOAD DUP1 SWAP2 SUB SWAP1 LOG1 DUP1 SWAP2 POP POP SWAP5 SWAP4 POP POP POP POP JUMP JUMPDEST PUSH1 0x4 PUSH1 0x20 MSTORE DUP1 PUSH1 0x0 MSTORE PUSH1 0x40 PUSH1 0x0 KECCAK256 PUSH1 0x0 SWAP2 POP SWAP1 POP DUP1 PUSH1 0x0 ADD SLOAD SWAP1 DUP1 PUSH1 0x1 ADD SLOAD SWAP1 DUP1 PUSH1 0x2 ADD SLOAD SWAP1 DUP1 PUSH1 0x3 ADD PUSH1 0x0 SWAP1 SLOAD SWAP1 PUSH2 0x100 EXP SWAP1 DIV PUSH20 0xFFFFFFFFFFFFFFFFFFFFFFFFFFFFFFFFFFFFFFFF AND SWAP1 DUP1 PUSH1 0x4 ADD DUP1 SLOAD PUSH2 0x561 SWAP1 PUSH2 0xFA3 JUMP JUMPDEST DUP1 PUSH1 0x1F ADD PUSH1 0x20 DUP1 SWAP2 DIV MUL PUSH1 0x20 ADD PUSH1 0x40 MLOAD SWAP1 DUP2 ADD PUSH1 0x40 MSTORE DUP1 SWAP3 SWAP2 SWAP1 DUP2 DUP2 MSTORE PUSH1 0x20 ADD DUP3 DUP1 SLOAD PUSH2 0x58D SWAP1 PUSH2 0xFA3 JUMP JUMPDEST DUP1 ISZERO PUSH2 0x5DA JUMPI DUP1 PUSH1 0x1F LT PUSH2 0x5AF JUMPI PUSH2 0x100 DUP1 DUP4 SLOAD DIV MUL DUP4 MSTORE SWAP2 PUSH1 0x20 ADD SWAP2 PUSH2 0x5DA JUMP JUMPDEST DUP3 ADD SWAP2 SWAP1 PUSH1 0x0 MSTORE PUSH1 0x20 PUSH1 0x0 KECCAK256 SWAP1 JUMPDEST DUP2 SLOAD DUP2 MSTORE SWAP1 PUSH1 0x1 ADD SWAP1 PUSH1 0x20 ADD DUP1 DUP4 GT PUSH2 0x5BD JUMPI DUP3 SWAP1 SUB PUSH1 0x1F AND DUP3 ADD SWAP2 JUMPDEST POP POP POP POP POP SWAP1 DUP1 PUSH1 0x5 ADD PUSH1 0x0 SWAP1 SLOAD SWAP1 PUSH2 0x100 EXP SWAP1 DIV PUSH1 0xFF AND SWAP1 DUP1 PUSH1 0x6 ADD SLOAD SWAP1 POP DUP8 JUMP JUMPDEST PUSH2 0x609 DUP4 DUP4 CALLER DUP5 PUSH2 0x2EB JUMP JUMPDEST POP POP POP POP JUMP JUMPDEST PUSH2 0x617 PUSH2 0x707 JUMP JUMPDEST PUSH20 0xFFFFFFFFFFFFFFFFFFFFFFFFFFFFFFFFFFFFFFFF AND PUSH2 0x635 PUSH2 0x2C2 JUMP JUMPDEST PUSH20 0xFFFFFFFFFFFFFFFFFFFFFFFFFFFFFFFFFFFFFFFF AND EQ PUSH2 0x68B JUMPI PUSH1 0x40 MLOAD PUSH32 0x8C379A000000000000000000000000000000000000000000000000000000000 DUP2 MSTORE PUSH1 0x4 ADD PUSH2 0x682 SWAP1 PUSH2 0xCAF JUMP JUMPDEST PUSH1 0x40 MLOAD DUP1 SWAP2 SUB SWAP1 REVERT JUMPDEST PUSH1 0x0 PUSH20 0xFFFFFFFFFFFFFFFFFFFFFFFFFFFFFFFFFFFFFFFF AND DUP2 PUSH20 0xFFFFFFFFFFFFFFFFFFFFFFFFFFFFFFFFFFFFFFFF AND EQ ISZERO PUSH2 0x6FB JUMPI PUSH1 0x40 MLOAD PUSH32 0x8C379A000000000000000000000000000000000000000000000000000000000 DUP2 MSTORE PUSH1 0x4 ADD PUSH2 0x6F2 SWAP1 PUSH2 0xC6F JUMP JUMPDEST PUSH1 0x40 MLOAD DUP1 SWAP2 SUB SWAP1 REVERT JUMPDEST PUSH2 0x704 DUP2 PUSH2 0x70F JUMP JUMPDEST POP JUMP JUMPDEST PUSH1 0x0 CALLER SWAP1 POP SWAP1 JUMP JUMPDEST PUSH1 0x0 DUP1 PUSH1 0x0 SWAP1 SLOAD SWAP1 PUSH2 0x100 EXP SWAP1 DIV PUSH20 0xFFFFFFFFFFFFFFFFFFFFFFFFFFFFFFFFFFFFFFFF AND SWAP1 POP DUP2 PUSH1 0x0 DUP1 PUSH2 0x100 EXP DUP2 SLOAD DUP2 PUSH20 0xFFFFFFFFFFFFFFFFFFFFFFFFFFFFFFFFFFFFFFFF MUL NOT AND SWAP1 DUP4 PUSH20 0xFFFFFFFFFFFFFFFFFFFFFFFFFFFFFFFFFFFFFFFF AND MUL OR SWAP1 SSTORE POP DUP2 PUSH20 0xFFFFFFFFFFFFFFFFFFFFFFFFFFFFFFFFFFFFFFFF AND DUP2 PUSH20 0xFFFFFFFFFFFFFFFFFFFFFFFFFFFFFFFFFFFFFFFF AND PUSH32 0x8BE0079C531659141344CD1FD0A4F28419497F9722A3DAAFE3B4186F6B6457E0 PUSH1 0x40 MLOAD PUSH1 0x40 MLOAD DUP1 SWAP2 SUB SWAP1 LOG3 POP POP JUMP JUMPDEST PUSH1 0x0 DUP1 DUP5 DUP5 DUP5 PUSH1 0x40 MLOAD PUSH1 0x20 ADD PUSH2 0x7EB SWAP4 SWAP3 SWAP2 SWAP1 PUSH2 0xC1B JUMP JUMPDEST PUSH1 0x40 MLOAD PUSH1 0x20 DUP2 DUP4 SUB SUB DUP2 MSTORE SWAP1 PUSH1 0x40 MSTORE DUP1 MLOAD SWAP1 PUSH1 0x20 ADD KECCAK256 PUSH1 0x0 SHR SWAP1 POP PUSH1 0x2 SLOAD DUP2 PUSH2 0x814 SWAP2 SWAP1 PUSH2 0x1034 JUMP JUMPDEST SWAP2 POP POP SWAP4 SWAP3 POP POP POP JUMP JUMPDEST DUP3 DUP1 SLOAD PUSH2 0x82A SWAP1 PUSH2 0xFA3 JUMP JUMPDEST SWAP1 PUSH1 0x0 MSTORE PUSH1 0x20 PUSH1 0x0 KECCAK256 SWAP1 PUSH1 0x1F ADD PUSH1 0x20 SWAP1 DIV DUP2 ADD SWAP3 DUP3 PUSH2 0x84C JUMPI PUSH1 0x0 DUP6 SSTORE PUSH2 0x893 JUMP JUMPDEST DUP3 PUSH1 0x1F LT PUSH2 0x865 JUMPI DUP1 MLOAD PUSH1 0xFF NOT AND DUP4 DUP1 ADD OR DUP6 SSTORE PUSH2 0x893 JUMP JUMPDEST DUP3 DUP1 ADD PUSH1 0x1 ADD DUP6 SSTORE DUP3 ISZERO PUSH2 0x893 JUMPI SWAP2 DUP3 ADD JUMPDEST DUP3 DUP2 GT ISZERO PUSH2 0x892 JUMPI DUP3 MLOAD DUP3 SSTORE SWAP2 PUSH1 0x20 ADD SWAP2 SWAP1 PUSH1 0x1 ADD SWAP1 PUSH2 0x877 JUMP JUMPDEST JUMPDEST POP SWAP1 POP PUSH2 0x8A0 SWAP2 SWAP1 PUSH2 0x8A4 JUMP JUMPDEST POP SWAP1 JUMP JUMPDEST JUMPDEST DUP1 DUP3 GT ISZERO PUSH2 0x8BD JUMPI PUSH1 0x0 DUP2 PUSH1 0x0 SWAP1 SSTORE POP PUSH1 0x1 ADD PUSH2 0x8A5 JUMP JUMPDEST POP SWAP1 JUMP JUMPDEST PUSH1 0x0 PUSH2 0x8D4 PUSH2 0x8CF DUP5 PUSH2 0xE11 JUMP JUMPDEST PUSH2 0xDEC JUMP JUMPDEST SWAP1 POP DUP3 DUP2 MSTORE PUSH1 0x20 DUP2 ADD DUP5 DUP5 DUP5 ADD GT ISZERO PUSH2 0x8F0 JUMPI PUSH2 0x8EF PUSH2 0x1126 JUMP JUMPDEST JUMPDEST PUSH2 0x8FB DUP5 DUP3 DUP6 PUSH2 0xF61 JUMP JUMPDEST POP SWAP4 SWAP3 POP POP POP JUMP JUMPDEST PUSH1 0x0 DUP2 CALLDATALOAD SWAP1 POP PUSH2 0x912 DUP2 PUSH2 0x126C JUMP JUMPDEST SWAP3 SWAP2 POP POP JUMP JUMPDEST PUSH1 0x0 DUP3 PUSH1 0x1F DUP4 ADD SLT PUSH2 0x92D JUMPI PUSH2 0x92C PUSH2 0x1121 JUMP JUMPDEST JUMPDEST DUP2 CALLDATALOAD PUSH2 0x93D DUP5 DUP3 PUSH1 0x20 DUP7 ADD PUSH2 0x8C1 JUMP JUMPDEST SWAP2 POP POP SWAP3 SWAP2 POP POP JUMP JUMPDEST PUSH1 0x0 DUP2 CALLDATALOAD SWAP1 POP PUSH2 0x955 DUP2 PUSH2 0x1283 JUMP JUMPDEST SWAP3 SWAP2 POP POP JUMP JUMPDEST PUSH1 0x0 PUSH1 0x20 DUP3 DUP5 SUB SLT ISZERO PUSH2 0x971 JUMPI PUSH2 0x970 PUSH2 0x1130 JUMP JUMPDEST JUMPDEST PUSH1 0x0 PUSH2 0x97F DUP5 DUP3 DUP6 ADD PUSH2 0x903 JUMP JUMPDEST SWAP2 POP POP SWAP3 SWAP2 POP POP JUMP JUMPDEST PUSH1 0x0 PUSH1 0x20 DUP3 DUP5 SUB SLT ISZERO PUSH2 0x99E JUMPI PUSH2 0x99D PUSH2 0x1130 JUMP JUMPDEST JUMPDEST PUSH1 0x0 PUSH2 0x9AC DUP5 DUP3 DUP6 ADD PUSH2 0x946 JUMP JUMPDEST SWAP2 POP POP SWAP3 SWAP2 POP POP JUMP JUMPDEST PUSH1 0x0 DUP1 PUSH1 0x0 DUP1 PUSH1 0x80 DUP6 DUP8 SUB SLT ISZERO PUSH2 0x9CF JUMPI PUSH2 0x9CE PUSH2 0x1130 JUMP JUMPDEST JUMPDEST PUSH1 0x0 PUSH2 0x9DD DUP8 DUP3 DUP9 ADD PUSH2 0x946 JUMP JUMPDEST SWAP5 POP POP PUSH1 0x20 PUSH2 0x9EE DUP8 DUP3 DUP9 ADD PUSH2 0x946 JUMP JUMPDEST SWAP4 POP POP PUSH1 0x40 PUSH2 0x9FF DUP8 DUP3 DUP9 ADD PUSH2 0x903 JUMP JUMPDEST SWAP3 POP POP PUSH1 0x60 DUP6 ADD CALLDATALOAD PUSH8 0xFFFFFFFFFFFFFFFF DUP2 GT ISZERO PUSH2 0xA20 JUMPI PUSH2 0xA1F PUSH2 0x112B JUMP JUMPDEST JUMPDEST PUSH2 0xA2C DUP8 DUP3 DUP9 ADD PUSH2 0x918 JUMP JUMPDEST SWAP2 POP POP SWAP3 SWAP6 SWAP2 SWAP5 POP SWAP3 POP JUMP JUMPDEST PUSH1 0x0 DUP1 PUSH1 0x0 PUSH1 0x60 DUP5 DUP7 SUB SLT ISZERO PUSH2 0xA51 JUMPI PUSH2 0xA50 PUSH2 0x1130 JUMP JUMPDEST JUMPDEST PUSH1 0x0 PUSH2 0xA5F DUP7 DUP3 DUP8 ADD PUSH2 0x946 JUMP JUMPDEST SWAP4 POP POP PUSH1 0x20 PUSH2 0xA70 DUP7 DUP3 DUP8 ADD PUSH2 0x946 JUMP JUMPDEST SWAP3 POP POP PUSH1 0x40 DUP5 ADD CALLDATALOAD PUSH8 0xFFFFFFFFFFFFFFFF DUP2 GT ISZERO PUSH2 0xA91 JUMPI PUSH2 0xA90 PUSH2 0x112B JUMP JUMPDEST JUMPDEST PUSH2 0xA9D DUP7 DUP3 DUP8 ADD PUSH2 0x918 JUMP JUMPDEST SWAP2 POP POP SWAP3 POP SWAP3 POP SWAP3 JUMP JUMPDEST PUSH2 0xAB0 DUP2 PUSH2 0xF19 JUMP JUMPDEST DUP3 MSTORE POP POP JUMP JUMPDEST PUSH2 0xAC7 PUSH2 0xAC2 DUP3 PUSH2 0xF19 JUMP JUMPDEST PUSH2 0x1006 JUMP JUMPDEST DUP3 MSTORE POP POP JUMP JUMPDEST PUSH2 0xAD6 DUP2 PUSH2 0xF2B JUMP JUMPDEST DUP3 MSTORE POP POP JUMP JUMPDEST PUSH1 0x0 PUSH2 0xAE7 DUP3 PUSH2 0xE42 JUMP JUMPDEST PUSH2 0xAF1 DUP2 DUP6 PUSH2 0xE4D JUMP JUMPDEST SWAP4 POP PUSH2 0xB01 DUP2 DUP6 PUSH1 0x20 DUP7 ADD PUSH2 0xF70 JUMP JUMPDEST PUSH2 0xB0A DUP2 PUSH2 0x1135 JUMP JUMPDEST DUP5 ADD SWAP2 POP POP SWAP3 SWAP2 POP POP JUMP JUMPDEST PUSH1 0x0 PUSH2 0xB20 DUP3 PUSH2 0xE42 JUMP JUMPDEST PUSH2 0xB2A DUP2 DUP6 PUSH2 0xE5E JUMP JUMPDEST SWAP4 POP PUSH2 0xB3A DUP2 DUP6 PUSH1 0x20 DUP7 ADD PUSH2 0xF70 JUMP JUMPDEST DUP1 DUP5 ADD SWAP2 POP POP SWAP3 SWAP2 POP POP JUMP JUMPDEST PUSH1 0x0 PUSH2 0xB53 PUSH1 0x26 DUP4 PUSH2 0xE4D JUMP JUMPDEST SWAP2 POP PUSH2 0xB5E DUP3 PUSH2 0x1153 JUMP JUMPDEST PUSH1 0x40 DUP3 ADD SWAP1 POP SWAP2 SWAP1 POP JUMP JUMPDEST PUSH1 0x0 PUSH2 0xB76 PUSH1 0x14 DUP4 PUSH2 0xE4D JUMP JUMPDEST SWAP2 POP PUSH2 0xB81 DUP3 PUSH2 0x11A2 JUMP JUMPDEST PUSH1 0x20 DUP3 ADD SWAP1 POP SWAP2 SWAP1 POP JUMP JUMPDEST PUSH1 0x0 PUSH2 0xB99 PUSH1 0x20 DUP4 PUSH2 0xE4D JUMP JUMPDEST SWAP2 POP PUSH2 0xBA4 DUP3 PUSH2 0x11CB JUMP JUMPDEST PUSH1 0x20 DUP3 ADD SWAP1 POP SWAP2 SWAP1 POP JUMP JUMPDEST PUSH1 0x0 PUSH2 0xBBC PUSH1 0x1B DUP4 PUSH2 0xE4D JUMP JUMPDEST SWAP2 POP PUSH2 0xBC7 DUP3 PUSH2 0x11F4 JUMP JUMPDEST PUSH1 0x20 DUP3 ADD SWAP1 POP SWAP2 SWAP1 POP JUMP JUMPDEST PUSH1 0x0 PUSH2 0xBDF PUSH1 0x2B DUP4 PUSH2 0xE4D JUMP JUMPDEST SWAP2 POP PUSH2 0xBEA DUP3 PUSH2 0x121D JUMP JUMPDEST PUSH1 0x40 DUP3 ADD SWAP1 POP SWAP2 SWAP1 POP JUMP JUMPDEST PUSH2 0xBFE DUP2 PUSH2 0xF57 JUMP JUMPDEST DUP3 MSTORE POP POP JUMP JUMPDEST PUSH2 0xC15 PUSH2 0xC10 DUP3 PUSH2 0xF57 JUMP JUMPDEST PUSH2 0x102A JUMP JUMPDEST DUP3 MSTORE POP POP JUMP JUMPDEST PUSH1 0x0 PUSH2 0xC27 DUP3 DUP7 PUSH2 0xAB6 JUMP JUMPDEST PUSH1 0x14 DUP3 ADD SWAP2 POP PUSH2 0xC37 DUP3 DUP6 PUSH2 0xC04 JUMP JUMPDEST PUSH1 0x20 DUP3 ADD SWAP2 POP PUSH2 0xC47 DUP3 DUP5 PUSH2 0xB15 JUMP JUMPDEST SWAP2 POP DUP2 SWAP1 POP SWAP5 SWAP4 POP POP POP POP JUMP JUMPDEST PUSH1 0x0 PUSH1 0x20 DUP3 ADD SWAP1 POP PUSH2 0xC69 PUSH1 0x0 DUP4 ADD DUP5 PUSH2 0xAA7 JUMP JUMPDEST SWAP3 SWAP2 POP POP JUMP JUMPDEST PUSH1 0x0 PUSH1 0x20 DUP3 ADD SWAP1 POP DUP2 DUP2 SUB PUSH1 0x0 DUP4 ADD MSTORE PUSH2 0xC88 DUP2 PUSH2 0xB46 JUMP JUMPDEST SWAP1 POP SWAP2 SWAP1 POP JUMP JUMPDEST PUSH1 0x0 PUSH1 0x20 DUP3 ADD SWAP1 POP DUP2 DUP2 SUB PUSH1 0x0 DUP4 ADD MSTORE PUSH2 0xCA8 DUP2 PUSH2 0xB69 JUMP JUMPDEST SWAP1 POP SWAP2 SWAP1 POP JUMP JUMPDEST PUSH1 0x0 PUSH1 0x20 DUP3 ADD SWAP1 POP DUP2 DUP2 SUB PUSH1 0x0 DUP4 ADD MSTORE PUSH2 0xCC8 DUP2 PUSH2 0xB8C JUMP JUMPDEST SWAP1 POP SWAP2 SWAP1 POP JUMP JUMPDEST PUSH1 0x0 PUSH1 0x20 DUP3 ADD SWAP1 POP DUP2 DUP2 SUB PUSH1 0x0 DUP4 ADD MSTORE PUSH2 0xCE8 DUP2 PUSH2 0xBAF JUMP JUMPDEST SWAP1 POP SWAP2 SWAP1 POP JUMP JUMPDEST PUSH1 0x0 PUSH1 0x20 DUP3 ADD SWAP1 POP DUP2 DUP2 SUB PUSH1 0x0 DUP4 ADD MSTORE PUSH2 0xD08 DUP2 PUSH2 0xBD2 JUMP JUMPDEST SWAP1 POP SWAP2 SWAP1 POP JUMP JUMPDEST PUSH1 0x0 PUSH1 0x20 DUP3 ADD SWAP1 POP PUSH2 0xD24 PUSH1 0x0 DUP4 ADD DUP5 PUSH2 0xBF5 JUMP JUMPDEST SWAP3 SWAP2 POP POP JUMP JUMPDEST PUSH1 0x0 PUSH1 0x80 DUP3 ADD SWAP1 POP PUSH2 0xD3F PUSH1 0x0 DUP4 ADD DUP8 PUSH2 0xBF5 JUMP JUMPDEST PUSH2 0xD4C PUSH1 0x20 DUP4 ADD DUP7 PUSH2 0xAA7 JUMP JUMPDEST PUSH2 0xD59 PUSH1 0x40 DUP4 ADD DUP6 PUSH2 0xBF5 JUMP JUMPDEST DUP2 DUP2 SUB PUSH1 0x60 DUP4 ADD MSTORE PUSH2 0xD6B DUP2 DUP5 PUSH2 0xADC JUMP JUMPDEST SWAP1 POP SWAP6 SWAP5 POP POP POP POP POP JUMP JUMPDEST PUSH1 0x0 PUSH1 0xE0 DUP3 ADD SWAP1 POP PUSH2 0xD8B PUSH1 0x0 DUP4 ADD DUP11 PUSH2 0xBF5 JUMP JUMPDEST PUSH2 0xD98 PUSH1 0x20 DUP4 ADD DUP10 PUSH2 0xBF5 JUMP JUMPDEST PUSH2 0xDA5 PUSH1 0x40 DUP4 ADD DUP9 PUSH2 0xBF5 JUMP JUMPDEST PUSH2 0xDB2 PUSH1 0x60 DUP4 ADD DUP8 PUSH2 0xAA7 JUMP JUMPDEST DUP2 DUP2 SUB PUSH1 0x80 DUP4 ADD MSTORE PUSH2 0xDC4 DUP2 DUP7 PUSH2 0xADC JUMP JUMPDEST SWAP1 POP PUSH2 0xDD3 PUSH1 0xA0 DUP4 ADD DUP6 PUSH2 0xACD JUMP JUMPDEST PUSH2 0xDE0 PUSH1 0xC0 DUP4 ADD DUP5 PUSH2 0xBF5 JUMP JUMPDEST SWAP9 SWAP8 POP POP POP POP POP POP POP POP JUMP JUMPDEST PUSH1 0x0 PUSH2 0xDF6 PUSH2 0xE07 JUMP JUMPDEST SWAP1 POP PUSH2 0xE02 DUP3 DUP3 PUSH2 0xFD5 JUMP JUMPDEST SWAP2 SWAP1 POP JUMP JUMPDEST PUSH1 0x0 PUSH1 0x40 MLOAD SWAP1 POP SWAP1 JUMP JUMPDEST PUSH1 0x0 PUSH8 0xFFFFFFFFFFFFFFFF DUP3 GT ISZERO PUSH2 0xE2C JUMPI PUSH2 0xE2B PUSH2 0x10F2 JUMP JUMPDEST JUMPDEST PUSH2 0xE35 DUP3 PUSH2 0x1135 JUMP JUMPDEST SWAP1 POP PUSH1 0x20 DUP2 ADD SWAP1 POP SWAP2 SWAP1 POP JUMP JUMPDEST PUSH1 0x0 DUP2 MLOAD SWAP1 POP SWAP2 SWAP1 POP JUMP JUMPDEST PUSH1 0x0 DUP3 DUP3 MSTORE PUSH1 0x20 DUP3 ADD SWAP1 POP SWAP3 SWAP2 POP POP JUMP JUMPDEST PUSH1 0x0 DUP2 SWAP1 POP SWAP3 SWAP2 POP POP JUMP JUMPDEST PUSH1 0x0 PUSH2 0xE74 DUP3 PUSH2 0xF57 JUMP JUMPDEST SWAP2 POP PUSH2 0xE7F DUP4 PUSH2 0xF57 JUMP JUMPDEST SWAP3 POP DUP3 PUSH32 0xFFFFFFFFFFFFFFFFFFFFFFFFFFFFFFFFFFFFFFFFFFFFFFFFFFFFFFFFFFFFFFFF SUB DUP3 GT ISZERO PUSH2 0xEB4 JUMPI PUSH2 0xEB3 PUSH2 0x1065 JUMP JUMPDEST JUMPDEST DUP3 DUP3 ADD SWAP1 POP SWAP3 SWAP2 POP POP JUMP JUMPDEST PUSH1 0x0 PUSH2 0xECA DUP3 PUSH2 0xF57 JUMP JUMPDEST SWAP2 POP PUSH2 0xED5 DUP4 PUSH2 0xF57 JUMP JUMPDEST SWAP3 POP DUP2 PUSH32 0xFFFFFFFFFFFFFFFFFFFFFFFFFFFFFFFFFFFFFFFFFFFFFFFFFFFFFFFFFFFFFFFF DIV DUP4 GT DUP3 ISZERO ISZERO AND ISZERO PUSH2 0xF0E JUMPI PUSH2 0xF0D PUSH2 0x1065 JUMP JUMPDEST JUMPDEST DUP3 DUP3 MUL SWAP1 POP SWAP3 SWAP2 POP POP JUMP JUMPDEST PUSH1 0x0 PUSH2 0xF24 DUP3 PUSH2 0xF37 JUMP JUMPDEST SWAP1 POP SWAP2 SWAP1 POP JUMP JUMPDEST PUSH1 0x0 DUP2 ISZERO ISZERO SWAP1 POP SWAP2 SWAP1 POP JUMP JUMPDEST PUSH1 0x0 PUSH20 0xFFFFFFFFFFFFFFFFFFFFFFFFFFFFFFFFFFFFFFFF DUP3 AND SWAP1 POP SWAP2 SWAP1 POP JUMP JUMPDEST PUSH1 0x0 DUP2 SWAP1 POP SWAP2 SWAP1 POP JUMP JUMPDEST DUP3 DUP2 DUP4 CALLDATACOPY PUSH1 0x0 DUP4 DUP4 ADD MSTORE POP POP POP JUMP JUMPDEST PUSH1 0x0 JUMPDEST DUP4 DUP2 LT ISZERO PUSH2 0xF8E JUMPI DUP1 DUP3 ADD MLOAD DUP2 DUP5 ADD MSTORE PUSH1 0x20 DUP2 ADD SWAP1 POP PUSH2 0xF73 JUMP JUMPDEST DUP4 DUP2 GT ISZERO PUSH2 0xF9D JUMPI PUSH1 0x0 DUP5 DUP5 ADD MSTORE JUMPDEST POP POP POP POP JUMP JUMPDEST PUSH1 0x0 PUSH1 0x2 DUP3 DIV SWAP1 POP PUSH1 0x1 DUP3 AND DUP1 PUSH2 0xFBB JUMPI PUSH1 0x7F DUP3 AND SWAP2 POP JUMPDEST PUSH1 0x20 DUP3 LT DUP2 EQ ISZERO PUSH2 0xFCF JUMPI PUSH2 0xFCE PUSH2 0x10C3 JUMP JUMPDEST JUMPDEST POP SWAP2 SWAP1 POP JUMP JUMPDEST PUSH2 0xFDE DUP3 PUSH2 0x1135 JUMP JUMPDEST DUP2 ADD DUP2 DUP2 LT PUSH8 0xFFFFFFFFFFFFFFFF DUP3 GT OR ISZERO PUSH2 0xFFD JUMPI PUSH2 0xFFC PUSH2 0x10F2 JUMP JUMPDEST JUMPDEST DUP1 PUSH1 0x40 MSTORE POP POP POP JUMP JUMPDEST PUSH1 0x0 PUSH2 0x1011 DUP3 PUSH2 0x1018 JUMP JUMPDEST SWAP1 POP SWAP2 SWAP1 POP JUMP JUMPDEST PUSH1 0x0 PUSH2 0x1023 DUP3 PUSH2 0x1146 JUMP JUMPDEST SWAP1 POP SWAP2 SWAP1 POP JUMP JUMPDEST PUSH1 0x0 DUP2 SWAP1 POP SWAP2 SWAP1 POP JUMP JUMPDEST PUSH1 0x0 PUSH2 0x103F DUP3 PUSH2 0xF57 JUMP JUMPDEST SWAP2 POP PUSH2 0x104A DUP4 PUSH2 0xF57 JUMP JUMPDEST SWAP3 POP DUP3 PUSH2 0x105A JUMPI PUSH2 0x1059 PUSH2 0x1094 JUMP JUMPDEST JUMPDEST DUP3 DUP3 MOD SWAP1 POP SWAP3 SWAP2 POP POP JUMP JUMPDEST PUSH32 0x4E487B7100000000000000000000000000000000000000000000000000000000 PUSH1 0x0 MSTORE PUSH1 0x11 PUSH1 0x4 MSTORE PUSH1 0x24 PUSH1 0x0 REVERT JUMPDEST PUSH32 0x4E487B7100000000000000000000000000000000000000000000000000000000 PUSH1 0x0 MSTORE PUSH1 0x12 PUSH1 0x4 MSTORE PUSH1 0x24 PUSH1 0x0 REVERT JUMPDEST PUSH32 0x4E487B7100000000000000000000000000000000000000000000000000000000 PUSH1 0x0 MSTORE PUSH1 0x22 PUSH1 0x4 MSTORE PUSH1 0x24 PUSH1 0x0 REVERT JUMPDEST PUSH32 0x4E487B7100000000000000000000000000000000000000000000000000000000 PUSH1 0x0 MSTORE PUSH1 0x41 PUSH1 0x4 MSTORE PUSH1 0x24 PUSH1 0x0 REVERT JUMPDEST PUSH1 0x0 DUP1 REVERT JUMPDEST PUSH1 0x0 DUP1 REVERT JUMPDEST PUSH1 0x0 DUP1 REVERT JUMPDEST PUSH1 0x0 DUP1 REVERT JUMPDEST PUSH1 0x0 PUSH1 0x1F NOT PUSH1 0x1F DUP4 ADD AND SWAP1 POP SWAP2 SWAP1 POP JUMP JUMPDEST PUSH1 0x0 DUP2 PUSH1 0x60 SHL SWAP1 POP SWAP2 SWAP1 POP JUMP JUMPDEST PUSH32 0x4F776E61626C653A206E6577206F776E657220697320746865207A65726F2061 PUSH1 0x0 DUP3 ADD MSTORE PUSH32 0x6464726573730000000000000000000000000000000000000000000000000000 PUSH1 0x20 DUP3 ADD MSTORE POP JUMP JUMPDEST PUSH32 0x76616C75652063616E6E6F74206265206E756C6C000000000000000000000000 PUSH1 0x0 DUP3 ADD MSTORE POP JUMP JUMPDEST PUSH32 0x4F776E61626C653A2063616C6C6572206973206E6F7420746865206F776E6572 PUSH1 0x0 DUP3 ADD MSTORE POP JUMP JUMPDEST PUSH32 0x7468697320686F757365496420616C7265616479206578697374730000000000 PUSH1 0x0 DUP3 ADD MSTORE POP JUMP JUMPDEST PUSH32 0x596F7520646F206E6F7420686176652061636365737320746F2064656C657465 PUSH1 0x0 DUP3 ADD MSTORE PUSH32 0x207468697320686F757365000000000000000000000000000000000000000000 PUSH1 0x20 DUP3 ADD MSTORE POP JUMP JUMPDEST PUSH2 0x1275 DUP2 PUSH2 0xF19 JUMP JUMPDEST DUP2 EQ PUSH2 0x1280 JUMPI PUSH1 0x0 DUP1 REVERT JUMPDEST POP JUMP JUMPDEST PUSH2 0x128C DUP2 PUSH2 0xF57 JUMP JUMPDEST DUP2 EQ PUSH2 0x1297 JUMPI PUSH1 0x0 DUP1 REVERT JUMPDEST POP JUMP INVALID LOG2 PUSH5 0x6970667358 0x22 SLT KECCAK256 0x5C 0xC8 EXTCODESIZE 0xAE 0x21 SWAP13 0xF6 0xA7 0xB8 PUSH15 0x65C612AC6881078F1879DB1A406B7C JUMP 0x4F 0xFB NOT 0x2F 0xFC 0xBC PUSH5 0x736F6C6343 STOP ADDMOD SMOD STOP CALLER "
				},
				"gasEstimates": {
					"creation": {
						"codeDepositCost": "963200",
						"executionCost": "infinite",
						"totalCost": "infinite"
					},
					"external": {
						"delistHouse(uint256)": "27012",
						"houses(uint256)": "infinite",
						"listHouse(uint256,uint256,address,string)": "infinite",
						"listHouseSimple(uint256,uint256,string)": "infinite",
						"owner()": "2567",
						"renounceOwnership()": "30397",
						"transferOwnership(address)": "30789"
					}
				},
				"methodIdentifiers": {
					"delistHouse(uint256)": "3c3b0b4a",
					"houses(uint256)": "aeda852f",
					"listHouse(uint256,uint256,address,string)": "91bfe0d4",
					"listHouseSimple(uint256,uint256,string)": "be40a73e",
					"owner()": "8da5cb5b",
					"renounceOwnership()": "715018a6",
					"transferOwnership(address)": "f2fde38b"
				}
			},
			"storageLayout": {
				"storage": [
					{
						"astId": 199,
						"contract": "contract/HouseRegistryExt.sol:HouseRegistryExt",
						"label": "_owner",
						"offset": 0,
						"slot": "0",
						"type": "t_address"
					},
					{
						"astId": 7,
						"contract": "contract/HouseRegistryExt.sol:HouseRegistryExt",
						"label": "digits",
						"offset": 0,
						"slot": "1",
						"type": "t_uint256"
					},
					{
						"astId": 12,
						"contract": "contract/HouseRegistryExt.sol:HouseRegistryExt",
						"label": "modulus",
						"offset": 0,
						"slot": "2",
						"type": "t_uint256"
					},
					{
						"astId": 15,
						"contract": "contract/HouseRegistryExt.sol:HouseRegistryExt",
						"label": "cooldownTime",
						"offset": 0,
						"slot": "3",
						"type": "t_uint256"
					},
					{
						"astId": 45,
						"contract": "contract/HouseRegistryExt.sol:HouseRegistryExt",
						"label": "houses",
						"offset": 0,
						"slot": "4",
						"type": "t_mapping(t_uint256,t_struct(House)30_storage)"
					}
				],
				"types": {
					"t_address": {
						"encoding": "inplace",
						"label": "address",
						"numberOfBytes": "20"
					},
					"t_bool": {
						"encoding": "inplace",
						"label": "bool",
						"numberOfBytes": "1"
					},
					"t_mapping(t_uint256,t_struct(House)30_storage)": {
						"encoding": "mapping",
						"key": "t_uint256",
						"label": "mapping(uint256 => struct HouseRegistry.House)",
						"numberOfBytes": "32",
						"value": "t_struct(House)30_storage"
					},
					"t_string_storage": {
						"encoding": "bytes",
						"label": "string",
						"numberOfBytes": "32"
					},
					"t_struct(House)30_storage": {
						"encoding": "inplace",
						"label": "struct HouseRegistry.House",
						"members": [
							{
								"astId": 17,
								"contract": "contract/HouseRegistryExt.sol:HouseRegistryExt",
								"label": "id",
								"offset": 0,
								"slot": "0",
								"type": "t_uint256"
							},
							{
								"astId": 19,
								"contract": "contract/HouseRegistryExt.sol:HouseRegistryExt",
								"label": "price",
								"offset": 0,
								"slot": "1",
								"type": "t_uint256"
							},
							{
								"astId": 21,
								"contract": "contract/HouseRegistryExt.sol:HouseRegistryExt",
								"label": "area",
								"offset": 0,
								"slot": "2",
								"type": "t_uint256"
							},
							{
								"astId": 23,
								"contract": "contract/HouseRegistryExt.sol:HouseRegistryExt",
								"label": "sellerAddress",
								"offset": 0,
								"slot": "3",
								"type": "t_address"
							},
							{
								"astId": 25,
								"contract": "contract/HouseRegistryExt.sol:HouseRegistryExt",
								"label": "houseAddress",
								"offset": 0,
								"slot": "4",
								"type": "t_string_storage"
							},
							{
								"astId": 27,
								"contract": "contract/HouseRegistryExt.sol:HouseRegistryExt",
								"label": "isdelistedHouse",
								"offset": 0,
								"slot": "5",
								"type": "t_bool"
							},
							{
								"astId": 29,
								"contract": "contract/HouseRegistryExt.sol:HouseRegistryExt",
								"label": "readyTime",
								"offset": 0,
								"slot": "6",
								"type": "t_uint256"
							}
						],
						"numberOfBytes": "224"
					},
					"t_uint256": {
						"encoding": "inplace",
						"label": "uint256",
						"numberOfBytes": "32"
					}
				}
			},
			"userdoc": {
				"kind": "user",
				"methods": {},
				"version": 1
			}
		}
	}
}