{
	"contract/HouseRegistryExt.sol": {
		"HouseRegistryExt": {
			"abi": [
				{
					"anonymous": false,
					"inputs": [
						{
							"indexed": false,
							"internalType": "uint256",
							"name": "houseId",
							"type": "uint256"
						},
						{
							"indexed": false,
							"internalType": "address",
							"name": "_sellerAddress",
							"type": "address"
						},
						{
							"indexed": false,
							"internalType": "uint256",
							"name": "price",
							"type": "uint256"
						},
						{
							"indexed": false,
							"internalType": "string",
							"name": "houseAddress",
							"type": "string"
						}
					],
					"name": "AddNewHouse",
					"type": "event"
				},
				{
					"anonymous": false,
					"inputs": [
						{
							"indexed": true,
							"internalType": "address",
							"name": "previousOwner",
							"type": "address"
						},
						{
							"indexed": true,
							"internalType": "address",
							"name": "newOwner",
							"type": "address"
						}
					],
					"name": "OwnershipTransferred",
					"type": "event"
				},
				{
					"inputs": [
						{
							"internalType": "uint256",
							"name": "houseId",
							"type": "uint256"
						}
					],
					"name": "delistHouse",
					"outputs": [],
					"stateMutability": "nonpayable",
					"type": "function"
				},
				{
					"inputs": [
						{
							"internalType": "uint256",
							"name": "",
							"type": "uint256"
						}
					],
					"name": "houses",
					"outputs": [
						{
							"internalType": "uint256",
							"name": "id",
							"type": "uint256"
						},
						{
							"internalType": "uint256",
							"name": "price",
							"type": "uint256"
						},
						{
							"internalType": "uint256",
							"name": "area",
							"type": "uint256"
						},
						{
							"internalType": "address",
							"name": "sellerAddress",
							"type": "address"
						},
						{
							"internalType": "string",
							"name": "houseAddress",
							"type": "string"
						},
						{
							"internalType": "bool",
							"name": "isdelistedHouse",
							"type": "bool"
						}
					],
					"stateMutability": "view",
					"type": "function"
				},
				{
					"inputs": [
						{
							"internalType": "uint256",
							"name": "_price",
							"type": "uint256"
						},
						{
							"internalType": "uint256",
							"name": "_area",
							"type": "uint256"
						},
						{
							"internalType": "address",
							"name": "_sellerAddress",
							"type": "address"
						},
						{
							"internalType": "string",
							"name": "_houseAddress",
							"type": "string"
						}
					],
					"name": "listHouse",
					"outputs": [
						{
							"internalType": "uint256",
							"name": "",
							"type": "uint256"
						}
					],
					"stateMutability": "nonpayable",
					"type": "function"
				},
				{
					"inputs": [
						{
							"internalType": "uint256",
							"name": "_price",
							"type": "uint256"
						},
						{
							"internalType": "uint256",
							"name": "_area",
							"type": "uint256"
						},
						{
							"internalType": "string",
							"name": "_houseAddress",
							"type": "string"
						}
					],
					"name": "listHouseSimple",
					"outputs": [],
					"stateMutability": "nonpayable",
					"type": "function"
				},
				{
					"inputs": [],
					"name": "owner",
					"outputs": [
						{
							"internalType": "address",
							"name": "",
							"type": "address"
						}
					],
					"stateMutability": "view",
					"type": "function"
				},
				{
					"inputs": [],
					"name": "renounceOwnership",
					"outputs": [],
					"stateMutability": "nonpayable",
					"type": "function"
				},
				{
					"inputs": [
						{
							"internalType": "address",
							"name": "newOwner",
							"type": "address"
						}
					],
					"name": "transferOwnership",
					"outputs": [],
					"stateMutability": "nonpayable",
					"type": "function"
				}
			],
			"devdoc": {
				"kind": "dev",
				"methods": {
					"owner()": {
						"details": "Returns the address of the current owner."
					},
					"renounceOwnership()": {
						"details": "Leaves the contract without owner. It will not be possible to call `onlyOwner` functions anymore. Can only be called by the current owner. NOTE: Renouncing ownership will leave the contract without an owner, thereby removing any functionality that is only available to the owner."
					},
					"transferOwnership(address)": {
						"details": "Transfers ownership of the contract to a new account (`newOwner`). Can only be called by the current owner."
					}
				},
				"version": 1
			},
			"evm": {
				"assembly": "    /* \"contract/HouseRegistryExt.sol\":99:307  contract HouseRegistryExt is HouseRegistry {\r... */\n  mstore(0x40, 0x80)\n    /* \"contract/HouseRegistry.sol\":142:143  5 */\n  0x05\n    /* \"contract/HouseRegistry.sol\":128:143  uint digits = 5 */\n  0x01\n  sstore\n    /* \"contract/HouseRegistry.sol\":170:176  digits */\n  sload(0x01)\n    /* \"contract/HouseRegistry.sol\":164:166  10 */\n  0x0a\n    /* \"contract/HouseRegistry.sol\":164:176  10 ** digits */\n  tag_1\n  swap2\n  swap1\n  tag_2\n  jump\t// in\ntag_1:\n    /* \"contract/HouseRegistry.sol\":149:176  uint modulus = 10 ** digits */\n  0x02\n  sstore\n    /* \"contract/HouseRegistryExt.sol\":99:307  contract HouseRegistryExt is HouseRegistry {\r... */\n  callvalue\n  dup1\n  iszero\n  tag_3\n  jumpi\n  0x00\n  dup1\n  revert\ntag_3:\n  pop\n    /* \"contract/Ownable.sol\":948:980  _transferOwnership(_msgSender()) */\n  tag_6\n    /* \"contract/Ownable.sol\":967:979  _msgSender() */\n  tag_7\n    /* \"contract/Ownable.sol\":967:977  _msgSender */\n  shl(0x20, tag_8)\n    /* \"contract/Ownable.sol\":967:979  _msgSender() */\n  0x20\n  shr\n  jump\t// in\ntag_7:\n    /* \"contract/Ownable.sol\":948:966  _transferOwnership */\n  shl(0x20, tag_9)\n    /* \"contract/Ownable.sol\":948:980  _transferOwnership(_msgSender()) */\n  0x20\n  shr\n  jump\t// in\ntag_6:\n    /* \"contract/HouseRegistryExt.sol\":99:307  contract HouseRegistryExt is HouseRegistry {\r... */\n  jump(tag_10)\n    /* \"contract/utils/Context.sol\":656:754  function _msgSender() internal view virtual returns (address) {\r... */\ntag_8:\n    /* \"contract/utils/Context.sol\":709:716  address */\n  0x00\n    /* \"contract/utils/Context.sol\":736:746  msg.sender */\n  caller\n    /* \"contract/utils/Context.sol\":729:746  return msg.sender */\n  swap1\n  pop\n    /* \"contract/utils/Context.sol\":656:754  function _msgSender() internal view virtual returns (address) {\r... */\n  swap1\n  jump\t// out\n    /* \"contract/Ownable.sol\":2339:2530  function _transferOwnership(address newOwner) internal virtual {\r... */\ntag_9:\n    /* \"contract/Ownable.sol\":2413:2429  address oldOwner */\n  0x00\n    /* \"contract/Ownable.sol\":2432:2438  _owner */\n  dup1\n  0x00\n  swap1\n  sload\n  swap1\n  0x0100\n  exp\n  swap1\n  div\n  0xffffffffffffffffffffffffffffffffffffffff\n  and\n    /* \"contract/Ownable.sol\":2413:2438  address oldOwner = _owner */\n  swap1\n  pop\n    /* \"contract/Ownable.sol\":2458:2466  newOwner */\n  dup2\n    /* \"contract/Ownable.sol\":2449:2455  _owner */\n  0x00\n  dup1\n    /* \"contract/Ownable.sol\":2449:2466  _owner = newOwner */\n  0x0100\n  exp\n  dup2\n  sload\n  dup2\n  0xffffffffffffffffffffffffffffffffffffffff\n  mul\n  not\n  and\n  swap1\n  dup4\n  0xffffffffffffffffffffffffffffffffffffffff\n  and\n  mul\n  or\n  swap1\n  sstore\n  pop\n    /* \"contract/Ownable.sol\":2513:2521  newOwner */\n  dup2\n    /* \"contract/Ownable.sol\":2482:2522  OwnershipTransferred(oldOwner, newOwner) */\n  0xffffffffffffffffffffffffffffffffffffffff\n  and\n    /* \"contract/Ownable.sol\":2503:2511  oldOwner */\n  dup2\n    /* \"contract/Ownable.sol\":2482:2522  OwnershipTransferred(oldOwner, newOwner) */\n  0xffffffffffffffffffffffffffffffffffffffff\n  and\n  0x8be0079c531659141344cd1fd0a4f28419497f9722a3daafe3b4186f6b6457e0\n  mload(0x40)\n  mload(0x40)\n  dup1\n  swap2\n  sub\n  swap1\n  log3\n    /* \"contract/Ownable.sol\":2402:2530  {\r... */\n  pop\n    /* \"contract/Ownable.sol\":2339:2530  function _transferOwnership(address newOwner) internal virtual {\r... */\n  pop\n  jump\t// out\n    /* \"#utility.yul\":7:855   */\ntag_14:\n    /* \"#utility.yul\":68:73   */\n  0x00\n    /* \"#utility.yul\":75:79   */\n  dup1\n    /* \"#utility.yul\":99:105   */\n  dup3\n    /* \"#utility.yul\":90:105   */\n  swap2\n  pop\n    /* \"#utility.yul\":123:128   */\n  dup4\n    /* \"#utility.yul\":114:128   */\n  swap1\n  pop\n    /* \"#utility.yul\":137:849   */\ntag_16:\n    /* \"#utility.yul\":158:159   */\n  0x01\n    /* \"#utility.yul\":148:156   */\n  dup6\n    /* \"#utility.yul\":145:160   */\n  gt\n    /* \"#utility.yul\":137:849   */\n  iszero\n  tag_18\n  jumpi\n    /* \"#utility.yul\":253:257   */\n  dup1\n    /* \"#utility.yul\":248:251   */\n  dup7\n    /* \"#utility.yul\":244:258   */\n  div\n    /* \"#utility.yul\":238:242   */\n  dup2\n    /* \"#utility.yul\":235:259   */\n  gt\n    /* \"#utility.yul\":232:282   */\n  iszero\n  tag_19\n  jumpi\n    /* \"#utility.yul\":262:280   */\n  tag_20\n  tag_21\n  jump\t// in\ntag_20:\n    /* \"#utility.yul\":232:282   */\ntag_19:\n    /* \"#utility.yul\":312:313   */\n  0x01\n    /* \"#utility.yul\":302:310   */\n  dup6\n    /* \"#utility.yul\":298:314   */\n  and\n    /* \"#utility.yul\":295:746   */\n  iszero\n  tag_22\n  jumpi\n    /* \"#utility.yul\":727:731   */\n  dup1\n    /* \"#utility.yul\":720:725   */\n  dup3\n    /* \"#utility.yul\":716:732   */\n  mul\n    /* \"#utility.yul\":707:732   */\n  swap2\n  pop\n    /* \"#utility.yul\":295:746   */\ntag_22:\n    /* \"#utility.yul\":777:781   */\n  dup1\n    /* \"#utility.yul\":771:775   */\n  dup2\n    /* \"#utility.yul\":767:782   */\n  mul\n    /* \"#utility.yul\":759:782   */\n  swap1\n  pop\n    /* \"#utility.yul\":807:839   */\n  tag_23\n    /* \"#utility.yul\":830:838   */\n  dup6\n    /* \"#utility.yul\":807:839   */\n  tag_24\n  jump\t// in\ntag_23:\n    /* \"#utility.yul\":795:839   */\n  swap5\n  pop\n    /* \"#utility.yul\":137:849   */\n  jump(tag_16)\ntag_18:\n    /* \"#utility.yul\":7:855   */\n  swap5\n  pop\n  swap5\n  swap3\n  pop\n  pop\n  pop\n  jump\t// out\n    /* \"#utility.yul\":861:1146   */\ntag_2:\n    /* \"#utility.yul\":921:926   */\n  0x00\n    /* \"#utility.yul\":945:968   */\n  tag_26\n    /* \"#utility.yul\":963:967   */\n  dup3\n    /* \"#utility.yul\":945:968   */\n  tag_27\n  jump\t// in\ntag_26:\n    /* \"#utility.yul\":937:968   */\n  swap2\n  pop\n    /* \"#utility.yul\":989:1016   */\n  tag_28\n    /* \"#utility.yul\":1007:1015   */\n  dup4\n    /* \"#utility.yul\":989:1016   */\n  tag_27\n  jump\t// in\ntag_28:\n    /* \"#utility.yul\":977:1016   */\n  swap3\n  pop\n    /* \"#utility.yul\":1035:1139   */\n  tag_29\n    /* \"#utility.yul\":1072:1138   */\n  0xffffffffffffffffffffffffffffffffffffffffffffffffffffffffffffffff\n    /* \"#utility.yul\":1062:1070   */\n  dup5\n    /* \"#utility.yul\":1056:1060   */\n  dup5\n    /* \"#utility.yul\":1035:1139   */\n  tag_30\n  jump\t// in\ntag_29:\n    /* \"#utility.yul\":1026:1139   */\n  swap1\n  pop\n    /* \"#utility.yul\":861:1146   */\n  swap3\n  swap2\n  pop\n  pop\n  jump\t// out\n    /* \"#utility.yul\":1152:2225   */\ntag_30:\n    /* \"#utility.yul\":1206:1211   */\n  0x00\n    /* \"#utility.yul\":1397:1405   */\n  dup3\n    /* \"#utility.yul\":1387:1427   */\n  tag_32\n  jumpi\n    /* \"#utility.yul\":1418:1419   */\n  0x01\n    /* \"#utility.yul\":1409:1419   */\n  swap1\n  pop\n    /* \"#utility.yul\":1420:1425   */\n  jump(tag_31)\n    /* \"#utility.yul\":1387:1427   */\ntag_32:\n    /* \"#utility.yul\":1446:1450   */\n  dup2\n    /* \"#utility.yul\":1436:1472   */\n  tag_33\n  jumpi\n    /* \"#utility.yul\":1463:1464   */\n  0x00\n    /* \"#utility.yul\":1454:1464   */\n  swap1\n  pop\n    /* \"#utility.yul\":1465:1470   */\n  jump(tag_31)\n    /* \"#utility.yul\":1436:1472   */\ntag_33:\n    /* \"#utility.yul\":1532:1536   */\n  dup2\n    /* \"#utility.yul\":1580:1581   */\n  0x01\n    /* \"#utility.yul\":1575:1602   */\n  dup2\n  eq\n  tag_35\n  jumpi\n    /* \"#utility.yul\":1616:1617   */\n  0x02\n    /* \"#utility.yul\":1611:1802   */\n  dup2\n  eq\n  tag_36\n  jumpi\n    /* \"#utility.yul\":1525:1802   */\n  jump(tag_34)\n    /* \"#utility.yul\":1575:1602   */\ntag_35:\n    /* \"#utility.yul\":1593:1594   */\n  0x01\n    /* \"#utility.yul\":1584:1594   */\n  swap2\n  pop\n    /* \"#utility.yul\":1595:1600   */\n  pop\n  jump(tag_31)\n    /* \"#utility.yul\":1611:1802   */\ntag_36:\n    /* \"#utility.yul\":1656:1659   */\n  0xff\n    /* \"#utility.yul\":1646:1654   */\n  dup5\n    /* \"#utility.yul\":1643:1660   */\n  gt\n    /* \"#utility.yul\":1640:1683   */\n  iszero\n  tag_37\n  jumpi\n    /* \"#utility.yul\":1663:1681   */\n  tag_38\n  tag_21\n  jump\t// in\ntag_38:\n    /* \"#utility.yul\":1640:1683   */\ntag_37:\n    /* \"#utility.yul\":1712:1720   */\n  dup4\n    /* \"#utility.yul\":1709:1710   */\n  0x02\n    /* \"#utility.yul\":1705:1721   */\n  exp\n    /* \"#utility.yul\":1696:1721   */\n  swap2\n  pop\n    /* \"#utility.yul\":1747:1750   */\n  dup5\n    /* \"#utility.yul\":1740:1745   */\n  dup3\n    /* \"#utility.yul\":1737:1751   */\n  gt\n    /* \"#utility.yul\":1734:1774   */\n  iszero\n  tag_39\n  jumpi\n    /* \"#utility.yul\":1754:1772   */\n  tag_40\n  tag_21\n  jump\t// in\ntag_40:\n    /* \"#utility.yul\":1734:1774   */\ntag_39:\n    /* \"#utility.yul\":1787:1792   */\n  pop\n  jump(tag_31)\n    /* \"#utility.yul\":1525:1802   */\ntag_34:\n  pop\n    /* \"#utility.yul\":1911:1913   */\n  0x20\n    /* \"#utility.yul\":1901:1909   */\n  dup4\n    /* \"#utility.yul\":1898:1914   */\n  lt\n    /* \"#utility.yul\":1892:1895   */\n  0x0133\n    /* \"#utility.yul\":1886:1890   */\n  dup4\n    /* \"#utility.yul\":1883:1896   */\n  lt\n    /* \"#utility.yul\":1879:1915   */\n  and\n    /* \"#utility.yul\":1861:1863   */\n  0x4e\n    /* \"#utility.yul\":1851:1859   */\n  dup5\n    /* \"#utility.yul\":1848:1864   */\n  lt\n    /* \"#utility.yul\":1843:1845   */\n  0x0b\n    /* \"#utility.yul\":1837:1841   */\n  dup5\n    /* \"#utility.yul\":1834:1846   */\n  lt\n    /* \"#utility.yul\":1830:1865   */\n  and\n    /* \"#utility.yul\":1814:1925   */\n  or\n    /* \"#utility.yul\":1811:2057   */\n  iszero\n  tag_41\n  jumpi\n    /* \"#utility.yul\":1967:1975   */\n  dup3\n    /* \"#utility.yul\":1961:1965   */\n  dup3\n    /* \"#utility.yul\":1957:1976   */\n  exp\n    /* \"#utility.yul\":1948:1976   */\n  swap1\n  pop\n    /* \"#utility.yul\":2002:2005   */\n  dup4\n    /* \"#utility.yul\":1995:2000   */\n  dup2\n    /* \"#utility.yul\":1992:2006   */\n  gt\n    /* \"#utility.yul\":1989:2029   */\n  iszero\n  tag_42\n  jumpi\n    /* \"#utility.yul\":2009:2027   */\n  tag_43\n  tag_21\n  jump\t// in\ntag_43:\n    /* \"#utility.yul\":1989:2029   */\ntag_42:\n    /* \"#utility.yul\":2042:2047   */\n  jump(tag_31)\n    /* \"#utility.yul\":1811:2057   */\ntag_41:\n    /* \"#utility.yul\":2082:2124   */\n  tag_44\n    /* \"#utility.yul\":2120:2123   */\n  dup5\n    /* \"#utility.yul\":2110:2118   */\n  dup5\n    /* \"#utility.yul\":2104:2108   */\n  dup5\n    /* \"#utility.yul\":2101:2102   */\n  0x01\n    /* \"#utility.yul\":2082:2124   */\n  tag_14\n  jump\t// in\ntag_44:\n    /* \"#utility.yul\":2067:2124   */\n  swap3\n  pop\n  swap1\n  pop\n    /* \"#utility.yul\":2156:2160   */\n  dup2\n    /* \"#utility.yul\":2151:2154   */\n  dup5\n    /* \"#utility.yul\":2147:2161   */\n  div\n    /* \"#utility.yul\":2140:2145   */\n  dup2\n    /* \"#utility.yul\":2137:2162   */\n  gt\n    /* \"#utility.yul\":2134:2185   */\n  iszero\n  tag_45\n  jumpi\n    /* \"#utility.yul\":2165:2183   */\n  tag_46\n  tag_21\n  jump\t// in\ntag_46:\n    /* \"#utility.yul\":2134:2185   */\ntag_45:\n    /* \"#utility.yul\":2214:2218   */\n  dup2\n    /* \"#utility.yul\":2207:2212   */\n  dup2\n    /* \"#utility.yul\":2203:2219   */\n  mul\n    /* \"#utility.yul\":2194:2219   */\n  swap1\n  pop\n    /* \"#utility.yul\":1152:2225   */\ntag_31:\n  swap4\n  swap3\n  pop\n  pop\n  pop\n  jump\t// out\n    /* \"#utility.yul\":2231:2308   */\ntag_27:\n    /* \"#utility.yul\":2268:2275   */\n  0x00\n    /* \"#utility.yul\":2297:2302   */\n  dup2\n    /* \"#utility.yul\":2286:2302   */\n  swap1\n  pop\n    /* \"#utility.yul\":2231:2308   */\n  swap2\n  swap1\n  pop\n  jump\t// out\n    /* \"#utility.yul\":2314:2494   */\ntag_21:\n    /* \"#utility.yul\":2362:2439   */\n  0x4e487b7100000000000000000000000000000000000000000000000000000000\n    /* \"#utility.yul\":2359:2360   */\n  0x00\n    /* \"#utility.yul\":2352:2440   */\n  mstore\n    /* \"#utility.yul\":2459:2463   */\n  0x11\n    /* \"#utility.yul\":2456:2457   */\n  0x04\n    /* \"#utility.yul\":2449:2464   */\n  mstore\n    /* \"#utility.yul\":2483:2487   */\n  0x24\n    /* \"#utility.yul\":2480:2481   */\n  0x00\n    /* \"#utility.yul\":2473:2488   */\n  revert\n    /* \"#utility.yul\":2500:2602   */\ntag_24:\n    /* \"#utility.yul\":2542:2550   */\n  0x00\n    /* \"#utility.yul\":2589:2594   */\n  dup2\n    /* \"#utility.yul\":2586:2587   */\n  0x01\n    /* \"#utility.yul\":2582:2595   */\n  shr\n    /* \"#utility.yul\":2561:2595   */\n  swap1\n  pop\n    /* \"#utility.yul\":2500:2602   */\n  swap2\n  swap1\n  pop\n  jump\t// out\n    /* \"contract/HouseRegistryExt.sol\":99:307  contract HouseRegistryExt is HouseRegistry {\r... */\ntag_10:\n  dataSize(sub_0)\n  dup1\n  dataOffset(sub_0)\n  0x00\n  codecopy\n  0x00\n  return\nstop\n\nsub_0: assembly {\n        /* \"contract/HouseRegistryExt.sol\":99:307  contract HouseRegistryExt is HouseRegistry {\r... */\n      mstore(0x40, 0x80)\n      callvalue\n      dup1\n      iszero\n      tag_1\n      jumpi\n      0x00\n      dup1\n      revert\n    tag_1:\n      pop\n      jumpi(tag_2, lt(calldatasize, 0x04))\n      shr(0xe0, calldataload(0x00))\n      dup1\n      0x91bfe0d4\n      gt\n      tag_10\n      jumpi\n      dup1\n      0x91bfe0d4\n      eq\n      tag_6\n      jumpi\n      dup1\n      0xaeda852f\n      eq\n      tag_7\n      jumpi\n      dup1\n      0xbe40a73e\n      eq\n      tag_8\n      jumpi\n      dup1\n      0xf2fde38b\n      eq\n      tag_9\n      jumpi\n      jump(tag_2)\n    tag_10:\n      dup1\n      0x3c3b0b4a\n      eq\n      tag_3\n      jumpi\n      dup1\n      0x715018a6\n      eq\n      tag_4\n      jumpi\n      dup1\n      0x8da5cb5b\n      eq\n      tag_5\n      jumpi\n    tag_2:\n      0x00\n      dup1\n      revert\n        /* \"contract/HouseRegistry.sol\":1296:1501  function delistHouse(uint houseId) public{... */\n    tag_3:\n      tag_11\n      0x04\n      dup1\n      calldatasize\n      sub\n      dup2\n      add\n      swap1\n      tag_12\n      swap2\n      swap1\n      tag_13\n      jump\t// in\n    tag_12:\n      tag_14\n      jump\t// in\n    tag_11:\n      stop\n        /* \"contract/Ownable.sol\":1720:1823  function renounceOwnership() public virtual onlyOwner {\r... */\n    tag_4:\n      tag_15\n      tag_16\n      jump\t// in\n    tag_15:\n      stop\n        /* \"contract/Ownable.sol\":1069:1156  function owner() public view virtual returns (address) {\r... */\n    tag_5:\n      tag_17\n      tag_18\n      jump\t// in\n    tag_17:\n      mload(0x40)\n      tag_19\n      swap2\n      swap1\n      tag_20\n      jump\t// in\n    tag_19:\n      mload(0x40)\n      dup1\n      swap2\n      sub\n      swap1\n      return\n        /* \"contract/HouseRegistry.sol\":491:1030  function listHouse (uint _price, uint _area, address _sellerAddress, string memory _houseAddress) public returns (uint) {... */\n    tag_6:\n      tag_21\n      0x04\n      dup1\n      calldatasize\n      sub\n      dup2\n      add\n      swap1\n      tag_22\n      swap2\n      swap1\n      tag_23\n      jump\t// in\n    tag_22:\n      tag_24\n      jump\t// in\n    tag_21:\n      mload(0x40)\n      tag_25\n      swap2\n      swap1\n      tag_26\n      jump\t// in\n    tag_25:\n      mload(0x40)\n      dup1\n      swap2\n      sub\n      swap1\n      return\n        /* \"contract/HouseRegistry.sol\":448:484  mapping(uint => House) public houses */\n    tag_7:\n      tag_27\n      0x04\n      dup1\n      calldatasize\n      sub\n      dup2\n      add\n      swap1\n      tag_28\n      swap2\n      swap1\n      tag_13\n      jump\t// in\n    tag_28:\n      tag_29\n      jump\t// in\n    tag_27:\n      mload(0x40)\n      tag_30\n      swap7\n      swap6\n      swap5\n      swap4\n      swap3\n      swap2\n      swap1\n      tag_31\n      jump\t// in\n    tag_30:\n      mload(0x40)\n      dup1\n      swap2\n      sub\n      swap1\n      return\n        /* \"contract/HouseRegistryExt.sol\":149:304  function listHouseSimple(uint _price, uint _area, string memory _houseAddress) public{\r... */\n    tag_8:\n      tag_32\n      0x04\n      dup1\n      calldatasize\n      sub\n      dup2\n      add\n      swap1\n      tag_33\n      swap2\n      swap1\n      tag_34\n      jump\t// in\n    tag_33:\n      tag_35\n      jump\t// in\n    tag_32:\n      stop\n        /* \"contract/Ownable.sol\":1978:2179  function transferOwnership(address newOwner) public virtual onlyOwner {\r... */\n    tag_9:\n      tag_36\n      0x04\n      dup1\n      calldatasize\n      sub\n      dup2\n      add\n      swap1\n      tag_37\n      swap2\n      swap1\n      tag_38\n      jump\t// in\n    tag_37:\n      tag_39\n      jump\t// in\n    tag_36:\n      stop\n        /* \"contract/HouseRegistry.sol\":1296:1501  function delistHouse(uint houseId) public{... */\n    tag_14:\n        /* \"contract/HouseRegistry.sol\":1388:1398  msg.sender */\n      caller\n        /* \"contract/HouseRegistry.sol\":1355:1398  houses[houseId].sellerAddress == msg.sender */\n      0xffffffffffffffffffffffffffffffffffffffff\n      and\n        /* \"contract/HouseRegistry.sol\":1355:1361  houses */\n      0x03\n        /* \"contract/HouseRegistry.sol\":1355:1370  houses[houseId] */\n      0x00\n        /* \"contract/HouseRegistry.sol\":1362:1369  houseId */\n      dup4\n        /* \"contract/HouseRegistry.sol\":1355:1370  houses[houseId] */\n      dup2\n      mstore\n      0x20\n      add\n      swap1\n      dup2\n      mstore\n      0x20\n      add\n      0x00\n      keccak256\n        /* \"contract/HouseRegistry.sol\":1355:1384  houses[houseId].sellerAddress */\n      0x03\n      add\n      0x00\n      swap1\n      sload\n      swap1\n      0x0100\n      exp\n      swap1\n      div\n      0xffffffffffffffffffffffffffffffffffffffff\n      and\n        /* \"contract/HouseRegistry.sol\":1355:1398  houses[houseId].sellerAddress == msg.sender */\n      0xffffffffffffffffffffffffffffffffffffffff\n      and\n      eq\n        /* \"contract/HouseRegistry.sol\":1347:1446  require(houses[houseId].sellerAddress == msg.sender, \"You do not have access to delete this house\") */\n      tag_41\n      jumpi\n      mload(0x40)\n      0x08c379a000000000000000000000000000000000000000000000000000000000\n      dup2\n      mstore\n      0x04\n      add\n      tag_42\n      swap1\n      tag_43\n      jump\t// in\n    tag_42:\n      mload(0x40)\n      dup1\n      swap2\n      sub\n      swap1\n      revert\n    tag_41:\n        /* \"contract/HouseRegistry.sol\":1490:1494  true */\n      0x01\n        /* \"contract/HouseRegistry.sol\":1456:1462  houses */\n      0x03\n        /* \"contract/HouseRegistry.sol\":1456:1471  houses[houseId] */\n      0x00\n        /* \"contract/HouseRegistry.sol\":1463:1470  houseId */\n      dup4\n        /* \"contract/HouseRegistry.sol\":1456:1471  houses[houseId] */\n      dup2\n      mstore\n      0x20\n      add\n      swap1\n      dup2\n      mstore\n      0x20\n      add\n      0x00\n      keccak256\n        /* \"contract/HouseRegistry.sol\":1456:1487  houses[houseId].isdelistedHouse */\n      0x05\n      add\n      0x00\n        /* \"contract/HouseRegistry.sol\":1456:1494  houses[houseId].isdelistedHouse = true */\n      0x0100\n      exp\n      dup2\n      sload\n      dup2\n      0xff\n      mul\n      not\n      and\n      swap1\n      dup4\n      iszero\n      iszero\n      mul\n      or\n      swap1\n      sstore\n      pop\n        /* \"contract/HouseRegistry.sol\":1296:1501  function delistHouse(uint houseId) public{... */\n      pop\n      jump\t// out\n        /* \"contract/Ownable.sol\":1720:1823  function renounceOwnership() public virtual onlyOwner {\r... */\n    tag_16:\n        /* \"contract/Ownable.sol\":1300:1312  _msgSender() */\n      tag_45\n        /* \"contract/Ownable.sol\":1300:1310  _msgSender */\n      tag_46\n        /* \"contract/Ownable.sol\":1300:1312  _msgSender() */\n      jump\t// in\n    tag_45:\n        /* \"contract/Ownable.sol\":1289:1312  owner() == _msgSender() */\n      0xffffffffffffffffffffffffffffffffffffffff\n      and\n        /* \"contract/Ownable.sol\":1289:1296  owner() */\n      tag_47\n        /* \"contract/Ownable.sol\":1289:1294  owner */\n      tag_18\n        /* \"contract/Ownable.sol\":1289:1296  owner() */\n      jump\t// in\n    tag_47:\n        /* \"contract/Ownable.sol\":1289:1312  owner() == _msgSender() */\n      0xffffffffffffffffffffffffffffffffffffffff\n      and\n      eq\n        /* \"contract/Ownable.sol\":1281:1349  require(owner() == _msgSender(), \"Ownable: caller is not the owner\") */\n      tag_48\n      jumpi\n      mload(0x40)\n      0x08c379a000000000000000000000000000000000000000000000000000000000\n      dup2\n      mstore\n      0x04\n      add\n      tag_49\n      swap1\n      tag_50\n      jump\t// in\n    tag_49:\n      mload(0x40)\n      dup1\n      swap2\n      sub\n      swap1\n      revert\n    tag_48:\n        /* \"contract/Ownable.sol\":1785:1815  _transferOwnership(address(0)) */\n      tag_52\n        /* \"contract/Ownable.sol\":1812:1813  0 */\n      0x00\n        /* \"contract/Ownable.sol\":1785:1803  _transferOwnership */\n      tag_53\n        /* \"contract/Ownable.sol\":1785:1815  _transferOwnership(address(0)) */\n      jump\t// in\n    tag_52:\n        /* \"contract/Ownable.sol\":1720:1823  function renounceOwnership() public virtual onlyOwner {\r... */\n      jump\t// out\n        /* \"contract/Ownable.sol\":1069:1156  function owner() public view virtual returns (address) {\r... */\n    tag_18:\n        /* \"contract/Ownable.sol\":1115:1122  address */\n      0x00\n        /* \"contract/Ownable.sol\":1142:1148  _owner */\n      dup1\n      0x00\n      swap1\n      sload\n      swap1\n      0x0100\n      exp\n      swap1\n      div\n      0xffffffffffffffffffffffffffffffffffffffff\n      and\n        /* \"contract/Ownable.sol\":1135:1148  return _owner */\n      swap1\n      pop\n        /* \"contract/Ownable.sol\":1069:1156  function owner() public view virtual returns (address) {\r... */\n      swap1\n      jump\t// out\n        /* \"contract/HouseRegistry.sol\":491:1030  function listHouse (uint _price, uint _area, address _sellerAddress, string memory _houseAddress) public returns (uint) {... */\n    tag_24:\n        /* \"contract/HouseRegistry.sol\":605:609  uint */\n      0x00\n        /* \"contract/HouseRegistry.sol\":646:647  0 */\n      dup1\n        /* \"contract/HouseRegistry.sol\":638:643  _area */\n      dup5\n        /* \"contract/HouseRegistry.sol\":629:635  _price */\n      dup7\n        /* \"contract/HouseRegistry.sol\":629:643  _price * _area */\n      tag_56\n      swap2\n      swap1\n      tag_57\n      jump\t// in\n    tag_56:\n        /* \"contract/HouseRegistry.sol\":629:647  _price * _area > 0 */\n      gt\n        /* \"contract/HouseRegistry.sol\":621:672  require(_price * _area > 0, \"value cannot be null\") */\n      tag_58\n      jumpi\n      mload(0x40)\n      0x08c379a000000000000000000000000000000000000000000000000000000000\n      dup2\n      mstore\n      0x04\n      add\n      tag_59\n      swap1\n      tag_60\n      jump\t// in\n    tag_59:\n      mload(0x40)\n      dup1\n      swap2\n      sub\n      swap1\n      revert\n    tag_58:\n        /* \"contract/HouseRegistry.sol\":682:694  uint houseId */\n      0x00\n        /* \"contract/HouseRegistry.sol\":697:751  _generateHouseId(_sellerAddress, _area, _houseAddress) */\n      tag_61\n        /* \"contract/HouseRegistry.sol\":714:728  _sellerAddress */\n      dup5\n        /* \"contract/HouseRegistry.sol\":730:735  _area */\n      dup7\n        /* \"contract/HouseRegistry.sol\":737:750  _houseAddress */\n      dup6\n        /* \"contract/HouseRegistry.sol\":697:713  _generateHouseId */\n      tag_62\n        /* \"contract/HouseRegistry.sol\":697:751  _generateHouseId(_sellerAddress, _area, _houseAddress) */\n      jump\t// in\n    tag_61:\n        /* \"contract/HouseRegistry.sol\":682:751  uint houseId = _generateHouseId(_sellerAddress, _area, _houseAddress) */\n      swap1\n      pop\n        /* \"contract/HouseRegistry.sol\":780:786  houses */\n      0x03\n        /* \"contract/HouseRegistry.sol\":780:795  houses[houseId] */\n      0x00\n        /* \"contract/HouseRegistry.sol\":787:794  houseId */\n      dup3\n        /* \"contract/HouseRegistry.sol\":780:795  houses[houseId] */\n      dup2\n      mstore\n      0x20\n      add\n      swap1\n      dup2\n      mstore\n      0x20\n      add\n      0x00\n      keccak256\n        /* \"contract/HouseRegistry.sol\":780:798  houses[houseId].id */\n      0x00\n      add\n      sload\n        /* \"contract/HouseRegistry.sol\":769:776  houseId */\n      dup2\n        /* \"contract/HouseRegistry.sol\":769:798  houseId != houses[houseId].id */\n      eq\n      iszero\n        /* \"contract/HouseRegistry.sol\":761:830  require(houseId != houses[houseId].id, \"this houseId already exists\") */\n      tag_63\n      jumpi\n      mload(0x40)\n      0x08c379a000000000000000000000000000000000000000000000000000000000\n      dup2\n      mstore\n      0x04\n      add\n      tag_64\n      swap1\n      tag_65\n      jump\t// in\n    tag_64:\n      mload(0x40)\n      dup1\n      swap2\n      sub\n      swap1\n      revert\n    tag_63:\n        /* \"contract/HouseRegistry.sol\":858:925  House(houseId, _price, _area, _sellerAddress, _houseAddress, false) */\n      mload(0x40)\n      dup1\n      0xc0\n      add\n      0x40\n      mstore\n      dup1\n        /* \"contract/HouseRegistry.sol\":864:871  houseId */\n      dup3\n        /* \"contract/HouseRegistry.sol\":858:925  House(houseId, _price, _area, _sellerAddress, _houseAddress, false) */\n      dup2\n      mstore\n      0x20\n      add\n        /* \"contract/HouseRegistry.sol\":873:879  _price */\n      dup8\n        /* \"contract/HouseRegistry.sol\":858:925  House(houseId, _price, _area, _sellerAddress, _houseAddress, false) */\n      dup2\n      mstore\n      0x20\n      add\n        /* \"contract/HouseRegistry.sol\":881:886  _area */\n      dup7\n        /* \"contract/HouseRegistry.sol\":858:925  House(houseId, _price, _area, _sellerAddress, _houseAddress, false) */\n      dup2\n      mstore\n      0x20\n      add\n        /* \"contract/HouseRegistry.sol\":888:902  _sellerAddress */\n      dup6\n        /* \"contract/HouseRegistry.sol\":858:925  House(houseId, _price, _area, _sellerAddress, _houseAddress, false) */\n      0xffffffffffffffffffffffffffffffffffffffff\n      and\n      dup2\n      mstore\n      0x20\n      add\n        /* \"contract/HouseRegistry.sol\":904:917  _houseAddress */\n      dup5\n        /* \"contract/HouseRegistry.sol\":858:925  House(houseId, _price, _area, _sellerAddress, _houseAddress, false) */\n      dup2\n      mstore\n      0x20\n      add\n        /* \"contract/HouseRegistry.sol\":919:924  false */\n      0x00\n        /* \"contract/HouseRegistry.sol\":858:925  House(houseId, _price, _area, _sellerAddress, _houseAddress, false) */\n      iszero\n      iszero\n      dup2\n      mstore\n      pop\n        /* \"contract/HouseRegistry.sol\":840:846  houses */\n      0x03\n        /* \"contract/HouseRegistry.sol\":840:855  houses[houseId] */\n      0x00\n        /* \"contract/HouseRegistry.sol\":847:854  houseId */\n      dup4\n        /* \"contract/HouseRegistry.sol\":840:855  houses[houseId] */\n      dup2\n      mstore\n      0x20\n      add\n      swap1\n      dup2\n      mstore\n      0x20\n      add\n      0x00\n      keccak256\n        /* \"contract/HouseRegistry.sol\":840:925  houses[houseId] = House(houseId, _price, _area, _sellerAddress, _houseAddress, false) */\n      0x00\n      dup3\n      add\n      mload\n      dup2\n      0x00\n      add\n      sstore\n      0x20\n      dup3\n      add\n      mload\n      dup2\n      0x01\n      add\n      sstore\n      0x40\n      dup3\n      add\n      mload\n      dup2\n      0x02\n      add\n      sstore\n      0x60\n      dup3\n      add\n      mload\n      dup2\n      0x03\n      add\n      exp(0x0100, 0x00)\n      dup2\n      sload\n      dup2\n      0xffffffffffffffffffffffffffffffffffffffff\n      mul\n      not\n      and\n      swap1\n      dup4\n      0xffffffffffffffffffffffffffffffffffffffff\n      and\n      mul\n      or\n      swap1\n      sstore\n      pop\n      0x80\n      dup3\n      add\n      mload\n      dup2\n      0x04\n      add\n      swap1\n      dup1\n      mload\n      swap1\n      0x20\n      add\n      swap1\n      tag_66\n      swap3\n      swap2\n      swap1\n      tag_67\n      jump\t// in\n    tag_66:\n      pop\n      0xa0\n      dup3\n      add\n      mload\n      dup2\n      0x05\n      add\n      exp(0x0100, 0x00)\n      dup2\n      sload\n      dup2\n      0xff\n      mul\n      not\n      and\n      swap1\n      dup4\n      iszero\n      iszero\n      mul\n      or\n      swap1\n      sstore\n      pop\n      swap1\n      pop\n      pop\n        /* \"contract/HouseRegistry.sol\":940:999  AddNewHouse(houseId, _sellerAddress, _price, _houseAddress) */\n      0x8f5afd88eb4be0ac287d87970052ce9a2b453448408e3c91a695ad7509ab7194\n        /* \"contract/HouseRegistry.sol\":952:959  houseId */\n      dup2\n        /* \"contract/HouseRegistry.sol\":961:975  _sellerAddress */\n      dup6\n        /* \"contract/HouseRegistry.sol\":977:983  _price */\n      dup9\n        /* \"contract/HouseRegistry.sol\":985:998  _houseAddress */\n      dup7\n        /* \"contract/HouseRegistry.sol\":940:999  AddNewHouse(houseId, _sellerAddress, _price, _houseAddress) */\n      mload(0x40)\n      tag_68\n      swap5\n      swap4\n      swap3\n      swap2\n      swap1\n      tag_69\n      jump\t// in\n    tag_68:\n      mload(0x40)\n      dup1\n      swap2\n      sub\n      swap1\n      log1\n        /* \"contract/HouseRegistry.sol\":1016:1023  houseId */\n      dup1\n        /* \"contract/HouseRegistry.sol\":1009:1023  return houseId */\n      swap2\n      pop\n      pop\n        /* \"contract/HouseRegistry.sol\":491:1030  function listHouse (uint _price, uint _area, address _sellerAddress, string memory _houseAddress) public returns (uint) {... */\n      swap5\n      swap4\n      pop\n      pop\n      pop\n      pop\n      jump\t// out\n        /* \"contract/HouseRegistry.sol\":448:484  mapping(uint => House) public houses */\n    tag_29:\n      mstore(0x20, 0x03)\n      dup1\n      0x00\n      mstore\n      keccak256(0x00, 0x40)\n      0x00\n      swap2\n      pop\n      swap1\n      pop\n      dup1\n      0x00\n      add\n      sload\n      swap1\n      dup1\n      0x01\n      add\n      sload\n      swap1\n      dup1\n      0x02\n      add\n      sload\n      swap1\n      dup1\n      0x03\n      add\n      0x00\n      swap1\n      sload\n      swap1\n      0x0100\n      exp\n      swap1\n      div\n      0xffffffffffffffffffffffffffffffffffffffff\n      and\n      swap1\n      dup1\n      0x04\n      add\n      dup1\n      sload\n      tag_70\n      swap1\n      tag_71\n      jump\t// in\n    tag_70:\n      dup1\n      0x1f\n      add\n      0x20\n      dup1\n      swap2\n      div\n      mul\n      0x20\n      add\n      mload(0x40)\n      swap1\n      dup2\n      add\n      0x40\n      mstore\n      dup1\n      swap3\n      swap2\n      swap1\n      dup2\n      dup2\n      mstore\n      0x20\n      add\n      dup3\n      dup1\n      sload\n      tag_72\n      swap1\n      tag_71\n      jump\t// in\n    tag_72:\n      dup1\n      iszero\n      tag_73\n      jumpi\n      dup1\n      0x1f\n      lt\n      tag_74\n      jumpi\n      0x0100\n      dup1\n      dup4\n      sload\n      div\n      mul\n      dup4\n      mstore\n      swap2\n      0x20\n      add\n      swap2\n      jump(tag_73)\n    tag_74:\n      dup3\n      add\n      swap2\n      swap1\n      0x00\n      mstore\n      keccak256(0x00, 0x20)\n      swap1\n    tag_75:\n      dup2\n      sload\n      dup2\n      mstore\n      swap1\n      0x01\n      add\n      swap1\n      0x20\n      add\n      dup1\n      dup4\n      gt\n      tag_75\n      jumpi\n      dup3\n      swap1\n      sub\n      0x1f\n      and\n      dup3\n      add\n      swap2\n    tag_73:\n      pop\n      pop\n      pop\n      pop\n      pop\n      swap1\n      dup1\n      0x05\n      add\n      0x00\n      swap1\n      sload\n      swap1\n      0x0100\n      exp\n      swap1\n      div\n      0xff\n      and\n      swap1\n      pop\n      dup7\n      jump\t// out\n        /* \"contract/HouseRegistryExt.sol\":149:304  function listHouseSimple(uint _price, uint _area, string memory _houseAddress) public{\r... */\n    tag_35:\n        /* \"contract/HouseRegistryExt.sol\":245:296  listHouse(_price, _area, msg.sender, _houseAddress) */\n      tag_77\n        /* \"contract/HouseRegistryExt.sol\":255:261  _price */\n      dup4\n        /* \"contract/HouseRegistryExt.sol\":263:268  _area */\n      dup4\n        /* \"contract/HouseRegistryExt.sol\":270:280  msg.sender */\n      caller\n        /* \"contract/HouseRegistryExt.sol\":282:295  _houseAddress */\n      dup5\n        /* \"contract/HouseRegistryExt.sol\":245:254  listHouse */\n      tag_24\n        /* \"contract/HouseRegistryExt.sol\":245:296  listHouse(_price, _area, msg.sender, _houseAddress) */\n      jump\t// in\n    tag_77:\n      pop\n        /* \"contract/HouseRegistryExt.sol\":149:304  function listHouseSimple(uint _price, uint _area, string memory _houseAddress) public{\r... */\n      pop\n      pop\n      pop\n      jump\t// out\n        /* \"contract/Ownable.sol\":1978:2179  function transferOwnership(address newOwner) public virtual onlyOwner {\r... */\n    tag_39:\n        /* \"contract/Ownable.sol\":1300:1312  _msgSender() */\n      tag_79\n        /* \"contract/Ownable.sol\":1300:1310  _msgSender */\n      tag_46\n        /* \"contract/Ownable.sol\":1300:1312  _msgSender() */\n      jump\t// in\n    tag_79:\n        /* \"contract/Ownable.sol\":1289:1312  owner() == _msgSender() */\n      0xffffffffffffffffffffffffffffffffffffffff\n      and\n        /* \"contract/Ownable.sol\":1289:1296  owner() */\n      tag_80\n        /* \"contract/Ownable.sol\":1289:1294  owner */\n      tag_18\n        /* \"contract/Ownable.sol\":1289:1296  owner() */\n      jump\t// in\n    tag_80:\n        /* \"contract/Ownable.sol\":1289:1312  owner() == _msgSender() */\n      0xffffffffffffffffffffffffffffffffffffffff\n      and\n      eq\n        /* \"contract/Ownable.sol\":1281:1349  require(owner() == _msgSender(), \"Ownable: caller is not the owner\") */\n      tag_81\n      jumpi\n      mload(0x40)\n      0x08c379a000000000000000000000000000000000000000000000000000000000\n      dup2\n      mstore\n      0x04\n      add\n      tag_82\n      swap1\n      tag_50\n      jump\t// in\n    tag_82:\n      mload(0x40)\n      dup1\n      swap2\n      sub\n      swap1\n      revert\n    tag_81:\n        /* \"contract/Ownable.sol\":2087:2088  0 */\n      0x00\n        /* \"contract/Ownable.sol\":2067:2089  newOwner != address(0) */\n      0xffffffffffffffffffffffffffffffffffffffff\n      and\n        /* \"contract/Ownable.sol\":2067:2075  newOwner */\n      dup2\n        /* \"contract/Ownable.sol\":2067:2089  newOwner != address(0) */\n      0xffffffffffffffffffffffffffffffffffffffff\n      and\n      eq\n      iszero\n        /* \"contract/Ownable.sol\":2059:2132  require(newOwner != address(0), \"Ownable: new owner is the zero address\") */\n      tag_84\n      jumpi\n      mload(0x40)\n      0x08c379a000000000000000000000000000000000000000000000000000000000\n      dup2\n      mstore\n      0x04\n      add\n      tag_85\n      swap1\n      tag_86\n      jump\t// in\n    tag_85:\n      mload(0x40)\n      dup1\n      swap2\n      sub\n      swap1\n      revert\n    tag_84:\n        /* \"contract/Ownable.sol\":2143:2171  _transferOwnership(newOwner) */\n      tag_87\n        /* \"contract/Ownable.sol\":2162:2170  newOwner */\n      dup2\n        /* \"contract/Ownable.sol\":2143:2161  _transferOwnership */\n      tag_53\n        /* \"contract/Ownable.sol\":2143:2171  _transferOwnership(newOwner) */\n      jump\t// in\n    tag_87:\n        /* \"contract/Ownable.sol\":1978:2179  function transferOwnership(address newOwner) public virtual onlyOwner {\r... */\n      pop\n      jump\t// out\n        /* \"contract/utils/Context.sol\":656:754  function _msgSender() internal view virtual returns (address) {\r... */\n    tag_46:\n        /* \"contract/utils/Context.sol\":709:716  address */\n      0x00\n        /* \"contract/utils/Context.sol\":736:746  msg.sender */\n      caller\n        /* \"contract/utils/Context.sol\":729:746  return msg.sender */\n      swap1\n      pop\n        /* \"contract/utils/Context.sol\":656:754  function _msgSender() internal view virtual returns (address) {\r... */\n      swap1\n      jump\t// out\n        /* \"contract/Ownable.sol\":2339:2530  function _transferOwnership(address newOwner) internal virtual {\r... */\n    tag_53:\n        /* \"contract/Ownable.sol\":2413:2429  address oldOwner */\n      0x00\n        /* \"contract/Ownable.sol\":2432:2438  _owner */\n      dup1\n      0x00\n      swap1\n      sload\n      swap1\n      0x0100\n      exp\n      swap1\n      div\n      0xffffffffffffffffffffffffffffffffffffffff\n      and\n        /* \"contract/Ownable.sol\":2413:2438  address oldOwner = _owner */\n      swap1\n      pop\n        /* \"contract/Ownable.sol\":2458:2466  newOwner */\n      dup2\n        /* \"contract/Ownable.sol\":2449:2455  _owner */\n      0x00\n      dup1\n        /* \"contract/Ownable.sol\":2449:2466  _owner = newOwner */\n      0x0100\n      exp\n      dup2\n      sload\n      dup2\n      0xffffffffffffffffffffffffffffffffffffffff\n      mul\n      not\n      and\n      swap1\n      dup4\n      0xffffffffffffffffffffffffffffffffffffffff\n      and\n      mul\n      or\n      swap1\n      sstore\n      pop\n        /* \"contract/Ownable.sol\":2513:2521  newOwner */\n      dup2\n        /* \"contract/Ownable.sol\":2482:2522  OwnershipTransferred(oldOwner, newOwner) */\n      0xffffffffffffffffffffffffffffffffffffffff\n      and\n        /* \"contract/Ownable.sol\":2503:2511  oldOwner */\n      dup2\n        /* \"contract/Ownable.sol\":2482:2522  OwnershipTransferred(oldOwner, newOwner) */\n      0xffffffffffffffffffffffffffffffffffffffff\n      and\n      0x8be0079c531659141344cd1fd0a4f28419497f9722a3daafe3b4186f6b6457e0\n      mload(0x40)\n      mload(0x40)\n      dup1\n      swap2\n      sub\n      swap1\n      log3\n        /* \"contract/Ownable.sol\":2402:2530  {\r... */\n      pop\n        /* \"contract/Ownable.sol\":2339:2530  function _transferOwnership(address newOwner) internal virtual {\r... */\n      pop\n      jump\t// out\n        /* \"contract/HouseRegistry.sol\":1036:1290  function _generateHouseId(address _sellerAddress, uint _area, string memory _houseAddress) private view returns(uint){... */\n    tag_62:\n        /* \"contract/HouseRegistry.sol\":1148:1152  uint */\n      0x00\n        /* \"contract/HouseRegistry.sol\":1163:1175  uint houseId */\n      dup1\n        /* \"contract/HouseRegistry.sol\":1210:1224  _sellerAddress */\n      dup5\n        /* \"contract/HouseRegistry.sol\":1226:1231  _area */\n      dup5\n        /* \"contract/HouseRegistry.sol\":1233:1246  _houseAddress */\n      dup5\n        /* \"contract/HouseRegistry.sol\":1193:1247  abi.encodePacked(_sellerAddress, _area, _houseAddress) */\n      add(0x20, mload(0x40))\n      tag_91\n      swap4\n      swap3\n      swap2\n      swap1\n      tag_92\n      jump\t// in\n    tag_91:\n      mload(0x40)\n      0x20\n      dup2\n      dup4\n      sub\n      sub\n      dup2\n      mstore\n      swap1\n      0x40\n      mstore\n        /* \"contract/HouseRegistry.sol\":1183:1248  keccak256(abi.encodePacked(_sellerAddress, _area, _houseAddress)) */\n      dup1\n      mload\n      swap1\n      0x20\n      add\n      keccak256\n        /* \"contract/HouseRegistry.sol\":1178:1249  uint(keccak256(abi.encodePacked(_sellerAddress, _area, _houseAddress))) */\n      0x00\n      shr\n        /* \"contract/HouseRegistry.sol\":1163:1249  uint houseId = uint(keccak256(abi.encodePacked(_sellerAddress, _area, _houseAddress))) */\n      swap1\n      pop\n        /* \"contract/HouseRegistry.sol\":1276:1283  modulus */\n      sload(0x02)\n        /* \"contract/HouseRegistry.sol\":1266:1273  houseId */\n      dup2\n        /* \"contract/HouseRegistry.sol\":1266:1283  houseId % modulus */\n      tag_93\n      swap2\n      swap1\n      tag_94\n      jump\t// in\n    tag_93:\n        /* \"contract/HouseRegistry.sol\":1259:1283  return houseId % modulus */\n      swap2\n      pop\n      pop\n        /* \"contract/HouseRegistry.sol\":1036:1290  function _generateHouseId(address _sellerAddress, uint _area, string memory _houseAddress) private view returns(uint){... */\n      swap4\n      swap3\n      pop\n      pop\n      pop\n      jump\t// out\n    tag_67:\n      dup3\n      dup1\n      sload\n      tag_95\n      swap1\n      tag_71\n      jump\t// in\n    tag_95:\n      swap1\n      0x00\n      mstore\n      keccak256(0x00, 0x20)\n      swap1\n      0x1f\n      add\n      0x20\n      swap1\n      div\n      dup2\n      add\n      swap3\n      dup3\n      tag_97\n      jumpi\n      0x00\n      dup6\n      sstore\n      jump(tag_96)\n    tag_97:\n      dup3\n      0x1f\n      lt\n      tag_98\n      jumpi\n      dup1\n      mload\n      not(0xff)\n      and\n      dup4\n      dup1\n      add\n      or\n      dup6\n      sstore\n      jump(tag_96)\n    tag_98:\n      dup3\n      dup1\n      add\n      0x01\n      add\n      dup6\n      sstore\n      dup3\n      iszero\n      tag_96\n      jumpi\n      swap2\n      dup3\n      add\n    tag_99:\n      dup3\n      dup2\n      gt\n      iszero\n      tag_100\n      jumpi\n      dup3\n      mload\n      dup3\n      sstore\n      swap2\n      0x20\n      add\n      swap2\n      swap1\n      0x01\n      add\n      swap1\n      jump(tag_99)\n    tag_100:\n    tag_96:\n      pop\n      swap1\n      pop\n      tag_101\n      swap2\n      swap1\n      tag_102\n      jump\t// in\n    tag_101:\n      pop\n      swap1\n      jump\t// out\n    tag_102:\n    tag_103:\n      dup1\n      dup3\n      gt\n      iszero\n      tag_104\n      jumpi\n      0x00\n      dup2\n      0x00\n      swap1\n      sstore\n      pop\n      0x01\n      add\n      jump(tag_103)\n    tag_104:\n      pop\n      swap1\n      jump\t// out\n        /* \"#utility.yul\":7:419   */\n    tag_106:\n        /* \"#utility.yul\":85:90   */\n      0x00\n        /* \"#utility.yul\":110:176   */\n      tag_108\n        /* \"#utility.yul\":126:175   */\n      tag_109\n        /* \"#utility.yul\":168:174   */\n      dup5\n        /* \"#utility.yul\":126:175   */\n      tag_110\n      jump\t// in\n    tag_109:\n        /* \"#utility.yul\":110:176   */\n      tag_111\n      jump\t// in\n    tag_108:\n        /* \"#utility.yul\":101:176   */\n      swap1\n      pop\n        /* \"#utility.yul\":199:205   */\n      dup3\n        /* \"#utility.yul\":192:197   */\n      dup2\n        /* \"#utility.yul\":185:206   */\n      mstore\n        /* \"#utility.yul\":237:241   */\n      0x20\n        /* \"#utility.yul\":230:235   */\n      dup2\n        /* \"#utility.yul\":226:242   */\n      add\n        /* \"#utility.yul\":275:278   */\n      dup5\n        /* \"#utility.yul\":266:272   */\n      dup5\n        /* \"#utility.yul\":261:264   */\n      dup5\n        /* \"#utility.yul\":257:273   */\n      add\n        /* \"#utility.yul\":254:279   */\n      gt\n        /* \"#utility.yul\":251:363   */\n      iszero\n      tag_112\n      jumpi\n        /* \"#utility.yul\":282:361   */\n      tag_113\n      tag_114\n      jump\t// in\n    tag_113:\n        /* \"#utility.yul\":251:363   */\n    tag_112:\n        /* \"#utility.yul\":372:413   */\n      tag_115\n        /* \"#utility.yul\":406:412   */\n      dup5\n        /* \"#utility.yul\":401:404   */\n      dup3\n        /* \"#utility.yul\":396:399   */\n      dup6\n        /* \"#utility.yul\":372:413   */\n      tag_116\n      jump\t// in\n    tag_115:\n        /* \"#utility.yul\":91:419   */\n      pop\n        /* \"#utility.yul\":7:419   */\n      swap4\n      swap3\n      pop\n      pop\n      pop\n      jump\t// out\n        /* \"#utility.yul\":425:564   */\n    tag_117:\n        /* \"#utility.yul\":471:476   */\n      0x00\n        /* \"#utility.yul\":509:515   */\n      dup2\n        /* \"#utility.yul\":496:516   */\n      calldataload\n        /* \"#utility.yul\":487:516   */\n      swap1\n      pop\n        /* \"#utility.yul\":525:558   */\n      tag_119\n        /* \"#utility.yul\":552:557   */\n      dup2\n        /* \"#utility.yul\":525:558   */\n      tag_120\n      jump\t// in\n    tag_119:\n        /* \"#utility.yul\":425:564   */\n      swap3\n      swap2\n      pop\n      pop\n      jump\t// out\n        /* \"#utility.yul\":584:924   */\n    tag_121:\n        /* \"#utility.yul\":640:645   */\n      0x00\n        /* \"#utility.yul\":689:692   */\n      dup3\n        /* \"#utility.yul\":682:686   */\n      0x1f\n        /* \"#utility.yul\":674:680   */\n      dup4\n        /* \"#utility.yul\":670:687   */\n      add\n        /* \"#utility.yul\":666:693   */\n      slt\n        /* \"#utility.yul\":656:778   */\n      tag_123\n      jumpi\n        /* \"#utility.yul\":697:776   */\n      tag_124\n      tag_125\n      jump\t// in\n    tag_124:\n        /* \"#utility.yul\":656:778   */\n    tag_123:\n        /* \"#utility.yul\":814:820   */\n      dup2\n        /* \"#utility.yul\":801:821   */\n      calldataload\n        /* \"#utility.yul\":839:918   */\n      tag_126\n        /* \"#utility.yul\":914:917   */\n      dup5\n        /* \"#utility.yul\":906:912   */\n      dup3\n        /* \"#utility.yul\":899:903   */\n      0x20\n        /* \"#utility.yul\":891:897   */\n      dup7\n        /* \"#utility.yul\":887:904   */\n      add\n        /* \"#utility.yul\":839:918   */\n      tag_106\n      jump\t// in\n    tag_126:\n        /* \"#utility.yul\":830:918   */\n      swap2\n      pop\n        /* \"#utility.yul\":646:924   */\n      pop\n        /* \"#utility.yul\":584:924   */\n      swap3\n      swap2\n      pop\n      pop\n      jump\t// out\n        /* \"#utility.yul\":930:1069   */\n    tag_127:\n        /* \"#utility.yul\":976:981   */\n      0x00\n        /* \"#utility.yul\":1014:1020   */\n      dup2\n        /* \"#utility.yul\":1001:1021   */\n      calldataload\n        /* \"#utility.yul\":992:1021   */\n      swap1\n      pop\n        /* \"#utility.yul\":1030:1063   */\n      tag_129\n        /* \"#utility.yul\":1057:1062   */\n      dup2\n        /* \"#utility.yul\":1030:1063   */\n      tag_130\n      jump\t// in\n    tag_129:\n        /* \"#utility.yul\":930:1069   */\n      swap3\n      swap2\n      pop\n      pop\n      jump\t// out\n        /* \"#utility.yul\":1075:1404   */\n    tag_38:\n        /* \"#utility.yul\":1134:1140   */\n      0x00\n        /* \"#utility.yul\":1183:1185   */\n      0x20\n        /* \"#utility.yul\":1171:1180   */\n      dup3\n        /* \"#utility.yul\":1162:1169   */\n      dup5\n        /* \"#utility.yul\":1158:1181   */\n      sub\n        /* \"#utility.yul\":1154:1186   */\n      slt\n        /* \"#utility.yul\":1151:1270   */\n      iszero\n      tag_132\n      jumpi\n        /* \"#utility.yul\":1189:1268   */\n      tag_133\n      tag_134\n      jump\t// in\n    tag_133:\n        /* \"#utility.yul\":1151:1270   */\n    tag_132:\n        /* \"#utility.yul\":1309:1310   */\n      0x00\n        /* \"#utility.yul\":1334:1387   */\n      tag_135\n        /* \"#utility.yul\":1379:1386   */\n      dup5\n        /* \"#utility.yul\":1370:1376   */\n      dup3\n        /* \"#utility.yul\":1359:1368   */\n      dup6\n        /* \"#utility.yul\":1355:1377   */\n      add\n        /* \"#utility.yul\":1334:1387   */\n      tag_117\n      jump\t// in\n    tag_135:\n        /* \"#utility.yul\":1324:1387   */\n      swap2\n      pop\n        /* \"#utility.yul\":1280:1397   */\n      pop\n        /* \"#utility.yul\":1075:1404   */\n      swap3\n      swap2\n      pop\n      pop\n      jump\t// out\n        /* \"#utility.yul\":1410:1739   */\n    tag_13:\n        /* \"#utility.yul\":1469:1475   */\n      0x00\n        /* \"#utility.yul\":1518:1520   */\n      0x20\n        /* \"#utility.yul\":1506:1515   */\n      dup3\n        /* \"#utility.yul\":1497:1504   */\n      dup5\n        /* \"#utility.yul\":1493:1516   */\n      sub\n        /* \"#utility.yul\":1489:1521   */\n      slt\n        /* \"#utility.yul\":1486:1605   */\n      iszero\n      tag_137\n      jumpi\n        /* \"#utility.yul\":1524:1603   */\n      tag_138\n      tag_134\n      jump\t// in\n    tag_138:\n        /* \"#utility.yul\":1486:1605   */\n    tag_137:\n        /* \"#utility.yul\":1644:1645   */\n      0x00\n        /* \"#utility.yul\":1669:1722   */\n      tag_139\n        /* \"#utility.yul\":1714:1721   */\n      dup5\n        /* \"#utility.yul\":1705:1711   */\n      dup3\n        /* \"#utility.yul\":1694:1703   */\n      dup6\n        /* \"#utility.yul\":1690:1712   */\n      add\n        /* \"#utility.yul\":1669:1722   */\n      tag_127\n      jump\t// in\n    tag_139:\n        /* \"#utility.yul\":1659:1722   */\n      swap2\n      pop\n        /* \"#utility.yul\":1615:1732   */\n      pop\n        /* \"#utility.yul\":1410:1739   */\n      swap3\n      swap2\n      pop\n      pop\n      jump\t// out\n        /* \"#utility.yul\":1745:2690   */\n    tag_23:\n        /* \"#utility.yul\":1841:1847   */\n      0x00\n        /* \"#utility.yul\":1849:1855   */\n      dup1\n        /* \"#utility.yul\":1857:1863   */\n      0x00\n        /* \"#utility.yul\":1865:1871   */\n      dup1\n        /* \"#utility.yul\":1914:1917   */\n      0x80\n        /* \"#utility.yul\":1902:1911   */\n      dup6\n        /* \"#utility.yul\":1893:1900   */\n      dup8\n        /* \"#utility.yul\":1889:1912   */\n      sub\n        /* \"#utility.yul\":1885:1918   */\n      slt\n        /* \"#utility.yul\":1882:2002   */\n      iszero\n      tag_141\n      jumpi\n        /* \"#utility.yul\":1921:2000   */\n      tag_142\n      tag_134\n      jump\t// in\n    tag_142:\n        /* \"#utility.yul\":1882:2002   */\n    tag_141:\n        /* \"#utility.yul\":2041:2042   */\n      0x00\n        /* \"#utility.yul\":2066:2119   */\n      tag_143\n        /* \"#utility.yul\":2111:2118   */\n      dup8\n        /* \"#utility.yul\":2102:2108   */\n      dup3\n        /* \"#utility.yul\":2091:2100   */\n      dup9\n        /* \"#utility.yul\":2087:2109   */\n      add\n        /* \"#utility.yul\":2066:2119   */\n      tag_127\n      jump\t// in\n    tag_143:\n        /* \"#utility.yul\":2056:2119   */\n      swap5\n      pop\n        /* \"#utility.yul\":2012:2129   */\n      pop\n        /* \"#utility.yul\":2168:2170   */\n      0x20\n        /* \"#utility.yul\":2194:2247   */\n      tag_144\n        /* \"#utility.yul\":2239:2246   */\n      dup8\n        /* \"#utility.yul\":2230:2236   */\n      dup3\n        /* \"#utility.yul\":2219:2228   */\n      dup9\n        /* \"#utility.yul\":2215:2237   */\n      add\n        /* \"#utility.yul\":2194:2247   */\n      tag_127\n      jump\t// in\n    tag_144:\n        /* \"#utility.yul\":2184:2247   */\n      swap4\n      pop\n        /* \"#utility.yul\":2139:2257   */\n      pop\n        /* \"#utility.yul\":2296:2298   */\n      0x40\n        /* \"#utility.yul\":2322:2375   */\n      tag_145\n        /* \"#utility.yul\":2367:2374   */\n      dup8\n        /* \"#utility.yul\":2358:2364   */\n      dup3\n        /* \"#utility.yul\":2347:2356   */\n      dup9\n        /* \"#utility.yul\":2343:2365   */\n      add\n        /* \"#utility.yul\":2322:2375   */\n      tag_117\n      jump\t// in\n    tag_145:\n        /* \"#utility.yul\":2312:2375   */\n      swap3\n      pop\n        /* \"#utility.yul\":2267:2385   */\n      pop\n        /* \"#utility.yul\":2452:2454   */\n      0x60\n        /* \"#utility.yul\":2441:2450   */\n      dup6\n        /* \"#utility.yul\":2437:2455   */\n      add\n        /* \"#utility.yul\":2424:2456   */\n      calldataload\n        /* \"#utility.yul\":2483:2501   */\n      0xffffffffffffffff\n        /* \"#utility.yul\":2475:2481   */\n      dup2\n        /* \"#utility.yul\":2472:2502   */\n      gt\n        /* \"#utility.yul\":2469:2586   */\n      iszero\n      tag_146\n      jumpi\n        /* \"#utility.yul\":2505:2584   */\n      tag_147\n      tag_148\n      jump\t// in\n    tag_147:\n        /* \"#utility.yul\":2469:2586   */\n    tag_146:\n        /* \"#utility.yul\":2610:2673   */\n      tag_149\n        /* \"#utility.yul\":2665:2672   */\n      dup8\n        /* \"#utility.yul\":2656:2662   */\n      dup3\n        /* \"#utility.yul\":2645:2654   */\n      dup9\n        /* \"#utility.yul\":2641:2663   */\n      add\n        /* \"#utility.yul\":2610:2673   */\n      tag_121\n      jump\t// in\n    tag_149:\n        /* \"#utility.yul\":2600:2673   */\n      swap2\n      pop\n        /* \"#utility.yul\":2395:2683   */\n      pop\n        /* \"#utility.yul\":1745:2690   */\n      swap3\n      swap6\n      swap2\n      swap5\n      pop\n      swap3\n      pop\n      jump\t// out\n        /* \"#utility.yul\":2696:3495   */\n    tag_34:\n        /* \"#utility.yul\":2783:2789   */\n      0x00\n        /* \"#utility.yul\":2791:2797   */\n      dup1\n        /* \"#utility.yul\":2799:2805   */\n      0x00\n        /* \"#utility.yul\":2848:2850   */\n      0x60\n        /* \"#utility.yul\":2836:2845   */\n      dup5\n        /* \"#utility.yul\":2827:2834   */\n      dup7\n        /* \"#utility.yul\":2823:2846   */\n      sub\n        /* \"#utility.yul\":2819:2851   */\n      slt\n        /* \"#utility.yul\":2816:2935   */\n      iszero\n      tag_151\n      jumpi\n        /* \"#utility.yul\":2854:2933   */\n      tag_152\n      tag_134\n      jump\t// in\n    tag_152:\n        /* \"#utility.yul\":2816:2935   */\n    tag_151:\n        /* \"#utility.yul\":2974:2975   */\n      0x00\n        /* \"#utility.yul\":2999:3052   */\n      tag_153\n        /* \"#utility.yul\":3044:3051   */\n      dup7\n        /* \"#utility.yul\":3035:3041   */\n      dup3\n        /* \"#utility.yul\":3024:3033   */\n      dup8\n        /* \"#utility.yul\":3020:3042   */\n      add\n        /* \"#utility.yul\":2999:3052   */\n      tag_127\n      jump\t// in\n    tag_153:\n        /* \"#utility.yul\":2989:3052   */\n      swap4\n      pop\n        /* \"#utility.yul\":2945:3062   */\n      pop\n        /* \"#utility.yul\":3101:3103   */\n      0x20\n        /* \"#utility.yul\":3127:3180   */\n      tag_154\n        /* \"#utility.yul\":3172:3179   */\n      dup7\n        /* \"#utility.yul\":3163:3169   */\n      dup3\n        /* \"#utility.yul\":3152:3161   */\n      dup8\n        /* \"#utility.yul\":3148:3170   */\n      add\n        /* \"#utility.yul\":3127:3180   */\n      tag_127\n      jump\t// in\n    tag_154:\n        /* \"#utility.yul\":3117:3180   */\n      swap3\n      pop\n        /* \"#utility.yul\":3072:3190   */\n      pop\n        /* \"#utility.yul\":3257:3259   */\n      0x40\n        /* \"#utility.yul\":3246:3255   */\n      dup5\n        /* \"#utility.yul\":3242:3260   */\n      add\n        /* \"#utility.yul\":3229:3261   */\n      calldataload\n        /* \"#utility.yul\":3288:3306   */\n      0xffffffffffffffff\n        /* \"#utility.yul\":3280:3286   */\n      dup2\n        /* \"#utility.yul\":3277:3307   */\n      gt\n        /* \"#utility.yul\":3274:3391   */\n      iszero\n      tag_155\n      jumpi\n        /* \"#utility.yul\":3310:3389   */\n      tag_156\n      tag_148\n      jump\t// in\n    tag_156:\n        /* \"#utility.yul\":3274:3391   */\n    tag_155:\n        /* \"#utility.yul\":3415:3478   */\n      tag_157\n        /* \"#utility.yul\":3470:3477   */\n      dup7\n        /* \"#utility.yul\":3461:3467   */\n      dup3\n        /* \"#utility.yul\":3450:3459   */\n      dup8\n        /* \"#utility.yul\":3446:3468   */\n      add\n        /* \"#utility.yul\":3415:3478   */\n      tag_121\n      jump\t// in\n    tag_157:\n        /* \"#utility.yul\":3405:3478   */\n      swap2\n      pop\n        /* \"#utility.yul\":3200:3488   */\n      pop\n        /* \"#utility.yul\":2696:3495   */\n      swap3\n      pop\n      swap3\n      pop\n      swap3\n      jump\t// out\n        /* \"#utility.yul\":3501:3619   */\n    tag_158:\n        /* \"#utility.yul\":3588:3612   */\n      tag_160\n        /* \"#utility.yul\":3606:3611   */\n      dup2\n        /* \"#utility.yul\":3588:3612   */\n      tag_161\n      jump\t// in\n    tag_160:\n        /* \"#utility.yul\":3583:3586   */\n      dup3\n        /* \"#utility.yul\":3576:3613   */\n      mstore\n        /* \"#utility.yul\":3501:3619   */\n      pop\n      pop\n      jump\t// out\n        /* \"#utility.yul\":3625:3782   */\n    tag_162:\n        /* \"#utility.yul\":3730:3775   */\n      tag_164\n        /* \"#utility.yul\":3750:3774   */\n      tag_165\n        /* \"#utility.yul\":3768:3773   */\n      dup3\n        /* \"#utility.yul\":3750:3774   */\n      tag_161\n      jump\t// in\n    tag_165:\n        /* \"#utility.yul\":3730:3775   */\n      tag_166\n      jump\t// in\n    tag_164:\n        /* \"#utility.yul\":3725:3728   */\n      dup3\n        /* \"#utility.yul\":3718:3776   */\n      mstore\n        /* \"#utility.yul\":3625:3782   */\n      pop\n      pop\n      jump\t// out\n        /* \"#utility.yul\":3788:3897   */\n    tag_167:\n        /* \"#utility.yul\":3869:3890   */\n      tag_169\n        /* \"#utility.yul\":3884:3889   */\n      dup2\n        /* \"#utility.yul\":3869:3890   */\n      tag_170\n      jump\t// in\n    tag_169:\n        /* \"#utility.yul\":3864:3867   */\n      dup3\n        /* \"#utility.yul\":3857:3891   */\n      mstore\n        /* \"#utility.yul\":3788:3897   */\n      pop\n      pop\n      jump\t// out\n        /* \"#utility.yul\":3903:4267   */\n    tag_171:\n        /* \"#utility.yul\":3991:3994   */\n      0x00\n        /* \"#utility.yul\":4019:4058   */\n      tag_173\n        /* \"#utility.yul\":4052:4057   */\n      dup3\n        /* \"#utility.yul\":4019:4058   */\n      tag_174\n      jump\t// in\n    tag_173:\n        /* \"#utility.yul\":4074:4145   */\n      tag_175\n        /* \"#utility.yul\":4138:4144   */\n      dup2\n        /* \"#utility.yul\":4133:4136   */\n      dup6\n        /* \"#utility.yul\":4074:4145   */\n      tag_176\n      jump\t// in\n    tag_175:\n        /* \"#utility.yul\":4067:4145   */\n      swap4\n      pop\n        /* \"#utility.yul\":4154:4206   */\n      tag_177\n        /* \"#utility.yul\":4199:4205   */\n      dup2\n        /* \"#utility.yul\":4194:4197   */\n      dup6\n        /* \"#utility.yul\":4187:4191   */\n      0x20\n        /* \"#utility.yul\":4180:4185   */\n      dup7\n        /* \"#utility.yul\":4176:4192   */\n      add\n        /* \"#utility.yul\":4154:4206   */\n      tag_178\n      jump\t// in\n    tag_177:\n        /* \"#utility.yul\":4231:4260   */\n      tag_179\n        /* \"#utility.yul\":4253:4259   */\n      dup2\n        /* \"#utility.yul\":4231:4260   */\n      tag_180\n      jump\t// in\n    tag_179:\n        /* \"#utility.yul\":4226:4229   */\n      dup5\n        /* \"#utility.yul\":4222:4261   */\n      add\n        /* \"#utility.yul\":4215:4261   */\n      swap2\n      pop\n        /* \"#utility.yul\":3995:4267   */\n      pop\n        /* \"#utility.yul\":3903:4267   */\n      swap3\n      swap2\n      pop\n      pop\n      jump\t// out\n        /* \"#utility.yul\":4273:4650   */\n    tag_181:\n        /* \"#utility.yul\":4379:4382   */\n      0x00\n        /* \"#utility.yul\":4407:4446   */\n      tag_183\n        /* \"#utility.yul\":4440:4445   */\n      dup3\n        /* \"#utility.yul\":4407:4446   */\n      tag_174\n      jump\t// in\n    tag_183:\n        /* \"#utility.yul\":4462:4551   */\n      tag_184\n        /* \"#utility.yul\":4544:4550   */\n      dup2\n        /* \"#utility.yul\":4539:4542   */\n      dup6\n        /* \"#utility.yul\":4462:4551   */\n      tag_185\n      jump\t// in\n    tag_184:\n        /* \"#utility.yul\":4455:4551   */\n      swap4\n      pop\n        /* \"#utility.yul\":4560:4612   */\n      tag_186\n        /* \"#utility.yul\":4605:4611   */\n      dup2\n        /* \"#utility.yul\":4600:4603   */\n      dup6\n        /* \"#utility.yul\":4593:4597   */\n      0x20\n        /* \"#utility.yul\":4586:4591   */\n      dup7\n        /* \"#utility.yul\":4582:4598   */\n      add\n        /* \"#utility.yul\":4560:4612   */\n      tag_178\n      jump\t// in\n    tag_186:\n        /* \"#utility.yul\":4637:4643   */\n      dup1\n        /* \"#utility.yul\":4632:4635   */\n      dup5\n        /* \"#utility.yul\":4628:4644   */\n      add\n        /* \"#utility.yul\":4621:4644   */\n      swap2\n      pop\n        /* \"#utility.yul\":4383:4650   */\n      pop\n        /* \"#utility.yul\":4273:4650   */\n      swap3\n      swap2\n      pop\n      pop\n      jump\t// out\n        /* \"#utility.yul\":4656:5022   */\n    tag_187:\n        /* \"#utility.yul\":4798:4801   */\n      0x00\n        /* \"#utility.yul\":4819:4886   */\n      tag_189\n        /* \"#utility.yul\":4883:4885   */\n      0x26\n        /* \"#utility.yul\":4878:4881   */\n      dup4\n        /* \"#utility.yul\":4819:4886   */\n      tag_176\n      jump\t// in\n    tag_189:\n        /* \"#utility.yul\":4812:4886   */\n      swap2\n      pop\n        /* \"#utility.yul\":4895:4988   */\n      tag_190\n        /* \"#utility.yul\":4984:4987   */\n      dup3\n        /* \"#utility.yul\":4895:4988   */\n      tag_191\n      jump\t// in\n    tag_190:\n        /* \"#utility.yul\":5013:5015   */\n      0x40\n        /* \"#utility.yul\":5008:5011   */\n      dup3\n        /* \"#utility.yul\":5004:5016   */\n      add\n        /* \"#utility.yul\":4997:5016   */\n      swap1\n      pop\n        /* \"#utility.yul\":4656:5022   */\n      swap2\n      swap1\n      pop\n      jump\t// out\n        /* \"#utility.yul\":5028:5394   */\n    tag_192:\n        /* \"#utility.yul\":5170:5173   */\n      0x00\n        /* \"#utility.yul\":5191:5258   */\n      tag_194\n        /* \"#utility.yul\":5255:5257   */\n      0x14\n        /* \"#utility.yul\":5250:5253   */\n      dup4\n        /* \"#utility.yul\":5191:5258   */\n      tag_176\n      jump\t// in\n    tag_194:\n        /* \"#utility.yul\":5184:5258   */\n      swap2\n      pop\n        /* \"#utility.yul\":5267:5360   */\n      tag_195\n        /* \"#utility.yul\":5356:5359   */\n      dup3\n        /* \"#utility.yul\":5267:5360   */\n      tag_196\n      jump\t// in\n    tag_195:\n        /* \"#utility.yul\":5385:5387   */\n      0x20\n        /* \"#utility.yul\":5380:5383   */\n      dup3\n        /* \"#utility.yul\":5376:5388   */\n      add\n        /* \"#utility.yul\":5369:5388   */\n      swap1\n      pop\n        /* \"#utility.yul\":5028:5394   */\n      swap2\n      swap1\n      pop\n      jump\t// out\n        /* \"#utility.yul\":5400:5766   */\n    tag_197:\n        /* \"#utility.yul\":5542:5545   */\n      0x00\n        /* \"#utility.yul\":5563:5630   */\n      tag_199\n        /* \"#utility.yul\":5627:5629   */\n      0x20\n        /* \"#utility.yul\":5622:5625   */\n      dup4\n        /* \"#utility.yul\":5563:5630   */\n      tag_176\n      jump\t// in\n    tag_199:\n        /* \"#utility.yul\":5556:5630   */\n      swap2\n      pop\n        /* \"#utility.yul\":5639:5732   */\n      tag_200\n        /* \"#utility.yul\":5728:5731   */\n      dup3\n        /* \"#utility.yul\":5639:5732   */\n      tag_201\n      jump\t// in\n    tag_200:\n        /* \"#utility.yul\":5757:5759   */\n      0x20\n        /* \"#utility.yul\":5752:5755   */\n      dup3\n        /* \"#utility.yul\":5748:5760   */\n      add\n        /* \"#utility.yul\":5741:5760   */\n      swap1\n      pop\n        /* \"#utility.yul\":5400:5766   */\n      swap2\n      swap1\n      pop\n      jump\t// out\n        /* \"#utility.yul\":5772:6138   */\n    tag_202:\n        /* \"#utility.yul\":5914:5917   */\n      0x00\n        /* \"#utility.yul\":5935:6002   */\n      tag_204\n        /* \"#utility.yul\":5999:6001   */\n      0x1b\n        /* \"#utility.yul\":5994:5997   */\n      dup4\n        /* \"#utility.yul\":5935:6002   */\n      tag_176\n      jump\t// in\n    tag_204:\n        /* \"#utility.yul\":5928:6002   */\n      swap2\n      pop\n        /* \"#utility.yul\":6011:6104   */\n      tag_205\n        /* \"#utility.yul\":6100:6103   */\n      dup3\n        /* \"#utility.yul\":6011:6104   */\n      tag_206\n      jump\t// in\n    tag_205:\n        /* \"#utility.yul\":6129:6131   */\n      0x20\n        /* \"#utility.yul\":6124:6127   */\n      dup3\n        /* \"#utility.yul\":6120:6132   */\n      add\n        /* \"#utility.yul\":6113:6132   */\n      swap1\n      pop\n        /* \"#utility.yul\":5772:6138   */\n      swap2\n      swap1\n      pop\n      jump\t// out\n        /* \"#utility.yul\":6144:6510   */\n    tag_207:\n        /* \"#utility.yul\":6286:6289   */\n      0x00\n        /* \"#utility.yul\":6307:6374   */\n      tag_209\n        /* \"#utility.yul\":6371:6373   */\n      0x2b\n        /* \"#utility.yul\":6366:6369   */\n      dup4\n        /* \"#utility.yul\":6307:6374   */\n      tag_176\n      jump\t// in\n    tag_209:\n        /* \"#utility.yul\":6300:6374   */\n      swap2\n      pop\n        /* \"#utility.yul\":6383:6476   */\n      tag_210\n        /* \"#utility.yul\":6472:6475   */\n      dup3\n        /* \"#utility.yul\":6383:6476   */\n      tag_211\n      jump\t// in\n    tag_210:\n        /* \"#utility.yul\":6501:6503   */\n      0x40\n        /* \"#utility.yul\":6496:6499   */\n      dup3\n        /* \"#utility.yul\":6492:6504   */\n      add\n        /* \"#utility.yul\":6485:6504   */\n      swap1\n      pop\n        /* \"#utility.yul\":6144:6510   */\n      swap2\n      swap1\n      pop\n      jump\t// out\n        /* \"#utility.yul\":6516:6634   */\n    tag_212:\n        /* \"#utility.yul\":6603:6627   */\n      tag_214\n        /* \"#utility.yul\":6621:6626   */\n      dup2\n        /* \"#utility.yul\":6603:6627   */\n      tag_215\n      jump\t// in\n    tag_214:\n        /* \"#utility.yul\":6598:6601   */\n      dup3\n        /* \"#utility.yul\":6591:6628   */\n      mstore\n        /* \"#utility.yul\":6516:6634   */\n      pop\n      pop\n      jump\t// out\n        /* \"#utility.yul\":6640:6797   */\n    tag_216:\n        /* \"#utility.yul\":6745:6790   */\n      tag_218\n        /* \"#utility.yul\":6765:6789   */\n      tag_219\n        /* \"#utility.yul\":6783:6788   */\n      dup3\n        /* \"#utility.yul\":6765:6789   */\n      tag_215\n      jump\t// in\n    tag_219:\n        /* \"#utility.yul\":6745:6790   */\n      tag_220\n      jump\t// in\n    tag_218:\n        /* \"#utility.yul\":6740:6743   */\n      dup3\n        /* \"#utility.yul\":6733:6791   */\n      mstore\n        /* \"#utility.yul\":6640:6797   */\n      pop\n      pop\n      jump\t// out\n        /* \"#utility.yul\":6803:7360   */\n    tag_92:\n        /* \"#utility.yul\":6991:6994   */\n      0x00\n        /* \"#utility.yul\":7006:7081   */\n      tag_222\n        /* \"#utility.yul\":7077:7080   */\n      dup3\n        /* \"#utility.yul\":7068:7074   */\n      dup7\n        /* \"#utility.yul\":7006:7081   */\n      tag_162\n      jump\t// in\n    tag_222:\n        /* \"#utility.yul\":7106:7108   */\n      0x14\n        /* \"#utility.yul\":7101:7104   */\n      dup3\n        /* \"#utility.yul\":7097:7109   */\n      add\n        /* \"#utility.yul\":7090:7109   */\n      swap2\n      pop\n        /* \"#utility.yul\":7119:7194   */\n      tag_223\n        /* \"#utility.yul\":7190:7193   */\n      dup3\n        /* \"#utility.yul\":7181:7187   */\n      dup6\n        /* \"#utility.yul\":7119:7194   */\n      tag_216\n      jump\t// in\n    tag_223:\n        /* \"#utility.yul\":7219:7221   */\n      0x20\n        /* \"#utility.yul\":7214:7217   */\n      dup3\n        /* \"#utility.yul\":7210:7222   */\n      add\n        /* \"#utility.yul\":7203:7222   */\n      swap2\n      pop\n        /* \"#utility.yul\":7239:7334   */\n      tag_224\n        /* \"#utility.yul\":7330:7333   */\n      dup3\n        /* \"#utility.yul\":7321:7327   */\n      dup5\n        /* \"#utility.yul\":7239:7334   */\n      tag_181\n      jump\t// in\n    tag_224:\n        /* \"#utility.yul\":7232:7334   */\n      swap2\n      pop\n        /* \"#utility.yul\":7351:7354   */\n      dup2\n        /* \"#utility.yul\":7344:7354   */\n      swap1\n      pop\n        /* \"#utility.yul\":6803:7360   */\n      swap5\n      swap4\n      pop\n      pop\n      pop\n      pop\n      jump\t// out\n        /* \"#utility.yul\":7366:7588   */\n    tag_20:\n        /* \"#utility.yul\":7459:7463   */\n      0x00\n        /* \"#utility.yul\":7497:7499   */\n      0x20\n        /* \"#utility.yul\":7486:7495   */\n      dup3\n        /* \"#utility.yul\":7482:7500   */\n      add\n        /* \"#utility.yul\":7474:7500   */\n      swap1\n      pop\n        /* \"#utility.yul\":7510:7581   */\n      tag_226\n        /* \"#utility.yul\":7578:7579   */\n      0x00\n        /* \"#utility.yul\":7567:7576   */\n      dup4\n        /* \"#utility.yul\":7563:7580   */\n      add\n        /* \"#utility.yul\":7554:7560   */\n      dup5\n        /* \"#utility.yul\":7510:7581   */\n      tag_158\n      jump\t// in\n    tag_226:\n        /* \"#utility.yul\":7366:7588   */\n      swap3\n      swap2\n      pop\n      pop\n      jump\t// out\n        /* \"#utility.yul\":7594:8013   */\n    tag_86:\n        /* \"#utility.yul\":7760:7764   */\n      0x00\n        /* \"#utility.yul\":7798:7800   */\n      0x20\n        /* \"#utility.yul\":7787:7796   */\n      dup3\n        /* \"#utility.yul\":7783:7801   */\n      add\n        /* \"#utility.yul\":7775:7801   */\n      swap1\n      pop\n        /* \"#utility.yul\":7847:7856   */\n      dup2\n        /* \"#utility.yul\":7841:7845   */\n      dup2\n        /* \"#utility.yul\":7837:7857   */\n      sub\n        /* \"#utility.yul\":7833:7834   */\n      0x00\n        /* \"#utility.yul\":7822:7831   */\n      dup4\n        /* \"#utility.yul\":7818:7835   */\n      add\n        /* \"#utility.yul\":7811:7858   */\n      mstore\n        /* \"#utility.yul\":7875:8006   */\n      tag_228\n        /* \"#utility.yul\":8001:8005   */\n      dup2\n        /* \"#utility.yul\":7875:8006   */\n      tag_187\n      jump\t// in\n    tag_228:\n        /* \"#utility.yul\":7867:8006   */\n      swap1\n      pop\n        /* \"#utility.yul\":7594:8013   */\n      swap2\n      swap1\n      pop\n      jump\t// out\n        /* \"#utility.yul\":8019:8438   */\n    tag_60:\n        /* \"#utility.yul\":8185:8189   */\n      0x00\n        /* \"#utility.yul\":8223:8225   */\n      0x20\n        /* \"#utility.yul\":8212:8221   */\n      dup3\n        /* \"#utility.yul\":8208:8226   */\n      add\n        /* \"#utility.yul\":8200:8226   */\n      swap1\n      pop\n        /* \"#utility.yul\":8272:8281   */\n      dup2\n        /* \"#utility.yul\":8266:8270   */\n      dup2\n        /* \"#utility.yul\":8262:8282   */\n      sub\n        /* \"#utility.yul\":8258:8259   */\n      0x00\n        /* \"#utility.yul\":8247:8256   */\n      dup4\n        /* \"#utility.yul\":8243:8260   */\n      add\n        /* \"#utility.yul\":8236:8283   */\n      mstore\n        /* \"#utility.yul\":8300:8431   */\n      tag_230\n        /* \"#utility.yul\":8426:8430   */\n      dup2\n        /* \"#utility.yul\":8300:8431   */\n      tag_192\n      jump\t// in\n    tag_230:\n        /* \"#utility.yul\":8292:8431   */\n      swap1\n      pop\n        /* \"#utility.yul\":8019:8438   */\n      swap2\n      swap1\n      pop\n      jump\t// out\n        /* \"#utility.yul\":8444:8863   */\n    tag_50:\n        /* \"#utility.yul\":8610:8614   */\n      0x00\n        /* \"#utility.yul\":8648:8650   */\n      0x20\n        /* \"#utility.yul\":8637:8646   */\n      dup3\n        /* \"#utility.yul\":8633:8651   */\n      add\n        /* \"#utility.yul\":8625:8651   */\n      swap1\n      pop\n        /* \"#utility.yul\":8697:8706   */\n      dup2\n        /* \"#utility.yul\":8691:8695   */\n      dup2\n        /* \"#utility.yul\":8687:8707   */\n      sub\n        /* \"#utility.yul\":8683:8684   */\n      0x00\n        /* \"#utility.yul\":8672:8681   */\n      dup4\n        /* \"#utility.yul\":8668:8685   */\n      add\n        /* \"#utility.yul\":8661:8708   */\n      mstore\n        /* \"#utility.yul\":8725:8856   */\n      tag_232\n        /* \"#utility.yul\":8851:8855   */\n      dup2\n        /* \"#utility.yul\":8725:8856   */\n      tag_197\n      jump\t// in\n    tag_232:\n        /* \"#utility.yul\":8717:8856   */\n      swap1\n      pop\n        /* \"#utility.yul\":8444:8863   */\n      swap2\n      swap1\n      pop\n      jump\t// out\n        /* \"#utility.yul\":8869:9288   */\n    tag_65:\n        /* \"#utility.yul\":9035:9039   */\n      0x00\n        /* \"#utility.yul\":9073:9075   */\n      0x20\n        /* \"#utility.yul\":9062:9071   */\n      dup3\n        /* \"#utility.yul\":9058:9076   */\n      add\n        /* \"#utility.yul\":9050:9076   */\n      swap1\n      pop\n        /* \"#utility.yul\":9122:9131   */\n      dup2\n        /* \"#utility.yul\":9116:9120   */\n      dup2\n        /* \"#utility.yul\":9112:9132   */\n      sub\n        /* \"#utility.yul\":9108:9109   */\n      0x00\n        /* \"#utility.yul\":9097:9106   */\n      dup4\n        /* \"#utility.yul\":9093:9110   */\n      add\n        /* \"#utility.yul\":9086:9133   */\n      mstore\n        /* \"#utility.yul\":9150:9281   */\n      tag_234\n        /* \"#utility.yul\":9276:9280   */\n      dup2\n        /* \"#utility.yul\":9150:9281   */\n      tag_202\n      jump\t// in\n    tag_234:\n        /* \"#utility.yul\":9142:9281   */\n      swap1\n      pop\n        /* \"#utility.yul\":8869:9288   */\n      swap2\n      swap1\n      pop\n      jump\t// out\n        /* \"#utility.yul\":9294:9713   */\n    tag_43:\n        /* \"#utility.yul\":9460:9464   */\n      0x00\n        /* \"#utility.yul\":9498:9500   */\n      0x20\n        /* \"#utility.yul\":9487:9496   */\n      dup3\n        /* \"#utility.yul\":9483:9501   */\n      add\n        /* \"#utility.yul\":9475:9501   */\n      swap1\n      pop\n        /* \"#utility.yul\":9547:9556   */\n      dup2\n        /* \"#utility.yul\":9541:9545   */\n      dup2\n        /* \"#utility.yul\":9537:9557   */\n      sub\n        /* \"#utility.yul\":9533:9534   */\n      0x00\n        /* \"#utility.yul\":9522:9531   */\n      dup4\n        /* \"#utility.yul\":9518:9535   */\n      add\n        /* \"#utility.yul\":9511:9558   */\n      mstore\n        /* \"#utility.yul\":9575:9706   */\n      tag_236\n        /* \"#utility.yul\":9701:9705   */\n      dup2\n        /* \"#utility.yul\":9575:9706   */\n      tag_207\n      jump\t// in\n    tag_236:\n        /* \"#utility.yul\":9567:9706   */\n      swap1\n      pop\n        /* \"#utility.yul\":9294:9713   */\n      swap2\n      swap1\n      pop\n      jump\t// out\n        /* \"#utility.yul\":9719:9941   */\n    tag_26:\n        /* \"#utility.yul\":9812:9816   */\n      0x00\n        /* \"#utility.yul\":9850:9852   */\n      0x20\n        /* \"#utility.yul\":9839:9848   */\n      dup3\n        /* \"#utility.yul\":9835:9853   */\n      add\n        /* \"#utility.yul\":9827:9853   */\n      swap1\n      pop\n        /* \"#utility.yul\":9863:9934   */\n      tag_238\n        /* \"#utility.yul\":9931:9932   */\n      0x00\n        /* \"#utility.yul\":9920:9929   */\n      dup4\n        /* \"#utility.yul\":9916:9933   */\n      add\n        /* \"#utility.yul\":9907:9913   */\n      dup5\n        /* \"#utility.yul\":9863:9934   */\n      tag_212\n      jump\t// in\n    tag_238:\n        /* \"#utility.yul\":9719:9941   */\n      swap3\n      swap2\n      pop\n      pop\n      jump\t// out\n        /* \"#utility.yul\":9947:10591   */\n    tag_69:\n        /* \"#utility.yul\":10144:10148   */\n      0x00\n        /* \"#utility.yul\":10182:10185   */\n      0x80\n        /* \"#utility.yul\":10171:10180   */\n      dup3\n        /* \"#utility.yul\":10167:10186   */\n      add\n        /* \"#utility.yul\":10159:10186   */\n      swap1\n      pop\n        /* \"#utility.yul\":10196:10267   */\n      tag_240\n        /* \"#utility.yul\":10264:10265   */\n      0x00\n        /* \"#utility.yul\":10253:10262   */\n      dup4\n        /* \"#utility.yul\":10249:10266   */\n      add\n        /* \"#utility.yul\":10240:10246   */\n      dup8\n        /* \"#utility.yul\":10196:10267   */\n      tag_212\n      jump\t// in\n    tag_240:\n        /* \"#utility.yul\":10277:10349   */\n      tag_241\n        /* \"#utility.yul\":10345:10347   */\n      0x20\n        /* \"#utility.yul\":10334:10343   */\n      dup4\n        /* \"#utility.yul\":10330:10348   */\n      add\n        /* \"#utility.yul\":10321:10327   */\n      dup7\n        /* \"#utility.yul\":10277:10349   */\n      tag_158\n      jump\t// in\n    tag_241:\n        /* \"#utility.yul\":10359:10431   */\n      tag_242\n        /* \"#utility.yul\":10427:10429   */\n      0x40\n        /* \"#utility.yul\":10416:10425   */\n      dup4\n        /* \"#utility.yul\":10412:10430   */\n      add\n        /* \"#utility.yul\":10403:10409   */\n      dup6\n        /* \"#utility.yul\":10359:10431   */\n      tag_212\n      jump\t// in\n    tag_242:\n        /* \"#utility.yul\":10478:10487   */\n      dup2\n        /* \"#utility.yul\":10472:10476   */\n      dup2\n        /* \"#utility.yul\":10468:10488   */\n      sub\n        /* \"#utility.yul\":10463:10465   */\n      0x60\n        /* \"#utility.yul\":10452:10461   */\n      dup4\n        /* \"#utility.yul\":10448:10466   */\n      add\n        /* \"#utility.yul\":10441:10489   */\n      mstore\n        /* \"#utility.yul\":10506:10584   */\n      tag_243\n        /* \"#utility.yul\":10579:10583   */\n      dup2\n        /* \"#utility.yul\":10570:10576   */\n      dup5\n        /* \"#utility.yul\":10506:10584   */\n      tag_171\n      jump\t// in\n    tag_243:\n        /* \"#utility.yul\":10498:10584   */\n      swap1\n      pop\n        /* \"#utility.yul\":9947:10591   */\n      swap6\n      swap5\n      pop\n      pop\n      pop\n      pop\n      pop\n      jump\t// out\n        /* \"#utility.yul\":10597:11451   */\n    tag_31:\n        /* \"#utility.yul\":10844:10848   */\n      0x00\n        /* \"#utility.yul\":10882:10885   */\n      0xc0\n        /* \"#utility.yul\":10871:10880   */\n      dup3\n        /* \"#utility.yul\":10867:10886   */\n      add\n        /* \"#utility.yul\":10859:10886   */\n      swap1\n      pop\n        /* \"#utility.yul\":10896:10967   */\n      tag_245\n        /* \"#utility.yul\":10964:10965   */\n      0x00\n        /* \"#utility.yul\":10953:10962   */\n      dup4\n        /* \"#utility.yul\":10949:10966   */\n      add\n        /* \"#utility.yul\":10940:10946   */\n      dup10\n        /* \"#utility.yul\":10896:10967   */\n      tag_212\n      jump\t// in\n    tag_245:\n        /* \"#utility.yul\":10977:11049   */\n      tag_246\n        /* \"#utility.yul\":11045:11047   */\n      0x20\n        /* \"#utility.yul\":11034:11043   */\n      dup4\n        /* \"#utility.yul\":11030:11048   */\n      add\n        /* \"#utility.yul\":11021:11027   */\n      dup9\n        /* \"#utility.yul\":10977:11049   */\n      tag_212\n      jump\t// in\n    tag_246:\n        /* \"#utility.yul\":11059:11131   */\n      tag_247\n        /* \"#utility.yul\":11127:11129   */\n      0x40\n        /* \"#utility.yul\":11116:11125   */\n      dup4\n        /* \"#utility.yul\":11112:11130   */\n      add\n        /* \"#utility.yul\":11103:11109   */\n      dup8\n        /* \"#utility.yul\":11059:11131   */\n      tag_212\n      jump\t// in\n    tag_247:\n        /* \"#utility.yul\":11141:11213   */\n      tag_248\n        /* \"#utility.yul\":11209:11211   */\n      0x60\n        /* \"#utility.yul\":11198:11207   */\n      dup4\n        /* \"#utility.yul\":11194:11212   */\n      add\n        /* \"#utility.yul\":11185:11191   */\n      dup7\n        /* \"#utility.yul\":11141:11213   */\n      tag_158\n      jump\t// in\n    tag_248:\n        /* \"#utility.yul\":11261:11270   */\n      dup2\n        /* \"#utility.yul\":11255:11259   */\n      dup2\n        /* \"#utility.yul\":11251:11271   */\n      sub\n        /* \"#utility.yul\":11245:11248   */\n      0x80\n        /* \"#utility.yul\":11234:11243   */\n      dup4\n        /* \"#utility.yul\":11230:11249   */\n      add\n        /* \"#utility.yul\":11223:11272   */\n      mstore\n        /* \"#utility.yul\":11289:11367   */\n      tag_249\n        /* \"#utility.yul\":11362:11366   */\n      dup2\n        /* \"#utility.yul\":11353:11359   */\n      dup6\n        /* \"#utility.yul\":11289:11367   */\n      tag_171\n      jump\t// in\n    tag_249:\n        /* \"#utility.yul\":11281:11367   */\n      swap1\n      pop\n        /* \"#utility.yul\":11377:11444   */\n      tag_250\n        /* \"#utility.yul\":11439:11442   */\n      0xa0\n        /* \"#utility.yul\":11428:11437   */\n      dup4\n        /* \"#utility.yul\":11424:11443   */\n      add\n        /* \"#utility.yul\":11415:11421   */\n      dup5\n        /* \"#utility.yul\":11377:11444   */\n      tag_167\n      jump\t// in\n    tag_250:\n        /* \"#utility.yul\":10597:11451   */\n      swap8\n      swap7\n      pop\n      pop\n      pop\n      pop\n      pop\n      pop\n      pop\n      jump\t// out\n        /* \"#utility.yul\":11457:11586   */\n    tag_111:\n        /* \"#utility.yul\":11491:11497   */\n      0x00\n        /* \"#utility.yul\":11518:11538   */\n      tag_252\n      tag_253\n      jump\t// in\n    tag_252:\n        /* \"#utility.yul\":11508:11538   */\n      swap1\n      pop\n        /* \"#utility.yul\":11547:11580   */\n      tag_254\n        /* \"#utility.yul\":11575:11579   */\n      dup3\n        /* \"#utility.yul\":11567:11573   */\n      dup3\n        /* \"#utility.yul\":11547:11580   */\n      tag_255\n      jump\t// in\n    tag_254:\n        /* \"#utility.yul\":11457:11586   */\n      swap2\n      swap1\n      pop\n      jump\t// out\n        /* \"#utility.yul\":11592:11667   */\n    tag_253:\n        /* \"#utility.yul\":11625:11631   */\n      0x00\n        /* \"#utility.yul\":11658:11660   */\n      0x40\n        /* \"#utility.yul\":11652:11661   */\n      mload\n        /* \"#utility.yul\":11642:11661   */\n      swap1\n      pop\n        /* \"#utility.yul\":11592:11667   */\n      swap1\n      jump\t// out\n        /* \"#utility.yul\":11673:11981   */\n    tag_110:\n        /* \"#utility.yul\":11735:11739   */\n      0x00\n        /* \"#utility.yul\":11825:11843   */\n      0xffffffffffffffff\n        /* \"#utility.yul\":11817:11823   */\n      dup3\n        /* \"#utility.yul\":11814:11844   */\n      gt\n        /* \"#utility.yul\":11811:11867   */\n      iszero\n      tag_258\n      jumpi\n        /* \"#utility.yul\":11847:11865   */\n      tag_259\n      tag_260\n      jump\t// in\n    tag_259:\n        /* \"#utility.yul\":11811:11867   */\n    tag_258:\n        /* \"#utility.yul\":11885:11914   */\n      tag_261\n        /* \"#utility.yul\":11907:11913   */\n      dup3\n        /* \"#utility.yul\":11885:11914   */\n      tag_180\n      jump\t// in\n    tag_261:\n        /* \"#utility.yul\":11877:11914   */\n      swap1\n      pop\n        /* \"#utility.yul\":11969:11973   */\n      0x20\n        /* \"#utility.yul\":11963:11967   */\n      dup2\n        /* \"#utility.yul\":11959:11974   */\n      add\n        /* \"#utility.yul\":11951:11974   */\n      swap1\n      pop\n        /* \"#utility.yul\":11673:11981   */\n      swap2\n      swap1\n      pop\n      jump\t// out\n        /* \"#utility.yul\":11987:12086   */\n    tag_174:\n        /* \"#utility.yul\":12039:12045   */\n      0x00\n        /* \"#utility.yul\":12073:12078   */\n      dup2\n        /* \"#utility.yul\":12067:12079   */\n      mload\n        /* \"#utility.yul\":12057:12079   */\n      swap1\n      pop\n        /* \"#utility.yul\":11987:12086   */\n      swap2\n      swap1\n      pop\n      jump\t// out\n        /* \"#utility.yul\":12092:12261   */\n    tag_176:\n        /* \"#utility.yul\":12176:12187   */\n      0x00\n        /* \"#utility.yul\":12210:12216   */\n      dup3\n        /* \"#utility.yul\":12205:12208   */\n      dup3\n        /* \"#utility.yul\":12198:12217   */\n      mstore\n        /* \"#utility.yul\":12250:12254   */\n      0x20\n        /* \"#utility.yul\":12245:12248   */\n      dup3\n        /* \"#utility.yul\":12241:12255   */\n      add\n        /* \"#utility.yul\":12226:12255   */\n      swap1\n      pop\n        /* \"#utility.yul\":12092:12261   */\n      swap3\n      swap2\n      pop\n      pop\n      jump\t// out\n        /* \"#utility.yul\":12267:12415   */\n    tag_185:\n        /* \"#utility.yul\":12369:12380   */\n      0x00\n        /* \"#utility.yul\":12406:12409   */\n      dup2\n        /* \"#utility.yul\":12391:12409   */\n      swap1\n      pop\n        /* \"#utility.yul\":12267:12415   */\n      swap3\n      swap2\n      pop\n      pop\n      jump\t// out\n        /* \"#utility.yul\":12421:12769   */\n    tag_57:\n        /* \"#utility.yul\":12461:12468   */\n      0x00\n        /* \"#utility.yul\":12484:12504   */\n      tag_266\n        /* \"#utility.yul\":12502:12503   */\n      dup3\n        /* \"#utility.yul\":12484:12504   */\n      tag_215\n      jump\t// in\n    tag_266:\n        /* \"#utility.yul\":12479:12504   */\n      swap2\n      pop\n        /* \"#utility.yul\":12518:12538   */\n      tag_267\n        /* \"#utility.yul\":12536:12537   */\n      dup4\n        /* \"#utility.yul\":12518:12538   */\n      tag_215\n      jump\t// in\n    tag_267:\n        /* \"#utility.yul\":12513:12538   */\n      swap3\n      pop\n        /* \"#utility.yul\":12706:12707   */\n      dup2\n        /* \"#utility.yul\":12638:12704   */\n      0xffffffffffffffffffffffffffffffffffffffffffffffffffffffffffffffff\n        /* \"#utility.yul\":12634:12708   */\n      div\n        /* \"#utility.yul\":12631:12632   */\n      dup4\n        /* \"#utility.yul\":12628:12709   */\n      gt\n        /* \"#utility.yul\":12623:12624   */\n      dup3\n        /* \"#utility.yul\":12616:12625   */\n      iszero\n        /* \"#utility.yul\":12609:12626   */\n      iszero\n        /* \"#utility.yul\":12605:12710   */\n      and\n        /* \"#utility.yul\":12602:12733   */\n      iszero\n      tag_268\n      jumpi\n        /* \"#utility.yul\":12713:12731   */\n      tag_269\n      tag_270\n      jump\t// in\n    tag_269:\n        /* \"#utility.yul\":12602:12733   */\n    tag_268:\n        /* \"#utility.yul\":12761:12762   */\n      dup3\n        /* \"#utility.yul\":12758:12759   */\n      dup3\n        /* \"#utility.yul\":12754:12763   */\n      mul\n        /* \"#utility.yul\":12743:12763   */\n      swap1\n      pop\n        /* \"#utility.yul\":12421:12769   */\n      swap3\n      swap2\n      pop\n      pop\n      jump\t// out\n        /* \"#utility.yul\":12775:12871   */\n    tag_161:\n        /* \"#utility.yul\":12812:12819   */\n      0x00\n        /* \"#utility.yul\":12841:12865   */\n      tag_272\n        /* \"#utility.yul\":12859:12864   */\n      dup3\n        /* \"#utility.yul\":12841:12865   */\n      tag_273\n      jump\t// in\n    tag_272:\n        /* \"#utility.yul\":12830:12865   */\n      swap1\n      pop\n        /* \"#utility.yul\":12775:12871   */\n      swap2\n      swap1\n      pop\n      jump\t// out\n        /* \"#utility.yul\":12877:12967   */\n    tag_170:\n        /* \"#utility.yul\":12911:12918   */\n      0x00\n        /* \"#utility.yul\":12954:12959   */\n      dup2\n        /* \"#utility.yul\":12947:12960   */\n      iszero\n        /* \"#utility.yul\":12940:12961   */\n      iszero\n        /* \"#utility.yul\":12929:12961   */\n      swap1\n      pop\n        /* \"#utility.yul\":12877:12967   */\n      swap2\n      swap1\n      pop\n      jump\t// out\n        /* \"#utility.yul\":12973:13099   */\n    tag_273:\n        /* \"#utility.yul\":13010:13017   */\n      0x00\n        /* \"#utility.yul\":13050:13092   */\n      0xffffffffffffffffffffffffffffffffffffffff\n        /* \"#utility.yul\":13043:13048   */\n      dup3\n        /* \"#utility.yul\":13039:13093   */\n      and\n        /* \"#utility.yul\":13028:13093   */\n      swap1\n      pop\n        /* \"#utility.yul\":12973:13099   */\n      swap2\n      swap1\n      pop\n      jump\t// out\n        /* \"#utility.yul\":13105:13182   */\n    tag_215:\n        /* \"#utility.yul\":13142:13149   */\n      0x00\n        /* \"#utility.yul\":13171:13176   */\n      dup2\n        /* \"#utility.yul\":13160:13176   */\n      swap1\n      pop\n        /* \"#utility.yul\":13105:13182   */\n      swap2\n      swap1\n      pop\n      jump\t// out\n        /* \"#utility.yul\":13188:13342   */\n    tag_116:\n        /* \"#utility.yul\":13272:13278   */\n      dup3\n        /* \"#utility.yul\":13267:13270   */\n      dup2\n        /* \"#utility.yul\":13262:13265   */\n      dup4\n        /* \"#utility.yul\":13249:13279   */\n      calldatacopy\n        /* \"#utility.yul\":13334:13335   */\n      0x00\n        /* \"#utility.yul\":13325:13331   */\n      dup4\n        /* \"#utility.yul\":13320:13323   */\n      dup4\n        /* \"#utility.yul\":13316:13332   */\n      add\n        /* \"#utility.yul\":13309:13336   */\n      mstore\n        /* \"#utility.yul\":13188:13342   */\n      pop\n      pop\n      pop\n      jump\t// out\n        /* \"#utility.yul\":13348:13655   */\n    tag_178:\n        /* \"#utility.yul\":13416:13417   */\n      0x00\n        /* \"#utility.yul\":13426:13539   */\n    tag_279:\n        /* \"#utility.yul\":13440:13446   */\n      dup4\n        /* \"#utility.yul\":13437:13438   */\n      dup2\n        /* \"#utility.yul\":13434:13447   */\n      lt\n        /* \"#utility.yul\":13426:13539   */\n      iszero\n      tag_281\n      jumpi\n        /* \"#utility.yul\":13525:13526   */\n      dup1\n        /* \"#utility.yul\":13520:13523   */\n      dup3\n        /* \"#utility.yul\":13516:13527   */\n      add\n        /* \"#utility.yul\":13510:13528   */\n      mload\n        /* \"#utility.yul\":13506:13507   */\n      dup2\n        /* \"#utility.yul\":13501:13504   */\n      dup5\n        /* \"#utility.yul\":13497:13508   */\n      add\n        /* \"#utility.yul\":13490:13529   */\n      mstore\n        /* \"#utility.yul\":13462:13464   */\n      0x20\n        /* \"#utility.yul\":13459:13460   */\n      dup2\n        /* \"#utility.yul\":13455:13465   */\n      add\n        /* \"#utility.yul\":13450:13465   */\n      swap1\n      pop\n        /* \"#utility.yul\":13426:13539   */\n      jump(tag_279)\n    tag_281:\n        /* \"#utility.yul\":13557:13563   */\n      dup4\n        /* \"#utility.yul\":13554:13555   */\n      dup2\n        /* \"#utility.yul\":13551:13564   */\n      gt\n        /* \"#utility.yul\":13548:13649   */\n      iszero\n      tag_282\n      jumpi\n        /* \"#utility.yul\":13637:13638   */\n      0x00\n        /* \"#utility.yul\":13628:13634   */\n      dup5\n        /* \"#utility.yul\":13623:13626   */\n      dup5\n        /* \"#utility.yul\":13619:13635   */\n      add\n        /* \"#utility.yul\":13612:13639   */\n      mstore\n        /* \"#utility.yul\":13548:13649   */\n    tag_282:\n        /* \"#utility.yul\":13397:13655   */\n      pop\n        /* \"#utility.yul\":13348:13655   */\n      pop\n      pop\n      pop\n      jump\t// out\n        /* \"#utility.yul\":13661:13981   */\n    tag_71:\n        /* \"#utility.yul\":13705:13711   */\n      0x00\n        /* \"#utility.yul\":13742:13743   */\n      0x02\n        /* \"#utility.yul\":13736:13740   */\n      dup3\n        /* \"#utility.yul\":13732:13744   */\n      div\n        /* \"#utility.yul\":13722:13744   */\n      swap1\n      pop\n        /* \"#utility.yul\":13789:13790   */\n      0x01\n        /* \"#utility.yul\":13783:13787   */\n      dup3\n        /* \"#utility.yul\":13779:13791   */\n      and\n        /* \"#utility.yul\":13810:13828   */\n      dup1\n        /* \"#utility.yul\":13800:13881   */\n      tag_284\n      jumpi\n        /* \"#utility.yul\":13866:13870   */\n      0x7f\n        /* \"#utility.yul\":13858:13864   */\n      dup3\n        /* \"#utility.yul\":13854:13871   */\n      and\n        /* \"#utility.yul\":13844:13871   */\n      swap2\n      pop\n        /* \"#utility.yul\":13800:13881   */\n    tag_284:\n        /* \"#utility.yul\":13928:13930   */\n      0x20\n        /* \"#utility.yul\":13920:13926   */\n      dup3\n        /* \"#utility.yul\":13917:13931   */\n      lt\n        /* \"#utility.yul\":13897:13915   */\n      dup2\n        /* \"#utility.yul\":13894:13932   */\n      eq\n        /* \"#utility.yul\":13891:13975   */\n      iszero\n      tag_285\n      jumpi\n        /* \"#utility.yul\":13947:13965   */\n      tag_286\n      tag_287\n      jump\t// in\n    tag_286:\n        /* \"#utility.yul\":13891:13975   */\n    tag_285:\n        /* \"#utility.yul\":13712:13981   */\n      pop\n        /* \"#utility.yul\":13661:13981   */\n      swap2\n      swap1\n      pop\n      jump\t// out\n        /* \"#utility.yul\":13987:14268   */\n    tag_255:\n        /* \"#utility.yul\":14070:14097   */\n      tag_289\n        /* \"#utility.yul\":14092:14096   */\n      dup3\n        /* \"#utility.yul\":14070:14097   */\n      tag_180\n      jump\t// in\n    tag_289:\n        /* \"#utility.yul\":14062:14068   */\n      dup2\n        /* \"#utility.yul\":14058:14098   */\n      add\n        /* \"#utility.yul\":14200:14206   */\n      dup2\n        /* \"#utility.yul\":14188:14198   */\n      dup2\n        /* \"#utility.yul\":14185:14207   */\n      lt\n        /* \"#utility.yul\":14164:14182   */\n      0xffffffffffffffff\n        /* \"#utility.yul\":14152:14162   */\n      dup3\n        /* \"#utility.yul\":14149:14183   */\n      gt\n        /* \"#utility.yul\":14146:14208   */\n      or\n        /* \"#utility.yul\":14143:14231   */\n      iszero\n      tag_290\n      jumpi\n        /* \"#utility.yul\":14211:14229   */\n      tag_291\n      tag_260\n      jump\t// in\n    tag_291:\n        /* \"#utility.yul\":14143:14231   */\n    tag_290:\n        /* \"#utility.yul\":14251:14261   */\n      dup1\n        /* \"#utility.yul\":14247:14249   */\n      0x40\n        /* \"#utility.yul\":14240:14262   */\n      mstore\n        /* \"#utility.yul\":14030:14268   */\n      pop\n        /* \"#utility.yul\":13987:14268   */\n      pop\n      pop\n      jump\t// out\n        /* \"#utility.yul\":14274:14374   */\n    tag_166:\n        /* \"#utility.yul\":14313:14320   */\n      0x00\n        /* \"#utility.yul\":14342:14368   */\n      tag_293\n        /* \"#utility.yul\":14362:14367   */\n      dup3\n        /* \"#utility.yul\":14342:14368   */\n      tag_294\n      jump\t// in\n    tag_293:\n        /* \"#utility.yul\":14331:14368   */\n      swap1\n      pop\n        /* \"#utility.yul\":14274:14374   */\n      swap2\n      swap1\n      pop\n      jump\t// out\n        /* \"#utility.yul\":14380:14474   */\n    tag_294:\n        /* \"#utility.yul\":14419:14426   */\n      0x00\n        /* \"#utility.yul\":14448:14468   */\n      tag_296\n        /* \"#utility.yul\":14462:14467   */\n      dup3\n        /* \"#utility.yul\":14448:14468   */\n      tag_297\n      jump\t// in\n    tag_296:\n        /* \"#utility.yul\":14437:14468   */\n      swap1\n      pop\n        /* \"#utility.yul\":14380:14474   */\n      swap2\n      swap1\n      pop\n      jump\t// out\n        /* \"#utility.yul\":14480:14559   */\n    tag_220:\n        /* \"#utility.yul\":14519:14526   */\n      0x00\n        /* \"#utility.yul\":14548:14553   */\n      dup2\n        /* \"#utility.yul\":14537:14553   */\n      swap1\n      pop\n        /* \"#utility.yul\":14480:14559   */\n      swap2\n      swap1\n      pop\n      jump\t// out\n        /* \"#utility.yul\":14565:14741   */\n    tag_94:\n        /* \"#utility.yul\":14597:14598   */\n      0x00\n        /* \"#utility.yul\":14614:14634   */\n      tag_300\n        /* \"#utility.yul\":14632:14633   */\n      dup3\n        /* \"#utility.yul\":14614:14634   */\n      tag_215\n      jump\t// in\n    tag_300:\n        /* \"#utility.yul\":14609:14634   */\n      swap2\n      pop\n        /* \"#utility.yul\":14648:14668   */\n      tag_301\n        /* \"#utility.yul\":14666:14667   */\n      dup4\n        /* \"#utility.yul\":14648:14668   */\n      tag_215\n      jump\t// in\n    tag_301:\n        /* \"#utility.yul\":14643:14668   */\n      swap3\n      pop\n        /* \"#utility.yul\":14687:14688   */\n      dup3\n        /* \"#utility.yul\":14677:14712   */\n      tag_302\n      jumpi\n        /* \"#utility.yul\":14692:14710   */\n      tag_303\n      tag_304\n      jump\t// in\n    tag_303:\n        /* \"#utility.yul\":14677:14712   */\n    tag_302:\n        /* \"#utility.yul\":14733:14734   */\n      dup3\n        /* \"#utility.yul\":14730:14731   */\n      dup3\n        /* \"#utility.yul\":14726:14735   */\n      mod\n        /* \"#utility.yul\":14721:14735   */\n      swap1\n      pop\n        /* \"#utility.yul\":14565:14741   */\n      swap3\n      swap2\n      pop\n      pop\n      jump\t// out\n        /* \"#utility.yul\":14747:14927   */\n    tag_270:\n        /* \"#utility.yul\":14795:14872   */\n      0x4e487b7100000000000000000000000000000000000000000000000000000000\n        /* \"#utility.yul\":14792:14793   */\n      0x00\n        /* \"#utility.yul\":14785:14873   */\n      mstore\n        /* \"#utility.yul\":14892:14896   */\n      0x11\n        /* \"#utility.yul\":14889:14890   */\n      0x04\n        /* \"#utility.yul\":14882:14897   */\n      mstore\n        /* \"#utility.yul\":14916:14920   */\n      0x24\n        /* \"#utility.yul\":14913:14914   */\n      0x00\n        /* \"#utility.yul\":14906:14921   */\n      revert\n        /* \"#utility.yul\":14933:15113   */\n    tag_304:\n        /* \"#utility.yul\":14981:15058   */\n      0x4e487b7100000000000000000000000000000000000000000000000000000000\n        /* \"#utility.yul\":14978:14979   */\n      0x00\n        /* \"#utility.yul\":14971:15059   */\n      mstore\n        /* \"#utility.yul\":15078:15082   */\n      0x12\n        /* \"#utility.yul\":15075:15076   */\n      0x04\n        /* \"#utility.yul\":15068:15083   */\n      mstore\n        /* \"#utility.yul\":15102:15106   */\n      0x24\n        /* \"#utility.yul\":15099:15100   */\n      0x00\n        /* \"#utility.yul\":15092:15107   */\n      revert\n        /* \"#utility.yul\":15119:15299   */\n    tag_287:\n        /* \"#utility.yul\":15167:15244   */\n      0x4e487b7100000000000000000000000000000000000000000000000000000000\n        /* \"#utility.yul\":15164:15165   */\n      0x00\n        /* \"#utility.yul\":15157:15245   */\n      mstore\n        /* \"#utility.yul\":15264:15268   */\n      0x22\n        /* \"#utility.yul\":15261:15262   */\n      0x04\n        /* \"#utility.yul\":15254:15269   */\n      mstore\n        /* \"#utility.yul\":15288:15292   */\n      0x24\n        /* \"#utility.yul\":15285:15286   */\n      0x00\n        /* \"#utility.yul\":15278:15293   */\n      revert\n        /* \"#utility.yul\":15305:15485   */\n    tag_260:\n        /* \"#utility.yul\":15353:15430   */\n      0x4e487b7100000000000000000000000000000000000000000000000000000000\n        /* \"#utility.yul\":15350:15351   */\n      0x00\n        /* \"#utility.yul\":15343:15431   */\n      mstore\n        /* \"#utility.yul\":15450:15454   */\n      0x41\n        /* \"#utility.yul\":15447:15448   */\n      0x04\n        /* \"#utility.yul\":15440:15455   */\n      mstore\n        /* \"#utility.yul\":15474:15478   */\n      0x24\n        /* \"#utility.yul\":15471:15472   */\n      0x00\n        /* \"#utility.yul\":15464:15479   */\n      revert\n        /* \"#utility.yul\":15491:15608   */\n    tag_125:\n        /* \"#utility.yul\":15600:15601   */\n      0x00\n        /* \"#utility.yul\":15597:15598   */\n      dup1\n        /* \"#utility.yul\":15590:15602   */\n      revert\n        /* \"#utility.yul\":15614:15731   */\n    tag_114:\n        /* \"#utility.yul\":15723:15724   */\n      0x00\n        /* \"#utility.yul\":15720:15721   */\n      dup1\n        /* \"#utility.yul\":15713:15725   */\n      revert\n        /* \"#utility.yul\":15737:15854   */\n    tag_148:\n        /* \"#utility.yul\":15846:15847   */\n      0x00\n        /* \"#utility.yul\":15843:15844   */\n      dup1\n        /* \"#utility.yul\":15836:15848   */\n      revert\n        /* \"#utility.yul\":15860:15977   */\n    tag_134:\n        /* \"#utility.yul\":15969:15970   */\n      0x00\n        /* \"#utility.yul\":15966:15967   */\n      dup1\n        /* \"#utility.yul\":15959:15971   */\n      revert\n        /* \"#utility.yul\":15983:16085   */\n    tag_180:\n        /* \"#utility.yul\":16024:16030   */\n      0x00\n        /* \"#utility.yul\":16075:16077   */\n      0x1f\n        /* \"#utility.yul\":16071:16078   */\n      not\n        /* \"#utility.yul\":16066:16068   */\n      0x1f\n        /* \"#utility.yul\":16059:16064   */\n      dup4\n        /* \"#utility.yul\":16055:16069   */\n      add\n        /* \"#utility.yul\":16051:16079   */\n      and\n        /* \"#utility.yul\":16041:16079   */\n      swap1\n      pop\n        /* \"#utility.yul\":15983:16085   */\n      swap2\n      swap1\n      pop\n      jump\t// out\n        /* \"#utility.yul\":16091:16185   */\n    tag_297:\n        /* \"#utility.yul\":16124:16132   */\n      0x00\n        /* \"#utility.yul\":16172:16177   */\n      dup2\n        /* \"#utility.yul\":16168:16170   */\n      0x60\n        /* \"#utility.yul\":16164:16178   */\n      shl\n        /* \"#utility.yul\":16143:16178   */\n      swap1\n      pop\n        /* \"#utility.yul\":16091:16185   */\n      swap2\n      swap1\n      pop\n      jump\t// out\n        /* \"#utility.yul\":16191:16416   */\n    tag_191:\n        /* \"#utility.yul\":16331:16365   */\n      0x4f776e61626c653a206e6577206f776e657220697320746865207a65726f2061\n        /* \"#utility.yul\":16327:16328   */\n      0x00\n        /* \"#utility.yul\":16319:16325   */\n      dup3\n        /* \"#utility.yul\":16315:16329   */\n      add\n        /* \"#utility.yul\":16308:16366   */\n      mstore\n        /* \"#utility.yul\":16400:16408   */\n      0x6464726573730000000000000000000000000000000000000000000000000000\n        /* \"#utility.yul\":16395:16397   */\n      0x20\n        /* \"#utility.yul\":16387:16393   */\n      dup3\n        /* \"#utility.yul\":16383:16398   */\n      add\n        /* \"#utility.yul\":16376:16409   */\n      mstore\n        /* \"#utility.yul\":16191:16416   */\n      pop\n      jump\t// out\n        /* \"#utility.yul\":16422:16592   */\n    tag_196:\n        /* \"#utility.yul\":16562:16584   */\n      0x76616c75652063616e6e6f74206265206e756c6c000000000000000000000000\n        /* \"#utility.yul\":16558:16559   */\n      0x00\n        /* \"#utility.yul\":16550:16556   */\n      dup3\n        /* \"#utility.yul\":16546:16560   */\n      add\n        /* \"#utility.yul\":16539:16585   */\n      mstore\n        /* \"#utility.yul\":16422:16592   */\n      pop\n      jump\t// out\n        /* \"#utility.yul\":16598:16780   */\n    tag_201:\n        /* \"#utility.yul\":16738:16772   */\n      0x4f776e61626c653a2063616c6c6572206973206e6f7420746865206f776e6572\n        /* \"#utility.yul\":16734:16735   */\n      0x00\n        /* \"#utility.yul\":16726:16732   */\n      dup3\n        /* \"#utility.yul\":16722:16736   */\n      add\n        /* \"#utility.yul\":16715:16773   */\n      mstore\n        /* \"#utility.yul\":16598:16780   */\n      pop\n      jump\t// out\n        /* \"#utility.yul\":16786:16963   */\n    tag_206:\n        /* \"#utility.yul\":16926:16955   */\n      0x7468697320686f757365496420616c7265616479206578697374730000000000\n        /* \"#utility.yul\":16922:16923   */\n      0x00\n        /* \"#utility.yul\":16914:16920   */\n      dup3\n        /* \"#utility.yul\":16910:16924   */\n      add\n        /* \"#utility.yul\":16903:16956   */\n      mstore\n        /* \"#utility.yul\":16786:16963   */\n      pop\n      jump\t// out\n        /* \"#utility.yul\":16969:17199   */\n    tag_211:\n        /* \"#utility.yul\":17109:17143   */\n      0x596f7520646f206e6f7420686176652061636365737320746f2064656c657465\n        /* \"#utility.yul\":17105:17106   */\n      0x00\n        /* \"#utility.yul\":17097:17103   */\n      dup3\n        /* \"#utility.yul\":17093:17107   */\n      add\n        /* \"#utility.yul\":17086:17144   */\n      mstore\n        /* \"#utility.yul\":17178:17191   */\n      0x207468697320686f757365000000000000000000000000000000000000000000\n        /* \"#utility.yul\":17173:17175   */\n      0x20\n        /* \"#utility.yul\":17165:17171   */\n      dup3\n        /* \"#utility.yul\":17161:17176   */\n      add\n        /* \"#utility.yul\":17154:17192   */\n      mstore\n        /* \"#utility.yul\":16969:17199   */\n      pop\n      jump\t// out\n        /* \"#utility.yul\":17205:17327   */\n    tag_120:\n        /* \"#utility.yul\":17278:17302   */\n      tag_321\n        /* \"#utility.yul\":17296:17301   */\n      dup2\n        /* \"#utility.yul\":17278:17302   */\n      tag_161\n      jump\t// in\n    tag_321:\n        /* \"#utility.yul\":17271:17276   */\n      dup2\n        /* \"#utility.yul\":17268:17303   */\n      eq\n        /* \"#utility.yul\":17258:17321   */\n      tag_322\n      jumpi\n        /* \"#utility.yul\":17317:17318   */\n      0x00\n        /* \"#utility.yul\":17314:17315   */\n      dup1\n        /* \"#utility.yul\":17307:17319   */\n      revert\n        /* \"#utility.yul\":17258:17321   */\n    tag_322:\n        /* \"#utility.yul\":17205:17327   */\n      pop\n      jump\t// out\n        /* \"#utility.yul\":17333:17455   */\n    tag_130:\n        /* \"#utility.yul\":17406:17430   */\n      tag_324\n        /* \"#utility.yul\":17424:17429   */\n      dup2\n        /* \"#utility.yul\":17406:17430   */\n      tag_215\n      jump\t// in\n    tag_324:\n        /* \"#utility.yul\":17399:17404   */\n      dup2\n        /* \"#utility.yul\":17396:17431   */\n      eq\n        /* \"#utility.yul\":17386:17449   */\n      tag_325\n      jumpi\n        /* \"#utility.yul\":17445:17446   */\n      0x00\n        /* \"#utility.yul\":17442:17443   */\n      dup1\n        /* \"#utility.yul\":17435:17447   */\n      revert\n        /* \"#utility.yul\":17386:17449   */\n    tag_325:\n        /* \"#utility.yul\":17333:17455   */\n      pop\n      jump\t// out\n\n    auxdata: 0xa26469706673582212200693654a4ec4762eaa229fe1b0c36b8417443cff4926dc964814be15083af20b64736f6c63430008070033\n}\n",
				"bytecode": {
					"linkReferences": {},
					"object": "60806040526005600155600154600a6200001a919062000178565b6002553480156200002a57600080fd5b506200004b6200003f6200005160201b60201c565b6200005960201b60201c565b620002fb565b600033905090565b60008060009054906101000a900473ffffffffffffffffffffffffffffffffffffffff169050816000806101000a81548173ffffffffffffffffffffffffffffffffffffffff021916908373ffffffffffffffffffffffffffffffffffffffff1602179055508173ffffffffffffffffffffffffffffffffffffffff168173ffffffffffffffffffffffffffffffffffffffff167f8be0079c531659141344cd1fd0a4f28419497f9722a3daafe3b4186f6b6457e060405160405180910390a35050565b6000808291508390505b60018511156200016f57808604811115620001475762000146620002bf565b5b6001851615620001575780820291505b80810290506200016785620002ee565b945062000127565b94509492505050565b60006200018582620002b5565b91506200019283620002b5565b9250620001c17fffffffffffffffffffffffffffffffffffffffffffffffffffffffffffffffff8484620001c9565b905092915050565b600082620001db5760019050620002ae565b81620001eb5760009050620002ae565b81600181146200020457600281146200020f5762000245565b6001915050620002ae565b60ff841115620002245762000223620002bf565b5b8360020a9150848211156200023e576200023d620002bf565b5b50620002ae565b5060208310610133831016604e8410600b84101617156200027f5782820a905083811115620002795762000278620002bf565b5b620002ae565b6200028e84848460016200011d565b92509050818404811115620002a857620002a7620002bf565b5b81810290505b9392505050565b6000819050919050565b7f4e487b7100000000000000000000000000000000000000000000000000000000600052601160045260246000fd5b60008160011c9050919050565b611248806200030b6000396000f3fe608060405234801561001057600080fd5b506004361061007d5760003560e01c806391bfe0d41161005b57806391bfe0d4146100c6578063aeda852f146100f6578063be40a73e1461012b578063f2fde38b146101475761007d565b80633c3b0b4a14610082578063715018a61461009e5780638da5cb5b146100a8575b600080fd5b61009c60048036038101906100979190610964565b610163565b005b6100a6610239565b005b6100b06102c1565b6040516100bd9190610c30565b60405180910390f35b6100e060048036038101906100db9190610991565b6102ea565b6040516100ed9190610ceb565b60405180910390f35b610110600480360381019061010b9190610964565b6104e8565b60405161012296959493929190610d52565b60405180910390f35b61014560048036038101906101409190610a14565b6105d9565b005b610161600480360381019061015c9190610937565b6105eb565b005b3373ffffffffffffffffffffffffffffffffffffffff166003600083815260200190815260200160002060030160009054906101000a900473ffffffffffffffffffffffffffffffffffffffff1673ffffffffffffffffffffffffffffffffffffffff1614610207576040517f08c379a00000000000000000000000000000000000000000000000000000000081526004016101fe90610ccb565b60405180910390fd5b60016003600083815260200190815260200160002060050160006101000a81548160ff02191690831515021790555050565b6102416106e3565b73ffffffffffffffffffffffffffffffffffffffff1661025f6102c1565b73ffffffffffffffffffffffffffffffffffffffff16146102b5576040517f08c379a00000000000000000000000000000000000000000000000000000000081526004016102ac90610c8b565b60405180910390fd5b6102bf60006106eb565b565b60008060009054906101000a900473ffffffffffffffffffffffffffffffffffffffff16905090565b60008084866102f99190610e37565b11610339576040517f08c379a000000000000000000000000000000000000000000000000000000000815260040161033090610c6b565b60405180910390fd5b60006103468486856107af565b905060036000828152602001908152602001600020600001548114156103a1576040517f08c379a000000000000000000000000000000000000000000000000000000000815260040161039890610cab565b60405180910390fd5b6040518060c001604052808281526020018781526020018681526020018573ffffffffffffffffffffffffffffffffffffffff168152602001848152602001600015158152506003600083815260200190815260200160002060008201518160000155602082015181600101556040820151816002015560608201518160030160006101000a81548173ffffffffffffffffffffffffffffffffffffffff021916908373ffffffffffffffffffffffffffffffffffffffff160217905550608082015181600401908051906020019061047b9291906107fa565b5060a08201518160050160006101000a81548160ff0219169083151502179055509050507f8f5afd88eb4be0ac287d87970052ce9a2b453448408e3c91a695ad7509ab7194818588866040516104d49493929190610d06565b60405180910390a180915050949350505050565b60036020528060005260406000206000915090508060000154908060010154908060020154908060030160009054906101000a900473ffffffffffffffffffffffffffffffffffffffff169080600401805461054390610f1b565b80601f016020809104026020016040519081016040528092919081815260200182805461056f90610f1b565b80156105bc5780601f10610591576101008083540402835291602001916105bc565b820191906000526020600020905b81548152906001019060200180831161059f57829003601f168201915b5050505050908060050160009054906101000a900460ff16905086565b6105e5838333846102ea565b50505050565b6105f36106e3565b73ffffffffffffffffffffffffffffffffffffffff166106116102c1565b73ffffffffffffffffffffffffffffffffffffffff1614610667576040517f08c379a000000000000000000000000000000000000000000000000000000000815260040161065e90610c8b565b60405180910390fd5b600073ffffffffffffffffffffffffffffffffffffffff168173ffffffffffffffffffffffffffffffffffffffff1614156106d7576040517f08c379a00000000000000000000000000000000000000000000000000000000081526004016106ce90610c4b565b60405180910390fd5b6106e0816106eb565b50565b600033905090565b60008060009054906101000a900473ffffffffffffffffffffffffffffffffffffffff169050816000806101000a81548173ffffffffffffffffffffffffffffffffffffffff021916908373ffffffffffffffffffffffffffffffffffffffff1602179055508173ffffffffffffffffffffffffffffffffffffffff168173ffffffffffffffffffffffffffffffffffffffff167f8be0079c531659141344cd1fd0a4f28419497f9722a3daafe3b4186f6b6457e060405160405180910390a35050565b6000808484846040516020016107c793929190610bf7565b6040516020818303038152906040528051906020012060001c9050600254816107f09190610fac565b9150509392505050565b82805461080690610f1b565b90600052602060002090601f016020900481019282610828576000855561086f565b82601f1061084157805160ff191683800117855561086f565b8280016001018555821561086f579182015b8281111561086e578251825591602001919060010190610853565b5b50905061087c9190610880565b5090565b5b80821115610899576000816000905550600101610881565b5090565b60006108b06108ab84610ddf565b610dba565b9050828152602081018484840111156108cc576108cb61109e565b5b6108d7848285610ed9565b509392505050565b6000813590506108ee816111e4565b92915050565b600082601f83011261090957610908611099565b5b813561091984826020860161089d565b91505092915050565b600081359050610931816111fb565b92915050565b60006020828403121561094d5761094c6110a8565b5b600061095b848285016108df565b91505092915050565b60006020828403121561097a576109796110a8565b5b600061098884828501610922565b91505092915050565b600080600080608085870312156109ab576109aa6110a8565b5b60006109b987828801610922565b94505060206109ca87828801610922565b93505060406109db878288016108df565b925050606085013567ffffffffffffffff8111156109fc576109fb6110a3565b5b610a08878288016108f4565b91505092959194509250565b600080600060608486031215610a2d57610a2c6110a8565b5b6000610a3b86828701610922565b9350506020610a4c86828701610922565b925050604084013567ffffffffffffffff811115610a6d57610a6c6110a3565b5b610a79868287016108f4565b9150509250925092565b610a8c81610e91565b82525050565b610aa3610a9e82610e91565b610f7e565b82525050565b610ab281610ea3565b82525050565b6000610ac382610e10565b610acd8185610e1b565b9350610add818560208601610ee8565b610ae6816110ad565b840191505092915050565b6000610afc82610e10565b610b068185610e2c565b9350610b16818560208601610ee8565b80840191505092915050565b6000610b2f602683610e1b565b9150610b3a826110cb565b604082019050919050565b6000610b52601483610e1b565b9150610b5d8261111a565b602082019050919050565b6000610b75602083610e1b565b9150610b8082611143565b602082019050919050565b6000610b98601b83610e1b565b9150610ba38261116c565b602082019050919050565b6000610bbb602b83610e1b565b9150610bc682611195565b604082019050919050565b610bda81610ecf565b82525050565b610bf1610bec82610ecf565b610fa2565b82525050565b6000610c038286610a92565b601482019150610c138285610be0565b602082019150610c238284610af1565b9150819050949350505050565b6000602082019050610c456000830184610a83565b92915050565b60006020820190508181036000830152610c6481610b22565b9050919050565b60006020820190508181036000830152610c8481610b45565b9050919050565b60006020820190508181036000830152610ca481610b68565b9050919050565b60006020820190508181036000830152610cc481610b8b565b9050919050565b60006020820190508181036000830152610ce481610bae565b9050919050565b6000602082019050610d006000830184610bd1565b92915050565b6000608082019050610d1b6000830187610bd1565b610d286020830186610a83565b610d356040830185610bd1565b8181036060830152610d478184610ab8565b905095945050505050565b600060c082019050610d676000830189610bd1565b610d746020830188610bd1565b610d816040830187610bd1565b610d8e6060830186610a83565b8181036080830152610da08185610ab8565b9050610daf60a0830184610aa9565b979650505050505050565b6000610dc4610dd5565b9050610dd08282610f4d565b919050565b6000604051905090565b600067ffffffffffffffff821115610dfa57610df961106a565b5b610e03826110ad565b9050602081019050919050565b600081519050919050565b600082825260208201905092915050565b600081905092915050565b6000610e4282610ecf565b9150610e4d83610ecf565b9250817fffffffffffffffffffffffffffffffffffffffffffffffffffffffffffffffff0483118215151615610e8657610e85610fdd565b5b828202905092915050565b6000610e9c82610eaf565b9050919050565b60008115159050919050565b600073ffffffffffffffffffffffffffffffffffffffff82169050919050565b6000819050919050565b82818337600083830152505050565b60005b83811015610f06578082015181840152602081019050610eeb565b83811115610f15576000848401525b50505050565b60006002820490506001821680610f3357607f821691505b60208210811415610f4757610f4661103b565b5b50919050565b610f56826110ad565b810181811067ffffffffffffffff82111715610f7557610f7461106a565b5b80604052505050565b6000610f8982610f90565b9050919050565b6000610f9b826110be565b9050919050565b6000819050919050565b6000610fb782610ecf565b9150610fc283610ecf565b925082610fd257610fd161100c565b5b828206905092915050565b7f4e487b7100000000000000000000000000000000000000000000000000000000600052601160045260246000fd5b7f4e487b7100000000000000000000000000000000000000000000000000000000600052601260045260246000fd5b7f4e487b7100000000000000000000000000000000000000000000000000000000600052602260045260246000fd5b7f4e487b7100000000000000000000000000000000000000000000000000000000600052604160045260246000fd5b600080fd5b600080fd5b600080fd5b600080fd5b6000601f19601f8301169050919050565b60008160601b9050919050565b7f4f776e61626c653a206e6577206f776e657220697320746865207a65726f206160008201527f6464726573730000000000000000000000000000000000000000000000000000602082015250565b7f76616c75652063616e6e6f74206265206e756c6c000000000000000000000000600082015250565b7f4f776e61626c653a2063616c6c6572206973206e6f7420746865206f776e6572600082015250565b7f7468697320686f757365496420616c7265616479206578697374730000000000600082015250565b7f596f7520646f206e6f7420686176652061636365737320746f2064656c65746560008201527f207468697320686f757365000000000000000000000000000000000000000000602082015250565b6111ed81610e91565b81146111f857600080fd5b50565b61120481610ecf565b811461120f57600080fd5b5056fea26469706673582212200693654a4ec4762eaa229fe1b0c36b8417443cff4926dc964814be15083af20b64736f6c63430008070033",
					"opcodes": "PUSH1 0x80 PUSH1 0x40 MSTORE PUSH1 0x5 PUSH1 0x1 SSTORE PUSH1 0x1 SLOAD PUSH1 0xA PUSH3 0x1A SWAP2 SWAP1 PUSH3 0x178 JUMP JUMPDEST PUSH1 0x2 SSTORE CALLVALUE DUP1 ISZERO PUSH3 0x2A JUMPI PUSH1 0x0 DUP1 REVERT JUMPDEST POP PUSH3 0x4B PUSH3 0x3F PUSH3 0x51 PUSH1 0x20 SHL PUSH1 0x20 SHR JUMP JUMPDEST PUSH3 0x59 PUSH1 0x20 SHL PUSH1 0x20 SHR JUMP JUMPDEST PUSH3 0x2FB JUMP JUMPDEST PUSH1 0x0 CALLER SWAP1 POP SWAP1 JUMP JUMPDEST PUSH1 0x0 DUP1 PUSH1 0x0 SWAP1 SLOAD SWAP1 PUSH2 0x100 EXP SWAP1 DIV PUSH20 0xFFFFFFFFFFFFFFFFFFFFFFFFFFFFFFFFFFFFFFFF AND SWAP1 POP DUP2 PUSH1 0x0 DUP1 PUSH2 0x100 EXP DUP2 SLOAD DUP2 PUSH20 0xFFFFFFFFFFFFFFFFFFFFFFFFFFFFFFFFFFFFFFFF MUL NOT AND SWAP1 DUP4 PUSH20 0xFFFFFFFFFFFFFFFFFFFFFFFFFFFFFFFFFFFFFFFF AND MUL OR SWAP1 SSTORE POP DUP2 PUSH20 0xFFFFFFFFFFFFFFFFFFFFFFFFFFFFFFFFFFFFFFFF AND DUP2 PUSH20 0xFFFFFFFFFFFFFFFFFFFFFFFFFFFFFFFFFFFFFFFF AND PUSH32 0x8BE0079C531659141344CD1FD0A4F28419497F9722A3DAAFE3B4186F6B6457E0 PUSH1 0x40 MLOAD PUSH1 0x40 MLOAD DUP1 SWAP2 SUB SWAP1 LOG3 POP POP JUMP JUMPDEST PUSH1 0x0 DUP1 DUP3 SWAP2 POP DUP4 SWAP1 POP JUMPDEST PUSH1 0x1 DUP6 GT ISZERO PUSH3 0x16F JUMPI DUP1 DUP7 DIV DUP2 GT ISZERO PUSH3 0x147 JUMPI PUSH3 0x146 PUSH3 0x2BF JUMP JUMPDEST JUMPDEST PUSH1 0x1 DUP6 AND ISZERO PUSH3 0x157 JUMPI DUP1 DUP3 MUL SWAP2 POP JUMPDEST DUP1 DUP2 MUL SWAP1 POP PUSH3 0x167 DUP6 PUSH3 0x2EE JUMP JUMPDEST SWAP5 POP PUSH3 0x127 JUMP JUMPDEST SWAP5 POP SWAP5 SWAP3 POP POP POP JUMP JUMPDEST PUSH1 0x0 PUSH3 0x185 DUP3 PUSH3 0x2B5 JUMP JUMPDEST SWAP2 POP PUSH3 0x192 DUP4 PUSH3 0x2B5 JUMP JUMPDEST SWAP3 POP PUSH3 0x1C1 PUSH32 0xFFFFFFFFFFFFFFFFFFFFFFFFFFFFFFFFFFFFFFFFFFFFFFFFFFFFFFFFFFFFFFFF DUP5 DUP5 PUSH3 0x1C9 JUMP JUMPDEST SWAP1 POP SWAP3 SWAP2 POP POP JUMP JUMPDEST PUSH1 0x0 DUP3 PUSH3 0x1DB JUMPI PUSH1 0x1 SWAP1 POP PUSH3 0x2AE JUMP JUMPDEST DUP2 PUSH3 0x1EB JUMPI PUSH1 0x0 SWAP1 POP PUSH3 0x2AE JUMP JUMPDEST DUP2 PUSH1 0x1 DUP2 EQ PUSH3 0x204 JUMPI PUSH1 0x2 DUP2 EQ PUSH3 0x20F JUMPI PUSH3 0x245 JUMP JUMPDEST PUSH1 0x1 SWAP2 POP POP PUSH3 0x2AE JUMP JUMPDEST PUSH1 0xFF DUP5 GT ISZERO PUSH3 0x224 JUMPI PUSH3 0x223 PUSH3 0x2BF JUMP JUMPDEST JUMPDEST DUP4 PUSH1 0x2 EXP SWAP2 POP DUP5 DUP3 GT ISZERO PUSH3 0x23E JUMPI PUSH3 0x23D PUSH3 0x2BF JUMP JUMPDEST JUMPDEST POP PUSH3 0x2AE JUMP JUMPDEST POP PUSH1 0x20 DUP4 LT PUSH2 0x133 DUP4 LT AND PUSH1 0x4E DUP5 LT PUSH1 0xB DUP5 LT AND OR ISZERO PUSH3 0x27F JUMPI DUP3 DUP3 EXP SWAP1 POP DUP4 DUP2 GT ISZERO PUSH3 0x279 JUMPI PUSH3 0x278 PUSH3 0x2BF JUMP JUMPDEST JUMPDEST PUSH3 0x2AE JUMP JUMPDEST PUSH3 0x28E DUP5 DUP5 DUP5 PUSH1 0x1 PUSH3 0x11D JUMP JUMPDEST SWAP3 POP SWAP1 POP DUP2 DUP5 DIV DUP2 GT ISZERO PUSH3 0x2A8 JUMPI PUSH3 0x2A7 PUSH3 0x2BF JUMP JUMPDEST JUMPDEST DUP2 DUP2 MUL SWAP1 POP JUMPDEST SWAP4 SWAP3 POP POP POP JUMP JUMPDEST PUSH1 0x0 DUP2 SWAP1 POP SWAP2 SWAP1 POP JUMP JUMPDEST PUSH32 0x4E487B7100000000000000000000000000000000000000000000000000000000 PUSH1 0x0 MSTORE PUSH1 0x11 PUSH1 0x4 MSTORE PUSH1 0x24 PUSH1 0x0 REVERT JUMPDEST PUSH1 0x0 DUP2 PUSH1 0x1 SHR SWAP1 POP SWAP2 SWAP1 POP JUMP JUMPDEST PUSH2 0x1248 DUP1 PUSH3 0x30B PUSH1 0x0 CODECOPY PUSH1 0x0 RETURN INVALID PUSH1 0x80 PUSH1 0x40 MSTORE CALLVALUE DUP1 ISZERO PUSH2 0x10 JUMPI PUSH1 0x0 DUP1 REVERT JUMPDEST POP PUSH1 0x4 CALLDATASIZE LT PUSH2 0x7D JUMPI PUSH1 0x0 CALLDATALOAD PUSH1 0xE0 SHR DUP1 PUSH4 0x91BFE0D4 GT PUSH2 0x5B JUMPI DUP1 PUSH4 0x91BFE0D4 EQ PUSH2 0xC6 JUMPI DUP1 PUSH4 0xAEDA852F EQ PUSH2 0xF6 JUMPI DUP1 PUSH4 0xBE40A73E EQ PUSH2 0x12B JUMPI DUP1 PUSH4 0xF2FDE38B EQ PUSH2 0x147 JUMPI PUSH2 0x7D JUMP JUMPDEST DUP1 PUSH4 0x3C3B0B4A EQ PUSH2 0x82 JUMPI DUP1 PUSH4 0x715018A6 EQ PUSH2 0x9E JUMPI DUP1 PUSH4 0x8DA5CB5B EQ PUSH2 0xA8 JUMPI JUMPDEST PUSH1 0x0 DUP1 REVERT JUMPDEST PUSH2 0x9C PUSH1 0x4 DUP1 CALLDATASIZE SUB DUP2 ADD SWAP1 PUSH2 0x97 SWAP2 SWAP1 PUSH2 0x964 JUMP JUMPDEST PUSH2 0x163 JUMP JUMPDEST STOP JUMPDEST PUSH2 0xA6 PUSH2 0x239 JUMP JUMPDEST STOP JUMPDEST PUSH2 0xB0 PUSH2 0x2C1 JUMP JUMPDEST PUSH1 0x40 MLOAD PUSH2 0xBD SWAP2 SWAP1 PUSH2 0xC30 JUMP JUMPDEST PUSH1 0x40 MLOAD DUP1 SWAP2 SUB SWAP1 RETURN JUMPDEST PUSH2 0xE0 PUSH1 0x4 DUP1 CALLDATASIZE SUB DUP2 ADD SWAP1 PUSH2 0xDB SWAP2 SWAP1 PUSH2 0x991 JUMP JUMPDEST PUSH2 0x2EA JUMP JUMPDEST PUSH1 0x40 MLOAD PUSH2 0xED SWAP2 SWAP1 PUSH2 0xCEB JUMP JUMPDEST PUSH1 0x40 MLOAD DUP1 SWAP2 SUB SWAP1 RETURN JUMPDEST PUSH2 0x110 PUSH1 0x4 DUP1 CALLDATASIZE SUB DUP2 ADD SWAP1 PUSH2 0x10B SWAP2 SWAP1 PUSH2 0x964 JUMP JUMPDEST PUSH2 0x4E8 JUMP JUMPDEST PUSH1 0x40 MLOAD PUSH2 0x122 SWAP7 SWAP6 SWAP5 SWAP4 SWAP3 SWAP2 SWAP1 PUSH2 0xD52 JUMP JUMPDEST PUSH1 0x40 MLOAD DUP1 SWAP2 SUB SWAP1 RETURN JUMPDEST PUSH2 0x145 PUSH1 0x4 DUP1 CALLDATASIZE SUB DUP2 ADD SWAP1 PUSH2 0x140 SWAP2 SWAP1 PUSH2 0xA14 JUMP JUMPDEST PUSH2 0x5D9 JUMP JUMPDEST STOP JUMPDEST PUSH2 0x161 PUSH1 0x4 DUP1 CALLDATASIZE SUB DUP2 ADD SWAP1 PUSH2 0x15C SWAP2 SWAP1 PUSH2 0x937 JUMP JUMPDEST PUSH2 0x5EB JUMP JUMPDEST STOP JUMPDEST CALLER PUSH20 0xFFFFFFFFFFFFFFFFFFFFFFFFFFFFFFFFFFFFFFFF AND PUSH1 0x3 PUSH1 0x0 DUP4 DUP2 MSTORE PUSH1 0x20 ADD SWAP1 DUP2 MSTORE PUSH1 0x20 ADD PUSH1 0x0 KECCAK256 PUSH1 0x3 ADD PUSH1 0x0 SWAP1 SLOAD SWAP1 PUSH2 0x100 EXP SWAP1 DIV PUSH20 0xFFFFFFFFFFFFFFFFFFFFFFFFFFFFFFFFFFFFFFFF AND PUSH20 0xFFFFFFFFFFFFFFFFFFFFFFFFFFFFFFFFFFFFFFFF AND EQ PUSH2 0x207 JUMPI PUSH1 0x40 MLOAD PUSH32 0x8C379A000000000000000000000000000000000000000000000000000000000 DUP2 MSTORE PUSH1 0x4 ADD PUSH2 0x1FE SWAP1 PUSH2 0xCCB JUMP JUMPDEST PUSH1 0x40 MLOAD DUP1 SWAP2 SUB SWAP1 REVERT JUMPDEST PUSH1 0x1 PUSH1 0x3 PUSH1 0x0 DUP4 DUP2 MSTORE PUSH1 0x20 ADD SWAP1 DUP2 MSTORE PUSH1 0x20 ADD PUSH1 0x0 KECCAK256 PUSH1 0x5 ADD PUSH1 0x0 PUSH2 0x100 EXP DUP2 SLOAD DUP2 PUSH1 0xFF MUL NOT AND SWAP1 DUP4 ISZERO ISZERO MUL OR SWAP1 SSTORE POP POP JUMP JUMPDEST PUSH2 0x241 PUSH2 0x6E3 JUMP JUMPDEST PUSH20 0xFFFFFFFFFFFFFFFFFFFFFFFFFFFFFFFFFFFFFFFF AND PUSH2 0x25F PUSH2 0x2C1 JUMP JUMPDEST PUSH20 0xFFFFFFFFFFFFFFFFFFFFFFFFFFFFFFFFFFFFFFFF AND EQ PUSH2 0x2B5 JUMPI PUSH1 0x40 MLOAD PUSH32 0x8C379A000000000000000000000000000000000000000000000000000000000 DUP2 MSTORE PUSH1 0x4 ADD PUSH2 0x2AC SWAP1 PUSH2 0xC8B JUMP JUMPDEST PUSH1 0x40 MLOAD DUP1 SWAP2 SUB SWAP1 REVERT JUMPDEST PUSH2 0x2BF PUSH1 0x0 PUSH2 0x6EB JUMP JUMPDEST JUMP JUMPDEST PUSH1 0x0 DUP1 PUSH1 0x0 SWAP1 SLOAD SWAP1 PUSH2 0x100 EXP SWAP1 DIV PUSH20 0xFFFFFFFFFFFFFFFFFFFFFFFFFFFFFFFFFFFFFFFF AND SWAP1 POP SWAP1 JUMP JUMPDEST PUSH1 0x0 DUP1 DUP5 DUP7 PUSH2 0x2F9 SWAP2 SWAP1 PUSH2 0xE37 JUMP JUMPDEST GT PUSH2 0x339 JUMPI PUSH1 0x40 MLOAD PUSH32 0x8C379A000000000000000000000000000000000000000000000000000000000 DUP2 MSTORE PUSH1 0x4 ADD PUSH2 0x330 SWAP1 PUSH2 0xC6B JUMP JUMPDEST PUSH1 0x40 MLOAD DUP1 SWAP2 SUB SWAP1 REVERT JUMPDEST PUSH1 0x0 PUSH2 0x346 DUP5 DUP7 DUP6 PUSH2 0x7AF JUMP JUMPDEST SWAP1 POP PUSH1 0x3 PUSH1 0x0 DUP3 DUP2 MSTORE PUSH1 0x20 ADD SWAP1 DUP2 MSTORE PUSH1 0x20 ADD PUSH1 0x0 KECCAK256 PUSH1 0x0 ADD SLOAD DUP2 EQ ISZERO PUSH2 0x3A1 JUMPI PUSH1 0x40 MLOAD PUSH32 0x8C379A000000000000000000000000000000000000000000000000000000000 DUP2 MSTORE PUSH1 0x4 ADD PUSH2 0x398 SWAP1 PUSH2 0xCAB JUMP JUMPDEST PUSH1 0x40 MLOAD DUP1 SWAP2 SUB SWAP1 REVERT JUMPDEST PUSH1 0x40 MLOAD DUP1 PUSH1 0xC0 ADD PUSH1 0x40 MSTORE DUP1 DUP3 DUP2 MSTORE PUSH1 0x20 ADD DUP8 DUP2 MSTORE PUSH1 0x20 ADD DUP7 DUP2 MSTORE PUSH1 0x20 ADD DUP6 PUSH20 0xFFFFFFFFFFFFFFFFFFFFFFFFFFFFFFFFFFFFFFFF AND DUP2 MSTORE PUSH1 0x20 ADD DUP5 DUP2 MSTORE PUSH1 0x20 ADD PUSH1 0x0 ISZERO ISZERO DUP2 MSTORE POP PUSH1 0x3 PUSH1 0x0 DUP4 DUP2 MSTORE PUSH1 0x20 ADD SWAP1 DUP2 MSTORE PUSH1 0x20 ADD PUSH1 0x0 KECCAK256 PUSH1 0x0 DUP3 ADD MLOAD DUP2 PUSH1 0x0 ADD SSTORE PUSH1 0x20 DUP3 ADD MLOAD DUP2 PUSH1 0x1 ADD SSTORE PUSH1 0x40 DUP3 ADD MLOAD DUP2 PUSH1 0x2 ADD SSTORE PUSH1 0x60 DUP3 ADD MLOAD DUP2 PUSH1 0x3 ADD PUSH1 0x0 PUSH2 0x100 EXP DUP2 SLOAD DUP2 PUSH20 0xFFFFFFFFFFFFFFFFFFFFFFFFFFFFFFFFFFFFFFFF MUL NOT AND SWAP1 DUP4 PUSH20 0xFFFFFFFFFFFFFFFFFFFFFFFFFFFFFFFFFFFFFFFF AND MUL OR SWAP1 SSTORE POP PUSH1 0x80 DUP3 ADD MLOAD DUP2 PUSH1 0x4 ADD SWAP1 DUP1 MLOAD SWAP1 PUSH1 0x20 ADD SWAP1 PUSH2 0x47B SWAP3 SWAP2 SWAP1 PUSH2 0x7FA JUMP JUMPDEST POP PUSH1 0xA0 DUP3 ADD MLOAD DUP2 PUSH1 0x5 ADD PUSH1 0x0 PUSH2 0x100 EXP DUP2 SLOAD DUP2 PUSH1 0xFF MUL NOT AND SWAP1 DUP4 ISZERO ISZERO MUL OR SWAP1 SSTORE POP SWAP1 POP POP PUSH32 0x8F5AFD88EB4BE0AC287D87970052CE9A2B453448408E3C91A695AD7509AB7194 DUP2 DUP6 DUP9 DUP7 PUSH1 0x40 MLOAD PUSH2 0x4D4 SWAP5 SWAP4 SWAP3 SWAP2 SWAP1 PUSH2 0xD06 JUMP JUMPDEST PUSH1 0x40 MLOAD DUP1 SWAP2 SUB SWAP1 LOG1 DUP1 SWAP2 POP POP SWAP5 SWAP4 POP POP POP POP JUMP JUMPDEST PUSH1 0x3 PUSH1 0x20 MSTORE DUP1 PUSH1 0x0 MSTORE PUSH1 0x40 PUSH1 0x0 KECCAK256 PUSH1 0x0 SWAP2 POP SWAP1 POP DUP1 PUSH1 0x0 ADD SLOAD SWAP1 DUP1 PUSH1 0x1 ADD SLOAD SWAP1 DUP1 PUSH1 0x2 ADD SLOAD SWAP1 DUP1 PUSH1 0x3 ADD PUSH1 0x0 SWAP1 SLOAD SWAP1 PUSH2 0x100 EXP SWAP1 DIV PUSH20 0xFFFFFFFFFFFFFFFFFFFFFFFFFFFFFFFFFFFFFFFF AND SWAP1 DUP1 PUSH1 0x4 ADD DUP1 SLOAD PUSH2 0x543 SWAP1 PUSH2 0xF1B JUMP JUMPDEST DUP1 PUSH1 0x1F ADD PUSH1 0x20 DUP1 SWAP2 DIV MUL PUSH1 0x20 ADD PUSH1 0x40 MLOAD SWAP1 DUP2 ADD PUSH1 0x40 MSTORE DUP1 SWAP3 SWAP2 SWAP1 DUP2 DUP2 MSTORE PUSH1 0x20 ADD DUP3 DUP1 SLOAD PUSH2 0x56F SWAP1 PUSH2 0xF1B JUMP JUMPDEST DUP1 ISZERO PUSH2 0x5BC JUMPI DUP1 PUSH1 0x1F LT PUSH2 0x591 JUMPI PUSH2 0x100 DUP1 DUP4 SLOAD DIV MUL DUP4 MSTORE SWAP2 PUSH1 0x20 ADD SWAP2 PUSH2 0x5BC JUMP JUMPDEST DUP3 ADD SWAP2 SWAP1 PUSH1 0x0 MSTORE PUSH1 0x20 PUSH1 0x0 KECCAK256 SWAP1 JUMPDEST DUP2 SLOAD DUP2 MSTORE SWAP1 PUSH1 0x1 ADD SWAP1 PUSH1 0x20 ADD DUP1 DUP4 GT PUSH2 0x59F JUMPI DUP3 SWAP1 SUB PUSH1 0x1F AND DUP3 ADD SWAP2 JUMPDEST POP POP POP POP POP SWAP1 DUP1 PUSH1 0x5 ADD PUSH1 0x0 SWAP1 SLOAD SWAP1 PUSH2 0x100 EXP SWAP1 DIV PUSH1 0xFF AND SWAP1 POP DUP7 JUMP JUMPDEST PUSH2 0x5E5 DUP4 DUP4 CALLER DUP5 PUSH2 0x2EA JUMP JUMPDEST POP POP POP POP JUMP JUMPDEST PUSH2 0x5F3 PUSH2 0x6E3 JUMP JUMPDEST PUSH20 0xFFFFFFFFFFFFFFFFFFFFFFFFFFFFFFFFFFFFFFFF AND PUSH2 0x611 PUSH2 0x2C1 JUMP JUMPDEST PUSH20 0xFFFFFFFFFFFFFFFFFFFFFFFFFFFFFFFFFFFFFFFF AND EQ PUSH2 0x667 JUMPI PUSH1 0x40 MLOAD PUSH32 0x8C379A000000000000000000000000000000000000000000000000000000000 DUP2 MSTORE PUSH1 0x4 ADD PUSH2 0x65E SWAP1 PUSH2 0xC8B JUMP JUMPDEST PUSH1 0x40 MLOAD DUP1 SWAP2 SUB SWAP1 REVERT JUMPDEST PUSH1 0x0 PUSH20 0xFFFFFFFFFFFFFFFFFFFFFFFFFFFFFFFFFFFFFFFF AND DUP2 PUSH20 0xFFFFFFFFFFFFFFFFFFFFFFFFFFFFFFFFFFFFFFFF AND EQ ISZERO PUSH2 0x6D7 JUMPI PUSH1 0x40 MLOAD PUSH32 0x8C379A000000000000000000000000000000000000000000000000000000000 DUP2 MSTORE PUSH1 0x4 ADD PUSH2 0x6CE SWAP1 PUSH2 0xC4B JUMP JUMPDEST PUSH1 0x40 MLOAD DUP1 SWAP2 SUB SWAP1 REVERT JUMPDEST PUSH2 0x6E0 DUP2 PUSH2 0x6EB JUMP JUMPDEST POP JUMP JUMPDEST PUSH1 0x0 CALLER SWAP1 POP SWAP1 JUMP JUMPDEST PUSH1 0x0 DUP1 PUSH1 0x0 SWAP1 SLOAD SWAP1 PUSH2 0x100 EXP SWAP1 DIV PUSH20 0xFFFFFFFFFFFFFFFFFFFFFFFFFFFFFFFFFFFFFFFF AND SWAP1 POP DUP2 PUSH1 0x0 DUP1 PUSH2 0x100 EXP DUP2 SLOAD DUP2 PUSH20 0xFFFFFFFFFFFFFFFFFFFFFFFFFFFFFFFFFFFFFFFF MUL NOT AND SWAP1 DUP4 PUSH20 0xFFFFFFFFFFFFFFFFFFFFFFFFFFFFFFFFFFFFFFFF AND MUL OR SWAP1 SSTORE POP DUP2 PUSH20 0xFFFFFFFFFFFFFFFFFFFFFFFFFFFFFFFFFFFFFFFF AND DUP2 PUSH20 0xFFFFFFFFFFFFFFFFFFFFFFFFFFFFFFFFFFFFFFFF AND PUSH32 0x8BE0079C531659141344CD1FD0A4F28419497F9722A3DAAFE3B4186F6B6457E0 PUSH1 0x40 MLOAD PUSH1 0x40 MLOAD DUP1 SWAP2 SUB SWAP1 LOG3 POP POP JUMP JUMPDEST PUSH1 0x0 DUP1 DUP5 DUP5 DUP5 PUSH1 0x40 MLOAD PUSH1 0x20 ADD PUSH2 0x7C7 SWAP4 SWAP3 SWAP2 SWAP1 PUSH2 0xBF7 JUMP JUMPDEST PUSH1 0x40 MLOAD PUSH1 0x20 DUP2 DUP4 SUB SUB DUP2 MSTORE SWAP1 PUSH1 0x40 MSTORE DUP1 MLOAD SWAP1 PUSH1 0x20 ADD KECCAK256 PUSH1 0x0 SHR SWAP1 POP PUSH1 0x2 SLOAD DUP2 PUSH2 0x7F0 SWAP2 SWAP1 PUSH2 0xFAC JUMP JUMPDEST SWAP2 POP POP SWAP4 SWAP3 POP POP POP JUMP JUMPDEST DUP3 DUP1 SLOAD PUSH2 0x806 SWAP1 PUSH2 0xF1B JUMP JUMPDEST SWAP1 PUSH1 0x0 MSTORE PUSH1 0x20 PUSH1 0x0 KECCAK256 SWAP1 PUSH1 0x1F ADD PUSH1 0x20 SWAP1 DIV DUP2 ADD SWAP3 DUP3 PUSH2 0x828 JUMPI PUSH1 0x0 DUP6 SSTORE PUSH2 0x86F JUMP JUMPDEST DUP3 PUSH1 0x1F LT PUSH2 0x841 JUMPI DUP1 MLOAD PUSH1 0xFF NOT AND DUP4 DUP1 ADD OR DUP6 SSTORE PUSH2 0x86F JUMP JUMPDEST DUP3 DUP1 ADD PUSH1 0x1 ADD DUP6 SSTORE DUP3 ISZERO PUSH2 0x86F JUMPI SWAP2 DUP3 ADD JUMPDEST DUP3 DUP2 GT ISZERO PUSH2 0x86E JUMPI DUP3 MLOAD DUP3 SSTORE SWAP2 PUSH1 0x20 ADD SWAP2 SWAP1 PUSH1 0x1 ADD SWAP1 PUSH2 0x853 JUMP JUMPDEST JUMPDEST POP SWAP1 POP PUSH2 0x87C SWAP2 SWAP1 PUSH2 0x880 JUMP JUMPDEST POP SWAP1 JUMP JUMPDEST JUMPDEST DUP1 DUP3 GT ISZERO PUSH2 0x899 JUMPI PUSH1 0x0 DUP2 PUSH1 0x0 SWAP1 SSTORE POP PUSH1 0x1 ADD PUSH2 0x881 JUMP JUMPDEST POP SWAP1 JUMP JUMPDEST PUSH1 0x0 PUSH2 0x8B0 PUSH2 0x8AB DUP5 PUSH2 0xDDF JUMP JUMPDEST PUSH2 0xDBA JUMP JUMPDEST SWAP1 POP DUP3 DUP2 MSTORE PUSH1 0x20 DUP2 ADD DUP5 DUP5 DUP5 ADD GT ISZERO PUSH2 0x8CC JUMPI PUSH2 0x8CB PUSH2 0x109E JUMP JUMPDEST JUMPDEST PUSH2 0x8D7 DUP5 DUP3 DUP6 PUSH2 0xED9 JUMP JUMPDEST POP SWAP4 SWAP3 POP POP POP JUMP JUMPDEST PUSH1 0x0 DUP2 CALLDATALOAD SWAP1 POP PUSH2 0x8EE DUP2 PUSH2 0x11E4 JUMP JUMPDEST SWAP3 SWAP2 POP POP JUMP JUMPDEST PUSH1 0x0 DUP3 PUSH1 0x1F DUP4 ADD SLT PUSH2 0x909 JUMPI PUSH2 0x908 PUSH2 0x1099 JUMP JUMPDEST JUMPDEST DUP2 CALLDATALOAD PUSH2 0x919 DUP5 DUP3 PUSH1 0x20 DUP7 ADD PUSH2 0x89D JUMP JUMPDEST SWAP2 POP POP SWAP3 SWAP2 POP POP JUMP JUMPDEST PUSH1 0x0 DUP2 CALLDATALOAD SWAP1 POP PUSH2 0x931 DUP2 PUSH2 0x11FB JUMP JUMPDEST SWAP3 SWAP2 POP POP JUMP JUMPDEST PUSH1 0x0 PUSH1 0x20 DUP3 DUP5 SUB SLT ISZERO PUSH2 0x94D JUMPI PUSH2 0x94C PUSH2 0x10A8 JUMP JUMPDEST JUMPDEST PUSH1 0x0 PUSH2 0x95B DUP5 DUP3 DUP6 ADD PUSH2 0x8DF JUMP JUMPDEST SWAP2 POP POP SWAP3 SWAP2 POP POP JUMP JUMPDEST PUSH1 0x0 PUSH1 0x20 DUP3 DUP5 SUB SLT ISZERO PUSH2 0x97A JUMPI PUSH2 0x979 PUSH2 0x10A8 JUMP JUMPDEST JUMPDEST PUSH1 0x0 PUSH2 0x988 DUP5 DUP3 DUP6 ADD PUSH2 0x922 JUMP JUMPDEST SWAP2 POP POP SWAP3 SWAP2 POP POP JUMP JUMPDEST PUSH1 0x0 DUP1 PUSH1 0x0 DUP1 PUSH1 0x80 DUP6 DUP8 SUB SLT ISZERO PUSH2 0x9AB JUMPI PUSH2 0x9AA PUSH2 0x10A8 JUMP JUMPDEST JUMPDEST PUSH1 0x0 PUSH2 0x9B9 DUP8 DUP3 DUP9 ADD PUSH2 0x922 JUMP JUMPDEST SWAP5 POP POP PUSH1 0x20 PUSH2 0x9CA DUP8 DUP3 DUP9 ADD PUSH2 0x922 JUMP JUMPDEST SWAP4 POP POP PUSH1 0x40 PUSH2 0x9DB DUP8 DUP3 DUP9 ADD PUSH2 0x8DF JUMP JUMPDEST SWAP3 POP POP PUSH1 0x60 DUP6 ADD CALLDATALOAD PUSH8 0xFFFFFFFFFFFFFFFF DUP2 GT ISZERO PUSH2 0x9FC JUMPI PUSH2 0x9FB PUSH2 0x10A3 JUMP JUMPDEST JUMPDEST PUSH2 0xA08 DUP8 DUP3 DUP9 ADD PUSH2 0x8F4 JUMP JUMPDEST SWAP2 POP POP SWAP3 SWAP6 SWAP2 SWAP5 POP SWAP3 POP JUMP JUMPDEST PUSH1 0x0 DUP1 PUSH1 0x0 PUSH1 0x60 DUP5 DUP7 SUB SLT ISZERO PUSH2 0xA2D JUMPI PUSH2 0xA2C PUSH2 0x10A8 JUMP JUMPDEST JUMPDEST PUSH1 0x0 PUSH2 0xA3B DUP7 DUP3 DUP8 ADD PUSH2 0x922 JUMP JUMPDEST SWAP4 POP POP PUSH1 0x20 PUSH2 0xA4C DUP7 DUP3 DUP8 ADD PUSH2 0x922 JUMP JUMPDEST SWAP3 POP POP PUSH1 0x40 DUP5 ADD CALLDATALOAD PUSH8 0xFFFFFFFFFFFFFFFF DUP2 GT ISZERO PUSH2 0xA6D JUMPI PUSH2 0xA6C PUSH2 0x10A3 JUMP JUMPDEST JUMPDEST PUSH2 0xA79 DUP7 DUP3 DUP8 ADD PUSH2 0x8F4 JUMP JUMPDEST SWAP2 POP POP SWAP3 POP SWAP3 POP SWAP3 JUMP JUMPDEST PUSH2 0xA8C DUP2 PUSH2 0xE91 JUMP JUMPDEST DUP3 MSTORE POP POP JUMP JUMPDEST PUSH2 0xAA3 PUSH2 0xA9E DUP3 PUSH2 0xE91 JUMP JUMPDEST PUSH2 0xF7E JUMP JUMPDEST DUP3 MSTORE POP POP JUMP JUMPDEST PUSH2 0xAB2 DUP2 PUSH2 0xEA3 JUMP JUMPDEST DUP3 MSTORE POP POP JUMP JUMPDEST PUSH1 0x0 PUSH2 0xAC3 DUP3 PUSH2 0xE10 JUMP JUMPDEST PUSH2 0xACD DUP2 DUP6 PUSH2 0xE1B JUMP JUMPDEST SWAP4 POP PUSH2 0xADD DUP2 DUP6 PUSH1 0x20 DUP7 ADD PUSH2 0xEE8 JUMP JUMPDEST PUSH2 0xAE6 DUP2 PUSH2 0x10AD JUMP JUMPDEST DUP5 ADD SWAP2 POP POP SWAP3 SWAP2 POP POP JUMP JUMPDEST PUSH1 0x0 PUSH2 0xAFC DUP3 PUSH2 0xE10 JUMP JUMPDEST PUSH2 0xB06 DUP2 DUP6 PUSH2 0xE2C JUMP JUMPDEST SWAP4 POP PUSH2 0xB16 DUP2 DUP6 PUSH1 0x20 DUP7 ADD PUSH2 0xEE8 JUMP JUMPDEST DUP1 DUP5 ADD SWAP2 POP POP SWAP3 SWAP2 POP POP JUMP JUMPDEST PUSH1 0x0 PUSH2 0xB2F PUSH1 0x26 DUP4 PUSH2 0xE1B JUMP JUMPDEST SWAP2 POP PUSH2 0xB3A DUP3 PUSH2 0x10CB JUMP JUMPDEST PUSH1 0x40 DUP3 ADD SWAP1 POP SWAP2 SWAP1 POP JUMP JUMPDEST PUSH1 0x0 PUSH2 0xB52 PUSH1 0x14 DUP4 PUSH2 0xE1B JUMP JUMPDEST SWAP2 POP PUSH2 0xB5D DUP3 PUSH2 0x111A JUMP JUMPDEST PUSH1 0x20 DUP3 ADD SWAP1 POP SWAP2 SWAP1 POP JUMP JUMPDEST PUSH1 0x0 PUSH2 0xB75 PUSH1 0x20 DUP4 PUSH2 0xE1B JUMP JUMPDEST SWAP2 POP PUSH2 0xB80 DUP3 PUSH2 0x1143 JUMP JUMPDEST PUSH1 0x20 DUP3 ADD SWAP1 POP SWAP2 SWAP1 POP JUMP JUMPDEST PUSH1 0x0 PUSH2 0xB98 PUSH1 0x1B DUP4 PUSH2 0xE1B JUMP JUMPDEST SWAP2 POP PUSH2 0xBA3 DUP3 PUSH2 0x116C JUMP JUMPDEST PUSH1 0x20 DUP3 ADD SWAP1 POP SWAP2 SWAP1 POP JUMP JUMPDEST PUSH1 0x0 PUSH2 0xBBB PUSH1 0x2B DUP4 PUSH2 0xE1B JUMP JUMPDEST SWAP2 POP PUSH2 0xBC6 DUP3 PUSH2 0x1195 JUMP JUMPDEST PUSH1 0x40 DUP3 ADD SWAP1 POP SWAP2 SWAP1 POP JUMP JUMPDEST PUSH2 0xBDA DUP2 PUSH2 0xECF JUMP JUMPDEST DUP3 MSTORE POP POP JUMP JUMPDEST PUSH2 0xBF1 PUSH2 0xBEC DUP3 PUSH2 0xECF JUMP JUMPDEST PUSH2 0xFA2 JUMP JUMPDEST DUP3 MSTORE POP POP JUMP JUMPDEST PUSH1 0x0 PUSH2 0xC03 DUP3 DUP7 PUSH2 0xA92 JUMP JUMPDEST PUSH1 0x14 DUP3 ADD SWAP2 POP PUSH2 0xC13 DUP3 DUP6 PUSH2 0xBE0 JUMP JUMPDEST PUSH1 0x20 DUP3 ADD SWAP2 POP PUSH2 0xC23 DUP3 DUP5 PUSH2 0xAF1 JUMP JUMPDEST SWAP2 POP DUP2 SWAP1 POP SWAP5 SWAP4 POP POP POP POP JUMP JUMPDEST PUSH1 0x0 PUSH1 0x20 DUP3 ADD SWAP1 POP PUSH2 0xC45 PUSH1 0x0 DUP4 ADD DUP5 PUSH2 0xA83 JUMP JUMPDEST SWAP3 SWAP2 POP POP JUMP JUMPDEST PUSH1 0x0 PUSH1 0x20 DUP3 ADD SWAP1 POP DUP2 DUP2 SUB PUSH1 0x0 DUP4 ADD MSTORE PUSH2 0xC64 DUP2 PUSH2 0xB22 JUMP JUMPDEST SWAP1 POP SWAP2 SWAP1 POP JUMP JUMPDEST PUSH1 0x0 PUSH1 0x20 DUP3 ADD SWAP1 POP DUP2 DUP2 SUB PUSH1 0x0 DUP4 ADD MSTORE PUSH2 0xC84 DUP2 PUSH2 0xB45 JUMP JUMPDEST SWAP1 POP SWAP2 SWAP1 POP JUMP JUMPDEST PUSH1 0x0 PUSH1 0x20 DUP3 ADD SWAP1 POP DUP2 DUP2 SUB PUSH1 0x0 DUP4 ADD MSTORE PUSH2 0xCA4 DUP2 PUSH2 0xB68 JUMP JUMPDEST SWAP1 POP SWAP2 SWAP1 POP JUMP JUMPDEST PUSH1 0x0 PUSH1 0x20 DUP3 ADD SWAP1 POP DUP2 DUP2 SUB PUSH1 0x0 DUP4 ADD MSTORE PUSH2 0xCC4 DUP2 PUSH2 0xB8B JUMP JUMPDEST SWAP1 POP SWAP2 SWAP1 POP JUMP JUMPDEST PUSH1 0x0 PUSH1 0x20 DUP3 ADD SWAP1 POP DUP2 DUP2 SUB PUSH1 0x0 DUP4 ADD MSTORE PUSH2 0xCE4 DUP2 PUSH2 0xBAE JUMP JUMPDEST SWAP1 POP SWAP2 SWAP1 POP JUMP JUMPDEST PUSH1 0x0 PUSH1 0x20 DUP3 ADD SWAP1 POP PUSH2 0xD00 PUSH1 0x0 DUP4 ADD DUP5 PUSH2 0xBD1 JUMP JUMPDEST SWAP3 SWAP2 POP POP JUMP JUMPDEST PUSH1 0x0 PUSH1 0x80 DUP3 ADD SWAP1 POP PUSH2 0xD1B PUSH1 0x0 DUP4 ADD DUP8 PUSH2 0xBD1 JUMP JUMPDEST PUSH2 0xD28 PUSH1 0x20 DUP4 ADD DUP7 PUSH2 0xA83 JUMP JUMPDEST PUSH2 0xD35 PUSH1 0x40 DUP4 ADD DUP6 PUSH2 0xBD1 JUMP JUMPDEST DUP2 DUP2 SUB PUSH1 0x60 DUP4 ADD MSTORE PUSH2 0xD47 DUP2 DUP5 PUSH2 0xAB8 JUMP JUMPDEST SWAP1 POP SWAP6 SWAP5 POP POP POP POP POP JUMP JUMPDEST PUSH1 0x0 PUSH1 0xC0 DUP3 ADD SWAP1 POP PUSH2 0xD67 PUSH1 0x0 DUP4 ADD DUP10 PUSH2 0xBD1 JUMP JUMPDEST PUSH2 0xD74 PUSH1 0x20 DUP4 ADD DUP9 PUSH2 0xBD1 JUMP JUMPDEST PUSH2 0xD81 PUSH1 0x40 DUP4 ADD DUP8 PUSH2 0xBD1 JUMP JUMPDEST PUSH2 0xD8E PUSH1 0x60 DUP4 ADD DUP7 PUSH2 0xA83 JUMP JUMPDEST DUP2 DUP2 SUB PUSH1 0x80 DUP4 ADD MSTORE PUSH2 0xDA0 DUP2 DUP6 PUSH2 0xAB8 JUMP JUMPDEST SWAP1 POP PUSH2 0xDAF PUSH1 0xA0 DUP4 ADD DUP5 PUSH2 0xAA9 JUMP JUMPDEST SWAP8 SWAP7 POP POP POP POP POP POP POP JUMP JUMPDEST PUSH1 0x0 PUSH2 0xDC4 PUSH2 0xDD5 JUMP JUMPDEST SWAP1 POP PUSH2 0xDD0 DUP3 DUP3 PUSH2 0xF4D JUMP JUMPDEST SWAP2 SWAP1 POP JUMP JUMPDEST PUSH1 0x0 PUSH1 0x40 MLOAD SWAP1 POP SWAP1 JUMP JUMPDEST PUSH1 0x0 PUSH8 0xFFFFFFFFFFFFFFFF DUP3 GT ISZERO PUSH2 0xDFA JUMPI PUSH2 0xDF9 PUSH2 0x106A JUMP JUMPDEST JUMPDEST PUSH2 0xE03 DUP3 PUSH2 0x10AD JUMP JUMPDEST SWAP1 POP PUSH1 0x20 DUP2 ADD SWAP1 POP SWAP2 SWAP1 POP JUMP JUMPDEST PUSH1 0x0 DUP2 MLOAD SWAP1 POP SWAP2 SWAP1 POP JUMP JUMPDEST PUSH1 0x0 DUP3 DUP3 MSTORE PUSH1 0x20 DUP3 ADD SWAP1 POP SWAP3 SWAP2 POP POP JUMP JUMPDEST PUSH1 0x0 DUP2 SWAP1 POP SWAP3 SWAP2 POP POP JUMP JUMPDEST PUSH1 0x0 PUSH2 0xE42 DUP3 PUSH2 0xECF JUMP JUMPDEST SWAP2 POP PUSH2 0xE4D DUP4 PUSH2 0xECF JUMP JUMPDEST SWAP3 POP DUP2 PUSH32 0xFFFFFFFFFFFFFFFFFFFFFFFFFFFFFFFFFFFFFFFFFFFFFFFFFFFFFFFFFFFFFFFF DIV DUP4 GT DUP3 ISZERO ISZERO AND ISZERO PUSH2 0xE86 JUMPI PUSH2 0xE85 PUSH2 0xFDD JUMP JUMPDEST JUMPDEST DUP3 DUP3 MUL SWAP1 POP SWAP3 SWAP2 POP POP JUMP JUMPDEST PUSH1 0x0 PUSH2 0xE9C DUP3 PUSH2 0xEAF JUMP JUMPDEST SWAP1 POP SWAP2 SWAP1 POP JUMP JUMPDEST PUSH1 0x0 DUP2 ISZERO ISZERO SWAP1 POP SWAP2 SWAP1 POP JUMP JUMPDEST PUSH1 0x0 PUSH20 0xFFFFFFFFFFFFFFFFFFFFFFFFFFFFFFFFFFFFFFFF DUP3 AND SWAP1 POP SWAP2 SWAP1 POP JUMP JUMPDEST PUSH1 0x0 DUP2 SWAP1 POP SWAP2 SWAP1 POP JUMP JUMPDEST DUP3 DUP2 DUP4 CALLDATACOPY PUSH1 0x0 DUP4 DUP4 ADD MSTORE POP POP POP JUMP JUMPDEST PUSH1 0x0 JUMPDEST DUP4 DUP2 LT ISZERO PUSH2 0xF06 JUMPI DUP1 DUP3 ADD MLOAD DUP2 DUP5 ADD MSTORE PUSH1 0x20 DUP2 ADD SWAP1 POP PUSH2 0xEEB JUMP JUMPDEST DUP4 DUP2 GT ISZERO PUSH2 0xF15 JUMPI PUSH1 0x0 DUP5 DUP5 ADD MSTORE JUMPDEST POP POP POP POP JUMP JUMPDEST PUSH1 0x0 PUSH1 0x2 DUP3 DIV SWAP1 POP PUSH1 0x1 DUP3 AND DUP1 PUSH2 0xF33 JUMPI PUSH1 0x7F DUP3 AND SWAP2 POP JUMPDEST PUSH1 0x20 DUP3 LT DUP2 EQ ISZERO PUSH2 0xF47 JUMPI PUSH2 0xF46 PUSH2 0x103B JUMP JUMPDEST JUMPDEST POP SWAP2 SWAP1 POP JUMP JUMPDEST PUSH2 0xF56 DUP3 PUSH2 0x10AD JUMP JUMPDEST DUP2 ADD DUP2 DUP2 LT PUSH8 0xFFFFFFFFFFFFFFFF DUP3 GT OR ISZERO PUSH2 0xF75 JUMPI PUSH2 0xF74 PUSH2 0x106A JUMP JUMPDEST JUMPDEST DUP1 PUSH1 0x40 MSTORE POP POP POP JUMP JUMPDEST PUSH1 0x0 PUSH2 0xF89 DUP3 PUSH2 0xF90 JUMP JUMPDEST SWAP1 POP SWAP2 SWAP1 POP JUMP JUMPDEST PUSH1 0x0 PUSH2 0xF9B DUP3 PUSH2 0x10BE JUMP JUMPDEST SWAP1 POP SWAP2 SWAP1 POP JUMP JUMPDEST PUSH1 0x0 DUP2 SWAP1 POP SWAP2 SWAP1 POP JUMP JUMPDEST PUSH1 0x0 PUSH2 0xFB7 DUP3 PUSH2 0xECF JUMP JUMPDEST SWAP2 POP PUSH2 0xFC2 DUP4 PUSH2 0xECF JUMP JUMPDEST SWAP3 POP DUP3 PUSH2 0xFD2 JUMPI PUSH2 0xFD1 PUSH2 0x100C JUMP JUMPDEST JUMPDEST DUP3 DUP3 MOD SWAP1 POP SWAP3 SWAP2 POP POP JUMP JUMPDEST PUSH32 0x4E487B7100000000000000000000000000000000000000000000000000000000 PUSH1 0x0 MSTORE PUSH1 0x11 PUSH1 0x4 MSTORE PUSH1 0x24 PUSH1 0x0 REVERT JUMPDEST PUSH32 0x4E487B7100000000000000000000000000000000000000000000000000000000 PUSH1 0x0 MSTORE PUSH1 0x12 PUSH1 0x4 MSTORE PUSH1 0x24 PUSH1 0x0 REVERT JUMPDEST PUSH32 0x4E487B7100000000000000000000000000000000000000000000000000000000 PUSH1 0x0 MSTORE PUSH1 0x22 PUSH1 0x4 MSTORE PUSH1 0x24 PUSH1 0x0 REVERT JUMPDEST PUSH32 0x4E487B7100000000000000000000000000000000000000000000000000000000 PUSH1 0x0 MSTORE PUSH1 0x41 PUSH1 0x4 MSTORE PUSH1 0x24 PUSH1 0x0 REVERT JUMPDEST PUSH1 0x0 DUP1 REVERT JUMPDEST PUSH1 0x0 DUP1 REVERT JUMPDEST PUSH1 0x0 DUP1 REVERT JUMPDEST PUSH1 0x0 DUP1 REVERT JUMPDEST PUSH1 0x0 PUSH1 0x1F NOT PUSH1 0x1F DUP4 ADD AND SWAP1 POP SWAP2 SWAP1 POP JUMP JUMPDEST PUSH1 0x0 DUP2 PUSH1 0x60 SHL SWAP1 POP SWAP2 SWAP1 POP JUMP JUMPDEST PUSH32 0x4F776E61626C653A206E6577206F776E657220697320746865207A65726F2061 PUSH1 0x0 DUP3 ADD MSTORE PUSH32 0x6464726573730000000000000000000000000000000000000000000000000000 PUSH1 0x20 DUP3 ADD MSTORE POP JUMP JUMPDEST PUSH32 0x76616C75652063616E6E6F74206265206E756C6C000000000000000000000000 PUSH1 0x0 DUP3 ADD MSTORE POP JUMP JUMPDEST PUSH32 0x4F776E61626C653A2063616C6C6572206973206E6F7420746865206F776E6572 PUSH1 0x0 DUP3 ADD MSTORE POP JUMP JUMPDEST PUSH32 0x7468697320686F757365496420616C7265616479206578697374730000000000 PUSH1 0x0 DUP3 ADD MSTORE POP JUMP JUMPDEST PUSH32 0x596F7520646F206E6F7420686176652061636365737320746F2064656C657465 PUSH1 0x0 DUP3 ADD MSTORE PUSH32 0x207468697320686F757365000000000000000000000000000000000000000000 PUSH1 0x20 DUP3 ADD MSTORE POP JUMP JUMPDEST PUSH2 0x11ED DUP2 PUSH2 0xE91 JUMP JUMPDEST DUP2 EQ PUSH2 0x11F8 JUMPI PUSH1 0x0 DUP1 REVERT JUMPDEST POP JUMP JUMPDEST PUSH2 0x1204 DUP2 PUSH2 0xECF JUMP JUMPDEST DUP2 EQ PUSH2 0x120F JUMPI PUSH1 0x0 DUP1 REVERT JUMPDEST POP JUMP INVALID LOG2 PUSH5 0x6970667358 0x22 SLT KECCAK256 MOD SWAP4 PUSH6 0x4A4EC4762EAA 0x22 SWAP16 0xE1 0xB0 0xC3 PUSH12 0x8417443CFF4926DC964814BE ISZERO ADDMOD GASPRICE CALLCODE SIGNEXTEND PUSH5 0x736F6C6343 STOP ADDMOD SMOD STOP CALLER "
				},
				"gasEstimates": {
					"creation": {
						"codeDepositCost": "936000",
						"executionCost": "infinite",
						"totalCost": "infinite"
					},
					"external": {
						"delistHouse(uint256)": "27012",
						"houses(uint256)": "infinite",
						"listHouse(uint256,uint256,address,string)": "infinite",
						"listHouseSimple(uint256,uint256,string)": "infinite",
						"owner()": "2567",
						"renounceOwnership()": "30397",
						"transferOwnership(address)": "30789"
					}
				},
				"methodIdentifiers": {
					"delistHouse(uint256)": "3c3b0b4a",
					"houses(uint256)": "aeda852f",
					"listHouse(uint256,uint256,address,string)": "91bfe0d4",
					"listHouseSimple(uint256,uint256,string)": "be40a73e",
					"owner()": "8da5cb5b",
					"renounceOwnership()": "715018a6",
					"transferOwnership(address)": "f2fde38b"
				}
			},
			"storageLayout": {
				"storage": [
					{
						"astId": 190,
						"contract": "contract/HouseRegistryExt.sol:HouseRegistryExt",
						"label": "_owner",
						"offset": 0,
						"slot": "0",
						"type": "t_address"
					},
					{
						"astId": 7,
						"contract": "contract/HouseRegistryExt.sol:HouseRegistryExt",
						"label": "digits",
						"offset": 0,
						"slot": "1",
						"type": "t_uint256"
					},
					{
						"astId": 12,
						"contract": "contract/HouseRegistryExt.sol:HouseRegistryExt",
						"label": "modulus",
						"offset": 0,
						"slot": "2",
						"type": "t_uint256"
					},
					{
						"astId": 40,
						"contract": "contract/HouseRegistryExt.sol:HouseRegistryExt",
						"label": "houses",
						"offset": 0,
						"slot": "3",
						"type": "t_mapping(t_uint256,t_struct(House)25_storage)"
					}
				],
				"types": {
					"t_address": {
						"encoding": "inplace",
						"label": "address",
						"numberOfBytes": "20"
					},
					"t_bool": {
						"encoding": "inplace",
						"label": "bool",
						"numberOfBytes": "1"
					},
					"t_mapping(t_uint256,t_struct(House)25_storage)": {
						"encoding": "mapping",
						"key": "t_uint256",
						"label": "mapping(uint256 => struct HouseRegistry.House)",
						"numberOfBytes": "32",
						"value": "t_struct(House)25_storage"
					},
					"t_string_storage": {
						"encoding": "bytes",
						"label": "string",
						"numberOfBytes": "32"
					},
					"t_struct(House)25_storage": {
						"encoding": "inplace",
						"label": "struct HouseRegistry.House",
						"members": [
							{
								"astId": 14,
								"contract": "contract/HouseRegistryExt.sol:HouseRegistryExt",
								"label": "id",
								"offset": 0,
								"slot": "0",
								"type": "t_uint256"
							},
							{
								"astId": 16,
								"contract": "contract/HouseRegistryExt.sol:HouseRegistryExt",
								"label": "price",
								"offset": 0,
								"slot": "1",
								"type": "t_uint256"
							},
							{
								"astId": 18,
								"contract": "contract/HouseRegistryExt.sol:HouseRegistryExt",
								"label": "area",
								"offset": 0,
								"slot": "2",
								"type": "t_uint256"
							},
							{
								"astId": 20,
								"contract": "contract/HouseRegistryExt.sol:HouseRegistryExt",
								"label": "sellerAddress",
								"offset": 0,
								"slot": "3",
								"type": "t_address"
							},
							{
								"astId": 22,
								"contract": "contract/HouseRegistryExt.sol:HouseRegistryExt",
								"label": "houseAddress",
								"offset": 0,
								"slot": "4",
								"type": "t_string_storage"
							},
							{
								"astId": 24,
								"contract": "contract/HouseRegistryExt.sol:HouseRegistryExt",
								"label": "isdelistedHouse",
								"offset": 0,
								"slot": "5",
								"type": "t_bool"
							}
						],
						"numberOfBytes": "192"
					},
					"t_uint256": {
						"encoding": "inplace",
						"label": "uint256",
						"numberOfBytes": "32"
					}
				}
			},
			"userdoc": {
				"kind": "user",
				"methods": {},
				"version": 1
			}
		}
	}
}