{
	"contract/HouseRegistry.sol": {
		"HouseRegistry": {
			"abi": [
				{
					"anonymous": false,
					"inputs": [
						{
							"indexed": false,
							"internalType": "uint256",
							"name": "houseId",
							"type": "uint256"
						},
						{
							"indexed": false,
							"internalType": "address",
							"name": "_sellerAddress",
							"type": "address"
						},
						{
							"indexed": false,
							"internalType": "uint256",
							"name": "price",
							"type": "uint256"
						},
						{
							"indexed": false,
							"internalType": "string",
							"name": "houseAddress",
							"type": "string"
						}
					],
					"name": "AddNewHouse",
					"type": "event"
				},
				{
					"inputs": [
						{
							"internalType": "uint256",
							"name": "",
							"type": "uint256"
						}
					],
					"name": "houses",
					"outputs": [
						{
							"internalType": "uint256",
							"name": "id",
							"type": "uint256"
						},
						{
							"internalType": "uint256",
							"name": "price",
							"type": "uint256"
						},
						{
							"internalType": "uint256",
							"name": "area",
							"type": "uint256"
						},
						{
							"internalType": "address",
							"name": "sellerAddress",
							"type": "address"
						},
						{
							"internalType": "string",
							"name": "houseAddress",
							"type": "string"
						}
					],
					"stateMutability": "view",
					"type": "function"
				},
				{
					"inputs": [
						{
							"internalType": "uint256",
							"name": "_price",
							"type": "uint256"
						},
						{
							"internalType": "uint256",
							"name": "_area",
							"type": "uint256"
						},
						{
							"internalType": "address",
							"name": "_sellerAddress",
							"type": "address"
						},
						{
							"internalType": "string",
							"name": "_houseAddress",
							"type": "string"
						}
					],
					"name": "listHouse",
					"outputs": [
						{
							"internalType": "uint256",
							"name": "",
							"type": "uint256"
						}
					],
					"stateMutability": "nonpayable",
					"type": "function"
				}
			],
			"devdoc": {
				"kind": "dev",
				"methods": {},
				"version": 1
			},
			"evm": {
				"assembly": "    /* \"contract/HouseRegistry.sol\":62:1165  contract HouseRegistry {... */\n  mstore(0x40, 0x80)\n    /* \"contract/HouseRegistry.sol\":106:107  5 */\n  0x05\n    /* \"contract/HouseRegistry.sol\":92:107  uint digits = 5 */\n  0x00\n  sstore\n    /* \"contract/HouseRegistry.sol\":134:140  digits */\n  sload(0x00)\n    /* \"contract/HouseRegistry.sol\":128:130  10 */\n  0x0a\n    /* \"contract/HouseRegistry.sol\":128:140  10 ** digits */\n  tag_1\n  swap2\n  swap1\n  tag_2\n  jump\t// in\ntag_1:\n    /* \"contract/HouseRegistry.sol\":113:140  uint modulus = 10 ** digits */\n  0x01\n  sstore\n    /* \"contract/HouseRegistry.sol\":62:1165  contract HouseRegistry {... */\n  callvalue\n  dup1\n  iszero\n  tag_3\n  jumpi\n  0x00\n  dup1\n  revert\ntag_3:\n  pop\n  jump(tag_4)\n    /* \"#utility.yul\":7:855   */\ntag_6:\n    /* \"#utility.yul\":68:73   */\n  0x00\n    /* \"#utility.yul\":75:79   */\n  dup1\n    /* \"#utility.yul\":99:105   */\n  dup3\n    /* \"#utility.yul\":90:105   */\n  swap2\n  pop\n    /* \"#utility.yul\":123:128   */\n  dup4\n    /* \"#utility.yul\":114:128   */\n  swap1\n  pop\n    /* \"#utility.yul\":137:849   */\ntag_8:\n    /* \"#utility.yul\":158:159   */\n  0x01\n    /* \"#utility.yul\":148:156   */\n  dup6\n    /* \"#utility.yul\":145:160   */\n  gt\n    /* \"#utility.yul\":137:849   */\n  iszero\n  tag_10\n  jumpi\n    /* \"#utility.yul\":253:257   */\n  dup1\n    /* \"#utility.yul\":248:251   */\n  dup7\n    /* \"#utility.yul\":244:258   */\n  div\n    /* \"#utility.yul\":238:242   */\n  dup2\n    /* \"#utility.yul\":235:259   */\n  gt\n    /* \"#utility.yul\":232:282   */\n  iszero\n  tag_11\n  jumpi\n    /* \"#utility.yul\":262:280   */\n  tag_12\n  tag_13\n  jump\t// in\ntag_12:\n    /* \"#utility.yul\":232:282   */\ntag_11:\n    /* \"#utility.yul\":312:313   */\n  0x01\n    /* \"#utility.yul\":302:310   */\n  dup6\n    /* \"#utility.yul\":298:314   */\n  and\n    /* \"#utility.yul\":295:746   */\n  iszero\n  tag_14\n  jumpi\n    /* \"#utility.yul\":727:731   */\n  dup1\n    /* \"#utility.yul\":720:725   */\n  dup3\n    /* \"#utility.yul\":716:732   */\n  mul\n    /* \"#utility.yul\":707:732   */\n  swap2\n  pop\n    /* \"#utility.yul\":295:746   */\ntag_14:\n    /* \"#utility.yul\":777:781   */\n  dup1\n    /* \"#utility.yul\":771:775   */\n  dup2\n    /* \"#utility.yul\":767:782   */\n  mul\n    /* \"#utility.yul\":759:782   */\n  swap1\n  pop\n    /* \"#utility.yul\":807:839   */\n  tag_15\n    /* \"#utility.yul\":830:838   */\n  dup6\n    /* \"#utility.yul\":807:839   */\n  tag_16\n  jump\t// in\ntag_15:\n    /* \"#utility.yul\":795:839   */\n  swap5\n  pop\n    /* \"#utility.yul\":137:849   */\n  jump(tag_8)\ntag_10:\n    /* \"#utility.yul\":7:855   */\n  swap5\n  pop\n  swap5\n  swap3\n  pop\n  pop\n  pop\n  jump\t// out\n    /* \"#utility.yul\":861:1146   */\ntag_2:\n    /* \"#utility.yul\":921:926   */\n  0x00\n    /* \"#utility.yul\":945:968   */\n  tag_18\n    /* \"#utility.yul\":963:967   */\n  dup3\n    /* \"#utility.yul\":945:968   */\n  tag_19\n  jump\t// in\ntag_18:\n    /* \"#utility.yul\":937:968   */\n  swap2\n  pop\n    /* \"#utility.yul\":989:1016   */\n  tag_20\n    /* \"#utility.yul\":1007:1015   */\n  dup4\n    /* \"#utility.yul\":989:1016   */\n  tag_19\n  jump\t// in\ntag_20:\n    /* \"#utility.yul\":977:1016   */\n  swap3\n  pop\n    /* \"#utility.yul\":1035:1139   */\n  tag_21\n    /* \"#utility.yul\":1072:1138   */\n  0xffffffffffffffffffffffffffffffffffffffffffffffffffffffffffffffff\n    /* \"#utility.yul\":1062:1070   */\n  dup5\n    /* \"#utility.yul\":1056:1060   */\n  dup5\n    /* \"#utility.yul\":1035:1139   */\n  tag_22\n  jump\t// in\ntag_21:\n    /* \"#utility.yul\":1026:1139   */\n  swap1\n  pop\n    /* \"#utility.yul\":861:1146   */\n  swap3\n  swap2\n  pop\n  pop\n  jump\t// out\n    /* \"#utility.yul\":1152:2225   */\ntag_22:\n    /* \"#utility.yul\":1206:1211   */\n  0x00\n    /* \"#utility.yul\":1397:1405   */\n  dup3\n    /* \"#utility.yul\":1387:1427   */\n  tag_24\n  jumpi\n    /* \"#utility.yul\":1418:1419   */\n  0x01\n    /* \"#utility.yul\":1409:1419   */\n  swap1\n  pop\n    /* \"#utility.yul\":1420:1425   */\n  jump(tag_23)\n    /* \"#utility.yul\":1387:1427   */\ntag_24:\n    /* \"#utility.yul\":1446:1450   */\n  dup2\n    /* \"#utility.yul\":1436:1472   */\n  tag_25\n  jumpi\n    /* \"#utility.yul\":1463:1464   */\n  0x00\n    /* \"#utility.yul\":1454:1464   */\n  swap1\n  pop\n    /* \"#utility.yul\":1465:1470   */\n  jump(tag_23)\n    /* \"#utility.yul\":1436:1472   */\ntag_25:\n    /* \"#utility.yul\":1532:1536   */\n  dup2\n    /* \"#utility.yul\":1580:1581   */\n  0x01\n    /* \"#utility.yul\":1575:1602   */\n  dup2\n  eq\n  tag_27\n  jumpi\n    /* \"#utility.yul\":1616:1617   */\n  0x02\n    /* \"#utility.yul\":1611:1802   */\n  dup2\n  eq\n  tag_28\n  jumpi\n    /* \"#utility.yul\":1525:1802   */\n  jump(tag_26)\n    /* \"#utility.yul\":1575:1602   */\ntag_27:\n    /* \"#utility.yul\":1593:1594   */\n  0x01\n    /* \"#utility.yul\":1584:1594   */\n  swap2\n  pop\n    /* \"#utility.yul\":1595:1600   */\n  pop\n  jump(tag_23)\n    /* \"#utility.yul\":1611:1802   */\ntag_28:\n    /* \"#utility.yul\":1656:1659   */\n  0xff\n    /* \"#utility.yul\":1646:1654   */\n  dup5\n    /* \"#utility.yul\":1643:1660   */\n  gt\n    /* \"#utility.yul\":1640:1683   */\n  iszero\n  tag_29\n  jumpi\n    /* \"#utility.yul\":1663:1681   */\n  tag_30\n  tag_13\n  jump\t// in\ntag_30:\n    /* \"#utility.yul\":1640:1683   */\ntag_29:\n    /* \"#utility.yul\":1712:1720   */\n  dup4\n    /* \"#utility.yul\":1709:1710   */\n  0x02\n    /* \"#utility.yul\":1705:1721   */\n  exp\n    /* \"#utility.yul\":1696:1721   */\n  swap2\n  pop\n    /* \"#utility.yul\":1747:1750   */\n  dup5\n    /* \"#utility.yul\":1740:1745   */\n  dup3\n    /* \"#utility.yul\":1737:1751   */\n  gt\n    /* \"#utility.yul\":1734:1774   */\n  iszero\n  tag_31\n  jumpi\n    /* \"#utility.yul\":1754:1772   */\n  tag_32\n  tag_13\n  jump\t// in\ntag_32:\n    /* \"#utility.yul\":1734:1774   */\ntag_31:\n    /* \"#utility.yul\":1787:1792   */\n  pop\n  jump(tag_23)\n    /* \"#utility.yul\":1525:1802   */\ntag_26:\n  pop\n    /* \"#utility.yul\":1911:1913   */\n  0x20\n    /* \"#utility.yul\":1901:1909   */\n  dup4\n    /* \"#utility.yul\":1898:1914   */\n  lt\n    /* \"#utility.yul\":1892:1895   */\n  0x0133\n    /* \"#utility.yul\":1886:1890   */\n  dup4\n    /* \"#utility.yul\":1883:1896   */\n  lt\n    /* \"#utility.yul\":1879:1915   */\n  and\n    /* \"#utility.yul\":1861:1863   */\n  0x4e\n    /* \"#utility.yul\":1851:1859   */\n  dup5\n    /* \"#utility.yul\":1848:1864   */\n  lt\n    /* \"#utility.yul\":1843:1845   */\n  0x0b\n    /* \"#utility.yul\":1837:1841   */\n  dup5\n    /* \"#utility.yul\":1834:1846   */\n  lt\n    /* \"#utility.yul\":1830:1865   */\n  and\n    /* \"#utility.yul\":1814:1925   */\n  or\n    /* \"#utility.yul\":1811:2057   */\n  iszero\n  tag_33\n  jumpi\n    /* \"#utility.yul\":1967:1975   */\n  dup3\n    /* \"#utility.yul\":1961:1965   */\n  dup3\n    /* \"#utility.yul\":1957:1976   */\n  exp\n    /* \"#utility.yul\":1948:1976   */\n  swap1\n  pop\n    /* \"#utility.yul\":2002:2005   */\n  dup4\n    /* \"#utility.yul\":1995:2000   */\n  dup2\n    /* \"#utility.yul\":1992:2006   */\n  gt\n    /* \"#utility.yul\":1989:2029   */\n  iszero\n  tag_34\n  jumpi\n    /* \"#utility.yul\":2009:2027   */\n  tag_35\n  tag_13\n  jump\t// in\ntag_35:\n    /* \"#utility.yul\":1989:2029   */\ntag_34:\n    /* \"#utility.yul\":2042:2047   */\n  jump(tag_23)\n    /* \"#utility.yul\":1811:2057   */\ntag_33:\n    /* \"#utility.yul\":2082:2124   */\n  tag_36\n    /* \"#utility.yul\":2120:2123   */\n  dup5\n    /* \"#utility.yul\":2110:2118   */\n  dup5\n    /* \"#utility.yul\":2104:2108   */\n  dup5\n    /* \"#utility.yul\":2101:2102   */\n  0x01\n    /* \"#utility.yul\":2082:2124   */\n  tag_6\n  jump\t// in\ntag_36:\n    /* \"#utility.yul\":2067:2124   */\n  swap3\n  pop\n  swap1\n  pop\n    /* \"#utility.yul\":2156:2160   */\n  dup2\n    /* \"#utility.yul\":2151:2154   */\n  dup5\n    /* \"#utility.yul\":2147:2161   */\n  div\n    /* \"#utility.yul\":2140:2145   */\n  dup2\n    /* \"#utility.yul\":2137:2162   */\n  gt\n    /* \"#utility.yul\":2134:2185   */\n  iszero\n  tag_37\n  jumpi\n    /* \"#utility.yul\":2165:2183   */\n  tag_38\n  tag_13\n  jump\t// in\ntag_38:\n    /* \"#utility.yul\":2134:2185   */\ntag_37:\n    /* \"#utility.yul\":2214:2218   */\n  dup2\n    /* \"#utility.yul\":2207:2212   */\n  dup2\n    /* \"#utility.yul\":2203:2219   */\n  mul\n    /* \"#utility.yul\":2194:2219   */\n  swap1\n  pop\n    /* \"#utility.yul\":1152:2225   */\ntag_23:\n  swap4\n  swap3\n  pop\n  pop\n  pop\n  jump\t// out\n    /* \"#utility.yul\":2231:2308   */\ntag_19:\n    /* \"#utility.yul\":2268:2275   */\n  0x00\n    /* \"#utility.yul\":2297:2302   */\n  dup2\n    /* \"#utility.yul\":2286:2302   */\n  swap1\n  pop\n    /* \"#utility.yul\":2231:2308   */\n  swap2\n  swap1\n  pop\n  jump\t// out\n    /* \"#utility.yul\":2314:2494   */\ntag_13:\n    /* \"#utility.yul\":2362:2439   */\n  0x4e487b7100000000000000000000000000000000000000000000000000000000\n    /* \"#utility.yul\":2359:2360   */\n  0x00\n    /* \"#utility.yul\":2352:2440   */\n  mstore\n    /* \"#utility.yul\":2459:2463   */\n  0x11\n    /* \"#utility.yul\":2456:2457   */\n  0x04\n    /* \"#utility.yul\":2449:2464   */\n  mstore\n    /* \"#utility.yul\":2483:2487   */\n  0x24\n    /* \"#utility.yul\":2480:2481   */\n  0x00\n    /* \"#utility.yul\":2473:2488   */\n  revert\n    /* \"#utility.yul\":2500:2602   */\ntag_16:\n    /* \"#utility.yul\":2542:2550   */\n  0x00\n    /* \"#utility.yul\":2589:2594   */\n  dup2\n    /* \"#utility.yul\":2586:2587   */\n  0x01\n    /* \"#utility.yul\":2582:2595   */\n  shr\n    /* \"#utility.yul\":2561:2595   */\n  swap1\n  pop\n    /* \"#utility.yul\":2500:2602   */\n  swap2\n  swap1\n  pop\n  jump\t// out\n    /* \"contract/HouseRegistry.sol\":62:1165  contract HouseRegistry {... */\ntag_4:\n  dataSize(sub_0)\n  dup1\n  dataOffset(sub_0)\n  0x00\n  codecopy\n  0x00\n  return\nstop\n\nsub_0: assembly {\n        /* \"contract/HouseRegistry.sol\":62:1165  contract HouseRegistry {... */\n      mstore(0x40, 0x80)\n      callvalue\n      dup1\n      iszero\n      tag_1\n      jumpi\n      0x00\n      dup1\n      revert\n    tag_1:\n      pop\n      jumpi(tag_2, lt(calldatasize, 0x04))\n      shr(0xe0, calldataload(0x00))\n      dup1\n      0x91bfe0d4\n      eq\n      tag_3\n      jumpi\n      dup1\n      0xaeda852f\n      eq\n      tag_4\n      jumpi\n    tag_2:\n      0x00\n      dup1\n      revert\n        /* \"contract/HouseRegistry.sol\":425:902  function listHouse (uint _price, uint _area, address _sellerAddress, string memory _houseAddress) public returns (uint) {... */\n    tag_3:\n      tag_5\n      0x04\n      dup1\n      calldatasize\n      sub\n      dup2\n      add\n      swap1\n      tag_6\n      swap2\n      swap1\n      tag_7\n      jump\t// in\n    tag_6:\n      tag_8\n      jump\t// in\n    tag_5:\n      mload(0x40)\n      tag_9\n      swap2\n      swap1\n      tag_10\n      jump\t// in\n    tag_9:\n      mload(0x40)\n      dup1\n      swap2\n      sub\n      swap1\n      return\n        /* \"contract/HouseRegistry.sol\":382:418  mapping(uint => House) public houses */\n    tag_4:\n      tag_11\n      0x04\n      dup1\n      calldatasize\n      sub\n      dup2\n      add\n      swap1\n      tag_12\n      swap2\n      swap1\n      tag_13\n      jump\t// in\n    tag_12:\n      tag_14\n      jump\t// in\n    tag_11:\n      mload(0x40)\n      tag_15\n      swap6\n      swap5\n      swap4\n      swap3\n      swap2\n      swap1\n      tag_16\n      jump\t// in\n    tag_15:\n      mload(0x40)\n      dup1\n      swap2\n      sub\n      swap1\n      return\n        /* \"contract/HouseRegistry.sol\":425:902  function listHouse (uint _price, uint _area, address _sellerAddress, string memory _houseAddress) public returns (uint) {... */\n    tag_8:\n        /* \"contract/HouseRegistry.sol\":539:543  uint */\n      0x00\n        /* \"contract/HouseRegistry.sol\":580:581  0 */\n      dup1\n        /* \"contract/HouseRegistry.sol\":572:577  _area */\n      dup5\n        /* \"contract/HouseRegistry.sol\":563:569  _price */\n      dup7\n        /* \"contract/HouseRegistry.sol\":563:577  _price * _area */\n      tag_18\n      swap2\n      swap1\n      tag_19\n      jump\t// in\n    tag_18:\n        /* \"contract/HouseRegistry.sol\":563:581  _price * _area > 0 */\n      gt\n        /* \"contract/HouseRegistry.sol\":555:582  require(_price * _area > 0) */\n      tag_20\n      jumpi\n      0x00\n      dup1\n      revert\n    tag_20:\n        /* \"contract/HouseRegistry.sol\":592:604  uint houseId */\n      0x00\n        /* \"contract/HouseRegistry.sol\":607:661  _generateHouseId(_sellerAddress, _area, _houseAddress) */\n      tag_21\n        /* \"contract/HouseRegistry.sol\":624:638  _sellerAddress */\n      dup5\n        /* \"contract/HouseRegistry.sol\":640:645  _area */\n      dup7\n        /* \"contract/HouseRegistry.sol\":647:660  _houseAddress */\n      dup6\n        /* \"contract/HouseRegistry.sol\":607:623  _generateHouseId */\n      tag_22\n        /* \"contract/HouseRegistry.sol\":607:661  _generateHouseId(_sellerAddress, _area, _houseAddress) */\n      jump\t// in\n    tag_21:\n        /* \"contract/HouseRegistry.sol\":592:661  uint houseId = _generateHouseId(_sellerAddress, _area, _houseAddress) */\n      swap1\n      pop\n        /* \"contract/HouseRegistry.sol\":690:696  houses */\n      0x02\n        /* \"contract/HouseRegistry.sol\":690:705  houses[houseId] */\n      0x00\n        /* \"contract/HouseRegistry.sol\":697:704  houseId */\n      dup3\n        /* \"contract/HouseRegistry.sol\":690:705  houses[houseId] */\n      dup2\n      mstore\n      0x20\n      add\n      swap1\n      dup2\n      mstore\n      0x20\n      add\n      0x00\n      keccak256\n        /* \"contract/HouseRegistry.sol\":690:708  houses[houseId].id */\n      0x00\n      add\n      sload\n        /* \"contract/HouseRegistry.sol\":679:686  houseId */\n      dup2\n        /* \"contract/HouseRegistry.sol\":679:708  houseId != houses[houseId].id */\n      eq\n      iszero\n        /* \"contract/HouseRegistry.sol\":671:709  require(houseId != houses[houseId].id) */\n      tag_23\n      jumpi\n      0x00\n      dup1\n      revert\n    tag_23:\n        /* \"contract/HouseRegistry.sol\":737:797  House(houseId, _price, _area, _sellerAddress, _houseAddress) */\n      mload(0x40)\n      dup1\n      0xa0\n      add\n      0x40\n      mstore\n      dup1\n        /* \"contract/HouseRegistry.sol\":743:750  houseId */\n      dup3\n        /* \"contract/HouseRegistry.sol\":737:797  House(houseId, _price, _area, _sellerAddress, _houseAddress) */\n      dup2\n      mstore\n      0x20\n      add\n        /* \"contract/HouseRegistry.sol\":752:758  _price */\n      dup8\n        /* \"contract/HouseRegistry.sol\":737:797  House(houseId, _price, _area, _sellerAddress, _houseAddress) */\n      dup2\n      mstore\n      0x20\n      add\n        /* \"contract/HouseRegistry.sol\":760:765  _area */\n      dup7\n        /* \"contract/HouseRegistry.sol\":737:797  House(houseId, _price, _area, _sellerAddress, _houseAddress) */\n      dup2\n      mstore\n      0x20\n      add\n        /* \"contract/HouseRegistry.sol\":767:781  _sellerAddress */\n      dup6\n        /* \"contract/HouseRegistry.sol\":737:797  House(houseId, _price, _area, _sellerAddress, _houseAddress) */\n      0xffffffffffffffffffffffffffffffffffffffff\n      and\n      dup2\n      mstore\n      0x20\n      add\n        /* \"contract/HouseRegistry.sol\":783:796  _houseAddress */\n      dup5\n        /* \"contract/HouseRegistry.sol\":737:797  House(houseId, _price, _area, _sellerAddress, _houseAddress) */\n      dup2\n      mstore\n      pop\n        /* \"contract/HouseRegistry.sol\":719:725  houses */\n      0x02\n        /* \"contract/HouseRegistry.sol\":719:734  houses[houseId] */\n      0x00\n        /* \"contract/HouseRegistry.sol\":726:733  houseId */\n      dup4\n        /* \"contract/HouseRegistry.sol\":719:734  houses[houseId] */\n      dup2\n      mstore\n      0x20\n      add\n      swap1\n      dup2\n      mstore\n      0x20\n      add\n      0x00\n      keccak256\n        /* \"contract/HouseRegistry.sol\":719:797  houses[houseId] = House(houseId, _price, _area, _sellerAddress, _houseAddress) */\n      0x00\n      dup3\n      add\n      mload\n      dup2\n      0x00\n      add\n      sstore\n      0x20\n      dup3\n      add\n      mload\n      dup2\n      0x01\n      add\n      sstore\n      0x40\n      dup3\n      add\n      mload\n      dup2\n      0x02\n      add\n      sstore\n      0x60\n      dup3\n      add\n      mload\n      dup2\n      0x03\n      add\n      exp(0x0100, 0x00)\n      dup2\n      sload\n      dup2\n      0xffffffffffffffffffffffffffffffffffffffff\n      mul\n      not\n      and\n      swap1\n      dup4\n      0xffffffffffffffffffffffffffffffffffffffff\n      and\n      mul\n      or\n      swap1\n      sstore\n      pop\n      0x80\n      dup3\n      add\n      mload\n      dup2\n      0x04\n      add\n      swap1\n      dup1\n      mload\n      swap1\n      0x20\n      add\n      swap1\n      tag_24\n      swap3\n      swap2\n      swap1\n      tag_25\n      jump\t// in\n    tag_24:\n      pop\n      swap1\n      pop\n      pop\n        /* \"contract/HouseRegistry.sol\":812:871  AddNewHouse(houseId, _sellerAddress, _price, _houseAddress) */\n      0x8f5afd88eb4be0ac287d87970052ce9a2b453448408e3c91a695ad7509ab7194\n        /* \"contract/HouseRegistry.sol\":824:831  houseId */\n      dup2\n        /* \"contract/HouseRegistry.sol\":833:847  _sellerAddress */\n      dup6\n        /* \"contract/HouseRegistry.sol\":849:855  _price */\n      dup9\n        /* \"contract/HouseRegistry.sol\":857:870  _houseAddress */\n      dup7\n        /* \"contract/HouseRegistry.sol\":812:871  AddNewHouse(houseId, _sellerAddress, _price, _houseAddress) */\n      mload(0x40)\n      tag_26\n      swap5\n      swap4\n      swap3\n      swap2\n      swap1\n      tag_27\n      jump\t// in\n    tag_26:\n      mload(0x40)\n      dup1\n      swap2\n      sub\n      swap1\n      log1\n        /* \"contract/HouseRegistry.sol\":888:895  houseId */\n      dup1\n        /* \"contract/HouseRegistry.sol\":881:895  return houseId */\n      swap2\n      pop\n      pop\n        /* \"contract/HouseRegistry.sol\":425:902  function listHouse (uint _price, uint _area, address _sellerAddress, string memory _houseAddress) public returns (uint) {... */\n      swap5\n      swap4\n      pop\n      pop\n      pop\n      pop\n      jump\t// out\n        /* \"contract/HouseRegistry.sol\":382:418  mapping(uint => House) public houses */\n    tag_14:\n      mstore(0x20, 0x02)\n      dup1\n      0x00\n      mstore\n      keccak256(0x00, 0x40)\n      0x00\n      swap2\n      pop\n      swap1\n      pop\n      dup1\n      0x00\n      add\n      sload\n      swap1\n      dup1\n      0x01\n      add\n      sload\n      swap1\n      dup1\n      0x02\n      add\n      sload\n      swap1\n      dup1\n      0x03\n      add\n      0x00\n      swap1\n      sload\n      swap1\n      0x0100\n      exp\n      swap1\n      div\n      0xffffffffffffffffffffffffffffffffffffffff\n      and\n      swap1\n      dup1\n      0x04\n      add\n      dup1\n      sload\n      tag_28\n      swap1\n      tag_29\n      jump\t// in\n    tag_28:\n      dup1\n      0x1f\n      add\n      0x20\n      dup1\n      swap2\n      div\n      mul\n      0x20\n      add\n      mload(0x40)\n      swap1\n      dup2\n      add\n      0x40\n      mstore\n      dup1\n      swap3\n      swap2\n      swap1\n      dup2\n      dup2\n      mstore\n      0x20\n      add\n      dup3\n      dup1\n      sload\n      tag_30\n      swap1\n      tag_29\n      jump\t// in\n    tag_30:\n      dup1\n      iszero\n      tag_31\n      jumpi\n      dup1\n      0x1f\n      lt\n      tag_32\n      jumpi\n      0x0100\n      dup1\n      dup4\n      sload\n      div\n      mul\n      dup4\n      mstore\n      swap2\n      0x20\n      add\n      swap2\n      jump(tag_31)\n    tag_32:\n      dup3\n      add\n      swap2\n      swap1\n      0x00\n      mstore\n      keccak256(0x00, 0x20)\n      swap1\n    tag_33:\n      dup2\n      sload\n      dup2\n      mstore\n      swap1\n      0x01\n      add\n      swap1\n      0x20\n      add\n      dup1\n      dup4\n      gt\n      tag_33\n      jumpi\n      dup3\n      swap1\n      sub\n      0x1f\n      and\n      dup3\n      add\n      swap2\n    tag_31:\n      pop\n      pop\n      pop\n      pop\n      pop\n      swap1\n      pop\n      dup6\n      jump\t// out\n        /* \"contract/HouseRegistry.sol\":908:1162  function _generateHouseId(address _sellerAddress, uint _area, string memory _houseAddress) private view returns(uint){... */\n    tag_22:\n        /* \"contract/HouseRegistry.sol\":1020:1024  uint */\n      0x00\n        /* \"contract/HouseRegistry.sol\":1035:1047  uint houseId */\n      dup1\n        /* \"contract/HouseRegistry.sol\":1082:1096  _sellerAddress */\n      dup5\n        /* \"contract/HouseRegistry.sol\":1098:1103  _area */\n      dup5\n        /* \"contract/HouseRegistry.sol\":1105:1118  _houseAddress */\n      dup5\n        /* \"contract/HouseRegistry.sol\":1065:1119  abi.encodePacked(_sellerAddress, _area, _houseAddress) */\n      add(0x20, mload(0x40))\n      tag_35\n      swap4\n      swap3\n      swap2\n      swap1\n      tag_36\n      jump\t// in\n    tag_35:\n      mload(0x40)\n      0x20\n      dup2\n      dup4\n      sub\n      sub\n      dup2\n      mstore\n      swap1\n      0x40\n      mstore\n        /* \"contract/HouseRegistry.sol\":1055:1120  keccak256(abi.encodePacked(_sellerAddress, _area, _houseAddress)) */\n      dup1\n      mload\n      swap1\n      0x20\n      add\n      keccak256\n        /* \"contract/HouseRegistry.sol\":1050:1121  uint(keccak256(abi.encodePacked(_sellerAddress, _area, _houseAddress))) */\n      0x00\n      shr\n        /* \"contract/HouseRegistry.sol\":1035:1121  uint houseId = uint(keccak256(abi.encodePacked(_sellerAddress, _area, _houseAddress))) */\n      swap1\n      pop\n        /* \"contract/HouseRegistry.sol\":1148:1155  modulus */\n      sload(0x01)\n        /* \"contract/HouseRegistry.sol\":1138:1145  houseId */\n      dup2\n        /* \"contract/HouseRegistry.sol\":1138:1155  houseId % modulus */\n      tag_37\n      swap2\n      swap1\n      tag_38\n      jump\t// in\n    tag_37:\n        /* \"contract/HouseRegistry.sol\":1131:1155  return houseId % modulus */\n      swap2\n      pop\n      pop\n        /* \"contract/HouseRegistry.sol\":908:1162  function _generateHouseId(address _sellerAddress, uint _area, string memory _houseAddress) private view returns(uint){... */\n      swap4\n      swap3\n      pop\n      pop\n      pop\n      jump\t// out\n    tag_25:\n      dup3\n      dup1\n      sload\n      tag_39\n      swap1\n      tag_29\n      jump\t// in\n    tag_39:\n      swap1\n      0x00\n      mstore\n      keccak256(0x00, 0x20)\n      swap1\n      0x1f\n      add\n      0x20\n      swap1\n      div\n      dup2\n      add\n      swap3\n      dup3\n      tag_41\n      jumpi\n      0x00\n      dup6\n      sstore\n      jump(tag_40)\n    tag_41:\n      dup3\n      0x1f\n      lt\n      tag_42\n      jumpi\n      dup1\n      mload\n      not(0xff)\n      and\n      dup4\n      dup1\n      add\n      or\n      dup6\n      sstore\n      jump(tag_40)\n    tag_42:\n      dup3\n      dup1\n      add\n      0x01\n      add\n      dup6\n      sstore\n      dup3\n      iszero\n      tag_40\n      jumpi\n      swap2\n      dup3\n      add\n    tag_43:\n      dup3\n      dup2\n      gt\n      iszero\n      tag_44\n      jumpi\n      dup3\n      mload\n      dup3\n      sstore\n      swap2\n      0x20\n      add\n      swap2\n      swap1\n      0x01\n      add\n      swap1\n      jump(tag_43)\n    tag_44:\n    tag_40:\n      pop\n      swap1\n      pop\n      tag_45\n      swap2\n      swap1\n      tag_46\n      jump\t// in\n    tag_45:\n      pop\n      swap1\n      jump\t// out\n    tag_46:\n    tag_47:\n      dup1\n      dup3\n      gt\n      iszero\n      tag_48\n      jumpi\n      0x00\n      dup2\n      0x00\n      swap1\n      sstore\n      pop\n      0x01\n      add\n      jump(tag_47)\n    tag_48:\n      pop\n      swap1\n      jump\t// out\n        /* \"#utility.yul\":7:419   */\n    tag_50:\n        /* \"#utility.yul\":85:90   */\n      0x00\n        /* \"#utility.yul\":110:176   */\n      tag_52\n        /* \"#utility.yul\":126:175   */\n      tag_53\n        /* \"#utility.yul\":168:174   */\n      dup5\n        /* \"#utility.yul\":126:175   */\n      tag_54\n      jump\t// in\n    tag_53:\n        /* \"#utility.yul\":110:176   */\n      tag_55\n      jump\t// in\n    tag_52:\n        /* \"#utility.yul\":101:176   */\n      swap1\n      pop\n        /* \"#utility.yul\":199:205   */\n      dup3\n        /* \"#utility.yul\":192:197   */\n      dup2\n        /* \"#utility.yul\":185:206   */\n      mstore\n        /* \"#utility.yul\":237:241   */\n      0x20\n        /* \"#utility.yul\":230:235   */\n      dup2\n        /* \"#utility.yul\":226:242   */\n      add\n        /* \"#utility.yul\":275:278   */\n      dup5\n        /* \"#utility.yul\":266:272   */\n      dup5\n        /* \"#utility.yul\":261:264   */\n      dup5\n        /* \"#utility.yul\":257:273   */\n      add\n        /* \"#utility.yul\":254:279   */\n      gt\n        /* \"#utility.yul\":251:363   */\n      iszero\n      tag_56\n      jumpi\n        /* \"#utility.yul\":282:361   */\n      tag_57\n      tag_58\n      jump\t// in\n    tag_57:\n        /* \"#utility.yul\":251:363   */\n    tag_56:\n        /* \"#utility.yul\":372:413   */\n      tag_59\n        /* \"#utility.yul\":406:412   */\n      dup5\n        /* \"#utility.yul\":401:404   */\n      dup3\n        /* \"#utility.yul\":396:399   */\n      dup6\n        /* \"#utility.yul\":372:413   */\n      tag_60\n      jump\t// in\n    tag_59:\n        /* \"#utility.yul\":91:419   */\n      pop\n        /* \"#utility.yul\":7:419   */\n      swap4\n      swap3\n      pop\n      pop\n      pop\n      jump\t// out\n        /* \"#utility.yul\":425:564   */\n    tag_61:\n        /* \"#utility.yul\":471:476   */\n      0x00\n        /* \"#utility.yul\":509:515   */\n      dup2\n        /* \"#utility.yul\":496:516   */\n      calldataload\n        /* \"#utility.yul\":487:516   */\n      swap1\n      pop\n        /* \"#utility.yul\":525:558   */\n      tag_63\n        /* \"#utility.yul\":552:557   */\n      dup2\n        /* \"#utility.yul\":525:558   */\n      tag_64\n      jump\t// in\n    tag_63:\n        /* \"#utility.yul\":425:564   */\n      swap3\n      swap2\n      pop\n      pop\n      jump\t// out\n        /* \"#utility.yul\":584:924   */\n    tag_65:\n        /* \"#utility.yul\":640:645   */\n      0x00\n        /* \"#utility.yul\":689:692   */\n      dup3\n        /* \"#utility.yul\":682:686   */\n      0x1f\n        /* \"#utility.yul\":674:680   */\n      dup4\n        /* \"#utility.yul\":670:687   */\n      add\n        /* \"#utility.yul\":666:693   */\n      slt\n        /* \"#utility.yul\":656:778   */\n      tag_67\n      jumpi\n        /* \"#utility.yul\":697:776   */\n      tag_68\n      tag_69\n      jump\t// in\n    tag_68:\n        /* \"#utility.yul\":656:778   */\n    tag_67:\n        /* \"#utility.yul\":814:820   */\n      dup2\n        /* \"#utility.yul\":801:821   */\n      calldataload\n        /* \"#utility.yul\":839:918   */\n      tag_70\n        /* \"#utility.yul\":914:917   */\n      dup5\n        /* \"#utility.yul\":906:912   */\n      dup3\n        /* \"#utility.yul\":899:903   */\n      0x20\n        /* \"#utility.yul\":891:897   */\n      dup7\n        /* \"#utility.yul\":887:904   */\n      add\n        /* \"#utility.yul\":839:918   */\n      tag_50\n      jump\t// in\n    tag_70:\n        /* \"#utility.yul\":830:918   */\n      swap2\n      pop\n        /* \"#utility.yul\":646:924   */\n      pop\n        /* \"#utility.yul\":584:924   */\n      swap3\n      swap2\n      pop\n      pop\n      jump\t// out\n        /* \"#utility.yul\":930:1069   */\n    tag_71:\n        /* \"#utility.yul\":976:981   */\n      0x00\n        /* \"#utility.yul\":1014:1020   */\n      dup2\n        /* \"#utility.yul\":1001:1021   */\n      calldataload\n        /* \"#utility.yul\":992:1021   */\n      swap1\n      pop\n        /* \"#utility.yul\":1030:1063   */\n      tag_73\n        /* \"#utility.yul\":1057:1062   */\n      dup2\n        /* \"#utility.yul\":1030:1063   */\n      tag_74\n      jump\t// in\n    tag_73:\n        /* \"#utility.yul\":930:1069   */\n      swap3\n      swap2\n      pop\n      pop\n      jump\t// out\n        /* \"#utility.yul\":1075:1404   */\n    tag_13:\n        /* \"#utility.yul\":1134:1140   */\n      0x00\n        /* \"#utility.yul\":1183:1185   */\n      0x20\n        /* \"#utility.yul\":1171:1180   */\n      dup3\n        /* \"#utility.yul\":1162:1169   */\n      dup5\n        /* \"#utility.yul\":1158:1181   */\n      sub\n        /* \"#utility.yul\":1154:1186   */\n      slt\n        /* \"#utility.yul\":1151:1270   */\n      iszero\n      tag_76\n      jumpi\n        /* \"#utility.yul\":1189:1268   */\n      tag_77\n      tag_78\n      jump\t// in\n    tag_77:\n        /* \"#utility.yul\":1151:1270   */\n    tag_76:\n        /* \"#utility.yul\":1309:1310   */\n      0x00\n        /* \"#utility.yul\":1334:1387   */\n      tag_79\n        /* \"#utility.yul\":1379:1386   */\n      dup5\n        /* \"#utility.yul\":1370:1376   */\n      dup3\n        /* \"#utility.yul\":1359:1368   */\n      dup6\n        /* \"#utility.yul\":1355:1377   */\n      add\n        /* \"#utility.yul\":1334:1387   */\n      tag_71\n      jump\t// in\n    tag_79:\n        /* \"#utility.yul\":1324:1387   */\n      swap2\n      pop\n        /* \"#utility.yul\":1280:1397   */\n      pop\n        /* \"#utility.yul\":1075:1404   */\n      swap3\n      swap2\n      pop\n      pop\n      jump\t// out\n        /* \"#utility.yul\":1410:2355   */\n    tag_7:\n        /* \"#utility.yul\":1506:1512   */\n      0x00\n        /* \"#utility.yul\":1514:1520   */\n      dup1\n        /* \"#utility.yul\":1522:1528   */\n      0x00\n        /* \"#utility.yul\":1530:1536   */\n      dup1\n        /* \"#utility.yul\":1579:1582   */\n      0x80\n        /* \"#utility.yul\":1567:1576   */\n      dup6\n        /* \"#utility.yul\":1558:1565   */\n      dup8\n        /* \"#utility.yul\":1554:1577   */\n      sub\n        /* \"#utility.yul\":1550:1583   */\n      slt\n        /* \"#utility.yul\":1547:1667   */\n      iszero\n      tag_81\n      jumpi\n        /* \"#utility.yul\":1586:1665   */\n      tag_82\n      tag_78\n      jump\t// in\n    tag_82:\n        /* \"#utility.yul\":1547:1667   */\n    tag_81:\n        /* \"#utility.yul\":1706:1707   */\n      0x00\n        /* \"#utility.yul\":1731:1784   */\n      tag_83\n        /* \"#utility.yul\":1776:1783   */\n      dup8\n        /* \"#utility.yul\":1767:1773   */\n      dup3\n        /* \"#utility.yul\":1756:1765   */\n      dup9\n        /* \"#utility.yul\":1752:1774   */\n      add\n        /* \"#utility.yul\":1731:1784   */\n      tag_71\n      jump\t// in\n    tag_83:\n        /* \"#utility.yul\":1721:1784   */\n      swap5\n      pop\n        /* \"#utility.yul\":1677:1794   */\n      pop\n        /* \"#utility.yul\":1833:1835   */\n      0x20\n        /* \"#utility.yul\":1859:1912   */\n      tag_84\n        /* \"#utility.yul\":1904:1911   */\n      dup8\n        /* \"#utility.yul\":1895:1901   */\n      dup3\n        /* \"#utility.yul\":1884:1893   */\n      dup9\n        /* \"#utility.yul\":1880:1902   */\n      add\n        /* \"#utility.yul\":1859:1912   */\n      tag_71\n      jump\t// in\n    tag_84:\n        /* \"#utility.yul\":1849:1912   */\n      swap4\n      pop\n        /* \"#utility.yul\":1804:1922   */\n      pop\n        /* \"#utility.yul\":1961:1963   */\n      0x40\n        /* \"#utility.yul\":1987:2040   */\n      tag_85\n        /* \"#utility.yul\":2032:2039   */\n      dup8\n        /* \"#utility.yul\":2023:2029   */\n      dup3\n        /* \"#utility.yul\":2012:2021   */\n      dup9\n        /* \"#utility.yul\":2008:2030   */\n      add\n        /* \"#utility.yul\":1987:2040   */\n      tag_61\n      jump\t// in\n    tag_85:\n        /* \"#utility.yul\":1977:2040   */\n      swap3\n      pop\n        /* \"#utility.yul\":1932:2050   */\n      pop\n        /* \"#utility.yul\":2117:2119   */\n      0x60\n        /* \"#utility.yul\":2106:2115   */\n      dup6\n        /* \"#utility.yul\":2102:2120   */\n      add\n        /* \"#utility.yul\":2089:2121   */\n      calldataload\n        /* \"#utility.yul\":2148:2166   */\n      0xffffffffffffffff\n        /* \"#utility.yul\":2140:2146   */\n      dup2\n        /* \"#utility.yul\":2137:2167   */\n      gt\n        /* \"#utility.yul\":2134:2251   */\n      iszero\n      tag_86\n      jumpi\n        /* \"#utility.yul\":2170:2249   */\n      tag_87\n      tag_88\n      jump\t// in\n    tag_87:\n        /* \"#utility.yul\":2134:2251   */\n    tag_86:\n        /* \"#utility.yul\":2275:2338   */\n      tag_89\n        /* \"#utility.yul\":2330:2337   */\n      dup8\n        /* \"#utility.yul\":2321:2327   */\n      dup3\n        /* \"#utility.yul\":2310:2319   */\n      dup9\n        /* \"#utility.yul\":2306:2328   */\n      add\n        /* \"#utility.yul\":2275:2338   */\n      tag_65\n      jump\t// in\n    tag_89:\n        /* \"#utility.yul\":2265:2338   */\n      swap2\n      pop\n        /* \"#utility.yul\":2060:2348   */\n      pop\n        /* \"#utility.yul\":1410:2355   */\n      swap3\n      swap6\n      swap2\n      swap5\n      pop\n      swap3\n      pop\n      jump\t// out\n        /* \"#utility.yul\":2361:2479   */\n    tag_90:\n        /* \"#utility.yul\":2448:2472   */\n      tag_92\n        /* \"#utility.yul\":2466:2471   */\n      dup2\n        /* \"#utility.yul\":2448:2472   */\n      tag_93\n      jump\t// in\n    tag_92:\n        /* \"#utility.yul\":2443:2446   */\n      dup3\n        /* \"#utility.yul\":2436:2473   */\n      mstore\n        /* \"#utility.yul\":2361:2479   */\n      pop\n      pop\n      jump\t// out\n        /* \"#utility.yul\":2485:2642   */\n    tag_94:\n        /* \"#utility.yul\":2590:2635   */\n      tag_96\n        /* \"#utility.yul\":2610:2634   */\n      tag_97\n        /* \"#utility.yul\":2628:2633   */\n      dup3\n        /* \"#utility.yul\":2610:2634   */\n      tag_93\n      jump\t// in\n    tag_97:\n        /* \"#utility.yul\":2590:2635   */\n      tag_98\n      jump\t// in\n    tag_96:\n        /* \"#utility.yul\":2585:2588   */\n      dup3\n        /* \"#utility.yul\":2578:2636   */\n      mstore\n        /* \"#utility.yul\":2485:2642   */\n      pop\n      pop\n      jump\t// out\n        /* \"#utility.yul\":2648:3012   */\n    tag_99:\n        /* \"#utility.yul\":2736:2739   */\n      0x00\n        /* \"#utility.yul\":2764:2803   */\n      tag_101\n        /* \"#utility.yul\":2797:2802   */\n      dup3\n        /* \"#utility.yul\":2764:2803   */\n      tag_102\n      jump\t// in\n    tag_101:\n        /* \"#utility.yul\":2819:2890   */\n      tag_103\n        /* \"#utility.yul\":2883:2889   */\n      dup2\n        /* \"#utility.yul\":2878:2881   */\n      dup6\n        /* \"#utility.yul\":2819:2890   */\n      tag_104\n      jump\t// in\n    tag_103:\n        /* \"#utility.yul\":2812:2890   */\n      swap4\n      pop\n        /* \"#utility.yul\":2899:2951   */\n      tag_105\n        /* \"#utility.yul\":2944:2950   */\n      dup2\n        /* \"#utility.yul\":2939:2942   */\n      dup6\n        /* \"#utility.yul\":2932:2936   */\n      0x20\n        /* \"#utility.yul\":2925:2930   */\n      dup7\n        /* \"#utility.yul\":2921:2937   */\n      add\n        /* \"#utility.yul\":2899:2951   */\n      tag_106\n      jump\t// in\n    tag_105:\n        /* \"#utility.yul\":2976:3005   */\n      tag_107\n        /* \"#utility.yul\":2998:3004   */\n      dup2\n        /* \"#utility.yul\":2976:3005   */\n      tag_108\n      jump\t// in\n    tag_107:\n        /* \"#utility.yul\":2971:2974   */\n      dup5\n        /* \"#utility.yul\":2967:3006   */\n      add\n        /* \"#utility.yul\":2960:3006   */\n      swap2\n      pop\n        /* \"#utility.yul\":2740:3012   */\n      pop\n        /* \"#utility.yul\":2648:3012   */\n      swap3\n      swap2\n      pop\n      pop\n      jump\t// out\n        /* \"#utility.yul\":3018:3395   */\n    tag_109:\n        /* \"#utility.yul\":3124:3127   */\n      0x00\n        /* \"#utility.yul\":3152:3191   */\n      tag_111\n        /* \"#utility.yul\":3185:3190   */\n      dup3\n        /* \"#utility.yul\":3152:3191   */\n      tag_102\n      jump\t// in\n    tag_111:\n        /* \"#utility.yul\":3207:3296   */\n      tag_112\n        /* \"#utility.yul\":3289:3295   */\n      dup2\n        /* \"#utility.yul\":3284:3287   */\n      dup6\n        /* \"#utility.yul\":3207:3296   */\n      tag_113\n      jump\t// in\n    tag_112:\n        /* \"#utility.yul\":3200:3296   */\n      swap4\n      pop\n        /* \"#utility.yul\":3305:3357   */\n      tag_114\n        /* \"#utility.yul\":3350:3356   */\n      dup2\n        /* \"#utility.yul\":3345:3348   */\n      dup6\n        /* \"#utility.yul\":3338:3342   */\n      0x20\n        /* \"#utility.yul\":3331:3336   */\n      dup7\n        /* \"#utility.yul\":3327:3343   */\n      add\n        /* \"#utility.yul\":3305:3357   */\n      tag_106\n      jump\t// in\n    tag_114:\n        /* \"#utility.yul\":3382:3388   */\n      dup1\n        /* \"#utility.yul\":3377:3380   */\n      dup5\n        /* \"#utility.yul\":3373:3389   */\n      add\n        /* \"#utility.yul\":3366:3389   */\n      swap2\n      pop\n        /* \"#utility.yul\":3128:3395   */\n      pop\n        /* \"#utility.yul\":3018:3395   */\n      swap3\n      swap2\n      pop\n      pop\n      jump\t// out\n        /* \"#utility.yul\":3401:3519   */\n    tag_115:\n        /* \"#utility.yul\":3488:3512   */\n      tag_117\n        /* \"#utility.yul\":3506:3511   */\n      dup2\n        /* \"#utility.yul\":3488:3512   */\n      tag_118\n      jump\t// in\n    tag_117:\n        /* \"#utility.yul\":3483:3486   */\n      dup3\n        /* \"#utility.yul\":3476:3513   */\n      mstore\n        /* \"#utility.yul\":3401:3519   */\n      pop\n      pop\n      jump\t// out\n        /* \"#utility.yul\":3525:3682   */\n    tag_119:\n        /* \"#utility.yul\":3630:3675   */\n      tag_121\n        /* \"#utility.yul\":3650:3674   */\n      tag_122\n        /* \"#utility.yul\":3668:3673   */\n      dup3\n        /* \"#utility.yul\":3650:3674   */\n      tag_118\n      jump\t// in\n    tag_122:\n        /* \"#utility.yul\":3630:3675   */\n      tag_123\n      jump\t// in\n    tag_121:\n        /* \"#utility.yul\":3625:3628   */\n      dup3\n        /* \"#utility.yul\":3618:3676   */\n      mstore\n        /* \"#utility.yul\":3525:3682   */\n      pop\n      pop\n      jump\t// out\n        /* \"#utility.yul\":3688:4245   */\n    tag_36:\n        /* \"#utility.yul\":3876:3879   */\n      0x00\n        /* \"#utility.yul\":3891:3966   */\n      tag_125\n        /* \"#utility.yul\":3962:3965   */\n      dup3\n        /* \"#utility.yul\":3953:3959   */\n      dup7\n        /* \"#utility.yul\":3891:3966   */\n      tag_94\n      jump\t// in\n    tag_125:\n        /* \"#utility.yul\":3991:3993   */\n      0x14\n        /* \"#utility.yul\":3986:3989   */\n      dup3\n        /* \"#utility.yul\":3982:3994   */\n      add\n        /* \"#utility.yul\":3975:3994   */\n      swap2\n      pop\n        /* \"#utility.yul\":4004:4079   */\n      tag_126\n        /* \"#utility.yul\":4075:4078   */\n      dup3\n        /* \"#utility.yul\":4066:4072   */\n      dup6\n        /* \"#utility.yul\":4004:4079   */\n      tag_119\n      jump\t// in\n    tag_126:\n        /* \"#utility.yul\":4104:4106   */\n      0x20\n        /* \"#utility.yul\":4099:4102   */\n      dup3\n        /* \"#utility.yul\":4095:4107   */\n      add\n        /* \"#utility.yul\":4088:4107   */\n      swap2\n      pop\n        /* \"#utility.yul\":4124:4219   */\n      tag_127\n        /* \"#utility.yul\":4215:4218   */\n      dup3\n        /* \"#utility.yul\":4206:4212   */\n      dup5\n        /* \"#utility.yul\":4124:4219   */\n      tag_109\n      jump\t// in\n    tag_127:\n        /* \"#utility.yul\":4117:4219   */\n      swap2\n      pop\n        /* \"#utility.yul\":4236:4239   */\n      dup2\n        /* \"#utility.yul\":4229:4239   */\n      swap1\n      pop\n        /* \"#utility.yul\":3688:4245   */\n      swap5\n      swap4\n      pop\n      pop\n      pop\n      pop\n      jump\t// out\n        /* \"#utility.yul\":4251:4473   */\n    tag_10:\n        /* \"#utility.yul\":4344:4348   */\n      0x00\n        /* \"#utility.yul\":4382:4384   */\n      0x20\n        /* \"#utility.yul\":4371:4380   */\n      dup3\n        /* \"#utility.yul\":4367:4385   */\n      add\n        /* \"#utility.yul\":4359:4385   */\n      swap1\n      pop\n        /* \"#utility.yul\":4395:4466   */\n      tag_129\n        /* \"#utility.yul\":4463:4464   */\n      0x00\n        /* \"#utility.yul\":4452:4461   */\n      dup4\n        /* \"#utility.yul\":4448:4465   */\n      add\n        /* \"#utility.yul\":4439:4445   */\n      dup5\n        /* \"#utility.yul\":4395:4466   */\n      tag_115\n      jump\t// in\n    tag_129:\n        /* \"#utility.yul\":4251:4473   */\n      swap3\n      swap2\n      pop\n      pop\n      jump\t// out\n        /* \"#utility.yul\":4479:5123   */\n    tag_27:\n        /* \"#utility.yul\":4676:4680   */\n      0x00\n        /* \"#utility.yul\":4714:4717   */\n      0x80\n        /* \"#utility.yul\":4703:4712   */\n      dup3\n        /* \"#utility.yul\":4699:4718   */\n      add\n        /* \"#utility.yul\":4691:4718   */\n      swap1\n      pop\n        /* \"#utility.yul\":4728:4799   */\n      tag_131\n        /* \"#utility.yul\":4796:4797   */\n      0x00\n        /* \"#utility.yul\":4785:4794   */\n      dup4\n        /* \"#utility.yul\":4781:4798   */\n      add\n        /* \"#utility.yul\":4772:4778   */\n      dup8\n        /* \"#utility.yul\":4728:4799   */\n      tag_115\n      jump\t// in\n    tag_131:\n        /* \"#utility.yul\":4809:4881   */\n      tag_132\n        /* \"#utility.yul\":4877:4879   */\n      0x20\n        /* \"#utility.yul\":4866:4875   */\n      dup4\n        /* \"#utility.yul\":4862:4880   */\n      add\n        /* \"#utility.yul\":4853:4859   */\n      dup7\n        /* \"#utility.yul\":4809:4881   */\n      tag_90\n      jump\t// in\n    tag_132:\n        /* \"#utility.yul\":4891:4963   */\n      tag_133\n        /* \"#utility.yul\":4959:4961   */\n      0x40\n        /* \"#utility.yul\":4948:4957   */\n      dup4\n        /* \"#utility.yul\":4944:4962   */\n      add\n        /* \"#utility.yul\":4935:4941   */\n      dup6\n        /* \"#utility.yul\":4891:4963   */\n      tag_115\n      jump\t// in\n    tag_133:\n        /* \"#utility.yul\":5010:5019   */\n      dup2\n        /* \"#utility.yul\":5004:5008   */\n      dup2\n        /* \"#utility.yul\":5000:5020   */\n      sub\n        /* \"#utility.yul\":4995:4997   */\n      0x60\n        /* \"#utility.yul\":4984:4993   */\n      dup4\n        /* \"#utility.yul\":4980:4998   */\n      add\n        /* \"#utility.yul\":4973:5021   */\n      mstore\n        /* \"#utility.yul\":5038:5116   */\n      tag_134\n        /* \"#utility.yul\":5111:5115   */\n      dup2\n        /* \"#utility.yul\":5102:5108   */\n      dup5\n        /* \"#utility.yul\":5038:5116   */\n      tag_99\n      jump\t// in\n    tag_134:\n        /* \"#utility.yul\":5030:5116   */\n      swap1\n      pop\n        /* \"#utility.yul\":4479:5123   */\n      swap6\n      swap5\n      pop\n      pop\n      pop\n      pop\n      pop\n      jump\t// out\n        /* \"#utility.yul\":5129:5884   */\n    tag_16:\n        /* \"#utility.yul\":5354:5358   */\n      0x00\n        /* \"#utility.yul\":5392:5395   */\n      0xa0\n        /* \"#utility.yul\":5381:5390   */\n      dup3\n        /* \"#utility.yul\":5377:5396   */\n      add\n        /* \"#utility.yul\":5369:5396   */\n      swap1\n      pop\n        /* \"#utility.yul\":5406:5477   */\n      tag_136\n        /* \"#utility.yul\":5474:5475   */\n      0x00\n        /* \"#utility.yul\":5463:5472   */\n      dup4\n        /* \"#utility.yul\":5459:5476   */\n      add\n        /* \"#utility.yul\":5450:5456   */\n      dup9\n        /* \"#utility.yul\":5406:5477   */\n      tag_115\n      jump\t// in\n    tag_136:\n        /* \"#utility.yul\":5487:5559   */\n      tag_137\n        /* \"#utility.yul\":5555:5557   */\n      0x20\n        /* \"#utility.yul\":5544:5553   */\n      dup4\n        /* \"#utility.yul\":5540:5558   */\n      add\n        /* \"#utility.yul\":5531:5537   */\n      dup8\n        /* \"#utility.yul\":5487:5559   */\n      tag_115\n      jump\t// in\n    tag_137:\n        /* \"#utility.yul\":5569:5641   */\n      tag_138\n        /* \"#utility.yul\":5637:5639   */\n      0x40\n        /* \"#utility.yul\":5626:5635   */\n      dup4\n        /* \"#utility.yul\":5622:5640   */\n      add\n        /* \"#utility.yul\":5613:5619   */\n      dup7\n        /* \"#utility.yul\":5569:5641   */\n      tag_115\n      jump\t// in\n    tag_138:\n        /* \"#utility.yul\":5651:5723   */\n      tag_139\n        /* \"#utility.yul\":5719:5721   */\n      0x60\n        /* \"#utility.yul\":5708:5717   */\n      dup4\n        /* \"#utility.yul\":5704:5722   */\n      add\n        /* \"#utility.yul\":5695:5701   */\n      dup6\n        /* \"#utility.yul\":5651:5723   */\n      tag_90\n      jump\t// in\n    tag_139:\n        /* \"#utility.yul\":5771:5780   */\n      dup2\n        /* \"#utility.yul\":5765:5769   */\n      dup2\n        /* \"#utility.yul\":5761:5781   */\n      sub\n        /* \"#utility.yul\":5755:5758   */\n      0x80\n        /* \"#utility.yul\":5744:5753   */\n      dup4\n        /* \"#utility.yul\":5740:5759   */\n      add\n        /* \"#utility.yul\":5733:5782   */\n      mstore\n        /* \"#utility.yul\":5799:5877   */\n      tag_140\n        /* \"#utility.yul\":5872:5876   */\n      dup2\n        /* \"#utility.yul\":5863:5869   */\n      dup5\n        /* \"#utility.yul\":5799:5877   */\n      tag_99\n      jump\t// in\n    tag_140:\n        /* \"#utility.yul\":5791:5877   */\n      swap1\n      pop\n        /* \"#utility.yul\":5129:5884   */\n      swap7\n      swap6\n      pop\n      pop\n      pop\n      pop\n      pop\n      pop\n      jump\t// out\n        /* \"#utility.yul\":5890:6019   */\n    tag_55:\n        /* \"#utility.yul\":5924:5930   */\n      0x00\n        /* \"#utility.yul\":5951:5971   */\n      tag_142\n      tag_143\n      jump\t// in\n    tag_142:\n        /* \"#utility.yul\":5941:5971   */\n      swap1\n      pop\n        /* \"#utility.yul\":5980:6013   */\n      tag_144\n        /* \"#utility.yul\":6008:6012   */\n      dup3\n        /* \"#utility.yul\":6000:6006   */\n      dup3\n        /* \"#utility.yul\":5980:6013   */\n      tag_145\n      jump\t// in\n    tag_144:\n        /* \"#utility.yul\":5890:6019   */\n      swap2\n      swap1\n      pop\n      jump\t// out\n        /* \"#utility.yul\":6025:6100   */\n    tag_143:\n        /* \"#utility.yul\":6058:6064   */\n      0x00\n        /* \"#utility.yul\":6091:6093   */\n      0x40\n        /* \"#utility.yul\":6085:6094   */\n      mload\n        /* \"#utility.yul\":6075:6094   */\n      swap1\n      pop\n        /* \"#utility.yul\":6025:6100   */\n      swap1\n      jump\t// out\n        /* \"#utility.yul\":6106:6414   */\n    tag_54:\n        /* \"#utility.yul\":6168:6172   */\n      0x00\n        /* \"#utility.yul\":6258:6276   */\n      0xffffffffffffffff\n        /* \"#utility.yul\":6250:6256   */\n      dup3\n        /* \"#utility.yul\":6247:6277   */\n      gt\n        /* \"#utility.yul\":6244:6300   */\n      iszero\n      tag_148\n      jumpi\n        /* \"#utility.yul\":6280:6298   */\n      tag_149\n      tag_150\n      jump\t// in\n    tag_149:\n        /* \"#utility.yul\":6244:6300   */\n    tag_148:\n        /* \"#utility.yul\":6318:6347   */\n      tag_151\n        /* \"#utility.yul\":6340:6346   */\n      dup3\n        /* \"#utility.yul\":6318:6347   */\n      tag_108\n      jump\t// in\n    tag_151:\n        /* \"#utility.yul\":6310:6347   */\n      swap1\n      pop\n        /* \"#utility.yul\":6402:6406   */\n      0x20\n        /* \"#utility.yul\":6396:6400   */\n      dup2\n        /* \"#utility.yul\":6392:6407   */\n      add\n        /* \"#utility.yul\":6384:6407   */\n      swap1\n      pop\n        /* \"#utility.yul\":6106:6414   */\n      swap2\n      swap1\n      pop\n      jump\t// out\n        /* \"#utility.yul\":6420:6519   */\n    tag_102:\n        /* \"#utility.yul\":6472:6478   */\n      0x00\n        /* \"#utility.yul\":6506:6511   */\n      dup2\n        /* \"#utility.yul\":6500:6512   */\n      mload\n        /* \"#utility.yul\":6490:6512   */\n      swap1\n      pop\n        /* \"#utility.yul\":6420:6519   */\n      swap2\n      swap1\n      pop\n      jump\t// out\n        /* \"#utility.yul\":6525:6694   */\n    tag_104:\n        /* \"#utility.yul\":6609:6620   */\n      0x00\n        /* \"#utility.yul\":6643:6649   */\n      dup3\n        /* \"#utility.yul\":6638:6641   */\n      dup3\n        /* \"#utility.yul\":6631:6650   */\n      mstore\n        /* \"#utility.yul\":6683:6687   */\n      0x20\n        /* \"#utility.yul\":6678:6681   */\n      dup3\n        /* \"#utility.yul\":6674:6688   */\n      add\n        /* \"#utility.yul\":6659:6688   */\n      swap1\n      pop\n        /* \"#utility.yul\":6525:6694   */\n      swap3\n      swap2\n      pop\n      pop\n      jump\t// out\n        /* \"#utility.yul\":6700:6848   */\n    tag_113:\n        /* \"#utility.yul\":6802:6813   */\n      0x00\n        /* \"#utility.yul\":6839:6842   */\n      dup2\n        /* \"#utility.yul\":6824:6842   */\n      swap1\n      pop\n        /* \"#utility.yul\":6700:6848   */\n      swap3\n      swap2\n      pop\n      pop\n      jump\t// out\n        /* \"#utility.yul\":6854:7202   */\n    tag_19:\n        /* \"#utility.yul\":6894:6901   */\n      0x00\n        /* \"#utility.yul\":6917:6937   */\n      tag_156\n        /* \"#utility.yul\":6935:6936   */\n      dup3\n        /* \"#utility.yul\":6917:6937   */\n      tag_118\n      jump\t// in\n    tag_156:\n        /* \"#utility.yul\":6912:6937   */\n      swap2\n      pop\n        /* \"#utility.yul\":6951:6971   */\n      tag_157\n        /* \"#utility.yul\":6969:6970   */\n      dup4\n        /* \"#utility.yul\":6951:6971   */\n      tag_118\n      jump\t// in\n    tag_157:\n        /* \"#utility.yul\":6946:6971   */\n      swap3\n      pop\n        /* \"#utility.yul\":7139:7140   */\n      dup2\n        /* \"#utility.yul\":7071:7137   */\n      0xffffffffffffffffffffffffffffffffffffffffffffffffffffffffffffffff\n        /* \"#utility.yul\":7067:7141   */\n      div\n        /* \"#utility.yul\":7064:7065   */\n      dup4\n        /* \"#utility.yul\":7061:7142   */\n      gt\n        /* \"#utility.yul\":7056:7057   */\n      dup3\n        /* \"#utility.yul\":7049:7058   */\n      iszero\n        /* \"#utility.yul\":7042:7059   */\n      iszero\n        /* \"#utility.yul\":7038:7143   */\n      and\n        /* \"#utility.yul\":7035:7166   */\n      iszero\n      tag_158\n      jumpi\n        /* \"#utility.yul\":7146:7164   */\n      tag_159\n      tag_160\n      jump\t// in\n    tag_159:\n        /* \"#utility.yul\":7035:7166   */\n    tag_158:\n        /* \"#utility.yul\":7194:7195   */\n      dup3\n        /* \"#utility.yul\":7191:7192   */\n      dup3\n        /* \"#utility.yul\":7187:7196   */\n      mul\n        /* \"#utility.yul\":7176:7196   */\n      swap1\n      pop\n        /* \"#utility.yul\":6854:7202   */\n      swap3\n      swap2\n      pop\n      pop\n      jump\t// out\n        /* \"#utility.yul\":7208:7304   */\n    tag_93:\n        /* \"#utility.yul\":7245:7252   */\n      0x00\n        /* \"#utility.yul\":7274:7298   */\n      tag_162\n        /* \"#utility.yul\":7292:7297   */\n      dup3\n        /* \"#utility.yul\":7274:7298   */\n      tag_163\n      jump\t// in\n    tag_162:\n        /* \"#utility.yul\":7263:7298   */\n      swap1\n      pop\n        /* \"#utility.yul\":7208:7304   */\n      swap2\n      swap1\n      pop\n      jump\t// out\n        /* \"#utility.yul\":7310:7436   */\n    tag_163:\n        /* \"#utility.yul\":7347:7354   */\n      0x00\n        /* \"#utility.yul\":7387:7429   */\n      0xffffffffffffffffffffffffffffffffffffffff\n        /* \"#utility.yul\":7380:7385   */\n      dup3\n        /* \"#utility.yul\":7376:7430   */\n      and\n        /* \"#utility.yul\":7365:7430   */\n      swap1\n      pop\n        /* \"#utility.yul\":7310:7436   */\n      swap2\n      swap1\n      pop\n      jump\t// out\n        /* \"#utility.yul\":7442:7519   */\n    tag_118:\n        /* \"#utility.yul\":7479:7486   */\n      0x00\n        /* \"#utility.yul\":7508:7513   */\n      dup2\n        /* \"#utility.yul\":7497:7513   */\n      swap1\n      pop\n        /* \"#utility.yul\":7442:7519   */\n      swap2\n      swap1\n      pop\n      jump\t// out\n        /* \"#utility.yul\":7525:7679   */\n    tag_60:\n        /* \"#utility.yul\":7609:7615   */\n      dup3\n        /* \"#utility.yul\":7604:7607   */\n      dup2\n        /* \"#utility.yul\":7599:7602   */\n      dup4\n        /* \"#utility.yul\":7586:7616   */\n      calldatacopy\n        /* \"#utility.yul\":7671:7672   */\n      0x00\n        /* \"#utility.yul\":7662:7668   */\n      dup4\n        /* \"#utility.yul\":7657:7660   */\n      dup4\n        /* \"#utility.yul\":7653:7669   */\n      add\n        /* \"#utility.yul\":7646:7673   */\n      mstore\n        /* \"#utility.yul\":7525:7679   */\n      pop\n      pop\n      pop\n      jump\t// out\n        /* \"#utility.yul\":7685:7992   */\n    tag_106:\n        /* \"#utility.yul\":7753:7754   */\n      0x00\n        /* \"#utility.yul\":7763:7876   */\n    tag_168:\n        /* \"#utility.yul\":7777:7783   */\n      dup4\n        /* \"#utility.yul\":7774:7775   */\n      dup2\n        /* \"#utility.yul\":7771:7784   */\n      lt\n        /* \"#utility.yul\":7763:7876   */\n      iszero\n      tag_170\n      jumpi\n        /* \"#utility.yul\":7862:7863   */\n      dup1\n        /* \"#utility.yul\":7857:7860   */\n      dup3\n        /* \"#utility.yul\":7853:7864   */\n      add\n        /* \"#utility.yul\":7847:7865   */\n      mload\n        /* \"#utility.yul\":7843:7844   */\n      dup2\n        /* \"#utility.yul\":7838:7841   */\n      dup5\n        /* \"#utility.yul\":7834:7845   */\n      add\n        /* \"#utility.yul\":7827:7866   */\n      mstore\n        /* \"#utility.yul\":7799:7801   */\n      0x20\n        /* \"#utility.yul\":7796:7797   */\n      dup2\n        /* \"#utility.yul\":7792:7802   */\n      add\n        /* \"#utility.yul\":7787:7802   */\n      swap1\n      pop\n        /* \"#utility.yul\":7763:7876   */\n      jump(tag_168)\n    tag_170:\n        /* \"#utility.yul\":7894:7900   */\n      dup4\n        /* \"#utility.yul\":7891:7892   */\n      dup2\n        /* \"#utility.yul\":7888:7901   */\n      gt\n        /* \"#utility.yul\":7885:7986   */\n      iszero\n      tag_171\n      jumpi\n        /* \"#utility.yul\":7974:7975   */\n      0x00\n        /* \"#utility.yul\":7965:7971   */\n      dup5\n        /* \"#utility.yul\":7960:7963   */\n      dup5\n        /* \"#utility.yul\":7956:7972   */\n      add\n        /* \"#utility.yul\":7949:7976   */\n      mstore\n        /* \"#utility.yul\":7885:7986   */\n    tag_171:\n        /* \"#utility.yul\":7734:7992   */\n      pop\n        /* \"#utility.yul\":7685:7992   */\n      pop\n      pop\n      pop\n      jump\t// out\n        /* \"#utility.yul\":7998:8318   */\n    tag_29:\n        /* \"#utility.yul\":8042:8048   */\n      0x00\n        /* \"#utility.yul\":8079:8080   */\n      0x02\n        /* \"#utility.yul\":8073:8077   */\n      dup3\n        /* \"#utility.yul\":8069:8081   */\n      div\n        /* \"#utility.yul\":8059:8081   */\n      swap1\n      pop\n        /* \"#utility.yul\":8126:8127   */\n      0x01\n        /* \"#utility.yul\":8120:8124   */\n      dup3\n        /* \"#utility.yul\":8116:8128   */\n      and\n        /* \"#utility.yul\":8147:8165   */\n      dup1\n        /* \"#utility.yul\":8137:8218   */\n      tag_173\n      jumpi\n        /* \"#utility.yul\":8203:8207   */\n      0x7f\n        /* \"#utility.yul\":8195:8201   */\n      dup3\n        /* \"#utility.yul\":8191:8208   */\n      and\n        /* \"#utility.yul\":8181:8208   */\n      swap2\n      pop\n        /* \"#utility.yul\":8137:8218   */\n    tag_173:\n        /* \"#utility.yul\":8265:8267   */\n      0x20\n        /* \"#utility.yul\":8257:8263   */\n      dup3\n        /* \"#utility.yul\":8254:8268   */\n      lt\n        /* \"#utility.yul\":8234:8252   */\n      dup2\n        /* \"#utility.yul\":8231:8269   */\n      eq\n        /* \"#utility.yul\":8228:8312   */\n      iszero\n      tag_174\n      jumpi\n        /* \"#utility.yul\":8284:8302   */\n      tag_175\n      tag_176\n      jump\t// in\n    tag_175:\n        /* \"#utility.yul\":8228:8312   */\n    tag_174:\n        /* \"#utility.yul\":8049:8318   */\n      pop\n        /* \"#utility.yul\":7998:8318   */\n      swap2\n      swap1\n      pop\n      jump\t// out\n        /* \"#utility.yul\":8324:8605   */\n    tag_145:\n        /* \"#utility.yul\":8407:8434   */\n      tag_178\n        /* \"#utility.yul\":8429:8433   */\n      dup3\n        /* \"#utility.yul\":8407:8434   */\n      tag_108\n      jump\t// in\n    tag_178:\n        /* \"#utility.yul\":8399:8405   */\n      dup2\n        /* \"#utility.yul\":8395:8435   */\n      add\n        /* \"#utility.yul\":8537:8543   */\n      dup2\n        /* \"#utility.yul\":8525:8535   */\n      dup2\n        /* \"#utility.yul\":8522:8544   */\n      lt\n        /* \"#utility.yul\":8501:8519   */\n      0xffffffffffffffff\n        /* \"#utility.yul\":8489:8499   */\n      dup3\n        /* \"#utility.yul\":8486:8520   */\n      gt\n        /* \"#utility.yul\":8483:8545   */\n      or\n        /* \"#utility.yul\":8480:8568   */\n      iszero\n      tag_179\n      jumpi\n        /* \"#utility.yul\":8548:8566   */\n      tag_180\n      tag_150\n      jump\t// in\n    tag_180:\n        /* \"#utility.yul\":8480:8568   */\n    tag_179:\n        /* \"#utility.yul\":8588:8598   */\n      dup1\n        /* \"#utility.yul\":8584:8586   */\n      0x40\n        /* \"#utility.yul\":8577:8599   */\n      mstore\n        /* \"#utility.yul\":8367:8605   */\n      pop\n        /* \"#utility.yul\":8324:8605   */\n      pop\n      pop\n      jump\t// out\n        /* \"#utility.yul\":8611:8711   */\n    tag_98:\n        /* \"#utility.yul\":8650:8657   */\n      0x00\n        /* \"#utility.yul\":8679:8705   */\n      tag_182\n        /* \"#utility.yul\":8699:8704   */\n      dup3\n        /* \"#utility.yul\":8679:8705   */\n      tag_183\n      jump\t// in\n    tag_182:\n        /* \"#utility.yul\":8668:8705   */\n      swap1\n      pop\n        /* \"#utility.yul\":8611:8711   */\n      swap2\n      swap1\n      pop\n      jump\t// out\n        /* \"#utility.yul\":8717:8811   */\n    tag_183:\n        /* \"#utility.yul\":8756:8763   */\n      0x00\n        /* \"#utility.yul\":8785:8805   */\n      tag_185\n        /* \"#utility.yul\":8799:8804   */\n      dup3\n        /* \"#utility.yul\":8785:8805   */\n      tag_186\n      jump\t// in\n    tag_185:\n        /* \"#utility.yul\":8774:8805   */\n      swap1\n      pop\n        /* \"#utility.yul\":8717:8811   */\n      swap2\n      swap1\n      pop\n      jump\t// out\n        /* \"#utility.yul\":8817:8896   */\n    tag_123:\n        /* \"#utility.yul\":8856:8863   */\n      0x00\n        /* \"#utility.yul\":8885:8890   */\n      dup2\n        /* \"#utility.yul\":8874:8890   */\n      swap1\n      pop\n        /* \"#utility.yul\":8817:8896   */\n      swap2\n      swap1\n      pop\n      jump\t// out\n        /* \"#utility.yul\":8902:9078   */\n    tag_38:\n        /* \"#utility.yul\":8934:8935   */\n      0x00\n        /* \"#utility.yul\":8951:8971   */\n      tag_189\n        /* \"#utility.yul\":8969:8970   */\n      dup3\n        /* \"#utility.yul\":8951:8971   */\n      tag_118\n      jump\t// in\n    tag_189:\n        /* \"#utility.yul\":8946:8971   */\n      swap2\n      pop\n        /* \"#utility.yul\":8985:9005   */\n      tag_190\n        /* \"#utility.yul\":9003:9004   */\n      dup4\n        /* \"#utility.yul\":8985:9005   */\n      tag_118\n      jump\t// in\n    tag_190:\n        /* \"#utility.yul\":8980:9005   */\n      swap3\n      pop\n        /* \"#utility.yul\":9024:9025   */\n      dup3\n        /* \"#utility.yul\":9014:9049   */\n      tag_191\n      jumpi\n        /* \"#utility.yul\":9029:9047   */\n      tag_192\n      tag_193\n      jump\t// in\n    tag_192:\n        /* \"#utility.yul\":9014:9049   */\n    tag_191:\n        /* \"#utility.yul\":9070:9071   */\n      dup3\n        /* \"#utility.yul\":9067:9068   */\n      dup3\n        /* \"#utility.yul\":9063:9072   */\n      mod\n        /* \"#utility.yul\":9058:9072   */\n      swap1\n      pop\n        /* \"#utility.yul\":8902:9078   */\n      swap3\n      swap2\n      pop\n      pop\n      jump\t// out\n        /* \"#utility.yul\":9084:9264   */\n    tag_160:\n        /* \"#utility.yul\":9132:9209   */\n      0x4e487b7100000000000000000000000000000000000000000000000000000000\n        /* \"#utility.yul\":9129:9130   */\n      0x00\n        /* \"#utility.yul\":9122:9210   */\n      mstore\n        /* \"#utility.yul\":9229:9233   */\n      0x11\n        /* \"#utility.yul\":9226:9227   */\n      0x04\n        /* \"#utility.yul\":9219:9234   */\n      mstore\n        /* \"#utility.yul\":9253:9257   */\n      0x24\n        /* \"#utility.yul\":9250:9251   */\n      0x00\n        /* \"#utility.yul\":9243:9258   */\n      revert\n        /* \"#utility.yul\":9270:9450   */\n    tag_193:\n        /* \"#utility.yul\":9318:9395   */\n      0x4e487b7100000000000000000000000000000000000000000000000000000000\n        /* \"#utility.yul\":9315:9316   */\n      0x00\n        /* \"#utility.yul\":9308:9396   */\n      mstore\n        /* \"#utility.yul\":9415:9419   */\n      0x12\n        /* \"#utility.yul\":9412:9413   */\n      0x04\n        /* \"#utility.yul\":9405:9420   */\n      mstore\n        /* \"#utility.yul\":9439:9443   */\n      0x24\n        /* \"#utility.yul\":9436:9437   */\n      0x00\n        /* \"#utility.yul\":9429:9444   */\n      revert\n        /* \"#utility.yul\":9456:9636   */\n    tag_176:\n        /* \"#utility.yul\":9504:9581   */\n      0x4e487b7100000000000000000000000000000000000000000000000000000000\n        /* \"#utility.yul\":9501:9502   */\n      0x00\n        /* \"#utility.yul\":9494:9582   */\n      mstore\n        /* \"#utility.yul\":9601:9605   */\n      0x22\n        /* \"#utility.yul\":9598:9599   */\n      0x04\n        /* \"#utility.yul\":9591:9606   */\n      mstore\n        /* \"#utility.yul\":9625:9629   */\n      0x24\n        /* \"#utility.yul\":9622:9623   */\n      0x00\n        /* \"#utility.yul\":9615:9630   */\n      revert\n        /* \"#utility.yul\":9642:9822   */\n    tag_150:\n        /* \"#utility.yul\":9690:9767   */\n      0x4e487b7100000000000000000000000000000000000000000000000000000000\n        /* \"#utility.yul\":9687:9688   */\n      0x00\n        /* \"#utility.yul\":9680:9768   */\n      mstore\n        /* \"#utility.yul\":9787:9791   */\n      0x41\n        /* \"#utility.yul\":9784:9785   */\n      0x04\n        /* \"#utility.yul\":9777:9792   */\n      mstore\n        /* \"#utility.yul\":9811:9815   */\n      0x24\n        /* \"#utility.yul\":9808:9809   */\n      0x00\n        /* \"#utility.yul\":9801:9816   */\n      revert\n        /* \"#utility.yul\":9828:9945   */\n    tag_69:\n        /* \"#utility.yul\":9937:9938   */\n      0x00\n        /* \"#utility.yul\":9934:9935   */\n      dup1\n        /* \"#utility.yul\":9927:9939   */\n      revert\n        /* \"#utility.yul\":9951:10068   */\n    tag_58:\n        /* \"#utility.yul\":10060:10061   */\n      0x00\n        /* \"#utility.yul\":10057:10058   */\n      dup1\n        /* \"#utility.yul\":10050:10062   */\n      revert\n        /* \"#utility.yul\":10074:10191   */\n    tag_88:\n        /* \"#utility.yul\":10183:10184   */\n      0x00\n        /* \"#utility.yul\":10180:10181   */\n      dup1\n        /* \"#utility.yul\":10173:10185   */\n      revert\n        /* \"#utility.yul\":10197:10314   */\n    tag_78:\n        /* \"#utility.yul\":10306:10307   */\n      0x00\n        /* \"#utility.yul\":10303:10304   */\n      dup1\n        /* \"#utility.yul\":10296:10308   */\n      revert\n        /* \"#utility.yul\":10320:10422   */\n    tag_108:\n        /* \"#utility.yul\":10361:10367   */\n      0x00\n        /* \"#utility.yul\":10412:10414   */\n      0x1f\n        /* \"#utility.yul\":10408:10415   */\n      not\n        /* \"#utility.yul\":10403:10405   */\n      0x1f\n        /* \"#utility.yul\":10396:10401   */\n      dup4\n        /* \"#utility.yul\":10392:10406   */\n      add\n        /* \"#utility.yul\":10388:10416   */\n      and\n        /* \"#utility.yul\":10378:10416   */\n      swap1\n      pop\n        /* \"#utility.yul\":10320:10422   */\n      swap2\n      swap1\n      pop\n      jump\t// out\n        /* \"#utility.yul\":10428:10522   */\n    tag_186:\n        /* \"#utility.yul\":10461:10469   */\n      0x00\n        /* \"#utility.yul\":10509:10514   */\n      dup2\n        /* \"#utility.yul\":10505:10507   */\n      0x60\n        /* \"#utility.yul\":10501:10515   */\n      shl\n        /* \"#utility.yul\":10480:10515   */\n      swap1\n      pop\n        /* \"#utility.yul\":10428:10522   */\n      swap2\n      swap1\n      pop\n      jump\t// out\n        /* \"#utility.yul\":10528:10650   */\n    tag_64:\n        /* \"#utility.yul\":10601:10625   */\n      tag_205\n        /* \"#utility.yul\":10619:10624   */\n      dup2\n        /* \"#utility.yul\":10601:10625   */\n      tag_93\n      jump\t// in\n    tag_205:\n        /* \"#utility.yul\":10594:10599   */\n      dup2\n        /* \"#utility.yul\":10591:10626   */\n      eq\n        /* \"#utility.yul\":10581:10644   */\n      tag_206\n      jumpi\n        /* \"#utility.yul\":10640:10641   */\n      0x00\n        /* \"#utility.yul\":10637:10638   */\n      dup1\n        /* \"#utility.yul\":10630:10642   */\n      revert\n        /* \"#utility.yul\":10581:10644   */\n    tag_206:\n        /* \"#utility.yul\":10528:10650   */\n      pop\n      jump\t// out\n        /* \"#utility.yul\":10656:10778   */\n    tag_74:\n        /* \"#utility.yul\":10729:10753   */\n      tag_208\n        /* \"#utility.yul\":10747:10752   */\n      dup2\n        /* \"#utility.yul\":10729:10753   */\n      tag_118\n      jump\t// in\n    tag_208:\n        /* \"#utility.yul\":10722:10727   */\n      dup2\n        /* \"#utility.yul\":10719:10754   */\n      eq\n        /* \"#utility.yul\":10709:10772   */\n      tag_209\n      jumpi\n        /* \"#utility.yul\":10768:10769   */\n      0x00\n        /* \"#utility.yul\":10765:10766   */\n      dup1\n        /* \"#utility.yul\":10758:10770   */\n      revert\n        /* \"#utility.yul\":10709:10772   */\n    tag_209:\n        /* \"#utility.yul\":10656:10778   */\n      pop\n      jump\t// out\n\n    auxdata: 0xa2646970667358221220d7c71e93ba9938a1faefe4e3e662a1156a2ff15f247fe8d135e4703606ca4dc464736f6c63430008070033\n}\n",
				"bytecode": {
					"linkReferences": {},
					"object": "60806040526005600055600054600a6200001a91906200008c565b6001553480156200002a57600080fd5b506200020f565b6000808291508390505b600185111562000083578086048111156200005b576200005a620001d3565b5b60018516156200006b5780820291505b80810290506200007b8562000202565b94506200003b565b94509492505050565b60006200009982620001c9565b9150620000a683620001c9565b9250620000d57fffffffffffffffffffffffffffffffffffffffffffffffffffffffffffffffff8484620000dd565b905092915050565b600082620000ef5760019050620001c2565b81620000ff5760009050620001c2565b8160018114620001185760028114620001235762000159565b6001915050620001c2565b60ff841115620001385762000137620001d3565b5b8360020a915084821115620001525762000151620001d3565b5b50620001c2565b5060208310610133831016604e8410600b8410161715620001935782820a9050838111156200018d576200018c620001d3565b5b620001c2565b620001a2848484600162000031565b92509050818404811115620001bc57620001bb620001d3565b5b81810290505b9392505050565b6000819050919050565b7f4e487b7100000000000000000000000000000000000000000000000000000000600052601160045260246000fd5b60008160011c9050919050565b610a37806200021f6000396000f3fe608060405234801561001057600080fd5b50600436106100365760003560e01c806391bfe0d41461003b578063aeda852f1461006b575b600080fd5b6100556004803603810190610050919061049b565b61009f565b604051610062919061060d565b60405180910390f35b6100856004803603810190610080919061046e565b610208565b604051610096959493929190610674565b60405180910390f35b60008084866100ae919061074b565b116100b857600080fd5b60006100c58486856102e6565b905060026000828152602001908152602001600020600001548114156100ea57600080fd5b6040518060a001604052808281526020018781526020018681526020018573ffffffffffffffffffffffffffffffffffffffff168152602001848152506002600083815260200190815260200160002060008201518160000155602082015181600101556040820151816002015560608201518160030160006101000a81548173ffffffffffffffffffffffffffffffffffffffff021916908373ffffffffffffffffffffffffffffffffffffffff16021790555060808201518160040190805190602001906101bb929190610331565b509050507f8f5afd88eb4be0ac287d87970052ce9a2b453448408e3c91a695ad7509ab7194818588866040516101f49493929190610628565b60405180910390a180915050949350505050565b60026020528060005260406000206000915090508060000154908060010154908060020154908060030160009054906101000a900473ffffffffffffffffffffffffffffffffffffffff169080600401805461026390610823565b80601f016020809104026020016040519081016040528092919081815260200182805461028f90610823565b80156102dc5780601f106102b1576101008083540402835291602001916102dc565b820191906000526020600020905b8154815290600101906020018083116102bf57829003601f168201915b5050505050905085565b6000808484846040516020016102fe939291906105d4565b6040516020818303038152906040528051906020012060001c90506001548161032791906108b4565b9150509392505050565b82805461033d90610823565b90600052602060002090601f01602090048101928261035f57600085556103a6565b82601f1061037857805160ff19168380011785556103a6565b828001600101855582156103a6579182015b828111156103a557825182559160200191906001019061038a565b5b5090506103b391906103b7565b5090565b5b808211156103d05760008160009055506001016103b8565b5090565b60006103e76103e2846106f3565b6106ce565b905082815260208101848484011115610403576104026109a6565b5b61040e8482856107e1565b509392505050565b600081359050610425816109d3565b92915050565b600082601f8301126104405761043f6109a1565b5b81356104508482602086016103d4565b91505092915050565b600081359050610468816109ea565b92915050565b600060208284031215610484576104836109b0565b5b600061049284828501610459565b91505092915050565b600080600080608085870312156104b5576104b46109b0565b5b60006104c387828801610459565b94505060206104d487828801610459565b93505060406104e587828801610416565b925050606085013567ffffffffffffffff811115610506576105056109ab565b5b6105128782880161042b565b91505092959194509250565b610527816107a5565b82525050565b61053e610539826107a5565b610886565b82525050565b600061054f82610724565b610559818561072f565b93506105698185602086016107f0565b610572816109b5565b840191505092915050565b600061058882610724565b6105928185610740565b93506105a28185602086016107f0565b80840191505092915050565b6105b7816107d7565b82525050565b6105ce6105c9826107d7565b6108aa565b82525050565b60006105e0828661052d565b6014820191506105f082856105bd565b602082019150610600828461057d565b9150819050949350505050565b600060208201905061062260008301846105ae565b92915050565b600060808201905061063d60008301876105ae565b61064a602083018661051e565b61065760408301856105ae565b81810360608301526106698184610544565b905095945050505050565b600060a08201905061068960008301886105ae565b61069660208301876105ae565b6106a360408301866105ae565b6106b0606083018561051e565b81810360808301526106c28184610544565b90509695505050505050565b60006106d86106e9565b90506106e48282610855565b919050565b6000604051905090565b600067ffffffffffffffff82111561070e5761070d610972565b5b610717826109b5565b9050602081019050919050565b600081519050919050565b600082825260208201905092915050565b600081905092915050565b6000610756826107d7565b9150610761836107d7565b9250817fffffffffffffffffffffffffffffffffffffffffffffffffffffffffffffffff048311821515161561079a576107996108e5565b5b828202905092915050565b60006107b0826107b7565b9050919050565b600073ffffffffffffffffffffffffffffffffffffffff82169050919050565b6000819050919050565b82818337600083830152505050565b60005b8381101561080e5780820151818401526020810190506107f3565b8381111561081d576000848401525b50505050565b6000600282049050600182168061083b57607f821691505b6020821081141561084f5761084e610943565b5b50919050565b61085e826109b5565b810181811067ffffffffffffffff8211171561087d5761087c610972565b5b80604052505050565b600061089182610898565b9050919050565b60006108a3826109c6565b9050919050565b6000819050919050565b60006108bf826107d7565b91506108ca836107d7565b9250826108da576108d9610914565b5b828206905092915050565b7f4e487b7100000000000000000000000000000000000000000000000000000000600052601160045260246000fd5b7f4e487b7100000000000000000000000000000000000000000000000000000000600052601260045260246000fd5b7f4e487b7100000000000000000000000000000000000000000000000000000000600052602260045260246000fd5b7f4e487b7100000000000000000000000000000000000000000000000000000000600052604160045260246000fd5b600080fd5b600080fd5b600080fd5b600080fd5b6000601f19601f8301169050919050565b60008160601b9050919050565b6109dc816107a5565b81146109e757600080fd5b50565b6109f3816107d7565b81146109fe57600080fd5b5056fea2646970667358221220d7c71e93ba9938a1faefe4e3e662a1156a2ff15f247fe8d135e4703606ca4dc464736f6c63430008070033",
					"opcodes": "PUSH1 0x80 PUSH1 0x40 MSTORE PUSH1 0x5 PUSH1 0x0 SSTORE PUSH1 0x0 SLOAD PUSH1 0xA PUSH3 0x1A SWAP2 SWAP1 PUSH3 0x8C JUMP JUMPDEST PUSH1 0x1 SSTORE CALLVALUE DUP1 ISZERO PUSH3 0x2A JUMPI PUSH1 0x0 DUP1 REVERT JUMPDEST POP PUSH3 0x20F JUMP JUMPDEST PUSH1 0x0 DUP1 DUP3 SWAP2 POP DUP4 SWAP1 POP JUMPDEST PUSH1 0x1 DUP6 GT ISZERO PUSH3 0x83 JUMPI DUP1 DUP7 DIV DUP2 GT ISZERO PUSH3 0x5B JUMPI PUSH3 0x5A PUSH3 0x1D3 JUMP JUMPDEST JUMPDEST PUSH1 0x1 DUP6 AND ISZERO PUSH3 0x6B JUMPI DUP1 DUP3 MUL SWAP2 POP JUMPDEST DUP1 DUP2 MUL SWAP1 POP PUSH3 0x7B DUP6 PUSH3 0x202 JUMP JUMPDEST SWAP5 POP PUSH3 0x3B JUMP JUMPDEST SWAP5 POP SWAP5 SWAP3 POP POP POP JUMP JUMPDEST PUSH1 0x0 PUSH3 0x99 DUP3 PUSH3 0x1C9 JUMP JUMPDEST SWAP2 POP PUSH3 0xA6 DUP4 PUSH3 0x1C9 JUMP JUMPDEST SWAP3 POP PUSH3 0xD5 PUSH32 0xFFFFFFFFFFFFFFFFFFFFFFFFFFFFFFFFFFFFFFFFFFFFFFFFFFFFFFFFFFFFFFFF DUP5 DUP5 PUSH3 0xDD JUMP JUMPDEST SWAP1 POP SWAP3 SWAP2 POP POP JUMP JUMPDEST PUSH1 0x0 DUP3 PUSH3 0xEF JUMPI PUSH1 0x1 SWAP1 POP PUSH3 0x1C2 JUMP JUMPDEST DUP2 PUSH3 0xFF JUMPI PUSH1 0x0 SWAP1 POP PUSH3 0x1C2 JUMP JUMPDEST DUP2 PUSH1 0x1 DUP2 EQ PUSH3 0x118 JUMPI PUSH1 0x2 DUP2 EQ PUSH3 0x123 JUMPI PUSH3 0x159 JUMP JUMPDEST PUSH1 0x1 SWAP2 POP POP PUSH3 0x1C2 JUMP JUMPDEST PUSH1 0xFF DUP5 GT ISZERO PUSH3 0x138 JUMPI PUSH3 0x137 PUSH3 0x1D3 JUMP JUMPDEST JUMPDEST DUP4 PUSH1 0x2 EXP SWAP2 POP DUP5 DUP3 GT ISZERO PUSH3 0x152 JUMPI PUSH3 0x151 PUSH3 0x1D3 JUMP JUMPDEST JUMPDEST POP PUSH3 0x1C2 JUMP JUMPDEST POP PUSH1 0x20 DUP4 LT PUSH2 0x133 DUP4 LT AND PUSH1 0x4E DUP5 LT PUSH1 0xB DUP5 LT AND OR ISZERO PUSH3 0x193 JUMPI DUP3 DUP3 EXP SWAP1 POP DUP4 DUP2 GT ISZERO PUSH3 0x18D JUMPI PUSH3 0x18C PUSH3 0x1D3 JUMP JUMPDEST JUMPDEST PUSH3 0x1C2 JUMP JUMPDEST PUSH3 0x1A2 DUP5 DUP5 DUP5 PUSH1 0x1 PUSH3 0x31 JUMP JUMPDEST SWAP3 POP SWAP1 POP DUP2 DUP5 DIV DUP2 GT ISZERO PUSH3 0x1BC JUMPI PUSH3 0x1BB PUSH3 0x1D3 JUMP JUMPDEST JUMPDEST DUP2 DUP2 MUL SWAP1 POP JUMPDEST SWAP4 SWAP3 POP POP POP JUMP JUMPDEST PUSH1 0x0 DUP2 SWAP1 POP SWAP2 SWAP1 POP JUMP JUMPDEST PUSH32 0x4E487B7100000000000000000000000000000000000000000000000000000000 PUSH1 0x0 MSTORE PUSH1 0x11 PUSH1 0x4 MSTORE PUSH1 0x24 PUSH1 0x0 REVERT JUMPDEST PUSH1 0x0 DUP2 PUSH1 0x1 SHR SWAP1 POP SWAP2 SWAP1 POP JUMP JUMPDEST PUSH2 0xA37 DUP1 PUSH3 0x21F PUSH1 0x0 CODECOPY PUSH1 0x0 RETURN INVALID PUSH1 0x80 PUSH1 0x40 MSTORE CALLVALUE DUP1 ISZERO PUSH2 0x10 JUMPI PUSH1 0x0 DUP1 REVERT JUMPDEST POP PUSH1 0x4 CALLDATASIZE LT PUSH2 0x36 JUMPI PUSH1 0x0 CALLDATALOAD PUSH1 0xE0 SHR DUP1 PUSH4 0x91BFE0D4 EQ PUSH2 0x3B JUMPI DUP1 PUSH4 0xAEDA852F EQ PUSH2 0x6B JUMPI JUMPDEST PUSH1 0x0 DUP1 REVERT JUMPDEST PUSH2 0x55 PUSH1 0x4 DUP1 CALLDATASIZE SUB DUP2 ADD SWAP1 PUSH2 0x50 SWAP2 SWAP1 PUSH2 0x49B JUMP JUMPDEST PUSH2 0x9F JUMP JUMPDEST PUSH1 0x40 MLOAD PUSH2 0x62 SWAP2 SWAP1 PUSH2 0x60D JUMP JUMPDEST PUSH1 0x40 MLOAD DUP1 SWAP2 SUB SWAP1 RETURN JUMPDEST PUSH2 0x85 PUSH1 0x4 DUP1 CALLDATASIZE SUB DUP2 ADD SWAP1 PUSH2 0x80 SWAP2 SWAP1 PUSH2 0x46E JUMP JUMPDEST PUSH2 0x208 JUMP JUMPDEST PUSH1 0x40 MLOAD PUSH2 0x96 SWAP6 SWAP5 SWAP4 SWAP3 SWAP2 SWAP1 PUSH2 0x674 JUMP JUMPDEST PUSH1 0x40 MLOAD DUP1 SWAP2 SUB SWAP1 RETURN JUMPDEST PUSH1 0x0 DUP1 DUP5 DUP7 PUSH2 0xAE SWAP2 SWAP1 PUSH2 0x74B JUMP JUMPDEST GT PUSH2 0xB8 JUMPI PUSH1 0x0 DUP1 REVERT JUMPDEST PUSH1 0x0 PUSH2 0xC5 DUP5 DUP7 DUP6 PUSH2 0x2E6 JUMP JUMPDEST SWAP1 POP PUSH1 0x2 PUSH1 0x0 DUP3 DUP2 MSTORE PUSH1 0x20 ADD SWAP1 DUP2 MSTORE PUSH1 0x20 ADD PUSH1 0x0 KECCAK256 PUSH1 0x0 ADD SLOAD DUP2 EQ ISZERO PUSH2 0xEA JUMPI PUSH1 0x0 DUP1 REVERT JUMPDEST PUSH1 0x40 MLOAD DUP1 PUSH1 0xA0 ADD PUSH1 0x40 MSTORE DUP1 DUP3 DUP2 MSTORE PUSH1 0x20 ADD DUP8 DUP2 MSTORE PUSH1 0x20 ADD DUP7 DUP2 MSTORE PUSH1 0x20 ADD DUP6 PUSH20 0xFFFFFFFFFFFFFFFFFFFFFFFFFFFFFFFFFFFFFFFF AND DUP2 MSTORE PUSH1 0x20 ADD DUP5 DUP2 MSTORE POP PUSH1 0x2 PUSH1 0x0 DUP4 DUP2 MSTORE PUSH1 0x20 ADD SWAP1 DUP2 MSTORE PUSH1 0x20 ADD PUSH1 0x0 KECCAK256 PUSH1 0x0 DUP3 ADD MLOAD DUP2 PUSH1 0x0 ADD SSTORE PUSH1 0x20 DUP3 ADD MLOAD DUP2 PUSH1 0x1 ADD SSTORE PUSH1 0x40 DUP3 ADD MLOAD DUP2 PUSH1 0x2 ADD SSTORE PUSH1 0x60 DUP3 ADD MLOAD DUP2 PUSH1 0x3 ADD PUSH1 0x0 PUSH2 0x100 EXP DUP2 SLOAD DUP2 PUSH20 0xFFFFFFFFFFFFFFFFFFFFFFFFFFFFFFFFFFFFFFFF MUL NOT AND SWAP1 DUP4 PUSH20 0xFFFFFFFFFFFFFFFFFFFFFFFFFFFFFFFFFFFFFFFF AND MUL OR SWAP1 SSTORE POP PUSH1 0x80 DUP3 ADD MLOAD DUP2 PUSH1 0x4 ADD SWAP1 DUP1 MLOAD SWAP1 PUSH1 0x20 ADD SWAP1 PUSH2 0x1BB SWAP3 SWAP2 SWAP1 PUSH2 0x331 JUMP JUMPDEST POP SWAP1 POP POP PUSH32 0x8F5AFD88EB4BE0AC287D87970052CE9A2B453448408E3C91A695AD7509AB7194 DUP2 DUP6 DUP9 DUP7 PUSH1 0x40 MLOAD PUSH2 0x1F4 SWAP5 SWAP4 SWAP3 SWAP2 SWAP1 PUSH2 0x628 JUMP JUMPDEST PUSH1 0x40 MLOAD DUP1 SWAP2 SUB SWAP1 LOG1 DUP1 SWAP2 POP POP SWAP5 SWAP4 POP POP POP POP JUMP JUMPDEST PUSH1 0x2 PUSH1 0x20 MSTORE DUP1 PUSH1 0x0 MSTORE PUSH1 0x40 PUSH1 0x0 KECCAK256 PUSH1 0x0 SWAP2 POP SWAP1 POP DUP1 PUSH1 0x0 ADD SLOAD SWAP1 DUP1 PUSH1 0x1 ADD SLOAD SWAP1 DUP1 PUSH1 0x2 ADD SLOAD SWAP1 DUP1 PUSH1 0x3 ADD PUSH1 0x0 SWAP1 SLOAD SWAP1 PUSH2 0x100 EXP SWAP1 DIV PUSH20 0xFFFFFFFFFFFFFFFFFFFFFFFFFFFFFFFFFFFFFFFF AND SWAP1 DUP1 PUSH1 0x4 ADD DUP1 SLOAD PUSH2 0x263 SWAP1 PUSH2 0x823 JUMP JUMPDEST DUP1 PUSH1 0x1F ADD PUSH1 0x20 DUP1 SWAP2 DIV MUL PUSH1 0x20 ADD PUSH1 0x40 MLOAD SWAP1 DUP2 ADD PUSH1 0x40 MSTORE DUP1 SWAP3 SWAP2 SWAP1 DUP2 DUP2 MSTORE PUSH1 0x20 ADD DUP3 DUP1 SLOAD PUSH2 0x28F SWAP1 PUSH2 0x823 JUMP JUMPDEST DUP1 ISZERO PUSH2 0x2DC JUMPI DUP1 PUSH1 0x1F LT PUSH2 0x2B1 JUMPI PUSH2 0x100 DUP1 DUP4 SLOAD DIV MUL DUP4 MSTORE SWAP2 PUSH1 0x20 ADD SWAP2 PUSH2 0x2DC JUMP JUMPDEST DUP3 ADD SWAP2 SWAP1 PUSH1 0x0 MSTORE PUSH1 0x20 PUSH1 0x0 KECCAK256 SWAP1 JUMPDEST DUP2 SLOAD DUP2 MSTORE SWAP1 PUSH1 0x1 ADD SWAP1 PUSH1 0x20 ADD DUP1 DUP4 GT PUSH2 0x2BF JUMPI DUP3 SWAP1 SUB PUSH1 0x1F AND DUP3 ADD SWAP2 JUMPDEST POP POP POP POP POP SWAP1 POP DUP6 JUMP JUMPDEST PUSH1 0x0 DUP1 DUP5 DUP5 DUP5 PUSH1 0x40 MLOAD PUSH1 0x20 ADD PUSH2 0x2FE SWAP4 SWAP3 SWAP2 SWAP1 PUSH2 0x5D4 JUMP JUMPDEST PUSH1 0x40 MLOAD PUSH1 0x20 DUP2 DUP4 SUB SUB DUP2 MSTORE SWAP1 PUSH1 0x40 MSTORE DUP1 MLOAD SWAP1 PUSH1 0x20 ADD KECCAK256 PUSH1 0x0 SHR SWAP1 POP PUSH1 0x1 SLOAD DUP2 PUSH2 0x327 SWAP2 SWAP1 PUSH2 0x8B4 JUMP JUMPDEST SWAP2 POP POP SWAP4 SWAP3 POP POP POP JUMP JUMPDEST DUP3 DUP1 SLOAD PUSH2 0x33D SWAP1 PUSH2 0x823 JUMP JUMPDEST SWAP1 PUSH1 0x0 MSTORE PUSH1 0x20 PUSH1 0x0 KECCAK256 SWAP1 PUSH1 0x1F ADD PUSH1 0x20 SWAP1 DIV DUP2 ADD SWAP3 DUP3 PUSH2 0x35F JUMPI PUSH1 0x0 DUP6 SSTORE PUSH2 0x3A6 JUMP JUMPDEST DUP3 PUSH1 0x1F LT PUSH2 0x378 JUMPI DUP1 MLOAD PUSH1 0xFF NOT AND DUP4 DUP1 ADD OR DUP6 SSTORE PUSH2 0x3A6 JUMP JUMPDEST DUP3 DUP1 ADD PUSH1 0x1 ADD DUP6 SSTORE DUP3 ISZERO PUSH2 0x3A6 JUMPI SWAP2 DUP3 ADD JUMPDEST DUP3 DUP2 GT ISZERO PUSH2 0x3A5 JUMPI DUP3 MLOAD DUP3 SSTORE SWAP2 PUSH1 0x20 ADD SWAP2 SWAP1 PUSH1 0x1 ADD SWAP1 PUSH2 0x38A JUMP JUMPDEST JUMPDEST POP SWAP1 POP PUSH2 0x3B3 SWAP2 SWAP1 PUSH2 0x3B7 JUMP JUMPDEST POP SWAP1 JUMP JUMPDEST JUMPDEST DUP1 DUP3 GT ISZERO PUSH2 0x3D0 JUMPI PUSH1 0x0 DUP2 PUSH1 0x0 SWAP1 SSTORE POP PUSH1 0x1 ADD PUSH2 0x3B8 JUMP JUMPDEST POP SWAP1 JUMP JUMPDEST PUSH1 0x0 PUSH2 0x3E7 PUSH2 0x3E2 DUP5 PUSH2 0x6F3 JUMP JUMPDEST PUSH2 0x6CE JUMP JUMPDEST SWAP1 POP DUP3 DUP2 MSTORE PUSH1 0x20 DUP2 ADD DUP5 DUP5 DUP5 ADD GT ISZERO PUSH2 0x403 JUMPI PUSH2 0x402 PUSH2 0x9A6 JUMP JUMPDEST JUMPDEST PUSH2 0x40E DUP5 DUP3 DUP6 PUSH2 0x7E1 JUMP JUMPDEST POP SWAP4 SWAP3 POP POP POP JUMP JUMPDEST PUSH1 0x0 DUP2 CALLDATALOAD SWAP1 POP PUSH2 0x425 DUP2 PUSH2 0x9D3 JUMP JUMPDEST SWAP3 SWAP2 POP POP JUMP JUMPDEST PUSH1 0x0 DUP3 PUSH1 0x1F DUP4 ADD SLT PUSH2 0x440 JUMPI PUSH2 0x43F PUSH2 0x9A1 JUMP JUMPDEST JUMPDEST DUP2 CALLDATALOAD PUSH2 0x450 DUP5 DUP3 PUSH1 0x20 DUP7 ADD PUSH2 0x3D4 JUMP JUMPDEST SWAP2 POP POP SWAP3 SWAP2 POP POP JUMP JUMPDEST PUSH1 0x0 DUP2 CALLDATALOAD SWAP1 POP PUSH2 0x468 DUP2 PUSH2 0x9EA JUMP JUMPDEST SWAP3 SWAP2 POP POP JUMP JUMPDEST PUSH1 0x0 PUSH1 0x20 DUP3 DUP5 SUB SLT ISZERO PUSH2 0x484 JUMPI PUSH2 0x483 PUSH2 0x9B0 JUMP JUMPDEST JUMPDEST PUSH1 0x0 PUSH2 0x492 DUP5 DUP3 DUP6 ADD PUSH2 0x459 JUMP JUMPDEST SWAP2 POP POP SWAP3 SWAP2 POP POP JUMP JUMPDEST PUSH1 0x0 DUP1 PUSH1 0x0 DUP1 PUSH1 0x80 DUP6 DUP8 SUB SLT ISZERO PUSH2 0x4B5 JUMPI PUSH2 0x4B4 PUSH2 0x9B0 JUMP JUMPDEST JUMPDEST PUSH1 0x0 PUSH2 0x4C3 DUP8 DUP3 DUP9 ADD PUSH2 0x459 JUMP JUMPDEST SWAP5 POP POP PUSH1 0x20 PUSH2 0x4D4 DUP8 DUP3 DUP9 ADD PUSH2 0x459 JUMP JUMPDEST SWAP4 POP POP PUSH1 0x40 PUSH2 0x4E5 DUP8 DUP3 DUP9 ADD PUSH2 0x416 JUMP JUMPDEST SWAP3 POP POP PUSH1 0x60 DUP6 ADD CALLDATALOAD PUSH8 0xFFFFFFFFFFFFFFFF DUP2 GT ISZERO PUSH2 0x506 JUMPI PUSH2 0x505 PUSH2 0x9AB JUMP JUMPDEST JUMPDEST PUSH2 0x512 DUP8 DUP3 DUP9 ADD PUSH2 0x42B JUMP JUMPDEST SWAP2 POP POP SWAP3 SWAP6 SWAP2 SWAP5 POP SWAP3 POP JUMP JUMPDEST PUSH2 0x527 DUP2 PUSH2 0x7A5 JUMP JUMPDEST DUP3 MSTORE POP POP JUMP JUMPDEST PUSH2 0x53E PUSH2 0x539 DUP3 PUSH2 0x7A5 JUMP JUMPDEST PUSH2 0x886 JUMP JUMPDEST DUP3 MSTORE POP POP JUMP JUMPDEST PUSH1 0x0 PUSH2 0x54F DUP3 PUSH2 0x724 JUMP JUMPDEST PUSH2 0x559 DUP2 DUP6 PUSH2 0x72F JUMP JUMPDEST SWAP4 POP PUSH2 0x569 DUP2 DUP6 PUSH1 0x20 DUP7 ADD PUSH2 0x7F0 JUMP JUMPDEST PUSH2 0x572 DUP2 PUSH2 0x9B5 JUMP JUMPDEST DUP5 ADD SWAP2 POP POP SWAP3 SWAP2 POP POP JUMP JUMPDEST PUSH1 0x0 PUSH2 0x588 DUP3 PUSH2 0x724 JUMP JUMPDEST PUSH2 0x592 DUP2 DUP6 PUSH2 0x740 JUMP JUMPDEST SWAP4 POP PUSH2 0x5A2 DUP2 DUP6 PUSH1 0x20 DUP7 ADD PUSH2 0x7F0 JUMP JUMPDEST DUP1 DUP5 ADD SWAP2 POP POP SWAP3 SWAP2 POP POP JUMP JUMPDEST PUSH2 0x5B7 DUP2 PUSH2 0x7D7 JUMP JUMPDEST DUP3 MSTORE POP POP JUMP JUMPDEST PUSH2 0x5CE PUSH2 0x5C9 DUP3 PUSH2 0x7D7 JUMP JUMPDEST PUSH2 0x8AA JUMP JUMPDEST DUP3 MSTORE POP POP JUMP JUMPDEST PUSH1 0x0 PUSH2 0x5E0 DUP3 DUP7 PUSH2 0x52D JUMP JUMPDEST PUSH1 0x14 DUP3 ADD SWAP2 POP PUSH2 0x5F0 DUP3 DUP6 PUSH2 0x5BD JUMP JUMPDEST PUSH1 0x20 DUP3 ADD SWAP2 POP PUSH2 0x600 DUP3 DUP5 PUSH2 0x57D JUMP JUMPDEST SWAP2 POP DUP2 SWAP1 POP SWAP5 SWAP4 POP POP POP POP JUMP JUMPDEST PUSH1 0x0 PUSH1 0x20 DUP3 ADD SWAP1 POP PUSH2 0x622 PUSH1 0x0 DUP4 ADD DUP5 PUSH2 0x5AE JUMP JUMPDEST SWAP3 SWAP2 POP POP JUMP JUMPDEST PUSH1 0x0 PUSH1 0x80 DUP3 ADD SWAP1 POP PUSH2 0x63D PUSH1 0x0 DUP4 ADD DUP8 PUSH2 0x5AE JUMP JUMPDEST PUSH2 0x64A PUSH1 0x20 DUP4 ADD DUP7 PUSH2 0x51E JUMP JUMPDEST PUSH2 0x657 PUSH1 0x40 DUP4 ADD DUP6 PUSH2 0x5AE JUMP JUMPDEST DUP2 DUP2 SUB PUSH1 0x60 DUP4 ADD MSTORE PUSH2 0x669 DUP2 DUP5 PUSH2 0x544 JUMP JUMPDEST SWAP1 POP SWAP6 SWAP5 POP POP POP POP POP JUMP JUMPDEST PUSH1 0x0 PUSH1 0xA0 DUP3 ADD SWAP1 POP PUSH2 0x689 PUSH1 0x0 DUP4 ADD DUP9 PUSH2 0x5AE JUMP JUMPDEST PUSH2 0x696 PUSH1 0x20 DUP4 ADD DUP8 PUSH2 0x5AE JUMP JUMPDEST PUSH2 0x6A3 PUSH1 0x40 DUP4 ADD DUP7 PUSH2 0x5AE JUMP JUMPDEST PUSH2 0x6B0 PUSH1 0x60 DUP4 ADD DUP6 PUSH2 0x51E JUMP JUMPDEST DUP2 DUP2 SUB PUSH1 0x80 DUP4 ADD MSTORE PUSH2 0x6C2 DUP2 DUP5 PUSH2 0x544 JUMP JUMPDEST SWAP1 POP SWAP7 SWAP6 POP POP POP POP POP POP JUMP JUMPDEST PUSH1 0x0 PUSH2 0x6D8 PUSH2 0x6E9 JUMP JUMPDEST SWAP1 POP PUSH2 0x6E4 DUP3 DUP3 PUSH2 0x855 JUMP JUMPDEST SWAP2 SWAP1 POP JUMP JUMPDEST PUSH1 0x0 PUSH1 0x40 MLOAD SWAP1 POP SWAP1 JUMP JUMPDEST PUSH1 0x0 PUSH8 0xFFFFFFFFFFFFFFFF DUP3 GT ISZERO PUSH2 0x70E JUMPI PUSH2 0x70D PUSH2 0x972 JUMP JUMPDEST JUMPDEST PUSH2 0x717 DUP3 PUSH2 0x9B5 JUMP JUMPDEST SWAP1 POP PUSH1 0x20 DUP2 ADD SWAP1 POP SWAP2 SWAP1 POP JUMP JUMPDEST PUSH1 0x0 DUP2 MLOAD SWAP1 POP SWAP2 SWAP1 POP JUMP JUMPDEST PUSH1 0x0 DUP3 DUP3 MSTORE PUSH1 0x20 DUP3 ADD SWAP1 POP SWAP3 SWAP2 POP POP JUMP JUMPDEST PUSH1 0x0 DUP2 SWAP1 POP SWAP3 SWAP2 POP POP JUMP JUMPDEST PUSH1 0x0 PUSH2 0x756 DUP3 PUSH2 0x7D7 JUMP JUMPDEST SWAP2 POP PUSH2 0x761 DUP4 PUSH2 0x7D7 JUMP JUMPDEST SWAP3 POP DUP2 PUSH32 0xFFFFFFFFFFFFFFFFFFFFFFFFFFFFFFFFFFFFFFFFFFFFFFFFFFFFFFFFFFFFFFFF DIV DUP4 GT DUP3 ISZERO ISZERO AND ISZERO PUSH2 0x79A JUMPI PUSH2 0x799 PUSH2 0x8E5 JUMP JUMPDEST JUMPDEST DUP3 DUP3 MUL SWAP1 POP SWAP3 SWAP2 POP POP JUMP JUMPDEST PUSH1 0x0 PUSH2 0x7B0 DUP3 PUSH2 0x7B7 JUMP JUMPDEST SWAP1 POP SWAP2 SWAP1 POP JUMP JUMPDEST PUSH1 0x0 PUSH20 0xFFFFFFFFFFFFFFFFFFFFFFFFFFFFFFFFFFFFFFFF DUP3 AND SWAP1 POP SWAP2 SWAP1 POP JUMP JUMPDEST PUSH1 0x0 DUP2 SWAP1 POP SWAP2 SWAP1 POP JUMP JUMPDEST DUP3 DUP2 DUP4 CALLDATACOPY PUSH1 0x0 DUP4 DUP4 ADD MSTORE POP POP POP JUMP JUMPDEST PUSH1 0x0 JUMPDEST DUP4 DUP2 LT ISZERO PUSH2 0x80E JUMPI DUP1 DUP3 ADD MLOAD DUP2 DUP5 ADD MSTORE PUSH1 0x20 DUP2 ADD SWAP1 POP PUSH2 0x7F3 JUMP JUMPDEST DUP4 DUP2 GT ISZERO PUSH2 0x81D JUMPI PUSH1 0x0 DUP5 DUP5 ADD MSTORE JUMPDEST POP POP POP POP JUMP JUMPDEST PUSH1 0x0 PUSH1 0x2 DUP3 DIV SWAP1 POP PUSH1 0x1 DUP3 AND DUP1 PUSH2 0x83B JUMPI PUSH1 0x7F DUP3 AND SWAP2 POP JUMPDEST PUSH1 0x20 DUP3 LT DUP2 EQ ISZERO PUSH2 0x84F JUMPI PUSH2 0x84E PUSH2 0x943 JUMP JUMPDEST JUMPDEST POP SWAP2 SWAP1 POP JUMP JUMPDEST PUSH2 0x85E DUP3 PUSH2 0x9B5 JUMP JUMPDEST DUP2 ADD DUP2 DUP2 LT PUSH8 0xFFFFFFFFFFFFFFFF DUP3 GT OR ISZERO PUSH2 0x87D JUMPI PUSH2 0x87C PUSH2 0x972 JUMP JUMPDEST JUMPDEST DUP1 PUSH1 0x40 MSTORE POP POP POP JUMP JUMPDEST PUSH1 0x0 PUSH2 0x891 DUP3 PUSH2 0x898 JUMP JUMPDEST SWAP1 POP SWAP2 SWAP1 POP JUMP JUMPDEST PUSH1 0x0 PUSH2 0x8A3 DUP3 PUSH2 0x9C6 JUMP JUMPDEST SWAP1 POP SWAP2 SWAP1 POP JUMP JUMPDEST PUSH1 0x0 DUP2 SWAP1 POP SWAP2 SWAP1 POP JUMP JUMPDEST PUSH1 0x0 PUSH2 0x8BF DUP3 PUSH2 0x7D7 JUMP JUMPDEST SWAP2 POP PUSH2 0x8CA DUP4 PUSH2 0x7D7 JUMP JUMPDEST SWAP3 POP DUP3 PUSH2 0x8DA JUMPI PUSH2 0x8D9 PUSH2 0x914 JUMP JUMPDEST JUMPDEST DUP3 DUP3 MOD SWAP1 POP SWAP3 SWAP2 POP POP JUMP JUMPDEST PUSH32 0x4E487B7100000000000000000000000000000000000000000000000000000000 PUSH1 0x0 MSTORE PUSH1 0x11 PUSH1 0x4 MSTORE PUSH1 0x24 PUSH1 0x0 REVERT JUMPDEST PUSH32 0x4E487B7100000000000000000000000000000000000000000000000000000000 PUSH1 0x0 MSTORE PUSH1 0x12 PUSH1 0x4 MSTORE PUSH1 0x24 PUSH1 0x0 REVERT JUMPDEST PUSH32 0x4E487B7100000000000000000000000000000000000000000000000000000000 PUSH1 0x0 MSTORE PUSH1 0x22 PUSH1 0x4 MSTORE PUSH1 0x24 PUSH1 0x0 REVERT JUMPDEST PUSH32 0x4E487B7100000000000000000000000000000000000000000000000000000000 PUSH1 0x0 MSTORE PUSH1 0x41 PUSH1 0x4 MSTORE PUSH1 0x24 PUSH1 0x0 REVERT JUMPDEST PUSH1 0x0 DUP1 REVERT JUMPDEST PUSH1 0x0 DUP1 REVERT JUMPDEST PUSH1 0x0 DUP1 REVERT JUMPDEST PUSH1 0x0 DUP1 REVERT JUMPDEST PUSH1 0x0 PUSH1 0x1F NOT PUSH1 0x1F DUP4 ADD AND SWAP1 POP SWAP2 SWAP1 POP JUMP JUMPDEST PUSH1 0x0 DUP2 PUSH1 0x60 SHL SWAP1 POP SWAP2 SWAP1 POP JUMP JUMPDEST PUSH2 0x9DC DUP2 PUSH2 0x7A5 JUMP JUMPDEST DUP2 EQ PUSH2 0x9E7 JUMPI PUSH1 0x0 DUP1 REVERT JUMPDEST POP JUMP JUMPDEST PUSH2 0x9F3 DUP2 PUSH2 0x7D7 JUMP JUMPDEST DUP2 EQ PUSH2 0x9FE JUMPI PUSH1 0x0 DUP1 REVERT JUMPDEST POP JUMP INVALID LOG2 PUSH5 0x6970667358 0x22 SLT KECCAK256 0xD7 0xC7 0x1E SWAP4 0xBA SWAP10 CODESIZE LOG1 STATICCALL 0xEF 0xE4 0xE3 0xE6 PUSH3 0xA1156A 0x2F CALL 0x5F 0x24 PUSH32 0xE8D135E4703606CA4DC464736F6C634300080700330000000000000000000000 "
				},
				"gasEstimates": {
					"creation": {
						"codeDepositCost": "523000",
						"executionCost": "infinite",
						"totalCost": "infinite"
					},
					"external": {
						"houses(uint256)": "infinite",
						"listHouse(uint256,uint256,address,string)": "infinite"
					},
					"internal": {
						"_generateHouseId(address,uint256,string memory)": "infinite"
					}
				},
				"methodIdentifiers": {
					"houses(uint256)": "aeda852f",
					"listHouse(uint256,uint256,address,string)": "91bfe0d4"
				}
			},
			"storageLayout": {
				"storage": [
					{
						"astId": 4,
						"contract": "contract/HouseRegistry.sol:HouseRegistry",
						"label": "digits",
						"offset": 0,
						"slot": "0",
						"type": "t_uint256"
					},
					{
						"astId": 9,
						"contract": "contract/HouseRegistry.sol:HouseRegistry",
						"label": "modulus",
						"offset": 0,
						"slot": "1",
						"type": "t_uint256"
					},
					{
						"astId": 35,
						"contract": "contract/HouseRegistry.sol:HouseRegistry",
						"label": "houses",
						"offset": 0,
						"slot": "2",
						"type": "t_mapping(t_uint256,t_struct(House)20_storage)"
					}
				],
				"types": {
					"t_address": {
						"encoding": "inplace",
						"label": "address",
						"numberOfBytes": "20"
					},
					"t_mapping(t_uint256,t_struct(House)20_storage)": {
						"encoding": "mapping",
						"key": "t_uint256",
						"label": "mapping(uint256 => struct HouseRegistry.House)",
						"numberOfBytes": "32",
						"value": "t_struct(House)20_storage"
					},
					"t_string_storage": {
						"encoding": "bytes",
						"label": "string",
						"numberOfBytes": "32"
					},
					"t_struct(House)20_storage": {
						"encoding": "inplace",
						"label": "struct HouseRegistry.House",
						"members": [
							{
								"astId": 11,
								"contract": "contract/HouseRegistry.sol:HouseRegistry",
								"label": "id",
								"offset": 0,
								"slot": "0",
								"type": "t_uint256"
							},
							{
								"astId": 13,
								"contract": "contract/HouseRegistry.sol:HouseRegistry",
								"label": "price",
								"offset": 0,
								"slot": "1",
								"type": "t_uint256"
							},
							{
								"astId": 15,
								"contract": "contract/HouseRegistry.sol:HouseRegistry",
								"label": "area",
								"offset": 0,
								"slot": "2",
								"type": "t_uint256"
							},
							{
								"astId": 17,
								"contract": "contract/HouseRegistry.sol:HouseRegistry",
								"label": "sellerAddress",
								"offset": 0,
								"slot": "3",
								"type": "t_address"
							},
							{
								"astId": 19,
								"contract": "contract/HouseRegistry.sol:HouseRegistry",
								"label": "houseAddress",
								"offset": 0,
								"slot": "4",
								"type": "t_string_storage"
							}
						],
						"numberOfBytes": "160"
					},
					"t_uint256": {
						"encoding": "inplace",
						"label": "uint256",
						"numberOfBytes": "32"
					}
				}
			},
			"userdoc": {
				"kind": "user",
				"methods": {},
				"version": 1
			}
		}
	}
}