{
	"contract/HouseRegistryExt.sol": {
		"HouseRegistryExt": {
			"abi": [
				{
					"anonymous": false,
					"inputs": [
						{
							"indexed": false,
							"internalType": "uint256",
							"name": "houseId",
							"type": "uint256"
						},
						{
							"indexed": false,
							"internalType": "address",
							"name": "_sellerAddress",
							"type": "address"
						},
						{
							"indexed": false,
							"internalType": "uint256",
							"name": "price",
							"type": "uint256"
						},
						{
							"indexed": false,
							"internalType": "string",
							"name": "houseAddress",
							"type": "string"
						}
					],
					"name": "AddNewHouse",
					"type": "event"
				},
				{
					"inputs": [
						{
							"internalType": "uint256",
							"name": "",
							"type": "uint256"
						}
					],
					"name": "houses",
					"outputs": [
						{
							"internalType": "uint256",
							"name": "id",
							"type": "uint256"
						},
						{
							"internalType": "uint256",
							"name": "price",
							"type": "uint256"
						},
						{
							"internalType": "uint256",
							"name": "area",
							"type": "uint256"
						},
						{
							"internalType": "address",
							"name": "sellerAddress",
							"type": "address"
						},
						{
							"internalType": "string",
							"name": "houseAddress",
							"type": "string"
						}
					],
					"stateMutability": "view",
					"type": "function"
				},
				{
					"inputs": [
						{
							"internalType": "uint256",
							"name": "_price",
							"type": "uint256"
						},
						{
							"internalType": "uint256",
							"name": "_area",
							"type": "uint256"
						},
						{
							"internalType": "address",
							"name": "_sellerAddress",
							"type": "address"
						},
						{
							"internalType": "string",
							"name": "_houseAddress",
							"type": "string"
						}
					],
					"name": "listHouse",
					"outputs": [
						{
							"internalType": "uint256",
							"name": "",
							"type": "uint256"
						}
					],
					"stateMutability": "nonpayable",
					"type": "function"
				},
				{
					"inputs": [
						{
							"internalType": "uint256",
							"name": "_price",
							"type": "uint256"
						},
						{
							"internalType": "uint256",
							"name": "_area",
							"type": "uint256"
						},
						{
							"internalType": "string",
							"name": "_houseAddress",
							"type": "string"
						}
					],
					"name": "listHouseSimple",
					"outputs": [],
					"stateMutability": "nonpayable",
					"type": "function"
				}
			],
			"devdoc": {
				"kind": "dev",
				"methods": {},
				"version": 1
			},
			"evm": {
				"assembly": "    /* \"contract/HouseRegistryExt.sol\":99:353  contract HouseRegistryExt is HouseRegistry {\r... */\n  mstore(0x40, 0x80)\n    /* \"contract/HouseRegistry.sol\":106:107  5 */\n  0x05\n    /* \"contract/HouseRegistry.sol\":92:107  uint digits = 5 */\n  0x00\n  sstore\n    /* \"contract/HouseRegistry.sol\":134:140  digits */\n  sload(0x00)\n    /* \"contract/HouseRegistry.sol\":128:130  10 */\n  0x0a\n    /* \"contract/HouseRegistry.sol\":128:140  10 ** digits */\n  tag_1\n  swap2\n  swap1\n  tag_2\n  jump\t// in\ntag_1:\n    /* \"contract/HouseRegistry.sol\":113:140  uint modulus = 10 ** digits */\n  0x01\n  sstore\n    /* \"contract/HouseRegistryExt.sol\":99:353  contract HouseRegistryExt is HouseRegistry {\r... */\n  callvalue\n  dup1\n  iszero\n  tag_3\n  jumpi\n  0x00\n  dup1\n  revert\ntag_3:\n  pop\n  jump(tag_4)\n    /* \"#utility.yul\":7:855   */\ntag_6:\n    /* \"#utility.yul\":68:73   */\n  0x00\n    /* \"#utility.yul\":75:79   */\n  dup1\n    /* \"#utility.yul\":99:105   */\n  dup3\n    /* \"#utility.yul\":90:105   */\n  swap2\n  pop\n    /* \"#utility.yul\":123:128   */\n  dup4\n    /* \"#utility.yul\":114:128   */\n  swap1\n  pop\n    /* \"#utility.yul\":137:849   */\ntag_8:\n    /* \"#utility.yul\":158:159   */\n  0x01\n    /* \"#utility.yul\":148:156   */\n  dup6\n    /* \"#utility.yul\":145:160   */\n  gt\n    /* \"#utility.yul\":137:849   */\n  iszero\n  tag_10\n  jumpi\n    /* \"#utility.yul\":253:257   */\n  dup1\n    /* \"#utility.yul\":248:251   */\n  dup7\n    /* \"#utility.yul\":244:258   */\n  div\n    /* \"#utility.yul\":238:242   */\n  dup2\n    /* \"#utility.yul\":235:259   */\n  gt\n    /* \"#utility.yul\":232:282   */\n  iszero\n  tag_11\n  jumpi\n    /* \"#utility.yul\":262:280   */\n  tag_12\n  tag_13\n  jump\t// in\ntag_12:\n    /* \"#utility.yul\":232:282   */\ntag_11:\n    /* \"#utility.yul\":312:313   */\n  0x01\n    /* \"#utility.yul\":302:310   */\n  dup6\n    /* \"#utility.yul\":298:314   */\n  and\n    /* \"#utility.yul\":295:746   */\n  iszero\n  tag_14\n  jumpi\n    /* \"#utility.yul\":727:731   */\n  dup1\n    /* \"#utility.yul\":720:725   */\n  dup3\n    /* \"#utility.yul\":716:732   */\n  mul\n    /* \"#utility.yul\":707:732   */\n  swap2\n  pop\n    /* \"#utility.yul\":295:746   */\ntag_14:\n    /* \"#utility.yul\":777:781   */\n  dup1\n    /* \"#utility.yul\":771:775   */\n  dup2\n    /* \"#utility.yul\":767:782   */\n  mul\n    /* \"#utility.yul\":759:782   */\n  swap1\n  pop\n    /* \"#utility.yul\":807:839   */\n  tag_15\n    /* \"#utility.yul\":830:838   */\n  dup6\n    /* \"#utility.yul\":807:839   */\n  tag_16\n  jump\t// in\ntag_15:\n    /* \"#utility.yul\":795:839   */\n  swap5\n  pop\n    /* \"#utility.yul\":137:849   */\n  jump(tag_8)\ntag_10:\n    /* \"#utility.yul\":7:855   */\n  swap5\n  pop\n  swap5\n  swap3\n  pop\n  pop\n  pop\n  jump\t// out\n    /* \"#utility.yul\":861:1146   */\ntag_2:\n    /* \"#utility.yul\":921:926   */\n  0x00\n    /* \"#utility.yul\":945:968   */\n  tag_18\n    /* \"#utility.yul\":963:967   */\n  dup3\n    /* \"#utility.yul\":945:968   */\n  tag_19\n  jump\t// in\ntag_18:\n    /* \"#utility.yul\":937:968   */\n  swap2\n  pop\n    /* \"#utility.yul\":989:1016   */\n  tag_20\n    /* \"#utility.yul\":1007:1015   */\n  dup4\n    /* \"#utility.yul\":989:1016   */\n  tag_19\n  jump\t// in\ntag_20:\n    /* \"#utility.yul\":977:1016   */\n  swap3\n  pop\n    /* \"#utility.yul\":1035:1139   */\n  tag_21\n    /* \"#utility.yul\":1072:1138   */\n  0xffffffffffffffffffffffffffffffffffffffffffffffffffffffffffffffff\n    /* \"#utility.yul\":1062:1070   */\n  dup5\n    /* \"#utility.yul\":1056:1060   */\n  dup5\n    /* \"#utility.yul\":1035:1139   */\n  tag_22\n  jump\t// in\ntag_21:\n    /* \"#utility.yul\":1026:1139   */\n  swap1\n  pop\n    /* \"#utility.yul\":861:1146   */\n  swap3\n  swap2\n  pop\n  pop\n  jump\t// out\n    /* \"#utility.yul\":1152:2225   */\ntag_22:\n    /* \"#utility.yul\":1206:1211   */\n  0x00\n    /* \"#utility.yul\":1397:1405   */\n  dup3\n    /* \"#utility.yul\":1387:1427   */\n  tag_24\n  jumpi\n    /* \"#utility.yul\":1418:1419   */\n  0x01\n    /* \"#utility.yul\":1409:1419   */\n  swap1\n  pop\n    /* \"#utility.yul\":1420:1425   */\n  jump(tag_23)\n    /* \"#utility.yul\":1387:1427   */\ntag_24:\n    /* \"#utility.yul\":1446:1450   */\n  dup2\n    /* \"#utility.yul\":1436:1472   */\n  tag_25\n  jumpi\n    /* \"#utility.yul\":1463:1464   */\n  0x00\n    /* \"#utility.yul\":1454:1464   */\n  swap1\n  pop\n    /* \"#utility.yul\":1465:1470   */\n  jump(tag_23)\n    /* \"#utility.yul\":1436:1472   */\ntag_25:\n    /* \"#utility.yul\":1532:1536   */\n  dup2\n    /* \"#utility.yul\":1580:1581   */\n  0x01\n    /* \"#utility.yul\":1575:1602   */\n  dup2\n  eq\n  tag_27\n  jumpi\n    /* \"#utility.yul\":1616:1617   */\n  0x02\n    /* \"#utility.yul\":1611:1802   */\n  dup2\n  eq\n  tag_28\n  jumpi\n    /* \"#utility.yul\":1525:1802   */\n  jump(tag_26)\n    /* \"#utility.yul\":1575:1602   */\ntag_27:\n    /* \"#utility.yul\":1593:1594   */\n  0x01\n    /* \"#utility.yul\":1584:1594   */\n  swap2\n  pop\n    /* \"#utility.yul\":1595:1600   */\n  pop\n  jump(tag_23)\n    /* \"#utility.yul\":1611:1802   */\ntag_28:\n    /* \"#utility.yul\":1656:1659   */\n  0xff\n    /* \"#utility.yul\":1646:1654   */\n  dup5\n    /* \"#utility.yul\":1643:1660   */\n  gt\n    /* \"#utility.yul\":1640:1683   */\n  iszero\n  tag_29\n  jumpi\n    /* \"#utility.yul\":1663:1681   */\n  tag_30\n  tag_13\n  jump\t// in\ntag_30:\n    /* \"#utility.yul\":1640:1683   */\ntag_29:\n    /* \"#utility.yul\":1712:1720   */\n  dup4\n    /* \"#utility.yul\":1709:1710   */\n  0x02\n    /* \"#utility.yul\":1705:1721   */\n  exp\n    /* \"#utility.yul\":1696:1721   */\n  swap2\n  pop\n    /* \"#utility.yul\":1747:1750   */\n  dup5\n    /* \"#utility.yul\":1740:1745   */\n  dup3\n    /* \"#utility.yul\":1737:1751   */\n  gt\n    /* \"#utility.yul\":1734:1774   */\n  iszero\n  tag_31\n  jumpi\n    /* \"#utility.yul\":1754:1772   */\n  tag_32\n  tag_13\n  jump\t// in\ntag_32:\n    /* \"#utility.yul\":1734:1774   */\ntag_31:\n    /* \"#utility.yul\":1787:1792   */\n  pop\n  jump(tag_23)\n    /* \"#utility.yul\":1525:1802   */\ntag_26:\n  pop\n    /* \"#utility.yul\":1911:1913   */\n  0x20\n    /* \"#utility.yul\":1901:1909   */\n  dup4\n    /* \"#utility.yul\":1898:1914   */\n  lt\n    /* \"#utility.yul\":1892:1895   */\n  0x0133\n    /* \"#utility.yul\":1886:1890   */\n  dup4\n    /* \"#utility.yul\":1883:1896   */\n  lt\n    /* \"#utility.yul\":1879:1915   */\n  and\n    /* \"#utility.yul\":1861:1863   */\n  0x4e\n    /* \"#utility.yul\":1851:1859   */\n  dup5\n    /* \"#utility.yul\":1848:1864   */\n  lt\n    /* \"#utility.yul\":1843:1845   */\n  0x0b\n    /* \"#utility.yul\":1837:1841   */\n  dup5\n    /* \"#utility.yul\":1834:1846   */\n  lt\n    /* \"#utility.yul\":1830:1865   */\n  and\n    /* \"#utility.yul\":1814:1925   */\n  or\n    /* \"#utility.yul\":1811:2057   */\n  iszero\n  tag_33\n  jumpi\n    /* \"#utility.yul\":1967:1975   */\n  dup3\n    /* \"#utility.yul\":1961:1965   */\n  dup3\n    /* \"#utility.yul\":1957:1976   */\n  exp\n    /* \"#utility.yul\":1948:1976   */\n  swap1\n  pop\n    /* \"#utility.yul\":2002:2005   */\n  dup4\n    /* \"#utility.yul\":1995:2000   */\n  dup2\n    /* \"#utility.yul\":1992:2006   */\n  gt\n    /* \"#utility.yul\":1989:2029   */\n  iszero\n  tag_34\n  jumpi\n    /* \"#utility.yul\":2009:2027   */\n  tag_35\n  tag_13\n  jump\t// in\ntag_35:\n    /* \"#utility.yul\":1989:2029   */\ntag_34:\n    /* \"#utility.yul\":2042:2047   */\n  jump(tag_23)\n    /* \"#utility.yul\":1811:2057   */\ntag_33:\n    /* \"#utility.yul\":2082:2124   */\n  tag_36\n    /* \"#utility.yul\":2120:2123   */\n  dup5\n    /* \"#utility.yul\":2110:2118   */\n  dup5\n    /* \"#utility.yul\":2104:2108   */\n  dup5\n    /* \"#utility.yul\":2101:2102   */\n  0x01\n    /* \"#utility.yul\":2082:2124   */\n  tag_6\n  jump\t// in\ntag_36:\n    /* \"#utility.yul\":2067:2124   */\n  swap3\n  pop\n  swap1\n  pop\n    /* \"#utility.yul\":2156:2160   */\n  dup2\n    /* \"#utility.yul\":2151:2154   */\n  dup5\n    /* \"#utility.yul\":2147:2161   */\n  div\n    /* \"#utility.yul\":2140:2145   */\n  dup2\n    /* \"#utility.yul\":2137:2162   */\n  gt\n    /* \"#utility.yul\":2134:2185   */\n  iszero\n  tag_37\n  jumpi\n    /* \"#utility.yul\":2165:2183   */\n  tag_38\n  tag_13\n  jump\t// in\ntag_38:\n    /* \"#utility.yul\":2134:2185   */\ntag_37:\n    /* \"#utility.yul\":2214:2218   */\n  dup2\n    /* \"#utility.yul\":2207:2212   */\n  dup2\n    /* \"#utility.yul\":2203:2219   */\n  mul\n    /* \"#utility.yul\":2194:2219   */\n  swap1\n  pop\n    /* \"#utility.yul\":1152:2225   */\ntag_23:\n  swap4\n  swap3\n  pop\n  pop\n  pop\n  jump\t// out\n    /* \"#utility.yul\":2231:2308   */\ntag_19:\n    /* \"#utility.yul\":2268:2275   */\n  0x00\n    /* \"#utility.yul\":2297:2302   */\n  dup2\n    /* \"#utility.yul\":2286:2302   */\n  swap1\n  pop\n    /* \"#utility.yul\":2231:2308   */\n  swap2\n  swap1\n  pop\n  jump\t// out\n    /* \"#utility.yul\":2314:2494   */\ntag_13:\n    /* \"#utility.yul\":2362:2439   */\n  0x4e487b7100000000000000000000000000000000000000000000000000000000\n    /* \"#utility.yul\":2359:2360   */\n  0x00\n    /* \"#utility.yul\":2352:2440   */\n  mstore\n    /* \"#utility.yul\":2459:2463   */\n  0x11\n    /* \"#utility.yul\":2456:2457   */\n  0x04\n    /* \"#utility.yul\":2449:2464   */\n  mstore\n    /* \"#utility.yul\":2483:2487   */\n  0x24\n    /* \"#utility.yul\":2480:2481   */\n  0x00\n    /* \"#utility.yul\":2473:2488   */\n  revert\n    /* \"#utility.yul\":2500:2602   */\ntag_16:\n    /* \"#utility.yul\":2542:2550   */\n  0x00\n    /* \"#utility.yul\":2589:2594   */\n  dup2\n    /* \"#utility.yul\":2586:2587   */\n  0x01\n    /* \"#utility.yul\":2582:2595   */\n  shr\n    /* \"#utility.yul\":2561:2595   */\n  swap1\n  pop\n    /* \"#utility.yul\":2500:2602   */\n  swap2\n  swap1\n  pop\n  jump\t// out\n    /* \"contract/HouseRegistryExt.sol\":99:353  contract HouseRegistryExt is HouseRegistry {\r... */\ntag_4:\n  dataSize(sub_0)\n  dup1\n  dataOffset(sub_0)\n  0x00\n  codecopy\n  0x00\n  return\nstop\n\nsub_0: assembly {\n        /* \"contract/HouseRegistryExt.sol\":99:353  contract HouseRegistryExt is HouseRegistry {\r... */\n      mstore(0x40, 0x80)\n      callvalue\n      dup1\n      iszero\n      tag_1\n      jumpi\n      0x00\n      dup1\n      revert\n    tag_1:\n      pop\n      jumpi(tag_2, lt(calldatasize, 0x04))\n      shr(0xe0, calldataload(0x00))\n      dup1\n      0x91bfe0d4\n      eq\n      tag_3\n      jumpi\n      dup1\n      0xaeda852f\n      eq\n      tag_4\n      jumpi\n      dup1\n      0xbe40a73e\n      eq\n      tag_5\n      jumpi\n    tag_2:\n      0x00\n      dup1\n      revert\n        /* \"contract/HouseRegistry.sol\":425:902  function listHouse (uint _price, uint _area, address _sellerAddress, string memory _houseAddress) public returns (uint) {... */\n    tag_3:\n      tag_6\n      0x04\n      dup1\n      calldatasize\n      sub\n      dup2\n      add\n      swap1\n      tag_7\n      swap2\n      swap1\n      tag_8\n      jump\t// in\n    tag_7:\n      tag_9\n      jump\t// in\n    tag_6:\n      mload(0x40)\n      tag_10\n      swap2\n      swap1\n      tag_11\n      jump\t// in\n    tag_10:\n      mload(0x40)\n      dup1\n      swap2\n      sub\n      swap1\n      return\n        /* \"contract/HouseRegistry.sol\":382:418  mapping(uint => House) public houses */\n    tag_4:\n      tag_12\n      0x04\n      dup1\n      calldatasize\n      sub\n      dup2\n      add\n      swap1\n      tag_13\n      swap2\n      swap1\n      tag_14\n      jump\t// in\n    tag_13:\n      tag_15\n      jump\t// in\n    tag_12:\n      mload(0x40)\n      tag_16\n      swap6\n      swap5\n      swap4\n      swap3\n      swap2\n      swap1\n      tag_17\n      jump\t// in\n    tag_16:\n      mload(0x40)\n      dup1\n      swap2\n      sub\n      swap1\n      return\n        /* \"contract/HouseRegistryExt.sol\":149:350  function listHouseSimple(uint _price, uint _area, string memory _houseAddress) public{\r... */\n    tag_5:\n      tag_18\n      0x04\n      dup1\n      calldatasize\n      sub\n      dup2\n      add\n      swap1\n      tag_19\n      swap2\n      swap1\n      tag_20\n      jump\t// in\n    tag_19:\n      tag_21\n      jump\t// in\n    tag_18:\n      stop\n        /* \"contract/HouseRegistry.sol\":425:902  function listHouse (uint _price, uint _area, address _sellerAddress, string memory _houseAddress) public returns (uint) {... */\n    tag_9:\n        /* \"contract/HouseRegistry.sol\":539:543  uint */\n      0x00\n        /* \"contract/HouseRegistry.sol\":580:581  0 */\n      dup1\n        /* \"contract/HouseRegistry.sol\":572:577  _area */\n      dup5\n        /* \"contract/HouseRegistry.sol\":563:569  _price */\n      dup7\n        /* \"contract/HouseRegistry.sol\":563:577  _price * _area */\n      tag_23\n      swap2\n      swap1\n      tag_24\n      jump\t// in\n    tag_23:\n        /* \"contract/HouseRegistry.sol\":563:581  _price * _area > 0 */\n      gt\n        /* \"contract/HouseRegistry.sol\":555:582  require(_price * _area > 0) */\n      tag_25\n      jumpi\n      0x00\n      dup1\n      revert\n    tag_25:\n        /* \"contract/HouseRegistry.sol\":592:604  uint houseId */\n      0x00\n        /* \"contract/HouseRegistry.sol\":607:661  _generateHouseId(_sellerAddress, _area, _houseAddress) */\n      tag_26\n        /* \"contract/HouseRegistry.sol\":624:638  _sellerAddress */\n      dup5\n        /* \"contract/HouseRegistry.sol\":640:645  _area */\n      dup7\n        /* \"contract/HouseRegistry.sol\":647:660  _houseAddress */\n      dup6\n        /* \"contract/HouseRegistry.sol\":607:623  _generateHouseId */\n      tag_27\n        /* \"contract/HouseRegistry.sol\":607:661  _generateHouseId(_sellerAddress, _area, _houseAddress) */\n      jump\t// in\n    tag_26:\n        /* \"contract/HouseRegistry.sol\":592:661  uint houseId = _generateHouseId(_sellerAddress, _area, _houseAddress) */\n      swap1\n      pop\n        /* \"contract/HouseRegistry.sol\":690:696  houses */\n      0x02\n        /* \"contract/HouseRegistry.sol\":690:705  houses[houseId] */\n      0x00\n        /* \"contract/HouseRegistry.sol\":697:704  houseId */\n      dup3\n        /* \"contract/HouseRegistry.sol\":690:705  houses[houseId] */\n      dup2\n      mstore\n      0x20\n      add\n      swap1\n      dup2\n      mstore\n      0x20\n      add\n      0x00\n      keccak256\n        /* \"contract/HouseRegistry.sol\":690:708  houses[houseId].id */\n      0x00\n      add\n      sload\n        /* \"contract/HouseRegistry.sol\":679:686  houseId */\n      dup2\n        /* \"contract/HouseRegistry.sol\":679:708  houseId != houses[houseId].id */\n      eq\n      iszero\n        /* \"contract/HouseRegistry.sol\":671:709  require(houseId != houses[houseId].id) */\n      tag_28\n      jumpi\n      0x00\n      dup1\n      revert\n    tag_28:\n        /* \"contract/HouseRegistry.sol\":737:797  House(houseId, _price, _area, _sellerAddress, _houseAddress) */\n      mload(0x40)\n      dup1\n      0xa0\n      add\n      0x40\n      mstore\n      dup1\n        /* \"contract/HouseRegistry.sol\":743:750  houseId */\n      dup3\n        /* \"contract/HouseRegistry.sol\":737:797  House(houseId, _price, _area, _sellerAddress, _houseAddress) */\n      dup2\n      mstore\n      0x20\n      add\n        /* \"contract/HouseRegistry.sol\":752:758  _price */\n      dup8\n        /* \"contract/HouseRegistry.sol\":737:797  House(houseId, _price, _area, _sellerAddress, _houseAddress) */\n      dup2\n      mstore\n      0x20\n      add\n        /* \"contract/HouseRegistry.sol\":760:765  _area */\n      dup7\n        /* \"contract/HouseRegistry.sol\":737:797  House(houseId, _price, _area, _sellerAddress, _houseAddress) */\n      dup2\n      mstore\n      0x20\n      add\n        /* \"contract/HouseRegistry.sol\":767:781  _sellerAddress */\n      dup6\n        /* \"contract/HouseRegistry.sol\":737:797  House(houseId, _price, _area, _sellerAddress, _houseAddress) */\n      0xffffffffffffffffffffffffffffffffffffffff\n      and\n      dup2\n      mstore\n      0x20\n      add\n        /* \"contract/HouseRegistry.sol\":783:796  _houseAddress */\n      dup5\n        /* \"contract/HouseRegistry.sol\":737:797  House(houseId, _price, _area, _sellerAddress, _houseAddress) */\n      dup2\n      mstore\n      pop\n        /* \"contract/HouseRegistry.sol\":719:725  houses */\n      0x02\n        /* \"contract/HouseRegistry.sol\":719:734  houses[houseId] */\n      0x00\n        /* \"contract/HouseRegistry.sol\":726:733  houseId */\n      dup4\n        /* \"contract/HouseRegistry.sol\":719:734  houses[houseId] */\n      dup2\n      mstore\n      0x20\n      add\n      swap1\n      dup2\n      mstore\n      0x20\n      add\n      0x00\n      keccak256\n        /* \"contract/HouseRegistry.sol\":719:797  houses[houseId] = House(houseId, _price, _area, _sellerAddress, _houseAddress) */\n      0x00\n      dup3\n      add\n      mload\n      dup2\n      0x00\n      add\n      sstore\n      0x20\n      dup3\n      add\n      mload\n      dup2\n      0x01\n      add\n      sstore\n      0x40\n      dup3\n      add\n      mload\n      dup2\n      0x02\n      add\n      sstore\n      0x60\n      dup3\n      add\n      mload\n      dup2\n      0x03\n      add\n      exp(0x0100, 0x00)\n      dup2\n      sload\n      dup2\n      0xffffffffffffffffffffffffffffffffffffffff\n      mul\n      not\n      and\n      swap1\n      dup4\n      0xffffffffffffffffffffffffffffffffffffffff\n      and\n      mul\n      or\n      swap1\n      sstore\n      pop\n      0x80\n      dup3\n      add\n      mload\n      dup2\n      0x04\n      add\n      swap1\n      dup1\n      mload\n      swap1\n      0x20\n      add\n      swap1\n      tag_29\n      swap3\n      swap2\n      swap1\n      tag_30\n      jump\t// in\n    tag_29:\n      pop\n      swap1\n      pop\n      pop\n        /* \"contract/HouseRegistry.sol\":812:871  AddNewHouse(houseId, _sellerAddress, _price, _houseAddress) */\n      0x8f5afd88eb4be0ac287d87970052ce9a2b453448408e3c91a695ad7509ab7194\n        /* \"contract/HouseRegistry.sol\":824:831  houseId */\n      dup2\n        /* \"contract/HouseRegistry.sol\":833:847  _sellerAddress */\n      dup6\n        /* \"contract/HouseRegistry.sol\":849:855  _price */\n      dup9\n        /* \"contract/HouseRegistry.sol\":857:870  _houseAddress */\n      dup7\n        /* \"contract/HouseRegistry.sol\":812:871  AddNewHouse(houseId, _sellerAddress, _price, _houseAddress) */\n      mload(0x40)\n      tag_31\n      swap5\n      swap4\n      swap3\n      swap2\n      swap1\n      tag_32\n      jump\t// in\n    tag_31:\n      mload(0x40)\n      dup1\n      swap2\n      sub\n      swap1\n      log1\n        /* \"contract/HouseRegistry.sol\":888:895  houseId */\n      dup1\n        /* \"contract/HouseRegistry.sol\":881:895  return houseId */\n      swap2\n      pop\n      pop\n        /* \"contract/HouseRegistry.sol\":425:902  function listHouse (uint _price, uint _area, address _sellerAddress, string memory _houseAddress) public returns (uint) {... */\n      swap5\n      swap4\n      pop\n      pop\n      pop\n      pop\n      jump\t// out\n        /* \"contract/HouseRegistry.sol\":382:418  mapping(uint => House) public houses */\n    tag_15:\n      mstore(0x20, 0x02)\n      dup1\n      0x00\n      mstore\n      keccak256(0x00, 0x40)\n      0x00\n      swap2\n      pop\n      swap1\n      pop\n      dup1\n      0x00\n      add\n      sload\n      swap1\n      dup1\n      0x01\n      add\n      sload\n      swap1\n      dup1\n      0x02\n      add\n      sload\n      swap1\n      dup1\n      0x03\n      add\n      0x00\n      swap1\n      sload\n      swap1\n      0x0100\n      exp\n      swap1\n      div\n      0xffffffffffffffffffffffffffffffffffffffff\n      and\n      swap1\n      dup1\n      0x04\n      add\n      dup1\n      sload\n      tag_33\n      swap1\n      tag_34\n      jump\t// in\n    tag_33:\n      dup1\n      0x1f\n      add\n      0x20\n      dup1\n      swap2\n      div\n      mul\n      0x20\n      add\n      mload(0x40)\n      swap1\n      dup2\n      add\n      0x40\n      mstore\n      dup1\n      swap3\n      swap2\n      swap1\n      dup2\n      dup2\n      mstore\n      0x20\n      add\n      dup3\n      dup1\n      sload\n      tag_35\n      swap1\n      tag_34\n      jump\t// in\n    tag_35:\n      dup1\n      iszero\n      tag_36\n      jumpi\n      dup1\n      0x1f\n      lt\n      tag_37\n      jumpi\n      0x0100\n      dup1\n      dup4\n      sload\n      div\n      mul\n      dup4\n      mstore\n      swap2\n      0x20\n      add\n      swap2\n      jump(tag_36)\n    tag_37:\n      dup3\n      add\n      swap2\n      swap1\n      0x00\n      mstore\n      keccak256(0x00, 0x20)\n      swap1\n    tag_38:\n      dup2\n      sload\n      dup2\n      mstore\n      swap1\n      0x01\n      add\n      swap1\n      0x20\n      add\n      dup1\n      dup4\n      gt\n      tag_38\n      jumpi\n      dup3\n      swap1\n      sub\n      0x1f\n      and\n      dup3\n      add\n      swap2\n    tag_36:\n      pop\n      pop\n      pop\n      pop\n      pop\n      swap1\n      pop\n      dup6\n      jump\t// out\n        /* \"contract/HouseRegistryExt.sol\":149:350  function listHouseSimple(uint _price, uint _area, string memory _houseAddress) public{\r... */\n    tag_21:\n        /* \"contract/HouseRegistryExt.sol\":245:267  address _sellerAddress */\n      0x00\n        /* \"contract/HouseRegistryExt.sol\":270:280  msg.sender */\n      caller\n        /* \"contract/HouseRegistryExt.sol\":245:280  address _sellerAddress = msg.sender */\n      swap1\n      pop\n        /* \"contract/HouseRegistryExt.sol\":291:342  listHouse(_price, _area, msg.sender, _houseAddress) */\n      tag_40\n        /* \"contract/HouseRegistryExt.sol\":301:307  _price */\n      dup5\n        /* \"contract/HouseRegistryExt.sol\":309:314  _area */\n      dup5\n        /* \"contract/HouseRegistryExt.sol\":316:326  msg.sender */\n      caller\n        /* \"contract/HouseRegistryExt.sol\":328:341  _houseAddress */\n      dup6\n        /* \"contract/HouseRegistryExt.sol\":291:300  listHouse */\n      tag_9\n        /* \"contract/HouseRegistryExt.sol\":291:342  listHouse(_price, _area, msg.sender, _houseAddress) */\n      jump\t// in\n    tag_40:\n      pop\n        /* \"contract/HouseRegistryExt.sol\":234:350  {\r... */\n      pop\n        /* \"contract/HouseRegistryExt.sol\":149:350  function listHouseSimple(uint _price, uint _area, string memory _houseAddress) public{\r... */\n      pop\n      pop\n      pop\n      jump\t// out\n        /* \"contract/HouseRegistry.sol\":908:1162  function _generateHouseId(address _sellerAddress, uint _area, string memory _houseAddress) private view returns(uint){... */\n    tag_27:\n        /* \"contract/HouseRegistry.sol\":1020:1024  uint */\n      0x00\n        /* \"contract/HouseRegistry.sol\":1035:1047  uint houseId */\n      dup1\n        /* \"contract/HouseRegistry.sol\":1082:1096  _sellerAddress */\n      dup5\n        /* \"contract/HouseRegistry.sol\":1098:1103  _area */\n      dup5\n        /* \"contract/HouseRegistry.sol\":1105:1118  _houseAddress */\n      dup5\n        /* \"contract/HouseRegistry.sol\":1065:1119  abi.encodePacked(_sellerAddress, _area, _houseAddress) */\n      add(0x20, mload(0x40))\n      tag_42\n      swap4\n      swap3\n      swap2\n      swap1\n      tag_43\n      jump\t// in\n    tag_42:\n      mload(0x40)\n      0x20\n      dup2\n      dup4\n      sub\n      sub\n      dup2\n      mstore\n      swap1\n      0x40\n      mstore\n        /* \"contract/HouseRegistry.sol\":1055:1120  keccak256(abi.encodePacked(_sellerAddress, _area, _houseAddress)) */\n      dup1\n      mload\n      swap1\n      0x20\n      add\n      keccak256\n        /* \"contract/HouseRegistry.sol\":1050:1121  uint(keccak256(abi.encodePacked(_sellerAddress, _area, _houseAddress))) */\n      0x00\n      shr\n        /* \"contract/HouseRegistry.sol\":1035:1121  uint houseId = uint(keccak256(abi.encodePacked(_sellerAddress, _area, _houseAddress))) */\n      swap1\n      pop\n        /* \"contract/HouseRegistry.sol\":1148:1155  modulus */\n      sload(0x01)\n        /* \"contract/HouseRegistry.sol\":1138:1145  houseId */\n      dup2\n        /* \"contract/HouseRegistry.sol\":1138:1155  houseId % modulus */\n      tag_44\n      swap2\n      swap1\n      tag_45\n      jump\t// in\n    tag_44:\n        /* \"contract/HouseRegistry.sol\":1131:1155  return houseId % modulus */\n      swap2\n      pop\n      pop\n        /* \"contract/HouseRegistry.sol\":908:1162  function _generateHouseId(address _sellerAddress, uint _area, string memory _houseAddress) private view returns(uint){... */\n      swap4\n      swap3\n      pop\n      pop\n      pop\n      jump\t// out\n    tag_30:\n      dup3\n      dup1\n      sload\n      tag_46\n      swap1\n      tag_34\n      jump\t// in\n    tag_46:\n      swap1\n      0x00\n      mstore\n      keccak256(0x00, 0x20)\n      swap1\n      0x1f\n      add\n      0x20\n      swap1\n      div\n      dup2\n      add\n      swap3\n      dup3\n      tag_48\n      jumpi\n      0x00\n      dup6\n      sstore\n      jump(tag_47)\n    tag_48:\n      dup3\n      0x1f\n      lt\n      tag_49\n      jumpi\n      dup1\n      mload\n      not(0xff)\n      and\n      dup4\n      dup1\n      add\n      or\n      dup6\n      sstore\n      jump(tag_47)\n    tag_49:\n      dup3\n      dup1\n      add\n      0x01\n      add\n      dup6\n      sstore\n      dup3\n      iszero\n      tag_47\n      jumpi\n      swap2\n      dup3\n      add\n    tag_50:\n      dup3\n      dup2\n      gt\n      iszero\n      tag_51\n      jumpi\n      dup3\n      mload\n      dup3\n      sstore\n      swap2\n      0x20\n      add\n      swap2\n      swap1\n      0x01\n      add\n      swap1\n      jump(tag_50)\n    tag_51:\n    tag_47:\n      pop\n      swap1\n      pop\n      tag_52\n      swap2\n      swap1\n      tag_53\n      jump\t// in\n    tag_52:\n      pop\n      swap1\n      jump\t// out\n    tag_53:\n    tag_54:\n      dup1\n      dup3\n      gt\n      iszero\n      tag_55\n      jumpi\n      0x00\n      dup2\n      0x00\n      swap1\n      sstore\n      pop\n      0x01\n      add\n      jump(tag_54)\n    tag_55:\n      pop\n      swap1\n      jump\t// out\n        /* \"#utility.yul\":7:419   */\n    tag_57:\n        /* \"#utility.yul\":85:90   */\n      0x00\n        /* \"#utility.yul\":110:176   */\n      tag_59\n        /* \"#utility.yul\":126:175   */\n      tag_60\n        /* \"#utility.yul\":168:174   */\n      dup5\n        /* \"#utility.yul\":126:175   */\n      tag_61\n      jump\t// in\n    tag_60:\n        /* \"#utility.yul\":110:176   */\n      tag_62\n      jump\t// in\n    tag_59:\n        /* \"#utility.yul\":101:176   */\n      swap1\n      pop\n        /* \"#utility.yul\":199:205   */\n      dup3\n        /* \"#utility.yul\":192:197   */\n      dup2\n        /* \"#utility.yul\":185:206   */\n      mstore\n        /* \"#utility.yul\":237:241   */\n      0x20\n        /* \"#utility.yul\":230:235   */\n      dup2\n        /* \"#utility.yul\":226:242   */\n      add\n        /* \"#utility.yul\":275:278   */\n      dup5\n        /* \"#utility.yul\":266:272   */\n      dup5\n        /* \"#utility.yul\":261:264   */\n      dup5\n        /* \"#utility.yul\":257:273   */\n      add\n        /* \"#utility.yul\":254:279   */\n      gt\n        /* \"#utility.yul\":251:363   */\n      iszero\n      tag_63\n      jumpi\n        /* \"#utility.yul\":282:361   */\n      tag_64\n      tag_65\n      jump\t// in\n    tag_64:\n        /* \"#utility.yul\":251:363   */\n    tag_63:\n        /* \"#utility.yul\":372:413   */\n      tag_66\n        /* \"#utility.yul\":406:412   */\n      dup5\n        /* \"#utility.yul\":401:404   */\n      dup3\n        /* \"#utility.yul\":396:399   */\n      dup6\n        /* \"#utility.yul\":372:413   */\n      tag_67\n      jump\t// in\n    tag_66:\n        /* \"#utility.yul\":91:419   */\n      pop\n        /* \"#utility.yul\":7:419   */\n      swap4\n      swap3\n      pop\n      pop\n      pop\n      jump\t// out\n        /* \"#utility.yul\":425:564   */\n    tag_68:\n        /* \"#utility.yul\":471:476   */\n      0x00\n        /* \"#utility.yul\":509:515   */\n      dup2\n        /* \"#utility.yul\":496:516   */\n      calldataload\n        /* \"#utility.yul\":487:516   */\n      swap1\n      pop\n        /* \"#utility.yul\":525:558   */\n      tag_70\n        /* \"#utility.yul\":552:557   */\n      dup2\n        /* \"#utility.yul\":525:558   */\n      tag_71\n      jump\t// in\n    tag_70:\n        /* \"#utility.yul\":425:564   */\n      swap3\n      swap2\n      pop\n      pop\n      jump\t// out\n        /* \"#utility.yul\":584:924   */\n    tag_72:\n        /* \"#utility.yul\":640:645   */\n      0x00\n        /* \"#utility.yul\":689:692   */\n      dup3\n        /* \"#utility.yul\":682:686   */\n      0x1f\n        /* \"#utility.yul\":674:680   */\n      dup4\n        /* \"#utility.yul\":670:687   */\n      add\n        /* \"#utility.yul\":666:693   */\n      slt\n        /* \"#utility.yul\":656:778   */\n      tag_74\n      jumpi\n        /* \"#utility.yul\":697:776   */\n      tag_75\n      tag_76\n      jump\t// in\n    tag_75:\n        /* \"#utility.yul\":656:778   */\n    tag_74:\n        /* \"#utility.yul\":814:820   */\n      dup2\n        /* \"#utility.yul\":801:821   */\n      calldataload\n        /* \"#utility.yul\":839:918   */\n      tag_77\n        /* \"#utility.yul\":914:917   */\n      dup5\n        /* \"#utility.yul\":906:912   */\n      dup3\n        /* \"#utility.yul\":899:903   */\n      0x20\n        /* \"#utility.yul\":891:897   */\n      dup7\n        /* \"#utility.yul\":887:904   */\n      add\n        /* \"#utility.yul\":839:918   */\n      tag_57\n      jump\t// in\n    tag_77:\n        /* \"#utility.yul\":830:918   */\n      swap2\n      pop\n        /* \"#utility.yul\":646:924   */\n      pop\n        /* \"#utility.yul\":584:924   */\n      swap3\n      swap2\n      pop\n      pop\n      jump\t// out\n        /* \"#utility.yul\":930:1069   */\n    tag_78:\n        /* \"#utility.yul\":976:981   */\n      0x00\n        /* \"#utility.yul\":1014:1020   */\n      dup2\n        /* \"#utility.yul\":1001:1021   */\n      calldataload\n        /* \"#utility.yul\":992:1021   */\n      swap1\n      pop\n        /* \"#utility.yul\":1030:1063   */\n      tag_80\n        /* \"#utility.yul\":1057:1062   */\n      dup2\n        /* \"#utility.yul\":1030:1063   */\n      tag_81\n      jump\t// in\n    tag_80:\n        /* \"#utility.yul\":930:1069   */\n      swap3\n      swap2\n      pop\n      pop\n      jump\t// out\n        /* \"#utility.yul\":1075:1404   */\n    tag_14:\n        /* \"#utility.yul\":1134:1140   */\n      0x00\n        /* \"#utility.yul\":1183:1185   */\n      0x20\n        /* \"#utility.yul\":1171:1180   */\n      dup3\n        /* \"#utility.yul\":1162:1169   */\n      dup5\n        /* \"#utility.yul\":1158:1181   */\n      sub\n        /* \"#utility.yul\":1154:1186   */\n      slt\n        /* \"#utility.yul\":1151:1270   */\n      iszero\n      tag_83\n      jumpi\n        /* \"#utility.yul\":1189:1268   */\n      tag_84\n      tag_85\n      jump\t// in\n    tag_84:\n        /* \"#utility.yul\":1151:1270   */\n    tag_83:\n        /* \"#utility.yul\":1309:1310   */\n      0x00\n        /* \"#utility.yul\":1334:1387   */\n      tag_86\n        /* \"#utility.yul\":1379:1386   */\n      dup5\n        /* \"#utility.yul\":1370:1376   */\n      dup3\n        /* \"#utility.yul\":1359:1368   */\n      dup6\n        /* \"#utility.yul\":1355:1377   */\n      add\n        /* \"#utility.yul\":1334:1387   */\n      tag_78\n      jump\t// in\n    tag_86:\n        /* \"#utility.yul\":1324:1387   */\n      swap2\n      pop\n        /* \"#utility.yul\":1280:1397   */\n      pop\n        /* \"#utility.yul\":1075:1404   */\n      swap3\n      swap2\n      pop\n      pop\n      jump\t// out\n        /* \"#utility.yul\":1410:2355   */\n    tag_8:\n        /* \"#utility.yul\":1506:1512   */\n      0x00\n        /* \"#utility.yul\":1514:1520   */\n      dup1\n        /* \"#utility.yul\":1522:1528   */\n      0x00\n        /* \"#utility.yul\":1530:1536   */\n      dup1\n        /* \"#utility.yul\":1579:1582   */\n      0x80\n        /* \"#utility.yul\":1567:1576   */\n      dup6\n        /* \"#utility.yul\":1558:1565   */\n      dup8\n        /* \"#utility.yul\":1554:1577   */\n      sub\n        /* \"#utility.yul\":1550:1583   */\n      slt\n        /* \"#utility.yul\":1547:1667   */\n      iszero\n      tag_88\n      jumpi\n        /* \"#utility.yul\":1586:1665   */\n      tag_89\n      tag_85\n      jump\t// in\n    tag_89:\n        /* \"#utility.yul\":1547:1667   */\n    tag_88:\n        /* \"#utility.yul\":1706:1707   */\n      0x00\n        /* \"#utility.yul\":1731:1784   */\n      tag_90\n        /* \"#utility.yul\":1776:1783   */\n      dup8\n        /* \"#utility.yul\":1767:1773   */\n      dup3\n        /* \"#utility.yul\":1756:1765   */\n      dup9\n        /* \"#utility.yul\":1752:1774   */\n      add\n        /* \"#utility.yul\":1731:1784   */\n      tag_78\n      jump\t// in\n    tag_90:\n        /* \"#utility.yul\":1721:1784   */\n      swap5\n      pop\n        /* \"#utility.yul\":1677:1794   */\n      pop\n        /* \"#utility.yul\":1833:1835   */\n      0x20\n        /* \"#utility.yul\":1859:1912   */\n      tag_91\n        /* \"#utility.yul\":1904:1911   */\n      dup8\n        /* \"#utility.yul\":1895:1901   */\n      dup3\n        /* \"#utility.yul\":1884:1893   */\n      dup9\n        /* \"#utility.yul\":1880:1902   */\n      add\n        /* \"#utility.yul\":1859:1912   */\n      tag_78\n      jump\t// in\n    tag_91:\n        /* \"#utility.yul\":1849:1912   */\n      swap4\n      pop\n        /* \"#utility.yul\":1804:1922   */\n      pop\n        /* \"#utility.yul\":1961:1963   */\n      0x40\n        /* \"#utility.yul\":1987:2040   */\n      tag_92\n        /* \"#utility.yul\":2032:2039   */\n      dup8\n        /* \"#utility.yul\":2023:2029   */\n      dup3\n        /* \"#utility.yul\":2012:2021   */\n      dup9\n        /* \"#utility.yul\":2008:2030   */\n      add\n        /* \"#utility.yul\":1987:2040   */\n      tag_68\n      jump\t// in\n    tag_92:\n        /* \"#utility.yul\":1977:2040   */\n      swap3\n      pop\n        /* \"#utility.yul\":1932:2050   */\n      pop\n        /* \"#utility.yul\":2117:2119   */\n      0x60\n        /* \"#utility.yul\":2106:2115   */\n      dup6\n        /* \"#utility.yul\":2102:2120   */\n      add\n        /* \"#utility.yul\":2089:2121   */\n      calldataload\n        /* \"#utility.yul\":2148:2166   */\n      0xffffffffffffffff\n        /* \"#utility.yul\":2140:2146   */\n      dup2\n        /* \"#utility.yul\":2137:2167   */\n      gt\n        /* \"#utility.yul\":2134:2251   */\n      iszero\n      tag_93\n      jumpi\n        /* \"#utility.yul\":2170:2249   */\n      tag_94\n      tag_95\n      jump\t// in\n    tag_94:\n        /* \"#utility.yul\":2134:2251   */\n    tag_93:\n        /* \"#utility.yul\":2275:2338   */\n      tag_96\n        /* \"#utility.yul\":2330:2337   */\n      dup8\n        /* \"#utility.yul\":2321:2327   */\n      dup3\n        /* \"#utility.yul\":2310:2319   */\n      dup9\n        /* \"#utility.yul\":2306:2328   */\n      add\n        /* \"#utility.yul\":2275:2338   */\n      tag_72\n      jump\t// in\n    tag_96:\n        /* \"#utility.yul\":2265:2338   */\n      swap2\n      pop\n        /* \"#utility.yul\":2060:2348   */\n      pop\n        /* \"#utility.yul\":1410:2355   */\n      swap3\n      swap6\n      swap2\n      swap5\n      pop\n      swap3\n      pop\n      jump\t// out\n        /* \"#utility.yul\":2361:3160   */\n    tag_20:\n        /* \"#utility.yul\":2448:2454   */\n      0x00\n        /* \"#utility.yul\":2456:2462   */\n      dup1\n        /* \"#utility.yul\":2464:2470   */\n      0x00\n        /* \"#utility.yul\":2513:2515   */\n      0x60\n        /* \"#utility.yul\":2501:2510   */\n      dup5\n        /* \"#utility.yul\":2492:2499   */\n      dup7\n        /* \"#utility.yul\":2488:2511   */\n      sub\n        /* \"#utility.yul\":2484:2516   */\n      slt\n        /* \"#utility.yul\":2481:2600   */\n      iszero\n      tag_98\n      jumpi\n        /* \"#utility.yul\":2519:2598   */\n      tag_99\n      tag_85\n      jump\t// in\n    tag_99:\n        /* \"#utility.yul\":2481:2600   */\n    tag_98:\n        /* \"#utility.yul\":2639:2640   */\n      0x00\n        /* \"#utility.yul\":2664:2717   */\n      tag_100\n        /* \"#utility.yul\":2709:2716   */\n      dup7\n        /* \"#utility.yul\":2700:2706   */\n      dup3\n        /* \"#utility.yul\":2689:2698   */\n      dup8\n        /* \"#utility.yul\":2685:2707   */\n      add\n        /* \"#utility.yul\":2664:2717   */\n      tag_78\n      jump\t// in\n    tag_100:\n        /* \"#utility.yul\":2654:2717   */\n      swap4\n      pop\n        /* \"#utility.yul\":2610:2727   */\n      pop\n        /* \"#utility.yul\":2766:2768   */\n      0x20\n        /* \"#utility.yul\":2792:2845   */\n      tag_101\n        /* \"#utility.yul\":2837:2844   */\n      dup7\n        /* \"#utility.yul\":2828:2834   */\n      dup3\n        /* \"#utility.yul\":2817:2826   */\n      dup8\n        /* \"#utility.yul\":2813:2835   */\n      add\n        /* \"#utility.yul\":2792:2845   */\n      tag_78\n      jump\t// in\n    tag_101:\n        /* \"#utility.yul\":2782:2845   */\n      swap3\n      pop\n        /* \"#utility.yul\":2737:2855   */\n      pop\n        /* \"#utility.yul\":2922:2924   */\n      0x40\n        /* \"#utility.yul\":2911:2920   */\n      dup5\n        /* \"#utility.yul\":2907:2925   */\n      add\n        /* \"#utility.yul\":2894:2926   */\n      calldataload\n        /* \"#utility.yul\":2953:2971   */\n      0xffffffffffffffff\n        /* \"#utility.yul\":2945:2951   */\n      dup2\n        /* \"#utility.yul\":2942:2972   */\n      gt\n        /* \"#utility.yul\":2939:3056   */\n      iszero\n      tag_102\n      jumpi\n        /* \"#utility.yul\":2975:3054   */\n      tag_103\n      tag_95\n      jump\t// in\n    tag_103:\n        /* \"#utility.yul\":2939:3056   */\n    tag_102:\n        /* \"#utility.yul\":3080:3143   */\n      tag_104\n        /* \"#utility.yul\":3135:3142   */\n      dup7\n        /* \"#utility.yul\":3126:3132   */\n      dup3\n        /* \"#utility.yul\":3115:3124   */\n      dup8\n        /* \"#utility.yul\":3111:3133   */\n      add\n        /* \"#utility.yul\":3080:3143   */\n      tag_72\n      jump\t// in\n    tag_104:\n        /* \"#utility.yul\":3070:3143   */\n      swap2\n      pop\n        /* \"#utility.yul\":2865:3153   */\n      pop\n        /* \"#utility.yul\":2361:3160   */\n      swap3\n      pop\n      swap3\n      pop\n      swap3\n      jump\t// out\n        /* \"#utility.yul\":3166:3284   */\n    tag_105:\n        /* \"#utility.yul\":3253:3277   */\n      tag_107\n        /* \"#utility.yul\":3271:3276   */\n      dup2\n        /* \"#utility.yul\":3253:3277   */\n      tag_108\n      jump\t// in\n    tag_107:\n        /* \"#utility.yul\":3248:3251   */\n      dup3\n        /* \"#utility.yul\":3241:3278   */\n      mstore\n        /* \"#utility.yul\":3166:3284   */\n      pop\n      pop\n      jump\t// out\n        /* \"#utility.yul\":3290:3447   */\n    tag_109:\n        /* \"#utility.yul\":3395:3440   */\n      tag_111\n        /* \"#utility.yul\":3415:3439   */\n      tag_112\n        /* \"#utility.yul\":3433:3438   */\n      dup3\n        /* \"#utility.yul\":3415:3439   */\n      tag_108\n      jump\t// in\n    tag_112:\n        /* \"#utility.yul\":3395:3440   */\n      tag_113\n      jump\t// in\n    tag_111:\n        /* \"#utility.yul\":3390:3393   */\n      dup3\n        /* \"#utility.yul\":3383:3441   */\n      mstore\n        /* \"#utility.yul\":3290:3447   */\n      pop\n      pop\n      jump\t// out\n        /* \"#utility.yul\":3453:3817   */\n    tag_114:\n        /* \"#utility.yul\":3541:3544   */\n      0x00\n        /* \"#utility.yul\":3569:3608   */\n      tag_116\n        /* \"#utility.yul\":3602:3607   */\n      dup3\n        /* \"#utility.yul\":3569:3608   */\n      tag_117\n      jump\t// in\n    tag_116:\n        /* \"#utility.yul\":3624:3695   */\n      tag_118\n        /* \"#utility.yul\":3688:3694   */\n      dup2\n        /* \"#utility.yul\":3683:3686   */\n      dup6\n        /* \"#utility.yul\":3624:3695   */\n      tag_119\n      jump\t// in\n    tag_118:\n        /* \"#utility.yul\":3617:3695   */\n      swap4\n      pop\n        /* \"#utility.yul\":3704:3756   */\n      tag_120\n        /* \"#utility.yul\":3749:3755   */\n      dup2\n        /* \"#utility.yul\":3744:3747   */\n      dup6\n        /* \"#utility.yul\":3737:3741   */\n      0x20\n        /* \"#utility.yul\":3730:3735   */\n      dup7\n        /* \"#utility.yul\":3726:3742   */\n      add\n        /* \"#utility.yul\":3704:3756   */\n      tag_121\n      jump\t// in\n    tag_120:\n        /* \"#utility.yul\":3781:3810   */\n      tag_122\n        /* \"#utility.yul\":3803:3809   */\n      dup2\n        /* \"#utility.yul\":3781:3810   */\n      tag_123\n      jump\t// in\n    tag_122:\n        /* \"#utility.yul\":3776:3779   */\n      dup5\n        /* \"#utility.yul\":3772:3811   */\n      add\n        /* \"#utility.yul\":3765:3811   */\n      swap2\n      pop\n        /* \"#utility.yul\":3545:3817   */\n      pop\n        /* \"#utility.yul\":3453:3817   */\n      swap3\n      swap2\n      pop\n      pop\n      jump\t// out\n        /* \"#utility.yul\":3823:4200   */\n    tag_124:\n        /* \"#utility.yul\":3929:3932   */\n      0x00\n        /* \"#utility.yul\":3957:3996   */\n      tag_126\n        /* \"#utility.yul\":3990:3995   */\n      dup3\n        /* \"#utility.yul\":3957:3996   */\n      tag_117\n      jump\t// in\n    tag_126:\n        /* \"#utility.yul\":4012:4101   */\n      tag_127\n        /* \"#utility.yul\":4094:4100   */\n      dup2\n        /* \"#utility.yul\":4089:4092   */\n      dup6\n        /* \"#utility.yul\":4012:4101   */\n      tag_128\n      jump\t// in\n    tag_127:\n        /* \"#utility.yul\":4005:4101   */\n      swap4\n      pop\n        /* \"#utility.yul\":4110:4162   */\n      tag_129\n        /* \"#utility.yul\":4155:4161   */\n      dup2\n        /* \"#utility.yul\":4150:4153   */\n      dup6\n        /* \"#utility.yul\":4143:4147   */\n      0x20\n        /* \"#utility.yul\":4136:4141   */\n      dup7\n        /* \"#utility.yul\":4132:4148   */\n      add\n        /* \"#utility.yul\":4110:4162   */\n      tag_121\n      jump\t// in\n    tag_129:\n        /* \"#utility.yul\":4187:4193   */\n      dup1\n        /* \"#utility.yul\":4182:4185   */\n      dup5\n        /* \"#utility.yul\":4178:4194   */\n      add\n        /* \"#utility.yul\":4171:4194   */\n      swap2\n      pop\n        /* \"#utility.yul\":3933:4200   */\n      pop\n        /* \"#utility.yul\":3823:4200   */\n      swap3\n      swap2\n      pop\n      pop\n      jump\t// out\n        /* \"#utility.yul\":4206:4324   */\n    tag_130:\n        /* \"#utility.yul\":4293:4317   */\n      tag_132\n        /* \"#utility.yul\":4311:4316   */\n      dup2\n        /* \"#utility.yul\":4293:4317   */\n      tag_133\n      jump\t// in\n    tag_132:\n        /* \"#utility.yul\":4288:4291   */\n      dup3\n        /* \"#utility.yul\":4281:4318   */\n      mstore\n        /* \"#utility.yul\":4206:4324   */\n      pop\n      pop\n      jump\t// out\n        /* \"#utility.yul\":4330:4487   */\n    tag_134:\n        /* \"#utility.yul\":4435:4480   */\n      tag_136\n        /* \"#utility.yul\":4455:4479   */\n      tag_137\n        /* \"#utility.yul\":4473:4478   */\n      dup3\n        /* \"#utility.yul\":4455:4479   */\n      tag_133\n      jump\t// in\n    tag_137:\n        /* \"#utility.yul\":4435:4480   */\n      tag_138\n      jump\t// in\n    tag_136:\n        /* \"#utility.yul\":4430:4433   */\n      dup3\n        /* \"#utility.yul\":4423:4481   */\n      mstore\n        /* \"#utility.yul\":4330:4487   */\n      pop\n      pop\n      jump\t// out\n        /* \"#utility.yul\":4493:5050   */\n    tag_43:\n        /* \"#utility.yul\":4681:4684   */\n      0x00\n        /* \"#utility.yul\":4696:4771   */\n      tag_140\n        /* \"#utility.yul\":4767:4770   */\n      dup3\n        /* \"#utility.yul\":4758:4764   */\n      dup7\n        /* \"#utility.yul\":4696:4771   */\n      tag_109\n      jump\t// in\n    tag_140:\n        /* \"#utility.yul\":4796:4798   */\n      0x14\n        /* \"#utility.yul\":4791:4794   */\n      dup3\n        /* \"#utility.yul\":4787:4799   */\n      add\n        /* \"#utility.yul\":4780:4799   */\n      swap2\n      pop\n        /* \"#utility.yul\":4809:4884   */\n      tag_141\n        /* \"#utility.yul\":4880:4883   */\n      dup3\n        /* \"#utility.yul\":4871:4877   */\n      dup6\n        /* \"#utility.yul\":4809:4884   */\n      tag_134\n      jump\t// in\n    tag_141:\n        /* \"#utility.yul\":4909:4911   */\n      0x20\n        /* \"#utility.yul\":4904:4907   */\n      dup3\n        /* \"#utility.yul\":4900:4912   */\n      add\n        /* \"#utility.yul\":4893:4912   */\n      swap2\n      pop\n        /* \"#utility.yul\":4929:5024   */\n      tag_142\n        /* \"#utility.yul\":5020:5023   */\n      dup3\n        /* \"#utility.yul\":5011:5017   */\n      dup5\n        /* \"#utility.yul\":4929:5024   */\n      tag_124\n      jump\t// in\n    tag_142:\n        /* \"#utility.yul\":4922:5024   */\n      swap2\n      pop\n        /* \"#utility.yul\":5041:5044   */\n      dup2\n        /* \"#utility.yul\":5034:5044   */\n      swap1\n      pop\n        /* \"#utility.yul\":4493:5050   */\n      swap5\n      swap4\n      pop\n      pop\n      pop\n      pop\n      jump\t// out\n        /* \"#utility.yul\":5056:5278   */\n    tag_11:\n        /* \"#utility.yul\":5149:5153   */\n      0x00\n        /* \"#utility.yul\":5187:5189   */\n      0x20\n        /* \"#utility.yul\":5176:5185   */\n      dup3\n        /* \"#utility.yul\":5172:5190   */\n      add\n        /* \"#utility.yul\":5164:5190   */\n      swap1\n      pop\n        /* \"#utility.yul\":5200:5271   */\n      tag_144\n        /* \"#utility.yul\":5268:5269   */\n      0x00\n        /* \"#utility.yul\":5257:5266   */\n      dup4\n        /* \"#utility.yul\":5253:5270   */\n      add\n        /* \"#utility.yul\":5244:5250   */\n      dup5\n        /* \"#utility.yul\":5200:5271   */\n      tag_130\n      jump\t// in\n    tag_144:\n        /* \"#utility.yul\":5056:5278   */\n      swap3\n      swap2\n      pop\n      pop\n      jump\t// out\n        /* \"#utility.yul\":5284:5928   */\n    tag_32:\n        /* \"#utility.yul\":5481:5485   */\n      0x00\n        /* \"#utility.yul\":5519:5522   */\n      0x80\n        /* \"#utility.yul\":5508:5517   */\n      dup3\n        /* \"#utility.yul\":5504:5523   */\n      add\n        /* \"#utility.yul\":5496:5523   */\n      swap1\n      pop\n        /* \"#utility.yul\":5533:5604   */\n      tag_146\n        /* \"#utility.yul\":5601:5602   */\n      0x00\n        /* \"#utility.yul\":5590:5599   */\n      dup4\n        /* \"#utility.yul\":5586:5603   */\n      add\n        /* \"#utility.yul\":5577:5583   */\n      dup8\n        /* \"#utility.yul\":5533:5604   */\n      tag_130\n      jump\t// in\n    tag_146:\n        /* \"#utility.yul\":5614:5686   */\n      tag_147\n        /* \"#utility.yul\":5682:5684   */\n      0x20\n        /* \"#utility.yul\":5671:5680   */\n      dup4\n        /* \"#utility.yul\":5667:5685   */\n      add\n        /* \"#utility.yul\":5658:5664   */\n      dup7\n        /* \"#utility.yul\":5614:5686   */\n      tag_105\n      jump\t// in\n    tag_147:\n        /* \"#utility.yul\":5696:5768   */\n      tag_148\n        /* \"#utility.yul\":5764:5766   */\n      0x40\n        /* \"#utility.yul\":5753:5762   */\n      dup4\n        /* \"#utility.yul\":5749:5767   */\n      add\n        /* \"#utility.yul\":5740:5746   */\n      dup6\n        /* \"#utility.yul\":5696:5768   */\n      tag_130\n      jump\t// in\n    tag_148:\n        /* \"#utility.yul\":5815:5824   */\n      dup2\n        /* \"#utility.yul\":5809:5813   */\n      dup2\n        /* \"#utility.yul\":5805:5825   */\n      sub\n        /* \"#utility.yul\":5800:5802   */\n      0x60\n        /* \"#utility.yul\":5789:5798   */\n      dup4\n        /* \"#utility.yul\":5785:5803   */\n      add\n        /* \"#utility.yul\":5778:5826   */\n      mstore\n        /* \"#utility.yul\":5843:5921   */\n      tag_149\n        /* \"#utility.yul\":5916:5920   */\n      dup2\n        /* \"#utility.yul\":5907:5913   */\n      dup5\n        /* \"#utility.yul\":5843:5921   */\n      tag_114\n      jump\t// in\n    tag_149:\n        /* \"#utility.yul\":5835:5921   */\n      swap1\n      pop\n        /* \"#utility.yul\":5284:5928   */\n      swap6\n      swap5\n      pop\n      pop\n      pop\n      pop\n      pop\n      jump\t// out\n        /* \"#utility.yul\":5934:6689   */\n    tag_17:\n        /* \"#utility.yul\":6159:6163   */\n      0x00\n        /* \"#utility.yul\":6197:6200   */\n      0xa0\n        /* \"#utility.yul\":6186:6195   */\n      dup3\n        /* \"#utility.yul\":6182:6201   */\n      add\n        /* \"#utility.yul\":6174:6201   */\n      swap1\n      pop\n        /* \"#utility.yul\":6211:6282   */\n      tag_151\n        /* \"#utility.yul\":6279:6280   */\n      0x00\n        /* \"#utility.yul\":6268:6277   */\n      dup4\n        /* \"#utility.yul\":6264:6281   */\n      add\n        /* \"#utility.yul\":6255:6261   */\n      dup9\n        /* \"#utility.yul\":6211:6282   */\n      tag_130\n      jump\t// in\n    tag_151:\n        /* \"#utility.yul\":6292:6364   */\n      tag_152\n        /* \"#utility.yul\":6360:6362   */\n      0x20\n        /* \"#utility.yul\":6349:6358   */\n      dup4\n        /* \"#utility.yul\":6345:6363   */\n      add\n        /* \"#utility.yul\":6336:6342   */\n      dup8\n        /* \"#utility.yul\":6292:6364   */\n      tag_130\n      jump\t// in\n    tag_152:\n        /* \"#utility.yul\":6374:6446   */\n      tag_153\n        /* \"#utility.yul\":6442:6444   */\n      0x40\n        /* \"#utility.yul\":6431:6440   */\n      dup4\n        /* \"#utility.yul\":6427:6445   */\n      add\n        /* \"#utility.yul\":6418:6424   */\n      dup7\n        /* \"#utility.yul\":6374:6446   */\n      tag_130\n      jump\t// in\n    tag_153:\n        /* \"#utility.yul\":6456:6528   */\n      tag_154\n        /* \"#utility.yul\":6524:6526   */\n      0x60\n        /* \"#utility.yul\":6513:6522   */\n      dup4\n        /* \"#utility.yul\":6509:6527   */\n      add\n        /* \"#utility.yul\":6500:6506   */\n      dup6\n        /* \"#utility.yul\":6456:6528   */\n      tag_105\n      jump\t// in\n    tag_154:\n        /* \"#utility.yul\":6576:6585   */\n      dup2\n        /* \"#utility.yul\":6570:6574   */\n      dup2\n        /* \"#utility.yul\":6566:6586   */\n      sub\n        /* \"#utility.yul\":6560:6563   */\n      0x80\n        /* \"#utility.yul\":6549:6558   */\n      dup4\n        /* \"#utility.yul\":6545:6564   */\n      add\n        /* \"#utility.yul\":6538:6587   */\n      mstore\n        /* \"#utility.yul\":6604:6682   */\n      tag_155\n        /* \"#utility.yul\":6677:6681   */\n      dup2\n        /* \"#utility.yul\":6668:6674   */\n      dup5\n        /* \"#utility.yul\":6604:6682   */\n      tag_114\n      jump\t// in\n    tag_155:\n        /* \"#utility.yul\":6596:6682   */\n      swap1\n      pop\n        /* \"#utility.yul\":5934:6689   */\n      swap7\n      swap6\n      pop\n      pop\n      pop\n      pop\n      pop\n      pop\n      jump\t// out\n        /* \"#utility.yul\":6695:6824   */\n    tag_62:\n        /* \"#utility.yul\":6729:6735   */\n      0x00\n        /* \"#utility.yul\":6756:6776   */\n      tag_157\n      tag_158\n      jump\t// in\n    tag_157:\n        /* \"#utility.yul\":6746:6776   */\n      swap1\n      pop\n        /* \"#utility.yul\":6785:6818   */\n      tag_159\n        /* \"#utility.yul\":6813:6817   */\n      dup3\n        /* \"#utility.yul\":6805:6811   */\n      dup3\n        /* \"#utility.yul\":6785:6818   */\n      tag_160\n      jump\t// in\n    tag_159:\n        /* \"#utility.yul\":6695:6824   */\n      swap2\n      swap1\n      pop\n      jump\t// out\n        /* \"#utility.yul\":6830:6905   */\n    tag_158:\n        /* \"#utility.yul\":6863:6869   */\n      0x00\n        /* \"#utility.yul\":6896:6898   */\n      0x40\n        /* \"#utility.yul\":6890:6899   */\n      mload\n        /* \"#utility.yul\":6880:6899   */\n      swap1\n      pop\n        /* \"#utility.yul\":6830:6905   */\n      swap1\n      jump\t// out\n        /* \"#utility.yul\":6911:7219   */\n    tag_61:\n        /* \"#utility.yul\":6973:6977   */\n      0x00\n        /* \"#utility.yul\":7063:7081   */\n      0xffffffffffffffff\n        /* \"#utility.yul\":7055:7061   */\n      dup3\n        /* \"#utility.yul\":7052:7082   */\n      gt\n        /* \"#utility.yul\":7049:7105   */\n      iszero\n      tag_163\n      jumpi\n        /* \"#utility.yul\":7085:7103   */\n      tag_164\n      tag_165\n      jump\t// in\n    tag_164:\n        /* \"#utility.yul\":7049:7105   */\n    tag_163:\n        /* \"#utility.yul\":7123:7152   */\n      tag_166\n        /* \"#utility.yul\":7145:7151   */\n      dup3\n        /* \"#utility.yul\":7123:7152   */\n      tag_123\n      jump\t// in\n    tag_166:\n        /* \"#utility.yul\":7115:7152   */\n      swap1\n      pop\n        /* \"#utility.yul\":7207:7211   */\n      0x20\n        /* \"#utility.yul\":7201:7205   */\n      dup2\n        /* \"#utility.yul\":7197:7212   */\n      add\n        /* \"#utility.yul\":7189:7212   */\n      swap1\n      pop\n        /* \"#utility.yul\":6911:7219   */\n      swap2\n      swap1\n      pop\n      jump\t// out\n        /* \"#utility.yul\":7225:7324   */\n    tag_117:\n        /* \"#utility.yul\":7277:7283   */\n      0x00\n        /* \"#utility.yul\":7311:7316   */\n      dup2\n        /* \"#utility.yul\":7305:7317   */\n      mload\n        /* \"#utility.yul\":7295:7317   */\n      swap1\n      pop\n        /* \"#utility.yul\":7225:7324   */\n      swap2\n      swap1\n      pop\n      jump\t// out\n        /* \"#utility.yul\":7330:7499   */\n    tag_119:\n        /* \"#utility.yul\":7414:7425   */\n      0x00\n        /* \"#utility.yul\":7448:7454   */\n      dup3\n        /* \"#utility.yul\":7443:7446   */\n      dup3\n        /* \"#utility.yul\":7436:7455   */\n      mstore\n        /* \"#utility.yul\":7488:7492   */\n      0x20\n        /* \"#utility.yul\":7483:7486   */\n      dup3\n        /* \"#utility.yul\":7479:7493   */\n      add\n        /* \"#utility.yul\":7464:7493   */\n      swap1\n      pop\n        /* \"#utility.yul\":7330:7499   */\n      swap3\n      swap2\n      pop\n      pop\n      jump\t// out\n        /* \"#utility.yul\":7505:7653   */\n    tag_128:\n        /* \"#utility.yul\":7607:7618   */\n      0x00\n        /* \"#utility.yul\":7644:7647   */\n      dup2\n        /* \"#utility.yul\":7629:7647   */\n      swap1\n      pop\n        /* \"#utility.yul\":7505:7653   */\n      swap3\n      swap2\n      pop\n      pop\n      jump\t// out\n        /* \"#utility.yul\":7659:8007   */\n    tag_24:\n        /* \"#utility.yul\":7699:7706   */\n      0x00\n        /* \"#utility.yul\":7722:7742   */\n      tag_171\n        /* \"#utility.yul\":7740:7741   */\n      dup3\n        /* \"#utility.yul\":7722:7742   */\n      tag_133\n      jump\t// in\n    tag_171:\n        /* \"#utility.yul\":7717:7742   */\n      swap2\n      pop\n        /* \"#utility.yul\":7756:7776   */\n      tag_172\n        /* \"#utility.yul\":7774:7775   */\n      dup4\n        /* \"#utility.yul\":7756:7776   */\n      tag_133\n      jump\t// in\n    tag_172:\n        /* \"#utility.yul\":7751:7776   */\n      swap3\n      pop\n        /* \"#utility.yul\":7944:7945   */\n      dup2\n        /* \"#utility.yul\":7876:7942   */\n      0xffffffffffffffffffffffffffffffffffffffffffffffffffffffffffffffff\n        /* \"#utility.yul\":7872:7946   */\n      div\n        /* \"#utility.yul\":7869:7870   */\n      dup4\n        /* \"#utility.yul\":7866:7947   */\n      gt\n        /* \"#utility.yul\":7861:7862   */\n      dup3\n        /* \"#utility.yul\":7854:7863   */\n      iszero\n        /* \"#utility.yul\":7847:7864   */\n      iszero\n        /* \"#utility.yul\":7843:7948   */\n      and\n        /* \"#utility.yul\":7840:7971   */\n      iszero\n      tag_173\n      jumpi\n        /* \"#utility.yul\":7951:7969   */\n      tag_174\n      tag_175\n      jump\t// in\n    tag_174:\n        /* \"#utility.yul\":7840:7971   */\n    tag_173:\n        /* \"#utility.yul\":7999:8000   */\n      dup3\n        /* \"#utility.yul\":7996:7997   */\n      dup3\n        /* \"#utility.yul\":7992:8001   */\n      mul\n        /* \"#utility.yul\":7981:8001   */\n      swap1\n      pop\n        /* \"#utility.yul\":7659:8007   */\n      swap3\n      swap2\n      pop\n      pop\n      jump\t// out\n        /* \"#utility.yul\":8013:8109   */\n    tag_108:\n        /* \"#utility.yul\":8050:8057   */\n      0x00\n        /* \"#utility.yul\":8079:8103   */\n      tag_177\n        /* \"#utility.yul\":8097:8102   */\n      dup3\n        /* \"#utility.yul\":8079:8103   */\n      tag_178\n      jump\t// in\n    tag_177:\n        /* \"#utility.yul\":8068:8103   */\n      swap1\n      pop\n        /* \"#utility.yul\":8013:8109   */\n      swap2\n      swap1\n      pop\n      jump\t// out\n        /* \"#utility.yul\":8115:8241   */\n    tag_178:\n        /* \"#utility.yul\":8152:8159   */\n      0x00\n        /* \"#utility.yul\":8192:8234   */\n      0xffffffffffffffffffffffffffffffffffffffff\n        /* \"#utility.yul\":8185:8190   */\n      dup3\n        /* \"#utility.yul\":8181:8235   */\n      and\n        /* \"#utility.yul\":8170:8235   */\n      swap1\n      pop\n        /* \"#utility.yul\":8115:8241   */\n      swap2\n      swap1\n      pop\n      jump\t// out\n        /* \"#utility.yul\":8247:8324   */\n    tag_133:\n        /* \"#utility.yul\":8284:8291   */\n      0x00\n        /* \"#utility.yul\":8313:8318   */\n      dup2\n        /* \"#utility.yul\":8302:8318   */\n      swap1\n      pop\n        /* \"#utility.yul\":8247:8324   */\n      swap2\n      swap1\n      pop\n      jump\t// out\n        /* \"#utility.yul\":8330:8484   */\n    tag_67:\n        /* \"#utility.yul\":8414:8420   */\n      dup3\n        /* \"#utility.yul\":8409:8412   */\n      dup2\n        /* \"#utility.yul\":8404:8407   */\n      dup4\n        /* \"#utility.yul\":8391:8421   */\n      calldatacopy\n        /* \"#utility.yul\":8476:8477   */\n      0x00\n        /* \"#utility.yul\":8467:8473   */\n      dup4\n        /* \"#utility.yul\":8462:8465   */\n      dup4\n        /* \"#utility.yul\":8458:8474   */\n      add\n        /* \"#utility.yul\":8451:8478   */\n      mstore\n        /* \"#utility.yul\":8330:8484   */\n      pop\n      pop\n      pop\n      jump\t// out\n        /* \"#utility.yul\":8490:8797   */\n    tag_121:\n        /* \"#utility.yul\":8558:8559   */\n      0x00\n        /* \"#utility.yul\":8568:8681   */\n    tag_183:\n        /* \"#utility.yul\":8582:8588   */\n      dup4\n        /* \"#utility.yul\":8579:8580   */\n      dup2\n        /* \"#utility.yul\":8576:8589   */\n      lt\n        /* \"#utility.yul\":8568:8681   */\n      iszero\n      tag_185\n      jumpi\n        /* \"#utility.yul\":8667:8668   */\n      dup1\n        /* \"#utility.yul\":8662:8665   */\n      dup3\n        /* \"#utility.yul\":8658:8669   */\n      add\n        /* \"#utility.yul\":8652:8670   */\n      mload\n        /* \"#utility.yul\":8648:8649   */\n      dup2\n        /* \"#utility.yul\":8643:8646   */\n      dup5\n        /* \"#utility.yul\":8639:8650   */\n      add\n        /* \"#utility.yul\":8632:8671   */\n      mstore\n        /* \"#utility.yul\":8604:8606   */\n      0x20\n        /* \"#utility.yul\":8601:8602   */\n      dup2\n        /* \"#utility.yul\":8597:8607   */\n      add\n        /* \"#utility.yul\":8592:8607   */\n      swap1\n      pop\n        /* \"#utility.yul\":8568:8681   */\n      jump(tag_183)\n    tag_185:\n        /* \"#utility.yul\":8699:8705   */\n      dup4\n        /* \"#utility.yul\":8696:8697   */\n      dup2\n        /* \"#utility.yul\":8693:8706   */\n      gt\n        /* \"#utility.yul\":8690:8791   */\n      iszero\n      tag_186\n      jumpi\n        /* \"#utility.yul\":8779:8780   */\n      0x00\n        /* \"#utility.yul\":8770:8776   */\n      dup5\n        /* \"#utility.yul\":8765:8768   */\n      dup5\n        /* \"#utility.yul\":8761:8777   */\n      add\n        /* \"#utility.yul\":8754:8781   */\n      mstore\n        /* \"#utility.yul\":8690:8791   */\n    tag_186:\n        /* \"#utility.yul\":8539:8797   */\n      pop\n        /* \"#utility.yul\":8490:8797   */\n      pop\n      pop\n      pop\n      jump\t// out\n        /* \"#utility.yul\":8803:9123   */\n    tag_34:\n        /* \"#utility.yul\":8847:8853   */\n      0x00\n        /* \"#utility.yul\":8884:8885   */\n      0x02\n        /* \"#utility.yul\":8878:8882   */\n      dup3\n        /* \"#utility.yul\":8874:8886   */\n      div\n        /* \"#utility.yul\":8864:8886   */\n      swap1\n      pop\n        /* \"#utility.yul\":8931:8932   */\n      0x01\n        /* \"#utility.yul\":8925:8929   */\n      dup3\n        /* \"#utility.yul\":8921:8933   */\n      and\n        /* \"#utility.yul\":8952:8970   */\n      dup1\n        /* \"#utility.yul\":8942:9023   */\n      tag_188\n      jumpi\n        /* \"#utility.yul\":9008:9012   */\n      0x7f\n        /* \"#utility.yul\":9000:9006   */\n      dup3\n        /* \"#utility.yul\":8996:9013   */\n      and\n        /* \"#utility.yul\":8986:9013   */\n      swap2\n      pop\n        /* \"#utility.yul\":8942:9023   */\n    tag_188:\n        /* \"#utility.yul\":9070:9072   */\n      0x20\n        /* \"#utility.yul\":9062:9068   */\n      dup3\n        /* \"#utility.yul\":9059:9073   */\n      lt\n        /* \"#utility.yul\":9039:9057   */\n      dup2\n        /* \"#utility.yul\":9036:9074   */\n      eq\n        /* \"#utility.yul\":9033:9117   */\n      iszero\n      tag_189\n      jumpi\n        /* \"#utility.yul\":9089:9107   */\n      tag_190\n      tag_191\n      jump\t// in\n    tag_190:\n        /* \"#utility.yul\":9033:9117   */\n    tag_189:\n        /* \"#utility.yul\":8854:9123   */\n      pop\n        /* \"#utility.yul\":8803:9123   */\n      swap2\n      swap1\n      pop\n      jump\t// out\n        /* \"#utility.yul\":9129:9410   */\n    tag_160:\n        /* \"#utility.yul\":9212:9239   */\n      tag_193\n        /* \"#utility.yul\":9234:9238   */\n      dup3\n        /* \"#utility.yul\":9212:9239   */\n      tag_123\n      jump\t// in\n    tag_193:\n        /* \"#utility.yul\":9204:9210   */\n      dup2\n        /* \"#utility.yul\":9200:9240   */\n      add\n        /* \"#utility.yul\":9342:9348   */\n      dup2\n        /* \"#utility.yul\":9330:9340   */\n      dup2\n        /* \"#utility.yul\":9327:9349   */\n      lt\n        /* \"#utility.yul\":9306:9324   */\n      0xffffffffffffffff\n        /* \"#utility.yul\":9294:9304   */\n      dup3\n        /* \"#utility.yul\":9291:9325   */\n      gt\n        /* \"#utility.yul\":9288:9350   */\n      or\n        /* \"#utility.yul\":9285:9373   */\n      iszero\n      tag_194\n      jumpi\n        /* \"#utility.yul\":9353:9371   */\n      tag_195\n      tag_165\n      jump\t// in\n    tag_195:\n        /* \"#utility.yul\":9285:9373   */\n    tag_194:\n        /* \"#utility.yul\":9393:9403   */\n      dup1\n        /* \"#utility.yul\":9389:9391   */\n      0x40\n        /* \"#utility.yul\":9382:9404   */\n      mstore\n        /* \"#utility.yul\":9172:9410   */\n      pop\n        /* \"#utility.yul\":9129:9410   */\n      pop\n      pop\n      jump\t// out\n        /* \"#utility.yul\":9416:9516   */\n    tag_113:\n        /* \"#utility.yul\":9455:9462   */\n      0x00\n        /* \"#utility.yul\":9484:9510   */\n      tag_197\n        /* \"#utility.yul\":9504:9509   */\n      dup3\n        /* \"#utility.yul\":9484:9510   */\n      tag_198\n      jump\t// in\n    tag_197:\n        /* \"#utility.yul\":9473:9510   */\n      swap1\n      pop\n        /* \"#utility.yul\":9416:9516   */\n      swap2\n      swap1\n      pop\n      jump\t// out\n        /* \"#utility.yul\":9522:9616   */\n    tag_198:\n        /* \"#utility.yul\":9561:9568   */\n      0x00\n        /* \"#utility.yul\":9590:9610   */\n      tag_200\n        /* \"#utility.yul\":9604:9609   */\n      dup3\n        /* \"#utility.yul\":9590:9610   */\n      tag_201\n      jump\t// in\n    tag_200:\n        /* \"#utility.yul\":9579:9610   */\n      swap1\n      pop\n        /* \"#utility.yul\":9522:9616   */\n      swap2\n      swap1\n      pop\n      jump\t// out\n        /* \"#utility.yul\":9622:9701   */\n    tag_138:\n        /* \"#utility.yul\":9661:9668   */\n      0x00\n        /* \"#utility.yul\":9690:9695   */\n      dup2\n        /* \"#utility.yul\":9679:9695   */\n      swap1\n      pop\n        /* \"#utility.yul\":9622:9701   */\n      swap2\n      swap1\n      pop\n      jump\t// out\n        /* \"#utility.yul\":9707:9883   */\n    tag_45:\n        /* \"#utility.yul\":9739:9740   */\n      0x00\n        /* \"#utility.yul\":9756:9776   */\n      tag_204\n        /* \"#utility.yul\":9774:9775   */\n      dup3\n        /* \"#utility.yul\":9756:9776   */\n      tag_133\n      jump\t// in\n    tag_204:\n        /* \"#utility.yul\":9751:9776   */\n      swap2\n      pop\n        /* \"#utility.yul\":9790:9810   */\n      tag_205\n        /* \"#utility.yul\":9808:9809   */\n      dup4\n        /* \"#utility.yul\":9790:9810   */\n      tag_133\n      jump\t// in\n    tag_205:\n        /* \"#utility.yul\":9785:9810   */\n      swap3\n      pop\n        /* \"#utility.yul\":9829:9830   */\n      dup3\n        /* \"#utility.yul\":9819:9854   */\n      tag_206\n      jumpi\n        /* \"#utility.yul\":9834:9852   */\n      tag_207\n      tag_208\n      jump\t// in\n    tag_207:\n        /* \"#utility.yul\":9819:9854   */\n    tag_206:\n        /* \"#utility.yul\":9875:9876   */\n      dup3\n        /* \"#utility.yul\":9872:9873   */\n      dup3\n        /* \"#utility.yul\":9868:9877   */\n      mod\n        /* \"#utility.yul\":9863:9877   */\n      swap1\n      pop\n        /* \"#utility.yul\":9707:9883   */\n      swap3\n      swap2\n      pop\n      pop\n      jump\t// out\n        /* \"#utility.yul\":9889:10069   */\n    tag_175:\n        /* \"#utility.yul\":9937:10014   */\n      0x4e487b7100000000000000000000000000000000000000000000000000000000\n        /* \"#utility.yul\":9934:9935   */\n      0x00\n        /* \"#utility.yul\":9927:10015   */\n      mstore\n        /* \"#utility.yul\":10034:10038   */\n      0x11\n        /* \"#utility.yul\":10031:10032   */\n      0x04\n        /* \"#utility.yul\":10024:10039   */\n      mstore\n        /* \"#utility.yul\":10058:10062   */\n      0x24\n        /* \"#utility.yul\":10055:10056   */\n      0x00\n        /* \"#utility.yul\":10048:10063   */\n      revert\n        /* \"#utility.yul\":10075:10255   */\n    tag_208:\n        /* \"#utility.yul\":10123:10200   */\n      0x4e487b7100000000000000000000000000000000000000000000000000000000\n        /* \"#utility.yul\":10120:10121   */\n      0x00\n        /* \"#utility.yul\":10113:10201   */\n      mstore\n        /* \"#utility.yul\":10220:10224   */\n      0x12\n        /* \"#utility.yul\":10217:10218   */\n      0x04\n        /* \"#utility.yul\":10210:10225   */\n      mstore\n        /* \"#utility.yul\":10244:10248   */\n      0x24\n        /* \"#utility.yul\":10241:10242   */\n      0x00\n        /* \"#utility.yul\":10234:10249   */\n      revert\n        /* \"#utility.yul\":10261:10441   */\n    tag_191:\n        /* \"#utility.yul\":10309:10386   */\n      0x4e487b7100000000000000000000000000000000000000000000000000000000\n        /* \"#utility.yul\":10306:10307   */\n      0x00\n        /* \"#utility.yul\":10299:10387   */\n      mstore\n        /* \"#utility.yul\":10406:10410   */\n      0x22\n        /* \"#utility.yul\":10403:10404   */\n      0x04\n        /* \"#utility.yul\":10396:10411   */\n      mstore\n        /* \"#utility.yul\":10430:10434   */\n      0x24\n        /* \"#utility.yul\":10427:10428   */\n      0x00\n        /* \"#utility.yul\":10420:10435   */\n      revert\n        /* \"#utility.yul\":10447:10627   */\n    tag_165:\n        /* \"#utility.yul\":10495:10572   */\n      0x4e487b7100000000000000000000000000000000000000000000000000000000\n        /* \"#utility.yul\":10492:10493   */\n      0x00\n        /* \"#utility.yul\":10485:10573   */\n      mstore\n        /* \"#utility.yul\":10592:10596   */\n      0x41\n        /* \"#utility.yul\":10589:10590   */\n      0x04\n        /* \"#utility.yul\":10582:10597   */\n      mstore\n        /* \"#utility.yul\":10616:10620   */\n      0x24\n        /* \"#utility.yul\":10613:10614   */\n      0x00\n        /* \"#utility.yul\":10606:10621   */\n      revert\n        /* \"#utility.yul\":10633:10750   */\n    tag_76:\n        /* \"#utility.yul\":10742:10743   */\n      0x00\n        /* \"#utility.yul\":10739:10740   */\n      dup1\n        /* \"#utility.yul\":10732:10744   */\n      revert\n        /* \"#utility.yul\":10756:10873   */\n    tag_65:\n        /* \"#utility.yul\":10865:10866   */\n      0x00\n        /* \"#utility.yul\":10862:10863   */\n      dup1\n        /* \"#utility.yul\":10855:10867   */\n      revert\n        /* \"#utility.yul\":10879:10996   */\n    tag_95:\n        /* \"#utility.yul\":10988:10989   */\n      0x00\n        /* \"#utility.yul\":10985:10986   */\n      dup1\n        /* \"#utility.yul\":10978:10990   */\n      revert\n        /* \"#utility.yul\":11002:11119   */\n    tag_85:\n        /* \"#utility.yul\":11111:11112   */\n      0x00\n        /* \"#utility.yul\":11108:11109   */\n      dup1\n        /* \"#utility.yul\":11101:11113   */\n      revert\n        /* \"#utility.yul\":11125:11227   */\n    tag_123:\n        /* \"#utility.yul\":11166:11172   */\n      0x00\n        /* \"#utility.yul\":11217:11219   */\n      0x1f\n        /* \"#utility.yul\":11213:11220   */\n      not\n        /* \"#utility.yul\":11208:11210   */\n      0x1f\n        /* \"#utility.yul\":11201:11206   */\n      dup4\n        /* \"#utility.yul\":11197:11211   */\n      add\n        /* \"#utility.yul\":11193:11221   */\n      and\n        /* \"#utility.yul\":11183:11221   */\n      swap1\n      pop\n        /* \"#utility.yul\":11125:11227   */\n      swap2\n      swap1\n      pop\n      jump\t// out\n        /* \"#utility.yul\":11233:11327   */\n    tag_201:\n        /* \"#utility.yul\":11266:11274   */\n      0x00\n        /* \"#utility.yul\":11314:11319   */\n      dup2\n        /* \"#utility.yul\":11310:11312   */\n      0x60\n        /* \"#utility.yul\":11306:11320   */\n      shl\n        /* \"#utility.yul\":11285:11320   */\n      swap1\n      pop\n        /* \"#utility.yul\":11233:11327   */\n      swap2\n      swap1\n      pop\n      jump\t// out\n        /* \"#utility.yul\":11333:11455   */\n    tag_71:\n        /* \"#utility.yul\":11406:11430   */\n      tag_220\n        /* \"#utility.yul\":11424:11429   */\n      dup2\n        /* \"#utility.yul\":11406:11430   */\n      tag_108\n      jump\t// in\n    tag_220:\n        /* \"#utility.yul\":11399:11404   */\n      dup2\n        /* \"#utility.yul\":11396:11431   */\n      eq\n        /* \"#utility.yul\":11386:11449   */\n      tag_221\n      jumpi\n        /* \"#utility.yul\":11445:11446   */\n      0x00\n        /* \"#utility.yul\":11442:11443   */\n      dup1\n        /* \"#utility.yul\":11435:11447   */\n      revert\n        /* \"#utility.yul\":11386:11449   */\n    tag_221:\n        /* \"#utility.yul\":11333:11455   */\n      pop\n      jump\t// out\n        /* \"#utility.yul\":11461:11583   */\n    tag_81:\n        /* \"#utility.yul\":11534:11558   */\n      tag_223\n        /* \"#utility.yul\":11552:11557   */\n      dup2\n        /* \"#utility.yul\":11534:11558   */\n      tag_133\n      jump\t// in\n    tag_223:\n        /* \"#utility.yul\":11527:11532   */\n      dup2\n        /* \"#utility.yul\":11524:11559   */\n      eq\n        /* \"#utility.yul\":11514:11577   */\n      tag_224\n      jumpi\n        /* \"#utility.yul\":11573:11574   */\n      0x00\n        /* \"#utility.yul\":11570:11571   */\n      dup1\n        /* \"#utility.yul\":11563:11575   */\n      revert\n        /* \"#utility.yul\":11514:11577   */\n    tag_224:\n        /* \"#utility.yul\":11461:11583   */\n      pop\n      jump\t// out\n\n    auxdata: 0xa2646970667358221220cfb61faaf6931f73ea767bbb5f28d0b991a8bf7db5e39d479dea00d819d0eb0d64736f6c63430008070033\n}\n",
				"bytecode": {
					"linkReferences": {},
					"object": "60806040526005600055600054600a6200001a91906200008c565b6001553480156200002a57600080fd5b506200020f565b6000808291508390505b600185111562000083578086048111156200005b576200005a620001d3565b5b60018516156200006b5780820291505b80810290506200007b8562000202565b94506200003b565b94509492505050565b60006200009982620001c9565b9150620000a683620001c9565b9250620000d57fffffffffffffffffffffffffffffffffffffffffffffffffffffffffffffffff8484620000dd565b905092915050565b600082620000ef5760019050620001c2565b81620000ff5760009050620001c2565b8160018114620001185760028114620001235762000159565b6001915050620001c2565b60ff841115620001385762000137620001d3565b5b8360020a915084821115620001525762000151620001d3565b5b50620001c2565b5060208310610133831016604e8410600b8410161715620001935782820a9050838111156200018d576200018c620001d3565b5b620001c2565b620001a2848484600162000031565b92509050818404811115620001bc57620001bb620001d3565b5b81810290505b9392505050565b6000819050919050565b7f4e487b7100000000000000000000000000000000000000000000000000000000600052601160045260246000fd5b60008160011c9050919050565b610ae5806200021f6000396000f3fe608060405234801561001057600080fd5b50600436106100415760003560e01c806391bfe0d414610046578063aeda852f14610076578063be40a73e146100aa575b600080fd5b610060600480360381019061005b91906104da565b6100c6565b60405161006d91906106bb565b60405180910390f35b610090600480360381019061008b91906104ad565b61022f565b6040516100a1959493929190610722565b60405180910390f35b6100c460048036038101906100bf919061055d565b61030d565b005b60008084866100d591906107f9565b116100df57600080fd5b60006100ec848685610325565b9050600260008281526020019081526020016000206000015481141561011157600080fd5b6040518060a001604052808281526020018781526020018681526020018573ffffffffffffffffffffffffffffffffffffffff168152602001848152506002600083815260200190815260200160002060008201518160000155602082015181600101556040820151816002015560608201518160030160006101000a81548173ffffffffffffffffffffffffffffffffffffffff021916908373ffffffffffffffffffffffffffffffffffffffff16021790555060808201518160040190805190602001906101e2929190610370565b509050507f8f5afd88eb4be0ac287d87970052ce9a2b453448408e3c91a695ad7509ab71948185888660405161021b94939291906106d6565b60405180910390a180915050949350505050565b60026020528060005260406000206000915090508060000154908060010154908060020154908060030160009054906101000a900473ffffffffffffffffffffffffffffffffffffffff169080600401805461028a906108d1565b80601f01602080910402602001604051908101604052809291908181526020018280546102b6906108d1565b80156103035780601f106102d857610100808354040283529160200191610303565b820191906000526020600020905b8154815290600101906020018083116102e657829003601f168201915b5050505050905085565b600033905061031e848433856100c6565b5050505050565b60008084848460405160200161033d93929190610682565b6040516020818303038152906040528051906020012060001c9050600154816103669190610962565b9150509392505050565b82805461037c906108d1565b90600052602060002090601f01602090048101928261039e57600085556103e5565b82601f106103b757805160ff19168380011785556103e5565b828001600101855582156103e5579182015b828111156103e45782518255916020019190600101906103c9565b5b5090506103f291906103f6565b5090565b5b8082111561040f5760008160009055506001016103f7565b5090565b6000610426610421846107a1565b61077c565b90508281526020810184848401111561044257610441610a54565b5b61044d84828561088f565b509392505050565b60008135905061046481610a81565b92915050565b600082601f83011261047f5761047e610a4f565b5b813561048f848260208601610413565b91505092915050565b6000813590506104a781610a98565b92915050565b6000602082840312156104c3576104c2610a5e565b5b60006104d184828501610498565b91505092915050565b600080600080608085870312156104f4576104f3610a5e565b5b600061050287828801610498565b945050602061051387828801610498565b935050604061052487828801610455565b925050606085013567ffffffffffffffff81111561054557610544610a59565b5b6105518782880161046a565b91505092959194509250565b60008060006060848603121561057657610575610a5e565b5b600061058486828701610498565b935050602061059586828701610498565b925050604084013567ffffffffffffffff8111156105b6576105b5610a59565b5b6105c28682870161046a565b9150509250925092565b6105d581610853565b82525050565b6105ec6105e782610853565b610934565b82525050565b60006105fd826107d2565b61060781856107dd565b935061061781856020860161089e565b61062081610a63565b840191505092915050565b6000610636826107d2565b61064081856107ee565b935061065081856020860161089e565b80840191505092915050565b61066581610885565b82525050565b61067c61067782610885565b610958565b82525050565b600061068e82866105db565b60148201915061069e828561066b565b6020820191506106ae828461062b565b9150819050949350505050565b60006020820190506106d0600083018461065c565b92915050565b60006080820190506106eb600083018761065c565b6106f860208301866105cc565b610705604083018561065c565b818103606083015261071781846105f2565b905095945050505050565b600060a082019050610737600083018861065c565b610744602083018761065c565b610751604083018661065c565b61075e60608301856105cc565b818103608083015261077081846105f2565b90509695505050505050565b6000610786610797565b90506107928282610903565b919050565b6000604051905090565b600067ffffffffffffffff8211156107bc576107bb610a20565b5b6107c582610a63565b9050602081019050919050565b600081519050919050565b600082825260208201905092915050565b600081905092915050565b600061080482610885565b915061080f83610885565b9250817fffffffffffffffffffffffffffffffffffffffffffffffffffffffffffffffff048311821515161561084857610847610993565b5b828202905092915050565b600061085e82610865565b9050919050565b600073ffffffffffffffffffffffffffffffffffffffff82169050919050565b6000819050919050565b82818337600083830152505050565b60005b838110156108bc5780820151818401526020810190506108a1565b838111156108cb576000848401525b50505050565b600060028204905060018216806108e957607f821691505b602082108114156108fd576108fc6109f1565b5b50919050565b61090c82610a63565b810181811067ffffffffffffffff8211171561092b5761092a610a20565b5b80604052505050565b600061093f82610946565b9050919050565b600061095182610a74565b9050919050565b6000819050919050565b600061096d82610885565b915061097883610885565b925082610988576109876109c2565b5b828206905092915050565b7f4e487b7100000000000000000000000000000000000000000000000000000000600052601160045260246000fd5b7f4e487b7100000000000000000000000000000000000000000000000000000000600052601260045260246000fd5b7f4e487b7100000000000000000000000000000000000000000000000000000000600052602260045260246000fd5b7f4e487b7100000000000000000000000000000000000000000000000000000000600052604160045260246000fd5b600080fd5b600080fd5b600080fd5b600080fd5b6000601f19601f8301169050919050565b60008160601b9050919050565b610a8a81610853565b8114610a9557600080fd5b50565b610aa181610885565b8114610aac57600080fd5b5056fea2646970667358221220cfb61faaf6931f73ea767bbb5f28d0b991a8bf7db5e39d479dea00d819d0eb0d64736f6c63430008070033",
					"opcodes": "PUSH1 0x80 PUSH1 0x40 MSTORE PUSH1 0x5 PUSH1 0x0 SSTORE PUSH1 0x0 SLOAD PUSH1 0xA PUSH3 0x1A SWAP2 SWAP1 PUSH3 0x8C JUMP JUMPDEST PUSH1 0x1 SSTORE CALLVALUE DUP1 ISZERO PUSH3 0x2A JUMPI PUSH1 0x0 DUP1 REVERT JUMPDEST POP PUSH3 0x20F JUMP JUMPDEST PUSH1 0x0 DUP1 DUP3 SWAP2 POP DUP4 SWAP1 POP JUMPDEST PUSH1 0x1 DUP6 GT ISZERO PUSH3 0x83 JUMPI DUP1 DUP7 DIV DUP2 GT ISZERO PUSH3 0x5B JUMPI PUSH3 0x5A PUSH3 0x1D3 JUMP JUMPDEST JUMPDEST PUSH1 0x1 DUP6 AND ISZERO PUSH3 0x6B JUMPI DUP1 DUP3 MUL SWAP2 POP JUMPDEST DUP1 DUP2 MUL SWAP1 POP PUSH3 0x7B DUP6 PUSH3 0x202 JUMP JUMPDEST SWAP5 POP PUSH3 0x3B JUMP JUMPDEST SWAP5 POP SWAP5 SWAP3 POP POP POP JUMP JUMPDEST PUSH1 0x0 PUSH3 0x99 DUP3 PUSH3 0x1C9 JUMP JUMPDEST SWAP2 POP PUSH3 0xA6 DUP4 PUSH3 0x1C9 JUMP JUMPDEST SWAP3 POP PUSH3 0xD5 PUSH32 0xFFFFFFFFFFFFFFFFFFFFFFFFFFFFFFFFFFFFFFFFFFFFFFFFFFFFFFFFFFFFFFFF DUP5 DUP5 PUSH3 0xDD JUMP JUMPDEST SWAP1 POP SWAP3 SWAP2 POP POP JUMP JUMPDEST PUSH1 0x0 DUP3 PUSH3 0xEF JUMPI PUSH1 0x1 SWAP1 POP PUSH3 0x1C2 JUMP JUMPDEST DUP2 PUSH3 0xFF JUMPI PUSH1 0x0 SWAP1 POP PUSH3 0x1C2 JUMP JUMPDEST DUP2 PUSH1 0x1 DUP2 EQ PUSH3 0x118 JUMPI PUSH1 0x2 DUP2 EQ PUSH3 0x123 JUMPI PUSH3 0x159 JUMP JUMPDEST PUSH1 0x1 SWAP2 POP POP PUSH3 0x1C2 JUMP JUMPDEST PUSH1 0xFF DUP5 GT ISZERO PUSH3 0x138 JUMPI PUSH3 0x137 PUSH3 0x1D3 JUMP JUMPDEST JUMPDEST DUP4 PUSH1 0x2 EXP SWAP2 POP DUP5 DUP3 GT ISZERO PUSH3 0x152 JUMPI PUSH3 0x151 PUSH3 0x1D3 JUMP JUMPDEST JUMPDEST POP PUSH3 0x1C2 JUMP JUMPDEST POP PUSH1 0x20 DUP4 LT PUSH2 0x133 DUP4 LT AND PUSH1 0x4E DUP5 LT PUSH1 0xB DUP5 LT AND OR ISZERO PUSH3 0x193 JUMPI DUP3 DUP3 EXP SWAP1 POP DUP4 DUP2 GT ISZERO PUSH3 0x18D JUMPI PUSH3 0x18C PUSH3 0x1D3 JUMP JUMPDEST JUMPDEST PUSH3 0x1C2 JUMP JUMPDEST PUSH3 0x1A2 DUP5 DUP5 DUP5 PUSH1 0x1 PUSH3 0x31 JUMP JUMPDEST SWAP3 POP SWAP1 POP DUP2 DUP5 DIV DUP2 GT ISZERO PUSH3 0x1BC JUMPI PUSH3 0x1BB PUSH3 0x1D3 JUMP JUMPDEST JUMPDEST DUP2 DUP2 MUL SWAP1 POP JUMPDEST SWAP4 SWAP3 POP POP POP JUMP JUMPDEST PUSH1 0x0 DUP2 SWAP1 POP SWAP2 SWAP1 POP JUMP JUMPDEST PUSH32 0x4E487B7100000000000000000000000000000000000000000000000000000000 PUSH1 0x0 MSTORE PUSH1 0x11 PUSH1 0x4 MSTORE PUSH1 0x24 PUSH1 0x0 REVERT JUMPDEST PUSH1 0x0 DUP2 PUSH1 0x1 SHR SWAP1 POP SWAP2 SWAP1 POP JUMP JUMPDEST PUSH2 0xAE5 DUP1 PUSH3 0x21F PUSH1 0x0 CODECOPY PUSH1 0x0 RETURN INVALID PUSH1 0x80 PUSH1 0x40 MSTORE CALLVALUE DUP1 ISZERO PUSH2 0x10 JUMPI PUSH1 0x0 DUP1 REVERT JUMPDEST POP PUSH1 0x4 CALLDATASIZE LT PUSH2 0x41 JUMPI PUSH1 0x0 CALLDATALOAD PUSH1 0xE0 SHR DUP1 PUSH4 0x91BFE0D4 EQ PUSH2 0x46 JUMPI DUP1 PUSH4 0xAEDA852F EQ PUSH2 0x76 JUMPI DUP1 PUSH4 0xBE40A73E EQ PUSH2 0xAA JUMPI JUMPDEST PUSH1 0x0 DUP1 REVERT JUMPDEST PUSH2 0x60 PUSH1 0x4 DUP1 CALLDATASIZE SUB DUP2 ADD SWAP1 PUSH2 0x5B SWAP2 SWAP1 PUSH2 0x4DA JUMP JUMPDEST PUSH2 0xC6 JUMP JUMPDEST PUSH1 0x40 MLOAD PUSH2 0x6D SWAP2 SWAP1 PUSH2 0x6BB JUMP JUMPDEST PUSH1 0x40 MLOAD DUP1 SWAP2 SUB SWAP1 RETURN JUMPDEST PUSH2 0x90 PUSH1 0x4 DUP1 CALLDATASIZE SUB DUP2 ADD SWAP1 PUSH2 0x8B SWAP2 SWAP1 PUSH2 0x4AD JUMP JUMPDEST PUSH2 0x22F JUMP JUMPDEST PUSH1 0x40 MLOAD PUSH2 0xA1 SWAP6 SWAP5 SWAP4 SWAP3 SWAP2 SWAP1 PUSH2 0x722 JUMP JUMPDEST PUSH1 0x40 MLOAD DUP1 SWAP2 SUB SWAP1 RETURN JUMPDEST PUSH2 0xC4 PUSH1 0x4 DUP1 CALLDATASIZE SUB DUP2 ADD SWAP1 PUSH2 0xBF SWAP2 SWAP1 PUSH2 0x55D JUMP JUMPDEST PUSH2 0x30D JUMP JUMPDEST STOP JUMPDEST PUSH1 0x0 DUP1 DUP5 DUP7 PUSH2 0xD5 SWAP2 SWAP1 PUSH2 0x7F9 JUMP JUMPDEST GT PUSH2 0xDF JUMPI PUSH1 0x0 DUP1 REVERT JUMPDEST PUSH1 0x0 PUSH2 0xEC DUP5 DUP7 DUP6 PUSH2 0x325 JUMP JUMPDEST SWAP1 POP PUSH1 0x2 PUSH1 0x0 DUP3 DUP2 MSTORE PUSH1 0x20 ADD SWAP1 DUP2 MSTORE PUSH1 0x20 ADD PUSH1 0x0 KECCAK256 PUSH1 0x0 ADD SLOAD DUP2 EQ ISZERO PUSH2 0x111 JUMPI PUSH1 0x0 DUP1 REVERT JUMPDEST PUSH1 0x40 MLOAD DUP1 PUSH1 0xA0 ADD PUSH1 0x40 MSTORE DUP1 DUP3 DUP2 MSTORE PUSH1 0x20 ADD DUP8 DUP2 MSTORE PUSH1 0x20 ADD DUP7 DUP2 MSTORE PUSH1 0x20 ADD DUP6 PUSH20 0xFFFFFFFFFFFFFFFFFFFFFFFFFFFFFFFFFFFFFFFF AND DUP2 MSTORE PUSH1 0x20 ADD DUP5 DUP2 MSTORE POP PUSH1 0x2 PUSH1 0x0 DUP4 DUP2 MSTORE PUSH1 0x20 ADD SWAP1 DUP2 MSTORE PUSH1 0x20 ADD PUSH1 0x0 KECCAK256 PUSH1 0x0 DUP3 ADD MLOAD DUP2 PUSH1 0x0 ADD SSTORE PUSH1 0x20 DUP3 ADD MLOAD DUP2 PUSH1 0x1 ADD SSTORE PUSH1 0x40 DUP3 ADD MLOAD DUP2 PUSH1 0x2 ADD SSTORE PUSH1 0x60 DUP3 ADD MLOAD DUP2 PUSH1 0x3 ADD PUSH1 0x0 PUSH2 0x100 EXP DUP2 SLOAD DUP2 PUSH20 0xFFFFFFFFFFFFFFFFFFFFFFFFFFFFFFFFFFFFFFFF MUL NOT AND SWAP1 DUP4 PUSH20 0xFFFFFFFFFFFFFFFFFFFFFFFFFFFFFFFFFFFFFFFF AND MUL OR SWAP1 SSTORE POP PUSH1 0x80 DUP3 ADD MLOAD DUP2 PUSH1 0x4 ADD SWAP1 DUP1 MLOAD SWAP1 PUSH1 0x20 ADD SWAP1 PUSH2 0x1E2 SWAP3 SWAP2 SWAP1 PUSH2 0x370 JUMP JUMPDEST POP SWAP1 POP POP PUSH32 0x8F5AFD88EB4BE0AC287D87970052CE9A2B453448408E3C91A695AD7509AB7194 DUP2 DUP6 DUP9 DUP7 PUSH1 0x40 MLOAD PUSH2 0x21B SWAP5 SWAP4 SWAP3 SWAP2 SWAP1 PUSH2 0x6D6 JUMP JUMPDEST PUSH1 0x40 MLOAD DUP1 SWAP2 SUB SWAP1 LOG1 DUP1 SWAP2 POP POP SWAP5 SWAP4 POP POP POP POP JUMP JUMPDEST PUSH1 0x2 PUSH1 0x20 MSTORE DUP1 PUSH1 0x0 MSTORE PUSH1 0x40 PUSH1 0x0 KECCAK256 PUSH1 0x0 SWAP2 POP SWAP1 POP DUP1 PUSH1 0x0 ADD SLOAD SWAP1 DUP1 PUSH1 0x1 ADD SLOAD SWAP1 DUP1 PUSH1 0x2 ADD SLOAD SWAP1 DUP1 PUSH1 0x3 ADD PUSH1 0x0 SWAP1 SLOAD SWAP1 PUSH2 0x100 EXP SWAP1 DIV PUSH20 0xFFFFFFFFFFFFFFFFFFFFFFFFFFFFFFFFFFFFFFFF AND SWAP1 DUP1 PUSH1 0x4 ADD DUP1 SLOAD PUSH2 0x28A SWAP1 PUSH2 0x8D1 JUMP JUMPDEST DUP1 PUSH1 0x1F ADD PUSH1 0x20 DUP1 SWAP2 DIV MUL PUSH1 0x20 ADD PUSH1 0x40 MLOAD SWAP1 DUP2 ADD PUSH1 0x40 MSTORE DUP1 SWAP3 SWAP2 SWAP1 DUP2 DUP2 MSTORE PUSH1 0x20 ADD DUP3 DUP1 SLOAD PUSH2 0x2B6 SWAP1 PUSH2 0x8D1 JUMP JUMPDEST DUP1 ISZERO PUSH2 0x303 JUMPI DUP1 PUSH1 0x1F LT PUSH2 0x2D8 JUMPI PUSH2 0x100 DUP1 DUP4 SLOAD DIV MUL DUP4 MSTORE SWAP2 PUSH1 0x20 ADD SWAP2 PUSH2 0x303 JUMP JUMPDEST DUP3 ADD SWAP2 SWAP1 PUSH1 0x0 MSTORE PUSH1 0x20 PUSH1 0x0 KECCAK256 SWAP1 JUMPDEST DUP2 SLOAD DUP2 MSTORE SWAP1 PUSH1 0x1 ADD SWAP1 PUSH1 0x20 ADD DUP1 DUP4 GT PUSH2 0x2E6 JUMPI DUP3 SWAP1 SUB PUSH1 0x1F AND DUP3 ADD SWAP2 JUMPDEST POP POP POP POP POP SWAP1 POP DUP6 JUMP JUMPDEST PUSH1 0x0 CALLER SWAP1 POP PUSH2 0x31E DUP5 DUP5 CALLER DUP6 PUSH2 0xC6 JUMP JUMPDEST POP POP POP POP POP JUMP JUMPDEST PUSH1 0x0 DUP1 DUP5 DUP5 DUP5 PUSH1 0x40 MLOAD PUSH1 0x20 ADD PUSH2 0x33D SWAP4 SWAP3 SWAP2 SWAP1 PUSH2 0x682 JUMP JUMPDEST PUSH1 0x40 MLOAD PUSH1 0x20 DUP2 DUP4 SUB SUB DUP2 MSTORE SWAP1 PUSH1 0x40 MSTORE DUP1 MLOAD SWAP1 PUSH1 0x20 ADD KECCAK256 PUSH1 0x0 SHR SWAP1 POP PUSH1 0x1 SLOAD DUP2 PUSH2 0x366 SWAP2 SWAP1 PUSH2 0x962 JUMP JUMPDEST SWAP2 POP POP SWAP4 SWAP3 POP POP POP JUMP JUMPDEST DUP3 DUP1 SLOAD PUSH2 0x37C SWAP1 PUSH2 0x8D1 JUMP JUMPDEST SWAP1 PUSH1 0x0 MSTORE PUSH1 0x20 PUSH1 0x0 KECCAK256 SWAP1 PUSH1 0x1F ADD PUSH1 0x20 SWAP1 DIV DUP2 ADD SWAP3 DUP3 PUSH2 0x39E JUMPI PUSH1 0x0 DUP6 SSTORE PUSH2 0x3E5 JUMP JUMPDEST DUP3 PUSH1 0x1F LT PUSH2 0x3B7 JUMPI DUP1 MLOAD PUSH1 0xFF NOT AND DUP4 DUP1 ADD OR DUP6 SSTORE PUSH2 0x3E5 JUMP JUMPDEST DUP3 DUP1 ADD PUSH1 0x1 ADD DUP6 SSTORE DUP3 ISZERO PUSH2 0x3E5 JUMPI SWAP2 DUP3 ADD JUMPDEST DUP3 DUP2 GT ISZERO PUSH2 0x3E4 JUMPI DUP3 MLOAD DUP3 SSTORE SWAP2 PUSH1 0x20 ADD SWAP2 SWAP1 PUSH1 0x1 ADD SWAP1 PUSH2 0x3C9 JUMP JUMPDEST JUMPDEST POP SWAP1 POP PUSH2 0x3F2 SWAP2 SWAP1 PUSH2 0x3F6 JUMP JUMPDEST POP SWAP1 JUMP JUMPDEST JUMPDEST DUP1 DUP3 GT ISZERO PUSH2 0x40F JUMPI PUSH1 0x0 DUP2 PUSH1 0x0 SWAP1 SSTORE POP PUSH1 0x1 ADD PUSH2 0x3F7 JUMP JUMPDEST POP SWAP1 JUMP JUMPDEST PUSH1 0x0 PUSH2 0x426 PUSH2 0x421 DUP5 PUSH2 0x7A1 JUMP JUMPDEST PUSH2 0x77C JUMP JUMPDEST SWAP1 POP DUP3 DUP2 MSTORE PUSH1 0x20 DUP2 ADD DUP5 DUP5 DUP5 ADD GT ISZERO PUSH2 0x442 JUMPI PUSH2 0x441 PUSH2 0xA54 JUMP JUMPDEST JUMPDEST PUSH2 0x44D DUP5 DUP3 DUP6 PUSH2 0x88F JUMP JUMPDEST POP SWAP4 SWAP3 POP POP POP JUMP JUMPDEST PUSH1 0x0 DUP2 CALLDATALOAD SWAP1 POP PUSH2 0x464 DUP2 PUSH2 0xA81 JUMP JUMPDEST SWAP3 SWAP2 POP POP JUMP JUMPDEST PUSH1 0x0 DUP3 PUSH1 0x1F DUP4 ADD SLT PUSH2 0x47F JUMPI PUSH2 0x47E PUSH2 0xA4F JUMP JUMPDEST JUMPDEST DUP2 CALLDATALOAD PUSH2 0x48F DUP5 DUP3 PUSH1 0x20 DUP7 ADD PUSH2 0x413 JUMP JUMPDEST SWAP2 POP POP SWAP3 SWAP2 POP POP JUMP JUMPDEST PUSH1 0x0 DUP2 CALLDATALOAD SWAP1 POP PUSH2 0x4A7 DUP2 PUSH2 0xA98 JUMP JUMPDEST SWAP3 SWAP2 POP POP JUMP JUMPDEST PUSH1 0x0 PUSH1 0x20 DUP3 DUP5 SUB SLT ISZERO PUSH2 0x4C3 JUMPI PUSH2 0x4C2 PUSH2 0xA5E JUMP JUMPDEST JUMPDEST PUSH1 0x0 PUSH2 0x4D1 DUP5 DUP3 DUP6 ADD PUSH2 0x498 JUMP JUMPDEST SWAP2 POP POP SWAP3 SWAP2 POP POP JUMP JUMPDEST PUSH1 0x0 DUP1 PUSH1 0x0 DUP1 PUSH1 0x80 DUP6 DUP8 SUB SLT ISZERO PUSH2 0x4F4 JUMPI PUSH2 0x4F3 PUSH2 0xA5E JUMP JUMPDEST JUMPDEST PUSH1 0x0 PUSH2 0x502 DUP8 DUP3 DUP9 ADD PUSH2 0x498 JUMP JUMPDEST SWAP5 POP POP PUSH1 0x20 PUSH2 0x513 DUP8 DUP3 DUP9 ADD PUSH2 0x498 JUMP JUMPDEST SWAP4 POP POP PUSH1 0x40 PUSH2 0x524 DUP8 DUP3 DUP9 ADD PUSH2 0x455 JUMP JUMPDEST SWAP3 POP POP PUSH1 0x60 DUP6 ADD CALLDATALOAD PUSH8 0xFFFFFFFFFFFFFFFF DUP2 GT ISZERO PUSH2 0x545 JUMPI PUSH2 0x544 PUSH2 0xA59 JUMP JUMPDEST JUMPDEST PUSH2 0x551 DUP8 DUP3 DUP9 ADD PUSH2 0x46A JUMP JUMPDEST SWAP2 POP POP SWAP3 SWAP6 SWAP2 SWAP5 POP SWAP3 POP JUMP JUMPDEST PUSH1 0x0 DUP1 PUSH1 0x0 PUSH1 0x60 DUP5 DUP7 SUB SLT ISZERO PUSH2 0x576 JUMPI PUSH2 0x575 PUSH2 0xA5E JUMP JUMPDEST JUMPDEST PUSH1 0x0 PUSH2 0x584 DUP7 DUP3 DUP8 ADD PUSH2 0x498 JUMP JUMPDEST SWAP4 POP POP PUSH1 0x20 PUSH2 0x595 DUP7 DUP3 DUP8 ADD PUSH2 0x498 JUMP JUMPDEST SWAP3 POP POP PUSH1 0x40 DUP5 ADD CALLDATALOAD PUSH8 0xFFFFFFFFFFFFFFFF DUP2 GT ISZERO PUSH2 0x5B6 JUMPI PUSH2 0x5B5 PUSH2 0xA59 JUMP JUMPDEST JUMPDEST PUSH2 0x5C2 DUP7 DUP3 DUP8 ADD PUSH2 0x46A JUMP JUMPDEST SWAP2 POP POP SWAP3 POP SWAP3 POP SWAP3 JUMP JUMPDEST PUSH2 0x5D5 DUP2 PUSH2 0x853 JUMP JUMPDEST DUP3 MSTORE POP POP JUMP JUMPDEST PUSH2 0x5EC PUSH2 0x5E7 DUP3 PUSH2 0x853 JUMP JUMPDEST PUSH2 0x934 JUMP JUMPDEST DUP3 MSTORE POP POP JUMP JUMPDEST PUSH1 0x0 PUSH2 0x5FD DUP3 PUSH2 0x7D2 JUMP JUMPDEST PUSH2 0x607 DUP2 DUP6 PUSH2 0x7DD JUMP JUMPDEST SWAP4 POP PUSH2 0x617 DUP2 DUP6 PUSH1 0x20 DUP7 ADD PUSH2 0x89E JUMP JUMPDEST PUSH2 0x620 DUP2 PUSH2 0xA63 JUMP JUMPDEST DUP5 ADD SWAP2 POP POP SWAP3 SWAP2 POP POP JUMP JUMPDEST PUSH1 0x0 PUSH2 0x636 DUP3 PUSH2 0x7D2 JUMP JUMPDEST PUSH2 0x640 DUP2 DUP6 PUSH2 0x7EE JUMP JUMPDEST SWAP4 POP PUSH2 0x650 DUP2 DUP6 PUSH1 0x20 DUP7 ADD PUSH2 0x89E JUMP JUMPDEST DUP1 DUP5 ADD SWAP2 POP POP SWAP3 SWAP2 POP POP JUMP JUMPDEST PUSH2 0x665 DUP2 PUSH2 0x885 JUMP JUMPDEST DUP3 MSTORE POP POP JUMP JUMPDEST PUSH2 0x67C PUSH2 0x677 DUP3 PUSH2 0x885 JUMP JUMPDEST PUSH2 0x958 JUMP JUMPDEST DUP3 MSTORE POP POP JUMP JUMPDEST PUSH1 0x0 PUSH2 0x68E DUP3 DUP7 PUSH2 0x5DB JUMP JUMPDEST PUSH1 0x14 DUP3 ADD SWAP2 POP PUSH2 0x69E DUP3 DUP6 PUSH2 0x66B JUMP JUMPDEST PUSH1 0x20 DUP3 ADD SWAP2 POP PUSH2 0x6AE DUP3 DUP5 PUSH2 0x62B JUMP JUMPDEST SWAP2 POP DUP2 SWAP1 POP SWAP5 SWAP4 POP POP POP POP JUMP JUMPDEST PUSH1 0x0 PUSH1 0x20 DUP3 ADD SWAP1 POP PUSH2 0x6D0 PUSH1 0x0 DUP4 ADD DUP5 PUSH2 0x65C JUMP JUMPDEST SWAP3 SWAP2 POP POP JUMP JUMPDEST PUSH1 0x0 PUSH1 0x80 DUP3 ADD SWAP1 POP PUSH2 0x6EB PUSH1 0x0 DUP4 ADD DUP8 PUSH2 0x65C JUMP JUMPDEST PUSH2 0x6F8 PUSH1 0x20 DUP4 ADD DUP7 PUSH2 0x5CC JUMP JUMPDEST PUSH2 0x705 PUSH1 0x40 DUP4 ADD DUP6 PUSH2 0x65C JUMP JUMPDEST DUP2 DUP2 SUB PUSH1 0x60 DUP4 ADD MSTORE PUSH2 0x717 DUP2 DUP5 PUSH2 0x5F2 JUMP JUMPDEST SWAP1 POP SWAP6 SWAP5 POP POP POP POP POP JUMP JUMPDEST PUSH1 0x0 PUSH1 0xA0 DUP3 ADD SWAP1 POP PUSH2 0x737 PUSH1 0x0 DUP4 ADD DUP9 PUSH2 0x65C JUMP JUMPDEST PUSH2 0x744 PUSH1 0x20 DUP4 ADD DUP8 PUSH2 0x65C JUMP JUMPDEST PUSH2 0x751 PUSH1 0x40 DUP4 ADD DUP7 PUSH2 0x65C JUMP JUMPDEST PUSH2 0x75E PUSH1 0x60 DUP4 ADD DUP6 PUSH2 0x5CC JUMP JUMPDEST DUP2 DUP2 SUB PUSH1 0x80 DUP4 ADD MSTORE PUSH2 0x770 DUP2 DUP5 PUSH2 0x5F2 JUMP JUMPDEST SWAP1 POP SWAP7 SWAP6 POP POP POP POP POP POP JUMP JUMPDEST PUSH1 0x0 PUSH2 0x786 PUSH2 0x797 JUMP JUMPDEST SWAP1 POP PUSH2 0x792 DUP3 DUP3 PUSH2 0x903 JUMP JUMPDEST SWAP2 SWAP1 POP JUMP JUMPDEST PUSH1 0x0 PUSH1 0x40 MLOAD SWAP1 POP SWAP1 JUMP JUMPDEST PUSH1 0x0 PUSH8 0xFFFFFFFFFFFFFFFF DUP3 GT ISZERO PUSH2 0x7BC JUMPI PUSH2 0x7BB PUSH2 0xA20 JUMP JUMPDEST JUMPDEST PUSH2 0x7C5 DUP3 PUSH2 0xA63 JUMP JUMPDEST SWAP1 POP PUSH1 0x20 DUP2 ADD SWAP1 POP SWAP2 SWAP1 POP JUMP JUMPDEST PUSH1 0x0 DUP2 MLOAD SWAP1 POP SWAP2 SWAP1 POP JUMP JUMPDEST PUSH1 0x0 DUP3 DUP3 MSTORE PUSH1 0x20 DUP3 ADD SWAP1 POP SWAP3 SWAP2 POP POP JUMP JUMPDEST PUSH1 0x0 DUP2 SWAP1 POP SWAP3 SWAP2 POP POP JUMP JUMPDEST PUSH1 0x0 PUSH2 0x804 DUP3 PUSH2 0x885 JUMP JUMPDEST SWAP2 POP PUSH2 0x80F DUP4 PUSH2 0x885 JUMP JUMPDEST SWAP3 POP DUP2 PUSH32 0xFFFFFFFFFFFFFFFFFFFFFFFFFFFFFFFFFFFFFFFFFFFFFFFFFFFFFFFFFFFFFFFF DIV DUP4 GT DUP3 ISZERO ISZERO AND ISZERO PUSH2 0x848 JUMPI PUSH2 0x847 PUSH2 0x993 JUMP JUMPDEST JUMPDEST DUP3 DUP3 MUL SWAP1 POP SWAP3 SWAP2 POP POP JUMP JUMPDEST PUSH1 0x0 PUSH2 0x85E DUP3 PUSH2 0x865 JUMP JUMPDEST SWAP1 POP SWAP2 SWAP1 POP JUMP JUMPDEST PUSH1 0x0 PUSH20 0xFFFFFFFFFFFFFFFFFFFFFFFFFFFFFFFFFFFFFFFF DUP3 AND SWAP1 POP SWAP2 SWAP1 POP JUMP JUMPDEST PUSH1 0x0 DUP2 SWAP1 POP SWAP2 SWAP1 POP JUMP JUMPDEST DUP3 DUP2 DUP4 CALLDATACOPY PUSH1 0x0 DUP4 DUP4 ADD MSTORE POP POP POP JUMP JUMPDEST PUSH1 0x0 JUMPDEST DUP4 DUP2 LT ISZERO PUSH2 0x8BC JUMPI DUP1 DUP3 ADD MLOAD DUP2 DUP5 ADD MSTORE PUSH1 0x20 DUP2 ADD SWAP1 POP PUSH2 0x8A1 JUMP JUMPDEST DUP4 DUP2 GT ISZERO PUSH2 0x8CB JUMPI PUSH1 0x0 DUP5 DUP5 ADD MSTORE JUMPDEST POP POP POP POP JUMP JUMPDEST PUSH1 0x0 PUSH1 0x2 DUP3 DIV SWAP1 POP PUSH1 0x1 DUP3 AND DUP1 PUSH2 0x8E9 JUMPI PUSH1 0x7F DUP3 AND SWAP2 POP JUMPDEST PUSH1 0x20 DUP3 LT DUP2 EQ ISZERO PUSH2 0x8FD JUMPI PUSH2 0x8FC PUSH2 0x9F1 JUMP JUMPDEST JUMPDEST POP SWAP2 SWAP1 POP JUMP JUMPDEST PUSH2 0x90C DUP3 PUSH2 0xA63 JUMP JUMPDEST DUP2 ADD DUP2 DUP2 LT PUSH8 0xFFFFFFFFFFFFFFFF DUP3 GT OR ISZERO PUSH2 0x92B JUMPI PUSH2 0x92A PUSH2 0xA20 JUMP JUMPDEST JUMPDEST DUP1 PUSH1 0x40 MSTORE POP POP POP JUMP JUMPDEST PUSH1 0x0 PUSH2 0x93F DUP3 PUSH2 0x946 JUMP JUMPDEST SWAP1 POP SWAP2 SWAP1 POP JUMP JUMPDEST PUSH1 0x0 PUSH2 0x951 DUP3 PUSH2 0xA74 JUMP JUMPDEST SWAP1 POP SWAP2 SWAP1 POP JUMP JUMPDEST PUSH1 0x0 DUP2 SWAP1 POP SWAP2 SWAP1 POP JUMP JUMPDEST PUSH1 0x0 PUSH2 0x96D DUP3 PUSH2 0x885 JUMP JUMPDEST SWAP2 POP PUSH2 0x978 DUP4 PUSH2 0x885 JUMP JUMPDEST SWAP3 POP DUP3 PUSH2 0x988 JUMPI PUSH2 0x987 PUSH2 0x9C2 JUMP JUMPDEST JUMPDEST DUP3 DUP3 MOD SWAP1 POP SWAP3 SWAP2 POP POP JUMP JUMPDEST PUSH32 0x4E487B7100000000000000000000000000000000000000000000000000000000 PUSH1 0x0 MSTORE PUSH1 0x11 PUSH1 0x4 MSTORE PUSH1 0x24 PUSH1 0x0 REVERT JUMPDEST PUSH32 0x4E487B7100000000000000000000000000000000000000000000000000000000 PUSH1 0x0 MSTORE PUSH1 0x12 PUSH1 0x4 MSTORE PUSH1 0x24 PUSH1 0x0 REVERT JUMPDEST PUSH32 0x4E487B7100000000000000000000000000000000000000000000000000000000 PUSH1 0x0 MSTORE PUSH1 0x22 PUSH1 0x4 MSTORE PUSH1 0x24 PUSH1 0x0 REVERT JUMPDEST PUSH32 0x4E487B7100000000000000000000000000000000000000000000000000000000 PUSH1 0x0 MSTORE PUSH1 0x41 PUSH1 0x4 MSTORE PUSH1 0x24 PUSH1 0x0 REVERT JUMPDEST PUSH1 0x0 DUP1 REVERT JUMPDEST PUSH1 0x0 DUP1 REVERT JUMPDEST PUSH1 0x0 DUP1 REVERT JUMPDEST PUSH1 0x0 DUP1 REVERT JUMPDEST PUSH1 0x0 PUSH1 0x1F NOT PUSH1 0x1F DUP4 ADD AND SWAP1 POP SWAP2 SWAP1 POP JUMP JUMPDEST PUSH1 0x0 DUP2 PUSH1 0x60 SHL SWAP1 POP SWAP2 SWAP1 POP JUMP JUMPDEST PUSH2 0xA8A DUP2 PUSH2 0x853 JUMP JUMPDEST DUP2 EQ PUSH2 0xA95 JUMPI PUSH1 0x0 DUP1 REVERT JUMPDEST POP JUMP JUMPDEST PUSH2 0xAA1 DUP2 PUSH2 0x885 JUMP JUMPDEST DUP2 EQ PUSH2 0xAAC JUMPI PUSH1 0x0 DUP1 REVERT JUMPDEST POP JUMP INVALID LOG2 PUSH5 0x6970667358 0x22 SLT KECCAK256 0xCF 0xB6 0x1F 0xAA 0xF6 SWAP4 0x1F PUSH20 0xEA767BBB5F28D0B991A8BF7DB5E39D479DEA00D8 NOT 0xD0 0xEB 0xD PUSH5 0x736F6C6343 STOP ADDMOD SMOD STOP CALLER "
				},
				"gasEstimates": {
					"creation": {
						"codeDepositCost": "557800",
						"executionCost": "infinite",
						"totalCost": "infinite"
					},
					"external": {
						"houses(uint256)": "infinite",
						"listHouse(uint256,uint256,address,string)": "infinite",
						"listHouseSimple(uint256,uint256,string)": "infinite"
					}
				},
				"methodIdentifiers": {
					"houses(uint256)": "aeda852f",
					"listHouse(uint256,uint256,address,string)": "91bfe0d4",
					"listHouseSimple(uint256,uint256,string)": "be40a73e"
				}
			},
			"storageLayout": {
				"storage": [
					{
						"astId": 4,
						"contract": "contract/HouseRegistryExt.sol:HouseRegistryExt",
						"label": "digits",
						"offset": 0,
						"slot": "0",
						"type": "t_uint256"
					},
					{
						"astId": 9,
						"contract": "contract/HouseRegistryExt.sol:HouseRegistryExt",
						"label": "modulus",
						"offset": 0,
						"slot": "1",
						"type": "t_uint256"
					},
					{
						"astId": 35,
						"contract": "contract/HouseRegistryExt.sol:HouseRegistryExt",
						"label": "houses",
						"offset": 0,
						"slot": "2",
						"type": "t_mapping(t_uint256,t_struct(House)20_storage)"
					}
				],
				"types": {
					"t_address": {
						"encoding": "inplace",
						"label": "address",
						"numberOfBytes": "20"
					},
					"t_mapping(t_uint256,t_struct(House)20_storage)": {
						"encoding": "mapping",
						"key": "t_uint256",
						"label": "mapping(uint256 => struct HouseRegistry.House)",
						"numberOfBytes": "32",
						"value": "t_struct(House)20_storage"
					},
					"t_string_storage": {
						"encoding": "bytes",
						"label": "string",
						"numberOfBytes": "32"
					},
					"t_struct(House)20_storage": {
						"encoding": "inplace",
						"label": "struct HouseRegistry.House",
						"members": [
							{
								"astId": 11,
								"contract": "contract/HouseRegistryExt.sol:HouseRegistryExt",
								"label": "id",
								"offset": 0,
								"slot": "0",
								"type": "t_uint256"
							},
							{
								"astId": 13,
								"contract": "contract/HouseRegistryExt.sol:HouseRegistryExt",
								"label": "price",
								"offset": 0,
								"slot": "1",
								"type": "t_uint256"
							},
							{
								"astId": 15,
								"contract": "contract/HouseRegistryExt.sol:HouseRegistryExt",
								"label": "area",
								"offset": 0,
								"slot": "2",
								"type": "t_uint256"
							},
							{
								"astId": 17,
								"contract": "contract/HouseRegistryExt.sol:HouseRegistryExt",
								"label": "sellerAddress",
								"offset": 0,
								"slot": "3",
								"type": "t_address"
							},
							{
								"astId": 19,
								"contract": "contract/HouseRegistryExt.sol:HouseRegistryExt",
								"label": "houseAddress",
								"offset": 0,
								"slot": "4",
								"type": "t_string_storage"
							}
						],
						"numberOfBytes": "160"
					},
					"t_uint256": {
						"encoding": "inplace",
						"label": "uint256",
						"numberOfBytes": "32"
					}
				}
			},
			"userdoc": {
				"kind": "user",
				"methods": {},
				"version": 1
			}
		}
	}
}