{
	"contract/HouseRegistry.sol": {
		"HouseRegistry": {
			"abi": [
				{
					"anonymous": false,
					"inputs": [
						{
							"indexed": false,
							"internalType": "uint256",
							"name": "houseId",
							"type": "uint256"
						},
						{
							"indexed": false,
							"internalType": "address",
							"name": "_sellerAddress",
							"type": "address"
						},
						{
							"indexed": false,
							"internalType": "uint256",
							"name": "price",
							"type": "uint256"
						},
						{
							"indexed": false,
							"internalType": "string",
							"name": "houseAddress",
							"type": "string"
						}
					],
					"name": "AddNewHouse",
					"type": "event"
				},
				{
					"anonymous": false,
					"inputs": [
						{
							"indexed": true,
							"internalType": "address",
							"name": "previousOwner",
							"type": "address"
						},
						{
							"indexed": true,
							"internalType": "address",
							"name": "newOwner",
							"type": "address"
						}
					],
					"name": "OwnershipTransferred",
					"type": "event"
				},
				{
					"inputs": [
						{
							"internalType": "uint256",
							"name": "houseId",
							"type": "uint256"
						}
					],
					"name": "delistHouse",
					"outputs": [
						{
							"internalType": "string",
							"name": "",
							"type": "string"
						}
					],
					"stateMutability": "nonpayable",
					"type": "function"
				},
				{
					"inputs": [
						{
							"internalType": "uint256",
							"name": "",
							"type": "uint256"
						}
					],
					"name": "filterHouses",
					"outputs": [
						{
							"internalType": "uint256",
							"name": "",
							"type": "uint256"
						}
					],
					"stateMutability": "view",
					"type": "function"
				},
				{
					"inputs": [
						{
							"internalType": "uint256",
							"name": "",
							"type": "uint256"
						}
					],
					"name": "houses",
					"outputs": [
						{
							"internalType": "uint256",
							"name": "id",
							"type": "uint256"
						},
						{
							"internalType": "uint256",
							"name": "serialNumber",
							"type": "uint256"
						},
						{
							"internalType": "uint256",
							"name": "price",
							"type": "uint256"
						},
						{
							"internalType": "uint256",
							"name": "area",
							"type": "uint256"
						},
						{
							"internalType": "address",
							"name": "sellerAddress",
							"type": "address"
						},
						{
							"internalType": "string",
							"name": "houseAddress",
							"type": "string"
						},
						{
							"internalType": "bool",
							"name": "isdelistedHouse",
							"type": "bool"
						}
					],
					"stateMutability": "view",
					"type": "function"
				},
				{
					"inputs": [
						{
							"internalType": "uint256",
							"name": "_price",
							"type": "uint256"
						},
						{
							"internalType": "uint256",
							"name": "_area",
							"type": "uint256"
						},
						{
							"internalType": "address",
							"name": "_sellerAddress",
							"type": "address"
						},
						{
							"internalType": "string",
							"name": "_houseAddress",
							"type": "string"
						}
					],
					"name": "listHouse",
					"outputs": [
						{
							"internalType": "uint256",
							"name": "",
							"type": "uint256"
						}
					],
					"stateMutability": "nonpayable",
					"type": "function"
				},
				{
					"inputs": [],
					"name": "owner",
					"outputs": [
						{
							"internalType": "address",
							"name": "",
							"type": "address"
						}
					],
					"stateMutability": "view",
					"type": "function"
				},
				{
					"inputs": [],
					"name": "renounceOwnership",
					"outputs": [],
					"stateMutability": "nonpayable",
					"type": "function"
				},
				{
					"inputs": [
						{
							"internalType": "address",
							"name": "newOwner",
							"type": "address"
						}
					],
					"name": "transferOwnership",
					"outputs": [],
					"stateMutability": "nonpayable",
					"type": "function"
				}
			],
			"devdoc": {
				"kind": "dev",
				"methods": {
					"owner()": {
						"details": "Returns the address of the current owner."
					},
					"renounceOwnership()": {
						"details": "Leaves the contract without owner. It will not be possible to call `onlyOwner` functions anymore. Can only be called by the current owner. NOTE: Renouncing ownership will leave the contract without an owner, thereby removing any functionality that is only available to the owner."
					},
					"transferOwnership(address)": {
						"details": "Transfers ownership of the contract to a new account (`newOwner`). Can only be called by the current owner."
					}
				},
				"version": 1
			},
			"evm": {
				"assembly": "    /* \"contract/HouseRegistry.sol\":87:1794  contract HouseRegistry is Ownable {... */\n  mstore(0x40, 0x80)\n    /* \"contract/HouseRegistry.sol\":142:143  5 */\n  0x05\n    /* \"contract/HouseRegistry.sol\":128:143  uint digits = 5 */\n  0x02\n  sstore\n    /* \"contract/HouseRegistry.sol\":170:176  digits */\n  sload(0x02)\n    /* \"contract/HouseRegistry.sol\":164:166  10 */\n  0x0a\n    /* \"contract/HouseRegistry.sol\":164:176  10 ** digits */\n  tag_1\n  swap2\n  swap1\n  tag_2\n  jump\t// in\ntag_1:\n    /* \"contract/HouseRegistry.sol\":149:176  uint modulus = 10 ** digits */\n  0x03\n  sstore\n    /* \"contract/HouseRegistry.sol\":202:211  1 seconds */\n  0x01\n    /* \"contract/HouseRegistry.sol\":182:211  uint cooldownTime = 1 seconds */\n  0x04\n  sstore\n    /* \"contract/HouseRegistry.sol\":238:239  1 */\n  0x01\n    /* \"contract/HouseRegistry.sol\":217:239  uint countOfHouses = 1 */\n  0x05\n  sstore\n    /* \"contract/HouseRegistry.sol\":87:1794  contract HouseRegistry is Ownable {... */\n  callvalue\n  dup1\n  iszero\n  tag_3\n  jumpi\n  0x00\n  dup1\n  revert\ntag_3:\n  pop\n    /* \"contract/Ownable.sol\":984:1016  _transferOwnership(_msgSender()) */\n  tag_6\n    /* \"contract/Ownable.sol\":1003:1015  _msgSender() */\n  tag_7\n    /* \"contract/Ownable.sol\":1003:1013  _msgSender */\n  shl(0x20, tag_8)\n    /* \"contract/Ownable.sol\":1003:1015  _msgSender() */\n  0x20\n  shr\n  jump\t// in\ntag_7:\n    /* \"contract/Ownable.sol\":984:1002  _transferOwnership */\n  shl(0x20, tag_9)\n    /* \"contract/Ownable.sol\":984:1016  _transferOwnership(_msgSender()) */\n  0x20\n  shr\n  jump\t// in\ntag_6:\n    /* \"contract/HouseRegistry.sol\":87:1794  contract HouseRegistry is Ownable {... */\n  jump(tag_10)\n    /* \"contract/utils/Context.sol\":656:754  function _msgSender() internal view virtual returns (address) {\r... */\ntag_8:\n    /* \"contract/utils/Context.sol\":709:716  address */\n  0x00\n    /* \"contract/utils/Context.sol\":736:746  msg.sender */\n  caller\n    /* \"contract/utils/Context.sol\":729:746  return msg.sender */\n  swap1\n  pop\n    /* \"contract/utils/Context.sol\":656:754  function _msgSender() internal view virtual returns (address) {\r... */\n  swap1\n  jump\t// out\n    /* \"contract/Ownable.sol\":2520:2711  function _transferOwnership(address newOwner) internal virtual {\r... */\ntag_9:\n    /* \"contract/Ownable.sol\":2594:2610  address oldOwner */\n  0x00\n    /* \"contract/Ownable.sol\":2613:2619  _owner */\n  dup1\n  0x00\n  swap1\n  sload\n  swap1\n  0x0100\n  exp\n  swap1\n  div\n  0xffffffffffffffffffffffffffffffffffffffff\n  and\n    /* \"contract/Ownable.sol\":2594:2619  address oldOwner = _owner */\n  swap1\n  pop\n    /* \"contract/Ownable.sol\":2639:2647  newOwner */\n  dup2\n    /* \"contract/Ownable.sol\":2630:2636  _owner */\n  0x00\n  dup1\n    /* \"contract/Ownable.sol\":2630:2647  _owner = newOwner */\n  0x0100\n  exp\n  dup2\n  sload\n  dup2\n  0xffffffffffffffffffffffffffffffffffffffff\n  mul\n  not\n  and\n  swap1\n  dup4\n  0xffffffffffffffffffffffffffffffffffffffff\n  and\n  mul\n  or\n  swap1\n  sstore\n  pop\n    /* \"contract/Ownable.sol\":2694:2702  newOwner */\n  dup2\n    /* \"contract/Ownable.sol\":2663:2703  OwnershipTransferred(oldOwner, newOwner) */\n  0xffffffffffffffffffffffffffffffffffffffff\n  and\n    /* \"contract/Ownable.sol\":2684:2692  oldOwner */\n  dup2\n    /* \"contract/Ownable.sol\":2663:2703  OwnershipTransferred(oldOwner, newOwner) */\n  0xffffffffffffffffffffffffffffffffffffffff\n  and\n  0x8be0079c531659141344cd1fd0a4f28419497f9722a3daafe3b4186f6b6457e0\n  mload(0x40)\n  mload(0x40)\n  dup1\n  swap2\n  sub\n  swap1\n  log3\n    /* \"contract/Ownable.sol\":2583:2711  {\r... */\n  pop\n    /* \"contract/Ownable.sol\":2520:2711  function _transferOwnership(address newOwner) internal virtual {\r... */\n  pop\n  jump\t// out\n    /* \"#utility.yul\":7:855   */\ntag_14:\n    /* \"#utility.yul\":68:73   */\n  0x00\n    /* \"#utility.yul\":75:79   */\n  dup1\n    /* \"#utility.yul\":99:105   */\n  dup3\n    /* \"#utility.yul\":90:105   */\n  swap2\n  pop\n    /* \"#utility.yul\":123:128   */\n  dup4\n    /* \"#utility.yul\":114:128   */\n  swap1\n  pop\n    /* \"#utility.yul\":137:849   */\ntag_16:\n    /* \"#utility.yul\":158:159   */\n  0x01\n    /* \"#utility.yul\":148:156   */\n  dup6\n    /* \"#utility.yul\":145:160   */\n  gt\n    /* \"#utility.yul\":137:849   */\n  iszero\n  tag_18\n  jumpi\n    /* \"#utility.yul\":253:257   */\n  dup1\n    /* \"#utility.yul\":248:251   */\n  dup7\n    /* \"#utility.yul\":244:258   */\n  div\n    /* \"#utility.yul\":238:242   */\n  dup2\n    /* \"#utility.yul\":235:259   */\n  gt\n    /* \"#utility.yul\":232:282   */\n  iszero\n  tag_19\n  jumpi\n    /* \"#utility.yul\":262:280   */\n  tag_20\n  tag_21\n  jump\t// in\ntag_20:\n    /* \"#utility.yul\":232:282   */\ntag_19:\n    /* \"#utility.yul\":312:313   */\n  0x01\n    /* \"#utility.yul\":302:310   */\n  dup6\n    /* \"#utility.yul\":298:314   */\n  and\n    /* \"#utility.yul\":295:746   */\n  iszero\n  tag_22\n  jumpi\n    /* \"#utility.yul\":727:731   */\n  dup1\n    /* \"#utility.yul\":720:725   */\n  dup3\n    /* \"#utility.yul\":716:732   */\n  mul\n    /* \"#utility.yul\":707:732   */\n  swap2\n  pop\n    /* \"#utility.yul\":295:746   */\ntag_22:\n    /* \"#utility.yul\":777:781   */\n  dup1\n    /* \"#utility.yul\":771:775   */\n  dup2\n    /* \"#utility.yul\":767:782   */\n  mul\n    /* \"#utility.yul\":759:782   */\n  swap1\n  pop\n    /* \"#utility.yul\":807:839   */\n  tag_23\n    /* \"#utility.yul\":830:838   */\n  dup6\n    /* \"#utility.yul\":807:839   */\n  tag_24\n  jump\t// in\ntag_23:\n    /* \"#utility.yul\":795:839   */\n  swap5\n  pop\n    /* \"#utility.yul\":137:849   */\n  jump(tag_16)\ntag_18:\n    /* \"#utility.yul\":7:855   */\n  swap5\n  pop\n  swap5\n  swap3\n  pop\n  pop\n  pop\n  jump\t// out\n    /* \"#utility.yul\":861:1146   */\ntag_2:\n    /* \"#utility.yul\":921:926   */\n  0x00\n    /* \"#utility.yul\":945:968   */\n  tag_26\n    /* \"#utility.yul\":963:967   */\n  dup3\n    /* \"#utility.yul\":945:968   */\n  tag_27\n  jump\t// in\ntag_26:\n    /* \"#utility.yul\":937:968   */\n  swap2\n  pop\n    /* \"#utility.yul\":989:1016   */\n  tag_28\n    /* \"#utility.yul\":1007:1015   */\n  dup4\n    /* \"#utility.yul\":989:1016   */\n  tag_27\n  jump\t// in\ntag_28:\n    /* \"#utility.yul\":977:1016   */\n  swap3\n  pop\n    /* \"#utility.yul\":1035:1139   */\n  tag_29\n    /* \"#utility.yul\":1072:1138   */\n  0xffffffffffffffffffffffffffffffffffffffffffffffffffffffffffffffff\n    /* \"#utility.yul\":1062:1070   */\n  dup5\n    /* \"#utility.yul\":1056:1060   */\n  dup5\n    /* \"#utility.yul\":1035:1139   */\n  tag_30\n  jump\t// in\ntag_29:\n    /* \"#utility.yul\":1026:1139   */\n  swap1\n  pop\n    /* \"#utility.yul\":861:1146   */\n  swap3\n  swap2\n  pop\n  pop\n  jump\t// out\n    /* \"#utility.yul\":1152:2225   */\ntag_30:\n    /* \"#utility.yul\":1206:1211   */\n  0x00\n    /* \"#utility.yul\":1397:1405   */\n  dup3\n    /* \"#utility.yul\":1387:1427   */\n  tag_32\n  jumpi\n    /* \"#utility.yul\":1418:1419   */\n  0x01\n    /* \"#utility.yul\":1409:1419   */\n  swap1\n  pop\n    /* \"#utility.yul\":1420:1425   */\n  jump(tag_31)\n    /* \"#utility.yul\":1387:1427   */\ntag_32:\n    /* \"#utility.yul\":1446:1450   */\n  dup2\n    /* \"#utility.yul\":1436:1472   */\n  tag_33\n  jumpi\n    /* \"#utility.yul\":1463:1464   */\n  0x00\n    /* \"#utility.yul\":1454:1464   */\n  swap1\n  pop\n    /* \"#utility.yul\":1465:1470   */\n  jump(tag_31)\n    /* \"#utility.yul\":1436:1472   */\ntag_33:\n    /* \"#utility.yul\":1532:1536   */\n  dup2\n    /* \"#utility.yul\":1580:1581   */\n  0x01\n    /* \"#utility.yul\":1575:1602   */\n  dup2\n  eq\n  tag_35\n  jumpi\n    /* \"#utility.yul\":1616:1617   */\n  0x02\n    /* \"#utility.yul\":1611:1802   */\n  dup2\n  eq\n  tag_36\n  jumpi\n    /* \"#utility.yul\":1525:1802   */\n  jump(tag_34)\n    /* \"#utility.yul\":1575:1602   */\ntag_35:\n    /* \"#utility.yul\":1593:1594   */\n  0x01\n    /* \"#utility.yul\":1584:1594   */\n  swap2\n  pop\n    /* \"#utility.yul\":1595:1600   */\n  pop\n  jump(tag_31)\n    /* \"#utility.yul\":1611:1802   */\ntag_36:\n    /* \"#utility.yul\":1656:1659   */\n  0xff\n    /* \"#utility.yul\":1646:1654   */\n  dup5\n    /* \"#utility.yul\":1643:1660   */\n  gt\n    /* \"#utility.yul\":1640:1683   */\n  iszero\n  tag_37\n  jumpi\n    /* \"#utility.yul\":1663:1681   */\n  tag_38\n  tag_21\n  jump\t// in\ntag_38:\n    /* \"#utility.yul\":1640:1683   */\ntag_37:\n    /* \"#utility.yul\":1712:1720   */\n  dup4\n    /* \"#utility.yul\":1709:1710   */\n  0x02\n    /* \"#utility.yul\":1705:1721   */\n  exp\n    /* \"#utility.yul\":1696:1721   */\n  swap2\n  pop\n    /* \"#utility.yul\":1747:1750   */\n  dup5\n    /* \"#utility.yul\":1740:1745   */\n  dup3\n    /* \"#utility.yul\":1737:1751   */\n  gt\n    /* \"#utility.yul\":1734:1774   */\n  iszero\n  tag_39\n  jumpi\n    /* \"#utility.yul\":1754:1772   */\n  tag_40\n  tag_21\n  jump\t// in\ntag_40:\n    /* \"#utility.yul\":1734:1774   */\ntag_39:\n    /* \"#utility.yul\":1787:1792   */\n  pop\n  jump(tag_31)\n    /* \"#utility.yul\":1525:1802   */\ntag_34:\n  pop\n    /* \"#utility.yul\":1911:1913   */\n  0x20\n    /* \"#utility.yul\":1901:1909   */\n  dup4\n    /* \"#utility.yul\":1898:1914   */\n  lt\n    /* \"#utility.yul\":1892:1895   */\n  0x0133\n    /* \"#utility.yul\":1886:1890   */\n  dup4\n    /* \"#utility.yul\":1883:1896   */\n  lt\n    /* \"#utility.yul\":1879:1915   */\n  and\n    /* \"#utility.yul\":1861:1863   */\n  0x4e\n    /* \"#utility.yul\":1851:1859   */\n  dup5\n    /* \"#utility.yul\":1848:1864   */\n  lt\n    /* \"#utility.yul\":1843:1845   */\n  0x0b\n    /* \"#utility.yul\":1837:1841   */\n  dup5\n    /* \"#utility.yul\":1834:1846   */\n  lt\n    /* \"#utility.yul\":1830:1865   */\n  and\n    /* \"#utility.yul\":1814:1925   */\n  or\n    /* \"#utility.yul\":1811:2057   */\n  iszero\n  tag_41\n  jumpi\n    /* \"#utility.yul\":1967:1975   */\n  dup3\n    /* \"#utility.yul\":1961:1965   */\n  dup3\n    /* \"#utility.yul\":1957:1976   */\n  exp\n    /* \"#utility.yul\":1948:1976   */\n  swap1\n  pop\n    /* \"#utility.yul\":2002:2005   */\n  dup4\n    /* \"#utility.yul\":1995:2000   */\n  dup2\n    /* \"#utility.yul\":1992:2006   */\n  gt\n    /* \"#utility.yul\":1989:2029   */\n  iszero\n  tag_42\n  jumpi\n    /* \"#utility.yul\":2009:2027   */\n  tag_43\n  tag_21\n  jump\t// in\ntag_43:\n    /* \"#utility.yul\":1989:2029   */\ntag_42:\n    /* \"#utility.yul\":2042:2047   */\n  jump(tag_31)\n    /* \"#utility.yul\":1811:2057   */\ntag_41:\n    /* \"#utility.yul\":2082:2124   */\n  tag_44\n    /* \"#utility.yul\":2120:2123   */\n  dup5\n    /* \"#utility.yul\":2110:2118   */\n  dup5\n    /* \"#utility.yul\":2104:2108   */\n  dup5\n    /* \"#utility.yul\":2101:2102   */\n  0x01\n    /* \"#utility.yul\":2082:2124   */\n  tag_14\n  jump\t// in\ntag_44:\n    /* \"#utility.yul\":2067:2124   */\n  swap3\n  pop\n  swap1\n  pop\n    /* \"#utility.yul\":2156:2160   */\n  dup2\n    /* \"#utility.yul\":2151:2154   */\n  dup5\n    /* \"#utility.yul\":2147:2161   */\n  div\n    /* \"#utility.yul\":2140:2145   */\n  dup2\n    /* \"#utility.yul\":2137:2162   */\n  gt\n    /* \"#utility.yul\":2134:2185   */\n  iszero\n  tag_45\n  jumpi\n    /* \"#utility.yul\":2165:2183   */\n  tag_46\n  tag_21\n  jump\t// in\ntag_46:\n    /* \"#utility.yul\":2134:2185   */\ntag_45:\n    /* \"#utility.yul\":2214:2218   */\n  dup2\n    /* \"#utility.yul\":2207:2212   */\n  dup2\n    /* \"#utility.yul\":2203:2219   */\n  mul\n    /* \"#utility.yul\":2194:2219   */\n  swap1\n  pop\n    /* \"#utility.yul\":1152:2225   */\ntag_31:\n  swap4\n  swap3\n  pop\n  pop\n  pop\n  jump\t// out\n    /* \"#utility.yul\":2231:2308   */\ntag_27:\n    /* \"#utility.yul\":2268:2275   */\n  0x00\n    /* \"#utility.yul\":2297:2302   */\n  dup2\n    /* \"#utility.yul\":2286:2302   */\n  swap1\n  pop\n    /* \"#utility.yul\":2231:2308   */\n  swap2\n  swap1\n  pop\n  jump\t// out\n    /* \"#utility.yul\":2314:2494   */\ntag_21:\n    /* \"#utility.yul\":2362:2439   */\n  0x4e487b7100000000000000000000000000000000000000000000000000000000\n    /* \"#utility.yul\":2359:2360   */\n  0x00\n    /* \"#utility.yul\":2352:2440   */\n  mstore\n    /* \"#utility.yul\":2459:2463   */\n  0x11\n    /* \"#utility.yul\":2456:2457   */\n  0x04\n    /* \"#utility.yul\":2449:2464   */\n  mstore\n    /* \"#utility.yul\":2483:2487   */\n  0x24\n    /* \"#utility.yul\":2480:2481   */\n  0x00\n    /* \"#utility.yul\":2473:2488   */\n  revert\n    /* \"#utility.yul\":2500:2602   */\ntag_24:\n    /* \"#utility.yul\":2542:2550   */\n  0x00\n    /* \"#utility.yul\":2589:2594   */\n  dup2\n    /* \"#utility.yul\":2586:2587   */\n  0x01\n    /* \"#utility.yul\":2582:2595   */\n  shr\n    /* \"#utility.yul\":2561:2595   */\n  swap1\n  pop\n    /* \"#utility.yul\":2500:2602   */\n  swap2\n  swap1\n  pop\n  jump\t// out\n    /* \"contract/HouseRegistry.sol\":87:1794  contract HouseRegistry is Ownable {... */\ntag_10:\n  dataSize(sub_0)\n  dup1\n  dataOffset(sub_0)\n  0x00\n  codecopy\n  0x00\n  return\nstop\n\nsub_0: assembly {\n        /* \"contract/HouseRegistry.sol\":87:1794  contract HouseRegistry is Ownable {... */\n      mstore(0x40, 0x80)\n      callvalue\n      dup1\n      iszero\n      tag_1\n      jumpi\n      0x00\n      dup1\n      revert\n    tag_1:\n      pop\n      jumpi(tag_2, lt(calldatasize, 0x04))\n      shr(0xe0, calldataload(0x00))\n      dup1\n      0x91bfe0d4\n      gt\n      tag_10\n      jumpi\n      dup1\n      0x91bfe0d4\n      eq\n      tag_6\n      jumpi\n      dup1\n      0xaeda852f\n      eq\n      tag_7\n      jumpi\n      dup1\n      0xf1f08d4d\n      eq\n      tag_8\n      jumpi\n      dup1\n      0xf2fde38b\n      eq\n      tag_9\n      jumpi\n      jump(tag_2)\n    tag_10:\n      dup1\n      0x3c3b0b4a\n      eq\n      tag_3\n      jumpi\n      dup1\n      0x715018a6\n      eq\n      tag_4\n      jumpi\n      dup1\n      0x8da5cb5b\n      eq\n      tag_5\n      jumpi\n    tag_2:\n      0x00\n      dup1\n      revert\n        /* \"contract/HouseRegistry.sol\":1260:1529  function delistHouse(uint houseId) public returns (string memory){... */\n    tag_3:\n      tag_11\n      0x04\n      dup1\n      calldatasize\n      sub\n      dup2\n      add\n      swap1\n      tag_12\n      swap2\n      swap1\n      tag_13\n      jump\t// in\n    tag_12:\n      tag_14\n      jump\t// in\n    tag_11:\n      mload(0x40)\n      tag_15\n      swap2\n      swap1\n      tag_16\n      jump\t// in\n    tag_15:\n      mload(0x40)\n      dup1\n      swap2\n      sub\n      swap1\n      return\n        /* \"contract/Ownable.sol\":1901:2004  function renounceOwnership() public virtual onlyOwner {\r... */\n    tag_4:\n      tag_17\n      tag_18\n      jump\t// in\n    tag_17:\n      stop\n        /* \"contract/Ownable.sol\":1105:1192  function owner() public view virtual returns (address) {\r... */\n    tag_5:\n      tag_19\n      tag_20\n      jump\t// in\n    tag_19:\n      mload(0x40)\n      tag_21\n      swap2\n      swap1\n      tag_22\n      jump\t// in\n    tag_21:\n      mload(0x40)\n      dup1\n      swap2\n      sub\n      swap1\n      return\n        /* \"contract/HouseRegistry.sol\":615:1250  function listHouse (uint _price, uint _area, address _sellerAddress, string memory _houseAddress) public returns (uint) {... */\n    tag_6:\n      tag_23\n      0x04\n      dup1\n      calldatasize\n      sub\n      dup2\n      add\n      swap1\n      tag_24\n      swap2\n      swap1\n      tag_25\n      jump\t// in\n    tag_24:\n      tag_26\n      jump\t// in\n    tag_23:\n      mload(0x40)\n      tag_27\n      swap2\n      swap1\n      tag_28\n      jump\t// in\n    tag_27:\n      mload(0x40)\n      dup1\n      swap2\n      sub\n      swap1\n      return\n        /* \"contract/HouseRegistry.sol\":572:608  mapping(uint => House) public houses */\n    tag_7:\n      tag_29\n      0x04\n      dup1\n      calldatasize\n      sub\n      dup2\n      add\n      swap1\n      tag_30\n      swap2\n      swap1\n      tag_13\n      jump\t// in\n    tag_30:\n      tag_31\n      jump\t// in\n    tag_29:\n      mload(0x40)\n      tag_32\n      swap8\n      swap7\n      swap6\n      swap5\n      swap4\n      swap3\n      swap2\n      swap1\n      tag_33\n      jump\t// in\n    tag_32:\n      mload(0x40)\n      dup1\n      swap2\n      sub\n      swap1\n      return\n        /* \"contract/HouseRegistry.sol\":539:565  uint[] public filterHouses */\n    tag_8:\n      tag_34\n      0x04\n      dup1\n      calldatasize\n      sub\n      dup2\n      add\n      swap1\n      tag_35\n      swap2\n      swap1\n      tag_13\n      jump\t// in\n    tag_35:\n      tag_36\n      jump\t// in\n    tag_34:\n      mload(0x40)\n      tag_37\n      swap2\n      swap1\n      tag_28\n      jump\t// in\n    tag_37:\n      mload(0x40)\n      dup1\n      swap2\n      sub\n      swap1\n      return\n        /* \"contract/Ownable.sol\":2159:2360  function transferOwnership(address newOwner) public virtual onlyOwner {\r... */\n    tag_9:\n      tag_38\n      0x04\n      dup1\n      calldatasize\n      sub\n      dup2\n      add\n      swap1\n      tag_39\n      swap2\n      swap1\n      tag_40\n      jump\t// in\n    tag_39:\n      tag_41\n      jump\t// in\n    tag_38:\n      stop\n        /* \"contract/HouseRegistry.sol\":1260:1529  function delistHouse(uint houseId) public returns (string memory){... */\n    tag_14:\n        /* \"contract/HouseRegistry.sol\":1311:1324  string memory */\n      0x60\n        /* \"contract/HouseRegistry.sol\":1376:1386  msg.sender */\n      caller\n        /* \"contract/HouseRegistry.sol\":1343:1386  houses[houseId].sellerAddress == msg.sender */\n      0xffffffffffffffffffffffffffffffffffffffff\n      and\n        /* \"contract/HouseRegistry.sol\":1343:1349  houses */\n      0x07\n        /* \"contract/HouseRegistry.sol\":1343:1358  houses[houseId] */\n      0x00\n        /* \"contract/HouseRegistry.sol\":1350:1357  houseId */\n      dup5\n        /* \"contract/HouseRegistry.sol\":1343:1358  houses[houseId] */\n      dup2\n      mstore\n      0x20\n      add\n      swap1\n      dup2\n      mstore\n      0x20\n      add\n      0x00\n      keccak256\n        /* \"contract/HouseRegistry.sol\":1343:1372  houses[houseId].sellerAddress */\n      0x04\n      add\n      0x00\n      swap1\n      sload\n      swap1\n      0x0100\n      exp\n      swap1\n      div\n      0xffffffffffffffffffffffffffffffffffffffff\n      and\n        /* \"contract/HouseRegistry.sol\":1343:1386  houses[houseId].sellerAddress == msg.sender */\n      0xffffffffffffffffffffffffffffffffffffffff\n      and\n      eq\n        /* \"contract/HouseRegistry.sol\":1335:1434  require(houses[houseId].sellerAddress == msg.sender, \"You do not have access to delete this house\") */\n      tag_43\n      jumpi\n      mload(0x40)\n      0x08c379a000000000000000000000000000000000000000000000000000000000\n      dup2\n      mstore\n      0x04\n      add\n      tag_44\n      swap1\n      tag_45\n      jump\t// in\n    tag_44:\n      mload(0x40)\n      dup1\n      swap2\n      sub\n      swap1\n      revert\n    tag_43:\n        /* \"contract/HouseRegistry.sol\":1478:1482  true */\n      0x01\n        /* \"contract/HouseRegistry.sol\":1444:1450  houses */\n      0x07\n        /* \"contract/HouseRegistry.sol\":1444:1459  houses[houseId] */\n      0x00\n        /* \"contract/HouseRegistry.sol\":1451:1458  houseId */\n      dup5\n        /* \"contract/HouseRegistry.sol\":1444:1459  houses[houseId] */\n      dup2\n      mstore\n      0x20\n      add\n      swap1\n      dup2\n      mstore\n      0x20\n      add\n      0x00\n      keccak256\n        /* \"contract/HouseRegistry.sol\":1444:1475  houses[houseId].isdelistedHouse */\n      0x06\n      add\n      0x00\n        /* \"contract/HouseRegistry.sol\":1444:1482  houses[houseId].isdelistedHouse = true */\n      0x0100\n      exp\n      dup2\n      sload\n      dup2\n      0xff\n      mul\n      not\n      and\n      swap1\n      dup4\n      iszero\n      iszero\n      mul\n      or\n      swap1\n      sstore\n      pop\n        /* \"contract/HouseRegistry.sol\":1492:1522  return \"delist was successful\" */\n      mload(0x40)\n      dup1\n      0x40\n      add\n      0x40\n      mstore\n      dup1\n      0x15\n      dup2\n      mstore\n      0x20\n      add\n      0x64656c69737420776173207375636365737366756c0000000000000000000000\n      dup2\n      mstore\n      pop\n      swap1\n      pop\n        /* \"contract/HouseRegistry.sol\":1260:1529  function delistHouse(uint houseId) public returns (string memory){... */\n      swap2\n      swap1\n      pop\n      jump\t// out\n        /* \"contract/Ownable.sol\":1901:2004  function renounceOwnership() public virtual onlyOwner {\r... */\n    tag_18:\n        /* \"contract/Ownable.sol\":1336:1348  _msgSender() */\n      tag_47\n        /* \"contract/Ownable.sol\":1336:1346  _msgSender */\n      tag_48\n        /* \"contract/Ownable.sol\":1336:1348  _msgSender() */\n      jump\t// in\n    tag_47:\n        /* \"contract/Ownable.sol\":1325:1348  owner() == _msgSender() */\n      0xffffffffffffffffffffffffffffffffffffffff\n      and\n        /* \"contract/Ownable.sol\":1325:1332  owner() */\n      tag_49\n        /* \"contract/Ownable.sol\":1325:1330  owner */\n      tag_20\n        /* \"contract/Ownable.sol\":1325:1332  owner() */\n      jump\t// in\n    tag_49:\n        /* \"contract/Ownable.sol\":1325:1348  owner() == _msgSender() */\n      0xffffffffffffffffffffffffffffffffffffffff\n      and\n      eq\n        /* \"contract/Ownable.sol\":1317:1385  require(owner() == _msgSender(), \"Ownable: caller is not the owner\") */\n      tag_50\n      jumpi\n      mload(0x40)\n      0x08c379a000000000000000000000000000000000000000000000000000000000\n      dup2\n      mstore\n      0x04\n      add\n      tag_51\n      swap1\n      tag_52\n      jump\t// in\n    tag_51:\n      mload(0x40)\n      dup1\n      swap2\n      sub\n      swap1\n      revert\n    tag_50:\n        /* \"contract/Ownable.sol\":1966:1996  _transferOwnership(address(0)) */\n      tag_54\n        /* \"contract/Ownable.sol\":1993:1994  0 */\n      0x00\n        /* \"contract/Ownable.sol\":1966:1984  _transferOwnership */\n      tag_55\n        /* \"contract/Ownable.sol\":1966:1996  _transferOwnership(address(0)) */\n      jump\t// in\n    tag_54:\n        /* \"contract/Ownable.sol\":1901:2004  function renounceOwnership() public virtual onlyOwner {\r... */\n      jump\t// out\n        /* \"contract/Ownable.sol\":1105:1192  function owner() public view virtual returns (address) {\r... */\n    tag_20:\n        /* \"contract/Ownable.sol\":1151:1158  address */\n      0x00\n        /* \"contract/Ownable.sol\":1178:1184  _owner */\n      dup1\n      0x00\n      swap1\n      sload\n      swap1\n      0x0100\n      exp\n      swap1\n      div\n      0xffffffffffffffffffffffffffffffffffffffff\n      and\n        /* \"contract/Ownable.sol\":1171:1184  return _owner */\n      swap1\n      pop\n        /* \"contract/Ownable.sol\":1105:1192  function owner() public view virtual returns (address) {\r... */\n      swap1\n      jump\t// out\n        /* \"contract/HouseRegistry.sol\":615:1250  function listHouse (uint _price, uint _area, address _sellerAddress, string memory _houseAddress) public returns (uint) {... */\n    tag_26:\n        /* \"contract/HouseRegistry.sol\":729:733  uint */\n      0x00\n        /* \"contract/HouseRegistry.sol\":770:771  0 */\n      dup1\n        /* \"contract/HouseRegistry.sol\":762:767  _area */\n      dup5\n        /* \"contract/HouseRegistry.sol\":753:759  _price */\n      dup7\n        /* \"contract/HouseRegistry.sol\":753:767  _price * _area */\n      tag_58\n      swap2\n      swap1\n      tag_59\n      jump\t// in\n    tag_58:\n        /* \"contract/HouseRegistry.sol\":753:771  _price * _area > 0 */\n      gt\n        /* \"contract/HouseRegistry.sol\":745:796  require(_price * _area > 0, \"value cannot be null\") */\n      tag_60\n      jumpi\n      mload(0x40)\n      0x08c379a000000000000000000000000000000000000000000000000000000000\n      dup2\n      mstore\n      0x04\n      add\n      tag_61\n      swap1\n      tag_62\n      jump\t// in\n    tag_61:\n      mload(0x40)\n      dup1\n      swap2\n      sub\n      swap1\n      revert\n    tag_60:\n        /* \"contract/HouseRegistry.sol\":806:818  uint houseId */\n      0x00\n        /* \"contract/HouseRegistry.sol\":821:875  _generateHouseId(_sellerAddress, _area, _houseAddress) */\n      tag_63\n        /* \"contract/HouseRegistry.sol\":838:852  _sellerAddress */\n      dup5\n        /* \"contract/HouseRegistry.sol\":854:859  _area */\n      dup7\n        /* \"contract/HouseRegistry.sol\":861:874  _houseAddress */\n      dup6\n        /* \"contract/HouseRegistry.sol\":821:837  _generateHouseId */\n      tag_64\n        /* \"contract/HouseRegistry.sol\":821:875  _generateHouseId(_sellerAddress, _area, _houseAddress) */\n      jump\t// in\n    tag_63:\n        /* \"contract/HouseRegistry.sol\":806:875  uint houseId = _generateHouseId(_sellerAddress, _area, _houseAddress) */\n      swap1\n      pop\n        /* \"contract/HouseRegistry.sol\":904:910  houses */\n      0x07\n        /* \"contract/HouseRegistry.sol\":904:919  houses[houseId] */\n      0x00\n        /* \"contract/HouseRegistry.sol\":911:918  houseId */\n      dup3\n        /* \"contract/HouseRegistry.sol\":904:919  houses[houseId] */\n      dup2\n      mstore\n      0x20\n      add\n      swap1\n      dup2\n      mstore\n      0x20\n      add\n      0x00\n      keccak256\n        /* \"contract/HouseRegistry.sol\":904:922  houses[houseId].id */\n      0x00\n      add\n      sload\n        /* \"contract/HouseRegistry.sol\":893:900  houseId */\n      dup2\n        /* \"contract/HouseRegistry.sol\":893:922  houseId != houses[houseId].id */\n      eq\n      iszero\n        /* \"contract/HouseRegistry.sol\":885:954  require(houseId != houses[houseId].id, \"this houseId already exists\") */\n      tag_65\n      jumpi\n      mload(0x40)\n      0x08c379a000000000000000000000000000000000000000000000000000000000\n      dup2\n      mstore\n      0x04\n      add\n      tag_66\n      swap1\n      tag_67\n      jump\t// in\n    tag_66:\n      mload(0x40)\n      dup1\n      swap2\n      sub\n      swap1\n      revert\n    tag_65:\n        /* \"contract/HouseRegistry.sol\":982:1064  House(houseId, countOfHouses, _price, _area, _sellerAddress, _houseAddress, false) */\n      mload(0x40)\n      dup1\n      0xe0\n      add\n      0x40\n      mstore\n      dup1\n        /* \"contract/HouseRegistry.sol\":988:995  houseId */\n      dup3\n        /* \"contract/HouseRegistry.sol\":982:1064  House(houseId, countOfHouses, _price, _area, _sellerAddress, _houseAddress, false) */\n      dup2\n      mstore\n      0x20\n      add\n        /* \"contract/HouseRegistry.sol\":997:1010  countOfHouses */\n      sload(0x05)\n        /* \"contract/HouseRegistry.sol\":982:1064  House(houseId, countOfHouses, _price, _area, _sellerAddress, _houseAddress, false) */\n      dup2\n      mstore\n      0x20\n      add\n        /* \"contract/HouseRegistry.sol\":1012:1018  _price */\n      dup8\n        /* \"contract/HouseRegistry.sol\":982:1064  House(houseId, countOfHouses, _price, _area, _sellerAddress, _houseAddress, false) */\n      dup2\n      mstore\n      0x20\n      add\n        /* \"contract/HouseRegistry.sol\":1020:1025  _area */\n      dup7\n        /* \"contract/HouseRegistry.sol\":982:1064  House(houseId, countOfHouses, _price, _area, _sellerAddress, _houseAddress, false) */\n      dup2\n      mstore\n      0x20\n      add\n        /* \"contract/HouseRegistry.sol\":1027:1041  _sellerAddress */\n      dup6\n        /* \"contract/HouseRegistry.sol\":982:1064  House(houseId, countOfHouses, _price, _area, _sellerAddress, _houseAddress, false) */\n      0xffffffffffffffffffffffffffffffffffffffff\n      and\n      dup2\n      mstore\n      0x20\n      add\n        /* \"contract/HouseRegistry.sol\":1043:1056  _houseAddress */\n      dup5\n        /* \"contract/HouseRegistry.sol\":982:1064  House(houseId, countOfHouses, _price, _area, _sellerAddress, _houseAddress, false) */\n      dup2\n      mstore\n      0x20\n      add\n        /* \"contract/HouseRegistry.sol\":1058:1063  false */\n      0x00\n        /* \"contract/HouseRegistry.sol\":982:1064  House(houseId, countOfHouses, _price, _area, _sellerAddress, _houseAddress, false) */\n      iszero\n      iszero\n      dup2\n      mstore\n      pop\n        /* \"contract/HouseRegistry.sol\":964:970  houses */\n      0x07\n        /* \"contract/HouseRegistry.sol\":964:979  houses[houseId] */\n      0x00\n        /* \"contract/HouseRegistry.sol\":971:978  houseId */\n      dup4\n        /* \"contract/HouseRegistry.sol\":964:979  houses[houseId] */\n      dup2\n      mstore\n      0x20\n      add\n      swap1\n      dup2\n      mstore\n      0x20\n      add\n      0x00\n      keccak256\n        /* \"contract/HouseRegistry.sol\":964:1064  houses[houseId] = House(houseId, countOfHouses, _price, _area, _sellerAddress, _houseAddress, false) */\n      0x00\n      dup3\n      add\n      mload\n      dup2\n      0x00\n      add\n      sstore\n      0x20\n      dup3\n      add\n      mload\n      dup2\n      0x01\n      add\n      sstore\n      0x40\n      dup3\n      add\n      mload\n      dup2\n      0x02\n      add\n      sstore\n      0x60\n      dup3\n      add\n      mload\n      dup2\n      0x03\n      add\n      sstore\n      0x80\n      dup3\n      add\n      mload\n      dup2\n      0x04\n      add\n      exp(0x0100, 0x00)\n      dup2\n      sload\n      dup2\n      0xffffffffffffffffffffffffffffffffffffffff\n      mul\n      not\n      and\n      swap1\n      dup4\n      0xffffffffffffffffffffffffffffffffffffffff\n      and\n      mul\n      or\n      swap1\n      sstore\n      pop\n      0xa0\n      dup3\n      add\n      mload\n      dup2\n      0x05\n      add\n      swap1\n      dup1\n      mload\n      swap1\n      0x20\n      add\n      swap1\n      tag_68\n      swap3\n      swap2\n      swap1\n      tag_69\n      jump\t// in\n    tag_68:\n      pop\n      0xc0\n      dup3\n      add\n      mload\n      dup2\n      0x06\n      add\n      exp(0x0100, 0x00)\n      dup2\n      sload\n      dup2\n      0xff\n      mul\n      not\n      and\n      swap1\n      dup4\n      iszero\n      iszero\n      mul\n      or\n      swap1\n      sstore\n      pop\n      swap1\n      pop\n      pop\n        /* \"contract/HouseRegistry.sol\":1074:1120  _ownerCooldown(block.timestamp + cooldownTime) */\n      tag_70\n        /* \"contract/HouseRegistry.sol\":1107:1119  cooldownTime */\n      sload(0x04)\n        /* \"contract/HouseRegistry.sol\":1089:1104  block.timestamp */\n      timestamp\n        /* \"contract/HouseRegistry.sol\":1089:1119  block.timestamp + cooldownTime */\n      tag_71\n      swap2\n      swap1\n      tag_72\n      jump\t// in\n    tag_71:\n        /* \"contract/HouseRegistry.sol\":1074:1088  _ownerCooldown */\n      tag_73\n        /* \"contract/HouseRegistry.sol\":1074:1120  _ownerCooldown(block.timestamp + cooldownTime) */\n      jump\t// in\n    tag_70:\n        /* \"contract/HouseRegistry.sol\":1130:1143  countOfHouses */\n      0x05\n      0x00\n        /* \"contract/HouseRegistry.sol\":1130:1145  countOfHouses++ */\n      dup2\n      sload\n      dup1\n      swap3\n      swap2\n      swap1\n      tag_74\n      swap1\n      tag_75\n      jump\t// in\n    tag_74:\n      swap2\n      swap1\n      pop\n      sstore\n      pop\n        /* \"contract/HouseRegistry.sol\":1160:1219  AddNewHouse(houseId, _sellerAddress, _price, _houseAddress) */\n      0x8f5afd88eb4be0ac287d87970052ce9a2b453448408e3c91a695ad7509ab7194\n        /* \"contract/HouseRegistry.sol\":1172:1179  houseId */\n      dup2\n        /* \"contract/HouseRegistry.sol\":1181:1195  _sellerAddress */\n      dup6\n        /* \"contract/HouseRegistry.sol\":1197:1203  _price */\n      dup9\n        /* \"contract/HouseRegistry.sol\":1205:1218  _houseAddress */\n      dup7\n        /* \"contract/HouseRegistry.sol\":1160:1219  AddNewHouse(houseId, _sellerAddress, _price, _houseAddress) */\n      mload(0x40)\n      tag_76\n      swap5\n      swap4\n      swap3\n      swap2\n      swap1\n      tag_77\n      jump\t// in\n    tag_76:\n      mload(0x40)\n      dup1\n      swap2\n      sub\n      swap1\n      log1\n        /* \"contract/HouseRegistry.sol\":1236:1243  houseId */\n      dup1\n        /* \"contract/HouseRegistry.sol\":1229:1243  return houseId */\n      swap2\n      pop\n      pop\n        /* \"contract/HouseRegistry.sol\":615:1250  function listHouse (uint _price, uint _area, address _sellerAddress, string memory _houseAddress) public returns (uint) {... */\n      swap5\n      swap4\n      pop\n      pop\n      pop\n      pop\n      jump\t// out\n        /* \"contract/HouseRegistry.sol\":572:608  mapping(uint => House) public houses */\n    tag_31:\n      mstore(0x20, 0x07)\n      dup1\n      0x00\n      mstore\n      keccak256(0x00, 0x40)\n      0x00\n      swap2\n      pop\n      swap1\n      pop\n      dup1\n      0x00\n      add\n      sload\n      swap1\n      dup1\n      0x01\n      add\n      sload\n      swap1\n      dup1\n      0x02\n      add\n      sload\n      swap1\n      dup1\n      0x03\n      add\n      sload\n      swap1\n      dup1\n      0x04\n      add\n      0x00\n      swap1\n      sload\n      swap1\n      0x0100\n      exp\n      swap1\n      div\n      0xffffffffffffffffffffffffffffffffffffffff\n      and\n      swap1\n      dup1\n      0x05\n      add\n      dup1\n      sload\n      tag_78\n      swap1\n      tag_79\n      jump\t// in\n    tag_78:\n      dup1\n      0x1f\n      add\n      0x20\n      dup1\n      swap2\n      div\n      mul\n      0x20\n      add\n      mload(0x40)\n      swap1\n      dup2\n      add\n      0x40\n      mstore\n      dup1\n      swap3\n      swap2\n      swap1\n      dup2\n      dup2\n      mstore\n      0x20\n      add\n      dup3\n      dup1\n      sload\n      tag_80\n      swap1\n      tag_79\n      jump\t// in\n    tag_80:\n      dup1\n      iszero\n      tag_81\n      jumpi\n      dup1\n      0x1f\n      lt\n      tag_82\n      jumpi\n      0x0100\n      dup1\n      dup4\n      sload\n      div\n      mul\n      dup4\n      mstore\n      swap2\n      0x20\n      add\n      swap2\n      jump(tag_81)\n    tag_82:\n      dup3\n      add\n      swap2\n      swap1\n      0x00\n      mstore\n      keccak256(0x00, 0x20)\n      swap1\n    tag_83:\n      dup2\n      sload\n      dup2\n      mstore\n      swap1\n      0x01\n      add\n      swap1\n      0x20\n      add\n      dup1\n      dup4\n      gt\n      tag_83\n      jumpi\n      dup3\n      swap1\n      sub\n      0x1f\n      and\n      dup3\n      add\n      swap2\n    tag_81:\n      pop\n      pop\n      pop\n      pop\n      pop\n      swap1\n      dup1\n      0x06\n      add\n      0x00\n      swap1\n      sload\n      swap1\n      0x0100\n      exp\n      swap1\n      div\n      0xff\n      and\n      swap1\n      pop\n      dup8\n      jump\t// out\n        /* \"contract/HouseRegistry.sol\":539:565  uint[] public filterHouses */\n    tag_36:\n      0x06\n      dup2\n      dup2\n      sload\n      dup2\n      lt\n      tag_84\n      jumpi\n      0x00\n      dup1\n      revert\n    tag_84:\n      swap1\n      0x00\n      mstore\n      keccak256(0x00, 0x20)\n      add\n      0x00\n      swap2\n      pop\n      swap1\n      pop\n      sload\n      dup2\n      jump\t// out\n        /* \"contract/Ownable.sol\":2159:2360  function transferOwnership(address newOwner) public virtual onlyOwner {\r... */\n    tag_41:\n        /* \"contract/Ownable.sol\":1336:1348  _msgSender() */\n      tag_87\n        /* \"contract/Ownable.sol\":1336:1346  _msgSender */\n      tag_48\n        /* \"contract/Ownable.sol\":1336:1348  _msgSender() */\n      jump\t// in\n    tag_87:\n        /* \"contract/Ownable.sol\":1325:1348  owner() == _msgSender() */\n      0xffffffffffffffffffffffffffffffffffffffff\n      and\n        /* \"contract/Ownable.sol\":1325:1332  owner() */\n      tag_88\n        /* \"contract/Ownable.sol\":1325:1330  owner */\n      tag_20\n        /* \"contract/Ownable.sol\":1325:1332  owner() */\n      jump\t// in\n    tag_88:\n        /* \"contract/Ownable.sol\":1325:1348  owner() == _msgSender() */\n      0xffffffffffffffffffffffffffffffffffffffff\n      and\n      eq\n        /* \"contract/Ownable.sol\":1317:1385  require(owner() == _msgSender(), \"Ownable: caller is not the owner\") */\n      tag_89\n      jumpi\n      mload(0x40)\n      0x08c379a000000000000000000000000000000000000000000000000000000000\n      dup2\n      mstore\n      0x04\n      add\n      tag_90\n      swap1\n      tag_52\n      jump\t// in\n    tag_90:\n      mload(0x40)\n      dup1\n      swap2\n      sub\n      swap1\n      revert\n    tag_89:\n        /* \"contract/Ownable.sol\":2268:2269  0 */\n      0x00\n        /* \"contract/Ownable.sol\":2248:2270  newOwner != address(0) */\n      0xffffffffffffffffffffffffffffffffffffffff\n      and\n        /* \"contract/Ownable.sol\":2248:2256  newOwner */\n      dup2\n        /* \"contract/Ownable.sol\":2248:2270  newOwner != address(0) */\n      0xffffffffffffffffffffffffffffffffffffffff\n      and\n      eq\n      iszero\n        /* \"contract/Ownable.sol\":2240:2313  require(newOwner != address(0), \"Ownable: new owner is the zero address\") */\n      tag_92\n      jumpi\n      mload(0x40)\n      0x08c379a000000000000000000000000000000000000000000000000000000000\n      dup2\n      mstore\n      0x04\n      add\n      tag_93\n      swap1\n      tag_94\n      jump\t// in\n    tag_93:\n      mload(0x40)\n      dup1\n      swap2\n      sub\n      swap1\n      revert\n    tag_92:\n        /* \"contract/Ownable.sol\":2324:2352  _transferOwnership(newOwner) */\n      tag_95\n        /* \"contract/Ownable.sol\":2343:2351  newOwner */\n      dup2\n        /* \"contract/Ownable.sol\":2324:2342  _transferOwnership */\n      tag_55\n        /* \"contract/Ownable.sol\":2324:2352  _transferOwnership(newOwner) */\n      jump\t// in\n    tag_95:\n        /* \"contract/Ownable.sol\":2159:2360  function transferOwnership(address newOwner) public virtual onlyOwner {\r... */\n      pop\n      jump\t// out\n        /* \"contract/utils/Context.sol\":656:754  function _msgSender() internal view virtual returns (address) {\r... */\n    tag_48:\n        /* \"contract/utils/Context.sol\":709:716  address */\n      0x00\n        /* \"contract/utils/Context.sol\":736:746  msg.sender */\n      caller\n        /* \"contract/utils/Context.sol\":729:746  return msg.sender */\n      swap1\n      pop\n        /* \"contract/utils/Context.sol\":656:754  function _msgSender() internal view virtual returns (address) {\r... */\n      swap1\n      jump\t// out\n        /* \"contract/Ownable.sol\":2520:2711  function _transferOwnership(address newOwner) internal virtual {\r... */\n    tag_55:\n        /* \"contract/Ownable.sol\":2594:2610  address oldOwner */\n      0x00\n        /* \"contract/Ownable.sol\":2613:2619  _owner */\n      dup1\n      0x00\n      swap1\n      sload\n      swap1\n      0x0100\n      exp\n      swap1\n      div\n      0xffffffffffffffffffffffffffffffffffffffff\n      and\n        /* \"contract/Ownable.sol\":2594:2619  address oldOwner = _owner */\n      swap1\n      pop\n        /* \"contract/Ownable.sol\":2639:2647  newOwner */\n      dup2\n        /* \"contract/Ownable.sol\":2630:2636  _owner */\n      0x00\n      dup1\n        /* \"contract/Ownable.sol\":2630:2647  _owner = newOwner */\n      0x0100\n      exp\n      dup2\n      sload\n      dup2\n      0xffffffffffffffffffffffffffffffffffffffff\n      mul\n      not\n      and\n      swap1\n      dup4\n      0xffffffffffffffffffffffffffffffffffffffff\n      and\n      mul\n      or\n      swap1\n      sstore\n      pop\n        /* \"contract/Ownable.sol\":2694:2702  newOwner */\n      dup2\n        /* \"contract/Ownable.sol\":2663:2703  OwnershipTransferred(oldOwner, newOwner) */\n      0xffffffffffffffffffffffffffffffffffffffff\n      and\n        /* \"contract/Ownable.sol\":2684:2692  oldOwner */\n      dup2\n        /* \"contract/Ownable.sol\":2663:2703  OwnershipTransferred(oldOwner, newOwner) */\n      0xffffffffffffffffffffffffffffffffffffffff\n      and\n      0x8be0079c531659141344cd1fd0a4f28419497f9722a3daafe3b4186f6b6457e0\n      mload(0x40)\n      mload(0x40)\n      dup1\n      swap2\n      sub\n      swap1\n      log3\n        /* \"contract/Ownable.sol\":2583:2711  {\r... */\n      pop\n        /* \"contract/Ownable.sol\":2520:2711  function _transferOwnership(address newOwner) internal virtual {\r... */\n      pop\n      jump\t// out\n        /* \"contract/HouseRegistry.sol\":1535:1789  function _generateHouseId(address _sellerAddress, uint _area, string memory _houseAddress) private view returns(uint){... */\n    tag_64:\n        /* \"contract/HouseRegistry.sol\":1647:1651  uint */\n      0x00\n        /* \"contract/HouseRegistry.sol\":1662:1674  uint houseId */\n      dup1\n        /* \"contract/HouseRegistry.sol\":1709:1723  _sellerAddress */\n      dup5\n        /* \"contract/HouseRegistry.sol\":1725:1730  _area */\n      dup5\n        /* \"contract/HouseRegistry.sol\":1732:1745  _houseAddress */\n      dup5\n        /* \"contract/HouseRegistry.sol\":1692:1746  abi.encodePacked(_sellerAddress, _area, _houseAddress) */\n      add(0x20, mload(0x40))\n      tag_99\n      swap4\n      swap3\n      swap2\n      swap1\n      tag_100\n      jump\t// in\n    tag_99:\n      mload(0x40)\n      0x20\n      dup2\n      dup4\n      sub\n      sub\n      dup2\n      mstore\n      swap1\n      0x40\n      mstore\n        /* \"contract/HouseRegistry.sol\":1682:1747  keccak256(abi.encodePacked(_sellerAddress, _area, _houseAddress)) */\n      dup1\n      mload\n      swap1\n      0x20\n      add\n      keccak256\n        /* \"contract/HouseRegistry.sol\":1677:1748  uint(keccak256(abi.encodePacked(_sellerAddress, _area, _houseAddress))) */\n      0x00\n      shr\n        /* \"contract/HouseRegistry.sol\":1662:1748  uint houseId = uint(keccak256(abi.encodePacked(_sellerAddress, _area, _houseAddress))) */\n      swap1\n      pop\n        /* \"contract/HouseRegistry.sol\":1775:1782  modulus */\n      sload(0x03)\n        /* \"contract/HouseRegistry.sol\":1765:1772  houseId */\n      dup2\n        /* \"contract/HouseRegistry.sol\":1765:1782  houseId % modulus */\n      tag_101\n      swap2\n      swap1\n      tag_102\n      jump\t// in\n    tag_101:\n        /* \"contract/HouseRegistry.sol\":1758:1782  return houseId % modulus */\n      swap2\n      pop\n      pop\n        /* \"contract/HouseRegistry.sol\":1535:1789  function _generateHouseId(address _sellerAddress, uint _area, string memory _houseAddress) private view returns(uint){... */\n      swap4\n      swap3\n      pop\n      pop\n      pop\n      jump\t// out\n        /* \"contract/Ownable.sol\":2719:2813  function _ownerCooldown(uint _newTime) internal {\r... */\n    tag_73:\n        /* \"contract/Ownable.sol\":2797:2805  _newTime */\n      dup1\n        /* \"contract/Ownable.sol\":2778:2794  ownerAddCooldown */\n      0x01\n        /* \"contract/Ownable.sol\":2778:2805  ownerAddCooldown = _newTime */\n      dup2\n      swap1\n      sstore\n      pop\n        /* \"contract/Ownable.sol\":2719:2813  function _ownerCooldown(uint _newTime) internal {\r... */\n      pop\n      jump\t// out\n    tag_69:\n      dup3\n      dup1\n      sload\n      tag_104\n      swap1\n      tag_79\n      jump\t// in\n    tag_104:\n      swap1\n      0x00\n      mstore\n      keccak256(0x00, 0x20)\n      swap1\n      0x1f\n      add\n      0x20\n      swap1\n      div\n      dup2\n      add\n      swap3\n      dup3\n      tag_106\n      jumpi\n      0x00\n      dup6\n      sstore\n      jump(tag_105)\n    tag_106:\n      dup3\n      0x1f\n      lt\n      tag_107\n      jumpi\n      dup1\n      mload\n      not(0xff)\n      and\n      dup4\n      dup1\n      add\n      or\n      dup6\n      sstore\n      jump(tag_105)\n    tag_107:\n      dup3\n      dup1\n      add\n      0x01\n      add\n      dup6\n      sstore\n      dup3\n      iszero\n      tag_105\n      jumpi\n      swap2\n      dup3\n      add\n    tag_108:\n      dup3\n      dup2\n      gt\n      iszero\n      tag_109\n      jumpi\n      dup3\n      mload\n      dup3\n      sstore\n      swap2\n      0x20\n      add\n      swap2\n      swap1\n      0x01\n      add\n      swap1\n      jump(tag_108)\n    tag_109:\n    tag_105:\n      pop\n      swap1\n      pop\n      tag_110\n      swap2\n      swap1\n      tag_111\n      jump\t// in\n    tag_110:\n      pop\n      swap1\n      jump\t// out\n    tag_111:\n    tag_112:\n      dup1\n      dup3\n      gt\n      iszero\n      tag_113\n      jumpi\n      0x00\n      dup2\n      0x00\n      swap1\n      sstore\n      pop\n      0x01\n      add\n      jump(tag_112)\n    tag_113:\n      pop\n      swap1\n      jump\t// out\n        /* \"#utility.yul\":7:419   */\n    tag_115:\n        /* \"#utility.yul\":85:90   */\n      0x00\n        /* \"#utility.yul\":110:176   */\n      tag_117\n        /* \"#utility.yul\":126:175   */\n      tag_118\n        /* \"#utility.yul\":168:174   */\n      dup5\n        /* \"#utility.yul\":126:175   */\n      tag_119\n      jump\t// in\n    tag_118:\n        /* \"#utility.yul\":110:176   */\n      tag_120\n      jump\t// in\n    tag_117:\n        /* \"#utility.yul\":101:176   */\n      swap1\n      pop\n        /* \"#utility.yul\":199:205   */\n      dup3\n        /* \"#utility.yul\":192:197   */\n      dup2\n        /* \"#utility.yul\":185:206   */\n      mstore\n        /* \"#utility.yul\":237:241   */\n      0x20\n        /* \"#utility.yul\":230:235   */\n      dup2\n        /* \"#utility.yul\":226:242   */\n      add\n        /* \"#utility.yul\":275:278   */\n      dup5\n        /* \"#utility.yul\":266:272   */\n      dup5\n        /* \"#utility.yul\":261:264   */\n      dup5\n        /* \"#utility.yul\":257:273   */\n      add\n        /* \"#utility.yul\":254:279   */\n      gt\n        /* \"#utility.yul\":251:363   */\n      iszero\n      tag_121\n      jumpi\n        /* \"#utility.yul\":282:361   */\n      tag_122\n      tag_123\n      jump\t// in\n    tag_122:\n        /* \"#utility.yul\":251:363   */\n    tag_121:\n        /* \"#utility.yul\":372:413   */\n      tag_124\n        /* \"#utility.yul\":406:412   */\n      dup5\n        /* \"#utility.yul\":401:404   */\n      dup3\n        /* \"#utility.yul\":396:399   */\n      dup6\n        /* \"#utility.yul\":372:413   */\n      tag_125\n      jump\t// in\n    tag_124:\n        /* \"#utility.yul\":91:419   */\n      pop\n        /* \"#utility.yul\":7:419   */\n      swap4\n      swap3\n      pop\n      pop\n      pop\n      jump\t// out\n        /* \"#utility.yul\":425:564   */\n    tag_126:\n        /* \"#utility.yul\":471:476   */\n      0x00\n        /* \"#utility.yul\":509:515   */\n      dup2\n        /* \"#utility.yul\":496:516   */\n      calldataload\n        /* \"#utility.yul\":487:516   */\n      swap1\n      pop\n        /* \"#utility.yul\":525:558   */\n      tag_128\n        /* \"#utility.yul\":552:557   */\n      dup2\n        /* \"#utility.yul\":525:558   */\n      tag_129\n      jump\t// in\n    tag_128:\n        /* \"#utility.yul\":425:564   */\n      swap3\n      swap2\n      pop\n      pop\n      jump\t// out\n        /* \"#utility.yul\":584:924   */\n    tag_130:\n        /* \"#utility.yul\":640:645   */\n      0x00\n        /* \"#utility.yul\":689:692   */\n      dup3\n        /* \"#utility.yul\":682:686   */\n      0x1f\n        /* \"#utility.yul\":674:680   */\n      dup4\n        /* \"#utility.yul\":670:687   */\n      add\n        /* \"#utility.yul\":666:693   */\n      slt\n        /* \"#utility.yul\":656:778   */\n      tag_132\n      jumpi\n        /* \"#utility.yul\":697:776   */\n      tag_133\n      tag_134\n      jump\t// in\n    tag_133:\n        /* \"#utility.yul\":656:778   */\n    tag_132:\n        /* \"#utility.yul\":814:820   */\n      dup2\n        /* \"#utility.yul\":801:821   */\n      calldataload\n        /* \"#utility.yul\":839:918   */\n      tag_135\n        /* \"#utility.yul\":914:917   */\n      dup5\n        /* \"#utility.yul\":906:912   */\n      dup3\n        /* \"#utility.yul\":899:903   */\n      0x20\n        /* \"#utility.yul\":891:897   */\n      dup7\n        /* \"#utility.yul\":887:904   */\n      add\n        /* \"#utility.yul\":839:918   */\n      tag_115\n      jump\t// in\n    tag_135:\n        /* \"#utility.yul\":830:918   */\n      swap2\n      pop\n        /* \"#utility.yul\":646:924   */\n      pop\n        /* \"#utility.yul\":584:924   */\n      swap3\n      swap2\n      pop\n      pop\n      jump\t// out\n        /* \"#utility.yul\":930:1069   */\n    tag_136:\n        /* \"#utility.yul\":976:981   */\n      0x00\n        /* \"#utility.yul\":1014:1020   */\n      dup2\n        /* \"#utility.yul\":1001:1021   */\n      calldataload\n        /* \"#utility.yul\":992:1021   */\n      swap1\n      pop\n        /* \"#utility.yul\":1030:1063   */\n      tag_138\n        /* \"#utility.yul\":1057:1062   */\n      dup2\n        /* \"#utility.yul\":1030:1063   */\n      tag_139\n      jump\t// in\n    tag_138:\n        /* \"#utility.yul\":930:1069   */\n      swap3\n      swap2\n      pop\n      pop\n      jump\t// out\n        /* \"#utility.yul\":1075:1404   */\n    tag_40:\n        /* \"#utility.yul\":1134:1140   */\n      0x00\n        /* \"#utility.yul\":1183:1185   */\n      0x20\n        /* \"#utility.yul\":1171:1180   */\n      dup3\n        /* \"#utility.yul\":1162:1169   */\n      dup5\n        /* \"#utility.yul\":1158:1181   */\n      sub\n        /* \"#utility.yul\":1154:1186   */\n      slt\n        /* \"#utility.yul\":1151:1270   */\n      iszero\n      tag_141\n      jumpi\n        /* \"#utility.yul\":1189:1268   */\n      tag_142\n      tag_143\n      jump\t// in\n    tag_142:\n        /* \"#utility.yul\":1151:1270   */\n    tag_141:\n        /* \"#utility.yul\":1309:1310   */\n      0x00\n        /* \"#utility.yul\":1334:1387   */\n      tag_144\n        /* \"#utility.yul\":1379:1386   */\n      dup5\n        /* \"#utility.yul\":1370:1376   */\n      dup3\n        /* \"#utility.yul\":1359:1368   */\n      dup6\n        /* \"#utility.yul\":1355:1377   */\n      add\n        /* \"#utility.yul\":1334:1387   */\n      tag_126\n      jump\t// in\n    tag_144:\n        /* \"#utility.yul\":1324:1387   */\n      swap2\n      pop\n        /* \"#utility.yul\":1280:1397   */\n      pop\n        /* \"#utility.yul\":1075:1404   */\n      swap3\n      swap2\n      pop\n      pop\n      jump\t// out\n        /* \"#utility.yul\":1410:1739   */\n    tag_13:\n        /* \"#utility.yul\":1469:1475   */\n      0x00\n        /* \"#utility.yul\":1518:1520   */\n      0x20\n        /* \"#utility.yul\":1506:1515   */\n      dup3\n        /* \"#utility.yul\":1497:1504   */\n      dup5\n        /* \"#utility.yul\":1493:1516   */\n      sub\n        /* \"#utility.yul\":1489:1521   */\n      slt\n        /* \"#utility.yul\":1486:1605   */\n      iszero\n      tag_146\n      jumpi\n        /* \"#utility.yul\":1524:1603   */\n      tag_147\n      tag_143\n      jump\t// in\n    tag_147:\n        /* \"#utility.yul\":1486:1605   */\n    tag_146:\n        /* \"#utility.yul\":1644:1645   */\n      0x00\n        /* \"#utility.yul\":1669:1722   */\n      tag_148\n        /* \"#utility.yul\":1714:1721   */\n      dup5\n        /* \"#utility.yul\":1705:1711   */\n      dup3\n        /* \"#utility.yul\":1694:1703   */\n      dup6\n        /* \"#utility.yul\":1690:1712   */\n      add\n        /* \"#utility.yul\":1669:1722   */\n      tag_136\n      jump\t// in\n    tag_148:\n        /* \"#utility.yul\":1659:1722   */\n      swap2\n      pop\n        /* \"#utility.yul\":1615:1732   */\n      pop\n        /* \"#utility.yul\":1410:1739   */\n      swap3\n      swap2\n      pop\n      pop\n      jump\t// out\n        /* \"#utility.yul\":1745:2690   */\n    tag_25:\n        /* \"#utility.yul\":1841:1847   */\n      0x00\n        /* \"#utility.yul\":1849:1855   */\n      dup1\n        /* \"#utility.yul\":1857:1863   */\n      0x00\n        /* \"#utility.yul\":1865:1871   */\n      dup1\n        /* \"#utility.yul\":1914:1917   */\n      0x80\n        /* \"#utility.yul\":1902:1911   */\n      dup6\n        /* \"#utility.yul\":1893:1900   */\n      dup8\n        /* \"#utility.yul\":1889:1912   */\n      sub\n        /* \"#utility.yul\":1885:1918   */\n      slt\n        /* \"#utility.yul\":1882:2002   */\n      iszero\n      tag_150\n      jumpi\n        /* \"#utility.yul\":1921:2000   */\n      tag_151\n      tag_143\n      jump\t// in\n    tag_151:\n        /* \"#utility.yul\":1882:2002   */\n    tag_150:\n        /* \"#utility.yul\":2041:2042   */\n      0x00\n        /* \"#utility.yul\":2066:2119   */\n      tag_152\n        /* \"#utility.yul\":2111:2118   */\n      dup8\n        /* \"#utility.yul\":2102:2108   */\n      dup3\n        /* \"#utility.yul\":2091:2100   */\n      dup9\n        /* \"#utility.yul\":2087:2109   */\n      add\n        /* \"#utility.yul\":2066:2119   */\n      tag_136\n      jump\t// in\n    tag_152:\n        /* \"#utility.yul\":2056:2119   */\n      swap5\n      pop\n        /* \"#utility.yul\":2012:2129   */\n      pop\n        /* \"#utility.yul\":2168:2170   */\n      0x20\n        /* \"#utility.yul\":2194:2247   */\n      tag_153\n        /* \"#utility.yul\":2239:2246   */\n      dup8\n        /* \"#utility.yul\":2230:2236   */\n      dup3\n        /* \"#utility.yul\":2219:2228   */\n      dup9\n        /* \"#utility.yul\":2215:2237   */\n      add\n        /* \"#utility.yul\":2194:2247   */\n      tag_136\n      jump\t// in\n    tag_153:\n        /* \"#utility.yul\":2184:2247   */\n      swap4\n      pop\n        /* \"#utility.yul\":2139:2257   */\n      pop\n        /* \"#utility.yul\":2296:2298   */\n      0x40\n        /* \"#utility.yul\":2322:2375   */\n      tag_154\n        /* \"#utility.yul\":2367:2374   */\n      dup8\n        /* \"#utility.yul\":2358:2364   */\n      dup3\n        /* \"#utility.yul\":2347:2356   */\n      dup9\n        /* \"#utility.yul\":2343:2365   */\n      add\n        /* \"#utility.yul\":2322:2375   */\n      tag_126\n      jump\t// in\n    tag_154:\n        /* \"#utility.yul\":2312:2375   */\n      swap3\n      pop\n        /* \"#utility.yul\":2267:2385   */\n      pop\n        /* \"#utility.yul\":2452:2454   */\n      0x60\n        /* \"#utility.yul\":2441:2450   */\n      dup6\n        /* \"#utility.yul\":2437:2455   */\n      add\n        /* \"#utility.yul\":2424:2456   */\n      calldataload\n        /* \"#utility.yul\":2483:2501   */\n      0xffffffffffffffff\n        /* \"#utility.yul\":2475:2481   */\n      dup2\n        /* \"#utility.yul\":2472:2502   */\n      gt\n        /* \"#utility.yul\":2469:2586   */\n      iszero\n      tag_155\n      jumpi\n        /* \"#utility.yul\":2505:2584   */\n      tag_156\n      tag_157\n      jump\t// in\n    tag_156:\n        /* \"#utility.yul\":2469:2586   */\n    tag_155:\n        /* \"#utility.yul\":2610:2673   */\n      tag_158\n        /* \"#utility.yul\":2665:2672   */\n      dup8\n        /* \"#utility.yul\":2656:2662   */\n      dup3\n        /* \"#utility.yul\":2645:2654   */\n      dup9\n        /* \"#utility.yul\":2641:2663   */\n      add\n        /* \"#utility.yul\":2610:2673   */\n      tag_130\n      jump\t// in\n    tag_158:\n        /* \"#utility.yul\":2600:2673   */\n      swap2\n      pop\n        /* \"#utility.yul\":2395:2683   */\n      pop\n        /* \"#utility.yul\":1745:2690   */\n      swap3\n      swap6\n      swap2\n      swap5\n      pop\n      swap3\n      pop\n      jump\t// out\n        /* \"#utility.yul\":2696:2814   */\n    tag_159:\n        /* \"#utility.yul\":2783:2807   */\n      tag_161\n        /* \"#utility.yul\":2801:2806   */\n      dup2\n        /* \"#utility.yul\":2783:2807   */\n      tag_162\n      jump\t// in\n    tag_161:\n        /* \"#utility.yul\":2778:2781   */\n      dup3\n        /* \"#utility.yul\":2771:2808   */\n      mstore\n        /* \"#utility.yul\":2696:2814   */\n      pop\n      pop\n      jump\t// out\n        /* \"#utility.yul\":2820:2977   */\n    tag_163:\n        /* \"#utility.yul\":2925:2970   */\n      tag_165\n        /* \"#utility.yul\":2945:2969   */\n      tag_166\n        /* \"#utility.yul\":2963:2968   */\n      dup3\n        /* \"#utility.yul\":2945:2969   */\n      tag_162\n      jump\t// in\n    tag_166:\n        /* \"#utility.yul\":2925:2970   */\n      tag_167\n      jump\t// in\n    tag_165:\n        /* \"#utility.yul\":2920:2923   */\n      dup3\n        /* \"#utility.yul\":2913:2971   */\n      mstore\n        /* \"#utility.yul\":2820:2977   */\n      pop\n      pop\n      jump\t// out\n        /* \"#utility.yul\":2983:3092   */\n    tag_168:\n        /* \"#utility.yul\":3064:3085   */\n      tag_170\n        /* \"#utility.yul\":3079:3084   */\n      dup2\n        /* \"#utility.yul\":3064:3085   */\n      tag_171\n      jump\t// in\n    tag_170:\n        /* \"#utility.yul\":3059:3062   */\n      dup3\n        /* \"#utility.yul\":3052:3086   */\n      mstore\n        /* \"#utility.yul\":2983:3092   */\n      pop\n      pop\n      jump\t// out\n        /* \"#utility.yul\":3098:3462   */\n    tag_172:\n        /* \"#utility.yul\":3186:3189   */\n      0x00\n        /* \"#utility.yul\":3214:3253   */\n      tag_174\n        /* \"#utility.yul\":3247:3252   */\n      dup3\n        /* \"#utility.yul\":3214:3253   */\n      tag_175\n      jump\t// in\n    tag_174:\n        /* \"#utility.yul\":3269:3340   */\n      tag_176\n        /* \"#utility.yul\":3333:3339   */\n      dup2\n        /* \"#utility.yul\":3328:3331   */\n      dup6\n        /* \"#utility.yul\":3269:3340   */\n      tag_177\n      jump\t// in\n    tag_176:\n        /* \"#utility.yul\":3262:3340   */\n      swap4\n      pop\n        /* \"#utility.yul\":3349:3401   */\n      tag_178\n        /* \"#utility.yul\":3394:3400   */\n      dup2\n        /* \"#utility.yul\":3389:3392   */\n      dup6\n        /* \"#utility.yul\":3382:3386   */\n      0x20\n        /* \"#utility.yul\":3375:3380   */\n      dup7\n        /* \"#utility.yul\":3371:3387   */\n      add\n        /* \"#utility.yul\":3349:3401   */\n      tag_179\n      jump\t// in\n    tag_178:\n        /* \"#utility.yul\":3426:3455   */\n      tag_180\n        /* \"#utility.yul\":3448:3454   */\n      dup2\n        /* \"#utility.yul\":3426:3455   */\n      tag_181\n      jump\t// in\n    tag_180:\n        /* \"#utility.yul\":3421:3424   */\n      dup5\n        /* \"#utility.yul\":3417:3456   */\n      add\n        /* \"#utility.yul\":3410:3456   */\n      swap2\n      pop\n        /* \"#utility.yul\":3190:3462   */\n      pop\n        /* \"#utility.yul\":3098:3462   */\n      swap3\n      swap2\n      pop\n      pop\n      jump\t// out\n        /* \"#utility.yul\":3468:3845   */\n    tag_182:\n        /* \"#utility.yul\":3574:3577   */\n      0x00\n        /* \"#utility.yul\":3602:3641   */\n      tag_184\n        /* \"#utility.yul\":3635:3640   */\n      dup3\n        /* \"#utility.yul\":3602:3641   */\n      tag_175\n      jump\t// in\n    tag_184:\n        /* \"#utility.yul\":3657:3746   */\n      tag_185\n        /* \"#utility.yul\":3739:3745   */\n      dup2\n        /* \"#utility.yul\":3734:3737   */\n      dup6\n        /* \"#utility.yul\":3657:3746   */\n      tag_186\n      jump\t// in\n    tag_185:\n        /* \"#utility.yul\":3650:3746   */\n      swap4\n      pop\n        /* \"#utility.yul\":3755:3807   */\n      tag_187\n        /* \"#utility.yul\":3800:3806   */\n      dup2\n        /* \"#utility.yul\":3795:3798   */\n      dup6\n        /* \"#utility.yul\":3788:3792   */\n      0x20\n        /* \"#utility.yul\":3781:3786   */\n      dup7\n        /* \"#utility.yul\":3777:3793   */\n      add\n        /* \"#utility.yul\":3755:3807   */\n      tag_179\n      jump\t// in\n    tag_187:\n        /* \"#utility.yul\":3832:3838   */\n      dup1\n        /* \"#utility.yul\":3827:3830   */\n      dup5\n        /* \"#utility.yul\":3823:3839   */\n      add\n        /* \"#utility.yul\":3816:3839   */\n      swap2\n      pop\n        /* \"#utility.yul\":3578:3845   */\n      pop\n        /* \"#utility.yul\":3468:3845   */\n      swap3\n      swap2\n      pop\n      pop\n      jump\t// out\n        /* \"#utility.yul\":3851:4217   */\n    tag_188:\n        /* \"#utility.yul\":3993:3996   */\n      0x00\n        /* \"#utility.yul\":4014:4081   */\n      tag_190\n        /* \"#utility.yul\":4078:4080   */\n      0x26\n        /* \"#utility.yul\":4073:4076   */\n      dup4\n        /* \"#utility.yul\":4014:4081   */\n      tag_177\n      jump\t// in\n    tag_190:\n        /* \"#utility.yul\":4007:4081   */\n      swap2\n      pop\n        /* \"#utility.yul\":4090:4183   */\n      tag_191\n        /* \"#utility.yul\":4179:4182   */\n      dup3\n        /* \"#utility.yul\":4090:4183   */\n      tag_192\n      jump\t// in\n    tag_191:\n        /* \"#utility.yul\":4208:4210   */\n      0x40\n        /* \"#utility.yul\":4203:4206   */\n      dup3\n        /* \"#utility.yul\":4199:4211   */\n      add\n        /* \"#utility.yul\":4192:4211   */\n      swap1\n      pop\n        /* \"#utility.yul\":3851:4217   */\n      swap2\n      swap1\n      pop\n      jump\t// out\n        /* \"#utility.yul\":4223:4589   */\n    tag_193:\n        /* \"#utility.yul\":4365:4368   */\n      0x00\n        /* \"#utility.yul\":4386:4453   */\n      tag_195\n        /* \"#utility.yul\":4450:4452   */\n      0x14\n        /* \"#utility.yul\":4445:4448   */\n      dup4\n        /* \"#utility.yul\":4386:4453   */\n      tag_177\n      jump\t// in\n    tag_195:\n        /* \"#utility.yul\":4379:4453   */\n      swap2\n      pop\n        /* \"#utility.yul\":4462:4555   */\n      tag_196\n        /* \"#utility.yul\":4551:4554   */\n      dup3\n        /* \"#utility.yul\":4462:4555   */\n      tag_197\n      jump\t// in\n    tag_196:\n        /* \"#utility.yul\":4580:4582   */\n      0x20\n        /* \"#utility.yul\":4575:4578   */\n      dup3\n        /* \"#utility.yul\":4571:4583   */\n      add\n        /* \"#utility.yul\":4564:4583   */\n      swap1\n      pop\n        /* \"#utility.yul\":4223:4589   */\n      swap2\n      swap1\n      pop\n      jump\t// out\n        /* \"#utility.yul\":4595:4961   */\n    tag_198:\n        /* \"#utility.yul\":4737:4740   */\n      0x00\n        /* \"#utility.yul\":4758:4825   */\n      tag_200\n        /* \"#utility.yul\":4822:4824   */\n      0x20\n        /* \"#utility.yul\":4817:4820   */\n      dup4\n        /* \"#utility.yul\":4758:4825   */\n      tag_177\n      jump\t// in\n    tag_200:\n        /* \"#utility.yul\":4751:4825   */\n      swap2\n      pop\n        /* \"#utility.yul\":4834:4927   */\n      tag_201\n        /* \"#utility.yul\":4923:4926   */\n      dup3\n        /* \"#utility.yul\":4834:4927   */\n      tag_202\n      jump\t// in\n    tag_201:\n        /* \"#utility.yul\":4952:4954   */\n      0x20\n        /* \"#utility.yul\":4947:4950   */\n      dup3\n        /* \"#utility.yul\":4943:4955   */\n      add\n        /* \"#utility.yul\":4936:4955   */\n      swap1\n      pop\n        /* \"#utility.yul\":4595:4961   */\n      swap2\n      swap1\n      pop\n      jump\t// out\n        /* \"#utility.yul\":4967:5333   */\n    tag_203:\n        /* \"#utility.yul\":5109:5112   */\n      0x00\n        /* \"#utility.yul\":5130:5197   */\n      tag_205\n        /* \"#utility.yul\":5194:5196   */\n      0x1b\n        /* \"#utility.yul\":5189:5192   */\n      dup4\n        /* \"#utility.yul\":5130:5197   */\n      tag_177\n      jump\t// in\n    tag_205:\n        /* \"#utility.yul\":5123:5197   */\n      swap2\n      pop\n        /* \"#utility.yul\":5206:5299   */\n      tag_206\n        /* \"#utility.yul\":5295:5298   */\n      dup3\n        /* \"#utility.yul\":5206:5299   */\n      tag_207\n      jump\t// in\n    tag_206:\n        /* \"#utility.yul\":5324:5326   */\n      0x20\n        /* \"#utility.yul\":5319:5322   */\n      dup3\n        /* \"#utility.yul\":5315:5327   */\n      add\n        /* \"#utility.yul\":5308:5327   */\n      swap1\n      pop\n        /* \"#utility.yul\":4967:5333   */\n      swap2\n      swap1\n      pop\n      jump\t// out\n        /* \"#utility.yul\":5339:5705   */\n    tag_208:\n        /* \"#utility.yul\":5481:5484   */\n      0x00\n        /* \"#utility.yul\":5502:5569   */\n      tag_210\n        /* \"#utility.yul\":5566:5568   */\n      0x2b\n        /* \"#utility.yul\":5561:5564   */\n      dup4\n        /* \"#utility.yul\":5502:5569   */\n      tag_177\n      jump\t// in\n    tag_210:\n        /* \"#utility.yul\":5495:5569   */\n      swap2\n      pop\n        /* \"#utility.yul\":5578:5671   */\n      tag_211\n        /* \"#utility.yul\":5667:5670   */\n      dup3\n        /* \"#utility.yul\":5578:5671   */\n      tag_212\n      jump\t// in\n    tag_211:\n        /* \"#utility.yul\":5696:5698   */\n      0x40\n        /* \"#utility.yul\":5691:5694   */\n      dup3\n        /* \"#utility.yul\":5687:5699   */\n      add\n        /* \"#utility.yul\":5680:5699   */\n      swap1\n      pop\n        /* \"#utility.yul\":5339:5705   */\n      swap2\n      swap1\n      pop\n      jump\t// out\n        /* \"#utility.yul\":5711:5829   */\n    tag_213:\n        /* \"#utility.yul\":5798:5822   */\n      tag_215\n        /* \"#utility.yul\":5816:5821   */\n      dup2\n        /* \"#utility.yul\":5798:5822   */\n      tag_216\n      jump\t// in\n    tag_215:\n        /* \"#utility.yul\":5793:5796   */\n      dup3\n        /* \"#utility.yul\":5786:5823   */\n      mstore\n        /* \"#utility.yul\":5711:5829   */\n      pop\n      pop\n      jump\t// out\n        /* \"#utility.yul\":5835:5992   */\n    tag_217:\n        /* \"#utility.yul\":5940:5985   */\n      tag_219\n        /* \"#utility.yul\":5960:5984   */\n      tag_220\n        /* \"#utility.yul\":5978:5983   */\n      dup3\n        /* \"#utility.yul\":5960:5984   */\n      tag_216\n      jump\t// in\n    tag_220:\n        /* \"#utility.yul\":5940:5985   */\n      tag_221\n      jump\t// in\n    tag_219:\n        /* \"#utility.yul\":5935:5938   */\n      dup3\n        /* \"#utility.yul\":5928:5986   */\n      mstore\n        /* \"#utility.yul\":5835:5992   */\n      pop\n      pop\n      jump\t// out\n        /* \"#utility.yul\":5998:6555   */\n    tag_100:\n        /* \"#utility.yul\":6186:6189   */\n      0x00\n        /* \"#utility.yul\":6201:6276   */\n      tag_223\n        /* \"#utility.yul\":6272:6275   */\n      dup3\n        /* \"#utility.yul\":6263:6269   */\n      dup7\n        /* \"#utility.yul\":6201:6276   */\n      tag_163\n      jump\t// in\n    tag_223:\n        /* \"#utility.yul\":6301:6303   */\n      0x14\n        /* \"#utility.yul\":6296:6299   */\n      dup3\n        /* \"#utility.yul\":6292:6304   */\n      add\n        /* \"#utility.yul\":6285:6304   */\n      swap2\n      pop\n        /* \"#utility.yul\":6314:6389   */\n      tag_224\n        /* \"#utility.yul\":6385:6388   */\n      dup3\n        /* \"#utility.yul\":6376:6382   */\n      dup6\n        /* \"#utility.yul\":6314:6389   */\n      tag_217\n      jump\t// in\n    tag_224:\n        /* \"#utility.yul\":6414:6416   */\n      0x20\n        /* \"#utility.yul\":6409:6412   */\n      dup3\n        /* \"#utility.yul\":6405:6417   */\n      add\n        /* \"#utility.yul\":6398:6417   */\n      swap2\n      pop\n        /* \"#utility.yul\":6434:6529   */\n      tag_225\n        /* \"#utility.yul\":6525:6528   */\n      dup3\n        /* \"#utility.yul\":6516:6522   */\n      dup5\n        /* \"#utility.yul\":6434:6529   */\n      tag_182\n      jump\t// in\n    tag_225:\n        /* \"#utility.yul\":6427:6529   */\n      swap2\n      pop\n        /* \"#utility.yul\":6546:6549   */\n      dup2\n        /* \"#utility.yul\":6539:6549   */\n      swap1\n      pop\n        /* \"#utility.yul\":5998:6555   */\n      swap5\n      swap4\n      pop\n      pop\n      pop\n      pop\n      jump\t// out\n        /* \"#utility.yul\":6561:6783   */\n    tag_22:\n        /* \"#utility.yul\":6654:6658   */\n      0x00\n        /* \"#utility.yul\":6692:6694   */\n      0x20\n        /* \"#utility.yul\":6681:6690   */\n      dup3\n        /* \"#utility.yul\":6677:6695   */\n      add\n        /* \"#utility.yul\":6669:6695   */\n      swap1\n      pop\n        /* \"#utility.yul\":6705:6776   */\n      tag_227\n        /* \"#utility.yul\":6773:6774   */\n      0x00\n        /* \"#utility.yul\":6762:6771   */\n      dup4\n        /* \"#utility.yul\":6758:6775   */\n      add\n        /* \"#utility.yul\":6749:6755   */\n      dup5\n        /* \"#utility.yul\":6705:6776   */\n      tag_159\n      jump\t// in\n    tag_227:\n        /* \"#utility.yul\":6561:6783   */\n      swap3\n      swap2\n      pop\n      pop\n      jump\t// out\n        /* \"#utility.yul\":6789:7102   */\n    tag_16:\n        /* \"#utility.yul\":6902:6906   */\n      0x00\n        /* \"#utility.yul\":6940:6942   */\n      0x20\n        /* \"#utility.yul\":6929:6938   */\n      dup3\n        /* \"#utility.yul\":6925:6943   */\n      add\n        /* \"#utility.yul\":6917:6943   */\n      swap1\n      pop\n        /* \"#utility.yul\":6989:6998   */\n      dup2\n        /* \"#utility.yul\":6983:6987   */\n      dup2\n        /* \"#utility.yul\":6979:6999   */\n      sub\n        /* \"#utility.yul\":6975:6976   */\n      0x00\n        /* \"#utility.yul\":6964:6973   */\n      dup4\n        /* \"#utility.yul\":6960:6977   */\n      add\n        /* \"#utility.yul\":6953:7000   */\n      mstore\n        /* \"#utility.yul\":7017:7095   */\n      tag_229\n        /* \"#utility.yul\":7090:7094   */\n      dup2\n        /* \"#utility.yul\":7081:7087   */\n      dup5\n        /* \"#utility.yul\":7017:7095   */\n      tag_172\n      jump\t// in\n    tag_229:\n        /* \"#utility.yul\":7009:7095   */\n      swap1\n      pop\n        /* \"#utility.yul\":6789:7102   */\n      swap3\n      swap2\n      pop\n      pop\n      jump\t// out\n        /* \"#utility.yul\":7108:7527   */\n    tag_94:\n        /* \"#utility.yul\":7274:7278   */\n      0x00\n        /* \"#utility.yul\":7312:7314   */\n      0x20\n        /* \"#utility.yul\":7301:7310   */\n      dup3\n        /* \"#utility.yul\":7297:7315   */\n      add\n        /* \"#utility.yul\":7289:7315   */\n      swap1\n      pop\n        /* \"#utility.yul\":7361:7370   */\n      dup2\n        /* \"#utility.yul\":7355:7359   */\n      dup2\n        /* \"#utility.yul\":7351:7371   */\n      sub\n        /* \"#utility.yul\":7347:7348   */\n      0x00\n        /* \"#utility.yul\":7336:7345   */\n      dup4\n        /* \"#utility.yul\":7332:7349   */\n      add\n        /* \"#utility.yul\":7325:7372   */\n      mstore\n        /* \"#utility.yul\":7389:7520   */\n      tag_231\n        /* \"#utility.yul\":7515:7519   */\n      dup2\n        /* \"#utility.yul\":7389:7520   */\n      tag_188\n      jump\t// in\n    tag_231:\n        /* \"#utility.yul\":7381:7520   */\n      swap1\n      pop\n        /* \"#utility.yul\":7108:7527   */\n      swap2\n      swap1\n      pop\n      jump\t// out\n        /* \"#utility.yul\":7533:7952   */\n    tag_62:\n        /* \"#utility.yul\":7699:7703   */\n      0x00\n        /* \"#utility.yul\":7737:7739   */\n      0x20\n        /* \"#utility.yul\":7726:7735   */\n      dup3\n        /* \"#utility.yul\":7722:7740   */\n      add\n        /* \"#utility.yul\":7714:7740   */\n      swap1\n      pop\n        /* \"#utility.yul\":7786:7795   */\n      dup2\n        /* \"#utility.yul\":7780:7784   */\n      dup2\n        /* \"#utility.yul\":7776:7796   */\n      sub\n        /* \"#utility.yul\":7772:7773   */\n      0x00\n        /* \"#utility.yul\":7761:7770   */\n      dup4\n        /* \"#utility.yul\":7757:7774   */\n      add\n        /* \"#utility.yul\":7750:7797   */\n      mstore\n        /* \"#utility.yul\":7814:7945   */\n      tag_233\n        /* \"#utility.yul\":7940:7944   */\n      dup2\n        /* \"#utility.yul\":7814:7945   */\n      tag_193\n      jump\t// in\n    tag_233:\n        /* \"#utility.yul\":7806:7945   */\n      swap1\n      pop\n        /* \"#utility.yul\":7533:7952   */\n      swap2\n      swap1\n      pop\n      jump\t// out\n        /* \"#utility.yul\":7958:8377   */\n    tag_52:\n        /* \"#utility.yul\":8124:8128   */\n      0x00\n        /* \"#utility.yul\":8162:8164   */\n      0x20\n        /* \"#utility.yul\":8151:8160   */\n      dup3\n        /* \"#utility.yul\":8147:8165   */\n      add\n        /* \"#utility.yul\":8139:8165   */\n      swap1\n      pop\n        /* \"#utility.yul\":8211:8220   */\n      dup2\n        /* \"#utility.yul\":8205:8209   */\n      dup2\n        /* \"#utility.yul\":8201:8221   */\n      sub\n        /* \"#utility.yul\":8197:8198   */\n      0x00\n        /* \"#utility.yul\":8186:8195   */\n      dup4\n        /* \"#utility.yul\":8182:8199   */\n      add\n        /* \"#utility.yul\":8175:8222   */\n      mstore\n        /* \"#utility.yul\":8239:8370   */\n      tag_235\n        /* \"#utility.yul\":8365:8369   */\n      dup2\n        /* \"#utility.yul\":8239:8370   */\n      tag_198\n      jump\t// in\n    tag_235:\n        /* \"#utility.yul\":8231:8370   */\n      swap1\n      pop\n        /* \"#utility.yul\":7958:8377   */\n      swap2\n      swap1\n      pop\n      jump\t// out\n        /* \"#utility.yul\":8383:8802   */\n    tag_67:\n        /* \"#utility.yul\":8549:8553   */\n      0x00\n        /* \"#utility.yul\":8587:8589   */\n      0x20\n        /* \"#utility.yul\":8576:8585   */\n      dup3\n        /* \"#utility.yul\":8572:8590   */\n      add\n        /* \"#utility.yul\":8564:8590   */\n      swap1\n      pop\n        /* \"#utility.yul\":8636:8645   */\n      dup2\n        /* \"#utility.yul\":8630:8634   */\n      dup2\n        /* \"#utility.yul\":8626:8646   */\n      sub\n        /* \"#utility.yul\":8622:8623   */\n      0x00\n        /* \"#utility.yul\":8611:8620   */\n      dup4\n        /* \"#utility.yul\":8607:8624   */\n      add\n        /* \"#utility.yul\":8600:8647   */\n      mstore\n        /* \"#utility.yul\":8664:8795   */\n      tag_237\n        /* \"#utility.yul\":8790:8794   */\n      dup2\n        /* \"#utility.yul\":8664:8795   */\n      tag_203\n      jump\t// in\n    tag_237:\n        /* \"#utility.yul\":8656:8795   */\n      swap1\n      pop\n        /* \"#utility.yul\":8383:8802   */\n      swap2\n      swap1\n      pop\n      jump\t// out\n        /* \"#utility.yul\":8808:9227   */\n    tag_45:\n        /* \"#utility.yul\":8974:8978   */\n      0x00\n        /* \"#utility.yul\":9012:9014   */\n      0x20\n        /* \"#utility.yul\":9001:9010   */\n      dup3\n        /* \"#utility.yul\":8997:9015   */\n      add\n        /* \"#utility.yul\":8989:9015   */\n      swap1\n      pop\n        /* \"#utility.yul\":9061:9070   */\n      dup2\n        /* \"#utility.yul\":9055:9059   */\n      dup2\n        /* \"#utility.yul\":9051:9071   */\n      sub\n        /* \"#utility.yul\":9047:9048   */\n      0x00\n        /* \"#utility.yul\":9036:9045   */\n      dup4\n        /* \"#utility.yul\":9032:9049   */\n      add\n        /* \"#utility.yul\":9025:9072   */\n      mstore\n        /* \"#utility.yul\":9089:9220   */\n      tag_239\n        /* \"#utility.yul\":9215:9219   */\n      dup2\n        /* \"#utility.yul\":9089:9220   */\n      tag_208\n      jump\t// in\n    tag_239:\n        /* \"#utility.yul\":9081:9220   */\n      swap1\n      pop\n        /* \"#utility.yul\":8808:9227   */\n      swap2\n      swap1\n      pop\n      jump\t// out\n        /* \"#utility.yul\":9233:9455   */\n    tag_28:\n        /* \"#utility.yul\":9326:9330   */\n      0x00\n        /* \"#utility.yul\":9364:9366   */\n      0x20\n        /* \"#utility.yul\":9353:9362   */\n      dup3\n        /* \"#utility.yul\":9349:9367   */\n      add\n        /* \"#utility.yul\":9341:9367   */\n      swap1\n      pop\n        /* \"#utility.yul\":9377:9448   */\n      tag_241\n        /* \"#utility.yul\":9445:9446   */\n      0x00\n        /* \"#utility.yul\":9434:9443   */\n      dup4\n        /* \"#utility.yul\":9430:9447   */\n      add\n        /* \"#utility.yul\":9421:9427   */\n      dup5\n        /* \"#utility.yul\":9377:9448   */\n      tag_213\n      jump\t// in\n    tag_241:\n        /* \"#utility.yul\":9233:9455   */\n      swap3\n      swap2\n      pop\n      pop\n      jump\t// out\n        /* \"#utility.yul\":9461:10105   */\n    tag_77:\n        /* \"#utility.yul\":9658:9662   */\n      0x00\n        /* \"#utility.yul\":9696:9699   */\n      0x80\n        /* \"#utility.yul\":9685:9694   */\n      dup3\n        /* \"#utility.yul\":9681:9700   */\n      add\n        /* \"#utility.yul\":9673:9700   */\n      swap1\n      pop\n        /* \"#utility.yul\":9710:9781   */\n      tag_243\n        /* \"#utility.yul\":9778:9779   */\n      0x00\n        /* \"#utility.yul\":9767:9776   */\n      dup4\n        /* \"#utility.yul\":9763:9780   */\n      add\n        /* \"#utility.yul\":9754:9760   */\n      dup8\n        /* \"#utility.yul\":9710:9781   */\n      tag_213\n      jump\t// in\n    tag_243:\n        /* \"#utility.yul\":9791:9863   */\n      tag_244\n        /* \"#utility.yul\":9859:9861   */\n      0x20\n        /* \"#utility.yul\":9848:9857   */\n      dup4\n        /* \"#utility.yul\":9844:9862   */\n      add\n        /* \"#utility.yul\":9835:9841   */\n      dup7\n        /* \"#utility.yul\":9791:9863   */\n      tag_159\n      jump\t// in\n    tag_244:\n        /* \"#utility.yul\":9873:9945   */\n      tag_245\n        /* \"#utility.yul\":9941:9943   */\n      0x40\n        /* \"#utility.yul\":9930:9939   */\n      dup4\n        /* \"#utility.yul\":9926:9944   */\n      add\n        /* \"#utility.yul\":9917:9923   */\n      dup6\n        /* \"#utility.yul\":9873:9945   */\n      tag_213\n      jump\t// in\n    tag_245:\n        /* \"#utility.yul\":9992:10001   */\n      dup2\n        /* \"#utility.yul\":9986:9990   */\n      dup2\n        /* \"#utility.yul\":9982:10002   */\n      sub\n        /* \"#utility.yul\":9977:9979   */\n      0x60\n        /* \"#utility.yul\":9966:9975   */\n      dup4\n        /* \"#utility.yul\":9962:9980   */\n      add\n        /* \"#utility.yul\":9955:10003   */\n      mstore\n        /* \"#utility.yul\":10020:10098   */\n      tag_246\n        /* \"#utility.yul\":10093:10097   */\n      dup2\n        /* \"#utility.yul\":10084:10090   */\n      dup5\n        /* \"#utility.yul\":10020:10098   */\n      tag_172\n      jump\t// in\n    tag_246:\n        /* \"#utility.yul\":10012:10098   */\n      swap1\n      pop\n        /* \"#utility.yul\":9461:10105   */\n      swap6\n      swap5\n      pop\n      pop\n      pop\n      pop\n      pop\n      jump\t// out\n        /* \"#utility.yul\":10111:11076   */\n    tag_33:\n        /* \"#utility.yul\":10386:10390   */\n      0x00\n        /* \"#utility.yul\":10424:10427   */\n      0xe0\n        /* \"#utility.yul\":10413:10422   */\n      dup3\n        /* \"#utility.yul\":10409:10428   */\n      add\n        /* \"#utility.yul\":10401:10428   */\n      swap1\n      pop\n        /* \"#utility.yul\":10438:10509   */\n      tag_248\n        /* \"#utility.yul\":10506:10507   */\n      0x00\n        /* \"#utility.yul\":10495:10504   */\n      dup4\n        /* \"#utility.yul\":10491:10508   */\n      add\n        /* \"#utility.yul\":10482:10488   */\n      dup11\n        /* \"#utility.yul\":10438:10509   */\n      tag_213\n      jump\t// in\n    tag_248:\n        /* \"#utility.yul\":10519:10591   */\n      tag_249\n        /* \"#utility.yul\":10587:10589   */\n      0x20\n        /* \"#utility.yul\":10576:10585   */\n      dup4\n        /* \"#utility.yul\":10572:10590   */\n      add\n        /* \"#utility.yul\":10563:10569   */\n      dup10\n        /* \"#utility.yul\":10519:10591   */\n      tag_213\n      jump\t// in\n    tag_249:\n        /* \"#utility.yul\":10601:10673   */\n      tag_250\n        /* \"#utility.yul\":10669:10671   */\n      0x40\n        /* \"#utility.yul\":10658:10667   */\n      dup4\n        /* \"#utility.yul\":10654:10672   */\n      add\n        /* \"#utility.yul\":10645:10651   */\n      dup9\n        /* \"#utility.yul\":10601:10673   */\n      tag_213\n      jump\t// in\n    tag_250:\n        /* \"#utility.yul\":10683:10755   */\n      tag_251\n        /* \"#utility.yul\":10751:10753   */\n      0x60\n        /* \"#utility.yul\":10740:10749   */\n      dup4\n        /* \"#utility.yul\":10736:10754   */\n      add\n        /* \"#utility.yul\":10727:10733   */\n      dup8\n        /* \"#utility.yul\":10683:10755   */\n      tag_213\n      jump\t// in\n    tag_251:\n        /* \"#utility.yul\":10765:10838   */\n      tag_252\n        /* \"#utility.yul\":10833:10836   */\n      0x80\n        /* \"#utility.yul\":10822:10831   */\n      dup4\n        /* \"#utility.yul\":10818:10837   */\n      add\n        /* \"#utility.yul\":10809:10815   */\n      dup7\n        /* \"#utility.yul\":10765:10838   */\n      tag_159\n      jump\t// in\n    tag_252:\n        /* \"#utility.yul\":10886:10895   */\n      dup2\n        /* \"#utility.yul\":10880:10884   */\n      dup2\n        /* \"#utility.yul\":10876:10896   */\n      sub\n        /* \"#utility.yul\":10870:10873   */\n      0xa0\n        /* \"#utility.yul\":10859:10868   */\n      dup4\n        /* \"#utility.yul\":10855:10874   */\n      add\n        /* \"#utility.yul\":10848:10897   */\n      mstore\n        /* \"#utility.yul\":10914:10992   */\n      tag_253\n        /* \"#utility.yul\":10987:10991   */\n      dup2\n        /* \"#utility.yul\":10978:10984   */\n      dup6\n        /* \"#utility.yul\":10914:10992   */\n      tag_172\n      jump\t// in\n    tag_253:\n        /* \"#utility.yul\":10906:10992   */\n      swap1\n      pop\n        /* \"#utility.yul\":11002:11069   */\n      tag_254\n        /* \"#utility.yul\":11064:11067   */\n      0xc0\n        /* \"#utility.yul\":11053:11062   */\n      dup4\n        /* \"#utility.yul\":11049:11068   */\n      add\n        /* \"#utility.yul\":11040:11046   */\n      dup5\n        /* \"#utility.yul\":11002:11069   */\n      tag_168\n      jump\t// in\n    tag_254:\n        /* \"#utility.yul\":10111:11076   */\n      swap9\n      swap8\n      pop\n      pop\n      pop\n      pop\n      pop\n      pop\n      pop\n      pop\n      jump\t// out\n        /* \"#utility.yul\":11082:11211   */\n    tag_120:\n        /* \"#utility.yul\":11116:11122   */\n      0x00\n        /* \"#utility.yul\":11143:11163   */\n      tag_256\n      tag_257\n      jump\t// in\n    tag_256:\n        /* \"#utility.yul\":11133:11163   */\n      swap1\n      pop\n        /* \"#utility.yul\":11172:11205   */\n      tag_258\n        /* \"#utility.yul\":11200:11204   */\n      dup3\n        /* \"#utility.yul\":11192:11198   */\n      dup3\n        /* \"#utility.yul\":11172:11205   */\n      tag_259\n      jump\t// in\n    tag_258:\n        /* \"#utility.yul\":11082:11211   */\n      swap2\n      swap1\n      pop\n      jump\t// out\n        /* \"#utility.yul\":11217:11292   */\n    tag_257:\n        /* \"#utility.yul\":11250:11256   */\n      0x00\n        /* \"#utility.yul\":11283:11285   */\n      0x40\n        /* \"#utility.yul\":11277:11286   */\n      mload\n        /* \"#utility.yul\":11267:11286   */\n      swap1\n      pop\n        /* \"#utility.yul\":11217:11292   */\n      swap1\n      jump\t// out\n        /* \"#utility.yul\":11298:11606   */\n    tag_119:\n        /* \"#utility.yul\":11360:11364   */\n      0x00\n        /* \"#utility.yul\":11450:11468   */\n      0xffffffffffffffff\n        /* \"#utility.yul\":11442:11448   */\n      dup3\n        /* \"#utility.yul\":11439:11469   */\n      gt\n        /* \"#utility.yul\":11436:11492   */\n      iszero\n      tag_262\n      jumpi\n        /* \"#utility.yul\":11472:11490   */\n      tag_263\n      tag_264\n      jump\t// in\n    tag_263:\n        /* \"#utility.yul\":11436:11492   */\n    tag_262:\n        /* \"#utility.yul\":11510:11539   */\n      tag_265\n        /* \"#utility.yul\":11532:11538   */\n      dup3\n        /* \"#utility.yul\":11510:11539   */\n      tag_181\n      jump\t// in\n    tag_265:\n        /* \"#utility.yul\":11502:11539   */\n      swap1\n      pop\n        /* \"#utility.yul\":11594:11598   */\n      0x20\n        /* \"#utility.yul\":11588:11592   */\n      dup2\n        /* \"#utility.yul\":11584:11599   */\n      add\n        /* \"#utility.yul\":11576:11599   */\n      swap1\n      pop\n        /* \"#utility.yul\":11298:11606   */\n      swap2\n      swap1\n      pop\n      jump\t// out\n        /* \"#utility.yul\":11612:11711   */\n    tag_175:\n        /* \"#utility.yul\":11664:11670   */\n      0x00\n        /* \"#utility.yul\":11698:11703   */\n      dup2\n        /* \"#utility.yul\":11692:11704   */\n      mload\n        /* \"#utility.yul\":11682:11704   */\n      swap1\n      pop\n        /* \"#utility.yul\":11612:11711   */\n      swap2\n      swap1\n      pop\n      jump\t// out\n        /* \"#utility.yul\":11717:11886   */\n    tag_177:\n        /* \"#utility.yul\":11801:11812   */\n      0x00\n        /* \"#utility.yul\":11835:11841   */\n      dup3\n        /* \"#utility.yul\":11830:11833   */\n      dup3\n        /* \"#utility.yul\":11823:11842   */\n      mstore\n        /* \"#utility.yul\":11875:11879   */\n      0x20\n        /* \"#utility.yul\":11870:11873   */\n      dup3\n        /* \"#utility.yul\":11866:11880   */\n      add\n        /* \"#utility.yul\":11851:11880   */\n      swap1\n      pop\n        /* \"#utility.yul\":11717:11886   */\n      swap3\n      swap2\n      pop\n      pop\n      jump\t// out\n        /* \"#utility.yul\":11892:12040   */\n    tag_186:\n        /* \"#utility.yul\":11994:12005   */\n      0x00\n        /* \"#utility.yul\":12031:12034   */\n      dup2\n        /* \"#utility.yul\":12016:12034   */\n      swap1\n      pop\n        /* \"#utility.yul\":11892:12040   */\n      swap3\n      swap2\n      pop\n      pop\n      jump\t// out\n        /* \"#utility.yul\":12046:12351   */\n    tag_72:\n        /* \"#utility.yul\":12086:12089   */\n      0x00\n        /* \"#utility.yul\":12105:12125   */\n      tag_270\n        /* \"#utility.yul\":12123:12124   */\n      dup3\n        /* \"#utility.yul\":12105:12125   */\n      tag_216\n      jump\t// in\n    tag_270:\n        /* \"#utility.yul\":12100:12125   */\n      swap2\n      pop\n        /* \"#utility.yul\":12139:12159   */\n      tag_271\n        /* \"#utility.yul\":12157:12158   */\n      dup4\n        /* \"#utility.yul\":12139:12159   */\n      tag_216\n      jump\t// in\n    tag_271:\n        /* \"#utility.yul\":12134:12159   */\n      swap3\n      pop\n        /* \"#utility.yul\":12293:12294   */\n      dup3\n        /* \"#utility.yul\":12225:12291   */\n      0xffffffffffffffffffffffffffffffffffffffffffffffffffffffffffffffff\n        /* \"#utility.yul\":12221:12295   */\n      sub\n        /* \"#utility.yul\":12218:12219   */\n      dup3\n        /* \"#utility.yul\":12215:12296   */\n      gt\n        /* \"#utility.yul\":12212:12319   */\n      iszero\n      tag_272\n      jumpi\n        /* \"#utility.yul\":12299:12317   */\n      tag_273\n      tag_274\n      jump\t// in\n    tag_273:\n        /* \"#utility.yul\":12212:12319   */\n    tag_272:\n        /* \"#utility.yul\":12343:12344   */\n      dup3\n        /* \"#utility.yul\":12340:12341   */\n      dup3\n        /* \"#utility.yul\":12336:12345   */\n      add\n        /* \"#utility.yul\":12329:12345   */\n      swap1\n      pop\n        /* \"#utility.yul\":12046:12351   */\n      swap3\n      swap2\n      pop\n      pop\n      jump\t// out\n        /* \"#utility.yul\":12357:12705   */\n    tag_59:\n        /* \"#utility.yul\":12397:12404   */\n      0x00\n        /* \"#utility.yul\":12420:12440   */\n      tag_276\n        /* \"#utility.yul\":12438:12439   */\n      dup3\n        /* \"#utility.yul\":12420:12440   */\n      tag_216\n      jump\t// in\n    tag_276:\n        /* \"#utility.yul\":12415:12440   */\n      swap2\n      pop\n        /* \"#utility.yul\":12454:12474   */\n      tag_277\n        /* \"#utility.yul\":12472:12473   */\n      dup4\n        /* \"#utility.yul\":12454:12474   */\n      tag_216\n      jump\t// in\n    tag_277:\n        /* \"#utility.yul\":12449:12474   */\n      swap3\n      pop\n        /* \"#utility.yul\":12642:12643   */\n      dup2\n        /* \"#utility.yul\":12574:12640   */\n      0xffffffffffffffffffffffffffffffffffffffffffffffffffffffffffffffff\n        /* \"#utility.yul\":12570:12644   */\n      div\n        /* \"#utility.yul\":12567:12568   */\n      dup4\n        /* \"#utility.yul\":12564:12645   */\n      gt\n        /* \"#utility.yul\":12559:12560   */\n      dup3\n        /* \"#utility.yul\":12552:12561   */\n      iszero\n        /* \"#utility.yul\":12545:12562   */\n      iszero\n        /* \"#utility.yul\":12541:12646   */\n      and\n        /* \"#utility.yul\":12538:12669   */\n      iszero\n      tag_278\n      jumpi\n        /* \"#utility.yul\":12649:12667   */\n      tag_279\n      tag_274\n      jump\t// in\n    tag_279:\n        /* \"#utility.yul\":12538:12669   */\n    tag_278:\n        /* \"#utility.yul\":12697:12698   */\n      dup3\n        /* \"#utility.yul\":12694:12695   */\n      dup3\n        /* \"#utility.yul\":12690:12699   */\n      mul\n        /* \"#utility.yul\":12679:12699   */\n      swap1\n      pop\n        /* \"#utility.yul\":12357:12705   */\n      swap3\n      swap2\n      pop\n      pop\n      jump\t// out\n        /* \"#utility.yul\":12711:12807   */\n    tag_162:\n        /* \"#utility.yul\":12748:12755   */\n      0x00\n        /* \"#utility.yul\":12777:12801   */\n      tag_281\n        /* \"#utility.yul\":12795:12800   */\n      dup3\n        /* \"#utility.yul\":12777:12801   */\n      tag_282\n      jump\t// in\n    tag_281:\n        /* \"#utility.yul\":12766:12801   */\n      swap1\n      pop\n        /* \"#utility.yul\":12711:12807   */\n      swap2\n      swap1\n      pop\n      jump\t// out\n        /* \"#utility.yul\":12813:12903   */\n    tag_171:\n        /* \"#utility.yul\":12847:12854   */\n      0x00\n        /* \"#utility.yul\":12890:12895   */\n      dup2\n        /* \"#utility.yul\":12883:12896   */\n      iszero\n        /* \"#utility.yul\":12876:12897   */\n      iszero\n        /* \"#utility.yul\":12865:12897   */\n      swap1\n      pop\n        /* \"#utility.yul\":12813:12903   */\n      swap2\n      swap1\n      pop\n      jump\t// out\n        /* \"#utility.yul\":12909:13035   */\n    tag_282:\n        /* \"#utility.yul\":12946:12953   */\n      0x00\n        /* \"#utility.yul\":12986:13028   */\n      0xffffffffffffffffffffffffffffffffffffffff\n        /* \"#utility.yul\":12979:12984   */\n      dup3\n        /* \"#utility.yul\":12975:13029   */\n      and\n        /* \"#utility.yul\":12964:13029   */\n      swap1\n      pop\n        /* \"#utility.yul\":12909:13035   */\n      swap2\n      swap1\n      pop\n      jump\t// out\n        /* \"#utility.yul\":13041:13118   */\n    tag_216:\n        /* \"#utility.yul\":13078:13085   */\n      0x00\n        /* \"#utility.yul\":13107:13112   */\n      dup2\n        /* \"#utility.yul\":13096:13112   */\n      swap1\n      pop\n        /* \"#utility.yul\":13041:13118   */\n      swap2\n      swap1\n      pop\n      jump\t// out\n        /* \"#utility.yul\":13124:13278   */\n    tag_125:\n        /* \"#utility.yul\":13208:13214   */\n      dup3\n        /* \"#utility.yul\":13203:13206   */\n      dup2\n        /* \"#utility.yul\":13198:13201   */\n      dup4\n        /* \"#utility.yul\":13185:13215   */\n      calldatacopy\n        /* \"#utility.yul\":13270:13271   */\n      0x00\n        /* \"#utility.yul\":13261:13267   */\n      dup4\n        /* \"#utility.yul\":13256:13259   */\n      dup4\n        /* \"#utility.yul\":13252:13268   */\n      add\n        /* \"#utility.yul\":13245:13272   */\n      mstore\n        /* \"#utility.yul\":13124:13278   */\n      pop\n      pop\n      pop\n      jump\t// out\n        /* \"#utility.yul\":13284:13591   */\n    tag_179:\n        /* \"#utility.yul\":13352:13353   */\n      0x00\n        /* \"#utility.yul\":13362:13475   */\n    tag_288:\n        /* \"#utility.yul\":13376:13382   */\n      dup4\n        /* \"#utility.yul\":13373:13374   */\n      dup2\n        /* \"#utility.yul\":13370:13383   */\n      lt\n        /* \"#utility.yul\":13362:13475   */\n      iszero\n      tag_290\n      jumpi\n        /* \"#utility.yul\":13461:13462   */\n      dup1\n        /* \"#utility.yul\":13456:13459   */\n      dup3\n        /* \"#utility.yul\":13452:13463   */\n      add\n        /* \"#utility.yul\":13446:13464   */\n      mload\n        /* \"#utility.yul\":13442:13443   */\n      dup2\n        /* \"#utility.yul\":13437:13440   */\n      dup5\n        /* \"#utility.yul\":13433:13444   */\n      add\n        /* \"#utility.yul\":13426:13465   */\n      mstore\n        /* \"#utility.yul\":13398:13400   */\n      0x20\n        /* \"#utility.yul\":13395:13396   */\n      dup2\n        /* \"#utility.yul\":13391:13401   */\n      add\n        /* \"#utility.yul\":13386:13401   */\n      swap1\n      pop\n        /* \"#utility.yul\":13362:13475   */\n      jump(tag_288)\n    tag_290:\n        /* \"#utility.yul\":13493:13499   */\n      dup4\n        /* \"#utility.yul\":13490:13491   */\n      dup2\n        /* \"#utility.yul\":13487:13500   */\n      gt\n        /* \"#utility.yul\":13484:13585   */\n      iszero\n      tag_291\n      jumpi\n        /* \"#utility.yul\":13573:13574   */\n      0x00\n        /* \"#utility.yul\":13564:13570   */\n      dup5\n        /* \"#utility.yul\":13559:13562   */\n      dup5\n        /* \"#utility.yul\":13555:13571   */\n      add\n        /* \"#utility.yul\":13548:13575   */\n      mstore\n        /* \"#utility.yul\":13484:13585   */\n    tag_291:\n        /* \"#utility.yul\":13333:13591   */\n      pop\n        /* \"#utility.yul\":13284:13591   */\n      pop\n      pop\n      pop\n      jump\t// out\n        /* \"#utility.yul\":13597:13917   */\n    tag_79:\n        /* \"#utility.yul\":13641:13647   */\n      0x00\n        /* \"#utility.yul\":13678:13679   */\n      0x02\n        /* \"#utility.yul\":13672:13676   */\n      dup3\n        /* \"#utility.yul\":13668:13680   */\n      div\n        /* \"#utility.yul\":13658:13680   */\n      swap1\n      pop\n        /* \"#utility.yul\":13725:13726   */\n      0x01\n        /* \"#utility.yul\":13719:13723   */\n      dup3\n        /* \"#utility.yul\":13715:13727   */\n      and\n        /* \"#utility.yul\":13746:13764   */\n      dup1\n        /* \"#utility.yul\":13736:13817   */\n      tag_293\n      jumpi\n        /* \"#utility.yul\":13802:13806   */\n      0x7f\n        /* \"#utility.yul\":13794:13800   */\n      dup3\n        /* \"#utility.yul\":13790:13807   */\n      and\n        /* \"#utility.yul\":13780:13807   */\n      swap2\n      pop\n        /* \"#utility.yul\":13736:13817   */\n    tag_293:\n        /* \"#utility.yul\":13864:13866   */\n      0x20\n        /* \"#utility.yul\":13856:13862   */\n      dup3\n        /* \"#utility.yul\":13853:13867   */\n      lt\n        /* \"#utility.yul\":13833:13851   */\n      dup2\n        /* \"#utility.yul\":13830:13868   */\n      eq\n        /* \"#utility.yul\":13827:13911   */\n      iszero\n      tag_294\n      jumpi\n        /* \"#utility.yul\":13883:13901   */\n      tag_295\n      tag_296\n      jump\t// in\n    tag_295:\n        /* \"#utility.yul\":13827:13911   */\n    tag_294:\n        /* \"#utility.yul\":13648:13917   */\n      pop\n        /* \"#utility.yul\":13597:13917   */\n      swap2\n      swap1\n      pop\n      jump\t// out\n        /* \"#utility.yul\":13923:14204   */\n    tag_259:\n        /* \"#utility.yul\":14006:14033   */\n      tag_298\n        /* \"#utility.yul\":14028:14032   */\n      dup3\n        /* \"#utility.yul\":14006:14033   */\n      tag_181\n      jump\t// in\n    tag_298:\n        /* \"#utility.yul\":13998:14004   */\n      dup2\n        /* \"#utility.yul\":13994:14034   */\n      add\n        /* \"#utility.yul\":14136:14142   */\n      dup2\n        /* \"#utility.yul\":14124:14134   */\n      dup2\n        /* \"#utility.yul\":14121:14143   */\n      lt\n        /* \"#utility.yul\":14100:14118   */\n      0xffffffffffffffff\n        /* \"#utility.yul\":14088:14098   */\n      dup3\n        /* \"#utility.yul\":14085:14119   */\n      gt\n        /* \"#utility.yul\":14082:14144   */\n      or\n        /* \"#utility.yul\":14079:14167   */\n      iszero\n      tag_299\n      jumpi\n        /* \"#utility.yul\":14147:14165   */\n      tag_300\n      tag_264\n      jump\t// in\n    tag_300:\n        /* \"#utility.yul\":14079:14167   */\n    tag_299:\n        /* \"#utility.yul\":14187:14197   */\n      dup1\n        /* \"#utility.yul\":14183:14185   */\n      0x40\n        /* \"#utility.yul\":14176:14198   */\n      mstore\n        /* \"#utility.yul\":13966:14204   */\n      pop\n        /* \"#utility.yul\":13923:14204   */\n      pop\n      pop\n      jump\t// out\n        /* \"#utility.yul\":14210:14443   */\n    tag_75:\n        /* \"#utility.yul\":14249:14252   */\n      0x00\n        /* \"#utility.yul\":14272:14296   */\n      tag_302\n        /* \"#utility.yul\":14290:14295   */\n      dup3\n        /* \"#utility.yul\":14272:14296   */\n      tag_216\n      jump\t// in\n    tag_302:\n        /* \"#utility.yul\":14263:14296   */\n      swap2\n      pop\n        /* \"#utility.yul\":14318:14384   */\n      0xffffffffffffffffffffffffffffffffffffffffffffffffffffffffffffffff\n        /* \"#utility.yul\":14311:14316   */\n      dup3\n        /* \"#utility.yul\":14308:14385   */\n      eq\n        /* \"#utility.yul\":14305:14408   */\n      iszero\n      tag_303\n      jumpi\n        /* \"#utility.yul\":14388:14406   */\n      tag_304\n      tag_274\n      jump\t// in\n    tag_304:\n        /* \"#utility.yul\":14305:14408   */\n    tag_303:\n        /* \"#utility.yul\":14435:14436   */\n      0x01\n        /* \"#utility.yul\":14428:14433   */\n      dup3\n        /* \"#utility.yul\":14424:14437   */\n      add\n        /* \"#utility.yul\":14417:14437   */\n      swap1\n      pop\n        /* \"#utility.yul\":14210:14443   */\n      swap2\n      swap1\n      pop\n      jump\t// out\n        /* \"#utility.yul\":14449:14549   */\n    tag_167:\n        /* \"#utility.yul\":14488:14495   */\n      0x00\n        /* \"#utility.yul\":14517:14543   */\n      tag_306\n        /* \"#utility.yul\":14537:14542   */\n      dup3\n        /* \"#utility.yul\":14517:14543   */\n      tag_307\n      jump\t// in\n    tag_306:\n        /* \"#utility.yul\":14506:14543   */\n      swap1\n      pop\n        /* \"#utility.yul\":14449:14549   */\n      swap2\n      swap1\n      pop\n      jump\t// out\n        /* \"#utility.yul\":14555:14649   */\n    tag_307:\n        /* \"#utility.yul\":14594:14601   */\n      0x00\n        /* \"#utility.yul\":14623:14643   */\n      tag_309\n        /* \"#utility.yul\":14637:14642   */\n      dup3\n        /* \"#utility.yul\":14623:14643   */\n      tag_310\n      jump\t// in\n    tag_309:\n        /* \"#utility.yul\":14612:14643   */\n      swap1\n      pop\n        /* \"#utility.yul\":14555:14649   */\n      swap2\n      swap1\n      pop\n      jump\t// out\n        /* \"#utility.yul\":14655:14734   */\n    tag_221:\n        /* \"#utility.yul\":14694:14701   */\n      0x00\n        /* \"#utility.yul\":14723:14728   */\n      dup2\n        /* \"#utility.yul\":14712:14728   */\n      swap1\n      pop\n        /* \"#utility.yul\":14655:14734   */\n      swap2\n      swap1\n      pop\n      jump\t// out\n        /* \"#utility.yul\":14740:14916   */\n    tag_102:\n        /* \"#utility.yul\":14772:14773   */\n      0x00\n        /* \"#utility.yul\":14789:14809   */\n      tag_313\n        /* \"#utility.yul\":14807:14808   */\n      dup3\n        /* \"#utility.yul\":14789:14809   */\n      tag_216\n      jump\t// in\n    tag_313:\n        /* \"#utility.yul\":14784:14809   */\n      swap2\n      pop\n        /* \"#utility.yul\":14823:14843   */\n      tag_314\n        /* \"#utility.yul\":14841:14842   */\n      dup4\n        /* \"#utility.yul\":14823:14843   */\n      tag_216\n      jump\t// in\n    tag_314:\n        /* \"#utility.yul\":14818:14843   */\n      swap3\n      pop\n        /* \"#utility.yul\":14862:14863   */\n      dup3\n        /* \"#utility.yul\":14852:14887   */\n      tag_315\n      jumpi\n        /* \"#utility.yul\":14867:14885   */\n      tag_316\n      tag_317\n      jump\t// in\n    tag_316:\n        /* \"#utility.yul\":14852:14887   */\n    tag_315:\n        /* \"#utility.yul\":14908:14909   */\n      dup3\n        /* \"#utility.yul\":14905:14906   */\n      dup3\n        /* \"#utility.yul\":14901:14910   */\n      mod\n        /* \"#utility.yul\":14896:14910   */\n      swap1\n      pop\n        /* \"#utility.yul\":14740:14916   */\n      swap3\n      swap2\n      pop\n      pop\n      jump\t// out\n        /* \"#utility.yul\":14922:15102   */\n    tag_274:\n        /* \"#utility.yul\":14970:15047   */\n      0x4e487b7100000000000000000000000000000000000000000000000000000000\n        /* \"#utility.yul\":14967:14968   */\n      0x00\n        /* \"#utility.yul\":14960:15048   */\n      mstore\n        /* \"#utility.yul\":15067:15071   */\n      0x11\n        /* \"#utility.yul\":15064:15065   */\n      0x04\n        /* \"#utility.yul\":15057:15072   */\n      mstore\n        /* \"#utility.yul\":15091:15095   */\n      0x24\n        /* \"#utility.yul\":15088:15089   */\n      0x00\n        /* \"#utility.yul\":15081:15096   */\n      revert\n        /* \"#utility.yul\":15108:15288   */\n    tag_317:\n        /* \"#utility.yul\":15156:15233   */\n      0x4e487b7100000000000000000000000000000000000000000000000000000000\n        /* \"#utility.yul\":15153:15154   */\n      0x00\n        /* \"#utility.yul\":15146:15234   */\n      mstore\n        /* \"#utility.yul\":15253:15257   */\n      0x12\n        /* \"#utility.yul\":15250:15251   */\n      0x04\n        /* \"#utility.yul\":15243:15258   */\n      mstore\n        /* \"#utility.yul\":15277:15281   */\n      0x24\n        /* \"#utility.yul\":15274:15275   */\n      0x00\n        /* \"#utility.yul\":15267:15282   */\n      revert\n        /* \"#utility.yul\":15294:15474   */\n    tag_296:\n        /* \"#utility.yul\":15342:15419   */\n      0x4e487b7100000000000000000000000000000000000000000000000000000000\n        /* \"#utility.yul\":15339:15340   */\n      0x00\n        /* \"#utility.yul\":15332:15420   */\n      mstore\n        /* \"#utility.yul\":15439:15443   */\n      0x22\n        /* \"#utility.yul\":15436:15437   */\n      0x04\n        /* \"#utility.yul\":15429:15444   */\n      mstore\n        /* \"#utility.yul\":15463:15467   */\n      0x24\n        /* \"#utility.yul\":15460:15461   */\n      0x00\n        /* \"#utility.yul\":15453:15468   */\n      revert\n        /* \"#utility.yul\":15480:15660   */\n    tag_264:\n        /* \"#utility.yul\":15528:15605   */\n      0x4e487b7100000000000000000000000000000000000000000000000000000000\n        /* \"#utility.yul\":15525:15526   */\n      0x00\n        /* \"#utility.yul\":15518:15606   */\n      mstore\n        /* \"#utility.yul\":15625:15629   */\n      0x41\n        /* \"#utility.yul\":15622:15623   */\n      0x04\n        /* \"#utility.yul\":15615:15630   */\n      mstore\n        /* \"#utility.yul\":15649:15653   */\n      0x24\n        /* \"#utility.yul\":15646:15647   */\n      0x00\n        /* \"#utility.yul\":15639:15654   */\n      revert\n        /* \"#utility.yul\":15666:15783   */\n    tag_134:\n        /* \"#utility.yul\":15775:15776   */\n      0x00\n        /* \"#utility.yul\":15772:15773   */\n      dup1\n        /* \"#utility.yul\":15765:15777   */\n      revert\n        /* \"#utility.yul\":15789:15906   */\n    tag_123:\n        /* \"#utility.yul\":15898:15899   */\n      0x00\n        /* \"#utility.yul\":15895:15896   */\n      dup1\n        /* \"#utility.yul\":15888:15900   */\n      revert\n        /* \"#utility.yul\":15912:16029   */\n    tag_157:\n        /* \"#utility.yul\":16021:16022   */\n      0x00\n        /* \"#utility.yul\":16018:16019   */\n      dup1\n        /* \"#utility.yul\":16011:16023   */\n      revert\n        /* \"#utility.yul\":16035:16152   */\n    tag_143:\n        /* \"#utility.yul\":16144:16145   */\n      0x00\n        /* \"#utility.yul\":16141:16142   */\n      dup1\n        /* \"#utility.yul\":16134:16146   */\n      revert\n        /* \"#utility.yul\":16158:16260   */\n    tag_181:\n        /* \"#utility.yul\":16199:16205   */\n      0x00\n        /* \"#utility.yul\":16250:16252   */\n      0x1f\n        /* \"#utility.yul\":16246:16253   */\n      not\n        /* \"#utility.yul\":16241:16243   */\n      0x1f\n        /* \"#utility.yul\":16234:16239   */\n      dup4\n        /* \"#utility.yul\":16230:16244   */\n      add\n        /* \"#utility.yul\":16226:16254   */\n      and\n        /* \"#utility.yul\":16216:16254   */\n      swap1\n      pop\n        /* \"#utility.yul\":16158:16260   */\n      swap2\n      swap1\n      pop\n      jump\t// out\n        /* \"#utility.yul\":16266:16360   */\n    tag_310:\n        /* \"#utility.yul\":16299:16307   */\n      0x00\n        /* \"#utility.yul\":16347:16352   */\n      dup2\n        /* \"#utility.yul\":16343:16345   */\n      0x60\n        /* \"#utility.yul\":16339:16353   */\n      shl\n        /* \"#utility.yul\":16318:16353   */\n      swap1\n      pop\n        /* \"#utility.yul\":16266:16360   */\n      swap2\n      swap1\n      pop\n      jump\t// out\n        /* \"#utility.yul\":16366:16591   */\n    tag_192:\n        /* \"#utility.yul\":16506:16540   */\n      0x4f776e61626c653a206e6577206f776e657220697320746865207a65726f2061\n        /* \"#utility.yul\":16502:16503   */\n      0x00\n        /* \"#utility.yul\":16494:16500   */\n      dup3\n        /* \"#utility.yul\":16490:16504   */\n      add\n        /* \"#utility.yul\":16483:16541   */\n      mstore\n        /* \"#utility.yul\":16575:16583   */\n      0x6464726573730000000000000000000000000000000000000000000000000000\n        /* \"#utility.yul\":16570:16572   */\n      0x20\n        /* \"#utility.yul\":16562:16568   */\n      dup3\n        /* \"#utility.yul\":16558:16573   */\n      add\n        /* \"#utility.yul\":16551:16584   */\n      mstore\n        /* \"#utility.yul\":16366:16591   */\n      pop\n      jump\t// out\n        /* \"#utility.yul\":16597:16767   */\n    tag_197:\n        /* \"#utility.yul\":16737:16759   */\n      0x76616c75652063616e6e6f74206265206e756c6c000000000000000000000000\n        /* \"#utility.yul\":16733:16734   */\n      0x00\n        /* \"#utility.yul\":16725:16731   */\n      dup3\n        /* \"#utility.yul\":16721:16735   */\n      add\n        /* \"#utility.yul\":16714:16760   */\n      mstore\n        /* \"#utility.yul\":16597:16767   */\n      pop\n      jump\t// out\n        /* \"#utility.yul\":16773:16955   */\n    tag_202:\n        /* \"#utility.yul\":16913:16947   */\n      0x4f776e61626c653a2063616c6c6572206973206e6f7420746865206f776e6572\n        /* \"#utility.yul\":16909:16910   */\n      0x00\n        /* \"#utility.yul\":16901:16907   */\n      dup3\n        /* \"#utility.yul\":16897:16911   */\n      add\n        /* \"#utility.yul\":16890:16948   */\n      mstore\n        /* \"#utility.yul\":16773:16955   */\n      pop\n      jump\t// out\n        /* \"#utility.yul\":16961:17138   */\n    tag_207:\n        /* \"#utility.yul\":17101:17130   */\n      0x7468697320686f757365496420616c7265616479206578697374730000000000\n        /* \"#utility.yul\":17097:17098   */\n      0x00\n        /* \"#utility.yul\":17089:17095   */\n      dup3\n        /* \"#utility.yul\":17085:17099   */\n      add\n        /* \"#utility.yul\":17078:17131   */\n      mstore\n        /* \"#utility.yul\":16961:17138   */\n      pop\n      jump\t// out\n        /* \"#utility.yul\":17144:17374   */\n    tag_212:\n        /* \"#utility.yul\":17284:17318   */\n      0x596f7520646f206e6f7420686176652061636365737320746f2064656c657465\n        /* \"#utility.yul\":17280:17281   */\n      0x00\n        /* \"#utility.yul\":17272:17278   */\n      dup3\n        /* \"#utility.yul\":17268:17282   */\n      add\n        /* \"#utility.yul\":17261:17319   */\n      mstore\n        /* \"#utility.yul\":17353:17366   */\n      0x207468697320686f757365000000000000000000000000000000000000000000\n        /* \"#utility.yul\":17348:17350   */\n      0x20\n        /* \"#utility.yul\":17340:17346   */\n      dup3\n        /* \"#utility.yul\":17336:17351   */\n      add\n        /* \"#utility.yul\":17329:17367   */\n      mstore\n        /* \"#utility.yul\":17144:17374   */\n      pop\n      jump\t// out\n        /* \"#utility.yul\":17380:17502   */\n    tag_129:\n        /* \"#utility.yul\":17453:17477   */\n      tag_334\n        /* \"#utility.yul\":17471:17476   */\n      dup2\n        /* \"#utility.yul\":17453:17477   */\n      tag_162\n      jump\t// in\n    tag_334:\n        /* \"#utility.yul\":17446:17451   */\n      dup2\n        /* \"#utility.yul\":17443:17478   */\n      eq\n        /* \"#utility.yul\":17433:17496   */\n      tag_335\n      jumpi\n        /* \"#utility.yul\":17492:17493   */\n      0x00\n        /* \"#utility.yul\":17489:17490   */\n      dup1\n        /* \"#utility.yul\":17482:17494   */\n      revert\n        /* \"#utility.yul\":17433:17496   */\n    tag_335:\n        /* \"#utility.yul\":17380:17502   */\n      pop\n      jump\t// out\n        /* \"#utility.yul\":17508:17630   */\n    tag_139:\n        /* \"#utility.yul\":17581:17605   */\n      tag_337\n        /* \"#utility.yul\":17599:17604   */\n      dup2\n        /* \"#utility.yul\":17581:17605   */\n      tag_216\n      jump\t// in\n    tag_337:\n        /* \"#utility.yul\":17574:17579   */\n      dup2\n        /* \"#utility.yul\":17571:17606   */\n      eq\n        /* \"#utility.yul\":17561:17624   */\n      tag_338\n      jumpi\n        /* \"#utility.yul\":17620:17621   */\n      0x00\n        /* \"#utility.yul\":17617:17618   */\n      dup1\n        /* \"#utility.yul\":17610:17622   */\n      revert\n        /* \"#utility.yul\":17561:17624   */\n    tag_338:\n        /* \"#utility.yul\":17508:17630   */\n      pop\n      jump\t// out\n\n    auxdata: 0xa2646970667358221220f16ba6037e9592582cf2ef17f7973b3eb7fd165e33441156ab9f5d71fc64ba7d64736f6c63430008070033\n}\n",
				"bytecode": {
					"linkReferences": {},
					"object": "60806040526005600255600254600a6200001a919062000182565b600355600160045560016005553480156200003457600080fd5b5062000055620000496200005b60201b60201c565b6200006360201b60201c565b62000305565b600033905090565b60008060009054906101000a900473ffffffffffffffffffffffffffffffffffffffff169050816000806101000a81548173ffffffffffffffffffffffffffffffffffffffff021916908373ffffffffffffffffffffffffffffffffffffffff1602179055508173ffffffffffffffffffffffffffffffffffffffff168173ffffffffffffffffffffffffffffffffffffffff167f8be0079c531659141344cd1fd0a4f28419497f9722a3daafe3b4186f6b6457e060405160405180910390a35050565b6000808291508390505b60018511156200017957808604811115620001515762000150620002c9565b5b6001851615620001615780820291505b80810290506200017185620002f8565b945062000131565b94509492505050565b60006200018f82620002bf565b91506200019c83620002bf565b9250620001cb7fffffffffffffffffffffffffffffffffffffffffffffffffffffffffffffffff8484620001d3565b905092915050565b600082620001e55760019050620002b8565b81620001f55760009050620002b8565b81600181146200020e576002811462000219576200024f565b6001915050620002b8565b60ff8411156200022e576200022d620002c9565b5b8360020a915084821115620002485762000247620002c9565b5b50620002b8565b5060208310610133831016604e8410600b8410161715620002895782820a905083811115620002835762000282620002c9565b5b620002b8565b62000298848484600162000127565b92509050818404811115620002b257620002b1620002c9565b5b81810290505b9392505050565b6000819050919050565b7f4e487b7100000000000000000000000000000000000000000000000000000000600052601160045260246000fd5b60008160011c9050919050565b61136f80620003156000396000f3fe608060405234801561001057600080fd5b506004361061007d5760003560e01c806391bfe0d41161005b57806391bfe0d4146100da578063aeda852f1461010a578063f1f08d4d14610140578063f2fde38b146101705761007d565b80633c3b0b4a14610082578063715018a6146100b25780638da5cb5b146100bc575b600080fd5b61009c60048036038101906100979190610a2b565b61018c565b6040516100a99190610ca3565b60405180910390f35b6100ba61029e565b005b6100c4610326565b6040516100d19190610c88565b60405180910390f35b6100f460048036038101906100ef9190610a58565b61034f565b6040516101019190610d65565b60405180910390f35b610124600480360381019061011f9190610a2b565b61058d565b6040516101379796959493929190610dcc565b60405180910390f35b61015a60048036038101906101559190610a2b565b610684565b6040516101679190610d65565b60405180910390f35b61018a600480360381019061018591906109fe565b6106a8565b005b60603373ffffffffffffffffffffffffffffffffffffffff166007600084815260200190815260200160002060040160009054906101000a900473ffffffffffffffffffffffffffffffffffffffff1673ffffffffffffffffffffffffffffffffffffffff1614610232576040517f08c379a000000000000000000000000000000000000000000000000000000000815260040161022990610d45565b60405180910390fd5b60016007600084815260200190815260200160002060060160006101000a81548160ff0219169083151502179055506040518060400160405280601581526020017f64656c69737420776173207375636365737366756c00000000000000000000008152509050919050565b6102a66107a0565b73ffffffffffffffffffffffffffffffffffffffff166102c4610326565b73ffffffffffffffffffffffffffffffffffffffff161461031a576040517f08c379a000000000000000000000000000000000000000000000000000000000815260040161031190610d05565b60405180910390fd5b61032460006107a8565b565b60008060009054906101000a900473ffffffffffffffffffffffffffffffffffffffff16905090565b600080848661035e9190610f15565b1161039e576040517f08c379a000000000000000000000000000000000000000000000000000000000815260040161039590610ce5565b60405180910390fd5b60006103ab84868561086c565b90506007600082815260200190815260200160002060000154811415610406576040517f08c379a00000000000000000000000000000000000000000000000000000000081526004016103fd90610d25565b60405180910390fd5b6040518060e0016040528082815260200160055481526020018781526020018681526020018573ffffffffffffffffffffffffffffffffffffffff16815260200184815260200160001515815250600760008381526020019081526020016000206000820151816000015560208201518160010155604082015181600201556060820151816003015560808201518160040160006101000a81548173ffffffffffffffffffffffffffffffffffffffff021916908373ffffffffffffffffffffffffffffffffffffffff16021790555060a08201518160050190805190602001906104f29291906108c1565b5060c08201518160060160006101000a81548160ff02191690831515021790555090505061052c600454426105279190610ebf565b6108b7565b6005600081548092919061053f9061105c565b91905055507f8f5afd88eb4be0ac287d87970052ce9a2b453448408e3c91a695ad7509ab7194818588866040516105799493929190610d80565b60405180910390a180915050949350505050565b60076020528060005260406000206000915090508060000154908060010154908060020154908060030154908060040160009054906101000a900473ffffffffffffffffffffffffffffffffffffffff16908060050180546105ee90610ff9565b80601f016020809104026020016040519081016040528092919081815260200182805461061a90610ff9565b80156106675780601f1061063c57610100808354040283529160200191610667565b820191906000526020600020905b81548152906001019060200180831161064a57829003601f168201915b5050505050908060060160009054906101000a900460ff16905087565b6006818154811061069457600080fd5b906000526020600020016000915090505481565b6106b06107a0565b73ffffffffffffffffffffffffffffffffffffffff166106ce610326565b73ffffffffffffffffffffffffffffffffffffffff1614610724576040517f08c379a000000000000000000000000000000000000000000000000000000000815260040161071b90610d05565b60405180910390fd5b600073ffffffffffffffffffffffffffffffffffffffff168173ffffffffffffffffffffffffffffffffffffffff161415610794576040517f08c379a000000000000000000000000000000000000000000000000000000000815260040161078b90610cc5565b60405180910390fd5b61079d816107a8565b50565b600033905090565b60008060009054906101000a900473ffffffffffffffffffffffffffffffffffffffff169050816000806101000a81548173ffffffffffffffffffffffffffffffffffffffff021916908373ffffffffffffffffffffffffffffffffffffffff1602179055508173ffffffffffffffffffffffffffffffffffffffff168173ffffffffffffffffffffffffffffffffffffffff167f8be0079c531659141344cd1fd0a4f28419497f9722a3daafe3b4186f6b6457e060405160405180910390a35050565b60008084848460405160200161088493929190610c4f565b6040516020818303038152906040528051906020012060001c9050600354816108ad91906110d3565b9150509392505050565b8060018190555050565b8280546108cd90610ff9565b90600052602060002090601f0160209004810192826108ef5760008555610936565b82601f1061090857805160ff1916838001178555610936565b82800160010185558215610936579182015b8281111561093557825182559160200191906001019061091a565b5b5090506109439190610947565b5090565b5b80821115610960576000816000905550600101610948565b5090565b600061097761097284610e67565b610e42565b905082815260208101848484011115610993576109926111c5565b5b61099e848285610fb7565b509392505050565b6000813590506109b58161130b565b92915050565b600082601f8301126109d0576109cf6111c0565b5b81356109e0848260208601610964565b91505092915050565b6000813590506109f881611322565b92915050565b600060208284031215610a1457610a136111cf565b5b6000610a22848285016109a6565b91505092915050565b600060208284031215610a4157610a406111cf565b5b6000610a4f848285016109e9565b91505092915050565b60008060008060808587031215610a7257610a716111cf565b5b6000610a80878288016109e9565b9450506020610a91878288016109e9565b9350506040610aa2878288016109a6565b925050606085013567ffffffffffffffff811115610ac357610ac26111ca565b5b610acf878288016109bb565b91505092959194509250565b610ae481610f6f565b82525050565b610afb610af682610f6f565b6110a5565b82525050565b610b0a81610f81565b82525050565b6000610b1b82610e98565b610b258185610ea3565b9350610b35818560208601610fc6565b610b3e816111d4565b840191505092915050565b6000610b5482610e98565b610b5e8185610eb4565b9350610b6e818560208601610fc6565b80840191505092915050565b6000610b87602683610ea3565b9150610b92826111f2565b604082019050919050565b6000610baa601483610ea3565b9150610bb582611241565b602082019050919050565b6000610bcd602083610ea3565b9150610bd88261126a565b602082019050919050565b6000610bf0601b83610ea3565b9150610bfb82611293565b602082019050919050565b6000610c13602b83610ea3565b9150610c1e826112bc565b604082019050919050565b610c3281610fad565b82525050565b610c49610c4482610fad565b6110c9565b82525050565b6000610c5b8286610aea565b601482019150610c6b8285610c38565b602082019150610c7b8284610b49565b9150819050949350505050565b6000602082019050610c9d6000830184610adb565b92915050565b60006020820190508181036000830152610cbd8184610b10565b905092915050565b60006020820190508181036000830152610cde81610b7a565b9050919050565b60006020820190508181036000830152610cfe81610b9d565b9050919050565b60006020820190508181036000830152610d1e81610bc0565b9050919050565b60006020820190508181036000830152610d3e81610be3565b9050919050565b60006020820190508181036000830152610d5e81610c06565b9050919050565b6000602082019050610d7a6000830184610c29565b92915050565b6000608082019050610d956000830187610c29565b610da26020830186610adb565b610daf6040830185610c29565b8181036060830152610dc18184610b10565b905095945050505050565b600060e082019050610de1600083018a610c29565b610dee6020830189610c29565b610dfb6040830188610c29565b610e086060830187610c29565b610e156080830186610adb565b81810360a0830152610e278185610b10565b9050610e3660c0830184610b01565b98975050505050505050565b6000610e4c610e5d565b9050610e58828261102b565b919050565b6000604051905090565b600067ffffffffffffffff821115610e8257610e81611191565b5b610e8b826111d4565b9050602081019050919050565b600081519050919050565b600082825260208201905092915050565b600081905092915050565b6000610eca82610fad565b9150610ed583610fad565b9250827fffffffffffffffffffffffffffffffffffffffffffffffffffffffffffffffff03821115610f0a57610f09611104565b5b828201905092915050565b6000610f2082610fad565b9150610f2b83610fad565b9250817fffffffffffffffffffffffffffffffffffffffffffffffffffffffffffffffff0483118215151615610f6457610f63611104565b5b828202905092915050565b6000610f7a82610f8d565b9050919050565b60008115159050919050565b600073ffffffffffffffffffffffffffffffffffffffff82169050919050565b6000819050919050565b82818337600083830152505050565b60005b83811015610fe4578082015181840152602081019050610fc9565b83811115610ff3576000848401525b50505050565b6000600282049050600182168061101157607f821691505b6020821081141561102557611024611162565b5b50919050565b611034826111d4565b810181811067ffffffffffffffff8211171561105357611052611191565b5b80604052505050565b600061106782610fad565b91507fffffffffffffffffffffffffffffffffffffffffffffffffffffffffffffffff82141561109a57611099611104565b5b600182019050919050565b60006110b0826110b7565b9050919050565b60006110c2826111e5565b9050919050565b6000819050919050565b60006110de82610fad565b91506110e983610fad565b9250826110f9576110f8611133565b5b828206905092915050565b7f4e487b7100000000000000000000000000000000000000000000000000000000600052601160045260246000fd5b7f4e487b7100000000000000000000000000000000000000000000000000000000600052601260045260246000fd5b7f4e487b7100000000000000000000000000000000000000000000000000000000600052602260045260246000fd5b7f4e487b7100000000000000000000000000000000000000000000000000000000600052604160045260246000fd5b600080fd5b600080fd5b600080fd5b600080fd5b6000601f19601f8301169050919050565b60008160601b9050919050565b7f4f776e61626c653a206e6577206f776e657220697320746865207a65726f206160008201527f6464726573730000000000000000000000000000000000000000000000000000602082015250565b7f76616c75652063616e6e6f74206265206e756c6c000000000000000000000000600082015250565b7f4f776e61626c653a2063616c6c6572206973206e6f7420746865206f776e6572600082015250565b7f7468697320686f757365496420616c7265616479206578697374730000000000600082015250565b7f596f7520646f206e6f7420686176652061636365737320746f2064656c65746560008201527f207468697320686f757365000000000000000000000000000000000000000000602082015250565b61131481610f6f565b811461131f57600080fd5b50565b61132b81610fad565b811461133657600080fd5b5056fea2646970667358221220f16ba6037e9592582cf2ef17f7973b3eb7fd165e33441156ab9f5d71fc64ba7d64736f6c63430008070033",
					"opcodes": "PUSH1 0x80 PUSH1 0x40 MSTORE PUSH1 0x5 PUSH1 0x2 SSTORE PUSH1 0x2 SLOAD PUSH1 0xA PUSH3 0x1A SWAP2 SWAP1 PUSH3 0x182 JUMP JUMPDEST PUSH1 0x3 SSTORE PUSH1 0x1 PUSH1 0x4 SSTORE PUSH1 0x1 PUSH1 0x5 SSTORE CALLVALUE DUP1 ISZERO PUSH3 0x34 JUMPI PUSH1 0x0 DUP1 REVERT JUMPDEST POP PUSH3 0x55 PUSH3 0x49 PUSH3 0x5B PUSH1 0x20 SHL PUSH1 0x20 SHR JUMP JUMPDEST PUSH3 0x63 PUSH1 0x20 SHL PUSH1 0x20 SHR JUMP JUMPDEST PUSH3 0x305 JUMP JUMPDEST PUSH1 0x0 CALLER SWAP1 POP SWAP1 JUMP JUMPDEST PUSH1 0x0 DUP1 PUSH1 0x0 SWAP1 SLOAD SWAP1 PUSH2 0x100 EXP SWAP1 DIV PUSH20 0xFFFFFFFFFFFFFFFFFFFFFFFFFFFFFFFFFFFFFFFF AND SWAP1 POP DUP2 PUSH1 0x0 DUP1 PUSH2 0x100 EXP DUP2 SLOAD DUP2 PUSH20 0xFFFFFFFFFFFFFFFFFFFFFFFFFFFFFFFFFFFFFFFF MUL NOT AND SWAP1 DUP4 PUSH20 0xFFFFFFFFFFFFFFFFFFFFFFFFFFFFFFFFFFFFFFFF AND MUL OR SWAP1 SSTORE POP DUP2 PUSH20 0xFFFFFFFFFFFFFFFFFFFFFFFFFFFFFFFFFFFFFFFF AND DUP2 PUSH20 0xFFFFFFFFFFFFFFFFFFFFFFFFFFFFFFFFFFFFFFFF AND PUSH32 0x8BE0079C531659141344CD1FD0A4F28419497F9722A3DAAFE3B4186F6B6457E0 PUSH1 0x40 MLOAD PUSH1 0x40 MLOAD DUP1 SWAP2 SUB SWAP1 LOG3 POP POP JUMP JUMPDEST PUSH1 0x0 DUP1 DUP3 SWAP2 POP DUP4 SWAP1 POP JUMPDEST PUSH1 0x1 DUP6 GT ISZERO PUSH3 0x179 JUMPI DUP1 DUP7 DIV DUP2 GT ISZERO PUSH3 0x151 JUMPI PUSH3 0x150 PUSH3 0x2C9 JUMP JUMPDEST JUMPDEST PUSH1 0x1 DUP6 AND ISZERO PUSH3 0x161 JUMPI DUP1 DUP3 MUL SWAP2 POP JUMPDEST DUP1 DUP2 MUL SWAP1 POP PUSH3 0x171 DUP6 PUSH3 0x2F8 JUMP JUMPDEST SWAP5 POP PUSH3 0x131 JUMP JUMPDEST SWAP5 POP SWAP5 SWAP3 POP POP POP JUMP JUMPDEST PUSH1 0x0 PUSH3 0x18F DUP3 PUSH3 0x2BF JUMP JUMPDEST SWAP2 POP PUSH3 0x19C DUP4 PUSH3 0x2BF JUMP JUMPDEST SWAP3 POP PUSH3 0x1CB PUSH32 0xFFFFFFFFFFFFFFFFFFFFFFFFFFFFFFFFFFFFFFFFFFFFFFFFFFFFFFFFFFFFFFFF DUP5 DUP5 PUSH3 0x1D3 JUMP JUMPDEST SWAP1 POP SWAP3 SWAP2 POP POP JUMP JUMPDEST PUSH1 0x0 DUP3 PUSH3 0x1E5 JUMPI PUSH1 0x1 SWAP1 POP PUSH3 0x2B8 JUMP JUMPDEST DUP2 PUSH3 0x1F5 JUMPI PUSH1 0x0 SWAP1 POP PUSH3 0x2B8 JUMP JUMPDEST DUP2 PUSH1 0x1 DUP2 EQ PUSH3 0x20E JUMPI PUSH1 0x2 DUP2 EQ PUSH3 0x219 JUMPI PUSH3 0x24F JUMP JUMPDEST PUSH1 0x1 SWAP2 POP POP PUSH3 0x2B8 JUMP JUMPDEST PUSH1 0xFF DUP5 GT ISZERO PUSH3 0x22E JUMPI PUSH3 0x22D PUSH3 0x2C9 JUMP JUMPDEST JUMPDEST DUP4 PUSH1 0x2 EXP SWAP2 POP DUP5 DUP3 GT ISZERO PUSH3 0x248 JUMPI PUSH3 0x247 PUSH3 0x2C9 JUMP JUMPDEST JUMPDEST POP PUSH3 0x2B8 JUMP JUMPDEST POP PUSH1 0x20 DUP4 LT PUSH2 0x133 DUP4 LT AND PUSH1 0x4E DUP5 LT PUSH1 0xB DUP5 LT AND OR ISZERO PUSH3 0x289 JUMPI DUP3 DUP3 EXP SWAP1 POP DUP4 DUP2 GT ISZERO PUSH3 0x283 JUMPI PUSH3 0x282 PUSH3 0x2C9 JUMP JUMPDEST JUMPDEST PUSH3 0x2B8 JUMP JUMPDEST PUSH3 0x298 DUP5 DUP5 DUP5 PUSH1 0x1 PUSH3 0x127 JUMP JUMPDEST SWAP3 POP SWAP1 POP DUP2 DUP5 DIV DUP2 GT ISZERO PUSH3 0x2B2 JUMPI PUSH3 0x2B1 PUSH3 0x2C9 JUMP JUMPDEST JUMPDEST DUP2 DUP2 MUL SWAP1 POP JUMPDEST SWAP4 SWAP3 POP POP POP JUMP JUMPDEST PUSH1 0x0 DUP2 SWAP1 POP SWAP2 SWAP1 POP JUMP JUMPDEST PUSH32 0x4E487B7100000000000000000000000000000000000000000000000000000000 PUSH1 0x0 MSTORE PUSH1 0x11 PUSH1 0x4 MSTORE PUSH1 0x24 PUSH1 0x0 REVERT JUMPDEST PUSH1 0x0 DUP2 PUSH1 0x1 SHR SWAP1 POP SWAP2 SWAP1 POP JUMP JUMPDEST PUSH2 0x136F DUP1 PUSH3 0x315 PUSH1 0x0 CODECOPY PUSH1 0x0 RETURN INVALID PUSH1 0x80 PUSH1 0x40 MSTORE CALLVALUE DUP1 ISZERO PUSH2 0x10 JUMPI PUSH1 0x0 DUP1 REVERT JUMPDEST POP PUSH1 0x4 CALLDATASIZE LT PUSH2 0x7D JUMPI PUSH1 0x0 CALLDATALOAD PUSH1 0xE0 SHR DUP1 PUSH4 0x91BFE0D4 GT PUSH2 0x5B JUMPI DUP1 PUSH4 0x91BFE0D4 EQ PUSH2 0xDA JUMPI DUP1 PUSH4 0xAEDA852F EQ PUSH2 0x10A JUMPI DUP1 PUSH4 0xF1F08D4D EQ PUSH2 0x140 JUMPI DUP1 PUSH4 0xF2FDE38B EQ PUSH2 0x170 JUMPI PUSH2 0x7D JUMP JUMPDEST DUP1 PUSH4 0x3C3B0B4A EQ PUSH2 0x82 JUMPI DUP1 PUSH4 0x715018A6 EQ PUSH2 0xB2 JUMPI DUP1 PUSH4 0x8DA5CB5B EQ PUSH2 0xBC JUMPI JUMPDEST PUSH1 0x0 DUP1 REVERT JUMPDEST PUSH2 0x9C PUSH1 0x4 DUP1 CALLDATASIZE SUB DUP2 ADD SWAP1 PUSH2 0x97 SWAP2 SWAP1 PUSH2 0xA2B JUMP JUMPDEST PUSH2 0x18C JUMP JUMPDEST PUSH1 0x40 MLOAD PUSH2 0xA9 SWAP2 SWAP1 PUSH2 0xCA3 JUMP JUMPDEST PUSH1 0x40 MLOAD DUP1 SWAP2 SUB SWAP1 RETURN JUMPDEST PUSH2 0xBA PUSH2 0x29E JUMP JUMPDEST STOP JUMPDEST PUSH2 0xC4 PUSH2 0x326 JUMP JUMPDEST PUSH1 0x40 MLOAD PUSH2 0xD1 SWAP2 SWAP1 PUSH2 0xC88 JUMP JUMPDEST PUSH1 0x40 MLOAD DUP1 SWAP2 SUB SWAP1 RETURN JUMPDEST PUSH2 0xF4 PUSH1 0x4 DUP1 CALLDATASIZE SUB DUP2 ADD SWAP1 PUSH2 0xEF SWAP2 SWAP1 PUSH2 0xA58 JUMP JUMPDEST PUSH2 0x34F JUMP JUMPDEST PUSH1 0x40 MLOAD PUSH2 0x101 SWAP2 SWAP1 PUSH2 0xD65 JUMP JUMPDEST PUSH1 0x40 MLOAD DUP1 SWAP2 SUB SWAP1 RETURN JUMPDEST PUSH2 0x124 PUSH1 0x4 DUP1 CALLDATASIZE SUB DUP2 ADD SWAP1 PUSH2 0x11F SWAP2 SWAP1 PUSH2 0xA2B JUMP JUMPDEST PUSH2 0x58D JUMP JUMPDEST PUSH1 0x40 MLOAD PUSH2 0x137 SWAP8 SWAP7 SWAP6 SWAP5 SWAP4 SWAP3 SWAP2 SWAP1 PUSH2 0xDCC JUMP JUMPDEST PUSH1 0x40 MLOAD DUP1 SWAP2 SUB SWAP1 RETURN JUMPDEST PUSH2 0x15A PUSH1 0x4 DUP1 CALLDATASIZE SUB DUP2 ADD SWAP1 PUSH2 0x155 SWAP2 SWAP1 PUSH2 0xA2B JUMP JUMPDEST PUSH2 0x684 JUMP JUMPDEST PUSH1 0x40 MLOAD PUSH2 0x167 SWAP2 SWAP1 PUSH2 0xD65 JUMP JUMPDEST PUSH1 0x40 MLOAD DUP1 SWAP2 SUB SWAP1 RETURN JUMPDEST PUSH2 0x18A PUSH1 0x4 DUP1 CALLDATASIZE SUB DUP2 ADD SWAP1 PUSH2 0x185 SWAP2 SWAP1 PUSH2 0x9FE JUMP JUMPDEST PUSH2 0x6A8 JUMP JUMPDEST STOP JUMPDEST PUSH1 0x60 CALLER PUSH20 0xFFFFFFFFFFFFFFFFFFFFFFFFFFFFFFFFFFFFFFFF AND PUSH1 0x7 PUSH1 0x0 DUP5 DUP2 MSTORE PUSH1 0x20 ADD SWAP1 DUP2 MSTORE PUSH1 0x20 ADD PUSH1 0x0 KECCAK256 PUSH1 0x4 ADD PUSH1 0x0 SWAP1 SLOAD SWAP1 PUSH2 0x100 EXP SWAP1 DIV PUSH20 0xFFFFFFFFFFFFFFFFFFFFFFFFFFFFFFFFFFFFFFFF AND PUSH20 0xFFFFFFFFFFFFFFFFFFFFFFFFFFFFFFFFFFFFFFFF AND EQ PUSH2 0x232 JUMPI PUSH1 0x40 MLOAD PUSH32 0x8C379A000000000000000000000000000000000000000000000000000000000 DUP2 MSTORE PUSH1 0x4 ADD PUSH2 0x229 SWAP1 PUSH2 0xD45 JUMP JUMPDEST PUSH1 0x40 MLOAD DUP1 SWAP2 SUB SWAP1 REVERT JUMPDEST PUSH1 0x1 PUSH1 0x7 PUSH1 0x0 DUP5 DUP2 MSTORE PUSH1 0x20 ADD SWAP1 DUP2 MSTORE PUSH1 0x20 ADD PUSH1 0x0 KECCAK256 PUSH1 0x6 ADD PUSH1 0x0 PUSH2 0x100 EXP DUP2 SLOAD DUP2 PUSH1 0xFF MUL NOT AND SWAP1 DUP4 ISZERO ISZERO MUL OR SWAP1 SSTORE POP PUSH1 0x40 MLOAD DUP1 PUSH1 0x40 ADD PUSH1 0x40 MSTORE DUP1 PUSH1 0x15 DUP2 MSTORE PUSH1 0x20 ADD PUSH32 0x64656C69737420776173207375636365737366756C0000000000000000000000 DUP2 MSTORE POP SWAP1 POP SWAP2 SWAP1 POP JUMP JUMPDEST PUSH2 0x2A6 PUSH2 0x7A0 JUMP JUMPDEST PUSH20 0xFFFFFFFFFFFFFFFFFFFFFFFFFFFFFFFFFFFFFFFF AND PUSH2 0x2C4 PUSH2 0x326 JUMP JUMPDEST PUSH20 0xFFFFFFFFFFFFFFFFFFFFFFFFFFFFFFFFFFFFFFFF AND EQ PUSH2 0x31A JUMPI PUSH1 0x40 MLOAD PUSH32 0x8C379A000000000000000000000000000000000000000000000000000000000 DUP2 MSTORE PUSH1 0x4 ADD PUSH2 0x311 SWAP1 PUSH2 0xD05 JUMP JUMPDEST PUSH1 0x40 MLOAD DUP1 SWAP2 SUB SWAP1 REVERT JUMPDEST PUSH2 0x324 PUSH1 0x0 PUSH2 0x7A8 JUMP JUMPDEST JUMP JUMPDEST PUSH1 0x0 DUP1 PUSH1 0x0 SWAP1 SLOAD SWAP1 PUSH2 0x100 EXP SWAP1 DIV PUSH20 0xFFFFFFFFFFFFFFFFFFFFFFFFFFFFFFFFFFFFFFFF AND SWAP1 POP SWAP1 JUMP JUMPDEST PUSH1 0x0 DUP1 DUP5 DUP7 PUSH2 0x35E SWAP2 SWAP1 PUSH2 0xF15 JUMP JUMPDEST GT PUSH2 0x39E JUMPI PUSH1 0x40 MLOAD PUSH32 0x8C379A000000000000000000000000000000000000000000000000000000000 DUP2 MSTORE PUSH1 0x4 ADD PUSH2 0x395 SWAP1 PUSH2 0xCE5 JUMP JUMPDEST PUSH1 0x40 MLOAD DUP1 SWAP2 SUB SWAP1 REVERT JUMPDEST PUSH1 0x0 PUSH2 0x3AB DUP5 DUP7 DUP6 PUSH2 0x86C JUMP JUMPDEST SWAP1 POP PUSH1 0x7 PUSH1 0x0 DUP3 DUP2 MSTORE PUSH1 0x20 ADD SWAP1 DUP2 MSTORE PUSH1 0x20 ADD PUSH1 0x0 KECCAK256 PUSH1 0x0 ADD SLOAD DUP2 EQ ISZERO PUSH2 0x406 JUMPI PUSH1 0x40 MLOAD PUSH32 0x8C379A000000000000000000000000000000000000000000000000000000000 DUP2 MSTORE PUSH1 0x4 ADD PUSH2 0x3FD SWAP1 PUSH2 0xD25 JUMP JUMPDEST PUSH1 0x40 MLOAD DUP1 SWAP2 SUB SWAP1 REVERT JUMPDEST PUSH1 0x40 MLOAD DUP1 PUSH1 0xE0 ADD PUSH1 0x40 MSTORE DUP1 DUP3 DUP2 MSTORE PUSH1 0x20 ADD PUSH1 0x5 SLOAD DUP2 MSTORE PUSH1 0x20 ADD DUP8 DUP2 MSTORE PUSH1 0x20 ADD DUP7 DUP2 MSTORE PUSH1 0x20 ADD DUP6 PUSH20 0xFFFFFFFFFFFFFFFFFFFFFFFFFFFFFFFFFFFFFFFF AND DUP2 MSTORE PUSH1 0x20 ADD DUP5 DUP2 MSTORE PUSH1 0x20 ADD PUSH1 0x0 ISZERO ISZERO DUP2 MSTORE POP PUSH1 0x7 PUSH1 0x0 DUP4 DUP2 MSTORE PUSH1 0x20 ADD SWAP1 DUP2 MSTORE PUSH1 0x20 ADD PUSH1 0x0 KECCAK256 PUSH1 0x0 DUP3 ADD MLOAD DUP2 PUSH1 0x0 ADD SSTORE PUSH1 0x20 DUP3 ADD MLOAD DUP2 PUSH1 0x1 ADD SSTORE PUSH1 0x40 DUP3 ADD MLOAD DUP2 PUSH1 0x2 ADD SSTORE PUSH1 0x60 DUP3 ADD MLOAD DUP2 PUSH1 0x3 ADD SSTORE PUSH1 0x80 DUP3 ADD MLOAD DUP2 PUSH1 0x4 ADD PUSH1 0x0 PUSH2 0x100 EXP DUP2 SLOAD DUP2 PUSH20 0xFFFFFFFFFFFFFFFFFFFFFFFFFFFFFFFFFFFFFFFF MUL NOT AND SWAP1 DUP4 PUSH20 0xFFFFFFFFFFFFFFFFFFFFFFFFFFFFFFFFFFFFFFFF AND MUL OR SWAP1 SSTORE POP PUSH1 0xA0 DUP3 ADD MLOAD DUP2 PUSH1 0x5 ADD SWAP1 DUP1 MLOAD SWAP1 PUSH1 0x20 ADD SWAP1 PUSH2 0x4F2 SWAP3 SWAP2 SWAP1 PUSH2 0x8C1 JUMP JUMPDEST POP PUSH1 0xC0 DUP3 ADD MLOAD DUP2 PUSH1 0x6 ADD PUSH1 0x0 PUSH2 0x100 EXP DUP2 SLOAD DUP2 PUSH1 0xFF MUL NOT AND SWAP1 DUP4 ISZERO ISZERO MUL OR SWAP1 SSTORE POP SWAP1 POP POP PUSH2 0x52C PUSH1 0x4 SLOAD TIMESTAMP PUSH2 0x527 SWAP2 SWAP1 PUSH2 0xEBF JUMP JUMPDEST PUSH2 0x8B7 JUMP JUMPDEST PUSH1 0x5 PUSH1 0x0 DUP2 SLOAD DUP1 SWAP3 SWAP2 SWAP1 PUSH2 0x53F SWAP1 PUSH2 0x105C JUMP JUMPDEST SWAP2 SWAP1 POP SSTORE POP PUSH32 0x8F5AFD88EB4BE0AC287D87970052CE9A2B453448408E3C91A695AD7509AB7194 DUP2 DUP6 DUP9 DUP7 PUSH1 0x40 MLOAD PUSH2 0x579 SWAP5 SWAP4 SWAP3 SWAP2 SWAP1 PUSH2 0xD80 JUMP JUMPDEST PUSH1 0x40 MLOAD DUP1 SWAP2 SUB SWAP1 LOG1 DUP1 SWAP2 POP POP SWAP5 SWAP4 POP POP POP POP JUMP JUMPDEST PUSH1 0x7 PUSH1 0x20 MSTORE DUP1 PUSH1 0x0 MSTORE PUSH1 0x40 PUSH1 0x0 KECCAK256 PUSH1 0x0 SWAP2 POP SWAP1 POP DUP1 PUSH1 0x0 ADD SLOAD SWAP1 DUP1 PUSH1 0x1 ADD SLOAD SWAP1 DUP1 PUSH1 0x2 ADD SLOAD SWAP1 DUP1 PUSH1 0x3 ADD SLOAD SWAP1 DUP1 PUSH1 0x4 ADD PUSH1 0x0 SWAP1 SLOAD SWAP1 PUSH2 0x100 EXP SWAP1 DIV PUSH20 0xFFFFFFFFFFFFFFFFFFFFFFFFFFFFFFFFFFFFFFFF AND SWAP1 DUP1 PUSH1 0x5 ADD DUP1 SLOAD PUSH2 0x5EE SWAP1 PUSH2 0xFF9 JUMP JUMPDEST DUP1 PUSH1 0x1F ADD PUSH1 0x20 DUP1 SWAP2 DIV MUL PUSH1 0x20 ADD PUSH1 0x40 MLOAD SWAP1 DUP2 ADD PUSH1 0x40 MSTORE DUP1 SWAP3 SWAP2 SWAP1 DUP2 DUP2 MSTORE PUSH1 0x20 ADD DUP3 DUP1 SLOAD PUSH2 0x61A SWAP1 PUSH2 0xFF9 JUMP JUMPDEST DUP1 ISZERO PUSH2 0x667 JUMPI DUP1 PUSH1 0x1F LT PUSH2 0x63C JUMPI PUSH2 0x100 DUP1 DUP4 SLOAD DIV MUL DUP4 MSTORE SWAP2 PUSH1 0x20 ADD SWAP2 PUSH2 0x667 JUMP JUMPDEST DUP3 ADD SWAP2 SWAP1 PUSH1 0x0 MSTORE PUSH1 0x20 PUSH1 0x0 KECCAK256 SWAP1 JUMPDEST DUP2 SLOAD DUP2 MSTORE SWAP1 PUSH1 0x1 ADD SWAP1 PUSH1 0x20 ADD DUP1 DUP4 GT PUSH2 0x64A JUMPI DUP3 SWAP1 SUB PUSH1 0x1F AND DUP3 ADD SWAP2 JUMPDEST POP POP POP POP POP SWAP1 DUP1 PUSH1 0x6 ADD PUSH1 0x0 SWAP1 SLOAD SWAP1 PUSH2 0x100 EXP SWAP1 DIV PUSH1 0xFF AND SWAP1 POP DUP8 JUMP JUMPDEST PUSH1 0x6 DUP2 DUP2 SLOAD DUP2 LT PUSH2 0x694 JUMPI PUSH1 0x0 DUP1 REVERT JUMPDEST SWAP1 PUSH1 0x0 MSTORE PUSH1 0x20 PUSH1 0x0 KECCAK256 ADD PUSH1 0x0 SWAP2 POP SWAP1 POP SLOAD DUP2 JUMP JUMPDEST PUSH2 0x6B0 PUSH2 0x7A0 JUMP JUMPDEST PUSH20 0xFFFFFFFFFFFFFFFFFFFFFFFFFFFFFFFFFFFFFFFF AND PUSH2 0x6CE PUSH2 0x326 JUMP JUMPDEST PUSH20 0xFFFFFFFFFFFFFFFFFFFFFFFFFFFFFFFFFFFFFFFF AND EQ PUSH2 0x724 JUMPI PUSH1 0x40 MLOAD PUSH32 0x8C379A000000000000000000000000000000000000000000000000000000000 DUP2 MSTORE PUSH1 0x4 ADD PUSH2 0x71B SWAP1 PUSH2 0xD05 JUMP JUMPDEST PUSH1 0x40 MLOAD DUP1 SWAP2 SUB SWAP1 REVERT JUMPDEST PUSH1 0x0 PUSH20 0xFFFFFFFFFFFFFFFFFFFFFFFFFFFFFFFFFFFFFFFF AND DUP2 PUSH20 0xFFFFFFFFFFFFFFFFFFFFFFFFFFFFFFFFFFFFFFFF AND EQ ISZERO PUSH2 0x794 JUMPI PUSH1 0x40 MLOAD PUSH32 0x8C379A000000000000000000000000000000000000000000000000000000000 DUP2 MSTORE PUSH1 0x4 ADD PUSH2 0x78B SWAP1 PUSH2 0xCC5 JUMP JUMPDEST PUSH1 0x40 MLOAD DUP1 SWAP2 SUB SWAP1 REVERT JUMPDEST PUSH2 0x79D DUP2 PUSH2 0x7A8 JUMP JUMPDEST POP JUMP JUMPDEST PUSH1 0x0 CALLER SWAP1 POP SWAP1 JUMP JUMPDEST PUSH1 0x0 DUP1 PUSH1 0x0 SWAP1 SLOAD SWAP1 PUSH2 0x100 EXP SWAP1 DIV PUSH20 0xFFFFFFFFFFFFFFFFFFFFFFFFFFFFFFFFFFFFFFFF AND SWAP1 POP DUP2 PUSH1 0x0 DUP1 PUSH2 0x100 EXP DUP2 SLOAD DUP2 PUSH20 0xFFFFFFFFFFFFFFFFFFFFFFFFFFFFFFFFFFFFFFFF MUL NOT AND SWAP1 DUP4 PUSH20 0xFFFFFFFFFFFFFFFFFFFFFFFFFFFFFFFFFFFFFFFF AND MUL OR SWAP1 SSTORE POP DUP2 PUSH20 0xFFFFFFFFFFFFFFFFFFFFFFFFFFFFFFFFFFFFFFFF AND DUP2 PUSH20 0xFFFFFFFFFFFFFFFFFFFFFFFFFFFFFFFFFFFFFFFF AND PUSH32 0x8BE0079C531659141344CD1FD0A4F28419497F9722A3DAAFE3B4186F6B6457E0 PUSH1 0x40 MLOAD PUSH1 0x40 MLOAD DUP1 SWAP2 SUB SWAP1 LOG3 POP POP JUMP JUMPDEST PUSH1 0x0 DUP1 DUP5 DUP5 DUP5 PUSH1 0x40 MLOAD PUSH1 0x20 ADD PUSH2 0x884 SWAP4 SWAP3 SWAP2 SWAP1 PUSH2 0xC4F JUMP JUMPDEST PUSH1 0x40 MLOAD PUSH1 0x20 DUP2 DUP4 SUB SUB DUP2 MSTORE SWAP1 PUSH1 0x40 MSTORE DUP1 MLOAD SWAP1 PUSH1 0x20 ADD KECCAK256 PUSH1 0x0 SHR SWAP1 POP PUSH1 0x3 SLOAD DUP2 PUSH2 0x8AD SWAP2 SWAP1 PUSH2 0x10D3 JUMP JUMPDEST SWAP2 POP POP SWAP4 SWAP3 POP POP POP JUMP JUMPDEST DUP1 PUSH1 0x1 DUP2 SWAP1 SSTORE POP POP JUMP JUMPDEST DUP3 DUP1 SLOAD PUSH2 0x8CD SWAP1 PUSH2 0xFF9 JUMP JUMPDEST SWAP1 PUSH1 0x0 MSTORE PUSH1 0x20 PUSH1 0x0 KECCAK256 SWAP1 PUSH1 0x1F ADD PUSH1 0x20 SWAP1 DIV DUP2 ADD SWAP3 DUP3 PUSH2 0x8EF JUMPI PUSH1 0x0 DUP6 SSTORE PUSH2 0x936 JUMP JUMPDEST DUP3 PUSH1 0x1F LT PUSH2 0x908 JUMPI DUP1 MLOAD PUSH1 0xFF NOT AND DUP4 DUP1 ADD OR DUP6 SSTORE PUSH2 0x936 JUMP JUMPDEST DUP3 DUP1 ADD PUSH1 0x1 ADD DUP6 SSTORE DUP3 ISZERO PUSH2 0x936 JUMPI SWAP2 DUP3 ADD JUMPDEST DUP3 DUP2 GT ISZERO PUSH2 0x935 JUMPI DUP3 MLOAD DUP3 SSTORE SWAP2 PUSH1 0x20 ADD SWAP2 SWAP1 PUSH1 0x1 ADD SWAP1 PUSH2 0x91A JUMP JUMPDEST JUMPDEST POP SWAP1 POP PUSH2 0x943 SWAP2 SWAP1 PUSH2 0x947 JUMP JUMPDEST POP SWAP1 JUMP JUMPDEST JUMPDEST DUP1 DUP3 GT ISZERO PUSH2 0x960 JUMPI PUSH1 0x0 DUP2 PUSH1 0x0 SWAP1 SSTORE POP PUSH1 0x1 ADD PUSH2 0x948 JUMP JUMPDEST POP SWAP1 JUMP JUMPDEST PUSH1 0x0 PUSH2 0x977 PUSH2 0x972 DUP5 PUSH2 0xE67 JUMP JUMPDEST PUSH2 0xE42 JUMP JUMPDEST SWAP1 POP DUP3 DUP2 MSTORE PUSH1 0x20 DUP2 ADD DUP5 DUP5 DUP5 ADD GT ISZERO PUSH2 0x993 JUMPI PUSH2 0x992 PUSH2 0x11C5 JUMP JUMPDEST JUMPDEST PUSH2 0x99E DUP5 DUP3 DUP6 PUSH2 0xFB7 JUMP JUMPDEST POP SWAP4 SWAP3 POP POP POP JUMP JUMPDEST PUSH1 0x0 DUP2 CALLDATALOAD SWAP1 POP PUSH2 0x9B5 DUP2 PUSH2 0x130B JUMP JUMPDEST SWAP3 SWAP2 POP POP JUMP JUMPDEST PUSH1 0x0 DUP3 PUSH1 0x1F DUP4 ADD SLT PUSH2 0x9D0 JUMPI PUSH2 0x9CF PUSH2 0x11C0 JUMP JUMPDEST JUMPDEST DUP2 CALLDATALOAD PUSH2 0x9E0 DUP5 DUP3 PUSH1 0x20 DUP7 ADD PUSH2 0x964 JUMP JUMPDEST SWAP2 POP POP SWAP3 SWAP2 POP POP JUMP JUMPDEST PUSH1 0x0 DUP2 CALLDATALOAD SWAP1 POP PUSH2 0x9F8 DUP2 PUSH2 0x1322 JUMP JUMPDEST SWAP3 SWAP2 POP POP JUMP JUMPDEST PUSH1 0x0 PUSH1 0x20 DUP3 DUP5 SUB SLT ISZERO PUSH2 0xA14 JUMPI PUSH2 0xA13 PUSH2 0x11CF JUMP JUMPDEST JUMPDEST PUSH1 0x0 PUSH2 0xA22 DUP5 DUP3 DUP6 ADD PUSH2 0x9A6 JUMP JUMPDEST SWAP2 POP POP SWAP3 SWAP2 POP POP JUMP JUMPDEST PUSH1 0x0 PUSH1 0x20 DUP3 DUP5 SUB SLT ISZERO PUSH2 0xA41 JUMPI PUSH2 0xA40 PUSH2 0x11CF JUMP JUMPDEST JUMPDEST PUSH1 0x0 PUSH2 0xA4F DUP5 DUP3 DUP6 ADD PUSH2 0x9E9 JUMP JUMPDEST SWAP2 POP POP SWAP3 SWAP2 POP POP JUMP JUMPDEST PUSH1 0x0 DUP1 PUSH1 0x0 DUP1 PUSH1 0x80 DUP6 DUP8 SUB SLT ISZERO PUSH2 0xA72 JUMPI PUSH2 0xA71 PUSH2 0x11CF JUMP JUMPDEST JUMPDEST PUSH1 0x0 PUSH2 0xA80 DUP8 DUP3 DUP9 ADD PUSH2 0x9E9 JUMP JUMPDEST SWAP5 POP POP PUSH1 0x20 PUSH2 0xA91 DUP8 DUP3 DUP9 ADD PUSH2 0x9E9 JUMP JUMPDEST SWAP4 POP POP PUSH1 0x40 PUSH2 0xAA2 DUP8 DUP3 DUP9 ADD PUSH2 0x9A6 JUMP JUMPDEST SWAP3 POP POP PUSH1 0x60 DUP6 ADD CALLDATALOAD PUSH8 0xFFFFFFFFFFFFFFFF DUP2 GT ISZERO PUSH2 0xAC3 JUMPI PUSH2 0xAC2 PUSH2 0x11CA JUMP JUMPDEST JUMPDEST PUSH2 0xACF DUP8 DUP3 DUP9 ADD PUSH2 0x9BB JUMP JUMPDEST SWAP2 POP POP SWAP3 SWAP6 SWAP2 SWAP5 POP SWAP3 POP JUMP JUMPDEST PUSH2 0xAE4 DUP2 PUSH2 0xF6F JUMP JUMPDEST DUP3 MSTORE POP POP JUMP JUMPDEST PUSH2 0xAFB PUSH2 0xAF6 DUP3 PUSH2 0xF6F JUMP JUMPDEST PUSH2 0x10A5 JUMP JUMPDEST DUP3 MSTORE POP POP JUMP JUMPDEST PUSH2 0xB0A DUP2 PUSH2 0xF81 JUMP JUMPDEST DUP3 MSTORE POP POP JUMP JUMPDEST PUSH1 0x0 PUSH2 0xB1B DUP3 PUSH2 0xE98 JUMP JUMPDEST PUSH2 0xB25 DUP2 DUP6 PUSH2 0xEA3 JUMP JUMPDEST SWAP4 POP PUSH2 0xB35 DUP2 DUP6 PUSH1 0x20 DUP7 ADD PUSH2 0xFC6 JUMP JUMPDEST PUSH2 0xB3E DUP2 PUSH2 0x11D4 JUMP JUMPDEST DUP5 ADD SWAP2 POP POP SWAP3 SWAP2 POP POP JUMP JUMPDEST PUSH1 0x0 PUSH2 0xB54 DUP3 PUSH2 0xE98 JUMP JUMPDEST PUSH2 0xB5E DUP2 DUP6 PUSH2 0xEB4 JUMP JUMPDEST SWAP4 POP PUSH2 0xB6E DUP2 DUP6 PUSH1 0x20 DUP7 ADD PUSH2 0xFC6 JUMP JUMPDEST DUP1 DUP5 ADD SWAP2 POP POP SWAP3 SWAP2 POP POP JUMP JUMPDEST PUSH1 0x0 PUSH2 0xB87 PUSH1 0x26 DUP4 PUSH2 0xEA3 JUMP JUMPDEST SWAP2 POP PUSH2 0xB92 DUP3 PUSH2 0x11F2 JUMP JUMPDEST PUSH1 0x40 DUP3 ADD SWAP1 POP SWAP2 SWAP1 POP JUMP JUMPDEST PUSH1 0x0 PUSH2 0xBAA PUSH1 0x14 DUP4 PUSH2 0xEA3 JUMP JUMPDEST SWAP2 POP PUSH2 0xBB5 DUP3 PUSH2 0x1241 JUMP JUMPDEST PUSH1 0x20 DUP3 ADD SWAP1 POP SWAP2 SWAP1 POP JUMP JUMPDEST PUSH1 0x0 PUSH2 0xBCD PUSH1 0x20 DUP4 PUSH2 0xEA3 JUMP JUMPDEST SWAP2 POP PUSH2 0xBD8 DUP3 PUSH2 0x126A JUMP JUMPDEST PUSH1 0x20 DUP3 ADD SWAP1 POP SWAP2 SWAP1 POP JUMP JUMPDEST PUSH1 0x0 PUSH2 0xBF0 PUSH1 0x1B DUP4 PUSH2 0xEA3 JUMP JUMPDEST SWAP2 POP PUSH2 0xBFB DUP3 PUSH2 0x1293 JUMP JUMPDEST PUSH1 0x20 DUP3 ADD SWAP1 POP SWAP2 SWAP1 POP JUMP JUMPDEST PUSH1 0x0 PUSH2 0xC13 PUSH1 0x2B DUP4 PUSH2 0xEA3 JUMP JUMPDEST SWAP2 POP PUSH2 0xC1E DUP3 PUSH2 0x12BC JUMP JUMPDEST PUSH1 0x40 DUP3 ADD SWAP1 POP SWAP2 SWAP1 POP JUMP JUMPDEST PUSH2 0xC32 DUP2 PUSH2 0xFAD JUMP JUMPDEST DUP3 MSTORE POP POP JUMP JUMPDEST PUSH2 0xC49 PUSH2 0xC44 DUP3 PUSH2 0xFAD JUMP JUMPDEST PUSH2 0x10C9 JUMP JUMPDEST DUP3 MSTORE POP POP JUMP JUMPDEST PUSH1 0x0 PUSH2 0xC5B DUP3 DUP7 PUSH2 0xAEA JUMP JUMPDEST PUSH1 0x14 DUP3 ADD SWAP2 POP PUSH2 0xC6B DUP3 DUP6 PUSH2 0xC38 JUMP JUMPDEST PUSH1 0x20 DUP3 ADD SWAP2 POP PUSH2 0xC7B DUP3 DUP5 PUSH2 0xB49 JUMP JUMPDEST SWAP2 POP DUP2 SWAP1 POP SWAP5 SWAP4 POP POP POP POP JUMP JUMPDEST PUSH1 0x0 PUSH1 0x20 DUP3 ADD SWAP1 POP PUSH2 0xC9D PUSH1 0x0 DUP4 ADD DUP5 PUSH2 0xADB JUMP JUMPDEST SWAP3 SWAP2 POP POP JUMP JUMPDEST PUSH1 0x0 PUSH1 0x20 DUP3 ADD SWAP1 POP DUP2 DUP2 SUB PUSH1 0x0 DUP4 ADD MSTORE PUSH2 0xCBD DUP2 DUP5 PUSH2 0xB10 JUMP JUMPDEST SWAP1 POP SWAP3 SWAP2 POP POP JUMP JUMPDEST PUSH1 0x0 PUSH1 0x20 DUP3 ADD SWAP1 POP DUP2 DUP2 SUB PUSH1 0x0 DUP4 ADD MSTORE PUSH2 0xCDE DUP2 PUSH2 0xB7A JUMP JUMPDEST SWAP1 POP SWAP2 SWAP1 POP JUMP JUMPDEST PUSH1 0x0 PUSH1 0x20 DUP3 ADD SWAP1 POP DUP2 DUP2 SUB PUSH1 0x0 DUP4 ADD MSTORE PUSH2 0xCFE DUP2 PUSH2 0xB9D JUMP JUMPDEST SWAP1 POP SWAP2 SWAP1 POP JUMP JUMPDEST PUSH1 0x0 PUSH1 0x20 DUP3 ADD SWAP1 POP DUP2 DUP2 SUB PUSH1 0x0 DUP4 ADD MSTORE PUSH2 0xD1E DUP2 PUSH2 0xBC0 JUMP JUMPDEST SWAP1 POP SWAP2 SWAP1 POP JUMP JUMPDEST PUSH1 0x0 PUSH1 0x20 DUP3 ADD SWAP1 POP DUP2 DUP2 SUB PUSH1 0x0 DUP4 ADD MSTORE PUSH2 0xD3E DUP2 PUSH2 0xBE3 JUMP JUMPDEST SWAP1 POP SWAP2 SWAP1 POP JUMP JUMPDEST PUSH1 0x0 PUSH1 0x20 DUP3 ADD SWAP1 POP DUP2 DUP2 SUB PUSH1 0x0 DUP4 ADD MSTORE PUSH2 0xD5E DUP2 PUSH2 0xC06 JUMP JUMPDEST SWAP1 POP SWAP2 SWAP1 POP JUMP JUMPDEST PUSH1 0x0 PUSH1 0x20 DUP3 ADD SWAP1 POP PUSH2 0xD7A PUSH1 0x0 DUP4 ADD DUP5 PUSH2 0xC29 JUMP JUMPDEST SWAP3 SWAP2 POP POP JUMP JUMPDEST PUSH1 0x0 PUSH1 0x80 DUP3 ADD SWAP1 POP PUSH2 0xD95 PUSH1 0x0 DUP4 ADD DUP8 PUSH2 0xC29 JUMP JUMPDEST PUSH2 0xDA2 PUSH1 0x20 DUP4 ADD DUP7 PUSH2 0xADB JUMP JUMPDEST PUSH2 0xDAF PUSH1 0x40 DUP4 ADD DUP6 PUSH2 0xC29 JUMP JUMPDEST DUP2 DUP2 SUB PUSH1 0x60 DUP4 ADD MSTORE PUSH2 0xDC1 DUP2 DUP5 PUSH2 0xB10 JUMP JUMPDEST SWAP1 POP SWAP6 SWAP5 POP POP POP POP POP JUMP JUMPDEST PUSH1 0x0 PUSH1 0xE0 DUP3 ADD SWAP1 POP PUSH2 0xDE1 PUSH1 0x0 DUP4 ADD DUP11 PUSH2 0xC29 JUMP JUMPDEST PUSH2 0xDEE PUSH1 0x20 DUP4 ADD DUP10 PUSH2 0xC29 JUMP JUMPDEST PUSH2 0xDFB PUSH1 0x40 DUP4 ADD DUP9 PUSH2 0xC29 JUMP JUMPDEST PUSH2 0xE08 PUSH1 0x60 DUP4 ADD DUP8 PUSH2 0xC29 JUMP JUMPDEST PUSH2 0xE15 PUSH1 0x80 DUP4 ADD DUP7 PUSH2 0xADB JUMP JUMPDEST DUP2 DUP2 SUB PUSH1 0xA0 DUP4 ADD MSTORE PUSH2 0xE27 DUP2 DUP6 PUSH2 0xB10 JUMP JUMPDEST SWAP1 POP PUSH2 0xE36 PUSH1 0xC0 DUP4 ADD DUP5 PUSH2 0xB01 JUMP JUMPDEST SWAP9 SWAP8 POP POP POP POP POP POP POP POP JUMP JUMPDEST PUSH1 0x0 PUSH2 0xE4C PUSH2 0xE5D JUMP JUMPDEST SWAP1 POP PUSH2 0xE58 DUP3 DUP3 PUSH2 0x102B JUMP JUMPDEST SWAP2 SWAP1 POP JUMP JUMPDEST PUSH1 0x0 PUSH1 0x40 MLOAD SWAP1 POP SWAP1 JUMP JUMPDEST PUSH1 0x0 PUSH8 0xFFFFFFFFFFFFFFFF DUP3 GT ISZERO PUSH2 0xE82 JUMPI PUSH2 0xE81 PUSH2 0x1191 JUMP JUMPDEST JUMPDEST PUSH2 0xE8B DUP3 PUSH2 0x11D4 JUMP JUMPDEST SWAP1 POP PUSH1 0x20 DUP2 ADD SWAP1 POP SWAP2 SWAP1 POP JUMP JUMPDEST PUSH1 0x0 DUP2 MLOAD SWAP1 POP SWAP2 SWAP1 POP JUMP JUMPDEST PUSH1 0x0 DUP3 DUP3 MSTORE PUSH1 0x20 DUP3 ADD SWAP1 POP SWAP3 SWAP2 POP POP JUMP JUMPDEST PUSH1 0x0 DUP2 SWAP1 POP SWAP3 SWAP2 POP POP JUMP JUMPDEST PUSH1 0x0 PUSH2 0xECA DUP3 PUSH2 0xFAD JUMP JUMPDEST SWAP2 POP PUSH2 0xED5 DUP4 PUSH2 0xFAD JUMP JUMPDEST SWAP3 POP DUP3 PUSH32 0xFFFFFFFFFFFFFFFFFFFFFFFFFFFFFFFFFFFFFFFFFFFFFFFFFFFFFFFFFFFFFFFF SUB DUP3 GT ISZERO PUSH2 0xF0A JUMPI PUSH2 0xF09 PUSH2 0x1104 JUMP JUMPDEST JUMPDEST DUP3 DUP3 ADD SWAP1 POP SWAP3 SWAP2 POP POP JUMP JUMPDEST PUSH1 0x0 PUSH2 0xF20 DUP3 PUSH2 0xFAD JUMP JUMPDEST SWAP2 POP PUSH2 0xF2B DUP4 PUSH2 0xFAD JUMP JUMPDEST SWAP3 POP DUP2 PUSH32 0xFFFFFFFFFFFFFFFFFFFFFFFFFFFFFFFFFFFFFFFFFFFFFFFFFFFFFFFFFFFFFFFF DIV DUP4 GT DUP3 ISZERO ISZERO AND ISZERO PUSH2 0xF64 JUMPI PUSH2 0xF63 PUSH2 0x1104 JUMP JUMPDEST JUMPDEST DUP3 DUP3 MUL SWAP1 POP SWAP3 SWAP2 POP POP JUMP JUMPDEST PUSH1 0x0 PUSH2 0xF7A DUP3 PUSH2 0xF8D JUMP JUMPDEST SWAP1 POP SWAP2 SWAP1 POP JUMP JUMPDEST PUSH1 0x0 DUP2 ISZERO ISZERO SWAP1 POP SWAP2 SWAP1 POP JUMP JUMPDEST PUSH1 0x0 PUSH20 0xFFFFFFFFFFFFFFFFFFFFFFFFFFFFFFFFFFFFFFFF DUP3 AND SWAP1 POP SWAP2 SWAP1 POP JUMP JUMPDEST PUSH1 0x0 DUP2 SWAP1 POP SWAP2 SWAP1 POP JUMP JUMPDEST DUP3 DUP2 DUP4 CALLDATACOPY PUSH1 0x0 DUP4 DUP4 ADD MSTORE POP POP POP JUMP JUMPDEST PUSH1 0x0 JUMPDEST DUP4 DUP2 LT ISZERO PUSH2 0xFE4 JUMPI DUP1 DUP3 ADD MLOAD DUP2 DUP5 ADD MSTORE PUSH1 0x20 DUP2 ADD SWAP1 POP PUSH2 0xFC9 JUMP JUMPDEST DUP4 DUP2 GT ISZERO PUSH2 0xFF3 JUMPI PUSH1 0x0 DUP5 DUP5 ADD MSTORE JUMPDEST POP POP POP POP JUMP JUMPDEST PUSH1 0x0 PUSH1 0x2 DUP3 DIV SWAP1 POP PUSH1 0x1 DUP3 AND DUP1 PUSH2 0x1011 JUMPI PUSH1 0x7F DUP3 AND SWAP2 POP JUMPDEST PUSH1 0x20 DUP3 LT DUP2 EQ ISZERO PUSH2 0x1025 JUMPI PUSH2 0x1024 PUSH2 0x1162 JUMP JUMPDEST JUMPDEST POP SWAP2 SWAP1 POP JUMP JUMPDEST PUSH2 0x1034 DUP3 PUSH2 0x11D4 JUMP JUMPDEST DUP2 ADD DUP2 DUP2 LT PUSH8 0xFFFFFFFFFFFFFFFF DUP3 GT OR ISZERO PUSH2 0x1053 JUMPI PUSH2 0x1052 PUSH2 0x1191 JUMP JUMPDEST JUMPDEST DUP1 PUSH1 0x40 MSTORE POP POP POP JUMP JUMPDEST PUSH1 0x0 PUSH2 0x1067 DUP3 PUSH2 0xFAD JUMP JUMPDEST SWAP2 POP PUSH32 0xFFFFFFFFFFFFFFFFFFFFFFFFFFFFFFFFFFFFFFFFFFFFFFFFFFFFFFFFFFFFFFFF DUP3 EQ ISZERO PUSH2 0x109A JUMPI PUSH2 0x1099 PUSH2 0x1104 JUMP JUMPDEST JUMPDEST PUSH1 0x1 DUP3 ADD SWAP1 POP SWAP2 SWAP1 POP JUMP JUMPDEST PUSH1 0x0 PUSH2 0x10B0 DUP3 PUSH2 0x10B7 JUMP JUMPDEST SWAP1 POP SWAP2 SWAP1 POP JUMP JUMPDEST PUSH1 0x0 PUSH2 0x10C2 DUP3 PUSH2 0x11E5 JUMP JUMPDEST SWAP1 POP SWAP2 SWAP1 POP JUMP JUMPDEST PUSH1 0x0 DUP2 SWAP1 POP SWAP2 SWAP1 POP JUMP JUMPDEST PUSH1 0x0 PUSH2 0x10DE DUP3 PUSH2 0xFAD JUMP JUMPDEST SWAP2 POP PUSH2 0x10E9 DUP4 PUSH2 0xFAD JUMP JUMPDEST SWAP3 POP DUP3 PUSH2 0x10F9 JUMPI PUSH2 0x10F8 PUSH2 0x1133 JUMP JUMPDEST JUMPDEST DUP3 DUP3 MOD SWAP1 POP SWAP3 SWAP2 POP POP JUMP JUMPDEST PUSH32 0x4E487B7100000000000000000000000000000000000000000000000000000000 PUSH1 0x0 MSTORE PUSH1 0x11 PUSH1 0x4 MSTORE PUSH1 0x24 PUSH1 0x0 REVERT JUMPDEST PUSH32 0x4E487B7100000000000000000000000000000000000000000000000000000000 PUSH1 0x0 MSTORE PUSH1 0x12 PUSH1 0x4 MSTORE PUSH1 0x24 PUSH1 0x0 REVERT JUMPDEST PUSH32 0x4E487B7100000000000000000000000000000000000000000000000000000000 PUSH1 0x0 MSTORE PUSH1 0x22 PUSH1 0x4 MSTORE PUSH1 0x24 PUSH1 0x0 REVERT JUMPDEST PUSH32 0x4E487B7100000000000000000000000000000000000000000000000000000000 PUSH1 0x0 MSTORE PUSH1 0x41 PUSH1 0x4 MSTORE PUSH1 0x24 PUSH1 0x0 REVERT JUMPDEST PUSH1 0x0 DUP1 REVERT JUMPDEST PUSH1 0x0 DUP1 REVERT JUMPDEST PUSH1 0x0 DUP1 REVERT JUMPDEST PUSH1 0x0 DUP1 REVERT JUMPDEST PUSH1 0x0 PUSH1 0x1F NOT PUSH1 0x1F DUP4 ADD AND SWAP1 POP SWAP2 SWAP1 POP JUMP JUMPDEST PUSH1 0x0 DUP2 PUSH1 0x60 SHL SWAP1 POP SWAP2 SWAP1 POP JUMP JUMPDEST PUSH32 0x4F776E61626C653A206E6577206F776E657220697320746865207A65726F2061 PUSH1 0x0 DUP3 ADD MSTORE PUSH32 0x6464726573730000000000000000000000000000000000000000000000000000 PUSH1 0x20 DUP3 ADD MSTORE POP JUMP JUMPDEST PUSH32 0x76616C75652063616E6E6F74206265206E756C6C000000000000000000000000 PUSH1 0x0 DUP3 ADD MSTORE POP JUMP JUMPDEST PUSH32 0x4F776E61626C653A2063616C6C6572206973206E6F7420746865206F776E6572 PUSH1 0x0 DUP3 ADD MSTORE POP JUMP JUMPDEST PUSH32 0x7468697320686F757365496420616C7265616479206578697374730000000000 PUSH1 0x0 DUP3 ADD MSTORE POP JUMP JUMPDEST PUSH32 0x596F7520646F206E6F7420686176652061636365737320746F2064656C657465 PUSH1 0x0 DUP3 ADD MSTORE PUSH32 0x207468697320686F757365000000000000000000000000000000000000000000 PUSH1 0x20 DUP3 ADD MSTORE POP JUMP JUMPDEST PUSH2 0x1314 DUP2 PUSH2 0xF6F JUMP JUMPDEST DUP2 EQ PUSH2 0x131F JUMPI PUSH1 0x0 DUP1 REVERT JUMPDEST POP JUMP JUMPDEST PUSH2 0x132B DUP2 PUSH2 0xFAD JUMP JUMPDEST DUP2 EQ PUSH2 0x1336 JUMPI PUSH1 0x0 DUP1 REVERT JUMPDEST POP JUMP INVALID LOG2 PUSH5 0x6970667358 0x22 SLT KECCAK256 CALL PUSH12 0xA6037E9592582CF2EF17F797 EXTCODESIZE RETURNDATACOPY 0xB7 REVERT AND 0x5E CALLER DIFFICULTY GT JUMP 0xAB SWAP16 0x5D PUSH18 0xFC64BA7D64736F6C63430008070033000000 "
				},
				"gasEstimates": {
					"creation": {
						"codeDepositCost": "995000",
						"executionCost": "infinite",
						"totalCost": "infinite"
					},
					"external": {
						"delistHouse(uint256)": "infinite",
						"filterHouses(uint256)": "infinite",
						"houses(uint256)": "infinite",
						"listHouse(uint256,uint256,address,string)": "infinite",
						"owner()": "2567",
						"renounceOwnership()": "30397",
						"transferOwnership(address)": "30789"
					},
					"internal": {
						"_generateHouseId(address,uint256,string memory)": "infinite"
					}
				},
				"methodIdentifiers": {
					"delistHouse(uint256)": "3c3b0b4a",
					"filterHouses(uint256)": "f1f08d4d",
					"houses(uint256)": "aeda852f",
					"listHouse(uint256,uint256,address,string)": "91bfe0d4",
					"owner()": "8da5cb5b",
					"renounceOwnership()": "715018a6",
					"transferOwnership(address)": "f2fde38b"
				}
			},
			"storageLayout": {
				"storage": [
					{
						"astId": 192,
						"contract": "contract/HouseRegistry.sol:HouseRegistry",
						"label": "_owner",
						"offset": 0,
						"slot": "0",
						"type": "t_address"
					},
					{
						"astId": 194,
						"contract": "contract/HouseRegistry.sol:HouseRegistry",
						"label": "ownerAddCooldown",
						"offset": 0,
						"slot": "1",
						"type": "t_uint256"
					},
					{
						"astId": 7,
						"contract": "contract/HouseRegistry.sol:HouseRegistry",
						"label": "digits",
						"offset": 0,
						"slot": "2",
						"type": "t_uint256"
					},
					{
						"astId": 12,
						"contract": "contract/HouseRegistry.sol:HouseRegistry",
						"label": "modulus",
						"offset": 0,
						"slot": "3",
						"type": "t_uint256"
					},
					{
						"astId": 15,
						"contract": "contract/HouseRegistry.sol:HouseRegistry",
						"label": "cooldownTime",
						"offset": 0,
						"slot": "4",
						"type": "t_uint256"
					},
					{
						"astId": 18,
						"contract": "contract/HouseRegistry.sol:HouseRegistry",
						"label": "countOfHouses",
						"offset": 0,
						"slot": "5",
						"type": "t_uint256"
					},
					{
						"astId": 46,
						"contract": "contract/HouseRegistry.sol:HouseRegistry",
						"label": "filterHouses",
						"offset": 0,
						"slot": "6",
						"type": "t_array(t_uint256)dyn_storage"
					},
					{
						"astId": 51,
						"contract": "contract/HouseRegistry.sol:HouseRegistry",
						"label": "houses",
						"offset": 0,
						"slot": "7",
						"type": "t_mapping(t_uint256,t_struct(House)33_storage)"
					}
				],
				"types": {
					"t_address": {
						"encoding": "inplace",
						"label": "address",
						"numberOfBytes": "20"
					},
					"t_array(t_uint256)dyn_storage": {
						"base": "t_uint256",
						"encoding": "dynamic_array",
						"label": "uint256[]",
						"numberOfBytes": "32"
					},
					"t_bool": {
						"encoding": "inplace",
						"label": "bool",
						"numberOfBytes": "1"
					},
					"t_mapping(t_uint256,t_struct(House)33_storage)": {
						"encoding": "mapping",
						"key": "t_uint256",
						"label": "mapping(uint256 => struct HouseRegistry.House)",
						"numberOfBytes": "32",
						"value": "t_struct(House)33_storage"
					},
					"t_string_storage": {
						"encoding": "bytes",
						"label": "string",
						"numberOfBytes": "32"
					},
					"t_struct(House)33_storage": {
						"encoding": "inplace",
						"label": "struct HouseRegistry.House",
						"members": [
							{
								"astId": 20,
								"contract": "contract/HouseRegistry.sol:HouseRegistry",
								"label": "id",
								"offset": 0,
								"slot": "0",
								"type": "t_uint256"
							},
							{
								"astId": 22,
								"contract": "contract/HouseRegistry.sol:HouseRegistry",
								"label": "serialNumber",
								"offset": 0,
								"slot": "1",
								"type": "t_uint256"
							},
							{
								"astId": 24,
								"contract": "contract/HouseRegistry.sol:HouseRegistry",
								"label": "price",
								"offset": 0,
								"slot": "2",
								"type": "t_uint256"
							},
							{
								"astId": 26,
								"contract": "contract/HouseRegistry.sol:HouseRegistry",
								"label": "area",
								"offset": 0,
								"slot": "3",
								"type": "t_uint256"
							},
							{
								"astId": 28,
								"contract": "contract/HouseRegistry.sol:HouseRegistry",
								"label": "sellerAddress",
								"offset": 0,
								"slot": "4",
								"type": "t_address"
							},
							{
								"astId": 30,
								"contract": "contract/HouseRegistry.sol:HouseRegistry",
								"label": "houseAddress",
								"offset": 0,
								"slot": "5",
								"type": "t_string_storage"
							},
							{
								"astId": 32,
								"contract": "contract/HouseRegistry.sol:HouseRegistry",
								"label": "isdelistedHouse",
								"offset": 0,
								"slot": "6",
								"type": "t_bool"
							}
						],
						"numberOfBytes": "224"
					},
					"t_uint256": {
						"encoding": "inplace",
						"label": "uint256",
						"numberOfBytes": "32"
					}
				}
			},
			"userdoc": {
				"kind": "user",
				"methods": {},
				"version": 1
			}
		}
	}
}