{
	"contract/HouseRegistry.sol": {
		"HouseRegistry": {
			"abi": [
				{
					"anonymous": false,
					"inputs": [
						{
							"indexed": false,
							"internalType": "uint256",
							"name": "houseId",
							"type": "uint256"
						},
						{
							"indexed": false,
							"internalType": "address",
							"name": "_sellerAddress",
							"type": "address"
						},
						{
							"indexed": false,
							"internalType": "uint256",
							"name": "price",
							"type": "uint256"
						},
						{
							"indexed": false,
							"internalType": "string",
							"name": "houseAddress",
							"type": "string"
						}
					],
					"name": "AddNewHouse",
					"type": "event"
				},
				{
					"anonymous": false,
					"inputs": [
						{
							"indexed": true,
							"internalType": "address",
							"name": "previousOwner",
							"type": "address"
						},
						{
							"indexed": true,
							"internalType": "address",
							"name": "newOwner",
							"type": "address"
						}
					],
					"name": "OwnershipTransferred",
					"type": "event"
				},
				{
					"inputs": [
						{
							"internalType": "uint256",
							"name": "",
							"type": "uint256"
						}
					],
					"name": "houses",
					"outputs": [
						{
							"internalType": "uint256",
							"name": "id",
							"type": "uint256"
						},
						{
							"internalType": "uint256",
							"name": "price",
							"type": "uint256"
						},
						{
							"internalType": "uint256",
							"name": "area",
							"type": "uint256"
						},
						{
							"internalType": "address",
							"name": "sellerAddress",
							"type": "address"
						},
						{
							"internalType": "string",
							"name": "houseAddress",
							"type": "string"
						},
						{
							"internalType": "bool",
							"name": "isdelistedHouse",
							"type": "bool"
						}
					],
					"stateMutability": "view",
					"type": "function"
				},
				{
					"inputs": [
						{
							"internalType": "uint256",
							"name": "_price",
							"type": "uint256"
						},
						{
							"internalType": "uint256",
							"name": "_area",
							"type": "uint256"
						},
						{
							"internalType": "address",
							"name": "_sellerAddress",
							"type": "address"
						},
						{
							"internalType": "string",
							"name": "_houseAddress",
							"type": "string"
						}
					],
					"name": "listHouse",
					"outputs": [
						{
							"internalType": "uint256",
							"name": "",
							"type": "uint256"
						}
					],
					"stateMutability": "nonpayable",
					"type": "function"
				},
				{
					"inputs": [],
					"name": "owner",
					"outputs": [
						{
							"internalType": "address",
							"name": "",
							"type": "address"
						}
					],
					"stateMutability": "view",
					"type": "function"
				},
				{
					"inputs": [],
					"name": "renounceOwnership",
					"outputs": [],
					"stateMutability": "nonpayable",
					"type": "function"
				},
				{
					"inputs": [
						{
							"internalType": "address",
							"name": "newOwner",
							"type": "address"
						}
					],
					"name": "transferOwnership",
					"outputs": [],
					"stateMutability": "nonpayable",
					"type": "function"
				}
			],
			"devdoc": {
				"kind": "dev",
				"methods": {
					"owner()": {
						"details": "Returns the address of the current owner."
					},
					"renounceOwnership()": {
						"details": "Leaves the contract without owner. It will not be possible to call `onlyOwner` functions anymore. Can only be called by the current owner. NOTE: Renouncing ownership will leave the contract without an owner, thereby removing any functionality that is only available to the owner."
					},
					"transferOwnership(address)": {
						"details": "Transfers ownership of the contract to a new account (`newOwner`). Can only be called by the current owner."
					}
				},
				"version": 1
			},
			"evm": {
				"assembly": "    /* \"contract/HouseRegistry.sol\":87:1384  contract HouseRegistry is Ownable {... */\n  mstore(0x40, 0x80)\n    /* \"contract/HouseRegistry.sol\":142:143  5 */\n  0x05\n    /* \"contract/HouseRegistry.sol\":128:143  uint digits = 5 */\n  0x02\n  sstore\n    /* \"contract/HouseRegistry.sol\":170:176  digits */\n  sload(0x02)\n    /* \"contract/HouseRegistry.sol\":164:166  10 */\n  0x0a\n    /* \"contract/HouseRegistry.sol\":164:176  10 ** digits */\n  tag_1\n  swap2\n  swap1\n  tag_2\n  jump\t// in\ntag_1:\n    /* \"contract/HouseRegistry.sol\":149:176  uint modulus = 10 ** digits */\n  0x03\n  sstore\n    /* \"contract/HouseRegistry.sol\":202:208  1 days */\n  0x015180\n    /* \"contract/HouseRegistry.sol\":182:208  uint cooldownTime = 1 days */\n  0x04\n  sstore\n    /* \"contract/HouseRegistry.sol\":87:1384  contract HouseRegistry is Ownable {... */\n  callvalue\n  dup1\n  iszero\n  tag_3\n  jumpi\n  0x00\n  dup1\n  revert\ntag_3:\n  pop\n    /* \"contract/Ownable.sol\":984:1016  _transferOwnership(_msgSender()) */\n  tag_6\n    /* \"contract/Ownable.sol\":1003:1015  _msgSender() */\n  tag_7\n    /* \"contract/Ownable.sol\":1003:1013  _msgSender */\n  shl(0x20, tag_8)\n    /* \"contract/Ownable.sol\":1003:1015  _msgSender() */\n  0x20\n  shr\n  jump\t// in\ntag_7:\n    /* \"contract/Ownable.sol\":984:1002  _transferOwnership */\n  shl(0x20, tag_9)\n    /* \"contract/Ownable.sol\":984:1016  _transferOwnership(_msgSender()) */\n  0x20\n  shr\n  jump\t// in\ntag_6:\n    /* \"contract/HouseRegistry.sol\":87:1384  contract HouseRegistry is Ownable {... */\n  jump(tag_10)\n    /* \"contract/utils/Context.sol\":656:754  function _msgSender() internal view virtual returns (address) {\r... */\ntag_8:\n    /* \"contract/utils/Context.sol\":709:716  address */\n  0x00\n    /* \"contract/utils/Context.sol\":736:746  msg.sender */\n  caller\n    /* \"contract/utils/Context.sol\":729:746  return msg.sender */\n  swap1\n  pop\n    /* \"contract/utils/Context.sol\":656:754  function _msgSender() internal view virtual returns (address) {\r... */\n  swap1\n  jump\t// out\n    /* \"contract/Ownable.sol\":2520:2711  function _transferOwnership(address newOwner) internal virtual {\r... */\ntag_9:\n    /* \"contract/Ownable.sol\":2594:2610  address oldOwner */\n  0x00\n    /* \"contract/Ownable.sol\":2613:2619  _owner */\n  dup1\n  0x00\n  swap1\n  sload\n  swap1\n  0x0100\n  exp\n  swap1\n  div\n  0xffffffffffffffffffffffffffffffffffffffff\n  and\n    /* \"contract/Ownable.sol\":2594:2619  address oldOwner = _owner */\n  swap1\n  pop\n    /* \"contract/Ownable.sol\":2639:2647  newOwner */\n  dup2\n    /* \"contract/Ownable.sol\":2630:2636  _owner */\n  0x00\n  dup1\n    /* \"contract/Ownable.sol\":2630:2647  _owner = newOwner */\n  0x0100\n  exp\n  dup2\n  sload\n  dup2\n  0xffffffffffffffffffffffffffffffffffffffff\n  mul\n  not\n  and\n  swap1\n  dup4\n  0xffffffffffffffffffffffffffffffffffffffff\n  and\n  mul\n  or\n  swap1\n  sstore\n  pop\n    /* \"contract/Ownable.sol\":2694:2702  newOwner */\n  dup2\n    /* \"contract/Ownable.sol\":2663:2703  OwnershipTransferred(oldOwner, newOwner) */\n  0xffffffffffffffffffffffffffffffffffffffff\n  and\n    /* \"contract/Ownable.sol\":2684:2692  oldOwner */\n  dup2\n    /* \"contract/Ownable.sol\":2663:2703  OwnershipTransferred(oldOwner, newOwner) */\n  0xffffffffffffffffffffffffffffffffffffffff\n  and\n  0x8be0079c531659141344cd1fd0a4f28419497f9722a3daafe3b4186f6b6457e0\n  mload(0x40)\n  mload(0x40)\n  dup1\n  swap2\n  sub\n  swap1\n  log3\n    /* \"contract/Ownable.sol\":2583:2711  {\r... */\n  pop\n    /* \"contract/Ownable.sol\":2520:2711  function _transferOwnership(address newOwner) internal virtual {\r... */\n  pop\n  jump\t// out\n    /* \"#utility.yul\":7:855   */\ntag_14:\n    /* \"#utility.yul\":68:73   */\n  0x00\n    /* \"#utility.yul\":75:79   */\n  dup1\n    /* \"#utility.yul\":99:105   */\n  dup3\n    /* \"#utility.yul\":90:105   */\n  swap2\n  pop\n    /* \"#utility.yul\":123:128   */\n  dup4\n    /* \"#utility.yul\":114:128   */\n  swap1\n  pop\n    /* \"#utility.yul\":137:849   */\ntag_16:\n    /* \"#utility.yul\":158:159   */\n  0x01\n    /* \"#utility.yul\":148:156   */\n  dup6\n    /* \"#utility.yul\":145:160   */\n  gt\n    /* \"#utility.yul\":137:849   */\n  iszero\n  tag_18\n  jumpi\n    /* \"#utility.yul\":253:257   */\n  dup1\n    /* \"#utility.yul\":248:251   */\n  dup7\n    /* \"#utility.yul\":244:258   */\n  div\n    /* \"#utility.yul\":238:242   */\n  dup2\n    /* \"#utility.yul\":235:259   */\n  gt\n    /* \"#utility.yul\":232:282   */\n  iszero\n  tag_19\n  jumpi\n    /* \"#utility.yul\":262:280   */\n  tag_20\n  tag_21\n  jump\t// in\ntag_20:\n    /* \"#utility.yul\":232:282   */\ntag_19:\n    /* \"#utility.yul\":312:313   */\n  0x01\n    /* \"#utility.yul\":302:310   */\n  dup6\n    /* \"#utility.yul\":298:314   */\n  and\n    /* \"#utility.yul\":295:746   */\n  iszero\n  tag_22\n  jumpi\n    /* \"#utility.yul\":727:731   */\n  dup1\n    /* \"#utility.yul\":720:725   */\n  dup3\n    /* \"#utility.yul\":716:732   */\n  mul\n    /* \"#utility.yul\":707:732   */\n  swap2\n  pop\n    /* \"#utility.yul\":295:746   */\ntag_22:\n    /* \"#utility.yul\":777:781   */\n  dup1\n    /* \"#utility.yul\":771:775   */\n  dup2\n    /* \"#utility.yul\":767:782   */\n  mul\n    /* \"#utility.yul\":759:782   */\n  swap1\n  pop\n    /* \"#utility.yul\":807:839   */\n  tag_23\n    /* \"#utility.yul\":830:838   */\n  dup6\n    /* \"#utility.yul\":807:839   */\n  tag_24\n  jump\t// in\ntag_23:\n    /* \"#utility.yul\":795:839   */\n  swap5\n  pop\n    /* \"#utility.yul\":137:849   */\n  jump(tag_16)\ntag_18:\n    /* \"#utility.yul\":7:855   */\n  swap5\n  pop\n  swap5\n  swap3\n  pop\n  pop\n  pop\n  jump\t// out\n    /* \"#utility.yul\":861:1146   */\ntag_2:\n    /* \"#utility.yul\":921:926   */\n  0x00\n    /* \"#utility.yul\":945:968   */\n  tag_26\n    /* \"#utility.yul\":963:967   */\n  dup3\n    /* \"#utility.yul\":945:968   */\n  tag_27\n  jump\t// in\ntag_26:\n    /* \"#utility.yul\":937:968   */\n  swap2\n  pop\n    /* \"#utility.yul\":989:1016   */\n  tag_28\n    /* \"#utility.yul\":1007:1015   */\n  dup4\n    /* \"#utility.yul\":989:1016   */\n  tag_27\n  jump\t// in\ntag_28:\n    /* \"#utility.yul\":977:1016   */\n  swap3\n  pop\n    /* \"#utility.yul\":1035:1139   */\n  tag_29\n    /* \"#utility.yul\":1072:1138   */\n  0xffffffffffffffffffffffffffffffffffffffffffffffffffffffffffffffff\n    /* \"#utility.yul\":1062:1070   */\n  dup5\n    /* \"#utility.yul\":1056:1060   */\n  dup5\n    /* \"#utility.yul\":1035:1139   */\n  tag_30\n  jump\t// in\ntag_29:\n    /* \"#utility.yul\":1026:1139   */\n  swap1\n  pop\n    /* \"#utility.yul\":861:1146   */\n  swap3\n  swap2\n  pop\n  pop\n  jump\t// out\n    /* \"#utility.yul\":1152:2225   */\ntag_30:\n    /* \"#utility.yul\":1206:1211   */\n  0x00\n    /* \"#utility.yul\":1397:1405   */\n  dup3\n    /* \"#utility.yul\":1387:1427   */\n  tag_32\n  jumpi\n    /* \"#utility.yul\":1418:1419   */\n  0x01\n    /* \"#utility.yul\":1409:1419   */\n  swap1\n  pop\n    /* \"#utility.yul\":1420:1425   */\n  jump(tag_31)\n    /* \"#utility.yul\":1387:1427   */\ntag_32:\n    /* \"#utility.yul\":1446:1450   */\n  dup2\n    /* \"#utility.yul\":1436:1472   */\n  tag_33\n  jumpi\n    /* \"#utility.yul\":1463:1464   */\n  0x00\n    /* \"#utility.yul\":1454:1464   */\n  swap1\n  pop\n    /* \"#utility.yul\":1465:1470   */\n  jump(tag_31)\n    /* \"#utility.yul\":1436:1472   */\ntag_33:\n    /* \"#utility.yul\":1532:1536   */\n  dup2\n    /* \"#utility.yul\":1580:1581   */\n  0x01\n    /* \"#utility.yul\":1575:1602   */\n  dup2\n  eq\n  tag_35\n  jumpi\n    /* \"#utility.yul\":1616:1617   */\n  0x02\n    /* \"#utility.yul\":1611:1802   */\n  dup2\n  eq\n  tag_36\n  jumpi\n    /* \"#utility.yul\":1525:1802   */\n  jump(tag_34)\n    /* \"#utility.yul\":1575:1602   */\ntag_35:\n    /* \"#utility.yul\":1593:1594   */\n  0x01\n    /* \"#utility.yul\":1584:1594   */\n  swap2\n  pop\n    /* \"#utility.yul\":1595:1600   */\n  pop\n  jump(tag_31)\n    /* \"#utility.yul\":1611:1802   */\ntag_36:\n    /* \"#utility.yul\":1656:1659   */\n  0xff\n    /* \"#utility.yul\":1646:1654   */\n  dup5\n    /* \"#utility.yul\":1643:1660   */\n  gt\n    /* \"#utility.yul\":1640:1683   */\n  iszero\n  tag_37\n  jumpi\n    /* \"#utility.yul\":1663:1681   */\n  tag_38\n  tag_21\n  jump\t// in\ntag_38:\n    /* \"#utility.yul\":1640:1683   */\ntag_37:\n    /* \"#utility.yul\":1712:1720   */\n  dup4\n    /* \"#utility.yul\":1709:1710   */\n  0x02\n    /* \"#utility.yul\":1705:1721   */\n  exp\n    /* \"#utility.yul\":1696:1721   */\n  swap2\n  pop\n    /* \"#utility.yul\":1747:1750   */\n  dup5\n    /* \"#utility.yul\":1740:1745   */\n  dup3\n    /* \"#utility.yul\":1737:1751   */\n  gt\n    /* \"#utility.yul\":1734:1774   */\n  iszero\n  tag_39\n  jumpi\n    /* \"#utility.yul\":1754:1772   */\n  tag_40\n  tag_21\n  jump\t// in\ntag_40:\n    /* \"#utility.yul\":1734:1774   */\ntag_39:\n    /* \"#utility.yul\":1787:1792   */\n  pop\n  jump(tag_31)\n    /* \"#utility.yul\":1525:1802   */\ntag_34:\n  pop\n    /* \"#utility.yul\":1911:1913   */\n  0x20\n    /* \"#utility.yul\":1901:1909   */\n  dup4\n    /* \"#utility.yul\":1898:1914   */\n  lt\n    /* \"#utility.yul\":1892:1895   */\n  0x0133\n    /* \"#utility.yul\":1886:1890   */\n  dup4\n    /* \"#utility.yul\":1883:1896   */\n  lt\n    /* \"#utility.yul\":1879:1915   */\n  and\n    /* \"#utility.yul\":1861:1863   */\n  0x4e\n    /* \"#utility.yul\":1851:1859   */\n  dup5\n    /* \"#utility.yul\":1848:1864   */\n  lt\n    /* \"#utility.yul\":1843:1845   */\n  0x0b\n    /* \"#utility.yul\":1837:1841   */\n  dup5\n    /* \"#utility.yul\":1834:1846   */\n  lt\n    /* \"#utility.yul\":1830:1865   */\n  and\n    /* \"#utility.yul\":1814:1925   */\n  or\n    /* \"#utility.yul\":1811:2057   */\n  iszero\n  tag_41\n  jumpi\n    /* \"#utility.yul\":1967:1975   */\n  dup3\n    /* \"#utility.yul\":1961:1965   */\n  dup3\n    /* \"#utility.yul\":1957:1976   */\n  exp\n    /* \"#utility.yul\":1948:1976   */\n  swap1\n  pop\n    /* \"#utility.yul\":2002:2005   */\n  dup4\n    /* \"#utility.yul\":1995:2000   */\n  dup2\n    /* \"#utility.yul\":1992:2006   */\n  gt\n    /* \"#utility.yul\":1989:2029   */\n  iszero\n  tag_42\n  jumpi\n    /* \"#utility.yul\":2009:2027   */\n  tag_43\n  tag_21\n  jump\t// in\ntag_43:\n    /* \"#utility.yul\":1989:2029   */\ntag_42:\n    /* \"#utility.yul\":2042:2047   */\n  jump(tag_31)\n    /* \"#utility.yul\":1811:2057   */\ntag_41:\n    /* \"#utility.yul\":2082:2124   */\n  tag_44\n    /* \"#utility.yul\":2120:2123   */\n  dup5\n    /* \"#utility.yul\":2110:2118   */\n  dup5\n    /* \"#utility.yul\":2104:2108   */\n  dup5\n    /* \"#utility.yul\":2101:2102   */\n  0x01\n    /* \"#utility.yul\":2082:2124   */\n  tag_14\n  jump\t// in\ntag_44:\n    /* \"#utility.yul\":2067:2124   */\n  swap3\n  pop\n  swap1\n  pop\n    /* \"#utility.yul\":2156:2160   */\n  dup2\n    /* \"#utility.yul\":2151:2154   */\n  dup5\n    /* \"#utility.yul\":2147:2161   */\n  div\n    /* \"#utility.yul\":2140:2145   */\n  dup2\n    /* \"#utility.yul\":2137:2162   */\n  gt\n    /* \"#utility.yul\":2134:2185   */\n  iszero\n  tag_45\n  jumpi\n    /* \"#utility.yul\":2165:2183   */\n  tag_46\n  tag_21\n  jump\t// in\ntag_46:\n    /* \"#utility.yul\":2134:2185   */\ntag_45:\n    /* \"#utility.yul\":2214:2218   */\n  dup2\n    /* \"#utility.yul\":2207:2212   */\n  dup2\n    /* \"#utility.yul\":2203:2219   */\n  mul\n    /* \"#utility.yul\":2194:2219   */\n  swap1\n  pop\n    /* \"#utility.yul\":1152:2225   */\ntag_31:\n  swap4\n  swap3\n  pop\n  pop\n  pop\n  jump\t// out\n    /* \"#utility.yul\":2231:2308   */\ntag_27:\n    /* \"#utility.yul\":2268:2275   */\n  0x00\n    /* \"#utility.yul\":2297:2302   */\n  dup2\n    /* \"#utility.yul\":2286:2302   */\n  swap1\n  pop\n    /* \"#utility.yul\":2231:2308   */\n  swap2\n  swap1\n  pop\n  jump\t// out\n    /* \"#utility.yul\":2314:2494   */\ntag_21:\n    /* \"#utility.yul\":2362:2439   */\n  0x4e487b7100000000000000000000000000000000000000000000000000000000\n    /* \"#utility.yul\":2359:2360   */\n  0x00\n    /* \"#utility.yul\":2352:2440   */\n  mstore\n    /* \"#utility.yul\":2459:2463   */\n  0x11\n    /* \"#utility.yul\":2456:2457   */\n  0x04\n    /* \"#utility.yul\":2449:2464   */\n  mstore\n    /* \"#utility.yul\":2483:2487   */\n  0x24\n    /* \"#utility.yul\":2480:2481   */\n  0x00\n    /* \"#utility.yul\":2473:2488   */\n  revert\n    /* \"#utility.yul\":2500:2602   */\ntag_24:\n    /* \"#utility.yul\":2542:2550   */\n  0x00\n    /* \"#utility.yul\":2589:2594   */\n  dup2\n    /* \"#utility.yul\":2586:2587   */\n  0x01\n    /* \"#utility.yul\":2582:2595   */\n  shr\n    /* \"#utility.yul\":2561:2595   */\n  swap1\n  pop\n    /* \"#utility.yul\":2500:2602   */\n  swap2\n  swap1\n  pop\n  jump\t// out\n    /* \"contract/HouseRegistry.sol\":87:1384  contract HouseRegistry is Ownable {... */\ntag_10:\n  dataSize(sub_0)\n  dup1\n  dataOffset(sub_0)\n  0x00\n  codecopy\n  0x00\n  return\nstop\n\nsub_0: assembly {\n        /* \"contract/HouseRegistry.sol\":87:1384  contract HouseRegistry is Ownable {... */\n      mstore(0x40, 0x80)\n      callvalue\n      dup1\n      iszero\n      tag_1\n      jumpi\n      0x00\n      dup1\n      revert\n    tag_1:\n      pop\n      jumpi(tag_2, lt(calldatasize, 0x04))\n      shr(0xe0, calldataload(0x00))\n      dup1\n      0x715018a6\n      eq\n      tag_3\n      jumpi\n      dup1\n      0x8da5cb5b\n      eq\n      tag_4\n      jumpi\n      dup1\n      0x91bfe0d4\n      eq\n      tag_5\n      jumpi\n      dup1\n      0xaeda852f\n      eq\n      tag_6\n      jumpi\n      dup1\n      0xf2fde38b\n      eq\n      tag_7\n      jumpi\n    tag_2:\n      0x00\n      dup1\n      revert\n        /* \"contract/Ownable.sol\":1901:2004  function renounceOwnership() public virtual onlyOwner {\r... */\n    tag_3:\n      tag_8\n      tag_9\n      jump\t// in\n    tag_8:\n      stop\n        /* \"contract/Ownable.sol\":1105:1192  function owner() public view virtual returns (address) {\r... */\n    tag_4:\n      tag_10\n      tag_11\n      jump\t// in\n    tag_10:\n      mload(0x40)\n      tag_12\n      swap2\n      swap1\n      tag_13\n      jump\t// in\n    tag_12:\n      mload(0x40)\n      dup1\n      swap2\n      sub\n      swap1\n      return\n        /* \"contract/HouseRegistry.sol\":524:1119  function listHouse (uint _price, uint _area, address _sellerAddress, string memory _houseAddress) public returns (uint) {... */\n    tag_5:\n      tag_14\n      0x04\n      dup1\n      calldatasize\n      sub\n      dup2\n      add\n      swap1\n      tag_15\n      swap2\n      swap1\n      tag_16\n      jump\t// in\n    tag_15:\n      tag_17\n      jump\t// in\n    tag_14:\n      mload(0x40)\n      tag_18\n      swap2\n      swap1\n      tag_19\n      jump\t// in\n    tag_18:\n      mload(0x40)\n      dup1\n      swap2\n      sub\n      swap1\n      return\n        /* \"contract/HouseRegistry.sol\":481:517  mapping(uint => House) public houses */\n    tag_6:\n      tag_20\n      0x04\n      dup1\n      calldatasize\n      sub\n      dup2\n      add\n      swap1\n      tag_21\n      swap2\n      swap1\n      tag_22\n      jump\t// in\n    tag_21:\n      tag_23\n      jump\t// in\n    tag_20:\n      mload(0x40)\n      tag_24\n      swap7\n      swap6\n      swap5\n      swap4\n      swap3\n      swap2\n      swap1\n      tag_25\n      jump\t// in\n    tag_24:\n      mload(0x40)\n      dup1\n      swap2\n      sub\n      swap1\n      return\n        /* \"contract/Ownable.sol\":2159:2360  function transferOwnership(address newOwner) public virtual onlyOwner {\r... */\n    tag_7:\n      tag_26\n      0x04\n      dup1\n      calldatasize\n      sub\n      dup2\n      add\n      swap1\n      tag_27\n      swap2\n      swap1\n      tag_28\n      jump\t// in\n    tag_27:\n      tag_29\n      jump\t// in\n    tag_26:\n      stop\n        /* \"contract/Ownable.sol\":1901:2004  function renounceOwnership() public virtual onlyOwner {\r... */\n    tag_9:\n        /* \"contract/Ownable.sol\":1336:1348  _msgSender() */\n      tag_31\n        /* \"contract/Ownable.sol\":1336:1346  _msgSender */\n      tag_32\n        /* \"contract/Ownable.sol\":1336:1348  _msgSender() */\n      jump\t// in\n    tag_31:\n        /* \"contract/Ownable.sol\":1325:1348  owner() == _msgSender() */\n      0xffffffffffffffffffffffffffffffffffffffff\n      and\n        /* \"contract/Ownable.sol\":1325:1332  owner() */\n      tag_33\n        /* \"contract/Ownable.sol\":1325:1330  owner */\n      tag_11\n        /* \"contract/Ownable.sol\":1325:1332  owner() */\n      jump\t// in\n    tag_33:\n        /* \"contract/Ownable.sol\":1325:1348  owner() == _msgSender() */\n      0xffffffffffffffffffffffffffffffffffffffff\n      and\n      eq\n        /* \"contract/Ownable.sol\":1317:1385  require(owner() == _msgSender(), \"Ownable: caller is not the owner\") */\n      tag_34\n      jumpi\n      mload(0x40)\n      0x08c379a000000000000000000000000000000000000000000000000000000000\n      dup2\n      mstore\n      0x04\n      add\n      tag_35\n      swap1\n      tag_36\n      jump\t// in\n    tag_35:\n      mload(0x40)\n      dup1\n      swap2\n      sub\n      swap1\n      revert\n    tag_34:\n        /* \"contract/Ownable.sol\":1966:1996  _transferOwnership(address(0)) */\n      tag_38\n        /* \"contract/Ownable.sol\":1993:1994  0 */\n      0x00\n        /* \"contract/Ownable.sol\":1966:1984  _transferOwnership */\n      tag_39\n        /* \"contract/Ownable.sol\":1966:1996  _transferOwnership(address(0)) */\n      jump\t// in\n    tag_38:\n        /* \"contract/Ownable.sol\":1901:2004  function renounceOwnership() public virtual onlyOwner {\r... */\n      jump\t// out\n        /* \"contract/Ownable.sol\":1105:1192  function owner() public view virtual returns (address) {\r... */\n    tag_11:\n        /* \"contract/Ownable.sol\":1151:1158  address */\n      0x00\n        /* \"contract/Ownable.sol\":1178:1184  _owner */\n      dup1\n      0x00\n      swap1\n      sload\n      swap1\n      0x0100\n      exp\n      swap1\n      div\n      0xffffffffffffffffffffffffffffffffffffffff\n      and\n        /* \"contract/Ownable.sol\":1171:1184  return _owner */\n      swap1\n      pop\n        /* \"contract/Ownable.sol\":1105:1192  function owner() public view virtual returns (address) {\r... */\n      swap1\n      jump\t// out\n        /* \"contract/HouseRegistry.sol\":524:1119  function listHouse (uint _price, uint _area, address _sellerAddress, string memory _houseAddress) public returns (uint) {... */\n    tag_17:\n        /* \"contract/HouseRegistry.sol\":638:642  uint */\n      0x00\n        /* \"contract/HouseRegistry.sol\":679:680  0 */\n      dup1\n        /* \"contract/HouseRegistry.sol\":671:676  _area */\n      dup5\n        /* \"contract/HouseRegistry.sol\":662:668  _price */\n      dup7\n        /* \"contract/HouseRegistry.sol\":662:676  _price * _area */\n      tag_42\n      swap2\n      swap1\n      tag_43\n      jump\t// in\n    tag_42:\n        /* \"contract/HouseRegistry.sol\":662:680  _price * _area > 0 */\n      gt\n        /* \"contract/HouseRegistry.sol\":654:705  require(_price * _area > 0, \"value cannot be null\") */\n      tag_44\n      jumpi\n      mload(0x40)\n      0x08c379a000000000000000000000000000000000000000000000000000000000\n      dup2\n      mstore\n      0x04\n      add\n      tag_45\n      swap1\n      tag_46\n      jump\t// in\n    tag_45:\n      mload(0x40)\n      dup1\n      swap2\n      sub\n      swap1\n      revert\n    tag_44:\n        /* \"contract/HouseRegistry.sol\":715:727  uint houseId */\n      0x00\n        /* \"contract/HouseRegistry.sol\":730:784  _generateHouseId(_sellerAddress, _area, _houseAddress) */\n      tag_47\n        /* \"contract/HouseRegistry.sol\":747:761  _sellerAddress */\n      dup5\n        /* \"contract/HouseRegistry.sol\":763:768  _area */\n      dup7\n        /* \"contract/HouseRegistry.sol\":770:783  _houseAddress */\n      dup6\n        /* \"contract/HouseRegistry.sol\":730:746  _generateHouseId */\n      tag_48\n        /* \"contract/HouseRegistry.sol\":730:784  _generateHouseId(_sellerAddress, _area, _houseAddress) */\n      jump\t// in\n    tag_47:\n        /* \"contract/HouseRegistry.sol\":715:784  uint houseId = _generateHouseId(_sellerAddress, _area, _houseAddress) */\n      swap1\n      pop\n        /* \"contract/HouseRegistry.sol\":813:819  houses */\n      0x05\n        /* \"contract/HouseRegistry.sol\":813:828  houses[houseId] */\n      0x00\n        /* \"contract/HouseRegistry.sol\":820:827  houseId */\n      dup3\n        /* \"contract/HouseRegistry.sol\":813:828  houses[houseId] */\n      dup2\n      mstore\n      0x20\n      add\n      swap1\n      dup2\n      mstore\n      0x20\n      add\n      0x00\n      keccak256\n        /* \"contract/HouseRegistry.sol\":813:831  houses[houseId].id */\n      0x00\n      add\n      sload\n        /* \"contract/HouseRegistry.sol\":802:809  houseId */\n      dup2\n        /* \"contract/HouseRegistry.sol\":802:831  houseId != houses[houseId].id */\n      eq\n      iszero\n        /* \"contract/HouseRegistry.sol\":794:863  require(houseId != houses[houseId].id, \"this houseId already exists\") */\n      tag_49\n      jumpi\n      mload(0x40)\n      0x08c379a000000000000000000000000000000000000000000000000000000000\n      dup2\n      mstore\n      0x04\n      add\n      tag_50\n      swap1\n      tag_51\n      jump\t// in\n    tag_50:\n      mload(0x40)\n      dup1\n      swap2\n      sub\n      swap1\n      revert\n    tag_49:\n        /* \"contract/HouseRegistry.sol\":891:958  House(houseId, _price, _area, _sellerAddress, _houseAddress, false) */\n      mload(0x40)\n      dup1\n      0xc0\n      add\n      0x40\n      mstore\n      dup1\n        /* \"contract/HouseRegistry.sol\":897:904  houseId */\n      dup3\n        /* \"contract/HouseRegistry.sol\":891:958  House(houseId, _price, _area, _sellerAddress, _houseAddress, false) */\n      dup2\n      mstore\n      0x20\n      add\n        /* \"contract/HouseRegistry.sol\":906:912  _price */\n      dup8\n        /* \"contract/HouseRegistry.sol\":891:958  House(houseId, _price, _area, _sellerAddress, _houseAddress, false) */\n      dup2\n      mstore\n      0x20\n      add\n        /* \"contract/HouseRegistry.sol\":914:919  _area */\n      dup7\n        /* \"contract/HouseRegistry.sol\":891:958  House(houseId, _price, _area, _sellerAddress, _houseAddress, false) */\n      dup2\n      mstore\n      0x20\n      add\n        /* \"contract/HouseRegistry.sol\":921:935  _sellerAddress */\n      dup6\n        /* \"contract/HouseRegistry.sol\":891:958  House(houseId, _price, _area, _sellerAddress, _houseAddress, false) */\n      0xffffffffffffffffffffffffffffffffffffffff\n      and\n      dup2\n      mstore\n      0x20\n      add\n        /* \"contract/HouseRegistry.sol\":937:950  _houseAddress */\n      dup5\n        /* \"contract/HouseRegistry.sol\":891:958  House(houseId, _price, _area, _sellerAddress, _houseAddress, false) */\n      dup2\n      mstore\n      0x20\n      add\n        /* \"contract/HouseRegistry.sol\":952:957  false */\n      0x00\n        /* \"contract/HouseRegistry.sol\":891:958  House(houseId, _price, _area, _sellerAddress, _houseAddress, false) */\n      iszero\n      iszero\n      dup2\n      mstore\n      pop\n        /* \"contract/HouseRegistry.sol\":873:879  houses */\n      0x05\n        /* \"contract/HouseRegistry.sol\":873:888  houses[houseId] */\n      0x00\n        /* \"contract/HouseRegistry.sol\":880:887  houseId */\n      dup4\n        /* \"contract/HouseRegistry.sol\":873:888  houses[houseId] */\n      dup2\n      mstore\n      0x20\n      add\n      swap1\n      dup2\n      mstore\n      0x20\n      add\n      0x00\n      keccak256\n        /* \"contract/HouseRegistry.sol\":873:958  houses[houseId] = House(houseId, _price, _area, _sellerAddress, _houseAddress, false) */\n      0x00\n      dup3\n      add\n      mload\n      dup2\n      0x00\n      add\n      sstore\n      0x20\n      dup3\n      add\n      mload\n      dup2\n      0x01\n      add\n      sstore\n      0x40\n      dup3\n      add\n      mload\n      dup2\n      0x02\n      add\n      sstore\n      0x60\n      dup3\n      add\n      mload\n      dup2\n      0x03\n      add\n      exp(0x0100, 0x00)\n      dup2\n      sload\n      dup2\n      0xffffffffffffffffffffffffffffffffffffffff\n      mul\n      not\n      and\n      swap1\n      dup4\n      0xffffffffffffffffffffffffffffffffffffffff\n      and\n      mul\n      or\n      swap1\n      sstore\n      pop\n      0x80\n      dup3\n      add\n      mload\n      dup2\n      0x04\n      add\n      swap1\n      dup1\n      mload\n      swap1\n      0x20\n      add\n      swap1\n      tag_52\n      swap3\n      swap2\n      swap1\n      tag_53\n      jump\t// in\n    tag_52:\n      pop\n      0xa0\n      dup3\n      add\n      mload\n      dup2\n      0x05\n      add\n      exp(0x0100, 0x00)\n      dup2\n      sload\n      dup2\n      0xff\n      mul\n      not\n      and\n      swap1\n      dup4\n      iszero\n      iszero\n      mul\n      or\n      swap1\n      sstore\n      pop\n      swap1\n      pop\n      pop\n        /* \"contract/HouseRegistry.sol\":968:1014  _ownerCooldown(block.timestamp + cooldownTime) */\n      tag_54\n        /* \"contract/HouseRegistry.sol\":1001:1013  cooldownTime */\n      sload(0x04)\n        /* \"contract/HouseRegistry.sol\":983:998  block.timestamp */\n      timestamp\n        /* \"contract/HouseRegistry.sol\":983:1013  block.timestamp + cooldownTime */\n      tag_55\n      swap2\n      swap1\n      tag_56\n      jump\t// in\n    tag_55:\n        /* \"contract/HouseRegistry.sol\":968:982  _ownerCooldown */\n      tag_57\n        /* \"contract/HouseRegistry.sol\":968:1014  _ownerCooldown(block.timestamp + cooldownTime) */\n      jump\t// in\n    tag_54:\n        /* \"contract/HouseRegistry.sol\":1029:1088  AddNewHouse(houseId, _sellerAddress, _price, _houseAddress) */\n      0x8f5afd88eb4be0ac287d87970052ce9a2b453448408e3c91a695ad7509ab7194\n        /* \"contract/HouseRegistry.sol\":1041:1048  houseId */\n      dup2\n        /* \"contract/HouseRegistry.sol\":1050:1064  _sellerAddress */\n      dup6\n        /* \"contract/HouseRegistry.sol\":1066:1072  _price */\n      dup9\n        /* \"contract/HouseRegistry.sol\":1074:1087  _houseAddress */\n      dup7\n        /* \"contract/HouseRegistry.sol\":1029:1088  AddNewHouse(houseId, _sellerAddress, _price, _houseAddress) */\n      mload(0x40)\n      tag_58\n      swap5\n      swap4\n      swap3\n      swap2\n      swap1\n      tag_59\n      jump\t// in\n    tag_58:\n      mload(0x40)\n      dup1\n      swap2\n      sub\n      swap1\n      log1\n        /* \"contract/HouseRegistry.sol\":1105:1112  houseId */\n      dup1\n        /* \"contract/HouseRegistry.sol\":1098:1112  return houseId */\n      swap2\n      pop\n      pop\n        /* \"contract/HouseRegistry.sol\":524:1119  function listHouse (uint _price, uint _area, address _sellerAddress, string memory _houseAddress) public returns (uint) {... */\n      swap5\n      swap4\n      pop\n      pop\n      pop\n      pop\n      jump\t// out\n        /* \"contract/HouseRegistry.sol\":481:517  mapping(uint => House) public houses */\n    tag_23:\n      mstore(0x20, 0x05)\n      dup1\n      0x00\n      mstore\n      keccak256(0x00, 0x40)\n      0x00\n      swap2\n      pop\n      swap1\n      pop\n      dup1\n      0x00\n      add\n      sload\n      swap1\n      dup1\n      0x01\n      add\n      sload\n      swap1\n      dup1\n      0x02\n      add\n      sload\n      swap1\n      dup1\n      0x03\n      add\n      0x00\n      swap1\n      sload\n      swap1\n      0x0100\n      exp\n      swap1\n      div\n      0xffffffffffffffffffffffffffffffffffffffff\n      and\n      swap1\n      dup1\n      0x04\n      add\n      dup1\n      sload\n      tag_60\n      swap1\n      tag_61\n      jump\t// in\n    tag_60:\n      dup1\n      0x1f\n      add\n      0x20\n      dup1\n      swap2\n      div\n      mul\n      0x20\n      add\n      mload(0x40)\n      swap1\n      dup2\n      add\n      0x40\n      mstore\n      dup1\n      swap3\n      swap2\n      swap1\n      dup2\n      dup2\n      mstore\n      0x20\n      add\n      dup3\n      dup1\n      sload\n      tag_62\n      swap1\n      tag_61\n      jump\t// in\n    tag_62:\n      dup1\n      iszero\n      tag_63\n      jumpi\n      dup1\n      0x1f\n      lt\n      tag_64\n      jumpi\n      0x0100\n      dup1\n      dup4\n      sload\n      div\n      mul\n      dup4\n      mstore\n      swap2\n      0x20\n      add\n      swap2\n      jump(tag_63)\n    tag_64:\n      dup3\n      add\n      swap2\n      swap1\n      0x00\n      mstore\n      keccak256(0x00, 0x20)\n      swap1\n    tag_65:\n      dup2\n      sload\n      dup2\n      mstore\n      swap1\n      0x01\n      add\n      swap1\n      0x20\n      add\n      dup1\n      dup4\n      gt\n      tag_65\n      jumpi\n      dup3\n      swap1\n      sub\n      0x1f\n      and\n      dup3\n      add\n      swap2\n    tag_63:\n      pop\n      pop\n      pop\n      pop\n      pop\n      swap1\n      dup1\n      0x05\n      add\n      0x00\n      swap1\n      sload\n      swap1\n      0x0100\n      exp\n      swap1\n      div\n      0xff\n      and\n      swap1\n      pop\n      dup7\n      jump\t// out\n        /* \"contract/Ownable.sol\":2159:2360  function transferOwnership(address newOwner) public virtual onlyOwner {\r... */\n    tag_29:\n        /* \"contract/Ownable.sol\":1336:1348  _msgSender() */\n      tag_67\n        /* \"contract/Ownable.sol\":1336:1346  _msgSender */\n      tag_32\n        /* \"contract/Ownable.sol\":1336:1348  _msgSender() */\n      jump\t// in\n    tag_67:\n        /* \"contract/Ownable.sol\":1325:1348  owner() == _msgSender() */\n      0xffffffffffffffffffffffffffffffffffffffff\n      and\n        /* \"contract/Ownable.sol\":1325:1332  owner() */\n      tag_68\n        /* \"contract/Ownable.sol\":1325:1330  owner */\n      tag_11\n        /* \"contract/Ownable.sol\":1325:1332  owner() */\n      jump\t// in\n    tag_68:\n        /* \"contract/Ownable.sol\":1325:1348  owner() == _msgSender() */\n      0xffffffffffffffffffffffffffffffffffffffff\n      and\n      eq\n        /* \"contract/Ownable.sol\":1317:1385  require(owner() == _msgSender(), \"Ownable: caller is not the owner\") */\n      tag_69\n      jumpi\n      mload(0x40)\n      0x08c379a000000000000000000000000000000000000000000000000000000000\n      dup2\n      mstore\n      0x04\n      add\n      tag_70\n      swap1\n      tag_36\n      jump\t// in\n    tag_70:\n      mload(0x40)\n      dup1\n      swap2\n      sub\n      swap1\n      revert\n    tag_69:\n        /* \"contract/Ownable.sol\":2268:2269  0 */\n      0x00\n        /* \"contract/Ownable.sol\":2248:2270  newOwner != address(0) */\n      0xffffffffffffffffffffffffffffffffffffffff\n      and\n        /* \"contract/Ownable.sol\":2248:2256  newOwner */\n      dup2\n        /* \"contract/Ownable.sol\":2248:2270  newOwner != address(0) */\n      0xffffffffffffffffffffffffffffffffffffffff\n      and\n      eq\n      iszero\n        /* \"contract/Ownable.sol\":2240:2313  require(newOwner != address(0), \"Ownable: new owner is the zero address\") */\n      tag_72\n      jumpi\n      mload(0x40)\n      0x08c379a000000000000000000000000000000000000000000000000000000000\n      dup2\n      mstore\n      0x04\n      add\n      tag_73\n      swap1\n      tag_74\n      jump\t// in\n    tag_73:\n      mload(0x40)\n      dup1\n      swap2\n      sub\n      swap1\n      revert\n    tag_72:\n        /* \"contract/Ownable.sol\":2324:2352  _transferOwnership(newOwner) */\n      tag_75\n        /* \"contract/Ownable.sol\":2343:2351  newOwner */\n      dup2\n        /* \"contract/Ownable.sol\":2324:2342  _transferOwnership */\n      tag_39\n        /* \"contract/Ownable.sol\":2324:2352  _transferOwnership(newOwner) */\n      jump\t// in\n    tag_75:\n        /* \"contract/Ownable.sol\":2159:2360  function transferOwnership(address newOwner) public virtual onlyOwner {\r... */\n      pop\n      jump\t// out\n        /* \"contract/utils/Context.sol\":656:754  function _msgSender() internal view virtual returns (address) {\r... */\n    tag_32:\n        /* \"contract/utils/Context.sol\":709:716  address */\n      0x00\n        /* \"contract/utils/Context.sol\":736:746  msg.sender */\n      caller\n        /* \"contract/utils/Context.sol\":729:746  return msg.sender */\n      swap1\n      pop\n        /* \"contract/utils/Context.sol\":656:754  function _msgSender() internal view virtual returns (address) {\r... */\n      swap1\n      jump\t// out\n        /* \"contract/Ownable.sol\":2520:2711  function _transferOwnership(address newOwner) internal virtual {\r... */\n    tag_39:\n        /* \"contract/Ownable.sol\":2594:2610  address oldOwner */\n      0x00\n        /* \"contract/Ownable.sol\":2613:2619  _owner */\n      dup1\n      0x00\n      swap1\n      sload\n      swap1\n      0x0100\n      exp\n      swap1\n      div\n      0xffffffffffffffffffffffffffffffffffffffff\n      and\n        /* \"contract/Ownable.sol\":2594:2619  address oldOwner = _owner */\n      swap1\n      pop\n        /* \"contract/Ownable.sol\":2639:2647  newOwner */\n      dup2\n        /* \"contract/Ownable.sol\":2630:2636  _owner */\n      0x00\n      dup1\n        /* \"contract/Ownable.sol\":2630:2647  _owner = newOwner */\n      0x0100\n      exp\n      dup2\n      sload\n      dup2\n      0xffffffffffffffffffffffffffffffffffffffff\n      mul\n      not\n      and\n      swap1\n      dup4\n      0xffffffffffffffffffffffffffffffffffffffff\n      and\n      mul\n      or\n      swap1\n      sstore\n      pop\n        /* \"contract/Ownable.sol\":2694:2702  newOwner */\n      dup2\n        /* \"contract/Ownable.sol\":2663:2703  OwnershipTransferred(oldOwner, newOwner) */\n      0xffffffffffffffffffffffffffffffffffffffff\n      and\n        /* \"contract/Ownable.sol\":2684:2692  oldOwner */\n      dup2\n        /* \"contract/Ownable.sol\":2663:2703  OwnershipTransferred(oldOwner, newOwner) */\n      0xffffffffffffffffffffffffffffffffffffffff\n      and\n      0x8be0079c531659141344cd1fd0a4f28419497f9722a3daafe3b4186f6b6457e0\n      mload(0x40)\n      mload(0x40)\n      dup1\n      swap2\n      sub\n      swap1\n      log3\n        /* \"contract/Ownable.sol\":2583:2711  {\r... */\n      pop\n        /* \"contract/Ownable.sol\":2520:2711  function _transferOwnership(address newOwner) internal virtual {\r... */\n      pop\n      jump\t// out\n        /* \"contract/HouseRegistry.sol\":1125:1379  function _generateHouseId(address _sellerAddress, uint _area, string memory _houseAddress) private view returns(uint){... */\n    tag_48:\n        /* \"contract/HouseRegistry.sol\":1237:1241  uint */\n      0x00\n        /* \"contract/HouseRegistry.sol\":1252:1264  uint houseId */\n      dup1\n        /* \"contract/HouseRegistry.sol\":1299:1313  _sellerAddress */\n      dup5\n        /* \"contract/HouseRegistry.sol\":1315:1320  _area */\n      dup5\n        /* \"contract/HouseRegistry.sol\":1322:1335  _houseAddress */\n      dup5\n        /* \"contract/HouseRegistry.sol\":1282:1336  abi.encodePacked(_sellerAddress, _area, _houseAddress) */\n      add(0x20, mload(0x40))\n      tag_79\n      swap4\n      swap3\n      swap2\n      swap1\n      tag_80\n      jump\t// in\n    tag_79:\n      mload(0x40)\n      0x20\n      dup2\n      dup4\n      sub\n      sub\n      dup2\n      mstore\n      swap1\n      0x40\n      mstore\n        /* \"contract/HouseRegistry.sol\":1272:1337  keccak256(abi.encodePacked(_sellerAddress, _area, _houseAddress)) */\n      dup1\n      mload\n      swap1\n      0x20\n      add\n      keccak256\n        /* \"contract/HouseRegistry.sol\":1267:1338  uint(keccak256(abi.encodePacked(_sellerAddress, _area, _houseAddress))) */\n      0x00\n      shr\n        /* \"contract/HouseRegistry.sol\":1252:1338  uint houseId = uint(keccak256(abi.encodePacked(_sellerAddress, _area, _houseAddress))) */\n      swap1\n      pop\n        /* \"contract/HouseRegistry.sol\":1365:1372  modulus */\n      sload(0x03)\n        /* \"contract/HouseRegistry.sol\":1355:1362  houseId */\n      dup2\n        /* \"contract/HouseRegistry.sol\":1355:1372  houseId % modulus */\n      tag_81\n      swap2\n      swap1\n      tag_82\n      jump\t// in\n    tag_81:\n        /* \"contract/HouseRegistry.sol\":1348:1372  return houseId % modulus */\n      swap2\n      pop\n      pop\n        /* \"contract/HouseRegistry.sol\":1125:1379  function _generateHouseId(address _sellerAddress, uint _area, string memory _houseAddress) private view returns(uint){... */\n      swap4\n      swap3\n      pop\n      pop\n      pop\n      jump\t// out\n        /* \"contract/Ownable.sol\":2719:2813  function _ownerCooldown(uint _newTime) internal {\r... */\n    tag_57:\n        /* \"contract/Ownable.sol\":2797:2805  _newTime */\n      dup1\n        /* \"contract/Ownable.sol\":2778:2794  ownerAddCooldown */\n      0x01\n        /* \"contract/Ownable.sol\":2778:2805  ownerAddCooldown = _newTime */\n      dup2\n      swap1\n      sstore\n      pop\n        /* \"contract/Ownable.sol\":2719:2813  function _ownerCooldown(uint _newTime) internal {\r... */\n      pop\n      jump\t// out\n    tag_53:\n      dup3\n      dup1\n      sload\n      tag_84\n      swap1\n      tag_61\n      jump\t// in\n    tag_84:\n      swap1\n      0x00\n      mstore\n      keccak256(0x00, 0x20)\n      swap1\n      0x1f\n      add\n      0x20\n      swap1\n      div\n      dup2\n      add\n      swap3\n      dup3\n      tag_86\n      jumpi\n      0x00\n      dup6\n      sstore\n      jump(tag_85)\n    tag_86:\n      dup3\n      0x1f\n      lt\n      tag_87\n      jumpi\n      dup1\n      mload\n      not(0xff)\n      and\n      dup4\n      dup1\n      add\n      or\n      dup6\n      sstore\n      jump(tag_85)\n    tag_87:\n      dup3\n      dup1\n      add\n      0x01\n      add\n      dup6\n      sstore\n      dup3\n      iszero\n      tag_85\n      jumpi\n      swap2\n      dup3\n      add\n    tag_88:\n      dup3\n      dup2\n      gt\n      iszero\n      tag_89\n      jumpi\n      dup3\n      mload\n      dup3\n      sstore\n      swap2\n      0x20\n      add\n      swap2\n      swap1\n      0x01\n      add\n      swap1\n      jump(tag_88)\n    tag_89:\n    tag_85:\n      pop\n      swap1\n      pop\n      tag_90\n      swap2\n      swap1\n      tag_91\n      jump\t// in\n    tag_90:\n      pop\n      swap1\n      jump\t// out\n    tag_91:\n    tag_92:\n      dup1\n      dup3\n      gt\n      iszero\n      tag_93\n      jumpi\n      0x00\n      dup2\n      0x00\n      swap1\n      sstore\n      pop\n      0x01\n      add\n      jump(tag_92)\n    tag_93:\n      pop\n      swap1\n      jump\t// out\n        /* \"#utility.yul\":7:419   */\n    tag_95:\n        /* \"#utility.yul\":85:90   */\n      0x00\n        /* \"#utility.yul\":110:176   */\n      tag_97\n        /* \"#utility.yul\":126:175   */\n      tag_98\n        /* \"#utility.yul\":168:174   */\n      dup5\n        /* \"#utility.yul\":126:175   */\n      tag_99\n      jump\t// in\n    tag_98:\n        /* \"#utility.yul\":110:176   */\n      tag_100\n      jump\t// in\n    tag_97:\n        /* \"#utility.yul\":101:176   */\n      swap1\n      pop\n        /* \"#utility.yul\":199:205   */\n      dup3\n        /* \"#utility.yul\":192:197   */\n      dup2\n        /* \"#utility.yul\":185:206   */\n      mstore\n        /* \"#utility.yul\":237:241   */\n      0x20\n        /* \"#utility.yul\":230:235   */\n      dup2\n        /* \"#utility.yul\":226:242   */\n      add\n        /* \"#utility.yul\":275:278   */\n      dup5\n        /* \"#utility.yul\":266:272   */\n      dup5\n        /* \"#utility.yul\":261:264   */\n      dup5\n        /* \"#utility.yul\":257:273   */\n      add\n        /* \"#utility.yul\":254:279   */\n      gt\n        /* \"#utility.yul\":251:363   */\n      iszero\n      tag_101\n      jumpi\n        /* \"#utility.yul\":282:361   */\n      tag_102\n      tag_103\n      jump\t// in\n    tag_102:\n        /* \"#utility.yul\":251:363   */\n    tag_101:\n        /* \"#utility.yul\":372:413   */\n      tag_104\n        /* \"#utility.yul\":406:412   */\n      dup5\n        /* \"#utility.yul\":401:404   */\n      dup3\n        /* \"#utility.yul\":396:399   */\n      dup6\n        /* \"#utility.yul\":372:413   */\n      tag_105\n      jump\t// in\n    tag_104:\n        /* \"#utility.yul\":91:419   */\n      pop\n        /* \"#utility.yul\":7:419   */\n      swap4\n      swap3\n      pop\n      pop\n      pop\n      jump\t// out\n        /* \"#utility.yul\":425:564   */\n    tag_106:\n        /* \"#utility.yul\":471:476   */\n      0x00\n        /* \"#utility.yul\":509:515   */\n      dup2\n        /* \"#utility.yul\":496:516   */\n      calldataload\n        /* \"#utility.yul\":487:516   */\n      swap1\n      pop\n        /* \"#utility.yul\":525:558   */\n      tag_108\n        /* \"#utility.yul\":552:557   */\n      dup2\n        /* \"#utility.yul\":525:558   */\n      tag_109\n      jump\t// in\n    tag_108:\n        /* \"#utility.yul\":425:564   */\n      swap3\n      swap2\n      pop\n      pop\n      jump\t// out\n        /* \"#utility.yul\":584:924   */\n    tag_110:\n        /* \"#utility.yul\":640:645   */\n      0x00\n        /* \"#utility.yul\":689:692   */\n      dup3\n        /* \"#utility.yul\":682:686   */\n      0x1f\n        /* \"#utility.yul\":674:680   */\n      dup4\n        /* \"#utility.yul\":670:687   */\n      add\n        /* \"#utility.yul\":666:693   */\n      slt\n        /* \"#utility.yul\":656:778   */\n      tag_112\n      jumpi\n        /* \"#utility.yul\":697:776   */\n      tag_113\n      tag_114\n      jump\t// in\n    tag_113:\n        /* \"#utility.yul\":656:778   */\n    tag_112:\n        /* \"#utility.yul\":814:820   */\n      dup2\n        /* \"#utility.yul\":801:821   */\n      calldataload\n        /* \"#utility.yul\":839:918   */\n      tag_115\n        /* \"#utility.yul\":914:917   */\n      dup5\n        /* \"#utility.yul\":906:912   */\n      dup3\n        /* \"#utility.yul\":899:903   */\n      0x20\n        /* \"#utility.yul\":891:897   */\n      dup7\n        /* \"#utility.yul\":887:904   */\n      add\n        /* \"#utility.yul\":839:918   */\n      tag_95\n      jump\t// in\n    tag_115:\n        /* \"#utility.yul\":830:918   */\n      swap2\n      pop\n        /* \"#utility.yul\":646:924   */\n      pop\n        /* \"#utility.yul\":584:924   */\n      swap3\n      swap2\n      pop\n      pop\n      jump\t// out\n        /* \"#utility.yul\":930:1069   */\n    tag_116:\n        /* \"#utility.yul\":976:981   */\n      0x00\n        /* \"#utility.yul\":1014:1020   */\n      dup2\n        /* \"#utility.yul\":1001:1021   */\n      calldataload\n        /* \"#utility.yul\":992:1021   */\n      swap1\n      pop\n        /* \"#utility.yul\":1030:1063   */\n      tag_118\n        /* \"#utility.yul\":1057:1062   */\n      dup2\n        /* \"#utility.yul\":1030:1063   */\n      tag_119\n      jump\t// in\n    tag_118:\n        /* \"#utility.yul\":930:1069   */\n      swap3\n      swap2\n      pop\n      pop\n      jump\t// out\n        /* \"#utility.yul\":1075:1404   */\n    tag_28:\n        /* \"#utility.yul\":1134:1140   */\n      0x00\n        /* \"#utility.yul\":1183:1185   */\n      0x20\n        /* \"#utility.yul\":1171:1180   */\n      dup3\n        /* \"#utility.yul\":1162:1169   */\n      dup5\n        /* \"#utility.yul\":1158:1181   */\n      sub\n        /* \"#utility.yul\":1154:1186   */\n      slt\n        /* \"#utility.yul\":1151:1270   */\n      iszero\n      tag_121\n      jumpi\n        /* \"#utility.yul\":1189:1268   */\n      tag_122\n      tag_123\n      jump\t// in\n    tag_122:\n        /* \"#utility.yul\":1151:1270   */\n    tag_121:\n        /* \"#utility.yul\":1309:1310   */\n      0x00\n        /* \"#utility.yul\":1334:1387   */\n      tag_124\n        /* \"#utility.yul\":1379:1386   */\n      dup5\n        /* \"#utility.yul\":1370:1376   */\n      dup3\n        /* \"#utility.yul\":1359:1368   */\n      dup6\n        /* \"#utility.yul\":1355:1377   */\n      add\n        /* \"#utility.yul\":1334:1387   */\n      tag_106\n      jump\t// in\n    tag_124:\n        /* \"#utility.yul\":1324:1387   */\n      swap2\n      pop\n        /* \"#utility.yul\":1280:1397   */\n      pop\n        /* \"#utility.yul\":1075:1404   */\n      swap3\n      swap2\n      pop\n      pop\n      jump\t// out\n        /* \"#utility.yul\":1410:1739   */\n    tag_22:\n        /* \"#utility.yul\":1469:1475   */\n      0x00\n        /* \"#utility.yul\":1518:1520   */\n      0x20\n        /* \"#utility.yul\":1506:1515   */\n      dup3\n        /* \"#utility.yul\":1497:1504   */\n      dup5\n        /* \"#utility.yul\":1493:1516   */\n      sub\n        /* \"#utility.yul\":1489:1521   */\n      slt\n        /* \"#utility.yul\":1486:1605   */\n      iszero\n      tag_126\n      jumpi\n        /* \"#utility.yul\":1524:1603   */\n      tag_127\n      tag_123\n      jump\t// in\n    tag_127:\n        /* \"#utility.yul\":1486:1605   */\n    tag_126:\n        /* \"#utility.yul\":1644:1645   */\n      0x00\n        /* \"#utility.yul\":1669:1722   */\n      tag_128\n        /* \"#utility.yul\":1714:1721   */\n      dup5\n        /* \"#utility.yul\":1705:1711   */\n      dup3\n        /* \"#utility.yul\":1694:1703   */\n      dup6\n        /* \"#utility.yul\":1690:1712   */\n      add\n        /* \"#utility.yul\":1669:1722   */\n      tag_116\n      jump\t// in\n    tag_128:\n        /* \"#utility.yul\":1659:1722   */\n      swap2\n      pop\n        /* \"#utility.yul\":1615:1732   */\n      pop\n        /* \"#utility.yul\":1410:1739   */\n      swap3\n      swap2\n      pop\n      pop\n      jump\t// out\n        /* \"#utility.yul\":1745:2690   */\n    tag_16:\n        /* \"#utility.yul\":1841:1847   */\n      0x00\n        /* \"#utility.yul\":1849:1855   */\n      dup1\n        /* \"#utility.yul\":1857:1863   */\n      0x00\n        /* \"#utility.yul\":1865:1871   */\n      dup1\n        /* \"#utility.yul\":1914:1917   */\n      0x80\n        /* \"#utility.yul\":1902:1911   */\n      dup6\n        /* \"#utility.yul\":1893:1900   */\n      dup8\n        /* \"#utility.yul\":1889:1912   */\n      sub\n        /* \"#utility.yul\":1885:1918   */\n      slt\n        /* \"#utility.yul\":1882:2002   */\n      iszero\n      tag_130\n      jumpi\n        /* \"#utility.yul\":1921:2000   */\n      tag_131\n      tag_123\n      jump\t// in\n    tag_131:\n        /* \"#utility.yul\":1882:2002   */\n    tag_130:\n        /* \"#utility.yul\":2041:2042   */\n      0x00\n        /* \"#utility.yul\":2066:2119   */\n      tag_132\n        /* \"#utility.yul\":2111:2118   */\n      dup8\n        /* \"#utility.yul\":2102:2108   */\n      dup3\n        /* \"#utility.yul\":2091:2100   */\n      dup9\n        /* \"#utility.yul\":2087:2109   */\n      add\n        /* \"#utility.yul\":2066:2119   */\n      tag_116\n      jump\t// in\n    tag_132:\n        /* \"#utility.yul\":2056:2119   */\n      swap5\n      pop\n        /* \"#utility.yul\":2012:2129   */\n      pop\n        /* \"#utility.yul\":2168:2170   */\n      0x20\n        /* \"#utility.yul\":2194:2247   */\n      tag_133\n        /* \"#utility.yul\":2239:2246   */\n      dup8\n        /* \"#utility.yul\":2230:2236   */\n      dup3\n        /* \"#utility.yul\":2219:2228   */\n      dup9\n        /* \"#utility.yul\":2215:2237   */\n      add\n        /* \"#utility.yul\":2194:2247   */\n      tag_116\n      jump\t// in\n    tag_133:\n        /* \"#utility.yul\":2184:2247   */\n      swap4\n      pop\n        /* \"#utility.yul\":2139:2257   */\n      pop\n        /* \"#utility.yul\":2296:2298   */\n      0x40\n        /* \"#utility.yul\":2322:2375   */\n      tag_134\n        /* \"#utility.yul\":2367:2374   */\n      dup8\n        /* \"#utility.yul\":2358:2364   */\n      dup3\n        /* \"#utility.yul\":2347:2356   */\n      dup9\n        /* \"#utility.yul\":2343:2365   */\n      add\n        /* \"#utility.yul\":2322:2375   */\n      tag_106\n      jump\t// in\n    tag_134:\n        /* \"#utility.yul\":2312:2375   */\n      swap3\n      pop\n        /* \"#utility.yul\":2267:2385   */\n      pop\n        /* \"#utility.yul\":2452:2454   */\n      0x60\n        /* \"#utility.yul\":2441:2450   */\n      dup6\n        /* \"#utility.yul\":2437:2455   */\n      add\n        /* \"#utility.yul\":2424:2456   */\n      calldataload\n        /* \"#utility.yul\":2483:2501   */\n      0xffffffffffffffff\n        /* \"#utility.yul\":2475:2481   */\n      dup2\n        /* \"#utility.yul\":2472:2502   */\n      gt\n        /* \"#utility.yul\":2469:2586   */\n      iszero\n      tag_135\n      jumpi\n        /* \"#utility.yul\":2505:2584   */\n      tag_136\n      tag_137\n      jump\t// in\n    tag_136:\n        /* \"#utility.yul\":2469:2586   */\n    tag_135:\n        /* \"#utility.yul\":2610:2673   */\n      tag_138\n        /* \"#utility.yul\":2665:2672   */\n      dup8\n        /* \"#utility.yul\":2656:2662   */\n      dup3\n        /* \"#utility.yul\":2645:2654   */\n      dup9\n        /* \"#utility.yul\":2641:2663   */\n      add\n        /* \"#utility.yul\":2610:2673   */\n      tag_110\n      jump\t// in\n    tag_138:\n        /* \"#utility.yul\":2600:2673   */\n      swap2\n      pop\n        /* \"#utility.yul\":2395:2683   */\n      pop\n        /* \"#utility.yul\":1745:2690   */\n      swap3\n      swap6\n      swap2\n      swap5\n      pop\n      swap3\n      pop\n      jump\t// out\n        /* \"#utility.yul\":2696:2814   */\n    tag_139:\n        /* \"#utility.yul\":2783:2807   */\n      tag_141\n        /* \"#utility.yul\":2801:2806   */\n      dup2\n        /* \"#utility.yul\":2783:2807   */\n      tag_142\n      jump\t// in\n    tag_141:\n        /* \"#utility.yul\":2778:2781   */\n      dup3\n        /* \"#utility.yul\":2771:2808   */\n      mstore\n        /* \"#utility.yul\":2696:2814   */\n      pop\n      pop\n      jump\t// out\n        /* \"#utility.yul\":2820:2977   */\n    tag_143:\n        /* \"#utility.yul\":2925:2970   */\n      tag_145\n        /* \"#utility.yul\":2945:2969   */\n      tag_146\n        /* \"#utility.yul\":2963:2968   */\n      dup3\n        /* \"#utility.yul\":2945:2969   */\n      tag_142\n      jump\t// in\n    tag_146:\n        /* \"#utility.yul\":2925:2970   */\n      tag_147\n      jump\t// in\n    tag_145:\n        /* \"#utility.yul\":2920:2923   */\n      dup3\n        /* \"#utility.yul\":2913:2971   */\n      mstore\n        /* \"#utility.yul\":2820:2977   */\n      pop\n      pop\n      jump\t// out\n        /* \"#utility.yul\":2983:3092   */\n    tag_148:\n        /* \"#utility.yul\":3064:3085   */\n      tag_150\n        /* \"#utility.yul\":3079:3084   */\n      dup2\n        /* \"#utility.yul\":3064:3085   */\n      tag_151\n      jump\t// in\n    tag_150:\n        /* \"#utility.yul\":3059:3062   */\n      dup3\n        /* \"#utility.yul\":3052:3086   */\n      mstore\n        /* \"#utility.yul\":2983:3092   */\n      pop\n      pop\n      jump\t// out\n        /* \"#utility.yul\":3098:3462   */\n    tag_152:\n        /* \"#utility.yul\":3186:3189   */\n      0x00\n        /* \"#utility.yul\":3214:3253   */\n      tag_154\n        /* \"#utility.yul\":3247:3252   */\n      dup3\n        /* \"#utility.yul\":3214:3253   */\n      tag_155\n      jump\t// in\n    tag_154:\n        /* \"#utility.yul\":3269:3340   */\n      tag_156\n        /* \"#utility.yul\":3333:3339   */\n      dup2\n        /* \"#utility.yul\":3328:3331   */\n      dup6\n        /* \"#utility.yul\":3269:3340   */\n      tag_157\n      jump\t// in\n    tag_156:\n        /* \"#utility.yul\":3262:3340   */\n      swap4\n      pop\n        /* \"#utility.yul\":3349:3401   */\n      tag_158\n        /* \"#utility.yul\":3394:3400   */\n      dup2\n        /* \"#utility.yul\":3389:3392   */\n      dup6\n        /* \"#utility.yul\":3382:3386   */\n      0x20\n        /* \"#utility.yul\":3375:3380   */\n      dup7\n        /* \"#utility.yul\":3371:3387   */\n      add\n        /* \"#utility.yul\":3349:3401   */\n      tag_159\n      jump\t// in\n    tag_158:\n        /* \"#utility.yul\":3426:3455   */\n      tag_160\n        /* \"#utility.yul\":3448:3454   */\n      dup2\n        /* \"#utility.yul\":3426:3455   */\n      tag_161\n      jump\t// in\n    tag_160:\n        /* \"#utility.yul\":3421:3424   */\n      dup5\n        /* \"#utility.yul\":3417:3456   */\n      add\n        /* \"#utility.yul\":3410:3456   */\n      swap2\n      pop\n        /* \"#utility.yul\":3190:3462   */\n      pop\n        /* \"#utility.yul\":3098:3462   */\n      swap3\n      swap2\n      pop\n      pop\n      jump\t// out\n        /* \"#utility.yul\":3468:3845   */\n    tag_162:\n        /* \"#utility.yul\":3574:3577   */\n      0x00\n        /* \"#utility.yul\":3602:3641   */\n      tag_164\n        /* \"#utility.yul\":3635:3640   */\n      dup3\n        /* \"#utility.yul\":3602:3641   */\n      tag_155\n      jump\t// in\n    tag_164:\n        /* \"#utility.yul\":3657:3746   */\n      tag_165\n        /* \"#utility.yul\":3739:3745   */\n      dup2\n        /* \"#utility.yul\":3734:3737   */\n      dup6\n        /* \"#utility.yul\":3657:3746   */\n      tag_166\n      jump\t// in\n    tag_165:\n        /* \"#utility.yul\":3650:3746   */\n      swap4\n      pop\n        /* \"#utility.yul\":3755:3807   */\n      tag_167\n        /* \"#utility.yul\":3800:3806   */\n      dup2\n        /* \"#utility.yul\":3795:3798   */\n      dup6\n        /* \"#utility.yul\":3788:3792   */\n      0x20\n        /* \"#utility.yul\":3781:3786   */\n      dup7\n        /* \"#utility.yul\":3777:3793   */\n      add\n        /* \"#utility.yul\":3755:3807   */\n      tag_159\n      jump\t// in\n    tag_167:\n        /* \"#utility.yul\":3832:3838   */\n      dup1\n        /* \"#utility.yul\":3827:3830   */\n      dup5\n        /* \"#utility.yul\":3823:3839   */\n      add\n        /* \"#utility.yul\":3816:3839   */\n      swap2\n      pop\n        /* \"#utility.yul\":3578:3845   */\n      pop\n        /* \"#utility.yul\":3468:3845   */\n      swap3\n      swap2\n      pop\n      pop\n      jump\t// out\n        /* \"#utility.yul\":3851:4217   */\n    tag_168:\n        /* \"#utility.yul\":3993:3996   */\n      0x00\n        /* \"#utility.yul\":4014:4081   */\n      tag_170\n        /* \"#utility.yul\":4078:4080   */\n      0x26\n        /* \"#utility.yul\":4073:4076   */\n      dup4\n        /* \"#utility.yul\":4014:4081   */\n      tag_157\n      jump\t// in\n    tag_170:\n        /* \"#utility.yul\":4007:4081   */\n      swap2\n      pop\n        /* \"#utility.yul\":4090:4183   */\n      tag_171\n        /* \"#utility.yul\":4179:4182   */\n      dup3\n        /* \"#utility.yul\":4090:4183   */\n      tag_172\n      jump\t// in\n    tag_171:\n        /* \"#utility.yul\":4208:4210   */\n      0x40\n        /* \"#utility.yul\":4203:4206   */\n      dup3\n        /* \"#utility.yul\":4199:4211   */\n      add\n        /* \"#utility.yul\":4192:4211   */\n      swap1\n      pop\n        /* \"#utility.yul\":3851:4217   */\n      swap2\n      swap1\n      pop\n      jump\t// out\n        /* \"#utility.yul\":4223:4589   */\n    tag_173:\n        /* \"#utility.yul\":4365:4368   */\n      0x00\n        /* \"#utility.yul\":4386:4453   */\n      tag_175\n        /* \"#utility.yul\":4450:4452   */\n      0x14\n        /* \"#utility.yul\":4445:4448   */\n      dup4\n        /* \"#utility.yul\":4386:4453   */\n      tag_157\n      jump\t// in\n    tag_175:\n        /* \"#utility.yul\":4379:4453   */\n      swap2\n      pop\n        /* \"#utility.yul\":4462:4555   */\n      tag_176\n        /* \"#utility.yul\":4551:4554   */\n      dup3\n        /* \"#utility.yul\":4462:4555   */\n      tag_177\n      jump\t// in\n    tag_176:\n        /* \"#utility.yul\":4580:4582   */\n      0x20\n        /* \"#utility.yul\":4575:4578   */\n      dup3\n        /* \"#utility.yul\":4571:4583   */\n      add\n        /* \"#utility.yul\":4564:4583   */\n      swap1\n      pop\n        /* \"#utility.yul\":4223:4589   */\n      swap2\n      swap1\n      pop\n      jump\t// out\n        /* \"#utility.yul\":4595:4961   */\n    tag_178:\n        /* \"#utility.yul\":4737:4740   */\n      0x00\n        /* \"#utility.yul\":4758:4825   */\n      tag_180\n        /* \"#utility.yul\":4822:4824   */\n      0x20\n        /* \"#utility.yul\":4817:4820   */\n      dup4\n        /* \"#utility.yul\":4758:4825   */\n      tag_157\n      jump\t// in\n    tag_180:\n        /* \"#utility.yul\":4751:4825   */\n      swap2\n      pop\n        /* \"#utility.yul\":4834:4927   */\n      tag_181\n        /* \"#utility.yul\":4923:4926   */\n      dup3\n        /* \"#utility.yul\":4834:4927   */\n      tag_182\n      jump\t// in\n    tag_181:\n        /* \"#utility.yul\":4952:4954   */\n      0x20\n        /* \"#utility.yul\":4947:4950   */\n      dup3\n        /* \"#utility.yul\":4943:4955   */\n      add\n        /* \"#utility.yul\":4936:4955   */\n      swap1\n      pop\n        /* \"#utility.yul\":4595:4961   */\n      swap2\n      swap1\n      pop\n      jump\t// out\n        /* \"#utility.yul\":4967:5333   */\n    tag_183:\n        /* \"#utility.yul\":5109:5112   */\n      0x00\n        /* \"#utility.yul\":5130:5197   */\n      tag_185\n        /* \"#utility.yul\":5194:5196   */\n      0x1b\n        /* \"#utility.yul\":5189:5192   */\n      dup4\n        /* \"#utility.yul\":5130:5197   */\n      tag_157\n      jump\t// in\n    tag_185:\n        /* \"#utility.yul\":5123:5197   */\n      swap2\n      pop\n        /* \"#utility.yul\":5206:5299   */\n      tag_186\n        /* \"#utility.yul\":5295:5298   */\n      dup3\n        /* \"#utility.yul\":5206:5299   */\n      tag_187\n      jump\t// in\n    tag_186:\n        /* \"#utility.yul\":5324:5326   */\n      0x20\n        /* \"#utility.yul\":5319:5322   */\n      dup3\n        /* \"#utility.yul\":5315:5327   */\n      add\n        /* \"#utility.yul\":5308:5327   */\n      swap1\n      pop\n        /* \"#utility.yul\":4967:5333   */\n      swap2\n      swap1\n      pop\n      jump\t// out\n        /* \"#utility.yul\":5339:5457   */\n    tag_188:\n        /* \"#utility.yul\":5426:5450   */\n      tag_190\n        /* \"#utility.yul\":5444:5449   */\n      dup2\n        /* \"#utility.yul\":5426:5450   */\n      tag_191\n      jump\t// in\n    tag_190:\n        /* \"#utility.yul\":5421:5424   */\n      dup3\n        /* \"#utility.yul\":5414:5451   */\n      mstore\n        /* \"#utility.yul\":5339:5457   */\n      pop\n      pop\n      jump\t// out\n        /* \"#utility.yul\":5463:5620   */\n    tag_192:\n        /* \"#utility.yul\":5568:5613   */\n      tag_194\n        /* \"#utility.yul\":5588:5612   */\n      tag_195\n        /* \"#utility.yul\":5606:5611   */\n      dup3\n        /* \"#utility.yul\":5588:5612   */\n      tag_191\n      jump\t// in\n    tag_195:\n        /* \"#utility.yul\":5568:5613   */\n      tag_196\n      jump\t// in\n    tag_194:\n        /* \"#utility.yul\":5563:5566   */\n      dup3\n        /* \"#utility.yul\":5556:5614   */\n      mstore\n        /* \"#utility.yul\":5463:5620   */\n      pop\n      pop\n      jump\t// out\n        /* \"#utility.yul\":5626:6183   */\n    tag_80:\n        /* \"#utility.yul\":5814:5817   */\n      0x00\n        /* \"#utility.yul\":5829:5904   */\n      tag_198\n        /* \"#utility.yul\":5900:5903   */\n      dup3\n        /* \"#utility.yul\":5891:5897   */\n      dup7\n        /* \"#utility.yul\":5829:5904   */\n      tag_143\n      jump\t// in\n    tag_198:\n        /* \"#utility.yul\":5929:5931   */\n      0x14\n        /* \"#utility.yul\":5924:5927   */\n      dup3\n        /* \"#utility.yul\":5920:5932   */\n      add\n        /* \"#utility.yul\":5913:5932   */\n      swap2\n      pop\n        /* \"#utility.yul\":5942:6017   */\n      tag_199\n        /* \"#utility.yul\":6013:6016   */\n      dup3\n        /* \"#utility.yul\":6004:6010   */\n      dup6\n        /* \"#utility.yul\":5942:6017   */\n      tag_192\n      jump\t// in\n    tag_199:\n        /* \"#utility.yul\":6042:6044   */\n      0x20\n        /* \"#utility.yul\":6037:6040   */\n      dup3\n        /* \"#utility.yul\":6033:6045   */\n      add\n        /* \"#utility.yul\":6026:6045   */\n      swap2\n      pop\n        /* \"#utility.yul\":6062:6157   */\n      tag_200\n        /* \"#utility.yul\":6153:6156   */\n      dup3\n        /* \"#utility.yul\":6144:6150   */\n      dup5\n        /* \"#utility.yul\":6062:6157   */\n      tag_162\n      jump\t// in\n    tag_200:\n        /* \"#utility.yul\":6055:6157   */\n      swap2\n      pop\n        /* \"#utility.yul\":6174:6177   */\n      dup2\n        /* \"#utility.yul\":6167:6177   */\n      swap1\n      pop\n        /* \"#utility.yul\":5626:6183   */\n      swap5\n      swap4\n      pop\n      pop\n      pop\n      pop\n      jump\t// out\n        /* \"#utility.yul\":6189:6411   */\n    tag_13:\n        /* \"#utility.yul\":6282:6286   */\n      0x00\n        /* \"#utility.yul\":6320:6322   */\n      0x20\n        /* \"#utility.yul\":6309:6318   */\n      dup3\n        /* \"#utility.yul\":6305:6323   */\n      add\n        /* \"#utility.yul\":6297:6323   */\n      swap1\n      pop\n        /* \"#utility.yul\":6333:6404   */\n      tag_202\n        /* \"#utility.yul\":6401:6402   */\n      0x00\n        /* \"#utility.yul\":6390:6399   */\n      dup4\n        /* \"#utility.yul\":6386:6403   */\n      add\n        /* \"#utility.yul\":6377:6383   */\n      dup5\n        /* \"#utility.yul\":6333:6404   */\n      tag_139\n      jump\t// in\n    tag_202:\n        /* \"#utility.yul\":6189:6411   */\n      swap3\n      swap2\n      pop\n      pop\n      jump\t// out\n        /* \"#utility.yul\":6417:6836   */\n    tag_74:\n        /* \"#utility.yul\":6583:6587   */\n      0x00\n        /* \"#utility.yul\":6621:6623   */\n      0x20\n        /* \"#utility.yul\":6610:6619   */\n      dup3\n        /* \"#utility.yul\":6606:6624   */\n      add\n        /* \"#utility.yul\":6598:6624   */\n      swap1\n      pop\n        /* \"#utility.yul\":6670:6679   */\n      dup2\n        /* \"#utility.yul\":6664:6668   */\n      dup2\n        /* \"#utility.yul\":6660:6680   */\n      sub\n        /* \"#utility.yul\":6656:6657   */\n      0x00\n        /* \"#utility.yul\":6645:6654   */\n      dup4\n        /* \"#utility.yul\":6641:6658   */\n      add\n        /* \"#utility.yul\":6634:6681   */\n      mstore\n        /* \"#utility.yul\":6698:6829   */\n      tag_204\n        /* \"#utility.yul\":6824:6828   */\n      dup2\n        /* \"#utility.yul\":6698:6829   */\n      tag_168\n      jump\t// in\n    tag_204:\n        /* \"#utility.yul\":6690:6829   */\n      swap1\n      pop\n        /* \"#utility.yul\":6417:6836   */\n      swap2\n      swap1\n      pop\n      jump\t// out\n        /* \"#utility.yul\":6842:7261   */\n    tag_46:\n        /* \"#utility.yul\":7008:7012   */\n      0x00\n        /* \"#utility.yul\":7046:7048   */\n      0x20\n        /* \"#utility.yul\":7035:7044   */\n      dup3\n        /* \"#utility.yul\":7031:7049   */\n      add\n        /* \"#utility.yul\":7023:7049   */\n      swap1\n      pop\n        /* \"#utility.yul\":7095:7104   */\n      dup2\n        /* \"#utility.yul\":7089:7093   */\n      dup2\n        /* \"#utility.yul\":7085:7105   */\n      sub\n        /* \"#utility.yul\":7081:7082   */\n      0x00\n        /* \"#utility.yul\":7070:7079   */\n      dup4\n        /* \"#utility.yul\":7066:7083   */\n      add\n        /* \"#utility.yul\":7059:7106   */\n      mstore\n        /* \"#utility.yul\":7123:7254   */\n      tag_206\n        /* \"#utility.yul\":7249:7253   */\n      dup2\n        /* \"#utility.yul\":7123:7254   */\n      tag_173\n      jump\t// in\n    tag_206:\n        /* \"#utility.yul\":7115:7254   */\n      swap1\n      pop\n        /* \"#utility.yul\":6842:7261   */\n      swap2\n      swap1\n      pop\n      jump\t// out\n        /* \"#utility.yul\":7267:7686   */\n    tag_36:\n        /* \"#utility.yul\":7433:7437   */\n      0x00\n        /* \"#utility.yul\":7471:7473   */\n      0x20\n        /* \"#utility.yul\":7460:7469   */\n      dup3\n        /* \"#utility.yul\":7456:7474   */\n      add\n        /* \"#utility.yul\":7448:7474   */\n      swap1\n      pop\n        /* \"#utility.yul\":7520:7529   */\n      dup2\n        /* \"#utility.yul\":7514:7518   */\n      dup2\n        /* \"#utility.yul\":7510:7530   */\n      sub\n        /* \"#utility.yul\":7506:7507   */\n      0x00\n        /* \"#utility.yul\":7495:7504   */\n      dup4\n        /* \"#utility.yul\":7491:7508   */\n      add\n        /* \"#utility.yul\":7484:7531   */\n      mstore\n        /* \"#utility.yul\":7548:7679   */\n      tag_208\n        /* \"#utility.yul\":7674:7678   */\n      dup2\n        /* \"#utility.yul\":7548:7679   */\n      tag_178\n      jump\t// in\n    tag_208:\n        /* \"#utility.yul\":7540:7679   */\n      swap1\n      pop\n        /* \"#utility.yul\":7267:7686   */\n      swap2\n      swap1\n      pop\n      jump\t// out\n        /* \"#utility.yul\":7692:8111   */\n    tag_51:\n        /* \"#utility.yul\":7858:7862   */\n      0x00\n        /* \"#utility.yul\":7896:7898   */\n      0x20\n        /* \"#utility.yul\":7885:7894   */\n      dup3\n        /* \"#utility.yul\":7881:7899   */\n      add\n        /* \"#utility.yul\":7873:7899   */\n      swap1\n      pop\n        /* \"#utility.yul\":7945:7954   */\n      dup2\n        /* \"#utility.yul\":7939:7943   */\n      dup2\n        /* \"#utility.yul\":7935:7955   */\n      sub\n        /* \"#utility.yul\":7931:7932   */\n      0x00\n        /* \"#utility.yul\":7920:7929   */\n      dup4\n        /* \"#utility.yul\":7916:7933   */\n      add\n        /* \"#utility.yul\":7909:7956   */\n      mstore\n        /* \"#utility.yul\":7973:8104   */\n      tag_210\n        /* \"#utility.yul\":8099:8103   */\n      dup2\n        /* \"#utility.yul\":7973:8104   */\n      tag_183\n      jump\t// in\n    tag_210:\n        /* \"#utility.yul\":7965:8104   */\n      swap1\n      pop\n        /* \"#utility.yul\":7692:8111   */\n      swap2\n      swap1\n      pop\n      jump\t// out\n        /* \"#utility.yul\":8117:8339   */\n    tag_19:\n        /* \"#utility.yul\":8210:8214   */\n      0x00\n        /* \"#utility.yul\":8248:8250   */\n      0x20\n        /* \"#utility.yul\":8237:8246   */\n      dup3\n        /* \"#utility.yul\":8233:8251   */\n      add\n        /* \"#utility.yul\":8225:8251   */\n      swap1\n      pop\n        /* \"#utility.yul\":8261:8332   */\n      tag_212\n        /* \"#utility.yul\":8329:8330   */\n      0x00\n        /* \"#utility.yul\":8318:8327   */\n      dup4\n        /* \"#utility.yul\":8314:8331   */\n      add\n        /* \"#utility.yul\":8305:8311   */\n      dup5\n        /* \"#utility.yul\":8261:8332   */\n      tag_188\n      jump\t// in\n    tag_212:\n        /* \"#utility.yul\":8117:8339   */\n      swap3\n      swap2\n      pop\n      pop\n      jump\t// out\n        /* \"#utility.yul\":8345:8989   */\n    tag_59:\n        /* \"#utility.yul\":8542:8546   */\n      0x00\n        /* \"#utility.yul\":8580:8583   */\n      0x80\n        /* \"#utility.yul\":8569:8578   */\n      dup3\n        /* \"#utility.yul\":8565:8584   */\n      add\n        /* \"#utility.yul\":8557:8584   */\n      swap1\n      pop\n        /* \"#utility.yul\":8594:8665   */\n      tag_214\n        /* \"#utility.yul\":8662:8663   */\n      0x00\n        /* \"#utility.yul\":8651:8660   */\n      dup4\n        /* \"#utility.yul\":8647:8664   */\n      add\n        /* \"#utility.yul\":8638:8644   */\n      dup8\n        /* \"#utility.yul\":8594:8665   */\n      tag_188\n      jump\t// in\n    tag_214:\n        /* \"#utility.yul\":8675:8747   */\n      tag_215\n        /* \"#utility.yul\":8743:8745   */\n      0x20\n        /* \"#utility.yul\":8732:8741   */\n      dup4\n        /* \"#utility.yul\":8728:8746   */\n      add\n        /* \"#utility.yul\":8719:8725   */\n      dup7\n        /* \"#utility.yul\":8675:8747   */\n      tag_139\n      jump\t// in\n    tag_215:\n        /* \"#utility.yul\":8757:8829   */\n      tag_216\n        /* \"#utility.yul\":8825:8827   */\n      0x40\n        /* \"#utility.yul\":8814:8823   */\n      dup4\n        /* \"#utility.yul\":8810:8828   */\n      add\n        /* \"#utility.yul\":8801:8807   */\n      dup6\n        /* \"#utility.yul\":8757:8829   */\n      tag_188\n      jump\t// in\n    tag_216:\n        /* \"#utility.yul\":8876:8885   */\n      dup2\n        /* \"#utility.yul\":8870:8874   */\n      dup2\n        /* \"#utility.yul\":8866:8886   */\n      sub\n        /* \"#utility.yul\":8861:8863   */\n      0x60\n        /* \"#utility.yul\":8850:8859   */\n      dup4\n        /* \"#utility.yul\":8846:8864   */\n      add\n        /* \"#utility.yul\":8839:8887   */\n      mstore\n        /* \"#utility.yul\":8904:8982   */\n      tag_217\n        /* \"#utility.yul\":8977:8981   */\n      dup2\n        /* \"#utility.yul\":8968:8974   */\n      dup5\n        /* \"#utility.yul\":8904:8982   */\n      tag_152\n      jump\t// in\n    tag_217:\n        /* \"#utility.yul\":8896:8982   */\n      swap1\n      pop\n        /* \"#utility.yul\":8345:8989   */\n      swap6\n      swap5\n      pop\n      pop\n      pop\n      pop\n      pop\n      jump\t// out\n        /* \"#utility.yul\":8995:9849   */\n    tag_25:\n        /* \"#utility.yul\":9242:9246   */\n      0x00\n        /* \"#utility.yul\":9280:9283   */\n      0xc0\n        /* \"#utility.yul\":9269:9278   */\n      dup3\n        /* \"#utility.yul\":9265:9284   */\n      add\n        /* \"#utility.yul\":9257:9284   */\n      swap1\n      pop\n        /* \"#utility.yul\":9294:9365   */\n      tag_219\n        /* \"#utility.yul\":9362:9363   */\n      0x00\n        /* \"#utility.yul\":9351:9360   */\n      dup4\n        /* \"#utility.yul\":9347:9364   */\n      add\n        /* \"#utility.yul\":9338:9344   */\n      dup10\n        /* \"#utility.yul\":9294:9365   */\n      tag_188\n      jump\t// in\n    tag_219:\n        /* \"#utility.yul\":9375:9447   */\n      tag_220\n        /* \"#utility.yul\":9443:9445   */\n      0x20\n        /* \"#utility.yul\":9432:9441   */\n      dup4\n        /* \"#utility.yul\":9428:9446   */\n      add\n        /* \"#utility.yul\":9419:9425   */\n      dup9\n        /* \"#utility.yul\":9375:9447   */\n      tag_188\n      jump\t// in\n    tag_220:\n        /* \"#utility.yul\":9457:9529   */\n      tag_221\n        /* \"#utility.yul\":9525:9527   */\n      0x40\n        /* \"#utility.yul\":9514:9523   */\n      dup4\n        /* \"#utility.yul\":9510:9528   */\n      add\n        /* \"#utility.yul\":9501:9507   */\n      dup8\n        /* \"#utility.yul\":9457:9529   */\n      tag_188\n      jump\t// in\n    tag_221:\n        /* \"#utility.yul\":9539:9611   */\n      tag_222\n        /* \"#utility.yul\":9607:9609   */\n      0x60\n        /* \"#utility.yul\":9596:9605   */\n      dup4\n        /* \"#utility.yul\":9592:9610   */\n      add\n        /* \"#utility.yul\":9583:9589   */\n      dup7\n        /* \"#utility.yul\":9539:9611   */\n      tag_139\n      jump\t// in\n    tag_222:\n        /* \"#utility.yul\":9659:9668   */\n      dup2\n        /* \"#utility.yul\":9653:9657   */\n      dup2\n        /* \"#utility.yul\":9649:9669   */\n      sub\n        /* \"#utility.yul\":9643:9646   */\n      0x80\n        /* \"#utility.yul\":9632:9641   */\n      dup4\n        /* \"#utility.yul\":9628:9647   */\n      add\n        /* \"#utility.yul\":9621:9670   */\n      mstore\n        /* \"#utility.yul\":9687:9765   */\n      tag_223\n        /* \"#utility.yul\":9760:9764   */\n      dup2\n        /* \"#utility.yul\":9751:9757   */\n      dup6\n        /* \"#utility.yul\":9687:9765   */\n      tag_152\n      jump\t// in\n    tag_223:\n        /* \"#utility.yul\":9679:9765   */\n      swap1\n      pop\n        /* \"#utility.yul\":9775:9842   */\n      tag_224\n        /* \"#utility.yul\":9837:9840   */\n      0xa0\n        /* \"#utility.yul\":9826:9835   */\n      dup4\n        /* \"#utility.yul\":9822:9841   */\n      add\n        /* \"#utility.yul\":9813:9819   */\n      dup5\n        /* \"#utility.yul\":9775:9842   */\n      tag_148\n      jump\t// in\n    tag_224:\n        /* \"#utility.yul\":8995:9849   */\n      swap8\n      swap7\n      pop\n      pop\n      pop\n      pop\n      pop\n      pop\n      pop\n      jump\t// out\n        /* \"#utility.yul\":9855:9984   */\n    tag_100:\n        /* \"#utility.yul\":9889:9895   */\n      0x00\n        /* \"#utility.yul\":9916:9936   */\n      tag_226\n      tag_227\n      jump\t// in\n    tag_226:\n        /* \"#utility.yul\":9906:9936   */\n      swap1\n      pop\n        /* \"#utility.yul\":9945:9978   */\n      tag_228\n        /* \"#utility.yul\":9973:9977   */\n      dup3\n        /* \"#utility.yul\":9965:9971   */\n      dup3\n        /* \"#utility.yul\":9945:9978   */\n      tag_229\n      jump\t// in\n    tag_228:\n        /* \"#utility.yul\":9855:9984   */\n      swap2\n      swap1\n      pop\n      jump\t// out\n        /* \"#utility.yul\":9990:10065   */\n    tag_227:\n        /* \"#utility.yul\":10023:10029   */\n      0x00\n        /* \"#utility.yul\":10056:10058   */\n      0x40\n        /* \"#utility.yul\":10050:10059   */\n      mload\n        /* \"#utility.yul\":10040:10059   */\n      swap1\n      pop\n        /* \"#utility.yul\":9990:10065   */\n      swap1\n      jump\t// out\n        /* \"#utility.yul\":10071:10379   */\n    tag_99:\n        /* \"#utility.yul\":10133:10137   */\n      0x00\n        /* \"#utility.yul\":10223:10241   */\n      0xffffffffffffffff\n        /* \"#utility.yul\":10215:10221   */\n      dup3\n        /* \"#utility.yul\":10212:10242   */\n      gt\n        /* \"#utility.yul\":10209:10265   */\n      iszero\n      tag_232\n      jumpi\n        /* \"#utility.yul\":10245:10263   */\n      tag_233\n      tag_234\n      jump\t// in\n    tag_233:\n        /* \"#utility.yul\":10209:10265   */\n    tag_232:\n        /* \"#utility.yul\":10283:10312   */\n      tag_235\n        /* \"#utility.yul\":10305:10311   */\n      dup3\n        /* \"#utility.yul\":10283:10312   */\n      tag_161\n      jump\t// in\n    tag_235:\n        /* \"#utility.yul\":10275:10312   */\n      swap1\n      pop\n        /* \"#utility.yul\":10367:10371   */\n      0x20\n        /* \"#utility.yul\":10361:10365   */\n      dup2\n        /* \"#utility.yul\":10357:10372   */\n      add\n        /* \"#utility.yul\":10349:10372   */\n      swap1\n      pop\n        /* \"#utility.yul\":10071:10379   */\n      swap2\n      swap1\n      pop\n      jump\t// out\n        /* \"#utility.yul\":10385:10484   */\n    tag_155:\n        /* \"#utility.yul\":10437:10443   */\n      0x00\n        /* \"#utility.yul\":10471:10476   */\n      dup2\n        /* \"#utility.yul\":10465:10477   */\n      mload\n        /* \"#utility.yul\":10455:10477   */\n      swap1\n      pop\n        /* \"#utility.yul\":10385:10484   */\n      swap2\n      swap1\n      pop\n      jump\t// out\n        /* \"#utility.yul\":10490:10659   */\n    tag_157:\n        /* \"#utility.yul\":10574:10585   */\n      0x00\n        /* \"#utility.yul\":10608:10614   */\n      dup3\n        /* \"#utility.yul\":10603:10606   */\n      dup3\n        /* \"#utility.yul\":10596:10615   */\n      mstore\n        /* \"#utility.yul\":10648:10652   */\n      0x20\n        /* \"#utility.yul\":10643:10646   */\n      dup3\n        /* \"#utility.yul\":10639:10653   */\n      add\n        /* \"#utility.yul\":10624:10653   */\n      swap1\n      pop\n        /* \"#utility.yul\":10490:10659   */\n      swap3\n      swap2\n      pop\n      pop\n      jump\t// out\n        /* \"#utility.yul\":10665:10813   */\n    tag_166:\n        /* \"#utility.yul\":10767:10778   */\n      0x00\n        /* \"#utility.yul\":10804:10807   */\n      dup2\n        /* \"#utility.yul\":10789:10807   */\n      swap1\n      pop\n        /* \"#utility.yul\":10665:10813   */\n      swap3\n      swap2\n      pop\n      pop\n      jump\t// out\n        /* \"#utility.yul\":10819:11124   */\n    tag_56:\n        /* \"#utility.yul\":10859:10862   */\n      0x00\n        /* \"#utility.yul\":10878:10898   */\n      tag_240\n        /* \"#utility.yul\":10896:10897   */\n      dup3\n        /* \"#utility.yul\":10878:10898   */\n      tag_191\n      jump\t// in\n    tag_240:\n        /* \"#utility.yul\":10873:10898   */\n      swap2\n      pop\n        /* \"#utility.yul\":10912:10932   */\n      tag_241\n        /* \"#utility.yul\":10930:10931   */\n      dup4\n        /* \"#utility.yul\":10912:10932   */\n      tag_191\n      jump\t// in\n    tag_241:\n        /* \"#utility.yul\":10907:10932   */\n      swap3\n      pop\n        /* \"#utility.yul\":11066:11067   */\n      dup3\n        /* \"#utility.yul\":10998:11064   */\n      0xffffffffffffffffffffffffffffffffffffffffffffffffffffffffffffffff\n        /* \"#utility.yul\":10994:11068   */\n      sub\n        /* \"#utility.yul\":10991:10992   */\n      dup3\n        /* \"#utility.yul\":10988:11069   */\n      gt\n        /* \"#utility.yul\":10985:11092   */\n      iszero\n      tag_242\n      jumpi\n        /* \"#utility.yul\":11072:11090   */\n      tag_243\n      tag_244\n      jump\t// in\n    tag_243:\n        /* \"#utility.yul\":10985:11092   */\n    tag_242:\n        /* \"#utility.yul\":11116:11117   */\n      dup3\n        /* \"#utility.yul\":11113:11114   */\n      dup3\n        /* \"#utility.yul\":11109:11118   */\n      add\n        /* \"#utility.yul\":11102:11118   */\n      swap1\n      pop\n        /* \"#utility.yul\":10819:11124   */\n      swap3\n      swap2\n      pop\n      pop\n      jump\t// out\n        /* \"#utility.yul\":11130:11478   */\n    tag_43:\n        /* \"#utility.yul\":11170:11177   */\n      0x00\n        /* \"#utility.yul\":11193:11213   */\n      tag_246\n        /* \"#utility.yul\":11211:11212   */\n      dup3\n        /* \"#utility.yul\":11193:11213   */\n      tag_191\n      jump\t// in\n    tag_246:\n        /* \"#utility.yul\":11188:11213   */\n      swap2\n      pop\n        /* \"#utility.yul\":11227:11247   */\n      tag_247\n        /* \"#utility.yul\":11245:11246   */\n      dup4\n        /* \"#utility.yul\":11227:11247   */\n      tag_191\n      jump\t// in\n    tag_247:\n        /* \"#utility.yul\":11222:11247   */\n      swap3\n      pop\n        /* \"#utility.yul\":11415:11416   */\n      dup2\n        /* \"#utility.yul\":11347:11413   */\n      0xffffffffffffffffffffffffffffffffffffffffffffffffffffffffffffffff\n        /* \"#utility.yul\":11343:11417   */\n      div\n        /* \"#utility.yul\":11340:11341   */\n      dup4\n        /* \"#utility.yul\":11337:11418   */\n      gt\n        /* \"#utility.yul\":11332:11333   */\n      dup3\n        /* \"#utility.yul\":11325:11334   */\n      iszero\n        /* \"#utility.yul\":11318:11335   */\n      iszero\n        /* \"#utility.yul\":11314:11419   */\n      and\n        /* \"#utility.yul\":11311:11442   */\n      iszero\n      tag_248\n      jumpi\n        /* \"#utility.yul\":11422:11440   */\n      tag_249\n      tag_244\n      jump\t// in\n    tag_249:\n        /* \"#utility.yul\":11311:11442   */\n    tag_248:\n        /* \"#utility.yul\":11470:11471   */\n      dup3\n        /* \"#utility.yul\":11467:11468   */\n      dup3\n        /* \"#utility.yul\":11463:11472   */\n      mul\n        /* \"#utility.yul\":11452:11472   */\n      swap1\n      pop\n        /* \"#utility.yul\":11130:11478   */\n      swap3\n      swap2\n      pop\n      pop\n      jump\t// out\n        /* \"#utility.yul\":11484:11580   */\n    tag_142:\n        /* \"#utility.yul\":11521:11528   */\n      0x00\n        /* \"#utility.yul\":11550:11574   */\n      tag_251\n        /* \"#utility.yul\":11568:11573   */\n      dup3\n        /* \"#utility.yul\":11550:11574   */\n      tag_252\n      jump\t// in\n    tag_251:\n        /* \"#utility.yul\":11539:11574   */\n      swap1\n      pop\n        /* \"#utility.yul\":11484:11580   */\n      swap2\n      swap1\n      pop\n      jump\t// out\n        /* \"#utility.yul\":11586:11676   */\n    tag_151:\n        /* \"#utility.yul\":11620:11627   */\n      0x00\n        /* \"#utility.yul\":11663:11668   */\n      dup2\n        /* \"#utility.yul\":11656:11669   */\n      iszero\n        /* \"#utility.yul\":11649:11670   */\n      iszero\n        /* \"#utility.yul\":11638:11670   */\n      swap1\n      pop\n        /* \"#utility.yul\":11586:11676   */\n      swap2\n      swap1\n      pop\n      jump\t// out\n        /* \"#utility.yul\":11682:11808   */\n    tag_252:\n        /* \"#utility.yul\":11719:11726   */\n      0x00\n        /* \"#utility.yul\":11759:11801   */\n      0xffffffffffffffffffffffffffffffffffffffff\n        /* \"#utility.yul\":11752:11757   */\n      dup3\n        /* \"#utility.yul\":11748:11802   */\n      and\n        /* \"#utility.yul\":11737:11802   */\n      swap1\n      pop\n        /* \"#utility.yul\":11682:11808   */\n      swap2\n      swap1\n      pop\n      jump\t// out\n        /* \"#utility.yul\":11814:11891   */\n    tag_191:\n        /* \"#utility.yul\":11851:11858   */\n      0x00\n        /* \"#utility.yul\":11880:11885   */\n      dup2\n        /* \"#utility.yul\":11869:11885   */\n      swap1\n      pop\n        /* \"#utility.yul\":11814:11891   */\n      swap2\n      swap1\n      pop\n      jump\t// out\n        /* \"#utility.yul\":11897:12051   */\n    tag_105:\n        /* \"#utility.yul\":11981:11987   */\n      dup3\n        /* \"#utility.yul\":11976:11979   */\n      dup2\n        /* \"#utility.yul\":11971:11974   */\n      dup4\n        /* \"#utility.yul\":11958:11988   */\n      calldatacopy\n        /* \"#utility.yul\":12043:12044   */\n      0x00\n        /* \"#utility.yul\":12034:12040   */\n      dup4\n        /* \"#utility.yul\":12029:12032   */\n      dup4\n        /* \"#utility.yul\":12025:12041   */\n      add\n        /* \"#utility.yul\":12018:12045   */\n      mstore\n        /* \"#utility.yul\":11897:12051   */\n      pop\n      pop\n      pop\n      jump\t// out\n        /* \"#utility.yul\":12057:12364   */\n    tag_159:\n        /* \"#utility.yul\":12125:12126   */\n      0x00\n        /* \"#utility.yul\":12135:12248   */\n    tag_258:\n        /* \"#utility.yul\":12149:12155   */\n      dup4\n        /* \"#utility.yul\":12146:12147   */\n      dup2\n        /* \"#utility.yul\":12143:12156   */\n      lt\n        /* \"#utility.yul\":12135:12248   */\n      iszero\n      tag_260\n      jumpi\n        /* \"#utility.yul\":12234:12235   */\n      dup1\n        /* \"#utility.yul\":12229:12232   */\n      dup3\n        /* \"#utility.yul\":12225:12236   */\n      add\n        /* \"#utility.yul\":12219:12237   */\n      mload\n        /* \"#utility.yul\":12215:12216   */\n      dup2\n        /* \"#utility.yul\":12210:12213   */\n      dup5\n        /* \"#utility.yul\":12206:12217   */\n      add\n        /* \"#utility.yul\":12199:12238   */\n      mstore\n        /* \"#utility.yul\":12171:12173   */\n      0x20\n        /* \"#utility.yul\":12168:12169   */\n      dup2\n        /* \"#utility.yul\":12164:12174   */\n      add\n        /* \"#utility.yul\":12159:12174   */\n      swap1\n      pop\n        /* \"#utility.yul\":12135:12248   */\n      jump(tag_258)\n    tag_260:\n        /* \"#utility.yul\":12266:12272   */\n      dup4\n        /* \"#utility.yul\":12263:12264   */\n      dup2\n        /* \"#utility.yul\":12260:12273   */\n      gt\n        /* \"#utility.yul\":12257:12358   */\n      iszero\n      tag_261\n      jumpi\n        /* \"#utility.yul\":12346:12347   */\n      0x00\n        /* \"#utility.yul\":12337:12343   */\n      dup5\n        /* \"#utility.yul\":12332:12335   */\n      dup5\n        /* \"#utility.yul\":12328:12344   */\n      add\n        /* \"#utility.yul\":12321:12348   */\n      mstore\n        /* \"#utility.yul\":12257:12358   */\n    tag_261:\n        /* \"#utility.yul\":12106:12364   */\n      pop\n        /* \"#utility.yul\":12057:12364   */\n      pop\n      pop\n      pop\n      jump\t// out\n        /* \"#utility.yul\":12370:12690   */\n    tag_61:\n        /* \"#utility.yul\":12414:12420   */\n      0x00\n        /* \"#utility.yul\":12451:12452   */\n      0x02\n        /* \"#utility.yul\":12445:12449   */\n      dup3\n        /* \"#utility.yul\":12441:12453   */\n      div\n        /* \"#utility.yul\":12431:12453   */\n      swap1\n      pop\n        /* \"#utility.yul\":12498:12499   */\n      0x01\n        /* \"#utility.yul\":12492:12496   */\n      dup3\n        /* \"#utility.yul\":12488:12500   */\n      and\n        /* \"#utility.yul\":12519:12537   */\n      dup1\n        /* \"#utility.yul\":12509:12590   */\n      tag_263\n      jumpi\n        /* \"#utility.yul\":12575:12579   */\n      0x7f\n        /* \"#utility.yul\":12567:12573   */\n      dup3\n        /* \"#utility.yul\":12563:12580   */\n      and\n        /* \"#utility.yul\":12553:12580   */\n      swap2\n      pop\n        /* \"#utility.yul\":12509:12590   */\n    tag_263:\n        /* \"#utility.yul\":12637:12639   */\n      0x20\n        /* \"#utility.yul\":12629:12635   */\n      dup3\n        /* \"#utility.yul\":12626:12640   */\n      lt\n        /* \"#utility.yul\":12606:12624   */\n      dup2\n        /* \"#utility.yul\":12603:12641   */\n      eq\n        /* \"#utility.yul\":12600:12684   */\n      iszero\n      tag_264\n      jumpi\n        /* \"#utility.yul\":12656:12674   */\n      tag_265\n      tag_266\n      jump\t// in\n    tag_265:\n        /* \"#utility.yul\":12600:12684   */\n    tag_264:\n        /* \"#utility.yul\":12421:12690   */\n      pop\n        /* \"#utility.yul\":12370:12690   */\n      swap2\n      swap1\n      pop\n      jump\t// out\n        /* \"#utility.yul\":12696:12977   */\n    tag_229:\n        /* \"#utility.yul\":12779:12806   */\n      tag_268\n        /* \"#utility.yul\":12801:12805   */\n      dup3\n        /* \"#utility.yul\":12779:12806   */\n      tag_161\n      jump\t// in\n    tag_268:\n        /* \"#utility.yul\":12771:12777   */\n      dup2\n        /* \"#utility.yul\":12767:12807   */\n      add\n        /* \"#utility.yul\":12909:12915   */\n      dup2\n        /* \"#utility.yul\":12897:12907   */\n      dup2\n        /* \"#utility.yul\":12894:12916   */\n      lt\n        /* \"#utility.yul\":12873:12891   */\n      0xffffffffffffffff\n        /* \"#utility.yul\":12861:12871   */\n      dup3\n        /* \"#utility.yul\":12858:12892   */\n      gt\n        /* \"#utility.yul\":12855:12917   */\n      or\n        /* \"#utility.yul\":12852:12940   */\n      iszero\n      tag_269\n      jumpi\n        /* \"#utility.yul\":12920:12938   */\n      tag_270\n      tag_234\n      jump\t// in\n    tag_270:\n        /* \"#utility.yul\":12852:12940   */\n    tag_269:\n        /* \"#utility.yul\":12960:12970   */\n      dup1\n        /* \"#utility.yul\":12956:12958   */\n      0x40\n        /* \"#utility.yul\":12949:12971   */\n      mstore\n        /* \"#utility.yul\":12739:12977   */\n      pop\n        /* \"#utility.yul\":12696:12977   */\n      pop\n      pop\n      jump\t// out\n        /* \"#utility.yul\":12983:13083   */\n    tag_147:\n        /* \"#utility.yul\":13022:13029   */\n      0x00\n        /* \"#utility.yul\":13051:13077   */\n      tag_272\n        /* \"#utility.yul\":13071:13076   */\n      dup3\n        /* \"#utility.yul\":13051:13077   */\n      tag_273\n      jump\t// in\n    tag_272:\n        /* \"#utility.yul\":13040:13077   */\n      swap1\n      pop\n        /* \"#utility.yul\":12983:13083   */\n      swap2\n      swap1\n      pop\n      jump\t// out\n        /* \"#utility.yul\":13089:13183   */\n    tag_273:\n        /* \"#utility.yul\":13128:13135   */\n      0x00\n        /* \"#utility.yul\":13157:13177   */\n      tag_275\n        /* \"#utility.yul\":13171:13176   */\n      dup3\n        /* \"#utility.yul\":13157:13177   */\n      tag_276\n      jump\t// in\n    tag_275:\n        /* \"#utility.yul\":13146:13177   */\n      swap1\n      pop\n        /* \"#utility.yul\":13089:13183   */\n      swap2\n      swap1\n      pop\n      jump\t// out\n        /* \"#utility.yul\":13189:13268   */\n    tag_196:\n        /* \"#utility.yul\":13228:13235   */\n      0x00\n        /* \"#utility.yul\":13257:13262   */\n      dup2\n        /* \"#utility.yul\":13246:13262   */\n      swap1\n      pop\n        /* \"#utility.yul\":13189:13268   */\n      swap2\n      swap1\n      pop\n      jump\t// out\n        /* \"#utility.yul\":13274:13450   */\n    tag_82:\n        /* \"#utility.yul\":13306:13307   */\n      0x00\n        /* \"#utility.yul\":13323:13343   */\n      tag_279\n        /* \"#utility.yul\":13341:13342   */\n      dup3\n        /* \"#utility.yul\":13323:13343   */\n      tag_191\n      jump\t// in\n    tag_279:\n        /* \"#utility.yul\":13318:13343   */\n      swap2\n      pop\n        /* \"#utility.yul\":13357:13377   */\n      tag_280\n        /* \"#utility.yul\":13375:13376   */\n      dup4\n        /* \"#utility.yul\":13357:13377   */\n      tag_191\n      jump\t// in\n    tag_280:\n        /* \"#utility.yul\":13352:13377   */\n      swap3\n      pop\n        /* \"#utility.yul\":13396:13397   */\n      dup3\n        /* \"#utility.yul\":13386:13421   */\n      tag_281\n      jumpi\n        /* \"#utility.yul\":13401:13419   */\n      tag_282\n      tag_283\n      jump\t// in\n    tag_282:\n        /* \"#utility.yul\":13386:13421   */\n    tag_281:\n        /* \"#utility.yul\":13442:13443   */\n      dup3\n        /* \"#utility.yul\":13439:13440   */\n      dup3\n        /* \"#utility.yul\":13435:13444   */\n      mod\n        /* \"#utility.yul\":13430:13444   */\n      swap1\n      pop\n        /* \"#utility.yul\":13274:13450   */\n      swap3\n      swap2\n      pop\n      pop\n      jump\t// out\n        /* \"#utility.yul\":13456:13636   */\n    tag_244:\n        /* \"#utility.yul\":13504:13581   */\n      0x4e487b7100000000000000000000000000000000000000000000000000000000\n        /* \"#utility.yul\":13501:13502   */\n      0x00\n        /* \"#utility.yul\":13494:13582   */\n      mstore\n        /* \"#utility.yul\":13601:13605   */\n      0x11\n        /* \"#utility.yul\":13598:13599   */\n      0x04\n        /* \"#utility.yul\":13591:13606   */\n      mstore\n        /* \"#utility.yul\":13625:13629   */\n      0x24\n        /* \"#utility.yul\":13622:13623   */\n      0x00\n        /* \"#utility.yul\":13615:13630   */\n      revert\n        /* \"#utility.yul\":13642:13822   */\n    tag_283:\n        /* \"#utility.yul\":13690:13767   */\n      0x4e487b7100000000000000000000000000000000000000000000000000000000\n        /* \"#utility.yul\":13687:13688   */\n      0x00\n        /* \"#utility.yul\":13680:13768   */\n      mstore\n        /* \"#utility.yul\":13787:13791   */\n      0x12\n        /* \"#utility.yul\":13784:13785   */\n      0x04\n        /* \"#utility.yul\":13777:13792   */\n      mstore\n        /* \"#utility.yul\":13811:13815   */\n      0x24\n        /* \"#utility.yul\":13808:13809   */\n      0x00\n        /* \"#utility.yul\":13801:13816   */\n      revert\n        /* \"#utility.yul\":13828:14008   */\n    tag_266:\n        /* \"#utility.yul\":13876:13953   */\n      0x4e487b7100000000000000000000000000000000000000000000000000000000\n        /* \"#utility.yul\":13873:13874   */\n      0x00\n        /* \"#utility.yul\":13866:13954   */\n      mstore\n        /* \"#utility.yul\":13973:13977   */\n      0x22\n        /* \"#utility.yul\":13970:13971   */\n      0x04\n        /* \"#utility.yul\":13963:13978   */\n      mstore\n        /* \"#utility.yul\":13997:14001   */\n      0x24\n        /* \"#utility.yul\":13994:13995   */\n      0x00\n        /* \"#utility.yul\":13987:14002   */\n      revert\n        /* \"#utility.yul\":14014:14194   */\n    tag_234:\n        /* \"#utility.yul\":14062:14139   */\n      0x4e487b7100000000000000000000000000000000000000000000000000000000\n        /* \"#utility.yul\":14059:14060   */\n      0x00\n        /* \"#utility.yul\":14052:14140   */\n      mstore\n        /* \"#utility.yul\":14159:14163   */\n      0x41\n        /* \"#utility.yul\":14156:14157   */\n      0x04\n        /* \"#utility.yul\":14149:14164   */\n      mstore\n        /* \"#utility.yul\":14183:14187   */\n      0x24\n        /* \"#utility.yul\":14180:14181   */\n      0x00\n        /* \"#utility.yul\":14173:14188   */\n      revert\n        /* \"#utility.yul\":14200:14317   */\n    tag_114:\n        /* \"#utility.yul\":14309:14310   */\n      0x00\n        /* \"#utility.yul\":14306:14307   */\n      dup1\n        /* \"#utility.yul\":14299:14311   */\n      revert\n        /* \"#utility.yul\":14323:14440   */\n    tag_103:\n        /* \"#utility.yul\":14432:14433   */\n      0x00\n        /* \"#utility.yul\":14429:14430   */\n      dup1\n        /* \"#utility.yul\":14422:14434   */\n      revert\n        /* \"#utility.yul\":14446:14563   */\n    tag_137:\n        /* \"#utility.yul\":14555:14556   */\n      0x00\n        /* \"#utility.yul\":14552:14553   */\n      dup1\n        /* \"#utility.yul\":14545:14557   */\n      revert\n        /* \"#utility.yul\":14569:14686   */\n    tag_123:\n        /* \"#utility.yul\":14678:14679   */\n      0x00\n        /* \"#utility.yul\":14675:14676   */\n      dup1\n        /* \"#utility.yul\":14668:14680   */\n      revert\n        /* \"#utility.yul\":14692:14794   */\n    tag_161:\n        /* \"#utility.yul\":14733:14739   */\n      0x00\n        /* \"#utility.yul\":14784:14786   */\n      0x1f\n        /* \"#utility.yul\":14780:14787   */\n      not\n        /* \"#utility.yul\":14775:14777   */\n      0x1f\n        /* \"#utility.yul\":14768:14773   */\n      dup4\n        /* \"#utility.yul\":14764:14778   */\n      add\n        /* \"#utility.yul\":14760:14788   */\n      and\n        /* \"#utility.yul\":14750:14788   */\n      swap1\n      pop\n        /* \"#utility.yul\":14692:14794   */\n      swap2\n      swap1\n      pop\n      jump\t// out\n        /* \"#utility.yul\":14800:14894   */\n    tag_276:\n        /* \"#utility.yul\":14833:14841   */\n      0x00\n        /* \"#utility.yul\":14881:14886   */\n      dup2\n        /* \"#utility.yul\":14877:14879   */\n      0x60\n        /* \"#utility.yul\":14873:14887   */\n      shl\n        /* \"#utility.yul\":14852:14887   */\n      swap1\n      pop\n        /* \"#utility.yul\":14800:14894   */\n      swap2\n      swap1\n      pop\n      jump\t// out\n        /* \"#utility.yul\":14900:15125   */\n    tag_172:\n        /* \"#utility.yul\":15040:15074   */\n      0x4f776e61626c653a206e6577206f776e657220697320746865207a65726f2061\n        /* \"#utility.yul\":15036:15037   */\n      0x00\n        /* \"#utility.yul\":15028:15034   */\n      dup3\n        /* \"#utility.yul\":15024:15038   */\n      add\n        /* \"#utility.yul\":15017:15075   */\n      mstore\n        /* \"#utility.yul\":15109:15117   */\n      0x6464726573730000000000000000000000000000000000000000000000000000\n        /* \"#utility.yul\":15104:15106   */\n      0x20\n        /* \"#utility.yul\":15096:15102   */\n      dup3\n        /* \"#utility.yul\":15092:15107   */\n      add\n        /* \"#utility.yul\":15085:15118   */\n      mstore\n        /* \"#utility.yul\":14900:15125   */\n      pop\n      jump\t// out\n        /* \"#utility.yul\":15131:15301   */\n    tag_177:\n        /* \"#utility.yul\":15271:15293   */\n      0x76616c75652063616e6e6f74206265206e756c6c000000000000000000000000\n        /* \"#utility.yul\":15267:15268   */\n      0x00\n        /* \"#utility.yul\":15259:15265   */\n      dup3\n        /* \"#utility.yul\":15255:15269   */\n      add\n        /* \"#utility.yul\":15248:15294   */\n      mstore\n        /* \"#utility.yul\":15131:15301   */\n      pop\n      jump\t// out\n        /* \"#utility.yul\":15307:15489   */\n    tag_182:\n        /* \"#utility.yul\":15447:15481   */\n      0x4f776e61626c653a2063616c6c6572206973206e6f7420746865206f776e6572\n        /* \"#utility.yul\":15443:15444   */\n      0x00\n        /* \"#utility.yul\":15435:15441   */\n      dup3\n        /* \"#utility.yul\":15431:15445   */\n      add\n        /* \"#utility.yul\":15424:15482   */\n      mstore\n        /* \"#utility.yul\":15307:15489   */\n      pop\n      jump\t// out\n        /* \"#utility.yul\":15495:15672   */\n    tag_187:\n        /* \"#utility.yul\":15635:15664   */\n      0x7468697320686f757365496420616c7265616479206578697374730000000000\n        /* \"#utility.yul\":15631:15632   */\n      0x00\n        /* \"#utility.yul\":15623:15629   */\n      dup3\n        /* \"#utility.yul\":15619:15633   */\n      add\n        /* \"#utility.yul\":15612:15665   */\n      mstore\n        /* \"#utility.yul\":15495:15672   */\n      pop\n      jump\t// out\n        /* \"#utility.yul\":15678:15800   */\n    tag_109:\n        /* \"#utility.yul\":15751:15775   */\n      tag_299\n        /* \"#utility.yul\":15769:15774   */\n      dup2\n        /* \"#utility.yul\":15751:15775   */\n      tag_142\n      jump\t// in\n    tag_299:\n        /* \"#utility.yul\":15744:15749   */\n      dup2\n        /* \"#utility.yul\":15741:15776   */\n      eq\n        /* \"#utility.yul\":15731:15794   */\n      tag_300\n      jumpi\n        /* \"#utility.yul\":15790:15791   */\n      0x00\n        /* \"#utility.yul\":15787:15788   */\n      dup1\n        /* \"#utility.yul\":15780:15792   */\n      revert\n        /* \"#utility.yul\":15731:15794   */\n    tag_300:\n        /* \"#utility.yul\":15678:15800   */\n      pop\n      jump\t// out\n        /* \"#utility.yul\":15806:15928   */\n    tag_119:\n        /* \"#utility.yul\":15879:15903   */\n      tag_302\n        /* \"#utility.yul\":15897:15902   */\n      dup2\n        /* \"#utility.yul\":15879:15903   */\n      tag_191\n      jump\t// in\n    tag_302:\n        /* \"#utility.yul\":15872:15877   */\n      dup2\n        /* \"#utility.yul\":15869:15904   */\n      eq\n        /* \"#utility.yul\":15859:15922   */\n      tag_303\n      jumpi\n        /* \"#utility.yul\":15918:15919   */\n      0x00\n        /* \"#utility.yul\":15915:15916   */\n      dup1\n        /* \"#utility.yul\":15908:15920   */\n      revert\n        /* \"#utility.yul\":15859:15922   */\n    tag_303:\n        /* \"#utility.yul\":15806:15928   */\n      pop\n      jump\t// out\n\n    auxdata: 0xa264697066735822122003b5691e9e8e2c474dd212b85b6bd76424fffea4e8f3cc2adcf5882641ebc88464736f6c63430008070033\n}\n",
				"bytecode": {
					"linkReferences": {},
					"object": "60806040526005600255600254600a6200001a91906200017f565b600355620151806004553480156200003157600080fd5b5062000052620000466200005860201b60201c565b6200006060201b60201c565b62000302565b600033905090565b60008060009054906101000a900473ffffffffffffffffffffffffffffffffffffffff169050816000806101000a81548173ffffffffffffffffffffffffffffffffffffffff021916908373ffffffffffffffffffffffffffffffffffffffff1602179055508173ffffffffffffffffffffffffffffffffffffffff168173ffffffffffffffffffffffffffffffffffffffff167f8be0079c531659141344cd1fd0a4f28419497f9722a3daafe3b4186f6b6457e060405160405180910390a35050565b6000808291508390505b600185111562000176578086048111156200014e576200014d620002c6565b5b60018516156200015e5780820291505b80810290506200016e85620002f5565b94506200012e565b94509492505050565b60006200018c82620002bc565b91506200019983620002bc565b9250620001c87fffffffffffffffffffffffffffffffffffffffffffffffffffffffffffffffff8484620001d0565b905092915050565b600082620001e25760019050620002b5565b81620001f25760009050620002b5565b81600181146200020b576002811462000216576200024c565b6001915050620002b5565b60ff8411156200022b576200022a620002c6565b5b8360020a915084821115620002455762000244620002c6565b5b50620002b5565b5060208310610133831016604e8410600b8410161715620002865782820a90508381111562000280576200027f620002c6565b5b620002b5565b62000295848484600162000124565b92509050818404811115620002af57620002ae620002c6565b5b81810290505b9392505050565b6000819050919050565b7f4e487b7100000000000000000000000000000000000000000000000000000000600052601160045260246000fd5b60008160011c9050919050565b61107780620003126000396000f3fe608060405234801561001057600080fd5b50600436106100575760003560e01c8063715018a61461005c5780638da5cb5b1461006657806391bfe0d414610084578063aeda852f146100b4578063f2fde38b146100e9575b600080fd5b610064610105565b005b61006e61018d565b60405161007b9190610a78565b60405180910390f35b61009e6004803603810190610099919061086b565b6101b6565b6040516100ab9190610b13565b60405180910390f35b6100ce60048036038101906100c9919061083e565b6103ca565b6040516100e096959493929190610b7a565b60405180910390f35b61010360048036038101906100fe9190610811565b6104bb565b005b61010d6105b3565b73ffffffffffffffffffffffffffffffffffffffff1661012b61018d565b73ffffffffffffffffffffffffffffffffffffffff1614610181576040517f08c379a000000000000000000000000000000000000000000000000000000000815260040161017890610ad3565b60405180910390fd5b61018b60006105bb565b565b60008060009054906101000a900473ffffffffffffffffffffffffffffffffffffffff16905090565b60008084866101c59190610cb5565b11610205576040517f08c379a00000000000000000000000000000000000000000000000000000000081526004016101fc90610ab3565b60405180910390fd5b600061021284868561067f565b9050600560008281526020019081526020016000206000015481141561026d576040517f08c379a000000000000000000000000000000000000000000000000000000000815260040161026490610af3565b60405180910390fd5b6040518060c001604052808281526020018781526020018681526020018573ffffffffffffffffffffffffffffffffffffffff168152602001848152602001600015158152506005600083815260200190815260200160002060008201518160000155602082015181600101556040820151816002015560608201518160030160006101000a81548173ffffffffffffffffffffffffffffffffffffffff021916908373ffffffffffffffffffffffffffffffffffffffff16021790555060808201518160040190805190602001906103479291906106d4565b5060a08201518160050160006101000a81548160ff0219169083151502179055509050506103816004544261037c9190610c5f565b6106ca565b7f8f5afd88eb4be0ac287d87970052ce9a2b453448408e3c91a695ad7509ab7194818588866040516103b69493929190610b2e565b60405180910390a180915050949350505050565b60056020528060005260406000206000915090508060000154908060010154908060020154908060030160009054906101000a900473ffffffffffffffffffffffffffffffffffffffff169080600401805461042590610d99565b80601f016020809104026020016040519081016040528092919081815260200182805461045190610d99565b801561049e5780601f106104735761010080835404028352916020019161049e565b820191906000526020600020905b81548152906001019060200180831161048157829003601f168201915b5050505050908060050160009054906101000a900460ff16905086565b6104c36105b3565b73ffffffffffffffffffffffffffffffffffffffff166104e161018d565b73ffffffffffffffffffffffffffffffffffffffff1614610537576040517f08c379a000000000000000000000000000000000000000000000000000000000815260040161052e90610ad3565b60405180910390fd5b600073ffffffffffffffffffffffffffffffffffffffff168173ffffffffffffffffffffffffffffffffffffffff1614156105a7576040517f08c379a000000000000000000000000000000000000000000000000000000000815260040161059e90610a93565b60405180910390fd5b6105b0816105bb565b50565b600033905090565b60008060009054906101000a900473ffffffffffffffffffffffffffffffffffffffff169050816000806101000a81548173ffffffffffffffffffffffffffffffffffffffff021916908373ffffffffffffffffffffffffffffffffffffffff1602179055508173ffffffffffffffffffffffffffffffffffffffff168173ffffffffffffffffffffffffffffffffffffffff167f8be0079c531659141344cd1fd0a4f28419497f9722a3daafe3b4186f6b6457e060405160405180910390a35050565b60008084848460405160200161069793929190610a3f565b6040516020818303038152906040528051906020012060001c9050600354816106c09190610e2a565b9150509392505050565b8060018190555050565b8280546106e090610d99565b90600052602060002090601f0160209004810192826107025760008555610749565b82601f1061071b57805160ff1916838001178555610749565b82800160010185558215610749579182015b8281111561074857825182559160200191906001019061072d565b5b509050610756919061075a565b5090565b5b8082111561077357600081600090555060010161075b565b5090565b600061078a61078584610c07565b610be2565b9050828152602081018484840111156107a6576107a5610f1c565b5b6107b1848285610d57565b509392505050565b6000813590506107c881611013565b92915050565b600082601f8301126107e3576107e2610f17565b5b81356107f3848260208601610777565b91505092915050565b60008135905061080b8161102a565b92915050565b60006020828403121561082757610826610f26565b5b6000610835848285016107b9565b91505092915050565b60006020828403121561085457610853610f26565b5b6000610862848285016107fc565b91505092915050565b6000806000806080858703121561088557610884610f26565b5b6000610893878288016107fc565b94505060206108a4878288016107fc565b93505060406108b5878288016107b9565b925050606085013567ffffffffffffffff8111156108d6576108d5610f21565b5b6108e2878288016107ce565b91505092959194509250565b6108f781610d0f565b82525050565b61090e61090982610d0f565b610dfc565b82525050565b61091d81610d21565b82525050565b600061092e82610c38565b6109388185610c43565b9350610948818560208601610d66565b61095181610f2b565b840191505092915050565b600061096782610c38565b6109718185610c54565b9350610981818560208601610d66565b80840191505092915050565b600061099a602683610c43565b91506109a582610f49565b604082019050919050565b60006109bd601483610c43565b91506109c882610f98565b602082019050919050565b60006109e0602083610c43565b91506109eb82610fc1565b602082019050919050565b6000610a03601b83610c43565b9150610a0e82610fea565b602082019050919050565b610a2281610d4d565b82525050565b610a39610a3482610d4d565b610e20565b82525050565b6000610a4b82866108fd565b601482019150610a5b8285610a28565b602082019150610a6b828461095c565b9150819050949350505050565b6000602082019050610a8d60008301846108ee565b92915050565b60006020820190508181036000830152610aac8161098d565b9050919050565b60006020820190508181036000830152610acc816109b0565b9050919050565b60006020820190508181036000830152610aec816109d3565b9050919050565b60006020820190508181036000830152610b0c816109f6565b9050919050565b6000602082019050610b286000830184610a19565b92915050565b6000608082019050610b436000830187610a19565b610b5060208301866108ee565b610b5d6040830185610a19565b8181036060830152610b6f8184610923565b905095945050505050565b600060c082019050610b8f6000830189610a19565b610b9c6020830188610a19565b610ba96040830187610a19565b610bb660608301866108ee565b8181036080830152610bc88185610923565b9050610bd760a0830184610914565b979650505050505050565b6000610bec610bfd565b9050610bf88282610dcb565b919050565b6000604051905090565b600067ffffffffffffffff821115610c2257610c21610ee8565b5b610c2b82610f2b565b9050602081019050919050565b600081519050919050565b600082825260208201905092915050565b600081905092915050565b6000610c6a82610d4d565b9150610c7583610d4d565b9250827fffffffffffffffffffffffffffffffffffffffffffffffffffffffffffffffff03821115610caa57610ca9610e5b565b5b828201905092915050565b6000610cc082610d4d565b9150610ccb83610d4d565b9250817fffffffffffffffffffffffffffffffffffffffffffffffffffffffffffffffff0483118215151615610d0457610d03610e5b565b5b828202905092915050565b6000610d1a82610d2d565b9050919050565b60008115159050919050565b600073ffffffffffffffffffffffffffffffffffffffff82169050919050565b6000819050919050565b82818337600083830152505050565b60005b83811015610d84578082015181840152602081019050610d69565b83811115610d93576000848401525b50505050565b60006002820490506001821680610db157607f821691505b60208210811415610dc557610dc4610eb9565b5b50919050565b610dd482610f2b565b810181811067ffffffffffffffff82111715610df357610df2610ee8565b5b80604052505050565b6000610e0782610e0e565b9050919050565b6000610e1982610f3c565b9050919050565b6000819050919050565b6000610e3582610d4d565b9150610e4083610d4d565b925082610e5057610e4f610e8a565b5b828206905092915050565b7f4e487b7100000000000000000000000000000000000000000000000000000000600052601160045260246000fd5b7f4e487b7100000000000000000000000000000000000000000000000000000000600052601260045260246000fd5b7f4e487b7100000000000000000000000000000000000000000000000000000000600052602260045260246000fd5b7f4e487b7100000000000000000000000000000000000000000000000000000000600052604160045260246000fd5b600080fd5b600080fd5b600080fd5b600080fd5b6000601f19601f8301169050919050565b60008160601b9050919050565b7f4f776e61626c653a206e6577206f776e657220697320746865207a65726f206160008201527f6464726573730000000000000000000000000000000000000000000000000000602082015250565b7f76616c75652063616e6e6f74206265206e756c6c000000000000000000000000600082015250565b7f4f776e61626c653a2063616c6c6572206973206e6f7420746865206f776e6572600082015250565b7f7468697320686f757365496420616c7265616479206578697374730000000000600082015250565b61101c81610d0f565b811461102757600080fd5b50565b61103381610d4d565b811461103e57600080fd5b5056fea264697066735822122003b5691e9e8e2c474dd212b85b6bd76424fffea4e8f3cc2adcf5882641ebc88464736f6c63430008070033",
					"opcodes": "PUSH1 0x80 PUSH1 0x40 MSTORE PUSH1 0x5 PUSH1 0x2 SSTORE PUSH1 0x2 SLOAD PUSH1 0xA PUSH3 0x1A SWAP2 SWAP1 PUSH3 0x17F JUMP JUMPDEST PUSH1 0x3 SSTORE PUSH3 0x15180 PUSH1 0x4 SSTORE CALLVALUE DUP1 ISZERO PUSH3 0x31 JUMPI PUSH1 0x0 DUP1 REVERT JUMPDEST POP PUSH3 0x52 PUSH3 0x46 PUSH3 0x58 PUSH1 0x20 SHL PUSH1 0x20 SHR JUMP JUMPDEST PUSH3 0x60 PUSH1 0x20 SHL PUSH1 0x20 SHR JUMP JUMPDEST PUSH3 0x302 JUMP JUMPDEST PUSH1 0x0 CALLER SWAP1 POP SWAP1 JUMP JUMPDEST PUSH1 0x0 DUP1 PUSH1 0x0 SWAP1 SLOAD SWAP1 PUSH2 0x100 EXP SWAP1 DIV PUSH20 0xFFFFFFFFFFFFFFFFFFFFFFFFFFFFFFFFFFFFFFFF AND SWAP1 POP DUP2 PUSH1 0x0 DUP1 PUSH2 0x100 EXP DUP2 SLOAD DUP2 PUSH20 0xFFFFFFFFFFFFFFFFFFFFFFFFFFFFFFFFFFFFFFFF MUL NOT AND SWAP1 DUP4 PUSH20 0xFFFFFFFFFFFFFFFFFFFFFFFFFFFFFFFFFFFFFFFF AND MUL OR SWAP1 SSTORE POP DUP2 PUSH20 0xFFFFFFFFFFFFFFFFFFFFFFFFFFFFFFFFFFFFFFFF AND DUP2 PUSH20 0xFFFFFFFFFFFFFFFFFFFFFFFFFFFFFFFFFFFFFFFF AND PUSH32 0x8BE0079C531659141344CD1FD0A4F28419497F9722A3DAAFE3B4186F6B6457E0 PUSH1 0x40 MLOAD PUSH1 0x40 MLOAD DUP1 SWAP2 SUB SWAP1 LOG3 POP POP JUMP JUMPDEST PUSH1 0x0 DUP1 DUP3 SWAP2 POP DUP4 SWAP1 POP JUMPDEST PUSH1 0x1 DUP6 GT ISZERO PUSH3 0x176 JUMPI DUP1 DUP7 DIV DUP2 GT ISZERO PUSH3 0x14E JUMPI PUSH3 0x14D PUSH3 0x2C6 JUMP JUMPDEST JUMPDEST PUSH1 0x1 DUP6 AND ISZERO PUSH3 0x15E JUMPI DUP1 DUP3 MUL SWAP2 POP JUMPDEST DUP1 DUP2 MUL SWAP1 POP PUSH3 0x16E DUP6 PUSH3 0x2F5 JUMP JUMPDEST SWAP5 POP PUSH3 0x12E JUMP JUMPDEST SWAP5 POP SWAP5 SWAP3 POP POP POP JUMP JUMPDEST PUSH1 0x0 PUSH3 0x18C DUP3 PUSH3 0x2BC JUMP JUMPDEST SWAP2 POP PUSH3 0x199 DUP4 PUSH3 0x2BC JUMP JUMPDEST SWAP3 POP PUSH3 0x1C8 PUSH32 0xFFFFFFFFFFFFFFFFFFFFFFFFFFFFFFFFFFFFFFFFFFFFFFFFFFFFFFFFFFFFFFFF DUP5 DUP5 PUSH3 0x1D0 JUMP JUMPDEST SWAP1 POP SWAP3 SWAP2 POP POP JUMP JUMPDEST PUSH1 0x0 DUP3 PUSH3 0x1E2 JUMPI PUSH1 0x1 SWAP1 POP PUSH3 0x2B5 JUMP JUMPDEST DUP2 PUSH3 0x1F2 JUMPI PUSH1 0x0 SWAP1 POP PUSH3 0x2B5 JUMP JUMPDEST DUP2 PUSH1 0x1 DUP2 EQ PUSH3 0x20B JUMPI PUSH1 0x2 DUP2 EQ PUSH3 0x216 JUMPI PUSH3 0x24C JUMP JUMPDEST PUSH1 0x1 SWAP2 POP POP PUSH3 0x2B5 JUMP JUMPDEST PUSH1 0xFF DUP5 GT ISZERO PUSH3 0x22B JUMPI PUSH3 0x22A PUSH3 0x2C6 JUMP JUMPDEST JUMPDEST DUP4 PUSH1 0x2 EXP SWAP2 POP DUP5 DUP3 GT ISZERO PUSH3 0x245 JUMPI PUSH3 0x244 PUSH3 0x2C6 JUMP JUMPDEST JUMPDEST POP PUSH3 0x2B5 JUMP JUMPDEST POP PUSH1 0x20 DUP4 LT PUSH2 0x133 DUP4 LT AND PUSH1 0x4E DUP5 LT PUSH1 0xB DUP5 LT AND OR ISZERO PUSH3 0x286 JUMPI DUP3 DUP3 EXP SWAP1 POP DUP4 DUP2 GT ISZERO PUSH3 0x280 JUMPI PUSH3 0x27F PUSH3 0x2C6 JUMP JUMPDEST JUMPDEST PUSH3 0x2B5 JUMP JUMPDEST PUSH3 0x295 DUP5 DUP5 DUP5 PUSH1 0x1 PUSH3 0x124 JUMP JUMPDEST SWAP3 POP SWAP1 POP DUP2 DUP5 DIV DUP2 GT ISZERO PUSH3 0x2AF JUMPI PUSH3 0x2AE PUSH3 0x2C6 JUMP JUMPDEST JUMPDEST DUP2 DUP2 MUL SWAP1 POP JUMPDEST SWAP4 SWAP3 POP POP POP JUMP JUMPDEST PUSH1 0x0 DUP2 SWAP1 POP SWAP2 SWAP1 POP JUMP JUMPDEST PUSH32 0x4E487B7100000000000000000000000000000000000000000000000000000000 PUSH1 0x0 MSTORE PUSH1 0x11 PUSH1 0x4 MSTORE PUSH1 0x24 PUSH1 0x0 REVERT JUMPDEST PUSH1 0x0 DUP2 PUSH1 0x1 SHR SWAP1 POP SWAP2 SWAP1 POP JUMP JUMPDEST PUSH2 0x1077 DUP1 PUSH3 0x312 PUSH1 0x0 CODECOPY PUSH1 0x0 RETURN INVALID PUSH1 0x80 PUSH1 0x40 MSTORE CALLVALUE DUP1 ISZERO PUSH2 0x10 JUMPI PUSH1 0x0 DUP1 REVERT JUMPDEST POP PUSH1 0x4 CALLDATASIZE LT PUSH2 0x57 JUMPI PUSH1 0x0 CALLDATALOAD PUSH1 0xE0 SHR DUP1 PUSH4 0x715018A6 EQ PUSH2 0x5C JUMPI DUP1 PUSH4 0x8DA5CB5B EQ PUSH2 0x66 JUMPI DUP1 PUSH4 0x91BFE0D4 EQ PUSH2 0x84 JUMPI DUP1 PUSH4 0xAEDA852F EQ PUSH2 0xB4 JUMPI DUP1 PUSH4 0xF2FDE38B EQ PUSH2 0xE9 JUMPI JUMPDEST PUSH1 0x0 DUP1 REVERT JUMPDEST PUSH2 0x64 PUSH2 0x105 JUMP JUMPDEST STOP JUMPDEST PUSH2 0x6E PUSH2 0x18D JUMP JUMPDEST PUSH1 0x40 MLOAD PUSH2 0x7B SWAP2 SWAP1 PUSH2 0xA78 JUMP JUMPDEST PUSH1 0x40 MLOAD DUP1 SWAP2 SUB SWAP1 RETURN JUMPDEST PUSH2 0x9E PUSH1 0x4 DUP1 CALLDATASIZE SUB DUP2 ADD SWAP1 PUSH2 0x99 SWAP2 SWAP1 PUSH2 0x86B JUMP JUMPDEST PUSH2 0x1B6 JUMP JUMPDEST PUSH1 0x40 MLOAD PUSH2 0xAB SWAP2 SWAP1 PUSH2 0xB13 JUMP JUMPDEST PUSH1 0x40 MLOAD DUP1 SWAP2 SUB SWAP1 RETURN JUMPDEST PUSH2 0xCE PUSH1 0x4 DUP1 CALLDATASIZE SUB DUP2 ADD SWAP1 PUSH2 0xC9 SWAP2 SWAP1 PUSH2 0x83E JUMP JUMPDEST PUSH2 0x3CA JUMP JUMPDEST PUSH1 0x40 MLOAD PUSH2 0xE0 SWAP7 SWAP6 SWAP5 SWAP4 SWAP3 SWAP2 SWAP1 PUSH2 0xB7A JUMP JUMPDEST PUSH1 0x40 MLOAD DUP1 SWAP2 SUB SWAP1 RETURN JUMPDEST PUSH2 0x103 PUSH1 0x4 DUP1 CALLDATASIZE SUB DUP2 ADD SWAP1 PUSH2 0xFE SWAP2 SWAP1 PUSH2 0x811 JUMP JUMPDEST PUSH2 0x4BB JUMP JUMPDEST STOP JUMPDEST PUSH2 0x10D PUSH2 0x5B3 JUMP JUMPDEST PUSH20 0xFFFFFFFFFFFFFFFFFFFFFFFFFFFFFFFFFFFFFFFF AND PUSH2 0x12B PUSH2 0x18D JUMP JUMPDEST PUSH20 0xFFFFFFFFFFFFFFFFFFFFFFFFFFFFFFFFFFFFFFFF AND EQ PUSH2 0x181 JUMPI PUSH1 0x40 MLOAD PUSH32 0x8C379A000000000000000000000000000000000000000000000000000000000 DUP2 MSTORE PUSH1 0x4 ADD PUSH2 0x178 SWAP1 PUSH2 0xAD3 JUMP JUMPDEST PUSH1 0x40 MLOAD DUP1 SWAP2 SUB SWAP1 REVERT JUMPDEST PUSH2 0x18B PUSH1 0x0 PUSH2 0x5BB JUMP JUMPDEST JUMP JUMPDEST PUSH1 0x0 DUP1 PUSH1 0x0 SWAP1 SLOAD SWAP1 PUSH2 0x100 EXP SWAP1 DIV PUSH20 0xFFFFFFFFFFFFFFFFFFFFFFFFFFFFFFFFFFFFFFFF AND SWAP1 POP SWAP1 JUMP JUMPDEST PUSH1 0x0 DUP1 DUP5 DUP7 PUSH2 0x1C5 SWAP2 SWAP1 PUSH2 0xCB5 JUMP JUMPDEST GT PUSH2 0x205 JUMPI PUSH1 0x40 MLOAD PUSH32 0x8C379A000000000000000000000000000000000000000000000000000000000 DUP2 MSTORE PUSH1 0x4 ADD PUSH2 0x1FC SWAP1 PUSH2 0xAB3 JUMP JUMPDEST PUSH1 0x40 MLOAD DUP1 SWAP2 SUB SWAP1 REVERT JUMPDEST PUSH1 0x0 PUSH2 0x212 DUP5 DUP7 DUP6 PUSH2 0x67F JUMP JUMPDEST SWAP1 POP PUSH1 0x5 PUSH1 0x0 DUP3 DUP2 MSTORE PUSH1 0x20 ADD SWAP1 DUP2 MSTORE PUSH1 0x20 ADD PUSH1 0x0 KECCAK256 PUSH1 0x0 ADD SLOAD DUP2 EQ ISZERO PUSH2 0x26D JUMPI PUSH1 0x40 MLOAD PUSH32 0x8C379A000000000000000000000000000000000000000000000000000000000 DUP2 MSTORE PUSH1 0x4 ADD PUSH2 0x264 SWAP1 PUSH2 0xAF3 JUMP JUMPDEST PUSH1 0x40 MLOAD DUP1 SWAP2 SUB SWAP1 REVERT JUMPDEST PUSH1 0x40 MLOAD DUP1 PUSH1 0xC0 ADD PUSH1 0x40 MSTORE DUP1 DUP3 DUP2 MSTORE PUSH1 0x20 ADD DUP8 DUP2 MSTORE PUSH1 0x20 ADD DUP7 DUP2 MSTORE PUSH1 0x20 ADD DUP6 PUSH20 0xFFFFFFFFFFFFFFFFFFFFFFFFFFFFFFFFFFFFFFFF AND DUP2 MSTORE PUSH1 0x20 ADD DUP5 DUP2 MSTORE PUSH1 0x20 ADD PUSH1 0x0 ISZERO ISZERO DUP2 MSTORE POP PUSH1 0x5 PUSH1 0x0 DUP4 DUP2 MSTORE PUSH1 0x20 ADD SWAP1 DUP2 MSTORE PUSH1 0x20 ADD PUSH1 0x0 KECCAK256 PUSH1 0x0 DUP3 ADD MLOAD DUP2 PUSH1 0x0 ADD SSTORE PUSH1 0x20 DUP3 ADD MLOAD DUP2 PUSH1 0x1 ADD SSTORE PUSH1 0x40 DUP3 ADD MLOAD DUP2 PUSH1 0x2 ADD SSTORE PUSH1 0x60 DUP3 ADD MLOAD DUP2 PUSH1 0x3 ADD PUSH1 0x0 PUSH2 0x100 EXP DUP2 SLOAD DUP2 PUSH20 0xFFFFFFFFFFFFFFFFFFFFFFFFFFFFFFFFFFFFFFFF MUL NOT AND SWAP1 DUP4 PUSH20 0xFFFFFFFFFFFFFFFFFFFFFFFFFFFFFFFFFFFFFFFF AND MUL OR SWAP1 SSTORE POP PUSH1 0x80 DUP3 ADD MLOAD DUP2 PUSH1 0x4 ADD SWAP1 DUP1 MLOAD SWAP1 PUSH1 0x20 ADD SWAP1 PUSH2 0x347 SWAP3 SWAP2 SWAP1 PUSH2 0x6D4 JUMP JUMPDEST POP PUSH1 0xA0 DUP3 ADD MLOAD DUP2 PUSH1 0x5 ADD PUSH1 0x0 PUSH2 0x100 EXP DUP2 SLOAD DUP2 PUSH1 0xFF MUL NOT AND SWAP1 DUP4 ISZERO ISZERO MUL OR SWAP1 SSTORE POP SWAP1 POP POP PUSH2 0x381 PUSH1 0x4 SLOAD TIMESTAMP PUSH2 0x37C SWAP2 SWAP1 PUSH2 0xC5F JUMP JUMPDEST PUSH2 0x6CA JUMP JUMPDEST PUSH32 0x8F5AFD88EB4BE0AC287D87970052CE9A2B453448408E3C91A695AD7509AB7194 DUP2 DUP6 DUP9 DUP7 PUSH1 0x40 MLOAD PUSH2 0x3B6 SWAP5 SWAP4 SWAP3 SWAP2 SWAP1 PUSH2 0xB2E JUMP JUMPDEST PUSH1 0x40 MLOAD DUP1 SWAP2 SUB SWAP1 LOG1 DUP1 SWAP2 POP POP SWAP5 SWAP4 POP POP POP POP JUMP JUMPDEST PUSH1 0x5 PUSH1 0x20 MSTORE DUP1 PUSH1 0x0 MSTORE PUSH1 0x40 PUSH1 0x0 KECCAK256 PUSH1 0x0 SWAP2 POP SWAP1 POP DUP1 PUSH1 0x0 ADD SLOAD SWAP1 DUP1 PUSH1 0x1 ADD SLOAD SWAP1 DUP1 PUSH1 0x2 ADD SLOAD SWAP1 DUP1 PUSH1 0x3 ADD PUSH1 0x0 SWAP1 SLOAD SWAP1 PUSH2 0x100 EXP SWAP1 DIV PUSH20 0xFFFFFFFFFFFFFFFFFFFFFFFFFFFFFFFFFFFFFFFF AND SWAP1 DUP1 PUSH1 0x4 ADD DUP1 SLOAD PUSH2 0x425 SWAP1 PUSH2 0xD99 JUMP JUMPDEST DUP1 PUSH1 0x1F ADD PUSH1 0x20 DUP1 SWAP2 DIV MUL PUSH1 0x20 ADD PUSH1 0x40 MLOAD SWAP1 DUP2 ADD PUSH1 0x40 MSTORE DUP1 SWAP3 SWAP2 SWAP1 DUP2 DUP2 MSTORE PUSH1 0x20 ADD DUP3 DUP1 SLOAD PUSH2 0x451 SWAP1 PUSH2 0xD99 JUMP JUMPDEST DUP1 ISZERO PUSH2 0x49E JUMPI DUP1 PUSH1 0x1F LT PUSH2 0x473 JUMPI PUSH2 0x100 DUP1 DUP4 SLOAD DIV MUL DUP4 MSTORE SWAP2 PUSH1 0x20 ADD SWAP2 PUSH2 0x49E JUMP JUMPDEST DUP3 ADD SWAP2 SWAP1 PUSH1 0x0 MSTORE PUSH1 0x20 PUSH1 0x0 KECCAK256 SWAP1 JUMPDEST DUP2 SLOAD DUP2 MSTORE SWAP1 PUSH1 0x1 ADD SWAP1 PUSH1 0x20 ADD DUP1 DUP4 GT PUSH2 0x481 JUMPI DUP3 SWAP1 SUB PUSH1 0x1F AND DUP3 ADD SWAP2 JUMPDEST POP POP POP POP POP SWAP1 DUP1 PUSH1 0x5 ADD PUSH1 0x0 SWAP1 SLOAD SWAP1 PUSH2 0x100 EXP SWAP1 DIV PUSH1 0xFF AND SWAP1 POP DUP7 JUMP JUMPDEST PUSH2 0x4C3 PUSH2 0x5B3 JUMP JUMPDEST PUSH20 0xFFFFFFFFFFFFFFFFFFFFFFFFFFFFFFFFFFFFFFFF AND PUSH2 0x4E1 PUSH2 0x18D JUMP JUMPDEST PUSH20 0xFFFFFFFFFFFFFFFFFFFFFFFFFFFFFFFFFFFFFFFF AND EQ PUSH2 0x537 JUMPI PUSH1 0x40 MLOAD PUSH32 0x8C379A000000000000000000000000000000000000000000000000000000000 DUP2 MSTORE PUSH1 0x4 ADD PUSH2 0x52E SWAP1 PUSH2 0xAD3 JUMP JUMPDEST PUSH1 0x40 MLOAD DUP1 SWAP2 SUB SWAP1 REVERT JUMPDEST PUSH1 0x0 PUSH20 0xFFFFFFFFFFFFFFFFFFFFFFFFFFFFFFFFFFFFFFFF AND DUP2 PUSH20 0xFFFFFFFFFFFFFFFFFFFFFFFFFFFFFFFFFFFFFFFF AND EQ ISZERO PUSH2 0x5A7 JUMPI PUSH1 0x40 MLOAD PUSH32 0x8C379A000000000000000000000000000000000000000000000000000000000 DUP2 MSTORE PUSH1 0x4 ADD PUSH2 0x59E SWAP1 PUSH2 0xA93 JUMP JUMPDEST PUSH1 0x40 MLOAD DUP1 SWAP2 SUB SWAP1 REVERT JUMPDEST PUSH2 0x5B0 DUP2 PUSH2 0x5BB JUMP JUMPDEST POP JUMP JUMPDEST PUSH1 0x0 CALLER SWAP1 POP SWAP1 JUMP JUMPDEST PUSH1 0x0 DUP1 PUSH1 0x0 SWAP1 SLOAD SWAP1 PUSH2 0x100 EXP SWAP1 DIV PUSH20 0xFFFFFFFFFFFFFFFFFFFFFFFFFFFFFFFFFFFFFFFF AND SWAP1 POP DUP2 PUSH1 0x0 DUP1 PUSH2 0x100 EXP DUP2 SLOAD DUP2 PUSH20 0xFFFFFFFFFFFFFFFFFFFFFFFFFFFFFFFFFFFFFFFF MUL NOT AND SWAP1 DUP4 PUSH20 0xFFFFFFFFFFFFFFFFFFFFFFFFFFFFFFFFFFFFFFFF AND MUL OR SWAP1 SSTORE POP DUP2 PUSH20 0xFFFFFFFFFFFFFFFFFFFFFFFFFFFFFFFFFFFFFFFF AND DUP2 PUSH20 0xFFFFFFFFFFFFFFFFFFFFFFFFFFFFFFFFFFFFFFFF AND PUSH32 0x8BE0079C531659141344CD1FD0A4F28419497F9722A3DAAFE3B4186F6B6457E0 PUSH1 0x40 MLOAD PUSH1 0x40 MLOAD DUP1 SWAP2 SUB SWAP1 LOG3 POP POP JUMP JUMPDEST PUSH1 0x0 DUP1 DUP5 DUP5 DUP5 PUSH1 0x40 MLOAD PUSH1 0x20 ADD PUSH2 0x697 SWAP4 SWAP3 SWAP2 SWAP1 PUSH2 0xA3F JUMP JUMPDEST PUSH1 0x40 MLOAD PUSH1 0x20 DUP2 DUP4 SUB SUB DUP2 MSTORE SWAP1 PUSH1 0x40 MSTORE DUP1 MLOAD SWAP1 PUSH1 0x20 ADD KECCAK256 PUSH1 0x0 SHR SWAP1 POP PUSH1 0x3 SLOAD DUP2 PUSH2 0x6C0 SWAP2 SWAP1 PUSH2 0xE2A JUMP JUMPDEST SWAP2 POP POP SWAP4 SWAP3 POP POP POP JUMP JUMPDEST DUP1 PUSH1 0x1 DUP2 SWAP1 SSTORE POP POP JUMP JUMPDEST DUP3 DUP1 SLOAD PUSH2 0x6E0 SWAP1 PUSH2 0xD99 JUMP JUMPDEST SWAP1 PUSH1 0x0 MSTORE PUSH1 0x20 PUSH1 0x0 KECCAK256 SWAP1 PUSH1 0x1F ADD PUSH1 0x20 SWAP1 DIV DUP2 ADD SWAP3 DUP3 PUSH2 0x702 JUMPI PUSH1 0x0 DUP6 SSTORE PUSH2 0x749 JUMP JUMPDEST DUP3 PUSH1 0x1F LT PUSH2 0x71B JUMPI DUP1 MLOAD PUSH1 0xFF NOT AND DUP4 DUP1 ADD OR DUP6 SSTORE PUSH2 0x749 JUMP JUMPDEST DUP3 DUP1 ADD PUSH1 0x1 ADD DUP6 SSTORE DUP3 ISZERO PUSH2 0x749 JUMPI SWAP2 DUP3 ADD JUMPDEST DUP3 DUP2 GT ISZERO PUSH2 0x748 JUMPI DUP3 MLOAD DUP3 SSTORE SWAP2 PUSH1 0x20 ADD SWAP2 SWAP1 PUSH1 0x1 ADD SWAP1 PUSH2 0x72D JUMP JUMPDEST JUMPDEST POP SWAP1 POP PUSH2 0x756 SWAP2 SWAP1 PUSH2 0x75A JUMP JUMPDEST POP SWAP1 JUMP JUMPDEST JUMPDEST DUP1 DUP3 GT ISZERO PUSH2 0x773 JUMPI PUSH1 0x0 DUP2 PUSH1 0x0 SWAP1 SSTORE POP PUSH1 0x1 ADD PUSH2 0x75B JUMP JUMPDEST POP SWAP1 JUMP JUMPDEST PUSH1 0x0 PUSH2 0x78A PUSH2 0x785 DUP5 PUSH2 0xC07 JUMP JUMPDEST PUSH2 0xBE2 JUMP JUMPDEST SWAP1 POP DUP3 DUP2 MSTORE PUSH1 0x20 DUP2 ADD DUP5 DUP5 DUP5 ADD GT ISZERO PUSH2 0x7A6 JUMPI PUSH2 0x7A5 PUSH2 0xF1C JUMP JUMPDEST JUMPDEST PUSH2 0x7B1 DUP5 DUP3 DUP6 PUSH2 0xD57 JUMP JUMPDEST POP SWAP4 SWAP3 POP POP POP JUMP JUMPDEST PUSH1 0x0 DUP2 CALLDATALOAD SWAP1 POP PUSH2 0x7C8 DUP2 PUSH2 0x1013 JUMP JUMPDEST SWAP3 SWAP2 POP POP JUMP JUMPDEST PUSH1 0x0 DUP3 PUSH1 0x1F DUP4 ADD SLT PUSH2 0x7E3 JUMPI PUSH2 0x7E2 PUSH2 0xF17 JUMP JUMPDEST JUMPDEST DUP2 CALLDATALOAD PUSH2 0x7F3 DUP5 DUP3 PUSH1 0x20 DUP7 ADD PUSH2 0x777 JUMP JUMPDEST SWAP2 POP POP SWAP3 SWAP2 POP POP JUMP JUMPDEST PUSH1 0x0 DUP2 CALLDATALOAD SWAP1 POP PUSH2 0x80B DUP2 PUSH2 0x102A JUMP JUMPDEST SWAP3 SWAP2 POP POP JUMP JUMPDEST PUSH1 0x0 PUSH1 0x20 DUP3 DUP5 SUB SLT ISZERO PUSH2 0x827 JUMPI PUSH2 0x826 PUSH2 0xF26 JUMP JUMPDEST JUMPDEST PUSH1 0x0 PUSH2 0x835 DUP5 DUP3 DUP6 ADD PUSH2 0x7B9 JUMP JUMPDEST SWAP2 POP POP SWAP3 SWAP2 POP POP JUMP JUMPDEST PUSH1 0x0 PUSH1 0x20 DUP3 DUP5 SUB SLT ISZERO PUSH2 0x854 JUMPI PUSH2 0x853 PUSH2 0xF26 JUMP JUMPDEST JUMPDEST PUSH1 0x0 PUSH2 0x862 DUP5 DUP3 DUP6 ADD PUSH2 0x7FC JUMP JUMPDEST SWAP2 POP POP SWAP3 SWAP2 POP POP JUMP JUMPDEST PUSH1 0x0 DUP1 PUSH1 0x0 DUP1 PUSH1 0x80 DUP6 DUP8 SUB SLT ISZERO PUSH2 0x885 JUMPI PUSH2 0x884 PUSH2 0xF26 JUMP JUMPDEST JUMPDEST PUSH1 0x0 PUSH2 0x893 DUP8 DUP3 DUP9 ADD PUSH2 0x7FC JUMP JUMPDEST SWAP5 POP POP PUSH1 0x20 PUSH2 0x8A4 DUP8 DUP3 DUP9 ADD PUSH2 0x7FC JUMP JUMPDEST SWAP4 POP POP PUSH1 0x40 PUSH2 0x8B5 DUP8 DUP3 DUP9 ADD PUSH2 0x7B9 JUMP JUMPDEST SWAP3 POP POP PUSH1 0x60 DUP6 ADD CALLDATALOAD PUSH8 0xFFFFFFFFFFFFFFFF DUP2 GT ISZERO PUSH2 0x8D6 JUMPI PUSH2 0x8D5 PUSH2 0xF21 JUMP JUMPDEST JUMPDEST PUSH2 0x8E2 DUP8 DUP3 DUP9 ADD PUSH2 0x7CE JUMP JUMPDEST SWAP2 POP POP SWAP3 SWAP6 SWAP2 SWAP5 POP SWAP3 POP JUMP JUMPDEST PUSH2 0x8F7 DUP2 PUSH2 0xD0F JUMP JUMPDEST DUP3 MSTORE POP POP JUMP JUMPDEST PUSH2 0x90E PUSH2 0x909 DUP3 PUSH2 0xD0F JUMP JUMPDEST PUSH2 0xDFC JUMP JUMPDEST DUP3 MSTORE POP POP JUMP JUMPDEST PUSH2 0x91D DUP2 PUSH2 0xD21 JUMP JUMPDEST DUP3 MSTORE POP POP JUMP JUMPDEST PUSH1 0x0 PUSH2 0x92E DUP3 PUSH2 0xC38 JUMP JUMPDEST PUSH2 0x938 DUP2 DUP6 PUSH2 0xC43 JUMP JUMPDEST SWAP4 POP PUSH2 0x948 DUP2 DUP6 PUSH1 0x20 DUP7 ADD PUSH2 0xD66 JUMP JUMPDEST PUSH2 0x951 DUP2 PUSH2 0xF2B JUMP JUMPDEST DUP5 ADD SWAP2 POP POP SWAP3 SWAP2 POP POP JUMP JUMPDEST PUSH1 0x0 PUSH2 0x967 DUP3 PUSH2 0xC38 JUMP JUMPDEST PUSH2 0x971 DUP2 DUP6 PUSH2 0xC54 JUMP JUMPDEST SWAP4 POP PUSH2 0x981 DUP2 DUP6 PUSH1 0x20 DUP7 ADD PUSH2 0xD66 JUMP JUMPDEST DUP1 DUP5 ADD SWAP2 POP POP SWAP3 SWAP2 POP POP JUMP JUMPDEST PUSH1 0x0 PUSH2 0x99A PUSH1 0x26 DUP4 PUSH2 0xC43 JUMP JUMPDEST SWAP2 POP PUSH2 0x9A5 DUP3 PUSH2 0xF49 JUMP JUMPDEST PUSH1 0x40 DUP3 ADD SWAP1 POP SWAP2 SWAP1 POP JUMP JUMPDEST PUSH1 0x0 PUSH2 0x9BD PUSH1 0x14 DUP4 PUSH2 0xC43 JUMP JUMPDEST SWAP2 POP PUSH2 0x9C8 DUP3 PUSH2 0xF98 JUMP JUMPDEST PUSH1 0x20 DUP3 ADD SWAP1 POP SWAP2 SWAP1 POP JUMP JUMPDEST PUSH1 0x0 PUSH2 0x9E0 PUSH1 0x20 DUP4 PUSH2 0xC43 JUMP JUMPDEST SWAP2 POP PUSH2 0x9EB DUP3 PUSH2 0xFC1 JUMP JUMPDEST PUSH1 0x20 DUP3 ADD SWAP1 POP SWAP2 SWAP1 POP JUMP JUMPDEST PUSH1 0x0 PUSH2 0xA03 PUSH1 0x1B DUP4 PUSH2 0xC43 JUMP JUMPDEST SWAP2 POP PUSH2 0xA0E DUP3 PUSH2 0xFEA JUMP JUMPDEST PUSH1 0x20 DUP3 ADD SWAP1 POP SWAP2 SWAP1 POP JUMP JUMPDEST PUSH2 0xA22 DUP2 PUSH2 0xD4D JUMP JUMPDEST DUP3 MSTORE POP POP JUMP JUMPDEST PUSH2 0xA39 PUSH2 0xA34 DUP3 PUSH2 0xD4D JUMP JUMPDEST PUSH2 0xE20 JUMP JUMPDEST DUP3 MSTORE POP POP JUMP JUMPDEST PUSH1 0x0 PUSH2 0xA4B DUP3 DUP7 PUSH2 0x8FD JUMP JUMPDEST PUSH1 0x14 DUP3 ADD SWAP2 POP PUSH2 0xA5B DUP3 DUP6 PUSH2 0xA28 JUMP JUMPDEST PUSH1 0x20 DUP3 ADD SWAP2 POP PUSH2 0xA6B DUP3 DUP5 PUSH2 0x95C JUMP JUMPDEST SWAP2 POP DUP2 SWAP1 POP SWAP5 SWAP4 POP POP POP POP JUMP JUMPDEST PUSH1 0x0 PUSH1 0x20 DUP3 ADD SWAP1 POP PUSH2 0xA8D PUSH1 0x0 DUP4 ADD DUP5 PUSH2 0x8EE JUMP JUMPDEST SWAP3 SWAP2 POP POP JUMP JUMPDEST PUSH1 0x0 PUSH1 0x20 DUP3 ADD SWAP1 POP DUP2 DUP2 SUB PUSH1 0x0 DUP4 ADD MSTORE PUSH2 0xAAC DUP2 PUSH2 0x98D JUMP JUMPDEST SWAP1 POP SWAP2 SWAP1 POP JUMP JUMPDEST PUSH1 0x0 PUSH1 0x20 DUP3 ADD SWAP1 POP DUP2 DUP2 SUB PUSH1 0x0 DUP4 ADD MSTORE PUSH2 0xACC DUP2 PUSH2 0x9B0 JUMP JUMPDEST SWAP1 POP SWAP2 SWAP1 POP JUMP JUMPDEST PUSH1 0x0 PUSH1 0x20 DUP3 ADD SWAP1 POP DUP2 DUP2 SUB PUSH1 0x0 DUP4 ADD MSTORE PUSH2 0xAEC DUP2 PUSH2 0x9D3 JUMP JUMPDEST SWAP1 POP SWAP2 SWAP1 POP JUMP JUMPDEST PUSH1 0x0 PUSH1 0x20 DUP3 ADD SWAP1 POP DUP2 DUP2 SUB PUSH1 0x0 DUP4 ADD MSTORE PUSH2 0xB0C DUP2 PUSH2 0x9F6 JUMP JUMPDEST SWAP1 POP SWAP2 SWAP1 POP JUMP JUMPDEST PUSH1 0x0 PUSH1 0x20 DUP3 ADD SWAP1 POP PUSH2 0xB28 PUSH1 0x0 DUP4 ADD DUP5 PUSH2 0xA19 JUMP JUMPDEST SWAP3 SWAP2 POP POP JUMP JUMPDEST PUSH1 0x0 PUSH1 0x80 DUP3 ADD SWAP1 POP PUSH2 0xB43 PUSH1 0x0 DUP4 ADD DUP8 PUSH2 0xA19 JUMP JUMPDEST PUSH2 0xB50 PUSH1 0x20 DUP4 ADD DUP7 PUSH2 0x8EE JUMP JUMPDEST PUSH2 0xB5D PUSH1 0x40 DUP4 ADD DUP6 PUSH2 0xA19 JUMP JUMPDEST DUP2 DUP2 SUB PUSH1 0x60 DUP4 ADD MSTORE PUSH2 0xB6F DUP2 DUP5 PUSH2 0x923 JUMP JUMPDEST SWAP1 POP SWAP6 SWAP5 POP POP POP POP POP JUMP JUMPDEST PUSH1 0x0 PUSH1 0xC0 DUP3 ADD SWAP1 POP PUSH2 0xB8F PUSH1 0x0 DUP4 ADD DUP10 PUSH2 0xA19 JUMP JUMPDEST PUSH2 0xB9C PUSH1 0x20 DUP4 ADD DUP9 PUSH2 0xA19 JUMP JUMPDEST PUSH2 0xBA9 PUSH1 0x40 DUP4 ADD DUP8 PUSH2 0xA19 JUMP JUMPDEST PUSH2 0xBB6 PUSH1 0x60 DUP4 ADD DUP7 PUSH2 0x8EE JUMP JUMPDEST DUP2 DUP2 SUB PUSH1 0x80 DUP4 ADD MSTORE PUSH2 0xBC8 DUP2 DUP6 PUSH2 0x923 JUMP JUMPDEST SWAP1 POP PUSH2 0xBD7 PUSH1 0xA0 DUP4 ADD DUP5 PUSH2 0x914 JUMP JUMPDEST SWAP8 SWAP7 POP POP POP POP POP POP POP JUMP JUMPDEST PUSH1 0x0 PUSH2 0xBEC PUSH2 0xBFD JUMP JUMPDEST SWAP1 POP PUSH2 0xBF8 DUP3 DUP3 PUSH2 0xDCB JUMP JUMPDEST SWAP2 SWAP1 POP JUMP JUMPDEST PUSH1 0x0 PUSH1 0x40 MLOAD SWAP1 POP SWAP1 JUMP JUMPDEST PUSH1 0x0 PUSH8 0xFFFFFFFFFFFFFFFF DUP3 GT ISZERO PUSH2 0xC22 JUMPI PUSH2 0xC21 PUSH2 0xEE8 JUMP JUMPDEST JUMPDEST PUSH2 0xC2B DUP3 PUSH2 0xF2B JUMP JUMPDEST SWAP1 POP PUSH1 0x20 DUP2 ADD SWAP1 POP SWAP2 SWAP1 POP JUMP JUMPDEST PUSH1 0x0 DUP2 MLOAD SWAP1 POP SWAP2 SWAP1 POP JUMP JUMPDEST PUSH1 0x0 DUP3 DUP3 MSTORE PUSH1 0x20 DUP3 ADD SWAP1 POP SWAP3 SWAP2 POP POP JUMP JUMPDEST PUSH1 0x0 DUP2 SWAP1 POP SWAP3 SWAP2 POP POP JUMP JUMPDEST PUSH1 0x0 PUSH2 0xC6A DUP3 PUSH2 0xD4D JUMP JUMPDEST SWAP2 POP PUSH2 0xC75 DUP4 PUSH2 0xD4D JUMP JUMPDEST SWAP3 POP DUP3 PUSH32 0xFFFFFFFFFFFFFFFFFFFFFFFFFFFFFFFFFFFFFFFFFFFFFFFFFFFFFFFFFFFFFFFF SUB DUP3 GT ISZERO PUSH2 0xCAA JUMPI PUSH2 0xCA9 PUSH2 0xE5B JUMP JUMPDEST JUMPDEST DUP3 DUP3 ADD SWAP1 POP SWAP3 SWAP2 POP POP JUMP JUMPDEST PUSH1 0x0 PUSH2 0xCC0 DUP3 PUSH2 0xD4D JUMP JUMPDEST SWAP2 POP PUSH2 0xCCB DUP4 PUSH2 0xD4D JUMP JUMPDEST SWAP3 POP DUP2 PUSH32 0xFFFFFFFFFFFFFFFFFFFFFFFFFFFFFFFFFFFFFFFFFFFFFFFFFFFFFFFFFFFFFFFF DIV DUP4 GT DUP3 ISZERO ISZERO AND ISZERO PUSH2 0xD04 JUMPI PUSH2 0xD03 PUSH2 0xE5B JUMP JUMPDEST JUMPDEST DUP3 DUP3 MUL SWAP1 POP SWAP3 SWAP2 POP POP JUMP JUMPDEST PUSH1 0x0 PUSH2 0xD1A DUP3 PUSH2 0xD2D JUMP JUMPDEST SWAP1 POP SWAP2 SWAP1 POP JUMP JUMPDEST PUSH1 0x0 DUP2 ISZERO ISZERO SWAP1 POP SWAP2 SWAP1 POP JUMP JUMPDEST PUSH1 0x0 PUSH20 0xFFFFFFFFFFFFFFFFFFFFFFFFFFFFFFFFFFFFFFFF DUP3 AND SWAP1 POP SWAP2 SWAP1 POP JUMP JUMPDEST PUSH1 0x0 DUP2 SWAP1 POP SWAP2 SWAP1 POP JUMP JUMPDEST DUP3 DUP2 DUP4 CALLDATACOPY PUSH1 0x0 DUP4 DUP4 ADD MSTORE POP POP POP JUMP JUMPDEST PUSH1 0x0 JUMPDEST DUP4 DUP2 LT ISZERO PUSH2 0xD84 JUMPI DUP1 DUP3 ADD MLOAD DUP2 DUP5 ADD MSTORE PUSH1 0x20 DUP2 ADD SWAP1 POP PUSH2 0xD69 JUMP JUMPDEST DUP4 DUP2 GT ISZERO PUSH2 0xD93 JUMPI PUSH1 0x0 DUP5 DUP5 ADD MSTORE JUMPDEST POP POP POP POP JUMP JUMPDEST PUSH1 0x0 PUSH1 0x2 DUP3 DIV SWAP1 POP PUSH1 0x1 DUP3 AND DUP1 PUSH2 0xDB1 JUMPI PUSH1 0x7F DUP3 AND SWAP2 POP JUMPDEST PUSH1 0x20 DUP3 LT DUP2 EQ ISZERO PUSH2 0xDC5 JUMPI PUSH2 0xDC4 PUSH2 0xEB9 JUMP JUMPDEST JUMPDEST POP SWAP2 SWAP1 POP JUMP JUMPDEST PUSH2 0xDD4 DUP3 PUSH2 0xF2B JUMP JUMPDEST DUP2 ADD DUP2 DUP2 LT PUSH8 0xFFFFFFFFFFFFFFFF DUP3 GT OR ISZERO PUSH2 0xDF3 JUMPI PUSH2 0xDF2 PUSH2 0xEE8 JUMP JUMPDEST JUMPDEST DUP1 PUSH1 0x40 MSTORE POP POP POP JUMP JUMPDEST PUSH1 0x0 PUSH2 0xE07 DUP3 PUSH2 0xE0E JUMP JUMPDEST SWAP1 POP SWAP2 SWAP1 POP JUMP JUMPDEST PUSH1 0x0 PUSH2 0xE19 DUP3 PUSH2 0xF3C JUMP JUMPDEST SWAP1 POP SWAP2 SWAP1 POP JUMP JUMPDEST PUSH1 0x0 DUP2 SWAP1 POP SWAP2 SWAP1 POP JUMP JUMPDEST PUSH1 0x0 PUSH2 0xE35 DUP3 PUSH2 0xD4D JUMP JUMPDEST SWAP2 POP PUSH2 0xE40 DUP4 PUSH2 0xD4D JUMP JUMPDEST SWAP3 POP DUP3 PUSH2 0xE50 JUMPI PUSH2 0xE4F PUSH2 0xE8A JUMP JUMPDEST JUMPDEST DUP3 DUP3 MOD SWAP1 POP SWAP3 SWAP2 POP POP JUMP JUMPDEST PUSH32 0x4E487B7100000000000000000000000000000000000000000000000000000000 PUSH1 0x0 MSTORE PUSH1 0x11 PUSH1 0x4 MSTORE PUSH1 0x24 PUSH1 0x0 REVERT JUMPDEST PUSH32 0x4E487B7100000000000000000000000000000000000000000000000000000000 PUSH1 0x0 MSTORE PUSH1 0x12 PUSH1 0x4 MSTORE PUSH1 0x24 PUSH1 0x0 REVERT JUMPDEST PUSH32 0x4E487B7100000000000000000000000000000000000000000000000000000000 PUSH1 0x0 MSTORE PUSH1 0x22 PUSH1 0x4 MSTORE PUSH1 0x24 PUSH1 0x0 REVERT JUMPDEST PUSH32 0x4E487B7100000000000000000000000000000000000000000000000000000000 PUSH1 0x0 MSTORE PUSH1 0x41 PUSH1 0x4 MSTORE PUSH1 0x24 PUSH1 0x0 REVERT JUMPDEST PUSH1 0x0 DUP1 REVERT JUMPDEST PUSH1 0x0 DUP1 REVERT JUMPDEST PUSH1 0x0 DUP1 REVERT JUMPDEST PUSH1 0x0 DUP1 REVERT JUMPDEST PUSH1 0x0 PUSH1 0x1F NOT PUSH1 0x1F DUP4 ADD AND SWAP1 POP SWAP2 SWAP1 POP JUMP JUMPDEST PUSH1 0x0 DUP2 PUSH1 0x60 SHL SWAP1 POP SWAP2 SWAP1 POP JUMP JUMPDEST PUSH32 0x4F776E61626C653A206E6577206F776E657220697320746865207A65726F2061 PUSH1 0x0 DUP3 ADD MSTORE PUSH32 0x6464726573730000000000000000000000000000000000000000000000000000 PUSH1 0x20 DUP3 ADD MSTORE POP JUMP JUMPDEST PUSH32 0x76616C75652063616E6E6F74206265206E756C6C000000000000000000000000 PUSH1 0x0 DUP3 ADD MSTORE POP JUMP JUMPDEST PUSH32 0x4F776E61626C653A2063616C6C6572206973206E6F7420746865206F776E6572 PUSH1 0x0 DUP3 ADD MSTORE POP JUMP JUMPDEST PUSH32 0x7468697320686F757365496420616C7265616479206578697374730000000000 PUSH1 0x0 DUP3 ADD MSTORE POP JUMP JUMPDEST PUSH2 0x101C DUP2 PUSH2 0xD0F JUMP JUMPDEST DUP2 EQ PUSH2 0x1027 JUMPI PUSH1 0x0 DUP1 REVERT JUMPDEST POP JUMP JUMPDEST PUSH2 0x1033 DUP2 PUSH2 0xD4D JUMP JUMPDEST DUP2 EQ PUSH2 0x103E JUMPI PUSH1 0x0 DUP1 REVERT JUMPDEST POP JUMP INVALID LOG2 PUSH5 0x6970667358 0x22 SLT KECCAK256 SUB 0xB5 PUSH10 0x1E9E8E2C474DD212B85B PUSH12 0xD76424FFFEA4E8F3CC2ADCF5 DUP9 0x26 COINBASE 0xEB 0xC8 DUP5 PUSH5 0x736F6C6343 STOP ADDMOD SMOD STOP CALLER "
				},
				"gasEstimates": {
					"creation": {
						"codeDepositCost": "843000",
						"executionCost": "infinite",
						"totalCost": "infinite"
					},
					"external": {
						"houses(uint256)": "infinite",
						"listHouse(uint256,uint256,address,string)": "infinite",
						"owner()": "2522",
						"renounceOwnership()": "30352",
						"transferOwnership(address)": "30789"
					},
					"internal": {
						"_generateHouseId(address,uint256,string memory)": "infinite"
					}
				},
				"methodIdentifiers": {
					"houses(uint256)": "aeda852f",
					"listHouse(uint256,uint256,address,string)": "91bfe0d4",
					"owner()": "8da5cb5b",
					"renounceOwnership()": "715018a6",
					"transferOwnership(address)": "f2fde38b"
				}
			},
			"storageLayout": {
				"storage": [
					{
						"astId": 152,
						"contract": "contract/HouseRegistry.sol:HouseRegistry",
						"label": "_owner",
						"offset": 0,
						"slot": "0",
						"type": "t_address"
					},
					{
						"astId": 154,
						"contract": "contract/HouseRegistry.sol:HouseRegistry",
						"label": "ownerAddCooldown",
						"offset": 0,
						"slot": "1",
						"type": "t_uint256"
					},
					{
						"astId": 7,
						"contract": "contract/HouseRegistry.sol:HouseRegistry",
						"label": "digits",
						"offset": 0,
						"slot": "2",
						"type": "t_uint256"
					},
					{
						"astId": 12,
						"contract": "contract/HouseRegistry.sol:HouseRegistry",
						"label": "modulus",
						"offset": 0,
						"slot": "3",
						"type": "t_uint256"
					},
					{
						"astId": 15,
						"contract": "contract/HouseRegistry.sol:HouseRegistry",
						"label": "cooldownTime",
						"offset": 0,
						"slot": "4",
						"type": "t_uint256"
					},
					{
						"astId": 43,
						"contract": "contract/HouseRegistry.sol:HouseRegistry",
						"label": "houses",
						"offset": 0,
						"slot": "5",
						"type": "t_mapping(t_uint256,t_struct(House)28_storage)"
					}
				],
				"types": {
					"t_address": {
						"encoding": "inplace",
						"label": "address",
						"numberOfBytes": "20"
					},
					"t_bool": {
						"encoding": "inplace",
						"label": "bool",
						"numberOfBytes": "1"
					},
					"t_mapping(t_uint256,t_struct(House)28_storage)": {
						"encoding": "mapping",
						"key": "t_uint256",
						"label": "mapping(uint256 => struct HouseRegistry.House)",
						"numberOfBytes": "32",
						"value": "t_struct(House)28_storage"
					},
					"t_string_storage": {
						"encoding": "bytes",
						"label": "string",
						"numberOfBytes": "32"
					},
					"t_struct(House)28_storage": {
						"encoding": "inplace",
						"label": "struct HouseRegistry.House",
						"members": [
							{
								"astId": 17,
								"contract": "contract/HouseRegistry.sol:HouseRegistry",
								"label": "id",
								"offset": 0,
								"slot": "0",
								"type": "t_uint256"
							},
							{
								"astId": 19,
								"contract": "contract/HouseRegistry.sol:HouseRegistry",
								"label": "price",
								"offset": 0,
								"slot": "1",
								"type": "t_uint256"
							},
							{
								"astId": 21,
								"contract": "contract/HouseRegistry.sol:HouseRegistry",
								"label": "area",
								"offset": 0,
								"slot": "2",
								"type": "t_uint256"
							},
							{
								"astId": 23,
								"contract": "contract/HouseRegistry.sol:HouseRegistry",
								"label": "sellerAddress",
								"offset": 0,
								"slot": "3",
								"type": "t_address"
							},
							{
								"astId": 25,
								"contract": "contract/HouseRegistry.sol:HouseRegistry",
								"label": "houseAddress",
								"offset": 0,
								"slot": "4",
								"type": "t_string_storage"
							},
							{
								"astId": 27,
								"contract": "contract/HouseRegistry.sol:HouseRegistry",
								"label": "isdelistedHouse",
								"offset": 0,
								"slot": "5",
								"type": "t_bool"
							}
						],
						"numberOfBytes": "192"
					},
					"t_uint256": {
						"encoding": "inplace",
						"label": "uint256",
						"numberOfBytes": "32"
					}
				}
			},
			"userdoc": {
				"kind": "user",
				"methods": {},
				"version": 1
			}
		}
	}
}