{
	"contract/HouseRegistry.sol": {
		"HouseRegistry": {
			"abi": [
				{
					"anonymous": false,
					"inputs": [
						{
							"indexed": false,
							"internalType": "uint256",
							"name": "houseId",
							"type": "uint256"
						},
						{
							"indexed": false,
							"internalType": "address",
							"name": "_sellerAddress",
							"type": "address"
						},
						{
							"indexed": false,
							"internalType": "uint256",
							"name": "price",
							"type": "uint256"
						},
						{
							"indexed": false,
							"internalType": "string",
							"name": "houseAddress",
							"type": "string"
						}
					],
					"name": "AddNewHouse",
					"type": "event"
				},
				{
					"inputs": [
						{
							"internalType": "uint256",
							"name": "",
							"type": "uint256"
						}
					],
					"name": "houses",
					"outputs": [
						{
							"internalType": "uint256",
							"name": "id",
							"type": "uint256"
						},
						{
							"internalType": "uint256",
							"name": "price",
							"type": "uint256"
						},
						{
							"internalType": "uint256",
							"name": "area",
							"type": "uint256"
						},
						{
							"internalType": "address",
							"name": "sellerAddress",
							"type": "address"
						},
						{
							"internalType": "string",
							"name": "houseAddress",
							"type": "string"
						}
					],
					"stateMutability": "view",
					"type": "function"
				},
				{
					"inputs": [
						{
							"internalType": "uint256",
							"name": "_price",
							"type": "uint256"
						},
						{
							"internalType": "uint256",
							"name": "_area",
							"type": "uint256"
						},
						{
							"internalType": "string",
							"name": "_houseAddress",
							"type": "string"
						}
					],
					"name": "listHouse",
					"outputs": [
						{
							"internalType": "uint256",
							"name": "",
							"type": "uint256"
						}
					],
					"stateMutability": "nonpayable",
					"type": "function"
				}
			],
			"devdoc": {
				"kind": "dev",
				"methods": {},
				"version": 1
			},
			"evm": {
				"assembly": "    /* \"contract/HouseRegistry.sol\":62:1303  contract HouseRegistry {... */\n  mstore(0x40, 0x80)\n    /* \"contract/HouseRegistry.sol\":106:107  5 */\n  0x05\n    /* \"contract/HouseRegistry.sol\":92:107  uint digits = 5 */\n  0x00\n  sstore\n    /* \"contract/HouseRegistry.sol\":134:140  digits */\n  sload(0x00)\n    /* \"contract/HouseRegistry.sol\":128:130  10 */\n  0x0a\n    /* \"contract/HouseRegistry.sol\":128:140  10 ** digits */\n  tag_1\n  swap2\n  swap1\n  tag_2\n  jump\t// in\ntag_1:\n    /* \"contract/HouseRegistry.sol\":113:140  uint modulus = 10 ** digits */\n  0x01\n  sstore\n    /* \"contract/HouseRegistry.sol\":62:1303  contract HouseRegistry {... */\n  callvalue\n  dup1\n  iszero\n  tag_3\n  jumpi\n  0x00\n  dup1\n  revert\ntag_3:\n  pop\n  jump(tag_4)\n    /* \"#utility.yul\":7:855   */\ntag_6:\n    /* \"#utility.yul\":68:73   */\n  0x00\n    /* \"#utility.yul\":75:79   */\n  dup1\n    /* \"#utility.yul\":99:105   */\n  dup3\n    /* \"#utility.yul\":90:105   */\n  swap2\n  pop\n    /* \"#utility.yul\":123:128   */\n  dup4\n    /* \"#utility.yul\":114:128   */\n  swap1\n  pop\n    /* \"#utility.yul\":137:849   */\ntag_8:\n    /* \"#utility.yul\":158:159   */\n  0x01\n    /* \"#utility.yul\":148:156   */\n  dup6\n    /* \"#utility.yul\":145:160   */\n  gt\n    /* \"#utility.yul\":137:849   */\n  iszero\n  tag_10\n  jumpi\n    /* \"#utility.yul\":253:257   */\n  dup1\n    /* \"#utility.yul\":248:251   */\n  dup7\n    /* \"#utility.yul\":244:258   */\n  div\n    /* \"#utility.yul\":238:242   */\n  dup2\n    /* \"#utility.yul\":235:259   */\n  gt\n    /* \"#utility.yul\":232:282   */\n  iszero\n  tag_11\n  jumpi\n    /* \"#utility.yul\":262:280   */\n  tag_12\n  tag_13\n  jump\t// in\ntag_12:\n    /* \"#utility.yul\":232:282   */\ntag_11:\n    /* \"#utility.yul\":312:313   */\n  0x01\n    /* \"#utility.yul\":302:310   */\n  dup6\n    /* \"#utility.yul\":298:314   */\n  and\n    /* \"#utility.yul\":295:746   */\n  iszero\n  tag_14\n  jumpi\n    /* \"#utility.yul\":727:731   */\n  dup1\n    /* \"#utility.yul\":720:725   */\n  dup3\n    /* \"#utility.yul\":716:732   */\n  mul\n    /* \"#utility.yul\":707:732   */\n  swap2\n  pop\n    /* \"#utility.yul\":295:746   */\ntag_14:\n    /* \"#utility.yul\":777:781   */\n  dup1\n    /* \"#utility.yul\":771:775   */\n  dup2\n    /* \"#utility.yul\":767:782   */\n  mul\n    /* \"#utility.yul\":759:782   */\n  swap1\n  pop\n    /* \"#utility.yul\":807:839   */\n  tag_15\n    /* \"#utility.yul\":830:838   */\n  dup6\n    /* \"#utility.yul\":807:839   */\n  tag_16\n  jump\t// in\ntag_15:\n    /* \"#utility.yul\":795:839   */\n  swap5\n  pop\n    /* \"#utility.yul\":137:849   */\n  jump(tag_8)\ntag_10:\n    /* \"#utility.yul\":7:855   */\n  swap5\n  pop\n  swap5\n  swap3\n  pop\n  pop\n  pop\n  jump\t// out\n    /* \"#utility.yul\":861:1146   */\ntag_2:\n    /* \"#utility.yul\":921:926   */\n  0x00\n    /* \"#utility.yul\":945:968   */\n  tag_18\n    /* \"#utility.yul\":963:967   */\n  dup3\n    /* \"#utility.yul\":945:968   */\n  tag_19\n  jump\t// in\ntag_18:\n    /* \"#utility.yul\":937:968   */\n  swap2\n  pop\n    /* \"#utility.yul\":989:1016   */\n  tag_20\n    /* \"#utility.yul\":1007:1015   */\n  dup4\n    /* \"#utility.yul\":989:1016   */\n  tag_19\n  jump\t// in\ntag_20:\n    /* \"#utility.yul\":977:1016   */\n  swap3\n  pop\n    /* \"#utility.yul\":1035:1139   */\n  tag_21\n    /* \"#utility.yul\":1072:1138   */\n  0xffffffffffffffffffffffffffffffffffffffffffffffffffffffffffffffff\n    /* \"#utility.yul\":1062:1070   */\n  dup5\n    /* \"#utility.yul\":1056:1060   */\n  dup5\n    /* \"#utility.yul\":1035:1139   */\n  tag_22\n  jump\t// in\ntag_21:\n    /* \"#utility.yul\":1026:1139   */\n  swap1\n  pop\n    /* \"#utility.yul\":861:1146   */\n  swap3\n  swap2\n  pop\n  pop\n  jump\t// out\n    /* \"#utility.yul\":1152:2225   */\ntag_22:\n    /* \"#utility.yul\":1206:1211   */\n  0x00\n    /* \"#utility.yul\":1397:1405   */\n  dup3\n    /* \"#utility.yul\":1387:1427   */\n  tag_24\n  jumpi\n    /* \"#utility.yul\":1418:1419   */\n  0x01\n    /* \"#utility.yul\":1409:1419   */\n  swap1\n  pop\n    /* \"#utility.yul\":1420:1425   */\n  jump(tag_23)\n    /* \"#utility.yul\":1387:1427   */\ntag_24:\n    /* \"#utility.yul\":1446:1450   */\n  dup2\n    /* \"#utility.yul\":1436:1472   */\n  tag_25\n  jumpi\n    /* \"#utility.yul\":1463:1464   */\n  0x00\n    /* \"#utility.yul\":1454:1464   */\n  swap1\n  pop\n    /* \"#utility.yul\":1465:1470   */\n  jump(tag_23)\n    /* \"#utility.yul\":1436:1472   */\ntag_25:\n    /* \"#utility.yul\":1532:1536   */\n  dup2\n    /* \"#utility.yul\":1580:1581   */\n  0x01\n    /* \"#utility.yul\":1575:1602   */\n  dup2\n  eq\n  tag_27\n  jumpi\n    /* \"#utility.yul\":1616:1617   */\n  0x02\n    /* \"#utility.yul\":1611:1802   */\n  dup2\n  eq\n  tag_28\n  jumpi\n    /* \"#utility.yul\":1525:1802   */\n  jump(tag_26)\n    /* \"#utility.yul\":1575:1602   */\ntag_27:\n    /* \"#utility.yul\":1593:1594   */\n  0x01\n    /* \"#utility.yul\":1584:1594   */\n  swap2\n  pop\n    /* \"#utility.yul\":1595:1600   */\n  pop\n  jump(tag_23)\n    /* \"#utility.yul\":1611:1802   */\ntag_28:\n    /* \"#utility.yul\":1656:1659   */\n  0xff\n    /* \"#utility.yul\":1646:1654   */\n  dup5\n    /* \"#utility.yul\":1643:1660   */\n  gt\n    /* \"#utility.yul\":1640:1683   */\n  iszero\n  tag_29\n  jumpi\n    /* \"#utility.yul\":1663:1681   */\n  tag_30\n  tag_13\n  jump\t// in\ntag_30:\n    /* \"#utility.yul\":1640:1683   */\ntag_29:\n    /* \"#utility.yul\":1712:1720   */\n  dup4\n    /* \"#utility.yul\":1709:1710   */\n  0x02\n    /* \"#utility.yul\":1705:1721   */\n  exp\n    /* \"#utility.yul\":1696:1721   */\n  swap2\n  pop\n    /* \"#utility.yul\":1747:1750   */\n  dup5\n    /* \"#utility.yul\":1740:1745   */\n  dup3\n    /* \"#utility.yul\":1737:1751   */\n  gt\n    /* \"#utility.yul\":1734:1774   */\n  iszero\n  tag_31\n  jumpi\n    /* \"#utility.yul\":1754:1772   */\n  tag_32\n  tag_13\n  jump\t// in\ntag_32:\n    /* \"#utility.yul\":1734:1774   */\ntag_31:\n    /* \"#utility.yul\":1787:1792   */\n  pop\n  jump(tag_23)\n    /* \"#utility.yul\":1525:1802   */\ntag_26:\n  pop\n    /* \"#utility.yul\":1911:1913   */\n  0x20\n    /* \"#utility.yul\":1901:1909   */\n  dup4\n    /* \"#utility.yul\":1898:1914   */\n  lt\n    /* \"#utility.yul\":1892:1895   */\n  0x0133\n    /* \"#utility.yul\":1886:1890   */\n  dup4\n    /* \"#utility.yul\":1883:1896   */\n  lt\n    /* \"#utility.yul\":1879:1915   */\n  and\n    /* \"#utility.yul\":1861:1863   */\n  0x4e\n    /* \"#utility.yul\":1851:1859   */\n  dup5\n    /* \"#utility.yul\":1848:1864   */\n  lt\n    /* \"#utility.yul\":1843:1845   */\n  0x0b\n    /* \"#utility.yul\":1837:1841   */\n  dup5\n    /* \"#utility.yul\":1834:1846   */\n  lt\n    /* \"#utility.yul\":1830:1865   */\n  and\n    /* \"#utility.yul\":1814:1925   */\n  or\n    /* \"#utility.yul\":1811:2057   */\n  iszero\n  tag_33\n  jumpi\n    /* \"#utility.yul\":1967:1975   */\n  dup3\n    /* \"#utility.yul\":1961:1965   */\n  dup3\n    /* \"#utility.yul\":1957:1976   */\n  exp\n    /* \"#utility.yul\":1948:1976   */\n  swap1\n  pop\n    /* \"#utility.yul\":2002:2005   */\n  dup4\n    /* \"#utility.yul\":1995:2000   */\n  dup2\n    /* \"#utility.yul\":1992:2006   */\n  gt\n    /* \"#utility.yul\":1989:2029   */\n  iszero\n  tag_34\n  jumpi\n    /* \"#utility.yul\":2009:2027   */\n  tag_35\n  tag_13\n  jump\t// in\ntag_35:\n    /* \"#utility.yul\":1989:2029   */\ntag_34:\n    /* \"#utility.yul\":2042:2047   */\n  jump(tag_23)\n    /* \"#utility.yul\":1811:2057   */\ntag_33:\n    /* \"#utility.yul\":2082:2124   */\n  tag_36\n    /* \"#utility.yul\":2120:2123   */\n  dup5\n    /* \"#utility.yul\":2110:2118   */\n  dup5\n    /* \"#utility.yul\":2104:2108   */\n  dup5\n    /* \"#utility.yul\":2101:2102   */\n  0x01\n    /* \"#utility.yul\":2082:2124   */\n  tag_6\n  jump\t// in\ntag_36:\n    /* \"#utility.yul\":2067:2124   */\n  swap3\n  pop\n  swap1\n  pop\n    /* \"#utility.yul\":2156:2160   */\n  dup2\n    /* \"#utility.yul\":2151:2154   */\n  dup5\n    /* \"#utility.yul\":2147:2161   */\n  div\n    /* \"#utility.yul\":2140:2145   */\n  dup2\n    /* \"#utility.yul\":2137:2162   */\n  gt\n    /* \"#utility.yul\":2134:2185   */\n  iszero\n  tag_37\n  jumpi\n    /* \"#utility.yul\":2165:2183   */\n  tag_38\n  tag_13\n  jump\t// in\ntag_38:\n    /* \"#utility.yul\":2134:2185   */\ntag_37:\n    /* \"#utility.yul\":2214:2218   */\n  dup2\n    /* \"#utility.yul\":2207:2212   */\n  dup2\n    /* \"#utility.yul\":2203:2219   */\n  mul\n    /* \"#utility.yul\":2194:2219   */\n  swap1\n  pop\n    /* \"#utility.yul\":1152:2225   */\ntag_23:\n  swap4\n  swap3\n  pop\n  pop\n  pop\n  jump\t// out\n    /* \"#utility.yul\":2231:2308   */\ntag_19:\n    /* \"#utility.yul\":2268:2275   */\n  0x00\n    /* \"#utility.yul\":2297:2302   */\n  dup2\n    /* \"#utility.yul\":2286:2302   */\n  swap1\n  pop\n    /* \"#utility.yul\":2231:2308   */\n  swap2\n  swap1\n  pop\n  jump\t// out\n    /* \"#utility.yul\":2314:2494   */\ntag_13:\n    /* \"#utility.yul\":2362:2439   */\n  0x4e487b7100000000000000000000000000000000000000000000000000000000\n    /* \"#utility.yul\":2359:2360   */\n  0x00\n    /* \"#utility.yul\":2352:2440   */\n  mstore\n    /* \"#utility.yul\":2459:2463   */\n  0x11\n    /* \"#utility.yul\":2456:2457   */\n  0x04\n    /* \"#utility.yul\":2449:2464   */\n  mstore\n    /* \"#utility.yul\":2483:2487   */\n  0x24\n    /* \"#utility.yul\":2480:2481   */\n  0x00\n    /* \"#utility.yul\":2473:2488   */\n  revert\n    /* \"#utility.yul\":2500:2602   */\ntag_16:\n    /* \"#utility.yul\":2542:2550   */\n  0x00\n    /* \"#utility.yul\":2589:2594   */\n  dup2\n    /* \"#utility.yul\":2586:2587   */\n  0x01\n    /* \"#utility.yul\":2582:2595   */\n  shr\n    /* \"#utility.yul\":2561:2595   */\n  swap1\n  pop\n    /* \"#utility.yul\":2500:2602   */\n  swap2\n  swap1\n  pop\n  jump\t// out\n    /* \"contract/HouseRegistry.sol\":62:1303  contract HouseRegistry {... */\ntag_4:\n  dataSize(sub_0)\n  dup1\n  dataOffset(sub_0)\n  0x00\n  codecopy\n  0x00\n  return\nstop\n\nsub_0: assembly {\n        /* \"contract/HouseRegistry.sol\":62:1303  contract HouseRegistry {... */\n      mstore(0x40, 0x80)\n      callvalue\n      dup1\n      iszero\n      tag_1\n      jumpi\n      0x00\n      dup1\n      revert\n    tag_1:\n      pop\n      jumpi(tag_2, lt(calldatasize, 0x04))\n      shr(0xe0, calldataload(0x00))\n      dup1\n      0xa66e752d\n      eq\n      tag_3\n      jumpi\n      dup1\n      0xaeda852f\n      eq\n      tag_4\n      jumpi\n    tag_2:\n      0x00\n      dup1\n      revert\n        /* \"contract/HouseRegistry.sol\":456:1040  function listHouse (uint _price, uint _area, string memory _houseAddress) public returns (uint) {... */\n    tag_3:\n      tag_5\n      0x04\n      dup1\n      calldatasize\n      sub\n      dup2\n      add\n      swap1\n      tag_6\n      swap2\n      swap1\n      tag_7\n      jump\t// in\n    tag_6:\n      tag_8\n      jump\t// in\n    tag_5:\n      mload(0x40)\n      tag_9\n      swap2\n      swap1\n      tag_10\n      jump\t// in\n    tag_9:\n      mload(0x40)\n      dup1\n      swap2\n      sub\n      swap1\n      return\n        /* \"contract/HouseRegistry.sol\":413:449  mapping(uint => House) public houses */\n    tag_4:\n      tag_11\n      0x04\n      dup1\n      calldatasize\n      sub\n      dup2\n      add\n      swap1\n      tag_12\n      swap2\n      swap1\n      tag_13\n      jump\t// in\n    tag_12:\n      tag_14\n      jump\t// in\n    tag_11:\n      mload(0x40)\n      tag_15\n      swap6\n      swap5\n      swap4\n      swap3\n      swap2\n      swap1\n      tag_16\n      jump\t// in\n    tag_15:\n      mload(0x40)\n      dup1\n      swap2\n      sub\n      swap1\n      return\n        /* \"contract/HouseRegistry.sol\":456:1040  function listHouse (uint _price, uint _area, string memory _houseAddress) public returns (uint) {... */\n    tag_8:\n        /* \"contract/HouseRegistry.sol\":546:550  uint */\n      0x00\n        /* \"contract/HouseRegistry.sol\":587:588  0 */\n      dup1\n        /* \"contract/HouseRegistry.sol\":579:584  _area */\n      dup4\n        /* \"contract/HouseRegistry.sol\":570:576  _price */\n      dup6\n        /* \"contract/HouseRegistry.sol\":570:584  _price * _area */\n      tag_18\n      swap2\n      swap1\n      tag_19\n      jump\t// in\n    tag_18:\n        /* \"contract/HouseRegistry.sol\":570:588  _price * _area > 0 */\n      gt\n        /* \"contract/HouseRegistry.sol\":562:589  require(_price * _area > 0) */\n      tag_20\n      jumpi\n      0x00\n      dup1\n      revert\n    tag_20:\n        /* \"contract/HouseRegistry.sol\":599:621  address _sellerAddress */\n      0x00\n        /* \"contract/HouseRegistry.sol\":624:634  msg.sender */\n      caller\n        /* \"contract/HouseRegistry.sol\":599:634  address _sellerAddress = msg.sender */\n      swap1\n      pop\n        /* \"contract/HouseRegistry.sol\":644:656  uint houseId */\n      0x00\n        /* \"contract/HouseRegistry.sol\":659:713  _generateHouseId(_sellerAddress, _area, _houseAddress) */\n      tag_21\n        /* \"contract/HouseRegistry.sol\":676:690  _sellerAddress */\n      dup3\n        /* \"contract/HouseRegistry.sol\":692:697  _area */\n      dup7\n        /* \"contract/HouseRegistry.sol\":699:712  _houseAddress */\n      dup7\n        /* \"contract/HouseRegistry.sol\":659:675  _generateHouseId */\n      tag_22\n        /* \"contract/HouseRegistry.sol\":659:713  _generateHouseId(_sellerAddress, _area, _houseAddress) */\n      jump\t// in\n    tag_21:\n        /* \"contract/HouseRegistry.sol\":644:713  uint houseId = _generateHouseId(_sellerAddress, _area, _houseAddress) */\n      swap1\n      pop\n        /* \"contract/HouseRegistry.sol\":742:748  houses */\n      0x02\n        /* \"contract/HouseRegistry.sol\":742:757  houses[houseId] */\n      0x00\n        /* \"contract/HouseRegistry.sol\":749:756  houseId */\n      dup3\n        /* \"contract/HouseRegistry.sol\":742:757  houses[houseId] */\n      dup2\n      mstore\n      0x20\n      add\n      swap1\n      dup2\n      mstore\n      0x20\n      add\n      0x00\n      keccak256\n        /* \"contract/HouseRegistry.sol\":742:760  houses[houseId].id */\n      0x00\n      add\n      sload\n        /* \"contract/HouseRegistry.sol\":731:738  houseId */\n      dup2\n        /* \"contract/HouseRegistry.sol\":731:760  houseId != houses[houseId].id */\n      eq\n      iszero\n        /* \"contract/HouseRegistry.sol\":723:761  require(houseId != houses[houseId].id) */\n      tag_23\n      jumpi\n      0x00\n      dup1\n      revert\n    tag_23:\n        /* \"contract/HouseRegistry.sol\":789:849  House(houseId, _price, _area, _sellerAddress, _houseAddress) */\n      mload(0x40)\n      dup1\n      0xa0\n      add\n      0x40\n      mstore\n      dup1\n        /* \"contract/HouseRegistry.sol\":795:802  houseId */\n      dup3\n        /* \"contract/HouseRegistry.sol\":789:849  House(houseId, _price, _area, _sellerAddress, _houseAddress) */\n      dup2\n      mstore\n      0x20\n      add\n        /* \"contract/HouseRegistry.sol\":804:810  _price */\n      dup8\n        /* \"contract/HouseRegistry.sol\":789:849  House(houseId, _price, _area, _sellerAddress, _houseAddress) */\n      dup2\n      mstore\n      0x20\n      add\n        /* \"contract/HouseRegistry.sol\":812:817  _area */\n      dup7\n        /* \"contract/HouseRegistry.sol\":789:849  House(houseId, _price, _area, _sellerAddress, _houseAddress) */\n      dup2\n      mstore\n      0x20\n      add\n        /* \"contract/HouseRegistry.sol\":819:833  _sellerAddress */\n      dup4\n        /* \"contract/HouseRegistry.sol\":789:849  House(houseId, _price, _area, _sellerAddress, _houseAddress) */\n      0xffffffffffffffffffffffffffffffffffffffff\n      and\n      dup2\n      mstore\n      0x20\n      add\n        /* \"contract/HouseRegistry.sol\":835:848  _houseAddress */\n      dup6\n        /* \"contract/HouseRegistry.sol\":789:849  House(houseId, _price, _area, _sellerAddress, _houseAddress) */\n      dup2\n      mstore\n      pop\n        /* \"contract/HouseRegistry.sol\":771:777  houses */\n      0x02\n        /* \"contract/HouseRegistry.sol\":771:786  houses[houseId] */\n      0x00\n        /* \"contract/HouseRegistry.sol\":778:785  houseId */\n      dup4\n        /* \"contract/HouseRegistry.sol\":771:786  houses[houseId] */\n      dup2\n      mstore\n      0x20\n      add\n      swap1\n      dup2\n      mstore\n      0x20\n      add\n      0x00\n      keccak256\n        /* \"contract/HouseRegistry.sol\":771:849  houses[houseId] = House(houseId, _price, _area, _sellerAddress, _houseAddress) */\n      0x00\n      dup3\n      add\n      mload\n      dup2\n      0x00\n      add\n      sstore\n      0x20\n      dup3\n      add\n      mload\n      dup2\n      0x01\n      add\n      sstore\n      0x40\n      dup3\n      add\n      mload\n      dup2\n      0x02\n      add\n      sstore\n      0x60\n      dup3\n      add\n      mload\n      dup2\n      0x03\n      add\n      exp(0x0100, 0x00)\n      dup2\n      sload\n      dup2\n      0xffffffffffffffffffffffffffffffffffffffff\n      mul\n      not\n      and\n      swap1\n      dup4\n      0xffffffffffffffffffffffffffffffffffffffff\n      and\n      mul\n      or\n      swap1\n      sstore\n      pop\n      0x80\n      dup3\n      add\n      mload\n      dup2\n      0x04\n      add\n      swap1\n      dup1\n      mload\n      swap1\n      0x20\n      add\n      swap1\n      tag_24\n      swap3\n      swap2\n      swap1\n      tag_25\n      jump\t// in\n    tag_24:\n      pop\n      swap1\n      pop\n      pop\n        /* \"contract/HouseRegistry.sol\":950:1009  AddNewHouse(houseId, _sellerAddress, _price, _houseAddress) */\n      0x8f5afd88eb4be0ac287d87970052ce9a2b453448408e3c91a695ad7509ab7194\n        /* \"contract/HouseRegistry.sol\":962:969  houseId */\n      dup2\n        /* \"contract/HouseRegistry.sol\":971:985  _sellerAddress */\n      dup4\n        /* \"contract/HouseRegistry.sol\":987:993  _price */\n      dup9\n        /* \"contract/HouseRegistry.sol\":995:1008  _houseAddress */\n      dup8\n        /* \"contract/HouseRegistry.sol\":950:1009  AddNewHouse(houseId, _sellerAddress, _price, _houseAddress) */\n      mload(0x40)\n      tag_26\n      swap5\n      swap4\n      swap3\n      swap2\n      swap1\n      tag_27\n      jump\t// in\n    tag_26:\n      mload(0x40)\n      dup1\n      swap2\n      sub\n      swap1\n      log1\n        /* \"contract/HouseRegistry.sol\":1026:1033  houseId */\n      dup1\n        /* \"contract/HouseRegistry.sol\":1019:1033  return houseId */\n      swap3\n      pop\n      pop\n      pop\n        /* \"contract/HouseRegistry.sol\":456:1040  function listHouse (uint _price, uint _area, string memory _houseAddress) public returns (uint) {... */\n      swap4\n      swap3\n      pop\n      pop\n      pop\n      jump\t// out\n        /* \"contract/HouseRegistry.sol\":413:449  mapping(uint => House) public houses */\n    tag_14:\n      mstore(0x20, 0x02)\n      dup1\n      0x00\n      mstore\n      keccak256(0x00, 0x40)\n      0x00\n      swap2\n      pop\n      swap1\n      pop\n      dup1\n      0x00\n      add\n      sload\n      swap1\n      dup1\n      0x01\n      add\n      sload\n      swap1\n      dup1\n      0x02\n      add\n      sload\n      swap1\n      dup1\n      0x03\n      add\n      0x00\n      swap1\n      sload\n      swap1\n      0x0100\n      exp\n      swap1\n      div\n      0xffffffffffffffffffffffffffffffffffffffff\n      and\n      swap1\n      dup1\n      0x04\n      add\n      dup1\n      sload\n      tag_28\n      swap1\n      tag_29\n      jump\t// in\n    tag_28:\n      dup1\n      0x1f\n      add\n      0x20\n      dup1\n      swap2\n      div\n      mul\n      0x20\n      add\n      mload(0x40)\n      swap1\n      dup2\n      add\n      0x40\n      mstore\n      dup1\n      swap3\n      swap2\n      swap1\n      dup2\n      dup2\n      mstore\n      0x20\n      add\n      dup3\n      dup1\n      sload\n      tag_30\n      swap1\n      tag_29\n      jump\t// in\n    tag_30:\n      dup1\n      iszero\n      tag_31\n      jumpi\n      dup1\n      0x1f\n      lt\n      tag_32\n      jumpi\n      0x0100\n      dup1\n      dup4\n      sload\n      div\n      mul\n      dup4\n      mstore\n      swap2\n      0x20\n      add\n      swap2\n      jump(tag_31)\n    tag_32:\n      dup3\n      add\n      swap2\n      swap1\n      0x00\n      mstore\n      keccak256(0x00, 0x20)\n      swap1\n    tag_33:\n      dup2\n      sload\n      dup2\n      mstore\n      swap1\n      0x01\n      add\n      swap1\n      0x20\n      add\n      dup1\n      dup4\n      gt\n      tag_33\n      jumpi\n      dup3\n      swap1\n      sub\n      0x1f\n      and\n      dup3\n      add\n      swap2\n    tag_31:\n      pop\n      pop\n      pop\n      pop\n      pop\n      swap1\n      pop\n      dup6\n      jump\t// out\n        /* \"contract/HouseRegistry.sol\":1046:1300  function _generateHouseId(address _sellerAddress, uint _area, string memory _houseAddress) private view returns(uint){... */\n    tag_22:\n        /* \"contract/HouseRegistry.sol\":1158:1162  uint */\n      0x00\n        /* \"contract/HouseRegistry.sol\":1173:1185  uint houseId */\n      dup1\n        /* \"contract/HouseRegistry.sol\":1220:1234  _sellerAddress */\n      dup5\n        /* \"contract/HouseRegistry.sol\":1236:1241  _area */\n      dup5\n        /* \"contract/HouseRegistry.sol\":1243:1256  _houseAddress */\n      dup5\n        /* \"contract/HouseRegistry.sol\":1203:1257  abi.encodePacked(_sellerAddress, _area, _houseAddress) */\n      add(0x20, mload(0x40))\n      tag_35\n      swap4\n      swap3\n      swap2\n      swap1\n      tag_36\n      jump\t// in\n    tag_35:\n      mload(0x40)\n      0x20\n      dup2\n      dup4\n      sub\n      sub\n      dup2\n      mstore\n      swap1\n      0x40\n      mstore\n        /* \"contract/HouseRegistry.sol\":1193:1258  keccak256(abi.encodePacked(_sellerAddress, _area, _houseAddress)) */\n      dup1\n      mload\n      swap1\n      0x20\n      add\n      keccak256\n        /* \"contract/HouseRegistry.sol\":1188:1259  uint(keccak256(abi.encodePacked(_sellerAddress, _area, _houseAddress))) */\n      0x00\n      shr\n        /* \"contract/HouseRegistry.sol\":1173:1259  uint houseId = uint(keccak256(abi.encodePacked(_sellerAddress, _area, _houseAddress))) */\n      swap1\n      pop\n        /* \"contract/HouseRegistry.sol\":1286:1293  modulus */\n      sload(0x01)\n        /* \"contract/HouseRegistry.sol\":1276:1283  houseId */\n      dup2\n        /* \"contract/HouseRegistry.sol\":1276:1293  houseId % modulus */\n      tag_37\n      swap2\n      swap1\n      tag_38\n      jump\t// in\n    tag_37:\n        /* \"contract/HouseRegistry.sol\":1269:1293  return houseId % modulus */\n      swap2\n      pop\n      pop\n        /* \"contract/HouseRegistry.sol\":1046:1300  function _generateHouseId(address _sellerAddress, uint _area, string memory _houseAddress) private view returns(uint){... */\n      swap4\n      swap3\n      pop\n      pop\n      pop\n      jump\t// out\n    tag_25:\n      dup3\n      dup1\n      sload\n      tag_39\n      swap1\n      tag_29\n      jump\t// in\n    tag_39:\n      swap1\n      0x00\n      mstore\n      keccak256(0x00, 0x20)\n      swap1\n      0x1f\n      add\n      0x20\n      swap1\n      div\n      dup2\n      add\n      swap3\n      dup3\n      tag_41\n      jumpi\n      0x00\n      dup6\n      sstore\n      jump(tag_40)\n    tag_41:\n      dup3\n      0x1f\n      lt\n      tag_42\n      jumpi\n      dup1\n      mload\n      not(0xff)\n      and\n      dup4\n      dup1\n      add\n      or\n      dup6\n      sstore\n      jump(tag_40)\n    tag_42:\n      dup3\n      dup1\n      add\n      0x01\n      add\n      dup6\n      sstore\n      dup3\n      iszero\n      tag_40\n      jumpi\n      swap2\n      dup3\n      add\n    tag_43:\n      dup3\n      dup2\n      gt\n      iszero\n      tag_44\n      jumpi\n      dup3\n      mload\n      dup3\n      sstore\n      swap2\n      0x20\n      add\n      swap2\n      swap1\n      0x01\n      add\n      swap1\n      jump(tag_43)\n    tag_44:\n    tag_40:\n      pop\n      swap1\n      pop\n      tag_45\n      swap2\n      swap1\n      tag_46\n      jump\t// in\n    tag_45:\n      pop\n      swap1\n      jump\t// out\n    tag_46:\n    tag_47:\n      dup1\n      dup3\n      gt\n      iszero\n      tag_48\n      jumpi\n      0x00\n      dup2\n      0x00\n      swap1\n      sstore\n      pop\n      0x01\n      add\n      jump(tag_47)\n    tag_48:\n      pop\n      swap1\n      jump\t// out\n        /* \"#utility.yul\":7:419   */\n    tag_50:\n        /* \"#utility.yul\":85:90   */\n      0x00\n        /* \"#utility.yul\":110:176   */\n      tag_52\n        /* \"#utility.yul\":126:175   */\n      tag_53\n        /* \"#utility.yul\":168:174   */\n      dup5\n        /* \"#utility.yul\":126:175   */\n      tag_54\n      jump\t// in\n    tag_53:\n        /* \"#utility.yul\":110:176   */\n      tag_55\n      jump\t// in\n    tag_52:\n        /* \"#utility.yul\":101:176   */\n      swap1\n      pop\n        /* \"#utility.yul\":199:205   */\n      dup3\n        /* \"#utility.yul\":192:197   */\n      dup2\n        /* \"#utility.yul\":185:206   */\n      mstore\n        /* \"#utility.yul\":237:241   */\n      0x20\n        /* \"#utility.yul\":230:235   */\n      dup2\n        /* \"#utility.yul\":226:242   */\n      add\n        /* \"#utility.yul\":275:278   */\n      dup5\n        /* \"#utility.yul\":266:272   */\n      dup5\n        /* \"#utility.yul\":261:264   */\n      dup5\n        /* \"#utility.yul\":257:273   */\n      add\n        /* \"#utility.yul\":254:279   */\n      gt\n        /* \"#utility.yul\":251:363   */\n      iszero\n      tag_56\n      jumpi\n        /* \"#utility.yul\":282:361   */\n      tag_57\n      tag_58\n      jump\t// in\n    tag_57:\n        /* \"#utility.yul\":251:363   */\n    tag_56:\n        /* \"#utility.yul\":372:413   */\n      tag_59\n        /* \"#utility.yul\":406:412   */\n      dup5\n        /* \"#utility.yul\":401:404   */\n      dup3\n        /* \"#utility.yul\":396:399   */\n      dup6\n        /* \"#utility.yul\":372:413   */\n      tag_60\n      jump\t// in\n    tag_59:\n        /* \"#utility.yul\":91:419   */\n      pop\n        /* \"#utility.yul\":7:419   */\n      swap4\n      swap3\n      pop\n      pop\n      pop\n      jump\t// out\n        /* \"#utility.yul\":439:779   */\n    tag_61:\n        /* \"#utility.yul\":495:500   */\n      0x00\n        /* \"#utility.yul\":544:547   */\n      dup3\n        /* \"#utility.yul\":537:541   */\n      0x1f\n        /* \"#utility.yul\":529:535   */\n      dup4\n        /* \"#utility.yul\":525:542   */\n      add\n        /* \"#utility.yul\":521:548   */\n      slt\n        /* \"#utility.yul\":511:633   */\n      tag_63\n      jumpi\n        /* \"#utility.yul\":552:631   */\n      tag_64\n      tag_65\n      jump\t// in\n    tag_64:\n        /* \"#utility.yul\":511:633   */\n    tag_63:\n        /* \"#utility.yul\":669:675   */\n      dup2\n        /* \"#utility.yul\":656:676   */\n      calldataload\n        /* \"#utility.yul\":694:773   */\n      tag_66\n        /* \"#utility.yul\":769:772   */\n      dup5\n        /* \"#utility.yul\":761:767   */\n      dup3\n        /* \"#utility.yul\":754:758   */\n      0x20\n        /* \"#utility.yul\":746:752   */\n      dup7\n        /* \"#utility.yul\":742:759   */\n      add\n        /* \"#utility.yul\":694:773   */\n      tag_50\n      jump\t// in\n    tag_66:\n        /* \"#utility.yul\":685:773   */\n      swap2\n      pop\n        /* \"#utility.yul\":501:779   */\n      pop\n        /* \"#utility.yul\":439:779   */\n      swap3\n      swap2\n      pop\n      pop\n      jump\t// out\n        /* \"#utility.yul\":785:924   */\n    tag_67:\n        /* \"#utility.yul\":831:836   */\n      0x00\n        /* \"#utility.yul\":869:875   */\n      dup2\n        /* \"#utility.yul\":856:876   */\n      calldataload\n        /* \"#utility.yul\":847:876   */\n      swap1\n      pop\n        /* \"#utility.yul\":885:918   */\n      tag_69\n        /* \"#utility.yul\":912:917   */\n      dup2\n        /* \"#utility.yul\":885:918   */\n      tag_70\n      jump\t// in\n    tag_69:\n        /* \"#utility.yul\":785:924   */\n      swap3\n      swap2\n      pop\n      pop\n      jump\t// out\n        /* \"#utility.yul\":930:1259   */\n    tag_13:\n        /* \"#utility.yul\":989:995   */\n      0x00\n        /* \"#utility.yul\":1038:1040   */\n      0x20\n        /* \"#utility.yul\":1026:1035   */\n      dup3\n        /* \"#utility.yul\":1017:1024   */\n      dup5\n        /* \"#utility.yul\":1013:1036   */\n      sub\n        /* \"#utility.yul\":1009:1041   */\n      slt\n        /* \"#utility.yul\":1006:1125   */\n      iszero\n      tag_72\n      jumpi\n        /* \"#utility.yul\":1044:1123   */\n      tag_73\n      tag_74\n      jump\t// in\n    tag_73:\n        /* \"#utility.yul\":1006:1125   */\n    tag_72:\n        /* \"#utility.yul\":1164:1165   */\n      0x00\n        /* \"#utility.yul\":1189:1242   */\n      tag_75\n        /* \"#utility.yul\":1234:1241   */\n      dup5\n        /* \"#utility.yul\":1225:1231   */\n      dup3\n        /* \"#utility.yul\":1214:1223   */\n      dup6\n        /* \"#utility.yul\":1210:1232   */\n      add\n        /* \"#utility.yul\":1189:1242   */\n      tag_67\n      jump\t// in\n    tag_75:\n        /* \"#utility.yul\":1179:1242   */\n      swap2\n      pop\n        /* \"#utility.yul\":1135:1252   */\n      pop\n        /* \"#utility.yul\":930:1259   */\n      swap3\n      swap2\n      pop\n      pop\n      jump\t// out\n        /* \"#utility.yul\":1265:2064   */\n    tag_7:\n        /* \"#utility.yul\":1352:1358   */\n      0x00\n        /* \"#utility.yul\":1360:1366   */\n      dup1\n        /* \"#utility.yul\":1368:1374   */\n      0x00\n        /* \"#utility.yul\":1417:1419   */\n      0x60\n        /* \"#utility.yul\":1405:1414   */\n      dup5\n        /* \"#utility.yul\":1396:1403   */\n      dup7\n        /* \"#utility.yul\":1392:1415   */\n      sub\n        /* \"#utility.yul\":1388:1420   */\n      slt\n        /* \"#utility.yul\":1385:1504   */\n      iszero\n      tag_77\n      jumpi\n        /* \"#utility.yul\":1423:1502   */\n      tag_78\n      tag_74\n      jump\t// in\n    tag_78:\n        /* \"#utility.yul\":1385:1504   */\n    tag_77:\n        /* \"#utility.yul\":1543:1544   */\n      0x00\n        /* \"#utility.yul\":1568:1621   */\n      tag_79\n        /* \"#utility.yul\":1613:1620   */\n      dup7\n        /* \"#utility.yul\":1604:1610   */\n      dup3\n        /* \"#utility.yul\":1593:1602   */\n      dup8\n        /* \"#utility.yul\":1589:1611   */\n      add\n        /* \"#utility.yul\":1568:1621   */\n      tag_67\n      jump\t// in\n    tag_79:\n        /* \"#utility.yul\":1558:1621   */\n      swap4\n      pop\n        /* \"#utility.yul\":1514:1631   */\n      pop\n        /* \"#utility.yul\":1670:1672   */\n      0x20\n        /* \"#utility.yul\":1696:1749   */\n      tag_80\n        /* \"#utility.yul\":1741:1748   */\n      dup7\n        /* \"#utility.yul\":1732:1738   */\n      dup3\n        /* \"#utility.yul\":1721:1730   */\n      dup8\n        /* \"#utility.yul\":1717:1739   */\n      add\n        /* \"#utility.yul\":1696:1749   */\n      tag_67\n      jump\t// in\n    tag_80:\n        /* \"#utility.yul\":1686:1749   */\n      swap3\n      pop\n        /* \"#utility.yul\":1641:1759   */\n      pop\n        /* \"#utility.yul\":1826:1828   */\n      0x40\n        /* \"#utility.yul\":1815:1824   */\n      dup5\n        /* \"#utility.yul\":1811:1829   */\n      add\n        /* \"#utility.yul\":1798:1830   */\n      calldataload\n        /* \"#utility.yul\":1857:1875   */\n      0xffffffffffffffff\n        /* \"#utility.yul\":1849:1855   */\n      dup2\n        /* \"#utility.yul\":1846:1876   */\n      gt\n        /* \"#utility.yul\":1843:1960   */\n      iszero\n      tag_81\n      jumpi\n        /* \"#utility.yul\":1879:1958   */\n      tag_82\n      tag_83\n      jump\t// in\n    tag_82:\n        /* \"#utility.yul\":1843:1960   */\n    tag_81:\n        /* \"#utility.yul\":1984:2047   */\n      tag_84\n        /* \"#utility.yul\":2039:2046   */\n      dup7\n        /* \"#utility.yul\":2030:2036   */\n      dup3\n        /* \"#utility.yul\":2019:2028   */\n      dup8\n        /* \"#utility.yul\":2015:2037   */\n      add\n        /* \"#utility.yul\":1984:2047   */\n      tag_61\n      jump\t// in\n    tag_84:\n        /* \"#utility.yul\":1974:2047   */\n      swap2\n      pop\n        /* \"#utility.yul\":1769:2057   */\n      pop\n        /* \"#utility.yul\":1265:2064   */\n      swap3\n      pop\n      swap3\n      pop\n      swap3\n      jump\t// out\n        /* \"#utility.yul\":2070:2188   */\n    tag_85:\n        /* \"#utility.yul\":2157:2181   */\n      tag_87\n        /* \"#utility.yul\":2175:2180   */\n      dup2\n        /* \"#utility.yul\":2157:2181   */\n      tag_88\n      jump\t// in\n    tag_87:\n        /* \"#utility.yul\":2152:2155   */\n      dup3\n        /* \"#utility.yul\":2145:2182   */\n      mstore\n        /* \"#utility.yul\":2070:2188   */\n      pop\n      pop\n      jump\t// out\n        /* \"#utility.yul\":2194:2351   */\n    tag_89:\n        /* \"#utility.yul\":2299:2344   */\n      tag_91\n        /* \"#utility.yul\":2319:2343   */\n      tag_92\n        /* \"#utility.yul\":2337:2342   */\n      dup3\n        /* \"#utility.yul\":2319:2343   */\n      tag_88\n      jump\t// in\n    tag_92:\n        /* \"#utility.yul\":2299:2344   */\n      tag_93\n      jump\t// in\n    tag_91:\n        /* \"#utility.yul\":2294:2297   */\n      dup3\n        /* \"#utility.yul\":2287:2345   */\n      mstore\n        /* \"#utility.yul\":2194:2351   */\n      pop\n      pop\n      jump\t// out\n        /* \"#utility.yul\":2357:2721   */\n    tag_94:\n        /* \"#utility.yul\":2445:2448   */\n      0x00\n        /* \"#utility.yul\":2473:2512   */\n      tag_96\n        /* \"#utility.yul\":2506:2511   */\n      dup3\n        /* \"#utility.yul\":2473:2512   */\n      tag_97\n      jump\t// in\n    tag_96:\n        /* \"#utility.yul\":2528:2599   */\n      tag_98\n        /* \"#utility.yul\":2592:2598   */\n      dup2\n        /* \"#utility.yul\":2587:2590   */\n      dup6\n        /* \"#utility.yul\":2528:2599   */\n      tag_99\n      jump\t// in\n    tag_98:\n        /* \"#utility.yul\":2521:2599   */\n      swap4\n      pop\n        /* \"#utility.yul\":2608:2660   */\n      tag_100\n        /* \"#utility.yul\":2653:2659   */\n      dup2\n        /* \"#utility.yul\":2648:2651   */\n      dup6\n        /* \"#utility.yul\":2641:2645   */\n      0x20\n        /* \"#utility.yul\":2634:2639   */\n      dup7\n        /* \"#utility.yul\":2630:2646   */\n      add\n        /* \"#utility.yul\":2608:2660   */\n      tag_101\n      jump\t// in\n    tag_100:\n        /* \"#utility.yul\":2685:2714   */\n      tag_102\n        /* \"#utility.yul\":2707:2713   */\n      dup2\n        /* \"#utility.yul\":2685:2714   */\n      tag_103\n      jump\t// in\n    tag_102:\n        /* \"#utility.yul\":2680:2683   */\n      dup5\n        /* \"#utility.yul\":2676:2715   */\n      add\n        /* \"#utility.yul\":2669:2715   */\n      swap2\n      pop\n        /* \"#utility.yul\":2449:2721   */\n      pop\n        /* \"#utility.yul\":2357:2721   */\n      swap3\n      swap2\n      pop\n      pop\n      jump\t// out\n        /* \"#utility.yul\":2727:3104   */\n    tag_104:\n        /* \"#utility.yul\":2833:2836   */\n      0x00\n        /* \"#utility.yul\":2861:2900   */\n      tag_106\n        /* \"#utility.yul\":2894:2899   */\n      dup3\n        /* \"#utility.yul\":2861:2900   */\n      tag_97\n      jump\t// in\n    tag_106:\n        /* \"#utility.yul\":2916:3005   */\n      tag_107\n        /* \"#utility.yul\":2998:3004   */\n      dup2\n        /* \"#utility.yul\":2993:2996   */\n      dup6\n        /* \"#utility.yul\":2916:3005   */\n      tag_108\n      jump\t// in\n    tag_107:\n        /* \"#utility.yul\":2909:3005   */\n      swap4\n      pop\n        /* \"#utility.yul\":3014:3066   */\n      tag_109\n        /* \"#utility.yul\":3059:3065   */\n      dup2\n        /* \"#utility.yul\":3054:3057   */\n      dup6\n        /* \"#utility.yul\":3047:3051   */\n      0x20\n        /* \"#utility.yul\":3040:3045   */\n      dup7\n        /* \"#utility.yul\":3036:3052   */\n      add\n        /* \"#utility.yul\":3014:3066   */\n      tag_101\n      jump\t// in\n    tag_109:\n        /* \"#utility.yul\":3091:3097   */\n      dup1\n        /* \"#utility.yul\":3086:3089   */\n      dup5\n        /* \"#utility.yul\":3082:3098   */\n      add\n        /* \"#utility.yul\":3075:3098   */\n      swap2\n      pop\n        /* \"#utility.yul\":2837:3104   */\n      pop\n        /* \"#utility.yul\":2727:3104   */\n      swap3\n      swap2\n      pop\n      pop\n      jump\t// out\n        /* \"#utility.yul\":3110:3228   */\n    tag_110:\n        /* \"#utility.yul\":3197:3221   */\n      tag_112\n        /* \"#utility.yul\":3215:3220   */\n      dup2\n        /* \"#utility.yul\":3197:3221   */\n      tag_113\n      jump\t// in\n    tag_112:\n        /* \"#utility.yul\":3192:3195   */\n      dup3\n        /* \"#utility.yul\":3185:3222   */\n      mstore\n        /* \"#utility.yul\":3110:3228   */\n      pop\n      pop\n      jump\t// out\n        /* \"#utility.yul\":3234:3391   */\n    tag_114:\n        /* \"#utility.yul\":3339:3384   */\n      tag_116\n        /* \"#utility.yul\":3359:3383   */\n      tag_117\n        /* \"#utility.yul\":3377:3382   */\n      dup3\n        /* \"#utility.yul\":3359:3383   */\n      tag_113\n      jump\t// in\n    tag_117:\n        /* \"#utility.yul\":3339:3384   */\n      tag_118\n      jump\t// in\n    tag_116:\n        /* \"#utility.yul\":3334:3337   */\n      dup3\n        /* \"#utility.yul\":3327:3385   */\n      mstore\n        /* \"#utility.yul\":3234:3391   */\n      pop\n      pop\n      jump\t// out\n        /* \"#utility.yul\":3397:3954   */\n    tag_36:\n        /* \"#utility.yul\":3585:3588   */\n      0x00\n        /* \"#utility.yul\":3600:3675   */\n      tag_120\n        /* \"#utility.yul\":3671:3674   */\n      dup3\n        /* \"#utility.yul\":3662:3668   */\n      dup7\n        /* \"#utility.yul\":3600:3675   */\n      tag_89\n      jump\t// in\n    tag_120:\n        /* \"#utility.yul\":3700:3702   */\n      0x14\n        /* \"#utility.yul\":3695:3698   */\n      dup3\n        /* \"#utility.yul\":3691:3703   */\n      add\n        /* \"#utility.yul\":3684:3703   */\n      swap2\n      pop\n        /* \"#utility.yul\":3713:3788   */\n      tag_121\n        /* \"#utility.yul\":3784:3787   */\n      dup3\n        /* \"#utility.yul\":3775:3781   */\n      dup6\n        /* \"#utility.yul\":3713:3788   */\n      tag_114\n      jump\t// in\n    tag_121:\n        /* \"#utility.yul\":3813:3815   */\n      0x20\n        /* \"#utility.yul\":3808:3811   */\n      dup3\n        /* \"#utility.yul\":3804:3816   */\n      add\n        /* \"#utility.yul\":3797:3816   */\n      swap2\n      pop\n        /* \"#utility.yul\":3833:3928   */\n      tag_122\n        /* \"#utility.yul\":3924:3927   */\n      dup3\n        /* \"#utility.yul\":3915:3921   */\n      dup5\n        /* \"#utility.yul\":3833:3928   */\n      tag_104\n      jump\t// in\n    tag_122:\n        /* \"#utility.yul\":3826:3928   */\n      swap2\n      pop\n        /* \"#utility.yul\":3945:3948   */\n      dup2\n        /* \"#utility.yul\":3938:3948   */\n      swap1\n      pop\n        /* \"#utility.yul\":3397:3954   */\n      swap5\n      swap4\n      pop\n      pop\n      pop\n      pop\n      jump\t// out\n        /* \"#utility.yul\":3960:4182   */\n    tag_10:\n        /* \"#utility.yul\":4053:4057   */\n      0x00\n        /* \"#utility.yul\":4091:4093   */\n      0x20\n        /* \"#utility.yul\":4080:4089   */\n      dup3\n        /* \"#utility.yul\":4076:4094   */\n      add\n        /* \"#utility.yul\":4068:4094   */\n      swap1\n      pop\n        /* \"#utility.yul\":4104:4175   */\n      tag_124\n        /* \"#utility.yul\":4172:4173   */\n      0x00\n        /* \"#utility.yul\":4161:4170   */\n      dup4\n        /* \"#utility.yul\":4157:4174   */\n      add\n        /* \"#utility.yul\":4148:4154   */\n      dup5\n        /* \"#utility.yul\":4104:4175   */\n      tag_110\n      jump\t// in\n    tag_124:\n        /* \"#utility.yul\":3960:4182   */\n      swap3\n      swap2\n      pop\n      pop\n      jump\t// out\n        /* \"#utility.yul\":4188:4832   */\n    tag_27:\n        /* \"#utility.yul\":4385:4389   */\n      0x00\n        /* \"#utility.yul\":4423:4426   */\n      0x80\n        /* \"#utility.yul\":4412:4421   */\n      dup3\n        /* \"#utility.yul\":4408:4427   */\n      add\n        /* \"#utility.yul\":4400:4427   */\n      swap1\n      pop\n        /* \"#utility.yul\":4437:4508   */\n      tag_126\n        /* \"#utility.yul\":4505:4506   */\n      0x00\n        /* \"#utility.yul\":4494:4503   */\n      dup4\n        /* \"#utility.yul\":4490:4507   */\n      add\n        /* \"#utility.yul\":4481:4487   */\n      dup8\n        /* \"#utility.yul\":4437:4508   */\n      tag_110\n      jump\t// in\n    tag_126:\n        /* \"#utility.yul\":4518:4590   */\n      tag_127\n        /* \"#utility.yul\":4586:4588   */\n      0x20\n        /* \"#utility.yul\":4575:4584   */\n      dup4\n        /* \"#utility.yul\":4571:4589   */\n      add\n        /* \"#utility.yul\":4562:4568   */\n      dup7\n        /* \"#utility.yul\":4518:4590   */\n      tag_85\n      jump\t// in\n    tag_127:\n        /* \"#utility.yul\":4600:4672   */\n      tag_128\n        /* \"#utility.yul\":4668:4670   */\n      0x40\n        /* \"#utility.yul\":4657:4666   */\n      dup4\n        /* \"#utility.yul\":4653:4671   */\n      add\n        /* \"#utility.yul\":4644:4650   */\n      dup6\n        /* \"#utility.yul\":4600:4672   */\n      tag_110\n      jump\t// in\n    tag_128:\n        /* \"#utility.yul\":4719:4728   */\n      dup2\n        /* \"#utility.yul\":4713:4717   */\n      dup2\n        /* \"#utility.yul\":4709:4729   */\n      sub\n        /* \"#utility.yul\":4704:4706   */\n      0x60\n        /* \"#utility.yul\":4693:4702   */\n      dup4\n        /* \"#utility.yul\":4689:4707   */\n      add\n        /* \"#utility.yul\":4682:4730   */\n      mstore\n        /* \"#utility.yul\":4747:4825   */\n      tag_129\n        /* \"#utility.yul\":4820:4824   */\n      dup2\n        /* \"#utility.yul\":4811:4817   */\n      dup5\n        /* \"#utility.yul\":4747:4825   */\n      tag_94\n      jump\t// in\n    tag_129:\n        /* \"#utility.yul\":4739:4825   */\n      swap1\n      pop\n        /* \"#utility.yul\":4188:4832   */\n      swap6\n      swap5\n      pop\n      pop\n      pop\n      pop\n      pop\n      jump\t// out\n        /* \"#utility.yul\":4838:5593   */\n    tag_16:\n        /* \"#utility.yul\":5063:5067   */\n      0x00\n        /* \"#utility.yul\":5101:5104   */\n      0xa0\n        /* \"#utility.yul\":5090:5099   */\n      dup3\n        /* \"#utility.yul\":5086:5105   */\n      add\n        /* \"#utility.yul\":5078:5105   */\n      swap1\n      pop\n        /* \"#utility.yul\":5115:5186   */\n      tag_131\n        /* \"#utility.yul\":5183:5184   */\n      0x00\n        /* \"#utility.yul\":5172:5181   */\n      dup4\n        /* \"#utility.yul\":5168:5185   */\n      add\n        /* \"#utility.yul\":5159:5165   */\n      dup9\n        /* \"#utility.yul\":5115:5186   */\n      tag_110\n      jump\t// in\n    tag_131:\n        /* \"#utility.yul\":5196:5268   */\n      tag_132\n        /* \"#utility.yul\":5264:5266   */\n      0x20\n        /* \"#utility.yul\":5253:5262   */\n      dup4\n        /* \"#utility.yul\":5249:5267   */\n      add\n        /* \"#utility.yul\":5240:5246   */\n      dup8\n        /* \"#utility.yul\":5196:5268   */\n      tag_110\n      jump\t// in\n    tag_132:\n        /* \"#utility.yul\":5278:5350   */\n      tag_133\n        /* \"#utility.yul\":5346:5348   */\n      0x40\n        /* \"#utility.yul\":5335:5344   */\n      dup4\n        /* \"#utility.yul\":5331:5349   */\n      add\n        /* \"#utility.yul\":5322:5328   */\n      dup7\n        /* \"#utility.yul\":5278:5350   */\n      tag_110\n      jump\t// in\n    tag_133:\n        /* \"#utility.yul\":5360:5432   */\n      tag_134\n        /* \"#utility.yul\":5428:5430   */\n      0x60\n        /* \"#utility.yul\":5417:5426   */\n      dup4\n        /* \"#utility.yul\":5413:5431   */\n      add\n        /* \"#utility.yul\":5404:5410   */\n      dup6\n        /* \"#utility.yul\":5360:5432   */\n      tag_85\n      jump\t// in\n    tag_134:\n        /* \"#utility.yul\":5480:5489   */\n      dup2\n        /* \"#utility.yul\":5474:5478   */\n      dup2\n        /* \"#utility.yul\":5470:5490   */\n      sub\n        /* \"#utility.yul\":5464:5467   */\n      0x80\n        /* \"#utility.yul\":5453:5462   */\n      dup4\n        /* \"#utility.yul\":5449:5468   */\n      add\n        /* \"#utility.yul\":5442:5491   */\n      mstore\n        /* \"#utility.yul\":5508:5586   */\n      tag_135\n        /* \"#utility.yul\":5581:5585   */\n      dup2\n        /* \"#utility.yul\":5572:5578   */\n      dup5\n        /* \"#utility.yul\":5508:5586   */\n      tag_94\n      jump\t// in\n    tag_135:\n        /* \"#utility.yul\":5500:5586   */\n      swap1\n      pop\n        /* \"#utility.yul\":4838:5593   */\n      swap7\n      swap6\n      pop\n      pop\n      pop\n      pop\n      pop\n      pop\n      jump\t// out\n        /* \"#utility.yul\":5599:5728   */\n    tag_55:\n        /* \"#utility.yul\":5633:5639   */\n      0x00\n        /* \"#utility.yul\":5660:5680   */\n      tag_137\n      tag_138\n      jump\t// in\n    tag_137:\n        /* \"#utility.yul\":5650:5680   */\n      swap1\n      pop\n        /* \"#utility.yul\":5689:5722   */\n      tag_139\n        /* \"#utility.yul\":5717:5721   */\n      dup3\n        /* \"#utility.yul\":5709:5715   */\n      dup3\n        /* \"#utility.yul\":5689:5722   */\n      tag_140\n      jump\t// in\n    tag_139:\n        /* \"#utility.yul\":5599:5728   */\n      swap2\n      swap1\n      pop\n      jump\t// out\n        /* \"#utility.yul\":5734:5809   */\n    tag_138:\n        /* \"#utility.yul\":5767:5773   */\n      0x00\n        /* \"#utility.yul\":5800:5802   */\n      0x40\n        /* \"#utility.yul\":5794:5803   */\n      mload\n        /* \"#utility.yul\":5784:5803   */\n      swap1\n      pop\n        /* \"#utility.yul\":5734:5809   */\n      swap1\n      jump\t// out\n        /* \"#utility.yul\":5815:6123   */\n    tag_54:\n        /* \"#utility.yul\":5877:5881   */\n      0x00\n        /* \"#utility.yul\":5967:5985   */\n      0xffffffffffffffff\n        /* \"#utility.yul\":5959:5965   */\n      dup3\n        /* \"#utility.yul\":5956:5986   */\n      gt\n        /* \"#utility.yul\":5953:6009   */\n      iszero\n      tag_143\n      jumpi\n        /* \"#utility.yul\":5989:6007   */\n      tag_144\n      tag_145\n      jump\t// in\n    tag_144:\n        /* \"#utility.yul\":5953:6009   */\n    tag_143:\n        /* \"#utility.yul\":6027:6056   */\n      tag_146\n        /* \"#utility.yul\":6049:6055   */\n      dup3\n        /* \"#utility.yul\":6027:6056   */\n      tag_103\n      jump\t// in\n    tag_146:\n        /* \"#utility.yul\":6019:6056   */\n      swap1\n      pop\n        /* \"#utility.yul\":6111:6115   */\n      0x20\n        /* \"#utility.yul\":6105:6109   */\n      dup2\n        /* \"#utility.yul\":6101:6116   */\n      add\n        /* \"#utility.yul\":6093:6116   */\n      swap1\n      pop\n        /* \"#utility.yul\":5815:6123   */\n      swap2\n      swap1\n      pop\n      jump\t// out\n        /* \"#utility.yul\":6129:6228   */\n    tag_97:\n        /* \"#utility.yul\":6181:6187   */\n      0x00\n        /* \"#utility.yul\":6215:6220   */\n      dup2\n        /* \"#utility.yul\":6209:6221   */\n      mload\n        /* \"#utility.yul\":6199:6221   */\n      swap1\n      pop\n        /* \"#utility.yul\":6129:6228   */\n      swap2\n      swap1\n      pop\n      jump\t// out\n        /* \"#utility.yul\":6234:6403   */\n    tag_99:\n        /* \"#utility.yul\":6318:6329   */\n      0x00\n        /* \"#utility.yul\":6352:6358   */\n      dup3\n        /* \"#utility.yul\":6347:6350   */\n      dup3\n        /* \"#utility.yul\":6340:6359   */\n      mstore\n        /* \"#utility.yul\":6392:6396   */\n      0x20\n        /* \"#utility.yul\":6387:6390   */\n      dup3\n        /* \"#utility.yul\":6383:6397   */\n      add\n        /* \"#utility.yul\":6368:6397   */\n      swap1\n      pop\n        /* \"#utility.yul\":6234:6403   */\n      swap3\n      swap2\n      pop\n      pop\n      jump\t// out\n        /* \"#utility.yul\":6409:6557   */\n    tag_108:\n        /* \"#utility.yul\":6511:6522   */\n      0x00\n        /* \"#utility.yul\":6548:6551   */\n      dup2\n        /* \"#utility.yul\":6533:6551   */\n      swap1\n      pop\n        /* \"#utility.yul\":6409:6557   */\n      swap3\n      swap2\n      pop\n      pop\n      jump\t// out\n        /* \"#utility.yul\":6563:6911   */\n    tag_19:\n        /* \"#utility.yul\":6603:6610   */\n      0x00\n        /* \"#utility.yul\":6626:6646   */\n      tag_151\n        /* \"#utility.yul\":6644:6645   */\n      dup3\n        /* \"#utility.yul\":6626:6646   */\n      tag_113\n      jump\t// in\n    tag_151:\n        /* \"#utility.yul\":6621:6646   */\n      swap2\n      pop\n        /* \"#utility.yul\":6660:6680   */\n      tag_152\n        /* \"#utility.yul\":6678:6679   */\n      dup4\n        /* \"#utility.yul\":6660:6680   */\n      tag_113\n      jump\t// in\n    tag_152:\n        /* \"#utility.yul\":6655:6680   */\n      swap3\n      pop\n        /* \"#utility.yul\":6848:6849   */\n      dup2\n        /* \"#utility.yul\":6780:6846   */\n      0xffffffffffffffffffffffffffffffffffffffffffffffffffffffffffffffff\n        /* \"#utility.yul\":6776:6850   */\n      div\n        /* \"#utility.yul\":6773:6774   */\n      dup4\n        /* \"#utility.yul\":6770:6851   */\n      gt\n        /* \"#utility.yul\":6765:6766   */\n      dup3\n        /* \"#utility.yul\":6758:6767   */\n      iszero\n        /* \"#utility.yul\":6751:6768   */\n      iszero\n        /* \"#utility.yul\":6747:6852   */\n      and\n        /* \"#utility.yul\":6744:6875   */\n      iszero\n      tag_153\n      jumpi\n        /* \"#utility.yul\":6855:6873   */\n      tag_154\n      tag_155\n      jump\t// in\n    tag_154:\n        /* \"#utility.yul\":6744:6875   */\n    tag_153:\n        /* \"#utility.yul\":6903:6904   */\n      dup3\n        /* \"#utility.yul\":6900:6901   */\n      dup3\n        /* \"#utility.yul\":6896:6905   */\n      mul\n        /* \"#utility.yul\":6885:6905   */\n      swap1\n      pop\n        /* \"#utility.yul\":6563:6911   */\n      swap3\n      swap2\n      pop\n      pop\n      jump\t// out\n        /* \"#utility.yul\":6917:7013   */\n    tag_88:\n        /* \"#utility.yul\":6954:6961   */\n      0x00\n        /* \"#utility.yul\":6983:7007   */\n      tag_157\n        /* \"#utility.yul\":7001:7006   */\n      dup3\n        /* \"#utility.yul\":6983:7007   */\n      tag_158\n      jump\t// in\n    tag_157:\n        /* \"#utility.yul\":6972:7007   */\n      swap1\n      pop\n        /* \"#utility.yul\":6917:7013   */\n      swap2\n      swap1\n      pop\n      jump\t// out\n        /* \"#utility.yul\":7019:7145   */\n    tag_158:\n        /* \"#utility.yul\":7056:7063   */\n      0x00\n        /* \"#utility.yul\":7096:7138   */\n      0xffffffffffffffffffffffffffffffffffffffff\n        /* \"#utility.yul\":7089:7094   */\n      dup3\n        /* \"#utility.yul\":7085:7139   */\n      and\n        /* \"#utility.yul\":7074:7139   */\n      swap1\n      pop\n        /* \"#utility.yul\":7019:7145   */\n      swap2\n      swap1\n      pop\n      jump\t// out\n        /* \"#utility.yul\":7151:7228   */\n    tag_113:\n        /* \"#utility.yul\":7188:7195   */\n      0x00\n        /* \"#utility.yul\":7217:7222   */\n      dup2\n        /* \"#utility.yul\":7206:7222   */\n      swap1\n      pop\n        /* \"#utility.yul\":7151:7228   */\n      swap2\n      swap1\n      pop\n      jump\t// out\n        /* \"#utility.yul\":7234:7388   */\n    tag_60:\n        /* \"#utility.yul\":7318:7324   */\n      dup3\n        /* \"#utility.yul\":7313:7316   */\n      dup2\n        /* \"#utility.yul\":7308:7311   */\n      dup4\n        /* \"#utility.yul\":7295:7325   */\n      calldatacopy\n        /* \"#utility.yul\":7380:7381   */\n      0x00\n        /* \"#utility.yul\":7371:7377   */\n      dup4\n        /* \"#utility.yul\":7366:7369   */\n      dup4\n        /* \"#utility.yul\":7362:7378   */\n      add\n        /* \"#utility.yul\":7355:7382   */\n      mstore\n        /* \"#utility.yul\":7234:7388   */\n      pop\n      pop\n      pop\n      jump\t// out\n        /* \"#utility.yul\":7394:7701   */\n    tag_101:\n        /* \"#utility.yul\":7462:7463   */\n      0x00\n        /* \"#utility.yul\":7472:7585   */\n    tag_163:\n        /* \"#utility.yul\":7486:7492   */\n      dup4\n        /* \"#utility.yul\":7483:7484   */\n      dup2\n        /* \"#utility.yul\":7480:7493   */\n      lt\n        /* \"#utility.yul\":7472:7585   */\n      iszero\n      tag_165\n      jumpi\n        /* \"#utility.yul\":7571:7572   */\n      dup1\n        /* \"#utility.yul\":7566:7569   */\n      dup3\n        /* \"#utility.yul\":7562:7573   */\n      add\n        /* \"#utility.yul\":7556:7574   */\n      mload\n        /* \"#utility.yul\":7552:7553   */\n      dup2\n        /* \"#utility.yul\":7547:7550   */\n      dup5\n        /* \"#utility.yul\":7543:7554   */\n      add\n        /* \"#utility.yul\":7536:7575   */\n      mstore\n        /* \"#utility.yul\":7508:7510   */\n      0x20\n        /* \"#utility.yul\":7505:7506   */\n      dup2\n        /* \"#utility.yul\":7501:7511   */\n      add\n        /* \"#utility.yul\":7496:7511   */\n      swap1\n      pop\n        /* \"#utility.yul\":7472:7585   */\n      jump(tag_163)\n    tag_165:\n        /* \"#utility.yul\":7603:7609   */\n      dup4\n        /* \"#utility.yul\":7600:7601   */\n      dup2\n        /* \"#utility.yul\":7597:7610   */\n      gt\n        /* \"#utility.yul\":7594:7695   */\n      iszero\n      tag_166\n      jumpi\n        /* \"#utility.yul\":7683:7684   */\n      0x00\n        /* \"#utility.yul\":7674:7680   */\n      dup5\n        /* \"#utility.yul\":7669:7672   */\n      dup5\n        /* \"#utility.yul\":7665:7681   */\n      add\n        /* \"#utility.yul\":7658:7685   */\n      mstore\n        /* \"#utility.yul\":7594:7695   */\n    tag_166:\n        /* \"#utility.yul\":7443:7701   */\n      pop\n        /* \"#utility.yul\":7394:7701   */\n      pop\n      pop\n      pop\n      jump\t// out\n        /* \"#utility.yul\":7707:8027   */\n    tag_29:\n        /* \"#utility.yul\":7751:7757   */\n      0x00\n        /* \"#utility.yul\":7788:7789   */\n      0x02\n        /* \"#utility.yul\":7782:7786   */\n      dup3\n        /* \"#utility.yul\":7778:7790   */\n      div\n        /* \"#utility.yul\":7768:7790   */\n      swap1\n      pop\n        /* \"#utility.yul\":7835:7836   */\n      0x01\n        /* \"#utility.yul\":7829:7833   */\n      dup3\n        /* \"#utility.yul\":7825:7837   */\n      and\n        /* \"#utility.yul\":7856:7874   */\n      dup1\n        /* \"#utility.yul\":7846:7927   */\n      tag_168\n      jumpi\n        /* \"#utility.yul\":7912:7916   */\n      0x7f\n        /* \"#utility.yul\":7904:7910   */\n      dup3\n        /* \"#utility.yul\":7900:7917   */\n      and\n        /* \"#utility.yul\":7890:7917   */\n      swap2\n      pop\n        /* \"#utility.yul\":7846:7927   */\n    tag_168:\n        /* \"#utility.yul\":7974:7976   */\n      0x20\n        /* \"#utility.yul\":7966:7972   */\n      dup3\n        /* \"#utility.yul\":7963:7977   */\n      lt\n        /* \"#utility.yul\":7943:7961   */\n      dup2\n        /* \"#utility.yul\":7940:7978   */\n      eq\n        /* \"#utility.yul\":7937:8021   */\n      iszero\n      tag_169\n      jumpi\n        /* \"#utility.yul\":7993:8011   */\n      tag_170\n      tag_171\n      jump\t// in\n    tag_170:\n        /* \"#utility.yul\":7937:8021   */\n    tag_169:\n        /* \"#utility.yul\":7758:8027   */\n      pop\n        /* \"#utility.yul\":7707:8027   */\n      swap2\n      swap1\n      pop\n      jump\t// out\n        /* \"#utility.yul\":8033:8314   */\n    tag_140:\n        /* \"#utility.yul\":8116:8143   */\n      tag_173\n        /* \"#utility.yul\":8138:8142   */\n      dup3\n        /* \"#utility.yul\":8116:8143   */\n      tag_103\n      jump\t// in\n    tag_173:\n        /* \"#utility.yul\":8108:8114   */\n      dup2\n        /* \"#utility.yul\":8104:8144   */\n      add\n        /* \"#utility.yul\":8246:8252   */\n      dup2\n        /* \"#utility.yul\":8234:8244   */\n      dup2\n        /* \"#utility.yul\":8231:8253   */\n      lt\n        /* \"#utility.yul\":8210:8228   */\n      0xffffffffffffffff\n        /* \"#utility.yul\":8198:8208   */\n      dup3\n        /* \"#utility.yul\":8195:8229   */\n      gt\n        /* \"#utility.yul\":8192:8254   */\n      or\n        /* \"#utility.yul\":8189:8277   */\n      iszero\n      tag_174\n      jumpi\n        /* \"#utility.yul\":8257:8275   */\n      tag_175\n      tag_145\n      jump\t// in\n    tag_175:\n        /* \"#utility.yul\":8189:8277   */\n    tag_174:\n        /* \"#utility.yul\":8297:8307   */\n      dup1\n        /* \"#utility.yul\":8293:8295   */\n      0x40\n        /* \"#utility.yul\":8286:8308   */\n      mstore\n        /* \"#utility.yul\":8076:8314   */\n      pop\n        /* \"#utility.yul\":8033:8314   */\n      pop\n      pop\n      jump\t// out\n        /* \"#utility.yul\":8320:8420   */\n    tag_93:\n        /* \"#utility.yul\":8359:8366   */\n      0x00\n        /* \"#utility.yul\":8388:8414   */\n      tag_177\n        /* \"#utility.yul\":8408:8413   */\n      dup3\n        /* \"#utility.yul\":8388:8414   */\n      tag_178\n      jump\t// in\n    tag_177:\n        /* \"#utility.yul\":8377:8414   */\n      swap1\n      pop\n        /* \"#utility.yul\":8320:8420   */\n      swap2\n      swap1\n      pop\n      jump\t// out\n        /* \"#utility.yul\":8426:8520   */\n    tag_178:\n        /* \"#utility.yul\":8465:8472   */\n      0x00\n        /* \"#utility.yul\":8494:8514   */\n      tag_180\n        /* \"#utility.yul\":8508:8513   */\n      dup3\n        /* \"#utility.yul\":8494:8514   */\n      tag_181\n      jump\t// in\n    tag_180:\n        /* \"#utility.yul\":8483:8514   */\n      swap1\n      pop\n        /* \"#utility.yul\":8426:8520   */\n      swap2\n      swap1\n      pop\n      jump\t// out\n        /* \"#utility.yul\":8526:8605   */\n    tag_118:\n        /* \"#utility.yul\":8565:8572   */\n      0x00\n        /* \"#utility.yul\":8594:8599   */\n      dup2\n        /* \"#utility.yul\":8583:8599   */\n      swap1\n      pop\n        /* \"#utility.yul\":8526:8605   */\n      swap2\n      swap1\n      pop\n      jump\t// out\n        /* \"#utility.yul\":8611:8787   */\n    tag_38:\n        /* \"#utility.yul\":8643:8644   */\n      0x00\n        /* \"#utility.yul\":8660:8680   */\n      tag_184\n        /* \"#utility.yul\":8678:8679   */\n      dup3\n        /* \"#utility.yul\":8660:8680   */\n      tag_113\n      jump\t// in\n    tag_184:\n        /* \"#utility.yul\":8655:8680   */\n      swap2\n      pop\n        /* \"#utility.yul\":8694:8714   */\n      tag_185\n        /* \"#utility.yul\":8712:8713   */\n      dup4\n        /* \"#utility.yul\":8694:8714   */\n      tag_113\n      jump\t// in\n    tag_185:\n        /* \"#utility.yul\":8689:8714   */\n      swap3\n      pop\n        /* \"#utility.yul\":8733:8734   */\n      dup3\n        /* \"#utility.yul\":8723:8758   */\n      tag_186\n      jumpi\n        /* \"#utility.yul\":8738:8756   */\n      tag_187\n      tag_188\n      jump\t// in\n    tag_187:\n        /* \"#utility.yul\":8723:8758   */\n    tag_186:\n        /* \"#utility.yul\":8779:8780   */\n      dup3\n        /* \"#utility.yul\":8776:8777   */\n      dup3\n        /* \"#utility.yul\":8772:8781   */\n      mod\n        /* \"#utility.yul\":8767:8781   */\n      swap1\n      pop\n        /* \"#utility.yul\":8611:8787   */\n      swap3\n      swap2\n      pop\n      pop\n      jump\t// out\n        /* \"#utility.yul\":8793:8973   */\n    tag_155:\n        /* \"#utility.yul\":8841:8918   */\n      0x4e487b7100000000000000000000000000000000000000000000000000000000\n        /* \"#utility.yul\":8838:8839   */\n      0x00\n        /* \"#utility.yul\":8831:8919   */\n      mstore\n        /* \"#utility.yul\":8938:8942   */\n      0x11\n        /* \"#utility.yul\":8935:8936   */\n      0x04\n        /* \"#utility.yul\":8928:8943   */\n      mstore\n        /* \"#utility.yul\":8962:8966   */\n      0x24\n        /* \"#utility.yul\":8959:8960   */\n      0x00\n        /* \"#utility.yul\":8952:8967   */\n      revert\n        /* \"#utility.yul\":8979:9159   */\n    tag_188:\n        /* \"#utility.yul\":9027:9104   */\n      0x4e487b7100000000000000000000000000000000000000000000000000000000\n        /* \"#utility.yul\":9024:9025   */\n      0x00\n        /* \"#utility.yul\":9017:9105   */\n      mstore\n        /* \"#utility.yul\":9124:9128   */\n      0x12\n        /* \"#utility.yul\":9121:9122   */\n      0x04\n        /* \"#utility.yul\":9114:9129   */\n      mstore\n        /* \"#utility.yul\":9148:9152   */\n      0x24\n        /* \"#utility.yul\":9145:9146   */\n      0x00\n        /* \"#utility.yul\":9138:9153   */\n      revert\n        /* \"#utility.yul\":9165:9345   */\n    tag_171:\n        /* \"#utility.yul\":9213:9290   */\n      0x4e487b7100000000000000000000000000000000000000000000000000000000\n        /* \"#utility.yul\":9210:9211   */\n      0x00\n        /* \"#utility.yul\":9203:9291   */\n      mstore\n        /* \"#utility.yul\":9310:9314   */\n      0x22\n        /* \"#utility.yul\":9307:9308   */\n      0x04\n        /* \"#utility.yul\":9300:9315   */\n      mstore\n        /* \"#utility.yul\":9334:9338   */\n      0x24\n        /* \"#utility.yul\":9331:9332   */\n      0x00\n        /* \"#utility.yul\":9324:9339   */\n      revert\n        /* \"#utility.yul\":9351:9531   */\n    tag_145:\n        /* \"#utility.yul\":9399:9476   */\n      0x4e487b7100000000000000000000000000000000000000000000000000000000\n        /* \"#utility.yul\":9396:9397   */\n      0x00\n        /* \"#utility.yul\":9389:9477   */\n      mstore\n        /* \"#utility.yul\":9496:9500   */\n      0x41\n        /* \"#utility.yul\":9493:9494   */\n      0x04\n        /* \"#utility.yul\":9486:9501   */\n      mstore\n        /* \"#utility.yul\":9520:9524   */\n      0x24\n        /* \"#utility.yul\":9517:9518   */\n      0x00\n        /* \"#utility.yul\":9510:9525   */\n      revert\n        /* \"#utility.yul\":9537:9654   */\n    tag_65:\n        /* \"#utility.yul\":9646:9647   */\n      0x00\n        /* \"#utility.yul\":9643:9644   */\n      dup1\n        /* \"#utility.yul\":9636:9648   */\n      revert\n        /* \"#utility.yul\":9660:9777   */\n    tag_58:\n        /* \"#utility.yul\":9769:9770   */\n      0x00\n        /* \"#utility.yul\":9766:9767   */\n      dup1\n        /* \"#utility.yul\":9759:9771   */\n      revert\n        /* \"#utility.yul\":9783:9900   */\n    tag_83:\n        /* \"#utility.yul\":9892:9893   */\n      0x00\n        /* \"#utility.yul\":9889:9890   */\n      dup1\n        /* \"#utility.yul\":9882:9894   */\n      revert\n        /* \"#utility.yul\":9906:10023   */\n    tag_74:\n        /* \"#utility.yul\":10015:10016   */\n      0x00\n        /* \"#utility.yul\":10012:10013   */\n      dup1\n        /* \"#utility.yul\":10005:10017   */\n      revert\n        /* \"#utility.yul\":10029:10131   */\n    tag_103:\n        /* \"#utility.yul\":10070:10076   */\n      0x00\n        /* \"#utility.yul\":10121:10123   */\n      0x1f\n        /* \"#utility.yul\":10117:10124   */\n      not\n        /* \"#utility.yul\":10112:10114   */\n      0x1f\n        /* \"#utility.yul\":10105:10110   */\n      dup4\n        /* \"#utility.yul\":10101:10115   */\n      add\n        /* \"#utility.yul\":10097:10125   */\n      and\n        /* \"#utility.yul\":10087:10125   */\n      swap1\n      pop\n        /* \"#utility.yul\":10029:10131   */\n      swap2\n      swap1\n      pop\n      jump\t// out\n        /* \"#utility.yul\":10137:10231   */\n    tag_181:\n        /* \"#utility.yul\":10170:10178   */\n      0x00\n        /* \"#utility.yul\":10218:10223   */\n      dup2\n        /* \"#utility.yul\":10214:10216   */\n      0x60\n        /* \"#utility.yul\":10210:10224   */\n      shl\n        /* \"#utility.yul\":10189:10224   */\n      swap1\n      pop\n        /* \"#utility.yul\":10137:10231   */\n      swap2\n      swap1\n      pop\n      jump\t// out\n        /* \"#utility.yul\":10237:10359   */\n    tag_70:\n        /* \"#utility.yul\":10310:10334   */\n      tag_200\n        /* \"#utility.yul\":10328:10333   */\n      dup2\n        /* \"#utility.yul\":10310:10334   */\n      tag_113\n      jump\t// in\n    tag_200:\n        /* \"#utility.yul\":10303:10308   */\n      dup2\n        /* \"#utility.yul\":10300:10335   */\n      eq\n        /* \"#utility.yul\":10290:10353   */\n      tag_201\n      jumpi\n        /* \"#utility.yul\":10349:10350   */\n      0x00\n        /* \"#utility.yul\":10346:10347   */\n      dup1\n        /* \"#utility.yul\":10339:10351   */\n      revert\n        /* \"#utility.yul\":10290:10353   */\n    tag_201:\n        /* \"#utility.yul\":10237:10359   */\n      pop\n      jump\t// out\n\n    auxdata: 0xa264697066735822122098f6ec47e7f7d4141bf73801719c3ae3e7502724907a04241f910f60d956ee8564736f6c63430008070033\n}\n",
				"bytecode": {
					"linkReferences": {},
					"object": "60806040526005600055600054600a6200001a91906200008c565b6001553480156200002a57600080fd5b506200020f565b6000808291508390505b600185111562000083578086048111156200005b576200005a620001d3565b5b60018516156200006b5780820291505b80810290506200007b8562000202565b94506200003b565b94509492505050565b60006200009982620001c9565b9150620000a683620001c9565b9250620000d57fffffffffffffffffffffffffffffffffffffffffffffffffffffffffffffffff8484620000dd565b905092915050565b600082620000ef5760019050620001c2565b81620000ff5760009050620001c2565b8160018114620001185760028114620001235762000159565b6001915050620001c2565b60ff841115620001385762000137620001d3565b5b8360020a915084821115620001525762000151620001d3565b5b50620001c2565b5060208310610133831016604e8410600b8410161715620001935782820a9050838111156200018d576200018c620001d3565b5b620001c2565b620001a2848484600162000031565b92509050818404811115620001bc57620001bb620001d3565b5b81810290505b9392505050565b6000819050919050565b7f4e487b7100000000000000000000000000000000000000000000000000000000600052601160045260246000fd5b60008160011c9050919050565b6109fc806200021f6000396000f3fe608060405234801561001057600080fd5b50600436106100365760003560e01c8063a66e752d1461003b578063aeda852f1461006b575b600080fd5b6100556004803603810190610050919061048b565b61009f565b60405161006291906105e9565b60405180910390f35b6100856004803603810190610080919061045e565b61020d565b604051610096959493929190610650565b60405180910390f35b60008083856100ae9190610727565b116100b857600080fd5b600033905060006100ca8286866102eb565b905060026000828152602001908152602001600020600001548114156100ef57600080fd5b6040518060a001604052808281526020018781526020018681526020018373ffffffffffffffffffffffffffffffffffffffff168152602001858152506002600083815260200190815260200160002060008201518160000155602082015181600101556040820151816002015560608201518160030160006101000a81548173ffffffffffffffffffffffffffffffffffffffff021916908373ffffffffffffffffffffffffffffffffffffffff16021790555060808201518160040190805190602001906101c0929190610336565b509050507f8f5afd88eb4be0ac287d87970052ce9a2b453448408e3c91a695ad7509ab7194818388876040516101f99493929190610604565b60405180910390a180925050509392505050565b60026020528060005260406000206000915090508060000154908060010154908060020154908060030160009054906101000a900473ffffffffffffffffffffffffffffffffffffffff1690806004018054610268906107ff565b80601f0160208091040260200160405190810160405280929190818152602001828054610294906107ff565b80156102e15780601f106102b6576101008083540402835291602001916102e1565b820191906000526020600020905b8154815290600101906020018083116102c457829003601f168201915b5050505050905085565b600080848484604051602001610303939291906105b0565b6040516020818303038152906040528051906020012060001c90506001548161032c9190610890565b9150509392505050565b828054610342906107ff565b90600052602060002090601f01602090048101928261036457600085556103ab565b82601f1061037d57805160ff19168380011785556103ab565b828001600101855582156103ab579182015b828111156103aa57825182559160200191906001019061038f565b5b5090506103b891906103bc565b5090565b5b808211156103d55760008160009055506001016103bd565b5090565b60006103ec6103e7846106cf565b6106aa565b90508281526020810184848401111561040857610407610982565b5b6104138482856107bd565b509392505050565b600082601f8301126104305761042f61097d565b5b81356104408482602086016103d9565b91505092915050565b600081359050610458816109af565b92915050565b6000602082840312156104745761047361098c565b5b600061048284828501610449565b91505092915050565b6000806000606084860312156104a4576104a361098c565b5b60006104b286828701610449565b93505060206104c386828701610449565b925050604084013567ffffffffffffffff8111156104e4576104e3610987565b5b6104f08682870161041b565b9150509250925092565b61050381610781565b82525050565b61051a61051582610781565b610862565b82525050565b600061052b82610700565b610535818561070b565b93506105458185602086016107cc565b61054e81610991565b840191505092915050565b600061056482610700565b61056e818561071c565b935061057e8185602086016107cc565b80840191505092915050565b610593816107b3565b82525050565b6105aa6105a5826107b3565b610886565b82525050565b60006105bc8286610509565b6014820191506105cc8285610599565b6020820191506105dc8284610559565b9150819050949350505050565b60006020820190506105fe600083018461058a565b92915050565b6000608082019050610619600083018761058a565b61062660208301866104fa565b610633604083018561058a565b81810360608301526106458184610520565b905095945050505050565b600060a082019050610665600083018861058a565b610672602083018761058a565b61067f604083018661058a565b61068c60608301856104fa565b818103608083015261069e8184610520565b90509695505050505050565b60006106b46106c5565b90506106c08282610831565b919050565b6000604051905090565b600067ffffffffffffffff8211156106ea576106e961094e565b5b6106f382610991565b9050602081019050919050565b600081519050919050565b600082825260208201905092915050565b600081905092915050565b6000610732826107b3565b915061073d836107b3565b9250817fffffffffffffffffffffffffffffffffffffffffffffffffffffffffffffffff0483118215151615610776576107756108c1565b5b828202905092915050565b600061078c82610793565b9050919050565b600073ffffffffffffffffffffffffffffffffffffffff82169050919050565b6000819050919050565b82818337600083830152505050565b60005b838110156107ea5780820151818401526020810190506107cf565b838111156107f9576000848401525b50505050565b6000600282049050600182168061081757607f821691505b6020821081141561082b5761082a61091f565b5b50919050565b61083a82610991565b810181811067ffffffffffffffff821117156108595761085861094e565b5b80604052505050565b600061086d82610874565b9050919050565b600061087f826109a2565b9050919050565b6000819050919050565b600061089b826107b3565b91506108a6836107b3565b9250826108b6576108b56108f0565b5b828206905092915050565b7f4e487b7100000000000000000000000000000000000000000000000000000000600052601160045260246000fd5b7f4e487b7100000000000000000000000000000000000000000000000000000000600052601260045260246000fd5b7f4e487b7100000000000000000000000000000000000000000000000000000000600052602260045260246000fd5b7f4e487b7100000000000000000000000000000000000000000000000000000000600052604160045260246000fd5b600080fd5b600080fd5b600080fd5b600080fd5b6000601f19601f8301169050919050565b60008160601b9050919050565b6109b8816107b3565b81146109c357600080fd5b5056fea264697066735822122098f6ec47e7f7d4141bf73801719c3ae3e7502724907a04241f910f60d956ee8564736f6c63430008070033",
					"opcodes": "PUSH1 0x80 PUSH1 0x40 MSTORE PUSH1 0x5 PUSH1 0x0 SSTORE PUSH1 0x0 SLOAD PUSH1 0xA PUSH3 0x1A SWAP2 SWAP1 PUSH3 0x8C JUMP JUMPDEST PUSH1 0x1 SSTORE CALLVALUE DUP1 ISZERO PUSH3 0x2A JUMPI PUSH1 0x0 DUP1 REVERT JUMPDEST POP PUSH3 0x20F JUMP JUMPDEST PUSH1 0x0 DUP1 DUP3 SWAP2 POP DUP4 SWAP1 POP JUMPDEST PUSH1 0x1 DUP6 GT ISZERO PUSH3 0x83 JUMPI DUP1 DUP7 DIV DUP2 GT ISZERO PUSH3 0x5B JUMPI PUSH3 0x5A PUSH3 0x1D3 JUMP JUMPDEST JUMPDEST PUSH1 0x1 DUP6 AND ISZERO PUSH3 0x6B JUMPI DUP1 DUP3 MUL SWAP2 POP JUMPDEST DUP1 DUP2 MUL SWAP1 POP PUSH3 0x7B DUP6 PUSH3 0x202 JUMP JUMPDEST SWAP5 POP PUSH3 0x3B JUMP JUMPDEST SWAP5 POP SWAP5 SWAP3 POP POP POP JUMP JUMPDEST PUSH1 0x0 PUSH3 0x99 DUP3 PUSH3 0x1C9 JUMP JUMPDEST SWAP2 POP PUSH3 0xA6 DUP4 PUSH3 0x1C9 JUMP JUMPDEST SWAP3 POP PUSH3 0xD5 PUSH32 0xFFFFFFFFFFFFFFFFFFFFFFFFFFFFFFFFFFFFFFFFFFFFFFFFFFFFFFFFFFFFFFFF DUP5 DUP5 PUSH3 0xDD JUMP JUMPDEST SWAP1 POP SWAP3 SWAP2 POP POP JUMP JUMPDEST PUSH1 0x0 DUP3 PUSH3 0xEF JUMPI PUSH1 0x1 SWAP1 POP PUSH3 0x1C2 JUMP JUMPDEST DUP2 PUSH3 0xFF JUMPI PUSH1 0x0 SWAP1 POP PUSH3 0x1C2 JUMP JUMPDEST DUP2 PUSH1 0x1 DUP2 EQ PUSH3 0x118 JUMPI PUSH1 0x2 DUP2 EQ PUSH3 0x123 JUMPI PUSH3 0x159 JUMP JUMPDEST PUSH1 0x1 SWAP2 POP POP PUSH3 0x1C2 JUMP JUMPDEST PUSH1 0xFF DUP5 GT ISZERO PUSH3 0x138 JUMPI PUSH3 0x137 PUSH3 0x1D3 JUMP JUMPDEST JUMPDEST DUP4 PUSH1 0x2 EXP SWAP2 POP DUP5 DUP3 GT ISZERO PUSH3 0x152 JUMPI PUSH3 0x151 PUSH3 0x1D3 JUMP JUMPDEST JUMPDEST POP PUSH3 0x1C2 JUMP JUMPDEST POP PUSH1 0x20 DUP4 LT PUSH2 0x133 DUP4 LT AND PUSH1 0x4E DUP5 LT PUSH1 0xB DUP5 LT AND OR ISZERO PUSH3 0x193 JUMPI DUP3 DUP3 EXP SWAP1 POP DUP4 DUP2 GT ISZERO PUSH3 0x18D JUMPI PUSH3 0x18C PUSH3 0x1D3 JUMP JUMPDEST JUMPDEST PUSH3 0x1C2 JUMP JUMPDEST PUSH3 0x1A2 DUP5 DUP5 DUP5 PUSH1 0x1 PUSH3 0x31 JUMP JUMPDEST SWAP3 POP SWAP1 POP DUP2 DUP5 DIV DUP2 GT ISZERO PUSH3 0x1BC JUMPI PUSH3 0x1BB PUSH3 0x1D3 JUMP JUMPDEST JUMPDEST DUP2 DUP2 MUL SWAP1 POP JUMPDEST SWAP4 SWAP3 POP POP POP JUMP JUMPDEST PUSH1 0x0 DUP2 SWAP1 POP SWAP2 SWAP1 POP JUMP JUMPDEST PUSH32 0x4E487B7100000000000000000000000000000000000000000000000000000000 PUSH1 0x0 MSTORE PUSH1 0x11 PUSH1 0x4 MSTORE PUSH1 0x24 PUSH1 0x0 REVERT JUMPDEST PUSH1 0x0 DUP2 PUSH1 0x1 SHR SWAP1 POP SWAP2 SWAP1 POP JUMP JUMPDEST PUSH2 0x9FC DUP1 PUSH3 0x21F PUSH1 0x0 CODECOPY PUSH1 0x0 RETURN INVALID PUSH1 0x80 PUSH1 0x40 MSTORE CALLVALUE DUP1 ISZERO PUSH2 0x10 JUMPI PUSH1 0x0 DUP1 REVERT JUMPDEST POP PUSH1 0x4 CALLDATASIZE LT PUSH2 0x36 JUMPI PUSH1 0x0 CALLDATALOAD PUSH1 0xE0 SHR DUP1 PUSH4 0xA66E752D EQ PUSH2 0x3B JUMPI DUP1 PUSH4 0xAEDA852F EQ PUSH2 0x6B JUMPI JUMPDEST PUSH1 0x0 DUP1 REVERT JUMPDEST PUSH2 0x55 PUSH1 0x4 DUP1 CALLDATASIZE SUB DUP2 ADD SWAP1 PUSH2 0x50 SWAP2 SWAP1 PUSH2 0x48B JUMP JUMPDEST PUSH2 0x9F JUMP JUMPDEST PUSH1 0x40 MLOAD PUSH2 0x62 SWAP2 SWAP1 PUSH2 0x5E9 JUMP JUMPDEST PUSH1 0x40 MLOAD DUP1 SWAP2 SUB SWAP1 RETURN JUMPDEST PUSH2 0x85 PUSH1 0x4 DUP1 CALLDATASIZE SUB DUP2 ADD SWAP1 PUSH2 0x80 SWAP2 SWAP1 PUSH2 0x45E JUMP JUMPDEST PUSH2 0x20D JUMP JUMPDEST PUSH1 0x40 MLOAD PUSH2 0x96 SWAP6 SWAP5 SWAP4 SWAP3 SWAP2 SWAP1 PUSH2 0x650 JUMP JUMPDEST PUSH1 0x40 MLOAD DUP1 SWAP2 SUB SWAP1 RETURN JUMPDEST PUSH1 0x0 DUP1 DUP4 DUP6 PUSH2 0xAE SWAP2 SWAP1 PUSH2 0x727 JUMP JUMPDEST GT PUSH2 0xB8 JUMPI PUSH1 0x0 DUP1 REVERT JUMPDEST PUSH1 0x0 CALLER SWAP1 POP PUSH1 0x0 PUSH2 0xCA DUP3 DUP7 DUP7 PUSH2 0x2EB JUMP JUMPDEST SWAP1 POP PUSH1 0x2 PUSH1 0x0 DUP3 DUP2 MSTORE PUSH1 0x20 ADD SWAP1 DUP2 MSTORE PUSH1 0x20 ADD PUSH1 0x0 KECCAK256 PUSH1 0x0 ADD SLOAD DUP2 EQ ISZERO PUSH2 0xEF JUMPI PUSH1 0x0 DUP1 REVERT JUMPDEST PUSH1 0x40 MLOAD DUP1 PUSH1 0xA0 ADD PUSH1 0x40 MSTORE DUP1 DUP3 DUP2 MSTORE PUSH1 0x20 ADD DUP8 DUP2 MSTORE PUSH1 0x20 ADD DUP7 DUP2 MSTORE PUSH1 0x20 ADD DUP4 PUSH20 0xFFFFFFFFFFFFFFFFFFFFFFFFFFFFFFFFFFFFFFFF AND DUP2 MSTORE PUSH1 0x20 ADD DUP6 DUP2 MSTORE POP PUSH1 0x2 PUSH1 0x0 DUP4 DUP2 MSTORE PUSH1 0x20 ADD SWAP1 DUP2 MSTORE PUSH1 0x20 ADD PUSH1 0x0 KECCAK256 PUSH1 0x0 DUP3 ADD MLOAD DUP2 PUSH1 0x0 ADD SSTORE PUSH1 0x20 DUP3 ADD MLOAD DUP2 PUSH1 0x1 ADD SSTORE PUSH1 0x40 DUP3 ADD MLOAD DUP2 PUSH1 0x2 ADD SSTORE PUSH1 0x60 DUP3 ADD MLOAD DUP2 PUSH1 0x3 ADD PUSH1 0x0 PUSH2 0x100 EXP DUP2 SLOAD DUP2 PUSH20 0xFFFFFFFFFFFFFFFFFFFFFFFFFFFFFFFFFFFFFFFF MUL NOT AND SWAP1 DUP4 PUSH20 0xFFFFFFFFFFFFFFFFFFFFFFFFFFFFFFFFFFFFFFFF AND MUL OR SWAP1 SSTORE POP PUSH1 0x80 DUP3 ADD MLOAD DUP2 PUSH1 0x4 ADD SWAP1 DUP1 MLOAD SWAP1 PUSH1 0x20 ADD SWAP1 PUSH2 0x1C0 SWAP3 SWAP2 SWAP1 PUSH2 0x336 JUMP JUMPDEST POP SWAP1 POP POP PUSH32 0x8F5AFD88EB4BE0AC287D87970052CE9A2B453448408E3C91A695AD7509AB7194 DUP2 DUP4 DUP9 DUP8 PUSH1 0x40 MLOAD PUSH2 0x1F9 SWAP5 SWAP4 SWAP3 SWAP2 SWAP1 PUSH2 0x604 JUMP JUMPDEST PUSH1 0x40 MLOAD DUP1 SWAP2 SUB SWAP1 LOG1 DUP1 SWAP3 POP POP POP SWAP4 SWAP3 POP POP POP JUMP JUMPDEST PUSH1 0x2 PUSH1 0x20 MSTORE DUP1 PUSH1 0x0 MSTORE PUSH1 0x40 PUSH1 0x0 KECCAK256 PUSH1 0x0 SWAP2 POP SWAP1 POP DUP1 PUSH1 0x0 ADD SLOAD SWAP1 DUP1 PUSH1 0x1 ADD SLOAD SWAP1 DUP1 PUSH1 0x2 ADD SLOAD SWAP1 DUP1 PUSH1 0x3 ADD PUSH1 0x0 SWAP1 SLOAD SWAP1 PUSH2 0x100 EXP SWAP1 DIV PUSH20 0xFFFFFFFFFFFFFFFFFFFFFFFFFFFFFFFFFFFFFFFF AND SWAP1 DUP1 PUSH1 0x4 ADD DUP1 SLOAD PUSH2 0x268 SWAP1 PUSH2 0x7FF JUMP JUMPDEST DUP1 PUSH1 0x1F ADD PUSH1 0x20 DUP1 SWAP2 DIV MUL PUSH1 0x20 ADD PUSH1 0x40 MLOAD SWAP1 DUP2 ADD PUSH1 0x40 MSTORE DUP1 SWAP3 SWAP2 SWAP1 DUP2 DUP2 MSTORE PUSH1 0x20 ADD DUP3 DUP1 SLOAD PUSH2 0x294 SWAP1 PUSH2 0x7FF JUMP JUMPDEST DUP1 ISZERO PUSH2 0x2E1 JUMPI DUP1 PUSH1 0x1F LT PUSH2 0x2B6 JUMPI PUSH2 0x100 DUP1 DUP4 SLOAD DIV MUL DUP4 MSTORE SWAP2 PUSH1 0x20 ADD SWAP2 PUSH2 0x2E1 JUMP JUMPDEST DUP3 ADD SWAP2 SWAP1 PUSH1 0x0 MSTORE PUSH1 0x20 PUSH1 0x0 KECCAK256 SWAP1 JUMPDEST DUP2 SLOAD DUP2 MSTORE SWAP1 PUSH1 0x1 ADD SWAP1 PUSH1 0x20 ADD DUP1 DUP4 GT PUSH2 0x2C4 JUMPI DUP3 SWAP1 SUB PUSH1 0x1F AND DUP3 ADD SWAP2 JUMPDEST POP POP POP POP POP SWAP1 POP DUP6 JUMP JUMPDEST PUSH1 0x0 DUP1 DUP5 DUP5 DUP5 PUSH1 0x40 MLOAD PUSH1 0x20 ADD PUSH2 0x303 SWAP4 SWAP3 SWAP2 SWAP1 PUSH2 0x5B0 JUMP JUMPDEST PUSH1 0x40 MLOAD PUSH1 0x20 DUP2 DUP4 SUB SUB DUP2 MSTORE SWAP1 PUSH1 0x40 MSTORE DUP1 MLOAD SWAP1 PUSH1 0x20 ADD KECCAK256 PUSH1 0x0 SHR SWAP1 POP PUSH1 0x1 SLOAD DUP2 PUSH2 0x32C SWAP2 SWAP1 PUSH2 0x890 JUMP JUMPDEST SWAP2 POP POP SWAP4 SWAP3 POP POP POP JUMP JUMPDEST DUP3 DUP1 SLOAD PUSH2 0x342 SWAP1 PUSH2 0x7FF JUMP JUMPDEST SWAP1 PUSH1 0x0 MSTORE PUSH1 0x20 PUSH1 0x0 KECCAK256 SWAP1 PUSH1 0x1F ADD PUSH1 0x20 SWAP1 DIV DUP2 ADD SWAP3 DUP3 PUSH2 0x364 JUMPI PUSH1 0x0 DUP6 SSTORE PUSH2 0x3AB JUMP JUMPDEST DUP3 PUSH1 0x1F LT PUSH2 0x37D JUMPI DUP1 MLOAD PUSH1 0xFF NOT AND DUP4 DUP1 ADD OR DUP6 SSTORE PUSH2 0x3AB JUMP JUMPDEST DUP3 DUP1 ADD PUSH1 0x1 ADD DUP6 SSTORE DUP3 ISZERO PUSH2 0x3AB JUMPI SWAP2 DUP3 ADD JUMPDEST DUP3 DUP2 GT ISZERO PUSH2 0x3AA JUMPI DUP3 MLOAD DUP3 SSTORE SWAP2 PUSH1 0x20 ADD SWAP2 SWAP1 PUSH1 0x1 ADD SWAP1 PUSH2 0x38F JUMP JUMPDEST JUMPDEST POP SWAP1 POP PUSH2 0x3B8 SWAP2 SWAP1 PUSH2 0x3BC JUMP JUMPDEST POP SWAP1 JUMP JUMPDEST JUMPDEST DUP1 DUP3 GT ISZERO PUSH2 0x3D5 JUMPI PUSH1 0x0 DUP2 PUSH1 0x0 SWAP1 SSTORE POP PUSH1 0x1 ADD PUSH2 0x3BD JUMP JUMPDEST POP SWAP1 JUMP JUMPDEST PUSH1 0x0 PUSH2 0x3EC PUSH2 0x3E7 DUP5 PUSH2 0x6CF JUMP JUMPDEST PUSH2 0x6AA JUMP JUMPDEST SWAP1 POP DUP3 DUP2 MSTORE PUSH1 0x20 DUP2 ADD DUP5 DUP5 DUP5 ADD GT ISZERO PUSH2 0x408 JUMPI PUSH2 0x407 PUSH2 0x982 JUMP JUMPDEST JUMPDEST PUSH2 0x413 DUP5 DUP3 DUP6 PUSH2 0x7BD JUMP JUMPDEST POP SWAP4 SWAP3 POP POP POP JUMP JUMPDEST PUSH1 0x0 DUP3 PUSH1 0x1F DUP4 ADD SLT PUSH2 0x430 JUMPI PUSH2 0x42F PUSH2 0x97D JUMP JUMPDEST JUMPDEST DUP2 CALLDATALOAD PUSH2 0x440 DUP5 DUP3 PUSH1 0x20 DUP7 ADD PUSH2 0x3D9 JUMP JUMPDEST SWAP2 POP POP SWAP3 SWAP2 POP POP JUMP JUMPDEST PUSH1 0x0 DUP2 CALLDATALOAD SWAP1 POP PUSH2 0x458 DUP2 PUSH2 0x9AF JUMP JUMPDEST SWAP3 SWAP2 POP POP JUMP JUMPDEST PUSH1 0x0 PUSH1 0x20 DUP3 DUP5 SUB SLT ISZERO PUSH2 0x474 JUMPI PUSH2 0x473 PUSH2 0x98C JUMP JUMPDEST JUMPDEST PUSH1 0x0 PUSH2 0x482 DUP5 DUP3 DUP6 ADD PUSH2 0x449 JUMP JUMPDEST SWAP2 POP POP SWAP3 SWAP2 POP POP JUMP JUMPDEST PUSH1 0x0 DUP1 PUSH1 0x0 PUSH1 0x60 DUP5 DUP7 SUB SLT ISZERO PUSH2 0x4A4 JUMPI PUSH2 0x4A3 PUSH2 0x98C JUMP JUMPDEST JUMPDEST PUSH1 0x0 PUSH2 0x4B2 DUP7 DUP3 DUP8 ADD PUSH2 0x449 JUMP JUMPDEST SWAP4 POP POP PUSH1 0x20 PUSH2 0x4C3 DUP7 DUP3 DUP8 ADD PUSH2 0x449 JUMP JUMPDEST SWAP3 POP POP PUSH1 0x40 DUP5 ADD CALLDATALOAD PUSH8 0xFFFFFFFFFFFFFFFF DUP2 GT ISZERO PUSH2 0x4E4 JUMPI PUSH2 0x4E3 PUSH2 0x987 JUMP JUMPDEST JUMPDEST PUSH2 0x4F0 DUP7 DUP3 DUP8 ADD PUSH2 0x41B JUMP JUMPDEST SWAP2 POP POP SWAP3 POP SWAP3 POP SWAP3 JUMP JUMPDEST PUSH2 0x503 DUP2 PUSH2 0x781 JUMP JUMPDEST DUP3 MSTORE POP POP JUMP JUMPDEST PUSH2 0x51A PUSH2 0x515 DUP3 PUSH2 0x781 JUMP JUMPDEST PUSH2 0x862 JUMP JUMPDEST DUP3 MSTORE POP POP JUMP JUMPDEST PUSH1 0x0 PUSH2 0x52B DUP3 PUSH2 0x700 JUMP JUMPDEST PUSH2 0x535 DUP2 DUP6 PUSH2 0x70B JUMP JUMPDEST SWAP4 POP PUSH2 0x545 DUP2 DUP6 PUSH1 0x20 DUP7 ADD PUSH2 0x7CC JUMP JUMPDEST PUSH2 0x54E DUP2 PUSH2 0x991 JUMP JUMPDEST DUP5 ADD SWAP2 POP POP SWAP3 SWAP2 POP POP JUMP JUMPDEST PUSH1 0x0 PUSH2 0x564 DUP3 PUSH2 0x700 JUMP JUMPDEST PUSH2 0x56E DUP2 DUP6 PUSH2 0x71C JUMP JUMPDEST SWAP4 POP PUSH2 0x57E DUP2 DUP6 PUSH1 0x20 DUP7 ADD PUSH2 0x7CC JUMP JUMPDEST DUP1 DUP5 ADD SWAP2 POP POP SWAP3 SWAP2 POP POP JUMP JUMPDEST PUSH2 0x593 DUP2 PUSH2 0x7B3 JUMP JUMPDEST DUP3 MSTORE POP POP JUMP JUMPDEST PUSH2 0x5AA PUSH2 0x5A5 DUP3 PUSH2 0x7B3 JUMP JUMPDEST PUSH2 0x886 JUMP JUMPDEST DUP3 MSTORE POP POP JUMP JUMPDEST PUSH1 0x0 PUSH2 0x5BC DUP3 DUP7 PUSH2 0x509 JUMP JUMPDEST PUSH1 0x14 DUP3 ADD SWAP2 POP PUSH2 0x5CC DUP3 DUP6 PUSH2 0x599 JUMP JUMPDEST PUSH1 0x20 DUP3 ADD SWAP2 POP PUSH2 0x5DC DUP3 DUP5 PUSH2 0x559 JUMP JUMPDEST SWAP2 POP DUP2 SWAP1 POP SWAP5 SWAP4 POP POP POP POP JUMP JUMPDEST PUSH1 0x0 PUSH1 0x20 DUP3 ADD SWAP1 POP PUSH2 0x5FE PUSH1 0x0 DUP4 ADD DUP5 PUSH2 0x58A JUMP JUMPDEST SWAP3 SWAP2 POP POP JUMP JUMPDEST PUSH1 0x0 PUSH1 0x80 DUP3 ADD SWAP1 POP PUSH2 0x619 PUSH1 0x0 DUP4 ADD DUP8 PUSH2 0x58A JUMP JUMPDEST PUSH2 0x626 PUSH1 0x20 DUP4 ADD DUP7 PUSH2 0x4FA JUMP JUMPDEST PUSH2 0x633 PUSH1 0x40 DUP4 ADD DUP6 PUSH2 0x58A JUMP JUMPDEST DUP2 DUP2 SUB PUSH1 0x60 DUP4 ADD MSTORE PUSH2 0x645 DUP2 DUP5 PUSH2 0x520 JUMP JUMPDEST SWAP1 POP SWAP6 SWAP5 POP POP POP POP POP JUMP JUMPDEST PUSH1 0x0 PUSH1 0xA0 DUP3 ADD SWAP1 POP PUSH2 0x665 PUSH1 0x0 DUP4 ADD DUP9 PUSH2 0x58A JUMP JUMPDEST PUSH2 0x672 PUSH1 0x20 DUP4 ADD DUP8 PUSH2 0x58A JUMP JUMPDEST PUSH2 0x67F PUSH1 0x40 DUP4 ADD DUP7 PUSH2 0x58A JUMP JUMPDEST PUSH2 0x68C PUSH1 0x60 DUP4 ADD DUP6 PUSH2 0x4FA JUMP JUMPDEST DUP2 DUP2 SUB PUSH1 0x80 DUP4 ADD MSTORE PUSH2 0x69E DUP2 DUP5 PUSH2 0x520 JUMP JUMPDEST SWAP1 POP SWAP7 SWAP6 POP POP POP POP POP POP JUMP JUMPDEST PUSH1 0x0 PUSH2 0x6B4 PUSH2 0x6C5 JUMP JUMPDEST SWAP1 POP PUSH2 0x6C0 DUP3 DUP3 PUSH2 0x831 JUMP JUMPDEST SWAP2 SWAP1 POP JUMP JUMPDEST PUSH1 0x0 PUSH1 0x40 MLOAD SWAP1 POP SWAP1 JUMP JUMPDEST PUSH1 0x0 PUSH8 0xFFFFFFFFFFFFFFFF DUP3 GT ISZERO PUSH2 0x6EA JUMPI PUSH2 0x6E9 PUSH2 0x94E JUMP JUMPDEST JUMPDEST PUSH2 0x6F3 DUP3 PUSH2 0x991 JUMP JUMPDEST SWAP1 POP PUSH1 0x20 DUP2 ADD SWAP1 POP SWAP2 SWAP1 POP JUMP JUMPDEST PUSH1 0x0 DUP2 MLOAD SWAP1 POP SWAP2 SWAP1 POP JUMP JUMPDEST PUSH1 0x0 DUP3 DUP3 MSTORE PUSH1 0x20 DUP3 ADD SWAP1 POP SWAP3 SWAP2 POP POP JUMP JUMPDEST PUSH1 0x0 DUP2 SWAP1 POP SWAP3 SWAP2 POP POP JUMP JUMPDEST PUSH1 0x0 PUSH2 0x732 DUP3 PUSH2 0x7B3 JUMP JUMPDEST SWAP2 POP PUSH2 0x73D DUP4 PUSH2 0x7B3 JUMP JUMPDEST SWAP3 POP DUP2 PUSH32 0xFFFFFFFFFFFFFFFFFFFFFFFFFFFFFFFFFFFFFFFFFFFFFFFFFFFFFFFFFFFFFFFF DIV DUP4 GT DUP3 ISZERO ISZERO AND ISZERO PUSH2 0x776 JUMPI PUSH2 0x775 PUSH2 0x8C1 JUMP JUMPDEST JUMPDEST DUP3 DUP3 MUL SWAP1 POP SWAP3 SWAP2 POP POP JUMP JUMPDEST PUSH1 0x0 PUSH2 0x78C DUP3 PUSH2 0x793 JUMP JUMPDEST SWAP1 POP SWAP2 SWAP1 POP JUMP JUMPDEST PUSH1 0x0 PUSH20 0xFFFFFFFFFFFFFFFFFFFFFFFFFFFFFFFFFFFFFFFF DUP3 AND SWAP1 POP SWAP2 SWAP1 POP JUMP JUMPDEST PUSH1 0x0 DUP2 SWAP1 POP SWAP2 SWAP1 POP JUMP JUMPDEST DUP3 DUP2 DUP4 CALLDATACOPY PUSH1 0x0 DUP4 DUP4 ADD MSTORE POP POP POP JUMP JUMPDEST PUSH1 0x0 JUMPDEST DUP4 DUP2 LT ISZERO PUSH2 0x7EA JUMPI DUP1 DUP3 ADD MLOAD DUP2 DUP5 ADD MSTORE PUSH1 0x20 DUP2 ADD SWAP1 POP PUSH2 0x7CF JUMP JUMPDEST DUP4 DUP2 GT ISZERO PUSH2 0x7F9 JUMPI PUSH1 0x0 DUP5 DUP5 ADD MSTORE JUMPDEST POP POP POP POP JUMP JUMPDEST PUSH1 0x0 PUSH1 0x2 DUP3 DIV SWAP1 POP PUSH1 0x1 DUP3 AND DUP1 PUSH2 0x817 JUMPI PUSH1 0x7F DUP3 AND SWAP2 POP JUMPDEST PUSH1 0x20 DUP3 LT DUP2 EQ ISZERO PUSH2 0x82B JUMPI PUSH2 0x82A PUSH2 0x91F JUMP JUMPDEST JUMPDEST POP SWAP2 SWAP1 POP JUMP JUMPDEST PUSH2 0x83A DUP3 PUSH2 0x991 JUMP JUMPDEST DUP2 ADD DUP2 DUP2 LT PUSH8 0xFFFFFFFFFFFFFFFF DUP3 GT OR ISZERO PUSH2 0x859 JUMPI PUSH2 0x858 PUSH2 0x94E JUMP JUMPDEST JUMPDEST DUP1 PUSH1 0x40 MSTORE POP POP POP JUMP JUMPDEST PUSH1 0x0 PUSH2 0x86D DUP3 PUSH2 0x874 JUMP JUMPDEST SWAP1 POP SWAP2 SWAP1 POP JUMP JUMPDEST PUSH1 0x0 PUSH2 0x87F DUP3 PUSH2 0x9A2 JUMP JUMPDEST SWAP1 POP SWAP2 SWAP1 POP JUMP JUMPDEST PUSH1 0x0 DUP2 SWAP1 POP SWAP2 SWAP1 POP JUMP JUMPDEST PUSH1 0x0 PUSH2 0x89B DUP3 PUSH2 0x7B3 JUMP JUMPDEST SWAP2 POP PUSH2 0x8A6 DUP4 PUSH2 0x7B3 JUMP JUMPDEST SWAP3 POP DUP3 PUSH2 0x8B6 JUMPI PUSH2 0x8B5 PUSH2 0x8F0 JUMP JUMPDEST JUMPDEST DUP3 DUP3 MOD SWAP1 POP SWAP3 SWAP2 POP POP JUMP JUMPDEST PUSH32 0x4E487B7100000000000000000000000000000000000000000000000000000000 PUSH1 0x0 MSTORE PUSH1 0x11 PUSH1 0x4 MSTORE PUSH1 0x24 PUSH1 0x0 REVERT JUMPDEST PUSH32 0x4E487B7100000000000000000000000000000000000000000000000000000000 PUSH1 0x0 MSTORE PUSH1 0x12 PUSH1 0x4 MSTORE PUSH1 0x24 PUSH1 0x0 REVERT JUMPDEST PUSH32 0x4E487B7100000000000000000000000000000000000000000000000000000000 PUSH1 0x0 MSTORE PUSH1 0x22 PUSH1 0x4 MSTORE PUSH1 0x24 PUSH1 0x0 REVERT JUMPDEST PUSH32 0x4E487B7100000000000000000000000000000000000000000000000000000000 PUSH1 0x0 MSTORE PUSH1 0x41 PUSH1 0x4 MSTORE PUSH1 0x24 PUSH1 0x0 REVERT JUMPDEST PUSH1 0x0 DUP1 REVERT JUMPDEST PUSH1 0x0 DUP1 REVERT JUMPDEST PUSH1 0x0 DUP1 REVERT JUMPDEST PUSH1 0x0 DUP1 REVERT JUMPDEST PUSH1 0x0 PUSH1 0x1F NOT PUSH1 0x1F DUP4 ADD AND SWAP1 POP SWAP2 SWAP1 POP JUMP JUMPDEST PUSH1 0x0 DUP2 PUSH1 0x60 SHL SWAP1 POP SWAP2 SWAP1 POP JUMP JUMPDEST PUSH2 0x9B8 DUP2 PUSH2 0x7B3 JUMP JUMPDEST DUP2 EQ PUSH2 0x9C3 JUMPI PUSH1 0x0 DUP1 REVERT JUMPDEST POP JUMP INVALID LOG2 PUSH5 0x6970667358 0x22 SLT KECCAK256 SWAP9 0xF6 0xEC SELFBALANCE 0xE7 0xF7 0xD4 EQ SHL 0xF7 CODESIZE ADD PUSH18 0x9C3AE3E7502724907A04241F910F60D956EE DUP6 PUSH5 0x736F6C6343 STOP ADDMOD SMOD STOP CALLER "
				},
				"gasEstimates": {
					"creation": {
						"codeDepositCost": "511200",
						"executionCost": "infinite",
						"totalCost": "infinite"
					},
					"external": {
						"houses(uint256)": "infinite",
						"listHouse(uint256,uint256,string)": "infinite"
					},
					"internal": {
						"_generateHouseId(address,uint256,string memory)": "infinite"
					}
				},
				"methodIdentifiers": {
					"houses(uint256)": "aeda852f",
					"listHouse(uint256,uint256,string)": "a66e752d"
				}
			},
			"storageLayout": {
				"storage": [
					{
						"astId": 4,
						"contract": "contract/HouseRegistry.sol:HouseRegistry",
						"label": "digits",
						"offset": 0,
						"slot": "0",
						"type": "t_uint256"
					},
					{
						"astId": 9,
						"contract": "contract/HouseRegistry.sol:HouseRegistry",
						"label": "modulus",
						"offset": 0,
						"slot": "1",
						"type": "t_uint256"
					},
					{
						"astId": 35,
						"contract": "contract/HouseRegistry.sol:HouseRegistry",
						"label": "houses",
						"offset": 0,
						"slot": "2",
						"type": "t_mapping(t_uint256,t_struct(House)20_storage)"
					}
				],
				"types": {
					"t_address": {
						"encoding": "inplace",
						"label": "address",
						"numberOfBytes": "20"
					},
					"t_mapping(t_uint256,t_struct(House)20_storage)": {
						"encoding": "mapping",
						"key": "t_uint256",
						"label": "mapping(uint256 => struct HouseRegistry.House)",
						"numberOfBytes": "32",
						"value": "t_struct(House)20_storage"
					},
					"t_string_storage": {
						"encoding": "bytes",
						"label": "string",
						"numberOfBytes": "32"
					},
					"t_struct(House)20_storage": {
						"encoding": "inplace",
						"label": "struct HouseRegistry.House",
						"members": [
							{
								"astId": 11,
								"contract": "contract/HouseRegistry.sol:HouseRegistry",
								"label": "id",
								"offset": 0,
								"slot": "0",
								"type": "t_uint256"
							},
							{
								"astId": 13,
								"contract": "contract/HouseRegistry.sol:HouseRegistry",
								"label": "price",
								"offset": 0,
								"slot": "1",
								"type": "t_uint256"
							},
							{
								"astId": 15,
								"contract": "contract/HouseRegistry.sol:HouseRegistry",
								"label": "area",
								"offset": 0,
								"slot": "2",
								"type": "t_uint256"
							},
							{
								"astId": 17,
								"contract": "contract/HouseRegistry.sol:HouseRegistry",
								"label": "sellerAddress",
								"offset": 0,
								"slot": "3",
								"type": "t_address"
							},
							{
								"astId": 19,
								"contract": "contract/HouseRegistry.sol:HouseRegistry",
								"label": "houseAddress",
								"offset": 0,
								"slot": "4",
								"type": "t_string_storage"
							}
						],
						"numberOfBytes": "160"
					},
					"t_uint256": {
						"encoding": "inplace",
						"label": "uint256",
						"numberOfBytes": "32"
					}
				}
			},
			"userdoc": {
				"kind": "user",
				"methods": {},
				"version": 1
			}
		}
	}
}