{
	"contract/HouseRegistry.sol": {
		"HouseRegistry": {
			"abi": [
				{
					"anonymous": false,
					"inputs": [
						{
							"indexed": false,
							"internalType": "uint256",
							"name": "houseId",
							"type": "uint256"
						},
						{
							"indexed": false,
							"internalType": "address",
							"name": "_sellerAddress",
							"type": "address"
						},
						{
							"indexed": false,
							"internalType": "uint256",
							"name": "price",
							"type": "uint256"
						},
						{
							"indexed": false,
							"internalType": "uint256",
							"name": "priceDai",
							"type": "uint256"
						},
						{
							"indexed": false,
							"internalType": "string",
							"name": "houseAddress",
							"type": "string"
						}
					],
					"name": "AddNewHouse",
					"type": "event"
				},
				{
					"inputs": [
						{
							"internalType": "uint256",
							"name": "houseId",
							"type": "uint256"
						}
					],
					"name": "delistHouse",
					"outputs": [
						{
							"internalType": "string",
							"name": "",
							"type": "string"
						}
					],
					"stateMutability": "nonpayable",
					"type": "function"
				},
				{
					"inputs": [
						{
							"internalType": "uint256",
							"name": "cost",
							"type": "uint256"
						}
					],
					"name": "getCheapHouseIds",
					"outputs": [
						{
							"internalType": "uint256[]",
							"name": "",
							"type": "uint256[]"
						}
					],
					"stateMutability": "view",
					"type": "function"
				},
				{
					"inputs": [
						{
							"internalType": "uint256",
							"name": "",
							"type": "uint256"
						}
					],
					"name": "houses",
					"outputs": [
						{
							"internalType": "uint256",
							"name": "id",
							"type": "uint256"
						},
						{
							"internalType": "uint256",
							"name": "serialNumber",
							"type": "uint256"
						},
						{
							"internalType": "uint256",
							"name": "price",
							"type": "uint256"
						},
						{
							"internalType": "uint256",
							"name": "priceDai",
							"type": "uint256"
						},
						{
							"internalType": "uint256",
							"name": "area",
							"type": "uint256"
						},
						{
							"internalType": "address",
							"name": "sellerAddress",
							"type": "address"
						},
						{
							"internalType": "address",
							"name": "buyerAddress",
							"type": "address"
						},
						{
							"internalType": "string",
							"name": "houseAddress",
							"type": "string"
						},
						{
							"internalType": "bool",
							"name": "isdelistedHouse",
							"type": "bool"
						}
					],
					"stateMutability": "view",
					"type": "function"
				},
				{
					"inputs": [
						{
							"internalType": "uint256",
							"name": "_price",
							"type": "uint256"
						},
						{
							"internalType": "uint256",
							"name": "_priceDai",
							"type": "uint256"
						},
						{
							"internalType": "uint256",
							"name": "_area",
							"type": "uint256"
						},
						{
							"internalType": "address",
							"name": "_sellerAddress",
							"type": "address"
						},
						{
							"internalType": "string",
							"name": "_houseAddress",
							"type": "string"
						}
					],
					"name": "listHouse",
					"outputs": [
						{
							"internalType": "uint256",
							"name": "",
							"type": "uint256"
						}
					],
					"stateMutability": "nonpayable",
					"type": "function"
				}
			],
			"devdoc": {
				"kind": "dev",
				"methods": {},
				"version": 1
			},
			"evm": {
				"assembly": "    /* \"contract/HouseRegistry.sol\":62:2724  contract HouseRegistry {... */\n  mstore(0x40, 0x80)\n    /* \"contract/HouseRegistry.sol\":106:107  5 */\n  0x05\n    /* \"contract/HouseRegistry.sol\":92:107  uint digits = 5 */\n  0x00\n  sstore\n    /* \"contract/HouseRegistry.sol\":134:140  digits */\n  sload(0x00)\n    /* \"contract/HouseRegistry.sol\":128:130  10 */\n  0x0a\n    /* \"contract/HouseRegistry.sol\":128:140  10 ** digits */\n  tag_1\n  swap2\n  swap1\n  tag_2\n  jump\t// in\ntag_1:\n    /* \"contract/HouseRegistry.sol\":113:140  uint modulus = 10 ** digits */\n  0x01\n  sstore\n    /* \"contract/HouseRegistry.sol\":166:172  1 days */\n  0x015180\n    /* \"contract/HouseRegistry.sol\":146:172  uint cooldownTime = 1 days */\n  0x02\n  sstore\n    /* \"contract/HouseRegistry.sol\":199:200  1 */\n  0x01\n    /* \"contract/HouseRegistry.sol\":178:200  uint countOfHouses = 1 */\n  0x03\n  sstore\n    /* \"contract/HouseRegistry.sol\":62:2724  contract HouseRegistry {... */\n  callvalue\n  dup1\n  iszero\n  tag_3\n  jumpi\n  0x00\n  dup1\n  revert\ntag_3:\n  pop\n  jump(tag_4)\n    /* \"#utility.yul\":7:855   */\ntag_6:\n    /* \"#utility.yul\":68:73   */\n  0x00\n    /* \"#utility.yul\":75:79   */\n  dup1\n    /* \"#utility.yul\":99:105   */\n  dup3\n    /* \"#utility.yul\":90:105   */\n  swap2\n  pop\n    /* \"#utility.yul\":123:128   */\n  dup4\n    /* \"#utility.yul\":114:128   */\n  swap1\n  pop\n    /* \"#utility.yul\":137:849   */\ntag_8:\n    /* \"#utility.yul\":158:159   */\n  0x01\n    /* \"#utility.yul\":148:156   */\n  dup6\n    /* \"#utility.yul\":145:160   */\n  gt\n    /* \"#utility.yul\":137:849   */\n  iszero\n  tag_10\n  jumpi\n    /* \"#utility.yul\":253:257   */\n  dup1\n    /* \"#utility.yul\":248:251   */\n  dup7\n    /* \"#utility.yul\":244:258   */\n  div\n    /* \"#utility.yul\":238:242   */\n  dup2\n    /* \"#utility.yul\":235:259   */\n  gt\n    /* \"#utility.yul\":232:282   */\n  iszero\n  tag_11\n  jumpi\n    /* \"#utility.yul\":262:280   */\n  tag_12\n  tag_13\n  jump\t// in\ntag_12:\n    /* \"#utility.yul\":232:282   */\ntag_11:\n    /* \"#utility.yul\":312:313   */\n  0x01\n    /* \"#utility.yul\":302:310   */\n  dup6\n    /* \"#utility.yul\":298:314   */\n  and\n    /* \"#utility.yul\":295:746   */\n  iszero\n  tag_14\n  jumpi\n    /* \"#utility.yul\":727:731   */\n  dup1\n    /* \"#utility.yul\":720:725   */\n  dup3\n    /* \"#utility.yul\":716:732   */\n  mul\n    /* \"#utility.yul\":707:732   */\n  swap2\n  pop\n    /* \"#utility.yul\":295:746   */\ntag_14:\n    /* \"#utility.yul\":777:781   */\n  dup1\n    /* \"#utility.yul\":771:775   */\n  dup2\n    /* \"#utility.yul\":767:782   */\n  mul\n    /* \"#utility.yul\":759:782   */\n  swap1\n  pop\n    /* \"#utility.yul\":807:839   */\n  tag_15\n    /* \"#utility.yul\":830:838   */\n  dup6\n    /* \"#utility.yul\":807:839   */\n  tag_16\n  jump\t// in\ntag_15:\n    /* \"#utility.yul\":795:839   */\n  swap5\n  pop\n    /* \"#utility.yul\":137:849   */\n  jump(tag_8)\ntag_10:\n    /* \"#utility.yul\":7:855   */\n  swap5\n  pop\n  swap5\n  swap3\n  pop\n  pop\n  pop\n  jump\t// out\n    /* \"#utility.yul\":861:1146   */\ntag_2:\n    /* \"#utility.yul\":921:926   */\n  0x00\n    /* \"#utility.yul\":945:968   */\n  tag_18\n    /* \"#utility.yul\":963:967   */\n  dup3\n    /* \"#utility.yul\":945:968   */\n  tag_19\n  jump\t// in\ntag_18:\n    /* \"#utility.yul\":937:968   */\n  swap2\n  pop\n    /* \"#utility.yul\":989:1016   */\n  tag_20\n    /* \"#utility.yul\":1007:1015   */\n  dup4\n    /* \"#utility.yul\":989:1016   */\n  tag_19\n  jump\t// in\ntag_20:\n    /* \"#utility.yul\":977:1016   */\n  swap3\n  pop\n    /* \"#utility.yul\":1035:1139   */\n  tag_21\n    /* \"#utility.yul\":1072:1138   */\n  0xffffffffffffffffffffffffffffffffffffffffffffffffffffffffffffffff\n    /* \"#utility.yul\":1062:1070   */\n  dup5\n    /* \"#utility.yul\":1056:1060   */\n  dup5\n    /* \"#utility.yul\":1035:1139   */\n  tag_22\n  jump\t// in\ntag_21:\n    /* \"#utility.yul\":1026:1139   */\n  swap1\n  pop\n    /* \"#utility.yul\":861:1146   */\n  swap3\n  swap2\n  pop\n  pop\n  jump\t// out\n    /* \"#utility.yul\":1152:2225   */\ntag_22:\n    /* \"#utility.yul\":1206:1211   */\n  0x00\n    /* \"#utility.yul\":1397:1405   */\n  dup3\n    /* \"#utility.yul\":1387:1427   */\n  tag_24\n  jumpi\n    /* \"#utility.yul\":1418:1419   */\n  0x01\n    /* \"#utility.yul\":1409:1419   */\n  swap1\n  pop\n    /* \"#utility.yul\":1420:1425   */\n  jump(tag_23)\n    /* \"#utility.yul\":1387:1427   */\ntag_24:\n    /* \"#utility.yul\":1446:1450   */\n  dup2\n    /* \"#utility.yul\":1436:1472   */\n  tag_25\n  jumpi\n    /* \"#utility.yul\":1463:1464   */\n  0x00\n    /* \"#utility.yul\":1454:1464   */\n  swap1\n  pop\n    /* \"#utility.yul\":1465:1470   */\n  jump(tag_23)\n    /* \"#utility.yul\":1436:1472   */\ntag_25:\n    /* \"#utility.yul\":1532:1536   */\n  dup2\n    /* \"#utility.yul\":1580:1581   */\n  0x01\n    /* \"#utility.yul\":1575:1602   */\n  dup2\n  eq\n  tag_27\n  jumpi\n    /* \"#utility.yul\":1616:1617   */\n  0x02\n    /* \"#utility.yul\":1611:1802   */\n  dup2\n  eq\n  tag_28\n  jumpi\n    /* \"#utility.yul\":1525:1802   */\n  jump(tag_26)\n    /* \"#utility.yul\":1575:1602   */\ntag_27:\n    /* \"#utility.yul\":1593:1594   */\n  0x01\n    /* \"#utility.yul\":1584:1594   */\n  swap2\n  pop\n    /* \"#utility.yul\":1595:1600   */\n  pop\n  jump(tag_23)\n    /* \"#utility.yul\":1611:1802   */\ntag_28:\n    /* \"#utility.yul\":1656:1659   */\n  0xff\n    /* \"#utility.yul\":1646:1654   */\n  dup5\n    /* \"#utility.yul\":1643:1660   */\n  gt\n    /* \"#utility.yul\":1640:1683   */\n  iszero\n  tag_29\n  jumpi\n    /* \"#utility.yul\":1663:1681   */\n  tag_30\n  tag_13\n  jump\t// in\ntag_30:\n    /* \"#utility.yul\":1640:1683   */\ntag_29:\n    /* \"#utility.yul\":1712:1720   */\n  dup4\n    /* \"#utility.yul\":1709:1710   */\n  0x02\n    /* \"#utility.yul\":1705:1721   */\n  exp\n    /* \"#utility.yul\":1696:1721   */\n  swap2\n  pop\n    /* \"#utility.yul\":1747:1750   */\n  dup5\n    /* \"#utility.yul\":1740:1745   */\n  dup3\n    /* \"#utility.yul\":1737:1751   */\n  gt\n    /* \"#utility.yul\":1734:1774   */\n  iszero\n  tag_31\n  jumpi\n    /* \"#utility.yul\":1754:1772   */\n  tag_32\n  tag_13\n  jump\t// in\ntag_32:\n    /* \"#utility.yul\":1734:1774   */\ntag_31:\n    /* \"#utility.yul\":1787:1792   */\n  pop\n  jump(tag_23)\n    /* \"#utility.yul\":1525:1802   */\ntag_26:\n  pop\n    /* \"#utility.yul\":1911:1913   */\n  0x20\n    /* \"#utility.yul\":1901:1909   */\n  dup4\n    /* \"#utility.yul\":1898:1914   */\n  lt\n    /* \"#utility.yul\":1892:1895   */\n  0x0133\n    /* \"#utility.yul\":1886:1890   */\n  dup4\n    /* \"#utility.yul\":1883:1896   */\n  lt\n    /* \"#utility.yul\":1879:1915   */\n  and\n    /* \"#utility.yul\":1861:1863   */\n  0x4e\n    /* \"#utility.yul\":1851:1859   */\n  dup5\n    /* \"#utility.yul\":1848:1864   */\n  lt\n    /* \"#utility.yul\":1843:1845   */\n  0x0b\n    /* \"#utility.yul\":1837:1841   */\n  dup5\n    /* \"#utility.yul\":1834:1846   */\n  lt\n    /* \"#utility.yul\":1830:1865   */\n  and\n    /* \"#utility.yul\":1814:1925   */\n  or\n    /* \"#utility.yul\":1811:2057   */\n  iszero\n  tag_33\n  jumpi\n    /* \"#utility.yul\":1967:1975   */\n  dup3\n    /* \"#utility.yul\":1961:1965   */\n  dup3\n    /* \"#utility.yul\":1957:1976   */\n  exp\n    /* \"#utility.yul\":1948:1976   */\n  swap1\n  pop\n    /* \"#utility.yul\":2002:2005   */\n  dup4\n    /* \"#utility.yul\":1995:2000   */\n  dup2\n    /* \"#utility.yul\":1992:2006   */\n  gt\n    /* \"#utility.yul\":1989:2029   */\n  iszero\n  tag_34\n  jumpi\n    /* \"#utility.yul\":2009:2027   */\n  tag_35\n  tag_13\n  jump\t// in\ntag_35:\n    /* \"#utility.yul\":1989:2029   */\ntag_34:\n    /* \"#utility.yul\":2042:2047   */\n  jump(tag_23)\n    /* \"#utility.yul\":1811:2057   */\ntag_33:\n    /* \"#utility.yul\":2082:2124   */\n  tag_36\n    /* \"#utility.yul\":2120:2123   */\n  dup5\n    /* \"#utility.yul\":2110:2118   */\n  dup5\n    /* \"#utility.yul\":2104:2108   */\n  dup5\n    /* \"#utility.yul\":2101:2102   */\n  0x01\n    /* \"#utility.yul\":2082:2124   */\n  tag_6\n  jump\t// in\ntag_36:\n    /* \"#utility.yul\":2067:2124   */\n  swap3\n  pop\n  swap1\n  pop\n    /* \"#utility.yul\":2156:2160   */\n  dup2\n    /* \"#utility.yul\":2151:2154   */\n  dup5\n    /* \"#utility.yul\":2147:2161   */\n  div\n    /* \"#utility.yul\":2140:2145   */\n  dup2\n    /* \"#utility.yul\":2137:2162   */\n  gt\n    /* \"#utility.yul\":2134:2185   */\n  iszero\n  tag_37\n  jumpi\n    /* \"#utility.yul\":2165:2183   */\n  tag_38\n  tag_13\n  jump\t// in\ntag_38:\n    /* \"#utility.yul\":2134:2185   */\ntag_37:\n    /* \"#utility.yul\":2214:2218   */\n  dup2\n    /* \"#utility.yul\":2207:2212   */\n  dup2\n    /* \"#utility.yul\":2203:2219   */\n  mul\n    /* \"#utility.yul\":2194:2219   */\n  swap1\n  pop\n    /* \"#utility.yul\":1152:2225   */\ntag_23:\n  swap4\n  swap3\n  pop\n  pop\n  pop\n  jump\t// out\n    /* \"#utility.yul\":2231:2308   */\ntag_19:\n    /* \"#utility.yul\":2268:2275   */\n  0x00\n    /* \"#utility.yul\":2297:2302   */\n  dup2\n    /* \"#utility.yul\":2286:2302   */\n  swap1\n  pop\n    /* \"#utility.yul\":2231:2308   */\n  swap2\n  swap1\n  pop\n  jump\t// out\n    /* \"#utility.yul\":2314:2494   */\ntag_13:\n    /* \"#utility.yul\":2362:2439   */\n  0x4e487b7100000000000000000000000000000000000000000000000000000000\n    /* \"#utility.yul\":2359:2360   */\n  0x00\n    /* \"#utility.yul\":2352:2440   */\n  mstore\n    /* \"#utility.yul\":2459:2463   */\n  0x11\n    /* \"#utility.yul\":2456:2457   */\n  0x04\n    /* \"#utility.yul\":2449:2464   */\n  mstore\n    /* \"#utility.yul\":2483:2487   */\n  0x24\n    /* \"#utility.yul\":2480:2481   */\n  0x00\n    /* \"#utility.yul\":2473:2488   */\n  revert\n    /* \"#utility.yul\":2500:2602   */\ntag_16:\n    /* \"#utility.yul\":2542:2550   */\n  0x00\n    /* \"#utility.yul\":2589:2594   */\n  dup2\n    /* \"#utility.yul\":2586:2587   */\n  0x01\n    /* \"#utility.yul\":2582:2595   */\n  shr\n    /* \"#utility.yul\":2561:2595   */\n  swap1\n  pop\n    /* \"#utility.yul\":2500:2602   */\n  swap2\n  swap1\n  pop\n  jump\t// out\n    /* \"contract/HouseRegistry.sol\":62:2724  contract HouseRegistry {... */\ntag_4:\n  dataSize(sub_0)\n  dup1\n  dataOffset(sub_0)\n  0x00\n  codecopy\n  0x00\n  return\nstop\n\nsub_0: assembly {\n        /* \"contract/HouseRegistry.sol\":62:2724  contract HouseRegistry {... */\n      mstore(0x40, 0x80)\n      callvalue\n      dup1\n      iszero\n      tag_1\n      jumpi\n      0x00\n      dup1\n      revert\n    tag_1:\n      pop\n      jumpi(tag_2, lt(calldatasize, 0x04))\n      shr(0xe0, calldataload(0x00))\n      dup1\n      0x19161161\n      eq\n      tag_3\n      jumpi\n      dup1\n      0x3c3b0b4a\n      eq\n      tag_4\n      jumpi\n      dup1\n      0xaeda852f\n      eq\n      tag_5\n      jumpi\n      dup1\n      0xc45e1b25\n      eq\n      tag_6\n      jumpi\n    tag_2:\n      0x00\n      dup1\n      revert\n        /* \"contract/HouseRegistry.sol\":918:1642  function listHouse (uint _price, uint _priceDai, uint _area, address _sellerAddress, string memory _houseAddress) public returns (uint) {... */\n    tag_3:\n      tag_7\n      0x04\n      dup1\n      calldatasize\n      sub\n      dup2\n      add\n      swap1\n      tag_8\n      swap2\n      swap1\n      tag_9\n      jump\t// in\n    tag_8:\n      tag_10\n      jump\t// in\n    tag_7:\n      mload(0x40)\n      tag_11\n      swap2\n      swap1\n      tag_12\n      jump\t// in\n    tag_11:\n      mload(0x40)\n      dup1\n      swap2\n      sub\n      swap1\n      return\n        /* \"contract/HouseRegistry.sol\":1648:1917  function delistHouse(uint houseId) public returns (string memory){... */\n    tag_4:\n      tag_13\n      0x04\n      dup1\n      calldatasize\n      sub\n      dup2\n      add\n      swap1\n      tag_14\n      swap2\n      swap1\n      tag_15\n      jump\t// in\n    tag_14:\n      tag_16\n      jump\t// in\n    tag_13:\n      mload(0x40)\n      tag_17\n      swap2\n      swap1\n      tag_18\n      jump\t// in\n    tag_17:\n      mload(0x40)\n      dup1\n      swap2\n      sub\n      swap1\n      return\n        /* \"contract/HouseRegistry.sol\":777:813  mapping(uint => House) public houses */\n    tag_5:\n      tag_19\n      0x04\n      dup1\n      calldatasize\n      sub\n      dup2\n      add\n      swap1\n      tag_20\n      swap2\n      swap1\n      tag_15\n      jump\t// in\n    tag_20:\n      tag_21\n      jump\t// in\n    tag_19:\n      mload(0x40)\n      tag_22\n      swap10\n      swap9\n      swap8\n      swap7\n      swap6\n      swap5\n      swap4\n      swap3\n      swap2\n      swap1\n      tag_23\n      jump\t// in\n    tag_22:\n      mload(0x40)\n      dup1\n      swap2\n      sub\n      swap1\n      return\n        /* \"contract/HouseRegistry.sol\":1923:2461  function getCheapHouseIds(uint cost) external view returns (uint[]memory){... */\n    tag_6:\n      tag_24\n      0x04\n      dup1\n      calldatasize\n      sub\n      dup2\n      add\n      swap1\n      tag_25\n      swap2\n      swap1\n      tag_15\n      jump\t// in\n    tag_25:\n      tag_26\n      jump\t// in\n    tag_24:\n      mload(0x40)\n      tag_27\n      swap2\n      swap1\n      tag_28\n      jump\t// in\n    tag_27:\n      mload(0x40)\n      dup1\n      swap2\n      sub\n      swap1\n      return\n        /* \"contract/HouseRegistry.sol\":918:1642  function listHouse (uint _price, uint _priceDai, uint _area, address _sellerAddress, string memory _houseAddress) public returns (uint) {... */\n    tag_10:\n        /* \"contract/HouseRegistry.sol\":1048:1052  uint */\n      0x00\n        /* \"contract/HouseRegistry.sol\":1089:1090  0 */\n      dup1\n        /* \"contract/HouseRegistry.sol\":1081:1086  _area */\n      dup5\n        /* \"contract/HouseRegistry.sol\":1072:1078  _price */\n      dup8\n        /* \"contract/HouseRegistry.sol\":1072:1086  _price * _area */\n      tag_30\n      swap2\n      swap1\n      tag_31\n      jump\t// in\n    tag_30:\n        /* \"contract/HouseRegistry.sol\":1072:1090  _price * _area > 0 */\n      gt\n        /* \"contract/HouseRegistry.sol\":1064:1115  require(_price * _area > 0, \"value cannot be null\") */\n      tag_32\n      jumpi\n      mload(0x40)\n      0x08c379a000000000000000000000000000000000000000000000000000000000\n      dup2\n      mstore\n      0x04\n      add\n      tag_33\n      swap1\n      tag_34\n      jump\t// in\n    tag_33:\n      mload(0x40)\n      dup1\n      swap2\n      sub\n      swap1\n      revert\n    tag_32:\n        /* \"contract/HouseRegistry.sol\":1125:1137  uint houseId */\n      0x00\n        /* \"contract/HouseRegistry.sol\":1140:1194  _generateHouseId(_sellerAddress, _area, _houseAddress) */\n      tag_35\n        /* \"contract/HouseRegistry.sol\":1157:1171  _sellerAddress */\n      dup5\n        /* \"contract/HouseRegistry.sol\":1173:1178  _area */\n      dup7\n        /* \"contract/HouseRegistry.sol\":1180:1193  _houseAddress */\n      dup6\n        /* \"contract/HouseRegistry.sol\":1140:1156  _generateHouseId */\n      tag_36\n        /* \"contract/HouseRegistry.sol\":1140:1194  _generateHouseId(_sellerAddress, _area, _houseAddress) */\n      jump\t// in\n    tag_35:\n        /* \"contract/HouseRegistry.sol\":1125:1194  uint houseId = _generateHouseId(_sellerAddress, _area, _houseAddress) */\n      swap1\n      pop\n        /* \"contract/HouseRegistry.sol\":1223:1229  houses */\n      0x06\n        /* \"contract/HouseRegistry.sol\":1223:1238  houses[houseId] */\n      0x00\n        /* \"contract/HouseRegistry.sol\":1230:1237  houseId */\n      dup3\n        /* \"contract/HouseRegistry.sol\":1223:1238  houses[houseId] */\n      dup2\n      mstore\n      0x20\n      add\n      swap1\n      dup2\n      mstore\n      0x20\n      add\n      0x00\n      keccak256\n        /* \"contract/HouseRegistry.sol\":1223:1241  houses[houseId].id */\n      0x00\n      add\n      sload\n        /* \"contract/HouseRegistry.sol\":1212:1219  houseId */\n      dup2\n        /* \"contract/HouseRegistry.sol\":1212:1241  houseId != houses[houseId].id */\n      eq\n      iszero\n        /* \"contract/HouseRegistry.sol\":1204:1273  require(houseId != houses[houseId].id, \"this houseId already exists\") */\n      tag_37\n      jumpi\n      mload(0x40)\n      0x08c379a000000000000000000000000000000000000000000000000000000000\n      dup2\n      mstore\n      0x04\n      add\n      tag_38\n      swap1\n      tag_39\n      jump\t// in\n    tag_38:\n      mload(0x40)\n      dup1\n      swap2\n      sub\n      swap1\n      revert\n    tag_37:\n        /* \"contract/HouseRegistry.sol\":1301:1410  House(houseId, countOfHouses, _price, _priceDai, _area, _sellerAddress, _sellerAddress, _houseAddress, false) */\n      mload(0x40)\n      dup1\n      0x0120\n      add\n      0x40\n      mstore\n      dup1\n        /* \"contract/HouseRegistry.sol\":1307:1314  houseId */\n      dup3\n        /* \"contract/HouseRegistry.sol\":1301:1410  House(houseId, countOfHouses, _price, _priceDai, _area, _sellerAddress, _sellerAddress, _houseAddress, false) */\n      dup2\n      mstore\n      0x20\n      add\n        /* \"contract/HouseRegistry.sol\":1316:1329  countOfHouses */\n      sload(0x03)\n        /* \"contract/HouseRegistry.sol\":1301:1410  House(houseId, countOfHouses, _price, _priceDai, _area, _sellerAddress, _sellerAddress, _houseAddress, false) */\n      dup2\n      mstore\n      0x20\n      add\n        /* \"contract/HouseRegistry.sol\":1331:1337  _price */\n      dup9\n        /* \"contract/HouseRegistry.sol\":1301:1410  House(houseId, countOfHouses, _price, _priceDai, _area, _sellerAddress, _sellerAddress, _houseAddress, false) */\n      dup2\n      mstore\n      0x20\n      add\n        /* \"contract/HouseRegistry.sol\":1339:1348  _priceDai */\n      dup8\n        /* \"contract/HouseRegistry.sol\":1301:1410  House(houseId, countOfHouses, _price, _priceDai, _area, _sellerAddress, _sellerAddress, _houseAddress, false) */\n      dup2\n      mstore\n      0x20\n      add\n        /* \"contract/HouseRegistry.sol\":1350:1355  _area */\n      dup7\n        /* \"contract/HouseRegistry.sol\":1301:1410  House(houseId, countOfHouses, _price, _priceDai, _area, _sellerAddress, _sellerAddress, _houseAddress, false) */\n      dup2\n      mstore\n      0x20\n      add\n        /* \"contract/HouseRegistry.sol\":1357:1371  _sellerAddress */\n      dup6\n        /* \"contract/HouseRegistry.sol\":1301:1410  House(houseId, countOfHouses, _price, _priceDai, _area, _sellerAddress, _sellerAddress, _houseAddress, false) */\n      0xffffffffffffffffffffffffffffffffffffffff\n      and\n      dup2\n      mstore\n      0x20\n      add\n        /* \"contract/HouseRegistry.sol\":1373:1387  _sellerAddress */\n      dup6\n        /* \"contract/HouseRegistry.sol\":1301:1410  House(houseId, countOfHouses, _price, _priceDai, _area, _sellerAddress, _sellerAddress, _houseAddress, false) */\n      0xffffffffffffffffffffffffffffffffffffffff\n      and\n      dup2\n      mstore\n      0x20\n      add\n        /* \"contract/HouseRegistry.sol\":1389:1402  _houseAddress */\n      dup5\n        /* \"contract/HouseRegistry.sol\":1301:1410  House(houseId, countOfHouses, _price, _priceDai, _area, _sellerAddress, _sellerAddress, _houseAddress, false) */\n      dup2\n      mstore\n      0x20\n      add\n        /* \"contract/HouseRegistry.sol\":1404:1409  false */\n      0x00\n        /* \"contract/HouseRegistry.sol\":1301:1410  House(houseId, countOfHouses, _price, _priceDai, _area, _sellerAddress, _sellerAddress, _houseAddress, false) */\n      iszero\n      iszero\n      dup2\n      mstore\n      pop\n        /* \"contract/HouseRegistry.sol\":1283:1289  houses */\n      0x06\n        /* \"contract/HouseRegistry.sol\":1283:1298  houses[houseId] */\n      0x00\n        /* \"contract/HouseRegistry.sol\":1290:1297  houseId */\n      dup4\n        /* \"contract/HouseRegistry.sol\":1283:1298  houses[houseId] */\n      dup2\n      mstore\n      0x20\n      add\n      swap1\n      dup2\n      mstore\n      0x20\n      add\n      0x00\n      keccak256\n        /* \"contract/HouseRegistry.sol\":1283:1410  houses[houseId] = House(houseId, countOfHouses, _price, _priceDai, _area, _sellerAddress, _sellerAddress, _houseAddress, false) */\n      0x00\n      dup3\n      add\n      mload\n      dup2\n      0x00\n      add\n      sstore\n      0x20\n      dup3\n      add\n      mload\n      dup2\n      0x01\n      add\n      sstore\n      0x40\n      dup3\n      add\n      mload\n      dup2\n      0x02\n      add\n      sstore\n      0x60\n      dup3\n      add\n      mload\n      dup2\n      0x03\n      add\n      sstore\n      0x80\n      dup3\n      add\n      mload\n      dup2\n      0x04\n      add\n      sstore\n      0xa0\n      dup3\n      add\n      mload\n      dup2\n      0x05\n      add\n      exp(0x0100, 0x00)\n      dup2\n      sload\n      dup2\n      0xffffffffffffffffffffffffffffffffffffffff\n      mul\n      not\n      and\n      swap1\n      dup4\n      0xffffffffffffffffffffffffffffffffffffffff\n      and\n      mul\n      or\n      swap1\n      sstore\n      pop\n      0xc0\n      dup3\n      add\n      mload\n      dup2\n      0x06\n      add\n      exp(0x0100, 0x00)\n      dup2\n      sload\n      dup2\n      0xffffffffffffffffffffffffffffffffffffffff\n      mul\n      not\n      and\n      swap1\n      dup4\n      0xffffffffffffffffffffffffffffffffffffffff\n      and\n      mul\n      or\n      swap1\n      sstore\n      pop\n      0xe0\n      dup3\n      add\n      mload\n      dup2\n      0x07\n      add\n      swap1\n      dup1\n      mload\n      swap1\n      0x20\n      add\n      swap1\n      tag_40\n      swap3\n      swap2\n      swap1\n      tag_41\n      jump\t// in\n    tag_40:\n      pop\n      0x0100\n      dup3\n      add\n      mload\n      dup2\n      0x08\n      add\n      exp(0x0100, 0x00)\n      dup2\n      sload\n      dup2\n      0xff\n      mul\n      not\n      and\n      swap1\n      dup4\n      iszero\n      iszero\n      mul\n      or\n      swap1\n      sstore\n      pop\n      swap1\n      pop\n      pop\n        /* \"contract/HouseRegistry.sol\":1421:1467  _ownerCooldown(block.timestamp + cooldownTime) */\n      tag_42\n        /* \"contract/HouseRegistry.sol\":1454:1466  cooldownTime */\n      sload(0x02)\n        /* \"contract/HouseRegistry.sol\":1436:1451  block.timestamp */\n      timestamp\n        /* \"contract/HouseRegistry.sol\":1436:1466  block.timestamp + cooldownTime */\n      tag_43\n      swap2\n      swap1\n      tag_44\n      jump\t// in\n    tag_43:\n        /* \"contract/HouseRegistry.sol\":1421:1435  _ownerCooldown */\n      tag_45\n        /* \"contract/HouseRegistry.sol\":1421:1467  _ownerCooldown(block.timestamp + cooldownTime) */\n      jump\t// in\n    tag_42:\n        /* \"contract/HouseRegistry.sol\":1477:1487  houseIndex */\n      0x05\n        /* \"contract/HouseRegistry.sol\":1493:1500  houseId */\n      dup2\n        /* \"contract/HouseRegistry.sol\":1477:1501  houseIndex.push(houseId) */\n      swap1\n      dup1\n      0x01\n      dup2\n      sload\n      add\n      dup1\n      dup3\n      sstore\n      dup1\n      swap2\n      pop\n      pop\n      0x01\n      swap1\n      sub\n      swap1\n      0x00\n      mstore\n      keccak256(0x00, 0x20)\n      add\n      0x00\n      swap1\n      swap2\n      swap1\n      swap2\n      swap1\n      swap2\n      pop\n      sstore\n        /* \"contract/HouseRegistry.sol\":1511:1524  countOfHouses */\n      0x03\n      0x00\n        /* \"contract/HouseRegistry.sol\":1511:1526  countOfHouses++ */\n      dup2\n      sload\n      dup1\n      swap3\n      swap2\n      swap1\n      tag_47\n      swap1\n      tag_48\n      jump\t// in\n    tag_47:\n      swap2\n      swap1\n      pop\n      sstore\n      pop\n        /* \"contract/HouseRegistry.sol\":1541:1611  AddNewHouse(houseId, _sellerAddress, _price, _priceDai, _houseAddress) */\n      0x3070c472a527c6fdf9d1d29d3f8de3f74a2de6ef97db5cc15b587188b278951f\n        /* \"contract/HouseRegistry.sol\":1553:1560  houseId */\n      dup2\n        /* \"contract/HouseRegistry.sol\":1562:1576  _sellerAddress */\n      dup6\n        /* \"contract/HouseRegistry.sol\":1578:1584  _price */\n      dup10\n        /* \"contract/HouseRegistry.sol\":1586:1595  _priceDai */\n      dup10\n        /* \"contract/HouseRegistry.sol\":1597:1610  _houseAddress */\n      dup8\n        /* \"contract/HouseRegistry.sol\":1541:1611  AddNewHouse(houseId, _sellerAddress, _price, _priceDai, _houseAddress) */\n      mload(0x40)\n      tag_49\n      swap6\n      swap5\n      swap4\n      swap3\n      swap2\n      swap1\n      tag_50\n      jump\t// in\n    tag_49:\n      mload(0x40)\n      dup1\n      swap2\n      sub\n      swap1\n      log1\n        /* \"contract/HouseRegistry.sol\":1628:1635  houseId */\n      dup1\n        /* \"contract/HouseRegistry.sol\":1621:1635  return houseId */\n      swap2\n      pop\n      pop\n        /* \"contract/HouseRegistry.sol\":918:1642  function listHouse (uint _price, uint _priceDai, uint _area, address _sellerAddress, string memory _houseAddress) public returns (uint) {... */\n      swap6\n      swap5\n      pop\n      pop\n      pop\n      pop\n      pop\n      jump\t// out\n        /* \"contract/HouseRegistry.sol\":1648:1917  function delistHouse(uint houseId) public returns (string memory){... */\n    tag_16:\n        /* \"contract/HouseRegistry.sol\":1699:1712  string memory */\n      0x60\n        /* \"contract/HouseRegistry.sol\":1764:1774  msg.sender */\n      caller\n        /* \"contract/HouseRegistry.sol\":1731:1774  houses[houseId].sellerAddress == msg.sender */\n      0xffffffffffffffffffffffffffffffffffffffff\n      and\n        /* \"contract/HouseRegistry.sol\":1731:1737  houses */\n      0x06\n        /* \"contract/HouseRegistry.sol\":1731:1746  houses[houseId] */\n      0x00\n        /* \"contract/HouseRegistry.sol\":1738:1745  houseId */\n      dup5\n        /* \"contract/HouseRegistry.sol\":1731:1746  houses[houseId] */\n      dup2\n      mstore\n      0x20\n      add\n      swap1\n      dup2\n      mstore\n      0x20\n      add\n      0x00\n      keccak256\n        /* \"contract/HouseRegistry.sol\":1731:1760  houses[houseId].sellerAddress */\n      0x05\n      add\n      0x00\n      swap1\n      sload\n      swap1\n      0x0100\n      exp\n      swap1\n      div\n      0xffffffffffffffffffffffffffffffffffffffff\n      and\n        /* \"contract/HouseRegistry.sol\":1731:1774  houses[houseId].sellerAddress == msg.sender */\n      0xffffffffffffffffffffffffffffffffffffffff\n      and\n      eq\n        /* \"contract/HouseRegistry.sol\":1723:1822  require(houses[houseId].sellerAddress == msg.sender, \"You do not have access to delete this house\") */\n      tag_52\n      jumpi\n      mload(0x40)\n      0x08c379a000000000000000000000000000000000000000000000000000000000\n      dup2\n      mstore\n      0x04\n      add\n      tag_53\n      swap1\n      tag_54\n      jump\t// in\n    tag_53:\n      mload(0x40)\n      dup1\n      swap2\n      sub\n      swap1\n      revert\n    tag_52:\n        /* \"contract/HouseRegistry.sol\":1866:1870  true */\n      0x01\n        /* \"contract/HouseRegistry.sol\":1832:1838  houses */\n      0x06\n        /* \"contract/HouseRegistry.sol\":1832:1847  houses[houseId] */\n      0x00\n        /* \"contract/HouseRegistry.sol\":1839:1846  houseId */\n      dup5\n        /* \"contract/HouseRegistry.sol\":1832:1847  houses[houseId] */\n      dup2\n      mstore\n      0x20\n      add\n      swap1\n      dup2\n      mstore\n      0x20\n      add\n      0x00\n      keccak256\n        /* \"contract/HouseRegistry.sol\":1832:1863  houses[houseId].isdelistedHouse */\n      0x08\n      add\n      0x00\n        /* \"contract/HouseRegistry.sol\":1832:1870  houses[houseId].isdelistedHouse = true */\n      0x0100\n      exp\n      dup2\n      sload\n      dup2\n      0xff\n      mul\n      not\n      and\n      swap1\n      dup4\n      iszero\n      iszero\n      mul\n      or\n      swap1\n      sstore\n      pop\n        /* \"contract/HouseRegistry.sol\":1880:1910  return \"delist was successful\" */\n      mload(0x40)\n      dup1\n      0x40\n      add\n      0x40\n      mstore\n      dup1\n      0x15\n      dup2\n      mstore\n      0x20\n      add\n      0x64656c69737420776173207375636365737366756c0000000000000000000000\n      dup2\n      mstore\n      pop\n      swap1\n      pop\n        /* \"contract/HouseRegistry.sol\":1648:1917  function delistHouse(uint houseId) public returns (string memory){... */\n      swap2\n      swap1\n      pop\n      jump\t// out\n        /* \"contract/HouseRegistry.sol\":777:813  mapping(uint => House) public houses */\n    tag_21:\n      mstore(0x20, 0x06)\n      dup1\n      0x00\n      mstore\n      keccak256(0x00, 0x40)\n      0x00\n      swap2\n      pop\n      swap1\n      pop\n      dup1\n      0x00\n      add\n      sload\n      swap1\n      dup1\n      0x01\n      add\n      sload\n      swap1\n      dup1\n      0x02\n      add\n      sload\n      swap1\n      dup1\n      0x03\n      add\n      sload\n      swap1\n      dup1\n      0x04\n      add\n      sload\n      swap1\n      dup1\n      0x05\n      add\n      0x00\n      swap1\n      sload\n      swap1\n      0x0100\n      exp\n      swap1\n      div\n      0xffffffffffffffffffffffffffffffffffffffff\n      and\n      swap1\n      dup1\n      0x06\n      add\n      0x00\n      swap1\n      sload\n      swap1\n      0x0100\n      exp\n      swap1\n      div\n      0xffffffffffffffffffffffffffffffffffffffff\n      and\n      swap1\n      dup1\n      0x07\n      add\n      dup1\n      sload\n      tag_55\n      swap1\n      tag_56\n      jump\t// in\n    tag_55:\n      dup1\n      0x1f\n      add\n      0x20\n      dup1\n      swap2\n      div\n      mul\n      0x20\n      add\n      mload(0x40)\n      swap1\n      dup2\n      add\n      0x40\n      mstore\n      dup1\n      swap3\n      swap2\n      swap1\n      dup2\n      dup2\n      mstore\n      0x20\n      add\n      dup3\n      dup1\n      sload\n      tag_57\n      swap1\n      tag_56\n      jump\t// in\n    tag_57:\n      dup1\n      iszero\n      tag_58\n      jumpi\n      dup1\n      0x1f\n      lt\n      tag_59\n      jumpi\n      0x0100\n      dup1\n      dup4\n      sload\n      div\n      mul\n      dup4\n      mstore\n      swap2\n      0x20\n      add\n      swap2\n      jump(tag_58)\n    tag_59:\n      dup3\n      add\n      swap2\n      swap1\n      0x00\n      mstore\n      keccak256(0x00, 0x20)\n      swap1\n    tag_60:\n      dup2\n      sload\n      dup2\n      mstore\n      swap1\n      0x01\n      add\n      swap1\n      0x20\n      add\n      dup1\n      dup4\n      gt\n      tag_60\n      jumpi\n      dup3\n      swap1\n      sub\n      0x1f\n      and\n      dup3\n      add\n      swap2\n    tag_58:\n      pop\n      pop\n      pop\n      pop\n      pop\n      swap1\n      dup1\n      0x08\n      add\n      0x00\n      swap1\n      sload\n      swap1\n      0x0100\n      exp\n      swap1\n      div\n      0xff\n      and\n      swap1\n      pop\n      dup10\n      jump\t// out\n        /* \"contract/HouseRegistry.sol\":1923:2461  function getCheapHouseIds(uint cost) external view returns (uint[]memory){... */\n    tag_26:\n        /* \"contract/HouseRegistry.sol\":1983:1995  uint[]memory */\n      0x60\n        /* \"contract/HouseRegistry.sol\":2006:2016  uint count */\n      0x00\n        /* \"contract/HouseRegistry.sol\":2034:2040  uint i */\n      dup1\n        /* \"contract/HouseRegistry.sol\":2030:2175  for(uint i = 0; i < houseIndex.length; i++){... */\n    tag_62:\n        /* \"contract/HouseRegistry.sol\":2050:2060  houseIndex */\n      0x05\n        /* \"contract/HouseRegistry.sol\":2050:2067  houseIndex.length */\n      dup1\n      sload\n      swap1\n      pop\n        /* \"contract/HouseRegistry.sol\":2046:2047  i */\n      dup2\n        /* \"contract/HouseRegistry.sol\":2046:2067  i < houseIndex.length */\n      lt\n        /* \"contract/HouseRegistry.sol\":2030:2175  for(uint i = 0; i < houseIndex.length; i++){... */\n      iszero\n      tag_63\n      jumpi\n        /* \"contract/HouseRegistry.sol\":2120:2124  cost */\n      dup4\n        /* \"contract/HouseRegistry.sol\":2090:2096  houses */\n      0x06\n        /* \"contract/HouseRegistry.sol\":2090:2111  houses[houseIndex[i]] */\n      0x00\n        /* \"contract/HouseRegistry.sol\":2097:2107  houseIndex */\n      0x05\n        /* \"contract/HouseRegistry.sol\":2108:2109  i */\n      dup5\n        /* \"contract/HouseRegistry.sol\":2097:2110  houseIndex[i] */\n      dup2\n      sload\n      dup2\n      lt\n      tag_65\n      jumpi\n      tag_66\n      tag_67\n      jump\t// in\n    tag_66:\n    tag_65:\n      swap1\n      0x00\n      mstore\n      keccak256(0x00, 0x20)\n      add\n      sload\n        /* \"contract/HouseRegistry.sol\":2090:2111  houses[houseIndex[i]] */\n      dup2\n      mstore\n      0x20\n      add\n      swap1\n      dup2\n      mstore\n      0x20\n      add\n      0x00\n      keccak256\n        /* \"contract/HouseRegistry.sol\":2090:2117  houses[houseIndex[i]].price */\n      0x02\n      add\n      sload\n        /* \"contract/HouseRegistry.sol\":2090:2124  houses[houseIndex[i]].price < cost */\n      lt\n        /* \"contract/HouseRegistry.sol\":2087:2165  if(houses[houseIndex[i]].price < cost){... */\n      iszero\n      tag_69\n      jumpi\n        /* \"contract/HouseRegistry.sol\":2143:2150  count++ */\n      dup2\n      dup1\n      tag_70\n      swap1\n      tag_48\n      jump\t// in\n    tag_70:\n      swap3\n      pop\n      pop\n        /* \"contract/HouseRegistry.sol\":2087:2165  if(houses[houseIndex[i]].price < cost){... */\n    tag_69:\n        /* \"contract/HouseRegistry.sol\":2069:2072  i++ */\n      dup1\n      dup1\n      tag_71\n      swap1\n      tag_48\n      jump\t// in\n    tag_71:\n      swap2\n      pop\n      pop\n        /* \"contract/HouseRegistry.sol\":2030:2175  for(uint i = 0; i < houseIndex.length; i++){... */\n      jump(tag_62)\n    tag_63:\n      pop\n        /* \"contract/HouseRegistry.sol\":2184:2212  uint[] memory filteredHouses */\n      0x00\n        /* \"contract/HouseRegistry.sol\":2226:2231  count */\n      dup2\n        /* \"contract/HouseRegistry.sol\":2215:2232  new uint[](count) */\n      0xffffffffffffffff\n      dup2\n      gt\n      iszero\n      tag_72\n      jumpi\n      tag_73\n      tag_74\n      jump\t// in\n    tag_73:\n    tag_72:\n      mload(0x40)\n      swap1\n      dup1\n      dup3\n      mstore\n      dup1\n      0x20\n      mul\n      0x20\n      add\n      dup3\n      add\n      0x40\n      mstore\n      dup1\n      iszero\n      tag_75\n      jumpi\n      dup2\n      0x20\n      add\n      0x20\n      dup3\n      mul\n      dup1\n      calldatasize\n      dup4\n      calldatacopy\n      dup1\n      dup3\n      add\n      swap2\n      pop\n      pop\n      swap1\n      pop\n    tag_75:\n      pop\n        /* \"contract/HouseRegistry.sol\":2184:2232  uint[] memory filteredHouses = new uint[](count) */\n      swap1\n      pop\n        /* \"contract/HouseRegistry.sol\":2246:2252  uint i */\n      0x00\n        /* \"contract/HouseRegistry.sol\":2242:2424  for(uint i = 0; i < houseIndex.length; i++){... */\n    tag_76:\n        /* \"contract/HouseRegistry.sol\":2262:2272  houseIndex */\n      0x05\n        /* \"contract/HouseRegistry.sol\":2262:2279  houseIndex.length */\n      dup1\n      sload\n      swap1\n      pop\n        /* \"contract/HouseRegistry.sol\":2258:2259  i */\n      dup2\n        /* \"contract/HouseRegistry.sol\":2258:2279  i < houseIndex.length */\n      lt\n        /* \"contract/HouseRegistry.sol\":2242:2424  for(uint i = 0; i < houseIndex.length; i++){... */\n      iszero\n      tag_77\n      jumpi\n        /* \"contract/HouseRegistry.sol\":2332:2336  cost */\n      dup5\n        /* \"contract/HouseRegistry.sol\":2302:2308  houses */\n      0x06\n        /* \"contract/HouseRegistry.sol\":2302:2323  houses[houseIndex[i]] */\n      0x00\n        /* \"contract/HouseRegistry.sol\":2309:2319  houseIndex */\n      0x05\n        /* \"contract/HouseRegistry.sol\":2320:2321  i */\n      dup5\n        /* \"contract/HouseRegistry.sol\":2309:2322  houseIndex[i] */\n      dup2\n      sload\n      dup2\n      lt\n      tag_79\n      jumpi\n      tag_80\n      tag_67\n      jump\t// in\n    tag_80:\n    tag_79:\n      swap1\n      0x00\n      mstore\n      keccak256(0x00, 0x20)\n      add\n      sload\n        /* \"contract/HouseRegistry.sol\":2302:2323  houses[houseIndex[i]] */\n      dup2\n      mstore\n      0x20\n      add\n      swap1\n      dup2\n      mstore\n      0x20\n      add\n      0x00\n      keccak256\n        /* \"contract/HouseRegistry.sol\":2302:2329  houses[houseIndex[i]].price */\n      0x02\n      add\n      sload\n        /* \"contract/HouseRegistry.sol\":2302:2336  houses[houseIndex[i]].price < cost */\n      lt\n        /* \"contract/HouseRegistry.sol\":2299:2414  if(houses[houseIndex[i]].price < cost){... */\n      iszero\n      tag_82\n      jumpi\n        /* \"contract/HouseRegistry.sol\":2375:2381  houses */\n      0x06\n        /* \"contract/HouseRegistry.sol\":2375:2396  houses[houseIndex[i]] */\n      0x00\n        /* \"contract/HouseRegistry.sol\":2382:2392  houseIndex */\n      0x05\n        /* \"contract/HouseRegistry.sol\":2393:2394  i */\n      dup4\n        /* \"contract/HouseRegistry.sol\":2382:2395  houseIndex[i] */\n      dup2\n      sload\n      dup2\n      lt\n      tag_83\n      jumpi\n      tag_84\n      tag_67\n      jump\t// in\n    tag_84:\n    tag_83:\n      swap1\n      0x00\n      mstore\n      keccak256(0x00, 0x20)\n      add\n      sload\n        /* \"contract/HouseRegistry.sol\":2375:2396  houses[houseIndex[i]] */\n      dup2\n      mstore\n      0x20\n      add\n      swap1\n      dup2\n      mstore\n      0x20\n      add\n      0x00\n      keccak256\n        /* \"contract/HouseRegistry.sol\":2375:2399  houses[houseIndex[i]].id */\n      0x00\n      add\n      sload\n        /* \"contract/HouseRegistry.sol\":2355:2369  filteredHouses */\n      dup3\n        /* \"contract/HouseRegistry.sol\":2370:2371  i */\n      dup3\n        /* \"contract/HouseRegistry.sol\":2355:2372  filteredHouses[i] */\n      dup2\n      mload\n      dup2\n      lt\n      tag_86\n      jumpi\n      tag_87\n      tag_67\n      jump\t// in\n    tag_87:\n    tag_86:\n      0x20\n      mul\n      0x20\n      add\n      add\n        /* \"contract/HouseRegistry.sol\":2355:2399  filteredHouses[i] = houses[houseIndex[i]].id */\n      dup2\n      dup2\n      mstore\n      pop\n      pop\n        /* \"contract/HouseRegistry.sol\":2299:2414  if(houses[houseIndex[i]].price < cost){... */\n    tag_82:\n        /* \"contract/HouseRegistry.sol\":2281:2284  i++ */\n      dup1\n      dup1\n      tag_88\n      swap1\n      tag_48\n      jump\t// in\n    tag_88:\n      swap2\n      pop\n      pop\n        /* \"contract/HouseRegistry.sol\":2242:2424  for(uint i = 0; i < houseIndex.length; i++){... */\n      jump(tag_76)\n    tag_77:\n      pop\n        /* \"contract/HouseRegistry.sol\":2440:2454  filteredHouses */\n      dup1\n        /* \"contract/HouseRegistry.sol\":2433:2454  return filteredHouses */\n      swap3\n      pop\n      pop\n      pop\n        /* \"contract/HouseRegistry.sol\":1923:2461  function getCheapHouseIds(uint cost) external view returns (uint[]memory){... */\n      swap2\n      swap1\n      pop\n      jump\t// out\n        /* \"contract/HouseRegistry.sol\":2467:2721  function _generateHouseId(address _sellerAddress, uint _area, string memory _houseAddress) private view returns(uint){... */\n    tag_36:\n        /* \"contract/HouseRegistry.sol\":2579:2583  uint */\n      0x00\n        /* \"contract/HouseRegistry.sol\":2594:2606  uint houseId */\n      dup1\n        /* \"contract/HouseRegistry.sol\":2641:2655  _sellerAddress */\n      dup5\n        /* \"contract/HouseRegistry.sol\":2657:2662  _area */\n      dup5\n        /* \"contract/HouseRegistry.sol\":2664:2677  _houseAddress */\n      dup5\n        /* \"contract/HouseRegistry.sol\":2624:2678  abi.encodePacked(_sellerAddress, _area, _houseAddress) */\n      add(0x20, mload(0x40))\n      tag_90\n      swap4\n      swap3\n      swap2\n      swap1\n      tag_91\n      jump\t// in\n    tag_90:\n      mload(0x40)\n      0x20\n      dup2\n      dup4\n      sub\n      sub\n      dup2\n      mstore\n      swap1\n      0x40\n      mstore\n        /* \"contract/HouseRegistry.sol\":2614:2679  keccak256(abi.encodePacked(_sellerAddress, _area, _houseAddress)) */\n      dup1\n      mload\n      swap1\n      0x20\n      add\n      keccak256\n        /* \"contract/HouseRegistry.sol\":2609:2680  uint(keccak256(abi.encodePacked(_sellerAddress, _area, _houseAddress))) */\n      0x00\n      shr\n        /* \"contract/HouseRegistry.sol\":2594:2680  uint houseId = uint(keccak256(abi.encodePacked(_sellerAddress, _area, _houseAddress))) */\n      swap1\n      pop\n        /* \"contract/HouseRegistry.sol\":2707:2714  modulus */\n      sload(0x01)\n        /* \"contract/HouseRegistry.sol\":2697:2704  houseId */\n      dup2\n        /* \"contract/HouseRegistry.sol\":2697:2714  houseId % modulus */\n      tag_92\n      swap2\n      swap1\n      tag_93\n      jump\t// in\n    tag_92:\n        /* \"contract/HouseRegistry.sol\":2690:2714  return houseId % modulus */\n      swap2\n      pop\n      pop\n        /* \"contract/HouseRegistry.sol\":2467:2721  function _generateHouseId(address _sellerAddress, uint _area, string memory _houseAddress) private view returns(uint){... */\n      swap4\n      swap3\n      pop\n      pop\n      pop\n      jump\t// out\n        /* \"contract/HouseRegistry.sol\":820:912  function _ownerCooldown(uint _newTime) internal {... */\n    tag_45:\n        /* \"contract/HouseRegistry.sol\":897:905  _newTime */\n      dup1\n        /* \"contract/HouseRegistry.sol\":878:894  ownerAddCooldown */\n      0x04\n        /* \"contract/HouseRegistry.sol\":878:905  ownerAddCooldown = _newTime */\n      dup2\n      swap1\n      sstore\n      pop\n        /* \"contract/HouseRegistry.sol\":820:912  function _ownerCooldown(uint _newTime) internal {... */\n      pop\n      jump\t// out\n    tag_41:\n      dup3\n      dup1\n      sload\n      tag_95\n      swap1\n      tag_56\n      jump\t// in\n    tag_95:\n      swap1\n      0x00\n      mstore\n      keccak256(0x00, 0x20)\n      swap1\n      0x1f\n      add\n      0x20\n      swap1\n      div\n      dup2\n      add\n      swap3\n      dup3\n      tag_97\n      jumpi\n      0x00\n      dup6\n      sstore\n      jump(tag_96)\n    tag_97:\n      dup3\n      0x1f\n      lt\n      tag_98\n      jumpi\n      dup1\n      mload\n      not(0xff)\n      and\n      dup4\n      dup1\n      add\n      or\n      dup6\n      sstore\n      jump(tag_96)\n    tag_98:\n      dup3\n      dup1\n      add\n      0x01\n      add\n      dup6\n      sstore\n      dup3\n      iszero\n      tag_96\n      jumpi\n      swap2\n      dup3\n      add\n    tag_99:\n      dup3\n      dup2\n      gt\n      iszero\n      tag_100\n      jumpi\n      dup3\n      mload\n      dup3\n      sstore\n      swap2\n      0x20\n      add\n      swap2\n      swap1\n      0x01\n      add\n      swap1\n      jump(tag_99)\n    tag_100:\n    tag_96:\n      pop\n      swap1\n      pop\n      tag_101\n      swap2\n      swap1\n      tag_102\n      jump\t// in\n    tag_101:\n      pop\n      swap1\n      jump\t// out\n    tag_102:\n    tag_103:\n      dup1\n      dup3\n      gt\n      iszero\n      tag_104\n      jumpi\n      0x00\n      dup2\n      0x00\n      swap1\n      sstore\n      pop\n      0x01\n      add\n      jump(tag_103)\n    tag_104:\n      pop\n      swap1\n      jump\t// out\n        /* \"#utility.yul\":7:419   */\n    tag_106:\n        /* \"#utility.yul\":85:90   */\n      0x00\n        /* \"#utility.yul\":110:176   */\n      tag_108\n        /* \"#utility.yul\":126:175   */\n      tag_109\n        /* \"#utility.yul\":168:174   */\n      dup5\n        /* \"#utility.yul\":126:175   */\n      tag_110\n      jump\t// in\n    tag_109:\n        /* \"#utility.yul\":110:176   */\n      tag_111\n      jump\t// in\n    tag_108:\n        /* \"#utility.yul\":101:176   */\n      swap1\n      pop\n        /* \"#utility.yul\":199:205   */\n      dup3\n        /* \"#utility.yul\":192:197   */\n      dup2\n        /* \"#utility.yul\":185:206   */\n      mstore\n        /* \"#utility.yul\":237:241   */\n      0x20\n        /* \"#utility.yul\":230:235   */\n      dup2\n        /* \"#utility.yul\":226:242   */\n      add\n        /* \"#utility.yul\":275:278   */\n      dup5\n        /* \"#utility.yul\":266:272   */\n      dup5\n        /* \"#utility.yul\":261:264   */\n      dup5\n        /* \"#utility.yul\":257:273   */\n      add\n        /* \"#utility.yul\":254:279   */\n      gt\n        /* \"#utility.yul\":251:363   */\n      iszero\n      tag_112\n      jumpi\n        /* \"#utility.yul\":282:361   */\n      tag_113\n      tag_114\n      jump\t// in\n    tag_113:\n        /* \"#utility.yul\":251:363   */\n    tag_112:\n        /* \"#utility.yul\":372:413   */\n      tag_115\n        /* \"#utility.yul\":406:412   */\n      dup5\n        /* \"#utility.yul\":401:404   */\n      dup3\n        /* \"#utility.yul\":396:399   */\n      dup6\n        /* \"#utility.yul\":372:413   */\n      tag_116\n      jump\t// in\n    tag_115:\n        /* \"#utility.yul\":91:419   */\n      pop\n        /* \"#utility.yul\":7:419   */\n      swap4\n      swap3\n      pop\n      pop\n      pop\n      jump\t// out\n        /* \"#utility.yul\":425:564   */\n    tag_117:\n        /* \"#utility.yul\":471:476   */\n      0x00\n        /* \"#utility.yul\":509:515   */\n      dup2\n        /* \"#utility.yul\":496:516   */\n      calldataload\n        /* \"#utility.yul\":487:516   */\n      swap1\n      pop\n        /* \"#utility.yul\":525:558   */\n      tag_119\n        /* \"#utility.yul\":552:557   */\n      dup2\n        /* \"#utility.yul\":525:558   */\n      tag_120\n      jump\t// in\n    tag_119:\n        /* \"#utility.yul\":425:564   */\n      swap3\n      swap2\n      pop\n      pop\n      jump\t// out\n        /* \"#utility.yul\":584:924   */\n    tag_121:\n        /* \"#utility.yul\":640:645   */\n      0x00\n        /* \"#utility.yul\":689:692   */\n      dup3\n        /* \"#utility.yul\":682:686   */\n      0x1f\n        /* \"#utility.yul\":674:680   */\n      dup4\n        /* \"#utility.yul\":670:687   */\n      add\n        /* \"#utility.yul\":666:693   */\n      slt\n        /* \"#utility.yul\":656:778   */\n      tag_123\n      jumpi\n        /* \"#utility.yul\":697:776   */\n      tag_124\n      tag_125\n      jump\t// in\n    tag_124:\n        /* \"#utility.yul\":656:778   */\n    tag_123:\n        /* \"#utility.yul\":814:820   */\n      dup2\n        /* \"#utility.yul\":801:821   */\n      calldataload\n        /* \"#utility.yul\":839:918   */\n      tag_126\n        /* \"#utility.yul\":914:917   */\n      dup5\n        /* \"#utility.yul\":906:912   */\n      dup3\n        /* \"#utility.yul\":899:903   */\n      0x20\n        /* \"#utility.yul\":891:897   */\n      dup7\n        /* \"#utility.yul\":887:904   */\n      add\n        /* \"#utility.yul\":839:918   */\n      tag_106\n      jump\t// in\n    tag_126:\n        /* \"#utility.yul\":830:918   */\n      swap2\n      pop\n        /* \"#utility.yul\":646:924   */\n      pop\n        /* \"#utility.yul\":584:924   */\n      swap3\n      swap2\n      pop\n      pop\n      jump\t// out\n        /* \"#utility.yul\":930:1069   */\n    tag_127:\n        /* \"#utility.yul\":976:981   */\n      0x00\n        /* \"#utility.yul\":1014:1020   */\n      dup2\n        /* \"#utility.yul\":1001:1021   */\n      calldataload\n        /* \"#utility.yul\":992:1021   */\n      swap1\n      pop\n        /* \"#utility.yul\":1030:1063   */\n      tag_129\n        /* \"#utility.yul\":1057:1062   */\n      dup2\n        /* \"#utility.yul\":1030:1063   */\n      tag_130\n      jump\t// in\n    tag_129:\n        /* \"#utility.yul\":930:1069   */\n      swap3\n      swap2\n      pop\n      pop\n      jump\t// out\n        /* \"#utility.yul\":1075:1404   */\n    tag_15:\n        /* \"#utility.yul\":1134:1140   */\n      0x00\n        /* \"#utility.yul\":1183:1185   */\n      0x20\n        /* \"#utility.yul\":1171:1180   */\n      dup3\n        /* \"#utility.yul\":1162:1169   */\n      dup5\n        /* \"#utility.yul\":1158:1181   */\n      sub\n        /* \"#utility.yul\":1154:1186   */\n      slt\n        /* \"#utility.yul\":1151:1270   */\n      iszero\n      tag_132\n      jumpi\n        /* \"#utility.yul\":1189:1268   */\n      tag_133\n      tag_134\n      jump\t// in\n    tag_133:\n        /* \"#utility.yul\":1151:1270   */\n    tag_132:\n        /* \"#utility.yul\":1309:1310   */\n      0x00\n        /* \"#utility.yul\":1334:1387   */\n      tag_135\n        /* \"#utility.yul\":1379:1386   */\n      dup5\n        /* \"#utility.yul\":1370:1376   */\n      dup3\n        /* \"#utility.yul\":1359:1368   */\n      dup6\n        /* \"#utility.yul\":1355:1377   */\n      add\n        /* \"#utility.yul\":1334:1387   */\n      tag_127\n      jump\t// in\n    tag_135:\n        /* \"#utility.yul\":1324:1387   */\n      swap2\n      pop\n        /* \"#utility.yul\":1280:1397   */\n      pop\n        /* \"#utility.yul\":1075:1404   */\n      swap3\n      swap2\n      pop\n      pop\n      jump\t// out\n        /* \"#utility.yul\":1410:2501   */\n    tag_9:\n        /* \"#utility.yul\":1515:1521   */\n      0x00\n        /* \"#utility.yul\":1523:1529   */\n      dup1\n        /* \"#utility.yul\":1531:1537   */\n      0x00\n        /* \"#utility.yul\":1539:1545   */\n      dup1\n        /* \"#utility.yul\":1547:1553   */\n      0x00\n        /* \"#utility.yul\":1596:1599   */\n      0xa0\n        /* \"#utility.yul\":1584:1593   */\n      dup7\n        /* \"#utility.yul\":1575:1582   */\n      dup9\n        /* \"#utility.yul\":1571:1594   */\n      sub\n        /* \"#utility.yul\":1567:1600   */\n      slt\n        /* \"#utility.yul\":1564:1684   */\n      iszero\n      tag_137\n      jumpi\n        /* \"#utility.yul\":1603:1682   */\n      tag_138\n      tag_134\n      jump\t// in\n    tag_138:\n        /* \"#utility.yul\":1564:1684   */\n    tag_137:\n        /* \"#utility.yul\":1723:1724   */\n      0x00\n        /* \"#utility.yul\":1748:1801   */\n      tag_139\n        /* \"#utility.yul\":1793:1800   */\n      dup9\n        /* \"#utility.yul\":1784:1790   */\n      dup3\n        /* \"#utility.yul\":1773:1782   */\n      dup10\n        /* \"#utility.yul\":1769:1791   */\n      add\n        /* \"#utility.yul\":1748:1801   */\n      tag_127\n      jump\t// in\n    tag_139:\n        /* \"#utility.yul\":1738:1801   */\n      swap6\n      pop\n        /* \"#utility.yul\":1694:1811   */\n      pop\n        /* \"#utility.yul\":1850:1852   */\n      0x20\n        /* \"#utility.yul\":1876:1929   */\n      tag_140\n        /* \"#utility.yul\":1921:1928   */\n      dup9\n        /* \"#utility.yul\":1912:1918   */\n      dup3\n        /* \"#utility.yul\":1901:1910   */\n      dup10\n        /* \"#utility.yul\":1897:1919   */\n      add\n        /* \"#utility.yul\":1876:1929   */\n      tag_127\n      jump\t// in\n    tag_140:\n        /* \"#utility.yul\":1866:1929   */\n      swap5\n      pop\n        /* \"#utility.yul\":1821:1939   */\n      pop\n        /* \"#utility.yul\":1978:1980   */\n      0x40\n        /* \"#utility.yul\":2004:2057   */\n      tag_141\n        /* \"#utility.yul\":2049:2056   */\n      dup9\n        /* \"#utility.yul\":2040:2046   */\n      dup3\n        /* \"#utility.yul\":2029:2038   */\n      dup10\n        /* \"#utility.yul\":2025:2047   */\n      add\n        /* \"#utility.yul\":2004:2057   */\n      tag_127\n      jump\t// in\n    tag_141:\n        /* \"#utility.yul\":1994:2057   */\n      swap4\n      pop\n        /* \"#utility.yul\":1949:2067   */\n      pop\n        /* \"#utility.yul\":2106:2108   */\n      0x60\n        /* \"#utility.yul\":2132:2185   */\n      tag_142\n        /* \"#utility.yul\":2177:2184   */\n      dup9\n        /* \"#utility.yul\":2168:2174   */\n      dup3\n        /* \"#utility.yul\":2157:2166   */\n      dup10\n        /* \"#utility.yul\":2153:2175   */\n      add\n        /* \"#utility.yul\":2132:2185   */\n      tag_117\n      jump\t// in\n    tag_142:\n        /* \"#utility.yul\":2122:2185   */\n      swap3\n      pop\n        /* \"#utility.yul\":2077:2195   */\n      pop\n        /* \"#utility.yul\":2262:2265   */\n      0x80\n        /* \"#utility.yul\":2251:2260   */\n      dup7\n        /* \"#utility.yul\":2247:2266   */\n      add\n        /* \"#utility.yul\":2234:2267   */\n      calldataload\n        /* \"#utility.yul\":2294:2312   */\n      0xffffffffffffffff\n        /* \"#utility.yul\":2286:2292   */\n      dup2\n        /* \"#utility.yul\":2283:2313   */\n      gt\n        /* \"#utility.yul\":2280:2397   */\n      iszero\n      tag_143\n      jumpi\n        /* \"#utility.yul\":2316:2395   */\n      tag_144\n      tag_145\n      jump\t// in\n    tag_144:\n        /* \"#utility.yul\":2280:2397   */\n    tag_143:\n        /* \"#utility.yul\":2421:2484   */\n      tag_146\n        /* \"#utility.yul\":2476:2483   */\n      dup9\n        /* \"#utility.yul\":2467:2473   */\n      dup3\n        /* \"#utility.yul\":2456:2465   */\n      dup10\n        /* \"#utility.yul\":2452:2474   */\n      add\n        /* \"#utility.yul\":2421:2484   */\n      tag_121\n      jump\t// in\n    tag_146:\n        /* \"#utility.yul\":2411:2484   */\n      swap2\n      pop\n        /* \"#utility.yul\":2205:2494   */\n      pop\n        /* \"#utility.yul\":1410:2501   */\n      swap3\n      swap6\n      pop\n      swap3\n      swap6\n      swap1\n      swap4\n      pop\n      jump\t// out\n        /* \"#utility.yul\":2507:2686   */\n    tag_147:\n        /* \"#utility.yul\":2576:2586   */\n      0x00\n        /* \"#utility.yul\":2597:2643   */\n      tag_149\n        /* \"#utility.yul\":2639:2642   */\n      dup4\n        /* \"#utility.yul\":2631:2637   */\n      dup4\n        /* \"#utility.yul\":2597:2643   */\n      tag_150\n      jump\t// in\n    tag_149:\n        /* \"#utility.yul\":2675:2679   */\n      0x20\n        /* \"#utility.yul\":2670:2673   */\n      dup4\n        /* \"#utility.yul\":2666:2680   */\n      add\n        /* \"#utility.yul\":2652:2680   */\n      swap1\n      pop\n        /* \"#utility.yul\":2507:2686   */\n      swap3\n      swap2\n      pop\n      pop\n      jump\t// out\n        /* \"#utility.yul\":2692:2810   */\n    tag_151:\n        /* \"#utility.yul\":2779:2803   */\n      tag_153\n        /* \"#utility.yul\":2797:2802   */\n      dup2\n        /* \"#utility.yul\":2779:2803   */\n      tag_154\n      jump\t// in\n    tag_153:\n        /* \"#utility.yul\":2774:2777   */\n      dup3\n        /* \"#utility.yul\":2767:2804   */\n      mstore\n        /* \"#utility.yul\":2692:2810   */\n      pop\n      pop\n      jump\t// out\n        /* \"#utility.yul\":2816:2973   */\n    tag_155:\n        /* \"#utility.yul\":2921:2966   */\n      tag_157\n        /* \"#utility.yul\":2941:2965   */\n      tag_158\n        /* \"#utility.yul\":2959:2964   */\n      dup3\n        /* \"#utility.yul\":2941:2965   */\n      tag_154\n      jump\t// in\n    tag_158:\n        /* \"#utility.yul\":2921:2966   */\n      tag_159\n      jump\t// in\n    tag_157:\n        /* \"#utility.yul\":2916:2919   */\n      dup3\n        /* \"#utility.yul\":2909:2967   */\n      mstore\n        /* \"#utility.yul\":2816:2973   */\n      pop\n      pop\n      jump\t// out\n        /* \"#utility.yul\":3009:3741   */\n    tag_160:\n        /* \"#utility.yul\":3128:3131   */\n      0x00\n        /* \"#utility.yul\":3157:3211   */\n      tag_162\n        /* \"#utility.yul\":3205:3210   */\n      dup3\n        /* \"#utility.yul\":3157:3211   */\n      tag_163\n      jump\t// in\n    tag_162:\n        /* \"#utility.yul\":3227:3313   */\n      tag_164\n        /* \"#utility.yul\":3306:3312   */\n      dup2\n        /* \"#utility.yul\":3301:3304   */\n      dup6\n        /* \"#utility.yul\":3227:3313   */\n      tag_165\n      jump\t// in\n    tag_164:\n        /* \"#utility.yul\":3220:3313   */\n      swap4\n      pop\n        /* \"#utility.yul\":3337:3393   */\n      tag_166\n        /* \"#utility.yul\":3387:3392   */\n      dup4\n        /* \"#utility.yul\":3337:3393   */\n      tag_167\n      jump\t// in\n    tag_166:\n        /* \"#utility.yul\":3416:3423   */\n      dup1\n        /* \"#utility.yul\":3447:3448   */\n      0x00\n        /* \"#utility.yul\":3432:3716   */\n    tag_168:\n        /* \"#utility.yul\":3457:3463   */\n      dup4\n        /* \"#utility.yul\":3454:3455   */\n      dup2\n        /* \"#utility.yul\":3451:3464   */\n      lt\n        /* \"#utility.yul\":3432:3716   */\n      iszero\n      tag_170\n      jumpi\n        /* \"#utility.yul\":3533:3539   */\n      dup2\n        /* \"#utility.yul\":3527:3540   */\n      mload\n        /* \"#utility.yul\":3560:3623   */\n      tag_171\n        /* \"#utility.yul\":3619:3622   */\n      dup9\n        /* \"#utility.yul\":3604:3617   */\n      dup3\n        /* \"#utility.yul\":3560:3623   */\n      tag_147\n      jump\t// in\n    tag_171:\n        /* \"#utility.yul\":3553:3623   */\n      swap8\n      pop\n        /* \"#utility.yul\":3646:3706   */\n      tag_172\n        /* \"#utility.yul\":3699:3705   */\n      dup4\n        /* \"#utility.yul\":3646:3706   */\n      tag_173\n      jump\t// in\n    tag_172:\n        /* \"#utility.yul\":3636:3706   */\n      swap3\n      pop\n        /* \"#utility.yul\":3492:3716   */\n      pop\n        /* \"#utility.yul\":3479:3480   */\n      0x01\n        /* \"#utility.yul\":3476:3477   */\n      dup2\n        /* \"#utility.yul\":3472:3481   */\n      add\n        /* \"#utility.yul\":3467:3481   */\n      swap1\n      pop\n        /* \"#utility.yul\":3432:3716   */\n      jump(tag_168)\n    tag_170:\n        /* \"#utility.yul\":3436:3450   */\n      pop\n        /* \"#utility.yul\":3732:3735   */\n      dup6\n        /* \"#utility.yul\":3725:3735   */\n      swap4\n      pop\n        /* \"#utility.yul\":3133:3741   */\n      pop\n      pop\n      pop\n        /* \"#utility.yul\":3009:3741   */\n      swap3\n      swap2\n      pop\n      pop\n      jump\t// out\n        /* \"#utility.yul\":3747:3856   */\n    tag_174:\n        /* \"#utility.yul\":3828:3849   */\n      tag_176\n        /* \"#utility.yul\":3843:3848   */\n      dup2\n        /* \"#utility.yul\":3828:3849   */\n      tag_177\n      jump\t// in\n    tag_176:\n        /* \"#utility.yul\":3823:3826   */\n      dup3\n        /* \"#utility.yul\":3816:3850   */\n      mstore\n        /* \"#utility.yul\":3747:3856   */\n      pop\n      pop\n      jump\t// out\n        /* \"#utility.yul\":3862:4226   */\n    tag_178:\n        /* \"#utility.yul\":3950:3953   */\n      0x00\n        /* \"#utility.yul\":3978:4017   */\n      tag_180\n        /* \"#utility.yul\":4011:4016   */\n      dup3\n        /* \"#utility.yul\":3978:4017   */\n      tag_181\n      jump\t// in\n    tag_180:\n        /* \"#utility.yul\":4033:4104   */\n      tag_182\n        /* \"#utility.yul\":4097:4103   */\n      dup2\n        /* \"#utility.yul\":4092:4095   */\n      dup6\n        /* \"#utility.yul\":4033:4104   */\n      tag_183\n      jump\t// in\n    tag_182:\n        /* \"#utility.yul\":4026:4104   */\n      swap4\n      pop\n        /* \"#utility.yul\":4113:4165   */\n      tag_184\n        /* \"#utility.yul\":4158:4164   */\n      dup2\n        /* \"#utility.yul\":4153:4156   */\n      dup6\n        /* \"#utility.yul\":4146:4150   */\n      0x20\n        /* \"#utility.yul\":4139:4144   */\n      dup7\n        /* \"#utility.yul\":4135:4151   */\n      add\n        /* \"#utility.yul\":4113:4165   */\n      tag_185\n      jump\t// in\n    tag_184:\n        /* \"#utility.yul\":4190:4219   */\n      tag_186\n        /* \"#utility.yul\":4212:4218   */\n      dup2\n        /* \"#utility.yul\":4190:4219   */\n      tag_187\n      jump\t// in\n    tag_186:\n        /* \"#utility.yul\":4185:4188   */\n      dup5\n        /* \"#utility.yul\":4181:4220   */\n      add\n        /* \"#utility.yul\":4174:4220   */\n      swap2\n      pop\n        /* \"#utility.yul\":3954:4226   */\n      pop\n        /* \"#utility.yul\":3862:4226   */\n      swap3\n      swap2\n      pop\n      pop\n      jump\t// out\n        /* \"#utility.yul\":4232:4609   */\n    tag_188:\n        /* \"#utility.yul\":4338:4341   */\n      0x00\n        /* \"#utility.yul\":4366:4405   */\n      tag_190\n        /* \"#utility.yul\":4399:4404   */\n      dup3\n        /* \"#utility.yul\":4366:4405   */\n      tag_181\n      jump\t// in\n    tag_190:\n        /* \"#utility.yul\":4421:4510   */\n      tag_191\n        /* \"#utility.yul\":4503:4509   */\n      dup2\n        /* \"#utility.yul\":4498:4501   */\n      dup6\n        /* \"#utility.yul\":4421:4510   */\n      tag_192\n      jump\t// in\n    tag_191:\n        /* \"#utility.yul\":4414:4510   */\n      swap4\n      pop\n        /* \"#utility.yul\":4519:4571   */\n      tag_193\n        /* \"#utility.yul\":4564:4570   */\n      dup2\n        /* \"#utility.yul\":4559:4562   */\n      dup6\n        /* \"#utility.yul\":4552:4556   */\n      0x20\n        /* \"#utility.yul\":4545:4550   */\n      dup7\n        /* \"#utility.yul\":4541:4557   */\n      add\n        /* \"#utility.yul\":4519:4571   */\n      tag_185\n      jump\t// in\n    tag_193:\n        /* \"#utility.yul\":4596:4602   */\n      dup1\n        /* \"#utility.yul\":4591:4594   */\n      dup5\n        /* \"#utility.yul\":4587:4603   */\n      add\n        /* \"#utility.yul\":4580:4603   */\n      swap2\n      pop\n        /* \"#utility.yul\":4342:4609   */\n      pop\n        /* \"#utility.yul\":4232:4609   */\n      swap3\n      swap2\n      pop\n      pop\n      jump\t// out\n        /* \"#utility.yul\":4615:4981   */\n    tag_194:\n        /* \"#utility.yul\":4757:4760   */\n      0x00\n        /* \"#utility.yul\":4778:4845   */\n      tag_196\n        /* \"#utility.yul\":4842:4844   */\n      0x14\n        /* \"#utility.yul\":4837:4840   */\n      dup4\n        /* \"#utility.yul\":4778:4845   */\n      tag_183\n      jump\t// in\n    tag_196:\n        /* \"#utility.yul\":4771:4845   */\n      swap2\n      pop\n        /* \"#utility.yul\":4854:4947   */\n      tag_197\n        /* \"#utility.yul\":4943:4946   */\n      dup3\n        /* \"#utility.yul\":4854:4947   */\n      tag_198\n      jump\t// in\n    tag_197:\n        /* \"#utility.yul\":4972:4974   */\n      0x20\n        /* \"#utility.yul\":4967:4970   */\n      dup3\n        /* \"#utility.yul\":4963:4975   */\n      add\n        /* \"#utility.yul\":4956:4975   */\n      swap1\n      pop\n        /* \"#utility.yul\":4615:4981   */\n      swap2\n      swap1\n      pop\n      jump\t// out\n        /* \"#utility.yul\":4987:5353   */\n    tag_199:\n        /* \"#utility.yul\":5129:5132   */\n      0x00\n        /* \"#utility.yul\":5150:5217   */\n      tag_201\n        /* \"#utility.yul\":5214:5216   */\n      0x1b\n        /* \"#utility.yul\":5209:5212   */\n      dup4\n        /* \"#utility.yul\":5150:5217   */\n      tag_183\n      jump\t// in\n    tag_201:\n        /* \"#utility.yul\":5143:5217   */\n      swap2\n      pop\n        /* \"#utility.yul\":5226:5319   */\n      tag_202\n        /* \"#utility.yul\":5315:5318   */\n      dup3\n        /* \"#utility.yul\":5226:5319   */\n      tag_203\n      jump\t// in\n    tag_202:\n        /* \"#utility.yul\":5344:5346   */\n      0x20\n        /* \"#utility.yul\":5339:5342   */\n      dup3\n        /* \"#utility.yul\":5335:5347   */\n      add\n        /* \"#utility.yul\":5328:5347   */\n      swap1\n      pop\n        /* \"#utility.yul\":4987:5353   */\n      swap2\n      swap1\n      pop\n      jump\t// out\n        /* \"#utility.yul\":5359:5725   */\n    tag_204:\n        /* \"#utility.yul\":5501:5504   */\n      0x00\n        /* \"#utility.yul\":5522:5589   */\n      tag_206\n        /* \"#utility.yul\":5586:5588   */\n      0x2b\n        /* \"#utility.yul\":5581:5584   */\n      dup4\n        /* \"#utility.yul\":5522:5589   */\n      tag_183\n      jump\t// in\n    tag_206:\n        /* \"#utility.yul\":5515:5589   */\n      swap2\n      pop\n        /* \"#utility.yul\":5598:5691   */\n      tag_207\n        /* \"#utility.yul\":5687:5690   */\n      dup3\n        /* \"#utility.yul\":5598:5691   */\n      tag_208\n      jump\t// in\n    tag_207:\n        /* \"#utility.yul\":5716:5718   */\n      0x40\n        /* \"#utility.yul\":5711:5714   */\n      dup3\n        /* \"#utility.yul\":5707:5719   */\n      add\n        /* \"#utility.yul\":5700:5719   */\n      swap1\n      pop\n        /* \"#utility.yul\":5359:5725   */\n      swap2\n      swap1\n      pop\n      jump\t// out\n        /* \"#utility.yul\":5731:5839   */\n    tag_150:\n        /* \"#utility.yul\":5808:5832   */\n      tag_210\n        /* \"#utility.yul\":5826:5831   */\n      dup2\n        /* \"#utility.yul\":5808:5832   */\n      tag_211\n      jump\t// in\n    tag_210:\n        /* \"#utility.yul\":5803:5806   */\n      dup3\n        /* \"#utility.yul\":5796:5833   */\n      mstore\n        /* \"#utility.yul\":5731:5839   */\n      pop\n      pop\n      jump\t// out\n        /* \"#utility.yul\":5845:5963   */\n    tag_212:\n        /* \"#utility.yul\":5932:5956   */\n      tag_214\n        /* \"#utility.yul\":5950:5955   */\n      dup2\n        /* \"#utility.yul\":5932:5956   */\n      tag_211\n      jump\t// in\n    tag_214:\n        /* \"#utility.yul\":5927:5930   */\n      dup3\n        /* \"#utility.yul\":5920:5957   */\n      mstore\n        /* \"#utility.yul\":5845:5963   */\n      pop\n      pop\n      jump\t// out\n        /* \"#utility.yul\":5969:6126   */\n    tag_215:\n        /* \"#utility.yul\":6074:6119   */\n      tag_217\n        /* \"#utility.yul\":6094:6118   */\n      tag_218\n        /* \"#utility.yul\":6112:6117   */\n      dup3\n        /* \"#utility.yul\":6094:6118   */\n      tag_211\n      jump\t// in\n    tag_218:\n        /* \"#utility.yul\":6074:6119   */\n      tag_219\n      jump\t// in\n    tag_217:\n        /* \"#utility.yul\":6069:6072   */\n      dup3\n        /* \"#utility.yul\":6062:6120   */\n      mstore\n        /* \"#utility.yul\":5969:6126   */\n      pop\n      pop\n      jump\t// out\n        /* \"#utility.yul\":6132:6689   */\n    tag_91:\n        /* \"#utility.yul\":6320:6323   */\n      0x00\n        /* \"#utility.yul\":6335:6410   */\n      tag_221\n        /* \"#utility.yul\":6406:6409   */\n      dup3\n        /* \"#utility.yul\":6397:6403   */\n      dup7\n        /* \"#utility.yul\":6335:6410   */\n      tag_155\n      jump\t// in\n    tag_221:\n        /* \"#utility.yul\":6435:6437   */\n      0x14\n        /* \"#utility.yul\":6430:6433   */\n      dup3\n        /* \"#utility.yul\":6426:6438   */\n      add\n        /* \"#utility.yul\":6419:6438   */\n      swap2\n      pop\n        /* \"#utility.yul\":6448:6523   */\n      tag_222\n        /* \"#utility.yul\":6519:6522   */\n      dup3\n        /* \"#utility.yul\":6510:6516   */\n      dup6\n        /* \"#utility.yul\":6448:6523   */\n      tag_215\n      jump\t// in\n    tag_222:\n        /* \"#utility.yul\":6548:6550   */\n      0x20\n        /* \"#utility.yul\":6543:6546   */\n      dup3\n        /* \"#utility.yul\":6539:6551   */\n      add\n        /* \"#utility.yul\":6532:6551   */\n      swap2\n      pop\n        /* \"#utility.yul\":6568:6663   */\n      tag_223\n        /* \"#utility.yul\":6659:6662   */\n      dup3\n        /* \"#utility.yul\":6650:6656   */\n      dup5\n        /* \"#utility.yul\":6568:6663   */\n      tag_188\n      jump\t// in\n    tag_223:\n        /* \"#utility.yul\":6561:6663   */\n      swap2\n      pop\n        /* \"#utility.yul\":6680:6683   */\n      dup2\n        /* \"#utility.yul\":6673:6683   */\n      swap1\n      pop\n        /* \"#utility.yul\":6132:6689   */\n      swap5\n      swap4\n      pop\n      pop\n      pop\n      pop\n      jump\t// out\n        /* \"#utility.yul\":6695:7068   */\n    tag_28:\n        /* \"#utility.yul\":6838:6842   */\n      0x00\n        /* \"#utility.yul\":6876:6878   */\n      0x20\n        /* \"#utility.yul\":6865:6874   */\n      dup3\n        /* \"#utility.yul\":6861:6879   */\n      add\n        /* \"#utility.yul\":6853:6879   */\n      swap1\n      pop\n        /* \"#utility.yul\":6925:6934   */\n      dup2\n        /* \"#utility.yul\":6919:6923   */\n      dup2\n        /* \"#utility.yul\":6915:6935   */\n      sub\n        /* \"#utility.yul\":6911:6912   */\n      0x00\n        /* \"#utility.yul\":6900:6909   */\n      dup4\n        /* \"#utility.yul\":6896:6913   */\n      add\n        /* \"#utility.yul\":6889:6936   */\n      mstore\n        /* \"#utility.yul\":6953:7061   */\n      tag_225\n        /* \"#utility.yul\":7056:7060   */\n      dup2\n        /* \"#utility.yul\":7047:7053   */\n      dup5\n        /* \"#utility.yul\":6953:7061   */\n      tag_160\n      jump\t// in\n    tag_225:\n        /* \"#utility.yul\":6945:7061   */\n      swap1\n      pop\n        /* \"#utility.yul\":6695:7068   */\n      swap3\n      swap2\n      pop\n      pop\n      jump\t// out\n        /* \"#utility.yul\":7074:7387   */\n    tag_18:\n        /* \"#utility.yul\":7187:7191   */\n      0x00\n        /* \"#utility.yul\":7225:7227   */\n      0x20\n        /* \"#utility.yul\":7214:7223   */\n      dup3\n        /* \"#utility.yul\":7210:7228   */\n      add\n        /* \"#utility.yul\":7202:7228   */\n      swap1\n      pop\n        /* \"#utility.yul\":7274:7283   */\n      dup2\n        /* \"#utility.yul\":7268:7272   */\n      dup2\n        /* \"#utility.yul\":7264:7284   */\n      sub\n        /* \"#utility.yul\":7260:7261   */\n      0x00\n        /* \"#utility.yul\":7249:7258   */\n      dup4\n        /* \"#utility.yul\":7245:7262   */\n      add\n        /* \"#utility.yul\":7238:7285   */\n      mstore\n        /* \"#utility.yul\":7302:7380   */\n      tag_227\n        /* \"#utility.yul\":7375:7379   */\n      dup2\n        /* \"#utility.yul\":7366:7372   */\n      dup5\n        /* \"#utility.yul\":7302:7380   */\n      tag_178\n      jump\t// in\n    tag_227:\n        /* \"#utility.yul\":7294:7380   */\n      swap1\n      pop\n        /* \"#utility.yul\":7074:7387   */\n      swap3\n      swap2\n      pop\n      pop\n      jump\t// out\n        /* \"#utility.yul\":7393:7812   */\n    tag_34:\n        /* \"#utility.yul\":7559:7563   */\n      0x00\n        /* \"#utility.yul\":7597:7599   */\n      0x20\n        /* \"#utility.yul\":7586:7595   */\n      dup3\n        /* \"#utility.yul\":7582:7600   */\n      add\n        /* \"#utility.yul\":7574:7600   */\n      swap1\n      pop\n        /* \"#utility.yul\":7646:7655   */\n      dup2\n        /* \"#utility.yul\":7640:7644   */\n      dup2\n        /* \"#utility.yul\":7636:7656   */\n      sub\n        /* \"#utility.yul\":7632:7633   */\n      0x00\n        /* \"#utility.yul\":7621:7630   */\n      dup4\n        /* \"#utility.yul\":7617:7634   */\n      add\n        /* \"#utility.yul\":7610:7657   */\n      mstore\n        /* \"#utility.yul\":7674:7805   */\n      tag_229\n        /* \"#utility.yul\":7800:7804   */\n      dup2\n        /* \"#utility.yul\":7674:7805   */\n      tag_194\n      jump\t// in\n    tag_229:\n        /* \"#utility.yul\":7666:7805   */\n      swap1\n      pop\n        /* \"#utility.yul\":7393:7812   */\n      swap2\n      swap1\n      pop\n      jump\t// out\n        /* \"#utility.yul\":7818:8237   */\n    tag_39:\n        /* \"#utility.yul\":7984:7988   */\n      0x00\n        /* \"#utility.yul\":8022:8024   */\n      0x20\n        /* \"#utility.yul\":8011:8020   */\n      dup3\n        /* \"#utility.yul\":8007:8025   */\n      add\n        /* \"#utility.yul\":7999:8025   */\n      swap1\n      pop\n        /* \"#utility.yul\":8071:8080   */\n      dup2\n        /* \"#utility.yul\":8065:8069   */\n      dup2\n        /* \"#utility.yul\":8061:8081   */\n      sub\n        /* \"#utility.yul\":8057:8058   */\n      0x00\n        /* \"#utility.yul\":8046:8055   */\n      dup4\n        /* \"#utility.yul\":8042:8059   */\n      add\n        /* \"#utility.yul\":8035:8082   */\n      mstore\n        /* \"#utility.yul\":8099:8230   */\n      tag_231\n        /* \"#utility.yul\":8225:8229   */\n      dup2\n        /* \"#utility.yul\":8099:8230   */\n      tag_199\n      jump\t// in\n    tag_231:\n        /* \"#utility.yul\":8091:8230   */\n      swap1\n      pop\n        /* \"#utility.yul\":7818:8237   */\n      swap2\n      swap1\n      pop\n      jump\t// out\n        /* \"#utility.yul\":8243:8662   */\n    tag_54:\n        /* \"#utility.yul\":8409:8413   */\n      0x00\n        /* \"#utility.yul\":8447:8449   */\n      0x20\n        /* \"#utility.yul\":8436:8445   */\n      dup3\n        /* \"#utility.yul\":8432:8450   */\n      add\n        /* \"#utility.yul\":8424:8450   */\n      swap1\n      pop\n        /* \"#utility.yul\":8496:8505   */\n      dup2\n        /* \"#utility.yul\":8490:8494   */\n      dup2\n        /* \"#utility.yul\":8486:8506   */\n      sub\n        /* \"#utility.yul\":8482:8483   */\n      0x00\n        /* \"#utility.yul\":8471:8480   */\n      dup4\n        /* \"#utility.yul\":8467:8484   */\n      add\n        /* \"#utility.yul\":8460:8507   */\n      mstore\n        /* \"#utility.yul\":8524:8655   */\n      tag_233\n        /* \"#utility.yul\":8650:8654   */\n      dup2\n        /* \"#utility.yul\":8524:8655   */\n      tag_204\n      jump\t// in\n    tag_233:\n        /* \"#utility.yul\":8516:8655   */\n      swap1\n      pop\n        /* \"#utility.yul\":8243:8662   */\n      swap2\n      swap1\n      pop\n      jump\t// out\n        /* \"#utility.yul\":8668:8890   */\n    tag_12:\n        /* \"#utility.yul\":8761:8765   */\n      0x00\n        /* \"#utility.yul\":8799:8801   */\n      0x20\n        /* \"#utility.yul\":8788:8797   */\n      dup3\n        /* \"#utility.yul\":8784:8802   */\n      add\n        /* \"#utility.yul\":8776:8802   */\n      swap1\n      pop\n        /* \"#utility.yul\":8812:8883   */\n      tag_235\n        /* \"#utility.yul\":8880:8881   */\n      0x00\n        /* \"#utility.yul\":8869:8878   */\n      dup4\n        /* \"#utility.yul\":8865:8882   */\n      add\n        /* \"#utility.yul\":8856:8862   */\n      dup5\n        /* \"#utility.yul\":8812:8883   */\n      tag_212\n      jump\t// in\n    tag_235:\n        /* \"#utility.yul\":8668:8890   */\n      swap3\n      swap2\n      pop\n      pop\n      jump\t// out\n        /* \"#utility.yul\":8896:9651   */\n    tag_50:\n        /* \"#utility.yul\":9121:9125   */\n      0x00\n        /* \"#utility.yul\":9159:9162   */\n      0xa0\n        /* \"#utility.yul\":9148:9157   */\n      dup3\n        /* \"#utility.yul\":9144:9163   */\n      add\n        /* \"#utility.yul\":9136:9163   */\n      swap1\n      pop\n        /* \"#utility.yul\":9173:9244   */\n      tag_237\n        /* \"#utility.yul\":9241:9242   */\n      0x00\n        /* \"#utility.yul\":9230:9239   */\n      dup4\n        /* \"#utility.yul\":9226:9243   */\n      add\n        /* \"#utility.yul\":9217:9223   */\n      dup9\n        /* \"#utility.yul\":9173:9244   */\n      tag_212\n      jump\t// in\n    tag_237:\n        /* \"#utility.yul\":9254:9326   */\n      tag_238\n        /* \"#utility.yul\":9322:9324   */\n      0x20\n        /* \"#utility.yul\":9311:9320   */\n      dup4\n        /* \"#utility.yul\":9307:9325   */\n      add\n        /* \"#utility.yul\":9298:9304   */\n      dup8\n        /* \"#utility.yul\":9254:9326   */\n      tag_151\n      jump\t// in\n    tag_238:\n        /* \"#utility.yul\":9336:9408   */\n      tag_239\n        /* \"#utility.yul\":9404:9406   */\n      0x40\n        /* \"#utility.yul\":9393:9402   */\n      dup4\n        /* \"#utility.yul\":9389:9407   */\n      add\n        /* \"#utility.yul\":9380:9386   */\n      dup7\n        /* \"#utility.yul\":9336:9408   */\n      tag_212\n      jump\t// in\n    tag_239:\n        /* \"#utility.yul\":9418:9490   */\n      tag_240\n        /* \"#utility.yul\":9486:9488   */\n      0x60\n        /* \"#utility.yul\":9475:9484   */\n      dup4\n        /* \"#utility.yul\":9471:9489   */\n      add\n        /* \"#utility.yul\":9462:9468   */\n      dup6\n        /* \"#utility.yul\":9418:9490   */\n      tag_212\n      jump\t// in\n    tag_240:\n        /* \"#utility.yul\":9538:9547   */\n      dup2\n        /* \"#utility.yul\":9532:9536   */\n      dup2\n        /* \"#utility.yul\":9528:9548   */\n      sub\n        /* \"#utility.yul\":9522:9525   */\n      0x80\n        /* \"#utility.yul\":9511:9520   */\n      dup4\n        /* \"#utility.yul\":9507:9526   */\n      add\n        /* \"#utility.yul\":9500:9549   */\n      mstore\n        /* \"#utility.yul\":9566:9644   */\n      tag_241\n        /* \"#utility.yul\":9639:9643   */\n      dup2\n        /* \"#utility.yul\":9630:9636   */\n      dup5\n        /* \"#utility.yul\":9566:9644   */\n      tag_178\n      jump\t// in\n    tag_241:\n        /* \"#utility.yul\":9558:9644   */\n      swap1\n      pop\n        /* \"#utility.yul\":8896:9651   */\n      swap7\n      swap6\n      pop\n      pop\n      pop\n      pop\n      pop\n      pop\n      jump\t// out\n        /* \"#utility.yul\":9657:10844   */\n    tag_23:\n        /* \"#utility.yul\":9988:9992   */\n      0x00\n        /* \"#utility.yul\":10026:10029   */\n      0x0120\n        /* \"#utility.yul\":10015:10024   */\n      dup3\n        /* \"#utility.yul\":10011:10030   */\n      add\n        /* \"#utility.yul\":10003:10030   */\n      swap1\n      pop\n        /* \"#utility.yul\":10040:10111   */\n      tag_243\n        /* \"#utility.yul\":10108:10109   */\n      0x00\n        /* \"#utility.yul\":10097:10106   */\n      dup4\n        /* \"#utility.yul\":10093:10110   */\n      add\n        /* \"#utility.yul\":10084:10090   */\n      dup13\n        /* \"#utility.yul\":10040:10111   */\n      tag_212\n      jump\t// in\n    tag_243:\n        /* \"#utility.yul\":10121:10193   */\n      tag_244\n        /* \"#utility.yul\":10189:10191   */\n      0x20\n        /* \"#utility.yul\":10178:10187   */\n      dup4\n        /* \"#utility.yul\":10174:10192   */\n      add\n        /* \"#utility.yul\":10165:10171   */\n      dup12\n        /* \"#utility.yul\":10121:10193   */\n      tag_212\n      jump\t// in\n    tag_244:\n        /* \"#utility.yul\":10203:10275   */\n      tag_245\n        /* \"#utility.yul\":10271:10273   */\n      0x40\n        /* \"#utility.yul\":10260:10269   */\n      dup4\n        /* \"#utility.yul\":10256:10274   */\n      add\n        /* \"#utility.yul\":10247:10253   */\n      dup11\n        /* \"#utility.yul\":10203:10275   */\n      tag_212\n      jump\t// in\n    tag_245:\n        /* \"#utility.yul\":10285:10357   */\n      tag_246\n        /* \"#utility.yul\":10353:10355   */\n      0x60\n        /* \"#utility.yul\":10342:10351   */\n      dup4\n        /* \"#utility.yul\":10338:10356   */\n      add\n        /* \"#utility.yul\":10329:10335   */\n      dup10\n        /* \"#utility.yul\":10285:10357   */\n      tag_212\n      jump\t// in\n    tag_246:\n        /* \"#utility.yul\":10367:10440   */\n      tag_247\n        /* \"#utility.yul\":10435:10438   */\n      0x80\n        /* \"#utility.yul\":10424:10433   */\n      dup4\n        /* \"#utility.yul\":10420:10439   */\n      add\n        /* \"#utility.yul\":10411:10417   */\n      dup9\n        /* \"#utility.yul\":10367:10440   */\n      tag_212\n      jump\t// in\n    tag_247:\n        /* \"#utility.yul\":10450:10523   */\n      tag_248\n        /* \"#utility.yul\":10518:10521   */\n      0xa0\n        /* \"#utility.yul\":10507:10516   */\n      dup4\n        /* \"#utility.yul\":10503:10522   */\n      add\n        /* \"#utility.yul\":10494:10500   */\n      dup8\n        /* \"#utility.yul\":10450:10523   */\n      tag_151\n      jump\t// in\n    tag_248:\n        /* \"#utility.yul\":10533:10606   */\n      tag_249\n        /* \"#utility.yul\":10601:10604   */\n      0xc0\n        /* \"#utility.yul\":10590:10599   */\n      dup4\n        /* \"#utility.yul\":10586:10605   */\n      add\n        /* \"#utility.yul\":10577:10583   */\n      dup7\n        /* \"#utility.yul\":10533:10606   */\n      tag_151\n      jump\t// in\n    tag_249:\n        /* \"#utility.yul\":10654:10663   */\n      dup2\n        /* \"#utility.yul\":10648:10652   */\n      dup2\n        /* \"#utility.yul\":10644:10664   */\n      sub\n        /* \"#utility.yul\":10638:10641   */\n      0xe0\n        /* \"#utility.yul\":10627:10636   */\n      dup4\n        /* \"#utility.yul\":10623:10642   */\n      add\n        /* \"#utility.yul\":10616:10665   */\n      mstore\n        /* \"#utility.yul\":10682:10760   */\n      tag_250\n        /* \"#utility.yul\":10755:10759   */\n      dup2\n        /* \"#utility.yul\":10746:10752   */\n      dup6\n        /* \"#utility.yul\":10682:10760   */\n      tag_178\n      jump\t// in\n    tag_250:\n        /* \"#utility.yul\":10674:10760   */\n      swap1\n      pop\n        /* \"#utility.yul\":10770:10837   */\n      tag_251\n        /* \"#utility.yul\":10832:10835   */\n      0x0100\n        /* \"#utility.yul\":10821:10830   */\n      dup4\n        /* \"#utility.yul\":10817:10836   */\n      add\n        /* \"#utility.yul\":10808:10814   */\n      dup5\n        /* \"#utility.yul\":10770:10837   */\n      tag_174\n      jump\t// in\n    tag_251:\n        /* \"#utility.yul\":9657:10844   */\n      swap11\n      swap10\n      pop\n      pop\n      pop\n      pop\n      pop\n      pop\n      pop\n      pop\n      pop\n      pop\n      jump\t// out\n        /* \"#utility.yul\":10850:10979   */\n    tag_111:\n        /* \"#utility.yul\":10884:10890   */\n      0x00\n        /* \"#utility.yul\":10911:10931   */\n      tag_253\n      tag_254\n      jump\t// in\n    tag_253:\n        /* \"#utility.yul\":10901:10931   */\n      swap1\n      pop\n        /* \"#utility.yul\":10940:10973   */\n      tag_255\n        /* \"#utility.yul\":10968:10972   */\n      dup3\n        /* \"#utility.yul\":10960:10966   */\n      dup3\n        /* \"#utility.yul\":10940:10973   */\n      tag_256\n      jump\t// in\n    tag_255:\n        /* \"#utility.yul\":10850:10979   */\n      swap2\n      swap1\n      pop\n      jump\t// out\n        /* \"#utility.yul\":10985:11060   */\n    tag_254:\n        /* \"#utility.yul\":11018:11024   */\n      0x00\n        /* \"#utility.yul\":11051:11053   */\n      0x40\n        /* \"#utility.yul\":11045:11054   */\n      mload\n        /* \"#utility.yul\":11035:11054   */\n      swap1\n      pop\n        /* \"#utility.yul\":10985:11060   */\n      swap1\n      jump\t// out\n        /* \"#utility.yul\":11066:11374   */\n    tag_110:\n        /* \"#utility.yul\":11128:11132   */\n      0x00\n        /* \"#utility.yul\":11218:11236   */\n      0xffffffffffffffff\n        /* \"#utility.yul\":11210:11216   */\n      dup3\n        /* \"#utility.yul\":11207:11237   */\n      gt\n        /* \"#utility.yul\":11204:11260   */\n      iszero\n      tag_259\n      jumpi\n        /* \"#utility.yul\":11240:11258   */\n      tag_260\n      tag_74\n      jump\t// in\n    tag_260:\n        /* \"#utility.yul\":11204:11260   */\n    tag_259:\n        /* \"#utility.yul\":11278:11307   */\n      tag_261\n        /* \"#utility.yul\":11300:11306   */\n      dup3\n        /* \"#utility.yul\":11278:11307   */\n      tag_187\n      jump\t// in\n    tag_261:\n        /* \"#utility.yul\":11270:11307   */\n      swap1\n      pop\n        /* \"#utility.yul\":11362:11366   */\n      0x20\n        /* \"#utility.yul\":11356:11360   */\n      dup2\n        /* \"#utility.yul\":11352:11367   */\n      add\n        /* \"#utility.yul\":11344:11367   */\n      swap1\n      pop\n        /* \"#utility.yul\":11066:11374   */\n      swap2\n      swap1\n      pop\n      jump\t// out\n        /* \"#utility.yul\":11380:11512   */\n    tag_167:\n        /* \"#utility.yul\":11447:11451   */\n      0x00\n        /* \"#utility.yul\":11470:11473   */\n      dup2\n        /* \"#utility.yul\":11462:11473   */\n      swap1\n      pop\n        /* \"#utility.yul\":11500:11504   */\n      0x20\n        /* \"#utility.yul\":11495:11498   */\n      dup3\n        /* \"#utility.yul\":11491:11505   */\n      add\n        /* \"#utility.yul\":11483:11505   */\n      swap1\n      pop\n        /* \"#utility.yul\":11380:11512   */\n      swap2\n      swap1\n      pop\n      jump\t// out\n        /* \"#utility.yul\":11518:11632   */\n    tag_163:\n        /* \"#utility.yul\":11585:11591   */\n      0x00\n        /* \"#utility.yul\":11619:11624   */\n      dup2\n        /* \"#utility.yul\":11613:11625   */\n      mload\n        /* \"#utility.yul\":11603:11625   */\n      swap1\n      pop\n        /* \"#utility.yul\":11518:11632   */\n      swap2\n      swap1\n      pop\n      jump\t// out\n        /* \"#utility.yul\":11638:11737   */\n    tag_181:\n        /* \"#utility.yul\":11690:11696   */\n      0x00\n        /* \"#utility.yul\":11724:11729   */\n      dup2\n        /* \"#utility.yul\":11718:11730   */\n      mload\n        /* \"#utility.yul\":11708:11730   */\n      swap1\n      pop\n        /* \"#utility.yul\":11638:11737   */\n      swap2\n      swap1\n      pop\n      jump\t// out\n        /* \"#utility.yul\":11743:11856   */\n    tag_173:\n        /* \"#utility.yul\":11813:11817   */\n      0x00\n        /* \"#utility.yul\":11845:11849   */\n      0x20\n        /* \"#utility.yul\":11840:11843   */\n      dup3\n        /* \"#utility.yul\":11836:11850   */\n      add\n        /* \"#utility.yul\":11828:11850   */\n      swap1\n      pop\n        /* \"#utility.yul\":11743:11856   */\n      swap2\n      swap1\n      pop\n      jump\t// out\n        /* \"#utility.yul\":11862:12046   */\n    tag_165:\n        /* \"#utility.yul\":11961:11972   */\n      0x00\n        /* \"#utility.yul\":11995:12001   */\n      dup3\n        /* \"#utility.yul\":11990:11993   */\n      dup3\n        /* \"#utility.yul\":11983:12002   */\n      mstore\n        /* \"#utility.yul\":12035:12039   */\n      0x20\n        /* \"#utility.yul\":12030:12033   */\n      dup3\n        /* \"#utility.yul\":12026:12040   */\n      add\n        /* \"#utility.yul\":12011:12040   */\n      swap1\n      pop\n        /* \"#utility.yul\":11862:12046   */\n      swap3\n      swap2\n      pop\n      pop\n      jump\t// out\n        /* \"#utility.yul\":12052:12221   */\n    tag_183:\n        /* \"#utility.yul\":12136:12147   */\n      0x00\n        /* \"#utility.yul\":12170:12176   */\n      dup3\n        /* \"#utility.yul\":12165:12168   */\n      dup3\n        /* \"#utility.yul\":12158:12177   */\n      mstore\n        /* \"#utility.yul\":12210:12214   */\n      0x20\n        /* \"#utility.yul\":12205:12208   */\n      dup3\n        /* \"#utility.yul\":12201:12215   */\n      add\n        /* \"#utility.yul\":12186:12215   */\n      swap1\n      pop\n        /* \"#utility.yul\":12052:12221   */\n      swap3\n      swap2\n      pop\n      pop\n      jump\t// out\n        /* \"#utility.yul\":12227:12375   */\n    tag_192:\n        /* \"#utility.yul\":12329:12340   */\n      0x00\n        /* \"#utility.yul\":12366:12369   */\n      dup2\n        /* \"#utility.yul\":12351:12369   */\n      swap1\n      pop\n        /* \"#utility.yul\":12227:12375   */\n      swap3\n      swap2\n      pop\n      pop\n      jump\t// out\n        /* \"#utility.yul\":12381:12686   */\n    tag_44:\n        /* \"#utility.yul\":12421:12424   */\n      0x00\n        /* \"#utility.yul\":12440:12460   */\n      tag_270\n        /* \"#utility.yul\":12458:12459   */\n      dup3\n        /* \"#utility.yul\":12440:12460   */\n      tag_211\n      jump\t// in\n    tag_270:\n        /* \"#utility.yul\":12435:12460   */\n      swap2\n      pop\n        /* \"#utility.yul\":12474:12494   */\n      tag_271\n        /* \"#utility.yul\":12492:12493   */\n      dup4\n        /* \"#utility.yul\":12474:12494   */\n      tag_211\n      jump\t// in\n    tag_271:\n        /* \"#utility.yul\":12469:12494   */\n      swap3\n      pop\n        /* \"#utility.yul\":12628:12629   */\n      dup3\n        /* \"#utility.yul\":12560:12626   */\n      0xffffffffffffffffffffffffffffffffffffffffffffffffffffffffffffffff\n        /* \"#utility.yul\":12556:12630   */\n      sub\n        /* \"#utility.yul\":12553:12554   */\n      dup3\n        /* \"#utility.yul\":12550:12631   */\n      gt\n        /* \"#utility.yul\":12547:12654   */\n      iszero\n      tag_272\n      jumpi\n        /* \"#utility.yul\":12634:12652   */\n      tag_273\n      tag_274\n      jump\t// in\n    tag_273:\n        /* \"#utility.yul\":12547:12654   */\n    tag_272:\n        /* \"#utility.yul\":12678:12679   */\n      dup3\n        /* \"#utility.yul\":12675:12676   */\n      dup3\n        /* \"#utility.yul\":12671:12680   */\n      add\n        /* \"#utility.yul\":12664:12680   */\n      swap1\n      pop\n        /* \"#utility.yul\":12381:12686   */\n      swap3\n      swap2\n      pop\n      pop\n      jump\t// out\n        /* \"#utility.yul\":12692:13040   */\n    tag_31:\n        /* \"#utility.yul\":12732:12739   */\n      0x00\n        /* \"#utility.yul\":12755:12775   */\n      tag_276\n        /* \"#utility.yul\":12773:12774   */\n      dup3\n        /* \"#utility.yul\":12755:12775   */\n      tag_211\n      jump\t// in\n    tag_276:\n        /* \"#utility.yul\":12750:12775   */\n      swap2\n      pop\n        /* \"#utility.yul\":12789:12809   */\n      tag_277\n        /* \"#utility.yul\":12807:12808   */\n      dup4\n        /* \"#utility.yul\":12789:12809   */\n      tag_211\n      jump\t// in\n    tag_277:\n        /* \"#utility.yul\":12784:12809   */\n      swap3\n      pop\n        /* \"#utility.yul\":12977:12978   */\n      dup2\n        /* \"#utility.yul\":12909:12975   */\n      0xffffffffffffffffffffffffffffffffffffffffffffffffffffffffffffffff\n        /* \"#utility.yul\":12905:12979   */\n      div\n        /* \"#utility.yul\":12902:12903   */\n      dup4\n        /* \"#utility.yul\":12899:12980   */\n      gt\n        /* \"#utility.yul\":12894:12895   */\n      dup3\n        /* \"#utility.yul\":12887:12896   */\n      iszero\n        /* \"#utility.yul\":12880:12897   */\n      iszero\n        /* \"#utility.yul\":12876:12981   */\n      and\n        /* \"#utility.yul\":12873:13004   */\n      iszero\n      tag_278\n      jumpi\n        /* \"#utility.yul\":12984:13002   */\n      tag_279\n      tag_274\n      jump\t// in\n    tag_279:\n        /* \"#utility.yul\":12873:13004   */\n    tag_278:\n        /* \"#utility.yul\":13032:13033   */\n      dup3\n        /* \"#utility.yul\":13029:13030   */\n      dup3\n        /* \"#utility.yul\":13025:13034   */\n      mul\n        /* \"#utility.yul\":13014:13034   */\n      swap1\n      pop\n        /* \"#utility.yul\":12692:13040   */\n      swap3\n      swap2\n      pop\n      pop\n      jump\t// out\n        /* \"#utility.yul\":13046:13142   */\n    tag_154:\n        /* \"#utility.yul\":13083:13090   */\n      0x00\n        /* \"#utility.yul\":13112:13136   */\n      tag_281\n        /* \"#utility.yul\":13130:13135   */\n      dup3\n        /* \"#utility.yul\":13112:13136   */\n      tag_282\n      jump\t// in\n    tag_281:\n        /* \"#utility.yul\":13101:13136   */\n      swap1\n      pop\n        /* \"#utility.yul\":13046:13142   */\n      swap2\n      swap1\n      pop\n      jump\t// out\n        /* \"#utility.yul\":13148:13238   */\n    tag_177:\n        /* \"#utility.yul\":13182:13189   */\n      0x00\n        /* \"#utility.yul\":13225:13230   */\n      dup2\n        /* \"#utility.yul\":13218:13231   */\n      iszero\n        /* \"#utility.yul\":13211:13232   */\n      iszero\n        /* \"#utility.yul\":13200:13232   */\n      swap1\n      pop\n        /* \"#utility.yul\":13148:13238   */\n      swap2\n      swap1\n      pop\n      jump\t// out\n        /* \"#utility.yul\":13244:13370   */\n    tag_282:\n        /* \"#utility.yul\":13281:13288   */\n      0x00\n        /* \"#utility.yul\":13321:13363   */\n      0xffffffffffffffffffffffffffffffffffffffff\n        /* \"#utility.yul\":13314:13319   */\n      dup3\n        /* \"#utility.yul\":13310:13364   */\n      and\n        /* \"#utility.yul\":13299:13364   */\n      swap1\n      pop\n        /* \"#utility.yul\":13244:13370   */\n      swap2\n      swap1\n      pop\n      jump\t// out\n        /* \"#utility.yul\":13376:13453   */\n    tag_211:\n        /* \"#utility.yul\":13413:13420   */\n      0x00\n        /* \"#utility.yul\":13442:13447   */\n      dup2\n        /* \"#utility.yul\":13431:13447   */\n      swap1\n      pop\n        /* \"#utility.yul\":13376:13453   */\n      swap2\n      swap1\n      pop\n      jump\t// out\n        /* \"#utility.yul\":13459:13613   */\n    tag_116:\n        /* \"#utility.yul\":13543:13549   */\n      dup3\n        /* \"#utility.yul\":13538:13541   */\n      dup2\n        /* \"#utility.yul\":13533:13536   */\n      dup4\n        /* \"#utility.yul\":13520:13550   */\n      calldatacopy\n        /* \"#utility.yul\":13605:13606   */\n      0x00\n        /* \"#utility.yul\":13596:13602   */\n      dup4\n        /* \"#utility.yul\":13591:13594   */\n      dup4\n        /* \"#utility.yul\":13587:13603   */\n      add\n        /* \"#utility.yul\":13580:13607   */\n      mstore\n        /* \"#utility.yul\":13459:13613   */\n      pop\n      pop\n      pop\n      jump\t// out\n        /* \"#utility.yul\":13619:13926   */\n    tag_185:\n        /* \"#utility.yul\":13687:13688   */\n      0x00\n        /* \"#utility.yul\":13697:13810   */\n    tag_288:\n        /* \"#utility.yul\":13711:13717   */\n      dup4\n        /* \"#utility.yul\":13708:13709   */\n      dup2\n        /* \"#utility.yul\":13705:13718   */\n      lt\n        /* \"#utility.yul\":13697:13810   */\n      iszero\n      tag_290\n      jumpi\n        /* \"#utility.yul\":13796:13797   */\n      dup1\n        /* \"#utility.yul\":13791:13794   */\n      dup3\n        /* \"#utility.yul\":13787:13798   */\n      add\n        /* \"#utility.yul\":13781:13799   */\n      mload\n        /* \"#utility.yul\":13777:13778   */\n      dup2\n        /* \"#utility.yul\":13772:13775   */\n      dup5\n        /* \"#utility.yul\":13768:13779   */\n      add\n        /* \"#utility.yul\":13761:13800   */\n      mstore\n        /* \"#utility.yul\":13733:13735   */\n      0x20\n        /* \"#utility.yul\":13730:13731   */\n      dup2\n        /* \"#utility.yul\":13726:13736   */\n      add\n        /* \"#utility.yul\":13721:13736   */\n      swap1\n      pop\n        /* \"#utility.yul\":13697:13810   */\n      jump(tag_288)\n    tag_290:\n        /* \"#utility.yul\":13828:13834   */\n      dup4\n        /* \"#utility.yul\":13825:13826   */\n      dup2\n        /* \"#utility.yul\":13822:13835   */\n      gt\n        /* \"#utility.yul\":13819:13920   */\n      iszero\n      tag_291\n      jumpi\n        /* \"#utility.yul\":13908:13909   */\n      0x00\n        /* \"#utility.yul\":13899:13905   */\n      dup5\n        /* \"#utility.yul\":13894:13897   */\n      dup5\n        /* \"#utility.yul\":13890:13906   */\n      add\n        /* \"#utility.yul\":13883:13910   */\n      mstore\n        /* \"#utility.yul\":13819:13920   */\n    tag_291:\n        /* \"#utility.yul\":13668:13926   */\n      pop\n        /* \"#utility.yul\":13619:13926   */\n      pop\n      pop\n      pop\n      jump\t// out\n        /* \"#utility.yul\":13932:14252   */\n    tag_56:\n        /* \"#utility.yul\":13976:13982   */\n      0x00\n        /* \"#utility.yul\":14013:14014   */\n      0x02\n        /* \"#utility.yul\":14007:14011   */\n      dup3\n        /* \"#utility.yul\":14003:14015   */\n      div\n        /* \"#utility.yul\":13993:14015   */\n      swap1\n      pop\n        /* \"#utility.yul\":14060:14061   */\n      0x01\n        /* \"#utility.yul\":14054:14058   */\n      dup3\n        /* \"#utility.yul\":14050:14062   */\n      and\n        /* \"#utility.yul\":14081:14099   */\n      dup1\n        /* \"#utility.yul\":14071:14152   */\n      tag_293\n      jumpi\n        /* \"#utility.yul\":14137:14141   */\n      0x7f\n        /* \"#utility.yul\":14129:14135   */\n      dup3\n        /* \"#utility.yul\":14125:14142   */\n      and\n        /* \"#utility.yul\":14115:14142   */\n      swap2\n      pop\n        /* \"#utility.yul\":14071:14152   */\n    tag_293:\n        /* \"#utility.yul\":14199:14201   */\n      0x20\n        /* \"#utility.yul\":14191:14197   */\n      dup3\n        /* \"#utility.yul\":14188:14202   */\n      lt\n        /* \"#utility.yul\":14168:14186   */\n      dup2\n        /* \"#utility.yul\":14165:14203   */\n      eq\n        /* \"#utility.yul\":14162:14246   */\n      iszero\n      tag_294\n      jumpi\n        /* \"#utility.yul\":14218:14236   */\n      tag_295\n      tag_296\n      jump\t// in\n    tag_295:\n        /* \"#utility.yul\":14162:14246   */\n    tag_294:\n        /* \"#utility.yul\":13983:14252   */\n      pop\n        /* \"#utility.yul\":13932:14252   */\n      swap2\n      swap1\n      pop\n      jump\t// out\n        /* \"#utility.yul\":14258:14539   */\n    tag_256:\n        /* \"#utility.yul\":14341:14368   */\n      tag_298\n        /* \"#utility.yul\":14363:14367   */\n      dup3\n        /* \"#utility.yul\":14341:14368   */\n      tag_187\n      jump\t// in\n    tag_298:\n        /* \"#utility.yul\":14333:14339   */\n      dup2\n        /* \"#utility.yul\":14329:14369   */\n      add\n        /* \"#utility.yul\":14471:14477   */\n      dup2\n        /* \"#utility.yul\":14459:14469   */\n      dup2\n        /* \"#utility.yul\":14456:14478   */\n      lt\n        /* \"#utility.yul\":14435:14453   */\n      0xffffffffffffffff\n        /* \"#utility.yul\":14423:14433   */\n      dup3\n        /* \"#utility.yul\":14420:14454   */\n      gt\n        /* \"#utility.yul\":14417:14479   */\n      or\n        /* \"#utility.yul\":14414:14502   */\n      iszero\n      tag_299\n      jumpi\n        /* \"#utility.yul\":14482:14500   */\n      tag_300\n      tag_74\n      jump\t// in\n    tag_300:\n        /* \"#utility.yul\":14414:14502   */\n    tag_299:\n        /* \"#utility.yul\":14522:14532   */\n      dup1\n        /* \"#utility.yul\":14518:14520   */\n      0x40\n        /* \"#utility.yul\":14511:14533   */\n      mstore\n        /* \"#utility.yul\":14301:14539   */\n      pop\n        /* \"#utility.yul\":14258:14539   */\n      pop\n      pop\n      jump\t// out\n        /* \"#utility.yul\":14545:14778   */\n    tag_48:\n        /* \"#utility.yul\":14584:14587   */\n      0x00\n        /* \"#utility.yul\":14607:14631   */\n      tag_302\n        /* \"#utility.yul\":14625:14630   */\n      dup3\n        /* \"#utility.yul\":14607:14631   */\n      tag_211\n      jump\t// in\n    tag_302:\n        /* \"#utility.yul\":14598:14631   */\n      swap2\n      pop\n        /* \"#utility.yul\":14653:14719   */\n      0xffffffffffffffffffffffffffffffffffffffffffffffffffffffffffffffff\n        /* \"#utility.yul\":14646:14651   */\n      dup3\n        /* \"#utility.yul\":14643:14720   */\n      eq\n        /* \"#utility.yul\":14640:14743   */\n      iszero\n      tag_303\n      jumpi\n        /* \"#utility.yul\":14723:14741   */\n      tag_304\n      tag_274\n      jump\t// in\n    tag_304:\n        /* \"#utility.yul\":14640:14743   */\n    tag_303:\n        /* \"#utility.yul\":14770:14771   */\n      0x01\n        /* \"#utility.yul\":14763:14768   */\n      dup3\n        /* \"#utility.yul\":14759:14772   */\n      add\n        /* \"#utility.yul\":14752:14772   */\n      swap1\n      pop\n        /* \"#utility.yul\":14545:14778   */\n      swap2\n      swap1\n      pop\n      jump\t// out\n        /* \"#utility.yul\":14784:14884   */\n    tag_159:\n        /* \"#utility.yul\":14823:14830   */\n      0x00\n        /* \"#utility.yul\":14852:14878   */\n      tag_306\n        /* \"#utility.yul\":14872:14877   */\n      dup3\n        /* \"#utility.yul\":14852:14878   */\n      tag_307\n      jump\t// in\n    tag_306:\n        /* \"#utility.yul\":14841:14878   */\n      swap1\n      pop\n        /* \"#utility.yul\":14784:14884   */\n      swap2\n      swap1\n      pop\n      jump\t// out\n        /* \"#utility.yul\":14890:14984   */\n    tag_307:\n        /* \"#utility.yul\":14929:14936   */\n      0x00\n        /* \"#utility.yul\":14958:14978   */\n      tag_309\n        /* \"#utility.yul\":14972:14977   */\n      dup3\n        /* \"#utility.yul\":14958:14978   */\n      tag_310\n      jump\t// in\n    tag_309:\n        /* \"#utility.yul\":14947:14978   */\n      swap1\n      pop\n        /* \"#utility.yul\":14890:14984   */\n      swap2\n      swap1\n      pop\n      jump\t// out\n        /* \"#utility.yul\":14990:15069   */\n    tag_219:\n        /* \"#utility.yul\":15029:15036   */\n      0x00\n        /* \"#utility.yul\":15058:15063   */\n      dup2\n        /* \"#utility.yul\":15047:15063   */\n      swap1\n      pop\n        /* \"#utility.yul\":14990:15069   */\n      swap2\n      swap1\n      pop\n      jump\t// out\n        /* \"#utility.yul\":15075:15251   */\n    tag_93:\n        /* \"#utility.yul\":15107:15108   */\n      0x00\n        /* \"#utility.yul\":15124:15144   */\n      tag_313\n        /* \"#utility.yul\":15142:15143   */\n      dup3\n        /* \"#utility.yul\":15124:15144   */\n      tag_211\n      jump\t// in\n    tag_313:\n        /* \"#utility.yul\":15119:15144   */\n      swap2\n      pop\n        /* \"#utility.yul\":15158:15178   */\n      tag_314\n        /* \"#utility.yul\":15176:15177   */\n      dup4\n        /* \"#utility.yul\":15158:15178   */\n      tag_211\n      jump\t// in\n    tag_314:\n        /* \"#utility.yul\":15153:15178   */\n      swap3\n      pop\n        /* \"#utility.yul\":15197:15198   */\n      dup3\n        /* \"#utility.yul\":15187:15222   */\n      tag_315\n      jumpi\n        /* \"#utility.yul\":15202:15220   */\n      tag_316\n      tag_317\n      jump\t// in\n    tag_316:\n        /* \"#utility.yul\":15187:15222   */\n    tag_315:\n        /* \"#utility.yul\":15243:15244   */\n      dup3\n        /* \"#utility.yul\":15240:15241   */\n      dup3\n        /* \"#utility.yul\":15236:15245   */\n      mod\n        /* \"#utility.yul\":15231:15245   */\n      swap1\n      pop\n        /* \"#utility.yul\":15075:15251   */\n      swap3\n      swap2\n      pop\n      pop\n      jump\t// out\n        /* \"#utility.yul\":15257:15437   */\n    tag_274:\n        /* \"#utility.yul\":15305:15382   */\n      0x4e487b7100000000000000000000000000000000000000000000000000000000\n        /* \"#utility.yul\":15302:15303   */\n      0x00\n        /* \"#utility.yul\":15295:15383   */\n      mstore\n        /* \"#utility.yul\":15402:15406   */\n      0x11\n        /* \"#utility.yul\":15399:15400   */\n      0x04\n        /* \"#utility.yul\":15392:15407   */\n      mstore\n        /* \"#utility.yul\":15426:15430   */\n      0x24\n        /* \"#utility.yul\":15423:15424   */\n      0x00\n        /* \"#utility.yul\":15416:15431   */\n      revert\n        /* \"#utility.yul\":15443:15623   */\n    tag_317:\n        /* \"#utility.yul\":15491:15568   */\n      0x4e487b7100000000000000000000000000000000000000000000000000000000\n        /* \"#utility.yul\":15488:15489   */\n      0x00\n        /* \"#utility.yul\":15481:15569   */\n      mstore\n        /* \"#utility.yul\":15588:15592   */\n      0x12\n        /* \"#utility.yul\":15585:15586   */\n      0x04\n        /* \"#utility.yul\":15578:15593   */\n      mstore\n        /* \"#utility.yul\":15612:15616   */\n      0x24\n        /* \"#utility.yul\":15609:15610   */\n      0x00\n        /* \"#utility.yul\":15602:15617   */\n      revert\n        /* \"#utility.yul\":15629:15809   */\n    tag_296:\n        /* \"#utility.yul\":15677:15754   */\n      0x4e487b7100000000000000000000000000000000000000000000000000000000\n        /* \"#utility.yul\":15674:15675   */\n      0x00\n        /* \"#utility.yul\":15667:15755   */\n      mstore\n        /* \"#utility.yul\":15774:15778   */\n      0x22\n        /* \"#utility.yul\":15771:15772   */\n      0x04\n        /* \"#utility.yul\":15764:15779   */\n      mstore\n        /* \"#utility.yul\":15798:15802   */\n      0x24\n        /* \"#utility.yul\":15795:15796   */\n      0x00\n        /* \"#utility.yul\":15788:15803   */\n      revert\n        /* \"#utility.yul\":15815:15995   */\n    tag_67:\n        /* \"#utility.yul\":15863:15940   */\n      0x4e487b7100000000000000000000000000000000000000000000000000000000\n        /* \"#utility.yul\":15860:15861   */\n      0x00\n        /* \"#utility.yul\":15853:15941   */\n      mstore\n        /* \"#utility.yul\":15960:15964   */\n      0x32\n        /* \"#utility.yul\":15957:15958   */\n      0x04\n        /* \"#utility.yul\":15950:15965   */\n      mstore\n        /* \"#utility.yul\":15984:15988   */\n      0x24\n        /* \"#utility.yul\":15981:15982   */\n      0x00\n        /* \"#utility.yul\":15974:15989   */\n      revert\n        /* \"#utility.yul\":16001:16181   */\n    tag_74:\n        /* \"#utility.yul\":16049:16126   */\n      0x4e487b7100000000000000000000000000000000000000000000000000000000\n        /* \"#utility.yul\":16046:16047   */\n      0x00\n        /* \"#utility.yul\":16039:16127   */\n      mstore\n        /* \"#utility.yul\":16146:16150   */\n      0x41\n        /* \"#utility.yul\":16143:16144   */\n      0x04\n        /* \"#utility.yul\":16136:16151   */\n      mstore\n        /* \"#utility.yul\":16170:16174   */\n      0x24\n        /* \"#utility.yul\":16167:16168   */\n      0x00\n        /* \"#utility.yul\":16160:16175   */\n      revert\n        /* \"#utility.yul\":16187:16304   */\n    tag_125:\n        /* \"#utility.yul\":16296:16297   */\n      0x00\n        /* \"#utility.yul\":16293:16294   */\n      dup1\n        /* \"#utility.yul\":16286:16298   */\n      revert\n        /* \"#utility.yul\":16310:16427   */\n    tag_114:\n        /* \"#utility.yul\":16419:16420   */\n      0x00\n        /* \"#utility.yul\":16416:16417   */\n      dup1\n        /* \"#utility.yul\":16409:16421   */\n      revert\n        /* \"#utility.yul\":16433:16550   */\n    tag_145:\n        /* \"#utility.yul\":16542:16543   */\n      0x00\n        /* \"#utility.yul\":16539:16540   */\n      dup1\n        /* \"#utility.yul\":16532:16544   */\n      revert\n        /* \"#utility.yul\":16556:16673   */\n    tag_134:\n        /* \"#utility.yul\":16665:16666   */\n      0x00\n        /* \"#utility.yul\":16662:16663   */\n      dup1\n        /* \"#utility.yul\":16655:16667   */\n      revert\n        /* \"#utility.yul\":16679:16781   */\n    tag_187:\n        /* \"#utility.yul\":16720:16726   */\n      0x00\n        /* \"#utility.yul\":16771:16773   */\n      0x1f\n        /* \"#utility.yul\":16767:16774   */\n      not\n        /* \"#utility.yul\":16762:16764   */\n      0x1f\n        /* \"#utility.yul\":16755:16760   */\n      dup4\n        /* \"#utility.yul\":16751:16765   */\n      add\n        /* \"#utility.yul\":16747:16775   */\n      and\n        /* \"#utility.yul\":16737:16775   */\n      swap1\n      pop\n        /* \"#utility.yul\":16679:16781   */\n      swap2\n      swap1\n      pop\n      jump\t// out\n        /* \"#utility.yul\":16787:16881   */\n    tag_310:\n        /* \"#utility.yul\":16820:16828   */\n      0x00\n        /* \"#utility.yul\":16868:16873   */\n      dup2\n        /* \"#utility.yul\":16864:16866   */\n      0x60\n        /* \"#utility.yul\":16860:16874   */\n      shl\n        /* \"#utility.yul\":16839:16874   */\n      swap1\n      pop\n        /* \"#utility.yul\":16787:16881   */\n      swap2\n      swap1\n      pop\n      jump\t// out\n        /* \"#utility.yul\":16887:17057   */\n    tag_198:\n        /* \"#utility.yul\":17027:17049   */\n      0x76616c75652063616e6e6f74206265206e756c6c000000000000000000000000\n        /* \"#utility.yul\":17023:17024   */\n      0x00\n        /* \"#utility.yul\":17015:17021   */\n      dup3\n        /* \"#utility.yul\":17011:17025   */\n      add\n        /* \"#utility.yul\":17004:17050   */\n      mstore\n        /* \"#utility.yul\":16887:17057   */\n      pop\n      jump\t// out\n        /* \"#utility.yul\":17063:17240   */\n    tag_203:\n        /* \"#utility.yul\":17203:17232   */\n      0x7468697320686f757365496420616c7265616479206578697374730000000000\n        /* \"#utility.yul\":17199:17200   */\n      0x00\n        /* \"#utility.yul\":17191:17197   */\n      dup3\n        /* \"#utility.yul\":17187:17201   */\n      add\n        /* \"#utility.yul\":17180:17233   */\n      mstore\n        /* \"#utility.yul\":17063:17240   */\n      pop\n      jump\t// out\n        /* \"#utility.yul\":17246:17476   */\n    tag_208:\n        /* \"#utility.yul\":17386:17420   */\n      0x596f7520646f206e6f7420686176652061636365737320746f2064656c657465\n        /* \"#utility.yul\":17382:17383   */\n      0x00\n        /* \"#utility.yul\":17374:17380   */\n      dup3\n        /* \"#utility.yul\":17370:17384   */\n      add\n        /* \"#utility.yul\":17363:17421   */\n      mstore\n        /* \"#utility.yul\":17455:17468   */\n      0x207468697320686f757365000000000000000000000000000000000000000000\n        /* \"#utility.yul\":17450:17452   */\n      0x20\n        /* \"#utility.yul\":17442:17448   */\n      dup3\n        /* \"#utility.yul\":17438:17453   */\n      add\n        /* \"#utility.yul\":17431:17469   */\n      mstore\n        /* \"#utility.yul\":17246:17476   */\n      pop\n      jump\t// out\n        /* \"#utility.yul\":17482:17604   */\n    tag_120:\n        /* \"#utility.yul\":17555:17579   */\n      tag_333\n        /* \"#utility.yul\":17573:17578   */\n      dup2\n        /* \"#utility.yul\":17555:17579   */\n      tag_154\n      jump\t// in\n    tag_333:\n        /* \"#utility.yul\":17548:17553   */\n      dup2\n        /* \"#utility.yul\":17545:17580   */\n      eq\n        /* \"#utility.yul\":17535:17598   */\n      tag_334\n      jumpi\n        /* \"#utility.yul\":17594:17595   */\n      0x00\n        /* \"#utility.yul\":17591:17592   */\n      dup1\n        /* \"#utility.yul\":17584:17596   */\n      revert\n        /* \"#utility.yul\":17535:17598   */\n    tag_334:\n        /* \"#utility.yul\":17482:17604   */\n      pop\n      jump\t// out\n        /* \"#utility.yul\":17610:17732   */\n    tag_130:\n        /* \"#utility.yul\":17683:17707   */\n      tag_336\n        /* \"#utility.yul\":17701:17706   */\n      dup2\n        /* \"#utility.yul\":17683:17707   */\n      tag_211\n      jump\t// in\n    tag_336:\n        /* \"#utility.yul\":17676:17681   */\n      dup2\n        /* \"#utility.yul\":17673:17708   */\n      eq\n        /* \"#utility.yul\":17663:17726   */\n      tag_337\n      jumpi\n        /* \"#utility.yul\":17722:17723   */\n      0x00\n        /* \"#utility.yul\":17719:17720   */\n      dup1\n        /* \"#utility.yul\":17712:17724   */\n      revert\n        /* \"#utility.yul\":17663:17726   */\n    tag_337:\n        /* \"#utility.yul\":17610:17732   */\n      pop\n      jump\t// out\n\n    auxdata: 0xa264697066735822122027159a6b3199017c6b544ef6fae9d8c538a072a6f9b2a846430e7ad1b8f1ca1e64736f6c63430008070033\n}\n",
				"bytecode": {
					"linkReferences": {},
					"object": "60806040526005600055600054600a6200001a919062000098565b6001556201518060025560016003553480156200003657600080fd5b506200021b565b6000808291508390505b60018511156200008f57808604811115620000675762000066620001df565b5b6001851615620000775780820291505b808102905062000087856200020e565b945062000047565b94509492505050565b6000620000a582620001d5565b9150620000b283620001d5565b9250620000e17fffffffffffffffffffffffffffffffffffffffffffffffffffffffffffffffff8484620000e9565b905092915050565b600082620000fb5760019050620001ce565b816200010b5760009050620001ce565b81600181146200012457600281146200012f5762000165565b6001915050620001ce565b60ff841115620001445762000143620001df565b5b8360020a9150848211156200015e576200015d620001df565b5b50620001ce565b5060208310610133831016604e8410600b84101617156200019f5782820a905083811115620001995762000198620001df565b5b620001ce565b620001ae84848460016200003d565b92509050818404811115620001c857620001c7620001df565b5b81810290505b9392505050565b6000819050919050565b7f4e487b7100000000000000000000000000000000000000000000000000000000600052601160045260246000fd5b60008160011c9050919050565b6112b7806200022b6000396000f3fe608060405234801561001057600080fd5b506004361061004c5760003560e01c806319161161146100515780633c3b0b4a14610081578063aeda852f146100b1578063c45e1b25146100e9575b600080fd5b61006b6004803603810190610066919061096a565b610119565b6040516100789190610c91565b60405180910390f35b61009b6004803603810190610096919061093d565b6103f8565b6040516100a89190610c0f565b60405180910390f35b6100cb60048036038101906100c6919061093d565b61050a565b6040516100e099989796959493929190610d06565b60405180910390f35b61010360048036038101906100fe919061093d565b61062d565b6040516101109190610bed565b60405180910390f35b60008084876101289190610ea6565b11610168576040517f08c379a000000000000000000000000000000000000000000000000000000000815260040161015f90610c31565b60405180910390fd5b60006101758486856107ab565b905060066000828152602001908152602001600020600001548114156101d0576040517f08c379a00000000000000000000000000000000000000000000000000000000081526004016101c790610c51565b60405180910390fd5b60405180610120016040528082815260200160035481526020018881526020018781526020018681526020018573ffffffffffffffffffffffffffffffffffffffff1681526020018573ffffffffffffffffffffffffffffffffffffffff1681526020018481526020016000151581525060066000838152602001908152602001600020600082015181600001556020820151816001015560408201518160020155606082015181600301556080820151816004015560a08201518160050160006101000a81548173ffffffffffffffffffffffffffffffffffffffff021916908373ffffffffffffffffffffffffffffffffffffffff16021790555060c08201518160060160006101000a81548173ffffffffffffffffffffffffffffffffffffffff021916908373ffffffffffffffffffffffffffffffffffffffff16021790555060e0820151816007019080519060200190610330929190610800565b506101008201518160080160006101000a81548160ff02191690831515021790555090505061036b600254426103669190610e50565b6107f6565b6005819080600181540180825580915050600190039060005260206000200160009091909190915055600360008154809291906103a790610fed565b91905055507f3070c472a527c6fdf9d1d29d3f8de3f74a2de6ef97db5cc15b587188b278951f81858989876040516103e3959493929190610cac565b60405180910390a18091505095945050505050565b60603373ffffffffffffffffffffffffffffffffffffffff166006600084815260200190815260200160002060050160009054906101000a900473ffffffffffffffffffffffffffffffffffffffff1673ffffffffffffffffffffffffffffffffffffffff161461049e576040517f08c379a000000000000000000000000000000000000000000000000000000000815260040161049590610c71565b60405180910390fd5b60016006600084815260200190815260200160002060080160006101000a81548160ff0219169083151502179055506040518060400160405280601581526020017f64656c69737420776173207375636365737366756c00000000000000000000008152509050919050565b60066020528060005260406000206000915090508060000154908060010154908060020154908060030154908060040154908060050160009054906101000a900473ffffffffffffffffffffffffffffffffffffffff16908060060160009054906101000a900473ffffffffffffffffffffffffffffffffffffffff169080600701805461059790610f8a565b80601f01602080910402602001604051908101604052809291908181526020018280546105c390610f8a565b80156106105780601f106105e557610100808354040283529160200191610610565b820191906000526020600020905b8154815290600101906020018083116105f357829003601f168201915b5050505050908060080160009054906101000a900460ff16905089565b60606000805b60058054905081101561069e5783600660006005848154811061065957610658611122565b5b9060005260206000200154815260200190815260200160002060020154101561068b57818061068790610fed565b9250505b808061069690610fed565b915050610633565b5060008167ffffffffffffffff8111156106bb576106ba611151565b5b6040519080825280602002602001820160405280156106e95781602001602082028036833780820191505090505b50905060005b6005805490508110156107a05784600660006005848154811061071557610714611122565b5b9060005260206000200154815260200190815260200160002060020154101561078d5760066000600583815481106107505761074f611122565b5b90600052602060002001548152602001908152602001600020600001548282815181106107805761077f611122565b5b6020026020010181815250505b808061079890610fed565b9150506106ef565b508092505050919050565b6000808484846040516020016107c393929190610bb4565b6040516020818303038152906040528051906020012060001c9050600154816107ec9190611064565b9150509392505050565b8060048190555050565b82805461080c90610f8a565b90600052602060002090601f01602090048101928261082e5760008555610875565b82601f1061084757805160ff1916838001178555610875565b82800160010185558215610875579182015b82811115610874578251825591602001919060010190610859565b5b5090506108829190610886565b5090565b5b8082111561089f576000816000905550600101610887565b5090565b60006108b66108b184610dbf565b610d9a565b9050828152602081018484840111156108d2576108d1611185565b5b6108dd848285610f48565b509392505050565b6000813590506108f481611253565b92915050565b600082601f83011261090f5761090e611180565b5b813561091f8482602086016108a3565b91505092915050565b6000813590506109378161126a565b92915050565b6000602082840312156109535761095261118f565b5b600061096184828501610928565b91505092915050565b600080600080600060a086880312156109865761098561118f565b5b600061099488828901610928565b95505060206109a588828901610928565b94505060406109b688828901610928565b93505060606109c7888289016108e5565b925050608086013567ffffffffffffffff8111156109e8576109e761118a565b5b6109f4888289016108fa565b9150509295509295909350565b6000610a0d8383610b7f565b60208301905092915050565b610a2281610f00565b82525050565b610a39610a3482610f00565b611036565b82525050565b6000610a4a82610e00565b610a548185610e23565b9350610a5f83610df0565b8060005b83811015610a90578151610a778882610a01565b9750610a8283610e16565b925050600181019050610a63565b5085935050505092915050565b610aa681610f12565b82525050565b6000610ab782610e0b565b610ac18185610e34565b9350610ad1818560208601610f57565b610ada81611194565b840191505092915050565b6000610af082610e0b565b610afa8185610e45565b9350610b0a818560208601610f57565b80840191505092915050565b6000610b23601483610e34565b9150610b2e826111b2565b602082019050919050565b6000610b46601b83610e34565b9150610b51826111db565b602082019050919050565b6000610b69602b83610e34565b9150610b7482611204565b604082019050919050565b610b8881610f3e565b82525050565b610b9781610f3e565b82525050565b610bae610ba982610f3e565b61105a565b82525050565b6000610bc08286610a28565b601482019150610bd08285610b9d565b602082019150610be08284610ae5565b9150819050949350505050565b60006020820190508181036000830152610c078184610a3f565b905092915050565b60006020820190508181036000830152610c298184610aac565b905092915050565b60006020820190508181036000830152610c4a81610b16565b9050919050565b60006020820190508181036000830152610c6a81610b39565b9050919050565b60006020820190508181036000830152610c8a81610b5c565b9050919050565b6000602082019050610ca66000830184610b8e565b92915050565b600060a082019050610cc16000830188610b8e565b610cce6020830187610a19565b610cdb6040830186610b8e565b610ce86060830185610b8e565b8181036080830152610cfa8184610aac565b90509695505050505050565b600061012082019050610d1c600083018c610b8e565b610d29602083018b610b8e565b610d36604083018a610b8e565b610d436060830189610b8e565b610d506080830188610b8e565b610d5d60a0830187610a19565b610d6a60c0830186610a19565b81810360e0830152610d7c8185610aac565b9050610d8c610100830184610a9d565b9a9950505050505050505050565b6000610da4610db5565b9050610db08282610fbc565b919050565b6000604051905090565b600067ffffffffffffffff821115610dda57610dd9611151565b5b610de382611194565b9050602081019050919050565b6000819050602082019050919050565b600081519050919050565b600081519050919050565b6000602082019050919050565b600082825260208201905092915050565b600082825260208201905092915050565b600081905092915050565b6000610e5b82610f3e565b9150610e6683610f3e565b9250827fffffffffffffffffffffffffffffffffffffffffffffffffffffffffffffffff03821115610e9b57610e9a611095565b5b828201905092915050565b6000610eb182610f3e565b9150610ebc83610f3e565b9250817fffffffffffffffffffffffffffffffffffffffffffffffffffffffffffffffff0483118215151615610ef557610ef4611095565b5b828202905092915050565b6000610f0b82610f1e565b9050919050565b60008115159050919050565b600073ffffffffffffffffffffffffffffffffffffffff82169050919050565b6000819050919050565b82818337600083830152505050565b60005b83811015610f75578082015181840152602081019050610f5a565b83811115610f84576000848401525b50505050565b60006002820490506001821680610fa257607f821691505b60208210811415610fb657610fb56110f3565b5b50919050565b610fc582611194565b810181811067ffffffffffffffff82111715610fe457610fe3611151565b5b80604052505050565b6000610ff882610f3e565b91507fffffffffffffffffffffffffffffffffffffffffffffffffffffffffffffffff82141561102b5761102a611095565b5b600182019050919050565b600061104182611048565b9050919050565b6000611053826111a5565b9050919050565b6000819050919050565b600061106f82610f3e565b915061107a83610f3e565b92508261108a576110896110c4565b5b828206905092915050565b7f4e487b7100000000000000000000000000000000000000000000000000000000600052601160045260246000fd5b7f4e487b7100000000000000000000000000000000000000000000000000000000600052601260045260246000fd5b7f4e487b7100000000000000000000000000000000000000000000000000000000600052602260045260246000fd5b7f4e487b7100000000000000000000000000000000000000000000000000000000600052603260045260246000fd5b7f4e487b7100000000000000000000000000000000000000000000000000000000600052604160045260246000fd5b600080fd5b600080fd5b600080fd5b600080fd5b6000601f19601f8301169050919050565b60008160601b9050919050565b7f76616c75652063616e6e6f74206265206e756c6c000000000000000000000000600082015250565b7f7468697320686f757365496420616c7265616479206578697374730000000000600082015250565b7f596f7520646f206e6f7420686176652061636365737320746f2064656c65746560008201527f207468697320686f757365000000000000000000000000000000000000000000602082015250565b61125c81610f00565b811461126757600080fd5b50565b61127381610f3e565b811461127e57600080fd5b5056fea264697066735822122027159a6b3199017c6b544ef6fae9d8c538a072a6f9b2a846430e7ad1b8f1ca1e64736f6c63430008070033",
					"opcodes": "PUSH1 0x80 PUSH1 0x40 MSTORE PUSH1 0x5 PUSH1 0x0 SSTORE PUSH1 0x0 SLOAD PUSH1 0xA PUSH3 0x1A SWAP2 SWAP1 PUSH3 0x98 JUMP JUMPDEST PUSH1 0x1 SSTORE PUSH3 0x15180 PUSH1 0x2 SSTORE PUSH1 0x1 PUSH1 0x3 SSTORE CALLVALUE DUP1 ISZERO PUSH3 0x36 JUMPI PUSH1 0x0 DUP1 REVERT JUMPDEST POP PUSH3 0x21B JUMP JUMPDEST PUSH1 0x0 DUP1 DUP3 SWAP2 POP DUP4 SWAP1 POP JUMPDEST PUSH1 0x1 DUP6 GT ISZERO PUSH3 0x8F JUMPI DUP1 DUP7 DIV DUP2 GT ISZERO PUSH3 0x67 JUMPI PUSH3 0x66 PUSH3 0x1DF JUMP JUMPDEST JUMPDEST PUSH1 0x1 DUP6 AND ISZERO PUSH3 0x77 JUMPI DUP1 DUP3 MUL SWAP2 POP JUMPDEST DUP1 DUP2 MUL SWAP1 POP PUSH3 0x87 DUP6 PUSH3 0x20E JUMP JUMPDEST SWAP5 POP PUSH3 0x47 JUMP JUMPDEST SWAP5 POP SWAP5 SWAP3 POP POP POP JUMP JUMPDEST PUSH1 0x0 PUSH3 0xA5 DUP3 PUSH3 0x1D5 JUMP JUMPDEST SWAP2 POP PUSH3 0xB2 DUP4 PUSH3 0x1D5 JUMP JUMPDEST SWAP3 POP PUSH3 0xE1 PUSH32 0xFFFFFFFFFFFFFFFFFFFFFFFFFFFFFFFFFFFFFFFFFFFFFFFFFFFFFFFFFFFFFFFF DUP5 DUP5 PUSH3 0xE9 JUMP JUMPDEST SWAP1 POP SWAP3 SWAP2 POP POP JUMP JUMPDEST PUSH1 0x0 DUP3 PUSH3 0xFB JUMPI PUSH1 0x1 SWAP1 POP PUSH3 0x1CE JUMP JUMPDEST DUP2 PUSH3 0x10B JUMPI PUSH1 0x0 SWAP1 POP PUSH3 0x1CE JUMP JUMPDEST DUP2 PUSH1 0x1 DUP2 EQ PUSH3 0x124 JUMPI PUSH1 0x2 DUP2 EQ PUSH3 0x12F JUMPI PUSH3 0x165 JUMP JUMPDEST PUSH1 0x1 SWAP2 POP POP PUSH3 0x1CE JUMP JUMPDEST PUSH1 0xFF DUP5 GT ISZERO PUSH3 0x144 JUMPI PUSH3 0x143 PUSH3 0x1DF JUMP JUMPDEST JUMPDEST DUP4 PUSH1 0x2 EXP SWAP2 POP DUP5 DUP3 GT ISZERO PUSH3 0x15E JUMPI PUSH3 0x15D PUSH3 0x1DF JUMP JUMPDEST JUMPDEST POP PUSH3 0x1CE JUMP JUMPDEST POP PUSH1 0x20 DUP4 LT PUSH2 0x133 DUP4 LT AND PUSH1 0x4E DUP5 LT PUSH1 0xB DUP5 LT AND OR ISZERO PUSH3 0x19F JUMPI DUP3 DUP3 EXP SWAP1 POP DUP4 DUP2 GT ISZERO PUSH3 0x199 JUMPI PUSH3 0x198 PUSH3 0x1DF JUMP JUMPDEST JUMPDEST PUSH3 0x1CE JUMP JUMPDEST PUSH3 0x1AE DUP5 DUP5 DUP5 PUSH1 0x1 PUSH3 0x3D JUMP JUMPDEST SWAP3 POP SWAP1 POP DUP2 DUP5 DIV DUP2 GT ISZERO PUSH3 0x1C8 JUMPI PUSH3 0x1C7 PUSH3 0x1DF JUMP JUMPDEST JUMPDEST DUP2 DUP2 MUL SWAP1 POP JUMPDEST SWAP4 SWAP3 POP POP POP JUMP JUMPDEST PUSH1 0x0 DUP2 SWAP1 POP SWAP2 SWAP1 POP JUMP JUMPDEST PUSH32 0x4E487B7100000000000000000000000000000000000000000000000000000000 PUSH1 0x0 MSTORE PUSH1 0x11 PUSH1 0x4 MSTORE PUSH1 0x24 PUSH1 0x0 REVERT JUMPDEST PUSH1 0x0 DUP2 PUSH1 0x1 SHR SWAP1 POP SWAP2 SWAP1 POP JUMP JUMPDEST PUSH2 0x12B7 DUP1 PUSH3 0x22B PUSH1 0x0 CODECOPY PUSH1 0x0 RETURN INVALID PUSH1 0x80 PUSH1 0x40 MSTORE CALLVALUE DUP1 ISZERO PUSH2 0x10 JUMPI PUSH1 0x0 DUP1 REVERT JUMPDEST POP PUSH1 0x4 CALLDATASIZE LT PUSH2 0x4C JUMPI PUSH1 0x0 CALLDATALOAD PUSH1 0xE0 SHR DUP1 PUSH4 0x19161161 EQ PUSH2 0x51 JUMPI DUP1 PUSH4 0x3C3B0B4A EQ PUSH2 0x81 JUMPI DUP1 PUSH4 0xAEDA852F EQ PUSH2 0xB1 JUMPI DUP1 PUSH4 0xC45E1B25 EQ PUSH2 0xE9 JUMPI JUMPDEST PUSH1 0x0 DUP1 REVERT JUMPDEST PUSH2 0x6B PUSH1 0x4 DUP1 CALLDATASIZE SUB DUP2 ADD SWAP1 PUSH2 0x66 SWAP2 SWAP1 PUSH2 0x96A JUMP JUMPDEST PUSH2 0x119 JUMP JUMPDEST PUSH1 0x40 MLOAD PUSH2 0x78 SWAP2 SWAP1 PUSH2 0xC91 JUMP JUMPDEST PUSH1 0x40 MLOAD DUP1 SWAP2 SUB SWAP1 RETURN JUMPDEST PUSH2 0x9B PUSH1 0x4 DUP1 CALLDATASIZE SUB DUP2 ADD SWAP1 PUSH2 0x96 SWAP2 SWAP1 PUSH2 0x93D JUMP JUMPDEST PUSH2 0x3F8 JUMP JUMPDEST PUSH1 0x40 MLOAD PUSH2 0xA8 SWAP2 SWAP1 PUSH2 0xC0F JUMP JUMPDEST PUSH1 0x40 MLOAD DUP1 SWAP2 SUB SWAP1 RETURN JUMPDEST PUSH2 0xCB PUSH1 0x4 DUP1 CALLDATASIZE SUB DUP2 ADD SWAP1 PUSH2 0xC6 SWAP2 SWAP1 PUSH2 0x93D JUMP JUMPDEST PUSH2 0x50A JUMP JUMPDEST PUSH1 0x40 MLOAD PUSH2 0xE0 SWAP10 SWAP9 SWAP8 SWAP7 SWAP6 SWAP5 SWAP4 SWAP3 SWAP2 SWAP1 PUSH2 0xD06 JUMP JUMPDEST PUSH1 0x40 MLOAD DUP1 SWAP2 SUB SWAP1 RETURN JUMPDEST PUSH2 0x103 PUSH1 0x4 DUP1 CALLDATASIZE SUB DUP2 ADD SWAP1 PUSH2 0xFE SWAP2 SWAP1 PUSH2 0x93D JUMP JUMPDEST PUSH2 0x62D JUMP JUMPDEST PUSH1 0x40 MLOAD PUSH2 0x110 SWAP2 SWAP1 PUSH2 0xBED JUMP JUMPDEST PUSH1 0x40 MLOAD DUP1 SWAP2 SUB SWAP1 RETURN JUMPDEST PUSH1 0x0 DUP1 DUP5 DUP8 PUSH2 0x128 SWAP2 SWAP1 PUSH2 0xEA6 JUMP JUMPDEST GT PUSH2 0x168 JUMPI PUSH1 0x40 MLOAD PUSH32 0x8C379A000000000000000000000000000000000000000000000000000000000 DUP2 MSTORE PUSH1 0x4 ADD PUSH2 0x15F SWAP1 PUSH2 0xC31 JUMP JUMPDEST PUSH1 0x40 MLOAD DUP1 SWAP2 SUB SWAP1 REVERT JUMPDEST PUSH1 0x0 PUSH2 0x175 DUP5 DUP7 DUP6 PUSH2 0x7AB JUMP JUMPDEST SWAP1 POP PUSH1 0x6 PUSH1 0x0 DUP3 DUP2 MSTORE PUSH1 0x20 ADD SWAP1 DUP2 MSTORE PUSH1 0x20 ADD PUSH1 0x0 KECCAK256 PUSH1 0x0 ADD SLOAD DUP2 EQ ISZERO PUSH2 0x1D0 JUMPI PUSH1 0x40 MLOAD PUSH32 0x8C379A000000000000000000000000000000000000000000000000000000000 DUP2 MSTORE PUSH1 0x4 ADD PUSH2 0x1C7 SWAP1 PUSH2 0xC51 JUMP JUMPDEST PUSH1 0x40 MLOAD DUP1 SWAP2 SUB SWAP1 REVERT JUMPDEST PUSH1 0x40 MLOAD DUP1 PUSH2 0x120 ADD PUSH1 0x40 MSTORE DUP1 DUP3 DUP2 MSTORE PUSH1 0x20 ADD PUSH1 0x3 SLOAD DUP2 MSTORE PUSH1 0x20 ADD DUP9 DUP2 MSTORE PUSH1 0x20 ADD DUP8 DUP2 MSTORE PUSH1 0x20 ADD DUP7 DUP2 MSTORE PUSH1 0x20 ADD DUP6 PUSH20 0xFFFFFFFFFFFFFFFFFFFFFFFFFFFFFFFFFFFFFFFF AND DUP2 MSTORE PUSH1 0x20 ADD DUP6 PUSH20 0xFFFFFFFFFFFFFFFFFFFFFFFFFFFFFFFFFFFFFFFF AND DUP2 MSTORE PUSH1 0x20 ADD DUP5 DUP2 MSTORE PUSH1 0x20 ADD PUSH1 0x0 ISZERO ISZERO DUP2 MSTORE POP PUSH1 0x6 PUSH1 0x0 DUP4 DUP2 MSTORE PUSH1 0x20 ADD SWAP1 DUP2 MSTORE PUSH1 0x20 ADD PUSH1 0x0 KECCAK256 PUSH1 0x0 DUP3 ADD MLOAD DUP2 PUSH1 0x0 ADD SSTORE PUSH1 0x20 DUP3 ADD MLOAD DUP2 PUSH1 0x1 ADD SSTORE PUSH1 0x40 DUP3 ADD MLOAD DUP2 PUSH1 0x2 ADD SSTORE PUSH1 0x60 DUP3 ADD MLOAD DUP2 PUSH1 0x3 ADD SSTORE PUSH1 0x80 DUP3 ADD MLOAD DUP2 PUSH1 0x4 ADD SSTORE PUSH1 0xA0 DUP3 ADD MLOAD DUP2 PUSH1 0x5 ADD PUSH1 0x0 PUSH2 0x100 EXP DUP2 SLOAD DUP2 PUSH20 0xFFFFFFFFFFFFFFFFFFFFFFFFFFFFFFFFFFFFFFFF MUL NOT AND SWAP1 DUP4 PUSH20 0xFFFFFFFFFFFFFFFFFFFFFFFFFFFFFFFFFFFFFFFF AND MUL OR SWAP1 SSTORE POP PUSH1 0xC0 DUP3 ADD MLOAD DUP2 PUSH1 0x6 ADD PUSH1 0x0 PUSH2 0x100 EXP DUP2 SLOAD DUP2 PUSH20 0xFFFFFFFFFFFFFFFFFFFFFFFFFFFFFFFFFFFFFFFF MUL NOT AND SWAP1 DUP4 PUSH20 0xFFFFFFFFFFFFFFFFFFFFFFFFFFFFFFFFFFFFFFFF AND MUL OR SWAP1 SSTORE POP PUSH1 0xE0 DUP3 ADD MLOAD DUP2 PUSH1 0x7 ADD SWAP1 DUP1 MLOAD SWAP1 PUSH1 0x20 ADD SWAP1 PUSH2 0x330 SWAP3 SWAP2 SWAP1 PUSH2 0x800 JUMP JUMPDEST POP PUSH2 0x100 DUP3 ADD MLOAD DUP2 PUSH1 0x8 ADD PUSH1 0x0 PUSH2 0x100 EXP DUP2 SLOAD DUP2 PUSH1 0xFF MUL NOT AND SWAP1 DUP4 ISZERO ISZERO MUL OR SWAP1 SSTORE POP SWAP1 POP POP PUSH2 0x36B PUSH1 0x2 SLOAD TIMESTAMP PUSH2 0x366 SWAP2 SWAP1 PUSH2 0xE50 JUMP JUMPDEST PUSH2 0x7F6 JUMP JUMPDEST PUSH1 0x5 DUP2 SWAP1 DUP1 PUSH1 0x1 DUP2 SLOAD ADD DUP1 DUP3 SSTORE DUP1 SWAP2 POP POP PUSH1 0x1 SWAP1 SUB SWAP1 PUSH1 0x0 MSTORE PUSH1 0x20 PUSH1 0x0 KECCAK256 ADD PUSH1 0x0 SWAP1 SWAP2 SWAP1 SWAP2 SWAP1 SWAP2 POP SSTORE PUSH1 0x3 PUSH1 0x0 DUP2 SLOAD DUP1 SWAP3 SWAP2 SWAP1 PUSH2 0x3A7 SWAP1 PUSH2 0xFED JUMP JUMPDEST SWAP2 SWAP1 POP SSTORE POP PUSH32 0x3070C472A527C6FDF9D1D29D3F8DE3F74A2DE6EF97DB5CC15B587188B278951F DUP2 DUP6 DUP10 DUP10 DUP8 PUSH1 0x40 MLOAD PUSH2 0x3E3 SWAP6 SWAP5 SWAP4 SWAP3 SWAP2 SWAP1 PUSH2 0xCAC JUMP JUMPDEST PUSH1 0x40 MLOAD DUP1 SWAP2 SUB SWAP1 LOG1 DUP1 SWAP2 POP POP SWAP6 SWAP5 POP POP POP POP POP JUMP JUMPDEST PUSH1 0x60 CALLER PUSH20 0xFFFFFFFFFFFFFFFFFFFFFFFFFFFFFFFFFFFFFFFF AND PUSH1 0x6 PUSH1 0x0 DUP5 DUP2 MSTORE PUSH1 0x20 ADD SWAP1 DUP2 MSTORE PUSH1 0x20 ADD PUSH1 0x0 KECCAK256 PUSH1 0x5 ADD PUSH1 0x0 SWAP1 SLOAD SWAP1 PUSH2 0x100 EXP SWAP1 DIV PUSH20 0xFFFFFFFFFFFFFFFFFFFFFFFFFFFFFFFFFFFFFFFF AND PUSH20 0xFFFFFFFFFFFFFFFFFFFFFFFFFFFFFFFFFFFFFFFF AND EQ PUSH2 0x49E JUMPI PUSH1 0x40 MLOAD PUSH32 0x8C379A000000000000000000000000000000000000000000000000000000000 DUP2 MSTORE PUSH1 0x4 ADD PUSH2 0x495 SWAP1 PUSH2 0xC71 JUMP JUMPDEST PUSH1 0x40 MLOAD DUP1 SWAP2 SUB SWAP1 REVERT JUMPDEST PUSH1 0x1 PUSH1 0x6 PUSH1 0x0 DUP5 DUP2 MSTORE PUSH1 0x20 ADD SWAP1 DUP2 MSTORE PUSH1 0x20 ADD PUSH1 0x0 KECCAK256 PUSH1 0x8 ADD PUSH1 0x0 PUSH2 0x100 EXP DUP2 SLOAD DUP2 PUSH1 0xFF MUL NOT AND SWAP1 DUP4 ISZERO ISZERO MUL OR SWAP1 SSTORE POP PUSH1 0x40 MLOAD DUP1 PUSH1 0x40 ADD PUSH1 0x40 MSTORE DUP1 PUSH1 0x15 DUP2 MSTORE PUSH1 0x20 ADD PUSH32 0x64656C69737420776173207375636365737366756C0000000000000000000000 DUP2 MSTORE POP SWAP1 POP SWAP2 SWAP1 POP JUMP JUMPDEST PUSH1 0x6 PUSH1 0x20 MSTORE DUP1 PUSH1 0x0 MSTORE PUSH1 0x40 PUSH1 0x0 KECCAK256 PUSH1 0x0 SWAP2 POP SWAP1 POP DUP1 PUSH1 0x0 ADD SLOAD SWAP1 DUP1 PUSH1 0x1 ADD SLOAD SWAP1 DUP1 PUSH1 0x2 ADD SLOAD SWAP1 DUP1 PUSH1 0x3 ADD SLOAD SWAP1 DUP1 PUSH1 0x4 ADD SLOAD SWAP1 DUP1 PUSH1 0x5 ADD PUSH1 0x0 SWAP1 SLOAD SWAP1 PUSH2 0x100 EXP SWAP1 DIV PUSH20 0xFFFFFFFFFFFFFFFFFFFFFFFFFFFFFFFFFFFFFFFF AND SWAP1 DUP1 PUSH1 0x6 ADD PUSH1 0x0 SWAP1 SLOAD SWAP1 PUSH2 0x100 EXP SWAP1 DIV PUSH20 0xFFFFFFFFFFFFFFFFFFFFFFFFFFFFFFFFFFFFFFFF AND SWAP1 DUP1 PUSH1 0x7 ADD DUP1 SLOAD PUSH2 0x597 SWAP1 PUSH2 0xF8A JUMP JUMPDEST DUP1 PUSH1 0x1F ADD PUSH1 0x20 DUP1 SWAP2 DIV MUL PUSH1 0x20 ADD PUSH1 0x40 MLOAD SWAP1 DUP2 ADD PUSH1 0x40 MSTORE DUP1 SWAP3 SWAP2 SWAP1 DUP2 DUP2 MSTORE PUSH1 0x20 ADD DUP3 DUP1 SLOAD PUSH2 0x5C3 SWAP1 PUSH2 0xF8A JUMP JUMPDEST DUP1 ISZERO PUSH2 0x610 JUMPI DUP1 PUSH1 0x1F LT PUSH2 0x5E5 JUMPI PUSH2 0x100 DUP1 DUP4 SLOAD DIV MUL DUP4 MSTORE SWAP2 PUSH1 0x20 ADD SWAP2 PUSH2 0x610 JUMP JUMPDEST DUP3 ADD SWAP2 SWAP1 PUSH1 0x0 MSTORE PUSH1 0x20 PUSH1 0x0 KECCAK256 SWAP1 JUMPDEST DUP2 SLOAD DUP2 MSTORE SWAP1 PUSH1 0x1 ADD SWAP1 PUSH1 0x20 ADD DUP1 DUP4 GT PUSH2 0x5F3 JUMPI DUP3 SWAP1 SUB PUSH1 0x1F AND DUP3 ADD SWAP2 JUMPDEST POP POP POP POP POP SWAP1 DUP1 PUSH1 0x8 ADD PUSH1 0x0 SWAP1 SLOAD SWAP1 PUSH2 0x100 EXP SWAP1 DIV PUSH1 0xFF AND SWAP1 POP DUP10 JUMP JUMPDEST PUSH1 0x60 PUSH1 0x0 DUP1 JUMPDEST PUSH1 0x5 DUP1 SLOAD SWAP1 POP DUP2 LT ISZERO PUSH2 0x69E JUMPI DUP4 PUSH1 0x6 PUSH1 0x0 PUSH1 0x5 DUP5 DUP2 SLOAD DUP2 LT PUSH2 0x659 JUMPI PUSH2 0x658 PUSH2 0x1122 JUMP JUMPDEST JUMPDEST SWAP1 PUSH1 0x0 MSTORE PUSH1 0x20 PUSH1 0x0 KECCAK256 ADD SLOAD DUP2 MSTORE PUSH1 0x20 ADD SWAP1 DUP2 MSTORE PUSH1 0x20 ADD PUSH1 0x0 KECCAK256 PUSH1 0x2 ADD SLOAD LT ISZERO PUSH2 0x68B JUMPI DUP2 DUP1 PUSH2 0x687 SWAP1 PUSH2 0xFED JUMP JUMPDEST SWAP3 POP POP JUMPDEST DUP1 DUP1 PUSH2 0x696 SWAP1 PUSH2 0xFED JUMP JUMPDEST SWAP2 POP POP PUSH2 0x633 JUMP JUMPDEST POP PUSH1 0x0 DUP2 PUSH8 0xFFFFFFFFFFFFFFFF DUP2 GT ISZERO PUSH2 0x6BB JUMPI PUSH2 0x6BA PUSH2 0x1151 JUMP JUMPDEST JUMPDEST PUSH1 0x40 MLOAD SWAP1 DUP1 DUP3 MSTORE DUP1 PUSH1 0x20 MUL PUSH1 0x20 ADD DUP3 ADD PUSH1 0x40 MSTORE DUP1 ISZERO PUSH2 0x6E9 JUMPI DUP2 PUSH1 0x20 ADD PUSH1 0x20 DUP3 MUL DUP1 CALLDATASIZE DUP4 CALLDATACOPY DUP1 DUP3 ADD SWAP2 POP POP SWAP1 POP JUMPDEST POP SWAP1 POP PUSH1 0x0 JUMPDEST PUSH1 0x5 DUP1 SLOAD SWAP1 POP DUP2 LT ISZERO PUSH2 0x7A0 JUMPI DUP5 PUSH1 0x6 PUSH1 0x0 PUSH1 0x5 DUP5 DUP2 SLOAD DUP2 LT PUSH2 0x715 JUMPI PUSH2 0x714 PUSH2 0x1122 JUMP JUMPDEST JUMPDEST SWAP1 PUSH1 0x0 MSTORE PUSH1 0x20 PUSH1 0x0 KECCAK256 ADD SLOAD DUP2 MSTORE PUSH1 0x20 ADD SWAP1 DUP2 MSTORE PUSH1 0x20 ADD PUSH1 0x0 KECCAK256 PUSH1 0x2 ADD SLOAD LT ISZERO PUSH2 0x78D JUMPI PUSH1 0x6 PUSH1 0x0 PUSH1 0x5 DUP4 DUP2 SLOAD DUP2 LT PUSH2 0x750 JUMPI PUSH2 0x74F PUSH2 0x1122 JUMP JUMPDEST JUMPDEST SWAP1 PUSH1 0x0 MSTORE PUSH1 0x20 PUSH1 0x0 KECCAK256 ADD SLOAD DUP2 MSTORE PUSH1 0x20 ADD SWAP1 DUP2 MSTORE PUSH1 0x20 ADD PUSH1 0x0 KECCAK256 PUSH1 0x0 ADD SLOAD DUP3 DUP3 DUP2 MLOAD DUP2 LT PUSH2 0x780 JUMPI PUSH2 0x77F PUSH2 0x1122 JUMP JUMPDEST JUMPDEST PUSH1 0x20 MUL PUSH1 0x20 ADD ADD DUP2 DUP2 MSTORE POP POP JUMPDEST DUP1 DUP1 PUSH2 0x798 SWAP1 PUSH2 0xFED JUMP JUMPDEST SWAP2 POP POP PUSH2 0x6EF JUMP JUMPDEST POP DUP1 SWAP3 POP POP POP SWAP2 SWAP1 POP JUMP JUMPDEST PUSH1 0x0 DUP1 DUP5 DUP5 DUP5 PUSH1 0x40 MLOAD PUSH1 0x20 ADD PUSH2 0x7C3 SWAP4 SWAP3 SWAP2 SWAP1 PUSH2 0xBB4 JUMP JUMPDEST PUSH1 0x40 MLOAD PUSH1 0x20 DUP2 DUP4 SUB SUB DUP2 MSTORE SWAP1 PUSH1 0x40 MSTORE DUP1 MLOAD SWAP1 PUSH1 0x20 ADD KECCAK256 PUSH1 0x0 SHR SWAP1 POP PUSH1 0x1 SLOAD DUP2 PUSH2 0x7EC SWAP2 SWAP1 PUSH2 0x1064 JUMP JUMPDEST SWAP2 POP POP SWAP4 SWAP3 POP POP POP JUMP JUMPDEST DUP1 PUSH1 0x4 DUP2 SWAP1 SSTORE POP POP JUMP JUMPDEST DUP3 DUP1 SLOAD PUSH2 0x80C SWAP1 PUSH2 0xF8A JUMP JUMPDEST SWAP1 PUSH1 0x0 MSTORE PUSH1 0x20 PUSH1 0x0 KECCAK256 SWAP1 PUSH1 0x1F ADD PUSH1 0x20 SWAP1 DIV DUP2 ADD SWAP3 DUP3 PUSH2 0x82E JUMPI PUSH1 0x0 DUP6 SSTORE PUSH2 0x875 JUMP JUMPDEST DUP3 PUSH1 0x1F LT PUSH2 0x847 JUMPI DUP1 MLOAD PUSH1 0xFF NOT AND DUP4 DUP1 ADD OR DUP6 SSTORE PUSH2 0x875 JUMP JUMPDEST DUP3 DUP1 ADD PUSH1 0x1 ADD DUP6 SSTORE DUP3 ISZERO PUSH2 0x875 JUMPI SWAP2 DUP3 ADD JUMPDEST DUP3 DUP2 GT ISZERO PUSH2 0x874 JUMPI DUP3 MLOAD DUP3 SSTORE SWAP2 PUSH1 0x20 ADD SWAP2 SWAP1 PUSH1 0x1 ADD SWAP1 PUSH2 0x859 JUMP JUMPDEST JUMPDEST POP SWAP1 POP PUSH2 0x882 SWAP2 SWAP1 PUSH2 0x886 JUMP JUMPDEST POP SWAP1 JUMP JUMPDEST JUMPDEST DUP1 DUP3 GT ISZERO PUSH2 0x89F JUMPI PUSH1 0x0 DUP2 PUSH1 0x0 SWAP1 SSTORE POP PUSH1 0x1 ADD PUSH2 0x887 JUMP JUMPDEST POP SWAP1 JUMP JUMPDEST PUSH1 0x0 PUSH2 0x8B6 PUSH2 0x8B1 DUP5 PUSH2 0xDBF JUMP JUMPDEST PUSH2 0xD9A JUMP JUMPDEST SWAP1 POP DUP3 DUP2 MSTORE PUSH1 0x20 DUP2 ADD DUP5 DUP5 DUP5 ADD GT ISZERO PUSH2 0x8D2 JUMPI PUSH2 0x8D1 PUSH2 0x1185 JUMP JUMPDEST JUMPDEST PUSH2 0x8DD DUP5 DUP3 DUP6 PUSH2 0xF48 JUMP JUMPDEST POP SWAP4 SWAP3 POP POP POP JUMP JUMPDEST PUSH1 0x0 DUP2 CALLDATALOAD SWAP1 POP PUSH2 0x8F4 DUP2 PUSH2 0x1253 JUMP JUMPDEST SWAP3 SWAP2 POP POP JUMP JUMPDEST PUSH1 0x0 DUP3 PUSH1 0x1F DUP4 ADD SLT PUSH2 0x90F JUMPI PUSH2 0x90E PUSH2 0x1180 JUMP JUMPDEST JUMPDEST DUP2 CALLDATALOAD PUSH2 0x91F DUP5 DUP3 PUSH1 0x20 DUP7 ADD PUSH2 0x8A3 JUMP JUMPDEST SWAP2 POP POP SWAP3 SWAP2 POP POP JUMP JUMPDEST PUSH1 0x0 DUP2 CALLDATALOAD SWAP1 POP PUSH2 0x937 DUP2 PUSH2 0x126A JUMP JUMPDEST SWAP3 SWAP2 POP POP JUMP JUMPDEST PUSH1 0x0 PUSH1 0x20 DUP3 DUP5 SUB SLT ISZERO PUSH2 0x953 JUMPI PUSH2 0x952 PUSH2 0x118F JUMP JUMPDEST JUMPDEST PUSH1 0x0 PUSH2 0x961 DUP5 DUP3 DUP6 ADD PUSH2 0x928 JUMP JUMPDEST SWAP2 POP POP SWAP3 SWAP2 POP POP JUMP JUMPDEST PUSH1 0x0 DUP1 PUSH1 0x0 DUP1 PUSH1 0x0 PUSH1 0xA0 DUP7 DUP9 SUB SLT ISZERO PUSH2 0x986 JUMPI PUSH2 0x985 PUSH2 0x118F JUMP JUMPDEST JUMPDEST PUSH1 0x0 PUSH2 0x994 DUP9 DUP3 DUP10 ADD PUSH2 0x928 JUMP JUMPDEST SWAP6 POP POP PUSH1 0x20 PUSH2 0x9A5 DUP9 DUP3 DUP10 ADD PUSH2 0x928 JUMP JUMPDEST SWAP5 POP POP PUSH1 0x40 PUSH2 0x9B6 DUP9 DUP3 DUP10 ADD PUSH2 0x928 JUMP JUMPDEST SWAP4 POP POP PUSH1 0x60 PUSH2 0x9C7 DUP9 DUP3 DUP10 ADD PUSH2 0x8E5 JUMP JUMPDEST SWAP3 POP POP PUSH1 0x80 DUP7 ADD CALLDATALOAD PUSH8 0xFFFFFFFFFFFFFFFF DUP2 GT ISZERO PUSH2 0x9E8 JUMPI PUSH2 0x9E7 PUSH2 0x118A JUMP JUMPDEST JUMPDEST PUSH2 0x9F4 DUP9 DUP3 DUP10 ADD PUSH2 0x8FA JUMP JUMPDEST SWAP2 POP POP SWAP3 SWAP6 POP SWAP3 SWAP6 SWAP1 SWAP4 POP JUMP JUMPDEST PUSH1 0x0 PUSH2 0xA0D DUP4 DUP4 PUSH2 0xB7F JUMP JUMPDEST PUSH1 0x20 DUP4 ADD SWAP1 POP SWAP3 SWAP2 POP POP JUMP JUMPDEST PUSH2 0xA22 DUP2 PUSH2 0xF00 JUMP JUMPDEST DUP3 MSTORE POP POP JUMP JUMPDEST PUSH2 0xA39 PUSH2 0xA34 DUP3 PUSH2 0xF00 JUMP JUMPDEST PUSH2 0x1036 JUMP JUMPDEST DUP3 MSTORE POP POP JUMP JUMPDEST PUSH1 0x0 PUSH2 0xA4A DUP3 PUSH2 0xE00 JUMP JUMPDEST PUSH2 0xA54 DUP2 DUP6 PUSH2 0xE23 JUMP JUMPDEST SWAP4 POP PUSH2 0xA5F DUP4 PUSH2 0xDF0 JUMP JUMPDEST DUP1 PUSH1 0x0 JUMPDEST DUP4 DUP2 LT ISZERO PUSH2 0xA90 JUMPI DUP2 MLOAD PUSH2 0xA77 DUP9 DUP3 PUSH2 0xA01 JUMP JUMPDEST SWAP8 POP PUSH2 0xA82 DUP4 PUSH2 0xE16 JUMP JUMPDEST SWAP3 POP POP PUSH1 0x1 DUP2 ADD SWAP1 POP PUSH2 0xA63 JUMP JUMPDEST POP DUP6 SWAP4 POP POP POP POP SWAP3 SWAP2 POP POP JUMP JUMPDEST PUSH2 0xAA6 DUP2 PUSH2 0xF12 JUMP JUMPDEST DUP3 MSTORE POP POP JUMP JUMPDEST PUSH1 0x0 PUSH2 0xAB7 DUP3 PUSH2 0xE0B JUMP JUMPDEST PUSH2 0xAC1 DUP2 DUP6 PUSH2 0xE34 JUMP JUMPDEST SWAP4 POP PUSH2 0xAD1 DUP2 DUP6 PUSH1 0x20 DUP7 ADD PUSH2 0xF57 JUMP JUMPDEST PUSH2 0xADA DUP2 PUSH2 0x1194 JUMP JUMPDEST DUP5 ADD SWAP2 POP POP SWAP3 SWAP2 POP POP JUMP JUMPDEST PUSH1 0x0 PUSH2 0xAF0 DUP3 PUSH2 0xE0B JUMP JUMPDEST PUSH2 0xAFA DUP2 DUP6 PUSH2 0xE45 JUMP JUMPDEST SWAP4 POP PUSH2 0xB0A DUP2 DUP6 PUSH1 0x20 DUP7 ADD PUSH2 0xF57 JUMP JUMPDEST DUP1 DUP5 ADD SWAP2 POP POP SWAP3 SWAP2 POP POP JUMP JUMPDEST PUSH1 0x0 PUSH2 0xB23 PUSH1 0x14 DUP4 PUSH2 0xE34 JUMP JUMPDEST SWAP2 POP PUSH2 0xB2E DUP3 PUSH2 0x11B2 JUMP JUMPDEST PUSH1 0x20 DUP3 ADD SWAP1 POP SWAP2 SWAP1 POP JUMP JUMPDEST PUSH1 0x0 PUSH2 0xB46 PUSH1 0x1B DUP4 PUSH2 0xE34 JUMP JUMPDEST SWAP2 POP PUSH2 0xB51 DUP3 PUSH2 0x11DB JUMP JUMPDEST PUSH1 0x20 DUP3 ADD SWAP1 POP SWAP2 SWAP1 POP JUMP JUMPDEST PUSH1 0x0 PUSH2 0xB69 PUSH1 0x2B DUP4 PUSH2 0xE34 JUMP JUMPDEST SWAP2 POP PUSH2 0xB74 DUP3 PUSH2 0x1204 JUMP JUMPDEST PUSH1 0x40 DUP3 ADD SWAP1 POP SWAP2 SWAP1 POP JUMP JUMPDEST PUSH2 0xB88 DUP2 PUSH2 0xF3E JUMP JUMPDEST DUP3 MSTORE POP POP JUMP JUMPDEST PUSH2 0xB97 DUP2 PUSH2 0xF3E JUMP JUMPDEST DUP3 MSTORE POP POP JUMP JUMPDEST PUSH2 0xBAE PUSH2 0xBA9 DUP3 PUSH2 0xF3E JUMP JUMPDEST PUSH2 0x105A JUMP JUMPDEST DUP3 MSTORE POP POP JUMP JUMPDEST PUSH1 0x0 PUSH2 0xBC0 DUP3 DUP7 PUSH2 0xA28 JUMP JUMPDEST PUSH1 0x14 DUP3 ADD SWAP2 POP PUSH2 0xBD0 DUP3 DUP6 PUSH2 0xB9D JUMP JUMPDEST PUSH1 0x20 DUP3 ADD SWAP2 POP PUSH2 0xBE0 DUP3 DUP5 PUSH2 0xAE5 JUMP JUMPDEST SWAP2 POP DUP2 SWAP1 POP SWAP5 SWAP4 POP POP POP POP JUMP JUMPDEST PUSH1 0x0 PUSH1 0x20 DUP3 ADD SWAP1 POP DUP2 DUP2 SUB PUSH1 0x0 DUP4 ADD MSTORE PUSH2 0xC07 DUP2 DUP5 PUSH2 0xA3F JUMP JUMPDEST SWAP1 POP SWAP3 SWAP2 POP POP JUMP JUMPDEST PUSH1 0x0 PUSH1 0x20 DUP3 ADD SWAP1 POP DUP2 DUP2 SUB PUSH1 0x0 DUP4 ADD MSTORE PUSH2 0xC29 DUP2 DUP5 PUSH2 0xAAC JUMP JUMPDEST SWAP1 POP SWAP3 SWAP2 POP POP JUMP JUMPDEST PUSH1 0x0 PUSH1 0x20 DUP3 ADD SWAP1 POP DUP2 DUP2 SUB PUSH1 0x0 DUP4 ADD MSTORE PUSH2 0xC4A DUP2 PUSH2 0xB16 JUMP JUMPDEST SWAP1 POP SWAP2 SWAP1 POP JUMP JUMPDEST PUSH1 0x0 PUSH1 0x20 DUP3 ADD SWAP1 POP DUP2 DUP2 SUB PUSH1 0x0 DUP4 ADD MSTORE PUSH2 0xC6A DUP2 PUSH2 0xB39 JUMP JUMPDEST SWAP1 POP SWAP2 SWAP1 POP JUMP JUMPDEST PUSH1 0x0 PUSH1 0x20 DUP3 ADD SWAP1 POP DUP2 DUP2 SUB PUSH1 0x0 DUP4 ADD MSTORE PUSH2 0xC8A DUP2 PUSH2 0xB5C JUMP JUMPDEST SWAP1 POP SWAP2 SWAP1 POP JUMP JUMPDEST PUSH1 0x0 PUSH1 0x20 DUP3 ADD SWAP1 POP PUSH2 0xCA6 PUSH1 0x0 DUP4 ADD DUP5 PUSH2 0xB8E JUMP JUMPDEST SWAP3 SWAP2 POP POP JUMP JUMPDEST PUSH1 0x0 PUSH1 0xA0 DUP3 ADD SWAP1 POP PUSH2 0xCC1 PUSH1 0x0 DUP4 ADD DUP9 PUSH2 0xB8E JUMP JUMPDEST PUSH2 0xCCE PUSH1 0x20 DUP4 ADD DUP8 PUSH2 0xA19 JUMP JUMPDEST PUSH2 0xCDB PUSH1 0x40 DUP4 ADD DUP7 PUSH2 0xB8E JUMP JUMPDEST PUSH2 0xCE8 PUSH1 0x60 DUP4 ADD DUP6 PUSH2 0xB8E JUMP JUMPDEST DUP2 DUP2 SUB PUSH1 0x80 DUP4 ADD MSTORE PUSH2 0xCFA DUP2 DUP5 PUSH2 0xAAC JUMP JUMPDEST SWAP1 POP SWAP7 SWAP6 POP POP POP POP POP POP JUMP JUMPDEST PUSH1 0x0 PUSH2 0x120 DUP3 ADD SWAP1 POP PUSH2 0xD1C PUSH1 0x0 DUP4 ADD DUP13 PUSH2 0xB8E JUMP JUMPDEST PUSH2 0xD29 PUSH1 0x20 DUP4 ADD DUP12 PUSH2 0xB8E JUMP JUMPDEST PUSH2 0xD36 PUSH1 0x40 DUP4 ADD DUP11 PUSH2 0xB8E JUMP JUMPDEST PUSH2 0xD43 PUSH1 0x60 DUP4 ADD DUP10 PUSH2 0xB8E JUMP JUMPDEST PUSH2 0xD50 PUSH1 0x80 DUP4 ADD DUP9 PUSH2 0xB8E JUMP JUMPDEST PUSH2 0xD5D PUSH1 0xA0 DUP4 ADD DUP8 PUSH2 0xA19 JUMP JUMPDEST PUSH2 0xD6A PUSH1 0xC0 DUP4 ADD DUP7 PUSH2 0xA19 JUMP JUMPDEST DUP2 DUP2 SUB PUSH1 0xE0 DUP4 ADD MSTORE PUSH2 0xD7C DUP2 DUP6 PUSH2 0xAAC JUMP JUMPDEST SWAP1 POP PUSH2 0xD8C PUSH2 0x100 DUP4 ADD DUP5 PUSH2 0xA9D JUMP JUMPDEST SWAP11 SWAP10 POP POP POP POP POP POP POP POP POP POP JUMP JUMPDEST PUSH1 0x0 PUSH2 0xDA4 PUSH2 0xDB5 JUMP JUMPDEST SWAP1 POP PUSH2 0xDB0 DUP3 DUP3 PUSH2 0xFBC JUMP JUMPDEST SWAP2 SWAP1 POP JUMP JUMPDEST PUSH1 0x0 PUSH1 0x40 MLOAD SWAP1 POP SWAP1 JUMP JUMPDEST PUSH1 0x0 PUSH8 0xFFFFFFFFFFFFFFFF DUP3 GT ISZERO PUSH2 0xDDA JUMPI PUSH2 0xDD9 PUSH2 0x1151 JUMP JUMPDEST JUMPDEST PUSH2 0xDE3 DUP3 PUSH2 0x1194 JUMP JUMPDEST SWAP1 POP PUSH1 0x20 DUP2 ADD SWAP1 POP SWAP2 SWAP1 POP JUMP JUMPDEST PUSH1 0x0 DUP2 SWAP1 POP PUSH1 0x20 DUP3 ADD SWAP1 POP SWAP2 SWAP1 POP JUMP JUMPDEST PUSH1 0x0 DUP2 MLOAD SWAP1 POP SWAP2 SWAP1 POP JUMP JUMPDEST PUSH1 0x0 DUP2 MLOAD SWAP1 POP SWAP2 SWAP1 POP JUMP JUMPDEST PUSH1 0x0 PUSH1 0x20 DUP3 ADD SWAP1 POP SWAP2 SWAP1 POP JUMP JUMPDEST PUSH1 0x0 DUP3 DUP3 MSTORE PUSH1 0x20 DUP3 ADD SWAP1 POP SWAP3 SWAP2 POP POP JUMP JUMPDEST PUSH1 0x0 DUP3 DUP3 MSTORE PUSH1 0x20 DUP3 ADD SWAP1 POP SWAP3 SWAP2 POP POP JUMP JUMPDEST PUSH1 0x0 DUP2 SWAP1 POP SWAP3 SWAP2 POP POP JUMP JUMPDEST PUSH1 0x0 PUSH2 0xE5B DUP3 PUSH2 0xF3E JUMP JUMPDEST SWAP2 POP PUSH2 0xE66 DUP4 PUSH2 0xF3E JUMP JUMPDEST SWAP3 POP DUP3 PUSH32 0xFFFFFFFFFFFFFFFFFFFFFFFFFFFFFFFFFFFFFFFFFFFFFFFFFFFFFFFFFFFFFFFF SUB DUP3 GT ISZERO PUSH2 0xE9B JUMPI PUSH2 0xE9A PUSH2 0x1095 JUMP JUMPDEST JUMPDEST DUP3 DUP3 ADD SWAP1 POP SWAP3 SWAP2 POP POP JUMP JUMPDEST PUSH1 0x0 PUSH2 0xEB1 DUP3 PUSH2 0xF3E JUMP JUMPDEST SWAP2 POP PUSH2 0xEBC DUP4 PUSH2 0xF3E JUMP JUMPDEST SWAP3 POP DUP2 PUSH32 0xFFFFFFFFFFFFFFFFFFFFFFFFFFFFFFFFFFFFFFFFFFFFFFFFFFFFFFFFFFFFFFFF DIV DUP4 GT DUP3 ISZERO ISZERO AND ISZERO PUSH2 0xEF5 JUMPI PUSH2 0xEF4 PUSH2 0x1095 JUMP JUMPDEST JUMPDEST DUP3 DUP3 MUL SWAP1 POP SWAP3 SWAP2 POP POP JUMP JUMPDEST PUSH1 0x0 PUSH2 0xF0B DUP3 PUSH2 0xF1E JUMP JUMPDEST SWAP1 POP SWAP2 SWAP1 POP JUMP JUMPDEST PUSH1 0x0 DUP2 ISZERO ISZERO SWAP1 POP SWAP2 SWAP1 POP JUMP JUMPDEST PUSH1 0x0 PUSH20 0xFFFFFFFFFFFFFFFFFFFFFFFFFFFFFFFFFFFFFFFF DUP3 AND SWAP1 POP SWAP2 SWAP1 POP JUMP JUMPDEST PUSH1 0x0 DUP2 SWAP1 POP SWAP2 SWAP1 POP JUMP JUMPDEST DUP3 DUP2 DUP4 CALLDATACOPY PUSH1 0x0 DUP4 DUP4 ADD MSTORE POP POP POP JUMP JUMPDEST PUSH1 0x0 JUMPDEST DUP4 DUP2 LT ISZERO PUSH2 0xF75 JUMPI DUP1 DUP3 ADD MLOAD DUP2 DUP5 ADD MSTORE PUSH1 0x20 DUP2 ADD SWAP1 POP PUSH2 0xF5A JUMP JUMPDEST DUP4 DUP2 GT ISZERO PUSH2 0xF84 JUMPI PUSH1 0x0 DUP5 DUP5 ADD MSTORE JUMPDEST POP POP POP POP JUMP JUMPDEST PUSH1 0x0 PUSH1 0x2 DUP3 DIV SWAP1 POP PUSH1 0x1 DUP3 AND DUP1 PUSH2 0xFA2 JUMPI PUSH1 0x7F DUP3 AND SWAP2 POP JUMPDEST PUSH1 0x20 DUP3 LT DUP2 EQ ISZERO PUSH2 0xFB6 JUMPI PUSH2 0xFB5 PUSH2 0x10F3 JUMP JUMPDEST JUMPDEST POP SWAP2 SWAP1 POP JUMP JUMPDEST PUSH2 0xFC5 DUP3 PUSH2 0x1194 JUMP JUMPDEST DUP2 ADD DUP2 DUP2 LT PUSH8 0xFFFFFFFFFFFFFFFF DUP3 GT OR ISZERO PUSH2 0xFE4 JUMPI PUSH2 0xFE3 PUSH2 0x1151 JUMP JUMPDEST JUMPDEST DUP1 PUSH1 0x40 MSTORE POP POP POP JUMP JUMPDEST PUSH1 0x0 PUSH2 0xFF8 DUP3 PUSH2 0xF3E JUMP JUMPDEST SWAP2 POP PUSH32 0xFFFFFFFFFFFFFFFFFFFFFFFFFFFFFFFFFFFFFFFFFFFFFFFFFFFFFFFFFFFFFFFF DUP3 EQ ISZERO PUSH2 0x102B JUMPI PUSH2 0x102A PUSH2 0x1095 JUMP JUMPDEST JUMPDEST PUSH1 0x1 DUP3 ADD SWAP1 POP SWAP2 SWAP1 POP JUMP JUMPDEST PUSH1 0x0 PUSH2 0x1041 DUP3 PUSH2 0x1048 JUMP JUMPDEST SWAP1 POP SWAP2 SWAP1 POP JUMP JUMPDEST PUSH1 0x0 PUSH2 0x1053 DUP3 PUSH2 0x11A5 JUMP JUMPDEST SWAP1 POP SWAP2 SWAP1 POP JUMP JUMPDEST PUSH1 0x0 DUP2 SWAP1 POP SWAP2 SWAP1 POP JUMP JUMPDEST PUSH1 0x0 PUSH2 0x106F DUP3 PUSH2 0xF3E JUMP JUMPDEST SWAP2 POP PUSH2 0x107A DUP4 PUSH2 0xF3E JUMP JUMPDEST SWAP3 POP DUP3 PUSH2 0x108A JUMPI PUSH2 0x1089 PUSH2 0x10C4 JUMP JUMPDEST JUMPDEST DUP3 DUP3 MOD SWAP1 POP SWAP3 SWAP2 POP POP JUMP JUMPDEST PUSH32 0x4E487B7100000000000000000000000000000000000000000000000000000000 PUSH1 0x0 MSTORE PUSH1 0x11 PUSH1 0x4 MSTORE PUSH1 0x24 PUSH1 0x0 REVERT JUMPDEST PUSH32 0x4E487B7100000000000000000000000000000000000000000000000000000000 PUSH1 0x0 MSTORE PUSH1 0x12 PUSH1 0x4 MSTORE PUSH1 0x24 PUSH1 0x0 REVERT JUMPDEST PUSH32 0x4E487B7100000000000000000000000000000000000000000000000000000000 PUSH1 0x0 MSTORE PUSH1 0x22 PUSH1 0x4 MSTORE PUSH1 0x24 PUSH1 0x0 REVERT JUMPDEST PUSH32 0x4E487B7100000000000000000000000000000000000000000000000000000000 PUSH1 0x0 MSTORE PUSH1 0x32 PUSH1 0x4 MSTORE PUSH1 0x24 PUSH1 0x0 REVERT JUMPDEST PUSH32 0x4E487B7100000000000000000000000000000000000000000000000000000000 PUSH1 0x0 MSTORE PUSH1 0x41 PUSH1 0x4 MSTORE PUSH1 0x24 PUSH1 0x0 REVERT JUMPDEST PUSH1 0x0 DUP1 REVERT JUMPDEST PUSH1 0x0 DUP1 REVERT JUMPDEST PUSH1 0x0 DUP1 REVERT JUMPDEST PUSH1 0x0 DUP1 REVERT JUMPDEST PUSH1 0x0 PUSH1 0x1F NOT PUSH1 0x1F DUP4 ADD AND SWAP1 POP SWAP2 SWAP1 POP JUMP JUMPDEST PUSH1 0x0 DUP2 PUSH1 0x60 SHL SWAP1 POP SWAP2 SWAP1 POP JUMP JUMPDEST PUSH32 0x76616C75652063616E6E6F74206265206E756C6C000000000000000000000000 PUSH1 0x0 DUP3 ADD MSTORE POP JUMP JUMPDEST PUSH32 0x7468697320686F757365496420616C7265616479206578697374730000000000 PUSH1 0x0 DUP3 ADD MSTORE POP JUMP JUMPDEST PUSH32 0x596F7520646F206E6F7420686176652061636365737320746F2064656C657465 PUSH1 0x0 DUP3 ADD MSTORE PUSH32 0x207468697320686F757365000000000000000000000000000000000000000000 PUSH1 0x20 DUP3 ADD MSTORE POP JUMP JUMPDEST PUSH2 0x125C DUP2 PUSH2 0xF00 JUMP JUMPDEST DUP2 EQ PUSH2 0x1267 JUMPI PUSH1 0x0 DUP1 REVERT JUMPDEST POP JUMP JUMPDEST PUSH2 0x1273 DUP2 PUSH2 0xF3E JUMP JUMPDEST DUP2 EQ PUSH2 0x127E JUMPI PUSH1 0x0 DUP1 REVERT JUMPDEST POP JUMP INVALID LOG2 PUSH5 0x6970667358 0x22 SLT KECCAK256 0x27 ISZERO SWAP11 PUSH12 0x3199017C6B544EF6FAE9D8C5 CODESIZE LOG0 PUSH19 0xA6F9B2A846430E7AD1B8F1CA1E64736F6C6343 STOP ADDMOD SMOD STOP CALLER "
				},
				"gasEstimates": {
					"creation": {
						"codeDepositCost": "958200",
						"executionCost": "infinite",
						"totalCost": "infinite"
					},
					"external": {
						"delistHouse(uint256)": "infinite",
						"getCheapHouseIds(uint256)": "infinite",
						"houses(uint256)": "infinite",
						"listHouse(uint256,uint256,uint256,address,string)": "infinite"
					},
					"internal": {
						"_generateHouseId(address,uint256,string memory)": "infinite",
						"_ownerCooldown(uint256)": "22125"
					}
				},
				"methodIdentifiers": {
					"delistHouse(uint256)": "3c3b0b4a",
					"getCheapHouseIds(uint256)": "c45e1b25",
					"houses(uint256)": "aeda852f",
					"listHouse(uint256,uint256,uint256,address,string)": "19161161"
				}
			},
			"storageLayout": {
				"storage": [
					{
						"astId": 4,
						"contract": "contract/HouseRegistry.sol:HouseRegistry",
						"label": "digits",
						"offset": 0,
						"slot": "0",
						"type": "t_uint256"
					},
					{
						"astId": 9,
						"contract": "contract/HouseRegistry.sol:HouseRegistry",
						"label": "modulus",
						"offset": 0,
						"slot": "1",
						"type": "t_uint256"
					},
					{
						"astId": 12,
						"contract": "contract/HouseRegistry.sol:HouseRegistry",
						"label": "cooldownTime",
						"offset": 0,
						"slot": "2",
						"type": "t_uint256"
					},
					{
						"astId": 15,
						"contract": "contract/HouseRegistry.sol:HouseRegistry",
						"label": "countOfHouses",
						"offset": 0,
						"slot": "3",
						"type": "t_uint256"
					},
					{
						"astId": 17,
						"contract": "contract/HouseRegistry.sol:HouseRegistry",
						"label": "ownerAddCooldown",
						"offset": 0,
						"slot": "4",
						"type": "t_uint256"
					},
					{
						"astId": 63,
						"contract": "contract/HouseRegistry.sol:HouseRegistry",
						"label": "houseIndex",
						"offset": 0,
						"slot": "5",
						"type": "t_array(t_uint256)dyn_storage"
					},
					{
						"astId": 68,
						"contract": "contract/HouseRegistry.sol:HouseRegistry",
						"label": "houses",
						"offset": 0,
						"slot": "6",
						"type": "t_mapping(t_uint256,t_struct(House)36_storage)"
					}
				],
				"types": {
					"t_address": {
						"encoding": "inplace",
						"label": "address",
						"numberOfBytes": "20"
					},
					"t_array(t_uint256)dyn_storage": {
						"base": "t_uint256",
						"encoding": "dynamic_array",
						"label": "uint256[]",
						"numberOfBytes": "32"
					},
					"t_bool": {
						"encoding": "inplace",
						"label": "bool",
						"numberOfBytes": "1"
					},
					"t_mapping(t_uint256,t_struct(House)36_storage)": {
						"encoding": "mapping",
						"key": "t_uint256",
						"label": "mapping(uint256 => struct HouseRegistry.House)",
						"numberOfBytes": "32",
						"value": "t_struct(House)36_storage"
					},
					"t_string_storage": {
						"encoding": "bytes",
						"label": "string",
						"numberOfBytes": "32"
					},
					"t_struct(House)36_storage": {
						"encoding": "inplace",
						"label": "struct HouseRegistry.House",
						"members": [
							{
								"astId": 19,
								"contract": "contract/HouseRegistry.sol:HouseRegistry",
								"label": "id",
								"offset": 0,
								"slot": "0",
								"type": "t_uint256"
							},
							{
								"astId": 21,
								"contract": "contract/HouseRegistry.sol:HouseRegistry",
								"label": "serialNumber",
								"offset": 0,
								"slot": "1",
								"type": "t_uint256"
							},
							{
								"astId": 23,
								"contract": "contract/HouseRegistry.sol:HouseRegistry",
								"label": "price",
								"offset": 0,
								"slot": "2",
								"type": "t_uint256"
							},
							{
								"astId": 25,
								"contract": "contract/HouseRegistry.sol:HouseRegistry",
								"label": "priceDai",
								"offset": 0,
								"slot": "3",
								"type": "t_uint256"
							},
							{
								"astId": 27,
								"contract": "contract/HouseRegistry.sol:HouseRegistry",
								"label": "area",
								"offset": 0,
								"slot": "4",
								"type": "t_uint256"
							},
							{
								"astId": 29,
								"contract": "contract/HouseRegistry.sol:HouseRegistry",
								"label": "sellerAddress",
								"offset": 0,
								"slot": "5",
								"type": "t_address"
							},
							{
								"astId": 31,
								"contract": "contract/HouseRegistry.sol:HouseRegistry",
								"label": "buyerAddress",
								"offset": 0,
								"slot": "6",
								"type": "t_address"
							},
							{
								"astId": 33,
								"contract": "contract/HouseRegistry.sol:HouseRegistry",
								"label": "houseAddress",
								"offset": 0,
								"slot": "7",
								"type": "t_string_storage"
							},
							{
								"astId": 35,
								"contract": "contract/HouseRegistry.sol:HouseRegistry",
								"label": "isdelistedHouse",
								"offset": 0,
								"slot": "8",
								"type": "t_bool"
							}
						],
						"numberOfBytes": "288"
					},
					"t_uint256": {
						"encoding": "inplace",
						"label": "uint256",
						"numberOfBytes": "32"
					}
				}
			},
			"userdoc": {
				"kind": "user",
				"methods": {},
				"version": 1
			}
		}
	}
}